{
  "abi": [
    {
      "type": "function",
      "name": "BURN_ADMIN_ROLE",
      "inputs": [],
      "outputs": [
        {
          "name": "",
          "type": "bytes32",
          "internalType": "bytes32"
        }
      ],
      "stateMutability": "view"
    },
    {
      "type": "function",
      "name": "DEFAULT_ADMIN_ROLE",
      "inputs": [],
      "outputs": [
        {
          "name": "",
          "type": "bytes32",
          "internalType": "bytes32"
        }
      ],
      "stateMutability": "view"
    },
    {
      "type": "function",
      "name": "ORCHESTRATOR_MANAGER_ROLE",
      "inputs": [],
      "outputs": [
        {
          "name": "",
          "type": "bytes32",
          "internalType": "bytes32"
        }
      ],
      "stateMutability": "view"
    },
    {
      "type": "function",
      "name": "ORCHESTRATOR_OWNER_ROLE",
      "inputs": [],
      "outputs": [
        {
          "name": "",
          "type": "bytes32",
          "internalType": "bytes32"
        }
      ],
      "stateMutability": "view"
    },
    {
      "type": "function",
      "name": "burnAdminFromModuleRole",
      "inputs": [
        {
          "name": "role",
          "type": "bytes32",
          "internalType": "bytes32"
        }
      ],
      "outputs": [],
      "stateMutability": "nonpayable"
    },
    {
      "type": "function",
      "name": "decoder",
      "inputs": [
        {
          "name": "data",
          "type": "bytes",
          "internalType": "bytes"
        }
      ],
      "outputs": [
        {
          "name": "requirement",
          "type": "bool",
          "internalType": "bool"
        }
      ],
      "stateMutability": "pure"
    },
    {
      "type": "function",
      "name": "generateRoleId",
      "inputs": [
        {
          "name": "module",
          "type": "address",
          "internalType": "address"
        },
        {
          "name": "role",
          "type": "bytes32",
          "internalType": "bytes32"
        }
      ],
      "outputs": [
        {
          "name": "",
          "type": "bytes32",
          "internalType": "bytes32"
        }
      ],
      "stateMutability": "pure"
    },
    {
      "type": "function",
      "name": "getManagerRole",
      "inputs": [],
      "outputs": [
        {
          "name": "",
          "type": "bytes32",
          "internalType": "bytes32"
        }
      ],
      "stateMutability": "pure"
    },
    {
      "type": "function",
      "name": "getOwnerRole",
      "inputs": [],
      "outputs": [
        {
          "name": "",
          "type": "bytes32",
          "internalType": "bytes32"
        }
      ],
      "stateMutability": "pure"
    },
    {
      "type": "function",
      "name": "getRoleAdmin",
      "inputs": [
        {
          "name": "role",
          "type": "bytes32",
          "internalType": "bytes32"
        }
      ],
      "outputs": [
        {
          "name": "",
          "type": "bytes32",
          "internalType": "bytes32"
        }
      ],
      "stateMutability": "view"
    },
    {
      "type": "function",
      "name": "getRoleMember",
      "inputs": [
        {
          "name": "role",
          "type": "bytes32",
          "internalType": "bytes32"
        },
        {
          "name": "index",
          "type": "uint256",
          "internalType": "uint256"
        }
      ],
      "outputs": [
        {
          "name": "",
          "type": "address",
          "internalType": "address"
        }
      ],
      "stateMutability": "view"
    },
    {
      "type": "function",
      "name": "getRoleMemberCount",
      "inputs": [
        {
          "name": "role",
          "type": "bytes32",
          "internalType": "bytes32"
        }
      ],
      "outputs": [
        {
          "name": "",
          "type": "uint256",
          "internalType": "uint256"
        }
      ],
      "stateMutability": "view"
    },
    {
      "type": "function",
      "name": "getThresholdValue",
      "inputs": [
        {
          "name": "roleId",
          "type": "bytes32",
          "internalType": "bytes32"
        },
        {
          "name": "token",
          "type": "address",
          "internalType": "address"
        }
      ],
      "outputs": [
        {
          "name": "",
          "type": "uint256",
          "internalType": "uint256"
        }
      ],
      "stateMutability": "view"
    },
    {
      "type": "function",
      "name": "grantGlobalRole",
      "inputs": [
        {
          "name": "role",
          "type": "bytes32",
          "internalType": "bytes32"
        },
        {
          "name": "target",
          "type": "address",
          "internalType": "address"
        }
      ],
      "outputs": [],
      "stateMutability": "nonpayable"
    },
    {
      "type": "function",
      "name": "grantGlobalRoleBatched",
      "inputs": [
        {
          "name": "role",
          "type": "bytes32",
          "internalType": "bytes32"
        },
        {
          "name": "targets",
          "type": "address[]",
          "internalType": "address[]"
        }
      ],
      "outputs": [],
      "stateMutability": "nonpayable"
    },
    {
      "type": "function",
      "name": "grantModuleRole",
      "inputs": [
        {
          "name": "role",
          "type": "bytes32",
          "internalType": "bytes32"
        },
        {
          "name": "target",
          "type": "address",
          "internalType": "address"
        }
      ],
      "outputs": [],
      "stateMutability": "nonpayable"
    },
    {
      "type": "function",
      "name": "grantModuleRoleBatched",
      "inputs": [
        {
          "name": "role",
          "type": "bytes32",
          "internalType": "bytes32"
        },
        {
          "name": "targets",
          "type": "address[]",
          "internalType": "address[]"
        }
      ],
      "outputs": [],
      "stateMutability": "nonpayable"
    },
    {
      "type": "function",
      "name": "grantRole",
      "inputs": [
        {
          "name": "role",
          "type": "bytes32",
          "internalType": "bytes32"
        },
        {
          "name": "account",
          "type": "address",
          "internalType": "address"
        }
      ],
      "outputs": [],
      "stateMutability": "nonpayable"
    },
    {
      "type": "function",
      "name": "grantRoleFromModule",
      "inputs": [
        {
          "name": "role",
          "type": "bytes32",
          "internalType": "bytes32"
        },
        {
          "name": "target",
          "type": "address",
          "internalType": "address"
        }
      ],
      "outputs": [],
      "stateMutability": "nonpayable"
    },
    {
      "type": "function",
      "name": "grantRoleFromModuleBatched",
      "inputs": [
        {
          "name": "role",
          "type": "bytes32",
          "internalType": "bytes32"
        },
        {
          "name": "targets",
          "type": "address[]",
          "internalType": "address[]"
        }
      ],
      "outputs": [],
      "stateMutability": "nonpayable"
    },
    {
      "type": "function",
      "name": "grantTokenRoleFromModule",
      "inputs": [
        {
          "name": "role",
          "type": "bytes32",
          "internalType": "bytes32"
        },
        {
          "name": "token",
          "type": "address",
          "internalType": "address"
        },
        {
          "name": "threshold",
          "type": "uint256",
          "internalType": "uint256"
        }
      ],
      "outputs": [],
      "stateMutability": "nonpayable"
    },
    {
      "type": "function",
      "name": "hasModuleRole",
      "inputs": [
        {
          "name": "role",
          "type": "bytes32",
          "internalType": "bytes32"
        },
        {
          "name": "who",
          "type": "address",
          "internalType": "address"
        }
      ],
      "outputs": [
        {
          "name": "",
          "type": "bool",
          "internalType": "bool"
        }
      ],
      "stateMutability": "view"
    },
    {
      "type": "function",
      "name": "hasRole",
      "inputs": [
        {
          "name": "roleId",
          "type": "bytes32",
          "internalType": "bytes32"
        },
        {
          "name": "account",
          "type": "address",
          "internalType": "address"
        }
      ],
      "outputs": [
        {
          "name": "",
          "type": "bool",
          "internalType": "bool"
        }
      ],
      "stateMutability": "view"
    },
    {
      "type": "function",
      "name": "hasTokenRole",
      "inputs": [
        {
          "name": "role",
          "type": "bytes32",
          "internalType": "bytes32"
        },
        {
          "name": "who",
          "type": "address",
          "internalType": "address"
        }
      ],
      "outputs": [
        {
          "name": "",
          "type": "bool",
          "internalType": "bool"
        }
      ],
      "stateMutability": "view"
    },
    {
      "type": "function",
      "name": "identifier",
      "inputs": [],
      "outputs": [
        {
          "name": "",
          "type": "bytes32",
          "internalType": "bytes32"
        }
      ],
      "stateMutability": "view"
    },
    {
      "type": "function",
      "name": "init",
      "inputs": [
        {
          "name": "orchestrator_",
          "type": "address",
          "internalType": "contract IOrchestrator_v1"
        },
        {
          "name": "metadata",
          "type": "tuple",
          "internalType": "struct IModule_v1.Metadata",
          "components": [
            {
              "name": "majorVersion",
              "type": "uint256",
              "internalType": "uint256"
            },
            {
              "name": "minorVersion",
              "type": "uint256",
              "internalType": "uint256"
            },
            {
              "name": "url",
              "type": "string",
              "internalType": "string"
            },
            {
              "name": "title",
              "type": "string",
              "internalType": "string"
            }
          ]
        },
        {
          "name": "configData",
          "type": "bytes",
          "internalType": "bytes"
        }
      ],
      "outputs": [],
      "stateMutability": "nonpayable"
    },
    {
      "type": "function",
      "name": "init2",
      "inputs": [
        {
          "name": "orchestrator_",
          "type": "address",
          "internalType": "contract IOrchestrator_v1"
        },
        {
          "name": "dependencyData",
          "type": "bytes",
          "internalType": "bytes"
        }
      ],
      "outputs": [],
      "stateMutability": "nonpayable"
    },
    {
      "type": "function",
      "name": "isTokenGated",
      "inputs": [
        {
          "name": "",
          "type": "bytes32",
          "internalType": "bytes32"
        }
      ],
      "outputs": [
        {
          "name": "",
          "type": "bool",
          "internalType": "bool"
        }
      ],
      "stateMutability": "view"
    },
    {
      "type": "function",
      "name": "isTrustedForwarder",
      "inputs": [
        {
          "name": "forwarder",
          "type": "address",
          "internalType": "address"
        }
      ],
      "outputs": [
        {
          "name": "",
          "type": "bool",
          "internalType": "bool"
        }
      ],
      "stateMutability": "view"
    },
    {
      "type": "function",
      "name": "makeRoleTokenGatedFromModule",
      "inputs": [
        {
          "name": "role",
          "type": "bytes32",
          "internalType": "bytes32"
        }
      ],
      "outputs": [],
      "stateMutability": "nonpayable"
    },
    {
      "type": "function",
      "name": "orchestrator",
      "inputs": [],
      "outputs": [
        {
          "name": "",
          "type": "address",
          "internalType": "contract IOrchestrator_v1"
        }
      ],
      "stateMutability": "view"
    },
    {
      "type": "function",
      "name": "renounceRole",
      "inputs": [
        {
          "name": "role",
          "type": "bytes32",
          "internalType": "bytes32"
        },
        {
          "name": "callerConfirmation",
          "type": "address",
          "internalType": "address"
        }
      ],
      "outputs": [],
      "stateMutability": "nonpayable"
    },
    {
      "type": "function",
      "name": "revokeGlobalRole",
      "inputs": [
        {
          "name": "role",
          "type": "bytes32",
          "internalType": "bytes32"
        },
        {
          "name": "target",
          "type": "address",
          "internalType": "address"
        }
      ],
      "outputs": [],
      "stateMutability": "nonpayable"
    },
    {
      "type": "function",
      "name": "revokeGlobalRoleBatched",
      "inputs": [
        {
          "name": "role",
          "type": "bytes32",
          "internalType": "bytes32"
        },
        {
          "name": "targets",
          "type": "address[]",
          "internalType": "address[]"
        }
      ],
      "outputs": [],
      "stateMutability": "nonpayable"
    },
    {
      "type": "function",
      "name": "revokeModuleRole",
      "inputs": [
        {
          "name": "role",
          "type": "bytes32",
          "internalType": "bytes32"
        },
        {
          "name": "target",
          "type": "address",
          "internalType": "address"
        }
      ],
      "outputs": [],
      "stateMutability": "nonpayable"
    },
    {
      "type": "function",
      "name": "revokeModuleRoleBatched",
      "inputs": [
        {
          "name": "role",
          "type": "bytes32",
          "internalType": "bytes32"
        },
        {
          "name": "targets",
          "type": "address[]",
          "internalType": "address[]"
        }
      ],
      "outputs": [],
      "stateMutability": "nonpayable"
    },
    {
      "type": "function",
      "name": "revokeRole",
      "inputs": [
        {
          "name": "role",
          "type": "bytes32",
          "internalType": "bytes32"
        },
        {
          "name": "account",
          "type": "address",
          "internalType": "address"
        }
      ],
      "outputs": [],
      "stateMutability": "nonpayable"
    },
    {
      "type": "function",
      "name": "revokeRoleFromModule",
      "inputs": [
        {
          "name": "role",
          "type": "bytes32",
          "internalType": "bytes32"
        },
        {
          "name": "target",
          "type": "address",
          "internalType": "address"
        }
      ],
      "outputs": [],
      "stateMutability": "nonpayable"
    },
    {
      "type": "function",
      "name": "revokeRoleFromModuleBatched",
      "inputs": [
        {
          "name": "role",
          "type": "bytes32",
          "internalType": "bytes32"
        },
        {
          "name": "targets",
          "type": "address[]",
          "internalType": "address[]"
        }
      ],
      "outputs": [],
      "stateMutability": "nonpayable"
    },
    {
      "type": "function",
      "name": "setThreshold",
      "inputs": [
        {
          "name": "roleId",
          "type": "bytes32",
          "internalType": "bytes32"
        },
        {
          "name": "token",
          "type": "address",
          "internalType": "address"
        },
        {
          "name": "threshold",
          "type": "uint256",
          "internalType": "uint256"
        }
      ],
      "outputs": [],
      "stateMutability": "nonpayable"
    },
    {
      "type": "function",
      "name": "setThresholdFromModule",
      "inputs": [
        {
          "name": "role",
          "type": "bytes32",
          "internalType": "bytes32"
        },
        {
          "name": "token",
          "type": "address",
          "internalType": "address"
        },
        {
          "name": "threshold",
          "type": "uint256",
          "internalType": "uint256"
        }
      ],
      "outputs": [],
      "stateMutability": "nonpayable"
    },
    {
      "type": "function",
      "name": "setTokenGated",
      "inputs": [
        {
          "name": "role",
          "type": "bytes32",
          "internalType": "bytes32"
        },
        {
          "name": "to",
          "type": "bool",
          "internalType": "bool"
        }
      ],
      "outputs": [],
      "stateMutability": "nonpayable"
    },
    {
      "type": "function",
      "name": "supportsInterface",
      "inputs": [
        {
          "name": "interfaceId",
          "type": "bytes4",
          "internalType": "bytes4"
        }
      ],
      "outputs": [
        {
          "name": "",
          "type": "bool",
          "internalType": "bool"
        }
      ],
      "stateMutability": "view"
    },
    {
      "type": "function",
      "name": "thresholdMap",
      "inputs": [
        {
          "name": "",
          "type": "bytes32",
          "internalType": "bytes32"
        }
      ],
      "outputs": [
        {
          "name": "",
          "type": "uint256",
          "internalType": "uint256"
        }
      ],
      "stateMutability": "view"
    },
    {
      "type": "function",
      "name": "title",
      "inputs": [],
      "outputs": [
        {
          "name": "",
          "type": "string",
          "internalType": "string"
        }
      ],
      "stateMutability": "view"
    },
    {
      "type": "function",
      "name": "transferAdminRole",
      "inputs": [
        {
          "name": "roleId",
          "type": "bytes32",
          "internalType": "bytes32"
        },
        {
          "name": "newAdmin",
          "type": "bytes32",
          "internalType": "bytes32"
        }
      ],
      "outputs": [],
      "stateMutability": "nonpayable"
    },
    {
      "type": "function",
      "name": "trustedForwarder",
      "inputs": [],
      "outputs": [
        {
          "name": "",
          "type": "address",
          "internalType": "address"
        }
      ],
      "stateMutability": "view"
    },
    {
      "type": "function",
      "name": "url",
      "inputs": [],
      "outputs": [
        {
          "name": "",
          "type": "string",
          "internalType": "string"
        }
      ],
      "stateMutability": "view"
    },
    {
      "type": "function",
      "name": "version",
      "inputs": [],
      "outputs": [
        {
          "name": "",
          "type": "uint256",
          "internalType": "uint256"
        },
        {
          "name": "",
          "type": "uint256",
          "internalType": "uint256"
        }
      ],
      "stateMutability": "view"
    },
    {
      "type": "event",
      "name": "ChangedTokenGating",
      "inputs": [
        {
          "name": "role",
          "type": "bytes32",
          "indexed": false,
          "internalType": "bytes32"
        },
        {
          "name": "newValue",
          "type": "bool",
          "indexed": false,
          "internalType": "bool"
        }
      ],
      "anonymous": false
    },
    {
      "type": "event",
      "name": "ChangedTokenThreshold",
      "inputs": [
        {
          "name": "role",
          "type": "bytes32",
          "indexed": false,
          "internalType": "bytes32"
        },
        {
          "name": "token",
          "type": "address",
          "indexed": false,
          "internalType": "address"
        },
        {
          "name": "newValue",
          "type": "uint256",
          "indexed": false,
          "internalType": "uint256"
        }
      ],
      "anonymous": false
    },
    {
      "type": "event",
      "name": "Initialized",
      "inputs": [
        {
          "name": "version",
          "type": "uint64",
          "indexed": false,
          "internalType": "uint64"
        }
      ],
      "anonymous": false
    },
    {
      "type": "event",
      "name": "ModuleInitialized",
      "inputs": [
        {
          "name": "parentOrchestrator",
          "type": "address",
          "indexed": true,
          "internalType": "address"
        },
        {
          "name": "moduleTitle",
          "type": "string",
          "indexed": true,
          "internalType": "string"
        },
        {
          "name": "majorVersion",
          "type": "uint256",
          "indexed": false,
          "internalType": "uint256"
        },
        {
          "name": "minorVersion",
          "type": "uint256",
          "indexed": false,
          "internalType": "uint256"
        }
      ],
      "anonymous": false
    },
    {
      "type": "event",
      "name": "RoleAdminChanged",
      "inputs": [
        {
          "name": "role",
          "type": "bytes32",
          "indexed": true,
          "internalType": "bytes32"
        },
        {
          "name": "previousAdminRole",
          "type": "bytes32",
          "indexed": true,
          "internalType": "bytes32"
        },
        {
          "name": "newAdminRole",
          "type": "bytes32",
          "indexed": true,
          "internalType": "bytes32"
        }
      ],
      "anonymous": false
    },
    {
      "type": "event",
      "name": "RoleGranted",
      "inputs": [
        {
          "name": "role",
          "type": "bytes32",
          "indexed": true,
          "internalType": "bytes32"
        },
        {
          "name": "account",
          "type": "address",
          "indexed": true,
          "internalType": "address"
        },
        {
          "name": "sender",
          "type": "address",
          "indexed": true,
          "internalType": "address"
        }
      ],
      "anonymous": false
    },
    {
      "type": "event",
      "name": "RoleRevoked",
      "inputs": [
        {
          "name": "role",
          "type": "bytes32",
          "indexed": true,
          "internalType": "bytes32"
        },
        {
          "name": "account",
          "type": "address",
          "indexed": true,
          "internalType": "address"
        },
        {
          "name": "sender",
          "type": "address",
          "indexed": true,
          "internalType": "address"
        }
      ],
      "anonymous": false
    },
    {
      "type": "error",
      "name": "AccessControlBadConfirmation",
      "inputs": []
    },
    {
      "type": "error",
      "name": "AccessControlUnauthorizedAccount",
      "inputs": [
        {
          "name": "account",
          "type": "address",
          "internalType": "address"
        },
        {
          "name": "neededRole",
          "type": "bytes32",
          "internalType": "bytes32"
        }
      ]
    },
    {
      "type": "error",
      "name": "InvalidInitialization",
      "inputs": []
    },
    {
      "type": "error",
      "name": "Module_OrchestratorCallbackFailed",
      "inputs": [
        {
          "name": "funcSig",
          "type": "string",
          "internalType": "string"
        }
      ]
    },
    {
      "type": "error",
      "name": "Module__AUT_TokenGated_Roles__InvalidThreshold",
      "inputs": [
        {
          "name": "threshold",
          "type": "uint256",
          "internalType": "uint256"
        }
      ]
    },
    {
      "type": "error",
      "name": "Module__AUT_TokenGated_Roles__InvalidToken",
      "inputs": [
        {
          "name": "token",
          "type": "address",
          "internalType": "address"
        }
      ]
    },
    {
      "type": "error",
      "name": "Module__AUT_TokenGated_Roles__RoleNotEmpty",
      "inputs": []
    },
    {
      "type": "error",
      "name": "Module__AUT_TokenGated_Roles__RoleNotTokenGated",
      "inputs": []
    },
    {
      "type": "error",
      "name": "Module__Authorizer__ModuleNotSelfManaged",
      "inputs": []
    },
    {
      "type": "error",
      "name": "Module__Authorizer__NotActiveModule",
      "inputs": [
        {
          "name": "module",
          "type": "address",
          "internalType": "address"
        }
      ]
    },
    {
      "type": "error",
      "name": "Module__Authorizer__OwnerRoleCannotBeEmpty",
      "inputs": []
    },
    {
      "type": "error",
      "name": "Module__CallerNotAuthorized",
      "inputs": [
        {
          "name": "role",
          "type": "bytes32",
          "internalType": "bytes32"
        },
        {
          "name": "caller",
          "type": "address",
          "internalType": "address"
        }
      ]
    },
    {
      "type": "error",
      "name": "Module__CannotCallInit2Again",
      "inputs": []
    },
    {
      "type": "error",
      "name": "Module__InvalidMetadata",
      "inputs": []
    },
    {
      "type": "error",
      "name": "Module__InvalidOrchestratorAddress",
      "inputs": []
    },
    {
      "type": "error",
      "name": "Module__NoDependencyOrMalformedDependencyData",
      "inputs": []
    },
    {
      "type": "error",
      "name": "Module__OnlyCallableByOrchestrator",
      "inputs": []
    },
    {
      "type": "error",
      "name": "NotInitializing",
      "inputs": []
    }
  ],
  "bytecode": {
    "object": "0x60a06040523480156200001157600080fd5b5060006080526200002162000035565b6200002f60001980620000e9565b6200018e565b7ff0c57e16840df040f15088dc2f81fe391c3923bec73e23a9662efc9c229c6a00805468010000000000000000900460ff1615620000865760405163f92ee8a960e01b815260040160405180910390fd5b80546001600160401b0390811614620000e65780546001600160401b0319166001600160401b0390811782556040519081527fc7f505b2f371ae2175ee4913f4499e1f2633a7b5936321eed1cdaeb6115181d29060200160405180910390a15b50565b7f02dd7bc7dec4dceedda775e58dd541e08a116c6c53815c0bd028192f7b6268006000620001458460009081527f02dd7bc7dec4dceedda775e58dd541e08a116c6c53815c0bd028192f7b626800602052604090206001015490565b600085815260208490526040808220600101869055519192508491839187917fbd79b86ffe0ab8e8776151514217cd7cacd52c909f66475c3af44e129f0b00ff9190a450505050565b608051613c22620001a760003960005050613c226000f3fe608060405234801561001057600080fd5b506004361061032b5760003560e01c80637d540a64116101b2578063ba66f9fc116100f9578063e38a584c116100a2578063ee2d09681161007c578063ee2d096814610708578063f3aafa701461071b578063fb3127781461072e578063fdd5205f1461073c57600080fd5b8063e38a584c146106cf578063e5476cbe146106e2578063e99b6e13146106f557600080fd5b8063ca15c873116100d3578063ca15c87314610696578063d547741f146106a9578063e1788154146106bc57600080fd5b8063ba66f9fc1461065d578063bcb6192014610670578063c8da80851461068357600080fd5b80639e9785751161015b578063b3391c6711610135578063b3391c671461062b578063b3cb19911461063e578063b74795d91461064757600080fd5b80639e978575146105fd578063a217fddf14610610578063a291d0a81461061857600080fd5b806391d148541161018c57806391d14854146105c457806399df6ff1146105d75780639bfdf766146105ea57600080fd5b80637d540a641461057e5780637da0a877146105915780639010d07c146105b157600080fd5b80634a79d50c116102765780635b58890e1161021f5780636c67e807116101f95780636c67e807146105435780637448216d146105565780637998a1c41461057657600080fd5b80635b58890e146104f657806361bcd0c41461051d578063648154531461053057600080fd5b80635600f04f116102505780635600f04f146104c8578063572b6c05146104d05780635b0209b9146104e357600080fd5b80634a79d50c1461048b57806354fd4d50146104a057806355ff58d4146104bb57600080fd5b80632f2ff15d116102d857806336568abe116102b257806336568abe1461045257806342dfe9581461046557806349eb42f11461047857600080fd5b80632f2ff15d14610406578063328c4c301461041957806335dde2631461043f57600080fd5b8063248a9ca311610309578063248a9ca31461039057806324e30270146103e0578063272bbd44146103f357600080fd5b806301ffc9a71461033057806316e109f81461035857806323add6831461036d575b600080fd5b61034361033e366004613292565b610791565b60405190151581526020015b60405180910390f35b61036b6103663660046132e9565b6107ed565b005b61034361037b366004613321565b60056020526000908152604090205460ff1681565b6103d261039e366004613321565b60009081527f02dd7bc7dec4dceedda775e58dd541e08a116c6c53815c0bd028192f7b626800602052604090206001015490565b60405190815260200161034f565b61036b6103ee36600461333a565b610838565b61036b61040136600461333a565b610b0a565b61036b6104143660046133b9565b610d59565b7f30783032000000000000000000000000000000000000000000000000000000006103d2565b61036b61044d3660046132e9565b610d9d565b61036b6104603660046133b9565b610ec0565b61036b6104733660046134f0565b610f21565b61036b61048636600461333a565b6110cb565b610493611145565b60405161034f919061361c565b6001546002546040805192835260208301919091520161034f565b633078303160e01b6103d2565b6104936111da565b6103436104de36600461362f565b6111ec565b61036b6104f1366004613321565b61127a565b6103d27f307830320000000000000000000000000000000000000000000000000000000081565b61036b61052b3660046133b9565b61146f565b61036b61053e36600461333a565b6114a7565b61036b6105513660046133b9565b6115a9565b6103d2610564366004613321565b60066020526000908152604090205481565b6103d2611833565b61036b61058c36600461333a565b611983565b610599611a6b565b6040516001600160a01b03909116815260200161034f565b6105996105bf36600461364c565b611ae3565b6103436105d23660046133b9565b611b24565b61036b6105e53660046133b9565b611b96565b61036b6105f836600461366e565b611bce565b61034361060b3660046136be565b611c58565b6103d2600081565b61036b6106263660046132e9565b611c75565b6103436106393660046133b9565b611d3e565b6103d260001981565b60005461010090046001600160a01b0316610599565b61036b61066b3660046133b9565b611d92565b61036b61067e3660046133b9565b611e4e565b6103d26106913660046133b9565b6120a3565b6103d26106a4366004613321565b612101565b61036b6106b73660046133b9565b612140565b61036b6106ca3660046133b9565b612184565b61036b6106dd36600461364c565b612240565b61036b6106f0366004613701565b612284565b61036b610703366004613321565b612351565b61036b61071636600461333a565b612463565b6103436107293660046133b9565b6124bb565b6103d2633078303160e01b81565b6103d261074a366004613726565b6040516bffffffffffffffffffffffff19606084901b1660208201526034810182905260009060540160405160208183030381529060405280519060200120905092915050565b60007fffffffff0000000000000000000000000000000000000000000000000000000082167f440bc2d60000000000000000000000000000000000000000000000000000000014806107e757506107e7826124d5565b92915050565b60008381527f02dd7bc7dec4dceedda775e58dd541e08a116c6c53815c0bd028192f7b62680060205260409020600101546108278161252b565b61083284848461253f565b50505050565b60008060019054906101000a90046001600160a01b03166001600160a01b031663d09edf316040518163ffffffff1660e01b8152600401602060405180830381865afa15801561088c573d6000803e3d6000fd5b505050506040513d601f19601f820116820180604052508101906108b09190613752565b90506000816001600160a01b03166355ff58d46040518163ffffffff1660e01b8152600401602060405180830381865afa1580156108f2573d6000803e3d6000fd5b505050506040513d601f19601f82011682018060405250810190610916919061376f565b9050816001600160a01b03166391d148548261093061266e565b6040517fffffffff0000000000000000000000000000000000000000000000000000000060e085901b16815260048101929092526001600160a01b03166024820152604401602060405180830381865afa158015610992573d6000803e3d6000fd5b505050506040513d601f19601f820116820180604052508101906109b69190613788565b610a0c57806109c361266e565b6040517f42abbb7700000000000000000000000000000000000000000000000000000000815260048101929092526001600160a01b031660248201526044015b60405180910390fd5b60008060019054906101000a90046001600160a01b03166001600160a01b031663d09edf316040518163ffffffff1660e01b8152600401602060405180830381865afa158015610a60573d6000803e3d6000fd5b505050506040513d601f19601f82011682018060405250810190610a849190613752565b6040517f7d540a640000000000000000000000000000000000000000000000000000000081529091506001600160a01b03821690637d540a6490610ad0908990899089906004016137a5565b600060405180830381600087803b158015610aea57600080fd5b505af1158015610afe573d6000803e3d6000fd5b50505050505050505050565b60008060019054906101000a90046001600160a01b03166001600160a01b031663d09edf316040518163ffffffff1660e01b8152600401602060405180830381865afa158015610b5e573d6000803e3d6000fd5b505050506040513d601f19601f82011682018060405250810190610b829190613752565b90506000816001600160a01b03166355ff58d46040518163ffffffff1660e01b8152600401602060405180830381865afa158015610bc4573d6000803e3d6000fd5b505050506040513d601f19601f82011682018060405250810190610be8919061376f565b9050816001600160a01b03166391d1485482610c0261266e565b6040517fffffffff0000000000000000000000000000000000000000000000000000000060e085901b16815260048101929092526001600160a01b03166024820152604401602060405180830381865afa158015610c64573d6000803e3d6000fd5b505050506040513d601f19601f82011682018060405250810190610c889190613788565b610c9557806109c361266e565b60008060019054906101000a90046001600160a01b03166001600160a01b031663d09edf316040518163ffffffff1660e01b8152600401602060405180830381865afa158015610ce9573d6000803e3d6000fd5b505050506040513d601f19601f82011682018060405250810190610d0d9190613752565b6040517f648154530000000000000000000000000000000000000000000000000000000081529091506001600160a01b03821690636481545390610ad0908990899089906004016137a5565b60008281527f02dd7bc7dec4dceedda775e58dd541e08a116c6c53815c0bd028192f7b6268006020526040902060010154610d938161252b565b6108328383612678565b610da561266e565b60005461010090046001600160a01b03166040516342f6e38960e01b81526001600160a01b03838116600483015291909116906342f6e389906024016020604051808303816000875af1158015610e00573d6000803e3d6000fd5b505050506040513d601f19601f82011682018060405250810190610e249190613788565b610e4c57604051635912aaef60e01b81526001600160a01b0382166004820152602401610a03565b6000610ea1610e5961266e565b866040516bffffffffffffffffffffffff19606084901b1660208201526034810182905260009060540160405160208183030381529060405280519060200120905092915050565b9050610ead8185612678565b50610eb981858561253f565b5050505050565b610ec861266e565b6001600160a01b0316816001600160a01b031614610f12576040517f6697b23200000000000000000000000000000000000000000000000000000000815260040160405180910390fd5b610f1c8282612755565b505050565b7ff0c57e16840df040f15088dc2f81fe391c3923bec73e23a9662efc9c229c6a00805468010000000000000000810460ff16159067ffffffffffffffff16600081158015610f6c5750825b905060008267ffffffffffffffff166001148015610f895750303b155b905081158015610f97575080155b15610fce576040517ff92ee8a900000000000000000000000000000000000000000000000000000000815260040160405180910390fd5b84547fffffffffffffffffffffffffffffffffffffffffffffffff0000000000000000166001178555831561102f5784547fffffffffffffffffffffffffffffffffffffffffffffff00ffffffffffffffff16680100000000000000001785555b61103988886127bf565b6000808780602001905181019061105091906137fd565b9150915061105e828261291e565b505083156110c15784547fffffffffffffffffffffffffffffffffffffffffffffff00ffffffffffffffff168555604051600181527fc7f505b2f371ae2175ee4913f4499e1f2633a7b5936321eed1cdaeb6115181d29060200160405180910390a15b5050505050505050565b633078303160e01b6110dc8161252b565b600080546110f79061010090046001600160a01b0316610e59565b905060005b8381101561113d576111348286868481811061111a5761111a61382c565b905060200201602081019061112f919061362f565b612755565b506001016110fc565b505050505050565b6060600160030180546111579061385b565b80601f01602080910402602001604051908101604052809291908181526020018280546111839061385b565b80156111d05780601f106111a5576101008083540402835291602001916111d0565b820191906000526020600020905b8154815290600101906020018083116111b357829003601f168201915b5050505050905090565b6060600160020180546111579061385b565b600080546040517f572b6c050000000000000000000000000000000000000000000000000000000081526001600160a01b0384811660048301526101009092049091169063572b6c0590602401602060405180830381865afa158015611256573d6000803e3d6000fd5b505050506040513d601f19601f820116820180604052508101906107e79190613788565b61128261266e565b60005461010090046001600160a01b03166040516342f6e38960e01b81526001600160a01b03838116600483015291909116906342f6e389906024016020604051808303816000875af11580156112dd573d6000803e3d6000fd5b505050506040513d601f19601f820116820180604052508101906113019190613788565b61132957604051635912aaef60e01b81526001600160a01b0382166004820152602401610a03565b61137c61133461266e565b836040516bffffffffffffffffffffffff19606084901b1660208201526034810182905260009060540160405160208183030381529060405280519060200120905092915050565b61138581612101565b156113bc576040517faec5a76500000000000000000000000000000000000000000000000000000000815260040160405180910390fd5b60006114116113c961266e565b856040516bffffffffffffffffffffffff19606084901b1660208201526034810182905260009060540160405160208183030381529060405280519060200120905092915050565b600081815260056020908152604091829020805460ff191660019081179091558251848152918201529192507f5b06680c3e27b6966fd07ba5a87e12511d3d350bb0e841c91958f34569b40b8191015b60405180910390a150505050565b633078303160e01b6114808161252b565b6000805461149b9061010090046001600160a01b03166113c9565b9050610eb98184612678565b6114af61266e565b60005461010090046001600160a01b03166040516342f6e38960e01b81526001600160a01b03838116600483015291909116906342f6e389906024016020604051808303816000875af115801561150a573d6000803e3d6000fd5b505050506040513d601f19601f8201168201806040525081019061152e9190613788565b61155657604051635912aaef60e01b81526001600160a01b0382166004820152602401610a03565b6000611563610e5961266e565b905060005b8381101561113d576115a0828686848181106115865761158661382c565b905060200201602081019061159b919061362f565b612678565b50600101611568565b60008060019054906101000a90046001600160a01b03166001600160a01b031663d09edf316040518163ffffffff1660e01b8152600401602060405180830381865afa1580156115fd573d6000803e3d6000fd5b505050506040513d601f19601f820116820180604052508101906116219190613752565b90506000816001600160a01b03166355ff58d46040518163ffffffff1660e01b8152600401602060405180830381865afa158015611663573d6000803e3d6000fd5b505050506040513d601f19601f82011682018060405250810190611687919061376f565b9050816001600160a01b03166391d14854826116a161266e565b6040517fffffffff0000000000000000000000000000000000000000000000000000000060e085901b16815260048101929092526001600160a01b03166024820152604401602060405180830381865afa158015611703573d6000803e3d6000fd5b505050506040513d601f19601f820116820180604052508101906117279190613788565b61173457806109c361266e565b60008060019054906101000a90046001600160a01b03166001600160a01b031663d09edf316040518163ffffffff1660e01b8152600401602060405180830381865afa158015611788573d6000803e3d6000fd5b505050506040513d601f19601f820116820180604052508101906117ac9190613752565b6040517fe1788154000000000000000000000000000000000000000000000000000000008152600481018790526001600160a01b0386811660248301529192509082169063e1788154906044015b600060405180830381600087803b15801561181457600080fd5b505af1158015611828573d6000803e3d6000fd5b505050505050505050565b6040805160808101825260018054825260025460208301526003805460009461197e949392908401916118659061385b565b80601f01602080910402602001604051908101604052809291908181526020018280546118919061385b565b80156118de5780601f106118b3576101008083540402835291602001916118de565b820191906000526020600020905b8154815290600101906020018083116118c157829003601f168201915b505050505081526020016003820180546118f79061385b565b80601f01602080910402602001604051908101604052809291908181526020018280546119239061385b565b80156119705780601f1061194557610100808354040283529160200191611970565b820191906000526020600020905b81548152906001019060200180831161195357829003601f168201915b5050505050815250506129dc565b905090565b61198b61266e565b60005461010090046001600160a01b03166040516342f6e38960e01b81526001600160a01b03838116600483015291909116906342f6e389906024016020604051808303816000875af11580156119e6573d6000803e3d6000fd5b505050506040513d601f19601f82011682018060405250810190611a0a9190613788565b611a3257604051635912aaef60e01b81526001600160a01b0382166004820152602401610a03565b6000611a3f610e5961266e565b905060005b8381101561113d57611a628286868481811061111a5761111a61382c565b50600101611a44565b60008060019054906101000a90046001600160a01b03166001600160a01b0316637da0a8776040518163ffffffff1660e01b8152600401602060405180830381865afa158015611abf573d6000803e3d6000fd5b505050506040513d601f19601f8201168201806040525081019061197e9190613752565b60008281527fc1f6fe24621ce81ec5827caf0253cadb74709b061630e6b55e82371705932000602081905260408220611b1c9084612a1c565b949350505050565b60008281526005602052604081205460ff1615611b4c57611b458383612a28565b90506107e7565b60008381527f02dd7bc7dec4dceedda775e58dd541e08a116c6c53815c0bd028192f7b626800602090815260408083206001600160a01b038616845290915290205460ff16611b45565b633078303160e01b611ba78161252b565b60008054611bc29061010090046001600160a01b03166113c9565b9050610eb98184612755565b60005460ff1615611c0b576040517f904875a100000000000000000000000000000000000000000000000000000000815260040160405180910390fd5b6000805460ff1916600117905580611c2281612b58565b610f1c576040517feef043ae00000000000000000000000000000000000000000000000000000000815260040160405180910390fd5b600081806020019051810190611c6e91906138ae565b5092915050565b611c7d61266e565b60005461010090046001600160a01b03166040516342f6e38960e01b81526001600160a01b03838116600483015291909116906342f6e389906024016020604051808303816000875af1158015611cd8573d6000803e3d6000fd5b505050506040513d601f19601f82011682018060405250810190611cfc9190613788565b611d2457604051635912aaef60e01b81526001600160a01b0382166004820152602401610a03565b6000611d31610e5961266e565b9050610eb981858561253f565b600082815260056020526040812054839060ff16611d88576040517f33af2d2900000000000000000000000000000000000000000000000000000000815260040160405180910390fd5b611b1c8484612a28565b611d9a61266e565b60005461010090046001600160a01b03166040516342f6e38960e01b81526001600160a01b03838116600483015291909116906342f6e389906024016020604051808303816000875af1158015611df5573d6000803e3d6000fd5b505050506040513d601f19601f82011682018060405250810190611e199190613788565b611e4157604051635912aaef60e01b81526001600160a01b0382166004820152602401610a03565b6000611bc26113c961266e565b60008060019054906101000a90046001600160a01b03166001600160a01b031663d09edf316040518163ffffffff1660e01b8152600401602060405180830381865afa158015611ea2573d6000803e3d6000fd5b505050506040513d601f19601f82011682018060405250810190611ec69190613752565b90506000816001600160a01b03166355ff58d46040518163ffffffff1660e01b8152600401602060405180830381865afa158015611f08573d6000803e3d6000fd5b505050506040513d601f19601f82011682018060405250810190611f2c919061376f565b9050816001600160a01b03166391d1485482611f4661266e565b6040517fffffffff0000000000000000000000000000000000000000000000000000000060e085901b16815260048101929092526001600160a01b03166024820152604401602060405180830381865afa158015611fa8573d6000803e3d6000fd5b505050506040513d601f19601f82011682018060405250810190611fcc9190613788565b611fd957806109c361266e565b60008060019054906101000a90046001600160a01b03166001600160a01b031663d09edf316040518163ffffffff1660e01b8152600401602060405180830381865afa15801561202d573d6000803e3d6000fd5b505050506040513d601f19601f820116820180604052508101906120519190613752565b6040517fba66f9fc000000000000000000000000000000000000000000000000000000008152600481018790526001600160a01b0386811660248301529192509082169063ba66f9fc906044016117fa565b60008083836040516020016120d492919091825260601b6bffffffffffffffffffffffff1916602082015260340190565b60408051808303601f19018152918152815160209283012060009081526006909252902054949350505050565b60008181527fc1f6fe24621ce81ec5827caf0253cadb74709b061630e6b55e8237170593200060208190526040822061213990612c59565b9392505050565b60008281527f02dd7bc7dec4dceedda775e58dd541e08a116c6c53815c0bd028192f7b626800602052604090206001015461217a8161252b565b6108328383612755565b61218c61266e565b60005461010090046001600160a01b03166040516342f6e38960e01b81526001600160a01b03838116600483015291909116906342f6e389906024016020604051808303816000875af11580156121e7573d6000803e3d6000fd5b505050506040513d601f19601f8201168201806040525081019061220b9190613788565b61223357604051635912aaef60e01b81526001600160a01b0382166004820152602401610a03565b600061149b6113c961266e565b60008281527f02dd7bc7dec4dceedda775e58dd541e08a116c6c53815c0bd028192f7b626800602052604090206001015461227a8161252b565b610f1c8383612c63565b60008281527f02dd7bc7dec4dceedda775e58dd541e08a116c6c53815c0bd028192f7b62680060205260409020600101546122be8161252b565b826122c881612101565b156122ff576040517faec5a76500000000000000000000000000000000000000000000000000000000815260040160405180910390fd5b600084815260056020908152604091829020805460ff19168615159081179091558251878152918201527f5b06680c3e27b6966fd07ba5a87e12511d3d350bb0e841c91958f34569b40b819101611461565b61235961266e565b60005461010090046001600160a01b03166040516342f6e38960e01b81526001600160a01b03838116600483015291909116906342f6e389906024016020604051808303816000875af11580156123b4573d6000803e3d6000fd5b505050506040513d601f19601f820116820180604052508101906123d89190613788565b61240057604051635912aaef60e01b81526001600160a01b0382166004820152602401610a03565b600061245561240d61266e565b846040516bffffffffffffffffffffffff19606084901b1660208201526034810182905260009060540160405160208183030381529060405280519060200120905092915050565b9050610f1c81600019612c63565b633078303160e01b6124748161252b565b6000805461248f9061010090046001600160a01b0316610e59565b905060005b8381101561113d576124b2828686848181106115865761158661382c565b50600101612494565b6000806124c96113c961266e565b9050611b1c8184611b24565b60007fffffffff0000000000000000000000000000000000000000000000000000000082167f7e732aa70000000000000000000000000000000000000000000000000000000014806107e757506107e782612d07565b61253c8161253761266e565b612d9e565b50565b600083815260056020526040902054839060ff16612589576040517f33af2d2900000000000000000000000000000000000000000000000000000000815260040160405180910390fd5b81806000036125c7576040517fff2f28f000000000000000000000000000000000000000000000000000000000815260048101829052602401610a03565b600085856040516020016125f792919091825260601b6bffffffffffffffffffffffff1916602082015260340190565b60408051808303601f1901815282825280516020918201206000818152600683528390208890558984526001600160a01b0389169184019190915290820186905291507ea848dc7e0a97518071981b0bbbf38d0ce61086c12106156c3fed80f80047149060600160405180910390a1505050505050565b600061197e612df0565b60008281526005602052604081205460ff161561274b576040517f70a082310000000000000000000000000000000000000000000000000000000081523060048201526001600160a01b038316906370a0823190602401602060405180830381865afa925050508015612708575060408051601f3d908101601f191682019092526127059181019061376f565b60015b612749576040517fa60f054e0000000000000000000000000000000000000000000000000000000081526001600160a01b0383166004820152602401610a03565b505b6121398383612e42565b600082633078303160e01b8114801561277e5750600161277b633078303160e01b612101565b11155b156127b5576040517f2cbba9ff00000000000000000000000000000000000000000000000000000000815260040160405180910390fd5b611b1c8484612e99565b6127c7612ee7565b6001600160a01b038216612807576040517f7280679300000000000000000000000000000000000000000000000000000000815260040160405180910390fd5b600080547fffffffffffffffffffffff0000000000000000000000000000000000000000ff166101006001600160a01b0385160217905561284781612f50565b61287d576040517f7511254100000000000000000000000000000000000000000000000000000000815260040160405180910390fd5b80516001908155602082015160025560408201518291906003906128a19082613a0b565b50606082015160038201906128b69082613a0b565b50505060608101516040516128cb9190613acb565b604080519182900382208351602080860151918552840152916001600160a01b038516917feb175f148a71d29a5f7bf5439182fcd81e6ea9cfc8a11b54ab0f705fa98fa8ca910160405180910390a35050565b612926612ee7565b612937633078303160e01b80612c63565b6129496000633078303160e01b612c63565b61297a7f3078303200000000000000000000000000000000000000000000000000000000633078303160e01b612c63565b6129a47f307830320000000000000000000000000000000000000000000000000000000082612678565b506001600160a01b038216156129c557610f1c633078303160e01b83612678565b610f1c633078303160e01b61159b61266e565b5050565b60008160000151826040015183606001516040516020016129ff93929190613ae7565b604051602081830303815290604052805190602001209050919050565b60006121398383612fa2565b600080612a3484612101565b905060005b81811015612b4d576000612a4d8683611ae3565b905060008682604051602001612a7f92919091825260601b6bffffffffffffffffffffffff1916602082015260340190565b60408051808303601f19018152828252805160209182012060008181526006909252919020547f70a082310000000000000000000000000000000000000000000000000000000083526001600160a01b03898116600485015291935091908416906370a0823190602401602060405180830381865afa925050508015612b22575060408051601f3d908101601f19168201909252612b1f9181019061376f565b60015b15612b3f57818110612b3d57600196505050505050506107e7565b505b505050806001019050612a39565b506000949350505050565b6040517f9e9785750000000000000000000000000000000000000000000000000000000081526000903090639e97857590612b9790859060040161361c565b602060405180830381865afa925050508015612bd0575060408051601f3d908101601f19168201909252612bcd91810190613788565b60015b612bdc57506000919050565b6040517f9e9785750000000000000000000000000000000000000000000000000000000081523090639e97857590612c1890869060040161361c565b602060405180830381865afa158015612c35573d6000803e3d6000fd5b505050506040513d601f19601f820116820180604052508101906121399190613788565b60006107e7825490565b7f02dd7bc7dec4dceedda775e58dd541e08a116c6c53815c0bd028192f7b6268006000612cbe8460009081527f02dd7bc7dec4dceedda775e58dd541e08a116c6c53815c0bd028192f7b626800602052604090206001015490565b600085815260208490526040808220600101869055519192508491839187917fbd79b86ffe0ab8e8776151514217cd7cacd52c909f66475c3af44e129f0b00ff9190a450505050565b60007fffffffff0000000000000000000000000000000000000000000000000000000082167f8c600c230000000000000000000000000000000000000000000000000000000014806107e757507f01ffc9a7000000000000000000000000000000000000000000000000000000007fffffffff000000000000000000000000000000000000000000000000000000008316146107e7565b612da88282611b24565b6129d8576040517fe2517d3f0000000000000000000000000000000000000000000000000000000081526001600160a01b038216600482015260248101839052604401610a03565b6000366014612dfe336111ec565b8015612e0a5750808210155b15612e3a57600036612e1c8385613b24565b612e27928290613b5e565b612e3091613b88565b60601c9250505090565b339250505090565b60007fc1f6fe24621ce81ec5827caf0253cadb74709b061630e6b55e8237170593200081612e708585612fcc565b90508015611b1c576000858152602083905260409020612e909085613084565b50949350505050565b60007fc1f6fe24621ce81ec5827caf0253cadb74709b061630e6b55e8237170593200081612ec78585613099565b90508015611b1c576000858152602083905260409020612e909085613145565b7ff0c57e16840df040f15088dc2f81fe391c3923bec73e23a9662efc9c229c6a005468010000000000000000900460ff16612f4e576040517fd7e6bcf800000000000000000000000000000000000000000000000000000000815260040160405180910390fd5b565b6000816040015151600003612f6757506000919050565b816060015151600003612f7c57506000919050565b8151158015612f8d57506020820151155b15612f9a57506000919050565b506001919050565b6000826000018281548110612fb957612fb961382c565b9060005260206000200154905092915050565b60007f02dd7bc7dec4dceedda775e58dd541e08a116c6c53815c0bd028192f7b626800612ff98484611b24565b61307a576000848152602082815260408083206001600160a01b03871684529091529020805460ff1916600117905561303061266e565b6001600160a01b0316836001600160a01b0316857f2f8788117e7eff1d82e926ec794901d17c78024a50270940304540a733656f0d60405160405180910390a460019150506107e7565b60009150506107e7565b6000612139836001600160a01b03841661315a565b60007f02dd7bc7dec4dceedda775e58dd541e08a116c6c53815c0bd028192f7b6268006130c68484611b24565b1561307a576000848152602082815260408083206001600160a01b03871684529091529020805460ff191690556130fb61266e565b6001600160a01b0316836001600160a01b0316857ff6391f5c32d9c69d2a47ea670b442974b53935d1edc7fd64eb21e047a839171b60405160405180910390a460019150506107e7565b6000612139836001600160a01b0384166131a9565b60008181526001830160205260408120546131a1575081546001818101845560008481526020808220909301849055845484825282860190935260409020919091556107e7565b5060006107e7565b6000818152600183016020526040812054801561307a5760006131cd600183613b24565b85549091506000906131e190600190613b24565b90508082146132465760008660000182815481106132015761320161382c565b90600052602060002001549050808760000184815481106132245761322461382c565b6000918252602080832090910192909255918252600188019052604090208390555b855486908061325757613257613bbd565b6001900381819060005260206000200160009055905585600101600086815260200190815260200160002060009055600193505050506107e7565b6000602082840312156132a457600080fd5b81357fffffffff000000000000000000000000000000000000000000000000000000008116811461213957600080fd5b6001600160a01b038116811461253c57600080fd5b6000806000606084860312156132fe57600080fd5b833592506020840135613310816132d4565b929592945050506040919091013590565b60006020828403121561333357600080fd5b5035919050565b60008060006040848603121561334f57600080fd5b83359250602084013567ffffffffffffffff8082111561336e57600080fd5b818601915086601f83011261338257600080fd5b81358181111561339157600080fd5b8760208260051b85010111156133a657600080fd5b6020830194508093505050509250925092565b600080604083850312156133cc57600080fd5b8235915060208301356133de816132d4565b809150509250929050565b7f4e487b7100000000000000000000000000000000000000000000000000000000600052604160045260246000fd5b6040516080810167ffffffffffffffff8111828210171561343b5761343b6133e9565b60405290565b604051601f8201601f1916810167ffffffffffffffff8111828210171561346a5761346a6133e9565b604052919050565b600067ffffffffffffffff82111561348c5761348c6133e9565b50601f01601f191660200190565b600082601f8301126134ab57600080fd5b81356134be6134b982613472565b613441565b8181528460208386010111156134d357600080fd5b816020850160208301376000918101602001919091529392505050565b60008060006060848603121561350557600080fd5b8335613510816132d4565b9250602084013567ffffffffffffffff8082111561352d57600080fd5b908501906080828803121561354157600080fd5b613549613418565b823581526020830135602082015260408301358281111561356957600080fd5b6135758982860161349a565b60408301525060608301358281111561358d57600080fd5b6135998982860161349a565b606083015250935060408601359150808211156135b557600080fd5b506135c28682870161349a565b9150509250925092565b60005b838110156135e75781810151838201526020016135cf565b50506000910152565b600081518084526136088160208601602086016135cc565b601f01601f19169290920160200192915050565b60208152600061213960208301846135f0565b60006020828403121561364157600080fd5b8135612139816132d4565b6000806040838503121561365f57600080fd5b50508035926020909101359150565b6000806040838503121561368157600080fd5b823561368c816132d4565b9150602083013567ffffffffffffffff8111156136a857600080fd5b6136b48582860161349a565b9150509250929050565b6000602082840312156136d057600080fd5b813567ffffffffffffffff8111156136e757600080fd5b611b1c8482850161349a565b801515811461253c57600080fd5b6000806040838503121561371457600080fd5b8235915060208301356133de816136f3565b6000806040838503121561373957600080fd5b8235613744816132d4565b946020939093013593505050565b60006020828403121561376457600080fd5b8151612139816132d4565b60006020828403121561378157600080fd5b5051919050565b60006020828403121561379a57600080fd5b8151612139816136f3565b83815260406020808301829052908201839052600090849060608401835b868110156137f15783356137d6816132d4565b6001600160a01b0316825292820192908201906001016137c3565b50979650505050505050565b6000806040838503121561381057600080fd5b825161381b816132d4565b60208401519092506133de816132d4565b7f4e487b7100000000000000000000000000000000000000000000000000000000600052603260045260246000fd5b600181811c9082168061386f57607f821691505b6020821081036138a8577f4e487b7100000000000000000000000000000000000000000000000000000000600052602260045260246000fd5b50919050565b60008060408084860312156138c257600080fd5b83516138cd816136f3565b8093505060208085015167ffffffffffffffff808211156138ed57600080fd5b818701915087601f83011261390157600080fd5b815181811115613913576139136133e9565b8060051b613922858201613441565b918252838101850191858101908b84111561393c57600080fd5b86860192505b838310156139b15782518581111561395a5760008081fd5b8601603f81018d1361396c5760008081fd5b8781015161397c6134b982613472565b8181528e8b8385010111156139915760008081fd5b6139a0828b83018d86016135cc565b845250509186019190860190613942565b80985050505050505050509250929050565b601f821115610f1c576000816000526020600020601f850160051c810160208610156139ec5750805b601f850160051c820191505b8181101561113d578281556001016139f8565b815167ffffffffffffffff811115613a2557613a256133e9565b613a3981613a33845461385b565b846139c3565b602080601f831160018114613a6e5760008415613a565750858301515b600019600386901b1c1916600185901b17855561113d565b600085815260208120601f198616915b82811015613a9d57888601518255948401946001909101908401613a7e565b5085821015613abb5787850151600019600388901b60f8161c191681555b5050505050600190811b01905550565b60008251613add8184602087016135cc565b9190910192915050565b83815260008351613aff8160208501602088016135cc565b80830190508351613b178160208401602088016135cc565b0160200195945050505050565b818103818111156107e7577f4e487b7100000000000000000000000000000000000000000000000000000000600052601160045260246000fd5b60008085851115613b6e57600080fd5b83861115613b7b57600080fd5b5050820193919092039150565b6bffffffffffffffffffffffff198135818116916014851015613bb55780818660140360031b1b83161692505b505092915050565b7f4e487b7100000000000000000000000000000000000000000000000000000000600052603160045260246000fdfea264697066735822122094cadbdfb3b40b45857d8d49202554c9c2debd4346108beacaa17dcc1447bc9564736f6c63430008170033",
    "linkReferences": {}
  },
  "methodIdentifiers": {
    "BURN_ADMIN_ROLE()": "b3cb1991",
    "DEFAULT_ADMIN_ROLE()": "a217fddf",
    "ORCHESTRATOR_MANAGER_ROLE()": "5b58890e",
    "ORCHESTRATOR_OWNER_ROLE()": "fb312778",
    "burnAdminFromModuleRole(bytes32)": "e99b6e13",
    "decoder(bytes)": "9e978575",
    "generateRoleId(address,bytes32)": "fdd5205f",
    "getManagerRole()": "328c4c30",
    "getOwnerRole()": "55ff58d4",
    "getRoleAdmin(bytes32)": "248a9ca3",
    "getRoleMember(bytes32,uint256)": "9010d07c",
    "getRoleMemberCount(bytes32)": "ca15c873",
    "getThresholdValue(bytes32,address)": "c8da8085",
    "grantGlobalRole(bytes32,address)": "61bcd0c4",
    "grantGlobalRoleBatched(bytes32,address[])": "ee2d0968",
    "grantModuleRole(bytes32,address)": "6c67e807",
    "grantModuleRoleBatched(bytes32,address[])": "272bbd44",
    "grantRole(bytes32,address)": "2f2ff15d",
    "grantRoleFromModule(bytes32,address)": "e1788154",
    "grantRoleFromModuleBatched(bytes32,address[])": "64815453",
    "grantTokenRoleFromModule(bytes32,address,uint256)": "35dde263",
    "hasModuleRole(bytes32,address)": "f3aafa70",
    "hasRole(bytes32,address)": "91d14854",
    "hasTokenRole(bytes32,address)": "b3391c67",
    "identifier()": "7998a1c4",
    "init(address,(uint256,uint256,string,string),bytes)": "42dfe958",
    "init2(address,bytes)": "9bfdf766",
    "isTokenGated(bytes32)": "23add683",
    "isTrustedForwarder(address)": "572b6c05",
    "makeRoleTokenGatedFromModule(bytes32)": "5b0209b9",
    "orchestrator()": "b74795d9",
    "renounceRole(bytes32,address)": "36568abe",
    "revokeGlobalRole(bytes32,address)": "99df6ff1",
    "revokeGlobalRoleBatched(bytes32,address[])": "49eb42f1",
    "revokeModuleRole(bytes32,address)": "bcb61920",
    "revokeModuleRoleBatched(bytes32,address[])": "24e30270",
    "revokeRole(bytes32,address)": "d547741f",
    "revokeRoleFromModule(bytes32,address)": "ba66f9fc",
    "revokeRoleFromModuleBatched(bytes32,address[])": "7d540a64",
    "setThreshold(bytes32,address,uint256)": "16e109f8",
    "setThresholdFromModule(bytes32,address,uint256)": "a291d0a8",
    "setTokenGated(bytes32,bool)": "e5476cbe",
    "supportsInterface(bytes4)": "01ffc9a7",
    "thresholdMap(bytes32)": "7448216d",
    "title()": "4a79d50c",
    "transferAdminRole(bytes32,bytes32)": "e38a584c",
    "trustedForwarder()": "7da0a877",
    "url()": "5600f04f",
    "version()": "54fd4d50"
  },
  "id": 113
}