{
  "abi": [
    {
      "type": "constructor",
      "inputs": [],
      "stateMutability": "nonpayable"
    },
    {
      "type": "function",
      "name": "BURN_ADMIN_ROLE",
      "inputs": [],
      "outputs": [
        {
          "name": "",
          "type": "bytes32",
          "internalType": "bytes32"
        }
      ],
      "stateMutability": "view"
    },
    {
      "type": "function",
      "name": "DEFAULT_ADMIN_ROLE",
      "inputs": [],
      "outputs": [
        {
          "name": "",
          "type": "bytes32",
          "internalType": "bytes32"
        }
      ],
      "stateMutability": "view"
    },
    {
      "type": "function",
      "name": "ORCHESTRATOR_MANAGER_ROLE",
      "inputs": [],
      "outputs": [
        {
          "name": "",
          "type": "bytes32",
          "internalType": "bytes32"
        }
      ],
      "stateMutability": "view"
    },
    {
      "type": "function",
      "name": "ORCHESTRATOR_OWNER_ROLE",
      "inputs": [],
      "outputs": [
        {
          "name": "",
          "type": "bytes32",
          "internalType": "bytes32"
        }
      ],
      "stateMutability": "view"
    },
    {
      "type": "function",
      "name": "burnAdminFromModuleRole",
      "inputs": [
        {
          "name": "role",
          "type": "bytes32",
          "internalType": "bytes32"
        }
      ],
      "outputs": [],
      "stateMutability": "nonpayable"
    },
    {
      "type": "function",
      "name": "decoder",
      "inputs": [
        {
          "name": "data",
          "type": "bytes",
          "internalType": "bytes"
        }
      ],
      "outputs": [
        {
          "name": "requirement",
          "type": "bool",
          "internalType": "bool"
        }
      ],
      "stateMutability": "pure"
    },
    {
      "type": "function",
      "name": "generateRoleId",
      "inputs": [
        {
          "name": "module",
          "type": "address",
          "internalType": "address"
        },
        {
          "name": "role",
          "type": "bytes32",
          "internalType": "bytes32"
        }
      ],
      "outputs": [
        {
          "name": "",
          "type": "bytes32",
          "internalType": "bytes32"
        }
      ],
      "stateMutability": "pure"
    },
    {
      "type": "function",
      "name": "getManagerRole",
      "inputs": [],
      "outputs": [
        {
          "name": "",
          "type": "bytes32",
          "internalType": "bytes32"
        }
      ],
      "stateMutability": "pure"
    },
    {
      "type": "function",
      "name": "getOwnerRole",
      "inputs": [],
      "outputs": [
        {
          "name": "",
          "type": "bytes32",
          "internalType": "bytes32"
        }
      ],
      "stateMutability": "pure"
    },
    {
      "type": "function",
      "name": "getRoleAdmin",
      "inputs": [
        {
          "name": "role",
          "type": "bytes32",
          "internalType": "bytes32"
        }
      ],
      "outputs": [
        {
          "name": "",
          "type": "bytes32",
          "internalType": "bytes32"
        }
      ],
      "stateMutability": "view"
    },
    {
      "type": "function",
      "name": "getRoleMember",
      "inputs": [
        {
          "name": "role",
          "type": "bytes32",
          "internalType": "bytes32"
        },
        {
          "name": "index",
          "type": "uint256",
          "internalType": "uint256"
        }
      ],
      "outputs": [
        {
          "name": "",
          "type": "address",
          "internalType": "address"
        }
      ],
      "stateMutability": "view"
    },
    {
      "type": "function",
      "name": "getRoleMemberCount",
      "inputs": [
        {
          "name": "role",
          "type": "bytes32",
          "internalType": "bytes32"
        }
      ],
      "outputs": [
        {
          "name": "",
          "type": "uint256",
          "internalType": "uint256"
        }
      ],
      "stateMutability": "view"
    },
    {
      "type": "function",
      "name": "grantGlobalRole",
      "inputs": [
        {
          "name": "role",
          "type": "bytes32",
          "internalType": "bytes32"
        },
        {
          "name": "target",
          "type": "address",
          "internalType": "address"
        }
      ],
      "outputs": [],
      "stateMutability": "nonpayable"
    },
    {
      "type": "function",
      "name": "grantGlobalRoleBatched",
      "inputs": [
        {
          "name": "role",
          "type": "bytes32",
          "internalType": "bytes32"
        },
        {
          "name": "targets",
          "type": "address[]",
          "internalType": "address[]"
        }
      ],
      "outputs": [],
      "stateMutability": "nonpayable"
    },
    {
      "type": "function",
      "name": "grantModuleRole",
      "inputs": [
        {
          "name": "role",
          "type": "bytes32",
          "internalType": "bytes32"
        },
        {
          "name": "target",
          "type": "address",
          "internalType": "address"
        }
      ],
      "outputs": [],
      "stateMutability": "nonpayable"
    },
    {
      "type": "function",
      "name": "grantModuleRoleBatched",
      "inputs": [
        {
          "name": "role",
          "type": "bytes32",
          "internalType": "bytes32"
        },
        {
          "name": "targets",
          "type": "address[]",
          "internalType": "address[]"
        }
      ],
      "outputs": [],
      "stateMutability": "nonpayable"
    },
    {
      "type": "function",
      "name": "grantRole",
      "inputs": [
        {
          "name": "role",
          "type": "bytes32",
          "internalType": "bytes32"
        },
        {
          "name": "account",
          "type": "address",
          "internalType": "address"
        }
      ],
      "outputs": [],
      "stateMutability": "nonpayable"
    },
    {
      "type": "function",
      "name": "grantRoleFromModule",
      "inputs": [
        {
          "name": "role",
          "type": "bytes32",
          "internalType": "bytes32"
        },
        {
          "name": "target",
          "type": "address",
          "internalType": "address"
        }
      ],
      "outputs": [],
      "stateMutability": "nonpayable"
    },
    {
      "type": "function",
      "name": "grantRoleFromModuleBatched",
      "inputs": [
        {
          "name": "role",
          "type": "bytes32",
          "internalType": "bytes32"
        },
        {
          "name": "targets",
          "type": "address[]",
          "internalType": "address[]"
        }
      ],
      "outputs": [],
      "stateMutability": "nonpayable"
    },
    {
      "type": "function",
      "name": "hasModuleRole",
      "inputs": [
        {
          "name": "role",
          "type": "bytes32",
          "internalType": "bytes32"
        },
        {
          "name": "who",
          "type": "address",
          "internalType": "address"
        }
      ],
      "outputs": [
        {
          "name": "",
          "type": "bool",
          "internalType": "bool"
        }
      ],
      "stateMutability": "view"
    },
    {
      "type": "function",
      "name": "hasRole",
      "inputs": [
        {
          "name": "role",
          "type": "bytes32",
          "internalType": "bytes32"
        },
        {
          "name": "account",
          "type": "address",
          "internalType": "address"
        }
      ],
      "outputs": [
        {
          "name": "",
          "type": "bool",
          "internalType": "bool"
        }
      ],
      "stateMutability": "view"
    },
    {
      "type": "function",
      "name": "identifier",
      "inputs": [],
      "outputs": [
        {
          "name": "",
          "type": "bytes32",
          "internalType": "bytes32"
        }
      ],
      "stateMutability": "view"
    },
    {
      "type": "function",
      "name": "init",
      "inputs": [
        {
          "name": "orchestrator_",
          "type": "address",
          "internalType": "contract IOrchestrator_v1"
        },
        {
          "name": "metadata",
          "type": "tuple",
          "internalType": "struct IModule_v1.Metadata",
          "components": [
            {
              "name": "majorVersion",
              "type": "uint256",
              "internalType": "uint256"
            },
            {
              "name": "minorVersion",
              "type": "uint256",
              "internalType": "uint256"
            },
            {
              "name": "url",
              "type": "string",
              "internalType": "string"
            },
            {
              "name": "title",
              "type": "string",
              "internalType": "string"
            }
          ]
        },
        {
          "name": "configData",
          "type": "bytes",
          "internalType": "bytes"
        }
      ],
      "outputs": [],
      "stateMutability": "nonpayable"
    },
    {
      "type": "function",
      "name": "init2",
      "inputs": [
        {
          "name": "orchestrator_",
          "type": "address",
          "internalType": "contract IOrchestrator_v1"
        },
        {
          "name": "dependencyData",
          "type": "bytes",
          "internalType": "bytes"
        }
      ],
      "outputs": [],
      "stateMutability": "nonpayable"
    },
    {
      "type": "function",
      "name": "isTrustedForwarder",
      "inputs": [
        {
          "name": "forwarder",
          "type": "address",
          "internalType": "address"
        }
      ],
      "outputs": [
        {
          "name": "",
          "type": "bool",
          "internalType": "bool"
        }
      ],
      "stateMutability": "view"
    },
    {
      "type": "function",
      "name": "orchestrator",
      "inputs": [],
      "outputs": [
        {
          "name": "",
          "type": "address",
          "internalType": "contract IOrchestrator_v1"
        }
      ],
      "stateMutability": "view"
    },
    {
      "type": "function",
      "name": "renounceRole",
      "inputs": [
        {
          "name": "role",
          "type": "bytes32",
          "internalType": "bytes32"
        },
        {
          "name": "callerConfirmation",
          "type": "address",
          "internalType": "address"
        }
      ],
      "outputs": [],
      "stateMutability": "nonpayable"
    },
    {
      "type": "function",
      "name": "revokeGlobalRole",
      "inputs": [
        {
          "name": "role",
          "type": "bytes32",
          "internalType": "bytes32"
        },
        {
          "name": "target",
          "type": "address",
          "internalType": "address"
        }
      ],
      "outputs": [],
      "stateMutability": "nonpayable"
    },
    {
      "type": "function",
      "name": "revokeGlobalRoleBatched",
      "inputs": [
        {
          "name": "role",
          "type": "bytes32",
          "internalType": "bytes32"
        },
        {
          "name": "targets",
          "type": "address[]",
          "internalType": "address[]"
        }
      ],
      "outputs": [],
      "stateMutability": "nonpayable"
    },
    {
      "type": "function",
      "name": "revokeModuleRole",
      "inputs": [
        {
          "name": "role",
          "type": "bytes32",
          "internalType": "bytes32"
        },
        {
          "name": "target",
          "type": "address",
          "internalType": "address"
        }
      ],
      "outputs": [],
      "stateMutability": "nonpayable"
    },
    {
      "type": "function",
      "name": "revokeModuleRoleBatched",
      "inputs": [
        {
          "name": "role",
          "type": "bytes32",
          "internalType": "bytes32"
        },
        {
          "name": "targets",
          "type": "address[]",
          "internalType": "address[]"
        }
      ],
      "outputs": [],
      "stateMutability": "nonpayable"
    },
    {
      "type": "function",
      "name": "revokeRole",
      "inputs": [
        {
          "name": "role",
          "type": "bytes32",
          "internalType": "bytes32"
        },
        {
          "name": "account",
          "type": "address",
          "internalType": "address"
        }
      ],
      "outputs": [],
      "stateMutability": "nonpayable"
    },
    {
      "type": "function",
      "name": "revokeRoleFromModule",
      "inputs": [
        {
          "name": "role",
          "type": "bytes32",
          "internalType": "bytes32"
        },
        {
          "name": "target",
          "type": "address",
          "internalType": "address"
        }
      ],
      "outputs": [],
      "stateMutability": "nonpayable"
    },
    {
      "type": "function",
      "name": "revokeRoleFromModuleBatched",
      "inputs": [
        {
          "name": "role",
          "type": "bytes32",
          "internalType": "bytes32"
        },
        {
          "name": "targets",
          "type": "address[]",
          "internalType": "address[]"
        }
      ],
      "outputs": [],
      "stateMutability": "nonpayable"
    },
    {
      "type": "function",
      "name": "supportsInterface",
      "inputs": [
        {
          "name": "interfaceId",
          "type": "bytes4",
          "internalType": "bytes4"
        }
      ],
      "outputs": [
        {
          "name": "",
          "type": "bool",
          "internalType": "bool"
        }
      ],
      "stateMutability": "view"
    },
    {
      "type": "function",
      "name": "title",
      "inputs": [],
      "outputs": [
        {
          "name": "",
          "type": "string",
          "internalType": "string"
        }
      ],
      "stateMutability": "view"
    },
    {
      "type": "function",
      "name": "transferAdminRole",
      "inputs": [
        {
          "name": "roleId",
          "type": "bytes32",
          "internalType": "bytes32"
        },
        {
          "name": "newAdmin",
          "type": "bytes32",
          "internalType": "bytes32"
        }
      ],
      "outputs": [],
      "stateMutability": "nonpayable"
    },
    {
      "type": "function",
      "name": "trustedForwarder",
      "inputs": [],
      "outputs": [
        {
          "name": "",
          "type": "address",
          "internalType": "address"
        }
      ],
      "stateMutability": "view"
    },
    {
      "type": "function",
      "name": "url",
      "inputs": [],
      "outputs": [
        {
          "name": "",
          "type": "string",
          "internalType": "string"
        }
      ],
      "stateMutability": "view"
    },
    {
      "type": "function",
      "name": "version",
      "inputs": [],
      "outputs": [
        {
          "name": "",
          "type": "uint256",
          "internalType": "uint256"
        },
        {
          "name": "",
          "type": "uint256",
          "internalType": "uint256"
        }
      ],
      "stateMutability": "view"
    },
    {
      "type": "event",
      "name": "Initialized",
      "inputs": [
        {
          "name": "version",
          "type": "uint64",
          "indexed": false,
          "internalType": "uint64"
        }
      ],
      "anonymous": false
    },
    {
      "type": "event",
      "name": "ModuleInitialized",
      "inputs": [
        {
          "name": "parentOrchestrator",
          "type": "address",
          "indexed": true,
          "internalType": "address"
        },
        {
          "name": "moduleTitle",
          "type": "string",
          "indexed": true,
          "internalType": "string"
        },
        {
          "name": "majorVersion",
          "type": "uint256",
          "indexed": false,
          "internalType": "uint256"
        },
        {
          "name": "minorVersion",
          "type": "uint256",
          "indexed": false,
          "internalType": "uint256"
        }
      ],
      "anonymous": false
    },
    {
      "type": "event",
      "name": "RoleAdminChanged",
      "inputs": [
        {
          "name": "role",
          "type": "bytes32",
          "indexed": true,
          "internalType": "bytes32"
        },
        {
          "name": "previousAdminRole",
          "type": "bytes32",
          "indexed": true,
          "internalType": "bytes32"
        },
        {
          "name": "newAdminRole",
          "type": "bytes32",
          "indexed": true,
          "internalType": "bytes32"
        }
      ],
      "anonymous": false
    },
    {
      "type": "event",
      "name": "RoleGranted",
      "inputs": [
        {
          "name": "role",
          "type": "bytes32",
          "indexed": true,
          "internalType": "bytes32"
        },
        {
          "name": "account",
          "type": "address",
          "indexed": true,
          "internalType": "address"
        },
        {
          "name": "sender",
          "type": "address",
          "indexed": true,
          "internalType": "address"
        }
      ],
      "anonymous": false
    },
    {
      "type": "event",
      "name": "RoleRevoked",
      "inputs": [
        {
          "name": "role",
          "type": "bytes32",
          "indexed": true,
          "internalType": "bytes32"
        },
        {
          "name": "account",
          "type": "address",
          "indexed": true,
          "internalType": "address"
        },
        {
          "name": "sender",
          "type": "address",
          "indexed": true,
          "internalType": "address"
        }
      ],
      "anonymous": false
    },
    {
      "type": "error",
      "name": "AccessControlBadConfirmation",
      "inputs": []
    },
    {
      "type": "error",
      "name": "AccessControlUnauthorizedAccount",
      "inputs": [
        {
          "name": "account",
          "type": "address",
          "internalType": "address"
        },
        {
          "name": "neededRole",
          "type": "bytes32",
          "internalType": "bytes32"
        }
      ]
    },
    {
      "type": "error",
      "name": "InvalidInitialization",
      "inputs": []
    },
    {
      "type": "error",
      "name": "Module_OrchestratorCallbackFailed",
      "inputs": [
        {
          "name": "funcSig",
          "type": "string",
          "internalType": "string"
        }
      ]
    },
    {
      "type": "error",
      "name": "Module__Authorizer__ModuleNotSelfManaged",
      "inputs": []
    },
    {
      "type": "error",
      "name": "Module__Authorizer__NotActiveModule",
      "inputs": [
        {
          "name": "module",
          "type": "address",
          "internalType": "address"
        }
      ]
    },
    {
      "type": "error",
      "name": "Module__Authorizer__OwnerRoleCannotBeEmpty",
      "inputs": []
    },
    {
      "type": "error",
      "name": "Module__CallerNotAuthorized",
      "inputs": [
        {
          "name": "role",
          "type": "bytes32",
          "internalType": "bytes32"
        },
        {
          "name": "caller",
          "type": "address",
          "internalType": "address"
        }
      ]
    },
    {
      "type": "error",
      "name": "Module__CannotCallInit2Again",
      "inputs": []
    },
    {
      "type": "error",
      "name": "Module__InvalidMetadata",
      "inputs": []
    },
    {
      "type": "error",
      "name": "Module__InvalidOrchestratorAddress",
      "inputs": []
    },
    {
      "type": "error",
      "name": "Module__NoDependencyOrMalformedDependencyData",
      "inputs": []
    },
    {
      "type": "error",
      "name": "Module__OnlyCallableByOrchestrator",
      "inputs": []
    },
    {
      "type": "error",
      "name": "NotInitializing",
      "inputs": []
    }
  ],
  "bytecode": {
    "object": "0x60a06040523480156200001157600080fd5b5060006080526200002162000035565b6200002f60001980620000e9565b6200018e565b7ff0c57e16840df040f15088dc2f81fe391c3923bec73e23a9662efc9c229c6a00805468010000000000000000900460ff1615620000865760405163f92ee8a960e01b815260040160405180910390fd5b80546001600160401b0390811614620000e65780546001600160401b0319166001600160401b0390811782556040519081527fc7f505b2f371ae2175ee4913f4499e1f2633a7b5936321eed1cdaeb6115181d29060200160405180910390a15b50565b7f02dd7bc7dec4dceedda775e58dd541e08a116c6c53815c0bd028192f7b6268006000620001458460009081527f02dd7bc7dec4dceedda775e58dd541e08a116c6c53815c0bd028192f7b626800602052604090206001015490565b600085815260208490526040808220600101869055519192508491839187917fbd79b86ffe0ab8e8776151514217cd7cacd52c909f66475c3af44e129f0b00ff9190a450505050565b608051613367620001a7600039600050506133676000f3fe608060405234801561001057600080fd5b50600436106102c85760003560e01c80637da0a8771161017b578063bcb61920116100d8578063e99b6e131161008c578063f3aafa7011610071578063f3aafa7014610635578063fb31277814610648578063fdd5205f1461065657600080fd5b8063e99b6e131461060f578063ee2d09681461062257600080fd5b8063d547741f116100bd578063d547741f146105d6578063e1788154146105e9578063e38a584c146105fc57600080fd5b8063bcb61920146105b0578063ca15c873146105c357600080fd5b80639e9785751161012f578063b3cb199111610114578063b3cb19911461057e578063b74795d914610587578063ba66f9fc1461059d57600080fd5b80639e97857514610563578063a217fddf1461057657600080fd5b806391d148541161016057806391d14854146104e557806399df6ff11461053d5780639bfdf7661461055057600080fd5b80637da0a877146104b25780639010d07c146104d257600080fd5b806354fd4d501161022957806361bcd0c4116101dd5780636c67e807116101c25780636c67e807146104845780637998a1c4146104975780637d540a641461049f57600080fd5b806361bcd0c41461045e578063648154531461047157600080fd5b80635600f04f1161020e5780635600f04f1461041c578063572b6c05146104245780635b58890e1461043757600080fd5b806354fd4d50146103f457806355ff58d41461040f57600080fd5b8063328c4c301161028057806342dfe9581161026557806342dfe958146103b957806349eb42f1146103cc5780634a79d50c146103df57600080fd5b8063328c4c301461038057806336568abe146103a657600080fd5b806324e30270116102b157806324e3027014610345578063272bbd441461035a5780632f2ff15d1461036d57600080fd5b806301ffc9a7146102cd578063248a9ca3146102f5575b600080fd5b6102e06102db366004612a38565b6106ab565b60405190151581526020015b60405180910390f35b610337610303366004612a7a565b60009081527f02dd7bc7dec4dceedda775e58dd541e08a116c6c53815c0bd028192f7b626800602052604090206001015490565b6040519081526020016102ec565b610358610353366004612a93565b610707565b005b610358610368366004612a93565b6109d9565b61035861037b366004612b27565b610c28565b7f3078303200000000000000000000000000000000000000000000000000000000610337565b6103586103b4366004612b27565b610c72565b6103586103c7366004612c5e565b610cd3565b6103586103da366004612a93565b610e7d565b6103e7610f3b565b6040516102ec9190612d8a565b600154600254604080519283526020830191909152016102ec565b633078303160e01b610337565b6103e7610fd0565b6102e0610432366004612d9d565b610fe2565b6103377f307830320000000000000000000000000000000000000000000000000000000081565b61035861046c366004612b27565b611070565b61035861047f366004612a93565b6110f3565b610358610492366004612b27565b611227565b6103376114b1565b6103586104ad366004612a93565b611601565b6104ba61171b565b6040516001600160a01b0390911681526020016102ec565b6104ba6104e0366004612dba565b611793565b6102e06104f3366004612b27565b60009182527f02dd7bc7dec4dceedda775e58dd541e08a116c6c53815c0bd028192f7b626800602090815260408084206001600160a01b0393909316845291905290205460ff1690565b61035861054b366004612b27565b6117d4565b61035861055e366004612ddc565b61180c565b6102e0610571366004612e2c565b611896565b610337600081565b61033760001981565b60005461010090046001600160a01b03166104ba565b6103586105ab366004612b27565b6118b3565b6103586105be366004612b27565b6119a1565b6103376105d1366004612a7a565b611bf6565b6103586105e4366004612b27565b611c35565b6103586105f7366004612b27565b611c79565b61035861060a366004612dba565b611d67565b61035861061d366004612a7a565b611dab565b610358610630366004612a93565b611eef565b6102e0610643366004612b27565b611f47565b610337633078303160e01b81565b610337610664366004612e61565b6040516bffffffffffffffffffffffff19606084901b1660208201526034810182905260009060540160405160208183030381529060405280519060200120905092915050565b60007fffffffff0000000000000000000000000000000000000000000000000000000082167f7e732aa7000000000000000000000000000000000000000000000000000000001480610701575061070182611fa2565b92915050565b60008060019054906101000a90046001600160a01b03166001600160a01b031663d09edf316040518163ffffffff1660e01b8152600401602060405180830381865afa15801561075b573d6000803e3d6000fd5b505050506040513d601f19601f8201168201806040525081019061077f9190612e8d565b90506000816001600160a01b03166355ff58d46040518163ffffffff1660e01b8152600401602060405180830381865afa1580156107c1573d6000803e3d6000fd5b505050506040513d601f19601f820116820180604052508101906107e59190612eaa565b9050816001600160a01b03166391d14854826107ff612039565b6040517fffffffff0000000000000000000000000000000000000000000000000000000060e085901b16815260048101929092526001600160a01b03166024820152604401602060405180830381865afa158015610861573d6000803e3d6000fd5b505050506040513d601f19601f820116820180604052508101906108859190612ed3565b6108db5780610892612039565b6040517f42abbb7700000000000000000000000000000000000000000000000000000000815260048101929092526001600160a01b031660248201526044015b60405180910390fd5b60008060019054906101000a90046001600160a01b03166001600160a01b031663d09edf316040518163ffffffff1660e01b8152600401602060405180830381865afa15801561092f573d6000803e3d6000fd5b505050506040513d601f19601f820116820180604052508101906109539190612e8d565b6040517f7d540a640000000000000000000000000000000000000000000000000000000081529091506001600160a01b03821690637d540a649061099f90899089908990600401612eee565b600060405180830381600087803b1580156109b957600080fd5b505af11580156109cd573d6000803e3d6000fd5b50505050505050505050565b60008060019054906101000a90046001600160a01b03166001600160a01b031663d09edf316040518163ffffffff1660e01b8152600401602060405180830381865afa158015610a2d573d6000803e3d6000fd5b505050506040513d601f19601f82011682018060405250810190610a519190612e8d565b90506000816001600160a01b03166355ff58d46040518163ffffffff1660e01b8152600401602060405180830381865afa158015610a93573d6000803e3d6000fd5b505050506040513d601f19601f82011682018060405250810190610ab79190612eaa565b9050816001600160a01b03166391d1485482610ad1612039565b6040517fffffffff0000000000000000000000000000000000000000000000000000000060e085901b16815260048101929092526001600160a01b03166024820152604401602060405180830381865afa158015610b33573d6000803e3d6000fd5b505050506040513d601f19601f82011682018060405250810190610b579190612ed3565b610b645780610892612039565b60008060019054906101000a90046001600160a01b03166001600160a01b031663d09edf316040518163ffffffff1660e01b8152600401602060405180830381865afa158015610bb8573d6000803e3d6000fd5b505050506040513d601f19601f82011682018060405250810190610bdc9190612e8d565b6040517f648154530000000000000000000000000000000000000000000000000000000081529091506001600160a01b0382169063648154539061099f90899089908990600401612eee565b60008281527f02dd7bc7dec4dceedda775e58dd541e08a116c6c53815c0bd028192f7b6268006020526040902060010154610c6281612043565b610c6c8383612057565b50505050565b610c7a612039565b6001600160a01b0316816001600160a01b031614610cc4576040517f6697b23200000000000000000000000000000000000000000000000000000000815260040160405180910390fd5b610cce82826120ae565b505050565b7ff0c57e16840df040f15088dc2f81fe391c3923bec73e23a9662efc9c229c6a00805468010000000000000000810460ff16159067ffffffffffffffff16600081158015610d1e5750825b905060008267ffffffffffffffff166001148015610d3b5750303b155b905081158015610d49575080155b15610d80576040517ff92ee8a900000000000000000000000000000000000000000000000000000000815260040160405180910390fd5b84547fffffffffffffffffffffffffffffffffffffffffffffffff00000000000000001660011785558315610de15784547fffffffffffffffffffffffffffffffffffffffffffffff00ffffffffffffffff16680100000000000000001785555b610deb8888612118565b60008087806020019051810190610e029190612f46565b91509150610e108282612277565b50508315610e735784547fffffffffffffffffffffffffffffffffffffffffffffff00ffffffffffffffff168555604051600181527fc7f505b2f371ae2175ee4913f4499e1f2633a7b5936321eed1cdaeb6115181d29060200160405180910390a15b5050505050505050565b633078303160e01b610e8e81612043565b60008054610eed9061010090046001600160a01b03165b866040516bffffffffffffffffffffffff19606084901b1660208201526034810182905260009060540160405160208183030381529060405280519060200120905092915050565b905060005b83811015610f3357610f2a82868684818110610f1057610f10612f75565b9050602002016020810190610f259190612d9d565b6120ae565b50600101610ef2565b505050505050565b606060016003018054610f4d90612fa4565b80601f0160208091040260200160405190810160405280929190818152602001828054610f7990612fa4565b8015610fc65780601f10610f9b57610100808354040283529160200191610fc6565b820191906000526020600020905b815481529060010190602001808311610fa957829003601f168201915b5050505050905090565b606060016002018054610f4d90612fa4565b600080546040517f572b6c050000000000000000000000000000000000000000000000000000000081526001600160a01b0384811660048301526101009092049091169063572b6c0590602401602060405180830381865afa15801561104c573d6000803e3d6000fd5b505050506040513d601f19601f820116820180604052508101906107019190612ed3565b633078303160e01b61108181612043565b600080546110e09061010090046001600160a01b03165b856040516bffffffffffffffffffffffff19606084901b1660208201526034810182905260009060540160405160208183030381529060405280519060200120905092915050565b90506110ec8184612057565b5050505050565b6110fb612039565b60005461010090046001600160a01b03166040517f42f6e3890000000000000000000000000000000000000000000000000000000081526001600160a01b03838116600483015291909116906342f6e389906024016020604051808303816000875af115801561116f573d6000803e3d6000fd5b505050506040513d601f19601f820116820180604052508101906111939190612ed3565b6111d4576040517f5912aaef0000000000000000000000000000000000000000000000000000000081526001600160a01b03821660048201526024016108d2565b60006111e1610ea5612039565b905060005b83811015610f335761121e8286868481811061120457611204612f75565b90506020020160208101906112199190612d9d565b612057565b506001016111e6565b60008060019054906101000a90046001600160a01b03166001600160a01b031663d09edf316040518163ffffffff1660e01b8152600401602060405180830381865afa15801561127b573d6000803e3d6000fd5b505050506040513d601f19601f8201168201806040525081019061129f9190612e8d565b90506000816001600160a01b03166355ff58d46040518163ffffffff1660e01b8152600401602060405180830381865afa1580156112e1573d6000803e3d6000fd5b505050506040513d601f19601f820116820180604052508101906113059190612eaa565b9050816001600160a01b03166391d148548261131f612039565b6040517fffffffff0000000000000000000000000000000000000000000000000000000060e085901b16815260048101929092526001600160a01b03166024820152604401602060405180830381865afa158015611381573d6000803e3d6000fd5b505050506040513d601f19601f820116820180604052508101906113a59190612ed3565b6113b25780610892612039565b60008060019054906101000a90046001600160a01b03166001600160a01b031663d09edf316040518163ffffffff1660e01b8152600401602060405180830381865afa158015611406573d6000803e3d6000fd5b505050506040513d601f19601f8201168201806040525081019061142a9190612e8d565b6040517fe1788154000000000000000000000000000000000000000000000000000000008152600481018790526001600160a01b0386811660248301529192509082169063e1788154906044015b600060405180830381600087803b15801561149257600080fd5b505af11580156114a6573d6000803e3d6000fd5b505050505050505050565b604080516080810182526001805482526002546020830152600380546000946115fc949392908401916114e390612fa4565b80601f016020809104026020016040519081016040528092919081815260200182805461150f90612fa4565b801561155c5780601f106115315761010080835404028352916020019161155c565b820191906000526020600020905b81548152906001019060200180831161153f57829003601f168201915b5050505050815260200160038201805461157590612fa4565b80601f01602080910402602001604051908101604052809291908181526020018280546115a190612fa4565b80156115ee5780601f106115c3576101008083540402835291602001916115ee565b820191906000526020600020905b8154815290600101906020018083116115d157829003601f168201915b505050505081525050612335565b905090565b611609612039565b60005461010090046001600160a01b03166040517f42f6e3890000000000000000000000000000000000000000000000000000000081526001600160a01b03838116600483015291909116906342f6e389906024016020604051808303816000875af115801561167d573d6000803e3d6000fd5b505050506040513d601f19601f820116820180604052508101906116a19190612ed3565b6116e2576040517f5912aaef0000000000000000000000000000000000000000000000000000000081526001600160a01b03821660048201526024016108d2565b60006116ef610ea5612039565b905060005b83811015610f335761171282868684818110610f1057610f10612f75565b506001016116f4565b60008060019054906101000a90046001600160a01b03166001600160a01b0316637da0a8776040518163ffffffff1660e01b8152600401602060405180830381865afa15801561176f573d6000803e3d6000fd5b505050506040513d601f19601f820116820180604052508101906115fc9190612e8d565b60008281527fc1f6fe24621ce81ec5827caf0253cadb74709b061630e6b55e823717059320006020819052604082206117cc9084612375565b949350505050565b633078303160e01b6117e581612043565b600080546118009061010090046001600160a01b0316611098565b90506110ec81846120ae565b60005460ff1615611849576040517f904875a100000000000000000000000000000000000000000000000000000000815260040160405180910390fd5b6000805460ff191660011790558061186081612381565b610cce576040517feef043ae00000000000000000000000000000000000000000000000000000000815260040160405180910390fd5b6000818060200190518101906118ac9190612ff7565b5092915050565b6118bb612039565b60005461010090046001600160a01b03166040517f42f6e3890000000000000000000000000000000000000000000000000000000081526001600160a01b03838116600483015291909116906342f6e389906024016020604051808303816000875af115801561192f573d6000803e3d6000fd5b505050506040513d601f19601f820116820180604052508101906119539190612ed3565b611994576040517f5912aaef0000000000000000000000000000000000000000000000000000000081526001600160a01b03821660048201526024016108d2565b6000611800611098612039565b60008060019054906101000a90046001600160a01b03166001600160a01b031663d09edf316040518163ffffffff1660e01b8152600401602060405180830381865afa1580156119f5573d6000803e3d6000fd5b505050506040513d601f19601f82011682018060405250810190611a199190612e8d565b90506000816001600160a01b03166355ff58d46040518163ffffffff1660e01b8152600401602060405180830381865afa158015611a5b573d6000803e3d6000fd5b505050506040513d601f19601f82011682018060405250810190611a7f9190612eaa565b9050816001600160a01b03166391d1485482611a99612039565b6040517fffffffff0000000000000000000000000000000000000000000000000000000060e085901b16815260048101929092526001600160a01b03166024820152604401602060405180830381865afa158015611afb573d6000803e3d6000fd5b505050506040513d601f19601f82011682018060405250810190611b1f9190612ed3565b611b2c5780610892612039565b60008060019054906101000a90046001600160a01b03166001600160a01b031663d09edf316040518163ffffffff1660e01b8152600401602060405180830381865afa158015611b80573d6000803e3d6000fd5b505050506040513d601f19601f82011682018060405250810190611ba49190612e8d565b6040517fba66f9fc000000000000000000000000000000000000000000000000000000008152600481018790526001600160a01b0386811660248301529192509082169063ba66f9fc90604401611478565b60008181527fc1f6fe24621ce81ec5827caf0253cadb74709b061630e6b55e82371705932000602081905260408220611c2e90612487565b9392505050565b60008281527f02dd7bc7dec4dceedda775e58dd541e08a116c6c53815c0bd028192f7b6268006020526040902060010154611c6f81612043565b610c6c83836120ae565b611c81612039565b60005461010090046001600160a01b03166040517f42f6e3890000000000000000000000000000000000000000000000000000000081526001600160a01b03838116600483015291909116906342f6e389906024016020604051808303816000875af1158015611cf5573d6000803e3d6000fd5b505050506040513d601f19601f82011682018060405250810190611d199190612ed3565b611d5a576040517f5912aaef0000000000000000000000000000000000000000000000000000000081526001600160a01b03821660048201526024016108d2565b60006110e0611098612039565b60008281527f02dd7bc7dec4dceedda775e58dd541e08a116c6c53815c0bd028192f7b6268006020526040902060010154611da181612043565b610cce8383612491565b611db3612039565b60005461010090046001600160a01b03166040517f42f6e3890000000000000000000000000000000000000000000000000000000081526001600160a01b03838116600483015291909116906342f6e389906024016020604051808303816000875af1158015611e27573d6000803e3d6000fd5b505050506040513d601f19601f82011682018060405250810190611e4b9190612ed3565b611e8c576040517f5912aaef0000000000000000000000000000000000000000000000000000000081526001600160a01b03821660048201526024016108d2565b6000611ee1611e99612039565b846040516bffffffffffffffffffffffff19606084901b1660208201526034810182905260009060540160405160208183030381529060405280519060200120905092915050565b9050610cce81600019612491565b633078303160e01b611f0081612043565b60008054611f1b9061010090046001600160a01b0316610ea5565b905060005b83811015610f3357611f3e8286868481811061120457611204612f75565b50600101611f20565b600080611f55611098612039565b60008181527f02dd7bc7dec4dceedda775e58dd541e08a116c6c53815c0bd028192f7b626800602090815260408083206001600160a01b038816845290915290205490915060ff166117cc565b60007fffffffff0000000000000000000000000000000000000000000000000000000082167f8c600c2300000000000000000000000000000000000000000000000000000000148061070157507f01ffc9a7000000000000000000000000000000000000000000000000000000007fffffffff00000000000000000000000000000000000000000000000000000000831614610701565b60006115fc612535565b6120548161204f612039565b612587565b50565b60007fc1f6fe24621ce81ec5827caf0253cadb74709b061630e6b55e82371705932000816120858585612614565b905080156117cc5760008581526020839052604090206120a590856126e4565b50949350505050565b600082633078303160e01b811480156120d7575060016120d4633078303160e01b611bf6565b11155b1561210e576040517f2cbba9ff00000000000000000000000000000000000000000000000000000000815260040160405180910390fd5b6117cc84846126f9565b612120612747565b6001600160a01b038216612160576040517f7280679300000000000000000000000000000000000000000000000000000000815260040160405180910390fd5b600080547fffffffffffffffffffffff0000000000000000000000000000000000000000ff166101006001600160a01b038516021790556121a0816127b0565b6121d6576040517f7511254100000000000000000000000000000000000000000000000000000000815260040160405180910390fd5b80516001908155602082015160025560408201518291906003906121fa9082613150565b506060820151600382019061220f9082613150565b50505060608101516040516122249190613210565b604080519182900382208351602080860151918552840152916001600160a01b038516917feb175f148a71d29a5f7bf5439182fcd81e6ea9cfc8a11b54ab0f705fa98fa8ca910160405180910390a35050565b61227f612747565b612290633078303160e01b80612491565b6122a26000633078303160e01b612491565b6122d37f3078303200000000000000000000000000000000000000000000000000000000633078303160e01b612491565b6122fd7f307830320000000000000000000000000000000000000000000000000000000082612057565b506001600160a01b0382161561231e57610cce633078303160e01b83612057565b610cce633078303160e01b611219612039565b5050565b60008160000151826040015183606001516040516020016123589392919061322c565b604051602081830303815290604052805190602001209050919050565b6000611c2e8383612802565b6040517f9e9785750000000000000000000000000000000000000000000000000000000081526000903090639e978575906123c0908590600401612d8a565b602060405180830381865afa9250505080156123f9575060408051601f3d908101601f191682019092526123f691810190612ed3565b60015b61240557506000919050565b6040517f9e9785750000000000000000000000000000000000000000000000000000000081523090639e97857590612441908690600401612d8a565b602060405180830381865afa15801561245e573d6000803e3d6000fd5b505050506040513d601f19601f82011682018060405250810190611c2e9190612ed3565b919050565b6000610701825490565b7f02dd7bc7dec4dceedda775e58dd541e08a116c6c53815c0bd028192f7b62680060006124ec8460009081527f02dd7bc7dec4dceedda775e58dd541e08a116c6c53815c0bd028192f7b626800602052604090206001015490565b600085815260208490526040808220600101869055519192508491839187917fbd79b86ffe0ab8e8776151514217cd7cacd52c909f66475c3af44e129f0b00ff9190a450505050565b600036601461254333610fe2565b801561254f5750808210155b1561257f576000366125618385613269565b61256c9282906132a3565b612575916132cd565b60601c9250505090565b339250505090565b60008281527f02dd7bc7dec4dceedda775e58dd541e08a116c6c53815c0bd028192f7b626800602090815260408083206001600160a01b038516845290915290205460ff16612331576040517fe2517d3f0000000000000000000000000000000000000000000000000000000081526001600160a01b0382166004820152602481018390526044016108d2565b60008281527f02dd7bc7dec4dceedda775e58dd541e08a116c6c53815c0bd028192f7b626800602081815260408084206001600160a01b038616855290915282205460ff166126da576000848152602082815260408083206001600160a01b03871684529091529020805460ff19166001179055612690612039565b6001600160a01b0316836001600160a01b0316857f2f8788117e7eff1d82e926ec794901d17c78024a50270940304540a733656f0d60405160405180910390a46001915050610701565b6000915050610701565b6000611c2e836001600160a01b03841661282c565b60007fc1f6fe24621ce81ec5827caf0253cadb74709b061630e6b55e8237170593200081612727858561287b565b905080156117cc5760008581526020839052604090206120a5908561293f565b7ff0c57e16840df040f15088dc2f81fe391c3923bec73e23a9662efc9c229c6a005468010000000000000000900460ff166127ae576040517fd7e6bcf800000000000000000000000000000000000000000000000000000000815260040160405180910390fd5b565b60008160400151516000036127c757506000919050565b8160600151516000036127dc57506000919050565b81511580156127ed57506020820151155b156127fa57506000919050565b506001919050565b600082600001828154811061281957612819612f75565b9060005260206000200154905092915050565b600081815260018301602052604081205461287357508154600181810184556000848152602080822090930184905584548482528286019093526040902091909155610701565b506000610701565b60008281527f02dd7bc7dec4dceedda775e58dd541e08a116c6c53815c0bd028192f7b626800602081815260408084206001600160a01b038616855290915282205460ff16156126da576000848152602082815260408083206001600160a01b03871684529091529020805460ff191690556128f5612039565b6001600160a01b0316836001600160a01b0316857ff6391f5c32d9c69d2a47ea670b442974b53935d1edc7fd64eb21e047a839171b60405160405180910390a46001915050610701565b6000611c2e836001600160a01b038416600081815260018301602052604081205480156126da576000612973600183613269565b855490915060009061298790600190613269565b90508082146129ec5760008660000182815481106129a7576129a7612f75565b90600052602060002001549050808760000184815481106129ca576129ca612f75565b6000918252602080832090910192909255918252600188019052604090208390555b85548690806129fd576129fd613302565b600190038181906000526020600020016000905590558560010160008681526020019081526020016000206000905560019350505050610701565b600060208284031215612a4a57600080fd5b81357fffffffff0000000000000000000000000000000000000000000000000000000081168114611c2e57600080fd5b600060208284031215612a8c57600080fd5b5035919050565b600080600060408486031215612aa857600080fd5b83359250602084013567ffffffffffffffff80821115612ac757600080fd5b818601915086601f830112612adb57600080fd5b813581811115612aea57600080fd5b8760208260051b8501011115612aff57600080fd5b6020830194508093505050509250925092565b6001600160a01b038116811461205457600080fd5b60008060408385031215612b3a57600080fd5b823591506020830135612b4c81612b12565b809150509250929050565b7f4e487b7100000000000000000000000000000000000000000000000000000000600052604160045260246000fd5b6040516080810167ffffffffffffffff81118282101715612ba957612ba9612b57565b60405290565b604051601f8201601f1916810167ffffffffffffffff81118282101715612bd857612bd8612b57565b604052919050565b600067ffffffffffffffff821115612bfa57612bfa612b57565b50601f01601f191660200190565b600082601f830112612c1957600080fd5b8135612c2c612c2782612be0565b612baf565b818152846020838601011115612c4157600080fd5b816020850160208301376000918101602001919091529392505050565b600080600060608486031215612c7357600080fd5b8335612c7e81612b12565b9250602084013567ffffffffffffffff80821115612c9b57600080fd5b9085019060808288031215612caf57600080fd5b612cb7612b86565b8235815260208301356020820152604083013582811115612cd757600080fd5b612ce389828601612c08565b604083015250606083013582811115612cfb57600080fd5b612d0789828601612c08565b60608301525093506040860135915080821115612d2357600080fd5b50612d3086828701612c08565b9150509250925092565b60005b83811015612d55578181015183820152602001612d3d565b50506000910152565b60008151808452612d76816020860160208601612d3a565b601f01601f19169290920160200192915050565b602081526000611c2e6020830184612d5e565b600060208284031215612daf57600080fd5b8135611c2e81612b12565b60008060408385031215612dcd57600080fd5b50508035926020909101359150565b60008060408385031215612def57600080fd5b8235612dfa81612b12565b9150602083013567ffffffffffffffff811115612e1657600080fd5b612e2285828601612c08565b9150509250929050565b600060208284031215612e3e57600080fd5b813567ffffffffffffffff811115612e5557600080fd5b6117cc84828501612c08565b60008060408385031215612e7457600080fd5b8235612e7f81612b12565b946020939093013593505050565b600060208284031215612e9f57600080fd5b8151611c2e81612b12565b600060208284031215612ebc57600080fd5b5051919050565b8051801515811461248257600080fd5b600060208284031215612ee557600080fd5b611c2e82612ec3565b83815260406020808301829052908201839052600090849060608401835b86811015612f3a578335612f1f81612b12565b6001600160a01b031682529282019290820190600101612f0c565b50979650505050505050565b60008060408385031215612f5957600080fd5b8251612f6481612b12565b6020840151909250612b4c81612b12565b7f4e487b7100000000000000000000000000000000000000000000000000000000600052603260045260246000fd5b600181811c90821680612fb857607f821691505b602082108103612ff1577f4e487b7100000000000000000000000000000000000000000000000000000000600052602260045260246000fd5b50919050565b600080604080848603121561300b57600080fd5b61301484612ec3565b925060208085015167ffffffffffffffff8082111561303257600080fd5b818701915087601f83011261304657600080fd5b81518181111561305857613058612b57565b8060051b613067858201612baf565b918252838101850191858101908b84111561308157600080fd5b86860192505b838310156130f65782518581111561309f5760008081fd5b8601603f81018d136130b15760008081fd5b878101516130c1612c2782612be0565b8181528e8b8385010111156130d65760008081fd5b6130e5828b83018d8601612d3a565b845250509186019190860190613087565b80985050505050505050509250929050565b601f821115610cce576000816000526020600020601f850160051c810160208610156131315750805b601f850160051c820191505b81811015610f335782815560010161313d565b815167ffffffffffffffff81111561316a5761316a612b57565b61317e816131788454612fa4565b84613108565b602080601f8311600181146131b3576000841561319b5750858301515b600019600386901b1c1916600185901b178555610f33565b600085815260208120601f198616915b828110156131e2578886015182559484019460019091019084016131c3565b50858210156132005787850151600019600388901b60f8161c191681555b5050505050600190811b01905550565b60008251613222818460208701612d3a565b9190910192915050565b83815260008351613244816020850160208801612d3a565b8083019050835161325c816020840160208801612d3a565b0160200195945050505050565b81810381811115610701577f4e487b7100000000000000000000000000000000000000000000000000000000600052601160045260246000fd5b600080858511156132b357600080fd5b838611156132c057600080fd5b5050820193919092039150565b6bffffffffffffffffffffffff1981358181169160148510156132fa5780818660140360031b1b83161692505b505092915050565b7f4e487b7100000000000000000000000000000000000000000000000000000000600052603160045260246000fdfea2646970667358221220904e7b815095e9345f599e966115a8afa80af3639636428110223668483bcee564736f6c63430008170033",
    "linkReferences": {}
  },
  "methodIdentifiers": {
    "BURN_ADMIN_ROLE()": "b3cb1991",
    "DEFAULT_ADMIN_ROLE()": "a217fddf",
    "ORCHESTRATOR_MANAGER_ROLE()": "5b58890e",
    "ORCHESTRATOR_OWNER_ROLE()": "fb312778",
    "burnAdminFromModuleRole(bytes32)": "e99b6e13",
    "decoder(bytes)": "9e978575",
    "generateRoleId(address,bytes32)": "fdd5205f",
    "getManagerRole()": "328c4c30",
    "getOwnerRole()": "55ff58d4",
    "getRoleAdmin(bytes32)": "248a9ca3",
    "getRoleMember(bytes32,uint256)": "9010d07c",
    "getRoleMemberCount(bytes32)": "ca15c873",
    "grantGlobalRole(bytes32,address)": "61bcd0c4",
    "grantGlobalRoleBatched(bytes32,address[])": "ee2d0968",
    "grantModuleRole(bytes32,address)": "6c67e807",
    "grantModuleRoleBatched(bytes32,address[])": "272bbd44",
    "grantRole(bytes32,address)": "2f2ff15d",
    "grantRoleFromModule(bytes32,address)": "e1788154",
    "grantRoleFromModuleBatched(bytes32,address[])": "64815453",
    "hasModuleRole(bytes32,address)": "f3aafa70",
    "hasRole(bytes32,address)": "91d14854",
    "identifier()": "7998a1c4",
    "init(address,(uint256,uint256,string,string),bytes)": "42dfe958",
    "init2(address,bytes)": "9bfdf766",
    "isTrustedForwarder(address)": "572b6c05",
    "orchestrator()": "b74795d9",
    "renounceRole(bytes32,address)": "36568abe",
    "revokeGlobalRole(bytes32,address)": "99df6ff1",
    "revokeGlobalRoleBatched(bytes32,address[])": "49eb42f1",
    "revokeModuleRole(bytes32,address)": "bcb61920",
    "revokeModuleRoleBatched(bytes32,address[])": "24e30270",
    "revokeRole(bytes32,address)": "d547741f",
    "revokeRoleFromModule(bytes32,address)": "ba66f9fc",
    "revokeRoleFromModuleBatched(bytes32,address[])": "7d540a64",
    "supportsInterface(bytes4)": "01ffc9a7",
    "title()": "4a79d50c",
    "transferAdminRole(bytes32,bytes32)": "e38a584c",
    "trustedForwarder()": "7da0a877",
    "url()": "5600f04f",
    "version()": "54fd4d50"
  },
  "id": 112
}