{
  "abi": [
    {
      "type": "function",
      "name": "BURN_ADMIN_ROLE",
      "inputs": [],
      "outputs": [
        {
          "name": "",
          "type": "bytes32",
          "internalType": "bytes32"
        }
      ],
      "stateMutability": "view"
    },
    {
      "type": "function",
      "name": "DEFAULT_ADMIN_ROLE",
      "inputs": [],
      "outputs": [
        {
          "name": "",
          "type": "bytes32",
          "internalType": "bytes32"
        }
      ],
      "stateMutability": "view"
    },
    {
      "type": "function",
      "name": "burnAdminFromModuleRole",
      "inputs": [
        {
          "name": "role",
          "type": "bytes32",
          "internalType": "bytes32"
        }
      ],
      "outputs": [],
      "stateMutability": "nonpayable"
    },
    {
      "type": "function",
      "name": "generateRoleId",
      "inputs": [
        {
          "name": "module",
          "type": "address",
          "internalType": "address"
        },
        {
          "name": "role",
          "type": "bytes32",
          "internalType": "bytes32"
        }
      ],
      "outputs": [
        {
          "name": "",
          "type": "bytes32",
          "internalType": "bytes32"
        }
      ],
      "stateMutability": "pure"
    },
    {
      "type": "function",
      "name": "getAdminRole",
      "inputs": [],
      "outputs": [
        {
          "name": "",
          "type": "bytes32",
          "internalType": "bytes32"
        }
      ],
      "stateMutability": "pure"
    },
    {
      "type": "function",
      "name": "getRoleAdmin",
      "inputs": [
        {
          "name": "role",
          "type": "bytes32",
          "internalType": "bytes32"
        }
      ],
      "outputs": [
        {
          "name": "",
          "type": "bytes32",
          "internalType": "bytes32"
        }
      ],
      "stateMutability": "view"
    },
    {
      "type": "function",
      "name": "getRoleMember",
      "inputs": [
        {
          "name": "role",
          "type": "bytes32",
          "internalType": "bytes32"
        },
        {
          "name": "index",
          "type": "uint256",
          "internalType": "uint256"
        }
      ],
      "outputs": [
        {
          "name": "",
          "type": "address",
          "internalType": "address"
        }
      ],
      "stateMutability": "view"
    },
    {
      "type": "function",
      "name": "getRoleMemberCount",
      "inputs": [
        {
          "name": "role",
          "type": "bytes32",
          "internalType": "bytes32"
        }
      ],
      "outputs": [
        {
          "name": "",
          "type": "uint256",
          "internalType": "uint256"
        }
      ],
      "stateMutability": "view"
    },
    {
      "type": "function",
      "name": "grantGlobalRole",
      "inputs": [
        {
          "name": "role",
          "type": "bytes32",
          "internalType": "bytes32"
        },
        {
          "name": "target",
          "type": "address",
          "internalType": "address"
        }
      ],
      "outputs": [],
      "stateMutability": "nonpayable"
    },
    {
      "type": "function",
      "name": "grantGlobalRoleBatched",
      "inputs": [
        {
          "name": "role",
          "type": "bytes32",
          "internalType": "bytes32"
        },
        {
          "name": "targets",
          "type": "address[]",
          "internalType": "address[]"
        }
      ],
      "outputs": [],
      "stateMutability": "nonpayable"
    },
    {
      "type": "function",
      "name": "grantModuleRole",
      "inputs": [
        {
          "name": "role",
          "type": "bytes32",
          "internalType": "bytes32"
        },
        {
          "name": "target",
          "type": "address",
          "internalType": "address"
        }
      ],
      "outputs": [],
      "stateMutability": "nonpayable"
    },
    {
      "type": "function",
      "name": "grantModuleRoleBatched",
      "inputs": [
        {
          "name": "role",
          "type": "bytes32",
          "internalType": "bytes32"
        },
        {
          "name": "targets",
          "type": "address[]",
          "internalType": "address[]"
        }
      ],
      "outputs": [],
      "stateMutability": "nonpayable"
    },
    {
      "type": "function",
      "name": "grantRole",
      "inputs": [
        {
          "name": "role",
          "type": "bytes32",
          "internalType": "bytes32"
        },
        {
          "name": "account",
          "type": "address",
          "internalType": "address"
        }
      ],
      "outputs": [],
      "stateMutability": "nonpayable"
    },
    {
      "type": "function",
      "name": "grantRoleFromModule",
      "inputs": [
        {
          "name": "role",
          "type": "bytes32",
          "internalType": "bytes32"
        },
        {
          "name": "target",
          "type": "address",
          "internalType": "address"
        }
      ],
      "outputs": [],
      "stateMutability": "nonpayable"
    },
    {
      "type": "function",
      "name": "grantRoleFromModuleBatched",
      "inputs": [
        {
          "name": "role",
          "type": "bytes32",
          "internalType": "bytes32"
        },
        {
          "name": "targets",
          "type": "address[]",
          "internalType": "address[]"
        }
      ],
      "outputs": [],
      "stateMutability": "nonpayable"
    },
    {
      "type": "function",
      "name": "hasModuleRole",
      "inputs": [
        {
          "name": "role",
          "type": "bytes32",
          "internalType": "bytes32"
        },
        {
          "name": "who",
          "type": "address",
          "internalType": "address"
        }
      ],
      "outputs": [
        {
          "name": "",
          "type": "bool",
          "internalType": "bool"
        }
      ],
      "stateMutability": "view"
    },
    {
      "type": "function",
      "name": "hasRole",
      "inputs": [
        {
          "name": "role",
          "type": "bytes32",
          "internalType": "bytes32"
        },
        {
          "name": "account",
          "type": "address",
          "internalType": "address"
        }
      ],
      "outputs": [
        {
          "name": "",
          "type": "bool",
          "internalType": "bool"
        }
      ],
      "stateMutability": "view"
    },
    {
      "type": "function",
      "name": "identifier",
      "inputs": [],
      "outputs": [
        {
          "name": "",
          "type": "bytes32",
          "internalType": "bytes32"
        }
      ],
      "stateMutability": "view"
    },
    {
      "type": "function",
      "name": "init",
      "inputs": [
        {
          "name": "orchestrator_",
          "type": "address",
          "internalType": "contract IOrchestrator_v1"
        },
        {
          "name": "metadata",
          "type": "tuple",
          "internalType": "struct IModule_v1.Metadata",
          "components": [
            {
              "name": "majorVersion",
              "type": "uint256",
              "internalType": "uint256"
            },
            {
              "name": "minorVersion",
              "type": "uint256",
              "internalType": "uint256"
            },
            {
              "name": "url",
              "type": "string",
              "internalType": "string"
            },
            {
              "name": "title",
              "type": "string",
              "internalType": "string"
            }
          ]
        },
        {
          "name": "configData",
          "type": "bytes",
          "internalType": "bytes"
        }
      ],
      "outputs": [],
      "stateMutability": "nonpayable"
    },
    {
      "type": "function",
      "name": "isTrustedForwarder",
      "inputs": [
        {
          "name": "forwarder",
          "type": "address",
          "internalType": "address"
        }
      ],
      "outputs": [
        {
          "name": "",
          "type": "bool",
          "internalType": "bool"
        }
      ],
      "stateMutability": "view"
    },
    {
      "type": "function",
      "name": "orchestrator",
      "inputs": [],
      "outputs": [
        {
          "name": "",
          "type": "address",
          "internalType": "contract IOrchestrator_v1"
        }
      ],
      "stateMutability": "view"
    },
    {
      "type": "function",
      "name": "renounceRole",
      "inputs": [
        {
          "name": "role",
          "type": "bytes32",
          "internalType": "bytes32"
        },
        {
          "name": "callerConfirmation",
          "type": "address",
          "internalType": "address"
        }
      ],
      "outputs": [],
      "stateMutability": "nonpayable"
    },
    {
      "type": "function",
      "name": "revokeGlobalRole",
      "inputs": [
        {
          "name": "role",
          "type": "bytes32",
          "internalType": "bytes32"
        },
        {
          "name": "target",
          "type": "address",
          "internalType": "address"
        }
      ],
      "outputs": [],
      "stateMutability": "nonpayable"
    },
    {
      "type": "function",
      "name": "revokeGlobalRoleBatched",
      "inputs": [
        {
          "name": "role",
          "type": "bytes32",
          "internalType": "bytes32"
        },
        {
          "name": "targets",
          "type": "address[]",
          "internalType": "address[]"
        }
      ],
      "outputs": [],
      "stateMutability": "nonpayable"
    },
    {
      "type": "function",
      "name": "revokeModuleRole",
      "inputs": [
        {
          "name": "role",
          "type": "bytes32",
          "internalType": "bytes32"
        },
        {
          "name": "target",
          "type": "address",
          "internalType": "address"
        }
      ],
      "outputs": [],
      "stateMutability": "nonpayable"
    },
    {
      "type": "function",
      "name": "revokeModuleRoleBatched",
      "inputs": [
        {
          "name": "role",
          "type": "bytes32",
          "internalType": "bytes32"
        },
        {
          "name": "targets",
          "type": "address[]",
          "internalType": "address[]"
        }
      ],
      "outputs": [],
      "stateMutability": "nonpayable"
    },
    {
      "type": "function",
      "name": "revokeRole",
      "inputs": [
        {
          "name": "role",
          "type": "bytes32",
          "internalType": "bytes32"
        },
        {
          "name": "account",
          "type": "address",
          "internalType": "address"
        }
      ],
      "outputs": [],
      "stateMutability": "nonpayable"
    },
    {
      "type": "function",
      "name": "revokeRoleFromModule",
      "inputs": [
        {
          "name": "role",
          "type": "bytes32",
          "internalType": "bytes32"
        },
        {
          "name": "target",
          "type": "address",
          "internalType": "address"
        }
      ],
      "outputs": [],
      "stateMutability": "nonpayable"
    },
    {
      "type": "function",
      "name": "revokeRoleFromModuleBatched",
      "inputs": [
        {
          "name": "role",
          "type": "bytes32",
          "internalType": "bytes32"
        },
        {
          "name": "targets",
          "type": "address[]",
          "internalType": "address[]"
        }
      ],
      "outputs": [],
      "stateMutability": "nonpayable"
    },
    {
      "type": "function",
      "name": "supportsInterface",
      "inputs": [
        {
          "name": "interfaceId",
          "type": "bytes4",
          "internalType": "bytes4"
        }
      ],
      "outputs": [
        {
          "name": "",
          "type": "bool",
          "internalType": "bool"
        }
      ],
      "stateMutability": "view"
    },
    {
      "type": "function",
      "name": "title",
      "inputs": [],
      "outputs": [
        {
          "name": "",
          "type": "string",
          "internalType": "string"
        }
      ],
      "stateMutability": "view"
    },
    {
      "type": "function",
      "name": "transferAdminRole",
      "inputs": [
        {
          "name": "roleId",
          "type": "bytes32",
          "internalType": "bytes32"
        },
        {
          "name": "newAdmin",
          "type": "bytes32",
          "internalType": "bytes32"
        }
      ],
      "outputs": [],
      "stateMutability": "nonpayable"
    },
    {
      "type": "function",
      "name": "trustedForwarder",
      "inputs": [],
      "outputs": [
        {
          "name": "",
          "type": "address",
          "internalType": "address"
        }
      ],
      "stateMutability": "view"
    },
    {
      "type": "function",
      "name": "url",
      "inputs": [],
      "outputs": [
        {
          "name": "",
          "type": "string",
          "internalType": "string"
        }
      ],
      "stateMutability": "view"
    },
    {
      "type": "function",
      "name": "version",
      "inputs": [],
      "outputs": [
        {
          "name": "",
          "type": "uint256",
          "internalType": "uint256"
        },
        {
          "name": "",
          "type": "uint256",
          "internalType": "uint256"
        }
      ],
      "stateMutability": "view"
    },
    {
      "type": "event",
      "name": "Initialized",
      "inputs": [
        {
          "name": "version",
          "type": "uint64",
          "indexed": false,
          "internalType": "uint64"
        }
      ],
      "anonymous": false
    },
    {
      "type": "event",
      "name": "ModuleInitialized",
      "inputs": [
        {
          "name": "parentOrchestrator",
          "type": "address",
          "indexed": true,
          "internalType": "address"
        },
        {
          "name": "moduleTitle",
          "type": "string",
          "indexed": true,
          "internalType": "string"
        },
        {
          "name": "majorVersion",
          "type": "uint256",
          "indexed": false,
          "internalType": "uint256"
        },
        {
          "name": "minorVersion",
          "type": "uint256",
          "indexed": false,
          "internalType": "uint256"
        }
      ],
      "anonymous": false
    },
    {
      "type": "event",
      "name": "RoleAdminChanged",
      "inputs": [
        {
          "name": "role",
          "type": "bytes32",
          "indexed": true,
          "internalType": "bytes32"
        },
        {
          "name": "previousAdminRole",
          "type": "bytes32",
          "indexed": true,
          "internalType": "bytes32"
        },
        {
          "name": "newAdminRole",
          "type": "bytes32",
          "indexed": true,
          "internalType": "bytes32"
        }
      ],
      "anonymous": false
    },
    {
      "type": "event",
      "name": "RoleGranted",
      "inputs": [
        {
          "name": "role",
          "type": "bytes32",
          "indexed": true,
          "internalType": "bytes32"
        },
        {
          "name": "account",
          "type": "address",
          "indexed": true,
          "internalType": "address"
        },
        {
          "name": "sender",
          "type": "address",
          "indexed": true,
          "internalType": "address"
        }
      ],
      "anonymous": false
    },
    {
      "type": "event",
      "name": "RoleRevoked",
      "inputs": [
        {
          "name": "role",
          "type": "bytes32",
          "indexed": true,
          "internalType": "bytes32"
        },
        {
          "name": "account",
          "type": "address",
          "indexed": true,
          "internalType": "address"
        },
        {
          "name": "sender",
          "type": "address",
          "indexed": true,
          "internalType": "address"
        }
      ],
      "anonymous": false
    },
    {
      "type": "error",
      "name": "AccessControlBadConfirmation",
      "inputs": []
    },
    {
      "type": "error",
      "name": "AccessControlUnauthorizedAccount",
      "inputs": [
        {
          "name": "account",
          "type": "address",
          "internalType": "address"
        },
        {
          "name": "neededRole",
          "type": "bytes32",
          "internalType": "bytes32"
        }
      ]
    },
    {
      "type": "error",
      "name": "InvalidInitialization",
      "inputs": []
    },
    {
      "type": "error",
      "name": "Module_OrchestratorCallbackFailed",
      "inputs": [
        {
          "name": "funcSig",
          "type": "string",
          "internalType": "string"
        }
      ]
    },
    {
      "type": "error",
      "name": "Module__Authorizer__AdminRoleCannotBeEmpty",
      "inputs": []
    },
    {
      "type": "error",
      "name": "Module__Authorizer__InvalidInitialAdmin",
      "inputs": []
    },
    {
      "type": "error",
      "name": "Module__Authorizer__ModuleNotSelfManaged",
      "inputs": []
    },
    {
      "type": "error",
      "name": "Module__Authorizer__NotActiveModule",
      "inputs": [
        {
          "name": "module",
          "type": "address",
          "internalType": "address"
        }
      ]
    },
    {
      "type": "error",
      "name": "Module__Authorizer__OrchestratorCannotHaveAdminRole",
      "inputs": []
    },
    {
      "type": "error",
      "name": "Module__CallerNotAuthorized",
      "inputs": [
        {
          "name": "role",
          "type": "bytes32",
          "internalType": "bytes32"
        },
        {
          "name": "caller",
          "type": "address",
          "internalType": "address"
        }
      ]
    },
    {
      "type": "error",
      "name": "Module__InvalidMetadata",
      "inputs": []
    },
    {
      "type": "error",
      "name": "Module__InvalidOrchestratorAddress",
      "inputs": []
    },
    {
      "type": "error",
      "name": "Module__OnlyCallableByOrchestrator",
      "inputs": []
    },
    {
      "type": "error",
      "name": "NotInitializing",
      "inputs": []
    }
  ],
  "bytecode": {
    "object": "0x60a06040523480156200001157600080fd5b5060006080526200002162000027565b620000db565b7ff0c57e16840df040f15088dc2f81fe391c3923bec73e23a9662efc9c229c6a00805468010000000000000000900460ff1615620000785760405163f92ee8a960e01b815260040160405180910390fd5b80546001600160401b0390811614620000d85780546001600160401b0319166001600160401b0390811782556040519081527fc7f505b2f371ae2175ee4913f4499e1f2633a7b5936321eed1cdaeb6115181d29060200160405180910390a15b50565b6080516129c0620000f4600039600050506129c06000f3fe608060405234801561001057600080fd5b50600436106102115760003560e01c80637da0a87711610125578063bcb61920116100ad578063e38a584c1161007c578063e38a584c146104a3578063e99b6e13146104b6578063ee2d0968146104c9578063f3aafa70146104dc578063fdd5205f146104ef57600080fd5b8063bcb6192014610457578063ca15c8731461046a578063d547741f1461047d578063e17881541461049057600080fd5b8063a217fddf116100f4578063a217fddf1461041b578063b3cb199114610423578063b3ecf2361461042c578063b74795d914610433578063ba66f9fc1461044457600080fd5b80637da0a8771461038f5780639010d07c146103af57806391d14854146103c257806399df6ff11461040857600080fd5b80634a79d50c116101a857806361bcd0c41161017757806361bcd0c41461033b578063648154531461034e5780636c67e807146103615780637998a1c4146103745780637d540a641461037c57600080fd5b80634a79d50c146102f057806354fd4d50146103055780635600f04f14610320578063572b6c051461032857600080fd5b80632f2ff15d116101e45780632f2ff15d146102a457806336568abe146102b757806342dfe958146102ca57806349eb42f1146102dd57600080fd5b806301ffc9a714610216578063248a9ca31461023e57806324e302701461027c578063272bbd4414610291575b600080fd5b610229610224366004612300565b610544565b60405190151581526020015b60405180910390f35b61026e61024c36600461232a565b600090815260008051602061296b833981519152602052604090206001015490565b604051908152602001610235565b61028f61028a366004612343565b61056f565b005b61028f61029f366004612343565b610823565b61028f6102b23660046123d7565b6109ff565b61028f6102c53660046123d7565b610a37565b61028f6102d83660046124d3565b610a7f565b61028f6102eb366004612343565b610bc8565b6102f8610c80565b60405161023591906125ff565b60015460025460408051928352602083019190915201610235565b6102f8610d15565b610229610336366004612612565b610d27565b61028f6103493660046123d7565b610d96565b61028f61035c366004612343565b610e13565b61028f61036f3660046123d7565b610f13565b61026e611121565b61028f61038a366004612343565b611271565b610397611352565b6040516001600160a01b039091168152602001610235565b6103976103bd36600461262f565b6113ca565b6102296103d03660046123d7565b600091825260008051602061296b833981519152602090815260408084206001600160a01b0393909316845291905290205460ff1690565b61028f6104163660046123d7565b61140b565b61026e600081565b61026e60001981565b600061026e565b6000546001600160a01b0316610397565b61028f6104523660046123d7565b611439565b61028f6104653660046123d7565b6114ee565b61026e61047836600461232a565b6116d2565b61028f61048b3660046123d7565b611711565b61028f61049e3660046123d7565b611743565b61028f6104b136600461262f565b6117f8565b61028f6104c436600461232a565b61182a565b61028f6104d7366004612343565b611935565b6102296104ea3660046123d7565b611983565b61026e6104fd366004612651565b6040516bffffffffffffffffffffffff19606084901b1660208201526034810182905260009060540160405160208183030381529060405280519060200120905092915050565b60006001600160e01b0319821663aaeccc7560e01b14806105695750610569826119cc565b92915050565b600080546040805163d09edf3160e01b815290518693926001600160a01b03169163d09edf319160048083019260209291908290030181865afa1580156105ba573d6000803e3d6000fd5b505050506040513d601f19601f820116820180604052508101906105de919061267d565b60405163fdd5205f60e01b8152306004820152602481018490526001600160a01b03919091169063fdd5205f906044016020604051808303816000875af115801561062d573d6000803e3d6000fd5b505050506040513d601f19601f82011682018060405250810190610651919061269a565b905061074660008054906101000a90046001600160a01b03166001600160a01b031663d09edf316040518163ffffffff1660e01b8152600401602060405180830381865afa1580156106a7573d6000803e3d6000fd5b505050506040513d601f19601f820116820180604052508101906106cb919061267d565b6001600160a01b031663248a9ca3836040518263ffffffff1660e01b81526004016106f891815260200190565b602060405180830381865afa158015610715573d6000803e3d6000fd5b505050506040513d601f19601f82011682018060405250810190610739919061269a565b610741611a01565b611a0b565b60008054906101000a90046001600160a01b03166001600160a01b031663d09edf316040518163ffffffff1660e01b8152600401602060405180830381865afa158015610797573d6000803e3d6000fd5b505050506040513d601f19601f820116820180604052508101906107bb919061267d565b6001600160a01b0316637d540a648686866040518463ffffffff1660e01b81526004016107ea939291906126b3565b600060405180830381600087803b15801561080457600080fd5b505af1158015610818573d6000803e3d6000fd5b505050505050505050565b600080546040805163d09edf3160e01b815290518693926001600160a01b03169163d09edf319160048083019260209291908290030181865afa15801561086e573d6000803e3d6000fd5b505050506040513d601f19601f82011682018060405250810190610892919061267d565b60405163fdd5205f60e01b8152306004820152602481018490526001600160a01b03919091169063fdd5205f906044016020604051808303816000875af11580156108e1573d6000803e3d6000fd5b505050506040513d601f19601f82011682018060405250810190610905919061269a565b905061095b60008054906101000a90046001600160a01b03166001600160a01b031663d09edf316040518163ffffffff1660e01b8152600401602060405180830381865afa1580156106a7573d6000803e3d6000fd5b60008054906101000a90046001600160a01b03166001600160a01b031663d09edf316040518163ffffffff1660e01b8152600401602060405180830381865afa1580156109ac573d6000803e3d6000fd5b505050506040513d601f19601f820116820180604052508101906109d0919061267d565b6001600160a01b031663648154538686866040518463ffffffff1660e01b81526004016107ea939291906126b3565b600082815260008051602061296b8339815191526020526040902060010154610a2781611b26565b610a318383611b3a565b50505050565b610a3f611a01565b6001600160a01b0316816001600160a01b031614610a705760405163334bd91960e11b815260040160405180910390fd5b610a7a8282611b8c565b505050565b7ff0c57e16840df040f15088dc2f81fe391c3923bec73e23a9662efc9c229c6a00805468010000000000000000810460ff16159067ffffffffffffffff16600081158015610aca5750825b905060008267ffffffffffffffff166001148015610ae75750303b155b905081158015610af5575080155b15610b135760405163f92ee8a960e01b815260040160405180910390fd5b845467ffffffffffffffff191660011785558315610b4757845468ff00000000000000001916680100000000000000001785555b610b518888611bcf565b600086806020019051810190610b67919061267d565b9050610b7281611ced565b508315610bbe57845468ff000000000000000019168555604051600181527fc7f505b2f371ae2175ee4913f4499e1f2633a7b5936321eed1cdaeb6115181d29060200160405180910390a15b5050505050505050565b6000610bd381611b26565b6000610c32610bea6000546001600160a01b031690565b866040516bffffffffffffffffffffffff19606084901b1660208201526034810182905260009060540160405160208183030381529060405280519060200120905092915050565b905060005b83811015610c7857610c6f82868684818110610c5557610c5561270b565b9050602002016020810190610c6a9190612612565b611b8c565b50600101610c37565b505050505050565b606060016003018054610c9290612721565b80601f0160208091040260200160405190810160405280929190818152602001828054610cbe90612721565b8015610d0b5780601f10610ce057610100808354040283529160200191610d0b565b820191906000526020600020905b815481529060010190602001808311610cee57829003601f168201915b5050505050905090565b606060016002018054610c9290612721565b6000805460405163572b6c0560e01b81526001600160a01b0384811660048301529091169063572b6c0590602401602060405180830381865afa158015610d72573d6000803e3d6000fd5b505050506040513d601f19601f82011682018060405250810190610569919061275b565b6000610da181611b26565b6000610e00610db86000546001600160a01b031690565b856040516bffffffffffffffffffffffff19606084901b1660208201526034810182905260009060540160405160208183030381529060405280519060200120905092915050565b9050610e0c8184611b3a565b5050505050565b610e1b611a01565b6000546001600160a01b03166040516342f6e38960e01b81526001600160a01b03838116600483015291909116906342f6e38990602401602060405180830381865afa158015610e6f573d6000803e3d6000fd5b505050506040513d601f19601f82011682018060405250810190610e93919061275b565b610ec057604051635912aaef60e01b81526001600160a01b03821660048201526024015b60405180910390fd5b6000610ecd610bea611a01565b905060005b83811015610c7857610f0a82868684818110610ef057610ef061270b565b9050602002016020810190610f059190612612565b611b3a565b50600101610ed2565b600080546040805163d09edf3160e01b815290518593926001600160a01b03169163d09edf319160048083019260209291908290030181865afa158015610f5e573d6000803e3d6000fd5b505050506040513d601f19601f82011682018060405250810190610f82919061267d565b60405163fdd5205f60e01b8152306004820152602481018490526001600160a01b03919091169063fdd5205f906044016020604051808303816000875af1158015610fd1573d6000803e3d6000fd5b505050506040513d601f19601f82011682018060405250810190610ff5919061269a565b905061104b60008054906101000a90046001600160a01b03166001600160a01b031663d09edf316040518163ffffffff1660e01b8152600401602060405180830381865afa1580156106a7573d6000803e3d6000fd5b60008054906101000a90046001600160a01b03166001600160a01b031663d09edf316040518163ffffffff1660e01b8152600401602060405180830381865afa15801561109c573d6000803e3d6000fd5b505050506040513d601f19601f820116820180604052508101906110c0919061267d565b60405163385e205560e21b8152600481018690526001600160a01b038581166024830152919091169063e1788154906044015b600060405180830381600087803b15801561110d57600080fd5b505af1158015610bbe573d6000803e3d6000fd5b6040805160808101825260018054825260025460208301526003805460009461126c9493929084019161115390612721565b80601f016020809104026020016040519081016040528092919081815260200182805461117f90612721565b80156111cc5780601f106111a1576101008083540402835291602001916111cc565b820191906000526020600020905b8154815290600101906020018083116111af57829003601f168201915b505050505081526020016003820180546111e590612721565b80601f016020809104026020016040519081016040528092919081815260200182805461121190612721565b801561125e5780601f106112335761010080835404028352916020019161125e565b820191906000526020600020905b81548152906001019060200180831161124157829003601f168201915b505050505081525050611d33565b905090565b611279611a01565b6000546001600160a01b03166040516342f6e38960e01b81526001600160a01b03838116600483015291909116906342f6e38990602401602060405180830381865afa1580156112cd573d6000803e3d6000fd5b505050506040513d601f19601f820116820180604052508101906112f1919061275b565b61131957604051635912aaef60e01b81526001600160a01b0382166004820152602401610eb7565b6000611326610bea611a01565b905060005b83811015610c785761134982868684818110610c5557610c5561270b565b5060010161132b565b60008060009054906101000a90046001600160a01b03166001600160a01b0316637da0a8776040518163ffffffff1660e01b8152600401602060405180830381865afa1580156113a6573d6000803e3d6000fd5b505050506040513d601f19601f8201168201806040525081019061126c919061267d565b60008281527fc1f6fe24621ce81ec5827caf0253cadb74709b061630e6b55e823717059320006020819052604082206114039084611d73565b949350505050565b600061141681611b26565b600061142d610db86000546001600160a01b031690565b9050610e0c8184611b8c565b611441611a01565b6000546001600160a01b03166040516342f6e38960e01b81526001600160a01b03838116600483015291909116906342f6e38990602401602060405180830381865afa158015611495573d6000803e3d6000fd5b505050506040513d601f19601f820116820180604052508101906114b9919061275b565b6114e157604051635912aaef60e01b81526001600160a01b0382166004820152602401610eb7565b600061142d610db8611a01565b600080546040805163d09edf3160e01b815290518593926001600160a01b03169163d09edf319160048083019260209291908290030181865afa158015611539573d6000803e3d6000fd5b505050506040513d601f19601f8201168201806040525081019061155d919061267d565b60405163fdd5205f60e01b8152306004820152602481018490526001600160a01b03919091169063fdd5205f906044016020604051808303816000875af11580156115ac573d6000803e3d6000fd5b505050506040513d601f19601f820116820180604052508101906115d0919061269a565b905061162660008054906101000a90046001600160a01b03166001600160a01b031663d09edf316040518163ffffffff1660e01b8152600401602060405180830381865afa1580156106a7573d6000803e3d6000fd5b60008054906101000a90046001600160a01b03166001600160a01b031663d09edf316040518163ffffffff1660e01b8152600401602060405180830381865afa158015611677573d6000803e3d6000fd5b505050506040513d601f19601f8201168201806040525081019061169b919061267d565b604051632e99be7f60e21b8152600481018690526001600160a01b038581166024830152919091169063ba66f9fc906044016110f3565b60008181527fc1f6fe24621ce81ec5827caf0253cadb74709b061630e6b55e8237170593200060208190526040822061170a90611d7f565b9392505050565b600082815260008051602061296b833981519152602052604090206001015461173981611b26565b610a318383611b8c565b61174b611a01565b6000546001600160a01b03166040516342f6e38960e01b81526001600160a01b03838116600483015291909116906342f6e38990602401602060405180830381865afa15801561179f573d6000803e3d6000fd5b505050506040513d601f19601f820116820180604052508101906117c3919061275b565b6117eb57604051635912aaef60e01b81526001600160a01b0382166004820152602401610eb7565b6000610e00610db8611a01565b600082815260008051602061296b833981519152602052604090206001015461182081611b26565b610a7a8383611d89565b611832611a01565b6000546001600160a01b03166040516342f6e38960e01b81526001600160a01b03838116600483015291909116906342f6e38990602401602060405180830381865afa158015611886573d6000803e3d6000fd5b505050506040513d601f19601f820116820180604052508101906118aa919061275b565b6118d257604051635912aaef60e01b81526001600160a01b0382166004820152602401610eb7565b60006119276118df611a01565b846040516bffffffffffffffffffffffff19606084901b1660208201526034810182905260009060540160405160208183030381529060405280519060200120905092915050565b9050610a7a81600019611d89565b600061194081611b26565b6000611957610bea6000546001600160a01b031690565b905060005b83811015610c785761197a82868684818110610ef057610ef061270b565b5060010161195c565b600080611991610db8611a01565b600081815260008051602061296b833981519152602090815260408083206001600160a01b038816845290915290205490915060ff16611403565b60006001600160e01b0319821663179dfb4560e01b148061056957506301ffc9a760e01b6001600160e01b0319831614610569565b600061126c611e09565b60008054906101000a90046001600160a01b03166001600160a01b031663d09edf316040518163ffffffff1660e01b8152600401602060405180830381865afa158015611a5c573d6000803e3d6000fd5b505050506040513d601f19601f82011682018060405250810190611a80919061267d565b604051632474521560e21b8152600481018490526001600160a01b03838116602483015291909116906391d1485490604401602060405180830381865afa158015611acf573d6000803e3d6000fd5b505050506040513d601f19601f82011682018060405250810190611af3919061275b565b611b22576040516342abbb7760e01b8152600481018390526001600160a01b0382166024820152604401610eb7565b5050565b611b3781611b32611a01565b611e5b565b50565b6000828281158015611b5957506000546001600160a01b038281169116145b15611b7757604051634701683560e11b815260040160405180910390fd5b611b818585611ebd565b92505b505092915050565b60008280158015611ba757506001611ba460006116d2565b11155b15611bc55760405163d1ed446560e01b815260040160405180910390fd5b6114038484611f14565b611bd7611f62565b6001600160a01b038216611bfe57604051637280679360e01b815260040160405180910390fd5b6000805473ffffffffffffffffffffffffffffffffffffffff19166001600160a01b038416179055611c2f81611fb2565b611c4c57604051637511254160e01b815260040160405180910390fd5b8051600190815560208201516002556040820151829190600390611c7090826127c5565b5060608201516003820190611c8590826127c5565b5050506060810151604051611c9a9190612885565b604080519182900382208351602080860151918552840152916001600160a01b038516917feb175f148a71d29a5f7bf5439182fcd81e6ea9cfc8a11b54ab0f705fa98fa8ca910160405180910390a35050565b611cf5611f62565b6001600160a01b038116611d1c57604051635b784de560e01b815260040160405180910390fd5b611d2860001980611d89565b611b22600082611b3a565b6000816000015182604001518360600151604051602001611d56939291906128a1565b604051602081830303815290604052805190602001209050919050565b600061170a8383612004565b6000610569825490565b60008051602061296b8339815191526000611dc084600090815260008051602061296b833981519152602052604090206001015490565b600085815260208490526040808220600101869055519192508491839187917fbd79b86ffe0ab8e8776151514217cd7cacd52c909f66475c3af44e129f0b00ff9190a450505050565b6000366014611e1733610d27565b8015611e235750808210155b15611e5357600036611e3583856128d6565b611e409282906128f7565b611e4991612921565b60601c9250505090565b339250505090565b600082815260008051602061296b833981519152602090815260408083206001600160a01b038516845290915290205460ff16611b225760405163e2517d3f60e01b81526001600160a01b038216600482015260248101839052604401610eb7565b60007fc1f6fe24621ce81ec5827caf0253cadb74709b061630e6b55e8237170593200081611eeb858561202e565b90508015611403576000858152602083905260409020611f0b90856120ec565b50949350505050565b60007fc1f6fe24621ce81ec5827caf0253cadb74709b061630e6b55e8237170593200081611f428585612101565b90508015611403576000858152602083905260409020611f0b90856121b3565b7ff0c57e16840df040f15088dc2f81fe391c3923bec73e23a9662efc9c229c6a005468010000000000000000900460ff16611fb057604051631afcd79f60e31b815260040160405180910390fd5b565b6000816040015151600003611fc957506000919050565b816060015151600003611fde57506000919050565b8151158015611fef57506020820151155b15611ffc57506000919050565b506001919050565b600082600001828154811061201b5761201b61270b565b9060005260206000200154905092915050565b600082815260008051602061296b833981519152602081815260408084206001600160a01b038616855290915282205460ff166120e2576000848152602082815260408083206001600160a01b03871684529091529020805460ff19166001179055612098611a01565b6001600160a01b0316836001600160a01b0316857f2f8788117e7eff1d82e926ec794901d17c78024a50270940304540a733656f0d60405160405180910390a46001915050610569565b6000915050610569565b600061170a836001600160a01b0384166121c8565b600082815260008051602061296b833981519152602081815260408084206001600160a01b038616855290915282205460ff16156120e2576000848152602082815260408083206001600160a01b03871684529091529020805460ff19169055612169611a01565b6001600160a01b0316836001600160a01b0316857ff6391f5c32d9c69d2a47ea670b442974b53935d1edc7fd64eb21e047a839171b60405160405180910390a46001915050610569565b600061170a836001600160a01b038416612217565b600081815260018301602052604081205461220f57508154600181810184556000848152602080822090930184905584548482528286019093526040902091909155610569565b506000610569565b600081815260018301602052604081205480156120e257600061223b6001836128d6565b855490915060009061224f906001906128d6565b90508082146122b457600086600001828154811061226f5761226f61270b565b90600052602060002001549050808760000184815481106122925761229261270b565b6000918252602080832090910192909255918252600188019052604090208390555b85548690806122c5576122c5612954565b600190038181906000526020600020016000905590558560010160008681526020019081526020016000206000905560019350505050610569565b60006020828403121561231257600080fd5b81356001600160e01b03198116811461170a57600080fd5b60006020828403121561233c57600080fd5b5035919050565b60008060006040848603121561235857600080fd5b83359250602084013567ffffffffffffffff8082111561237757600080fd5b818601915086601f83011261238b57600080fd5b81358181111561239a57600080fd5b8760208260051b85010111156123af57600080fd5b6020830194508093505050509250925092565b6001600160a01b0381168114611b3757600080fd5b600080604083850312156123ea57600080fd5b8235915060208301356123fc816123c2565b809150509250929050565b634e487b7160e01b600052604160045260246000fd5b6040516080810167ffffffffffffffff8111828210171561244057612440612407565b60405290565b600082601f83011261245757600080fd5b813567ffffffffffffffff8082111561247257612472612407565b604051601f8301601f19908116603f0116810190828211818310171561249a5761249a612407565b816040528381528660208588010111156124b357600080fd5b836020870160208301376000602085830101528094505050505092915050565b6000806000606084860312156124e857600080fd5b83356124f3816123c2565b9250602084013567ffffffffffffffff8082111561251057600080fd5b908501906080828803121561252457600080fd5b61252c61241d565b823581526020830135602082015260408301358281111561254c57600080fd5b61255889828601612446565b60408301525060608301358281111561257057600080fd5b61257c89828601612446565b6060830152509350604086013591508082111561259857600080fd5b506125a586828701612446565b9150509250925092565b60005b838110156125ca5781810151838201526020016125b2565b50506000910152565b600081518084526125eb8160208601602086016125af565b601f01601f19169290920160200192915050565b60208152600061170a60208301846125d3565b60006020828403121561262457600080fd5b813561170a816123c2565b6000806040838503121561264257600080fd5b50508035926020909101359150565b6000806040838503121561266457600080fd5b823561266f816123c2565b946020939093013593505050565b60006020828403121561268f57600080fd5b815161170a816123c2565b6000602082840312156126ac57600080fd5b5051919050565b83815260406020808301829052908201839052600090849060608401835b868110156126ff5783356126e4816123c2565b6001600160a01b0316825292820192908201906001016126d1565b50979650505050505050565b634e487b7160e01b600052603260045260246000fd5b600181811c9082168061273557607f821691505b60208210810361275557634e487b7160e01b600052602260045260246000fd5b50919050565b60006020828403121561276d57600080fd5b8151801515811461170a57600080fd5b601f821115610a7a576000816000526020600020601f850160051c810160208610156127a65750805b601f850160051c820191505b81811015610c78578281556001016127b2565b815167ffffffffffffffff8111156127df576127df612407565b6127f3816127ed8454612721565b8461277d565b602080601f83116001811461282857600084156128105750858301515b600019600386901b1c1916600185901b178555610c78565b600085815260208120601f198616915b8281101561285757888601518255948401946001909101908401612838565b50858210156128755787850151600019600388901b60f8161c191681555b5050505050600190811b01905550565b600082516128978184602087016125af565b9190910192915050565b8381526060602082015260006128ba60608301856125d3565b82810360408401526128cc81856125d3565b9695505050505050565b8181038181111561056957634e487b7160e01b600052601160045260246000fd5b6000808585111561290757600080fd5b8386111561291457600080fd5b5050820193919092039150565b6bffffffffffffffffffffffff198135818116916014851015611b845760149490940360031b84901b1690921692915050565b634e487b7160e01b600052603160045260246000fdfe02dd7bc7dec4dceedda775e58dd541e08a116c6c53815c0bd028192f7b626800a2646970667358221220a489fb166518867f57ba56eac2df5accd4feeb9c62e4918fb277bae325eebb8f64736f6c63430008170033",
    "linkReferences": {}
  },
  "methodIdentifiers": {
    "BURN_ADMIN_ROLE()": "b3cb1991",
    "DEFAULT_ADMIN_ROLE()": "a217fddf",
    "burnAdminFromModuleRole(bytes32)": "e99b6e13",
    "generateRoleId(address,bytes32)": "fdd5205f",
    "getAdminRole()": "b3ecf236",
    "getRoleAdmin(bytes32)": "248a9ca3",
    "getRoleMember(bytes32,uint256)": "9010d07c",
    "getRoleMemberCount(bytes32)": "ca15c873",
    "grantGlobalRole(bytes32,address)": "61bcd0c4",
    "grantGlobalRoleBatched(bytes32,address[])": "ee2d0968",
    "grantModuleRole(bytes32,address)": "6c67e807",
    "grantModuleRoleBatched(bytes32,address[])": "272bbd44",
    "grantRole(bytes32,address)": "2f2ff15d",
    "grantRoleFromModule(bytes32,address)": "e1788154",
    "grantRoleFromModuleBatched(bytes32,address[])": "64815453",
    "hasModuleRole(bytes32,address)": "f3aafa70",
    "hasRole(bytes32,address)": "91d14854",
    "identifier()": "7998a1c4",
    "init(address,(uint256,uint256,string,string),bytes)": "42dfe958",
    "isTrustedForwarder(address)": "572b6c05",
    "orchestrator()": "b74795d9",
    "renounceRole(bytes32,address)": "36568abe",
    "revokeGlobalRole(bytes32,address)": "99df6ff1",
    "revokeGlobalRoleBatched(bytes32,address[])": "49eb42f1",
    "revokeModuleRole(bytes32,address)": "bcb61920",
    "revokeModuleRoleBatched(bytes32,address[])": "24e30270",
    "revokeRole(bytes32,address)": "d547741f",
    "revokeRoleFromModule(bytes32,address)": "ba66f9fc",
    "revokeRoleFromModuleBatched(bytes32,address[])": "7d540a64",
    "supportsInterface(bytes4)": "01ffc9a7",
    "title()": "4a79d50c",
    "transferAdminRole(bytes32,bytes32)": "e38a584c",
    "trustedForwarder()": "7da0a877",
    "url()": "5600f04f",
    "version()": "54fd4d50"
  },
  "id": 111
}