{
  "abi": [
    {
      "type": "function",
      "name": "BURN_ADMIN_ROLE",
      "inputs": [],
      "outputs": [
        {
          "name": "",
          "type": "bytes32",
          "internalType": "bytes32"
        }
      ],
      "stateMutability": "view"
    },
    {
      "type": "function",
      "name": "DEFAULT_ADMIN_ROLE",
      "inputs": [],
      "outputs": [
        {
          "name": "",
          "type": "bytes32",
          "internalType": "bytes32"
        }
      ],
      "stateMutability": "view"
    },
    {
      "type": "function",
      "name": "burnAdminFromModuleRole",
      "inputs": [
        {
          "name": "role",
          "type": "bytes32",
          "internalType": "bytes32"
        }
      ],
      "outputs": [],
      "stateMutability": "nonpayable"
    },
    {
      "type": "function",
      "name": "checkForRole",
      "inputs": [
        {
          "name": "role",
          "type": "bytes32",
          "internalType": "bytes32"
        },
        {
          "name": "who",
          "type": "address",
          "internalType": "address"
        }
      ],
      "outputs": [
        {
          "name": "",
          "type": "bool",
          "internalType": "bool"
        }
      ],
      "stateMutability": "view"
    },
    {
      "type": "function",
      "name": "generateRoleId",
      "inputs": [
        {
          "name": "module",
          "type": "address",
          "internalType": "address"
        },
        {
          "name": "role",
          "type": "bytes32",
          "internalType": "bytes32"
        }
      ],
      "outputs": [
        {
          "name": "",
          "type": "bytes32",
          "internalType": "bytes32"
        }
      ],
      "stateMutability": "pure"
    },
    {
      "type": "function",
      "name": "getAdminRole",
      "inputs": [],
      "outputs": [
        {
          "name": "",
          "type": "bytes32",
          "internalType": "bytes32"
        }
      ],
      "stateMutability": "pure"
    },
    {
      "type": "function",
      "name": "getRoleAdmin",
      "inputs": [
        {
          "name": "role",
          "type": "bytes32",
          "internalType": "bytes32"
        }
      ],
      "outputs": [
        {
          "name": "",
          "type": "bytes32",
          "internalType": "bytes32"
        }
      ],
      "stateMutability": "view"
    },
    {
      "type": "function",
      "name": "getRoleMember",
      "inputs": [
        {
          "name": "role",
          "type": "bytes32",
          "internalType": "bytes32"
        },
        {
          "name": "index",
          "type": "uint256",
          "internalType": "uint256"
        }
      ],
      "outputs": [
        {
          "name": "",
          "type": "address",
          "internalType": "address"
        }
      ],
      "stateMutability": "view"
    },
    {
      "type": "function",
      "name": "getRoleMemberCount",
      "inputs": [
        {
          "name": "role",
          "type": "bytes32",
          "internalType": "bytes32"
        }
      ],
      "outputs": [
        {
          "name": "",
          "type": "uint256",
          "internalType": "uint256"
        }
      ],
      "stateMutability": "view"
    },
    {
      "type": "function",
      "name": "grantGlobalRole",
      "inputs": [
        {
          "name": "role",
          "type": "bytes32",
          "internalType": "bytes32"
        },
        {
          "name": "target",
          "type": "address",
          "internalType": "address"
        }
      ],
      "outputs": [],
      "stateMutability": "nonpayable"
    },
    {
      "type": "function",
      "name": "grantGlobalRoleBatched",
      "inputs": [
        {
          "name": "role",
          "type": "bytes32",
          "internalType": "bytes32"
        },
        {
          "name": "targets",
          "type": "address[]",
          "internalType": "address[]"
        }
      ],
      "outputs": [],
      "stateMutability": "nonpayable"
    },
    {
      "type": "function",
      "name": "grantModuleRole",
      "inputs": [
        {
          "name": "role",
          "type": "bytes32",
          "internalType": "bytes32"
        },
        {
          "name": "target",
          "type": "address",
          "internalType": "address"
        }
      ],
      "outputs": [],
      "stateMutability": "nonpayable"
    },
    {
      "type": "function",
      "name": "grantModuleRoleBatched",
      "inputs": [
        {
          "name": "role",
          "type": "bytes32",
          "internalType": "bytes32"
        },
        {
          "name": "targets",
          "type": "address[]",
          "internalType": "address[]"
        }
      ],
      "outputs": [],
      "stateMutability": "nonpayable"
    },
    {
      "type": "function",
      "name": "grantRole",
      "inputs": [
        {
          "name": "role",
          "type": "bytes32",
          "internalType": "bytes32"
        },
        {
          "name": "account",
          "type": "address",
          "internalType": "address"
        }
      ],
      "outputs": [],
      "stateMutability": "nonpayable"
    },
    {
      "type": "function",
      "name": "grantRoleFromModule",
      "inputs": [
        {
          "name": "role",
          "type": "bytes32",
          "internalType": "bytes32"
        },
        {
          "name": "target",
          "type": "address",
          "internalType": "address"
        }
      ],
      "outputs": [],
      "stateMutability": "nonpayable"
    },
    {
      "type": "function",
      "name": "grantRoleFromModuleBatched",
      "inputs": [
        {
          "name": "role",
          "type": "bytes32",
          "internalType": "bytes32"
        },
        {
          "name": "targets",
          "type": "address[]",
          "internalType": "address[]"
        }
      ],
      "outputs": [],
      "stateMutability": "nonpayable"
    },
    {
      "type": "function",
      "name": "hasRole",
      "inputs": [
        {
          "name": "role",
          "type": "bytes32",
          "internalType": "bytes32"
        },
        {
          "name": "account",
          "type": "address",
          "internalType": "address"
        }
      ],
      "outputs": [
        {
          "name": "",
          "type": "bool",
          "internalType": "bool"
        }
      ],
      "stateMutability": "view"
    },
    {
      "type": "function",
      "name": "identifier",
      "inputs": [],
      "outputs": [
        {
          "name": "",
          "type": "bytes32",
          "internalType": "bytes32"
        }
      ],
      "stateMutability": "view"
    },
    {
      "type": "function",
      "name": "init",
      "inputs": [
        {
          "name": "orchestrator_",
          "type": "address",
          "internalType": "contract IOrchestrator_v1"
        },
        {
          "name": "metadata",
          "type": "tuple",
          "internalType": "struct IModule_v1.Metadata",
          "components": [
            {
              "name": "majorVersion",
              "type": "uint256",
              "internalType": "uint256"
            },
            {
              "name": "minorVersion",
              "type": "uint256",
              "internalType": "uint256"
            },
            {
              "name": "patchVersion",
              "type": "uint256",
              "internalType": "uint256"
            },
            {
              "name": "url",
              "type": "string",
              "internalType": "string"
            },
            {
              "name": "title",
              "type": "string",
              "internalType": "string"
            }
          ]
        },
        {
          "name": "configData",
          "type": "bytes",
          "internalType": "bytes"
        }
      ],
      "outputs": [],
      "stateMutability": "nonpayable"
    },
    {
      "type": "function",
      "name": "isTrustedForwarder",
      "inputs": [
        {
          "name": "forwarder",
          "type": "address",
          "internalType": "address"
        }
      ],
      "outputs": [
        {
          "name": "",
          "type": "bool",
          "internalType": "bool"
        }
      ],
      "stateMutability": "view"
    },
    {
      "type": "function",
      "name": "orchestrator",
      "inputs": [],
      "outputs": [
        {
          "name": "",
          "type": "address",
          "internalType": "contract IOrchestrator_v1"
        }
      ],
      "stateMutability": "view"
    },
    {
      "type": "function",
      "name": "renounceRole",
      "inputs": [
        {
          "name": "role",
          "type": "bytes32",
          "internalType": "bytes32"
        },
        {
          "name": "callerConfirmation",
          "type": "address",
          "internalType": "address"
        }
      ],
      "outputs": [],
      "stateMutability": "nonpayable"
    },
    {
      "type": "function",
      "name": "revokeGlobalRole",
      "inputs": [
        {
          "name": "role",
          "type": "bytes32",
          "internalType": "bytes32"
        },
        {
          "name": "target",
          "type": "address",
          "internalType": "address"
        }
      ],
      "outputs": [],
      "stateMutability": "nonpayable"
    },
    {
      "type": "function",
      "name": "revokeGlobalRoleBatched",
      "inputs": [
        {
          "name": "role",
          "type": "bytes32",
          "internalType": "bytes32"
        },
        {
          "name": "targets",
          "type": "address[]",
          "internalType": "address[]"
        }
      ],
      "outputs": [],
      "stateMutability": "nonpayable"
    },
    {
      "type": "function",
      "name": "revokeModuleRole",
      "inputs": [
        {
          "name": "role",
          "type": "bytes32",
          "internalType": "bytes32"
        },
        {
          "name": "target",
          "type": "address",
          "internalType": "address"
        }
      ],
      "outputs": [],
      "stateMutability": "nonpayable"
    },
    {
      "type": "function",
      "name": "revokeModuleRoleBatched",
      "inputs": [
        {
          "name": "role",
          "type": "bytes32",
          "internalType": "bytes32"
        },
        {
          "name": "targets",
          "type": "address[]",
          "internalType": "address[]"
        }
      ],
      "outputs": [],
      "stateMutability": "nonpayable"
    },
    {
      "type": "function",
      "name": "revokeRole",
      "inputs": [
        {
          "name": "role",
          "type": "bytes32",
          "internalType": "bytes32"
        },
        {
          "name": "account",
          "type": "address",
          "internalType": "address"
        }
      ],
      "outputs": [],
      "stateMutability": "nonpayable"
    },
    {
      "type": "function",
      "name": "revokeRoleFromModule",
      "inputs": [
        {
          "name": "role",
          "type": "bytes32",
          "internalType": "bytes32"
        },
        {
          "name": "target",
          "type": "address",
          "internalType": "address"
        }
      ],
      "outputs": [],
      "stateMutability": "nonpayable"
    },
    {
      "type": "function",
      "name": "revokeRoleFromModuleBatched",
      "inputs": [
        {
          "name": "role",
          "type": "bytes32",
          "internalType": "bytes32"
        },
        {
          "name": "targets",
          "type": "address[]",
          "internalType": "address[]"
        }
      ],
      "outputs": [],
      "stateMutability": "nonpayable"
    },
    {
      "type": "function",
      "name": "supportsInterface",
      "inputs": [
        {
          "name": "interfaceId",
          "type": "bytes4",
          "internalType": "bytes4"
        }
      ],
      "outputs": [
        {
          "name": "",
          "type": "bool",
          "internalType": "bool"
        }
      ],
      "stateMutability": "view"
    },
    {
      "type": "function",
      "name": "title",
      "inputs": [],
      "outputs": [
        {
          "name": "",
          "type": "string",
          "internalType": "string"
        }
      ],
      "stateMutability": "view"
    },
    {
      "type": "function",
      "name": "transferAdminRole",
      "inputs": [
        {
          "name": "roleId",
          "type": "bytes32",
          "internalType": "bytes32"
        },
        {
          "name": "newAdmin",
          "type": "bytes32",
          "internalType": "bytes32"
        }
      ],
      "outputs": [],
      "stateMutability": "nonpayable"
    },
    {
      "type": "function",
      "name": "trustedForwarder",
      "inputs": [],
      "outputs": [
        {
          "name": "",
          "type": "address",
          "internalType": "address"
        }
      ],
      "stateMutability": "view"
    },
    {
      "type": "function",
      "name": "url",
      "inputs": [],
      "outputs": [
        {
          "name": "",
          "type": "string",
          "internalType": "string"
        }
      ],
      "stateMutability": "view"
    },
    {
      "type": "function",
      "name": "version",
      "inputs": [],
      "outputs": [
        {
          "name": "",
          "type": "uint256",
          "internalType": "uint256"
        },
        {
          "name": "",
          "type": "uint256",
          "internalType": "uint256"
        },
        {
          "name": "",
          "type": "uint256",
          "internalType": "uint256"
        }
      ],
      "stateMutability": "view"
    },
    {
      "type": "event",
      "name": "Initialized",
      "inputs": [
        {
          "name": "version",
          "type": "uint64",
          "indexed": false,
          "internalType": "uint64"
        }
      ],
      "anonymous": false
    },
    {
      "type": "event",
      "name": "ModuleInitialized",
      "inputs": [
        {
          "name": "parentOrchestrator",
          "type": "address",
          "indexed": true,
          "internalType": "address"
        },
        {
          "name": "metadata",
          "type": "tuple",
          "indexed": false,
          "internalType": "struct IModule_v1.Metadata",
          "components": [
            {
              "name": "majorVersion",
              "type": "uint256",
              "internalType": "uint256"
            },
            {
              "name": "minorVersion",
              "type": "uint256",
              "internalType": "uint256"
            },
            {
              "name": "patchVersion",
              "type": "uint256",
              "internalType": "uint256"
            },
            {
              "name": "url",
              "type": "string",
              "internalType": "string"
            },
            {
              "name": "title",
              "type": "string",
              "internalType": "string"
            }
          ]
        }
      ],
      "anonymous": false
    },
    {
      "type": "event",
      "name": "RoleAdminChanged",
      "inputs": [
        {
          "name": "role",
          "type": "bytes32",
          "indexed": true,
          "internalType": "bytes32"
        },
        {
          "name": "previousAdminRole",
          "type": "bytes32",
          "indexed": true,
          "internalType": "bytes32"
        },
        {
          "name": "newAdminRole",
          "type": "bytes32",
          "indexed": true,
          "internalType": "bytes32"
        }
      ],
      "anonymous": false
    },
    {
      "type": "event",
      "name": "RoleGranted",
      "inputs": [
        {
          "name": "role",
          "type": "bytes32",
          "indexed": true,
          "internalType": "bytes32"
        },
        {
          "name": "account",
          "type": "address",
          "indexed": true,
          "internalType": "address"
        },
        {
          "name": "sender",
          "type": "address",
          "indexed": true,
          "internalType": "address"
        }
      ],
      "anonymous": false
    },
    {
      "type": "event",
      "name": "RoleRevoked",
      "inputs": [
        {
          "name": "role",
          "type": "bytes32",
          "indexed": true,
          "internalType": "bytes32"
        },
        {
          "name": "account",
          "type": "address",
          "indexed": true,
          "internalType": "address"
        },
        {
          "name": "sender",
          "type": "address",
          "indexed": true,
          "internalType": "address"
        }
      ],
      "anonymous": false
    },
    {
      "type": "error",
      "name": "AccessControlBadConfirmation",
      "inputs": []
    },
    {
      "type": "error",
      "name": "AccessControlUnauthorizedAccount",
      "inputs": [
        {
          "name": "account",
          "type": "address",
          "internalType": "address"
        },
        {
          "name": "neededRole",
          "type": "bytes32",
          "internalType": "bytes32"
        }
      ]
    },
    {
      "type": "error",
      "name": "InvalidInitialization",
      "inputs": []
    },
    {
      "type": "error",
      "name": "Module_OrchestratorCallbackFailed",
      "inputs": [
        {
          "name": "funcSig",
          "type": "string",
          "internalType": "string"
        }
      ]
    },
    {
      "type": "error",
      "name": "Module__Authorizer__AdminRoleCannotBeEmpty",
      "inputs": []
    },
    {
      "type": "error",
      "name": "Module__Authorizer__InvalidInitialAdmin",
      "inputs": []
    },
    {
      "type": "error",
      "name": "Module__Authorizer__ModuleNotSelfManaged",
      "inputs": []
    },
    {
      "type": "error",
      "name": "Module__Authorizer__NotActiveModule",
      "inputs": [
        {
          "name": "module",
          "type": "address",
          "internalType": "address"
        }
      ]
    },
    {
      "type": "error",
      "name": "Module__Authorizer__OrchestratorCannotHaveAdminRole",
      "inputs": []
    },
    {
      "type": "error",
      "name": "Module__CallerNotAuthorized",
      "inputs": [
        {
          "name": "role",
          "type": "bytes32",
          "internalType": "bytes32"
        },
        {
          "name": "caller",
          "type": "address",
          "internalType": "address"
        }
      ]
    },
    {
      "type": "error",
      "name": "Module__InvalidAddress",
      "inputs": []
    },
    {
      "type": "error",
      "name": "Module__InvalidMetadata",
      "inputs": []
    },
    {
      "type": "error",
      "name": "Module__InvalidOrchestratorAddress",
      "inputs": []
    },
    {
      "type": "error",
      "name": "Module__OnlyCallableByOrchestrator",
      "inputs": []
    },
    {
      "type": "error",
      "name": "Module__OnlyCallableByPaymentClient",
      "inputs": []
    },
    {
      "type": "error",
      "name": "NotInitializing",
      "inputs": []
    }
  ],
  "bytecode": {
    "object": "0x60a06040523480156200001157600080fd5b5060006080526200002162000027565b620000db565b7ff0c57e16840df040f15088dc2f81fe391c3923bec73e23a9662efc9c229c6a00805468010000000000000000900460ff1615620000785760405163f92ee8a960e01b815260040160405180910390fd5b80546001600160401b0390811614620000d85780546001600160401b0319166001600160401b0390811782556040519081527fc7f505b2f371ae2175ee4913f4499e1f2633a7b5936321eed1cdaeb6115181d29060200160405180910390a15b50565b608051612a7a620000f460003960005050612a7a6000f3fe608060405234801561001057600080fd5b50600436106102415760003560e01c80639010d07c11610145578063ba66f9fc116100bd578063e17881541161008c578063e99b6e1311610071578063e99b6e1314610502578063ee2d096814610515578063fdd5205f1461052857600080fd5b8063e1788154146104dc578063e38a584c146104ef57600080fd5b8063ba66f9fc14610490578063bcb61920146104a3578063ca15c873146104b6578063d547741f146104c957600080fd5b8063a883867d11610114578063b3ecf236116100f9578063b3ecf23614610465578063b66a870c1461046c578063b74795d91461047f57600080fd5b8063a883867d14610449578063b3cb19911461045c57600080fd5b80639010d07c146103d557806391d14854146103e857806399df6ff11461042e578063a217fddf1461044157600080fd5b806354fd4d50116101d857806364815453116101a75780637998a1c41161018c5780637998a1c41461039a5780637d540a64146103a25780637da0a877146103b557600080fd5b806364815453146103745780636c67e8071461038757600080fd5b806354fd4d50146103225780635600f04f14610346578063572b6c051461034e57806361bcd0c41461036157600080fd5b80632f2ff15d116102145780632f2ff15d146102d457806336568abe146102e757806349eb42f1146102fa5780634a79d50c1461030d57600080fd5b806301ffc9a714610246578063248a9ca31461026e57806324e30270146102ac578063272bbd44146102c1575b600080fd5b61025961025436600461237f565b61057d565b60405190151581526020015b60405180910390f35b61029e61027c3660046123a9565b6000908152600080516020612a25833981519152602052604090206001015490565b604051908152602001610265565b6102bf6102ba3660046123c2565b6105a8565b005b6102bf6102cf3660046123c2565b61085a565b6102bf6102e2366004612456565b610a34565b6102bf6102f5366004612456565b610a6c565b6102bf6103083660046123c2565b610ab4565b610315610b6c565b60405161026591906124cc565b60015460025460035460408051938452602084019290925290820152606001610265565b610315610c01565b61025961035c3660046124df565b610c13565b6102bf61036f366004612456565b610c82565b6102bf6103823660046123c2565b610cff565b6102bf610395366004612456565b610dff565b61029e611015565b6102bf6103b03660046123c2565b611173565b6103bd611254565b6040516001600160a01b039091168152602001610265565b6103bd6103e33660046124fc565b6112cc565b6102596103f6366004612456565b6000918252600080516020612a25833981519152602090815260408084206001600160a01b0393909316845291905290205460ff1690565b6102bf61043c366004612456565b61130d565b61029e600081565b610259610457366004612456565b61133b565b61029e60001981565b600061029e565b6102bf61047a3660046125ea565b611376565b6000546001600160a01b03166103bd565b6102bf61049e366004612456565b6114be565b6102bf6104b1366004612456565b611573565b61029e6104c43660046123a9565b611755565b6102bf6104d7366004612456565b61178d565b6102bf6104ea366004612456565b6117bf565b6102bf6104fd3660046124fc565b611874565b6102bf6105103660046123a9565b6118a6565b6102bf6105233660046123c2565b6119b1565b61029e6105363660046126d0565b6040516bffffffffffffffffffffffff19606084901b1660208201526034810182905260009060540160405160208183030381529060405280519060200120905092915050565b60006001600160e01b03198216631e38b60f60e31b14806105a257506105a2826119ff565b92915050565b600080546040805163d09edf3160e01b815290518693926001600160a01b03169163d09edf319160048083019260209291908290030181865afa1580156105f3573d6000803e3d6000fd5b505050506040513d601f19601f8201168201806040525081019061061791906126fc565b60405163fdd5205f60e01b8152306004820152602481018490526001600160a01b03919091169063fdd5205f90604401602060405180830381865afa158015610664573d6000803e3d6000fd5b505050506040513d601f19601f820116820180604052508101906106889190612719565b905061077d60008054906101000a90046001600160a01b03166001600160a01b031663d09edf316040518163ffffffff1660e01b8152600401602060405180830381865afa1580156106de573d6000803e3d6000fd5b505050506040513d601f19601f8201168201806040525081019061070291906126fc565b6001600160a01b031663248a9ca3836040518263ffffffff1660e01b815260040161072f91815260200190565b602060405180830381865afa15801561074c573d6000803e3d6000fd5b505050506040513d601f19601f820116820180604052508101906107709190612719565b610778611a24565b611a2e565b60008054906101000a90046001600160a01b03166001600160a01b031663d09edf316040518163ffffffff1660e01b8152600401602060405180830381865afa1580156107ce573d6000803e3d6000fd5b505050506040513d601f19601f820116820180604052508101906107f291906126fc565b6001600160a01b0316637d540a648686866040518463ffffffff1660e01b815260040161082193929190612732565b600060405180830381600087803b15801561083b57600080fd5b505af115801561084f573d6000803e3d6000fd5b505050505050505050565b600080546040805163d09edf3160e01b815290518693926001600160a01b03169163d09edf319160048083019260209291908290030181865afa1580156108a5573d6000803e3d6000fd5b505050506040513d601f19601f820116820180604052508101906108c991906126fc565b60405163fdd5205f60e01b8152306004820152602481018490526001600160a01b03919091169063fdd5205f90604401602060405180830381865afa158015610916573d6000803e3d6000fd5b505050506040513d601f19601f8201168201806040525081019061093a9190612719565b905061099060008054906101000a90046001600160a01b03166001600160a01b031663d09edf316040518163ffffffff1660e01b8152600401602060405180830381865afa1580156106de573d6000803e3d6000fd5b60008054906101000a90046001600160a01b03166001600160a01b031663d09edf316040518163ffffffff1660e01b8152600401602060405180830381865afa1580156109e1573d6000803e3d6000fd5b505050506040513d601f19601f82011682018060405250810190610a0591906126fc565b6001600160a01b031663648154538686866040518463ffffffff1660e01b815260040161082193929190612732565b6000828152600080516020612a258339815191526020526040902060010154610a5c81611b49565b610a668383611b5d565b50505050565b610a74611a24565b6001600160a01b0316816001600160a01b031614610aa55760405163334bd91960e11b815260040160405180910390fd5b610aaf8282611baf565b505050565b6000610abf81611b49565b6000610b1e610ad66000546001600160a01b031690565b866040516bffffffffffffffffffffffff19606084901b1660208201526034810182905260009060540160405160208183030381529060405280519060200120905092915050565b905060005b83811015610b6457610b5b82868684818110610b4157610b4161278a565b9050602002016020810190610b5691906124df565b611baf565b50600101610b23565b505050505050565b606060016004018054610b7e906127a0565b80601f0160208091040260200160405190810160405280929190818152602001828054610baa906127a0565b8015610bf75780601f10610bcc57610100808354040283529160200191610bf7565b820191906000526020600020905b815481529060010190602001808311610bda57829003601f168201915b5050505050905090565b606060016003018054610b7e906127a0565b6000805460405163572b6c0560e01b81526001600160a01b0384811660048301529091169063572b6c0590602401602060405180830381865afa158015610c5e573d6000803e3d6000fd5b505050506040513d601f19601f820116820180604052508101906105a291906127da565b6000610c8d81611b49565b6000610cec610ca46000546001600160a01b031690565b856040516bffffffffffffffffffffffff19606084901b1660208201526034810182905260009060540160405160208183030381529060405280519060200120905092915050565b9050610cf88184611b5d565b5050505050565b610d07611a24565b6000546001600160a01b03166040516342f6e38960e01b81526001600160a01b03838116600483015291909116906342f6e38990602401602060405180830381865afa158015610d5b573d6000803e3d6000fd5b505050506040513d601f19601f82011682018060405250810190610d7f91906127da565b610dac57604051635912aaef60e01b81526001600160a01b03821660048201526024015b60405180910390fd5b6000610db9610ad6611a24565b905060005b83811015610b6457610df682868684818110610ddc57610ddc61278a565b9050602002016020810190610df191906124df565b611b5d565b50600101610dbe565b600080546040805163d09edf3160e01b815290518593926001600160a01b03169163d09edf319160048083019260209291908290030181865afa158015610e4a573d6000803e3d6000fd5b505050506040513d601f19601f82011682018060405250810190610e6e91906126fc565b60405163fdd5205f60e01b8152306004820152602481018490526001600160a01b03919091169063fdd5205f90604401602060405180830381865afa158015610ebb573d6000803e3d6000fd5b505050506040513d601f19601f82011682018060405250810190610edf9190612719565b9050610f3560008054906101000a90046001600160a01b03166001600160a01b031663d09edf316040518163ffffffff1660e01b8152600401602060405180830381865afa1580156106de573d6000803e3d6000fd5b60008054906101000a90046001600160a01b03166001600160a01b031663d09edf316040518163ffffffff1660e01b8152600401602060405180830381865afa158015610f86573d6000803e3d6000fd5b505050506040513d601f19601f82011682018060405250810190610faa91906126fc565b60405163385e205560e21b8152600481018690526001600160a01b038581166024830152919091169063e1788154906044015b600060405180830381600087803b158015610ff757600080fd5b505af115801561100b573d6000803e3d6000fd5b5050505050505050565b600061116e60016040518060a0016040529081600082015481526020016001820154815260200160028201548152602001600382018054611055906127a0565b80601f0160208091040260200160405190810160405280929190818152602001828054611081906127a0565b80156110ce5780601f106110a3576101008083540402835291602001916110ce565b820191906000526020600020905b8154815290600101906020018083116110b157829003601f168201915b505050505081526020016004820180546110e7906127a0565b80601f0160208091040260200160405190810160405280929190818152602001828054611113906127a0565b80156111605780601f1061113557610100808354040283529160200191611160565b820191906000526020600020905b81548152906001019060200180831161114357829003601f168201915b505050505081525050611bf2565b905090565b61117b611a24565b6000546001600160a01b03166040516342f6e38960e01b81526001600160a01b03838116600483015291909116906342f6e38990602401602060405180830381865afa1580156111cf573d6000803e3d6000fd5b505050506040513d601f19601f820116820180604052508101906111f391906127da565b61121b57604051635912aaef60e01b81526001600160a01b0382166004820152602401610da3565b6000611228610ad6611a24565b905060005b83811015610b645761124b82868684818110610b4157610b4161278a565b5060010161122d565b60008060009054906101000a90046001600160a01b03166001600160a01b0316637da0a8776040518163ffffffff1660e01b8152600401602060405180830381865afa1580156112a8573d6000803e3d6000fd5b505050506040513d601f19601f8201168201806040525081019061116e91906126fc565b60008281527fc1f6fe24621ce81ec5827caf0253cadb74709b061630e6b55e823717059320006020819052604082206113059084611c32565b949350505050565b600061131881611b49565b600061132f610ca46000546001600160a01b031690565b9050610cf88184611baf565b6000828152600080516020612a25833981519152602090815260408083206001600160a01b038516845290915281205460ff165b9392505050565b7ff0c57e16840df040f15088dc2f81fe391c3923bec73e23a9662efc9c229c6a00805468010000000000000000810460ff16159067ffffffffffffffff166000811580156113c15750825b905060008267ffffffffffffffff1660011480156113de5750303b155b9050811580156113ec575080155b1561140a5760405163f92ee8a960e01b815260040160405180910390fd5b845467ffffffffffffffff19166001178555831561143e57845468ff00000000000000001916680100000000000000001785555b6114488888611c3e565b60008680602001905181019061145e91906126fc565b905061146981611d50565b50831561100b57845468ff000000000000000019168555604051600181527fc7f505b2f371ae2175ee4913f4499e1f2633a7b5936321eed1cdaeb6115181d29060200160405180910390a15050505050505050565b6114c6611a24565b6000546001600160a01b03166040516342f6e38960e01b81526001600160a01b03838116600483015291909116906342f6e38990602401602060405180830381865afa15801561151a573d6000803e3d6000fd5b505050506040513d601f19601f8201168201806040525081019061153e91906127da565b61156657604051635912aaef60e01b81526001600160a01b0382166004820152602401610da3565b600061132f610ca4611a24565b600080546040805163d09edf3160e01b815290518593926001600160a01b03169163d09edf319160048083019260209291908290030181865afa1580156115be573d6000803e3d6000fd5b505050506040513d601f19601f820116820180604052508101906115e291906126fc565b60405163fdd5205f60e01b8152306004820152602481018490526001600160a01b03919091169063fdd5205f90604401602060405180830381865afa15801561162f573d6000803e3d6000fd5b505050506040513d601f19601f820116820180604052508101906116539190612719565b90506116a960008054906101000a90046001600160a01b03166001600160a01b031663d09edf316040518163ffffffff1660e01b8152600401602060405180830381865afa1580156106de573d6000803e3d6000fd5b60008054906101000a90046001600160a01b03166001600160a01b031663d09edf316040518163ffffffff1660e01b8152600401602060405180830381865afa1580156116fa573d6000803e3d6000fd5b505050506040513d601f19601f8201168201806040525081019061171e91906126fc565b604051632e99be7f60e21b8152600481018690526001600160a01b038581166024830152919091169063ba66f9fc90604401610fdd565b60008181527fc1f6fe24621ce81ec5827caf0253cadb74709b061630e6b55e8237170593200060208190526040822061136f90611d96565b6000828152600080516020612a2583398151915260205260409020600101546117b581611b49565b610a668383611baf565b6117c7611a24565b6000546001600160a01b03166040516342f6e38960e01b81526001600160a01b03838116600483015291909116906342f6e38990602401602060405180830381865afa15801561181b573d6000803e3d6000fd5b505050506040513d601f19601f8201168201806040525081019061183f91906127da565b61186757604051635912aaef60e01b81526001600160a01b0382166004820152602401610da3565b6000610cec610ca4611a24565b6000828152600080516020612a25833981519152602052604090206001015461189c81611b49565b610aaf8383611da0565b6118ae611a24565b6000546001600160a01b03166040516342f6e38960e01b81526001600160a01b03838116600483015291909116906342f6e38990602401602060405180830381865afa158015611902573d6000803e3d6000fd5b505050506040513d601f19601f8201168201806040525081019061192691906127da565b61194e57604051635912aaef60e01b81526001600160a01b0382166004820152602401610da3565b60006119a361195b611a24565b846040516bffffffffffffffffffffffff19606084901b1660208201526034810182905260009060540160405160208183030381529060405280519060200120905092915050565b9050610aaf81600019611da0565b60006119bc81611b49565b60006119d3610ad66000546001600160a01b031690565b905060005b83811015610b64576119f682868684818110610ddc57610ddc61278a565b506001016119d8565b60006001600160e01b0319821663e328951160e01b14806105a257506105a282611e20565b600061116e611e45565b60008054906101000a90046001600160a01b03166001600160a01b031663d09edf316040518163ffffffff1660e01b8152600401602060405180830381865afa158015611a7f573d6000803e3d6000fd5b505050506040513d601f19601f82011682018060405250810190611aa391906126fc565b60405163a883867d60e01b8152600481018490526001600160a01b038381166024830152919091169063a883867d90604401602060405180830381865afa158015611af2573d6000803e3d6000fd5b505050506040513d601f19601f82011682018060405250810190611b1691906127da565b611b45576040516342abbb7760e01b8152600481018390526001600160a01b0382166024820152604401610da3565b5050565b611b5a81611b55611a24565b611e97565b50565b6000828281158015611b7c57506000546001600160a01b038281169116145b15611b9a57604051634701683560e11b815260040160405180910390fd5b611ba48585611ef9565b92505b505092915050565b60008280158015611bca57506001611bc76000611755565b11155b15611be85760405163d1ed446560e01b815260040160405180910390fd5b6113058484611f50565b6000816000015182606001518360800151604051602001611c15939291906127fc565b604051602081830303815290604052805190602001209050919050565b600061136f8383611f9e565b611c46611fc8565b6001600160a01b038216611c6d57604051637280679360e01b815260040160405180910390fd5b600080547fffffffffffffffffffffffff0000000000000000000000000000000000000000166001600160a01b038416179055611ca981612018565b611cc657604051637511254160e01b815260040160405180910390fd5b80516001908155602082015160025560408201516003556060820151829190600490611cf29082612879565b5060808201516004820190611d079082612879565b50905050816001600160a01b03167fd5f3f84c2e1816ce290af84d002663800b02f2985d770cdd335de76fd723b73082604051611d449190612939565b60405180910390a25050565b611d58611fc8565b6001600160a01b038116611d7f57604051635b784de560e01b815260040160405180910390fd5b611d8b60001980611da0565b611b45600082611b5d565b60006105a2825490565b600080516020612a258339815191526000611dd7846000908152600080516020612a25833981519152602052604090206001015490565b600085815260208490526040808220600101869055519192508491839187917fbd79b86ffe0ab8e8776151514217cd7cacd52c909f66475c3af44e129f0b00ff9190a450505050565b60006001600160e01b03198216635a05180f60e01b14806105a257506105a282612078565b6000366014611e5333610c13565b8015611e5f5750808210155b15611e8f57600036611e718385612990565b611e7c9282906129b1565b611e85916129db565b60601c9250505090565b339250505090565b6000828152600080516020612a25833981519152602090815260408083206001600160a01b038516845290915290205460ff16611b455760405163e2517d3f60e01b81526001600160a01b038216600482015260248101839052604401610da3565b60007fc1f6fe24621ce81ec5827caf0253cadb74709b061630e6b55e8237170593200081611f2785856120ad565b90508015611305576000858152602083905260409020611f47908561216b565b50949350505050565b60007fc1f6fe24621ce81ec5827caf0253cadb74709b061630e6b55e8237170593200081611f7e8585612180565b90508015611305576000858152602083905260409020611f479085612232565b6000826000018281548110611fb557611fb561278a565b9060005260206000200154905092915050565b7ff0c57e16840df040f15088dc2f81fe391c3923bec73e23a9662efc9c229c6a005468010000000000000000900460ff1661201657604051631afcd79f60e31b815260040160405180910390fd5b565b600081606001515160000361202f57506000919050565b81608001515160000361204457506000919050565b815115801561205557506020820151155b801561206357506040820151155b1561207057506000919050565b506001919050565b60006001600160e01b03198216637965db0b60e01b14806105a257506301ffc9a760e01b6001600160e01b03198316146105a2565b6000828152600080516020612a25833981519152602081815260408084206001600160a01b038616855290915282205460ff16612161576000848152602082815260408083206001600160a01b03871684529091529020805460ff19166001179055612117611a24565b6001600160a01b0316836001600160a01b0316857f2f8788117e7eff1d82e926ec794901d17c78024a50270940304540a733656f0d60405160405180910390a460019150506105a2565b60009150506105a2565b600061136f836001600160a01b038416612247565b6000828152600080516020612a25833981519152602081815260408084206001600160a01b038616855290915282205460ff1615612161576000848152602082815260408083206001600160a01b03871684529091529020805460ff191690556121e8611a24565b6001600160a01b0316836001600160a01b0316857ff6391f5c32d9c69d2a47ea670b442974b53935d1edc7fd64eb21e047a839171b60405160405180910390a460019150506105a2565b600061136f836001600160a01b038416612296565b600081815260018301602052604081205461228e575081546001818101845560008481526020808220909301849055845484825282860190935260409020919091556105a2565b5060006105a2565b600081815260018301602052604081205480156121615760006122ba600183612990565b85549091506000906122ce90600190612990565b90508082146123335760008660000182815481106122ee576122ee61278a565b90600052602060002001549050808760000184815481106123115761231161278a565b6000918252602080832090910192909255918252600188019052604090208390555b855486908061234457612344612a0e565b6001900381819060005260206000200160009055905585600101600086815260200190815260200160002060009055600193505050506105a2565b60006020828403121561239157600080fd5b81356001600160e01b03198116811461136f57600080fd5b6000602082840312156123bb57600080fd5b5035919050565b6000806000604084860312156123d757600080fd5b83359250602084013567ffffffffffffffff808211156123f657600080fd5b818601915086601f83011261240a57600080fd5b81358181111561241957600080fd5b8760208260051b850101111561242e57600080fd5b6020830194508093505050509250925092565b6001600160a01b0381168114611b5a57600080fd5b6000806040838503121561246957600080fd5b82359150602083013561247b81612441565b809150509250929050565b6000815180845260005b818110156124ac57602081850181015186830182015201612490565b506000602082860101526020601f19601f83011685010191505092915050565b60208152600061136f6020830184612486565b6000602082840312156124f157600080fd5b813561136f81612441565b6000806040838503121561250f57600080fd5b50508035926020909101359150565b634e487b7160e01b600052604160045260246000fd5b60405160a0810167ffffffffffffffff811182821017156125575761255761251e565b60405290565b600082601f83011261256e57600080fd5b813567ffffffffffffffff808211156125895761258961251e565b604051601f8301601f19908116603f011681019082821181831017156125b1576125b161251e565b816040528381528660208588010111156125ca57600080fd5b836020870160208301376000602085830101528094505050505092915050565b6000806000606084860312156125ff57600080fd5b833561260a81612441565b9250602084013567ffffffffffffffff8082111561262757600080fd5b9085019060a0828803121561263b57600080fd5b612643612534565b82358152602083013560208201526040830135604082015260608301358281111561266d57600080fd5b6126798982860161255d565b60608301525060808301358281111561269157600080fd5b61269d8982860161255d565b608083015250935060408601359150808211156126b957600080fd5b506126c68682870161255d565b9150509250925092565b600080604083850312156126e357600080fd5b82356126ee81612441565b946020939093013593505050565b60006020828403121561270e57600080fd5b815161136f81612441565b60006020828403121561272b57600080fd5b5051919050565b83815260406020808301829052908201839052600090849060608401835b8681101561277e57833561276381612441565b6001600160a01b031682529282019290820190600101612750565b50979650505050505050565b634e487b7160e01b600052603260045260246000fd5b600181811c908216806127b457607f821691505b6020821081036127d457634e487b7160e01b600052602260045260246000fd5b50919050565b6000602082840312156127ec57600080fd5b8151801515811461136f57600080fd5b8381526060602082015260006128156060830185612486565b82810360408401526128278185612486565b9695505050505050565b601f821115610aaf576000816000526020600020601f850160051c8101602086101561285a5750805b601f850160051c820191505b81811015610b6457828155600101612866565b815167ffffffffffffffff8111156128935761289361251e565b6128a7816128a184546127a0565b84612831565b602080601f8311600181146128dc57600084156128c45750858301515b600019600386901b1c1916600185901b178555610b64565b600085815260208120601f198616915b8281101561290b578886015182559484019460019091019084016128ec565b50858210156129295787850151600019600388901b60f8161c191681555b5050505050600190811b01905550565b602081528151602082015260208201516040820152604082015160608201526000606083015160a0608084015261297360c0840182612486565b90506080840151601f198483030160a0850152611ba48282612486565b818103818111156105a257634e487b7160e01b600052601160045260246000fd5b600080858511156129c157600080fd5b838611156129ce57600080fd5b5050820193919092039150565b6bffffffffffffffffffffffff198135818116916014851015611ba75760149490940360031b84901b1690921692915050565b634e487b7160e01b600052603160045260246000fdfe02dd7bc7dec4dceedda775e58dd541e08a116c6c53815c0bd028192f7b626800a26469706673582212200614d9e0f98dffb2a785c9663edc5cc667f28bbfe75981b76c168557b59d7cc664736f6c63430008170033",
    "linkReferences": {}
  },
  "methodIdentifiers": {
    "BURN_ADMIN_ROLE()": "b3cb1991",
    "DEFAULT_ADMIN_ROLE()": "a217fddf",
    "burnAdminFromModuleRole(bytes32)": "e99b6e13",
    "checkForRole(bytes32,address)": "a883867d",
    "generateRoleId(address,bytes32)": "fdd5205f",
    "getAdminRole()": "b3ecf236",
    "getRoleAdmin(bytes32)": "248a9ca3",
    "getRoleMember(bytes32,uint256)": "9010d07c",
    "getRoleMemberCount(bytes32)": "ca15c873",
    "grantGlobalRole(bytes32,address)": "61bcd0c4",
    "grantGlobalRoleBatched(bytes32,address[])": "ee2d0968",
    "grantModuleRole(bytes32,address)": "6c67e807",
    "grantModuleRoleBatched(bytes32,address[])": "272bbd44",
    "grantRole(bytes32,address)": "2f2ff15d",
    "grantRoleFromModule(bytes32,address)": "e1788154",
    "grantRoleFromModuleBatched(bytes32,address[])": "64815453",
    "hasRole(bytes32,address)": "91d14854",
    "identifier()": "7998a1c4",
    "init(address,(uint256,uint256,uint256,string,string),bytes)": "b66a870c",
    "isTrustedForwarder(address)": "572b6c05",
    "orchestrator()": "b74795d9",
    "renounceRole(bytes32,address)": "36568abe",
    "revokeGlobalRole(bytes32,address)": "99df6ff1",
    "revokeGlobalRoleBatched(bytes32,address[])": "49eb42f1",
    "revokeModuleRole(bytes32,address)": "bcb61920",
    "revokeModuleRoleBatched(bytes32,address[])": "24e30270",
    "revokeRole(bytes32,address)": "d547741f",
    "revokeRoleFromModule(bytes32,address)": "ba66f9fc",
    "revokeRoleFromModuleBatched(bytes32,address[])": "7d540a64",
    "supportsInterface(bytes4)": "01ffc9a7",
    "title()": "4a79d50c",
    "transferAdminRole(bytes32,bytes32)": "e38a584c",
    "trustedForwarder()": "7da0a877",
    "url()": "5600f04f",
    "version()": "54fd4d50"
  },
  "id": 101
}