{
  "abi": [
    {
      "type": "constructor",
      "inputs": [],
      "stateMutability": "nonpayable"
    },
    {
      "type": "function",
      "name": "BURN_ADMIN_ROLE",
      "inputs": [],
      "outputs": [
        {
          "name": "",
          "type": "bytes32",
          "internalType": "bytes32"
        }
      ],
      "stateMutability": "view"
    },
    {
      "type": "function",
      "name": "DEFAULT_ADMIN_ROLE",
      "inputs": [],
      "outputs": [
        {
          "name": "",
          "type": "bytes32",
          "internalType": "bytes32"
        }
      ],
      "stateMutability": "view"
    },
    {
      "type": "function",
      "name": "ORCHESTRATOR_MANAGER_ROLE",
      "inputs": [],
      "outputs": [
        {
          "name": "",
          "type": "bytes32",
          "internalType": "bytes32"
        }
      ],
      "stateMutability": "view"
    },
    {
      "type": "function",
      "name": "ORCHESTRATOR_OWNER_ROLE",
      "inputs": [],
      "outputs": [
        {
          "name": "",
          "type": "bytes32",
          "internalType": "bytes32"
        }
      ],
      "stateMutability": "view"
    },
    {
      "type": "function",
      "name": "burnAdminFromModuleRole",
      "inputs": [
        {
          "name": "role",
          "type": "bytes32",
          "internalType": "bytes32"
        }
      ],
      "outputs": [],
      "stateMutability": "nonpayable"
    },
    {
      "type": "function",
      "name": "generateRoleId",
      "inputs": [
        {
          "name": "module",
          "type": "address",
          "internalType": "address"
        },
        {
          "name": "role",
          "type": "bytes32",
          "internalType": "bytes32"
        }
      ],
      "outputs": [
        {
          "name": "",
          "type": "bytes32",
          "internalType": "bytes32"
        }
      ],
      "stateMutability": "pure"
    },
    {
      "type": "function",
      "name": "getManagerRole",
      "inputs": [],
      "outputs": [
        {
          "name": "",
          "type": "bytes32",
          "internalType": "bytes32"
        }
      ],
      "stateMutability": "pure"
    },
    {
      "type": "function",
      "name": "getOwnerRole",
      "inputs": [],
      "outputs": [
        {
          "name": "",
          "type": "bytes32",
          "internalType": "bytes32"
        }
      ],
      "stateMutability": "pure"
    },
    {
      "type": "function",
      "name": "getRoleAdmin",
      "inputs": [
        {
          "name": "role",
          "type": "bytes32",
          "internalType": "bytes32"
        }
      ],
      "outputs": [
        {
          "name": "",
          "type": "bytes32",
          "internalType": "bytes32"
        }
      ],
      "stateMutability": "view"
    },
    {
      "type": "function",
      "name": "getRoleMember",
      "inputs": [
        {
          "name": "role",
          "type": "bytes32",
          "internalType": "bytes32"
        },
        {
          "name": "index",
          "type": "uint256",
          "internalType": "uint256"
        }
      ],
      "outputs": [
        {
          "name": "",
          "type": "address",
          "internalType": "address"
        }
      ],
      "stateMutability": "view"
    },
    {
      "type": "function",
      "name": "getRoleMemberCount",
      "inputs": [
        {
          "name": "role",
          "type": "bytes32",
          "internalType": "bytes32"
        }
      ],
      "outputs": [
        {
          "name": "",
          "type": "uint256",
          "internalType": "uint256"
        }
      ],
      "stateMutability": "view"
    },
    {
      "type": "function",
      "name": "grantGlobalRole",
      "inputs": [
        {
          "name": "role",
          "type": "bytes32",
          "internalType": "bytes32"
        },
        {
          "name": "target",
          "type": "address",
          "internalType": "address"
        }
      ],
      "outputs": [],
      "stateMutability": "nonpayable"
    },
    {
      "type": "function",
      "name": "grantGlobalRoleBatched",
      "inputs": [
        {
          "name": "role",
          "type": "bytes32",
          "internalType": "bytes32"
        },
        {
          "name": "targets",
          "type": "address[]",
          "internalType": "address[]"
        }
      ],
      "outputs": [],
      "stateMutability": "nonpayable"
    },
    {
      "type": "function",
      "name": "grantModuleRole",
      "inputs": [
        {
          "name": "role",
          "type": "bytes32",
          "internalType": "bytes32"
        },
        {
          "name": "target",
          "type": "address",
          "internalType": "address"
        }
      ],
      "outputs": [],
      "stateMutability": "nonpayable"
    },
    {
      "type": "function",
      "name": "grantModuleRoleBatched",
      "inputs": [
        {
          "name": "role",
          "type": "bytes32",
          "internalType": "bytes32"
        },
        {
          "name": "targets",
          "type": "address[]",
          "internalType": "address[]"
        }
      ],
      "outputs": [],
      "stateMutability": "nonpayable"
    },
    {
      "type": "function",
      "name": "grantRole",
      "inputs": [
        {
          "name": "role",
          "type": "bytes32",
          "internalType": "bytes32"
        },
        {
          "name": "account",
          "type": "address",
          "internalType": "address"
        }
      ],
      "outputs": [],
      "stateMutability": "nonpayable"
    },
    {
      "type": "function",
      "name": "grantRoleFromModule",
      "inputs": [
        {
          "name": "role",
          "type": "bytes32",
          "internalType": "bytes32"
        },
        {
          "name": "target",
          "type": "address",
          "internalType": "address"
        }
      ],
      "outputs": [],
      "stateMutability": "nonpayable"
    },
    {
      "type": "function",
      "name": "grantRoleFromModuleBatched",
      "inputs": [
        {
          "name": "role",
          "type": "bytes32",
          "internalType": "bytes32"
        },
        {
          "name": "targets",
          "type": "address[]",
          "internalType": "address[]"
        }
      ],
      "outputs": [],
      "stateMutability": "nonpayable"
    },
    {
      "type": "function",
      "name": "hasModuleRole",
      "inputs": [
        {
          "name": "role",
          "type": "bytes32",
          "internalType": "bytes32"
        },
        {
          "name": "who",
          "type": "address",
          "internalType": "address"
        }
      ],
      "outputs": [
        {
          "name": "",
          "type": "bool",
          "internalType": "bool"
        }
      ],
      "stateMutability": "view"
    },
    {
      "type": "function",
      "name": "hasRole",
      "inputs": [
        {
          "name": "role",
          "type": "bytes32",
          "internalType": "bytes32"
        },
        {
          "name": "account",
          "type": "address",
          "internalType": "address"
        }
      ],
      "outputs": [
        {
          "name": "",
          "type": "bool",
          "internalType": "bool"
        }
      ],
      "stateMutability": "view"
    },
    {
      "type": "function",
      "name": "identifier",
      "inputs": [],
      "outputs": [
        {
          "name": "",
          "type": "bytes32",
          "internalType": "bytes32"
        }
      ],
      "stateMutability": "view"
    },
    {
      "type": "function",
      "name": "init",
      "inputs": [
        {
          "name": "orchestrator_",
          "type": "address",
          "internalType": "contract IOrchestrator_v1"
        },
        {
          "name": "metadata",
          "type": "tuple",
          "internalType": "struct IModule_v1.Metadata",
          "components": [
            {
              "name": "majorVersion",
              "type": "uint256",
              "internalType": "uint256"
            },
            {
              "name": "minorVersion",
              "type": "uint256",
              "internalType": "uint256"
            },
            {
              "name": "url",
              "type": "string",
              "internalType": "string"
            },
            {
              "name": "title",
              "type": "string",
              "internalType": "string"
            }
          ]
        },
        {
          "name": "configData",
          "type": "bytes",
          "internalType": "bytes"
        }
      ],
      "outputs": [],
      "stateMutability": "nonpayable"
    },
    {
      "type": "function",
      "name": "isTrustedForwarder",
      "inputs": [
        {
          "name": "forwarder",
          "type": "address",
          "internalType": "address"
        }
      ],
      "outputs": [
        {
          "name": "",
          "type": "bool",
          "internalType": "bool"
        }
      ],
      "stateMutability": "view"
    },
    {
      "type": "function",
      "name": "orchestrator",
      "inputs": [],
      "outputs": [
        {
          "name": "",
          "type": "address",
          "internalType": "contract IOrchestrator_v1"
        }
      ],
      "stateMutability": "view"
    },
    {
      "type": "function",
      "name": "renounceRole",
      "inputs": [
        {
          "name": "role",
          "type": "bytes32",
          "internalType": "bytes32"
        },
        {
          "name": "callerConfirmation",
          "type": "address",
          "internalType": "address"
        }
      ],
      "outputs": [],
      "stateMutability": "nonpayable"
    },
    {
      "type": "function",
      "name": "revokeGlobalRole",
      "inputs": [
        {
          "name": "role",
          "type": "bytes32",
          "internalType": "bytes32"
        },
        {
          "name": "target",
          "type": "address",
          "internalType": "address"
        }
      ],
      "outputs": [],
      "stateMutability": "nonpayable"
    },
    {
      "type": "function",
      "name": "revokeGlobalRoleBatched",
      "inputs": [
        {
          "name": "role",
          "type": "bytes32",
          "internalType": "bytes32"
        },
        {
          "name": "targets",
          "type": "address[]",
          "internalType": "address[]"
        }
      ],
      "outputs": [],
      "stateMutability": "nonpayable"
    },
    {
      "type": "function",
      "name": "revokeModuleRole",
      "inputs": [
        {
          "name": "role",
          "type": "bytes32",
          "internalType": "bytes32"
        },
        {
          "name": "target",
          "type": "address",
          "internalType": "address"
        }
      ],
      "outputs": [],
      "stateMutability": "nonpayable"
    },
    {
      "type": "function",
      "name": "revokeModuleRoleBatched",
      "inputs": [
        {
          "name": "role",
          "type": "bytes32",
          "internalType": "bytes32"
        },
        {
          "name": "targets",
          "type": "address[]",
          "internalType": "address[]"
        }
      ],
      "outputs": [],
      "stateMutability": "nonpayable"
    },
    {
      "type": "function",
      "name": "revokeRole",
      "inputs": [
        {
          "name": "role",
          "type": "bytes32",
          "internalType": "bytes32"
        },
        {
          "name": "account",
          "type": "address",
          "internalType": "address"
        }
      ],
      "outputs": [],
      "stateMutability": "nonpayable"
    },
    {
      "type": "function",
      "name": "revokeRoleFromModule",
      "inputs": [
        {
          "name": "role",
          "type": "bytes32",
          "internalType": "bytes32"
        },
        {
          "name": "target",
          "type": "address",
          "internalType": "address"
        }
      ],
      "outputs": [],
      "stateMutability": "nonpayable"
    },
    {
      "type": "function",
      "name": "revokeRoleFromModuleBatched",
      "inputs": [
        {
          "name": "role",
          "type": "bytes32",
          "internalType": "bytes32"
        },
        {
          "name": "targets",
          "type": "address[]",
          "internalType": "address[]"
        }
      ],
      "outputs": [],
      "stateMutability": "nonpayable"
    },
    {
      "type": "function",
      "name": "supportsInterface",
      "inputs": [
        {
          "name": "interfaceId",
          "type": "bytes4",
          "internalType": "bytes4"
        }
      ],
      "outputs": [
        {
          "name": "",
          "type": "bool",
          "internalType": "bool"
        }
      ],
      "stateMutability": "view"
    },
    {
      "type": "function",
      "name": "title",
      "inputs": [],
      "outputs": [
        {
          "name": "",
          "type": "string",
          "internalType": "string"
        }
      ],
      "stateMutability": "view"
    },
    {
      "type": "function",
      "name": "transferAdminRole",
      "inputs": [
        {
          "name": "roleId",
          "type": "bytes32",
          "internalType": "bytes32"
        },
        {
          "name": "newAdmin",
          "type": "bytes32",
          "internalType": "bytes32"
        }
      ],
      "outputs": [],
      "stateMutability": "nonpayable"
    },
    {
      "type": "function",
      "name": "trustedForwarder",
      "inputs": [],
      "outputs": [
        {
          "name": "",
          "type": "address",
          "internalType": "address"
        }
      ],
      "stateMutability": "view"
    },
    {
      "type": "function",
      "name": "url",
      "inputs": [],
      "outputs": [
        {
          "name": "",
          "type": "string",
          "internalType": "string"
        }
      ],
      "stateMutability": "view"
    },
    {
      "type": "function",
      "name": "version",
      "inputs": [],
      "outputs": [
        {
          "name": "",
          "type": "uint256",
          "internalType": "uint256"
        },
        {
          "name": "",
          "type": "uint256",
          "internalType": "uint256"
        }
      ],
      "stateMutability": "view"
    },
    {
      "type": "event",
      "name": "Initialized",
      "inputs": [
        {
          "name": "version",
          "type": "uint64",
          "indexed": false,
          "internalType": "uint64"
        }
      ],
      "anonymous": false
    },
    {
      "type": "event",
      "name": "ModuleInitialized",
      "inputs": [
        {
          "name": "parentOrchestrator",
          "type": "address",
          "indexed": true,
          "internalType": "address"
        },
        {
          "name": "moduleTitle",
          "type": "string",
          "indexed": true,
          "internalType": "string"
        },
        {
          "name": "majorVersion",
          "type": "uint256",
          "indexed": false,
          "internalType": "uint256"
        },
        {
          "name": "minorVersion",
          "type": "uint256",
          "indexed": false,
          "internalType": "uint256"
        }
      ],
      "anonymous": false
    },
    {
      "type": "event",
      "name": "RoleAdminChanged",
      "inputs": [
        {
          "name": "role",
          "type": "bytes32",
          "indexed": true,
          "internalType": "bytes32"
        },
        {
          "name": "previousAdminRole",
          "type": "bytes32",
          "indexed": true,
          "internalType": "bytes32"
        },
        {
          "name": "newAdminRole",
          "type": "bytes32",
          "indexed": true,
          "internalType": "bytes32"
        }
      ],
      "anonymous": false
    },
    {
      "type": "event",
      "name": "RoleGranted",
      "inputs": [
        {
          "name": "role",
          "type": "bytes32",
          "indexed": true,
          "internalType": "bytes32"
        },
        {
          "name": "account",
          "type": "address",
          "indexed": true,
          "internalType": "address"
        },
        {
          "name": "sender",
          "type": "address",
          "indexed": true,
          "internalType": "address"
        }
      ],
      "anonymous": false
    },
    {
      "type": "event",
      "name": "RoleRevoked",
      "inputs": [
        {
          "name": "role",
          "type": "bytes32",
          "indexed": true,
          "internalType": "bytes32"
        },
        {
          "name": "account",
          "type": "address",
          "indexed": true,
          "internalType": "address"
        },
        {
          "name": "sender",
          "type": "address",
          "indexed": true,
          "internalType": "address"
        }
      ],
      "anonymous": false
    },
    {
      "type": "error",
      "name": "AccessControlBadConfirmation",
      "inputs": []
    },
    {
      "type": "error",
      "name": "AccessControlUnauthorizedAccount",
      "inputs": [
        {
          "name": "account",
          "type": "address",
          "internalType": "address"
        },
        {
          "name": "neededRole",
          "type": "bytes32",
          "internalType": "bytes32"
        }
      ]
    },
    {
      "type": "error",
      "name": "InvalidInitialization",
      "inputs": []
    },
    {
      "type": "error",
      "name": "Module_OrchestratorCallbackFailed",
      "inputs": [
        {
          "name": "funcSig",
          "type": "string",
          "internalType": "string"
        }
      ]
    },
    {
      "type": "error",
      "name": "Module__Authorizer__ModuleNotSelfManaged",
      "inputs": []
    },
    {
      "type": "error",
      "name": "Module__Authorizer__NotActiveModule",
      "inputs": [
        {
          "name": "module",
          "type": "address",
          "internalType": "address"
        }
      ]
    },
    {
      "type": "error",
      "name": "Module__Authorizer__OwnerRoleCannotBeEmpty",
      "inputs": []
    },
    {
      "type": "error",
      "name": "Module__CallerNotAuthorized",
      "inputs": [
        {
          "name": "role",
          "type": "bytes32",
          "internalType": "bytes32"
        },
        {
          "name": "caller",
          "type": "address",
          "internalType": "address"
        }
      ]
    },
    {
      "type": "error",
      "name": "Module__InvalidMetadata",
      "inputs": []
    },
    {
      "type": "error",
      "name": "Module__InvalidOrchestratorAddress",
      "inputs": []
    },
    {
      "type": "error",
      "name": "Module__OnlyCallableByOrchestrator",
      "inputs": []
    },
    {
      "type": "error",
      "name": "NotInitializing",
      "inputs": []
    }
  ],
  "bytecode": {
    "object": "0x60a06040523480156200001157600080fd5b5060006080526200002162000035565b6200002f60001980620000e9565b6200018e565b7ff0c57e16840df040f15088dc2f81fe391c3923bec73e23a9662efc9c229c6a00805468010000000000000000900460ff1615620000865760405163f92ee8a960e01b815260040160405180910390fd5b80546001600160401b0390811614620000e65780546001600160401b0319166001600160401b0390811782556040519081527fc7f505b2f371ae2175ee4913f4499e1f2633a7b5936321eed1cdaeb6115181d29060200160405180910390a15b50565b7f02dd7bc7dec4dceedda775e58dd541e08a116c6c53815c0bd028192f7b6268006000620001458460009081527f02dd7bc7dec4dceedda775e58dd541e08a116c6c53815c0bd028192f7b626800602052604090206001015490565b600085815260208490526040808220600101869055519192508491839187917fbd79b86ffe0ab8e8776151514217cd7cacd52c909f66475c3af44e129f0b00ff9190a450505050565b608051612999620001a7600039600050506129996000f3fe608060405234801561001057600080fd5b50600436106102925760003560e01c80637d540a6411610160578063bcb61920116100d8578063e99b6e131161008c578063f3aafa7011610071578063f3aafa70146105a2578063fb312778146105b5578063fdd5205f146105c357600080fd5b8063e99b6e131461057c578063ee2d09681461058f57600080fd5b8063d547741f116100bd578063d547741f14610543578063e178815414610556578063e38a584c1461056957600080fd5b8063bcb619201461051d578063ca15c8731461053057600080fd5b806399df6ff11161012f578063b3cb199111610114578063b3cb1991146104f0578063b74795d9146104f9578063ba66f9fc1461050a57600080fd5b806399df6ff1146104d5578063a217fddf146104e857600080fd5b80637d540a64146104375780637da0a8771461044a5780639010d07c1461046a57806391d148541461047d57600080fd5b80634a79d50c1161020e5780635b58890e116101c257806364815453116101a757806364815453146104095780636c67e8071461041c5780637998a1c41461042f57600080fd5b80635b58890e146103e857806361bcd0c4146103f657600080fd5b806355ff58d4116101f357806355ff58d4146103c05780635600f04f146103cd578063572b6c05146103d557600080fd5b80634a79d50c1461039057806354fd4d50146103a557600080fd5b80632f2ff15d1161026557806336568abe1161024a57806336568abe1461035757806342dfe9581461036a57806349eb42f11461037d57600080fd5b80632f2ff15d14610337578063328c4c301461034a57600080fd5b806301ffc9a714610297578063248a9ca3146102bf57806324e302701461030f578063272bbd4414610324575b600080fd5b6102aa6102a53660046122b4565b610618565b60405190151581526020015b60405180910390f35b6103016102cd3660046122f6565b60009081527f02dd7bc7dec4dceedda775e58dd541e08a116c6c53815c0bd028192f7b626800602052604090206001015490565b6040519081526020016102b6565b61032261031d36600461230f565b610674565b005b61032261033236600461230f565b61082c565b6103226103453660046123a3565b61091b565b63183c181960e11b610301565b6103226103653660046123a3565b610965565b61032261037836600461249f565b6109c6565b61032261038b36600461230f565b610b44565b610398610c02565b6040516102b6919061259f565b600154600254604080519283526020830191909152016102b6565b633078303160e01b610301565b610398610c97565b6102aa6103e33660046125d2565b610ca9565b61030163183c181960e11b81565b6103226104043660046123a3565b610d31565b61032261041736600461230f565b610db4565b61032261042a3660046123a3565b610eb6565b610301610ff0565b61032261044536600461230f565b611140565b610452611223565b6040516001600160a01b0390911681526020016102b6565b6104526104783660046125ef565b61129b565b6102aa61048b3660046123a3565b60009182527f02dd7bc7dec4dceedda775e58dd541e08a116c6c53815c0bd028192f7b626800602090815260408084206001600160a01b0393909316845291905290205460ff1690565b6103226104e33660046123a3565b6112dc565b610301600081565b61030160001981565b6000546001600160a01b0316610452565b6103226105183660046123a3565b611310565b61032261052b3660046123a3565b6113c7565b61030161053e3660046122f6565b6114d7565b6103226105513660046123a3565b611516565b6103226105643660046123a3565b61155a565b6103226105773660046125ef565b611611565b61032261058a3660046122f6565b611655565b61032261059d36600461230f565b611762565b6102aa6105b03660046123a3565b6117b6565b610301633078303160e01b81565b6103016105d1366004612611565b6040516bffffffffffffffffffffffff19606084901b1660208201526034810182905260009060540160405160208183030381529060405280519060200120905092915050565b60007fffffffff0000000000000000000000000000000000000000000000000000000082167f7e732aa700000000000000000000000000000000000000000000000000000000148061066e575061066e82611811565b92915050565b6000546040805163d09edf3160e01b81529051610751926001600160a01b03169163d09edf319160048083019260209291908290030181865afa1580156106bf573d6000803e3d6000fd5b505050506040513d601f19601f820116820180604052508101906106e3919061263d565b6001600160a01b03166355ff58d46040518163ffffffff1660e01b8152600401602060405180830381865afa158015610720573d6000803e3d6000fd5b505050506040513d601f19601f82011682018060405250810190610744919061265a565b61074c6118a8565b6118b2565b60008054906101000a90046001600160a01b03166001600160a01b031663d09edf316040518163ffffffff1660e01b8152600401602060405180830381865afa1580156107a2573d6000803e3d6000fd5b505050506040513d601f19601f820116820180604052508101906107c6919061263d565b6001600160a01b0316637d540a648484846040518463ffffffff1660e01b81526004016107f593929190612673565b600060405180830381600087803b15801561080f57600080fd5b505af1158015610823573d6000803e3d6000fd5b50505050505050565b6000546040805163d09edf3160e01b81529051610877926001600160a01b03169163d09edf319160048083019260209291908290030181865afa1580156106bf573d6000803e3d6000fd5b60008054906101000a90046001600160a01b03166001600160a01b031663d09edf316040518163ffffffff1660e01b8152600401602060405180830381865afa1580156108c8573d6000803e3d6000fd5b505050506040513d601f19601f820116820180604052508101906108ec919061263d565b6001600160a01b031663648154538484846040518463ffffffff1660e01b81526004016107f593929190612673565b60008281527f02dd7bc7dec4dceedda775e58dd541e08a116c6c53815c0bd028192f7b6268006020526040902060010154610955816119ff565b61095f8383611a13565b50505050565b61096d6118a8565b6001600160a01b0316816001600160a01b0316146109b7576040517f6697b23200000000000000000000000000000000000000000000000000000000815260040160405180910390fd5b6109c18282611a6a565b505050565b7ff0c57e16840df040f15088dc2f81fe391c3923bec73e23a9662efc9c229c6a00805468010000000000000000810460ff16159067ffffffffffffffff16600081158015610a115750825b905060008267ffffffffffffffff166001148015610a2e5750303b155b905081158015610a3c575080155b15610a73576040517ff92ee8a900000000000000000000000000000000000000000000000000000000815260040160405180910390fd5b84547fffffffffffffffffffffffffffffffffffffffffffffffff00000000000000001660011785558315610abe57845468ff00000000000000001916680100000000000000001785555b610ac88888611ad4565b60008087806020019051810190610adf91906126cb565b91509150610aed8282611c2f565b50508315610b3a57845468ff000000000000000019168555604051600181527fc7f505b2f371ae2175ee4913f4499e1f2633a7b5936321eed1cdaeb6115181d29060200160405180910390a15b5050505050505050565b633078303160e01b610b55816119ff565b6000610bb4610b6c6000546001600160a01b031690565b866040516bffffffffffffffffffffffff19606084901b1660208201526034810182905260009060540160405160208183030381529060405280519060200120905092915050565b905060005b83811015610bfa57610bf182868684818110610bd757610bd76126fa565b9050602002016020810190610bec91906125d2565b611a6a565b50600101610bb9565b505050505050565b606060016003018054610c1490612710565b80601f0160208091040260200160405190810160405280929190818152602001828054610c4090612710565b8015610c8d5780601f10610c6257610100808354040283529160200191610c8d565b820191906000526020600020905b815481529060010190602001808311610c7057829003601f168201915b5050505050905090565b606060016002018054610c1490612710565b600080546040517f572b6c050000000000000000000000000000000000000000000000000000000081526001600160a01b0384811660048301529091169063572b6c0590602401602060405180830381865afa158015610d0d573d6000803e3d6000fd5b505050506040513d601f19601f8201168201806040525081019061066e919061274a565b633078303160e01b610d42816119ff565b6000610da1610d596000546001600160a01b031690565b856040516bffffffffffffffffffffffff19606084901b1660208201526034810182905260009060540160405160208183030381529060405280519060200120905092915050565b9050610dad8184611a13565b5050505050565b610dbc6118a8565b6000546001600160a01b03166040516342f6e38960e01b81526001600160a01b03838116600483015291909116906342f6e389906024016020604051808303816000875af1158015610e12573d6000803e3d6000fd5b505050506040513d601f19601f82011682018060405250810190610e36919061274a565b610e6357604051635912aaef60e01b81526001600160a01b03821660048201526024015b60405180910390fd5b6000610e70610b6c6118a8565b905060005b83811015610bfa57610ead82868684818110610e9357610e936126fa565b9050602002016020810190610ea891906125d2565b611a13565b50600101610e75565b6000546040805163d09edf3160e01b81529051610f01926001600160a01b03169163d09edf319160048083019260209291908290030181865afa1580156106bf573d6000803e3d6000fd5b60008054906101000a90046001600160a01b03166001600160a01b031663d09edf316040518163ffffffff1660e01b8152600401602060405180830381865afa158015610f52573d6000803e3d6000fd5b505050506040513d601f19601f82011682018060405250810190610f76919061263d565b6040517fe1788154000000000000000000000000000000000000000000000000000000008152600481018490526001600160a01b038381166024830152919091169063e1788154906044015b600060405180830381600087803b158015610fdc57600080fd5b505af1158015610bfa573d6000803e3d6000fd5b6040805160808101825260018054825260025460208301526003805460009461113b9493929084019161102290612710565b80601f016020809104026020016040519081016040528092919081815260200182805461104e90612710565b801561109b5780601f106110705761010080835404028352916020019161109b565b820191906000526020600020905b81548152906001019060200180831161107e57829003601f168201915b505050505081526020016003820180546110b490612710565b80601f01602080910402602001604051908101604052809291908181526020018280546110e090612710565b801561112d5780601f106111025761010080835404028352916020019161112d565b820191906000526020600020905b81548152906001019060200180831161111057829003601f168201915b505050505081525050611cb7565b905090565b6111486118a8565b6000546001600160a01b03166040516342f6e38960e01b81526001600160a01b03838116600483015291909116906342f6e389906024016020604051808303816000875af115801561119e573d6000803e3d6000fd5b505050506040513d601f19601f820116820180604052508101906111c2919061274a565b6111ea57604051635912aaef60e01b81526001600160a01b0382166004820152602401610e5a565b60006111f7610b6c6118a8565b905060005b83811015610bfa5761121a82868684818110610bd757610bd76126fa565b506001016111fc565b60008060009054906101000a90046001600160a01b03166001600160a01b0316637da0a8776040518163ffffffff1660e01b8152600401602060405180830381865afa158015611277573d6000803e3d6000fd5b505050506040513d601f19601f8201168201806040525081019061113b919061263d565b60008281527fc1f6fe24621ce81ec5827caf0253cadb74709b061630e6b55e823717059320006020819052604082206112d49084611cf7565b949350505050565b633078303160e01b6112ed816119ff565b6000611304610d596000546001600160a01b031690565b9050610dad8184611a6a565b6113186118a8565b6000546001600160a01b03166040516342f6e38960e01b81526001600160a01b03838116600483015291909116906342f6e389906024016020604051808303816000875af115801561136e573d6000803e3d6000fd5b505050506040513d601f19601f82011682018060405250810190611392919061274a565b6113ba57604051635912aaef60e01b81526001600160a01b0382166004820152602401610e5a565b6000611304610d596118a8565b6000546040805163d09edf3160e01b81529051611412926001600160a01b03169163d09edf319160048083019260209291908290030181865afa1580156106bf573d6000803e3d6000fd5b60008054906101000a90046001600160a01b03166001600160a01b031663d09edf316040518163ffffffff1660e01b8152600401602060405180830381865afa158015611463573d6000803e3d6000fd5b505050506040513d601f19601f82011682018060405250810190611487919061263d565b6040517fba66f9fc000000000000000000000000000000000000000000000000000000008152600481018490526001600160a01b038381166024830152919091169063ba66f9fc90604401610fc2565b60008181527fc1f6fe24621ce81ec5827caf0253cadb74709b061630e6b55e8237170593200060208190526040822061150f90611d03565b9392505050565b60008281527f02dd7bc7dec4dceedda775e58dd541e08a116c6c53815c0bd028192f7b6268006020526040902060010154611550816119ff565b61095f8383611a6a565b6115626118a8565b6000546001600160a01b03166040516342f6e38960e01b81526001600160a01b03838116600483015291909116906342f6e389906024016020604051808303816000875af11580156115b8573d6000803e3d6000fd5b505050506040513d601f19601f820116820180604052508101906115dc919061274a565b61160457604051635912aaef60e01b81526001600160a01b0382166004820152602401610e5a565b6000610da1610d596118a8565b60008281527f02dd7bc7dec4dceedda775e58dd541e08a116c6c53815c0bd028192f7b626800602052604090206001015461164b816119ff565b6109c18383611d0d565b61165d6118a8565b6000546001600160a01b03166040516342f6e38960e01b81526001600160a01b03838116600483015291909116906342f6e389906024016020604051808303816000875af11580156116b3573d6000803e3d6000fd5b505050506040513d601f19601f820116820180604052508101906116d7919061274a565b6116ff57604051635912aaef60e01b81526001600160a01b0382166004820152602401610e5a565b600061175461170c6118a8565b846040516bffffffffffffffffffffffff19606084901b1660208201526034810182905260009060540160405160208183030381529060405280519060200120905092915050565b90506109c181600019611d0d565b633078303160e01b611773816119ff565b600061178a610b6c6000546001600160a01b031690565b905060005b83811015610bfa576117ad82868684818110610e9357610e936126fa565b5060010161178f565b6000806117c4610d596118a8565b60008181527f02dd7bc7dec4dceedda775e58dd541e08a116c6c53815c0bd028192f7b626800602090815260408083206001600160a01b038816845290915290205490915060ff166112d4565b60007fffffffff0000000000000000000000000000000000000000000000000000000082167f179dfb4500000000000000000000000000000000000000000000000000000000148061066e57507f01ffc9a7000000000000000000000000000000000000000000000000000000007fffffffff0000000000000000000000000000000000000000000000000000000083161461066e565b600061113b611db1565b60008054906101000a90046001600160a01b03166001600160a01b031663d09edf316040518163ffffffff1660e01b8152600401602060405180830381865afa158015611903573d6000803e3d6000fd5b505050506040513d601f19601f82011682018060405250810190611927919061263d565b6040517f91d14854000000000000000000000000000000000000000000000000000000008152600481018490526001600160a01b03838116602483015291909116906391d1485490604401602060405180830381865afa15801561198f573d6000803e3d6000fd5b505050506040513d601f19601f820116820180604052508101906119b3919061274a565b6119fb576040517f42abbb77000000000000000000000000000000000000000000000000000000008152600481018390526001600160a01b0382166024820152604401610e5a565b5050565b611a1081611a0b6118a8565b611e03565b50565b60007fc1f6fe24621ce81ec5827caf0253cadb74709b061630e6b55e8237170593200081611a418585611e90565b905080156112d4576000858152602083905260409020611a619085611f60565b50949350505050565b600082633078303160e01b81148015611a9357506001611a90633078303160e01b6114d7565b11155b15611aca576040517f2cbba9ff00000000000000000000000000000000000000000000000000000000815260040160405180910390fd5b6112d48484611f75565b611adc611fc3565b6001600160a01b038216611b1c576040517f7280679300000000000000000000000000000000000000000000000000000000815260040160405180910390fd5b600080547fffffffffffffffffffffffff0000000000000000000000000000000000000000166001600160a01b038416179055611b588161202c565b611b8e576040517f7511254100000000000000000000000000000000000000000000000000000000815260040160405180910390fd5b8051600190815560208201516002556040820151829190600390611bb290826127b4565b5060608201516003820190611bc790826127b4565b5050506060810151604051611bdc9190612874565b604080519182900382208351602080860151918552840152916001600160a01b038516917feb175f148a71d29a5f7bf5439182fcd81e6ea9cfc8a11b54ab0f705fa98fa8ca910160405180910390a35050565b611c37611fc3565b611c48633078303160e01b80611d0d565b611c5a6000633078303160e01b611d0d565b611c7263183c181960e11b633078303160e01b611d0d565b611c8363183c181960e11b82611a13565b506001600160a01b03821615611ca4576109c1633078303160e01b83611a13565b6109c1633078303160e01b610ea86118a8565b6000816000015182604001518360600151604051602001611cda93929190612890565b604051602081830303815290604052805190602001209050919050565b600061150f838361207e565b600061066e825490565b7f02dd7bc7dec4dceedda775e58dd541e08a116c6c53815c0bd028192f7b6268006000611d688460009081527f02dd7bc7dec4dceedda775e58dd541e08a116c6c53815c0bd028192f7b626800602052604090206001015490565b600085815260208490526040808220600101869055519192508491839187917fbd79b86ffe0ab8e8776151514217cd7cacd52c909f66475c3af44e129f0b00ff9190a450505050565b6000366014611dbf33610ca9565b8015611dcb5750808210155b15611dfb57600036611ddd83856128cd565b611de89282906128ee565b611df191612918565b60601c9250505090565b339250505090565b60008281527f02dd7bc7dec4dceedda775e58dd541e08a116c6c53815c0bd028192f7b626800602090815260408083206001600160a01b038516845290915290205460ff166119fb576040517fe2517d3f0000000000000000000000000000000000000000000000000000000081526001600160a01b038216600482015260248101839052604401610e5a565b60008281527f02dd7bc7dec4dceedda775e58dd541e08a116c6c53815c0bd028192f7b626800602081815260408084206001600160a01b038616855290915282205460ff16611f56576000848152602082815260408083206001600160a01b03871684529091529020805460ff19166001179055611f0c6118a8565b6001600160a01b0316836001600160a01b0316857f2f8788117e7eff1d82e926ec794901d17c78024a50270940304540a733656f0d60405160405180910390a4600191505061066e565b600091505061066e565b600061150f836001600160a01b0384166120a8565b60007fc1f6fe24621ce81ec5827caf0253cadb74709b061630e6b55e8237170593200081611fa385856120f7565b905080156112d4576000858152602083905260409020611a6190856121bb565b7ff0c57e16840df040f15088dc2f81fe391c3923bec73e23a9662efc9c229c6a005468010000000000000000900460ff1661202a576040517fd7e6bcf800000000000000000000000000000000000000000000000000000000815260040160405180910390fd5b565b600081604001515160000361204357506000919050565b81606001515160000361205857506000919050565b815115801561206957506020820151155b1561207657506000919050565b506001919050565b6000826000018281548110612095576120956126fa565b9060005260206000200154905092915050565b60008181526001830160205260408120546120ef5750815460018181018455600084815260208082209093018490558454848252828601909352604090209190915561066e565b50600061066e565b60008281527f02dd7bc7dec4dceedda775e58dd541e08a116c6c53815c0bd028192f7b626800602081815260408084206001600160a01b038616855290915282205460ff1615611f56576000848152602082815260408083206001600160a01b03871684529091529020805460ff191690556121716118a8565b6001600160a01b0316836001600160a01b0316857ff6391f5c32d9c69d2a47ea670b442974b53935d1edc7fd64eb21e047a839171b60405160405180910390a4600191505061066e565b600061150f836001600160a01b03841660008181526001830160205260408120548015611f565760006121ef6001836128cd565b8554909150600090612203906001906128cd565b9050808214612268576000866000018281548110612223576122236126fa565b9060005260206000200154905080876000018481548110612246576122466126fa565b6000918252602080832090910192909255918252600188019052604090208390555b85548690806122795761227961294d565b60019003818190600052602060002001600090559055856001016000868152602001908152602001600020600090556001935050505061066e565b6000602082840312156122c657600080fd5b81357fffffffff000000000000000000000000000000000000000000000000000000008116811461150f57600080fd5b60006020828403121561230857600080fd5b5035919050565b60008060006040848603121561232457600080fd5b83359250602084013567ffffffffffffffff8082111561234357600080fd5b818601915086601f83011261235757600080fd5b81358181111561236657600080fd5b8760208260051b850101111561237b57600080fd5b6020830194508093505050509250925092565b6001600160a01b0381168114611a1057600080fd5b600080604083850312156123b657600080fd5b8235915060208301356123c88161238e565b809150509250929050565b634e487b7160e01b600052604160045260246000fd5b6040516080810167ffffffffffffffff8111828210171561240c5761240c6123d3565b60405290565b600082601f83011261242357600080fd5b813567ffffffffffffffff8082111561243e5761243e6123d3565b604051601f8301601f19908116603f01168101908282118183101715612466576124666123d3565b8160405283815286602085880101111561247f57600080fd5b836020870160208301376000602085830101528094505050505092915050565b6000806000606084860312156124b457600080fd5b83356124bf8161238e565b9250602084013567ffffffffffffffff808211156124dc57600080fd5b90850190608082880312156124f057600080fd5b6124f86123e9565b823581526020830135602082015260408301358281111561251857600080fd5b61252489828601612412565b60408301525060608301358281111561253c57600080fd5b61254889828601612412565b6060830152509350604086013591508082111561256457600080fd5b5061257186828701612412565b9150509250925092565b60005b8381101561259657818101518382015260200161257e565b50506000910152565b60208152600082518060208401526125be81604085016020870161257b565b601f01601f19169190910160400192915050565b6000602082840312156125e457600080fd5b813561150f8161238e565b6000806040838503121561260257600080fd5b50508035926020909101359150565b6000806040838503121561262457600080fd5b823561262f8161238e565b946020939093013593505050565b60006020828403121561264f57600080fd5b815161150f8161238e565b60006020828403121561266c57600080fd5b5051919050565b83815260406020808301829052908201839052600090849060608401835b868110156126bf5783356126a48161238e565b6001600160a01b031682529282019290820190600101612691565b50979650505050505050565b600080604083850312156126de57600080fd5b82516126e98161238e565b60208401519092506123c88161238e565b634e487b7160e01b600052603260045260246000fd5b600181811c9082168061272457607f821691505b60208210810361274457634e487b7160e01b600052602260045260246000fd5b50919050565b60006020828403121561275c57600080fd5b8151801515811461150f57600080fd5b601f8211156109c1576000816000526020600020601f850160051c810160208610156127955750805b601f850160051c820191505b81811015610bfa578281556001016127a1565b815167ffffffffffffffff8111156127ce576127ce6123d3565b6127e2816127dc8454612710565b8461276c565b602080601f83116001811461281757600084156127ff5750858301515b600019600386901b1c1916600185901b178555610bfa565b600085815260208120601f198616915b8281101561284657888601518255948401946001909101908401612827565b50858210156128645787850151600019600388901b60f8161c191681555b5050505050600190811b01905550565b6000825161288681846020870161257b565b9190910192915050565b838152600083516128a881602085016020880161257b565b808301905083516128c081602084016020880161257b565b0160200195945050505050565b8181038181111561066e57634e487b7160e01b600052601160045260246000fd5b600080858511156128fe57600080fd5b8386111561290b57600080fd5b5050820193919092039150565b6bffffffffffffffffffffffff1981358181169160148510156129455780818660140360031b1b83161692505b505092915050565b634e487b7160e01b600052603160045260246000fdfea2646970667358221220bc4aba04d949487e049e267000bef51e1fccf834ca89e3605764f2db293213f564736f6c63430008170033",
    "linkReferences": {}
  },
  "methodIdentifiers": {
    "BURN_ADMIN_ROLE()": "b3cb1991",
    "DEFAULT_ADMIN_ROLE()": "a217fddf",
    "ORCHESTRATOR_MANAGER_ROLE()": "5b58890e",
    "ORCHESTRATOR_OWNER_ROLE()": "fb312778",
    "burnAdminFromModuleRole(bytes32)": "e99b6e13",
    "generateRoleId(address,bytes32)": "fdd5205f",
    "getManagerRole()": "328c4c30",
    "getOwnerRole()": "55ff58d4",
    "getRoleAdmin(bytes32)": "248a9ca3",
    "getRoleMember(bytes32,uint256)": "9010d07c",
    "getRoleMemberCount(bytes32)": "ca15c873",
    "grantGlobalRole(bytes32,address)": "61bcd0c4",
    "grantGlobalRoleBatched(bytes32,address[])": "ee2d0968",
    "grantModuleRole(bytes32,address)": "6c67e807",
    "grantModuleRoleBatched(bytes32,address[])": "272bbd44",
    "grantRole(bytes32,address)": "2f2ff15d",
    "grantRoleFromModule(bytes32,address)": "e1788154",
    "grantRoleFromModuleBatched(bytes32,address[])": "64815453",
    "hasModuleRole(bytes32,address)": "f3aafa70",
    "hasRole(bytes32,address)": "91d14854",
    "identifier()": "7998a1c4",
    "init(address,(uint256,uint256,string,string),bytes)": "42dfe958",
    "isTrustedForwarder(address)": "572b6c05",
    "orchestrator()": "b74795d9",
    "renounceRole(bytes32,address)": "36568abe",
    "revokeGlobalRole(bytes32,address)": "99df6ff1",
    "revokeGlobalRoleBatched(bytes32,address[])": "49eb42f1",
    "revokeModuleRole(bytes32,address)": "bcb61920",
    "revokeModuleRoleBatched(bytes32,address[])": "24e30270",
    "revokeRole(bytes32,address)": "d547741f",
    "revokeRoleFromModule(bytes32,address)": "ba66f9fc",
    "revokeRoleFromModuleBatched(bytes32,address[])": "7d540a64",
    "supportsInterface(bytes4)": "01ffc9a7",
    "title()": "4a79d50c",
    "transferAdminRole(bytes32,bytes32)": "e38a584c",
    "trustedForwarder()": "7da0a877",
    "url()": "5600f04f",
    "version()": "54fd4d50"
  },
  "id": 112
}