{
  "abi": [
    {
      "type": "function",
      "name": "BURN_ADMIN_ROLE",
      "inputs": [],
      "outputs": [
        {
          "name": "",
          "type": "bytes32",
          "internalType": "bytes32"
        }
      ],
      "stateMutability": "view"
    },
    {
      "type": "function",
      "name": "DEFAULT_ADMIN_ROLE",
      "inputs": [],
      "outputs": [
        {
          "name": "",
          "type": "bytes32",
          "internalType": "bytes32"
        }
      ],
      "stateMutability": "view"
    },
    {
      "type": "function",
      "name": "ORCHESTRATOR_MANAGER_ROLE",
      "inputs": [],
      "outputs": [
        {
          "name": "",
          "type": "bytes32",
          "internalType": "bytes32"
        }
      ],
      "stateMutability": "view"
    },
    {
      "type": "function",
      "name": "ORCHESTRATOR_OWNER_ROLE",
      "inputs": [],
      "outputs": [
        {
          "name": "",
          "type": "bytes32",
          "internalType": "bytes32"
        }
      ],
      "stateMutability": "view"
    },
    {
      "type": "function",
      "name": "burnAdminFromModuleRole",
      "inputs": [
        {
          "name": "role",
          "type": "bytes32",
          "internalType": "bytes32"
        }
      ],
      "outputs": [],
      "stateMutability": "nonpayable"
    },
    {
      "type": "function",
      "name": "generateRoleId",
      "inputs": [
        {
          "name": "module",
          "type": "address",
          "internalType": "address"
        },
        {
          "name": "role",
          "type": "bytes32",
          "internalType": "bytes32"
        }
      ],
      "outputs": [
        {
          "name": "",
          "type": "bytes32",
          "internalType": "bytes32"
        }
      ],
      "stateMutability": "pure"
    },
    {
      "type": "function",
      "name": "getManagerRole",
      "inputs": [],
      "outputs": [
        {
          "name": "",
          "type": "bytes32",
          "internalType": "bytes32"
        }
      ],
      "stateMutability": "pure"
    },
    {
      "type": "function",
      "name": "getOwnerRole",
      "inputs": [],
      "outputs": [
        {
          "name": "",
          "type": "bytes32",
          "internalType": "bytes32"
        }
      ],
      "stateMutability": "pure"
    },
    {
      "type": "function",
      "name": "getRoleAdmin",
      "inputs": [
        {
          "name": "role",
          "type": "bytes32",
          "internalType": "bytes32"
        }
      ],
      "outputs": [
        {
          "name": "",
          "type": "bytes32",
          "internalType": "bytes32"
        }
      ],
      "stateMutability": "view"
    },
    {
      "type": "function",
      "name": "getRoleMember",
      "inputs": [
        {
          "name": "role",
          "type": "bytes32",
          "internalType": "bytes32"
        },
        {
          "name": "index",
          "type": "uint256",
          "internalType": "uint256"
        }
      ],
      "outputs": [
        {
          "name": "",
          "type": "address",
          "internalType": "address"
        }
      ],
      "stateMutability": "view"
    },
    {
      "type": "function",
      "name": "getRoleMemberCount",
      "inputs": [
        {
          "name": "role",
          "type": "bytes32",
          "internalType": "bytes32"
        }
      ],
      "outputs": [
        {
          "name": "",
          "type": "uint256",
          "internalType": "uint256"
        }
      ],
      "stateMutability": "view"
    },
    {
      "type": "function",
      "name": "getThresholdValue",
      "inputs": [
        {
          "name": "roleId",
          "type": "bytes32",
          "internalType": "bytes32"
        },
        {
          "name": "token",
          "type": "address",
          "internalType": "address"
        }
      ],
      "outputs": [
        {
          "name": "",
          "type": "uint256",
          "internalType": "uint256"
        }
      ],
      "stateMutability": "view"
    },
    {
      "type": "function",
      "name": "grantGlobalRole",
      "inputs": [
        {
          "name": "role",
          "type": "bytes32",
          "internalType": "bytes32"
        },
        {
          "name": "target",
          "type": "address",
          "internalType": "address"
        }
      ],
      "outputs": [],
      "stateMutability": "nonpayable"
    },
    {
      "type": "function",
      "name": "grantGlobalRoleBatched",
      "inputs": [
        {
          "name": "role",
          "type": "bytes32",
          "internalType": "bytes32"
        },
        {
          "name": "targets",
          "type": "address[]",
          "internalType": "address[]"
        }
      ],
      "outputs": [],
      "stateMutability": "nonpayable"
    },
    {
      "type": "function",
      "name": "grantModuleRole",
      "inputs": [
        {
          "name": "role",
          "type": "bytes32",
          "internalType": "bytes32"
        },
        {
          "name": "target",
          "type": "address",
          "internalType": "address"
        }
      ],
      "outputs": [],
      "stateMutability": "nonpayable"
    },
    {
      "type": "function",
      "name": "grantModuleRoleBatched",
      "inputs": [
        {
          "name": "role",
          "type": "bytes32",
          "internalType": "bytes32"
        },
        {
          "name": "targets",
          "type": "address[]",
          "internalType": "address[]"
        }
      ],
      "outputs": [],
      "stateMutability": "nonpayable"
    },
    {
      "type": "function",
      "name": "grantRole",
      "inputs": [
        {
          "name": "role",
          "type": "bytes32",
          "internalType": "bytes32"
        },
        {
          "name": "account",
          "type": "address",
          "internalType": "address"
        }
      ],
      "outputs": [],
      "stateMutability": "nonpayable"
    },
    {
      "type": "function",
      "name": "grantRoleFromModule",
      "inputs": [
        {
          "name": "role",
          "type": "bytes32",
          "internalType": "bytes32"
        },
        {
          "name": "target",
          "type": "address",
          "internalType": "address"
        }
      ],
      "outputs": [],
      "stateMutability": "nonpayable"
    },
    {
      "type": "function",
      "name": "grantRoleFromModuleBatched",
      "inputs": [
        {
          "name": "role",
          "type": "bytes32",
          "internalType": "bytes32"
        },
        {
          "name": "targets",
          "type": "address[]",
          "internalType": "address[]"
        }
      ],
      "outputs": [],
      "stateMutability": "nonpayable"
    },
    {
      "type": "function",
      "name": "grantTokenRoleFromModule",
      "inputs": [
        {
          "name": "role",
          "type": "bytes32",
          "internalType": "bytes32"
        },
        {
          "name": "token",
          "type": "address",
          "internalType": "address"
        },
        {
          "name": "threshold",
          "type": "uint256",
          "internalType": "uint256"
        }
      ],
      "outputs": [],
      "stateMutability": "nonpayable"
    },
    {
      "type": "function",
      "name": "hasModuleRole",
      "inputs": [
        {
          "name": "role",
          "type": "bytes32",
          "internalType": "bytes32"
        },
        {
          "name": "who",
          "type": "address",
          "internalType": "address"
        }
      ],
      "outputs": [
        {
          "name": "",
          "type": "bool",
          "internalType": "bool"
        }
      ],
      "stateMutability": "view"
    },
    {
      "type": "function",
      "name": "hasRole",
      "inputs": [
        {
          "name": "roleId",
          "type": "bytes32",
          "internalType": "bytes32"
        },
        {
          "name": "account",
          "type": "address",
          "internalType": "address"
        }
      ],
      "outputs": [
        {
          "name": "",
          "type": "bool",
          "internalType": "bool"
        }
      ],
      "stateMutability": "view"
    },
    {
      "type": "function",
      "name": "hasTokenRole",
      "inputs": [
        {
          "name": "role",
          "type": "bytes32",
          "internalType": "bytes32"
        },
        {
          "name": "who",
          "type": "address",
          "internalType": "address"
        }
      ],
      "outputs": [
        {
          "name": "",
          "type": "bool",
          "internalType": "bool"
        }
      ],
      "stateMutability": "view"
    },
    {
      "type": "function",
      "name": "identifier",
      "inputs": [],
      "outputs": [
        {
          "name": "",
          "type": "bytes32",
          "internalType": "bytes32"
        }
      ],
      "stateMutability": "view"
    },
    {
      "type": "function",
      "name": "init",
      "inputs": [
        {
          "name": "orchestrator_",
          "type": "address",
          "internalType": "contract IOrchestrator_v1"
        },
        {
          "name": "metadata",
          "type": "tuple",
          "internalType": "struct IModule_v1.Metadata",
          "components": [
            {
              "name": "majorVersion",
              "type": "uint256",
              "internalType": "uint256"
            },
            {
              "name": "minorVersion",
              "type": "uint256",
              "internalType": "uint256"
            },
            {
              "name": "url",
              "type": "string",
              "internalType": "string"
            },
            {
              "name": "title",
              "type": "string",
              "internalType": "string"
            }
          ]
        },
        {
          "name": "configData",
          "type": "bytes",
          "internalType": "bytes"
        }
      ],
      "outputs": [],
      "stateMutability": "nonpayable"
    },
    {
      "type": "function",
      "name": "isTokenGated",
      "inputs": [
        {
          "name": "",
          "type": "bytes32",
          "internalType": "bytes32"
        }
      ],
      "outputs": [
        {
          "name": "",
          "type": "bool",
          "internalType": "bool"
        }
      ],
      "stateMutability": "view"
    },
    {
      "type": "function",
      "name": "isTrustedForwarder",
      "inputs": [
        {
          "name": "forwarder",
          "type": "address",
          "internalType": "address"
        }
      ],
      "outputs": [
        {
          "name": "",
          "type": "bool",
          "internalType": "bool"
        }
      ],
      "stateMutability": "view"
    },
    {
      "type": "function",
      "name": "makeRoleTokenGatedFromModule",
      "inputs": [
        {
          "name": "role",
          "type": "bytes32",
          "internalType": "bytes32"
        }
      ],
      "outputs": [],
      "stateMutability": "nonpayable"
    },
    {
      "type": "function",
      "name": "orchestrator",
      "inputs": [],
      "outputs": [
        {
          "name": "",
          "type": "address",
          "internalType": "contract IOrchestrator_v1"
        }
      ],
      "stateMutability": "view"
    },
    {
      "type": "function",
      "name": "renounceRole",
      "inputs": [
        {
          "name": "role",
          "type": "bytes32",
          "internalType": "bytes32"
        },
        {
          "name": "callerConfirmation",
          "type": "address",
          "internalType": "address"
        }
      ],
      "outputs": [],
      "stateMutability": "nonpayable"
    },
    {
      "type": "function",
      "name": "revokeGlobalRole",
      "inputs": [
        {
          "name": "role",
          "type": "bytes32",
          "internalType": "bytes32"
        },
        {
          "name": "target",
          "type": "address",
          "internalType": "address"
        }
      ],
      "outputs": [],
      "stateMutability": "nonpayable"
    },
    {
      "type": "function",
      "name": "revokeGlobalRoleBatched",
      "inputs": [
        {
          "name": "role",
          "type": "bytes32",
          "internalType": "bytes32"
        },
        {
          "name": "targets",
          "type": "address[]",
          "internalType": "address[]"
        }
      ],
      "outputs": [],
      "stateMutability": "nonpayable"
    },
    {
      "type": "function",
      "name": "revokeModuleRole",
      "inputs": [
        {
          "name": "role",
          "type": "bytes32",
          "internalType": "bytes32"
        },
        {
          "name": "target",
          "type": "address",
          "internalType": "address"
        }
      ],
      "outputs": [],
      "stateMutability": "nonpayable"
    },
    {
      "type": "function",
      "name": "revokeModuleRoleBatched",
      "inputs": [
        {
          "name": "role",
          "type": "bytes32",
          "internalType": "bytes32"
        },
        {
          "name": "targets",
          "type": "address[]",
          "internalType": "address[]"
        }
      ],
      "outputs": [],
      "stateMutability": "nonpayable"
    },
    {
      "type": "function",
      "name": "revokeRole",
      "inputs": [
        {
          "name": "role",
          "type": "bytes32",
          "internalType": "bytes32"
        },
        {
          "name": "account",
          "type": "address",
          "internalType": "address"
        }
      ],
      "outputs": [],
      "stateMutability": "nonpayable"
    },
    {
      "type": "function",
      "name": "revokeRoleFromModule",
      "inputs": [
        {
          "name": "role",
          "type": "bytes32",
          "internalType": "bytes32"
        },
        {
          "name": "target",
          "type": "address",
          "internalType": "address"
        }
      ],
      "outputs": [],
      "stateMutability": "nonpayable"
    },
    {
      "type": "function",
      "name": "revokeRoleFromModuleBatched",
      "inputs": [
        {
          "name": "role",
          "type": "bytes32",
          "internalType": "bytes32"
        },
        {
          "name": "targets",
          "type": "address[]",
          "internalType": "address[]"
        }
      ],
      "outputs": [],
      "stateMutability": "nonpayable"
    },
    {
      "type": "function",
      "name": "setThreshold",
      "inputs": [
        {
          "name": "roleId",
          "type": "bytes32",
          "internalType": "bytes32"
        },
        {
          "name": "token",
          "type": "address",
          "internalType": "address"
        },
        {
          "name": "threshold",
          "type": "uint256",
          "internalType": "uint256"
        }
      ],
      "outputs": [],
      "stateMutability": "nonpayable"
    },
    {
      "type": "function",
      "name": "setThresholdFromModule",
      "inputs": [
        {
          "name": "role",
          "type": "bytes32",
          "internalType": "bytes32"
        },
        {
          "name": "token",
          "type": "address",
          "internalType": "address"
        },
        {
          "name": "threshold",
          "type": "uint256",
          "internalType": "uint256"
        }
      ],
      "outputs": [],
      "stateMutability": "nonpayable"
    },
    {
      "type": "function",
      "name": "setTokenGated",
      "inputs": [
        {
          "name": "role",
          "type": "bytes32",
          "internalType": "bytes32"
        },
        {
          "name": "to",
          "type": "bool",
          "internalType": "bool"
        }
      ],
      "outputs": [],
      "stateMutability": "nonpayable"
    },
    {
      "type": "function",
      "name": "supportsInterface",
      "inputs": [
        {
          "name": "interfaceId",
          "type": "bytes4",
          "internalType": "bytes4"
        }
      ],
      "outputs": [
        {
          "name": "",
          "type": "bool",
          "internalType": "bool"
        }
      ],
      "stateMutability": "view"
    },
    {
      "type": "function",
      "name": "thresholdMap",
      "inputs": [
        {
          "name": "",
          "type": "bytes32",
          "internalType": "bytes32"
        }
      ],
      "outputs": [
        {
          "name": "",
          "type": "uint256",
          "internalType": "uint256"
        }
      ],
      "stateMutability": "view"
    },
    {
      "type": "function",
      "name": "title",
      "inputs": [],
      "outputs": [
        {
          "name": "",
          "type": "string",
          "internalType": "string"
        }
      ],
      "stateMutability": "view"
    },
    {
      "type": "function",
      "name": "transferAdminRole",
      "inputs": [
        {
          "name": "roleId",
          "type": "bytes32",
          "internalType": "bytes32"
        },
        {
          "name": "newAdmin",
          "type": "bytes32",
          "internalType": "bytes32"
        }
      ],
      "outputs": [],
      "stateMutability": "nonpayable"
    },
    {
      "type": "function",
      "name": "trustedForwarder",
      "inputs": [],
      "outputs": [
        {
          "name": "",
          "type": "address",
          "internalType": "address"
        }
      ],
      "stateMutability": "view"
    },
    {
      "type": "function",
      "name": "url",
      "inputs": [],
      "outputs": [
        {
          "name": "",
          "type": "string",
          "internalType": "string"
        }
      ],
      "stateMutability": "view"
    },
    {
      "type": "function",
      "name": "version",
      "inputs": [],
      "outputs": [
        {
          "name": "",
          "type": "uint256",
          "internalType": "uint256"
        },
        {
          "name": "",
          "type": "uint256",
          "internalType": "uint256"
        }
      ],
      "stateMutability": "view"
    },
    {
      "type": "event",
      "name": "ChangedTokenGating",
      "inputs": [
        {
          "name": "role",
          "type": "bytes32",
          "indexed": false,
          "internalType": "bytes32"
        },
        {
          "name": "newValue",
          "type": "bool",
          "indexed": false,
          "internalType": "bool"
        }
      ],
      "anonymous": false
    },
    {
      "type": "event",
      "name": "ChangedTokenThreshold",
      "inputs": [
        {
          "name": "role",
          "type": "bytes32",
          "indexed": false,
          "internalType": "bytes32"
        },
        {
          "name": "token",
          "type": "address",
          "indexed": false,
          "internalType": "address"
        },
        {
          "name": "newValue",
          "type": "uint256",
          "indexed": false,
          "internalType": "uint256"
        }
      ],
      "anonymous": false
    },
    {
      "type": "event",
      "name": "Initialized",
      "inputs": [
        {
          "name": "version",
          "type": "uint64",
          "indexed": false,
          "internalType": "uint64"
        }
      ],
      "anonymous": false
    },
    {
      "type": "event",
      "name": "ModuleInitialized",
      "inputs": [
        {
          "name": "parentOrchestrator",
          "type": "address",
          "indexed": true,
          "internalType": "address"
        },
        {
          "name": "moduleTitle",
          "type": "string",
          "indexed": true,
          "internalType": "string"
        },
        {
          "name": "majorVersion",
          "type": "uint256",
          "indexed": false,
          "internalType": "uint256"
        },
        {
          "name": "minorVersion",
          "type": "uint256",
          "indexed": false,
          "internalType": "uint256"
        }
      ],
      "anonymous": false
    },
    {
      "type": "event",
      "name": "RoleAdminChanged",
      "inputs": [
        {
          "name": "role",
          "type": "bytes32",
          "indexed": true,
          "internalType": "bytes32"
        },
        {
          "name": "previousAdminRole",
          "type": "bytes32",
          "indexed": true,
          "internalType": "bytes32"
        },
        {
          "name": "newAdminRole",
          "type": "bytes32",
          "indexed": true,
          "internalType": "bytes32"
        }
      ],
      "anonymous": false
    },
    {
      "type": "event",
      "name": "RoleGranted",
      "inputs": [
        {
          "name": "role",
          "type": "bytes32",
          "indexed": true,
          "internalType": "bytes32"
        },
        {
          "name": "account",
          "type": "address",
          "indexed": true,
          "internalType": "address"
        },
        {
          "name": "sender",
          "type": "address",
          "indexed": true,
          "internalType": "address"
        }
      ],
      "anonymous": false
    },
    {
      "type": "event",
      "name": "RoleRevoked",
      "inputs": [
        {
          "name": "role",
          "type": "bytes32",
          "indexed": true,
          "internalType": "bytes32"
        },
        {
          "name": "account",
          "type": "address",
          "indexed": true,
          "internalType": "address"
        },
        {
          "name": "sender",
          "type": "address",
          "indexed": true,
          "internalType": "address"
        }
      ],
      "anonymous": false
    },
    {
      "type": "error",
      "name": "AccessControlBadConfirmation",
      "inputs": []
    },
    {
      "type": "error",
      "name": "AccessControlUnauthorizedAccount",
      "inputs": [
        {
          "name": "account",
          "type": "address",
          "internalType": "address"
        },
        {
          "name": "neededRole",
          "type": "bytes32",
          "internalType": "bytes32"
        }
      ]
    },
    {
      "type": "error",
      "name": "InvalidInitialization",
      "inputs": []
    },
    {
      "type": "error",
      "name": "Module_OrchestratorCallbackFailed",
      "inputs": [
        {
          "name": "funcSig",
          "type": "string",
          "internalType": "string"
        }
      ]
    },
    {
      "type": "error",
      "name": "Module__AUT_TokenGated_Roles__InvalidThreshold",
      "inputs": [
        {
          "name": "threshold",
          "type": "uint256",
          "internalType": "uint256"
        }
      ]
    },
    {
      "type": "error",
      "name": "Module__AUT_TokenGated_Roles__InvalidToken",
      "inputs": [
        {
          "name": "token",
          "type": "address",
          "internalType": "address"
        }
      ]
    },
    {
      "type": "error",
      "name": "Module__AUT_TokenGated_Roles__RoleNotEmpty",
      "inputs": []
    },
    {
      "type": "error",
      "name": "Module__AUT_TokenGated_Roles__RoleNotTokenGated",
      "inputs": []
    },
    {
      "type": "error",
      "name": "Module__Authorizer__ModuleNotSelfManaged",
      "inputs": []
    },
    {
      "type": "error",
      "name": "Module__Authorizer__NotActiveModule",
      "inputs": [
        {
          "name": "module",
          "type": "address",
          "internalType": "address"
        }
      ]
    },
    {
      "type": "error",
      "name": "Module__Authorizer__OwnerRoleCannotBeEmpty",
      "inputs": []
    },
    {
      "type": "error",
      "name": "Module__CallerNotAuthorized",
      "inputs": [
        {
          "name": "role",
          "type": "bytes32",
          "internalType": "bytes32"
        },
        {
          "name": "caller",
          "type": "address",
          "internalType": "address"
        }
      ]
    },
    {
      "type": "error",
      "name": "Module__InvalidMetadata",
      "inputs": []
    },
    {
      "type": "error",
      "name": "Module__InvalidOrchestratorAddress",
      "inputs": []
    },
    {
      "type": "error",
      "name": "Module__OnlyCallableByOrchestrator",
      "inputs": []
    },
    {
      "type": "error",
      "name": "NotInitializing",
      "inputs": []
    }
  ],
  "bytecode": {
    "object": "0x60a06040523480156200001157600080fd5b5060006080526200002162000035565b6200002f60001980620000e9565b6200018e565b7ff0c57e16840df040f15088dc2f81fe391c3923bec73e23a9662efc9c229c6a00805468010000000000000000900460ff1615620000865760405163f92ee8a960e01b815260040160405180910390fd5b80546001600160401b0390811614620000e65780546001600160401b0319166001600160401b0390811782556040519081527fc7f505b2f371ae2175ee4913f4499e1f2633a7b5936321eed1cdaeb6115181d29060200160405180910390a15b50565b7f02dd7bc7dec4dceedda775e58dd541e08a116c6c53815c0bd028192f7b6268006000620001458460009081527f02dd7bc7dec4dceedda775e58dd541e08a116c6c53815c0bd028192f7b626800602052604090206001015490565b600085815260208490526040808220600101869055519192508491839187917fbd79b86ffe0ab8e8776151514217cd7cacd52c909f66475c3af44e129f0b00ff9190a450505050565b608051613361620001a7600039600050506133616000f3fe608060405234801561001057600080fd5b50600436106103155760003560e01c80637998a1c4116101a7578063bcb61920116100ee578063e5476cbe11610097578063f3aafa7011610071578063f3aafa70146106a8578063fb312778146106bb578063fdd5205f146106c957600080fd5b8063e5476cbe1461066f578063e99b6e1314610682578063ee2d09681461069557600080fd5b8063d547741f116100c8578063d547741f14610636578063e178815414610649578063e38a584c1461065c57600080fd5b8063bcb61920146105fd578063c8da808514610610578063ca15c8731461062357600080fd5b8063a217fddf11610150578063b3cb19911161012a578063b3cb1991146105d0578063b74795d9146105d9578063ba66f9fc146105ea57600080fd5b8063a217fddf146105a2578063a291d0a8146105aa578063b3391c67146105bd57600080fd5b80639010d07c116101815780639010d07c1461056957806391d148541461057c57806399df6ff11461058f57600080fd5b80637998a1c41461052e5780637d540a64146105365780637da0a8771461054957600080fd5b806349eb42f11161026b5780635b0209b91161021457806364815453116101ee57806364815453146104e85780636c67e807146104fb5780637448216d1461050e57600080fd5b80635b0209b9146104b45780635b58890e146104c757806361bcd0c4146104d557600080fd5b806355ff58d41161024557806355ff58d41461048c5780635600f04f14610499578063572b6c05146104a157600080fd5b806349eb42f1146104495780634a79d50c1461045c57806354fd4d501461047157600080fd5b8063272bbd44116102cd57806335dde263116102a757806335dde2631461041057806336568abe1461042357806342dfe9581461043657600080fd5b8063272bbd44146103dd5780632f2ff15d146103f0578063328c4c301461040357600080fd5b806323add683116102fe57806323add68314610357578063248a9ca31461037a57806324e30270146103ca57600080fd5b806301ffc9a71461031a57806316e109f814610342575b600080fd5b61032d610328366004612c16565b61071e565b60405190151581526020015b60405180910390f35b610355610350366004612c6d565b61077a565b005b61032d610365366004612ca5565b60056020526000908152604090205460ff1681565b6103bc610388366004612ca5565b60009081527f02dd7bc7dec4dceedda775e58dd541e08a116c6c53815c0bd028192f7b626800602052604090206001015490565b604051908152602001610339565b6103556103d8366004612cbe565b6107c5565b6103556103eb366004612cbe565b61097d565b6103556103fe366004612d3d565b610a6c565b63183c181960e11b6103bc565b61035561041e366004612c6d565b610ab0565b610355610431366004612d3d565b610bd3565b610355610444366004612e39565b610c34565b610355610457366004612cbe565b610db2565b610464610e28565b6040516103399190612f39565b60015460025460408051928352602083019190915201610339565b633078303160e01b6103bc565b610464610ebd565b61032d6104af366004612f6c565b610ecf565b6103556104c2366004612ca5565b610f57565b6103bc63183c181960e11b81565b6103556104e3366004612d3d565b611147565b6103556104f6366004612cbe565b61117b565b610355610509366004612d3d565b611278565b6103bc61051c366004612ca5565b60066020526000908152604090205481565b6103bc6113b2565b610355610544366004612cbe565b611502565b6105516115e5565b6040516001600160a01b039091168152602001610339565b610551610577366004612f89565b61165d565b61032d61058a366004612d3d565b61169e565b61035561059d366004612d3d565b611710565b6103bc600081565b6103556105b8366004612c6d565b611744565b61032d6105cb366004612d3d565b611808565b6103bc60001981565b6000546001600160a01b0316610551565b6103556105f8366004612d3d565b61185c565b61035561060b366004612d3d565b611913565b6103bc61061e366004612d3d565b611a23565b6103bc610631366004612ca5565b611a81565b610355610644366004612d3d565b611ac0565b610355610657366004612d3d565b611b04565b61035561066a366004612f89565b611bbb565b61035561067d366004612fb9565b611bff565b610355610690366004612ca5565b611ccc565b6103556106a3366004612cbe565b611dd9565b61032d6106b6366004612d3d565b611e2d565b6103bc633078303160e01b81565b6103bc6106d7366004612fde565b6040516bffffffffffffffffffffffff19606084901b1660208201526034810182905260009060540160405160208183030381529060405280519060200120905092915050565b60007fffffffff0000000000000000000000000000000000000000000000000000000082167f440bc2d6000000000000000000000000000000000000000000000000000000001480610774575061077482611e47565b92915050565b60008381527f02dd7bc7dec4dceedda775e58dd541e08a116c6c53815c0bd028192f7b62680060205260409020600101546107b481611e9d565b6107bf848484611eb1565b50505050565b6000546040805163d09edf3160e01b815290516108a2926001600160a01b03169163d09edf319160048083019260209291908290030181865afa158015610810573d6000803e3d6000fd5b505050506040513d601f19601f82011682018060405250810190610834919061300a565b6001600160a01b03166355ff58d46040518163ffffffff1660e01b8152600401602060405180830381865afa158015610871573d6000803e3d6000fd5b505050506040513d601f19601f820116820180604052508101906108959190613027565b61089d611fe0565b611fea565b60008054906101000a90046001600160a01b03166001600160a01b031663d09edf316040518163ffffffff1660e01b8152600401602060405180830381865afa1580156108f3573d6000803e3d6000fd5b505050506040513d601f19601f82011682018060405250810190610917919061300a565b6001600160a01b0316637d540a648484846040518463ffffffff1660e01b815260040161094693929190613040565b600060405180830381600087803b15801561096057600080fd5b505af1158015610974573d6000803e3d6000fd5b50505050505050565b6000546040805163d09edf3160e01b815290516109c8926001600160a01b03169163d09edf319160048083019260209291908290030181865afa158015610810573d6000803e3d6000fd5b60008054906101000a90046001600160a01b03166001600160a01b031663d09edf316040518163ffffffff1660e01b8152600401602060405180830381865afa158015610a19573d6000803e3d6000fd5b505050506040513d601f19601f82011682018060405250810190610a3d919061300a565b6001600160a01b031663648154538484846040518463ffffffff1660e01b815260040161094693929190613040565b60008281527f02dd7bc7dec4dceedda775e58dd541e08a116c6c53815c0bd028192f7b6268006020526040902060010154610aa681611e9d565b6107bf8383612137565b610ab8611fe0565b6000546001600160a01b03166040516342f6e38960e01b81526001600160a01b03838116600483015291909116906342f6e389906024016020604051808303816000875af1158015610b0e573d6000803e3d6000fd5b505050506040513d601f19601f82011682018060405250810190610b329190613098565b610b5f57604051635912aaef60e01b81526001600160a01b03821660048201526024015b60405180910390fd5b6000610bb4610b6c611fe0565b866040516bffffffffffffffffffffffff19606084901b1660208201526034810182905260009060540160405160208183030381529060405280519060200120905092915050565b9050610bc08185612137565b50610bcc818585611eb1565b5050505050565b610bdb611fe0565b6001600160a01b0316816001600160a01b031614610c25576040517f6697b23200000000000000000000000000000000000000000000000000000000815260040160405180910390fd5b610c2f8282612214565b505050565b7ff0c57e16840df040f15088dc2f81fe391c3923bec73e23a9662efc9c229c6a00805468010000000000000000810460ff16159067ffffffffffffffff16600081158015610c7f5750825b905060008267ffffffffffffffff166001148015610c9c5750303b155b905081158015610caa575080155b15610ce1576040517ff92ee8a900000000000000000000000000000000000000000000000000000000815260040160405180910390fd5b84547fffffffffffffffffffffffffffffffffffffffffffffffff00000000000000001660011785558315610d2c57845468ff00000000000000001916680100000000000000001785555b610d36888861227e565b60008087806020019051810190610d4d91906130b5565b91509150610d5b82826123d9565b50508315610da857845468ff000000000000000019168555604051600181527fc7f505b2f371ae2175ee4913f4499e1f2633a7b5936321eed1cdaeb6115181d29060200160405180910390a15b5050505050505050565b633078303160e01b610dc381611e9d565b6000610dda610b6c6000546001600160a01b031690565b905060005b83811015610e2057610e1782868684818110610dfd57610dfd6130e4565b9050602002016020810190610e129190612f6c565b612214565b50600101610ddf565b505050505050565b606060016003018054610e3a906130fa565b80601f0160208091040260200160405190810160405280929190818152602001828054610e66906130fa565b8015610eb35780601f10610e8857610100808354040283529160200191610eb3565b820191906000526020600020905b815481529060010190602001808311610e9657829003601f168201915b5050505050905090565b606060016002018054610e3a906130fa565b600080546040517f572b6c050000000000000000000000000000000000000000000000000000000081526001600160a01b0384811660048301529091169063572b6c0590602401602060405180830381865afa158015610f33573d6000803e3d6000fd5b505050506040513d601f19601f820116820180604052508101906107749190613098565b610f5f611fe0565b6000546001600160a01b03166040516342f6e38960e01b81526001600160a01b03838116600483015291909116906342f6e389906024016020604051808303816000875af1158015610fb5573d6000803e3d6000fd5b505050506040513d601f19601f82011682018060405250810190610fd99190613098565b61100157604051635912aaef60e01b81526001600160a01b0382166004820152602401610b56565b61105461100c611fe0565b836040516bffffffffffffffffffffffff19606084901b1660208201526034810182905260009060540160405160208183030381529060405280519060200120905092915050565b61105d81611a81565b15611094576040517faec5a76500000000000000000000000000000000000000000000000000000000815260040160405180910390fd5b60006110e96110a1611fe0565b856040516bffffffffffffffffffffffff19606084901b1660208201526034810182905260009060540160405160208183030381529060405280519060200120905092915050565b600081815260056020908152604091829020805460ff191660019081179091558251848152918201529192507f5b06680c3e27b6966fd07ba5a87e12511d3d350bb0e841c91958f34569b40b8191015b60405180910390a150505050565b633078303160e01b61115881611e9d565b600061116f6110a16000546001600160a01b031690565b9050610bcc8184612137565b611183611fe0565b6000546001600160a01b03166040516342f6e38960e01b81526001600160a01b03838116600483015291909116906342f6e389906024016020604051808303816000875af11580156111d9573d6000803e3d6000fd5b505050506040513d601f19601f820116820180604052508101906111fd9190613098565b61122557604051635912aaef60e01b81526001600160a01b0382166004820152602401610b56565b6000611232610b6c611fe0565b905060005b83811015610e205761126f82868684818110611255576112556130e4565b905060200201602081019061126a9190612f6c565b612137565b50600101611237565b6000546040805163d09edf3160e01b815290516112c3926001600160a01b03169163d09edf319160048083019260209291908290030181865afa158015610810573d6000803e3d6000fd5b60008054906101000a90046001600160a01b03166001600160a01b031663d09edf316040518163ffffffff1660e01b8152600401602060405180830381865afa158015611314573d6000803e3d6000fd5b505050506040513d601f19601f82011682018060405250810190611338919061300a565b6040517fe1788154000000000000000000000000000000000000000000000000000000008152600481018490526001600160a01b038381166024830152919091169063e1788154906044015b600060405180830381600087803b15801561139e57600080fd5b505af1158015610e20573d6000803e3d6000fd5b604080516080810182526001805482526002546020830152600380546000946114fd949392908401916113e4906130fa565b80601f0160208091040260200160405190810160405280929190818152602001828054611410906130fa565b801561145d5780601f106114325761010080835404028352916020019161145d565b820191906000526020600020905b81548152906001019060200180831161144057829003601f168201915b50505050508152602001600382018054611476906130fa565b80601f01602080910402602001604051908101604052809291908181526020018280546114a2906130fa565b80156114ef5780601f106114c4576101008083540402835291602001916114ef565b820191906000526020600020905b8154815290600101906020018083116114d257829003601f168201915b505050505081525050612461565b905090565b61150a611fe0565b6000546001600160a01b03166040516342f6e38960e01b81526001600160a01b03838116600483015291909116906342f6e389906024016020604051808303816000875af1158015611560573d6000803e3d6000fd5b505050506040513d601f19601f820116820180604052508101906115849190613098565b6115ac57604051635912aaef60e01b81526001600160a01b0382166004820152602401610b56565b60006115b9610b6c611fe0565b905060005b83811015610e20576115dc82868684818110610dfd57610dfd6130e4565b506001016115be565b60008060009054906101000a90046001600160a01b03166001600160a01b0316637da0a8776040518163ffffffff1660e01b8152600401602060405180830381865afa158015611639573d6000803e3d6000fd5b505050506040513d601f19601f820116820180604052508101906114fd919061300a565b60008281527fc1f6fe24621ce81ec5827caf0253cadb74709b061630e6b55e8237170593200060208190526040822061169690846124a1565b949350505050565b60008281526005602052604081205460ff16156116c6576116bf83836124ad565b9050610774565b60008381527f02dd7bc7dec4dceedda775e58dd541e08a116c6c53815c0bd028192f7b626800602090815260408083206001600160a01b038616845290915290205460ff166116bf565b633078303160e01b61172181611e9d565b60006117386110a16000546001600160a01b031690565b9050610bcc8184612214565b61174c611fe0565b6000546001600160a01b03166040516342f6e38960e01b81526001600160a01b03838116600483015291909116906342f6e389906024016020604051808303816000875af11580156117a2573d6000803e3d6000fd5b505050506040513d601f19601f820116820180604052508101906117c69190613098565b6117ee57604051635912aaef60e01b81526001600160a01b0382166004820152602401610b56565b60006117fb610b6c611fe0565b9050610bcc818585611eb1565b600082815260056020526040812054839060ff16611852576040517f33af2d2900000000000000000000000000000000000000000000000000000000815260040160405180910390fd5b61169684846124ad565b611864611fe0565b6000546001600160a01b03166040516342f6e38960e01b81526001600160a01b03838116600483015291909116906342f6e389906024016020604051808303816000875af11580156118ba573d6000803e3d6000fd5b505050506040513d601f19601f820116820180604052508101906118de9190613098565b61190657604051635912aaef60e01b81526001600160a01b0382166004820152602401610b56565b60006117386110a1611fe0565b6000546040805163d09edf3160e01b8152905161195e926001600160a01b03169163d09edf319160048083019260209291908290030181865afa158015610810573d6000803e3d6000fd5b60008054906101000a90046001600160a01b03166001600160a01b031663d09edf316040518163ffffffff1660e01b8152600401602060405180830381865afa1580156119af573d6000803e3d6000fd5b505050506040513d601f19601f820116820180604052508101906119d3919061300a565b6040517fba66f9fc000000000000000000000000000000000000000000000000000000008152600481018490526001600160a01b038381166024830152919091169063ba66f9fc90604401611384565b6000808383604051602001611a5492919091825260601b6bffffffffffffffffffffffff1916602082015260340190565b60408051808303601f19018152918152815160209283012060009081526006909252902054949350505050565b60008181527fc1f6fe24621ce81ec5827caf0253cadb74709b061630e6b55e82371705932000602081905260408220611ab9906125dd565b9392505050565b60008281527f02dd7bc7dec4dceedda775e58dd541e08a116c6c53815c0bd028192f7b6268006020526040902060010154611afa81611e9d565b6107bf8383612214565b611b0c611fe0565b6000546001600160a01b03166040516342f6e38960e01b81526001600160a01b03838116600483015291909116906342f6e389906024016020604051808303816000875af1158015611b62573d6000803e3d6000fd5b505050506040513d601f19601f82011682018060405250810190611b869190613098565b611bae57604051635912aaef60e01b81526001600160a01b0382166004820152602401610b56565b600061116f6110a1611fe0565b60008281527f02dd7bc7dec4dceedda775e58dd541e08a116c6c53815c0bd028192f7b6268006020526040902060010154611bf581611e9d565b610c2f83836125e7565b60008281527f02dd7bc7dec4dceedda775e58dd541e08a116c6c53815c0bd028192f7b6268006020526040902060010154611c3981611e9d565b82611c4381611a81565b15611c7a576040517faec5a76500000000000000000000000000000000000000000000000000000000815260040160405180910390fd5b600084815260056020908152604091829020805460ff19168615159081179091558251878152918201527f5b06680c3e27b6966fd07ba5a87e12511d3d350bb0e841c91958f34569b40b819101611139565b611cd4611fe0565b6000546001600160a01b03166040516342f6e38960e01b81526001600160a01b03838116600483015291909116906342f6e389906024016020604051808303816000875af1158015611d2a573d6000803e3d6000fd5b505050506040513d601f19601f82011682018060405250810190611d4e9190613098565b611d7657604051635912aaef60e01b81526001600160a01b0382166004820152602401610b56565b6000611dcb611d83611fe0565b846040516bffffffffffffffffffffffff19606084901b1660208201526034810182905260009060540160405160208183030381529060405280519060200120905092915050565b9050610c2f816000196125e7565b633078303160e01b611dea81611e9d565b6000611e01610b6c6000546001600160a01b031690565b905060005b83811015610e2057611e2482868684818110611255576112556130e4565b50600101611e06565b600080611e3b6110a1611fe0565b9050611696818461169e565b60007fffffffff0000000000000000000000000000000000000000000000000000000082167f7e732aa700000000000000000000000000000000000000000000000000000000148061077457506107748261268b565b611eae81611ea9611fe0565b612722565b50565b600083815260056020526040902054839060ff16611efb576040517f33af2d2900000000000000000000000000000000000000000000000000000000815260040160405180910390fd5b8180600003611f39576040517fff2f28f000000000000000000000000000000000000000000000000000000000815260048101829052602401610b56565b60008585604051602001611f6992919091825260601b6bffffffffffffffffffffffff1916602082015260340190565b60408051808303601f1901815282825280516020918201206000818152600683528390208890558984526001600160a01b0389169184019190915290820186905291507ea848dc7e0a97518071981b0bbbf38d0ce61086c12106156c3fed80f80047149060600160405180910390a1505050505050565b60006114fd612774565b60008054906101000a90046001600160a01b03166001600160a01b031663d09edf316040518163ffffffff1660e01b8152600401602060405180830381865afa15801561203b573d6000803e3d6000fd5b505050506040513d601f19601f8201168201806040525081019061205f919061300a565b6040517f91d14854000000000000000000000000000000000000000000000000000000008152600481018490526001600160a01b03838116602483015291909116906391d1485490604401602060405180830381865afa1580156120c7573d6000803e3d6000fd5b505050506040513d601f19601f820116820180604052508101906120eb9190613098565b612133576040517f42abbb77000000000000000000000000000000000000000000000000000000008152600481018390526001600160a01b0382166024820152604401610b56565b5050565b60008281526005602052604081205460ff161561220a576040517f70a082310000000000000000000000000000000000000000000000000000000081523060048201526001600160a01b038316906370a0823190602401602060405180830381865afa9250505080156121c7575060408051601f3d908101601f191682019092526121c491810190613027565b60015b612208576040517fa60f054e0000000000000000000000000000000000000000000000000000000081526001600160a01b0383166004820152602401610b56565b505b611ab983836127c6565b600082633078303160e01b8114801561223d5750600161223a633078303160e01b611a81565b11155b15612274576040517f2cbba9ff00000000000000000000000000000000000000000000000000000000815260040160405180910390fd5b611696848461281d565b61228661286b565b6001600160a01b0382166122c6576040517f7280679300000000000000000000000000000000000000000000000000000000815260040160405180910390fd5b600080547fffffffffffffffffffffffff0000000000000000000000000000000000000000166001600160a01b038416179055612302816128d4565b612338576040517f7511254100000000000000000000000000000000000000000000000000000000815260040160405180910390fd5b805160019081556020820151600255604082015182919060039061235c908261317c565b5060608201516003820190612371908261317c565b5050506060810151604051612386919061323c565b604080519182900382208351602080860151918552840152916001600160a01b038516917feb175f148a71d29a5f7bf5439182fcd81e6ea9cfc8a11b54ab0f705fa98fa8ca910160405180910390a35050565b6123e161286b565b6123f2633078303160e01b806125e7565b6124046000633078303160e01b6125e7565b61241c63183c181960e11b633078303160e01b6125e7565b61242d63183c181960e11b82612137565b506001600160a01b0382161561244e57610c2f633078303160e01b83612137565b610c2f633078303160e01b61126a611fe0565b600081600001518260400151836060015160405160200161248493929190613258565b604051602081830303815290604052805190602001209050919050565b6000611ab98383612926565b6000806124b984611a81565b905060005b818110156125d25760006124d2868361165d565b90506000868260405160200161250492919091825260601b6bffffffffffffffffffffffff1916602082015260340190565b60408051808303601f19018152828252805160209182012060008181526006909252919020547f70a082310000000000000000000000000000000000000000000000000000000083526001600160a01b03898116600485015291935091908416906370a0823190602401602060405180830381865afa9250505080156125a7575060408051601f3d908101601f191682019092526125a491810190613027565b60015b156125c4578181106125c25760019650505050505050610774565b505b5050508060010190506124be565b506000949350505050565b6000610774825490565b7f02dd7bc7dec4dceedda775e58dd541e08a116c6c53815c0bd028192f7b62680060006126428460009081527f02dd7bc7dec4dceedda775e58dd541e08a116c6c53815c0bd028192f7b626800602052604090206001015490565b600085815260208490526040808220600101869055519192508491839187917fbd79b86ffe0ab8e8776151514217cd7cacd52c909f66475c3af44e129f0b00ff9190a450505050565b60007fffffffff0000000000000000000000000000000000000000000000000000000082167f179dfb4500000000000000000000000000000000000000000000000000000000148061077457507f01ffc9a7000000000000000000000000000000000000000000000000000000007fffffffff00000000000000000000000000000000000000000000000000000000831614610774565b61272c828261169e565b612133576040517fe2517d3f0000000000000000000000000000000000000000000000000000000081526001600160a01b038216600482015260248101839052604401610b56565b600036601461278233610ecf565b801561278e5750808210155b156127be576000366127a08385613295565b6127ab9282906132b6565b6127b4916132e0565b60601c9250505090565b339250505090565b60007fc1f6fe24621ce81ec5827caf0253cadb74709b061630e6b55e82371705932000816127f48585612950565b905080156116965760008581526020839052604090206128149085612a08565b50949350505050565b60007fc1f6fe24621ce81ec5827caf0253cadb74709b061630e6b55e823717059320008161284b8585612a1d565b905080156116965760008581526020839052604090206128149085612ac9565b7ff0c57e16840df040f15088dc2f81fe391c3923bec73e23a9662efc9c229c6a005468010000000000000000900460ff166128d2576040517fd7e6bcf800000000000000000000000000000000000000000000000000000000815260040160405180910390fd5b565b60008160400151516000036128eb57506000919050565b81606001515160000361290057506000919050565b815115801561291157506020820151155b1561291e57506000919050565b506001919050565b600082600001828154811061293d5761293d6130e4565b9060005260206000200154905092915050565b60007f02dd7bc7dec4dceedda775e58dd541e08a116c6c53815c0bd028192f7b62680061297d848461169e565b6129fe576000848152602082815260408083206001600160a01b03871684529091529020805460ff191660011790556129b4611fe0565b6001600160a01b0316836001600160a01b0316857f2f8788117e7eff1d82e926ec794901d17c78024a50270940304540a733656f0d60405160405180910390a46001915050610774565b6000915050610774565b6000611ab9836001600160a01b038416612ade565b60007f02dd7bc7dec4dceedda775e58dd541e08a116c6c53815c0bd028192f7b626800612a4a848461169e565b156129fe576000848152602082815260408083206001600160a01b03871684529091529020805460ff19169055612a7f611fe0565b6001600160a01b0316836001600160a01b0316857ff6391f5c32d9c69d2a47ea670b442974b53935d1edc7fd64eb21e047a839171b60405160405180910390a46001915050610774565b6000611ab9836001600160a01b038416612b2d565b6000818152600183016020526040812054612b2557508154600181810184556000848152602080822090930184905584548482528286019093526040902091909155610774565b506000610774565b600081815260018301602052604081205480156129fe576000612b51600183613295565b8554909150600090612b6590600190613295565b9050808214612bca576000866000018281548110612b8557612b856130e4565b9060005260206000200154905080876000018481548110612ba857612ba86130e4565b6000918252602080832090910192909255918252600188019052604090208390555b8554869080612bdb57612bdb613315565b600190038181906000526020600020016000905590558560010160008681526020019081526020016000206000905560019350505050610774565b600060208284031215612c2857600080fd5b81357fffffffff0000000000000000000000000000000000000000000000000000000081168114611ab957600080fd5b6001600160a01b0381168114611eae57600080fd5b600080600060608486031215612c8257600080fd5b833592506020840135612c9481612c58565b929592945050506040919091013590565b600060208284031215612cb757600080fd5b5035919050565b600080600060408486031215612cd357600080fd5b83359250602084013567ffffffffffffffff80821115612cf257600080fd5b818601915086601f830112612d0657600080fd5b813581811115612d1557600080fd5b8760208260051b8501011115612d2a57600080fd5b6020830194508093505050509250925092565b60008060408385031215612d5057600080fd5b823591506020830135612d6281612c58565b809150509250929050565b634e487b7160e01b600052604160045260246000fd5b6040516080810167ffffffffffffffff81118282101715612da657612da6612d6d565b60405290565b600082601f830112612dbd57600080fd5b813567ffffffffffffffff80821115612dd857612dd8612d6d565b604051601f8301601f19908116603f01168101908282118183101715612e0057612e00612d6d565b81604052838152866020858801011115612e1957600080fd5b836020870160208301376000602085830101528094505050505092915050565b600080600060608486031215612e4e57600080fd5b8335612e5981612c58565b9250602084013567ffffffffffffffff80821115612e7657600080fd5b9085019060808288031215612e8a57600080fd5b612e92612d83565b8235815260208301356020820152604083013582811115612eb257600080fd5b612ebe89828601612dac565b604083015250606083013582811115612ed657600080fd5b612ee289828601612dac565b60608301525093506040860135915080821115612efe57600080fd5b50612f0b86828701612dac565b9150509250925092565b60005b83811015612f30578181015183820152602001612f18565b50506000910152565b6020815260008251806020840152612f58816040850160208701612f15565b601f01601f19169190910160400192915050565b600060208284031215612f7e57600080fd5b8135611ab981612c58565b60008060408385031215612f9c57600080fd5b50508035926020909101359150565b8015158114611eae57600080fd5b60008060408385031215612fcc57600080fd5b823591506020830135612d6281612fab565b60008060408385031215612ff157600080fd5b8235612ffc81612c58565b946020939093013593505050565b60006020828403121561301c57600080fd5b8151611ab981612c58565b60006020828403121561303957600080fd5b5051919050565b83815260406020808301829052908201839052600090849060608401835b8681101561308c57833561307181612c58565b6001600160a01b03168252928201929082019060010161305e565b50979650505050505050565b6000602082840312156130aa57600080fd5b8151611ab981612fab565b600080604083850312156130c857600080fd5b82516130d381612c58565b6020840151909250612d6281612c58565b634e487b7160e01b600052603260045260246000fd5b600181811c9082168061310e57607f821691505b60208210810361312e57634e487b7160e01b600052602260045260246000fd5b50919050565b601f821115610c2f576000816000526020600020601f850160051c8101602086101561315d5750805b601f850160051c820191505b81811015610e2057828155600101613169565b815167ffffffffffffffff81111561319657613196612d6d565b6131aa816131a484546130fa565b84613134565b602080601f8311600181146131df57600084156131c75750858301515b600019600386901b1c1916600185901b178555610e20565b600085815260208120601f198616915b8281101561320e578886015182559484019460019091019084016131ef565b508582101561322c5787850151600019600388901b60f8161c191681555b5050505050600190811b01905550565b6000825161324e818460208701612f15565b9190910192915050565b83815260008351613270816020850160208801612f15565b80830190508351613288816020840160208801612f15565b0160200195945050505050565b8181038181111561077457634e487b7160e01b600052601160045260246000fd5b600080858511156132c657600080fd5b838611156132d357600080fd5b5050820193919092039150565b6bffffffffffffffffffffffff19813581811691601485101561330d5780818660140360031b1b83161692505b505092915050565b634e487b7160e01b600052603160045260246000fdfea2646970667358221220d8b3512a39a6e1a104803f106a1e1f4cef90b388273a7950aa5d7cfdb49a48d564736f6c63430008170033",
    "linkReferences": {}
  },
  "methodIdentifiers": {
    "BURN_ADMIN_ROLE()": "b3cb1991",
    "DEFAULT_ADMIN_ROLE()": "a217fddf",
    "ORCHESTRATOR_MANAGER_ROLE()": "5b58890e",
    "ORCHESTRATOR_OWNER_ROLE()": "fb312778",
    "burnAdminFromModuleRole(bytes32)": "e99b6e13",
    "generateRoleId(address,bytes32)": "fdd5205f",
    "getManagerRole()": "328c4c30",
    "getOwnerRole()": "55ff58d4",
    "getRoleAdmin(bytes32)": "248a9ca3",
    "getRoleMember(bytes32,uint256)": "9010d07c",
    "getRoleMemberCount(bytes32)": "ca15c873",
    "getThresholdValue(bytes32,address)": "c8da8085",
    "grantGlobalRole(bytes32,address)": "61bcd0c4",
    "grantGlobalRoleBatched(bytes32,address[])": "ee2d0968",
    "grantModuleRole(bytes32,address)": "6c67e807",
    "grantModuleRoleBatched(bytes32,address[])": "272bbd44",
    "grantRole(bytes32,address)": "2f2ff15d",
    "grantRoleFromModule(bytes32,address)": "e1788154",
    "grantRoleFromModuleBatched(bytes32,address[])": "64815453",
    "grantTokenRoleFromModule(bytes32,address,uint256)": "35dde263",
    "hasModuleRole(bytes32,address)": "f3aafa70",
    "hasRole(bytes32,address)": "91d14854",
    "hasTokenRole(bytes32,address)": "b3391c67",
    "identifier()": "7998a1c4",
    "init(address,(uint256,uint256,string,string),bytes)": "42dfe958",
    "isTokenGated(bytes32)": "23add683",
    "isTrustedForwarder(address)": "572b6c05",
    "makeRoleTokenGatedFromModule(bytes32)": "5b0209b9",
    "orchestrator()": "b74795d9",
    "renounceRole(bytes32,address)": "36568abe",
    "revokeGlobalRole(bytes32,address)": "99df6ff1",
    "revokeGlobalRoleBatched(bytes32,address[])": "49eb42f1",
    "revokeModuleRole(bytes32,address)": "bcb61920",
    "revokeModuleRoleBatched(bytes32,address[])": "24e30270",
    "revokeRole(bytes32,address)": "d547741f",
    "revokeRoleFromModule(bytes32,address)": "ba66f9fc",
    "revokeRoleFromModuleBatched(bytes32,address[])": "7d540a64",
    "setThreshold(bytes32,address,uint256)": "16e109f8",
    "setThresholdFromModule(bytes32,address,uint256)": "a291d0a8",
    "setTokenGated(bytes32,bool)": "e5476cbe",
    "supportsInterface(bytes4)": "01ffc9a7",
    "thresholdMap(bytes32)": "7448216d",
    "title()": "4a79d50c",
    "transferAdminRole(bytes32,bytes32)": "e38a584c",
    "trustedForwarder()": "7da0a877",
    "url()": "5600f04f",
    "version()": "54fd4d50"
  },
  "id": 113
}