{
  "abi": [
    {
      "type": "function",
      "name": "BURN_ADMIN_ROLE",
      "inputs": [],
      "outputs": [
        {
          "name": "",
          "type": "bytes32",
          "internalType": "bytes32"
        }
      ],
      "stateMutability": "view"
    },
    {
      "type": "function",
      "name": "DEFAULT_ADMIN_ROLE",
      "inputs": [],
      "outputs": [
        {
          "name": "",
          "type": "bytes32",
          "internalType": "bytes32"
        }
      ],
      "stateMutability": "view"
    },
    {
      "type": "function",
      "name": "burnAdminFromModuleRole",
      "inputs": [
        {
          "name": "role",
          "type": "bytes32",
          "internalType": "bytes32"
        }
      ],
      "outputs": [],
      "stateMutability": "nonpayable"
    },
    {
      "type": "function",
      "name": "generateRoleId",
      "inputs": [
        {
          "name": "module",
          "type": "address",
          "internalType": "address"
        },
        {
          "name": "role",
          "type": "bytes32",
          "internalType": "bytes32"
        }
      ],
      "outputs": [
        {
          "name": "",
          "type": "bytes32",
          "internalType": "bytes32"
        }
      ],
      "stateMutability": "pure"
    },
    {
      "type": "function",
      "name": "getAdminRole",
      "inputs": [],
      "outputs": [
        {
          "name": "",
          "type": "bytes32",
          "internalType": "bytes32"
        }
      ],
      "stateMutability": "pure"
    },
    {
      "type": "function",
      "name": "getRoleAdmin",
      "inputs": [
        {
          "name": "role",
          "type": "bytes32",
          "internalType": "bytes32"
        }
      ],
      "outputs": [
        {
          "name": "",
          "type": "bytes32",
          "internalType": "bytes32"
        }
      ],
      "stateMutability": "view"
    },
    {
      "type": "function",
      "name": "getRoleMember",
      "inputs": [
        {
          "name": "role",
          "type": "bytes32",
          "internalType": "bytes32"
        },
        {
          "name": "index",
          "type": "uint256",
          "internalType": "uint256"
        }
      ],
      "outputs": [
        {
          "name": "",
          "type": "address",
          "internalType": "address"
        }
      ],
      "stateMutability": "view"
    },
    {
      "type": "function",
      "name": "getRoleMemberCount",
      "inputs": [
        {
          "name": "role",
          "type": "bytes32",
          "internalType": "bytes32"
        }
      ],
      "outputs": [
        {
          "name": "",
          "type": "uint256",
          "internalType": "uint256"
        }
      ],
      "stateMutability": "view"
    },
    {
      "type": "function",
      "name": "getThresholdValue",
      "inputs": [
        {
          "name": "roleId",
          "type": "bytes32",
          "internalType": "bytes32"
        },
        {
          "name": "token",
          "type": "address",
          "internalType": "address"
        }
      ],
      "outputs": [
        {
          "name": "",
          "type": "uint256",
          "internalType": "uint256"
        }
      ],
      "stateMutability": "view"
    },
    {
      "type": "function",
      "name": "grantGlobalRole",
      "inputs": [
        {
          "name": "role",
          "type": "bytes32",
          "internalType": "bytes32"
        },
        {
          "name": "target",
          "type": "address",
          "internalType": "address"
        }
      ],
      "outputs": [],
      "stateMutability": "nonpayable"
    },
    {
      "type": "function",
      "name": "grantGlobalRoleBatched",
      "inputs": [
        {
          "name": "role",
          "type": "bytes32",
          "internalType": "bytes32"
        },
        {
          "name": "targets",
          "type": "address[]",
          "internalType": "address[]"
        }
      ],
      "outputs": [],
      "stateMutability": "nonpayable"
    },
    {
      "type": "function",
      "name": "grantModuleRole",
      "inputs": [
        {
          "name": "role",
          "type": "bytes32",
          "internalType": "bytes32"
        },
        {
          "name": "target",
          "type": "address",
          "internalType": "address"
        }
      ],
      "outputs": [],
      "stateMutability": "nonpayable"
    },
    {
      "type": "function",
      "name": "grantModuleRoleBatched",
      "inputs": [
        {
          "name": "role",
          "type": "bytes32",
          "internalType": "bytes32"
        },
        {
          "name": "targets",
          "type": "address[]",
          "internalType": "address[]"
        }
      ],
      "outputs": [],
      "stateMutability": "nonpayable"
    },
    {
      "type": "function",
      "name": "grantRole",
      "inputs": [
        {
          "name": "role",
          "type": "bytes32",
          "internalType": "bytes32"
        },
        {
          "name": "account",
          "type": "address",
          "internalType": "address"
        }
      ],
      "outputs": [],
      "stateMutability": "nonpayable"
    },
    {
      "type": "function",
      "name": "grantRoleFromModule",
      "inputs": [
        {
          "name": "role",
          "type": "bytes32",
          "internalType": "bytes32"
        },
        {
          "name": "target",
          "type": "address",
          "internalType": "address"
        }
      ],
      "outputs": [],
      "stateMutability": "nonpayable"
    },
    {
      "type": "function",
      "name": "grantRoleFromModuleBatched",
      "inputs": [
        {
          "name": "role",
          "type": "bytes32",
          "internalType": "bytes32"
        },
        {
          "name": "targets",
          "type": "address[]",
          "internalType": "address[]"
        }
      ],
      "outputs": [],
      "stateMutability": "nonpayable"
    },
    {
      "type": "function",
      "name": "grantTokenRoleFromModule",
      "inputs": [
        {
          "name": "role",
          "type": "bytes32",
          "internalType": "bytes32"
        },
        {
          "name": "token",
          "type": "address",
          "internalType": "address"
        },
        {
          "name": "threshold",
          "type": "uint256",
          "internalType": "uint256"
        }
      ],
      "outputs": [],
      "stateMutability": "nonpayable"
    },
    {
      "type": "function",
      "name": "hasModuleRole",
      "inputs": [
        {
          "name": "role",
          "type": "bytes32",
          "internalType": "bytes32"
        },
        {
          "name": "who",
          "type": "address",
          "internalType": "address"
        }
      ],
      "outputs": [
        {
          "name": "",
          "type": "bool",
          "internalType": "bool"
        }
      ],
      "stateMutability": "view"
    },
    {
      "type": "function",
      "name": "hasRole",
      "inputs": [
        {
          "name": "roleId",
          "type": "bytes32",
          "internalType": "bytes32"
        },
        {
          "name": "who",
          "type": "address",
          "internalType": "address"
        }
      ],
      "outputs": [
        {
          "name": "",
          "type": "bool",
          "internalType": "bool"
        }
      ],
      "stateMutability": "view"
    },
    {
      "type": "function",
      "name": "hasTokenRole",
      "inputs": [
        {
          "name": "role",
          "type": "bytes32",
          "internalType": "bytes32"
        },
        {
          "name": "who",
          "type": "address",
          "internalType": "address"
        }
      ],
      "outputs": [
        {
          "name": "",
          "type": "bool",
          "internalType": "bool"
        }
      ],
      "stateMutability": "view"
    },
    {
      "type": "function",
      "name": "identifier",
      "inputs": [],
      "outputs": [
        {
          "name": "",
          "type": "bytes32",
          "internalType": "bytes32"
        }
      ],
      "stateMutability": "view"
    },
    {
      "type": "function",
      "name": "init",
      "inputs": [
        {
          "name": "orchestrator_",
          "type": "address",
          "internalType": "contract IOrchestrator_v1"
        },
        {
          "name": "metadata",
          "type": "tuple",
          "internalType": "struct IModule_v1.Metadata",
          "components": [
            {
              "name": "majorVersion",
              "type": "uint256",
              "internalType": "uint256"
            },
            {
              "name": "minorVersion",
              "type": "uint256",
              "internalType": "uint256"
            },
            {
              "name": "url",
              "type": "string",
              "internalType": "string"
            },
            {
              "name": "title",
              "type": "string",
              "internalType": "string"
            }
          ]
        },
        {
          "name": "configData",
          "type": "bytes",
          "internalType": "bytes"
        }
      ],
      "outputs": [],
      "stateMutability": "nonpayable"
    },
    {
      "type": "function",
      "name": "isTokenGated",
      "inputs": [
        {
          "name": "",
          "type": "bytes32",
          "internalType": "bytes32"
        }
      ],
      "outputs": [
        {
          "name": "",
          "type": "bool",
          "internalType": "bool"
        }
      ],
      "stateMutability": "view"
    },
    {
      "type": "function",
      "name": "isTrustedForwarder",
      "inputs": [
        {
          "name": "forwarder",
          "type": "address",
          "internalType": "address"
        }
      ],
      "outputs": [
        {
          "name": "",
          "type": "bool",
          "internalType": "bool"
        }
      ],
      "stateMutability": "view"
    },
    {
      "type": "function",
      "name": "makeRoleTokenGatedFromModule",
      "inputs": [
        {
          "name": "role",
          "type": "bytes32",
          "internalType": "bytes32"
        }
      ],
      "outputs": [],
      "stateMutability": "nonpayable"
    },
    {
      "type": "function",
      "name": "orchestrator",
      "inputs": [],
      "outputs": [
        {
          "name": "",
          "type": "address",
          "internalType": "contract IOrchestrator_v1"
        }
      ],
      "stateMutability": "view"
    },
    {
      "type": "function",
      "name": "renounceRole",
      "inputs": [
        {
          "name": "role",
          "type": "bytes32",
          "internalType": "bytes32"
        },
        {
          "name": "callerConfirmation",
          "type": "address",
          "internalType": "address"
        }
      ],
      "outputs": [],
      "stateMutability": "nonpayable"
    },
    {
      "type": "function",
      "name": "revokeGlobalRole",
      "inputs": [
        {
          "name": "role",
          "type": "bytes32",
          "internalType": "bytes32"
        },
        {
          "name": "target",
          "type": "address",
          "internalType": "address"
        }
      ],
      "outputs": [],
      "stateMutability": "nonpayable"
    },
    {
      "type": "function",
      "name": "revokeGlobalRoleBatched",
      "inputs": [
        {
          "name": "role",
          "type": "bytes32",
          "internalType": "bytes32"
        },
        {
          "name": "targets",
          "type": "address[]",
          "internalType": "address[]"
        }
      ],
      "outputs": [],
      "stateMutability": "nonpayable"
    },
    {
      "type": "function",
      "name": "revokeModuleRole",
      "inputs": [
        {
          "name": "role",
          "type": "bytes32",
          "internalType": "bytes32"
        },
        {
          "name": "target",
          "type": "address",
          "internalType": "address"
        }
      ],
      "outputs": [],
      "stateMutability": "nonpayable"
    },
    {
      "type": "function",
      "name": "revokeModuleRoleBatched",
      "inputs": [
        {
          "name": "role",
          "type": "bytes32",
          "internalType": "bytes32"
        },
        {
          "name": "targets",
          "type": "address[]",
          "internalType": "address[]"
        }
      ],
      "outputs": [],
      "stateMutability": "nonpayable"
    },
    {
      "type": "function",
      "name": "revokeRole",
      "inputs": [
        {
          "name": "role",
          "type": "bytes32",
          "internalType": "bytes32"
        },
        {
          "name": "account",
          "type": "address",
          "internalType": "address"
        }
      ],
      "outputs": [],
      "stateMutability": "nonpayable"
    },
    {
      "type": "function",
      "name": "revokeRoleFromModule",
      "inputs": [
        {
          "name": "role",
          "type": "bytes32",
          "internalType": "bytes32"
        },
        {
          "name": "target",
          "type": "address",
          "internalType": "address"
        }
      ],
      "outputs": [],
      "stateMutability": "nonpayable"
    },
    {
      "type": "function",
      "name": "revokeRoleFromModuleBatched",
      "inputs": [
        {
          "name": "role",
          "type": "bytes32",
          "internalType": "bytes32"
        },
        {
          "name": "targets",
          "type": "address[]",
          "internalType": "address[]"
        }
      ],
      "outputs": [],
      "stateMutability": "nonpayable"
    },
    {
      "type": "function",
      "name": "setThreshold",
      "inputs": [
        {
          "name": "roleId",
          "type": "bytes32",
          "internalType": "bytes32"
        },
        {
          "name": "token",
          "type": "address",
          "internalType": "address"
        },
        {
          "name": "threshold",
          "type": "uint256",
          "internalType": "uint256"
        }
      ],
      "outputs": [],
      "stateMutability": "nonpayable"
    },
    {
      "type": "function",
      "name": "setThresholdFromModule",
      "inputs": [
        {
          "name": "role",
          "type": "bytes32",
          "internalType": "bytes32"
        },
        {
          "name": "token",
          "type": "address",
          "internalType": "address"
        },
        {
          "name": "threshold",
          "type": "uint256",
          "internalType": "uint256"
        }
      ],
      "outputs": [],
      "stateMutability": "nonpayable"
    },
    {
      "type": "function",
      "name": "setTokenGated",
      "inputs": [
        {
          "name": "role",
          "type": "bytes32",
          "internalType": "bytes32"
        },
        {
          "name": "to",
          "type": "bool",
          "internalType": "bool"
        }
      ],
      "outputs": [],
      "stateMutability": "nonpayable"
    },
    {
      "type": "function",
      "name": "supportsInterface",
      "inputs": [
        {
          "name": "interfaceId",
          "type": "bytes4",
          "internalType": "bytes4"
        }
      ],
      "outputs": [
        {
          "name": "",
          "type": "bool",
          "internalType": "bool"
        }
      ],
      "stateMutability": "view"
    },
    {
      "type": "function",
      "name": "thresholdMap",
      "inputs": [
        {
          "name": "",
          "type": "bytes32",
          "internalType": "bytes32"
        }
      ],
      "outputs": [
        {
          "name": "",
          "type": "uint256",
          "internalType": "uint256"
        }
      ],
      "stateMutability": "view"
    },
    {
      "type": "function",
      "name": "title",
      "inputs": [],
      "outputs": [
        {
          "name": "",
          "type": "string",
          "internalType": "string"
        }
      ],
      "stateMutability": "view"
    },
    {
      "type": "function",
      "name": "transferAdminRole",
      "inputs": [
        {
          "name": "roleId",
          "type": "bytes32",
          "internalType": "bytes32"
        },
        {
          "name": "newAdmin",
          "type": "bytes32",
          "internalType": "bytes32"
        }
      ],
      "outputs": [],
      "stateMutability": "nonpayable"
    },
    {
      "type": "function",
      "name": "trustedForwarder",
      "inputs": [],
      "outputs": [
        {
          "name": "",
          "type": "address",
          "internalType": "address"
        }
      ],
      "stateMutability": "view"
    },
    {
      "type": "function",
      "name": "url",
      "inputs": [],
      "outputs": [
        {
          "name": "",
          "type": "string",
          "internalType": "string"
        }
      ],
      "stateMutability": "view"
    },
    {
      "type": "function",
      "name": "version",
      "inputs": [],
      "outputs": [
        {
          "name": "",
          "type": "uint256",
          "internalType": "uint256"
        },
        {
          "name": "",
          "type": "uint256",
          "internalType": "uint256"
        }
      ],
      "stateMutability": "view"
    },
    {
      "type": "event",
      "name": "ChangedTokenGating",
      "inputs": [
        {
          "name": "role",
          "type": "bytes32",
          "indexed": false,
          "internalType": "bytes32"
        },
        {
          "name": "newValue",
          "type": "bool",
          "indexed": false,
          "internalType": "bool"
        }
      ],
      "anonymous": false
    },
    {
      "type": "event",
      "name": "ChangedTokenThreshold",
      "inputs": [
        {
          "name": "role",
          "type": "bytes32",
          "indexed": false,
          "internalType": "bytes32"
        },
        {
          "name": "token",
          "type": "address",
          "indexed": false,
          "internalType": "address"
        },
        {
          "name": "newValue",
          "type": "uint256",
          "indexed": false,
          "internalType": "uint256"
        }
      ],
      "anonymous": false
    },
    {
      "type": "event",
      "name": "Initialized",
      "inputs": [
        {
          "name": "version",
          "type": "uint64",
          "indexed": false,
          "internalType": "uint64"
        }
      ],
      "anonymous": false
    },
    {
      "type": "event",
      "name": "ModuleInitialized",
      "inputs": [
        {
          "name": "parentOrchestrator",
          "type": "address",
          "indexed": true,
          "internalType": "address"
        },
        {
          "name": "moduleTitle",
          "type": "string",
          "indexed": true,
          "internalType": "string"
        },
        {
          "name": "majorVersion",
          "type": "uint256",
          "indexed": false,
          "internalType": "uint256"
        },
        {
          "name": "minorVersion",
          "type": "uint256",
          "indexed": false,
          "internalType": "uint256"
        }
      ],
      "anonymous": false
    },
    {
      "type": "event",
      "name": "RoleAdminChanged",
      "inputs": [
        {
          "name": "role",
          "type": "bytes32",
          "indexed": true,
          "internalType": "bytes32"
        },
        {
          "name": "previousAdminRole",
          "type": "bytes32",
          "indexed": true,
          "internalType": "bytes32"
        },
        {
          "name": "newAdminRole",
          "type": "bytes32",
          "indexed": true,
          "internalType": "bytes32"
        }
      ],
      "anonymous": false
    },
    {
      "type": "event",
      "name": "RoleGranted",
      "inputs": [
        {
          "name": "role",
          "type": "bytes32",
          "indexed": true,
          "internalType": "bytes32"
        },
        {
          "name": "account",
          "type": "address",
          "indexed": true,
          "internalType": "address"
        },
        {
          "name": "sender",
          "type": "address",
          "indexed": true,
          "internalType": "address"
        }
      ],
      "anonymous": false
    },
    {
      "type": "event",
      "name": "RoleRevoked",
      "inputs": [
        {
          "name": "role",
          "type": "bytes32",
          "indexed": true,
          "internalType": "bytes32"
        },
        {
          "name": "account",
          "type": "address",
          "indexed": true,
          "internalType": "address"
        },
        {
          "name": "sender",
          "type": "address",
          "indexed": true,
          "internalType": "address"
        }
      ],
      "anonymous": false
    },
    {
      "type": "error",
      "name": "AccessControlBadConfirmation",
      "inputs": []
    },
    {
      "type": "error",
      "name": "AccessControlUnauthorizedAccount",
      "inputs": [
        {
          "name": "account",
          "type": "address",
          "internalType": "address"
        },
        {
          "name": "neededRole",
          "type": "bytes32",
          "internalType": "bytes32"
        }
      ]
    },
    {
      "type": "error",
      "name": "InvalidInitialization",
      "inputs": []
    },
    {
      "type": "error",
      "name": "Module_OrchestratorCallbackFailed",
      "inputs": [
        {
          "name": "funcSig",
          "type": "string",
          "internalType": "string"
        }
      ]
    },
    {
      "type": "error",
      "name": "Module__AUT_TokenGated_Roles__InvalidThreshold",
      "inputs": [
        {
          "name": "threshold",
          "type": "uint256",
          "internalType": "uint256"
        }
      ]
    },
    {
      "type": "error",
      "name": "Module__AUT_TokenGated_Roles__InvalidToken",
      "inputs": [
        {
          "name": "token",
          "type": "address",
          "internalType": "address"
        }
      ]
    },
    {
      "type": "error",
      "name": "Module__AUT_TokenGated_Roles__RoleNotEmpty",
      "inputs": []
    },
    {
      "type": "error",
      "name": "Module__AUT_TokenGated_Roles__RoleNotTokenGated",
      "inputs": []
    },
    {
      "type": "error",
      "name": "Module__AUT_TokenGated_Roles__TokenRoleMustHaveThreshold",
      "inputs": [
        {
          "name": "role",
          "type": "bytes32",
          "internalType": "bytes32"
        },
        {
          "name": "token",
          "type": "address",
          "internalType": "address"
        }
      ]
    },
    {
      "type": "error",
      "name": "Module__Authorizer__AdminRoleCannotBeEmpty",
      "inputs": []
    },
    {
      "type": "error",
      "name": "Module__Authorizer__InvalidInitialAdmin",
      "inputs": []
    },
    {
      "type": "error",
      "name": "Module__Authorizer__ModuleNotSelfManaged",
      "inputs": []
    },
    {
      "type": "error",
      "name": "Module__Authorizer__NotActiveModule",
      "inputs": [
        {
          "name": "module",
          "type": "address",
          "internalType": "address"
        }
      ]
    },
    {
      "type": "error",
      "name": "Module__Authorizer__OrchestratorCannotHaveAdminRole",
      "inputs": []
    },
    {
      "type": "error",
      "name": "Module__CallerNotAuthorized",
      "inputs": [
        {
          "name": "role",
          "type": "bytes32",
          "internalType": "bytes32"
        },
        {
          "name": "caller",
          "type": "address",
          "internalType": "address"
        }
      ]
    },
    {
      "type": "error",
      "name": "Module__InvalidMetadata",
      "inputs": []
    },
    {
      "type": "error",
      "name": "Module__InvalidOrchestratorAddress",
      "inputs": []
    },
    {
      "type": "error",
      "name": "Module__OnlyCallableByOrchestrator",
      "inputs": []
    },
    {
      "type": "error",
      "name": "NotInitializing",
      "inputs": []
    }
  ],
  "bytecode": {
    "object": "0x60a06040523480156200001157600080fd5b5060006080526200002162000027565b620000db565b7ff0c57e16840df040f15088dc2f81fe391c3923bec73e23a9662efc9c229c6a00805468010000000000000000900460ff1615620000785760405163f92ee8a960e01b815260040160405180910390fd5b80546001600160401b0390811614620000d85780546001600160401b0319166001600160401b0390811782556040519081527fc7f505b2f371ae2175ee4913f4499e1f2633a7b5936321eed1cdaeb6115181d29060200160405180910390a15b50565b6080516132b5620000f4600039600050506132b56000f3fe608060405234801561001057600080fd5b50600436106102b45760003560e01c80637da0a87711610171578063bcb61920116100d3578063e38a584c11610097578063ee2d096811610071578063ee2d096814610601578063f3aafa7014610614578063fdd5205f1461062757600080fd5b8063e38a584c146105c8578063e5476cbe146105db578063e99b6e13146105ee57600080fd5b8063bcb6192014610569578063c8da80851461057c578063ca15c8731461058f578063d547741f146105a2578063e1788154146105b557600080fd5b8063a291d0a811610135578063b3ecf2361161010f578063b3ecf2361461053e578063b74795d914610545578063ba66f9fc1461055657600080fd5b8063a291d0a81461050f578063b3391c6714610522578063b3cb19911461053557600080fd5b80637da0a877146104ae5780639010d07c146104ce57806391d14854146104e157806399df6ff1146104f4578063a217fddf1461050757600080fd5b80634a79d50c1161021a57806361bcd0c4116101de5780637448216d116101b85780637448216d146104735780637998a1c4146104935780637d540a641461049b57600080fd5b806361bcd0c41461043a578063648154531461044d5780636c67e8071461046057600080fd5b80634a79d50c146103dc57806354fd4d50146103f15780635600f04f1461040c578063572b6c05146104145780635b0209b91461042757600080fd5b8063272bbd441161027c57806336568abe1161025657806336568abe146103a357806342dfe958146103b657806349eb42f1146103c957600080fd5b8063272bbd441461036a5780632f2ff15d1461037d57806335dde2631461039057600080fd5b806301ffc9a7146102b957806316e109f8146102e157806323add683146102f6578063248a9ca31461031957806324e3027014610357575b600080fd5b6102cc6102c7366004612b8f565b61063a565b60405190151581526020015b60405180910390f35b6102f46102ef366004612bce565b610665565b005b6102cc610304366004612c06565b60696020526000908152604090205460ff1681565b610349610327366004612c06565b6000908152600080516020613260833981519152602052604090206001015490565b6040519081526020016102d8565b6102f4610365366004612c1f565b61069e565b6102f4610378366004612c1f565b610952565b6102f461038b366004612c9e565b610b2e565b6102f461039e366004612bce565b610b60565b6102f46103b1366004612c9e565b610c3f565b6102f46103c4366004612d9a565b610c87565b6102f46103d7366004612c1f565b610dd0565b6103e4610e38565b6040516102d89190612ec6565b600154600254604080519283526020830191909152016102d8565b6103e4610ecd565b6102cc610422366004612ed9565b610edf565b6102f4610435366004612c06565b610f4e565b6102f4610448366004612c9e565b61109f565b6102f461045b366004612c1f565b6110d4565b6102f461046e366004612c9e565b6111cf565b610349610481366004612c06565b606a6020526000908152604090205481565b6103496113dd565b6102f46104a9366004612c1f565b61152d565b6104b661160e565b6040516001600160a01b0390911681526020016102d8565b6104b66104dc366004612ef6565b611686565b6102cc6104ef366004612c9e565b6116c7565b6102f4610502366004612c9e565b611727565b610349600081565b6102f461051d366004612bce565b611755565b6102cc610530366004612c9e565b611817565b61034960001981565b6000610349565b6000546001600160a01b03166104b6565b6102f4610564366004612c9e565b611852565b6102f4610577366004612c9e565b611907565b61034961058a366004612c9e565b611aeb565b61034961059d366004612c06565b611b49565b6102f46105b0366004612c9e565b611b88565b6102f46105c3366004612c9e565b611bba565b6102f46105d6366004612ef6565b611c6f565b6102f46105e9366004612f26565b611ca1565b6102f46105fc366004612c06565b611d43565b6102f461060f366004612c1f565b611e0c565b6102cc610622366004612c9e565b611e5a565b610349610635366004612f4b565b611e74565b60006001600160e01b03198216632205e16b60e11b148061065f575061065f82611ebb565b92915050565b6000838152600080516020613260833981519152602052604090206001015461068d81611ee0565b610698848484611ef4565b50505050565b600080546040805163d09edf3160e01b815290518693926001600160a01b03169163d09edf319160048083019260209291908290030181865afa1580156106e9573d6000803e3d6000fd5b505050506040513d601f19601f8201168201806040525081019061070d9190612f77565b60405163fdd5205f60e01b8152306004820152602481018490526001600160a01b03919091169063fdd5205f906044016020604051808303816000875af115801561075c573d6000803e3d6000fd5b505050506040513d601f19601f820116820180604052508101906107809190612f94565b905061087560008054906101000a90046001600160a01b03166001600160a01b031663d09edf316040518163ffffffff1660e01b8152600401602060405180830381865afa1580156107d6573d6000803e3d6000fd5b505050506040513d601f19601f820116820180604052508101906107fa9190612f77565b6001600160a01b031663248a9ca3836040518263ffffffff1660e01b815260040161082791815260200190565b602060405180830381865afa158015610844573d6000803e3d6000fd5b505050506040513d601f19601f820116820180604052508101906108689190612f94565b61087061200a565b612014565b60008054906101000a90046001600160a01b03166001600160a01b031663d09edf316040518163ffffffff1660e01b8152600401602060405180830381865afa1580156108c6573d6000803e3d6000fd5b505050506040513d601f19601f820116820180604052508101906108ea9190612f77565b6001600160a01b0316637d540a648686866040518463ffffffff1660e01b815260040161091993929190612fad565b600060405180830381600087803b15801561093357600080fd5b505af1158015610947573d6000803e3d6000fd5b505050505050505050565b600080546040805163d09edf3160e01b815290518693926001600160a01b03169163d09edf319160048083019260209291908290030181865afa15801561099d573d6000803e3d6000fd5b505050506040513d601f19601f820116820180604052508101906109c19190612f77565b60405163fdd5205f60e01b8152306004820152602481018490526001600160a01b03919091169063fdd5205f906044016020604051808303816000875af1158015610a10573d6000803e3d6000fd5b505050506040513d601f19601f82011682018060405250810190610a349190612f94565b9050610a8a60008054906101000a90046001600160a01b03166001600160a01b031663d09edf316040518163ffffffff1660e01b8152600401602060405180830381865afa1580156107d6573d6000803e3d6000fd5b60008054906101000a90046001600160a01b03166001600160a01b031663d09edf316040518163ffffffff1660e01b8152600401602060405180830381865afa158015610adb573d6000803e3d6000fd5b505050506040513d601f19601f82011682018060405250810190610aff9190612f77565b6001600160a01b031663648154538686866040518463ffffffff1660e01b815260040161091993929190612fad565b60008281526000805160206132608339815191526020526040902060010154610b5681611ee0565b610698838361212f565b610b6861200a565b6000546001600160a01b03166040516342f6e38960e01b81526001600160a01b03838116600483015291909116906342f6e38990602401602060405180830381865afa158015610bbc573d6000803e3d6000fd5b505050506040513d601f19601f82011682018060405250810190610be09190613005565b610c0d57604051635912aaef60e01b81526001600160a01b03821660048201526024015b60405180910390fd5b6000610c20610c1a61200a565b86611e74565b9050610c2d818585611ef4565b610c37818561212f565b505050505050565b610c4761200a565b6001600160a01b0316816001600160a01b031614610c785760405163334bd91960e11b815260040160405180910390fd5b610c828282612216565b505050565b7ff0c57e16840df040f15088dc2f81fe391c3923bec73e23a9662efc9c229c6a00805468010000000000000000810460ff16159067ffffffffffffffff16600081158015610cd25750825b905060008267ffffffffffffffff166001148015610cef5750303b155b905081158015610cfd575080155b15610d1b5760405163f92ee8a960e01b815260040160405180910390fd5b845467ffffffffffffffff191660011785558315610d4f57845468ff00000000000000001916680100000000000000001785555b610d5988886122d6565b600086806020019051810190610d6f9190612f77565b9050610d7a816123f4565b508315610dc657845468ff000000000000000019168555604051600181527fc7f505b2f371ae2175ee4913f4499e1f2633a7b5936321eed1cdaeb6115181d29060200160405180910390a15b5050505050505050565b6000610ddb81611ee0565b6000610df2610c1a6000546001600160a01b031690565b905060005b83811015610c3757610e2f82868684818110610e1557610e15613022565b9050602002016020810190610e2a9190612ed9565b612216565b50600101610df7565b606060016003018054610e4a90613038565b80601f0160208091040260200160405190810160405280929190818152602001828054610e7690613038565b8015610ec35780601f10610e9857610100808354040283529160200191610ec3565b820191906000526020600020905b815481529060010190602001808311610ea657829003601f168201915b5050505050905090565b606060016002018054610e4a90613038565b6000805460405163572b6c0560e01b81526001600160a01b0384811660048301529091169063572b6c0590602401602060405180830381865afa158015610f2a573d6000803e3d6000fd5b505050506040513d601f19601f8201168201806040525081019061065f9190613005565b610f5661200a565b6000546001600160a01b03166040516342f6e38960e01b81526001600160a01b03838116600483015291909116906342f6e38990602401602060405180830381865afa158015610faa573d6000803e3d6000fd5b505050506040513d601f19601f82011682018060405250810190610fce9190613005565b610ff657604051635912aaef60e01b81526001600160a01b0382166004820152602401610c04565b61100761100161200a565b83611e74565b61101081611b49565b1561102e5760405163aec5a76560e01b815260040160405180910390fd5b600061104161103b61200a565b85611e74565b600081815260696020908152604091829020805460ff191660019081179091558251848152918201529192507f5b06680c3e27b6966fd07ba5a87e12511d3d350bb0e841c91958f34569b40b8191015b60405180910390a150505050565b60006110aa81611ee0565b60006110c161103b6000546001600160a01b031690565b90506110cd818461212f565b5050505050565b6110dc61200a565b6000546001600160a01b03166040516342f6e38960e01b81526001600160a01b03838116600483015291909116906342f6e38990602401602060405180830381865afa158015611130573d6000803e3d6000fd5b505050506040513d601f19601f820116820180604052508101906111549190613005565b61117c57604051635912aaef60e01b81526001600160a01b0382166004820152602401610c04565b6000611189610c1a61200a565b905060005b83811015610c37576111c6828686848181106111ac576111ac613022565b90506020020160208101906111c19190612ed9565b61212f565b5060010161118e565b600080546040805163d09edf3160e01b815290518593926001600160a01b03169163d09edf319160048083019260209291908290030181865afa15801561121a573d6000803e3d6000fd5b505050506040513d601f19601f8201168201806040525081019061123e9190612f77565b60405163fdd5205f60e01b8152306004820152602481018490526001600160a01b03919091169063fdd5205f906044016020604051808303816000875af115801561128d573d6000803e3d6000fd5b505050506040513d601f19601f820116820180604052508101906112b19190612f94565b905061130760008054906101000a90046001600160a01b03166001600160a01b031663d09edf316040518163ffffffff1660e01b8152600401602060405180830381865afa1580156107d6573d6000803e3d6000fd5b60008054906101000a90046001600160a01b03166001600160a01b031663d09edf316040518163ffffffff1660e01b8152600401602060405180830381865afa158015611358573d6000803e3d6000fd5b505050506040513d601f19601f8201168201806040525081019061137c9190612f77565b60405163385e205560e21b8152600481018690526001600160a01b038581166024830152919091169063e1788154906044015b600060405180830381600087803b1580156113c957600080fd5b505af1158015610dc6573d6000803e3d6000fd5b604080516080810182526001805482526002546020830152600380546000946115289493929084019161140f90613038565b80601f016020809104026020016040519081016040528092919081815260200182805461143b90613038565b80156114885780601f1061145d57610100808354040283529160200191611488565b820191906000526020600020905b81548152906001019060200180831161146b57829003601f168201915b505050505081526020016003820180546114a190613038565b80601f01602080910402602001604051908101604052809291908181526020018280546114cd90613038565b801561151a5780601f106114ef5761010080835404028352916020019161151a565b820191906000526020600020905b8154815290600101906020018083116114fd57829003601f168201915b50505050508152505061243a565b905090565b61153561200a565b6000546001600160a01b03166040516342f6e38960e01b81526001600160a01b03838116600483015291909116906342f6e38990602401602060405180830381865afa158015611589573d6000803e3d6000fd5b505050506040513d601f19601f820116820180604052508101906115ad9190613005565b6115d557604051635912aaef60e01b81526001600160a01b0382166004820152602401610c04565b60006115e2610c1a61200a565b905060005b83811015610c375761160582868684818110610e1557610e15613022565b506001016115e7565b60008060009054906101000a90046001600160a01b03166001600160a01b0316637da0a8776040518163ffffffff1660e01b8152600401602060405180830381865afa158015611662573d6000803e3d6000fd5b505050506040513d601f19601f820116820180604052508101906115289190612f77565b60008281527fc1f6fe24621ce81ec5827caf0253cadb74709b061630e6b55e823717059320006020819052604082206116bf908461247a565b949350505050565b60008281526069602052604081205460ff16156116ef576116e88383612486565b905061065f565b6000838152600080516020613260833981519152602090815260408083206001600160a01b038616845290915290205460ff166116e8565b600061173281611ee0565b600061174961103b6000546001600160a01b031690565b90506110cd8184612216565b61175d61200a565b6000546001600160a01b03166040516342f6e38960e01b81526001600160a01b03838116600483015291909116906342f6e38990602401602060405180830381865afa1580156117b1573d6000803e3d6000fd5b505050506040513d601f19601f820116820180604052508101906117d59190613005565b6117fd57604051635912aaef60e01b81526001600160a01b0382166004820152602401610c04565b600061180a610c1a61200a565b90506110cd818585611ef4565b600082815260696020526040812054839060ff16611848576040516333af2d2960e01b815260040160405180910390fd5b6116bf8484612486565b61185a61200a565b6000546001600160a01b03166040516342f6e38960e01b81526001600160a01b03838116600483015291909116906342f6e38990602401602060405180830381865afa1580156118ae573d6000803e3d6000fd5b505050506040513d601f19601f820116820180604052508101906118d29190613005565b6118fa57604051635912aaef60e01b81526001600160a01b0382166004820152602401610c04565b600061174961103b61200a565b600080546040805163d09edf3160e01b815290518593926001600160a01b03169163d09edf319160048083019260209291908290030181865afa158015611952573d6000803e3d6000fd5b505050506040513d601f19601f820116820180604052508101906119769190612f77565b60405163fdd5205f60e01b8152306004820152602481018490526001600160a01b03919091169063fdd5205f906044016020604051808303816000875af11580156119c5573d6000803e3d6000fd5b505050506040513d601f19601f820116820180604052508101906119e99190612f94565b9050611a3f60008054906101000a90046001600160a01b03166001600160a01b031663d09edf316040518163ffffffff1660e01b8152600401602060405180830381865afa1580156107d6573d6000803e3d6000fd5b60008054906101000a90046001600160a01b03166001600160a01b031663d09edf316040518163ffffffff1660e01b8152600401602060405180830381865afa158015611a90573d6000803e3d6000fd5b505050506040513d601f19601f82011682018060405250810190611ab49190612f77565b604051632e99be7f60e21b8152600481018690526001600160a01b038581166024830152919091169063ba66f9fc906044016113af565b6000808383604051602001611b1c92919091825260601b6bffffffffffffffffffffffff1916602082015260340190565b60408051808303601f1901815291815281516020928301206000908152606a909252902054949350505050565b60008181527fc1f6fe24621ce81ec5827caf0253cadb74709b061630e6b55e82371705932000602081905260408220611b819061259d565b9392505050565b60008281526000805160206132608339815191526020526040902060010154611bb081611ee0565b6106988383612216565b611bc261200a565b6000546001600160a01b03166040516342f6e38960e01b81526001600160a01b03838116600483015291909116906342f6e38990602401602060405180830381865afa158015611c16573d6000803e3d6000fd5b505050506040513d601f19601f82011682018060405250810190611c3a9190613005565b611c6257604051635912aaef60e01b81526001600160a01b0382166004820152602401610c04565b60006110c161103b61200a565b60008281526000805160206132608339815191526020526040902060010154611c9781611ee0565b610c8283836125a7565b60008281526000805160206132608339815191526020526040902060010154611cc981611ee0565b82611cd381611b49565b15611cf15760405163aec5a76560e01b815260040160405180910390fd5b600084815260696020908152604091829020805460ff19168615159081179091558251878152918201527f5b06680c3e27b6966fd07ba5a87e12511d3d350bb0e841c91958f34569b40b819101611091565b611d4b61200a565b6000546001600160a01b03166040516342f6e38960e01b81526001600160a01b03838116600483015291909116906342f6e38990602401602060405180830381865afa158015611d9f573d6000803e3d6000fd5b505050506040513d601f19601f82011682018060405250810190611dc39190613005565b611deb57604051635912aaef60e01b81526001600160a01b0382166004820152602401610c04565b6000611dfe611df861200a565b84611e74565b9050610c82816000196125a7565b6000611e1781611ee0565b6000611e2e610c1a6000546001600160a01b031690565b905060005b83811015610c3757611e51828686848181106111ac576111ac613022565b50600101611e33565b600080611e6861103b61200a565b90506116bf81846116c7565b6040516bffffffffffffffffffffffff19606084901b1660208201526034810182905260009060540160405160208183030381529060405280519060200120905092915050565b60006001600160e01b0319821663aaeccc7560e01b148061065f575061065f82612627565b611ef181611eec61200a565b61265c565b50565b600083815260696020526040902054839060ff16611f25576040516333af2d2960e01b815260040160405180910390fd5b8180600003611f63576040517fff2f28f000000000000000000000000000000000000000000000000000000000815260048101829052602401610c04565b60008585604051602001611f9392919091825260601b6bffffffffffffffffffffffff1916602082015260340190565b60408051808303601f1901815282825280516020918201206000818152606a83528390208890558984526001600160a01b0389169184019190915290820186905291507ea848dc7e0a97518071981b0bbbf38d0ce61086c12106156c3fed80f80047149060600160405180910390a1505050505050565b6000611528612695565b60008054906101000a90046001600160a01b03166001600160a01b031663d09edf316040518163ffffffff1660e01b8152600401602060405180830381865afa158015612065573d6000803e3d6000fd5b505050506040513d601f19601f820116820180604052508101906120899190612f77565b604051632474521560e21b8152600481018490526001600160a01b03838116602483015291909116906391d1485490604401602060405180830381865afa1580156120d8573d6000803e3d6000fd5b505050506040513d601f19601f820116820180604052508101906120fc9190613005565b61212b576040516342abbb7760e01b8152600481018390526001600160a01b0382166024820152604401610c04565b5050565b60008281526069602052604081205460ff161561220c576121508383611aeb565b60000361218257604051631ec8ddc960e11b8152600481018490526001600160a01b0383166024820152604401610c04565b6040516370a0823160e01b81523060048201526001600160a01b038316906370a0823190602401602060405180830381865afa9250505080156121e2575060408051601f3d908101601f191682019092526121df91810190612f94565b60015b61220a5760405163530782a760e11b81526001600160a01b0383166004820152602401610c04565b505b611b8183836126e7565b60008281526069602052604081205460ff16156122cc576000838360405160200161225d92919091825260601b6bffffffffffffffffffffffff1916602082015260340190565b60408051808303601f1901815282825280516020918201206000818152606a83528381208190558885526001600160a01b038816928501929092529183015291507ea848dc7e0a97518071981b0bbbf38d0ce61086c12106156c3fed80f80047149060600160405180910390a1505b611b818383612739565b6122de61277c565b6001600160a01b03821661230557604051637280679360e01b815260040160405180910390fd5b6000805473ffffffffffffffffffffffffffffffffffffffff19166001600160a01b038416179055612336816127cc565b61235357604051637511254160e01b815260040160405180910390fd5b805160019081556020820151600255604082015182919060039061237790826130ba565b506060820151600382019061238c90826130ba565b50505060608101516040516123a1919061317a565b604080519182900382208351602080860151918552840152916001600160a01b038516917feb175f148a71d29a5f7bf5439182fcd81e6ea9cfc8a11b54ab0f705fa98fa8ca910160405180910390a35050565b6123fc61277c565b6001600160a01b03811661242357604051635b784de560e01b815260040160405180910390fd5b61242f600019806125a7565b61212b60008261212f565b600081600001518260400151836060015160405160200161245d93929190613196565b604051602081830303815290604052805190602001209050919050565b6000611b81838361281e565b60008061249284611b49565b905060005b818110156125925760006124ab8683611686565b9050600086826040516020016124dd92919091825260601b6bffffffffffffffffffffffff1916602082015260340190565b60408051808303601f1901815282825280516020918201206000818152606a909252919020546370a0823160e01b83526001600160a01b03898116600485015291935091908416906370a0823190602401602060405180830381865afa925050508015612567575060408051601f3d908101601f1916820190925261256491810190612f94565b60015b1561258457818110612582576001965050505050505061065f565b505b505050806001019050612497565b506000949350505050565b600061065f825490565b60008051602061326083398151915260006125de846000908152600080516020613260833981519152602052604090206001015490565b600085815260208490526040808220600101869055519192508491839187917fbd79b86ffe0ab8e8776151514217cd7cacd52c909f66475c3af44e129f0b00ff9190a450505050565b60006001600160e01b0319821663179dfb4560e01b148061065f57506301ffc9a760e01b6001600160e01b031983161461065f565b61266682826116c7565b61212b5760405163e2517d3f60e01b81526001600160a01b038216600482015260248101839052604401610c04565b60003660146126a333610edf565b80156126af5750808210155b156126df576000366126c183856131cb565b6126cc9282906131ec565b6126d591613216565b60601c9250505090565b339250505090565b600082828115801561270657506000546001600160a01b038281169116145b1561272457604051634701683560e11b815260040160405180910390fd5b61272e8585612848565b92505b505092915050565b60008280158015612754575060016127516000611b49565b11155b156127725760405163d1ed446560e01b815260040160405180910390fd5b6116bf848461289f565b7ff0c57e16840df040f15088dc2f81fe391c3923bec73e23a9662efc9c229c6a005468010000000000000000900460ff166127ca57604051631afcd79f60e31b815260040160405180910390fd5b565b60008160400151516000036127e357506000919050565b8160600151516000036127f857506000919050565b815115801561280957506020820151155b1561281657506000919050565b506001919050565b600082600001828154811061283557612835613022565b9060005260206000200154905092915050565b60007fc1f6fe24621ce81ec5827caf0253cadb74709b061630e6b55e823717059320008161287685856128ed565b905080156116bf5760008581526020839052604090206128969085612993565b50949350505050565b60007fc1f6fe24621ce81ec5827caf0253cadb74709b061630e6b55e82371705932000816128cd85856129a8565b905080156116bf5760008581526020839052604090206128969085612a42565b600060008051602061326083398151915261290884846116c7565b612989576000848152602082815260408083206001600160a01b03871684529091529020805460ff1916600117905561293f61200a565b6001600160a01b0316836001600160a01b0316857f2f8788117e7eff1d82e926ec794901d17c78024a50270940304540a733656f0d60405160405180910390a4600191505061065f565b600091505061065f565b6000611b81836001600160a01b038416612a57565b60006000805160206132608339815191526129c384846116c7565b15612989576000848152602082815260408083206001600160a01b03871684529091529020805460ff191690556129f861200a565b6001600160a01b0316836001600160a01b0316857ff6391f5c32d9c69d2a47ea670b442974b53935d1edc7fd64eb21e047a839171b60405160405180910390a4600191505061065f565b6000611b81836001600160a01b038416612aa6565b6000818152600183016020526040812054612a9e5750815460018181018455600084815260208082209093018490558454848252828601909352604090209190915561065f565b50600061065f565b60008181526001830160205260408120548015612989576000612aca6001836131cb565b8554909150600090612ade906001906131cb565b9050808214612b43576000866000018281548110612afe57612afe613022565b9060005260206000200154905080876000018481548110612b2157612b21613022565b6000918252602080832090910192909255918252600188019052604090208390555b8554869080612b5457612b54613249565b60019003818190600052602060002001600090559055856001016000868152602001908152602001600020600090556001935050505061065f565b600060208284031215612ba157600080fd5b81356001600160e01b031981168114611b8157600080fd5b6001600160a01b0381168114611ef157600080fd5b600080600060608486031215612be357600080fd5b833592506020840135612bf581612bb9565b929592945050506040919091013590565b600060208284031215612c1857600080fd5b5035919050565b600080600060408486031215612c3457600080fd5b83359250602084013567ffffffffffffffff80821115612c5357600080fd5b818601915086601f830112612c6757600080fd5b813581811115612c7657600080fd5b8760208260051b8501011115612c8b57600080fd5b6020830194508093505050509250925092565b60008060408385031215612cb157600080fd5b823591506020830135612cc381612bb9565b809150509250929050565b634e487b7160e01b600052604160045260246000fd5b6040516080810167ffffffffffffffff81118282101715612d0757612d07612cce565b60405290565b600082601f830112612d1e57600080fd5b813567ffffffffffffffff80821115612d3957612d39612cce565b604051601f8301601f19908116603f01168101908282118183101715612d6157612d61612cce565b81604052838152866020858801011115612d7a57600080fd5b836020870160208301376000602085830101528094505050505092915050565b600080600060608486031215612daf57600080fd5b8335612dba81612bb9565b9250602084013567ffffffffffffffff80821115612dd757600080fd5b9085019060808288031215612deb57600080fd5b612df3612ce4565b8235815260208301356020820152604083013582811115612e1357600080fd5b612e1f89828601612d0d565b604083015250606083013582811115612e3757600080fd5b612e4389828601612d0d565b60608301525093506040860135915080821115612e5f57600080fd5b50612e6c86828701612d0d565b9150509250925092565b60005b83811015612e91578181015183820152602001612e79565b50506000910152565b60008151808452612eb2816020860160208601612e76565b601f01601f19169290920160200192915050565b602081526000611b816020830184612e9a565b600060208284031215612eeb57600080fd5b8135611b8181612bb9565b60008060408385031215612f0957600080fd5b50508035926020909101359150565b8015158114611ef157600080fd5b60008060408385031215612f3957600080fd5b823591506020830135612cc381612f18565b60008060408385031215612f5e57600080fd5b8235612f6981612bb9565b946020939093013593505050565b600060208284031215612f8957600080fd5b8151611b8181612bb9565b600060208284031215612fa657600080fd5b5051919050565b83815260406020808301829052908201839052600090849060608401835b86811015612ff9578335612fde81612bb9565b6001600160a01b031682529282019290820190600101612fcb565b50979650505050505050565b60006020828403121561301757600080fd5b8151611b8181612f18565b634e487b7160e01b600052603260045260246000fd5b600181811c9082168061304c57607f821691505b60208210810361306c57634e487b7160e01b600052602260045260246000fd5b50919050565b601f821115610c82576000816000526020600020601f850160051c8101602086101561309b5750805b601f850160051c820191505b81811015610c37578281556001016130a7565b815167ffffffffffffffff8111156130d4576130d4612cce565b6130e8816130e28454613038565b84613072565b602080601f83116001811461311d57600084156131055750858301515b600019600386901b1c1916600185901b178555610c37565b600085815260208120601f198616915b8281101561314c5788860151825594840194600190910190840161312d565b508582101561316a5787850151600019600388901b60f8161c191681555b5050505050600190811b01905550565b6000825161318c818460208701612e76565b9190910192915050565b8381526060602082015260006131af6060830185612e9a565b82810360408401526131c18185612e9a565b9695505050505050565b8181038181111561065f57634e487b7160e01b600052601160045260246000fd5b600080858511156131fc57600080fd5b8386111561320957600080fd5b5050820193919092039150565b6bffffffffffffffffffffffff1981358181169160148510156127315760149490940360031b84901b1690921692915050565b634e487b7160e01b600052603160045260246000fdfe02dd7bc7dec4dceedda775e58dd541e08a116c6c53815c0bd028192f7b626800a264697066735822122025be4687268974887d56d410fdb61dd67018c931e40266e6c3704f88bc82579764736f6c63430008170033",
    "linkReferences": {}
  },
  "methodIdentifiers": {
    "BURN_ADMIN_ROLE()": "b3cb1991",
    "DEFAULT_ADMIN_ROLE()": "a217fddf",
    "burnAdminFromModuleRole(bytes32)": "e99b6e13",
    "generateRoleId(address,bytes32)": "fdd5205f",
    "getAdminRole()": "b3ecf236",
    "getRoleAdmin(bytes32)": "248a9ca3",
    "getRoleMember(bytes32,uint256)": "9010d07c",
    "getRoleMemberCount(bytes32)": "ca15c873",
    "getThresholdValue(bytes32,address)": "c8da8085",
    "grantGlobalRole(bytes32,address)": "61bcd0c4",
    "grantGlobalRoleBatched(bytes32,address[])": "ee2d0968",
    "grantModuleRole(bytes32,address)": "6c67e807",
    "grantModuleRoleBatched(bytes32,address[])": "272bbd44",
    "grantRole(bytes32,address)": "2f2ff15d",
    "grantRoleFromModule(bytes32,address)": "e1788154",
    "grantRoleFromModuleBatched(bytes32,address[])": "64815453",
    "grantTokenRoleFromModule(bytes32,address,uint256)": "35dde263",
    "hasModuleRole(bytes32,address)": "f3aafa70",
    "hasRole(bytes32,address)": "91d14854",
    "hasTokenRole(bytes32,address)": "b3391c67",
    "identifier()": "7998a1c4",
    "init(address,(uint256,uint256,string,string),bytes)": "42dfe958",
    "isTokenGated(bytes32)": "23add683",
    "isTrustedForwarder(address)": "572b6c05",
    "makeRoleTokenGatedFromModule(bytes32)": "5b0209b9",
    "orchestrator()": "b74795d9",
    "renounceRole(bytes32,address)": "36568abe",
    "revokeGlobalRole(bytes32,address)": "99df6ff1",
    "revokeGlobalRoleBatched(bytes32,address[])": "49eb42f1",
    "revokeModuleRole(bytes32,address)": "bcb61920",
    "revokeModuleRoleBatched(bytes32,address[])": "24e30270",
    "revokeRole(bytes32,address)": "d547741f",
    "revokeRoleFromModule(bytes32,address)": "ba66f9fc",
    "revokeRoleFromModuleBatched(bytes32,address[])": "7d540a64",
    "setThreshold(bytes32,address,uint256)": "16e109f8",
    "setThresholdFromModule(bytes32,address,uint256)": "a291d0a8",
    "setTokenGated(bytes32,bool)": "e5476cbe",
    "supportsInterface(bytes4)": "01ffc9a7",
    "thresholdMap(bytes32)": "7448216d",
    "title()": "4a79d50c",
    "transferAdminRole(bytes32,bytes32)": "e38a584c",
    "trustedForwarder()": "7da0a877",
    "url()": "5600f04f",
    "version()": "54fd4d50"
  },
  "id": 112
}