{
  "abi": [
    {
      "type": "function",
      "name": "MAX_VOTING_DURATION",
      "inputs": [],
      "outputs": [
        {
          "name": "",
          "type": "uint256",
          "internalType": "uint256"
        }
      ],
      "stateMutability": "view"
    },
    {
      "type": "function",
      "name": "MIN_VOTING_DURATION",
      "inputs": [],
      "outputs": [
        {
          "name": "",
          "type": "uint256",
          "internalType": "uint256"
        }
      ],
      "stateMutability": "view"
    },
    {
      "type": "function",
      "name": "addVoter",
      "inputs": [
        {
          "name": "who",
          "type": "address",
          "internalType": "address"
        }
      ],
      "outputs": [],
      "stateMutability": "nonpayable"
    },
    {
      "type": "function",
      "name": "castVote",
      "inputs": [
        {
          "name": "motionId",
          "type": "uint256",
          "internalType": "uint256"
        },
        {
          "name": "support",
          "type": "uint8",
          "internalType": "uint8"
        }
      ],
      "outputs": [],
      "stateMutability": "nonpayable"
    },
    {
      "type": "function",
      "name": "createMotion",
      "inputs": [
        {
          "name": "target",
          "type": "address",
          "internalType": "address"
        },
        {
          "name": "action",
          "type": "bytes",
          "internalType": "bytes"
        }
      ],
      "outputs": [
        {
          "name": "",
          "type": "uint256",
          "internalType": "uint256"
        }
      ],
      "stateMutability": "nonpayable"
    },
    {
      "type": "function",
      "name": "executeMotion",
      "inputs": [
        {
          "name": "motionId",
          "type": "uint256",
          "internalType": "uint256"
        }
      ],
      "outputs": [],
      "stateMutability": "nonpayable"
    },
    {
      "type": "function",
      "name": "getReceipt",
      "inputs": [
        {
          "name": "_ID",
          "type": "uint256",
          "internalType": "uint256"
        },
        {
          "name": "voter",
          "type": "address",
          "internalType": "address"
        }
      ],
      "outputs": [
        {
          "name": "",
          "type": "tuple",
          "internalType": "struct IAUT_EXT_VotingRoles_v1.Receipt",
          "components": [
            {
              "name": "hasVoted",
              "type": "bool",
              "internalType": "bool"
            },
            {
              "name": "support",
              "type": "uint8",
              "internalType": "uint8"
            }
          ]
        }
      ],
      "stateMutability": "view"
    },
    {
      "type": "function",
      "name": "grantModuleRole",
      "inputs": [
        {
          "name": "role",
          "type": "bytes32",
          "internalType": "bytes32"
        },
        {
          "name": "target",
          "type": "address",
          "internalType": "address"
        }
      ],
      "outputs": [],
      "stateMutability": "nonpayable"
    },
    {
      "type": "function",
      "name": "grantModuleRoleBatched",
      "inputs": [
        {
          "name": "role",
          "type": "bytes32",
          "internalType": "bytes32"
        },
        {
          "name": "targets",
          "type": "address[]",
          "internalType": "address[]"
        }
      ],
      "outputs": [],
      "stateMutability": "nonpayable"
    },
    {
      "type": "function",
      "name": "identifier",
      "inputs": [],
      "outputs": [
        {
          "name": "",
          "type": "bytes32",
          "internalType": "bytes32"
        }
      ],
      "stateMutability": "view"
    },
    {
      "type": "function",
      "name": "init",
      "inputs": [
        {
          "name": "orchestrator_",
          "type": "address",
          "internalType": "contract IOrchestrator_v1"
        },
        {
          "name": "metadata",
          "type": "tuple",
          "internalType": "struct IModule_v1.Metadata",
          "components": [
            {
              "name": "majorVersion",
              "type": "uint256",
              "internalType": "uint256"
            },
            {
              "name": "minorVersion",
              "type": "uint256",
              "internalType": "uint256"
            },
            {
              "name": "url",
              "type": "string",
              "internalType": "string"
            },
            {
              "name": "title",
              "type": "string",
              "internalType": "string"
            }
          ]
        },
        {
          "name": "configData",
          "type": "bytes",
          "internalType": "bytes"
        }
      ],
      "outputs": [],
      "stateMutability": "nonpayable"
    },
    {
      "type": "function",
      "name": "isTrustedForwarder",
      "inputs": [
        {
          "name": "forwarder",
          "type": "address",
          "internalType": "address"
        }
      ],
      "outputs": [
        {
          "name": "",
          "type": "bool",
          "internalType": "bool"
        }
      ],
      "stateMutability": "view"
    },
    {
      "type": "function",
      "name": "isVoter",
      "inputs": [
        {
          "name": "",
          "type": "address",
          "internalType": "address"
        }
      ],
      "outputs": [
        {
          "name": "",
          "type": "bool",
          "internalType": "bool"
        }
      ],
      "stateMutability": "view"
    },
    {
      "type": "function",
      "name": "motionCount",
      "inputs": [],
      "outputs": [
        {
          "name": "",
          "type": "uint256",
          "internalType": "uint256"
        }
      ],
      "stateMutability": "view"
    },
    {
      "type": "function",
      "name": "motions",
      "inputs": [
        {
          "name": "",
          "type": "uint256",
          "internalType": "uint256"
        }
      ],
      "outputs": [
        {
          "name": "target",
          "type": "address",
          "internalType": "address"
        },
        {
          "name": "action",
          "type": "bytes",
          "internalType": "bytes"
        },
        {
          "name": "startTimestamp",
          "type": "uint256",
          "internalType": "uint256"
        },
        {
          "name": "endTimestamp",
          "type": "uint256",
          "internalType": "uint256"
        },
        {
          "name": "requiredThreshold",
          "type": "uint256",
          "internalType": "uint256"
        },
        {
          "name": "forVotes",
          "type": "uint256",
          "internalType": "uint256"
        },
        {
          "name": "againstVotes",
          "type": "uint256",
          "internalType": "uint256"
        },
        {
          "name": "abstainVotes",
          "type": "uint256",
          "internalType": "uint256"
        },
        {
          "name": "executedAt",
          "type": "uint256",
          "internalType": "uint256"
        },
        {
          "name": "executionResult",
          "type": "bool",
          "internalType": "bool"
        },
        {
          "name": "executionReturnData",
          "type": "bytes",
          "internalType": "bytes"
        }
      ],
      "stateMutability": "view"
    },
    {
      "type": "function",
      "name": "orchestrator",
      "inputs": [],
      "outputs": [
        {
          "name": "",
          "type": "address",
          "internalType": "contract IOrchestrator_v1"
        }
      ],
      "stateMutability": "view"
    },
    {
      "type": "function",
      "name": "removeVoter",
      "inputs": [
        {
          "name": "who",
          "type": "address",
          "internalType": "address"
        }
      ],
      "outputs": [],
      "stateMutability": "nonpayable"
    },
    {
      "type": "function",
      "name": "revokeModuleRole",
      "inputs": [
        {
          "name": "role",
          "type": "bytes32",
          "internalType": "bytes32"
        },
        {
          "name": "target",
          "type": "address",
          "internalType": "address"
        }
      ],
      "outputs": [],
      "stateMutability": "nonpayable"
    },
    {
      "type": "function",
      "name": "revokeModuleRoleBatched",
      "inputs": [
        {
          "name": "role",
          "type": "bytes32",
          "internalType": "bytes32"
        },
        {
          "name": "targets",
          "type": "address[]",
          "internalType": "address[]"
        }
      ],
      "outputs": [],
      "stateMutability": "nonpayable"
    },
    {
      "type": "function",
      "name": "setThreshold",
      "inputs": [
        {
          "name": "newThreshold",
          "type": "uint256",
          "internalType": "uint256"
        }
      ],
      "outputs": [],
      "stateMutability": "nonpayable"
    },
    {
      "type": "function",
      "name": "setVotingDuration",
      "inputs": [
        {
          "name": "newVoteDuration",
          "type": "uint256",
          "internalType": "uint256"
        }
      ],
      "outputs": [],
      "stateMutability": "nonpayable"
    },
    {
      "type": "function",
      "name": "supportsInterface",
      "inputs": [
        {
          "name": "interfaceId",
          "type": "bytes4",
          "internalType": "bytes4"
        }
      ],
      "outputs": [
        {
          "name": "",
          "type": "bool",
          "internalType": "bool"
        }
      ],
      "stateMutability": "view"
    },
    {
      "type": "function",
      "name": "threshold",
      "inputs": [],
      "outputs": [
        {
          "name": "",
          "type": "uint256",
          "internalType": "uint256"
        }
      ],
      "stateMutability": "view"
    },
    {
      "type": "function",
      "name": "title",
      "inputs": [],
      "outputs": [
        {
          "name": "",
          "type": "string",
          "internalType": "string"
        }
      ],
      "stateMutability": "view"
    },
    {
      "type": "function",
      "name": "trustedForwarder",
      "inputs": [],
      "outputs": [
        {
          "name": "",
          "type": "address",
          "internalType": "address"
        }
      ],
      "stateMutability": "view"
    },
    {
      "type": "function",
      "name": "url",
      "inputs": [],
      "outputs": [
        {
          "name": "",
          "type": "string",
          "internalType": "string"
        }
      ],
      "stateMutability": "view"
    },
    {
      "type": "function",
      "name": "version",
      "inputs": [],
      "outputs": [
        {
          "name": "",
          "type": "uint256",
          "internalType": "uint256"
        },
        {
          "name": "",
          "type": "uint256",
          "internalType": "uint256"
        }
      ],
      "stateMutability": "view"
    },
    {
      "type": "function",
      "name": "voteDuration",
      "inputs": [],
      "outputs": [
        {
          "name": "",
          "type": "uint256",
          "internalType": "uint256"
        }
      ],
      "stateMutability": "view"
    },
    {
      "type": "function",
      "name": "voterCount",
      "inputs": [],
      "outputs": [
        {
          "name": "",
          "type": "uint256",
          "internalType": "uint256"
        }
      ],
      "stateMutability": "view"
    },
    {
      "type": "event",
      "name": "Initialized",
      "inputs": [
        {
          "name": "version",
          "type": "uint64",
          "indexed": false,
          "internalType": "uint64"
        }
      ],
      "anonymous": false
    },
    {
      "type": "event",
      "name": "ModuleInitialized",
      "inputs": [
        {
          "name": "parentOrchestrator",
          "type": "address",
          "indexed": true,
          "internalType": "address"
        },
        {
          "name": "moduleTitle",
          "type": "string",
          "indexed": true,
          "internalType": "string"
        },
        {
          "name": "majorVersion",
          "type": "uint256",
          "indexed": false,
          "internalType": "uint256"
        },
        {
          "name": "minorVersion",
          "type": "uint256",
          "indexed": false,
          "internalType": "uint256"
        }
      ],
      "anonymous": false
    },
    {
      "type": "event",
      "name": "MotionCreated",
      "inputs": [
        {
          "name": "motionId",
          "type": "uint256",
          "indexed": true,
          "internalType": "uint256"
        }
      ],
      "anonymous": false
    },
    {
      "type": "event",
      "name": "MotionExecuted",
      "inputs": [
        {
          "name": "motionId",
          "type": "uint256",
          "indexed": true,
          "internalType": "uint256"
        }
      ],
      "anonymous": false
    },
    {
      "type": "event",
      "name": "ThresholdUpdated",
      "inputs": [
        {
          "name": "oldThreshold",
          "type": "uint256",
          "indexed": false,
          "internalType": "uint256"
        },
        {
          "name": "newThreshold",
          "type": "uint256",
          "indexed": false,
          "internalType": "uint256"
        }
      ],
      "anonymous": false
    },
    {
      "type": "event",
      "name": "VoteDurationUpdated",
      "inputs": [
        {
          "name": "oldVotingDuration",
          "type": "uint256",
          "indexed": false,
          "internalType": "uint256"
        },
        {
          "name": "newVotingDuration",
          "type": "uint256",
          "indexed": false,
          "internalType": "uint256"
        }
      ],
      "anonymous": false
    },
    {
      "type": "event",
      "name": "VoterAdded",
      "inputs": [
        {
          "name": "who",
          "type": "address",
          "indexed": true,
          "internalType": "address"
        }
      ],
      "anonymous": false
    },
    {
      "type": "event",
      "name": "VoterRemoved",
      "inputs": [
        {
          "name": "who",
          "type": "address",
          "indexed": true,
          "internalType": "address"
        }
      ],
      "anonymous": false
    },
    {
      "type": "error",
      "name": "InvalidInitialization",
      "inputs": []
    },
    {
      "type": "error",
      "name": "Module_OrchestratorCallbackFailed",
      "inputs": [
        {
          "name": "funcSig",
          "type": "string",
          "internalType": "string"
        }
      ]
    },
    {
      "type": "error",
      "name": "Module__CallerNotAuthorized",
      "inputs": [
        {
          "name": "role",
          "type": "bytes32",
          "internalType": "bytes32"
        },
        {
          "name": "caller",
          "type": "address",
          "internalType": "address"
        }
      ]
    },
    {
      "type": "error",
      "name": "Module__InvalidMetadata",
      "inputs": []
    },
    {
      "type": "error",
      "name": "Module__InvalidOrchestratorAddress",
      "inputs": []
    },
    {
      "type": "error",
      "name": "Module__OnlyCallableByOrchestrator",
      "inputs": []
    },
    {
      "type": "error",
      "name": "Module__VotingRoleManager__AttemptedDoubleVote",
      "inputs": []
    },
    {
      "type": "error",
      "name": "Module__VotingRoleManager__CallerNotVoter",
      "inputs": []
    },
    {
      "type": "error",
      "name": "Module__VotingRoleManager__EmptyVoters",
      "inputs": []
    },
    {
      "type": "error",
      "name": "Module__VotingRoleManager__InvalidMotionId",
      "inputs": []
    },
    {
      "type": "error",
      "name": "Module__VotingRoleManager__InvalidSupport",
      "inputs": []
    },
    {
      "type": "error",
      "name": "Module__VotingRoleManager__InvalidVoterAddress",
      "inputs": []
    },
    {
      "type": "error",
      "name": "Module__VotingRoleManager__InvalidVotingDuration",
      "inputs": []
    },
    {
      "type": "error",
      "name": "Module__VotingRoleManager__IsAlreadyVoter",
      "inputs": []
    },
    {
      "type": "error",
      "name": "Module__VotingRoleManager__MotionAlreadyExecuted",
      "inputs": []
    },
    {
      "type": "error",
      "name": "Module__VotingRoleManager__MotionInVotingPhase",
      "inputs": []
    },
    {
      "type": "error",
      "name": "Module__VotingRoleManager__MotionVotingPhaseClosed",
      "inputs": []
    },
    {
      "type": "error",
      "name": "Module__VotingRoleManager__ThresholdNotReached",
      "inputs": []
    },
    {
      "type": "error",
      "name": "Module__VotingRoleManager__UnreachableThreshold",
      "inputs": []
    },
    {
      "type": "error",
      "name": "NotInitializing",
      "inputs": []
    }
  ],
  "bytecode": {
    "object": "0x60a06040523480156200001157600080fd5b5060006080526200002162000027565b620000db565b7ff0c57e16840df040f15088dc2f81fe391c3923bec73e23a9662efc9c229c6a00805468010000000000000000900460ff1615620000785760405163f92ee8a960e01b815260040160405180910390fd5b80546001600160401b0390811614620000d85780546001600160401b0319166001600160401b0390811782556040519081527fc7f505b2f371ae2175ee4913f4499e1f2633a7b5936321eed1cdaeb6115181d29060200160405180910390a15b50565b608051612969620000f4600039600050506129696000f3fe608060405234801561001057600080fd5b50600436106101cf5760003560e01c80636c67e80711610104578063b74795d9116100a2578063e6f5ed5d11610071578063e6f5ed5d14610446578063eaf1061c14610459578063eefe85e414610463578063f4ab9adf1461046d57600080fd5b8063b74795d914610388578063bcb6192014610399578063e23a9a52146103ac578063e5cf12d71461043357600080fd5b806386c1ff68116100de57806386c1ff6814610315578063960bfe0414610328578063a7771ee31461033b578063b21d36a81461035e57600080fd5b80636c67e807146102da5780637998a1c4146102ed5780637da0a877146102f557600080fd5b80634a79d50c11610171578063563644991161014b578063563644991461029857806356781388146102a1578063572b6c05146102b45780635bcfadb5146102c757600080fd5b80634a79d50c1461026057806354fd4d50146102755780635600f04f1461029057600080fd5b80632cb0c650116101ad5780632cb0c6501461022457806342169e481461023b57806342cde4e81461024457806342dfe9581461024d57600080fd5b806301ffc9a7146101d457806324e30270146101fc578063272bbd4414610211575b600080fd5b6101e76101e2366004611fd5565b610480565b60405190151581526020015b60405180910390f35b61020f61020a366004612006565b6104ab565b005b61020f61021f366004612006565b61075f565b61022d60395481565b6040519081526020016101f3565b61022d603a5481565b61022d603b5481565b61020f61025b36600461217a565b61093b565b610268610c97565b6040516101f391906122a6565b600154600254604080519283526020830191909152016101f3565b610268610d2c565b61022d603c5481565b61020f6102af3660046122b9565b610d3e565b6101e76102c23660046122ef565b610f01565b61020f6102d536600461230c565b610f70565b61020f6102e8366004612325565b61103d565b61022d61124b565b6102fd61139b565b6040516001600160a01b0390911681526020016101f3565b61020f6103233660046122ef565b611413565b61020f61033636600461230c565b6114fd565b6101e76103493660046122ef565b60376020526000908152604090205460ff1681565b61037161036c36600461230c565b61158f565b6040516101f39b9a9998979695949392919061234a565b6000546001600160a01b03166102fd565b61020f6103a7366004612325565b611709565b6104136103ba366004612325565b60408051808201825260008082526020918201819052938452603881528184206001600160a01b03939093168452600890920182529182902082518084019093525460ff80821615158452610100909104169082015290565b6040805182511515815260209283015160ff1692810192909252016101f3565b61020f61044136600461230c565b6118ed565b61022d6104543660046123c8565b611a50565b61022d6201518081565b61022d6212750081565b61020f61047b3660046122ef565b611b3d565b60006001600160e01b031982166340ea44ef60e11b14806104a557506104a582611c37565b92915050565b600080546040805163d09edf3160e01b815290518693926001600160a01b03169163d09edf319160048083019260209291908290030181865afa1580156104f6573d6000803e3d6000fd5b505050506040513d601f19601f8201168201806040525081019061051a919061243a565b60405163fdd5205f60e01b8152306004820152602481018490526001600160a01b03919091169063fdd5205f906044016020604051808303816000875af1158015610569573d6000803e3d6000fd5b505050506040513d601f19601f8201168201806040525081019061058d9190612457565b905061068260008054906101000a90046001600160a01b03166001600160a01b031663d09edf316040518163ffffffff1660e01b8152600401602060405180830381865afa1580156105e3573d6000803e3d6000fd5b505050506040513d601f19601f82011682018060405250810190610607919061243a565b6001600160a01b031663248a9ca3836040518263ffffffff1660e01b815260040161063491815260200190565b602060405180830381865afa158015610651573d6000803e3d6000fd5b505050506040513d601f19601f820116820180604052508101906106759190612457565b61067d611c6c565b611cbe565b60008054906101000a90046001600160a01b03166001600160a01b031663d09edf316040518163ffffffff1660e01b8152600401602060405180830381865afa1580156106d3573d6000803e3d6000fd5b505050506040513d601f19601f820116820180604052508101906106f7919061243a565b6001600160a01b0316637d540a648686866040518463ffffffff1660e01b815260040161072693929190612470565b600060405180830381600087803b15801561074057600080fd5b505af1158015610754573d6000803e3d6000fd5b505050505050505050565b600080546040805163d09edf3160e01b815290518693926001600160a01b03169163d09edf319160048083019260209291908290030181865afa1580156107aa573d6000803e3d6000fd5b505050506040513d601f19601f820116820180604052508101906107ce919061243a565b60405163fdd5205f60e01b8152306004820152602481018490526001600160a01b03919091169063fdd5205f906044016020604051808303816000875af115801561081d573d6000803e3d6000fd5b505050506040513d601f19601f820116820180604052508101906108419190612457565b905061089760008054906101000a90046001600160a01b03166001600160a01b031663d09edf316040518163ffffffff1660e01b8152600401602060405180830381865afa1580156105e3573d6000803e3d6000fd5b60008054906101000a90046001600160a01b03166001600160a01b031663d09edf316040518163ffffffff1660e01b8152600401602060405180830381865afa1580156108e8573d6000803e3d6000fd5b505050506040513d601f19601f8201168201806040525081019061090c919061243a565b6001600160a01b031663648154538686866040518463ffffffff1660e01b815260040161072693929190612470565b7ff0c57e16840df040f15088dc2f81fe391c3923bec73e23a9662efc9c229c6a00805468010000000000000000810460ff16159067ffffffffffffffff166000811580156109865750825b905060008267ffffffffffffffff1660011480156109a35750303b155b9050811580156109b1575080155b156109cf5760405163f92ee8a960e01b815260040160405180910390fd5b845467ffffffffffffffff191660011785558315610a0357845468ff00000000000000001916680100000000000000001785555b610a0d8888611dd5565b606060008088806020019051810190610a2691906124c8565b825192955090935091506000819003610a52576040516371d0d18f60e01b815260040160405180910390fd5b80831115610a765760405160016299f5b160e01b0319815260040160405180910390fd5b62015180821080610a8957506212750082115b15610aa757604051634b017c5760e11b815260040160405180910390fd5b6000805b82811015610bb957858181518110610ac557610ac561258d565b6020026020010151915060006001600160a01b0316826001600160a01b03161480610af857506001600160a01b03821630145b80610b1057506000546001600160a01b038381169116145b15610b2e576040516320afbe5160e21b815260040160405180910390fd5b6001600160a01b03821660009081526037602052604090205460ff1615610b68576040516303e3421f60e11b815260040160405180910390fd5b6001600160a01b038216600081815260376020526040808220805460ff19166001179055517fa636f4a11e2d3ba7f89d042ecb0a6b886716e98cd49d8fd876ee0f73bced42b89190a2600101610aab565b50603a829055603b8490556040805160008152602081018690527fb06a54caabe58475c86c2bf9df3f2f06dd1213e9e10659c293117fe4893b274b910160405180910390a1603c8390556040805160008152602081018590527fd47773545974972c430ef4df16cf8d0c415f1c29bc3ec203d20b7452d94494e7910160405180910390a150505050508315610c8d57845468ff000000000000000019168555604051600181527fc7f505b2f371ae2175ee4913f4499e1f2633a7b5936321eed1cdaeb6115181d29060200160405180910390a15b5050505050505050565b606060016003018054610ca9906125a3565b80601f0160208091040260200160405190810160405280929190818152602001828054610cd5906125a3565b8015610d225780601f10610cf757610100808354040283529160200191610d22565b820191906000526020600020905b815481529060010190602001808311610d0557829003601f168201915b5050505050905090565b606060016002018054610ca9906125a3565b60376000610d4a611c6c565b6001600160a01b0316815260208101919091526040016000205460ff16610d8457604051633928026560e21b815260040160405180910390fd5b60028160ff161115610da957604051632832fccb60e11b815260040160405180910390fd5b6039548210610dcb5760405163742b68d760e01b815260040160405180910390fd5b60008281526038602052604090206003810154421115610dfe5760405163ed13b8f760e01b815260040160405180910390fd5b806008016000610e0c611c6c565b6001600160a01b0316815260208101919091526040016000205460ff1615610e4757604051635758b7bf60e11b815260040160405180910390fd5b8160ff16600003610e62576005810180546001019055610e94565b8160ff16600103610e7d576006810180546001019055610e94565b8160ff16600203610e945760078101805460010190555b604080518082019091526001815260ff83166020820152600882016000610eb9611c6c565b6001600160a01b0316815260208082019290925260400160002082518154939092015160ff166101000261ff00199215159290921661ffff1990931692909217179055505050565b6000805460405163572b6c0560e01b81526001600160a01b0384811660048301529091169063572b6c0590602401602060405180830381865afa158015610f4c573d6000803e3d6000fd5b505050506040513d601f19601f820116820180604052508101906104a591906125dd565b30610f79611c6c565b6001600160a01b031614610fcb576737b7363ca9b2b63360c11b610f9b611c6c565b6040516342abbb7760e01b815260048101929092526001600160a01b031660248201526044015b60405180910390fd5b62015180811080610fde57506212750081115b15610ffc57604051634b017c5760e11b815260040160405180910390fd5b603c5460408051918252602082018390527fd47773545974972c430ef4df16cf8d0c415f1c29bc3ec203d20b7452d94494e7910160405180910390a1603c55565b600080546040805163d09edf3160e01b815290518593926001600160a01b03169163d09edf319160048083019260209291908290030181865afa158015611088573d6000803e3d6000fd5b505050506040513d601f19601f820116820180604052508101906110ac919061243a565b60405163fdd5205f60e01b8152306004820152602481018490526001600160a01b03919091169063fdd5205f906044016020604051808303816000875af11580156110fb573d6000803e3d6000fd5b505050506040513d601f19601f8201168201806040525081019061111f9190612457565b905061117560008054906101000a90046001600160a01b03166001600160a01b031663d09edf316040518163ffffffff1660e01b8152600401602060405180830381865afa1580156105e3573d6000803e3d6000fd5b60008054906101000a90046001600160a01b03166001600160a01b031663d09edf316040518163ffffffff1660e01b8152600401602060405180830381865afa1580156111c6573d6000803e3d6000fd5b505050506040513d601f19601f820116820180604052508101906111ea919061243a565b60405163385e205560e21b8152600481018690526001600160a01b038581166024830152919091169063e1788154906044015b600060405180830381600087803b15801561123757600080fd5b505af1158015610c8d573d6000803e3d6000fd5b604080516080810182526001805482526002546020830152600380546000946113969493929084019161127d906125a3565b80601f01602080910402602001604051908101604052809291908181526020018280546112a9906125a3565b80156112f65780601f106112cb576101008083540402835291602001916112f6565b820191906000526020600020905b8154815290600101906020018083116112d957829003601f168201915b5050505050815260200160038201805461130f906125a3565b80601f016020809104026020016040519081016040528092919081815260200182805461133b906125a3565b80156113885780601f1061135d57610100808354040283529160200191611388565b820191906000526020600020905b81548152906001019060200180831161136b57829003601f168201915b505050505081525050611ef3565b905090565b60008060009054906101000a90046001600160a01b03166001600160a01b0316637da0a8776040518163ffffffff1660e01b8152600401602060405180830381865afa1580156113ef573d6000803e3d6000fd5b505050506040513d601f19601f82011682018060405250810190611396919061243a565b3061141c611c6c565b6001600160a01b03161461143e576737b7363ca9b2b63360c11b610f9b611c6c565b603a54600103611461576040516371d0d18f60e01b815260040160405180910390fd5b603b54603a54116114885760405160016299f5b160e01b0319815260040160405180910390fd5b6001600160a01b03811660009081526037602052604090205460ff16156114fa576001600160a01b038116600081815260376020526040808220805460ff19169055603a8054600019019055517fa14a79af012d1756818f9bd59ccfc9ad185a71df86b9392d9059d9e6faf6d6449190a25b50565b30611506611c6c565b6001600160a01b031614611528576737b7363ca9b2b63360c11b610f9b611c6c565b603a5481111561154e5760405160016299f5b160e01b0319815260040160405180910390fd5b603b5460408051918252602082018390527fb06a54caabe58475c86c2bf9df3f2f06dd1213e9e10659c293117fe4893b274b910160405180910390a1603b55565b603860205260009081526040902080546001820180546001600160a01b0390921692916115bb906125a3565b80601f01602080910402602001604051908101604052809291908181526020018280546115e7906125a3565b80156116345780601f1061160957610100808354040283529160200191611634565b820191906000526020600020905b81548152906001019060200180831161161757829003601f168201915b50505050509080600201549080600301549080600401549080600501549080600601549080600701549080600901549080600a0160009054906101000a900460ff169080600b018054611686906125a3565b80601f01602080910402602001604051908101604052809291908181526020018280546116b2906125a3565b80156116ff5780601f106116d4576101008083540402835291602001916116ff565b820191906000526020600020905b8154815290600101906020018083116116e257829003601f168201915b505050505090508b565b600080546040805163d09edf3160e01b815290518593926001600160a01b03169163d09edf319160048083019260209291908290030181865afa158015611754573d6000803e3d6000fd5b505050506040513d601f19601f82011682018060405250810190611778919061243a565b60405163fdd5205f60e01b8152306004820152602481018490526001600160a01b03919091169063fdd5205f906044016020604051808303816000875af11580156117c7573d6000803e3d6000fd5b505050506040513d601f19601f820116820180604052508101906117eb9190612457565b905061184160008054906101000a90046001600160a01b03166001600160a01b031663d09edf316040518163ffffffff1660e01b8152600401602060405180830381865afa1580156105e3573d6000803e3d6000fd5b60008054906101000a90046001600160a01b03166001600160a01b031663d09edf316040518163ffffffff1660e01b8152600401602060405180830381865afa158015611892573d6000803e3d6000fd5b505050506040513d601f19601f820116820180604052508101906118b6919061243a565b604051632e99be7f60e21b8152600481018690526001600160a01b038581166024830152919091169063ba66f9fc9060440161121d565b6000818152603860205260409020603954821061191d5760405163742b68d760e01b815260040160405180910390fd5b806003015442116119415760405163b8a3c65b60e01b815260040160405180910390fd5b80600401548160050154101561196a576040516344a20e9f60e01b815260040160405180910390fd5b60098101541561198d57604051633eaf6c4760e21b815260040160405180910390fd5b42600982015580546040516000916060916001600160a01b03909116906119b89060018601906125ff565b6000604051808303816000865af19150503d80600081146119f5576040519150601f19603f3d011682016040523d82523d6000602084013e6119fa565b606091505b50600a8501805460ff19168315151790559092509050600b8301611a1e82826126c6565b5060405184907f9db729f9d3173f6d1baae19a4cfc923a8f406547fba93c7b91ee23ce53fa2d8e90600090a250505050565b600060376000611a5e611c6c565b6001600160a01b0316815260208101919091526040016000205460ff16611a9857604051633928026560e21b815260040160405180910390fd5b6039546000818152603860205260409020805473ffffffffffffffffffffffffffffffffffffffff19166001600160a01b03871617815560018101611ade858783612786565b504260028201819055603c54611af39161285d565b6003820155603b54600482015560405182907fdeedb4b4fa35b618333ae2eb4e60188b5271eda7ffd9ecb00f6fabae213f816d90600090a250603980546001019055949350505050565b30611b46611c6c565b6001600160a01b031614611b68576737b7363ca9b2b63360c11b610f9b611c6c565b806001600160a01b0381161580611b8757506001600160a01b03811630145b80611b9f57506000546001600160a01b038281169116145b15611bbd576040516320afbe5160e21b815260040160405180910390fd5b6001600160a01b03821660009081526037602052604090205460ff16611c33576001600160a01b038216600081815260376020526040808220805460ff19166001908117909155603a80549091019055517fa636f4a11e2d3ba7f89d042ecb0a6b886716e98cd49d8fd876ee0f73bced42b89190a25b5050565b60006001600160e01b0319821663179dfb4560e01b14806104a557506301ffc9a760e01b6001600160e01b03198316146104a5565b6000366014611c7a33610f01565b8015611c865750808210155b15611cb657600036611c988385612870565b611ca3928290612883565b611cac916128ad565b60601c9250505090565b339250505090565b60008054906101000a90046001600160a01b03166001600160a01b031663d09edf316040518163ffffffff1660e01b8152600401602060405180830381865afa158015611d0f573d6000803e3d6000fd5b505050506040513d601f19601f82011682018060405250810190611d33919061243a565b604051632474521560e21b8152600481018490526001600160a01b03838116602483015291909116906391d1485490604401602060405180830381865afa158015611d82573d6000803e3d6000fd5b505050506040513d601f19601f82011682018060405250810190611da691906125dd565b611c33576040516342abbb7760e01b8152600481018390526001600160a01b0382166024820152604401610fc2565b611ddd611f33565b6001600160a01b038216611e0457604051637280679360e01b815260040160405180910390fd5b6000805473ffffffffffffffffffffffffffffffffffffffff19166001600160a01b038416179055611e3581611f83565b611e5257604051637511254160e01b815260040160405180910390fd5b8051600190815560208201516002556040820151829190600390611e7690826126c6565b5060608201516003820190611e8b90826126c6565b5050506060810151604051611ea091906128e2565b604080519182900382208351602080860151918552840152916001600160a01b038516917feb175f148a71d29a5f7bf5439182fcd81e6ea9cfc8a11b54ab0f705fa98fa8ca910160405180910390a35050565b6000816000015182604001518360600151604051602001611f16939291906128fe565b604051602081830303815290604052805190602001209050919050565b7ff0c57e16840df040f15088dc2f81fe391c3923bec73e23a9662efc9c229c6a005468010000000000000000900460ff16611f8157604051631afcd79f60e31b815260040160405180910390fd5b565b6000816040015151600003611f9a57506000919050565b816060015151600003611faf57506000919050565b8151158015611fc057506020820151155b15611fcd57506000919050565b506001919050565b600060208284031215611fe757600080fd5b81356001600160e01b031981168114611fff57600080fd5b9392505050565b60008060006040848603121561201b57600080fd5b83359250602084013567ffffffffffffffff8082111561203a57600080fd5b818601915086601f83011261204e57600080fd5b81358181111561205d57600080fd5b8760208260051b850101111561207257600080fd5b6020830194508093505050509250925092565b6001600160a01b03811681146114fa57600080fd5b634e487b7160e01b600052604160045260246000fd5b6040516080810167ffffffffffffffff811182821017156120d3576120d361209a565b60405290565b604051601f8201601f1916810167ffffffffffffffff811182821017156121025761210261209a565b604052919050565b600082601f83011261211b57600080fd5b813567ffffffffffffffff8111156121355761213561209a565b612148601f8201601f19166020016120d9565b81815284602083860101111561215d57600080fd5b816020850160208301376000918101602001919091529392505050565b60008060006060848603121561218f57600080fd5b833561219a81612085565b9250602084013567ffffffffffffffff808211156121b757600080fd5b90850190608082880312156121cb57600080fd5b6121d36120b0565b82358152602083013560208201526040830135828111156121f357600080fd5b6121ff8982860161210a565b60408301525060608301358281111561221757600080fd5b6122238982860161210a565b6060830152509350604086013591508082111561223f57600080fd5b5061224c8682870161210a565b9150509250925092565b60005b83811015612271578181015183820152602001612259565b50506000910152565b60008151808452612292816020860160208601612256565b601f01601f19169290920160200192915050565b602081526000611fff602083018461227a565b600080604083850312156122cc57600080fd5b82359150602083013560ff811681146122e457600080fd5b809150509250929050565b60006020828403121561230157600080fd5b8135611fff81612085565b60006020828403121561231e57600080fd5b5035919050565b6000806040838503121561233857600080fd5b8235915060208301356122e481612085565b60006101606001600160a01b038e16835280602084015261236d8184018e61227a565b90508b60408401528a60608401528960808401528860a08401528760c08401528660e0840152856101008401528415156101208401528281036101408401526123b6818561227a565b9e9d5050505050505050505050505050565b6000806000604084860312156123dd57600080fd5b83356123e881612085565b9250602084013567ffffffffffffffff8082111561240557600080fd5b818601915086601f83011261241957600080fd5b81358181111561242857600080fd5b87602082850101111561207257600080fd5b60006020828403121561244c57600080fd5b8151611fff81612085565b60006020828403121561246957600080fd5b5051919050565b83815260406020808301829052908201839052600090849060608401835b868110156124bc5783356124a181612085565b6001600160a01b03168252928201929082019060010161248e565b50979650505050505050565b6000806000606084860312156124dd57600080fd5b835167ffffffffffffffff808211156124f557600080fd5b818601915086601f83011261250957600080fd5b815160208282111561251d5761251d61209a565b8160051b925061252e8184016120d9565b828152928401810192818101908a85111561254857600080fd5b948201945b84861015612572578551935061256284612085565b838252948201949082019061254d565b91890151604090990151919a98995090979650505050505050565b634e487b7160e01b600052603260045260246000fd5b600181811c908216806125b757607f821691505b6020821081036125d757634e487b7160e01b600052602260045260246000fd5b50919050565b6000602082840312156125ef57600080fd5b81518015158114611fff57600080fd5b600080835461260d816125a3565b60018281168015612625576001811461263a57612669565b60ff1984168752821515830287019450612669565b8760005260208060002060005b858110156126605781548a820152908401908201612647565b50505082870194505b50929695505050505050565b601f8211156126c1576000816000526020600020601f850160051c8101602086101561269e5750805b601f850160051c820191505b818110156126bd578281556001016126aa565b5050505b505050565b815167ffffffffffffffff8111156126e0576126e061209a565b6126f4816126ee84546125a3565b84612675565b602080601f83116001811461272957600084156127115750858301515b600019600386901b1c1916600185901b1785556126bd565b600085815260208120601f198616915b8281101561275857888601518255948401946001909101908401612739565b50858210156127765787850151600019600388901b60f8161c191681555b5050505050600190811b01905550565b67ffffffffffffffff83111561279e5761279e61209a565b6127b2836127ac83546125a3565b83612675565b6000601f8411600181146127e657600085156127ce5750838201355b600019600387901b1c1916600186901b178355612840565b600083815260209020601f19861690835b8281101561281757868501358255602094850194600190920191016127f7565b50868210156128345760001960f88860031b161c19848701351681555b505060018560011b0183555b5050505050565b634e487b7160e01b600052601160045260246000fd5b808201808211156104a5576104a5612847565b818103818111156104a5576104a5612847565b6000808585111561289357600080fd5b838611156128a057600080fd5b5050820193919092039150565b6bffffffffffffffffffffffff1981358181169160148510156128da5780818660140360031b1b83161692505b505092915050565b600082516128f4818460208701612256565b9190910192915050565b838152606060208201526000612917606083018561227a565b8281036040840152612929818561227a565b969550505050505056fea26469706673582212206568bc1c7b5c35f71e8cda5603a449ee91d0b1535de21fd926f396d81096095864736f6c63430008170033",
    "linkReferences": {}
  },
  "methodIdentifiers": {
    "MAX_VOTING_DURATION()": "eefe85e4",
    "MIN_VOTING_DURATION()": "eaf1061c",
    "addVoter(address)": "f4ab9adf",
    "castVote(uint256,uint8)": "56781388",
    "createMotion(address,bytes)": "e6f5ed5d",
    "executeMotion(uint256)": "e5cf12d7",
    "getReceipt(uint256,address)": "e23a9a52",
    "grantModuleRole(bytes32,address)": "6c67e807",
    "grantModuleRoleBatched(bytes32,address[])": "272bbd44",
    "identifier()": "7998a1c4",
    "init(address,(uint256,uint256,string,string),bytes)": "42dfe958",
    "isTrustedForwarder(address)": "572b6c05",
    "isVoter(address)": "a7771ee3",
    "motionCount()": "2cb0c650",
    "motions(uint256)": "b21d36a8",
    "orchestrator()": "b74795d9",
    "removeVoter(address)": "86c1ff68",
    "revokeModuleRole(bytes32,address)": "bcb61920",
    "revokeModuleRoleBatched(bytes32,address[])": "24e30270",
    "setThreshold(uint256)": "960bfe04",
    "setVotingDuration(uint256)": "5bcfadb5",
    "supportsInterface(bytes4)": "01ffc9a7",
    "threshold()": "42cde4e8",
    "title()": "4a79d50c",
    "trustedForwarder()": "7da0a877",
    "url()": "5600f04f",
    "version()": "54fd4d50",
    "voteDuration()": "56364499",
    "voterCount()": "42169e48"
  },
  "id": 110
}