{
  "abi": [
    {
      "type": "function",
      "name": "MAX_VOTING_DURATION",
      "inputs": [],
      "outputs": [
        {
          "name": "",
          "type": "uint256",
          "internalType": "uint256"
        }
      ],
      "stateMutability": "view"
    },
    {
      "type": "function",
      "name": "MIN_VOTING_DURATION",
      "inputs": [],
      "outputs": [
        {
          "name": "",
          "type": "uint256",
          "internalType": "uint256"
        }
      ],
      "stateMutability": "view"
    },
    {
      "type": "function",
      "name": "addVoter",
      "inputs": [
        {
          "name": "who",
          "type": "address",
          "internalType": "address"
        }
      ],
      "outputs": [],
      "stateMutability": "nonpayable"
    },
    {
      "type": "function",
      "name": "castVote",
      "inputs": [
        {
          "name": "motionId",
          "type": "uint256",
          "internalType": "uint256"
        },
        {
          "name": "support",
          "type": "uint8",
          "internalType": "uint8"
        }
      ],
      "outputs": [],
      "stateMutability": "nonpayable"
    },
    {
      "type": "function",
      "name": "createMotion",
      "inputs": [
        {
          "name": "target",
          "type": "address",
          "internalType": "address"
        },
        {
          "name": "action",
          "type": "bytes",
          "internalType": "bytes"
        }
      ],
      "outputs": [
        {
          "name": "",
          "type": "uint256",
          "internalType": "uint256"
        }
      ],
      "stateMutability": "nonpayable"
    },
    {
      "type": "function",
      "name": "executeMotion",
      "inputs": [
        {
          "name": "motionId",
          "type": "uint256",
          "internalType": "uint256"
        }
      ],
      "outputs": [],
      "stateMutability": "nonpayable"
    },
    {
      "type": "function",
      "name": "getReceipt",
      "inputs": [
        {
          "name": "_ID",
          "type": "uint256",
          "internalType": "uint256"
        },
        {
          "name": "voter",
          "type": "address",
          "internalType": "address"
        }
      ],
      "outputs": [
        {
          "name": "",
          "type": "tuple",
          "internalType": "struct IAUT_EXT_VotingRoles_v1.Receipt",
          "components": [
            {
              "name": "hasVoted",
              "type": "bool",
              "internalType": "bool"
            },
            {
              "name": "support",
              "type": "uint8",
              "internalType": "uint8"
            }
          ]
        }
      ],
      "stateMutability": "view"
    },
    {
      "type": "function",
      "name": "grantModuleRole",
      "inputs": [
        {
          "name": "role",
          "type": "bytes32",
          "internalType": "bytes32"
        },
        {
          "name": "target",
          "type": "address",
          "internalType": "address"
        }
      ],
      "outputs": [],
      "stateMutability": "nonpayable"
    },
    {
      "type": "function",
      "name": "grantModuleRoleBatched",
      "inputs": [
        {
          "name": "role",
          "type": "bytes32",
          "internalType": "bytes32"
        },
        {
          "name": "targets",
          "type": "address[]",
          "internalType": "address[]"
        }
      ],
      "outputs": [],
      "stateMutability": "nonpayable"
    },
    {
      "type": "function",
      "name": "identifier",
      "inputs": [],
      "outputs": [
        {
          "name": "",
          "type": "bytes32",
          "internalType": "bytes32"
        }
      ],
      "stateMutability": "view"
    },
    {
      "type": "function",
      "name": "init",
      "inputs": [
        {
          "name": "orchestrator_",
          "type": "address",
          "internalType": "contract IOrchestrator_v1"
        },
        {
          "name": "metadata",
          "type": "tuple",
          "internalType": "struct IModule_v1.Metadata",
          "components": [
            {
              "name": "majorVersion",
              "type": "uint256",
              "internalType": "uint256"
            },
            {
              "name": "minorVersion",
              "type": "uint256",
              "internalType": "uint256"
            },
            {
              "name": "url",
              "type": "string",
              "internalType": "string"
            },
            {
              "name": "title",
              "type": "string",
              "internalType": "string"
            }
          ]
        },
        {
          "name": "configData",
          "type": "bytes",
          "internalType": "bytes"
        }
      ],
      "outputs": [],
      "stateMutability": "nonpayable"
    },
    {
      "type": "function",
      "name": "isTrustedForwarder",
      "inputs": [
        {
          "name": "forwarder",
          "type": "address",
          "internalType": "address"
        }
      ],
      "outputs": [
        {
          "name": "",
          "type": "bool",
          "internalType": "bool"
        }
      ],
      "stateMutability": "view"
    },
    {
      "type": "function",
      "name": "isVoter",
      "inputs": [
        {
          "name": "",
          "type": "address",
          "internalType": "address"
        }
      ],
      "outputs": [
        {
          "name": "",
          "type": "bool",
          "internalType": "bool"
        }
      ],
      "stateMutability": "view"
    },
    {
      "type": "function",
      "name": "motionCount",
      "inputs": [],
      "outputs": [
        {
          "name": "",
          "type": "uint256",
          "internalType": "uint256"
        }
      ],
      "stateMutability": "view"
    },
    {
      "type": "function",
      "name": "motions",
      "inputs": [
        {
          "name": "",
          "type": "uint256",
          "internalType": "uint256"
        }
      ],
      "outputs": [
        {
          "name": "target",
          "type": "address",
          "internalType": "address"
        },
        {
          "name": "action",
          "type": "bytes",
          "internalType": "bytes"
        },
        {
          "name": "startTimestamp",
          "type": "uint256",
          "internalType": "uint256"
        },
        {
          "name": "endTimestamp",
          "type": "uint256",
          "internalType": "uint256"
        },
        {
          "name": "requiredThreshold",
          "type": "uint256",
          "internalType": "uint256"
        },
        {
          "name": "forVotes",
          "type": "uint256",
          "internalType": "uint256"
        },
        {
          "name": "againstVotes",
          "type": "uint256",
          "internalType": "uint256"
        },
        {
          "name": "abstainVotes",
          "type": "uint256",
          "internalType": "uint256"
        },
        {
          "name": "executedAt",
          "type": "uint256",
          "internalType": "uint256"
        },
        {
          "name": "executionResult",
          "type": "bool",
          "internalType": "bool"
        },
        {
          "name": "executionReturnData",
          "type": "bytes",
          "internalType": "bytes"
        }
      ],
      "stateMutability": "view"
    },
    {
      "type": "function",
      "name": "orchestrator",
      "inputs": [],
      "outputs": [
        {
          "name": "",
          "type": "address",
          "internalType": "contract IOrchestrator_v1"
        }
      ],
      "stateMutability": "view"
    },
    {
      "type": "function",
      "name": "removeVoter",
      "inputs": [
        {
          "name": "who",
          "type": "address",
          "internalType": "address"
        }
      ],
      "outputs": [],
      "stateMutability": "nonpayable"
    },
    {
      "type": "function",
      "name": "revokeModuleRole",
      "inputs": [
        {
          "name": "role",
          "type": "bytes32",
          "internalType": "bytes32"
        },
        {
          "name": "target",
          "type": "address",
          "internalType": "address"
        }
      ],
      "outputs": [],
      "stateMutability": "nonpayable"
    },
    {
      "type": "function",
      "name": "revokeModuleRoleBatched",
      "inputs": [
        {
          "name": "role",
          "type": "bytes32",
          "internalType": "bytes32"
        },
        {
          "name": "targets",
          "type": "address[]",
          "internalType": "address[]"
        }
      ],
      "outputs": [],
      "stateMutability": "nonpayable"
    },
    {
      "type": "function",
      "name": "setThreshold",
      "inputs": [
        {
          "name": "newThreshold",
          "type": "uint256",
          "internalType": "uint256"
        }
      ],
      "outputs": [],
      "stateMutability": "nonpayable"
    },
    {
      "type": "function",
      "name": "setVotingDuration",
      "inputs": [
        {
          "name": "newVoteDuration",
          "type": "uint256",
          "internalType": "uint256"
        }
      ],
      "outputs": [],
      "stateMutability": "nonpayable"
    },
    {
      "type": "function",
      "name": "supportsInterface",
      "inputs": [
        {
          "name": "interfaceId",
          "type": "bytes4",
          "internalType": "bytes4"
        }
      ],
      "outputs": [
        {
          "name": "",
          "type": "bool",
          "internalType": "bool"
        }
      ],
      "stateMutability": "view"
    },
    {
      "type": "function",
      "name": "threshold",
      "inputs": [],
      "outputs": [
        {
          "name": "",
          "type": "uint256",
          "internalType": "uint256"
        }
      ],
      "stateMutability": "view"
    },
    {
      "type": "function",
      "name": "title",
      "inputs": [],
      "outputs": [
        {
          "name": "",
          "type": "string",
          "internalType": "string"
        }
      ],
      "stateMutability": "view"
    },
    {
      "type": "function",
      "name": "trustedForwarder",
      "inputs": [],
      "outputs": [
        {
          "name": "",
          "type": "address",
          "internalType": "address"
        }
      ],
      "stateMutability": "view"
    },
    {
      "type": "function",
      "name": "url",
      "inputs": [],
      "outputs": [
        {
          "name": "",
          "type": "string",
          "internalType": "string"
        }
      ],
      "stateMutability": "view"
    },
    {
      "type": "function",
      "name": "version",
      "inputs": [],
      "outputs": [
        {
          "name": "",
          "type": "uint256",
          "internalType": "uint256"
        },
        {
          "name": "",
          "type": "uint256",
          "internalType": "uint256"
        }
      ],
      "stateMutability": "view"
    },
    {
      "type": "function",
      "name": "voteDuration",
      "inputs": [],
      "outputs": [
        {
          "name": "",
          "type": "uint256",
          "internalType": "uint256"
        }
      ],
      "stateMutability": "view"
    },
    {
      "type": "function",
      "name": "voterCount",
      "inputs": [],
      "outputs": [
        {
          "name": "",
          "type": "uint256",
          "internalType": "uint256"
        }
      ],
      "stateMutability": "view"
    },
    {
      "type": "event",
      "name": "Initialized",
      "inputs": [
        {
          "name": "version",
          "type": "uint64",
          "indexed": false,
          "internalType": "uint64"
        }
      ],
      "anonymous": false
    },
    {
      "type": "event",
      "name": "ModuleInitialized",
      "inputs": [
        {
          "name": "parentOrchestrator",
          "type": "address",
          "indexed": true,
          "internalType": "address"
        },
        {
          "name": "moduleTitle",
          "type": "string",
          "indexed": true,
          "internalType": "string"
        },
        {
          "name": "majorVersion",
          "type": "uint256",
          "indexed": false,
          "internalType": "uint256"
        },
        {
          "name": "minorVersion",
          "type": "uint256",
          "indexed": false,
          "internalType": "uint256"
        }
      ],
      "anonymous": false
    },
    {
      "type": "event",
      "name": "MotionCreated",
      "inputs": [
        {
          "name": "motionId",
          "type": "uint256",
          "indexed": true,
          "internalType": "uint256"
        }
      ],
      "anonymous": false
    },
    {
      "type": "event",
      "name": "MotionExecuted",
      "inputs": [
        {
          "name": "motionId",
          "type": "uint256",
          "indexed": true,
          "internalType": "uint256"
        }
      ],
      "anonymous": false
    },
    {
      "type": "event",
      "name": "ThresholdUpdated",
      "inputs": [
        {
          "name": "oldThreshold",
          "type": "uint256",
          "indexed": false,
          "internalType": "uint256"
        },
        {
          "name": "newThreshold",
          "type": "uint256",
          "indexed": false,
          "internalType": "uint256"
        }
      ],
      "anonymous": false
    },
    {
      "type": "event",
      "name": "VoteDurationUpdated",
      "inputs": [
        {
          "name": "oldVotingDuration",
          "type": "uint256",
          "indexed": false,
          "internalType": "uint256"
        },
        {
          "name": "newVotingDuration",
          "type": "uint256",
          "indexed": false,
          "internalType": "uint256"
        }
      ],
      "anonymous": false
    },
    {
      "type": "event",
      "name": "VoterAdded",
      "inputs": [
        {
          "name": "who",
          "type": "address",
          "indexed": true,
          "internalType": "address"
        }
      ],
      "anonymous": false
    },
    {
      "type": "event",
      "name": "VoterRemoved",
      "inputs": [
        {
          "name": "who",
          "type": "address",
          "indexed": true,
          "internalType": "address"
        }
      ],
      "anonymous": false
    },
    {
      "type": "error",
      "name": "InvalidInitialization",
      "inputs": []
    },
    {
      "type": "error",
      "name": "Module_OrchestratorCallbackFailed",
      "inputs": [
        {
          "name": "funcSig",
          "type": "string",
          "internalType": "string"
        }
      ]
    },
    {
      "type": "error",
      "name": "Module__CallerNotAuthorized",
      "inputs": [
        {
          "name": "role",
          "type": "bytes32",
          "internalType": "bytes32"
        },
        {
          "name": "caller",
          "type": "address",
          "internalType": "address"
        }
      ]
    },
    {
      "type": "error",
      "name": "Module__InvalidMetadata",
      "inputs": []
    },
    {
      "type": "error",
      "name": "Module__InvalidOrchestratorAddress",
      "inputs": []
    },
    {
      "type": "error",
      "name": "Module__OnlyCallableByOrchestrator",
      "inputs": []
    },
    {
      "type": "error",
      "name": "Module__VotingRoleManager__AttemptedDoubleVote",
      "inputs": []
    },
    {
      "type": "error",
      "name": "Module__VotingRoleManager__CallerNotVoter",
      "inputs": []
    },
    {
      "type": "error",
      "name": "Module__VotingRoleManager__EmptyVoters",
      "inputs": []
    },
    {
      "type": "error",
      "name": "Module__VotingRoleManager__InvalidMotionId",
      "inputs": []
    },
    {
      "type": "error",
      "name": "Module__VotingRoleManager__InvalidSupport",
      "inputs": []
    },
    {
      "type": "error",
      "name": "Module__VotingRoleManager__InvalidVoterAddress",
      "inputs": []
    },
    {
      "type": "error",
      "name": "Module__VotingRoleManager__InvalidVotingDuration",
      "inputs": []
    },
    {
      "type": "error",
      "name": "Module__VotingRoleManager__IsAlreadyVoter",
      "inputs": []
    },
    {
      "type": "error",
      "name": "Module__VotingRoleManager__MotionAlreadyExecuted",
      "inputs": []
    },
    {
      "type": "error",
      "name": "Module__VotingRoleManager__MotionInVotingPhase",
      "inputs": []
    },
    {
      "type": "error",
      "name": "Module__VotingRoleManager__MotionVotingPhaseClosed",
      "inputs": []
    },
    {
      "type": "error",
      "name": "Module__VotingRoleManager__ThresholdNotReached",
      "inputs": []
    },
    {
      "type": "error",
      "name": "Module__VotingRoleManager__UnreachableThreshold",
      "inputs": []
    },
    {
      "type": "error",
      "name": "NotInitializing",
      "inputs": []
    }
  ],
  "bytecode": {
    "object": "0x60a06040523480156200001157600080fd5b5060006080526200002162000027565b620000db565b7ff0c57e16840df040f15088dc2f81fe391c3923bec73e23a9662efc9c229c6a00805468010000000000000000900460ff1615620000785760405163f92ee8a960e01b815260040160405180910390fd5b80546001600160401b0390811614620000d85780546001600160401b0319166001600160401b0390811782556040519081527fc7f505b2f371ae2175ee4913f4499e1f2633a7b5936321eed1cdaeb6115181d29060200160405180910390a15b50565b6080516129bc620000f4600039600050506129bc6000f3fe608060405234801561001057600080fd5b50600436106101cf5760003560e01c80636c67e80711610104578063b74795d9116100a2578063e6f5ed5d11610071578063e6f5ed5d14610446578063eaf1061c14610459578063eefe85e414610463578063f4ab9adf1461046d57600080fd5b8063b74795d914610388578063bcb6192014610399578063e23a9a52146103ac578063e5cf12d71461043357600080fd5b806386c1ff68116100de57806386c1ff6814610315578063960bfe0414610328578063a7771ee31461033b578063b21d36a81461035e57600080fd5b80636c67e807146102da5780637998a1c4146102ed5780637da0a877146102f557600080fd5b80634a79d50c11610171578063563644991161014b578063563644991461029857806356781388146102a1578063572b6c05146102b45780635bcfadb5146102c757600080fd5b80634a79d50c1461026057806354fd4d50146102755780635600f04f1461029057600080fd5b80632cb0c650116101ad5780632cb0c6501461022457806342169e481461023b57806342cde4e81461024457806342dfe9581461024d57600080fd5b806301ffc9a7146101d457806324e30270146101fc578063272bbd4414610211575b600080fd5b6101e76101e2366004611ff9565b610480565b60405190151581526020015b60405180910390f35b61020f61020a366004612042565b6104dc565b005b61020f61021f366004612042565b610694565b61022d60075481565b6040519081526020016101f3565b61022d60085481565b61022d60095481565b61020f61025b3660046121b6565b610783565b610268610b89565b6040516101f391906122e2565b600154600254604080519283526020830191909152016101f3565b610268610c1e565b61022d600a5481565b61020f6102af3660046122f5565b610c30565b6101e76102c236600461232b565b610eaa565b61020f6102d5366004612348565b610f32565b61020f6102e8366004612361565b611031565b61022d611173565b6102fd6112c3565b6040516001600160a01b0390911681526020016101f3565b61020f61032336600461232b565b61133b565b61020f610336366004612348565b611454565b6101e761034936600461232b565b60056020526000908152604090205460ff1681565b61037161036c366004612348565b6114fc565b6040516101f39b9a99989796959493929190612386565b6000546001600160a01b03166102fd565b61020f6103a7366004612361565b611676565b6104136103ba366004612361565b60408051808201825260008082526020918201819052938452600681528184206001600160a01b03939093168452600890920182529182902082518084019093525460ff80821615158452610100909104169082015290565b6040805182511515815260209283015160ff1692810192909252016101f3565b61020f610441366004612348565b611786565b61022d610454366004612404565b61194d565b61022d6201518081565b61022d6212750081565b61020f61047b36600461232b565b611a5e565b60007fffffffff0000000000000000000000000000000000000000000000000000000082167f81d489de0000000000000000000000000000000000000000000000000000000014806104d657506104d682611b71565b92915050565b6000546040805163d09edf3160e01b815290516105b9926001600160a01b03169163d09edf319160048083019260209291908290030181865afa158015610527573d6000803e3d6000fd5b505050506040513d601f19601f8201168201806040525081019061054b9190612476565b6001600160a01b03166355ff58d46040518163ffffffff1660e01b8152600401602060405180830381865afa158015610588573d6000803e3d6000fd5b505050506040513d601f19601f820116820180604052508101906105ac9190612493565b6105b4611c08565b611c5a565b60008054906101000a90046001600160a01b03166001600160a01b031663d09edf316040518163ffffffff1660e01b8152600401602060405180830381865afa15801561060a573d6000803e3d6000fd5b505050506040513d601f19601f8201168201806040525081019061062e9190612476565b6001600160a01b0316637d540a648484846040518463ffffffff1660e01b815260040161065d939291906124ac565b600060405180830381600087803b15801561067757600080fd5b505af115801561068b573d6000803e3d6000fd5b50505050505050565b6000546040805163d09edf3160e01b815290516106df926001600160a01b03169163d09edf319160048083019260209291908290030181865afa158015610527573d6000803e3d6000fd5b60008054906101000a90046001600160a01b03166001600160a01b031663d09edf316040518163ffffffff1660e01b8152600401602060405180830381865afa158015610730573d6000803e3d6000fd5b505050506040513d601f19601f820116820180604052508101906107549190612476565b6001600160a01b031663648154538484846040518463ffffffff1660e01b815260040161065d939291906124ac565b7ff0c57e16840df040f15088dc2f81fe391c3923bec73e23a9662efc9c229c6a00805468010000000000000000810460ff16159067ffffffffffffffff166000811580156107ce5750825b905060008267ffffffffffffffff1660011480156107eb5750303b155b9050811580156107f9575080155b15610830576040517ff92ee8a900000000000000000000000000000000000000000000000000000000815260040160405180910390fd5b84547fffffffffffffffffffffffffffffffffffffffffffffffff0000000000000000166001178555831561087b57845468ff00000000000000001916680100000000000000001785555b6108858888611da3565b60606000808880602001905181019061089e9190612504565b8251929550909350915060008190036108e3576040517f71d0d18f00000000000000000000000000000000000000000000000000000000815260040160405180910390fd5b8083111561091d576040517fff660a4f00000000000000000000000000000000000000000000000000000000815260040160405180910390fd5b6201518082108061093057506212750082115b15610967576040517f9602f8ae00000000000000000000000000000000000000000000000000000000815260040160405180910390fd5b6000805b82811015610aab57858181518110610985576109856125c9565b6020026020010151915060006001600160a01b0316826001600160a01b031614806109b857506001600160a01b03821630145b806109d057506000546001600160a01b038381169116145b15610a07576040517f82bef94400000000000000000000000000000000000000000000000000000000815260040160405180910390fd5b6001600160a01b03821660009081526005602052604090205460ff1615610a5a576040517f07c6843e00000000000000000000000000000000000000000000000000000000815260040160405180910390fd5b6001600160a01b038216600081815260056020526040808220805460ff19166001179055517fa636f4a11e2d3ba7f89d042ecb0a6b886716e98cd49d8fd876ee0f73bced42b89190a260010161096b565b50600882905560098490556040805160008152602081018690527fb06a54caabe58475c86c2bf9df3f2f06dd1213e9e10659c293117fe4893b274b910160405180910390a1600a8390556040805160008152602081018590527fd47773545974972c430ef4df16cf8d0c415f1c29bc3ec203d20b7452d94494e7910160405180910390a150505050508315610b7f57845468ff000000000000000019168555604051600181527fc7f505b2f371ae2175ee4913f4499e1f2633a7b5936321eed1cdaeb6115181d29060200160405180910390a15b5050505050505050565b606060016003018054610b9b906125df565b80601f0160208091040260200160405190810160405280929190818152602001828054610bc7906125df565b8015610c145780601f10610be957610100808354040283529160200191610c14565b820191906000526020600020905b815481529060010190602001808311610bf757829003601f168201915b5050505050905090565b606060016002018054610b9b906125df565b60056000610c3c611c08565b6001600160a01b0316815260208101919091526040016000205460ff16610c8f576040517fe4a0099400000000000000000000000000000000000000000000000000000000815260040160405180910390fd5b60028160ff161115610ccd576040517f5065f99600000000000000000000000000000000000000000000000000000000815260040160405180910390fd5b6007548210610d08576040517f742b68d700000000000000000000000000000000000000000000000000000000815260040160405180910390fd5b60008281526006602052604090206003810154421115610d54576040517fed13b8f700000000000000000000000000000000000000000000000000000000815260040160405180910390fd5b806008016000610d62611c08565b6001600160a01b0316815260208101919091526040016000205460ff1615610db6576040517faeb16f7e00000000000000000000000000000000000000000000000000000000815260040160405180910390fd5b8160ff16600003610dd1576005810180546001019055610e03565b8160ff16600103610dec576006810180546001019055610e03565b8160ff16600203610e035760078101805460010190555b604080518082019091526001815260ff83166020820152600882016000610e28611c08565b6001600160a01b0316815260208082019290925260400160002082518154939092015160ff16610100027fffffffffffffffffffffffffffffffffffffffffffffffffffffffffffff00ff921515929092167fffffffffffffffffffffffffffffffffffffffffffffffffffffffffffff000090931692909217179055505050565b600080546040517f572b6c050000000000000000000000000000000000000000000000000000000081526001600160a01b0384811660048301529091169063572b6c0590602401602060405180830381865afa158015610f0e573d6000803e3d6000fd5b505050506040513d601f19601f820116820180604052508101906104d69190612619565b30610f3b611c08565b6001600160a01b031614610fa6576737b7363ca9b2b63360c11b610f5d611c08565b6040517f42abbb7700000000000000000000000000000000000000000000000000000000815260048101929092526001600160a01b031660248201526044015b60405180910390fd5b62015180811080610fb957506212750081115b15610ff0576040517f9602f8ae00000000000000000000000000000000000000000000000000000000815260040160405180910390fd5b600a5460408051918252602082018390527fd47773545974972c430ef4df16cf8d0c415f1c29bc3ec203d20b7452d94494e7910160405180910390a1600a55565b6000546040805163d09edf3160e01b8152905161107c926001600160a01b03169163d09edf319160048083019260209291908290030181865afa158015610527573d6000803e3d6000fd5b60008054906101000a90046001600160a01b03166001600160a01b031663d09edf316040518163ffffffff1660e01b8152600401602060405180830381865afa1580156110cd573d6000803e3d6000fd5b505050506040513d601f19601f820116820180604052508101906110f19190612476565b6040517fe1788154000000000000000000000000000000000000000000000000000000008152600481018490526001600160a01b038381166024830152919091169063e1788154906044015b600060405180830381600087803b15801561115757600080fd5b505af115801561116b573d6000803e3d6000fd5b505050505050565b604080516080810182526001805482526002546020830152600380546000946112be949392908401916111a5906125df565b80601f01602080910402602001604051908101604052809291908181526020018280546111d1906125df565b801561121e5780601f106111f35761010080835404028352916020019161121e565b820191906000526020600020905b81548152906001019060200180831161120157829003601f168201915b50505050508152602001600382018054611237906125df565b80601f0160208091040260200160405190810160405280929190818152602001828054611263906125df565b80156112b05780601f10611285576101008083540402835291602001916112b0565b820191906000526020600020905b81548152906001019060200180831161129357829003601f168201915b505050505081525050611efe565b905090565b60008060009054906101000a90046001600160a01b03166001600160a01b0316637da0a8776040518163ffffffff1660e01b8152600401602060405180830381865afa158015611317573d6000803e3d6000fd5b505050506040513d601f19601f820116820180604052508101906112be9190612476565b30611344611c08565b6001600160a01b031614611366576737b7363ca9b2b63360c11b610f5d611c08565b6008546001036113a2576040517f71d0d18f00000000000000000000000000000000000000000000000000000000815260040160405180910390fd5b600954600854116113df576040517fff660a4f00000000000000000000000000000000000000000000000000000000815260040160405180910390fd5b6001600160a01b03811660009081526005602052604090205460ff1615611451576001600160a01b038116600081815260056020526040808220805460ff1916905560088054600019019055517fa14a79af012d1756818f9bd59ccfc9ad185a71df86b9392d9059d9e6faf6d6449190a25b50565b3061145d611c08565b6001600160a01b03161461147f576737b7363ca9b2b63360c11b610f5d611c08565b6008548111156114bb576040517fff660a4f00000000000000000000000000000000000000000000000000000000815260040160405180910390fd5b60095460408051918252602082018390527fb06a54caabe58475c86c2bf9df3f2f06dd1213e9e10659c293117fe4893b274b910160405180910390a1600955565b600660205260009081526040902080546001820180546001600160a01b039092169291611528906125df565b80601f0160208091040260200160405190810160405280929190818152602001828054611554906125df565b80156115a15780601f10611576576101008083540402835291602001916115a1565b820191906000526020600020905b81548152906001019060200180831161158457829003601f168201915b50505050509080600201549080600301549080600401549080600501549080600601549080600701549080600901549080600a0160009054906101000a900460ff169080600b0180546115f3906125df565b80601f016020809104026020016040519081016040528092919081815260200182805461161f906125df565b801561166c5780601f106116415761010080835404028352916020019161166c565b820191906000526020600020905b81548152906001019060200180831161164f57829003601f168201915b505050505090508b565b6000546040805163d09edf3160e01b815290516116c1926001600160a01b03169163d09edf319160048083019260209291908290030181865afa158015610527573d6000803e3d6000fd5b60008054906101000a90046001600160a01b03166001600160a01b031663d09edf316040518163ffffffff1660e01b8152600401602060405180830381865afa158015611712573d6000803e3d6000fd5b505050506040513d601f19601f820116820180604052508101906117369190612476565b6040517fba66f9fc000000000000000000000000000000000000000000000000000000008152600481018490526001600160a01b038381166024830152919091169063ba66f9fc9060440161113d565b600081815260066020526040902060075482106117cf576040517f742b68d700000000000000000000000000000000000000000000000000000000815260040160405180910390fd5b8060030154421161180c576040517fb8a3c65b00000000000000000000000000000000000000000000000000000000815260040160405180910390fd5b80600401548160050154101561184e576040517f44a20e9f00000000000000000000000000000000000000000000000000000000815260040160405180910390fd5b60098101541561188a576040517ffabdb11c00000000000000000000000000000000000000000000000000000000815260040160405180910390fd5b42600982015580546040516000916060916001600160a01b03909116906118b590600186019061263b565b6000604051808303816000865af19150503d80600081146118f2576040519150601f19603f3d011682016040523d82523d6000602084013e6118f7565b606091505b50600a8501805460ff19168315151790559092509050600b830161191b82826126fe565b5060405184907f9db729f9d3173f6d1baae19a4cfc923a8f406547fba93c7b91ee23ce53fa2d8e90600090a250505050565b60006005600061195b611c08565b6001600160a01b0316815260208101919091526040016000205460ff166119ae576040517fe4a0099400000000000000000000000000000000000000000000000000000000815260040160405180910390fd5b600754600081815260066020526040902080547fffffffffffffffffffffffff0000000000000000000000000000000000000000166001600160a01b038716178155600181016119ff8587836127be565b504260028201819055600a54611a1491612895565b6003820155600954600482015560405182907fdeedb4b4fa35b618333ae2eb4e60188b5271eda7ffd9ecb00f6fabae213f816d90600090a250600780546001019055949350505050565b30611a67611c08565b6001600160a01b031614611a89576737b7363ca9b2b63360c11b610f5d611c08565b806001600160a01b0381161580611aa857506001600160a01b03811630145b80611ac057506000546001600160a01b038281169116145b15611af7576040517f82bef94400000000000000000000000000000000000000000000000000000000815260040160405180910390fd5b6001600160a01b03821660009081526005602052604090205460ff16611b6d576001600160a01b038216600081815260056020526040808220805460ff19166001908117909155600880549091019055517fa636f4a11e2d3ba7f89d042ecb0a6b886716e98cd49d8fd876ee0f73bced42b89190a25b5050565b60007fffffffff0000000000000000000000000000000000000000000000000000000082167f179dfb450000000000000000000000000000000000000000000000000000000014806104d657507f01ffc9a7000000000000000000000000000000000000000000000000000000007fffffffff000000000000000000000000000000000000000000000000000000008316146104d6565b6000366014611c1633610eaa565b8015611c225750808210155b15611c5257600036611c3483856128a8565b611c3f9282906128bb565b611c48916128e5565b60601c9250505090565b339250505090565b60008054906101000a90046001600160a01b03166001600160a01b031663d09edf316040518163ffffffff1660e01b8152600401602060405180830381865afa158015611cab573d6000803e3d6000fd5b505050506040513d601f19601f82011682018060405250810190611ccf9190612476565b6040517f91d14854000000000000000000000000000000000000000000000000000000008152600481018490526001600160a01b03838116602483015291909116906391d1485490604401602060405180830381865afa158015611d37573d6000803e3d6000fd5b505050506040513d601f19601f82011682018060405250810190611d5b9190612619565b611b6d576040517f42abbb77000000000000000000000000000000000000000000000000000000008152600481018390526001600160a01b0382166024820152604401610f9d565b611dab611f3e565b6001600160a01b038216611deb576040517f7280679300000000000000000000000000000000000000000000000000000000815260040160405180910390fd5b600080547fffffffffffffffffffffffff0000000000000000000000000000000000000000166001600160a01b038416179055611e2781611fa7565b611e5d576040517f7511254100000000000000000000000000000000000000000000000000000000815260040160405180910390fd5b8051600190815560208201516002556040820151829190600390611e8190826126fe565b5060608201516003820190611e9690826126fe565b5050506060810151604051611eab919061292d565b604080519182900382208351602080860151918552840152916001600160a01b038516917feb175f148a71d29a5f7bf5439182fcd81e6ea9cfc8a11b54ab0f705fa98fa8ca910160405180910390a35050565b6000816000015182604001518360600151604051602001611f2193929190612949565b604051602081830303815290604052805190602001209050919050565b7ff0c57e16840df040f15088dc2f81fe391c3923bec73e23a9662efc9c229c6a005468010000000000000000900460ff16611fa5576040517fd7e6bcf800000000000000000000000000000000000000000000000000000000815260040160405180910390fd5b565b6000816040015151600003611fbe57506000919050565b816060015151600003611fd357506000919050565b8151158015611fe457506020820151155b15611ff157506000919050565b506001919050565b60006020828403121561200b57600080fd5b81357fffffffff000000000000000000000000000000000000000000000000000000008116811461203b57600080fd5b9392505050565b60008060006040848603121561205757600080fd5b83359250602084013567ffffffffffffffff8082111561207657600080fd5b818601915086601f83011261208a57600080fd5b81358181111561209957600080fd5b8760208260051b85010111156120ae57600080fd5b6020830194508093505050509250925092565b6001600160a01b038116811461145157600080fd5b634e487b7160e01b600052604160045260246000fd5b6040516080810167ffffffffffffffff8111828210171561210f5761210f6120d6565b60405290565b604051601f8201601f1916810167ffffffffffffffff8111828210171561213e5761213e6120d6565b604052919050565b600082601f83011261215757600080fd5b813567ffffffffffffffff811115612171576121716120d6565b6121846020601f19601f84011601612115565b81815284602083860101111561219957600080fd5b816020850160208301376000918101602001919091529392505050565b6000806000606084860312156121cb57600080fd5b83356121d6816120c1565b9250602084013567ffffffffffffffff808211156121f357600080fd5b908501906080828803121561220757600080fd5b61220f6120ec565b823581526020830135602082015260408301358281111561222f57600080fd5b61223b89828601612146565b60408301525060608301358281111561225357600080fd5b61225f89828601612146565b6060830152509350604086013591508082111561227b57600080fd5b5061228886828701612146565b9150509250925092565b60005b838110156122ad578181015183820152602001612295565b50506000910152565b600081518084526122ce816020860160208601612292565b601f01601f19169290920160200192915050565b60208152600061203b60208301846122b6565b6000806040838503121561230857600080fd5b82359150602083013560ff8116811461232057600080fd5b809150509250929050565b60006020828403121561233d57600080fd5b813561203b816120c1565b60006020828403121561235a57600080fd5b5035919050565b6000806040838503121561237457600080fd5b823591506020830135612320816120c1565b60006101606001600160a01b038e1683528060208401526123a98184018e6122b6565b90508b60408401528a60608401528960808401528860a08401528760c08401528660e0840152856101008401528415156101208401528281036101408401526123f281856122b6565b9e9d5050505050505050505050505050565b60008060006040848603121561241957600080fd5b8335612424816120c1565b9250602084013567ffffffffffffffff8082111561244157600080fd5b818601915086601f83011261245557600080fd5b81358181111561246457600080fd5b8760208285010111156120ae57600080fd5b60006020828403121561248857600080fd5b815161203b816120c1565b6000602082840312156124a557600080fd5b5051919050565b83815260406020808301829052908201839052600090849060608401835b868110156124f85783356124dd816120c1565b6001600160a01b0316825292820192908201906001016124ca565b50979650505050505050565b60008060006060848603121561251957600080fd5b835167ffffffffffffffff8082111561253157600080fd5b818601915086601f83011261254557600080fd5b8151602082821115612559576125596120d6565b8160051b925061256a818401612115565b828152928401810192818101908a85111561258457600080fd5b948201945b848610156125ae578551935061259e846120c1565b8382529482019490820190612589565b91890151604090990151919a98995090979650505050505050565b634e487b7160e01b600052603260045260246000fd5b600181811c908216806125f357607f821691505b60208210810361261357634e487b7160e01b600052602260045260246000fd5b50919050565b60006020828403121561262b57600080fd5b8151801515811461203b57600080fd5b6000808354612649816125df565b600182811680156126615760018114612676576126a5565b60ff19841687528215158302870194506126a5565b8760005260208060002060005b8581101561269c5781548a820152908401908201612683565b50505082870194505b50929695505050505050565b601f8211156126f9576000816000526020600020601f850160051c810160208610156126da5750805b601f850160051c820191505b8181101561116b578281556001016126e6565b505050565b815167ffffffffffffffff811115612718576127186120d6565b61272c8161272684546125df565b846126b1565b602080601f83116001811461276157600084156127495750858301515b600019600386901b1c1916600185901b17855561116b565b600085815260208120601f198616915b8281101561279057888601518255948401946001909101908401612771565b50858210156127ae5787850151600019600388901b60f8161c191681555b5050505050600190811b01905550565b67ffffffffffffffff8311156127d6576127d66120d6565b6127ea836127e483546125df565b836126b1565b6000601f84116001811461281e57600085156128065750838201355b600019600387901b1c1916600186901b178355612878565b600083815260209020601f19861690835b8281101561284f578685013582556020948501946001909201910161282f565b508682101561286c5760001960f88860031b161c19848701351681555b505060018560011b0183555b5050505050565b634e487b7160e01b600052601160045260246000fd5b808201808211156104d6576104d661287f565b818103818111156104d6576104d661287f565b600080858511156128cb57600080fd5b838611156128d857600080fd5b5050820193919092039150565b7fffffffffffffffffffffffffffffffffffffffff00000000000000000000000081358181169160148510156129255780818660140360031b1b83161692505b505092915050565b6000825161293f818460208701612292565b9190910192915050565b83815260008351612961816020850160208801612292565b80830190508351612979816020840160208801612292565b016020019594505050505056fea264697066735822122085ca9e03eb98f9d4f635008646a8021a38042c24d385d2ddac048af41899ab3064736f6c63430008170033",
    "linkReferences": {}
  },
  "methodIdentifiers": {
    "MAX_VOTING_DURATION()": "eefe85e4",
    "MIN_VOTING_DURATION()": "eaf1061c",
    "addVoter(address)": "f4ab9adf",
    "castVote(uint256,uint8)": "56781388",
    "createMotion(address,bytes)": "e6f5ed5d",
    "executeMotion(uint256)": "e5cf12d7",
    "getReceipt(uint256,address)": "e23a9a52",
    "grantModuleRole(bytes32,address)": "6c67e807",
    "grantModuleRoleBatched(bytes32,address[])": "272bbd44",
    "identifier()": "7998a1c4",
    "init(address,(uint256,uint256,string,string),bytes)": "42dfe958",
    "isTrustedForwarder(address)": "572b6c05",
    "isVoter(address)": "a7771ee3",
    "motionCount()": "2cb0c650",
    "motions(uint256)": "b21d36a8",
    "orchestrator()": "b74795d9",
    "removeVoter(address)": "86c1ff68",
    "revokeModuleRole(bytes32,address)": "bcb61920",
    "revokeModuleRoleBatched(bytes32,address[])": "24e30270",
    "setThreshold(uint256)": "960bfe04",
    "setVotingDuration(uint256)": "5bcfadb5",
    "supportsInterface(bytes4)": "01ffc9a7",
    "threshold()": "42cde4e8",
    "title()": "4a79d50c",
    "trustedForwarder()": "7da0a877",
    "url()": "5600f04f",
    "version()": "54fd4d50",
    "voteDuration()": "56364499",
    "voterCount()": "42169e48"
  },
  "id": 111
}