{
  "abi": [
    {
      "type": "function",
      "name": "BURN_ADMIN_ROLE",
      "inputs": [],
      "outputs": [
        {
          "name": "",
          "type": "bytes32",
          "internalType": "bytes32"
        }
      ],
      "stateMutability": "view"
    },
    {
      "type": "function",
      "name": "DEFAULT_ADMIN_ROLE",
      "inputs": [],
      "outputs": [
        {
          "name": "",
          "type": "bytes32",
          "internalType": "bytes32"
        }
      ],
      "stateMutability": "view"
    },
    {
      "type": "function",
      "name": "burnAdminFromModuleRole",
      "inputs": [
        {
          "name": "role",
          "type": "bytes32",
          "internalType": "bytes32"
        }
      ],
      "outputs": [],
      "stateMutability": "nonpayable"
    },
    {
      "type": "function",
      "name": "checkForRole",
      "inputs": [
        {
          "name": "role",
          "type": "bytes32",
          "internalType": "bytes32"
        },
        {
          "name": "who",
          "type": "address",
          "internalType": "address"
        }
      ],
      "outputs": [
        {
          "name": "",
          "type": "bool",
          "internalType": "bool"
        }
      ],
      "stateMutability": "view"
    },
    {
      "type": "function",
      "name": "generateRoleId",
      "inputs": [
        {
          "name": "module",
          "type": "address",
          "internalType": "address"
        },
        {
          "name": "role",
          "type": "bytes32",
          "internalType": "bytes32"
        }
      ],
      "outputs": [
        {
          "name": "",
          "type": "bytes32",
          "internalType": "bytes32"
        }
      ],
      "stateMutability": "pure"
    },
    {
      "type": "function",
      "name": "getAdminRole",
      "inputs": [],
      "outputs": [
        {
          "name": "",
          "type": "bytes32",
          "internalType": "bytes32"
        }
      ],
      "stateMutability": "pure"
    },
    {
      "type": "function",
      "name": "getRoleAdmin",
      "inputs": [
        {
          "name": "role",
          "type": "bytes32",
          "internalType": "bytes32"
        }
      ],
      "outputs": [
        {
          "name": "",
          "type": "bytes32",
          "internalType": "bytes32"
        }
      ],
      "stateMutability": "view"
    },
    {
      "type": "function",
      "name": "getRoleMember",
      "inputs": [
        {
          "name": "role",
          "type": "bytes32",
          "internalType": "bytes32"
        },
        {
          "name": "index",
          "type": "uint256",
          "internalType": "uint256"
        }
      ],
      "outputs": [
        {
          "name": "",
          "type": "address",
          "internalType": "address"
        }
      ],
      "stateMutability": "view"
    },
    {
      "type": "function",
      "name": "getRoleMemberCount",
      "inputs": [
        {
          "name": "role",
          "type": "bytes32",
          "internalType": "bytes32"
        }
      ],
      "outputs": [
        {
          "name": "",
          "type": "uint256",
          "internalType": "uint256"
        }
      ],
      "stateMutability": "view"
    },
    {
      "type": "function",
      "name": "getThresholdValue",
      "inputs": [
        {
          "name": "roleId",
          "type": "bytes32",
          "internalType": "bytes32"
        },
        {
          "name": "token",
          "type": "address",
          "internalType": "address"
        }
      ],
      "outputs": [
        {
          "name": "",
          "type": "uint256",
          "internalType": "uint256"
        }
      ],
      "stateMutability": "view"
    },
    {
      "type": "function",
      "name": "grantGlobalRole",
      "inputs": [
        {
          "name": "role",
          "type": "bytes32",
          "internalType": "bytes32"
        },
        {
          "name": "target",
          "type": "address",
          "internalType": "address"
        }
      ],
      "outputs": [],
      "stateMutability": "nonpayable"
    },
    {
      "type": "function",
      "name": "grantGlobalRoleBatched",
      "inputs": [
        {
          "name": "role",
          "type": "bytes32",
          "internalType": "bytes32"
        },
        {
          "name": "targets",
          "type": "address[]",
          "internalType": "address[]"
        }
      ],
      "outputs": [],
      "stateMutability": "nonpayable"
    },
    {
      "type": "function",
      "name": "grantModuleRole",
      "inputs": [
        {
          "name": "role",
          "type": "bytes32",
          "internalType": "bytes32"
        },
        {
          "name": "target",
          "type": "address",
          "internalType": "address"
        }
      ],
      "outputs": [],
      "stateMutability": "nonpayable"
    },
    {
      "type": "function",
      "name": "grantModuleRoleBatched",
      "inputs": [
        {
          "name": "role",
          "type": "bytes32",
          "internalType": "bytes32"
        },
        {
          "name": "targets",
          "type": "address[]",
          "internalType": "address[]"
        }
      ],
      "outputs": [],
      "stateMutability": "nonpayable"
    },
    {
      "type": "function",
      "name": "grantRole",
      "inputs": [
        {
          "name": "role",
          "type": "bytes32",
          "internalType": "bytes32"
        },
        {
          "name": "account",
          "type": "address",
          "internalType": "address"
        }
      ],
      "outputs": [],
      "stateMutability": "nonpayable"
    },
    {
      "type": "function",
      "name": "grantRoleFromModule",
      "inputs": [
        {
          "name": "role",
          "type": "bytes32",
          "internalType": "bytes32"
        },
        {
          "name": "target",
          "type": "address",
          "internalType": "address"
        }
      ],
      "outputs": [],
      "stateMutability": "nonpayable"
    },
    {
      "type": "function",
      "name": "grantRoleFromModuleBatched",
      "inputs": [
        {
          "name": "role",
          "type": "bytes32",
          "internalType": "bytes32"
        },
        {
          "name": "targets",
          "type": "address[]",
          "internalType": "address[]"
        }
      ],
      "outputs": [],
      "stateMutability": "nonpayable"
    },
    {
      "type": "function",
      "name": "grantTokenRoleFromModule",
      "inputs": [
        {
          "name": "role",
          "type": "bytes32",
          "internalType": "bytes32"
        },
        {
          "name": "token",
          "type": "address",
          "internalType": "address"
        },
        {
          "name": "threshold",
          "type": "uint256",
          "internalType": "uint256"
        }
      ],
      "outputs": [],
      "stateMutability": "nonpayable"
    },
    {
      "type": "function",
      "name": "hasRole",
      "inputs": [
        {
          "name": "role",
          "type": "bytes32",
          "internalType": "bytes32"
        },
        {
          "name": "account",
          "type": "address",
          "internalType": "address"
        }
      ],
      "outputs": [
        {
          "name": "",
          "type": "bool",
          "internalType": "bool"
        }
      ],
      "stateMutability": "view"
    },
    {
      "type": "function",
      "name": "hasTokenRole",
      "inputs": [
        {
          "name": "role",
          "type": "bytes32",
          "internalType": "bytes32"
        },
        {
          "name": "who",
          "type": "address",
          "internalType": "address"
        }
      ],
      "outputs": [
        {
          "name": "",
          "type": "bool",
          "internalType": "bool"
        }
      ],
      "stateMutability": "view"
    },
    {
      "type": "function",
      "name": "identifier",
      "inputs": [],
      "outputs": [
        {
          "name": "",
          "type": "bytes32",
          "internalType": "bytes32"
        }
      ],
      "stateMutability": "view"
    },
    {
      "type": "function",
      "name": "init",
      "inputs": [
        {
          "name": "orchestrator_",
          "type": "address",
          "internalType": "contract IOrchestrator_v1"
        },
        {
          "name": "metadata",
          "type": "tuple",
          "internalType": "struct IModule_v1.Metadata",
          "components": [
            {
              "name": "majorVersion",
              "type": "uint256",
              "internalType": "uint256"
            },
            {
              "name": "minorVersion",
              "type": "uint256",
              "internalType": "uint256"
            },
            {
              "name": "patchVersion",
              "type": "uint256",
              "internalType": "uint256"
            },
            {
              "name": "url",
              "type": "string",
              "internalType": "string"
            },
            {
              "name": "title",
              "type": "string",
              "internalType": "string"
            }
          ]
        },
        {
          "name": "configData",
          "type": "bytes",
          "internalType": "bytes"
        }
      ],
      "outputs": [],
      "stateMutability": "nonpayable"
    },
    {
      "type": "function",
      "name": "isTokenGated",
      "inputs": [
        {
          "name": "",
          "type": "bytes32",
          "internalType": "bytes32"
        }
      ],
      "outputs": [
        {
          "name": "",
          "type": "bool",
          "internalType": "bool"
        }
      ],
      "stateMutability": "view"
    },
    {
      "type": "function",
      "name": "isTrustedForwarder",
      "inputs": [
        {
          "name": "forwarder",
          "type": "address",
          "internalType": "address"
        }
      ],
      "outputs": [
        {
          "name": "",
          "type": "bool",
          "internalType": "bool"
        }
      ],
      "stateMutability": "view"
    },
    {
      "type": "function",
      "name": "makeRoleTokenGatedFromModule",
      "inputs": [
        {
          "name": "role",
          "type": "bytes32",
          "internalType": "bytes32"
        }
      ],
      "outputs": [],
      "stateMutability": "nonpayable"
    },
    {
      "type": "function",
      "name": "orchestrator",
      "inputs": [],
      "outputs": [
        {
          "name": "",
          "type": "address",
          "internalType": "contract IOrchestrator_v1"
        }
      ],
      "stateMutability": "view"
    },
    {
      "type": "function",
      "name": "renounceRole",
      "inputs": [
        {
          "name": "role",
          "type": "bytes32",
          "internalType": "bytes32"
        },
        {
          "name": "callerConfirmation",
          "type": "address",
          "internalType": "address"
        }
      ],
      "outputs": [],
      "stateMutability": "nonpayable"
    },
    {
      "type": "function",
      "name": "revokeGlobalRole",
      "inputs": [
        {
          "name": "role",
          "type": "bytes32",
          "internalType": "bytes32"
        },
        {
          "name": "target",
          "type": "address",
          "internalType": "address"
        }
      ],
      "outputs": [],
      "stateMutability": "nonpayable"
    },
    {
      "type": "function",
      "name": "revokeGlobalRoleBatched",
      "inputs": [
        {
          "name": "role",
          "type": "bytes32",
          "internalType": "bytes32"
        },
        {
          "name": "targets",
          "type": "address[]",
          "internalType": "address[]"
        }
      ],
      "outputs": [],
      "stateMutability": "nonpayable"
    },
    {
      "type": "function",
      "name": "revokeModuleRole",
      "inputs": [
        {
          "name": "role",
          "type": "bytes32",
          "internalType": "bytes32"
        },
        {
          "name": "target",
          "type": "address",
          "internalType": "address"
        }
      ],
      "outputs": [],
      "stateMutability": "nonpayable"
    },
    {
      "type": "function",
      "name": "revokeModuleRoleBatched",
      "inputs": [
        {
          "name": "role",
          "type": "bytes32",
          "internalType": "bytes32"
        },
        {
          "name": "targets",
          "type": "address[]",
          "internalType": "address[]"
        }
      ],
      "outputs": [],
      "stateMutability": "nonpayable"
    },
    {
      "type": "function",
      "name": "revokeRole",
      "inputs": [
        {
          "name": "role",
          "type": "bytes32",
          "internalType": "bytes32"
        },
        {
          "name": "account",
          "type": "address",
          "internalType": "address"
        }
      ],
      "outputs": [],
      "stateMutability": "nonpayable"
    },
    {
      "type": "function",
      "name": "revokeRoleFromModule",
      "inputs": [
        {
          "name": "role",
          "type": "bytes32",
          "internalType": "bytes32"
        },
        {
          "name": "target",
          "type": "address",
          "internalType": "address"
        }
      ],
      "outputs": [],
      "stateMutability": "nonpayable"
    },
    {
      "type": "function",
      "name": "revokeRoleFromModuleBatched",
      "inputs": [
        {
          "name": "role",
          "type": "bytes32",
          "internalType": "bytes32"
        },
        {
          "name": "targets",
          "type": "address[]",
          "internalType": "address[]"
        }
      ],
      "outputs": [],
      "stateMutability": "nonpayable"
    },
    {
      "type": "function",
      "name": "setThreshold",
      "inputs": [
        {
          "name": "roleId",
          "type": "bytes32",
          "internalType": "bytes32"
        },
        {
          "name": "token",
          "type": "address",
          "internalType": "address"
        },
        {
          "name": "threshold",
          "type": "uint256",
          "internalType": "uint256"
        }
      ],
      "outputs": [],
      "stateMutability": "nonpayable"
    },
    {
      "type": "function",
      "name": "setThresholdFromModule",
      "inputs": [
        {
          "name": "role",
          "type": "bytes32",
          "internalType": "bytes32"
        },
        {
          "name": "token",
          "type": "address",
          "internalType": "address"
        },
        {
          "name": "threshold",
          "type": "uint256",
          "internalType": "uint256"
        }
      ],
      "outputs": [],
      "stateMutability": "nonpayable"
    },
    {
      "type": "function",
      "name": "setTokenGated",
      "inputs": [
        {
          "name": "role",
          "type": "bytes32",
          "internalType": "bytes32"
        },
        {
          "name": "to",
          "type": "bool",
          "internalType": "bool"
        }
      ],
      "outputs": [],
      "stateMutability": "nonpayable"
    },
    {
      "type": "function",
      "name": "supportsInterface",
      "inputs": [
        {
          "name": "interfaceId",
          "type": "bytes4",
          "internalType": "bytes4"
        }
      ],
      "outputs": [
        {
          "name": "",
          "type": "bool",
          "internalType": "bool"
        }
      ],
      "stateMutability": "view"
    },
    {
      "type": "function",
      "name": "thresholdMap",
      "inputs": [
        {
          "name": "",
          "type": "bytes32",
          "internalType": "bytes32"
        }
      ],
      "outputs": [
        {
          "name": "",
          "type": "uint256",
          "internalType": "uint256"
        }
      ],
      "stateMutability": "view"
    },
    {
      "type": "function",
      "name": "title",
      "inputs": [],
      "outputs": [
        {
          "name": "",
          "type": "string",
          "internalType": "string"
        }
      ],
      "stateMutability": "view"
    },
    {
      "type": "function",
      "name": "transferAdminRole",
      "inputs": [
        {
          "name": "roleId",
          "type": "bytes32",
          "internalType": "bytes32"
        },
        {
          "name": "newAdmin",
          "type": "bytes32",
          "internalType": "bytes32"
        }
      ],
      "outputs": [],
      "stateMutability": "nonpayable"
    },
    {
      "type": "function",
      "name": "trustedForwarder",
      "inputs": [],
      "outputs": [
        {
          "name": "",
          "type": "address",
          "internalType": "address"
        }
      ],
      "stateMutability": "view"
    },
    {
      "type": "function",
      "name": "url",
      "inputs": [],
      "outputs": [
        {
          "name": "",
          "type": "string",
          "internalType": "string"
        }
      ],
      "stateMutability": "view"
    },
    {
      "type": "function",
      "name": "version",
      "inputs": [],
      "outputs": [
        {
          "name": "",
          "type": "uint256",
          "internalType": "uint256"
        },
        {
          "name": "",
          "type": "uint256",
          "internalType": "uint256"
        },
        {
          "name": "",
          "type": "uint256",
          "internalType": "uint256"
        }
      ],
      "stateMutability": "view"
    },
    {
      "type": "event",
      "name": "ChangedTokenGating",
      "inputs": [
        {
          "name": "role",
          "type": "bytes32",
          "indexed": false,
          "internalType": "bytes32"
        },
        {
          "name": "newValue",
          "type": "bool",
          "indexed": false,
          "internalType": "bool"
        }
      ],
      "anonymous": false
    },
    {
      "type": "event",
      "name": "ChangedTokenThreshold",
      "inputs": [
        {
          "name": "role",
          "type": "bytes32",
          "indexed": false,
          "internalType": "bytes32"
        },
        {
          "name": "token",
          "type": "address",
          "indexed": false,
          "internalType": "address"
        },
        {
          "name": "newValue",
          "type": "uint256",
          "indexed": false,
          "internalType": "uint256"
        }
      ],
      "anonymous": false
    },
    {
      "type": "event",
      "name": "Initialized",
      "inputs": [
        {
          "name": "version",
          "type": "uint64",
          "indexed": false,
          "internalType": "uint64"
        }
      ],
      "anonymous": false
    },
    {
      "type": "event",
      "name": "ModuleInitialized",
      "inputs": [
        {
          "name": "parentOrchestrator",
          "type": "address",
          "indexed": true,
          "internalType": "address"
        },
        {
          "name": "metadata",
          "type": "tuple",
          "indexed": false,
          "internalType": "struct IModule_v1.Metadata",
          "components": [
            {
              "name": "majorVersion",
              "type": "uint256",
              "internalType": "uint256"
            },
            {
              "name": "minorVersion",
              "type": "uint256",
              "internalType": "uint256"
            },
            {
              "name": "patchVersion",
              "type": "uint256",
              "internalType": "uint256"
            },
            {
              "name": "url",
              "type": "string",
              "internalType": "string"
            },
            {
              "name": "title",
              "type": "string",
              "internalType": "string"
            }
          ]
        }
      ],
      "anonymous": false
    },
    {
      "type": "event",
      "name": "RoleAdminChanged",
      "inputs": [
        {
          "name": "role",
          "type": "bytes32",
          "indexed": true,
          "internalType": "bytes32"
        },
        {
          "name": "previousAdminRole",
          "type": "bytes32",
          "indexed": true,
          "internalType": "bytes32"
        },
        {
          "name": "newAdminRole",
          "type": "bytes32",
          "indexed": true,
          "internalType": "bytes32"
        }
      ],
      "anonymous": false
    },
    {
      "type": "event",
      "name": "RoleGranted",
      "inputs": [
        {
          "name": "role",
          "type": "bytes32",
          "indexed": true,
          "internalType": "bytes32"
        },
        {
          "name": "account",
          "type": "address",
          "indexed": true,
          "internalType": "address"
        },
        {
          "name": "sender",
          "type": "address",
          "indexed": true,
          "internalType": "address"
        }
      ],
      "anonymous": false
    },
    {
      "type": "event",
      "name": "RoleRevoked",
      "inputs": [
        {
          "name": "role",
          "type": "bytes32",
          "indexed": true,
          "internalType": "bytes32"
        },
        {
          "name": "account",
          "type": "address",
          "indexed": true,
          "internalType": "address"
        },
        {
          "name": "sender",
          "type": "address",
          "indexed": true,
          "internalType": "address"
        }
      ],
      "anonymous": false
    },
    {
      "type": "error",
      "name": "AccessControlBadConfirmation",
      "inputs": []
    },
    {
      "type": "error",
      "name": "AccessControlUnauthorizedAccount",
      "inputs": [
        {
          "name": "account",
          "type": "address",
          "internalType": "address"
        },
        {
          "name": "neededRole",
          "type": "bytes32",
          "internalType": "bytes32"
        }
      ]
    },
    {
      "type": "error",
      "name": "InvalidInitialization",
      "inputs": []
    },
    {
      "type": "error",
      "name": "Module_OrchestratorCallbackFailed",
      "inputs": [
        {
          "name": "funcSig",
          "type": "string",
          "internalType": "string"
        }
      ]
    },
    {
      "type": "error",
      "name": "Module__AUT_TokenGated_Roles__InvalidThreshold",
      "inputs": [
        {
          "name": "threshold",
          "type": "uint256",
          "internalType": "uint256"
        }
      ]
    },
    {
      "type": "error",
      "name": "Module__AUT_TokenGated_Roles__InvalidToken",
      "inputs": [
        {
          "name": "token",
          "type": "address",
          "internalType": "address"
        }
      ]
    },
    {
      "type": "error",
      "name": "Module__AUT_TokenGated_Roles__RoleNotEmpty",
      "inputs": []
    },
    {
      "type": "error",
      "name": "Module__AUT_TokenGated_Roles__RoleNotTokenGated",
      "inputs": []
    },
    {
      "type": "error",
      "name": "Module__AUT_TokenGated_Roles__TokenRoleMustHaveThreshold",
      "inputs": [
        {
          "name": "role",
          "type": "bytes32",
          "internalType": "bytes32"
        },
        {
          "name": "token",
          "type": "address",
          "internalType": "address"
        }
      ]
    },
    {
      "type": "error",
      "name": "Module__Authorizer__AdminRoleCannotBeEmpty",
      "inputs": []
    },
    {
      "type": "error",
      "name": "Module__Authorizer__InvalidInitialAdmin",
      "inputs": []
    },
    {
      "type": "error",
      "name": "Module__Authorizer__ModuleNotSelfManaged",
      "inputs": []
    },
    {
      "type": "error",
      "name": "Module__Authorizer__NotActiveModule",
      "inputs": [
        {
          "name": "module",
          "type": "address",
          "internalType": "address"
        }
      ]
    },
    {
      "type": "error",
      "name": "Module__Authorizer__OrchestratorCannotHaveAdminRole",
      "inputs": []
    },
    {
      "type": "error",
      "name": "Module__CallerNotAuthorized",
      "inputs": [
        {
          "name": "role",
          "type": "bytes32",
          "internalType": "bytes32"
        },
        {
          "name": "caller",
          "type": "address",
          "internalType": "address"
        }
      ]
    },
    {
      "type": "error",
      "name": "Module__InvalidAddress",
      "inputs": []
    },
    {
      "type": "error",
      "name": "Module__InvalidMetadata",
      "inputs": []
    },
    {
      "type": "error",
      "name": "Module__InvalidOrchestratorAddress",
      "inputs": []
    },
    {
      "type": "error",
      "name": "Module__OnlyCallableByOrchestrator",
      "inputs": []
    },
    {
      "type": "error",
      "name": "Module__OnlyCallableByPaymentClient",
      "inputs": []
    },
    {
      "type": "error",
      "name": "NotInitializing",
      "inputs": []
    }
  ],
  "bytecode": {
    "object": "0x60a06040523480156200001157600080fd5b5060006080526200002162000027565b620000db565b7ff0c57e16840df040f15088dc2f81fe391c3923bec73e23a9662efc9c229c6a00805468010000000000000000900460ff1615620000785760405163f92ee8a960e01b815260040160405180910390fd5b80546001600160401b0390811614620000d85780546001600160401b0319166001600160401b0390811782556040519081527fc7f505b2f371ae2175ee4913f4499e1f2633a7b5936321eed1cdaeb6115181d29060200160405180910390a15b50565b608051613593620000f4600039600050506135936000f3fe608060405234801561001057600080fd5b50600436106102f45760003560e01c80639010d07c11610191578063ba66f9fc116100e3578063e178815411610097578063e99b6e1311610071578063e99b6e131461067d578063ee2d096814610690578063fdd5205f146106a357600080fd5b8063e178815414610644578063e38a584c14610657578063e5476cbe1461066a57600080fd5b8063c8da8085116100c8578063c8da80851461060b578063ca15c8731461061e578063d547741f1461063157600080fd5b8063ba66f9fc146105e5578063bcb61920146105f857600080fd5b8063a883867d11610145578063b3ecf2361161011f578063b3ecf236146105ba578063b66a870c146105c1578063b74795d9146105d457600080fd5b8063a883867d1461058b578063b3391c671461059e578063b3cb1991146105b157600080fd5b806399df6ff11161017657806399df6ff11461055d578063a217fddf14610570578063a291d0a81461057857600080fd5b80639010d07c1461050457806391d148541461051757600080fd5b806354fd4d501161024a57806364815453116101fe5780637998a1c4116101d85780637998a1c4146104c95780637d540a64146104d15780637da0a877146104e457600080fd5b806364815453146104835780636c67e807146104965780637448216d146104a957600080fd5b8063572b6c051161022f578063572b6c051461044a5780635b0209b91461045d57806361bcd0c41461047057600080fd5b806354fd4d501461041e5780635600f04f1461044257600080fd5b8063272bbd44116102ac57806336568abe1161028657806336568abe146103e357806349eb42f1146103f65780634a79d50c1461040957600080fd5b8063272bbd44146103aa5780632f2ff15d146103bd57806335dde263146103d057600080fd5b806323add683116102dd57806323add68314610336578063248a9ca31461035957806324e302701461039757600080fd5b806301ffc9a7146102f957806316e109f814610321575b600080fd5b61030c610307366004612e11565b6106f3565b60405190151581526020015b60405180910390f35b61033461032f366004612e50565b61071e565b005b61030c610344366004612e88565b606a6020526000908152604090205460ff1681565b610389610367366004612e88565b600090815260008051602061353e833981519152602052604090206001015490565b604051908152602001610318565b6103346103a5366004612ea1565b610757565b6103346103b8366004612ea1565b610a09565b6103346103cb366004612f20565b610be3565b6103346103de366004612e50565b610c15565b6103346103f1366004612f20565b610d31565b610334610404366004612ea1565b610d79565b610411610de1565b6040516103189190612fa0565b60015460025460035460408051938452602084019290925290820152606001610318565b610411610e76565b61030c610458366004612fb3565b610e88565b61033461046b366004612e88565b610ef7565b61033461047e366004612f20565b6110c2565b610334610491366004612ea1565b6110f7565b6103346104a4366004612f20565b6111f2565b6103896104b7366004612e88565b606b6020526000908152604090205481565b610389611408565b6103346104df366004612ea1565b611566565b6104ec611647565b6040516001600160a01b039091168152602001610318565b6104ec610512366004612fd0565b6116bf565b61030c610525366004612f20565b600091825260008051602061353e833981519152602090815260408084206001600160a01b0393909316845291905290205460ff1690565b61033461056b366004612f20565b611700565b610389600081565b610334610586366004612e50565b61172e565b61030c610599366004612f20565b6117f0565b61030c6105ac366004612f20565b611850565b61038960001981565b6000610389565b6103346105cf3660046130be565b61188b565b6000546001600160a01b03166104ec565b6103346105f3366004612f20565b6119d3565b610334610606366004612f20565b611a88565b610389610619366004612f20565b611c6a565b61038961062c366004612e88565b611cc3565b61033461063f366004612f20565b611d02565b610334610652366004612f20565b611d34565b610334610665366004612fd0565b611de9565b6103346106783660046131b2565b611e1b565b61033461068b366004612e88565b611ebd565b61033461069e366004612ea1565b611fc3565b6103896106b13660046131d7565b6040516001600160601b0319606084901b1660208201526034810182905260009060540160405160208183030381529060405280519060200120905092915050565b60006001600160e01b03198216632205e16b60e11b1480610718575061071882612011565b92915050565b600083815260008051602061353e833981519152602052604090206001015461074681612036565b61075184848461204a565b50505050565b600080546040805163d09edf3160e01b815290518693926001600160a01b03169163d09edf319160048083019260209291908290030181865afa1580156107a2573d6000803e3d6000fd5b505050506040513d601f19601f820116820180604052508101906107c69190613203565b60405163fdd5205f60e01b8152306004820152602481018490526001600160a01b03919091169063fdd5205f90604401602060405180830381865afa158015610813573d6000803e3d6000fd5b505050506040513d601f19601f820116820180604052508101906108379190613220565b905061092c60008054906101000a90046001600160a01b03166001600160a01b031663d09edf316040518163ffffffff1660e01b8152600401602060405180830381865afa15801561088d573d6000803e3d6000fd5b505050506040513d601f19601f820116820180604052508101906108b19190613203565b6001600160a01b031663248a9ca3836040518263ffffffff1660e01b81526004016108de91815260200190565b602060405180830381865afa1580156108fb573d6000803e3d6000fd5b505050506040513d601f19601f8201168201806040525081019061091f9190613220565b61092761215b565b612165565b60008054906101000a90046001600160a01b03166001600160a01b031663d09edf316040518163ffffffff1660e01b8152600401602060405180830381865afa15801561097d573d6000803e3d6000fd5b505050506040513d601f19601f820116820180604052508101906109a19190613203565b6001600160a01b0316637d540a648686866040518463ffffffff1660e01b81526004016109d093929190613239565b600060405180830381600087803b1580156109ea57600080fd5b505af11580156109fe573d6000803e3d6000fd5b505050505050505050565b600080546040805163d09edf3160e01b815290518693926001600160a01b03169163d09edf319160048083019260209291908290030181865afa158015610a54573d6000803e3d6000fd5b505050506040513d601f19601f82011682018060405250810190610a789190613203565b60405163fdd5205f60e01b8152306004820152602481018490526001600160a01b03919091169063fdd5205f90604401602060405180830381865afa158015610ac5573d6000803e3d6000fd5b505050506040513d601f19601f82011682018060405250810190610ae99190613220565b9050610b3f60008054906101000a90046001600160a01b03166001600160a01b031663d09edf316040518163ffffffff1660e01b8152600401602060405180830381865afa15801561088d573d6000803e3d6000fd5b60008054906101000a90046001600160a01b03166001600160a01b031663d09edf316040518163ffffffff1660e01b8152600401602060405180830381865afa158015610b90573d6000803e3d6000fd5b505050506040513d601f19601f82011682018060405250810190610bb49190613203565b6001600160a01b031663648154538686866040518463ffffffff1660e01b81526004016109d093929190613239565b600082815260008051602061353e8339815191526020526040902060010154610c0b81612036565b6107518383612280565b610c1d61215b565b6000546001600160a01b03166040516342f6e38960e01b81526001600160a01b03838116600483015291909116906342f6e38990602401602060405180830381865afa158015610c71573d6000803e3d6000fd5b505050506040513d601f19601f82011682018060405250810190610c959190613291565b610cc257604051635912aaef60e01b81526001600160a01b03821660048201526024015b60405180910390fd5b6000610d12610ccf61215b565b866040516001600160601b0319606084901b1660208201526034810182905260009060540160405160208183030381529060405280519060200120905092915050565b9050610d1f81858561204a565b610d298185612280565b505050505050565b610d3961215b565b6001600160a01b0316816001600160a01b031614610d6a5760405163334bd91960e11b815260040160405180910390fd5b610d7482826123fd565b505050565b6000610d8481612036565b6000610d9b610ccf6000546001600160a01b031690565b905060005b83811015610d2957610dd882868684818110610dbe57610dbe6132ae565b9050602002016020810190610dd39190612fb3565b6123fd565b50600101610da0565b606060016004018054610df3906132c4565b80601f0160208091040260200160405190810160405280929190818152602001828054610e1f906132c4565b8015610e6c5780601f10610e4157610100808354040283529160200191610e6c565b820191906000526020600020905b815481529060010190602001808311610e4f57829003601f168201915b5050505050905090565b606060016003018054610df3906132c4565b6000805460405163572b6c0560e01b81526001600160a01b0384811660048301529091169063572b6c0590602401602060405180830381865afa158015610ed3573d6000803e3d6000fd5b505050506040513d601f19601f820116820180604052508101906107189190613291565b610eff61215b565b6000546001600160a01b03166040516342f6e38960e01b81526001600160a01b03838116600483015291909116906342f6e38990602401602060405180830381865afa158015610f53573d6000803e3d6000fd5b505050506040513d601f19601f82011682018060405250810190610f779190613291565b610f9f57604051635912aaef60e01b81526001600160a01b0382166004820152602401610cb9565b610fed610faa61215b565b836040516001600160601b0319606084901b1660208201526034810182905260009060540160405160208183030381529060405280519060200120905092915050565b610ff681611cc3565b156110145760405163aec5a76560e01b815260040160405180910390fd5b600061106461102161215b565b856040516001600160601b0319606084901b1660208201526034810182905260009060540160405160208183030381529060405280519060200120905092915050565b6000818152606a6020908152604091829020805460ff191660019081179091558251848152918201529192507f5b06680c3e27b6966fd07ba5a87e12511d3d350bb0e841c91958f34569b40b8191015b60405180910390a150505050565b60006110cd81612036565b60006110e46110216000546001600160a01b031690565b90506110f08184612280565b5050505050565b6110ff61215b565b6000546001600160a01b03166040516342f6e38960e01b81526001600160a01b03838116600483015291909116906342f6e38990602401602060405180830381865afa158015611153573d6000803e3d6000fd5b505050506040513d601f19601f820116820180604052508101906111779190613291565b61119f57604051635912aaef60e01b81526001600160a01b0382166004820152602401610cb9565b60006111ac610ccf61215b565b905060005b83811015610d29576111e9828686848181106111cf576111cf6132ae565b90506020020160208101906111e49190612fb3565b612280565b506001016111b1565b600080546040805163d09edf3160e01b815290518593926001600160a01b03169163d09edf319160048083019260209291908290030181865afa15801561123d573d6000803e3d6000fd5b505050506040513d601f19601f820116820180604052508101906112619190613203565b60405163fdd5205f60e01b8152306004820152602481018490526001600160a01b03919091169063fdd5205f90604401602060405180830381865afa1580156112ae573d6000803e3d6000fd5b505050506040513d601f19601f820116820180604052508101906112d29190613220565b905061132860008054906101000a90046001600160a01b03166001600160a01b031663d09edf316040518163ffffffff1660e01b8152600401602060405180830381865afa15801561088d573d6000803e3d6000fd5b60008054906101000a90046001600160a01b03166001600160a01b031663d09edf316040518163ffffffff1660e01b8152600401602060405180830381865afa158015611379573d6000803e3d6000fd5b505050506040513d601f19601f8201168201806040525081019061139d9190613203565b60405163385e205560e21b8152600481018690526001600160a01b038581166024830152919091169063e1788154906044015b600060405180830381600087803b1580156113ea57600080fd5b505af11580156113fe573d6000803e3d6000fd5b5050505050505050565b600061156160016040518060a0016040529081600082015481526020016001820154815260200160028201548152602001600382018054611448906132c4565b80601f0160208091040260200160405190810160405280929190818152602001828054611474906132c4565b80156114c15780601f10611496576101008083540402835291602001916114c1565b820191906000526020600020905b8154815290600101906020018083116114a457829003601f168201915b505050505081526020016004820180546114da906132c4565b80601f0160208091040260200160405190810160405280929190818152602001828054611506906132c4565b80156115535780601f1061152857610100808354040283529160200191611553565b820191906000526020600020905b81548152906001019060200180831161153657829003601f168201915b5050505050815250506124b8565b905090565b61156e61215b565b6000546001600160a01b03166040516342f6e38960e01b81526001600160a01b03838116600483015291909116906342f6e38990602401602060405180830381865afa1580156115c2573d6000803e3d6000fd5b505050506040513d601f19601f820116820180604052508101906115e69190613291565b61160e57604051635912aaef60e01b81526001600160a01b0382166004820152602401610cb9565b600061161b610ccf61215b565b905060005b83811015610d295761163e82868684818110610dbe57610dbe6132ae565b50600101611620565b60008060009054906101000a90046001600160a01b03166001600160a01b0316637da0a8776040518163ffffffff1660e01b8152600401602060405180830381865afa15801561169b573d6000803e3d6000fd5b505050506040513d601f19601f820116820180604052508101906115619190613203565b60008281527fc1f6fe24621ce81ec5827caf0253cadb74709b061630e6b55e823717059320006020819052604082206116f890846124f8565b949350505050565b600061170b81612036565b60006117226110216000546001600160a01b031690565b90506110f081846123fd565b61173661215b565b6000546001600160a01b03166040516342f6e38960e01b81526001600160a01b03838116600483015291909116906342f6e38990602401602060405180830381865afa15801561178a573d6000803e3d6000fd5b505050506040513d601f19601f820116820180604052508101906117ae9190613291565b6117d657604051635912aaef60e01b81526001600160a01b0382166004820152602401610cb9565b60006117e3610ccf61215b565b90506110f081858561204a565b6000828152606a602052604081205460ff1615611818576118118383612504565b9050610718565b600083815260008051602061353e833981519152602090815260408083206001600160a01b038616845290915290205460ff16611811565b6000828152606a6020526040812054839060ff16611881576040516333af2d2960e01b815260040160405180910390fd5b6116f88484612504565b7ff0c57e16840df040f15088dc2f81fe391c3923bec73e23a9662efc9c229c6a00805468010000000000000000810460ff16159067ffffffffffffffff166000811580156118d65750825b905060008267ffffffffffffffff1660011480156118f35750303b155b905081158015611901575080155b1561191f5760405163f92ee8a960e01b815260040160405180910390fd5b845467ffffffffffffffff19166001178555831561195357845468ff00000000000000001916680100000000000000001785555b61195d8888612616565b6000868060200190518101906119739190613203565b905061197e81612728565b5083156113fe57845468ff000000000000000019168555604051600181527fc7f505b2f371ae2175ee4913f4499e1f2633a7b5936321eed1cdaeb6115181d29060200160405180910390a15050505050505050565b6119db61215b565b6000546001600160a01b03166040516342f6e38960e01b81526001600160a01b03838116600483015291909116906342f6e38990602401602060405180830381865afa158015611a2f573d6000803e3d6000fd5b505050506040513d601f19601f82011682018060405250810190611a539190613291565b611a7b57604051635912aaef60e01b81526001600160a01b0382166004820152602401610cb9565b600061172261102161215b565b600080546040805163d09edf3160e01b815290518593926001600160a01b03169163d09edf319160048083019260209291908290030181865afa158015611ad3573d6000803e3d6000fd5b505050506040513d601f19601f82011682018060405250810190611af79190613203565b60405163fdd5205f60e01b8152306004820152602481018490526001600160a01b03919091169063fdd5205f90604401602060405180830381865afa158015611b44573d6000803e3d6000fd5b505050506040513d601f19601f82011682018060405250810190611b689190613220565b9050611bbe60008054906101000a90046001600160a01b03166001600160a01b031663d09edf316040518163ffffffff1660e01b8152600401602060405180830381865afa15801561088d573d6000803e3d6000fd5b60008054906101000a90046001600160a01b03166001600160a01b031663d09edf316040518163ffffffff1660e01b8152600401602060405180830381865afa158015611c0f573d6000803e3d6000fd5b505050506040513d601f19601f82011682018060405250810190611c339190613203565b604051632e99be7f60e21b8152600481018690526001600160a01b038581166024830152919091169063ba66f9fc906044016113d0565b6000808383604051602001611c9692919091825260601b6001600160601b031916602082015260340190565b60408051808303601f1901815291815281516020928301206000908152606b909252902054949350505050565b60008181527fc1f6fe24621ce81ec5827caf0253cadb74709b061630e6b55e82371705932000602081905260408220611cfb9061276e565b9392505050565b600082815260008051602061353e8339815191526020526040902060010154611d2a81612036565b61075183836123fd565b611d3c61215b565b6000546001600160a01b03166040516342f6e38960e01b81526001600160a01b03838116600483015291909116906342f6e38990602401602060405180830381865afa158015611d90573d6000803e3d6000fd5b505050506040513d601f19601f82011682018060405250810190611db49190613291565b611ddc57604051635912aaef60e01b81526001600160a01b0382166004820152602401610cb9565b60006110e461102161215b565b600082815260008051602061353e8339815191526020526040902060010154611e1181612036565b610d748383612778565b600082815260008051602061353e8339815191526020526040902060010154611e4381612036565b82611e4d81611cc3565b15611e6b5760405163aec5a76560e01b815260040160405180910390fd5b6000848152606a6020908152604091829020805460ff19168615159081179091558251878152918201527f5b06680c3e27b6966fd07ba5a87e12511d3d350bb0e841c91958f34569b40b8191016110b4565b611ec561215b565b6000546001600160a01b03166040516342f6e38960e01b81526001600160a01b03838116600483015291909116906342f6e38990602401602060405180830381865afa158015611f19573d6000803e3d6000fd5b505050506040513d601f19601f82011682018060405250810190611f3d9190613291565b611f6557604051635912aaef60e01b81526001600160a01b0382166004820152602401610cb9565b6000611fb5611f7261215b565b846040516001600160601b0319606084901b1660208201526034810182905260009060540160405160208183030381529060405280519060200120905092915050565b9050610d7481600019612778565b6000611fce81612036565b6000611fe5610ccf6000546001600160a01b031690565b905060005b83811015610d2957612008828686848181106111cf576111cf6132ae565b50600101611fea565b60006001600160e01b03198216631e38b60f60e31b14806107185750610718826127f8565b6120478161204261215b565b61281d565b50565b6000838152606a6020526040902054839060ff1661207b576040516333af2d2960e01b815260040160405180910390fd5b81806000036120b9576040517fff2f28f000000000000000000000000000000000000000000000000000000000815260048101829052602401610cb9565b600085856040516020016120e492919091825260601b6001600160601b031916602082015260340190565b60408051808303601f1901815282825280516020918201206000818152606b83528390208890558984526001600160a01b0389169184019190915290820186905291507ea848dc7e0a97518071981b0bbbf38d0ce61086c12106156c3fed80f80047149060600160405180910390a1505050505050565b600061156161287f565b60008054906101000a90046001600160a01b03166001600160a01b031663d09edf316040518163ffffffff1660e01b8152600401602060405180830381865afa1580156121b6573d6000803e3d6000fd5b505050506040513d601f19601f820116820180604052508101906121da9190613203565b60405163a883867d60e01b8152600481018490526001600160a01b038381166024830152919091169063a883867d90604401602060405180830381865afa158015612229573d6000803e3d6000fd5b505050506040513d601f19601f8201168201806040525081019061224d9190613291565b61227c576040516342abbb7760e01b8152600481018390526001600160a01b0382166024820152604401610cb9565b5050565b6000828152606a602052604081205460ff16156123f3576122a18383611c6a565b6000036122d357604051631ec8ddc960e11b8152600481018490526001600160a01b0383166024820152604401610cb9565b813b63ffffffff81166000036123075760405163530782a760e11b81526001600160a01b0384166004820152602401610cb9565b604080513060248083019190915282518083039091018152604490910182526020810180517bffffffffffffffffffffffffffffffffffffffffffffffffffffffff166370a0823160e01b179052905160009182916001600160a01b03871691612370916132fe565b6000604051808303816000865af19150503d80600081146123ad576040519150601f19603f3d011682016040523d82523d6000602084013e6123b2565b606091505b50915091508115806123c657508051602014155b156123ef5760405163530782a760e11b81526001600160a01b0386166004820152602401610cb9565b5050505b611cfb83836128d1565b6000828152606a602052604081205460ff16156124ae576000838360405160200161243f92919091825260601b6001600160601b031916602082015260340190565b60408051808303601f1901815282825280516020918201206000818152606b83528381208190558885526001600160a01b038816928501929092529183015291507ea848dc7e0a97518071981b0bbbf38d0ce61086c12106156c3fed80f80047149060600160405180910390a1505b611cfb8383612923565b60008160000151826060015183608001516040516020016124db9392919061331a565b604051602081830303815290604052805190602001209050919050565b6000611cfb8383612966565b60008061251084611cc3565b905060005b8181101561260b57600061252986836116bf565b90506000868260405160200161255692919091825260601b6001600160601b031916602082015260340190565b60408051808303601f1901815282825280516020918201206000818152606b909252919020546370a0823160e01b83526001600160a01b03898116600485015291935091908416906370a0823190602401602060405180830381865afa9250505080156125e0575060408051601f3d908101601f191682019092526125dd91810190613220565b60015b156125fd578181106125fb5760019650505050505050610718565b505b505050806001019050612515565b506000949350505050565b61261e612990565b6001600160a01b03821661264557604051637280679360e01b815260040160405180910390fd5b600080547fffffffffffffffffffffffff0000000000000000000000000000000000000000166001600160a01b038416179055612681816129e0565b61269e57604051637511254160e01b815260040160405180910390fd5b805160019081556020820151600255604082015160035560608201518291906004906126ca9082613397565b50608082015160048201906126df9082613397565b50905050816001600160a01b03167fd5f3f84c2e1816ce290af84d002663800b02f2985d770cdd335de76fd723b7308260405161271c9190613457565b60405180910390a25050565b612730612990565b6001600160a01b03811661275757604051635b784de560e01b815260040160405180910390fd5b61276360001980612778565b61227c600082612280565b6000610718825490565b60008051602061353e83398151915260006127af84600090815260008051602061353e833981519152602052604090206001015490565b600085815260208490526040808220600101869055519192508491839187917fbd79b86ffe0ab8e8776151514217cd7cacd52c909f66475c3af44e129f0b00ff9190a450505050565b60006001600160e01b0319821663e328951160e01b1480610718575061071882612a40565b600082815260008051602061353e833981519152602090815260408083206001600160a01b038516845290915290205460ff1661227c5760405163e2517d3f60e01b81526001600160a01b038216600482015260248101839052604401610cb9565b600036601461288d33610e88565b80156128995750808210155b156128c9576000366128ab83856134ae565b6128b69282906134cf565b6128bf916134f9565b60601c9250505090565b339250505090565b60008282811580156128f057506000546001600160a01b038281169116145b1561290e57604051634701683560e11b815260040160405180910390fd5b6129188585612a65565b92505b505092915050565b6000828015801561293e5750600161293b6000611cc3565b11155b1561295c5760405163d1ed446560e01b815260040160405180910390fd5b6116f88484612abc565b600082600001828154811061297d5761297d6132ae565b9060005260206000200154905092915050565b7ff0c57e16840df040f15088dc2f81fe391c3923bec73e23a9662efc9c229c6a005468010000000000000000900460ff166129de57604051631afcd79f60e31b815260040160405180910390fd5b565b60008160600151516000036129f757506000919050565b816080015151600003612a0c57506000919050565b8151158015612a1d57506020820151155b8015612a2b57506040820151155b15612a3857506000919050565b506001919050565b60006001600160e01b03198216635a05180f60e01b1480610718575061071882612b0a565b60007fc1f6fe24621ce81ec5827caf0253cadb74709b061630e6b55e8237170593200081612a938585612b3f565b905080156116f8576000858152602083905260409020612ab39085612bfd565b50949350505050565b60007fc1f6fe24621ce81ec5827caf0253cadb74709b061630e6b55e8237170593200081612aea8585612c12565b905080156116f8576000858152602083905260409020612ab39085612cc4565b60006001600160e01b03198216637965db0b60e01b148061071857506301ffc9a760e01b6001600160e01b0319831614610718565b600082815260008051602061353e833981519152602081815260408084206001600160a01b038616855290915282205460ff16612bf3576000848152602082815260408083206001600160a01b03871684529091529020805460ff19166001179055612ba961215b565b6001600160a01b0316836001600160a01b0316857f2f8788117e7eff1d82e926ec794901d17c78024a50270940304540a733656f0d60405160405180910390a46001915050610718565b6000915050610718565b6000611cfb836001600160a01b038416612cd9565b600082815260008051602061353e833981519152602081815260408084206001600160a01b038616855290915282205460ff1615612bf3576000848152602082815260408083206001600160a01b03871684529091529020805460ff19169055612c7a61215b565b6001600160a01b0316836001600160a01b0316857ff6391f5c32d9c69d2a47ea670b442974b53935d1edc7fd64eb21e047a839171b60405160405180910390a46001915050610718565b6000611cfb836001600160a01b038416612d28565b6000818152600183016020526040812054612d2057508154600181810184556000848152602080822090930184905584548482528286019093526040902091909155610718565b506000610718565b60008181526001830160205260408120548015612bf3576000612d4c6001836134ae565b8554909150600090612d60906001906134ae565b9050808214612dc5576000866000018281548110612d8057612d806132ae565b9060005260206000200154905080876000018481548110612da357612da36132ae565b6000918252602080832090910192909255918252600188019052604090208390555b8554869080612dd657612dd6613527565b600190038181906000526020600020016000905590558560010160008681526020019081526020016000206000905560019350505050610718565b600060208284031215612e2357600080fd5b81356001600160e01b031981168114611cfb57600080fd5b6001600160a01b038116811461204757600080fd5b600080600060608486031215612e6557600080fd5b833592506020840135612e7781612e3b565b929592945050506040919091013590565b600060208284031215612e9a57600080fd5b5035919050565b600080600060408486031215612eb657600080fd5b83359250602084013567ffffffffffffffff80821115612ed557600080fd5b818601915086601f830112612ee957600080fd5b813581811115612ef857600080fd5b8760208260051b8501011115612f0d57600080fd5b6020830194508093505050509250925092565b60008060408385031215612f3357600080fd5b823591506020830135612f4581612e3b565b809150509250929050565b60005b83811015612f6b578181015183820152602001612f53565b50506000910152565b60008151808452612f8c816020860160208601612f50565b601f01601f19169290920160200192915050565b602081526000611cfb6020830184612f74565b600060208284031215612fc557600080fd5b8135611cfb81612e3b565b60008060408385031215612fe357600080fd5b50508035926020909101359150565b634e487b7160e01b600052604160045260246000fd5b60405160a0810167ffffffffffffffff8111828210171561302b5761302b612ff2565b60405290565b600082601f83011261304257600080fd5b813567ffffffffffffffff8082111561305d5761305d612ff2565b604051601f8301601f19908116603f0116810190828211818310171561308557613085612ff2565b8160405283815286602085880101111561309e57600080fd5b836020870160208301376000602085830101528094505050505092915050565b6000806000606084860312156130d357600080fd5b83356130de81612e3b565b9250602084013567ffffffffffffffff808211156130fb57600080fd5b9085019060a0828803121561310f57600080fd5b613117613008565b82358152602083013560208201526040830135604082015260608301358281111561314157600080fd5b61314d89828601613031565b60608301525060808301358281111561316557600080fd5b61317189828601613031565b6080830152509350604086013591508082111561318d57600080fd5b5061319a86828701613031565b9150509250925092565b801515811461204757600080fd5b600080604083850312156131c557600080fd5b823591506020830135612f45816131a4565b600080604083850312156131ea57600080fd5b82356131f581612e3b565b946020939093013593505050565b60006020828403121561321557600080fd5b8151611cfb81612e3b565b60006020828403121561323257600080fd5b5051919050565b83815260406020808301829052908201839052600090849060608401835b8681101561328557833561326a81612e3b565b6001600160a01b031682529282019290820190600101613257565b50979650505050505050565b6000602082840312156132a357600080fd5b8151611cfb816131a4565b634e487b7160e01b600052603260045260246000fd5b600181811c908216806132d857607f821691505b6020821081036132f857634e487b7160e01b600052602260045260246000fd5b50919050565b60008251613310818460208701612f50565b9190910192915050565b8381526060602082015260006133336060830185612f74565b82810360408401526133458185612f74565b9695505050505050565b601f821115610d74576000816000526020600020601f850160051c810160208610156133785750805b601f850160051c820191505b81811015610d2957828155600101613384565b815167ffffffffffffffff8111156133b1576133b1612ff2565b6133c5816133bf84546132c4565b8461334f565b602080601f8311600181146133fa57600084156133e25750858301515b600019600386901b1c1916600185901b178555610d29565b600085815260208120601f198616915b828110156134295788860151825594840194600190910190840161340a565b50858210156134475787850151600019600388901b60f8161c191681555b5050505050600190811b01905550565b602081528151602082015260208201516040820152604082015160608201526000606083015160a0608084015261349160c0840182612f74565b90506080840151601f198483030160a08501526129188282612f74565b8181038181111561071857634e487b7160e01b600052601160045260246000fd5b600080858511156134df57600080fd5b838611156134ec57600080fd5b5050820193919092039150565b6001600160601b0319813581811691601485101561291b5760149490940360031b84901b1690921692915050565b634e487b7160e01b600052603160045260246000fdfe02dd7bc7dec4dceedda775e58dd541e08a116c6c53815c0bd028192f7b626800a2646970667358221220e6e200ec1e51d4cf55301216c7f6f6ed4416a44131668522e9031ae6ac43594064736f6c63430008170033",
    "linkReferences": {}
  },
  "methodIdentifiers": {
    "BURN_ADMIN_ROLE()": "b3cb1991",
    "DEFAULT_ADMIN_ROLE()": "a217fddf",
    "burnAdminFromModuleRole(bytes32)": "e99b6e13",
    "checkForRole(bytes32,address)": "a883867d",
    "generateRoleId(address,bytes32)": "fdd5205f",
    "getAdminRole()": "b3ecf236",
    "getRoleAdmin(bytes32)": "248a9ca3",
    "getRoleMember(bytes32,uint256)": "9010d07c",
    "getRoleMemberCount(bytes32)": "ca15c873",
    "getThresholdValue(bytes32,address)": "c8da8085",
    "grantGlobalRole(bytes32,address)": "61bcd0c4",
    "grantGlobalRoleBatched(bytes32,address[])": "ee2d0968",
    "grantModuleRole(bytes32,address)": "6c67e807",
    "grantModuleRoleBatched(bytes32,address[])": "272bbd44",
    "grantRole(bytes32,address)": "2f2ff15d",
    "grantRoleFromModule(bytes32,address)": "e1788154",
    "grantRoleFromModuleBatched(bytes32,address[])": "64815453",
    "grantTokenRoleFromModule(bytes32,address,uint256)": "35dde263",
    "hasRole(bytes32,address)": "91d14854",
    "hasTokenRole(bytes32,address)": "b3391c67",
    "identifier()": "7998a1c4",
    "init(address,(uint256,uint256,uint256,string,string),bytes)": "b66a870c",
    "isTokenGated(bytes32)": "23add683",
    "isTrustedForwarder(address)": "572b6c05",
    "makeRoleTokenGatedFromModule(bytes32)": "5b0209b9",
    "orchestrator()": "b74795d9",
    "renounceRole(bytes32,address)": "36568abe",
    "revokeGlobalRole(bytes32,address)": "99df6ff1",
    "revokeGlobalRoleBatched(bytes32,address[])": "49eb42f1",
    "revokeModuleRole(bytes32,address)": "bcb61920",
    "revokeModuleRoleBatched(bytes32,address[])": "24e30270",
    "revokeRole(bytes32,address)": "d547741f",
    "revokeRoleFromModule(bytes32,address)": "ba66f9fc",
    "revokeRoleFromModuleBatched(bytes32,address[])": "7d540a64",
    "setThreshold(bytes32,address,uint256)": "16e109f8",
    "setThresholdFromModule(bytes32,address,uint256)": "a291d0a8",
    "setTokenGated(bytes32,bool)": "e5476cbe",
    "supportsInterface(bytes4)": "01ffc9a7",
    "thresholdMap(bytes32)": "7448216d",
    "title()": "4a79d50c",
    "transferAdminRole(bytes32,bytes32)": "e38a584c",
    "trustedForwarder()": "7da0a877",
    "url()": "5600f04f",
    "version()": "54fd4d50"
  },
  "id": 102
}