{
  "abi": [
    {
      "type": "function",
      "name": "MAX_VOTING_DURATION",
      "inputs": [],
      "outputs": [
        {
          "name": "",
          "type": "uint256",
          "internalType": "uint256"
        }
      ],
      "stateMutability": "view"
    },
    {
      "type": "function",
      "name": "MIN_VOTING_DURATION",
      "inputs": [],
      "outputs": [
        {
          "name": "",
          "type": "uint256",
          "internalType": "uint256"
        }
      ],
      "stateMutability": "view"
    },
    {
      "type": "function",
      "name": "addVoter",
      "inputs": [
        {
          "name": "who",
          "type": "address",
          "internalType": "address"
        }
      ],
      "outputs": [],
      "stateMutability": "nonpayable"
    },
    {
      "type": "function",
      "name": "castVote",
      "inputs": [
        {
          "name": "motionId",
          "type": "uint256",
          "internalType": "uint256"
        },
        {
          "name": "support",
          "type": "uint8",
          "internalType": "uint8"
        }
      ],
      "outputs": [],
      "stateMutability": "nonpayable"
    },
    {
      "type": "function",
      "name": "createMotion",
      "inputs": [
        {
          "name": "target",
          "type": "address",
          "internalType": "address"
        },
        {
          "name": "action",
          "type": "bytes",
          "internalType": "bytes"
        }
      ],
      "outputs": [
        {
          "name": "",
          "type": "uint256",
          "internalType": "uint256"
        }
      ],
      "stateMutability": "nonpayable"
    },
    {
      "type": "function",
      "name": "decoder",
      "inputs": [
        {
          "name": "data",
          "type": "bytes",
          "internalType": "bytes"
        }
      ],
      "outputs": [
        {
          "name": "requirement",
          "type": "bool",
          "internalType": "bool"
        }
      ],
      "stateMutability": "pure"
    },
    {
      "type": "function",
      "name": "executeMotion",
      "inputs": [
        {
          "name": "motionId",
          "type": "uint256",
          "internalType": "uint256"
        }
      ],
      "outputs": [],
      "stateMutability": "nonpayable"
    },
    {
      "type": "function",
      "name": "getReceipt",
      "inputs": [
        {
          "name": "_ID",
          "type": "uint256",
          "internalType": "uint256"
        },
        {
          "name": "voter",
          "type": "address",
          "internalType": "address"
        }
      ],
      "outputs": [
        {
          "name": "",
          "type": "tuple",
          "internalType": "struct ISingleVoteGovernor.Receipt",
          "components": [
            {
              "name": "hasVoted",
              "type": "bool",
              "internalType": "bool"
            },
            {
              "name": "support",
              "type": "uint8",
              "internalType": "uint8"
            }
          ]
        }
      ],
      "stateMutability": "view"
    },
    {
      "type": "function",
      "name": "grantModuleRole",
      "inputs": [
        {
          "name": "role",
          "type": "bytes32",
          "internalType": "bytes32"
        },
        {
          "name": "addr",
          "type": "address",
          "internalType": "address"
        }
      ],
      "outputs": [],
      "stateMutability": "nonpayable"
    },
    {
      "type": "function",
      "name": "identifier",
      "inputs": [],
      "outputs": [
        {
          "name": "",
          "type": "bytes32",
          "internalType": "bytes32"
        }
      ],
      "stateMutability": "view"
    },
    {
      "type": "function",
      "name": "init",
      "inputs": [
        {
          "name": "orchestrator_",
          "type": "address",
          "internalType": "contract IOrchestrator"
        },
        {
          "name": "metadata",
          "type": "tuple",
          "internalType": "struct IModule.Metadata",
          "components": [
            {
              "name": "majorVersion",
              "type": "uint256",
              "internalType": "uint256"
            },
            {
              "name": "minorVersion",
              "type": "uint256",
              "internalType": "uint256"
            },
            {
              "name": "url",
              "type": "string",
              "internalType": "string"
            },
            {
              "name": "title",
              "type": "string",
              "internalType": "string"
            }
          ]
        },
        {
          "name": "configData",
          "type": "bytes",
          "internalType": "bytes"
        }
      ],
      "outputs": [],
      "stateMutability": "nonpayable"
    },
    {
      "type": "function",
      "name": "init2",
      "inputs": [
        {
          "name": "orchestrator_",
          "type": "address",
          "internalType": "contract IOrchestrator"
        },
        {
          "name": "dependencyData",
          "type": "bytes",
          "internalType": "bytes"
        }
      ],
      "outputs": [],
      "stateMutability": "nonpayable"
    },
    {
      "type": "function",
      "name": "isTrustedForwarder",
      "inputs": [
        {
          "name": "forwarder",
          "type": "address",
          "internalType": "address"
        }
      ],
      "outputs": [
        {
          "name": "",
          "type": "bool",
          "internalType": "bool"
        }
      ],
      "stateMutability": "view"
    },
    {
      "type": "function",
      "name": "isVoter",
      "inputs": [
        {
          "name": "",
          "type": "address",
          "internalType": "address"
        }
      ],
      "outputs": [
        {
          "name": "",
          "type": "bool",
          "internalType": "bool"
        }
      ],
      "stateMutability": "view"
    },
    {
      "type": "function",
      "name": "motionCount",
      "inputs": [],
      "outputs": [
        {
          "name": "",
          "type": "uint256",
          "internalType": "uint256"
        }
      ],
      "stateMutability": "view"
    },
    {
      "type": "function",
      "name": "motions",
      "inputs": [
        {
          "name": "",
          "type": "uint256",
          "internalType": "uint256"
        }
      ],
      "outputs": [
        {
          "name": "target",
          "type": "address",
          "internalType": "address"
        },
        {
          "name": "action",
          "type": "bytes",
          "internalType": "bytes"
        },
        {
          "name": "startTimestamp",
          "type": "uint256",
          "internalType": "uint256"
        },
        {
          "name": "endTimestamp",
          "type": "uint256",
          "internalType": "uint256"
        },
        {
          "name": "requiredThreshold",
          "type": "uint256",
          "internalType": "uint256"
        },
        {
          "name": "forVotes",
          "type": "uint256",
          "internalType": "uint256"
        },
        {
          "name": "againstVotes",
          "type": "uint256",
          "internalType": "uint256"
        },
        {
          "name": "abstainVotes",
          "type": "uint256",
          "internalType": "uint256"
        },
        {
          "name": "executedAt",
          "type": "uint256",
          "internalType": "uint256"
        },
        {
          "name": "executionResult",
          "type": "bool",
          "internalType": "bool"
        },
        {
          "name": "executionReturnData",
          "type": "bytes",
          "internalType": "bytes"
        }
      ],
      "stateMutability": "view"
    },
    {
      "type": "function",
      "name": "orchestrator",
      "inputs": [],
      "outputs": [
        {
          "name": "",
          "type": "address",
          "internalType": "contract IOrchestrator"
        }
      ],
      "stateMutability": "view"
    },
    {
      "type": "function",
      "name": "removeVoter",
      "inputs": [
        {
          "name": "who",
          "type": "address",
          "internalType": "address"
        }
      ],
      "outputs": [],
      "stateMutability": "nonpayable"
    },
    {
      "type": "function",
      "name": "revokeModuleRole",
      "inputs": [
        {
          "name": "role",
          "type": "bytes32",
          "internalType": "bytes32"
        },
        {
          "name": "addr",
          "type": "address",
          "internalType": "address"
        }
      ],
      "outputs": [],
      "stateMutability": "nonpayable"
    },
    {
      "type": "function",
      "name": "setThreshold",
      "inputs": [
        {
          "name": "newThreshold",
          "type": "uint256",
          "internalType": "uint256"
        }
      ],
      "outputs": [],
      "stateMutability": "nonpayable"
    },
    {
      "type": "function",
      "name": "setVotingDuration",
      "inputs": [
        {
          "name": "newVoteDuration",
          "type": "uint256",
          "internalType": "uint256"
        }
      ],
      "outputs": [],
      "stateMutability": "nonpayable"
    },
    {
      "type": "function",
      "name": "supportsInterface",
      "inputs": [
        {
          "name": "interfaceId",
          "type": "bytes4",
          "internalType": "bytes4"
        }
      ],
      "outputs": [
        {
          "name": "",
          "type": "bool",
          "internalType": "bool"
        }
      ],
      "stateMutability": "view"
    },
    {
      "type": "function",
      "name": "threshold",
      "inputs": [],
      "outputs": [
        {
          "name": "",
          "type": "uint256",
          "internalType": "uint256"
        }
      ],
      "stateMutability": "view"
    },
    {
      "type": "function",
      "name": "title",
      "inputs": [],
      "outputs": [
        {
          "name": "",
          "type": "string",
          "internalType": "string"
        }
      ],
      "stateMutability": "view"
    },
    {
      "type": "function",
      "name": "url",
      "inputs": [],
      "outputs": [
        {
          "name": "",
          "type": "string",
          "internalType": "string"
        }
      ],
      "stateMutability": "view"
    },
    {
      "type": "function",
      "name": "version",
      "inputs": [],
      "outputs": [
        {
          "name": "",
          "type": "uint256",
          "internalType": "uint256"
        },
        {
          "name": "",
          "type": "uint256",
          "internalType": "uint256"
        }
      ],
      "stateMutability": "view"
    },
    {
      "type": "function",
      "name": "voteDuration",
      "inputs": [],
      "outputs": [
        {
          "name": "",
          "type": "uint256",
          "internalType": "uint256"
        }
      ],
      "stateMutability": "view"
    },
    {
      "type": "function",
      "name": "voterCount",
      "inputs": [],
      "outputs": [
        {
          "name": "",
          "type": "uint256",
          "internalType": "uint256"
        }
      ],
      "stateMutability": "view"
    },
    {
      "type": "event",
      "name": "Initialized",
      "inputs": [
        {
          "name": "version",
          "type": "uint64",
          "indexed": false,
          "internalType": "uint64"
        }
      ],
      "anonymous": false
    },
    {
      "type": "event",
      "name": "ModuleInitialized",
      "inputs": [
        {
          "name": "parentOrchestrator",
          "type": "address",
          "indexed": true,
          "internalType": "address"
        },
        {
          "name": "moduleTitle",
          "type": "string",
          "indexed": true,
          "internalType": "string"
        },
        {
          "name": "majorVersion",
          "type": "uint256",
          "indexed": false,
          "internalType": "uint256"
        },
        {
          "name": "minorVersion",
          "type": "uint256",
          "indexed": false,
          "internalType": "uint256"
        }
      ],
      "anonymous": false
    },
    {
      "type": "event",
      "name": "MotionCreated",
      "inputs": [
        {
          "name": "motionId",
          "type": "uint256",
          "indexed": true,
          "internalType": "uint256"
        }
      ],
      "anonymous": false
    },
    {
      "type": "event",
      "name": "MotionExecuted",
      "inputs": [
        {
          "name": "motionId",
          "type": "uint256",
          "indexed": true,
          "internalType": "uint256"
        }
      ],
      "anonymous": false
    },
    {
      "type": "event",
      "name": "ThresholdUpdated",
      "inputs": [
        {
          "name": "oldThreshold",
          "type": "uint256",
          "indexed": false,
          "internalType": "uint256"
        },
        {
          "name": "newThreshold",
          "type": "uint256",
          "indexed": false,
          "internalType": "uint256"
        }
      ],
      "anonymous": false
    },
    {
      "type": "event",
      "name": "VoteDurationUpdated",
      "inputs": [
        {
          "name": "oldVotingDuration",
          "type": "uint256",
          "indexed": false,
          "internalType": "uint256"
        },
        {
          "name": "newVotingDuration",
          "type": "uint256",
          "indexed": false,
          "internalType": "uint256"
        }
      ],
      "anonymous": false
    },
    {
      "type": "event",
      "name": "VoterAdded",
      "inputs": [
        {
          "name": "who",
          "type": "address",
          "indexed": true,
          "internalType": "address"
        }
      ],
      "anonymous": false
    },
    {
      "type": "event",
      "name": "VoterRemoved",
      "inputs": [
        {
          "name": "who",
          "type": "address",
          "indexed": true,
          "internalType": "address"
        }
      ],
      "anonymous": false
    },
    {
      "type": "error",
      "name": "InvalidInitialization",
      "inputs": []
    },
    {
      "type": "error",
      "name": "Module_OrchestratorCallbackFailed",
      "inputs": [
        {
          "name": "funcSig",
          "type": "string",
          "internalType": "string"
        }
      ]
    },
    {
      "type": "error",
      "name": "Module__CallerNotAuthorized",
      "inputs": [
        {
          "name": "role",
          "type": "bytes32",
          "internalType": "bytes32"
        },
        {
          "name": "caller",
          "type": "address",
          "internalType": "address"
        }
      ]
    },
    {
      "type": "error",
      "name": "Module__CannotCallInit2Again",
      "inputs": []
    },
    {
      "type": "error",
      "name": "Module__InvalidMetadata",
      "inputs": []
    },
    {
      "type": "error",
      "name": "Module__InvalidOrchestratorAddress",
      "inputs": []
    },
    {
      "type": "error",
      "name": "Module__NoDependencyOrMalformedDependencyData",
      "inputs": []
    },
    {
      "type": "error",
      "name": "Module__OnlyCallableByOrchestrator",
      "inputs": []
    },
    {
      "type": "error",
      "name": "Module__SingleVoteGovernor__AttemptedDoubleVote",
      "inputs": []
    },
    {
      "type": "error",
      "name": "Module__SingleVoteGovernor__CallerNotVoter",
      "inputs": []
    },
    {
      "type": "error",
      "name": "Module__SingleVoteGovernor__EmptyVoters",
      "inputs": []
    },
    {
      "type": "error",
      "name": "Module__SingleVoteGovernor__InvalidMotionId",
      "inputs": []
    },
    {
      "type": "error",
      "name": "Module__SingleVoteGovernor__InvalidSupport",
      "inputs": []
    },
    {
      "type": "error",
      "name": "Module__SingleVoteGovernor__InvalidVoterAddress",
      "inputs": []
    },
    {
      "type": "error",
      "name": "Module__SingleVoteGovernor__InvalidVotingDuration",
      "inputs": []
    },
    {
      "type": "error",
      "name": "Module__SingleVoteGovernor__IsAlreadyVoter",
      "inputs": []
    },
    {
      "type": "error",
      "name": "Module__SingleVoteGovernor__MotionAlreadyExecuted",
      "inputs": []
    },
    {
      "type": "error",
      "name": "Module__SingleVoteGovernor__MotionInVotingPhase",
      "inputs": []
    },
    {
      "type": "error",
      "name": "Module__SingleVoteGovernor__MotionVotingPhaseClosed",
      "inputs": []
    },
    {
      "type": "error",
      "name": "Module__SingleVoteGovernor__ThresholdNotReached",
      "inputs": []
    },
    {
      "type": "error",
      "name": "Module__SingleVoteGovernor__UnreachableThreshold",
      "inputs": []
    },
    {
      "type": "error",
      "name": "NotInitializing",
      "inputs": []
    }
  ],
  "bytecode": {
    "object": "0x60806040523480156200001157600080fd5b506200001c62000022565b620000d6565b7ff0c57e16840df040f15088dc2f81fe391c3923bec73e23a9662efc9c229c6a00805468010000000000000000900460ff1615620000735760405163f92ee8a960e01b815260040160405180910390fd5b80546001600160401b0390811614620000d35780546001600160401b0319166001600160401b0390811782556040519081527fc7f505b2f371ae2175ee4913f4499e1f2633a7b5936321eed1cdaeb6115181d29060200160405180910390a15b50565b612b4580620000e66000396000f3fe608060405234801561001057600080fd5b50600436106101c45760003560e01c806386c1ff68116100f9578063bcb6192011610097578063e6f5ed5d11610071578063e6f5ed5d14610433578063eaf1061c14610446578063eefe85e414610450578063f4ab9adf1461045a57600080fd5b8063bcb6192014610386578063e23a9a5214610399578063e5cf12d71461042057600080fd5b80639e978575116100d35780639e978575146102fd578063a7771ee314610310578063b21d36a814610333578063b74795d91461035d57600080fd5b806386c1ff68146102c4578063960bfe04146102d75780639bfdf766146102ea57600080fd5b80635600f04f11610166578063572b6c0511610140578063572b6c05146102835780635bcfadb5146102965780636c67e807146102a95780637998a1c4146102bc57600080fd5b80635600f04f1461025f5780635636449914610267578063567813881461027057600080fd5b806342cde4e8116101a257806342cde4e81461021157806342dfe9581461021a5780634a79d50c1461022f57806354fd4d501461024457600080fd5b806301ffc9a7146101c95780632cb0c650146101f157806342169e4814610208575b600080fd5b6101dc6101d73660046120c4565b61046d565b60405190151581526020015b60405180910390f35b6101fa60075481565b6040519081526020016101e8565b6101fa60085481565b6101fa60095481565b61022d610228366004612222565b6104c9565b005b610237610900565b6040516101e8919061234e565b600154600254604080519283526020830191909152016101e8565b610237610995565b6101fa600a5481565b61022d61027e366004612361565b6109a7565b6101dc610291366004612397565b610c21565b61022d6102a43660046123b4565b610caf565b61022d6102b73660046123cd565b610dc2565b6101fa61104c565b61022d6102d2366004612397565b61119c565b61022d6102e53660046123b4565b6112ca565b61022d6102f83660046123f2565b611387565b6101dc61030b366004612442565b611416565b6101dc61031e366004612397565b60056020526000908152604090205460ff1681565b6103466103413660046123b4565b611433565b6040516101e89b9a9998979695949392919061247f565b60005461010090046001600160a01b03166040516001600160a01b0390911681526020016101e8565b61022d6103943660046123cd565b6115ad565b6104006103a73660046123cd565b60408051808201825260008082526020918201819052938452600681528184206001600160a01b03939093168452600890920182529182902082518084019093525460ff80821615158452610100909104169082015290565b6040805182511515815260209283015160ff1692810192909252016101e8565b61022d61042e3660046123b4565b611802565b6101fa6104413660046124fd565b6119c9565b6101fa6201518081565b6101fa6212750081565b61022d610468366004612397565b611ada565b60007fffffffff0000000000000000000000000000000000000000000000000000000082167f81d489de0000000000000000000000000000000000000000000000000000000014806104c357506104c382611c07565b92915050565b7ff0c57e16840df040f15088dc2f81fe391c3923bec73e23a9662efc9c229c6a00805468010000000000000000810460ff16159067ffffffffffffffff166000811580156105145750825b905060008267ffffffffffffffff1660011480156105315750303b155b90508115801561053f575080155b15610576576040517ff92ee8a900000000000000000000000000000000000000000000000000000000815260040160405180910390fd5b84547fffffffffffffffffffffffffffffffffffffffffffffffff000000000000000016600117855583156105d75784547fffffffffffffffffffffffffffffffffffffffffffffff00ffffffffffffffff16680100000000000000001785555b6105e18888611c9e565b6060600080888060200190518101906105fa91906125a6565b82519295509093509150600081900361063f576040517fd1e1974800000000000000000000000000000000000000000000000000000000815260040160405180910390fd5b80831115610679576040517f9ef62b1300000000000000000000000000000000000000000000000000000000815260040160405180910390fd5b6201518082108061068c57506212750082115b156106c3576040517f29330db400000000000000000000000000000000000000000000000000000000815260040160405180910390fd5b6000805b8281101561080c578581815181106106e1576106e1612653565b6020026020010151915060006001600160a01b0316826001600160a01b0316148061071457506001600160a01b03821630145b8061073157506000546001600160a01b0383811661010090920416145b15610768576040517f7d1fd48f00000000000000000000000000000000000000000000000000000000815260040160405180910390fd5b6001600160a01b03821660009081526005602052604090205460ff16156107bb576040517fb426353d00000000000000000000000000000000000000000000000000000000815260040160405180910390fd5b6001600160a01b038216600081815260056020526040808220805460ff19166001179055517fa636f4a11e2d3ba7f89d042ecb0a6b886716e98cd49d8fd876ee0f73bced42b89190a26001016106c7565b50600882905560098490556040805160008152602081018690527fb06a54caabe58475c86c2bf9df3f2f06dd1213e9e10659c293117fe4893b274b910160405180910390a1600a8390556040805160008152602081018590527fd47773545974972c430ef4df16cf8d0c415f1c29bc3ec203d20b7452d94494e7910160405180910390a1505050505083156108f65784547fffffffffffffffffffffffffffffffffffffffffffffff00ffffffffffffffff168555604051600181527fc7f505b2f371ae2175ee4913f4499e1f2633a7b5936321eed1cdaeb6115181d29060200160405180910390a15b5050505050505050565b60606001600301805461091290612682565b80601f016020809104026020016040519081016040528092919081815260200182805461093e90612682565b801561098b5780601f106109605761010080835404028352916020019161098b565b820191906000526020600020905b81548152906001019060200180831161096e57829003601f168201915b5050505050905090565b60606001600201805461091290612682565b600560006109b3611dfd565b6001600160a01b0316815260208101919091526040016000205460ff16610a06576040517f104f379000000000000000000000000000000000000000000000000000000000815260040160405180910390fd5b60028160ff161115610a44576040517f506a099f00000000000000000000000000000000000000000000000000000000815260040160405180910390fd5b6007548210610a7f576040517fc278783700000000000000000000000000000000000000000000000000000000815260040160405180910390fd5b60008281526006602052604090206003810154421115610acb576040517f727b558100000000000000000000000000000000000000000000000000000000815260040160405180910390fd5b806008016000610ad9611dfd565b6001600160a01b0316815260208101919091526040016000205460ff1615610b2d576040517f2f8e358900000000000000000000000000000000000000000000000000000000815260040160405180910390fd5b8160ff16600003610b48576005810180546001019055610b7a565b8160ff16600103610b63576006810180546001019055610b7a565b8160ff16600203610b7a5760078101805460010190555b604080518082019091526001815260ff83166020820152600882016000610b9f611dfd565b6001600160a01b0316815260208082019290925260400160002082518154939092015160ff16610100027fffffffffffffffffffffffffffffffffffffffffffffffffffffffffffff00ff921515929092167fffffffffffffffffffffffffffffffffffffffffffffffffffffffffffff000090931692909217179055505050565b600080546040517f572b6c050000000000000000000000000000000000000000000000000000000081526001600160a01b0384811660048301526101009092049091169063572b6c0590602401602060405180830381865afa158015610c8b573d6000803e3d6000fd5b505050506040513d601f19601f820116820180604052508101906104c391906126e5565b30610cb8611dfd565b6001600160a01b031614610d37577f6f6e6c7953656c66000000000000000000000000000000000000000000000000610cef611dfd565b6040517f42abbb7700000000000000000000000000000000000000000000000000000000815260048101929092526001600160a01b0316602482015260440160405180910390fd5b62015180811080610d4a57506212750081115b15610d81576040517f29330db400000000000000000000000000000000000000000000000000000000815260040160405180910390fd5b600a5460408051918252602082018390527fd47773545974972c430ef4df16cf8d0c415f1c29bc3ec203d20b7452d94494e7910160405180910390a1600a55565b60008060019054906101000a90046001600160a01b03166001600160a01b031663d09edf316040518163ffffffff1660e01b8152600401602060405180830381865afa158015610e16573d6000803e3d6000fd5b505050506040513d601f19601f82011682018060405250810190610e3a9190612700565b90506000816001600160a01b03166355ff58d46040518163ffffffff1660e01b8152600401602060405180830381865afa158015610e7c573d6000803e3d6000fd5b505050506040513d601f19601f82011682018060405250810190610ea0919061271d565b9050816001600160a01b03166391d1485482610eba611dfd565b6040517fffffffff0000000000000000000000000000000000000000000000000000000060e085901b16815260048101929092526001600160a01b03166024820152604401602060405180830381865afa158015610f1c573d6000803e3d6000fd5b505050506040513d601f19601f82011682018060405250810190610f4091906126e5565b610f4d5780610cef611dfd565b60008060019054906101000a90046001600160a01b03166001600160a01b031663d09edf316040518163ffffffff1660e01b8152600401602060405180830381865afa158015610fa1573d6000803e3d6000fd5b505050506040513d601f19601f82011682018060405250810190610fc59190612700565b6040517fe1788154000000000000000000000000000000000000000000000000000000008152600481018790526001600160a01b0386811660248301529192509082169063e1788154906044015b600060405180830381600087803b15801561102d57600080fd5b505af1158015611041573d6000803e3d6000fd5b505050505050505050565b604080516080810182526001805482526002546020830152600380546000946111979493929084019161107e90612682565b80601f01602080910402602001604051908101604052809291908181526020018280546110aa90612682565b80156110f75780601f106110cc576101008083540402835291602001916110f7565b820191906000526020600020905b8154815290600101906020018083116110da57829003601f168201915b5050505050815260200160038201805461111090612682565b80601f016020809104026020016040519081016040528092919081815260200182805461113c90612682565b80156111895780601f1061115e57610100808354040283529160200191611189565b820191906000526020600020905b81548152906001019060200180831161116c57829003601f168201915b505050505081525050611ebc565b905090565b306111a5611dfd565b6001600160a01b0316146111dc577f6f6e6c7953656c66000000000000000000000000000000000000000000000000610cef611dfd565b600854600103611218576040517fd1e1974800000000000000000000000000000000000000000000000000000000815260040160405180910390fd5b60095460085411611255576040517f9ef62b1300000000000000000000000000000000000000000000000000000000815260040160405180910390fd5b6001600160a01b03811660009081526005602052604090205460ff16156112c7576001600160a01b038116600081815260056020526040808220805460ff1916905560088054600019019055517fa14a79af012d1756818f9bd59ccfc9ad185a71df86b9392d9059d9e6faf6d6449190a25b50565b306112d3611dfd565b6001600160a01b03161461130a577f6f6e6c7953656c66000000000000000000000000000000000000000000000000610cef611dfd565b600854811115611346576040517f9ef62b1300000000000000000000000000000000000000000000000000000000815260040160405180910390fd5b60095460408051918252602082018390527fb06a54caabe58475c86c2bf9df3f2f06dd1213e9e10659c293117fe4893b274b910160405180910390a1600955565b60005460ff16156113c4576040517f904875a100000000000000000000000000000000000000000000000000000000815260040160405180910390fd5b6000805460ff19166001179055806113db81611efc565b611411576040517feef043ae00000000000000000000000000000000000000000000000000000000815260040160405180910390fd5b505050565b60008180602001905181019061142c9190612736565b5092915050565b600660205260009081526040902080546001820180546001600160a01b03909216929161145f90612682565b80601f016020809104026020016040519081016040528092919081815260200182805461148b90612682565b80156114d85780601f106114ad576101008083540402835291602001916114d8565b820191906000526020600020905b8154815290600101906020018083116114bb57829003601f168201915b50505050509080600201549080600301549080600401549080600501549080600601549080600701549080600901549080600a0160009054906101000a900460ff169080600b01805461152a90612682565b80601f016020809104026020016040519081016040528092919081815260200182805461155690612682565b80156115a35780601f10611578576101008083540402835291602001916115a3565b820191906000526020600020905b81548152906001019060200180831161158657829003601f168201915b505050505090508b565b60008060019054906101000a90046001600160a01b03166001600160a01b031663d09edf316040518163ffffffff1660e01b8152600401602060405180830381865afa158015611601573d6000803e3d6000fd5b505050506040513d601f19601f820116820180604052508101906116259190612700565b90506000816001600160a01b03166355ff58d46040518163ffffffff1660e01b8152600401602060405180830381865afa158015611667573d6000803e3d6000fd5b505050506040513d601f19601f8201168201806040525081019061168b919061271d565b9050816001600160a01b03166391d14854826116a5611dfd565b6040517fffffffff0000000000000000000000000000000000000000000000000000000060e085901b16815260048101929092526001600160a01b03166024820152604401602060405180830381865afa158015611707573d6000803e3d6000fd5b505050506040513d601f19601f8201168201806040525081019061172b91906126e5565b6117385780610cef611dfd565b60008060019054906101000a90046001600160a01b03166001600160a01b031663d09edf316040518163ffffffff1660e01b8152600401602060405180830381865afa15801561178c573d6000803e3d6000fd5b505050506040513d601f19601f820116820180604052508101906117b09190612700565b6040517fba66f9fc000000000000000000000000000000000000000000000000000000008152600481018790526001600160a01b0386811660248301529192509082169063ba66f9fc90604401611013565b6000818152600660205260409020600754821061184b576040517fc278783700000000000000000000000000000000000000000000000000000000815260040160405180910390fd5b80600301544211611888576040517f7d2be21700000000000000000000000000000000000000000000000000000000815260040160405180910390fd5b8060040154816005015410156118ca576040517f4f472e9000000000000000000000000000000000000000000000000000000000815260040160405180910390fd5b600981015415611906576040517f885e8e6c00000000000000000000000000000000000000000000000000000000815260040160405180910390fd5b42600982015580546040516000916060916001600160a01b0390911690611931906001860190612835565b6000604051808303816000865af19150503d806000811461196e576040519150601f19603f3d011682016040523d82523d6000602084013e611973565b606091505b50600a8501805460ff19168315151790559092509050600b830161199782826128fb565b5060405184907f9db729f9d3173f6d1baae19a4cfc923a8f406547fba93c7b91ee23ce53fa2d8e90600090a250505050565b6000600560006119d7611dfd565b6001600160a01b0316815260208101919091526040016000205460ff16611a2a576040517f104f379000000000000000000000000000000000000000000000000000000000815260040160405180910390fd5b600754600081815260066020526040902080547fffffffffffffffffffffffff0000000000000000000000000000000000000000166001600160a01b03871617815560018101611a7b8587836129bb565b504260028201819055600a54611a9091612a7c565b6003820155600954600482015560405182907fdeedb4b4fa35b618333ae2eb4e60188b5271eda7ffd9ecb00f6fabae213f816d90600090a250600780546001019055949350505050565b30611ae3611dfd565b6001600160a01b031614611b1a577f6f6e6c7953656c66000000000000000000000000000000000000000000000000610cef611dfd565b806001600160a01b0381161580611b3957506001600160a01b03811630145b80611b5657506000546001600160a01b0382811661010090920416145b15611b8d576040517f7d1fd48f00000000000000000000000000000000000000000000000000000000815260040160405180910390fd5b6001600160a01b03821660009081526005602052604090205460ff16611c03576001600160a01b038216600081815260056020526040808220805460ff19166001908117909155600880549091019055517fa636f4a11e2d3ba7f89d042ecb0a6b886716e98cd49d8fd876ee0f73bced42b89190a25b5050565b60007fffffffff0000000000000000000000000000000000000000000000000000000082167fd883df120000000000000000000000000000000000000000000000000000000014806104c357507f01ffc9a7000000000000000000000000000000000000000000000000000000007fffffffff000000000000000000000000000000000000000000000000000000008316146104c3565b611ca6612009565b6001600160a01b038216611ce6576040517f7280679300000000000000000000000000000000000000000000000000000000815260040160405180910390fd5b600080547fffffffffffffffffffffff0000000000000000000000000000000000000000ff166101006001600160a01b03851602179055611d2681612072565b611d5c576040517f7511254100000000000000000000000000000000000000000000000000000000815260040160405180910390fd5b8051600190815560208201516002556040820151829190600390611d8090826128fb565b5060608201516003820190611d9590826128fb565b5050506060810151604051611daa9190612ab6565b604080519182900382208351602080860151918552840152916001600160a01b038516917feb175f148a71d29a5f7bf5439182fcd81e6ea9cfc8a11b54ab0f705fa98fa8ca910160405180910390a35050565b600080546040517f572b6c050000000000000000000000000000000000000000000000000000000081523360048201526101009091046001600160a01b03169063572b6c0590602401602060405180830381865afa158015611e63573d6000803e3d6000fd5b505050506040513d601f19601f82011682018060405250810190611e8791906126e5565b15611eb757507fffffffffffffffffffffffffffffffffffffffffffffffffffffffffffffffec36013560601c90565b503390565b6000816000015182604001518360600151604051602001611edf93929190612ad2565b604051602081830303815290604052805190602001209050919050565b6040517f9e9785750000000000000000000000000000000000000000000000000000000081526000903090639e97857590611f3b90859060040161234e565b602060405180830381865afa925050508015611f74575060408051601f3d908101601f19168201909252611f71918101906126e5565b60015b611f8057506000919050565b6040517f9e9785750000000000000000000000000000000000000000000000000000000081523090639e97857590611fbc90869060040161234e565b602060405180830381865afa158015611fd9573d6000803e3d6000fd5b505050506040513d601f19601f82011682018060405250810190611ffd91906126e5565b9392505050565b919050565b7ff0c57e16840df040f15088dc2f81fe391c3923bec73e23a9662efc9c229c6a005468010000000000000000900460ff16612070576040517fd7e6bcf800000000000000000000000000000000000000000000000000000000815260040160405180910390fd5b565b600081604001515160000361208957506000919050565b81606001515160000361209e57506000919050565b81511580156120af57506020820151155b156120bc57506000919050565b506001919050565b6000602082840312156120d657600080fd5b81357fffffffff0000000000000000000000000000000000000000000000000000000081168114611ffd57600080fd5b6001600160a01b03811681146112c757600080fd5b7f4e487b7100000000000000000000000000000000000000000000000000000000600052604160045260246000fd5b6040516080810167ffffffffffffffff8111828210171561216d5761216d61211b565b60405290565b604051601f8201601f1916810167ffffffffffffffff8111828210171561219c5761219c61211b565b604052919050565b600067ffffffffffffffff8211156121be576121be61211b565b50601f01601f191660200190565b600082601f8301126121dd57600080fd5b81356121f06121eb826121a4565b612173565b81815284602083860101111561220557600080fd5b816020850160208301376000918101602001919091529392505050565b60008060006060848603121561223757600080fd5b833561224281612106565b9250602084013567ffffffffffffffff8082111561225f57600080fd5b908501906080828803121561227357600080fd5b61227b61214a565b823581526020830135602082015260408301358281111561229b57600080fd5b6122a7898286016121cc565b6040830152506060830135828111156122bf57600080fd5b6122cb898286016121cc565b606083015250935060408601359150808211156122e757600080fd5b506122f4868287016121cc565b9150509250925092565b60005b83811015612319578181015183820152602001612301565b50506000910152565b6000815180845261233a8160208601602086016122fe565b601f01601f19169290920160200192915050565b602081526000611ffd6020830184612322565b6000806040838503121561237457600080fd5b82359150602083013560ff8116811461238c57600080fd5b809150509250929050565b6000602082840312156123a957600080fd5b8135611ffd81612106565b6000602082840312156123c657600080fd5b5035919050565b600080604083850312156123e057600080fd5b82359150602083013561238c81612106565b6000806040838503121561240557600080fd5b823561241081612106565b9150602083013567ffffffffffffffff81111561242c57600080fd5b612438858286016121cc565b9150509250929050565b60006020828403121561245457600080fd5b813567ffffffffffffffff81111561246b57600080fd5b612477848285016121cc565b949350505050565b60006101606001600160a01b038e1683528060208401526124a28184018e612322565b90508b60408401528a60608401528960808401528860a08401528760c08401528660e0840152856101008401528415156101208401528281036101408401526124eb8185612322565b9e9d5050505050505050505050505050565b60008060006040848603121561251257600080fd5b833561251d81612106565b9250602084013567ffffffffffffffff8082111561253a57600080fd5b818601915086601f83011261254e57600080fd5b81358181111561255d57600080fd5b87602082850101111561256f57600080fd5b6020830194508093505050509250925092565b600067ffffffffffffffff82111561259c5761259c61211b565b5060051b60200190565b6000806000606084860312156125bb57600080fd5b835167ffffffffffffffff8111156125d257600080fd5b8401601f810186136125e357600080fd5b805160206125f36121eb83612582565b82815260059290921b8301810191818101908984111561261257600080fd5b938201935b8385101561263957845161262a81612106565b82529382019390820190612617565b918801516040909801519199979850909695505050505050565b7f4e487b7100000000000000000000000000000000000000000000000000000000600052603260045260246000fd5b600181811c9082168061269657607f821691505b6020821081036126cf577f4e487b7100000000000000000000000000000000000000000000000000000000600052602260045260246000fd5b50919050565b8051801515811461200457600080fd5b6000602082840312156126f757600080fd5b611ffd826126d5565b60006020828403121561271257600080fd5b8151611ffd81612106565b60006020828403121561272f57600080fd5b5051919050565b600080604080848603121561274a57600080fd5b612753846126d5565b925060208085015167ffffffffffffffff8082111561277157600080fd5b818701915087601f83011261278557600080fd5b81516127936121eb82612582565b81815260059190911b8301840190848101908a8311156127b257600080fd5b8585015b83811015612823578051858111156127ce5760008081fd5b8601603f81018d136127e05760008081fd5b878101516127f06121eb826121a4565b8181528e8b8385010111156128055760008081fd5b612814828b83018d86016122fe565b855250509186019186016127b6565b50809750505050505050509250929050565b600080835461284381612682565b6001828116801561285b57600181146128705761289f565b60ff198416875282151583028701945061289f565b8760005260208060002060005b858110156128965781548a82015290840190820161287d565b50505082870194505b50929695505050505050565b601f821115611411576000816000526020600020601f850160051c810160208610156128d45750805b601f850160051c820191505b818110156128f3578281556001016128e0565b505050505050565b815167ffffffffffffffff8111156129155761291561211b565b612929816129238454612682565b846128ab565b602080601f83116001811461295e57600084156129465750858301515b600019600386901b1c1916600185901b1785556128f3565b600085815260208120601f198616915b8281101561298d5788860151825594840194600190910190840161296e565b50858210156129ab5787850151600019600388901b60f8161c191681555b5050505050600190811b01905550565b67ffffffffffffffff8311156129d3576129d361211b565b6129e7836129e18354612682565b836128ab565b6000601f841160018114612a1b5760008515612a035750838201355b600019600387901b1c1916600186901b178355612a75565b600083815260209020601f19861690835b82811015612a4c5786850135825560209485019460019092019101612a2c565b5086821015612a695760001960f88860031b161c19848701351681555b505060018560011b0183555b5050505050565b808201808211156104c3577f4e487b7100000000000000000000000000000000000000000000000000000000600052601160045260246000fd5b60008251612ac88184602087016122fe565b9190910192915050565b83815260008351612aea8160208501602088016122fe565b80830190508351612b028160208401602088016122fe565b016020019594505050505056fea26469706673582212200c4b74fa4d370c84c4c93af1c4e9e89402f927a631ce1e5f5f0b9a1deb88846564736f6c63430008170033",
    "linkReferences": {}
  },
  "methodIdentifiers": {
    "MAX_VOTING_DURATION()": "eefe85e4",
    "MIN_VOTING_DURATION()": "eaf1061c",
    "addVoter(address)": "f4ab9adf",
    "castVote(uint256,uint8)": "56781388",
    "createMotion(address,bytes)": "e6f5ed5d",
    "decoder(bytes)": "9e978575",
    "executeMotion(uint256)": "e5cf12d7",
    "getReceipt(uint256,address)": "e23a9a52",
    "grantModuleRole(bytes32,address)": "6c67e807",
    "identifier()": "7998a1c4",
    "init(address,(uint256,uint256,string,string),bytes)": "42dfe958",
    "init2(address,bytes)": "9bfdf766",
    "isTrustedForwarder(address)": "572b6c05",
    "isVoter(address)": "a7771ee3",
    "motionCount()": "2cb0c650",
    "motions(uint256)": "b21d36a8",
    "orchestrator()": "b74795d9",
    "removeVoter(address)": "86c1ff68",
    "revokeModuleRole(bytes32,address)": "bcb61920",
    "setThreshold(uint256)": "960bfe04",
    "setVotingDuration(uint256)": "5bcfadb5",
    "supportsInterface(bytes4)": "01ffc9a7",
    "threshold()": "42cde4e8",
    "title()": "4a79d50c",
    "url()": "5600f04f",
    "version()": "54fd4d50",
    "voteDuration()": "56364499",
    "voterCount()": "42169e48"
  },
  "id": 137
}