{
  "abi": [
    {
      "type": "function",
      "name": "buy",
      "inputs": [
        {
          "name": "_depositAmount",
          "type": "uint256",
          "internalType": "uint256"
        },
        {
          "name": "_minAmountOut",
          "type": "uint256",
          "internalType": "uint256"
        }
      ],
      "outputs": [],
      "stateMutability": "nonpayable"
    },
    {
      "type": "function",
      "name": "buyFee",
      "inputs": [],
      "outputs": [
        {
          "name": "",
          "type": "uint256",
          "internalType": "uint256"
        }
      ],
      "stateMutability": "view"
    },
    {
      "type": "function",
      "name": "buyFor",
      "inputs": [
        {
          "name": "_receiver",
          "type": "address",
          "internalType": "address"
        },
        {
          "name": "_depositAmount",
          "type": "uint256",
          "internalType": "uint256"
        },
        {
          "name": "_minAmountOut",
          "type": "uint256",
          "internalType": "uint256"
        }
      ],
      "outputs": [],
      "stateMutability": "nonpayable"
    },
    {
      "type": "function",
      "name": "buyIsOpen",
      "inputs": [],
      "outputs": [
        {
          "name": "",
          "type": "bool",
          "internalType": "bool"
        }
      ],
      "stateMutability": "view"
    },
    {
      "type": "function",
      "name": "calculatePurchaseReturn",
      "inputs": [
        {
          "name": "_depositAmount",
          "type": "uint256",
          "internalType": "uint256"
        }
      ],
      "outputs": [
        {
          "name": "mintAmount",
          "type": "uint256",
          "internalType": "uint256"
        }
      ],
      "stateMutability": "view"
    },
    {
      "type": "function",
      "name": "calculateSaleReturn",
      "inputs": [
        {
          "name": "_depositAmount",
          "type": "uint256",
          "internalType": "uint256"
        }
      ],
      "outputs": [
        {
          "name": "redeemAmount",
          "type": "uint256",
          "internalType": "uint256"
        }
      ],
      "stateMutability": "view"
    },
    {
      "type": "function",
      "name": "closeBuy",
      "inputs": [],
      "outputs": [],
      "stateMutability": "nonpayable"
    },
    {
      "type": "function",
      "name": "closeSell",
      "inputs": [],
      "outputs": [],
      "stateMutability": "nonpayable"
    },
    {
      "type": "function",
      "name": "formula",
      "inputs": [],
      "outputs": [
        {
          "name": "",
          "type": "address",
          "internalType": "contract IBancorFormula"
        }
      ],
      "stateMutability": "view"
    },
    {
      "type": "function",
      "name": "getIssuanceToken",
      "inputs": [],
      "outputs": [
        {
          "name": "",
          "type": "address",
          "internalType": "address"
        }
      ],
      "stateMutability": "view"
    },
    {
      "type": "function",
      "name": "getReserveRatioForBuying",
      "inputs": [],
      "outputs": [
        {
          "name": "",
          "type": "uint32",
          "internalType": "uint32"
        }
      ],
      "stateMutability": "view"
    },
    {
      "type": "function",
      "name": "getReserveRatioForSelling",
      "inputs": [],
      "outputs": [
        {
          "name": "",
          "type": "uint32",
          "internalType": "uint32"
        }
      ],
      "stateMutability": "view"
    },
    {
      "type": "function",
      "name": "getStaticPriceForBuying",
      "inputs": [],
      "outputs": [
        {
          "name": "",
          "type": "uint256",
          "internalType": "uint256"
        }
      ],
      "stateMutability": "view"
    },
    {
      "type": "function",
      "name": "getStaticPriceForSelling",
      "inputs": [],
      "outputs": [
        {
          "name": "",
          "type": "uint256",
          "internalType": "uint256"
        }
      ],
      "stateMutability": "view"
    },
    {
      "type": "function",
      "name": "getVirtualCollateralSupply",
      "inputs": [],
      "outputs": [
        {
          "name": "",
          "type": "uint256",
          "internalType": "uint256"
        }
      ],
      "stateMutability": "view"
    },
    {
      "type": "function",
      "name": "getVirtualIssuanceSupply",
      "inputs": [],
      "outputs": [
        {
          "name": "",
          "type": "uint256",
          "internalType": "uint256"
        }
      ],
      "stateMutability": "view"
    },
    {
      "type": "function",
      "name": "grantModuleRole",
      "inputs": [
        {
          "name": "role",
          "type": "bytes32",
          "internalType": "bytes32"
        },
        {
          "name": "target",
          "type": "address",
          "internalType": "address"
        }
      ],
      "outputs": [],
      "stateMutability": "nonpayable"
    },
    {
      "type": "function",
      "name": "grantModuleRoleBatched",
      "inputs": [
        {
          "name": "role",
          "type": "bytes32",
          "internalType": "bytes32"
        },
        {
          "name": "targets",
          "type": "address[]",
          "internalType": "address[]"
        }
      ],
      "outputs": [],
      "stateMutability": "nonpayable"
    },
    {
      "type": "function",
      "name": "identifier",
      "inputs": [],
      "outputs": [
        {
          "name": "",
          "type": "bytes32",
          "internalType": "bytes32"
        }
      ],
      "stateMutability": "view"
    },
    {
      "type": "function",
      "name": "init",
      "inputs": [
        {
          "name": "orchestrator_",
          "type": "address",
          "internalType": "contract IOrchestrator_v1"
        },
        {
          "name": "metadata",
          "type": "tuple",
          "internalType": "struct IModule_v1.Metadata",
          "components": [
            {
              "name": "majorVersion",
              "type": "uint256",
              "internalType": "uint256"
            },
            {
              "name": "minorVersion",
              "type": "uint256",
              "internalType": "uint256"
            },
            {
              "name": "url",
              "type": "string",
              "internalType": "string"
            },
            {
              "name": "title",
              "type": "string",
              "internalType": "string"
            }
          ]
        },
        {
          "name": "configData",
          "type": "bytes",
          "internalType": "bytes"
        }
      ],
      "outputs": [],
      "stateMutability": "nonpayable"
    },
    {
      "type": "function",
      "name": "isTrustedForwarder",
      "inputs": [
        {
          "name": "forwarder",
          "type": "address",
          "internalType": "address"
        }
      ],
      "outputs": [
        {
          "name": "",
          "type": "bool",
          "internalType": "bool"
        }
      ],
      "stateMutability": "view"
    },
    {
      "type": "function",
      "name": "mintIssuanceTokenTo",
      "inputs": [
        {
          "name": "_receiver",
          "type": "address",
          "internalType": "address"
        },
        {
          "name": "_amount",
          "type": "uint256",
          "internalType": "uint256"
        }
      ],
      "outputs": [],
      "stateMutability": "nonpayable"
    },
    {
      "type": "function",
      "name": "openBuy",
      "inputs": [],
      "outputs": [],
      "stateMutability": "nonpayable"
    },
    {
      "type": "function",
      "name": "openSell",
      "inputs": [],
      "outputs": [],
      "stateMutability": "nonpayable"
    },
    {
      "type": "function",
      "name": "orchestrator",
      "inputs": [],
      "outputs": [
        {
          "name": "",
          "type": "address",
          "internalType": "contract IOrchestrator_v1"
        }
      ],
      "stateMutability": "view"
    },
    {
      "type": "function",
      "name": "projectCollateralFeeCollected",
      "inputs": [],
      "outputs": [
        {
          "name": "",
          "type": "uint256",
          "internalType": "uint256"
        }
      ],
      "stateMutability": "view"
    },
    {
      "type": "function",
      "name": "revokeModuleRole",
      "inputs": [
        {
          "name": "role",
          "type": "bytes32",
          "internalType": "bytes32"
        },
        {
          "name": "target",
          "type": "address",
          "internalType": "address"
        }
      ],
      "outputs": [],
      "stateMutability": "nonpayable"
    },
    {
      "type": "function",
      "name": "revokeModuleRoleBatched",
      "inputs": [
        {
          "name": "role",
          "type": "bytes32",
          "internalType": "bytes32"
        },
        {
          "name": "targets",
          "type": "address[]",
          "internalType": "address[]"
        }
      ],
      "outputs": [],
      "stateMutability": "nonpayable"
    },
    {
      "type": "function",
      "name": "sell",
      "inputs": [
        {
          "name": "_depositAmount",
          "type": "uint256",
          "internalType": "uint256"
        },
        {
          "name": "_minAmountOut",
          "type": "uint256",
          "internalType": "uint256"
        }
      ],
      "outputs": [],
      "stateMutability": "nonpayable"
    },
    {
      "type": "function",
      "name": "sellFee",
      "inputs": [],
      "outputs": [
        {
          "name": "",
          "type": "uint256",
          "internalType": "uint256"
        }
      ],
      "stateMutability": "view"
    },
    {
      "type": "function",
      "name": "sellFor",
      "inputs": [
        {
          "name": "_receiver",
          "type": "address",
          "internalType": "address"
        },
        {
          "name": "_depositAmount",
          "type": "uint256",
          "internalType": "uint256"
        },
        {
          "name": "_minAmountOut",
          "type": "uint256",
          "internalType": "uint256"
        }
      ],
      "outputs": [],
      "stateMutability": "nonpayable"
    },
    {
      "type": "function",
      "name": "sellIsOpen",
      "inputs": [],
      "outputs": [
        {
          "name": "",
          "type": "bool",
          "internalType": "bool"
        }
      ],
      "stateMutability": "view"
    },
    {
      "type": "function",
      "name": "setBuyFee",
      "inputs": [
        {
          "name": "_fee",
          "type": "uint256",
          "internalType": "uint256"
        }
      ],
      "outputs": [],
      "stateMutability": "nonpayable"
    },
    {
      "type": "function",
      "name": "setReserveRatioForBuying",
      "inputs": [
        {
          "name": "_reserveRatio",
          "type": "uint32",
          "internalType": "uint32"
        }
      ],
      "outputs": [],
      "stateMutability": "nonpayable"
    },
    {
      "type": "function",
      "name": "setReserveRatioForSelling",
      "inputs": [
        {
          "name": "_reserveRatio",
          "type": "uint32",
          "internalType": "uint32"
        }
      ],
      "outputs": [],
      "stateMutability": "nonpayable"
    },
    {
      "type": "function",
      "name": "setSellFee",
      "inputs": [
        {
          "name": "_fee",
          "type": "uint256",
          "internalType": "uint256"
        }
      ],
      "outputs": [],
      "stateMutability": "nonpayable"
    },
    {
      "type": "function",
      "name": "setVirtualCollateralSupply",
      "inputs": [
        {
          "name": "_virtualSupply",
          "type": "uint256",
          "internalType": "uint256"
        }
      ],
      "outputs": [],
      "stateMutability": "nonpayable"
    },
    {
      "type": "function",
      "name": "setVirtualIssuanceSupply",
      "inputs": [
        {
          "name": "_virtualSupply",
          "type": "uint256",
          "internalType": "uint256"
        }
      ],
      "outputs": [],
      "stateMutability": "nonpayable"
    },
    {
      "type": "function",
      "name": "supportsInterface",
      "inputs": [
        {
          "name": "interfaceId",
          "type": "bytes4",
          "internalType": "bytes4"
        }
      ],
      "outputs": [
        {
          "name": "",
          "type": "bool",
          "internalType": "bool"
        }
      ],
      "stateMutability": "view"
    },
    {
      "type": "function",
      "name": "title",
      "inputs": [],
      "outputs": [
        {
          "name": "",
          "type": "string",
          "internalType": "string"
        }
      ],
      "stateMutability": "view"
    },
    {
      "type": "function",
      "name": "token",
      "inputs": [],
      "outputs": [
        {
          "name": "",
          "type": "address",
          "internalType": "contract IERC20"
        }
      ],
      "stateMutability": "view"
    },
    {
      "type": "function",
      "name": "transferOrchestratorToken",
      "inputs": [
        {
          "name": "to",
          "type": "address",
          "internalType": "address"
        },
        {
          "name": "amount",
          "type": "uint256",
          "internalType": "uint256"
        }
      ],
      "outputs": [],
      "stateMutability": "nonpayable"
    },
    {
      "type": "function",
      "name": "trustedForwarder",
      "inputs": [],
      "outputs": [
        {
          "name": "",
          "type": "address",
          "internalType": "address"
        }
      ],
      "stateMutability": "view"
    },
    {
      "type": "function",
      "name": "url",
      "inputs": [],
      "outputs": [
        {
          "name": "",
          "type": "string",
          "internalType": "string"
        }
      ],
      "stateMutability": "view"
    },
    {
      "type": "function",
      "name": "version",
      "inputs": [],
      "outputs": [
        {
          "name": "",
          "type": "uint256",
          "internalType": "uint256"
        },
        {
          "name": "",
          "type": "uint256",
          "internalType": "uint256"
        }
      ],
      "stateMutability": "view"
    },
    {
      "type": "function",
      "name": "withdrawProjectCollateralFee",
      "inputs": [
        {
          "name": "_receiver",
          "type": "address",
          "internalType": "address"
        },
        {
          "name": "_amount",
          "type": "uint256",
          "internalType": "uint256"
        }
      ],
      "outputs": [],
      "stateMutability": "nonpayable"
    },
    {
      "type": "event",
      "name": "BuyFeeUpdated",
      "inputs": [
        {
          "name": "newBuyFee",
          "type": "uint256",
          "indexed": false,
          "internalType": "uint256"
        },
        {
          "name": "oldBuyFee",
          "type": "uint256",
          "indexed": false,
          "internalType": "uint256"
        }
      ],
      "anonymous": false
    },
    {
      "type": "event",
      "name": "BuyReserveRatioSet",
      "inputs": [
        {
          "name": "newBuyReserveRatio",
          "type": "uint32",
          "indexed": true,
          "internalType": "uint32"
        },
        {
          "name": "oldBuyReserveRatio",
          "type": "uint32",
          "indexed": true,
          "internalType": "uint32"
        }
      ],
      "anonymous": false
    },
    {
      "type": "event",
      "name": "BuyingDisabled",
      "inputs": [],
      "anonymous": false
    },
    {
      "type": "event",
      "name": "BuyingEnabled",
      "inputs": [],
      "anonymous": false
    },
    {
      "type": "event",
      "name": "Deposit",
      "inputs": [
        {
          "name": "_from",
          "type": "address",
          "indexed": true,
          "internalType": "address"
        },
        {
          "name": "_for",
          "type": "address",
          "indexed": true,
          "internalType": "address"
        },
        {
          "name": "_amount",
          "type": "uint256",
          "indexed": false,
          "internalType": "uint256"
        }
      ],
      "anonymous": false
    },
    {
      "type": "event",
      "name": "Initialized",
      "inputs": [
        {
          "name": "version",
          "type": "uint64",
          "indexed": false,
          "internalType": "uint64"
        }
      ],
      "anonymous": false
    },
    {
      "type": "event",
      "name": "IssuanceTokenUpdated",
      "inputs": [
        {
          "name": "oldToken",
          "type": "address",
          "indexed": true,
          "internalType": "address"
        },
        {
          "name": "issuanceToken",
          "type": "address",
          "indexed": true,
          "internalType": "address"
        }
      ],
      "anonymous": false
    },
    {
      "type": "event",
      "name": "ModuleInitialized",
      "inputs": [
        {
          "name": "parentOrchestrator",
          "type": "address",
          "indexed": true,
          "internalType": "address"
        },
        {
          "name": "moduleTitle",
          "type": "string",
          "indexed": true,
          "internalType": "string"
        },
        {
          "name": "majorVersion",
          "type": "uint256",
          "indexed": false,
          "internalType": "uint256"
        },
        {
          "name": "minorVersion",
          "type": "uint256",
          "indexed": false,
          "internalType": "uint256"
        }
      ],
      "anonymous": false
    },
    {
      "type": "event",
      "name": "ProjectCollateralFeeWithdrawn",
      "inputs": [
        {
          "name": "receiver",
          "type": "address",
          "indexed": false,
          "internalType": "address"
        },
        {
          "name": "amount",
          "type": "uint256",
          "indexed": false,
          "internalType": "uint256"
        }
      ],
      "anonymous": false
    },
    {
      "type": "event",
      "name": "ProtocolFeeMinted",
      "inputs": [
        {
          "name": "token",
          "type": "address",
          "indexed": true,
          "internalType": "address"
        },
        {
          "name": "treasury",
          "type": "address",
          "indexed": true,
          "internalType": "address"
        },
        {
          "name": "feeAmount",
          "type": "uint256",
          "indexed": false,
          "internalType": "uint256"
        }
      ],
      "anonymous": false
    },
    {
      "type": "event",
      "name": "ProtocolFeeTransferred",
      "inputs": [
        {
          "name": "token",
          "type": "address",
          "indexed": true,
          "internalType": "address"
        },
        {
          "name": "treasury",
          "type": "address",
          "indexed": true,
          "internalType": "address"
        },
        {
          "name": "feeAmount",
          "type": "uint256",
          "indexed": false,
          "internalType": "uint256"
        }
      ],
      "anonymous": false
    },
    {
      "type": "event",
      "name": "SellFeeUpdated",
      "inputs": [
        {
          "name": "newSellFee",
          "type": "uint256",
          "indexed": false,
          "internalType": "uint256"
        },
        {
          "name": "oldSellFee",
          "type": "uint256",
          "indexed": false,
          "internalType": "uint256"
        }
      ],
      "anonymous": false
    },
    {
      "type": "event",
      "name": "SellReserveRatioSet",
      "inputs": [
        {
          "name": "newSellReserveRatio",
          "type": "uint32",
          "indexed": true,
          "internalType": "uint32"
        },
        {
          "name": "oldSellReserveRatio",
          "type": "uint32",
          "indexed": true,
          "internalType": "uint32"
        }
      ],
      "anonymous": false
    },
    {
      "type": "event",
      "name": "SellingDisabled",
      "inputs": [],
      "anonymous": false
    },
    {
      "type": "event",
      "name": "SellingEnabled",
      "inputs": [],
      "anonymous": false
    },
    {
      "type": "event",
      "name": "TokenDecimalsUpdated",
      "inputs": [
        {
          "name": "oldDecimals",
          "type": "uint8",
          "indexed": true,
          "internalType": "uint8"
        },
        {
          "name": "newDecimals",
          "type": "uint8",
          "indexed": true,
          "internalType": "uint8"
        }
      ],
      "anonymous": false
    },
    {
      "type": "event",
      "name": "TokensBought",
      "inputs": [
        {
          "name": "receiver",
          "type": "address",
          "indexed": true,
          "internalType": "address"
        },
        {
          "name": "depositAmount",
          "type": "uint256",
          "indexed": false,
          "internalType": "uint256"
        },
        {
          "name": "receivedAmount",
          "type": "uint256",
          "indexed": false,
          "internalType": "uint256"
        },
        {
          "name": "buyer",
          "type": "address",
          "indexed": false,
          "internalType": "address"
        }
      ],
      "anonymous": false
    },
    {
      "type": "event",
      "name": "TokensSold",
      "inputs": [
        {
          "name": "receiver",
          "type": "address",
          "indexed": true,
          "internalType": "address"
        },
        {
          "name": "depositAmount",
          "type": "uint256",
          "indexed": false,
          "internalType": "uint256"
        },
        {
          "name": "receivedAmount",
          "type": "uint256",
          "indexed": false,
          "internalType": "uint256"
        },
        {
          "name": "seller",
          "type": "address",
          "indexed": false,
          "internalType": "address"
        }
      ],
      "anonymous": false
    },
    {
      "type": "event",
      "name": "TransferOrchestratorToken",
      "inputs": [
        {
          "name": "_to",
          "type": "address",
          "indexed": true,
          "internalType": "address"
        },
        {
          "name": "_amount",
          "type": "uint256",
          "indexed": false,
          "internalType": "uint256"
        }
      ],
      "anonymous": false
    },
    {
      "type": "event",
      "name": "VirtualCollateralAmountAdded",
      "inputs": [
        {
          "name": "amountAdded",
          "type": "uint256",
          "indexed": false,
          "internalType": "uint256"
        },
        {
          "name": "newSupply",
          "type": "uint256",
          "indexed": false,
          "internalType": "uint256"
        }
      ],
      "anonymous": false
    },
    {
      "type": "event",
      "name": "VirtualCollateralAmountSubtracted",
      "inputs": [
        {
          "name": "amountSubtracted",
          "type": "uint256",
          "indexed": false,
          "internalType": "uint256"
        },
        {
          "name": "newSupply",
          "type": "uint256",
          "indexed": false,
          "internalType": "uint256"
        }
      ],
      "anonymous": false
    },
    {
      "type": "event",
      "name": "VirtualCollateralSupplySet",
      "inputs": [
        {
          "name": "newSupply",
          "type": "uint256",
          "indexed": false,
          "internalType": "uint256"
        },
        {
          "name": "oldSupply",
          "type": "uint256",
          "indexed": false,
          "internalType": "uint256"
        }
      ],
      "anonymous": false
    },
    {
      "type": "event",
      "name": "VirtualIssuanceAmountAdded",
      "inputs": [
        {
          "name": "amountAdded",
          "type": "uint256",
          "indexed": false,
          "internalType": "uint256"
        },
        {
          "name": "newSupply",
          "type": "uint256",
          "indexed": false,
          "internalType": "uint256"
        }
      ],
      "anonymous": false
    },
    {
      "type": "event",
      "name": "VirtualIssuanceAmountSubtracted",
      "inputs": [
        {
          "name": "amountSubtracted",
          "type": "uint256",
          "indexed": false,
          "internalType": "uint256"
        },
        {
          "name": "newSupply",
          "type": "uint256",
          "indexed": false,
          "internalType": "uint256"
        }
      ],
      "anonymous": false
    },
    {
      "type": "event",
      "name": "VirtualIssuanceSupplySet",
      "inputs": [
        {
          "name": "newSupply",
          "type": "uint256",
          "indexed": false,
          "internalType": "uint256"
        },
        {
          "name": "oldSupply",
          "type": "uint256",
          "indexed": false,
          "internalType": "uint256"
        }
      ],
      "anonymous": false
    },
    {
      "type": "event",
      "name": "Withdrawal",
      "inputs": [
        {
          "name": "_from",
          "type": "address",
          "indexed": true,
          "internalType": "address"
        },
        {
          "name": "_for",
          "type": "address",
          "indexed": true,
          "internalType": "address"
        },
        {
          "name": "_amount",
          "type": "uint256",
          "indexed": false,
          "internalType": "uint256"
        }
      ],
      "anonymous": false
    },
    {
      "type": "error",
      "name": "AddressEmptyCode",
      "inputs": [
        {
          "name": "target",
          "type": "address",
          "internalType": "address"
        }
      ]
    },
    {
      "type": "error",
      "name": "AddressInsufficientBalance",
      "inputs": [
        {
          "name": "account",
          "type": "address",
          "internalType": "address"
        }
      ]
    },
    {
      "type": "error",
      "name": "FailedInnerCall",
      "inputs": []
    },
    {
      "type": "error",
      "name": "InvalidInitialization",
      "inputs": []
    },
    {
      "type": "error",
      "name": "Module_OrchestratorCallbackFailed",
      "inputs": [
        {
          "name": "funcSig",
          "type": "string",
          "internalType": "string"
        }
      ]
    },
    {
      "type": "error",
      "name": "Module__BondingCurveBase__BuyingFunctionaltiesClosed",
      "inputs": []
    },
    {
      "type": "error",
      "name": "Module__BondingCurveBase__FeeAmountToHigh",
      "inputs": []
    },
    {
      "type": "error",
      "name": "Module__BondingCurveBase__InsufficientOutputAmount",
      "inputs": []
    },
    {
      "type": "error",
      "name": "Module__BondingCurveBase__InvalidDepositAmount",
      "inputs": []
    },
    {
      "type": "error",
      "name": "Module__BondingCurveBase__InvalidFeePercentage",
      "inputs": []
    },
    {
      "type": "error",
      "name": "Module__BondingCurveBase__InvalidRecipient",
      "inputs": []
    },
    {
      "type": "error",
      "name": "Module__BondingCurveBase__InvalidWithdrawAmount",
      "inputs": []
    },
    {
      "type": "error",
      "name": "Module__CallerNotAuthorized",
      "inputs": [
        {
          "name": "role",
          "type": "bytes32",
          "internalType": "bytes32"
        },
        {
          "name": "caller",
          "type": "address",
          "internalType": "address"
        }
      ]
    },
    {
      "type": "error",
      "name": "Module__FM_BC_Bancor_Redeeming_VirtualSupply__InvalidDepositAmount",
      "inputs": []
    },
    {
      "type": "error",
      "name": "Module__FM_BC_Bancor_Redeeming_VirtualSupply__InvalidReserveRatio",
      "inputs": []
    },
    {
      "type": "error",
      "name": "Module__FM_BC_Bancor_Redeeming_VirtualSupply__InvalidTokenDecimal",
      "inputs": []
    },
    {
      "type": "error",
      "name": "Module__FundingManager__CannotSelfDeposit",
      "inputs": []
    },
    {
      "type": "error",
      "name": "Module__FundingManager__DepositCapReached",
      "inputs": []
    },
    {
      "type": "error",
      "name": "Module__FundingManager__InvalidAddress",
      "inputs": []
    },
    {
      "type": "error",
      "name": "Module__InvalidMetadata",
      "inputs": []
    },
    {
      "type": "error",
      "name": "Module__InvalidOrchestratorAddress",
      "inputs": []
    },
    {
      "type": "error",
      "name": "Module__OnlyCallableByOrchestrator",
      "inputs": []
    },
    {
      "type": "error",
      "name": "Module__RedeemingBondingCurveBase__InsufficientCollateralForRedemption",
      "inputs": []
    },
    {
      "type": "error",
      "name": "Module__RedeemingBondingCurveBase__SellingFunctionaltiesClosed",
      "inputs": []
    },
    {
      "type": "error",
      "name": "Module__VirtualCollateralSupplyBase__AddResultsInOverflow",
      "inputs": []
    },
    {
      "type": "error",
      "name": "Module__VirtualCollateralSupplyBase__SubtractResultsInUnderflow",
      "inputs": []
    },
    {
      "type": "error",
      "name": "Module__VirtualCollateralSupplyBase__VirtualSupplyCannotBeZero",
      "inputs": []
    },
    {
      "type": "error",
      "name": "Module__VirtualIssuanceSupplyBase__AddResultsInOverflow",
      "inputs": []
    },
    {
      "type": "error",
      "name": "Module__VirtualIssuanceSupplyBase__SubtractResultsInUnderflow",
      "inputs": []
    },
    {
      "type": "error",
      "name": "Module__VirtualIssuanceSupplyBase__VirtualSupplyCannotBeZero",
      "inputs": []
    },
    {
      "type": "error",
      "name": "NotInitializing",
      "inputs": []
    },
    {
      "type": "error",
      "name": "SafeERC20FailedOperation",
      "inputs": [
        {
          "name": "token",
          "type": "address",
          "internalType": "address"
        }
      ]
    }
  ],
  "bytecode": {
    "object": "0x60a06040523480156200001157600080fd5b5060006080526200002162000027565b620000db565b7ff0c57e16840df040f15088dc2f81fe391c3923bec73e23a9662efc9c229c6a00805468010000000000000000900460ff1615620000785760405163f92ee8a960e01b815260040160405180910390fd5b80546001600160401b0390811614620000d85780546001600160401b0319166001600160401b0390811782556040519081527fc7f505b2f371ae2175ee4913f4499e1f2633a7b5936321eed1cdaeb6115181d29060200160405180910390a15b50565b6080516156ad620000f4600039600050506156ad6000f3fe60806040523480156200001157600080fd5b5060043610620003275760003560e01c80637da0a87711620001ac578063bf75292b1162000101578063d6febde811620000a3578063f1eae64a116200007a578063f1eae64a14620006a6578063fa03330c14620006b0578063fc0c546a14620006ba57600080fd5b8063d6febde81462000661578063d79875eb1462000678578063ecd31b55146200068f57600080fd5b8063cbda8f8211620000d8578063cbda8f821462000644578063d1c6022f146200064e578063d4a67930146200065757600080fd5b8063bf75292b146200061c578063c6829ba21462000625578063c6ab5cdc146200063a57600080fd5b8063a8a539d9116200016b578063ba83c9701162000142578063ba83c97014620005f1578063bcb6192014620005fb578063bd098404146200061257600080fd5b8063a8a539d914620005b1578063b74795d914620005c8578063b88a2cf614620005da57600080fd5b80637da0a87714620005545780638ac631e6146200055e5780638b4cee0814620005755780639093b01f146200058c578063935b7dbd146200059a57600080fd5b80634f893bba11620002805780636115db1c11620002225780636e42337911620001f95780636e423379146200051c578063759cc4b514620005335780637998a1c4146200054a57600080fd5b80636115db1c14620004c657806369fcd4ac14620004ee5780636c67e807146200050557600080fd5b80635600f04f11620002575780635600f04f146200048e578063572b6c0514620004985780635f6108ff14620004af57600080fd5b80634f893bba146200044457806351cac5de146200045b57806354fd4d50146200047257600080fd5b80632b14ca5611620002ea5780634706240211620002c157806347062402146200040c5780634a79d50c14620004165780634b75f54f146200042f57600080fd5b80632b14ca5614620003c5578063322d210014620003de57806342dfe95814620003f557600080fd5b806301ffc9a7146200032c5780630cc835a314620003585780631ca3bc4f146200037157806324e302701462000397578063272bbd4414620003ae575b600080fd5b620003436200033d36600462003bda565b620006cd565b60405190151581526020015b60405180910390f35b6200036f6200036936600462003c06565b62000716565b005b609d546001600160a01b03165b6040516001600160a01b0390911681526020016200034f565b6200036f620003a836600462003c20565b6200080b565b6200036f620003bf36600462003c20565b62000ab0565b620003cf60d35481565b6040519081526020016200034f565b620003cf620003ef36600462003c06565b62000ca8565b6200036f6200040636600462003dde565b62000d56565b620003cf609e5481565b62000420620010de565b6040516200034f919062003f1e565b610106546200037e906001600160a01b031681565b6200036f6200045536600462003f33565b6200117b565b6200036f6200046c36600462003c06565b6200134f565b606754606854604080519283526020830191909152016200034f565b62000420620013a7565b62000343620004a936600462003f62565b620013bb565b6200036f620004c036600462003f82565b6200142d565b61010654600160c01b900463ffffffff165b60405163ffffffff90911681526020016200034f565b620003cf620004ff36600462003c06565b62001481565b6200036f6200051636600462003fba565b62001527565b6200036f6200052d36600462003c06565b62001751565b6200036f6200054436600462003f33565b620017a9565b620003cf62001855565b6200037e620019b7565b6200036f6200056f36600462004000565b62001a28565b6200036f6200058636600462003c06565b62001a80565b60d254620003439060ff1681565b6200036f620005ab36600462003f82565b62001ad8565b61010654600160a01b900463ffffffff16620004d8565b6066546001600160a01b03166200037e565b6200036f620005eb36600462004000565b62001b23565b6200036f62001b7b565b6200036f6200060c36600462003fba565b62001bfd565b620003cf62001dfc565b603354620003cf565b609d546200034390600160a01b900460ff1681565b6200036f62001e51565b620003cf609f5481565b600054620003cf565b6200036f62001ed6565b6200036f6200067236600462004020565b62001f61565b6200036f6200068936600462004020565b62001f85565b6200036f620006a036600462003f33565b62001fa5565b6200036f6200200f565b620003cf62002094565b610107546001600160a01b03166200037e565b60006001600160e01b03198216622e5fc960e71b1480620006fe57506001600160e01b0319821663899090df60e01b145b806200071057506200071082620020bf565b92915050565b6066546040805163d09edf3160e01b81529051620007fd926001600160a01b03169163d09edf319160048083019260209291908290030181865afa15801562000763573d6000803e3d6000fd5b505050506040513d601f19601f8201168201806040525081019062000789919062004043565b6001600160a01b031663b3ecf2366040518163ffffffff1660e01b8152600401602060405180830381865afa158015620007c7573d6000803e3d6000fd5b505050506040513d601f19601f82011682018060405250810190620007ed919062004063565b620007f7620020e7565b62002143565b620008088162002268565b50565b826000606660009054906101000a90046001600160a01b03166001600160a01b031663d09edf316040518163ffffffff1660e01b8152600401602060405180830381865afa15801562000862573d6000803e3d6000fd5b505050506040513d601f19601f8201168201806040525081019062000888919062004043565b60405163fdd5205f60e01b8152306004820152602481018490526001600160a01b03919091169063fdd5205f906044016020604051808303816000875af1158015620008d8573d6000803e3d6000fd5b505050506040513d601f19601f82011682018060405250810190620008fe919062004063565b9050620009ca606660009054906101000a90046001600160a01b03166001600160a01b031663d09edf316040518163ffffffff1660e01b8152600401602060405180830381865afa15801562000958573d6000803e3d6000fd5b505050506040513d601f19601f820116820180604052508101906200097e919062004043565b6001600160a01b031663248a9ca3836040518263ffffffff1660e01b8152600401620009ac91815260200190565b602060405180830381865afa158015620007c7573d6000803e3d6000fd5b606660009054906101000a90046001600160a01b03166001600160a01b031663d09edf316040518163ffffffff1660e01b8152600401602060405180830381865afa15801562000a1e573d6000803e3d6000fd5b505050506040513d601f19601f8201168201806040525081019062000a44919062004043565b6001600160a01b0316637d540a648686866040518463ffffffff1660e01b815260040162000a75939291906200407d565b600060405180830381600087803b15801562000a9057600080fd5b505af115801562000aa5573d6000803e3d6000fd5b505050505050505050565b826000606660009054906101000a90046001600160a01b03166001600160a01b031663d09edf316040518163ffffffff1660e01b8152600401602060405180830381865afa15801562000b07573d6000803e3d6000fd5b505050506040513d601f19601f8201168201806040525081019062000b2d919062004043565b60405163fdd5205f60e01b8152306004820152602481018490526001600160a01b03919091169063fdd5205f906044016020604051808303816000875af115801562000b7d573d6000803e3d6000fd5b505050506040513d601f19601f8201168201806040525081019062000ba3919062004063565b905062000bfd606660009054906101000a90046001600160a01b03166001600160a01b031663d09edf316040518163ffffffff1660e01b8152600401602060405180830381865afa15801562000958573d6000803e3d6000fd5b606660009054906101000a90046001600160a01b03166001600160a01b031663d09edf316040518163ffffffff1660e01b8152600401602060405180830381865afa15801562000c51573d6000803e3d6000fd5b505050506040513d601f19601f8201168201806040525081019062000c77919062004043565b6001600160a01b031663648154538686866040518463ffffffff1660e01b815260040162000a75939291906200407d565b600062000cb582620022b5565b60408051808201909152601e81527f5f6275794f7264657228616464726573732c2075696e742c2075696e7429000060209091015260008062000d187febc8b0204dadb4d6005a49547cbbe02c8e0cb088aaed83b705285a22a0c2e5f2620022d7565b93509350505062000d2d8483609e5462002304565b5090945062000d4b905062000d428562002395565b82600062002304565b509095945050505050565b7ff0c57e16840df040f15088dc2f81fe391c3923bec73e23a9662efc9c229c6a00805468010000000000000000810460ff16159067ffffffffffffffff1660008115801562000da25750825b905060008267ffffffffffffffff16600114801562000dc05750303b155b90508115801562000dcf575080155b1562000dee5760405163f92ee8a960e01b815260040160405180910390fd5b845467ffffffffffffffff19166001178555831562000e2357845468ff00000000000000001916680100000000000000001785555b62000e2f8888620024bc565b62000e5e60405180608001604052806060815260200160608152602001600060ff168152602001600081525090565b6040805161012081018252600080825260208201819052918101829052606081018290526080810182905260a0810182905260c0810182905260e08101829052610100810182905260008980602001905181019062000ebe919062004218565b8094508195508296508397505050505060008460000151856020015186604001518760600151873060405162000ef49062003bcc565b62000f05969594939291906200430e565b604051809103906000f08015801562000f22573d6000803e3d6000fd5b5061010780546001600160a01b0319166001600160a01b0385169081179091556040805163313ce56760e01b81529051929350909163313ce567916004808201926020929091908290030181865afa15801562000f83573d6000803e3d6000fd5b505050506040513d601f19601f8201168201806040525081019062000fa9919062004369565b61010760146101000a81548160ff021916908360ff16021790555062000fcf81620025da565b825161010680546001600160a01b0319166001600160a01b0390921691909117905560e08301516200100190620026b2565b6200101183610100015162002715565b62001020836020015162002779565b6200102f8360400151620027eb565b6200103e836060015162002268565b6200104d83608001516200285d565b505060a0810151609d805460ff60a01b1916600160a01b9215159290920291909117905560c0015160d2805460ff191691151591909117905550508315620010d457845468ff000000000000000019168555604051600181527fc7f505b2f371ae2175ee4913f4499e1f2633a7b5936321eed1cdaeb6115181d29060200160405180910390a15b5050505050505050565b606060676003018054620010f29062004387565b80601f0160208091040260200160405190810160405280929190818152602001828054620011209062004387565b8015620011715780601f10620011455761010080835404028352916020019162001171565b820191906000526020600020905b8154815290600101906020018083116200115357829003601f168201915b5050505050905090565b816200118781620028aa565b6066546040805163d09edf3160e01b81529051620011d4926001600160a01b03169163d09edf319160048083019260209291908290030181865afa15801562000763573d6000803e3d6000fd5b609f54821115620011f8576040516347d1bcf560e01b815260040160405180910390fd5b81609f60008282546200120c9190620043d9565b92505081905550620013088383606660009054906101000a90046001600160a01b03166001600160a01b03166304baed9e6040518163ffffffff1660e01b8152600401602060405180830381865afa1580156200126d573d6000803e3d6000fd5b505050506040513d601f19601f8201168201806040525081019062001293919062004043565b6001600160a01b031663fc0c546a6040518163ffffffff1660e01b8152600401602060405180830381865afa158015620012d1573d6000803e3d6000fd5b505050506040513d601f19601f82011682018060405250810190620012f7919062004043565b6001600160a01b03169190620028e8565b604080516001600160a01b0385168152602081018490527f9e9a785b42ae3ce89ea11b526c656a7cacbd520b83908336dc8c9f4e9be9135f910160405180910390a1505050565b6066546040805163d09edf3160e01b815290516200139c926001600160a01b03169163d09edf319160048083019260209291908290030181865afa15801562000763573d6000803e3d6000fd5b6200080881620026b2565b606060676002018054620010f29062004387565b60665460405163572b6c0560e01b81526001600160a01b038381166004830152600092169063572b6c0590602401602060405180830381865afa15801562001407573d6000803e3d6000fd5b505050506040513d601f19601f82011682018060405250810190620007109190620043ef565b826200143981620028aa565b620014436200295e565b6000806200145386868662002984565b90925090506200146e620014688287620043d9565b62002d0b565b620014798262002d9a565b505050505050565b60006200148e82620022b5565b60408051808201909152601f81527f5f73656c6c4f7264657228616464726573732c2075696e742c2075696e742900602090910152600080620014f17f668a32426dd1260f278045f1ae1311ac54a127636f6a4572712cffc11c002a13620022d7565b935093505050620015058482600062002304565b509094506200151690508462002e24565b925062000d4b838360d35462002304565b816000606660009054906101000a90046001600160a01b03166001600160a01b031663d09edf316040518163ffffffff1660e01b8152600401602060405180830381865afa1580156200157e573d6000803e3d6000fd5b505050506040513d601f19601f82011682018060405250810190620015a4919062004043565b60405163fdd5205f60e01b8152306004820152602481018490526001600160a01b03919091169063fdd5205f906044016020604051808303816000875af1158015620015f4573d6000803e3d6000fd5b505050506040513d601f19601f820116820180604052508101906200161a919062004063565b905062001674606660009054906101000a90046001600160a01b03166001600160a01b031663d09edf316040518163ffffffff1660e01b8152600401602060405180830381865afa15801562000958573d6000803e3d6000fd5b606660009054906101000a90046001600160a01b03166001600160a01b031663d09edf316040518163ffffffff1660e01b8152600401602060405180830381865afa158015620016c8573d6000803e3d6000fd5b505050506040513d601f19601f82011682018060405250810190620016ee919062004043565b60405163385e205560e21b8152600481018690526001600160a01b038581166024830152919091169063e1788154906044015b600060405180830381600087803b1580156200173c57600080fd5b505af1158015620010d4573d6000803e3d6000fd5b6066546040805163d09edf3160e01b815290516200179e926001600160a01b03169163d09edf319160048083019260209291908290030181865afa15801562000763573d6000803e3d6000fd5b620008088162002715565b620017b362002f4a565b6200180d8282606660009054906101000a90046001600160a01b03166001600160a01b03166304baed9e6040518163ffffffff1660e01b8152600401602060405180830381865afa1580156200126d573d6000803e3d6000fd5b816001600160a01b03167fe88292c5f714100904272672c0420345093bd0e3c5555d31f3e4e2cf5f6ca8a1826040516200184991815260200190565b60405180910390a25050565b60408051608081018252606780548252606854602083015260698054600094620019b2949392908401916200188a9062004387565b80601f0160208091040260200160405190810160405280929190818152602001828054620018b89062004387565b8015620019095780601f10620018dd5761010080835404028352916020019162001909565b820191906000526020600020905b815481529060010190602001808311620018eb57829003601f168201915b50505050508152602001600382018054620019249062004387565b80601f0160208091040260200160405190810160405280929190818152602001828054620019529062004387565b8015620019a35780601f106200197757610100808354040283529160200191620019a3565b820191906000526020600020905b8154815290600101906020018083116200198557829003601f168201915b50505050508152505062002f88565b905090565b60665460408051637da0a87760e01b815290516000926001600160a01b031691637da0a8779160048083019260209291908290030181865afa15801562001a02573d6000803e3d6000fd5b505050506040513d601f19601f82011682018060405250810190620019b2919062004043565b6066546040805163d09edf3160e01b8152905162001a75926001600160a01b03169163d09edf319160048083019260209291908290030181865afa15801562000763573d6000803e3d6000fd5b620008088162002779565b6066546040805163d09edf3160e01b8152905162001acd926001600160a01b03169163d09edf319160048083019260209291908290030181865afa15801562000763573d6000803e3d6000fd5b62000808816200285d565b8262001ae481620028aa565b62001aee62002fca565b60008062001afe86868662002ff5565b9150915062001b0d8262003255565b6200147962001b1d8287620043d9565b620032c8565b6066546040805163d09edf3160e01b8152905162001b70926001600160a01b03169163d09edf319160048083019260209291908290030181865afa15801562000763573d6000803e3d6000fd5b6200080881620027eb565b6066546040805163d09edf3160e01b8152905162001bc8926001600160a01b03169163d09edf319160048083019260209291908290030181865afa15801562000763573d6000803e3d6000fd5b60d2805460ff191690556040517fc34ae80cb7f967a799992108cfbc90770413d60555d5b0587a4c2c3e69c79ca490600090a1565b816000606660009054906101000a90046001600160a01b03166001600160a01b031663d09edf316040518163ffffffff1660e01b8152600401602060405180830381865afa15801562001c54573d6000803e3d6000fd5b505050506040513d601f19601f8201168201806040525081019062001c7a919062004043565b60405163fdd5205f60e01b8152306004820152602481018490526001600160a01b03919091169063fdd5205f906044016020604051808303816000875af115801562001cca573d6000803e3d6000fd5b505050506040513d601f19601f8201168201806040525081019062001cf0919062004063565b905062001d4a606660009054906101000a90046001600160a01b03166001600160a01b031663d09edf316040518163ffffffff1660e01b8152600401602060405180830381865afa15801562000958573d6000803e3d6000fd5b606660009054906101000a90046001600160a01b03166001600160a01b031663d09edf316040518163ffffffff1660e01b8152600401602060405180830381865afa15801562001d9e573d6000803e3d6000fd5b505050506040513d601f19601f8201168201806040525081019062001dc4919062004043565b604051632e99be7f60e21b8152600481018690526001600160a01b038581166024830152919091169063ba66f9fc9060440162001721565b600061010660189054906101000a900463ffffffff1663ffffffff1660005462001e2791906200440d565b60335462001e39620f4240806200440d565b62001e4591906200440d565b620019b2919062004427565b6066546040805163d09edf3160e01b8152905162001e9e926001600160a01b03169163d09edf319160048083019260209291908290030181865afa15801562000763573d6000803e3d6000fd5b609d805460ff60a01b191690556040517f44c1679cca34073ce70fed616f995237808d9599a35669fd39f3afd053e2b9b190600090a1565b6066546040805163d09edf3160e01b8152905162001f23926001600160a01b03169163d09edf319160048083019260209291908290030181865afa15801562000763573d6000803e3d6000fd5b609d805460ff60a01b1916600160a01b1790556040517fe404df37e2f7360b624914a082278de0f9e7da04a61eaab0a8d3d26b52bc0b1990600090a1565b62001f6b62002fca565b62001f8162001f79620020e7565b838362001ad8565b5050565b62001f8f6200295e565b62001f8162001f9d620020e7565b83836200142d565b6066546040805163d09edf3160e01b8152905162001ff2926001600160a01b03169163d09edf319160048083019260209291908290030181865afa15801562000763573d6000803e3d6000fd5b8162001ffe81620028aa565b6200200a83836200333c565b505050565b6066546040805163d09edf3160e01b815290516200205c926001600160a01b03169163d09edf319160048083019260209291908290030181865afa15801562000763573d6000803e3d6000fd5b60d2805460ff191660011790556040517f9d47627df4f01d3bff516199297ca647fe2ea0448c4f2925ef8c16d614a51a7c90600090a1565b600061010660149054906101000a900463ffffffff1663ffffffff1660005462001e2791906200440d565b60006001600160e01b03198216634e14f64760e11b14806200071057506200071082620033a1565b6000366014620020f733620013bb565b8015620021045750808210155b156200213b57600036620021198385620043d9565b620021269282906200444a565b620021319162004476565b60601c9250505090565b339250505090565b606660009054906101000a90046001600160a01b03166001600160a01b031663d09edf316040518163ffffffff1660e01b8152600401602060405180830381865afa15801562002197573d6000803e3d6000fd5b505050506040513d601f19601f82011682018060405250810190620021bd919062004043565b604051632474521560e21b8152600481018490526001600160a01b03838116602483015291909116906391d1485490604401602060405180830381865afa1580156200220d573d6000803e3d6000fd5b505050506040513d601f19601f82011682018060405250810190620022339190620043ef565b62001f81576040516342abbb7760e01b8152600481018390526001600160a01b03821660248201526044015b60405180910390fd5b6200227381620033c9565b609e546040805183815260208101929092527f28e297c7c282931a994191b735b01eaf17558295f761512a7047f4e1b8dc3b0b910160405180910390a1609e55565b806000036200080857604051631d67ff5760e11b815260040160405180910390fd5b600080600080620022e885620033ed565b94509150620022f7856200355d565b9496949550919391925050565b60008080612710620023178587620044ac565b111562002337576040516304e0874960e11b815260040160405180910390fd5b6127106200234686886200440d565b62002352919062004427565b91506127106200236385886200440d565b6200236f919062004427565b9050806200237e8388620043d9565b6200238a9190620043d9565b925093509350939050565b610106546000805461010754919283926001600160a01b03909116916329a00e7c91620023cf9190600160a81b900460ff16601262003686565b60335461010754620023ee9190600160a01b900460ff16601262003686565b610106546101075463ffffffff600160a01b9283900416916200241a918a9160ff910416601262003686565b6040516001600160e01b031960e087901b1681526004810194909452602484019290925263ffffffff1660448301526064820152608401602060405180830381865afa1580156200246f573d6000803e3d6000fd5b505050506040513d601f19601f8201168201806040525081019062002495919062004063565b9050620024b581601261010760159054906101000a900460ff1662003686565b9392505050565b620024c662003708565b6001600160a01b038216620024ee57604051637280679360e01b815260040160405180910390fd5b606680546001600160a01b0319166001600160a01b038416179055620025148162003757565b6200253257604051637511254160e01b815260040160405180910390fd5b80516067908155602082015160685560408201518291906069906200255890826200450e565b50606082015160038201906200256f90826200450e565b5050506060810151604051620025869190620045db565b604080519182900382208351602080860151918552840152916001600160a01b038516917feb175f148a71d29a5f7bf5439182fcd81e6ea9cfc8a11b54ab0f705fa98fa8ca91015b60405180910390a35050565b6000816001600160a01b031663313ce5676040518163ffffffff1660e01b8152600401602060405180830381865afa1580156200261b573d6000803e3d6000fd5b505050506040513d601f19601f8201168201806040525081019062002641919062004369565b905060078160ff1610806200266657506101075460ff600160a01b9091048116908216105b156200268557604051638feffdc960e01b815260040160405180910390fd5b6200269082620037ad565b610107805460ff909216600160a81b0260ff60a81b1990921691909117905550565b80600003620026d35760405162ece6a560e71b815260040160405180910390fd5b6000546040805183815260208101929092527fc60744c6ab5be4d0d7daa24905289cce0ac3a7c5ca60742bb43e367f54267542910160405180910390a1600055565b806000036200273757604051635f60529f60e01b815260040160405180910390fd5b6033546040805183815260208101929092527f09a070adb6f2c823cf65438ad36e4d03c24d94dd2ad6ebb19dd02d09ca1fa03f910160405180910390a1603355565b620027848162003809565b6101065460405163ffffffff600160a01b9092048216918316907f27c191dfc402c5c90b6333b6adc108fe15c0c368ccd3a50ec1d702f9288b864890600090a3610106805463ffffffff909216600160a01b0263ffffffff60a01b19909216919091179055565b620027f68162003809565b6101065460405163ffffffff600160c01b9092048216918316907fd60e348cd25e6e7624733f552b6499f3d296a6c2d464fa0ca109b41d7453b3ca90600090a3610106805463ffffffff909216600160c01b0263ffffffff60c01b19909216919091179055565b6200286881620033c9565b60d3546040805183815260208101929092527f5bafec153d96f8ef37761b64348732b41a6b477401d244a5070f9f82d689adce910160405180910390a160d355565b6001600160a01b0381161580620028c957506001600160a01b03811630145b15620008085760405163364f556160e11b815260040160405180910390fd5b6040516001600160a01b038381166024830152604482018390526200200a91859182169063a9059cbb906064015b604051602081830303815290604052915060e01b6020820180517bffffffffffffffffffffffffffffffffffffffffffffffffffffffff838183161783525050505062003844565b60d25460ff1662002982576040516374d0357560e11b815260040160405180910390fd5b565b6000806200299284620022b5565b60408051808201909152601f81527f5f73656c6c4f7264657228616464726573732c2075696e742c2075696e7429006020909101526000808080620029f77f668a32426dd1260f278045f1ae1311ac54a127636f6a4572712cffc11c002a13620022d7565b9350935093509350600080600062002a128b85600062002304565b5098508893509050600062002a278262002e24565b905080995062002a4162002a3a620020e7565b8d620038ae565b62002a4d8785620038e8565b6066546040805163025d76cf60e11b815290516000926001600160a01b0316916304baed9e9160048083019260209291908290030181865afa15801562002a98573d6000803e3d6000fd5b505050506040513d601f19601f8201168201806040525081019062002abe919062004043565b6001600160a01b031663fc0c546a6040518163ffffffff1660e01b8152600401602060405180830381865afa15801562002afc573d6000803e3d6000fd5b505050506040513d601f19601f8201168201806040525081019062002b22919062004043565b6040516370a0823160e01b81523060048201529091506001600160a01b038216906370a0823190602401602060405180830381865afa15801562002b6a573d6000803e3d6000fd5b505050506040513d601f19601f8201168201806040525081019062002b90919062004063565b609f5462002b9f9084620044ac565b111562002bbf576040516332dcd2bb60e11b815260040160405180910390fd5b62002bce828860d35462002304565b9096509450915062002be289828762003944565b831562002c035783609f600082825462002bfd9190620044ac565b90915550505b8b82101562002c2557604051637ac6ada560e01b815260040160405180910390fd5b60405163a9059cbb60e01b81526001600160a01b038f811660048301526024820184905282169063a9059cbb906044016020604051808303816000875af115801562002c75573d6000803e3d6000fd5b505050506040513d601f19601f8201168201806040525081019062002c9b9190620043ef565b508d6001600160a01b03167f7debc712939ce2028bbca7ca90cc85e8fb59a7772e041423d3ec1588af4730ed8e8462002cd3620020e7565b6040805193845260208401929092526001600160a01b03169082015260600160405180910390a2505050505050505050935093915050565b60005481111562002d2f576040516309f5d4ab60e21b815260040160405180910390fd5b600054810362002d515760405162ece6a560e71b815260040160405180910390fd5b60008054829003908190556040805183815260208101929092527ffb531aedaaeb99214c8335d339abd3ff055ecd418763e51672f7d7a6eb91ce5d91015b60405180910390a150565b60335481111562002dbe57604051635d3da26b60e11b815260040160405180910390fd5b603354810362002de157604051635f60529f60e01b815260040160405180910390fd5b60338054829003908190556040805183815260208101929092527ff90da9caba169a00f9544c3f2cf6e2b5c632fae79eb6116e76ff1f3c1f21472c910162002d8f565b610106546000805461010754919283926001600160a01b03909116916349f9b0f79162002e5e9190600160a81b900460ff16601262003686565b6033546101075462002e7d9190600160a01b900460ff16601262003686565b61010660189054906101000a900463ffffffff1662002eaf8861010760159054906101000a900460ff16601262003686565b6040516001600160e01b031960e087901b1681526004810194909452602484019290925263ffffffff1660448301526064820152608401602060405180830381865afa15801562002f04573d6000803e3d6000fd5b505050506040513d601f19601f8201168201806040525081019062002f2a919062004063565b9050620024b581601261010760149054906101000a900460ff1662003686565b6066546001600160a01b031662002f60620020e7565b6001600160a01b031614620029825760405163e614e81b60e01b815260040160405180910390fd5b600081600001518260400151836060015160405160200162002fad93929190620045f9565b604051602081830303815290604052805190602001209050919050565b609d54600160a01b900460ff166200298257604051630afe354360e11b815260040160405180910390fd5b6000806200300384620022b5565b6066546040805163025d76cf60e11b815290516000926001600160a01b0316916304baed9e9160048083019260209291908290030181865afa1580156200304e573d6000803e3d6000fd5b505050506040513d601f19601f8201168201806040525081019062003074919062004043565b6001600160a01b031663fc0c546a6040518163ffffffff1660e01b8152600401602060405180830381865afa158015620030b2573d6000803e3d6000fd5b505050506040513d601f19601f82011682018060405250810190620030d8919062004043565b9050620030fb620030e8620020e7565b6001600160a01b038316903088620039bf565b60408051808201909152601e81527f5f6275794f7264657228616464726573732c2075696e742c2075696e742900006020909101526000808080620031607febc8b0204dadb4d6005a49547cbbe02c8e0cb088aaed83b705285a22a0c2e5f2620022d7565b935093509350935060008060006200317c8c86609e5462002304565b919450925090506200318f8183620044ac565b98506200319e87898462003944565b8015620031bf5780609f6000828254620031b99190620044ac565b90915550505b6000620031cc8462002395565b9050809a50620031df8186600062002304565b5093509050620031f08784620038e8565b8b8110156200321257604051637ac6ada560e01b815260040160405180910390fd5b6200321e8e826200333c565b8d6001600160a01b03167fd150a324c4fc8346977d1499aa36cac8c85e6af24bf1486022fad77d05f8b19f8e8362002cd3620020e7565b6000546200326690600019620043d9565b8111156200328657604051624bb81760e31b815260040160405180910390fd5b600080548201908190556040805183815260208101929092527f7aad1769c7491080279b2d6b032b0e75289a3b12c716abe0333e7be0f70fe12f910162002d8f565b603354620032d990600019620043d9565b811115620032fa57604051632b8d3fb960e21b815260040160405180910390fd5b603380548201908190556040805183815260208101929092527fb79781f468e2af557e9be98c94e82258c72deac9797eed9d1eb079aba4b0b3ba910162002d8f565b609d546040516340c10f1960e01b81526001600160a01b03848116600483015260248201849052909116906340c10f19906044015b600060405180830381600087803b1580156200338c57600080fd5b505af115801562001479573d6000803e3d6000fd5b60006001600160e01b03198216633731fe6b60e21b1480620007105750620007108262003a00565b6127108111156200080857604051633ef38b5b60e11b815260040160405180910390fd5b600080606660009054906101000a90046001600160a01b03166001600160a01b0316630c340a246040518163ffffffff1660e01b8152600401602060405180830381865afa15801562003444573d6000803e3d6000fd5b505050506040513d601f19601f820116820180604052508101906200346a919062004043565b6001600160a01b031663f2d638266040518163ffffffff1660e01b8152600401602060405180830381865afa158015620034a8573d6000803e3d6000fd5b505050506040513d601f19601f82011682018060405250810190620034ce919062004043565b606654604051634d970f5560e11b81526001600160a01b0391821660048201523060248201526001600160e01b031986166044820152911690639b2e1eaa906064015b6040805180830381865afa1580156200352e573d6000803e3d6000fd5b505050506040513d601f19601f8201168201806040525081019062003554919062004628565b91509150915091565b600080606660009054906101000a90046001600160a01b03166001600160a01b0316630c340a246040518163ffffffff1660e01b8152600401602060405180830381865afa158015620035b4573d6000803e3d6000fd5b505050506040513d601f19601f82011682018060405250810190620035da919062004043565b6001600160a01b031663f2d638266040518163ffffffff1660e01b8152600401602060405180830381865afa15801562003618573d6000803e3d6000fd5b505050506040513d601f19601f820116820180604052508101906200363e919062004043565b6066546040516304e53bb360e01b81526001600160a01b0391821660048201523060248201526001600160e01b0319861660448201529116906304e53bb39060640162003511565b60008160ff168360ff16036200369e575082620024b5565b8160ff168360ff161115620036df576000620036bb838562004650565b620036c890600a62004769565b9050620036d6818662004427565b915050620024b5565b6000620036ed848462004650565b620036fa90600a62004769565b9050620036d681866200440d565b7ff0c57e16840df040f15088dc2f81fe391c3923bec73e23a9662efc9c229c6a005468010000000000000000900460ff166200298257604051631afcd79f60e31b815260040160405180910390fd5b60008160400151516000036200376f57506000919050565b8160600151516000036200378557506000919050565b81511580156200379757506020820151155b15620037a557506000919050565b506001919050565b609d546040516001600160a01b038084169216907f725bb73d6819c324bf4e2873817ef902109e4e871b4968e252d92a5cbb77cccd90600090a3609d80546001600160a01b0319166001600160a01b0392909216919091179055565b63ffffffff81161580620038255750620f424063ffffffff8216115b15620008085760405163623115ff60e01b815260040160405180910390fd5b60006200385b6001600160a01b0384168362003a28565b9050805160001415801562003883575080806020019051810190620038819190620043ef565b155b156200200a57604051635274afe760e01b81526001600160a01b03841660048201526024016200225f565b609d54604051632770a7eb60e21b81526001600160a01b0384811660048301526024820184905290911690639dc29fac9060440162003371565b801562001f8157620038fa82620028aa565b6200390682826200333c565b6040518181526001600160a01b0383169030907f11a26a26a718a46d85815d79165470744429ab0f3093113929c59c097bbebb9a90602001620025ce565b80156200200a576200395683620028aa565b6200396c6001600160a01b0383168483620028e8565b826001600160a01b0316826001600160a01b03167f81535d361819544361f80ddbe5071aef378a8ecba1c52f2c45fe3335234c433183604051620039b291815260200190565b60405180910390a3505050565b6040516001600160a01b038481166024830152838116604483015260648201839052620039fa9186918216906323b872dd9060840162002916565b50505050565b60006001600160e01b0319821663179dfb4560e01b1480620007105750620007108262003a38565b6060620024b58383600062003a61565b600063689b8d2960e11b6001600160e01b03198316811480620024b55750620024b58362003b06565b60608147101562003a885760405163cd78605960e01b81523060048201526024016200225f565b600080856001600160a01b0316848660405162003aa69190620045db565b60006040518083038185875af1925050503d806000811462003ae5576040519150601f19603f3d011682016040523d82523d6000602084013e62003aea565b606091505b509150915062003afc86838362003b3e565b9695505050505050565b600063800cc7f160e01b6001600160e01b03198316811480620024b557506301ffc9a760e01b6001600160e01b0319841614620024b5565b60608262003b575762003b518262003ba2565b620024b5565b815115801562003b6f57506001600160a01b0384163b155b1562003b9a57604051639996b31560e01b81526001600160a01b03851660048201526024016200225f565b5080620024b5565b80511562003bb35780518082602001fd5b604051630a12f52160e11b815260040160405180910390fd5b610efd806200477b83390190565b60006020828403121562003bed57600080fd5b81356001600160e01b031981168114620024b557600080fd5b60006020828403121562003c1957600080fd5b5035919050565b60008060006040848603121562003c3657600080fd5b83359250602084013567ffffffffffffffff8082111562003c5657600080fd5b818601915086601f83011262003c6b57600080fd5b81358181111562003c7b57600080fd5b8760208260051b850101111562003c9157600080fd5b6020830194508093505050509250925092565b6001600160a01b03811681146200080857600080fd5b634e487b7160e01b600052604160045260246000fd5b6040516080810167ffffffffffffffff8111828210171562003cf65762003cf662003cba565b60405290565b604051610120810167ffffffffffffffff8111828210171562003cf65762003cf662003cba565b604051601f8201601f1916810167ffffffffffffffff8111828210171562003d4f5762003d4f62003cba565b604052919050565b600067ffffffffffffffff82111562003d745762003d7462003cba565b50601f01601f191660200190565b600082601f83011262003d9457600080fd5b813562003dab62003da58262003d57565b62003d23565b81815284602083860101111562003dc157600080fd5b816020850160208301376000918101602001919091529392505050565b60008060006060848603121562003df457600080fd5b833562003e018162003ca4565b9250602084013567ffffffffffffffff8082111562003e1f57600080fd5b908501906080828803121562003e3457600080fd5b62003e3e62003cd0565b823581526020830135602082015260408301358281111562003e5f57600080fd5b62003e6d8982860162003d82565b60408301525060608301358281111562003e8657600080fd5b62003e948982860162003d82565b6060830152509350604086013591508082111562003eb157600080fd5b5062003ec08682870162003d82565b9150509250925092565b60005b8381101562003ee757818101518382015260200162003ecd565b50506000910152565b6000815180845262003f0a81602086016020860162003eca565b601f01601f19169290920160200192915050565b602081526000620024b5602083018462003ef0565b6000806040838503121562003f4757600080fd5b823562003f548162003ca4565b946020939093013593505050565b60006020828403121562003f7557600080fd5b8135620024b58162003ca4565b60008060006060848603121562003f9857600080fd5b833562003fa58162003ca4565b95602085013595506040909401359392505050565b6000806040838503121562003fce57600080fd5b82359150602083013562003fe28162003ca4565b809150509250929050565b63ffffffff811681146200080857600080fd5b6000602082840312156200401357600080fd5b8135620024b58162003fed565b600080604083850312156200403457600080fd5b50508035926020909101359150565b6000602082840312156200405657600080fd5b8151620024b58162003ca4565b6000602082840312156200407657600080fd5b5051919050565b83815260406020808301829052908201839052600090849060608401835b86811015620040cd578335620040b18162003ca4565b6001600160a01b0316825292820192908201906001016200409b565b50979650505050505050565b600082601f830112620040eb57600080fd5b8151620040fc62003da58262003d57565b8181528460208386010111156200411257600080fd5b6200412582602083016020870162003eca565b949350505050565b805160ff811681146200413f57600080fd5b919050565b80516200413f8162003ca4565b80516200413f8162003fed565b805180151581146200413f57600080fd5b600061012082840312156200418357600080fd5b6200418d62003cfc565b90506200419a8262004144565b8152620041aa6020830162004151565b6020820152620041bd6040830162004151565b60408201526060820151606082015260808201516080820152620041e460a083016200415e565b60a0820152620041f760c083016200415e565b60c082015260e082015160e082015261010080830151818301525092915050565b60008060008061018085870312156200423057600080fd5b845167ffffffffffffffff808211156200424957600080fd5b90860190608082890312156200425e57600080fd5b6200426862003cd0565b8251828111156200427857600080fd5b620042868a828601620040d9565b8252506020830151828111156200429c57600080fd5b620042aa8a828601620040d9565b602083015250620042be604084016200412d565b604082015260608301516060820152809650505050620042e16020860162004144565b9250620042f286604087016200416f565b915062004303610160860162004144565b905092959194509250565b60c0815260006200432360c083018962003ef0565b828103602084015262004337818962003ef0565b60ff979097166040840152505060608101939093526001600160a01b0391821660808401521660a09091015292915050565b6000602082840312156200437c57600080fd5b620024b5826200412d565b600181811c908216806200439c57607f821691505b602082108103620043bd57634e487b7160e01b600052602260045260246000fd5b50919050565b634e487b7160e01b600052601160045260246000fd5b81810381811115620007105762000710620043c3565b6000602082840312156200440257600080fd5b620024b5826200415e565b8082028115828204841417620007105762000710620043c3565b6000826200444557634e487b7160e01b600052601260045260246000fd5b500490565b600080858511156200445b57600080fd5b838611156200446957600080fd5b5050820193919092039150565b6bffffffffffffffffffffffff198135818116916014851015620044a45780818660140360031b1b83161692505b505092915050565b80820180821115620007105762000710620043c3565b601f8211156200200a576000816000526020600020601f850160051c81016020861015620044ed5750805b601f850160051c820191505b818110156200147957828155600101620044f9565b815167ffffffffffffffff8111156200452b576200452b62003cba565b62004543816200453c845462004387565b84620044c2565b602080601f8311600181146200457b5760008415620045625750858301515b600019600386901b1c1916600185901b17855562001479565b600085815260208120601f198616915b82811015620045ac578886015182559484019460019091019084016200458b565b5085821015620045cb5787850151600019600388901b60f8161c191681555b5050505050600190811b01905550565b60008251620045ef81846020870162003eca565b9190910192915050565b83815260606020820152600062004614606083018562003ef0565b828103604084015262003afc818562003ef0565b600080604083850312156200463c57600080fd5b82519150602083015162003fe28162003ca4565b60ff8281168282160390811115620007105762000710620043c3565b600181815b80851115620046ad578160001904821115620046915762004691620043c3565b808516156200469f57918102915b93841c939080029062004671565b509250929050565b600082620046c65750600162000710565b81620046d55750600062000710565b8160018114620046ee5760028114620046f95762004719565b600191505062000710565b60ff8411156200470d576200470d620043c3565b50506001821b62000710565b5060208310610133831016604e8410600b84101617156200473e575081810a62000710565b6200474a83836200466c565b8060001904821115620047615762004761620043c3565b029392505050565b6000620024b560ff841683620046b556fe60806040523480156200001157600080fd5b5060405162000efd38038062000efd833981016040819052620000349162000240565b818686600362000045838262000383565b50600462000054828262000383565b5050506001600160a01b0381166200008657604051631e4fbdf760e01b81526000600482015260240160405180910390fd5b6200009181620000bf565b506200009d8162000111565b50506007556008805460ff191660ff92909216919091179055506200044f9050565b600580546001600160a01b038381166001600160a01b0319831681179093556040519116919082907f8be0079c531659141344cd1fd0a4f28419497f9722a3daafe3b4186f6b6457e090600090a35050565b600680546001600160a01b0319166001600160a01b0383169081179091556040517f726b590ef91a8c76ad05bbe91a57ef84605276528f49cd47d787f558a4e755b690600090a250565b634e487b7160e01b600052604160045260246000fd5b600082601f8301126200018357600080fd5b81516001600160401b0380821115620001a057620001a06200015b565b604051601f8301601f19908116603f01168101908282118183101715620001cb57620001cb6200015b565b8160405283815260209250866020858801011115620001e957600080fd5b600091505b838210156200020d5785820183015181830184015290820190620001ee565b6000602085830101528094505050505092915050565b80516001600160a01b03811681146200023b57600080fd5b919050565b60008060008060008060c087890312156200025a57600080fd5b86516001600160401b03808211156200027257600080fd5b620002808a838b0162000171565b975060208901519150808211156200029757600080fd5b50620002a689828a0162000171565b955050604087015160ff81168114620002be57600080fd5b60608801519094509250620002d66080880162000223565b9150620002e660a0880162000223565b90509295509295509295565b600181811c908216806200030757607f821691505b6020821081036200032857634e487b7160e01b600052602260045260246000fd5b50919050565b601f8211156200037e576000816000526020600020601f850160051c81016020861015620003595750805b601f850160051c820191505b818110156200037a5782815560010162000365565b5050505b505050565b81516001600160401b038111156200039f576200039f6200015b565b620003b781620003b08454620002f2565b846200032e565b602080601f831160018114620003ef5760008415620003d65750858301515b600019600386901b1c1916600185901b1785556200037a565b600085815260208120601f198616915b828110156200042057888601518255948401946001909101908401620003ff565b50858210156200043f5787850151600019600388901b60f8161c191681555b5050505050600190811b01905550565b610a9e806200045f6000396000f3fe608060405234801561001057600080fd5b506004361061010b5760003560e01c8063715018a6116100a25780639e812c7b116100715780639e812c7b1461021a578063a9059cbb1461022d578063dd62ed3e14610240578063f2fde38b14610279578063fca3b5aa1461028c57600080fd5b8063715018a6146101d25780638da5cb5b146101da57806395d89b41146101ff5780639dc29fac1461020757600080fd5b8063313ce567116100de578063313ce5671461017657806332cb6b0c1461018b57806340c10f191461019457806370a08231146101a957600080fd5b806306fdde0314610110578063095ea7b31461012e57806318160ddd1461015157806323b872dd14610163575b600080fd5b61011861029f565b60405161012591906108e7565b60405180910390f35b61014161013c366004610952565b610331565b6040519015158152602001610125565b6002545b604051908152602001610125565b61014161017136600461097c565b61034b565b60085460405160ff9091168152602001610125565b61015560075481565b6101a76101a2366004610952565b61036f565b005b6101556101b73660046109b8565b6001600160a01b031660009081526020819052604090205490565b6101a76103e7565b6005546001600160a01b03165b6040516001600160a01b039091168152602001610125565b6101186103fb565b6101a7610215366004610952565b61040a565b6006546101e7906001600160a01b031681565b61014161023b366004610952565b610448565b61015561024e3660046109da565b6001600160a01b03918216600090815260016020908152604080832093909416825291909152205490565b6101a76102873660046109b8565b610456565b6101a761029a3660046109b8565b610499565b6060600380546102ae90610a0d565b80601f01602080910402602001604051908101604052809291908181526020018280546102da90610a0d565b80156103275780601f106102fc57610100808354040283529160200191610327565b820191906000526020600020905b81548152906001019060200180831161030a57829003601f168201915b5050505050905090565b60003361033f8185856104aa565b60019150505b92915050565b6000336103598582856104bc565b61036485858561053a565b506001949350505050565b6006546001600160a01b0316336001600160a01b0316146103a357604051634199e25360e11b815260040160405180910390fd5b600754816103b060025490565b6103ba9190610a47565b11156103d95760405163db327dd360e01b815260040160405180910390fd5b6103e38282610599565b5050565b6103ef6105cf565b6103f960006105fc565b565b6060600480546102ae90610a0d565b6006546001600160a01b0316336001600160a01b03161461043e57604051634199e25360e11b815260040160405180910390fd5b6103e3828261065b565b60003361033f81858561053a565b61045e6105cf565b6001600160a01b03811661048d57604051631e4fbdf760e01b8152600060048201526024015b60405180910390fd5b610496816105fc565b50565b6104a16105cf565b61049681610691565b6104b783838360016106e8565b505050565b6001600160a01b038381166000908152600160209081526040808320938616835292905220546000198114610534578181101561052557604051637dc7a0d960e11b81526001600160a01b03841660048201526024810182905260448101839052606401610484565b610534848484840360006106e8565b50505050565b6001600160a01b03831661056457604051634b637e8f60e11b815260006004820152602401610484565b6001600160a01b03821661058e5760405163ec442f0560e01b815260006004820152602401610484565b6104b78383836107bd565b6001600160a01b0382166105c35760405163ec442f0560e01b815260006004820152602401610484565b6103e3600083836107bd565b6005546001600160a01b031633146103f95760405163118cdaa760e01b8152336004820152602401610484565b600580546001600160a01b0383811673ffffffffffffffffffffffffffffffffffffffff19831681179093556040519116919082907f8be0079c531659141344cd1fd0a4f28419497f9722a3daafe3b4186f6b6457e090600090a35050565b6001600160a01b03821661068557604051634b637e8f60e11b815260006004820152602401610484565b6103e3826000836107bd565b6006805473ffffffffffffffffffffffffffffffffffffffff19166001600160a01b0383169081179091556040517f726b590ef91a8c76ad05bbe91a57ef84605276528f49cd47d787f558a4e755b690600090a250565b6001600160a01b0384166107125760405163e602df0560e01b815260006004820152602401610484565b6001600160a01b03831661073c57604051634a1406b160e11b815260006004820152602401610484565b6001600160a01b038085166000908152600160209081526040808320938716835292905220829055801561053457826001600160a01b0316846001600160a01b03167f8c5be1e5ebec7d5bd14f71427d1e84f3dd0314c0f7b2291e5b200ac8c7c3b925846040516107af91815260200190565b60405180910390a350505050565b6001600160a01b0383166107e85780600260008282546107dd9190610a47565b9091555061085a9050565b6001600160a01b0383166000908152602081905260409020548181101561083b5760405163391434e360e21b81526001600160a01b03851660048201526024810182905260448101839052606401610484565b6001600160a01b03841660009081526020819052604090209082900390555b6001600160a01b03821661087657600280548290039055610895565b6001600160a01b03821660009081526020819052604090208054820190555b816001600160a01b0316836001600160a01b03167fddf252ad1be2c89b69c2b068fc378daa952ba7f163c4a11628f55a4df523b3ef836040516108da91815260200190565b60405180910390a3505050565b60006020808352835180602085015260005b81811015610915578581018301518582016040015282016108f9565b506000604082860101526040601f19601f8301168501019250505092915050565b80356001600160a01b038116811461094d57600080fd5b919050565b6000806040838503121561096557600080fd5b61096e83610936565b946020939093013593505050565b60008060006060848603121561099157600080fd5b61099a84610936565b92506109a860208501610936565b9150604084013590509250925092565b6000602082840312156109ca57600080fd5b6109d382610936565b9392505050565b600080604083850312156109ed57600080fd5b6109f683610936565b9150610a0460208401610936565b90509250929050565b600181811c90821680610a2157607f821691505b602082108103610a4157634e487b7160e01b600052602260045260246000fd5b50919050565b8082018082111561034557634e487b7160e01b600052601160045260246000fdfea264697066735822122053052b2048d1afbe1367eb79d754f437211f4033347caf66a208ede560b0dc3564736f6c63430008170033a26469706673582212209e6ca47adf54d4be51dd06ba2e814548f4f2cd944ac262036f66d73a715a423d64736f6c63430008170033",
    "linkReferences": {}
  },
  "methodIdentifiers": {
    "buy(uint256,uint256)": "d6febde8",
    "buyFee()": "47062402",
    "buyFor(address,uint256,uint256)": "935b7dbd",
    "buyIsOpen()": "c6829ba2",
    "calculatePurchaseReturn(uint256)": "322d2100",
    "calculateSaleReturn(uint256)": "69fcd4ac",
    "closeBuy()": "c6ab5cdc",
    "closeSell()": "ba83c970",
    "formula()": "4b75f54f",
    "getIssuanceToken()": "1ca3bc4f",
    "getReserveRatioForBuying()": "a8a539d9",
    "getReserveRatioForSelling()": "6115db1c",
    "getStaticPriceForBuying()": "fa03330c",
    "getStaticPriceForSelling()": "bd098404",
    "getVirtualCollateralSupply()": "bf75292b",
    "getVirtualIssuanceSupply()": "d1c6022f",
    "grantModuleRole(bytes32,address)": "6c67e807",
    "grantModuleRoleBatched(bytes32,address[])": "272bbd44",
    "identifier()": "7998a1c4",
    "init(address,(uint256,uint256,string,string),bytes)": "42dfe958",
    "isTrustedForwarder(address)": "572b6c05",
    "mintIssuanceTokenTo(address,uint256)": "ecd31b55",
    "openBuy()": "d4a67930",
    "openSell()": "f1eae64a",
    "orchestrator()": "b74795d9",
    "projectCollateralFeeCollected()": "cbda8f82",
    "revokeModuleRole(bytes32,address)": "bcb61920",
    "revokeModuleRoleBatched(bytes32,address[])": "24e30270",
    "sell(uint256,uint256)": "d79875eb",
    "sellFee()": "2b14ca56",
    "sellFor(address,uint256,uint256)": "5f6108ff",
    "sellIsOpen()": "9093b01f",
    "setBuyFee(uint256)": "0cc835a3",
    "setReserveRatioForBuying(uint32)": "8ac631e6",
    "setReserveRatioForSelling(uint32)": "b88a2cf6",
    "setSellFee(uint256)": "8b4cee08",
    "setVirtualCollateralSupply(uint256)": "6e423379",
    "setVirtualIssuanceSupply(uint256)": "51cac5de",
    "supportsInterface(bytes4)": "01ffc9a7",
    "title()": "4a79d50c",
    "token()": "fc0c546a",
    "transferOrchestratorToken(address,uint256)": "759cc4b5",
    "trustedForwarder()": "7da0a877",
    "url()": "5600f04f",
    "version()": "54fd4d50",
    "withdrawProjectCollateralFee(address,uint256)": "4f893bba"
  },
  "id": 118
}