{
  "abi": [
    {
      "type": "function",
      "name": "MIN_RESERVE",
      "inputs": [],
      "outputs": [
        {
          "name": "",
          "type": "uint256",
          "internalType": "uint256"
        }
      ],
      "stateMutability": "view"
    },
    {
      "type": "function",
      "name": "buy",
      "inputs": [
        {
          "name": "_depositAmount",
          "type": "uint256",
          "internalType": "uint256"
        },
        {
          "name": "_minAmountOut",
          "type": "uint256",
          "internalType": "uint256"
        }
      ],
      "outputs": [],
      "stateMutability": "nonpayable"
    },
    {
      "type": "function",
      "name": "buyFee",
      "inputs": [],
      "outputs": [
        {
          "name": "",
          "type": "uint256",
          "internalType": "uint256"
        }
      ],
      "stateMutability": "view"
    },
    {
      "type": "function",
      "name": "buyFor",
      "inputs": [
        {
          "name": "_receiver",
          "type": "address",
          "internalType": "address"
        },
        {
          "name": "_depositAmount",
          "type": "uint256",
          "internalType": "uint256"
        },
        {
          "name": "_minAmountOut",
          "type": "uint256",
          "internalType": "uint256"
        }
      ],
      "outputs": [],
      "stateMutability": "nonpayable"
    },
    {
      "type": "function",
      "name": "buyIsOpen",
      "inputs": [],
      "outputs": [
        {
          "name": "",
          "type": "bool",
          "internalType": "bool"
        }
      ],
      "stateMutability": "view"
    },
    {
      "type": "function",
      "name": "calculateBasePriceToCapitalRatio",
      "inputs": [
        {
          "name": "capitalRequired_",
          "type": "uint256",
          "internalType": "uint256"
        },
        {
          "name": "basePriceMultiplier_",
          "type": "uint256",
          "internalType": "uint256"
        }
      ],
      "outputs": [
        {
          "name": "basePriceTocaptialRatio_",
          "type": "uint256",
          "internalType": "uint256"
        }
      ],
      "stateMutability": "pure"
    },
    {
      "type": "function",
      "name": "calculatePurchaseReturn",
      "inputs": [
        {
          "name": "_depositAmount",
          "type": "uint256",
          "internalType": "uint256"
        }
      ],
      "outputs": [
        {
          "name": "mintAmount",
          "type": "uint256",
          "internalType": "uint256"
        }
      ],
      "stateMutability": "view"
    },
    {
      "type": "function",
      "name": "calculateSaleReturn",
      "inputs": [
        {
          "name": "_depositAmount",
          "type": "uint256",
          "internalType": "uint256"
        }
      ],
      "outputs": [
        {
          "name": "redeemAmount",
          "type": "uint256",
          "internalType": "uint256"
        }
      ],
      "stateMutability": "view"
    },
    {
      "type": "function",
      "name": "closeBuy",
      "inputs": [],
      "outputs": [],
      "stateMutability": "nonpayable"
    },
    {
      "type": "function",
      "name": "closeSell",
      "inputs": [],
      "outputs": [],
      "stateMutability": "nonpayable"
    },
    {
      "type": "function",
      "name": "getBasePriceMultiplier",
      "inputs": [],
      "outputs": [
        {
          "name": "basePriceMultiplier_",
          "type": "uint256",
          "internalType": "uint256"
        }
      ],
      "stateMutability": "view"
    },
    {
      "type": "function",
      "name": "getBasePriceToCapitalRatio",
      "inputs": [],
      "outputs": [
        {
          "name": "basePriceToCapitalRatio_",
          "type": "uint256",
          "internalType": "uint256"
        }
      ],
      "stateMutability": "view"
    },
    {
      "type": "function",
      "name": "getBondingSurfaceFormula",
      "inputs": [],
      "outputs": [
        {
          "name": "formula_",
          "type": "address",
          "internalType": "address"
        }
      ],
      "stateMutability": "view"
    },
    {
      "type": "function",
      "name": "getCapitalRequired",
      "inputs": [],
      "outputs": [
        {
          "name": "capitalRequired_",
          "type": "uint256",
          "internalType": "uint256"
        }
      ],
      "stateMutability": "view"
    },
    {
      "type": "function",
      "name": "getIssuanceToken",
      "inputs": [],
      "outputs": [
        {
          "name": "",
          "type": "address",
          "internalType": "address"
        }
      ],
      "stateMutability": "view"
    },
    {
      "type": "function",
      "name": "getStaticPriceForBuying",
      "inputs": [],
      "outputs": [
        {
          "name": "staticPriceForBuying_",
          "type": "uint256",
          "internalType": "uint256"
        }
      ],
      "stateMutability": "view"
    },
    {
      "type": "function",
      "name": "getStaticPriceForSelling",
      "inputs": [],
      "outputs": [
        {
          "name": "staticPriceForSelling_",
          "type": "uint256",
          "internalType": "uint256"
        }
      ],
      "stateMutability": "view"
    },
    {
      "type": "function",
      "name": "grantModuleRole",
      "inputs": [
        {
          "name": "role",
          "type": "bytes32",
          "internalType": "bytes32"
        },
        {
          "name": "target",
          "type": "address",
          "internalType": "address"
        }
      ],
      "outputs": [],
      "stateMutability": "nonpayable"
    },
    {
      "type": "function",
      "name": "grantModuleRoleBatched",
      "inputs": [
        {
          "name": "role",
          "type": "bytes32",
          "internalType": "bytes32"
        },
        {
          "name": "targets",
          "type": "address[]",
          "internalType": "address[]"
        }
      ],
      "outputs": [],
      "stateMutability": "nonpayable"
    },
    {
      "type": "function",
      "name": "identifier",
      "inputs": [],
      "outputs": [
        {
          "name": "",
          "type": "bytes32",
          "internalType": "bytes32"
        }
      ],
      "stateMutability": "view"
    },
    {
      "type": "function",
      "name": "init",
      "inputs": [
        {
          "name": "orchestrator_",
          "type": "address",
          "internalType": "contract IOrchestrator_v1"
        },
        {
          "name": "metadata_",
          "type": "tuple",
          "internalType": "struct IModule_v1.Metadata",
          "components": [
            {
              "name": "majorVersion",
              "type": "uint256",
              "internalType": "uint256"
            },
            {
              "name": "minorVersion",
              "type": "uint256",
              "internalType": "uint256"
            },
            {
              "name": "patchVersion",
              "type": "uint256",
              "internalType": "uint256"
            },
            {
              "name": "url",
              "type": "string",
              "internalType": "string"
            },
            {
              "name": "title",
              "type": "string",
              "internalType": "string"
            }
          ]
        },
        {
          "name": "configData_",
          "type": "bytes",
          "internalType": "bytes"
        }
      ],
      "outputs": [],
      "stateMutability": "nonpayable"
    },
    {
      "type": "function",
      "name": "isTrustedForwarder",
      "inputs": [
        {
          "name": "forwarder",
          "type": "address",
          "internalType": "address"
        }
      ],
      "outputs": [
        {
          "name": "",
          "type": "bool",
          "internalType": "bool"
        }
      ],
      "stateMutability": "view"
    },
    {
      "type": "function",
      "name": "openBuy",
      "inputs": [],
      "outputs": [],
      "stateMutability": "nonpayable"
    },
    {
      "type": "function",
      "name": "openSell",
      "inputs": [],
      "outputs": [],
      "stateMutability": "nonpayable"
    },
    {
      "type": "function",
      "name": "orchestrator",
      "inputs": [],
      "outputs": [
        {
          "name": "",
          "type": "address",
          "internalType": "contract IOrchestrator_v1"
        }
      ],
      "stateMutability": "view"
    },
    {
      "type": "function",
      "name": "projectCollateralFeeCollected",
      "inputs": [],
      "outputs": [
        {
          "name": "",
          "type": "uint256",
          "internalType": "uint256"
        }
      ],
      "stateMutability": "view"
    },
    {
      "type": "function",
      "name": "revokeModuleRole",
      "inputs": [
        {
          "name": "role",
          "type": "bytes32",
          "internalType": "bytes32"
        },
        {
          "name": "target",
          "type": "address",
          "internalType": "address"
        }
      ],
      "outputs": [],
      "stateMutability": "nonpayable"
    },
    {
      "type": "function",
      "name": "revokeModuleRoleBatched",
      "inputs": [
        {
          "name": "role",
          "type": "bytes32",
          "internalType": "bytes32"
        },
        {
          "name": "targets",
          "type": "address[]",
          "internalType": "address[]"
        }
      ],
      "outputs": [],
      "stateMutability": "nonpayable"
    },
    {
      "type": "function",
      "name": "sell",
      "inputs": [
        {
          "name": "_depositAmount",
          "type": "uint256",
          "internalType": "uint256"
        },
        {
          "name": "_minAmountOut",
          "type": "uint256",
          "internalType": "uint256"
        }
      ],
      "outputs": [],
      "stateMutability": "nonpayable"
    },
    {
      "type": "function",
      "name": "sellFee",
      "inputs": [],
      "outputs": [
        {
          "name": "",
          "type": "uint256",
          "internalType": "uint256"
        }
      ],
      "stateMutability": "view"
    },
    {
      "type": "function",
      "name": "sellIsOpen",
      "inputs": [],
      "outputs": [
        {
          "name": "",
          "type": "bool",
          "internalType": "bool"
        }
      ],
      "stateMutability": "view"
    },
    {
      "type": "function",
      "name": "sellTo",
      "inputs": [
        {
          "name": "_receiver",
          "type": "address",
          "internalType": "address"
        },
        {
          "name": "_depositAmount",
          "type": "uint256",
          "internalType": "uint256"
        },
        {
          "name": "_minAmountOut",
          "type": "uint256",
          "internalType": "uint256"
        }
      ],
      "outputs": [],
      "stateMutability": "nonpayable"
    },
    {
      "type": "function",
      "name": "setBasePriceMultiplier",
      "inputs": [
        {
          "name": "newBasePriceMultiplier_",
          "type": "uint256",
          "internalType": "uint256"
        }
      ],
      "outputs": [],
      "stateMutability": "nonpayable"
    },
    {
      "type": "function",
      "name": "setBuyFee",
      "inputs": [
        {
          "name": "_fee",
          "type": "uint256",
          "internalType": "uint256"
        }
      ],
      "outputs": [],
      "stateMutability": "nonpayable"
    },
    {
      "type": "function",
      "name": "setCapitalRequired",
      "inputs": [
        {
          "name": "newCapitalRequired_",
          "type": "uint256",
          "internalType": "uint256"
        }
      ],
      "outputs": [],
      "stateMutability": "nonpayable"
    },
    {
      "type": "function",
      "name": "setSellFee",
      "inputs": [
        {
          "name": "_fee",
          "type": "uint256",
          "internalType": "uint256"
        }
      ],
      "outputs": [],
      "stateMutability": "nonpayable"
    },
    {
      "type": "function",
      "name": "supportsInterface",
      "inputs": [
        {
          "name": "interfaceId_",
          "type": "bytes4",
          "internalType": "bytes4"
        }
      ],
      "outputs": [
        {
          "name": "supportsInterface_",
          "type": "bool",
          "internalType": "bool"
        }
      ],
      "stateMutability": "view"
    },
    {
      "type": "function",
      "name": "title",
      "inputs": [],
      "outputs": [
        {
          "name": "",
          "type": "string",
          "internalType": "string"
        }
      ],
      "stateMutability": "view"
    },
    {
      "type": "function",
      "name": "token",
      "inputs": [],
      "outputs": [
        {
          "name": "token_",
          "type": "address",
          "internalType": "contract IERC20"
        }
      ],
      "stateMutability": "view"
    },
    {
      "type": "function",
      "name": "transferOrchestratorToken",
      "inputs": [
        {
          "name": "to_",
          "type": "address",
          "internalType": "address"
        },
        {
          "name": "amount_",
          "type": "uint256",
          "internalType": "uint256"
        }
      ],
      "outputs": [],
      "stateMutability": "nonpayable"
    },
    {
      "type": "function",
      "name": "trustedForwarder",
      "inputs": [],
      "outputs": [
        {
          "name": "",
          "type": "address",
          "internalType": "address"
        }
      ],
      "stateMutability": "view"
    },
    {
      "type": "function",
      "name": "url",
      "inputs": [],
      "outputs": [
        {
          "name": "",
          "type": "string",
          "internalType": "string"
        }
      ],
      "stateMutability": "view"
    },
    {
      "type": "function",
      "name": "version",
      "inputs": [],
      "outputs": [
        {
          "name": "",
          "type": "uint256",
          "internalType": "uint256"
        },
        {
          "name": "",
          "type": "uint256",
          "internalType": "uint256"
        },
        {
          "name": "",
          "type": "uint256",
          "internalType": "uint256"
        }
      ],
      "stateMutability": "view"
    },
    {
      "type": "function",
      "name": "withdrawProjectCollateralFee",
      "inputs": [
        {
          "name": "_receiver",
          "type": "address",
          "internalType": "address"
        },
        {
          "name": "_amount",
          "type": "uint256",
          "internalType": "uint256"
        }
      ],
      "outputs": [],
      "stateMutability": "nonpayable"
    },
    {
      "type": "event",
      "name": "BasePriceMultiplierChanged",
      "inputs": [
        {
          "name": "currentBasePriceMultiplier",
          "type": "uint256",
          "indexed": false,
          "internalType": "uint256"
        },
        {
          "name": "newBasePriceMultiplier",
          "type": "uint256",
          "indexed": false,
          "internalType": "uint256"
        }
      ],
      "anonymous": false
    },
    {
      "type": "event",
      "name": "BasePriceToCapitalRatioChanged",
      "inputs": [
        {
          "name": "currentBasePriceToCapitalRatio",
          "type": "uint256",
          "indexed": false,
          "internalType": "uint256"
        },
        {
          "name": "newBasePriceToCapitalRatio",
          "type": "uint256",
          "indexed": false,
          "internalType": "uint256"
        }
      ],
      "anonymous": false
    },
    {
      "type": "event",
      "name": "BuyFeeUpdated",
      "inputs": [
        {
          "name": "newBuyFee",
          "type": "uint256",
          "indexed": false,
          "internalType": "uint256"
        },
        {
          "name": "oldBuyFee",
          "type": "uint256",
          "indexed": false,
          "internalType": "uint256"
        }
      ],
      "anonymous": false
    },
    {
      "type": "event",
      "name": "BuyingDisabled",
      "inputs": [],
      "anonymous": false
    },
    {
      "type": "event",
      "name": "BuyingEnabled",
      "inputs": [],
      "anonymous": false
    },
    {
      "type": "event",
      "name": "CapitalRequiredChanged",
      "inputs": [
        {
          "name": "currentCapitalRequired",
          "type": "uint256",
          "indexed": false,
          "internalType": "uint256"
        },
        {
          "name": "newCapitalRequired",
          "type": "uint256",
          "indexed": false,
          "internalType": "uint256"
        }
      ],
      "anonymous": false
    },
    {
      "type": "event",
      "name": "Initialized",
      "inputs": [
        {
          "name": "version",
          "type": "uint64",
          "indexed": false,
          "internalType": "uint64"
        }
      ],
      "anonymous": false
    },
    {
      "type": "event",
      "name": "IssuanceTokenSet",
      "inputs": [
        {
          "name": "issuanceToken",
          "type": "address",
          "indexed": true,
          "internalType": "address"
        },
        {
          "name": "decimals",
          "type": "uint8",
          "indexed": false,
          "internalType": "uint8"
        }
      ],
      "anonymous": false
    },
    {
      "type": "event",
      "name": "ModuleInitialized",
      "inputs": [
        {
          "name": "parentOrchestrator",
          "type": "address",
          "indexed": true,
          "internalType": "address"
        },
        {
          "name": "metadata",
          "type": "tuple",
          "indexed": false,
          "internalType": "struct IModule_v1.Metadata",
          "components": [
            {
              "name": "majorVersion",
              "type": "uint256",
              "internalType": "uint256"
            },
            {
              "name": "minorVersion",
              "type": "uint256",
              "internalType": "uint256"
            },
            {
              "name": "patchVersion",
              "type": "uint256",
              "internalType": "uint256"
            },
            {
              "name": "url",
              "type": "string",
              "internalType": "string"
            },
            {
              "name": "title",
              "type": "string",
              "internalType": "string"
            }
          ]
        }
      ],
      "anonymous": false
    },
    {
      "type": "event",
      "name": "OrchestratorTokenSet",
      "inputs": [
        {
          "name": "token",
          "type": "address",
          "indexed": true,
          "internalType": "address"
        },
        {
          "name": "decimals",
          "type": "uint8",
          "indexed": false,
          "internalType": "uint8"
        }
      ],
      "anonymous": false
    },
    {
      "type": "event",
      "name": "ProjectCollateralFeeAdded",
      "inputs": [
        {
          "name": "amount",
          "type": "uint256",
          "indexed": false,
          "internalType": "uint256"
        }
      ],
      "anonymous": false
    },
    {
      "type": "event",
      "name": "ProjectCollateralFeeWithdrawn",
      "inputs": [
        {
          "name": "receiver",
          "type": "address",
          "indexed": false,
          "internalType": "address"
        },
        {
          "name": "amount",
          "type": "uint256",
          "indexed": false,
          "internalType": "uint256"
        }
      ],
      "anonymous": false
    },
    {
      "type": "event",
      "name": "ProtocolFeeMinted",
      "inputs": [
        {
          "name": "token",
          "type": "address",
          "indexed": true,
          "internalType": "address"
        },
        {
          "name": "treasury",
          "type": "address",
          "indexed": true,
          "internalType": "address"
        },
        {
          "name": "feeAmount",
          "type": "uint256",
          "indexed": false,
          "internalType": "uint256"
        }
      ],
      "anonymous": false
    },
    {
      "type": "event",
      "name": "ProtocolFeeTransferred",
      "inputs": [
        {
          "name": "token",
          "type": "address",
          "indexed": true,
          "internalType": "address"
        },
        {
          "name": "treasury",
          "type": "address",
          "indexed": true,
          "internalType": "address"
        },
        {
          "name": "feeAmount",
          "type": "uint256",
          "indexed": false,
          "internalType": "uint256"
        }
      ],
      "anonymous": false
    },
    {
      "type": "event",
      "name": "SellFeeUpdated",
      "inputs": [
        {
          "name": "newSellFee",
          "type": "uint256",
          "indexed": false,
          "internalType": "uint256"
        },
        {
          "name": "oldSellFee",
          "type": "uint256",
          "indexed": false,
          "internalType": "uint256"
        }
      ],
      "anonymous": false
    },
    {
      "type": "event",
      "name": "SellingDisabled",
      "inputs": [],
      "anonymous": false
    },
    {
      "type": "event",
      "name": "SellingEnabled",
      "inputs": [],
      "anonymous": false
    },
    {
      "type": "event",
      "name": "TokenDecimalsUpdated",
      "inputs": [
        {
          "name": "oldDecimals",
          "type": "uint8",
          "indexed": false,
          "internalType": "uint8"
        },
        {
          "name": "newDecimals",
          "type": "uint8",
          "indexed": false,
          "internalType": "uint8"
        }
      ],
      "anonymous": false
    },
    {
      "type": "event",
      "name": "TokensBought",
      "inputs": [
        {
          "name": "receiver",
          "type": "address",
          "indexed": true,
          "internalType": "address"
        },
        {
          "name": "depositAmount",
          "type": "uint256",
          "indexed": false,
          "internalType": "uint256"
        },
        {
          "name": "receivedAmount",
          "type": "uint256",
          "indexed": false,
          "internalType": "uint256"
        },
        {
          "name": "buyer",
          "type": "address",
          "indexed": false,
          "internalType": "address"
        }
      ],
      "anonymous": false
    },
    {
      "type": "event",
      "name": "TokensSold",
      "inputs": [
        {
          "name": "receiver",
          "type": "address",
          "indexed": true,
          "internalType": "address"
        },
        {
          "name": "depositAmount",
          "type": "uint256",
          "indexed": false,
          "internalType": "uint256"
        },
        {
          "name": "receivedAmount",
          "type": "uint256",
          "indexed": false,
          "internalType": "uint256"
        },
        {
          "name": "seller",
          "type": "address",
          "indexed": false,
          "internalType": "address"
        }
      ],
      "anonymous": false
    },
    {
      "type": "event",
      "name": "TransferOrchestratorToken",
      "inputs": [
        {
          "name": "_to",
          "type": "address",
          "indexed": true,
          "internalType": "address"
        },
        {
          "name": "_amount",
          "type": "uint256",
          "indexed": false,
          "internalType": "uint256"
        }
      ],
      "anonymous": false
    },
    {
      "type": "error",
      "name": "AddressEmptyCode",
      "inputs": [
        {
          "name": "target",
          "type": "address",
          "internalType": "address"
        }
      ]
    },
    {
      "type": "error",
      "name": "AddressInsufficientBalance",
      "inputs": [
        {
          "name": "account",
          "type": "address",
          "internalType": "address"
        }
      ]
    },
    {
      "type": "error",
      "name": "FM_BC_BondingSurface_Redeeming_v1__InvalidBondingSurfaceFormula",
      "inputs": []
    },
    {
      "type": "error",
      "name": "FM_BC_BondingSurface_Redeeming_v1__InvalidInputAmount",
      "inputs": []
    },
    {
      "type": "error",
      "name": "FM_BC_BondingSurface_Redeeming_v1__MinReserveReached",
      "inputs": []
    },
    {
      "type": "error",
      "name": "FM_BC_BondingSurface_Redeeming_v1__NoCapitalAvailable",
      "inputs": []
    },
    {
      "type": "error",
      "name": "FailedInnerCall",
      "inputs": []
    },
    {
      "type": "error",
      "name": "InvalidInitialization",
      "inputs": []
    },
    {
      "type": "error",
      "name": "InvalidOrchestratorTokenWithdrawAmount",
      "inputs": []
    },
    {
      "type": "error",
      "name": "Module_OrchestratorCallbackFailed",
      "inputs": [
        {
          "name": "funcSig",
          "type": "string",
          "internalType": "string"
        }
      ]
    },
    {
      "type": "error",
      "name": "Module__BondingCurveBase__BuyingFunctionaltiesClosed",
      "inputs": []
    },
    {
      "type": "error",
      "name": "Module__BondingCurveBase__FeeAmountToHigh",
      "inputs": []
    },
    {
      "type": "error",
      "name": "Module__BondingCurveBase__InsufficientOutputAmount",
      "inputs": []
    },
    {
      "type": "error",
      "name": "Module__BondingCurveBase__InvalidDepositAmount",
      "inputs": []
    },
    {
      "type": "error",
      "name": "Module__BondingCurveBase__InvalidFeePercentage",
      "inputs": []
    },
    {
      "type": "error",
      "name": "Module__BondingCurveBase__InvalidMinAmountOut",
      "inputs": []
    },
    {
      "type": "error",
      "name": "Module__BondingCurveBase__InvalidRecipient",
      "inputs": []
    },
    {
      "type": "error",
      "name": "Module__BondingCurveBase__InvalidWithdrawAmount",
      "inputs": []
    },
    {
      "type": "error",
      "name": "Module__BondingCurveBase__TradeAmountTooLow",
      "inputs": []
    },
    {
      "type": "error",
      "name": "Module__CallerNotAuthorized",
      "inputs": [
        {
          "name": "role",
          "type": "bytes32",
          "internalType": "bytes32"
        },
        {
          "name": "caller",
          "type": "address",
          "internalType": "address"
        }
      ]
    },
    {
      "type": "error",
      "name": "Module__InvalidAddress",
      "inputs": []
    },
    {
      "type": "error",
      "name": "Module__InvalidMetadata",
      "inputs": []
    },
    {
      "type": "error",
      "name": "Module__InvalidOrchestratorAddress",
      "inputs": []
    },
    {
      "type": "error",
      "name": "Module__OnlyCallableByOrchestrator",
      "inputs": []
    },
    {
      "type": "error",
      "name": "Module__OnlyCallableByPaymentClient",
      "inputs": []
    },
    {
      "type": "error",
      "name": "Module__RedeemingBondingCurveBase__InsufficientCollateralForProjectFee",
      "inputs": []
    },
    {
      "type": "error",
      "name": "Module__RedeemingBondingCurveBase__SellingFunctionaltiesClosed",
      "inputs": []
    },
    {
      "type": "error",
      "name": "NotInitializing",
      "inputs": []
    },
    {
      "type": "error",
      "name": "SafeERC20FailedOperation",
      "inputs": [
        {
          "name": "token",
          "type": "address",
          "internalType": "address"
        }
      ]
    }
  ],
  "bytecode": {
    "object": "0x60a060405234801562000010575f80fd5b505f6080526200001f62000025565b620000d9565b7ff0c57e16840df040f15088dc2f81fe391c3923bec73e23a9662efc9c229c6a00805468010000000000000000900460ff1615620000765760405163f92ee8a960e01b815260040160405180910390fd5b80546001600160401b0390811614620000d65780546001600160401b0319166001600160401b0390811782556040519081527fc7f505b2f371ae2175ee4913f4499e1f2633a7b5936321eed1cdaeb6115181d29060200160405180910390a15b50565b608051614003620000ef5f395f50506140035ff3fe608060405234801561000f575f80fd5b50600436106102e3575f3560e01c80637da0a87711610187578063c5b27dde116100dd578063d4a6793011610093578063f1eae64a1161006e578063f1eae64a1461059c578063fa03330c14610526578063fc0c546a146105a4575f80fd5b8063d4a679301461056e578063d6febde814610576578063d79875eb14610589575f80fd5b8063c6ab5cdc116100c3578063c6ab5cdc14610555578063cbda8f821461055d578063ce23aa7b14610566575f80fd5b8063c5b27dde1461052e578063c6829ba214610541575f80fd5b8063a3f737b51161013d578063ba83c97011610118578063ba83c9701461050b578063bcb6192014610513578063bd09840414610526575f80fd5b8063a3f737b5146104d7578063b66a870c146104e8578063b74795d9146104fb575f80fd5b80638b4cee081161016d5780638b4cee08146104a45780639093b01f146104b7578063935b7dbd146104c4575f80fd5b80637da0a8771461049457806382fa3d291461049c575f80fd5b806349e8e3041161023c578063572b6c05116101f2578063700cbd90116101cd578063700cbd9014610466578063759cc4b5146104795780637998a1c41461048c575f80fd5b8063572b6c051461042d57806369fcd4ac146104405780636c67e80714610453575f80fd5b80634f893bba116102225780634f893bba146103ee57806354fd4d50146104015780635600f04f14610425575f80fd5b806349e8e304146103c65780634a79d50c146103d9575f80fd5b806324e302701161029c578063322d210011610277578063322d2100146103a2578063422eeba4146103b557806347062402146103bd575f80fd5b806324e3027014610373578063272bbd44146103865780632b14ca5614610399575f80fd5b80630cc835a3116102cc5780630cc835a3146103265780631ad56e3b1461033b5780631ca3bc4f1461034e575f80fd5b806301ffc9a7146102e757806309dfd0e61461030f575b5f80fd5b6102fa6102f53660046136d4565b6105b5565b60405190151581526020015b60405180910390f35b61031860a15481565b604051908152602001610306565b6103396103343660046136fb565b6105fa565b005b6103396103493660046136fb565b6106de565b6038546001600160a01b03165b6040516001600160a01b039091168152602001610306565b610339610381366004613712565b61072f565b610339610394366004613712565b61099e565b610318606e5481565b6103186103b03660046136fb565b610b6d565b60a454610318565b61031860395481565b6103186103d436600461378a565b610c10565b6103e1610c22565b60405161030691906137f7565b6103396103fc36600461381d565b610cb5565b60015460025460035460408051938452602084019290925290820152606001610306565b6103e1610e6f565b6102fa61043b366004613847565b610e81565b61031861044e3660046136fb565b610eed565b610339610461366004613862565b610f88565b6103396104743660046136fb565b61118e565b61033961048736600461381d565b6111df565b61031861137c565b61035b6114d4565b60a554610318565b6103396104b23660046136fb565b611548565b606d546102fa9060ff1681565b6103396104d2366004613890565b611599565b60a2546001600160a01b031661035b565b6103396104f63660046139ab565b6115be565b5f546001600160a01b031661035b565b610339611744565b610339610521366004613862565b6117c0565b610318611997565b61033961053c366004613890565b611a23565b6038546102fa90600160a01b900460ff1681565b610339611a40565b610318603a5481565b60a654610318565b610339611abf565b61033961058436600461378a565b611b44565b61033961059736600461378a565b611b5a565b610339611b6c565b60a3546001600160a01b031661035b565b5f6001600160e01b0319821663238c5efb60e21b14806105e557506001600160e01b0319821663899090df60e01b145b806105f457506105f482611beb565b92915050565b5f546040805163d09edf3160e01b815290516106d2926001600160a01b03169163d09edf319160048083019260209291908290030181865afa158015610642573d5f803e3d5ffd5b505050506040513d601f19601f820116820180604052508101906106669190613a89565b6001600160a01b031663b3ecf2366040518163ffffffff1660e01b8152600401602060405180830381865afa1580156106a1573d5f803e3d5ffd5b505050506040513d601f19601f820116820180604052508101906106c59190613aa4565b6106cd611c0f565b611c5f565b6106db81611d76565b50565b5f546040805163d09edf3160e01b81529051610726926001600160a01b03169163d09edf319160048083019260209291908290030181865afa158015610642573d5f803e3d5ffd5b6106db81611dc1565b5f80546040805163d09edf3160e01b815290518693926001600160a01b03169163d09edf319160048083019260209291908290030181865afa158015610777573d5f803e3d5ffd5b505050506040513d601f19601f8201168201806040525081019061079b9190613a89565b60405163fdd5205f60e01b8152306004820152602481018490526001600160a01b03919091169063fdd5205f90604401602060405180830381865afa1580156107e6573d5f803e3d5ffd5b505050506040513d601f19601f8201168201806040525081019061080a9190613aa4565b90506108c95f8054906101000a90046001600160a01b03166001600160a01b031663d09edf316040518163ffffffff1660e01b8152600401602060405180830381865afa15801561085d573d5f803e3d5ffd5b505050506040513d601f19601f820116820180604052508101906108819190613a89565b6001600160a01b031663248a9ca3836040518263ffffffff1660e01b81526004016108ae91815260200190565b602060405180830381865afa1580156106a1573d5f803e3d5ffd5b5f8054906101000a90046001600160a01b03166001600160a01b031663d09edf316040518163ffffffff1660e01b8152600401602060405180830381865afa158015610917573d5f803e3d5ffd5b505050506040513d601f19601f8201168201806040525081019061093b9190613a89565b6001600160a01b0316637d540a648686866040518463ffffffff1660e01b815260040161096a93929190613abb565b5f604051808303815f87803b158015610981575f80fd5b505af1158015610993573d5f803e3d5ffd5b505050505050505050565b5f80546040805163d09edf3160e01b815290518693926001600160a01b03169163d09edf319160048083019260209291908290030181865afa1580156109e6573d5f803e3d5ffd5b505050506040513d601f19601f82011682018060405250810190610a0a9190613a89565b60405163fdd5205f60e01b8152306004820152602481018490526001600160a01b03919091169063fdd5205f90604401602060405180830381865afa158015610a55573d5f803e3d5ffd5b505050506040513d601f19601f82011682018060405250810190610a799190613aa4565b9050610acc5f8054906101000a90046001600160a01b03166001600160a01b031663d09edf316040518163ffffffff1660e01b8152600401602060405180830381865afa15801561085d573d5f803e3d5ffd5b5f8054906101000a90046001600160a01b03166001600160a01b031663d09edf316040518163ffffffff1660e01b8152600401602060405180830381865afa158015610b1a573d5f803e3d5ffd5b505050506040513d601f19601f82011682018060405250810190610b3e9190613a89565b6001600160a01b031663648154538686866040518463ffffffff1660e01b815260040161096a93929190613abb565b5f610b79826001611e2a565b60408051808201909152601c81527f5f6275794f7264657228616464726573732c75696e742c75696e7429000000006020909101525f80610bd97fdb2c93faffa8f98d8bcd55cf740e8ead65ac1699aaf6ee8a00820485fc802af6611e6a565b935093505050610bec8483603954611e91565b50909450610c059050610bfe85611f5d565b825f611e91565b509095945050505050565b5f610c1b8383612006565b9392505050565b606060016004018054610c3490613b12565b80601f0160208091040260200160405190810160405280929190818152602001828054610c6090613b12565b8015610cab5780601f10610c8257610100808354040283529160200191610cab565b820191905f5260205f20905b815481529060010190602001808311610c8e57829003601f168201915b5050505050905090565b81610cbf8161204c565b5f546040805163d09edf3160e01b81529051610d07926001600160a01b03169163d09edf319160048083019260209291908290030181865afa158015610642573d5f803e3d5ffd5b603a54821115610d2a576040516347d1bcf560e01b815260040160405180910390fd5b81603a5f828254610d3b9190613b58565b92505081905550610e2883835f8054906101000a90046001600160a01b03166001600160a01b03166304baed9e6040518163ffffffff1660e01b8152600401602060405180830381865afa158015610d95573d5f803e3d5ffd5b505050506040513d601f19601f82011682018060405250810190610db99190613a89565b6001600160a01b031663fc0c546a6040518163ffffffff1660e01b8152600401602060405180830381865afa158015610df4573d5f803e3d5ffd5b505050506040513d601f19601f82011682018060405250810190610e189190613a89565b6001600160a01b03169190612088565b604080516001600160a01b0385168152602081018490527f9e9a785b42ae3ce89ea11b526c656a7cacbd520b83908336dc8c9f4e9be9135f910160405180910390a1505050565b606060016003018054610c3490613b12565b5f805460405163572b6c0560e01b81526001600160a01b0384811660048301529091169063572b6c0590602401602060405180830381865afa158015610ec9573d5f803e3d5ffd5b505050506040513d601f19601f820116820180604052508101906105f49190613b7f565b5f610ef9826001611e2a565b60408051808201909152601d81527f5f73656c6c4f7264657228616464726573732c75696e742c75696e74290000006020909101525f80610f597f3299ac1e4997da1dd638584692e27ee6e952ca63f8284764a73c592284e1d9e8611e6a565b935093505050610f6a84825f611e91565b50909450610f79905084612101565b9250610c058383606e54611e91565b5f80546040805163d09edf3160e01b815290518593926001600160a01b03169163d09edf319160048083019260209291908290030181865afa158015610fd0573d5f803e3d5ffd5b505050506040513d601f19601f82011682018060405250810190610ff49190613a89565b60405163fdd5205f60e01b8152306004820152602481018490526001600160a01b03919091169063fdd5205f90604401602060405180830381865afa15801561103f573d5f803e3d5ffd5b505050506040513d601f19601f820116820180604052508101906110639190613aa4565b90506110b65f8054906101000a90046001600160a01b03166001600160a01b031663d09edf316040518163ffffffff1660e01b8152600401602060405180830381865afa15801561085d573d5f803e3d5ffd5b5f8054906101000a90046001600160a01b03166001600160a01b031663d09edf316040518163ffffffff1660e01b8152600401602060405180830381865afa158015611104573d5f803e3d5ffd5b505050506040513d601f19601f820116820180604052508101906111289190613a89565b60405163385e205560e21b8152600481018690526001600160a01b038581166024830152919091169063e1788154906044015b5f604051808303815f87803b158015611172575f80fd5b505af1158015611184573d5f803e3d5ffd5b5050505050505050565b5f546040805163d09edf3160e01b815290516111d6926001600160a01b03169163d09edf319160048083019260209291908290030181865afa158015610642573d5f803e3d5ffd5b6106db816121df565b6111e7612248565b603a5460a3546001600160a01b03166040516370a0823160e01b81523060048201526001600160a01b0391909116906370a0823190602401602060405180830381865afa15801561123a573d5f803e3d5ffd5b505050506040513d601f19601f8201168201806040525081019061125e9190613aa4565b6112689190613b58565b8111156112885760405163d67b8d9760e01b815260040160405180910390fd5b61129f8282610e1860a3546001600160a01b031690565b60a3546001600160a01b03166040516370a0823160e01b81523060048201526001600160a01b0391909116906370a0823190602401602060405180830381865afa1580156112ef573d5f803e3d5ffd5b505050506040513d601f19601f820116820180604052508101906113139190613aa4565b60a154111561133557604051634511533160e01b815260040160405180910390fd5b816001600160a01b03167fe88292c5f714100904272672c0420345093bd0e3c5555d31f3e4e2cf5f6ca8a18260405161137091815260200190565b60405180910390a25050565b5f6114cf60016040518060a00160405290815f820154815260200160018201548152602001600282015481526020016003820180546113ba90613b12565b80601f01602080910402602001604051908101604052809291908181526020018280546113e690613b12565b80156114315780601f1061140857610100808354040283529160200191611431565b820191905f5260205f20905b81548152906001019060200180831161141457829003601f168201915b5050505050815260200160048201805461144a90613b12565b80601f016020809104026020016040519081016040528092919081815260200182805461147690613b12565b80156114c15780601f10611498576101008083540402835291602001916114c1565b820191905f5260205f20905b8154815290600101906020018083116114a457829003601f168201915b5050505050815250506123e5565b905090565b5f805f9054906101000a90046001600160a01b03166001600160a01b0316637da0a8776040518163ffffffff1660e01b8152600401602060405180830381865afa158015611524573d5f803e3d5ffd5b505050506040513d601f19601f820116820180604052508101906114cf9190613a89565b5f546040805163d09edf3160e01b81529051611590926001600160a01b03169163d09edf319160048083019260209291908290030181865afa158015610642573d5f803e3d5ffd5b6106db81612423565b6115a161246e565b826115ab8161204c565b6115b6848484612498565b505050505050565b7ff0c57e16840df040f15088dc2f81fe391c3923bec73e23a9662efc9c229c6a00805468010000000000000000810460ff16159067ffffffffffffffff165f811580156116085750825b90505f8267ffffffffffffffff1660011480156116245750303b155b905081158015611632575080155b156116505760405163f92ee8a960e01b815260040160405180910390fd5b845467ffffffffffffffff19166001178555831561168457845468ff00000000000000001916680100000000000000001785555b6040805160e0810182525f80825260208201819052918101829052606081018290526080810182905260a0810182905260c081018290528190888060200190518101906116d19190613b98565b919450925090506116e28b8b6126f5565b6116ed8383836127e2565b505050831561118457845468ff000000000000000019168555604051600181527fc7f505b2f371ae2175ee4913f4499e1f2633a7b5936321eed1cdaeb6115181d29060200160405180910390a15050505050505050565b5f546040805163d09edf3160e01b8152905161178c926001600160a01b03169163d09edf319160048083019260209291908290030181865afa158015610642573d5f803e3d5ffd5b606d805460ff191690556040517fc34ae80cb7f967a799992108cfbc90770413d60555d5b0587a4c2c3e69c79ca4905f90a1565b5f80546040805163d09edf3160e01b815290518593926001600160a01b03169163d09edf319160048083019260209291908290030181865afa158015611808573d5f803e3d5ffd5b505050506040513d601f19601f8201168201806040525081019061182c9190613a89565b60405163fdd5205f60e01b8152306004820152602481018490526001600160a01b03919091169063fdd5205f90604401602060405180830381865afa158015611877573d5f803e3d5ffd5b505050506040513d601f19601f8201168201806040525081019061189b9190613aa4565b90506118ee5f8054906101000a90046001600160a01b03166001600160a01b031663d09edf316040518163ffffffff1660e01b8152600401602060405180830381865afa15801561085d573d5f803e3d5ffd5b5f8054906101000a90046001600160a01b03166001600160a01b031663d09edf316040518163ffffffff1660e01b8152600401602060405180830381865afa15801561193c573d5f803e3d5ffd5b505050506040513d601f19601f820116820180604052508101906119609190613a89565b604051632e99be7f60e21b8152600481018690526001600160a01b038581166024830152919091169063ba66f9fc9060440161115b565b60a2545f906001600160a01b031663d5f638c86119b2612a42565b60a45460a5546040516001600160e01b031960e086901b168152600481019390935260248301919091526044820152606401602060405180830381865afa1580156119ff573d5f803e3d5ffd5b505050506040513d601f19601f820116820180604052508101906114cf9190613aa4565b611a2b612aba565b82611a358161204c565b6115b6848484612add565b5f546040805163d09edf3160e01b81529051611a88926001600160a01b03169163d09edf319160048083019260209291908290030181865afa158015610642573d5f803e3d5ffd5b6038805460ff60a01b191690556040517f44c1679cca34073ce70fed616f995237808d9599a35669fd39f3afd053e2b9b1905f90a1565b5f546040805163d09edf3160e01b81529051611b07926001600160a01b03169163d09edf319160048083019260209291908290030181865afa158015610642573d5f803e3d5ffd5b6038805460ff60a01b1916600160a01b1790556040517fe404df37e2f7360b624914a082278de0f9e7da04a61eaab0a8d3d26b52bc0b19905f90a1565b611b56611b4f611c0f565b8383611599565b5050565b611b56611b65611c0f565b8383611a23565b5f546040805163d09edf3160e01b81529051611bb4926001600160a01b03169163d09edf319160048083019260209291908290030181865afa158015610642573d5f803e3d5ffd5b606d805460ff191660011790556040517f9d47627df4f01d3bff516199297ca647fe2ea0448c4f2925ef8c16d614a51a7c905f90a1565b5f6001600160e01b031982166306fa99af60e01b14806105f457506105f482612d8b565b5f366014611c1c33610e81565b8015611c285750808210155b15611c57575f36611c398385613b58565b611c44928290613c4c565b611c4d91613c73565b60601c9250505090565b339250505090565b5f8054906101000a90046001600160a01b03166001600160a01b031663d09edf316040518163ffffffff1660e01b8152600401602060405180830381865afa158015611cad573d5f803e3d5ffd5b505050506040513d601f19601f82011682018060405250810190611cd19190613a89565b60405163a883867d60e01b8152600481018490526001600160a01b038381166024830152919091169063a883867d90604401602060405180830381865afa158015611d1e573d5f803e3d5ffd5b505050506040513d601f19601f82011682018060405250810190611d429190613b7f565b611b56576040516342abbb7760e01b8152600481018390526001600160a01b03821660248201526044015b60405180910390fd5b611d7f81612daf565b6039546040805183815260208101929092527f28e297c7c282931a994191b735b01eaf17558295f761512a7047f4e1b8dc3b0b910160405180910390a1603955565b805f03611de157604051635593ddd560e01b815260040160405180910390fd5b60a55460408051918252602082018390527f8fdebc63e418e16f05aa0dfb419056a60df42f47be2e252a138edfd430d11eb9910160405180910390a160a58190556106db612dd2565b815f03611e4a57604051631d67ff5760e11b815260040160405180910390fd5b805f03611b565760405163d8674d0d60e01b815260040160405180910390fd5b5f805f80611e7785612e25565b94509150611e8485612f78565b9496949550919391925050565b5f8080612710611ea18587613ca8565b10611ebf576040516304e0874960e11b815260040160405180910390fd5b8415611efe57612710611ed28688613cbb565b611edc9190613cd2565b9150815f03611efe57604051639c43a82560e01b815260040160405180910390fd5b8315611f3d57612710611f118588613cbb565b611f1b9190613cd2565b9050805f03611f3d57604051639c43a82560e01b815260040160405180910390fd5b80611f488388613b58565b611f529190613b58565b925093509350939050565b5f80611f67612a42565b9050805f03611f895760405163481d74fb60e11b815260040160405180910390fd5b60a25460a654604051630ebc9a6360e41b8152600481018690526024810184905260448101919091526001600160a01b039091169063ebc9a63090606401602060405180830381865afa158015611fe2573d5f803e3d5ffd5b505050506040513d601f19601f82011682018060405250810190610c1b9190613aa4565b5f61201a8284670de0b6b3a7640000613088565b90506ec097ce7bc90715b34b9f10000000008111156105f457604051635593ddd560e01b815260040160405180910390fd5b6001600160a01b038116158061206a57506001600160a01b03811630145b156106db5760405163364f556160e11b815260040160405180910390fd5b6040516001600160a01b038381166024830152604482018390526120fc91859182169063a9059cbb906064015b604051602081830303815290604052915060e01b6020820180517bffffffffffffffffffffffffffffffffffffffffffffffffffffffff83818316178352505050506130a9565b505050565b5f8061210b612a42565b9050805f0361212d5760405163481d74fb60e11b815260040160405180910390fd5b60a25460a654604051631fbeb79960e01b8152600481018690526024810184905260448101919091526001600160a01b0390911690631fbeb79990606401602060405180830381865afa158015612186573d5f803e3d5ffd5b505050506040513d601f19601f820116820180604052508101906121aa9190613aa4565b60a1549092506121ba8383613b58565b10156121d957604051634511533160e01b815260040160405180910390fd5b50919050565b805f036121ff57604051635593ddd560e01b815260040160405180910390fd5b60a45460408051918252602082018390527f06f1aed96f9533645e9fa3eab6725b2330072c4ec86e5c0f2dfb39e829f2981a910160405180910390a160a48190556106db612dd2565b5f546001600160a01b03166342f6e389612260611c0f565b6040516001600160e01b031960e084901b1681526001600160a01b039091166004820152602401602060405180830381865afa1580156122a2573d5f803e3d5ffd5b505050506040513d601f19601f820116820180604052508101906122c69190613b7f565b15806123c557506122d5611c0f565b6040516301ffc9a760e01b81526346fe193d60e11b60048201526001600160a01b0391909116906301ffc9a790602401602060405180830381865afa158015612320573d5f803e3d5ffd5b505050506040513d601f19601f820116820180604052508101906123449190613b7f565b1580156123c55750612354611c0f565b6040516301ffc9a760e01b81526346fe193d60e11b60048201526001600160a01b0391909116906301ffc9a790602401602060405180830381865afa15801561239f573d5f803e3d5ffd5b505050506040513d601f19601f820116820180604052508101906123c39190613b7f565b155b156123e357604051631b793e7f60e21b815260040160405180910390fd5b565b5f815f01518260600151836080015160405160200161240693929190613cf1565b604051602081830303815290604052805190602001209050919050565b61242c81612daf565b606e546040805183815260208101929092527f5bafec153d96f8ef37761b64348732b41a6b477401d244a5070f9f82d689adce910160405180910390a1606e55565b603854600160a01b900460ff166123e357604051630afe354360e11b815260040160405180910390fd5b5f806124a48484611e2a565b5f805f9054906101000a90046001600160a01b03166001600160a01b03166304baed9e6040518163ffffffff1660e01b8152600401602060405180830381865afa1580156124f4573d5f803e3d5ffd5b505050506040513d601f19601f820116820180604052508101906125189190613a89565b6001600160a01b031663fc0c546a6040518163ffffffff1660e01b8152600401602060405180830381865afa158015612553573d5f803e3d5ffd5b505050506040513d601f19601f820116820180604052508101906125779190613a89565b60408051808201909152601c81527f5f6275794f7264657228616464726573732c75696e742c75696e74290000000060209091015290505f8080806125db7fdb2c93faffa8f98d8bcd55cf740e8ead65ac1699aaf6ee8a00820485fc802af6611e6a565b93509350935093505f805f6125f38c86603954611e91565b919450925090506126048183613ca8565b98505f61261084611f5d565b9050809a505f61262182875f611e91565b5090925090508c82101561264857604051637ac6ada560e01b815260040160405180910390fd5b612659612653611c0f565b8f61310a565b612664898b866131f2565b82156126735761267383613267565b61267d88826132b3565b6126878f83613314565b8e6001600160a01b03167fd150a324c4fc8346977d1499aa36cac8c85e6af24bf1486022fad77d05f8b19f8f846126bc611c0f565b6040805193845260208401929092526001600160a01b03169082015260600160405180910390a250505050505050505050935093915050565b6126fd61331e565b6001600160a01b03821661272457604051637280679360e01b815260040160405180910390fd5b5f80546001600160a01b0319166001600160a01b0384161790556127478161336c565b61276457604051637511254160e01b815260040160405180910390fd5b805160019081556020820151600255604082015160035560608201518291906004906127909082613d66565b50608082015160048201906127a59082613d66565b50905050816001600160a01b03167fd5f3f84c2e1816ce290af84d002663800b02f2985d770cdd335de76fd723b730826040516113709190613e22565b6127ea61331e565b60a380546001600160a01b0319166001600160a01b0384169081179091556040805163313ce56760e01b8152905163313ce567916004808201926020929091908290030181865afa158015612841573d5f803e3d5ffd5b505050506040513d601f19601f820116820180604052508101906128659190613e81565b61287090600a613f81565b60a15561287c836133c6565b80516040516301ffc9a760e01b8152632181296160e01b60048201526001600160a01b03909116906301ffc9a790602401602060405180830381865afa1580156128c8573d5f803e3d5ffd5b505050506040513d601f19601f820116820180604052508101906128ec9190613b7f565b612909576040516366e0807760e01b815260040160405180910390fd5b805160a280546001600160a01b0319166001600160a01b039092169190911790556020810151612938906121df565b6129458160400151611dc1565b6129528160600151611d76565b61295f8160800151612423565b60a08101516038805460ff60a01b1916600160a01b9215159290920291909117905560c0810151606d805460ff191691151591909117905560a3546040805163313ce56760e01b815290516001600160a01b03858116937fdec758d17e6001f7ae45d3316ad54ed6b6e932cef251881f0f51390b69e00d279391169163313ce567916004808201926020929091908290030181865afa158015612a04573d5f803e3d5ffd5b505050506040513d601f19601f82011682018060405250810190612a289190613e81565b60405160ff909116815260200160405180910390a2505050565b603a5460a3546040516370a0823160e01b81523060048201525f92916001600160a01b0316906370a0823190602401602060405180830381865afa158015612a8c573d5f803e3d5ffd5b505050506040513d601f19601f82011682018060405250810190612ab09190613aa4565b6114cf9190613b58565b606d5460ff166123e3576040516374d0357560e11b815260040160405180910390fd5b5f80612ae98484611e2a565b60408051808201909152601d81527f5f73656c6c4f7264657228616464726573732c75696e742c75696e74290000006020909101525f808080612b4b7f3299ac1e4997da1dd638584692e27ee6e952ca63f8284764a73c592284e1d9e8611e6a565b93509350935093505f805f612b618b855f611e91565b50985088935090505f612b7382612101565b90508099505f805f9054906101000a90046001600160a01b03166001600160a01b03166304baed9e6040518163ffffffff1660e01b8152600401602060405180830381865afa158015612bc8573d5f803e3d5ffd5b505050506040513d601f19601f82011682018060405250810190612bec9190613a89565b6001600160a01b031663fc0c546a6040518163ffffffff1660e01b8152600401602060405180830381865afa158015612c27573d5f803e3d5ffd5b505050506040513d601f19601f82011682018060405250810190612c4b9190613a89565b90505f612c5b8389606e54611e91565b6040516370a0823160e01b815230600482015290975091945091506001600160a01b038316906370a0823190602401602060405180830381865afa158015612ca5573d5f803e3d5ffd5b505050506040513d601f19601f82011682018060405250810190612cc99190613aa4565b85603a54612cd79190613ca8565b1115612cf65760405163fa4636cb60e01b815260040160405180910390fd5b8c831015612d1757604051637ac6ada560e01b815260040160405180910390fd5b612d28612d22611c0f565b8f613488565b612d3289876132b3565b612d3d8a83836131f2565b8415612d4c57612d4c85613267565b612d568f846134e6565b8e6001600160a01b03167f7debc712939ce2028bbca7ca90cc85e8fb59a7772e041423d3ec1588af4730ed8f856126bc611c0f565b5f6001600160e01b03198216630bbeca6160e01b14806105f457506105f4826134fd565b6127108111156106db57604051633ef38b5b60e11b815260040160405180910390fd5b5f612de160a45460a554612006565b60a65460408051918252602082018390529192507f4115a4eb9aa0e3f3844aae592114b04064717b51c0ecfa8bbeea2cb8b0ce62c9910160405180910390a160a655565b5f80546040805163030d028960e21b8152905183926001600160a01b031691630c340a249160048083019260209291908290030181865afa158015612e6c573d5f803e3d5ffd5b505050506040513d601f19601f82011682018060405250810190612e909190613a89565b6001600160a01b031663f2d638266040518163ffffffff1660e01b8152600401602060405180830381865afa158015612ecb573d5f803e3d5ffd5b505050506040513d601f19601f82011682018060405250810190612eef9190613a89565b5f54604051634d970f5560e11b81526001600160a01b0391821660048201523060248201526001600160e01b031986166044820152911690639b2e1eaa906064015b6040805180830381865afa158015612f4b573d5f803e3d5ffd5b505050506040513d601f19601f82011682018060405250810190612f6f9190613f8f565b91509150915091565b5f80546040805163030d028960e21b8152905183926001600160a01b031691630c340a249160048083019260209291908290030181865afa158015612fbf573d5f803e3d5ffd5b505050506040513d601f19601f82011682018060405250810190612fe39190613a89565b6001600160a01b031663f2d638266040518163ffffffff1660e01b8152600401602060405180830381865afa15801561301e573d5f803e3d5ffd5b505050506040513d601f19601f820116820180604052508101906130429190613a89565b5f546040516304e53bb360e01b81526001600160a01b0391821660048201523060248201526001600160e01b0319861660448201529116906304e53bb390606401612f31565b82810282151584158583048414171661309f575f80fd5b9190910492915050565b5f6130bd6001600160a01b03841683613531565b905080515f141580156130e15750808060200190518101906130df9190613b7f565b155b156120fc57604051635274afe760e01b81526001600160a01b0384166004820152602401611d6d565b611b568230835f8054906101000a90046001600160a01b03166001600160a01b03166304baed9e6040518163ffffffff1660e01b8152600401602060405180830381865afa15801561315e573d5f803e3d5ffd5b505050506040513d601f19601f820116820180604052508101906131829190613a89565b6001600160a01b031663fc0c546a6040518163ffffffff1660e01b8152600401602060405180830381865afa1580156131bd573d5f803e3d5ffd5b505050506040513d601f19601f820116820180604052508101906131e19190613a89565b6001600160a01b031692919061353e565b80156120fc576132018361204c565b6132156001600160a01b0383168483612088565b826001600160a01b0316826001600160a01b03167f81535d361819544361f80ddbe5071aef378a8ecba1c52f2c45fe3335234c43318360405161325a91815260200190565b60405180910390a3505050565b80603a5f8282546132789190613ca8565b90915550506040518181527fe80fee25b848daa361e28d2bb55a5631cb9e084202ab3d22e444ceac1c8b320a9060200160405180910390a150565b8015611b56576132c28261204c565b6132cc828261357d565b6038546040518281526001600160a01b038481169216907f11a26a26a718a46d85815d79165470744429ab0f3093113929c59c097bbebb9a9060200160405180910390a35050565b611b56828261357d565b7ff0c57e16840df040f15088dc2f81fe391c3923bec73e23a9662efc9c229c6a005468010000000000000000900460ff166123e357604051631afcd79f60e31b815260040160405180910390fd5b5f8160600151515f0361338057505f919050565b8160800151515f0361339357505f919050565b81511580156133a457506020820151155b80156133b257506040820151155b156133be57505f919050565b506001919050565b806001600160a01b03167f4e547b7c6b59d324fecdb926aa12300420faf3a7e12a412eb7e0da193bb0d93e826001600160a01b031663313ce5676040518163ffffffff1660e01b8152600401602060405180830381865afa15801561342d573d5f803e3d5ffd5b505050506040513d601f19601f820116820180604052508101906134519190613e81565b60405160ff909116815260200160405180910390a2603880546001600160a01b0319166001600160a01b0392909216919091179055565b603854604051632770a7eb60e21b81526001600160a01b0384811660048301526024820184905290911690639dc29fac906044015b5f604051808303815f87803b1580156134d4575f80fd5b505af11580156115b6573d5f803e3d5ffd5b611b568282610e1860a3546001600160a01b031690565b5f6001600160e01b0319821663e328951160e01b14806105f457506301ffc9a760e01b6001600160e01b03198316146105f4565b6060610c1b83835f6135b6565b6040516001600160a01b0384811660248301528381166044830152606482018390526135779186918216906323b872dd906084016120b5565b50505050565b6038546040516340c10f1960e01b81526001600160a01b03848116600483015260248201849052909116906340c10f19906044016134bd565b6060814710156135db5760405163cd78605960e01b8152306004820152602401611d6d565b5f80856001600160a01b031684866040516135f69190613fb2565b5f6040518083038185875af1925050503d805f8114613630576040519150601f19603f3d011682016040523d82523d5f602084013e613635565b606091505b509150915061364586838361364f565b9695505050505050565b6060826136645761365f826136ab565b610c1b565b815115801561367b57506001600160a01b0384163b155b156136a457604051639996b31560e01b81526001600160a01b0385166004820152602401611d6d565b5080610c1b565b8051156136bb5780518082602001fd5b604051630a12f52160e11b815260040160405180910390fd5b5f602082840312156136e4575f80fd5b81356001600160e01b031981168114610c1b575f80fd5b5f6020828403121561370b575f80fd5b5035919050565b5f805f60408486031215613724575f80fd5b83359250602084013567ffffffffffffffff80821115613742575f80fd5b818601915086601f830112613755575f80fd5b813581811115613763575f80fd5b8760208260051b8501011115613777575f80fd5b6020830194508093505050509250925092565b5f806040838503121561379b575f80fd5b50508035926020909101359150565b5f5b838110156137c45781810151838201526020016137ac565b50505f910152565b5f81518084526137e38160208601602086016137aa565b601f01601f19169290920160200192915050565b602081525f610c1b60208301846137cc565b6001600160a01b03811681146106db575f80fd5b5f806040838503121561382e575f80fd5b823561383981613809565b946020939093013593505050565b5f60208284031215613857575f80fd5b8135610c1b81613809565b5f8060408385031215613873575f80fd5b82359150602083013561388581613809565b809150509250929050565b5f805f606084860312156138a2575f80fd5b83356138ad81613809565b95602085013595506040909401359392505050565b634e487b7160e01b5f52604160045260245ffd5b60405160a0810167ffffffffffffffff811182821017156138f9576138f96138c2565b60405290565b60405160e0810167ffffffffffffffff811182821017156138f9576138f96138c2565b5f82601f830112613931575f80fd5b813567ffffffffffffffff8082111561394c5761394c6138c2565b604051601f8301601f19908116603f01168101908282118183101715613974576139746138c2565b8160405283815286602085880101111561398c575f80fd5b836020870160208301375f602085830101528094505050505092915050565b5f805f606084860312156139bd575f80fd5b83356139c881613809565b9250602084013567ffffffffffffffff808211156139e4575f80fd5b9085019060a082880312156139f7575f80fd5b6139ff6138d6565b823581526020830135602082015260408301356040820152606083013582811115613a28575f80fd5b613a3489828601613922565b606083015250608083013582811115613a4b575f80fd5b613a5789828601613922565b60808301525093506040860135915080821115613a72575f80fd5b50613a7f86828701613922565b9150509250925092565b5f60208284031215613a99575f80fd5b8151610c1b81613809565b5f60208284031215613ab4575f80fd5b5051919050565b838152604060208083018290529082018390525f90849060608401835b86811015613b06578335613aeb81613809565b6001600160a01b031682529282019290820190600101613ad8565b50979650505050505050565b600181811c90821680613b2657607f821691505b6020821081036121d957634e487b7160e01b5f52602260045260245ffd5b634e487b7160e01b5f52601160045260245ffd5b818103818111156105f4576105f4613b44565b80518015158114613b7a575f80fd5b919050565b5f60208284031215613b8f575f80fd5b610c1b82613b6b565b5f805f838503610120811215613bac575f80fd5b8451613bb781613809565b6020860151909450613bc881613809565b925060e0603f1982011215613bdb575f80fd5b50613be46138ff565b6040850151613bf281613809565b80825250606085015160208201526080850151604082015260a0850151606082015260c08501516080820152613c2a60e08601613b6b565b60a0820152613c3c6101008601613b6b565b60c0820152809150509250925092565b5f8085851115613c5a575f80fd5b83861115613c66575f80fd5b5050820193919092039150565b6bffffffffffffffffffffffff198135818116916014851015613ca05780818660140360031b1b83161692505b505092915050565b808201808211156105f4576105f4613b44565b80820281158282048414176105f4576105f4613b44565b5f82613cec57634e487b7160e01b5f52601260045260245ffd5b500490565b838152606060208201525f613d0960608301856137cc565b828103604084015261364581856137cc565b601f8211156120fc57805f5260205f20601f840160051c81016020851015613d405750805b601f840160051c820191505b81811015613d5f575f8155600101613d4c565b5050505050565b815167ffffffffffffffff811115613d8057613d806138c2565b613d9481613d8e8454613b12565b84613d1b565b602080601f831160018114613dc7575f8415613db05750858301515b5f19600386901b1c1916600185901b1785556115b6565b5f85815260208120601f198616915b82811015613df557888601518255948401946001909101908401613dd6565b5085821015613e1257878501515f19600388901b60f8161c191681555b5050505050600190811b01905550565b602081528151602082015260208201516040820152604082015160608201525f606083015160a06080840152613e5b60c08401826137cc565b90506080840151601f198483030160a0850152613e7882826137cc565b95945050505050565b5f60208284031215613e91575f80fd5b815160ff81168114610c1b575f80fd5b600181815b80851115613edb57815f1904821115613ec157613ec1613b44565b80851615613ece57918102915b93841c9390800290613ea6565b509250929050565b5f82613ef1575060016105f4565b81613efd57505f6105f4565b8160018114613f135760028114613f1d57613f39565b60019150506105f4565b60ff841115613f2e57613f2e613b44565b50506001821b6105f4565b5060208310610133831016604e8410600b8410161715613f5c575081810a6105f4565b613f668383613ea1565b805f1904821115613f7957613f79613b44565b029392505050565b5f610c1b60ff841683613ee3565b5f8060408385031215613fa0575f80fd5b82519150602083015161388581613809565b5f8251613fc38184602087016137aa565b919091019291505056fea2646970667358221220b1faf9d01beff7f8c6b371f4d7d0764f53e6ddd442424240ce66474a47a093b964736f6c63430008170033",
    "linkReferences": {}
  },
  "methodIdentifiers": {
    "MIN_RESERVE()": "09dfd0e6",
    "buy(uint256,uint256)": "d6febde8",
    "buyFee()": "47062402",
    "buyFor(address,uint256,uint256)": "935b7dbd",
    "buyIsOpen()": "c6829ba2",
    "calculateBasePriceToCapitalRatio(uint256,uint256)": "49e8e304",
    "calculatePurchaseReturn(uint256)": "322d2100",
    "calculateSaleReturn(uint256)": "69fcd4ac",
    "closeBuy()": "c6ab5cdc",
    "closeSell()": "ba83c970",
    "getBasePriceMultiplier()": "82fa3d29",
    "getBasePriceToCapitalRatio()": "ce23aa7b",
    "getBondingSurfaceFormula()": "a3f737b5",
    "getCapitalRequired()": "422eeba4",
    "getIssuanceToken()": "1ca3bc4f",
    "getStaticPriceForBuying()": "fa03330c",
    "getStaticPriceForSelling()": "bd098404",
    "grantModuleRole(bytes32,address)": "6c67e807",
    "grantModuleRoleBatched(bytes32,address[])": "272bbd44",
    "identifier()": "7998a1c4",
    "init(address,(uint256,uint256,uint256,string,string),bytes)": "b66a870c",
    "isTrustedForwarder(address)": "572b6c05",
    "openBuy()": "d4a67930",
    "openSell()": "f1eae64a",
    "orchestrator()": "b74795d9",
    "projectCollateralFeeCollected()": "cbda8f82",
    "revokeModuleRole(bytes32,address)": "bcb61920",
    "revokeModuleRoleBatched(bytes32,address[])": "24e30270",
    "sell(uint256,uint256)": "d79875eb",
    "sellFee()": "2b14ca56",
    "sellIsOpen()": "9093b01f",
    "sellTo(address,uint256,uint256)": "c5b27dde",
    "setBasePriceMultiplier(uint256)": "1ad56e3b",
    "setBuyFee(uint256)": "0cc835a3",
    "setCapitalRequired(uint256)": "700cbd90",
    "setSellFee(uint256)": "8b4cee08",
    "supportsInterface(bytes4)": "01ffc9a7",
    "title()": "4a79d50c",
    "token()": "fc0c546a",
    "transferOrchestratorToken(address,uint256)": "759cc4b5",
    "trustedForwarder()": "7da0a877",
    "url()": "5600f04f",
    "version()": "54fd4d50",
    "withdrawProjectCollateralFee(address,uint256)": "4f893bba"
  },
  "id": 126
}