{
  "abi": [
    {
      "type": "function",
      "name": "buy",
      "inputs": [
        {
          "name": "_depositAmount",
          "type": "uint256",
          "internalType": "uint256"
        },
        {
          "name": "_minAmountOut",
          "type": "uint256",
          "internalType": "uint256"
        }
      ],
      "outputs": [],
      "stateMutability": "nonpayable"
    },
    {
      "type": "function",
      "name": "buyFee",
      "inputs": [],
      "outputs": [
        {
          "name": "",
          "type": "uint256",
          "internalType": "uint256"
        }
      ],
      "stateMutability": "view"
    },
    {
      "type": "function",
      "name": "buyFor",
      "inputs": [
        {
          "name": "_receiver",
          "type": "address",
          "internalType": "address"
        },
        {
          "name": "_depositAmount",
          "type": "uint256",
          "internalType": "uint256"
        },
        {
          "name": "_minAmountOut",
          "type": "uint256",
          "internalType": "uint256"
        }
      ],
      "outputs": [],
      "stateMutability": "nonpayable"
    },
    {
      "type": "function",
      "name": "buyIsOpen",
      "inputs": [],
      "outputs": [
        {
          "name": "",
          "type": "bool",
          "internalType": "bool"
        }
      ],
      "stateMutability": "view"
    },
    {
      "type": "function",
      "name": "calculatePurchaseReturn",
      "inputs": [
        {
          "name": "_depositAmount",
          "type": "uint256",
          "internalType": "uint256"
        }
      ],
      "outputs": [
        {
          "name": "mintAmount",
          "type": "uint256",
          "internalType": "uint256"
        }
      ],
      "stateMutability": "view"
    },
    {
      "type": "function",
      "name": "calculateSaleReturn",
      "inputs": [
        {
          "name": "_depositAmount",
          "type": "uint256",
          "internalType": "uint256"
        }
      ],
      "outputs": [
        {
          "name": "redeemAmount",
          "type": "uint256",
          "internalType": "uint256"
        }
      ],
      "stateMutability": "view"
    },
    {
      "type": "function",
      "name": "closeBuy",
      "inputs": [],
      "outputs": [],
      "stateMutability": "nonpayable"
    },
    {
      "type": "function",
      "name": "closeSell",
      "inputs": [],
      "outputs": [],
      "stateMutability": "nonpayable"
    },
    {
      "type": "function",
      "name": "formula",
      "inputs": [],
      "outputs": [
        {
          "name": "",
          "type": "address",
          "internalType": "contract IBancorFormula"
        }
      ],
      "stateMutability": "view"
    },
    {
      "type": "function",
      "name": "getIssuanceToken",
      "inputs": [],
      "outputs": [
        {
          "name": "",
          "type": "address",
          "internalType": "address"
        }
      ],
      "stateMutability": "view"
    },
    {
      "type": "function",
      "name": "getReserveRatioForBuying",
      "inputs": [],
      "outputs": [
        {
          "name": "",
          "type": "uint32",
          "internalType": "uint32"
        }
      ],
      "stateMutability": "view"
    },
    {
      "type": "function",
      "name": "getReserveRatioForSelling",
      "inputs": [],
      "outputs": [
        {
          "name": "",
          "type": "uint32",
          "internalType": "uint32"
        }
      ],
      "stateMutability": "view"
    },
    {
      "type": "function",
      "name": "getStaticPriceForBuying",
      "inputs": [],
      "outputs": [
        {
          "name": "",
          "type": "uint256",
          "internalType": "uint256"
        }
      ],
      "stateMutability": "view"
    },
    {
      "type": "function",
      "name": "getStaticPriceForSelling",
      "inputs": [],
      "outputs": [
        {
          "name": "",
          "type": "uint256",
          "internalType": "uint256"
        }
      ],
      "stateMutability": "view"
    },
    {
      "type": "function",
      "name": "getVirtualCollateralSupply",
      "inputs": [],
      "outputs": [
        {
          "name": "",
          "type": "uint256",
          "internalType": "uint256"
        }
      ],
      "stateMutability": "view"
    },
    {
      "type": "function",
      "name": "getVirtualIssuanceSupply",
      "inputs": [],
      "outputs": [
        {
          "name": "",
          "type": "uint256",
          "internalType": "uint256"
        }
      ],
      "stateMutability": "view"
    },
    {
      "type": "function",
      "name": "grantModuleRole",
      "inputs": [
        {
          "name": "role",
          "type": "bytes32",
          "internalType": "bytes32"
        },
        {
          "name": "target",
          "type": "address",
          "internalType": "address"
        }
      ],
      "outputs": [],
      "stateMutability": "nonpayable"
    },
    {
      "type": "function",
      "name": "grantModuleRoleBatched",
      "inputs": [
        {
          "name": "role",
          "type": "bytes32",
          "internalType": "bytes32"
        },
        {
          "name": "targets",
          "type": "address[]",
          "internalType": "address[]"
        }
      ],
      "outputs": [],
      "stateMutability": "nonpayable"
    },
    {
      "type": "function",
      "name": "identifier",
      "inputs": [],
      "outputs": [
        {
          "name": "",
          "type": "bytes32",
          "internalType": "bytes32"
        }
      ],
      "stateMutability": "view"
    },
    {
      "type": "function",
      "name": "init",
      "inputs": [
        {
          "name": "orchestrator_",
          "type": "address",
          "internalType": "contract IOrchestrator_v1"
        },
        {
          "name": "metadata",
          "type": "tuple",
          "internalType": "struct IModule_v1.Metadata",
          "components": [
            {
              "name": "majorVersion",
              "type": "uint256",
              "internalType": "uint256"
            },
            {
              "name": "minorVersion",
              "type": "uint256",
              "internalType": "uint256"
            },
            {
              "name": "patchVersion",
              "type": "uint256",
              "internalType": "uint256"
            },
            {
              "name": "url",
              "type": "string",
              "internalType": "string"
            },
            {
              "name": "title",
              "type": "string",
              "internalType": "string"
            }
          ]
        },
        {
          "name": "configData",
          "type": "bytes",
          "internalType": "bytes"
        }
      ],
      "outputs": [],
      "stateMutability": "nonpayable"
    },
    {
      "type": "function",
      "name": "isTrustedForwarder",
      "inputs": [
        {
          "name": "forwarder",
          "type": "address",
          "internalType": "address"
        }
      ],
      "outputs": [
        {
          "name": "",
          "type": "bool",
          "internalType": "bool"
        }
      ],
      "stateMutability": "view"
    },
    {
      "type": "function",
      "name": "openBuy",
      "inputs": [],
      "outputs": [],
      "stateMutability": "nonpayable"
    },
    {
      "type": "function",
      "name": "openSell",
      "inputs": [],
      "outputs": [],
      "stateMutability": "nonpayable"
    },
    {
      "type": "function",
      "name": "orchestrator",
      "inputs": [],
      "outputs": [
        {
          "name": "",
          "type": "address",
          "internalType": "contract IOrchestrator_v1"
        }
      ],
      "stateMutability": "view"
    },
    {
      "type": "function",
      "name": "projectCollateralFeeCollected",
      "inputs": [],
      "outputs": [
        {
          "name": "",
          "type": "uint256",
          "internalType": "uint256"
        }
      ],
      "stateMutability": "view"
    },
    {
      "type": "function",
      "name": "revokeModuleRole",
      "inputs": [
        {
          "name": "role",
          "type": "bytes32",
          "internalType": "bytes32"
        },
        {
          "name": "target",
          "type": "address",
          "internalType": "address"
        }
      ],
      "outputs": [],
      "stateMutability": "nonpayable"
    },
    {
      "type": "function",
      "name": "revokeModuleRoleBatched",
      "inputs": [
        {
          "name": "role",
          "type": "bytes32",
          "internalType": "bytes32"
        },
        {
          "name": "targets",
          "type": "address[]",
          "internalType": "address[]"
        }
      ],
      "outputs": [],
      "stateMutability": "nonpayable"
    },
    {
      "type": "function",
      "name": "sell",
      "inputs": [
        {
          "name": "_depositAmount",
          "type": "uint256",
          "internalType": "uint256"
        },
        {
          "name": "_minAmountOut",
          "type": "uint256",
          "internalType": "uint256"
        }
      ],
      "outputs": [],
      "stateMutability": "nonpayable"
    },
    {
      "type": "function",
      "name": "sellFee",
      "inputs": [],
      "outputs": [
        {
          "name": "",
          "type": "uint256",
          "internalType": "uint256"
        }
      ],
      "stateMutability": "view"
    },
    {
      "type": "function",
      "name": "sellIsOpen",
      "inputs": [],
      "outputs": [
        {
          "name": "",
          "type": "bool",
          "internalType": "bool"
        }
      ],
      "stateMutability": "view"
    },
    {
      "type": "function",
      "name": "sellTo",
      "inputs": [
        {
          "name": "_receiver",
          "type": "address",
          "internalType": "address"
        },
        {
          "name": "_depositAmount",
          "type": "uint256",
          "internalType": "uint256"
        },
        {
          "name": "_minAmountOut",
          "type": "uint256",
          "internalType": "uint256"
        }
      ],
      "outputs": [],
      "stateMutability": "nonpayable"
    },
    {
      "type": "function",
      "name": "setBuyFee",
      "inputs": [
        {
          "name": "_fee",
          "type": "uint256",
          "internalType": "uint256"
        }
      ],
      "outputs": [],
      "stateMutability": "nonpayable"
    },
    {
      "type": "function",
      "name": "setReserveRatioForBuying",
      "inputs": [
        {
          "name": "_reserveRatio",
          "type": "uint32",
          "internalType": "uint32"
        }
      ],
      "outputs": [],
      "stateMutability": "nonpayable"
    },
    {
      "type": "function",
      "name": "setReserveRatioForSelling",
      "inputs": [
        {
          "name": "_reserveRatio",
          "type": "uint32",
          "internalType": "uint32"
        }
      ],
      "outputs": [],
      "stateMutability": "nonpayable"
    },
    {
      "type": "function",
      "name": "setSellFee",
      "inputs": [
        {
          "name": "_fee",
          "type": "uint256",
          "internalType": "uint256"
        }
      ],
      "outputs": [],
      "stateMutability": "nonpayable"
    },
    {
      "type": "function",
      "name": "setVirtualCollateralSupply",
      "inputs": [
        {
          "name": "_virtualSupply",
          "type": "uint256",
          "internalType": "uint256"
        }
      ],
      "outputs": [],
      "stateMutability": "nonpayable"
    },
    {
      "type": "function",
      "name": "setVirtualIssuanceSupply",
      "inputs": [
        {
          "name": "_virtualSupply",
          "type": "uint256",
          "internalType": "uint256"
        }
      ],
      "outputs": [],
      "stateMutability": "nonpayable"
    },
    {
      "type": "function",
      "name": "supportsInterface",
      "inputs": [
        {
          "name": "interfaceId",
          "type": "bytes4",
          "internalType": "bytes4"
        }
      ],
      "outputs": [
        {
          "name": "",
          "type": "bool",
          "internalType": "bool"
        }
      ],
      "stateMutability": "view"
    },
    {
      "type": "function",
      "name": "title",
      "inputs": [],
      "outputs": [
        {
          "name": "",
          "type": "string",
          "internalType": "string"
        }
      ],
      "stateMutability": "view"
    },
    {
      "type": "function",
      "name": "token",
      "inputs": [],
      "outputs": [
        {
          "name": "",
          "type": "address",
          "internalType": "contract IERC20"
        }
      ],
      "stateMutability": "view"
    },
    {
      "type": "function",
      "name": "transferOrchestratorToken",
      "inputs": [
        {
          "name": "to",
          "type": "address",
          "internalType": "address"
        },
        {
          "name": "amount",
          "type": "uint256",
          "internalType": "uint256"
        }
      ],
      "outputs": [],
      "stateMutability": "nonpayable"
    },
    {
      "type": "function",
      "name": "trustedForwarder",
      "inputs": [],
      "outputs": [
        {
          "name": "",
          "type": "address",
          "internalType": "address"
        }
      ],
      "stateMutability": "view"
    },
    {
      "type": "function",
      "name": "url",
      "inputs": [],
      "outputs": [
        {
          "name": "",
          "type": "string",
          "internalType": "string"
        }
      ],
      "stateMutability": "view"
    },
    {
      "type": "function",
      "name": "version",
      "inputs": [],
      "outputs": [
        {
          "name": "",
          "type": "uint256",
          "internalType": "uint256"
        },
        {
          "name": "",
          "type": "uint256",
          "internalType": "uint256"
        },
        {
          "name": "",
          "type": "uint256",
          "internalType": "uint256"
        }
      ],
      "stateMutability": "view"
    },
    {
      "type": "function",
      "name": "withdrawProjectCollateralFee",
      "inputs": [
        {
          "name": "_receiver",
          "type": "address",
          "internalType": "address"
        },
        {
          "name": "_amount",
          "type": "uint256",
          "internalType": "uint256"
        }
      ],
      "outputs": [],
      "stateMutability": "nonpayable"
    },
    {
      "type": "event",
      "name": "BuyFeeUpdated",
      "inputs": [
        {
          "name": "newBuyFee",
          "type": "uint256",
          "indexed": false,
          "internalType": "uint256"
        },
        {
          "name": "oldBuyFee",
          "type": "uint256",
          "indexed": false,
          "internalType": "uint256"
        }
      ],
      "anonymous": false
    },
    {
      "type": "event",
      "name": "BuyReserveRatioSet",
      "inputs": [
        {
          "name": "newBuyReserveRatio",
          "type": "uint32",
          "indexed": false,
          "internalType": "uint32"
        },
        {
          "name": "oldBuyReserveRatio",
          "type": "uint32",
          "indexed": false,
          "internalType": "uint32"
        }
      ],
      "anonymous": false
    },
    {
      "type": "event",
      "name": "BuyingDisabled",
      "inputs": [],
      "anonymous": false
    },
    {
      "type": "event",
      "name": "BuyingEnabled",
      "inputs": [],
      "anonymous": false
    },
    {
      "type": "event",
      "name": "Initialized",
      "inputs": [
        {
          "name": "version",
          "type": "uint64",
          "indexed": false,
          "internalType": "uint64"
        }
      ],
      "anonymous": false
    },
    {
      "type": "event",
      "name": "IssuanceTokenSet",
      "inputs": [
        {
          "name": "issuanceToken",
          "type": "address",
          "indexed": true,
          "internalType": "address"
        },
        {
          "name": "decimals",
          "type": "uint8",
          "indexed": false,
          "internalType": "uint8"
        }
      ],
      "anonymous": false
    },
    {
      "type": "event",
      "name": "ModuleInitialized",
      "inputs": [
        {
          "name": "parentOrchestrator",
          "type": "address",
          "indexed": true,
          "internalType": "address"
        },
        {
          "name": "metadata",
          "type": "tuple",
          "indexed": false,
          "internalType": "struct IModule_v1.Metadata",
          "components": [
            {
              "name": "majorVersion",
              "type": "uint256",
              "internalType": "uint256"
            },
            {
              "name": "minorVersion",
              "type": "uint256",
              "internalType": "uint256"
            },
            {
              "name": "patchVersion",
              "type": "uint256",
              "internalType": "uint256"
            },
            {
              "name": "url",
              "type": "string",
              "internalType": "string"
            },
            {
              "name": "title",
              "type": "string",
              "internalType": "string"
            }
          ]
        }
      ],
      "anonymous": false
    },
    {
      "type": "event",
      "name": "OrchestratorTokenSet",
      "inputs": [
        {
          "name": "token",
          "type": "address",
          "indexed": true,
          "internalType": "address"
        },
        {
          "name": "decimals",
          "type": "uint8",
          "indexed": false,
          "internalType": "uint8"
        }
      ],
      "anonymous": false
    },
    {
      "type": "event",
      "name": "ProjectCollateralFeeWithdrawn",
      "inputs": [
        {
          "name": "receiver",
          "type": "address",
          "indexed": false,
          "internalType": "address"
        },
        {
          "name": "amount",
          "type": "uint256",
          "indexed": false,
          "internalType": "uint256"
        }
      ],
      "anonymous": false
    },
    {
      "type": "event",
      "name": "ProtocolFeeMinted",
      "inputs": [
        {
          "name": "token",
          "type": "address",
          "indexed": true,
          "internalType": "address"
        },
        {
          "name": "treasury",
          "type": "address",
          "indexed": true,
          "internalType": "address"
        },
        {
          "name": "feeAmount",
          "type": "uint256",
          "indexed": false,
          "internalType": "uint256"
        }
      ],
      "anonymous": false
    },
    {
      "type": "event",
      "name": "ProtocolFeeTransferred",
      "inputs": [
        {
          "name": "token",
          "type": "address",
          "indexed": true,
          "internalType": "address"
        },
        {
          "name": "treasury",
          "type": "address",
          "indexed": true,
          "internalType": "address"
        },
        {
          "name": "feeAmount",
          "type": "uint256",
          "indexed": false,
          "internalType": "uint256"
        }
      ],
      "anonymous": false
    },
    {
      "type": "event",
      "name": "SellFeeUpdated",
      "inputs": [
        {
          "name": "newSellFee",
          "type": "uint256",
          "indexed": false,
          "internalType": "uint256"
        },
        {
          "name": "oldSellFee",
          "type": "uint256",
          "indexed": false,
          "internalType": "uint256"
        }
      ],
      "anonymous": false
    },
    {
      "type": "event",
      "name": "SellReserveRatioSet",
      "inputs": [
        {
          "name": "newSellReserveRatio",
          "type": "uint32",
          "indexed": false,
          "internalType": "uint32"
        },
        {
          "name": "oldSellReserveRatio",
          "type": "uint32",
          "indexed": false,
          "internalType": "uint32"
        }
      ],
      "anonymous": false
    },
    {
      "type": "event",
      "name": "SellingDisabled",
      "inputs": [],
      "anonymous": false
    },
    {
      "type": "event",
      "name": "SellingEnabled",
      "inputs": [],
      "anonymous": false
    },
    {
      "type": "event",
      "name": "TokenDecimalsUpdated",
      "inputs": [
        {
          "name": "oldDecimals",
          "type": "uint8",
          "indexed": false,
          "internalType": "uint8"
        },
        {
          "name": "newDecimals",
          "type": "uint8",
          "indexed": false,
          "internalType": "uint8"
        }
      ],
      "anonymous": false
    },
    {
      "type": "event",
      "name": "TokensBought",
      "inputs": [
        {
          "name": "receiver",
          "type": "address",
          "indexed": true,
          "internalType": "address"
        },
        {
          "name": "depositAmount",
          "type": "uint256",
          "indexed": false,
          "internalType": "uint256"
        },
        {
          "name": "receivedAmount",
          "type": "uint256",
          "indexed": false,
          "internalType": "uint256"
        },
        {
          "name": "buyer",
          "type": "address",
          "indexed": false,
          "internalType": "address"
        }
      ],
      "anonymous": false
    },
    {
      "type": "event",
      "name": "TokensSold",
      "inputs": [
        {
          "name": "receiver",
          "type": "address",
          "indexed": true,
          "internalType": "address"
        },
        {
          "name": "depositAmount",
          "type": "uint256",
          "indexed": false,
          "internalType": "uint256"
        },
        {
          "name": "receivedAmount",
          "type": "uint256",
          "indexed": false,
          "internalType": "uint256"
        },
        {
          "name": "seller",
          "type": "address",
          "indexed": false,
          "internalType": "address"
        }
      ],
      "anonymous": false
    },
    {
      "type": "event",
      "name": "TransferOrchestratorToken",
      "inputs": [
        {
          "name": "_to",
          "type": "address",
          "indexed": true,
          "internalType": "address"
        },
        {
          "name": "_amount",
          "type": "uint256",
          "indexed": false,
          "internalType": "uint256"
        }
      ],
      "anonymous": false
    },
    {
      "type": "event",
      "name": "VirtualCollateralAmountAdded",
      "inputs": [
        {
          "name": "amountAdded",
          "type": "uint256",
          "indexed": false,
          "internalType": "uint256"
        },
        {
          "name": "newSupply",
          "type": "uint256",
          "indexed": false,
          "internalType": "uint256"
        }
      ],
      "anonymous": false
    },
    {
      "type": "event",
      "name": "VirtualCollateralAmountSubtracted",
      "inputs": [
        {
          "name": "amountSubtracted",
          "type": "uint256",
          "indexed": false,
          "internalType": "uint256"
        },
        {
          "name": "newSupply",
          "type": "uint256",
          "indexed": false,
          "internalType": "uint256"
        }
      ],
      "anonymous": false
    },
    {
      "type": "event",
      "name": "VirtualCollateralSupplySet",
      "inputs": [
        {
          "name": "newSupply",
          "type": "uint256",
          "indexed": false,
          "internalType": "uint256"
        },
        {
          "name": "oldSupply",
          "type": "uint256",
          "indexed": false,
          "internalType": "uint256"
        }
      ],
      "anonymous": false
    },
    {
      "type": "event",
      "name": "VirtualIssuanceAmountAdded",
      "inputs": [
        {
          "name": "amountAdded",
          "type": "uint256",
          "indexed": false,
          "internalType": "uint256"
        },
        {
          "name": "newSupply",
          "type": "uint256",
          "indexed": false,
          "internalType": "uint256"
        }
      ],
      "anonymous": false
    },
    {
      "type": "event",
      "name": "VirtualIssuanceAmountSubtracted",
      "inputs": [
        {
          "name": "amountSubtracted",
          "type": "uint256",
          "indexed": false,
          "internalType": "uint256"
        },
        {
          "name": "newSupply",
          "type": "uint256",
          "indexed": false,
          "internalType": "uint256"
        }
      ],
      "anonymous": false
    },
    {
      "type": "event",
      "name": "VirtualIssuanceSupplySet",
      "inputs": [
        {
          "name": "newSupply",
          "type": "uint256",
          "indexed": false,
          "internalType": "uint256"
        },
        {
          "name": "oldSupply",
          "type": "uint256",
          "indexed": false,
          "internalType": "uint256"
        }
      ],
      "anonymous": false
    },
    {
      "type": "error",
      "name": "AddressEmptyCode",
      "inputs": [
        {
          "name": "target",
          "type": "address",
          "internalType": "address"
        }
      ]
    },
    {
      "type": "error",
      "name": "AddressInsufficientBalance",
      "inputs": [
        {
          "name": "account",
          "type": "address",
          "internalType": "address"
        }
      ]
    },
    {
      "type": "error",
      "name": "FailedInnerCall",
      "inputs": []
    },
    {
      "type": "error",
      "name": "InvalidInitialization",
      "inputs": []
    },
    {
      "type": "error",
      "name": "Module_OrchestratorCallbackFailed",
      "inputs": [
        {
          "name": "funcSig",
          "type": "string",
          "internalType": "string"
        }
      ]
    },
    {
      "type": "error",
      "name": "Module__BondingCurveBase__BuyingFunctionaltiesClosed",
      "inputs": []
    },
    {
      "type": "error",
      "name": "Module__BondingCurveBase__FeeAmountToHigh",
      "inputs": []
    },
    {
      "type": "error",
      "name": "Module__BondingCurveBase__InsufficientOutputAmount",
      "inputs": []
    },
    {
      "type": "error",
      "name": "Module__BondingCurveBase__InvalidDepositAmount",
      "inputs": []
    },
    {
      "type": "error",
      "name": "Module__BondingCurveBase__InvalidFeePercentage",
      "inputs": []
    },
    {
      "type": "error",
      "name": "Module__BondingCurveBase__InvalidMinAmountOut",
      "inputs": []
    },
    {
      "type": "error",
      "name": "Module__BondingCurveBase__InvalidRecipient",
      "inputs": []
    },
    {
      "type": "error",
      "name": "Module__BondingCurveBase__InvalidWithdrawAmount",
      "inputs": []
    },
    {
      "type": "error",
      "name": "Module__BondingCurveBase__TradeAmountTooLow",
      "inputs": []
    },
    {
      "type": "error",
      "name": "Module__CallerNotAuthorized",
      "inputs": [
        {
          "name": "role",
          "type": "bytes32",
          "internalType": "bytes32"
        },
        {
          "name": "caller",
          "type": "address",
          "internalType": "address"
        }
      ]
    },
    {
      "type": "error",
      "name": "Module__FM_BC_Bancor_Redeeming_VirtualSupply__CurveInteractionsMustBeClosed",
      "inputs": []
    },
    {
      "type": "error",
      "name": "Module__FM_BC_Bancor_Redeeming_VirtualSupply__InvalidBancorFormula",
      "inputs": []
    },
    {
      "type": "error",
      "name": "Module__FM_BC_Bancor_Redeeming_VirtualSupply__InvalidOrchestratorTokenWithdrawAmount",
      "inputs": []
    },
    {
      "type": "error",
      "name": "Module__FM_BC_Bancor_Redeeming_VirtualSupply__InvalidReserveRatio",
      "inputs": []
    },
    {
      "type": "error",
      "name": "Module__FM_BC_Bancor_Redeeming_VirtualSupply__InvalidTokenDecimal",
      "inputs": []
    },
    {
      "type": "error",
      "name": "Module__InvalidAddress",
      "inputs": []
    },
    {
      "type": "error",
      "name": "Module__InvalidMetadata",
      "inputs": []
    },
    {
      "type": "error",
      "name": "Module__InvalidOrchestratorAddress",
      "inputs": []
    },
    {
      "type": "error",
      "name": "Module__OnlyCallableByOrchestrator",
      "inputs": []
    },
    {
      "type": "error",
      "name": "Module__OnlyCallableByPaymentClient",
      "inputs": []
    },
    {
      "type": "error",
      "name": "Module__RedeemingBondingCurveBase__InsufficientCollateralForRedemption",
      "inputs": []
    },
    {
      "type": "error",
      "name": "Module__RedeemingBondingCurveBase__SellingFunctionaltiesClosed",
      "inputs": []
    },
    {
      "type": "error",
      "name": "Module__VirtualCollateralSupplyBase__AddResultsInOverflow",
      "inputs": []
    },
    {
      "type": "error",
      "name": "Module__VirtualCollateralSupplyBase__SubtractResultsInUnderflow",
      "inputs": []
    },
    {
      "type": "error",
      "name": "Module__VirtualCollateralSupplyBase__VirtualSupplyCannotBeZero",
      "inputs": []
    },
    {
      "type": "error",
      "name": "Module__VirtualIssuanceSupplyBase__AddResultsInOverflow",
      "inputs": []
    },
    {
      "type": "error",
      "name": "Module__VirtualIssuanceSupplyBase__SubtractResultsInUnderflow",
      "inputs": []
    },
    {
      "type": "error",
      "name": "Module__VirtualIssuanceSupplyBase__VirtualSupplyCannotBeZero",
      "inputs": []
    },
    {
      "type": "error",
      "name": "NotInitializing",
      "inputs": []
    },
    {
      "type": "error",
      "name": "SafeERC20FailedOperation",
      "inputs": [
        {
          "name": "token",
          "type": "address",
          "internalType": "address"
        }
      ]
    }
  ],
  "bytecode": {
    "object": "0x60a06040523480156200001157600080fd5b5060006080526200002162000027565b620000db565b7ff0c57e16840df040f15088dc2f81fe391c3923bec73e23a9662efc9c229c6a00805468010000000000000000900460ff1615620000785760405163f92ee8a960e01b815260040160405180910390fd5b80546001600160401b0390811614620000d85780546001600160401b0319166001600160401b0390811782556040519081527fc7f505b2f371ae2175ee4913f4499e1f2633a7b5936321eed1cdaeb6115181d29060200160405180910390a15b50565b60805161459b620000f46000396000505061459b6000f3fe608060405234801561001057600080fd5b50600436106102ff5760003560e01c80638ac631e61161019c578063bf75292b116100ee578063d4a6793011610097578063f1eae64a11610071578063f1eae64a146105fc578063fa03330c14610604578063fc0c546a1461060c57600080fd5b8063d4a67930146105ce578063d6febde8146105d6578063d79875eb146105e957600080fd5b8063c6ab5cdc116100c8578063c6ab5cdc146105b5578063cbda8f82146105bd578063d1c6022f146105c657600080fd5b8063bf75292b14610586578063c5b27dde1461058e578063c6829ba2146105a157600080fd5b8063b66a870c11610150578063ba83c9701161012a578063ba83c97014610563578063bcb619201461056b578063bd0984041461057e57600080fd5b8063b66a870c1461052c578063b74795d91461053f578063b88a2cf61461055057600080fd5b80639093b01f116101815780639093b01f146104f6578063935b7dbd14610503578063a8a539d91461051657600080fd5b80638ac631e6146104d05780638b4cee08146104e357600080fd5b806351cac5de1161025557806369fcd4ac11610209578063759cc4b5116101e3578063759cc4b5146104ad5780637998a1c4146104c05780637da0a877146104c857600080fd5b806369fcd4ac146104745780636c67e807146104875780636e4233791461049a57600080fd5b80635600f04f1161023a5780635600f04f14610432578063572b6c051461043a5780636115db1c1461044d57600080fd5b806351cac5de146103fb57806354fd4d501461040e57600080fd5b80632b14ca56116102b75780634a79d50c116102915780634a79d50c146103bf5780634b75f54f146103d45780634f893bba146103e857600080fd5b80632b14ca561461038c578063322d2100146103a357806347062402146103b657600080fd5b80631ca3bc4f116102e85780631ca3bc4f1461034157806324e3027014610366578063272bbd441461037957600080fd5b806301ffc9a7146103045780630cc835a31461032c575b600080fd5b610317610312366004613b91565b61061e565b60405190151581526020015b60405180910390f35b61033f61033a366004613bbb565b610664565b005b609e546001600160a01b03165b6040516001600160a01b039091168152602001610323565b61033f610374366004613bd4565b61074d565b61033f610387366004613bd4565b6109dd565b61039560d45481565b604051908152602001610323565b6103956103b1366004613bbb565b610bc6565b610395609f5481565b6103c7610c6c565b6040516103239190613ca3565b6101075461034e906001600160a01b031681565b61033f6103f6366004613ccb565b610d01565b61033f610409366004613bbb565b610ec6565b60675460685460695460408051938452602084019290925290820152606001610323565b6103c7610f22565b610317610448366004613cf7565b610f34565b61010754600160c01b900463ffffffff165b60405163ffffffff9091168152602001610323565b610395610482366004613bbb565b610fa3565b61033f610495366004613d14565b611041565b61033f6104a8366004613bbb565b611266565b61033f6104bb366004613ccb565b6112c2565b6103956113cd565b61034e61152b565b61033f6104de366004613d56565b611599565b61033f6104f1366004613bbb565b6115f5565b60d3546103179060ff1681565b61033f610511366004613d73565b611649565b61010754600160a01b900463ffffffff1661045f565b61033f61053a366004613e98565b611690565b6066546001600160a01b031661034e565b61033f61055e366004613d56565b611a41565b61033f611a9d565b61033f610579366004613d14565b611b1d565b610395611d0e565b603354610395565b61033f61059c366004613d73565b611d88565b609e5461031790600160a01b900460ff1681565b61033f611dc8565b61039560a05481565b600054610395565b61033f611e4b565b61033f6105e4366004613f7e565b611ed4565b61033f6105f7366004613f7e565b611ef2565b61033f611f0c565b610395611f8f565b610108546001600160a01b031661034e565b60006001600160e01b0319821663fbfcffd560e01b148061064f57506001600160e01b0319821663899090df60e01b145b8061065e575061065e82611fc1565b92915050565b6066546040805163d09edf3160e01b81529051610741926001600160a01b03169163d09edf319160048083019260209291908290030181865afa1580156106af573d6000803e3d6000fd5b505050506040513d601f19601f820116820180604052508101906106d39190613fa0565b6001600160a01b031663b3ecf2366040518163ffffffff1660e01b8152600401602060405180830381865afa158015610710573d6000803e3d6000fd5b505050506040513d601f19601f820116820180604052508101906107349190613fbd565b61073c611fe6565b612038565b61074a81612156565b50565b826000606660009054906101000a90046001600160a01b03166001600160a01b031663d09edf316040518163ffffffff1660e01b8152600401602060405180830381865afa1580156107a3573d6000803e3d6000fd5b505050506040513d601f19601f820116820180604052508101906107c79190613fa0565b60405163fdd5205f60e01b8152306004820152602481018490526001600160a01b03919091169063fdd5205f90604401602060405180830381865afa158015610814573d6000803e3d6000fd5b505050506040513d601f19601f820116820180604052508101906108389190613fbd565b90506108fe606660009054906101000a90046001600160a01b03166001600160a01b031663d09edf316040518163ffffffff1660e01b8152600401602060405180830381865afa158015610890573d6000803e3d6000fd5b505050506040513d601f19601f820116820180604052508101906108b49190613fa0565b6001600160a01b031663248a9ca3836040518263ffffffff1660e01b81526004016108e191815260200190565b602060405180830381865afa158015610710573d6000803e3d6000fd5b606660009054906101000a90046001600160a01b03166001600160a01b031663d09edf316040518163ffffffff1660e01b8152600401602060405180830381865afa158015610951573d6000803e3d6000fd5b505050506040513d601f19601f820116820180604052508101906109759190613fa0565b6001600160a01b0316637d540a648686866040518463ffffffff1660e01b81526004016109a493929190613fd6565b600060405180830381600087803b1580156109be57600080fd5b505af11580156109d2573d6000803e3d6000fd5b505050505050505050565b826000606660009054906101000a90046001600160a01b03166001600160a01b031663d09edf316040518163ffffffff1660e01b8152600401602060405180830381865afa158015610a33573d6000803e3d6000fd5b505050506040513d601f19601f82011682018060405250810190610a579190613fa0565b60405163fdd5205f60e01b8152306004820152602481018490526001600160a01b03919091169063fdd5205f90604401602060405180830381865afa158015610aa4573d6000803e3d6000fd5b505050506040513d601f19601f82011682018060405250810190610ac89190613fbd565b9050610b20606660009054906101000a90046001600160a01b03166001600160a01b031663d09edf316040518163ffffffff1660e01b8152600401602060405180830381865afa158015610890573d6000803e3d6000fd5b606660009054906101000a90046001600160a01b03166001600160a01b031663d09edf316040518163ffffffff1660e01b8152600401602060405180830381865afa158015610b73573d6000803e3d6000fd5b505050506040513d601f19601f82011682018060405250810190610b979190613fa0565b6001600160a01b031663648154538686866040518463ffffffff1660e01b81526004016109a493929190613fd6565b6000610bd38260016121a1565b60408051808201909152601c81527f5f6275794f7264657228616464726573732c75696e742c75696e742900000000602090910152600080610c347fdb2c93faffa8f98d8bcd55cf740e8ead65ac1699aaf6ee8a00820485fc802af66121e3565b935093505050610c478483609f5461220c565b50909450610c619050610c59856122db565b82600061220c565b509095945050505050565b606060676004018054610c7e9061402e565b80601f0160208091040260200160405190810160405280929190818152602001828054610caa9061402e565b8015610cf75780601f10610ccc57610100808354040283529160200191610cf7565b820191906000526020600020905b815481529060010190602001808311610cda57829003601f168201915b5050505050905090565b81610d0b816123f7565b6066546040805163d09edf3160e01b81529051610d56926001600160a01b03169163d09edf319160048083019260209291908290030181865afa1580156106af573d6000803e3d6000fd5b60a054821115610d79576040516347d1bcf560e01b815260040160405180910390fd5b8160a06000828254610d8b919061407e565b92505081905550610e7f8383606660009054906101000a90046001600160a01b03166001600160a01b03166304baed9e6040518163ffffffff1660e01b8152600401602060405180830381865afa158015610dea573d6000803e3d6000fd5b505050506040513d601f19601f82011682018060405250810190610e0e9190613fa0565b6001600160a01b031663fc0c546a6040518163ffffffff1660e01b8152600401602060405180830381865afa158015610e4b573d6000803e3d6000fd5b505050506040513d601f19601f82011682018060405250810190610e6f9190613fa0565b6001600160a01b03169190612433565b604080516001600160a01b0385168152602081018490527f9e9a785b42ae3ce89ea11b526c656a7cacbd520b83908336dc8c9f4e9be9135f910160405180910390a1505050565b6066546040805163d09edf3160e01b81529051610f11926001600160a01b03169163d09edf319160048083019260209291908290030181865afa1580156106af573d6000803e3d6000fd5b610f196124ac565b61074a816124f0565b606060676003018054610c7e9061402e565b60665460405163572b6c0560e01b81526001600160a01b038381166004830152600092169063572b6c0590602401602060405180830381865afa158015610f7f573d6000803e3d6000fd5b505050506040513d601f19601f8201168201806040525081019061065e91906140a6565b6000610fb08260016121a1565b60408051808201909152601d81527f5f73656c6c4f7264657228616464726573732c75696e742c75696e74290000006020909101526000806110117f3299ac1e4997da1dd638584692e27ee6e952ca63f8284764a73c592284e1d9e86121e3565b9350935050506110238482600061220c565b5090945061103290508461254b565b9250610c61838360d45461220c565b816000606660009054906101000a90046001600160a01b03166001600160a01b031663d09edf316040518163ffffffff1660e01b8152600401602060405180830381865afa158015611097573d6000803e3d6000fd5b505050506040513d601f19601f820116820180604052508101906110bb9190613fa0565b60405163fdd5205f60e01b8152306004820152602481018490526001600160a01b03919091169063fdd5205f90604401602060405180830381865afa158015611108573d6000803e3d6000fd5b505050506040513d601f19601f8201168201806040525081019061112c9190613fbd565b9050611184606660009054906101000a90046001600160a01b03166001600160a01b031663d09edf316040518163ffffffff1660e01b8152600401602060405180830381865afa158015610890573d6000803e3d6000fd5b606660009054906101000a90046001600160a01b03166001600160a01b031663d09edf316040518163ffffffff1660e01b8152600401602060405180830381865afa1580156111d7573d6000803e3d6000fd5b505050506040513d601f19601f820116820180604052508101906111fb9190613fa0565b60405163385e205560e21b8152600481018690526001600160a01b038581166024830152919091169063e1788154906044015b600060405180830381600087803b15801561124857600080fd5b505af115801561125c573d6000803e3d6000fd5b5050505050505050565b6066546040805163d09edf3160e01b815290516112b1926001600160a01b03169163d09edf319160048083019260209291908290030181865afa1580156106af573d6000803e3d6000fd5b6112b96124ac565b61074a81612666565b6112ca61266f565b60a054610108546001600160a01b03166040516370a0823160e01b81523060048201526001600160a01b0391909116906370a0823190602401602060405180830381865afa158015611320573d6000803e3d6000fd5b505050506040513d601f19601f820116820180604052508101906113449190613fbd565b61134e919061407e565b81111561136e57604051633b27877360e11b815260040160405180910390fd5b6113868282610e6f610108546001600160a01b031690565b816001600160a01b03167fe88292c5f714100904272672c0420345093bd0e3c5555d31f3e4e2cf5f6ca8a1826040516113c191815260200190565b60405180910390a25050565b600061152660676040518060a001604052908160008201548152602001600182015481526020016002820154815260200160038201805461140d9061402e565b80601f01602080910402602001604051908101604052809291908181526020018280546114399061402e565b80156114865780601f1061145b57610100808354040283529160200191611486565b820191906000526020600020905b81548152906001019060200180831161146957829003601f168201915b5050505050815260200160048201805461149f9061402e565b80601f01602080910402602001604051908101604052809291908181526020018280546114cb9061402e565b80156115185780601f106114ed57610100808354040283529160200191611518565b820191906000526020600020905b8154815290600101906020018083116114fb57829003601f168201915b505050505081525050612790565b905090565b60665460408051637da0a87760e01b815290516000926001600160a01b031691637da0a8779160048083019260209291908290030181865afa158015611575573d6000803e3d6000fd5b505050506040513d601f19601f820116820180604052508101906115269190613fa0565b6066546040805163d09edf3160e01b815290516115e4926001600160a01b03169163d09edf319160048083019260209291908290030181865afa1580156106af573d6000803e3d6000fd5b6115ec6124ac565b61074a816127d0565b6066546040805163d09edf3160e01b81529051611640926001600160a01b03169163d09edf319160048083019260209291908290030181865afa1580156106af573d6000803e3d6000fd5b61074a81612865565b82611653816123f7565b61165b6128b0565b6000806116698686866128da565b9150915061167682612b51565b611688611683828761407e565b612bc7565b505050505050565b7ff0c57e16840df040f15088dc2f81fe391c3923bec73e23a9662efc9c229c6a00805468010000000000000000810460ff16159067ffffffffffffffff166000811580156116db5750825b905060008267ffffffffffffffff1660011480156116f85750303b155b905081158015611706575080155b156117245760405163f92ee8a960e01b815260040160405180910390fd5b845467ffffffffffffffff19166001178555831561175857845468ff00000000000000001916680100000000000000001785555b6117628888612c37565b6040805161012081018252600080825260208201819052918101829052606081018290526080810182905260a0810182905260c0810182905260e0810182905261010081018290526000888060200190518101906117c091906140d7565b61010880546001600160a01b0319166001600160a01b0383169081179091556040805163313ce56760e01b815290519497509295509093509163313ce567916004808201926020929091908290030181865afa158015611824573d6000803e3d6000fd5b505050506040513d601f19601f8201168201806040525081019061184891906141ab565b61010860146101000a81548160ff021916908360ff16021790555061186c83612d25565b81516040516301ffc9a760e01b815262aa06a760e31b60048201526001600160a01b03909116906301ffc9a790602401602060405180830381865afa1580156118b9573d6000803e3d6000fd5b505050506040513d601f19601f820116820180604052508101906118dd91906140a6565b6118fa5760405163a112ddf960e01b815260040160405180910390fd5b815161010780546001600160a01b0319166001600160a01b0390921691909117905560e082015161192a906124f0565b611938826101000151612666565b61194582602001516127d0565b6119528260400151612e53565b61195f8260600151612156565b61196c8260800151612865565b60a0820151609e805460ff60a01b1916600160a01b921515830217905560c083015160d3805460ff19169115159190911790556101085460405160ff929091049190911681526001600160a01b038216907fdec758d17e6001f7ae45d3316ad54ed6b6e932cef251881f0f51390b69e00d279060200160405180910390a2505050831561125c57845468ff000000000000000019168555604051600181527fc7f505b2f371ae2175ee4913f4499e1f2633a7b5936321eed1cdaeb6115181d29060200160405180910390a15050505050505050565b6066546040805163d09edf3160e01b81529051611a8c926001600160a01b03169163d09edf319160048083019260209291908290030181865afa1580156106af573d6000803e3d6000fd5b611a946124ac565b61074a81612e53565b6066546040805163d09edf3160e01b81529051611ae8926001600160a01b03169163d09edf319160048083019260209291908290030181865afa1580156106af573d6000803e3d6000fd5b60d3805460ff191690556040517fc34ae80cb7f967a799992108cfbc90770413d60555d5b0587a4c2c3e69c79ca490600090a1565b816000606660009054906101000a90046001600160a01b03166001600160a01b031663d09edf316040518163ffffffff1660e01b8152600401602060405180830381865afa158015611b73573d6000803e3d6000fd5b505050506040513d601f19601f82011682018060405250810190611b979190613fa0565b60405163fdd5205f60e01b8152306004820152602481018490526001600160a01b03919091169063fdd5205f90604401602060405180830381865afa158015611be4573d6000803e3d6000fd5b505050506040513d601f19601f82011682018060405250810190611c089190613fbd565b9050611c60606660009054906101000a90046001600160a01b03166001600160a01b031663d09edf316040518163ffffffff1660e01b8152600401602060405180830381865afa158015610890573d6000803e3d6000fd5b606660009054906101000a90046001600160a01b03166001600160a01b031663d09edf316040518163ffffffff1660e01b8152600401602060405180830381865afa158015611cb3573d6000803e3d6000fd5b505050506040513d601f19601f82011682018060405250810190611cd79190613fa0565b604051632e99be7f60e21b8152600481018690526001600160a01b038581166024830152919091169063ba66f9fc9060440161122e565b6101075460008054610108549192600160c01b900463ffffffff1691611d409190600160a81b900460ff166012612ee8565b611d4a91906141ce565b60335461010854611d679190600160a01b900460ff166012612ee8565b611d74620f4240806141ce565b611d7e91906141ce565b61152691906141e5565b82611d92816123f7565b611d9a612f5a565b600080611da8868686612f7d565b9092509050611dbf611dba828761407e565b613246565b611688826132cc565b6066546040805163d09edf3160e01b81529051611e13926001600160a01b03169163d09edf319160048083019260209291908290030181865afa1580156106af573d6000803e3d6000fd5b609e805460ff60a01b191690556040517f44c1679cca34073ce70fed616f995237808d9599a35669fd39f3afd053e2b9b190600090a1565b6066546040805163d09edf3160e01b81529051611e96926001600160a01b03169163d09edf319160048083019260209291908290030181865afa1580156106af573d6000803e3d6000fd5b609e805460ff60a01b1916600160a01b1790556040517fe404df37e2f7360b624914a082278de0f9e7da04a61eaab0a8d3d26b52bc0b1990600090a1565b611edc6128b0565b611eee611ee7611fe6565b8383611649565b5050565b611efa612f5a565b611eee611f05611fe6565b8383611d88565b6066546040805163d09edf3160e01b81529051611f57926001600160a01b03169163d09edf319160048083019260209291908290030181865afa1580156106af573d6000803e3d6000fd5b60d3805460ff191660011790556040517f9d47627df4f01d3bff516199297ca647fe2ea0448c4f2925ef8c16d614a51a7c90600090a1565b6101075460008054610108549192600160a01b900463ffffffff1691611d409190600160a81b900460ff166012612ee8565b60006001600160e01b031982166306fa99af60e01b148061065e575061065e82613353565b6000366014611ff433610f34565b80156120005750808210155b1561203057600036612012838561407e565b61201d928290614207565b61202691614231565b60601c9250505090565b339250505090565b606660009054906101000a90046001600160a01b03166001600160a01b031663d09edf316040518163ffffffff1660e01b8152600401602060405180830381865afa15801561208b573d6000803e3d6000fd5b505050506040513d601f19601f820116820180604052508101906120af9190613fa0565b60405163a883867d60e01b8152600481018490526001600160a01b038381166024830152919091169063a883867d90604401602060405180830381865afa1580156120fe573d6000803e3d6000fd5b505050506040513d601f19601f8201168201806040525081019061212291906140a6565b611eee576040516342abbb7760e01b8152600481018390526001600160a01b03821660248201526044015b60405180910390fd5b61215f81613378565b609f546040805183815260208101929092527f28e297c7c282931a994191b735b01eaf17558295f761512a7047f4e1b8dc3b0b910160405180910390a1609f55565b816000036121c257604051631d67ff5760e11b815260040160405180910390fd5b80600003611eee5760405163d8674d0d60e01b815260040160405180910390fd5b6000806000806121f28561339b565b945091506121ff85613502565b9496949550919391925050565b6000808061271061221d8587614266565b1061223b576040516304e0874960e11b815260040160405180910390fd5b841561227b5761271061224e86886141ce565b61225891906141e5565b91508160000361227b57604051639c43a82560e01b815260040160405180910390fd5b83156122bb5761271061228e85886141ce565b61229891906141e5565b9050806000036122bb57604051639c43a82560e01b815260040160405180910390fd5b806122c6838861407e565b6122d0919061407e565b925093509350939050565b610107546000805461010854919283926001600160a01b03909116916329a00e7c916123139190600160a81b900460ff166012612ee8565b603354610108546123309190600160a01b900460ff166012612ee8565b610107546101085463ffffffff600160a01b92839004169161235a918a9160ff9104166012612ee8565b6040516001600160e01b031960e087901b1681526004810194909452602484019290925263ffffffff1660448301526064820152608401602060405180830381865afa1580156123ae573d6000803e3d6000fd5b505050506040513d601f19601f820116820180604052508101906123d29190613fbd565b90506123f081601261010860159054906101000a900460ff16612ee8565b9392505050565b6001600160a01b038116158061241557506001600160a01b03811630145b1561074a5760405163364f556160e11b815260040160405180910390fd5b6040516001600160a01b038381166024830152604482018390526124a791859182169063a9059cbb906064015b604051602081830303815290604052915060e01b6020820180517bffffffffffffffffffffffffffffffffffffffffffffffffffffffff8381831617835250505050613624565b505050565b609e54600160a01b900460ff161515600114806124d0575060d35460ff1615156001145b156124ee57604051631a8e579560e21b815260040160405180910390fd5b565b61010854600090600160a81b900460ff1660128111156125185761251560128261407e565b91505b61252382600a61435d565b8310156125425760405162ece6a560e71b815260040160405180910390fd5b6124a783613687565b610107546000805461010854919283926001600160a01b03909116916349f9b0f7916125839190600160a81b900460ff166012612ee8565b603354610108546125a09190600160a01b900460ff166012612ee8565b61010760189054906101000a900463ffffffff166125d08861010860159054906101000a900460ff166012612ee8565b6040516001600160e01b031960e087901b1681526004810194909452602484019290925263ffffffff1660448301526064820152608401602060405180830381865afa158015612624573d6000803e3d6000fd5b505050506040513d601f19601f820116820180604052508101906126489190613fbd565b90506123f081601261010860149054906101000a900460ff16612ee8565b61074a816136e9565b6066546001600160a01b03166342f6e389612688611fe6565b6040516001600160e01b031960e084901b1681526001600160a01b039091166004820152602401602060405180830381865afa1580156126cc573d6000803e3d6000fd5b505050506040513d601f19601f820116820180604052508101906126f091906140a6565b158061277257506126ff611fe6565b6040516301ffc9a760e01b815263286309c760e01b60048201526001600160a01b0391909116906301ffc9a790602401602060405180830381865afa15801561274c573d6000803e3d6000fd5b505050506040513d601f19601f8201168201806040525081019061277091906140a6565b155b156124ee57604051631b793e7f60e21b815260040160405180910390fd5b60008160000151826060015183608001516040516020016127b393929190614369565b604051602081830303815290604052805190602001209050919050565b6127d98161374c565b610107546040805163ffffffff8085168252600160a01b90930490921660208301527f27c191dfc402c5c90b6333b6adc108fe15c0c368ccd3a50ec1d702f9288b8648910160405180910390a1610107805463ffffffff909216600160a01b027fffffffffffffffff00000000ffffffffffffffffffffffffffffffffffffffff909216919091179055565b61286e81613378565b60d4546040805183815260208101929092527f5bafec153d96f8ef37761b64348732b41a6b477401d244a5070f9f82d689adce910160405180910390a160d455565b609e54600160a01b900460ff166124ee57604051630afe354360e11b815260040160405180910390fd5b6000806128e784846121a1565b6066546040805163025d76cf60e11b815290516000926001600160a01b0316916304baed9e9160048083019260209291908290030181865afa158015612931573d6000803e3d6000fd5b505050506040513d601f19601f820116820180604052508101906129559190613fa0565b6001600160a01b031663fc0c546a6040518163ffffffff1660e01b8152600401602060405180830381865afa158015612992573d6000803e3d6000fd5b505050506040513d601f19601f820116820180604052508101906129b69190613fa0565b90506129d56129c3611fe6565b6001600160a01b038316903088613785565b60408051808201909152601c81527f5f6275794f7264657228616464726573732c75696e742c75696e7429000000006020909101526000808080612a387fdb2c93faffa8f98d8bcd55cf740e8ead65ac1699aaf6ee8a00820485fc802af66121e3565b93509350935093506000806000612a528c86609f5461220c565b91945092509050612a638183614266565b9850612a708789846137c4565b8015612a8e578060a06000828254612a889190614266565b90915550505b6000612a99846122db565b9050809a50612aaa8186600061220c565b5093509050612ab98784613839565b8b811015612ada57604051637ac6ada560e01b815260040160405180910390fd5b612ae48e82613896565b8d6001600160a01b03167fd150a324c4fc8346977d1499aa36cac8c85e6af24bf1486022fad77d05f8b19f8e83612b19611fe6565b6040805193845260208401929092526001600160a01b03169082015260600160405180910390a2505050505050505050935093915050565b600054612b609060001961407e565b811115612b7f57604051624bb81760e31b815260040160405180910390fd5b600080548201908190556040805183815260208101929092527f7aad1769c7491080279b2d6b032b0e75289a3b12c716abe0333e7be0f70fe12f91015b60405180910390a150565b603354612bd69060001961407e565b811115612bf657604051632b8d3fb960e21b815260040160405180910390fd5b603380548201908190556040805183815260208101929092527fb79781f468e2af557e9be98c94e82258c72deac9797eed9d1eb079aba4b0b3ba9101612bbc565b612c3f6138f9565b6001600160a01b038216612c6657604051637280679360e01b815260040160405180910390fd5b606680546001600160a01b0319166001600160a01b038416179055612c8a81613947565b612ca757604051637511254160e01b815260040160405180910390fd5b80516067908155602082015160685560408201516069556060820151829190606a90612cd390826143dc565b5060808201516004820190612ce890826143dc565b50905050816001600160a01b03167fd5f3f84c2e1816ce290af84d002663800b02f2985d770cdd335de76fd723b730826040516113c1919061449c565b6000816001600160a01b031663313ce5676040518163ffffffff1660e01b8152600401602060405180830381865afa158015612d65573d6000803e3d6000fd5b505050506040513d601f19601f82011682018060405250810190612d8991906141ab565b905060078160ff161080612dad57506101085460ff600160a01b9091048116908216105b15612dcb57604051638feffdc960e01b815260040160405180910390fd5b609e80546001600160a01b0319166001600160a01b03841690811790915561010880547fffffffffffffffffffff00ffffffffffffffffffffffffffffffffffffffffff16600160a81b60ff8516908102919091179091556040519081527f4e547b7c6b59d324fecdb926aa12300420faf3a7e12a412eb7e0da193bb0d93e906020016113c1565b612e5c8161374c565b610107546040805163ffffffff8085168252600160c01b90930490921660208301527fd60e348cd25e6e7624733f552b6499f3d296a6c2d464fa0ca109b41d7453b3ca910160405180910390a1610107805463ffffffff909216600160c01b027fffffffff00000000ffffffffffffffffffffffffffffffffffffffffffffffff909216919091179055565b60008160ff168360ff1603612efe5750826123f0565b8160ff168360ff161115612f37576000612f1883856144fc565b612f2390600a614515565b9050612f2f81866141e5565b9150506123f0565b6000612f4384846144fc565b612f4e90600a614515565b9050612f2f81866141ce565b60d35460ff166124ee576040516374d0357560e11b815260040160405180910390fd5b600080612f8a84846121a1565b60408051808201909152601d81527f5f73656c6c4f7264657228616464726573732c75696e742c75696e74290000006020909101526000808080612fed7f3299ac1e4997da1dd638584692e27ee6e952ca63f8284764a73c592284e1d9e86121e3565b935093509350935060008060006130068b85600061220c565b509850889350905060006130198261254b565b905080995061302f613029611fe6565b8d6139a7565b6130398785613839565b6066546040805163025d76cf60e11b815290516000926001600160a01b0316916304baed9e9160048083019260209291908290030181865afa158015613083573d6000803e3d6000fd5b505050506040513d601f19601f820116820180604052508101906130a79190613fa0565b6001600160a01b031663fc0c546a6040518163ffffffff1660e01b8152600401602060405180830381865afa1580156130e4573d6000803e3d6000fd5b505050506040513d601f19601f820116820180604052508101906131089190613fa0565b6040516370a0823160e01b81523060048201529091506001600160a01b038216906370a0823190602401602060405180830381865afa15801561314f573d6000803e3d6000fd5b505050506040513d601f19601f820116820180604052508101906131739190613fbd565b60a0546131809084614266565b111561319f576040516332dcd2bb60e11b815260040160405180910390fd5b6131ac828860d45461220c565b909650945091506131be8982876137c4565b83156131dc578360a060008282546131d69190614266565b90915550505b8b8210156131fd57604051637ac6ada560e01b815260040160405180910390fd5b6132116001600160a01b0382168f84612433565b8d6001600160a01b03167f7debc712939ce2028bbca7ca90cc85e8fb59a7772e041423d3ec1588af4730ed8e84612b19611fe6565b600054811115613269576040516309f5d4ab60e21b815260040160405180910390fd5b600054810361328a5760405162ece6a560e71b815260040160405180910390fd5b60008054829003908190556040805183815260208101929092527ffb531aedaaeb99214c8335d339abd3ff055ecd418763e51672f7d7a6eb91ce5d9101612bbc565b6033548111156132ef57604051635d3da26b60e11b815260040160405180910390fd5b603354810361331157604051635f60529f60e01b815260040160405180910390fd5b60338054829003908190556040805183815260208101929092527ff90da9caba169a00f9544c3f2cf6e2b5c632fae79eb6116e76ff1f3c1f21472c9101612bbc565b60006001600160e01b03198216630bbeca6160e01b148061065e575061065e826139e0565b61271081111561074a57604051633ef38b5b60e11b815260040160405180910390fd5b600080606660009054906101000a90046001600160a01b03166001600160a01b0316630c340a246040518163ffffffff1660e01b8152600401602060405180830381865afa1580156133f1573d6000803e3d6000fd5b505050506040513d601f19601f820116820180604052508101906134159190613fa0565b6001600160a01b031663f2d638266040518163ffffffff1660e01b8152600401602060405180830381865afa158015613452573d6000803e3d6000fd5b505050506040513d601f19601f820116820180604052508101906134769190613fa0565b606654604051634d970f5560e11b81526001600160a01b0391821660048201523060248201526001600160e01b031986166044820152911690639b2e1eaa906064015b6040805180830381865afa1580156134d5573d6000803e3d6000fd5b505050506040513d601f19601f820116820180604052508101906134f99190614524565b91509150915091565b600080606660009054906101000a90046001600160a01b03166001600160a01b0316630c340a246040518163ffffffff1660e01b8152600401602060405180830381865afa158015613558573d6000803e3d6000fd5b505050506040513d601f19601f8201168201806040525081019061357c9190613fa0565b6001600160a01b031663f2d638266040518163ffffffff1660e01b8152600401602060405180830381865afa1580156135b9573d6000803e3d6000fd5b505050506040513d601f19601f820116820180604052508101906135dd9190613fa0565b6066546040516304e53bb360e01b81526001600160a01b0391821660048201523060248201526001600160e01b0319861660448201529116906304e53bb3906064016134b9565b60006136396001600160a01b03841683613a05565b9050805160001415801561365e57508080602001905181019061365c91906140a6565b155b156124a757604051635274afe760e01b81526001600160a01b038416600482015260240161214d565b806000036136a75760405162ece6a560e71b815260040160405180910390fd5b6000546040805183815260208101929092527fc60744c6ab5be4d0d7daa24905289cce0ac3a7c5ca60742bb43e367f54267542910160405180910390a1600055565b8060000361370a57604051635f60529f60e01b815260040160405180910390fd5b6033546040805183815260208101929092527f09a070adb6f2c823cf65438ad36e4d03c24d94dd2ad6ebb19dd02d09ca1fa03f910160405180910390a1603355565b63ffffffff811615806137675750620f424063ffffffff8216115b1561074a5760405163623115ff60e01b815260040160405180910390fd5b6040516001600160a01b0384811660248301528381166044830152606482018390526137be9186918216906323b872dd90608401612460565b50505050565b80156124a7576137d3836123f7565b6137e76001600160a01b0383168483612433565b826001600160a01b0316826001600160a01b03167f81535d361819544361f80ddbe5071aef378a8ecba1c52f2c45fe3335234c43318360405161382c91815260200190565b60405180910390a3505050565b8015611eee57613848826123f7565b6138528282613896565b6040518181526001600160a01b0383169030907f11a26a26a718a46d85815d79165470744429ab0f3093113929c59c097bbebb9a9060200160405180910390a35050565b609e546040516340c10f1960e01b81526001600160a01b03848116600483015260248201849052909116906340c10f19906044015b600060405180830381600087803b1580156138e557600080fd5b505af1158015611688573d6000803e3d6000fd5b7ff0c57e16840df040f15088dc2f81fe391c3923bec73e23a9662efc9c229c6a005468010000000000000000900460ff166124ee57604051631afcd79f60e31b815260040160405180910390fd5b600081606001515160000361395e57506000919050565b81608001515160000361397357506000919050565b815115801561398457506020820151155b801561399257506040820151155b1561399f57506000919050565b506001919050565b609e54604051632770a7eb60e21b81526001600160a01b0384811660048301526024820184905290911690639dc29fac906044016138cb565b60006001600160e01b0319821663e328951160e01b148061065e575061065e82613a13565b60606123f083836000613a39565b600063689b8d2960e11b6001600160e01b031983168114806123f057506123f083613ad6565b606081471015613a5e5760405163cd78605960e01b815230600482015260240161214d565b600080856001600160a01b03168486604051613a7a9190614549565b60006040518083038185875af1925050503d8060008114613ab7576040519150601f19603f3d011682016040523d82523d6000602084013e613abc565b606091505b5091509150613acc868383613b0c565b9695505050505050565b600063800cc7f160e01b6001600160e01b031983168114806123f057506301ffc9a760e01b6001600160e01b03198416146123f0565b606082613b2157613b1c82613b68565b6123f0565b8151158015613b3857506001600160a01b0384163b155b15613b6157604051639996b31560e01b81526001600160a01b038516600482015260240161214d565b50806123f0565b805115613b785780518082602001fd5b604051630a12f52160e11b815260040160405180910390fd5b600060208284031215613ba357600080fd5b81356001600160e01b0319811681146123f057600080fd5b600060208284031215613bcd57600080fd5b5035919050565b600080600060408486031215613be957600080fd5b83359250602084013567ffffffffffffffff80821115613c0857600080fd5b818601915086601f830112613c1c57600080fd5b813581811115613c2b57600080fd5b8760208260051b8501011115613c4057600080fd5b6020830194508093505050509250925092565b60005b83811015613c6e578181015183820152602001613c56565b50506000910152565b60008151808452613c8f816020860160208601613c53565b601f01601f19169290920160200192915050565b6020815260006123f06020830184613c77565b6001600160a01b038116811461074a57600080fd5b60008060408385031215613cde57600080fd5b8235613ce981613cb6565b946020939093013593505050565b600060208284031215613d0957600080fd5b81356123f081613cb6565b60008060408385031215613d2757600080fd5b823591506020830135613d3981613cb6565b809150509250929050565b63ffffffff8116811461074a57600080fd5b600060208284031215613d6857600080fd5b81356123f081613d44565b600080600060608486031215613d8857600080fd5b8335613d9381613cb6565b95602085013595506040909401359392505050565b634e487b7160e01b600052604160045260246000fd5b60405160a0810167ffffffffffffffff81118282101715613de157613de1613da8565b60405290565b604051610120810167ffffffffffffffff81118282101715613de157613de1613da8565b600082601f830112613e1c57600080fd5b813567ffffffffffffffff80821115613e3757613e37613da8565b604051601f8301601f19908116603f01168101908282118183101715613e5f57613e5f613da8565b81604052838152866020858801011115613e7857600080fd5b836020870160208301376000602085830101528094505050505092915050565b600080600060608486031215613ead57600080fd5b8335613eb881613cb6565b9250602084013567ffffffffffffffff80821115613ed557600080fd5b9085019060a08288031215613ee957600080fd5b613ef1613dbe565b823581526020830135602082015260408301356040820152606083013582811115613f1b57600080fd5b613f2789828601613e0b565b606083015250608083013582811115613f3f57600080fd5b613f4b89828601613e0b565b60808301525093506040860135915080821115613f6757600080fd5b50613f7486828701613e0b565b9150509250925092565b60008060408385031215613f9157600080fd5b50508035926020909101359150565b600060208284031215613fb257600080fd5b81516123f081613cb6565b600060208284031215613fcf57600080fd5b5051919050565b83815260406020808301829052908201839052600090849060608401835b8681101561402257833561400781613cb6565b6001600160a01b031682529282019290820190600101613ff4565b50979650505050505050565b600181811c9082168061404257607f821691505b60208210810361406257634e487b7160e01b600052602260045260246000fd5b50919050565b634e487b7160e01b600052601160045260246000fd5b8181038181111561065e5761065e614068565b805180151581146140a157600080fd5b919050565b6000602082840312156140b857600080fd5b6123f082614091565b80516140a181613cb6565b80516140a181613d44565b60008060008385036101608112156140ee57600080fd5b84516140f981613cb6565b9350610120601f19820181131561410f57600080fd5b614117613de7565b9150614125602087016140c1565b8252614133604087016140cc565b6020830152614144606087016140cc565b60408301526080860151606083015260a0860151608083015261416960c08701614091565b60a083015261417a60e08701614091565b60c08301526101008681015160e0840152908601519082015291506141a261014085016140c1565b90509250925092565b6000602082840312156141bd57600080fd5b815160ff811681146123f057600080fd5b808202811582820484141761065e5761065e614068565b60008261420257634e487b7160e01b600052601260045260246000fd5b500490565b6000808585111561421757600080fd5b8386111561422457600080fd5b5050820193919092039150565b6bffffffffffffffffffffffff19813581811691601485101561425e5780818660140360031b1b83161692505b505092915050565b8082018082111561065e5761065e614068565b600181815b808511156142b457816000190482111561429a5761429a614068565b808516156142a757918102915b93841c939080029061427e565b509250929050565b6000826142cb5750600161065e565b816142d85750600061065e565b81600181146142ee57600281146142f857614314565b600191505061065e565b60ff84111561430957614309614068565b50506001821b61065e565b5060208310610133831016604e8410600b8410161715614337575081810a61065e565b6143418383614279565b806000190482111561435557614355614068565b029392505050565b60006123f083836142bc565b8381526060602082015260006143826060830185613c77565b8281036040840152613acc8185613c77565b601f8211156124a7576000816000526020600020601f850160051c810160208610156143bd5750805b601f850160051c820191505b81811015611688578281556001016143c9565b815167ffffffffffffffff8111156143f6576143f6613da8565b61440a81614404845461402e565b84614394565b602080601f83116001811461443f57600084156144275750858301515b600019600386901b1c1916600185901b178555611688565b600085815260208120601f198616915b8281101561446e5788860151825594840194600190910190840161444f565b508582101561448c5787850151600019600388901b60f8161c191681555b5050505050600190811b01905550565b602081528151602082015260208201516040820152604082015160608201526000606083015160a060808401526144d660c0840182613c77565b90506080840151601f198483030160a08501526144f38282613c77565b95945050505050565b60ff828116828216039081111561065e5761065e614068565b60006123f060ff8416836142bc565b6000806040838503121561453757600080fd5b825191506020830151613d3981613cb6565b6000825161455b818460208701613c53565b919091019291505056fea2646970667358221220ab4855e95660e40678c5c0547619379bfc3a55cadfd7a301fd4c6ee239e4631564736f6c63430008170033",
    "linkReferences": {}
  },
  "methodIdentifiers": {
    "buy(uint256,uint256)": "d6febde8",
    "buyFee()": "47062402",
    "buyFor(address,uint256,uint256)": "935b7dbd",
    "buyIsOpen()": "c6829ba2",
    "calculatePurchaseReturn(uint256)": "322d2100",
    "calculateSaleReturn(uint256)": "69fcd4ac",
    "closeBuy()": "c6ab5cdc",
    "closeSell()": "ba83c970",
    "formula()": "4b75f54f",
    "getIssuanceToken()": "1ca3bc4f",
    "getReserveRatioForBuying()": "a8a539d9",
    "getReserveRatioForSelling()": "6115db1c",
    "getStaticPriceForBuying()": "fa03330c",
    "getStaticPriceForSelling()": "bd098404",
    "getVirtualCollateralSupply()": "bf75292b",
    "getVirtualIssuanceSupply()": "d1c6022f",
    "grantModuleRole(bytes32,address)": "6c67e807",
    "grantModuleRoleBatched(bytes32,address[])": "272bbd44",
    "identifier()": "7998a1c4",
    "init(address,(uint256,uint256,uint256,string,string),bytes)": "b66a870c",
    "isTrustedForwarder(address)": "572b6c05",
    "openBuy()": "d4a67930",
    "openSell()": "f1eae64a",
    "orchestrator()": "b74795d9",
    "projectCollateralFeeCollected()": "cbda8f82",
    "revokeModuleRole(bytes32,address)": "bcb61920",
    "revokeModuleRoleBatched(bytes32,address[])": "24e30270",
    "sell(uint256,uint256)": "d79875eb",
    "sellFee()": "2b14ca56",
    "sellIsOpen()": "9093b01f",
    "sellTo(address,uint256,uint256)": "c5b27dde",
    "setBuyFee(uint256)": "0cc835a3",
    "setReserveRatioForBuying(uint32)": "8ac631e6",
    "setReserveRatioForSelling(uint32)": "b88a2cf6",
    "setSellFee(uint256)": "8b4cee08",
    "setVirtualCollateralSupply(uint256)": "6e423379",
    "setVirtualIssuanceSupply(uint256)": "51cac5de",
    "supportsInterface(bytes4)": "01ffc9a7",
    "title()": "4a79d50c",
    "token()": "fc0c546a",
    "transferOrchestratorToken(address,uint256)": "759cc4b5",
    "trustedForwarder()": "7da0a877",
    "url()": "5600f04f",
    "version()": "54fd4d50",
    "withdrawProjectCollateralFee(address,uint256)": "4f893bba"
  },
  "id": 108
}