{
  "abi": [
    {
      "type": "function",
      "name": "CURVE_INTERACTION_ROLE",
      "inputs": [],
      "outputs": [
        {
          "name": "",
          "type": "bytes32",
          "internalType": "bytes32"
        }
      ],
      "stateMutability": "view"
    },
    {
      "type": "function",
      "name": "buy",
      "inputs": [
        {
          "name": "_depositAmount",
          "type": "uint256",
          "internalType": "uint256"
        },
        {
          "name": "_minAmountOut",
          "type": "uint256",
          "internalType": "uint256"
        }
      ],
      "outputs": [],
      "stateMutability": "nonpayable"
    },
    {
      "type": "function",
      "name": "buyFee",
      "inputs": [],
      "outputs": [
        {
          "name": "",
          "type": "uint256",
          "internalType": "uint256"
        }
      ],
      "stateMutability": "view"
    },
    {
      "type": "function",
      "name": "buyFor",
      "inputs": [
        {
          "name": "_receiver",
          "type": "address",
          "internalType": "address"
        },
        {
          "name": "_depositAmount",
          "type": "uint256",
          "internalType": "uint256"
        },
        {
          "name": "_minAmountOut",
          "type": "uint256",
          "internalType": "uint256"
        }
      ],
      "outputs": [],
      "stateMutability": "nonpayable"
    },
    {
      "type": "function",
      "name": "buyIsOpen",
      "inputs": [],
      "outputs": [
        {
          "name": "",
          "type": "bool",
          "internalType": "bool"
        }
      ],
      "stateMutability": "view"
    },
    {
      "type": "function",
      "name": "calculatePurchaseReturn",
      "inputs": [
        {
          "name": "_depositAmount",
          "type": "uint256",
          "internalType": "uint256"
        }
      ],
      "outputs": [
        {
          "name": "mintAmount",
          "type": "uint256",
          "internalType": "uint256"
        }
      ],
      "stateMutability": "view"
    },
    {
      "type": "function",
      "name": "calculateSaleReturn",
      "inputs": [
        {
          "name": "_depositAmount",
          "type": "uint256",
          "internalType": "uint256"
        }
      ],
      "outputs": [
        {
          "name": "redeemAmount",
          "type": "uint256",
          "internalType": "uint256"
        }
      ],
      "stateMutability": "view"
    },
    {
      "type": "function",
      "name": "closeBuy",
      "inputs": [],
      "outputs": [],
      "stateMutability": "nonpayable"
    },
    {
      "type": "function",
      "name": "closeSell",
      "inputs": [],
      "outputs": [],
      "stateMutability": "nonpayable"
    },
    {
      "type": "function",
      "name": "formula",
      "inputs": [],
      "outputs": [
        {
          "name": "",
          "type": "address",
          "internalType": "contract IBancorFormula"
        }
      ],
      "stateMutability": "view"
    },
    {
      "type": "function",
      "name": "getIssuanceToken",
      "inputs": [],
      "outputs": [
        {
          "name": "",
          "type": "address",
          "internalType": "address"
        }
      ],
      "stateMutability": "view"
    },
    {
      "type": "function",
      "name": "getReserveRatioForBuying",
      "inputs": [],
      "outputs": [
        {
          "name": "",
          "type": "uint32",
          "internalType": "uint32"
        }
      ],
      "stateMutability": "view"
    },
    {
      "type": "function",
      "name": "getReserveRatioForSelling",
      "inputs": [],
      "outputs": [
        {
          "name": "",
          "type": "uint32",
          "internalType": "uint32"
        }
      ],
      "stateMutability": "view"
    },
    {
      "type": "function",
      "name": "getStaticPriceForBuying",
      "inputs": [],
      "outputs": [
        {
          "name": "",
          "type": "uint256",
          "internalType": "uint256"
        }
      ],
      "stateMutability": "view"
    },
    {
      "type": "function",
      "name": "getStaticPriceForSelling",
      "inputs": [],
      "outputs": [
        {
          "name": "",
          "type": "uint256",
          "internalType": "uint256"
        }
      ],
      "stateMutability": "view"
    },
    {
      "type": "function",
      "name": "getVirtualCollateralSupply",
      "inputs": [],
      "outputs": [
        {
          "name": "",
          "type": "uint256",
          "internalType": "uint256"
        }
      ],
      "stateMutability": "view"
    },
    {
      "type": "function",
      "name": "getVirtualIssuanceSupply",
      "inputs": [],
      "outputs": [
        {
          "name": "",
          "type": "uint256",
          "internalType": "uint256"
        }
      ],
      "stateMutability": "view"
    },
    {
      "type": "function",
      "name": "grantModuleRole",
      "inputs": [
        {
          "name": "role",
          "type": "bytes32",
          "internalType": "bytes32"
        },
        {
          "name": "target",
          "type": "address",
          "internalType": "address"
        }
      ],
      "outputs": [],
      "stateMutability": "nonpayable"
    },
    {
      "type": "function",
      "name": "grantModuleRoleBatched",
      "inputs": [
        {
          "name": "role",
          "type": "bytes32",
          "internalType": "bytes32"
        },
        {
          "name": "targets",
          "type": "address[]",
          "internalType": "address[]"
        }
      ],
      "outputs": [],
      "stateMutability": "nonpayable"
    },
    {
      "type": "function",
      "name": "identifier",
      "inputs": [],
      "outputs": [
        {
          "name": "",
          "type": "bytes32",
          "internalType": "bytes32"
        }
      ],
      "stateMutability": "view"
    },
    {
      "type": "function",
      "name": "init",
      "inputs": [
        {
          "name": "orchestrator_",
          "type": "address",
          "internalType": "contract IOrchestrator_v1"
        },
        {
          "name": "metadata",
          "type": "tuple",
          "internalType": "struct IModule_v1.Metadata",
          "components": [
            {
              "name": "majorVersion",
              "type": "uint256",
              "internalType": "uint256"
            },
            {
              "name": "minorVersion",
              "type": "uint256",
              "internalType": "uint256"
            },
            {
              "name": "patchVersion",
              "type": "uint256",
              "internalType": "uint256"
            },
            {
              "name": "url",
              "type": "string",
              "internalType": "string"
            },
            {
              "name": "title",
              "type": "string",
              "internalType": "string"
            }
          ]
        },
        {
          "name": "configData",
          "type": "bytes",
          "internalType": "bytes"
        }
      ],
      "outputs": [],
      "stateMutability": "nonpayable"
    },
    {
      "type": "function",
      "name": "isTrustedForwarder",
      "inputs": [
        {
          "name": "forwarder",
          "type": "address",
          "internalType": "address"
        }
      ],
      "outputs": [
        {
          "name": "",
          "type": "bool",
          "internalType": "bool"
        }
      ],
      "stateMutability": "view"
    },
    {
      "type": "function",
      "name": "openBuy",
      "inputs": [],
      "outputs": [],
      "stateMutability": "nonpayable"
    },
    {
      "type": "function",
      "name": "openSell",
      "inputs": [],
      "outputs": [],
      "stateMutability": "nonpayable"
    },
    {
      "type": "function",
      "name": "orchestrator",
      "inputs": [],
      "outputs": [
        {
          "name": "",
          "type": "address",
          "internalType": "contract IOrchestrator_v1"
        }
      ],
      "stateMutability": "view"
    },
    {
      "type": "function",
      "name": "projectCollateralFeeCollected",
      "inputs": [],
      "outputs": [
        {
          "name": "",
          "type": "uint256",
          "internalType": "uint256"
        }
      ],
      "stateMutability": "view"
    },
    {
      "type": "function",
      "name": "revokeModuleRole",
      "inputs": [
        {
          "name": "role",
          "type": "bytes32",
          "internalType": "bytes32"
        },
        {
          "name": "target",
          "type": "address",
          "internalType": "address"
        }
      ],
      "outputs": [],
      "stateMutability": "nonpayable"
    },
    {
      "type": "function",
      "name": "revokeModuleRoleBatched",
      "inputs": [
        {
          "name": "role",
          "type": "bytes32",
          "internalType": "bytes32"
        },
        {
          "name": "targets",
          "type": "address[]",
          "internalType": "address[]"
        }
      ],
      "outputs": [],
      "stateMutability": "nonpayable"
    },
    {
      "type": "function",
      "name": "sell",
      "inputs": [
        {
          "name": "_depositAmount",
          "type": "uint256",
          "internalType": "uint256"
        },
        {
          "name": "_minAmountOut",
          "type": "uint256",
          "internalType": "uint256"
        }
      ],
      "outputs": [],
      "stateMutability": "nonpayable"
    },
    {
      "type": "function",
      "name": "sellFee",
      "inputs": [],
      "outputs": [
        {
          "name": "",
          "type": "uint256",
          "internalType": "uint256"
        }
      ],
      "stateMutability": "view"
    },
    {
      "type": "function",
      "name": "sellIsOpen",
      "inputs": [],
      "outputs": [
        {
          "name": "",
          "type": "bool",
          "internalType": "bool"
        }
      ],
      "stateMutability": "view"
    },
    {
      "type": "function",
      "name": "sellTo",
      "inputs": [
        {
          "name": "_receiver",
          "type": "address",
          "internalType": "address"
        },
        {
          "name": "_depositAmount",
          "type": "uint256",
          "internalType": "uint256"
        },
        {
          "name": "_minAmountOut",
          "type": "uint256",
          "internalType": "uint256"
        }
      ],
      "outputs": [],
      "stateMutability": "nonpayable"
    },
    {
      "type": "function",
      "name": "setBuyFee",
      "inputs": [
        {
          "name": "_fee",
          "type": "uint256",
          "internalType": "uint256"
        }
      ],
      "outputs": [],
      "stateMutability": "nonpayable"
    },
    {
      "type": "function",
      "name": "setReserveRatioForBuying",
      "inputs": [
        {
          "name": "_reserveRatio",
          "type": "uint32",
          "internalType": "uint32"
        }
      ],
      "outputs": [],
      "stateMutability": "nonpayable"
    },
    {
      "type": "function",
      "name": "setReserveRatioForSelling",
      "inputs": [
        {
          "name": "_reserveRatio",
          "type": "uint32",
          "internalType": "uint32"
        }
      ],
      "outputs": [],
      "stateMutability": "nonpayable"
    },
    {
      "type": "function",
      "name": "setSellFee",
      "inputs": [
        {
          "name": "_fee",
          "type": "uint256",
          "internalType": "uint256"
        }
      ],
      "outputs": [],
      "stateMutability": "nonpayable"
    },
    {
      "type": "function",
      "name": "setVirtualCollateralSupply",
      "inputs": [
        {
          "name": "_virtualSupply",
          "type": "uint256",
          "internalType": "uint256"
        }
      ],
      "outputs": [],
      "stateMutability": "nonpayable"
    },
    {
      "type": "function",
      "name": "setVirtualIssuanceSupply",
      "inputs": [
        {
          "name": "_virtualSupply",
          "type": "uint256",
          "internalType": "uint256"
        }
      ],
      "outputs": [],
      "stateMutability": "nonpayable"
    },
    {
      "type": "function",
      "name": "supportsInterface",
      "inputs": [
        {
          "name": "interfaceId",
          "type": "bytes4",
          "internalType": "bytes4"
        }
      ],
      "outputs": [
        {
          "name": "",
          "type": "bool",
          "internalType": "bool"
        }
      ],
      "stateMutability": "view"
    },
    {
      "type": "function",
      "name": "title",
      "inputs": [],
      "outputs": [
        {
          "name": "",
          "type": "string",
          "internalType": "string"
        }
      ],
      "stateMutability": "view"
    },
    {
      "type": "function",
      "name": "token",
      "inputs": [],
      "outputs": [
        {
          "name": "",
          "type": "address",
          "internalType": "contract IERC20"
        }
      ],
      "stateMutability": "view"
    },
    {
      "type": "function",
      "name": "transferOrchestratorToken",
      "inputs": [
        {
          "name": "to",
          "type": "address",
          "internalType": "address"
        },
        {
          "name": "amount",
          "type": "uint256",
          "internalType": "uint256"
        }
      ],
      "outputs": [],
      "stateMutability": "nonpayable"
    },
    {
      "type": "function",
      "name": "trustedForwarder",
      "inputs": [],
      "outputs": [
        {
          "name": "",
          "type": "address",
          "internalType": "address"
        }
      ],
      "stateMutability": "view"
    },
    {
      "type": "function",
      "name": "url",
      "inputs": [],
      "outputs": [
        {
          "name": "",
          "type": "string",
          "internalType": "string"
        }
      ],
      "stateMutability": "view"
    },
    {
      "type": "function",
      "name": "version",
      "inputs": [],
      "outputs": [
        {
          "name": "",
          "type": "uint256",
          "internalType": "uint256"
        },
        {
          "name": "",
          "type": "uint256",
          "internalType": "uint256"
        },
        {
          "name": "",
          "type": "uint256",
          "internalType": "uint256"
        }
      ],
      "stateMutability": "view"
    },
    {
      "type": "function",
      "name": "withdrawProjectCollateralFee",
      "inputs": [
        {
          "name": "_receiver",
          "type": "address",
          "internalType": "address"
        },
        {
          "name": "_amount",
          "type": "uint256",
          "internalType": "uint256"
        }
      ],
      "outputs": [],
      "stateMutability": "nonpayable"
    },
    {
      "type": "event",
      "name": "BuyFeeUpdated",
      "inputs": [
        {
          "name": "newBuyFee",
          "type": "uint256",
          "indexed": false,
          "internalType": "uint256"
        },
        {
          "name": "oldBuyFee",
          "type": "uint256",
          "indexed": false,
          "internalType": "uint256"
        }
      ],
      "anonymous": false
    },
    {
      "type": "event",
      "name": "BuyReserveRatioSet",
      "inputs": [
        {
          "name": "newBuyReserveRatio",
          "type": "uint32",
          "indexed": false,
          "internalType": "uint32"
        },
        {
          "name": "oldBuyReserveRatio",
          "type": "uint32",
          "indexed": false,
          "internalType": "uint32"
        }
      ],
      "anonymous": false
    },
    {
      "type": "event",
      "name": "BuyingDisabled",
      "inputs": [],
      "anonymous": false
    },
    {
      "type": "event",
      "name": "BuyingEnabled",
      "inputs": [],
      "anonymous": false
    },
    {
      "type": "event",
      "name": "Initialized",
      "inputs": [
        {
          "name": "version",
          "type": "uint64",
          "indexed": false,
          "internalType": "uint64"
        }
      ],
      "anonymous": false
    },
    {
      "type": "event",
      "name": "IssuanceTokenSet",
      "inputs": [
        {
          "name": "issuanceToken",
          "type": "address",
          "indexed": true,
          "internalType": "address"
        },
        {
          "name": "decimals",
          "type": "uint8",
          "indexed": false,
          "internalType": "uint8"
        }
      ],
      "anonymous": false
    },
    {
      "type": "event",
      "name": "ModuleInitialized",
      "inputs": [
        {
          "name": "parentOrchestrator",
          "type": "address",
          "indexed": true,
          "internalType": "address"
        },
        {
          "name": "metadata",
          "type": "tuple",
          "indexed": false,
          "internalType": "struct IModule_v1.Metadata",
          "components": [
            {
              "name": "majorVersion",
              "type": "uint256",
              "internalType": "uint256"
            },
            {
              "name": "minorVersion",
              "type": "uint256",
              "internalType": "uint256"
            },
            {
              "name": "patchVersion",
              "type": "uint256",
              "internalType": "uint256"
            },
            {
              "name": "url",
              "type": "string",
              "internalType": "string"
            },
            {
              "name": "title",
              "type": "string",
              "internalType": "string"
            }
          ]
        }
      ],
      "anonymous": false
    },
    {
      "type": "event",
      "name": "OrchestratorTokenSet",
      "inputs": [
        {
          "name": "token",
          "type": "address",
          "indexed": true,
          "internalType": "address"
        },
        {
          "name": "decimals",
          "type": "uint8",
          "indexed": false,
          "internalType": "uint8"
        }
      ],
      "anonymous": false
    },
    {
      "type": "event",
      "name": "ProjectCollateralFeeWithdrawn",
      "inputs": [
        {
          "name": "receiver",
          "type": "address",
          "indexed": false,
          "internalType": "address"
        },
        {
          "name": "amount",
          "type": "uint256",
          "indexed": false,
          "internalType": "uint256"
        }
      ],
      "anonymous": false
    },
    {
      "type": "event",
      "name": "ProtocolFeeMinted",
      "inputs": [
        {
          "name": "token",
          "type": "address",
          "indexed": true,
          "internalType": "address"
        },
        {
          "name": "treasury",
          "type": "address",
          "indexed": true,
          "internalType": "address"
        },
        {
          "name": "feeAmount",
          "type": "uint256",
          "indexed": false,
          "internalType": "uint256"
        }
      ],
      "anonymous": false
    },
    {
      "type": "event",
      "name": "ProtocolFeeTransferred",
      "inputs": [
        {
          "name": "token",
          "type": "address",
          "indexed": true,
          "internalType": "address"
        },
        {
          "name": "treasury",
          "type": "address",
          "indexed": true,
          "internalType": "address"
        },
        {
          "name": "feeAmount",
          "type": "uint256",
          "indexed": false,
          "internalType": "uint256"
        }
      ],
      "anonymous": false
    },
    {
      "type": "event",
      "name": "SellFeeUpdated",
      "inputs": [
        {
          "name": "newSellFee",
          "type": "uint256",
          "indexed": false,
          "internalType": "uint256"
        },
        {
          "name": "oldSellFee",
          "type": "uint256",
          "indexed": false,
          "internalType": "uint256"
        }
      ],
      "anonymous": false
    },
    {
      "type": "event",
      "name": "SellReserveRatioSet",
      "inputs": [
        {
          "name": "newSellReserveRatio",
          "type": "uint32",
          "indexed": false,
          "internalType": "uint32"
        },
        {
          "name": "oldSellReserveRatio",
          "type": "uint32",
          "indexed": false,
          "internalType": "uint32"
        }
      ],
      "anonymous": false
    },
    {
      "type": "event",
      "name": "SellingDisabled",
      "inputs": [],
      "anonymous": false
    },
    {
      "type": "event",
      "name": "SellingEnabled",
      "inputs": [],
      "anonymous": false
    },
    {
      "type": "event",
      "name": "TokenDecimalsUpdated",
      "inputs": [
        {
          "name": "oldDecimals",
          "type": "uint8",
          "indexed": false,
          "internalType": "uint8"
        },
        {
          "name": "newDecimals",
          "type": "uint8",
          "indexed": false,
          "internalType": "uint8"
        }
      ],
      "anonymous": false
    },
    {
      "type": "event",
      "name": "TokensBought",
      "inputs": [
        {
          "name": "receiver",
          "type": "address",
          "indexed": true,
          "internalType": "address"
        },
        {
          "name": "depositAmount",
          "type": "uint256",
          "indexed": false,
          "internalType": "uint256"
        },
        {
          "name": "receivedAmount",
          "type": "uint256",
          "indexed": false,
          "internalType": "uint256"
        },
        {
          "name": "buyer",
          "type": "address",
          "indexed": false,
          "internalType": "address"
        }
      ],
      "anonymous": false
    },
    {
      "type": "event",
      "name": "TokensSold",
      "inputs": [
        {
          "name": "receiver",
          "type": "address",
          "indexed": true,
          "internalType": "address"
        },
        {
          "name": "depositAmount",
          "type": "uint256",
          "indexed": false,
          "internalType": "uint256"
        },
        {
          "name": "receivedAmount",
          "type": "uint256",
          "indexed": false,
          "internalType": "uint256"
        },
        {
          "name": "seller",
          "type": "address",
          "indexed": false,
          "internalType": "address"
        }
      ],
      "anonymous": false
    },
    {
      "type": "event",
      "name": "TransferOrchestratorToken",
      "inputs": [
        {
          "name": "_to",
          "type": "address",
          "indexed": true,
          "internalType": "address"
        },
        {
          "name": "_amount",
          "type": "uint256",
          "indexed": false,
          "internalType": "uint256"
        }
      ],
      "anonymous": false
    },
    {
      "type": "event",
      "name": "VirtualCollateralAmountAdded",
      "inputs": [
        {
          "name": "amountAdded",
          "type": "uint256",
          "indexed": false,
          "internalType": "uint256"
        },
        {
          "name": "newSupply",
          "type": "uint256",
          "indexed": false,
          "internalType": "uint256"
        }
      ],
      "anonymous": false
    },
    {
      "type": "event",
      "name": "VirtualCollateralAmountSubtracted",
      "inputs": [
        {
          "name": "amountSubtracted",
          "type": "uint256",
          "indexed": false,
          "internalType": "uint256"
        },
        {
          "name": "newSupply",
          "type": "uint256",
          "indexed": false,
          "internalType": "uint256"
        }
      ],
      "anonymous": false
    },
    {
      "type": "event",
      "name": "VirtualCollateralSupplySet",
      "inputs": [
        {
          "name": "newSupply",
          "type": "uint256",
          "indexed": false,
          "internalType": "uint256"
        },
        {
          "name": "oldSupply",
          "type": "uint256",
          "indexed": false,
          "internalType": "uint256"
        }
      ],
      "anonymous": false
    },
    {
      "type": "event",
      "name": "VirtualIssuanceAmountAdded",
      "inputs": [
        {
          "name": "amountAdded",
          "type": "uint256",
          "indexed": false,
          "internalType": "uint256"
        },
        {
          "name": "newSupply",
          "type": "uint256",
          "indexed": false,
          "internalType": "uint256"
        }
      ],
      "anonymous": false
    },
    {
      "type": "event",
      "name": "VirtualIssuanceAmountSubtracted",
      "inputs": [
        {
          "name": "amountSubtracted",
          "type": "uint256",
          "indexed": false,
          "internalType": "uint256"
        },
        {
          "name": "newSupply",
          "type": "uint256",
          "indexed": false,
          "internalType": "uint256"
        }
      ],
      "anonymous": false
    },
    {
      "type": "event",
      "name": "VirtualIssuanceSupplySet",
      "inputs": [
        {
          "name": "newSupply",
          "type": "uint256",
          "indexed": false,
          "internalType": "uint256"
        },
        {
          "name": "oldSupply",
          "type": "uint256",
          "indexed": false,
          "internalType": "uint256"
        }
      ],
      "anonymous": false
    },
    {
      "type": "error",
      "name": "AddressEmptyCode",
      "inputs": [
        {
          "name": "target",
          "type": "address",
          "internalType": "address"
        }
      ]
    },
    {
      "type": "error",
      "name": "AddressInsufficientBalance",
      "inputs": [
        {
          "name": "account",
          "type": "address",
          "internalType": "address"
        }
      ]
    },
    {
      "type": "error",
      "name": "FailedInnerCall",
      "inputs": []
    },
    {
      "type": "error",
      "name": "InvalidInitialization",
      "inputs": []
    },
    {
      "type": "error",
      "name": "Module_OrchestratorCallbackFailed",
      "inputs": [
        {
          "name": "funcSig",
          "type": "string",
          "internalType": "string"
        }
      ]
    },
    {
      "type": "error",
      "name": "Module__BondingCurveBase__BuyingFunctionaltiesClosed",
      "inputs": []
    },
    {
      "type": "error",
      "name": "Module__BondingCurveBase__FeeAmountToHigh",
      "inputs": []
    },
    {
      "type": "error",
      "name": "Module__BondingCurveBase__InsufficientOutputAmount",
      "inputs": []
    },
    {
      "type": "error",
      "name": "Module__BondingCurveBase__InvalidDepositAmount",
      "inputs": []
    },
    {
      "type": "error",
      "name": "Module__BondingCurveBase__InvalidFeePercentage",
      "inputs": []
    },
    {
      "type": "error",
      "name": "Module__BondingCurveBase__InvalidMinAmountOut",
      "inputs": []
    },
    {
      "type": "error",
      "name": "Module__BondingCurveBase__InvalidRecipient",
      "inputs": []
    },
    {
      "type": "error",
      "name": "Module__BondingCurveBase__InvalidWithdrawAmount",
      "inputs": []
    },
    {
      "type": "error",
      "name": "Module__BondingCurveBase__TradeAmountTooLow",
      "inputs": []
    },
    {
      "type": "error",
      "name": "Module__CallerNotAuthorized",
      "inputs": [
        {
          "name": "role",
          "type": "bytes32",
          "internalType": "bytes32"
        },
        {
          "name": "caller",
          "type": "address",
          "internalType": "address"
        }
      ]
    },
    {
      "type": "error",
      "name": "Module__FM_BC_Bancor_Redeeming_VirtualSupply__CurveInteractionsMustBeClosed",
      "inputs": []
    },
    {
      "type": "error",
      "name": "Module__FM_BC_Bancor_Redeeming_VirtualSupply__InvalidBancorFormula",
      "inputs": []
    },
    {
      "type": "error",
      "name": "Module__FM_BC_Bancor_Redeeming_VirtualSupply__InvalidOrchestratorTokenWithdrawAmount",
      "inputs": []
    },
    {
      "type": "error",
      "name": "Module__FM_BC_Bancor_Redeeming_VirtualSupply__InvalidReserveRatio",
      "inputs": []
    },
    {
      "type": "error",
      "name": "Module__FM_BC_Bancor_Redeeming_VirtualSupply__InvalidTokenDecimal",
      "inputs": []
    },
    {
      "type": "error",
      "name": "Module__FM_BC_Restricted_Bancor_Redeeming_VirtualSupply__FeatureDeactivated",
      "inputs": []
    },
    {
      "type": "error",
      "name": "Module__InvalidAddress",
      "inputs": []
    },
    {
      "type": "error",
      "name": "Module__InvalidMetadata",
      "inputs": []
    },
    {
      "type": "error",
      "name": "Module__InvalidOrchestratorAddress",
      "inputs": []
    },
    {
      "type": "error",
      "name": "Module__OnlyCallableByOrchestrator",
      "inputs": []
    },
    {
      "type": "error",
      "name": "Module__OnlyCallableByPaymentClient",
      "inputs": []
    },
    {
      "type": "error",
      "name": "Module__RedeemingBondingCurveBase__InsufficientCollateralForRedemption",
      "inputs": []
    },
    {
      "type": "error",
      "name": "Module__RedeemingBondingCurveBase__SellingFunctionaltiesClosed",
      "inputs": []
    },
    {
      "type": "error",
      "name": "Module__VirtualCollateralSupplyBase__AddResultsInOverflow",
      "inputs": []
    },
    {
      "type": "error",
      "name": "Module__VirtualCollateralSupplyBase__SubtractResultsInUnderflow",
      "inputs": []
    },
    {
      "type": "error",
      "name": "Module__VirtualCollateralSupplyBase__VirtualSupplyCannotBeZero",
      "inputs": []
    },
    {
      "type": "error",
      "name": "Module__VirtualIssuanceSupplyBase__AddResultsInOverflow",
      "inputs": []
    },
    {
      "type": "error",
      "name": "Module__VirtualIssuanceSupplyBase__SubtractResultsInUnderflow",
      "inputs": []
    },
    {
      "type": "error",
      "name": "Module__VirtualIssuanceSupplyBase__VirtualSupplyCannotBeZero",
      "inputs": []
    },
    {
      "type": "error",
      "name": "NotInitializing",
      "inputs": []
    },
    {
      "type": "error",
      "name": "SafeERC20FailedOperation",
      "inputs": [
        {
          "name": "token",
          "type": "address",
          "internalType": "address"
        }
      ]
    }
  ],
  "bytecode": {
    "object": "0x60a06040523480156200001157600080fd5b5060006080526200002162000027565b620000db565b7ff0c57e16840df040f15088dc2f81fe391c3923bec73e23a9662efc9c229c6a00805468010000000000000000900460ff1615620000785760405163f92ee8a960e01b815260040160405180910390fd5b80546001600160401b0390811614620000d85780546001600160401b0319166001600160401b0390811782556040519081527fc7f505b2f371ae2175ee4913f4499e1f2633a7b5936321eed1cdaeb6115181d29060200160405180910390a15b50565b608051614545620000f4600039600050506145456000f3fe608060405234801561001057600080fd5b506004361061021a5760003560e01c806301ffc9a71461021f5780630cc835a3146102475780631ca3bc4f1461025c57806324e3027014610276578063272bbd44146102895780632b14ca561461029c578063322d2100146102b357806347062402146102c65780634a79d50c146102cf5780634b75f54f146102e45780634f893bba146102f857806351cac5de1461030b57806354fd4d501461031e5780635600f04f14610342578063572b6c051461034a5780636115db1c1461035d57806369fcd4ac146103845780636c67e807146103975780636e423379146103aa578063759cc4b5146103bd5780637998a1c4146103d05780637da0a877146103d85780637feb48a1146103e05780638ac631e6146103f45780638b4cee08146104075780639093b01f1461041a578063935b7dbd14610427578063a8a539d91461043a578063b66a870c14610450578063b74795d914610463578063b88a2cf614610474578063ba83c97014610487578063bcb619201461048f578063bd098404146104a2578063bf75292b146104aa578063c5b27dde146104b2578063c6829ba2146104c5578063c6ab5cdc146104d9578063cbda8f82146104e1578063d1c6022f146104ea578063d4a67930146104f2578063d6febde8146104fa578063d79875eb1461050d578063f1eae64a14610520578063fa03330c14610528578063fc0c546a14610530575b600080fd5b61023261022d366004613a26565b610538565b60405190151581526020015b60405180910390f35b61025a610255366004613a50565b61057e565b005b609e546001600160a01b03165b60405161023e9190613a69565b61025a610284366004613a7d565b610667565b61025a610297366004613a7d565b6108f4565b6102a560d45481565b60405190815260200161023e565b6102a56102c1366004613a50565b610ada565b6102a5609f5481565b6102d7610b6d565b60405161023e9190613b4b565b61010754610269906001600160a01b031681565b61025a610306366004613b73565b610c02565b61025a610319366004613a50565b610dbe565b6067546068546069546040805193845260208401929092529082015260600161023e565b6102d7610e1a565b610232610358366004613b9f565b610e2c565b61010754600160c01b900463ffffffff165b60405163ffffffff909116815260200161023e565b6102a5610392366004613a50565b610e9e565b61025a6103a5366004613bbc565b610f18565b61025a6103b8366004613a50565b611134565b61025a6103cb366004613b73565b611190565b6102a561128d565b6102696113eb565b6102a56921aaa92b22afaaa9a2a960b11b81565b61025a610402366004613bfe565b611459565b61025a610415366004613a50565b6114b5565b60d3546102329060ff1681565b61025a610435366004613c1b565b611509565b61010754600160a01b900463ffffffff1661036f565b61025a61045e366004613d3d565b6115cf565b6066546001600160a01b0316610269565b61025a610482366004613bfe565b61195a565b61025a6119b6565b61025a61049d366004613bbc565b611a36565b6102a5611c1a565b6033546102a5565b61025a6104c0366004613c1b565b611c94565b609e5461023290600160a01b900460ff1681565b61025a611d03565b6102a560a05481565b6000546102a5565b61025a611d86565b61025a610508366004613e22565b611e0f565b61025a61051b366004613e22565b611e2d565b61025a611e47565b6102a5611eca565b610269611efc565b60006001600160e01b0319821663fbfcffd560e01b148061056957506001600160e01b0319821663899090df60e01b145b80610578575061057882611f0c565b92915050565b6066546040805163d09edf3160e01b8152905161065b926001600160a01b03169163d09edf319160048083019260209291908290030181865afa1580156105c9573d6000803e3d6000fd5b505050506040513d601f19601f820116820180604052508101906105ed9190613e44565b6001600160a01b031663b3ecf2366040518163ffffffff1660e01b8152600401602060405180830381865afa15801561062a573d6000803e3d6000fd5b505050506040513d601f19601f8201168201806040525081019061064e9190613e61565b610656611f31565b611f83565b61066481612092565b50565b826000606660009054906101000a90046001600160a01b03166001600160a01b031663d09edf316040518163ffffffff1660e01b8152600401602060405180830381865afa1580156106bd573d6000803e3d6000fd5b505050506040513d601f19601f820116820180604052508101906106e19190613e44565b6001600160a01b031663fdd5205f30846040518363ffffffff1660e01b815260040161070e929190613e7a565b602060405180830381865afa15801561072b573d6000803e3d6000fd5b505050506040513d601f19601f8201168201806040525081019061074f9190613e61565b9050610815606660009054906101000a90046001600160a01b03166001600160a01b031663d09edf316040518163ffffffff1660e01b8152600401602060405180830381865afa1580156107a7573d6000803e3d6000fd5b505050506040513d601f19601f820116820180604052508101906107cb9190613e44565b6001600160a01b031663248a9ca3836040518263ffffffff1660e01b81526004016107f891815260200190565b602060405180830381865afa15801561062a573d6000803e3d6000fd5b606660009054906101000a90046001600160a01b03166001600160a01b031663d09edf316040518163ffffffff1660e01b8152600401602060405180830381865afa158015610868573d6000803e3d6000fd5b505050506040513d601f19601f8201168201806040525081019061088c9190613e44565b6001600160a01b0316637d540a648686866040518463ffffffff1660e01b81526004016108bb93929190613e93565b600060405180830381600087803b1580156108d557600080fd5b505af11580156108e9573d6000803e3d6000fd5b505050505050505050565b826000606660009054906101000a90046001600160a01b03166001600160a01b031663d09edf316040518163ffffffff1660e01b8152600401602060405180830381865afa15801561094a573d6000803e3d6000fd5b505050506040513d601f19601f8201168201806040525081019061096e9190613e44565b6001600160a01b031663fdd5205f30846040518363ffffffff1660e01b815260040161099b929190613e7a565b602060405180830381865afa1580156109b8573d6000803e3d6000fd5b505050506040513d601f19601f820116820180604052508101906109dc9190613e61565b9050610a34606660009054906101000a90046001600160a01b03166001600160a01b031663d09edf316040518163ffffffff1660e01b8152600401602060405180830381865afa1580156107a7573d6000803e3d6000fd5b606660009054906101000a90046001600160a01b03166001600160a01b031663d09edf316040518163ffffffff1660e01b8152600401602060405180830381865afa158015610a87573d6000803e3d6000fd5b505050506040513d601f19601f82011682018060405250810190610aab9190613e44565b6001600160a01b031663648154538686866040518463ffffffff1660e01b81526004016108bb93929190613e93565b6000610ae78260016120db565b60408051808201909152601c81527b5f6275794f7264657228616464726573732c75696e742c75696e742960201b602090910152600080610b356000805160206144f083398151915261211d565b935093505050610b488483609f54612146565b50909450610b629050610b5a85612216565b826000612146565b509095945050505050565b606060676004018054610b7f90613eeb565b80601f0160208091040260200160405190810160405280929190818152602001828054610bab90613eeb565b8015610bf85780601f10610bcd57610100808354040283529160200191610bf8565b820191906000526020600020905b815481529060010190602001808311610bdb57829003601f168201915b5050505050905090565b81610c0c8161231a565b6066546040805163d09edf3160e01b81529051610c57926001600160a01b03169163d09edf319160048083019260209291908290030181865afa1580156105c9573d6000803e3d6000fd5b60a054821115610c7a576040516347d1bcf560e01b815260040160405180910390fd5b8160a06000828254610c8c9190613f3b565b92505081905550610d808383606660009054906101000a90046001600160a01b03166001600160a01b03166304baed9e6040518163ffffffff1660e01b8152600401602060405180830381865afa158015610ceb573d6000803e3d6000fd5b505050506040513d601f19601f82011682018060405250810190610d0f9190613e44565b6001600160a01b031663fc0c546a6040518163ffffffff1660e01b8152600401602060405180830381865afa158015610d4c573d6000803e3d6000fd5b505050506040513d601f19601f82011682018060405250810190610d709190613e44565b6001600160a01b03169190612356565b7f9e9a785b42ae3ce89ea11b526c656a7cacbd520b83908336dc8c9f4e9be9135f8383604051610db1929190613e7a565b60405180910390a1505050565b6066546040805163d09edf3160e01b81529051610e09926001600160a01b03169163d09edf319160048083019260209291908290030181865afa1580156105c9573d6000803e3d6000fd5b610e116123b3565b610664816123f7565b606060676003018054610b7f90613eeb565b60665460405163572b6c0560e01b81526000916001600160a01b03169063572b6c0590610e5d908590600401613a69565b602060405180830381865afa158015610e7a573d6000803e3d6000fd5b505050506040513d601f19601f820116820180604052508101906105789190613f63565b6000610eab8260016120db565b60408051808201909152601d81526000805160206144d0833981519152602090910152600080610ee86000805160206144b083398151915261211d565b935093505050610efa84826000612146565b50909450610f09905084612444565b9250610b62838360d454612146565b816000606660009054906101000a90046001600160a01b03166001600160a01b031663d09edf316040518163ffffffff1660e01b8152600401602060405180830381865afa158015610f6e573d6000803e3d6000fd5b505050506040513d601f19601f82011682018060405250810190610f929190613e44565b6001600160a01b031663fdd5205f30846040518363ffffffff1660e01b8152600401610fbf929190613e7a565b602060405180830381865afa158015610fdc573d6000803e3d6000fd5b505050506040513d601f19601f820116820180604052508101906110009190613e61565b9050611058606660009054906101000a90046001600160a01b03166001600160a01b031663d09edf316040518163ffffffff1660e01b8152600401602060405180830381865afa1580156107a7573d6000803e3d6000fd5b606660009054906101000a90046001600160a01b03166001600160a01b031663d09edf316040518163ffffffff1660e01b8152600401602060405180830381865afa1580156110ab573d6000803e3d6000fd5b505050506040513d601f19601f820116820180604052508101906110cf9190613e44565b6001600160a01b031663e178815485856040518363ffffffff1660e01b81526004016110fc929190613f7e565b600060405180830381600087803b15801561111657600080fd5b505af115801561112a573d6000803e3d6000fd5b5050505050505050565b6066546040805163d09edf3160e01b8152905161117f926001600160a01b03169163d09edf319160048083019260209291908290030181865afa1580156105c9573d6000803e3d6000fd5b6111876123b3565b61066481612547565b611198612550565b60a0546111a3611efc565b6001600160a01b03166370a08231306040518263ffffffff1660e01b81526004016111ce9190613a69565b602060405180830381865afa1580156111eb573d6000803e3d6000fd5b505050506040513d601f19601f8201168201806040525081019061120f9190613e61565b6112199190613f3b565b81111561123957604051633b27877360e11b815260040160405180910390fd5b6112468282610d70611efc565b816001600160a01b03167fe88292c5f714100904272672c0420345093bd0e3c5555d31f3e4e2cf5f6ca8a18260405161128191815260200190565b60405180910390a25050565b60006113e660676040518060a00160405290816000820154815260200160018201548152602001600282015481526020016003820180546112cd90613eeb565b80601f01602080910402602001604051908101604052809291908181526020018280546112f990613eeb565b80156113465780601f1061131b57610100808354040283529160200191611346565b820191906000526020600020905b81548152906001019060200180831161132957829003601f168201915b5050505050815260200160048201805461135f90613eeb565b80601f016020809104026020016040519081016040528092919081815260200182805461138b90613eeb565b80156113d85780601f106113ad576101008083540402835291602001916113d8565b820191906000526020600020905b8154815290600101906020018083116113bb57829003601f168201915b505050505081525050612668565b905090565b60665460408051637da0a87760e01b815290516000926001600160a01b031691637da0a8779160048083019260209291908290030181865afa158015611435573d6000803e3d6000fd5b505050506040513d601f19601f820116820180604052508101906113e69190613e44565b6066546040805163d09edf3160e01b815290516114a4926001600160a01b03169163d09edf319160048083019260209291908290030181865afa1580156105c9573d6000803e3d6000fd5b6114ac6123b3565b610664816126a8565b6066546040805163d09edf3160e01b81529051611500926001600160a01b03169163d09edf319160048083019260209291908290030181865afa1580156105c9573d6000803e3d6000fd5b61066481612722565b6921aaa92b22afaaa9a2a960b11b6115be606660009054906101000a90046001600160a01b03166001600160a01b031663d09edf316040518163ffffffff1660e01b8152600401602060405180830381865afa15801561156d573d6000803e3d6000fd5b505050506040513d601f19601f820116820180604052508101906115919190613e44565b6001600160a01b031663fdd5205f30846040518363ffffffff1660e01b81526004016107f8929190613e7a565b6115c984848461276b565b50505050565b60006115d96127b2565b805490915060ff600160401b82041615906001600160401b03166000811580156116005750825b90506000826001600160401b0316600114801561161c5750303b155b90508115801561162a575080155b156116485760405163f92ee8a960e01b815260040160405180910390fd5b84546001600160401b0319166001178555831561167157845460ff60401b1916600160401b1785555b61167b88886127d6565b6040805161012081018252600080825260208201819052918101829052606081018290526080810182905260a0810182905260c0810182905260e0810182905261010081018290526000888060200190518101906116d99190613fab565b61010880546001600160a01b0319166001600160a01b0383169081179091556040805163313ce56760e01b815290519497509295509093509163313ce567916004808201926020929091908290030181865afa15801561173d573d6000803e3d6000fd5b505050506040513d601f19601f82011682018060405250810190611761919061407f565b61010860146101000a81548160ff021916908360ff160217905550611785836128c4565b81516040516301ffc9a760e01b81526001600160a01b03909116906301ffc9a7906117ba9062aa06a760e31b906004016140a2565b602060405180830381865afa1580156117d7573d6000803e3d6000fd5b505050506040513d601f19601f820116820180604052508101906117fb9190613f63565b6118185760405163a112ddf960e01b815260040160405180910390fd5b815161010780546001600160a01b0319166001600160a01b0390921691909117905560e0820151611848906123f7565b611856826101000151612547565b61186382602001516126a8565b61187082604001516129d7565b61187d8260600151612092565b61188a8260800151612722565b60a0820151609e805460ff60a01b1916600160a01b921515830217905560c083015160d3805460ff19169115159190911790556101085460405160ff929091049190911681526001600160a01b038216907fdec758d17e6001f7ae45d3316ad54ed6b6e932cef251881f0f51390b69e00d279060200160405180910390a2505050831561112a57845460ff60401b19168555604051600181527fc7f505b2f371ae2175ee4913f4499e1f2633a7b5936321eed1cdaeb6115181d29060200160405180910390a15050505050505050565b6066546040805163d09edf3160e01b815290516119a5926001600160a01b03169163d09edf319160048083019260209291908290030181865afa1580156105c9573d6000803e3d6000fd5b6119ad6123b3565b610664816129d7565b6066546040805163d09edf3160e01b81529051611a01926001600160a01b03169163d09edf319160048083019260209291908290030181865afa1580156105c9573d6000803e3d6000fd5b60d3805460ff191690556040517fc34ae80cb7f967a799992108cfbc90770413d60555d5b0587a4c2c3e69c79ca490600090a1565b816000606660009054906101000a90046001600160a01b03166001600160a01b031663d09edf316040518163ffffffff1660e01b8152600401602060405180830381865afa158015611a8c573d6000803e3d6000fd5b505050506040513d601f19601f82011682018060405250810190611ab09190613e44565b6001600160a01b031663fdd5205f30846040518363ffffffff1660e01b8152600401611add929190613e7a565b602060405180830381865afa158015611afa573d6000803e3d6000fd5b505050506040513d601f19601f82011682018060405250810190611b1e9190613e61565b9050611b76606660009054906101000a90046001600160a01b03166001600160a01b031663d09edf316040518163ffffffff1660e01b8152600401602060405180830381865afa1580156107a7573d6000803e3d6000fd5b606660009054906101000a90046001600160a01b03166001600160a01b031663d09edf316040518163ffffffff1660e01b8152600401602060405180830381865afa158015611bc9573d6000803e3d6000fd5b505050506040513d601f19601f82011682018060405250810190611bed9190613e44565b6001600160a01b031663ba66f9fc85856040518363ffffffff1660e01b81526004016110fc929190613f7e565b6101075460008054610108549192600160c01b900463ffffffff1691611c4c9190600160a81b900460ff166012612a51565b611c5691906140b7565b60335461010854611c739190600160a01b900460ff166012612a51565b611c80620f4240806140b7565b611c8a91906140b7565b6113e691906140ce565b6921aaa92b22afaaa9a2a960b11b611cf8606660009054906101000a90046001600160a01b03166001600160a01b031663d09edf316040518163ffffffff1660e01b8152600401602060405180830381865afa15801561156d573d6000803e3d6000fd5b6115c9848484612ac3565b6066546040805163d09edf3160e01b81529051611d4e926001600160a01b03169163d09edf319160048083019260209291908290030181865afa1580156105c9573d6000803e3d6000fd5b609e805460ff60a01b191690556040517f44c1679cca34073ce70fed616f995237808d9599a35669fd39f3afd053e2b9b190600090a1565b6066546040805163d09edf3160e01b81529051611dd1926001600160a01b03169163d09edf319160048083019260209291908290030181865afa1580156105c9573d6000803e3d6000fd5b609e805460ff60a01b1916600160a01b1790556040517fe404df37e2f7360b624914a082278de0f9e7da04a61eaab0a8d3d26b52bc0b1990600090a1565b611e17612b03565b611e29611e22611f31565b8383611509565b5050565b611e35612b2d565b611e29611e40611f31565b8383611c94565b6066546040805163d09edf3160e01b81529051611e92926001600160a01b03169163d09edf319160048083019260209291908290030181865afa1580156105c9573d6000803e3d6000fd5b60d3805460ff191660011790556040517f9d47627df4f01d3bff516199297ca647fe2ea0448c4f2925ef8c16d614a51a7c90600090a1565b6101075460008054610108549192600160a01b900463ffffffff1691611c4c9190600160a81b900460ff166012612a51565b610108546001600160a01b031690565b60006001600160e01b031982166306fa99af60e01b1480610578575061057882612b50565b6000366014611f3f33610e2c565b8015611f4b5750808210155b15611f7b57600036611f5d8385613f3b565b611f689282906140f0565b611f719161411a565b60601c9250505090565b339250505090565b606660009054906101000a90046001600160a01b03166001600160a01b031663d09edf316040518163ffffffff1660e01b8152600401602060405180830381865afa158015611fd6573d6000803e3d6000fd5b505050506040513d601f19601f82011682018060405250810190611ffa9190613e44565b6001600160a01b031663a883867d83836040518363ffffffff1660e01b8152600401612027929190613f7e565b602060405180830381865afa158015612044573d6000803e3d6000fd5b505050506040513d601f19601f820116820180604052508101906120689190613f63565b611e295781816040516342abbb7760e01b8152600401612089929190613f7e565b60405180910390fd5b61209b81612b75565b7f28e297c7c282931a994191b735b01eaf17558295f761512a7047f4e1b8dc3b0b81609f546040516120ce92919061414a565b60405180910390a1609f55565b816000036120fc57604051631d67ff5760e11b815260040160405180910390fd5b80600003611e295760405163d8674d0d60e01b815260040160405180910390fd5b60008060008061212c85612b98565b9450915061213985612cf1565b9496949550919391925050565b600080806127106121578587614158565b1115612176576040516304e0874960e11b815260040160405180910390fd5b84156121b65761271061218986886140b7565b61219391906140ce565b9150816000036121b657604051639c43a82560e01b815260040160405180910390fd5b83156121f6576127106121c985886140b7565b6121d391906140ce565b9050806000036121f657604051639c43a82560e01b815260040160405180910390fd5b806122018388613f3b565b61220b9190613f3b565b925093509350939050565b610107546000805461010854919283926001600160a01b03909116916329a00e7c9161224e9190600160a81b900460ff166012612a51565b6033546101085461226b9190600160a01b900460ff166012612a51565b610107546101085463ffffffff600160a01b928390041691612295918a9160ff9104166012612a51565b6040518563ffffffff1660e01b81526004016122b4949392919061416b565b602060405180830381865afa1580156122d1573d6000803e3d6000fd5b505050506040513d601f19601f820116820180604052508101906122f59190613e61565b905061231381601261010860159054906101000a900460ff16612a51565b9392505050565b6001600160a01b038116158061233857506001600160a01b03811630145b156106645760405163364f556160e11b815260040160405180910390fd5b6123ae83846001600160a01b031663a9059cbb858560405160240161237c929190613e7a565b604051602081830303815290604052915060e01b6020820180516001600160e01b038381831617835250505050612e01565b505050565b609e54600160a01b900460ff161515600114806123d7575060d35460ff1615156001145b156123f557604051631a8e579560e21b815260040160405180910390fd5b565b6101085461241190601290600160a81b900460ff1661418c565b61241c90600a614289565b81101561243b5760405162ece6a560e71b815260040160405180910390fd5b61066481612e5b565b610107546000805461010854919283926001600160a01b03909116916349f9b0f79161247c9190600160a81b900460ff166012612a51565b603354610108546124999190600160a01b900460ff166012612a51565b61010760189054906101000a900463ffffffff166124c98861010860159054906101000a900460ff166012612a51565b6040518563ffffffff1660e01b81526004016124e8949392919061416b565b602060405180830381865afa158015612505573d6000803e3d6000fd5b505050506040513d601f19601f820116820180604052508101906125299190613e61565b905061231381601261010860149054906101000a900460ff16612a51565b61066481612ebb565b6066546001600160a01b03166342f6e389612569611f31565b6040518263ffffffff1660e01b81526004016125859190613a69565b602060405180830381865afa1580156125a2573d6000803e3d6000fd5b505050506040513d601f19601f820116820180604052508101906125c69190613f63565b158061264a57506125d5611f31565b6001600160a01b03166301ffc9a763286309c760e01b6040518263ffffffff1660e01b815260040161260791906140a2565b602060405180830381865afa158015612624573d6000803e3d6000fd5b505050506040513d601f19601f820116820180604052508101906126489190613f63565b155b156123f557604051631b793e7f60e21b815260040160405180910390fd5b600081600001518260600151836080015160405160200161268b93929190614298565b604051602081830303815290604052805190602001209050919050565b6126b181612f1c565b610107546040517f27c191dfc402c5c90b6333b6adc108fe15c0c368ccd3a50ec1d702f9288b8648916126f3918491600160a01b900463ffffffff16906142c3565b60405180910390a1610107805463ffffffff909216600160a01b0263ffffffff60a01b19909216919091179055565b61272b81612b75565b7f5bafec153d96f8ef37761b64348732b41a6b477401d244a5070f9f82d689adce8160d45460405161275e92919061414a565b60405180910390a160d455565b826127758161231a565b61277d612b03565b60008061278b868686612f55565b91509150612798826131b9565b6127aa6127a58287613f3b565b61322d565b505050505050565b7ff0c57e16840df040f15088dc2f81fe391c3923bec73e23a9662efc9c229c6a0090565b6127de613297565b6001600160a01b03821661280557604051637280679360e01b815260040160405180910390fd5b606680546001600160a01b0319166001600160a01b038416179055612829816132bc565b61284657604051637511254160e01b815260040160405180910390fd5b80516067908155602082015160685560408201516069556060820151829190606a906128729082614322565b50608082015160048201906128879082614322565b50905050816001600160a01b03167fd5f3f84c2e1816ce290af84d002663800b02f2985d770cdd335de76fd723b7308260405161128191906143e1565b6000816001600160a01b031663313ce5676040518163ffffffff1660e01b8152600401602060405180830381865afa158015612904573d6000803e3d6000fd5b505050506040513d601f19601f82011682018060405250810190612928919061407f565b905060078160ff16108061294c57506101085460ff600160a01b9091048116908216105b1561296a57604051638feffdc960e01b815260040160405180910390fd5b609e80546001600160a01b0319166001600160a01b038416908117909155610108805460ff60a81b1916600160a81b60ff8516908102919091179091556040519081527f4e547b7c6b59d324fecdb926aa12300420faf3a7e12a412eb7e0da193bb0d93e90602001611281565b6129e081612f1c565b610107546040517fd60e348cd25e6e7624733f552b6499f3d296a6c2d464fa0ca109b41d7453b3ca91612a22918491600160c01b900463ffffffff16906142c3565b60405180910390a1610107805463ffffffff909216600160c01b0263ffffffff60c01b19909216919091179055565b60008160ff168360ff1603612a67575082612313565b8160ff168360ff161115612aa0576000612a81838561418c565b612a8c90600a614289565b9050612a9881866140ce565b915050612313565b6000612aac848461418c565b612ab790600a614289565b9050612a9881866140b7565b82612acd8161231a565b612ad5612b2d565b600080612ae386868661331c565b9092509050612afa612af58287613f3b565b6135c6565b6127aa82613646565b609e54600160a01b900460ff166123f557604051630afe354360e11b815260040160405180910390fd5b60d35460ff166123f5576040516374d0357560e11b815260040160405180910390fd5b60006001600160e01b03198216630b8ebb1760e11b14806105785750610578826136c7565b61271081111561066457604051633ef38b5b60e11b815260040160405180910390fd5b600080606660009054906101000a90046001600160a01b03166001600160a01b0316630c340a246040518163ffffffff1660e01b8152600401602060405180830381865afa158015612bee573d6000803e3d6000fd5b505050506040513d601f19601f82011682018060405250810190612c129190613e44565b6001600160a01b031663f2d638266040518163ffffffff1660e01b8152600401602060405180830381865afa158015612c4f573d6000803e3d6000fd5b505050506040513d601f19601f82011682018060405250810190612c739190613e44565b606654604051634d970f5560e11b81526001600160a01b0392831692639b2e1eaa92612ca89291169030908890600401614441565b6040805180830381865afa158015612cc4573d6000803e3d6000fd5b505050506040513d601f19601f82011682018060405250810190612ce8919061446e565b91509150915091565b600080606660009054906101000a90046001600160a01b03166001600160a01b0316630c340a246040518163ffffffff1660e01b8152600401602060405180830381865afa158015612d47573d6000803e3d6000fd5b505050506040513d601f19601f82011682018060405250810190612d6b9190613e44565b6001600160a01b031663f2d638266040518163ffffffff1660e01b8152600401602060405180830381865afa158015612da8573d6000803e3d6000fd5b505050506040513d601f19601f82011682018060405250810190612dcc9190613e44565b6066546040516304e53bb360e01b81526001600160a01b03928316926304e53bb392612ca89291169030908890600401614441565b6000612e166001600160a01b038416836136ec565b90508051600014158015612e3b575080806020019051810190612e399190613f63565b155b156123ae5782604051635274afe760e01b81526004016120899190613a69565b80600003612e7b5760405162ece6a560e71b815260040160405180910390fd5b7fc60744c6ab5be4d0d7daa24905289cce0ac3a7c5ca60742bb43e367f5426754281600054604051612eae92919061414a565b60405180910390a1600055565b80600003612edc57604051635f60529f60e01b815260040160405180910390fd5b7f09a070adb6f2c823cf65438ad36e4d03c24d94dd2ad6ebb19dd02d09ca1fa03f81603354604051612f0f92919061414a565b60405180910390a1603355565b63ffffffff81161580612f375750620f424063ffffffff8216115b156106645760405163623115ff60e01b815260040160405180910390fd5b600080612f6284846120db565b6066546040805163025d76cf60e11b815290516000926001600160a01b0316916304baed9e9160048083019260209291908290030181865afa158015612fac573d6000803e3d6000fd5b505050506040513d601f19601f82011682018060405250810190612fd09190613e44565b6001600160a01b031663fc0c546a6040518163ffffffff1660e01b8152600401602060405180830381865afa15801561300d573d6000803e3d6000fd5b505050506040513d601f19601f820116820180604052508101906130319190613e44565b905061305061303e611f31565b6001600160a01b0383169030886136fa565b60408051808201909152601c81527b5f6275794f7264657228616464726573732c75696e742c75696e742960201b60209091015260008080806130a06000805160206144f083398151915261211d565b935093509350935060008060006130ba8c86609f54612146565b919450925090506130cb8183614158565b98506130d8878984613733565b80156130f6578060a060008282546130f09190614158565b90915550505b600061310184612216565b9050809a5061311281866000612146565b509350905061312187846137a8565b8b81101561314257604051637ac6ada560e01b815260040160405180910390fd5b61314c8e82613805565b8d6001600160a01b03167fd150a324c4fc8346977d1499aa36cac8c85e6af24bf1486022fad77d05f8b19f8e83613181611f31565b6040805193845260208401929092526001600160a01b03169082015260600160405180910390a2505050505050505050935093915050565b6000546131c890600019613f3b565b8111156131e757604051624bb81760e31b815260040160405180910390fd5b600080548201908190556040517f7aad1769c7491080279b2d6b032b0e75289a3b12c716abe0333e7be0f70fe12f916132229184919061414a565b60405180910390a150565b60335461323c90600019613f3b565b81111561325c57604051632b8d3fb960e21b815260040160405180910390fd5b603380548201908190556040517fb79781f468e2af557e9be98c94e82258c72deac9797eed9d1eb079aba4b0b3ba916132229184919061414a565b61329f613865565b6123f557604051631afcd79f60e31b815260040160405180910390fd5b60008160600151516000036132d357506000919050565b8160800151516000036132e857506000919050565b81511580156132f957506020820151155b801561330757506040820151155b1561331457506000919050565b506001919050565b60008061332984846120db565b60408051808201909152601d81526000805160206144d083398151915260209091015260008080806133686000805160206144b083398151915261211d565b935093509350935060008060006133818b856000612146565b5098508893509050600061339482612444565b90508099506133aa6133a4611f31565b8d61387f565b6133b487856137a8565b6066546040805163025d76cf60e11b815290516000926001600160a01b0316916304baed9e9160048083019260209291908290030181865afa1580156133fe573d6000803e3d6000fd5b505050506040513d601f19601f820116820180604052508101906134229190613e44565b6001600160a01b031663fc0c546a6040518163ffffffff1660e01b8152600401602060405180830381865afa15801561345f573d6000803e3d6000fd5b505050506040513d601f19601f820116820180604052508101906134839190613e44565b6040516370a0823160e01b81529091506001600160a01b038216906370a08231906134b2903090600401613a69565b602060405180830381865afa1580156134cf573d6000803e3d6000fd5b505050506040513d601f19601f820116820180604052508101906134f39190613e61565b60a0546135009084614158565b111561351f576040516332dcd2bb60e11b815260040160405180910390fd5b61352c828860d454612146565b9096509450915061353e898287613733565b831561355c578360a060008282546135569190614158565b90915550505b8b82101561357d57604051637ac6ada560e01b815260040160405180910390fd5b6135916001600160a01b0382168f84612356565b8d6001600160a01b03167f7debc712939ce2028bbca7ca90cc85e8fb59a7772e041423d3ec1588af4730ed8e84613181611f31565b6000548111156135e9576040516309f5d4ab60e21b815260040160405180910390fd5b600054810361360a5760405162ece6a560e71b815260040160405180910390fd5b60008054829003908190556040517ffb531aedaaeb99214c8335d339abd3ff055ecd418763e51672f7d7a6eb91ce5d916132229184919061414a565b60335481111561366957604051635d3da26b60e11b815260040160405180910390fd5b603354810361368b57604051635f60529f60e01b815260040160405180910390fd5b60338054829003908190556040517ff90da9caba169a00f9544c3f2cf6e2b5c632fae79eb6116e76ff1f3c1f21472c916132229184919061414a565b60006001600160e01b0319821663e328951160e01b14806105785750610578826138b1565b6060612313838360006138d7565b6040516001600160a01b0384811660248301528381166044830152606482018390526115c99186918216906323b872dd9060840161237c565b80156123ae576137428361231a565b6137566001600160a01b0383168483612356565b826001600160a01b0316826001600160a01b03167f81535d361819544361f80ddbe5071aef378a8ecba1c52f2c45fe3335234c43318360405161379b91815260200190565b60405180910390a3505050565b8015611e29576137b78261231a565b6137c18282613805565b6040518181526001600160a01b0383169030907f11a26a26a718a46d85815d79165470744429ab0f3093113929c59c097bbebb9a9060200160405180910390a35050565b609e546040516340c10f1960e01b81526001600160a01b03909116906340c10f19906138379085908590600401613e7a565b600060405180830381600087803b15801561385157600080fd5b505af11580156127aa573d6000803e3d6000fd5b600061386f6127b2565b54600160401b900460ff16919050565b609e54604051632770a7eb60e21b81526001600160a01b0390911690639dc29fac906138379085908590600401613e7a565b600063689b8d2960e11b6001600160e01b03198316811480612313575061231383613974565b6060814710156138fc573060405163cd78605960e01b81526004016120899190613a69565b600080856001600160a01b031684866040516139189190614493565b60006040518083038185875af1925050503d8060008114613955576040519150601f19603f3d011682016040523d82523d6000602084013e61395a565b606091505b509150915061396a8683836139aa565b9695505050505050565b600063800cc7f160e01b6001600160e01b0319831681148061231357506301ffc9a760e01b6001600160e01b0319841614612313565b6060826139bf576139ba826139fd565b612313565b81511580156139d657506001600160a01b0384163b155b156139f65783604051639996b31560e01b81526004016120899190613a69565b5080612313565b805115613a0d5780518082602001fd5b604051630a12f52160e11b815260040160405180910390fd5b600060208284031215613a3857600080fd5b81356001600160e01b03198116811461231357600080fd5b600060208284031215613a6257600080fd5b5035919050565b6001600160a01b0391909116815260200190565b600080600060408486031215613a9257600080fd5b8335925060208401356001600160401b0380821115613ab057600080fd5b818601915086601f830112613ac457600080fd5b813581811115613ad357600080fd5b8760208260051b8501011115613ae857600080fd5b6020830194508093505050509250925092565b60005b83811015613b16578181015183820152602001613afe565b50506000910152565b60008151808452613b37816020860160208601613afb565b601f01601f19169290920160200192915050565b6020815260006123136020830184613b1f565b6001600160a01b038116811461066457600080fd5b60008060408385031215613b8657600080fd5b8235613b9181613b5e565b946020939093013593505050565b600060208284031215613bb157600080fd5b813561231381613b5e565b60008060408385031215613bcf57600080fd5b823591506020830135613be181613b5e565b809150509250929050565b63ffffffff8116811461066457600080fd5b600060208284031215613c1057600080fd5b813561231381613bec565b600080600060608486031215613c3057600080fd5b8335613c3b81613b5e565b95602085013595506040909401359392505050565b634e487b7160e01b600052604160045260246000fd5b60405160a081016001600160401b0381118282101715613c8857613c88613c50565b60405290565b60405161012081016001600160401b0381118282101715613c8857613c88613c50565b600082601f830112613cc257600080fd5b81356001600160401b0380821115613cdc57613cdc613c50565b604051601f8301601f19908116603f01168101908282118183101715613d0457613d04613c50565b81604052838152866020858801011115613d1d57600080fd5b836020870160208301376000602085830101528094505050505092915050565b600080600060608486031215613d5257600080fd5b8335613d5d81613b5e565b925060208401356001600160401b0380821115613d7957600080fd5b9085019060a08288031215613d8d57600080fd5b613d95613c66565b823581526020830135602082015260408301356040820152606083013582811115613dbf57600080fd5b613dcb89828601613cb1565b606083015250608083013582811115613de357600080fd5b613def89828601613cb1565b60808301525093506040860135915080821115613e0b57600080fd5b50613e1886828701613cb1565b9150509250925092565b60008060408385031215613e3557600080fd5b50508035926020909101359150565b600060208284031215613e5657600080fd5b815161231381613b5e565b600060208284031215613e7357600080fd5b5051919050565b6001600160a01b03929092168252602082015260400190565b83815260406020808301829052908201839052600090849060608401835b86811015613edf578335613ec481613b5e565b6001600160a01b031682529282019290820190600101613eb1565b50979650505050505050565b600181811c90821680613eff57607f821691505b602082108103613f1f57634e487b7160e01b600052602260045260246000fd5b50919050565b634e487b7160e01b600052601160045260246000fd5b8181038181111561057857610578613f25565b80518015158114613f5e57600080fd5b919050565b600060208284031215613f7557600080fd5b61231382613f4e565b9182526001600160a01b0316602082015260400190565b8051613f5e81613b5e565b8051613f5e81613bec565b6000806000838503610160811215613fc257600080fd5b8451613fcd81613b5e565b9350610120601f198201811315613fe357600080fd5b613feb613c8e565b9150613ff960208701613f95565b825261400760408701613fa0565b602083015261401860608701613fa0565b60408301526080860151606083015260a0860151608083015261403d60c08701613f4e565b60a083015261404e60e08701613f4e565b60c08301526101008681015160e0840152908601519082015291506140766101408501613f95565b90509250925092565b60006020828403121561409157600080fd5b815160ff8116811461231357600080fd5b6001600160e01b031991909116815260200190565b808202811582820484141761057857610578613f25565b6000826140eb57634e487b7160e01b600052601260045260246000fd5b500490565b6000808585111561410057600080fd5b8386111561410d57600080fd5b5050820193919092039150565b6001600160601b031981358181169160148510156141425780818660140360031b1b83161692505b505092915050565b918252602082015260400190565b8082018082111561057857610578613f25565b938452602084019290925263ffffffff166040830152606082015260800190565b60ff828116828216039081111561057857610578613f25565b600181815b808511156141e05781600019048211156141c6576141c6613f25565b808516156141d357918102915b93841c93908002906141aa565b509250929050565b6000826141f757506001610578565b8161420457506000610578565b816001811461421a576002811461422457614240565b6001915050610578565b60ff84111561423557614235613f25565b50506001821b610578565b5060208310610133831016604e8410600b8410161715614263575081810a610578565b61426d83836141a5565b806000190482111561428157614281613f25565b029392505050565b600061231360ff8416836141e8565b8381526060602082015260006142b16060830185613b1f565b828103604084015261396a8185613b1f565b63ffffffff92831681529116602082015260400190565b601f8211156123ae576000816000526020600020601f850160051c810160208610156143035750805b601f850160051c820191505b818110156127aa5782815560010161430f565b81516001600160401b0381111561433b5761433b613c50565b61434f816143498454613eeb565b846142da565b602080601f831160018114614384576000841561436c5750858301515b600019600386901b1c1916600185901b1785556127aa565b600085815260208120601f198616915b828110156143b357888601518255948401946001909101908401614394565b50858210156143d15787850151600019600388901b60f8161c191681555b5050505050600190811b01905550565b602081528151602082015260208201516040820152604082015160608201526000606083015160a0608084015261441b60c0840182613b1f565b90506080840151601f198483030160a08501526144388282613b1f565b95945050505050565b6001600160a01b0393841681529190921660208201526001600160e01b0319909116604082015260600190565b6000806040838503121561448157600080fd5b825191506020830151613be181613b5e565b600082516144a5818460208701613afb565b919091019291505056fe3299ac1e4997da1dd638584692e27ee6e952ca63f8284764a73c592284e1d9e85f73656c6c4f7264657228616464726573732c75696e742c75696e7429000000db2c93faffa8f98d8bcd55cf740e8ead65ac1699aaf6ee8a00820485fc802af6a2646970667358221220c4d1127a8ddd13129d95905843a98494c06bb5992a91b1928ef1b374bd20f27b64736f6c63430008170033",
    "linkReferences": {}
  },
  "methodIdentifiers": {
    "CURVE_INTERACTION_ROLE()": "7feb48a1",
    "buy(uint256,uint256)": "d6febde8",
    "buyFee()": "47062402",
    "buyFor(address,uint256,uint256)": "935b7dbd",
    "buyIsOpen()": "c6829ba2",
    "calculatePurchaseReturn(uint256)": "322d2100",
    "calculateSaleReturn(uint256)": "69fcd4ac",
    "closeBuy()": "c6ab5cdc",
    "closeSell()": "ba83c970",
    "formula()": "4b75f54f",
    "getIssuanceToken()": "1ca3bc4f",
    "getReserveRatioForBuying()": "a8a539d9",
    "getReserveRatioForSelling()": "6115db1c",
    "getStaticPriceForBuying()": "fa03330c",
    "getStaticPriceForSelling()": "bd098404",
    "getVirtualCollateralSupply()": "bf75292b",
    "getVirtualIssuanceSupply()": "d1c6022f",
    "grantModuleRole(bytes32,address)": "6c67e807",
    "grantModuleRoleBatched(bytes32,address[])": "272bbd44",
    "identifier()": "7998a1c4",
    "init(address,(uint256,uint256,uint256,string,string),bytes)": "b66a870c",
    "isTrustedForwarder(address)": "572b6c05",
    "openBuy()": "d4a67930",
    "openSell()": "f1eae64a",
    "orchestrator()": "b74795d9",
    "projectCollateralFeeCollected()": "cbda8f82",
    "revokeModuleRole(bytes32,address)": "bcb61920",
    "revokeModuleRoleBatched(bytes32,address[])": "24e30270",
    "sell(uint256,uint256)": "d79875eb",
    "sellFee()": "2b14ca56",
    "sellIsOpen()": "9093b01f",
    "sellTo(address,uint256,uint256)": "c5b27dde",
    "setBuyFee(uint256)": "0cc835a3",
    "setReserveRatioForBuying(uint32)": "8ac631e6",
    "setReserveRatioForSelling(uint32)": "b88a2cf6",
    "setSellFee(uint256)": "8b4cee08",
    "setVirtualCollateralSupply(uint256)": "6e423379",
    "setVirtualIssuanceSupply(uint256)": "51cac5de",
    "supportsInterface(bytes4)": "01ffc9a7",
    "title()": "4a79d50c",
    "token()": "fc0c546a",
    "transferOrchestratorToken(address,uint256)": "759cc4b5",
    "trustedForwarder()": "7da0a877",
    "url()": "5600f04f",
    "version()": "54fd4d50",
    "withdrawProjectCollateralFee(address,uint256)": "4f893bba"
  },
  "id": 90
}