{
  "abi": [
    {
      "type": "function",
      "name": "buy",
      "inputs": [
        {
          "name": "_depositAmount",
          "type": "uint256",
          "internalType": "uint256"
        },
        {
          "name": "_minAmountOut",
          "type": "uint256",
          "internalType": "uint256"
        }
      ],
      "outputs": [],
      "stateMutability": "nonpayable"
    },
    {
      "type": "function",
      "name": "buyFee",
      "inputs": [],
      "outputs": [
        {
          "name": "",
          "type": "uint256",
          "internalType": "uint256"
        }
      ],
      "stateMutability": "view"
    },
    {
      "type": "function",
      "name": "buyFor",
      "inputs": [
        {
          "name": "_receiver",
          "type": "address",
          "internalType": "address"
        },
        {
          "name": "_depositAmount",
          "type": "uint256",
          "internalType": "uint256"
        },
        {
          "name": "_minAmountOut",
          "type": "uint256",
          "internalType": "uint256"
        }
      ],
      "outputs": [],
      "stateMutability": "nonpayable"
    },
    {
      "type": "function",
      "name": "buyIsOpen",
      "inputs": [],
      "outputs": [
        {
          "name": "",
          "type": "bool",
          "internalType": "bool"
        }
      ],
      "stateMutability": "view"
    },
    {
      "type": "function",
      "name": "calculatePurchaseReturn",
      "inputs": [
        {
          "name": "_depositAmount",
          "type": "uint256",
          "internalType": "uint256"
        }
      ],
      "outputs": [
        {
          "name": "mintAmount",
          "type": "uint256",
          "internalType": "uint256"
        }
      ],
      "stateMutability": "view"
    },
    {
      "type": "function",
      "name": "calculateSaleReturn",
      "inputs": [
        {
          "name": "_depositAmount",
          "type": "uint256",
          "internalType": "uint256"
        }
      ],
      "outputs": [
        {
          "name": "redeemAmount",
          "type": "uint256",
          "internalType": "uint256"
        }
      ],
      "stateMutability": "view"
    },
    {
      "type": "function",
      "name": "closeBuy",
      "inputs": [],
      "outputs": [],
      "stateMutability": "nonpayable"
    },
    {
      "type": "function",
      "name": "closeSell",
      "inputs": [],
      "outputs": [],
      "stateMutability": "nonpayable"
    },
    {
      "type": "function",
      "name": "formula",
      "inputs": [],
      "outputs": [
        {
          "name": "",
          "type": "address",
          "internalType": "contract IBancorFormula"
        }
      ],
      "stateMutability": "view"
    },
    {
      "type": "function",
      "name": "getIssuanceToken",
      "inputs": [],
      "outputs": [
        {
          "name": "",
          "type": "address",
          "internalType": "address"
        }
      ],
      "stateMutability": "view"
    },
    {
      "type": "function",
      "name": "getReserveRatioForBuying",
      "inputs": [],
      "outputs": [
        {
          "name": "",
          "type": "uint32",
          "internalType": "uint32"
        }
      ],
      "stateMutability": "view"
    },
    {
      "type": "function",
      "name": "getReserveRatioForSelling",
      "inputs": [],
      "outputs": [
        {
          "name": "",
          "type": "uint32",
          "internalType": "uint32"
        }
      ],
      "stateMutability": "view"
    },
    {
      "type": "function",
      "name": "getStaticPriceForBuying",
      "inputs": [],
      "outputs": [
        {
          "name": "",
          "type": "uint256",
          "internalType": "uint256"
        }
      ],
      "stateMutability": "view"
    },
    {
      "type": "function",
      "name": "getStaticPriceForSelling",
      "inputs": [],
      "outputs": [
        {
          "name": "",
          "type": "uint256",
          "internalType": "uint256"
        }
      ],
      "stateMutability": "view"
    },
    {
      "type": "function",
      "name": "getVirtualCollateralSupply",
      "inputs": [],
      "outputs": [
        {
          "name": "",
          "type": "uint256",
          "internalType": "uint256"
        }
      ],
      "stateMutability": "view"
    },
    {
      "type": "function",
      "name": "getVirtualIssuanceSupply",
      "inputs": [],
      "outputs": [
        {
          "name": "",
          "type": "uint256",
          "internalType": "uint256"
        }
      ],
      "stateMutability": "view"
    },
    {
      "type": "function",
      "name": "grantModuleRole",
      "inputs": [
        {
          "name": "role",
          "type": "bytes32",
          "internalType": "bytes32"
        },
        {
          "name": "target",
          "type": "address",
          "internalType": "address"
        }
      ],
      "outputs": [],
      "stateMutability": "nonpayable"
    },
    {
      "type": "function",
      "name": "grantModuleRoleBatched",
      "inputs": [
        {
          "name": "role",
          "type": "bytes32",
          "internalType": "bytes32"
        },
        {
          "name": "targets",
          "type": "address[]",
          "internalType": "address[]"
        }
      ],
      "outputs": [],
      "stateMutability": "nonpayable"
    },
    {
      "type": "function",
      "name": "identifier",
      "inputs": [],
      "outputs": [
        {
          "name": "",
          "type": "bytes32",
          "internalType": "bytes32"
        }
      ],
      "stateMutability": "view"
    },
    {
      "type": "function",
      "name": "init",
      "inputs": [
        {
          "name": "orchestrator_",
          "type": "address",
          "internalType": "contract IOrchestrator_v1"
        },
        {
          "name": "metadata",
          "type": "tuple",
          "internalType": "struct IModule_v1.Metadata",
          "components": [
            {
              "name": "majorVersion",
              "type": "uint256",
              "internalType": "uint256"
            },
            {
              "name": "minorVersion",
              "type": "uint256",
              "internalType": "uint256"
            },
            {
              "name": "patchVersion",
              "type": "uint256",
              "internalType": "uint256"
            },
            {
              "name": "url",
              "type": "string",
              "internalType": "string"
            },
            {
              "name": "title",
              "type": "string",
              "internalType": "string"
            }
          ]
        },
        {
          "name": "configData",
          "type": "bytes",
          "internalType": "bytes"
        }
      ],
      "outputs": [],
      "stateMutability": "nonpayable"
    },
    {
      "type": "function",
      "name": "isTrustedForwarder",
      "inputs": [
        {
          "name": "forwarder",
          "type": "address",
          "internalType": "address"
        }
      ],
      "outputs": [
        {
          "name": "",
          "type": "bool",
          "internalType": "bool"
        }
      ],
      "stateMutability": "view"
    },
    {
      "type": "function",
      "name": "openBuy",
      "inputs": [],
      "outputs": [],
      "stateMutability": "nonpayable"
    },
    {
      "type": "function",
      "name": "openSell",
      "inputs": [],
      "outputs": [],
      "stateMutability": "nonpayable"
    },
    {
      "type": "function",
      "name": "orchestrator",
      "inputs": [],
      "outputs": [
        {
          "name": "",
          "type": "address",
          "internalType": "contract IOrchestrator_v1"
        }
      ],
      "stateMutability": "view"
    },
    {
      "type": "function",
      "name": "projectCollateralFeeCollected",
      "inputs": [],
      "outputs": [
        {
          "name": "",
          "type": "uint256",
          "internalType": "uint256"
        }
      ],
      "stateMutability": "view"
    },
    {
      "type": "function",
      "name": "revokeModuleRole",
      "inputs": [
        {
          "name": "role",
          "type": "bytes32",
          "internalType": "bytes32"
        },
        {
          "name": "target",
          "type": "address",
          "internalType": "address"
        }
      ],
      "outputs": [],
      "stateMutability": "nonpayable"
    },
    {
      "type": "function",
      "name": "revokeModuleRoleBatched",
      "inputs": [
        {
          "name": "role",
          "type": "bytes32",
          "internalType": "bytes32"
        },
        {
          "name": "targets",
          "type": "address[]",
          "internalType": "address[]"
        }
      ],
      "outputs": [],
      "stateMutability": "nonpayable"
    },
    {
      "type": "function",
      "name": "sell",
      "inputs": [
        {
          "name": "_depositAmount",
          "type": "uint256",
          "internalType": "uint256"
        },
        {
          "name": "_minAmountOut",
          "type": "uint256",
          "internalType": "uint256"
        }
      ],
      "outputs": [],
      "stateMutability": "nonpayable"
    },
    {
      "type": "function",
      "name": "sellFee",
      "inputs": [],
      "outputs": [
        {
          "name": "",
          "type": "uint256",
          "internalType": "uint256"
        }
      ],
      "stateMutability": "view"
    },
    {
      "type": "function",
      "name": "sellIsOpen",
      "inputs": [],
      "outputs": [
        {
          "name": "",
          "type": "bool",
          "internalType": "bool"
        }
      ],
      "stateMutability": "view"
    },
    {
      "type": "function",
      "name": "sellTo",
      "inputs": [
        {
          "name": "_receiver",
          "type": "address",
          "internalType": "address"
        },
        {
          "name": "_depositAmount",
          "type": "uint256",
          "internalType": "uint256"
        },
        {
          "name": "_minAmountOut",
          "type": "uint256",
          "internalType": "uint256"
        }
      ],
      "outputs": [],
      "stateMutability": "nonpayable"
    },
    {
      "type": "function",
      "name": "setBuyFee",
      "inputs": [
        {
          "name": "_fee",
          "type": "uint256",
          "internalType": "uint256"
        }
      ],
      "outputs": [],
      "stateMutability": "nonpayable"
    },
    {
      "type": "function",
      "name": "setReserveRatioForBuying",
      "inputs": [
        {
          "name": "_reserveRatio",
          "type": "uint32",
          "internalType": "uint32"
        }
      ],
      "outputs": [],
      "stateMutability": "nonpayable"
    },
    {
      "type": "function",
      "name": "setReserveRatioForSelling",
      "inputs": [
        {
          "name": "_reserveRatio",
          "type": "uint32",
          "internalType": "uint32"
        }
      ],
      "outputs": [],
      "stateMutability": "nonpayable"
    },
    {
      "type": "function",
      "name": "setSellFee",
      "inputs": [
        {
          "name": "_fee",
          "type": "uint256",
          "internalType": "uint256"
        }
      ],
      "outputs": [],
      "stateMutability": "nonpayable"
    },
    {
      "type": "function",
      "name": "setVirtualCollateralSupply",
      "inputs": [
        {
          "name": "_virtualSupply",
          "type": "uint256",
          "internalType": "uint256"
        }
      ],
      "outputs": [],
      "stateMutability": "nonpayable"
    },
    {
      "type": "function",
      "name": "setVirtualIssuanceSupply",
      "inputs": [
        {
          "name": "_virtualSupply",
          "type": "uint256",
          "internalType": "uint256"
        }
      ],
      "outputs": [],
      "stateMutability": "nonpayable"
    },
    {
      "type": "function",
      "name": "supportsInterface",
      "inputs": [
        {
          "name": "interfaceId",
          "type": "bytes4",
          "internalType": "bytes4"
        }
      ],
      "outputs": [
        {
          "name": "",
          "type": "bool",
          "internalType": "bool"
        }
      ],
      "stateMutability": "view"
    },
    {
      "type": "function",
      "name": "title",
      "inputs": [],
      "outputs": [
        {
          "name": "",
          "type": "string",
          "internalType": "string"
        }
      ],
      "stateMutability": "view"
    },
    {
      "type": "function",
      "name": "token",
      "inputs": [],
      "outputs": [
        {
          "name": "",
          "type": "address",
          "internalType": "contract IERC20"
        }
      ],
      "stateMutability": "view"
    },
    {
      "type": "function",
      "name": "transferOrchestratorToken",
      "inputs": [
        {
          "name": "to",
          "type": "address",
          "internalType": "address"
        },
        {
          "name": "amount",
          "type": "uint256",
          "internalType": "uint256"
        }
      ],
      "outputs": [],
      "stateMutability": "nonpayable"
    },
    {
      "type": "function",
      "name": "trustedForwarder",
      "inputs": [],
      "outputs": [
        {
          "name": "",
          "type": "address",
          "internalType": "address"
        }
      ],
      "stateMutability": "view"
    },
    {
      "type": "function",
      "name": "url",
      "inputs": [],
      "outputs": [
        {
          "name": "",
          "type": "string",
          "internalType": "string"
        }
      ],
      "stateMutability": "view"
    },
    {
      "type": "function",
      "name": "version",
      "inputs": [],
      "outputs": [
        {
          "name": "",
          "type": "uint256",
          "internalType": "uint256"
        },
        {
          "name": "",
          "type": "uint256",
          "internalType": "uint256"
        },
        {
          "name": "",
          "type": "uint256",
          "internalType": "uint256"
        }
      ],
      "stateMutability": "view"
    },
    {
      "type": "function",
      "name": "withdrawProjectCollateralFee",
      "inputs": [
        {
          "name": "_receiver",
          "type": "address",
          "internalType": "address"
        },
        {
          "name": "_amount",
          "type": "uint256",
          "internalType": "uint256"
        }
      ],
      "outputs": [],
      "stateMutability": "nonpayable"
    },
    {
      "type": "event",
      "name": "BuyFeeUpdated",
      "inputs": [
        {
          "name": "newBuyFee",
          "type": "uint256",
          "indexed": false,
          "internalType": "uint256"
        },
        {
          "name": "oldBuyFee",
          "type": "uint256",
          "indexed": false,
          "internalType": "uint256"
        }
      ],
      "anonymous": false
    },
    {
      "type": "event",
      "name": "BuyReserveRatioSet",
      "inputs": [
        {
          "name": "newBuyReserveRatio",
          "type": "uint32",
          "indexed": false,
          "internalType": "uint32"
        },
        {
          "name": "oldBuyReserveRatio",
          "type": "uint32",
          "indexed": false,
          "internalType": "uint32"
        }
      ],
      "anonymous": false
    },
    {
      "type": "event",
      "name": "BuyingDisabled",
      "inputs": [],
      "anonymous": false
    },
    {
      "type": "event",
      "name": "BuyingEnabled",
      "inputs": [],
      "anonymous": false
    },
    {
      "type": "event",
      "name": "Initialized",
      "inputs": [
        {
          "name": "version",
          "type": "uint64",
          "indexed": false,
          "internalType": "uint64"
        }
      ],
      "anonymous": false
    },
    {
      "type": "event",
      "name": "IssuanceTokenSet",
      "inputs": [
        {
          "name": "issuanceToken",
          "type": "address",
          "indexed": true,
          "internalType": "address"
        },
        {
          "name": "decimals",
          "type": "uint8",
          "indexed": false,
          "internalType": "uint8"
        }
      ],
      "anonymous": false
    },
    {
      "type": "event",
      "name": "ModuleInitialized",
      "inputs": [
        {
          "name": "parentOrchestrator",
          "type": "address",
          "indexed": true,
          "internalType": "address"
        },
        {
          "name": "metadata",
          "type": "tuple",
          "indexed": false,
          "internalType": "struct IModule_v1.Metadata",
          "components": [
            {
              "name": "majorVersion",
              "type": "uint256",
              "internalType": "uint256"
            },
            {
              "name": "minorVersion",
              "type": "uint256",
              "internalType": "uint256"
            },
            {
              "name": "patchVersion",
              "type": "uint256",
              "internalType": "uint256"
            },
            {
              "name": "url",
              "type": "string",
              "internalType": "string"
            },
            {
              "name": "title",
              "type": "string",
              "internalType": "string"
            }
          ]
        }
      ],
      "anonymous": false
    },
    {
      "type": "event",
      "name": "OrchestratorTokenSet",
      "inputs": [
        {
          "name": "token",
          "type": "address",
          "indexed": true,
          "internalType": "address"
        },
        {
          "name": "decimals",
          "type": "uint8",
          "indexed": false,
          "internalType": "uint8"
        }
      ],
      "anonymous": false
    },
    {
      "type": "event",
      "name": "ProjectCollateralFeeWithdrawn",
      "inputs": [
        {
          "name": "receiver",
          "type": "address",
          "indexed": false,
          "internalType": "address"
        },
        {
          "name": "amount",
          "type": "uint256",
          "indexed": false,
          "internalType": "uint256"
        }
      ],
      "anonymous": false
    },
    {
      "type": "event",
      "name": "ProtocolFeeMinted",
      "inputs": [
        {
          "name": "token",
          "type": "address",
          "indexed": true,
          "internalType": "address"
        },
        {
          "name": "treasury",
          "type": "address",
          "indexed": true,
          "internalType": "address"
        },
        {
          "name": "feeAmount",
          "type": "uint256",
          "indexed": false,
          "internalType": "uint256"
        }
      ],
      "anonymous": false
    },
    {
      "type": "event",
      "name": "ProtocolFeeTransferred",
      "inputs": [
        {
          "name": "token",
          "type": "address",
          "indexed": true,
          "internalType": "address"
        },
        {
          "name": "treasury",
          "type": "address",
          "indexed": true,
          "internalType": "address"
        },
        {
          "name": "feeAmount",
          "type": "uint256",
          "indexed": false,
          "internalType": "uint256"
        }
      ],
      "anonymous": false
    },
    {
      "type": "event",
      "name": "SellFeeUpdated",
      "inputs": [
        {
          "name": "newSellFee",
          "type": "uint256",
          "indexed": false,
          "internalType": "uint256"
        },
        {
          "name": "oldSellFee",
          "type": "uint256",
          "indexed": false,
          "internalType": "uint256"
        }
      ],
      "anonymous": false
    },
    {
      "type": "event",
      "name": "SellReserveRatioSet",
      "inputs": [
        {
          "name": "newSellReserveRatio",
          "type": "uint32",
          "indexed": false,
          "internalType": "uint32"
        },
        {
          "name": "oldSellReserveRatio",
          "type": "uint32",
          "indexed": false,
          "internalType": "uint32"
        }
      ],
      "anonymous": false
    },
    {
      "type": "event",
      "name": "SellingDisabled",
      "inputs": [],
      "anonymous": false
    },
    {
      "type": "event",
      "name": "SellingEnabled",
      "inputs": [],
      "anonymous": false
    },
    {
      "type": "event",
      "name": "TokenDecimalsUpdated",
      "inputs": [
        {
          "name": "oldDecimals",
          "type": "uint8",
          "indexed": false,
          "internalType": "uint8"
        },
        {
          "name": "newDecimals",
          "type": "uint8",
          "indexed": false,
          "internalType": "uint8"
        }
      ],
      "anonymous": false
    },
    {
      "type": "event",
      "name": "TokensBought",
      "inputs": [
        {
          "name": "receiver",
          "type": "address",
          "indexed": true,
          "internalType": "address"
        },
        {
          "name": "depositAmount",
          "type": "uint256",
          "indexed": false,
          "internalType": "uint256"
        },
        {
          "name": "receivedAmount",
          "type": "uint256",
          "indexed": false,
          "internalType": "uint256"
        },
        {
          "name": "buyer",
          "type": "address",
          "indexed": false,
          "internalType": "address"
        }
      ],
      "anonymous": false
    },
    {
      "type": "event",
      "name": "TokensSold",
      "inputs": [
        {
          "name": "receiver",
          "type": "address",
          "indexed": true,
          "internalType": "address"
        },
        {
          "name": "depositAmount",
          "type": "uint256",
          "indexed": false,
          "internalType": "uint256"
        },
        {
          "name": "receivedAmount",
          "type": "uint256",
          "indexed": false,
          "internalType": "uint256"
        },
        {
          "name": "seller",
          "type": "address",
          "indexed": false,
          "internalType": "address"
        }
      ],
      "anonymous": false
    },
    {
      "type": "event",
      "name": "TransferOrchestratorToken",
      "inputs": [
        {
          "name": "_to",
          "type": "address",
          "indexed": true,
          "internalType": "address"
        },
        {
          "name": "_amount",
          "type": "uint256",
          "indexed": false,
          "internalType": "uint256"
        }
      ],
      "anonymous": false
    },
    {
      "type": "event",
      "name": "VirtualCollateralAmountAdded",
      "inputs": [
        {
          "name": "amountAdded",
          "type": "uint256",
          "indexed": false,
          "internalType": "uint256"
        },
        {
          "name": "newSupply",
          "type": "uint256",
          "indexed": false,
          "internalType": "uint256"
        }
      ],
      "anonymous": false
    },
    {
      "type": "event",
      "name": "VirtualCollateralAmountSubtracted",
      "inputs": [
        {
          "name": "amountSubtracted",
          "type": "uint256",
          "indexed": false,
          "internalType": "uint256"
        },
        {
          "name": "newSupply",
          "type": "uint256",
          "indexed": false,
          "internalType": "uint256"
        }
      ],
      "anonymous": false
    },
    {
      "type": "event",
      "name": "VirtualCollateralSupplySet",
      "inputs": [
        {
          "name": "newSupply",
          "type": "uint256",
          "indexed": false,
          "internalType": "uint256"
        },
        {
          "name": "oldSupply",
          "type": "uint256",
          "indexed": false,
          "internalType": "uint256"
        }
      ],
      "anonymous": false
    },
    {
      "type": "event",
      "name": "VirtualIssuanceAmountAdded",
      "inputs": [
        {
          "name": "amountAdded",
          "type": "uint256",
          "indexed": false,
          "internalType": "uint256"
        },
        {
          "name": "newSupply",
          "type": "uint256",
          "indexed": false,
          "internalType": "uint256"
        }
      ],
      "anonymous": false
    },
    {
      "type": "event",
      "name": "VirtualIssuanceAmountSubtracted",
      "inputs": [
        {
          "name": "amountSubtracted",
          "type": "uint256",
          "indexed": false,
          "internalType": "uint256"
        },
        {
          "name": "newSupply",
          "type": "uint256",
          "indexed": false,
          "internalType": "uint256"
        }
      ],
      "anonymous": false
    },
    {
      "type": "event",
      "name": "VirtualIssuanceSupplySet",
      "inputs": [
        {
          "name": "newSupply",
          "type": "uint256",
          "indexed": false,
          "internalType": "uint256"
        },
        {
          "name": "oldSupply",
          "type": "uint256",
          "indexed": false,
          "internalType": "uint256"
        }
      ],
      "anonymous": false
    },
    {
      "type": "error",
      "name": "AddressEmptyCode",
      "inputs": [
        {
          "name": "target",
          "type": "address",
          "internalType": "address"
        }
      ]
    },
    {
      "type": "error",
      "name": "AddressInsufficientBalance",
      "inputs": [
        {
          "name": "account",
          "type": "address",
          "internalType": "address"
        }
      ]
    },
    {
      "type": "error",
      "name": "FailedInnerCall",
      "inputs": []
    },
    {
      "type": "error",
      "name": "InvalidInitialization",
      "inputs": []
    },
    {
      "type": "error",
      "name": "Module_OrchestratorCallbackFailed",
      "inputs": [
        {
          "name": "funcSig",
          "type": "string",
          "internalType": "string"
        }
      ]
    },
    {
      "type": "error",
      "name": "Module__BondingCurveBase__BuyingFunctionaltiesClosed",
      "inputs": []
    },
    {
      "type": "error",
      "name": "Module__BondingCurveBase__FeeAmountToHigh",
      "inputs": []
    },
    {
      "type": "error",
      "name": "Module__BondingCurveBase__InsufficientOutputAmount",
      "inputs": []
    },
    {
      "type": "error",
      "name": "Module__BondingCurveBase__InvalidDepositAmount",
      "inputs": []
    },
    {
      "type": "error",
      "name": "Module__BondingCurveBase__InvalidFeePercentage",
      "inputs": []
    },
    {
      "type": "error",
      "name": "Module__BondingCurveBase__InvalidMinAmountOut",
      "inputs": []
    },
    {
      "type": "error",
      "name": "Module__BondingCurveBase__InvalidRecipient",
      "inputs": []
    },
    {
      "type": "error",
      "name": "Module__BondingCurveBase__InvalidWithdrawAmount",
      "inputs": []
    },
    {
      "type": "error",
      "name": "Module__BondingCurveBase__TradeAmountTooLow",
      "inputs": []
    },
    {
      "type": "error",
      "name": "Module__CallerNotAuthorized",
      "inputs": [
        {
          "name": "role",
          "type": "bytes32",
          "internalType": "bytes32"
        },
        {
          "name": "caller",
          "type": "address",
          "internalType": "address"
        }
      ]
    },
    {
      "type": "error",
      "name": "Module__FM_BC_Bancor_Redeeming_VirtualSupply__CurveInteractionsMustBeClosed",
      "inputs": []
    },
    {
      "type": "error",
      "name": "Module__FM_BC_Bancor_Redeeming_VirtualSupply__InvalidBancorFormula",
      "inputs": []
    },
    {
      "type": "error",
      "name": "Module__FM_BC_Bancor_Redeeming_VirtualSupply__InvalidOrchestratorTokenWithdrawAmount",
      "inputs": []
    },
    {
      "type": "error",
      "name": "Module__FM_BC_Bancor_Redeeming_VirtualSupply__InvalidReserveRatio",
      "inputs": []
    },
    {
      "type": "error",
      "name": "Module__FM_BC_Bancor_Redeeming_VirtualSupply__InvalidTokenDecimal",
      "inputs": []
    },
    {
      "type": "error",
      "name": "Module__InvalidAddress",
      "inputs": []
    },
    {
      "type": "error",
      "name": "Module__InvalidMetadata",
      "inputs": []
    },
    {
      "type": "error",
      "name": "Module__InvalidOrchestratorAddress",
      "inputs": []
    },
    {
      "type": "error",
      "name": "Module__OnlyCallableByOrchestrator",
      "inputs": []
    },
    {
      "type": "error",
      "name": "Module__OnlyCallableByPaymentClient",
      "inputs": []
    },
    {
      "type": "error",
      "name": "Module__RedeemingBondingCurveBase__InsufficientCollateralForRedemption",
      "inputs": []
    },
    {
      "type": "error",
      "name": "Module__RedeemingBondingCurveBase__SellingFunctionaltiesClosed",
      "inputs": []
    },
    {
      "type": "error",
      "name": "Module__VirtualCollateralSupplyBase__AddResultsInOverflow",
      "inputs": []
    },
    {
      "type": "error",
      "name": "Module__VirtualCollateralSupplyBase__SubtractResultsInUnderflow",
      "inputs": []
    },
    {
      "type": "error",
      "name": "Module__VirtualCollateralSupplyBase__VirtualSupplyCannotBeZero",
      "inputs": []
    },
    {
      "type": "error",
      "name": "Module__VirtualIssuanceSupplyBase__AddResultsInOverflow",
      "inputs": []
    },
    {
      "type": "error",
      "name": "Module__VirtualIssuanceSupplyBase__SubtractResultsInUnderflow",
      "inputs": []
    },
    {
      "type": "error",
      "name": "Module__VirtualIssuanceSupplyBase__VirtualSupplyCannotBeZero",
      "inputs": []
    },
    {
      "type": "error",
      "name": "NotInitializing",
      "inputs": []
    },
    {
      "type": "error",
      "name": "SafeERC20FailedOperation",
      "inputs": [
        {
          "name": "token",
          "type": "address",
          "internalType": "address"
        }
      ]
    }
  ],
  "bytecode": {
    "object": "0x60a06040523480156200001157600080fd5b5060006080526200002162000027565b620000db565b7ff0c57e16840df040f15088dc2f81fe391c3923bec73e23a9662efc9c229c6a00805468010000000000000000900460ff1615620000785760405163f92ee8a960e01b815260040160405180910390fd5b80546001600160401b0390811614620000d85780546001600160401b0319166001600160401b0390811782556040519081527fc7f505b2f371ae2175ee4913f4499e1f2633a7b5936321eed1cdaeb6115181d29060200160405180910390a15b50565b6080516143f7620000f4600039600050506143f76000f3fe608060405234801561001057600080fd5b506004361061020f5760003560e01c806301ffc9a7146102145780630cc835a31461023c5780631ca3bc4f1461025157806324e302701461026b578063272bbd441461027e5780632b14ca5614610291578063322d2100146102a857806347062402146102bb5780634a79d50c146102c45780634b75f54f146102d95780634f893bba146102ed57806351cac5de1461030057806354fd4d50146103135780635600f04f14610337578063572b6c051461033f5780636115db1c1461035257806369fcd4ac146103795780636c67e8071461038c5780636e4233791461039f578063759cc4b5146103b25780637998a1c4146103c55780637da0a877146103cd5780638ac631e6146103d55780638b4cee08146103e85780639093b01f146103fb578063935b7dbd14610408578063a8a539d91461041b578063b66a870c14610431578063b74795d914610444578063b88a2cf614610455578063ba83c97014610468578063bcb6192014610470578063bd09840414610483578063bf75292b1461048b578063c5b27dde14610493578063c6829ba2146104a6578063c6ab5cdc146104ba578063cbda8f82146104c2578063d1c6022f146104cb578063d4a67930146104d3578063d6febde8146104db578063d79875eb146104ee578063f1eae64a14610501578063fa03330c14610509578063fc0c546a14610511575b600080fd5b6102276102223660046138d8565b610519565b60405190151581526020015b60405180910390f35b61024f61024a366004613902565b61055f565b005b609e546001600160a01b03165b604051610233919061391b565b61024f61027936600461392f565b610648565b61024f61028c36600461392f565b6108d5565b61029a60d45481565b604051908152602001610233565b61029a6102b6366004613902565b610abb565b61029a609f5481565b6102cc610b4e565b60405161023391906139fd565b6101075461025e906001600160a01b031681565b61024f6102fb366004613a25565b610be3565b61024f61030e366004613902565b610d9f565b60675460685460695460408051938452602084019290925290820152606001610233565b6102cc610dfb565b61022761034d366004613a51565b610e0d565b61010754600160c01b900463ffffffff165b60405163ffffffff9091168152602001610233565b61029a610387366004613902565b610e7f565b61024f61039a366004613a6e565b610ef9565b61024f6103ad366004613902565b611115565b61024f6103c0366004613a25565b611171565b61029a61126e565b61025e6113cc565b61024f6103e3366004613ab0565b61143a565b61024f6103f6366004613902565b611496565b60d3546102279060ff1681565b61024f610416366004613acd565b6114ea565b61010754600160a01b900463ffffffff16610364565b61024f61043f366004613bef565b611531565b6066546001600160a01b031661025e565b61024f610463366004613ab0565b6118bc565b61024f611918565b61024f61047e366004613a6e565b611998565b61029a611b7c565b60335461029a565b61024f6104a1366004613acd565b611bf6565b609e5461022790600160a01b900460ff1681565b61024f611c36565b61029a60a05481565b60005461029a565b61024f611cb9565b61024f6104e9366004613cd4565b611d42565b61024f6104fc366004613cd4565b611d60565b61024f611d7a565b61029a611dfd565b61025e611e2f565b60006001600160e01b0319821663fbfcffd560e01b148061054a57506001600160e01b0319821663899090df60e01b145b80610559575061055982611e3f565b92915050565b6066546040805163d09edf3160e01b8152905161063c926001600160a01b03169163d09edf319160048083019260209291908290030181865afa1580156105aa573d6000803e3d6000fd5b505050506040513d601f19601f820116820180604052508101906105ce9190613cf6565b6001600160a01b031663b3ecf2366040518163ffffffff1660e01b8152600401602060405180830381865afa15801561060b573d6000803e3d6000fd5b505050506040513d601f19601f8201168201806040525081019061062f9190613d13565b610637611e64565b611eb6565b61064581611fc5565b50565b826000606660009054906101000a90046001600160a01b03166001600160a01b031663d09edf316040518163ffffffff1660e01b8152600401602060405180830381865afa15801561069e573d6000803e3d6000fd5b505050506040513d601f19601f820116820180604052508101906106c29190613cf6565b6001600160a01b031663fdd5205f30846040518363ffffffff1660e01b81526004016106ef929190613d2c565b602060405180830381865afa15801561070c573d6000803e3d6000fd5b505050506040513d601f19601f820116820180604052508101906107309190613d13565b90506107f6606660009054906101000a90046001600160a01b03166001600160a01b031663d09edf316040518163ffffffff1660e01b8152600401602060405180830381865afa158015610788573d6000803e3d6000fd5b505050506040513d601f19601f820116820180604052508101906107ac9190613cf6565b6001600160a01b031663248a9ca3836040518263ffffffff1660e01b81526004016107d991815260200190565b602060405180830381865afa15801561060b573d6000803e3d6000fd5b606660009054906101000a90046001600160a01b03166001600160a01b031663d09edf316040518163ffffffff1660e01b8152600401602060405180830381865afa158015610849573d6000803e3d6000fd5b505050506040513d601f19601f8201168201806040525081019061086d9190613cf6565b6001600160a01b0316637d540a648686866040518463ffffffff1660e01b815260040161089c93929190613d45565b600060405180830381600087803b1580156108b657600080fd5b505af11580156108ca573d6000803e3d6000fd5b505050505050505050565b826000606660009054906101000a90046001600160a01b03166001600160a01b031663d09edf316040518163ffffffff1660e01b8152600401602060405180830381865afa15801561092b573d6000803e3d6000fd5b505050506040513d601f19601f8201168201806040525081019061094f9190613cf6565b6001600160a01b031663fdd5205f30846040518363ffffffff1660e01b815260040161097c929190613d2c565b602060405180830381865afa158015610999573d6000803e3d6000fd5b505050506040513d601f19601f820116820180604052508101906109bd9190613d13565b9050610a15606660009054906101000a90046001600160a01b03166001600160a01b031663d09edf316040518163ffffffff1660e01b8152600401602060405180830381865afa158015610788573d6000803e3d6000fd5b606660009054906101000a90046001600160a01b03166001600160a01b031663d09edf316040518163ffffffff1660e01b8152600401602060405180830381865afa158015610a68573d6000803e3d6000fd5b505050506040513d601f19601f82011682018060405250810190610a8c9190613cf6565b6001600160a01b031663648154538686866040518463ffffffff1660e01b815260040161089c93929190613d45565b6000610ac882600161200e565b60408051808201909152601c81527b5f6275794f7264657228616464726573732c75696e742c75696e742960201b602090910152600080610b166000805160206143a2833981519152612050565b935093505050610b298483609f54612079565b50909450610b439050610b3b85612149565b826000612079565b509095945050505050565b606060676004018054610b6090613d9d565b80601f0160208091040260200160405190810160405280929190818152602001828054610b8c90613d9d565b8015610bd95780601f10610bae57610100808354040283529160200191610bd9565b820191906000526020600020905b815481529060010190602001808311610bbc57829003601f168201915b5050505050905090565b81610bed8161224d565b6066546040805163d09edf3160e01b81529051610c38926001600160a01b03169163d09edf319160048083019260209291908290030181865afa1580156105aa573d6000803e3d6000fd5b60a054821115610c5b576040516347d1bcf560e01b815260040160405180910390fd5b8160a06000828254610c6d9190613ded565b92505081905550610d618383606660009054906101000a90046001600160a01b03166001600160a01b03166304baed9e6040518163ffffffff1660e01b8152600401602060405180830381865afa158015610ccc573d6000803e3d6000fd5b505050506040513d601f19601f82011682018060405250810190610cf09190613cf6565b6001600160a01b031663fc0c546a6040518163ffffffff1660e01b8152600401602060405180830381865afa158015610d2d573d6000803e3d6000fd5b505050506040513d601f19601f82011682018060405250810190610d519190613cf6565b6001600160a01b03169190612289565b7f9e9a785b42ae3ce89ea11b526c656a7cacbd520b83908336dc8c9f4e9be9135f8383604051610d92929190613d2c565b60405180910390a1505050565b6066546040805163d09edf3160e01b81529051610dea926001600160a01b03169163d09edf319160048083019260209291908290030181865afa1580156105aa573d6000803e3d6000fd5b610df26122e6565b6106458161232a565b606060676003018054610b6090613d9d565b60665460405163572b6c0560e01b81526000916001600160a01b03169063572b6c0590610e3e90859060040161391b565b602060405180830381865afa158015610e5b573d6000803e3d6000fd5b505050506040513d601f19601f820116820180604052508101906105599190613e15565b6000610e8c82600161200e565b60408051808201909152601d8152600080516020614382833981519152602090910152600080610ec9600080516020614362833981519152612050565b935093505050610edb84826000612079565b50909450610eea905084612377565b9250610b43838360d454612079565b816000606660009054906101000a90046001600160a01b03166001600160a01b031663d09edf316040518163ffffffff1660e01b8152600401602060405180830381865afa158015610f4f573d6000803e3d6000fd5b505050506040513d601f19601f82011682018060405250810190610f739190613cf6565b6001600160a01b031663fdd5205f30846040518363ffffffff1660e01b8152600401610fa0929190613d2c565b602060405180830381865afa158015610fbd573d6000803e3d6000fd5b505050506040513d601f19601f82011682018060405250810190610fe19190613d13565b9050611039606660009054906101000a90046001600160a01b03166001600160a01b031663d09edf316040518163ffffffff1660e01b8152600401602060405180830381865afa158015610788573d6000803e3d6000fd5b606660009054906101000a90046001600160a01b03166001600160a01b031663d09edf316040518163ffffffff1660e01b8152600401602060405180830381865afa15801561108c573d6000803e3d6000fd5b505050506040513d601f19601f820116820180604052508101906110b09190613cf6565b6001600160a01b031663e178815485856040518363ffffffff1660e01b81526004016110dd929190613e30565b600060405180830381600087803b1580156110f757600080fd5b505af115801561110b573d6000803e3d6000fd5b5050505050505050565b6066546040805163d09edf3160e01b81529051611160926001600160a01b03169163d09edf319160048083019260209291908290030181865afa1580156105aa573d6000803e3d6000fd5b6111686122e6565b6106458161247a565b611179612483565b60a054611184611e2f565b6001600160a01b03166370a08231306040518263ffffffff1660e01b81526004016111af919061391b565b602060405180830381865afa1580156111cc573d6000803e3d6000fd5b505050506040513d601f19601f820116820180604052508101906111f09190613d13565b6111fa9190613ded565b81111561121a57604051633b27877360e11b815260040160405180910390fd5b6112278282610d51611e2f565b816001600160a01b03167fe88292c5f714100904272672c0420345093bd0e3c5555d31f3e4e2cf5f6ca8a18260405161126291815260200190565b60405180910390a25050565b60006113c760676040518060a00160405290816000820154815260200160018201548152602001600282015481526020016003820180546112ae90613d9d565b80601f01602080910402602001604051908101604052809291908181526020018280546112da90613d9d565b80156113275780601f106112fc57610100808354040283529160200191611327565b820191906000526020600020905b81548152906001019060200180831161130a57829003601f168201915b5050505050815260200160048201805461134090613d9d565b80601f016020809104026020016040519081016040528092919081815260200182805461136c90613d9d565b80156113b95780601f1061138e576101008083540402835291602001916113b9565b820191906000526020600020905b81548152906001019060200180831161139c57829003601f168201915b50505050508152505061259b565b905090565b60665460408051637da0a87760e01b815290516000926001600160a01b031691637da0a8779160048083019260209291908290030181865afa158015611416573d6000803e3d6000fd5b505050506040513d601f19601f820116820180604052508101906113c79190613cf6565b6066546040805163d09edf3160e01b81529051611485926001600160a01b03169163d09edf319160048083019260209291908290030181865afa1580156105aa573d6000803e3d6000fd5b61148d6122e6565b610645816125db565b6066546040805163d09edf3160e01b815290516114e1926001600160a01b03169163d09edf319160048083019260209291908290030181865afa1580156105aa573d6000803e3d6000fd5b61064581612655565b826114f48161224d565b6114fc61269e565b60008061150a8686866126c8565b915091506115178261292c565b6115296115248287613ded565b6129a0565b505050505050565b600061153b612a0a565b805490915060ff600160401b82041615906001600160401b03166000811580156115625750825b90506000826001600160401b0316600114801561157e5750303b155b90508115801561158c575080155b156115aa5760405163f92ee8a960e01b815260040160405180910390fd5b84546001600160401b031916600117855583156115d357845460ff60401b1916600160401b1785555b6115dd8888612a2e565b6040805161012081018252600080825260208201819052918101829052606081018290526080810182905260a0810182905260c0810182905260e08101829052610100810182905260008880602001905181019061163b9190613e5d565b61010880546001600160a01b0319166001600160a01b0383169081179091556040805163313ce56760e01b815290519497509295509093509163313ce567916004808201926020929091908290030181865afa15801561169f573d6000803e3d6000fd5b505050506040513d601f19601f820116820180604052508101906116c39190613f31565b61010860146101000a81548160ff021916908360ff1602179055506116e783612b1c565b81516040516301ffc9a760e01b81526001600160a01b03909116906301ffc9a79061171c9062aa06a760e31b90600401613f54565b602060405180830381865afa158015611739573d6000803e3d6000fd5b505050506040513d601f19601f8201168201806040525081019061175d9190613e15565b61177a5760405163a112ddf960e01b815260040160405180910390fd5b815161010780546001600160a01b0319166001600160a01b0390921691909117905560e08201516117aa9061232a565b6117b882610100015161247a565b6117c582602001516125db565b6117d28260400151612c2f565b6117df8260600151611fc5565b6117ec8260800151612655565b60a0820151609e805460ff60a01b1916600160a01b921515830217905560c083015160d3805460ff19169115159190911790556101085460405160ff929091049190911681526001600160a01b038216907fdec758d17e6001f7ae45d3316ad54ed6b6e932cef251881f0f51390b69e00d279060200160405180910390a2505050831561110b57845460ff60401b19168555604051600181527fc7f505b2f371ae2175ee4913f4499e1f2633a7b5936321eed1cdaeb6115181d29060200160405180910390a15050505050505050565b6066546040805163d09edf3160e01b81529051611907926001600160a01b03169163d09edf319160048083019260209291908290030181865afa1580156105aa573d6000803e3d6000fd5b61190f6122e6565b61064581612c2f565b6066546040805163d09edf3160e01b81529051611963926001600160a01b03169163d09edf319160048083019260209291908290030181865afa1580156105aa573d6000803e3d6000fd5b60d3805460ff191690556040517fc34ae80cb7f967a799992108cfbc90770413d60555d5b0587a4c2c3e69c79ca490600090a1565b816000606660009054906101000a90046001600160a01b03166001600160a01b031663d09edf316040518163ffffffff1660e01b8152600401602060405180830381865afa1580156119ee573d6000803e3d6000fd5b505050506040513d601f19601f82011682018060405250810190611a129190613cf6565b6001600160a01b031663fdd5205f30846040518363ffffffff1660e01b8152600401611a3f929190613d2c565b602060405180830381865afa158015611a5c573d6000803e3d6000fd5b505050506040513d601f19601f82011682018060405250810190611a809190613d13565b9050611ad8606660009054906101000a90046001600160a01b03166001600160a01b031663d09edf316040518163ffffffff1660e01b8152600401602060405180830381865afa158015610788573d6000803e3d6000fd5b606660009054906101000a90046001600160a01b03166001600160a01b031663d09edf316040518163ffffffff1660e01b8152600401602060405180830381865afa158015611b2b573d6000803e3d6000fd5b505050506040513d601f19601f82011682018060405250810190611b4f9190613cf6565b6001600160a01b031663ba66f9fc85856040518363ffffffff1660e01b81526004016110dd929190613e30565b6101075460008054610108549192600160c01b900463ffffffff1691611bae9190600160a81b900460ff166012612ca9565b611bb89190613f69565b60335461010854611bd59190600160a01b900460ff166012612ca9565b611be2620f424080613f69565b611bec9190613f69565b6113c79190613f80565b82611c008161224d565b611c08612d1b565b600080611c16868686612d3e565b9092509050611c2d611c288287613ded565b612fe8565b61152982613068565b6066546040805163d09edf3160e01b81529051611c81926001600160a01b03169163d09edf319160048083019260209291908290030181865afa1580156105aa573d6000803e3d6000fd5b609e805460ff60a01b191690556040517f44c1679cca34073ce70fed616f995237808d9599a35669fd39f3afd053e2b9b190600090a1565b6066546040805163d09edf3160e01b81529051611d04926001600160a01b03169163d09edf319160048083019260209291908290030181865afa1580156105aa573d6000803e3d6000fd5b609e805460ff60a01b1916600160a01b1790556040517fe404df37e2f7360b624914a082278de0f9e7da04a61eaab0a8d3d26b52bc0b1990600090a1565b611d4a61269e565b611d5c611d55611e64565b83836114ea565b5050565b611d68612d1b565b611d5c611d73611e64565b8383611bf6565b6066546040805163d09edf3160e01b81529051611dc5926001600160a01b03169163d09edf319160048083019260209291908290030181865afa1580156105aa573d6000803e3d6000fd5b60d3805460ff191660011790556040517f9d47627df4f01d3bff516199297ca647fe2ea0448c4f2925ef8c16d614a51a7c90600090a1565b6101075460008054610108549192600160a01b900463ffffffff1691611bae9190600160a81b900460ff166012612ca9565b610108546001600160a01b031690565b60006001600160e01b031982166306fa99af60e01b14806105595750610559826130e9565b6000366014611e7233610e0d565b8015611e7e5750808210155b15611eae57600036611e908385613ded565b611e9b928290613fa2565b611ea491613fcc565b60601c9250505090565b339250505090565b606660009054906101000a90046001600160a01b03166001600160a01b031663d09edf316040518163ffffffff1660e01b8152600401602060405180830381865afa158015611f09573d6000803e3d6000fd5b505050506040513d601f19601f82011682018060405250810190611f2d9190613cf6565b6001600160a01b031663a883867d83836040518363ffffffff1660e01b8152600401611f5a929190613e30565b602060405180830381865afa158015611f77573d6000803e3d6000fd5b505050506040513d601f19601f82011682018060405250810190611f9b9190613e15565b611d5c5781816040516342abbb7760e01b8152600401611fbc929190613e30565b60405180910390fd5b611fce8161310e565b7f28e297c7c282931a994191b735b01eaf17558295f761512a7047f4e1b8dc3b0b81609f54604051612001929190613ffc565b60405180910390a1609f55565b8160000361202f57604051631d67ff5760e11b815260040160405180910390fd5b80600003611d5c5760405163d8674d0d60e01b815260040160405180910390fd5b60008060008061205f85613131565b9450915061206c8561328a565b9496949550919391925050565b6000808061271061208a858761400a565b11156120a9576040516304e0874960e11b815260040160405180910390fd5b84156120e9576127106120bc8688613f69565b6120c69190613f80565b9150816000036120e957604051639c43a82560e01b815260040160405180910390fd5b8315612129576127106120fc8588613f69565b6121069190613f80565b90508060000361212957604051639c43a82560e01b815260040160405180910390fd5b806121348388613ded565b61213e9190613ded565b925093509350939050565b610107546000805461010854919283926001600160a01b03909116916329a00e7c916121819190600160a81b900460ff166012612ca9565b6033546101085461219e9190600160a01b900460ff166012612ca9565b610107546101085463ffffffff600160a01b9283900416916121c8918a9160ff9104166012612ca9565b6040518563ffffffff1660e01b81526004016121e7949392919061401d565b602060405180830381865afa158015612204573d6000803e3d6000fd5b505050506040513d601f19601f820116820180604052508101906122289190613d13565b905061224681601261010860159054906101000a900460ff16612ca9565b9392505050565b6001600160a01b038116158061226b57506001600160a01b03811630145b156106455760405163364f556160e11b815260040160405180910390fd5b6122e183846001600160a01b031663a9059cbb85856040516024016122af929190613d2c565b604051602081830303815290604052915060e01b6020820180516001600160e01b03838183161783525050505061339a565b505050565b609e54600160a01b900460ff1615156001148061230a575060d35460ff1615156001145b1561232857604051631a8e579560e21b815260040160405180910390fd5b565b6101085461234490601290600160a81b900460ff1661403e565b61234f90600a61413b565b81101561236e5760405162ece6a560e71b815260040160405180910390fd5b610645816133f4565b610107546000805461010854919283926001600160a01b03909116916349f9b0f7916123af9190600160a81b900460ff166012612ca9565b603354610108546123cc9190600160a01b900460ff166012612ca9565b61010760189054906101000a900463ffffffff166123fc8861010860159054906101000a900460ff166012612ca9565b6040518563ffffffff1660e01b815260040161241b949392919061401d565b602060405180830381865afa158015612438573d6000803e3d6000fd5b505050506040513d601f19601f8201168201806040525081019061245c9190613d13565b905061224681601261010860149054906101000a900460ff16612ca9565b61064581613454565b6066546001600160a01b03166342f6e38961249c611e64565b6040518263ffffffff1660e01b81526004016124b8919061391b565b602060405180830381865afa1580156124d5573d6000803e3d6000fd5b505050506040513d601f19601f820116820180604052508101906124f99190613e15565b158061257d5750612508611e64565b6001600160a01b03166301ffc9a763286309c760e01b6040518263ffffffff1660e01b815260040161253a9190613f54565b602060405180830381865afa158015612557573d6000803e3d6000fd5b505050506040513d601f19601f8201168201806040525081019061257b9190613e15565b155b1561232857604051631b793e7f60e21b815260040160405180910390fd5b60008160000151826060015183608001516040516020016125be9392919061414a565b604051602081830303815290604052805190602001209050919050565b6125e4816134b5565b610107546040517f27c191dfc402c5c90b6333b6adc108fe15c0c368ccd3a50ec1d702f9288b864891612626918491600160a01b900463ffffffff1690614175565b60405180910390a1610107805463ffffffff909216600160a01b0263ffffffff60a01b19909216919091179055565b61265e8161310e565b7f5bafec153d96f8ef37761b64348732b41a6b477401d244a5070f9f82d689adce8160d454604051612691929190613ffc565b60405180910390a160d455565b609e54600160a01b900460ff1661232857604051630afe354360e11b815260040160405180910390fd5b6000806126d5848461200e565b6066546040805163025d76cf60e11b815290516000926001600160a01b0316916304baed9e9160048083019260209291908290030181865afa15801561271f573d6000803e3d6000fd5b505050506040513d601f19601f820116820180604052508101906127439190613cf6565b6001600160a01b031663fc0c546a6040518163ffffffff1660e01b8152600401602060405180830381865afa158015612780573d6000803e3d6000fd5b505050506040513d601f19601f820116820180604052508101906127a49190613cf6565b90506127c36127b1611e64565b6001600160a01b0383169030886134ee565b60408051808201909152601c81527b5f6275794f7264657228616464726573732c75696e742c75696e742960201b60209091015260008080806128136000805160206143a2833981519152612050565b9350935093509350600080600061282d8c86609f54612079565b9194509250905061283e818361400a565b985061284b87898461352d565b8015612869578060a06000828254612863919061400a565b90915550505b600061287484612149565b9050809a5061288581866000612079565b509350905061289487846135a2565b8b8110156128b557604051637ac6ada560e01b815260040160405180910390fd5b6128bf8e826135ff565b8d6001600160a01b03167fd150a324c4fc8346977d1499aa36cac8c85e6af24bf1486022fad77d05f8b19f8e836128f4611e64565b6040805193845260208401929092526001600160a01b03169082015260600160405180910390a2505050505050505050935093915050565b60005461293b90600019613ded565b81111561295a57604051624bb81760e31b815260040160405180910390fd5b600080548201908190556040517f7aad1769c7491080279b2d6b032b0e75289a3b12c716abe0333e7be0f70fe12f9161299591849190613ffc565b60405180910390a150565b6033546129af90600019613ded565b8111156129cf57604051632b8d3fb960e21b815260040160405180910390fd5b603380548201908190556040517fb79781f468e2af557e9be98c94e82258c72deac9797eed9d1eb079aba4b0b3ba9161299591849190613ffc565b7ff0c57e16840df040f15088dc2f81fe391c3923bec73e23a9662efc9c229c6a0090565b612a3661365f565b6001600160a01b038216612a5d57604051637280679360e01b815260040160405180910390fd5b606680546001600160a01b0319166001600160a01b038416179055612a8181613684565b612a9e57604051637511254160e01b815260040160405180910390fd5b80516067908155602082015160685560408201516069556060820151829190606a90612aca90826141d4565b5060808201516004820190612adf90826141d4565b50905050816001600160a01b03167fd5f3f84c2e1816ce290af84d002663800b02f2985d770cdd335de76fd723b730826040516112629190614293565b6000816001600160a01b031663313ce5676040518163ffffffff1660e01b8152600401602060405180830381865afa158015612b5c573d6000803e3d6000fd5b505050506040513d601f19601f82011682018060405250810190612b809190613f31565b905060078160ff161080612ba457506101085460ff600160a01b9091048116908216105b15612bc257604051638feffdc960e01b815260040160405180910390fd5b609e80546001600160a01b0319166001600160a01b038416908117909155610108805460ff60a81b1916600160a81b60ff8516908102919091179091556040519081527f4e547b7c6b59d324fecdb926aa12300420faf3a7e12a412eb7e0da193bb0d93e90602001611262565b612c38816134b5565b610107546040517fd60e348cd25e6e7624733f552b6499f3d296a6c2d464fa0ca109b41d7453b3ca91612c7a918491600160c01b900463ffffffff1690614175565b60405180910390a1610107805463ffffffff909216600160c01b0263ffffffff60c01b19909216919091179055565b60008160ff168360ff1603612cbf575082612246565b8160ff168360ff161115612cf8576000612cd9838561403e565b612ce490600a61413b565b9050612cf08186613f80565b915050612246565b6000612d04848461403e565b612d0f90600a61413b565b9050612cf08186613f69565b60d35460ff16612328576040516374d0357560e11b815260040160405180910390fd5b600080612d4b848461200e565b60408051808201909152601d81526000805160206143828339815191526020909101526000808080612d8a600080516020614362833981519152612050565b93509350935093506000806000612da38b856000612079565b50985088935090506000612db682612377565b9050809950612dcc612dc6611e64565b8d6136e4565b612dd687856135a2565b6066546040805163025d76cf60e11b815290516000926001600160a01b0316916304baed9e9160048083019260209291908290030181865afa158015612e20573d6000803e3d6000fd5b505050506040513d601f19601f82011682018060405250810190612e449190613cf6565b6001600160a01b031663fc0c546a6040518163ffffffff1660e01b8152600401602060405180830381865afa158015612e81573d6000803e3d6000fd5b505050506040513d601f19601f82011682018060405250810190612ea59190613cf6565b6040516370a0823160e01b81529091506001600160a01b038216906370a0823190612ed490309060040161391b565b602060405180830381865afa158015612ef1573d6000803e3d6000fd5b505050506040513d601f19601f82011682018060405250810190612f159190613d13565b60a054612f22908461400a565b1115612f41576040516332dcd2bb60e11b815260040160405180910390fd5b612f4e828860d454612079565b90965094509150612f6089828761352d565b8315612f7e578360a06000828254612f78919061400a565b90915550505b8b821015612f9f57604051637ac6ada560e01b815260040160405180910390fd5b612fb36001600160a01b0382168f84612289565b8d6001600160a01b03167f7debc712939ce2028bbca7ca90cc85e8fb59a7772e041423d3ec1588af4730ed8e846128f4611e64565b60005481111561300b576040516309f5d4ab60e21b815260040160405180910390fd5b600054810361302c5760405162ece6a560e71b815260040160405180910390fd5b60008054829003908190556040517ffb531aedaaeb99214c8335d339abd3ff055ecd418763e51672f7d7a6eb91ce5d9161299591849190613ffc565b60335481111561308b57604051635d3da26b60e11b815260040160405180910390fd5b60335481036130ad57604051635f60529f60e01b815260040160405180910390fd5b60338054829003908190556040517ff90da9caba169a00f9544c3f2cf6e2b5c632fae79eb6116e76ff1f3c1f21472c9161299591849190613ffc565b60006001600160e01b03198216630b8ebb1760e11b1480610559575061055982613716565b61271081111561064557604051633ef38b5b60e11b815260040160405180910390fd5b600080606660009054906101000a90046001600160a01b03166001600160a01b0316630c340a246040518163ffffffff1660e01b8152600401602060405180830381865afa158015613187573d6000803e3d6000fd5b505050506040513d601f19601f820116820180604052508101906131ab9190613cf6565b6001600160a01b031663f2d638266040518163ffffffff1660e01b8152600401602060405180830381865afa1580156131e8573d6000803e3d6000fd5b505050506040513d601f19601f8201168201806040525081019061320c9190613cf6565b606654604051634d970f5560e11b81526001600160a01b0392831692639b2e1eaa9261324192911690309088906004016142f3565b6040805180830381865afa15801561325d573d6000803e3d6000fd5b505050506040513d601f19601f820116820180604052508101906132819190614320565b91509150915091565b600080606660009054906101000a90046001600160a01b03166001600160a01b0316630c340a246040518163ffffffff1660e01b8152600401602060405180830381865afa1580156132e0573d6000803e3d6000fd5b505050506040513d601f19601f820116820180604052508101906133049190613cf6565b6001600160a01b031663f2d638266040518163ffffffff1660e01b8152600401602060405180830381865afa158015613341573d6000803e3d6000fd5b505050506040513d601f19601f820116820180604052508101906133659190613cf6565b6066546040516304e53bb360e01b81526001600160a01b03928316926304e53bb39261324192911690309088906004016142f3565b60006133af6001600160a01b0384168361373b565b905080516000141580156133d45750808060200190518101906133d29190613e15565b155b156122e15782604051635274afe760e01b8152600401611fbc919061391b565b806000036134145760405162ece6a560e71b815260040160405180910390fd5b7fc60744c6ab5be4d0d7daa24905289cce0ac3a7c5ca60742bb43e367f5426754281600054604051613447929190613ffc565b60405180910390a1600055565b8060000361347557604051635f60529f60e01b815260040160405180910390fd5b7f09a070adb6f2c823cf65438ad36e4d03c24d94dd2ad6ebb19dd02d09ca1fa03f816033546040516134a8929190613ffc565b60405180910390a1603355565b63ffffffff811615806134d05750620f424063ffffffff8216115b156106455760405163623115ff60e01b815260040160405180910390fd5b6040516001600160a01b0384811660248301528381166044830152606482018390526135279186918216906323b872dd906084016122af565b50505050565b80156122e15761353c8361224d565b6135506001600160a01b0383168483612289565b826001600160a01b0316826001600160a01b03167f81535d361819544361f80ddbe5071aef378a8ecba1c52f2c45fe3335234c43318360405161359591815260200190565b60405180910390a3505050565b8015611d5c576135b18261224d565b6135bb82826135ff565b6040518181526001600160a01b0383169030907f11a26a26a718a46d85815d79165470744429ab0f3093113929c59c097bbebb9a9060200160405180910390a35050565b609e546040516340c10f1960e01b81526001600160a01b03909116906340c10f19906136319085908590600401613d2c565b600060405180830381600087803b15801561364b57600080fd5b505af1158015611529573d6000803e3d6000fd5b613667613749565b61232857604051631afcd79f60e31b815260040160405180910390fd5b600081606001515160000361369b57506000919050565b8160800151516000036136b057506000919050565b81511580156136c157506020820151155b80156136cf57506040820151155b156136dc57506000919050565b506001919050565b609e54604051632770a7eb60e21b81526001600160a01b0390911690639dc29fac906136319085908590600401613d2c565b60006001600160e01b0319821663e328951160e01b1480610559575061055982613763565b606061224683836000613789565b6000613753612a0a565b54600160401b900460ff16919050565b600063689b8d2960e11b6001600160e01b03198316811480612246575061224683613826565b6060814710156137ae573060405163cd78605960e01b8152600401611fbc919061391b565b600080856001600160a01b031684866040516137ca9190614345565b60006040518083038185875af1925050503d8060008114613807576040519150601f19603f3d011682016040523d82523d6000602084013e61380c565b606091505b509150915061381c86838361385c565b9695505050505050565b600063800cc7f160e01b6001600160e01b0319831681148061224657506301ffc9a760e01b6001600160e01b0319841614612246565b6060826138715761386c826138af565b612246565b815115801561388857506001600160a01b0384163b155b156138a85783604051639996b31560e01b8152600401611fbc919061391b565b5080612246565b8051156138bf5780518082602001fd5b604051630a12f52160e11b815260040160405180910390fd5b6000602082840312156138ea57600080fd5b81356001600160e01b03198116811461224657600080fd5b60006020828403121561391457600080fd5b5035919050565b6001600160a01b0391909116815260200190565b60008060006040848603121561394457600080fd5b8335925060208401356001600160401b038082111561396257600080fd5b818601915086601f83011261397657600080fd5b81358181111561398557600080fd5b8760208260051b850101111561399a57600080fd5b6020830194508093505050509250925092565b60005b838110156139c85781810151838201526020016139b0565b50506000910152565b600081518084526139e98160208601602086016139ad565b601f01601f19169290920160200192915050565b60208152600061224660208301846139d1565b6001600160a01b038116811461064557600080fd5b60008060408385031215613a3857600080fd5b8235613a4381613a10565b946020939093013593505050565b600060208284031215613a6357600080fd5b813561224681613a10565b60008060408385031215613a8157600080fd5b823591506020830135613a9381613a10565b809150509250929050565b63ffffffff8116811461064557600080fd5b600060208284031215613ac257600080fd5b813561224681613a9e565b600080600060608486031215613ae257600080fd5b8335613aed81613a10565b95602085013595506040909401359392505050565b634e487b7160e01b600052604160045260246000fd5b60405160a081016001600160401b0381118282101715613b3a57613b3a613b02565b60405290565b60405161012081016001600160401b0381118282101715613b3a57613b3a613b02565b600082601f830112613b7457600080fd5b81356001600160401b0380821115613b8e57613b8e613b02565b604051601f8301601f19908116603f01168101908282118183101715613bb657613bb6613b02565b81604052838152866020858801011115613bcf57600080fd5b836020870160208301376000602085830101528094505050505092915050565b600080600060608486031215613c0457600080fd5b8335613c0f81613a10565b925060208401356001600160401b0380821115613c2b57600080fd5b9085019060a08288031215613c3f57600080fd5b613c47613b18565b823581526020830135602082015260408301356040820152606083013582811115613c7157600080fd5b613c7d89828601613b63565b606083015250608083013582811115613c9557600080fd5b613ca189828601613b63565b60808301525093506040860135915080821115613cbd57600080fd5b50613cca86828701613b63565b9150509250925092565b60008060408385031215613ce757600080fd5b50508035926020909101359150565b600060208284031215613d0857600080fd5b815161224681613a10565b600060208284031215613d2557600080fd5b5051919050565b6001600160a01b03929092168252602082015260400190565b83815260406020808301829052908201839052600090849060608401835b86811015613d91578335613d7681613a10565b6001600160a01b031682529282019290820190600101613d63565b50979650505050505050565b600181811c90821680613db157607f821691505b602082108103613dd157634e487b7160e01b600052602260045260246000fd5b50919050565b634e487b7160e01b600052601160045260246000fd5b8181038181111561055957610559613dd7565b80518015158114613e1057600080fd5b919050565b600060208284031215613e2757600080fd5b61224682613e00565b9182526001600160a01b0316602082015260400190565b8051613e1081613a10565b8051613e1081613a9e565b6000806000838503610160811215613e7457600080fd5b8451613e7f81613a10565b9350610120601f198201811315613e9557600080fd5b613e9d613b40565b9150613eab60208701613e47565b8252613eb960408701613e52565b6020830152613eca60608701613e52565b60408301526080860151606083015260a08601516080830152613eef60c08701613e00565b60a0830152613f0060e08701613e00565b60c08301526101008681015160e084015290860151908201529150613f286101408501613e47565b90509250925092565b600060208284031215613f4357600080fd5b815160ff8116811461224657600080fd5b6001600160e01b031991909116815260200190565b808202811582820484141761055957610559613dd7565b600082613f9d57634e487b7160e01b600052601260045260246000fd5b500490565b60008085851115613fb257600080fd5b83861115613fbf57600080fd5b5050820193919092039150565b6001600160601b03198135818116916014851015613ff45780818660140360031b1b83161692505b505092915050565b918252602082015260400190565b8082018082111561055957610559613dd7565b938452602084019290925263ffffffff166040830152606082015260800190565b60ff828116828216039081111561055957610559613dd7565b600181815b8085111561409257816000190482111561407857614078613dd7565b8085161561408557918102915b93841c939080029061405c565b509250929050565b6000826140a957506001610559565b816140b657506000610559565b81600181146140cc57600281146140d6576140f2565b6001915050610559565b60ff8411156140e7576140e7613dd7565b50506001821b610559565b5060208310610133831016604e8410600b8410161715614115575081810a610559565b61411f8383614057565b806000190482111561413357614133613dd7565b029392505050565b600061224660ff84168361409a565b83815260606020820152600061416360608301856139d1565b828103604084015261381c81856139d1565b63ffffffff92831681529116602082015260400190565b601f8211156122e1576000816000526020600020601f850160051c810160208610156141b55750805b601f850160051c820191505b81811015611529578281556001016141c1565b81516001600160401b038111156141ed576141ed613b02565b614201816141fb8454613d9d565b8461418c565b602080601f831160018114614236576000841561421e5750858301515b600019600386901b1c1916600185901b178555611529565b600085815260208120601f198616915b8281101561426557888601518255948401946001909101908401614246565b50858210156142835787850151600019600388901b60f8161c191681555b5050505050600190811b01905550565b602081528151602082015260208201516040820152604082015160608201526000606083015160a060808401526142cd60c08401826139d1565b90506080840151601f198483030160a08501526142ea82826139d1565b95945050505050565b6001600160a01b0393841681529190921660208201526001600160e01b0319909116604082015260600190565b6000806040838503121561433357600080fd5b825191506020830151613a9381613a10565b600082516143578184602087016139ad565b919091019291505056fe3299ac1e4997da1dd638584692e27ee6e952ca63f8284764a73c592284e1d9e85f73656c6c4f7264657228616464726573732c75696e742c75696e7429000000db2c93faffa8f98d8bcd55cf740e8ead65ac1699aaf6ee8a00820485fc802af6a26469706673582212209c1c7af4983628e0d2e9de42e835cf033e29612713d635870ec5b82d7d2de8ba64736f6c63430008170033",
    "linkReferences": {}
  },
  "methodIdentifiers": {
    "buy(uint256,uint256)": "d6febde8",
    "buyFee()": "47062402",
    "buyFor(address,uint256,uint256)": "935b7dbd",
    "buyIsOpen()": "c6829ba2",
    "calculatePurchaseReturn(uint256)": "322d2100",
    "calculateSaleReturn(uint256)": "69fcd4ac",
    "closeBuy()": "c6ab5cdc",
    "closeSell()": "ba83c970",
    "formula()": "4b75f54f",
    "getIssuanceToken()": "1ca3bc4f",
    "getReserveRatioForBuying()": "a8a539d9",
    "getReserveRatioForSelling()": "6115db1c",
    "getStaticPriceForBuying()": "fa03330c",
    "getStaticPriceForSelling()": "bd098404",
    "getVirtualCollateralSupply()": "bf75292b",
    "getVirtualIssuanceSupply()": "d1c6022f",
    "grantModuleRole(bytes32,address)": "6c67e807",
    "grantModuleRoleBatched(bytes32,address[])": "272bbd44",
    "identifier()": "7998a1c4",
    "init(address,(uint256,uint256,uint256,string,string),bytes)": "b66a870c",
    "isTrustedForwarder(address)": "572b6c05",
    "openBuy()": "d4a67930",
    "openSell()": "f1eae64a",
    "orchestrator()": "b74795d9",
    "projectCollateralFeeCollected()": "cbda8f82",
    "revokeModuleRole(bytes32,address)": "bcb61920",
    "revokeModuleRoleBatched(bytes32,address[])": "24e30270",
    "sell(uint256,uint256)": "d79875eb",
    "sellFee()": "2b14ca56",
    "sellIsOpen()": "9093b01f",
    "sellTo(address,uint256,uint256)": "c5b27dde",
    "setBuyFee(uint256)": "0cc835a3",
    "setReserveRatioForBuying(uint32)": "8ac631e6",
    "setReserveRatioForSelling(uint32)": "b88a2cf6",
    "setSellFee(uint256)": "8b4cee08",
    "setVirtualCollateralSupply(uint256)": "6e423379",
    "setVirtualIssuanceSupply(uint256)": "51cac5de",
    "supportsInterface(bytes4)": "01ffc9a7",
    "title()": "4a79d50c",
    "token()": "fc0c546a",
    "transferOrchestratorToken(address,uint256)": "759cc4b5",
    "trustedForwarder()": "7da0a877",
    "url()": "5600f04f",
    "version()": "54fd4d50",
    "withdrawProjectCollateralFee(address,uint256)": "4f893bba"
  },
  "id": 89
}