{
  "abi": [
    {
      "type": "function",
      "name": "CURVE_INTERACTION_ROLE",
      "inputs": [],
      "outputs": [
        {
          "name": "",
          "type": "bytes32",
          "internalType": "bytes32"
        }
      ],
      "stateMutability": "view"
    },
    {
      "type": "function",
      "name": "buy",
      "inputs": [
        {
          "name": "_depositAmount",
          "type": "uint256",
          "internalType": "uint256"
        },
        {
          "name": "_minAmountOut",
          "type": "uint256",
          "internalType": "uint256"
        }
      ],
      "outputs": [],
      "stateMutability": "nonpayable"
    },
    {
      "type": "function",
      "name": "buyFee",
      "inputs": [],
      "outputs": [
        {
          "name": "",
          "type": "uint256",
          "internalType": "uint256"
        }
      ],
      "stateMutability": "view"
    },
    {
      "type": "function",
      "name": "buyFor",
      "inputs": [
        {
          "name": "_receiver",
          "type": "address",
          "internalType": "address"
        },
        {
          "name": "_depositAmount",
          "type": "uint256",
          "internalType": "uint256"
        },
        {
          "name": "_minAmountOut",
          "type": "uint256",
          "internalType": "uint256"
        }
      ],
      "outputs": [],
      "stateMutability": "nonpayable"
    },
    {
      "type": "function",
      "name": "buyIsOpen",
      "inputs": [],
      "outputs": [
        {
          "name": "",
          "type": "bool",
          "internalType": "bool"
        }
      ],
      "stateMutability": "view"
    },
    {
      "type": "function",
      "name": "calculatePurchaseReturn",
      "inputs": [
        {
          "name": "_depositAmount",
          "type": "uint256",
          "internalType": "uint256"
        }
      ],
      "outputs": [
        {
          "name": "mintAmount",
          "type": "uint256",
          "internalType": "uint256"
        }
      ],
      "stateMutability": "view"
    },
    {
      "type": "function",
      "name": "calculateSaleReturn",
      "inputs": [
        {
          "name": "_depositAmount",
          "type": "uint256",
          "internalType": "uint256"
        }
      ],
      "outputs": [
        {
          "name": "redeemAmount",
          "type": "uint256",
          "internalType": "uint256"
        }
      ],
      "stateMutability": "view"
    },
    {
      "type": "function",
      "name": "closeBuy",
      "inputs": [],
      "outputs": [],
      "stateMutability": "nonpayable"
    },
    {
      "type": "function",
      "name": "closeSell",
      "inputs": [],
      "outputs": [],
      "stateMutability": "nonpayable"
    },
    {
      "type": "function",
      "name": "formula",
      "inputs": [],
      "outputs": [
        {
          "name": "",
          "type": "address",
          "internalType": "contract IBancorFormula"
        }
      ],
      "stateMutability": "view"
    },
    {
      "type": "function",
      "name": "getIssuanceToken",
      "inputs": [],
      "outputs": [
        {
          "name": "",
          "type": "address",
          "internalType": "address"
        }
      ],
      "stateMutability": "view"
    },
    {
      "type": "function",
      "name": "getReserveRatioForBuying",
      "inputs": [],
      "outputs": [
        {
          "name": "",
          "type": "uint32",
          "internalType": "uint32"
        }
      ],
      "stateMutability": "view"
    },
    {
      "type": "function",
      "name": "getReserveRatioForSelling",
      "inputs": [],
      "outputs": [
        {
          "name": "",
          "type": "uint32",
          "internalType": "uint32"
        }
      ],
      "stateMutability": "view"
    },
    {
      "type": "function",
      "name": "getStaticPriceForBuying",
      "inputs": [],
      "outputs": [
        {
          "name": "",
          "type": "uint256",
          "internalType": "uint256"
        }
      ],
      "stateMutability": "view"
    },
    {
      "type": "function",
      "name": "getStaticPriceForSelling",
      "inputs": [],
      "outputs": [
        {
          "name": "",
          "type": "uint256",
          "internalType": "uint256"
        }
      ],
      "stateMutability": "view"
    },
    {
      "type": "function",
      "name": "getVirtualCollateralSupply",
      "inputs": [],
      "outputs": [
        {
          "name": "",
          "type": "uint256",
          "internalType": "uint256"
        }
      ],
      "stateMutability": "view"
    },
    {
      "type": "function",
      "name": "getVirtualIssuanceSupply",
      "inputs": [],
      "outputs": [
        {
          "name": "",
          "type": "uint256",
          "internalType": "uint256"
        }
      ],
      "stateMutability": "view"
    },
    {
      "type": "function",
      "name": "grantModuleRole",
      "inputs": [
        {
          "name": "role",
          "type": "bytes32",
          "internalType": "bytes32"
        },
        {
          "name": "target",
          "type": "address",
          "internalType": "address"
        }
      ],
      "outputs": [],
      "stateMutability": "nonpayable"
    },
    {
      "type": "function",
      "name": "grantModuleRoleBatched",
      "inputs": [
        {
          "name": "role",
          "type": "bytes32",
          "internalType": "bytes32"
        },
        {
          "name": "targets",
          "type": "address[]",
          "internalType": "address[]"
        }
      ],
      "outputs": [],
      "stateMutability": "nonpayable"
    },
    {
      "type": "function",
      "name": "identifier",
      "inputs": [],
      "outputs": [
        {
          "name": "",
          "type": "bytes32",
          "internalType": "bytes32"
        }
      ],
      "stateMutability": "view"
    },
    {
      "type": "function",
      "name": "init",
      "inputs": [
        {
          "name": "orchestrator_",
          "type": "address",
          "internalType": "contract IOrchestrator_v1"
        },
        {
          "name": "metadata",
          "type": "tuple",
          "internalType": "struct IModule_v1.Metadata",
          "components": [
            {
              "name": "majorVersion",
              "type": "uint256",
              "internalType": "uint256"
            },
            {
              "name": "minorVersion",
              "type": "uint256",
              "internalType": "uint256"
            },
            {
              "name": "url",
              "type": "string",
              "internalType": "string"
            },
            {
              "name": "title",
              "type": "string",
              "internalType": "string"
            }
          ]
        },
        {
          "name": "configData",
          "type": "bytes",
          "internalType": "bytes"
        }
      ],
      "outputs": [],
      "stateMutability": "nonpayable"
    },
    {
      "type": "function",
      "name": "isTrustedForwarder",
      "inputs": [
        {
          "name": "forwarder",
          "type": "address",
          "internalType": "address"
        }
      ],
      "outputs": [
        {
          "name": "",
          "type": "bool",
          "internalType": "bool"
        }
      ],
      "stateMutability": "view"
    },
    {
      "type": "function",
      "name": "mintIssuanceTokenTo",
      "inputs": [
        {
          "name": "",
          "type": "address",
          "internalType": "address"
        },
        {
          "name": "",
          "type": "uint256",
          "internalType": "uint256"
        }
      ],
      "outputs": [],
      "stateMutability": "view"
    },
    {
      "type": "function",
      "name": "openBuy",
      "inputs": [],
      "outputs": [],
      "stateMutability": "nonpayable"
    },
    {
      "type": "function",
      "name": "openSell",
      "inputs": [],
      "outputs": [],
      "stateMutability": "nonpayable"
    },
    {
      "type": "function",
      "name": "orchestrator",
      "inputs": [],
      "outputs": [
        {
          "name": "",
          "type": "address",
          "internalType": "contract IOrchestrator_v1"
        }
      ],
      "stateMutability": "view"
    },
    {
      "type": "function",
      "name": "projectCollateralFeeCollected",
      "inputs": [],
      "outputs": [
        {
          "name": "",
          "type": "uint256",
          "internalType": "uint256"
        }
      ],
      "stateMutability": "view"
    },
    {
      "type": "function",
      "name": "revokeModuleRole",
      "inputs": [
        {
          "name": "role",
          "type": "bytes32",
          "internalType": "bytes32"
        },
        {
          "name": "target",
          "type": "address",
          "internalType": "address"
        }
      ],
      "outputs": [],
      "stateMutability": "nonpayable"
    },
    {
      "type": "function",
      "name": "revokeModuleRoleBatched",
      "inputs": [
        {
          "name": "role",
          "type": "bytes32",
          "internalType": "bytes32"
        },
        {
          "name": "targets",
          "type": "address[]",
          "internalType": "address[]"
        }
      ],
      "outputs": [],
      "stateMutability": "nonpayable"
    },
    {
      "type": "function",
      "name": "sell",
      "inputs": [
        {
          "name": "_depositAmount",
          "type": "uint256",
          "internalType": "uint256"
        },
        {
          "name": "_minAmountOut",
          "type": "uint256",
          "internalType": "uint256"
        }
      ],
      "outputs": [],
      "stateMutability": "nonpayable"
    },
    {
      "type": "function",
      "name": "sellFee",
      "inputs": [],
      "outputs": [
        {
          "name": "",
          "type": "uint256",
          "internalType": "uint256"
        }
      ],
      "stateMutability": "view"
    },
    {
      "type": "function",
      "name": "sellFor",
      "inputs": [
        {
          "name": "_receiver",
          "type": "address",
          "internalType": "address"
        },
        {
          "name": "_depositAmount",
          "type": "uint256",
          "internalType": "uint256"
        },
        {
          "name": "_minAmountOut",
          "type": "uint256",
          "internalType": "uint256"
        }
      ],
      "outputs": [],
      "stateMutability": "nonpayable"
    },
    {
      "type": "function",
      "name": "sellIsOpen",
      "inputs": [],
      "outputs": [
        {
          "name": "",
          "type": "bool",
          "internalType": "bool"
        }
      ],
      "stateMutability": "view"
    },
    {
      "type": "function",
      "name": "setBuyFee",
      "inputs": [
        {
          "name": "_fee",
          "type": "uint256",
          "internalType": "uint256"
        }
      ],
      "outputs": [],
      "stateMutability": "nonpayable"
    },
    {
      "type": "function",
      "name": "setReserveRatioForBuying",
      "inputs": [
        {
          "name": "_reserveRatio",
          "type": "uint32",
          "internalType": "uint32"
        }
      ],
      "outputs": [],
      "stateMutability": "nonpayable"
    },
    {
      "type": "function",
      "name": "setReserveRatioForSelling",
      "inputs": [
        {
          "name": "_reserveRatio",
          "type": "uint32",
          "internalType": "uint32"
        }
      ],
      "outputs": [],
      "stateMutability": "nonpayable"
    },
    {
      "type": "function",
      "name": "setSellFee",
      "inputs": [
        {
          "name": "_fee",
          "type": "uint256",
          "internalType": "uint256"
        }
      ],
      "outputs": [],
      "stateMutability": "nonpayable"
    },
    {
      "type": "function",
      "name": "setVirtualCollateralSupply",
      "inputs": [
        {
          "name": "_virtualSupply",
          "type": "uint256",
          "internalType": "uint256"
        }
      ],
      "outputs": [],
      "stateMutability": "nonpayable"
    },
    {
      "type": "function",
      "name": "setVirtualIssuanceSupply",
      "inputs": [
        {
          "name": "_virtualSupply",
          "type": "uint256",
          "internalType": "uint256"
        }
      ],
      "outputs": [],
      "stateMutability": "nonpayable"
    },
    {
      "type": "function",
      "name": "supportsInterface",
      "inputs": [
        {
          "name": "interfaceId",
          "type": "bytes4",
          "internalType": "bytes4"
        }
      ],
      "outputs": [
        {
          "name": "",
          "type": "bool",
          "internalType": "bool"
        }
      ],
      "stateMutability": "view"
    },
    {
      "type": "function",
      "name": "title",
      "inputs": [],
      "outputs": [
        {
          "name": "",
          "type": "string",
          "internalType": "string"
        }
      ],
      "stateMutability": "view"
    },
    {
      "type": "function",
      "name": "token",
      "inputs": [],
      "outputs": [
        {
          "name": "",
          "type": "address",
          "internalType": "contract IERC20"
        }
      ],
      "stateMutability": "view"
    },
    {
      "type": "function",
      "name": "transferOrchestratorToken",
      "inputs": [
        {
          "name": "",
          "type": "address",
          "internalType": "address"
        },
        {
          "name": "",
          "type": "uint256",
          "internalType": "uint256"
        }
      ],
      "outputs": [],
      "stateMutability": "view"
    },
    {
      "type": "function",
      "name": "trustedForwarder",
      "inputs": [],
      "outputs": [
        {
          "name": "",
          "type": "address",
          "internalType": "address"
        }
      ],
      "stateMutability": "view"
    },
    {
      "type": "function",
      "name": "url",
      "inputs": [],
      "outputs": [
        {
          "name": "",
          "type": "string",
          "internalType": "string"
        }
      ],
      "stateMutability": "view"
    },
    {
      "type": "function",
      "name": "version",
      "inputs": [],
      "outputs": [
        {
          "name": "",
          "type": "uint256",
          "internalType": "uint256"
        },
        {
          "name": "",
          "type": "uint256",
          "internalType": "uint256"
        }
      ],
      "stateMutability": "view"
    },
    {
      "type": "function",
      "name": "withdrawProjectCollateralFee",
      "inputs": [
        {
          "name": "_receiver",
          "type": "address",
          "internalType": "address"
        },
        {
          "name": "_amount",
          "type": "uint256",
          "internalType": "uint256"
        }
      ],
      "outputs": [],
      "stateMutability": "nonpayable"
    },
    {
      "type": "event",
      "name": "BuyFeeUpdated",
      "inputs": [
        {
          "name": "newBuyFee",
          "type": "uint256",
          "indexed": false,
          "internalType": "uint256"
        },
        {
          "name": "oldBuyFee",
          "type": "uint256",
          "indexed": false,
          "internalType": "uint256"
        }
      ],
      "anonymous": false
    },
    {
      "type": "event",
      "name": "BuyReserveRatioSet",
      "inputs": [
        {
          "name": "newBuyReserveRatio",
          "type": "uint32",
          "indexed": true,
          "internalType": "uint32"
        },
        {
          "name": "oldBuyReserveRatio",
          "type": "uint32",
          "indexed": true,
          "internalType": "uint32"
        }
      ],
      "anonymous": false
    },
    {
      "type": "event",
      "name": "BuyingDisabled",
      "inputs": [],
      "anonymous": false
    },
    {
      "type": "event",
      "name": "BuyingEnabled",
      "inputs": [],
      "anonymous": false
    },
    {
      "type": "event",
      "name": "Deposit",
      "inputs": [
        {
          "name": "_from",
          "type": "address",
          "indexed": true,
          "internalType": "address"
        },
        {
          "name": "_for",
          "type": "address",
          "indexed": true,
          "internalType": "address"
        },
        {
          "name": "_amount",
          "type": "uint256",
          "indexed": false,
          "internalType": "uint256"
        }
      ],
      "anonymous": false
    },
    {
      "type": "event",
      "name": "Initialized",
      "inputs": [
        {
          "name": "version",
          "type": "uint64",
          "indexed": false,
          "internalType": "uint64"
        }
      ],
      "anonymous": false
    },
    {
      "type": "event",
      "name": "IssuanceTokenUpdated",
      "inputs": [
        {
          "name": "oldToken",
          "type": "address",
          "indexed": true,
          "internalType": "address"
        },
        {
          "name": "issuanceToken",
          "type": "address",
          "indexed": true,
          "internalType": "address"
        }
      ],
      "anonymous": false
    },
    {
      "type": "event",
      "name": "ModuleInitialized",
      "inputs": [
        {
          "name": "parentOrchestrator",
          "type": "address",
          "indexed": true,
          "internalType": "address"
        },
        {
          "name": "moduleTitle",
          "type": "string",
          "indexed": true,
          "internalType": "string"
        },
        {
          "name": "majorVersion",
          "type": "uint256",
          "indexed": false,
          "internalType": "uint256"
        },
        {
          "name": "minorVersion",
          "type": "uint256",
          "indexed": false,
          "internalType": "uint256"
        }
      ],
      "anonymous": false
    },
    {
      "type": "event",
      "name": "ProjectCollateralFeeWithdrawn",
      "inputs": [
        {
          "name": "receiver",
          "type": "address",
          "indexed": false,
          "internalType": "address"
        },
        {
          "name": "amount",
          "type": "uint256",
          "indexed": false,
          "internalType": "uint256"
        }
      ],
      "anonymous": false
    },
    {
      "type": "event",
      "name": "ProtocolFeeMinted",
      "inputs": [
        {
          "name": "token",
          "type": "address",
          "indexed": true,
          "internalType": "address"
        },
        {
          "name": "treasury",
          "type": "address",
          "indexed": true,
          "internalType": "address"
        },
        {
          "name": "feeAmount",
          "type": "uint256",
          "indexed": false,
          "internalType": "uint256"
        }
      ],
      "anonymous": false
    },
    {
      "type": "event",
      "name": "ProtocolFeeTransferred",
      "inputs": [
        {
          "name": "token",
          "type": "address",
          "indexed": true,
          "internalType": "address"
        },
        {
          "name": "treasury",
          "type": "address",
          "indexed": true,
          "internalType": "address"
        },
        {
          "name": "feeAmount",
          "type": "uint256",
          "indexed": false,
          "internalType": "uint256"
        }
      ],
      "anonymous": false
    },
    {
      "type": "event",
      "name": "SellFeeUpdated",
      "inputs": [
        {
          "name": "newSellFee",
          "type": "uint256",
          "indexed": false,
          "internalType": "uint256"
        },
        {
          "name": "oldSellFee",
          "type": "uint256",
          "indexed": false,
          "internalType": "uint256"
        }
      ],
      "anonymous": false
    },
    {
      "type": "event",
      "name": "SellReserveRatioSet",
      "inputs": [
        {
          "name": "newSellReserveRatio",
          "type": "uint32",
          "indexed": true,
          "internalType": "uint32"
        },
        {
          "name": "oldSellReserveRatio",
          "type": "uint32",
          "indexed": true,
          "internalType": "uint32"
        }
      ],
      "anonymous": false
    },
    {
      "type": "event",
      "name": "SellingDisabled",
      "inputs": [],
      "anonymous": false
    },
    {
      "type": "event",
      "name": "SellingEnabled",
      "inputs": [],
      "anonymous": false
    },
    {
      "type": "event",
      "name": "TokenDecimalsUpdated",
      "inputs": [
        {
          "name": "oldDecimals",
          "type": "uint8",
          "indexed": true,
          "internalType": "uint8"
        },
        {
          "name": "newDecimals",
          "type": "uint8",
          "indexed": true,
          "internalType": "uint8"
        }
      ],
      "anonymous": false
    },
    {
      "type": "event",
      "name": "TokensBought",
      "inputs": [
        {
          "name": "receiver",
          "type": "address",
          "indexed": true,
          "internalType": "address"
        },
        {
          "name": "depositAmount",
          "type": "uint256",
          "indexed": false,
          "internalType": "uint256"
        },
        {
          "name": "receivedAmount",
          "type": "uint256",
          "indexed": false,
          "internalType": "uint256"
        },
        {
          "name": "buyer",
          "type": "address",
          "indexed": false,
          "internalType": "address"
        }
      ],
      "anonymous": false
    },
    {
      "type": "event",
      "name": "TokensSold",
      "inputs": [
        {
          "name": "receiver",
          "type": "address",
          "indexed": true,
          "internalType": "address"
        },
        {
          "name": "depositAmount",
          "type": "uint256",
          "indexed": false,
          "internalType": "uint256"
        },
        {
          "name": "receivedAmount",
          "type": "uint256",
          "indexed": false,
          "internalType": "uint256"
        },
        {
          "name": "seller",
          "type": "address",
          "indexed": false,
          "internalType": "address"
        }
      ],
      "anonymous": false
    },
    {
      "type": "event",
      "name": "TransferOrchestratorToken",
      "inputs": [
        {
          "name": "_to",
          "type": "address",
          "indexed": true,
          "internalType": "address"
        },
        {
          "name": "_amount",
          "type": "uint256",
          "indexed": false,
          "internalType": "uint256"
        }
      ],
      "anonymous": false
    },
    {
      "type": "event",
      "name": "VirtualCollateralAmountAdded",
      "inputs": [
        {
          "name": "amountAdded",
          "type": "uint256",
          "indexed": false,
          "internalType": "uint256"
        },
        {
          "name": "newSupply",
          "type": "uint256",
          "indexed": false,
          "internalType": "uint256"
        }
      ],
      "anonymous": false
    },
    {
      "type": "event",
      "name": "VirtualCollateralAmountSubtracted",
      "inputs": [
        {
          "name": "amountSubtracted",
          "type": "uint256",
          "indexed": false,
          "internalType": "uint256"
        },
        {
          "name": "newSupply",
          "type": "uint256",
          "indexed": false,
          "internalType": "uint256"
        }
      ],
      "anonymous": false
    },
    {
      "type": "event",
      "name": "VirtualCollateralSupplySet",
      "inputs": [
        {
          "name": "newSupply",
          "type": "uint256",
          "indexed": false,
          "internalType": "uint256"
        },
        {
          "name": "oldSupply",
          "type": "uint256",
          "indexed": false,
          "internalType": "uint256"
        }
      ],
      "anonymous": false
    },
    {
      "type": "event",
      "name": "VirtualIssuanceAmountAdded",
      "inputs": [
        {
          "name": "amountAdded",
          "type": "uint256",
          "indexed": false,
          "internalType": "uint256"
        },
        {
          "name": "newSupply",
          "type": "uint256",
          "indexed": false,
          "internalType": "uint256"
        }
      ],
      "anonymous": false
    },
    {
      "type": "event",
      "name": "VirtualIssuanceAmountSubtracted",
      "inputs": [
        {
          "name": "amountSubtracted",
          "type": "uint256",
          "indexed": false,
          "internalType": "uint256"
        },
        {
          "name": "newSupply",
          "type": "uint256",
          "indexed": false,
          "internalType": "uint256"
        }
      ],
      "anonymous": false
    },
    {
      "type": "event",
      "name": "VirtualIssuanceSupplySet",
      "inputs": [
        {
          "name": "newSupply",
          "type": "uint256",
          "indexed": false,
          "internalType": "uint256"
        },
        {
          "name": "oldSupply",
          "type": "uint256",
          "indexed": false,
          "internalType": "uint256"
        }
      ],
      "anonymous": false
    },
    {
      "type": "event",
      "name": "Withdrawal",
      "inputs": [
        {
          "name": "_from",
          "type": "address",
          "indexed": true,
          "internalType": "address"
        },
        {
          "name": "_for",
          "type": "address",
          "indexed": true,
          "internalType": "address"
        },
        {
          "name": "_amount",
          "type": "uint256",
          "indexed": false,
          "internalType": "uint256"
        }
      ],
      "anonymous": false
    },
    {
      "type": "error",
      "name": "AddressEmptyCode",
      "inputs": [
        {
          "name": "target",
          "type": "address",
          "internalType": "address"
        }
      ]
    },
    {
      "type": "error",
      "name": "AddressInsufficientBalance",
      "inputs": [
        {
          "name": "account",
          "type": "address",
          "internalType": "address"
        }
      ]
    },
    {
      "type": "error",
      "name": "FailedInnerCall",
      "inputs": []
    },
    {
      "type": "error",
      "name": "InvalidInitialization",
      "inputs": []
    },
    {
      "type": "error",
      "name": "Module_OrchestratorCallbackFailed",
      "inputs": [
        {
          "name": "funcSig",
          "type": "string",
          "internalType": "string"
        }
      ]
    },
    {
      "type": "error",
      "name": "Module__BondingCurveBase__BuyingFunctionaltiesClosed",
      "inputs": []
    },
    {
      "type": "error",
      "name": "Module__BondingCurveBase__FeeAmountToHigh",
      "inputs": []
    },
    {
      "type": "error",
      "name": "Module__BondingCurveBase__InsufficientOutputAmount",
      "inputs": []
    },
    {
      "type": "error",
      "name": "Module__BondingCurveBase__InvalidDepositAmount",
      "inputs": []
    },
    {
      "type": "error",
      "name": "Module__BondingCurveBase__InvalidFeePercentage",
      "inputs": []
    },
    {
      "type": "error",
      "name": "Module__BondingCurveBase__InvalidRecipient",
      "inputs": []
    },
    {
      "type": "error",
      "name": "Module__BondingCurveBase__InvalidWithdrawAmount",
      "inputs": []
    },
    {
      "type": "error",
      "name": "Module__CallerNotAuthorized",
      "inputs": [
        {
          "name": "role",
          "type": "bytes32",
          "internalType": "bytes32"
        },
        {
          "name": "caller",
          "type": "address",
          "internalType": "address"
        }
      ]
    },
    {
      "type": "error",
      "name": "Module__FM_BC_Bancor_Redeeming_VirtualSupply__InvalidDepositAmount",
      "inputs": []
    },
    {
      "type": "error",
      "name": "Module__FM_BC_Bancor_Redeeming_VirtualSupply__InvalidReserveRatio",
      "inputs": []
    },
    {
      "type": "error",
      "name": "Module__FM_BC_Bancor_Redeeming_VirtualSupply__InvalidTokenDecimal",
      "inputs": []
    },
    {
      "type": "error",
      "name": "Module__FM_BC_Restricted_Bancor_Redeeming_VirtualSupply__FeatureDeactivated",
      "inputs": []
    },
    {
      "type": "error",
      "name": "Module__FundingManager__CannotSelfDeposit",
      "inputs": []
    },
    {
      "type": "error",
      "name": "Module__FundingManager__DepositCapReached",
      "inputs": []
    },
    {
      "type": "error",
      "name": "Module__FundingManager__InvalidAddress",
      "inputs": []
    },
    {
      "type": "error",
      "name": "Module__InvalidMetadata",
      "inputs": []
    },
    {
      "type": "error",
      "name": "Module__InvalidOrchestratorAddress",
      "inputs": []
    },
    {
      "type": "error",
      "name": "Module__OnlyCallableByOrchestrator",
      "inputs": []
    },
    {
      "type": "error",
      "name": "Module__RedeemingBondingCurveBase__InsufficientCollateralForRedemption",
      "inputs": []
    },
    {
      "type": "error",
      "name": "Module__RedeemingBondingCurveBase__SellingFunctionaltiesClosed",
      "inputs": []
    },
    {
      "type": "error",
      "name": "Module__VirtualCollateralSupplyBase__AddResultsInOverflow",
      "inputs": []
    },
    {
      "type": "error",
      "name": "Module__VirtualCollateralSupplyBase__SubtractResultsInUnderflow",
      "inputs": []
    },
    {
      "type": "error",
      "name": "Module__VirtualCollateralSupplyBase__VirtualSupplyCannotBeZero",
      "inputs": []
    },
    {
      "type": "error",
      "name": "Module__VirtualIssuanceSupplyBase__AddResultsInOverflow",
      "inputs": []
    },
    {
      "type": "error",
      "name": "Module__VirtualIssuanceSupplyBase__SubtractResultsInUnderflow",
      "inputs": []
    },
    {
      "type": "error",
      "name": "Module__VirtualIssuanceSupplyBase__VirtualSupplyCannotBeZero",
      "inputs": []
    },
    {
      "type": "error",
      "name": "NotInitializing",
      "inputs": []
    },
    {
      "type": "error",
      "name": "SafeERC20FailedOperation",
      "inputs": [
        {
          "name": "token",
          "type": "address",
          "internalType": "address"
        }
      ]
    }
  ],
  "bytecode": {
    "object": "0x60a06040523480156200001157600080fd5b5060006080526200002162000027565b620000db565b7ff0c57e16840df040f15088dc2f81fe391c3923bec73e23a9662efc9c229c6a00805468010000000000000000900460ff1615620000785760405163f92ee8a960e01b815260040160405180910390fd5b80546001600160401b0390811614620000d85780546001600160401b0319166001600160401b0390811782556040519081527fc7f505b2f371ae2175ee4913f4499e1f2633a7b5936321eed1cdaeb6115181d29060200160405180910390a15b50565b60805161579a620000f46000396000505061579a6000f3fe60806040523480156200001157600080fd5b5060043610620003445760003560e01c80637da0a87711620001c9578063bf75292b1162000101578063d6febde811620000a3578063f1eae64a116200007a578063f1eae64a14620006d8578063fa03330c14620006e2578063fc0c546a14620006ec57600080fd5b8063d6febde81462000693578063d79875eb14620006aa578063ecd31b5514620006c157600080fd5b8063cbda8f8211620000d8578063cbda8f821462000676578063d1c6022f1462000680578063d4a67930146200068957600080fd5b8063bf75292b146200064e578063c6829ba21462000657578063c6ab5cdc146200066c57600080fd5b8063a8a539d9116200016b578063ba83c9701162000142578063ba83c9701462000623578063bcb61920146200062d578063bd098404146200064457600080fd5b8063a8a539d914620005e3578063b74795d914620005fa578063b88a2cf6146200060c57600080fd5b80638b4cee0811620001a05780638b4cee0814620005a75780639093b01f14620005be578063935b7dbd14620005cc57600080fd5b80637da0a87714620005715780637feb48a1146200057b5780638ac631e6146200059057600080fd5b80634f893bba116200029d5780636115db1c116200023f5780636e42337911620002165780636e4233791462000539578063759cc4b514620005505780637998a1c4146200056757600080fd5b80636115db1c14620004e357806369fcd4ac146200050b5780636c67e807146200052257600080fd5b80635600f04f11620002745780635600f04f14620004ab578063572b6c0514620004b55780635f6108ff14620004cc57600080fd5b80634f893bba146200046157806351cac5de146200047857806354fd4d50146200048f57600080fd5b80632b14ca5611620003075780634706240211620002de5780634706240214620004295780634a79d50c14620004335780634b75f54f146200044c57600080fd5b80632b14ca5614620003e2578063322d210014620003fb57806342dfe958146200041257600080fd5b806301ffc9a714620003495780630cc835a314620003755780631ca3bc4f146200038e57806324e3027014620003b4578063272bbd4414620003cb575b600080fd5b620003606200035a36600462003cc7565b620006ff565b60405190151581526020015b60405180910390f35b6200038c6200038636600462003cf3565b62000748565b005b609d546001600160a01b03165b6040516001600160a01b0390911681526020016200036c565b6200038c620003c536600462003d0d565b6200083d565b6200038c620003dc36600462003d0d565b62000ae2565b620003ec60d35481565b6040519081526020016200036c565b620003ec6200040c36600462003cf3565b62000cda565b6200038c6200042336600462003ecb565b62000d88565b620003ec609e5481565b6200043d62001110565b6040516200036c91906200400b565b610106546200039b906001600160a01b031681565b6200038c6200047236600462004020565b620011ad565b6200038c6200048936600462003cf3565b62001381565b606754606854604080519283526020830191909152016200036c565b6200043d620013d9565b62000360620004c63660046200404f565b620013ed565b6200038c620004dd3660046200406f565b6200145f565b61010654600160c01b900463ffffffff165b60405163ffffffff90911681526020016200036c565b620003ec6200051c36600462003cf3565b6200154e565b6200038c62000533366004620040a7565b620015f4565b6200038c6200054a36600462003cf3565b6200181e565b6200038c6200056136600462004020565b62001876565b620003ec62001899565b6200039b620019fb565b620003ec6921aaa92b22afaaa9a2a960b11b81565b6200038c620005a1366004620040ed565b62001a6c565b6200038c620005b836600462003cf3565b62001ac4565b60d254620003609060ff1681565b6200038c620005dd3660046200406f565b62001b1c565b61010654600160a01b900463ffffffff16620004f5565b6066546001600160a01b03166200039b565b6200038c6200061d366004620040ed565b62001b8f565b6200038c62001be7565b6200038c6200063e366004620040a7565b62001c69565b620003ec62001e68565b603354620003ec565b609d546200036090600160a01b900460ff1681565b6200038c62001ebd565b620003ec609f5481565b600054620003ec565b6200038c62001f42565b6200038c620006a43660046200410d565b62001fcd565b6200038c620006bb3660046200410d565b62001ff1565b6200038c620006d236600462004020565b62002011565b6200038c6200205e565b620003ec620020e3565b610107546001600160a01b03166200039b565b60006001600160e01b03198216622e5fc960e71b14806200073057506001600160e01b0319821663899090df60e01b145b8062000742575062000742826200210e565b92915050565b6066546040805163d09edf3160e01b815290516200082f926001600160a01b03169163d09edf319160048083019260209291908290030181865afa15801562000795573d6000803e3d6000fd5b505050506040513d601f19601f82011682018060405250810190620007bb919062004130565b6001600160a01b031663b3ecf2366040518163ffffffff1660e01b8152600401602060405180830381865afa158015620007f9573d6000803e3d6000fd5b505050506040513d601f19601f820116820180604052508101906200081f919062004150565b6200082962002136565b62002192565b6200083a81620022b7565b50565b826000606660009054906101000a90046001600160a01b03166001600160a01b031663d09edf316040518163ffffffff1660e01b8152600401602060405180830381865afa15801562000894573d6000803e3d6000fd5b505050506040513d601f19601f82011682018060405250810190620008ba919062004130565b60405163fdd5205f60e01b8152306004820152602481018490526001600160a01b03919091169063fdd5205f906044016020604051808303816000875af11580156200090a573d6000803e3d6000fd5b505050506040513d601f19601f8201168201806040525081019062000930919062004150565b9050620009fc606660009054906101000a90046001600160a01b03166001600160a01b031663d09edf316040518163ffffffff1660e01b8152600401602060405180830381865afa1580156200098a573d6000803e3d6000fd5b505050506040513d601f19601f82011682018060405250810190620009b0919062004130565b6001600160a01b031663248a9ca3836040518263ffffffff1660e01b8152600401620009de91815260200190565b602060405180830381865afa158015620007f9573d6000803e3d6000fd5b606660009054906101000a90046001600160a01b03166001600160a01b031663d09edf316040518163ffffffff1660e01b8152600401602060405180830381865afa15801562000a50573d6000803e3d6000fd5b505050506040513d601f19601f8201168201806040525081019062000a76919062004130565b6001600160a01b0316637d540a648686866040518463ffffffff1660e01b815260040162000aa7939291906200416a565b600060405180830381600087803b15801562000ac257600080fd5b505af115801562000ad7573d6000803e3d6000fd5b505050505050505050565b826000606660009054906101000a90046001600160a01b03166001600160a01b031663d09edf316040518163ffffffff1660e01b8152600401602060405180830381865afa15801562000b39573d6000803e3d6000fd5b505050506040513d601f19601f8201168201806040525081019062000b5f919062004130565b60405163fdd5205f60e01b8152306004820152602481018490526001600160a01b03919091169063fdd5205f906044016020604051808303816000875af115801562000baf573d6000803e3d6000fd5b505050506040513d601f19601f8201168201806040525081019062000bd5919062004150565b905062000c2f606660009054906101000a90046001600160a01b03166001600160a01b031663d09edf316040518163ffffffff1660e01b8152600401602060405180830381865afa1580156200098a573d6000803e3d6000fd5b606660009054906101000a90046001600160a01b03166001600160a01b031663d09edf316040518163ffffffff1660e01b8152600401602060405180830381865afa15801562000c83573d6000803e3d6000fd5b505050506040513d601f19601f8201168201806040525081019062000ca9919062004130565b6001600160a01b031663648154538686866040518463ffffffff1660e01b815260040162000aa7939291906200416a565b600062000ce78262002304565b60408051808201909152601e81527f5f6275794f7264657228616464726573732c2075696e742c2075696e7429000060209091015260008062000d4a7febc8b0204dadb4d6005a49547cbbe02c8e0cb088aaed83b705285a22a0c2e5f262002326565b93509350505062000d5f8483609e5462002353565b5090945062000d7d905062000d7485620023e4565b82600062002353565b509095945050505050565b7ff0c57e16840df040f15088dc2f81fe391c3923bec73e23a9662efc9c229c6a00805468010000000000000000810460ff16159067ffffffffffffffff1660008115801562000dd45750825b905060008267ffffffffffffffff16600114801562000df25750303b155b90508115801562000e01575080155b1562000e205760405163f92ee8a960e01b815260040160405180910390fd5b845467ffffffffffffffff19166001178555831562000e5557845468ff00000000000000001916680100000000000000001785555b62000e6188886200250b565b62000e9060405180608001604052806060815260200160608152602001600060ff168152602001600081525090565b6040805161012081018252600080825260208201819052918101829052606081018290526080810182905260a0810182905260c0810182905260e08101829052610100810182905260008980602001905181019062000ef0919062004305565b8094508195508296508397505050505060008460000151856020015186604001518760600151873060405162000f269062003cb9565b62000f3796959493929190620043fb565b604051809103906000f08015801562000f54573d6000803e3d6000fd5b5061010780546001600160a01b0319166001600160a01b0385169081179091556040805163313ce56760e01b81529051929350909163313ce567916004808201926020929091908290030181865afa15801562000fb5573d6000803e3d6000fd5b505050506040513d601f19601f8201168201806040525081019062000fdb919062004456565b61010760146101000a81548160ff021916908360ff160217905550620010018162002629565b825161010680546001600160a01b0319166001600160a01b0390921691909117905560e0830151620010339062002701565b6200104383610100015162002764565b620010528360200151620027c8565b6200106183604001516200283a565b620010708360600151620022b7565b6200107f8360800151620028ac565b505060a0810151609d805460ff60a01b1916600160a01b9215159290920291909117905560c0015160d2805460ff1916911515919091179055505083156200110657845468ff000000000000000019168555604051600181527fc7f505b2f371ae2175ee4913f4499e1f2633a7b5936321eed1cdaeb6115181d29060200160405180910390a15b5050505050505050565b606060676003018054620011249062004474565b80601f0160208091040260200160405190810160405280929190818152602001828054620011529062004474565b8015620011a35780601f106200117757610100808354040283529160200191620011a3565b820191906000526020600020905b8154815290600101906020018083116200118557829003601f168201915b5050505050905090565b81620011b981620028f9565b6066546040805163d09edf3160e01b8152905162001206926001600160a01b03169163d09edf319160048083019260209291908290030181865afa15801562000795573d6000803e3d6000fd5b609f548211156200122a576040516347d1bcf560e01b815260040160405180910390fd5b81609f60008282546200123e9190620044c6565b925050819055506200133a8383606660009054906101000a90046001600160a01b03166001600160a01b03166304baed9e6040518163ffffffff1660e01b8152600401602060405180830381865afa1580156200129f573d6000803e3d6000fd5b505050506040513d601f19601f82011682018060405250810190620012c5919062004130565b6001600160a01b031663fc0c546a6040518163ffffffff1660e01b8152600401602060405180830381865afa15801562001303573d6000803e3d6000fd5b505050506040513d601f19601f8201168201806040525081019062001329919062004130565b6001600160a01b0316919062002937565b604080516001600160a01b0385168152602081018490527f9e9a785b42ae3ce89ea11b526c656a7cacbd520b83908336dc8c9f4e9be9135f910160405180910390a1505050565b6066546040805163d09edf3160e01b81529051620013ce926001600160a01b03169163d09edf319160048083019260209291908290030181865afa15801562000795573d6000803e3d6000fd5b6200083a8162002701565b606060676002018054620011249062004474565b60665460405163572b6c0560e01b81526001600160a01b038381166004830152600092169063572b6c0590602401602060405180830381865afa15801562001439573d6000803e3d6000fd5b505050506040513d601f19601f82011682018060405250810190620007429190620044dc565b6921aaa92b22afaaa9a2a960b11b6200153b606660009054906101000a90046001600160a01b03166001600160a01b031663d09edf316040518163ffffffff1660e01b8152600401602060405180830381865afa158015620014c5573d6000803e3d6000fd5b505050506040513d601f19601f82011682018060405250810190620014eb919062004130565b60405163fdd5205f60e01b8152306004820152602481018490526001600160a01b03919091169063fdd5205f906044016020604051808303816000875af1158015620007f9573d6000803e3d6000fd5b62001548848484620029b2565b50505050565b60006200155b8262002304565b60408051808201909152601f81527f5f73656c6c4f7264657228616464726573732c2075696e742c2075696e742900602090910152600080620015be7f668a32426dd1260f278045f1ae1311ac54a127636f6a4572712cffc11c002a1362002326565b935093505050620015d28482600062002353565b50909450620015e390508462002a06565b925062000d7d838360d35462002353565b816000606660009054906101000a90046001600160a01b03166001600160a01b031663d09edf316040518163ffffffff1660e01b8152600401602060405180830381865afa1580156200164b573d6000803e3d6000fd5b505050506040513d601f19601f8201168201806040525081019062001671919062004130565b60405163fdd5205f60e01b8152306004820152602481018490526001600160a01b03919091169063fdd5205f906044016020604051808303816000875af1158015620016c1573d6000803e3d6000fd5b505050506040513d601f19601f82011682018060405250810190620016e7919062004150565b905062001741606660009054906101000a90046001600160a01b03166001600160a01b031663d09edf316040518163ffffffff1660e01b8152600401602060405180830381865afa1580156200098a573d6000803e3d6000fd5b606660009054906101000a90046001600160a01b03166001600160a01b031663d09edf316040518163ffffffff1660e01b8152600401602060405180830381865afa15801562001795573d6000803e3d6000fd5b505050506040513d601f19601f82011682018060405250810190620017bb919062004130565b60405163385e205560e21b8152600481018690526001600160a01b038581166024830152919091169063e1788154906044015b600060405180830381600087803b1580156200180957600080fd5b505af115801562001106573d6000803e3d6000fd5b6066546040805163d09edf3160e01b815290516200186b926001600160a01b03169163d09edf319160048083019260209291908290030181865afa15801562000795573d6000803e3d6000fd5b6200083a8162002764565b6200188062002b2c565b604051632b931c6760e01b815260040160405180910390fd5b60408051608081018252606780548252606854602083015260698054600094620019f694939290840191620018ce9062004474565b80601f0160208091040260200160405190810160405280929190818152602001828054620018fc9062004474565b80156200194d5780601f1062001921576101008083540402835291602001916200194d565b820191906000526020600020905b8154815290600101906020018083116200192f57829003601f168201915b50505050508152602001600382018054620019689062004474565b80601f0160208091040260200160405190810160405280929190818152602001828054620019969062004474565b8015620019e75780601f10620019bb57610100808354040283529160200191620019e7565b820191906000526020600020905b815481529060010190602001808311620019c957829003601f168201915b50505050508152505062002b6c565b905090565b60665460408051637da0a87760e01b815290516000926001600160a01b031691637da0a8779160048083019260209291908290030181865afa15801562001a46573d6000803e3d6000fd5b505050506040513d601f19601f82011682018060405250810190620019f6919062004130565b6066546040805163d09edf3160e01b8152905162001ab9926001600160a01b03169163d09edf319160048083019260209291908290030181865afa15801562000795573d6000803e3d6000fd5b6200083a81620027c8565b6066546040805163d09edf3160e01b8152905162001b11926001600160a01b03169163d09edf319160048083019260209291908290030181865afa15801562000795573d6000803e3d6000fd5b6200083a81620028ac565b6921aaa92b22afaaa9a2a960b11b62001b82606660009054906101000a90046001600160a01b03166001600160a01b031663d09edf316040518163ffffffff1660e01b8152600401602060405180830381865afa158015620014c5573d6000803e3d6000fd5b6200154884848462002bae565b6066546040805163d09edf3160e01b8152905162001bdc926001600160a01b03169163d09edf319160048083019260209291908290030181865afa15801562000795573d6000803e3d6000fd5b6200083a816200283a565b6066546040805163d09edf3160e01b8152905162001c34926001600160a01b03169163d09edf319160048083019260209291908290030181865afa15801562000795573d6000803e3d6000fd5b60d2805460ff191690556040517fc34ae80cb7f967a799992108cfbc90770413d60555d5b0587a4c2c3e69c79ca490600090a1565b816000606660009054906101000a90046001600160a01b03166001600160a01b031663d09edf316040518163ffffffff1660e01b8152600401602060405180830381865afa15801562001cc0573d6000803e3d6000fd5b505050506040513d601f19601f8201168201806040525081019062001ce6919062004130565b60405163fdd5205f60e01b8152306004820152602481018490526001600160a01b03919091169063fdd5205f906044016020604051808303816000875af115801562001d36573d6000803e3d6000fd5b505050506040513d601f19601f8201168201806040525081019062001d5c919062004150565b905062001db6606660009054906101000a90046001600160a01b03166001600160a01b031663d09edf316040518163ffffffff1660e01b8152600401602060405180830381865afa1580156200098a573d6000803e3d6000fd5b606660009054906101000a90046001600160a01b03166001600160a01b031663d09edf316040518163ffffffff1660e01b8152600401602060405180830381865afa15801562001e0a573d6000803e3d6000fd5b505050506040513d601f19601f8201168201806040525081019062001e30919062004130565b604051632e99be7f60e21b8152600481018690526001600160a01b038581166024830152919091169063ba66f9fc90604401620017ee565b600061010660189054906101000a900463ffffffff1663ffffffff1660005462001e939190620044fa565b60335462001ea5620f424080620044fa565b62001eb19190620044fa565b620019f6919062004514565b6066546040805163d09edf3160e01b8152905162001f0a926001600160a01b03169163d09edf319160048083019260209291908290030181865afa15801562000795573d6000803e3d6000fd5b609d805460ff60a01b191690556040517f44c1679cca34073ce70fed616f995237808d9599a35669fd39f3afd053e2b9b190600090a1565b6066546040805163d09edf3160e01b8152905162001f8f926001600160a01b03169163d09edf319160048083019260209291908290030181865afa15801562000795573d6000803e3d6000fd5b609d805460ff60a01b1916600160a01b1790556040517fe404df37e2f7360b624914a082278de0f9e7da04a61eaab0a8d3d26b52bc0b1990600090a1565b62001fd762002bf9565b62001fed62001fe562002136565b838362001b1c565b5050565b62001ffb62002c24565b62001fed6200200962002136565b83836200145f565b6066546040805163d09edf3160e01b8152905162001880926001600160a01b03169163d09edf319160048083019260209291908290030181865afa15801562000795573d6000803e3d6000fd5b6066546040805163d09edf3160e01b81529051620020ab926001600160a01b03169163d09edf319160048083019260209291908290030181865afa15801562000795573d6000803e3d6000fd5b60d2805460ff191660011790556040517f9d47627df4f01d3bff516199297ca647fe2ea0448c4f2925ef8c16d614a51a7c90600090a1565b600061010660149054906101000a900463ffffffff1663ffffffff1660005462001e939190620044fa565b60006001600160e01b03198216634e14f64760e11b1480620007425750620007428262002c48565b60003660146200214633620013ed565b8015620021535750808210155b156200218a57600036620021688385620044c6565b6200217592829062004537565b620021809162004563565b60601c9250505090565b339250505090565b606660009054906101000a90046001600160a01b03166001600160a01b031663d09edf316040518163ffffffff1660e01b8152600401602060405180830381865afa158015620021e6573d6000803e3d6000fd5b505050506040513d601f19601f820116820180604052508101906200220c919062004130565b604051632474521560e21b8152600481018490526001600160a01b03838116602483015291909116906391d1485490604401602060405180830381865afa1580156200225c573d6000803e3d6000fd5b505050506040513d601f19601f82011682018060405250810190620022829190620044dc565b62001fed576040516342abbb7760e01b8152600481018390526001600160a01b03821660248201526044015b60405180910390fd5b620022c28162002c70565b609e546040805183815260208101929092527f28e297c7c282931a994191b735b01eaf17558295f761512a7047f4e1b8dc3b0b910160405180910390a1609e55565b806000036200083a57604051631d67ff5760e11b815260040160405180910390fd5b600080600080620023378562002c94565b94509150620023468562002e04565b9496949550919391925050565b6000808061271062002366858762004599565b111562002386576040516304e0874960e11b815260040160405180910390fd5b612710620023958688620044fa565b620023a1919062004514565b9150612710620023b28588620044fa565b620023be919062004514565b905080620023cd8388620044c6565b620023d99190620044c6565b925093509350939050565b610106546000805461010754919283926001600160a01b03909116916329a00e7c916200241e9190600160a81b900460ff16601262002f2d565b603354610107546200243d9190600160a01b900460ff16601262002f2d565b610106546101075463ffffffff600160a01b92839004169162002469918a9160ff910416601262002f2d565b6040516001600160e01b031960e087901b1681526004810194909452602484019290925263ffffffff1660448301526064820152608401602060405180830381865afa158015620024be573d6000803e3d6000fd5b505050506040513d601f19601f82011682018060405250810190620024e4919062004150565b90506200250481601261010760159054906101000a900460ff1662002f2d565b9392505050565b6200251562002faf565b6001600160a01b0382166200253d57604051637280679360e01b815260040160405180910390fd5b606680546001600160a01b0319166001600160a01b038416179055620025638162002ffe565b6200258157604051637511254160e01b815260040160405180910390fd5b8051606790815560208201516068556040820151829190606990620025a79082620045fb565b5060608201516003820190620025be9082620045fb565b5050506060810151604051620025d59190620046c8565b604080519182900382208351602080860151918552840152916001600160a01b038516917feb175f148a71d29a5f7bf5439182fcd81e6ea9cfc8a11b54ab0f705fa98fa8ca91015b60405180910390a35050565b6000816001600160a01b031663313ce5676040518163ffffffff1660e01b8152600401602060405180830381865afa1580156200266a573d6000803e3d6000fd5b505050506040513d601f19601f8201168201806040525081019062002690919062004456565b905060078160ff161080620026b557506101075460ff600160a01b9091048116908216105b15620026d457604051638feffdc960e01b815260040160405180910390fd5b620026df8262003054565b610107805460ff909216600160a81b0260ff60a81b1990921691909117905550565b80600003620027225760405162ece6a560e71b815260040160405180910390fd5b6000546040805183815260208101929092527fc60744c6ab5be4d0d7daa24905289cce0ac3a7c5ca60742bb43e367f54267542910160405180910390a1600055565b806000036200278657604051635f60529f60e01b815260040160405180910390fd5b6033546040805183815260208101929092527f09a070adb6f2c823cf65438ad36e4d03c24d94dd2ad6ebb19dd02d09ca1fa03f910160405180910390a1603355565b620027d381620030b0565b6101065460405163ffffffff600160a01b9092048216918316907f27c191dfc402c5c90b6333b6adc108fe15c0c368ccd3a50ec1d702f9288b864890600090a3610106805463ffffffff909216600160a01b0263ffffffff60a01b19909216919091179055565b6200284581620030b0565b6101065460405163ffffffff600160c01b9092048216918316907fd60e348cd25e6e7624733f552b6499f3d296a6c2d464fa0ca109b41d7453b3ca90600090a3610106805463ffffffff909216600160c01b0263ffffffff60c01b19909216919091179055565b620028b78162002c70565b60d3546040805183815260208101929092527f5bafec153d96f8ef37761b64348732b41a6b477401d244a5070f9f82d689adce910160405180910390a160d355565b6001600160a01b03811615806200291857506001600160a01b03811630145b156200083a5760405163364f556160e11b815260040160405180910390fd5b6040516001600160a01b03838116602483015260448201839052620029ad91859182169063a9059cbb906064015b604051602081830303815290604052915060e01b6020820180517bffffffffffffffffffffffffffffffffffffffffffffffffffffffff8381831617835250505050620030eb565b505050565b82620029be81620028f9565b620029c862002c24565b600080620029d886868662003155565b9092509050620029f3620029ed8287620044c6565b620034dc565b620029fe826200356b565b505050505050565b610106546000805461010754919283926001600160a01b03909116916349f9b0f79162002a409190600160a81b900460ff16601262002f2d565b6033546101075462002a5f9190600160a01b900460ff16601262002f2d565b61010660189054906101000a900463ffffffff1662002a918861010760159054906101000a900460ff16601262002f2d565b6040516001600160e01b031960e087901b1681526004810194909452602484019290925263ffffffff1660448301526064820152608401602060405180830381865afa15801562002ae6573d6000803e3d6000fd5b505050506040513d601f19601f8201168201806040525081019062002b0c919062004150565b90506200250481601261010760149054906101000a900460ff1662002f2d565b6066546001600160a01b031662002b4262002136565b6001600160a01b03161462002b6a5760405163e614e81b60e01b815260040160405180910390fd5b565b600081600001518260400151836060015160405160200162002b9193929190620046e6565b604051602081830303815290604052805190602001209050919050565b8262002bba81620028f9565b62002bc462002bf9565b60008062002bd4868686620035f5565b9150915062002be38262003855565b620029fe62002bf38287620044c6565b620038c8565b609d54600160a01b900460ff1662002b6a57604051630afe354360e11b815260040160405180910390fd5b60d25460ff1662002b6a576040516374d0357560e11b815260040160405180910390fd5b60006001600160e01b03198216633731fe6b60e21b148062000742575062000742826200393c565b6127108111156200083a57604051633ef38b5b60e11b815260040160405180910390fd5b600080606660009054906101000a90046001600160a01b03166001600160a01b0316630c340a246040518163ffffffff1660e01b8152600401602060405180830381865afa15801562002ceb573d6000803e3d6000fd5b505050506040513d601f19601f8201168201806040525081019062002d11919062004130565b6001600160a01b031663f2d638266040518163ffffffff1660e01b8152600401602060405180830381865afa15801562002d4f573d6000803e3d6000fd5b505050506040513d601f19601f8201168201806040525081019062002d75919062004130565b606654604051634d970f5560e11b81526001600160a01b0391821660048201523060248201526001600160e01b031986166044820152911690639b2e1eaa906064015b6040805180830381865afa15801562002dd5573d6000803e3d6000fd5b505050506040513d601f19601f8201168201806040525081019062002dfb919062004715565b91509150915091565b600080606660009054906101000a90046001600160a01b03166001600160a01b0316630c340a246040518163ffffffff1660e01b8152600401602060405180830381865afa15801562002e5b573d6000803e3d6000fd5b505050506040513d601f19601f8201168201806040525081019062002e81919062004130565b6001600160a01b031663f2d638266040518163ffffffff1660e01b8152600401602060405180830381865afa15801562002ebf573d6000803e3d6000fd5b505050506040513d601f19601f8201168201806040525081019062002ee5919062004130565b6066546040516304e53bb360e01b81526001600160a01b0391821660048201523060248201526001600160e01b0319861660448201529116906304e53bb39060640162002db8565b60008160ff168360ff160362002f4557508262002504565b8160ff168360ff16111562002f8657600062002f6283856200473d565b62002f6f90600a62004856565b905062002f7d818662004514565b91505062002504565b600062002f9484846200473d565b62002fa190600a62004856565b905062002f7d8186620044fa565b7ff0c57e16840df040f15088dc2f81fe391c3923bec73e23a9662efc9c229c6a005468010000000000000000900460ff1662002b6a57604051631afcd79f60e31b815260040160405180910390fd5b60008160400151516000036200301657506000919050565b8160600151516000036200302c57506000919050565b81511580156200303e57506020820151155b156200304c57506000919050565b506001919050565b609d546040516001600160a01b038084169216907f725bb73d6819c324bf4e2873817ef902109e4e871b4968e252d92a5cbb77cccd90600090a3609d80546001600160a01b0319166001600160a01b0392909216919091179055565b63ffffffff81161580620030cc5750620f424063ffffffff8216115b156200083a5760405163623115ff60e01b815260040160405180910390fd5b6000620031026001600160a01b0384168362003964565b905080516000141580156200312a575080806020019051810190620031289190620044dc565b155b15620029ad57604051635274afe760e01b81526001600160a01b0384166004820152602401620022ae565b600080620031638462002304565b60408051808201909152601f81527f5f73656c6c4f7264657228616464726573732c2075696e742c2075696e7429006020909101526000808080620031c87f668a32426dd1260f278045f1ae1311ac54a127636f6a4572712cffc11c002a1362002326565b93509350935093506000806000620031e38b85600062002353565b50985088935090506000620031f88262002a06565b9050809950620032126200320b62002136565b8d62003974565b6200321e8785620039d9565b6066546040805163025d76cf60e11b815290516000926001600160a01b0316916304baed9e9160048083019260209291908290030181865afa15801562003269573d6000803e3d6000fd5b505050506040513d601f19601f820116820180604052508101906200328f919062004130565b6001600160a01b031663fc0c546a6040518163ffffffff1660e01b8152600401602060405180830381865afa158015620032cd573d6000803e3d6000fd5b505050506040513d601f19601f82011682018060405250810190620032f3919062004130565b6040516370a0823160e01b81523060048201529091506001600160a01b038216906370a0823190602401602060405180830381865afa1580156200333b573d6000803e3d6000fd5b505050506040513d601f19601f8201168201806040525081019062003361919062004150565b609f5462003370908462004599565b111562003390576040516332dcd2bb60e11b815260040160405180910390fd5b6200339f828860d35462002353565b90965094509150620033b389828762003a35565b8315620033d45783609f6000828254620033ce919062004599565b90915550505b8b821015620033f657604051637ac6ada560e01b815260040160405180910390fd5b60405163a9059cbb60e01b81526001600160a01b038f811660048301526024820184905282169063a9059cbb906044016020604051808303816000875af115801562003446573d6000803e3d6000fd5b505050506040513d601f19601f820116820180604052508101906200346c9190620044dc565b508d6001600160a01b03167f7debc712939ce2028bbca7ca90cc85e8fb59a7772e041423d3ec1588af4730ed8e84620034a462002136565b6040805193845260208401929092526001600160a01b03169082015260600160405180910390a2505050505050505050935093915050565b60005481111562003500576040516309f5d4ab60e21b815260040160405180910390fd5b6000548103620035225760405162ece6a560e71b815260040160405180910390fd5b60008054829003908190556040805183815260208101929092527ffb531aedaaeb99214c8335d339abd3ff055ecd418763e51672f7d7a6eb91ce5d91015b60405180910390a150565b6033548111156200358f57604051635d3da26b60e11b815260040160405180910390fd5b6033548103620035b257604051635f60529f60e01b815260040160405180910390fd5b60338054829003908190556040805183815260208101929092527ff90da9caba169a00f9544c3f2cf6e2b5c632fae79eb6116e76ff1f3c1f21472c910162003560565b600080620036038462002304565b6066546040805163025d76cf60e11b815290516000926001600160a01b0316916304baed9e9160048083019260209291908290030181865afa1580156200364e573d6000803e3d6000fd5b505050506040513d601f19601f8201168201806040525081019062003674919062004130565b6001600160a01b031663fc0c546a6040518163ffffffff1660e01b8152600401602060405180830381865afa158015620036b2573d6000803e3d6000fd5b505050506040513d601f19601f82011682018060405250810190620036d8919062004130565b9050620036fb620036e862002136565b6001600160a01b03831690308862003ab0565b60408051808201909152601e81527f5f6275794f7264657228616464726573732c2075696e742c2075696e742900006020909101526000808080620037607febc8b0204dadb4d6005a49547cbbe02c8e0cb088aaed83b705285a22a0c2e5f262002326565b935093509350935060008060006200377c8c86609e5462002353565b919450925090506200378f818362004599565b98506200379e87898462003a35565b8015620037bf5780609f6000828254620037b9919062004599565b90915550505b6000620037cc84620023e4565b9050809a50620037df8186600062002353565b5093509050620037f08784620039d9565b8b8110156200381257604051637ac6ada560e01b815260040160405180910390fd5b6200381e8e8262003aeb565b8d6001600160a01b03167fd150a324c4fc8346977d1499aa36cac8c85e6af24bf1486022fad77d05f8b19f8e83620034a462002136565b6000546200386690600019620044c6565b8111156200388657604051624bb81760e31b815260040160405180910390fd5b600080548201908190556040805183815260208101929092527f7aad1769c7491080279b2d6b032b0e75289a3b12c716abe0333e7be0f70fe12f910162003560565b603354620038d990600019620044c6565b811115620038fa57604051632b8d3fb960e21b815260040160405180910390fd5b603380548201908190556040805183815260208101929092527fb79781f468e2af557e9be98c94e82258c72deac9797eed9d1eb079aba4b0b3ba910162003560565b60006001600160e01b0319821663179dfb4560e01b1480620007425750620007428262003b25565b6060620025048383600062003b4e565b609d54604051632770a7eb60e21b81526001600160a01b0384811660048301526024820184905290911690639dc29fac906044015b600060405180830381600087803b158015620039c457600080fd5b505af1158015620029fe573d6000803e3d6000fd5b801562001fed57620039eb82620028f9565b620039f7828262003aeb565b6040518181526001600160a01b0383169030907f11a26a26a718a46d85815d79165470744429ab0f3093113929c59c097bbebb9a906020016200261d565b8015620029ad5762003a4783620028f9565b62003a5d6001600160a01b038316848362002937565b826001600160a01b0316826001600160a01b03167f81535d361819544361f80ddbe5071aef378a8ecba1c52f2c45fe3335234c43318360405162003aa391815260200190565b60405180910390a3505050565b6040516001600160a01b038481166024830152838116604483015260648201839052620015489186918216906323b872dd9060840162002965565b609d546040516340c10f1960e01b81526001600160a01b03848116600483015260248201849052909116906340c10f1990604401620039a9565b600063689b8d2960e11b6001600160e01b03198316811480620025045750620025048362003bf3565b60608147101562003b755760405163cd78605960e01b8152306004820152602401620022ae565b600080856001600160a01b0316848660405162003b939190620046c8565b60006040518083038185875af1925050503d806000811462003bd2576040519150601f19603f3d011682016040523d82523d6000602084013e62003bd7565b606091505b509150915062003be986838362003c2b565b9695505050505050565b600063800cc7f160e01b6001600160e01b031983168114806200250457506301ffc9a760e01b6001600160e01b031984161462002504565b60608262003c445762003c3e8262003c8f565b62002504565b815115801562003c5c57506001600160a01b0384163b155b1562003c8757604051639996b31560e01b81526001600160a01b0385166004820152602401620022ae565b508062002504565b80511562003ca05780518082602001fd5b604051630a12f52160e11b815260040160405180910390fd5b610efd806200486883390190565b60006020828403121562003cda57600080fd5b81356001600160e01b0319811681146200250457600080fd5b60006020828403121562003d0657600080fd5b5035919050565b60008060006040848603121562003d2357600080fd5b83359250602084013567ffffffffffffffff8082111562003d4357600080fd5b818601915086601f83011262003d5857600080fd5b81358181111562003d6857600080fd5b8760208260051b850101111562003d7e57600080fd5b6020830194508093505050509250925092565b6001600160a01b03811681146200083a57600080fd5b634e487b7160e01b600052604160045260246000fd5b6040516080810167ffffffffffffffff8111828210171562003de35762003de362003da7565b60405290565b604051610120810167ffffffffffffffff8111828210171562003de35762003de362003da7565b604051601f8201601f1916810167ffffffffffffffff8111828210171562003e3c5762003e3c62003da7565b604052919050565b600067ffffffffffffffff82111562003e615762003e6162003da7565b50601f01601f191660200190565b600082601f83011262003e8157600080fd5b813562003e9862003e928262003e44565b62003e10565b81815284602083860101111562003eae57600080fd5b816020850160208301376000918101602001919091529392505050565b60008060006060848603121562003ee157600080fd5b833562003eee8162003d91565b9250602084013567ffffffffffffffff8082111562003f0c57600080fd5b908501906080828803121562003f2157600080fd5b62003f2b62003dbd565b823581526020830135602082015260408301358281111562003f4c57600080fd5b62003f5a8982860162003e6f565b60408301525060608301358281111562003f7357600080fd5b62003f818982860162003e6f565b6060830152509350604086013591508082111562003f9e57600080fd5b5062003fad8682870162003e6f565b9150509250925092565b60005b8381101562003fd457818101518382015260200162003fba565b50506000910152565b6000815180845262003ff781602086016020860162003fb7565b601f01601f19169290920160200192915050565b60208152600062002504602083018462003fdd565b600080604083850312156200403457600080fd5b8235620040418162003d91565b946020939093013593505050565b6000602082840312156200406257600080fd5b8135620025048162003d91565b6000806000606084860312156200408557600080fd5b8335620040928162003d91565b95602085013595506040909401359392505050565b60008060408385031215620040bb57600080fd5b823591506020830135620040cf8162003d91565b809150509250929050565b63ffffffff811681146200083a57600080fd5b6000602082840312156200410057600080fd5b81356200250481620040da565b600080604083850312156200412157600080fd5b50508035926020909101359150565b6000602082840312156200414357600080fd5b8151620025048162003d91565b6000602082840312156200416357600080fd5b5051919050565b83815260406020808301829052908201839052600090849060608401835b86811015620041ba5783356200419e8162003d91565b6001600160a01b03168252928201929082019060010162004188565b50979650505050505050565b600082601f830112620041d857600080fd5b8151620041e962003e928262003e44565b818152846020838601011115620041ff57600080fd5b6200421282602083016020870162003fb7565b949350505050565b805160ff811681146200422c57600080fd5b919050565b80516200422c8162003d91565b80516200422c81620040da565b805180151581146200422c57600080fd5b600061012082840312156200427057600080fd5b6200427a62003de9565b9050620042878262004231565b815262004297602083016200423e565b6020820152620042aa604083016200423e565b60408201526060820151606082015260808201516080820152620042d160a083016200424b565b60a0820152620042e460c083016200424b565b60c082015260e082015160e082015261010080830151818301525092915050565b60008060008061018085870312156200431d57600080fd5b845167ffffffffffffffff808211156200433657600080fd5b90860190608082890312156200434b57600080fd5b6200435562003dbd565b8251828111156200436557600080fd5b620043738a828601620041c6565b8252506020830151828111156200438957600080fd5b620043978a828601620041c6565b602083015250620043ab604084016200421a565b604082015260608301516060820152809650505050620043ce6020860162004231565b9250620043df86604087016200425c565b9150620043f0610160860162004231565b905092959194509250565b60c0815260006200441060c083018962003fdd565b828103602084015262004424818962003fdd565b60ff979097166040840152505060608101939093526001600160a01b0391821660808401521660a09091015292915050565b6000602082840312156200446957600080fd5b62002504826200421a565b600181811c908216806200448957607f821691505b602082108103620044aa57634e487b7160e01b600052602260045260246000fd5b50919050565b634e487b7160e01b600052601160045260246000fd5b81810381811115620007425762000742620044b0565b600060208284031215620044ef57600080fd5b62002504826200424b565b8082028115828204841417620007425762000742620044b0565b6000826200453257634e487b7160e01b600052601260045260246000fd5b500490565b600080858511156200454857600080fd5b838611156200455657600080fd5b5050820193919092039150565b6bffffffffffffffffffffffff198135818116916014851015620045915780818660140360031b1b83161692505b505092915050565b80820180821115620007425762000742620044b0565b601f821115620029ad576000816000526020600020601f850160051c81016020861015620045da5750805b601f850160051c820191505b81811015620029fe57828155600101620045e6565b815167ffffffffffffffff81111562004618576200461862003da7565b620046308162004629845462004474565b84620045af565b602080601f8311600181146200466857600084156200464f5750858301515b600019600386901b1c1916600185901b178555620029fe565b600085815260208120601f198616915b82811015620046995788860151825594840194600190910190840162004678565b5085821015620046b85787850151600019600388901b60f8161c191681555b5050505050600190811b01905550565b60008251620046dc81846020870162003fb7565b9190910192915050565b83815260606020820152600062004701606083018562003fdd565b828103604084015262003be9818562003fdd565b600080604083850312156200472957600080fd5b825191506020830151620040cf8162003d91565b60ff8281168282160390811115620007425762000742620044b0565b600181815b808511156200479a5781600019048211156200477e576200477e620044b0565b808516156200478c57918102915b93841c93908002906200475e565b509250929050565b600082620047b35750600162000742565b81620047c25750600062000742565b8160018114620047db5760028114620047e65762004806565b600191505062000742565b60ff841115620047fa57620047fa620044b0565b50506001821b62000742565b5060208310610133831016604e8410600b84101617156200482b575081810a62000742565b62004837838362004759565b80600019048211156200484e576200484e620044b0565b029392505050565b60006200250460ff841683620047a256fe60806040523480156200001157600080fd5b5060405162000efd38038062000efd833981016040819052620000349162000240565b818686600362000045838262000383565b50600462000054828262000383565b5050506001600160a01b0381166200008657604051631e4fbdf760e01b81526000600482015260240160405180910390fd5b6200009181620000bf565b506200009d8162000111565b50506007556008805460ff191660ff92909216919091179055506200044f9050565b600580546001600160a01b038381166001600160a01b0319831681179093556040519116919082907f8be0079c531659141344cd1fd0a4f28419497f9722a3daafe3b4186f6b6457e090600090a35050565b600680546001600160a01b0319166001600160a01b0383169081179091556040517f726b590ef91a8c76ad05bbe91a57ef84605276528f49cd47d787f558a4e755b690600090a250565b634e487b7160e01b600052604160045260246000fd5b600082601f8301126200018357600080fd5b81516001600160401b0380821115620001a057620001a06200015b565b604051601f8301601f19908116603f01168101908282118183101715620001cb57620001cb6200015b565b8160405283815260209250866020858801011115620001e957600080fd5b600091505b838210156200020d5785820183015181830184015290820190620001ee565b6000602085830101528094505050505092915050565b80516001600160a01b03811681146200023b57600080fd5b919050565b60008060008060008060c087890312156200025a57600080fd5b86516001600160401b03808211156200027257600080fd5b620002808a838b0162000171565b975060208901519150808211156200029757600080fd5b50620002a689828a0162000171565b955050604087015160ff81168114620002be57600080fd5b60608801519094509250620002d66080880162000223565b9150620002e660a0880162000223565b90509295509295509295565b600181811c908216806200030757607f821691505b6020821081036200032857634e487b7160e01b600052602260045260246000fd5b50919050565b601f8211156200037e576000816000526020600020601f850160051c81016020861015620003595750805b601f850160051c820191505b818110156200037a5782815560010162000365565b5050505b505050565b81516001600160401b038111156200039f576200039f6200015b565b620003b781620003b08454620002f2565b846200032e565b602080601f831160018114620003ef5760008415620003d65750858301515b600019600386901b1c1916600185901b1785556200037a565b600085815260208120601f198616915b828110156200042057888601518255948401946001909101908401620003ff565b50858210156200043f5787850151600019600388901b60f8161c191681555b5050505050600190811b01905550565b610a9e806200045f6000396000f3fe608060405234801561001057600080fd5b506004361061010b5760003560e01c8063715018a6116100a25780639e812c7b116100715780639e812c7b1461021a578063a9059cbb1461022d578063dd62ed3e14610240578063f2fde38b14610279578063fca3b5aa1461028c57600080fd5b8063715018a6146101d25780638da5cb5b146101da57806395d89b41146101ff5780639dc29fac1461020757600080fd5b8063313ce567116100de578063313ce5671461017657806332cb6b0c1461018b57806340c10f191461019457806370a08231146101a957600080fd5b806306fdde0314610110578063095ea7b31461012e57806318160ddd1461015157806323b872dd14610163575b600080fd5b61011861029f565b60405161012591906108e7565b60405180910390f35b61014161013c366004610952565b610331565b6040519015158152602001610125565b6002545b604051908152602001610125565b61014161017136600461097c565b61034b565b60085460405160ff9091168152602001610125565b61015560075481565b6101a76101a2366004610952565b61036f565b005b6101556101b73660046109b8565b6001600160a01b031660009081526020819052604090205490565b6101a76103e7565b6005546001600160a01b03165b6040516001600160a01b039091168152602001610125565b6101186103fb565b6101a7610215366004610952565b61040a565b6006546101e7906001600160a01b031681565b61014161023b366004610952565b610448565b61015561024e3660046109da565b6001600160a01b03918216600090815260016020908152604080832093909416825291909152205490565b6101a76102873660046109b8565b610456565b6101a761029a3660046109b8565b610499565b6060600380546102ae90610a0d565b80601f01602080910402602001604051908101604052809291908181526020018280546102da90610a0d565b80156103275780601f106102fc57610100808354040283529160200191610327565b820191906000526020600020905b81548152906001019060200180831161030a57829003601f168201915b5050505050905090565b60003361033f8185856104aa565b60019150505b92915050565b6000336103598582856104bc565b61036485858561053a565b506001949350505050565b6006546001600160a01b0316336001600160a01b0316146103a357604051634199e25360e11b815260040160405180910390fd5b600754816103b060025490565b6103ba9190610a47565b11156103d95760405163db327dd360e01b815260040160405180910390fd5b6103e38282610599565b5050565b6103ef6105cf565b6103f960006105fc565b565b6060600480546102ae90610a0d565b6006546001600160a01b0316336001600160a01b03161461043e57604051634199e25360e11b815260040160405180910390fd5b6103e3828261065b565b60003361033f81858561053a565b61045e6105cf565b6001600160a01b03811661048d57604051631e4fbdf760e01b8152600060048201526024015b60405180910390fd5b610496816105fc565b50565b6104a16105cf565b61049681610691565b6104b783838360016106e8565b505050565b6001600160a01b038381166000908152600160209081526040808320938616835292905220546000198114610534578181101561052557604051637dc7a0d960e11b81526001600160a01b03841660048201526024810182905260448101839052606401610484565b610534848484840360006106e8565b50505050565b6001600160a01b03831661056457604051634b637e8f60e11b815260006004820152602401610484565b6001600160a01b03821661058e5760405163ec442f0560e01b815260006004820152602401610484565b6104b78383836107bd565b6001600160a01b0382166105c35760405163ec442f0560e01b815260006004820152602401610484565b6103e3600083836107bd565b6005546001600160a01b031633146103f95760405163118cdaa760e01b8152336004820152602401610484565b600580546001600160a01b0383811673ffffffffffffffffffffffffffffffffffffffff19831681179093556040519116919082907f8be0079c531659141344cd1fd0a4f28419497f9722a3daafe3b4186f6b6457e090600090a35050565b6001600160a01b03821661068557604051634b637e8f60e11b815260006004820152602401610484565b6103e3826000836107bd565b6006805473ffffffffffffffffffffffffffffffffffffffff19166001600160a01b0383169081179091556040517f726b590ef91a8c76ad05bbe91a57ef84605276528f49cd47d787f558a4e755b690600090a250565b6001600160a01b0384166107125760405163e602df0560e01b815260006004820152602401610484565b6001600160a01b03831661073c57604051634a1406b160e11b815260006004820152602401610484565b6001600160a01b038085166000908152600160209081526040808320938716835292905220829055801561053457826001600160a01b0316846001600160a01b03167f8c5be1e5ebec7d5bd14f71427d1e84f3dd0314c0f7b2291e5b200ac8c7c3b925846040516107af91815260200190565b60405180910390a350505050565b6001600160a01b0383166107e85780600260008282546107dd9190610a47565b9091555061085a9050565b6001600160a01b0383166000908152602081905260409020548181101561083b5760405163391434e360e21b81526001600160a01b03851660048201526024810182905260448101839052606401610484565b6001600160a01b03841660009081526020819052604090209082900390555b6001600160a01b03821661087657600280548290039055610895565b6001600160a01b03821660009081526020819052604090208054820190555b816001600160a01b0316836001600160a01b03167fddf252ad1be2c89b69c2b068fc378daa952ba7f163c4a11628f55a4df523b3ef836040516108da91815260200190565b60405180910390a3505050565b60006020808352835180602085015260005b81811015610915578581018301518582016040015282016108f9565b506000604082860101526040601f19601f8301168501019250505092915050565b80356001600160a01b038116811461094d57600080fd5b919050565b6000806040838503121561096557600080fd5b61096e83610936565b946020939093013593505050565b60008060006060848603121561099157600080fd5b61099a84610936565b92506109a860208501610936565b9150604084013590509250925092565b6000602082840312156109ca57600080fd5b6109d382610936565b9392505050565b600080604083850312156109ed57600080fd5b6109f683610936565b9150610a0460208401610936565b90509250929050565b600181811c90821680610a2157607f821691505b602082108103610a4157634e487b7160e01b600052602260045260246000fd5b50919050565b8082018082111561034557634e487b7160e01b600052601160045260246000fdfea264697066735822122053052b2048d1afbe1367eb79d754f437211f4033347caf66a208ede560b0dc3564736f6c63430008170033a26469706673582212205b6dc5fcc7f5e85740fd811b3b0671dd4dab12052046dee9d5f3859a2a30af3c64736f6c63430008170033",
    "linkReferences": {}
  },
  "methodIdentifiers": {
    "CURVE_INTERACTION_ROLE()": "7feb48a1",
    "buy(uint256,uint256)": "d6febde8",
    "buyFee()": "47062402",
    "buyFor(address,uint256,uint256)": "935b7dbd",
    "buyIsOpen()": "c6829ba2",
    "calculatePurchaseReturn(uint256)": "322d2100",
    "calculateSaleReturn(uint256)": "69fcd4ac",
    "closeBuy()": "c6ab5cdc",
    "closeSell()": "ba83c970",
    "formula()": "4b75f54f",
    "getIssuanceToken()": "1ca3bc4f",
    "getReserveRatioForBuying()": "a8a539d9",
    "getReserveRatioForSelling()": "6115db1c",
    "getStaticPriceForBuying()": "fa03330c",
    "getStaticPriceForSelling()": "bd098404",
    "getVirtualCollateralSupply()": "bf75292b",
    "getVirtualIssuanceSupply()": "d1c6022f",
    "grantModuleRole(bytes32,address)": "6c67e807",
    "grantModuleRoleBatched(bytes32,address[])": "272bbd44",
    "identifier()": "7998a1c4",
    "init(address,(uint256,uint256,string,string),bytes)": "42dfe958",
    "isTrustedForwarder(address)": "572b6c05",
    "mintIssuanceTokenTo(address,uint256)": "ecd31b55",
    "openBuy()": "d4a67930",
    "openSell()": "f1eae64a",
    "orchestrator()": "b74795d9",
    "projectCollateralFeeCollected()": "cbda8f82",
    "revokeModuleRole(bytes32,address)": "bcb61920",
    "revokeModuleRoleBatched(bytes32,address[])": "24e30270",
    "sell(uint256,uint256)": "d79875eb",
    "sellFee()": "2b14ca56",
    "sellFor(address,uint256,uint256)": "5f6108ff",
    "sellIsOpen()": "9093b01f",
    "setBuyFee(uint256)": "0cc835a3",
    "setReserveRatioForBuying(uint32)": "8ac631e6",
    "setReserveRatioForSelling(uint32)": "b88a2cf6",
    "setSellFee(uint256)": "8b4cee08",
    "setVirtualCollateralSupply(uint256)": "6e423379",
    "setVirtualIssuanceSupply(uint256)": "51cac5de",
    "supportsInterface(bytes4)": "01ffc9a7",
    "title()": "4a79d50c",
    "token()": "fc0c546a",
    "transferOrchestratorToken(address,uint256)": "759cc4b5",
    "trustedForwarder()": "7da0a877",
    "url()": "5600f04f",
    "version()": "54fd4d50",
    "withdrawProjectCollateralFee(address,uint256)": "4f893bba"
  },
  "id": 119
}