{
  "abi": [
    {
      "type": "function",
      "name": "buy",
      "inputs": [
        {
          "name": "_depositAmount",
          "type": "uint256",
          "internalType": "uint256"
        },
        {
          "name": "_minAmountOut",
          "type": "uint256",
          "internalType": "uint256"
        }
      ],
      "outputs": [],
      "stateMutability": "nonpayable"
    },
    {
      "type": "function",
      "name": "buyFee",
      "inputs": [],
      "outputs": [
        {
          "name": "",
          "type": "uint256",
          "internalType": "uint256"
        }
      ],
      "stateMutability": "view"
    },
    {
      "type": "function",
      "name": "buyFor",
      "inputs": [
        {
          "name": "_receiver",
          "type": "address",
          "internalType": "address"
        },
        {
          "name": "_depositAmount",
          "type": "uint256",
          "internalType": "uint256"
        },
        {
          "name": "_minAmountOut",
          "type": "uint256",
          "internalType": "uint256"
        }
      ],
      "outputs": [],
      "stateMutability": "nonpayable"
    },
    {
      "type": "function",
      "name": "buyIsOpen",
      "inputs": [],
      "outputs": [
        {
          "name": "",
          "type": "bool",
          "internalType": "bool"
        }
      ],
      "stateMutability": "view"
    },
    {
      "type": "function",
      "name": "calculatePurchaseReturn",
      "inputs": [
        {
          "name": "_depositAmount",
          "type": "uint256",
          "internalType": "uint256"
        }
      ],
      "outputs": [
        {
          "name": "mintAmount",
          "type": "uint256",
          "internalType": "uint256"
        }
      ],
      "stateMutability": "nonpayable"
    },
    {
      "type": "function",
      "name": "calculateSaleReturn",
      "inputs": [
        {
          "name": "_depositAmount",
          "type": "uint256",
          "internalType": "uint256"
        }
      ],
      "outputs": [
        {
          "name": "redeemAmount",
          "type": "uint256",
          "internalType": "uint256"
        }
      ],
      "stateMutability": "nonpayable"
    },
    {
      "type": "function",
      "name": "closeBuy",
      "inputs": [],
      "outputs": [],
      "stateMutability": "nonpayable"
    },
    {
      "type": "function",
      "name": "closeSell",
      "inputs": [],
      "outputs": [],
      "stateMutability": "nonpayable"
    },
    {
      "type": "function",
      "name": "formula",
      "inputs": [],
      "outputs": [
        {
          "name": "",
          "type": "address",
          "internalType": "contract IBancorFormula"
        }
      ],
      "stateMutability": "view"
    },
    {
      "type": "function",
      "name": "getIssuanceToken",
      "inputs": [],
      "outputs": [
        {
          "name": "",
          "type": "address",
          "internalType": "address"
        }
      ],
      "stateMutability": "view"
    },
    {
      "type": "function",
      "name": "getReserveRatioForBuying",
      "inputs": [],
      "outputs": [
        {
          "name": "",
          "type": "uint32",
          "internalType": "uint32"
        }
      ],
      "stateMutability": "view"
    },
    {
      "type": "function",
      "name": "getReserveRatioForSelling",
      "inputs": [],
      "outputs": [
        {
          "name": "",
          "type": "uint32",
          "internalType": "uint32"
        }
      ],
      "stateMutability": "view"
    },
    {
      "type": "function",
      "name": "getStaticPriceForBuying",
      "inputs": [],
      "outputs": [
        {
          "name": "",
          "type": "uint256",
          "internalType": "uint256"
        }
      ],
      "stateMutability": "view"
    },
    {
      "type": "function",
      "name": "getStaticPriceForSelling",
      "inputs": [],
      "outputs": [
        {
          "name": "",
          "type": "uint256",
          "internalType": "uint256"
        }
      ],
      "stateMutability": "view"
    },
    {
      "type": "function",
      "name": "getVirtualCollateralSupply",
      "inputs": [],
      "outputs": [
        {
          "name": "",
          "type": "uint256",
          "internalType": "uint256"
        }
      ],
      "stateMutability": "view"
    },
    {
      "type": "function",
      "name": "getVirtualIssuanceSupply",
      "inputs": [],
      "outputs": [
        {
          "name": "",
          "type": "uint256",
          "internalType": "uint256"
        }
      ],
      "stateMutability": "view"
    },
    {
      "type": "function",
      "name": "grantModuleRole",
      "inputs": [
        {
          "name": "role",
          "type": "bytes32",
          "internalType": "bytes32"
        },
        {
          "name": "target",
          "type": "address",
          "internalType": "address"
        }
      ],
      "outputs": [],
      "stateMutability": "nonpayable"
    },
    {
      "type": "function",
      "name": "grantModuleRoleBatched",
      "inputs": [
        {
          "name": "role",
          "type": "bytes32",
          "internalType": "bytes32"
        },
        {
          "name": "targets",
          "type": "address[]",
          "internalType": "address[]"
        }
      ],
      "outputs": [],
      "stateMutability": "nonpayable"
    },
    {
      "type": "function",
      "name": "identifier",
      "inputs": [],
      "outputs": [
        {
          "name": "",
          "type": "bytes32",
          "internalType": "bytes32"
        }
      ],
      "stateMutability": "view"
    },
    {
      "type": "function",
      "name": "init",
      "inputs": [
        {
          "name": "orchestrator_",
          "type": "address",
          "internalType": "contract IOrchestrator_v1"
        },
        {
          "name": "metadata",
          "type": "tuple",
          "internalType": "struct IModule_v1.Metadata",
          "components": [
            {
              "name": "majorVersion",
              "type": "uint256",
              "internalType": "uint256"
            },
            {
              "name": "minorVersion",
              "type": "uint256",
              "internalType": "uint256"
            },
            {
              "name": "url",
              "type": "string",
              "internalType": "string"
            },
            {
              "name": "title",
              "type": "string",
              "internalType": "string"
            }
          ]
        },
        {
          "name": "configData",
          "type": "bytes",
          "internalType": "bytes"
        }
      ],
      "outputs": [],
      "stateMutability": "nonpayable"
    },
    {
      "type": "function",
      "name": "isTrustedForwarder",
      "inputs": [
        {
          "name": "forwarder",
          "type": "address",
          "internalType": "address"
        }
      ],
      "outputs": [
        {
          "name": "",
          "type": "bool",
          "internalType": "bool"
        }
      ],
      "stateMutability": "view"
    },
    {
      "type": "function",
      "name": "mintIssuanceTokenTo",
      "inputs": [
        {
          "name": "_receiver",
          "type": "address",
          "internalType": "address"
        },
        {
          "name": "_amount",
          "type": "uint256",
          "internalType": "uint256"
        }
      ],
      "outputs": [],
      "stateMutability": "nonpayable"
    },
    {
      "type": "function",
      "name": "openBuy",
      "inputs": [],
      "outputs": [],
      "stateMutability": "nonpayable"
    },
    {
      "type": "function",
      "name": "openSell",
      "inputs": [],
      "outputs": [],
      "stateMutability": "nonpayable"
    },
    {
      "type": "function",
      "name": "orchestrator",
      "inputs": [],
      "outputs": [
        {
          "name": "",
          "type": "address",
          "internalType": "contract IOrchestrator_v1"
        }
      ],
      "stateMutability": "view"
    },
    {
      "type": "function",
      "name": "projectCollateralFeeCollected",
      "inputs": [],
      "outputs": [
        {
          "name": "",
          "type": "uint256",
          "internalType": "uint256"
        }
      ],
      "stateMutability": "view"
    },
    {
      "type": "function",
      "name": "revokeModuleRole",
      "inputs": [
        {
          "name": "role",
          "type": "bytes32",
          "internalType": "bytes32"
        },
        {
          "name": "target",
          "type": "address",
          "internalType": "address"
        }
      ],
      "outputs": [],
      "stateMutability": "nonpayable"
    },
    {
      "type": "function",
      "name": "revokeModuleRoleBatched",
      "inputs": [
        {
          "name": "role",
          "type": "bytes32",
          "internalType": "bytes32"
        },
        {
          "name": "targets",
          "type": "address[]",
          "internalType": "address[]"
        }
      ],
      "outputs": [],
      "stateMutability": "nonpayable"
    },
    {
      "type": "function",
      "name": "sell",
      "inputs": [
        {
          "name": "_depositAmount",
          "type": "uint256",
          "internalType": "uint256"
        },
        {
          "name": "_minAmountOut",
          "type": "uint256",
          "internalType": "uint256"
        }
      ],
      "outputs": [],
      "stateMutability": "nonpayable"
    },
    {
      "type": "function",
      "name": "sellFee",
      "inputs": [],
      "outputs": [
        {
          "name": "",
          "type": "uint256",
          "internalType": "uint256"
        }
      ],
      "stateMutability": "view"
    },
    {
      "type": "function",
      "name": "sellFor",
      "inputs": [
        {
          "name": "_receiver",
          "type": "address",
          "internalType": "address"
        },
        {
          "name": "_depositAmount",
          "type": "uint256",
          "internalType": "uint256"
        },
        {
          "name": "_minAmountOut",
          "type": "uint256",
          "internalType": "uint256"
        }
      ],
      "outputs": [],
      "stateMutability": "nonpayable"
    },
    {
      "type": "function",
      "name": "sellIsOpen",
      "inputs": [],
      "outputs": [
        {
          "name": "",
          "type": "bool",
          "internalType": "bool"
        }
      ],
      "stateMutability": "view"
    },
    {
      "type": "function",
      "name": "setBuyFee",
      "inputs": [
        {
          "name": "_fee",
          "type": "uint256",
          "internalType": "uint256"
        }
      ],
      "outputs": [],
      "stateMutability": "nonpayable"
    },
    {
      "type": "function",
      "name": "setReserveRatioForBuying",
      "inputs": [
        {
          "name": "_reserveRatio",
          "type": "uint32",
          "internalType": "uint32"
        }
      ],
      "outputs": [],
      "stateMutability": "nonpayable"
    },
    {
      "type": "function",
      "name": "setReserveRatioForSelling",
      "inputs": [
        {
          "name": "_reserveRatio",
          "type": "uint32",
          "internalType": "uint32"
        }
      ],
      "outputs": [],
      "stateMutability": "nonpayable"
    },
    {
      "type": "function",
      "name": "setSellFee",
      "inputs": [
        {
          "name": "_fee",
          "type": "uint256",
          "internalType": "uint256"
        }
      ],
      "outputs": [],
      "stateMutability": "nonpayable"
    },
    {
      "type": "function",
      "name": "setVirtualCollateralSupply",
      "inputs": [
        {
          "name": "_virtualSupply",
          "type": "uint256",
          "internalType": "uint256"
        }
      ],
      "outputs": [],
      "stateMutability": "nonpayable"
    },
    {
      "type": "function",
      "name": "setVirtualIssuanceSupply",
      "inputs": [
        {
          "name": "_virtualSupply",
          "type": "uint256",
          "internalType": "uint256"
        }
      ],
      "outputs": [],
      "stateMutability": "nonpayable"
    },
    {
      "type": "function",
      "name": "supportsInterface",
      "inputs": [
        {
          "name": "interfaceId",
          "type": "bytes4",
          "internalType": "bytes4"
        }
      ],
      "outputs": [
        {
          "name": "",
          "type": "bool",
          "internalType": "bool"
        }
      ],
      "stateMutability": "view"
    },
    {
      "type": "function",
      "name": "title",
      "inputs": [],
      "outputs": [
        {
          "name": "",
          "type": "string",
          "internalType": "string"
        }
      ],
      "stateMutability": "view"
    },
    {
      "type": "function",
      "name": "token",
      "inputs": [],
      "outputs": [
        {
          "name": "",
          "type": "address",
          "internalType": "contract IERC20"
        }
      ],
      "stateMutability": "view"
    },
    {
      "type": "function",
      "name": "transferOrchestratorToken",
      "inputs": [
        {
          "name": "to",
          "type": "address",
          "internalType": "address"
        },
        {
          "name": "amount",
          "type": "uint256",
          "internalType": "uint256"
        }
      ],
      "outputs": [],
      "stateMutability": "nonpayable"
    },
    {
      "type": "function",
      "name": "trustedForwarder",
      "inputs": [],
      "outputs": [
        {
          "name": "",
          "type": "address",
          "internalType": "address"
        }
      ],
      "stateMutability": "view"
    },
    {
      "type": "function",
      "name": "url",
      "inputs": [],
      "outputs": [
        {
          "name": "",
          "type": "string",
          "internalType": "string"
        }
      ],
      "stateMutability": "view"
    },
    {
      "type": "function",
      "name": "version",
      "inputs": [],
      "outputs": [
        {
          "name": "",
          "type": "uint256",
          "internalType": "uint256"
        },
        {
          "name": "",
          "type": "uint256",
          "internalType": "uint256"
        }
      ],
      "stateMutability": "view"
    },
    {
      "type": "function",
      "name": "withdrawProjectCollateralFee",
      "inputs": [
        {
          "name": "_receiver",
          "type": "address",
          "internalType": "address"
        },
        {
          "name": "_amount",
          "type": "uint256",
          "internalType": "uint256"
        }
      ],
      "outputs": [],
      "stateMutability": "nonpayable"
    },
    {
      "type": "event",
      "name": "BuyFeeUpdated",
      "inputs": [
        {
          "name": "newBuyFee",
          "type": "uint256",
          "indexed": true,
          "internalType": "uint256"
        },
        {
          "name": "oldBuyFee",
          "type": "uint256",
          "indexed": true,
          "internalType": "uint256"
        }
      ],
      "anonymous": false
    },
    {
      "type": "event",
      "name": "BuyReserveRatioSet",
      "inputs": [
        {
          "name": "newBuyReserveRatio",
          "type": "uint32",
          "indexed": true,
          "internalType": "uint32"
        },
        {
          "name": "oldBuyReserveRatio",
          "type": "uint32",
          "indexed": true,
          "internalType": "uint32"
        }
      ],
      "anonymous": false
    },
    {
      "type": "event",
      "name": "BuyingDisabled",
      "inputs": [],
      "anonymous": false
    },
    {
      "type": "event",
      "name": "BuyingEnabled",
      "inputs": [],
      "anonymous": false
    },
    {
      "type": "event",
      "name": "Deposit",
      "inputs": [
        {
          "name": "_from",
          "type": "address",
          "indexed": true,
          "internalType": "address"
        },
        {
          "name": "_for",
          "type": "address",
          "indexed": true,
          "internalType": "address"
        },
        {
          "name": "_amount",
          "type": "uint256",
          "indexed": true,
          "internalType": "uint256"
        }
      ],
      "anonymous": false
    },
    {
      "type": "event",
      "name": "Initialized",
      "inputs": [
        {
          "name": "version",
          "type": "uint64",
          "indexed": false,
          "internalType": "uint64"
        }
      ],
      "anonymous": false
    },
    {
      "type": "event",
      "name": "IssuanceTokenUpdated",
      "inputs": [
        {
          "name": "oldToken",
          "type": "address",
          "indexed": true,
          "internalType": "address"
        },
        {
          "name": "issuanceToken",
          "type": "address",
          "indexed": true,
          "internalType": "address"
        }
      ],
      "anonymous": false
    },
    {
      "type": "event",
      "name": "ModuleInitialized",
      "inputs": [
        {
          "name": "parentOrchestrator",
          "type": "address",
          "indexed": true,
          "internalType": "address"
        },
        {
          "name": "moduleTitle",
          "type": "string",
          "indexed": true,
          "internalType": "string"
        },
        {
          "name": "majorVersion",
          "type": "uint256",
          "indexed": false,
          "internalType": "uint256"
        },
        {
          "name": "minorVersion",
          "type": "uint256",
          "indexed": false,
          "internalType": "uint256"
        }
      ],
      "anonymous": false
    },
    {
      "type": "event",
      "name": "ProjectCollateralFeeWithdrawn",
      "inputs": [
        {
          "name": "receiver",
          "type": "address",
          "indexed": false,
          "internalType": "address"
        },
        {
          "name": "amount",
          "type": "uint256",
          "indexed": false,
          "internalType": "uint256"
        }
      ],
      "anonymous": false
    },
    {
      "type": "event",
      "name": "ProtocolFeeMinted",
      "inputs": [
        {
          "name": "token",
          "type": "address",
          "indexed": true,
          "internalType": "address"
        },
        {
          "name": "treasury",
          "type": "address",
          "indexed": true,
          "internalType": "address"
        },
        {
          "name": "feeAmount",
          "type": "uint256",
          "indexed": true,
          "internalType": "uint256"
        }
      ],
      "anonymous": false
    },
    {
      "type": "event",
      "name": "ProtocolFeeTransferred",
      "inputs": [
        {
          "name": "token",
          "type": "address",
          "indexed": true,
          "internalType": "address"
        },
        {
          "name": "treasury",
          "type": "address",
          "indexed": true,
          "internalType": "address"
        },
        {
          "name": "feeAmount",
          "type": "uint256",
          "indexed": true,
          "internalType": "uint256"
        }
      ],
      "anonymous": false
    },
    {
      "type": "event",
      "name": "SellFeeUpdated",
      "inputs": [
        {
          "name": "newSellFee",
          "type": "uint256",
          "indexed": true,
          "internalType": "uint256"
        },
        {
          "name": "oldSellFee",
          "type": "uint256",
          "indexed": true,
          "internalType": "uint256"
        }
      ],
      "anonymous": false
    },
    {
      "type": "event",
      "name": "SellReserveRatioSet",
      "inputs": [
        {
          "name": "newSellReserveRatio",
          "type": "uint32",
          "indexed": true,
          "internalType": "uint32"
        },
        {
          "name": "oldSellReserveRatio",
          "type": "uint32",
          "indexed": true,
          "internalType": "uint32"
        }
      ],
      "anonymous": false
    },
    {
      "type": "event",
      "name": "SellingDisabled",
      "inputs": [],
      "anonymous": false
    },
    {
      "type": "event",
      "name": "SellingEnabled",
      "inputs": [],
      "anonymous": false
    },
    {
      "type": "event",
      "name": "TokenDecimalsUpdated",
      "inputs": [
        {
          "name": "oldDecimals",
          "type": "uint8",
          "indexed": true,
          "internalType": "uint8"
        },
        {
          "name": "newDecimals",
          "type": "uint8",
          "indexed": true,
          "internalType": "uint8"
        }
      ],
      "anonymous": false
    },
    {
      "type": "event",
      "name": "TokensBought",
      "inputs": [
        {
          "name": "receiver",
          "type": "address",
          "indexed": true,
          "internalType": "address"
        },
        {
          "name": "depositAmount",
          "type": "uint256",
          "indexed": true,
          "internalType": "uint256"
        },
        {
          "name": "receivedAmount",
          "type": "uint256",
          "indexed": true,
          "internalType": "uint256"
        },
        {
          "name": "buyer",
          "type": "address",
          "indexed": false,
          "internalType": "address"
        }
      ],
      "anonymous": false
    },
    {
      "type": "event",
      "name": "TokensSold",
      "inputs": [
        {
          "name": "receiver",
          "type": "address",
          "indexed": true,
          "internalType": "address"
        },
        {
          "name": "depositAmount",
          "type": "uint256",
          "indexed": true,
          "internalType": "uint256"
        },
        {
          "name": "receivedAmount",
          "type": "uint256",
          "indexed": true,
          "internalType": "uint256"
        },
        {
          "name": "seller",
          "type": "address",
          "indexed": false,
          "internalType": "address"
        }
      ],
      "anonymous": false
    },
    {
      "type": "event",
      "name": "TransferOrchestratorToken",
      "inputs": [
        {
          "name": "_to",
          "type": "address",
          "indexed": true,
          "internalType": "address"
        },
        {
          "name": "_amount",
          "type": "uint256",
          "indexed": true,
          "internalType": "uint256"
        }
      ],
      "anonymous": false
    },
    {
      "type": "event",
      "name": "VirtualCollateralAmountAdded",
      "inputs": [
        {
          "name": "amountAdded",
          "type": "uint256",
          "indexed": true,
          "internalType": "uint256"
        },
        {
          "name": "newSupply",
          "type": "uint256",
          "indexed": true,
          "internalType": "uint256"
        }
      ],
      "anonymous": false
    },
    {
      "type": "event",
      "name": "VirtualCollateralAmountSubtracted",
      "inputs": [
        {
          "name": "amountSubtracted",
          "type": "uint256",
          "indexed": true,
          "internalType": "uint256"
        },
        {
          "name": "newSupply",
          "type": "uint256",
          "indexed": true,
          "internalType": "uint256"
        }
      ],
      "anonymous": false
    },
    {
      "type": "event",
      "name": "VirtualCollateralSupplySet",
      "inputs": [
        {
          "name": "newSupply",
          "type": "uint256",
          "indexed": true,
          "internalType": "uint256"
        },
        {
          "name": "oldSupply",
          "type": "uint256",
          "indexed": true,
          "internalType": "uint256"
        }
      ],
      "anonymous": false
    },
    {
      "type": "event",
      "name": "VirtualIssuanceAmountAdded",
      "inputs": [
        {
          "name": "amountAdded",
          "type": "uint256",
          "indexed": true,
          "internalType": "uint256"
        },
        {
          "name": "newSupply",
          "type": "uint256",
          "indexed": true,
          "internalType": "uint256"
        }
      ],
      "anonymous": false
    },
    {
      "type": "event",
      "name": "VirtualIssuanceAmountSubtracted",
      "inputs": [
        {
          "name": "amountSubtracted",
          "type": "uint256",
          "indexed": true,
          "internalType": "uint256"
        },
        {
          "name": "newSupply",
          "type": "uint256",
          "indexed": true,
          "internalType": "uint256"
        }
      ],
      "anonymous": false
    },
    {
      "type": "event",
      "name": "VirtualIssuanceSupplySet",
      "inputs": [
        {
          "name": "newSupply",
          "type": "uint256",
          "indexed": true,
          "internalType": "uint256"
        },
        {
          "name": "oldSupply",
          "type": "uint256",
          "indexed": true,
          "internalType": "uint256"
        }
      ],
      "anonymous": false
    },
    {
      "type": "event",
      "name": "Withdrawal",
      "inputs": [
        {
          "name": "_from",
          "type": "address",
          "indexed": true,
          "internalType": "address"
        },
        {
          "name": "_for",
          "type": "address",
          "indexed": true,
          "internalType": "address"
        },
        {
          "name": "_amount",
          "type": "uint256",
          "indexed": true,
          "internalType": "uint256"
        }
      ],
      "anonymous": false
    },
    {
      "type": "error",
      "name": "AddressEmptyCode",
      "inputs": [
        {
          "name": "target",
          "type": "address",
          "internalType": "address"
        }
      ]
    },
    {
      "type": "error",
      "name": "AddressInsufficientBalance",
      "inputs": [
        {
          "name": "account",
          "type": "address",
          "internalType": "address"
        }
      ]
    },
    {
      "type": "error",
      "name": "FailedInnerCall",
      "inputs": []
    },
    {
      "type": "error",
      "name": "InvalidInitialization",
      "inputs": []
    },
    {
      "type": "error",
      "name": "Module_OrchestratorCallbackFailed",
      "inputs": [
        {
          "name": "funcSig",
          "type": "string",
          "internalType": "string"
        }
      ]
    },
    {
      "type": "error",
      "name": "Module__BondingCurveBase__BuyingFunctionaltiesClosed",
      "inputs": []
    },
    {
      "type": "error",
      "name": "Module__BondingCurveBase__FeeAmountToHigh",
      "inputs": []
    },
    {
      "type": "error",
      "name": "Module__BondingCurveBase__InsufficientOutputAmount",
      "inputs": []
    },
    {
      "type": "error",
      "name": "Module__BondingCurveBase__InvalidDepositAmount",
      "inputs": []
    },
    {
      "type": "error",
      "name": "Module__BondingCurveBase__InvalidFeePercentage",
      "inputs": []
    },
    {
      "type": "error",
      "name": "Module__BondingCurveBase__InvalidRecipient",
      "inputs": []
    },
    {
      "type": "error",
      "name": "Module__BondingCurveBase__InvalidWithdrawAmount",
      "inputs": []
    },
    {
      "type": "error",
      "name": "Module__CallerNotAuthorized",
      "inputs": [
        {
          "name": "role",
          "type": "bytes32",
          "internalType": "bytes32"
        },
        {
          "name": "caller",
          "type": "address",
          "internalType": "address"
        }
      ]
    },
    {
      "type": "error",
      "name": "Module__FM_BC_Bancor_Redeeming_VirtualSupply__InvalidDepositAmount",
      "inputs": []
    },
    {
      "type": "error",
      "name": "Module__FM_BC_Bancor_Redeeming_VirtualSupply__InvalidReserveRatio",
      "inputs": []
    },
    {
      "type": "error",
      "name": "Module__FM_BC_Bancor_Redeeming_VirtualSupply__InvalidTokenDecimal",
      "inputs": []
    },
    {
      "type": "error",
      "name": "Module__FundingManager__CannotSelfDeposit",
      "inputs": []
    },
    {
      "type": "error",
      "name": "Module__FundingManager__DepositCapReached",
      "inputs": []
    },
    {
      "type": "error",
      "name": "Module__FundingManager__InvalidAddress",
      "inputs": []
    },
    {
      "type": "error",
      "name": "Module__InvalidMetadata",
      "inputs": []
    },
    {
      "type": "error",
      "name": "Module__InvalidOrchestratorAddress",
      "inputs": []
    },
    {
      "type": "error",
      "name": "Module__OnlyCallableByOrchestrator",
      "inputs": []
    },
    {
      "type": "error",
      "name": "Module__RedeemingBondingCurveBase__InsufficientCollateralForRedemption",
      "inputs": []
    },
    {
      "type": "error",
      "name": "Module__RedeemingBondingCurveBase__SellingFunctionaltiesClosed",
      "inputs": []
    },
    {
      "type": "error",
      "name": "Module__VirtualCollateralSupplyBase__AddResultsInOverflow",
      "inputs": []
    },
    {
      "type": "error",
      "name": "Module__VirtualCollateralSupplyBase__SubtractResultsInUnderflow",
      "inputs": []
    },
    {
      "type": "error",
      "name": "Module__VirtualCollateralSupplyBase__VirtualSupplyCannotBeZero",
      "inputs": []
    },
    {
      "type": "error",
      "name": "Module__VirtualIssuanceSupplyBase__AddResultsInOverflow",
      "inputs": []
    },
    {
      "type": "error",
      "name": "Module__VirtualIssuanceSupplyBase__SubtractResultsInUnderflow",
      "inputs": []
    },
    {
      "type": "error",
      "name": "Module__VirtualIssuanceSupplyBase__VirtualSupplyCannotBeZero",
      "inputs": []
    },
    {
      "type": "error",
      "name": "NotInitializing",
      "inputs": []
    },
    {
      "type": "error",
      "name": "SafeERC20FailedOperation",
      "inputs": [
        {
          "name": "token",
          "type": "address",
          "internalType": "address"
        }
      ]
    }
  ],
  "bytecode": {
    "object": "0x60a06040523480156200001157600080fd5b5060006080526200002162000027565b620000db565b7ff0c57e16840df040f15088dc2f81fe391c3923bec73e23a9662efc9c229c6a00805468010000000000000000900460ff1615620000785760405163f92ee8a960e01b815260040160405180910390fd5b80546001600160401b0390811614620000d85780546001600160401b0319166001600160401b0390811782556040519081527fc7f505b2f371ae2175ee4913f4499e1f2633a7b5936321eed1cdaeb6115181d29060200160405180910390a15b50565b608051615c26620000f460003960005050615c266000f3fe60806040523480156200001157600080fd5b5060043610620003495760003560e01c80637da0a87711620001bd578063bf75292b1162000101578063d6febde811620000a3578063f1eae64a116200007a578063f1eae64a14620006c5578063fa03330c14620006cf578063fc0c546a14620006d957600080fd5b8063d6febde81462000680578063d79875eb1462000697578063ecd31b5514620006ae57600080fd5b8063cbda8f8211620000d8578063cbda8f821462000663578063d1c6022f146200066d578063d4a67930146200067657600080fd5b8063bf75292b146200063b578063c6829ba21462000644578063c6ab5cdc146200065957600080fd5b8063a8a539d9116200016b578063ba83c9701162000142578063ba83c9701462000610578063bcb61920146200061a578063bd098404146200063157600080fd5b8063a8a539d914620005d1578063b74795d914620005e7578063b88a2cf614620005f957600080fd5b80638b4cee0811620001a05780638b4cee0814620005955780639093b01f14620005ac578063935b7dbd14620005ba57600080fd5b80637da0a87714620005745780638ac631e6146200057e57600080fd5b80634f893bba11620002915780636115db1c11620002335780636e423379116200020a5780636e423379146200053c578063759cc4b514620005535780637998a1c4146200056a57600080fd5b80636115db1c14620004e757806369fcd4ac146200050e5780636c67e807146200052557600080fd5b80635600f04f11620002685780635600f04f14620004af578063572b6c0514620004b95780635f6108ff14620004d057600080fd5b80634f893bba146200046557806351cac5de146200047c57806354fd4d50146200049357600080fd5b80632b14ca5611620002fb5780634706240211620002d257806347062402146200042e5780634a79d50c14620004385780634b75f54f146200045157600080fd5b80632b14ca5614620003e7578063322d2100146200040057806342dfe958146200041757600080fd5b80631ca3bc4f11620003305780631ca3bc4f146200039357806324e3027014620003b9578063272bbd4414620003d057600080fd5b806301ffc9a7146200034e5780630cc835a3146200037a575b600080fd5b620003656200035f36600462003f55565b620006eb565b60405190151581526020015b60405180910390f35b620003916200038b36600462003f81565b62000767565b005b6007546001600160a01b03165b6040516001600160a01b03909116815260200162000371565b62000391620003ca36600462003f9b565b6200085c565b62000391620003e136600462003f9b565b6200098d565b620003f1600b5481565b60405190815260200162000371565b620003f16200041136600462003f81565b62000a85565b620003916200042836600462004159565b62000b33565b620003f160085481565b6200044262000f1e565b60405162000371919062004299565b600c54620003a0906001600160a01b031681565b6200039162000476366004620042ae565b62000fba565b620003916200048d36600462003f81565b620011a7565b6003546004546040805192835260208301919091520162000371565b62000442620011ff565b62000365620004ca366004620042dd565b62001213565b62000391620004e1366004620042fd565b6200129e565b600c54600160c01b900463ffffffff165b60405163ffffffff909116815260200162000371565b620003f16200051f36600462003f81565b620012f2565b620003916200053636600462004335565b62001398565b620003916200054d36600462003f81565b620014db565b6200039162000564366004620042ae565b62001533565b620003f1620015d1565b620003a062001733565b620003916200058f3660046200437b565b620017bd565b62000391620005a636600462003f81565b62001815565b600a54620003659060ff1681565b62000391620005cb366004620042fd565b6200186d565b600c54600160a01b900463ffffffff16620004f8565b6002546001600160a01b0316620003a0565b620003916200060a3660046200437b565b620018b8565b6200039162001910565b620003916200062b36600462004335565b62001992565b620003f162001aaa565b600154620003f1565b6007546200036590600160a01b900460ff1681565b6200039162001afe565b620003f160095481565b600054620003f1565b6200039162001b83565b62000391620006913660046200439b565b62001c0e565b62000391620006a83660046200439b565b62001c32565b62000391620006bf366004620042ae565b62001c52565b6200039162001cbc565b620003f162001d41565b600d546001600160a01b0316620003a0565b60006001600160e01b031982167f172fe4800000000000000000000000000000000000000000000000000000000014806200074f57506001600160e01b031982167f899090df00000000000000000000000000000000000000000000000000000000145b80620007615750620007618262001d6b565b92915050565b6002546040805163d09edf3160e01b815290516200084e926001600160a01b03169163d09edf319160048083019260209291908290030181865afa158015620007b4573d6000803e3d6000fd5b505050506040513d601f19601f82011682018060405250810190620007da9190620043be565b6001600160a01b03166355ff58d46040518163ffffffff1660e01b8152600401602060405180830381865afa15801562000818573d6000803e3d6000fd5b505050506040513d601f19601f820116820180604052508101906200083e9190620043de565b6200084862001dac565b62001e08565b620008598162001f5f565b50565b6002546040805163d09edf3160e01b81529051620008a9926001600160a01b03169163d09edf319160048083019260209291908290030181865afa158015620007b4573d6000803e3d6000fd5b600260009054906101000a90046001600160a01b03166001600160a01b031663d09edf316040518163ffffffff1660e01b8152600401602060405180830381865afa158015620008fd573d6000803e3d6000fd5b505050506040513d601f19601f82011682018060405250810190620009239190620043be565b6001600160a01b0316637d540a648484846040518463ffffffff1660e01b81526004016200095493929190620043f8565b600060405180830381600087803b1580156200096f57600080fd5b505af115801562000984573d6000803e3d6000fd5b50505050505050565b6002546040805163d09edf3160e01b81529051620009da926001600160a01b03169163d09edf319160048083019260209291908290030181865afa158015620007b4573d6000803e3d6000fd5b600260009054906101000a90046001600160a01b03166001600160a01b031663d09edf316040518163ffffffff1660e01b8152600401602060405180830381865afa15801562000a2e573d6000803e3d6000fd5b505050506040513d601f19601f8201168201806040525081019062000a549190620043be565b6001600160a01b031663648154538484846040518463ffffffff1660e01b81526004016200095493929190620043f8565b600062000a928262001f9d565b60408051808201909152601e81527f5f6275794f7264657228616464726573732c2075696e742c2075696e7429000060209091015260008062000af57febc8b0204dadb4d6005a49547cbbe02c8e0cb088aaed83b705285a22a0c2e5f262001fd8565b93509350505062000b0a848360085462002005565b5090945062000b28905062000b1f85620020af565b82600062002005565b509095945050505050565b7ff0c57e16840df040f15088dc2f81fe391c3923bec73e23a9662efc9c229c6a00805468010000000000000000810460ff16159067ffffffffffffffff1660008115801562000b7f5750825b905060008267ffffffffffffffff16600114801562000b9d5750303b155b90508115801562000bac575080155b1562000be4576040517ff92ee8a900000000000000000000000000000000000000000000000000000000815260040160405180910390fd5b84547fffffffffffffffffffffffffffffffffffffffffffffffff0000000000000000166001178555831562000c3057845468ff00000000000000001916680100000000000000001785555b62000c3c8888620021e2565b62000c6b60405180608001604052806060815260200160608152602001600060ff168152602001600081525090565b6040805161012081018252600080825260208201819052918101829052606081018290526080810182905260a0810182905260c0810182905260e08101829052610100810182905260008980602001905181019062000ccb919062004593565b8094508195508296508397505050505060008460000151856020015186604001518760600151873060405162000d019062003f47565b62000d129695949392919062004689565b604051809103906000f08015801562000d2f573d6000803e3d6000fd5b50905062000d3d816200233e565b600d805473ffffffffffffffffffffffffffffffffffffffff19166001600160a01b038416908117909155604080517f313ce567000000000000000000000000000000000000000000000000000000008152905163313ce567916004808201926020929091908290030181865afa15801562000dbd573d6000803e3d6000fd5b505050506040513d601f19601f8201168201806040525081019062000de39190620046e4565b600d805460ff60a01b1916600160a01b60ff93909316929092029190911790558251600c805473ffffffffffffffffffffffffffffffffffffffff19166001600160a01b0390921691909117905560e083015162000e41906200245a565b62000e51836101000151620024ca565b62000e60836020015162002538565b62000e6f8360400151620025c0565b62000e7e836060015162001f5f565b62000e8d836080015162002648565b505060a08101516007805460ff60a01b1916600160a01b9215159290920291909117905560c00151600a805460ff19169115159190911790555050831562000f1457845468ff000000000000000019168555604051600181527fc7f505b2f371ae2175ee4913f4499e1f2633a7b5936321eed1cdaeb6115181d29060200160405180910390a15b5050505050505050565b606060038001805462000f319062004702565b80601f016020809104026020016040519081016040528092919081815260200182805462000f5f9062004702565b801562000fb05780601f1062000f845761010080835404028352916020019162000fb0565b820191906000526020600020905b81548152906001019060200180831162000f9257829003601f168201915b5050505050905090565b8162000fc68162002686565b6002546040805163d09edf3160e01b8152905162001013926001600160a01b03169163d09edf319160048083019260209291908290030181865afa158015620007b4573d6000803e3d6000fd5b60095482111562001050576040517f47d1bcf500000000000000000000000000000000000000000000000000000000815260040160405180910390fd5b816009600082825462001064919062004754565b92505081905550620011608383600260009054906101000a90046001600160a01b03166001600160a01b03166304baed9e6040518163ffffffff1660e01b8152600401602060405180830381865afa158015620010c5573d6000803e3d6000fd5b505050506040513d601f19601f82011682018060405250810190620010eb9190620043be565b6001600160a01b031663fc0c546a6040518163ffffffff1660e01b8152600401602060405180830381865afa15801562001129573d6000803e3d6000fd5b505050506040513d601f19601f820116820180604052508101906200114f9190620043be565b6001600160a01b03169190620026dd565b604080516001600160a01b0385168152602081018490527f9e9a785b42ae3ce89ea11b526c656a7cacbd520b83908336dc8c9f4e9be9135f910160405180910390a1505050565b6002546040805163d09edf3160e01b81529051620011f4926001600160a01b03169163d09edf319160048083019260209291908290030181865afa158015620007b4573d6000803e3d6000fd5b62000859816200245a565b60606003600201805462000f319062004702565b6002546040517f572b6c050000000000000000000000000000000000000000000000000000000081526001600160a01b038381166004830152600092169063572b6c0590602401602060405180830381865afa15801562001278573d6000803e3d6000fd5b505050506040513d601f19601f820116820180604052508101906200076191906200476a565b82620012aa8162002686565b620012b462002753565b600080620012c486868662002792565b9092509050620012df620012d9828762004754565b62002d48565b620012ea8262002df9565b505050505050565b6000620012ff8262001f9d565b60408051808201909152601f81527f5f73656c6c4f7264657228616464726573732c2075696e742c2075696e742900602090910152600080620013627f668a32426dd1260f278045f1ae1311ac54a127636f6a4572712cffc11c002a1362001fd8565b935093505050620013768482600062002005565b509094506200138790508462002eab565b925062000b288383600b5462002005565b6002546040805163d09edf3160e01b81529051620013e5926001600160a01b03169163d09edf319160048083019260209291908290030181865afa158015620007b4573d6000803e3d6000fd5b600260009054906101000a90046001600160a01b03166001600160a01b031663d09edf316040518163ffffffff1660e01b8152600401602060405180830381865afa15801562001439573d6000803e3d6000fd5b505050506040513d601f19601f820116820180604052508101906200145f9190620043be565b6040517fe1788154000000000000000000000000000000000000000000000000000000008152600481018490526001600160a01b038381166024830152919091169063e1788154906044015b600060405180830381600087803b158015620014c657600080fd5b505af1158015620012ea573d6000803e3d6000fd5b6002546040805163d09edf3160e01b8152905162001528926001600160a01b03169163d09edf319160048083019260209291908290030181865afa158015620007b4573d6000803e3d6000fd5b6200085981620024ca565b6200153d62002fdd565b620015978282600260009054906101000a90046001600160a01b03166001600160a01b03166304baed9e6040518163ffffffff1660e01b8152600401602060405180830381865afa158015620010c5573d6000803e3d6000fd5b60405181906001600160a01b038416907fe88292c5f714100904272672c0420345093bd0e3c5555d31f3e4e2cf5f6ca8a190600090a35050565b604080516080810182526003805482526004546020830152600580546000946200172e94939290840191620016069062004702565b80601f0160208091040260200160405190810160405280929190818152602001828054620016349062004702565b8015620016855780601f10620016595761010080835404028352916020019162001685565b820191906000526020600020905b8154815290600101906020018083116200166757829003601f168201915b50505050508152602001600382018054620016a09062004702565b80601f0160208091040260200160405190810160405280929190818152602001828054620016ce9062004702565b80156200171f5780601f10620016f3576101008083540402835291602001916200171f565b820191906000526020600020905b8154815290600101906020018083116200170157829003601f168201915b50505050508152505062003034565b905090565b600254604080517f7da0a87700000000000000000000000000000000000000000000000000000000815290516000926001600160a01b031691637da0a8779160048083019260209291908290030181865afa15801562001797573d6000803e3d6000fd5b505050506040513d601f19601f820116820180604052508101906200172e9190620043be565b6002546040805163d09edf3160e01b815290516200180a926001600160a01b03169163d09edf319160048083019260209291908290030181865afa158015620007b4573d6000803e3d6000fd5b620008598162002538565b6002546040805163d09edf3160e01b8152905162001862926001600160a01b03169163d09edf319160048083019260209291908290030181865afa158015620007b4573d6000803e3d6000fd5b620008598162002648565b82620018798162002686565b6200188362003076565b60008062001893868686620030ba565b91509150620018a28262003418565b620012ea620018b2828762004754565b6200349a565b6002546040805163d09edf3160e01b8152905162001905926001600160a01b03169163d09edf319160048083019260209291908290030181865afa158015620007b4573d6000803e3d6000fd5b6200085981620025c0565b6002546040805163d09edf3160e01b815290516200195d926001600160a01b03169163d09edf319160048083019260209291908290030181865afa158015620007b4573d6000803e3d6000fd5b600a805460ff191690556040517fc34ae80cb7f967a799992108cfbc90770413d60555d5b0587a4c2c3e69c79ca490600090a1565b6002546040805163d09edf3160e01b81529051620019df926001600160a01b03169163d09edf319160048083019260209291908290030181865afa158015620007b4573d6000803e3d6000fd5b600260009054906101000a90046001600160a01b03166001600160a01b031663d09edf316040518163ffffffff1660e01b8152600401602060405180830381865afa15801562001a33573d6000803e3d6000fd5b505050506040513d601f19601f8201168201806040525081019062001a599190620043be565b6040517fba66f9fc000000000000000000000000000000000000000000000000000000008152600481018490526001600160a01b038381166024830152919091169063ba66f9fc90604401620014ab565b6000600c60189054906101000a900463ffffffff1663ffffffff1660005462001ad4919062004788565b60015462001ae6620f42408062004788565b62001af2919062004788565b6200172e9190620047a2565b6002546040805163d09edf3160e01b8152905162001b4b926001600160a01b03169163d09edf319160048083019260209291908290030181865afa158015620007b4573d6000803e3d6000fd5b6007805460ff60a01b191690556040517f44c1679cca34073ce70fed616f995237808d9599a35669fd39f3afd053e2b9b190600090a1565b6002546040805163d09edf3160e01b8152905162001bd0926001600160a01b03169163d09edf319160048083019260209291908290030181865afa158015620007b4573d6000803e3d6000fd5b6007805460ff60a01b1916600160a01b1790556040517fe404df37e2f7360b624914a082278de0f9e7da04a61eaab0a8d3d26b52bc0b1990600090a1565b62001c1862003076565b62001c2e62001c2662001dac565b83836200186d565b5050565b62001c3c62002753565b62001c2e62001c4a62001dac565b83836200129e565b6002546040805163d09edf3160e01b8152905162001c9f926001600160a01b03169163d09edf319160048083019260209291908290030181865afa158015620007b4573d6000803e3d6000fd5b8162001cab8162002686565b62001cb783836200351d565b505050565b6002546040805163d09edf3160e01b8152905162001d09926001600160a01b03169163d09edf319160048083019260209291908290030181865afa158015620007b4573d6000803e3d6000fd5b600a805460ff191660011790556040517f9d47627df4f01d3bff516199297ca647fe2ea0448c4f2925ef8c16d614a51a7c90600090a1565b6000600c60149054906101000a900463ffffffff1663ffffffff1660005462001ad4919062004788565b60006001600160e01b031982167f9c29ec8e000000000000000000000000000000000000000000000000000000001480620007615750620007618262003570565b600036601462001dbc3362001213565b801562001dc95750808210155b1562001e005760003662001dde838562004754565b62001deb928290620047c5565b62001df691620047f1565b60601c9250505090565b339250505090565b600260009054906101000a90046001600160a01b03166001600160a01b031663d09edf316040518163ffffffff1660e01b8152600401602060405180830381865afa15801562001e5c573d6000803e3d6000fd5b505050506040513d601f19601f8201168201806040525081019062001e829190620043be565b6040517f91d14854000000000000000000000000000000000000000000000000000000008152600481018490526001600160a01b03838116602483015291909116906391d1485490604401602060405180830381865afa15801562001eeb573d6000803e3d6000fd5b505050506040513d601f19601f8201168201806040525081019062001f1191906200476a565b62001c2e576040517f42abbb77000000000000000000000000000000000000000000000000000000008152600481018390526001600160a01b03821660248201526044015b60405180910390fd5b62001f6a81620035e6565b60085460405182907f28e297c7c282931a994191b735b01eaf17558295f761512a7047f4e1b8dc3b0b90600090a3600855565b8060000362000859576040517f3acffeae00000000000000000000000000000000000000000000000000000000815260040160405180910390fd5b60008060008062001fe98562003623565b9450915062001ff885620037ae565b9496949550919391925050565b600080806127106200201885876200483a565b111562002051576040517f09c10e9200000000000000000000000000000000000000000000000000000000815260040160405180910390fd5b61271062002060868862004788565b6200206c9190620047a2565b91506127106200207d858862004788565b620020899190620047a2565b90508062002098838862004754565b620020a4919062004754565b925093509350939050565b600c5460008054600d54919283926001600160a01b03909116916329a00e7c91620020f991907501000000000000000000000000000000000000000000900460ff166012620038f0565b600154600d54620021179190600160a01b900460ff166012620038f0565b600c54600d5463ffffffff600160a01b92839004169162002141918a9160ff9104166012620038f0565b6040516001600160e01b031960e087901b1681526004810194909452602484019290925263ffffffff1660448301526064820152608401602060405180830381865afa15801562002196573d6000803e3d6000fd5b505050506040513d601f19601f82011682018060405250810190620021bc9190620043de565b9050620021db816012600d60159054906101000a900460ff16620038f0565b9392505050565b620021ec62003972565b6001600160a01b0382166200222d576040517f7280679300000000000000000000000000000000000000000000000000000000815260040160405180910390fd5b6002805473ffffffffffffffffffffffffffffffffffffffff19166001600160a01b0384161790556200226081620039da565b62002297576040517f7511254100000000000000000000000000000000000000000000000000000000815260040160405180910390fd5b8051600390815560208201516004556040820151829190600590620022bd90826200489c565b5060608201516003820190620022d490826200489c565b5050506060810151604051620022eb919062004969565b604080519182900382208351602080860151918552840152916001600160a01b038516917feb175f148a71d29a5f7bf5439182fcd81e6ea9cfc8a11b54ab0f705fa98fa8ca910160405180910390a35050565b6000816001600160a01b031663313ce5676040518163ffffffff1660e01b8152600401602060405180830381865afa1580156200237f573d6000803e3d6000fd5b505050506040513d601f19601f82011682018060405250810190620023a59190620046e4565b905060078160ff161080620023c95750600d5460ff600160a01b9091048116908216105b1562002401576040517f8feffdc900000000000000000000000000000000000000000000000000000000815260040160405180910390fd5b6200240c8262003a30565b600d805460ff9092167501000000000000000000000000000000000000000000027fffffffffffffffffffff00ffffffffffffffffffffffffffffffffffffffffff90921691909117905550565b8060000362002495576040517f7673528000000000000000000000000000000000000000000000000000000000815260040160405180910390fd5b600054817fc60744c6ab5be4d0d7daa24905289cce0ac3a7c5ca60742bb43e367f5426754260405160405180910390a3600055565b8060000362002505576040517f5f60529f00000000000000000000000000000000000000000000000000000000815260040160405180910390fd5b60015460405182907f09a070adb6f2c823cf65438ad36e4d03c24d94dd2ad6ebb19dd02d09ca1fa03f90600090a3600155565b620025438162003a99565b600c5460405163ffffffff600160a01b9092048216918316907f27c191dfc402c5c90b6333b6adc108fe15c0c368ccd3a50ec1d702f9288b864890600090a3600c805463ffffffff909216600160a01b027fffffffffffffffff00000000ffffffffffffffffffffffffffffffffffffffff909216919091179055565b620025cb8162003a99565b600c5460405163ffffffff600160c01b9092048216918316907fd60e348cd25e6e7624733f552b6499f3d296a6c2d464fa0ca109b41d7453b3ca90600090a3600c805463ffffffff909216600160c01b027fffffffff00000000ffffffffffffffffffffffffffffffffffffffffffffffff909216919091179055565b6200265381620035e6565b600b5460405182907f5bafec153d96f8ef37761b64348732b41a6b477401d244a5070f9f82d689adce90600090a3600b55565b6001600160a01b0381161580620026a557506001600160a01b03811630145b1562000859576040517f6c9eaac200000000000000000000000000000000000000000000000000000000815260040160405180910390fd5b6040516001600160a01b0383811660248301526044820183905262001cb791859182169063a9059cbb906064015b604051602081830303815290604052915060e01b6020820180517bffffffffffffffffffffffffffffffffffffffffffffffffffffffff838183161783525050505062003aed565b600a5460ff1662002790576040517fe9a06aea00000000000000000000000000000000000000000000000000000000815260040160405180910390fd5b565b600080620027a08462001f9d565b60408051808201909152601f81527f5f73656c6c4f7264657228616464726573732c2075696e742c2075696e7429006020909101526000808080620028057f668a32426dd1260f278045f1ae1311ac54a127636f6a4572712cffc11c002a1362001fd8565b93509350935093506000806000620028208b85600062002005565b509850889350905062002834868462003b70565b6000620028418262002eab565b90508099506200285b6200285462001dac565b8d62003bca565b600260009054906101000a90046001600160a01b03166001600160a01b03166304baed9e6040518163ffffffff1660e01b8152600401602060405180830381865afa158015620028af573d6000803e3d6000fd5b505050506040513d601f19601f82011682018060405250810190620028d59190620043be565b6001600160a01b031663fc0c546a6040518163ffffffff1660e01b8152600401602060405180830381865afa15801562002913573d6000803e3d6000fd5b505050506040513d601f19601f82011682018060405250810190620029399190620043be565b6040517f70a082310000000000000000000000000000000000000000000000000000000081523060048201526001600160a01b0391909116906370a0823190602401602060405180830381865afa15801562002999573d6000803e3d6000fd5b505050506040513d601f19601f82011682018060405250810190620029bf9190620043de565b600954620029ce90836200483a565b111562002a07576040517f65b9a57600000000000000000000000000000000000000000000000000000000815260040160405180910390fd5b62002a168187600b5462002005565b600254604080517f04baed9e000000000000000000000000000000000000000000000000000000008152905193985091965092935062002b1a928b926001600160a01b03909116916304baed9e9160048083019260209291908290030181865afa15801562002a89573d6000803e3d6000fd5b505050506040513d601f19601f8201168201806040525081019062002aaf9190620043be565b6001600160a01b031663fc0c546a6040518163ffffffff1660e01b8152600401602060405180830381865afa15801562002aed573d6000803e3d6000fd5b505050506040513d601f19601f8201168201806040525081019062002b139190620043be565b8662003c1d565b821562002b3b57826009600082825462002b3591906200483a565b90915550505b8a81101562002b76576040517f7ac6ada500000000000000000000000000000000000000000000000000000000815260040160405180910390fd5b600260009054906101000a90046001600160a01b03166001600160a01b03166304baed9e6040518163ffffffff1660e01b8152600401602060405180830381865afa15801562002bca573d6000803e3d6000fd5b505050506040513d601f19601f8201168201806040525081019062002bf09190620043be565b6001600160a01b031663fc0c546a6040518163ffffffff1660e01b8152600401602060405180830381865afa15801562002c2e573d6000803e3d6000fd5b505050506040513d601f19601f8201168201806040525081019062002c549190620043be565b6040517fa9059cbb0000000000000000000000000000000000000000000000000000000081526001600160a01b038f8116600483015260248201849052919091169063a9059cbb906044016020604051808303816000875af115801562002cbf573d6000803e3d6000fd5b505050506040513d601f19601f8201168201806040525081019062002ce591906200476a565b50808c8e6001600160a01b03167f7debc712939ce2028bbca7ca90cc85e8fb59a7772e041423d3ec1588af4730ed62002d1d62001dac565b6040516001600160a01b03909116815260200160405180910390a45050505050505050935093915050565b60005481111562002d85576040517f27d752ac00000000000000000000000000000000000000000000000000000000815260040160405180910390fd5b600054810362002dc1576040517f7673528000000000000000000000000000000000000000000000000000000000815260040160405180910390fd5b60008054829003808255604051909183917ffb531aedaaeb99214c8335d339abd3ff055ecd418763e51672f7d7a6eb91ce5d9190a350565b60015481111562002e36576040517fba7b44d600000000000000000000000000000000000000000000000000000000815260040160405180910390fd5b600154810362002e72576040517f5f60529f00000000000000000000000000000000000000000000000000000000815260040160405180910390fd5b600180548290039081905560405182907ff90da9caba169a00f9544c3f2cf6e2b5c632fae79eb6116e76ff1f3c1f21472c90600090a350565b600c5460008054600d54919283926001600160a01b03909116916349f9b0f79162002ef591907501000000000000000000000000000000000000000000900460ff166012620038f0565b600154600d5462002f139190600160a01b900460ff166012620038f0565b600c60189054906101000a900463ffffffff1662002f4388600d60159054906101000a900460ff166012620038f0565b6040516001600160e01b031960e087901b1681526004810194909452602484019290925263ffffffff1660448301526064820152608401602060405180830381865afa15801562002f98573d6000803e3d6000fd5b505050506040513d601f19601f8201168201806040525081019062002fbe9190620043de565b9050620021db816012600d60149054906101000a900460ff16620038f0565b6002546001600160a01b031662002ff362001dac565b6001600160a01b03161462002790576040517fe614e81b00000000000000000000000000000000000000000000000000000000815260040160405180910390fd5b6000816000015182604001518360600151604051602001620030599392919062004987565b604051602081830303815290604052805190602001209050919050565b600754600160a01b900460ff1662002790576040517f15fc6a8600000000000000000000000000000000000000000000000000000000815260040160405180910390fd5b600080620030c88462001f9d565b620031c8620030d662001dac565b3086600260009054906101000a90046001600160a01b03166001600160a01b03166304baed9e6040518163ffffffff1660e01b8152600401602060405180830381865afa1580156200312c573d6000803e3d6000fd5b505050506040513d601f19601f82011682018060405250810190620031529190620043be565b6001600160a01b031663fc0c546a6040518163ffffffff1660e01b8152600401602060405180830381865afa15801562003190573d6000803e3d6000fd5b505050506040513d601f19601f82011682018060405250810190620031b69190620043be565b6001600160a01b031692919062003c8b565b60408051808201909152601e81527f5f6275794f7264657228616464726573732c2075696e742c2075696e7429000060209091015260008080806200322d7febc8b0204dadb4d6005a49547cbbe02c8e0cb088aaed83b705285a22a0c2e5f262001fd8565b93509350935093506000806000620032498b8660085462002005565b919450925090506200325c81836200483a565b97506200334887600260009054906101000a90046001600160a01b03166001600160a01b03166304baed9e6040518163ffffffff1660e01b8152600401602060405180830381865afa158015620032b7573d6000803e3d6000fd5b505050506040513d601f19601f82011682018060405250810190620032dd9190620043be565b6001600160a01b031663fc0c546a6040518163ffffffff1660e01b8152600401602060405180830381865afa1580156200331b573d6000803e3d6000fd5b505050506040513d601f19601f82011682018060405250810190620033419190620043be565b8462003c1d565b8015620033695780600960008282546200336391906200483a565b90915550505b60006200337684620020af565b9050809950620033898186600062002005565b50935090506200339a878462003b70565b8a811015620033d5576040517f7ac6ada500000000000000000000000000000000000000000000000000000000815260040160405180910390fd5b620033e18d826200351d565b808c8e6001600160a01b03167fd150a324c4fc8346977d1499aa36cac8c85e6af24bf1486022fad77d05f8b19f62002d1d62001dac565b600054620034299060001962004754565b81111562003463576040517f025dc0b800000000000000000000000000000000000000000000000000000000815260040160405180910390fd5b600080548201808255604051909183917f7aad1769c7491080279b2d6b032b0e75289a3b12c716abe0333e7be0f70fe12f9190a350565b600154620034ab9060001962004754565b811115620034e5576040517fae34fee400000000000000000000000000000000000000000000000000000000815260040160405180910390fd5b6001805482019081905560405182907fb79781f468e2af557e9be98c94e82258c72deac9797eed9d1eb079aba4b0b3ba90600090a350565b6007546040517f40c10f190000000000000000000000000000000000000000000000000000000081526001600160a01b03848116600483015260248201849052909116906340c10f1990604401620014ab565b60006001600160e01b031982167fdcc7f9ac000000000000000000000000000000000000000000000000000000001480620035d457506001600160e01b031982167f899090df00000000000000000000000000000000000000000000000000000000145b80620007615750620007618262003ccc565b61271081111562000859576040517f7de716b600000000000000000000000000000000000000000000000000000000815260040160405180910390fd5b600080600260009054906101000a90046001600160a01b03166001600160a01b0316630c340a246040518163ffffffff1660e01b8152600401602060405180830381865afa1580156200367a573d6000803e3d6000fd5b505050506040513d601f19601f82011682018060405250810190620036a09190620043be565b6001600160a01b031663f2d638266040518163ffffffff1660e01b8152600401602060405180830381865afa158015620036de573d6000803e3d6000fd5b505050506040513d601f19601f82011682018060405250810190620037049190620043be565b6002546040517f9b2e1eaa0000000000000000000000000000000000000000000000000000000081526001600160a01b0391821660048201523060248201526001600160e01b031986166044820152911690639b2e1eaa906064015b60408051808303816000875af11580156200377f573d6000803e3d6000fd5b505050506040513d601f19601f82011682018060405250810190620037a59190620049c8565b91509150915091565b600080600260009054906101000a90046001600160a01b03166001600160a01b0316630c340a246040518163ffffffff1660e01b8152600401602060405180830381865afa15801562003805573d6000803e3d6000fd5b505050506040513d601f19601f820116820180604052508101906200382b9190620043be565b6001600160a01b031663f2d638266040518163ffffffff1660e01b8152600401602060405180830381865afa15801562003869573d6000803e3d6000fd5b505050506040513d601f19601f820116820180604052508101906200388f9190620043be565b6002546040517f04e53bb30000000000000000000000000000000000000000000000000000000081526001600160a01b0391821660048201523060248201526001600160e01b0319861660448201529116906304e53bb39060640162003760565b60008160ff168360ff160362003908575082620021db565b8160ff168360ff16111562003949576000620039258385620049f0565b6200393290600a62004b09565b9050620039408186620047a2565b915050620021db565b6000620039578484620049f0565b6200396490600a62004b09565b905062003940818662004788565b7ff0c57e16840df040f15088dc2f81fe391c3923bec73e23a9662efc9c229c6a005468010000000000000000900460ff1662002790576040517fd7e6bcf800000000000000000000000000000000000000000000000000000000815260040160405180910390fd5b6000816040015151600003620039f257506000919050565b81606001515160000362003a0857506000919050565b815115801562003a1a57506020820151155b1562003a2857506000919050565b506001919050565b6007546040516001600160a01b038084169216907f725bb73d6819c324bf4e2873817ef902109e4e871b4968e252d92a5cbb77cccd90600090a36007805473ffffffffffffffffffffffffffffffffffffffff19166001600160a01b0392909216919091179055565b63ffffffff8116158062003ab55750620f424063ffffffff8216115b1562000859576040517f623115ff00000000000000000000000000000000000000000000000000000000815260040160405180910390fd5b600062003b046001600160a01b0384168362003d0d565b9050805160001415801562003b2c57508080602001905181019062003b2a91906200476a565b155b1562001cb7576040517f5274afe70000000000000000000000000000000000000000000000000000000081526001600160a01b038416600482015260240162001f56565b801562001c2e5762003b828262002686565b62003b8e82826200351d565b60405181906001600160a01b0384169030907f11a26a26a718a46d85815d79165470744429ab0f3093113929c59c097bbebb9a90600090a45050565b6007546040517f9dc29fac0000000000000000000000000000000000000000000000000000000081526001600160a01b0384811660048301526024820184905290911690639dc29fac90604401620014ab565b801562001cb75762003c2f8362002686565b62003c456001600160a01b0383168483620026dd565b80836001600160a01b0316836001600160a01b03167f81535d361819544361f80ddbe5071aef378a8ecba1c52f2c45fe3335234c433160405160405180910390a4505050565b6040516001600160a01b03848116602483015283811660448301526064820183905262003cc69186918216906323b872dd906084016200270b565b50505050565b60006001600160e01b031982167f179dfb45000000000000000000000000000000000000000000000000000000001480620007615750620007618262003d1d565b6060620021db8383600062003d5f565b60007fd1371a52000000000000000000000000000000000000000000000000000000006001600160e01b03198316811480620021db5750620021db8362003e1d565b60608147101562003d9f576040517fcd78605900000000000000000000000000000000000000000000000000000000815230600482015260240162001f56565b600080856001600160a01b0316848660405162003dbd919062004969565b60006040518083038185875af1925050503d806000811462003dfc576040519150601f19603f3d011682016040523d82523d6000602084013e62003e01565b606091505b509150915062003e1386838362003e87565b9695505050505050565b60007f800cc7f1000000000000000000000000000000000000000000000000000000006001600160e01b03198316811480620021db57507f01ffc9a7000000000000000000000000000000000000000000000000000000006001600160e01b0319841614620021db565b60608262003ea05762003e9a8262003f04565b620021db565b815115801562003eb857506001600160a01b0384163b155b1562003efc576040517f9996b3150000000000000000000000000000000000000000000000000000000081526001600160a01b038516600482015260240162001f56565b5080620021db565b80511562003f155780518082602001fd5b6040517f1425ea4200000000000000000000000000000000000000000000000000000000815260040160405180910390fd5b6110d68062004b1b83390190565b60006020828403121562003f6857600080fd5b81356001600160e01b031981168114620021db57600080fd5b60006020828403121562003f9457600080fd5b5035919050565b60008060006040848603121562003fb157600080fd5b83359250602084013567ffffffffffffffff8082111562003fd157600080fd5b818601915086601f83011262003fe657600080fd5b81358181111562003ff657600080fd5b8760208260051b85010111156200400c57600080fd5b6020830194508093505050509250925092565b6001600160a01b03811681146200085957600080fd5b634e487b7160e01b600052604160045260246000fd5b6040516080810167ffffffffffffffff8111828210171562004071576200407162004035565b60405290565b604051610120810167ffffffffffffffff8111828210171562004071576200407162004035565b604051601f8201601f1916810167ffffffffffffffff81118282101715620040ca57620040ca62004035565b604052919050565b600067ffffffffffffffff821115620040ef57620040ef62004035565b50601f01601f191660200190565b600082601f8301126200410f57600080fd5b8135620041266200412082620040d2565b6200409e565b8181528460208386010111156200413c57600080fd5b816020850160208301376000918101602001919091529392505050565b6000806000606084860312156200416f57600080fd5b83356200417c816200401f565b9250602084013567ffffffffffffffff808211156200419a57600080fd5b9085019060808288031215620041af57600080fd5b620041b96200404b565b8235815260208301356020820152604083013582811115620041da57600080fd5b620041e889828601620040fd565b6040830152506060830135828111156200420157600080fd5b6200420f89828601620040fd565b606083015250935060408601359150808211156200422c57600080fd5b506200423b86828701620040fd565b9150509250925092565b60005b838110156200426257818101518382015260200162004248565b50506000910152565b600081518084526200428581602086016020860162004245565b601f01601f19169290920160200192915050565b602081526000620021db60208301846200426b565b60008060408385031215620042c257600080fd5b8235620042cf816200401f565b946020939093013593505050565b600060208284031215620042f057600080fd5b8135620021db816200401f565b6000806000606084860312156200431357600080fd5b833562004320816200401f565b95602085013595506040909401359392505050565b600080604083850312156200434957600080fd5b8235915060208301356200435d816200401f565b809150509250929050565b63ffffffff811681146200085957600080fd5b6000602082840312156200438e57600080fd5b8135620021db8162004368565b60008060408385031215620043af57600080fd5b50508035926020909101359150565b600060208284031215620043d157600080fd5b8151620021db816200401f565b600060208284031215620043f157600080fd5b5051919050565b83815260406020808301829052908201839052600090849060608401835b86811015620044485783356200442c816200401f565b6001600160a01b03168252928201929082019060010162004416565b50979650505050505050565b600082601f8301126200446657600080fd5b8151620044776200412082620040d2565b8181528460208386010111156200448d57600080fd5b620044a082602083016020870162004245565b949350505050565b805160ff81168114620044ba57600080fd5b919050565b8051620044ba816200401f565b8051620044ba8162004368565b80518015158114620044ba57600080fd5b60006101208284031215620044fe57600080fd5b6200450862004077565b90506200451582620044bf565b81526200452560208301620044cc565b60208201526200453860408301620044cc565b604082015260608201516060820152608082015160808201526200455f60a08301620044d9565b60a08201526200457260c08301620044d9565b60c082015260e082015160e082015261010080830151818301525092915050565b6000806000806101808587031215620045ab57600080fd5b845167ffffffffffffffff80821115620045c457600080fd5b9086019060808289031215620045d957600080fd5b620045e36200404b565b825182811115620045f357600080fd5b620046018a82860162004454565b8252506020830151828111156200461757600080fd5b620046258a82860162004454565b6020830152506200463960408401620044a8565b6040820152606083015160608201528096505050506200465c60208601620044bf565b92506200466d8660408701620044ea565b91506200467e6101608601620044bf565b905092959194509250565b60c0815260006200469e60c08301896200426b565b8281036020840152620046b281896200426b565b60ff979097166040840152505060608101939093526001600160a01b0391821660808401521660a09091015292915050565b600060208284031215620046f757600080fd5b620021db82620044a8565b600181811c908216806200471757607f821691505b6020821081036200473857634e487b7160e01b600052602260045260246000fd5b50919050565b634e487b7160e01b600052601160045260246000fd5b818103818111156200076157620007616200473e565b6000602082840312156200477d57600080fd5b620021db82620044d9565b80820281158282048414176200076157620007616200473e565b600082620047c057634e487b7160e01b600052601260045260246000fd5b500490565b60008085851115620047d657600080fd5b83861115620047e457600080fd5b5050820193919092039150565b7fffffffffffffffffffffffffffffffffffffffff0000000000000000000000008135818116916014851015620048325780818660140360031b1b83161692505b505092915050565b808201808211156200076157620007616200473e565b601f82111562001cb7576000816000526020600020601f850160051c810160208610156200487b5750805b601f850160051c820191505b81811015620012ea5782815560010162004887565b815167ffffffffffffffff811115620048b957620048b962004035565b620048d181620048ca845462004702565b8462004850565b602080601f831160018114620049095760008415620048f05750858301515b600019600386901b1c1916600185901b178555620012ea565b600085815260208120601f198616915b828110156200493a5788860151825594840194600190910190840162004919565b5085821015620049595787850151600019600388901b60f8161c191681555b5050505050600190811b01905550565b600082516200497d81846020870162004245565b9190910192915050565b83815260008351620049a181602085016020880162004245565b80830190508351620049bb81602084016020880162004245565b0160200195945050505050565b60008060408385031215620049dc57600080fd5b8251915060208301516200435d816200401f565b60ff82811682821603908111156200076157620007616200473e565b600181815b8085111562004a4d57816000190482111562004a315762004a316200473e565b8085161562004a3f57918102915b93841c939080029062004a11565b509250929050565b60008262004a665750600162000761565b8162004a755750600062000761565b816001811462004a8e576002811462004a995762004ab9565b600191505062000761565b60ff84111562004aad5762004aad6200473e565b50506001821b62000761565b5060208310610133831016604e8410600b841016171562004ade575081810a62000761565b62004aea838362004a0c565b806000190482111562004b015762004b016200473e565b029392505050565b6000620021db60ff84168362004a5556fe60806040523480156200001157600080fd5b50604051620010d6380380620010d6833981016040819052620000349162000240565b818686600362000045838262000383565b50600462000054828262000383565b5050506001600160a01b0381166200008657604051631e4fbdf760e01b81526000600482015260240160405180910390fd5b6200009181620000bf565b506200009d8162000111565b50506007556008805460ff191660ff92909216919091179055506200044f9050565b600580546001600160a01b038381166001600160a01b0319831681179093556040519116919082907f8be0079c531659141344cd1fd0a4f28419497f9722a3daafe3b4186f6b6457e090600090a35050565b600680546001600160a01b0319166001600160a01b0383169081179091556040517f726b590ef91a8c76ad05bbe91a57ef84605276528f49cd47d787f558a4e755b690600090a250565b634e487b7160e01b600052604160045260246000fd5b600082601f8301126200018357600080fd5b81516001600160401b0380821115620001a057620001a06200015b565b604051601f8301601f19908116603f01168101908282118183101715620001cb57620001cb6200015b565b8160405283815260209250866020858801011115620001e957600080fd5b600091505b838210156200020d5785820183015181830184015290820190620001ee565b6000602085830101528094505050505092915050565b80516001600160a01b03811681146200023b57600080fd5b919050565b60008060008060008060c087890312156200025a57600080fd5b86516001600160401b03808211156200027257600080fd5b620002808a838b0162000171565b975060208901519150808211156200029757600080fd5b50620002a689828a0162000171565b955050604087015160ff81168114620002be57600080fd5b60608801519094509250620002d66080880162000223565b9150620002e660a0880162000223565b90509295509295509295565b600181811c908216806200030757607f821691505b6020821081036200032857634e487b7160e01b600052602260045260246000fd5b50919050565b601f8211156200037e576000816000526020600020601f850160051c81016020861015620003595750805b601f850160051c820191505b818110156200037a5782815560010162000365565b5050505b505050565b81516001600160401b038111156200039f576200039f6200015b565b620003b781620003b08454620002f2565b846200032e565b602080601f831160018114620003ef5760008415620003d65750858301515b600019600386901b1c1916600185901b1785556200037a565b600085815260208120601f198616915b828110156200042057888601518255948401946001909101908401620003ff565b50858210156200043f5787850151600019600388901b60f8161c191681555b5050505050600190811b01905550565b610c77806200045f6000396000f3fe608060405234801561001057600080fd5b506004361061011b5760003560e01c8063715018a6116100b25780639e812c7b11610081578063dd62ed3e11610066578063dd62ed3e14610250578063f2fde38b14610289578063fca3b5aa1461029c57600080fd5b80639e812c7b1461022a578063a9059cbb1461023d57600080fd5b8063715018a6146101e25780638da5cb5b146101ea57806395d89b411461020f5780639dc29fac1461021757600080fd5b8063313ce567116100ee578063313ce5671461018657806332cb6b0c1461019b57806340c10f19146101a457806370a08231146101b957600080fd5b806306fdde0314610120578063095ea7b31461013e57806318160ddd1461016157806323b872dd14610173575b600080fd5b6101286102af565b6040516101359190610a70565b60405180910390f35b61015161014c366004610af9565b610341565b6040519015158152602001610135565b6002545b604051908152602001610135565b610151610181366004610b23565b61035b565b60085460405160ff9091168152602001610135565b61016560075481565b6101b76101b2366004610af9565b61037f565b005b6101656101c7366004610b5f565b6001600160a01b031660009081526020819052604090205490565b6101b7610429565b6005546001600160a01b03165b6040516001600160a01b039091168152602001610135565b61012861043d565b6101b7610225366004610af9565b61044c565b6006546101f7906001600160a01b031681565b61015161024b366004610af9565b6104a3565b61016561025e366004610b81565b6001600160a01b03918216600090815260016020908152604080832093909416825291909152205490565b6101b7610297366004610b5f565b6104b1565b6101b76102aa366004610b5f565b61050d565b6060600380546102be90610bb4565b80601f01602080910402602001604051908101604052809291908181526020018280546102ea90610bb4565b80156103375780601f1061030c57610100808354040283529160200191610337565b820191906000526020600020905b81548152906001019060200180831161031a57829003601f168201915b5050505050905090565b60003361034f81858561051e565b60019150505b92915050565b600033610369858285610530565b6103748585856105e5565b506001949350505050565b6006546001600160a01b0316336001600160a01b0316146103cc576040517f8333c4a600000000000000000000000000000000000000000000000000000000815260040160405180910390fd5b600754816103d960025490565b6103e39190610c07565b111561041b576040517fdb327dd300000000000000000000000000000000000000000000000000000000815260040160405180910390fd5b6104258282610676565b5050565b6104316106c5565b61043b600061070b565b565b6060600480546102be90610bb4565b6006546001600160a01b0316336001600160a01b031614610499576040517f8333c4a600000000000000000000000000000000000000000000000000000000815260040160405180910390fd5b6104258282610775565b60003361034f8185856105e5565b6104b96106c5565b6001600160a01b038116610501576040517f1e4fbdf7000000000000000000000000000000000000000000000000000000008152600060048201526024015b60405180910390fd5b61050a8161070b565b50565b6105156106c5565b61050a816107c4565b61052b8383836001610826565b505050565b6001600160a01b038381166000908152600160209081526040808320938616835292905220547fffffffffffffffffffffffffffffffffffffffffffffffffffffffffffffffff81146105df57818110156105d0576040517ffb8f41b20000000000000000000000000000000000000000000000000000000081526001600160a01b038416600482015260248101829052604481018390526064016104f8565b6105df84848484036000610826565b50505050565b6001600160a01b038316610628576040517f96c6fd1e000000000000000000000000000000000000000000000000000000008152600060048201526024016104f8565b6001600160a01b03821661066b576040517fec442f05000000000000000000000000000000000000000000000000000000008152600060048201526024016104f8565b61052b83838361092d565b6001600160a01b0382166106b9576040517fec442f05000000000000000000000000000000000000000000000000000000008152600060048201526024016104f8565b6104256000838361092d565b6005546001600160a01b0316331461043b576040517f118cdaa70000000000000000000000000000000000000000000000000000000081523360048201526024016104f8565b600580546001600160a01b038381167fffffffffffffffffffffffff0000000000000000000000000000000000000000831681179093556040519116919082907f8be0079c531659141344cd1fd0a4f28419497f9722a3daafe3b4186f6b6457e090600090a35050565b6001600160a01b0382166107b8576040517f96c6fd1e000000000000000000000000000000000000000000000000000000008152600060048201526024016104f8565b6104258260008361092d565b600680547fffffffffffffffffffffffff0000000000000000000000000000000000000000166001600160a01b0383169081179091556040517f726b590ef91a8c76ad05bbe91a57ef84605276528f49cd47d787f558a4e755b690600090a250565b6001600160a01b038416610869576040517fe602df05000000000000000000000000000000000000000000000000000000008152600060048201526024016104f8565b6001600160a01b0383166108ac576040517f94280d62000000000000000000000000000000000000000000000000000000008152600060048201526024016104f8565b6001600160a01b03808516600090815260016020908152604080832093871683529290522082905580156105df57826001600160a01b0316846001600160a01b03167f8c5be1e5ebec7d5bd14f71427d1e84f3dd0314c0f7b2291e5b200ac8c7c3b9258460405161091f91815260200190565b60405180910390a350505050565b6001600160a01b03831661095857806002600082825461094d9190610c07565b909155506109e39050565b6001600160a01b038316600090815260208190526040902054818110156109c4576040517fe450d38c0000000000000000000000000000000000000000000000000000000081526001600160a01b038516600482015260248101829052604481018390526064016104f8565b6001600160a01b03841660009081526020819052604090209082900390555b6001600160a01b0382166109ff57600280548290039055610a1e565b6001600160a01b03821660009081526020819052604090208054820190555b816001600160a01b0316836001600160a01b03167fddf252ad1be2c89b69c2b068fc378daa952ba7f163c4a11628f55a4df523b3ef83604051610a6391815260200190565b60405180910390a3505050565b60006020808352835180602085015260005b81811015610a9e57858101830151858201604001528201610a82565b5060006040828601015260407fffffffffffffffffffffffffffffffffffffffffffffffffffffffffffffffe0601f8301168501019250505092915050565b80356001600160a01b0381168114610af457600080fd5b919050565b60008060408385031215610b0c57600080fd5b610b1583610add565b946020939093013593505050565b600080600060608486031215610b3857600080fd5b610b4184610add565b9250610b4f60208501610add565b9150604084013590509250925092565b600060208284031215610b7157600080fd5b610b7a82610add565b9392505050565b60008060408385031215610b9457600080fd5b610b9d83610add565b9150610bab60208401610add565b90509250929050565b600181811c90821680610bc857607f821691505b602082108103610c01577f4e487b7100000000000000000000000000000000000000000000000000000000600052602260045260246000fd5b50919050565b80820180821115610355577f4e487b7100000000000000000000000000000000000000000000000000000000600052601160045260246000fdfea26469706673582212202307e005cfb8998b90a90f6175d32547268ca6d6c0edd47ac4f50a1002bd4a3b64736f6c63430008170033a26469706673582212206611c74c5dfcc916781245092a45155955bdadfdb55c189c038b214ad1ff174a64736f6c63430008170033",
    "linkReferences": {}
  },
  "methodIdentifiers": {
    "buy(uint256,uint256)": "d6febde8",
    "buyFee()": "47062402",
    "buyFor(address,uint256,uint256)": "935b7dbd",
    "buyIsOpen()": "c6829ba2",
    "calculatePurchaseReturn(uint256)": "322d2100",
    "calculateSaleReturn(uint256)": "69fcd4ac",
    "closeBuy()": "c6ab5cdc",
    "closeSell()": "ba83c970",
    "formula()": "4b75f54f",
    "getIssuanceToken()": "1ca3bc4f",
    "getReserveRatioForBuying()": "a8a539d9",
    "getReserveRatioForSelling()": "6115db1c",
    "getStaticPriceForBuying()": "fa03330c",
    "getStaticPriceForSelling()": "bd098404",
    "getVirtualCollateralSupply()": "bf75292b",
    "getVirtualIssuanceSupply()": "d1c6022f",
    "grantModuleRole(bytes32,address)": "6c67e807",
    "grantModuleRoleBatched(bytes32,address[])": "272bbd44",
    "identifier()": "7998a1c4",
    "init(address,(uint256,uint256,string,string),bytes)": "42dfe958",
    "isTrustedForwarder(address)": "572b6c05",
    "mintIssuanceTokenTo(address,uint256)": "ecd31b55",
    "openBuy()": "d4a67930",
    "openSell()": "f1eae64a",
    "orchestrator()": "b74795d9",
    "projectCollateralFeeCollected()": "cbda8f82",
    "revokeModuleRole(bytes32,address)": "bcb61920",
    "revokeModuleRoleBatched(bytes32,address[])": "24e30270",
    "sell(uint256,uint256)": "d79875eb",
    "sellFee()": "2b14ca56",
    "sellFor(address,uint256,uint256)": "5f6108ff",
    "sellIsOpen()": "9093b01f",
    "setBuyFee(uint256)": "0cc835a3",
    "setReserveRatioForBuying(uint32)": "8ac631e6",
    "setReserveRatioForSelling(uint32)": "b88a2cf6",
    "setSellFee(uint256)": "8b4cee08",
    "setVirtualCollateralSupply(uint256)": "6e423379",
    "setVirtualIssuanceSupply(uint256)": "51cac5de",
    "supportsInterface(bytes4)": "01ffc9a7",
    "title()": "4a79d50c",
    "token()": "fc0c546a",
    "transferOrchestratorToken(address,uint256)": "759cc4b5",
    "trustedForwarder()": "7da0a877",
    "url()": "5600f04f",
    "version()": "54fd4d50",
    "withdrawProjectCollateralFee(address,uint256)": "4f893bba"
  },
  "id": 102
}