{
  "abi": [
    {
      "type": "function",
      "name": "CURVE_INTERACTION_ROLE",
      "inputs": [],
      "outputs": [
        {
          "name": "",
          "type": "bytes32",
          "internalType": "bytes32"
        }
      ],
      "stateMutability": "view"
    },
    {
      "type": "function",
      "name": "buy",
      "inputs": [
        {
          "name": "_depositAmount",
          "type": "uint256",
          "internalType": "uint256"
        },
        {
          "name": "_minAmountOut",
          "type": "uint256",
          "internalType": "uint256"
        }
      ],
      "outputs": [],
      "stateMutability": "nonpayable"
    },
    {
      "type": "function",
      "name": "buyFee",
      "inputs": [],
      "outputs": [
        {
          "name": "",
          "type": "uint256",
          "internalType": "uint256"
        }
      ],
      "stateMutability": "view"
    },
    {
      "type": "function",
      "name": "buyFor",
      "inputs": [
        {
          "name": "_receiver",
          "type": "address",
          "internalType": "address"
        },
        {
          "name": "_depositAmount",
          "type": "uint256",
          "internalType": "uint256"
        },
        {
          "name": "_minAmountOut",
          "type": "uint256",
          "internalType": "uint256"
        }
      ],
      "outputs": [],
      "stateMutability": "nonpayable"
    },
    {
      "type": "function",
      "name": "buyIsOpen",
      "inputs": [],
      "outputs": [
        {
          "name": "",
          "type": "bool",
          "internalType": "bool"
        }
      ],
      "stateMutability": "view"
    },
    {
      "type": "function",
      "name": "calculatePurchaseReturn",
      "inputs": [
        {
          "name": "_depositAmount",
          "type": "uint256",
          "internalType": "uint256"
        }
      ],
      "outputs": [
        {
          "name": "mintAmount",
          "type": "uint256",
          "internalType": "uint256"
        }
      ],
      "stateMutability": "view"
    },
    {
      "type": "function",
      "name": "calculateSaleReturn",
      "inputs": [
        {
          "name": "_depositAmount",
          "type": "uint256",
          "internalType": "uint256"
        }
      ],
      "outputs": [
        {
          "name": "redeemAmount",
          "type": "uint256",
          "internalType": "uint256"
        }
      ],
      "stateMutability": "view"
    },
    {
      "type": "function",
      "name": "closeBuy",
      "inputs": [],
      "outputs": [],
      "stateMutability": "nonpayable"
    },
    {
      "type": "function",
      "name": "closeSell",
      "inputs": [],
      "outputs": [],
      "stateMutability": "nonpayable"
    },
    {
      "type": "function",
      "name": "formula",
      "inputs": [],
      "outputs": [
        {
          "name": "",
          "type": "address",
          "internalType": "contract IBancorFormula"
        }
      ],
      "stateMutability": "view"
    },
    {
      "type": "function",
      "name": "getIssuanceToken",
      "inputs": [],
      "outputs": [
        {
          "name": "",
          "type": "address",
          "internalType": "address"
        }
      ],
      "stateMutability": "view"
    },
    {
      "type": "function",
      "name": "getReserveRatioForBuying",
      "inputs": [],
      "outputs": [
        {
          "name": "",
          "type": "uint32",
          "internalType": "uint32"
        }
      ],
      "stateMutability": "view"
    },
    {
      "type": "function",
      "name": "getReserveRatioForSelling",
      "inputs": [],
      "outputs": [
        {
          "name": "",
          "type": "uint32",
          "internalType": "uint32"
        }
      ],
      "stateMutability": "view"
    },
    {
      "type": "function",
      "name": "getStaticPriceForBuying",
      "inputs": [],
      "outputs": [
        {
          "name": "",
          "type": "uint256",
          "internalType": "uint256"
        }
      ],
      "stateMutability": "view"
    },
    {
      "type": "function",
      "name": "getStaticPriceForSelling",
      "inputs": [],
      "outputs": [
        {
          "name": "",
          "type": "uint256",
          "internalType": "uint256"
        }
      ],
      "stateMutability": "view"
    },
    {
      "type": "function",
      "name": "getVirtualCollateralSupply",
      "inputs": [],
      "outputs": [
        {
          "name": "",
          "type": "uint256",
          "internalType": "uint256"
        }
      ],
      "stateMutability": "view"
    },
    {
      "type": "function",
      "name": "getVirtualIssuanceSupply",
      "inputs": [],
      "outputs": [
        {
          "name": "",
          "type": "uint256",
          "internalType": "uint256"
        }
      ],
      "stateMutability": "view"
    },
    {
      "type": "function",
      "name": "grantModuleRole",
      "inputs": [
        {
          "name": "role",
          "type": "bytes32",
          "internalType": "bytes32"
        },
        {
          "name": "target",
          "type": "address",
          "internalType": "address"
        }
      ],
      "outputs": [],
      "stateMutability": "nonpayable"
    },
    {
      "type": "function",
      "name": "grantModuleRoleBatched",
      "inputs": [
        {
          "name": "role",
          "type": "bytes32",
          "internalType": "bytes32"
        },
        {
          "name": "targets",
          "type": "address[]",
          "internalType": "address[]"
        }
      ],
      "outputs": [],
      "stateMutability": "nonpayable"
    },
    {
      "type": "function",
      "name": "identifier",
      "inputs": [],
      "outputs": [
        {
          "name": "",
          "type": "bytes32",
          "internalType": "bytes32"
        }
      ],
      "stateMutability": "view"
    },
    {
      "type": "function",
      "name": "init",
      "inputs": [
        {
          "name": "orchestrator_",
          "type": "address",
          "internalType": "contract IOrchestrator_v1"
        },
        {
          "name": "metadata",
          "type": "tuple",
          "internalType": "struct IModule_v1.Metadata",
          "components": [
            {
              "name": "majorVersion",
              "type": "uint256",
              "internalType": "uint256"
            },
            {
              "name": "minorVersion",
              "type": "uint256",
              "internalType": "uint256"
            },
            {
              "name": "patchVersion",
              "type": "uint256",
              "internalType": "uint256"
            },
            {
              "name": "url",
              "type": "string",
              "internalType": "string"
            },
            {
              "name": "title",
              "type": "string",
              "internalType": "string"
            }
          ]
        },
        {
          "name": "configData",
          "type": "bytes",
          "internalType": "bytes"
        }
      ],
      "outputs": [],
      "stateMutability": "nonpayable"
    },
    {
      "type": "function",
      "name": "isTrustedForwarder",
      "inputs": [
        {
          "name": "forwarder",
          "type": "address",
          "internalType": "address"
        }
      ],
      "outputs": [
        {
          "name": "",
          "type": "bool",
          "internalType": "bool"
        }
      ],
      "stateMutability": "view"
    },
    {
      "type": "function",
      "name": "openBuy",
      "inputs": [],
      "outputs": [],
      "stateMutability": "nonpayable"
    },
    {
      "type": "function",
      "name": "openSell",
      "inputs": [],
      "outputs": [],
      "stateMutability": "nonpayable"
    },
    {
      "type": "function",
      "name": "orchestrator",
      "inputs": [],
      "outputs": [
        {
          "name": "",
          "type": "address",
          "internalType": "contract IOrchestrator_v1"
        }
      ],
      "stateMutability": "view"
    },
    {
      "type": "function",
      "name": "projectCollateralFeeCollected",
      "inputs": [],
      "outputs": [
        {
          "name": "",
          "type": "uint256",
          "internalType": "uint256"
        }
      ],
      "stateMutability": "view"
    },
    {
      "type": "function",
      "name": "revokeModuleRole",
      "inputs": [
        {
          "name": "role",
          "type": "bytes32",
          "internalType": "bytes32"
        },
        {
          "name": "target",
          "type": "address",
          "internalType": "address"
        }
      ],
      "outputs": [],
      "stateMutability": "nonpayable"
    },
    {
      "type": "function",
      "name": "revokeModuleRoleBatched",
      "inputs": [
        {
          "name": "role",
          "type": "bytes32",
          "internalType": "bytes32"
        },
        {
          "name": "targets",
          "type": "address[]",
          "internalType": "address[]"
        }
      ],
      "outputs": [],
      "stateMutability": "nonpayable"
    },
    {
      "type": "function",
      "name": "sell",
      "inputs": [
        {
          "name": "_depositAmount",
          "type": "uint256",
          "internalType": "uint256"
        },
        {
          "name": "_minAmountOut",
          "type": "uint256",
          "internalType": "uint256"
        }
      ],
      "outputs": [],
      "stateMutability": "nonpayable"
    },
    {
      "type": "function",
      "name": "sellFee",
      "inputs": [],
      "outputs": [
        {
          "name": "",
          "type": "uint256",
          "internalType": "uint256"
        }
      ],
      "stateMutability": "view"
    },
    {
      "type": "function",
      "name": "sellIsOpen",
      "inputs": [],
      "outputs": [
        {
          "name": "",
          "type": "bool",
          "internalType": "bool"
        }
      ],
      "stateMutability": "view"
    },
    {
      "type": "function",
      "name": "sellTo",
      "inputs": [
        {
          "name": "_receiver",
          "type": "address",
          "internalType": "address"
        },
        {
          "name": "_depositAmount",
          "type": "uint256",
          "internalType": "uint256"
        },
        {
          "name": "_minAmountOut",
          "type": "uint256",
          "internalType": "uint256"
        }
      ],
      "outputs": [],
      "stateMutability": "nonpayable"
    },
    {
      "type": "function",
      "name": "setBuyFee",
      "inputs": [
        {
          "name": "_fee",
          "type": "uint256",
          "internalType": "uint256"
        }
      ],
      "outputs": [],
      "stateMutability": "nonpayable"
    },
    {
      "type": "function",
      "name": "setReserveRatioForBuying",
      "inputs": [
        {
          "name": "_reserveRatio",
          "type": "uint32",
          "internalType": "uint32"
        }
      ],
      "outputs": [],
      "stateMutability": "nonpayable"
    },
    {
      "type": "function",
      "name": "setReserveRatioForSelling",
      "inputs": [
        {
          "name": "_reserveRatio",
          "type": "uint32",
          "internalType": "uint32"
        }
      ],
      "outputs": [],
      "stateMutability": "nonpayable"
    },
    {
      "type": "function",
      "name": "setSellFee",
      "inputs": [
        {
          "name": "_fee",
          "type": "uint256",
          "internalType": "uint256"
        }
      ],
      "outputs": [],
      "stateMutability": "nonpayable"
    },
    {
      "type": "function",
      "name": "setVirtualCollateralSupply",
      "inputs": [
        {
          "name": "_virtualSupply",
          "type": "uint256",
          "internalType": "uint256"
        }
      ],
      "outputs": [],
      "stateMutability": "nonpayable"
    },
    {
      "type": "function",
      "name": "setVirtualIssuanceSupply",
      "inputs": [
        {
          "name": "_virtualSupply",
          "type": "uint256",
          "internalType": "uint256"
        }
      ],
      "outputs": [],
      "stateMutability": "nonpayable"
    },
    {
      "type": "function",
      "name": "supportsInterface",
      "inputs": [
        {
          "name": "interfaceId",
          "type": "bytes4",
          "internalType": "bytes4"
        }
      ],
      "outputs": [
        {
          "name": "",
          "type": "bool",
          "internalType": "bool"
        }
      ],
      "stateMutability": "view"
    },
    {
      "type": "function",
      "name": "title",
      "inputs": [],
      "outputs": [
        {
          "name": "",
          "type": "string",
          "internalType": "string"
        }
      ],
      "stateMutability": "view"
    },
    {
      "type": "function",
      "name": "token",
      "inputs": [],
      "outputs": [
        {
          "name": "",
          "type": "address",
          "internalType": "contract IERC20"
        }
      ],
      "stateMutability": "view"
    },
    {
      "type": "function",
      "name": "transferOrchestratorToken",
      "inputs": [
        {
          "name": "to",
          "type": "address",
          "internalType": "address"
        },
        {
          "name": "amount",
          "type": "uint256",
          "internalType": "uint256"
        }
      ],
      "outputs": [],
      "stateMutability": "nonpayable"
    },
    {
      "type": "function",
      "name": "trustedForwarder",
      "inputs": [],
      "outputs": [
        {
          "name": "",
          "type": "address",
          "internalType": "address"
        }
      ],
      "stateMutability": "view"
    },
    {
      "type": "function",
      "name": "url",
      "inputs": [],
      "outputs": [
        {
          "name": "",
          "type": "string",
          "internalType": "string"
        }
      ],
      "stateMutability": "view"
    },
    {
      "type": "function",
      "name": "version",
      "inputs": [],
      "outputs": [
        {
          "name": "",
          "type": "uint256",
          "internalType": "uint256"
        },
        {
          "name": "",
          "type": "uint256",
          "internalType": "uint256"
        },
        {
          "name": "",
          "type": "uint256",
          "internalType": "uint256"
        }
      ],
      "stateMutability": "view"
    },
    {
      "type": "function",
      "name": "withdrawProjectCollateralFee",
      "inputs": [
        {
          "name": "_receiver",
          "type": "address",
          "internalType": "address"
        },
        {
          "name": "_amount",
          "type": "uint256",
          "internalType": "uint256"
        }
      ],
      "outputs": [],
      "stateMutability": "nonpayable"
    },
    {
      "type": "event",
      "name": "BuyFeeUpdated",
      "inputs": [
        {
          "name": "newBuyFee",
          "type": "uint256",
          "indexed": false,
          "internalType": "uint256"
        },
        {
          "name": "oldBuyFee",
          "type": "uint256",
          "indexed": false,
          "internalType": "uint256"
        }
      ],
      "anonymous": false
    },
    {
      "type": "event",
      "name": "BuyReserveRatioSet",
      "inputs": [
        {
          "name": "newBuyReserveRatio",
          "type": "uint32",
          "indexed": false,
          "internalType": "uint32"
        },
        {
          "name": "oldBuyReserveRatio",
          "type": "uint32",
          "indexed": false,
          "internalType": "uint32"
        }
      ],
      "anonymous": false
    },
    {
      "type": "event",
      "name": "BuyingDisabled",
      "inputs": [],
      "anonymous": false
    },
    {
      "type": "event",
      "name": "BuyingEnabled",
      "inputs": [],
      "anonymous": false
    },
    {
      "type": "event",
      "name": "Initialized",
      "inputs": [
        {
          "name": "version",
          "type": "uint64",
          "indexed": false,
          "internalType": "uint64"
        }
      ],
      "anonymous": false
    },
    {
      "type": "event",
      "name": "IssuanceTokenSet",
      "inputs": [
        {
          "name": "issuanceToken",
          "type": "address",
          "indexed": true,
          "internalType": "address"
        },
        {
          "name": "decimals",
          "type": "uint8",
          "indexed": false,
          "internalType": "uint8"
        }
      ],
      "anonymous": false
    },
    {
      "type": "event",
      "name": "ModuleInitialized",
      "inputs": [
        {
          "name": "parentOrchestrator",
          "type": "address",
          "indexed": true,
          "internalType": "address"
        },
        {
          "name": "metadata",
          "type": "tuple",
          "indexed": false,
          "internalType": "struct IModule_v1.Metadata",
          "components": [
            {
              "name": "majorVersion",
              "type": "uint256",
              "internalType": "uint256"
            },
            {
              "name": "minorVersion",
              "type": "uint256",
              "internalType": "uint256"
            },
            {
              "name": "patchVersion",
              "type": "uint256",
              "internalType": "uint256"
            },
            {
              "name": "url",
              "type": "string",
              "internalType": "string"
            },
            {
              "name": "title",
              "type": "string",
              "internalType": "string"
            }
          ]
        }
      ],
      "anonymous": false
    },
    {
      "type": "event",
      "name": "OrchestratorTokenSet",
      "inputs": [
        {
          "name": "token",
          "type": "address",
          "indexed": true,
          "internalType": "address"
        },
        {
          "name": "decimals",
          "type": "uint8",
          "indexed": false,
          "internalType": "uint8"
        }
      ],
      "anonymous": false
    },
    {
      "type": "event",
      "name": "ProjectCollateralFeeWithdrawn",
      "inputs": [
        {
          "name": "receiver",
          "type": "address",
          "indexed": false,
          "internalType": "address"
        },
        {
          "name": "amount",
          "type": "uint256",
          "indexed": false,
          "internalType": "uint256"
        }
      ],
      "anonymous": false
    },
    {
      "type": "event",
      "name": "ProtocolFeeMinted",
      "inputs": [
        {
          "name": "token",
          "type": "address",
          "indexed": true,
          "internalType": "address"
        },
        {
          "name": "treasury",
          "type": "address",
          "indexed": true,
          "internalType": "address"
        },
        {
          "name": "feeAmount",
          "type": "uint256",
          "indexed": false,
          "internalType": "uint256"
        }
      ],
      "anonymous": false
    },
    {
      "type": "event",
      "name": "ProtocolFeeTransferred",
      "inputs": [
        {
          "name": "token",
          "type": "address",
          "indexed": true,
          "internalType": "address"
        },
        {
          "name": "treasury",
          "type": "address",
          "indexed": true,
          "internalType": "address"
        },
        {
          "name": "feeAmount",
          "type": "uint256",
          "indexed": false,
          "internalType": "uint256"
        }
      ],
      "anonymous": false
    },
    {
      "type": "event",
      "name": "SellFeeUpdated",
      "inputs": [
        {
          "name": "newSellFee",
          "type": "uint256",
          "indexed": false,
          "internalType": "uint256"
        },
        {
          "name": "oldSellFee",
          "type": "uint256",
          "indexed": false,
          "internalType": "uint256"
        }
      ],
      "anonymous": false
    },
    {
      "type": "event",
      "name": "SellReserveRatioSet",
      "inputs": [
        {
          "name": "newSellReserveRatio",
          "type": "uint32",
          "indexed": false,
          "internalType": "uint32"
        },
        {
          "name": "oldSellReserveRatio",
          "type": "uint32",
          "indexed": false,
          "internalType": "uint32"
        }
      ],
      "anonymous": false
    },
    {
      "type": "event",
      "name": "SellingDisabled",
      "inputs": [],
      "anonymous": false
    },
    {
      "type": "event",
      "name": "SellingEnabled",
      "inputs": [],
      "anonymous": false
    },
    {
      "type": "event",
      "name": "TokenDecimalsUpdated",
      "inputs": [
        {
          "name": "oldDecimals",
          "type": "uint8",
          "indexed": false,
          "internalType": "uint8"
        },
        {
          "name": "newDecimals",
          "type": "uint8",
          "indexed": false,
          "internalType": "uint8"
        }
      ],
      "anonymous": false
    },
    {
      "type": "event",
      "name": "TokensBought",
      "inputs": [
        {
          "name": "receiver",
          "type": "address",
          "indexed": true,
          "internalType": "address"
        },
        {
          "name": "depositAmount",
          "type": "uint256",
          "indexed": false,
          "internalType": "uint256"
        },
        {
          "name": "receivedAmount",
          "type": "uint256",
          "indexed": false,
          "internalType": "uint256"
        },
        {
          "name": "buyer",
          "type": "address",
          "indexed": false,
          "internalType": "address"
        }
      ],
      "anonymous": false
    },
    {
      "type": "event",
      "name": "TokensSold",
      "inputs": [
        {
          "name": "receiver",
          "type": "address",
          "indexed": true,
          "internalType": "address"
        },
        {
          "name": "depositAmount",
          "type": "uint256",
          "indexed": false,
          "internalType": "uint256"
        },
        {
          "name": "receivedAmount",
          "type": "uint256",
          "indexed": false,
          "internalType": "uint256"
        },
        {
          "name": "seller",
          "type": "address",
          "indexed": false,
          "internalType": "address"
        }
      ],
      "anonymous": false
    },
    {
      "type": "event",
      "name": "TransferOrchestratorToken",
      "inputs": [
        {
          "name": "_to",
          "type": "address",
          "indexed": true,
          "internalType": "address"
        },
        {
          "name": "_amount",
          "type": "uint256",
          "indexed": false,
          "internalType": "uint256"
        }
      ],
      "anonymous": false
    },
    {
      "type": "event",
      "name": "VirtualCollateralAmountAdded",
      "inputs": [
        {
          "name": "amountAdded",
          "type": "uint256",
          "indexed": false,
          "internalType": "uint256"
        },
        {
          "name": "newSupply",
          "type": "uint256",
          "indexed": false,
          "internalType": "uint256"
        }
      ],
      "anonymous": false
    },
    {
      "type": "event",
      "name": "VirtualCollateralAmountSubtracted",
      "inputs": [
        {
          "name": "amountSubtracted",
          "type": "uint256",
          "indexed": false,
          "internalType": "uint256"
        },
        {
          "name": "newSupply",
          "type": "uint256",
          "indexed": false,
          "internalType": "uint256"
        }
      ],
      "anonymous": false
    },
    {
      "type": "event",
      "name": "VirtualCollateralSupplySet",
      "inputs": [
        {
          "name": "newSupply",
          "type": "uint256",
          "indexed": false,
          "internalType": "uint256"
        },
        {
          "name": "oldSupply",
          "type": "uint256",
          "indexed": false,
          "internalType": "uint256"
        }
      ],
      "anonymous": false
    },
    {
      "type": "event",
      "name": "VirtualIssuanceAmountAdded",
      "inputs": [
        {
          "name": "amountAdded",
          "type": "uint256",
          "indexed": false,
          "internalType": "uint256"
        },
        {
          "name": "newSupply",
          "type": "uint256",
          "indexed": false,
          "internalType": "uint256"
        }
      ],
      "anonymous": false
    },
    {
      "type": "event",
      "name": "VirtualIssuanceAmountSubtracted",
      "inputs": [
        {
          "name": "amountSubtracted",
          "type": "uint256",
          "indexed": false,
          "internalType": "uint256"
        },
        {
          "name": "newSupply",
          "type": "uint256",
          "indexed": false,
          "internalType": "uint256"
        }
      ],
      "anonymous": false
    },
    {
      "type": "event",
      "name": "VirtualIssuanceSupplySet",
      "inputs": [
        {
          "name": "newSupply",
          "type": "uint256",
          "indexed": false,
          "internalType": "uint256"
        },
        {
          "name": "oldSupply",
          "type": "uint256",
          "indexed": false,
          "internalType": "uint256"
        }
      ],
      "anonymous": false
    },
    {
      "type": "error",
      "name": "AddressEmptyCode",
      "inputs": [
        {
          "name": "target",
          "type": "address",
          "internalType": "address"
        }
      ]
    },
    {
      "type": "error",
      "name": "AddressInsufficientBalance",
      "inputs": [
        {
          "name": "account",
          "type": "address",
          "internalType": "address"
        }
      ]
    },
    {
      "type": "error",
      "name": "FailedInnerCall",
      "inputs": []
    },
    {
      "type": "error",
      "name": "InvalidInitialization",
      "inputs": []
    },
    {
      "type": "error",
      "name": "Module_OrchestratorCallbackFailed",
      "inputs": [
        {
          "name": "funcSig",
          "type": "string",
          "internalType": "string"
        }
      ]
    },
    {
      "type": "error",
      "name": "Module__BondingCurveBase__BuyingFunctionaltiesClosed",
      "inputs": []
    },
    {
      "type": "error",
      "name": "Module__BondingCurveBase__FeeAmountToHigh",
      "inputs": []
    },
    {
      "type": "error",
      "name": "Module__BondingCurveBase__InsufficientOutputAmount",
      "inputs": []
    },
    {
      "type": "error",
      "name": "Module__BondingCurveBase__InvalidDepositAmount",
      "inputs": []
    },
    {
      "type": "error",
      "name": "Module__BondingCurveBase__InvalidFeePercentage",
      "inputs": []
    },
    {
      "type": "error",
      "name": "Module__BondingCurveBase__InvalidMinAmountOut",
      "inputs": []
    },
    {
      "type": "error",
      "name": "Module__BondingCurveBase__InvalidRecipient",
      "inputs": []
    },
    {
      "type": "error",
      "name": "Module__BondingCurveBase__InvalidWithdrawAmount",
      "inputs": []
    },
    {
      "type": "error",
      "name": "Module__BondingCurveBase__TradeAmountTooLow",
      "inputs": []
    },
    {
      "type": "error",
      "name": "Module__CallerNotAuthorized",
      "inputs": [
        {
          "name": "role",
          "type": "bytes32",
          "internalType": "bytes32"
        },
        {
          "name": "caller",
          "type": "address",
          "internalType": "address"
        }
      ]
    },
    {
      "type": "error",
      "name": "Module__FM_BC_Bancor_Redeeming_VirtualSupply__CurveInteractionsMustBeClosed",
      "inputs": []
    },
    {
      "type": "error",
      "name": "Module__FM_BC_Bancor_Redeeming_VirtualSupply__InvalidBancorFormula",
      "inputs": []
    },
    {
      "type": "error",
      "name": "Module__FM_BC_Bancor_Redeeming_VirtualSupply__InvalidOrchestratorTokenWithdrawAmount",
      "inputs": []
    },
    {
      "type": "error",
      "name": "Module__FM_BC_Bancor_Redeeming_VirtualSupply__InvalidReserveRatio",
      "inputs": []
    },
    {
      "type": "error",
      "name": "Module__FM_BC_Bancor_Redeeming_VirtualSupply__InvalidTokenDecimal",
      "inputs": []
    },
    {
      "type": "error",
      "name": "Module__FM_BC_Restricted_Bancor_Redeeming_VirtualSupply__FeatureDeactivated",
      "inputs": []
    },
    {
      "type": "error",
      "name": "Module__InvalidAddress",
      "inputs": []
    },
    {
      "type": "error",
      "name": "Module__InvalidMetadata",
      "inputs": []
    },
    {
      "type": "error",
      "name": "Module__InvalidOrchestratorAddress",
      "inputs": []
    },
    {
      "type": "error",
      "name": "Module__OnlyCallableByOrchestrator",
      "inputs": []
    },
    {
      "type": "error",
      "name": "Module__OnlyCallableByPaymentClient",
      "inputs": []
    },
    {
      "type": "error",
      "name": "Module__RedeemingBondingCurveBase__InsufficientCollateralForRedemption",
      "inputs": []
    },
    {
      "type": "error",
      "name": "Module__RedeemingBondingCurveBase__SellingFunctionaltiesClosed",
      "inputs": []
    },
    {
      "type": "error",
      "name": "Module__VirtualCollateralSupplyBase__AddResultsInOverflow",
      "inputs": []
    },
    {
      "type": "error",
      "name": "Module__VirtualCollateralSupplyBase__SubtractResultsInUnderflow",
      "inputs": []
    },
    {
      "type": "error",
      "name": "Module__VirtualCollateralSupplyBase__VirtualSupplyCannotBeZero",
      "inputs": []
    },
    {
      "type": "error",
      "name": "Module__VirtualIssuanceSupplyBase__AddResultsInOverflow",
      "inputs": []
    },
    {
      "type": "error",
      "name": "Module__VirtualIssuanceSupplyBase__SubtractResultsInUnderflow",
      "inputs": []
    },
    {
      "type": "error",
      "name": "Module__VirtualIssuanceSupplyBase__VirtualSupplyCannotBeZero",
      "inputs": []
    },
    {
      "type": "error",
      "name": "NotInitializing",
      "inputs": []
    },
    {
      "type": "error",
      "name": "SafeERC20FailedOperation",
      "inputs": [
        {
          "name": "token",
          "type": "address",
          "internalType": "address"
        }
      ]
    }
  ],
  "bytecode": {
    "object": "0x60a06040523480156200001157600080fd5b5060006080526200002162000027565b620000db565b7ff0c57e16840df040f15088dc2f81fe391c3923bec73e23a9662efc9c229c6a00805468010000000000000000900460ff1615620000785760405163f92ee8a960e01b815260040160405180910390fd5b80546001600160401b0390811614620000d85780546001600160401b0319166001600160401b0390811782556040519081527fc7f505b2f371ae2175ee4913f4499e1f2633a7b5936321eed1cdaeb6115181d29060200160405180910390a15b50565b6080516146f1620000f4600039600050506146f16000f3fe608060405234801561001057600080fd5b506004361061030a5760003560e01c80638ac631e61161019c578063bf75292b116100ee578063d4a6793011610097578063f1eae64a11610071578063f1eae64a1461061b578063fa03330c14610623578063fc0c546a1461062b57600080fd5b8063d4a67930146105ed578063d6febde8146105f5578063d79875eb1461060857600080fd5b8063c6ab5cdc116100c8578063c6ab5cdc146105d4578063cbda8f82146105dc578063d1c6022f146105e557600080fd5b8063bf75292b146105a5578063c5b27dde146105ad578063c6829ba2146105c057600080fd5b8063b66a870c11610150578063ba83c9701161012a578063ba83c97014610582578063bcb619201461058a578063bd0984041461059d57600080fd5b8063b66a870c1461054b578063b74795d91461055e578063b88a2cf61461056f57600080fd5b80639093b01f116101815780639093b01f14610515578063935b7dbd14610522578063a8a539d91461053557600080fd5b80638ac631e6146104ef5780638b4cee081461050257600080fd5b806351cac5de116102605780636c67e807116102095780637998a1c4116101e35780637998a1c4146104cb5780637da0a877146104d35780637feb48a1146104db57600080fd5b80636c67e807146104925780636e423379146104a5578063759cc4b5146104b857600080fd5b8063572b6c051161023a578063572b6c05146104455780636115db1c1461045857806369fcd4ac1461047f57600080fd5b806351cac5de1461040657806354fd4d50146104195780635600f04f1461043d57600080fd5b80632b14ca56116102c25780634a79d50c1161029c5780634a79d50c146103ca5780634b75f54f146103df5780634f893bba146103f357600080fd5b80632b14ca5614610397578063322d2100146103ae57806347062402146103c157600080fd5b80631ca3bc4f116102f35780631ca3bc4f1461034c57806324e3027014610371578063272bbd441461038457600080fd5b806301ffc9a71461030f5780630cc835a314610337575b600080fd5b61032261031d366004613ce7565b61063d565b60405190151581526020015b60405180910390f35b61034a610345366004613d11565b610683565b005b609e546001600160a01b03165b6040516001600160a01b03909116815260200161032e565b61034a61037f366004613d2a565b61076c565b61034a610392366004613d2a565b6109fc565b6103a060d45481565b60405190815260200161032e565b6103a06103bc366004613d11565b610be5565b6103a0609f5481565b6103d2610c8b565b60405161032e9190613df9565b61010754610359906001600160a01b031681565b61034a610401366004613e21565b610d20565b61034a610414366004613d11565b610ee5565b6067546068546069546040805193845260208401929092529082015260600161032e565b6103d2610f41565b610322610453366004613e4d565b610f53565b61010754600160c01b900463ffffffff165b60405163ffffffff909116815260200161032e565b6103a061048d366004613d11565b610fc2565b61034a6104a0366004613e6a565b611060565b61034a6104b3366004613d11565b611285565b61034a6104c6366004613e21565b6112e1565b6103a06113ec565b61035961154a565b6103a06921aaa92b22afaaa9a2a960b11b81565b61034a6104fd366004613eac565b6115b8565b61034a610510366004613d11565b611614565b60d3546103229060ff1681565b61034a610530366004613ec9565b611668565b61010754600160a01b900463ffffffff1661046a565b61034a610559366004613fee565b611736565b6066546001600160a01b0316610359565b61034a61057d366004613eac565b611ae7565b61034a611b43565b61034a610598366004613e6a565b611bc3565b6103a0611db4565b6033546103a0565b61034a6105bb366004613ec9565b611e2e565b609e5461032290600160a01b900460ff1681565b61034a611e9d565b6103a060a05481565b6000546103a0565b61034a611f20565b61034a6106033660046140d4565b611fa9565b61034a6106163660046140d4565b611fc7565b61034a611fe1565b6103a0612064565b610108546001600160a01b0316610359565b60006001600160e01b0319821663fbfcffd560e01b148061066e57506001600160e01b0319821663899090df60e01b145b8061067d575061067d82612096565b92915050565b6066546040805163d09edf3160e01b81529051610760926001600160a01b03169163d09edf319160048083019260209291908290030181865afa1580156106ce573d6000803e3d6000fd5b505050506040513d601f19601f820116820180604052508101906106f291906140f6565b6001600160a01b031663b3ecf2366040518163ffffffff1660e01b8152600401602060405180830381865afa15801561072f573d6000803e3d6000fd5b505050506040513d601f19601f820116820180604052508101906107539190614113565b61075b6120bb565b61210d565b6107698161222b565b50565b826000606660009054906101000a90046001600160a01b03166001600160a01b031663d09edf316040518163ffffffff1660e01b8152600401602060405180830381865afa1580156107c2573d6000803e3d6000fd5b505050506040513d601f19601f820116820180604052508101906107e691906140f6565b60405163fdd5205f60e01b8152306004820152602481018490526001600160a01b03919091169063fdd5205f90604401602060405180830381865afa158015610833573d6000803e3d6000fd5b505050506040513d601f19601f820116820180604052508101906108579190614113565b905061091d606660009054906101000a90046001600160a01b03166001600160a01b031663d09edf316040518163ffffffff1660e01b8152600401602060405180830381865afa1580156108af573d6000803e3d6000fd5b505050506040513d601f19601f820116820180604052508101906108d391906140f6565b6001600160a01b031663248a9ca3836040518263ffffffff1660e01b815260040161090091815260200190565b602060405180830381865afa15801561072f573d6000803e3d6000fd5b606660009054906101000a90046001600160a01b03166001600160a01b031663d09edf316040518163ffffffff1660e01b8152600401602060405180830381865afa158015610970573d6000803e3d6000fd5b505050506040513d601f19601f8201168201806040525081019061099491906140f6565b6001600160a01b0316637d540a648686866040518463ffffffff1660e01b81526004016109c39392919061412c565b600060405180830381600087803b1580156109dd57600080fd5b505af11580156109f1573d6000803e3d6000fd5b505050505050505050565b826000606660009054906101000a90046001600160a01b03166001600160a01b031663d09edf316040518163ffffffff1660e01b8152600401602060405180830381865afa158015610a52573d6000803e3d6000fd5b505050506040513d601f19601f82011682018060405250810190610a7691906140f6565b60405163fdd5205f60e01b8152306004820152602481018490526001600160a01b03919091169063fdd5205f90604401602060405180830381865afa158015610ac3573d6000803e3d6000fd5b505050506040513d601f19601f82011682018060405250810190610ae79190614113565b9050610b3f606660009054906101000a90046001600160a01b03166001600160a01b031663d09edf316040518163ffffffff1660e01b8152600401602060405180830381865afa1580156108af573d6000803e3d6000fd5b606660009054906101000a90046001600160a01b03166001600160a01b031663d09edf316040518163ffffffff1660e01b8152600401602060405180830381865afa158015610b92573d6000803e3d6000fd5b505050506040513d601f19601f82011682018060405250810190610bb691906140f6565b6001600160a01b031663648154538686866040518463ffffffff1660e01b81526004016109c39392919061412c565b6000610bf2826001612276565b60408051808201909152601c81527f5f6275794f7264657228616464726573732c75696e742c75696e742900000000602090910152600080610c537fdb2c93faffa8f98d8bcd55cf740e8ead65ac1699aaf6ee8a00820485fc802af66122b8565b935093505050610c668483609f546122e1565b50909450610c809050610c78856123b0565b8260006122e1565b509095945050505050565b606060676004018054610c9d90614184565b80601f0160208091040260200160405190810160405280929190818152602001828054610cc990614184565b8015610d165780601f10610ceb57610100808354040283529160200191610d16565b820191906000526020600020905b815481529060010190602001808311610cf957829003601f168201915b5050505050905090565b81610d2a816124cc565b6066546040805163d09edf3160e01b81529051610d75926001600160a01b03169163d09edf319160048083019260209291908290030181865afa1580156106ce573d6000803e3d6000fd5b60a054821115610d98576040516347d1bcf560e01b815260040160405180910390fd5b8160a06000828254610daa91906141d4565b92505081905550610e9e8383606660009054906101000a90046001600160a01b03166001600160a01b03166304baed9e6040518163ffffffff1660e01b8152600401602060405180830381865afa158015610e09573d6000803e3d6000fd5b505050506040513d601f19601f82011682018060405250810190610e2d91906140f6565b6001600160a01b031663fc0c546a6040518163ffffffff1660e01b8152600401602060405180830381865afa158015610e6a573d6000803e3d6000fd5b505050506040513d601f19601f82011682018060405250810190610e8e91906140f6565b6001600160a01b03169190612508565b604080516001600160a01b0385168152602081018490527f9e9a785b42ae3ce89ea11b526c656a7cacbd520b83908336dc8c9f4e9be9135f910160405180910390a1505050565b6066546040805163d09edf3160e01b81529051610f30926001600160a01b03169163d09edf319160048083019260209291908290030181865afa1580156106ce573d6000803e3d6000fd5b610f38612581565b610769816125c5565b606060676003018054610c9d90614184565b60665460405163572b6c0560e01b81526001600160a01b038381166004830152600092169063572b6c0590602401602060405180830381865afa158015610f9e573d6000803e3d6000fd5b505050506040513d601f19601f8201168201806040525081019061067d91906141fc565b6000610fcf826001612276565b60408051808201909152601d81527f5f73656c6c4f7264657228616464726573732c75696e742c75696e74290000006020909101526000806110307f3299ac1e4997da1dd638584692e27ee6e952ca63f8284764a73c592284e1d9e86122b8565b935093505050611042848260006122e1565b50909450611051905084612620565b9250610c80838360d4546122e1565b816000606660009054906101000a90046001600160a01b03166001600160a01b031663d09edf316040518163ffffffff1660e01b8152600401602060405180830381865afa1580156110b6573d6000803e3d6000fd5b505050506040513d601f19601f820116820180604052508101906110da91906140f6565b60405163fdd5205f60e01b8152306004820152602481018490526001600160a01b03919091169063fdd5205f90604401602060405180830381865afa158015611127573d6000803e3d6000fd5b505050506040513d601f19601f8201168201806040525081019061114b9190614113565b90506111a3606660009054906101000a90046001600160a01b03166001600160a01b031663d09edf316040518163ffffffff1660e01b8152600401602060405180830381865afa1580156108af573d6000803e3d6000fd5b606660009054906101000a90046001600160a01b03166001600160a01b031663d09edf316040518163ffffffff1660e01b8152600401602060405180830381865afa1580156111f6573d6000803e3d6000fd5b505050506040513d601f19601f8201168201806040525081019061121a91906140f6565b60405163385e205560e21b8152600481018690526001600160a01b038581166024830152919091169063e1788154906044015b600060405180830381600087803b15801561126757600080fd5b505af115801561127b573d6000803e3d6000fd5b5050505050505050565b6066546040805163d09edf3160e01b815290516112d0926001600160a01b03169163d09edf319160048083019260209291908290030181865afa1580156106ce573d6000803e3d6000fd5b6112d8612581565b6107698161273b565b6112e9612744565b60a054610108546001600160a01b03166040516370a0823160e01b81523060048201526001600160a01b0391909116906370a0823190602401602060405180830381865afa15801561133f573d6000803e3d6000fd5b505050506040513d601f19601f820116820180604052508101906113639190614113565b61136d91906141d4565b81111561138d57604051633b27877360e11b815260040160405180910390fd5b6113a58282610e8e610108546001600160a01b031690565b816001600160a01b03167fe88292c5f714100904272672c0420345093bd0e3c5555d31f3e4e2cf5f6ca8a1826040516113e091815260200190565b60405180910390a25050565b600061154560676040518060a001604052908160008201548152602001600182015481526020016002820154815260200160038201805461142c90614184565b80601f016020809104026020016040519081016040528092919081815260200182805461145890614184565b80156114a55780601f1061147a576101008083540402835291602001916114a5565b820191906000526020600020905b81548152906001019060200180831161148857829003601f168201915b505050505081526020016004820180546114be90614184565b80601f01602080910402602001604051908101604052809291908181526020018280546114ea90614184565b80156115375780601f1061150c57610100808354040283529160200191611537565b820191906000526020600020905b81548152906001019060200180831161151a57829003601f168201915b505050505081525050612865565b905090565b60665460408051637da0a87760e01b815290516000926001600160a01b031691637da0a8779160048083019260209291908290030181865afa158015611594573d6000803e3d6000fd5b505050506040513d601f19601f8201168201806040525081019061154591906140f6565b6066546040805163d09edf3160e01b81529051611603926001600160a01b03169163d09edf319160048083019260209291908290030181865afa1580156106ce573d6000803e3d6000fd5b61160b612581565b610769816128a5565b6066546040805163d09edf3160e01b8152905161165f926001600160a01b03169163d09edf319160048083019260209291908290030181865afa1580156106ce573d6000803e3d6000fd5b6107698161293a565b6921aaa92b22afaaa9a2a960b11b611725606660009054906101000a90046001600160a01b03166001600160a01b031663d09edf316040518163ffffffff1660e01b8152600401602060405180830381865afa1580156116cc573d6000803e3d6000fd5b505050506040513d601f19601f820116820180604052508101906116f091906140f6565b60405163fdd5205f60e01b8152306004820152602481018490526001600160a01b03919091169063fdd5205f90604401610900565b611730848484612985565b50505050565b7ff0c57e16840df040f15088dc2f81fe391c3923bec73e23a9662efc9c229c6a00805468010000000000000000810460ff16159067ffffffffffffffff166000811580156117815750825b905060008267ffffffffffffffff16600114801561179e5750303b155b9050811580156117ac575080155b156117ca5760405163f92ee8a960e01b815260040160405180910390fd5b845467ffffffffffffffff1916600117855583156117fe57845468ff00000000000000001916680100000000000000001785555b61180888886129cc565b6040805161012081018252600080825260208201819052918101829052606081018290526080810182905260a0810182905260c0810182905260e081018290526101008101829052600088806020019051810190611866919061422d565b61010880546001600160a01b0319166001600160a01b0383169081179091556040805163313ce56760e01b815290519497509295509093509163313ce567916004808201926020929091908290030181865afa1580156118ca573d6000803e3d6000fd5b505050506040513d601f19601f820116820180604052508101906118ee9190614301565b61010860146101000a81548160ff021916908360ff16021790555061191283612aba565b81516040516301ffc9a760e01b815262aa06a760e31b60048201526001600160a01b03909116906301ffc9a790602401602060405180830381865afa15801561195f573d6000803e3d6000fd5b505050506040513d601f19601f8201168201806040525081019061198391906141fc565b6119a05760405163a112ddf960e01b815260040160405180910390fd5b815161010780546001600160a01b0319166001600160a01b0390921691909117905560e08201516119d0906125c5565b6119de82610100015161273b565b6119eb82602001516128a5565b6119f88260400151612be8565b611a05826060015161222b565b611a12826080015161293a565b60a0820151609e805460ff60a01b1916600160a01b921515830217905560c083015160d3805460ff19169115159190911790556101085460405160ff929091049190911681526001600160a01b038216907fdec758d17e6001f7ae45d3316ad54ed6b6e932cef251881f0f51390b69e00d279060200160405180910390a2505050831561127b57845468ff000000000000000019168555604051600181527fc7f505b2f371ae2175ee4913f4499e1f2633a7b5936321eed1cdaeb6115181d29060200160405180910390a15050505050505050565b6066546040805163d09edf3160e01b81529051611b32926001600160a01b03169163d09edf319160048083019260209291908290030181865afa1580156106ce573d6000803e3d6000fd5b611b3a612581565b61076981612be8565b6066546040805163d09edf3160e01b81529051611b8e926001600160a01b03169163d09edf319160048083019260209291908290030181865afa1580156106ce573d6000803e3d6000fd5b60d3805460ff191690556040517fc34ae80cb7f967a799992108cfbc90770413d60555d5b0587a4c2c3e69c79ca490600090a1565b816000606660009054906101000a90046001600160a01b03166001600160a01b031663d09edf316040518163ffffffff1660e01b8152600401602060405180830381865afa158015611c19573d6000803e3d6000fd5b505050506040513d601f19601f82011682018060405250810190611c3d91906140f6565b60405163fdd5205f60e01b8152306004820152602481018490526001600160a01b03919091169063fdd5205f90604401602060405180830381865afa158015611c8a573d6000803e3d6000fd5b505050506040513d601f19601f82011682018060405250810190611cae9190614113565b9050611d06606660009054906101000a90046001600160a01b03166001600160a01b031663d09edf316040518163ffffffff1660e01b8152600401602060405180830381865afa1580156108af573d6000803e3d6000fd5b606660009054906101000a90046001600160a01b03166001600160a01b031663d09edf316040518163ffffffff1660e01b8152600401602060405180830381865afa158015611d59573d6000803e3d6000fd5b505050506040513d601f19601f82011682018060405250810190611d7d91906140f6565b604051632e99be7f60e21b8152600481018690526001600160a01b038581166024830152919091169063ba66f9fc9060440161124d565b6101075460008054610108549192600160c01b900463ffffffff1691611de69190600160a81b900460ff166012612c7d565b611df09190614324565b60335461010854611e0d9190600160a01b900460ff166012612c7d565b611e1a620f424080614324565b611e249190614324565b611545919061433b565b6921aaa92b22afaaa9a2a960b11b611e92606660009054906101000a90046001600160a01b03166001600160a01b031663d09edf316040518163ffffffff1660e01b8152600401602060405180830381865afa1580156116cc573d6000803e3d6000fd5b611730848484612cef565b6066546040805163d09edf3160e01b81529051611ee8926001600160a01b03169163d09edf319160048083019260209291908290030181865afa1580156106ce573d6000803e3d6000fd5b609e805460ff60a01b191690556040517f44c1679cca34073ce70fed616f995237808d9599a35669fd39f3afd053e2b9b190600090a1565b6066546040805163d09edf3160e01b81529051611f6b926001600160a01b03169163d09edf319160048083019260209291908290030181865afa1580156106ce573d6000803e3d6000fd5b609e805460ff60a01b1916600160a01b1790556040517fe404df37e2f7360b624914a082278de0f9e7da04a61eaab0a8d3d26b52bc0b1990600090a1565b611fb1612d2f565b611fc3611fbc6120bb565b8383611668565b5050565b611fcf612d59565b611fc3611fda6120bb565b8383611e2e565b6066546040805163d09edf3160e01b8152905161202c926001600160a01b03169163d09edf319160048083019260209291908290030181865afa1580156106ce573d6000803e3d6000fd5b60d3805460ff191660011790556040517f9d47627df4f01d3bff516199297ca647fe2ea0448c4f2925ef8c16d614a51a7c90600090a1565b6101075460008054610108549192600160a01b900463ffffffff1691611de69190600160a81b900460ff166012612c7d565b60006001600160e01b031982166306fa99af60e01b148061067d575061067d82612d7c565b60003660146120c933610f53565b80156120d55750808210155b15612105576000366120e783856141d4565b6120f292829061435d565b6120fb91614387565b60601c9250505090565b339250505090565b606660009054906101000a90046001600160a01b03166001600160a01b031663d09edf316040518163ffffffff1660e01b8152600401602060405180830381865afa158015612160573d6000803e3d6000fd5b505050506040513d601f19601f8201168201806040525081019061218491906140f6565b60405163a883867d60e01b8152600481018490526001600160a01b038381166024830152919091169063a883867d90604401602060405180830381865afa1580156121d3573d6000803e3d6000fd5b505050506040513d601f19601f820116820180604052508101906121f791906141fc565b611fc3576040516342abbb7760e01b8152600481018390526001600160a01b03821660248201526044015b60405180910390fd5b61223481612da1565b609f546040805183815260208101929092527f28e297c7c282931a994191b735b01eaf17558295f761512a7047f4e1b8dc3b0b910160405180910390a1609f55565b8160000361229757604051631d67ff5760e11b815260040160405180910390fd5b80600003611fc35760405163d8674d0d60e01b815260040160405180910390fd5b6000806000806122c785612dc4565b945091506122d485612f2b565b9496949550919391925050565b600080806127106122f285876143bc565b10612310576040516304e0874960e11b815260040160405180910390fd5b8415612350576127106123238688614324565b61232d919061433b565b91508160000361235057604051639c43a82560e01b815260040160405180910390fd5b8315612390576127106123638588614324565b61236d919061433b565b90508060000361239057604051639c43a82560e01b815260040160405180910390fd5b8061239b83886141d4565b6123a591906141d4565b925093509350939050565b610107546000805461010854919283926001600160a01b03909116916329a00e7c916123e89190600160a81b900460ff166012612c7d565b603354610108546124059190600160a01b900460ff166012612c7d565b610107546101085463ffffffff600160a01b92839004169161242f918a9160ff9104166012612c7d565b6040516001600160e01b031960e087901b1681526004810194909452602484019290925263ffffffff1660448301526064820152608401602060405180830381865afa158015612483573d6000803e3d6000fd5b505050506040513d601f19601f820116820180604052508101906124a79190614113565b90506124c581601261010860159054906101000a900460ff16612c7d565b9392505050565b6001600160a01b03811615806124ea57506001600160a01b03811630145b156107695760405163364f556160e11b815260040160405180910390fd5b6040516001600160a01b0383811660248301526044820183905261257c91859182169063a9059cbb906064015b604051602081830303815290604052915060e01b6020820180517bffffffffffffffffffffffffffffffffffffffffffffffffffffffff838183161783525050505061304d565b505050565b609e54600160a01b900460ff161515600114806125a5575060d35460ff1615156001145b156125c357604051631a8e579560e21b815260040160405180910390fd5b565b61010854600090600160a81b900460ff1660128111156125ed576125ea6012826141d4565b91505b6125f882600a6144b3565b8310156126175760405162ece6a560e71b815260040160405180910390fd5b61257c836130b0565b610107546000805461010854919283926001600160a01b03909116916349f9b0f7916126589190600160a81b900460ff166012612c7d565b603354610108546126759190600160a01b900460ff166012612c7d565b61010760189054906101000a900463ffffffff166126a58861010860159054906101000a900460ff166012612c7d565b6040516001600160e01b031960e087901b1681526004810194909452602484019290925263ffffffff1660448301526064820152608401602060405180830381865afa1580156126f9573d6000803e3d6000fd5b505050506040513d601f19601f8201168201806040525081019061271d9190614113565b90506124c581601261010860149054906101000a900460ff16612c7d565b61076981613112565b6066546001600160a01b03166342f6e38961275d6120bb565b6040516001600160e01b031960e084901b1681526001600160a01b039091166004820152602401602060405180830381865afa1580156127a1573d6000803e3d6000fd5b505050506040513d601f19601f820116820180604052508101906127c591906141fc565b158061284757506127d46120bb565b6040516301ffc9a760e01b815263286309c760e01b60048201526001600160a01b0391909116906301ffc9a790602401602060405180830381865afa158015612821573d6000803e3d6000fd5b505050506040513d601f19601f8201168201806040525081019061284591906141fc565b155b156125c357604051631b793e7f60e21b815260040160405180910390fd5b6000816000015182606001518360800151604051602001612888939291906144bf565b604051602081830303815290604052805190602001209050919050565b6128ae81613175565b610107546040805163ffffffff8085168252600160a01b90930490921660208301527f27c191dfc402c5c90b6333b6adc108fe15c0c368ccd3a50ec1d702f9288b8648910160405180910390a1610107805463ffffffff909216600160a01b027fffffffffffffffff00000000ffffffffffffffffffffffffffffffffffffffff909216919091179055565b61294381612da1565b60d4546040805183815260208101929092527f5bafec153d96f8ef37761b64348732b41a6b477401d244a5070f9f82d689adce910160405180910390a160d455565b8261298f816124cc565b612997612d2f565b6000806129a58686866131ae565b915091506129b282613425565b6129c46129bf82876141d4565b61349b565b505050505050565b6129d461350b565b6001600160a01b0382166129fb57604051637280679360e01b815260040160405180910390fd5b606680546001600160a01b0319166001600160a01b038416179055612a1f81613559565b612a3c57604051637511254160e01b815260040160405180910390fd5b80516067908155602082015160685560408201516069556060820151829190606a90612a689082614532565b5060808201516004820190612a7d9082614532565b50905050816001600160a01b03167fd5f3f84c2e1816ce290af84d002663800b02f2985d770cdd335de76fd723b730826040516113e091906145f2565b6000816001600160a01b031663313ce5676040518163ffffffff1660e01b8152600401602060405180830381865afa158015612afa573d6000803e3d6000fd5b505050506040513d601f19601f82011682018060405250810190612b1e9190614301565b905060078160ff161080612b4257506101085460ff600160a01b9091048116908216105b15612b6057604051638feffdc960e01b815260040160405180910390fd5b609e80546001600160a01b0319166001600160a01b03841690811790915561010880547fffffffffffffffffffff00ffffffffffffffffffffffffffffffffffffffffff16600160a81b60ff8516908102919091179091556040519081527f4e547b7c6b59d324fecdb926aa12300420faf3a7e12a412eb7e0da193bb0d93e906020016113e0565b612bf181613175565b610107546040805163ffffffff8085168252600160c01b90930490921660208301527fd60e348cd25e6e7624733f552b6499f3d296a6c2d464fa0ca109b41d7453b3ca910160405180910390a1610107805463ffffffff909216600160c01b027fffffffff00000000ffffffffffffffffffffffffffffffffffffffffffffffff909216919091179055565b60008160ff168360ff1603612c935750826124c5565b8160ff168360ff161115612ccc576000612cad8385614652565b612cb890600a61466b565b9050612cc4818661433b565b9150506124c5565b6000612cd88484614652565b612ce390600a61466b565b9050612cc48186614324565b82612cf9816124cc565b612d01612d59565b600080612d0f8686866135b9565b9092509050612d26612d2182876141d4565b613882565b6129c482613908565b609e54600160a01b900460ff166125c357604051630afe354360e11b815260040160405180910390fd5b60d35460ff166125c3576040516374d0357560e11b815260040160405180910390fd5b60006001600160e01b03198216630bbeca6160e01b148061067d575061067d8261398f565b61271081111561076957604051633ef38b5b60e11b815260040160405180910390fd5b600080606660009054906101000a90046001600160a01b03166001600160a01b0316630c340a246040518163ffffffff1660e01b8152600401602060405180830381865afa158015612e1a573d6000803e3d6000fd5b505050506040513d601f19601f82011682018060405250810190612e3e91906140f6565b6001600160a01b031663f2d638266040518163ffffffff1660e01b8152600401602060405180830381865afa158015612e7b573d6000803e3d6000fd5b505050506040513d601f19601f82011682018060405250810190612e9f91906140f6565b606654604051634d970f5560e11b81526001600160a01b0391821660048201523060248201526001600160e01b031986166044820152911690639b2e1eaa906064015b6040805180830381865afa158015612efe573d6000803e3d6000fd5b505050506040513d601f19601f82011682018060405250810190612f22919061467a565b91509150915091565b600080606660009054906101000a90046001600160a01b03166001600160a01b0316630c340a246040518163ffffffff1660e01b8152600401602060405180830381865afa158015612f81573d6000803e3d6000fd5b505050506040513d601f19601f82011682018060405250810190612fa591906140f6565b6001600160a01b031663f2d638266040518163ffffffff1660e01b8152600401602060405180830381865afa158015612fe2573d6000803e3d6000fd5b505050506040513d601f19601f8201168201806040525081019061300691906140f6565b6066546040516304e53bb360e01b81526001600160a01b0391821660048201523060248201526001600160e01b0319861660448201529116906304e53bb390606401612ee2565b60006130626001600160a01b038416836139b4565b9050805160001415801561308757508080602001905181019061308591906141fc565b155b1561257c57604051635274afe760e01b81526001600160a01b0384166004820152602401612222565b806000036130d05760405162ece6a560e71b815260040160405180910390fd5b6000546040805183815260208101929092527fc60744c6ab5be4d0d7daa24905289cce0ac3a7c5ca60742bb43e367f54267542910160405180910390a1600055565b8060000361313357604051635f60529f60e01b815260040160405180910390fd5b6033546040805183815260208101929092527f09a070adb6f2c823cf65438ad36e4d03c24d94dd2ad6ebb19dd02d09ca1fa03f910160405180910390a1603355565b63ffffffff811615806131905750620f424063ffffffff8216115b156107695760405163623115ff60e01b815260040160405180910390fd5b6000806131bb8484612276565b6066546040805163025d76cf60e11b815290516000926001600160a01b0316916304baed9e9160048083019260209291908290030181865afa158015613205573d6000803e3d6000fd5b505050506040513d601f19601f8201168201806040525081019061322991906140f6565b6001600160a01b031663fc0c546a6040518163ffffffff1660e01b8152600401602060405180830381865afa158015613266573d6000803e3d6000fd5b505050506040513d601f19601f8201168201806040525081019061328a91906140f6565b90506132a96132976120bb565b6001600160a01b0383169030886139c2565b60408051808201909152601c81527f5f6275794f7264657228616464726573732c75696e742c75696e742900000000602090910152600080808061330c7fdb2c93faffa8f98d8bcd55cf740e8ead65ac1699aaf6ee8a00820485fc802af66122b8565b935093509350935060008060006133268c86609f546122e1565b9194509250905061333781836143bc565b98506133448789846139fb565b8015613362578060a0600082825461335c91906143bc565b90915550505b600061336d846123b0565b9050809a5061337e818660006122e1565b509350905061338d8784613a70565b8b8110156133ae57604051637ac6ada560e01b815260040160405180910390fd5b6133b88e82613acd565b8d6001600160a01b03167fd150a324c4fc8346977d1499aa36cac8c85e6af24bf1486022fad77d05f8b19f8e836133ed6120bb565b6040805193845260208401929092526001600160a01b03169082015260600160405180910390a2505050505050505050935093915050565b600054613434906000196141d4565b81111561345357604051624bb81760e31b815260040160405180910390fd5b600080548201908190556040805183815260208101929092527f7aad1769c7491080279b2d6b032b0e75289a3b12c716abe0333e7be0f70fe12f91015b60405180910390a150565b6033546134aa906000196141d4565b8111156134ca57604051632b8d3fb960e21b815260040160405180910390fd5b603380548201908190556040805183815260208101929092527fb79781f468e2af557e9be98c94e82258c72deac9797eed9d1eb079aba4b0b3ba9101613490565b7ff0c57e16840df040f15088dc2f81fe391c3923bec73e23a9662efc9c229c6a005468010000000000000000900460ff166125c357604051631afcd79f60e31b815260040160405180910390fd5b600081606001515160000361357057506000919050565b81608001515160000361358557506000919050565b815115801561359657506020820151155b80156135a457506040820151155b156135b157506000919050565b506001919050565b6000806135c68484612276565b60408051808201909152601d81527f5f73656c6c4f7264657228616464726573732c75696e742c75696e742900000060209091015260008080806136297f3299ac1e4997da1dd638584692e27ee6e952ca63f8284764a73c592284e1d9e86122b8565b935093509350935060008060006136428b8560006122e1565b5098508893509050600061365582612620565b905080995061366b6136656120bb565b8d613b30565b6136758785613a70565b6066546040805163025d76cf60e11b815290516000926001600160a01b0316916304baed9e9160048083019260209291908290030181865afa1580156136bf573d6000803e3d6000fd5b505050506040513d601f19601f820116820180604052508101906136e391906140f6565b6001600160a01b031663fc0c546a6040518163ffffffff1660e01b8152600401602060405180830381865afa158015613720573d6000803e3d6000fd5b505050506040513d601f19601f8201168201806040525081019061374491906140f6565b6040516370a0823160e01b81523060048201529091506001600160a01b038216906370a0823190602401602060405180830381865afa15801561378b573d6000803e3d6000fd5b505050506040513d601f19601f820116820180604052508101906137af9190614113565b60a0546137bc90846143bc565b11156137db576040516332dcd2bb60e11b815260040160405180910390fd5b6137e8828860d4546122e1565b909650945091506137fa8982876139fb565b8315613818578360a0600082825461381291906143bc565b90915550505b8b82101561383957604051637ac6ada560e01b815260040160405180910390fd5b61384d6001600160a01b0382168f84612508565b8d6001600160a01b03167f7debc712939ce2028bbca7ca90cc85e8fb59a7772e041423d3ec1588af4730ed8e846133ed6120bb565b6000548111156138a5576040516309f5d4ab60e21b815260040160405180910390fd5b60005481036138c65760405162ece6a560e71b815260040160405180910390fd5b60008054829003908190556040805183815260208101929092527ffb531aedaaeb99214c8335d339abd3ff055ecd418763e51672f7d7a6eb91ce5d9101613490565b60335481111561392b57604051635d3da26b60e11b815260040160405180910390fd5b603354810361394d57604051635f60529f60e01b815260040160405180910390fd5b60338054829003908190556040805183815260208101929092527ff90da9caba169a00f9544c3f2cf6e2b5c632fae79eb6116e76ff1f3c1f21472c9101613490565b60006001600160e01b0319821663e328951160e01b148061067d575061067d82613b69565b60606124c583836000613b8f565b6040516001600160a01b0384811660248301528381166044830152606482018390526117309186918216906323b872dd90608401612535565b801561257c57613a0a836124cc565b613a1e6001600160a01b0383168483612508565b826001600160a01b0316826001600160a01b03167f81535d361819544361f80ddbe5071aef378a8ecba1c52f2c45fe3335234c433183604051613a6391815260200190565b60405180910390a3505050565b8015611fc357613a7f826124cc565b613a898282613acd565b6040518181526001600160a01b0383169030907f11a26a26a718a46d85815d79165470744429ab0f3093113929c59c097bbebb9a9060200160405180910390a35050565b609e546040516340c10f1960e01b81526001600160a01b03848116600483015260248201849052909116906340c10f19906044015b600060405180830381600087803b158015613b1c57600080fd5b505af11580156129c4573d6000803e3d6000fd5b609e54604051632770a7eb60e21b81526001600160a01b0384811660048301526024820184905290911690639dc29fac90604401613b02565b600063689b8d2960e11b6001600160e01b031983168114806124c557506124c583613c2c565b606081471015613bb45760405163cd78605960e01b8152306004820152602401612222565b600080856001600160a01b03168486604051613bd0919061469f565b60006040518083038185875af1925050503d8060008114613c0d576040519150601f19603f3d011682016040523d82523d6000602084013e613c12565b606091505b5091509150613c22868383613c62565b9695505050505050565b600063800cc7f160e01b6001600160e01b031983168114806124c557506301ffc9a760e01b6001600160e01b03198416146124c5565b606082613c7757613c7282613cbe565b6124c5565b8151158015613c8e57506001600160a01b0384163b155b15613cb757604051639996b31560e01b81526001600160a01b0385166004820152602401612222565b50806124c5565b805115613cce5780518082602001fd5b604051630a12f52160e11b815260040160405180910390fd5b600060208284031215613cf957600080fd5b81356001600160e01b0319811681146124c557600080fd5b600060208284031215613d2357600080fd5b5035919050565b600080600060408486031215613d3f57600080fd5b83359250602084013567ffffffffffffffff80821115613d5e57600080fd5b818601915086601f830112613d7257600080fd5b813581811115613d8157600080fd5b8760208260051b8501011115613d9657600080fd5b6020830194508093505050509250925092565b60005b83811015613dc4578181015183820152602001613dac565b50506000910152565b60008151808452613de5816020860160208601613da9565b601f01601f19169290920160200192915050565b6020815260006124c56020830184613dcd565b6001600160a01b038116811461076957600080fd5b60008060408385031215613e3457600080fd5b8235613e3f81613e0c565b946020939093013593505050565b600060208284031215613e5f57600080fd5b81356124c581613e0c565b60008060408385031215613e7d57600080fd5b823591506020830135613e8f81613e0c565b809150509250929050565b63ffffffff8116811461076957600080fd5b600060208284031215613ebe57600080fd5b81356124c581613e9a565b600080600060608486031215613ede57600080fd5b8335613ee981613e0c565b95602085013595506040909401359392505050565b634e487b7160e01b600052604160045260246000fd5b60405160a0810167ffffffffffffffff81118282101715613f3757613f37613efe565b60405290565b604051610120810167ffffffffffffffff81118282101715613f3757613f37613efe565b600082601f830112613f7257600080fd5b813567ffffffffffffffff80821115613f8d57613f8d613efe565b604051601f8301601f19908116603f01168101908282118183101715613fb557613fb5613efe565b81604052838152866020858801011115613fce57600080fd5b836020870160208301376000602085830101528094505050505092915050565b60008060006060848603121561400357600080fd5b833561400e81613e0c565b9250602084013567ffffffffffffffff8082111561402b57600080fd5b9085019060a0828803121561403f57600080fd5b614047613f14565b82358152602083013560208201526040830135604082015260608301358281111561407157600080fd5b61407d89828601613f61565b60608301525060808301358281111561409557600080fd5b6140a189828601613f61565b608083015250935060408601359150808211156140bd57600080fd5b506140ca86828701613f61565b9150509250925092565b600080604083850312156140e757600080fd5b50508035926020909101359150565b60006020828403121561410857600080fd5b81516124c581613e0c565b60006020828403121561412557600080fd5b5051919050565b83815260406020808301829052908201839052600090849060608401835b8681101561417857833561415d81613e0c565b6001600160a01b03168252928201929082019060010161414a565b50979650505050505050565b600181811c9082168061419857607f821691505b6020821081036141b857634e487b7160e01b600052602260045260246000fd5b50919050565b634e487b7160e01b600052601160045260246000fd5b8181038181111561067d5761067d6141be565b805180151581146141f757600080fd5b919050565b60006020828403121561420e57600080fd5b6124c5826141e7565b80516141f781613e0c565b80516141f781613e9a565b600080600083850361016081121561424457600080fd5b845161424f81613e0c565b9350610120601f19820181131561426557600080fd5b61426d613f3d565b915061427b60208701614217565b825261428960408701614222565b602083015261429a60608701614222565b60408301526080860151606083015260a086015160808301526142bf60c087016141e7565b60a08301526142d060e087016141e7565b60c08301526101008681015160e0840152908601519082015291506142f86101408501614217565b90509250925092565b60006020828403121561431357600080fd5b815160ff811681146124c557600080fd5b808202811582820484141761067d5761067d6141be565b60008261435857634e487b7160e01b600052601260045260246000fd5b500490565b6000808585111561436d57600080fd5b8386111561437a57600080fd5b5050820193919092039150565b6bffffffffffffffffffffffff1981358181169160148510156143b45780818660140360031b1b83161692505b505092915050565b8082018082111561067d5761067d6141be565b600181815b8085111561440a5781600019048211156143f0576143f06141be565b808516156143fd57918102915b93841c93908002906143d4565b509250929050565b6000826144215750600161067d565b8161442e5750600061067d565b8160018114614444576002811461444e5761446a565b600191505061067d565b60ff84111561445f5761445f6141be565b50506001821b61067d565b5060208310610133831016604e8410600b841016171561448d575081810a61067d565b61449783836143cf565b80600019048211156144ab576144ab6141be565b029392505050565b60006124c58383614412565b8381526060602082015260006144d86060830185613dcd565b8281036040840152613c228185613dcd565b601f82111561257c576000816000526020600020601f850160051c810160208610156145135750805b601f850160051c820191505b818110156129c45782815560010161451f565b815167ffffffffffffffff81111561454c5761454c613efe565b6145608161455a8454614184565b846144ea565b602080601f831160018114614595576000841561457d5750858301515b600019600386901b1c1916600185901b1785556129c4565b600085815260208120601f198616915b828110156145c4578886015182559484019460019091019084016145a5565b50858210156145e25787850151600019600388901b60f8161c191681555b5050505050600190811b01905550565b602081528151602082015260208201516040820152604082015160608201526000606083015160a0608084015261462c60c0840182613dcd565b90506080840151601f198483030160a08501526146498282613dcd565b95945050505050565b60ff828116828216039081111561067d5761067d6141be565b60006124c560ff841683614412565b6000806040838503121561468d57600080fd5b825191506020830151613e8f81613e0c565b600082516146b1818460208701613da9565b919091019291505056fea26469706673582212207390d1495a6620643d3e9a4228aaf5b527eb7b81bb68d94e3ac189afca8d630764736f6c63430008170033",
    "linkReferences": {}
  },
  "methodIdentifiers": {
    "CURVE_INTERACTION_ROLE()": "7feb48a1",
    "buy(uint256,uint256)": "d6febde8",
    "buyFee()": "47062402",
    "buyFor(address,uint256,uint256)": "935b7dbd",
    "buyIsOpen()": "c6829ba2",
    "calculatePurchaseReturn(uint256)": "322d2100",
    "calculateSaleReturn(uint256)": "69fcd4ac",
    "closeBuy()": "c6ab5cdc",
    "closeSell()": "ba83c970",
    "formula()": "4b75f54f",
    "getIssuanceToken()": "1ca3bc4f",
    "getReserveRatioForBuying()": "a8a539d9",
    "getReserveRatioForSelling()": "6115db1c",
    "getStaticPriceForBuying()": "fa03330c",
    "getStaticPriceForSelling()": "bd098404",
    "getVirtualCollateralSupply()": "bf75292b",
    "getVirtualIssuanceSupply()": "d1c6022f",
    "grantModuleRole(bytes32,address)": "6c67e807",
    "grantModuleRoleBatched(bytes32,address[])": "272bbd44",
    "identifier()": "7998a1c4",
    "init(address,(uint256,uint256,uint256,string,string),bytes)": "b66a870c",
    "isTrustedForwarder(address)": "572b6c05",
    "openBuy()": "d4a67930",
    "openSell()": "f1eae64a",
    "orchestrator()": "b74795d9",
    "projectCollateralFeeCollected()": "cbda8f82",
    "revokeModuleRole(bytes32,address)": "bcb61920",
    "revokeModuleRoleBatched(bytes32,address[])": "24e30270",
    "sell(uint256,uint256)": "d79875eb",
    "sellFee()": "2b14ca56",
    "sellIsOpen()": "9093b01f",
    "sellTo(address,uint256,uint256)": "c5b27dde",
    "setBuyFee(uint256)": "0cc835a3",
    "setReserveRatioForBuying(uint32)": "8ac631e6",
    "setReserveRatioForSelling(uint32)": "b88a2cf6",
    "setSellFee(uint256)": "8b4cee08",
    "setVirtualCollateralSupply(uint256)": "6e423379",
    "setVirtualIssuanceSupply(uint256)": "51cac5de",
    "supportsInterface(bytes4)": "01ffc9a7",
    "title()": "4a79d50c",
    "token()": "fc0c546a",
    "transferOrchestratorToken(address,uint256)": "759cc4b5",
    "trustedForwarder()": "7da0a877",
    "url()": "5600f04f",
    "version()": "54fd4d50",
    "withdrawProjectCollateralFee(address,uint256)": "4f893bba"
  },
  "id": 109
}