{
  "abi": [
    {
      "type": "function",
      "name": "COVER_MANAGER_ROLE",
      "inputs": [],
      "outputs": [
        {
          "name": "",
          "type": "bytes32",
          "internalType": "bytes32"
        }
      ],
      "stateMutability": "view"
    },
    {
      "type": "function",
      "name": "CURVE_INTERACTION_ROLE",
      "inputs": [],
      "outputs": [
        {
          "name": "",
          "type": "bytes32",
          "internalType": "bytes32"
        }
      ],
      "stateMutability": "view"
    },
    {
      "type": "function",
      "name": "MAX_FEE",
      "inputs": [],
      "outputs": [
        {
          "name": "",
          "type": "uint64",
          "internalType": "uint64"
        }
      ],
      "stateMutability": "view"
    },
    {
      "type": "function",
      "name": "MAX_SEIZE",
      "inputs": [],
      "outputs": [
        {
          "name": "",
          "type": "uint64",
          "internalType": "uint64"
        }
      ],
      "stateMutability": "view"
    },
    {
      "type": "function",
      "name": "MIN_RESERVE",
      "inputs": [],
      "outputs": [
        {
          "name": "",
          "type": "uint256",
          "internalType": "uint256"
        }
      ],
      "stateMutability": "view"
    },
    {
      "type": "function",
      "name": "RISK_MANAGER_ROLE",
      "inputs": [],
      "outputs": [
        {
          "name": "",
          "type": "bytes32",
          "internalType": "bytes32"
        }
      ],
      "stateMutability": "view"
    },
    {
      "type": "function",
      "name": "SEIZE_DELAY",
      "inputs": [],
      "outputs": [
        {
          "name": "",
          "type": "uint64",
          "internalType": "uint64"
        }
      ],
      "stateMutability": "view"
    },
    {
      "type": "function",
      "name": "adjustSeize",
      "inputs": [
        {
          "name": "seize_",
          "type": "uint64",
          "internalType": "uint64"
        }
      ],
      "outputs": [],
      "stateMutability": "nonpayable"
    },
    {
      "type": "function",
      "name": "burnIssuanceToken",
      "inputs": [
        {
          "name": "amount_",
          "type": "uint256",
          "internalType": "uint256"
        }
      ],
      "outputs": [],
      "stateMutability": "nonpayable"
    },
    {
      "type": "function",
      "name": "burnIssuanceTokenFor",
      "inputs": [
        {
          "name": "owner_",
          "type": "address",
          "internalType": "address"
        },
        {
          "name": "amount_",
          "type": "uint256",
          "internalType": "uint256"
        }
      ],
      "outputs": [],
      "stateMutability": "nonpayable"
    },
    {
      "type": "function",
      "name": "buy",
      "inputs": [
        {
          "name": "depositAmount_",
          "type": "uint256",
          "internalType": "uint256"
        },
        {
          "name": "minAmountOut_",
          "type": "uint256",
          "internalType": "uint256"
        }
      ],
      "outputs": [],
      "stateMutability": "nonpayable"
    },
    {
      "type": "function",
      "name": "buyFee",
      "inputs": [],
      "outputs": [
        {
          "name": "",
          "type": "uint256",
          "internalType": "uint256"
        }
      ],
      "stateMutability": "view"
    },
    {
      "type": "function",
      "name": "buyFor",
      "inputs": [
        {
          "name": "receiver_",
          "type": "address",
          "internalType": "address"
        },
        {
          "name": "depositAmount_",
          "type": "uint256",
          "internalType": "uint256"
        },
        {
          "name": "minAmountOut_",
          "type": "uint256",
          "internalType": "uint256"
        }
      ],
      "outputs": [],
      "stateMutability": "nonpayable"
    },
    {
      "type": "function",
      "name": "buyIsOpen",
      "inputs": [],
      "outputs": [
        {
          "name": "",
          "type": "bool",
          "internalType": "bool"
        }
      ],
      "stateMutability": "view"
    },
    {
      "type": "function",
      "name": "calculateBasePriceToCapitalRatio",
      "inputs": [
        {
          "name": "capitalRequired_",
          "type": "uint256",
          "internalType": "uint256"
        },
        {
          "name": "basePriceMultiplier_",
          "type": "uint256",
          "internalType": "uint256"
        }
      ],
      "outputs": [
        {
          "name": "basePriceTocaptialRatio_",
          "type": "uint256",
          "internalType": "uint256"
        }
      ],
      "stateMutability": "pure"
    },
    {
      "type": "function",
      "name": "calculatePurchaseReturn",
      "inputs": [
        {
          "name": "_depositAmount",
          "type": "uint256",
          "internalType": "uint256"
        }
      ],
      "outputs": [
        {
          "name": "mintAmount",
          "type": "uint256",
          "internalType": "uint256"
        }
      ],
      "stateMutability": "view"
    },
    {
      "type": "function",
      "name": "calculateSaleReturn",
      "inputs": [
        {
          "name": "_depositAmount",
          "type": "uint256",
          "internalType": "uint256"
        }
      ],
      "outputs": [
        {
          "name": "redeemAmount",
          "type": "uint256",
          "internalType": "uint256"
        }
      ],
      "stateMutability": "view"
    },
    {
      "type": "function",
      "name": "closeBuy",
      "inputs": [],
      "outputs": [],
      "stateMutability": "nonpayable"
    },
    {
      "type": "function",
      "name": "closeSell",
      "inputs": [],
      "outputs": [],
      "stateMutability": "nonpayable"
    },
    {
      "type": "function",
      "name": "getBasePriceMultiplier",
      "inputs": [],
      "outputs": [
        {
          "name": "basePriceMultiplier_",
          "type": "uint256",
          "internalType": "uint256"
        }
      ],
      "stateMutability": "view"
    },
    {
      "type": "function",
      "name": "getBasePriceToCapitalRatio",
      "inputs": [],
      "outputs": [
        {
          "name": "basePriceToCapitalRatio_",
          "type": "uint256",
          "internalType": "uint256"
        }
      ],
      "stateMutability": "view"
    },
    {
      "type": "function",
      "name": "getBondingSurfaceFormula",
      "inputs": [],
      "outputs": [
        {
          "name": "formula_",
          "type": "address",
          "internalType": "address"
        }
      ],
      "stateMutability": "view"
    },
    {
      "type": "function",
      "name": "getCapitalRequired",
      "inputs": [],
      "outputs": [
        {
          "name": "capitalRequired_",
          "type": "uint256",
          "internalType": "uint256"
        }
      ],
      "stateMutability": "view"
    },
    {
      "type": "function",
      "name": "getCurrentSeize",
      "inputs": [],
      "outputs": [
        {
          "name": "currentSeize_",
          "type": "uint64",
          "internalType": "uint64"
        }
      ],
      "stateMutability": "view"
    },
    {
      "type": "function",
      "name": "getIssuanceToken",
      "inputs": [],
      "outputs": [
        {
          "name": "",
          "type": "address",
          "internalType": "address"
        }
      ],
      "stateMutability": "view"
    },
    {
      "type": "function",
      "name": "getLastSeizeTimestamp",
      "inputs": [],
      "outputs": [
        {
          "name": "lastSeizeTimestamp_",
          "type": "uint256",
          "internalType": "uint256"
        }
      ],
      "stateMutability": "view"
    },
    {
      "type": "function",
      "name": "getLiquidityVaultController",
      "inputs": [],
      "outputs": [
        {
          "name": "liquidityVaultController_",
          "type": "address",
          "internalType": "address"
        }
      ],
      "stateMutability": "view"
    },
    {
      "type": "function",
      "name": "getRepayableAmount",
      "inputs": [],
      "outputs": [
        {
          "name": "repayableAmount_",
          "type": "uint256",
          "internalType": "uint256"
        }
      ],
      "stateMutability": "view"
    },
    {
      "type": "function",
      "name": "getSeizableAmount",
      "inputs": [],
      "outputs": [
        {
          "name": "amount_",
          "type": "uint256",
          "internalType": "uint256"
        }
      ],
      "stateMutability": "view"
    },
    {
      "type": "function",
      "name": "getStaticPriceForBuying",
      "inputs": [],
      "outputs": [
        {
          "name": "staticPriceForBuying_",
          "type": "uint256",
          "internalType": "uint256"
        }
      ],
      "stateMutability": "view"
    },
    {
      "type": "function",
      "name": "getStaticPriceForSelling",
      "inputs": [],
      "outputs": [
        {
          "name": "staticPriceForSelling_",
          "type": "uint256",
          "internalType": "uint256"
        }
      ],
      "stateMutability": "view"
    },
    {
      "type": "function",
      "name": "getTokenVault",
      "inputs": [],
      "outputs": [
        {
          "name": "tokenVault_",
          "type": "address",
          "internalType": "address"
        }
      ],
      "stateMutability": "view"
    },
    {
      "type": "function",
      "name": "grantModuleRole",
      "inputs": [
        {
          "name": "role",
          "type": "bytes32",
          "internalType": "bytes32"
        },
        {
          "name": "target",
          "type": "address",
          "internalType": "address"
        }
      ],
      "outputs": [],
      "stateMutability": "nonpayable"
    },
    {
      "type": "function",
      "name": "grantModuleRoleBatched",
      "inputs": [
        {
          "name": "role",
          "type": "bytes32",
          "internalType": "bytes32"
        },
        {
          "name": "targets",
          "type": "address[]",
          "internalType": "address[]"
        }
      ],
      "outputs": [],
      "stateMutability": "nonpayable"
    },
    {
      "type": "function",
      "name": "identifier",
      "inputs": [],
      "outputs": [
        {
          "name": "",
          "type": "bytes32",
          "internalType": "bytes32"
        }
      ],
      "stateMutability": "view"
    },
    {
      "type": "function",
      "name": "init",
      "inputs": [
        {
          "name": "orchestrator_",
          "type": "address",
          "internalType": "contract IOrchestrator_v1"
        },
        {
          "name": "metadata_",
          "type": "tuple",
          "internalType": "struct IModule_v1.Metadata",
          "components": [
            {
              "name": "majorVersion",
              "type": "uint256",
              "internalType": "uint256"
            },
            {
              "name": "minorVersion",
              "type": "uint256",
              "internalType": "uint256"
            },
            {
              "name": "patchVersion",
              "type": "uint256",
              "internalType": "uint256"
            },
            {
              "name": "url",
              "type": "string",
              "internalType": "string"
            },
            {
              "name": "title",
              "type": "string",
              "internalType": "string"
            }
          ]
        },
        {
          "name": "configData_",
          "type": "bytes",
          "internalType": "bytes"
        }
      ],
      "outputs": [],
      "stateMutability": "nonpayable"
    },
    {
      "type": "function",
      "name": "isBuyAndSellRestricted",
      "inputs": [],
      "outputs": [
        {
          "name": "buyAndSellIsRestricted_",
          "type": "bool",
          "internalType": "bool"
        }
      ],
      "stateMutability": "view"
    },
    {
      "type": "function",
      "name": "isTrustedForwarder",
      "inputs": [
        {
          "name": "forwarder",
          "type": "address",
          "internalType": "address"
        }
      ],
      "outputs": [
        {
          "name": "",
          "type": "bool",
          "internalType": "bool"
        }
      ],
      "stateMutability": "view"
    },
    {
      "type": "function",
      "name": "openBuy",
      "inputs": [],
      "outputs": [],
      "stateMutability": "nonpayable"
    },
    {
      "type": "function",
      "name": "openSell",
      "inputs": [],
      "outputs": [],
      "stateMutability": "nonpayable"
    },
    {
      "type": "function",
      "name": "orchestrator",
      "inputs": [],
      "outputs": [
        {
          "name": "",
          "type": "address",
          "internalType": "contract IOrchestrator_v1"
        }
      ],
      "stateMutability": "view"
    },
    {
      "type": "function",
      "name": "projectCollateralFeeCollected",
      "inputs": [],
      "outputs": [
        {
          "name": "",
          "type": "uint256",
          "internalType": "uint256"
        }
      ],
      "stateMutability": "view"
    },
    {
      "type": "function",
      "name": "restrictBuyAndSell",
      "inputs": [],
      "outputs": [],
      "stateMutability": "nonpayable"
    },
    {
      "type": "function",
      "name": "revokeModuleRole",
      "inputs": [
        {
          "name": "role",
          "type": "bytes32",
          "internalType": "bytes32"
        },
        {
          "name": "target",
          "type": "address",
          "internalType": "address"
        }
      ],
      "outputs": [],
      "stateMutability": "nonpayable"
    },
    {
      "type": "function",
      "name": "revokeModuleRoleBatched",
      "inputs": [
        {
          "name": "role",
          "type": "bytes32",
          "internalType": "bytes32"
        },
        {
          "name": "targets",
          "type": "address[]",
          "internalType": "address[]"
        }
      ],
      "outputs": [],
      "stateMutability": "nonpayable"
    },
    {
      "type": "function",
      "name": "seize",
      "inputs": [
        {
          "name": "amount_",
          "type": "uint256",
          "internalType": "uint256"
        }
      ],
      "outputs": [],
      "stateMutability": "nonpayable"
    },
    {
      "type": "function",
      "name": "sell",
      "inputs": [
        {
          "name": "depositAmount_",
          "type": "uint256",
          "internalType": "uint256"
        },
        {
          "name": "minAmountOut_",
          "type": "uint256",
          "internalType": "uint256"
        }
      ],
      "outputs": [],
      "stateMutability": "nonpayable"
    },
    {
      "type": "function",
      "name": "sellFee",
      "inputs": [],
      "outputs": [
        {
          "name": "",
          "type": "uint256",
          "internalType": "uint256"
        }
      ],
      "stateMutability": "view"
    },
    {
      "type": "function",
      "name": "sellIsOpen",
      "inputs": [],
      "outputs": [
        {
          "name": "",
          "type": "bool",
          "internalType": "bool"
        }
      ],
      "stateMutability": "view"
    },
    {
      "type": "function",
      "name": "sellTo",
      "inputs": [
        {
          "name": "receiver_",
          "type": "address",
          "internalType": "address"
        },
        {
          "name": "depositAmount_",
          "type": "uint256",
          "internalType": "uint256"
        },
        {
          "name": "minAmountOut_",
          "type": "uint256",
          "internalType": "uint256"
        }
      ],
      "outputs": [],
      "stateMutability": "nonpayable"
    },
    {
      "type": "function",
      "name": "setBasePriceMultiplier",
      "inputs": [
        {
          "name": "newBasePriceMultiplier_",
          "type": "uint256",
          "internalType": "uint256"
        }
      ],
      "outputs": [],
      "stateMutability": "nonpayable"
    },
    {
      "type": "function",
      "name": "setBuyFee",
      "inputs": [
        {
          "name": "_fee",
          "type": "uint256",
          "internalType": "uint256"
        }
      ],
      "outputs": [],
      "stateMutability": "nonpayable"
    },
    {
      "type": "function",
      "name": "setCapitalRequired",
      "inputs": [
        {
          "name": "newCapitalRequired_",
          "type": "uint256",
          "internalType": "uint256"
        }
      ],
      "outputs": [],
      "stateMutability": "nonpayable"
    },
    {
      "type": "function",
      "name": "setLiquidityVaultControllerContract",
      "inputs": [
        {
          "name": "lvc_",
          "type": "address",
          "internalType": "address"
        }
      ],
      "outputs": [],
      "stateMutability": "nonpayable"
    },
    {
      "type": "function",
      "name": "setRepayableAmount",
      "inputs": [
        {
          "name": "amount_",
          "type": "uint256",
          "internalType": "uint256"
        }
      ],
      "outputs": [],
      "stateMutability": "nonpayable"
    },
    {
      "type": "function",
      "name": "setSellFee",
      "inputs": [
        {
          "name": "fee_",
          "type": "uint256",
          "internalType": "uint256"
        }
      ],
      "outputs": [],
      "stateMutability": "nonpayable"
    },
    {
      "type": "function",
      "name": "setTokenVault",
      "inputs": [
        {
          "name": "tokenVault_",
          "type": "address",
          "internalType": "address"
        }
      ],
      "outputs": [],
      "stateMutability": "nonpayable"
    },
    {
      "type": "function",
      "name": "supportsInterface",
      "inputs": [
        {
          "name": "interfaceId_",
          "type": "bytes4",
          "internalType": "bytes4"
        }
      ],
      "outputs": [
        {
          "name": "supportsInterface_",
          "type": "bool",
          "internalType": "bool"
        }
      ],
      "stateMutability": "view"
    },
    {
      "type": "function",
      "name": "title",
      "inputs": [],
      "outputs": [
        {
          "name": "",
          "type": "string",
          "internalType": "string"
        }
      ],
      "stateMutability": "view"
    },
    {
      "type": "function",
      "name": "token",
      "inputs": [],
      "outputs": [
        {
          "name": "token_",
          "type": "address",
          "internalType": "contract IERC20"
        }
      ],
      "stateMutability": "view"
    },
    {
      "type": "function",
      "name": "transferOrchestratorToken",
      "inputs": [
        {
          "name": "to_",
          "type": "address",
          "internalType": "address"
        },
        {
          "name": "amount_",
          "type": "uint256",
          "internalType": "uint256"
        }
      ],
      "outputs": [],
      "stateMutability": "nonpayable"
    },
    {
      "type": "function",
      "name": "transferRepayment",
      "inputs": [
        {
          "name": "to_",
          "type": "address",
          "internalType": "address"
        },
        {
          "name": "amount_",
          "type": "uint256",
          "internalType": "uint256"
        }
      ],
      "outputs": [],
      "stateMutability": "nonpayable"
    },
    {
      "type": "function",
      "name": "trustedForwarder",
      "inputs": [],
      "outputs": [
        {
          "name": "",
          "type": "address",
          "internalType": "address"
        }
      ],
      "stateMutability": "view"
    },
    {
      "type": "function",
      "name": "unrestrictBuyAndSell",
      "inputs": [],
      "outputs": [],
      "stateMutability": "nonpayable"
    },
    {
      "type": "function",
      "name": "url",
      "inputs": [],
      "outputs": [
        {
          "name": "",
          "type": "string",
          "internalType": "string"
        }
      ],
      "stateMutability": "view"
    },
    {
      "type": "function",
      "name": "version",
      "inputs": [],
      "outputs": [
        {
          "name": "",
          "type": "uint256",
          "internalType": "uint256"
        },
        {
          "name": "",
          "type": "uint256",
          "internalType": "uint256"
        },
        {
          "name": "",
          "type": "uint256",
          "internalType": "uint256"
        }
      ],
      "stateMutability": "view"
    },
    {
      "type": "function",
      "name": "withdrawProjectCollateralFee",
      "inputs": [
        {
          "name": "",
          "type": "address",
          "internalType": "address"
        },
        {
          "name": "",
          "type": "uint256",
          "internalType": "uint256"
        }
      ],
      "outputs": [],
      "stateMutability": "view"
    },
    {
      "type": "event",
      "name": "BasePriceMultiplierChanged",
      "inputs": [
        {
          "name": "currentBasePriceMultiplier",
          "type": "uint256",
          "indexed": false,
          "internalType": "uint256"
        },
        {
          "name": "newBasePriceMultiplier",
          "type": "uint256",
          "indexed": false,
          "internalType": "uint256"
        }
      ],
      "anonymous": false
    },
    {
      "type": "event",
      "name": "BasePriceToCapitalRatioChanged",
      "inputs": [
        {
          "name": "currentBasePriceToCapitalRatio",
          "type": "uint256",
          "indexed": false,
          "internalType": "uint256"
        },
        {
          "name": "newBasePriceToCapitalRatio",
          "type": "uint256",
          "indexed": false,
          "internalType": "uint256"
        }
      ],
      "anonymous": false
    },
    {
      "type": "event",
      "name": "BuyAndSellIsRestricted",
      "inputs": [],
      "anonymous": false
    },
    {
      "type": "event",
      "name": "BuyAndSellIsUnrestricted",
      "inputs": [],
      "anonymous": false
    },
    {
      "type": "event",
      "name": "BuyFeeUpdated",
      "inputs": [
        {
          "name": "newBuyFee",
          "type": "uint256",
          "indexed": false,
          "internalType": "uint256"
        },
        {
          "name": "oldBuyFee",
          "type": "uint256",
          "indexed": false,
          "internalType": "uint256"
        }
      ],
      "anonymous": false
    },
    {
      "type": "event",
      "name": "BuyingDisabled",
      "inputs": [],
      "anonymous": false
    },
    {
      "type": "event",
      "name": "BuyingEnabled",
      "inputs": [],
      "anonymous": false
    },
    {
      "type": "event",
      "name": "CapitalRequiredChanged",
      "inputs": [
        {
          "name": "currentCapitalRequired",
          "type": "uint256",
          "indexed": false,
          "internalType": "uint256"
        },
        {
          "name": "newCapitalRequired",
          "type": "uint256",
          "indexed": false,
          "internalType": "uint256"
        }
      ],
      "anonymous": false
    },
    {
      "type": "event",
      "name": "CollateralSeized",
      "inputs": [
        {
          "name": "amount",
          "type": "uint256",
          "indexed": false,
          "internalType": "uint256"
        }
      ],
      "anonymous": false
    },
    {
      "type": "event",
      "name": "Initialized",
      "inputs": [
        {
          "name": "version",
          "type": "uint64",
          "indexed": false,
          "internalType": "uint64"
        }
      ],
      "anonymous": false
    },
    {
      "type": "event",
      "name": "IssuanceTokenSet",
      "inputs": [
        {
          "name": "issuanceToken",
          "type": "address",
          "indexed": true,
          "internalType": "address"
        },
        {
          "name": "decimals",
          "type": "uint8",
          "indexed": false,
          "internalType": "uint8"
        }
      ],
      "anonymous": false
    },
    {
      "type": "event",
      "name": "LiquidityPoolChanged",
      "inputs": [
        {
          "name": "newValue",
          "type": "address",
          "indexed": false,
          "internalType": "address"
        },
        {
          "name": "oldValue",
          "type": "address",
          "indexed": false,
          "internalType": "address"
        }
      ],
      "anonymous": false
    },
    {
      "type": "event",
      "name": "LiquidityVaultControllerChanged",
      "inputs": [
        {
          "name": "newLiquidityVaultController",
          "type": "address",
          "indexed": false,
          "internalType": "address"
        },
        {
          "name": "oldLiquidityVaultController",
          "type": "address",
          "indexed": false,
          "internalType": "address"
        }
      ],
      "anonymous": false
    },
    {
      "type": "event",
      "name": "ModuleInitialized",
      "inputs": [
        {
          "name": "parentOrchestrator",
          "type": "address",
          "indexed": true,
          "internalType": "address"
        },
        {
          "name": "metadata",
          "type": "tuple",
          "indexed": false,
          "internalType": "struct IModule_v1.Metadata",
          "components": [
            {
              "name": "majorVersion",
              "type": "uint256",
              "internalType": "uint256"
            },
            {
              "name": "minorVersion",
              "type": "uint256",
              "internalType": "uint256"
            },
            {
              "name": "patchVersion",
              "type": "uint256",
              "internalType": "uint256"
            },
            {
              "name": "url",
              "type": "string",
              "internalType": "string"
            },
            {
              "name": "title",
              "type": "string",
              "internalType": "string"
            }
          ]
        }
      ],
      "anonymous": false
    },
    {
      "type": "event",
      "name": "OrchestratorTokenSet",
      "inputs": [
        {
          "name": "token",
          "type": "address",
          "indexed": true,
          "internalType": "address"
        },
        {
          "name": "decimals",
          "type": "uint8",
          "indexed": false,
          "internalType": "uint8"
        }
      ],
      "anonymous": false
    },
    {
      "type": "event",
      "name": "ProjectCollateralFeeAdded",
      "inputs": [
        {
          "name": "amount",
          "type": "uint256",
          "indexed": false,
          "internalType": "uint256"
        }
      ],
      "anonymous": false
    },
    {
      "type": "event",
      "name": "ProjectCollateralFeeWithdrawn",
      "inputs": [
        {
          "name": "receiver",
          "type": "address",
          "indexed": false,
          "internalType": "address"
        },
        {
          "name": "amount",
          "type": "uint256",
          "indexed": false,
          "internalType": "uint256"
        }
      ],
      "anonymous": false
    },
    {
      "type": "event",
      "name": "ProtocolFeeMinted",
      "inputs": [
        {
          "name": "token",
          "type": "address",
          "indexed": true,
          "internalType": "address"
        },
        {
          "name": "treasury",
          "type": "address",
          "indexed": true,
          "internalType": "address"
        },
        {
          "name": "feeAmount",
          "type": "uint256",
          "indexed": false,
          "internalType": "uint256"
        }
      ],
      "anonymous": false
    },
    {
      "type": "event",
      "name": "ProtocolFeeTransferred",
      "inputs": [
        {
          "name": "token",
          "type": "address",
          "indexed": true,
          "internalType": "address"
        },
        {
          "name": "treasury",
          "type": "address",
          "indexed": true,
          "internalType": "address"
        },
        {
          "name": "feeAmount",
          "type": "uint256",
          "indexed": false,
          "internalType": "uint256"
        }
      ],
      "anonymous": false
    },
    {
      "type": "event",
      "name": "RepayableAmountChanged",
      "inputs": [
        {
          "name": "newValue",
          "type": "uint256",
          "indexed": false,
          "internalType": "uint256"
        },
        {
          "name": "oldValue",
          "type": "uint256",
          "indexed": false,
          "internalType": "uint256"
        }
      ],
      "anonymous": false
    },
    {
      "type": "event",
      "name": "RepaymentTransfer",
      "inputs": [
        {
          "name": "receiver",
          "type": "address",
          "indexed": false,
          "internalType": "address"
        },
        {
          "name": "amount",
          "type": "uint256",
          "indexed": false,
          "internalType": "uint256"
        }
      ],
      "anonymous": false
    },
    {
      "type": "event",
      "name": "SeizeChanged",
      "inputs": [
        {
          "name": "currentSeize",
          "type": "uint64",
          "indexed": false,
          "internalType": "uint64"
        },
        {
          "name": "newSeize",
          "type": "uint64",
          "indexed": false,
          "internalType": "uint64"
        }
      ],
      "anonymous": false
    },
    {
      "type": "event",
      "name": "SellFeeUpdated",
      "inputs": [
        {
          "name": "newSellFee",
          "type": "uint256",
          "indexed": false,
          "internalType": "uint256"
        },
        {
          "name": "oldSellFee",
          "type": "uint256",
          "indexed": false,
          "internalType": "uint256"
        }
      ],
      "anonymous": false
    },
    {
      "type": "event",
      "name": "SellingDisabled",
      "inputs": [],
      "anonymous": false
    },
    {
      "type": "event",
      "name": "SellingEnabled",
      "inputs": [],
      "anonymous": false
    },
    {
      "type": "event",
      "name": "TokenDecimalsUpdated",
      "inputs": [
        {
          "name": "oldDecimals",
          "type": "uint8",
          "indexed": false,
          "internalType": "uint8"
        },
        {
          "name": "newDecimals",
          "type": "uint8",
          "indexed": false,
          "internalType": "uint8"
        }
      ],
      "anonymous": false
    },
    {
      "type": "event",
      "name": "TokenVaultSet",
      "inputs": [
        {
          "name": "tokenVault",
          "type": "address",
          "indexed": false,
          "internalType": "address"
        }
      ],
      "anonymous": false
    },
    {
      "type": "event",
      "name": "TokensBought",
      "inputs": [
        {
          "name": "receiver",
          "type": "address",
          "indexed": true,
          "internalType": "address"
        },
        {
          "name": "depositAmount",
          "type": "uint256",
          "indexed": false,
          "internalType": "uint256"
        },
        {
          "name": "receivedAmount",
          "type": "uint256",
          "indexed": false,
          "internalType": "uint256"
        },
        {
          "name": "buyer",
          "type": "address",
          "indexed": false,
          "internalType": "address"
        }
      ],
      "anonymous": false
    },
    {
      "type": "event",
      "name": "TokensSold",
      "inputs": [
        {
          "name": "receiver",
          "type": "address",
          "indexed": true,
          "internalType": "address"
        },
        {
          "name": "depositAmount",
          "type": "uint256",
          "indexed": false,
          "internalType": "uint256"
        },
        {
          "name": "receivedAmount",
          "type": "uint256",
          "indexed": false,
          "internalType": "uint256"
        },
        {
          "name": "seller",
          "type": "address",
          "indexed": false,
          "internalType": "address"
        }
      ],
      "anonymous": false
    },
    {
      "type": "event",
      "name": "TransferOrchestratorToken",
      "inputs": [
        {
          "name": "_to",
          "type": "address",
          "indexed": true,
          "internalType": "address"
        },
        {
          "name": "_amount",
          "type": "uint256",
          "indexed": false,
          "internalType": "uint256"
        }
      ],
      "anonymous": false
    },
    {
      "type": "error",
      "name": "AddressEmptyCode",
      "inputs": [
        {
          "name": "target",
          "type": "address",
          "internalType": "address"
        }
      ]
    },
    {
      "type": "error",
      "name": "AddressInsufficientBalance",
      "inputs": [
        {
          "name": "account",
          "type": "address",
          "internalType": "address"
        }
      ]
    },
    {
      "type": "error",
      "name": "FM_BC_BondingSurface_Redeeming_Restricted_Repayer_Seizable_v1__InvalidFunctionality",
      "inputs": []
    },
    {
      "type": "error",
      "name": "FM_BC_BondingSurface_Redeeming_Restricted_Repayer_Seizable_v1__InvalidInputAddress",
      "inputs": []
    },
    {
      "type": "error",
      "name": "FM_BC_BondingSurface_Redeeming_Restricted_Repayer_Seizable_v1__InvalidLiquidityVaultController",
      "inputs": [
        {
          "name": "invalidLiquidityVaultController",
          "type": "address",
          "internalType": "address"
        }
      ]
    },
    {
      "type": "error",
      "name": "FM_BC_BondingSurface_Redeeming_Restricted_Repayer_Seizable_v1__InvalidSeize",
      "inputs": [
        {
          "name": "seize",
          "type": "uint64",
          "internalType": "uint64"
        }
      ]
    },
    {
      "type": "error",
      "name": "FM_BC_BondingSurface_Redeeming_Restricted_Repayer_Seizable_v1__InvalidSeizeAmount",
      "inputs": [
        {
          "name": "amount",
          "type": "uint256",
          "internalType": "uint256"
        }
      ]
    },
    {
      "type": "error",
      "name": "FM_BC_BondingSurface_Redeeming_Restricted_Repayer_Seizable_v1__SeizeTimeout",
      "inputs": [
        {
          "name": "allowedTimestamp",
          "type": "uint256",
          "internalType": "uint256"
        }
      ]
    },
    {
      "type": "error",
      "name": "FM_BC_BondingSurface_Redeeming_v1__InvalidBondingSurfaceFormula",
      "inputs": []
    },
    {
      "type": "error",
      "name": "FM_BC_BondingSurface_Redeeming_v1__InvalidInputAmount",
      "inputs": []
    },
    {
      "type": "error",
      "name": "FM_BC_BondingSurface_Redeeming_v1__MinReserveReached",
      "inputs": []
    },
    {
      "type": "error",
      "name": "FM_BC_BondingSurface_Redeeming_v1__NoCapitalAvailable",
      "inputs": []
    },
    {
      "type": "error",
      "name": "FailedInnerCall",
      "inputs": []
    },
    {
      "type": "error",
      "name": "InvalidInitialization",
      "inputs": []
    },
    {
      "type": "error",
      "name": "InvalidOrchestratorTokenWithdrawAmount",
      "inputs": []
    },
    {
      "type": "error",
      "name": "Module_OrchestratorCallbackFailed",
      "inputs": [
        {
          "name": "funcSig",
          "type": "string",
          "internalType": "string"
        }
      ]
    },
    {
      "type": "error",
      "name": "Module__BondingCurveBase__BuyingFunctionaltiesClosed",
      "inputs": []
    },
    {
      "type": "error",
      "name": "Module__BondingCurveBase__FeeAmountToHigh",
      "inputs": []
    },
    {
      "type": "error",
      "name": "Module__BondingCurveBase__InsufficientOutputAmount",
      "inputs": []
    },
    {
      "type": "error",
      "name": "Module__BondingCurveBase__InvalidDepositAmount",
      "inputs": []
    },
    {
      "type": "error",
      "name": "Module__BondingCurveBase__InvalidFeePercentage",
      "inputs": []
    },
    {
      "type": "error",
      "name": "Module__BondingCurveBase__InvalidMinAmountOut",
      "inputs": []
    },
    {
      "type": "error",
      "name": "Module__BondingCurveBase__InvalidRecipient",
      "inputs": []
    },
    {
      "type": "error",
      "name": "Module__BondingCurveBase__InvalidWithdrawAmount",
      "inputs": []
    },
    {
      "type": "error",
      "name": "Module__BondingCurveBase__TradeAmountTooLow",
      "inputs": []
    },
    {
      "type": "error",
      "name": "Module__CallerNotAuthorized",
      "inputs": [
        {
          "name": "role",
          "type": "bytes32",
          "internalType": "bytes32"
        },
        {
          "name": "caller",
          "type": "address",
          "internalType": "address"
        }
      ]
    },
    {
      "type": "error",
      "name": "Module__InvalidAddress",
      "inputs": []
    },
    {
      "type": "error",
      "name": "Module__InvalidMetadata",
      "inputs": []
    },
    {
      "type": "error",
      "name": "Module__InvalidOrchestratorAddress",
      "inputs": []
    },
    {
      "type": "error",
      "name": "Module__OnlyCallableByOrchestrator",
      "inputs": []
    },
    {
      "type": "error",
      "name": "Module__OnlyCallableByPaymentClient",
      "inputs": []
    },
    {
      "type": "error",
      "name": "Module__RedeemingBondingCurveBase__InsufficientCollateralForProjectFee",
      "inputs": []
    },
    {
      "type": "error",
      "name": "Module__RedeemingBondingCurveBase__SellingFunctionaltiesClosed",
      "inputs": []
    },
    {
      "type": "error",
      "name": "NotInitializing",
      "inputs": []
    },
    {
      "type": "error",
      "name": "Repayer__InsufficientCollateralForRepayerTransfer",
      "inputs": []
    },
    {
      "type": "error",
      "name": "SafeERC20FailedOperation",
      "inputs": [
        {
          "name": "token",
          "type": "address",
          "internalType": "address"
        }
      ]
    }
  ],
  "bytecode": {
    "object": "0x60a060405234801562000010575f80fd5b505f6080526200001f62000025565b620000d9565b7ff0c57e16840df040f15088dc2f81fe391c3923bec73e23a9662efc9c229c6a00805468010000000000000000900460ff1615620000765760405163f92ee8a960e01b815260040160405180910390fd5b80546001600160401b0390811614620000d65780546001600160401b0319166001600160401b0390811782556040519081527fc7f505b2f371ae2175ee4913f4499e1f2633a7b5936321eed1cdaeb6115181d29060200160405180910390a15b50565b608051614ea8620000ef5f395f5050614ea85ff3fe608060405234801561000f575f80fd5b506004361061040d575f3560e01c80637feb48a111610229578063bc063e1a1161012e578063ce23aa7b116100c3578063e2daf72811610093578063fa03330c11610079578063fa03330c146107b9578063fa7aa2871461083f578063fc0c546a14610847575f80fd5b8063e2daf7281461079e578063f1eae64a14610837575f80fd5b8063ce23aa7b14610801578063d4a6793014610809578063d6febde814610811578063d79875eb14610824575f80fd5b8063c6829ba2116100fe578063c6829ba2146107d4578063c6ab5cdc146107e8578063cbda8f82146107f0578063cd366677146107f9575f80fd5b8063bc063e1a1461079e578063bcb61920146107a6578063bd098404146107b9578063c5b27dde146107c1575f80fd5b80639c50e43b116101be578063b0e45ef81161018e578063b74795d911610174578063b74795d914610773578063b8c85f1514610783578063ba83c97014610796575f80fd5b8063b0e45ef81461074d578063b66a870c14610760575f80fd5b80639c50e43b14610700578063a3f737b514610713578063a760280c14610724578063ab03fedb1461073a575f80fd5b80638ccac026116101f95780638ccac026146106c55780639093b01f146106d8578063935b7dbd146106e557806399964842146106f8575f80fd5b80637feb48a11461067e57806382fa3d291461069257806389e0062c1461069a5780638b4cee08146106b2575f80fd5b806349e8e3041161032f5780636497a8a0116102c45780636e2fde5c11610294578063759cc4b51161027a578063759cc4b51461065b5780637998a1c41461066e5780637da0a87714610676575f80fd5b80636e2fde5c14610631578063700cbd9014610648575f80fd5b80636497a8a0146105e657806369ba8f1b146105f957806369fcd4ac1461060b5780636c67e8071461061e575f80fd5b806354f2f7af116102ff57806354f2f7af1461059657806354fd4d50146105a75780635600f04f146105cb578063572b6c05146105d3575f80fd5b806349e8e304146105485780634a79d50c1461055b5780634f893bba14610570578063513615d514610583575f80fd5b806324e30270116103a5578063322d210011610375578063322d21001461051c5780633960195f1461052f578063422eeba414610537578063470624021461053f575f80fd5b806324e30270146104da578063272bbd44146104ed5780632ac05311146105005780632b14ca5614610513575f80fd5b80631562bc61116103e05780631562bc611461048857806315b3f77b146104905780631ad56e3b146104a25780631ca3bc4f146104b5575f80fd5b806301ffc9a71461041157806309dfd0e6146104395780630cc835a3146104505780630e30938c14610465575b5f80fd5b61042461041f366004614507565b610858565b60405190151581526020015b60405180910390f35b61044260a15481565b604051908152602001610430565b61046361045e36600461452e565b61089d565b005b61046f62093a8081565b60405167ffffffffffffffff9091168152602001610430565b610463610981565b60da5467ffffffffffffffff1661046f565b6104636104b036600461452e565b610a91565b6038546001600160a01b03165b6040516001600160a01b039091168152602001610430565b6104636104e8366004614545565b610aff565b6104636104fb366004614545565b610d53565b61046361050e36600461452e565b610f22565b610442606e5481565b61044261052a36600461452e565b6110f1565b610442611194565b60a454610442565b61044260395481565b6104426105563660046145bd565b6111cc565b6105636111de565b604051610430919061462a565b61046361057e366004614650565b611271565b61046361059136600461468f565b6112d2565b60dc546001600160a01b03166104c2565b60015460025460035460408051938452602084019290925290820152606001610430565b61056361133d565b6104246105e13660046146aa565b61134f565b6104636105f43660046146aa565b6113bb565b60dc54600160a01b900460ff16610424565b61044261061936600461452e565b61140c565b61046361062c3660046146c5565b6114a7565b6104426c21a7ab22a92fa6a0a720a3a2a960991b81565b61046361065636600461452e565b6116ad565b610463610669366004614650565b611717565b6104426118c4565b6104c2611a1c565b6104426921aaa92b22afaaa9a2a960b11b81565b60a554610442565b60da54600160401b90046001600160a01b03166104c2565b6104636106c036600461452e565b611a90565b6104636106d3366004614650565b611afb565b606d546104249060ff1681565b6104636106f33660046146f3565b611b37565b610463611b4f565b61046361070e36600461452e565b611be9565b60a2546001600160a01b03166104c2565b6104426b2924a9a5afa6a0a720a3a2a960a11b81565b61046361074836600461452e565b611bfa565b61046361075b366004614650565b611cc7565b61046361076e36600461480e565b611eb4565b5f546001600160a01b03166104c2565b6104636107913660046146aa565b612053565b610463612182565b61046f606481565b6104636107b43660046146c5565b6121fe565b6104426123d5565b6104636107cf3660046146f3565b612461565b60385461042490600160a01b900460ff1681565b610463612474565b610442603a5481565b60db54610442565b60a654610442565b6104636124f3565b61046361081f3660046145bd565b612578565b6104636108323660046145bd565b61258a565b61046361259c565b61044261261b565b60a3546001600160a01b03166104c2565b5f6001600160e01b03198216631ba2a5e160e21b148061088857506001600160e01b0319821663386740a960e21b145b80610897575061089782612624565b92915050565b5f546040805163d09edf3160e01b81529051610975926001600160a01b03169163d09edf319160048083019260209291908290030181865afa1580156108e5573d5f803e3d5ffd5b505050506040513d601f19601f8201168201806040525081019061090991906148ec565b6001600160a01b031663b3ecf2366040518163ffffffff1660e01b8152600401602060405180830381865afa158015610944573d5f803e3d5ffd5b505050506040513d601f19601f820116820180604052508101906109689190614907565b610970612663565b6126b4565b61097e816127c6565b50565b6c21a7ab22a92fa6a0a720a3a2a960991b610a535f8054906101000a90046001600160a01b03166001600160a01b031663d09edf316040518163ffffffff1660e01b8152600401602060405180830381865afa1580156109e3573d5f803e3d5ffd5b505050506040513d601f19601f82011682018060405250810190610a0791906148ec565b60405163fdd5205f60e01b8152306004820152602481018490526001600160a01b03919091169063fdd5205f906044015b602060405180830381865afa158015610944573d5f803e3d5ffd5b60dc805460ff60a01b1916600160a01b1790556040517ffe667348baa994a78597bdaaf4b751286ad71cba3dc160dc73c9ab2a86c6fa2d905f90a150565b6b2924a9a5afa6a0a720a3a2a960a11b610af25f8054906101000a90046001600160a01b03166001600160a01b031663d09edf316040518163ffffffff1660e01b8152600401602060405180830381865afa1580156109e3573d5f803e3d5ffd5b610afb82612811565b5050565b5f80546040805163d09edf3160e01b815290518693926001600160a01b03169163d09edf319160048083019260209291908290030181865afa158015610b47573d5f803e3d5ffd5b505050506040513d601f19601f82011682018060405250810190610b6b91906148ec565b60405163fdd5205f60e01b8152306004820152602481018490526001600160a01b03919091169063fdd5205f90604401602060405180830381865afa158015610bb6573d5f803e3d5ffd5b505050506040513d601f19601f82011682018060405250810190610bda9190614907565b9050610c7e5f8054906101000a90046001600160a01b03166001600160a01b031663d09edf316040518163ffffffff1660e01b8152600401602060405180830381865afa158015610c2d573d5f803e3d5ffd5b505050506040513d601f19601f82011682018060405250810190610c5191906148ec565b6001600160a01b031663248a9ca3836040518263ffffffff1660e01b8152600401610a3891815260200190565b5f8054906101000a90046001600160a01b03166001600160a01b031663d09edf316040518163ffffffff1660e01b8152600401602060405180830381865afa158015610ccc573d5f803e3d5ffd5b505050506040513d601f19601f82011682018060405250810190610cf091906148ec565b6001600160a01b0316637d540a648686866040518463ffffffff1660e01b8152600401610d1f9392919061491e565b5f604051808303815f87803b158015610d36575f80fd5b505af1158015610d48573d5f803e3d5ffd5b505050505050505050565b5f80546040805163d09edf3160e01b815290518693926001600160a01b03169163d09edf319160048083019260209291908290030181865afa158015610d9b573d5f803e3d5ffd5b505050506040513d601f19601f82011682018060405250810190610dbf91906148ec565b60405163fdd5205f60e01b8152306004820152602481018490526001600160a01b03919091169063fdd5205f90604401602060405180830381865afa158015610e0a573d5f803e3d5ffd5b505050506040513d601f19601f82011682018060405250810190610e2e9190614907565b9050610e815f8054906101000a90046001600160a01b03166001600160a01b031663d09edf316040518163ffffffff1660e01b8152600401602060405180830381865afa158015610c2d573d5f803e3d5ffd5b5f8054906101000a90046001600160a01b03166001600160a01b031663d09edf316040518163ffffffff1660e01b8152600401602060405180830381865afa158015610ecf573d5f803e3d5ffd5b505050506040513d601f19601f82011682018060405250810190610ef391906148ec565b6001600160a01b031663648154538686866040518463ffffffff1660e01b8152600401610d1f9392919061491e565b6c21a7ab22a92fa6a0a720a3a2a960991b610f845f8054906101000a90046001600160a01b03166001600160a01b031663d09edf316040518163ffffffff1660e01b8152600401602060405180830381865afa1580156109e3573d5f803e3d5ffd5b5f610f8d611194565b905080831115610fb8576040516310c5f30760e31b8152600481018290526024015b60405180910390fd5b60db544290610fcb9062093a8090614989565b1115610ffd5760db54610fe29062093a8090614989565b60405162cfdb3360e71b8152600401610faf91815260200190565b5f61100661287a565b60a154909150611016858361499c565b101561102c5760a154611029908261499c565b93505b4260db5560a3546001600160a01b031663a9059cbb611049612663565b6040516001600160e01b031960e084901b1681526001600160a01b039091166004820152602481018790526044016020604051808303815f875af1158015611093573d5f803e3d5ffd5b505050506040513d601f19601f820116820180604052508101906110b791906149be565b506040518481527faa300b5a2c13b47764efc93fac7f8d904c4657b6a311f70bd56bb10a1eb8655d9060200160405180910390a150505050565b5f6110fd8260016128f2565b60408051808201909152601c81527f5f6275794f7264657228616464726573732c75696e742c75696e7429000000006020909101525f8061115d7fdb2c93faffa8f98d8bcd55cf740e8ead65ac1699aaf6ee8a00820485fc802af6612932565b9350935050506111708483603954612959565b50909450611189905061118285612a25565b825f612959565b509095945050505050565b5f8061119e61287a565b60da54909150612710906111bc9067ffffffffffffffff16836149d7565b6111c691906149ee565b91505090565b5f6111d78383612ace565b9392505050565b6060600160040180546111f090614a0d565b80601f016020809104026020016040519081016040528092919081815260200182805461121c90614a0d565b80156112675780601f1061123e57610100808354040283529160200191611267565b820191905f5260205f20905b81548152906001019060200180831161124a57829003601f168201915b5050505050905090565b5f546040805163d09edf3160e01b815290516112b9926001600160a01b03169163d09edf319160048083019260209291908290030181865afa1580156108e5573d5f803e3d5ffd5b6040516302546a5760e31b815260040160405180910390fd5b6c21a7ab22a92fa6a0a720a3a2a960991b6113345f8054906101000a90046001600160a01b03166001600160a01b031663d09edf316040518163ffffffff1660e01b8152600401602060405180830381865afa1580156109e3573d5f803e3d5ffd5b610afb82612b14565b6060600160030180546111f090614a0d565b5f805460405163572b6c0560e01b81526001600160a01b0384811660048301529091169063572b6c0590602401602060405180830381865afa158015611397573d5f803e3d5ffd5b505050506040513d601f19601f8201168201806040525081019061089791906149be565b5f546040805163d09edf3160e01b81529051611403926001600160a01b03169163d09edf319160048083019260209291908290030181865afa1580156108e5573d5f803e3d5ffd5b61097e81612bb8565b5f6114188260016128f2565b60408051808201909152601d81527f5f73656c6c4f7264657228616464726573732c75696e742c75696e74290000006020909101525f806114787f3299ac1e4997da1dd638584692e27ee6e952ca63f8284764a73c592284e1d9e8612932565b93509350505061148984825f612959565b50909450611498905084612c17565b92506111898383606e54612959565b5f80546040805163d09edf3160e01b815290518593926001600160a01b03169163d09edf319160048083019260209291908290030181865afa1580156114ef573d5f803e3d5ffd5b505050506040513d601f19601f8201168201806040525081019061151391906148ec565b60405163fdd5205f60e01b8152306004820152602481018490526001600160a01b03919091169063fdd5205f90604401602060405180830381865afa15801561155e573d5f803e3d5ffd5b505050506040513d601f19601f820116820180604052508101906115829190614907565b90506115d55f8054906101000a90046001600160a01b03166001600160a01b031663d09edf316040518163ffffffff1660e01b8152600401602060405180830381865afa158015610c2d573d5f803e3d5ffd5b5f8054906101000a90046001600160a01b03166001600160a01b031663d09edf316040518163ffffffff1660e01b8152600401602060405180830381865afa158015611623573d5f803e3d5ffd5b505050506040513d601f19601f8201168201806040525081019061164791906148ec565b60405163385e205560e21b8152600481018690526001600160a01b038581166024830152919091169063e1788154906044015b5f604051808303815f87803b158015611691575f80fd5b505af11580156116a3573d5f803e3d5ffd5b5050505050505050565b6b2924a9a5afa6a0a720a3a2a960a11b61170e5f8054906101000a90046001600160a01b03166001600160a01b031663d09edf316040518163ffffffff1660e01b8152600401602060405180830381865afa1580156109e3573d5f803e3d5ffd5b610afb82612cf5565b61171f612d5e565b603a5460a3546001600160a01b03166040516370a0823160e01b81523060048201526001600160a01b0391909116906370a0823190602401602060405180830381865afa158015611772573d5f803e3d5ffd5b505050506040513d601f19601f820116820180604052508101906117969190614907565b6117a0919061499c565b8111156117c05760405163d67b8d9760e01b815260040160405180910390fd5b6117e782826117d760a3546001600160a01b031690565b6001600160a01b03169190612efb565b60a3546001600160a01b03166040516370a0823160e01b81523060048201526001600160a01b0391909116906370a0823190602401602060405180830381865afa158015611837573d5f803e3d5ffd5b505050506040513d601f19601f8201168201806040525081019061185b9190614907565b60a154111561187d57604051634511533160e01b815260040160405180910390fd5b816001600160a01b03167fe88292c5f714100904272672c0420345093bd0e3c5555d31f3e4e2cf5f6ca8a1826040516118b891815260200190565b60405180910390a25050565b5f611a1760016040518060a00160405290815f8201548152602001600182015481526020016002820154815260200160038201805461190290614a0d565b80601f016020809104026020016040519081016040528092919081815260200182805461192e90614a0d565b80156119795780601f1061195057610100808354040283529160200191611979565b820191905f5260205f20905b81548152906001019060200180831161195c57829003601f168201915b5050505050815260200160048201805461199290614a0d565b80601f01602080910402602001604051908101604052809291908181526020018280546119be90614a0d565b8015611a095780601f106119e057610100808354040283529160200191611a09565b820191905f5260205f20905b8154815290600101906020018083116119ec57829003601f168201915b505050505081525050612f6f565b905090565b5f805f9054906101000a90046001600160a01b03166001600160a01b0316637da0a8776040518163ffffffff1660e01b8152600401602060405180830381865afa158015611a6c573d5f803e3d5ffd5b505050506040513d601f19601f82011682018060405250810190611a1791906148ec565b6c21a7ab22a92fa6a0a720a3a2a960991b611af25f8054906101000a90046001600160a01b03166001600160a01b031663d09edf316040518163ffffffff1660e01b8152600401602060405180830381865afa1580156109e3573d5f803e3d5ffd5b610afb82612fad565b611b03612663565b6001600160a01b0316826001600160a01b031614611b2d57611b2d82611b27612663565b83612ff8565b610afb8282613066565b611b3f6130cc565b611b4a83838361318b565b505050565b6c21a7ab22a92fa6a0a720a3a2a960991b611bb15f8054906101000a90046001600160a01b03166001600160a01b031663d09edf316040518163ffffffff1660e01b8152600401602060405180830381865afa1580156109e3573d5f803e3d5ffd5b60dc805460ff60a01b191690556040517fc3dedea629d120a253266f27c0dca02da6807c99ba2793ed6892675e4eab5697905f90a150565b61097e611bf4612663565b82613066565b6c21a7ab22a92fa6a0a720a3a2a960991b611c5c5f8054906101000a90046001600160a01b03166001600160a01b031663d09edf316040518163ffffffff1660e01b8152600401602060405180830381865afa1580156109e3573d5f803e3d5ffd5b611c646131a8565b821115611c8457604051635593ddd560e01b815260040160405180910390fd5b60d9546040805184815260208101929092527f0bd73f4b481506b445be4e6675aee576d8494ec49ad3f9e68c01481eaa9d7afe910160405180910390a15060d955565b81611cd1816131c5565b611cd9613201565b611ce1613257565b821115611d0157604051632e91f3fb60e21b815260040160405180910390fd5b611dd783835f8054906101000a90046001600160a01b03166001600160a01b03166304baed9e6040518163ffffffff1660e01b8152600401602060405180830381865afa158015611d54573d5f803e3d5ffd5b505050506040513d601f19601f82011682018060405250810190611d7891906148ec565b6001600160a01b031663fc0c546a6040518163ffffffff1660e01b8152600401602060405180830381865afa158015611db3573d5f803e3d5ffd5b505050506040513d601f19601f820116820180604052508101906117d791906148ec565b60a3546001600160a01b03166040516370a0823160e01b81523060048201526001600160a01b0391909116906370a0823190602401602060405180830381865afa158015611e27573d5f803e3d5ffd5b505050506040513d601f19601f82011682018060405250810190611e4b9190614907565b60a1541115611e6d57604051634511533160e01b815260040160405180910390fd5b604080516001600160a01b0385168152602081018490527fef2fd6dd3495c2e4ee78c3e42d804da90b51944b66d2c2cba14b9a0d6fdd1841910160405180910390a1505050565b7ff0c57e16840df040f15088dc2f81fe391c3923bec73e23a9662efc9c229c6a008054600160401b810460ff16159067ffffffffffffffff165f81158015611ef95750825b90505f8267ffffffffffffffff166001148015611f155750303b155b905081158015611f23575080155b15611f415760405163f92ee8a960e01b815260040160405180910390fd5b845467ffffffffffffffff191660011785558315611f7057845468ff00000000000000001916600160401b1785555b611f7a8888613285565b6040805160e0810182525f80825260208201819052918101829052606081018290526080810182905260a0810182905260c0810182905281905f805f8b806020019051810190611fca9190614a55565b949a50929850909650945092509050611fe38e8e613285565b611fee868686613372565b611ff98383836135d2565b50505050505083156116a357845468ff000000000000000019168555604051600181527fc7f505b2f371ae2175ee4913f4499e1f2633a7b5936321eed1cdaeb6115181d29060200160405180910390a15050505050505050565b6c21a7ab22a92fa6a0a720a3a2a960991b6120b55f8054906101000a90046001600160a01b03166001600160a01b031663d09edf316040518163ffffffff1660e01b8152600401602060405180830381865afa1580156109e3573d5f803e3d5ffd5b6001600160a01b03821615806120d357506001600160a01b03821630145b156120f1576040516312ca9f1960e31b815260040160405180910390fd5b60da54604080516001600160a01b038086168252600160401b90930490921660208301527f8c9a162a7d85494526dc9e4fe95dd4bfdb032246de6c45641c4943c52c237eb0910160405180910390a15060da80546001600160a01b03909216600160401b027fffffffff0000000000000000000000000000000000000000ffffffffffffffff909216919091179055565b5f546040805163d09edf3160e01b815290516121ca926001600160a01b03169163d09edf319160048083019260209291908290030181865afa1580156108e5573d5f803e3d5ffd5b606d805460ff191690556040517fc34ae80cb7f967a799992108cfbc90770413d60555d5b0587a4c2c3e69c79ca4905f90a1565b5f80546040805163d09edf3160e01b815290518593926001600160a01b03169163d09edf319160048083019260209291908290030181865afa158015612246573d5f803e3d5ffd5b505050506040513d601f19601f8201168201806040525081019061226a91906148ec565b60405163fdd5205f60e01b8152306004820152602481018490526001600160a01b03919091169063fdd5205f90604401602060405180830381865afa1580156122b5573d5f803e3d5ffd5b505050506040513d601f19601f820116820180604052508101906122d99190614907565b905061232c5f8054906101000a90046001600160a01b03166001600160a01b031663d09edf316040518163ffffffff1660e01b8152600401602060405180830381865afa158015610c2d573d5f803e3d5ffd5b5f8054906101000a90046001600160a01b03166001600160a01b031663d09edf316040518163ffffffff1660e01b8152600401602060405180830381865afa15801561237a573d5f803e3d5ffd5b505050506040513d601f19601f8201168201806040525081019061239e91906148ec565b604051632e99be7f60e21b8152600481018690526001600160a01b038581166024830152919091169063ba66f9fc9060440161167a565b60a2545f906001600160a01b031663d5f638c86123f061287a565b60a45460a5546040516001600160e01b031960e086901b168152600481019390935260248301919091526044820152606401602060405180830381865afa15801561243d573d5f803e3d5ffd5b505050506040513d601f19601f82011682018060405250810190611a179190614907565b6124696130cc565b611b4a838383613633565b5f546040805163d09edf3160e01b815290516124bc926001600160a01b03169163d09edf319160048083019260209291908290030181865afa1580156108e5573d5f803e3d5ffd5b6038805460ff60a01b191690556040517f44c1679cca34073ce70fed616f995237808d9599a35669fd39f3afd053e2b9b1905f90a1565b5f546040805163d09edf3160e01b8152905161253b926001600160a01b03169163d09edf319160048083019260209291908290030181865afa1580156108e5573d5f803e3d5ffd5b6038805460ff60a01b1916600160a01b1790556040517fe404df37e2f7360b624914a082278de0f9e7da04a61eaab0a8d3d26b52bc0b19905f90a1565b610afb612583612663565b8383611b37565b610afb612595612663565b8383612461565b5f546040805163d09edf3160e01b815290516125e4926001600160a01b03169163d09edf319160048083019260209291908290030181865afa1580156108e5573d5f803e3d5ffd5b606d805460ff191660011790556040517f9d47627df4f01d3bff516199297ca647fe2ea0448c4f2925ef8c16d614a51a7c905f90a1565b5f611a17613257565b5f6001600160e01b0319821663238c5efb60e21b148061265457506001600160e01b0319821663899090df60e01b145b80610897575061089782613650565b5f3660146126703361134f565b801561267c5750808210155b156126ab575f3661268d838561499c565b612698928290614b3a565b6126a191614b61565b60601c9250505090565b335b9250505090565b5f8054906101000a90046001600160a01b03166001600160a01b031663d09edf316040518163ffffffff1660e01b8152600401602060405180830381865afa158015612702573d5f803e3d5ffd5b505050506040513d601f19601f8201168201806040525081019061272691906148ec565b60405163a883867d60e01b8152600481018490526001600160a01b038381166024830152919091169063a883867d90604401602060405180830381865afa158015612773573d5f803e3d5ffd5b505050506040513d601f19601f8201168201806040525081019061279791906149be565b610afb576040516342abbb7760e01b8152600481018390526001600160a01b0382166024820152604401610faf565b6127cf81613674565b6039546040805183815260208101929092527f28e297c7c282931a994191b735b01eaf17558295f761512a7047f4e1b8dc3b0b910160405180910390a1603955565b805f0361283157604051635593ddd560e01b815260040160405180910390fd5b60a55460408051918252602082018390527f8fdebc63e418e16f05aa0dfb419056a60df42f47be2e252a138edfd430d11eb9910160405180910390a160a581905561097e613696565b603a5460a3546040516370a0823160e01b81523060048201525f92916001600160a01b0316906370a0823190602401602060405180830381865afa1580156128c4573d5f803e3d5ffd5b505050506040513d601f19601f820116820180604052508101906128e89190614907565b611a17919061499c565b815f0361291257604051631d67ff5760e11b815260040160405180910390fd5b805f03610afb5760405163d8674d0d60e01b815260040160405180910390fd5b5f805f8061293f856136e9565b9450915061294c8561383c565b9496949550919391925050565b5f80806127106129698587614989565b10612987576040516304e0874960e11b815260040160405180910390fd5b84156129c65761271061299a86886149d7565b6129a491906149ee565b9150815f036129c657604051639c43a82560e01b815260040160405180910390fd5b8315612a05576127106129d985886149d7565b6129e391906149ee565b9050805f03612a0557604051639c43a82560e01b815260040160405180910390fd5b80612a10838861499c565b612a1a919061499c565b925093509350939050565b5f80612a2f61287a565b9050805f03612a515760405163481d74fb60e11b815260040160405180910390fd5b60a25460a654604051630ebc9a6360e41b8152600481018690526024810184905260448101919091526001600160a01b039091169063ebc9a63090606401602060405180830381865afa158015612aaa573d5f803e3d5ffd5b505050506040513d601f19601f820116820180604052508101906111d79190614907565b5f612ae28284670de0b6b3a764000061394c565b90506ec097ce7bc90715b34b9f100000000081111561089757604051635593ddd560e01b815260040160405180910390fd5b606467ffffffffffffffff82161115612b4c576040516307ecf65f60e51b815267ffffffffffffffff82166004820152602401610faf565b60da546040805167ffffffffffffffff928316815291831660208301527f1488ae14a85a1a3546a61061695c33ee373673b3ee3ac28da9e3dc758617896b910160405180910390a160da805467ffffffffffffffff191667ffffffffffffffff92909216919091179055565b80612bc28161396d565b60dc80546001600160a01b0319166001600160a01b0384169081179091556040519081527f556e2aaa423a3aa1275f9b8e9646d73e5c7d316d10d383ed3b52ef18851e90099060200160405180910390a15050565b5f80612c2161287a565b9050805f03612c435760405163481d74fb60e11b815260040160405180910390fd5b60a25460a654604051631fbeb79960e01b8152600481018690526024810184905260448101919091526001600160a01b0390911690631fbeb79990606401602060405180830381865afa158015612c9c573d5f803e3d5ffd5b505050506040513d601f19601f82011682018060405250810190612cc09190614907565b60a154909250612cd0838361499c565b1015612cef57604051634511533160e01b815260040160405180910390fd5b50919050565b805f03612d1557604051635593ddd560e01b815260040160405180910390fd5b60a45460408051918252602082018390527f06f1aed96f9533645e9fa3eab6725b2330072c4ec86e5c0f2dfb39e829f2981a910160405180910390a160a481905561097e613696565b5f546001600160a01b03166342f6e389612d76612663565b6040516001600160e01b031960e084901b1681526001600160a01b039091166004820152602401602060405180830381865afa158015612db8573d5f803e3d5ffd5b505050506040513d601f19601f82011682018060405250810190612ddc91906149be565b1580612edb5750612deb612663565b6040516301ffc9a760e01b81526346fe193d60e11b60048201526001600160a01b0391909116906301ffc9a790602401602060405180830381865afa158015612e36573d5f803e3d5ffd5b505050506040513d601f19601f82011682018060405250810190612e5a91906149be565b158015612edb5750612e6a612663565b6040516301ffc9a760e01b81526346fe193d60e11b60048201526001600160a01b0391909116906301ffc9a790602401602060405180830381865afa158015612eb5573d5f803e3d5ffd5b505050506040513d601f19601f82011682018060405250810190612ed991906149be565b155b15612ef957604051631b793e7f60e21b815260040160405180910390fd5b565b6040516001600160a01b03838116602483015260448201839052611b4a91859182169063a9059cbb906064015b604051602081830303815290604052915060e01b6020820180517bffffffffffffffffffffffffffffffffffffffffffffffffffffffff83818316178352505050506139a9565b5f815f015182606001518360800151604051602001612f9093929190614b96565b604051602081830303815290604052805190602001209050919050565b612fb681613674565b606e546040805183815260208101929092527f5bafec153d96f8ef37761b64348732b41a6b477401d244a5070f9f82d689adce910160405180910390a1606e55565b60385460405163dd8aaa4f60e01b81526001600160a01b0385811660048301528481166024830152604482018490529091169063dd8aaa4f906064015f604051808303815f87803b15801561304b575f80fd5b505af115801561305d573d5f803e3d5ffd5b50505050505050565b603854604051632770a7eb60e21b81526001600160a01b0384811660048301526024820184905290911690639dc29fac906044015b5f604051808303815f87803b1580156130b2575f80fd5b505af11580156130c4573d5f803e3d5ffd5b505050505050565b60dc54600160a01b900460ff1615612ef9575f546040805163d09edf3160e01b81529051612ef9926001600160a01b03169163d09edf319160048083019260209291908290030181865afa158015613126573d5f803e3d5ffd5b505050506040513d601f19601f8201168201806040525081019061314a91906148ec565b60405163fdd5205f60e01b81523060048201526921aaa92b22afaaa9a2a960b11b60248201526001600160a01b03919091169063fdd5205f90604401610a38565b613193613a0a565b8261319d816131c5565b6130c4848484613a34565b5f806131b261287a565b60a45490915080821161089757816126ad565b6001600160a01b03811615806131e357506001600160a01b03811630145b1561097e5760405163364f556160e11b815260040160405180910390fd5b60da54600160401b90046001600160a01b031661321c612663565b6001600160a01b031614612ef957613232612663565b6040516309b1546d60e41b81526001600160a01b039091166004820152602401610faf565b5f806132616131a8565b905060d9545f148061327457508060d954115b6132805760d9546111c6565b919050565b61328d613c91565b6001600160a01b0382166132b457604051637280679360e01b815260040160405180910390fd5b5f80546001600160a01b0319166001600160a01b0384161790556132d781613cda565b6132f457604051637511254160e01b815260040160405180910390fd5b805160019081556020820151600255604082015160035560608201518291906004906133209082614c0b565b50608082015160048201906133359082614c0b565b50905050816001600160a01b03167fd5f3f84c2e1816ce290af84d002663800b02f2985d770cdd335de76fd723b730826040516118b89190614cc7565b61337a613c91565b60a380546001600160a01b0319166001600160a01b0384169081179091556040805163313ce56760e01b8152905163313ce567916004808201926020929091908290030181865afa1580156133d1573d5f803e3d5ffd5b505050506040513d601f19601f820116820180604052508101906133f59190614d26565b61340090600a614e26565b60a15561340c83613d34565b80516040516301ffc9a760e01b8152632181296160e01b60048201526001600160a01b03909116906301ffc9a790602401602060405180830381865afa158015613458573d5f803e3d5ffd5b505050506040513d601f19601f8201168201806040525081019061347c91906149be565b613499576040516366e0807760e01b815260040160405180910390fd5b805160a280546001600160a01b0319166001600160a01b0390921691909117905560208101516134c890612cf5565b6134d58160400151612811565b6134e281606001516127c6565b6134ef8160800151612fad565b60a08101516038805460ff60a01b1916600160a01b9215159290920291909117905560c0810151606d805460ff191691151591909117905560a3546040805163313ce56760e01b815290516001600160a01b03858116937fdec758d17e6001f7ae45d3316ad54ed6b6e932cef251881f0f51390b69e00d279391169163313ce567916004808201926020929091908290030181865afa158015613594573d5f803e3d5ffd5b505050506040513d601f19601f820116820180604052508101906135b89190614d26565b60405160ff909116815260200160405180910390a2505050565b6135da613c91565b60da80547fffffffff0000000000000000000000000000000000000000ffffffffffffffff16600160401b6001600160a01b0386160217905560dc805460ff60a01b1916600160a01b83151502179055611b4a82612b14565b61363b613df6565b82613645816131c5565b6130c4848484613e19565b5f6001600160e01b031982166306fa99af60e01b14806108975750610897826140c7565b606481111561097e57604051633ef38b5b60e11b815260040160405180910390fd5b5f6136a560a45460a554612ace565b60a65460408051918252602082018390529192507f4115a4eb9aa0e3f3844aae592114b04064717b51c0ecfa8bbeea2cb8b0ce62c9910160405180910390a160a655565b5f80546040805163030d028960e21b8152905183926001600160a01b031691630c340a249160048083019260209291908290030181865afa158015613730573d5f803e3d5ffd5b505050506040513d601f19601f8201168201806040525081019061375491906148ec565b6001600160a01b031663f2d638266040518163ffffffff1660e01b8152600401602060405180830381865afa15801561378f573d5f803e3d5ffd5b505050506040513d601f19601f820116820180604052508101906137b391906148ec565b5f54604051634d970f5560e11b81526001600160a01b0391821660048201523060248201526001600160e01b031986166044820152911690639b2e1eaa906064015b6040805180830381865afa15801561380f573d5f803e3d5ffd5b505050506040513d601f19601f820116820180604052508101906138339190614e34565b91509150915091565b5f80546040805163030d028960e21b8152905183926001600160a01b031691630c340a249160048083019260209291908290030181865afa158015613883573d5f803e3d5ffd5b505050506040513d601f19601f820116820180604052508101906138a791906148ec565b6001600160a01b031663f2d638266040518163ffffffff1660e01b8152600401602060405180830381865afa1580156138e2573d5f803e3d5ffd5b505050506040513d601f19601f8201168201806040525081019061390691906148ec565b5f546040516304e53bb360e01b81526001600160a01b0391821660048201523060248201526001600160e01b0319861660448201529116906304e53bb3906064016137f5565b828102821515841585830484141716613963575f80fd5b9190910492915050565b6001600160a01b038116158061398b57506001600160a01b03811630145b1561097e576040516351cfef5f60e01b815260040160405180910390fd5b5f6139bd6001600160a01b038416836140eb565b905080515f141580156139e15750808060200190518101906139df91906149be565b155b15611b4a57604051635274afe760e01b81526001600160a01b0384166004820152602401610faf565b603854600160a01b900460ff16612ef957604051630afe354360e11b815260040160405180910390fd5b5f80613a4084846128f2565b5f805f9054906101000a90046001600160a01b03166001600160a01b03166304baed9e6040518163ffffffff1660e01b8152600401602060405180830381865afa158015613a90573d5f803e3d5ffd5b505050506040513d601f19601f82011682018060405250810190613ab491906148ec565b6001600160a01b031663fc0c546a6040518163ffffffff1660e01b8152600401602060405180830381865afa158015613aef573d5f803e3d5ffd5b505050506040513d601f19601f82011682018060405250810190613b1391906148ec565b60408051808201909152601c81527f5f6275794f7264657228616464726573732c75696e742c75696e74290000000060209091015290505f808080613b777fdb2c93faffa8f98d8bcd55cf740e8ead65ac1699aaf6ee8a00820485fc802af6612932565b93509350935093505f805f613b8f8c86603954612959565b91945092509050613ba08183614989565b98505f613bac84612a25565b9050809a505f613bbd82875f612959565b5090925090508c821015613be457604051637ac6ada560e01b815260040160405180910390fd5b613bf5613bef612663565b8f6140f8565b613c00898b866141e0565b8215613c0f57613c0f83614255565b613c1988826142bb565b613c238f8361431c565b8e6001600160a01b03167fd150a324c4fc8346977d1499aa36cac8c85e6af24bf1486022fad77d05f8b19f8f84613c58612663565b6040805193845260208401929092526001600160a01b03169082015260600160405180910390a250505050505050505050935093915050565b7ff0c57e16840df040f15088dc2f81fe391c3923bec73e23a9662efc9c229c6a0054600160401b900460ff16612ef957604051631afcd79f60e31b815260040160405180910390fd5b5f8160600151515f03613cee57505f919050565b8160800151515f03613d0157505f919050565b8151158015613d1257506020820151155b8015613d2057506040820151155b15613d2c57505f919050565b506001919050565b806001600160a01b03167f4e547b7c6b59d324fecdb926aa12300420faf3a7e12a412eb7e0da193bb0d93e826001600160a01b031663313ce5676040518163ffffffff1660e01b8152600401602060405180830381865afa158015613d9b573d5f803e3d5ffd5b505050506040513d601f19601f82011682018060405250810190613dbf9190614d26565b60405160ff909116815260200160405180910390a2603880546001600160a01b0319166001600160a01b0392909216919091179055565b606d5460ff16612ef9576040516374d0357560e11b815260040160405180910390fd5b5f80613e2584846128f2565b60408051808201909152601d81527f5f73656c6c4f7264657228616464726573732c75696e742c75696e74290000006020909101525f808080613e877f3299ac1e4997da1dd638584692e27ee6e952ca63f8284764a73c592284e1d9e8612932565b93509350935093505f805f613e9d8b855f612959565b50985088935090505f613eaf82612c17565b90508099505f805f9054906101000a90046001600160a01b03166001600160a01b03166304baed9e6040518163ffffffff1660e01b8152600401602060405180830381865afa158015613f04573d5f803e3d5ffd5b505050506040513d601f19601f82011682018060405250810190613f2891906148ec565b6001600160a01b031663fc0c546a6040518163ffffffff1660e01b8152600401602060405180830381865afa158015613f63573d5f803e3d5ffd5b505050506040513d601f19601f82011682018060405250810190613f8791906148ec565b90505f613f978389606e54612959565b6040516370a0823160e01b815230600482015290975091945091506001600160a01b038316906370a0823190602401602060405180830381865afa158015613fe1573d5f803e3d5ffd5b505050506040513d601f19601f820116820180604052508101906140059190614907565b85603a546140139190614989565b11156140325760405163fa4636cb60e01b815260040160405180910390fd5b8c83101561405357604051637ac6ada560e01b815260040160405180910390fd5b61406461405e612663565b8f613066565b61406e89876142bb565b6140798a83836141e0565b84156140885761408885614255565b6140928f84614326565b8e6001600160a01b03167f7debc712939ce2028bbca7ca90cc85e8fb59a7772e041423d3ec1588af4730ed8f85613c58612663565b5f6001600160e01b03198216630bbeca6160e01b148061089757506108978261433d565b60606111d783835f614371565b610afb8230835f8054906101000a90046001600160a01b03166001600160a01b03166304baed9e6040518163ffffffff1660e01b8152600401602060405180830381865afa15801561414c573d5f803e3d5ffd5b505050506040513d601f19601f8201168201806040525081019061417091906148ec565b6001600160a01b031663fc0c546a6040518163ffffffff1660e01b8152600401602060405180830381865afa1580156141ab573d5f803e3d5ffd5b505050506040513d601f19601f820116820180604052508101906141cf91906148ec565b6001600160a01b031692919061440a565b8015611b4a576141ef836131c5565b6142036001600160a01b0383168483612efb565b826001600160a01b0316826001600160a01b03167f81535d361819544361f80ddbe5071aef378a8ecba1c52f2c45fe3335234c43318360405161424891815260200190565b60405180910390a3505050565b60dc5460a354614272916001600160a01b03918216911683612efb565b60dc54604080516001600160a01b039092168252602082018390527f9e9a785b42ae3ce89ea11b526c656a7cacbd520b83908336dc8c9f4e9be9135f910160405180910390a150565b8015610afb576142ca826131c5565b6142d48282614449565b6038546040518281526001600160a01b038481169216907f11a26a26a718a46d85815d79165470744429ab0f3093113929c59c097bbebb9a9060200160405180910390a35050565b610afb8282614449565b610afb82826117d760a3546001600160a01b031690565b5f6001600160e01b0319821663e328951160e01b148061089757506301ffc9a760e01b6001600160e01b0319831614610897565b6060814710156143965760405163cd78605960e01b8152306004820152602401610faf565b5f80856001600160a01b031684866040516143b19190614e57565b5f6040518083038185875af1925050503d805f81146143eb576040519150601f19603f3d011682016040523d82523d5f602084013e6143f0565b606091505b5091509150614400868383614482565b9695505050505050565b6040516001600160a01b0384811660248301528381166044830152606482018390526144439186918216906323b872dd90608401612f28565b50505050565b6038546040516340c10f1960e01b81526001600160a01b03848116600483015260248201849052909116906340c10f199060440161309b565b60608261449757614492826144de565b6111d7565b81511580156144ae57506001600160a01b0384163b155b156144d757604051639996b31560e01b81526001600160a01b0385166004820152602401610faf565b50806111d7565b8051156144ee5780518082602001fd5b604051630a12f52160e11b815260040160405180910390fd5b5f60208284031215614517575f80fd5b81356001600160e01b0319811681146111d7575f80fd5b5f6020828403121561453e575f80fd5b5035919050565b5f805f60408486031215614557575f80fd5b83359250602084013567ffffffffffffffff80821115614575575f80fd5b818601915086601f830112614588575f80fd5b813581811115614596575f80fd5b8760208260051b85010111156145aa575f80fd5b6020830194508093505050509250925092565b5f80604083850312156145ce575f80fd5b50508035926020909101359150565b5f5b838110156145f75781810151838201526020016145df565b50505f910152565b5f81518084526146168160208601602086016145dd565b601f01601f19169290920160200192915050565b602081525f6111d760208301846145ff565b6001600160a01b038116811461097e575f80fd5b5f8060408385031215614661575f80fd5b823561466c8161463c565b946020939093013593505050565b67ffffffffffffffff8116811461097e575f80fd5b5f6020828403121561469f575f80fd5b81356111d78161467a565b5f602082840312156146ba575f80fd5b81356111d78161463c565b5f80604083850312156146d6575f80fd5b8235915060208301356146e88161463c565b809150509250929050565b5f805f60608486031215614705575f80fd5b83356147108161463c565b95602085013595506040909401359392505050565b634e487b7160e01b5f52604160045260245ffd5b60405160a0810167ffffffffffffffff8111828210171561475c5761475c614725565b60405290565b60405160e0810167ffffffffffffffff8111828210171561475c5761475c614725565b5f82601f830112614794575f80fd5b813567ffffffffffffffff808211156147af576147af614725565b604051601f8301601f19908116603f011681019082821181831017156147d7576147d7614725565b816040528381528660208588010111156147ef575f80fd5b836020870160208301375f602085830101528094505050505092915050565b5f805f60608486031215614820575f80fd5b833561482b8161463c565b9250602084013567ffffffffffffffff80821115614847575f80fd5b9085019060a0828803121561485a575f80fd5b614862614739565b82358152602083013560208201526040830135604082015260608301358281111561488b575f80fd5b61489789828601614785565b6060830152506080830135828111156148ae575f80fd5b6148ba89828601614785565b608083015250935060408601359150808211156148d5575f80fd5b506148e286828701614785565b9150509250925092565b5f602082840312156148fc575f80fd5b81516111d78161463c565b5f60208284031215614917575f80fd5b5051919050565b838152604060208083018290529082018390525f90849060608401835b8681101561496957833561494e8161463c565b6001600160a01b03168252928201929082019060010161493b565b50979650505050505050565b634e487b7160e01b5f52601160045260245ffd5b8082018082111561089757610897614975565b8181038181111561089757610897614975565b80518015158114613280575f80fd5b5f602082840312156149ce575f80fd5b6111d7826149af565b808202811582820484141761089757610897614975565b5f82614a0857634e487b7160e01b5f52601260045260245ffd5b500490565b600181811c90821680614a2157607f821691505b602082108103612cef57634e487b7160e01b5f52602260045260245ffd5b80516132808161463c565b80516132808161467a565b5f805f805f80868803610180811215614a6c575f80fd5b8751614a778161463c565b6020890151909750614a888161463c565b955060e0603f1982011215614a9b575f80fd5b50614aa4614762565b6040880151614ab28161463c565b80825250606088015160208201526080880151604082015260a0880151606082015260c08801516080820152614aea60e089016149af565b60a0820152614afc61010089016149af565b60c08201529350614b106101208801614a3f565b9250614b1f6101408801614a4a565b9150614b2e61016088016149af565b90509295509295509295565b5f8085851115614b48575f80fd5b83861115614b54575f80fd5b5050820193919092039150565b6bffffffffffffffffffffffff198135818116916014851015614b8e5780818660140360031b1b83161692505b505092915050565b838152606060208201525f614bae60608301856145ff565b828103604084015261440081856145ff565b601f821115611b4a57805f5260205f20601f840160051c81016020851015614be55750805b601f840160051c820191505b81811015614c04575f8155600101614bf1565b5050505050565b815167ffffffffffffffff811115614c2557614c25614725565b614c3981614c338454614a0d565b84614bc0565b602080601f831160018114614c6c575f8415614c555750858301515b5f19600386901b1c1916600185901b1785556130c4565b5f85815260208120601f198616915b82811015614c9a57888601518255948401946001909101908401614c7b565b5085821015614cb757878501515f19600388901b60f8161c191681555b5050505050600190811b01905550565b602081528151602082015260208201516040820152604082015160608201525f606083015160a06080840152614d0060c08401826145ff565b90506080840151601f198483030160a0850152614d1d82826145ff565b95945050505050565b5f60208284031215614d36575f80fd5b815160ff811681146111d7575f80fd5b600181815b80851115614d8057815f1904821115614d6657614d66614975565b80851615614d7357918102915b93841c9390800290614d4b565b509250929050565b5f82614d9657506001610897565b81614da257505f610897565b8160018114614db85760028114614dc257614dde565b6001915050610897565b60ff841115614dd357614dd3614975565b50506001821b610897565b5060208310610133831016604e8410600b8410161715614e01575081810a610897565b614e0b8383614d46565b805f1904821115614e1e57614e1e614975565b029392505050565b5f6111d760ff841683614d88565b5f8060408385031215614e45575f80fd5b8251915060208301516146e88161463c565b5f8251614e688184602087016145dd565b919091019291505056fea26469706673582212204caf9e445008cddc0a2832c38f725ed0ccc3d04c1b7e8c26c047d8bd4545422864736f6c63430008170033",
    "linkReferences": {}
  },
  "methodIdentifiers": {
    "COVER_MANAGER_ROLE()": "6e2fde5c",
    "CURVE_INTERACTION_ROLE()": "7feb48a1",
    "MAX_FEE()": "bc063e1a",
    "MAX_SEIZE()": "e2daf728",
    "MIN_RESERVE()": "09dfd0e6",
    "RISK_MANAGER_ROLE()": "a760280c",
    "SEIZE_DELAY()": "0e30938c",
    "adjustSeize(uint64)": "513615d5",
    "burnIssuanceToken(uint256)": "9c50e43b",
    "burnIssuanceTokenFor(address,uint256)": "8ccac026",
    "buy(uint256,uint256)": "d6febde8",
    "buyFee()": "47062402",
    "buyFor(address,uint256,uint256)": "935b7dbd",
    "buyIsOpen()": "c6829ba2",
    "calculateBasePriceToCapitalRatio(uint256,uint256)": "49e8e304",
    "calculatePurchaseReturn(uint256)": "322d2100",
    "calculateSaleReturn(uint256)": "69fcd4ac",
    "closeBuy()": "c6ab5cdc",
    "closeSell()": "ba83c970",
    "getBasePriceMultiplier()": "82fa3d29",
    "getBasePriceToCapitalRatio()": "ce23aa7b",
    "getBondingSurfaceFormula()": "a3f737b5",
    "getCapitalRequired()": "422eeba4",
    "getCurrentSeize()": "15b3f77b",
    "getIssuanceToken()": "1ca3bc4f",
    "getLastSeizeTimestamp()": "cd366677",
    "getLiquidityVaultController()": "89e0062c",
    "getRepayableAmount()": "fa7aa287",
    "getSeizableAmount()": "3960195f",
    "getStaticPriceForBuying()": "fa03330c",
    "getStaticPriceForSelling()": "bd098404",
    "getTokenVault()": "54f2f7af",
    "grantModuleRole(bytes32,address)": "6c67e807",
    "grantModuleRoleBatched(bytes32,address[])": "272bbd44",
    "identifier()": "7998a1c4",
    "init(address,(uint256,uint256,uint256,string,string),bytes)": "b66a870c",
    "isBuyAndSellRestricted()": "69ba8f1b",
    "isTrustedForwarder(address)": "572b6c05",
    "openBuy()": "d4a67930",
    "openSell()": "f1eae64a",
    "orchestrator()": "b74795d9",
    "projectCollateralFeeCollected()": "cbda8f82",
    "restrictBuyAndSell()": "1562bc61",
    "revokeModuleRole(bytes32,address)": "bcb61920",
    "revokeModuleRoleBatched(bytes32,address[])": "24e30270",
    "seize(uint256)": "2ac05311",
    "sell(uint256,uint256)": "d79875eb",
    "sellFee()": "2b14ca56",
    "sellIsOpen()": "9093b01f",
    "sellTo(address,uint256,uint256)": "c5b27dde",
    "setBasePriceMultiplier(uint256)": "1ad56e3b",
    "setBuyFee(uint256)": "0cc835a3",
    "setCapitalRequired(uint256)": "700cbd90",
    "setLiquidityVaultControllerContract(address)": "b8c85f15",
    "setRepayableAmount(uint256)": "ab03fedb",
    "setSellFee(uint256)": "8b4cee08",
    "setTokenVault(address)": "6497a8a0",
    "supportsInterface(bytes4)": "01ffc9a7",
    "title()": "4a79d50c",
    "token()": "fc0c546a",
    "transferOrchestratorToken(address,uint256)": "759cc4b5",
    "transferRepayment(address,uint256)": "b0e45ef8",
    "trustedForwarder()": "7da0a877",
    "unrestrictBuyAndSell()": "99964842",
    "url()": "5600f04f",
    "version()": "54fd4d50",
    "withdrawProjectCollateralFee(address,uint256)": "4f893bba"
  },
  "id": 125
}