{
  "abi": [
    {
      "type": "function",
      "name": "deposit",
      "inputs": [
        {
          "name": "amount",
          "type": "uint256",
          "internalType": "uint256"
        }
      ],
      "outputs": [],
      "stateMutability": "nonpayable"
    },
    {
      "type": "function",
      "name": "grantModuleRole",
      "inputs": [
        {
          "name": "role",
          "type": "bytes32",
          "internalType": "bytes32"
        },
        {
          "name": "target",
          "type": "address",
          "internalType": "address"
        }
      ],
      "outputs": [],
      "stateMutability": "nonpayable"
    },
    {
      "type": "function",
      "name": "grantModuleRoleBatched",
      "inputs": [
        {
          "name": "role",
          "type": "bytes32",
          "internalType": "bytes32"
        },
        {
          "name": "targets",
          "type": "address[]",
          "internalType": "address[]"
        }
      ],
      "outputs": [],
      "stateMutability": "nonpayable"
    },
    {
      "type": "function",
      "name": "identifier",
      "inputs": [],
      "outputs": [
        {
          "name": "",
          "type": "bytes32",
          "internalType": "bytes32"
        }
      ],
      "stateMutability": "view"
    },
    {
      "type": "function",
      "name": "init",
      "inputs": [
        {
          "name": "orchestrator_",
          "type": "address",
          "internalType": "contract IOrchestrator_v1"
        },
        {
          "name": "metadata",
          "type": "tuple",
          "internalType": "struct IModule_v1.Metadata",
          "components": [
            {
              "name": "majorVersion",
              "type": "uint256",
              "internalType": "uint256"
            },
            {
              "name": "minorVersion",
              "type": "uint256",
              "internalType": "uint256"
            },
            {
              "name": "patchVersion",
              "type": "uint256",
              "internalType": "uint256"
            },
            {
              "name": "url",
              "type": "string",
              "internalType": "string"
            },
            {
              "name": "title",
              "type": "string",
              "internalType": "string"
            }
          ]
        },
        {
          "name": "configData",
          "type": "bytes",
          "internalType": "bytes"
        }
      ],
      "outputs": [],
      "stateMutability": "nonpayable"
    },
    {
      "type": "function",
      "name": "isTrustedForwarder",
      "inputs": [
        {
          "name": "forwarder",
          "type": "address",
          "internalType": "address"
        }
      ],
      "outputs": [
        {
          "name": "",
          "type": "bool",
          "internalType": "bool"
        }
      ],
      "stateMutability": "view"
    },
    {
      "type": "function",
      "name": "orchestrator",
      "inputs": [],
      "outputs": [
        {
          "name": "",
          "type": "address",
          "internalType": "contract IOrchestrator_v1"
        }
      ],
      "stateMutability": "view"
    },
    {
      "type": "function",
      "name": "revokeModuleRole",
      "inputs": [
        {
          "name": "role",
          "type": "bytes32",
          "internalType": "bytes32"
        },
        {
          "name": "target",
          "type": "address",
          "internalType": "address"
        }
      ],
      "outputs": [],
      "stateMutability": "nonpayable"
    },
    {
      "type": "function",
      "name": "revokeModuleRoleBatched",
      "inputs": [
        {
          "name": "role",
          "type": "bytes32",
          "internalType": "bytes32"
        },
        {
          "name": "targets",
          "type": "address[]",
          "internalType": "address[]"
        }
      ],
      "outputs": [],
      "stateMutability": "nonpayable"
    },
    {
      "type": "function",
      "name": "supportsInterface",
      "inputs": [
        {
          "name": "interfaceId",
          "type": "bytes4",
          "internalType": "bytes4"
        }
      ],
      "outputs": [
        {
          "name": "",
          "type": "bool",
          "internalType": "bool"
        }
      ],
      "stateMutability": "view"
    },
    {
      "type": "function",
      "name": "title",
      "inputs": [],
      "outputs": [
        {
          "name": "",
          "type": "string",
          "internalType": "string"
        }
      ],
      "stateMutability": "view"
    },
    {
      "type": "function",
      "name": "token",
      "inputs": [],
      "outputs": [
        {
          "name": "",
          "type": "address",
          "internalType": "contract IERC20"
        }
      ],
      "stateMutability": "view"
    },
    {
      "type": "function",
      "name": "transferOrchestratorToken",
      "inputs": [
        {
          "name": "to",
          "type": "address",
          "internalType": "address"
        },
        {
          "name": "amount",
          "type": "uint256",
          "internalType": "uint256"
        }
      ],
      "outputs": [],
      "stateMutability": "nonpayable"
    },
    {
      "type": "function",
      "name": "trustedForwarder",
      "inputs": [],
      "outputs": [
        {
          "name": "",
          "type": "address",
          "internalType": "address"
        }
      ],
      "stateMutability": "view"
    },
    {
      "type": "function",
      "name": "url",
      "inputs": [],
      "outputs": [
        {
          "name": "",
          "type": "string",
          "internalType": "string"
        }
      ],
      "stateMutability": "view"
    },
    {
      "type": "function",
      "name": "version",
      "inputs": [],
      "outputs": [
        {
          "name": "",
          "type": "uint256",
          "internalType": "uint256"
        },
        {
          "name": "",
          "type": "uint256",
          "internalType": "uint256"
        },
        {
          "name": "",
          "type": "uint256",
          "internalType": "uint256"
        }
      ],
      "stateMutability": "view"
    },
    {
      "type": "event",
      "name": "Deposit",
      "inputs": [
        {
          "name": "_from",
          "type": "address",
          "indexed": true,
          "internalType": "address"
        },
        {
          "name": "_amount",
          "type": "uint256",
          "indexed": false,
          "internalType": "uint256"
        }
      ],
      "anonymous": false
    },
    {
      "type": "event",
      "name": "Initialized",
      "inputs": [
        {
          "name": "version",
          "type": "uint64",
          "indexed": false,
          "internalType": "uint64"
        }
      ],
      "anonymous": false
    },
    {
      "type": "event",
      "name": "ModuleInitialized",
      "inputs": [
        {
          "name": "parentOrchestrator",
          "type": "address",
          "indexed": true,
          "internalType": "address"
        },
        {
          "name": "metadata",
          "type": "tuple",
          "indexed": false,
          "internalType": "struct IModule_v1.Metadata",
          "components": [
            {
              "name": "majorVersion",
              "type": "uint256",
              "internalType": "uint256"
            },
            {
              "name": "minorVersion",
              "type": "uint256",
              "internalType": "uint256"
            },
            {
              "name": "patchVersion",
              "type": "uint256",
              "internalType": "uint256"
            },
            {
              "name": "url",
              "type": "string",
              "internalType": "string"
            },
            {
              "name": "title",
              "type": "string",
              "internalType": "string"
            }
          ]
        }
      ],
      "anonymous": false
    },
    {
      "type": "event",
      "name": "OrchestratorTokenSet",
      "inputs": [
        {
          "name": "token",
          "type": "address",
          "indexed": true,
          "internalType": "address"
        },
        {
          "name": "decimals",
          "type": "uint8",
          "indexed": false,
          "internalType": "uint8"
        }
      ],
      "anonymous": false
    },
    {
      "type": "event",
      "name": "TransferOrchestratorToken",
      "inputs": [
        {
          "name": "_to",
          "type": "address",
          "indexed": true,
          "internalType": "address"
        },
        {
          "name": "_amount",
          "type": "uint256",
          "indexed": false,
          "internalType": "uint256"
        }
      ],
      "anonymous": false
    },
    {
      "type": "error",
      "name": "AddressEmptyCode",
      "inputs": [
        {
          "name": "target",
          "type": "address",
          "internalType": "address"
        }
      ]
    },
    {
      "type": "error",
      "name": "AddressInsufficientBalance",
      "inputs": [
        {
          "name": "account",
          "type": "address",
          "internalType": "address"
        }
      ]
    },
    {
      "type": "error",
      "name": "FailedInnerCall",
      "inputs": []
    },
    {
      "type": "error",
      "name": "InvalidInitialization",
      "inputs": []
    },
    {
      "type": "error",
      "name": "Module_OrchestratorCallbackFailed",
      "inputs": [
        {
          "name": "funcSig",
          "type": "string",
          "internalType": "string"
        }
      ]
    },
    {
      "type": "error",
      "name": "Module__CallerNotAuthorized",
      "inputs": [
        {
          "name": "role",
          "type": "bytes32",
          "internalType": "bytes32"
        },
        {
          "name": "caller",
          "type": "address",
          "internalType": "address"
        }
      ]
    },
    {
      "type": "error",
      "name": "Module__InvalidAddress",
      "inputs": []
    },
    {
      "type": "error",
      "name": "Module__InvalidMetadata",
      "inputs": []
    },
    {
      "type": "error",
      "name": "Module__InvalidOrchestratorAddress",
      "inputs": []
    },
    {
      "type": "error",
      "name": "Module__OnlyCallableByOrchestrator",
      "inputs": []
    },
    {
      "type": "error",
      "name": "Module__OnlyCallableByPaymentClient",
      "inputs": []
    },
    {
      "type": "error",
      "name": "NotInitializing",
      "inputs": []
    },
    {
      "type": "error",
      "name": "SafeERC20FailedOperation",
      "inputs": [
        {
          "name": "token",
          "type": "address",
          "internalType": "address"
        }
      ]
    }
  ],
  "bytecode": {
    "object": "0x60a060405234801561001057600080fd5b50600060805261001e610023565b6100d5565b7ff0c57e16840df040f15088dc2f81fe391c3923bec73e23a9662efc9c229c6a00805468010000000000000000900460ff16156100735760405163f92ee8a960e01b815260040160405180910390fd5b80546001600160401b03908116146100d25780546001600160401b0319166001600160401b0390811782556040519081527fc7f505b2f371ae2175ee4913f4499e1f2633a7b5936321eed1cdaeb6115181d29060200160405180910390a15b50565b608051611e7d6100ed60003960005050611e7d6000f3fe608060405234801561001057600080fd5b50600436106101005760003560e01c8063759cc4b511610097578063b6b55f2511610066578063b6b55f2514610218578063b74795d91461022b578063bcb619201461023c578063fc0c546a1461024f57600080fd5b8063759cc4b5146101bc5780637998a1c4146101cf5780637da0a877146101e5578063b66a870c1461020557600080fd5b806354fd4d50116100d357806354fd4d501461016a5780635600f04f1461018e578063572b6c05146101965780636c67e807146101a957600080fd5b806301ffc9a71461010557806324e302701461012d578063272bbd44146101425780634a79d50c14610155575b600080fd5b6101186101133660046117c1565b610260565b60405190151581526020015b60405180910390f35b61014061013b3660046117eb565b6102a6565b005b6101406101503660046117eb565b610558565b61015d610732565b60405161012491906118ba565b60015460025460035460408051938452602084019290925290820152606001610124565b61015d6107c7565b6101186101a43660046118e2565b6107d9565b6101406101b73660046118ff565b610848565b6101406101ca36600461192f565b610a5e565b6101d7610adf565b604051908152602001610124565b6101ed610c3d565b6040516001600160a01b039091168152602001610124565b610140610213366004611a27565b610cb5565b610140610226366004611b0d565b610e1f565b6000546001600160a01b03166101ed565b61014061024a3660046118ff565b610e9b565b6038546001600160a01b03166101ed565b60006001600160e01b0319821663899090df60e01b148061029157506001600160e01b0319821663b6b55f2560e01b145b806102a057506102a08261107d565b92915050565b600080546040805163d09edf3160e01b815290518693926001600160a01b03169163d09edf319160048083019260209291908290030181865afa1580156102f1573d6000803e3d6000fd5b505050506040513d601f19601f820116820180604052508101906103159190611b26565b60405163fdd5205f60e01b8152306004820152602481018490526001600160a01b03919091169063fdd5205f90604401602060405180830381865afa158015610362573d6000803e3d6000fd5b505050506040513d601f19601f820116820180604052508101906103869190611b43565b905061047b60008054906101000a90046001600160a01b03166001600160a01b031663d09edf316040518163ffffffff1660e01b8152600401602060405180830381865afa1580156103dc573d6000803e3d6000fd5b505050506040513d601f19601f820116820180604052508101906104009190611b26565b6001600160a01b031663248a9ca3836040518263ffffffff1660e01b815260040161042d91815260200190565b602060405180830381865afa15801561044a573d6000803e3d6000fd5b505050506040513d601f19601f8201168201806040525081019061046e9190611b43565b6104766110b2565b611104565b60008054906101000a90046001600160a01b03166001600160a01b031663d09edf316040518163ffffffff1660e01b8152600401602060405180830381865afa1580156104cc573d6000803e3d6000fd5b505050506040513d601f19601f820116820180604052508101906104f09190611b26565b6001600160a01b0316637d540a648686866040518463ffffffff1660e01b815260040161051f93929190611b5c565b600060405180830381600087803b15801561053957600080fd5b505af115801561054d573d6000803e3d6000fd5b505050505050505050565b600080546040805163d09edf3160e01b815290518693926001600160a01b03169163d09edf319160048083019260209291908290030181865afa1580156105a3573d6000803e3d6000fd5b505050506040513d601f19601f820116820180604052508101906105c79190611b26565b60405163fdd5205f60e01b8152306004820152602481018490526001600160a01b03919091169063fdd5205f90604401602060405180830381865afa158015610614573d6000803e3d6000fd5b505050506040513d601f19601f820116820180604052508101906106389190611b43565b905061068e60008054906101000a90046001600160a01b03166001600160a01b031663d09edf316040518163ffffffff1660e01b8152600401602060405180830381865afa1580156103dc573d6000803e3d6000fd5b60008054906101000a90046001600160a01b03166001600160a01b031663d09edf316040518163ffffffff1660e01b8152600401602060405180830381865afa1580156106df573d6000803e3d6000fd5b505050506040513d601f19601f820116820180604052508101906107039190611b26565b6001600160a01b031663648154538686866040518463ffffffff1660e01b815260040161051f93929190611b5c565b60606001600401805461074490611bb4565b80601f016020809104026020016040519081016040528092919081815260200182805461077090611bb4565b80156107bd5780601f10610792576101008083540402835291602001916107bd565b820191906000526020600020905b8154815290600101906020018083116107a057829003601f168201915b5050505050905090565b60606001600301805461074490611bb4565b6000805460405163572b6c0560e01b81526001600160a01b0384811660048301529091169063572b6c0590602401602060405180830381865afa158015610824573d6000803e3d6000fd5b505050506040513d601f19601f820116820180604052508101906102a09190611bee565b600080546040805163d09edf3160e01b815290518593926001600160a01b03169163d09edf319160048083019260209291908290030181865afa158015610893573d6000803e3d6000fd5b505050506040513d601f19601f820116820180604052508101906108b79190611b26565b60405163fdd5205f60e01b8152306004820152602481018490526001600160a01b03919091169063fdd5205f90604401602060405180830381865afa158015610904573d6000803e3d6000fd5b505050506040513d601f19601f820116820180604052508101906109289190611b43565b905061097e60008054906101000a90046001600160a01b03166001600160a01b031663d09edf316040518163ffffffff1660e01b8152600401602060405180830381865afa1580156103dc573d6000803e3d6000fd5b60008054906101000a90046001600160a01b03166001600160a01b031663d09edf316040518163ffffffff1660e01b8152600401602060405180830381865afa1580156109cf573d6000803e3d6000fd5b505050506040513d601f19601f820116820180604052508101906109f39190611b26565b60405163385e205560e21b8152600481018690526001600160a01b038581166024830152919091169063e1788154906044015b600060405180830381600087803b158015610a4057600080fd5b505af1158015610a54573d6000803e3d6000fd5b5050505050505050565b610a66611224565b81610a7081611347565b610a978383610a876038546001600160a01b031690565b6001600160a01b03169190611386565b826001600160a01b03167fe88292c5f714100904272672c0420345093bd0e3c5555d31f3e4e2cf5f6ca8a183604051610ad291815260200190565b60405180910390a2505050565b6000610c3860016040518060a0016040529081600082015481526020016001820154815260200160028201548152602001600382018054610b1f90611bb4565b80601f0160208091040260200160405190810160405280929190818152602001828054610b4b90611bb4565b8015610b985780601f10610b6d57610100808354040283529160200191610b98565b820191906000526020600020905b815481529060010190602001808311610b7b57829003601f168201915b50505050508152602001600482018054610bb190611bb4565b80601f0160208091040260200160405190810160405280929190818152602001828054610bdd90611bb4565b8015610c2a5780601f10610bff57610100808354040283529160200191610c2a565b820191906000526020600020905b815481529060010190602001808311610c0d57829003601f168201915b5050505050815250506113ff565b905090565b60008060009054906101000a90046001600160a01b03166001600160a01b0316637da0a8776040518163ffffffff1660e01b8152600401602060405180830381865afa158015610c91573d6000803e3d6000fd5b505050506040513d601f19601f82011682018060405250810190610c389190611b26565b7ff0c57e16840df040f15088dc2f81fe391c3923bec73e23a9662efc9c229c6a00805468010000000000000000810460ff16159067ffffffffffffffff16600081158015610d005750825b905060008267ffffffffffffffff166001148015610d1d5750303b155b905081158015610d2b575080155b15610d495760405163f92ee8a960e01b815260040160405180910390fd5b845467ffffffffffffffff191660011785558315610d7d57845468ff00000000000000001916680100000000000000001785555b610d87888861143f565b600086806020019051810190610d9d9190611b26565b6038805473ffffffffffffffffffffffffffffffffffffffff19166001600160a01b0392909216919091179055508315610a5457845468ff000000000000000019168555604051600181527fc7f505b2f371ae2175ee4913f4499e1f2633a7b5936321eed1cdaeb6115181d29060200160405180910390a15050505050505050565b6000610e296110b2565b9050610e54813084610e436038546001600160a01b031690565b6001600160a01b031692919061153a565b806001600160a01b03167fe1fffcc4923d04b559f4d29a8bfc6cda04eb5b0d3c460751c2402c5c5cc9109c83604051610e8f91815260200190565b60405180910390a25050565b600080546040805163d09edf3160e01b815290518593926001600160a01b03169163d09edf319160048083019260209291908290030181865afa158015610ee6573d6000803e3d6000fd5b505050506040513d601f19601f82011682018060405250810190610f0a9190611b26565b60405163fdd5205f60e01b8152306004820152602481018490526001600160a01b03919091169063fdd5205f90604401602060405180830381865afa158015610f57573d6000803e3d6000fd5b505050506040513d601f19601f82011682018060405250810190610f7b9190611b43565b9050610fd160008054906101000a90046001600160a01b03166001600160a01b031663d09edf316040518163ffffffff1660e01b8152600401602060405180830381865afa1580156103dc573d6000803e3d6000fd5b60008054906101000a90046001600160a01b03166001600160a01b031663d09edf316040518163ffffffff1660e01b8152600401602060405180830381865afa158015611022573d6000803e3d6000fd5b505050506040513d601f19601f820116820180604052508101906110469190611b26565b604051632e99be7f60e21b8152600481018690526001600160a01b038581166024830152919091169063ba66f9fc90604401610a26565b60006001600160e01b0319821663e328951160e01b14806102a057506301ffc9a760e01b6001600160e01b03198316146102a0565b60003660146110c0336107d9565b80156110cc5750808210155b156110fc576000366110de8385611c10565b6110e9928290611c31565b6110f291611c5b565b60601c9250505090565b339250505090565b60008054906101000a90046001600160a01b03166001600160a01b031663d09edf316040518163ffffffff1660e01b8152600401602060405180830381865afa158015611155573d6000803e3d6000fd5b505050506040513d601f19601f820116820180604052508101906111799190611b26565b60405163a883867d60e01b8152600481018490526001600160a01b038381166024830152919091169063a883867d90604401602060405180830381865afa1580156111c8573d6000803e3d6000fd5b505050506040513d601f19601f820116820180604052508101906111ec9190611bee565b611220576040516342abbb7760e01b8152600481018390526001600160a01b03821660248201526044015b60405180910390fd5b5050565b6000546001600160a01b03166342f6e38961123d6110b2565b6040516001600160e01b031960e084901b1681526001600160a01b039091166004820152602401602060405180830381865afa158015611281573d6000803e3d6000fd5b505050506040513d601f19601f820116820180604052508101906112a59190611bee565b158061132757506112b46110b2565b6040516301ffc9a760e01b815263286309c760e01b60048201526001600160a01b0391909116906301ffc9a790602401602060405180830381865afa158015611301573d6000803e3d6000fd5b505050506040513d601f19601f820116820180604052508101906113259190611bee565b155b1561134557604051631b793e7f60e21b815260040160405180910390fd5b565b6001600160a01b038116158061136557506001600160a01b03811630145b15611383576040516351cfef5f60e01b815260040160405180910390fd5b50565b6040516001600160a01b038381166024830152604482018390526113fa91859182169063a9059cbb906064015b604051602081830303815290604052915060e01b6020820180517bffffffffffffffffffffffffffffffffffffffffffffffffffffffff8381831617835250505050611579565b505050565b600081600001518260600151836080015160405160200161142293929190611c90565b604051602081830303815290604052805190602001209050919050565b6114476115dc565b6001600160a01b03821661146e57604051637280679360e01b815260040160405180910390fd5b6000805473ffffffffffffffffffffffffffffffffffffffff19166001600160a01b03841617905561149f8161162a565b6114bc57604051637511254160e01b815260040160405180910390fd5b805160019081556020820151600255604082015160035560608201518291906004906114e89082611d0b565b50608082015160048201906114fd9082611d0b565b50905050816001600160a01b03167fd5f3f84c2e1816ce290af84d002663800b02f2985d770cdd335de76fd723b73082604051610e8f9190611dcb565b6040516001600160a01b0384811660248301528381166044830152606482018390526115739186918216906323b872dd906084016113b3565b50505050565b600061158e6001600160a01b0384168361168a565b905080516000141580156115b35750808060200190518101906115b19190611bee565b155b156113fa57604051635274afe760e01b81526001600160a01b0384166004820152602401611217565b7ff0c57e16840df040f15088dc2f81fe391c3923bec73e23a9662efc9c229c6a005468010000000000000000900460ff1661134557604051631afcd79f60e31b815260040160405180910390fd5b600081606001515160000361164157506000919050565b81608001515160000361165657506000919050565b815115801561166757506020820151155b801561167557506040820151155b1561168257506000919050565b506001919050565b60606116988383600061169f565b9392505050565b6060814710156116c45760405163cd78605960e01b8152306004820152602401611217565b600080856001600160a01b031684866040516116e09190611e2b565b60006040518083038185875af1925050503d806000811461171d576040519150601f19603f3d011682016040523d82523d6000602084013e611722565b606091505b509150915061173286838361173c565b9695505050505050565b6060826117515761174c82611798565b611698565b815115801561176857506001600160a01b0384163b155b1561179157604051639996b31560e01b81526001600160a01b0385166004820152602401611217565b5080611698565b8051156117a85780518082602001fd5b604051630a12f52160e11b815260040160405180910390fd5b6000602082840312156117d357600080fd5b81356001600160e01b03198116811461169857600080fd5b60008060006040848603121561180057600080fd5b83359250602084013567ffffffffffffffff8082111561181f57600080fd5b818601915086601f83011261183357600080fd5b81358181111561184257600080fd5b8760208260051b850101111561185757600080fd5b6020830194508093505050509250925092565b60005b8381101561188557818101518382015260200161186d565b50506000910152565b600081518084526118a681602086016020860161186a565b601f01601f19169290920160200192915050565b602081526000611698602083018461188e565b6001600160a01b038116811461138357600080fd5b6000602082840312156118f457600080fd5b8135611698816118cd565b6000806040838503121561191257600080fd5b823591506020830135611924816118cd565b809150509250929050565b6000806040838503121561194257600080fd5b823561194d816118cd565b946020939093013593505050565b634e487b7160e01b600052604160045260246000fd5b60405160a0810167ffffffffffffffff811182821017156119945761199461195b565b60405290565b600082601f8301126119ab57600080fd5b813567ffffffffffffffff808211156119c6576119c661195b565b604051601f8301601f19908116603f011681019082821181831017156119ee576119ee61195b565b81604052838152866020858801011115611a0757600080fd5b836020870160208301376000602085830101528094505050505092915050565b600080600060608486031215611a3c57600080fd5b8335611a47816118cd565b9250602084013567ffffffffffffffff80821115611a6457600080fd5b9085019060a08288031215611a7857600080fd5b611a80611971565b823581526020830135602082015260408301356040820152606083013582811115611aaa57600080fd5b611ab68982860161199a565b606083015250608083013582811115611ace57600080fd5b611ada8982860161199a565b60808301525093506040860135915080821115611af657600080fd5b50611b038682870161199a565b9150509250925092565b600060208284031215611b1f57600080fd5b5035919050565b600060208284031215611b3857600080fd5b8151611698816118cd565b600060208284031215611b5557600080fd5b5051919050565b83815260406020808301829052908201839052600090849060608401835b86811015611ba8578335611b8d816118cd565b6001600160a01b031682529282019290820190600101611b7a565b50979650505050505050565b600181811c90821680611bc857607f821691505b602082108103611be857634e487b7160e01b600052602260045260246000fd5b50919050565b600060208284031215611c0057600080fd5b8151801515811461169857600080fd5b818103818111156102a057634e487b7160e01b600052601160045260246000fd5b60008085851115611c4157600080fd5b83861115611c4e57600080fd5b5050820193919092039150565b6bffffffffffffffffffffffff198135818116916014851015611c885780818660140360031b1b83161692505b505092915050565b838152606060208201526000611ca9606083018561188e565b8281036040840152611732818561188e565b601f8211156113fa576000816000526020600020601f850160051c81016020861015611ce45750805b601f850160051c820191505b81811015611d0357828155600101611cf0565b505050505050565b815167ffffffffffffffff811115611d2557611d2561195b565b611d3981611d338454611bb4565b84611cbb565b602080601f831160018114611d6e5760008415611d565750858301515b600019600386901b1c1916600185901b178555611d03565b600085815260208120601f198616915b82811015611d9d57888601518255948401946001909101908401611d7e565b5085821015611dbb5787850151600019600388901b60f8161c191681555b5050505050600190811b01905550565b602081528151602082015260208201516040820152604082015160608201526000606083015160a06080840152611e0560c084018261188e565b90506080840151601f198483030160a0850152611e22828261188e565b95945050505050565b60008251611e3d81846020870161186a565b919091019291505056fea264697066735822122074dd49ec9ca324ec1d5339d0a256b1d405b973da97b8d2ec693aa2166e5d66a264736f6c63430008170033",
    "linkReferences": {}
  },
  "methodIdentifiers": {
    "deposit(uint256)": "b6b55f25",
    "grantModuleRole(bytes32,address)": "6c67e807",
    "grantModuleRoleBatched(bytes32,address[])": "272bbd44",
    "identifier()": "7998a1c4",
    "init(address,(uint256,uint256,uint256,string,string),bytes)": "b66a870c",
    "isTrustedForwarder(address)": "572b6c05",
    "orchestrator()": "b74795d9",
    "revokeModuleRole(bytes32,address)": "bcb61920",
    "revokeModuleRoleBatched(bytes32,address[])": "24e30270",
    "supportsInterface(bytes4)": "01ffc9a7",
    "title()": "4a79d50c",
    "token()": "fc0c546a",
    "transferOrchestratorToken(address,uint256)": "759cc4b5",
    "trustedForwarder()": "7da0a877",
    "url()": "5600f04f",
    "version()": "54fd4d50"
  },
  "id": 123
}