{
  "abi": [
    {
      "type": "function",
      "name": "amountPaid",
      "inputs": [
        {
          "name": "token_",
          "type": "address",
          "internalType": "address"
        },
        {
          "name": "amount_",
          "type": "uint256",
          "internalType": "uint256"
        }
      ],
      "outputs": [],
      "stateMutability": "nonpayable"
    },
    {
      "type": "function",
      "name": "buy",
      "inputs": [
        {
          "name": "collateralAmount_",
          "type": "uint256",
          "internalType": "uint256"
        },
        {
          "name": "minAmountOut_",
          "type": "uint256",
          "internalType": "uint256"
        }
      ],
      "outputs": [],
      "stateMutability": "nonpayable"
    },
    {
      "type": "function",
      "name": "buyFee",
      "inputs": [],
      "outputs": [
        {
          "name": "",
          "type": "uint256",
          "internalType": "uint256"
        }
      ],
      "stateMutability": "view"
    },
    {
      "type": "function",
      "name": "buyFor",
      "inputs": [
        {
          "name": "receiver_",
          "type": "address",
          "internalType": "address"
        },
        {
          "name": "depositAmount_",
          "type": "uint256",
          "internalType": "uint256"
        },
        {
          "name": "minAmountOut_",
          "type": "uint256",
          "internalType": "uint256"
        }
      ],
      "outputs": [],
      "stateMutability": "nonpayable"
    },
    {
      "type": "function",
      "name": "buyIsOpen",
      "inputs": [],
      "outputs": [
        {
          "name": "",
          "type": "bool",
          "internalType": "bool"
        }
      ],
      "stateMutability": "view"
    },
    {
      "type": "function",
      "name": "calculatePurchaseReturn",
      "inputs": [
        {
          "name": "_depositAmount",
          "type": "uint256",
          "internalType": "uint256"
        }
      ],
      "outputs": [
        {
          "name": "mintAmount",
          "type": "uint256",
          "internalType": "uint256"
        }
      ],
      "stateMutability": "view"
    },
    {
      "type": "function",
      "name": "calculateSaleReturn",
      "inputs": [
        {
          "name": "_depositAmount",
          "type": "uint256",
          "internalType": "uint256"
        }
      ],
      "outputs": [
        {
          "name": "redeemAmount",
          "type": "uint256",
          "internalType": "uint256"
        }
      ],
      "stateMutability": "view"
    },
    {
      "type": "function",
      "name": "closeBuy",
      "inputs": [],
      "outputs": [],
      "stateMutability": "nonpayable"
    },
    {
      "type": "function",
      "name": "closeSell",
      "inputs": [],
      "outputs": [],
      "stateMutability": "nonpayable"
    },
    {
      "type": "function",
      "name": "collectPaymentOrders",
      "inputs": [],
      "outputs": [
        {
          "name": "paymentOrders_",
          "type": "tuple[]",
          "internalType": "struct IERC20PaymentClientBase_v1.PaymentOrder[]",
          "components": [
            {
              "name": "recipient",
              "type": "address",
              "internalType": "address"
            },
            {
              "name": "paymentToken",
              "type": "address",
              "internalType": "address"
            },
            {
              "name": "amount",
              "type": "uint256",
              "internalType": "uint256"
            },
            {
              "name": "originChainId",
              "type": "uint256",
              "internalType": "uint256"
            },
            {
              "name": "targetChainId",
              "type": "uint256",
              "internalType": "uint256"
            },
            {
              "name": "flags",
              "type": "bytes32",
              "internalType": "bytes32"
            },
            {
              "name": "data",
              "type": "bytes32[]",
              "internalType": "bytes32[]"
            }
          ]
        },
        {
          "name": "tokens_",
          "type": "address[]",
          "internalType": "address[]"
        },
        {
          "name": "totalAmounts_",
          "type": "uint256[]",
          "internalType": "uint256[]"
        }
      ],
      "stateMutability": "nonpayable"
    },
    {
      "type": "function",
      "name": "depositReserve",
      "inputs": [
        {
          "name": "amount_",
          "type": "uint256",
          "internalType": "uint256"
        }
      ],
      "outputs": [],
      "stateMutability": "nonpayable"
    },
    {
      "type": "function",
      "name": "executeRedemptionQueue",
      "inputs": [],
      "outputs": [],
      "stateMutability": "nonpayable"
    },
    {
      "type": "function",
      "name": "getBuyFee",
      "inputs": [],
      "outputs": [
        {
          "name": "buyFee_",
          "type": "uint256",
          "internalType": "uint256"
        }
      ],
      "stateMutability": "view"
    },
    {
      "type": "function",
      "name": "getFlagCount",
      "inputs": [],
      "outputs": [
        {
          "name": "flagCount_",
          "type": "uint8",
          "internalType": "uint8"
        }
      ],
      "stateMutability": "view"
    },
    {
      "type": "function",
      "name": "getFlags",
      "inputs": [],
      "outputs": [
        {
          "name": "flags_",
          "type": "bytes32",
          "internalType": "bytes32"
        }
      ],
      "stateMutability": "view"
    },
    {
      "type": "function",
      "name": "getIsDirectOperationsOnly",
      "inputs": [],
      "outputs": [
        {
          "name": "isDirectOnly_",
          "type": "bool",
          "internalType": "bool"
        }
      ],
      "stateMutability": "view"
    },
    {
      "type": "function",
      "name": "getIssuanceToken",
      "inputs": [],
      "outputs": [
        {
          "name": "",
          "type": "address",
          "internalType": "address"
        }
      ],
      "stateMutability": "view"
    },
    {
      "type": "function",
      "name": "getMaxProjectBuyFee",
      "inputs": [],
      "outputs": [
        {
          "name": "maxProjectBuyFee_",
          "type": "uint256",
          "internalType": "uint256"
        }
      ],
      "stateMutability": "view"
    },
    {
      "type": "function",
      "name": "getMaxProjectSellFee",
      "inputs": [],
      "outputs": [
        {
          "name": "maxProjectSellFee_",
          "type": "uint256",
          "internalType": "uint256"
        }
      ],
      "stateMutability": "view"
    },
    {
      "type": "function",
      "name": "getOpenRedemptionAmount",
      "inputs": [],
      "outputs": [
        {
          "name": "amount_",
          "type": "uint256",
          "internalType": "uint256"
        }
      ],
      "stateMutability": "view"
    },
    {
      "type": "function",
      "name": "getOracle",
      "inputs": [],
      "outputs": [
        {
          "name": "oracle_",
          "type": "address",
          "internalType": "address"
        }
      ],
      "stateMutability": "view"
    },
    {
      "type": "function",
      "name": "getOrderId",
      "inputs": [],
      "outputs": [
        {
          "name": "orderId_",
          "type": "uint256",
          "internalType": "uint256"
        }
      ],
      "stateMutability": "view"
    },
    {
      "type": "function",
      "name": "getProjectTreasury",
      "inputs": [],
      "outputs": [
        {
          "name": "treasury_",
          "type": "address",
          "internalType": "address"
        }
      ],
      "stateMutability": "view"
    },
    {
      "type": "function",
      "name": "getQueueExecutorRole",
      "inputs": [],
      "outputs": [
        {
          "name": "role_",
          "type": "bytes32",
          "internalType": "bytes32"
        }
      ],
      "stateMutability": "pure"
    },
    {
      "type": "function",
      "name": "getQueueExecutorRoleAdmin",
      "inputs": [],
      "outputs": [
        {
          "name": "role_",
          "type": "bytes32",
          "internalType": "bytes32"
        }
      ],
      "stateMutability": "pure"
    },
    {
      "type": "function",
      "name": "getSellFee",
      "inputs": [],
      "outputs": [
        {
          "name": "fee_",
          "type": "uint256",
          "internalType": "uint256"
        }
      ],
      "stateMutability": "view"
    },
    {
      "type": "function",
      "name": "getStaticPriceForBuying",
      "inputs": [],
      "outputs": [
        {
          "name": "buyPrice_",
          "type": "uint256",
          "internalType": "uint256"
        }
      ],
      "stateMutability": "view"
    },
    {
      "type": "function",
      "name": "getStaticPriceForSelling",
      "inputs": [],
      "outputs": [
        {
          "name": "sellPrice_",
          "type": "uint256",
          "internalType": "uint256"
        }
      ],
      "stateMutability": "view"
    },
    {
      "type": "function",
      "name": "getWhitelistRole",
      "inputs": [],
      "outputs": [
        {
          "name": "role_",
          "type": "bytes32",
          "internalType": "bytes32"
        }
      ],
      "stateMutability": "pure"
    },
    {
      "type": "function",
      "name": "getWhitelistRoleAdmin",
      "inputs": [],
      "outputs": [
        {
          "name": "role_",
          "type": "bytes32",
          "internalType": "bytes32"
        }
      ],
      "stateMutability": "pure"
    },
    {
      "type": "function",
      "name": "grantModuleRole",
      "inputs": [
        {
          "name": "role",
          "type": "bytes32",
          "internalType": "bytes32"
        },
        {
          "name": "target",
          "type": "address",
          "internalType": "address"
        }
      ],
      "outputs": [],
      "stateMutability": "nonpayable"
    },
    {
      "type": "function",
      "name": "grantModuleRoleBatched",
      "inputs": [
        {
          "name": "role",
          "type": "bytes32",
          "internalType": "bytes32"
        },
        {
          "name": "targets",
          "type": "address[]",
          "internalType": "address[]"
        }
      ],
      "outputs": [],
      "stateMutability": "nonpayable"
    },
    {
      "type": "function",
      "name": "identifier",
      "inputs": [],
      "outputs": [
        {
          "name": "",
          "type": "bytes32",
          "internalType": "bytes32"
        }
      ],
      "stateMutability": "view"
    },
    {
      "type": "function",
      "name": "init",
      "inputs": [
        {
          "name": "orchestrator_",
          "type": "address",
          "internalType": "contract IOrchestrator_v1"
        },
        {
          "name": "metadata_",
          "type": "tuple",
          "internalType": "struct IModule_v1.Metadata",
          "components": [
            {
              "name": "majorVersion",
              "type": "uint256",
              "internalType": "uint256"
            },
            {
              "name": "minorVersion",
              "type": "uint256",
              "internalType": "uint256"
            },
            {
              "name": "patchVersion",
              "type": "uint256",
              "internalType": "uint256"
            },
            {
              "name": "url",
              "type": "string",
              "internalType": "string"
            },
            {
              "name": "title",
              "type": "string",
              "internalType": "string"
            }
          ]
        },
        {
          "name": "configData_",
          "type": "bytes",
          "internalType": "bytes"
        }
      ],
      "outputs": [],
      "stateMutability": "nonpayable"
    },
    {
      "type": "function",
      "name": "isTrustedForwarder",
      "inputs": [
        {
          "name": "forwarder",
          "type": "address",
          "internalType": "address"
        }
      ],
      "outputs": [
        {
          "name": "",
          "type": "bool",
          "internalType": "bool"
        }
      ],
      "stateMutability": "view"
    },
    {
      "type": "function",
      "name": "openBuy",
      "inputs": [],
      "outputs": [],
      "stateMutability": "nonpayable"
    },
    {
      "type": "function",
      "name": "openSell",
      "inputs": [],
      "outputs": [],
      "stateMutability": "nonpayable"
    },
    {
      "type": "function",
      "name": "orchestrator",
      "inputs": [],
      "outputs": [
        {
          "name": "",
          "type": "address",
          "internalType": "contract IOrchestrator_v1"
        }
      ],
      "stateMutability": "view"
    },
    {
      "type": "function",
      "name": "outstandingTokenAmount",
      "inputs": [
        {
          "name": "token_",
          "type": "address",
          "internalType": "address"
        }
      ],
      "outputs": [
        {
          "name": "total_",
          "type": "uint256",
          "internalType": "uint256"
        }
      ],
      "stateMutability": "view"
    },
    {
      "type": "function",
      "name": "paymentOrders",
      "inputs": [],
      "outputs": [
        {
          "name": "",
          "type": "tuple[]",
          "internalType": "struct IERC20PaymentClientBase_v1.PaymentOrder[]",
          "components": [
            {
              "name": "recipient",
              "type": "address",
              "internalType": "address"
            },
            {
              "name": "paymentToken",
              "type": "address",
              "internalType": "address"
            },
            {
              "name": "amount",
              "type": "uint256",
              "internalType": "uint256"
            },
            {
              "name": "originChainId",
              "type": "uint256",
              "internalType": "uint256"
            },
            {
              "name": "targetChainId",
              "type": "uint256",
              "internalType": "uint256"
            },
            {
              "name": "flags",
              "type": "bytes32",
              "internalType": "bytes32"
            },
            {
              "name": "data",
              "type": "bytes32[]",
              "internalType": "bytes32[]"
            }
          ]
        }
      ],
      "stateMutability": "view"
    },
    {
      "type": "function",
      "name": "projectCollateralFeeCollected",
      "inputs": [],
      "outputs": [
        {
          "name": "",
          "type": "uint256",
          "internalType": "uint256"
        }
      ],
      "stateMutability": "view"
    },
    {
      "type": "function",
      "name": "revokeModuleRole",
      "inputs": [
        {
          "name": "role",
          "type": "bytes32",
          "internalType": "bytes32"
        },
        {
          "name": "target",
          "type": "address",
          "internalType": "address"
        }
      ],
      "outputs": [],
      "stateMutability": "nonpayable"
    },
    {
      "type": "function",
      "name": "revokeModuleRoleBatched",
      "inputs": [
        {
          "name": "role",
          "type": "bytes32",
          "internalType": "bytes32"
        },
        {
          "name": "targets",
          "type": "address[]",
          "internalType": "address[]"
        }
      ],
      "outputs": [],
      "stateMutability": "nonpayable"
    },
    {
      "type": "function",
      "name": "sell",
      "inputs": [
        {
          "name": "depositAmount_",
          "type": "uint256",
          "internalType": "uint256"
        },
        {
          "name": "minAmountOut_",
          "type": "uint256",
          "internalType": "uint256"
        }
      ],
      "outputs": [],
      "stateMutability": "nonpayable"
    },
    {
      "type": "function",
      "name": "sellFee",
      "inputs": [],
      "outputs": [
        {
          "name": "",
          "type": "uint256",
          "internalType": "uint256"
        }
      ],
      "stateMutability": "view"
    },
    {
      "type": "function",
      "name": "sellIsOpen",
      "inputs": [],
      "outputs": [
        {
          "name": "",
          "type": "bool",
          "internalType": "bool"
        }
      ],
      "stateMutability": "view"
    },
    {
      "type": "function",
      "name": "sellTo",
      "inputs": [
        {
          "name": "receiver_",
          "type": "address",
          "internalType": "address"
        },
        {
          "name": "depositAmount_",
          "type": "uint256",
          "internalType": "uint256"
        },
        {
          "name": "minAmountOut_",
          "type": "uint256",
          "internalType": "uint256"
        }
      ],
      "outputs": [],
      "stateMutability": "nonpayable"
    },
    {
      "type": "function",
      "name": "setBuyFee",
      "inputs": [
        {
          "name": "fee_",
          "type": "uint256",
          "internalType": "uint256"
        }
      ],
      "outputs": [],
      "stateMutability": "nonpayable"
    },
    {
      "type": "function",
      "name": "setIsDirectOperationsOnly",
      "inputs": [
        {
          "name": "isDirectOperationsOnly_",
          "type": "bool",
          "internalType": "bool"
        }
      ],
      "outputs": [],
      "stateMutability": "nonpayable"
    },
    {
      "type": "function",
      "name": "setOracleAddress",
      "inputs": [
        {
          "name": "oracle_",
          "type": "address",
          "internalType": "address"
        }
      ],
      "outputs": [],
      "stateMutability": "nonpayable"
    },
    {
      "type": "function",
      "name": "setProjectTreasury",
      "inputs": [
        {
          "name": "projectTreasury_",
          "type": "address",
          "internalType": "address"
        }
      ],
      "outputs": [],
      "stateMutability": "nonpayable"
    },
    {
      "type": "function",
      "name": "setSellFee",
      "inputs": [
        {
          "name": "fee_",
          "type": "uint256",
          "internalType": "uint256"
        }
      ],
      "outputs": [],
      "stateMutability": "nonpayable"
    },
    {
      "type": "function",
      "name": "supportsInterface",
      "inputs": [
        {
          "name": "interfaceId_",
          "type": "bytes4",
          "internalType": "bytes4"
        }
      ],
      "outputs": [
        {
          "name": "isSupported_",
          "type": "bool",
          "internalType": "bool"
        }
      ],
      "stateMutability": "view"
    },
    {
      "type": "function",
      "name": "title",
      "inputs": [],
      "outputs": [
        {
          "name": "",
          "type": "string",
          "internalType": "string"
        }
      ],
      "stateMutability": "view"
    },
    {
      "type": "function",
      "name": "token",
      "inputs": [],
      "outputs": [
        {
          "name": "token_",
          "type": "address",
          "internalType": "contract IERC20"
        }
      ],
      "stateMutability": "view"
    },
    {
      "type": "function",
      "name": "transferOrchestratorToken",
      "inputs": [
        {
          "name": "to_",
          "type": "address",
          "internalType": "address"
        },
        {
          "name": "amount_",
          "type": "uint256",
          "internalType": "uint256"
        }
      ],
      "outputs": [],
      "stateMutability": "nonpayable"
    },
    {
      "type": "function",
      "name": "trustedForwarder",
      "inputs": [],
      "outputs": [
        {
          "name": "",
          "type": "address",
          "internalType": "address"
        }
      ],
      "stateMutability": "view"
    },
    {
      "type": "function",
      "name": "url",
      "inputs": [],
      "outputs": [
        {
          "name": "",
          "type": "string",
          "internalType": "string"
        }
      ],
      "stateMutability": "view"
    },
    {
      "type": "function",
      "name": "version",
      "inputs": [],
      "outputs": [
        {
          "name": "",
          "type": "uint256",
          "internalType": "uint256"
        },
        {
          "name": "",
          "type": "uint256",
          "internalType": "uint256"
        },
        {
          "name": "",
          "type": "uint256",
          "internalType": "uint256"
        }
      ],
      "stateMutability": "view"
    },
    {
      "type": "function",
      "name": "withdrawProjectCollateralFee",
      "inputs": [
        {
          "name": "_receiver",
          "type": "address",
          "internalType": "address"
        },
        {
          "name": "_amount",
          "type": "uint256",
          "internalType": "uint256"
        }
      ],
      "outputs": [],
      "stateMutability": "nonpayable"
    },
    {
      "type": "event",
      "name": "BuyFeeUpdated",
      "inputs": [
        {
          "name": "newBuyFee",
          "type": "uint256",
          "indexed": false,
          "internalType": "uint256"
        },
        {
          "name": "oldBuyFee",
          "type": "uint256",
          "indexed": false,
          "internalType": "uint256"
        }
      ],
      "anonymous": false
    },
    {
      "type": "event",
      "name": "BuyingDisabled",
      "inputs": [],
      "anonymous": false
    },
    {
      "type": "event",
      "name": "BuyingEnabled",
      "inputs": [],
      "anonymous": false
    },
    {
      "type": "event",
      "name": "DirectOperationsOnlyUpdated",
      "inputs": [
        {
          "name": "currentIsDirectOperationFlag_",
          "type": "bool",
          "indexed": true,
          "internalType": "bool"
        },
        {
          "name": "newIsDirectOperationFlag_",
          "type": "bool",
          "indexed": true,
          "internalType": "bool"
        }
      ],
      "anonymous": false
    },
    {
      "type": "event",
      "name": "FlagsSet",
      "inputs": [
        {
          "name": "flagCount",
          "type": "uint8",
          "indexed": false,
          "internalType": "uint8"
        },
        {
          "name": "newFlags",
          "type": "bytes32",
          "indexed": false,
          "internalType": "bytes32"
        }
      ],
      "anonymous": false
    },
    {
      "type": "event",
      "name": "Initialized",
      "inputs": [
        {
          "name": "version",
          "type": "uint64",
          "indexed": false,
          "internalType": "uint64"
        }
      ],
      "anonymous": false
    },
    {
      "type": "event",
      "name": "IssuanceTokenSet",
      "inputs": [
        {
          "name": "issuanceToken",
          "type": "address",
          "indexed": true,
          "internalType": "address"
        },
        {
          "name": "decimals",
          "type": "uint8",
          "indexed": false,
          "internalType": "uint8"
        }
      ],
      "anonymous": false
    },
    {
      "type": "event",
      "name": "MaxProjectBuyFeeSet",
      "inputs": [
        {
          "name": "maxProjectBuyFee_",
          "type": "uint256",
          "indexed": false,
          "internalType": "uint256"
        }
      ],
      "anonymous": false
    },
    {
      "type": "event",
      "name": "MaxProjectSellFeeSet",
      "inputs": [
        {
          "name": "maxProjectSellFee_",
          "type": "uint256",
          "indexed": false,
          "internalType": "uint256"
        }
      ],
      "anonymous": false
    },
    {
      "type": "event",
      "name": "ModuleInitialized",
      "inputs": [
        {
          "name": "parentOrchestrator",
          "type": "address",
          "indexed": true,
          "internalType": "address"
        },
        {
          "name": "metadata",
          "type": "tuple",
          "indexed": false,
          "internalType": "struct IModule_v1.Metadata",
          "components": [
            {
              "name": "majorVersion",
              "type": "uint256",
              "internalType": "uint256"
            },
            {
              "name": "minorVersion",
              "type": "uint256",
              "internalType": "uint256"
            },
            {
              "name": "patchVersion",
              "type": "uint256",
              "internalType": "uint256"
            },
            {
              "name": "url",
              "type": "string",
              "internalType": "string"
            },
            {
              "name": "title",
              "type": "string",
              "internalType": "string"
            }
          ]
        }
      ],
      "anonymous": false
    },
    {
      "type": "event",
      "name": "OracleUpdated",
      "inputs": [
        {
          "name": "currentOracle_",
          "type": "address",
          "indexed": true,
          "internalType": "address"
        },
        {
          "name": "newOracle_",
          "type": "address",
          "indexed": true,
          "internalType": "address"
        }
      ],
      "anonymous": false
    },
    {
      "type": "event",
      "name": "OrchestratorTokenSet",
      "inputs": [
        {
          "name": "token",
          "type": "address",
          "indexed": true,
          "internalType": "address"
        },
        {
          "name": "decimals",
          "type": "uint8",
          "indexed": false,
          "internalType": "uint8"
        }
      ],
      "anonymous": false
    },
    {
      "type": "event",
      "name": "PaymentOrderAdded",
      "inputs": [
        {
          "name": "recipient",
          "type": "address",
          "indexed": true,
          "internalType": "address"
        },
        {
          "name": "token",
          "type": "address",
          "indexed": true,
          "internalType": "address"
        },
        {
          "name": "amount",
          "type": "uint256",
          "indexed": false,
          "internalType": "uint256"
        },
        {
          "name": "originChainId",
          "type": "uint256",
          "indexed": false,
          "internalType": "uint256"
        },
        {
          "name": "targetChainId",
          "type": "uint256",
          "indexed": false,
          "internalType": "uint256"
        },
        {
          "name": "flags",
          "type": "bytes32",
          "indexed": false,
          "internalType": "bytes32"
        },
        {
          "name": "data",
          "type": "bytes32[]",
          "indexed": false,
          "internalType": "bytes32[]"
        }
      ],
      "anonymous": false
    },
    {
      "type": "event",
      "name": "ProjectCollateralFeeAdded",
      "inputs": [
        {
          "name": "amount",
          "type": "uint256",
          "indexed": false,
          "internalType": "uint256"
        }
      ],
      "anonymous": false
    },
    {
      "type": "event",
      "name": "ProjectCollateralFeeWithdrawn",
      "inputs": [
        {
          "name": "receiver",
          "type": "address",
          "indexed": false,
          "internalType": "address"
        },
        {
          "name": "amount",
          "type": "uint256",
          "indexed": false,
          "internalType": "uint256"
        }
      ],
      "anonymous": false
    },
    {
      "type": "event",
      "name": "ProjectTreasuryUpdated",
      "inputs": [
        {
          "name": "currentProjectTreasury_",
          "type": "address",
          "indexed": true,
          "internalType": "address"
        },
        {
          "name": "newProjectTreasury_",
          "type": "address",
          "indexed": true,
          "internalType": "address"
        }
      ],
      "anonymous": false
    },
    {
      "type": "event",
      "name": "ProtocolFeeMinted",
      "inputs": [
        {
          "name": "token",
          "type": "address",
          "indexed": true,
          "internalType": "address"
        },
        {
          "name": "treasury",
          "type": "address",
          "indexed": true,
          "internalType": "address"
        },
        {
          "name": "feeAmount",
          "type": "uint256",
          "indexed": false,
          "internalType": "uint256"
        }
      ],
      "anonymous": false
    },
    {
      "type": "event",
      "name": "ProtocolFeeTransferred",
      "inputs": [
        {
          "name": "token",
          "type": "address",
          "indexed": true,
          "internalType": "address"
        },
        {
          "name": "treasury",
          "type": "address",
          "indexed": true,
          "internalType": "address"
        },
        {
          "name": "feeAmount",
          "type": "uint256",
          "indexed": false,
          "internalType": "uint256"
        }
      ],
      "anonymous": false
    },
    {
      "type": "event",
      "name": "RedemptionAmountUpdated",
      "inputs": [
        {
          "name": "_openRedemptionAmount",
          "type": "uint256",
          "indexed": false,
          "internalType": "uint256"
        }
      ],
      "anonymous": false
    },
    {
      "type": "event",
      "name": "RedemptionOrderCreated",
      "inputs": [
        {
          "name": "paymentClient_",
          "type": "address",
          "indexed": true,
          "internalType": "address"
        },
        {
          "name": "orderId_",
          "type": "uint256",
          "indexed": true,
          "internalType": "uint256"
        },
        {
          "name": "seller_",
          "type": "address",
          "indexed": false,
          "internalType": "address"
        },
        {
          "name": "receiver_",
          "type": "address",
          "indexed": true,
          "internalType": "address"
        },
        {
          "name": "sellAmount_",
          "type": "uint256",
          "indexed": false,
          "internalType": "uint256"
        },
        {
          "name": "exchangeRate_",
          "type": "uint256",
          "indexed": false,
          "internalType": "uint256"
        },
        {
          "name": "feePercentage_",
          "type": "uint256",
          "indexed": false,
          "internalType": "uint256"
        },
        {
          "name": "feeAmount_",
          "type": "uint256",
          "indexed": false,
          "internalType": "uint256"
        },
        {
          "name": "finalRedemptionAmount_",
          "type": "uint256",
          "indexed": false,
          "internalType": "uint256"
        },
        {
          "name": "collateralToken_",
          "type": "address",
          "indexed": false,
          "internalType": "address"
        },
        {
          "name": "state_",
          "type": "uint8",
          "indexed": false,
          "internalType": "enum IFM_PC_ExternalPrice_Redeeming_v1.RedemptionState"
        }
      ],
      "anonymous": false
    },
    {
      "type": "event",
      "name": "ReserveDeposited",
      "inputs": [
        {
          "name": "depositor_",
          "type": "address",
          "indexed": true,
          "internalType": "address"
        },
        {
          "name": "amount_",
          "type": "uint256",
          "indexed": false,
          "internalType": "uint256"
        }
      ],
      "anonymous": false
    },
    {
      "type": "event",
      "name": "SellFeeUpdated",
      "inputs": [
        {
          "name": "newSellFee",
          "type": "uint256",
          "indexed": false,
          "internalType": "uint256"
        },
        {
          "name": "oldSellFee",
          "type": "uint256",
          "indexed": false,
          "internalType": "uint256"
        }
      ],
      "anonymous": false
    },
    {
      "type": "event",
      "name": "SellingDisabled",
      "inputs": [],
      "anonymous": false
    },
    {
      "type": "event",
      "name": "SellingEnabled",
      "inputs": [],
      "anonymous": false
    },
    {
      "type": "event",
      "name": "TokenDecimalsUpdated",
      "inputs": [
        {
          "name": "oldDecimals",
          "type": "uint8",
          "indexed": false,
          "internalType": "uint8"
        },
        {
          "name": "newDecimals",
          "type": "uint8",
          "indexed": false,
          "internalType": "uint8"
        }
      ],
      "anonymous": false
    },
    {
      "type": "event",
      "name": "TokensBought",
      "inputs": [
        {
          "name": "receiver",
          "type": "address",
          "indexed": true,
          "internalType": "address"
        },
        {
          "name": "depositAmount",
          "type": "uint256",
          "indexed": false,
          "internalType": "uint256"
        },
        {
          "name": "receivedAmount",
          "type": "uint256",
          "indexed": false,
          "internalType": "uint256"
        },
        {
          "name": "buyer",
          "type": "address",
          "indexed": false,
          "internalType": "address"
        }
      ],
      "anonymous": false
    },
    {
      "type": "event",
      "name": "TokensSold",
      "inputs": [
        {
          "name": "receiver",
          "type": "address",
          "indexed": true,
          "internalType": "address"
        },
        {
          "name": "depositAmount",
          "type": "uint256",
          "indexed": false,
          "internalType": "uint256"
        },
        {
          "name": "receivedAmount",
          "type": "uint256",
          "indexed": false,
          "internalType": "uint256"
        },
        {
          "name": "seller",
          "type": "address",
          "indexed": false,
          "internalType": "address"
        }
      ],
      "anonymous": false
    },
    {
      "type": "event",
      "name": "TransferOrchestratorToken",
      "inputs": [
        {
          "name": "_to",
          "type": "address",
          "indexed": true,
          "internalType": "address"
        },
        {
          "name": "_amount",
          "type": "uint256",
          "indexed": false,
          "internalType": "uint256"
        }
      ],
      "anonymous": false
    },
    {
      "type": "error",
      "name": "AddressEmptyCode",
      "inputs": [
        {
          "name": "target",
          "type": "address",
          "internalType": "address"
        }
      ]
    },
    {
      "type": "error",
      "name": "AddressInsufficientBalance",
      "inputs": [
        {
          "name": "account",
          "type": "address",
          "internalType": "address"
        }
      ]
    },
    {
      "type": "error",
      "name": "FailedInnerCall",
      "inputs": []
    },
    {
      "type": "error",
      "name": "InvalidInitialization",
      "inputs": []
    },
    {
      "type": "error",
      "name": "Module_OrchestratorCallbackFailed",
      "inputs": [
        {
          "name": "funcSig",
          "type": "string",
          "internalType": "string"
        }
      ]
    },
    {
      "type": "error",
      "name": "Module__BondingCurveBase__BuyingFunctionaltiesClosed",
      "inputs": []
    },
    {
      "type": "error",
      "name": "Module__BondingCurveBase__FeeAmountToHigh",
      "inputs": []
    },
    {
      "type": "error",
      "name": "Module__BondingCurveBase__InsufficientOutputAmount",
      "inputs": []
    },
    {
      "type": "error",
      "name": "Module__BondingCurveBase__InvalidDepositAmount",
      "inputs": []
    },
    {
      "type": "error",
      "name": "Module__BondingCurveBase__InvalidFeePercentage",
      "inputs": []
    },
    {
      "type": "error",
      "name": "Module__BondingCurveBase__InvalidMinAmountOut",
      "inputs": []
    },
    {
      "type": "error",
      "name": "Module__BondingCurveBase__InvalidRecipient",
      "inputs": []
    },
    {
      "type": "error",
      "name": "Module__BondingCurveBase__InvalidWithdrawAmount",
      "inputs": []
    },
    {
      "type": "error",
      "name": "Module__BondingCurveBase__TradeAmountTooLow",
      "inputs": []
    },
    {
      "type": "error",
      "name": "Module__CallerNotAuthorized",
      "inputs": [
        {
          "name": "role",
          "type": "bytes32",
          "internalType": "bytes32"
        },
        {
          "name": "caller",
          "type": "address",
          "internalType": "address"
        }
      ]
    },
    {
      "type": "error",
      "name": "Module__ERC20PaymentClientBase__CallerNotAuthorized",
      "inputs": []
    },
    {
      "type": "error",
      "name": "Module__ERC20PaymentClientBase__InsufficientFunds",
      "inputs": [
        {
          "name": "token",
          "type": "address",
          "internalType": "address"
        }
      ]
    },
    {
      "type": "error",
      "name": "Module__ERC20PaymentClientBase__InvalidAmount",
      "inputs": []
    },
    {
      "type": "error",
      "name": "Module__ERC20PaymentClientBase__InvalidPaymentOrder",
      "inputs": []
    },
    {
      "type": "error",
      "name": "Module__ERC20PaymentClientBase__InvalidRecipient",
      "inputs": []
    },
    {
      "type": "error",
      "name": "Module__ERC20PaymentClientBase__InvalidToken",
      "inputs": []
    },
    {
      "type": "error",
      "name": "Module__ERC20PaymentClientBase__MismatchBetweenFlagCountAndArrayLength",
      "inputs": [
        {
          "name": "flagCount",
          "type": "uint8",
          "internalType": "uint8"
        },
        {
          "name": "arrayLength",
          "type": "uint256",
          "internalType": "uint256"
        }
      ]
    },
    {
      "type": "error",
      "name": "Module__ERC20PaymentClientBase__TokenTransferFailed",
      "inputs": []
    },
    {
      "type": "error",
      "name": "Module__ERC20PaymentClientBase_v1__FlagAmountTooHigh",
      "inputs": []
    },
    {
      "type": "error",
      "name": "Module__FM_PC_ExternalPrice_Redeeming_FeeExceedsMaximum",
      "inputs": [
        {
          "name": "fee_",
          "type": "uint256",
          "internalType": "uint256"
        },
        {
          "name": "maxFee_",
          "type": "uint256",
          "internalType": "uint256"
        }
      ]
    },
    {
      "type": "error",
      "name": "Module__FM_PC_ExternalPrice_Redeeming_InvalidAmount",
      "inputs": []
    },
    {
      "type": "error",
      "name": "Module__FM_PC_ExternalPrice_Redeeming_InvalidMaxFee",
      "inputs": []
    },
    {
      "type": "error",
      "name": "Module__FM_PC_ExternalPrice_Redeeming_InvalidOracleInterface",
      "inputs": []
    },
    {
      "type": "error",
      "name": "Module__FM_PC_ExternalPrice_Redeeming_InvalidProjectTreasury",
      "inputs": []
    },
    {
      "type": "error",
      "name": "Module__FM_PC_ExternalPrice_Redeeming_QueueExecutionFailed",
      "inputs": []
    },
    {
      "type": "error",
      "name": "Module__FM_PC_ExternalPrice_Redeeming_ThirdPartyOperationsDisabled",
      "inputs": []
    },
    {
      "type": "error",
      "name": "Module__InvalidAddress",
      "inputs": []
    },
    {
      "type": "error",
      "name": "Module__InvalidMetadata",
      "inputs": []
    },
    {
      "type": "error",
      "name": "Module__InvalidOrchestratorAddress",
      "inputs": []
    },
    {
      "type": "error",
      "name": "Module__OnlyCallableByOrchestrator",
      "inputs": []
    },
    {
      "type": "error",
      "name": "Module__OnlyCallableByPaymentClient",
      "inputs": []
    },
    {
      "type": "error",
      "name": "Module__RedeemingBondingCurveBase__InsufficientCollateralForProjectFee",
      "inputs": []
    },
    {
      "type": "error",
      "name": "Module__RedeemingBondingCurveBase__SellingFunctionaltiesClosed",
      "inputs": []
    },
    {
      "type": "error",
      "name": "NotInitializing",
      "inputs": []
    },
    {
      "type": "error",
      "name": "SafeERC20FailedOperation",
      "inputs": [
        {
          "name": "token",
          "type": "address",
          "internalType": "address"
        }
      ]
    }
  ],
  "bytecode": {
    "object": "0x60a060405234801562000010575f80fd5b505f6080526200001f62000025565b620000d9565b7ff0c57e16840df040f15088dc2f81fe391c3923bec73e23a9662efc9c229c6a00805468010000000000000000900460ff1615620000765760405163f92ee8a960e01b815260040160405180910390fd5b80546001600160401b0390811614620000d65780546001600160401b0319166001600160401b0390811782556040519081527fc7f505b2f371ae2175ee4913f4499e1f2633a7b5936321eed1cdaeb6115181d29060200160405180910390a15b50565b60805161566c620000ef5f395f505061566c5ff3fe608060405234801561000f575f80fd5b5060043610610393575f3560e01c8063833b1fce116101df578063c35067ed11610109578063d6febde8116100a9578063f42d48a111610079578063f42d48a11461076f578063fa03330c14610782578063fc0c546a1461078a578063fc9d2c9d1461079b575f80fd5b8063d6febde814610739578063d79875eb1461074c578063e91b433d1461075f578063f1eae64a14610767575f80fd5b8063c6ab5cdc116100e4578063c6ab5cdc1461070b578063c9582f2014610713578063cbda8f8214610728578063d4a6793014610731575f80fd5b8063c35067ed146106d9578063c5b27dde146106e4578063c6829ba2146106f7575f80fd5b8063b33ec6181161017f578063bcb619201161014f578063bcb6192014610681578063bd09840414610694578063bf58015c1461069c578063c0231ff6146106c2575f80fd5b8063b33ec61814610643578063b66a870c14610656578063b74795d914610669578063ba83c97014610679575f80fd5b80638f818b90116101ba5780638f818b90146106135780639093b01f1461061b578063935b7dbd14610628578063a84964261461063b575f80fd5b8063833b1fce146105dc578063844b2d43146105ed5780638b4cee0814610600575f80fd5b80634f55f014116102c0578063683c9dad11610260578063759cc4b511610230578063759cc4b5146105a457806375fa0b76146105b75780637998a1c4146105cc5780637da0a877146105d4575f80fd5b8063683c9dad1461056e57806369fcd4ac146105765780636c67e807146105895780636cc7149d1461059c575f80fd5b806352192af61161029b57806352192af61461050957806354fd4d501461052f5780635600f04f14610553578063572b6c051461055b575f80fd5b80634f55f014146104d75780634f893bba146104ee578063519cdc6f14610501575f80fd5b8063289af0d811610336578063322d210011610306578063322d21001461049357806347062402146104a65780634a79d50c146104af5780634c69c00f146104c4575f80fd5b8063289af0d8146104445780632b14ca561461044c5780632c2ee2b5146104555780632e84db5f1461046b575f80fd5b80631ca3bc4f116103715780631ca3bc4f146103e65780631e96bb9e1461040b57806324e302701461041e578063272bbd4414610431575f80fd5b806301ffc9a7146103975780630cc835a3146103bf5780631835f541146103d4575b5f80fd5b6103aa6103a5366004614aca565b6107c1565b60405190151581526020015b60405180910390f35b6103d26103cd366004614af1565b610806565b005b60da545b6040519081526020016103b6565b606c546001600160a01b03165b6040516001600160a01b0390911681526020016103b6565b6103d2610419366004614b1c565b6108ea565b6103d261042c366004614b37565b61093b565b6103d261043f366004614b37565b610baa565b60a2546103d8565b6103d860a25481565b60db5461010090046001600160a01b03166103f3565b6103d8610479366004614b1c565b6001600160a01b03165f9081526039602052604090205490565b6103d86104a1366004614af1565b610d79565b6103d8606d5481565b6104b7610e1c565b6040516103b69190614bfc565b6103d26104d2366004614b1c565b610eaf565b6d57484954454c4953545f524f4c4560901b6103d8565b6103d26104fc366004614c0e565b610f00565b60d7546103d8565b7f51554555455f4558454355544f525f524f4c45000000000000000000000000006103d8565b600154600254600354604080519384526020840192909252908201526060016103b6565b6104b76110ba565b6103aa610569366004614b1c565b6110cc565b6103d2611138565b6103d8610584366004614af1565b611329565b6103d2610597366004614c38565b6113c4565b603b546103d8565b6103d26105b2366004614c0e565b6115ca565b6105bf611630565b6040516103b69190614d5d565b6103d8611723565b6103f361187b565b60d5546001600160a01b03166103f3565b6103d26105fb366004614d7c565b6118ef565b6103d261060e366004614af1565b611940565b606d546103d8565b60a1546103aa9060ff1681565b6103d2610636366004614d97565b611991565b60d9546103d8565b6103d2610651366004614c0e565b611a29565b6103d2610664366004614e8f565b611a3c565b5f546001600160a01b03166103f3565b6103d2611cd9565b6103d261068f366004614c38565b611d55565b6103d8611f2c565b7f51554555455f4558454355544f525f524f4c455f41444d494e000000000000006103d8565b6106ca611f96565b6040516103b693929190614f6d565b60db5460ff166103aa565b6103d26106f2366004614d97565b61248a565b606c546103aa90600160a01b900460ff1681565b6103d261251c565b603a5460405160ff90911681526020016103b6565b6103d8606e5481565b6103d261259b565b6103d2610747366004615002565b612620565b6103d261075a366004615002565b61269a565b60d8546103d8565b6103d261270f565b6103d261077d366004614af1565b61278e565b6103d861282b565b60d6546001600160a01b03166103f3565b7f57484954454c4953545f524f4c455f41444d494e0000000000000000000000006103d8565b5f6001600160e01b03198216636bc4cd8b60e11b14806107f157506001600160e01b0319821663899090df60e01b145b80610800575061080082612872565b92915050565b5f546040805163d09edf3160e01b815290516108de926001600160a01b03169163d09edf319160048083019260209291908290030181865afa15801561084e573d5f803e3d5ffd5b505050506040513d601f19601f820116820180604052508101906108729190615022565b6001600160a01b031663b3ecf2366040518163ffffffff1660e01b8152600401602060405180830381865afa1580156108ad573d5f803e3d5ffd5b505050506040513d601f19601f820116820180604052508101906108d1919061503d565b6108d9612896565b6128e6565b6108e7816129fd565b50565b5f546040805163d09edf3160e01b81529051610932926001600160a01b03169163d09edf319160048083019260209291908290030181865afa15801561084e573d5f803e3d5ffd5b6108e781612a37565b5f80546040805163d09edf3160e01b815290518693926001600160a01b03169163d09edf319160048083019260209291908290030181865afa158015610983573d5f803e3d5ffd5b505050506040513d601f19601f820116820180604052508101906109a79190615022565b60405163fdd5205f60e01b8152306004820152602481018490526001600160a01b03919091169063fdd5205f90604401602060405180830381865afa1580156109f2573d5f803e3d5ffd5b505050506040513d601f19601f82011682018060405250810190610a16919061503d565b9050610ad55f8054906101000a90046001600160a01b03166001600160a01b031663d09edf316040518163ffffffff1660e01b8152600401602060405180830381865afa158015610a69573d5f803e3d5ffd5b505050506040513d601f19601f82011682018060405250810190610a8d9190615022565b6001600160a01b031663248a9ca3836040518263ffffffff1660e01b8152600401610aba91815260200190565b602060405180830381865afa1580156108ad573d5f803e3d5ffd5b5f8054906101000a90046001600160a01b03166001600160a01b031663d09edf316040518163ffffffff1660e01b8152600401602060405180830381865afa158015610b23573d5f803e3d5ffd5b505050506040513d601f19601f82011682018060405250810190610b479190615022565b6001600160a01b0316637d540a648686866040518463ffffffff1660e01b8152600401610b7693929190615054565b5f604051808303815f87803b158015610b8d575f80fd5b505af1158015610b9f573d5f803e3d5ffd5b505050505050505050565b5f80546040805163d09edf3160e01b815290518693926001600160a01b03169163d09edf319160048083019260209291908290030181865afa158015610bf2573d5f803e3d5ffd5b505050506040513d601f19601f82011682018060405250810190610c169190615022565b60405163fdd5205f60e01b8152306004820152602481018490526001600160a01b03919091169063fdd5205f90604401602060405180830381865afa158015610c61573d5f803e3d5ffd5b505050506040513d601f19601f82011682018060405250810190610c85919061503d565b9050610cd85f8054906101000a90046001600160a01b03166001600160a01b031663d09edf316040518163ffffffff1660e01b8152600401602060405180830381865afa158015610a69573d5f803e3d5ffd5b5f8054906101000a90046001600160a01b03166001600160a01b031663d09edf316040518163ffffffff1660e01b8152600401602060405180830381865afa158015610d26573d5f803e3d5ffd5b505050506040513d601f19601f82011682018060405250810190610d4a9190615022565b6001600160a01b031663648154538686866040518463ffffffff1660e01b8152600401610b7693929190615054565b5f610d85826001612adb565b60408051808201909152601c81527f5f6275794f7264657228616464726573732c75696e742c75696e7429000000006020909101525f80610de57fdb2c93faffa8f98d8bcd55cf740e8ead65ac1699aaf6ee8a00820485fc802af6612b1b565b935093505050610df88483606d54612b42565b50909450610e119050610e0a85612c0e565b825f612b42565b509095945050505050565b606060016004018054610e2e906150ab565b80601f0160208091040260200160405190810160405280929190818152602001828054610e5a906150ab565b8015610ea55780601f10610e7c57610100808354040283529160200191610ea5565b820191905f5260205f20905b815481529060010190602001808311610e8857829003601f168201915b5050505050905090565b5f546040805163d09edf3160e01b81529051610ef7926001600160a01b03169163d09edf319160048083019260209291908290030181865afa15801561084e573d5f803e3d5ffd5b6108e781612cca565b81610f0a81612daf565b5f546040805163d09edf3160e01b81529051610f52926001600160a01b03169163d09edf319160048083019260209291908290030181865afa15801561084e573d5f803e3d5ffd5b606e54821115610f75576040516347d1bcf560e01b815260040160405180910390fd5b81606e5f828254610f8691906150f7565b9250508190555061107383835f8054906101000a90046001600160a01b03166001600160a01b03166304baed9e6040518163ffffffff1660e01b8152600401602060405180830381865afa158015610fe0573d5f803e3d5ffd5b505050506040513d601f19601f820116820180604052508101906110049190615022565b6001600160a01b031663fc0c546a6040518163ffffffff1660e01b8152600401602060405180830381865afa15801561103f573d5f803e3d5ffd5b505050506040513d601f19601f820116820180604052508101906110639190615022565b6001600160a01b03169190612deb565b604080516001600160a01b0385168152602081018490527f9e9a785b42ae3ce89ea11b526c656a7cacbd520b83908336dc8c9f4e9be9135f910160405180910390a1505050565b606060016003018054610e2e906150ab565b5f805460405163572b6c0560e01b81526001600160a01b0384811660048301529091169063572b6c0590602401602060405180830381865afa158015611114573d5f803e3d5ffd5b505050506040513d601f19601f82011682018060405250810190610800919061510a565b7f51554555455f4558454355544f525f524f4c45000000000000000000000000006112035f8054906101000a90046001600160a01b03166001600160a01b031663d09edf316040518163ffffffff1660e01b8152600401602060405180830381865afa1580156111aa573d5f803e3d5ffd5b505050506040513d601f19601f820116820180604052508101906111ce9190615022565b60405163fdd5205f60e01b8152306004820152602481018490526001600160a01b03919091169063fdd5205f90604401610aba565b5f805f9054906101000a90046001600160a01b03166001600160a01b031663f1c6bdf86040518163ffffffff1660e01b8152600401602060405180830381865afa158015611253573d5f803e3d5ffd5b505050506040513d601f19601f820116820180604052508101906112779190615022565b6040513060248201526001600160a01b03919091169060440160408051601f198184030181529181526020820180516001600160e01b03166313adbc2d60e31b179052516112c59190615125565b5f604051808303815f865af19150503d805f81146112fe576040519150601f19603f3d011682016040523d82523d5f602084013e611303565b606091505b505090508061132557604051630c18dce960e41b815260040160405180910390fd5b5050565b5f611335826001612adb565b60408051808201909152601d81527f5f73656c6c4f7264657228616464726573732c75696e742c75696e74290000006020909101525f806113957f3299ac1e4997da1dd638584692e27ee6e952ca63f8284764a73c592284e1d9e8612b1b565b9350935050506113a684825f612b42565b509094506113b5905084612e4a565b9250610e11838360a254612b42565b5f80546040805163d09edf3160e01b815290518593926001600160a01b03169163d09edf319160048083019260209291908290030181865afa15801561140c573d5f803e3d5ffd5b505050506040513d601f19601f820116820180604052508101906114309190615022565b60405163fdd5205f60e01b8152306004820152602481018490526001600160a01b03919091169063fdd5205f90604401602060405180830381865afa15801561147b573d5f803e3d5ffd5b505050506040513d601f19601f8201168201806040525081019061149f919061503d565b90506114f25f8054906101000a90046001600160a01b03166001600160a01b031663d09edf316040518163ffffffff1660e01b8152600401602060405180830381865afa158015610a69573d5f803e3d5ffd5b5f8054906101000a90046001600160a01b03166001600160a01b031663d09edf316040518163ffffffff1660e01b8152600401602060405180830381865afa158015611540573d5f803e3d5ffd5b505050506040513d601f19601f820116820180604052508101906115649190615022565b60405163385e205560e21b8152600481018690526001600160a01b038581166024830152919091169063e1788154906044015b5f604051808303815f87803b1580156115ae575f80fd5b505af11580156115c0573d5f803e3d5ffd5b5050505050505050565b6115d2612f10565b6115e9828261106360d6546001600160a01b031690565b816001600160a01b03167fe88292c5f714100904272672c0420345093bd0e3c5555d31f3e4e2cf5f6ca8a18260405161162491815260200190565b60405180910390a25050565b60606038805480602002602001604051908101604052809291908181526020015f905b8282101561171a575f8481526020908190206040805160e0810182526007860290920180546001600160a01b039081168452600182015416838501526002810154838301526003810154606084015260048101546080840152600581015460a08401526006810180548351818702810187019094528084529394919360c08601939283018282801561170257602002820191905f5260205f20905b8154815260200190600101908083116116ee575b50505050508152505081526020019060010190611653565b50505050905090565b5f61187660016040518060a00160405290815f82015481526020016001820154815260200160028201548152602001600382018054611761906150ab565b80601f016020809104026020016040519081016040528092919081815260200182805461178d906150ab565b80156117d85780601f106117af576101008083540402835291602001916117d8565b820191905f5260205f20905b8154815290600101906020018083116117bb57829003601f168201915b505050505081526020016004820180546117f1906150ab565b80601f016020809104026020016040519081016040528092919081815260200182805461181d906150ab565b80156118685780601f1061183f57610100808354040283529160200191611868565b820191905f5260205f20905b81548152906001019060200180831161184b57829003601f168201915b50505050508152505061302e565b905090565b5f805f9054906101000a90046001600160a01b03166001600160a01b0316637da0a8776040518163ffffffff1660e01b8152600401602060405180830381865afa1580156118cb573d5f803e3d5ffd5b505050506040513d601f19601f820116820180604052508101906118769190615022565b5f546040805163d09edf3160e01b81529051611937926001600160a01b03169163d09edf319160048083019260209291908290030181865afa15801561084e573d5f803e3d5ffd5b6108e78161306c565b5f546040805163d09edf3160e01b81529051611988926001600160a01b03169163d09edf319160048083019260209291908290030181865afa15801561084e573d5f803e3d5ffd5b6108e7816130b4565b6d57484954454c4953545f524f4c4560901b6119f45f8054906101000a90046001600160a01b03166001600160a01b031663d09edf316040518163ffffffff1660e01b8152600401602060405180830381865afa1580156111aa573d5f803e3d5ffd5b60db5460ff1615611a1857604051635efada0360e01b815260040160405180910390fd5b611a238484846130ee565b50505050565b611a3281613113565b6113258282613163565b7ff0c57e16840df040f15088dc2f81fe391c3923bec73e23a9662efc9c229c6a00805468010000000000000000810460ff16159067ffffffffffffffff165f81158015611a865750825b90505f8267ffffffffffffffff166001148015611aa25750303b155b905081158015611ab0575080155b15611ace5760405163f92ee8a960e01b815260040160405180910390fd5b845467ffffffffffffffff191660011785558315611b0257845468ff00000000000000001916680100000000000000001785555b611b0c88886131bb565b5f805f805f805f808d806020019051810190611b289190615140565b975097509750975097509750975097508560d65f6101000a8154816001600160a01b0302191690836001600160a01b0316021790555060d65f9054906101000a90046001600160a01b03166001600160a01b031663313ce5676040518163ffffffff1660e01b8152600401602060405180830381865afa158015611bae573d5f803e3d5ffd5b505050506040513d601f19601f82011682018060405250810190611bd291906151c4565b60d660156101000a81548160ff021916908360ff160217905550611bf5876132a8565b611bfe82613379565b611c07836133ae565b611c10856129fd565b611c19846130b4565b611c2288612a37565b611c2b8161306c565b6040805160018082528183019092525f91602080830190803683370190505090505f815f81518110611c5f57611c5f6151e4565b602002602001019060ff16908160ff1681525050611c7c816133e3565b50505050505050505083156115c057845468ff000000000000000019168555604051600181527fc7f505b2f371ae2175ee4913f4499e1f2633a7b5936321eed1cdaeb6115181d29060200160405180910390a15050505050505050565b5f546040805163d09edf3160e01b81529051611d21926001600160a01b03169163d09edf319160048083019260209291908290030181865afa15801561084e573d5f803e3d5ffd5b60a1805460ff191690556040517fc34ae80cb7f967a799992108cfbc90770413d60555d5b0587a4c2c3e69c79ca4905f90a1565b5f80546040805163d09edf3160e01b815290518593926001600160a01b03169163d09edf319160048083019260209291908290030181865afa158015611d9d573d5f803e3d5ffd5b505050506040513d601f19601f82011682018060405250810190611dc19190615022565b60405163fdd5205f60e01b8152306004820152602481018490526001600160a01b03919091169063fdd5205f90604401602060405180830381865afa158015611e0c573d5f803e3d5ffd5b505050506040513d601f19601f82011682018060405250810190611e30919061503d565b9050611e835f8054906101000a90046001600160a01b03166001600160a01b031663d09edf316040518163ffffffff1660e01b8152600401602060405180830381865afa158015610a69573d5f803e3d5ffd5b5f8054906101000a90046001600160a01b03166001600160a01b031663d09edf316040518163ffffffff1660e01b8152600401602060405180830381865afa158015611ed1573d5f803e3d5ffd5b505050506040513d601f19601f82011682018060405250810190611ef59190615022565b604051632e99be7f60e21b8152600481018690526001600160a01b038581166024830152919091169063ba66f9fc90604401611597565b60d55460408051624c7ad160e51b815290515f926001600160a01b03169163098f5a209160048083019260209291908290030181865afa158015611f72573d5f803e3d5ffd5b505050506040513d601f19601f82011682018060405250810190611876919061503d565b6060806060611fab611fa6612896565b6133f4565b611fc85760405163e4597a6b60e01b815260040160405180910390fd5b6038545f808267ffffffffffffffff811115611fe657611fe6614dc9565b60405190808252806020026020018201604052801561200f578160200160208202803683370190505b5090505f8367ffffffffffffffff81111561202c5761202c614dc9565b604051908082528060200260200182016040528015612055578160200160208202803683370190505b5090508367ffffffffffffffff81111561207157612071614dc9565b6040519080825280602002602001820160405280156120f157816020015b6120de6040518060e001604052805f6001600160a01b031681526020015f6001600160a01b031681526020015f81526020015f81526020015f81526020015f8019168152602001606081525090565b81526020019060019003908161208f5790505b5096505f5b848110156123155760388181548110612111576121116151e4565b5f9182526020918290206040805160e081018252600790930290910180546001600160a01b039081168452600182015416838501526002810154838301526003810154606084015260048101546080840152600581015460a08401526006810180548351818702810187019094528084529394919360c0860193928301828280156121b957602002820191905f5260205f20905b8154815260200190600101908083116121a5575b5050505050815250508882815181106121d4576121d46151e4565b60200260200101819052505f805b8581101561224a578983815181106121fc576121fc6151e4565b6020026020010151602001516001600160a01b0316858281518110612223576122236151e4565b60200260200101516001600160a01b031603612242576001915061224a565b6001016121e2565b508061230c57888281518110612262576122626151e4565b602002602001015160200151848681518110612280576122806151e4565b60200260200101906001600160a01b031690816001600160a01b03168152505060395f8a84815181106122b5576122b56151e4565b6020026020010151602001516001600160a01b03166001600160a01b031681526020019081526020015f20548386815181106122f3576122f36151e4565b602090810291909101015284612308816151f8565b9550505b506001016120f6565b5061232160385f6149de565b8267ffffffffffffffff81111561233a5761233a614dc9565b604051908082528060200260200182016040528015612363578160200160208202803683370190505b5095508267ffffffffffffffff81111561237f5761237f614dc9565b6040519080825280602002602001820160405280156123a8578160200160208202803683370190505b5094505f5b83811015612480578281815181106123c7576123c76151e4565b60200260200101518782815181106123e1576123e16151e4565b60200260200101906001600160a01b031690816001600160a01b031681525050818181518110612413576124136151e4565b602002602001015186828151811061242d5761242d6151e4565b602002602001018181525050612463612444612896565b888381518110612456576124566151e4565b6020026020010151613471565b612478878281518110611325576113256151e4565b6001016123ad565b5050505050909192565b6d57484954454c4953545f524f4c4560901b6124ed5f8054906101000a90046001600160a01b03166001600160a01b031663d09edf316040518163ffffffff1660e01b8152600401602060405180830381865afa1580156111aa573d5f803e3d5ffd5b60db5460ff161561251157604051635efada0360e01b815260040160405180910390fd5b611a23848484613495565b5f546040805163d09edf3160e01b81529051612564926001600160a01b03169163d09edf319160048083019260209291908290030181865afa15801561084e573d5f803e3d5ffd5b606c805460ff60a01b191690556040517f44c1679cca34073ce70fed616f995237808d9599a35669fd39f3afd053e2b9b1905f90a1565b5f546040805163d09edf3160e01b815290516125e3926001600160a01b03169163d09edf319160048083019260209291908290030181865afa15801561084e573d5f803e3d5ffd5b606c805460ff60a01b1916600160a01b1790556040517fe404df37e2f7360b624914a082278de0f9e7da04a61eaab0a8d3d26b52bc0b19905f90a1565b6d57484954454c4953545f524f4c4560901b6126835f8054906101000a90046001600160a01b03166001600160a01b031663d09edf316040518163ffffffff1660e01b8152600401602060405180830381865afa1580156111aa573d5f803e3d5ffd5b61269561268e612896565b84846130ee565b505050565b6d57484954454c4953545f524f4c4560901b6126fd5f8054906101000a90046001600160a01b03166001600160a01b031663d09edf316040518163ffffffff1660e01b8152600401602060405180830381865afa1580156111aa573d5f803e3d5ffd5b612695612708612896565b8484613495565b5f546040805163d09edf3160e01b81529051612757926001600160a01b03169163d09edf319160048083019260209291908290030181865afa15801561084e573d5f803e3d5ffd5b60a1805460ff191660011790556040517f9d47627df4f01d3bff516199297ca647fe2ea0448c4f2925ef8c16d614a51a7c905f90a1565b805f036127ae57604051638bc7e94360e01b815260040160405180910390fd5b6127de6127b9612896565b30836127cd60d6546001600160a01b031690565b6001600160a01b03169291906134b2565b6127e6612896565b6001600160a01b03167fcea2aa568570e239e616fd2e9bcf2301307aa1c1c1f355305a87e5cdd46bbc798260405161282091815260200190565b60405180910390a250565b60d55460408051636650c9c560e01b815290515f926001600160a01b031691636650c9c59160048083019260209291908290030181865afa158015611f72573d5f803e3d5ffd5b5f6001600160e01b031982166306fa99af60e01b14806108005750610800826134eb565b5f3660146128a3336110cc565b80156128af5750808210155b156128de575f366128c083856150f7565b6128cb928290615210565b6128d491615237565b60601c9250505090565b339250505090565b5f8054906101000a90046001600160a01b03166001600160a01b031663d09edf316040518163ffffffff1660e01b8152600401602060405180830381865afa158015612934573d5f803e3d5ffd5b505050506040513d601f19601f820116820180604052508101906129589190615022565b60405163a883867d60e01b8152600481018490526001600160a01b038381166024830152919091169063a883867d90604401602060405180830381865afa1580156129a5573d5f803e3d5ffd5b505050506040513d601f19601f820116820180604052508101906129c9919061510a565b611325576040516342abbb7760e01b8152600481018390526001600160a01b03821660248201526044015b60405180910390fd5b60d854811115612a2e5760d85460405163960983cd60e01b81526129f4918391600401918252602082015260400190565b6108e78161350f565b6001600160a01b038116612a5e57604051638b7abe6160e01b815260040160405180910390fd5b60db546040516001600160a01b0380841692610100900416907fade4ce28bbd5bf468b289f1f7b20eeea5d4caba5abd98d12e3d3ce31c7b3aca7905f90a360db80546001600160a01b03909216610100027fffffffffffffffffffffff0000000000000000000000000000000000000000ff909216919091179055565b815f03612afb57604051631d67ff5760e11b815260040160405180910390fd5b805f036113255760405163d8674d0d60e01b815260040160405180910390fd5b5f805f80612b288561355a565b94509150612b35856136ad565b9496949550919391925050565b5f8080612710612b52858761526c565b10612b70576040516304e0874960e11b815260040160405180910390fd5b8415612baf57612710612b83868861527f565b612b8d9190615296565b9150815f03612baf57604051639c43a82560e01b815260040160405180910390fd5b8315612bee57612710612bc2858861527f565b612bcc9190615296565b9050805f03612bee57604051639c43a82560e01b815260040160405180910390fd5b80612bf983886150f7565b612c0391906150f7565b925093509350939050565b60d55460408051636650c9c560e01b815290515f926001600160a01b031691636650c9c59160048083019260209291908290030181865afa158015612c55573d5f803e3d5ffd5b505050506040513d601f19601f82011682018060405250810190612c79919061503d565b60d654612c9190600160a81b900460ff16600a615395565b612c9b908461527f565b612ca59190615296565b60d65490915061080090829060ff600160a81b8204811691600160a01b9004166137bd565b6040516301ffc9a760e01b8152636fdf93e560e01b60048201526001600160a01b038216906301ffc9a790602401602060405180830381865afa158015612d13573d5f803e3d5ffd5b505050506040513d601f19601f82011682018060405250810190612d37919061510a565b612d545760405163770e43d760e11b815260040160405180910390fd5b60d5546040516001600160a01b038084169216907f078c3b417dadf69374a59793b829c52001247130433427049317bde56607b1b7905f90a360d580546001600160a01b0319166001600160a01b0392909216919091179055565b6001600160a01b0381161580612dcd57506001600160a01b03811630145b156108e75760405163364f556160e11b815260040160405180910390fd5b6040516001600160a01b0383811660248301526044820183905261269591859182169063a9059cbb906064015b604051602081830303815290604052915060e01b6020820180516001600160e01b03838183161783525050505061382c565b60d6545f908190612e7090849060ff600160a01b8204811691600160a81b9004166137bd565b60d654909150612e8b90600160a81b900460ff16600a615395565b60d55460408051624c7ad160e51b8152905184926001600160a01b03169163098f5a209160048083019260209291908290030181865afa158015612ed1573d5f803e3d5ffd5b505050506040513d601f19601f82011682018060405250810190612ef5919061503d565b612eff919061527f565b612f099190615296565b9392505050565b5f546001600160a01b03166342f6e389612f28612896565b6040516001600160e01b031960e084901b1681526001600160a01b039091166004820152602401602060405180830381865afa158015612f6a573d5f803e3d5ffd5b505050506040513d601f19601f82011682018060405250810190612f8e919061510a565b158061300e5750612f9d612896565b6040516301ffc9a760e01b81526346fe193d60e11b60048201526001600160a01b0391909116906301ffc9a790602401602060405180830381865afa158015612fe8573d5f803e3d5ffd5b505050506040513d601f19601f8201168201806040525081019061300c919061510a565b155b1561302c57604051631b793e7f60e21b815260040160405180910390fd5b565b5f815f01518260600151836080015160405160200161304f939291906153a3565b604051602081830303815290604052805190602001209050919050565b60db546040518215159160ff161515907ffecf51548a8b3e1aca619a99787d167e48e2280e5cd437004492f00926db9d68905f90a360db805460ff1916911515919091179055565b60d7548111156130e55760d75460405163960983cd60e01b81526129f4918391600401918252602082015260400190565b6108e78161388d565b6130f66138d8565b8261310081612daf565b61310b848484613902565b505050505050565b8060da5f82825461312491906150f7565b909155505060da546040519081527ff49b79b8ace598121d8b2d2e2e89f08850497975163267ca862cf794b6451052906020015b60405180910390a150565b61316e611fa6612896565b61318b5760405163e4597a6b60e01b815260040160405180910390fd5b6001600160a01b0382165f90815260396020526040812080548392906131b29084906150f7565b90915550505050565b6131c3613b5f565b6001600160a01b0382166131ea57604051637280679360e01b815260040160405180910390fd5b5f80546001600160a01b0319166001600160a01b03841617905561320d81613bad565b61322a57604051637511254160e01b815260040160405180910390fd5b805160019081556020820151600255604082015160035560608201518291906004906132569082615418565b506080820151600482019061326b9082615418565b50905050816001600160a01b03167fd5f3f84c2e1816ce290af84d002663800b02f2985d770cdd335de76fd723b7308260405161162491906154d4565b5f816001600160a01b031663313ce5676040518163ffffffff1660e01b8152600401602060405180830381865afa1580156132e5573d5f803e3d5ffd5b505050506040513d601f19601f8201168201806040525081019061330991906151c4565b606c80546001600160a01b0319166001600160a01b03851690811790915560d6805460ff60a01b1916600160a01b60ff851690810291909117909155604051908152919250907f4e547b7c6b59d324fecdb926aa12300420faf3a7e12a412eb7e0da193bb0d93e90602001611624565b60d88190556040518181527f96d32832cc9a0c51b7c7cabcf6df92fc1f0e40af825e3b629e49645b5312218790602001613158565b60d78190556040518181527f0a475180b9321ef162bb9fc074f309c431fc4673820042b8a6af53b999b6f28790602001613158565b6133eb613b5f565b6108e781613c07565b5f805460408051631e38d7bf60e31b815290516001600160a01b0380861693169163f1c6bdf89160048083019260209291908290030181865afa15801561343d573d5f803e3d5ffd5b505050506040513d601f19601f820116820180604052508101906134619190615022565b6001600160a01b03161492915050565b6001600160a01b0381165f8181526039602052604090205461132591908490613cdc565b61349d613d6b565b826134a781612daf565b61310b848484613d8e565b6040516001600160a01b038481166024830152838116604483015260648201839052611a239186918216906323b872dd90608401612e18565b5f6001600160e01b03198216630bbeca6160e01b1480610800575061080082613fe1565b61351881614005565b606d546040805183815260208101929092527f28e297c7c282931a994191b735b01eaf17558295f761512a7047f4e1b8dc3b0b910160405180910390a1606d55565b5f80546040805163030d028960e21b8152905183926001600160a01b031691630c340a249160048083019260209291908290030181865afa1580156135a1573d5f803e3d5ffd5b505050506040513d601f19601f820116820180604052508101906135c59190615022565b6001600160a01b031663f2d638266040518163ffffffff1660e01b8152600401602060405180830381865afa158015613600573d5f803e3d5ffd5b505050506040513d601f19601f820116820180604052508101906136249190615022565b5f54604051634d970f5560e11b81526001600160a01b0391821660048201523060248201526001600160e01b031986166044820152911690639b2e1eaa906064015b6040805180830381865afa158015613680573d5f803e3d5ffd5b505050506040513d601f19601f820116820180604052508101906136a4919061552a565b91509150915091565b5f80546040805163030d028960e21b8152905183926001600160a01b031691630c340a249160048083019260209291908290030181865afa1580156136f4573d5f803e3d5ffd5b505050506040513d601f19601f820116820180604052508101906137189190615022565b6001600160a01b031663f2d638266040518163ffffffff1660e01b8152600401602060405180830381865afa158015613753573d5f803e3d5ffd5b505050506040513d601f19601f820116820180604052508101906137779190615022565b5f546040516304e53bb360e01b81526001600160a01b0391821660048201523060248201526001600160e01b0319861660448201529116906304e53bb390606401613666565b5f8160ff168360ff16036137d2575082612f09565b8160ff168360ff16111561380a575f6137eb838561554d565b6137f690600a615395565b90506138028186615296565b915050612f09565b5f613815848461554d565b61382090600a615395565b9050613802818661527f565b5f6138406001600160a01b03841683614028565b905080515f14158015613864575080806020019051810190613862919061510a565b155b1561269557604051635274afe760e01b81526001600160a01b03841660048201526024016129f4565b61389681614005565b60a2546040805183815260208101929092527f5bafec153d96f8ef37761b64348732b41a6b477401d244a5070f9f82d689adce910160405180910390a160a255565b606c54600160a01b900460ff1661302c57604051630afe354360e11b815260040160405180910390fd5b5f8061390e8484612adb565b5f805f9054906101000a90046001600160a01b03166001600160a01b03166304baed9e6040518163ffffffff1660e01b8152600401602060405180830381865afa15801561395e573d5f803e3d5ffd5b505050506040513d601f19601f820116820180604052508101906139829190615022565b6001600160a01b031663fc0c546a6040518163ffffffff1660e01b8152600401602060405180830381865afa1580156139bd573d5f803e3d5ffd5b505050506040513d601f19601f820116820180604052508101906139e19190615022565b60408051808201909152601c81527f5f6275794f7264657228616464726573732c75696e742c75696e74290000000060209091015290505f808080613a457fdb2c93faffa8f98d8bcd55cf740e8ead65ac1699aaf6ee8a00820485fc802af6612b1b565b93509350935093505f805f613a5d8c86606d54612b42565b91945092509050613a6e818361526c565b98505f613a7a84612c0e565b9050809a505f613a8b82875f612b42565b5090925090508c821015613ab257604051637ac6ada560e01b815260040160405180910390fd5b613ac3613abd612896565b8f614035565b613ace898b86614060565b8215613add57613add836140d5565b613ae78882614105565b613af18f83614167565b8e6001600160a01b03167fd150a324c4fc8346977d1499aa36cac8c85e6af24bf1486022fad77d05f8b19f8f84613b26612896565b6040805193845260208401929092526001600160a01b03169082015260600160405180910390a250505050505050505050935093915050565b7ff0c57e16840df040f15088dc2f81fe391c3923bec73e23a9662efc9c229c6a005468010000000000000000900460ff1661302c57604051631afcd79f60e31b815260040160405180910390fd5b5f8160600151515f03613bc157505f919050565b8160800151515f03613bd457505f919050565b8151158015613be557506020820151155b8015613bf357506040820151155b15613bff57505f919050565b506001919050565b805160ff811115613c2b57604051632a5c5cfb60e11b815260040160405180910390fd5b603a805460ff191660ff83161790555f603b8190555b818160ff161015613c9357828160ff1681518110613c6157613c616151e4565b602002602001015160ff166001901b5f1b603b5f82825417925050819055508080613c8b90615566565b915050613c41565b50603a54603b546040805160ff909316835260208301919091527f7b463eebcf86a9ecb1c64d88acc3609fe74aaccb569d01b4bb01875b737eda18910160405180910390a15050565b604080516001600160a01b038416602482015260448082018490528251808303909101815260649091019091526020810180516001600160e01b031663095ea7b360e01b179052613d2d84826141c5565b611a23576040516001600160a01b0384811660248301525f6044830152613d6191869182169063095ea7b390606401612e18565b611a23848261382c565b60a15460ff1661302c576040516374d0357560e11b815260040160405180910390fd5b5f80613d9a8484612adb565b60408051808201909152601d81527f5f73656c6c4f7264657228616464726573732c75696e742c75696e74290000006020909101525f808080613dfc7f3299ac1e4997da1dd638584692e27ee6e952ca63f8284764a73c592284e1d9e8612b1b565b93509350935093505f805f613e128b855f612b42565b50985088935090505f613e2482612e4a565b9050809950613e3a613e34612896565b8d614266565b613e448785614105565b5f805f9054906101000a90046001600160a01b03166001600160a01b03166304baed9e6040518163ffffffff1660e01b8152600401602060405180830381865afa158015613e94573d5f803e3d5ffd5b505050506040513d601f19601f82011682018060405250810190613eb89190615022565b6001600160a01b031663fc0c546a6040518163ffffffff1660e01b8152600401602060405180830381865afa158015613ef3573d5f803e3d5ffd5b505050506040513d601f19601f82011682018060405250810190613f179190615022565b9050613f26828860a254612b42565b90965094509150613f38898287614060565b8315613f4757613f47846140d5565b8b821015613f6857604051637ac6ada560e01b815260040160405180910390fd5b613f748e8e848761429f565b8d6001600160a01b03167f7debc712939ce2028bbca7ca90cc85e8fb59a7772e041423d3ec1588af4730ed8e84613fa9612896565b6040805193845260208401929092526001600160a01b03169082015260600160405180910390a2505050505050505050935093915050565b5f6001600160e01b031982166346fe193d60e11b148061080057506108008261452b565b6127108111156108e757604051633ef38b5b60e11b815260040160405180910390fd5b6060612f0983835f61455f565b60db546113259083906001600160a01b0361010090910416836127cd60d6546001600160a01b031690565b80156126955761406f83612daf565b6140836001600160a01b0383168483612deb565b826001600160a01b0316826001600160a01b03167f81535d361819544361f80ddbe5071aef378a8ecba1c52f2c45fe3335234c4331836040516140c891815260200190565b60405180910390a3505050565b6040518181527fe80fee25b848daa361e28d2bb55a5631cb9e084202ab3d22e444ceac1c8b320a90602001613158565b80156113255761411482612daf565b61411e8282614167565b606c546040518281526001600160a01b038481169216907f11a26a26a718a46d85815d79165470744429ab0f3093113929c59c097bbebb9a906020015b60405180910390a35050565b606c546040516340c10f1960e01b81526001600160a01b03848116600483015260248201849052909116906340c10f19906044015b5f604051808303815f87803b1580156141b3575f80fd5b505af115801561310b573d5f803e3d5ffd5b5f805f846001600160a01b0316846040516141e09190615125565b5f604051808303815f865af19150503d805f8114614219576040519150601f19603f3d011682016040523d82523d5f602084013e61421e565b606091505b5091509150818015614248575080511580614248575080806020019051810190614248919061510a565b801561425d57505f856001600160a01b03163b115b95945050505050565b606c54604051632770a7eb60e21b81526001600160a01b0384811660048301526024820184905290911690639dc29fac9060440161419c565b60d95f81546142ad906151f8565b918290555060d9556142be826145f8565b6040805160018082528183019092525f9160609183916020808301908036833701905050905060d9545f1b815f815181106142fb576142fb6151e4565b60200260200101818152505061431081614609565b8093508194505050505f6040518060e00160405280886001600160a01b0316815260200161434660d6546001600160a01b031690565b6001600160a01b0316815260200186815260200146815260200146815260200184815260200183815250905061437b8161464c565b5f8054906101000a90046001600160a01b03166001600160a01b031663f1c6bdf86040518163ffffffff1660e01b8152600401602060405180830381865afa1580156143c9573d5f803e3d5ffd5b505050506040513d601f19601f820116820180604052508101906143ed9190615022565b60405163e151fc6160e01b81523060048201526001600160a01b03919091169063e151fc61906024015f604051808303815f87803b15801561442d575f80fd5b505af115801561443f573d5f803e3d5ffd5b50505050866001600160a01b031660d954306001600160a01b03167f7c362cfa30757c373749942e54334c60f074f97d6f1bf572f25a4e306536282a614483612896565b60d55460408051624c7ad160e51b815290518d926001600160a01b03169163098f5a209160048083019260209291908290030181865afa1580156144c9573d5f803e3d5ffd5b505050506040513d601f19601f820116820180604052508101906144ed919061503d565b60a2548b8d61450460d6546001600160a01b031690565b600260405161451a989796959493929190615584565b60405180910390a450505050505050565b5f6001600160e01b0319821663e328951160e01b148061080057506301ffc9a760e01b6001600160e01b0319831614610800565b6060814710156145845760405163cd78605960e01b81523060048201526024016129f4565b5f80856001600160a01b0316848660405161459f9190615125565b5f6040518083038185875af1925050503d805f81146145d9576040519150601f19603f3d011682016040523d82523d5f602084013e6145de565b606091505b50915091506145ee868383614867565b9695505050505050565b8060da5f828254613124919061526c565b8051603a545f9160609160ff161461464457603a548351604051630bf3089f60e11b815260ff909216600483015260248201526044016129f4565b5050603b5491565b80614656816148c3565b816040015160395f84602001516001600160a01b03166001600160a01b031681526020019081526020015f205f828254614690919061526c565b9091555050603880546001810182555f9190915282517f38395c5dceade9603479b177b68959049485df8aa97b39f3533039af5f456199600790920291820180546001600160a01b03199081166001600160a01b039384161782556020808701517f38395c5dceade9603479b177b68959049485df8aa97b39f3533039af5f45619a86018054909316941693909317905560408501517f38395c5dceade9603479b177b68959049485df8aa97b39f3533039af5f45619b84015560608501517f38395c5dceade9603479b177b68959049485df8aa97b39f3533039af5f45619c84015560808501517f38395c5dceade9603479b177b68959049485df8aa97b39f3533039af5f45619d84015560a08501517f38395c5dceade9603479b177b68959049485df8aa97b39f3533039af5f45619e84015560c08501518051869492936147fe937f38395c5dceade9603479b177b68959049485df8aa97b39f3533039af5f45619f019201906149fc565b50505081602001516001600160a01b0316825f01516001600160a01b03167ff7c0c50e520bf64576a9482cc54780006390b90cee6a1c0bde1adaeb9c0f02f68460400151856060015186608001518760a001518860c0015160405161415b9594939291906155ef565b60608261487c57614877826149b5565b612f09565b815115801561489357506001600160a01b0384163b155b156148bc57604051639996b31560e01b81526001600160a01b03851660048201526024016129f4565b5080612f09565b5f546001600160a01b03166001600160a01b031663f1c6bdf86040518163ffffffff1660e01b8152600401602060405180830381865afa158015614909573d5f803e3d5ffd5b505050506040513d601f19601f8201168201806040525081019061492d9190615022565b6001600160a01b031663f7698285826040518263ffffffff1660e01b81526004016149589190615624565b6020604051808303815f875af1158015614974573d5f803e3d5ffd5b505050506040513d601f19601f82011682018060405250810190614998919061510a565b6108e75760405163349a262760e01b815260040160405180910390fd5b8051156149c55780518082602001fd5b604051630a12f52160e11b815260040160405180910390fd5b5080545f8255600702905f5260205f20908101906108e79190614a45565b828054828255905f5260205f20908101928215614a35579160200282015b82811115614a35578251825591602001919060010190614a1a565b50614a41929150614a9b565b5090565b80821115614a415780546001600160a01b0319908116825560018201805490911690555f60028201819055600382018190556004820181905560058201819055614a926006830182614aaf565b50600701614a45565b5b80821115614a41575f8155600101614a9c565b5080545f8255905f5260205f20908101906108e79190614a9b565b5f60208284031215614ada575f80fd5b81356001600160e01b031981168114612f09575f80fd5b5f60208284031215614b01575f80fd5b5035919050565b6001600160a01b03811681146108e7575f80fd5b5f60208284031215614b2c575f80fd5b8135612f0981614b08565b5f805f60408486031215614b49575f80fd5b83359250602084013567ffffffffffffffff80821115614b67575f80fd5b818601915086601f830112614b7a575f80fd5b813581811115614b88575f80fd5b8760208260051b8501011115614b9c575f80fd5b6020830194508093505050509250925092565b5f5b83811015614bc9578181015183820152602001614bb1565b50505f910152565b5f8151808452614be8816020860160208601614baf565b601f01601f19169290920160200192915050565b602081525f612f096020830184614bd1565b5f8060408385031215614c1f575f80fd5b8235614c2a81614b08565b946020939093013593505050565b5f8060408385031215614c49575f80fd5b823591506020830135614c5b81614b08565b809150509250929050565b5f815180845260208085019450602084015f5b83811015614c9557815187529582019590820190600101614c79565b509495945050505050565b5f6001600160a01b038083511684528060208401511660208501525060408201516040840152606082015160608401526080820151608084015260a082015160a084015260c082015160e060c0850152614cfd60e0850182614c66565b949350505050565b5f8282518085526020808601955060208260051b840101602086015f5b84811015614d5057601f19868403018952614d3e838351614ca0565b98840198925090830190600101614d22565b5090979650505050505050565b602081525f612f096020830184614d05565b80151581146108e7575f80fd5b5f60208284031215614d8c575f80fd5b8135612f0981614d6f565b5f805f60608486031215614da9575f80fd5b8335614db481614b08565b95602085013595506040909401359392505050565b634e487b7160e01b5f52604160045260245ffd5b60405160a0810167ffffffffffffffff81118282101715614e0057614e00614dc9565b60405290565b5f82601f830112614e15575f80fd5b813567ffffffffffffffff80821115614e3057614e30614dc9565b604051601f8301601f19908116603f01168101908282118183101715614e5857614e58614dc9565b81604052838152866020858801011115614e70575f80fd5b836020870160208301375f602085830101528094505050505092915050565b5f805f60608486031215614ea1575f80fd5b8335614eac81614b08565b9250602084013567ffffffffffffffff80821115614ec8575f80fd5b9085019060a08288031215614edb575f80fd5b614ee3614ddd565b823581526020830135602082015260408301356040820152606083013582811115614f0c575f80fd5b614f1889828601614e06565b606083015250608083013582811115614f2f575f80fd5b614f3b89828601614e06565b60808301525093506040860135915080821115614f56575f80fd5b50614f6386828701614e06565b9150509250925092565b606081525f614f7f6060830186614d05565b8281036020848101919091528551808352868201928201905f5b81811015614fbe5784516001600160a01b031683529383019391830191600101614f99565b5050848103604086015285518082529082019250818601905f5b81811015614ff457825185529383019391830191600101614fd8565b509298975050505050505050565b5f8060408385031215615013575f80fd5b50508035926020909101359150565b5f60208284031215615032575f80fd5b8151612f0981614b08565b5f6020828403121561504d575f80fd5b5051919050565b838152604060208083018290529082018390525f90849060608401835b8681101561509f57833561508481614b08565b6001600160a01b031682529282019290820190600101615071565b50979650505050505050565b600181811c908216806150bf57607f821691505b6020821081036150dd57634e487b7160e01b5f52602260045260245ffd5b50919050565b634e487b7160e01b5f52601160045260245ffd5b81810381811115610800576108006150e3565b5f6020828403121561511a575f80fd5b8151612f0981614d6f565b5f8251615136818460208701614baf565b9190910192915050565b5f805f805f805f80610100898b031215615158575f80fd5b885161516381614b08565b60208a015190985061517481614b08565b60408a015190975061518581614b08565b80965050606089015194506080890151935060a0890151925060c0890151915060e08901516151b381614d6f565b809150509295985092959890939650565b5f602082840312156151d4575f80fd5b815160ff81168114612f09575f80fd5b634e487b7160e01b5f52603260045260245ffd5b5f60018201615209576152096150e3565b5060010190565b5f808585111561521e575f80fd5b8386111561522a575f80fd5b5050820193919092039150565b6bffffffffffffffffffffffff1981358181169160148510156152645780818660140360031b1b83161692505b505092915050565b80820180821115610800576108006150e3565b8082028115828204841417610800576108006150e3565b5f826152b057634e487b7160e01b5f52601260045260245ffd5b500490565b600181815b808511156152ef57815f19048211156152d5576152d56150e3565b808516156152e257918102915b93841c93908002906152ba565b509250929050565b5f8261530557506001610800565b8161531157505f610800565b816001811461532757600281146153315761534d565b6001915050610800565b60ff841115615342576153426150e3565b50506001821b610800565b5060208310610133831016604e8410600b8410161715615370575081810a610800565b61537a83836152b5565b805f190482111561538d5761538d6150e3565b029392505050565b5f612f0960ff8416836152f7565b838152606060208201525f6153bb6060830185614bd1565b82810360408401526145ee8185614bd1565b601f82111561269557805f5260205f20601f840160051c810160208510156153f25750805b601f840160051c820191505b81811015615411575f81556001016153fe565b5050505050565b815167ffffffffffffffff81111561543257615432614dc9565b6154468161544084546150ab565b846153cd565b602080601f831160018114615479575f84156154625750858301515b5f19600386901b1c1916600185901b17855561310b565b5f85815260208120601f198616915b828110156154a757888601518255948401946001909101908401615488565b50858210156154c457878501515f19600388901b60f8161c191681555b5050505050600190811b01905550565b602081528151602082015260208201516040820152604082015160608201525f606083015160a0608084015261550d60c0840182614bd1565b90506080840151601f198483030160a085015261425d8282614bd1565b5f806040838503121561553b575f80fd5b825191506020830151614c5b81614b08565b60ff8281168282160390811115610800576108006150e3565b5f60ff821660ff810361557b5761557b6150e3565b60010192915050565b5f610100820190506001600160a01b03808b1683528960208401528860408401528760608401528660808401528560a084015280851660c084015250600483106155dc57634e487b7160e01b5f52602160045260245ffd5b8260e08301529998505050505050505050565b85815284602082015283604082015282606082015260a060808201525f61561960a0830184614c66565b979650505050505050565b602081525f612f096020830184614ca056fea2646970667358221220dfa694280e8a1af02284d2580bf96cac7970993d3af0d600dd9f9f3bc360781e64736f6c63430008170033",
    "linkReferences": {}
  },
  "methodIdentifiers": {
    "amountPaid(address,uint256)": "b33ec618",
    "buy(uint256,uint256)": "d6febde8",
    "buyFee()": "47062402",
    "buyFor(address,uint256,uint256)": "935b7dbd",
    "buyIsOpen()": "c6829ba2",
    "calculatePurchaseReturn(uint256)": "322d2100",
    "calculateSaleReturn(uint256)": "69fcd4ac",
    "closeBuy()": "c6ab5cdc",
    "closeSell()": "ba83c970",
    "collectPaymentOrders()": "c0231ff6",
    "depositReserve(uint256)": "f42d48a1",
    "executeRedemptionQueue()": "683c9dad",
    "getBuyFee()": "8f818b90",
    "getFlagCount()": "c9582f20",
    "getFlags()": "6cc7149d",
    "getIsDirectOperationsOnly()": "c35067ed",
    "getIssuanceToken()": "1ca3bc4f",
    "getMaxProjectBuyFee()": "e91b433d",
    "getMaxProjectSellFee()": "519cdc6f",
    "getOpenRedemptionAmount()": "1835f541",
    "getOracle()": "833b1fce",
    "getOrderId()": "a8496426",
    "getProjectTreasury()": "2c2ee2b5",
    "getQueueExecutorRole()": "52192af6",
    "getQueueExecutorRoleAdmin()": "bf58015c",
    "getSellFee()": "289af0d8",
    "getStaticPriceForBuying()": "fa03330c",
    "getStaticPriceForSelling()": "bd098404",
    "getWhitelistRole()": "4f55f014",
    "getWhitelistRoleAdmin()": "fc9d2c9d",
    "grantModuleRole(bytes32,address)": "6c67e807",
    "grantModuleRoleBatched(bytes32,address[])": "272bbd44",
    "identifier()": "7998a1c4",
    "init(address,(uint256,uint256,uint256,string,string),bytes)": "b66a870c",
    "isTrustedForwarder(address)": "572b6c05",
    "openBuy()": "d4a67930",
    "openSell()": "f1eae64a",
    "orchestrator()": "b74795d9",
    "outstandingTokenAmount(address)": "2e84db5f",
    "paymentOrders()": "75fa0b76",
    "projectCollateralFeeCollected()": "cbda8f82",
    "revokeModuleRole(bytes32,address)": "bcb61920",
    "revokeModuleRoleBatched(bytes32,address[])": "24e30270",
    "sell(uint256,uint256)": "d79875eb",
    "sellFee()": "2b14ca56",
    "sellIsOpen()": "9093b01f",
    "sellTo(address,uint256,uint256)": "c5b27dde",
    "setBuyFee(uint256)": "0cc835a3",
    "setIsDirectOperationsOnly(bool)": "844b2d43",
    "setOracleAddress(address)": "4c69c00f",
    "setProjectTreasury(address)": "1e96bb9e",
    "setSellFee(uint256)": "8b4cee08",
    "supportsInterface(bytes4)": "01ffc9a7",
    "title()": "4a79d50c",
    "token()": "fc0c546a",
    "transferOrchestratorToken(address,uint256)": "759cc4b5",
    "trustedForwarder()": "7da0a877",
    "url()": "5600f04f",
    "version()": "54fd4d50",
    "withdrawProjectCollateralFee(address,uint256)": "4f893bba"
  },
  "id": 106
}