{
  "abi": [
    {
      "type": "function",
      "name": "QUEUE_MANAGER_ROLE",
      "inputs": [],
      "outputs": [
        {
          "name": "",
          "type": "bytes32",
          "internalType": "bytes32"
        }
      ],
      "stateMutability": "view"
    },
    {
      "type": "function",
      "name": "WHITELIST_ROLE",
      "inputs": [],
      "outputs": [
        {
          "name": "",
          "type": "bytes32",
          "internalType": "bytes32"
        }
      ],
      "stateMutability": "view"
    },
    {
      "type": "function",
      "name": "amountPaid",
      "inputs": [
        {
          "name": "token",
          "type": "address",
          "internalType": "address"
        },
        {
          "name": "amount",
          "type": "uint256",
          "internalType": "uint256"
        }
      ],
      "outputs": [],
      "stateMutability": "nonpayable"
    },
    {
      "type": "function",
      "name": "buy",
      "inputs": [
        {
          "name": "collateralAmount_",
          "type": "uint256",
          "internalType": "uint256"
        },
        {
          "name": "minAmountOut_",
          "type": "uint256",
          "internalType": "uint256"
        }
      ],
      "outputs": [],
      "stateMutability": "nonpayable"
    },
    {
      "type": "function",
      "name": "buyFee",
      "inputs": [],
      "outputs": [
        {
          "name": "",
          "type": "uint256",
          "internalType": "uint256"
        }
      ],
      "stateMutability": "view"
    },
    {
      "type": "function",
      "name": "buyFor",
      "inputs": [
        {
          "name": "receiver_",
          "type": "address",
          "internalType": "address"
        },
        {
          "name": "depositAmount_",
          "type": "uint256",
          "internalType": "uint256"
        },
        {
          "name": "minAmountOut_",
          "type": "uint256",
          "internalType": "uint256"
        }
      ],
      "outputs": [],
      "stateMutability": "nonpayable"
    },
    {
      "type": "function",
      "name": "buyIsOpen",
      "inputs": [],
      "outputs": [
        {
          "name": "",
          "type": "bool",
          "internalType": "bool"
        }
      ],
      "stateMutability": "view"
    },
    {
      "type": "function",
      "name": "calculatePurchaseReturn",
      "inputs": [
        {
          "name": "_depositAmount",
          "type": "uint256",
          "internalType": "uint256"
        }
      ],
      "outputs": [
        {
          "name": "mintAmount",
          "type": "uint256",
          "internalType": "uint256"
        }
      ],
      "stateMutability": "view"
    },
    {
      "type": "function",
      "name": "calculateSaleReturn",
      "inputs": [
        {
          "name": "_depositAmount",
          "type": "uint256",
          "internalType": "uint256"
        }
      ],
      "outputs": [
        {
          "name": "redeemAmount",
          "type": "uint256",
          "internalType": "uint256"
        }
      ],
      "stateMutability": "view"
    },
    {
      "type": "function",
      "name": "closeBuy",
      "inputs": [],
      "outputs": [],
      "stateMutability": "nonpayable"
    },
    {
      "type": "function",
      "name": "closeSell",
      "inputs": [],
      "outputs": [],
      "stateMutability": "nonpayable"
    },
    {
      "type": "function",
      "name": "collectPaymentOrders",
      "inputs": [],
      "outputs": [
        {
          "name": "",
          "type": "tuple[]",
          "internalType": "struct IERC20PaymentClientBase_v1.PaymentOrder[]",
          "components": [
            {
              "name": "recipient",
              "type": "address",
              "internalType": "address"
            },
            {
              "name": "paymentToken",
              "type": "address",
              "internalType": "address"
            },
            {
              "name": "amount",
              "type": "uint256",
              "internalType": "uint256"
            },
            {
              "name": "start",
              "type": "uint256",
              "internalType": "uint256"
            },
            {
              "name": "cliff",
              "type": "uint256",
              "internalType": "uint256"
            },
            {
              "name": "end",
              "type": "uint256",
              "internalType": "uint256"
            }
          ]
        },
        {
          "name": "",
          "type": "address[]",
          "internalType": "address[]"
        },
        {
          "name": "",
          "type": "uint256[]",
          "internalType": "uint256[]"
        }
      ],
      "stateMutability": "nonpayable"
    },
    {
      "type": "function",
      "name": "depositReserve",
      "inputs": [
        {
          "name": "amount_",
          "type": "uint256",
          "internalType": "uint256"
        }
      ],
      "outputs": [],
      "stateMutability": "nonpayable"
    },
    {
      "type": "function",
      "name": "executeRedemptionQueue",
      "inputs": [],
      "outputs": [],
      "stateMutability": "nonpayable"
    },
    {
      "type": "function",
      "name": "getBuyFee",
      "inputs": [],
      "outputs": [
        {
          "name": "buyFee_",
          "type": "uint256",
          "internalType": "uint256"
        }
      ],
      "stateMutability": "view"
    },
    {
      "type": "function",
      "name": "getIsDirectOperationsOnly",
      "inputs": [],
      "outputs": [
        {
          "name": "isDirectOnly_",
          "type": "bool",
          "internalType": "bool"
        }
      ],
      "stateMutability": "view"
    },
    {
      "type": "function",
      "name": "getIssuanceToken",
      "inputs": [],
      "outputs": [
        {
          "name": "",
          "type": "address",
          "internalType": "address"
        }
      ],
      "stateMutability": "view"
    },
    {
      "type": "function",
      "name": "getMaxBuyFee",
      "inputs": [],
      "outputs": [
        {
          "name": "maxBuyFee_",
          "type": "uint256",
          "internalType": "uint256"
        }
      ],
      "stateMutability": "view"
    },
    {
      "type": "function",
      "name": "getMaxProjectSellFee",
      "inputs": [],
      "outputs": [
        {
          "name": "maxProjectSellFee_",
          "type": "uint256",
          "internalType": "uint256"
        }
      ],
      "stateMutability": "view"
    },
    {
      "type": "function",
      "name": "getNextOrderId",
      "inputs": [],
      "outputs": [
        {
          "name": "orderId_",
          "type": "uint256",
          "internalType": "uint256"
        }
      ],
      "stateMutability": "view"
    },
    {
      "type": "function",
      "name": "getOpenRedemptionAmount",
      "inputs": [],
      "outputs": [
        {
          "name": "amount_",
          "type": "uint256",
          "internalType": "uint256"
        }
      ],
      "stateMutability": "view"
    },
    {
      "type": "function",
      "name": "getOrderId",
      "inputs": [],
      "outputs": [
        {
          "name": "orderId_",
          "type": "uint256",
          "internalType": "uint256"
        }
      ],
      "stateMutability": "view"
    },
    {
      "type": "function",
      "name": "getProjectTreasury",
      "inputs": [],
      "outputs": [
        {
          "name": "treasury_",
          "type": "address",
          "internalType": "address"
        }
      ],
      "stateMutability": "view"
    },
    {
      "type": "function",
      "name": "getSellFee",
      "inputs": [],
      "outputs": [
        {
          "name": "fee_",
          "type": "uint256",
          "internalType": "uint256"
        }
      ],
      "stateMutability": "view"
    },
    {
      "type": "function",
      "name": "getStaticPriceForBuying",
      "inputs": [],
      "outputs": [
        {
          "name": "buyPrice_",
          "type": "uint256",
          "internalType": "uint256"
        }
      ],
      "stateMutability": "view"
    },
    {
      "type": "function",
      "name": "getStaticPriceForSelling",
      "inputs": [],
      "outputs": [
        {
          "name": "sellPrice_",
          "type": "uint256",
          "internalType": "uint256"
        }
      ],
      "stateMutability": "view"
    },
    {
      "type": "function",
      "name": "grantModuleRole",
      "inputs": [
        {
          "name": "role",
          "type": "bytes32",
          "internalType": "bytes32"
        },
        {
          "name": "target",
          "type": "address",
          "internalType": "address"
        }
      ],
      "outputs": [],
      "stateMutability": "nonpayable"
    },
    {
      "type": "function",
      "name": "grantModuleRoleBatched",
      "inputs": [
        {
          "name": "role",
          "type": "bytes32",
          "internalType": "bytes32"
        },
        {
          "name": "targets",
          "type": "address[]",
          "internalType": "address[]"
        }
      ],
      "outputs": [],
      "stateMutability": "nonpayable"
    },
    {
      "type": "function",
      "name": "identifier",
      "inputs": [],
      "outputs": [
        {
          "name": "",
          "type": "bytes32",
          "internalType": "bytes32"
        }
      ],
      "stateMutability": "view"
    },
    {
      "type": "function",
      "name": "init",
      "inputs": [
        {
          "name": "orchestrator_",
          "type": "address",
          "internalType": "contract IOrchestrator_v1"
        },
        {
          "name": "metadata_",
          "type": "tuple",
          "internalType": "struct IModule_v1.Metadata",
          "components": [
            {
              "name": "majorVersion",
              "type": "uint256",
              "internalType": "uint256"
            },
            {
              "name": "minorVersion",
              "type": "uint256",
              "internalType": "uint256"
            },
            {
              "name": "patchVersion",
              "type": "uint256",
              "internalType": "uint256"
            },
            {
              "name": "url",
              "type": "string",
              "internalType": "string"
            },
            {
              "name": "title",
              "type": "string",
              "internalType": "string"
            }
          ]
        },
        {
          "name": "configData_",
          "type": "bytes",
          "internalType": "bytes"
        }
      ],
      "outputs": [],
      "stateMutability": "nonpayable"
    },
    {
      "type": "function",
      "name": "isTrustedForwarder",
      "inputs": [
        {
          "name": "forwarder",
          "type": "address",
          "internalType": "address"
        }
      ],
      "outputs": [
        {
          "name": "",
          "type": "bool",
          "internalType": "bool"
        }
      ],
      "stateMutability": "view"
    },
    {
      "type": "function",
      "name": "openBuy",
      "inputs": [],
      "outputs": [],
      "stateMutability": "nonpayable"
    },
    {
      "type": "function",
      "name": "openSell",
      "inputs": [],
      "outputs": [],
      "stateMutability": "nonpayable"
    },
    {
      "type": "function",
      "name": "orchestrator",
      "inputs": [],
      "outputs": [
        {
          "name": "",
          "type": "address",
          "internalType": "contract IOrchestrator_v1"
        }
      ],
      "stateMutability": "view"
    },
    {
      "type": "function",
      "name": "outstandingTokenAmount",
      "inputs": [
        {
          "name": "_token",
          "type": "address",
          "internalType": "address"
        }
      ],
      "outputs": [
        {
          "name": "",
          "type": "uint256",
          "internalType": "uint256"
        }
      ],
      "stateMutability": "view"
    },
    {
      "type": "function",
      "name": "paymentOrders",
      "inputs": [],
      "outputs": [
        {
          "name": "",
          "type": "tuple[]",
          "internalType": "struct IERC20PaymentClientBase_v1.PaymentOrder[]",
          "components": [
            {
              "name": "recipient",
              "type": "address",
              "internalType": "address"
            },
            {
              "name": "paymentToken",
              "type": "address",
              "internalType": "address"
            },
            {
              "name": "amount",
              "type": "uint256",
              "internalType": "uint256"
            },
            {
              "name": "start",
              "type": "uint256",
              "internalType": "uint256"
            },
            {
              "name": "cliff",
              "type": "uint256",
              "internalType": "uint256"
            },
            {
              "name": "end",
              "type": "uint256",
              "internalType": "uint256"
            }
          ]
        }
      ],
      "stateMutability": "view"
    },
    {
      "type": "function",
      "name": "projectCollateralFeeCollected",
      "inputs": [],
      "outputs": [
        {
          "name": "",
          "type": "uint256",
          "internalType": "uint256"
        }
      ],
      "stateMutability": "view"
    },
    {
      "type": "function",
      "name": "revokeModuleRole",
      "inputs": [
        {
          "name": "role",
          "type": "bytes32",
          "internalType": "bytes32"
        },
        {
          "name": "target",
          "type": "address",
          "internalType": "address"
        }
      ],
      "outputs": [],
      "stateMutability": "nonpayable"
    },
    {
      "type": "function",
      "name": "revokeModuleRoleBatched",
      "inputs": [
        {
          "name": "role",
          "type": "bytes32",
          "internalType": "bytes32"
        },
        {
          "name": "targets",
          "type": "address[]",
          "internalType": "address[]"
        }
      ],
      "outputs": [],
      "stateMutability": "nonpayable"
    },
    {
      "type": "function",
      "name": "sell",
      "inputs": [
        {
          "name": "depositAmount_",
          "type": "uint256",
          "internalType": "uint256"
        },
        {
          "name": "minAmountOut_",
          "type": "uint256",
          "internalType": "uint256"
        }
      ],
      "outputs": [],
      "stateMutability": "nonpayable"
    },
    {
      "type": "function",
      "name": "sellFee",
      "inputs": [],
      "outputs": [
        {
          "name": "",
          "type": "uint256",
          "internalType": "uint256"
        }
      ],
      "stateMutability": "view"
    },
    {
      "type": "function",
      "name": "sellIsOpen",
      "inputs": [],
      "outputs": [
        {
          "name": "",
          "type": "bool",
          "internalType": "bool"
        }
      ],
      "stateMutability": "view"
    },
    {
      "type": "function",
      "name": "sellTo",
      "inputs": [
        {
          "name": "receiver_",
          "type": "address",
          "internalType": "address"
        },
        {
          "name": "depositAmount_",
          "type": "uint256",
          "internalType": "uint256"
        },
        {
          "name": "minAmountOut_",
          "type": "uint256",
          "internalType": "uint256"
        }
      ],
      "outputs": [],
      "stateMutability": "nonpayable"
    },
    {
      "type": "function",
      "name": "setBuyFee",
      "inputs": [
        {
          "name": "fee_",
          "type": "uint256",
          "internalType": "uint256"
        }
      ],
      "outputs": [],
      "stateMutability": "nonpayable"
    },
    {
      "type": "function",
      "name": "setIsDirectOperationsOnly",
      "inputs": [
        {
          "name": "isDirectOperationsOnly_",
          "type": "bool",
          "internalType": "bool"
        }
      ],
      "outputs": [],
      "stateMutability": "nonpayable"
    },
    {
      "type": "function",
      "name": "setOracleAddress",
      "inputs": [
        {
          "name": "oracle_",
          "type": "address",
          "internalType": "address"
        }
      ],
      "outputs": [],
      "stateMutability": "nonpayable"
    },
    {
      "type": "function",
      "name": "setProjectTreasury",
      "inputs": [
        {
          "name": "projectTreasury_",
          "type": "address",
          "internalType": "address"
        }
      ],
      "outputs": [],
      "stateMutability": "nonpayable"
    },
    {
      "type": "function",
      "name": "setSellFee",
      "inputs": [
        {
          "name": "fee_",
          "type": "uint256",
          "internalType": "uint256"
        }
      ],
      "outputs": [],
      "stateMutability": "nonpayable"
    },
    {
      "type": "function",
      "name": "supportsInterface",
      "inputs": [
        {
          "name": "interfaceId_",
          "type": "bytes4",
          "internalType": "bytes4"
        }
      ],
      "outputs": [
        {
          "name": "isSupported_",
          "type": "bool",
          "internalType": "bool"
        }
      ],
      "stateMutability": "view"
    },
    {
      "type": "function",
      "name": "title",
      "inputs": [],
      "outputs": [
        {
          "name": "",
          "type": "string",
          "internalType": "string"
        }
      ],
      "stateMutability": "view"
    },
    {
      "type": "function",
      "name": "token",
      "inputs": [],
      "outputs": [
        {
          "name": "token_",
          "type": "address",
          "internalType": "contract IERC20"
        }
      ],
      "stateMutability": "view"
    },
    {
      "type": "function",
      "name": "transferOrchestratorToken",
      "inputs": [
        {
          "name": "to_",
          "type": "address",
          "internalType": "address"
        },
        {
          "name": "amount_",
          "type": "uint256",
          "internalType": "uint256"
        }
      ],
      "outputs": [],
      "stateMutability": "nonpayable"
    },
    {
      "type": "function",
      "name": "trustedForwarder",
      "inputs": [],
      "outputs": [
        {
          "name": "",
          "type": "address",
          "internalType": "address"
        }
      ],
      "stateMutability": "view"
    },
    {
      "type": "function",
      "name": "url",
      "inputs": [],
      "outputs": [
        {
          "name": "",
          "type": "string",
          "internalType": "string"
        }
      ],
      "stateMutability": "view"
    },
    {
      "type": "function",
      "name": "version",
      "inputs": [],
      "outputs": [
        {
          "name": "",
          "type": "uint256",
          "internalType": "uint256"
        },
        {
          "name": "",
          "type": "uint256",
          "internalType": "uint256"
        },
        {
          "name": "",
          "type": "uint256",
          "internalType": "uint256"
        }
      ],
      "stateMutability": "view"
    },
    {
      "type": "function",
      "name": "withdrawProjectCollateralFee",
      "inputs": [
        {
          "name": "_receiver",
          "type": "address",
          "internalType": "address"
        },
        {
          "name": "_amount",
          "type": "uint256",
          "internalType": "uint256"
        }
      ],
      "outputs": [],
      "stateMutability": "nonpayable"
    },
    {
      "type": "event",
      "name": "BuyFeeUpdated",
      "inputs": [
        {
          "name": "newBuyFee",
          "type": "uint256",
          "indexed": false,
          "internalType": "uint256"
        },
        {
          "name": "oldBuyFee",
          "type": "uint256",
          "indexed": false,
          "internalType": "uint256"
        }
      ],
      "anonymous": false
    },
    {
      "type": "event",
      "name": "BuyingDisabled",
      "inputs": [],
      "anonymous": false
    },
    {
      "type": "event",
      "name": "BuyingEnabled",
      "inputs": [],
      "anonymous": false
    },
    {
      "type": "event",
      "name": "Initialized",
      "inputs": [
        {
          "name": "version",
          "type": "uint64",
          "indexed": false,
          "internalType": "uint64"
        }
      ],
      "anonymous": false
    },
    {
      "type": "event",
      "name": "IssuanceTokenSet",
      "inputs": [
        {
          "name": "issuanceToken",
          "type": "address",
          "indexed": true,
          "internalType": "address"
        },
        {
          "name": "decimals",
          "type": "uint8",
          "indexed": false,
          "internalType": "uint8"
        }
      ],
      "anonymous": false
    },
    {
      "type": "event",
      "name": "ModuleInitialized",
      "inputs": [
        {
          "name": "parentOrchestrator",
          "type": "address",
          "indexed": true,
          "internalType": "address"
        },
        {
          "name": "metadata",
          "type": "tuple",
          "indexed": false,
          "internalType": "struct IModule_v1.Metadata",
          "components": [
            {
              "name": "majorVersion",
              "type": "uint256",
              "internalType": "uint256"
            },
            {
              "name": "minorVersion",
              "type": "uint256",
              "internalType": "uint256"
            },
            {
              "name": "patchVersion",
              "type": "uint256",
              "internalType": "uint256"
            },
            {
              "name": "url",
              "type": "string",
              "internalType": "string"
            },
            {
              "name": "title",
              "type": "string",
              "internalType": "string"
            }
          ]
        }
      ],
      "anonymous": false
    },
    {
      "type": "event",
      "name": "OrchestratorTokenSet",
      "inputs": [
        {
          "name": "token",
          "type": "address",
          "indexed": true,
          "internalType": "address"
        },
        {
          "name": "decimals",
          "type": "uint8",
          "indexed": false,
          "internalType": "uint8"
        }
      ],
      "anonymous": false
    },
    {
      "type": "event",
      "name": "PaymentOrderAdded",
      "inputs": [
        {
          "name": "recipient",
          "type": "address",
          "indexed": true,
          "internalType": "address"
        },
        {
          "name": "token",
          "type": "address",
          "indexed": true,
          "internalType": "address"
        },
        {
          "name": "amount",
          "type": "uint256",
          "indexed": false,
          "internalType": "uint256"
        }
      ],
      "anonymous": false
    },
    {
      "type": "event",
      "name": "ProjectCollateralFeeAdded",
      "inputs": [
        {
          "name": "amount",
          "type": "uint256",
          "indexed": false,
          "internalType": "uint256"
        }
      ],
      "anonymous": false
    },
    {
      "type": "event",
      "name": "ProjectCollateralFeeWithdrawn",
      "inputs": [
        {
          "name": "receiver",
          "type": "address",
          "indexed": false,
          "internalType": "address"
        },
        {
          "name": "amount",
          "type": "uint256",
          "indexed": false,
          "internalType": "uint256"
        }
      ],
      "anonymous": false
    },
    {
      "type": "event",
      "name": "ProtocolFeeMinted",
      "inputs": [
        {
          "name": "token",
          "type": "address",
          "indexed": true,
          "internalType": "address"
        },
        {
          "name": "treasury",
          "type": "address",
          "indexed": true,
          "internalType": "address"
        },
        {
          "name": "feeAmount",
          "type": "uint256",
          "indexed": false,
          "internalType": "uint256"
        }
      ],
      "anonymous": false
    },
    {
      "type": "event",
      "name": "ProtocolFeeTransferred",
      "inputs": [
        {
          "name": "token",
          "type": "address",
          "indexed": true,
          "internalType": "address"
        },
        {
          "name": "treasury",
          "type": "address",
          "indexed": true,
          "internalType": "address"
        },
        {
          "name": "feeAmount",
          "type": "uint256",
          "indexed": false,
          "internalType": "uint256"
        }
      ],
      "anonymous": false
    },
    {
      "type": "event",
      "name": "RedemptionOrderCreated",
      "inputs": [
        {
          "name": "orderId_",
          "type": "uint256",
          "indexed": true,
          "internalType": "uint256"
        },
        {
          "name": "seller_",
          "type": "address",
          "indexed": true,
          "internalType": "address"
        },
        {
          "name": "receiver_",
          "type": "address",
          "indexed": true,
          "internalType": "address"
        },
        {
          "name": "sellAmount_",
          "type": "uint256",
          "indexed": false,
          "internalType": "uint256"
        },
        {
          "name": "exchangeRate_",
          "type": "uint256",
          "indexed": false,
          "internalType": "uint256"
        },
        {
          "name": "collateralAmount_",
          "type": "uint256",
          "indexed": false,
          "internalType": "uint256"
        },
        {
          "name": "feePercentage_",
          "type": "uint256",
          "indexed": false,
          "internalType": "uint256"
        },
        {
          "name": "feeAmount_",
          "type": "uint256",
          "indexed": false,
          "internalType": "uint256"
        },
        {
          "name": "redemptionAmount_",
          "type": "uint256",
          "indexed": false,
          "internalType": "uint256"
        },
        {
          "name": "collateralToken_",
          "type": "address",
          "indexed": false,
          "internalType": "address"
        },
        {
          "name": "redemptionTime_",
          "type": "uint256",
          "indexed": false,
          "internalType": "uint256"
        },
        {
          "name": "state_",
          "type": "uint8",
          "indexed": false,
          "internalType": "enum IFM_PC_ExternalPrice_Redeeming_v1.RedemptionState"
        }
      ],
      "anonymous": false
    },
    {
      "type": "event",
      "name": "ReserveDeposited",
      "inputs": [
        {
          "name": "depositor_",
          "type": "address",
          "indexed": true,
          "internalType": "address"
        },
        {
          "name": "amount_",
          "type": "uint256",
          "indexed": false,
          "internalType": "uint256"
        }
      ],
      "anonymous": false
    },
    {
      "type": "event",
      "name": "SellFeeUpdated",
      "inputs": [
        {
          "name": "newSellFee",
          "type": "uint256",
          "indexed": false,
          "internalType": "uint256"
        },
        {
          "name": "oldSellFee",
          "type": "uint256",
          "indexed": false,
          "internalType": "uint256"
        }
      ],
      "anonymous": false
    },
    {
      "type": "event",
      "name": "SellingDisabled",
      "inputs": [],
      "anonymous": false
    },
    {
      "type": "event",
      "name": "SellingEnabled",
      "inputs": [],
      "anonymous": false
    },
    {
      "type": "event",
      "name": "TokenDecimalsUpdated",
      "inputs": [
        {
          "name": "oldDecimals",
          "type": "uint8",
          "indexed": false,
          "internalType": "uint8"
        },
        {
          "name": "newDecimals",
          "type": "uint8",
          "indexed": false,
          "internalType": "uint8"
        }
      ],
      "anonymous": false
    },
    {
      "type": "event",
      "name": "TokensBought",
      "inputs": [
        {
          "name": "receiver",
          "type": "address",
          "indexed": true,
          "internalType": "address"
        },
        {
          "name": "depositAmount",
          "type": "uint256",
          "indexed": false,
          "internalType": "uint256"
        },
        {
          "name": "receivedAmount",
          "type": "uint256",
          "indexed": false,
          "internalType": "uint256"
        },
        {
          "name": "buyer",
          "type": "address",
          "indexed": false,
          "internalType": "address"
        }
      ],
      "anonymous": false
    },
    {
      "type": "event",
      "name": "TokensSold",
      "inputs": [
        {
          "name": "receiver",
          "type": "address",
          "indexed": true,
          "internalType": "address"
        },
        {
          "name": "depositAmount",
          "type": "uint256",
          "indexed": false,
          "internalType": "uint256"
        },
        {
          "name": "receivedAmount",
          "type": "uint256",
          "indexed": false,
          "internalType": "uint256"
        },
        {
          "name": "seller",
          "type": "address",
          "indexed": false,
          "internalType": "address"
        }
      ],
      "anonymous": false
    },
    {
      "type": "event",
      "name": "TransferOrchestratorToken",
      "inputs": [
        {
          "name": "_to",
          "type": "address",
          "indexed": true,
          "internalType": "address"
        },
        {
          "name": "_amount",
          "type": "uint256",
          "indexed": false,
          "internalType": "uint256"
        }
      ],
      "anonymous": false
    },
    {
      "type": "error",
      "name": "AddressEmptyCode",
      "inputs": [
        {
          "name": "target",
          "type": "address",
          "internalType": "address"
        }
      ]
    },
    {
      "type": "error",
      "name": "AddressInsufficientBalance",
      "inputs": [
        {
          "name": "account",
          "type": "address",
          "internalType": "address"
        }
      ]
    },
    {
      "type": "error",
      "name": "FailedInnerCall",
      "inputs": []
    },
    {
      "type": "error",
      "name": "InvalidInitialization",
      "inputs": []
    },
    {
      "type": "error",
      "name": "Module_OrchestratorCallbackFailed",
      "inputs": [
        {
          "name": "funcSig",
          "type": "string",
          "internalType": "string"
        }
      ]
    },
    {
      "type": "error",
      "name": "Module__BondingCurveBase__BuyingFunctionaltiesClosed",
      "inputs": []
    },
    {
      "type": "error",
      "name": "Module__BondingCurveBase__FeeAmountToHigh",
      "inputs": []
    },
    {
      "type": "error",
      "name": "Module__BondingCurveBase__InsufficientOutputAmount",
      "inputs": []
    },
    {
      "type": "error",
      "name": "Module__BondingCurveBase__InvalidDepositAmount",
      "inputs": []
    },
    {
      "type": "error",
      "name": "Module__BondingCurveBase__InvalidFeePercentage",
      "inputs": []
    },
    {
      "type": "error",
      "name": "Module__BondingCurveBase__InvalidMinAmountOut",
      "inputs": []
    },
    {
      "type": "error",
      "name": "Module__BondingCurveBase__InvalidRecipient",
      "inputs": []
    },
    {
      "type": "error",
      "name": "Module__BondingCurveBase__InvalidWithdrawAmount",
      "inputs": []
    },
    {
      "type": "error",
      "name": "Module__BondingCurveBase__TradeAmountTooLow",
      "inputs": []
    },
    {
      "type": "error",
      "name": "Module__CallerNotAuthorized",
      "inputs": [
        {
          "name": "role",
          "type": "bytes32",
          "internalType": "bytes32"
        },
        {
          "name": "caller",
          "type": "address",
          "internalType": "address"
        }
      ]
    },
    {
      "type": "error",
      "name": "Module__ERC20PaymentClientBase__ArrayLengthMismatch",
      "inputs": []
    },
    {
      "type": "error",
      "name": "Module__ERC20PaymentClientBase__CallerNotAuthorized",
      "inputs": []
    },
    {
      "type": "error",
      "name": "Module__ERC20PaymentClientBase__InsufficientFunds",
      "inputs": [
        {
          "name": "token",
          "type": "address",
          "internalType": "address"
        }
      ]
    },
    {
      "type": "error",
      "name": "Module__ERC20PaymentClientBase__InvalidAmount",
      "inputs": []
    },
    {
      "type": "error",
      "name": "Module__ERC20PaymentClientBase__InvalidPaymentOrder",
      "inputs": []
    },
    {
      "type": "error",
      "name": "Module__ERC20PaymentClientBase__InvalidRecipient",
      "inputs": []
    },
    {
      "type": "error",
      "name": "Module__ERC20PaymentClientBase__InvalidToken",
      "inputs": []
    },
    {
      "type": "error",
      "name": "Module__ERC20PaymentClientBase__Invalidend",
      "inputs": []
    },
    {
      "type": "error",
      "name": "Module__ERC20PaymentClientBase__TokenTransferFailed",
      "inputs": []
    },
    {
      "type": "error",
      "name": "Module__FM_PC_ExternalPrice_Redeeming_FeeExceedsMaximum",
      "inputs": [
        {
          "name": "fee_",
          "type": "uint256",
          "internalType": "uint256"
        },
        {
          "name": "maxFee_",
          "type": "uint256",
          "internalType": "uint256"
        }
      ]
    },
    {
      "type": "error",
      "name": "Module__FM_PC_ExternalPrice_Redeeming_InvalidAmount",
      "inputs": []
    },
    {
      "type": "error",
      "name": "Module__FM_PC_ExternalPrice_Redeeming_InvalidOracleInterface",
      "inputs": []
    },
    {
      "type": "error",
      "name": "Module__FM_PC_ExternalPrice_Redeeming_InvalidProjectTreasury",
      "inputs": []
    },
    {
      "type": "error",
      "name": "Module__FM_PC_ExternalPrice_Redeeming_QueueExecutionFailed",
      "inputs": []
    },
    {
      "type": "error",
      "name": "Module__FM_PC_ExternalPrice_Redeeming_ThirdPartyOperationsDisabled",
      "inputs": []
    },
    {
      "type": "error",
      "name": "Module__InvalidAddress",
      "inputs": []
    },
    {
      "type": "error",
      "name": "Module__InvalidMetadata",
      "inputs": []
    },
    {
      "type": "error",
      "name": "Module__InvalidOrchestratorAddress",
      "inputs": []
    },
    {
      "type": "error",
      "name": "Module__OnlyCallableByOrchestrator",
      "inputs": []
    },
    {
      "type": "error",
      "name": "Module__OnlyCallableByPaymentClient",
      "inputs": []
    },
    {
      "type": "error",
      "name": "Module__RedeemingBondingCurveBase__InsufficientCollateralForRedemption",
      "inputs": []
    },
    {
      "type": "error",
      "name": "Module__RedeemingBondingCurveBase__SellingFunctionaltiesClosed",
      "inputs": []
    },
    {
      "type": "error",
      "name": "NotInitializing",
      "inputs": []
    },
    {
      "type": "error",
      "name": "SafeERC20FailedOperation",
      "inputs": [
        {
          "name": "token",
          "type": "address",
          "internalType": "address"
        }
      ]
    }
  ],
  "bytecode": {
    "object": "0x60a06040523480156200001157600080fd5b5060006080526200002162000027565b620000db565b7ff0c57e16840df040f15088dc2f81fe391c3923bec73e23a9662efc9c229c6a00805468010000000000000000900460ff1615620000785760405163f92ee8a960e01b815260040160405180910390fd5b80546001600160401b0390811614620000d85780546001600160401b0319166001600160401b0390811782556040519081527fc7f505b2f371ae2175ee4913f4499e1f2633a7b5936321eed1cdaeb6115181d29060200160405180910390a15b50565b608051615620620000f4600039600050506156206000f3fe608060405234801561001057600080fd5b50600436106103785760003560e01c80638158900b116101d3578063bd09840411610104578063d4a67930116100a2578063f1eae64a1161007c578063f1eae64a14610705578063f42d48a11461070d578063fa03330c14610720578063fc0c546a1461072857600080fd5b8063d4a67930146106d7578063d6febde8146106df578063d79875eb146106f257600080fd5b8063c5b27dde116100de578063c5b27dde1461069f578063c6829ba2146106b2578063c6ab5cdc146106c6578063cbda8f82146106ce57600080fd5b8063bd09840414610675578063c0231ff61461067d578063c35067ed1461069457600080fd5b8063b33ec61811610171578063b7ae632f1161014b578063b7ae632f1461062b578063ba360dd414610652578063ba83c9701461065a578063bcb619201461066257600080fd5b8063b33ec618146105f4578063b66a870c14610607578063b74795d91461061a57600080fd5b80638f818b90116101ad5780638f818b90146105c45780639093b01f146105cc578063935b7dbd146105d9578063a8496426146105ec57600080fd5b80638158900b14610596578063844b2d431461059e5780638b4cee08146105b157600080fd5b80634c69c00f116102ad57806369fcd4ac1161024b57806375fa0b761161022557806375fa0b76146105595780637998a1c41461056e5780637a997ab7146105765780637da0a8771461058e57600080fd5b806369fcd4ac146105205780636c67e80714610533578063759cc4b51461054657600080fd5b806354fd4d501161028757806354fd4d50146104d95780635600f04f146104fd578063572b6c0514610505578063683c9dad1461051857600080fd5b80634c69c00f146104ab5780634f893bba146104be578063519cdc6f146104d157600080fd5b8063289af0d81161031a5780632e84db5f116102f45780632e84db5f14610451578063322d21001461047a578063470624021461048d5780634a79d50c1461049657600080fd5b8063289af0d81461042a5780632b14ca56146104325780632c2ee2b51461043b57600080fd5b80631ca3bc4f116103565780631ca3bc4f146103cc5780631e96bb9e146103f157806324e3027014610404578063272bbd441461041757600080fd5b806301ffc9a71461037d5780630cc835a3146103a55780631835f541146103ba575b600080fd5b61039061038b366004614aa3565b610739565b60405190151581526020015b60405180910390f35b6103b86103b3366004614acd565b610764565b005b60db545b60405190815260200161039c565b606c546001600160a01b03165b6040516001600160a01b03909116815260200161039c565b6103b86103ff366004614afb565b610887565b6103b8610412366004614b18565b6108db565b6103b8610425366004614b18565b610b5c565b60a2546103be565b6103be60a25481565b60dc5461010090046001600160a01b03166103d9565b6103be61045f366004614afb565b6001600160a01b031660009081526039602052604090205490565b6103be610488366004614acd565b610d36565b6103be606d5481565b61049e610ddc565b60405161039c9190614be7565b6103b86104b9366004614afb565b610e71565b6103b86104cc366004614bfa565b610ec5565b60d7546103be565b6001546002546003546040805193845260208401929092529082015260600161039c565b61049e611088565b610390610513366004614afb565b61109a565b6103b8611109565b6103be61052e366004614acd565b6112f8565b6103b8610541366004614c26565b611396565b6103b8610554366004614bfa565b6115ac565b610561611612565b60405161039c9190614cde565b6103be6116b5565b6103be6d57484954454c4953545f524f4c4560901b81565b6103d9611813565b60da546103be565b6103b86105ac366004614cff565b61188b565b6103b86105bf366004614acd565b6118e9565b606d546103be565b60a1546103909060ff1681565b6103b86105e7366004614d1c565b61196e565b60d9546103be565b6103b8610602366004614bfa565b611a11565b6103b8610615366004614e1d565b611a6f565b6000546001600160a01b03166103d9565b6103be7f51554555455f4d414e414745525f524f4c45000000000000000000000000000081565b60d8546103be565b6103b8611d1a565b6103b8610670366004614c26565b611d9a565b6103be611f7c565b610685611fe9565b60405161039c93929190614f03565b60dc5460ff16610390565b6103b86106ad366004614d1c565b6124a8565b606c5461039090600160a01b900460ff1681565b6103b861254d565b6103be606e5481565b6103b86125d0565b6103b86106ed366004614f9b565b612659565b6103b8610700366004614f9b565b6126de565b6103b8612765565b6103b861071b366004614acd565b6127e8565b6103be612886565b60d6546001600160a01b03166103d9565b60006001600160e01b0319821663d84ead1960e01b148061075e575061075e826128d0565b92915050565b6000546040805163d09edf3160e01b81529051610841926001600160a01b03169163d09edf319160048083019260209291908290030181865afa1580156107af573d6000803e3d6000fd5b505050506040513d601f19601f820116820180604052508101906107d39190614fbd565b6001600160a01b031663b3ecf2366040518163ffffffff1660e01b8152600401602060405180830381865afa158015610810573d6000803e3d6000fd5b505050506040513d601f19601f820116820180604052508101906108349190614fda565b61083c6128f5565b612947565b60d85481111561087b5760d85460405163960983cd60e01b8152610872918391600401918252602082015260400190565b60405180910390fd5b61088481612a5e565b50565b6000546040805163d09edf3160e01b815290516108d2926001600160a01b03169163d09edf319160048083019260209291908290030181865afa1580156107af573d6000803e3d6000fd5b61088481612aa9565b600080546040805163d09edf3160e01b815290518693926001600160a01b03169163d09edf319160048083019260209291908290030181865afa158015610926573d6000803e3d6000fd5b505050506040513d601f19601f8201168201806040525081019061094a9190614fbd565b60405163fdd5205f60e01b8152306004820152602481018490526001600160a01b03919091169063fdd5205f90604401602060405180830381865afa158015610997573d6000803e3d6000fd5b505050506040513d601f19601f820116820180604052508101906109bb9190614fda565b9050610a7f60008054906101000a90046001600160a01b03166001600160a01b031663d09edf316040518163ffffffff1660e01b8152600401602060405180830381865afa158015610a11573d6000803e3d6000fd5b505050506040513d601f19601f82011682018060405250810190610a359190614fbd565b6001600160a01b031663248a9ca3836040518263ffffffff1660e01b8152600401610a6291815260200190565b602060405180830381865afa158015610810573d6000803e3d6000fd5b60008054906101000a90046001600160a01b03166001600160a01b031663d09edf316040518163ffffffff1660e01b8152600401602060405180830381865afa158015610ad0573d6000803e3d6000fd5b505050506040513d601f19601f82011682018060405250810190610af49190614fbd565b6001600160a01b0316637d540a648686866040518463ffffffff1660e01b8152600401610b2393929190614ff3565b600060405180830381600087803b158015610b3d57600080fd5b505af1158015610b51573d6000803e3d6000fd5b505050505050505050565b600080546040805163d09edf3160e01b815290518693926001600160a01b03169163d09edf319160048083019260209291908290030181865afa158015610ba7573d6000803e3d6000fd5b505050506040513d601f19601f82011682018060405250810190610bcb9190614fbd565b60405163fdd5205f60e01b8152306004820152602481018490526001600160a01b03919091169063fdd5205f90604401602060405180830381865afa158015610c18573d6000803e3d6000fd5b505050506040513d601f19601f82011682018060405250810190610c3c9190614fda565b9050610c9260008054906101000a90046001600160a01b03166001600160a01b031663d09edf316040518163ffffffff1660e01b8152600401602060405180830381865afa158015610a11573d6000803e3d6000fd5b60008054906101000a90046001600160a01b03166001600160a01b031663d09edf316040518163ffffffff1660e01b8152600401602060405180830381865afa158015610ce3573d6000803e3d6000fd5b505050506040513d601f19601f82011682018060405250810190610d079190614fbd565b6001600160a01b031663648154538686866040518463ffffffff1660e01b8152600401610b2393929190614ff3565b6000610d43826001612b16565b60408051808201909152601c81527f5f6275794f7264657228616464726573732c75696e742c75696e742900000000602090910152600080610da47fdb2c93faffa8f98d8bcd55cf740e8ead65ac1699aaf6ee8a00820485fc802af6612b58565b935093505050610db78483606d54612b81565b50909450610dd19050610dc985612c50565b826000612b81565b509095945050505050565b606060016004018054610dee9061504b565b80601f0160208091040260200160405190810160405280929190818152602001828054610e1a9061504b565b8015610e675780601f10610e3c57610100808354040283529160200191610e67565b820191906000526020600020905b815481529060010190602001808311610e4a57829003601f168201915b5050505050905090565b6000546040805163d09edf3160e01b81529051610ebc926001600160a01b03169163d09edf319160048083019260209291908290030181865afa1580156107af573d6000803e3d6000fd5b61088481612dd1565b81610ecf81612e7f565b6000546040805163d09edf3160e01b81529051610f1a926001600160a01b03169163d09edf319160048083019260209291908290030181865afa1580156107af573d6000803e3d6000fd5b606e54821115610f3d576040516347d1bcf560e01b815260040160405180910390fd5b81606e6000828254610f4f919061509b565b92505081905550611041838360008054906101000a90046001600160a01b03166001600160a01b03166304baed9e6040518163ffffffff1660e01b8152600401602060405180830381865afa158015610fac573d6000803e3d6000fd5b505050506040513d601f19601f82011682018060405250810190610fd09190614fbd565b6001600160a01b031663fc0c546a6040518163ffffffff1660e01b8152600401602060405180830381865afa15801561100d573d6000803e3d6000fd5b505050506040513d601f19601f820116820180604052508101906110319190614fbd565b6001600160a01b03169190612ebb565b604080516001600160a01b0385168152602081018490527f9e9a785b42ae3ce89ea11b526c656a7cacbd520b83908336dc8c9f4e9be9135f910160405180910390a1505050565b606060016003018054610dee9061504b565b6000805460405163572b6c0560e01b81526001600160a01b0384811660048301529091169063572b6c0590602401602060405180830381865afa1580156110e5573d6000803e3d6000fd5b505050506040513d601f19601f8201168201806040525081019061075e91906150ae565b7f51554555455f4d414e414745525f524f4c4500000000000000000000000000006111d760008054906101000a90046001600160a01b03166001600160a01b031663d09edf316040518163ffffffff1660e01b8152600401602060405180830381865afa15801561117e573d6000803e3d6000fd5b505050506040513d601f19601f820116820180604052508101906111a29190614fbd565b60405163fdd5205f60e01b8152306004820152602481018490526001600160a01b03919091169063fdd5205f90604401610a62565b60008060009054906101000a90046001600160a01b03166001600160a01b031663f1c6bdf86040518163ffffffff1660e01b8152600401602060405180830381865afa15801561122b573d6000803e3d6000fd5b505050506040513d601f19601f8201168201806040525081019061124f9190614fbd565b60408051600481526024810182526020810180516001600160e01b031663683c9dad60e01b17905290516001600160a01b03929092169161129091906150cb565b6000604051808303816000865af19150503d80600081146112cd576040519150601f19603f3d011682016040523d82523d6000602084013e6112d2565b606091505b50509050806112f457604051630c18dce960e41b815260040160405180910390fd5b5050565b6000611305826001612b16565b60408051808201909152601d81527f5f73656c6c4f7264657228616464726573732c75696e742c75696e74290000006020909101526000806113667f3299ac1e4997da1dd638584692e27ee6e952ca63f8284764a73c592284e1d9e8612b58565b93509350505061137884826000612b81565b50909450611387905084612f1a565b9250610dd1838360a254612b81565b600080546040805163d09edf3160e01b815290518593926001600160a01b03169163d09edf319160048083019260209291908290030181865afa1580156113e1573d6000803e3d6000fd5b505050506040513d601f19601f820116820180604052508101906114059190614fbd565b60405163fdd5205f60e01b8152306004820152602481018490526001600160a01b03919091169063fdd5205f90604401602060405180830381865afa158015611452573d6000803e3d6000fd5b505050506040513d601f19601f820116820180604052508101906114769190614fda565b90506114cc60008054906101000a90046001600160a01b03166001600160a01b031663d09edf316040518163ffffffff1660e01b8152600401602060405180830381865afa158015610a11573d6000803e3d6000fd5b60008054906101000a90046001600160a01b03166001600160a01b031663d09edf316040518163ffffffff1660e01b8152600401602060405180830381865afa15801561151d573d6000803e3d6000fd5b505050506040513d601f19601f820116820180604052508101906115419190614fbd565b60405163385e205560e21b8152600481018690526001600160a01b038581166024830152919091169063e1788154906044015b600060405180830381600087803b15801561158e57600080fd5b505af11580156115a2573d6000803e3d6000fd5b5050505050505050565b6115b4612fbc565b6115cb828261103160d6546001600160a01b031690565b816001600160a01b03167fe88292c5f714100904272672c0420345093bd0e3c5555d31f3e4e2cf5f6ca8a18260405161160691815260200190565b60405180910390a25050565b60606038805480602002602001604051908101604052809291908181526020016000905b828210156116ac5760008481526020908190206040805160c0810182526006860290920180546001600160a01b0390811684526001808301549091168486015260028201549284019290925260038101546060840152600481015460808401526005015460a08301529083529092019101611636565b50505050905090565b600061180e60016040518060a00160405290816000820154815260200160018201548152602001600282015481526020016003820180546116f59061504b565b80601f01602080910402602001604051908101604052809291908181526020018280546117219061504b565b801561176e5780601f106117435761010080835404028352916020019161176e565b820191906000526020600020905b81548152906001019060200180831161175157829003601f168201915b505050505081526020016004820180546117879061504b565b80601f01602080910402602001604051908101604052809291908181526020018280546117b39061504b565b80156118005780601f106117d557610100808354040283529160200191611800565b820191906000526020600020905b8154815290600101906020018083116117e357829003601f168201915b5050505050815250506130df565b905090565b60008060009054906101000a90046001600160a01b03166001600160a01b0316637da0a8776040518163ffffffff1660e01b8152600401602060405180830381865afa158015611867573d6000803e3d6000fd5b505050506040513d601f19601f8201168201806040525081019061180e9190614fbd565b6000546040805163d09edf3160e01b815290516118d6926001600160a01b03169163d09edf319160048083019260209291908290030181865afa1580156107af573d6000803e3d6000fd5b60dc805460ff1916911515919091179055565b6000546040805163d09edf3160e01b81529051611934926001600160a01b03169163d09edf319160048083019260209291908290030181865afa1580156107af573d6000803e3d6000fd5b60d7548111156119655760d75460405163960983cd60e01b8152610872918391600401918252602082015260400190565b6108848161311f565b6d57484954454c4953545f524f4c4560901b6119d460008054906101000a90046001600160a01b03166001600160a01b031663d09edf316040518163ffffffff1660e01b8152600401602060405180830381865afa15801561117e573d6000803e3d6000fd5b60dc5460ff16156119f857604051635efada0360e01b815260040160405180910390fd5b611a0061316a565b611a0b848484613194565b50505050565b611a21611a1c6128f5565b6131b1565b611a3e5760405163e4597a6b60e01b815260040160405180910390fd5b6001600160a01b03821660009081526039602052604081208054839290611a6690849061509b565b90915550505050565b7ff0c57e16840df040f15088dc2f81fe391c3923bec73e23a9662efc9c229c6a00805468010000000000000000810460ff16159067ffffffffffffffff16600081158015611aba5750825b905060008267ffffffffffffffff166001148015611ad75750303b155b905081158015611ae5575080155b15611b035760405163f92ee8a960e01b815260040160405180910390fd5b845467ffffffffffffffff191660011785558315611b3757845468ff00000000000000001916680100000000000000001785555b611b418888613231565b6000806000806000806000808d806020019051810190611b6191906150e7565b975097509750975097509750975097508560d660006101000a8154816001600160a01b0302191690836001600160a01b0316021790555060d660009054906101000a90046001600160a01b03166001600160a01b031663313ce5676040518163ffffffff1660e01b8152600401602060405180830381865afa158015611beb573d6000803e3d6000fd5b505050506040513d601f19601f82011682018060405250810190611c0f9190615170565b60d660156101000a81548160ff021916908360ff160217905550611c328761331f565b81851115611c5d5760405163960983cd60e01b81526004810186905260248101839052604401610872565b82841115611c885760405163960983cd60e01b81526004810185905260248101849052604401610872565b611c9188612aa9565b611c9a85612a5e565b611ca38461311f565b611cac8260d855565b611cb58360d755565b611cbe8161188b565b505050505050505083156115a257845468ff000000000000000019168555604051600181527fc7f505b2f371ae2175ee4913f4499e1f2633a7b5936321eed1cdaeb6115181d29060200160405180910390a15050505050505050565b6000546040805163d09edf3160e01b81529051611d65926001600160a01b03169163d09edf319160048083019260209291908290030181865afa1580156107af573d6000803e3d6000fd5b60a1805460ff191690556040517fc34ae80cb7f967a799992108cfbc90770413d60555d5b0587a4c2c3e69c79ca490600090a1565b600080546040805163d09edf3160e01b815290518593926001600160a01b03169163d09edf319160048083019260209291908290030181865afa158015611de5573d6000803e3d6000fd5b505050506040513d601f19601f82011682018060405250810190611e099190614fbd565b60405163fdd5205f60e01b8152306004820152602481018490526001600160a01b03919091169063fdd5205f90604401602060405180830381865afa158015611e56573d6000803e3d6000fd5b505050506040513d601f19601f82011682018060405250810190611e7a9190614fda565b9050611ed060008054906101000a90046001600160a01b03166001600160a01b031663d09edf316040518163ffffffff1660e01b8152600401602060405180830381865afa158015610a11573d6000803e3d6000fd5b60008054906101000a90046001600160a01b03166001600160a01b031663d09edf316040518163ffffffff1660e01b8152600401602060405180830381865afa158015611f21573d6000803e3d6000fd5b505050506040513d601f19601f82011682018060405250810190611f459190614fbd565b604051632e99be7f60e21b8152600481018690526001600160a01b038581166024830152919091169063ba66f9fc90604401611574565b60d55460408051624c7ad160e51b815290516000926001600160a01b03169163098f5a209160048083019260209291908290030181865afa158015611fc5573d6000803e3d6000fd5b505050506040513d601f19601f8201168201806040525081019061180e9190614fda565b6060806060611ff9611a1c6128f5565b6120165760405163e4597a6b60e01b815260040160405180910390fd5b6038546000808267ffffffffffffffff81111561203557612035614d51565b60405190808252806020026020018201604052801561205e578160200160208202803683370190505b50905060008367ffffffffffffffff81111561207c5761207c614d51565b6040519080825280602002602001820160405280156120a5578160200160208202803683370190505b50905060008467ffffffffffffffff8111156120c3576120c3614d51565b60405190808252806020026020018201604052801561213f57816020015b61212c6040518060c0016040528060006001600160a01b0316815260200160006001600160a01b03168152602001600081526020016000815260200160008152602001600081525090565b8152602001906001900390816120e15790505b50905060005b85811015612319576038818154811061216057612160615193565b60009182526020918290206040805160c081018252600690930290910180546001600160a01b03908116845260018201541693830193909352600283015490820152600382015460608201526004820154608082015260059091015460a082015282518390839081106121d5576121d5615193565b60200260200101819052506000805b8681101561224c578383815181106121fe576121fe615193565b6020026020010151602001516001600160a01b031686828151811061222557612225615193565b60200260200101516001600160a01b031603612244576001915061224c565b6001016121e4565b50806123105782828151811061226457612264615193565b60200260200101516020015185878151811061228257612282615193565b60200260200101906001600160a01b031690816001600160a01b031681525050603960008484815181106122b8576122b8615193565b6020026020010151602001516001600160a01b03166001600160a01b03168152602001908152602001600020548487815181106122f7576122f7615193565b60209081029190910101528561230c816151a9565b9650505b50600101612145565b5061232660386000614a3b565b60008467ffffffffffffffff81111561234157612341614d51565b60405190808252806020026020018201604052801561236a578160200160208202803683370190505b50905060008567ffffffffffffffff81111561238857612388614d51565b6040519080825280602002602001820160405280156123b1578160200160208202803683370190505b50905060005b86811015612497578581815181106123d1576123d1615193565b60200260200101518382815181106123eb576123eb615193565b60200260200101906001600160a01b031690816001600160a01b03168152505084818151811061241d5761241d615193565b602002602001015182828151811061243757612437615193565b60200260200101818152505061246d61244e6128f5565b84838151811061246057612460615193565b60200260200101516133f3565b61248f83828151811061248257612482615193565b6020026020010151613418565b6001016123b7565b509199909850909650945050505050565b6d57484954454c4953545f524f4c4560901b61250e60008054906101000a90046001600160a01b03166001600160a01b031663d09edf316040518163ffffffff1660e01b8152600401602060405180830381865afa15801561117e573d6000803e3d6000fd5b60dc5460ff161561253257604051635efada0360e01b815260040160405180910390fd5b61253a61369e565b6125458484846136c1565b505050505050565b6000546040805163d09edf3160e01b81529051612598926001600160a01b03169163d09edf319160048083019260209291908290030181865afa1580156107af573d6000803e3d6000fd5b606c805460ff60a01b191690556040517f44c1679cca34073ce70fed616f995237808d9599a35669fd39f3afd053e2b9b190600090a1565b6000546040805163d09edf3160e01b8152905161261b926001600160a01b03169163d09edf319160048083019260209291908290030181865afa1580156107af573d6000803e3d6000fd5b606c805460ff60a01b1916600160a01b1790556040517fe404df37e2f7360b624914a082278de0f9e7da04a61eaab0a8d3d26b52bc0b1990600090a1565b6d57484954454c4953545f524f4c4560901b6126bf60008054906101000a90046001600160a01b03166001600160a01b031663d09edf316040518163ffffffff1660e01b8152600401602060405180830381865afa15801561117e573d6000803e3d6000fd5b6126c761316a565b6126d96126d26128f5565b8484613194565b505050565b6d57484954454c4953545f524f4c4560901b61274460008054906101000a90046001600160a01b03166001600160a01b031663d09edf316040518163ffffffff1660e01b8152600401602060405180830381865afa15801561117e573d6000803e3d6000fd5b61274c61369e565b61275e6127576128f5565b84846136c1565b5050505050565b6000546040805163d09edf3160e01b815290516127b0926001600160a01b03169163d09edf319160048083019260209291908290030181865afa1580156107af573d6000803e3d6000fd5b60a1805460ff191660011790556040517f9d47627df4f01d3bff516199297ca647fe2ea0448c4f2925ef8c16d614a51a7c90600090a1565b8060000361280957604051638bc7e94360e01b815260040160405180910390fd5b6128396128146128f5565b308361282860d6546001600160a01b031690565b6001600160a01b0316929190613959565b6128416128f5565b6001600160a01b03167fcea2aa568570e239e616fd2e9bcf2301307aa1c1c1f355305a87e5cdd46bbc798260405161287b91815260200190565b60405180910390a250565b60d55460408051636650c9c560e01b815290516000926001600160a01b031691636650c9c59160048083019260209291908290030181865afa158015611fc5573d6000803e3d6000fd5b60006001600160e01b031982166306fa99af60e01b148061075e575061075e82613992565b60003660146129033361109a565b801561290f5750808210155b1561293f57600036612921838561509b565b61292c9282906151c2565b612935916151ec565b60601c9250505090565b339250505090565b60008054906101000a90046001600160a01b03166001600160a01b031663d09edf316040518163ffffffff1660e01b8152600401602060405180830381865afa158015612998573d6000803e3d6000fd5b505050506040513d601f19601f820116820180604052508101906129bc9190614fbd565b60405163a883867d60e01b8152600481018490526001600160a01b038381166024830152919091169063a883867d90604401602060405180830381865afa158015612a0b573d6000803e3d6000fd5b505050506040513d601f19601f82011682018060405250810190612a2f91906150ae565b6112f4576040516342abbb7760e01b8152600481018390526001600160a01b0382166024820152604401610872565b612a67816139b7565b606d546040805183815260208101929092527f28e297c7c282931a994191b735b01eaf17558295f761512a7047f4e1b8dc3b0b910160405180910390a1606d55565b60dc5461010090046001600160a01b0316612ad757604051638b7abe6160e01b815260040160405180910390fd5b60dc80546001600160a01b03909216610100027fffffffffffffffffffffff0000000000000000000000000000000000000000ff909216919091179055565b81600003612b3757604051631d67ff5760e11b815260040160405180910390fd5b806000036112f45760405163d8674d0d60e01b815260040160405180910390fd5b600080600080612b67856139da565b94509150612b7485613b35565b9496949550919391925050565b60008080612710612b928587615221565b10612bb0576040516304e0874960e11b815260040160405180910390fd5b8415612bf057612710612bc38688615234565b612bcd919061524b565b915081600003612bf057604051639c43a82560e01b815260040160405180910390fd5b8315612c3057612710612c038588615234565b612c0d919061524b565b905080600003612c3057604051639c43a82560e01b815260040160405180910390fd5b80612c3b838861509b565b612c45919061509b565b925093509350939050565b600080612d4683612c6960d6546001600160a01b031690565b6001600160a01b031663313ce5676040518163ffffffff1660e01b8152600401602060405180830381865afa158015612ca6573d6000803e3d6000fd5b505050506040513d601f19601f82011682018060405250810190612cca9190615170565b606c60009054906101000a90046001600160a01b03166001600160a01b031663313ce5676040518163ffffffff1660e01b8152600401602060405180830381865afa158015612d1d573d6000803e3d6000fd5b505050506040513d601f19601f82011682018060405250810190612d419190615170565b613c4b565b90508060d560009054906101000a90046001600160a01b03166001600160a01b0316636650c9c56040518163ffffffff1660e01b8152600401602060405180830381865afa158015612d9c573d6000803e3d6000fd5b505050506040513d601f19601f82011682018060405250810190612dc09190614fda565b612dca9190615234565b9392505050565b6040516301ffc9a760e01b8152636fdf93e560e01b60048201526001600160a01b038216906301ffc9a790602401602060405180830381865afa158015612e1c573d6000803e3d6000fd5b505050506040513d601f19601f82011682018060405250810190612e4091906150ae565b612e5d5760405163770e43d760e11b815260040160405180910390fd5b60d580546001600160a01b0319166001600160a01b0392909216919091179055565b6001600160a01b0381161580612e9d57506001600160a01b03811630145b156108845760405163364f556160e11b815260040160405180910390fd5b6040516001600160a01b038381166024830152604482018390526126d991859182169063a9059cbb906064015b604051602081830303815290604052915060e01b6020820180516001600160e01b038381831617835250505050613cbd565b6000808260d560009054906101000a90046001600160a01b03166001600160a01b031663098f5a206040518163ffffffff1660e01b8152600401602060405180830381865afa158015612f71573d6000803e3d6000fd5b505050506040513d601f19601f82011682018060405250810190612f959190614fda565b612f9f9190615234565b9050612dca81601260d660159054906101000a900460ff16613c4b565b6000546001600160a01b03166342f6e389612fd56128f5565b6040516001600160e01b031960e084901b1681526001600160a01b039091166004820152602401602060405180830381865afa158015613019573d6000803e3d6000fd5b505050506040513d601f19601f8201168201806040525081019061303d91906150ae565b15806130bf575061304c6128f5565b6040516301ffc9a760e01b815263286309c760e01b60048201526001600160a01b0391909116906301ffc9a790602401602060405180830381865afa158015613099573d6000803e3d6000fd5b505050506040513d601f19601f820116820180604052508101906130bd91906150ae565b155b156130dd57604051631b793e7f60e21b815260040160405180910390fd5b565b60008160000151826060015183608001516040516020016131029392919061526d565b604051602081830303815290604052805190602001209050919050565b613128816139b7565b60a2546040805183815260208101929092527f5bafec153d96f8ef37761b64348732b41a6b477401d244a5070f9f82d689adce910160405180910390a160a255565b606c54600160a01b900460ff166130dd57604051630afe354360e11b815260040160405180910390fd5b61319c61316a565b826131a681612e7f565b612545848484613d20565b6000805460408051631e38d7bf60e31b815290516001600160a01b0380861693169163f1c6bdf89160048083019260209291908290030181865afa1580156131fd573d6000803e3d6000fd5b505050506040513d601f19601f820116820180604052508101906132219190614fbd565b6001600160a01b03161492915050565b613239613f86565b6001600160a01b03821661326057604051637280679360e01b815260040160405180910390fd5b600080546001600160a01b0319166001600160a01b03841617905561328481613fd4565b6132a157604051637511254160e01b815260040160405180910390fd5b805160019081556020820151600255604082015160035560608201518291906004906132cd90826152e0565b50608082015160048201906132e290826152e0565b50905050816001600160a01b03167fd5f3f84c2e1816ce290af84d002663800b02f2985d770cdd335de76fd723b7308260405161160691906153a0565b6000816001600160a01b031663313ce5676040518163ffffffff1660e01b8152600401602060405180830381865afa15801561335f573d6000803e3d6000fd5b505050506040513d601f19601f820116820180604052508101906133839190615170565b606c80546001600160a01b0319166001600160a01b03851690811790915560d6805460ff60a01b1916600160a01b60ff851690810291909117909155604051908152919250907f4e547b7c6b59d324fecdb926aa12300420faf3a7e12a412eb7e0da193bb0d93e90602001611606565b6001600160a01b0381166000818152603960205260409020546112f491908490614034565b6001600160a01b0381166000818152603960205260408082205490516370a0823160e01b81523060048201529092906370a0823190602401602060405180830381865afa15801561346d573d6000803e3d6000fd5b505050506040513d601f19601f820116820180604052508101906134919190614fda565b9050818110156126d95760008054906101000a90046001600160a01b03166001600160a01b03166304baed9e6040518163ffffffff1660e01b8152600401602060405180830381865afa1580156134ec573d6000803e3d6000fd5b505050506040513d601f19601f820116820180604052508101906135109190614fbd565b6001600160a01b031663fc0c546a6040518163ffffffff1660e01b8152600401602060405180830381865afa15801561354d573d6000803e3d6000fd5b505050506040513d601f19601f820116820180604052508101906135719190614fbd565b6001600160a01b0316836001600160a01b03160361367a5760008054906101000a90046001600160a01b03166001600160a01b03166304baed9e6040518163ffffffff1660e01b8152600401602060405180830381865afa1580156135da573d6000803e3d6000fd5b505050506040513d601f19601f820116820180604052508101906135fe9190614fbd565b6001600160a01b031663759cc4b530613617848661509b565b6040516001600160e01b031960e085901b1681526001600160a01b0390921660048301526024820152604401600060405180830381600087803b15801561365d57600080fd5b505af1158015613671573d6000803e3d6000fd5b50505050505050565b6040516346511acb60e11b81526001600160a01b0384166004820152602401610872565b60a15460ff166130dd576040516374d0357560e11b815260040160405180910390fd5b6000806136ce8484612b16565b60408051808201909152601d81527f5f73656c6c4f7264657228616464726573732c75696e742c75696e742900000060209091015260008080806137317f3299ac1e4997da1dd638584692e27ee6e952ca63f8284764a73c592284e1d9e8612b58565b9350935093509350600080600061374a8b856000612b81565b5098508893509050600061375d82612f1a565b905080995061377361376d6128f5565b8d6140c4565b61377d8785614127565b60008060009054906101000a90046001600160a01b03166001600160a01b03166304baed9e6040518163ffffffff1660e01b8152600401602060405180830381865afa1580156137d1573d6000803e3d6000fd5b505050506040513d601f19601f820116820180604052508101906137f59190614fbd565b6001600160a01b031663fc0c546a6040518163ffffffff1660e01b8152600401602060405180830381865afa158015613832573d6000803e3d6000fd5b505050506040513d601f19601f820116820180604052508101906138569190614fbd565b6040516370a0823160e01b81523060048201529091506001600160a01b038216906370a0823190602401602060405180830381865afa15801561389d573d6000803e3d6000fd5b505050506040513d601f19601f820116820180604052508101906138c19190614fda565b606e546138ce9084615221565b11156138ed576040516332dcd2bb60e11b815260040160405180910390fd5b6138fa828860a254612b81565b9096509450915061390c898287614185565b831561391b5761391b846141fa565b8b82101561393c57604051637ac6ada560e01b815260040160405180910390fd5b6139488e8e848d614230565b505050505050505050935093915050565b6040516001600160a01b038481166024830152838116604483015260648201839052611a0b9186918216906323b872dd90608401612ee8565b60006001600160e01b03198216630bbeca6160e01b148061075e575061075e826144f8565b61271081111561088457604051633ef38b5b60e11b815260040160405180910390fd5b600080546040805163030d028960e21b8152905183926001600160a01b031691630c340a249160048083019260209291908290030181865afa158015613a24573d6000803e3d6000fd5b505050506040513d601f19601f82011682018060405250810190613a489190614fbd565b6001600160a01b031663f2d638266040518163ffffffff1660e01b8152600401602060405180830381865afa158015613a85573d6000803e3d6000fd5b505050506040513d601f19601f82011682018060405250810190613aa99190614fbd565b600054604051634d970f5560e11b81526001600160a01b0391821660048201523060248201526001600160e01b031986166044820152911690639b2e1eaa906064015b6040805180830381865afa158015613b08573d6000803e3d6000fd5b505050506040513d601f19601f82011682018060405250810190613b2c91906153f7565b91509150915091565b600080546040805163030d028960e21b8152905183926001600160a01b031691630c340a249160048083019260209291908290030181865afa158015613b7f573d6000803e3d6000fd5b505050506040513d601f19601f82011682018060405250810190613ba39190614fbd565b6001600160a01b031663f2d638266040518163ffffffff1660e01b8152600401602060405180830381865afa158015613be0573d6000803e3d6000fd5b505050506040513d601f19601f82011682018060405250810190613c049190614fbd565b6000546040516304e53bb360e01b81526001600160a01b0391821660048201523060248201526001600160e01b0319861660448201529116906304e53bb390606401613aec565b60008160ff168360ff1603613c61575082612dca565b8160ff168360ff161115613c9a576000613c7b838561541c565b613c8690600a615519565b9050613c92818661524b565b915050612dca565b6000613ca6848461541c565b613cb190600a615519565b9050613c928186615234565b6000613cd26001600160a01b0384168361451d565b90508051600014158015613cf7575080806020019051810190613cf591906150ae565b155b156126d957604051635274afe760e01b81526001600160a01b0384166004820152602401610872565b600080613d2d8484612b16565b60008060009054906101000a90046001600160a01b03166001600160a01b03166304baed9e6040518163ffffffff1660e01b8152600401602060405180830381865afa158015613d81573d6000803e3d6000fd5b505050506040513d601f19601f82011682018060405250810190613da59190614fbd565b6001600160a01b031663fc0c546a6040518163ffffffff1660e01b8152600401602060405180830381865afa158015613de2573d6000803e3d6000fd5b505050506040513d601f19601f82011682018060405250810190613e069190614fbd565b9050613e19613e136128f5565b8661452b565b60408051808201909152601c81527f5f6275794f7264657228616464726573732c75696e742c75696e7429000000006020909101526000808080613e7c7fdb2c93faffa8f98d8bcd55cf740e8ead65ac1699aaf6ee8a00820485fc802af6612b58565b93509350935093506000806000613e968c86606d54612b81565b91945092509050613ea78183615221565b9850613eb4878984614185565b8015613ec357613ec3816141fa565b6000613ece84612c50565b9050809a50613edf81866000612b81565b5093509050613eee8784614127565b8b811015613f0f57604051637ac6ada560e01b815260040160405180910390fd5b613f198e82614556565b8d6001600160a01b03167fd150a324c4fc8346977d1499aa36cac8c85e6af24bf1486022fad77d05f8b19f8e83613f4e6128f5565b6040805193845260208401929092526001600160a01b03169082015260600160405180910390a2505050505050505050935093915050565b7ff0c57e16840df040f15088dc2f81fe391c3923bec73e23a9662efc9c229c6a005468010000000000000000900460ff166130dd57604051631afcd79f60e31b815260040160405180910390fd5b6000816060015151600003613feb57506000919050565b81608001515160000361400057506000919050565b815115801561401157506020820151155b801561401f57506040820151155b1561402c57506000919050565b506001919050565b604080516001600160a01b038416602482015260448082018490528251808303909101815260649091019091526020810180516001600160e01b031663095ea7b360e01b179052614085848261458f565b611a0b576040516001600160a01b038481166024830152600060448301526140ba91869182169063095ea7b390606401612ee8565b611a0b8482613cbd565b606c54604051632770a7eb60e21b81526001600160a01b0384811660048301526024820184905290911690639dc29fac906044015b600060405180830381600087803b15801561411357600080fd5b505af1158015612545573d6000803e3d6000fd5b80156112f45761413682612e7f565b6141408282614556565b6040518181526001600160a01b0383169030907f11a26a26a718a46d85815d79165470744429ab0f3093113929c59c097bbebb9a906020015b60405180910390a35050565b80156126d95761419483612e7f565b6141a86001600160a01b0383168483612ebb565b826001600160a01b0316826001600160a01b03167f81535d361819544361f80ddbe5071aef378a8ecba1c52f2c45fe3335234c4331836040516141ed91815260200190565b60405180910390a3505050565b6040518181527fe80fee25b848daa361e28d2bb55a5631cb9e084202ab3d22e444ceac1c8b320a9060200160405180910390a150565b60da8054906000614240836151a9565b9190505560d9819055508160db600082825461425c9190615221565b909155506000905061426e828461509b565b905060006040518060c001604052806142856128f5565b6001600160a01b031681526020016142a560d6546001600160a01b031690565b6001600160a01b03168152602001858152602001428152602001600081526020014281525090506142d581614637565b60008054906101000a90046001600160a01b03166001600160a01b031663f1c6bdf86040518163ffffffff1660e01b8152600401602060405180830381865afa158015614326573d6000803e3d6000fd5b505050506040513d601f19601f8201168201806040525081019061434a9190614fbd565b60405163e151fc6160e01b81523060048201526001600160a01b03919091169063e151fc6190602401600060405180830381600087803b15801561438d57600080fd5b505af11580156143a1573d6000803e3d6000fd5b50505050856001600160a01b03166143b76128f5565b6001600160a01b031660d9547f18df22c803b4d40ce64b29b435886837b6a7b99ed0de6b8ec6ec28ed4bb877dd8860d560009054906101000a90046001600160a01b03166001600160a01b031663098f5a206040518163ffffffff1660e01b8152600401602060405180830381865afa158015614438573d6000803e3d6000fd5b505050506040513d601f19601f8201168201806040525081019061445c9190614fda565b8960a2548a8a61447460d6546001600160a01b031690565b42600260405161448c99989796959493929190615528565b60405180910390a4856001600160a01b03167f7debc712939ce2028bbca7ca90cc85e8fb59a7772e041423d3ec1588af4730ed86866144c96128f5565b6040805193845260208401929092526001600160a01b03169082015260600160405180910390a2505050505050565b60006001600160e01b0319821663286309c760e01b148061075e575061075e826147ec565b6060612dca83836000614821565b60dc546112f49083906001600160a01b03610100909104168361282860d6546001600160a01b031690565b606c546040516340c10f1960e01b81526001600160a01b03848116600483015260248201849052909116906340c10f19906044016140f9565b6000806000846001600160a01b0316846040516145ac91906150cb565b6000604051808303816000865af19150503d80600081146145e9576040519150601f19603f3d011682016040523d82523d6000602084013e6145ee565b606091505b509150915081801561461857508051158061461857508080602001905181019061461891906150ae565b801561462e57506000856001600160a01b03163b115b95945050505050565b80614641816148be565b81604001516039600084602001516001600160a01b03166001600160a01b03168152602001908152602001600020600082825461467e9190615221565b909155505060388054600181018255600091909152825160069091027f38395c5dceade9603479b177b68959049485df8aa97b39f3533039af5f456199810180546001600160a01b039384166001600160a01b0319918216811790925560208601517f38395c5dceade9603479b177b68959049485df8aa97b39f3533039af5f45619a8401805491909516911681179093556040808601517f38395c5dceade9603479b177b68959049485df8aa97b39f3533039af5f45619b840181905560608701517f38395c5dceade9603479b177b68959049485df8aa97b39f3533039af5f45619c85015560808701517f38395c5dceade9603479b177b68959049485df8aa97b39f3533039af5f45619d85015560a08701517f38395c5dceade9603479b177b68959049485df8aa97b39f3533039af5f45619e909401939093555190917f21b8b94494ef1aff6ce0f5f3741800bdb27204fd430c1280b54d4cc653ae6f3a9161417991815260200190565b60006001600160e01b0319821663e328951160e01b148061075e57506301ffc9a760e01b6001600160e01b031983161461075e565b6060814710156148465760405163cd78605960e01b8152306004820152602401610872565b600080856001600160a01b0316848660405161486291906150cb565b60006040518083038185875af1925050503d806000811461489f576040519150601f19603f3d011682016040523d82523d6000602084013e6148a4565b606091505b50915091506148b48683836149b6565b9695505050505050565b6000546001600160a01b03166001600160a01b031663f1c6bdf86040518163ffffffff1660e01b8152600401602060405180830381865afa158015614907573d6000803e3d6000fd5b505050506040513d601f19601f8201168201806040525081019061492b9190614fbd565b6001600160a01b03166308fd683d826040518263ffffffff1660e01b8152600401614956919061559a565b6020604051808303816000875af1158015614975573d6000803e3d6000fd5b505050506040513d601f19601f8201168201806040525081019061499991906150ae565b6108845760405163349a262760e01b815260040160405180910390fd5b6060826149cb576149c682614a12565b612dca565b81511580156149e257506001600160a01b0384163b155b15614a0b57604051639996b31560e01b81526001600160a01b0385166004820152602401610872565b5080612dca565b805115614a225780518082602001fd5b604051630a12f52160e11b815260040160405180910390fd5b508054600082556006029060005260206000209081019061088491905b80821115614a9f5780546001600160a01b03199081168255600182018054909116905560006002820181905560038201819055600482018190556005820155600601614a58565b5090565b600060208284031215614ab557600080fd5b81356001600160e01b031981168114612dca57600080fd5b600060208284031215614adf57600080fd5b5035919050565b6001600160a01b038116811461088457600080fd5b600060208284031215614b0d57600080fd5b8135612dca81614ae6565b600080600060408486031215614b2d57600080fd5b83359250602084013567ffffffffffffffff80821115614b4c57600080fd5b818601915086601f830112614b6057600080fd5b813581811115614b6f57600080fd5b8760208260051b8501011115614b8457600080fd5b6020830194508093505050509250925092565b60005b83811015614bb2578181015183820152602001614b9a565b50506000910152565b60008151808452614bd3816020860160208601614b97565b601f01601f19169290920160200192915050565b602081526000612dca6020830184614bbb565b60008060408385031215614c0d57600080fd5b8235614c1881614ae6565b946020939093013593505050565b60008060408385031215614c3957600080fd5b823591506020830135614c4b81614ae6565b809150509250929050565b60008151808452602080850194506020840160005b83811015614cd357614cc08783516001600160a01b038082511683528060208301511660208401525060408101516040830152606081015160608301526080810151608083015260a081015160a08301525050565b60c0969096019590820190600101614c6b565b509495945050505050565b602081526000612dca6020830184614c56565b801515811461088457600080fd5b600060208284031215614d1157600080fd5b8135612dca81614cf1565b600080600060608486031215614d3157600080fd5b8335614d3c81614ae6565b95602085013595506040909401359392505050565b634e487b7160e01b600052604160045260246000fd5b60405160a0810167ffffffffffffffff81118282101715614d8a57614d8a614d51565b60405290565b600082601f830112614da157600080fd5b813567ffffffffffffffff80821115614dbc57614dbc614d51565b604051601f8301601f19908116603f01168101908282118183101715614de457614de4614d51565b81604052838152866020858801011115614dfd57600080fd5b836020870160208301376000602085830101528094505050505092915050565b600080600060608486031215614e3257600080fd5b8335614e3d81614ae6565b9250602084013567ffffffffffffffff80821115614e5a57600080fd5b9085019060a08288031215614e6e57600080fd5b614e76614d67565b823581526020830135602082015260408301356040820152606083013582811115614ea057600080fd5b614eac89828601614d90565b606083015250608083013582811115614ec457600080fd5b614ed089828601614d90565b60808301525093506040860135915080821115614eec57600080fd5b50614ef986828701614d90565b9150509250925092565b606081526000614f166060830186614c56565b82810360208481019190915285518083528682019282019060005b81811015614f565784516001600160a01b031683529383019391830191600101614f31565b50508481036040860152855180825290820192508186019060005b81811015614f8d57825185529383019391830191600101614f71565b509298975050505050505050565b60008060408385031215614fae57600080fd5b50508035926020909101359150565b600060208284031215614fcf57600080fd5b8151612dca81614ae6565b600060208284031215614fec57600080fd5b5051919050565b83815260406020808301829052908201839052600090849060608401835b8681101561503f57833561502481614ae6565b6001600160a01b031682529282019290820190600101615011565b50979650505050505050565b600181811c9082168061505f57607f821691505b60208210810361507f57634e487b7160e01b600052602260045260246000fd5b50919050565b634e487b7160e01b600052601160045260246000fd5b8181038181111561075e5761075e615085565b6000602082840312156150c057600080fd5b8151612dca81614cf1565b600082516150dd818460208701614b97565b9190910192915050565b600080600080600080600080610100898b03121561510457600080fd5b885161510f81614ae6565b60208a015190985061512081614ae6565b60408a015190975061513181614ae6565b80965050606089015194506080890151935060a0890151925060c0890151915060e089015161515f81614cf1565b809150509295985092959890939650565b60006020828403121561518257600080fd5b815160ff81168114612dca57600080fd5b634e487b7160e01b600052603260045260246000fd5b6000600182016151bb576151bb615085565b5060010190565b600080858511156151d257600080fd5b838611156151df57600080fd5b5050820193919092039150565b6bffffffffffffffffffffffff1981358181169160148510156152195780818660140360031b1b83161692505b505092915050565b8082018082111561075e5761075e615085565b808202811582820484141761075e5761075e615085565b60008261526857634e487b7160e01b600052601260045260246000fd5b500490565b8381526060602082015260006152866060830185614bbb565b82810360408401526148b48185614bbb565b601f8211156126d9576000816000526020600020601f850160051c810160208610156152c15750805b601f850160051c820191505b81811015612545578281556001016152cd565b815167ffffffffffffffff8111156152fa576152fa614d51565b61530e81615308845461504b565b84615298565b602080601f831160018114615343576000841561532b5750858301515b600019600386901b1c1916600185901b178555612545565b600085815260208120601f198616915b8281101561537257888601518255948401946001909101908401615353565b50858210156153905787850151600019600388901b60f8161c191681555b5050505050600190811b01905550565b602081528151602082015260208201516040820152604082015160608201526000606083015160a060808401526153da60c0840182614bbb565b90506080840151601f198483030160a085015261462e8282614bbb565b6000806040838503121561540a57600080fd5b825191506020830151614c4b81614ae6565b60ff828116828216039081111561075e5761075e615085565b600181815b8085111561547057816000190482111561545657615456615085565b8085161561546357918102915b93841c939080029061543a565b509250929050565b6000826154875750600161075e565b816154945750600061075e565b81600181146154aa57600281146154b4576154d0565b600191505061075e565b60ff8411156154c5576154c5615085565b50506001821b61075e565b5060208310610133831016604e8410600b84101617156154f3575081810a61075e565b6154fd8383615435565b806000190482111561551157615511615085565b029392505050565b6000612dca60ff841683615478565b6000610120820190508a82528960208301528860408301528760608301528660808301528560a08301526001600160a01b03851660c08301528360e08301526003831061558557634e487b7160e01b600052602160045260246000fd5b826101008301529a9950505050505050505050565b60c0810161075e82846001600160a01b038082511683528060208301511660208401525060408101516040830152606081015160608301526080810151608083015260a081015160a0830152505056fea2646970667358221220daca34ca5bcb823865fa1f1b29dd52689b5ddfec10043864a718438690741fb164736f6c63430008170033",
    "linkReferences": {}
  },
  "methodIdentifiers": {
    "QUEUE_MANAGER_ROLE()": "b7ae632f",
    "WHITELIST_ROLE()": "7a997ab7",
    "amountPaid(address,uint256)": "b33ec618",
    "buy(uint256,uint256)": "d6febde8",
    "buyFee()": "47062402",
    "buyFor(address,uint256,uint256)": "935b7dbd",
    "buyIsOpen()": "c6829ba2",
    "calculatePurchaseReturn(uint256)": "322d2100",
    "calculateSaleReturn(uint256)": "69fcd4ac",
    "closeBuy()": "c6ab5cdc",
    "closeSell()": "ba83c970",
    "collectPaymentOrders()": "c0231ff6",
    "depositReserve(uint256)": "f42d48a1",
    "executeRedemptionQueue()": "683c9dad",
    "getBuyFee()": "8f818b90",
    "getIsDirectOperationsOnly()": "c35067ed",
    "getIssuanceToken()": "1ca3bc4f",
    "getMaxBuyFee()": "ba360dd4",
    "getMaxProjectSellFee()": "519cdc6f",
    "getNextOrderId()": "8158900b",
    "getOpenRedemptionAmount()": "1835f541",
    "getOrderId()": "a8496426",
    "getProjectTreasury()": "2c2ee2b5",
    "getSellFee()": "289af0d8",
    "getStaticPriceForBuying()": "fa03330c",
    "getStaticPriceForSelling()": "bd098404",
    "grantModuleRole(bytes32,address)": "6c67e807",
    "grantModuleRoleBatched(bytes32,address[])": "272bbd44",
    "identifier()": "7998a1c4",
    "init(address,(uint256,uint256,uint256,string,string),bytes)": "b66a870c",
    "isTrustedForwarder(address)": "572b6c05",
    "openBuy()": "d4a67930",
    "openSell()": "f1eae64a",
    "orchestrator()": "b74795d9",
    "outstandingTokenAmount(address)": "2e84db5f",
    "paymentOrders()": "75fa0b76",
    "projectCollateralFeeCollected()": "cbda8f82",
    "revokeModuleRole(bytes32,address)": "bcb61920",
    "revokeModuleRoleBatched(bytes32,address[])": "24e30270",
    "sell(uint256,uint256)": "d79875eb",
    "sellFee()": "2b14ca56",
    "sellIsOpen()": "9093b01f",
    "sellTo(address,uint256,uint256)": "c5b27dde",
    "setBuyFee(uint256)": "0cc835a3",
    "setIsDirectOperationsOnly(bool)": "844b2d43",
    "setOracleAddress(address)": "4c69c00f",
    "setProjectTreasury(address)": "1e96bb9e",
    "setSellFee(uint256)": "8b4cee08",
    "supportsInterface(bytes4)": "01ffc9a7",
    "title()": "4a79d50c",
    "token()": "fc0c546a",
    "transferOrchestratorToken(address,uint256)": "759cc4b5",
    "trustedForwarder()": "7da0a877",
    "url()": "5600f04f",
    "version()": "54fd4d50",
    "withdrawProjectCollateralFee(address,uint256)": "4f893bba"
  },
  "id": 133
}