{
  "abi": [
    {
      "type": "function",
      "name": "amountPaid",
      "inputs": [
        {
          "name": "token_",
          "type": "address",
          "internalType": "address"
        },
        {
          "name": "amount_",
          "type": "uint256",
          "internalType": "uint256"
        }
      ],
      "outputs": [],
      "stateMutability": "nonpayable"
    },
    {
      "type": "function",
      "name": "buy",
      "inputs": [
        {
          "name": "collateralAmount_",
          "type": "uint256",
          "internalType": "uint256"
        },
        {
          "name": "minAmountOut_",
          "type": "uint256",
          "internalType": "uint256"
        }
      ],
      "outputs": [],
      "stateMutability": "nonpayable"
    },
    {
      "type": "function",
      "name": "buyFee",
      "inputs": [],
      "outputs": [
        {
          "name": "",
          "type": "uint256",
          "internalType": "uint256"
        }
      ],
      "stateMutability": "view"
    },
    {
      "type": "function",
      "name": "buyFor",
      "inputs": [
        {
          "name": "receiver_",
          "type": "address",
          "internalType": "address"
        },
        {
          "name": "depositAmount_",
          "type": "uint256",
          "internalType": "uint256"
        },
        {
          "name": "minAmountOut_",
          "type": "uint256",
          "internalType": "uint256"
        }
      ],
      "outputs": [],
      "stateMutability": "nonpayable"
    },
    {
      "type": "function",
      "name": "buyIsOpen",
      "inputs": [],
      "outputs": [
        {
          "name": "",
          "type": "bool",
          "internalType": "bool"
        }
      ],
      "stateMutability": "view"
    },
    {
      "type": "function",
      "name": "calculatePurchaseReturn",
      "inputs": [
        {
          "name": "_depositAmount",
          "type": "uint256",
          "internalType": "uint256"
        }
      ],
      "outputs": [
        {
          "name": "mintAmount",
          "type": "uint256",
          "internalType": "uint256"
        }
      ],
      "stateMutability": "view"
    },
    {
      "type": "function",
      "name": "calculateSaleReturn",
      "inputs": [
        {
          "name": "_depositAmount",
          "type": "uint256",
          "internalType": "uint256"
        }
      ],
      "outputs": [
        {
          "name": "redeemAmount",
          "type": "uint256",
          "internalType": "uint256"
        }
      ],
      "stateMutability": "view"
    },
    {
      "type": "function",
      "name": "closeBuy",
      "inputs": [],
      "outputs": [],
      "stateMutability": "nonpayable"
    },
    {
      "type": "function",
      "name": "closeSell",
      "inputs": [],
      "outputs": [],
      "stateMutability": "nonpayable"
    },
    {
      "type": "function",
      "name": "collectPaymentOrders",
      "inputs": [],
      "outputs": [
        {
          "name": "paymentOrders_",
          "type": "tuple[]",
          "internalType": "struct IERC20PaymentClientBase_v1.PaymentOrder[]",
          "components": [
            {
              "name": "recipient",
              "type": "address",
              "internalType": "address"
            },
            {
              "name": "paymentToken",
              "type": "address",
              "internalType": "address"
            },
            {
              "name": "amount",
              "type": "uint256",
              "internalType": "uint256"
            },
            {
              "name": "originChainId",
              "type": "uint256",
              "internalType": "uint256"
            },
            {
              "name": "targetChainId",
              "type": "uint256",
              "internalType": "uint256"
            },
            {
              "name": "flags",
              "type": "bytes32",
              "internalType": "bytes32"
            },
            {
              "name": "data",
              "type": "bytes32[]",
              "internalType": "bytes32[]"
            }
          ]
        },
        {
          "name": "tokens_",
          "type": "address[]",
          "internalType": "address[]"
        },
        {
          "name": "totalAmounts_",
          "type": "uint256[]",
          "internalType": "uint256[]"
        }
      ],
      "stateMutability": "nonpayable"
    },
    {
      "type": "function",
      "name": "depositReserve",
      "inputs": [
        {
          "name": "amount_",
          "type": "uint256",
          "internalType": "uint256"
        }
      ],
      "outputs": [],
      "stateMutability": "nonpayable"
    },
    {
      "type": "function",
      "name": "executeRedemptionQueue",
      "inputs": [],
      "outputs": [],
      "stateMutability": "nonpayable"
    },
    {
      "type": "function",
      "name": "getBuyFee",
      "inputs": [],
      "outputs": [
        {
          "name": "buyFee_",
          "type": "uint256",
          "internalType": "uint256"
        }
      ],
      "stateMutability": "view"
    },
    {
      "type": "function",
      "name": "getFlagCount",
      "inputs": [],
      "outputs": [
        {
          "name": "flagCount_",
          "type": "uint8",
          "internalType": "uint8"
        }
      ],
      "stateMutability": "view"
    },
    {
      "type": "function",
      "name": "getFlags",
      "inputs": [],
      "outputs": [
        {
          "name": "flags_",
          "type": "bytes32",
          "internalType": "bytes32"
        }
      ],
      "stateMutability": "view"
    },
    {
      "type": "function",
      "name": "getIsDirectOperationsOnly",
      "inputs": [],
      "outputs": [
        {
          "name": "isDirectOnly_",
          "type": "bool",
          "internalType": "bool"
        }
      ],
      "stateMutability": "view"
    },
    {
      "type": "function",
      "name": "getIssuanceToken",
      "inputs": [],
      "outputs": [
        {
          "name": "",
          "type": "address",
          "internalType": "address"
        }
      ],
      "stateMutability": "view"
    },
    {
      "type": "function",
      "name": "getMaxProjectBuyFee",
      "inputs": [],
      "outputs": [
        {
          "name": "maxProjectBuyFee_",
          "type": "uint256",
          "internalType": "uint256"
        }
      ],
      "stateMutability": "view"
    },
    {
      "type": "function",
      "name": "getMaxProjectSellFee",
      "inputs": [],
      "outputs": [
        {
          "name": "maxProjectSellFee_",
          "type": "uint256",
          "internalType": "uint256"
        }
      ],
      "stateMutability": "view"
    },
    {
      "type": "function",
      "name": "getOpenRedemptionAmount",
      "inputs": [],
      "outputs": [
        {
          "name": "amount_",
          "type": "uint256",
          "internalType": "uint256"
        }
      ],
      "stateMutability": "view"
    },
    {
      "type": "function",
      "name": "getOrderId",
      "inputs": [],
      "outputs": [
        {
          "name": "orderId_",
          "type": "uint256",
          "internalType": "uint256"
        }
      ],
      "stateMutability": "view"
    },
    {
      "type": "function",
      "name": "getProjectTreasury",
      "inputs": [],
      "outputs": [
        {
          "name": "treasury_",
          "type": "address",
          "internalType": "address"
        }
      ],
      "stateMutability": "view"
    },
    {
      "type": "function",
      "name": "getQueueExecutorRole",
      "inputs": [],
      "outputs": [
        {
          "name": "role_",
          "type": "bytes32",
          "internalType": "bytes32"
        }
      ],
      "stateMutability": "pure"
    },
    {
      "type": "function",
      "name": "getQueueExecutorRoleAdmin",
      "inputs": [],
      "outputs": [
        {
          "name": "role_",
          "type": "bytes32",
          "internalType": "bytes32"
        }
      ],
      "stateMutability": "pure"
    },
    {
      "type": "function",
      "name": "getSellFee",
      "inputs": [],
      "outputs": [
        {
          "name": "fee_",
          "type": "uint256",
          "internalType": "uint256"
        }
      ],
      "stateMutability": "view"
    },
    {
      "type": "function",
      "name": "getStaticPriceForBuying",
      "inputs": [],
      "outputs": [
        {
          "name": "buyPrice_",
          "type": "uint256",
          "internalType": "uint256"
        }
      ],
      "stateMutability": "view"
    },
    {
      "type": "function",
      "name": "getStaticPriceForSelling",
      "inputs": [],
      "outputs": [
        {
          "name": "sellPrice_",
          "type": "uint256",
          "internalType": "uint256"
        }
      ],
      "stateMutability": "view"
    },
    {
      "type": "function",
      "name": "getWhitelistRole",
      "inputs": [],
      "outputs": [
        {
          "name": "role_",
          "type": "bytes32",
          "internalType": "bytes32"
        }
      ],
      "stateMutability": "pure"
    },
    {
      "type": "function",
      "name": "getWhitelistRoleAdmin",
      "inputs": [],
      "outputs": [
        {
          "name": "role_",
          "type": "bytes32",
          "internalType": "bytes32"
        }
      ],
      "stateMutability": "pure"
    },
    {
      "type": "function",
      "name": "grantModuleRole",
      "inputs": [
        {
          "name": "role",
          "type": "bytes32",
          "internalType": "bytes32"
        },
        {
          "name": "target",
          "type": "address",
          "internalType": "address"
        }
      ],
      "outputs": [],
      "stateMutability": "nonpayable"
    },
    {
      "type": "function",
      "name": "grantModuleRoleBatched",
      "inputs": [
        {
          "name": "role",
          "type": "bytes32",
          "internalType": "bytes32"
        },
        {
          "name": "targets",
          "type": "address[]",
          "internalType": "address[]"
        }
      ],
      "outputs": [],
      "stateMutability": "nonpayable"
    },
    {
      "type": "function",
      "name": "identifier",
      "inputs": [],
      "outputs": [
        {
          "name": "",
          "type": "bytes32",
          "internalType": "bytes32"
        }
      ],
      "stateMutability": "view"
    },
    {
      "type": "function",
      "name": "init",
      "inputs": [
        {
          "name": "orchestrator_",
          "type": "address",
          "internalType": "contract IOrchestrator_v1"
        },
        {
          "name": "metadata_",
          "type": "tuple",
          "internalType": "struct IModule_v1.Metadata",
          "components": [
            {
              "name": "majorVersion",
              "type": "uint256",
              "internalType": "uint256"
            },
            {
              "name": "minorVersion",
              "type": "uint256",
              "internalType": "uint256"
            },
            {
              "name": "patchVersion",
              "type": "uint256",
              "internalType": "uint256"
            },
            {
              "name": "url",
              "type": "string",
              "internalType": "string"
            },
            {
              "name": "title",
              "type": "string",
              "internalType": "string"
            }
          ]
        },
        {
          "name": "configData_",
          "type": "bytes",
          "internalType": "bytes"
        }
      ],
      "outputs": [],
      "stateMutability": "nonpayable"
    },
    {
      "type": "function",
      "name": "isTrustedForwarder",
      "inputs": [
        {
          "name": "forwarder",
          "type": "address",
          "internalType": "address"
        }
      ],
      "outputs": [
        {
          "name": "",
          "type": "bool",
          "internalType": "bool"
        }
      ],
      "stateMutability": "view"
    },
    {
      "type": "function",
      "name": "openBuy",
      "inputs": [],
      "outputs": [],
      "stateMutability": "nonpayable"
    },
    {
      "type": "function",
      "name": "openSell",
      "inputs": [],
      "outputs": [],
      "stateMutability": "nonpayable"
    },
    {
      "type": "function",
      "name": "orchestrator",
      "inputs": [],
      "outputs": [
        {
          "name": "",
          "type": "address",
          "internalType": "contract IOrchestrator_v1"
        }
      ],
      "stateMutability": "view"
    },
    {
      "type": "function",
      "name": "outstandingTokenAmount",
      "inputs": [
        {
          "name": "token_",
          "type": "address",
          "internalType": "address"
        }
      ],
      "outputs": [
        {
          "name": "total_",
          "type": "uint256",
          "internalType": "uint256"
        }
      ],
      "stateMutability": "view"
    },
    {
      "type": "function",
      "name": "paymentOrders",
      "inputs": [],
      "outputs": [
        {
          "name": "",
          "type": "tuple[]",
          "internalType": "struct IERC20PaymentClientBase_v1.PaymentOrder[]",
          "components": [
            {
              "name": "recipient",
              "type": "address",
              "internalType": "address"
            },
            {
              "name": "paymentToken",
              "type": "address",
              "internalType": "address"
            },
            {
              "name": "amount",
              "type": "uint256",
              "internalType": "uint256"
            },
            {
              "name": "originChainId",
              "type": "uint256",
              "internalType": "uint256"
            },
            {
              "name": "targetChainId",
              "type": "uint256",
              "internalType": "uint256"
            },
            {
              "name": "flags",
              "type": "bytes32",
              "internalType": "bytes32"
            },
            {
              "name": "data",
              "type": "bytes32[]",
              "internalType": "bytes32[]"
            }
          ]
        }
      ],
      "stateMutability": "view"
    },
    {
      "type": "function",
      "name": "projectCollateralFeeCollected",
      "inputs": [],
      "outputs": [
        {
          "name": "",
          "type": "uint256",
          "internalType": "uint256"
        }
      ],
      "stateMutability": "view"
    },
    {
      "type": "function",
      "name": "revokeModuleRole",
      "inputs": [
        {
          "name": "role",
          "type": "bytes32",
          "internalType": "bytes32"
        },
        {
          "name": "target",
          "type": "address",
          "internalType": "address"
        }
      ],
      "outputs": [],
      "stateMutability": "nonpayable"
    },
    {
      "type": "function",
      "name": "revokeModuleRoleBatched",
      "inputs": [
        {
          "name": "role",
          "type": "bytes32",
          "internalType": "bytes32"
        },
        {
          "name": "targets",
          "type": "address[]",
          "internalType": "address[]"
        }
      ],
      "outputs": [],
      "stateMutability": "nonpayable"
    },
    {
      "type": "function",
      "name": "sell",
      "inputs": [
        {
          "name": "depositAmount_",
          "type": "uint256",
          "internalType": "uint256"
        },
        {
          "name": "minAmountOut_",
          "type": "uint256",
          "internalType": "uint256"
        }
      ],
      "outputs": [],
      "stateMutability": "nonpayable"
    },
    {
      "type": "function",
      "name": "sellFee",
      "inputs": [],
      "outputs": [
        {
          "name": "",
          "type": "uint256",
          "internalType": "uint256"
        }
      ],
      "stateMutability": "view"
    },
    {
      "type": "function",
      "name": "sellIsOpen",
      "inputs": [],
      "outputs": [
        {
          "name": "",
          "type": "bool",
          "internalType": "bool"
        }
      ],
      "stateMutability": "view"
    },
    {
      "type": "function",
      "name": "sellTo",
      "inputs": [
        {
          "name": "receiver_",
          "type": "address",
          "internalType": "address"
        },
        {
          "name": "depositAmount_",
          "type": "uint256",
          "internalType": "uint256"
        },
        {
          "name": "minAmountOut_",
          "type": "uint256",
          "internalType": "uint256"
        }
      ],
      "outputs": [],
      "stateMutability": "nonpayable"
    },
    {
      "type": "function",
      "name": "setBuyFee",
      "inputs": [
        {
          "name": "fee_",
          "type": "uint256",
          "internalType": "uint256"
        }
      ],
      "outputs": [],
      "stateMutability": "nonpayable"
    },
    {
      "type": "function",
      "name": "setIsDirectOperationsOnly",
      "inputs": [
        {
          "name": "isDirectOperationsOnly_",
          "type": "bool",
          "internalType": "bool"
        }
      ],
      "outputs": [],
      "stateMutability": "nonpayable"
    },
    {
      "type": "function",
      "name": "setOracleAddress",
      "inputs": [
        {
          "name": "oracle_",
          "type": "address",
          "internalType": "address"
        }
      ],
      "outputs": [],
      "stateMutability": "nonpayable"
    },
    {
      "type": "function",
      "name": "setProjectTreasury",
      "inputs": [
        {
          "name": "projectTreasury_",
          "type": "address",
          "internalType": "address"
        }
      ],
      "outputs": [],
      "stateMutability": "nonpayable"
    },
    {
      "type": "function",
      "name": "setSellFee",
      "inputs": [
        {
          "name": "fee_",
          "type": "uint256",
          "internalType": "uint256"
        }
      ],
      "outputs": [],
      "stateMutability": "nonpayable"
    },
    {
      "type": "function",
      "name": "supportsInterface",
      "inputs": [
        {
          "name": "interfaceId_",
          "type": "bytes4",
          "internalType": "bytes4"
        }
      ],
      "outputs": [
        {
          "name": "isSupported_",
          "type": "bool",
          "internalType": "bool"
        }
      ],
      "stateMutability": "view"
    },
    {
      "type": "function",
      "name": "title",
      "inputs": [],
      "outputs": [
        {
          "name": "",
          "type": "string",
          "internalType": "string"
        }
      ],
      "stateMutability": "view"
    },
    {
      "type": "function",
      "name": "token",
      "inputs": [],
      "outputs": [
        {
          "name": "token_",
          "type": "address",
          "internalType": "contract IERC20"
        }
      ],
      "stateMutability": "view"
    },
    {
      "type": "function",
      "name": "transferOrchestratorToken",
      "inputs": [
        {
          "name": "to_",
          "type": "address",
          "internalType": "address"
        },
        {
          "name": "amount_",
          "type": "uint256",
          "internalType": "uint256"
        }
      ],
      "outputs": [],
      "stateMutability": "nonpayable"
    },
    {
      "type": "function",
      "name": "trustedForwarder",
      "inputs": [],
      "outputs": [
        {
          "name": "",
          "type": "address",
          "internalType": "address"
        }
      ],
      "stateMutability": "view"
    },
    {
      "type": "function",
      "name": "url",
      "inputs": [],
      "outputs": [
        {
          "name": "",
          "type": "string",
          "internalType": "string"
        }
      ],
      "stateMutability": "view"
    },
    {
      "type": "function",
      "name": "version",
      "inputs": [],
      "outputs": [
        {
          "name": "",
          "type": "uint256",
          "internalType": "uint256"
        },
        {
          "name": "",
          "type": "uint256",
          "internalType": "uint256"
        },
        {
          "name": "",
          "type": "uint256",
          "internalType": "uint256"
        }
      ],
      "stateMutability": "view"
    },
    {
      "type": "function",
      "name": "withdrawProjectCollateralFee",
      "inputs": [
        {
          "name": "_receiver",
          "type": "address",
          "internalType": "address"
        },
        {
          "name": "_amount",
          "type": "uint256",
          "internalType": "uint256"
        }
      ],
      "outputs": [],
      "stateMutability": "nonpayable"
    },
    {
      "type": "event",
      "name": "BuyFeeUpdated",
      "inputs": [
        {
          "name": "newBuyFee",
          "type": "uint256",
          "indexed": false,
          "internalType": "uint256"
        },
        {
          "name": "oldBuyFee",
          "type": "uint256",
          "indexed": false,
          "internalType": "uint256"
        }
      ],
      "anonymous": false
    },
    {
      "type": "event",
      "name": "BuyingDisabled",
      "inputs": [],
      "anonymous": false
    },
    {
      "type": "event",
      "name": "BuyingEnabled",
      "inputs": [],
      "anonymous": false
    },
    {
      "type": "event",
      "name": "DirectOperationsOnlyUpdated",
      "inputs": [
        {
          "name": "currentIsDirectOperationFlag_",
          "type": "bool",
          "indexed": true,
          "internalType": "bool"
        },
        {
          "name": "newIsDirectOperationFlag_",
          "type": "bool",
          "indexed": true,
          "internalType": "bool"
        }
      ],
      "anonymous": false
    },
    {
      "type": "event",
      "name": "FlagsSet",
      "inputs": [
        {
          "name": "flagCount",
          "type": "uint8",
          "indexed": false,
          "internalType": "uint8"
        },
        {
          "name": "newFlags",
          "type": "bytes32",
          "indexed": false,
          "internalType": "bytes32"
        }
      ],
      "anonymous": false
    },
    {
      "type": "event",
      "name": "Initialized",
      "inputs": [
        {
          "name": "version",
          "type": "uint64",
          "indexed": false,
          "internalType": "uint64"
        }
      ],
      "anonymous": false
    },
    {
      "type": "event",
      "name": "IssuanceTokenSet",
      "inputs": [
        {
          "name": "issuanceToken",
          "type": "address",
          "indexed": true,
          "internalType": "address"
        },
        {
          "name": "decimals",
          "type": "uint8",
          "indexed": false,
          "internalType": "uint8"
        }
      ],
      "anonymous": false
    },
    {
      "type": "event",
      "name": "ModuleInitialized",
      "inputs": [
        {
          "name": "parentOrchestrator",
          "type": "address",
          "indexed": true,
          "internalType": "address"
        },
        {
          "name": "metadata",
          "type": "tuple",
          "indexed": false,
          "internalType": "struct IModule_v1.Metadata",
          "components": [
            {
              "name": "majorVersion",
              "type": "uint256",
              "internalType": "uint256"
            },
            {
              "name": "minorVersion",
              "type": "uint256",
              "internalType": "uint256"
            },
            {
              "name": "patchVersion",
              "type": "uint256",
              "internalType": "uint256"
            },
            {
              "name": "url",
              "type": "string",
              "internalType": "string"
            },
            {
              "name": "title",
              "type": "string",
              "internalType": "string"
            }
          ]
        }
      ],
      "anonymous": false
    },
    {
      "type": "event",
      "name": "OracleUpdated",
      "inputs": [
        {
          "name": "currentOracle_",
          "type": "address",
          "indexed": true,
          "internalType": "address"
        },
        {
          "name": "newOracle_",
          "type": "address",
          "indexed": true,
          "internalType": "address"
        }
      ],
      "anonymous": false
    },
    {
      "type": "event",
      "name": "OrchestratorTokenSet",
      "inputs": [
        {
          "name": "token",
          "type": "address",
          "indexed": true,
          "internalType": "address"
        },
        {
          "name": "decimals",
          "type": "uint8",
          "indexed": false,
          "internalType": "uint8"
        }
      ],
      "anonymous": false
    },
    {
      "type": "event",
      "name": "PaymentOrderAdded",
      "inputs": [
        {
          "name": "recipient",
          "type": "address",
          "indexed": true,
          "internalType": "address"
        },
        {
          "name": "token",
          "type": "address",
          "indexed": true,
          "internalType": "address"
        },
        {
          "name": "amount",
          "type": "uint256",
          "indexed": false,
          "internalType": "uint256"
        },
        {
          "name": "originChainId",
          "type": "uint256",
          "indexed": false,
          "internalType": "uint256"
        },
        {
          "name": "targetChainId",
          "type": "uint256",
          "indexed": false,
          "internalType": "uint256"
        },
        {
          "name": "flags",
          "type": "bytes32",
          "indexed": false,
          "internalType": "bytes32"
        },
        {
          "name": "data",
          "type": "bytes32[]",
          "indexed": false,
          "internalType": "bytes32[]"
        }
      ],
      "anonymous": false
    },
    {
      "type": "event",
      "name": "ProjectCollateralFeeAdded",
      "inputs": [
        {
          "name": "amount",
          "type": "uint256",
          "indexed": false,
          "internalType": "uint256"
        }
      ],
      "anonymous": false
    },
    {
      "type": "event",
      "name": "ProjectCollateralFeeWithdrawn",
      "inputs": [
        {
          "name": "receiver",
          "type": "address",
          "indexed": false,
          "internalType": "address"
        },
        {
          "name": "amount",
          "type": "uint256",
          "indexed": false,
          "internalType": "uint256"
        }
      ],
      "anonymous": false
    },
    {
      "type": "event",
      "name": "ProjectTreasuryUpdated",
      "inputs": [
        {
          "name": "currentProjectTreasury_",
          "type": "address",
          "indexed": true,
          "internalType": "address"
        },
        {
          "name": "newProjectTreasury_",
          "type": "address",
          "indexed": true,
          "internalType": "address"
        }
      ],
      "anonymous": false
    },
    {
      "type": "event",
      "name": "ProtocolFeeMinted",
      "inputs": [
        {
          "name": "token",
          "type": "address",
          "indexed": true,
          "internalType": "address"
        },
        {
          "name": "treasury",
          "type": "address",
          "indexed": true,
          "internalType": "address"
        },
        {
          "name": "feeAmount",
          "type": "uint256",
          "indexed": false,
          "internalType": "uint256"
        }
      ],
      "anonymous": false
    },
    {
      "type": "event",
      "name": "ProtocolFeeTransferred",
      "inputs": [
        {
          "name": "token",
          "type": "address",
          "indexed": true,
          "internalType": "address"
        },
        {
          "name": "treasury",
          "type": "address",
          "indexed": true,
          "internalType": "address"
        },
        {
          "name": "feeAmount",
          "type": "uint256",
          "indexed": false,
          "internalType": "uint256"
        }
      ],
      "anonymous": false
    },
    {
      "type": "event",
      "name": "RedemptionAmountUpdated",
      "inputs": [
        {
          "name": "_openRedemptionAmount",
          "type": "uint256",
          "indexed": false,
          "internalType": "uint256"
        }
      ],
      "anonymous": false
    },
    {
      "type": "event",
      "name": "RedemptionOrderCreated",
      "inputs": [
        {
          "name": "paymentClient_",
          "type": "address",
          "indexed": true,
          "internalType": "address"
        },
        {
          "name": "orderId_",
          "type": "uint256",
          "indexed": true,
          "internalType": "uint256"
        },
        {
          "name": "seller_",
          "type": "address",
          "indexed": false,
          "internalType": "address"
        },
        {
          "name": "receiver_",
          "type": "address",
          "indexed": true,
          "internalType": "address"
        },
        {
          "name": "sellAmount_",
          "type": "uint256",
          "indexed": false,
          "internalType": "uint256"
        },
        {
          "name": "exchangeRate_",
          "type": "uint256",
          "indexed": false,
          "internalType": "uint256"
        },
        {
          "name": "feePercentage_",
          "type": "uint256",
          "indexed": false,
          "internalType": "uint256"
        },
        {
          "name": "feeAmount_",
          "type": "uint256",
          "indexed": false,
          "internalType": "uint256"
        },
        {
          "name": "finalRedemptionAmount_",
          "type": "uint256",
          "indexed": false,
          "internalType": "uint256"
        },
        {
          "name": "collateralToken_",
          "type": "address",
          "indexed": false,
          "internalType": "address"
        },
        {
          "name": "state_",
          "type": "uint8",
          "indexed": false,
          "internalType": "enum IFM_PC_ExternalPrice_Redeeming_v1.RedemptionState"
        }
      ],
      "anonymous": false
    },
    {
      "type": "event",
      "name": "ReserveDeposited",
      "inputs": [
        {
          "name": "depositor_",
          "type": "address",
          "indexed": true,
          "internalType": "address"
        },
        {
          "name": "amount_",
          "type": "uint256",
          "indexed": false,
          "internalType": "uint256"
        }
      ],
      "anonymous": false
    },
    {
      "type": "event",
      "name": "SellFeeUpdated",
      "inputs": [
        {
          "name": "newSellFee",
          "type": "uint256",
          "indexed": false,
          "internalType": "uint256"
        },
        {
          "name": "oldSellFee",
          "type": "uint256",
          "indexed": false,
          "internalType": "uint256"
        }
      ],
      "anonymous": false
    },
    {
      "type": "event",
      "name": "SellingDisabled",
      "inputs": [],
      "anonymous": false
    },
    {
      "type": "event",
      "name": "SellingEnabled",
      "inputs": [],
      "anonymous": false
    },
    {
      "type": "event",
      "name": "TokenDecimalsUpdated",
      "inputs": [
        {
          "name": "oldDecimals",
          "type": "uint8",
          "indexed": false,
          "internalType": "uint8"
        },
        {
          "name": "newDecimals",
          "type": "uint8",
          "indexed": false,
          "internalType": "uint8"
        }
      ],
      "anonymous": false
    },
    {
      "type": "event",
      "name": "TokensBought",
      "inputs": [
        {
          "name": "receiver",
          "type": "address",
          "indexed": true,
          "internalType": "address"
        },
        {
          "name": "depositAmount",
          "type": "uint256",
          "indexed": false,
          "internalType": "uint256"
        },
        {
          "name": "receivedAmount",
          "type": "uint256",
          "indexed": false,
          "internalType": "uint256"
        },
        {
          "name": "buyer",
          "type": "address",
          "indexed": false,
          "internalType": "address"
        }
      ],
      "anonymous": false
    },
    {
      "type": "event",
      "name": "TokensSold",
      "inputs": [
        {
          "name": "receiver",
          "type": "address",
          "indexed": true,
          "internalType": "address"
        },
        {
          "name": "depositAmount",
          "type": "uint256",
          "indexed": false,
          "internalType": "uint256"
        },
        {
          "name": "receivedAmount",
          "type": "uint256",
          "indexed": false,
          "internalType": "uint256"
        },
        {
          "name": "seller",
          "type": "address",
          "indexed": false,
          "internalType": "address"
        }
      ],
      "anonymous": false
    },
    {
      "type": "event",
      "name": "TransferOrchestratorToken",
      "inputs": [
        {
          "name": "_to",
          "type": "address",
          "indexed": true,
          "internalType": "address"
        },
        {
          "name": "_amount",
          "type": "uint256",
          "indexed": false,
          "internalType": "uint256"
        }
      ],
      "anonymous": false
    },
    {
      "type": "error",
      "name": "AddressEmptyCode",
      "inputs": [
        {
          "name": "target",
          "type": "address",
          "internalType": "address"
        }
      ]
    },
    {
      "type": "error",
      "name": "AddressInsufficientBalance",
      "inputs": [
        {
          "name": "account",
          "type": "address",
          "internalType": "address"
        }
      ]
    },
    {
      "type": "error",
      "name": "FailedInnerCall",
      "inputs": []
    },
    {
      "type": "error",
      "name": "InvalidInitialization",
      "inputs": []
    },
    {
      "type": "error",
      "name": "Module_OrchestratorCallbackFailed",
      "inputs": [
        {
          "name": "funcSig",
          "type": "string",
          "internalType": "string"
        }
      ]
    },
    {
      "type": "error",
      "name": "Module__BondingCurveBase__BuyingFunctionaltiesClosed",
      "inputs": []
    },
    {
      "type": "error",
      "name": "Module__BondingCurveBase__FeeAmountToHigh",
      "inputs": []
    },
    {
      "type": "error",
      "name": "Module__BondingCurveBase__InsufficientOutputAmount",
      "inputs": []
    },
    {
      "type": "error",
      "name": "Module__BondingCurveBase__InvalidDepositAmount",
      "inputs": []
    },
    {
      "type": "error",
      "name": "Module__BondingCurveBase__InvalidFeePercentage",
      "inputs": []
    },
    {
      "type": "error",
      "name": "Module__BondingCurveBase__InvalidMinAmountOut",
      "inputs": []
    },
    {
      "type": "error",
      "name": "Module__BondingCurveBase__InvalidRecipient",
      "inputs": []
    },
    {
      "type": "error",
      "name": "Module__BondingCurveBase__InvalidWithdrawAmount",
      "inputs": []
    },
    {
      "type": "error",
      "name": "Module__BondingCurveBase__TradeAmountTooLow",
      "inputs": []
    },
    {
      "type": "error",
      "name": "Module__CallerNotAuthorized",
      "inputs": [
        {
          "name": "role",
          "type": "bytes32",
          "internalType": "bytes32"
        },
        {
          "name": "caller",
          "type": "address",
          "internalType": "address"
        }
      ]
    },
    {
      "type": "error",
      "name": "Module__ERC20PaymentClientBase__CallerNotAuthorized",
      "inputs": []
    },
    {
      "type": "error",
      "name": "Module__ERC20PaymentClientBase__InsufficientFunds",
      "inputs": [
        {
          "name": "token",
          "type": "address",
          "internalType": "address"
        }
      ]
    },
    {
      "type": "error",
      "name": "Module__ERC20PaymentClientBase__InvalidAmount",
      "inputs": []
    },
    {
      "type": "error",
      "name": "Module__ERC20PaymentClientBase__InvalidPaymentOrder",
      "inputs": []
    },
    {
      "type": "error",
      "name": "Module__ERC20PaymentClientBase__InvalidRecipient",
      "inputs": []
    },
    {
      "type": "error",
      "name": "Module__ERC20PaymentClientBase__InvalidToken",
      "inputs": []
    },
    {
      "type": "error",
      "name": "Module__ERC20PaymentClientBase__MismatchBetweenFlagCountAndArrayLength",
      "inputs": [
        {
          "name": "flagCount",
          "type": "uint8",
          "internalType": "uint8"
        },
        {
          "name": "arrayLength",
          "type": "uint256",
          "internalType": "uint256"
        }
      ]
    },
    {
      "type": "error",
      "name": "Module__ERC20PaymentClientBase__TokenTransferFailed",
      "inputs": []
    },
    {
      "type": "error",
      "name": "Module__ERC20PaymentClientBase_v1__FlagAmountTooHigh",
      "inputs": []
    },
    {
      "type": "error",
      "name": "Module__FM_PC_ExternalPrice_Redeeming_FeeExceedsMaximum",
      "inputs": [
        {
          "name": "fee_",
          "type": "uint256",
          "internalType": "uint256"
        },
        {
          "name": "maxFee_",
          "type": "uint256",
          "internalType": "uint256"
        }
      ]
    },
    {
      "type": "error",
      "name": "Module__FM_PC_ExternalPrice_Redeeming_InvalidAmount",
      "inputs": []
    },
    {
      "type": "error",
      "name": "Module__FM_PC_ExternalPrice_Redeeming_InvalidOracleInterface",
      "inputs": []
    },
    {
      "type": "error",
      "name": "Module__FM_PC_ExternalPrice_Redeeming_InvalidProjectTreasury",
      "inputs": []
    },
    {
      "type": "error",
      "name": "Module__FM_PC_ExternalPrice_Redeeming_QueueExecutionFailed",
      "inputs": []
    },
    {
      "type": "error",
      "name": "Module__FM_PC_ExternalPrice_Redeeming_ThirdPartyOperationsDisabled",
      "inputs": []
    },
    {
      "type": "error",
      "name": "Module__InvalidAddress",
      "inputs": []
    },
    {
      "type": "error",
      "name": "Module__InvalidMetadata",
      "inputs": []
    },
    {
      "type": "error",
      "name": "Module__InvalidOrchestratorAddress",
      "inputs": []
    },
    {
      "type": "error",
      "name": "Module__OnlyCallableByOrchestrator",
      "inputs": []
    },
    {
      "type": "error",
      "name": "Module__OnlyCallableByPaymentClient",
      "inputs": []
    },
    {
      "type": "error",
      "name": "Module__RedeemingBondingCurveBase__InsufficientCollateralForProjectFee",
      "inputs": []
    },
    {
      "type": "error",
      "name": "Module__RedeemingBondingCurveBase__SellingFunctionaltiesClosed",
      "inputs": []
    },
    {
      "type": "error",
      "name": "NotInitializing",
      "inputs": []
    },
    {
      "type": "error",
      "name": "SafeERC20FailedOperation",
      "inputs": [
        {
          "name": "token",
          "type": "address",
          "internalType": "address"
        }
      ]
    }
  ],
  "bytecode": {
    "object": "0x60a060405234801562000010575f80fd5b505f6080526200001f62000025565b620000d9565b7ff0c57e16840df040f15088dc2f81fe391c3923bec73e23a9662efc9c229c6a00805468010000000000000000900460ff1615620000765760405163f92ee8a960e01b815260040160405180910390fd5b80546001600160401b0390811614620000d65780546001600160401b0319166001600160401b0390811782556040519081527fc7f505b2f371ae2175ee4913f4499e1f2633a7b5936321eed1cdaeb6115181d29060200160405180910390a15b50565b6080516155be620000ef5f395f50506155be5ff3fe608060405234801561000f575f80fd5b5060043610610388575f3560e01c80637da0a877116101df578063c35067ed11610109578063d6febde8116100a9578063f42d48a111610079578063f42d48a114610753578063fa03330c14610766578063fc0c546a1461076e578063fc9d2c9d1461077f575f80fd5b8063d6febde81461071d578063d79875eb14610730578063e91b433d14610743578063f1eae64a1461074b575f80fd5b8063c6ab5cdc116100e4578063c6ab5cdc146106ef578063c9582f20146106f7578063cbda8f821461070c578063d4a6793014610715575f80fd5b8063c35067ed146106bd578063c5b27dde146106c8578063c6829ba2146106db575f80fd5b8063b33ec6181161017f578063bcb619201161014f578063bcb6192014610665578063bd09840414610678578063bf58015c14610680578063c0231ff6146106a6575f80fd5b8063b33ec61814610627578063b66a870c1461063a578063b74795d91461064d578063ba83c9701461065d575f80fd5b80638f818b90116101ba5780638f818b90146105f75780639093b01f146105ff578063935b7dbd1461060c578063a84964261461061f575f80fd5b80637da0a877146105c9578063844b2d43146105d15780638b4cee08146105e4575f80fd5b80634c69c00f116102c0578063572b6c05116102605780636cc7149d116102305780636cc7149d14610591578063759cc4b51461059957806375fa0b76146105ac5780637998a1c4146105c1575f80fd5b8063572b6c0514610550578063683c9dad1461056357806369fcd4ac1461056b5780636c67e8071461057e575f80fd5b8063519cdc6f1161029b578063519cdc6f146104f657806352192af6146104fe57806354fd4d50146105245780635600f04f14610548575f80fd5b80634c69c00f146104b95780634f55f014146104cc5780634f893bba146104e3575f80fd5b8063289af0d81161032b5780632e84db5f116103065780632e84db5f14610460578063322d210014610488578063470624021461049b5780634a79d50c146104a4575f80fd5b8063289af0d8146104395780632b14ca56146104415780632c2ee2b51461044a575f80fd5b80631ca3bc4f116103665780631ca3bc4f146103db5780631e96bb9e1461040057806324e3027014610413578063272bbd4414610426575f80fd5b806301ffc9a71461038c5780630cc835a3146103b45780631835f541146103c9575b5f80fd5b61039f61039a366004614a1c565b6107a5565b60405190151581526020015b60405180910390f35b6103c76103c2366004614a43565b6107ea565b005b60da545b6040519081526020016103ab565b606c546001600160a01b03165b6040516001600160a01b0390911681526020016103ab565b6103c761040e366004614a6e565b610908565b6103c7610421366004614a89565b610959565b6103c7610434366004614a89565b610bc8565b60a2546103cd565b6103cd60a25481565b60db5461010090046001600160a01b03166103e8565b6103cd61046e366004614a6e565b6001600160a01b03165f9081526039602052604090205490565b6103cd610496366004614a43565b610d97565b6103cd606d5481565b6104ac610e3a565b6040516103ab9190614b4e565b6103c76104c7366004614a6e565b610ecd565b6d57484954454c4953545f524f4c4560901b6103cd565b6103c76104f1366004614b60565b610f1e565b60d7546103cd565b7f51554555455f4558454355544f525f524f4c45000000000000000000000000006103cd565b600154600254600354604080519384526020840192909252908201526060016103ab565b6104ac6110d8565b61039f61055e366004614a6e565b6110ea565b6103c7611156565b6103cd610579366004614a43565b611318565b6103c761058c366004614b8a565b6113b3565b603b546103cd565b6103c76105a7366004614b60565b6115b9565b6105b461161f565b6040516103ab9190614caf565b6103cd611712565b6103e861186a565b6103c76105df366004614cce565b6118de565b6103c76105f2366004614a43565b61192f565b606d546103cd565b60a15461039f9060ff1681565b6103c761061a366004614ce9565b6119b1565b60d9546103cd565b6103c7610635366004614b60565b611a43565b6103c7610648366004614de1565b611a5a565b5f546001600160a01b03166103e8565b6103c7611d4d565b6103c7610673366004614b8a565b611dc9565b6103cd611fa0565b7f51554555455f4558454355544f525f524f4c455f41444d494e000000000000006103cd565b6106ae61200a565b6040516103ab93929190614ebf565b60db5460ff1661039f565b6103c76106d6366004614ce9565b6124fe565b606c5461039f90600160a01b900460ff1681565b6103c7612590565b603a5460405160ff90911681526020016103ab565b6103cd606e5481565b6103c761260f565b6103c761072b366004614f54565b612694565b6103c761073e366004614f54565b61270e565b60d8546103cd565b6103c7612783565b6103c7610761366004614a43565b612802565b6103cd61289f565b60d6546001600160a01b03166103e8565b7f57484954454c4953545f524f4c455f41444d494e0000000000000000000000006103cd565b5f6001600160e01b03198216630a96509b60e31b14806107d557506001600160e01b0319821663899090df60e01b145b806107e457506107e4826128e6565b92915050565b5f546040805163d09edf3160e01b815290516108c2926001600160a01b03169163d09edf319160048083019260209291908290030181865afa158015610832573d5f803e3d5ffd5b505050506040513d601f19601f820116820180604052508101906108569190614f74565b6001600160a01b031663b3ecf2366040518163ffffffff1660e01b8152600401602060405180830381865afa158015610891573d5f803e3d5ffd5b505050506040513d601f19601f820116820180604052508101906108b59190614f8f565b6108bd61290a565b61295a565b60d8548111156108fc5760d85460405163960983cd60e01b81526108f3918391600401918252602082015260400190565b60405180910390fd5b61090581612a6c565b50565b5f546040805163d09edf3160e01b81529051610950926001600160a01b03169163d09edf319160048083019260209291908290030181865afa158015610832573d5f803e3d5ffd5b61090581612ab7565b5f80546040805163d09edf3160e01b815290518693926001600160a01b03169163d09edf319160048083019260209291908290030181865afa1580156109a1573d5f803e3d5ffd5b505050506040513d601f19601f820116820180604052508101906109c59190614f74565b60405163fdd5205f60e01b8152306004820152602481018490526001600160a01b03919091169063fdd5205f90604401602060405180830381865afa158015610a10573d5f803e3d5ffd5b505050506040513d601f19601f82011682018060405250810190610a349190614f8f565b9050610af35f8054906101000a90046001600160a01b03166001600160a01b031663d09edf316040518163ffffffff1660e01b8152600401602060405180830381865afa158015610a87573d5f803e3d5ffd5b505050506040513d601f19601f82011682018060405250810190610aab9190614f74565b6001600160a01b031663248a9ca3836040518263ffffffff1660e01b8152600401610ad891815260200190565b602060405180830381865afa158015610891573d5f803e3d5ffd5b5f8054906101000a90046001600160a01b03166001600160a01b031663d09edf316040518163ffffffff1660e01b8152600401602060405180830381865afa158015610b41573d5f803e3d5ffd5b505050506040513d601f19601f82011682018060405250810190610b659190614f74565b6001600160a01b0316637d540a648686866040518463ffffffff1660e01b8152600401610b9493929190614fa6565b5f604051808303815f87803b158015610bab575f80fd5b505af1158015610bbd573d5f803e3d5ffd5b505050505050505050565b5f80546040805163d09edf3160e01b815290518693926001600160a01b03169163d09edf319160048083019260209291908290030181865afa158015610c10573d5f803e3d5ffd5b505050506040513d601f19601f82011682018060405250810190610c349190614f74565b60405163fdd5205f60e01b8152306004820152602481018490526001600160a01b03919091169063fdd5205f90604401602060405180830381865afa158015610c7f573d5f803e3d5ffd5b505050506040513d601f19601f82011682018060405250810190610ca39190614f8f565b9050610cf65f8054906101000a90046001600160a01b03166001600160a01b031663d09edf316040518163ffffffff1660e01b8152600401602060405180830381865afa158015610a87573d5f803e3d5ffd5b5f8054906101000a90046001600160a01b03166001600160a01b031663d09edf316040518163ffffffff1660e01b8152600401602060405180830381865afa158015610d44573d5f803e3d5ffd5b505050506040513d601f19601f82011682018060405250810190610d689190614f74565b6001600160a01b031663648154538686866040518463ffffffff1660e01b8152600401610b9493929190614fa6565b5f610da3826001612b5b565b60408051808201909152601c81527f5f6275794f7264657228616464726573732c75696e742c75696e7429000000006020909101525f80610e037fdb2c93faffa8f98d8bcd55cf740e8ead65ac1699aaf6ee8a00820485fc802af6612b9b565b935093505050610e168483606d54612bc2565b50909450610e2f9050610e2885612c8e565b825f612bc2565b509095945050505050565b606060016004018054610e4c90614ffd565b80601f0160208091040260200160405190810160405280929190818152602001828054610e7890614ffd565b8015610ec35780601f10610e9a57610100808354040283529160200191610ec3565b820191905f5260205f20905b815481529060010190602001808311610ea657829003601f168201915b5050505050905090565b5f546040805163d09edf3160e01b81529051610f15926001600160a01b03169163d09edf319160048083019260209291908290030181865afa158015610832573d5f803e3d5ffd5b61090581612d45565b81610f2881612e2a565b5f546040805163d09edf3160e01b81529051610f70926001600160a01b03169163d09edf319160048083019260209291908290030181865afa158015610832573d5f803e3d5ffd5b606e54821115610f93576040516347d1bcf560e01b815260040160405180910390fd5b81606e5f828254610fa49190615049565b9250508190555061109183835f8054906101000a90046001600160a01b03166001600160a01b03166304baed9e6040518163ffffffff1660e01b8152600401602060405180830381865afa158015610ffe573d5f803e3d5ffd5b505050506040513d601f19601f820116820180604052508101906110229190614f74565b6001600160a01b031663fc0c546a6040518163ffffffff1660e01b8152600401602060405180830381865afa15801561105d573d5f803e3d5ffd5b505050506040513d601f19601f820116820180604052508101906110819190614f74565b6001600160a01b03169190612e66565b604080516001600160a01b0385168152602081018490527f9e9a785b42ae3ce89ea11b526c656a7cacbd520b83908336dc8c9f4e9be9135f910160405180910390a1505050565b606060016003018054610e4c90614ffd565b5f805460405163572b6c0560e01b81526001600160a01b0384811660048301529091169063572b6c0590602401602060405180830381865afa158015611132573d5f803e3d5ffd5b505050506040513d601f19601f820116820180604052508101906107e4919061505c565b7f51554555455f4558454355544f525f524f4c45000000000000000000000000006112215f8054906101000a90046001600160a01b03166001600160a01b031663d09edf316040518163ffffffff1660e01b8152600401602060405180830381865afa1580156111c8573d5f803e3d5ffd5b505050506040513d601f19601f820116820180604052508101906111ec9190614f74565b60405163fdd5205f60e01b8152306004820152602481018490526001600160a01b03919091169063fdd5205f90604401610ad8565b5f8054906101000a90046001600160a01b03166001600160a01b031663f1c6bdf86040518163ffffffff1660e01b8152600401602060405180830381865afa15801561126f573d5f803e3d5ffd5b505050506040513d601f19601f820116820180604052508101906112939190614f74565b60408051600481526024810182526020810180516001600160e01b031663683c9dad60e01b17905290516001600160a01b0392909216916112d49190615077565b5f604051808303815f865af19150503d805f811461130d576040519150601f19603f3d011682016040523d82523d5f602084013e611312565b606091505b50505050565b5f611324826001612b5b565b60408051808201909152601d81527f5f73656c6c4f7264657228616464726573732c75696e742c75696e74290000006020909101525f806113847f3299ac1e4997da1dd638584692e27ee6e952ca63f8284764a73c592284e1d9e8612b9b565b93509350505061139584825f612bc2565b509094506113a4905084612ec5565b9250610e2f838360a254612bc2565b5f80546040805163d09edf3160e01b815290518593926001600160a01b03169163d09edf319160048083019260209291908290030181865afa1580156113fb573d5f803e3d5ffd5b505050506040513d601f19601f8201168201806040525081019061141f9190614f74565b60405163fdd5205f60e01b8152306004820152602481018490526001600160a01b03919091169063fdd5205f90604401602060405180830381865afa15801561146a573d5f803e3d5ffd5b505050506040513d601f19601f8201168201806040525081019061148e9190614f8f565b90506114e15f8054906101000a90046001600160a01b03166001600160a01b031663d09edf316040518163ffffffff1660e01b8152600401602060405180830381865afa158015610a87573d5f803e3d5ffd5b5f8054906101000a90046001600160a01b03166001600160a01b031663d09edf316040518163ffffffff1660e01b8152600401602060405180830381865afa15801561152f573d5f803e3d5ffd5b505050506040513d601f19601f820116820180604052508101906115539190614f74565b60405163385e205560e21b8152600481018690526001600160a01b038581166024830152919091169063e1788154906044015b5f604051808303815f87803b15801561159d575f80fd5b505af11580156115af573d5f803e3d5ffd5b5050505050505050565b6115c1612f90565b6115d8828261108160d6546001600160a01b031690565b816001600160a01b03167fe88292c5f714100904272672c0420345093bd0e3c5555d31f3e4e2cf5f6ca8a18260405161161391815260200190565b60405180910390a25050565b60606038805480602002602001604051908101604052809291908181526020015f905b82821015611709575f8481526020908190206040805160e0810182526007860290920180546001600160a01b039081168452600182015416838501526002810154838301526003810154606084015260048101546080840152600581015460a08401526006810180548351818702810187019094528084529394919360c0860193928301828280156116f157602002820191905f5260205f20905b8154815260200190600101908083116116dd575b50505050508152505081526020019060010190611642565b50505050905090565b5f61186560016040518060a00160405290815f8201548152602001600182015481526020016002820154815260200160038201805461175090614ffd565b80601f016020809104026020016040519081016040528092919081815260200182805461177c90614ffd565b80156117c75780601f1061179e576101008083540402835291602001916117c7565b820191905f5260205f20905b8154815290600101906020018083116117aa57829003601f168201915b505050505081526020016004820180546117e090614ffd565b80601f016020809104026020016040519081016040528092919081815260200182805461180c90614ffd565b80156118575780601f1061182e57610100808354040283529160200191611857565b820191905f5260205f20905b81548152906001019060200180831161183a57829003601f168201915b5050505050815250506130ae565b905090565b5f805f9054906101000a90046001600160a01b03166001600160a01b0316637da0a8776040518163ffffffff1660e01b8152600401602060405180830381865afa1580156118ba573d5f803e3d5ffd5b505050506040513d601f19601f820116820180604052508101906118659190614f74565b5f546040805163d09edf3160e01b81529051611926926001600160a01b03169163d09edf319160048083019260209291908290030181865afa158015610832573d5f803e3d5ffd5b610905816130ec565b5f546040805163d09edf3160e01b81529051611977926001600160a01b03169163d09edf319160048083019260209291908290030181865afa158015610832573d5f803e3d5ffd5b60d7548111156119a85760d75460405163960983cd60e01b81526108f3918391600401918252602082015260400190565b61090581613134565b6d57484954454c4953545f524f4c4560901b611a145f8054906101000a90046001600160a01b03166001600160a01b031663d09edf316040518163ffffffff1660e01b8152600401602060405180830381865afa1580156111c8573d5f803e3d5ffd5b60db5460ff1615611a3857604051635efada0360e01b815260040160405180910390fd5b61131284848461317f565b611a4c816131a4565b611a5682826131f4565b5050565b7ff0c57e16840df040f15088dc2f81fe391c3923bec73e23a9662efc9c229c6a00805468010000000000000000810460ff16159067ffffffffffffffff165f81158015611aa45750825b90505f8267ffffffffffffffff166001148015611ac05750303b155b905081158015611ace575080155b15611aec5760405163f92ee8a960e01b815260040160405180910390fd5b845467ffffffffffffffff191660011785558315611b2057845468ff00000000000000001916680100000000000000001785555b611b2a888861324c565b5f805f805f805f808d806020019051810190611b469190615092565b975097509750975097509750975097508560d65f6101000a8154816001600160a01b0302191690836001600160a01b0316021790555060d65f9054906101000a90046001600160a01b03166001600160a01b031663313ce5676040518163ffffffff1660e01b8152600401602060405180830381865afa158015611bcc573d5f803e3d5ffd5b505050506040513d601f19601f82011682018060405250810190611bf09190615116565b60d660156101000a81548160ff021916908360ff160217905550611c1387613339565b81851115611c3e5760405163960983cd60e01b815260048101869052602481018390526044016108f3565b82841115611c695760405163960983cd60e01b815260048101859052602481018490526044016108f3565b611c7288612ab7565b611c7b85612a6c565b611c8484613134565b611c8d8260d855565b611c968360d755565b611c9f816130ec565b6040805160018082528183019092525f91602080830190803683370190505090505f815f81518110611cd357611cd3615136565b602002602001019060ff16908160ff1681525050611cf08161340a565b50505050505050505083156115af57845468ff000000000000000019168555604051600181527fc7f505b2f371ae2175ee4913f4499e1f2633a7b5936321eed1cdaeb6115181d29060200160405180910390a15050505050505050565b5f546040805163d09edf3160e01b81529051611d95926001600160a01b03169163d09edf319160048083019260209291908290030181865afa158015610832573d5f803e3d5ffd5b60a1805460ff191690556040517fc34ae80cb7f967a799992108cfbc90770413d60555d5b0587a4c2c3e69c79ca4905f90a1565b5f80546040805163d09edf3160e01b815290518593926001600160a01b03169163d09edf319160048083019260209291908290030181865afa158015611e11573d5f803e3d5ffd5b505050506040513d601f19601f82011682018060405250810190611e359190614f74565b60405163fdd5205f60e01b8152306004820152602481018490526001600160a01b03919091169063fdd5205f90604401602060405180830381865afa158015611e80573d5f803e3d5ffd5b505050506040513d601f19601f82011682018060405250810190611ea49190614f8f565b9050611ef75f8054906101000a90046001600160a01b03166001600160a01b031663d09edf316040518163ffffffff1660e01b8152600401602060405180830381865afa158015610a87573d5f803e3d5ffd5b5f8054906101000a90046001600160a01b03166001600160a01b031663d09edf316040518163ffffffff1660e01b8152600401602060405180830381865afa158015611f45573d5f803e3d5ffd5b505050506040513d601f19601f82011682018060405250810190611f699190614f74565b604051632e99be7f60e21b8152600481018690526001600160a01b038581166024830152919091169063ba66f9fc90604401611586565b60d55460408051624c7ad160e51b815290515f926001600160a01b03169163098f5a209160048083019260209291908290030181865afa158015611fe6573d5f803e3d5ffd5b505050506040513d601f19601f820116820180604052508101906118659190614f8f565b606080606061201f61201a61290a565b61341b565b61203c5760405163e4597a6b60e01b815260040160405180910390fd5b6038545f808267ffffffffffffffff81111561205a5761205a614d1b565b604051908082528060200260200182016040528015612083578160200160208202803683370190505b5090505f8367ffffffffffffffff8111156120a0576120a0614d1b565b6040519080825280602002602001820160405280156120c9578160200160208202803683370190505b5090508367ffffffffffffffff8111156120e5576120e5614d1b565b60405190808252806020026020018201604052801561216557816020015b6121526040518060e001604052805f6001600160a01b031681526020015f6001600160a01b031681526020015f81526020015f81526020015f81526020015f8019168152602001606081525090565b8152602001906001900390816121035790505b5096505f5b84811015612389576038818154811061218557612185615136565b5f9182526020918290206040805160e081018252600790930290910180546001600160a01b039081168452600182015416838501526002810154838301526003810154606084015260048101546080840152600581015460a08401526006810180548351818702810187019094528084529394919360c08601939283018282801561222d57602002820191905f5260205f20905b815481526020019060010190808311612219575b50505050508152505088828151811061224857612248615136565b60200260200101819052505f805b858110156122be5789838151811061227057612270615136565b6020026020010151602001516001600160a01b031685828151811061229757612297615136565b60200260200101516001600160a01b0316036122b657600191506122be565b600101612256565b5080612380578882815181106122d6576122d6615136565b6020026020010151602001518486815181106122f4576122f4615136565b60200260200101906001600160a01b031690816001600160a01b03168152505060395f8a848151811061232957612329615136565b6020026020010151602001516001600160a01b03166001600160a01b031681526020019081526020015f205483868151811061236757612367615136565b60209081029190910101528461237c8161514a565b9550505b5060010161216a565b5061239560385f614930565b8267ffffffffffffffff8111156123ae576123ae614d1b565b6040519080825280602002602001820160405280156123d7578160200160208202803683370190505b5095508267ffffffffffffffff8111156123f3576123f3614d1b565b60405190808252806020026020018201604052801561241c578160200160208202803683370190505b5094505f5b838110156124f45782818151811061243b5761243b615136565b602002602001015187828151811061245557612455615136565b60200260200101906001600160a01b031690816001600160a01b03168152505081818151811061248757612487615136565b60200260200101518682815181106124a1576124a1615136565b6020026020010181815250506124d76124b861290a565b8883815181106124ca576124ca615136565b6020026020010151613498565b6124ec878281518110611a5657611a56615136565b600101612421565b5050505050909192565b6d57484954454c4953545f524f4c4560901b6125615f8054906101000a90046001600160a01b03166001600160a01b031663d09edf316040518163ffffffff1660e01b8152600401602060405180830381865afa1580156111c8573d5f803e3d5ffd5b60db5460ff161561258557604051635efada0360e01b815260040160405180910390fd5b6113128484846134bc565b5f546040805163d09edf3160e01b815290516125d8926001600160a01b03169163d09edf319160048083019260209291908290030181865afa158015610832573d5f803e3d5ffd5b606c805460ff60a01b191690556040517f44c1679cca34073ce70fed616f995237808d9599a35669fd39f3afd053e2b9b1905f90a1565b5f546040805163d09edf3160e01b81529051612657926001600160a01b03169163d09edf319160048083019260209291908290030181865afa158015610832573d5f803e3d5ffd5b606c805460ff60a01b1916600160a01b1790556040517fe404df37e2f7360b624914a082278de0f9e7da04a61eaab0a8d3d26b52bc0b19905f90a1565b6d57484954454c4953545f524f4c4560901b6126f75f8054906101000a90046001600160a01b03166001600160a01b031663d09edf316040518163ffffffff1660e01b8152600401602060405180830381865afa1580156111c8573d5f803e3d5ffd5b61270961270261290a565b848461317f565b505050565b6d57484954454c4953545f524f4c4560901b6127715f8054906101000a90046001600160a01b03166001600160a01b031663d09edf316040518163ffffffff1660e01b8152600401602060405180830381865afa1580156111c8573d5f803e3d5ffd5b61270961277c61290a565b84846134bc565b5f546040805163d09edf3160e01b815290516127cb926001600160a01b03169163d09edf319160048083019260209291908290030181865afa158015610832573d5f803e3d5ffd5b60a1805460ff191660011790556040517f9d47627df4f01d3bff516199297ca647fe2ea0448c4f2925ef8c16d614a51a7c905f90a1565b805f0361282257604051638bc7e94360e01b815260040160405180910390fd5b61285261282d61290a565b308361284160d6546001600160a01b031690565b6001600160a01b03169291906134d9565b61285a61290a565b6001600160a01b03167fcea2aa568570e239e616fd2e9bcf2301307aa1c1c1f355305a87e5cdd46bbc798260405161289491815260200190565b60405180910390a250565b60d55460408051636650c9c560e01b815290515f926001600160a01b031691636650c9c59160048083019260209291908290030181865afa158015611fe6573d5f803e3d5ffd5b5f6001600160e01b031982166306fa99af60e01b14806107e457506107e482613512565b5f366014612917336110ea565b80156129235750808210155b15612952575f366129348385615049565b61293f928290615162565b61294891615189565b60601c9250505090565b339250505090565b5f8054906101000a90046001600160a01b03166001600160a01b031663d09edf316040518163ffffffff1660e01b8152600401602060405180830381865afa1580156129a8573d5f803e3d5ffd5b505050506040513d601f19601f820116820180604052508101906129cc9190614f74565b60405163a883867d60e01b8152600481018490526001600160a01b038381166024830152919091169063a883867d90604401602060405180830381865afa158015612a19573d5f803e3d5ffd5b505050506040513d601f19601f82011682018060405250810190612a3d919061505c565b611a56576040516342abbb7760e01b8152600481018390526001600160a01b03821660248201526044016108f3565b612a7581613536565b606d546040805183815260208101929092527f28e297c7c282931a994191b735b01eaf17558295f761512a7047f4e1b8dc3b0b910160405180910390a1606d55565b6001600160a01b038116612ade57604051638b7abe6160e01b815260040160405180910390fd5b60db546040516001600160a01b0380841692610100900416907fade4ce28bbd5bf468b289f1f7b20eeea5d4caba5abd98d12e3d3ce31c7b3aca7905f90a360db80546001600160a01b03909216610100027fffffffffffffffffffffff0000000000000000000000000000000000000000ff909216919091179055565b815f03612b7b57604051631d67ff5760e11b815260040160405180910390fd5b805f03611a565760405163d8674d0d60e01b815260040160405180910390fd5b5f805f80612ba885613559565b94509150612bb5856136ac565b9496949550919391925050565b5f8080612710612bd285876151be565b10612bf0576040516304e0874960e11b815260040160405180910390fd5b8415612c2f57612710612c0386886151d1565b612c0d91906151e8565b9150815f03612c2f57604051639c43a82560e01b815260040160405180910390fd5b8315612c6e57612710612c4285886151d1565b612c4c91906151e8565b9050805f03612c6e57604051639c43a82560e01b815260040160405180910390fd5b80612c798388615049565b612c839190615049565b925093509350939050565b60d65460d55460408051636650c9c560e01b815290515f93600160a81b900460ff169285926001600160a01b0390911691636650c9c5916004808201926020929091908290030181865afa158015612ce8573d5f803e3d5ffd5b505050506040513d601f19601f82011682018060405250810190612d0c9190614f8f565b612d1691906151d1565b612d2091906151e8565b60d6549091506107e490829060ff600160a81b8204811691600160a01b9004166137bc565b6040516301ffc9a760e01b8152636fdf93e560e01b60048201526001600160a01b038216906301ffc9a790602401602060405180830381865afa158015612d8e573d5f803e3d5ffd5b505050506040513d601f19601f82011682018060405250810190612db2919061505c565b612dcf5760405163770e43d760e11b815260040160405180910390fd5b60d5546040516001600160a01b038084169216907f078c3b417dadf69374a59793b829c52001247130433427049317bde56607b1b7905f90a360d580546001600160a01b0319166001600160a01b0392909216919091179055565b6001600160a01b0381161580612e4857506001600160a01b03811630145b156109055760405163364f556160e11b815260040160405180910390fd5b6040516001600160a01b0383811660248301526044820183905261270991859182169063a9059cbb906064015b604051602081830303815290604052915060e01b6020820180516001600160e01b03838183161783525050505061382b565b60d6545f908190612eeb90849060ff600160a01b8204811691600160a81b9004166137bc565b905060d660159054906101000a900460ff1660ff168160d55f9054906101000a90046001600160a01b03166001600160a01b031663098f5a206040518163ffffffff1660e01b8152600401602060405180830381865afa158015612f51573d5f803e3d5ffd5b505050506040513d601f19601f82011682018060405250810190612f759190614f8f565b612f7f91906151d1565b612f8991906151e8565b9392505050565b5f546001600160a01b03166342f6e389612fa861290a565b6040516001600160e01b031960e084901b1681526001600160a01b039091166004820152602401602060405180830381865afa158015612fea573d5f803e3d5ffd5b505050506040513d601f19601f8201168201806040525081019061300e919061505c565b158061308e575061301d61290a565b6040516301ffc9a760e01b81526346fe193d60e11b60048201526001600160a01b0391909116906301ffc9a790602401602060405180830381865afa158015613068573d5f803e3d5ffd5b505050506040513d601f19601f8201168201806040525081019061308c919061505c565b155b156130ac57604051631b793e7f60e21b815260040160405180910390fd5b565b5f815f0151826060015183608001516040516020016130cf93929190615207565b604051602081830303815290604052805190602001209050919050565b60db546040518215159160ff161515907ffecf51548a8b3e1aca619a99787d167e48e2280e5cd437004492f00926db9d68905f90a360db805460ff1916911515919091179055565b61313d81613536565b60a2546040805183815260208101929092527f5bafec153d96f8ef37761b64348732b41a6b477401d244a5070f9f82d689adce910160405180910390a160a255565b61318761388c565b8261319181612e2a565b61319c8484846138b6565b505050505050565b8060da5f8282546131b59190615049565b909155505060da546040519081527ff49b79b8ace598121d8b2d2e2e89f08850497975163267ca862cf794b6451052906020015b60405180910390a150565b6131ff61201a61290a565b61321c5760405163e4597a6b60e01b815260040160405180910390fd5b6001600160a01b0382165f9081526039602052604081208054839290613243908490615049565b90915550505050565b613254613b10565b6001600160a01b03821661327b57604051637280679360e01b815260040160405180910390fd5b5f80546001600160a01b0319166001600160a01b03841617905561329e81613b5e565b6132bb57604051637511254160e01b815260040160405180910390fd5b805160019081556020820151600255604082015160035560608201518291906004906132e7908261527c565b50608082015160048201906132fc908261527c565b50905050816001600160a01b03167fd5f3f84c2e1816ce290af84d002663800b02f2985d770cdd335de76fd723b730826040516116139190615338565b5f816001600160a01b031663313ce5676040518163ffffffff1660e01b8152600401602060405180830381865afa158015613376573d5f803e3d5ffd5b505050506040513d601f19601f8201168201806040525081019061339a9190615116565b606c80546001600160a01b0319166001600160a01b03851690811790915560d6805460ff60a01b1916600160a01b60ff851690810291909117909155604051908152919250907f4e547b7c6b59d324fecdb926aa12300420faf3a7e12a412eb7e0da193bb0d93e90602001611613565b613412613b10565b61090581613bb8565b5f805460408051631e38d7bf60e31b815290516001600160a01b0380861693169163f1c6bdf89160048083019260209291908290030181865afa158015613464573d5f803e3d5ffd5b505050506040513d601f19601f820116820180604052508101906134889190614f74565b6001600160a01b03161492915050565b6001600160a01b0381165f81815260396020526040902054611a5691908490613c8d565b6134c4613d1c565b826134ce81612e2a565b61319c848484613d3f565b6040516001600160a01b0384811660248301528381166044830152606482018390526113129186918216906323b872dd90608401612e93565b5f6001600160e01b03198216630bbeca6160e01b14806107e457506107e482613f5a565b61271081111561090557604051633ef38b5b60e11b815260040160405180910390fd5b5f80546040805163030d028960e21b8152905183926001600160a01b031691630c340a249160048083019260209291908290030181865afa1580156135a0573d5f803e3d5ffd5b505050506040513d601f19601f820116820180604052508101906135c49190614f74565b6001600160a01b031663f2d638266040518163ffffffff1660e01b8152600401602060405180830381865afa1580156135ff573d5f803e3d5ffd5b505050506040513d601f19601f820116820180604052508101906136239190614f74565b5f54604051634d970f5560e11b81526001600160a01b0391821660048201523060248201526001600160e01b031986166044820152911690639b2e1eaa906064015b6040805180830381865afa15801561367f573d5f803e3d5ffd5b505050506040513d601f19601f820116820180604052508101906136a3919061538e565b91509150915091565b5f80546040805163030d028960e21b8152905183926001600160a01b031691630c340a249160048083019260209291908290030181865afa1580156136f3573d5f803e3d5ffd5b505050506040513d601f19601f820116820180604052508101906137179190614f74565b6001600160a01b031663f2d638266040518163ffffffff1660e01b8152600401602060405180830381865afa158015613752573d5f803e3d5ffd5b505050506040513d601f19601f820116820180604052508101906137769190614f74565b5f546040516304e53bb360e01b81526001600160a01b0391821660048201523060248201526001600160e01b0319861660448201529116906304e53bb390606401613665565b5f8160ff168360ff16036137d1575082612f89565b8160ff168360ff161115613809575f6137ea83856153b1565b6137f590600a6154aa565b905061380181866151e8565b915050612f89565b5f61381484846153b1565b61381f90600a6154aa565b905061380181866151d1565b5f61383f6001600160a01b03841683613f7e565b905080515f14158015613863575080806020019051810190613861919061505c565b155b1561270957604051635274afe760e01b81526001600160a01b03841660048201526024016108f3565b606c54600160a01b900460ff166130ac57604051630afe354360e11b815260040160405180910390fd5b5f806138c28484612b5b565b5f805f9054906101000a90046001600160a01b03166001600160a01b03166304baed9e6040518163ffffffff1660e01b8152600401602060405180830381865afa158015613912573d5f803e3d5ffd5b505050506040513d601f19601f820116820180604052508101906139369190614f74565b6001600160a01b031663fc0c546a6040518163ffffffff1660e01b8152600401602060405180830381865afa158015613971573d5f803e3d5ffd5b505050506040513d601f19601f820116820180604052508101906139959190614f74565b90506139a86139a261290a565b86613f8b565b60408051808201909152601c81527f5f6275794f7264657228616464726573732c75696e742c75696e7429000000006020909101525f808080613a0a7fdb2c93faffa8f98d8bcd55cf740e8ead65ac1699aaf6ee8a00820485fc802af6612b9b565b93509350935093505f805f613a228c86606d54612bc2565b91945092509050613a3381836151be565b9850613a40878984613fb6565b8015613a4f57613a4f8161402b565b5f613a5984612c8e565b9050809a50613a6981865f612bc2565b5093509050613a78878461405b565b8b811015613a9957604051637ac6ada560e01b815260040160405180910390fd5b613aa38e826140b9565b8d6001600160a01b03167fd150a324c4fc8346977d1499aa36cac8c85e6af24bf1486022fad77d05f8b19f8e83613ad861290a565b6040805193845260208401929092526001600160a01b03169082015260600160405180910390a2505050505050505050935093915050565b7ff0c57e16840df040f15088dc2f81fe391c3923bec73e23a9662efc9c229c6a005468010000000000000000900460ff166130ac57604051631afcd79f60e31b815260040160405180910390fd5b5f8160600151515f03613b7257505f919050565b8160800151515f03613b8557505f919050565b8151158015613b9657506020820151155b8015613ba457506040820151155b15613bb057505f919050565b506001919050565b805160ff811115613bdc57604051632a5c5cfb60e11b815260040160405180910390fd5b603a805460ff191660ff83161790555f603b8190555b818160ff161015613c4457828160ff1681518110613c1257613c12615136565b602002602001015160ff166001901b5f1b603b5f82825417925050819055508080613c3c906154b8565b915050613bf2565b50603a54603b546040805160ff909316835260208301919091527f7b463eebcf86a9ecb1c64d88acc3609fe74aaccb569d01b4bb01875b737eda18910160405180910390a15050565b604080516001600160a01b038416602482015260448082018490528251808303909101815260649091019091526020810180516001600160e01b031663095ea7b360e01b179052613cde8482614117565b611312576040516001600160a01b0384811660248301525f6044830152613d1291869182169063095ea7b390606401612e93565b611312848261382b565b60a15460ff166130ac576040516374d0357560e11b815260040160405180910390fd5b5f80613d4b8484612b5b565b60408051808201909152601d81527f5f73656c6c4f7264657228616464726573732c75696e742c75696e74290000006020909101525f808080613dad7f3299ac1e4997da1dd638584692e27ee6e952ca63f8284764a73c592284e1d9e8612b9b565b93509350935093505f805f613dc38b855f612bc2565b50985088935090505f613dd582612ec5565b9050809950613deb613de561290a565b8d6141b8565b613df5878561405b565b5f805f9054906101000a90046001600160a01b03166001600160a01b03166304baed9e6040518163ffffffff1660e01b8152600401602060405180830381865afa158015613e45573d5f803e3d5ffd5b505050506040513d601f19601f82011682018060405250810190613e699190614f74565b6001600160a01b031663fc0c546a6040518163ffffffff1660e01b8152600401602060405180830381865afa158015613ea4573d5f803e3d5ffd5b505050506040513d601f19601f82011682018060405250810190613ec89190614f74565b9050613ed7828860a254612bc2565b90965094509150613ee9898287613fb6565b8315613ef857613ef88461402b565b8b821015613f1957604051637ac6ada560e01b815260040160405180910390fd5b613f258e8e84876141f1565b8d6001600160a01b03167f7debc712939ce2028bbca7ca90cc85e8fb59a7772e041423d3ec1588af4730ed8e84613ad861290a565b5f6001600160e01b031982166346fe193d60e11b14806107e457506107e48261447d565b6060612f8983835f6144b1565b60db54611a569083906001600160a01b03610100909104168361284160d6546001600160a01b031690565b801561270957613fc583612e2a565b613fd96001600160a01b0383168483612e66565b826001600160a01b0316826001600160a01b03167f81535d361819544361f80ddbe5071aef378a8ecba1c52f2c45fe3335234c43318360405161401e91815260200190565b60405180910390a3505050565b6040518181527fe80fee25b848daa361e28d2bb55a5631cb9e084202ab3d22e444ceac1c8b320a906020016131e9565b8015611a565761406a82612e2a565b61407482826140b9565b6040518181526001600160a01b0383169030907f11a26a26a718a46d85815d79165470744429ab0f3093113929c59c097bbebb9a906020015b60405180910390a35050565b606c546040516340c10f1960e01b81526001600160a01b03848116600483015260248201849052909116906340c10f19906044015b5f604051808303815f87803b158015614105575f80fd5b505af115801561319c573d5f803e3d5ffd5b5f805f846001600160a01b0316846040516141329190615077565b5f604051808303815f865af19150503d805f811461416b576040519150601f19603f3d011682016040523d82523d5f602084013e614170565b606091505b509150915081801561419a57508051158061419a57508080602001905181019061419a919061505c565b80156141af57505f856001600160a01b03163b115b95945050505050565b606c54604051632770a7eb60e21b81526001600160a01b0384811660048301526024820184905290911690639dc29fac906044016140ee565b60d95f81546141ff9061514a565b918290555060d9556142108261454a565b6040805160018082528183019092525f9160609183916020808301908036833701905050905060d9545f1b815f8151811061424d5761424d615136565b6020026020010181815250506142628161455b565b8093508194505050505f6040518060e00160405280886001600160a01b0316815260200161429860d6546001600160a01b031690565b6001600160a01b031681526020018681526020014681526020014681526020018481526020018381525090506142cd8161459e565b5f8054906101000a90046001600160a01b03166001600160a01b031663f1c6bdf86040518163ffffffff1660e01b8152600401602060405180830381865afa15801561431b573d5f803e3d5ffd5b505050506040513d601f19601f8201168201806040525081019061433f9190614f74565b60405163e151fc6160e01b81523060048201526001600160a01b03919091169063e151fc61906024015f604051808303815f87803b15801561437f575f80fd5b505af1158015614391573d5f803e3d5ffd5b50505050866001600160a01b031660d954306001600160a01b03167f7c362cfa30757c373749942e54334c60f074f97d6f1bf572f25a4e306536282a6143d561290a565b60d55460408051624c7ad160e51b815290518d926001600160a01b03169163098f5a209160048083019260209291908290030181865afa15801561441b573d5f803e3d5ffd5b505050506040513d601f19601f8201168201806040525081019061443f9190614f8f565b60a2548b8d61445660d6546001600160a01b031690565b600260405161446c9897969594939291906154d6565b60405180910390a450505050505050565b5f6001600160e01b0319821663e328951160e01b14806107e457506301ffc9a760e01b6001600160e01b03198316146107e4565b6060814710156144d65760405163cd78605960e01b81523060048201526024016108f3565b5f80856001600160a01b031684866040516144f19190615077565b5f6040518083038185875af1925050503d805f811461452b576040519150601f19603f3d011682016040523d82523d5f602084013e614530565b606091505b50915091506145408683836147b9565b9695505050505050565b8060da5f8282546131b591906151be565b8051603a545f9160609160ff161461459657603a548351604051630bf3089f60e11b815260ff909216600483015260248201526044016108f3565b5050603b5491565b806145a881614815565b816040015160395f84602001516001600160a01b03166001600160a01b031681526020019081526020015f205f8282546145e291906151be565b9091555050603880546001810182555f9190915282517f38395c5dceade9603479b177b68959049485df8aa97b39f3533039af5f456199600790920291820180546001600160a01b03199081166001600160a01b039384161782556020808701517f38395c5dceade9603479b177b68959049485df8aa97b39f3533039af5f45619a86018054909316941693909317905560408501517f38395c5dceade9603479b177b68959049485df8aa97b39f3533039af5f45619b84015560608501517f38395c5dceade9603479b177b68959049485df8aa97b39f3533039af5f45619c84015560808501517f38395c5dceade9603479b177b68959049485df8aa97b39f3533039af5f45619d84015560a08501517f38395c5dceade9603479b177b68959049485df8aa97b39f3533039af5f45619e84015560c0850151805186949293614750937f38395c5dceade9603479b177b68959049485df8aa97b39f3533039af5f45619f0192019061494e565b50505081602001516001600160a01b0316825f01516001600160a01b03167ff7c0c50e520bf64576a9482cc54780006390b90cee6a1c0bde1adaeb9c0f02f68460400151856060015186608001518760a001518860c001516040516140ad959493929190615541565b6060826147ce576147c982614907565b612f89565b81511580156147e557506001600160a01b0384163b155b1561480e57604051639996b31560e01b81526001600160a01b03851660048201526024016108f3565b5080612f89565b5f546001600160a01b03166001600160a01b031663f1c6bdf86040518163ffffffff1660e01b8152600401602060405180830381865afa15801561485b573d5f803e3d5ffd5b505050506040513d601f19601f8201168201806040525081019061487f9190614f74565b6001600160a01b031663f7698285826040518263ffffffff1660e01b81526004016148aa9190615576565b6020604051808303815f875af11580156148c6573d5f803e3d5ffd5b505050506040513d601f19601f820116820180604052508101906148ea919061505c565b6109055760405163349a262760e01b815260040160405180910390fd5b8051156149175780518082602001fd5b604051630a12f52160e11b815260040160405180910390fd5b5080545f8255600702905f5260205f20908101906109059190614997565b828054828255905f5260205f20908101928215614987579160200282015b8281111561498757825182559160200191906001019061496c565b506149939291506149ed565b5090565b808211156149935780546001600160a01b0319908116825560018201805490911690555f600282018190556003820181905560048201819055600582018190556149e46006830182614a01565b50600701614997565b5b80821115614993575f81556001016149ee565b5080545f8255905f5260205f209081019061090591906149ed565b5f60208284031215614a2c575f80fd5b81356001600160e01b031981168114612f89575f80fd5b5f60208284031215614a53575f80fd5b5035919050565b6001600160a01b0381168114610905575f80fd5b5f60208284031215614a7e575f80fd5b8135612f8981614a5a565b5f805f60408486031215614a9b575f80fd5b83359250602084013567ffffffffffffffff80821115614ab9575f80fd5b818601915086601f830112614acc575f80fd5b813581811115614ada575f80fd5b8760208260051b8501011115614aee575f80fd5b6020830194508093505050509250925092565b5f5b83811015614b1b578181015183820152602001614b03565b50505f910152565b5f8151808452614b3a816020860160208601614b01565b601f01601f19169290920160200192915050565b602081525f612f896020830184614b23565b5f8060408385031215614b71575f80fd5b8235614b7c81614a5a565b946020939093013593505050565b5f8060408385031215614b9b575f80fd5b823591506020830135614bad81614a5a565b809150509250929050565b5f815180845260208085019450602084015f5b83811015614be757815187529582019590820190600101614bcb565b509495945050505050565b5f6001600160a01b038083511684528060208401511660208501525060408201516040840152606082015160608401526080820151608084015260a082015160a084015260c082015160e060c0850152614c4f60e0850182614bb8565b949350505050565b5f8282518085526020808601955060208260051b840101602086015f5b84811015614ca257601f19868403018952614c90838351614bf2565b98840198925090830190600101614c74565b5090979650505050505050565b602081525f612f896020830184614c57565b8015158114610905575f80fd5b5f60208284031215614cde575f80fd5b8135612f8981614cc1565b5f805f60608486031215614cfb575f80fd5b8335614d0681614a5a565b95602085013595506040909401359392505050565b634e487b7160e01b5f52604160045260245ffd5b60405160a0810167ffffffffffffffff81118282101715614d5257614d52614d1b565b60405290565b5f82601f830112614d67575f80fd5b813567ffffffffffffffff80821115614d8257614d82614d1b565b604051601f8301601f19908116603f01168101908282118183101715614daa57614daa614d1b565b81604052838152866020858801011115614dc2575f80fd5b836020870160208301375f602085830101528094505050505092915050565b5f805f60608486031215614df3575f80fd5b8335614dfe81614a5a565b9250602084013567ffffffffffffffff80821115614e1a575f80fd5b9085019060a08288031215614e2d575f80fd5b614e35614d2f565b823581526020830135602082015260408301356040820152606083013582811115614e5e575f80fd5b614e6a89828601614d58565b606083015250608083013582811115614e81575f80fd5b614e8d89828601614d58565b60808301525093506040860135915080821115614ea8575f80fd5b50614eb586828701614d58565b9150509250925092565b606081525f614ed16060830186614c57565b8281036020848101919091528551808352868201928201905f5b81811015614f105784516001600160a01b031683529383019391830191600101614eeb565b5050848103604086015285518082529082019250818601905f5b81811015614f4657825185529383019391830191600101614f2a565b509298975050505050505050565b5f8060408385031215614f65575f80fd5b50508035926020909101359150565b5f60208284031215614f84575f80fd5b8151612f8981614a5a565b5f60208284031215614f9f575f80fd5b5051919050565b838152604060208083018290529082018390525f90849060608401835b86811015614ff1578335614fd681614a5a565b6001600160a01b031682529282019290820190600101614fc3565b50979650505050505050565b600181811c9082168061501157607f821691505b60208210810361502f57634e487b7160e01b5f52602260045260245ffd5b50919050565b634e487b7160e01b5f52601160045260245ffd5b818103818111156107e4576107e4615035565b5f6020828403121561506c575f80fd5b8151612f8981614cc1565b5f8251615088818460208701614b01565b9190910192915050565b5f805f805f805f80610100898b0312156150aa575f80fd5b88516150b581614a5a565b60208a01519098506150c681614a5a565b60408a01519097506150d781614a5a565b80965050606089015194506080890151935060a0890151925060c0890151915060e089015161510581614cc1565b809150509295985092959890939650565b5f60208284031215615126575f80fd5b815160ff81168114612f89575f80fd5b634e487b7160e01b5f52603260045260245ffd5b5f6001820161515b5761515b615035565b5060010190565b5f8085851115615170575f80fd5b8386111561517c575f80fd5b5050820193919092039150565b6bffffffffffffffffffffffff1981358181169160148510156151b65780818660140360031b1b83161692505b505092915050565b808201808211156107e4576107e4615035565b80820281158282048414176107e4576107e4615035565b5f8261520257634e487b7160e01b5f52601260045260245ffd5b500490565b838152606060208201525f61521f6060830185614b23565b82810360408401526145408185614b23565b601f82111561270957805f5260205f20601f840160051c810160208510156152565750805b601f840160051c820191505b81811015615275575f8155600101615262565b5050505050565b815167ffffffffffffffff81111561529657615296614d1b565b6152aa816152a48454614ffd565b84615231565b602080601f8311600181146152dd575f84156152c65750858301515b5f19600386901b1c1916600185901b17855561319c565b5f85815260208120601f198616915b8281101561530b578886015182559484019460019091019084016152ec565b508582101561532857878501515f19600388901b60f8161c191681555b5050505050600190811b01905550565b602081528151602082015260208201516040820152604082015160608201525f606083015160a0608084015261537160c0840182614b23565b90506080840151601f198483030160a08501526141af8282614b23565b5f806040838503121561539f575f80fd5b825191506020830151614bad81614a5a565b60ff82811682821603908111156107e4576107e4615035565b600181815b8085111561540457815f19048211156153ea576153ea615035565b808516156153f757918102915b93841c93908002906153cf565b509250929050565b5f8261541a575060016107e4565b8161542657505f6107e4565b816001811461543c576002811461544657615462565b60019150506107e4565b60ff84111561545757615457615035565b50506001821b6107e4565b5060208310610133831016604e8410600b8410161715615485575081810a6107e4565b61548f83836153ca565b805f19048211156154a2576154a2615035565b029392505050565b5f612f8960ff84168361540c565b5f60ff821660ff81036154cd576154cd615035565b60010192915050565b5f610100820190506001600160a01b03808b1683528960208401528860408401528760608401528660808401528560a084015280851660c0840152506003831061552e57634e487b7160e01b5f52602160045260245ffd5b8260e08301529998505050505050505050565b85815284602082015283604082015282606082015260a060808201525f61556b60a0830184614bb8565b979650505050505050565b602081525f612f896020830184614bf256fea26469706673582212209860a18df69b327467258cb8f934ba0038f32ecfe55da1331529d0154bd3f00064736f6c63430008170033",
    "linkReferences": {}
  },
  "methodIdentifiers": {
    "amountPaid(address,uint256)": "b33ec618",
    "buy(uint256,uint256)": "d6febde8",
    "buyFee()": "47062402",
    "buyFor(address,uint256,uint256)": "935b7dbd",
    "buyIsOpen()": "c6829ba2",
    "calculatePurchaseReturn(uint256)": "322d2100",
    "calculateSaleReturn(uint256)": "69fcd4ac",
    "closeBuy()": "c6ab5cdc",
    "closeSell()": "ba83c970",
    "collectPaymentOrders()": "c0231ff6",
    "depositReserve(uint256)": "f42d48a1",
    "executeRedemptionQueue()": "683c9dad",
    "getBuyFee()": "8f818b90",
    "getFlagCount()": "c9582f20",
    "getFlags()": "6cc7149d",
    "getIsDirectOperationsOnly()": "c35067ed",
    "getIssuanceToken()": "1ca3bc4f",
    "getMaxProjectBuyFee()": "e91b433d",
    "getMaxProjectSellFee()": "519cdc6f",
    "getOpenRedemptionAmount()": "1835f541",
    "getOrderId()": "a8496426",
    "getProjectTreasury()": "2c2ee2b5",
    "getQueueExecutorRole()": "52192af6",
    "getQueueExecutorRoleAdmin()": "bf58015c",
    "getSellFee()": "289af0d8",
    "getStaticPriceForBuying()": "fa03330c",
    "getStaticPriceForSelling()": "bd098404",
    "getWhitelistRole()": "4f55f014",
    "getWhitelistRoleAdmin()": "fc9d2c9d",
    "grantModuleRole(bytes32,address)": "6c67e807",
    "grantModuleRoleBatched(bytes32,address[])": "272bbd44",
    "identifier()": "7998a1c4",
    "init(address,(uint256,uint256,uint256,string,string),bytes)": "b66a870c",
    "isTrustedForwarder(address)": "572b6c05",
    "openBuy()": "d4a67930",
    "openSell()": "f1eae64a",
    "orchestrator()": "b74795d9",
    "outstandingTokenAmount(address)": "2e84db5f",
    "paymentOrders()": "75fa0b76",
    "projectCollateralFeeCollected()": "cbda8f82",
    "revokeModuleRole(bytes32,address)": "bcb61920",
    "revokeModuleRoleBatched(bytes32,address[])": "24e30270",
    "sell(uint256,uint256)": "d79875eb",
    "sellFee()": "2b14ca56",
    "sellIsOpen()": "9093b01f",
    "sellTo(address,uint256,uint256)": "c5b27dde",
    "setBuyFee(uint256)": "0cc835a3",
    "setIsDirectOperationsOnly(bool)": "844b2d43",
    "setOracleAddress(address)": "4c69c00f",
    "setProjectTreasury(address)": "1e96bb9e",
    "setSellFee(uint256)": "8b4cee08",
    "supportsInterface(bytes4)": "01ffc9a7",
    "title()": "4a79d50c",
    "token()": "fc0c546a",
    "transferOrchestratorToken(address,uint256)": "759cc4b5",
    "trustedForwarder()": "7da0a877",
    "url()": "5600f04f",
    "version()": "54fd4d50",
    "withdrawProjectCollateralFee(address,uint256)": "4f893bba"
  },
  "id": 51
}