{
  "abi": [
    {
      "type": "function",
      "name": "QUEUE_MANAGER_ROLE",
      "inputs": [],
      "outputs": [
        {
          "name": "",
          "type": "bytes32",
          "internalType": "bytes32"
        }
      ],
      "stateMutability": "view"
    },
    {
      "type": "function",
      "name": "WHITELIST_ROLE",
      "inputs": [],
      "outputs": [
        {
          "name": "",
          "type": "bytes32",
          "internalType": "bytes32"
        }
      ],
      "stateMutability": "view"
    },
    {
      "type": "function",
      "name": "amountPaid",
      "inputs": [
        {
          "name": "token",
          "type": "address",
          "internalType": "address"
        },
        {
          "name": "amount",
          "type": "uint256",
          "internalType": "uint256"
        }
      ],
      "outputs": [],
      "stateMutability": "nonpayable"
    },
    {
      "type": "function",
      "name": "buy",
      "inputs": [
        {
          "name": "collateralAmount_",
          "type": "uint256",
          "internalType": "uint256"
        },
        {
          "name": "minAmountOut_",
          "type": "uint256",
          "internalType": "uint256"
        }
      ],
      "outputs": [],
      "stateMutability": "nonpayable"
    },
    {
      "type": "function",
      "name": "buyFee",
      "inputs": [],
      "outputs": [
        {
          "name": "",
          "type": "uint256",
          "internalType": "uint256"
        }
      ],
      "stateMutability": "view"
    },
    {
      "type": "function",
      "name": "buyFor",
      "inputs": [
        {
          "name": "receiver_",
          "type": "address",
          "internalType": "address"
        },
        {
          "name": "depositAmount_",
          "type": "uint256",
          "internalType": "uint256"
        },
        {
          "name": "minAmountOut_",
          "type": "uint256",
          "internalType": "uint256"
        }
      ],
      "outputs": [],
      "stateMutability": "nonpayable"
    },
    {
      "type": "function",
      "name": "buyIsOpen",
      "inputs": [],
      "outputs": [
        {
          "name": "",
          "type": "bool",
          "internalType": "bool"
        }
      ],
      "stateMutability": "view"
    },
    {
      "type": "function",
      "name": "calculatePurchaseReturn",
      "inputs": [
        {
          "name": "_depositAmount",
          "type": "uint256",
          "internalType": "uint256"
        }
      ],
      "outputs": [
        {
          "name": "mintAmount",
          "type": "uint256",
          "internalType": "uint256"
        }
      ],
      "stateMutability": "view"
    },
    {
      "type": "function",
      "name": "calculateSaleReturn",
      "inputs": [
        {
          "name": "_depositAmount",
          "type": "uint256",
          "internalType": "uint256"
        }
      ],
      "outputs": [
        {
          "name": "redeemAmount",
          "type": "uint256",
          "internalType": "uint256"
        }
      ],
      "stateMutability": "view"
    },
    {
      "type": "function",
      "name": "closeBuy",
      "inputs": [],
      "outputs": [],
      "stateMutability": "nonpayable"
    },
    {
      "type": "function",
      "name": "closeSell",
      "inputs": [],
      "outputs": [],
      "stateMutability": "nonpayable"
    },
    {
      "type": "function",
      "name": "collectPaymentOrders",
      "inputs": [],
      "outputs": [
        {
          "name": "",
          "type": "tuple[]",
          "internalType": "struct IERC20PaymentClientBase_v1.PaymentOrder[]",
          "components": [
            {
              "name": "recipient",
              "type": "address",
              "internalType": "address"
            },
            {
              "name": "paymentToken",
              "type": "address",
              "internalType": "address"
            },
            {
              "name": "amount",
              "type": "uint256",
              "internalType": "uint256"
            },
            {
              "name": "start",
              "type": "uint256",
              "internalType": "uint256"
            },
            {
              "name": "cliff",
              "type": "uint256",
              "internalType": "uint256"
            },
            {
              "name": "end",
              "type": "uint256",
              "internalType": "uint256"
            }
          ]
        },
        {
          "name": "",
          "type": "address[]",
          "internalType": "address[]"
        },
        {
          "name": "",
          "type": "uint256[]",
          "internalType": "uint256[]"
        }
      ],
      "stateMutability": "nonpayable"
    },
    {
      "type": "function",
      "name": "depositReserve",
      "inputs": [
        {
          "name": "amount_",
          "type": "uint256",
          "internalType": "uint256"
        }
      ],
      "outputs": [],
      "stateMutability": "nonpayable"
    },
    {
      "type": "function",
      "name": "executeRedemptionQueue",
      "inputs": [],
      "outputs": [],
      "stateMutability": "nonpayable"
    },
    {
      "type": "function",
      "name": "getBuyFee",
      "inputs": [],
      "outputs": [
        {
          "name": "buyFee_",
          "type": "uint256",
          "internalType": "uint256"
        }
      ],
      "stateMutability": "pure"
    },
    {
      "type": "function",
      "name": "getIssuanceToken",
      "inputs": [],
      "outputs": [
        {
          "name": "",
          "type": "address",
          "internalType": "address"
        }
      ],
      "stateMutability": "view"
    },
    {
      "type": "function",
      "name": "getMaxBuyFee",
      "inputs": [],
      "outputs": [
        {
          "name": "maxBuyFee_",
          "type": "uint256",
          "internalType": "uint256"
        }
      ],
      "stateMutability": "view"
    },
    {
      "type": "function",
      "name": "getMaxSellFee",
      "inputs": [],
      "outputs": [
        {
          "name": "maxSellFee_",
          "type": "uint256",
          "internalType": "uint256"
        }
      ],
      "stateMutability": "view"
    },
    {
      "type": "function",
      "name": "getNextOrderId",
      "inputs": [],
      "outputs": [
        {
          "name": "orderId_",
          "type": "uint256",
          "internalType": "uint256"
        }
      ],
      "stateMutability": "view"
    },
    {
      "type": "function",
      "name": "getOpenRedemptionAmount",
      "inputs": [],
      "outputs": [
        {
          "name": "amount_",
          "type": "uint256",
          "internalType": "uint256"
        }
      ],
      "stateMutability": "view"
    },
    {
      "type": "function",
      "name": "getOrderId",
      "inputs": [],
      "outputs": [
        {
          "name": "orderId_",
          "type": "uint256",
          "internalType": "uint256"
        }
      ],
      "stateMutability": "view"
    },
    {
      "type": "function",
      "name": "getProjectTreasury",
      "inputs": [],
      "outputs": [
        {
          "name": "",
          "type": "address",
          "internalType": "address"
        }
      ],
      "stateMutability": "view"
    },
    {
      "type": "function",
      "name": "getSellFee",
      "inputs": [],
      "outputs": [
        {
          "name": "sellFee_",
          "type": "uint256",
          "internalType": "uint256"
        }
      ],
      "stateMutability": "pure"
    },
    {
      "type": "function",
      "name": "getStaticPriceForBuying",
      "inputs": [],
      "outputs": [
        {
          "name": "",
          "type": "uint256",
          "internalType": "uint256"
        }
      ],
      "stateMutability": "view"
    },
    {
      "type": "function",
      "name": "getStaticPriceForSelling",
      "inputs": [],
      "outputs": [
        {
          "name": "",
          "type": "uint256",
          "internalType": "uint256"
        }
      ],
      "stateMutability": "view"
    },
    {
      "type": "function",
      "name": "grantModuleRole",
      "inputs": [
        {
          "name": "role",
          "type": "bytes32",
          "internalType": "bytes32"
        },
        {
          "name": "target",
          "type": "address",
          "internalType": "address"
        }
      ],
      "outputs": [],
      "stateMutability": "nonpayable"
    },
    {
      "type": "function",
      "name": "grantModuleRoleBatched",
      "inputs": [
        {
          "name": "role",
          "type": "bytes32",
          "internalType": "bytes32"
        },
        {
          "name": "targets",
          "type": "address[]",
          "internalType": "address[]"
        }
      ],
      "outputs": [],
      "stateMutability": "nonpayable"
    },
    {
      "type": "function",
      "name": "identifier",
      "inputs": [],
      "outputs": [
        {
          "name": "",
          "type": "bytes32",
          "internalType": "bytes32"
        }
      ],
      "stateMutability": "view"
    },
    {
      "type": "function",
      "name": "init",
      "inputs": [
        {
          "name": "orchestrator_",
          "type": "address",
          "internalType": "contract IOrchestrator_v1"
        },
        {
          "name": "metadata_",
          "type": "tuple",
          "internalType": "struct IModule_v1.Metadata",
          "components": [
            {
              "name": "majorVersion",
              "type": "uint256",
              "internalType": "uint256"
            },
            {
              "name": "minorVersion",
              "type": "uint256",
              "internalType": "uint256"
            },
            {
              "name": "patchVersion",
              "type": "uint256",
              "internalType": "uint256"
            },
            {
              "name": "url",
              "type": "string",
              "internalType": "string"
            },
            {
              "name": "title",
              "type": "string",
              "internalType": "string"
            }
          ]
        },
        {
          "name": "configData_",
          "type": "bytes",
          "internalType": "bytes"
        }
      ],
      "outputs": [],
      "stateMutability": "nonpayable"
    },
    {
      "type": "function",
      "name": "isDirectOperationsOnly",
      "inputs": [],
      "outputs": [
        {
          "name": "",
          "type": "bool",
          "internalType": "bool"
        }
      ],
      "stateMutability": "view"
    },
    {
      "type": "function",
      "name": "isTrustedForwarder",
      "inputs": [
        {
          "name": "forwarder",
          "type": "address",
          "internalType": "address"
        }
      ],
      "outputs": [
        {
          "name": "",
          "type": "bool",
          "internalType": "bool"
        }
      ],
      "stateMutability": "view"
    },
    {
      "type": "function",
      "name": "openBuy",
      "inputs": [],
      "outputs": [],
      "stateMutability": "nonpayable"
    },
    {
      "type": "function",
      "name": "openSell",
      "inputs": [],
      "outputs": [],
      "stateMutability": "nonpayable"
    },
    {
      "type": "function",
      "name": "orchestrator",
      "inputs": [],
      "outputs": [
        {
          "name": "",
          "type": "address",
          "internalType": "contract IOrchestrator_v1"
        }
      ],
      "stateMutability": "view"
    },
    {
      "type": "function",
      "name": "outstandingTokenAmount",
      "inputs": [
        {
          "name": "_token",
          "type": "address",
          "internalType": "address"
        }
      ],
      "outputs": [
        {
          "name": "",
          "type": "uint256",
          "internalType": "uint256"
        }
      ],
      "stateMutability": "view"
    },
    {
      "type": "function",
      "name": "paymentOrders",
      "inputs": [],
      "outputs": [
        {
          "name": "",
          "type": "tuple[]",
          "internalType": "struct IERC20PaymentClientBase_v1.PaymentOrder[]",
          "components": [
            {
              "name": "recipient",
              "type": "address",
              "internalType": "address"
            },
            {
              "name": "paymentToken",
              "type": "address",
              "internalType": "address"
            },
            {
              "name": "amount",
              "type": "uint256",
              "internalType": "uint256"
            },
            {
              "name": "start",
              "type": "uint256",
              "internalType": "uint256"
            },
            {
              "name": "cliff",
              "type": "uint256",
              "internalType": "uint256"
            },
            {
              "name": "end",
              "type": "uint256",
              "internalType": "uint256"
            }
          ]
        }
      ],
      "stateMutability": "view"
    },
    {
      "type": "function",
      "name": "projectCollateralFeeCollected",
      "inputs": [],
      "outputs": [
        {
          "name": "",
          "type": "uint256",
          "internalType": "uint256"
        }
      ],
      "stateMutability": "view"
    },
    {
      "type": "function",
      "name": "revokeModuleRole",
      "inputs": [
        {
          "name": "role",
          "type": "bytes32",
          "internalType": "bytes32"
        },
        {
          "name": "target",
          "type": "address",
          "internalType": "address"
        }
      ],
      "outputs": [],
      "stateMutability": "nonpayable"
    },
    {
      "type": "function",
      "name": "revokeModuleRoleBatched",
      "inputs": [
        {
          "name": "role",
          "type": "bytes32",
          "internalType": "bytes32"
        },
        {
          "name": "targets",
          "type": "address[]",
          "internalType": "address[]"
        }
      ],
      "outputs": [],
      "stateMutability": "nonpayable"
    },
    {
      "type": "function",
      "name": "sell",
      "inputs": [
        {
          "name": "depositAmount_",
          "type": "uint256",
          "internalType": "uint256"
        },
        {
          "name": "minAmountOut_",
          "type": "uint256",
          "internalType": "uint256"
        }
      ],
      "outputs": [],
      "stateMutability": "nonpayable"
    },
    {
      "type": "function",
      "name": "sellFee",
      "inputs": [],
      "outputs": [
        {
          "name": "",
          "type": "uint256",
          "internalType": "uint256"
        }
      ],
      "stateMutability": "view"
    },
    {
      "type": "function",
      "name": "sellIsOpen",
      "inputs": [],
      "outputs": [
        {
          "name": "",
          "type": "bool",
          "internalType": "bool"
        }
      ],
      "stateMutability": "view"
    },
    {
      "type": "function",
      "name": "sellTo",
      "inputs": [
        {
          "name": "receiver_",
          "type": "address",
          "internalType": "address"
        },
        {
          "name": "depositAmount_",
          "type": "uint256",
          "internalType": "uint256"
        },
        {
          "name": "minAmountOut_",
          "type": "uint256",
          "internalType": "uint256"
        }
      ],
      "outputs": [],
      "stateMutability": "nonpayable"
    },
    {
      "type": "function",
      "name": "setBuyFee",
      "inputs": [
        {
          "name": "fee_",
          "type": "uint256",
          "internalType": "uint256"
        }
      ],
      "outputs": [],
      "stateMutability": "nonpayable"
    },
    {
      "type": "function",
      "name": "setIsDirectOperationsOnly",
      "inputs": [
        {
          "name": "isDirectOperationsOnly_",
          "type": "bool",
          "internalType": "bool"
        }
      ],
      "outputs": [],
      "stateMutability": "nonpayable"
    },
    {
      "type": "function",
      "name": "setProjectTreasury",
      "inputs": [
        {
          "name": "projectTreasury_",
          "type": "address",
          "internalType": "address"
        }
      ],
      "outputs": [],
      "stateMutability": "nonpayable"
    },
    {
      "type": "function",
      "name": "setSellFee",
      "inputs": [
        {
          "name": "fee_",
          "type": "uint256",
          "internalType": "uint256"
        }
      ],
      "outputs": [],
      "stateMutability": "nonpayable"
    },
    {
      "type": "function",
      "name": "supportsInterface",
      "inputs": [
        {
          "name": "interfaceId_",
          "type": "bytes4",
          "internalType": "bytes4"
        }
      ],
      "outputs": [
        {
          "name": "",
          "type": "bool",
          "internalType": "bool"
        }
      ],
      "stateMutability": "view"
    },
    {
      "type": "function",
      "name": "title",
      "inputs": [],
      "outputs": [
        {
          "name": "",
          "type": "string",
          "internalType": "string"
        }
      ],
      "stateMutability": "view"
    },
    {
      "type": "function",
      "name": "token",
      "inputs": [],
      "outputs": [
        {
          "name": "",
          "type": "address",
          "internalType": "contract IERC20"
        }
      ],
      "stateMutability": "view"
    },
    {
      "type": "function",
      "name": "transferOrchestratorToken",
      "inputs": [
        {
          "name": "to_",
          "type": "address",
          "internalType": "address"
        },
        {
          "name": "amount_",
          "type": "uint256",
          "internalType": "uint256"
        }
      ],
      "outputs": [],
      "stateMutability": "nonpayable"
    },
    {
      "type": "function",
      "name": "trustedForwarder",
      "inputs": [],
      "outputs": [
        {
          "name": "",
          "type": "address",
          "internalType": "address"
        }
      ],
      "stateMutability": "view"
    },
    {
      "type": "function",
      "name": "url",
      "inputs": [],
      "outputs": [
        {
          "name": "",
          "type": "string",
          "internalType": "string"
        }
      ],
      "stateMutability": "view"
    },
    {
      "type": "function",
      "name": "version",
      "inputs": [],
      "outputs": [
        {
          "name": "",
          "type": "uint256",
          "internalType": "uint256"
        },
        {
          "name": "",
          "type": "uint256",
          "internalType": "uint256"
        },
        {
          "name": "",
          "type": "uint256",
          "internalType": "uint256"
        }
      ],
      "stateMutability": "view"
    },
    {
      "type": "function",
      "name": "withdrawProjectCollateralFee",
      "inputs": [
        {
          "name": "_receiver",
          "type": "address",
          "internalType": "address"
        },
        {
          "name": "_amount",
          "type": "uint256",
          "internalType": "uint256"
        }
      ],
      "outputs": [],
      "stateMutability": "nonpayable"
    },
    {
      "type": "event",
      "name": "BuyFeeUpdated",
      "inputs": [
        {
          "name": "newBuyFee",
          "type": "uint256",
          "indexed": false,
          "internalType": "uint256"
        },
        {
          "name": "oldBuyFee",
          "type": "uint256",
          "indexed": false,
          "internalType": "uint256"
        }
      ],
      "anonymous": false
    },
    {
      "type": "event",
      "name": "BuyingDisabled",
      "inputs": [],
      "anonymous": false
    },
    {
      "type": "event",
      "name": "BuyingEnabled",
      "inputs": [],
      "anonymous": false
    },
    {
      "type": "event",
      "name": "Initialized",
      "inputs": [
        {
          "name": "version",
          "type": "uint64",
          "indexed": false,
          "internalType": "uint64"
        }
      ],
      "anonymous": false
    },
    {
      "type": "event",
      "name": "IssuanceTokenSet",
      "inputs": [
        {
          "name": "issuanceToken",
          "type": "address",
          "indexed": true,
          "internalType": "address"
        },
        {
          "name": "decimals",
          "type": "uint8",
          "indexed": false,
          "internalType": "uint8"
        }
      ],
      "anonymous": false
    },
    {
      "type": "event",
      "name": "ModuleInitialized",
      "inputs": [
        {
          "name": "parentOrchestrator",
          "type": "address",
          "indexed": true,
          "internalType": "address"
        },
        {
          "name": "metadata",
          "type": "tuple",
          "indexed": false,
          "internalType": "struct IModule_v1.Metadata",
          "components": [
            {
              "name": "majorVersion",
              "type": "uint256",
              "internalType": "uint256"
            },
            {
              "name": "minorVersion",
              "type": "uint256",
              "internalType": "uint256"
            },
            {
              "name": "patchVersion",
              "type": "uint256",
              "internalType": "uint256"
            },
            {
              "name": "url",
              "type": "string",
              "internalType": "string"
            },
            {
              "name": "title",
              "type": "string",
              "internalType": "string"
            }
          ]
        }
      ],
      "anonymous": false
    },
    {
      "type": "event",
      "name": "OrchestratorTokenSet",
      "inputs": [
        {
          "name": "token",
          "type": "address",
          "indexed": true,
          "internalType": "address"
        },
        {
          "name": "decimals",
          "type": "uint8",
          "indexed": false,
          "internalType": "uint8"
        }
      ],
      "anonymous": false
    },
    {
      "type": "event",
      "name": "PaymentOrderAdded",
      "inputs": [
        {
          "name": "recipient",
          "type": "address",
          "indexed": true,
          "internalType": "address"
        },
        {
          "name": "token",
          "type": "address",
          "indexed": true,
          "internalType": "address"
        },
        {
          "name": "amount",
          "type": "uint256",
          "indexed": false,
          "internalType": "uint256"
        }
      ],
      "anonymous": false
    },
    {
      "type": "event",
      "name": "ProjectCollateralFeeAdded",
      "inputs": [
        {
          "name": "amount",
          "type": "uint256",
          "indexed": false,
          "internalType": "uint256"
        }
      ],
      "anonymous": false
    },
    {
      "type": "event",
      "name": "ProjectCollateralFeeWithdrawn",
      "inputs": [
        {
          "name": "receiver",
          "type": "address",
          "indexed": false,
          "internalType": "address"
        },
        {
          "name": "amount",
          "type": "uint256",
          "indexed": false,
          "internalType": "uint256"
        }
      ],
      "anonymous": false
    },
    {
      "type": "event",
      "name": "ProtocolFeeMinted",
      "inputs": [
        {
          "name": "token",
          "type": "address",
          "indexed": true,
          "internalType": "address"
        },
        {
          "name": "treasury",
          "type": "address",
          "indexed": true,
          "internalType": "address"
        },
        {
          "name": "feeAmount",
          "type": "uint256",
          "indexed": false,
          "internalType": "uint256"
        }
      ],
      "anonymous": false
    },
    {
      "type": "event",
      "name": "ProtocolFeeTransferred",
      "inputs": [
        {
          "name": "token",
          "type": "address",
          "indexed": true,
          "internalType": "address"
        },
        {
          "name": "treasury",
          "type": "address",
          "indexed": true,
          "internalType": "address"
        },
        {
          "name": "feeAmount",
          "type": "uint256",
          "indexed": false,
          "internalType": "uint256"
        }
      ],
      "anonymous": false
    },
    {
      "type": "event",
      "name": "RedemptionOrderCreated",
      "inputs": [
        {
          "name": "orderId",
          "type": "uint256",
          "indexed": true,
          "internalType": "uint256"
        },
        {
          "name": "seller",
          "type": "address",
          "indexed": true,
          "internalType": "address"
        },
        {
          "name": "receiver",
          "type": "address",
          "indexed": true,
          "internalType": "address"
        },
        {
          "name": "sellAmount",
          "type": "uint256",
          "indexed": false,
          "internalType": "uint256"
        },
        {
          "name": "exchangeRate",
          "type": "uint256",
          "indexed": false,
          "internalType": "uint256"
        },
        {
          "name": "collateralAmount",
          "type": "uint256",
          "indexed": false,
          "internalType": "uint256"
        },
        {
          "name": "feePercentage",
          "type": "uint256",
          "indexed": false,
          "internalType": "uint256"
        },
        {
          "name": "feeAmount",
          "type": "uint256",
          "indexed": false,
          "internalType": "uint256"
        },
        {
          "name": "redemptionAmount",
          "type": "uint256",
          "indexed": false,
          "internalType": "uint256"
        },
        {
          "name": "collateralToken",
          "type": "address",
          "indexed": false,
          "internalType": "address"
        },
        {
          "name": "redemptionTime",
          "type": "uint256",
          "indexed": false,
          "internalType": "uint256"
        },
        {
          "name": "state",
          "type": "uint8",
          "indexed": false,
          "internalType": "enum IFM_PC_ExternalPrice_Redeeming_v1.RedemptionState"
        }
      ],
      "anonymous": false
    },
    {
      "type": "event",
      "name": "ReserveDeposited",
      "inputs": [
        {
          "name": "depositor",
          "type": "address",
          "indexed": true,
          "internalType": "address"
        },
        {
          "name": "amount",
          "type": "uint256",
          "indexed": false,
          "internalType": "uint256"
        }
      ],
      "anonymous": false
    },
    {
      "type": "event",
      "name": "SellFeeUpdated",
      "inputs": [
        {
          "name": "newSellFee",
          "type": "uint256",
          "indexed": false,
          "internalType": "uint256"
        },
        {
          "name": "oldSellFee",
          "type": "uint256",
          "indexed": false,
          "internalType": "uint256"
        }
      ],
      "anonymous": false
    },
    {
      "type": "event",
      "name": "SellingDisabled",
      "inputs": [],
      "anonymous": false
    },
    {
      "type": "event",
      "name": "SellingEnabled",
      "inputs": [],
      "anonymous": false
    },
    {
      "type": "event",
      "name": "TokenDecimalsUpdated",
      "inputs": [
        {
          "name": "oldDecimals",
          "type": "uint8",
          "indexed": false,
          "internalType": "uint8"
        },
        {
          "name": "newDecimals",
          "type": "uint8",
          "indexed": false,
          "internalType": "uint8"
        }
      ],
      "anonymous": false
    },
    {
      "type": "event",
      "name": "TokensBought",
      "inputs": [
        {
          "name": "receiver",
          "type": "address",
          "indexed": true,
          "internalType": "address"
        },
        {
          "name": "depositAmount",
          "type": "uint256",
          "indexed": false,
          "internalType": "uint256"
        },
        {
          "name": "receivedAmount",
          "type": "uint256",
          "indexed": false,
          "internalType": "uint256"
        },
        {
          "name": "buyer",
          "type": "address",
          "indexed": false,
          "internalType": "address"
        }
      ],
      "anonymous": false
    },
    {
      "type": "event",
      "name": "TokensSold",
      "inputs": [
        {
          "name": "receiver",
          "type": "address",
          "indexed": true,
          "internalType": "address"
        },
        {
          "name": "depositAmount",
          "type": "uint256",
          "indexed": false,
          "internalType": "uint256"
        },
        {
          "name": "receivedAmount",
          "type": "uint256",
          "indexed": false,
          "internalType": "uint256"
        },
        {
          "name": "seller",
          "type": "address",
          "indexed": false,
          "internalType": "address"
        }
      ],
      "anonymous": false
    },
    {
      "type": "event",
      "name": "TransferOrchestratorToken",
      "inputs": [
        {
          "name": "_to",
          "type": "address",
          "indexed": true,
          "internalType": "address"
        },
        {
          "name": "_amount",
          "type": "uint256",
          "indexed": false,
          "internalType": "uint256"
        }
      ],
      "anonymous": false
    },
    {
      "type": "error",
      "name": "AddressEmptyCode",
      "inputs": [
        {
          "name": "target",
          "type": "address",
          "internalType": "address"
        }
      ]
    },
    {
      "type": "error",
      "name": "AddressInsufficientBalance",
      "inputs": [
        {
          "name": "account",
          "type": "address",
          "internalType": "address"
        }
      ]
    },
    {
      "type": "error",
      "name": "FailedInnerCall",
      "inputs": []
    },
    {
      "type": "error",
      "name": "InvalidInitialization",
      "inputs": []
    },
    {
      "type": "error",
      "name": "Module_OrchestratorCallbackFailed",
      "inputs": [
        {
          "name": "funcSig",
          "type": "string",
          "internalType": "string"
        }
      ]
    },
    {
      "type": "error",
      "name": "Module__BondingCurveBase__BuyingFunctionaltiesClosed",
      "inputs": []
    },
    {
      "type": "error",
      "name": "Module__BondingCurveBase__FeeAmountToHigh",
      "inputs": []
    },
    {
      "type": "error",
      "name": "Module__BondingCurveBase__InsufficientOutputAmount",
      "inputs": []
    },
    {
      "type": "error",
      "name": "Module__BondingCurveBase__InvalidDepositAmount",
      "inputs": []
    },
    {
      "type": "error",
      "name": "Module__BondingCurveBase__InvalidFeePercentage",
      "inputs": []
    },
    {
      "type": "error",
      "name": "Module__BondingCurveBase__InvalidMinAmountOut",
      "inputs": []
    },
    {
      "type": "error",
      "name": "Module__BondingCurveBase__InvalidRecipient",
      "inputs": []
    },
    {
      "type": "error",
      "name": "Module__BondingCurveBase__InvalidWithdrawAmount",
      "inputs": []
    },
    {
      "type": "error",
      "name": "Module__BondingCurveBase__TradeAmountTooLow",
      "inputs": []
    },
    {
      "type": "error",
      "name": "Module__CallerNotAuthorized",
      "inputs": [
        {
          "name": "role",
          "type": "bytes32",
          "internalType": "bytes32"
        },
        {
          "name": "caller",
          "type": "address",
          "internalType": "address"
        }
      ]
    },
    {
      "type": "error",
      "name": "Module__ERC20PaymentClientBase__ArrayLengthMismatch",
      "inputs": []
    },
    {
      "type": "error",
      "name": "Module__ERC20PaymentClientBase__CallerNotAuthorized",
      "inputs": []
    },
    {
      "type": "error",
      "name": "Module__ERC20PaymentClientBase__InsufficientFunds",
      "inputs": [
        {
          "name": "token",
          "type": "address",
          "internalType": "address"
        }
      ]
    },
    {
      "type": "error",
      "name": "Module__ERC20PaymentClientBase__InvalidAmount",
      "inputs": []
    },
    {
      "type": "error",
      "name": "Module__ERC20PaymentClientBase__InvalidPaymentOrder",
      "inputs": []
    },
    {
      "type": "error",
      "name": "Module__ERC20PaymentClientBase__InvalidRecipient",
      "inputs": []
    },
    {
      "type": "error",
      "name": "Module__ERC20PaymentClientBase__InvalidToken",
      "inputs": []
    },
    {
      "type": "error",
      "name": "Module__ERC20PaymentClientBase__Invalidend",
      "inputs": []
    },
    {
      "type": "error",
      "name": "Module__ERC20PaymentClientBase__TokenTransferFailed",
      "inputs": []
    },
    {
      "type": "error",
      "name": "Module__FM_PC_ExternalPrice_Redeeming_FeeExceedsMaximum",
      "inputs": [
        {
          "name": "fee",
          "type": "uint256",
          "internalType": "uint256"
        },
        {
          "name": "maxFee",
          "type": "uint256",
          "internalType": "uint256"
        }
      ]
    },
    {
      "type": "error",
      "name": "Module__FM_PC_ExternalPrice_Redeeming_InvalidAmount",
      "inputs": []
    },
    {
      "type": "error",
      "name": "Module__FM_PC_ExternalPrice_Redeeming_InvalidOracleInterface",
      "inputs": []
    },
    {
      "type": "error",
      "name": "Module__FM_PC_ExternalPrice_Redeeming_InvalidProjectTreasury",
      "inputs": []
    },
    {
      "type": "error",
      "name": "Module__FM_PC_ExternalPrice_Redeeming_QueueExecutionFailed",
      "inputs": []
    },
    {
      "type": "error",
      "name": "Module__FM_PC_ExternalPrice_Redeeming_ThirdPartyOperationsDisabled",
      "inputs": []
    },
    {
      "type": "error",
      "name": "Module__InvalidAddress",
      "inputs": []
    },
    {
      "type": "error",
      "name": "Module__InvalidMetadata",
      "inputs": []
    },
    {
      "type": "error",
      "name": "Module__InvalidOrchestratorAddress",
      "inputs": []
    },
    {
      "type": "error",
      "name": "Module__OnlyCallableByOrchestrator",
      "inputs": []
    },
    {
      "type": "error",
      "name": "Module__OnlyCallableByPaymentClient",
      "inputs": []
    },
    {
      "type": "error",
      "name": "Module__RedeemingBondingCurveBase__InsufficientCollateralForRedemption",
      "inputs": []
    },
    {
      "type": "error",
      "name": "Module__RedeemingBondingCurveBase__SellingFunctionaltiesClosed",
      "inputs": []
    },
    {
      "type": "error",
      "name": "NotInitializing",
      "inputs": []
    },
    {
      "type": "error",
      "name": "SafeERC20FailedOperation",
      "inputs": [
        {
          "name": "token",
          "type": "address",
          "internalType": "address"
        }
      ]
    }
  ],
  "bytecode": {
    "object": "0x60a06040523480156200001157600080fd5b5060006080526200002162000027565b620000db565b7ff0c57e16840df040f15088dc2f81fe391c3923bec73e23a9662efc9c229c6a00805468010000000000000000900460ff1615620000785760405163f92ee8a960e01b815260040160405180910390fd5b80546001600160401b0390811614620000d85780546001600160401b0319166001600160401b0390811782556040519081527fc7f505b2f371ae2175ee4913f4499e1f2633a7b5936321eed1cdaeb6115181d29060200160405180910390a15b50565b60805161559c620000f46000396000505061559c6000f3fe608060405234801561001057600080fd5b506004361061036d5760003560e01c80637da0a877116101d3578063bcb6192011610104578063d4a67930116100a2578063f1eae64a1161007c578063f1eae64a146106de578063f42d48a1146106e6578063fa03330c146106f9578063fc0c546a1461070157600080fd5b8063d4a67930146106b0578063d6febde8146106b8578063d79875eb146106cb57600080fd5b8063c5b27dde116100de578063c5b27dde14610678578063c6829ba21461068b578063c6ab5cdc1461069f578063cbda8f82146106a757600080fd5b8063bcb6192014610646578063bd09840414610659578063c0231ff61461066157600080fd5b8063a849642611610171578063b74795d91161014b578063b74795d9146105fe578063b7ae632f1461060f578063ba360dd414610636578063ba83c9701461063e57600080fd5b8063a8496426146105d0578063b33ec618146105d8578063b66a870c146105eb57600080fd5b80638b4cee08116101ad5780638b4cee081461059d5780638f818b901461042a5780639093b01f146105b0578063935b7dbd146105bd57600080fd5b80637da0a8771461057a5780638158900b14610582578063844b2d431461058a57600080fd5b80633fe7b1a6116102ad578063683c9dad1161024b578063759cc4b511610225578063759cc4b51461053257806375fa0b76146105455780637998a1c41461055a5780637a997ab71461056257600080fd5b8063683c9dad1461050457806369fcd4ac1461050c5780636c67e8071461051f57600080fd5b80634f893bba116102875780634f893bba146104b257806354fd4d50146104c55780635600f04f146104e9578063572b6c05146104f157600080fd5b80633fe7b1a61461048c57806347062402146104945780634a79d50c1461049d57600080fd5b8063263b6d481161031a5780632b14ca56116102f45780632b14ca56146104315780632c2ee2b51461043a5780632e84db5f14610450578063322d21001461047957600080fd5b8063263b6d481461040c578063272bbd4414610417578063289af0d81461042a57600080fd5b80631ca3bc4f1161034b5780631ca3bc4f146103c15780631e96bb9e146103e657806324e30270146103f957600080fd5b806301ffc9a7146103725780630cc835a31461039a5780631835f541146103af575b600080fd5b610385610380366004614a0b565b610712565b60405190151581526020015b60405180910390f35b6103ad6103a8366004614a35565b61073d565b005b60db545b604051908152602001610391565b606c546001600160a01b03165b6040516001600160a01b039091168152602001610391565b6103ad6103f4366004614a63565b610860565b6103ad610407366004614a80565b6108b4565b60dc5460ff16610385565b6103ad610425366004614a80565b610b35565b60006103b3565b6103b360a25481565b60dc5461010090046001600160a01b03166103ce565b6103b361045e366004614a63565b6001600160a01b031660009081526039602052604090205490565b6103b3610487366004614a35565b610d0f565b60d7546103b3565b6103b3606d5481565b6104a5610db5565b6040516103919190614b4f565b6103ad6104c0366004614b62565b610e4a565b60015460025460035460408051938452602084019290925290820152606001610391565b6104a561100d565b6103856104ff366004614a63565b61101f565b6103ad61108e565b6103b361051a366004614a35565b61127d565b6103ad61052d366004614b8e565b61131b565b6103ad610540366004614b62565b611531565b61054d611597565b6040516103919190614c46565b6103b361163a565b6103b36d57484954454c4953545f524f4c4560901b81565b6103ce611798565b60da546103b3565b6103ad610598366004614c67565b611810565b6103ad6105ab366004614a35565b61186e565b60a1546103859060ff1681565b6103ad6105cb366004614c84565b6118f3565b60d9546103b3565b6103ad6105e6366004614b62565b61198e565b6103ad6105f9366004614d85565b6119ec565b6000546001600160a01b03166103ce565b6103b37f51554555455f4d414e414745525f524f4c45000000000000000000000000000081565b60d8546103b3565b6103ad611d75565b6103ad610654366004614b8e565b611df5565b6103b3611fd7565b610669612044565b60405161039193929190614e6b565b6103ad610686366004614c84565b612503565b606c5461038590600160a01b900460ff1681565b6103ad6125a0565b6103b3606e5481565b6103ad612623565b6103ad6106c6366004614f03565b6126ac565b6103ad6106d9366004614f03565b612729565b6103ad6127a8565b6103ad6106f4366004614a35565b61282b565b6103b36128c9565b60d6546001600160a01b03166103ce565b60006001600160e01b03198216639f8d8d4b60e01b1480610737575061073782612913565b92915050565b6000546040805163d09edf3160e01b8152905161081a926001600160a01b03169163d09edf319160048083019260209291908290030181865afa158015610788573d6000803e3d6000fd5b505050506040513d601f19601f820116820180604052508101906107ac9190614f25565b6001600160a01b031663b3ecf2366040518163ffffffff1660e01b8152600401602060405180830381865afa1580156107e9573d6000803e3d6000fd5b505050506040513d601f19601f8201168201806040525081019061080d9190614f42565b610815612938565b61298a565b60d8548111156108545760d85460405163960983cd60e01b815261084b918391600401918252602082015260400190565b60405180910390fd5b61085d81612aa1565b50565b6000546040805163d09edf3160e01b815290516108ab926001600160a01b03169163d09edf319160048083019260209291908290030181865afa158015610788573d6000803e3d6000fd5b61085d81612aec565b600080546040805163d09edf3160e01b815290518693926001600160a01b03169163d09edf319160048083019260209291908290030181865afa1580156108ff573d6000803e3d6000fd5b505050506040513d601f19601f820116820180604052508101906109239190614f25565b60405163fdd5205f60e01b8152306004820152602481018490526001600160a01b03919091169063fdd5205f90604401602060405180830381865afa158015610970573d6000803e3d6000fd5b505050506040513d601f19601f820116820180604052508101906109949190614f42565b9050610a5860008054906101000a90046001600160a01b03166001600160a01b031663d09edf316040518163ffffffff1660e01b8152600401602060405180830381865afa1580156109ea573d6000803e3d6000fd5b505050506040513d601f19601f82011682018060405250810190610a0e9190614f25565b6001600160a01b031663248a9ca3836040518263ffffffff1660e01b8152600401610a3b91815260200190565b602060405180830381865afa1580156107e9573d6000803e3d6000fd5b60008054906101000a90046001600160a01b03166001600160a01b031663d09edf316040518163ffffffff1660e01b8152600401602060405180830381865afa158015610aa9573d6000803e3d6000fd5b505050506040513d601f19601f82011682018060405250810190610acd9190614f25565b6001600160a01b0316637d540a648686866040518463ffffffff1660e01b8152600401610afc93929190614f5b565b600060405180830381600087803b158015610b1657600080fd5b505af1158015610b2a573d6000803e3d6000fd5b505050505050505050565b600080546040805163d09edf3160e01b815290518693926001600160a01b03169163d09edf319160048083019260209291908290030181865afa158015610b80573d6000803e3d6000fd5b505050506040513d601f19601f82011682018060405250810190610ba49190614f25565b60405163fdd5205f60e01b8152306004820152602481018490526001600160a01b03919091169063fdd5205f90604401602060405180830381865afa158015610bf1573d6000803e3d6000fd5b505050506040513d601f19601f82011682018060405250810190610c159190614f42565b9050610c6b60008054906101000a90046001600160a01b03166001600160a01b031663d09edf316040518163ffffffff1660e01b8152600401602060405180830381865afa1580156109ea573d6000803e3d6000fd5b60008054906101000a90046001600160a01b03166001600160a01b031663d09edf316040518163ffffffff1660e01b8152600401602060405180830381865afa158015610cbc573d6000803e3d6000fd5b505050506040513d601f19601f82011682018060405250810190610ce09190614f25565b6001600160a01b031663648154538686866040518463ffffffff1660e01b8152600401610afc93929190614f5b565b6000610d1c826001612b59565b60408051808201909152601c81527f5f6275794f7264657228616464726573732c75696e742c75696e742900000000602090910152600080610d7d7fdb2c93faffa8f98d8bcd55cf740e8ead65ac1699aaf6ee8a00820485fc802af6612b9b565b935093505050610d908483606d54612bc4565b50909450610daa9050610da285612c93565b826000612bc4565b509095945050505050565b606060016004018054610dc790614fb3565b80601f0160208091040260200160405190810160405280929190818152602001828054610df390614fb3565b8015610e405780601f10610e1557610100808354040283529160200191610e40565b820191906000526020600020905b815481529060010190602001808311610e2357829003601f168201915b5050505050905090565b81610e5481612e14565b6000546040805163d09edf3160e01b81529051610e9f926001600160a01b03169163d09edf319160048083019260209291908290030181865afa158015610788573d6000803e3d6000fd5b606e54821115610ec2576040516347d1bcf560e01b815260040160405180910390fd5b81606e6000828254610ed49190615003565b92505081905550610fc6838360008054906101000a90046001600160a01b03166001600160a01b03166304baed9e6040518163ffffffff1660e01b8152600401602060405180830381865afa158015610f31573d6000803e3d6000fd5b505050506040513d601f19601f82011682018060405250810190610f559190614f25565b6001600160a01b031663fc0c546a6040518163ffffffff1660e01b8152600401602060405180830381865afa158015610f92573d6000803e3d6000fd5b505050506040513d601f19601f82011682018060405250810190610fb69190614f25565b6001600160a01b03169190612e50565b604080516001600160a01b0385168152602081018490527f9e9a785b42ae3ce89ea11b526c656a7cacbd520b83908336dc8c9f4e9be9135f910160405180910390a1505050565b606060016003018054610dc790614fb3565b6000805460405163572b6c0560e01b81526001600160a01b0384811660048301529091169063572b6c0590602401602060405180830381865afa15801561106a573d6000803e3d6000fd5b505050506040513d601f19601f820116820180604052508101906107379190615016565b7f51554555455f4d414e414745525f524f4c45000000000000000000000000000061115c60008054906101000a90046001600160a01b03166001600160a01b031663d09edf316040518163ffffffff1660e01b8152600401602060405180830381865afa158015611103573d6000803e3d6000fd5b505050506040513d601f19601f820116820180604052508101906111279190614f25565b60405163fdd5205f60e01b8152306004820152602481018490526001600160a01b03919091169063fdd5205f90604401610a3b565b60008060009054906101000a90046001600160a01b03166001600160a01b031663f1c6bdf86040518163ffffffff1660e01b8152600401602060405180830381865afa1580156111b0573d6000803e3d6000fd5b505050506040513d601f19601f820116820180604052508101906111d49190614f25565b60408051600481526024810182526020810180516001600160e01b031663683c9dad60e01b17905290516001600160a01b0392909216916112159190615033565b6000604051808303816000865af19150503d8060008114611252576040519150601f19603f3d011682016040523d82523d6000602084013e611257565b606091505b505090508061127957604051630c18dce960e41b815260040160405180910390fd5b5050565b600061128a826001612b59565b60408051808201909152601d81527f5f73656c6c4f7264657228616464726573732c75696e742c75696e74290000006020909101526000806112eb7f3299ac1e4997da1dd638584692e27ee6e952ca63f8284764a73c592284e1d9e8612b9b565b9350935050506112fd84826000612bc4565b5090945061130c905084612eaf565b9250610daa838360a254612bc4565b600080546040805163d09edf3160e01b815290518593926001600160a01b03169163d09edf319160048083019260209291908290030181865afa158015611366573d6000803e3d6000fd5b505050506040513d601f19601f8201168201806040525081019061138a9190614f25565b60405163fdd5205f60e01b8152306004820152602481018490526001600160a01b03919091169063fdd5205f90604401602060405180830381865afa1580156113d7573d6000803e3d6000fd5b505050506040513d601f19601f820116820180604052508101906113fb9190614f42565b905061145160008054906101000a90046001600160a01b03166001600160a01b031663d09edf316040518163ffffffff1660e01b8152600401602060405180830381865afa1580156109ea573d6000803e3d6000fd5b60008054906101000a90046001600160a01b03166001600160a01b031663d09edf316040518163ffffffff1660e01b8152600401602060405180830381865afa1580156114a2573d6000803e3d6000fd5b505050506040513d601f19601f820116820180604052508101906114c69190614f25565b60405163385e205560e21b8152600481018690526001600160a01b038581166024830152919091169063e1788154906044015b600060405180830381600087803b15801561151357600080fd5b505af1158015611527573d6000803e3d6000fd5b5050505050505050565b611539612f51565b6115508282610fb660d6546001600160a01b031690565b816001600160a01b03167fe88292c5f714100904272672c0420345093bd0e3c5555d31f3e4e2cf5f6ca8a18260405161158b91815260200190565b60405180910390a25050565b60606038805480602002602001604051908101604052809291908181526020016000905b828210156116315760008481526020908190206040805160c0810182526006860290920180546001600160a01b0390811684526001808301549091168486015260028201549284019290925260038101546060840152600481015460808401526005015460a083015290835290920191016115bb565b50505050905090565b600061179360016040518060a001604052908160008201548152602001600182015481526020016002820154815260200160038201805461167a90614fb3565b80601f01602080910402602001604051908101604052809291908181526020018280546116a690614fb3565b80156116f35780601f106116c8576101008083540402835291602001916116f3565b820191906000526020600020905b8154815290600101906020018083116116d657829003601f168201915b5050505050815260200160048201805461170c90614fb3565b80601f016020809104026020016040519081016040528092919081815260200182805461173890614fb3565b80156117855780601f1061175a57610100808354040283529160200191611785565b820191906000526020600020905b81548152906001019060200180831161176857829003601f168201915b505050505081525050613074565b905090565b60008060009054906101000a90046001600160a01b03166001600160a01b0316637da0a8776040518163ffffffff1660e01b8152600401602060405180830381865afa1580156117ec573d6000803e3d6000fd5b505050506040513d601f19601f820116820180604052508101906117939190614f25565b6000546040805163d09edf3160e01b8152905161185b926001600160a01b03169163d09edf319160048083019260209291908290030181865afa158015610788573d6000803e3d6000fd5b60dc805460ff1916911515919091179055565b6000546040805163d09edf3160e01b815290516118b9926001600160a01b03169163d09edf319160048083019260209291908290030181865afa158015610788573d6000803e3d6000fd5b60d7548111156118ea5760d75460405163960983cd60e01b815261084b918391600401918252602082015260400190565b61085d816130b4565b6d57484954454c4953545f524f4c4560901b61195960008054906101000a90046001600160a01b03166001600160a01b031663d09edf316040518163ffffffff1660e01b8152600401602060405180830381865afa158015611103573d6000803e3d6000fd5b60dc5460ff161561197d57604051635efada0360e01b815260040160405180910390fd5b6119888484846130ff565b50505050565b61199e611999612938565b61311c565b6119bb5760405163e4597a6b60e01b815260040160405180910390fd5b6001600160a01b038216600090815260396020526040812080548392906119e3908490615003565b90915550505050565b7ff0c57e16840df040f15088dc2f81fe391c3923bec73e23a9662efc9c229c6a00805468010000000000000000810460ff16159067ffffffffffffffff16600081158015611a375750825b905060008267ffffffffffffffff166001148015611a545750303b155b905081158015611a62575080155b15611a805760405163f92ee8a960e01b815260040160405180910390fd5b845467ffffffffffffffff191660011785558315611ab457845468ff00000000000000001916680100000000000000001785555b611abe888861319c565b60008060008060008060008060008e806020019051810190611ae0919061504f565b9850985098509850985098509850985098508560d660006101000a8154816001600160a01b0302191690836001600160a01b0316021790555060d660009054906101000a90046001600160a01b03166001600160a01b031663313ce5676040518163ffffffff1660e01b8152600401602060405180830381865afa158015611b6c573d6000803e3d6000fd5b505050506040513d601f19601f82011682018060405250810190611b9091906150ec565b60d6805460ff929092167501000000000000000000000000000000000000000000027fffffffffffffffffffff00ffffffffffffffffffffffffffffffffffffffffff9092169190911790556040516301ffc9a760e01b8152636fdf93e560e01b60048201526001600160a01b038a16906301ffc9a790602401602060405180830381865afa158015611c27573d6000803e3d6000fd5b505050506040513d601f19601f82011682018060405250810190611c4b9190615016565b611c685760405163770e43d760e11b815260040160405180910390fd5b60d580546001600160a01b0319166001600160a01b038b16179055611c8c8761328a565b81851115611cb75760405163960983cd60e01b8152600481018690526024810183905260440161084b565b82841115611ce25760405163960983cd60e01b8152600481018590526024810184905260440161084b565b611ceb88612aec565b611cf485612aa1565b611cfd846130b4565b611d068260d855565b611d0f8360d755565b611d1881611810565b505050505050505050831561152757845468ff000000000000000019168555604051600181527fc7f505b2f371ae2175ee4913f4499e1f2633a7b5936321eed1cdaeb6115181d29060200160405180910390a15050505050505050565b6000546040805163d09edf3160e01b81529051611dc0926001600160a01b03169163d09edf319160048083019260209291908290030181865afa158015610788573d6000803e3d6000fd5b60a1805460ff191690556040517fc34ae80cb7f967a799992108cfbc90770413d60555d5b0587a4c2c3e69c79ca490600090a1565b600080546040805163d09edf3160e01b815290518593926001600160a01b03169163d09edf319160048083019260209291908290030181865afa158015611e40573d6000803e3d6000fd5b505050506040513d601f19601f82011682018060405250810190611e649190614f25565b60405163fdd5205f60e01b8152306004820152602481018490526001600160a01b03919091169063fdd5205f90604401602060405180830381865afa158015611eb1573d6000803e3d6000fd5b505050506040513d601f19601f82011682018060405250810190611ed59190614f42565b9050611f2b60008054906101000a90046001600160a01b03166001600160a01b031663d09edf316040518163ffffffff1660e01b8152600401602060405180830381865afa1580156109ea573d6000803e3d6000fd5b60008054906101000a90046001600160a01b03166001600160a01b031663d09edf316040518163ffffffff1660e01b8152600401602060405180830381865afa158015611f7c573d6000803e3d6000fd5b505050506040513d601f19601f82011682018060405250810190611fa09190614f25565b604051632e99be7f60e21b8152600481018690526001600160a01b038581166024830152919091169063ba66f9fc906044016114f9565b60d55460408051624c7ad160e51b815290516000926001600160a01b03169163098f5a209160048083019260209291908290030181865afa158015612020573d6000803e3d6000fd5b505050506040513d601f19601f820116820180604052508101906117939190614f42565b6060806060612054611999612938565b6120715760405163e4597a6b60e01b815260040160405180910390fd5b6038546000808267ffffffffffffffff81111561209057612090614cb9565b6040519080825280602002602001820160405280156120b9578160200160208202803683370190505b50905060008367ffffffffffffffff8111156120d7576120d7614cb9565b604051908082528060200260200182016040528015612100578160200160208202803683370190505b50905060008467ffffffffffffffff81111561211e5761211e614cb9565b60405190808252806020026020018201604052801561219a57816020015b6121876040518060c0016040528060006001600160a01b0316815260200160006001600160a01b03168152602001600081526020016000815260200160008152602001600081525090565b81526020019060019003908161213c5790505b50905060005b8581101561237457603881815481106121bb576121bb61510f565b60009182526020918290206040805160c081018252600690930290910180546001600160a01b03908116845260018201541693830193909352600283015490820152600382015460608201526004820154608082015260059091015460a082015282518390839081106122305761223061510f565b60200260200101819052506000805b868110156122a7578383815181106122595761225961510f565b6020026020010151602001516001600160a01b03168682815181106122805761228061510f565b60200260200101516001600160a01b03160361229f57600191506122a7565b60010161223f565b508061236b578282815181106122bf576122bf61510f565b6020026020010151602001518587815181106122dd576122dd61510f565b60200260200101906001600160a01b031690816001600160a01b031681525050603960008484815181106123135761231361510f565b6020026020010151602001516001600160a01b03166001600160a01b03168152602001908152602001600020548487815181106123525761235261510f565b60209081029190910101528561236781615125565b9650505b506001016121a0565b50612381603860006149a3565b60008467ffffffffffffffff81111561239c5761239c614cb9565b6040519080825280602002602001820160405280156123c5578160200160208202803683370190505b50905060008567ffffffffffffffff8111156123e3576123e3614cb9565b60405190808252806020026020018201604052801561240c578160200160208202803683370190505b50905060005b868110156124f25785818151811061242c5761242c61510f565b60200260200101518382815181106124465761244661510f565b60200260200101906001600160a01b031690816001600160a01b0316815250508481815181106124785761247861510f565b60200260200101518282815181106124925761249261510f565b6020026020010181815250506124c86124a9612938565b8483815181106124bb576124bb61510f565b602002602001015161335e565b6124ea8382815181106124dd576124dd61510f565b6020026020010151613383565b600101612412565b509199909850909650945050505050565b6d57484954454c4953545f524f4c4560901b61256960008054906101000a90046001600160a01b03166001600160a01b031663d09edf316040518163ffffffff1660e01b8152600401602060405180830381865afa158015611103573d6000803e3d6000fd5b60dc5460ff161561258d57604051635efada0360e01b815260040160405180910390fd5b612598848484613609565b505050505050565b6000546040805163d09edf3160e01b815290516125eb926001600160a01b03169163d09edf319160048083019260209291908290030181865afa158015610788573d6000803e3d6000fd5b606c805460ff60a01b191690556040517f44c1679cca34073ce70fed616f995237808d9599a35669fd39f3afd053e2b9b190600090a1565b6000546040805163d09edf3160e01b8152905161266e926001600160a01b03169163d09edf319160048083019260209291908290030181865afa158015610788573d6000803e3d6000fd5b606c805460ff60a01b1916600160a01b1790556040517fe404df37e2f7360b624914a082278de0f9e7da04a61eaab0a8d3d26b52bc0b1990600090a1565b6d57484954454c4953545f524f4c4560901b61271260008054906101000a90046001600160a01b03166001600160a01b031663d09edf316040518163ffffffff1660e01b8152600401602060405180830381865afa158015611103573d6000803e3d6000fd5b61272461271d612938565b84846130ff565b505050565b6d57484954454c4953545f524f4c4560901b61278f60008054906101000a90046001600160a01b03166001600160a01b031663d09edf316040518163ffffffff1660e01b8152600401602060405180830381865afa158015611103573d6000803e3d6000fd5b6127a161279a612938565b8484613609565b5050505050565b6000546040805163d09edf3160e01b815290516127f3926001600160a01b03169163d09edf319160048083019260209291908290030181865afa158015610788573d6000803e3d6000fd5b60a1805460ff191660011790556040517f9d47627df4f01d3bff516199297ca647fe2ea0448c4f2925ef8c16d614a51a7c90600090a1565b8060000361284c57604051638bc7e94360e01b815260040160405180910390fd5b61287c612857612938565b308361286b60d6546001600160a01b031690565b6001600160a01b0316929190613897565b612884612938565b6001600160a01b03167fcea2aa568570e239e616fd2e9bcf2301307aa1c1c1f355305a87e5cdd46bbc79826040516128be91815260200190565b60405180910390a250565b60d55460408051636650c9c560e01b815290516000926001600160a01b031691636650c9c59160048083019260209291908290030181865afa158015612020573d6000803e3d6000fd5b60006001600160e01b031982166306fa99af60e01b14806107375750610737826138d0565b60003660146129463361101f565b80156129525750808210155b15612982576000366129648385615003565b61296f92829061513e565b61297891615168565b60601c9250505090565b339250505090565b60008054906101000a90046001600160a01b03166001600160a01b031663d09edf316040518163ffffffff1660e01b8152600401602060405180830381865afa1580156129db573d6000803e3d6000fd5b505050506040513d601f19601f820116820180604052508101906129ff9190614f25565b60405163a883867d60e01b8152600481018490526001600160a01b038381166024830152919091169063a883867d90604401602060405180830381865afa158015612a4e573d6000803e3d6000fd5b505050506040513d601f19601f82011682018060405250810190612a729190615016565b611279576040516342abbb7760e01b8152600481018390526001600160a01b038216602482015260440161084b565b612aaa816138f5565b606d546040805183815260208101929092527f28e297c7c282931a994191b735b01eaf17558295f761512a7047f4e1b8dc3b0b910160405180910390a1606d55565b60dc5461010090046001600160a01b0316612b1a57604051638b7abe6160e01b815260040160405180910390fd5b60dc80546001600160a01b03909216610100027fffffffffffffffffffffff0000000000000000000000000000000000000000ff909216919091179055565b81600003612b7a57604051631d67ff5760e11b815260040160405180910390fd5b806000036112795760405163d8674d0d60e01b815260040160405180910390fd5b600080600080612baa85613918565b94509150612bb785613a73565b9496949550919391925050565b60008080612710612bd5858761519d565b10612bf3576040516304e0874960e11b815260040160405180910390fd5b8415612c3357612710612c0686886151b0565b612c1091906151c7565b915081600003612c3357604051639c43a82560e01b815260040160405180910390fd5b8315612c7357612710612c4685886151b0565b612c5091906151c7565b905080600003612c7357604051639c43a82560e01b815260040160405180910390fd5b80612c7e8388615003565b612c889190615003565b925093509350939050565b600080612d8983612cac60d6546001600160a01b031690565b6001600160a01b031663313ce5676040518163ffffffff1660e01b8152600401602060405180830381865afa158015612ce9573d6000803e3d6000fd5b505050506040513d601f19601f82011682018060405250810190612d0d91906150ec565b606c60009054906101000a90046001600160a01b03166001600160a01b031663313ce5676040518163ffffffff1660e01b8152600401602060405180830381865afa158015612d60573d6000803e3d6000fd5b505050506040513d601f19601f82011682018060405250810190612d8491906150ec565b613b89565b90508060d560009054906101000a90046001600160a01b03166001600160a01b0316636650c9c56040518163ffffffff1660e01b8152600401602060405180830381865afa158015612ddf573d6000803e3d6000fd5b505050506040513d601f19601f82011682018060405250810190612e039190614f42565b612e0d91906151b0565b9392505050565b6001600160a01b0381161580612e3257506001600160a01b03811630145b1561085d5760405163364f556160e11b815260040160405180910390fd5b6040516001600160a01b0383811660248301526044820183905261272491859182169063a9059cbb906064015b604051602081830303815290604052915060e01b6020820180516001600160e01b038381831617835250505050613bfb565b6000808260d560009054906101000a90046001600160a01b03166001600160a01b031663098f5a206040518163ffffffff1660e01b8152600401602060405180830381865afa158015612f06573d6000803e3d6000fd5b505050506040513d601f19601f82011682018060405250810190612f2a9190614f42565b612f3491906151b0565b9050612e0d81601260d660159054906101000a900460ff16613b89565b6000546001600160a01b03166342f6e389612f6a612938565b6040516001600160e01b031960e084901b1681526001600160a01b039091166004820152602401602060405180830381865afa158015612fae573d6000803e3d6000fd5b505050506040513d601f19601f82011682018060405250810190612fd29190615016565b15806130545750612fe1612938565b6040516301ffc9a760e01b815263286309c760e01b60048201526001600160a01b0391909116906301ffc9a790602401602060405180830381865afa15801561302e573d6000803e3d6000fd5b505050506040513d601f19601f820116820180604052508101906130529190615016565b155b1561307257604051631b793e7f60e21b815260040160405180910390fd5b565b6000816000015182606001518360800151604051602001613097939291906151e9565b604051602081830303815290604052805190602001209050919050565b6130bd816138f5565b60a2546040805183815260208101929092527f5bafec153d96f8ef37761b64348732b41a6b477401d244a5070f9f82d689adce910160405180910390a160a255565b613107613c5e565b8261311181612e14565b612598848484613c88565b6000805460408051631e38d7bf60e31b815290516001600160a01b0380861693169163f1c6bdf89160048083019260209291908290030181865afa158015613168573d6000803e3d6000fd5b505050506040513d601f19601f8201168201806040525081019061318c9190614f25565b6001600160a01b03161492915050565b6131a4613eee565b6001600160a01b0382166131cb57604051637280679360e01b815260040160405180910390fd5b600080546001600160a01b0319166001600160a01b0384161790556131ef81613f3c565b61320c57604051637511254160e01b815260040160405180910390fd5b80516001908155602082015160025560408201516003556060820151829190600490613238908261525c565b506080820151600482019061324d908261525c565b50905050816001600160a01b03167fd5f3f84c2e1816ce290af84d002663800b02f2985d770cdd335de76fd723b7308260405161158b919061531c565b6000816001600160a01b031663313ce5676040518163ffffffff1660e01b8152600401602060405180830381865afa1580156132ca573d6000803e3d6000fd5b505050506040513d601f19601f820116820180604052508101906132ee91906150ec565b606c80546001600160a01b0319166001600160a01b03851690811790915560d6805460ff60a01b1916600160a01b60ff851690810291909117909155604051908152919250907f4e547b7c6b59d324fecdb926aa12300420faf3a7e12a412eb7e0da193bb0d93e9060200161158b565b6001600160a01b03811660008181526039602052604090205461127991908490613f9c565b6001600160a01b0381166000818152603960205260408082205490516370a0823160e01b81523060048201529092906370a0823190602401602060405180830381865afa1580156133d8573d6000803e3d6000fd5b505050506040513d601f19601f820116820180604052508101906133fc9190614f42565b9050818110156127245760008054906101000a90046001600160a01b03166001600160a01b03166304baed9e6040518163ffffffff1660e01b8152600401602060405180830381865afa158015613457573d6000803e3d6000fd5b505050506040513d601f19601f8201168201806040525081019061347b9190614f25565b6001600160a01b031663fc0c546a6040518163ffffffff1660e01b8152600401602060405180830381865afa1580156134b8573d6000803e3d6000fd5b505050506040513d601f19601f820116820180604052508101906134dc9190614f25565b6001600160a01b0316836001600160a01b0316036135e55760008054906101000a90046001600160a01b03166001600160a01b03166304baed9e6040518163ffffffff1660e01b8152600401602060405180830381865afa158015613545573d6000803e3d6000fd5b505050506040513d601f19601f820116820180604052508101906135699190614f25565b6001600160a01b031663759cc4b5306135828486615003565b6040516001600160e01b031960e085901b1681526001600160a01b0390921660048301526024820152604401600060405180830381600087803b1580156135c857600080fd5b505af11580156135dc573d6000803e3d6000fd5b50505050505050565b6040516346511acb60e11b81526001600160a01b038416600482015260240161084b565b6000806136168484612b59565b60408051808201909152601d81527f5f73656c6c4f7264657228616464726573732c75696e742c75696e742900000060209091015260008080806136797f3299ac1e4997da1dd638584692e27ee6e952ca63f8284764a73c592284e1d9e8612b9b565b935093509350935060008060006136928b856000612bc4565b509850889350905060006136a582612eaf565b90508099506136bb6136b5612938565b8d61402c565b6136c5878561408f565b60008060009054906101000a90046001600160a01b03166001600160a01b03166304baed9e6040518163ffffffff1660e01b8152600401602060405180830381865afa158015613719573d6000803e3d6000fd5b505050506040513d601f19601f8201168201806040525081019061373d9190614f25565b6001600160a01b031663fc0c546a6040518163ffffffff1660e01b8152600401602060405180830381865afa15801561377a573d6000803e3d6000fd5b505050506040513d601f19601f8201168201806040525081019061379e9190614f25565b6040516370a0823160e01b81523060048201529091506001600160a01b038216906370a0823190602401602060405180830381865afa1580156137e5573d6000803e3d6000fd5b505050506040513d601f19601f820116820180604052508101906138099190614f42565b606e54111561382b576040516332dcd2bb60e11b815260040160405180910390fd5b613838828860a254612bc4565b9096509450915061384a8982876140ed565b83156138595761385984614162565b8b82101561387a57604051637ac6ada560e01b815260040160405180910390fd5b6138868e8e848d614198565b505050505050505050935093915050565b6040516001600160a01b0384811660248301528381166044830152606482018390526119889186918216906323b872dd90608401612e7d565b60006001600160e01b03198216630bbeca6160e01b1480610737575061073782614460565b61271081111561085d57604051633ef38b5b60e11b815260040160405180910390fd5b600080546040805163030d028960e21b8152905183926001600160a01b031691630c340a249160048083019260209291908290030181865afa158015613962573d6000803e3d6000fd5b505050506040513d601f19601f820116820180604052508101906139869190614f25565b6001600160a01b031663f2d638266040518163ffffffff1660e01b8152600401602060405180830381865afa1580156139c3573d6000803e3d6000fd5b505050506040513d601f19601f820116820180604052508101906139e79190614f25565b600054604051634d970f5560e11b81526001600160a01b0391821660048201523060248201526001600160e01b031986166044820152911690639b2e1eaa906064015b6040805180830381865afa158015613a46573d6000803e3d6000fd5b505050506040513d601f19601f82011682018060405250810190613a6a9190615373565b91509150915091565b600080546040805163030d028960e21b8152905183926001600160a01b031691630c340a249160048083019260209291908290030181865afa158015613abd573d6000803e3d6000fd5b505050506040513d601f19601f82011682018060405250810190613ae19190614f25565b6001600160a01b031663f2d638266040518163ffffffff1660e01b8152600401602060405180830381865afa158015613b1e573d6000803e3d6000fd5b505050506040513d601f19601f82011682018060405250810190613b429190614f25565b6000546040516304e53bb360e01b81526001600160a01b0391821660048201523060248201526001600160e01b0319861660448201529116906304e53bb390606401613a2a565b60008160ff168360ff1603613b9f575082612e0d565b8160ff168360ff161115613bd8576000613bb98385615398565b613bc490600a615495565b9050613bd081866151c7565b915050612e0d565b6000613be48484615398565b613bef90600a615495565b9050613bd081866151b0565b6000613c106001600160a01b03841683614485565b90508051600014158015613c35575080806020019051810190613c339190615016565b155b1561272457604051635274afe760e01b81526001600160a01b038416600482015260240161084b565b606c54600160a01b900460ff1661307257604051630afe354360e11b815260040160405180910390fd5b600080613c958484612b59565b60008060009054906101000a90046001600160a01b03166001600160a01b03166304baed9e6040518163ffffffff1660e01b8152600401602060405180830381865afa158015613ce9573d6000803e3d6000fd5b505050506040513d601f19601f82011682018060405250810190613d0d9190614f25565b6001600160a01b031663fc0c546a6040518163ffffffff1660e01b8152600401602060405180830381865afa158015613d4a573d6000803e3d6000fd5b505050506040513d601f19601f82011682018060405250810190613d6e9190614f25565b9050613d81613d7b612938565b86614493565b60408051808201909152601c81527f5f6275794f7264657228616464726573732c75696e742c75696e7429000000006020909101526000808080613de47fdb2c93faffa8f98d8bcd55cf740e8ead65ac1699aaf6ee8a00820485fc802af6612b9b565b93509350935093506000806000613dfe8c86606d54612bc4565b91945092509050613e0f818361519d565b9850613e1c8789846140ed565b8015613e2b57613e2b81614162565b6000613e3684612c93565b9050809a50613e4781866000612bc4565b5093509050613e56878461408f565b8b811015613e7757604051637ac6ada560e01b815260040160405180910390fd5b613e818e826144be565b8d6001600160a01b03167fd150a324c4fc8346977d1499aa36cac8c85e6af24bf1486022fad77d05f8b19f8e83613eb6612938565b6040805193845260208401929092526001600160a01b03169082015260600160405180910390a2505050505050505050935093915050565b7ff0c57e16840df040f15088dc2f81fe391c3923bec73e23a9662efc9c229c6a005468010000000000000000900460ff1661307257604051631afcd79f60e31b815260040160405180910390fd5b6000816060015151600003613f5357506000919050565b816080015151600003613f6857506000919050565b8151158015613f7957506020820151155b8015613f8757506040820151155b15613f9457506000919050565b506001919050565b604080516001600160a01b038416602482015260448082018490528251808303909101815260649091019091526020810180516001600160e01b031663095ea7b360e01b179052613fed84826144f7565b611988576040516001600160a01b0384811660248301526000604483015261402291869182169063095ea7b390606401612e7d565b6119888482613bfb565b606c54604051632770a7eb60e21b81526001600160a01b0384811660048301526024820184905290911690639dc29fac906044015b600060405180830381600087803b15801561407b57600080fd5b505af1158015612598573d6000803e3d6000fd5b80156112795761409e82612e14565b6140a882826144be565b6040518181526001600160a01b0383169030907f11a26a26a718a46d85815d79165470744429ab0f3093113929c59c097bbebb9a906020015b60405180910390a35050565b8015612724576140fc83612e14565b6141106001600160a01b0383168483612e50565b826001600160a01b0316826001600160a01b03167f81535d361819544361f80ddbe5071aef378a8ecba1c52f2c45fe3335234c43318360405161415591815260200190565b60405180910390a3505050565b6040518181527fe80fee25b848daa361e28d2bb55a5631cb9e084202ab3d22e444ceac1c8b320a9060200160405180910390a150565b60da80549060006141a883615125565b9190505560d9819055508160db60008282546141c4919061519d565b90915550600090506141d68284615003565b905060006040518060c001604052806141ed612938565b6001600160a01b0316815260200161420d60d6546001600160a01b031690565b6001600160a01b031681526020018581526020014281526020016000815260200142815250905061423d8161459f565b60008054906101000a90046001600160a01b03166001600160a01b031663f1c6bdf86040518163ffffffff1660e01b8152600401602060405180830381865afa15801561428e573d6000803e3d6000fd5b505050506040513d601f19601f820116820180604052508101906142b29190614f25565b60405163e151fc6160e01b81523060048201526001600160a01b03919091169063e151fc6190602401600060405180830381600087803b1580156142f557600080fd5b505af1158015614309573d6000803e3d6000fd5b50505050856001600160a01b031661431f612938565b6001600160a01b031660d9547f18df22c803b4d40ce64b29b435886837b6a7b99ed0de6b8ec6ec28ed4bb877dd8860d560009054906101000a90046001600160a01b03166001600160a01b031663098f5a206040518163ffffffff1660e01b8152600401602060405180830381865afa1580156143a0573d6000803e3d6000fd5b505050506040513d601f19601f820116820180604052508101906143c49190614f42565b8960a2548a8a6143dc60d6546001600160a01b031690565b4260026040516143f4999897969594939291906154a4565b60405180910390a4856001600160a01b03167f7debc712939ce2028bbca7ca90cc85e8fb59a7772e041423d3ec1588af4730ed8686614431612938565b6040805193845260208401929092526001600160a01b03169082015260600160405180910390a2505050505050565b60006001600160e01b0319821663286309c760e01b1480610737575061073782614754565b6060612e0d83836000614789565b60dc546112799083906001600160a01b03610100909104168361286b60d6546001600160a01b031690565b606c546040516340c10f1960e01b81526001600160a01b03848116600483015260248201849052909116906340c10f1990604401614061565b6000806000846001600160a01b0316846040516145149190615033565b6000604051808303816000865af19150503d8060008114614551576040519150601f19603f3d011682016040523d82523d6000602084013e614556565b606091505b50915091508180156145805750805115806145805750808060200190518101906145809190615016565b801561459657506000856001600160a01b03163b115b95945050505050565b806145a981614826565b81604001516039600084602001516001600160a01b03166001600160a01b0316815260200190815260200160002060008282546145e6919061519d565b909155505060388054600181018255600091909152825160069091027f38395c5dceade9603479b177b68959049485df8aa97b39f3533039af5f456199810180546001600160a01b039384166001600160a01b0319918216811790925560208601517f38395c5dceade9603479b177b68959049485df8aa97b39f3533039af5f45619a8401805491909516911681179093556040808601517f38395c5dceade9603479b177b68959049485df8aa97b39f3533039af5f45619b840181905560608701517f38395c5dceade9603479b177b68959049485df8aa97b39f3533039af5f45619c85015560808701517f38395c5dceade9603479b177b68959049485df8aa97b39f3533039af5f45619d85015560a08701517f38395c5dceade9603479b177b68959049485df8aa97b39f3533039af5f45619e909401939093555190917f21b8b94494ef1aff6ce0f5f3741800bdb27204fd430c1280b54d4cc653ae6f3a916140e191815260200190565b60006001600160e01b0319821663e328951160e01b148061073757506301ffc9a760e01b6001600160e01b0319831614610737565b6060814710156147ae5760405163cd78605960e01b815230600482015260240161084b565b600080856001600160a01b031684866040516147ca9190615033565b60006040518083038185875af1925050503d8060008114614807576040519150601f19603f3d011682016040523d82523d6000602084013e61480c565b606091505b509150915061481c86838361491e565b9695505050505050565b6000546001600160a01b03166001600160a01b031663f1c6bdf86040518163ffffffff1660e01b8152600401602060405180830381865afa15801561486f573d6000803e3d6000fd5b505050506040513d601f19601f820116820180604052508101906148939190614f25565b6001600160a01b03166308fd683d826040518263ffffffff1660e01b81526004016148be9190615516565b6020604051808303816000875af11580156148dd573d6000803e3d6000fd5b505050506040513d601f19601f820116820180604052508101906149019190615016565b61085d5760405163349a262760e01b815260040160405180910390fd5b6060826149335761492e8261497a565b612e0d565b815115801561494a57506001600160a01b0384163b155b1561497357604051639996b31560e01b81526001600160a01b038516600482015260240161084b565b5080612e0d565b80511561498a5780518082602001fd5b604051630a12f52160e11b815260040160405180910390fd5b508054600082556006029060005260206000209081019061085d91905b80821115614a075780546001600160a01b031990811682556001820180549091169055600060028201819055600382018190556004820181905560058201556006016149c0565b5090565b600060208284031215614a1d57600080fd5b81356001600160e01b031981168114612e0d57600080fd5b600060208284031215614a4757600080fd5b5035919050565b6001600160a01b038116811461085d57600080fd5b600060208284031215614a7557600080fd5b8135612e0d81614a4e565b600080600060408486031215614a9557600080fd5b83359250602084013567ffffffffffffffff80821115614ab457600080fd5b818601915086601f830112614ac857600080fd5b813581811115614ad757600080fd5b8760208260051b8501011115614aec57600080fd5b6020830194508093505050509250925092565b60005b83811015614b1a578181015183820152602001614b02565b50506000910152565b60008151808452614b3b816020860160208601614aff565b601f01601f19169290920160200192915050565b602081526000612e0d6020830184614b23565b60008060408385031215614b7557600080fd5b8235614b8081614a4e565b946020939093013593505050565b60008060408385031215614ba157600080fd5b823591506020830135614bb381614a4e565b809150509250929050565b60008151808452602080850194506020840160005b83811015614c3b57614c288783516001600160a01b038082511683528060208301511660208401525060408101516040830152606081015160608301526080810151608083015260a081015160a08301525050565b60c0969096019590820190600101614bd3565b509495945050505050565b602081526000612e0d6020830184614bbe565b801515811461085d57600080fd5b600060208284031215614c7957600080fd5b8135612e0d81614c59565b600080600060608486031215614c9957600080fd5b8335614ca481614a4e565b95602085013595506040909401359392505050565b634e487b7160e01b600052604160045260246000fd5b60405160a0810167ffffffffffffffff81118282101715614cf257614cf2614cb9565b60405290565b600082601f830112614d0957600080fd5b813567ffffffffffffffff80821115614d2457614d24614cb9565b604051601f8301601f19908116603f01168101908282118183101715614d4c57614d4c614cb9565b81604052838152866020858801011115614d6557600080fd5b836020870160208301376000602085830101528094505050505092915050565b600080600060608486031215614d9a57600080fd5b8335614da581614a4e565b9250602084013567ffffffffffffffff80821115614dc257600080fd5b9085019060a08288031215614dd657600080fd5b614dde614ccf565b823581526020830135602082015260408301356040820152606083013582811115614e0857600080fd5b614e1489828601614cf8565b606083015250608083013582811115614e2c57600080fd5b614e3889828601614cf8565b60808301525093506040860135915080821115614e5457600080fd5b50614e6186828701614cf8565b9150509250925092565b606081526000614e7e6060830186614bbe565b82810360208481019190915285518083528682019282019060005b81811015614ebe5784516001600160a01b031683529383019391830191600101614e99565b50508481036040860152855180825290820192508186019060005b81811015614ef557825185529383019391830191600101614ed9565b509298975050505050505050565b60008060408385031215614f1657600080fd5b50508035926020909101359150565b600060208284031215614f3757600080fd5b8151612e0d81614a4e565b600060208284031215614f5457600080fd5b5051919050565b83815260406020808301829052908201839052600090849060608401835b86811015614fa7578335614f8c81614a4e565b6001600160a01b031682529282019290820190600101614f79565b50979650505050505050565b600181811c90821680614fc757607f821691505b602082108103614fe757634e487b7160e01b600052602260045260246000fd5b50919050565b634e487b7160e01b600052601160045260246000fd5b8181038181111561073757610737614fed565b60006020828403121561502857600080fd5b8151612e0d81614c59565b60008251615045818460208701614aff565b9190910192915050565b60008060008060008060008060006101208a8c03121561506e57600080fd5b895161507981614a4e565b60208b015190995061508a81614a4e565b60408b015190985061509b81614a4e565b60608b01519097506150ac81614a4e565b8096505060808a0151945060a08a0151935060c08a0151925060e08a015191506101008a01516150db81614c59565b809150509295985092959850929598565b6000602082840312156150fe57600080fd5b815160ff81168114612e0d57600080fd5b634e487b7160e01b600052603260045260246000fd5b60006001820161513757615137614fed565b5060010190565b6000808585111561514e57600080fd5b8386111561515b57600080fd5b5050820193919092039150565b6bffffffffffffffffffffffff1981358181169160148510156151955780818660140360031b1b83161692505b505092915050565b8082018082111561073757610737614fed565b808202811582820484141761073757610737614fed565b6000826151e457634e487b7160e01b600052601260045260246000fd5b500490565b8381526060602082015260006152026060830185614b23565b828103604084015261481c8185614b23565b601f821115612724576000816000526020600020601f850160051c8101602086101561523d5750805b601f850160051c820191505b8181101561259857828155600101615249565b815167ffffffffffffffff81111561527657615276614cb9565b61528a816152848454614fb3565b84615214565b602080601f8311600181146152bf57600084156152a75750858301515b600019600386901b1c1916600185901b178555612598565b600085815260208120601f198616915b828110156152ee578886015182559484019460019091019084016152cf565b508582101561530c5787850151600019600388901b60f8161c191681555b5050505050600190811b01905550565b602081528151602082015260208201516040820152604082015160608201526000606083015160a0608084015261535660c0840182614b23565b90506080840151601f198483030160a08501526145968282614b23565b6000806040838503121561538657600080fd5b825191506020830151614bb381614a4e565b60ff828116828216039081111561073757610737614fed565b600181815b808511156153ec5781600019048211156153d2576153d2614fed565b808516156153df57918102915b93841c93908002906153b6565b509250929050565b60008261540357506001610737565b8161541057506000610737565b816001811461542657600281146154305761544c565b6001915050610737565b60ff84111561544157615441614fed565b50506001821b610737565b5060208310610133831016604e8410600b841016171561546f575081810a610737565b61547983836153b1565b806000190482111561548d5761548d614fed565b029392505050565b6000612e0d60ff8416836153f4565b6000610120820190508a82528960208301528860408301528760608301528660808301528560a08301526001600160a01b03851660c08301528360e08301526003831061550157634e487b7160e01b600052602160045260246000fd5b826101008301529a9950505050505050505050565b60c0810161073782846001600160a01b038082511683528060208301511660208401525060408101516040830152606081015160608301526080810151608083015260a081015160a0830152505056fea264697066735822122096272fb678c93e59e71a64ddfaaf833bc1eb06dcd96fba70a6dd44fb4c55cd3b64736f6c63430008170033",
    "linkReferences": {}
  },
  "methodIdentifiers": {
    "QUEUE_MANAGER_ROLE()": "b7ae632f",
    "WHITELIST_ROLE()": "7a997ab7",
    "amountPaid(address,uint256)": "b33ec618",
    "buy(uint256,uint256)": "d6febde8",
    "buyFee()": "47062402",
    "buyFor(address,uint256,uint256)": "935b7dbd",
    "buyIsOpen()": "c6829ba2",
    "calculatePurchaseReturn(uint256)": "322d2100",
    "calculateSaleReturn(uint256)": "69fcd4ac",
    "closeBuy()": "c6ab5cdc",
    "closeSell()": "ba83c970",
    "collectPaymentOrders()": "c0231ff6",
    "depositReserve(uint256)": "f42d48a1",
    "executeRedemptionQueue()": "683c9dad",
    "getBuyFee()": "8f818b90",
    "getIssuanceToken()": "1ca3bc4f",
    "getMaxBuyFee()": "ba360dd4",
    "getMaxSellFee()": "3fe7b1a6",
    "getNextOrderId()": "8158900b",
    "getOpenRedemptionAmount()": "1835f541",
    "getOrderId()": "a8496426",
    "getProjectTreasury()": "2c2ee2b5",
    "getSellFee()": "289af0d8",
    "getStaticPriceForBuying()": "fa03330c",
    "getStaticPriceForSelling()": "bd098404",
    "grantModuleRole(bytes32,address)": "6c67e807",
    "grantModuleRoleBatched(bytes32,address[])": "272bbd44",
    "identifier()": "7998a1c4",
    "init(address,(uint256,uint256,uint256,string,string),bytes)": "b66a870c",
    "isDirectOperationsOnly()": "263b6d48",
    "isTrustedForwarder(address)": "572b6c05",
    "openBuy()": "d4a67930",
    "openSell()": "f1eae64a",
    "orchestrator()": "b74795d9",
    "outstandingTokenAmount(address)": "2e84db5f",
    "paymentOrders()": "75fa0b76",
    "projectCollateralFeeCollected()": "cbda8f82",
    "revokeModuleRole(bytes32,address)": "bcb61920",
    "revokeModuleRoleBatched(bytes32,address[])": "24e30270",
    "sell(uint256,uint256)": "d79875eb",
    "sellFee()": "2b14ca56",
    "sellIsOpen()": "9093b01f",
    "sellTo(address,uint256,uint256)": "c5b27dde",
    "setBuyFee(uint256)": "0cc835a3",
    "setIsDirectOperationsOnly(bool)": "844b2d43",
    "setProjectTreasury(address)": "1e96bb9e",
    "setSellFee(uint256)": "8b4cee08",
    "supportsInterface(bytes4)": "01ffc9a7",
    "title()": "4a79d50c",
    "token()": "fc0c546a",
    "transferOrchestratorToken(address,uint256)": "759cc4b5",
    "trustedForwarder()": "7da0a877",
    "url()": "5600f04f",
    "version()": "54fd4d50",
    "withdrawProjectCollateralFee(address,uint256)": "4f893bba"
  },
  "id": 128
}