{
  "abi": [
    {
      "type": "function",
      "name": "WHITELIST_ROLE",
      "inputs": [],
      "outputs": [
        {
          "name": "",
          "type": "bytes32",
          "internalType": "bytes32"
        }
      ],
      "stateMutability": "view"
    },
    {
      "type": "function",
      "name": "amountPaid",
      "inputs": [
        {
          "name": "token",
          "type": "address",
          "internalType": "address"
        },
        {
          "name": "amount",
          "type": "uint256",
          "internalType": "uint256"
        }
      ],
      "outputs": [],
      "stateMutability": "nonpayable"
    },
    {
      "type": "function",
      "name": "buy",
      "inputs": [
        {
          "name": "collateralAmount_",
          "type": "uint256",
          "internalType": "uint256"
        },
        {
          "name": "minAmountOut_",
          "type": "uint256",
          "internalType": "uint256"
        }
      ],
      "outputs": [],
      "stateMutability": "nonpayable"
    },
    {
      "type": "function",
      "name": "buyFee",
      "inputs": [],
      "outputs": [
        {
          "name": "",
          "type": "uint256",
          "internalType": "uint256"
        }
      ],
      "stateMutability": "view"
    },
    {
      "type": "function",
      "name": "buyFor",
      "inputs": [
        {
          "name": "receiver_",
          "type": "address",
          "internalType": "address"
        },
        {
          "name": "depositAmount_",
          "type": "uint256",
          "internalType": "uint256"
        },
        {
          "name": "minAmountOut_",
          "type": "uint256",
          "internalType": "uint256"
        }
      ],
      "outputs": [],
      "stateMutability": "nonpayable"
    },
    {
      "type": "function",
      "name": "buyIsOpen",
      "inputs": [],
      "outputs": [
        {
          "name": "",
          "type": "bool",
          "internalType": "bool"
        }
      ],
      "stateMutability": "view"
    },
    {
      "type": "function",
      "name": "calculatePurchaseReturn",
      "inputs": [
        {
          "name": "_depositAmount",
          "type": "uint256",
          "internalType": "uint256"
        }
      ],
      "outputs": [
        {
          "name": "mintAmount",
          "type": "uint256",
          "internalType": "uint256"
        }
      ],
      "stateMutability": "view"
    },
    {
      "type": "function",
      "name": "calculateSaleReturn",
      "inputs": [
        {
          "name": "_depositAmount",
          "type": "uint256",
          "internalType": "uint256"
        }
      ],
      "outputs": [
        {
          "name": "redeemAmount",
          "type": "uint256",
          "internalType": "uint256"
        }
      ],
      "stateMutability": "view"
    },
    {
      "type": "function",
      "name": "closeBuy",
      "inputs": [],
      "outputs": [],
      "stateMutability": "nonpayable"
    },
    {
      "type": "function",
      "name": "closeSell",
      "inputs": [],
      "outputs": [],
      "stateMutability": "nonpayable"
    },
    {
      "type": "function",
      "name": "collectPaymentOrders",
      "inputs": [],
      "outputs": [
        {
          "name": "",
          "type": "tuple[]",
          "internalType": "struct IERC20PaymentClientBase_v1.PaymentOrder[]",
          "components": [
            {
              "name": "recipient",
              "type": "address",
              "internalType": "address"
            },
            {
              "name": "paymentToken",
              "type": "address",
              "internalType": "address"
            },
            {
              "name": "amount",
              "type": "uint256",
              "internalType": "uint256"
            },
            {
              "name": "start",
              "type": "uint256",
              "internalType": "uint256"
            },
            {
              "name": "cliff",
              "type": "uint256",
              "internalType": "uint256"
            },
            {
              "name": "end",
              "type": "uint256",
              "internalType": "uint256"
            }
          ]
        },
        {
          "name": "",
          "type": "address[]",
          "internalType": "address[]"
        },
        {
          "name": "",
          "type": "uint256[]",
          "internalType": "uint256[]"
        }
      ],
      "stateMutability": "nonpayable"
    },
    {
      "type": "function",
      "name": "depositReserve",
      "inputs": [
        {
          "name": "amount_",
          "type": "uint256",
          "internalType": "uint256"
        }
      ],
      "outputs": [],
      "stateMutability": "nonpayable"
    },
    {
      "type": "function",
      "name": "getBuyFee",
      "inputs": [],
      "outputs": [
        {
          "name": "buyFee_",
          "type": "uint256",
          "internalType": "uint256"
        }
      ],
      "stateMutability": "view"
    },
    {
      "type": "function",
      "name": "getIsDirectOperationsOnly",
      "inputs": [],
      "outputs": [
        {
          "name": "isDirectOnly_",
          "type": "bool",
          "internalType": "bool"
        }
      ],
      "stateMutability": "view"
    },
    {
      "type": "function",
      "name": "getIssuanceToken",
      "inputs": [],
      "outputs": [
        {
          "name": "",
          "type": "address",
          "internalType": "address"
        }
      ],
      "stateMutability": "view"
    },
    {
      "type": "function",
      "name": "getMaxBuyFee",
      "inputs": [],
      "outputs": [
        {
          "name": "maxBuyFee_",
          "type": "uint256",
          "internalType": "uint256"
        }
      ],
      "stateMutability": "view"
    },
    {
      "type": "function",
      "name": "getMaxProjectSellFee",
      "inputs": [],
      "outputs": [
        {
          "name": "maxProjectSellFee_",
          "type": "uint256",
          "internalType": "uint256"
        }
      ],
      "stateMutability": "view"
    },
    {
      "type": "function",
      "name": "getNextOrderId",
      "inputs": [],
      "outputs": [
        {
          "name": "orderId_",
          "type": "uint256",
          "internalType": "uint256"
        }
      ],
      "stateMutability": "view"
    },
    {
      "type": "function",
      "name": "getOpenRedemptionAmount",
      "inputs": [],
      "outputs": [
        {
          "name": "amount_",
          "type": "uint256",
          "internalType": "uint256"
        }
      ],
      "stateMutability": "view"
    },
    {
      "type": "function",
      "name": "getOrderId",
      "inputs": [],
      "outputs": [
        {
          "name": "orderId_",
          "type": "uint256",
          "internalType": "uint256"
        }
      ],
      "stateMutability": "view"
    },
    {
      "type": "function",
      "name": "getProjectTreasury",
      "inputs": [],
      "outputs": [
        {
          "name": "treasury_",
          "type": "address",
          "internalType": "address"
        }
      ],
      "stateMutability": "view"
    },
    {
      "type": "function",
      "name": "getSellFee",
      "inputs": [],
      "outputs": [
        {
          "name": "fee_",
          "type": "uint256",
          "internalType": "uint256"
        }
      ],
      "stateMutability": "view"
    },
    {
      "type": "function",
      "name": "getStaticPriceForBuying",
      "inputs": [],
      "outputs": [
        {
          "name": "buyPrice_",
          "type": "uint256",
          "internalType": "uint256"
        }
      ],
      "stateMutability": "view"
    },
    {
      "type": "function",
      "name": "getStaticPriceForSelling",
      "inputs": [],
      "outputs": [
        {
          "name": "sellPrice_",
          "type": "uint256",
          "internalType": "uint256"
        }
      ],
      "stateMutability": "view"
    },
    {
      "type": "function",
      "name": "grantModuleRole",
      "inputs": [
        {
          "name": "role",
          "type": "bytes32",
          "internalType": "bytes32"
        },
        {
          "name": "target",
          "type": "address",
          "internalType": "address"
        }
      ],
      "outputs": [],
      "stateMutability": "nonpayable"
    },
    {
      "type": "function",
      "name": "grantModuleRoleBatched",
      "inputs": [
        {
          "name": "role",
          "type": "bytes32",
          "internalType": "bytes32"
        },
        {
          "name": "targets",
          "type": "address[]",
          "internalType": "address[]"
        }
      ],
      "outputs": [],
      "stateMutability": "nonpayable"
    },
    {
      "type": "function",
      "name": "identifier",
      "inputs": [],
      "outputs": [
        {
          "name": "",
          "type": "bytes32",
          "internalType": "bytes32"
        }
      ],
      "stateMutability": "view"
    },
    {
      "type": "function",
      "name": "init",
      "inputs": [
        {
          "name": "orchestrator_",
          "type": "address",
          "internalType": "contract IOrchestrator_v1"
        },
        {
          "name": "metadata_",
          "type": "tuple",
          "internalType": "struct IModule_v1.Metadata",
          "components": [
            {
              "name": "majorVersion",
              "type": "uint256",
              "internalType": "uint256"
            },
            {
              "name": "minorVersion",
              "type": "uint256",
              "internalType": "uint256"
            },
            {
              "name": "patchVersion",
              "type": "uint256",
              "internalType": "uint256"
            },
            {
              "name": "url",
              "type": "string",
              "internalType": "string"
            },
            {
              "name": "title",
              "type": "string",
              "internalType": "string"
            }
          ]
        },
        {
          "name": "configData_",
          "type": "bytes",
          "internalType": "bytes"
        }
      ],
      "outputs": [],
      "stateMutability": "nonpayable"
    },
    {
      "type": "function",
      "name": "isTrustedForwarder",
      "inputs": [
        {
          "name": "forwarder",
          "type": "address",
          "internalType": "address"
        }
      ],
      "outputs": [
        {
          "name": "",
          "type": "bool",
          "internalType": "bool"
        }
      ],
      "stateMutability": "view"
    },
    {
      "type": "function",
      "name": "openBuy",
      "inputs": [],
      "outputs": [],
      "stateMutability": "nonpayable"
    },
    {
      "type": "function",
      "name": "openSell",
      "inputs": [],
      "outputs": [],
      "stateMutability": "nonpayable"
    },
    {
      "type": "function",
      "name": "orchestrator",
      "inputs": [],
      "outputs": [
        {
          "name": "",
          "type": "address",
          "internalType": "contract IOrchestrator_v1"
        }
      ],
      "stateMutability": "view"
    },
    {
      "type": "function",
      "name": "outstandingTokenAmount",
      "inputs": [
        {
          "name": "_token",
          "type": "address",
          "internalType": "address"
        }
      ],
      "outputs": [
        {
          "name": "",
          "type": "uint256",
          "internalType": "uint256"
        }
      ],
      "stateMutability": "view"
    },
    {
      "type": "function",
      "name": "paymentOrders",
      "inputs": [],
      "outputs": [
        {
          "name": "",
          "type": "tuple[]",
          "internalType": "struct IERC20PaymentClientBase_v1.PaymentOrder[]",
          "components": [
            {
              "name": "recipient",
              "type": "address",
              "internalType": "address"
            },
            {
              "name": "paymentToken",
              "type": "address",
              "internalType": "address"
            },
            {
              "name": "amount",
              "type": "uint256",
              "internalType": "uint256"
            },
            {
              "name": "start",
              "type": "uint256",
              "internalType": "uint256"
            },
            {
              "name": "cliff",
              "type": "uint256",
              "internalType": "uint256"
            },
            {
              "name": "end",
              "type": "uint256",
              "internalType": "uint256"
            }
          ]
        }
      ],
      "stateMutability": "view"
    },
    {
      "type": "function",
      "name": "projectCollateralFeeCollected",
      "inputs": [],
      "outputs": [
        {
          "name": "",
          "type": "uint256",
          "internalType": "uint256"
        }
      ],
      "stateMutability": "view"
    },
    {
      "type": "function",
      "name": "revokeModuleRole",
      "inputs": [
        {
          "name": "role",
          "type": "bytes32",
          "internalType": "bytes32"
        },
        {
          "name": "target",
          "type": "address",
          "internalType": "address"
        }
      ],
      "outputs": [],
      "stateMutability": "nonpayable"
    },
    {
      "type": "function",
      "name": "revokeModuleRoleBatched",
      "inputs": [
        {
          "name": "role",
          "type": "bytes32",
          "internalType": "bytes32"
        },
        {
          "name": "targets",
          "type": "address[]",
          "internalType": "address[]"
        }
      ],
      "outputs": [],
      "stateMutability": "nonpayable"
    },
    {
      "type": "function",
      "name": "sell",
      "inputs": [
        {
          "name": "depositAmount_",
          "type": "uint256",
          "internalType": "uint256"
        },
        {
          "name": "minAmountOut_",
          "type": "uint256",
          "internalType": "uint256"
        }
      ],
      "outputs": [],
      "stateMutability": "nonpayable"
    },
    {
      "type": "function",
      "name": "sellFee",
      "inputs": [],
      "outputs": [
        {
          "name": "",
          "type": "uint256",
          "internalType": "uint256"
        }
      ],
      "stateMutability": "view"
    },
    {
      "type": "function",
      "name": "sellIsOpen",
      "inputs": [],
      "outputs": [
        {
          "name": "",
          "type": "bool",
          "internalType": "bool"
        }
      ],
      "stateMutability": "view"
    },
    {
      "type": "function",
      "name": "sellTo",
      "inputs": [
        {
          "name": "receiver_",
          "type": "address",
          "internalType": "address"
        },
        {
          "name": "depositAmount_",
          "type": "uint256",
          "internalType": "uint256"
        },
        {
          "name": "minAmountOut_",
          "type": "uint256",
          "internalType": "uint256"
        }
      ],
      "outputs": [],
      "stateMutability": "nonpayable"
    },
    {
      "type": "function",
      "name": "setBuyFee",
      "inputs": [
        {
          "name": "fee_",
          "type": "uint256",
          "internalType": "uint256"
        }
      ],
      "outputs": [],
      "stateMutability": "nonpayable"
    },
    {
      "type": "function",
      "name": "setIsDirectOperationsOnly",
      "inputs": [
        {
          "name": "isDirectOperationsOnly_",
          "type": "bool",
          "internalType": "bool"
        }
      ],
      "outputs": [],
      "stateMutability": "nonpayable"
    },
    {
      "type": "function",
      "name": "setOracleAddress",
      "inputs": [
        {
          "name": "oracle_",
          "type": "address",
          "internalType": "address"
        }
      ],
      "outputs": [],
      "stateMutability": "nonpayable"
    },
    {
      "type": "function",
      "name": "setProjectTreasury",
      "inputs": [
        {
          "name": "projectTreasury_",
          "type": "address",
          "internalType": "address"
        }
      ],
      "outputs": [],
      "stateMutability": "nonpayable"
    },
    {
      "type": "function",
      "name": "setSellFee",
      "inputs": [
        {
          "name": "fee_",
          "type": "uint256",
          "internalType": "uint256"
        }
      ],
      "outputs": [],
      "stateMutability": "nonpayable"
    },
    {
      "type": "function",
      "name": "supportsInterface",
      "inputs": [
        {
          "name": "interfaceId_",
          "type": "bytes4",
          "internalType": "bytes4"
        }
      ],
      "outputs": [
        {
          "name": "isSupported_",
          "type": "bool",
          "internalType": "bool"
        }
      ],
      "stateMutability": "view"
    },
    {
      "type": "function",
      "name": "title",
      "inputs": [],
      "outputs": [
        {
          "name": "",
          "type": "string",
          "internalType": "string"
        }
      ],
      "stateMutability": "view"
    },
    {
      "type": "function",
      "name": "token",
      "inputs": [],
      "outputs": [
        {
          "name": "token_",
          "type": "address",
          "internalType": "contract IERC20"
        }
      ],
      "stateMutability": "view"
    },
    {
      "type": "function",
      "name": "transferOrchestratorToken",
      "inputs": [
        {
          "name": "to_",
          "type": "address",
          "internalType": "address"
        },
        {
          "name": "amount_",
          "type": "uint256",
          "internalType": "uint256"
        }
      ],
      "outputs": [],
      "stateMutability": "nonpayable"
    },
    {
      "type": "function",
      "name": "trustedForwarder",
      "inputs": [],
      "outputs": [
        {
          "name": "",
          "type": "address",
          "internalType": "address"
        }
      ],
      "stateMutability": "view"
    },
    {
      "type": "function",
      "name": "url",
      "inputs": [],
      "outputs": [
        {
          "name": "",
          "type": "string",
          "internalType": "string"
        }
      ],
      "stateMutability": "view"
    },
    {
      "type": "function",
      "name": "version",
      "inputs": [],
      "outputs": [
        {
          "name": "",
          "type": "uint256",
          "internalType": "uint256"
        },
        {
          "name": "",
          "type": "uint256",
          "internalType": "uint256"
        },
        {
          "name": "",
          "type": "uint256",
          "internalType": "uint256"
        }
      ],
      "stateMutability": "view"
    },
    {
      "type": "function",
      "name": "withdrawProjectCollateralFee",
      "inputs": [
        {
          "name": "_receiver",
          "type": "address",
          "internalType": "address"
        },
        {
          "name": "_amount",
          "type": "uint256",
          "internalType": "uint256"
        }
      ],
      "outputs": [],
      "stateMutability": "nonpayable"
    },
    {
      "type": "event",
      "name": "BuyFeeUpdated",
      "inputs": [
        {
          "name": "newBuyFee",
          "type": "uint256",
          "indexed": false,
          "internalType": "uint256"
        },
        {
          "name": "oldBuyFee",
          "type": "uint256",
          "indexed": false,
          "internalType": "uint256"
        }
      ],
      "anonymous": false
    },
    {
      "type": "event",
      "name": "BuyingDisabled",
      "inputs": [],
      "anonymous": false
    },
    {
      "type": "event",
      "name": "BuyingEnabled",
      "inputs": [],
      "anonymous": false
    },
    {
      "type": "event",
      "name": "Initialized",
      "inputs": [
        {
          "name": "version",
          "type": "uint64",
          "indexed": false,
          "internalType": "uint64"
        }
      ],
      "anonymous": false
    },
    {
      "type": "event",
      "name": "IssuanceTokenSet",
      "inputs": [
        {
          "name": "issuanceToken",
          "type": "address",
          "indexed": true,
          "internalType": "address"
        },
        {
          "name": "decimals",
          "type": "uint8",
          "indexed": false,
          "internalType": "uint8"
        }
      ],
      "anonymous": false
    },
    {
      "type": "event",
      "name": "ModuleInitialized",
      "inputs": [
        {
          "name": "parentOrchestrator",
          "type": "address",
          "indexed": true,
          "internalType": "address"
        },
        {
          "name": "metadata",
          "type": "tuple",
          "indexed": false,
          "internalType": "struct IModule_v1.Metadata",
          "components": [
            {
              "name": "majorVersion",
              "type": "uint256",
              "internalType": "uint256"
            },
            {
              "name": "minorVersion",
              "type": "uint256",
              "internalType": "uint256"
            },
            {
              "name": "patchVersion",
              "type": "uint256",
              "internalType": "uint256"
            },
            {
              "name": "url",
              "type": "string",
              "internalType": "string"
            },
            {
              "name": "title",
              "type": "string",
              "internalType": "string"
            }
          ]
        }
      ],
      "anonymous": false
    },
    {
      "type": "event",
      "name": "OrchestratorTokenSet",
      "inputs": [
        {
          "name": "token",
          "type": "address",
          "indexed": true,
          "internalType": "address"
        },
        {
          "name": "decimals",
          "type": "uint8",
          "indexed": false,
          "internalType": "uint8"
        }
      ],
      "anonymous": false
    },
    {
      "type": "event",
      "name": "PaymentOrderAdded",
      "inputs": [
        {
          "name": "recipient",
          "type": "address",
          "indexed": true,
          "internalType": "address"
        },
        {
          "name": "token",
          "type": "address",
          "indexed": true,
          "internalType": "address"
        },
        {
          "name": "amount",
          "type": "uint256",
          "indexed": false,
          "internalType": "uint256"
        }
      ],
      "anonymous": false
    },
    {
      "type": "event",
      "name": "ProjectCollateralFeeAdded",
      "inputs": [
        {
          "name": "amount",
          "type": "uint256",
          "indexed": false,
          "internalType": "uint256"
        }
      ],
      "anonymous": false
    },
    {
      "type": "event",
      "name": "ProjectCollateralFeeWithdrawn",
      "inputs": [
        {
          "name": "receiver",
          "type": "address",
          "indexed": false,
          "internalType": "address"
        },
        {
          "name": "amount",
          "type": "uint256",
          "indexed": false,
          "internalType": "uint256"
        }
      ],
      "anonymous": false
    },
    {
      "type": "event",
      "name": "ProtocolFeeMinted",
      "inputs": [
        {
          "name": "token",
          "type": "address",
          "indexed": true,
          "internalType": "address"
        },
        {
          "name": "treasury",
          "type": "address",
          "indexed": true,
          "internalType": "address"
        },
        {
          "name": "feeAmount",
          "type": "uint256",
          "indexed": false,
          "internalType": "uint256"
        }
      ],
      "anonymous": false
    },
    {
      "type": "event",
      "name": "ProtocolFeeTransferred",
      "inputs": [
        {
          "name": "token",
          "type": "address",
          "indexed": true,
          "internalType": "address"
        },
        {
          "name": "treasury",
          "type": "address",
          "indexed": true,
          "internalType": "address"
        },
        {
          "name": "feeAmount",
          "type": "uint256",
          "indexed": false,
          "internalType": "uint256"
        }
      ],
      "anonymous": false
    },
    {
      "type": "event",
      "name": "RedemptionOrderCreated",
      "inputs": [
        {
          "name": "orderId_",
          "type": "uint256",
          "indexed": true,
          "internalType": "uint256"
        },
        {
          "name": "seller_",
          "type": "address",
          "indexed": true,
          "internalType": "address"
        },
        {
          "name": "receiver_",
          "type": "address",
          "indexed": true,
          "internalType": "address"
        },
        {
          "name": "sellAmount_",
          "type": "uint256",
          "indexed": false,
          "internalType": "uint256"
        },
        {
          "name": "exchangeRate_",
          "type": "uint256",
          "indexed": false,
          "internalType": "uint256"
        },
        {
          "name": "collateralAmount_",
          "type": "uint256",
          "indexed": false,
          "internalType": "uint256"
        },
        {
          "name": "feePercentage_",
          "type": "uint256",
          "indexed": false,
          "internalType": "uint256"
        },
        {
          "name": "feeAmount_",
          "type": "uint256",
          "indexed": false,
          "internalType": "uint256"
        },
        {
          "name": "redemptionAmount_",
          "type": "uint256",
          "indexed": false,
          "internalType": "uint256"
        },
        {
          "name": "collateralToken_",
          "type": "address",
          "indexed": false,
          "internalType": "address"
        },
        {
          "name": "redemptionTime_",
          "type": "uint256",
          "indexed": false,
          "internalType": "uint256"
        },
        {
          "name": "state_",
          "type": "uint8",
          "indexed": false,
          "internalType": "enum IFM_PC_ExternalPrice_Redeeming_v1.RedemptionState"
        }
      ],
      "anonymous": false
    },
    {
      "type": "event",
      "name": "ReserveDeposited",
      "inputs": [
        {
          "name": "depositor_",
          "type": "address",
          "indexed": true,
          "internalType": "address"
        },
        {
          "name": "amount_",
          "type": "uint256",
          "indexed": false,
          "internalType": "uint256"
        }
      ],
      "anonymous": false
    },
    {
      "type": "event",
      "name": "SellFeeUpdated",
      "inputs": [
        {
          "name": "newSellFee",
          "type": "uint256",
          "indexed": false,
          "internalType": "uint256"
        },
        {
          "name": "oldSellFee",
          "type": "uint256",
          "indexed": false,
          "internalType": "uint256"
        }
      ],
      "anonymous": false
    },
    {
      "type": "event",
      "name": "SellingDisabled",
      "inputs": [],
      "anonymous": false
    },
    {
      "type": "event",
      "name": "SellingEnabled",
      "inputs": [],
      "anonymous": false
    },
    {
      "type": "event",
      "name": "TokenDecimalsUpdated",
      "inputs": [
        {
          "name": "oldDecimals",
          "type": "uint8",
          "indexed": false,
          "internalType": "uint8"
        },
        {
          "name": "newDecimals",
          "type": "uint8",
          "indexed": false,
          "internalType": "uint8"
        }
      ],
      "anonymous": false
    },
    {
      "type": "event",
      "name": "TokensBought",
      "inputs": [
        {
          "name": "receiver",
          "type": "address",
          "indexed": true,
          "internalType": "address"
        },
        {
          "name": "depositAmount",
          "type": "uint256",
          "indexed": false,
          "internalType": "uint256"
        },
        {
          "name": "receivedAmount",
          "type": "uint256",
          "indexed": false,
          "internalType": "uint256"
        },
        {
          "name": "buyer",
          "type": "address",
          "indexed": false,
          "internalType": "address"
        }
      ],
      "anonymous": false
    },
    {
      "type": "event",
      "name": "TokensSold",
      "inputs": [
        {
          "name": "receiver",
          "type": "address",
          "indexed": true,
          "internalType": "address"
        },
        {
          "name": "depositAmount",
          "type": "uint256",
          "indexed": false,
          "internalType": "uint256"
        },
        {
          "name": "receivedAmount",
          "type": "uint256",
          "indexed": false,
          "internalType": "uint256"
        },
        {
          "name": "seller",
          "type": "address",
          "indexed": false,
          "internalType": "address"
        }
      ],
      "anonymous": false
    },
    {
      "type": "event",
      "name": "TransferOrchestratorToken",
      "inputs": [
        {
          "name": "_to",
          "type": "address",
          "indexed": true,
          "internalType": "address"
        },
        {
          "name": "_amount",
          "type": "uint256",
          "indexed": false,
          "internalType": "uint256"
        }
      ],
      "anonymous": false
    },
    {
      "type": "error",
      "name": "AddressEmptyCode",
      "inputs": [
        {
          "name": "target",
          "type": "address",
          "internalType": "address"
        }
      ]
    },
    {
      "type": "error",
      "name": "AddressInsufficientBalance",
      "inputs": [
        {
          "name": "account",
          "type": "address",
          "internalType": "address"
        }
      ]
    },
    {
      "type": "error",
      "name": "FailedInnerCall",
      "inputs": []
    },
    {
      "type": "error",
      "name": "InvalidInitialization",
      "inputs": []
    },
    {
      "type": "error",
      "name": "Module_OrchestratorCallbackFailed",
      "inputs": [
        {
          "name": "funcSig",
          "type": "string",
          "internalType": "string"
        }
      ]
    },
    {
      "type": "error",
      "name": "Module__BondingCurveBase__BuyingFunctionaltiesClosed",
      "inputs": []
    },
    {
      "type": "error",
      "name": "Module__BondingCurveBase__FeeAmountToHigh",
      "inputs": []
    },
    {
      "type": "error",
      "name": "Module__BondingCurveBase__InsufficientOutputAmount",
      "inputs": []
    },
    {
      "type": "error",
      "name": "Module__BondingCurveBase__InvalidDepositAmount",
      "inputs": []
    },
    {
      "type": "error",
      "name": "Module__BondingCurveBase__InvalidFeePercentage",
      "inputs": []
    },
    {
      "type": "error",
      "name": "Module__BondingCurveBase__InvalidMinAmountOut",
      "inputs": []
    },
    {
      "type": "error",
      "name": "Module__BondingCurveBase__InvalidRecipient",
      "inputs": []
    },
    {
      "type": "error",
      "name": "Module__BondingCurveBase__InvalidWithdrawAmount",
      "inputs": []
    },
    {
      "type": "error",
      "name": "Module__BondingCurveBase__TradeAmountTooLow",
      "inputs": []
    },
    {
      "type": "error",
      "name": "Module__CallerNotAuthorized",
      "inputs": [
        {
          "name": "role",
          "type": "bytes32",
          "internalType": "bytes32"
        },
        {
          "name": "caller",
          "type": "address",
          "internalType": "address"
        }
      ]
    },
    {
      "type": "error",
      "name": "Module__ERC20PaymentClientBase__ArrayLengthMismatch",
      "inputs": []
    },
    {
      "type": "error",
      "name": "Module__ERC20PaymentClientBase__CallerNotAuthorized",
      "inputs": []
    },
    {
      "type": "error",
      "name": "Module__ERC20PaymentClientBase__InsufficientFunds",
      "inputs": [
        {
          "name": "token",
          "type": "address",
          "internalType": "address"
        }
      ]
    },
    {
      "type": "error",
      "name": "Module__ERC20PaymentClientBase__InvalidAmount",
      "inputs": []
    },
    {
      "type": "error",
      "name": "Module__ERC20PaymentClientBase__InvalidPaymentOrder",
      "inputs": []
    },
    {
      "type": "error",
      "name": "Module__ERC20PaymentClientBase__InvalidRecipient",
      "inputs": []
    },
    {
      "type": "error",
      "name": "Module__ERC20PaymentClientBase__InvalidToken",
      "inputs": []
    },
    {
      "type": "error",
      "name": "Module__ERC20PaymentClientBase__Invalidend",
      "inputs": []
    },
    {
      "type": "error",
      "name": "Module__ERC20PaymentClientBase__TokenTransferFailed",
      "inputs": []
    },
    {
      "type": "error",
      "name": "Module__FM_PC_ExternalPrice_Redeeming_FeeExceedsMaximum",
      "inputs": [
        {
          "name": "fee_",
          "type": "uint256",
          "internalType": "uint256"
        },
        {
          "name": "maxFee_",
          "type": "uint256",
          "internalType": "uint256"
        }
      ]
    },
    {
      "type": "error",
      "name": "Module__FM_PC_ExternalPrice_Redeeming_InvalidAmount",
      "inputs": []
    },
    {
      "type": "error",
      "name": "Module__FM_PC_ExternalPrice_Redeeming_InvalidOracleInterface",
      "inputs": []
    },
    {
      "type": "error",
      "name": "Module__FM_PC_ExternalPrice_Redeeming_InvalidProjectTreasury",
      "inputs": []
    },
    {
      "type": "error",
      "name": "Module__FM_PC_ExternalPrice_Redeeming_QueueExecutionFailed",
      "inputs": []
    },
    {
      "type": "error",
      "name": "Module__FM_PC_ExternalPrice_Redeeming_ThirdPartyOperationsDisabled",
      "inputs": []
    },
    {
      "type": "error",
      "name": "Module__InvalidAddress",
      "inputs": []
    },
    {
      "type": "error",
      "name": "Module__InvalidMetadata",
      "inputs": []
    },
    {
      "type": "error",
      "name": "Module__InvalidOrchestratorAddress",
      "inputs": []
    },
    {
      "type": "error",
      "name": "Module__OnlyCallableByOrchestrator",
      "inputs": []
    },
    {
      "type": "error",
      "name": "Module__OnlyCallableByPaymentClient",
      "inputs": []
    },
    {
      "type": "error",
      "name": "Module__RedeemingBondingCurveBase__InsufficientCollateralForRedemption",
      "inputs": []
    },
    {
      "type": "error",
      "name": "Module__RedeemingBondingCurveBase__SellingFunctionaltiesClosed",
      "inputs": []
    },
    {
      "type": "error",
      "name": "NotInitializing",
      "inputs": []
    },
    {
      "type": "error",
      "name": "SafeERC20FailedOperation",
      "inputs": [
        {
          "name": "token",
          "type": "address",
          "internalType": "address"
        }
      ]
    }
  ],
  "bytecode": {
    "object": "0x60a06040523480156200001157600080fd5b5060006080526200002162000027565b620000db565b7ff0c57e16840df040f15088dc2f81fe391c3923bec73e23a9662efc9c229c6a00805468010000000000000000900460ff1615620000785760405163f92ee8a960e01b815260040160405180910390fd5b80546001600160401b0390811614620000d85780546001600160401b0319166001600160401b0390811782556040519081527fc7f505b2f371ae2175ee4913f4499e1f2633a7b5936321eed1cdaeb6115181d29060200160405180910390a15b50565b6080516151f7620000f4600039600050506151f76000f3fe608060405234801561001057600080fd5b50600436106103625760003560e01c80638158900b116101c8578063bd09840411610104578063d4a67930116100a2578063f1eae64a1161007c578063f1eae64a146106c0578063f42d48a1146106c8578063fa03330c146106db578063fc0c546a146106e357600080fd5b8063d4a6793014610692578063d6febde81461069a578063d79875eb146106ad57600080fd5b8063c5b27dde116100de578063c5b27dde1461065a578063c6829ba21461066d578063c6ab5cdc14610681578063cbda8f821461068957600080fd5b8063bd09840414610630578063c0231ff614610638578063c35067ed1461064f57600080fd5b8063a849642611610171578063b74795d91161014b578063b74795d9146105fc578063ba360dd41461060d578063ba83c97014610615578063bcb619201461061d57600080fd5b8063a8496426146105ce578063b33ec618146105d6578063b66a870c146105e957600080fd5b80638f818b90116101a25780638f818b90146105a65780639093b01f146105ae578063935b7dbd146105bb57600080fd5b80638158900b14610578578063844b2d43146105805780638b4cee081461059357600080fd5b80634a79d50c116102a257806369fcd4ac1161024057806375fa0b761161021a57806375fa0b761461053b5780637998a1c4146105505780637a997ab7146105585780637da0a8771461057057600080fd5b806369fcd4ac146105025780636c67e80714610515578063759cc4b51461052857600080fd5b8063519cdc6f1161027c578063519cdc6f146104bb57806354fd4d50146104c35780635600f04f146104e7578063572b6c05146104ef57600080fd5b80634a79d50c146104805780634c69c00f146104955780634f893bba146104a857600080fd5b8063272bbd441161030f5780632c2ee2b5116102e95780632c2ee2b5146104255780632e84db5f1461043b578063322d210014610464578063470624021461047757600080fd5b8063272bbd4414610401578063289af0d8146104145780632b14ca561461041c57600080fd5b80631ca3bc4f116103405780631ca3bc4f146103b65780631e96bb9e146103db57806324e30270146103ee57600080fd5b806301ffc9a7146103675780630cc835a31461038f5780631835f541146103a4575b600080fd5b61037a61037536600461467a565b6106f4565b60405190151581526020015b60405180910390f35b6103a261039d3660046146a4565b61073a565b005b60db545b604051908152602001610386565b606c546001600160a01b03165b6040516001600160a01b039091168152602001610386565b6103a26103e93660046146d2565b61085d565b6103a26103fc3660046146ef565b6108b1565b6103a261040f3660046146ef565b610b32565b60a2546103a8565b6103a860a25481565b60dc5461010090046001600160a01b03166103c3565b6103a86104493660046146d2565b6001600160a01b031660009081526039602052604090205490565b6103a86104723660046146a4565b610d0c565b6103a8606d5481565b610488610db2565b60405161038691906147be565b6103a26104a33660046146d2565b610e47565b6103a26104b63660046147d1565b610e9b565b60d7546103a8565b60015460025460035460408051938452602084019290925290820152606001610386565b61048861105e565b61037a6104fd3660046146d2565b611070565b6103a86105103660046146a4565b6110df565b6103a26105233660046147fd565b61117d565b6103a26105363660046147d1565b611393565b6105436113f9565b60405161038691906148b5565b6103a861149c565b6103a86d57484954454c4953545f524f4c4560901b81565b6103c36115fa565b60da546103a8565b6103a261058e3660046148d6565b611672565b6103a26105a13660046146a4565b6116ce565b606d546103a8565b60a15461037a9060ff1681565b6103a26105c93660046148f3565b611753565b60d9546103a8565b6103a26105e43660046147d1565b61184f565b6103a26105f73660046149f4565b6118ad565b6000546001600160a01b03166103c3565b60d8546103a8565b6103a2611b5d565b6103a261062b3660046147fd565b611bdd565b6103a8611dbf565b610640611e2c565b60405161038693929190614ada565b60dc5460ff1661037a565b6103a26106683660046148f3565b6122e2565b606c5461037a90600160a01b900460ff1681565b6103a2612387565b6103a8606e5481565b6103a261240a565b6103a26106a8366004614b72565b612493565b6103a26106bb366004614b72565b612518565b6103a261259f565b6103a26106d63660046146a4565b612622565b6103a86126c0565b60d6546001600160a01b03166103c3565b60006001600160e01b03198216632c1c8c2d60e21b148061072557506001600160e01b0319821663899090df60e01b145b8061073457506107348261270a565b92915050565b6000546040805163d09edf3160e01b81529051610817926001600160a01b03169163d09edf319160048083019260209291908290030181865afa158015610785573d6000803e3d6000fd5b505050506040513d601f19601f820116820180604052508101906107a99190614b94565b6001600160a01b031663b3ecf2366040518163ffffffff1660e01b8152600401602060405180830381865afa1580156107e6573d6000803e3d6000fd5b505050506040513d601f19601f8201168201806040525081019061080a9190614bb1565b61081261272f565b612781565b60d8548111156108515760d85460405163960983cd60e01b8152610848918391600401918252602082015260400190565b60405180910390fd5b61085a81612898565b50565b6000546040805163d09edf3160e01b815290516108a8926001600160a01b03169163d09edf319160048083019260209291908290030181865afa158015610785573d6000803e3d6000fd5b61085a816128e3565b600080546040805163d09edf3160e01b815290518693926001600160a01b03169163d09edf319160048083019260209291908290030181865afa1580156108fc573d6000803e3d6000fd5b505050506040513d601f19601f820116820180604052508101906109209190614b94565b60405163fdd5205f60e01b8152306004820152602481018490526001600160a01b03919091169063fdd5205f90604401602060405180830381865afa15801561096d573d6000803e3d6000fd5b505050506040513d601f19601f820116820180604052508101906109919190614bb1565b9050610a5560008054906101000a90046001600160a01b03166001600160a01b031663d09edf316040518163ffffffff1660e01b8152600401602060405180830381865afa1580156109e7573d6000803e3d6000fd5b505050506040513d601f19601f82011682018060405250810190610a0b9190614b94565b6001600160a01b031663248a9ca3836040518263ffffffff1660e01b8152600401610a3891815260200190565b602060405180830381865afa1580156107e6573d6000803e3d6000fd5b60008054906101000a90046001600160a01b03166001600160a01b031663d09edf316040518163ffffffff1660e01b8152600401602060405180830381865afa158015610aa6573d6000803e3d6000fd5b505050506040513d601f19601f82011682018060405250810190610aca9190614b94565b6001600160a01b0316637d540a648686866040518463ffffffff1660e01b8152600401610af993929190614bca565b600060405180830381600087803b158015610b1357600080fd5b505af1158015610b27573d6000803e3d6000fd5b505050505050505050565b600080546040805163d09edf3160e01b815290518693926001600160a01b03169163d09edf319160048083019260209291908290030181865afa158015610b7d573d6000803e3d6000fd5b505050506040513d601f19601f82011682018060405250810190610ba19190614b94565b60405163fdd5205f60e01b8152306004820152602481018490526001600160a01b03919091169063fdd5205f90604401602060405180830381865afa158015610bee573d6000803e3d6000fd5b505050506040513d601f19601f82011682018060405250810190610c129190614bb1565b9050610c6860008054906101000a90046001600160a01b03166001600160a01b031663d09edf316040518163ffffffff1660e01b8152600401602060405180830381865afa1580156109e7573d6000803e3d6000fd5b60008054906101000a90046001600160a01b03166001600160a01b031663d09edf316040518163ffffffff1660e01b8152600401602060405180830381865afa158015610cb9573d6000803e3d6000fd5b505050506040513d601f19601f82011682018060405250810190610cdd9190614b94565b6001600160a01b031663648154538686866040518463ffffffff1660e01b8152600401610af993929190614bca565b6000610d19826001612949565b60408051808201909152601c81527f5f6275794f7264657228616464726573732c75696e742c75696e742900000000602090910152600080610d7a7fdb2c93faffa8f98d8bcd55cf740e8ead65ac1699aaf6ee8a00820485fc802af661298b565b935093505050610d8d8483606d546129b4565b50909450610da79050610d9f85612a83565b8260006129b4565b509095945050505050565b606060016004018054610dc490614c22565b80601f0160208091040260200160405190810160405280929190818152602001828054610df090614c22565b8015610e3d5780601f10610e1257610100808354040283529160200191610e3d565b820191906000526020600020905b815481529060010190602001808311610e2057829003601f168201915b5050505050905090565b6000546040805163d09edf3160e01b81529051610e92926001600160a01b03169163d09edf319160048083019260209291908290030181865afa158015610785573d6000803e3d6000fd5b61085a81612c04565b81610ea581612cb2565b6000546040805163d09edf3160e01b81529051610ef0926001600160a01b03169163d09edf319160048083019260209291908290030181865afa158015610785573d6000803e3d6000fd5b606e54821115610f13576040516347d1bcf560e01b815260040160405180910390fd5b81606e6000828254610f259190614c72565b92505081905550611017838360008054906101000a90046001600160a01b03166001600160a01b03166304baed9e6040518163ffffffff1660e01b8152600401602060405180830381865afa158015610f82573d6000803e3d6000fd5b505050506040513d601f19601f82011682018060405250810190610fa69190614b94565b6001600160a01b031663fc0c546a6040518163ffffffff1660e01b8152600401602060405180830381865afa158015610fe3573d6000803e3d6000fd5b505050506040513d601f19601f820116820180604052508101906110079190614b94565b6001600160a01b03169190612cee565b604080516001600160a01b0385168152602081018490527f9e9a785b42ae3ce89ea11b526c656a7cacbd520b83908336dc8c9f4e9be9135f910160405180910390a1505050565b606060016003018054610dc490614c22565b6000805460405163572b6c0560e01b81526001600160a01b0384811660048301529091169063572b6c0590602401602060405180830381865afa1580156110bb573d6000803e3d6000fd5b505050506040513d601f19601f820116820180604052508101906107349190614c85565b60006110ec826001612949565b60408051808201909152601d81527f5f73656c6c4f7264657228616464726573732c75696e742c75696e742900000060209091015260008061114d7f3299ac1e4997da1dd638584692e27ee6e952ca63f8284764a73c592284e1d9e861298b565b93509350505061115f848260006129b4565b5090945061116e905084612d62565b9250610da7838360a2546129b4565b600080546040805163d09edf3160e01b815290518593926001600160a01b03169163d09edf319160048083019260209291908290030181865afa1580156111c8573d6000803e3d6000fd5b505050506040513d601f19601f820116820180604052508101906111ec9190614b94565b60405163fdd5205f60e01b8152306004820152602481018490526001600160a01b03919091169063fdd5205f90604401602060405180830381865afa158015611239573d6000803e3d6000fd5b505050506040513d601f19601f8201168201806040525081019061125d9190614bb1565b90506112b360008054906101000a90046001600160a01b03166001600160a01b031663d09edf316040518163ffffffff1660e01b8152600401602060405180830381865afa1580156109e7573d6000803e3d6000fd5b60008054906101000a90046001600160a01b03166001600160a01b031663d09edf316040518163ffffffff1660e01b8152600401602060405180830381865afa158015611304573d6000803e3d6000fd5b505050506040513d601f19601f820116820180604052508101906113289190614b94565b60405163385e205560e21b8152600481018690526001600160a01b038581166024830152919091169063e1788154906044015b600060405180830381600087803b15801561137557600080fd5b505af1158015611389573d6000803e3d6000fd5b5050505050505050565b61139b612e04565b6113b2828261100760d6546001600160a01b031690565b816001600160a01b03167fe88292c5f714100904272672c0420345093bd0e3c5555d31f3e4e2cf5f6ca8a1826040516113ed91815260200190565b60405180910390a25050565b60606038805480602002602001604051908101604052809291908181526020016000905b828210156114935760008481526020908190206040805160c0810182526006860290920180546001600160a01b0390811684526001808301549091168486015260028201549284019290925260038101546060840152600481015460808401526005015460a0830152908352909201910161141d565b50505050905090565b60006115f560016040518060a00160405290816000820154815260200160018201548152602001600282015481526020016003820180546114dc90614c22565b80601f016020809104026020016040519081016040528092919081815260200182805461150890614c22565b80156115555780601f1061152a57610100808354040283529160200191611555565b820191906000526020600020905b81548152906001019060200180831161153857829003601f168201915b5050505050815260200160048201805461156e90614c22565b80601f016020809104026020016040519081016040528092919081815260200182805461159a90614c22565b80156115e75780601f106115bc576101008083540402835291602001916115e7565b820191906000526020600020905b8154815290600101906020018083116115ca57829003601f168201915b505050505081525050612f27565b905090565b60008060009054906101000a90046001600160a01b03166001600160a01b0316637da0a8776040518163ffffffff1660e01b8152600401602060405180830381865afa15801561164e573d6000803e3d6000fd5b505050506040513d601f19601f820116820180604052508101906115f59190614b94565b6000546040805163d09edf3160e01b815290516116bd926001600160a01b03169163d09edf319160048083019260209291908290030181865afa158015610785573d6000803e3d6000fd5b60dc805460ff191682151517905550565b6000546040805163d09edf3160e01b81529051611719926001600160a01b03169163d09edf319160048083019260209291908290030181865afa158015610785573d6000803e3d6000fd5b60d75481111561174a5760d75460405163960983cd60e01b8152610848918391600401918252602082015260400190565b61085a81612f67565b6d57484954454c4953545f524f4c4560901b61181260008054906101000a90046001600160a01b03166001600160a01b031663d09edf316040518163ffffffff1660e01b8152600401602060405180830381865afa1580156117b9573d6000803e3d6000fd5b505050506040513d601f19601f820116820180604052508101906117dd9190614b94565b60405163fdd5205f60e01b8152306004820152602481018490526001600160a01b03919091169063fdd5205f90604401610a38565b60dc5460ff161561183657604051635efada0360e01b815260040160405180910390fd5b61183e612fb2565b611849848484612fdc565b50505050565b61185f61185a61272f565b612ff9565b61187c5760405163e4597a6b60e01b815260040160405180910390fd5b6001600160a01b038216600090815260396020526040812080548392906118a4908490614c72565b90915550505050565b7ff0c57e16840df040f15088dc2f81fe391c3923bec73e23a9662efc9c229c6a00805468010000000000000000810460ff16159067ffffffffffffffff166000811580156118f85750825b905060008267ffffffffffffffff1660011480156119155750303b155b905081158015611923575080155b156119415760405163f92ee8a960e01b815260040160405180910390fd5b845467ffffffffffffffff19166001178555831561197557845468ff00000000000000001916680100000000000000001785555b61197f8888613079565b6000806000806000806000808d80602001905181019061199f9190614ca2565b975097509750975097509750975097508560d660006101000a8154816001600160a01b0302191690836001600160a01b0316021790555060d660009054906101000a90046001600160a01b03166001600160a01b031663313ce5676040518163ffffffff1660e01b8152600401602060405180830381865afa158015611a29573d6000803e3d6000fd5b505050506040513d601f19601f82011682018060405250810190611a4d9190614d2b565b60d660156101000a81548160ff021916908360ff160217905550611a7087613167565b81851115611a9b5760405163960983cd60e01b81526004810186905260248101839052604401610848565b82841115611ac65760405163960983cd60e01b81526004810185905260248101849052604401610848565b611acf886128e3565b611ad885612898565b611ae184612f67565b611aea8260d855565b611af38360d755565b60dc805460ff19168215151790555050505050505050831561138957845468ff000000000000000019168555604051600181527fc7f505b2f371ae2175ee4913f4499e1f2633a7b5936321eed1cdaeb6115181d29060200160405180910390a15050505050505050565b6000546040805163d09edf3160e01b81529051611ba8926001600160a01b03169163d09edf319160048083019260209291908290030181865afa158015610785573d6000803e3d6000fd5b60a1805460ff191690556040517fc34ae80cb7f967a799992108cfbc90770413d60555d5b0587a4c2c3e69c79ca490600090a1565b600080546040805163d09edf3160e01b815290518593926001600160a01b03169163d09edf319160048083019260209291908290030181865afa158015611c28573d6000803e3d6000fd5b505050506040513d601f19601f82011682018060405250810190611c4c9190614b94565b60405163fdd5205f60e01b8152306004820152602481018490526001600160a01b03919091169063fdd5205f90604401602060405180830381865afa158015611c99573d6000803e3d6000fd5b505050506040513d601f19601f82011682018060405250810190611cbd9190614bb1565b9050611d1360008054906101000a90046001600160a01b03166001600160a01b031663d09edf316040518163ffffffff1660e01b8152600401602060405180830381865afa1580156109e7573d6000803e3d6000fd5b60008054906101000a90046001600160a01b03166001600160a01b031663d09edf316040518163ffffffff1660e01b8152600401602060405180830381865afa158015611d64573d6000803e3d6000fd5b505050506040513d601f19601f82011682018060405250810190611d889190614b94565b604051632e99be7f60e21b8152600481018690526001600160a01b038581166024830152919091169063ba66f9fc9060440161135b565b60d55460408051624c7ad160e51b815290516000926001600160a01b03169163098f5a209160048083019260209291908290030181865afa158015611e08573d6000803e3d6000fd5b505050506040513d601f19601f820116820180604052508101906115f59190614bb1565b6060806060611e3c61185a61272f565b611e595760405163e4597a6b60e01b815260040160405180910390fd5b6038546000808267ffffffffffffffff811115611e7857611e78614928565b604051908082528060200260200182016040528015611ea1578160200160208202803683370190505b50905060008367ffffffffffffffff811115611ebf57611ebf614928565b604051908082528060200260200182016040528015611ee8578160200160208202803683370190505b50905060008467ffffffffffffffff811115611f0657611f06614928565b604051908082528060200260200182016040528015611f8257816020015b611f6f6040518060c0016040528060006001600160a01b0316815260200160006001600160a01b03168152602001600081526020016000815260200160008152602001600081525090565b815260200190600190039081611f245790505b50905060005b8581101561215c5760388181548110611fa357611fa3614d4e565b60009182526020918290206040805160c081018252600690930290910180546001600160a01b03908116845260018201541693830193909352600283015490820152600382015460608201526004820154608082015260059091015460a0820152825183908390811061201857612018614d4e565b60200260200101819052506000805b8681101561208f5783838151811061204157612041614d4e565b6020026020010151602001516001600160a01b031686828151811061206857612068614d4e565b60200260200101516001600160a01b031603612087576001915061208f565b600101612027565b5080612153578282815181106120a7576120a7614d4e565b6020026020010151602001518587815181106120c5576120c5614d4e565b60200260200101906001600160a01b031690816001600160a01b031681525050603960008484815181106120fb576120fb614d4e565b6020026020010151602001516001600160a01b03166001600160a01b031681526020019081526020016000205484878151811061213a5761213a614d4e565b60209081029190910101528561214f81614d64565b9650505b50600101611f88565b5061216960386000614612565b60008467ffffffffffffffff81111561218457612184614928565b6040519080825280602002602001820160405280156121ad578160200160208202803683370190505b50905060008567ffffffffffffffff8111156121cb576121cb614928565b6040519080825280602002602001820160405280156121f4578160200160208202803683370190505b50905060005b868110156122d15785818151811061221457612214614d4e565b602002602001015183828151811061222e5761222e614d4e565b60200260200101906001600160a01b031690816001600160a01b03168152505084818151811061226057612260614d4e565b602002602001015182828151811061227a5761227a614d4e565b6020026020010181815250506122b061229161272f565b8483815181106122a3576122a3614d4e565b602002602001015161323b565b6122c98382815181106122c5576122c5614d4e565b5050565b6001016121fa565b509199909850909650945050505050565b6d57484954454c4953545f524f4c4560901b61234860008054906101000a90046001600160a01b03166001600160a01b031663d09edf316040518163ffffffff1660e01b8152600401602060405180830381865afa1580156117b9573d6000803e3d6000fd5b60dc5460ff161561236c57604051635efada0360e01b815260040160405180910390fd5b612374613260565b61237f848484613283565b505050505050565b6000546040805163d09edf3160e01b815290516123d2926001600160a01b03169163d09edf319160048083019260209291908290030181865afa158015610785573d6000803e3d6000fd5b606c805460ff60a01b191690556040517f44c1679cca34073ce70fed616f995237808d9599a35669fd39f3afd053e2b9b190600090a1565b6000546040805163d09edf3160e01b81529051612455926001600160a01b03169163d09edf319160048083019260209291908290030181865afa158015610785573d6000803e3d6000fd5b606c805460ff60a01b1916600160a01b1790556040517fe404df37e2f7360b624914a082278de0f9e7da04a61eaab0a8d3d26b52bc0b1990600090a1565b6d57484954454c4953545f524f4c4560901b6124f960008054906101000a90046001600160a01b03166001600160a01b031663d09edf316040518163ffffffff1660e01b8152600401602060405180830381865afa1580156117b9573d6000803e3d6000fd5b612501612fb2565b61251361250c61272f565b8484612fdc565b505050565b6d57484954454c4953545f524f4c4560901b61257e60008054906101000a90046001600160a01b03166001600160a01b031663d09edf316040518163ffffffff1660e01b8152600401602060405180830381865afa1580156117b9573d6000803e3d6000fd5b612586613260565b61259861259161272f565b8484613283565b5050505050565b6000546040805163d09edf3160e01b815290516125ea926001600160a01b03169163d09edf319160048083019260209291908290030181865afa158015610785573d6000803e3d6000fd5b60a1805460ff191660011790556040517f9d47627df4f01d3bff516199297ca647fe2ea0448c4f2925ef8c16d614a51a7c90600090a1565b8060000361264357604051638bc7e94360e01b815260040160405180910390fd5b61267361264e61272f565b308361266260d6546001600160a01b031690565b6001600160a01b031692919061351b565b61267b61272f565b6001600160a01b03167fcea2aa568570e239e616fd2e9bcf2301307aa1c1c1f355305a87e5cdd46bbc79826040516126b591815260200190565b60405180910390a250565b60d55460408051636650c9c560e01b815290516000926001600160a01b031691636650c9c59160048083019260209291908290030181865afa158015611e08573d6000803e3d6000fd5b60006001600160e01b031982166306fa99af60e01b1480610734575061073482613554565b600036601461273d33611070565b80156127495750808210155b156127795760003661275b8385614c72565b612766928290614d7d565b61276f91614da7565b60601c9250505090565b339250505090565b60008054906101000a90046001600160a01b03166001600160a01b031663d09edf316040518163ffffffff1660e01b8152600401602060405180830381865afa1580156127d2573d6000803e3d6000fd5b505050506040513d601f19601f820116820180604052508101906127f69190614b94565b60405163a883867d60e01b8152600481018490526001600160a01b038381166024830152919091169063a883867d90604401602060405180830381865afa158015612845573d6000803e3d6000fd5b505050506040513d601f19601f820116820180604052508101906128699190614c85565b6122c5576040516342abbb7760e01b8152600481018390526001600160a01b0382166024820152604401610848565b6128a181613579565b606d546040805183815260208101929092527f28e297c7c282931a994191b735b01eaf17558295f761512a7047f4e1b8dc3b0b910160405180910390a1606d55565b6001600160a01b03811661290a57604051638b7abe6160e01b815260040160405180910390fd5b60dc80546001600160a01b03909216610100027fffffffffffffffffffffff0000000000000000000000000000000000000000ff909216919091179055565b8160000361296a57604051631d67ff5760e11b815260040160405180910390fd5b806000036122c55760405163d8674d0d60e01b815260040160405180910390fd5b60008060008061299a8561359c565b945091506129a7856136f7565b9496949550919391925050565b600080806127106129c58587614ddc565b106129e3576040516304e0874960e11b815260040160405180910390fd5b8415612a23576127106129f68688614def565b612a009190614e06565b915081600003612a2357604051639c43a82560e01b815260040160405180910390fd5b8315612a6357612710612a368588614def565b612a409190614e06565b905080600003612a6357604051639c43a82560e01b815260040160405180910390fd5b80612a6e8388614c72565b612a789190614c72565b925093509350939050565b600080612b7983612a9c60d6546001600160a01b031690565b6001600160a01b031663313ce5676040518163ffffffff1660e01b8152600401602060405180830381865afa158015612ad9573d6000803e3d6000fd5b505050506040513d601f19601f82011682018060405250810190612afd9190614d2b565b606c60009054906101000a90046001600160a01b03166001600160a01b031663313ce5676040518163ffffffff1660e01b8152600401602060405180830381865afa158015612b50573d6000803e3d6000fd5b505050506040513d601f19601f82011682018060405250810190612b749190614d2b565b61380d565b90508060d560009054906101000a90046001600160a01b03166001600160a01b0316636650c9c56040518163ffffffff1660e01b8152600401602060405180830381865afa158015612bcf573d6000803e3d6000fd5b505050506040513d601f19601f82011682018060405250810190612bf39190614bb1565b612bfd9190614def565b9392505050565b6040516301ffc9a760e01b8152636fdf93e560e01b60048201526001600160a01b038216906301ffc9a790602401602060405180830381865afa158015612c4f573d6000803e3d6000fd5b505050506040513d601f19601f82011682018060405250810190612c739190614c85565b612c905760405163770e43d760e11b815260040160405180910390fd5b60d580546001600160a01b0319166001600160a01b0392909216919091179055565b6001600160a01b0381161580612cd057506001600160a01b03811630145b1561085a5760405163364f556160e11b815260040160405180910390fd5b6040516001600160a01b0383811660248301526044820183905261251391859182169063a9059cbb906064015b604051602081830303815290604052915060e01b6020820180517bffffffffffffffffffffffffffffffffffffffffffffffffffffffff838183161783525050505061387f565b6000808260d560009054906101000a90046001600160a01b03166001600160a01b031663098f5a206040518163ffffffff1660e01b8152600401602060405180830381865afa158015612db9573d6000803e3d6000fd5b505050506040513d601f19601f82011682018060405250810190612ddd9190614bb1565b612de79190614def565b9050612bfd81601260d660159054906101000a900460ff1661380d565b6000546001600160a01b03166342f6e389612e1d61272f565b6040516001600160e01b031960e084901b1681526001600160a01b039091166004820152602401602060405180830381865afa158015612e61573d6000803e3d6000fd5b505050506040513d601f19601f82011682018060405250810190612e859190614c85565b1580612f075750612e9461272f565b6040516301ffc9a760e01b815263286309c760e01b60048201526001600160a01b0391909116906301ffc9a790602401602060405180830381865afa158015612ee1573d6000803e3d6000fd5b505050506040513d601f19601f82011682018060405250810190612f059190614c85565b155b15612f2557604051631b793e7f60e21b815260040160405180910390fd5b565b6000816000015182606001518360800151604051602001612f4a93929190614e28565b604051602081830303815290604052805190602001209050919050565b612f7081613579565b60a2546040805183815260208101929092527f5bafec153d96f8ef37761b64348732b41a6b477401d244a5070f9f82d689adce910160405180910390a160a255565b606c54600160a01b900460ff16612f2557604051630afe354360e11b815260040160405180910390fd5b612fe4612fb2565b82612fee81612cb2565b61237f8484846138e2565b6000805460408051631e38d7bf60e31b815290516001600160a01b0380861693169163f1c6bdf89160048083019260209291908290030181865afa158015613045573d6000803e3d6000fd5b505050506040513d601f19601f820116820180604052508101906130699190614b94565b6001600160a01b03161492915050565b613081613b48565b6001600160a01b0382166130a857604051637280679360e01b815260040160405180910390fd5b600080546001600160a01b0319166001600160a01b0384161790556130cc81613b96565b6130e957604051637511254160e01b815260040160405180910390fd5b805160019081556020820151600255604082015160035560608201518291906004906131159082614e9b565b506080820151600482019061312a9082614e9b565b50905050816001600160a01b03167fd5f3f84c2e1816ce290af84d002663800b02f2985d770cdd335de76fd723b730826040516113ed9190614f5b565b6000816001600160a01b031663313ce5676040518163ffffffff1660e01b8152600401602060405180830381865afa1580156131a7573d6000803e3d6000fd5b505050506040513d601f19601f820116820180604052508101906131cb9190614d2b565b606c80546001600160a01b0319166001600160a01b03851690811790915560d6805460ff60a01b1916600160a01b60ff851690810291909117909155604051908152919250907f4e547b7c6b59d324fecdb926aa12300420faf3a7e12a412eb7e0da193bb0d93e906020016113ed565b6001600160a01b0381166000818152603960205260409020546122c591908490613bf6565b60a15460ff16612f25576040516374d0357560e11b815260040160405180910390fd5b6000806132908484612949565b60408051808201909152601d81527f5f73656c6c4f7264657228616464726573732c75696e742c75696e742900000060209091015260008080806132f37f3299ac1e4997da1dd638584692e27ee6e952ca63f8284764a73c592284e1d9e861298b565b9350935093509350600080600061330c8b8560006129b4565b5098508893509050600061331f82612d62565b905080995061333561332f61272f565b8d613c9b565b61333f8785613cfe565b60008060009054906101000a90046001600160a01b03166001600160a01b03166304baed9e6040518163ffffffff1660e01b8152600401602060405180830381865afa158015613393573d6000803e3d6000fd5b505050506040513d601f19601f820116820180604052508101906133b79190614b94565b6001600160a01b031663fc0c546a6040518163ffffffff1660e01b8152600401602060405180830381865afa1580156133f4573d6000803e3d6000fd5b505050506040513d601f19601f820116820180604052508101906134189190614b94565b6040516370a0823160e01b81523060048201529091506001600160a01b038216906370a0823190602401602060405180830381865afa15801561345f573d6000803e3d6000fd5b505050506040513d601f19601f820116820180604052508101906134839190614bb1565b606e546134909084614ddc565b11156134af576040516332dcd2bb60e11b815260040160405180910390fd5b6134bc828860a2546129b4565b909650945091506134ce898287613d5c565b83156134dd576134dd84613dd1565b8b8210156134fe57604051637ac6ada560e01b815260040160405180910390fd5b61350a8e8e848d613e07565b505050505050505050935093915050565b6040516001600160a01b0384811660248301528381166044830152606482018390526118499186918216906323b872dd90608401612d1b565b60006001600160e01b03198216630bbeca6160e01b14806107345750610734826140cf565b61271081111561085a57604051633ef38b5b60e11b815260040160405180910390fd5b600080546040805163030d028960e21b8152905183926001600160a01b031691630c340a249160048083019260209291908290030181865afa1580156135e6573d6000803e3d6000fd5b505050506040513d601f19601f8201168201806040525081019061360a9190614b94565b6001600160a01b031663f2d638266040518163ffffffff1660e01b8152600401602060405180830381865afa158015613647573d6000803e3d6000fd5b505050506040513d601f19601f8201168201806040525081019061366b9190614b94565b600054604051634d970f5560e11b81526001600160a01b0391821660048201523060248201526001600160e01b031986166044820152911690639b2e1eaa906064015b6040805180830381865afa1580156136ca573d6000803e3d6000fd5b505050506040513d601f19601f820116820180604052508101906136ee9190614fb2565b91509150915091565b600080546040805163030d028960e21b8152905183926001600160a01b031691630c340a249160048083019260209291908290030181865afa158015613741573d6000803e3d6000fd5b505050506040513d601f19601f820116820180604052508101906137659190614b94565b6001600160a01b031663f2d638266040518163ffffffff1660e01b8152600401602060405180830381865afa1580156137a2573d6000803e3d6000fd5b505050506040513d601f19601f820116820180604052508101906137c69190614b94565b6000546040516304e53bb360e01b81526001600160a01b0391821660048201523060248201526001600160e01b0319861660448201529116906304e53bb3906064016136ae565b60008160ff168360ff1603613823575082612bfd565b8160ff168360ff16111561385c57600061383d8385614fd7565b61384890600a6150d4565b90506138548186614e06565b915050612bfd565b60006138688484614fd7565b61387390600a6150d4565b90506138548186614def565b60006138946001600160a01b038416836140f4565b905080516000141580156138b95750808060200190518101906138b79190614c85565b155b1561251357604051635274afe760e01b81526001600160a01b0384166004820152602401610848565b6000806138ef8484612949565b60008060009054906101000a90046001600160a01b03166001600160a01b03166304baed9e6040518163ffffffff1660e01b8152600401602060405180830381865afa158015613943573d6000803e3d6000fd5b505050506040513d601f19601f820116820180604052508101906139679190614b94565b6001600160a01b031663fc0c546a6040518163ffffffff1660e01b8152600401602060405180830381865afa1580156139a4573d6000803e3d6000fd5b505050506040513d601f19601f820116820180604052508101906139c89190614b94565b90506139db6139d561272f565b86614102565b60408051808201909152601c81527f5f6275794f7264657228616464726573732c75696e742c75696e7429000000006020909101526000808080613a3e7fdb2c93faffa8f98d8bcd55cf740e8ead65ac1699aaf6ee8a00820485fc802af661298b565b93509350935093506000806000613a588c86606d546129b4565b91945092509050613a698183614ddc565b9850613a76878984613d5c565b8015613a8557613a8581613dd1565b6000613a9084612a83565b9050809a50613aa1818660006129b4565b5093509050613ab08784613cfe565b8b811015613ad157604051637ac6ada560e01b815260040160405180910390fd5b613adb8e8261412d565b8d6001600160a01b03167fd150a324c4fc8346977d1499aa36cac8c85e6af24bf1486022fad77d05f8b19f8e83613b1061272f565b6040805193845260208401929092526001600160a01b03169082015260600160405180910390a2505050505050505050935093915050565b7ff0c57e16840df040f15088dc2f81fe391c3923bec73e23a9662efc9c229c6a005468010000000000000000900460ff16612f2557604051631afcd79f60e31b815260040160405180910390fd5b6000816060015151600003613bad57506000919050565b816080015151600003613bc257506000919050565b8151158015613bd357506020820151155b8015613be157506040820151155b15613bee57506000919050565b506001919050565b604080516001600160a01b038416602482015260448082018490528251808303909101815260649091019091526020810180517bffffffffffffffffffffffffffffffffffffffffffffffffffffffff1663095ea7b360e01b179052613c5c8482614166565b611849576040516001600160a01b03848116602483015260006044830152613c9191869182169063095ea7b390606401612d1b565b611849848261387f565b606c54604051632770a7eb60e21b81526001600160a01b0384811660048301526024820184905290911690639dc29fac906044015b600060405180830381600087803b158015613cea57600080fd5b505af115801561237f573d6000803e3d6000fd5b80156122c557613d0d82612cb2565b613d17828261412d565b6040518181526001600160a01b0383169030907f11a26a26a718a46d85815d79165470744429ab0f3093113929c59c097bbebb9a906020015b60405180910390a35050565b801561251357613d6b83612cb2565b613d7f6001600160a01b0383168483612cee565b826001600160a01b0316826001600160a01b03167f81535d361819544361f80ddbe5071aef378a8ecba1c52f2c45fe3335234c433183604051613dc491815260200190565b60405180910390a3505050565b6040518181527fe80fee25b848daa361e28d2bb55a5631cb9e084202ab3d22e444ceac1c8b320a9060200160405180910390a150565b60da8054906000613e1783614d64565b9190505560d9819055508160db6000828254613e339190614ddc565b9091555060009050613e458284614c72565b905060006040518060c00160405280613e5c61272f565b6001600160a01b03168152602001613e7c60d6546001600160a01b031690565b6001600160a01b0316815260200185815260200142815260200160008152602001428152509050613eac8161420e565b60008054906101000a90046001600160a01b03166001600160a01b031663f1c6bdf86040518163ffffffff1660e01b8152600401602060405180830381865afa158015613efd573d6000803e3d6000fd5b505050506040513d601f19601f82011682018060405250810190613f219190614b94565b60405163e151fc6160e01b81523060048201526001600160a01b03919091169063e151fc6190602401600060405180830381600087803b158015613f6457600080fd5b505af1158015613f78573d6000803e3d6000fd5b50505050856001600160a01b0316613f8e61272f565b6001600160a01b031660d9547f18df22c803b4d40ce64b29b435886837b6a7b99ed0de6b8ec6ec28ed4bb877dd8860d560009054906101000a90046001600160a01b03166001600160a01b031663098f5a206040518163ffffffff1660e01b8152600401602060405180830381865afa15801561400f573d6000803e3d6000fd5b505050506040513d601f19601f820116820180604052508101906140339190614bb1565b8960a2548a8a61404b60d6546001600160a01b031690565b426002604051614063999897969594939291906150e3565b60405180910390a4856001600160a01b03167f7debc712939ce2028bbca7ca90cc85e8fb59a7772e041423d3ec1588af4730ed86866140a061272f565b6040805193845260208401929092526001600160a01b03169082015260600160405180910390a2505050505050565b60006001600160e01b0319821663286309c760e01b14806107345750610734826143c3565b6060612bfd838360006143f8565b60dc546122c59083906001600160a01b03610100909104168361266260d6546001600160a01b031690565b606c546040516340c10f1960e01b81526001600160a01b03848116600483015260248201849052909116906340c10f1990604401613cd0565b6000806000846001600160a01b0316846040516141839190615155565b6000604051808303816000865af19150503d80600081146141c0576040519150601f19603f3d011682016040523d82523d6000602084013e6141c5565b606091505b50915091508180156141ef5750805115806141ef5750808060200190518101906141ef9190614c85565b801561420557506000856001600160a01b03163b115b95945050505050565b8061421881614495565b81604001516039600084602001516001600160a01b03166001600160a01b0316815260200190815260200160002060008282546142559190614ddc565b909155505060388054600181018255600091909152825160069091027f38395c5dceade9603479b177b68959049485df8aa97b39f3533039af5f456199810180546001600160a01b039384166001600160a01b0319918216811790925560208601517f38395c5dceade9603479b177b68959049485df8aa97b39f3533039af5f45619a8401805491909516911681179093556040808601517f38395c5dceade9603479b177b68959049485df8aa97b39f3533039af5f45619b840181905560608701517f38395c5dceade9603479b177b68959049485df8aa97b39f3533039af5f45619c85015560808701517f38395c5dceade9603479b177b68959049485df8aa97b39f3533039af5f45619d85015560a08701517f38395c5dceade9603479b177b68959049485df8aa97b39f3533039af5f45619e909401939093555190917f21b8b94494ef1aff6ce0f5f3741800bdb27204fd430c1280b54d4cc653ae6f3a91613d5091815260200190565b60006001600160e01b0319821663e328951160e01b148061073457506301ffc9a760e01b6001600160e01b0319831614610734565b60608147101561441d5760405163cd78605960e01b8152306004820152602401610848565b600080856001600160a01b031684866040516144399190615155565b60006040518083038185875af1925050503d8060008114614476576040519150601f19603f3d011682016040523d82523d6000602084013e61447b565b606091505b509150915061448b86838361458d565b9695505050505050565b6000546001600160a01b03166001600160a01b031663f1c6bdf86040518163ffffffff1660e01b8152600401602060405180830381865afa1580156144de573d6000803e3d6000fd5b505050506040513d601f19601f820116820180604052508101906145029190614b94565b6001600160a01b03166308fd683d826040518263ffffffff1660e01b815260040161452d9190615171565b6020604051808303816000875af115801561454c573d6000803e3d6000fd5b505050506040513d601f19601f820116820180604052508101906145709190614c85565b61085a5760405163349a262760e01b815260040160405180910390fd5b6060826145a25761459d826145e9565b612bfd565b81511580156145b957506001600160a01b0384163b155b156145e257604051639996b31560e01b81526001600160a01b0385166004820152602401610848565b5080612bfd565b8051156145f95780518082602001fd5b604051630a12f52160e11b815260040160405180910390fd5b508054600082556006029060005260206000209081019061085a91905b808211156146765780546001600160a01b0319908116825560018201805490911690556000600282018190556003820181905560048201819055600582015560060161462f565b5090565b60006020828403121561468c57600080fd5b81356001600160e01b031981168114612bfd57600080fd5b6000602082840312156146b657600080fd5b5035919050565b6001600160a01b038116811461085a57600080fd5b6000602082840312156146e457600080fd5b8135612bfd816146bd565b60008060006040848603121561470457600080fd5b83359250602084013567ffffffffffffffff8082111561472357600080fd5b818601915086601f83011261473757600080fd5b81358181111561474657600080fd5b8760208260051b850101111561475b57600080fd5b6020830194508093505050509250925092565b60005b83811015614789578181015183820152602001614771565b50506000910152565b600081518084526147aa81602086016020860161476e565b601f01601f19169290920160200192915050565b602081526000612bfd6020830184614792565b600080604083850312156147e457600080fd5b82356147ef816146bd565b946020939093013593505050565b6000806040838503121561481057600080fd5b823591506020830135614822816146bd565b809150509250929050565b60008151808452602080850194506020840160005b838110156148aa576148978783516001600160a01b038082511683528060208301511660208401525060408101516040830152606081015160608301526080810151608083015260a081015160a08301525050565b60c0969096019590820190600101614842565b509495945050505050565b602081526000612bfd602083018461482d565b801515811461085a57600080fd5b6000602082840312156148e857600080fd5b8135612bfd816148c8565b60008060006060848603121561490857600080fd5b8335614913816146bd565b95602085013595506040909401359392505050565b634e487b7160e01b600052604160045260246000fd5b60405160a0810167ffffffffffffffff8111828210171561496157614961614928565b60405290565b600082601f83011261497857600080fd5b813567ffffffffffffffff8082111561499357614993614928565b604051601f8301601f19908116603f011681019082821181831017156149bb576149bb614928565b816040528381528660208588010111156149d457600080fd5b836020870160208301376000602085830101528094505050505092915050565b600080600060608486031215614a0957600080fd5b8335614a14816146bd565b9250602084013567ffffffffffffffff80821115614a3157600080fd5b9085019060a08288031215614a4557600080fd5b614a4d61493e565b823581526020830135602082015260408301356040820152606083013582811115614a7757600080fd5b614a8389828601614967565b606083015250608083013582811115614a9b57600080fd5b614aa789828601614967565b60808301525093506040860135915080821115614ac357600080fd5b50614ad086828701614967565b9150509250925092565b606081526000614aed606083018661482d565b82810360208481019190915285518083528682019282019060005b81811015614b2d5784516001600160a01b031683529383019391830191600101614b08565b50508481036040860152855180825290820192508186019060005b81811015614b6457825185529383019391830191600101614b48565b509298975050505050505050565b60008060408385031215614b8557600080fd5b50508035926020909101359150565b600060208284031215614ba657600080fd5b8151612bfd816146bd565b600060208284031215614bc357600080fd5b5051919050565b83815260406020808301829052908201839052600090849060608401835b86811015614c16578335614bfb816146bd565b6001600160a01b031682529282019290820190600101614be8565b50979650505050505050565b600181811c90821680614c3657607f821691505b602082108103614c5657634e487b7160e01b600052602260045260246000fd5b50919050565b634e487b7160e01b600052601160045260246000fd5b8181038181111561073457610734614c5c565b600060208284031215614c9757600080fd5b8151612bfd816148c8565b600080600080600080600080610100898b031215614cbf57600080fd5b8851614cca816146bd565b60208a0151909850614cdb816146bd565b60408a0151909750614cec816146bd565b80965050606089015194506080890151935060a0890151925060c0890151915060e0890151614d1a816148c8565b809150509295985092959890939650565b600060208284031215614d3d57600080fd5b815160ff81168114612bfd57600080fd5b634e487b7160e01b600052603260045260246000fd5b600060018201614d7657614d76614c5c565b5060010190565b60008085851115614d8d57600080fd5b83861115614d9a57600080fd5b5050820193919092039150565b6bffffffffffffffffffffffff198135818116916014851015614dd45780818660140360031b1b83161692505b505092915050565b8082018082111561073457610734614c5c565b808202811582820484141761073457610734614c5c565b600082614e2357634e487b7160e01b600052601260045260246000fd5b500490565b838152606060208201526000614e416060830185614792565b828103604084015261448b8185614792565b601f821115612513576000816000526020600020601f850160051c81016020861015614e7c5750805b601f850160051c820191505b8181101561237f57828155600101614e88565b815167ffffffffffffffff811115614eb557614eb5614928565b614ec981614ec38454614c22565b84614e53565b602080601f831160018114614efe5760008415614ee65750858301515b600019600386901b1c1916600185901b17855561237f565b600085815260208120601f198616915b82811015614f2d57888601518255948401946001909101908401614f0e565b5085821015614f4b5787850151600019600388901b60f8161c191681555b5050505050600190811b01905550565b602081528151602082015260208201516040820152604082015160608201526000606083015160a06080840152614f9560c0840182614792565b90506080840151601f198483030160a08501526142058282614792565b60008060408385031215614fc557600080fd5b825191506020830151614822816146bd565b60ff828116828216039081111561073457610734614c5c565b600181815b8085111561502b57816000190482111561501157615011614c5c565b8085161561501e57918102915b93841c9390800290614ff5565b509250929050565b60008261504257506001610734565b8161504f57506000610734565b8160018114615065576002811461506f5761508b565b6001915050610734565b60ff84111561508057615080614c5c565b50506001821b610734565b5060208310610133831016604e8410600b84101617156150ae575081810a610734565b6150b88383614ff0565b80600019048211156150cc576150cc614c5c565b029392505050565b6000612bfd60ff841683615033565b6000610120820190508a82528960208301528860408301528760608301528660808301528560a08301526001600160a01b03851660c08301528360e08301526003831061514057634e487b7160e01b600052602160045260246000fd5b826101008301529a9950505050505050505050565b6000825161516781846020870161476e565b9190910192915050565b60c0810161073482846001600160a01b038082511683528060208301511660208401525060408101516040830152606081015160608301526080810151608083015260a081015160a0830152505056fea264697066735822122039ab8f8035c672cf2eee363a7fab52ebd92694ae11c6e6bcc34bcb1669a2fad464736f6c63430008170033",
    "linkReferences": {}
  },
  "methodIdentifiers": {
    "WHITELIST_ROLE()": "7a997ab7",
    "amountPaid(address,uint256)": "b33ec618",
    "buy(uint256,uint256)": "d6febde8",
    "buyFee()": "47062402",
    "buyFor(address,uint256,uint256)": "935b7dbd",
    "buyIsOpen()": "c6829ba2",
    "calculatePurchaseReturn(uint256)": "322d2100",
    "calculateSaleReturn(uint256)": "69fcd4ac",
    "closeBuy()": "c6ab5cdc",
    "closeSell()": "ba83c970",
    "collectPaymentOrders()": "c0231ff6",
    "depositReserve(uint256)": "f42d48a1",
    "getBuyFee()": "8f818b90",
    "getIsDirectOperationsOnly()": "c35067ed",
    "getIssuanceToken()": "1ca3bc4f",
    "getMaxBuyFee()": "ba360dd4",
    "getMaxProjectSellFee()": "519cdc6f",
    "getNextOrderId()": "8158900b",
    "getOpenRedemptionAmount()": "1835f541",
    "getOrderId()": "a8496426",
    "getProjectTreasury()": "2c2ee2b5",
    "getSellFee()": "289af0d8",
    "getStaticPriceForBuying()": "fa03330c",
    "getStaticPriceForSelling()": "bd098404",
    "grantModuleRole(bytes32,address)": "6c67e807",
    "grantModuleRoleBatched(bytes32,address[])": "272bbd44",
    "identifier()": "7998a1c4",
    "init(address,(uint256,uint256,uint256,string,string),bytes)": "b66a870c",
    "isTrustedForwarder(address)": "572b6c05",
    "openBuy()": "d4a67930",
    "openSell()": "f1eae64a",
    "orchestrator()": "b74795d9",
    "outstandingTokenAmount(address)": "2e84db5f",
    "paymentOrders()": "75fa0b76",
    "projectCollateralFeeCollected()": "cbda8f82",
    "revokeModuleRole(bytes32,address)": "bcb61920",
    "revokeModuleRoleBatched(bytes32,address[])": "24e30270",
    "sell(uint256,uint256)": "d79875eb",
    "sellFee()": "2b14ca56",
    "sellIsOpen()": "9093b01f",
    "sellTo(address,uint256,uint256)": "c5b27dde",
    "setBuyFee(uint256)": "0cc835a3",
    "setIsDirectOperationsOnly(bool)": "844b2d43",
    "setOracleAddress(address)": "4c69c00f",
    "setProjectTreasury(address)": "1e96bb9e",
    "setSellFee(uint256)": "8b4cee08",
    "supportsInterface(bytes4)": "01ffc9a7",
    "title()": "4a79d50c",
    "token()": "fc0c546a",
    "transferOrchestratorToken(address,uint256)": "759cc4b5",
    "trustedForwarder()": "7da0a877",
    "url()": "5600f04f",
    "version()": "54fd4d50",
    "withdrawProjectCollateralFee(address,uint256)": "4f893bba"
  },
  "id": 134
}