{
  "abi": [
    {
      "type": "function",
      "name": "amountPaid",
      "inputs": [
        {
          "name": "token_",
          "type": "address",
          "internalType": "address"
        },
        {
          "name": "amount_",
          "type": "uint256",
          "internalType": "uint256"
        }
      ],
      "outputs": [],
      "stateMutability": "nonpayable"
    },
    {
      "type": "function",
      "name": "buy",
      "inputs": [
        {
          "name": "collateralAmount_",
          "type": "uint256",
          "internalType": "uint256"
        },
        {
          "name": "minAmountOut_",
          "type": "uint256",
          "internalType": "uint256"
        }
      ],
      "outputs": [],
      "stateMutability": "nonpayable"
    },
    {
      "type": "function",
      "name": "buyFee",
      "inputs": [],
      "outputs": [
        {
          "name": "",
          "type": "uint256",
          "internalType": "uint256"
        }
      ],
      "stateMutability": "view"
    },
    {
      "type": "function",
      "name": "buyFor",
      "inputs": [
        {
          "name": "receiver_",
          "type": "address",
          "internalType": "address"
        },
        {
          "name": "depositAmount_",
          "type": "uint256",
          "internalType": "uint256"
        },
        {
          "name": "minAmountOut_",
          "type": "uint256",
          "internalType": "uint256"
        }
      ],
      "outputs": [],
      "stateMutability": "nonpayable"
    },
    {
      "type": "function",
      "name": "buyIsOpen",
      "inputs": [],
      "outputs": [
        {
          "name": "",
          "type": "bool",
          "internalType": "bool"
        }
      ],
      "stateMutability": "view"
    },
    {
      "type": "function",
      "name": "calculatePurchaseReturn",
      "inputs": [
        {
          "name": "_depositAmount",
          "type": "uint256",
          "internalType": "uint256"
        }
      ],
      "outputs": [
        {
          "name": "mintAmount",
          "type": "uint256",
          "internalType": "uint256"
        }
      ],
      "stateMutability": "view"
    },
    {
      "type": "function",
      "name": "calculateSaleReturn",
      "inputs": [
        {
          "name": "_depositAmount",
          "type": "uint256",
          "internalType": "uint256"
        }
      ],
      "outputs": [
        {
          "name": "redeemAmount",
          "type": "uint256",
          "internalType": "uint256"
        }
      ],
      "stateMutability": "view"
    },
    {
      "type": "function",
      "name": "closeBuy",
      "inputs": [],
      "outputs": [],
      "stateMutability": "nonpayable"
    },
    {
      "type": "function",
      "name": "closeSell",
      "inputs": [],
      "outputs": [],
      "stateMutability": "nonpayable"
    },
    {
      "type": "function",
      "name": "collectPaymentOrders",
      "inputs": [],
      "outputs": [
        {
          "name": "paymentOrders_",
          "type": "tuple[]",
          "internalType": "struct IERC20PaymentClientBase_v2.PaymentOrder[]",
          "components": [
            {
              "name": "recipient",
              "type": "address",
              "internalType": "address"
            },
            {
              "name": "paymentToken",
              "type": "address",
              "internalType": "address"
            },
            {
              "name": "amount",
              "type": "uint256",
              "internalType": "uint256"
            },
            {
              "name": "originChainId",
              "type": "uint256",
              "internalType": "uint256"
            },
            {
              "name": "targetChainId",
              "type": "uint256",
              "internalType": "uint256"
            },
            {
              "name": "flags",
              "type": "bytes32",
              "internalType": "bytes32"
            },
            {
              "name": "data",
              "type": "bytes32[]",
              "internalType": "bytes32[]"
            }
          ]
        },
        {
          "name": "tokens_",
          "type": "address[]",
          "internalType": "address[]"
        },
        {
          "name": "totalAmounts_",
          "type": "uint256[]",
          "internalType": "uint256[]"
        }
      ],
      "stateMutability": "nonpayable"
    },
    {
      "type": "function",
      "name": "depositReserve",
      "inputs": [
        {
          "name": "amount_",
          "type": "uint256",
          "internalType": "uint256"
        }
      ],
      "outputs": [],
      "stateMutability": "nonpayable"
    },
    {
      "type": "function",
      "name": "executeRedemptionQueue",
      "inputs": [],
      "outputs": [],
      "stateMutability": "nonpayable"
    },
    {
      "type": "function",
      "name": "getBuyFee",
      "inputs": [],
      "outputs": [
        {
          "name": "buyFee_",
          "type": "uint256",
          "internalType": "uint256"
        }
      ],
      "stateMutability": "view"
    },
    {
      "type": "function",
      "name": "getFlagCount",
      "inputs": [],
      "outputs": [
        {
          "name": "flagCount_",
          "type": "uint8",
          "internalType": "uint8"
        }
      ],
      "stateMutability": "view"
    },
    {
      "type": "function",
      "name": "getFlags",
      "inputs": [],
      "outputs": [
        {
          "name": "flags_",
          "type": "bytes32",
          "internalType": "bytes32"
        }
      ],
      "stateMutability": "view"
    },
    {
      "type": "function",
      "name": "getIsDirectOperationsOnly",
      "inputs": [],
      "outputs": [
        {
          "name": "isDirectOnly_",
          "type": "bool",
          "internalType": "bool"
        }
      ],
      "stateMutability": "view"
    },
    {
      "type": "function",
      "name": "getIssuanceToken",
      "inputs": [],
      "outputs": [
        {
          "name": "",
          "type": "address",
          "internalType": "address"
        }
      ],
      "stateMutability": "view"
    },
    {
      "type": "function",
      "name": "getMaxProjectBuyFee",
      "inputs": [],
      "outputs": [
        {
          "name": "maxProjectBuyFee_",
          "type": "uint256",
          "internalType": "uint256"
        }
      ],
      "stateMutability": "view"
    },
    {
      "type": "function",
      "name": "getMaxProjectSellFee",
      "inputs": [],
      "outputs": [
        {
          "name": "maxProjectSellFee_",
          "type": "uint256",
          "internalType": "uint256"
        }
      ],
      "stateMutability": "view"
    },
    {
      "type": "function",
      "name": "getOpenRedemptionAmount",
      "inputs": [],
      "outputs": [
        {
          "name": "amount_",
          "type": "uint256",
          "internalType": "uint256"
        }
      ],
      "stateMutability": "view"
    },
    {
      "type": "function",
      "name": "getOracle",
      "inputs": [],
      "outputs": [
        {
          "name": "oracle_",
          "type": "address",
          "internalType": "address"
        }
      ],
      "stateMutability": "view"
    },
    {
      "type": "function",
      "name": "getOrderId",
      "inputs": [],
      "outputs": [
        {
          "name": "orderId_",
          "type": "uint256",
          "internalType": "uint256"
        }
      ],
      "stateMutability": "view"
    },
    {
      "type": "function",
      "name": "getProjectTreasury",
      "inputs": [],
      "outputs": [
        {
          "name": "treasury_",
          "type": "address",
          "internalType": "address"
        }
      ],
      "stateMutability": "view"
    },
    {
      "type": "function",
      "name": "getQueueExecutorRole",
      "inputs": [],
      "outputs": [
        {
          "name": "role_",
          "type": "bytes32",
          "internalType": "bytes32"
        }
      ],
      "stateMutability": "pure"
    },
    {
      "type": "function",
      "name": "getQueueExecutorRoleAdmin",
      "inputs": [],
      "outputs": [
        {
          "name": "role_",
          "type": "bytes32",
          "internalType": "bytes32"
        }
      ],
      "stateMutability": "pure"
    },
    {
      "type": "function",
      "name": "getSellFee",
      "inputs": [],
      "outputs": [
        {
          "name": "fee_",
          "type": "uint256",
          "internalType": "uint256"
        }
      ],
      "stateMutability": "view"
    },
    {
      "type": "function",
      "name": "getStaticPriceForBuying",
      "inputs": [],
      "outputs": [
        {
          "name": "buyPrice_",
          "type": "uint256",
          "internalType": "uint256"
        }
      ],
      "stateMutability": "view"
    },
    {
      "type": "function",
      "name": "getStaticPriceForSelling",
      "inputs": [],
      "outputs": [
        {
          "name": "sellPrice_",
          "type": "uint256",
          "internalType": "uint256"
        }
      ],
      "stateMutability": "view"
    },
    {
      "type": "function",
      "name": "getWhitelistRole",
      "inputs": [],
      "outputs": [
        {
          "name": "role_",
          "type": "bytes32",
          "internalType": "bytes32"
        }
      ],
      "stateMutability": "pure"
    },
    {
      "type": "function",
      "name": "getWhitelistRoleAdmin",
      "inputs": [],
      "outputs": [
        {
          "name": "role_",
          "type": "bytes32",
          "internalType": "bytes32"
        }
      ],
      "stateMutability": "pure"
    },
    {
      "type": "function",
      "name": "grantModuleRole",
      "inputs": [
        {
          "name": "role",
          "type": "bytes32",
          "internalType": "bytes32"
        },
        {
          "name": "target",
          "type": "address",
          "internalType": "address"
        }
      ],
      "outputs": [],
      "stateMutability": "nonpayable"
    },
    {
      "type": "function",
      "name": "grantModuleRoleBatched",
      "inputs": [
        {
          "name": "role",
          "type": "bytes32",
          "internalType": "bytes32"
        },
        {
          "name": "targets",
          "type": "address[]",
          "internalType": "address[]"
        }
      ],
      "outputs": [],
      "stateMutability": "nonpayable"
    },
    {
      "type": "function",
      "name": "identifier",
      "inputs": [],
      "outputs": [
        {
          "name": "",
          "type": "bytes32",
          "internalType": "bytes32"
        }
      ],
      "stateMutability": "view"
    },
    {
      "type": "function",
      "name": "init",
      "inputs": [
        {
          "name": "orchestrator_",
          "type": "address",
          "internalType": "contract IOrchestrator_v1"
        },
        {
          "name": "metadata_",
          "type": "tuple",
          "internalType": "struct IModule_v1.Metadata",
          "components": [
            {
              "name": "majorVersion",
              "type": "uint256",
              "internalType": "uint256"
            },
            {
              "name": "minorVersion",
              "type": "uint256",
              "internalType": "uint256"
            },
            {
              "name": "patchVersion",
              "type": "uint256",
              "internalType": "uint256"
            },
            {
              "name": "url",
              "type": "string",
              "internalType": "string"
            },
            {
              "name": "title",
              "type": "string",
              "internalType": "string"
            }
          ]
        },
        {
          "name": "configData_",
          "type": "bytes",
          "internalType": "bytes"
        }
      ],
      "outputs": [],
      "stateMutability": "nonpayable"
    },
    {
      "type": "function",
      "name": "isTrustedForwarder",
      "inputs": [
        {
          "name": "forwarder",
          "type": "address",
          "internalType": "address"
        }
      ],
      "outputs": [
        {
          "name": "",
          "type": "bool",
          "internalType": "bool"
        }
      ],
      "stateMutability": "view"
    },
    {
      "type": "function",
      "name": "openBuy",
      "inputs": [],
      "outputs": [],
      "stateMutability": "nonpayable"
    },
    {
      "type": "function",
      "name": "openSell",
      "inputs": [],
      "outputs": [],
      "stateMutability": "nonpayable"
    },
    {
      "type": "function",
      "name": "orchestrator",
      "inputs": [],
      "outputs": [
        {
          "name": "",
          "type": "address",
          "internalType": "contract IOrchestrator_v1"
        }
      ],
      "stateMutability": "view"
    },
    {
      "type": "function",
      "name": "outstandingTokenAmount",
      "inputs": [
        {
          "name": "token_",
          "type": "address",
          "internalType": "address"
        }
      ],
      "outputs": [
        {
          "name": "total_",
          "type": "uint256",
          "internalType": "uint256"
        }
      ],
      "stateMutability": "view"
    },
    {
      "type": "function",
      "name": "paymentOrders",
      "inputs": [],
      "outputs": [
        {
          "name": "",
          "type": "tuple[]",
          "internalType": "struct IERC20PaymentClientBase_v2.PaymentOrder[]",
          "components": [
            {
              "name": "recipient",
              "type": "address",
              "internalType": "address"
            },
            {
              "name": "paymentToken",
              "type": "address",
              "internalType": "address"
            },
            {
              "name": "amount",
              "type": "uint256",
              "internalType": "uint256"
            },
            {
              "name": "originChainId",
              "type": "uint256",
              "internalType": "uint256"
            },
            {
              "name": "targetChainId",
              "type": "uint256",
              "internalType": "uint256"
            },
            {
              "name": "flags",
              "type": "bytes32",
              "internalType": "bytes32"
            },
            {
              "name": "data",
              "type": "bytes32[]",
              "internalType": "bytes32[]"
            }
          ]
        }
      ],
      "stateMutability": "view"
    },
    {
      "type": "function",
      "name": "projectCollateralFeeCollected",
      "inputs": [],
      "outputs": [
        {
          "name": "",
          "type": "uint256",
          "internalType": "uint256"
        }
      ],
      "stateMutability": "view"
    },
    {
      "type": "function",
      "name": "revokeModuleRole",
      "inputs": [
        {
          "name": "role",
          "type": "bytes32",
          "internalType": "bytes32"
        },
        {
          "name": "target",
          "type": "address",
          "internalType": "address"
        }
      ],
      "outputs": [],
      "stateMutability": "nonpayable"
    },
    {
      "type": "function",
      "name": "revokeModuleRoleBatched",
      "inputs": [
        {
          "name": "role",
          "type": "bytes32",
          "internalType": "bytes32"
        },
        {
          "name": "targets",
          "type": "address[]",
          "internalType": "address[]"
        }
      ],
      "outputs": [],
      "stateMutability": "nonpayable"
    },
    {
      "type": "function",
      "name": "sell",
      "inputs": [
        {
          "name": "depositAmount_",
          "type": "uint256",
          "internalType": "uint256"
        },
        {
          "name": "minAmountOut_",
          "type": "uint256",
          "internalType": "uint256"
        }
      ],
      "outputs": [],
      "stateMutability": "nonpayable"
    },
    {
      "type": "function",
      "name": "sellFee",
      "inputs": [],
      "outputs": [
        {
          "name": "",
          "type": "uint256",
          "internalType": "uint256"
        }
      ],
      "stateMutability": "view"
    },
    {
      "type": "function",
      "name": "sellIsOpen",
      "inputs": [],
      "outputs": [
        {
          "name": "",
          "type": "bool",
          "internalType": "bool"
        }
      ],
      "stateMutability": "view"
    },
    {
      "type": "function",
      "name": "sellTo",
      "inputs": [
        {
          "name": "receiver_",
          "type": "address",
          "internalType": "address"
        },
        {
          "name": "depositAmount_",
          "type": "uint256",
          "internalType": "uint256"
        },
        {
          "name": "minAmountOut_",
          "type": "uint256",
          "internalType": "uint256"
        }
      ],
      "outputs": [],
      "stateMutability": "nonpayable"
    },
    {
      "type": "function",
      "name": "setBuyFee",
      "inputs": [
        {
          "name": "fee_",
          "type": "uint256",
          "internalType": "uint256"
        }
      ],
      "outputs": [],
      "stateMutability": "nonpayable"
    },
    {
      "type": "function",
      "name": "setIsDirectOperationsOnly",
      "inputs": [
        {
          "name": "isDirectOperationsOnly_",
          "type": "bool",
          "internalType": "bool"
        }
      ],
      "outputs": [],
      "stateMutability": "nonpayable"
    },
    {
      "type": "function",
      "name": "setOracleAddress",
      "inputs": [
        {
          "name": "oracle_",
          "type": "address",
          "internalType": "address"
        }
      ],
      "outputs": [],
      "stateMutability": "nonpayable"
    },
    {
      "type": "function",
      "name": "setProjectTreasury",
      "inputs": [
        {
          "name": "projectTreasury_",
          "type": "address",
          "internalType": "address"
        }
      ],
      "outputs": [],
      "stateMutability": "nonpayable"
    },
    {
      "type": "function",
      "name": "setSellFee",
      "inputs": [
        {
          "name": "fee_",
          "type": "uint256",
          "internalType": "uint256"
        }
      ],
      "outputs": [],
      "stateMutability": "nonpayable"
    },
    {
      "type": "function",
      "name": "supportsInterface",
      "inputs": [
        {
          "name": "interfaceId_",
          "type": "bytes4",
          "internalType": "bytes4"
        }
      ],
      "outputs": [
        {
          "name": "isSupported_",
          "type": "bool",
          "internalType": "bool"
        }
      ],
      "stateMutability": "view"
    },
    {
      "type": "function",
      "name": "title",
      "inputs": [],
      "outputs": [
        {
          "name": "",
          "type": "string",
          "internalType": "string"
        }
      ],
      "stateMutability": "view"
    },
    {
      "type": "function",
      "name": "token",
      "inputs": [],
      "outputs": [
        {
          "name": "token_",
          "type": "address",
          "internalType": "contract IERC20"
        }
      ],
      "stateMutability": "view"
    },
    {
      "type": "function",
      "name": "transferOrchestratorToken",
      "inputs": [
        {
          "name": "to_",
          "type": "address",
          "internalType": "address"
        },
        {
          "name": "amount_",
          "type": "uint256",
          "internalType": "uint256"
        }
      ],
      "outputs": [],
      "stateMutability": "nonpayable"
    },
    {
      "type": "function",
      "name": "trustedForwarder",
      "inputs": [],
      "outputs": [
        {
          "name": "",
          "type": "address",
          "internalType": "address"
        }
      ],
      "stateMutability": "view"
    },
    {
      "type": "function",
      "name": "url",
      "inputs": [],
      "outputs": [
        {
          "name": "",
          "type": "string",
          "internalType": "string"
        }
      ],
      "stateMutability": "view"
    },
    {
      "type": "function",
      "name": "version",
      "inputs": [],
      "outputs": [
        {
          "name": "",
          "type": "uint256",
          "internalType": "uint256"
        },
        {
          "name": "",
          "type": "uint256",
          "internalType": "uint256"
        },
        {
          "name": "",
          "type": "uint256",
          "internalType": "uint256"
        }
      ],
      "stateMutability": "view"
    },
    {
      "type": "function",
      "name": "withdrawProjectCollateralFee",
      "inputs": [
        {
          "name": "_receiver",
          "type": "address",
          "internalType": "address"
        },
        {
          "name": "_amount",
          "type": "uint256",
          "internalType": "uint256"
        }
      ],
      "outputs": [],
      "stateMutability": "nonpayable"
    },
    {
      "type": "event",
      "name": "BuyFeeUpdated",
      "inputs": [
        {
          "name": "newBuyFee",
          "type": "uint256",
          "indexed": false,
          "internalType": "uint256"
        },
        {
          "name": "oldBuyFee",
          "type": "uint256",
          "indexed": false,
          "internalType": "uint256"
        }
      ],
      "anonymous": false
    },
    {
      "type": "event",
      "name": "BuyingDisabled",
      "inputs": [],
      "anonymous": false
    },
    {
      "type": "event",
      "name": "BuyingEnabled",
      "inputs": [],
      "anonymous": false
    },
    {
      "type": "event",
      "name": "DirectOperationsOnlyUpdated",
      "inputs": [
        {
          "name": "currentIsDirectOperationFlag_",
          "type": "bool",
          "indexed": true,
          "internalType": "bool"
        },
        {
          "name": "newIsDirectOperationFlag_",
          "type": "bool",
          "indexed": true,
          "internalType": "bool"
        }
      ],
      "anonymous": false
    },
    {
      "type": "event",
      "name": "FlagsSet",
      "inputs": [
        {
          "name": "flagCount",
          "type": "uint8",
          "indexed": false,
          "internalType": "uint8"
        },
        {
          "name": "newFlags",
          "type": "bytes32",
          "indexed": false,
          "internalType": "bytes32"
        }
      ],
      "anonymous": false
    },
    {
      "type": "event",
      "name": "Initialized",
      "inputs": [
        {
          "name": "version",
          "type": "uint64",
          "indexed": false,
          "internalType": "uint64"
        }
      ],
      "anonymous": false
    },
    {
      "type": "event",
      "name": "IssuanceTokenSet",
      "inputs": [
        {
          "name": "issuanceToken",
          "type": "address",
          "indexed": true,
          "internalType": "address"
        },
        {
          "name": "decimals",
          "type": "uint8",
          "indexed": false,
          "internalType": "uint8"
        }
      ],
      "anonymous": false
    },
    {
      "type": "event",
      "name": "MaxProjectBuyFeeSet",
      "inputs": [
        {
          "name": "maxProjectBuyFee_",
          "type": "uint256",
          "indexed": false,
          "internalType": "uint256"
        }
      ],
      "anonymous": false
    },
    {
      "type": "event",
      "name": "MaxProjectSellFeeSet",
      "inputs": [
        {
          "name": "maxProjectSellFee_",
          "type": "uint256",
          "indexed": false,
          "internalType": "uint256"
        }
      ],
      "anonymous": false
    },
    {
      "type": "event",
      "name": "ModuleInitialized",
      "inputs": [
        {
          "name": "parentOrchestrator",
          "type": "address",
          "indexed": true,
          "internalType": "address"
        },
        {
          "name": "metadata",
          "type": "tuple",
          "indexed": false,
          "internalType": "struct IModule_v1.Metadata",
          "components": [
            {
              "name": "majorVersion",
              "type": "uint256",
              "internalType": "uint256"
            },
            {
              "name": "minorVersion",
              "type": "uint256",
              "internalType": "uint256"
            },
            {
              "name": "patchVersion",
              "type": "uint256",
              "internalType": "uint256"
            },
            {
              "name": "url",
              "type": "string",
              "internalType": "string"
            },
            {
              "name": "title",
              "type": "string",
              "internalType": "string"
            }
          ]
        }
      ],
      "anonymous": false
    },
    {
      "type": "event",
      "name": "OracleUpdated",
      "inputs": [
        {
          "name": "currentOracle_",
          "type": "address",
          "indexed": true,
          "internalType": "address"
        },
        {
          "name": "newOracle_",
          "type": "address",
          "indexed": true,
          "internalType": "address"
        }
      ],
      "anonymous": false
    },
    {
      "type": "event",
      "name": "OrchestratorTokenSet",
      "inputs": [
        {
          "name": "token",
          "type": "address",
          "indexed": true,
          "internalType": "address"
        },
        {
          "name": "decimals",
          "type": "uint8",
          "indexed": false,
          "internalType": "uint8"
        }
      ],
      "anonymous": false
    },
    {
      "type": "event",
      "name": "PaymentOrderAdded",
      "inputs": [
        {
          "name": "recipient",
          "type": "address",
          "indexed": true,
          "internalType": "address"
        },
        {
          "name": "token",
          "type": "address",
          "indexed": true,
          "internalType": "address"
        },
        {
          "name": "amount",
          "type": "uint256",
          "indexed": false,
          "internalType": "uint256"
        },
        {
          "name": "originChainId",
          "type": "uint256",
          "indexed": false,
          "internalType": "uint256"
        },
        {
          "name": "targetChainId",
          "type": "uint256",
          "indexed": false,
          "internalType": "uint256"
        },
        {
          "name": "flags",
          "type": "bytes32",
          "indexed": false,
          "internalType": "bytes32"
        },
        {
          "name": "data",
          "type": "bytes32[]",
          "indexed": false,
          "internalType": "bytes32[]"
        }
      ],
      "anonymous": false
    },
    {
      "type": "event",
      "name": "ProjectCollateralFeeAdded",
      "inputs": [
        {
          "name": "amount",
          "type": "uint256",
          "indexed": false,
          "internalType": "uint256"
        }
      ],
      "anonymous": false
    },
    {
      "type": "event",
      "name": "ProjectCollateralFeeWithdrawn",
      "inputs": [
        {
          "name": "receiver",
          "type": "address",
          "indexed": false,
          "internalType": "address"
        },
        {
          "name": "amount",
          "type": "uint256",
          "indexed": false,
          "internalType": "uint256"
        }
      ],
      "anonymous": false
    },
    {
      "type": "event",
      "name": "ProjectTreasuryUpdated",
      "inputs": [
        {
          "name": "currentProjectTreasury_",
          "type": "address",
          "indexed": true,
          "internalType": "address"
        },
        {
          "name": "newProjectTreasury_",
          "type": "address",
          "indexed": true,
          "internalType": "address"
        }
      ],
      "anonymous": false
    },
    {
      "type": "event",
      "name": "ProtocolFeeMinted",
      "inputs": [
        {
          "name": "token",
          "type": "address",
          "indexed": true,
          "internalType": "address"
        },
        {
          "name": "treasury",
          "type": "address",
          "indexed": true,
          "internalType": "address"
        },
        {
          "name": "feeAmount",
          "type": "uint256",
          "indexed": false,
          "internalType": "uint256"
        }
      ],
      "anonymous": false
    },
    {
      "type": "event",
      "name": "ProtocolFeeTransferred",
      "inputs": [
        {
          "name": "token",
          "type": "address",
          "indexed": true,
          "internalType": "address"
        },
        {
          "name": "treasury",
          "type": "address",
          "indexed": true,
          "internalType": "address"
        },
        {
          "name": "feeAmount",
          "type": "uint256",
          "indexed": false,
          "internalType": "uint256"
        }
      ],
      "anonymous": false
    },
    {
      "type": "event",
      "name": "RedemptionAmountUpdated",
      "inputs": [
        {
          "name": "_openRedemptionAmount",
          "type": "uint256",
          "indexed": false,
          "internalType": "uint256"
        }
      ],
      "anonymous": false
    },
    {
      "type": "event",
      "name": "RedemptionOrderCreated",
      "inputs": [
        {
          "name": "paymentClient_",
          "type": "address",
          "indexed": true,
          "internalType": "address"
        },
        {
          "name": "orderId_",
          "type": "uint256",
          "indexed": true,
          "internalType": "uint256"
        },
        {
          "name": "seller_",
          "type": "address",
          "indexed": false,
          "internalType": "address"
        },
        {
          "name": "receiver_",
          "type": "address",
          "indexed": true,
          "internalType": "address"
        },
        {
          "name": "sellAmount_",
          "type": "uint256",
          "indexed": false,
          "internalType": "uint256"
        },
        {
          "name": "exchangeRate_",
          "type": "uint256",
          "indexed": false,
          "internalType": "uint256"
        },
        {
          "name": "feePercentage_",
          "type": "uint256",
          "indexed": false,
          "internalType": "uint256"
        },
        {
          "name": "feeAmount_",
          "type": "uint256",
          "indexed": false,
          "internalType": "uint256"
        },
        {
          "name": "finalRedemptionAmount_",
          "type": "uint256",
          "indexed": false,
          "internalType": "uint256"
        },
        {
          "name": "collateralToken_",
          "type": "address",
          "indexed": false,
          "internalType": "address"
        },
        {
          "name": "state_",
          "type": "uint8",
          "indexed": false,
          "internalType": "enum IFM_PC_Oracle_Redeeming_v1.RedemptionState"
        }
      ],
      "anonymous": false
    },
    {
      "type": "event",
      "name": "ReserveDeposited",
      "inputs": [
        {
          "name": "depositor_",
          "type": "address",
          "indexed": true,
          "internalType": "address"
        },
        {
          "name": "amount_",
          "type": "uint256",
          "indexed": false,
          "internalType": "uint256"
        }
      ],
      "anonymous": false
    },
    {
      "type": "event",
      "name": "SellFeeUpdated",
      "inputs": [
        {
          "name": "newSellFee",
          "type": "uint256",
          "indexed": false,
          "internalType": "uint256"
        },
        {
          "name": "oldSellFee",
          "type": "uint256",
          "indexed": false,
          "internalType": "uint256"
        }
      ],
      "anonymous": false
    },
    {
      "type": "event",
      "name": "SellingDisabled",
      "inputs": [],
      "anonymous": false
    },
    {
      "type": "event",
      "name": "SellingEnabled",
      "inputs": [],
      "anonymous": false
    },
    {
      "type": "event",
      "name": "TokenDecimalsUpdated",
      "inputs": [
        {
          "name": "oldDecimals",
          "type": "uint8",
          "indexed": false,
          "internalType": "uint8"
        },
        {
          "name": "newDecimals",
          "type": "uint8",
          "indexed": false,
          "internalType": "uint8"
        }
      ],
      "anonymous": false
    },
    {
      "type": "event",
      "name": "TokensBought",
      "inputs": [
        {
          "name": "receiver",
          "type": "address",
          "indexed": true,
          "internalType": "address"
        },
        {
          "name": "depositAmount",
          "type": "uint256",
          "indexed": false,
          "internalType": "uint256"
        },
        {
          "name": "receivedAmount",
          "type": "uint256",
          "indexed": false,
          "internalType": "uint256"
        },
        {
          "name": "buyer",
          "type": "address",
          "indexed": false,
          "internalType": "address"
        }
      ],
      "anonymous": false
    },
    {
      "type": "event",
      "name": "TokensSold",
      "inputs": [
        {
          "name": "receiver",
          "type": "address",
          "indexed": true,
          "internalType": "address"
        },
        {
          "name": "depositAmount",
          "type": "uint256",
          "indexed": false,
          "internalType": "uint256"
        },
        {
          "name": "receivedAmount",
          "type": "uint256",
          "indexed": false,
          "internalType": "uint256"
        },
        {
          "name": "seller",
          "type": "address",
          "indexed": false,
          "internalType": "address"
        }
      ],
      "anonymous": false
    },
    {
      "type": "event",
      "name": "TransferOrchestratorToken",
      "inputs": [
        {
          "name": "_to",
          "type": "address",
          "indexed": true,
          "internalType": "address"
        },
        {
          "name": "_amount",
          "type": "uint256",
          "indexed": false,
          "internalType": "uint256"
        }
      ],
      "anonymous": false
    },
    {
      "type": "error",
      "name": "AddressEmptyCode",
      "inputs": [
        {
          "name": "target",
          "type": "address",
          "internalType": "address"
        }
      ]
    },
    {
      "type": "error",
      "name": "AddressInsufficientBalance",
      "inputs": [
        {
          "name": "account",
          "type": "address",
          "internalType": "address"
        }
      ]
    },
    {
      "type": "error",
      "name": "FailedInnerCall",
      "inputs": []
    },
    {
      "type": "error",
      "name": "InvalidInitialization",
      "inputs": []
    },
    {
      "type": "error",
      "name": "InvalidOrchestratorTokenWithdrawAmount",
      "inputs": []
    },
    {
      "type": "error",
      "name": "Module_OrchestratorCallbackFailed",
      "inputs": [
        {
          "name": "funcSig",
          "type": "string",
          "internalType": "string"
        }
      ]
    },
    {
      "type": "error",
      "name": "Module__BondingCurveBase__BuyingFunctionaltiesClosed",
      "inputs": []
    },
    {
      "type": "error",
      "name": "Module__BondingCurveBase__FeeAmountToHigh",
      "inputs": []
    },
    {
      "type": "error",
      "name": "Module__BondingCurveBase__InsufficientOutputAmount",
      "inputs": []
    },
    {
      "type": "error",
      "name": "Module__BondingCurveBase__InvalidDepositAmount",
      "inputs": []
    },
    {
      "type": "error",
      "name": "Module__BondingCurveBase__InvalidFeePercentage",
      "inputs": []
    },
    {
      "type": "error",
      "name": "Module__BondingCurveBase__InvalidMinAmountOut",
      "inputs": []
    },
    {
      "type": "error",
      "name": "Module__BondingCurveBase__InvalidRecipient",
      "inputs": []
    },
    {
      "type": "error",
      "name": "Module__BondingCurveBase__InvalidWithdrawAmount",
      "inputs": []
    },
    {
      "type": "error",
      "name": "Module__BondingCurveBase__TradeAmountTooLow",
      "inputs": []
    },
    {
      "type": "error",
      "name": "Module__CallerNotAuthorized",
      "inputs": [
        {
          "name": "role",
          "type": "bytes32",
          "internalType": "bytes32"
        },
        {
          "name": "caller",
          "type": "address",
          "internalType": "address"
        }
      ]
    },
    {
      "type": "error",
      "name": "Module__ERC20PaymentClientBase__CallerNotAuthorized",
      "inputs": []
    },
    {
      "type": "error",
      "name": "Module__ERC20PaymentClientBase__InsufficientFunds",
      "inputs": [
        {
          "name": "token",
          "type": "address",
          "internalType": "address"
        }
      ]
    },
    {
      "type": "error",
      "name": "Module__ERC20PaymentClientBase__InvalidAmount",
      "inputs": []
    },
    {
      "type": "error",
      "name": "Module__ERC20PaymentClientBase__InvalidPaymentOrder",
      "inputs": []
    },
    {
      "type": "error",
      "name": "Module__ERC20PaymentClientBase__InvalidRecipient",
      "inputs": []
    },
    {
      "type": "error",
      "name": "Module__ERC20PaymentClientBase__InvalidToken",
      "inputs": []
    },
    {
      "type": "error",
      "name": "Module__ERC20PaymentClientBase__MismatchBetweenFlagCountAndArrayLength",
      "inputs": [
        {
          "name": "flagCount",
          "type": "uint8",
          "internalType": "uint8"
        },
        {
          "name": "arrayLength",
          "type": "uint256",
          "internalType": "uint256"
        }
      ]
    },
    {
      "type": "error",
      "name": "Module__ERC20PaymentClientBase__TokenTransferFailed",
      "inputs": []
    },
    {
      "type": "error",
      "name": "Module__ERC20PaymentClientBase_v2__FlagAmountTooHigh",
      "inputs": []
    },
    {
      "type": "error",
      "name": "Module__FM_PC_ExternalPrice_Redeeming_FeeExceedsMaximum",
      "inputs": [
        {
          "name": "fee_",
          "type": "uint256",
          "internalType": "uint256"
        },
        {
          "name": "maxFee_",
          "type": "uint256",
          "internalType": "uint256"
        }
      ]
    },
    {
      "type": "error",
      "name": "Module__FM_PC_ExternalPrice_Redeeming_InvalidAmount",
      "inputs": []
    },
    {
      "type": "error",
      "name": "Module__FM_PC_ExternalPrice_Redeeming_InvalidMaxFee",
      "inputs": []
    },
    {
      "type": "error",
      "name": "Module__FM_PC_ExternalPrice_Redeeming_InvalidOracleInterface",
      "inputs": []
    },
    {
      "type": "error",
      "name": "Module__FM_PC_ExternalPrice_Redeeming_InvalidProjectTreasury",
      "inputs": []
    },
    {
      "type": "error",
      "name": "Module__FM_PC_ExternalPrice_Redeeming_QueueExecutionFailed",
      "inputs": []
    },
    {
      "type": "error",
      "name": "Module__FM_PC_ExternalPrice_Redeeming_ThirdPartyOperationsDisabled",
      "inputs": []
    },
    {
      "type": "error",
      "name": "Module__InvalidAddress",
      "inputs": []
    },
    {
      "type": "error",
      "name": "Module__InvalidMetadata",
      "inputs": []
    },
    {
      "type": "error",
      "name": "Module__InvalidOrchestratorAddress",
      "inputs": []
    },
    {
      "type": "error",
      "name": "Module__OnlyCallableByOrchestrator",
      "inputs": []
    },
    {
      "type": "error",
      "name": "Module__OnlyCallableByPaymentClient",
      "inputs": []
    },
    {
      "type": "error",
      "name": "Module__RedeemingBondingCurveBase__InsufficientCollateralForProjectFee",
      "inputs": []
    },
    {
      "type": "error",
      "name": "Module__RedeemingBondingCurveBase__SellingFunctionaltiesClosed",
      "inputs": []
    },
    {
      "type": "error",
      "name": "NotInitializing",
      "inputs": []
    },
    {
      "type": "error",
      "name": "SafeERC20FailedOperation",
      "inputs": [
        {
          "name": "token",
          "type": "address",
          "internalType": "address"
        }
      ]
    }
  ],
  "bytecode": {
    "object": "0x60a060405234801562000010575f80fd5b505f6080526200001f62000025565b620000d9565b7ff0c57e16840df040f15088dc2f81fe391c3923bec73e23a9662efc9c229c6a00805468010000000000000000900460ff1615620000765760405163f92ee8a960e01b815260040160405180910390fd5b80546001600160401b0390811614620000d65780546001600160401b0319166001600160401b0390811782556040519081527fc7f505b2f371ae2175ee4913f4499e1f2633a7b5936321eed1cdaeb6115181d29060200160405180910390a15b50565b6080516156ae620000ef5f395f50506156ae5ff3fe608060405234801561000f575f80fd5b5060043610610393575f3560e01c8063833b1fce116101df578063c35067ed11610109578063d6febde8116100a9578063f42d48a111610079578063f42d48a11461076f578063fa03330c14610782578063fc0c546a1461078a578063fc9d2c9d1461079b575f80fd5b8063d6febde814610739578063d79875eb1461074c578063e91b433d1461075f578063f1eae64a14610767575f80fd5b8063c6ab5cdc116100e4578063c6ab5cdc1461070b578063c9582f2014610713578063cbda8f8214610728578063d4a6793014610731575f80fd5b8063c35067ed146106d9578063c5b27dde146106e4578063c6829ba2146106f7575f80fd5b8063b33ec6181161017f578063bcb619201161014f578063bcb6192014610681578063bd09840414610694578063bf58015c1461069c578063c0231ff6146106c2575f80fd5b8063b33ec61814610643578063b66a870c14610656578063b74795d914610669578063ba83c97014610679575f80fd5b80638f818b90116101ba5780638f818b90146106135780639093b01f1461061b578063935b7dbd14610628578063a84964261461063b575f80fd5b8063833b1fce146105dc578063844b2d43146105ed5780638b4cee0814610600575f80fd5b80634f55f014116102c0578063683c9dad11610260578063759cc4b511610230578063759cc4b5146105a457806375fa0b76146105b75780637998a1c4146105cc5780637da0a877146105d4575f80fd5b8063683c9dad1461056e57806369fcd4ac146105765780636c67e807146105895780636cc7149d1461059c575f80fd5b806352192af61161029b57806352192af61461050957806354fd4d501461052f5780635600f04f14610553578063572b6c051461055b575f80fd5b80634f55f014146104d75780634f893bba146104ee578063519cdc6f14610501575f80fd5b8063289af0d811610336578063322d210011610306578063322d21001461049357806347062402146104a65780634a79d50c146104af5780634c69c00f146104c4575f80fd5b8063289af0d8146104445780632b14ca561461044c5780632c2ee2b5146104555780632e84db5f1461046b575f80fd5b80631ca3bc4f116103715780631ca3bc4f146103e65780631e96bb9e1461040b57806324e302701461041e578063272bbd4414610431575f80fd5b806301ffc9a7146103975780630cc835a3146103bf5780631835f541146103d4575b5f80fd5b6103aa6103a5366004614b0c565b6107c1565b60405190151581526020015b60405180910390f35b6103d26103cd366004614b33565b610806565b005b60da545b6040519081526020016103b6565b606c546001600160a01b03165b6040516001600160a01b0390911681526020016103b6565b6103d2610419366004614b5e565b6108ea565b6103d261042c366004614b79565b61093b565b6103d261043f366004614b79565b610baa565b60a2546103d8565b6103d860a25481565b60db5461010090046001600160a01b03166103f3565b6103d8610479366004614b5e565b6001600160a01b03165f9081526039602052604090205490565b6103d86104a1366004614b33565b610d79565b6103d8606d5481565b6104b7610e1c565b6040516103b69190614c3e565b6103d26104d2366004614b5e565b610eaf565b6d57484954454c4953545f524f4c4560901b6103d8565b6103d26104fc366004614c50565b610f00565b60d7546103d8565b7f51554555455f4558454355544f525f524f4c45000000000000000000000000006103d8565b600154600254600354604080519384526020840192909252908201526060016103b6565b6104b76110ba565b6103aa610569366004614b5e565b6110cc565b6103d2611138565b6103d8610584366004614b33565b611329565b6103d2610597366004614c7a565b6113c4565b603b546103d8565b6103d26105b2366004614c50565b6115ca565b6105bf611630565b6040516103b69190614d9f565b6103d8611723565b6103f361187b565b60d5546001600160a01b03166103f3565b6103d26105fb366004614dbe565b6118ef565b6103d261060e366004614b33565b611940565b606d546103d8565b60a1546103aa9060ff1681565b6103d2610636366004614dd9565b611991565b60d9546103d8565b6103d2610651366004614c50565b611a29565b6103d2610664366004614ed1565b611a3c565b5f546001600160a01b03166103f3565b6103d2611c93565b6103d261068f366004614c7a565b611d0f565b6103d8611ee6565b7f51554555455f4558454355544f525f524f4c455f41444d494e000000000000006103d8565b6106ca611f50565b6040516103b693929190614faf565b60db5460ff166103aa565b6103d26106f2366004614dd9565b612444565b606c546103aa90600160a01b900460ff1681565b6103d26124d6565b603a5460405160ff90911681526020016103b6565b6103d8606e5481565b6103d2612555565b6103d2610747366004615044565b6125da565b6103d261075a366004615044565b612654565b60d8546103d8565b6103d26126c9565b6103d261077d366004614b33565b612748565b6103d86127e5565b60d6546001600160a01b03166103f3565b7f57484954454c4953545f524f4c455f41444d494e0000000000000000000000006103d8565b5f6001600160e01b03198216636bc4cd8b60e11b14806107f157506001600160e01b0319821663899090df60e01b145b8061080057506108008261282c565b92915050565b5f546040805163d09edf3160e01b815290516108de926001600160a01b03169163d09edf319160048083019260209291908290030181865afa15801561084e573d5f803e3d5ffd5b505050506040513d601f19601f820116820180604052508101906108729190615064565b6001600160a01b031663b3ecf2366040518163ffffffff1660e01b8152600401602060405180830381865afa1580156108ad573d5f803e3d5ffd5b505050506040513d601f19601f820116820180604052508101906108d1919061507f565b6108d9612850565b6128a0565b6108e7816129b7565b50565b5f546040805163d09edf3160e01b81529051610932926001600160a01b03169163d09edf319160048083019260209291908290030181865afa15801561084e573d5f803e3d5ffd5b6108e7816129f1565b5f80546040805163d09edf3160e01b815290518693926001600160a01b03169163d09edf319160048083019260209291908290030181865afa158015610983573d5f803e3d5ffd5b505050506040513d601f19601f820116820180604052508101906109a79190615064565b60405163fdd5205f60e01b8152306004820152602481018490526001600160a01b03919091169063fdd5205f90604401602060405180830381865afa1580156109f2573d5f803e3d5ffd5b505050506040513d601f19601f82011682018060405250810190610a16919061507f565b9050610ad55f8054906101000a90046001600160a01b03166001600160a01b031663d09edf316040518163ffffffff1660e01b8152600401602060405180830381865afa158015610a69573d5f803e3d5ffd5b505050506040513d601f19601f82011682018060405250810190610a8d9190615064565b6001600160a01b031663248a9ca3836040518263ffffffff1660e01b8152600401610aba91815260200190565b602060405180830381865afa1580156108ad573d5f803e3d5ffd5b5f8054906101000a90046001600160a01b03166001600160a01b031663d09edf316040518163ffffffff1660e01b8152600401602060405180830381865afa158015610b23573d5f803e3d5ffd5b505050506040513d601f19601f82011682018060405250810190610b479190615064565b6001600160a01b0316637d540a648686866040518463ffffffff1660e01b8152600401610b7693929190615096565b5f604051808303815f87803b158015610b8d575f80fd5b505af1158015610b9f573d5f803e3d5ffd5b505050505050505050565b5f80546040805163d09edf3160e01b815290518693926001600160a01b03169163d09edf319160048083019260209291908290030181865afa158015610bf2573d5f803e3d5ffd5b505050506040513d601f19601f82011682018060405250810190610c169190615064565b60405163fdd5205f60e01b8152306004820152602481018490526001600160a01b03919091169063fdd5205f90604401602060405180830381865afa158015610c61573d5f803e3d5ffd5b505050506040513d601f19601f82011682018060405250810190610c85919061507f565b9050610cd85f8054906101000a90046001600160a01b03166001600160a01b031663d09edf316040518163ffffffff1660e01b8152600401602060405180830381865afa158015610a69573d5f803e3d5ffd5b5f8054906101000a90046001600160a01b03166001600160a01b031663d09edf316040518163ffffffff1660e01b8152600401602060405180830381865afa158015610d26573d5f803e3d5ffd5b505050506040513d601f19601f82011682018060405250810190610d4a9190615064565b6001600160a01b031663648154538686866040518463ffffffff1660e01b8152600401610b7693929190615096565b5f610d85826001612a95565b60408051808201909152601c81527f5f6275794f7264657228616464726573732c75696e742c75696e7429000000006020909101525f80610de57fdb2c93faffa8f98d8bcd55cf740e8ead65ac1699aaf6ee8a00820485fc802af6612ad5565b935093505050610df88483606d54612afc565b50909450610e119050610e0a85612bc8565b825f612afc565b509095945050505050565b606060016004018054610e2e906150ed565b80601f0160208091040260200160405190810160405280929190818152602001828054610e5a906150ed565b8015610ea55780601f10610e7c57610100808354040283529160200191610ea5565b820191905f5260205f20905b815481529060010190602001808311610e8857829003601f168201915b5050505050905090565b5f546040805163d09edf3160e01b81529051610ef7926001600160a01b03169163d09edf319160048083019260209291908290030181865afa15801561084e573d5f803e3d5ffd5b6108e781612c84565b81610f0a81612d69565b5f546040805163d09edf3160e01b81529051610f52926001600160a01b03169163d09edf319160048083019260209291908290030181865afa15801561084e573d5f803e3d5ffd5b606e54821115610f75576040516347d1bcf560e01b815260040160405180910390fd5b81606e5f828254610f869190615139565b9250508190555061107383835f8054906101000a90046001600160a01b03166001600160a01b03166304baed9e6040518163ffffffff1660e01b8152600401602060405180830381865afa158015610fe0573d5f803e3d5ffd5b505050506040513d601f19601f820116820180604052508101906110049190615064565b6001600160a01b031663fc0c546a6040518163ffffffff1660e01b8152600401602060405180830381865afa15801561103f573d5f803e3d5ffd5b505050506040513d601f19601f820116820180604052508101906110639190615064565b6001600160a01b03169190612da5565b604080516001600160a01b0385168152602081018490527f9e9a785b42ae3ce89ea11b526c656a7cacbd520b83908336dc8c9f4e9be9135f910160405180910390a1505050565b606060016003018054610e2e906150ed565b5f805460405163572b6c0560e01b81526001600160a01b0384811660048301529091169063572b6c0590602401602060405180830381865afa158015611114573d5f803e3d5ffd5b505050506040513d601f19601f82011682018060405250810190610800919061514c565b7f51554555455f4558454355544f525f524f4c45000000000000000000000000006112035f8054906101000a90046001600160a01b03166001600160a01b031663d09edf316040518163ffffffff1660e01b8152600401602060405180830381865afa1580156111aa573d5f803e3d5ffd5b505050506040513d601f19601f820116820180604052508101906111ce9190615064565b60405163fdd5205f60e01b8152306004820152602481018490526001600160a01b03919091169063fdd5205f90604401610aba565b5f805f9054906101000a90046001600160a01b03166001600160a01b031663f1c6bdf86040518163ffffffff1660e01b8152600401602060405180830381865afa158015611253573d5f803e3d5ffd5b505050506040513d601f19601f820116820180604052508101906112779190615064565b6040513060248201526001600160a01b03919091169060440160408051601f198184030181529181526020820180516001600160e01b03166313adbc2d60e31b179052516112c59190615167565b5f604051808303815f865af19150503d805f81146112fe576040519150601f19603f3d011682016040523d82523d5f602084013e611303565b606091505b505090508061132557604051630c18dce960e41b815260040160405180910390fd5b5050565b5f611335826001612a95565b60408051808201909152601d81527f5f73656c6c4f7264657228616464726573732c75696e742c75696e74290000006020909101525f806113957f3299ac1e4997da1dd638584692e27ee6e952ca63f8284764a73c592284e1d9e8612ad5565b9350935050506113a684825f612afc565b509094506113b5905084612e04565b9250610e11838360a254612afc565b5f80546040805163d09edf3160e01b815290518593926001600160a01b03169163d09edf319160048083019260209291908290030181865afa15801561140c573d5f803e3d5ffd5b505050506040513d601f19601f820116820180604052508101906114309190615064565b60405163fdd5205f60e01b8152306004820152602481018490526001600160a01b03919091169063fdd5205f90604401602060405180830381865afa15801561147b573d5f803e3d5ffd5b505050506040513d601f19601f8201168201806040525081019061149f919061507f565b90506114f25f8054906101000a90046001600160a01b03166001600160a01b031663d09edf316040518163ffffffff1660e01b8152600401602060405180830381865afa158015610a69573d5f803e3d5ffd5b5f8054906101000a90046001600160a01b03166001600160a01b031663d09edf316040518163ffffffff1660e01b8152600401602060405180830381865afa158015611540573d5f803e3d5ffd5b505050506040513d601f19601f820116820180604052508101906115649190615064565b60405163385e205560e21b8152600481018690526001600160a01b038581166024830152919091169063e1788154906044015b5f604051808303815f87803b1580156115ae575f80fd5b505af11580156115c0573d5f803e3d5ffd5b5050505050505050565b6115d2612eca565b6115e9828261106360d6546001600160a01b031690565b816001600160a01b03167fe88292c5f714100904272672c0420345093bd0e3c5555d31f3e4e2cf5f6ca8a18260405161162491815260200190565b60405180910390a25050565b60606038805480602002602001604051908101604052809291908181526020015f905b8282101561171a575f8481526020908190206040805160e0810182526007860290920180546001600160a01b039081168452600182015416838501526002810154838301526003810154606084015260048101546080840152600581015460a08401526006810180548351818702810187019094528084529394919360c08601939283018282801561170257602002820191905f5260205f20905b8154815260200190600101908083116116ee575b50505050508152505081526020019060010190611653565b50505050905090565b5f61187660016040518060a00160405290815f82015481526020016001820154815260200160028201548152602001600382018054611761906150ed565b80601f016020809104026020016040519081016040528092919081815260200182805461178d906150ed565b80156117d85780601f106117af576101008083540402835291602001916117d8565b820191905f5260205f20905b8154815290600101906020018083116117bb57829003601f168201915b505050505081526020016004820180546117f1906150ed565b80601f016020809104026020016040519081016040528092919081815260200182805461181d906150ed565b80156118685780601f1061183f57610100808354040283529160200191611868565b820191905f5260205f20905b81548152906001019060200180831161184b57829003601f168201915b505050505081525050613067565b905090565b5f805f9054906101000a90046001600160a01b03166001600160a01b0316637da0a8776040518163ffffffff1660e01b8152600401602060405180830381865afa1580156118cb573d5f803e3d5ffd5b505050506040513d601f19601f820116820180604052508101906118769190615064565b5f546040805163d09edf3160e01b81529051611937926001600160a01b03169163d09edf319160048083019260209291908290030181865afa15801561084e573d5f803e3d5ffd5b6108e7816130a5565b5f546040805163d09edf3160e01b81529051611988926001600160a01b03169163d09edf319160048083019260209291908290030181865afa15801561084e573d5f803e3d5ffd5b6108e7816130ed565b6d57484954454c4953545f524f4c4560901b6119f45f8054906101000a90046001600160a01b03166001600160a01b031663d09edf316040518163ffffffff1660e01b8152600401602060405180830381865afa1580156111aa573d5f803e3d5ffd5b60db5460ff1615611a1857604051635efada0360e01b815260040160405180910390fd5b611a23848484613127565b50505050565b611a328161314c565b611325828261319c565b7ff0c57e16840df040f15088dc2f81fe391c3923bec73e23a9662efc9c229c6a00805468010000000000000000810460ff16159067ffffffffffffffff165f81158015611a865750825b90505f8267ffffffffffffffff166001148015611aa25750303b155b905081158015611ab0575080155b15611ace5760405163f92ee8a960e01b815260040160405180910390fd5b845467ffffffffffffffff191660011785558315611b0257845468ff00000000000000001916680100000000000000001785555b611b0c88886131f4565b5f805f805f805f808d806020019051810190611b289190615182565b975097509750975097509750975097508560d65f6101000a8154816001600160a01b0302191690836001600160a01b0316021790555060d65f9054906101000a90046001600160a01b03166001600160a01b031663313ce5676040518163ffffffff1660e01b8152600401602060405180830381865afa158015611bae573d5f803e3d5ffd5b505050506040513d601f19601f82011682018060405250810190611bd29190615206565b60d660156101000a81548160ff021916908360ff160217905550611bf5876132e1565b611bfe826133b2565b611c0783613414565b611c10856129b7565b611c19846130ed565b611c22886129f1565b611c2b816130a5565b6001611c3681613476565b50505050505050505083156115c057845468ff000000000000000019168555604051600181527fc7f505b2f371ae2175ee4913f4499e1f2633a7b5936321eed1cdaeb6115181d29060200160405180910390a15050505050505050565b5f546040805163d09edf3160e01b81529051611cdb926001600160a01b03169163d09edf319160048083019260209291908290030181865afa15801561084e573d5f803e3d5ffd5b60a1805460ff191690556040517fc34ae80cb7f967a799992108cfbc90770413d60555d5b0587a4c2c3e69c79ca4905f90a1565b5f80546040805163d09edf3160e01b815290518593926001600160a01b03169163d09edf319160048083019260209291908290030181865afa158015611d57573d5f803e3d5ffd5b505050506040513d601f19601f82011682018060405250810190611d7b9190615064565b60405163fdd5205f60e01b8152306004820152602481018490526001600160a01b03919091169063fdd5205f90604401602060405180830381865afa158015611dc6573d5f803e3d5ffd5b505050506040513d601f19601f82011682018060405250810190611dea919061507f565b9050611e3d5f8054906101000a90046001600160a01b03166001600160a01b031663d09edf316040518163ffffffff1660e01b8152600401602060405180830381865afa158015610a69573d5f803e3d5ffd5b5f8054906101000a90046001600160a01b03166001600160a01b031663d09edf316040518163ffffffff1660e01b8152600401602060405180830381865afa158015611e8b573d5f803e3d5ffd5b505050506040513d601f19601f82011682018060405250810190611eaf9190615064565b604051632e99be7f60e21b8152600481018690526001600160a01b038581166024830152919091169063ba66f9fc90604401611597565b60d55460408051624c7ad160e51b815290515f926001600160a01b03169163098f5a209160048083019260209291908290030181865afa158015611f2c573d5f803e3d5ffd5b505050506040513d601f19601f82011682018060405250810190611876919061507f565b6060806060611f65611f60612850565b613487565b611f825760405163e4597a6b60e01b815260040160405180910390fd5b6038545f808267ffffffffffffffff811115611fa057611fa0614e0b565b604051908082528060200260200182016040528015611fc9578160200160208202803683370190505b5090505f8367ffffffffffffffff811115611fe657611fe6614e0b565b60405190808252806020026020018201604052801561200f578160200160208202803683370190505b5090508367ffffffffffffffff81111561202b5761202b614e0b565b6040519080825280602002602001820160405280156120ab57816020015b6120986040518060e001604052805f6001600160a01b031681526020015f6001600160a01b031681526020015f81526020015f81526020015f81526020015f8019168152602001606081525090565b8152602001906001900390816120495790505b5096505f5b848110156122cf57603881815481106120cb576120cb615226565b5f9182526020918290206040805160e081018252600790930290910180546001600160a01b039081168452600182015416838501526002810154838301526003810154606084015260048101546080840152600581015460a08401526006810180548351818702810187019094528084529394919360c08601939283018282801561217357602002820191905f5260205f20905b81548152602001906001019080831161215f575b50505050508152505088828151811061218e5761218e615226565b60200260200101819052505f805b85811015612204578983815181106121b6576121b6615226565b6020026020010151602001516001600160a01b03168582815181106121dd576121dd615226565b60200260200101516001600160a01b0316036121fc5760019150612204565b60010161219c565b50806122c65788828151811061221c5761221c615226565b60200260200101516020015184868151811061223a5761223a615226565b60200260200101906001600160a01b031690816001600160a01b03168152505060395f8a848151811061226f5761226f615226565b6020026020010151602001516001600160a01b03166001600160a01b031681526020019081526020015f20548386815181106122ad576122ad615226565b6020908102919091010152846122c28161523a565b9550505b506001016120b0565b506122db60385f614a20565b8267ffffffffffffffff8111156122f4576122f4614e0b565b60405190808252806020026020018201604052801561231d578160200160208202803683370190505b5095508267ffffffffffffffff81111561233957612339614e0b565b604051908082528060200260200182016040528015612362578160200160208202803683370190505b5094505f5b8381101561243a5782818151811061238157612381615226565b602002602001015187828151811061239b5761239b615226565b60200260200101906001600160a01b031690816001600160a01b0316815250508181815181106123cd576123cd615226565b60200260200101518682815181106123e7576123e7615226565b60200260200101818152505061241d6123fe612850565b88838151811061241057612410615226565b6020026020010151613504565b61243287828151811061132557611325615226565b600101612367565b5050505050909192565b6d57484954454c4953545f524f4c4560901b6124a75f8054906101000a90046001600160a01b03166001600160a01b031663d09edf316040518163ffffffff1660e01b8152600401602060405180830381865afa1580156111aa573d5f803e3d5ffd5b60db5460ff16156124cb57604051635efada0360e01b815260040160405180910390fd5b611a23848484613528565b5f546040805163d09edf3160e01b8152905161251e926001600160a01b03169163d09edf319160048083019260209291908290030181865afa15801561084e573d5f803e3d5ffd5b606c805460ff60a01b191690556040517f44c1679cca34073ce70fed616f995237808d9599a35669fd39f3afd053e2b9b1905f90a1565b5f546040805163d09edf3160e01b8152905161259d926001600160a01b03169163d09edf319160048083019260209291908290030181865afa15801561084e573d5f803e3d5ffd5b606c805460ff60a01b1916600160a01b1790556040517fe404df37e2f7360b624914a082278de0f9e7da04a61eaab0a8d3d26b52bc0b19905f90a1565b6d57484954454c4953545f524f4c4560901b61263d5f8054906101000a90046001600160a01b03166001600160a01b031663d09edf316040518163ffffffff1660e01b8152600401602060405180830381865afa1580156111aa573d5f803e3d5ffd5b61264f612648612850565b8484613127565b505050565b6d57484954454c4953545f524f4c4560901b6126b75f8054906101000a90046001600160a01b03166001600160a01b031663d09edf316040518163ffffffff1660e01b8152600401602060405180830381865afa1580156111aa573d5f803e3d5ffd5b61264f6126c2612850565b8484613528565b5f546040805163d09edf3160e01b81529051612711926001600160a01b03169163d09edf319160048083019260209291908290030181865afa15801561084e573d5f803e3d5ffd5b60a1805460ff191660011790556040517f9d47627df4f01d3bff516199297ca647fe2ea0448c4f2925ef8c16d614a51a7c905f90a1565b805f0361276857604051638bc7e94360e01b815260040160405180910390fd5b612798612773612850565b308361278760d6546001600160a01b031690565b6001600160a01b0316929190613545565b6127a0612850565b6001600160a01b03167fcea2aa568570e239e616fd2e9bcf2301307aa1c1c1f355305a87e5cdd46bbc79826040516127da91815260200190565b60405180910390a250565b60d55460408051636650c9c560e01b815290515f926001600160a01b031691636650c9c59160048083019260209291908290030181865afa158015611f2c573d5f803e3d5ffd5b5f6001600160e01b031982166306fa99af60e01b148061080057506108008261357e565b5f36601461285d336110cc565b80156128695750808210155b15612898575f3661287a8385615139565b612885928290615252565b61288e91615279565b60601c9250505090565b339250505090565b5f8054906101000a90046001600160a01b03166001600160a01b031663d09edf316040518163ffffffff1660e01b8152600401602060405180830381865afa1580156128ee573d5f803e3d5ffd5b505050506040513d601f19601f820116820180604052508101906129129190615064565b60405163a883867d60e01b8152600481018490526001600160a01b038381166024830152919091169063a883867d90604401602060405180830381865afa15801561295f573d5f803e3d5ffd5b505050506040513d601f19601f82011682018060405250810190612983919061514c565b611325576040516342abbb7760e01b8152600481018390526001600160a01b03821660248201526044015b60405180910390fd5b60d8548111156129e85760d85460405163960983cd60e01b81526129ae918391600401918252602082015260400190565b6108e7816135a2565b6001600160a01b038116612a1857604051638b7abe6160e01b815260040160405180910390fd5b60db546040516001600160a01b0380841692610100900416907fade4ce28bbd5bf468b289f1f7b20eeea5d4caba5abd98d12e3d3ce31c7b3aca7905f90a360db80546001600160a01b03909216610100027fffffffffffffffffffffff0000000000000000000000000000000000000000ff909216919091179055565b815f03612ab557604051631d67ff5760e11b815260040160405180910390fd5b805f036113255760405163d8674d0d60e01b815260040160405180910390fd5b5f805f80612ae2856135ed565b94509150612aef85613740565b9496949550919391925050565b5f8080612710612b0c85876152ae565b10612b2a576040516304e0874960e11b815260040160405180910390fd5b8415612b6957612710612b3d86886152c1565b612b4791906152d8565b9150815f03612b6957604051639c43a82560e01b815260040160405180910390fd5b8315612ba857612710612b7c85886152c1565b612b8691906152d8565b9050805f03612ba857604051639c43a82560e01b815260040160405180910390fd5b80612bb38388615139565b612bbd9190615139565b925093509350939050565b60d55460408051636650c9c560e01b815290515f926001600160a01b031691636650c9c59160048083019260209291908290030181865afa158015612c0f573d5f803e3d5ffd5b505050506040513d601f19601f82011682018060405250810190612c33919061507f565b60d654612c4b90600160a81b900460ff16600a6153d7565b612c5590846152c1565b612c5f91906152d8565b60d65490915061080090829060ff600160a81b8204811691600160a01b900416613850565b6040516301ffc9a760e01b8152636fdf93e560e01b60048201526001600160a01b038216906301ffc9a790602401602060405180830381865afa158015612ccd573d5f803e3d5ffd5b505050506040513d601f19601f82011682018060405250810190612cf1919061514c565b612d0e5760405163770e43d760e11b815260040160405180910390fd5b60d5546040516001600160a01b038084169216907f078c3b417dadf69374a59793b829c52001247130433427049317bde56607b1b7905f90a360d580546001600160a01b0319166001600160a01b0392909216919091179055565b6001600160a01b0381161580612d8757506001600160a01b03811630145b156108e75760405163364f556160e11b815260040160405180910390fd5b6040516001600160a01b0383811660248301526044820183905261264f91859182169063a9059cbb906064015b604051602081830303815290604052915060e01b6020820180516001600160e01b0383818316178352505050506138bf565b60d6545f908190612e2a90849060ff600160a01b8204811691600160a81b900416613850565b60d654909150612e4590600160a81b900460ff16600a6153d7565b60d55460408051624c7ad160e51b8152905184926001600160a01b03169163098f5a209160048083019260209291908290030181865afa158015612e8b573d5f803e3d5ffd5b505050506040513d601f19601f82011682018060405250810190612eaf919061507f565b612eb991906152c1565b612ec391906152d8565b9392505050565b5f546001600160a01b03166342f6e389612ee2612850565b6040516001600160e01b031960e084901b1681526001600160a01b039091166004820152602401602060405180830381865afa158015612f24573d5f803e3d5ffd5b505050506040513d601f19601f82011682018060405250810190612f48919061514c565b15806130475750612f57612850565b6040516301ffc9a760e01b81526346fe193d60e11b60048201526001600160a01b0391909116906301ffc9a790602401602060405180830381865afa158015612fa2573d5f803e3d5ffd5b505050506040513d601f19601f82011682018060405250810190612fc6919061514c565b1580156130475750612fd6612850565b6040516301ffc9a760e01b81526346fe193d60e11b60048201526001600160a01b0391909116906301ffc9a790602401602060405180830381865afa158015613021573d5f803e3d5ffd5b505050506040513d601f19601f82011682018060405250810190613045919061514c565b155b1561306557604051631b793e7f60e21b815260040160405180910390fd5b565b5f815f015182606001518360800151604051602001613088939291906153e5565b604051602081830303815290604052805190602001209050919050565b60db546040518215159160ff161515907ffecf51548a8b3e1aca619a99787d167e48e2280e5cd437004492f00926db9d68905f90a360db805460ff1916911515919091179055565b60d75481111561311e5760d75460405163960983cd60e01b81526129ae918391600401918252602082015260400190565b6108e781613920565b61312f61396b565b8261313981612d69565b613144848484613995565b505050505050565b8060da5f82825461315d9190615139565b909155505060da546040519081527ff49b79b8ace598121d8b2d2e2e89f08850497975163267ca862cf794b6451052906020015b60405180910390a150565b6131a7611f60612850565b6131c45760405163e4597a6b60e01b815260040160405180910390fd5b6001600160a01b0382165f90815260396020526040812080548392906131eb908490615139565b90915550505050565b6131fc613bf2565b6001600160a01b03821661322357604051637280679360e01b815260040160405180910390fd5b5f80546001600160a01b0319166001600160a01b03841617905561324681613c40565b61326357604051637511254160e01b815260040160405180910390fd5b8051600190815560208201516002556040820151600355606082015182919060049061328f908261545a565b50608082015160048201906132a4908261545a565b50905050816001600160a01b03167fd5f3f84c2e1816ce290af84d002663800b02f2985d770cdd335de76fd723b730826040516116249190615516565b5f816001600160a01b031663313ce5676040518163ffffffff1660e01b8152600401602060405180830381865afa15801561331e573d5f803e3d5ffd5b505050506040513d601f19601f820116820180604052508101906133429190615206565b606c80546001600160a01b0319166001600160a01b03851690811790915560d6805460ff60a01b1916600160a01b60ff851690810291909117909155604051908152919250907f4e547b7c6b59d324fecdb926aa12300420faf3a7e12a412eb7e0da193bb0d93e90602001611624565b61271081106133df5760405163960983cd60e01b81526004810182905261271060248201526044016129ae565b60d88190556040518181527f96d32832cc9a0c51b7c7cabcf6df92fc1f0e40af825e3b629e49645b5312218790602001613191565b61271081106134415760405163960983cd60e01b81526004810182905261271060248201526044016129ae565b60d78190556040518181527f0a475180b9321ef162bb9fc074f309c431fc4673820042b8a6af53b999b6f28790602001613191565b61347e613bf2565b6108e781613c9a565b5f805460408051631e38d7bf60e31b815290516001600160a01b0380861693169163f1c6bdf89160048083019260209291908290030181865afa1580156134d0573d5f803e3d5ffd5b505050506040513d601f19601f820116820180604052508101906134f49190615064565b6001600160a01b03161492915050565b6001600160a01b0381165f8181526039602052604090205461132591908490613d25565b613530613db4565b8261353a81612d69565b613144848484613dd7565b6040516001600160a01b038481166024830152838116604483015260648201839052611a239186918216906323b872dd90608401612dd2565b5f6001600160e01b03198216630bbeca6160e01b1480610800575061080082614023565b6135ab81614047565b606d546040805183815260208101929092527f28e297c7c282931a994191b735b01eaf17558295f761512a7047f4e1b8dc3b0b910160405180910390a1606d55565b5f80546040805163030d028960e21b8152905183926001600160a01b031691630c340a249160048083019260209291908290030181865afa158015613634573d5f803e3d5ffd5b505050506040513d601f19601f820116820180604052508101906136589190615064565b6001600160a01b031663f2d638266040518163ffffffff1660e01b8152600401602060405180830381865afa158015613693573d5f803e3d5ffd5b505050506040513d601f19601f820116820180604052508101906136b79190615064565b5f54604051634d970f5560e11b81526001600160a01b0391821660048201523060248201526001600160e01b031986166044820152911690639b2e1eaa906064015b6040805180830381865afa158015613713573d5f803e3d5ffd5b505050506040513d601f19601f82011682018060405250810190613737919061556c565b91509150915091565b5f80546040805163030d028960e21b8152905183926001600160a01b031691630c340a249160048083019260209291908290030181865afa158015613787573d5f803e3d5ffd5b505050506040513d601f19601f820116820180604052508101906137ab9190615064565b6001600160a01b031663f2d638266040518163ffffffff1660e01b8152600401602060405180830381865afa1580156137e6573d5f803e3d5ffd5b505050506040513d601f19601f8201168201806040525081019061380a9190615064565b5f546040516304e53bb360e01b81526001600160a01b0391821660048201523060248201526001600160e01b0319861660448201529116906304e53bb3906064016136f9565b5f8160ff168360ff1603613865575082612ec3565b8160ff168360ff16111561389d575f61387e838561558f565b61388990600a6153d7565b905061389581866152d8565b915050612ec3565b5f6138a8848461558f565b6138b390600a6153d7565b905061389581866152c1565b5f6138d36001600160a01b0384168361406a565b905080515f141580156138f75750808060200190518101906138f5919061514c565b155b1561264f57604051635274afe760e01b81526001600160a01b03841660048201526024016129ae565b61392981614047565b60a2546040805183815260208101929092527f5bafec153d96f8ef37761b64348732b41a6b477401d244a5070f9f82d689adce910160405180910390a160a255565b606c54600160a01b900460ff1661306557604051630afe354360e11b815260040160405180910390fd5b5f806139a18484612a95565b5f805f9054906101000a90046001600160a01b03166001600160a01b03166304baed9e6040518163ffffffff1660e01b8152600401602060405180830381865afa1580156139f1573d5f803e3d5ffd5b505050506040513d601f19601f82011682018060405250810190613a159190615064565b6001600160a01b031663fc0c546a6040518163ffffffff1660e01b8152600401602060405180830381865afa158015613a50573d5f803e3d5ffd5b505050506040513d601f19601f82011682018060405250810190613a749190615064565b60408051808201909152601c81527f5f6275794f7264657228616464726573732c75696e742c75696e74290000000060209091015290505f808080613ad87fdb2c93faffa8f98d8bcd55cf740e8ead65ac1699aaf6ee8a00820485fc802af6612ad5565b93509350935093505f805f613af08c86606d54612afc565b91945092509050613b0181836152ae565b98505f613b0d84612bc8565b9050809a505f613b1e82875f612afc565b5090925090508c821015613b4557604051637ac6ada560e01b815260040160405180910390fd5b613b56613b50612850565b8f614077565b613b61898b866140a2565b8215613b7057613b7083614117565b613b7a8882614147565b613b848f836141a9565b8e6001600160a01b03167fd150a324c4fc8346977d1499aa36cac8c85e6af24bf1486022fad77d05f8b19f8f84613bb9612850565b6040805193845260208401929092526001600160a01b03169082015260600160405180910390a250505050505050505050935093915050565b7ff0c57e16840df040f15088dc2f81fe391c3923bec73e23a9662efc9c229c6a005468010000000000000000900460ff1661306557604051631afcd79f60e31b815260040160405180910390fd5b5f8160600151515f03613c5457505f919050565b8160800151515f03613c6757505f919050565b8151158015613c7857506020820151155b8015613c8657506040820151155b15613c9257505f919050565b506001919050565b5f805b60ff8111613cd0576001811b831615613cbe5781613cba816155a8565b9250505b80613cc88161523a565b915050613c9d565b50603b829055603a805460ff191660ff831690811790915560408051918252602082018490527f7b463eebcf86a9ecb1c64d88acc3609fe74aaccb569d01b4bb01875b737eda18910160405180910390a15050565b604080516001600160a01b038416602482015260448082018490528251808303909101815260649091019091526020810180516001600160e01b031663095ea7b360e01b179052613d768482614207565b611a23576040516001600160a01b0384811660248301525f6044830152613daa91869182169063095ea7b390606401612dd2565b611a2384826138bf565b60a15460ff16613065576040516374d0357560e11b815260040160405180910390fd5b5f80613de38484612a95565b60408051808201909152601d81527f5f73656c6c4f7264657228616464726573732c75696e742c75696e74290000006020909101525f808080613e457f3299ac1e4997da1dd638584692e27ee6e952ca63f8284764a73c592284e1d9e8612ad5565b93509350935093505f805f613e5b8b855f612afc565b5093509050613e6981612e04565b9850613e7c613e76612850565b8c6142a8565b613e868684614147565b5f805f9054906101000a90046001600160a01b03166001600160a01b03166304baed9e6040518163ffffffff1660e01b8152600401602060405180830381865afa158015613ed6573d5f803e3d5ffd5b505050506040513d601f19601f82011682018060405250810190613efa9190615064565b6001600160a01b031663fc0c546a6040518163ffffffff1660e01b8152600401602060405180830381865afa158015613f35573d5f803e3d5ffd5b505050506040513d601f19601f82011682018060405250810190613f599190615064565b90505f613f698b8860a254612afc565b9b5094509050613f7a8983866140a2565b8915613f8957613f898a614117565b8b811015613faa57604051637ac6ada560e01b815260040160405180910390fd5b613fb68e8e838d6142e1565b8d6001600160a01b03167f7debc712939ce2028bbca7ca90cc85e8fb59a7772e041423d3ec1588af4730ed8e83613feb612850565b6040805193845260208401929092526001600160a01b03169082015260600160405180910390a2505050505050505050935093915050565b5f6001600160e01b031982166346fe193d60e11b148061080057506108008261456d565b6127108111156108e757604051633ef38b5b60e11b815260040160405180910390fd5b6060612ec383835f6145a1565b60db546113259083906001600160a01b03610100909104168361278760d6546001600160a01b031690565b801561264f576140b183612d69565b6140c56001600160a01b0383168483612da5565b826001600160a01b0316826001600160a01b03167f81535d361819544361f80ddbe5071aef378a8ecba1c52f2c45fe3335234c43318360405161410a91815260200190565b60405180910390a3505050565b6040518181527fe80fee25b848daa361e28d2bb55a5631cb9e084202ab3d22e444ceac1c8b320a90602001613191565b80156113255761415682612d69565b61416082826141a9565b606c546040518281526001600160a01b038481169216907f11a26a26a718a46d85815d79165470744429ab0f3093113929c59c097bbebb9a906020015b60405180910390a35050565b606c546040516340c10f1960e01b81526001600160a01b03848116600483015260248201849052909116906340c10f19906044015b5f604051808303815f87803b1580156141f5575f80fd5b505af1158015613144573d5f803e3d5ffd5b5f805f846001600160a01b0316846040516142229190615167565b5f604051808303815f865af19150503d805f811461425b576040519150601f19603f3d011682016040523d82523d5f602084013e614260565b606091505b509150915081801561428a57508051158061428a57508080602001905181019061428a919061514c565b801561429f57505f856001600160a01b03163b115b95945050505050565b606c54604051632770a7eb60e21b81526001600160a01b0384811660048301526024820184905290911690639dc29fac906044016141de565b60d95f81546142ef9061523a565b918290555060d9556143008261463a565b6040805160018082528183019092525f9160609183916020808301908036833701905050905060d9545f1b815f8151811061433d5761433d615226565b6020026020010181815250506143528161464b565b8093508194505050505f6040518060e00160405280886001600160a01b0316815260200161438860d6546001600160a01b031690565b6001600160a01b031681526020018681526020014681526020014681526020018481526020018381525090506143bd8161468e565b5f8054906101000a90046001600160a01b03166001600160a01b031663f1c6bdf86040518163ffffffff1660e01b8152600401602060405180830381865afa15801561440b573d5f803e3d5ffd5b505050506040513d601f19601f8201168201806040525081019061442f9190615064565b60405163e151fc6160e01b81523060048201526001600160a01b03919091169063e151fc61906024015f604051808303815f87803b15801561446f575f80fd5b505af1158015614481573d5f803e3d5ffd5b50505050866001600160a01b031660d954306001600160a01b03167f7c362cfa30757c373749942e54334c60f074f97d6f1bf572f25a4e306536282a6144c5612850565b60d55460408051624c7ad160e51b815290518d926001600160a01b03169163098f5a209160048083019260209291908290030181865afa15801561450b573d5f803e3d5ffd5b505050506040513d601f19601f8201168201806040525081019061452f919061507f565b60a2548b8d61454660d6546001600160a01b031690565b600260405161455c9897969594939291906155c6565b60405180910390a450505050505050565b5f6001600160e01b0319821663e328951160e01b148061080057506301ffc9a760e01b6001600160e01b0319831614610800565b6060814710156145c65760405163cd78605960e01b81523060048201526024016129ae565b5f80856001600160a01b031684866040516145e19190615167565b5f6040518083038185875af1925050503d805f811461461b576040519150601f19603f3d011682016040523d82523d5f602084013e614620565b606091505b50915091506146308683836148a9565b9695505050505050565b8060da5f82825461315d91906152ae565b8051603a545f9160609160ff161461468657603a548351604051630bf3089f60e11b815260ff909216600483015260248201526044016129ae565b5050603b5491565b8061469881614905565b816040015160395f84602001516001600160a01b03166001600160a01b031681526020019081526020015f205f8282546146d291906152ae565b9091555050603880546001810182555f9190915282517f38395c5dceade9603479b177b68959049485df8aa97b39f3533039af5f456199600790920291820180546001600160a01b03199081166001600160a01b039384161782556020808701517f38395c5dceade9603479b177b68959049485df8aa97b39f3533039af5f45619a86018054909316941693909317905560408501517f38395c5dceade9603479b177b68959049485df8aa97b39f3533039af5f45619b84015560608501517f38395c5dceade9603479b177b68959049485df8aa97b39f3533039af5f45619c84015560808501517f38395c5dceade9603479b177b68959049485df8aa97b39f3533039af5f45619d84015560a08501517f38395c5dceade9603479b177b68959049485df8aa97b39f3533039af5f45619e84015560c0850151805186949293614840937f38395c5dceade9603479b177b68959049485df8aa97b39f3533039af5f45619f01920190614a3e565b50505081602001516001600160a01b0316825f01516001600160a01b03167ff7c0c50e520bf64576a9482cc54780006390b90cee6a1c0bde1adaeb9c0f02f68460400151856060015186608001518760a001518860c0015160405161419d959493929190615631565b6060826148be576148b9826149f7565b612ec3565b81511580156148d557506001600160a01b0384163b155b156148fe57604051639996b31560e01b81526001600160a01b03851660048201526024016129ae565b5080612ec3565b5f546001600160a01b03166001600160a01b031663f1c6bdf86040518163ffffffff1660e01b8152600401602060405180830381865afa15801561494b573d5f803e3d5ffd5b505050506040513d601f19601f8201168201806040525081019061496f9190615064565b6001600160a01b031663f7698285826040518263ffffffff1660e01b815260040161499a9190615666565b6020604051808303815f875af11580156149b6573d5f803e3d5ffd5b505050506040513d601f19601f820116820180604052508101906149da919061514c565b6108e75760405163349a262760e01b815260040160405180910390fd5b805115614a075780518082602001fd5b604051630a12f52160e11b815260040160405180910390fd5b5080545f8255600702905f5260205f20908101906108e79190614a87565b828054828255905f5260205f20908101928215614a77579160200282015b82811115614a77578251825591602001919060010190614a5c565b50614a83929150614add565b5090565b80821115614a835780546001600160a01b0319908116825560018201805490911690555f60028201819055600382018190556004820181905560058201819055614ad46006830182614af1565b50600701614a87565b5b80821115614a83575f8155600101614ade565b5080545f8255905f5260205f20908101906108e79190614add565b5f60208284031215614b1c575f80fd5b81356001600160e01b031981168114612ec3575f80fd5b5f60208284031215614b43575f80fd5b5035919050565b6001600160a01b03811681146108e7575f80fd5b5f60208284031215614b6e575f80fd5b8135612ec381614b4a565b5f805f60408486031215614b8b575f80fd5b83359250602084013567ffffffffffffffff80821115614ba9575f80fd5b818601915086601f830112614bbc575f80fd5b813581811115614bca575f80fd5b8760208260051b8501011115614bde575f80fd5b6020830194508093505050509250925092565b5f5b83811015614c0b578181015183820152602001614bf3565b50505f910152565b5f8151808452614c2a816020860160208601614bf1565b601f01601f19169290920160200192915050565b602081525f612ec36020830184614c13565b5f8060408385031215614c61575f80fd5b8235614c6c81614b4a565b946020939093013593505050565b5f8060408385031215614c8b575f80fd5b823591506020830135614c9d81614b4a565b809150509250929050565b5f815180845260208085019450602084015f5b83811015614cd757815187529582019590820190600101614cbb565b509495945050505050565b5f6001600160a01b038083511684528060208401511660208501525060408201516040840152606082015160608401526080820151608084015260a082015160a084015260c082015160e060c0850152614d3f60e0850182614ca8565b949350505050565b5f8282518085526020808601955060208260051b840101602086015f5b84811015614d9257601f19868403018952614d80838351614ce2565b98840198925090830190600101614d64565b5090979650505050505050565b602081525f612ec36020830184614d47565b80151581146108e7575f80fd5b5f60208284031215614dce575f80fd5b8135612ec381614db1565b5f805f60608486031215614deb575f80fd5b8335614df681614b4a565b95602085013595506040909401359392505050565b634e487b7160e01b5f52604160045260245ffd5b60405160a0810167ffffffffffffffff81118282101715614e4257614e42614e0b565b60405290565b5f82601f830112614e57575f80fd5b813567ffffffffffffffff80821115614e7257614e72614e0b565b604051601f8301601f19908116603f01168101908282118183101715614e9a57614e9a614e0b565b81604052838152866020858801011115614eb2575f80fd5b836020870160208301375f602085830101528094505050505092915050565b5f805f60608486031215614ee3575f80fd5b8335614eee81614b4a565b9250602084013567ffffffffffffffff80821115614f0a575f80fd5b9085019060a08288031215614f1d575f80fd5b614f25614e1f565b823581526020830135602082015260408301356040820152606083013582811115614f4e575f80fd5b614f5a89828601614e48565b606083015250608083013582811115614f71575f80fd5b614f7d89828601614e48565b60808301525093506040860135915080821115614f98575f80fd5b50614fa586828701614e48565b9150509250925092565b606081525f614fc16060830186614d47565b8281036020848101919091528551808352868201928201905f5b818110156150005784516001600160a01b031683529383019391830191600101614fdb565b5050848103604086015285518082529082019250818601905f5b818110156150365782518552938301939183019160010161501a565b509298975050505050505050565b5f8060408385031215615055575f80fd5b50508035926020909101359150565b5f60208284031215615074575f80fd5b8151612ec381614b4a565b5f6020828403121561508f575f80fd5b5051919050565b838152604060208083018290529082018390525f90849060608401835b868110156150e15783356150c681614b4a565b6001600160a01b0316825292820192908201906001016150b3565b50979650505050505050565b600181811c9082168061510157607f821691505b60208210810361511f57634e487b7160e01b5f52602260045260245ffd5b50919050565b634e487b7160e01b5f52601160045260245ffd5b8181038181111561080057610800615125565b5f6020828403121561515c575f80fd5b8151612ec381614db1565b5f8251615178818460208701614bf1565b9190910192915050565b5f805f805f805f80610100898b03121561519a575f80fd5b88516151a581614b4a565b60208a01519098506151b681614b4a565b60408a01519097506151c781614b4a565b80965050606089015194506080890151935060a0890151925060c0890151915060e08901516151f581614db1565b809150509295985092959890939650565b5f60208284031215615216575f80fd5b815160ff81168114612ec3575f80fd5b634e487b7160e01b5f52603260045260245ffd5b5f6001820161524b5761524b615125565b5060010190565b5f8085851115615260575f80fd5b8386111561526c575f80fd5b5050820193919092039150565b6bffffffffffffffffffffffff1981358181169160148510156152a65780818660140360031b1b83161692505b505092915050565b8082018082111561080057610800615125565b808202811582820484141761080057610800615125565b5f826152f257634e487b7160e01b5f52601260045260245ffd5b500490565b600181815b8085111561533157815f190482111561531757615317615125565b8085161561532457918102915b93841c93908002906152fc565b509250929050565b5f8261534757506001610800565b8161535357505f610800565b816001811461536957600281146153735761538f565b6001915050610800565b60ff84111561538457615384615125565b50506001821b610800565b5060208310610133831016604e8410600b84101617156153b2575081810a610800565b6153bc83836152f7565b805f19048211156153cf576153cf615125565b029392505050565b5f612ec360ff841683615339565b838152606060208201525f6153fd6060830185614c13565b82810360408401526146308185614c13565b601f82111561264f57805f5260205f20601f840160051c810160208510156154345750805b601f840160051c820191505b81811015615453575f8155600101615440565b5050505050565b815167ffffffffffffffff81111561547457615474614e0b565b6154888161548284546150ed565b8461540f565b602080601f8311600181146154bb575f84156154a45750858301515b5f19600386901b1c1916600185901b178555613144565b5f85815260208120601f198616915b828110156154e9578886015182559484019460019091019084016154ca565b508582101561550657878501515f19600388901b60f8161c191681555b5050505050600190811b01905550565b602081528151602082015260208201516040820152604082015160608201525f606083015160a0608084015261554f60c0840182614c13565b90506080840151601f198483030160a085015261429f8282614c13565b5f806040838503121561557d575f80fd5b825191506020830151614c9d81614b4a565b60ff828116828216039081111561080057610800615125565b5f60ff821660ff81036155bd576155bd615125565b60010192915050565b5f610100820190506001600160a01b03808b1683528960208401528860408401528760608401528660808401528560a084015280851660c0840152506004831061561e57634e487b7160e01b5f52602160045260245ffd5b8260e08301529998505050505050505050565b85815284602082015283604082015282606082015260a060808201525f61565b60a0830184614ca8565b979650505050505050565b602081525f612ec36020830184614ce256fea264697066735822122020fa0fd9141566b2ea517ba267a2a6291908c8569e642ba0987ee50aed353f4f64736f6c63430008170033",
    "linkReferences": {}
  },
  "methodIdentifiers": {
    "amountPaid(address,uint256)": "b33ec618",
    "buy(uint256,uint256)": "d6febde8",
    "buyFee()": "47062402",
    "buyFor(address,uint256,uint256)": "935b7dbd",
    "buyIsOpen()": "c6829ba2",
    "calculatePurchaseReturn(uint256)": "322d2100",
    "calculateSaleReturn(uint256)": "69fcd4ac",
    "closeBuy()": "c6ab5cdc",
    "closeSell()": "ba83c970",
    "collectPaymentOrders()": "c0231ff6",
    "depositReserve(uint256)": "f42d48a1",
    "executeRedemptionQueue()": "683c9dad",
    "getBuyFee()": "8f818b90",
    "getFlagCount()": "c9582f20",
    "getFlags()": "6cc7149d",
    "getIsDirectOperationsOnly()": "c35067ed",
    "getIssuanceToken()": "1ca3bc4f",
    "getMaxProjectBuyFee()": "e91b433d",
    "getMaxProjectSellFee()": "519cdc6f",
    "getOpenRedemptionAmount()": "1835f541",
    "getOracle()": "833b1fce",
    "getOrderId()": "a8496426",
    "getProjectTreasury()": "2c2ee2b5",
    "getQueueExecutorRole()": "52192af6",
    "getQueueExecutorRoleAdmin()": "bf58015c",
    "getSellFee()": "289af0d8",
    "getStaticPriceForBuying()": "fa03330c",
    "getStaticPriceForSelling()": "bd098404",
    "getWhitelistRole()": "4f55f014",
    "getWhitelistRoleAdmin()": "fc9d2c9d",
    "grantModuleRole(bytes32,address)": "6c67e807",
    "grantModuleRoleBatched(bytes32,address[])": "272bbd44",
    "identifier()": "7998a1c4",
    "init(address,(uint256,uint256,uint256,string,string),bytes)": "b66a870c",
    "isTrustedForwarder(address)": "572b6c05",
    "openBuy()": "d4a67930",
    "openSell()": "f1eae64a",
    "orchestrator()": "b74795d9",
    "outstandingTokenAmount(address)": "2e84db5f",
    "paymentOrders()": "75fa0b76",
    "projectCollateralFeeCollected()": "cbda8f82",
    "revokeModuleRole(bytes32,address)": "bcb61920",
    "revokeModuleRoleBatched(bytes32,address[])": "24e30270",
    "sell(uint256,uint256)": "d79875eb",
    "sellFee()": "2b14ca56",
    "sellIsOpen()": "9093b01f",
    "sellTo(address,uint256,uint256)": "c5b27dde",
    "setBuyFee(uint256)": "0cc835a3",
    "setIsDirectOperationsOnly(bool)": "844b2d43",
    "setOracleAddress(address)": "4c69c00f",
    "setProjectTreasury(address)": "1e96bb9e",
    "setSellFee(uint256)": "8b4cee08",
    "supportsInterface(bytes4)": "01ffc9a7",
    "title()": "4a79d50c",
    "token()": "fc0c546a",
    "transferOrchestratorToken(address,uint256)": "759cc4b5",
    "trustedForwarder()": "7da0a877",
    "url()": "5600f04f",
    "version()": "54fd4d50",
    "withdrawProjectCollateralFee(address,uint256)": "4f893bba"
  },
  "id": 137
}