{
  "abi": [
    {
      "type": "function",
      "name": "DOMAIN_SEPARATOR",
      "inputs": [],
      "outputs": [
        {
          "name": "",
          "type": "bytes32",
          "internalType": "bytes32"
        }
      ],
      "stateMutability": "view"
    },
    {
      "type": "function",
      "name": "EIP712_DOMAIN",
      "inputs": [],
      "outputs": [
        {
          "name": "",
          "type": "bytes32",
          "internalType": "bytes32"
        }
      ],
      "stateMutability": "view"
    },
    {
      "type": "function",
      "name": "EIP712_REVISION",
      "inputs": [],
      "outputs": [
        {
          "name": "",
          "type": "string",
          "internalType": "string"
        }
      ],
      "stateMutability": "view"
    },
    {
      "type": "function",
      "name": "PERMIT_TYPEHASH",
      "inputs": [],
      "outputs": [
        {
          "name": "",
          "type": "bytes32",
          "internalType": "bytes32"
        }
      ],
      "stateMutability": "view"
    },
    {
      "type": "function",
      "name": "allowance",
      "inputs": [
        {
          "name": "owner_",
          "type": "address",
          "internalType": "address"
        },
        {
          "name": "spender",
          "type": "address",
          "internalType": "address"
        }
      ],
      "outputs": [
        {
          "name": "",
          "type": "uint256",
          "internalType": "uint256"
        }
      ],
      "stateMutability": "view"
    },
    {
      "type": "function",
      "name": "approve",
      "inputs": [
        {
          "name": "spender",
          "type": "address",
          "internalType": "address"
        },
        {
          "name": "tokens",
          "type": "uint256",
          "internalType": "uint256"
        }
      ],
      "outputs": [
        {
          "name": "",
          "type": "bool",
          "internalType": "bool"
        }
      ],
      "stateMutability": "nonpayable"
    },
    {
      "type": "function",
      "name": "balanceOf",
      "inputs": [
        {
          "name": "who",
          "type": "address",
          "internalType": "address"
        }
      ],
      "outputs": [
        {
          "name": "",
          "type": "uint256",
          "internalType": "uint256"
        }
      ],
      "stateMutability": "view"
    },
    {
      "type": "function",
      "name": "decimals",
      "inputs": [],
      "outputs": [
        {
          "name": "",
          "type": "uint8",
          "internalType": "uint8"
        }
      ],
      "stateMutability": "view"
    },
    {
      "type": "function",
      "name": "decreaseAllowance",
      "inputs": [
        {
          "name": "spender",
          "type": "address",
          "internalType": "address"
        },
        {
          "name": "tokens",
          "type": "uint256",
          "internalType": "uint256"
        }
      ],
      "outputs": [
        {
          "name": "",
          "type": "bool",
          "internalType": "bool"
        }
      ],
      "stateMutability": "nonpayable"
    },
    {
      "type": "function",
      "name": "deposit",
      "inputs": [
        {
          "name": "amount",
          "type": "uint256",
          "internalType": "uint256"
        }
      ],
      "outputs": [],
      "stateMutability": "nonpayable"
    },
    {
      "type": "function",
      "name": "depositFor",
      "inputs": [
        {
          "name": "to",
          "type": "address",
          "internalType": "address"
        },
        {
          "name": "amount",
          "type": "uint256",
          "internalType": "uint256"
        }
      ],
      "outputs": [],
      "stateMutability": "nonpayable"
    },
    {
      "type": "function",
      "name": "grantModuleRole",
      "inputs": [
        {
          "name": "role",
          "type": "bytes32",
          "internalType": "bytes32"
        },
        {
          "name": "target",
          "type": "address",
          "internalType": "address"
        }
      ],
      "outputs": [],
      "stateMutability": "nonpayable"
    },
    {
      "type": "function",
      "name": "grantModuleRoleBatched",
      "inputs": [
        {
          "name": "role",
          "type": "bytes32",
          "internalType": "bytes32"
        },
        {
          "name": "targets",
          "type": "address[]",
          "internalType": "address[]"
        }
      ],
      "outputs": [],
      "stateMutability": "nonpayable"
    },
    {
      "type": "function",
      "name": "identifier",
      "inputs": [],
      "outputs": [
        {
          "name": "",
          "type": "bytes32",
          "internalType": "bytes32"
        }
      ],
      "stateMutability": "view"
    },
    {
      "type": "function",
      "name": "increaseAllowance",
      "inputs": [
        {
          "name": "spender",
          "type": "address",
          "internalType": "address"
        },
        {
          "name": "tokens",
          "type": "uint256",
          "internalType": "uint256"
        }
      ],
      "outputs": [
        {
          "name": "",
          "type": "bool",
          "internalType": "bool"
        }
      ],
      "stateMutability": "nonpayable"
    },
    {
      "type": "function",
      "name": "init",
      "inputs": [
        {
          "name": "orchestrator_",
          "type": "address",
          "internalType": "contract IOrchestrator_v1"
        },
        {
          "name": "metadata",
          "type": "tuple",
          "internalType": "struct IModule_v1.Metadata",
          "components": [
            {
              "name": "majorVersion",
              "type": "uint256",
              "internalType": "uint256"
            },
            {
              "name": "minorVersion",
              "type": "uint256",
              "internalType": "uint256"
            },
            {
              "name": "url",
              "type": "string",
              "internalType": "string"
            },
            {
              "name": "title",
              "type": "string",
              "internalType": "string"
            }
          ]
        },
        {
          "name": "configData",
          "type": "bytes",
          "internalType": "bytes"
        }
      ],
      "outputs": [],
      "stateMutability": "nonpayable"
    },
    {
      "type": "function",
      "name": "isTrustedForwarder",
      "inputs": [
        {
          "name": "forwarder",
          "type": "address",
          "internalType": "address"
        }
      ],
      "outputs": [
        {
          "name": "",
          "type": "bool",
          "internalType": "bool"
        }
      ],
      "stateMutability": "view"
    },
    {
      "type": "function",
      "name": "name",
      "inputs": [],
      "outputs": [
        {
          "name": "",
          "type": "string",
          "internalType": "string"
        }
      ],
      "stateMutability": "view"
    },
    {
      "type": "function",
      "name": "nonces",
      "inputs": [
        {
          "name": "who",
          "type": "address",
          "internalType": "address"
        }
      ],
      "outputs": [
        {
          "name": "",
          "type": "uint256",
          "internalType": "uint256"
        }
      ],
      "stateMutability": "view"
    },
    {
      "type": "function",
      "name": "orchestrator",
      "inputs": [],
      "outputs": [
        {
          "name": "",
          "type": "address",
          "internalType": "contract IOrchestrator_v1"
        }
      ],
      "stateMutability": "view"
    },
    {
      "type": "function",
      "name": "permit",
      "inputs": [
        {
          "name": "owner",
          "type": "address",
          "internalType": "address"
        },
        {
          "name": "spender",
          "type": "address",
          "internalType": "address"
        },
        {
          "name": "value",
          "type": "uint256",
          "internalType": "uint256"
        },
        {
          "name": "deadline",
          "type": "uint256",
          "internalType": "uint256"
        },
        {
          "name": "v",
          "type": "uint8",
          "internalType": "uint8"
        },
        {
          "name": "r",
          "type": "bytes32",
          "internalType": "bytes32"
        },
        {
          "name": "s",
          "type": "bytes32",
          "internalType": "bytes32"
        }
      ],
      "outputs": [],
      "stateMutability": "nonpayable"
    },
    {
      "type": "function",
      "name": "rebase",
      "inputs": [],
      "outputs": [],
      "stateMutability": "nonpayable"
    },
    {
      "type": "function",
      "name": "revokeModuleRole",
      "inputs": [
        {
          "name": "role",
          "type": "bytes32",
          "internalType": "bytes32"
        },
        {
          "name": "target",
          "type": "address",
          "internalType": "address"
        }
      ],
      "outputs": [],
      "stateMutability": "nonpayable"
    },
    {
      "type": "function",
      "name": "revokeModuleRoleBatched",
      "inputs": [
        {
          "name": "role",
          "type": "bytes32",
          "internalType": "bytes32"
        },
        {
          "name": "targets",
          "type": "address[]",
          "internalType": "address[]"
        }
      ],
      "outputs": [],
      "stateMutability": "nonpayable"
    },
    {
      "type": "function",
      "name": "scaledBalanceOf",
      "inputs": [
        {
          "name": "who",
          "type": "address",
          "internalType": "address"
        }
      ],
      "outputs": [
        {
          "name": "",
          "type": "uint256",
          "internalType": "uint256"
        }
      ],
      "stateMutability": "view"
    },
    {
      "type": "function",
      "name": "scaledTotalSupply",
      "inputs": [],
      "outputs": [
        {
          "name": "",
          "type": "uint256",
          "internalType": "uint256"
        }
      ],
      "stateMutability": "view"
    },
    {
      "type": "function",
      "name": "supportsInterface",
      "inputs": [
        {
          "name": "interfaceId",
          "type": "bytes4",
          "internalType": "bytes4"
        }
      ],
      "outputs": [
        {
          "name": "",
          "type": "bool",
          "internalType": "bool"
        }
      ],
      "stateMutability": "view"
    },
    {
      "type": "function",
      "name": "symbol",
      "inputs": [],
      "outputs": [
        {
          "name": "",
          "type": "string",
          "internalType": "string"
        }
      ],
      "stateMutability": "view"
    },
    {
      "type": "function",
      "name": "title",
      "inputs": [],
      "outputs": [
        {
          "name": "",
          "type": "string",
          "internalType": "string"
        }
      ],
      "stateMutability": "view"
    },
    {
      "type": "function",
      "name": "token",
      "inputs": [],
      "outputs": [
        {
          "name": "",
          "type": "address",
          "internalType": "contract IERC20"
        }
      ],
      "stateMutability": "view"
    },
    {
      "type": "function",
      "name": "totalSupply",
      "inputs": [],
      "outputs": [
        {
          "name": "",
          "type": "uint256",
          "internalType": "uint256"
        }
      ],
      "stateMutability": "view"
    },
    {
      "type": "function",
      "name": "transfer",
      "inputs": [
        {
          "name": "to",
          "type": "address",
          "internalType": "address"
        },
        {
          "name": "tokens",
          "type": "uint256",
          "internalType": "uint256"
        }
      ],
      "outputs": [
        {
          "name": "",
          "type": "bool",
          "internalType": "bool"
        }
      ],
      "stateMutability": "nonpayable"
    },
    {
      "type": "function",
      "name": "transferAll",
      "inputs": [
        {
          "name": "to",
          "type": "address",
          "internalType": "address"
        }
      ],
      "outputs": [
        {
          "name": "",
          "type": "bool",
          "internalType": "bool"
        }
      ],
      "stateMutability": "nonpayable"
    },
    {
      "type": "function",
      "name": "transferAllFrom",
      "inputs": [
        {
          "name": "from",
          "type": "address",
          "internalType": "address"
        },
        {
          "name": "to",
          "type": "address",
          "internalType": "address"
        }
      ],
      "outputs": [
        {
          "name": "",
          "type": "bool",
          "internalType": "bool"
        }
      ],
      "stateMutability": "nonpayable"
    },
    {
      "type": "function",
      "name": "transferFrom",
      "inputs": [
        {
          "name": "from",
          "type": "address",
          "internalType": "address"
        },
        {
          "name": "to",
          "type": "address",
          "internalType": "address"
        },
        {
          "name": "tokens",
          "type": "uint256",
          "internalType": "uint256"
        }
      ],
      "outputs": [
        {
          "name": "",
          "type": "bool",
          "internalType": "bool"
        }
      ],
      "stateMutability": "nonpayable"
    },
    {
      "type": "function",
      "name": "transferOrchestratorToken",
      "inputs": [
        {
          "name": "to",
          "type": "address",
          "internalType": "address"
        },
        {
          "name": "amount",
          "type": "uint256",
          "internalType": "uint256"
        }
      ],
      "outputs": [],
      "stateMutability": "nonpayable"
    },
    {
      "type": "function",
      "name": "trustedForwarder",
      "inputs": [],
      "outputs": [
        {
          "name": "",
          "type": "address",
          "internalType": "address"
        }
      ],
      "stateMutability": "view"
    },
    {
      "type": "function",
      "name": "url",
      "inputs": [],
      "outputs": [
        {
          "name": "",
          "type": "string",
          "internalType": "string"
        }
      ],
      "stateMutability": "view"
    },
    {
      "type": "function",
      "name": "version",
      "inputs": [],
      "outputs": [
        {
          "name": "",
          "type": "uint256",
          "internalType": "uint256"
        },
        {
          "name": "",
          "type": "uint256",
          "internalType": "uint256"
        }
      ],
      "stateMutability": "view"
    },
    {
      "type": "function",
      "name": "withdraw",
      "inputs": [
        {
          "name": "amount",
          "type": "uint256",
          "internalType": "uint256"
        }
      ],
      "outputs": [],
      "stateMutability": "nonpayable"
    },
    {
      "type": "function",
      "name": "withdrawTo",
      "inputs": [
        {
          "name": "to",
          "type": "address",
          "internalType": "address"
        },
        {
          "name": "amount",
          "type": "uint256",
          "internalType": "uint256"
        }
      ],
      "outputs": [],
      "stateMutability": "nonpayable"
    },
    {
      "type": "event",
      "name": "Approval",
      "inputs": [
        {
          "name": "owner",
          "type": "address",
          "indexed": true,
          "internalType": "address"
        },
        {
          "name": "spender",
          "type": "address",
          "indexed": true,
          "internalType": "address"
        },
        {
          "name": "value",
          "type": "uint256",
          "indexed": false,
          "internalType": "uint256"
        }
      ],
      "anonymous": false
    },
    {
      "type": "event",
      "name": "Deposit",
      "inputs": [
        {
          "name": "_from",
          "type": "address",
          "indexed": true,
          "internalType": "address"
        },
        {
          "name": "_for",
          "type": "address",
          "indexed": true,
          "internalType": "address"
        },
        {
          "name": "_amount",
          "type": "uint256",
          "indexed": false,
          "internalType": "uint256"
        }
      ],
      "anonymous": false
    },
    {
      "type": "event",
      "name": "Initialized",
      "inputs": [
        {
          "name": "version",
          "type": "uint64",
          "indexed": false,
          "internalType": "uint64"
        }
      ],
      "anonymous": false
    },
    {
      "type": "event",
      "name": "ModuleInitialized",
      "inputs": [
        {
          "name": "parentOrchestrator",
          "type": "address",
          "indexed": true,
          "internalType": "address"
        },
        {
          "name": "moduleTitle",
          "type": "string",
          "indexed": true,
          "internalType": "string"
        },
        {
          "name": "majorVersion",
          "type": "uint256",
          "indexed": false,
          "internalType": "uint256"
        },
        {
          "name": "minorVersion",
          "type": "uint256",
          "indexed": false,
          "internalType": "uint256"
        }
      ],
      "anonymous": false
    },
    {
      "type": "event",
      "name": "Rebase",
      "inputs": [
        {
          "name": "epoch",
          "type": "uint256",
          "indexed": true,
          "internalType": "uint256"
        },
        {
          "name": "newScalar",
          "type": "uint256",
          "indexed": false,
          "internalType": "uint256"
        }
      ],
      "anonymous": false
    },
    {
      "type": "event",
      "name": "Transfer",
      "inputs": [
        {
          "name": "from",
          "type": "address",
          "indexed": true,
          "internalType": "address"
        },
        {
          "name": "to",
          "type": "address",
          "indexed": true,
          "internalType": "address"
        },
        {
          "name": "value",
          "type": "uint256",
          "indexed": false,
          "internalType": "uint256"
        }
      ],
      "anonymous": false
    },
    {
      "type": "event",
      "name": "TransferOrchestratorToken",
      "inputs": [
        {
          "name": "_to",
          "type": "address",
          "indexed": true,
          "internalType": "address"
        },
        {
          "name": "_amount",
          "type": "uint256",
          "indexed": false,
          "internalType": "uint256"
        }
      ],
      "anonymous": false
    },
    {
      "type": "event",
      "name": "Withdrawal",
      "inputs": [
        {
          "name": "_from",
          "type": "address",
          "indexed": true,
          "internalType": "address"
        },
        {
          "name": "_for",
          "type": "address",
          "indexed": true,
          "internalType": "address"
        },
        {
          "name": "_amount",
          "type": "uint256",
          "indexed": false,
          "internalType": "uint256"
        }
      ],
      "anonymous": false
    },
    {
      "type": "error",
      "name": "AddressEmptyCode",
      "inputs": [
        {
          "name": "target",
          "type": "address",
          "internalType": "address"
        }
      ]
    },
    {
      "type": "error",
      "name": "AddressInsufficientBalance",
      "inputs": [
        {
          "name": "account",
          "type": "address",
          "internalType": "address"
        }
      ]
    },
    {
      "type": "error",
      "name": "FailedInnerCall",
      "inputs": []
    },
    {
      "type": "error",
      "name": "InvalidAmount",
      "inputs": []
    },
    {
      "type": "error",
      "name": "InvalidInitialization",
      "inputs": []
    },
    {
      "type": "error",
      "name": "InvalidRecipient",
      "inputs": []
    },
    {
      "type": "error",
      "name": "MaxSupplyReached",
      "inputs": []
    },
    {
      "type": "error",
      "name": "Module_OrchestratorCallbackFailed",
      "inputs": [
        {
          "name": "funcSig",
          "type": "string",
          "internalType": "string"
        }
      ]
    },
    {
      "type": "error",
      "name": "Module__CallerNotAuthorized",
      "inputs": [
        {
          "name": "role",
          "type": "bytes32",
          "internalType": "bytes32"
        },
        {
          "name": "caller",
          "type": "address",
          "internalType": "address"
        }
      ]
    },
    {
      "type": "error",
      "name": "Module__FundingManager__CannotSelfDeposit",
      "inputs": []
    },
    {
      "type": "error",
      "name": "Module__FundingManager__DepositCapReached",
      "inputs": []
    },
    {
      "type": "error",
      "name": "Module__FundingManager__InvalidAddress",
      "inputs": []
    },
    {
      "type": "error",
      "name": "Module__InvalidMetadata",
      "inputs": []
    },
    {
      "type": "error",
      "name": "Module__InvalidOrchestratorAddress",
      "inputs": []
    },
    {
      "type": "error",
      "name": "Module__OnlyCallableByOrchestrator",
      "inputs": []
    },
    {
      "type": "error",
      "name": "NotInitializing",
      "inputs": []
    },
    {
      "type": "error",
      "name": "SafeERC20FailedOperation",
      "inputs": [
        {
          "name": "token",
          "type": "address",
          "internalType": "address"
        }
      ]
    }
  ],
  "bytecode": {
    "object": "0x60e06040527f8b73c3c69bb8fe3d512ecc4cf759cc79239f7b179b0ffacaa9a75d522b39400f60a0527f6e71edae12b1b97f4d1f60370fef10105fa2faae0126114a169c64845d6126c960c0523480156200005957600080fd5b506000608052620000696200006f565b62000123565b7ff0c57e16840df040f15088dc2f81fe391c3923bec73e23a9662efc9c229c6a00805468010000000000000000900460ff1615620000c05760405163f92ee8a960e01b815260040160405180910390fd5b80546001600160401b0390811614620001205780546001600160401b0319166001600160401b0390811782556040519081527fc7f505b2f371ae2175ee4913f4499e1f2633a7b5936321eed1cdaeb6115181d29060200160405180910390a15b50565b60805160a05160c0516136206200015e6000396000818161036c0152611b8d0152600081816105af0152610d0d0152600050506136206000f3fe608060405234801561001057600080fd5b50600436106102635760003560e01c80636c67e80711610156578063a457c2d7116100d3578063b74795d911610097578063dd62ed3e11610071578063dd62ed3e14610571578063e1b11da4146105aa578063fc0c546a146105d157600080fd5b8063b74795d91461053a578063bcb619201461054b578063d505accf1461055e57600080fd5b8063a457c2d7146104f1578063a9059cbb14610504578063af14052c14610517578063b1bf962d1461051f578063b6b55f251461052757600080fd5b80637da0a8771161011a5780637da0a8771461047a5780637ecebe001461049a57806384d4b410146104c357806395d89b41146104d6578063a3a7e7f3146104de57600080fd5b80636c67e8071461041957806370a082311461042c578063759cc4b51461043f57806378160376146104525780637998a1c41461047257600080fd5b80632f4f21e2116101e457806342dfe958116101a857806342dfe958146103c85780634a79d50c146103db57806354fd4d50146103e35780635600f04f146103fe578063572b6c051461040657600080fd5b80632f4f21e21461035457806330adf81f14610367578063313ce5671461038e5780633644e515146103ad57806339509351146103b557600080fd5b8063205c28781161022b578063205c2878146102f357806323b872dd1461030857806324e302701461031b578063272bbd441461032e5780632e1a7d4d1461034157600080fd5b806301ffc9a71461026857806306fdde0314610290578063095ea7b3146102a557806318160ddd146102b85780631da24f3e146102ca575b600080fd5b61027b610276366004612d4f565b6105e2565b60405190151581526020015b60405180910390f35b61029861060d565b6040516102879190612dc9565b61027b6102b3366004612df1565b61069b565b6002545b604051908152602001610287565b6102bc6102d8366004612e1d565b6001600160a01b031660009081526003602052604090205490565b610306610301366004612df1565b61073f565b005b61027b610316366004612e3a565b610755565b610306610329366004612e7b565b61082d565b61030661033c366004612e7b565b610af0565b61030661034f366004612efa565b610cdb565b610306610362366004612df1565b610cf7565b6102bc7f000000000000000000000000000000000000000000000000000000000000000081565b60075461039b9060ff1681565b60405160ff9091168152602001610287565b6102bc610d09565b61027b6103c3366004612df1565b610db8565b6103066103d6366004612fdf565b610e56565b6102986110e2565b603c54603d5460408051928352602083019190915201610287565b610298611177565b61027b610414366004612e1d565b611189565b6103066104273660046130bb565b6111f8565b6102bc61043a366004612e1d565b611415565b61030661044d366004612df1565b61143c565b610298604051806040016040528060018152602001603160f81b81525081565b6102bc611490565b6104826115e0565b6040516001600160a01b039091168152602001610287565b6102bc6104a8366004612e1d565b6001600160a01b031660009081526008602052604090205490565b61027b6104d13660046130eb565b61164e565b610298611736565b61027b6104ec366004612e1d565b611743565b61027b6104ff366004612df1565b6117bf565b61027b610512366004612df1565b61189c565b61030661192a565b6102bc611934565b610306610535366004612efa565b61193e565b603b546001600160a01b0316610482565b6103066105593660046130bb565b611957565b61030661056c366004613128565b611b4a565b6102bc61057f3660046130eb565b6001600160a01b03918216600090815260046020908152604080832093909416825291909152205490565b6102bc7f000000000000000000000000000000000000000000000000000000000000000081565b6072546001600160a01b0316610482565b60006001600160e01b0319821663899090df60e01b1480610607575061060782611d14565b92915050565b6005805461061a90613199565b80601f016020809104026020016040519081016040528092919081815260200182805461064690613199565b80156106935780601f1061066857610100808354040283529160200191610693565b820191906000526020600020905b81548152906001019060200180831161067657829003601f168201915b505050505081565b6000826001600160a01b03811615806106bc57506001600160a01b03811630145b156106da57604051634e46966960e11b815260040160405180910390fd5b3360008181526004602090815260408083206001600160a01b03891680855290835292819020879055518681529192917f8c5be1e5ebec7d5bd14f71427d1e84f3dd0314c0f7b2291e5b200ac8c7c3b925910160405180910390a35060019392505050565b61075161074a611d39565b8383611d8b565b5050565b6000836001600160a01b038116158061077657506001600160a01b03811630145b1561079457604051634e46966960e11b815260040160405180910390fd5b836001600160a01b03811615806107b357506001600160a01b03811630145b156107d157604051634e46966960e11b815260040160405180910390fd5b83806000036107f35760405163162908e360e11b815260040160405180910390fd5b6107fb611e10565b600061080686611ea4565b9050610813883388611efb565b61081f88888884611f6a565b506001979650505050505050565b826000603b60009054906101000a90046001600160a01b03166001600160a01b031663d09edf316040518163ffffffff1660e01b8152600401602060405180830381865afa158015610883573d6000803e3d6000fd5b505050506040513d601f19601f820116820180604052508101906108a791906131cd565b60405163fdd5205f60e01b8152306004820152602481018490526001600160a01b03919091169063fdd5205f906044016020604051808303816000875af11580156108f6573d6000803e3d6000fd5b505050506040513d601f19601f8201168201806040525081019061091a91906131ea565b9050610a11603b60009054906101000a90046001600160a01b03166001600160a01b031663d09edf316040518163ffffffff1660e01b8152600401602060405180830381865afa158015610972573d6000803e3d6000fd5b505050506040513d601f19601f8201168201806040525081019061099691906131cd565b6001600160a01b031663248a9ca3836040518263ffffffff1660e01b81526004016109c391815260200190565b602060405180830381865afa1580156109e0573d6000803e3d6000fd5b505050506040513d601f19601f82011682018060405250810190610a0491906131ea565b610a0c611d39565b612050565b603b60009054906101000a90046001600160a01b03166001600160a01b031663d09edf316040518163ffffffff1660e01b8152600401602060405180830381865afa158015610a64573d6000803e3d6000fd5b505050506040513d601f19601f82011682018060405250810190610a8891906131cd565b6001600160a01b0316637d540a648686866040518463ffffffff1660e01b8152600401610ab793929190613203565b600060405180830381600087803b158015610ad157600080fd5b505af1158015610ae5573d6000803e3d6000fd5b505050505050505050565b826000603b60009054906101000a90046001600160a01b03166001600160a01b031663d09edf316040518163ffffffff1660e01b8152600401602060405180830381865afa158015610b46573d6000803e3d6000fd5b505050506040513d601f19601f82011682018060405250810190610b6a91906131cd565b60405163fdd5205f60e01b8152306004820152602481018490526001600160a01b03919091169063fdd5205f906044016020604051808303816000875af1158015610bb9573d6000803e3d6000fd5b505050506040513d601f19601f82011682018060405250810190610bdd91906131ea565b9050610c35603b60009054906101000a90046001600160a01b03166001600160a01b031663d09edf316040518163ffffffff1660e01b8152600401602060405180830381865afa158015610972573d6000803e3d6000fd5b603b60009054906101000a90046001600160a01b03166001600160a01b031663d09edf316040518163ffffffff1660e01b8152600401602060405180830381865afa158015610c88573d6000803e3d6000fd5b505050506040513d601f19601f82011682018060405250810190610cac91906131cd565b6001600160a01b031663648154538686866040518463ffffffff1660e01b8152600401610ab793929190613203565b610cf4610ce6611d39565b610cee611d39565b83611d8b565b50565b610751610d02611d39565b838361216e565b60007f00000000000000000000000000000000000000000000000000000000000000006005604051610d3b919061325b565b60408051918290038220828201825260018352603160f81b6020938401528151928301939093528101919091527fc89efdaa54c0f20c7adf612882df0950f5a951637e0307cdcb4c672f298b8bc660608201524660808201523060a082015260c00160405160208183030381529060405280519060200120905090565b3360009081526004602090815260408083206001600160a01b0386168452909152812080548391908390610ded9084906132e7565b90915550503360008181526004602090815260408083206001600160a01b038816808552908352928190205490519081529192917f8c5be1e5ebec7d5bd14f71427d1e84f3dd0314c0f7b2291e5b200ac8c7c3b92591015b60405180910390a350600192915050565b7ff0c57e16840df040f15088dc2f81fe391c3923bec73e23a9662efc9c229c6a00805468010000000000000000810460ff16159067ffffffffffffffff16600081158015610ea15750825b905060008267ffffffffffffffff166001148015610ebe5750303b155b905081158015610ecc575080155b15610eea5760405163f92ee8a960e01b815260040160405180910390fd5b845467ffffffffffffffff191660011785558315610f1e57845468ff00000000000000001916680100000000000000001785555b610f2888886122c0565b600086806020019051810190610f3e91906131cd565b905080607260006101000a8154816001600160a01b0302191690836001600160a01b031602179055506000610fd38a6001600160a01b031663736963a76040518163ffffffff1660e01b8152600401602060405180830381865afa158015610faa573d6000803e3d6000fd5b505050506040513d601f19601f82011682018060405250810190610fce91906131ea565b6123de565b9050600081604051602001610fe891906132fa565b604051602081830303815290604052905060008260405160200161100c9190613352565b60405160208183030381529060405290506110898282866001600160a01b031663313ce5676040518163ffffffff1660e01b8152600401602060405180830381865afa158015611060573d6000803e3d6000fd5b505050506040513d601f19601f82011682018060405250810190611084919061337e565b61247e565b5050505083156110d857845468ff000000000000000019168555604051600181527fc7f505b2f371ae2175ee4913f4499e1f2633a7b5936321eed1cdaeb6115181d29060200160405180910390a15b5050505050505050565b6060603c60030180546110f490613199565b80601f016020809104026020016040519081016040528092919081815260200182805461112090613199565b801561116d5780601f106111425761010080835404028352916020019161116d565b820191906000526020600020905b81548152906001019060200180831161115057829003601f168201915b5050505050905090565b6060603c60020180546110f490613199565b603b5460405163572b6c0560e01b81526001600160a01b038381166004830152600092169063572b6c0590602401602060405180830381865afa1580156111d4573d6000803e3d6000fd5b505050506040513d601f19601f82011682018060405250810190610607919061339b565b816000603b60009054906101000a90046001600160a01b03166001600160a01b031663d09edf316040518163ffffffff1660e01b8152600401602060405180830381865afa15801561124e573d6000803e3d6000fd5b505050506040513d601f19601f8201168201806040525081019061127291906131cd565b60405163fdd5205f60e01b8152306004820152602481018490526001600160a01b03919091169063fdd5205f906044016020604051808303816000875af11580156112c1573d6000803e3d6000fd5b505050506040513d601f19601f820116820180604052508101906112e591906131ea565b905061133d603b60009054906101000a90046001600160a01b03166001600160a01b031663d09edf316040518163ffffffff1660e01b8152600401602060405180830381865afa158015610972573d6000803e3d6000fd5b603b60009054906101000a90046001600160a01b03166001600160a01b031663d09edf316040518163ffffffff1660e01b8152600401602060405180830381865afa158015611390573d6000803e3d6000fd5b505050506040513d601f19601f820116820180604052508101906113b491906131cd565b60405163385e205560e21b8152600481018690526001600160a01b038581166024830152919091169063e1788154906044015b600060405180830381600087803b15801561140157600080fd5b505af11580156110d8573d6000803e3d6000fd5b6001546001600160a01b0382166000908152600360205260408120549091610607916133d3565b611444612508565b816001600160a01b038116158061146357506001600160a01b03811630145b15611481576040516303e03d7b60e31b815260040160405180910390fd5b61148b8383612543565b505050565b60408051608081018252603c80548252603d546020830152603e80546000946115db949392908401916114c290613199565b80601f01602080910402602001604051908101604052809291908181526020018280546114ee90613199565b801561153b5780601f106115105761010080835404028352916020019161153b565b820191906000526020600020905b81548152906001019060200180831161151e57829003601f168201915b5050505050815260200160038201805461155490613199565b80601f016020809104026020016040519081016040528092919081815260200182805461158090613199565b80156115cd5780601f106115a2576101008083540402835291602001916115cd565b820191906000526020600020905b8154815290600101906020018083116115b057829003601f168201915b5050505050815250506125a1565b905090565b603b5460408051637da0a87760e01b815290516000926001600160a01b031691637da0a8779160048083019260209291908290030181865afa15801561162a573d6000803e3d6000fd5b505050506040513d601f19601f820116820180604052508101906115db91906131cd565b6000826001600160a01b038116158061166f57506001600160a01b03811630145b1561168d57604051634e46966960e11b815260040160405180910390fd5b826001600160a01b03811615806116ac57506001600160a01b03811630145b156116ca57604051634e46966960e11b815260040160405180910390fd5b6116d2611e10565b6001600160a01b038516600090815260036020526040812054906116f5826125e1565b9050806000036117105761170b87336001611efb565b61171b565b61171b873383611efb565b61172787878385611f6a565b6001945050505b505092915050565b6006805461061a90613199565b6000816001600160a01b038116158061176457506001600160a01b03811630145b1561178257604051634e46966960e11b815260040160405180910390fd5b61178a611e10565b33600090815260036020526040812054906117a4826125e1565b90506117b233868385611f6a565b6001935050505b50919050565b3360009081526004602090815260408083206001600160a01b03861684529091528120548210611812573360009081526004602090815260408083206001600160a01b0387168452909152812055611845565b3360009081526004602090815260408083206001600160a01b038716845290915281208054849290610ded9084906133e7565b3360008181526004602090815260408083206001600160a01b038816808552908352928190205490519081529192917f8c5be1e5ebec7d5bd14f71427d1e84f3dd0314c0f7b2291e5b200ac8c7c3b9259101610e45565b6000826001600160a01b03811615806118bd57506001600160a01b03811630145b156118db57604051634e46966960e11b815260040160405180910390fd5b82806000036118fd5760405163162908e360e11b815260040160405180910390fd5b611905611e10565b600061191085611ea4565b905061191e33878784611f6a565b50600195945050505050565b611932611e10565b565b60006115db6125f1565b610cf4611949611d39565b611951611d39565b8361216e565b816000603b60009054906101000a90046001600160a01b03166001600160a01b031663d09edf316040518163ffffffff1660e01b8152600401602060405180830381865afa1580156119ad573d6000803e3d6000fd5b505050506040513d601f19601f820116820180604052508101906119d191906131cd565b60405163fdd5205f60e01b8152306004820152602481018490526001600160a01b03919091169063fdd5205f906044016020604051808303816000875af1158015611a20573d6000803e3d6000fd5b505050506040513d601f19601f82011682018060405250810190611a4491906131ea565b9050611a9c603b60009054906101000a90046001600160a01b03166001600160a01b031663d09edf316040518163ffffffff1660e01b8152600401602060405180830381865afa158015610972573d6000803e3d6000fd5b603b60009054906101000a90046001600160a01b03166001600160a01b031663d09edf316040518163ffffffff1660e01b8152600401602060405180830381865afa158015611aef573d6000803e3d6000fd5b505050506040513d601f19601f82011682018060405250810190611b1391906131cd565b604051632e99be7f60e21b8152600481018690526001600160a01b038581166024830152919091169063ba66f9fc906044016113e7565b83421115611b5757600080fd5b60006001611b63610d09565b6001600160a01b038a811660008181526008602090815260409182902080546001810190915582517f00000000000000000000000000000000000000000000000000000000000000008184015280840194909452938d166060840152608083018c905260a083019390935260c08083018b90528151808403909101815260e08301909152805192019190912061190160f01b6101008301526101028201929092526101228101919091526101420160408051601f198184030181528282528051602091820120600084529083018083525260ff871690820152606081018590526080810184905260a0016020604051602081039080840390855afa158015611c6f573d6000803e3d6000fd5b5050604051601f1901519150506001600160a01b03811615801590611ca55750876001600160a01b0316816001600160a01b0316145b611cae57600080fd5b506001600160a01b038781166000818152600460209081526040808320948b168084529482529182902089905590518881527f8c5be1e5ebec7d5bd14f71427d1e84f3dd0314c0f7b2291e5b200ac8c7c3b925910160405180910390a350505050505050565b60006001600160e01b0319821663179dfb4560e01b148061060757506106078261264b565b6000366014611d4733611189565b8015611d535750808210155b15611d8357600036611d6583856133e7565b611d709282906133fa565b611d7991613424565b60601c9250505090565b339250505090565b611d958382612656565b9050611dbe8282611dae6072546001600160a01b031690565b6001600160a01b0316919061276f565b816001600160a01b0316836001600160a01b03167f2717ead6b9200dd235aad468c9809ea400fe33ac69b5bfaa6d3e90fc922b639883604051611e0391815260200190565b60405180910390a3505050565b6000611e1a6127e3565b9050801580611e3457506b033b2e3c9fd0803ce800000081115b15611e3c5750565b80611e456125f1565b611e4f91906133d3565b6001556002819055600080549080611e6683613457565b90915550506000546040518281527f11c6bf55864ff83827df712625d7a80e5583eef0264921025e7cd22003a215119060200160405180910390a250565b6000600154600014611ec257600154611ebd9083613470565b610607565b6b033b2e3c9fd0803ce8000000611edb81600019613487565b611ee7906000196133e7565b611ef191906133d3565b6106079083613470565b6001600160a01b038084166000908152600460209081526040808320938616835292905220546000191461148b576001600160a01b03808416600090815260046020908152604080832093861683529290529081208054839290611f609084906133e7565b9091555050505050565b6001600160a01b03841660009081526003602052604081208054839290611f929084906133e7565b90915550506001600160a01b03831660009081526003602052604081208054839290611fbf9084906132e7565b90915550506001600160a01b0384166000908152600360205260408120549003611ffd576001600160a01b0384166000908152600360205260408120555b826001600160a01b0316846001600160a01b03167fddf252ad1be2c89b69c2b068fc378daa952ba7f163c4a11628f55a4df523b3ef8460405161204291815260200190565b60405180910390a350505050565b603b60009054906101000a90046001600160a01b03166001600160a01b031663d09edf316040518163ffffffff1660e01b8152600401602060405180830381865afa1580156120a3573d6000803e3d6000fd5b505050506040513d601f19601f820116820180604052508101906120c791906131cd565b604051632474521560e21b8152600481018490526001600160a01b03838116602483015291909116906391d1485490604401602060405180830381865afa158015612116573d6000803e3d6000fd5b505050506040513d601f19601f8201168201806040525081019061213a919061339b565b610751576040516342abbb7760e01b8152600481018390526001600160a01b03821660248201526044015b60405180910390fd5b306001600160a01b038416036121975760405163f7cd8f7160e01b815260040160405180910390fd5b6a52b7d2dcc80cd2e40000006121b56072546001600160a01b031690565b6040516370a0823160e01b81523060048201526001600160a01b0391909116906370a0823190602401602060405180830381865afa1580156121fb573d6000803e3d6000fd5b505050506040513d601f19601f8201168201806040525081019061221f91906131ea565b61222990836132e7565b1115612248576040516334cd621d60e21b815260040160405180910390fd5b6122528282612861565b61227b83308361226a6072546001600160a01b031690565b6001600160a01b03169291906129bf565b816001600160a01b0316836001600160a01b03167f5548c837ab068cf56a2c2479df0882a4922fd203edb7517321831d95078c5f6283604051611e0391815260200190565b6122c86129fe565b6001600160a01b0382166122ef57604051637280679360e01b815260040160405180910390fd5b603b805473ffffffffffffffffffffffffffffffffffffffff19166001600160a01b03841617905561232081612a4c565b61233d57604051637511254160e01b815260040160405180910390fd5b8051603c9081556020820151603d556040820151829190603e9061236190826134e3565b506060820151600382019061237690826134e3565b505050606081015160405161238b91906135a3565b604080519182900382208351602080860151918552840152916001600160a01b038516917feb175f148a71d29a5f7bf5439182fcd81e6ea9cfc8a11b54ab0f705fa98fa8ca910160405180910390a35050565b606060006123eb83612a9e565b600101905060008167ffffffffffffffff81111561240b5761240b612f13565b6040519080825280601f01601f191660200182016040528015612435576020820181803683370190505b5090508181016020015b600019017f3031323334353637383961626364656600000000000000000000000000000000600a86061a8153600a850494508461243f57509392505050565b6002541561248b57600080fd5b600561249784826134e3565b5060066124a483826134e3565b506007805460ff191660ff83161790556124cc6b033b2e3c9fd0803ce8000000600019613487565b6124d8906000196133e7565b6000805260036020527f3617319a054d772f909f7c479a2cebe5066e836a939412e32403c99029b92eff55505050565b603b546001600160a01b031661251c611d39565b6001600160a01b0316146119325760405163e614e81b60e01b815260040160405180910390fd5b61255a8282611dae6072546001600160a01b031690565b816001600160a01b03167fe88292c5f714100904272672c0420345093bd0e3c5555d31f3e4e2cf5f6ca8a18260405161259591815260200190565b60405180910390a25050565b60008160000151826040015183606001516040516020016125c4939291906135bf565b604051602081830303815290604052805190602001209050919050565b60006001548261060791906133d3565b600080805260036020527f3617319a054d772f909f7c479a2cebe5066e836a939412e32403c99029b92eff546126356b033b2e3c9fd0803ce8000000600019613487565b612641906000196133e7565b6115db91906133e7565b600061060782612b80565b6000826001600160a01b038116158061267757506001600160a01b03811630145b1561269557604051634e46966960e11b815260040160405180910390fd5b82806000036126b75760405163162908e360e11b815260040160405180910390fd5b60006126c285611ea4565b90506126cc611e10565b6126d5816125e1565b94506126e48660008784611f6a565b84600260008282546126f691906133e7565b90915550506002546127066125f1565b61271091906133d3565b60015560008054908061272283613457565b91905055506000547f11c6bf55864ff83827df712625d7a80e5583eef0264921025e7cd22003a2151160025460405161275d91815260200190565b60405180910390a25092949350505050565b6040516001600160a01b0383811660248301526044820183905261148b91859182169063a9059cbb906064015b604051602081830303815290604052915060e01b6020820180517bffffffffffffffffffffffffffffffffffffffffffffffffffffffff8381831617835250505050612bb5565b60006127f76072546001600160a01b031690565b6040516370a0823160e01b81523060048201526001600160a01b0391909116906370a0823190602401602060405180830381865afa15801561283d573d6000803e3d6000fd5b505050506040513d601f19601f820116820180604052508101906115db91906131ea565b816001600160a01b038116158061288057506001600160a01b03811630145b1561289e57604051634e46966960e11b815260040160405180910390fd5b81806000036128c05760405163162908e360e11b815260040160405180910390fd5b6128c8611e10565b6b033b2e3c9fd0803ce8000000836002546128e391906132e7565b11156129025760405163d05cb60960e01b815260040160405180910390fd5b600061290d84611ea4565b905060008161291a6125f1565b61292491906132e7565b9050846002600082825461293891906132e7565b90915550506001546000036129585760025461295490826133d3565b6001555b60008054908061296783613457565b91905055506000547f11c6bf55864ff83827df712625d7a80e5583eef0264921025e7cd22003a215116002546040516129a291815260200190565b60405180910390a26129b76000878785611f6a565b505050505050565b6040516001600160a01b0384811660248301528381166044830152606482018390526129f89186918216906323b872dd9060840161279c565b50505050565b7ff0c57e16840df040f15088dc2f81fe391c3923bec73e23a9662efc9c229c6a005468010000000000000000900460ff1661193257604051631afcd79f60e31b815260040160405180910390fd5b6000816040015151600003612a6357506000919050565b816060015151600003612a7857506000919050565b8151158015612a8957506020820151155b15612a9657506000919050565b506001919050565b6000807a184f03e93ff9f4daa797ed6e38ed64bf6a1f0100000000000000008310612ae7577a184f03e93ff9f4daa797ed6e38ed64bf6a1f010000000000000000830492506040015b6d04ee2d6d415b85acef81000000008310612b13576d04ee2d6d415b85acef8100000000830492506020015b662386f26fc100008310612b3157662386f26fc10000830492506010015b6305f5e1008310612b49576305f5e100830492506008015b6127108310612b5d57612710830492506004015b60648310612b6f576064830492506002015b600a83106106075760010192915050565b60006001600160e01b0319821663091ea3f760e21b148061060757506301ffc9a760e01b6001600160e01b0319831614610607565b6000612bca6001600160a01b03841683612c18565b90508051600014158015612bef575080806020019051810190612bed919061339b565b155b1561148b57604051635274afe760e01b81526001600160a01b0384166004820152602401612165565b6060612c2683836000612c2d565b9392505050565b606081471015612c525760405163cd78605960e01b8152306004820152602401612165565b600080856001600160a01b03168486604051612c6e91906135a3565b60006040518083038185875af1925050503d8060008114612cab576040519150601f19603f3d011682016040523d82523d6000602084013e612cb0565b606091505b5091509150612cc0868383612cca565b9695505050505050565b606082612cdf57612cda82612d26565b612c26565b8151158015612cf657506001600160a01b0384163b155b15612d1f57604051639996b31560e01b81526001600160a01b0385166004820152602401612165565b5080612c26565b805115612d365780518082602001fd5b604051630a12f52160e11b815260040160405180910390fd5b600060208284031215612d6157600080fd5b81356001600160e01b031981168114612c2657600080fd5b60005b83811015612d94578181015183820152602001612d7c565b50506000910152565b60008151808452612db5816020860160208601612d79565b601f01601f19169290920160200192915050565b602081526000612c266020830184612d9d565b6001600160a01b0381168114610cf457600080fd5b60008060408385031215612e0457600080fd5b8235612e0f81612ddc565b946020939093013593505050565b600060208284031215612e2f57600080fd5b8135612c2681612ddc565b600080600060608486031215612e4f57600080fd5b8335612e5a81612ddc565b92506020840135612e6a81612ddc565b929592945050506040919091013590565b600080600060408486031215612e9057600080fd5b83359250602084013567ffffffffffffffff80821115612eaf57600080fd5b818601915086601f830112612ec357600080fd5b813581811115612ed257600080fd5b8760208260051b8501011115612ee757600080fd5b6020830194508093505050509250925092565b600060208284031215612f0c57600080fd5b5035919050565b634e487b7160e01b600052604160045260246000fd5b6040516080810167ffffffffffffffff81118282101715612f4c57612f4c612f13565b60405290565b600082601f830112612f6357600080fd5b813567ffffffffffffffff80821115612f7e57612f7e612f13565b604051601f8301601f19908116603f01168101908282118183101715612fa657612fa6612f13565b81604052838152866020858801011115612fbf57600080fd5b836020870160208301376000602085830101528094505050505092915050565b600080600060608486031215612ff457600080fd5b8335612fff81612ddc565b9250602084013567ffffffffffffffff8082111561301c57600080fd5b908501906080828803121561303057600080fd5b613038612f29565b823581526020830135602082015260408301358281111561305857600080fd5b61306489828601612f52565b60408301525060608301358281111561307c57600080fd5b61308889828601612f52565b606083015250935060408601359150808211156130a457600080fd5b506130b186828701612f52565b9150509250925092565b600080604083850312156130ce57600080fd5b8235915060208301356130e081612ddc565b809150509250929050565b600080604083850312156130fe57600080fd5b823561310981612ddc565b915060208301356130e081612ddc565b60ff81168114610cf457600080fd5b600080600080600080600060e0888a03121561314357600080fd5b873561314e81612ddc565b9650602088013561315e81612ddc565b95506040880135945060608801359350608088013561317c81613119565b9699959850939692959460a0840135945060c09093013592915050565b600181811c908216806131ad57607f821691505b6020821081036117b957634e487b7160e01b600052602260045260246000fd5b6000602082840312156131df57600080fd5b8151612c2681612ddc565b6000602082840312156131fc57600080fd5b5051919050565b83815260406020808301829052908201839052600090849060608401835b8681101561324f57833561323481612ddc565b6001600160a01b031682529282019290820190600101613221565b50979650505050505050565b600080835461326981613199565b600182811680156132815760018114613296576132c5565b60ff19841687528215158302870194506132c5565b8760005260208060002060005b858110156132bc5781548a8201529084019082016132a3565b50505082870194505b50929695505050505050565b634e487b7160e01b600052601160045260246000fd5b80820180821115610607576106076132d1565b7f496e7665727465722046756e64696e6720546f6b656e202d204f7263686573748152697261746f725f7631202360b01b60208201526000825161334581602a850160208701612d79565b91909101602a0192915050565b634946542d60e01b815260008251613371816004850160208701612d79565b9190910160040192915050565b60006020828403121561339057600080fd5b8151612c2681613119565b6000602082840312156133ad57600080fd5b81518015158114612c2657600080fd5b634e487b7160e01b600052601260045260246000fd5b6000826133e2576133e26133bd565b500490565b81810381811115610607576106076132d1565b6000808585111561340a57600080fd5b8386111561341757600080fd5b5050820193919092039150565b6bffffffffffffffffffffffff19813581811691601485101561172e5760149490940360031b84901b1690921692915050565b600060018201613469576134696132d1565b5060010190565b8082028115828204841417610607576106076132d1565b600082613496576134966133bd565b500690565b601f82111561148b576000816000526020600020601f850160051c810160208610156134c45750805b601f850160051c820191505b818110156129b7578281556001016134d0565b815167ffffffffffffffff8111156134fd576134fd612f13565b6135118161350b8454613199565b8461349b565b602080601f831160018114613546576000841561352e5750858301515b600019600386901b1c1916600185901b1785556129b7565b600085815260208120601f198616915b8281101561357557888601518255948401946001909101908401613556565b50858210156135935787850151600019600388901b60f8161c191681555b5050505050600190811b01905550565b600082516135b5818460208701612d79565b9190910192915050565b8381526060602082015260006135d86060830185612d9d565b8281036040840152612cc08185612d9d56fea26469706673582212204325229769384f8d41d863b6b13d855edb64ba658ea51491d37dc9b6cea18eca64736f6c63430008170033",
    "linkReferences": {}
  },
  "methodIdentifiers": {
    "DOMAIN_SEPARATOR()": "3644e515",
    "EIP712_DOMAIN()": "e1b11da4",
    "EIP712_REVISION()": "78160376",
    "PERMIT_TYPEHASH()": "30adf81f",
    "allowance(address,address)": "dd62ed3e",
    "approve(address,uint256)": "095ea7b3",
    "balanceOf(address)": "70a08231",
    "decimals()": "313ce567",
    "decreaseAllowance(address,uint256)": "a457c2d7",
    "deposit(uint256)": "b6b55f25",
    "depositFor(address,uint256)": "2f4f21e2",
    "grantModuleRole(bytes32,address)": "6c67e807",
    "grantModuleRoleBatched(bytes32,address[])": "272bbd44",
    "identifier()": "7998a1c4",
    "increaseAllowance(address,uint256)": "39509351",
    "init(address,(uint256,uint256,string,string),bytes)": "42dfe958",
    "isTrustedForwarder(address)": "572b6c05",
    "name()": "06fdde03",
    "nonces(address)": "7ecebe00",
    "orchestrator()": "b74795d9",
    "permit(address,address,uint256,uint256,uint8,bytes32,bytes32)": "d505accf",
    "rebase()": "af14052c",
    "revokeModuleRole(bytes32,address)": "bcb61920",
    "revokeModuleRoleBatched(bytes32,address[])": "24e30270",
    "scaledBalanceOf(address)": "1da24f3e",
    "scaledTotalSupply()": "b1bf962d",
    "supportsInterface(bytes4)": "01ffc9a7",
    "symbol()": "95d89b41",
    "title()": "4a79d50c",
    "token()": "fc0c546a",
    "totalSupply()": "18160ddd",
    "transfer(address,uint256)": "a9059cbb",
    "transferAll(address)": "a3a7e7f3",
    "transferAllFrom(address,address)": "84d4b410",
    "transferFrom(address,address,uint256)": "23b872dd",
    "transferOrchestratorToken(address,uint256)": "759cc4b5",
    "trustedForwarder()": "7da0a877",
    "url()": "5600f04f",
    "version()": "54fd4d50",
    "withdraw(uint256)": "2e1a7d4d",
    "withdrawTo(address,uint256)": "205c2878"
  },
  "id": 135
}