{
  "abi": [
    {
      "type": "function",
      "name": "DOMAIN_SEPARATOR",
      "inputs": [],
      "outputs": [
        {
          "name": "",
          "type": "bytes32",
          "internalType": "bytes32"
        }
      ],
      "stateMutability": "view"
    },
    {
      "type": "function",
      "name": "EIP712_DOMAIN",
      "inputs": [],
      "outputs": [
        {
          "name": "",
          "type": "bytes32",
          "internalType": "bytes32"
        }
      ],
      "stateMutability": "view"
    },
    {
      "type": "function",
      "name": "EIP712_REVISION",
      "inputs": [],
      "outputs": [
        {
          "name": "",
          "type": "string",
          "internalType": "string"
        }
      ],
      "stateMutability": "view"
    },
    {
      "type": "function",
      "name": "PERMIT_TYPEHASH",
      "inputs": [],
      "outputs": [
        {
          "name": "",
          "type": "bytes32",
          "internalType": "bytes32"
        }
      ],
      "stateMutability": "view"
    },
    {
      "type": "function",
      "name": "allowance",
      "inputs": [
        {
          "name": "owner_",
          "type": "address",
          "internalType": "address"
        },
        {
          "name": "spender",
          "type": "address",
          "internalType": "address"
        }
      ],
      "outputs": [
        {
          "name": "",
          "type": "uint256",
          "internalType": "uint256"
        }
      ],
      "stateMutability": "view"
    },
    {
      "type": "function",
      "name": "approve",
      "inputs": [
        {
          "name": "spender",
          "type": "address",
          "internalType": "address"
        },
        {
          "name": "tokens",
          "type": "uint256",
          "internalType": "uint256"
        }
      ],
      "outputs": [
        {
          "name": "",
          "type": "bool",
          "internalType": "bool"
        }
      ],
      "stateMutability": "nonpayable"
    },
    {
      "type": "function",
      "name": "balanceOf",
      "inputs": [
        {
          "name": "who",
          "type": "address",
          "internalType": "address"
        }
      ],
      "outputs": [
        {
          "name": "",
          "type": "uint256",
          "internalType": "uint256"
        }
      ],
      "stateMutability": "view"
    },
    {
      "type": "function",
      "name": "decimals",
      "inputs": [],
      "outputs": [
        {
          "name": "",
          "type": "uint8",
          "internalType": "uint8"
        }
      ],
      "stateMutability": "view"
    },
    {
      "type": "function",
      "name": "decreaseAllowance",
      "inputs": [
        {
          "name": "spender",
          "type": "address",
          "internalType": "address"
        },
        {
          "name": "tokens",
          "type": "uint256",
          "internalType": "uint256"
        }
      ],
      "outputs": [
        {
          "name": "",
          "type": "bool",
          "internalType": "bool"
        }
      ],
      "stateMutability": "nonpayable"
    },
    {
      "type": "function",
      "name": "deposit",
      "inputs": [
        {
          "name": "amount",
          "type": "uint256",
          "internalType": "uint256"
        }
      ],
      "outputs": [],
      "stateMutability": "nonpayable"
    },
    {
      "type": "function",
      "name": "depositFor",
      "inputs": [
        {
          "name": "to",
          "type": "address",
          "internalType": "address"
        },
        {
          "name": "amount",
          "type": "uint256",
          "internalType": "uint256"
        }
      ],
      "outputs": [],
      "stateMutability": "nonpayable"
    },
    {
      "type": "function",
      "name": "grantModuleRole",
      "inputs": [
        {
          "name": "role",
          "type": "bytes32",
          "internalType": "bytes32"
        },
        {
          "name": "target",
          "type": "address",
          "internalType": "address"
        }
      ],
      "outputs": [],
      "stateMutability": "nonpayable"
    },
    {
      "type": "function",
      "name": "grantModuleRoleBatched",
      "inputs": [
        {
          "name": "role",
          "type": "bytes32",
          "internalType": "bytes32"
        },
        {
          "name": "targets",
          "type": "address[]",
          "internalType": "address[]"
        }
      ],
      "outputs": [],
      "stateMutability": "nonpayable"
    },
    {
      "type": "function",
      "name": "identifier",
      "inputs": [],
      "outputs": [
        {
          "name": "",
          "type": "bytes32",
          "internalType": "bytes32"
        }
      ],
      "stateMutability": "view"
    },
    {
      "type": "function",
      "name": "increaseAllowance",
      "inputs": [
        {
          "name": "spender",
          "type": "address",
          "internalType": "address"
        },
        {
          "name": "tokens",
          "type": "uint256",
          "internalType": "uint256"
        }
      ],
      "outputs": [
        {
          "name": "",
          "type": "bool",
          "internalType": "bool"
        }
      ],
      "stateMutability": "nonpayable"
    },
    {
      "type": "function",
      "name": "init",
      "inputs": [
        {
          "name": "orchestrator_",
          "type": "address",
          "internalType": "contract IOrchestrator_v1"
        },
        {
          "name": "metadata",
          "type": "tuple",
          "internalType": "struct IModule_v1.Metadata",
          "components": [
            {
              "name": "majorVersion",
              "type": "uint256",
              "internalType": "uint256"
            },
            {
              "name": "minorVersion",
              "type": "uint256",
              "internalType": "uint256"
            },
            {
              "name": "url",
              "type": "string",
              "internalType": "string"
            },
            {
              "name": "title",
              "type": "string",
              "internalType": "string"
            }
          ]
        },
        {
          "name": "configData",
          "type": "bytes",
          "internalType": "bytes"
        }
      ],
      "outputs": [],
      "stateMutability": "nonpayable"
    },
    {
      "type": "function",
      "name": "isTrustedForwarder",
      "inputs": [
        {
          "name": "forwarder",
          "type": "address",
          "internalType": "address"
        }
      ],
      "outputs": [
        {
          "name": "",
          "type": "bool",
          "internalType": "bool"
        }
      ],
      "stateMutability": "view"
    },
    {
      "type": "function",
      "name": "name",
      "inputs": [],
      "outputs": [
        {
          "name": "",
          "type": "string",
          "internalType": "string"
        }
      ],
      "stateMutability": "view"
    },
    {
      "type": "function",
      "name": "nonces",
      "inputs": [
        {
          "name": "who",
          "type": "address",
          "internalType": "address"
        }
      ],
      "outputs": [
        {
          "name": "",
          "type": "uint256",
          "internalType": "uint256"
        }
      ],
      "stateMutability": "view"
    },
    {
      "type": "function",
      "name": "orchestrator",
      "inputs": [],
      "outputs": [
        {
          "name": "",
          "type": "address",
          "internalType": "contract IOrchestrator_v1"
        }
      ],
      "stateMutability": "view"
    },
    {
      "type": "function",
      "name": "permit",
      "inputs": [
        {
          "name": "owner",
          "type": "address",
          "internalType": "address"
        },
        {
          "name": "spender",
          "type": "address",
          "internalType": "address"
        },
        {
          "name": "value",
          "type": "uint256",
          "internalType": "uint256"
        },
        {
          "name": "deadline",
          "type": "uint256",
          "internalType": "uint256"
        },
        {
          "name": "v",
          "type": "uint8",
          "internalType": "uint8"
        },
        {
          "name": "r",
          "type": "bytes32",
          "internalType": "bytes32"
        },
        {
          "name": "s",
          "type": "bytes32",
          "internalType": "bytes32"
        }
      ],
      "outputs": [],
      "stateMutability": "nonpayable"
    },
    {
      "type": "function",
      "name": "rebase",
      "inputs": [],
      "outputs": [],
      "stateMutability": "nonpayable"
    },
    {
      "type": "function",
      "name": "revokeModuleRole",
      "inputs": [
        {
          "name": "role",
          "type": "bytes32",
          "internalType": "bytes32"
        },
        {
          "name": "target",
          "type": "address",
          "internalType": "address"
        }
      ],
      "outputs": [],
      "stateMutability": "nonpayable"
    },
    {
      "type": "function",
      "name": "revokeModuleRoleBatched",
      "inputs": [
        {
          "name": "role",
          "type": "bytes32",
          "internalType": "bytes32"
        },
        {
          "name": "targets",
          "type": "address[]",
          "internalType": "address[]"
        }
      ],
      "outputs": [],
      "stateMutability": "nonpayable"
    },
    {
      "type": "function",
      "name": "scaledBalanceOf",
      "inputs": [
        {
          "name": "who",
          "type": "address",
          "internalType": "address"
        }
      ],
      "outputs": [
        {
          "name": "",
          "type": "uint256",
          "internalType": "uint256"
        }
      ],
      "stateMutability": "view"
    },
    {
      "type": "function",
      "name": "scaledTotalSupply",
      "inputs": [],
      "outputs": [
        {
          "name": "",
          "type": "uint256",
          "internalType": "uint256"
        }
      ],
      "stateMutability": "view"
    },
    {
      "type": "function",
      "name": "supportsInterface",
      "inputs": [
        {
          "name": "interfaceId",
          "type": "bytes4",
          "internalType": "bytes4"
        }
      ],
      "outputs": [
        {
          "name": "",
          "type": "bool",
          "internalType": "bool"
        }
      ],
      "stateMutability": "view"
    },
    {
      "type": "function",
      "name": "symbol",
      "inputs": [],
      "outputs": [
        {
          "name": "",
          "type": "string",
          "internalType": "string"
        }
      ],
      "stateMutability": "view"
    },
    {
      "type": "function",
      "name": "title",
      "inputs": [],
      "outputs": [
        {
          "name": "",
          "type": "string",
          "internalType": "string"
        }
      ],
      "stateMutability": "view"
    },
    {
      "type": "function",
      "name": "token",
      "inputs": [],
      "outputs": [
        {
          "name": "",
          "type": "address",
          "internalType": "contract IERC20"
        }
      ],
      "stateMutability": "view"
    },
    {
      "type": "function",
      "name": "totalSupply",
      "inputs": [],
      "outputs": [
        {
          "name": "",
          "type": "uint256",
          "internalType": "uint256"
        }
      ],
      "stateMutability": "view"
    },
    {
      "type": "function",
      "name": "transfer",
      "inputs": [
        {
          "name": "to",
          "type": "address",
          "internalType": "address"
        },
        {
          "name": "tokens",
          "type": "uint256",
          "internalType": "uint256"
        }
      ],
      "outputs": [
        {
          "name": "",
          "type": "bool",
          "internalType": "bool"
        }
      ],
      "stateMutability": "nonpayable"
    },
    {
      "type": "function",
      "name": "transferAll",
      "inputs": [
        {
          "name": "to",
          "type": "address",
          "internalType": "address"
        }
      ],
      "outputs": [
        {
          "name": "",
          "type": "bool",
          "internalType": "bool"
        }
      ],
      "stateMutability": "nonpayable"
    },
    {
      "type": "function",
      "name": "transferAllFrom",
      "inputs": [
        {
          "name": "from",
          "type": "address",
          "internalType": "address"
        },
        {
          "name": "to",
          "type": "address",
          "internalType": "address"
        }
      ],
      "outputs": [
        {
          "name": "",
          "type": "bool",
          "internalType": "bool"
        }
      ],
      "stateMutability": "nonpayable"
    },
    {
      "type": "function",
      "name": "transferFrom",
      "inputs": [
        {
          "name": "from",
          "type": "address",
          "internalType": "address"
        },
        {
          "name": "to",
          "type": "address",
          "internalType": "address"
        },
        {
          "name": "tokens",
          "type": "uint256",
          "internalType": "uint256"
        }
      ],
      "outputs": [
        {
          "name": "",
          "type": "bool",
          "internalType": "bool"
        }
      ],
      "stateMutability": "nonpayable"
    },
    {
      "type": "function",
      "name": "transferOrchestratorToken",
      "inputs": [
        {
          "name": "to",
          "type": "address",
          "internalType": "address"
        },
        {
          "name": "amount",
          "type": "uint256",
          "internalType": "uint256"
        }
      ],
      "outputs": [],
      "stateMutability": "nonpayable"
    },
    {
      "type": "function",
      "name": "trustedForwarder",
      "inputs": [],
      "outputs": [
        {
          "name": "",
          "type": "address",
          "internalType": "address"
        }
      ],
      "stateMutability": "view"
    },
    {
      "type": "function",
      "name": "url",
      "inputs": [],
      "outputs": [
        {
          "name": "",
          "type": "string",
          "internalType": "string"
        }
      ],
      "stateMutability": "view"
    },
    {
      "type": "function",
      "name": "version",
      "inputs": [],
      "outputs": [
        {
          "name": "",
          "type": "uint256",
          "internalType": "uint256"
        },
        {
          "name": "",
          "type": "uint256",
          "internalType": "uint256"
        }
      ],
      "stateMutability": "view"
    },
    {
      "type": "function",
      "name": "withdraw",
      "inputs": [
        {
          "name": "amount",
          "type": "uint256",
          "internalType": "uint256"
        }
      ],
      "outputs": [],
      "stateMutability": "nonpayable"
    },
    {
      "type": "function",
      "name": "withdrawTo",
      "inputs": [
        {
          "name": "to",
          "type": "address",
          "internalType": "address"
        },
        {
          "name": "amount",
          "type": "uint256",
          "internalType": "uint256"
        }
      ],
      "outputs": [],
      "stateMutability": "nonpayable"
    },
    {
      "type": "event",
      "name": "Approval",
      "inputs": [
        {
          "name": "owner",
          "type": "address",
          "indexed": true,
          "internalType": "address"
        },
        {
          "name": "spender",
          "type": "address",
          "indexed": true,
          "internalType": "address"
        },
        {
          "name": "value",
          "type": "uint256",
          "indexed": false,
          "internalType": "uint256"
        }
      ],
      "anonymous": false
    },
    {
      "type": "event",
      "name": "Deposit",
      "inputs": [
        {
          "name": "_from",
          "type": "address",
          "indexed": true,
          "internalType": "address"
        },
        {
          "name": "_for",
          "type": "address",
          "indexed": true,
          "internalType": "address"
        },
        {
          "name": "_amount",
          "type": "uint256",
          "indexed": true,
          "internalType": "uint256"
        }
      ],
      "anonymous": false
    },
    {
      "type": "event",
      "name": "Initialized",
      "inputs": [
        {
          "name": "version",
          "type": "uint64",
          "indexed": false,
          "internalType": "uint64"
        }
      ],
      "anonymous": false
    },
    {
      "type": "event",
      "name": "ModuleInitialized",
      "inputs": [
        {
          "name": "parentOrchestrator",
          "type": "address",
          "indexed": true,
          "internalType": "address"
        },
        {
          "name": "moduleTitle",
          "type": "string",
          "indexed": true,
          "internalType": "string"
        },
        {
          "name": "majorVersion",
          "type": "uint256",
          "indexed": false,
          "internalType": "uint256"
        },
        {
          "name": "minorVersion",
          "type": "uint256",
          "indexed": false,
          "internalType": "uint256"
        }
      ],
      "anonymous": false
    },
    {
      "type": "event",
      "name": "Rebase",
      "inputs": [
        {
          "name": "epoch",
          "type": "uint256",
          "indexed": true,
          "internalType": "uint256"
        },
        {
          "name": "newScalar",
          "type": "uint256",
          "indexed": false,
          "internalType": "uint256"
        }
      ],
      "anonymous": false
    },
    {
      "type": "event",
      "name": "Transfer",
      "inputs": [
        {
          "name": "from",
          "type": "address",
          "indexed": true,
          "internalType": "address"
        },
        {
          "name": "to",
          "type": "address",
          "indexed": true,
          "internalType": "address"
        },
        {
          "name": "value",
          "type": "uint256",
          "indexed": false,
          "internalType": "uint256"
        }
      ],
      "anonymous": false
    },
    {
      "type": "event",
      "name": "TransferOrchestratorToken",
      "inputs": [
        {
          "name": "_to",
          "type": "address",
          "indexed": true,
          "internalType": "address"
        },
        {
          "name": "_amount",
          "type": "uint256",
          "indexed": true,
          "internalType": "uint256"
        }
      ],
      "anonymous": false
    },
    {
      "type": "event",
      "name": "Withdrawal",
      "inputs": [
        {
          "name": "_from",
          "type": "address",
          "indexed": true,
          "internalType": "address"
        },
        {
          "name": "_for",
          "type": "address",
          "indexed": true,
          "internalType": "address"
        },
        {
          "name": "_amount",
          "type": "uint256",
          "indexed": true,
          "internalType": "uint256"
        }
      ],
      "anonymous": false
    },
    {
      "type": "error",
      "name": "AddressEmptyCode",
      "inputs": [
        {
          "name": "target",
          "type": "address",
          "internalType": "address"
        }
      ]
    },
    {
      "type": "error",
      "name": "AddressInsufficientBalance",
      "inputs": [
        {
          "name": "account",
          "type": "address",
          "internalType": "address"
        }
      ]
    },
    {
      "type": "error",
      "name": "FailedInnerCall",
      "inputs": []
    },
    {
      "type": "error",
      "name": "InvalidAmount",
      "inputs": []
    },
    {
      "type": "error",
      "name": "InvalidInitialization",
      "inputs": []
    },
    {
      "type": "error",
      "name": "InvalidRecipient",
      "inputs": []
    },
    {
      "type": "error",
      "name": "MaxSupplyReached",
      "inputs": []
    },
    {
      "type": "error",
      "name": "Module_OrchestratorCallbackFailed",
      "inputs": [
        {
          "name": "funcSig",
          "type": "string",
          "internalType": "string"
        }
      ]
    },
    {
      "type": "error",
      "name": "Module__CallerNotAuthorized",
      "inputs": [
        {
          "name": "role",
          "type": "bytes32",
          "internalType": "bytes32"
        },
        {
          "name": "caller",
          "type": "address",
          "internalType": "address"
        }
      ]
    },
    {
      "type": "error",
      "name": "Module__FundingManager__CannotSelfDeposit",
      "inputs": []
    },
    {
      "type": "error",
      "name": "Module__FundingManager__DepositCapReached",
      "inputs": []
    },
    {
      "type": "error",
      "name": "Module__FundingManager__InvalidAddress",
      "inputs": []
    },
    {
      "type": "error",
      "name": "Module__InvalidMetadata",
      "inputs": []
    },
    {
      "type": "error",
      "name": "Module__InvalidOrchestratorAddress",
      "inputs": []
    },
    {
      "type": "error",
      "name": "Module__OnlyCallableByOrchestrator",
      "inputs": []
    },
    {
      "type": "error",
      "name": "NotInitializing",
      "inputs": []
    },
    {
      "type": "error",
      "name": "SafeERC20FailedOperation",
      "inputs": [
        {
          "name": "token",
          "type": "address",
          "internalType": "address"
        }
      ]
    }
  ],
  "bytecode": {
    "object": "0x60e06040527f8b73c3c69bb8fe3d512ecc4cf759cc79239f7b179b0ffacaa9a75d522b39400f60a0527f6e71edae12b1b97f4d1f60370fef10105fa2faae0126114a169c64845d6126c960c0523480156200005957600080fd5b506000608052620000696200006f565b62000123565b7ff0c57e16840df040f15088dc2f81fe391c3923bec73e23a9662efc9c229c6a00805468010000000000000000900460ff1615620000c05760405163f92ee8a960e01b815260040160405180910390fd5b80546001600160401b0390811614620001205780546001600160401b0319166001600160401b0390811782556040519081527fc7f505b2f371ae2175ee4913f4499e1f2633a7b5936321eed1cdaeb6115181d29060200160405180910390a15b50565b60805160a05160c0516136256200015e600039600081816103dc015261192401526000818161063b0152610bc70152600050506136256000f3fe608060405234801561001057600080fd5b50600436106102d35760003560e01c80636c67e80711610186578063a457c2d7116100e3578063b74795d911610097578063dd62ed3e11610071578063dd62ed3e146105fd578063e1b11da414610636578063fc0c546a1461065d57600080fd5b8063b74795d9146105c6578063bcb61920146105d7578063d505accf146105ea57600080fd5b8063af14052c116100c8578063af14052c146105a3578063b1bf962d146105ab578063b6b55f25146105b357600080fd5b8063a457c2d71461057d578063a9059cbb1461059057600080fd5b80637da0a8771161013a57806384d4b4101161011f57806384d4b4101461054f57806395d89b4114610562578063a3a7e7f31461056a57600080fd5b80637da0a877146105065780637ecebe001461052657600080fd5b8063759cc4b51161016b578063759cc4b5146104af57806378160376146104c25780637998a1c4146104fe57600080fd5b80636c67e8071461048957806370a082311461049c57600080fd5b80632f4f21e21161023457806342dfe958116101e857806354fd4d50116101cd57806354fd4d50146104535780635600f04f1461046e578063572b6c051461047657600080fd5b806342dfe958146104385780634a79d50c1461044b57600080fd5b8063313ce56711610219578063313ce567146103fe5780633644e5151461041d578063395093511461042557600080fd5b80632f4f21e2146103c457806330adf81f146103d757600080fd5b8063205c28781161028b57806324e302701161027057806324e302701461038b578063272bbd441461039e5780632e1a7d4d146103b157600080fd5b8063205c28781461036357806323b872dd1461037857600080fd5b8063095ea7b3116102bc578063095ea7b31461031557806318160ddd146103285780631da24f3e1461033a57600080fd5b806301ffc9a7146102d857806306fdde0314610300575b600080fd5b6102eb6102e6366004612cf6565b61066e565b60405190151581526020015b60405180910390f35b6103086106ca565b6040516102f79190612d5c565b6102eb610323366004612da4565b610758565b6002545b6040519081526020016102f7565b61032c610348366004612dd0565b6001600160a01b031660009081526003602052604090205490565b610376610371366004612da4565b6107fc565b005b6102eb610386366004612ded565b610812565b610376610399366004612e2e565b6108ea565b6103766103ac366004612e2e565b610aa4565b6103766103bf366004612ead565b610b95565b6103766103d2366004612da4565b610bb1565b61032c7f000000000000000000000000000000000000000000000000000000000000000081565b60075461040b9060ff1681565b60405160ff90911681526020016102f7565b61032c610bc3565b6102eb610433366004612da4565b610c8e565b610376610446366004612f92565b610d2c565b610308610fe8565b600a54600b54604080519283526020830191909152016102f7565b61030861107d565b6102eb610484366004612dd0565b61108f565b61037661049736600461306e565b611117565b61032c6104aa366004612dd0565b61125b565b6103766104bd366004612da4565b611282565b6103086040518060400160405280600181526020017f310000000000000000000000000000000000000000000000000000000000000081525081565b61032c6112ef565b61050e61143f565b6040516001600160a01b0390911681526020016102f7565b61032c610534366004612dd0565b6001600160a01b031660009081526008602052604090205490565b6102eb61055d36600461309e565b6114c6565b6103086115ae565b6102eb610578366004612dd0565b6115bb565b6102eb61058b366004612da4565b611637565b6102eb61059e366004612da4565b611714565b6103766117a2565b61032c6117ac565b6103766105c1366004612ead565b6117b6565b6009546001600160a01b031661050e565b6103766105e536600461306e565b6117cf565b6103766105f83660046130db565b6118e1565b61032c61060b36600461309e565b6001600160a01b03918216600090815260046020908152604080832093909416825291909152205490565b61032c7f000000000000000000000000000000000000000000000000000000000000000081565b600e546001600160a01b031661050e565b60007fffffffff0000000000000000000000000000000000000000000000000000000082167f899090df0000000000000000000000000000000000000000000000000000000014806106c457506106c482611ac6565b92915050565b600580546106d79061314c565b80601f01602080910402602001604051908101604052809291908181526020018280546107039061314c565b80156107505780601f1061072557610100808354040283529160200191610750565b820191906000526020600020905b81548152906001019060200180831161073357829003601f168201915b505050505081565b6000826001600160a01b038116158061077957506001600160a01b03811630145b1561079757604051634e46966960e11b815260040160405180910390fd5b3360008181526004602090815260408083206001600160a01b03891680855290835292819020879055518681529192917f8c5be1e5ebec7d5bd14f71427d1e84f3dd0314c0f7b2291e5b200ac8c7c3b925910160405180910390a35060019392505050565b61080e610807611b1c565b8383611b6e565b5050565b6000836001600160a01b038116158061083357506001600160a01b03811630145b1561085157604051634e46966960e11b815260040160405180910390fd5b836001600160a01b038116158061087057506001600160a01b03811630145b1561088e57604051634e46966960e11b815260040160405180910390fd5b83806000036108b05760405163162908e360e11b815260040160405180910390fd5b6108b8611be7565b60006108c386611c7b565b90506108d0883388611cd2565b6108dc88888884611d41565b506001979650505050505050565b6009546040805163d09edf3160e01b815290516109c7926001600160a01b03169163d09edf319160048083019260209291908290030181865afa158015610935573d6000803e3d6000fd5b505050506040513d601f19601f820116820180604052508101906109599190613180565b6001600160a01b03166355ff58d46040518163ffffffff1660e01b8152600401602060405180830381865afa158015610996573d6000803e3d6000fd5b505050506040513d601f19601f820116820180604052508101906109ba919061319d565b6109c2611b1c565b611e27565b600960009054906101000a90046001600160a01b03166001600160a01b031663d09edf316040518163ffffffff1660e01b8152600401602060405180830381865afa158015610a1a573d6000803e3d6000fd5b505050506040513d601f19601f82011682018060405250810190610a3e9190613180565b6001600160a01b0316637d540a648484846040518463ffffffff1660e01b8152600401610a6d939291906131b6565b600060405180830381600087803b158015610a8757600080fd5b505af1158015610a9b573d6000803e3d6000fd5b50505050505050565b6009546040805163d09edf3160e01b81529051610aef926001600160a01b03169163d09edf319160048083019260209291908290030181865afa158015610935573d6000803e3d6000fd5b600960009054906101000a90046001600160a01b03166001600160a01b031663d09edf316040518163ffffffff1660e01b8152600401602060405180830381865afa158015610b42573d6000803e3d6000fd5b505050506040513d601f19601f82011682018060405250810190610b669190613180565b6001600160a01b031663648154538484846040518463ffffffff1660e01b8152600401610a6d939291906131b6565b610bae610ba0611b1c565b610ba8611b1c565b83611b6e565b50565b61080e610bbc611b1c565b8383611f77565b60007f00000000000000000000000000000000000000000000000000000000000000006005604051610bf5919061320e565b604080519182900382208282018252600183527f31000000000000000000000000000000000000000000000000000000000000006020938401528151928301939093528101919091527fc89efdaa54c0f20c7adf612882df0950f5a951637e0307cdcb4c672f298b8bc660608201524660808201523060a082015260c00160405160208183030381529060405280519060200120905090565b3360009081526004602090815260408083206001600160a01b0386168452909152812080548391908390610cc390849061329a565b90915550503360008181526004602090815260408083206001600160a01b038816808552908352928190205490519081529192917f8c5be1e5ebec7d5bd14f71427d1e84f3dd0314c0f7b2291e5b200ac8c7c3b92591015b60405180910390a350600192915050565b7ff0c57e16840df040f15088dc2f81fe391c3923bec73e23a9662efc9c229c6a00805468010000000000000000810460ff16159067ffffffffffffffff16600081158015610d775750825b905060008267ffffffffffffffff166001148015610d945750303b155b905081158015610da2575080155b15610dd9576040517ff92ee8a900000000000000000000000000000000000000000000000000000000815260040160405180910390fd5b84547fffffffffffffffffffffffffffffffffffffffffffffffff00000000000000001660011785558315610e2457845468ff00000000000000001916680100000000000000001785555b610e2e8888612115565b600086806020019051810190610e449190613180565b905080600e60006101000a8154816001600160a01b0302191690836001600160a01b031602179055506000610ed98a6001600160a01b031663736963a76040518163ffffffff1660e01b8152600401602060405180830381865afa158015610eb0573d6000803e3d6000fd5b505050506040513d601f19601f82011682018060405250810190610ed4919061319d565b612270565b9050600081604051602001610eee91906132ad565b6040516020818303038152906040529050600082604051602001610f129190613318565b6040516020818303038152906040529050610f8f8282866001600160a01b031663313ce5676040518163ffffffff1660e01b8152600401602060405180830381865afa158015610f66573d6000803e3d6000fd5b505050506040513d601f19601f82011682018060405250810190610f8a919061335d565b612310565b505050508315610fde57845468ff000000000000000019168555604051600181527fc7f505b2f371ae2175ee4913f4499e1f2633a7b5936321eed1cdaeb6115181d29060200160405180910390a15b5050505050505050565b6060600a6003018054610ffa9061314c565b80601f01602080910402602001604051908101604052809291908181526020018280546110269061314c565b80156110735780601f1061104857610100808354040283529160200191611073565b820191906000526020600020905b81548152906001019060200180831161105657829003601f168201915b5050505050905090565b6060600a6002018054610ffa9061314c565b6009546040517f572b6c050000000000000000000000000000000000000000000000000000000081526001600160a01b038381166004830152600092169063572b6c0590602401602060405180830381865afa1580156110f3573d6000803e3d6000fd5b505050506040513d601f19601f820116820180604052508101906106c4919061337a565b6009546040805163d09edf3160e01b81529051611162926001600160a01b03169163d09edf319160048083019260209291908290030181865afa158015610935573d6000803e3d6000fd5b600960009054906101000a90046001600160a01b03166001600160a01b031663d09edf316040518163ffffffff1660e01b8152600401602060405180830381865afa1580156111b5573d6000803e3d6000fd5b505050506040513d601f19601f820116820180604052508101906111d99190613180565b6040517fe1788154000000000000000000000000000000000000000000000000000000008152600481018490526001600160a01b038381166024830152919091169063e1788154906044015b600060405180830381600087803b15801561123f57600080fd5b505af1158015611253573d6000803e3d6000fd5b505050505050565b6001546001600160a01b03821660009081526003602052604081205490916106c4916133b2565b61128a61239a565b816001600160a01b03811615806112a957506001600160a01b03811630145b156112e0576040517f1f01ebd800000000000000000000000000000000000000000000000000000000815260040160405180910390fd5b6112ea83836123ee565b505050565b60408051608081018252600a80548252600b546020830152600c805460009461143a949392908401916113219061314c565b80601f016020809104026020016040519081016040528092919081815260200182805461134d9061314c565b801561139a5780601f1061136f5761010080835404028352916020019161139a565b820191906000526020600020905b81548152906001019060200180831161137d57829003601f168201915b505050505081526020016003820180546113b39061314c565b80601f01602080910402602001604051908101604052809291908181526020018280546113df9061314c565b801561142c5780601f106114015761010080835404028352916020019161142c565b820191906000526020600020905b81548152906001019060200180831161140f57829003601f168201915b50505050508152505061243f565b905090565b600954604080517f7da0a87700000000000000000000000000000000000000000000000000000000815290516000926001600160a01b031691637da0a8779160048083019260209291908290030181865afa1580156114a2573d6000803e3d6000fd5b505050506040513d601f19601f8201168201806040525081019061143a9190613180565b6000826001600160a01b03811615806114e757506001600160a01b03811630145b1561150557604051634e46966960e11b815260040160405180910390fd5b826001600160a01b038116158061152457506001600160a01b03811630145b1561154257604051634e46966960e11b815260040160405180910390fd5b61154a611be7565b6001600160a01b0385166000908152600360205260408120549061156d8261247f565b9050806000036115885761158387336001611cd2565b611593565b611593873383611cd2565b61159f87878385611d41565b6001945050505b505092915050565b600680546106d79061314c565b6000816001600160a01b03811615806115dc57506001600160a01b03811630145b156115fa57604051634e46966960e11b815260040160405180910390fd5b611602611be7565b336000908152600360205260408120549061161c8261247f565b905061162a33868385611d41565b6001935050505b50919050565b3360009081526004602090815260408083206001600160a01b0386168452909152812054821061168a573360009081526004602090815260408083206001600160a01b03871684529091528120556116bd565b3360009081526004602090815260408083206001600160a01b038716845290915281208054849290610cc39084906133c6565b3360008181526004602090815260408083206001600160a01b038816808552908352928190205490519081529192917f8c5be1e5ebec7d5bd14f71427d1e84f3dd0314c0f7b2291e5b200ac8c7c3b9259101610d1b565b6000826001600160a01b038116158061173557506001600160a01b03811630145b1561175357604051634e46966960e11b815260040160405180910390fd5b82806000036117755760405163162908e360e11b815260040160405180910390fd5b61177d611be7565b600061178885611c7b565b905061179633878784611d41565b50600195945050505050565b6117aa611be7565b565b600061143a61248f565b610bae6117c1611b1c565b6117c9611b1c565b83611f77565b6009546040805163d09edf3160e01b8152905161181a926001600160a01b03169163d09edf319160048083019260209291908290030181865afa158015610935573d6000803e3d6000fd5b600960009054906101000a90046001600160a01b03166001600160a01b031663d09edf316040518163ffffffff1660e01b8152600401602060405180830381865afa15801561186d573d6000803e3d6000fd5b505050506040513d601f19601f820116820180604052508101906118919190613180565b6040517fba66f9fc000000000000000000000000000000000000000000000000000000008152600481018490526001600160a01b038381166024830152919091169063ba66f9fc90604401611225565b834211156118ee57600080fd5b600060016118fa610bc3565b6001600160a01b038a811660008181526008602090815260409182902080546001810190915582517f00000000000000000000000000000000000000000000000000000000000000008184015280840194909452938d166060840152608083018c905260a083019390935260c08083018b90528151808403909101815260e0830190915280519201919091207f19010000000000000000000000000000000000000000000000000000000000006101008301526101028201929092526101228101919091526101420160408051601f198184030181528282528051602091820120600084529083018083525260ff871690820152606081018590526080810184905260a0016020604051602081039080840390855afa158015611a21573d6000803e3d6000fd5b5050604051601f1901519150506001600160a01b03811615801590611a575750876001600160a01b0316816001600160a01b0316145b611a6057600080fd5b506001600160a01b038781166000818152600460209081526040808320948b168084529482529182902089905590518881527f8c5be1e5ebec7d5bd14f71427d1e84f3dd0314c0f7b2291e5b200ac8c7c3b925910160405180910390a350505050505050565b60007fffffffff0000000000000000000000000000000000000000000000000000000082167f179dfb450000000000000000000000000000000000000000000000000000000014806106c457506106c4826124e9565b6000366014611b2a3361108f565b8015611b365750808210155b15611b6657600036611b4883856133c6565b611b539282906133d9565b611b5c91613403565b60601c9250505090565b339250505090565b611b7883826124f4565b9050611ba18282611b91600e546001600160a01b031690565b6001600160a01b0316919061260d565b80826001600160a01b0316846001600160a01b03167f2717ead6b9200dd235aad468c9809ea400fe33ac69b5bfaa6d3e90fc922b639860405160405180910390a4505050565b6000611bf1612681565b9050801580611c0b57506b033b2e3c9fd0803ce800000081115b15611c135750565b80611c1c61248f565b611c2691906133b2565b6001556002819055600080549080611c3d83613449565b90915550506000546040518281527f11c6bf55864ff83827df712625d7a80e5583eef0264921025e7cd22003a215119060200160405180910390a250565b6000600154600014611c9957600154611c949083613463565b6106c4565b6b033b2e3c9fd0803ce8000000611cb28160001961347a565b611cbe906000196133c6565b611cc891906133b2565b6106c49083613463565b6001600160a01b03808416600090815260046020908152604080832093861683529290522054600019146112ea576001600160a01b03808416600090815260046020908152604080832093861683529290529081208054839290611d379084906133c6565b9091555050505050565b6001600160a01b03841660009081526003602052604081208054839290611d699084906133c6565b90915550506001600160a01b03831660009081526003602052604081208054839290611d9690849061329a565b90915550506001600160a01b0384166000908152600360205260408120549003611dd4576001600160a01b0384166000908152600360205260408120555b826001600160a01b0316846001600160a01b03167fddf252ad1be2c89b69c2b068fc378daa952ba7f163c4a11628f55a4df523b3ef84604051611e1991815260200190565b60405180910390a350505050565b600960009054906101000a90046001600160a01b03166001600160a01b031663d09edf316040518163ffffffff1660e01b8152600401602060405180830381865afa158015611e7a573d6000803e3d6000fd5b505050506040513d601f19601f82011682018060405250810190611e9e9190613180565b6040517f91d14854000000000000000000000000000000000000000000000000000000008152600481018490526001600160a01b03838116602483015291909116906391d1485490604401602060405180830381865afa158015611f06573d6000803e3d6000fd5b505050506040513d601f19601f82011682018060405250810190611f2a919061337a565b61080e576040517f42abbb77000000000000000000000000000000000000000000000000000000008152600481018390526001600160a01b03821660248201526044015b60405180910390fd5b306001600160a01b03841603611fb9576040517ff7cd8f7100000000000000000000000000000000000000000000000000000000815260040160405180910390fd5b6a52b7d2dcc80cd2e4000000611fd7600e546001600160a01b031690565b6040517f70a082310000000000000000000000000000000000000000000000000000000081523060048201526001600160a01b0391909116906370a0823190602401602060405180830381865afa158015612036573d6000803e3d6000fd5b505050506040513d601f19601f8201168201806040525081019061205a919061319d565b612064908361329a565b111561209c576040517fd335887400000000000000000000000000000000000000000000000000000000815260040160405180910390fd5b6120a68282612718565b6120cf8330836120be600e546001600160a01b031690565b6001600160a01b0316929190612887565b80826001600160a01b0316846001600160a01b03167f5548c837ab068cf56a2c2479df0882a4922fd203edb7517321831d95078c5f6260405160405180910390a4505050565b61211d6128c6565b6001600160a01b03821661215d576040517f7280679300000000000000000000000000000000000000000000000000000000815260040160405180910390fd5b600980547fffffffffffffffffffffffff0000000000000000000000000000000000000000166001600160a01b0384161790556121998161292d565b6121cf576040517f7511254100000000000000000000000000000000000000000000000000000000815260040160405180910390fd5b8051600a9081556020820151600b556040820151829190600c906121f390826134d6565b506060820151600382019061220890826134d6565b505050606081015160405161221d9190613596565b604080519182900382208351602080860151918552840152916001600160a01b038516917feb175f148a71d29a5f7bf5439182fcd81e6ea9cfc8a11b54ab0f705fa98fa8ca910160405180910390a35050565b6060600061227d8361297f565b600101905060008167ffffffffffffffff81111561229d5761229d612ec6565b6040519080825280601f01601f1916602001820160405280156122c7576020820181803683370190505b5090508181016020015b600019017f3031323334353637383961626364656600000000000000000000000000000000600a86061a8153600a85049450846122d157509392505050565b6002541561231d57600080fd5b600561232984826134d6565b50600661233683826134d6565b506007805460ff191660ff831617905561235e6b033b2e3c9fd0803ce800000060001961347a565b61236a906000196133c6565b6000805260036020527f3617319a054d772f909f7c479a2cebe5066e836a939412e32403c99029b92eff55505050565b6009546001600160a01b03166123ae611b1c565b6001600160a01b0316146117aa576040517fe614e81b00000000000000000000000000000000000000000000000000000000815260040160405180910390fd5b6124058282611b91600e546001600160a01b031690565b60405181906001600160a01b038416907fe88292c5f714100904272672c0420345093bd0e3c5555d31f3e4e2cf5f6ca8a190600090a35050565b6000816000015182604001518360600151604051602001612462939291906135b2565b604051602081830303815290604052805190602001209050919050565b6000600154826106c491906133b2565b600080805260036020527f3617319a054d772f909f7c479a2cebe5066e836a939412e32403c99029b92eff546124d36b033b2e3c9fd0803ce800000060001961347a565b6124df906000196133c6565b61143a91906133c6565b60006106c482612a61565b6000826001600160a01b038116158061251557506001600160a01b03811630145b1561253357604051634e46966960e11b815260040160405180910390fd5b82806000036125555760405163162908e360e11b815260040160405180910390fd5b600061256085611c7b565b905061256a611be7565b6125738161247f565b94506125828660008784611d41565b846002600082825461259491906133c6565b90915550506002546125a461248f565b6125ae91906133b2565b6001556000805490806125c083613449565b91905055506000547f11c6bf55864ff83827df712625d7a80e5583eef0264921025e7cd22003a215116002546040516125fb91815260200190565b60405180910390a25092949350505050565b6040516001600160a01b038381166024830152604482018390526112ea91859182169063a9059cbb906064015b604051602081830303815290604052915060e01b6020820180517bffffffffffffffffffffffffffffffffffffffffffffffffffffffff8381831617835250505050612af8565b6000612695600e546001600160a01b031690565b6040517f70a082310000000000000000000000000000000000000000000000000000000081523060048201526001600160a01b0391909116906370a0823190602401602060405180830381865afa1580156126f4573d6000803e3d6000fd5b505050506040513d601f19601f8201168201806040525081019061143a919061319d565b816001600160a01b038116158061273757506001600160a01b03811630145b1561275557604051634e46966960e11b815260040160405180910390fd5b81806000036127775760405163162908e360e11b815260040160405180910390fd5b61277f611be7565b6b033b2e3c9fd0803ce80000008360025461279a919061329a565b11156127d2576040517fd05cb60900000000000000000000000000000000000000000000000000000000815260040160405180910390fd5b60006127dd84611c7b565b90506000816127ea61248f565b6127f4919061329a565b90508460026000828254612808919061329a565b90915550506001546000036128285760025461282490826133b2565b6001555b60008054908061283783613449565b91905055506000547f11c6bf55864ff83827df712625d7a80e5583eef0264921025e7cd22003a2151160025460405161287291815260200190565b60405180910390a26112536000878785611d41565b6040516001600160a01b0384811660248301528381166044830152606482018390526128c09186918216906323b872dd9060840161263a565b50505050565b7ff0c57e16840df040f15088dc2f81fe391c3923bec73e23a9662efc9c229c6a005468010000000000000000900460ff166117aa576040517fd7e6bcf800000000000000000000000000000000000000000000000000000000815260040160405180910390fd5b600081604001515160000361294457506000919050565b81606001515160000361295957506000919050565b815115801561296a57506020820151155b1561297757506000919050565b506001919050565b6000807a184f03e93ff9f4daa797ed6e38ed64bf6a1f01000000000000000083106129c8577a184f03e93ff9f4daa797ed6e38ed64bf6a1f010000000000000000830492506040015b6d04ee2d6d415b85acef810000000083106129f4576d04ee2d6d415b85acef8100000000830492506020015b662386f26fc100008310612a1257662386f26fc10000830492506010015b6305f5e1008310612a2a576305f5e100830492506008015b6127108310612a3e57612710830492506004015b60648310612a50576064830492506002015b600a83106106c45760010192915050565b60007fffffffff0000000000000000000000000000000000000000000000000000000082167f247a8fdc0000000000000000000000000000000000000000000000000000000014806106c457507f01ffc9a7000000000000000000000000000000000000000000000000000000007fffffffff000000000000000000000000000000000000000000000000000000008316146106c4565b6000612b0d6001600160a01b03841683612b74565b90508051600014158015612b32575080806020019051810190612b30919061337a565b155b156112ea576040517f5274afe70000000000000000000000000000000000000000000000000000000081526001600160a01b0384166004820152602401611f6e565b6060612b8283836000612b89565b9392505050565b606081471015612bc7576040517fcd786059000000000000000000000000000000000000000000000000000000008152306004820152602401611f6e565b600080856001600160a01b03168486604051612be39190613596565b60006040518083038185875af1925050503d8060008114612c20576040519150601f19603f3d011682016040523d82523d6000602084013e612c25565b606091505b5091509150612c35868383612c3f565b9695505050505050565b606082612c5457612c4f82612cb4565b612b82565b8151158015612c6b57506001600160a01b0384163b155b15612cad576040517f9996b3150000000000000000000000000000000000000000000000000000000081526001600160a01b0385166004820152602401611f6e565b5080612b82565b805115612cc45780518082602001fd5b6040517f1425ea4200000000000000000000000000000000000000000000000000000000815260040160405180910390fd5b600060208284031215612d0857600080fd5b81357fffffffff0000000000000000000000000000000000000000000000000000000081168114612b8257600080fd5b60005b83811015612d53578181015183820152602001612d3b565b50506000910152565b6020815260008251806020840152612d7b816040850160208701612d38565b601f01601f19169190910160400192915050565b6001600160a01b0381168114610bae57600080fd5b60008060408385031215612db757600080fd5b8235612dc281612d8f565b946020939093013593505050565b600060208284031215612de257600080fd5b8135612b8281612d8f565b600080600060608486031215612e0257600080fd5b8335612e0d81612d8f565b92506020840135612e1d81612d8f565b929592945050506040919091013590565b600080600060408486031215612e4357600080fd5b83359250602084013567ffffffffffffffff80821115612e6257600080fd5b818601915086601f830112612e7657600080fd5b813581811115612e8557600080fd5b8760208260051b8501011115612e9a57600080fd5b6020830194508093505050509250925092565b600060208284031215612ebf57600080fd5b5035919050565b634e487b7160e01b600052604160045260246000fd5b6040516080810167ffffffffffffffff81118282101715612eff57612eff612ec6565b60405290565b600082601f830112612f1657600080fd5b813567ffffffffffffffff80821115612f3157612f31612ec6565b604051601f8301601f19908116603f01168101908282118183101715612f5957612f59612ec6565b81604052838152866020858801011115612f7257600080fd5b836020870160208301376000602085830101528094505050505092915050565b600080600060608486031215612fa757600080fd5b8335612fb281612d8f565b9250602084013567ffffffffffffffff80821115612fcf57600080fd5b9085019060808288031215612fe357600080fd5b612feb612edc565b823581526020830135602082015260408301358281111561300b57600080fd5b61301789828601612f05565b60408301525060608301358281111561302f57600080fd5b61303b89828601612f05565b6060830152509350604086013591508082111561305757600080fd5b5061306486828701612f05565b9150509250925092565b6000806040838503121561308157600080fd5b82359150602083013561309381612d8f565b809150509250929050565b600080604083850312156130b157600080fd5b82356130bc81612d8f565b9150602083013561309381612d8f565b60ff81168114610bae57600080fd5b600080600080600080600060e0888a0312156130f657600080fd5b873561310181612d8f565b9650602088013561311181612d8f565b95506040880135945060608801359350608088013561312f816130cc565b9699959850939692959460a0840135945060c09093013592915050565b600181811c9082168061316057607f821691505b60208210810361163157634e487b7160e01b600052602260045260246000fd5b60006020828403121561319257600080fd5b8151612b8281612d8f565b6000602082840312156131af57600080fd5b5051919050565b83815260406020808301829052908201839052600090849060608401835b868110156132025783356131e781612d8f565b6001600160a01b0316825292820192908201906001016131d4565b50979650505050505050565b600080835461321c8161314c565b60018281168015613234576001811461324957613278565b60ff1984168752821515830287019450613278565b8760005260208060002060005b8581101561326f5781548a820152908401908201613256565b50505082870194505b50929695505050505050565b634e487b7160e01b600052601160045260246000fd5b808201808211156106c4576106c4613284565b7f496e7665727465722046756e64696e6720546f6b656e202d204f72636865737481527f7261746f725f763120230000000000000000000000000000000000000000000060208201526000825161330b81602a850160208701612d38565b91909101602a0192915050565b7f4946542d00000000000000000000000000000000000000000000000000000000815260008251613350816004850160208701612d38565b9190910160040192915050565b60006020828403121561336f57600080fd5b8151612b82816130cc565b60006020828403121561338c57600080fd5b81518015158114612b8257600080fd5b634e487b7160e01b600052601260045260246000fd5b6000826133c1576133c161339c565b500490565b818103818111156106c4576106c4613284565b600080858511156133e957600080fd5b838611156133f657600080fd5b5050820193919092039150565b7fffffffffffffffffffffffffffffffffffffffff00000000000000000000000081358181169160148510156115a65760149490940360031b84901b1690921692915050565b6000600019820361345c5761345c613284565b5060010190565b80820281158282048414176106c4576106c4613284565b6000826134895761348961339c565b500690565b601f8211156112ea576000816000526020600020601f850160051c810160208610156134b75750805b601f850160051c820191505b81811015611253578281556001016134c3565b815167ffffffffffffffff8111156134f0576134f0612ec6565b613504816134fe845461314c565b8461348e565b602080601f83116001811461353957600084156135215750858301515b600019600386901b1c1916600185901b178555611253565b600085815260208120601f198616915b8281101561356857888601518255948401946001909101908401613549565b50858210156135865787850151600019600388901b60f8161c191681555b5050505050600190811b01905550565b600082516135a8818460208701612d38565b9190910192915050565b838152600083516135ca816020850160208801612d38565b808301905083516135e2816020840160208801612d38565b016020019594505050505056fea2646970667358221220c811692b164360dec5d8c1753cc1777652a52c1129297141d23e451536fa60a164736f6c63430008170033",
    "linkReferences": {}
  },
  "methodIdentifiers": {
    "DOMAIN_SEPARATOR()": "3644e515",
    "EIP712_DOMAIN()": "e1b11da4",
    "EIP712_REVISION()": "78160376",
    "PERMIT_TYPEHASH()": "30adf81f",
    "allowance(address,address)": "dd62ed3e",
    "approve(address,uint256)": "095ea7b3",
    "balanceOf(address)": "70a08231",
    "decimals()": "313ce567",
    "decreaseAllowance(address,uint256)": "a457c2d7",
    "deposit(uint256)": "b6b55f25",
    "depositFor(address,uint256)": "2f4f21e2",
    "grantModuleRole(bytes32,address)": "6c67e807",
    "grantModuleRoleBatched(bytes32,address[])": "272bbd44",
    "identifier()": "7998a1c4",
    "increaseAllowance(address,uint256)": "39509351",
    "init(address,(uint256,uint256,string,string),bytes)": "42dfe958",
    "isTrustedForwarder(address)": "572b6c05",
    "name()": "06fdde03",
    "nonces(address)": "7ecebe00",
    "orchestrator()": "b74795d9",
    "permit(address,address,uint256,uint256,uint8,bytes32,bytes32)": "d505accf",
    "rebase()": "af14052c",
    "revokeModuleRole(bytes32,address)": "bcb61920",
    "revokeModuleRoleBatched(bytes32,address[])": "24e30270",
    "scaledBalanceOf(address)": "1da24f3e",
    "scaledTotalSupply()": "b1bf962d",
    "supportsInterface(bytes4)": "01ffc9a7",
    "symbol()": "95d89b41",
    "title()": "4a79d50c",
    "token()": "fc0c546a",
    "totalSupply()": "18160ddd",
    "transfer(address,uint256)": "a9059cbb",
    "transferAll(address)": "a3a7e7f3",
    "transferAllFrom(address,address)": "84d4b410",
    "transferFrom(address,address,uint256)": "23b872dd",
    "transferOrchestratorToken(address,uint256)": "759cc4b5",
    "trustedForwarder()": "7da0a877",
    "url()": "5600f04f",
    "version()": "54fd4d50",
    "withdraw(uint256)": "2e1a7d4d",
    "withdrawTo(address,uint256)": "205c2878"
  },
  "id": 136
}