{"abi":[{"type":"function","name":"DOMAIN_SEPARATOR","inputs":[],"outputs":[{"name":"","type":"bytes32","internalType":"bytes32"}],"stateMutability":"view"},{"type":"function","name":"EIP712_DOMAIN","inputs":[],"outputs":[{"name":"","type":"bytes32","internalType":"bytes32"}],"stateMutability":"view"},{"type":"function","name":"EIP712_REVISION","inputs":[],"outputs":[{"name":"","type":"string","internalType":"string"}],"stateMutability":"view"},{"type":"function","name":"PERMIT_TYPEHASH","inputs":[],"outputs":[{"name":"","type":"bytes32","internalType":"bytes32"}],"stateMutability":"view"},{"type":"function","name":"allowance","inputs":[{"name":"owner_","type":"address","internalType":"address"},{"name":"spender","type":"address","internalType":"address"}],"outputs":[{"name":"","type":"uint256","internalType":"uint256"}],"stateMutability":"view"},{"type":"function","name":"approve","inputs":[{"name":"spender","type":"address","internalType":"address"},{"name":"tokens","type":"uint256","internalType":"uint256"}],"outputs":[{"name":"","type":"bool","internalType":"bool"}],"stateMutability":"nonpayable"},{"type":"function","name":"balanceOf","inputs":[{"name":"who","type":"address","internalType":"address"}],"outputs":[{"name":"","type":"uint256","internalType":"uint256"}],"stateMutability":"view"},{"type":"function","name":"decimals","inputs":[],"outputs":[{"name":"","type":"uint8","internalType":"uint8"}],"stateMutability":"view"},{"type":"function","name":"decoder","inputs":[{"name":"data","type":"bytes","internalType":"bytes"}],"outputs":[{"name":"requirement","type":"bool","internalType":"bool"}],"stateMutability":"pure"},{"type":"function","name":"decreaseAllowance","inputs":[{"name":"spender","type":"address","internalType":"address"},{"name":"tokens","type":"uint256","internalType":"uint256"}],"outputs":[{"name":"","type":"bool","internalType":"bool"}],"stateMutability":"nonpayable"},{"type":"function","name":"deposit","inputs":[{"name":"amount","type":"uint256","internalType":"uint256"}],"outputs":[],"stateMutability":"nonpayable"},{"type":"function","name":"depositFor","inputs":[{"name":"to","type":"address","internalType":"address"},{"name":"amount","type":"uint256","internalType":"uint256"}],"outputs":[],"stateMutability":"nonpayable"},{"type":"function","name":"grantModuleRole","inputs":[{"name":"role","type":"bytes32","internalType":"bytes32"},{"name":"target","type":"address","internalType":"address"}],"outputs":[],"stateMutability":"nonpayable"},{"type":"function","name":"grantModuleRoleBatched","inputs":[{"name":"role","type":"bytes32","internalType":"bytes32"},{"name":"targets","type":"address[]","internalType":"address[]"}],"outputs":[],"stateMutability":"nonpayable"},{"type":"function","name":"identifier","inputs":[],"outputs":[{"name":"","type":"bytes32","internalType":"bytes32"}],"stateMutability":"view"},{"type":"function","name":"increaseAllowance","inputs":[{"name":"spender","type":"address","internalType":"address"},{"name":"tokens","type":"uint256","internalType":"uint256"}],"outputs":[{"name":"","type":"bool","internalType":"bool"}],"stateMutability":"nonpayable"},{"type":"function","name":"init","inputs":[{"name":"orchestrator_","type":"address","internalType":"contract IOrchestrator_v1"},{"name":"metadata","type":"tuple","internalType":"struct IModule_v1.Metadata","components":[{"name":"majorVersion","type":"uint256","internalType":"uint256"},{"name":"minorVersion","type":"uint256","internalType":"uint256"},{"name":"url","type":"string","internalType":"string"},{"name":"title","type":"string","internalType":"string"}]},{"name":"configData","type":"bytes","internalType":"bytes"}],"outputs":[],"stateMutability":"nonpayable"},{"type":"function","name":"init2","inputs":[{"name":"orchestrator_","type":"address","internalType":"contract IOrchestrator_v1"},{"name":"dependencyData","type":"bytes","internalType":"bytes"}],"outputs":[],"stateMutability":"nonpayable"},{"type":"function","name":"isTrustedForwarder","inputs":[{"name":"forwarder","type":"address","internalType":"address"}],"outputs":[{"name":"","type":"bool","internalType":"bool"}],"stateMutability":"view"},{"type":"function","name":"name","inputs":[],"outputs":[{"name":"","type":"string","internalType":"string"}],"stateMutability":"view"},{"type":"function","name":"nonces","inputs":[{"name":"who","type":"address","internalType":"address"}],"outputs":[{"name":"","type":"uint256","internalType":"uint256"}],"stateMutability":"view"},{"type":"function","name":"orchestrator","inputs":[],"outputs":[{"name":"","type":"address","internalType":"contract IOrchestrator_v1"}],"stateMutability":"view"},{"type":"function","name":"permit","inputs":[{"name":"owner","type":"address","internalType":"address"},{"name":"spender","type":"address","internalType":"address"},{"name":"value","type":"uint256","internalType":"uint256"},{"name":"deadline","type":"uint256","internalType":"uint256"},{"name":"v","type":"uint8","internalType":"uint8"},{"name":"r","type":"bytes32","internalType":"bytes32"},{"name":"s","type":"bytes32","internalType":"bytes32"}],"outputs":[],"stateMutability":"nonpayable"},{"type":"function","name":"rebase","inputs":[],"outputs":[],"stateMutability":"nonpayable"},{"type":"function","name":"revokeModuleRole","inputs":[{"name":"role","type":"bytes32","internalType":"bytes32"},{"name":"target","type":"address","internalType":"address"}],"outputs":[],"stateMutability":"nonpayable"},{"type":"function","name":"revokeModuleRoleBatched","inputs":[{"name":"role","type":"bytes32","internalType":"bytes32"},{"name":"targets","type":"address[]","internalType":"address[]"}],"outputs":[],"stateMutability":"nonpayable"},{"type":"function","name":"scaledBalanceOf","inputs":[{"name":"who","type":"address","internalType":"address"}],"outputs":[{"name":"","type":"uint256","internalType":"uint256"}],"stateMutability":"view"},{"type":"function","name":"scaledTotalSupply","inputs":[],"outputs":[{"name":"","type":"uint256","internalType":"uint256"}],"stateMutability":"view"},{"type":"function","name":"supportsInterface","inputs":[{"name":"interfaceId","type":"bytes4","internalType":"bytes4"}],"outputs":[{"name":"","type":"bool","internalType":"bool"}],"stateMutability":"view"},{"type":"function","name":"symbol","inputs":[],"outputs":[{"name":"","type":"string","internalType":"string"}],"stateMutability":"view"},{"type":"function","name":"title","inputs":[],"outputs":[{"name":"","type":"string","internalType":"string"}],"stateMutability":"view"},{"type":"function","name":"token","inputs":[],"outputs":[{"name":"","type":"address","internalType":"contract IERC20"}],"stateMutability":"view"},{"type":"function","name":"totalSupply","inputs":[],"outputs":[{"name":"","type":"uint256","internalType":"uint256"}],"stateMutability":"view"},{"type":"function","name":"transfer","inputs":[{"name":"to","type":"address","internalType":"address"},{"name":"tokens","type":"uint256","internalType":"uint256"}],"outputs":[{"name":"","type":"bool","internalType":"bool"}],"stateMutability":"nonpayable"},{"type":"function","name":"transferAll","inputs":[{"name":"to","type":"address","internalType":"address"}],"outputs":[{"name":"","type":"bool","internalType":"bool"}],"stateMutability":"nonpayable"},{"type":"function","name":"transferAllFrom","inputs":[{"name":"from","type":"address","internalType":"address"},{"name":"to","type":"address","internalType":"address"}],"outputs":[{"name":"","type":"bool","internalType":"bool"}],"stateMutability":"nonpayable"},{"type":"function","name":"transferFrom","inputs":[{"name":"from","type":"address","internalType":"address"},{"name":"to","type":"address","internalType":"address"},{"name":"tokens","type":"uint256","internalType":"uint256"}],"outputs":[{"name":"","type":"bool","internalType":"bool"}],"stateMutability":"nonpayable"},{"type":"function","name":"transferOrchestratorToken","inputs":[{"name":"to","type":"address","internalType":"address"},{"name":"amount","type":"uint256","internalType":"uint256"}],"outputs":[],"stateMutability":"nonpayable"},{"type":"function","name":"trustedForwarder","inputs":[],"outputs":[{"name":"","type":"address","internalType":"address"}],"stateMutability":"view"},{"type":"function","name":"url","inputs":[],"outputs":[{"name":"","type":"string","internalType":"string"}],"stateMutability":"view"},{"type":"function","name":"version","inputs":[],"outputs":[{"name":"","type":"uint256","internalType":"uint256"},{"name":"","type":"uint256","internalType":"uint256"}],"stateMutability":"view"},{"type":"function","name":"withdraw","inputs":[{"name":"amount","type":"uint256","internalType":"uint256"}],"outputs":[],"stateMutability":"nonpayable"},{"type":"function","name":"withdrawTo","inputs":[{"name":"to","type":"address","internalType":"address"},{"name":"amount","type":"uint256","internalType":"uint256"}],"outputs":[],"stateMutability":"nonpayable"},{"type":"event","name":"Approval","inputs":[{"name":"owner","type":"address","indexed":true,"internalType":"address"},{"name":"spender","type":"address","indexed":true,"internalType":"address"},{"name":"value","type":"uint256","indexed":false,"internalType":"uint256"}],"anonymous":false},{"type":"event","name":"Deposit","inputs":[{"name":"_from","type":"address","indexed":true,"internalType":"address"},{"name":"_for","type":"address","indexed":true,"internalType":"address"},{"name":"_amount","type":"uint256","indexed":true,"internalType":"uint256"}],"anonymous":false},{"type":"event","name":"Initialized","inputs":[{"name":"version","type":"uint64","indexed":false,"internalType":"uint64"}],"anonymous":false},{"type":"event","name":"ModuleInitialized","inputs":[{"name":"parentOrchestrator","type":"address","indexed":true,"internalType":"address"},{"name":"moduleTitle","type":"string","indexed":true,"internalType":"string"},{"name":"majorVersion","type":"uint256","indexed":false,"internalType":"uint256"},{"name":"minorVersion","type":"uint256","indexed":false,"internalType":"uint256"}],"anonymous":false},{"type":"event","name":"Rebase","inputs":[{"name":"epoch","type":"uint256","indexed":true,"internalType":"uint256"},{"name":"newScalar","type":"uint256","indexed":false,"internalType":"uint256"}],"anonymous":false},{"type":"event","name":"Transfer","inputs":[{"name":"from","type":"address","indexed":true,"internalType":"address"},{"name":"to","type":"address","indexed":true,"internalType":"address"},{"name":"value","type":"uint256","indexed":false,"internalType":"uint256"}],"anonymous":false},{"type":"event","name":"TransferOrchestratorToken","inputs":[{"name":"_to","type":"address","indexed":true,"internalType":"address"},{"name":"_amount","type":"uint256","indexed":true,"internalType":"uint256"}],"anonymous":false},{"type":"event","name":"Withdrawal","inputs":[{"name":"_from","type":"address","indexed":true,"internalType":"address"},{"name":"_for","type":"address","indexed":true,"internalType":"address"},{"name":"_amount","type":"uint256","indexed":true,"internalType":"uint256"}],"anonymous":false},{"type":"error","name":"AddressEmptyCode","inputs":[{"name":"target","type":"address","internalType":"address"}]},{"type":"error","name":"AddressInsufficientBalance","inputs":[{"name":"account","type":"address","internalType":"address"}]},{"type":"error","name":"FailedInnerCall","inputs":[]},{"type":"error","name":"InvalidAmount","inputs":[]},{"type":"error","name":"InvalidInitialization","inputs":[]},{"type":"error","name":"InvalidRecipient","inputs":[]},{"type":"error","name":"MaxSupplyReached","inputs":[]},{"type":"error","name":"Module_OrchestratorCallbackFailed","inputs":[{"name":"funcSig","type":"string","internalType":"string"}]},{"type":"error","name":"Module__CallerNotAuthorized","inputs":[{"name":"role","type":"bytes32","internalType":"bytes32"},{"name":"caller","type":"address","internalType":"address"}]},{"type":"error","name":"Module__CannotCallInit2Again","inputs":[]},{"type":"error","name":"Module__FundingManager__CannotSelfDeposit","inputs":[]},{"type":"error","name":"Module__FundingManager__DepositCapReached","inputs":[]},{"type":"error","name":"Module__FundingManager__InvalidAddress","inputs":[]},{"type":"error","name":"Module__InvalidMetadata","inputs":[]},{"type":"error","name":"Module__InvalidOrchestratorAddress","inputs":[]},{"type":"error","name":"Module__NoDependencyOrMalformedDependencyData","inputs":[]},{"type":"error","name":"Module__OnlyCallableByOrchestrator","inputs":[]},{"type":"error","name":"NotInitializing","inputs":[]},{"type":"error","name":"SafeERC20FailedOperation","inputs":[{"name":"token","type":"address","internalType":"address"}]}],"bytecode":{"object":"0x60e06040527f8b73c3c69bb8fe3d512ecc4cf759cc79239f7b179b0ffacaa9a75d522b39400f60a0527f6e71edae12b1b97f4d1f60370fef10105fa2faae0126114a169c64845d6126c960c0523480156200005957600080fd5b506000608052620000696200006f565b62000123565b7ff0c57e16840df040f15088dc2f81fe391c3923bec73e23a9662efc9c229c6a00805468010000000000000000900460ff1615620000c05760405163f92ee8a960e01b815260040160405180910390fd5b80546001600160401b0390811614620001205780546001600160401b0319166001600160401b0390811782556040519081527fc7f505b2f371ae2175ee4913f4499e1f2633a7b5936321eed1cdaeb6115181d29060200160405180910390a15b50565b60805160a05160c051613e516200015e600039600081816103f20152611fb901526000818161067c0152610e9b015260005050613e516000f3fe608060405234801561001057600080fd5b50600436106102e95760003560e01c806370a0823111610191578063a457c2d7116100e3578063b74795d911610097578063dd62ed3e11610071578063dd62ed3e1461063e578063e1b11da414610677578063fc0c546a1461069e57600080fd5b8063b74795d914610602578063bcb6192014610618578063d505accf1461062b57600080fd5b8063af14052c116100c8578063af14052c146105df578063b1bf962d146105e7578063b6b55f25146105ef57600080fd5b8063a457c2d7146105b9578063a9059cbb146105cc57600080fd5b80637ecebe00116101455780639bfdf7661161011f5780639bfdf766146105805780639e97857514610593578063a3a7e7f3146105a657600080fd5b80637ecebe001461053c57806384d4b4101461056557806395d89b411461057857600080fd5b8063781603761161017657806378160376146104d85780637998a1c4146105145780637da0a8771461051c57600080fd5b806370a08231146104b2578063759cc4b5146104c557600080fd5b80632f4f21e21161024a57806342dfe958116101fe5780635600f04f116101d85780635600f04f14610484578063572b6c051461048c5780636c67e8071461049f57600080fd5b806342dfe9581461044e5780634a79d50c1461046157806354fd4d501461046957600080fd5b8063313ce5671161022f578063313ce567146104145780633644e51514610433578063395093511461043b57600080fd5b80632f4f21e2146103da57806330adf81f146103ed57600080fd5b8063205c2878116102a157806324e302701161028657806324e30270146103a1578063272bbd44146103b45780632e1a7d4d146103c757600080fd5b8063205c28781461037957806323b872dd1461038e57600080fd5b8063095ea7b3116102d2578063095ea7b31461032b57806318160ddd1461033e5780631da24f3e1461035057600080fd5b806301ffc9a7146102ee57806306fdde0314610316575b600080fd5b6103016102fc3660046132e9565b6106af565b60405190151581526020015b60405180910390f35b61031e61070b565b60405161030d919061337b565b6103016103393660046133a3565b610799565b6002545b60405190815260200161030d565b61034261035e3660046133cf565b6001600160a01b031660009081526003602052604090205490565b61038c6103873660046133a3565b61083d565b005b61030161039c3660046133ec565b610853565b61038c6103af36600461342d565b610944565b61038c6103c236600461342d565b610c18565b61038c6103d53660046134ac565b610e69565b61038c6103e83660046133a3565b610e85565b6103427f000000000000000000000000000000000000000000000000000000000000000081565b6007546104219060ff1681565b60405160ff909116815260200161030d565b610342610e97565b6103016104493660046133a3565b610f62565b61038c61045c3660046135cc565b611000565b61031e6112e8565b600a54600b546040805192835260208301919091520161030d565b61031e61137d565b61030161049a3660046133cf565b61138f565b61038c6104ad3660046136a8565b61141c565b6103426104c03660046133cf565b6116a8565b61038c6104d33660046133a3565b6116cf565b61031e6040518060400160405280600181526020017f310000000000000000000000000000000000000000000000000000000000000081525081565b61034261178d565b6105246118dd565b6040516001600160a01b03909116815260200161030d565b61034261054a3660046133cf565b6001600160a01b031660009081526008602052604090205490565b6103016105733660046136d8565b611956565b61031e611a3e565b61038c61058e366004613706565b611a4b565b6103016105a1366004613756565b611ad5565b6103016105b43660046133cf565b611af2565b6103016105c73660046133a3565b611b6e565b6103016105da3660046133a3565b611c4b565b61038c611cf2565b610342611cfc565b61038c6105fd3660046134ac565b611d06565b60095461010090046001600160a01b0316610524565b61038c6106263660046136a8565b611d1f565b61038c6106393660046137a2565b611f76565b61034261064c3660046136d8565b6001600160a01b03918216600090815260046020908152604080832093909416825291909152205490565b6103427f000000000000000000000000000000000000000000000000000000000000000081565b600e546001600160a01b0316610524565b60007fffffffff0000000000000000000000000000000000000000000000000000000082167f899090df00000000000000000000000000000000000000000000000000000000148061070557506107058261215b565b92915050565b6005805461071890613813565b80601f016020809104026020016040519081016040528092919081815260200182805461074490613813565b80156107915780601f1061076657610100808354040283529160200191610791565b820191906000526020600020905b81548152906001019060200180831161077457829003601f168201915b505050505081565b6000826001600160a01b03811615806107ba57506001600160a01b03811630145b156107d857604051634e46966960e11b815260040160405180910390fd5b3360008181526004602090815260408083206001600160a01b03891680855290835292819020879055518681529192917f8c5be1e5ebec7d5bd14f71427d1e84f3dd0314c0f7b2291e5b200ac8c7c3b925910160405180910390a35060019392505050565b61084f6108486121b1565b8383612203565b5050565b6000836001600160a01b038116158061087457506001600160a01b03811630145b1561089257604051634e46966960e11b815260040160405180910390fd5b836001600160a01b03811615806108b157506001600160a01b03811630145b156108cf57604051634e46966960e11b815260040160405180910390fd5b838060000361090a576040517f2c5211c600000000000000000000000000000000000000000000000000000000815260040160405180910390fd5b61091261227c565b600061091d86612310565b905061092a883388612367565b610936888888846123d6565b506001979650505050505050565b6000600960019054906101000a90046001600160a01b03166001600160a01b031663d09edf316040518163ffffffff1660e01b8152600401602060405180830381865afa158015610999573d6000803e3d6000fd5b505050506040513d601f19601f820116820180604052508101906109bd9190613860565b90506000816001600160a01b03166355ff58d46040518163ffffffff1660e01b8152600401602060405180830381865afa1580156109ff573d6000803e3d6000fd5b505050506040513d601f19601f82011682018060405250810190610a23919061387d565b9050816001600160a01b03166391d1485482610a3d6121b1565b6040517fffffffff0000000000000000000000000000000000000000000000000000000060e085901b16815260048101929092526001600160a01b03166024820152604401602060405180830381865afa158015610a9f573d6000803e3d6000fd5b505050506040513d601f19601f82011682018060405250810190610ac391906138a6565b610b195780610ad06121b1565b6040517f42abbb7700000000000000000000000000000000000000000000000000000000815260048101929092526001600160a01b031660248201526044015b60405180910390fd5b6000600960019054906101000a90046001600160a01b03166001600160a01b031663d09edf316040518163ffffffff1660e01b8152600401602060405180830381865afa158015610b6e573d6000803e3d6000fd5b505050506040513d601f19601f82011682018060405250810190610b929190613860565b6040517f7d540a640000000000000000000000000000000000000000000000000000000081529091506001600160a01b03821690637d540a6490610bde908990899089906004016138c1565b600060405180830381600087803b158015610bf857600080fd5b505af1158015610c0c573d6000803e3d6000fd5b50505050505050505050565b6000600960019054906101000a90046001600160a01b03166001600160a01b031663d09edf316040518163ffffffff1660e01b8152600401602060405180830381865afa158015610c6d573d6000803e3d6000fd5b505050506040513d601f19601f82011682018060405250810190610c919190613860565b90506000816001600160a01b03166355ff58d46040518163ffffffff1660e01b8152600401602060405180830381865afa158015610cd3573d6000803e3d6000fd5b505050506040513d601f19601f82011682018060405250810190610cf7919061387d565b9050816001600160a01b03166391d1485482610d116121b1565b6040517fffffffff0000000000000000000000000000000000000000000000000000000060e085901b16815260048101929092526001600160a01b03166024820152604401602060405180830381865afa158015610d73573d6000803e3d6000fd5b505050506040513d601f19601f82011682018060405250810190610d9791906138a6565b610da45780610ad06121b1565b6000600960019054906101000a90046001600160a01b03166001600160a01b031663d09edf316040518163ffffffff1660e01b8152600401602060405180830381865afa158015610df9573d6000803e3d6000fd5b505050506040513d601f19601f82011682018060405250810190610e1d9190613860565b6040517f648154530000000000000000000000000000000000000000000000000000000081529091506001600160a01b03821690636481545390610bde908990899089906004016138c1565b610e82610e746121b1565b610e7c6121b1565b83612203565b50565b61084f610e906121b1565b83836124bc565b60007f00000000000000000000000000000000000000000000000000000000000000006005604051610ec99190613919565b604080519182900382208282018252600183527f31000000000000000000000000000000000000000000000000000000000000006020938401528151928301939093528101919091527fc89efdaa54c0f20c7adf612882df0950f5a951637e0307cdcb4c672f298b8bc660608201524660808201523060a082015260c00160405160208183030381529060405280519060200120905090565b3360009081526004602090815260408083206001600160a01b0386168452909152812080548391908390610f979084906139be565b90915550503360008181526004602090815260408083206001600160a01b038816808552908352928190205490519081529192917f8c5be1e5ebec7d5bd14f71427d1e84f3dd0314c0f7b2291e5b200ac8c7c3b92591015b60405180910390a350600192915050565b7ff0c57e16840df040f15088dc2f81fe391c3923bec73e23a9662efc9c229c6a00805468010000000000000000810460ff16159067ffffffffffffffff1660008115801561104b5750825b905060008267ffffffffffffffff1660011480156110685750303b155b905081158015611076575080155b156110ad576040517ff92ee8a900000000000000000000000000000000000000000000000000000000815260040160405180910390fd5b84547fffffffffffffffffffffffffffffffffffffffffffffffff0000000000000000166001178555831561110e5784547fffffffffffffffffffffffffffffffffffffffffffffff00ffffffffffffffff16680100000000000000001785555b611118888861265a565b60008680602001905181019061112e9190613860565b905080600e60006101000a8154816001600160a01b0302191690836001600160a01b0316021790555060006111c38a6001600160a01b031663736963a76040518163ffffffff1660e01b8152600401602060405180830381865afa15801561119a573d6000803e3d6000fd5b505050506040513d601f19601f820116820180604052508101906111be919061387d565b6127b9565b90506000816040516020016111d891906139d1565b60405160208183030381529060405290506000826040516020016111fc9190613a3c565b60405160208183030381529060405290506112798282866001600160a01b031663313ce5676040518163ffffffff1660e01b8152600401602060405180830381865afa158015611250573d6000803e3d6000fd5b505050506040513d601f19601f820116820180604052508101906112749190613a81565b612859565b5050505083156112de5784547fffffffffffffffffffffffffffffffffffffffffffffff00ffffffffffffffff168555604051600181527fc7f505b2f371ae2175ee4913f4499e1f2633a7b5936321eed1cdaeb6115181d29060200160405180910390a15b5050505050505050565b6060600a60030180546112fa90613813565b80601f016020809104026020016040519081016040528092919081815260200182805461132690613813565b80156113735780601f1061134857610100808354040283529160200191611373565b820191906000526020600020905b81548152906001019060200180831161135657829003601f168201915b5050505050905090565b6060600a60020180546112fa90613813565b6009546040517f572b6c050000000000000000000000000000000000000000000000000000000081526001600160a01b0383811660048301526000926101009004169063572b6c0590602401602060405180830381865afa1580156113f8573d6000803e3d6000fd5b505050506040513d601f19601f8201168201806040525081019061070591906138a6565b6000600960019054906101000a90046001600160a01b03166001600160a01b031663d09edf316040518163ffffffff1660e01b8152600401602060405180830381865afa158015611471573d6000803e3d6000fd5b505050506040513d601f19601f820116820180604052508101906114959190613860565b90506000816001600160a01b03166355ff58d46040518163ffffffff1660e01b8152600401602060405180830381865afa1580156114d7573d6000803e3d6000fd5b505050506040513d601f19601f820116820180604052508101906114fb919061387d565b9050816001600160a01b03166391d14854826115156121b1565b6040517fffffffff0000000000000000000000000000000000000000000000000000000060e085901b16815260048101929092526001600160a01b03166024820152604401602060405180830381865afa158015611577573d6000803e3d6000fd5b505050506040513d601f19601f8201168201806040525081019061159b91906138a6565b6115a85780610ad06121b1565b6000600960019054906101000a90046001600160a01b03166001600160a01b031663d09edf316040518163ffffffff1660e01b8152600401602060405180830381865afa1580156115fd573d6000803e3d6000fd5b505050506040513d601f19601f820116820180604052508101906116219190613860565b6040517fe1788154000000000000000000000000000000000000000000000000000000008152600481018790526001600160a01b0386811660248301529192509082169063e1788154906044015b600060405180830381600087803b15801561168957600080fd5b505af115801561169d573d6000803e3d6000fd5b505050505050505050565b6001546001600160a01b038216600090815260036020526040812054909161070591613acd565b60095461010090046001600160a01b03166116e86121b1565b6001600160a01b031614611728576040517fe614e81b00000000000000000000000000000000000000000000000000000000815260040160405180910390fd5b816001600160a01b038116158061174757506001600160a01b03811630145b1561177e576040517f1f01ebd800000000000000000000000000000000000000000000000000000000815260040160405180910390fd5b61178883836128e3565b505050565b60408051608081018252600a80548252600b546020830152600c80546000946118d8949392908401916117bf90613813565b80601f01602080910402602001604051908101604052809291908181526020018280546117eb90613813565b80156118385780601f1061180d57610100808354040283529160200191611838565b820191906000526020600020905b81548152906001019060200180831161181b57829003601f168201915b5050505050815260200160038201805461185190613813565b80601f016020809104026020016040519081016040528092919081815260200182805461187d90613813565b80156118ca5780601f1061189f576101008083540402835291602001916118ca565b820191906000526020600020905b8154815290600101906020018083116118ad57829003601f168201915b505050505081525050612934565b905090565b6000600960019054906101000a90046001600160a01b03166001600160a01b0316637da0a8776040518163ffffffff1660e01b8152600401602060405180830381865afa158015611932573d6000803e3d6000fd5b505050506040513d601f19601f820116820180604052508101906118d89190613860565b6000826001600160a01b038116158061197757506001600160a01b03811630145b1561199557604051634e46966960e11b815260040160405180910390fd5b826001600160a01b03811615806119b457506001600160a01b03811630145b156119d257604051634e46966960e11b815260040160405180910390fd5b6119da61227c565b6001600160a01b038516600090815260036020526040812054906119fd82612974565b905080600003611a1857611a1387336001612367565b611a23565b611a23873383612367565b611a2f878783856123d6565b6001945050505b505092915050565b6006805461071890613813565b60095460ff1615611a88576040517f904875a100000000000000000000000000000000000000000000000000000000815260040160405180910390fd5b6009805460ff1916600117905580611a9f81612984565b611788576040517feef043ae00000000000000000000000000000000000000000000000000000000815260040160405180910390fd5b600081806020019051810190611aeb9190613ae1565b5092915050565b6000816001600160a01b0381161580611b1357506001600160a01b03811630145b15611b3157604051634e46966960e11b815260040160405180910390fd5b611b3961227c565b3360009081526003602052604081205490611b5382612974565b9050611b61338683856123d6565b6001935050505b50919050565b3360009081526004602090815260408083206001600160a01b03861684529091528120548210611bc1573360009081526004602090815260408083206001600160a01b0387168452909152812055611bf4565b3360009081526004602090815260408083206001600160a01b038716845290915281208054849290610f97908490613bf2565b3360008181526004602090815260408083206001600160a01b038816808552908352928190205490519081529192917f8c5be1e5ebec7d5bd14f71427d1e84f3dd0314c0f7b2291e5b200ac8c7c3b9259101610fef565b6000826001600160a01b0381161580611c6c57506001600160a01b03811630145b15611c8a57604051634e46966960e11b815260040160405180910390fd5b8280600003611cc5576040517f2c5211c600000000000000000000000000000000000000000000000000000000815260040160405180910390fd5b611ccd61227c565b6000611cd885612310565b9050611ce6338787846123d6565b50600195945050505050565b611cfa61227c565b565b60006118d8612a91565b610e82611d116121b1565b611d196121b1565b836124bc565b6000600960019054906101000a90046001600160a01b03166001600160a01b031663d09edf316040518163ffffffff1660e01b8152600401602060405180830381865afa158015611d74573d6000803e3d6000fd5b505050506040513d601f19601f82011682018060405250810190611d989190613860565b90506000816001600160a01b03166355ff58d46040518163ffffffff1660e01b8152600401602060405180830381865afa158015611dda573d6000803e3d6000fd5b505050506040513d601f19601f82011682018060405250810190611dfe919061387d565b9050816001600160a01b03166391d1485482611e186121b1565b6040517fffffffff0000000000000000000000000000000000000000000000000000000060e085901b16815260048101929092526001600160a01b03166024820152604401602060405180830381865afa158015611e7a573d6000803e3d6000fd5b505050506040513d601f19601f82011682018060405250810190611e9e91906138a6565b611eab5780610ad06121b1565b6000600960019054906101000a90046001600160a01b03166001600160a01b031663d09edf316040518163ffffffff1660e01b8152600401602060405180830381865afa158015611f00573d6000803e3d6000fd5b505050506040513d601f19601f82011682018060405250810190611f249190613860565b6040517fba66f9fc000000000000000000000000000000000000000000000000000000008152600481018790526001600160a01b0386811660248301529192509082169063ba66f9fc9060440161166f565b83421115611f8357600080fd5b60006001611f8f610e97565b6001600160a01b038a811660008181526008602090815260409182902080546001810190915582517f00000000000000000000000000000000000000000000000000000000000000008184015280840194909452938d166060840152608083018c905260a083019390935260c08083018b90528151808403909101815260e0830190915280519201919091207f19010000000000000000000000000000000000000000000000000000000000006101008301526101028201929092526101228101919091526101420160408051601f198184030181528282528051602091820120600084529083018083525260ff871690820152606081018590526080810184905260a0016020604051602081039080840390855afa1580156120b6573d6000803e3d6000fd5b5050604051601f1901519150506001600160a01b038116158015906120ec5750876001600160a01b0316816001600160a01b0316145b6120f557600080fd5b506001600160a01b038781166000818152600460209081526040808320948b168084529482529182902089905590518881527f8c5be1e5ebec7d5bd14f71427d1e84f3dd0314c0f7b2291e5b200ac8c7c3b925910160405180910390a350505050505050565b60007fffffffff0000000000000000000000000000000000000000000000000000000082167f8c600c23000000000000000000000000000000000000000000000000000000001480610705575061070582612aeb565b60003660146121bf3361138f565b80156121cb5750808210155b156121fb576000366121dd8385613bf2565b6121e8928290613c05565b6121f191613c2f565b60601c9250505090565b339250505090565b61220d8382612af6565b90506122368282612226600e546001600160a01b031690565b6001600160a01b03169190612c28565b80826001600160a01b0316846001600160a01b03167f2717ead6b9200dd235aad468c9809ea400fe33ac69b5bfaa6d3e90fc922b639860405160405180910390a4505050565b6000612286612c9c565b90508015806122a057506b033b2e3c9fd0803ce800000081115b156122a85750565b806122b1612a91565b6122bb9190613acd565b60015560028190556000805490806122d283613c75565b90915550506000546040518281527f11c6bf55864ff83827df712625d7a80e5583eef0264921025e7cd22003a215119060200160405180910390a250565b600060015460001461232e576001546123299083613c8f565b610705565b6b033b2e3c9fd0803ce800000061234781600019613ca6565b61235390600019613bf2565b61235d9190613acd565b6107059083613c8f565b6001600160a01b0380841660009081526004602090815260408083209386168352929052205460001914611788576001600160a01b038084166000908152600460209081526040808320938616835292905290812080548392906123cc908490613bf2565b9091555050505050565b6001600160a01b038416600090815260036020526040812080548392906123fe908490613bf2565b90915550506001600160a01b0383166000908152600360205260408120805483929061242b9084906139be565b90915550506001600160a01b0384166000908152600360205260408120549003612469576001600160a01b0384166000908152600360205260408120555b826001600160a01b0316846001600160a01b03167fddf252ad1be2c89b69c2b068fc378daa952ba7f163c4a11628f55a4df523b3ef846040516124ae91815260200190565b60405180910390a350505050565b306001600160a01b038416036124fe576040517ff7cd8f7100000000000000000000000000000000000000000000000000000000815260040160405180910390fd5b6a52b7d2dcc80cd2e400000061251c600e546001600160a01b031690565b6040517f70a082310000000000000000000000000000000000000000000000000000000081523060048201526001600160a01b0391909116906370a0823190602401602060405180830381865afa15801561257b573d6000803e3d6000fd5b505050506040513d601f19601f8201168201806040525081019061259f919061387d565b6125a990836139be565b11156125e1576040517fd335887400000000000000000000000000000000000000000000000000000000815260040160405180910390fd5b6125eb8282612d33565b612614833083612603600e546001600160a01b031690565b6001600160a01b0316929190612ec3565b80826001600160a01b0316846001600160a01b03167f5548c837ab068cf56a2c2479df0882a4922fd203edb7517321831d95078c5f6260405160405180910390a4505050565b612662612f02565b6001600160a01b0382166126a2576040517f7280679300000000000000000000000000000000000000000000000000000000815260040160405180910390fd5b600980547fffffffffffffffffffffff0000000000000000000000000000000000000000ff166101006001600160a01b038516021790556126e281612f69565b612718576040517f7511254100000000000000000000000000000000000000000000000000000000815260040160405180910390fd5b8051600a9081556020820151600b556040820151829190600c9061273c9082613d02565b50606082015160038201906127519082613d02565b50505060608101516040516127669190613dc2565b604080519182900382208351602080860151918552840152916001600160a01b038516917feb175f148a71d29a5f7bf5439182fcd81e6ea9cfc8a11b54ab0f705fa98fa8ca910160405180910390a35050565b606060006127c683612fbb565b600101905060008167ffffffffffffffff8111156127e6576127e66134c5565b6040519080825280601f01601f191660200182016040528015612810576020820181803683370190505b5090508181016020015b600019017f3031323334353637383961626364656600000000000000000000000000000000600a86061a8153600a850494508461281a57509392505050565b6002541561286657600080fd5b60056128728482613d02565b50600661287f8382613d02565b506007805460ff191660ff83161790556128a76b033b2e3c9fd0803ce8000000600019613ca6565b6128b390600019613bf2565b6000805260036020527f3617319a054d772f909f7c479a2cebe5066e836a939412e32403c99029b92eff55505050565b6128fa8282612226600e546001600160a01b031690565b60405181906001600160a01b038416907fe88292c5f714100904272672c0420345093bd0e3c5555d31f3e4e2cf5f6ca8a190600090a35050565b600081600001518260400151836060015160405160200161295793929190613dde565b604051602081830303815290604052805190602001209050919050565b6000600154826107059190613acd565b6040517f9e9785750000000000000000000000000000000000000000000000000000000081526000903090639e978575906129c390859060040161337b565b602060405180830381865afa9250505080156129fc575060408051601f3d908101601f191682019092526129f9918101906138a6565b60015b612a0857506000919050565b6040517f9e9785750000000000000000000000000000000000000000000000000000000081523090639e97857590612a4490869060040161337b565b602060405180830381865afa158015612a61573d6000803e3d6000fd5b505050506040513d601f19601f82011682018060405250810190612a8591906138a6565b9392505050565b919050565b600080805260036020527f3617319a054d772f909f7c479a2cebe5066e836a939412e32403c99029b92eff54612ad56b033b2e3c9fd0803ce8000000600019613ca6565b612ae190600019613bf2565b6118d89190613bf2565b60006107058261309d565b6000826001600160a01b0381161580612b1757506001600160a01b03811630145b15612b3557604051634e46966960e11b815260040160405180910390fd5b8280600003612b70576040517f2c5211c600000000000000000000000000000000000000000000000000000000815260040160405180910390fd5b6000612b7b85612310565b9050612b8561227c565b612b8e81612974565b9450612b9d86600087846123d6565b8460026000828254612baf9190613bf2565b9091555050600254612bbf612a91565b612bc99190613acd565b600155600080549080612bdb83613c75565b91905055506000547f11c6bf55864ff83827df712625d7a80e5583eef0264921025e7cd22003a21511600254604051612c1691815260200190565b60405180910390a25092949350505050565b6040516001600160a01b0383811660248301526044820183905261178891859182169063a9059cbb906064015b604051602081830303815290604052915060e01b6020820180517bffffffffffffffffffffffffffffffffffffffffffffffffffffffff8381831617835250505050613134565b6000612cb0600e546001600160a01b031690565b6040517f70a082310000000000000000000000000000000000000000000000000000000081523060048201526001600160a01b0391909116906370a0823190602401602060405180830381865afa158015612d0f573d6000803e3d6000fd5b505050506040513d601f19601f820116820180604052508101906118d8919061387d565b816001600160a01b0381161580612d5257506001600160a01b03811630145b15612d7057604051634e46966960e11b815260040160405180910390fd5b8180600003612dab576040517f2c5211c600000000000000000000000000000000000000000000000000000000815260040160405180910390fd5b612db361227c565b6b033b2e3c9fd0803ce800000083600254612dce91906139be565b1115612e06576040517fd05cb60900000000000000000000000000000000000000000000000000000000815260040160405180910390fd5b6000612e1184612310565b9050600081612e1e612a91565b612e2891906139be565b90508460026000828254612e3c91906139be565b9091555050600154600003612e5c57600254612e589082613acd565b6001555b600080549080612e6b83613c75565b91905055506000547f11c6bf55864ff83827df712625d7a80e5583eef0264921025e7cd22003a21511600254604051612ea691815260200190565b60405180910390a2612ebb60008787856123d6565b505050505050565b6040516001600160a01b038481166024830152838116604483015260648201839052612efc9186918216906323b872dd90608401612c55565b50505050565b7ff0c57e16840df040f15088dc2f81fe391c3923bec73e23a9662efc9c229c6a005468010000000000000000900460ff16611cfa576040517fd7e6bcf800000000000000000000000000000000000000000000000000000000815260040160405180910390fd5b6000816040015151600003612f8057506000919050565b816060015151600003612f9557506000919050565b8151158015612fa657506020820151155b15612fb357506000919050565b506001919050565b6000807a184f03e93ff9f4daa797ed6e38ed64bf6a1f0100000000000000008310613004577a184f03e93ff9f4daa797ed6e38ed64bf6a1f010000000000000000830492506040015b6d04ee2d6d415b85acef81000000008310613030576d04ee2d6d415b85acef8100000000830492506020015b662386f26fc10000831061304e57662386f26fc10000830492506010015b6305f5e1008310613066576305f5e100830492506008015b612710831061307a57612710830492506004015b6064831061308c576064830492506002015b600a83106107055760010192915050565b60007fffffffff0000000000000000000000000000000000000000000000000000000082167f247a8fdc00000000000000000000000000000000000000000000000000000000148061070557507f01ffc9a7000000000000000000000000000000000000000000000000000000007fffffffff00000000000000000000000000000000000000000000000000000000831614610705565b60006131496001600160a01b038416836131b0565b9050805160001415801561316e57508080602001905181019061316c91906138a6565b155b15611788576040517f5274afe70000000000000000000000000000000000000000000000000000000081526001600160a01b0384166004820152602401610b10565b6060612a858383600084600080856001600160a01b031684866040516131d69190613dc2565b60006040518083038185875af1925050503d8060008114613213576040519150601f19603f3d011682016040523d82523d6000602084013e613218565b606091505b5091509150613228868383613232565b9695505050505050565b60608261324757613242826132a7565b612a85565b815115801561325e57506001600160a01b0384163b155b156132a0576040517f9996b3150000000000000000000000000000000000000000000000000000000081526001600160a01b0385166004820152602401610b10565b5080612a85565b8051156132b75780518082602001fd5b6040517f1425ea4200000000000000000000000000000000000000000000000000000000815260040160405180910390fd5b6000602082840312156132fb57600080fd5b81357fffffffff0000000000000000000000000000000000000000000000000000000081168114612a8557600080fd5b60005b8381101561334657818101518382015260200161332e565b50506000910152565b6000815180845261336781602086016020860161332b565b601f01601f19169290920160200192915050565b602081526000612a85602083018461334f565b6001600160a01b0381168114610e8257600080fd5b600080604083850312156133b657600080fd5b82356133c18161338e565b946020939093013593505050565b6000602082840312156133e157600080fd5b8135612a858161338e565b60008060006060848603121561340157600080fd5b833561340c8161338e565b9250602084013561341c8161338e565b929592945050506040919091013590565b60008060006040848603121561344257600080fd5b83359250602084013567ffffffffffffffff8082111561346157600080fd5b818601915086601f83011261347557600080fd5b81358181111561348457600080fd5b8760208260051b850101111561349957600080fd5b6020830194508093505050509250925092565b6000602082840312156134be57600080fd5b5035919050565b7f4e487b7100000000000000000000000000000000000000000000000000000000600052604160045260246000fd5b6040516080810167ffffffffffffffff81118282101715613517576135176134c5565b60405290565b604051601f8201601f1916810167ffffffffffffffff81118282101715613546576135466134c5565b604052919050565b600067ffffffffffffffff821115613568576135686134c5565b50601f01601f191660200190565b600082601f83011261358757600080fd5b813561359a6135958261354e565b61351d565b8181528460208386010111156135af57600080fd5b816020850160208301376000918101602001919091529392505050565b6000806000606084860312156135e157600080fd5b83356135ec8161338e565b9250602084013567ffffffffffffffff8082111561360957600080fd5b908501906080828803121561361d57600080fd5b6136256134f4565b823581526020830135602082015260408301358281111561364557600080fd5b61365189828601613576565b60408301525060608301358281111561366957600080fd5b61367589828601613576565b6060830152509350604086013591508082111561369157600080fd5b5061369e86828701613576565b9150509250925092565b600080604083850312156136bb57600080fd5b8235915060208301356136cd8161338e565b809150509250929050565b600080604083850312156136eb57600080fd5b82356136f68161338e565b915060208301356136cd8161338e565b6000806040838503121561371957600080fd5b82356137248161338e565b9150602083013567ffffffffffffffff81111561374057600080fd5b61374c85828601613576565b9150509250929050565b60006020828403121561376857600080fd5b813567ffffffffffffffff81111561377f57600080fd5b61378b84828501613576565b949350505050565b60ff81168114610e8257600080fd5b600080600080600080600060e0888a0312156137bd57600080fd5b87356137c88161338e565b965060208801356137d88161338e565b9550604088013594506060880135935060808801356137f681613793565b9699959850939692959460a0840135945060c09093013592915050565b600181811c9082168061382757607f821691505b602082108103611b68577f4e487b7100000000000000000000000000000000000000000000000000000000600052602260045260246000fd5b60006020828403121561387257600080fd5b8151612a858161338e565b60006020828403121561388f57600080fd5b5051919050565b80518015158114612a8c57600080fd5b6000602082840312156138b857600080fd5b612a8582613896565b83815260406020808301829052908201839052600090849060608401835b8681101561390d5783356138f28161338e565b6001600160a01b0316825292820192908201906001016138df565b50979650505050505050565b600080835461392781613813565b6001828116801561393f576001811461395457613983565b60ff1984168752821515830287019450613983565b8760005260208060002060005b8581101561397a5781548a820152908401908201613961565b50505082870194505b50929695505050505050565b7f4e487b7100000000000000000000000000000000000000000000000000000000600052601160045260246000fd5b808201808211156107055761070561398f565b7f496e7665727465722046756e64696e6720546f6b656e202d204f72636865737481527f7261746f725f7631202300000000000000000000000000000000000000000000602082015260008251613a2f81602a85016020870161332b565b91909101602a0192915050565b7f4946542d00000000000000000000000000000000000000000000000000000000815260008251613a7481600485016020870161332b565b9190910160040192915050565b600060208284031215613a9357600080fd5b8151612a8581613793565b7f4e487b7100000000000000000000000000000000000000000000000000000000600052601260045260246000fd5b600082613adc57613adc613a9e565b500490565b6000806040808486031215613af557600080fd5b613afe84613896565b925060208085015167ffffffffffffffff80821115613b1c57600080fd5b818701915087601f830112613b3057600080fd5b815181811115613b4257613b426134c5565b8060051b613b5185820161351d565b918252838101850191858101908b841115613b6b57600080fd5b86860192505b83831015613be057825185811115613b895760008081fd5b8601603f81018d13613b9b5760008081fd5b87810151613bab6135958261354e565b8181528e8b838501011115613bc05760008081fd5b613bcf828b83018d860161332b565b845250509186019190860190613b71565b80985050505050505050509250929050565b818103818111156107055761070561398f565b60008085851115613c1557600080fd5b83861115613c2257600080fd5b5050820193919092039150565b7fffffffffffffffffffffffffffffffffffffffff0000000000000000000000008135818116916014851015611a365760149490940360031b84901b1690921692915050565b60006000198203613c8857613c8861398f565b5060010190565b80820281158282048414176107055761070561398f565b600082613cb557613cb5613a9e565b500690565b601f821115611788576000816000526020600020601f850160051c81016020861015613ce35750805b601f850160051c820191505b81811015612ebb57828155600101613cef565b815167ffffffffffffffff811115613d1c57613d1c6134c5565b613d3081613d2a8454613813565b84613cba565b602080601f831160018114613d655760008415613d4d5750858301515b600019600386901b1c1916600185901b178555612ebb565b600085815260208120601f198616915b82811015613d9457888601518255948401946001909101908401613d75565b5085821015613db25787850151600019600388901b60f8161c191681555b5050505050600190811b01905550565b60008251613dd481846020870161332b565b9190910192915050565b83815260008351613df681602085016020880161332b565b80830190508351613e0e81602084016020880161332b565b016020019594505050505056fea2646970667358221220f1e02aeaa7fcc00fc414babec3226a290c1c04c7f9c747ef9181b324a756180564736f6c63430008170033","linkReferences":{}},"methodIdentifiers":{"DOMAIN_SEPARATOR()":"3644e515","EIP712_DOMAIN()":"e1b11da4","EIP712_REVISION()":"78160376","PERMIT_TYPEHASH()":"30adf81f","allowance(address,address)":"dd62ed3e","approve(address,uint256)":"095ea7b3","balanceOf(address)":"70a08231","decimals()":"313ce567","decoder(bytes)":"9e978575","decreaseAllowance(address,uint256)":"a457c2d7","deposit(uint256)":"b6b55f25","depositFor(address,uint256)":"2f4f21e2","grantModuleRole(bytes32,address)":"6c67e807","grantModuleRoleBatched(bytes32,address[])":"272bbd44","identifier()":"7998a1c4","increaseAllowance(address,uint256)":"39509351","init(address,(uint256,uint256,string,string),bytes)":"42dfe958","init2(address,bytes)":"9bfdf766","isTrustedForwarder(address)":"572b6c05","name()":"06fdde03","nonces(address)":"7ecebe00","orchestrator()":"b74795d9","permit(address,address,uint256,uint256,uint8,bytes32,bytes32)":"d505accf","rebase()":"af14052c","revokeModuleRole(bytes32,address)":"bcb61920","revokeModuleRoleBatched(bytes32,address[])":"24e30270","scaledBalanceOf(address)":"1da24f3e","scaledTotalSupply()":"b1bf962d","supportsInterface(bytes4)":"01ffc9a7","symbol()":"95d89b41","title()":"4a79d50c","token()":"fc0c546a","totalSupply()":"18160ddd","transfer(address,uint256)":"a9059cbb","transferAll(address)":"a3a7e7f3","transferAllFrom(address,address)":"84d4b410","transferFrom(address,address,uint256)":"23b872dd","transferOrchestratorToken(address,uint256)":"759cc4b5","trustedForwarder()":"7da0a877","url()":"5600f04f","version()":"54fd4d50","withdraw(uint256)":"2e1a7d4d","withdrawTo(address,uint256)":"205c2878"},"id":134}