{
    "abi": [
        {
            "type": "constructor",
            "inputs": [
                {
                    "name": "target_",
                    "type": "address",
                    "internalType": "address"
                },
                {
                    "name": "moduleFactory_",
                    "type": "address",
                    "internalType": "address"
                },
                {
                    "name": "_trustedForwarder",
                    "type": "address",
                    "internalType": "address"
                }
            ],
            "stateMutability": "nonpayable"
        },
        {
            "type": "function",
            "name": "createOrchestrator",
            "inputs": [
                {
                    "name": "orchestratorConfig",
                    "type": "tuple",
                    "internalType": "struct IOrchestratorFactory.OrchestratorConfig",
                    "components": [
                        {
                            "name": "owner",
                            "type": "address",
                            "internalType": "address"
                        },
                        {
                            "name": "token",
                            "type": "address",
                            "internalType": "contract IERC20"
                        }
                    ]
                },
                {
                    "name": "fundingManagerConfig",
                    "type": "tuple",
                    "internalType": "struct IOrchestratorFactory.ModuleConfig",
                    "components": [
                        {
                            "name": "metadata",
                            "type": "tuple",
                            "internalType": "struct IModule.Metadata",
                            "components": [
                                {
                                    "name": "majorVersion",
                                    "type": "uint256",
                                    "internalType": "uint256"
                                },
                                {
                                    "name": "minorVersion",
                                    "type": "uint256",
                                    "internalType": "uint256"
                                },
                                {
                                    "name": "url",
                                    "type": "string",
                                    "internalType": "string"
                                },
                                {
                                    "name": "title",
                                    "type": "string",
                                    "internalType": "string"
                                }
                            ]
                        },
                        {
                            "name": "configData",
                            "type": "bytes",
                            "internalType": "bytes"
                        },
                        {
                            "name": "dependencyData",
                            "type": "bytes",
                            "internalType": "bytes"
                        }
                    ]
                },
                {
                    "name": "authorizerConfig",
                    "type": "tuple",
                    "internalType": "struct IOrchestratorFactory.ModuleConfig",
                    "components": [
                        {
                            "name": "metadata",
                            "type": "tuple",
                            "internalType": "struct IModule.Metadata",
                            "components": [
                                {
                                    "name": "majorVersion",
                                    "type": "uint256",
                                    "internalType": "uint256"
                                },
                                {
                                    "name": "minorVersion",
                                    "type": "uint256",
                                    "internalType": "uint256"
                                },
                                {
                                    "name": "url",
                                    "type": "string",
                                    "internalType": "string"
                                },
                                {
                                    "name": "title",
                                    "type": "string",
                                    "internalType": "string"
                                }
                            ]
                        },
                        {
                            "name": "configData",
                            "type": "bytes",
                            "internalType": "bytes"
                        },
                        {
                            "name": "dependencyData",
                            "type": "bytes",
                            "internalType": "bytes"
                        }
                    ]
                },
                {
                    "name": "paymentProcessorConfig",
                    "type": "tuple",
                    "internalType": "struct IOrchestratorFactory.ModuleConfig",
                    "components": [
                        {
                            "name": "metadata",
                            "type": "tuple",
                            "internalType": "struct IModule.Metadata",
                            "components": [
                                {
                                    "name": "majorVersion",
                                    "type": "uint256",
                                    "internalType": "uint256"
                                },
                                {
                                    "name": "minorVersion",
                                    "type": "uint256",
                                    "internalType": "uint256"
                                },
                                {
                                    "name": "url",
                                    "type": "string",
                                    "internalType": "string"
                                },
                                {
                                    "name": "title",
                                    "type": "string",
                                    "internalType": "string"
                                }
                            ]
                        },
                        {
                            "name": "configData",
                            "type": "bytes",
                            "internalType": "bytes"
                        },
                        {
                            "name": "dependencyData",
                            "type": "bytes",
                            "internalType": "bytes"
                        }
                    ]
                },
                {
                    "name": "moduleConfigs",
                    "type": "tuple[]",
                    "internalType": "struct IOrchestratorFactory.ModuleConfig[]",
                    "components": [
                        {
                            "name": "metadata",
                            "type": "tuple",
                            "internalType": "struct IModule.Metadata",
                            "components": [
                                {
                                    "name": "majorVersion",
                                    "type": "uint256",
                                    "internalType": "uint256"
                                },
                                {
                                    "name": "minorVersion",
                                    "type": "uint256",
                                    "internalType": "uint256"
                                },
                                {
                                    "name": "url",
                                    "type": "string",
                                    "internalType": "string"
                                },
                                {
                                    "name": "title",
                                    "type": "string",
                                    "internalType": "string"
                                }
                            ]
                        },
                        {
                            "name": "configData",
                            "type": "bytes",
                            "internalType": "bytes"
                        },
                        {
                            "name": "dependencyData",
                            "type": "bytes",
                            "internalType": "bytes"
                        }
                    ]
                }
            ],
            "outputs": [
                {
                    "name": "",
                    "type": "address",
                    "internalType": "contract IOrchestrator"
                }
            ],
            "stateMutability": "nonpayable"
        },
        {
            "type": "function",
            "name": "decoder",
            "inputs": [
                {
                    "name": "data",
                    "type": "bytes",
                    "internalType": "bytes"
                }
            ],
            "outputs": [
                {
                    "name": "requirement",
                    "type": "bool",
                    "internalType": "bool"
                }
            ],
            "stateMutability": "pure"
        },
        {
            "type": "function",
            "name": "getOrchestratorByID",
            "inputs": [
                {
                    "name": "id",
                    "type": "uint256",
                    "internalType": "uint256"
                }
            ],
            "outputs": [
                {
                    "name": "",
                    "type": "address",
                    "internalType": "address"
                }
            ],
            "stateMutability": "view"
        },
        {
            "type": "function",
            "name": "getOrchestratorIDCounter",
            "inputs": [],
            "outputs": [
                {
                    "name": "",
                    "type": "uint256",
                    "internalType": "uint256"
                }
            ],
            "stateMutability": "view"
        },
        {
            "type": "function",
            "name": "isTrustedForwarder",
            "inputs": [
                {
                    "name": "forwarder",
                    "type": "address",
                    "internalType": "address"
                }
            ],
            "outputs": [
                {
                    "name": "",
                    "type": "bool",
                    "internalType": "bool"
                }
            ],
            "stateMutability": "view"
        },
        {
            "type": "function",
            "name": "moduleFactory",
            "inputs": [],
            "outputs": [
                {
                    "name": "",
                    "type": "address",
                    "internalType": "address"
                }
            ],
            "stateMutability": "view"
        },
        {
            "type": "function",
            "name": "supportsInterface",
            "inputs": [
                {
                    "name": "interfaceId",
                    "type": "bytes4",
                    "internalType": "bytes4"
                }
            ],
            "outputs": [
                {
                    "name": "",
                    "type": "bool",
                    "internalType": "bool"
                }
            ],
            "stateMutability": "view"
        },
        {
            "type": "function",
            "name": "target",
            "inputs": [],
            "outputs": [
                {
                    "name": "",
                    "type": "address",
                    "internalType": "address"
                }
            ],
            "stateMutability": "view"
        },
        {
            "type": "function",
            "name": "trustedForwarder",
            "inputs": [],
            "outputs": [
                {
                    "name": "",
                    "type": "address",
                    "internalType": "address"
                }
            ],
            "stateMutability": "view"
        },
        {
            "type": "event",
            "name": "OrchestratorCreated",
            "inputs": [
                {
                    "name": "orchestratorId",
                    "type": "uint256",
                    "indexed": true,
                    "internalType": "uint256"
                },
                {
                    "name": "orchestratorAddress",
                    "type": "address",
                    "indexed": true,
                    "internalType": "address"
                }
            ],
            "anonymous": false
        },
        {
            "type": "error",
            "name": "ERC1167FailedCreateClone",
            "inputs": []
        },
        {
            "type": "error",
            "name": "OrchestratorFactory__InvalidId",
            "inputs": []
        },
        {
            "type": "error",
            "name": "OrchestratorFactory__ModuleDataLengthMismatch",
            "inputs": []
        },
        {
            "type": "error",
            "name": "OrchestratorFactory__OrchestratorOwnerIsInvalid",
            "inputs": []
        }
    ],
    "bytecode": {
        "object": "0x60e06040523480156200001157600080fd5b50604051620016873803806200168783398101604081905262000034916200006f565b6001600160a01b0390811660805291821660a0521660c052620000b9565b80516001600160a01b03811681146200006a57600080fd5b919050565b6000806000606084860312156200008557600080fd5b620000908462000052565b9250620000a06020850162000052565b9150620000b06040850162000052565b90509250925092565b60805160a05160c0516115746200011360003960008181610180015281816103e8015281816104ab0152818161056e01526106400152600081816101cb0152610327015260008181610118015261015701526115746000f3fe608060405234801561001057600080fd5b50600436106100a35760003560e01c80638991255b11610076578063b8ddae211161005b578063b8ddae21146101b5578063d4b83992146101c6578063d7e13594146101ed57600080fd5b80638991255b1461017b5780639e978575146101a257600080fd5b806301ffc9a7146100a85780633ea9d107146100d0578063572b6c05146101085780637da0a87714610155575b600080fd5b6100bb6100b6366004610ce0565b610200565b60405190151581526020015b60405180910390f35b6100e36100de366004610d22565b610299565b60405173ffffffffffffffffffffffffffffffffffffffff90911681526020016100c7565b6100bb610116366004610d60565b7f000000000000000000000000000000000000000000000000000000000000000073ffffffffffffffffffffffffffffffffffffffff90811691161490565b7f00000000000000000000000000000000000000000000000000000000000000006100e3565b6100e37f000000000000000000000000000000000000000000000000000000000000000081565b6100bb6101b0366004610eca565b610302565b6001546040519081526020016100c7565b6100e37f000000000000000000000000000000000000000000000000000000000000000081565b6100e36101fb3660046110b0565b61031f565b60007fffffffff0000000000000000000000000000000000000000000000000000000082167f0cbc567b00000000000000000000000000000000000000000000000000000000148061029357507f01ffc9a7000000000000000000000000000000000000000000000000000000007fffffffff000000000000000000000000000000000000000000000000000000008316145b92915050565b6000816001548111156102d8576040517f6ae20c4c00000000000000000000000000000000000000000000000000000000815260040160405180910390fd5b505060009081526020819052604090205473ffffffffffffffffffffffffffffffffffffffff1690565b60008180602001905181019061031891906111d1565b5092915050565b60008061034b7f0000000000000000000000000000000000000000000000000000000000000000610b40565b905080600080600160008154610360906112d0565b918290555081526020808201929092526040908101600090812080547fffffffffffffffffffffffff00000000000000000000000000000000000000001673ffffffffffffffffffffffffffffffffffffffff9586161790558951928a015191517f67ecfa5e00000000000000000000000000000000000000000000000000000000815290937f000000000000000000000000000000000000000000000000000000000000000016926367ecfa5e9261041e9287919060040161135b565b6020604051808303816000875af115801561043d573d6000803e3d6000fd5b505050506040513d601f19601f820116820180604052508101906104619190611401565b865160208801516040517f67ecfa5e00000000000000000000000000000000000000000000000000000000815292935060009273ffffffffffffffffffffffffffffffffffffffff7f000000000000000000000000000000000000000000000000000000000000000016926367ecfa5e926104e19288919060040161135b565b6020604051808303816000875af1158015610500573d6000803e3d6000fd5b505050506040513d601f19601f820116820180604052508101906105249190611401565b865160208801516040517f67ecfa5e00000000000000000000000000000000000000000000000000000000815292935060009273ffffffffffffffffffffffffffffffffffffffff7f000000000000000000000000000000000000000000000000000000000000000016926367ecfa5e926105a49289919060040161135b565b6020604051808303816000875af11580156105c3573d6000803e3d6000fd5b505050506040513d601f19601f820116820180604052508101906105e79190611401565b865190915060008167ffffffffffffffff81111561060757610607610d7d565b604051908082528060200260200182016040528015610630578160200160208202803683370190505b50905060005b82811015610757577f000000000000000000000000000000000000000000000000000000000000000073ffffffffffffffffffffffffffffffffffffffff166367ecfa5e8a838151811061068c5761068c61141e565b602002602001015160000151898c85815181106106ab576106ab61141e565b6020026020010151602001516040518463ffffffff1660e01b81526004016106d59392919061135b565b6020604051808303816000875af11580156106f4573d6000803e3d6000fd5b505050506040513d601f19601f820116820180604052508101906107189190611401565b82828151811061072a5761072a61141e565b73ffffffffffffffffffffffffffffffffffffffff90921660209283029190910190910152600101610636565b508b5173ffffffffffffffffffffffffffffffffffffffff166107a6576040517fd3ab9dbe00000000000000000000000000000000000000000000000000000000815260040160405180910390fd5b60015460405173ffffffffffffffffffffffffffffffffffffffff881691907f2244662809777b2119a09852cb07778be2984f50dce1dfd37ec75dd06d3844b890600090a36001546040517faa0992aa00000000000000000000000000000000000000000000000000000000815273ffffffffffffffffffffffffffffffffffffffff88169163aa0992aa91610847919085908a908a908a9060040161144d565b600060405180830381600087803b15801561086157600080fd5b505af1158015610875573d6000803e3d6000fd5b5050505060005b8281101561095b576108aa8982815181106108995761089961141e565b602002602001015160400151610bd8565b15610953578181815181106108c1576108c161141e565b602002602001015173ffffffffffffffffffffffffffffffffffffffff16639bfdf766888b84815181106108f7576108f761141e565b6020026020010151604001516040518363ffffffff1660e01b81526004016109209291906114e1565b600060405180830381600087803b15801561093a57600080fd5b505af115801561094e573d6000803e3d6000fd5b505050505b60010161087c565b506109698b60400151610bd8565b156109f8576040808c015190517f9bfdf76600000000000000000000000000000000000000000000000000000000815273ffffffffffffffffffffffffffffffffffffffff871691639bfdf766916109c5918a916004016114e1565b600060405180830381600087803b1580156109df57600080fd5b505af11580156109f3573d6000803e3d6000fd5b505050505b610a058a60400151610bd8565b15610a94576040808b015190517f9bfdf76600000000000000000000000000000000000000000000000000000000815273ffffffffffffffffffffffffffffffffffffffff861691639bfdf76691610a61918a916004016114e1565b600060405180830381600087803b158015610a7b57600080fd5b505af1158015610a8f573d6000803e3d6000fd5b505050505b610aa18960400151610bd8565b15610b30576040808a015190517f9bfdf76600000000000000000000000000000000000000000000000000000000815273ffffffffffffffffffffffffffffffffffffffff851691639bfdf76691610afd918a916004016114e1565b600060405180830381600087803b158015610b1757600080fd5b505af1158015610b2b573d6000803e3d6000fd5b505050505b50939a9950505050505050505050565b6000763d602d80600a3d3981f3363d3d373d3d3d363d730000008260601b60e81c176000526e5af43d82803e903d91602b57fd5bf38260781b17602052603760096000f0905073ffffffffffffffffffffffffffffffffffffffff8116610bd3576040517fc2f868f400000000000000000000000000000000000000000000000000000000815260040160405180910390fd5b919050565b6040517f9e9785750000000000000000000000000000000000000000000000000000000081526000903090639e97857590610c17908590600401611510565b602060405180830381865afa925050508015610c50575060408051601f3d908101601f19168201909252610c4d91810190611523565b60015b610c5c57506000919050565b6040517f9e9785750000000000000000000000000000000000000000000000000000000081523090639e97857590610c98908690600401611510565b602060405180830381865afa158015610cb5573d6000803e3d6000fd5b505050506040513d601f19601f82011682018060405250810190610cd99190611523565b9392505050565b600060208284031215610cf257600080fd5b81357fffffffff0000000000000000000000000000000000000000000000000000000081168114610cd957600080fd5b600060208284031215610d3457600080fd5b5035919050565b73ffffffffffffffffffffffffffffffffffffffff81168114610d5d57600080fd5b50565b600060208284031215610d7257600080fd5b8135610cd981610d3b565b7f4e487b7100000000000000000000000000000000000000000000000000000000600052604160045260246000fd5b6040516060810167ffffffffffffffff81118282101715610dcf57610dcf610d7d565b60405290565b6040516080810167ffffffffffffffff81118282101715610dcf57610dcf610d7d565b6040805190810167ffffffffffffffff81118282101715610dcf57610dcf610d7d565b604051601f8201601f1916810167ffffffffffffffff81118282101715610e4457610e44610d7d565b604052919050565b600067ffffffffffffffff821115610e6657610e66610d7d565b50601f01601f191660200190565b600082601f830112610e8557600080fd5b8135610e98610e9382610e4c565b610e1b565b818152846020838601011115610ead57600080fd5b816020850160208301376000918101602001919091529392505050565b600060208284031215610edc57600080fd5b813567ffffffffffffffff811115610ef357600080fd5b610eff84828501610e74565b949350505050565b600060608284031215610f1957600080fd5b610f21610dac565b9050813567ffffffffffffffff80821115610f3b57600080fd5b9083019060808286031215610f4f57600080fd5b610f57610dd5565b8235815260208301356020820152604083013582811115610f7757600080fd5b610f8387828601610e74565b604083015250606083013582811115610f9b57600080fd5b610fa787828601610e74565b60608301525083526020840135915080821115610fc357600080fd5b610fcf85838601610e74565b60208401526040840135915080821115610fe857600080fd5b50610ff584828501610e74565b60408301525092915050565b600067ffffffffffffffff82111561101b5761101b610d7d565b5060051b60200190565b600082601f83011261103657600080fd5b81356020611046610e9383611001565b82815260059290921b8401810191818101908684111561106557600080fd5b8286015b848110156110a557803567ffffffffffffffff8111156110895760008081fd5b6110978986838b0101610f07565b845250918301918301611069565b509695505050505050565b600080600080600085870360c08112156110c957600080fd5b60408112156110d757600080fd5b506110e0610df8565b86356110eb81610d3b565b815260208701356110fb81610d3b565b60208201529450604086013567ffffffffffffffff8082111561111d57600080fd5b61112989838a01610f07565b9550606088013591508082111561113f57600080fd5b61114b89838a01610f07565b9450608088013591508082111561116157600080fd5b61116d89838a01610f07565b935060a088013591508082111561118357600080fd5b5061119088828901611025565b9150509295509295909350565b80518015158114610bd357600080fd5b60005b838110156111c85781810151838201526020016111b0565b50506000910152565b60008060408084860312156111e557600080fd5b6111ee8461119d565b925060208085015167ffffffffffffffff8082111561120c57600080fd5b818701915087601f83011261122057600080fd5b815161122e610e9382611001565b81815260059190911b8301840190848101908a83111561124d57600080fd5b8585015b838110156112be578051858111156112695760008081fd5b8601603f81018d1361127b5760008081fd5b8781015161128b610e9382610e4c565b8181528e8b8385010111156112a05760008081fd5b6112af828b83018d86016111ad565b85525050918601918601611251565b50809750505050505050509250929050565b60007fffffffffffffffffffffffffffffffffffffffffffffffffffffffffffffffff8203611328577f4e487b7100000000000000000000000000000000000000000000000000000000600052601160045260246000fd5b5060010190565b600081518084526113478160208601602086016111ad565b601f01601f19169290920160200192915050565b60608152835160608201526020840151608082015260006040850151608060a084015261138b60e084018261132f565b905060608601517fffffffffffffffffffffffffffffffffffffffffffffffffffffffffffffffa08483030160c08501526113c6828261132f565b91505073ffffffffffffffffffffffffffffffffffffffff8516602084015282810360408401526113f7818561132f565b9695505050505050565b60006020828403121561141357600080fd5b8151610cd981610d3b565b7f4e487b7100000000000000000000000000000000000000000000000000000000600052603260045260246000fd5b600060a08201878352602060a0602085015281885180845260c08601915060208a01935060005b818110156114a657845173ffffffffffffffffffffffffffffffffffffffff1683529383019391830191600101611474565b505073ffffffffffffffffffffffffffffffffffffffff97881660408601529587166060850152505050921660809092019190915292915050565b73ffffffffffffffffffffffffffffffffffffffff83168152604060208201526000610eff604083018461132f565b602081526000610cd9602083018461132f565b60006020828403121561153557600080fd5b610cd98261119d56fea2646970667358221220c9037f72d69c57245f639cb86fc40c644a92158108b39fd77be2acdc4ff7bcc364736f6c63430008170033",
        "linkReferences": {}
    },
    "methodIdentifiers": {
        "createOrchestrator((address,address),((uint256,uint256,string,string),bytes,bytes),((uint256,uint256,string,string),bytes,bytes),((uint256,uint256,string,string),bytes,bytes),((uint256,uint256,string,string),bytes,bytes)[])": "d7e13594",
        "decoder(bytes)": "9e978575",
        "getOrchestratorByID(uint256)": "3ea9d107",
        "getOrchestratorIDCounter()": "b8ddae21",
        "isTrustedForwarder(address)": "572b6c05",
        "moduleFactory()": "8991255b",
        "supportsInterface(bytes4)": "01ffc9a7",
        "target()": "d4b83992",
        "trustedForwarder()": "7da0a877"
    },
    "id": 91
}