{
  "abi": [
    {
      "type": "function",
      "name": "cancelRunningPayments",
      "inputs": [
        {
          "name": "client",
          "type": "address",
          "internalType": "contract IERC20PaymentClient"
        }
      ],
      "outputs": [],
      "stateMutability": "nonpayable"
    },
    {
      "type": "function",
      "name": "decoder",
      "inputs": [
        {
          "name": "data",
          "type": "bytes",
          "internalType": "bytes"
        }
      ],
      "outputs": [
        {
          "name": "requirement",
          "type": "bool",
          "internalType": "bool"
        }
      ],
      "stateMutability": "pure"
    },
    {
      "type": "function",
      "name": "grantModuleRole",
      "inputs": [
        {
          "name": "role",
          "type": "bytes32",
          "internalType": "bytes32"
        },
        {
          "name": "addr",
          "type": "address",
          "internalType": "address"
        }
      ],
      "outputs": [],
      "stateMutability": "nonpayable"
    },
    {
      "type": "function",
      "name": "identifier",
      "inputs": [],
      "outputs": [
        {
          "name": "",
          "type": "bytes32",
          "internalType": "bytes32"
        }
      ],
      "stateMutability": "view"
    },
    {
      "type": "function",
      "name": "init",
      "inputs": [
        {
          "name": "orchestrator_",
          "type": "address",
          "internalType": "contract IOrchestrator"
        },
        {
          "name": "metadata",
          "type": "tuple",
          "internalType": "struct IModule.Metadata",
          "components": [
            {
              "name": "majorVersion",
              "type": "uint256",
              "internalType": "uint256"
            },
            {
              "name": "minorVersion",
              "type": "uint256",
              "internalType": "uint256"
            },
            {
              "name": "url",
              "type": "string",
              "internalType": "string"
            },
            {
              "name": "title",
              "type": "string",
              "internalType": "string"
            }
          ]
        },
        {
          "name": "",
          "type": "bytes",
          "internalType": "bytes"
        }
      ],
      "outputs": [],
      "stateMutability": "nonpayable"
    },
    {
      "type": "function",
      "name": "init2",
      "inputs": [
        {
          "name": "orchestrator_",
          "type": "address",
          "internalType": "contract IOrchestrator"
        },
        {
          "name": "dependencyData",
          "type": "bytes",
          "internalType": "bytes"
        }
      ],
      "outputs": [],
      "stateMutability": "nonpayable"
    },
    {
      "type": "function",
      "name": "isTrustedForwarder",
      "inputs": [
        {
          "name": "forwarder",
          "type": "address",
          "internalType": "address"
        }
      ],
      "outputs": [
        {
          "name": "",
          "type": "bool",
          "internalType": "bool"
        }
      ],
      "stateMutability": "view"
    },
    {
      "type": "function",
      "name": "orchestrator",
      "inputs": [],
      "outputs": [
        {
          "name": "",
          "type": "address",
          "internalType": "contract IOrchestrator"
        }
      ],
      "stateMutability": "view"
    },
    {
      "type": "function",
      "name": "processPayments",
      "inputs": [
        {
          "name": "client",
          "type": "address",
          "internalType": "contract IERC20PaymentClient"
        }
      ],
      "outputs": [],
      "stateMutability": "nonpayable"
    },
    {
      "type": "function",
      "name": "revokeModuleRole",
      "inputs": [
        {
          "name": "role",
          "type": "bytes32",
          "internalType": "bytes32"
        },
        {
          "name": "addr",
          "type": "address",
          "internalType": "address"
        }
      ],
      "outputs": [],
      "stateMutability": "nonpayable"
    },
    {
      "type": "function",
      "name": "supportsInterface",
      "inputs": [
        {
          "name": "interfaceId",
          "type": "bytes4",
          "internalType": "bytes4"
        }
      ],
      "outputs": [
        {
          "name": "",
          "type": "bool",
          "internalType": "bool"
        }
      ],
      "stateMutability": "view"
    },
    {
      "type": "function",
      "name": "title",
      "inputs": [],
      "outputs": [
        {
          "name": "",
          "type": "string",
          "internalType": "string"
        }
      ],
      "stateMutability": "view"
    },
    {
      "type": "function",
      "name": "token",
      "inputs": [],
      "outputs": [
        {
          "name": "",
          "type": "address",
          "internalType": "contract IERC20"
        }
      ],
      "stateMutability": "view"
    },
    {
      "type": "function",
      "name": "url",
      "inputs": [],
      "outputs": [
        {
          "name": "",
          "type": "string",
          "internalType": "string"
        }
      ],
      "stateMutability": "view"
    },
    {
      "type": "function",
      "name": "version",
      "inputs": [],
      "outputs": [
        {
          "name": "",
          "type": "uint256",
          "internalType": "uint256"
        },
        {
          "name": "",
          "type": "uint256",
          "internalType": "uint256"
        }
      ],
      "stateMutability": "view"
    },
    {
      "type": "event",
      "name": "Initialized",
      "inputs": [
        {
          "name": "version",
          "type": "uint64",
          "indexed": false,
          "internalType": "uint64"
        }
      ],
      "anonymous": false
    },
    {
      "type": "event",
      "name": "ModuleInitialized",
      "inputs": [
        {
          "name": "parentOrchestrator",
          "type": "address",
          "indexed": true,
          "internalType": "address"
        },
        {
          "name": "moduleTitle",
          "type": "string",
          "indexed": true,
          "internalType": "string"
        },
        {
          "name": "majorVersion",
          "type": "uint256",
          "indexed": false,
          "internalType": "uint256"
        },
        {
          "name": "minorVersion",
          "type": "uint256",
          "indexed": false,
          "internalType": "uint256"
        }
      ],
      "anonymous": false
    },
    {
      "type": "event",
      "name": "PaymentOrderProcessed",
      "inputs": [
        {
          "name": "paymentClient",
          "type": "address",
          "indexed": true,
          "internalType": "address"
        },
        {
          "name": "recipient",
          "type": "address",
          "indexed": true,
          "internalType": "address"
        },
        {
          "name": "amount",
          "type": "uint256",
          "indexed": false,
          "internalType": "uint256"
        },
        {
          "name": "createdAt",
          "type": "uint256",
          "indexed": false,
          "internalType": "uint256"
        },
        {
          "name": "dueTo",
          "type": "uint256",
          "indexed": false,
          "internalType": "uint256"
        }
      ],
      "anonymous": false
    },
    {
      "type": "event",
      "name": "TokensReleased",
      "inputs": [
        {
          "name": "recipient",
          "type": "address",
          "indexed": true,
          "internalType": "address"
        },
        {
          "name": "token",
          "type": "address",
          "indexed": true,
          "internalType": "address"
        },
        {
          "name": "amount",
          "type": "uint256",
          "indexed": false,
          "internalType": "uint256"
        }
      ],
      "anonymous": false
    },
    {
      "type": "error",
      "name": "AddressEmptyCode",
      "inputs": [
        {
          "name": "target",
          "type": "address",
          "internalType": "address"
        }
      ]
    },
    {
      "type": "error",
      "name": "AddressInsufficientBalance",
      "inputs": [
        {
          "name": "account",
          "type": "address",
          "internalType": "address"
        }
      ]
    },
    {
      "type": "error",
      "name": "FailedInnerCall",
      "inputs": []
    },
    {
      "type": "error",
      "name": "InvalidInitialization",
      "inputs": []
    },
    {
      "type": "error",
      "name": "Module_OrchestratorCallbackFailed",
      "inputs": [
        {
          "name": "funcSig",
          "type": "string",
          "internalType": "string"
        }
      ]
    },
    {
      "type": "error",
      "name": "Module__CallerNotAuthorized",
      "inputs": [
        {
          "name": "role",
          "type": "bytes32",
          "internalType": "bytes32"
        },
        {
          "name": "caller",
          "type": "address",
          "internalType": "address"
        }
      ]
    },
    {
      "type": "error",
      "name": "Module__CannotCallInit2Again",
      "inputs": []
    },
    {
      "type": "error",
      "name": "Module__InvalidMetadata",
      "inputs": []
    },
    {
      "type": "error",
      "name": "Module__InvalidOrchestratorAddress",
      "inputs": []
    },
    {
      "type": "error",
      "name": "Module__NoDependencyOrMalformedDependencyData",
      "inputs": []
    },
    {
      "type": "error",
      "name": "Module__OnlyCallableByOrchestrator",
      "inputs": []
    },
    {
      "type": "error",
      "name": "Module__PaymentManager__CannotCallOnOtherClientsOrders",
      "inputs": []
    },
    {
      "type": "error",
      "name": "Module__PaymentManager__OnlyCallableByModule",
      "inputs": []
    },
    {
      "type": "error",
      "name": "NotInitializing",
      "inputs": []
    },
    {
      "type": "error",
      "name": "SafeERC20FailedOperation",
      "inputs": [
        {
          "name": "token",
          "type": "address",
          "internalType": "address"
        }
      ]
    }
  ],
  "bytecode": {
    "object": "0x608060405234801561001057600080fd5b5061001961001e565b6100d0565b7ff0c57e16840df040f15088dc2f81fe391c3923bec73e23a9662efc9c229c6a00805468010000000000000000900460ff161561006e5760405163f92ee8a960e01b815260040160405180910390fd5b80546001600160401b03908116146100cd5780546001600160401b0319166001600160401b0390811782556040519081527fc7f505b2f371ae2175ee4913f4499e1f2633a7b5936321eed1cdaeb6115181d29060200160405180910390a15b50565b61214180620000e06000396000f3fe608060405234801561001057600080fd5b50600436106100f55760003560e01c806373d7764e11610097578063b74795d911610066578063b74795d9146101e4578063bcb619201461020e578063e151fc6114610221578063fc0c546a1461023457600080fd5b806373d7764e146101955780637998a1c4146101a85780639bfdf766146101be5780639e978575146101d157600080fd5b806354fd4d50116100d357806354fd4d501461014c5780635600f04f14610167578063572b6c051461016f5780636c67e8071461018257600080fd5b806301ffc9a7146100fa57806342dfe958146101225780634a79d50c14610137575b600080fd5b61010d61010836600461190e565b61023c565b60405190151581526020015b60405180910390f35b610135610130366004611a6c565b610298565b005b61013f61041b565b6040516101199190611b98565b60015460025460408051928352602083019190915201610119565b61013f6104b0565b61010d61017d366004611bab565b6104c2565b610135610190366004611bc8565b610550565b6101356101a3366004611bab565b610823565b6101b0610950565b604051908152602001610119565b6101356101cc366004611bf8565b610aa0565b61010d6101df366004611c48565b610b4d565b60005461010090046001600160a01b03165b6040516001600160a01b039091168152602001610119565b61013561021c366004611bc8565b610b6a565b61013561022f366004611bab565b610dbf565b6101f6611132565b60007fffffffff0000000000000000000000000000000000000000000000000000000082167f6e8ade4500000000000000000000000000000000000000000000000000000000148061029257506102928261120b565b92915050565b7ff0c57e16840df040f15088dc2f81fe391c3923bec73e23a9662efc9c229c6a00805468010000000000000000810460ff16159067ffffffffffffffff166000811580156102e35750825b905060008267ffffffffffffffff1660011480156103005750303b155b90508115801561030e575080155b15610345576040517ff92ee8a900000000000000000000000000000000000000000000000000000000815260040160405180910390fd5b84547fffffffffffffffffffffffffffffffffffffffffffffffff000000000000000016600117855583156103a65784547fffffffffffffffffffffffffffffffffffffffffffffff00ffffffffffffffff16680100000000000000001785555b6103b088886112a2565b83156104115784547fffffffffffffffffffffffffffffffffffffffffffffff00ffffffffffffffff168555604051600181527fc7f505b2f371ae2175ee4913f4499e1f2633a7b5936321eed1cdaeb6115181d29060200160405180910390a15b5050505050505050565b60606001600301805461042d90611c85565b80601f016020809104026020016040519081016040528092919081815260200182805461045990611c85565b80156104a65780601f1061047b576101008083540402835291602001916104a6565b820191906000526020600020905b81548152906001019060200180831161048957829003601f168201915b5050505050905090565b60606001600201805461042d90611c85565b600080546040517f572b6c050000000000000000000000000000000000000000000000000000000081526001600160a01b0384811660048301526101009092049091169063572b6c0590602401602060405180830381865afa15801561052c573d6000803e3d6000fd5b505050506040513d601f19601f820116820180604052508101906102929190611ce8565b60008060019054906101000a90046001600160a01b03166001600160a01b031663d09edf316040518163ffffffff1660e01b8152600401602060405180830381865afa1580156105a4573d6000803e3d6000fd5b505050506040513d601f19601f820116820180604052508101906105c89190611d03565b90506000816001600160a01b03166355ff58d46040518163ffffffff1660e01b8152600401602060405180830381865afa15801561060a573d6000803e3d6000fd5b505050506040513d601f19601f8201168201806040525081019061062e9190611d20565b9050816001600160a01b03166391d1485482610648611401565b6040517fffffffff0000000000000000000000000000000000000000000000000000000060e085901b16815260048101929092526001600160a01b03166024820152604401602060405180830381865afa1580156106aa573d6000803e3d6000fd5b505050506040513d601f19601f820116820180604052508101906106ce9190611ce8565b61072457806106db611401565b6040517f42abbb7700000000000000000000000000000000000000000000000000000000815260048101929092526001600160a01b031660248201526044015b60405180910390fd5b60008060019054906101000a90046001600160a01b03166001600160a01b031663d09edf316040518163ffffffff1660e01b8152600401602060405180830381865afa158015610778573d6000803e3d6000fd5b505050506040513d601f19601f8201168201806040525081019061079c9190611d03565b6040517fe1788154000000000000000000000000000000000000000000000000000000008152600481018790526001600160a01b0386811660248301529192509082169063e1788154906044015b600060405180830381600087803b15801561080457600080fd5b505af1158015610818573d6000803e3d6000fd5b505050505050505050565b60005461010090046001600160a01b03166342f6e389610841611401565b6040517fffffffff0000000000000000000000000000000000000000000000000000000060e084901b1681526001600160a01b0390911660048201526024016020604051808303816000875af115801561089f573d6000803e3d6000fd5b505050506040513d601f19601f820116820180604052508101906108c39190611ce8565b6108f9576040517f7dac7c9f00000000000000000000000000000000000000000000000000000000815260040160405180910390fd5b80806001600160a01b031661090c611401565b6001600160a01b03161461094c576040517f3e3fdec600000000000000000000000000000000000000000000000000000000815260040160405180910390fd5b5050565b60408051608081018252600180548252600254602083015260038054600094610a9b9493929084019161098290611c85565b80601f01602080910402602001604051908101604052809291908181526020018280546109ae90611c85565b80156109fb5780601f106109d0576101008083540402835291602001916109fb565b820191906000526020600020905b8154815290600101906020018083116109de57829003601f168201915b50505050508152602001600382018054610a1490611c85565b80601f0160208091040260200160405190810160405280929190818152602001828054610a4090611c85565b8015610a8d5780601f10610a6257610100808354040283529160200191610a8d565b820191906000526020600020905b815481529060010190602001808311610a7057829003601f168201915b5050505050815250506114c0565b905090565b60005460ff1615610add576040517f904875a100000000000000000000000000000000000000000000000000000000815260040160405180910390fd5b600080547fffffffffffffffffffffffffffffffffffffffffffffffffffffffffffffff0016600117905580610b1281611500565b610b48576040517feef043ae00000000000000000000000000000000000000000000000000000000815260040160405180910390fd5b505050565b600081806020019051810190610b639190611d5d565b5092915050565b60008060019054906101000a90046001600160a01b03166001600160a01b031663d09edf316040518163ffffffff1660e01b8152600401602060405180830381865afa158015610bbe573d6000803e3d6000fd5b505050506040513d601f19601f82011682018060405250810190610be29190611d03565b90506000816001600160a01b03166355ff58d46040518163ffffffff1660e01b8152600401602060405180830381865afa158015610c24573d6000803e3d6000fd5b505050506040513d601f19601f82011682018060405250810190610c489190611d20565b9050816001600160a01b03166391d1485482610c62611401565b6040517fffffffff0000000000000000000000000000000000000000000000000000000060e085901b16815260048101929092526001600160a01b03166024820152604401602060405180830381865afa158015610cc4573d6000803e3d6000fd5b505050506040513d601f19601f82011682018060405250810190610ce89190611ce8565b610cf557806106db611401565b60008060019054906101000a90046001600160a01b03166001600160a01b031663d09edf316040518163ffffffff1660e01b8152600401602060405180830381865afa158015610d49573d6000803e3d6000fd5b505050506040513d601f19601f82011682018060405250810190610d6d9190611d03565b6040517fba66f9fc000000000000000000000000000000000000000000000000000000008152600481018790526001600160a01b0386811660248301529192509082169063ba66f9fc906044016107ea565b60005461010090046001600160a01b03166342f6e389610ddd611401565b6040517fffffffff0000000000000000000000000000000000000000000000000000000060e084901b1681526001600160a01b0390911660048201526024016020604051808303816000875af1158015610e3b573d6000803e3d6000fd5b505050506040513d601f19601f82011682018060405250810190610e5f9190611ce8565b610e95576040517f7dac7c9f00000000000000000000000000000000000000000000000000000000815260040160405180910390fd5b80806001600160a01b0316610ea8611401565b6001600160a01b031614610ee8576040517f3e3fdec600000000000000000000000000000000000000000000000000000000815260040160405180910390fd5b60606000836001600160a01b031663c0231ff66040518163ffffffff1660e01b81526004016000604051808303816000875af1158015610f2c573d6000803e3d6000fd5b505050506040513d6000823e601f3d908101601f19168201604052610f549190810190611e5c565b6040517f13e640630000000000000000000000000000000000000000000000000000000081526004810182905291935091506001600160a01b038516906313e6406390602401600060405180830381600087803b158015610fb457600080fd5b505af1158015610fc8573d6000803e3d6000fd5b505050506000610fd6611132565b905060008060008551905060005b8181101561081857868181518110610ffe57610ffe611f37565b602002602001015160000151935086818151811061101e5761101e611f37565b602090810291909101810151015192506110436001600160a01b0386168a868661160d565b846001600160a01b0316846001600160a01b03167f3737f2a73c794dafe53d8aeea06810a9ebcf7167401b259406960e088e03f8308560405161108891815260200190565b60405180910390a3836001600160a01b0316896001600160a01b03167f8670529fee08e70ca6ce752dcfe3d3de7bfda6c2354df3054c7672c60b32c812858a85815181106110d8576110d8611f37565b6020026020010151604001518b86815181106110f6576110f6611f37565b602002602001015160600151604051611122939291909283526020830191909152604082015260600190565b60405180910390a3600101610fe4565b60008060019054906101000a90046001600160a01b03166001600160a01b03166304baed9e6040518163ffffffff1660e01b8152600401602060405180830381865afa158015611186573d6000803e3d6000fd5b505050506040513d601f19601f820116820180604052508101906111aa9190611d03565b6001600160a01b031663fc0c546a6040518163ffffffff1660e01b8152600401602060405180830381865afa1580156111e7573d6000803e3d6000fd5b505050506040513d601f19601f82011682018060405250810190610a9b9190611d03565b60007fffffffff0000000000000000000000000000000000000000000000000000000082167fd883df1200000000000000000000000000000000000000000000000000000000148061029257507f01ffc9a7000000000000000000000000000000000000000000000000000000007fffffffff00000000000000000000000000000000000000000000000000000000831614610292565b6112aa61169b565b6001600160a01b0382166112ea576040517f7280679300000000000000000000000000000000000000000000000000000000815260040160405180910390fd5b600080547fffffffffffffffffffffff0000000000000000000000000000000000000000ff166101006001600160a01b0385160217905561132a81611704565b611360576040517f7511254100000000000000000000000000000000000000000000000000000000815260040160405180910390fd5b80516001908155602082015160025560408201518291906003906113849082611fb6565b50606082015160038201906113999082611fb6565b50505060608101516040516113ae91906120b2565b604080519182900382208351602080860151918552840152916001600160a01b038516917feb175f148a71d29a5f7bf5439182fcd81e6ea9cfc8a11b54ab0f705fa98fa8ca910160405180910390a35050565b600080546040517f572b6c050000000000000000000000000000000000000000000000000000000081523360048201526101009091046001600160a01b03169063572b6c0590602401602060405180830381865afa158015611467573d6000803e3d6000fd5b505050506040513d601f19601f8201168201806040525081019061148b9190611ce8565b156114bb57507fffffffffffffffffffffffffffffffffffffffffffffffffffffffffffffffec36013560601c90565b503390565b60008160000151826040015183606001516040516020016114e3939291906120ce565b604051602081830303815290604052805190602001209050919050565b6040517f9e9785750000000000000000000000000000000000000000000000000000000081526000903090639e9785759061153f908590600401611b98565b602060405180830381865afa925050508015611578575060408051601f3d908101601f1916820190925261157591810190611ce8565b60015b61158457506000919050565b6040517f9e9785750000000000000000000000000000000000000000000000000000000081523090639e978575906115c0908690600401611b98565b602060405180830381865afa1580156115dd573d6000803e3d6000fd5b505050506040513d601f19601f820116820180604052508101906116019190611ce8565b9392505050565b919050565b604080516001600160a01b0385811660248301528416604482015260648082018490528251808303909101815260849091019091526020810180517bffffffffffffffffffffffffffffffffffffffffffffffffffffffff167f23b872dd00000000000000000000000000000000000000000000000000000000179052611695908590611756565b50505050565b7ff0c57e16840df040f15088dc2f81fe391c3923bec73e23a9662efc9c229c6a005468010000000000000000900460ff16611702576040517fd7e6bcf800000000000000000000000000000000000000000000000000000000815260040160405180910390fd5b565b600081604001515160000361171b57506000919050565b81606001515160000361173057506000919050565b815115801561174157506020820151155b1561174e57506000919050565b506001919050565b600061176b6001600160a01b038416836117d2565b9050805160001415801561179057508080602001905181019061178e9190611ce8565b155b15610b48576040517f5274afe70000000000000000000000000000000000000000000000000000000081526001600160a01b038416600482015260240161071b565b60606116018383600084600080856001600160a01b031684866040516117f891906120b2565b60006040518083038185875af1925050503d8060008114611835576040519150601f19603f3d011682016040523d82523d6000602084013e61183a565b606091505b509150915061184a868383611854565b9695505050505050565b60608261186957611864826118c9565b611601565b815115801561188057506001600160a01b0384163b155b156118c2576040517f9996b3150000000000000000000000000000000000000000000000000000000081526001600160a01b038516600482015260240161071b565b5080611601565b8051156118d95780518082602001fd5b6040517f1425ea4200000000000000000000000000000000000000000000000000000000815260040160405180910390fd5b50565b60006020828403121561192057600080fd5b81357fffffffff000000000000000000000000000000000000000000000000000000008116811461160157600080fd5b6001600160a01b038116811461190b57600080fd5b7f4e487b7100000000000000000000000000000000000000000000000000000000600052604160045260246000fd5b6040516080810167ffffffffffffffff811182821017156119b7576119b7611965565b60405290565b604051601f8201601f1916810167ffffffffffffffff811182821017156119e6576119e6611965565b604052919050565b600067ffffffffffffffff821115611a0857611a08611965565b50601f01601f191660200190565b600082601f830112611a2757600080fd5b8135611a3a611a35826119ee565b6119bd565b818152846020838601011115611a4f57600080fd5b816020850160208301376000918101602001919091529392505050565b600080600060608486031215611a8157600080fd5b8335611a8c81611950565b9250602084013567ffffffffffffffff80821115611aa957600080fd5b9085019060808288031215611abd57600080fd5b611ac5611994565b8235815260208301356020820152604083013582811115611ae557600080fd5b611af189828601611a16565b604083015250606083013582811115611b0957600080fd5b611b1589828601611a16565b60608301525093506040860135915080821115611b3157600080fd5b50611b3e86828701611a16565b9150509250925092565b60005b83811015611b63578181015183820152602001611b4b565b50506000910152565b60008151808452611b84816020860160208601611b48565b601f01601f19169290920160200192915050565b6020815260006116016020830184611b6c565b600060208284031215611bbd57600080fd5b813561160181611950565b60008060408385031215611bdb57600080fd5b823591506020830135611bed81611950565b809150509250929050565b60008060408385031215611c0b57600080fd5b8235611c1681611950565b9150602083013567ffffffffffffffff811115611c3257600080fd5b611c3e85828601611a16565b9150509250929050565b600060208284031215611c5a57600080fd5b813567ffffffffffffffff811115611c7157600080fd5b611c7d84828501611a16565b949350505050565b600181811c90821680611c9957607f821691505b602082108103611cd2577f4e487b7100000000000000000000000000000000000000000000000000000000600052602260045260246000fd5b50919050565b8051801515811461160857600080fd5b600060208284031215611cfa57600080fd5b61160182611cd8565b600060208284031215611d1557600080fd5b815161160181611950565b600060208284031215611d3257600080fd5b5051919050565b600067ffffffffffffffff821115611d5357611d53611965565b5060051b60200190565b6000806040808486031215611d7157600080fd5b611d7a84611cd8565b925060208085015167ffffffffffffffff80821115611d9857600080fd5b818701915087601f830112611dac57600080fd5b8151611dba611a3582611d39565b81815260059190911b8301840190848101908a831115611dd957600080fd5b8585015b83811015611e4a57805185811115611df55760008081fd5b8601603f81018d13611e075760008081fd5b87810151611e17611a35826119ee565b8181528e8b838501011115611e2c5760008081fd5b611e3b828b83018d8601611b48565b85525050918601918601611ddd565b50809750505050505050509250929050565b6000806040808486031215611e7057600080fd5b835167ffffffffffffffff811115611e8757600080fd5b8401601f81018613611e9857600080fd5b80516020611ea8611a3583611d39565b82815260079290921b83018101918181019089841115611ec757600080fd5b938201935b83851015611f25576080858b031215611ee55760008081fd5b611eed611994565b8551611ef881611950565b81528584015184820152868601518782015260608087015190820152825260809094019390820190611ecc565b97909101519698969750505050505050565b7f4e487b7100000000000000000000000000000000000000000000000000000000600052603260045260246000fd5b601f821115610b48576000816000526020600020601f850160051c81016020861015611f8f5750805b601f850160051c820191505b81811015611fae57828155600101611f9b565b505050505050565b815167ffffffffffffffff811115611fd057611fd0611965565b611fe481611fde8454611c85565b84611f66565b602080601f83116001811461203757600084156120015750858301515b7fffffffffffffffffffffffffffffffffffffffffffffffffffffffffffffffff600386901b1c1916600185901b178555611fae565b600085815260208120601f198616915b8281101561206657888601518255948401946001909101908401612047565b50858210156120a257878501517fffffffffffffffffffffffffffffffffffffffffffffffffffffffffffffffff600388901b60f8161c191681555b5050505050600190811b01905550565b600082516120c4818460208701611b48565b9190910192915050565b838152600083516120e6816020850160208801611b48565b808301905083516120fe816020840160208801611b48565b016020019594505050505056fea2646970667358221220f1d63958b2c22e0a159804b52d682873fefc4360cb8e3c1ca9ae536d167cd3d064736f6c63430008170033",
    "linkReferences": {}
  },
  "methodIdentifiers": {
    "cancelRunningPayments(address)": "73d7764e",
    "decoder(bytes)": "9e978575",
    "grantModuleRole(bytes32,address)": "6c67e807",
    "identifier()": "7998a1c4",
    "init(address,(uint256,uint256,string,string),bytes)": "42dfe958",
    "init2(address,bytes)": "9bfdf766",
    "isTrustedForwarder(address)": "572b6c05",
    "orchestrator()": "b74795d9",
    "processPayments(address)": "e151fc61",
    "revokeModuleRole(bytes32,address)": "bcb61920",
    "supportsInterface(bytes4)": "01ffc9a7",
    "title()": "4a79d50c",
    "token()": "fc0c546a",
    "url()": "5600f04f",
    "version()": "54fd4d50"
  },
  "id": 132
}