{
  "abi": [
    {
      "type": "function",
      "name": "BOUNTY_ISSUER_ROLE",
      "inputs": [],
      "outputs": [
        {
          "name": "",
          "type": "bytes32",
          "internalType": "bytes32"
        }
      ],
      "stateMutability": "view"
    },
    {
      "type": "function",
      "name": "CLAIMANT_ROLE",
      "inputs": [],
      "outputs": [
        {
          "name": "",
          "type": "bytes32",
          "internalType": "bytes32"
        }
      ],
      "stateMutability": "view"
    },
    {
      "type": "function",
      "name": "VERIFIER_ROLE",
      "inputs": [],
      "outputs": [
        {
          "name": "",
          "type": "bytes32",
          "internalType": "bytes32"
        }
      ],
      "stateMutability": "view"
    },
    {
      "type": "function",
      "name": "addBounty",
      "inputs": [
        {
          "name": "minimumPayoutAmount",
          "type": "uint256",
          "internalType": "uint256"
        },
        {
          "name": "maximumPayoutAmount",
          "type": "uint256",
          "internalType": "uint256"
        },
        {
          "name": "details",
          "type": "bytes",
          "internalType": "bytes"
        }
      ],
      "outputs": [
        {
          "name": "id",
          "type": "uint256",
          "internalType": "uint256"
        }
      ],
      "stateMutability": "nonpayable"
    },
    {
      "type": "function",
      "name": "addClaim",
      "inputs": [
        {
          "name": "bountyId",
          "type": "uint256",
          "internalType": "uint256"
        },
        {
          "name": "contributors",
          "type": "tuple[]",
          "internalType": "struct IBountyManager.Contributor[]",
          "components": [
            {
              "name": "addr",
              "type": "address",
              "internalType": "address"
            },
            {
              "name": "claimAmount",
              "type": "uint256",
              "internalType": "uint256"
            }
          ]
        },
        {
          "name": "details",
          "type": "bytes",
          "internalType": "bytes"
        }
      ],
      "outputs": [
        {
          "name": "id",
          "type": "uint256",
          "internalType": "uint256"
        }
      ],
      "stateMutability": "nonpayable"
    },
    {
      "type": "function",
      "name": "amountPaid",
      "inputs": [
        {
          "name": "amount",
          "type": "uint256",
          "internalType": "uint256"
        }
      ],
      "outputs": [],
      "stateMutability": "nonpayable"
    },
    {
      "type": "function",
      "name": "collectPaymentOrders",
      "inputs": [],
      "outputs": [
        {
          "name": "",
          "type": "tuple[]",
          "internalType": "struct IERC20PaymentClient.PaymentOrder[]",
          "components": [
            {
              "name": "recipient",
              "type": "address",
              "internalType": "address"
            },
            {
              "name": "amount",
              "type": "uint256",
              "internalType": "uint256"
            },
            {
              "name": "createdAt",
              "type": "uint256",
              "internalType": "uint256"
            },
            {
              "name": "dueTo",
              "type": "uint256",
              "internalType": "uint256"
            }
          ]
        },
        {
          "name": "",
          "type": "uint256",
          "internalType": "uint256"
        }
      ],
      "stateMutability": "nonpayable"
    },
    {
      "type": "function",
      "name": "decoder",
      "inputs": [
        {
          "name": "data",
          "type": "bytes",
          "internalType": "bytes"
        }
      ],
      "outputs": [
        {
          "name": "requirement",
          "type": "bool",
          "internalType": "bool"
        }
      ],
      "stateMutability": "pure"
    },
    {
      "type": "function",
      "name": "getBountyInformation",
      "inputs": [
        {
          "name": "bountyId",
          "type": "uint256",
          "internalType": "uint256"
        }
      ],
      "outputs": [
        {
          "name": "",
          "type": "tuple",
          "internalType": "struct IBountyManager.Bounty",
          "components": [
            {
              "name": "minimumPayoutAmount",
              "type": "uint256",
              "internalType": "uint256"
            },
            {
              "name": "maximumPayoutAmount",
              "type": "uint256",
              "internalType": "uint256"
            },
            {
              "name": "details",
              "type": "bytes",
              "internalType": "bytes"
            },
            {
              "name": "locked",
              "type": "bool",
              "internalType": "bool"
            }
          ]
        }
      ],
      "stateMutability": "view"
    },
    {
      "type": "function",
      "name": "getClaimInformation",
      "inputs": [
        {
          "name": "claimId",
          "type": "uint256",
          "internalType": "uint256"
        }
      ],
      "outputs": [
        {
          "name": "",
          "type": "tuple",
          "internalType": "struct IBountyManager.Claim",
          "components": [
            {
              "name": "bountyId",
              "type": "uint256",
              "internalType": "uint256"
            },
            {
              "name": "contributors",
              "type": "tuple[]",
              "internalType": "struct IBountyManager.Contributor[]",
              "components": [
                {
                  "name": "addr",
                  "type": "address",
                  "internalType": "address"
                },
                {
                  "name": "claimAmount",
                  "type": "uint256",
                  "internalType": "uint256"
                }
              ]
            },
            {
              "name": "details",
              "type": "bytes",
              "internalType": "bytes"
            },
            {
              "name": "claimed",
              "type": "bool",
              "internalType": "bool"
            }
          ]
        }
      ],
      "stateMutability": "view"
    },
    {
      "type": "function",
      "name": "grantModuleRole",
      "inputs": [
        {
          "name": "role",
          "type": "bytes32",
          "internalType": "bytes32"
        },
        {
          "name": "addr",
          "type": "address",
          "internalType": "address"
        }
      ],
      "outputs": [],
      "stateMutability": "nonpayable"
    },
    {
      "type": "function",
      "name": "identifier",
      "inputs": [],
      "outputs": [
        {
          "name": "",
          "type": "bytes32",
          "internalType": "bytes32"
        }
      ],
      "stateMutability": "view"
    },
    {
      "type": "function",
      "name": "init",
      "inputs": [
        {
          "name": "orchestrator_",
          "type": "address",
          "internalType": "contract IOrchestrator"
        },
        {
          "name": "metadata",
          "type": "tuple",
          "internalType": "struct IModule.Metadata",
          "components": [
            {
              "name": "majorVersion",
              "type": "uint256",
              "internalType": "uint256"
            },
            {
              "name": "minorVersion",
              "type": "uint256",
              "internalType": "uint256"
            },
            {
              "name": "url",
              "type": "string",
              "internalType": "string"
            },
            {
              "name": "title",
              "type": "string",
              "internalType": "string"
            }
          ]
        },
        {
          "name": "",
          "type": "bytes",
          "internalType": "bytes"
        }
      ],
      "outputs": [],
      "stateMutability": "nonpayable"
    },
    {
      "type": "function",
      "name": "init2",
      "inputs": [
        {
          "name": "",
          "type": "address",
          "internalType": "contract IOrchestrator"
        },
        {
          "name": "",
          "type": "bytes",
          "internalType": "bytes"
        }
      ],
      "outputs": [],
      "stateMutability": "nonpayable"
    },
    {
      "type": "function",
      "name": "isExistingBountyId",
      "inputs": [
        {
          "name": "bountyId",
          "type": "uint256",
          "internalType": "uint256"
        }
      ],
      "outputs": [
        {
          "name": "",
          "type": "bool",
          "internalType": "bool"
        }
      ],
      "stateMutability": "view"
    },
    {
      "type": "function",
      "name": "isExistingClaimId",
      "inputs": [
        {
          "name": "claimId",
          "type": "uint256",
          "internalType": "uint256"
        }
      ],
      "outputs": [
        {
          "name": "",
          "type": "bool",
          "internalType": "bool"
        }
      ],
      "stateMutability": "view"
    },
    {
      "type": "function",
      "name": "isTrustedForwarder",
      "inputs": [
        {
          "name": "forwarder",
          "type": "address",
          "internalType": "address"
        }
      ],
      "outputs": [
        {
          "name": "",
          "type": "bool",
          "internalType": "bool"
        }
      ],
      "stateMutability": "view"
    },
    {
      "type": "function",
      "name": "listBountyIds",
      "inputs": [],
      "outputs": [
        {
          "name": "",
          "type": "uint256[]",
          "internalType": "uint256[]"
        }
      ],
      "stateMutability": "view"
    },
    {
      "type": "function",
      "name": "listClaimIds",
      "inputs": [],
      "outputs": [
        {
          "name": "",
          "type": "uint256[]",
          "internalType": "uint256[]"
        }
      ],
      "stateMutability": "view"
    },
    {
      "type": "function",
      "name": "listClaimIdsForContributorAddress",
      "inputs": [
        {
          "name": "contributorAddrs",
          "type": "address",
          "internalType": "address"
        }
      ],
      "outputs": [
        {
          "name": "",
          "type": "uint256[]",
          "internalType": "uint256[]"
        }
      ],
      "stateMutability": "view"
    },
    {
      "type": "function",
      "name": "lockBounty",
      "inputs": [
        {
          "name": "bountyId",
          "type": "uint256",
          "internalType": "uint256"
        }
      ],
      "outputs": [],
      "stateMutability": "nonpayable"
    },
    {
      "type": "function",
      "name": "orchestrator",
      "inputs": [],
      "outputs": [
        {
          "name": "",
          "type": "address",
          "internalType": "contract IOrchestrator"
        }
      ],
      "stateMutability": "view"
    },
    {
      "type": "function",
      "name": "outstandingTokenAmount",
      "inputs": [],
      "outputs": [
        {
          "name": "",
          "type": "uint256",
          "internalType": "uint256"
        }
      ],
      "stateMutability": "view"
    },
    {
      "type": "function",
      "name": "paymentOrders",
      "inputs": [],
      "outputs": [
        {
          "name": "",
          "type": "tuple[]",
          "internalType": "struct IERC20PaymentClient.PaymentOrder[]",
          "components": [
            {
              "name": "recipient",
              "type": "address",
              "internalType": "address"
            },
            {
              "name": "amount",
              "type": "uint256",
              "internalType": "uint256"
            },
            {
              "name": "createdAt",
              "type": "uint256",
              "internalType": "uint256"
            },
            {
              "name": "dueTo",
              "type": "uint256",
              "internalType": "uint256"
            }
          ]
        }
      ],
      "stateMutability": "view"
    },
    {
      "type": "function",
      "name": "revokeModuleRole",
      "inputs": [
        {
          "name": "role",
          "type": "bytes32",
          "internalType": "bytes32"
        },
        {
          "name": "addr",
          "type": "address",
          "internalType": "address"
        }
      ],
      "outputs": [],
      "stateMutability": "nonpayable"
    },
    {
      "type": "function",
      "name": "supportsInterface",
      "inputs": [
        {
          "name": "interfaceId",
          "type": "bytes4",
          "internalType": "bytes4"
        }
      ],
      "outputs": [
        {
          "name": "",
          "type": "bool",
          "internalType": "bool"
        }
      ],
      "stateMutability": "view"
    },
    {
      "type": "function",
      "name": "title",
      "inputs": [],
      "outputs": [
        {
          "name": "",
          "type": "string",
          "internalType": "string"
        }
      ],
      "stateMutability": "view"
    },
    {
      "type": "function",
      "name": "updateBounty",
      "inputs": [
        {
          "name": "bountyId",
          "type": "uint256",
          "internalType": "uint256"
        },
        {
          "name": "details",
          "type": "bytes",
          "internalType": "bytes"
        }
      ],
      "outputs": [],
      "stateMutability": "nonpayable"
    },
    {
      "type": "function",
      "name": "updateClaimContributors",
      "inputs": [
        {
          "name": "claimId",
          "type": "uint256",
          "internalType": "uint256"
        },
        {
          "name": "contributors",
          "type": "tuple[]",
          "internalType": "struct IBountyManager.Contributor[]",
          "components": [
            {
              "name": "addr",
              "type": "address",
              "internalType": "address"
            },
            {
              "name": "claimAmount",
              "type": "uint256",
              "internalType": "uint256"
            }
          ]
        }
      ],
      "outputs": [],
      "stateMutability": "nonpayable"
    },
    {
      "type": "function",
      "name": "updateClaimDetails",
      "inputs": [
        {
          "name": "claimId",
          "type": "uint256",
          "internalType": "uint256"
        },
        {
          "name": "details",
          "type": "bytes",
          "internalType": "bytes"
        }
      ],
      "outputs": [],
      "stateMutability": "nonpayable"
    },
    {
      "type": "function",
      "name": "url",
      "inputs": [],
      "outputs": [
        {
          "name": "",
          "type": "string",
          "internalType": "string"
        }
      ],
      "stateMutability": "view"
    },
    {
      "type": "function",
      "name": "verifyClaim",
      "inputs": [
        {
          "name": "claimId",
          "type": "uint256",
          "internalType": "uint256"
        },
        {
          "name": "contributors",
          "type": "tuple[]",
          "internalType": "struct IBountyManager.Contributor[]",
          "components": [
            {
              "name": "addr",
              "type": "address",
              "internalType": "address"
            },
            {
              "name": "claimAmount",
              "type": "uint256",
              "internalType": "uint256"
            }
          ]
        }
      ],
      "outputs": [],
      "stateMutability": "nonpayable"
    },
    {
      "type": "function",
      "name": "version",
      "inputs": [],
      "outputs": [
        {
          "name": "",
          "type": "uint256",
          "internalType": "uint256"
        },
        {
          "name": "",
          "type": "uint256",
          "internalType": "uint256"
        }
      ],
      "stateMutability": "view"
    },
    {
      "type": "event",
      "name": "BountyAdded",
      "inputs": [
        {
          "name": "bountyId",
          "type": "uint256",
          "indexed": true,
          "internalType": "uint256"
        },
        {
          "name": "minimumPayoutAmount",
          "type": "uint256",
          "indexed": false,
          "internalType": "uint256"
        },
        {
          "name": "maximumPayoutAmount",
          "type": "uint256",
          "indexed": false,
          "internalType": "uint256"
        },
        {
          "name": "details",
          "type": "bytes",
          "indexed": false,
          "internalType": "bytes"
        }
      ],
      "anonymous": false
    },
    {
      "type": "event",
      "name": "BountyLocked",
      "inputs": [
        {
          "name": "bountyId",
          "type": "uint256",
          "indexed": true,
          "internalType": "uint256"
        }
      ],
      "anonymous": false
    },
    {
      "type": "event",
      "name": "BountyUpdated",
      "inputs": [
        {
          "name": "bountyId",
          "type": "uint256",
          "indexed": true,
          "internalType": "uint256"
        },
        {
          "name": "details",
          "type": "bytes",
          "indexed": true,
          "internalType": "bytes"
        }
      ],
      "anonymous": false
    },
    {
      "type": "event",
      "name": "ClaimAdded",
      "inputs": [
        {
          "name": "claimId",
          "type": "uint256",
          "indexed": true,
          "internalType": "uint256"
        },
        {
          "name": "bountyId",
          "type": "uint256",
          "indexed": true,
          "internalType": "uint256"
        },
        {
          "name": "contributors",
          "type": "tuple[]",
          "indexed": true,
          "internalType": "struct IBountyManager.Contributor[]",
          "components": [
            {
              "name": "addr",
              "type": "address",
              "internalType": "address"
            },
            {
              "name": "claimAmount",
              "type": "uint256",
              "internalType": "uint256"
            }
          ]
        },
        {
          "name": "details",
          "type": "bytes",
          "indexed": false,
          "internalType": "bytes"
        }
      ],
      "anonymous": false
    },
    {
      "type": "event",
      "name": "ClaimContributorsUpdated",
      "inputs": [
        {
          "name": "claimId",
          "type": "uint256",
          "indexed": true,
          "internalType": "uint256"
        },
        {
          "name": "contributors",
          "type": "tuple[]",
          "indexed": true,
          "internalType": "struct IBountyManager.Contributor[]",
          "components": [
            {
              "name": "addr",
              "type": "address",
              "internalType": "address"
            },
            {
              "name": "claimAmount",
              "type": "uint256",
              "internalType": "uint256"
            }
          ]
        }
      ],
      "anonymous": false
    },
    {
      "type": "event",
      "name": "ClaimDetailsUpdated",
      "inputs": [
        {
          "name": "claimId",
          "type": "uint256",
          "indexed": true,
          "internalType": "uint256"
        },
        {
          "name": "details",
          "type": "bytes",
          "indexed": false,
          "internalType": "bytes"
        }
      ],
      "anonymous": false
    },
    {
      "type": "event",
      "name": "ClaimVerified",
      "inputs": [
        {
          "name": "claimId",
          "type": "uint256",
          "indexed": true,
          "internalType": "uint256"
        }
      ],
      "anonymous": false
    },
    {
      "type": "event",
      "name": "Initialized",
      "inputs": [
        {
          "name": "version",
          "type": "uint64",
          "indexed": false,
          "internalType": "uint64"
        }
      ],
      "anonymous": false
    },
    {
      "type": "event",
      "name": "ModuleInitialized",
      "inputs": [
        {
          "name": "parentOrchestrator",
          "type": "address",
          "indexed": true,
          "internalType": "address"
        },
        {
          "name": "moduleTitle",
          "type": "string",
          "indexed": true,
          "internalType": "string"
        },
        {
          "name": "majorVersion",
          "type": "uint256",
          "indexed": false,
          "internalType": "uint256"
        },
        {
          "name": "minorVersion",
          "type": "uint256",
          "indexed": false,
          "internalType": "uint256"
        }
      ],
      "anonymous": false
    },
    {
      "type": "event",
      "name": "PaymentOrderAdded",
      "inputs": [
        {
          "name": "recipient",
          "type": "address",
          "indexed": true,
          "internalType": "address"
        },
        {
          "name": "amount",
          "type": "uint256",
          "indexed": false,
          "internalType": "uint256"
        }
      ],
      "anonymous": false
    },
    {
      "type": "error",
      "name": "AddressEmptyCode",
      "inputs": [
        {
          "name": "target",
          "type": "address",
          "internalType": "address"
        }
      ]
    },
    {
      "type": "error",
      "name": "AddressInsufficientBalance",
      "inputs": [
        {
          "name": "account",
          "type": "address",
          "internalType": "address"
        }
      ]
    },
    {
      "type": "error",
      "name": "FailedInnerCall",
      "inputs": []
    },
    {
      "type": "error",
      "name": "InvalidInitialization",
      "inputs": []
    },
    {
      "type": "error",
      "name": "Library__LinkedIdList__InvalidNewId",
      "inputs": []
    },
    {
      "type": "error",
      "name": "Module_OrchestratorCallbackFailed",
      "inputs": [
        {
          "name": "funcSig",
          "type": "string",
          "internalType": "string"
        }
      ]
    },
    {
      "type": "error",
      "name": "Module__BountyManager__AlreadyClaimed",
      "inputs": []
    },
    {
      "type": "error",
      "name": "Module__BountyManager__BountyLocked",
      "inputs": []
    },
    {
      "type": "error",
      "name": "Module__BountyManager__ClaimExceedsGivenPayoutAmounts",
      "inputs": []
    },
    {
      "type": "error",
      "name": "Module__BountyManager__ContributorsChanged",
      "inputs": []
    },
    {
      "type": "error",
      "name": "Module__BountyManager__InvalidBountyId",
      "inputs": []
    },
    {
      "type": "error",
      "name": "Module__BountyManager__InvalidClaimId",
      "inputs": []
    },
    {
      "type": "error",
      "name": "Module__BountyManager__InvalidContributorAddress",
      "inputs": []
    },
    {
      "type": "error",
      "name": "Module__BountyManager__InvalidContributorAmount",
      "inputs": []
    },
    {
      "type": "error",
      "name": "Module__BountyManager__InvalidContributorsLength",
      "inputs": []
    },
    {
      "type": "error",
      "name": "Module__BountyManager__InvalidPayoutAmounts",
      "inputs": []
    },
    {
      "type": "error",
      "name": "Module__BountyManager__OnlyClaimContributor",
      "inputs": []
    },
    {
      "type": "error",
      "name": "Module__CallerNotAuthorized",
      "inputs": [
        {
          "name": "role",
          "type": "bytes32",
          "internalType": "bytes32"
        },
        {
          "name": "caller",
          "type": "address",
          "internalType": "address"
        }
      ]
    },
    {
      "type": "error",
      "name": "Module__CannotCallInit2Again",
      "inputs": []
    },
    {
      "type": "error",
      "name": "Module__ERC20PaymentClient__ArrayLengthMismatch",
      "inputs": []
    },
    {
      "type": "error",
      "name": "Module__ERC20PaymentClient__CallerNotAuthorized",
      "inputs": []
    },
    {
      "type": "error",
      "name": "Module__ERC20PaymentClient__InvalidAmount",
      "inputs": []
    },
    {
      "type": "error",
      "name": "Module__ERC20PaymentClient__InvalidDueTo",
      "inputs": []
    },
    {
      "type": "error",
      "name": "Module__ERC20PaymentClient__InvalidRecipient",
      "inputs": []
    },
    {
      "type": "error",
      "name": "Module__ERC20PaymentClient__TokenTransferFailed",
      "inputs": []
    },
    {
      "type": "error",
      "name": "Module__InvalidMetadata",
      "inputs": []
    },
    {
      "type": "error",
      "name": "Module__InvalidOrchestratorAddress",
      "inputs": []
    },
    {
      "type": "error",
      "name": "Module__NoDependencyOrMalformedDependencyData",
      "inputs": []
    },
    {
      "type": "error",
      "name": "Module__OnlyCallableByOrchestrator",
      "inputs": []
    },
    {
      "type": "error",
      "name": "NotInitializing",
      "inputs": []
    },
    {
      "type": "error",
      "name": "SafeERC20FailedOperation",
      "inputs": [
        {
          "name": "token",
          "type": "address",
          "internalType": "address"
        }
      ]
    }
  ],
  "bytecode": {
    "object": "0x60806040523480156200001157600080fd5b506200001c62000022565b620000d6565b7ff0c57e16840df040f15088dc2f81fe391c3923bec73e23a9662efc9c229c6a00805468010000000000000000900460ff1615620000735760405163f92ee8a960e01b815260040160405180910390fd5b80546001600160401b0390811614620000d35780546001600160401b0319166001600160401b0390811782556040519081527fc7f505b2f371ae2175ee4913f4499e1f2633a7b5936321eed1cdaeb6115181d29060200160405180910390a15b50565b61511980620000e66000396000f3fe608060405234801561001057600080fd5b506004361061020b5760003560e01c80637bfee0481161012a578063bcb61920116100bd578063c0231ff61161008c578063e2114c8c11610071578063e2114c8c146104ac578063e7705db6146104bf578063fa4dbd03146104e657600080fd5b8063c0231ff614610476578063cb05296f1461048c57600080fd5b8063bcb619201461042a578063bd769f791461043d578063be5a574514610450578063bf1f96561461046357600080fd5b80639e978575116100f95780639e978575146103de578063a44a6bb2146103f1578063b5e8bc45146103f9578063b74795d91461040157600080fd5b80637bfee0481461036a5780638a867368146103915780639bfdf766146103b85780639c16f525146103cb57600080fd5b80634a79d50c116101a25780635beaeb8c116101715780635beaeb8c146103275780636c67e8071461033a57806375fa0b761461034d5780637998a1c41461036257600080fd5b80634a79d50c146102dc57806354fd4d50146102f15780635600f04f1461030c578063572b6c051461031457600080fd5b806331be580e116101de57806331be580e1461028157806331de0bdb146102a15780633cd6b5d1146102b457806342dfe958146102c957600080fd5b806301ffc9a7146102105780630d97d72c1461023857806313e64063146102595780632d54a71c1461026e575b600080fd5b61022361021e366004614306565b6104f9565b60405190151581526020015b60405180910390f35b61024b6102463660046143d6565b610555565b60405190815260200161022f565b61026c610267366004614450565b610af4565b005b61026c61027c366004614469565b610b54565b61029461028f366004614450565b610dbb565b60405161022f9190614505565b61026c6102af366004614469565b610f06565b6102bc611187565b60405161022f919061454d565b61026c6102d73660046146ad565b611198565b6102e4611378565b60405161022f9190614789565b6001546002546040805192835260208301919091520161022f565b6102e461140d565b61022361032236600461479c565b61141f565b61026c6103353660046147b9565b6114ad565b61026c6103483660046147f8565b61190a565b610355611b94565b60405161022f919061488d565b61024b611c1e565b61024b7f424f554e54595f4953535545520000000000000000000000000000000000000081565b61024b7f434c41494d414e5400000000000000000000000000000000000000000000000081565b61026c6103c63660046148a0565b611d69565b6102bc6103d936600461479c565b611db7565b6102236103ec3660046148f0565b611ddb565b60065461024b565b6102bc611df8565b60005461010090046001600160a01b03166040516001600160a01b03909116815260200161022f565b61026c6104383660046147f8565b611e04565b61024b61044b36600461492d565b612059565b61022361045e366004614450565b6122c2565b61026c6104713660046147b9565b6122cf565b61047e6127e1565b60405161022f929190614980565b61049f61049a366004614450565b61299f565b60405161022f91906149a2565b6102236104ba366004614450565b612ab9565b61024b7f564552494649455200000000000000000000000000000000000000000000000081565b61026c6104f4366004614450565b612ac6565b60007fffffffff0000000000000000000000000000000000000000000000000000000082167f010bb25200000000000000000000000000000000000000000000000000000000148061054f575061054f82612d29565b92915050565b60007f434c41494d414e54000000000000000000000000000000000000000000000000600060019054906101000a90046001600160a01b03166001600160a01b031663d09edf316040518163ffffffff1660e01b8152600401602060405180830381865afa1580156105cb573d6000803e3d6000fd5b505050506040513d601f19601f820116820180604052508101906105ef9190614a47565b6001600160a01b031663f3aafa7082610606612d7f565b6040517fffffffff0000000000000000000000000000000000000000000000000000000060e085901b16815260048101929092526001600160a01b03166024820152604401602060405180830381865afa158015610668573d6000803e3d6000fd5b505050506040513d601f19601f8201168201806040525081019061068c9190614a79565b6107e457600060019054906101000a90046001600160a01b03166001600160a01b031663d09edf316040518163ffffffff1660e01b8152600401602060405180830381865afa1580156106e3573d6000803e3d6000fd5b505050506040513d601f19601f820116820180604052508101906107079190614a47565b6040517ffdd5205f000000000000000000000000000000000000000000000000000000008152306004820152602481018390526001600160a01b03919091169063fdd5205f906044016020604051808303816000875af115801561076f573d6000803e3d6000fd5b505050506040513d601f19601f820116820180604052508101906107939190614a94565b61079b612d7f565b6040517f42abbb7700000000000000000000000000000000000000000000000000000000815260048101929092526001600160a01b031660248201526044015b60405180910390fd5b866107ee816122c2565b610824576040517f4511bb2500000000000000000000000000000000000000000000000000000000815260040160405180910390fd5b600088815260086020526040902060030154889060ff1615610872576040517f630a60dc00000000000000000000000000000000000000000000000000000000815260040160405180910390fd5b6109a28888808060200260200160405190810160405280939291908181526020016000905b828210156108c3576108b460408302860136819003810190614aad565b81526020019060010190610897565b5050505050600860008c8152602001908152602001600020604051806080016040529081600082015481526020016001820154815260200160028201805461090a90614b05565b80601f016020809104026020016040519081016040528092919081815260200182805461093690614b05565b80156109835780601f1061095857610100808354040283529160200191610983565b820191906000526020600020905b81548152906001019060200180831161096657829003601f168201915b50505091835250506003919091015460ff161515602090910152612e3e565b60006007600081546109b390614b81565b918290555090506109c5600d82612fed565b6000818152600c602052604081208b81559089905b81811015610a8057826001018c8c838181106109f8576109f8614b9b565b835460018101855560009485526020909420604090910292909201926002029091019050610a268282614bca565b5050610a7784601060008f8f86818110610a4257610a42614b9b565b610a58926020604090920201908101915061479c565b6001600160a01b0316815260208101919091526040016000209061307a565b506001016109da565b5060028201610a90898b83614c65565b508a8a604051610aa1929190614d25565b60405180910390208c847f23ea023b108a98377fb5440ffbb7fe7a5c3827c821ef0e16fbd60af8b93cddac8c8c604051610adc929190614d9b565b60405180910390a450909a9950505050505050505050565b610b04610aff612d7f565b61308d565b610b3a576040517f9c18b87800000000000000000000000000000000000000000000000000000000815260040160405180910390fd5b8060066000828254610b4c9190614daf565b909155505050565b82610b5e81612ab9565b610b94576040517ff76e9aef00000000000000000000000000000000000000000000000000000000815260040160405180910390fd5b6000848152600c6020526040902060030154849060ff1615610be2576040517fd4b93ddf00000000000000000000000000000000000000000000000000000000815260040160405180910390fd5b6000858152600c602090815260408083205480845260089092529091206003015460ff1615610c3d576040517f630a60dc00000000000000000000000000000000000000000000000000000000815260040160405180910390fd5b856000610c48612d7f565b90506000600c6000848152602001908152602001600020600101805480602002602001604051908101604052809291908181526020016000905b82821015610cca576000848152602090819020604080518082019091526002850290910180546001600160a01b03168252600190810154828401529083529092019101610c82565b5050825192935060009150505b81811015610d1e57836001600160a01b0316838281518110610cfb57610cfb614b9b565b6020026020010151600001516001600160a01b03160315610d1e57600101610cd7565b818110610d57576040517f0a3b474000000000000000000000000000000000000000000000000000000000815260040160405180910390fd5b60008b8152600c60205260409020600201610d738a8c83614c65565b508a7f4128fe4992a5cb5a9cb54a23107ba2cd9db975f7f66fd5a978927aaf54350a998b8b604051610da6929190614d9b565b60405180910390a25050505050505050505050565b610de860405180608001604052806000815260200160008152602001606081526020016000151581525090565b81610df2816122c2565b610e28576040517f4511bb2500000000000000000000000000000000000000000000000000000000815260040160405180910390fd5b600860008481526020019081526020016000206040518060800160405290816000820154815260200160018201548152602001600282018054610e6a90614b05565b80601f0160208091040260200160405190810160405280929190818152602001828054610e9690614b05565b8015610ee35780601f10610eb857610100808354040283529160200191610ee3565b820191906000526020600020905b815481529060010190602001808311610ec657829003601f168201915b50505091835250506003919091015460ff16151560209091015291505b50919050565b7f424f554e54595f49535355455200000000000000000000000000000000000000600060019054906101000a90046001600160a01b03166001600160a01b031663d09edf316040518163ffffffff1660e01b8152600401602060405180830381865afa158015610f7a573d6000803e3d6000fd5b505050506040513d601f19601f82011682018060405250810190610f9e9190614a47565b6001600160a01b031663f3aafa7082610fb5612d7f565b6040517fffffffff0000000000000000000000000000000000000000000000000000000060e085901b16815260048101929092526001600160a01b03166024820152604401602060405180830381865afa158015611017573d6000803e3d6000fd5b505050506040513d601f19601f8201168201806040525081019061103b9190614a79565b61109257600060019054906101000a90046001600160a01b03166001600160a01b031663d09edf316040518163ffffffff1660e01b8152600401602060405180830381865afa1580156106e3573d6000803e3d6000fd5b8361109c816122c2565b6110d2576040517f4511bb2500000000000000000000000000000000000000000000000000000000815260040160405180910390fd5b600085815260086020526040902060030154859060ff1615611120576040517f630a60dc00000000000000000000000000000000000000000000000000000000815260040160405180910390fd5b600086815260086020526040902060020161113c858783614c65565b50848460405161114d929190614dc2565b6040519081900381209087907f5b748b1bf798d437f4457fa662e95d5b99ba7c5c739e2d6342c7d06c4ad4300790600090a3505050505050565b6060611193600d613120565b905090565b7ff0c57e16840df040f15088dc2f81fe391c3923bec73e23a9662efc9c229c6a00805468010000000000000000810460ff16159067ffffffffffffffff166000811580156111e35750825b905060008267ffffffffffffffff1660011480156112005750303b155b90508115801561120e575080155b15611245576040517ff92ee8a900000000000000000000000000000000000000000000000000000000815260040160405180910390fd5b84547fffffffffffffffffffffffffffffffffffffffffffffffff000000000000000016600117855583156112a65784547fffffffffffffffffffffffffffffffffffffffffffffff00ffffffffffffffff16680100000000000000001785555b6112b088886131da565b60001960008190527f5030e2ff9d3404671c17fc42c5714d9bdf34dbce2663e34014ba8c942df513fb819055600a819055600f6020527f5f49b1b339959b31ad74f07b88b44259ea11bfb77e53c425ee4e04612cace647819055600e55831561136e5784547fffffffffffffffffffffffffffffffffffffffffffffff00ffffffffffffffff168555604051600181527fc7f505b2f371ae2175ee4913f4499e1f2633a7b5936321eed1cdaeb6115181d29060200160405180910390a15b5050505050505050565b60606001600301805461138a90614b05565b80601f01602080910402602001604051908101604052809291908181526020018280546113b690614b05565b80156114035780601f106113d857610100808354040283529160200191611403565b820191906000526020600020905b8154815290600101906020018083116113e657829003601f168201915b5050505050905090565b60606001600201805461138a90614b05565b600080546040517f572b6c050000000000000000000000000000000000000000000000000000000081526001600160a01b0384811660048301526101009092049091169063572b6c0590602401602060405180830381865afa158015611489573d6000803e3d6000fd5b505050506040513d601f19601f8201168201806040525081019061054f9190614a79565b826114b781612ab9565b6114ed576040517ff76e9aef00000000000000000000000000000000000000000000000000000000815260040160405180910390fd5b6000848152600c6020526040902060030154849060ff161561153b576040517fd4b93ddf00000000000000000000000000000000000000000000000000000000815260040160405180910390fd5b6000858152600c602090815260408083205480845260089092529091206003015460ff1615611596576040517f630a60dc00000000000000000000000000000000000000000000000000000000815260040160405180910390fd5b7f434c41494d414e54000000000000000000000000000000000000000000000000600060019054906101000a90046001600160a01b03166001600160a01b031663d09edf316040518163ffffffff1660e01b8152600401602060405180830381865afa15801561160a573d6000803e3d6000fd5b505050506040513d601f19601f8201168201806040525081019061162e9190614a47565b6001600160a01b031663f3aafa7082611645612d7f565b6040517fffffffff0000000000000000000000000000000000000000000000000000000060e085901b16815260048101929092526001600160a01b03166024820152604401602060405180830381865afa1580156116a7573d6000803e3d6000fd5b505050506040513d601f19601f820116820180604052508101906116cb9190614a79565b61172257600060019054906101000a90046001600160a01b03166001600160a01b031663d09edf316040518163ffffffff1660e01b8152600401602060405180830381865afa1580156106e3573d6000803e3d6000fd5b6117c48686808060200260200160405190810160405280939291908181526020016000905b828210156117735761176460408302860136819003810190614aad565b81526020019060010190611747565b50505060008b8152600c602090815260408083205483526008825291829020825160808101845281548152600182015492810192909252600281018054929550909350918401919061090a90614b05565b6000878152600c60205260408120600181015490915b818110156118375761182e8a601060008660010185815481106117ff576117ff614b9b565b600091825260208083206002909202909101546001600160a01b03168352820192909252604001902090613339565b506001016117da565b50611846600183016000614236565b508560005b818110156118bc578260010189898381811061186957611869614b9b565b8354600181018555600094855260209094206040909102929092019260020290910190506118978282614bca565b50506118b38a601060008c8c86818110610a4257610a42614b9b565b5060010161184b565b5087876040516118cd929190614d25565b604051908190038120908a907f1d41ce0f1e2efe8a516e804c8208a8a92b1931eb13d5c7be8847790b6eb25ec190600090a3505050505050505050565b60008060019054906101000a90046001600160a01b03166001600160a01b031663d09edf316040518163ffffffff1660e01b8152600401602060405180830381865afa15801561195e573d6000803e3d6000fd5b505050506040513d601f19601f820116820180604052508101906119829190614a47565b90506000816001600160a01b03166355ff58d46040518163ffffffff1660e01b8152600401602060405180830381865afa1580156119c4573d6000803e3d6000fd5b505050506040513d601f19601f820116820180604052508101906119e89190614a94565b9050816001600160a01b03166391d1485482611a02612d7f565b6040517fffffffff0000000000000000000000000000000000000000000000000000000060e085901b16815260048101929092526001600160a01b03166024820152604401602060405180830381865afa158015611a64573d6000803e3d6000fd5b505050506040513d601f19601f82011682018060405250810190611a889190614a79565b611a95578061079b612d7f565b60008060019054906101000a90046001600160a01b03166001600160a01b031663d09edf316040518163ffffffff1660e01b8152600401602060405180830381865afa158015611ae9573d6000803e3d6000fd5b505050506040513d601f19601f82011682018060405250810190611b0d9190614a47565b6040517fe1788154000000000000000000000000000000000000000000000000000000008152600481018790526001600160a01b0386811660248301529192509082169063e1788154906044015b600060405180830381600087803b158015611b7557600080fd5b505af1158015611b89573d6000803e3d6000fd5b505050505050505050565b60606005805480602002602001604051908101604052809291908181526020016000905b82821015611c15576000848152602090819020604080516080810182526004860290920180546001600160a01b03168352600180820154848601526002820154928401929092526003015460608301529083529092019101611bb8565b50505050905090565b6040805160808101825260018054825260025460208301526003805460009461119394939290840191611c5090614b05565b80601f0160208091040260200160405190810160405280929190818152602001828054611c7c90614b05565b8015611cc95780601f10611c9e57610100808354040283529160200191611cc9565b820191906000526020600020905b815481529060010190602001808311611cac57829003601f168201915b50505050508152602001600382018054611ce290614b05565b80601f0160208091040260200160405190810160405280929190818152602001828054611d0e90614b05565b8015611d5b5780601f10611d3057610100808354040283529160200191611d5b565b820191906000526020600020905b815481529060010190602001808311611d3e57829003601f168201915b505050505081525050613345565b60005460ff1615611da6576040517f904875a100000000000000000000000000000000000000000000000000000000815260040160405180910390fd5b50506000805460ff19166001179055565b6001600160a01b038116600090815260106020526040902060609061054f90613385565b600081806020019051810190611df19190614e02565b5092915050565b60606111936009613120565b60008060019054906101000a90046001600160a01b03166001600160a01b031663d09edf316040518163ffffffff1660e01b8152600401602060405180830381865afa158015611e58573d6000803e3d6000fd5b505050506040513d601f19601f82011682018060405250810190611e7c9190614a47565b90506000816001600160a01b03166355ff58d46040518163ffffffff1660e01b8152600401602060405180830381865afa158015611ebe573d6000803e3d6000fd5b505050506040513d601f19601f82011682018060405250810190611ee29190614a94565b9050816001600160a01b03166391d1485482611efc612d7f565b6040517fffffffff0000000000000000000000000000000000000000000000000000000060e085901b16815260048101929092526001600160a01b03166024820152604401602060405180830381865afa158015611f5e573d6000803e3d6000fd5b505050506040513d601f19601f82011682018060405250810190611f829190614a79565b611f8f578061079b612d7f565b60008060019054906101000a90046001600160a01b03166001600160a01b031663d09edf316040518163ffffffff1660e01b8152600401602060405180830381865afa158015611fe3573d6000803e3d6000fd5b505050506040513d601f19601f820116820180604052508101906120079190614a47565b6040517fba66f9fc000000000000000000000000000000000000000000000000000000008152600481018790526001600160a01b0386811660248301529192509082169063ba66f9fc90604401611b5b565b60007f424f554e54595f49535355455200000000000000000000000000000000000000600060019054906101000a90046001600160a01b03166001600160a01b031663d09edf316040518163ffffffff1660e01b8152600401602060405180830381865afa1580156120cf573d6000803e3d6000fd5b505050506040513d601f19601f820116820180604052508101906120f39190614a47565b6001600160a01b031663f3aafa708261210a612d7f565b6040517fffffffff0000000000000000000000000000000000000000000000000000000060e085901b16815260048101929092526001600160a01b03166024820152604401602060405180830381865afa15801561216c573d6000803e3d6000fd5b505050506040513d601f19601f820116820180604052508101906121909190614a79565b6121e757600060019054906101000a90046001600160a01b03166001600160a01b031663d09edf316040518163ffffffff1660e01b8152600401602060405180830381865afa1580156106e3573d6000803e3d6000fd5b85858115806121f557508181105b1561222c576040517f75339e3d00000000000000000000000000000000000000000000000000000000815260040160405180910390fd5b600060076000815461223d90614b81565b9182905550905061224f600982612fed565b60008181526008602052604090208981556001810189905560028101612276888a83614c65565b50817f16aa89bae6ad0e0b7a94b930e87a8e04b02978ed503e2698b1b6359416e1ac838b8b8b8b6040516122ad9493929190614eee565b60405180910390a25098975050505050505050565b600061054f600983613392565b7f5645524946494552000000000000000000000000000000000000000000000000600060019054906101000a90046001600160a01b03166001600160a01b031663d09edf316040518163ffffffff1660e01b8152600401602060405180830381865afa158015612343573d6000803e3d6000fd5b505050506040513d601f19601f820116820180604052508101906123679190614a47565b6001600160a01b031663f3aafa708261237e612d7f565b6040517fffffffff0000000000000000000000000000000000000000000000000000000060e085901b16815260048101929092526001600160a01b03166024820152604401602060405180830381865afa1580156123e0573d6000803e3d6000fd5b505050506040513d601f19601f820116820180604052508101906124049190614a79565b61245b57600060019054906101000a90046001600160a01b03166001600160a01b031663d09edf316040518163ffffffff1660e01b8152600401602060405180830381865afa1580156106e3573d6000803e3d6000fd5b8361246581612ab9565b61249b576040517ff76e9aef00000000000000000000000000000000000000000000000000000000815260040160405180910390fd5b6000858152600c6020526040902060030154859060ff16156124e9576040517fd4b93ddf00000000000000000000000000000000000000000000000000000000815260040160405180910390fd5b6000868152600c602090815260408083205480845260089092529091206003015460ff1615612544576040517f630a60dc00000000000000000000000000000000000000000000000000000000815260040160405180910390fd5b6125a0878787808060200260200160405190810160405280939291908181526020016000905b828210156125965761258760408302860136819003810190614aad565b8152602001906001019061256a565b50505050506133b7565b6000878152600c6020908152604080832060010180548251818502810185019093528083529192909190849084015b82821015612617576000848152602090819020604080518082019091526002850290910180546001600160a01b031682526001908101548284015290835290920191016125cf565b50508251604080518082019091526000808252602082015293945092915061263c9050565b60005b828110156126a55783818151811061265957612659614b9b565b6020026020010151915061269d604051806080016040528084600001516001600160a01b03168152602001846020015181526020014281526020014281525061351e565b60010161263f565b50600060019054906101000a90046001600160a01b03166001600160a01b031663f1c6bdf86040518163ffffffff1660e01b8152600401602060405180830381865afa1580156126f9573d6000803e3d6000fd5b505050506040513d601f19601f8201168201806040525081019061271d9190614a47565b6040517fe151fc610000000000000000000000000000000000000000000000000000000081523060048201526001600160a01b03919091169063e151fc6190602401600060405180830381600087803b15801561277957600080fd5b505af115801561278d573d6000803e3d6000fd5b50505060008b8152600c6020526040808220600301805460ff19166001179055518c92507f393efda0b92bc01071b66a816d6bcddde867b8c91da505a0f309d9133a53650a9190a250505050505050505050565b606060006127f0610aff612d7f565b612826576040517f9c18b87800000000000000000000000000000000000000000000000000000000815260040160405180910390fd5b600554600090818167ffffffffffffffff811115612846576128466145a6565b6040519080825280602002602001820160405280156128ab57816020015b612898604051806080016040528060006001600160a01b031681526020016000815260200160008152602001600081525090565b8152602001906001900390816128645790505b50905060005b8281101561296857600581815481106128cc576128cc614b9b565b600091825260209182902060408051608081018252600490930290910180546001600160a01b031683526001810154938301939093526002830154908201526003909101546060820152825183908390811061292a5761292a614b9b565b602002602001018190525081818151811061294757612947614b9b565b6020026020010151602001518461295e9190614f0e565b93506001016128b1565b5061297560056000614257565b612986612980612d7f565b84613671565b612991600654613762565b600654909590945092505050565b6129cc60405180608001604052806000815260200160608152602001606081526020016000151581525090565b816129d681612ab9565b612a0c576040517ff76e9aef00000000000000000000000000000000000000000000000000000000815260040160405180910390fd5b600c60008481526020019081526020016000206040518060800160405290816000820154815260200160018201805480602002602001604051908101604052809291908181526020016000905b82821015612aa1576000848152602090819020604080518082019091526002850290910180546001600160a01b03168252600190810154828401529083529092019101612a59565b505050508152602001600282018054610e6a90614b05565b600061054f600d83613392565b7f424f554e54595f49535355455200000000000000000000000000000000000000600060019054906101000a90046001600160a01b03166001600160a01b031663d09edf316040518163ffffffff1660e01b8152600401602060405180830381865afa158015612b3a573d6000803e3d6000fd5b505050506040513d601f19601f82011682018060405250810190612b5e9190614a47565b6001600160a01b031663f3aafa7082612b75612d7f565b6040517fffffffff0000000000000000000000000000000000000000000000000000000060e085901b16815260048101929092526001600160a01b03166024820152604401602060405180830381865afa158015612bd7573d6000803e3d6000fd5b505050506040513d601f19601f82011682018060405250810190612bfb9190614a79565b612c5257600060019054906101000a90046001600160a01b03166001600160a01b031663d09edf316040518163ffffffff1660e01b8152600401602060405180830381865afa1580156106e3573d6000803e3d6000fd5b81612c5c816122c2565b612c92576040517f4511bb2500000000000000000000000000000000000000000000000000000000815260040160405180910390fd5b600083815260086020526040902060030154839060ff1615612ce0576040517f630a60dc00000000000000000000000000000000000000000000000000000000815260040160405180910390fd5b600084815260086020526040808220600301805460ff191660011790555185917fa0e18720f77efbbf5292a427112cd5b87106c4dd3e6b27fe1fa001090a508a4091a250505050565b60007fffffffff0000000000000000000000000000000000000000000000000000000082167f02753f5100000000000000000000000000000000000000000000000000000000148061054f575061054f82613a98565b600080546040517f572b6c050000000000000000000000000000000000000000000000000000000081523360048201526101009091046001600160a01b03169063572b6c0590602401602060405180830381865afa158015612de5573d6000803e3d6000fd5b505050506040513d601f19601f82011682018060405250810190612e099190614a79565b15612e3957507fffffffffffffffffffffffffffffffffffffffffffffffffffffffffffffffec36013560601c90565b503390565b81516000819003612e7b576040517f93918c2c00000000000000000000000000000000000000000000000000000000815260040160405180910390fd5b600080548190819061010090046001600160a01b0316815b85811015612f9a57878181518110612ead57612ead614b9b565b602002602001015160200151935083600003612ef5576040517f6063810000000000000000000000000000000000000000000000000000000000815260040160405180910390fd5b878181518110612f0757612f07614b9b565b60209081029190910101515192506001600160a01b0383161580612f3357506001600160a01b03831630145b80612f4f5750816001600160a01b0316836001600160a01b0316145b15612f86576040517fe7ae61ce00000000000000000000000000000000000000000000000000000000815260040160405180910390fd5b612f908486614f0e565b9450600101612e93565b508560200151841180612fad5750855184105b15612fe4576040517fae68040f00000000000000000000000000000000000000000000000000000000815260040160405180910390fd5b50505050505050565b8181612ff98282613392565b80613002575080155b15613039576040517f582fbbaf00000000000000000000000000000000000000000000000000000000815260040160405180910390fd5b60018401805460009081526002860160205260408082208690558582528120600019905590849055845490859061306f83614b81565b919050555050505050565b60006130868383613b2f565b9392505050565b6000816001600160a01b0316600060019054906101000a90046001600160a01b03166001600160a01b031663f1c6bdf86040518163ffffffff1660e01b8152600401602060405180830381865afa1580156130ec573d6000803e3d6000fd5b505050506040513d601f19601f820116820180604052508101906131109190614a47565b6001600160a01b03161492915050565b60606000826000015467ffffffffffffffff811115613141576131416145a6565b60405190808252806020026020018201604052801561316a578160200160208202803683370190505b506000196000908152600285016020526040812054919250905b60001981146131d157808383815181106131a0576131a0614b9b565b60209081029190910181019190915260009182526002860190526040902054816131c981614b81565b925050613184565b50909392505050565b6131e2613b7e565b6001600160a01b038216613222576040517f7280679300000000000000000000000000000000000000000000000000000000815260040160405180910390fd5b600080547fffffffffffffffffffffff0000000000000000000000000000000000000000ff166101006001600160a01b0385160217905561326281613be7565b613298576040517f7511254100000000000000000000000000000000000000000000000000000000815260040160405180910390fd5b80516001908155602082015160025560408201518291906003906132bc9082614f21565b50606082015160038201906132d19082614f21565b50505060608101516040516132e69190614fe1565b604080519182900382208351602080860151918552840152916001600160a01b038516917feb175f148a71d29a5f7bf5439182fcd81e6ea9cfc8a11b54ab0f705fa98fa8ca910160405180910390a35050565b60006130868383613c39565b600081600001518260400151836060015160405160200161336893929190614ffd565b604051602081830303815290604052805190602001209050919050565b6060600061308683613d2c565b6000818152600283016020526040812054158015906130865750506000191415919050565b6000828152600c6020908152604080832060010180548251818502810185019093528083529192909190849084015b8282101561342e576000848152602090819020604080518082019091526002850290910180546001600160a01b031682526001908101548284015290835290920191016133e6565b5050845192935060009150505b818110156135175782818151811061345557613455614b9b565b6020026020010151600001516001600160a01b031684828151811061347c5761347c614b9b565b6020026020010151600001516001600160a01b03161415806134d857508281815181106134ab576134ab614b9b565b6020026020010151602001518482815181106134c9576134c9614b9b565b60200260200101516020015114155b1561350f576040517f545bebd200000000000000000000000000000000000000000000000000000000815260040160405180910390fd5b60010161343b565b5050505050565b8061352881613d88565b81602001516006600082825461353e9190614f0e565b909155505060058054600181018255600091909152825160049091027f036b6384b5eca791c62761152d0c79bb0604c104a5fb6f4eb0703f3154bb3db0810180546001600160a01b039093167fffffffffffffffffffffffff00000000000000000000000000000000000000009093168317905560208401517f036b6384b5eca791c62761152d0c79bb0604c104a5fb6f4eb0703f3154bb3db182018190556040808601517f036b6384b5eca791c62761152d0c79bb0604c104a5fb6f4eb0703f3154bb3db284015560608601517f036b6384b5eca791c62761152d0c79bb0604c104a5fb6f4eb0703f3154bb3db39093019290925590517ffc9138d87583f51297afba99687e2a6bcf276a5e3e3ccec11b3ca0052ac2e9d9916136659190815260200190565b60405180910390a25050565b61375e8282600060019054906101000a90046001600160a01b03166001600160a01b03166304baed9e6040518163ffffffff1660e01b8152600401602060405180830381865afa1580156136c9573d6000803e3d6000fd5b505050506040513d601f19601f820116820180604052508101906136ed9190614a47565b6001600160a01b031663fc0c546a6040518163ffffffff1660e01b8152600401602060405180830381865afa15801561372a573d6000803e3d6000fd5b505050506040513d601f19601f8201168201806040525081019061374e9190614a47565b6001600160a01b03169190613e20565b5050565b60008060019054906101000a90046001600160a01b03166001600160a01b03166304baed9e6040518163ffffffff1660e01b8152600401602060405180830381865afa1580156137b6573d6000803e3d6000fd5b505050506040513d601f19601f820116820180604052508101906137da9190614a47565b6001600160a01b031663fc0c546a6040518163ffffffff1660e01b8152600401602060405180830381865afa158015613817573d6000803e3d6000fd5b505050506040513d601f19601f8201168201806040525081019061383b9190614a47565b6040517f70a082310000000000000000000000000000000000000000000000000000000081523060048201526001600160a01b0391909116906370a0823190602401602060405180830381865afa15801561389a573d6000803e3d6000fd5b505050506040513d601f19601f820116820180604052508101906138be9190614a94565b90508181101561375e5760008054604080517f04baed9e00000000000000000000000000000000000000000000000000000000815290516101009092046001600160a01b03169163685dc6b19183916304baed9e916004808201926020929091908290030181865afa158015613938573d6000803e3d6000fd5b505050506040513d601f19601f8201168201806040525081019061395c9190614a47565b306139678688614daf565b6040516001600160a01b039092166024830152604482015260640160408051601f198184030181529181526020820180517bffffffffffffffffffffffffffffffffffffffffffffffffffffffff167f759cc4b500000000000000000000000000000000000000000000000000000000179052517fffffffff0000000000000000000000000000000000000000000000000000000060e085901b168152613a1292919060040161503a565b6000604051808303816000875af1158015613a31573d6000803e3d6000fd5b505050506040513d6000823e601f3d908101601f19168201604052613a59919081019061505c565b50905080613a93576040517fa9a9111100000000000000000000000000000000000000000000000000000000815260040160405180910390fd5b505050565b60007fffffffff0000000000000000000000000000000000000000000000000000000082167fd883df1200000000000000000000000000000000000000000000000000000000148061054f57507f01ffc9a7000000000000000000000000000000000000000000000000000000007fffffffff0000000000000000000000000000000000000000000000000000000083161461054f565b6000818152600183016020526040812054613b765750815460018181018455600084815260208082209093018490558454848252828601909352604090209190915561054f565b50600061054f565b7ff0c57e16840df040f15088dc2f81fe391c3923bec73e23a9662efc9c229c6a005468010000000000000000900460ff16613be5576040517fd7e6bcf800000000000000000000000000000000000000000000000000000000815260040160405180910390fd5b565b6000816040015151600003613bfe57506000919050565b816060015151600003613c1357506000919050565b8151158015613c2457506020820151155b15613c3157506000919050565b506001919050565b60008181526001830160205260408120548015613d22576000613c5d600183614daf565b8554909150600090613c7190600190614daf565b9050808214613cd6576000866000018281548110613c9157613c91614b9b565b9060005260206000200154905080876000018481548110613cb457613cb4614b9b565b6000918252602080832090910192909255918252600188019052604090208390555b8554869080613ce757613ce76150b4565b60019003818190600052602060002001600090559055856001016000868152602001908152602001600020600090556001935050505061054f565b600091505061054f565b606081600001805480602002602001604051908101604052809291908181526020018280548015613d7c57602002820191906000526020600020905b815481526020019060010190808311613d68575b50505050509050919050565b8060200151600003613dc6576040517f53b30ec100000000000000000000000000000000000000000000000000000000815260040160405180910390fd5b80516001600160a01b03161580613de6575080516001600160a01b031630145b15613e1d576040517ff541b81500000000000000000000000000000000000000000000000000000000815260040160405180910390fd5b50565b6040517fdd62ed3e0000000000000000000000000000000000000000000000000000000081523060048201526001600160a01b0383811660248301526000919085169063dd62ed3e90604401602060405180830381865afa158015613e89573d6000803e3d6000fd5b505050506040513d601f19601f82011682018060405250810190613ead9190614a94565b9050613ec38484613ebe8585614f0e565b613ec9565b50505050565b604080516001600160a01b038416602482015260448082018490528251808303909101815260649091019091526020810180517bffffffffffffffffffffffffffffffffffffffffffffffffffffffff167f095ea7b300000000000000000000000000000000000000000000000000000000179052613f488482613fd9565b613ec357604080516001600160a01b038516602482015260006044808301919091528251808303909101815260649091019091526020810180517bffffffffffffffffffffffffffffffffffffffffffffffffffffffff167f095ea7b300000000000000000000000000000000000000000000000000000000179052613fcf908590614081565b613ec38482614081565b6000806000846001600160a01b031684604051613ff69190614fe1565b6000604051808303816000865af19150503d8060008114614033576040519150601f19603f3d011682016040523d82523d6000602084013e614038565b606091505b50915091508180156140625750805115806140625750808060200190518101906140629190614a79565b801561407857506000856001600160a01b03163b115b95945050505050565b60006140966001600160a01b038416836140fd565b905080516000141580156140bb5750808060200190518101906140b99190614a79565b155b15613a93576040517f5274afe70000000000000000000000000000000000000000000000000000000081526001600160a01b03841660048201526024016107db565b60606130868383600084600080856001600160a01b031684866040516141239190614fe1565b60006040518083038185875af1925050503d8060008114614160576040519150601f19603f3d011682016040523d82523d6000602084013e614165565b606091505b509150915061417586838361417f565b9695505050505050565b6060826141945761418f826141f4565b613086565b81511580156141ab57506001600160a01b0384163b155b156141ed576040517f9996b3150000000000000000000000000000000000000000000000000000000081526001600160a01b03851660048201526024016107db565b5080613086565b8051156142045780518082602001fd5b6040517f1425ea4200000000000000000000000000000000000000000000000000000000815260040160405180910390fd5b5080546000825560020290600052602060002090810190613e1d9190614278565b5080546000825560040290600052602060002090810190613e1d91906142ba565b5b808211156142b65780547fffffffffffffffffffffffff000000000000000000000000000000000000000016815560006001820155600201614279565b5090565b5b808211156142b65780547fffffffffffffffffffffffff00000000000000000000000000000000000000001681556000600182018190556002820181905560038201556004016142bb565b60006020828403121561431857600080fd5b81357fffffffff000000000000000000000000000000000000000000000000000000008116811461308657600080fd5b60008083601f84011261435a57600080fd5b50813567ffffffffffffffff81111561437257600080fd5b6020830191508360208260061b850101111561438d57600080fd5b9250929050565b60008083601f8401126143a657600080fd5b50813567ffffffffffffffff8111156143be57600080fd5b60208301915083602082850101111561438d57600080fd5b6000806000806000606086880312156143ee57600080fd5b85359450602086013567ffffffffffffffff8082111561440d57600080fd5b61441989838a01614348565b9096509450604088013591508082111561443257600080fd5b5061443f88828901614394565b969995985093965092949392505050565b60006020828403121561446257600080fd5b5035919050565b60008060006040848603121561447e57600080fd5b83359250602084013567ffffffffffffffff81111561449c57600080fd5b6144a886828701614394565b9497909650939450505050565b60005b838110156144d05781810151838201526020016144b8565b50506000910152565b600081518084526144f18160208601602086016144b5565b601f01601f19169290920160200192915050565b602081528151602082015260208201516040820152600060408301516080606084015261453560a08401826144d9565b90506060840151151560808401528091505092915050565b6020808252825182820181905260009190848201906040850190845b8181101561458557835183529284019291840191600101614569565b50909695505050505050565b6001600160a01b0381168114613e1d57600080fd5b7f4e487b7100000000000000000000000000000000000000000000000000000000600052604160045260246000fd5b6040516080810167ffffffffffffffff811182821017156145f8576145f86145a6565b60405290565b604051601f8201601f1916810167ffffffffffffffff81118282101715614627576146276145a6565b604052919050565b600067ffffffffffffffff821115614649576146496145a6565b50601f01601f191660200190565b600082601f83011261466857600080fd5b813561467b6146768261462f565b6145fe565b81815284602083860101111561469057600080fd5b816020850160208301376000918101602001919091529392505050565b6000806000606084860312156146c257600080fd5b83356146cd81614591565b9250602084013567ffffffffffffffff808211156146ea57600080fd5b90850190608082880312156146fe57600080fd5b6147066145d5565b823581526020830135602082015260408301358281111561472657600080fd5b61473289828601614657565b60408301525060608301358281111561474a57600080fd5b61475689828601614657565b6060830152509350604086013591508082111561477257600080fd5b5061477f86828701614657565b9150509250925092565b60208152600061308660208301846144d9565b6000602082840312156147ae57600080fd5b813561308681614591565b6000806000604084860312156147ce57600080fd5b83359250602084013567ffffffffffffffff8111156147ec57600080fd5b6144a886828701614348565b6000806040838503121561480b57600080fd5b82359150602083013561481d81614591565b809150509250929050565b60008151808452602080850194506020840160005b8381101561488257815180516001600160a01b03168852838101518489015260408082015190890152606090810151908801526080909601959082019060010161483d565b509495945050505050565b6020815260006130866020830184614828565b600080604083850312156148b357600080fd5b82356148be81614591565b9150602083013567ffffffffffffffff8111156148da57600080fd5b6148e685828601614657565b9150509250929050565b60006020828403121561490257600080fd5b813567ffffffffffffffff81111561491957600080fd5b61492584828501614657565b949350505050565b6000806000806060858703121561494357600080fd5b8435935060208501359250604085013567ffffffffffffffff81111561496857600080fd5b61497487828801614394565b95989497509550505050565b6040815260006149936040830185614828565b90508260208301529392505050565b6000602080835260a083018451828501528185015160406080604087015282825180855260c0880191508584019450600093505b80841015614a0857845180516001600160a01b03168352860151868301529385019360019390930192908201906149d6565b5060408801519450601f19878203016060880152614a2681866144d9565b9450505050506060840151614a3f608085018215159052565b509392505050565b600060208284031215614a5957600080fd5b815161308681614591565b80518015158114614a7457600080fd5b919050565b600060208284031215614a8b57600080fd5b61308682614a64565b600060208284031215614aa657600080fd5b5051919050565b600060408284031215614abf57600080fd5b6040516040810181811067ffffffffffffffff82111715614ae257614ae26145a6565b6040528235614af081614591565b81526020928301359281019290925250919050565b600181811c90821680614b1957607f821691505b602082108103610f00577f4e487b7100000000000000000000000000000000000000000000000000000000600052602260045260246000fd5b7f4e487b7100000000000000000000000000000000000000000000000000000000600052601160045260246000fd5b60006000198203614b9457614b94614b52565b5060010190565b7f4e487b7100000000000000000000000000000000000000000000000000000000600052603260045260246000fd5b8135614bd581614591565b6001600160a01b0381167fffffffffffffffffffffffff000000000000000000000000000000000000000083541617825550602082013560018201555050565b601f821115613a93576000816000526020600020601f850160051c81016020861015614c3e5750805b601f850160051c820191505b81811015614c5d57828155600101614c4a565b505050505050565b67ffffffffffffffff831115614c7d57614c7d6145a6565b614c9183614c8b8354614b05565b83614c15565b6000601f841160018114614cc55760008515614cad5750838201355b600019600387901b1c1916600186901b178355613517565b600083815260209020601f19861690835b82811015614cf65786850135825560209485019460019092019101614cd6565b5086821015614d135760001960f88860031b161c19848701351681555b505060018560011b0183555050505050565b60008184825b85811015614d65578135614d3e81614591565b6001600160a01b031683526020828101359084015260409283019290910190600101614d2b565b509095945050505050565b818352818160208501375060006020828401015260006020601f19601f840116840101905092915050565b602081526000614925602083018486614d70565b8181038181111561054f5761054f614b52565b8183823760009101908152919050565b6000614de06146768461462f565b9050828152838383011115614df457600080fd5b6130868360208301846144b5565b6000806040808486031215614e1657600080fd5b614e1f84614a64565b925060208085015167ffffffffffffffff80821115614e3d57600080fd5b818701915087601f830112614e5157600080fd5b815181811115614e6357614e636145a6565b8060051b614e728582016145fe565b918252838101850191858101908b841115614e8c57600080fd5b86860192505b83831015614edc57825185811115614eaa5760008081fd5b8601603f81018d13614ebc5760008081fd5b614ecc8d898301518b8401614dd2565b8352509186019190860190614e92565b80985050505050505050509250929050565b848152836020820152606060408201526000614175606083018486614d70565b8082018082111561054f5761054f614b52565b815167ffffffffffffffff811115614f3b57614f3b6145a6565b614f4f81614f498454614b05565b84614c15565b602080601f831160018114614f845760008415614f6c5750858301515b600019600386901b1c1916600185901b178555614c5d565b600085815260208120601f198616915b82811015614fb357888601518255948401946001909101908401614f94565b5085821015614fd15787850151600019600388901b60f8161c191681555b5050505050600190811b01905550565b60008251614ff38184602087016144b5565b9190910192915050565b838152600083516150158160208501602088016144b5565b8083019050835161502d8160208401602088016144b5565b0160200195945050505050565b6001600160a01b038316815260406020820152600061492560408301846144d9565b6000806040838503121561506f57600080fd5b61507883614a64565b9150602083015167ffffffffffffffff81111561509457600080fd5b8301601f810185136150a557600080fd5b6148e685825160208401614dd2565b7f4e487b7100000000000000000000000000000000000000000000000000000000600052603160045260246000fdfea2646970667358221220d889d70bdeac0a27a01483e5484210f2f556d9dcaca3ee3848d0254a908d5dd264736f6c63430008170033",
    "linkReferences": {}
  },
  "methodIdentifiers": {
    "BOUNTY_ISSUER_ROLE()": "7bfee048",
    "CLAIMANT_ROLE()": "8a867368",
    "VERIFIER_ROLE()": "e7705db6",
    "addBounty(uint256,uint256,bytes)": "bd769f79",
    "addClaim(uint256,(address,uint256)[],bytes)": "0d97d72c",
    "amountPaid(uint256)": "13e64063",
    "collectPaymentOrders()": "c0231ff6",
    "decoder(bytes)": "9e978575",
    "getBountyInformation(uint256)": "31be580e",
    "getClaimInformation(uint256)": "cb05296f",
    "grantModuleRole(bytes32,address)": "6c67e807",
    "identifier()": "7998a1c4",
    "init(address,(uint256,uint256,string,string),bytes)": "42dfe958",
    "init2(address,bytes)": "9bfdf766",
    "isExistingBountyId(uint256)": "be5a5745",
    "isExistingClaimId(uint256)": "e2114c8c",
    "isTrustedForwarder(address)": "572b6c05",
    "listBountyIds()": "b5e8bc45",
    "listClaimIds()": "3cd6b5d1",
    "listClaimIdsForContributorAddress(address)": "9c16f525",
    "lockBounty(uint256)": "fa4dbd03",
    "orchestrator()": "b74795d9",
    "outstandingTokenAmount()": "a44a6bb2",
    "paymentOrders()": "75fa0b76",
    "revokeModuleRole(bytes32,address)": "bcb61920",
    "supportsInterface(bytes4)": "01ffc9a7",
    "title()": "4a79d50c",
    "updateBounty(uint256,bytes)": "31de0bdb",
    "updateClaimContributors(uint256,(address,uint256)[])": "5beaeb8c",
    "updateClaimDetails(uint256,bytes)": "2d54a71c",
    "url()": "5600f04f",
    "verifyClaim(uint256,(address,uint256)[])": "bf1f9656",
    "version()": "54fd4d50"
  },
  "id": 124
}