{
    "abi": [
        {
            "type": "constructor",
            "inputs": [
                {
                    "name": "_trustedForwarder",
                    "type": "address",
                    "internalType": "address"
                }
            ],
            "stateMutability": "nonpayable"
        },
        {
            "type": "function",
            "name": "acceptOwnership",
            "inputs": [],
            "outputs": [],
            "stateMutability": "nonpayable"
        },
        {
            "type": "function",
            "name": "createModule",
            "inputs": [
                {
                    "name": "metadata",
                    "type": "tuple",
                    "internalType": "struct IModule.Metadata",
                    "components": [
                        {
                            "name": "majorVersion",
                            "type": "uint256",
                            "internalType": "uint256"
                        },
                        {
                            "name": "minorVersion",
                            "type": "uint256",
                            "internalType": "uint256"
                        },
                        {
                            "name": "url",
                            "type": "string",
                            "internalType": "string"
                        },
                        {
                            "name": "title",
                            "type": "string",
                            "internalType": "string"
                        }
                    ]
                },
                {
                    "name": "orchestrator",
                    "type": "address",
                    "internalType": "contract IOrchestrator"
                },
                {
                    "name": "configData",
                    "type": "bytes",
                    "internalType": "bytes"
                }
            ],
            "outputs": [
                {
                    "name": "",
                    "type": "address",
                    "internalType": "address"
                }
            ],
            "stateMutability": "nonpayable"
        },
        {
            "type": "function",
            "name": "getBeaconAndId",
            "inputs": [
                {
                    "name": "metadata",
                    "type": "tuple",
                    "internalType": "struct IModule.Metadata",
                    "components": [
                        {
                            "name": "majorVersion",
                            "type": "uint256",
                            "internalType": "uint256"
                        },
                        {
                            "name": "minorVersion",
                            "type": "uint256",
                            "internalType": "uint256"
                        },
                        {
                            "name": "url",
                            "type": "string",
                            "internalType": "string"
                        },
                        {
                            "name": "title",
                            "type": "string",
                            "internalType": "string"
                        }
                    ]
                }
            ],
            "outputs": [
                {
                    "name": "",
                    "type": "address",
                    "internalType": "contract IInverterBeacon"
                },
                {
                    "name": "",
                    "type": "bytes32",
                    "internalType": "bytes32"
                }
            ],
            "stateMutability": "view"
        },
        {
            "type": "function",
            "name": "isTrustedForwarder",
            "inputs": [
                {
                    "name": "forwarder",
                    "type": "address",
                    "internalType": "address"
                }
            ],
            "outputs": [
                {
                    "name": "",
                    "type": "bool",
                    "internalType": "bool"
                }
            ],
            "stateMutability": "view"
        },
        {
            "type": "function",
            "name": "owner",
            "inputs": [],
            "outputs": [
                {
                    "name": "",
                    "type": "address",
                    "internalType": "address"
                }
            ],
            "stateMutability": "view"
        },
        {
            "type": "function",
            "name": "pendingOwner",
            "inputs": [],
            "outputs": [
                {
                    "name": "",
                    "type": "address",
                    "internalType": "address"
                }
            ],
            "stateMutability": "view"
        },
        {
            "type": "function",
            "name": "registerMetadata",
            "inputs": [
                {
                    "name": "metadata",
                    "type": "tuple",
                    "internalType": "struct IModule.Metadata",
                    "components": [
                        {
                            "name": "majorVersion",
                            "type": "uint256",
                            "internalType": "uint256"
                        },
                        {
                            "name": "minorVersion",
                            "type": "uint256",
                            "internalType": "uint256"
                        },
                        {
                            "name": "url",
                            "type": "string",
                            "internalType": "string"
                        },
                        {
                            "name": "title",
                            "type": "string",
                            "internalType": "string"
                        }
                    ]
                },
                {
                    "name": "beacon",
                    "type": "address",
                    "internalType": "contract IInverterBeacon"
                }
            ],
            "outputs": [],
            "stateMutability": "nonpayable"
        },
        {
            "type": "function",
            "name": "renounceOwnership",
            "inputs": [],
            "outputs": [],
            "stateMutability": "nonpayable"
        },
        {
            "type": "function",
            "name": "supportsInterface",
            "inputs": [
                {
                    "name": "interfaceId",
                    "type": "bytes4",
                    "internalType": "bytes4"
                }
            ],
            "outputs": [
                {
                    "name": "",
                    "type": "bool",
                    "internalType": "bool"
                }
            ],
            "stateMutability": "view"
        },
        {
            "type": "function",
            "name": "transferOwnership",
            "inputs": [
                {
                    "name": "newOwner",
                    "type": "address",
                    "internalType": "address"
                }
            ],
            "outputs": [],
            "stateMutability": "nonpayable"
        },
        {
            "type": "function",
            "name": "trustedForwarder",
            "inputs": [],
            "outputs": [
                {
                    "name": "",
                    "type": "address",
                    "internalType": "address"
                }
            ],
            "stateMutability": "view"
        },
        {
            "type": "event",
            "name": "MetadataRegistered",
            "inputs": [
                {
                    "name": "metadata",
                    "type": "tuple",
                    "indexed": true,
                    "internalType": "struct IModule.Metadata",
                    "components": [
                        {
                            "name": "majorVersion",
                            "type": "uint256",
                            "internalType": "uint256"
                        },
                        {
                            "name": "minorVersion",
                            "type": "uint256",
                            "internalType": "uint256"
                        },
                        {
                            "name": "url",
                            "type": "string",
                            "internalType": "string"
                        },
                        {
                            "name": "title",
                            "type": "string",
                            "internalType": "string"
                        }
                    ]
                },
                {
                    "name": "beacon",
                    "type": "address",
                    "indexed": true,
                    "internalType": "contract IInverterBeacon"
                }
            ],
            "anonymous": false
        },
        {
            "type": "event",
            "name": "ModuleCreated",
            "inputs": [
                {
                    "name": "orchestrator",
                    "type": "address",
                    "indexed": true,
                    "internalType": "address"
                },
                {
                    "name": "module",
                    "type": "address",
                    "indexed": true,
                    "internalType": "address"
                },
                {
                    "name": "identifier",
                    "type": "bytes32",
                    "indexed": false,
                    "internalType": "bytes32"
                }
            ],
            "anonymous": false
        },
        {
            "type": "event",
            "name": "OwnershipTransferStarted",
            "inputs": [
                {
                    "name": "previousOwner",
                    "type": "address",
                    "indexed": true,
                    "internalType": "address"
                },
                {
                    "name": "newOwner",
                    "type": "address",
                    "indexed": true,
                    "internalType": "address"
                }
            ],
            "anonymous": false
        },
        {
            "type": "event",
            "name": "OwnershipTransferred",
            "inputs": [
                {
                    "name": "previousOwner",
                    "type": "address",
                    "indexed": true,
                    "internalType": "address"
                },
                {
                    "name": "newOwner",
                    "type": "address",
                    "indexed": true,
                    "internalType": "address"
                }
            ],
            "anonymous": false
        },
        {
            "type": "error",
            "name": "ModuleFactory__InvalidInverterBeacon",
            "inputs": []
        },
        {
            "type": "error",
            "name": "ModuleFactory__InvalidMetadata",
            "inputs": []
        },
        {
            "type": "error",
            "name": "ModuleFactory__MetadataAlreadyRegistered",
            "inputs": []
        },
        {
            "type": "error",
            "name": "ModuleFactory__UnregisteredMetadata",
            "inputs": []
        },
        {
            "type": "error",
            "name": "OwnableInvalidOwner",
            "inputs": [
                {
                    "name": "owner",
                    "type": "address",
                    "internalType": "address"
                }
            ]
        },
        {
            "type": "error",
            "name": "OwnableUnauthorizedAccount",
            "inputs": [
                {
                    "name": "account",
                    "type": "address",
                    "internalType": "address"
                }
            ]
        }
    ],
    "bytecode": {
        "object": "0x60a06040523480156200001157600080fd5b506040516200150c3803806200150c833981016040819052620000349162000188565b6200003e62000086565b6001600160a01b0380831660805281166200007357604051631e4fbdf760e01b81526000600482015260240160405180910390fd5b6200007e8162000097565b50506200023f565b600062000092620000b5565b905090565b600180546001600160a01b0319169055620000b28162000111565b50565b6000366014620000c53362000161565b8015620000d25750808210155b156200010957600036620000e78385620001ba565b620000f4928290620001e2565b620000ff916200020e565b60601c9250505090565b339250505090565b600080546001600160a01b038381166001600160a01b0319831681178455604051919092169283917f8be0079c531659141344cd1fd0a4f28419497f9722a3daafe3b4186f6b6457e09190a35050565b60006200016d60805190565b6001600160a01b0316826001600160a01b0316149050919050565b6000602082840312156200019b57600080fd5b81516001600160a01b0381168114620001b357600080fd5b9392505050565b81810381811115620001dc57634e487b7160e01b600052601160045260246000fd5b92915050565b60008085851115620001f357600080fd5b838611156200020157600080fd5b5050820193919092039150565b6001600160601b03198135818116916014851015620002375780818660140360031b1b83161692505b505092915050565b6080516112a3620002696000396000818161010601528181610175015261096a01526112a36000f3fe608060405234801561001057600080fd5b50600436106100c95760003560e01c80637da0a87711610081578063cda4206a1161005b578063cda4206a146101bd578063e30c3978146101ef578063f2fde38b1461020057600080fd5b80637da0a877146101735780638da5cb5b14610199578063cd110406146101aa57600080fd5b806367ecfa5e116100b257806367ecfa5e14610136578063715018a61461016157806379ba50971461016b57600080fd5b806301ffc9a7146100ce578063572b6c05146100f6575b600080fd5b6100e16100dc3660046109e5565b610213565b60405190151581526020015b60405180910390f35b6100e1610104366004610a43565b7f00000000000000000000000000000000000000000000000000000000000000006001600160a01b0390811691161490565b610149610144366004610bc3565b6102ac565b6040516001600160a01b0390911681526020016100ed565b610169610490565b005b6101696104a4565b7f0000000000000000000000000000000000000000000000000000000000000000610149565b6000546001600160a01b0316610149565b6101696101b8366004610c4f565b610528565b6101d06101cb366004610ca1565b6106f9565b604080516001600160a01b0390931683526020830191909152016100ed565b6001546001600160a01b0316610149565b61016961020e366004610a43565b610729565b60007fffffffff0000000000000000000000000000000000000000000000000000000082167f6759de320000000000000000000000000000000000000000000000000000000014806102a657507f01ffc9a7000000000000000000000000000000000000000000000000000000007fffffffff000000000000000000000000000000000000000000000000000000008316145b92915050565b6000806102b8856106f9565b5090506001600160a01b0381166102fb576040517fbc885f3d00000000000000000000000000000000000000000000000000000000815260040160405180910390fd5b60006001600160a01b0316816001600160a01b0316635c60da1b6040518163ffffffff1660e01b8152600401602060405180830381865afa158015610344573d6000803e3d6000fd5b505050506040513d601f19601f820116820180604052508101906103689190610cde565b6001600160a01b03160361037e5761037e610cfb565b60008160405161038d906109d8565b6001600160a01b039091168152602001604051809103906000f0801580156103b9573d6000803e3d6000fd5b506040517f42dfe9580000000000000000000000000000000000000000000000000000000081529091506001600160a01b038216906342dfe958906104069088908a908990600401610d7a565b600060405180830381600087803b15801561042057600080fd5b505af1158015610434573d6000803e3d6000fd5b50505050806001600160a01b0316856001600160a01b03167f4aea2a8b5a2ff7c92db1aa60324a25bb8ac6b8751fb86ab49cc4bc554bdb9d4b610476896107b2565b60405190815260200160405180910390a395945050505050565b6104986107f2565b6104a26000610869565b565b60006104ae61089a565b9050806001600160a01b03166104cc6001546001600160a01b031690565b6001600160a01b03161461051c576040517f118cdaa70000000000000000000000000000000000000000000000000000000081526001600160a01b03821660048201526024015b60405180910390fd5b61052581610869565b50565b6105306107f2565b8161053a816108a9565b610570576040517fadc1baa100000000000000000000000000000000000000000000000000000000815260040160405180910390fd5b8160006001600160a01b0316816001600160a01b0316635c60da1b6040518163ffffffff1660e01b8152600401602060405180830381865afa1580156105ba573d6000803e3d6000fd5b505050506040513d601f19601f820116820180604052508101906105de9190610cde565b6001600160a01b03160361061e576040517ff9596d3200000000000000000000000000000000000000000000000000000000815260040160405180910390fd5b60008061062a866106f9565b90925090506001600160a01b03821615610670576040517f9bc9dc5600000000000000000000000000000000000000000000000000000000815260040160405180910390fd5b6000818152600260205260409081902080547fffffffffffffffffffffffff0000000000000000000000000000000000000000166001600160a01b03881690811790915590516106c1908890610e13565b604051908190038120907f80ab88cbf796aefcd53c97e7ed0b90589abb1b2d40e9c9f7e0a26f20e4b118b590600090a3505050505050565b6000806000610707846107b2565b6000818152600260205260409020546001600160a01b03169590945092505050565b6107316107f2565b600180546001600160a01b0383167fffffffffffffffffffffffff0000000000000000000000000000000000000000909116811790915561077a6000546001600160a01b031690565b6001600160a01b03167f38d16b8cac22d99fc7c124b9cd0de2d3fa1faef420bfe791d8c362d765e2270060405160405180910390a350565b60008160000151826040015183606001516040516020016107d593929190610e74565b604051602081830303815290604052805190602001209050919050565b6107fa61089a565b6001600160a01b03166108156000546001600160a01b031690565b6001600160a01b0316146104a25761082b61089a565b6040517f118cdaa70000000000000000000000000000000000000000000000000000000081526001600160a01b039091166004820152602401610513565b600180547fffffffffffffffffffffffff0000000000000000000000000000000000000000169055610525816108fb565b60006108a4610963565b905090565b60008160400151516000036108c057506000919050565b8160600151516000036108d557506000919050565b81511580156108e657506020820151155b156108f357506000919050565b506001919050565b600080546001600160a01b038381167fffffffffffffffffffffffff0000000000000000000000000000000000000000831681178455604051919092169283917f8be0079c531659141344cd1fd0a4f28419497f9722a3daafe3b4186f6b6457e09190a35050565b60003660147f00000000000000000000000000000000000000000000000000000000000000006001600160a01b0316331480156109a05750808210155b156109d0576000366109b28385610eb1565b6109bd928290610eeb565b6109c691610f15565b60601c9250505090565b339250505090565b61031080610f5e83390190565b6000602082840312156109f757600080fd5b81357fffffffff0000000000000000000000000000000000000000000000000000000081168114610a2757600080fd5b9392505050565b6001600160a01b038116811461052557600080fd5b600060208284031215610a5557600080fd5b8135610a2781610a2e565b7f4e487b7100000000000000000000000000000000000000000000000000000000600052604160045260246000fd5b600067ffffffffffffffff80841115610aaa57610aaa610a60565b604051601f8501601f19908116603f01168101908282118183101715610ad257610ad2610a60565b81604052809350858152868686011115610aeb57600080fd5b858560208301376000602087830101525050509392505050565b600082601f830112610b1657600080fd5b610a2783833560208501610a8f565b600060808284031215610b3757600080fd5b6040516080810167ffffffffffffffff8282108183111715610b5b57610b5b610a60565b8160405282935084358352602085013560208401526040850135915080821115610b8457600080fd5b610b9086838701610b05565b60408401526060850135915080821115610ba957600080fd5b50610bb685828601610b05565b6060830152505092915050565b600080600060608486031215610bd857600080fd5b833567ffffffffffffffff80821115610bf057600080fd5b610bfc87838801610b25565b945060208601359150610c0e82610a2e565b90925060408501359080821115610c2457600080fd5b508401601f81018613610c3657600080fd5b610c4586823560208401610a8f565b9150509250925092565b60008060408385031215610c6257600080fd5b823567ffffffffffffffff811115610c7957600080fd5b610c8585828601610b25565b9250506020830135610c9681610a2e565b809150509250929050565b600060208284031215610cb357600080fd5b813567ffffffffffffffff811115610cca57600080fd5b610cd684828501610b25565b949350505050565b600060208284031215610cf057600080fd5b8151610a2781610a2e565b7f4e487b7100000000000000000000000000000000000000000000000000000000600052600160045260246000fd5b60005b83811015610d45578181015183820152602001610d2d565b50506000910152565b60008151808452610d66816020860160208601610d2a565b601f01601f19169290920160200192915050565b6001600160a01b038416815260606020820152825160608201526020830151608082015260006040840151608060a0840152610db960e0840182610d4e565b905060608501517fffffffffffffffffffffffffffffffffffffffffffffffffffffffffffffffa08483030160c0850152610df48282610d4e565b9150508281036040840152610e098185610d4e565b9695505050505050565b8151815260208201516020820152600060408301518051610e3b816040860160208501610d2a565b601f19915081601f8201168401905060608501518051610e62816040850160208501610d2a565b601f0190921601604001949350505050565b83815260008351610e8c816020850160208801610d2a565b80830190508351610ea4816020840160208801610d2a565b0160200195945050505050565b818103818111156102a6577f4e487b7100000000000000000000000000000000000000000000000000000000600052601160045260246000fd5b60008085851115610efb57600080fd5b83861115610f0857600080fd5b5050820193919092039150565b7fffffffffffffffffffffffffffffffffffffffff0000000000000000000000008135818116916014851015610f555780818660140360031b1b83161692505b50509291505056fe60a060405234801561001057600080fd5b5060405161031038038061031083398101604081905261002f9161006d565b6001600160a01b03811660808190526040517f1cf3b03a6cf19fa2baba4df148e9dcabedea7f8a5c07840e207e5c089be95d3e90600090a25061009d565b60006020828403121561007f57600080fd5b81516001600160a01b038116811461009657600080fd5b9392505050565b6080516102526100be60003960008181606d015261010501526102526000f3fe60806040526004361061001e5760003560e01c806354fd4d5014610028575b610026610056565b005b34801561003457600080fd5b5061003d610068565b6040805192835260208301919091520160405180910390f35b610066610061610101565b610197565b565b6000807f000000000000000000000000000000000000000000000000000000000000000073ffffffffffffffffffffffffffffffffffffffff166354fd4d506040518163ffffffff1660e01b81526004016040805180830381865afa1580156100d5573d6000803e3d6000fd5b505050506040513d601f19601f820116820180604052508101906100f991906101bb565b915091509091565b60007f000000000000000000000000000000000000000000000000000000000000000073ffffffffffffffffffffffffffffffffffffffff16635c60da1b6040518163ffffffff1660e01b8152600401602060405180830381865afa15801561016e573d6000803e3d6000fd5b505050506040513d601f19601f8201168201806040525081019061019291906101df565b905090565b3660008037600080366000845af43d6000803e8080156101b6573d6000f35b3d6000fd5b600080604083850312156101ce57600080fd5b505080516020909101519092909150565b6000602082840312156101f157600080fd5b815173ffffffffffffffffffffffffffffffffffffffff8116811461021557600080fd5b939250505056fea2646970667358221220d1ffb976044c0604895cfb78564e2b7429eb5bb81e4a1b3f4d2de4ec9b70fabc64736f6c63430008170033a2646970667358221220865935138ac0147ac1102f517ca423ebbee63bda3ab1add6e8eccf3dbfb9377064736f6c63430008170033",
        "linkReferences": {}
    },
    "methodIdentifiers": {
        "acceptOwnership()": "79ba5097",
        "createModule((uint256,uint256,string,string),address,bytes)": "67ecfa5e",
        "getBeaconAndId((uint256,uint256,string,string))": "cda4206a",
        "isTrustedForwarder(address)": "572b6c05",
        "owner()": "8da5cb5b",
        "pendingOwner()": "e30c3978",
        "registerMetadata((uint256,uint256,string,string),address)": "cd110406",
        "renounceOwnership()": "715018a6",
        "supportsInterface(bytes4)": "01ffc9a7",
        "transferOwnership(address)": "f2fde38b",
        "trustedForwarder()": "7da0a877"
    },
    "id": 90
}