{
  "abi": [
    {
      "type": "constructor",
      "inputs": [],
      "stateMutability": "nonpayable"
    },
    {
      "type": "function",
      "name": "BURN_ADMIN_ROLE",
      "inputs": [],
      "outputs": [
        {
          "name": "",
          "type": "bytes32",
          "internalType": "bytes32"
        }
      ],
      "stateMutability": "view"
    },
    {
      "type": "function",
      "name": "DEFAULT_ADMIN_ROLE",
      "inputs": [],
      "outputs": [
        {
          "name": "",
          "type": "bytes32",
          "internalType": "bytes32"
        }
      ],
      "stateMutability": "view"
    },
    {
      "type": "function",
      "name": "ORCHESTRATOR_MANAGER_ROLE",
      "inputs": [],
      "outputs": [
        {
          "name": "",
          "type": "bytes32",
          "internalType": "bytes32"
        }
      ],
      "stateMutability": "view"
    },
    {
      "type": "function",
      "name": "ORCHESTRATOR_OWNER_ROLE",
      "inputs": [],
      "outputs": [
        {
          "name": "",
          "type": "bytes32",
          "internalType": "bytes32"
        }
      ],
      "stateMutability": "view"
    },
    {
      "type": "function",
      "name": "burnAdminFromModuleRole",
      "inputs": [
        {
          "name": "role",
          "type": "bytes32",
          "internalType": "bytes32"
        }
      ],
      "outputs": [],
      "stateMutability": "nonpayable"
    },
    {
      "type": "function",
      "name": "decoder",
      "inputs": [
        {
          "name": "data",
          "type": "bytes",
          "internalType": "bytes"
        }
      ],
      "outputs": [
        {
          "name": "requirement",
          "type": "bool",
          "internalType": "bool"
        }
      ],
      "stateMutability": "pure"
    },
    {
      "type": "function",
      "name": "generateRoleId",
      "inputs": [
        {
          "name": "module",
          "type": "address",
          "internalType": "address"
        },
        {
          "name": "role",
          "type": "bytes32",
          "internalType": "bytes32"
        }
      ],
      "outputs": [
        {
          "name": "",
          "type": "bytes32",
          "internalType": "bytes32"
        }
      ],
      "stateMutability": "pure"
    },
    {
      "type": "function",
      "name": "getManagerRole",
      "inputs": [],
      "outputs": [
        {
          "name": "",
          "type": "bytes32",
          "internalType": "bytes32"
        }
      ],
      "stateMutability": "pure"
    },
    {
      "type": "function",
      "name": "getOwnerRole",
      "inputs": [],
      "outputs": [
        {
          "name": "",
          "type": "bytes32",
          "internalType": "bytes32"
        }
      ],
      "stateMutability": "pure"
    },
    {
      "type": "function",
      "name": "getRoleAdmin",
      "inputs": [
        {
          "name": "role",
          "type": "bytes32",
          "internalType": "bytes32"
        }
      ],
      "outputs": [
        {
          "name": "",
          "type": "bytes32",
          "internalType": "bytes32"
        }
      ],
      "stateMutability": "view"
    },
    {
      "type": "function",
      "name": "getRoleMember",
      "inputs": [
        {
          "name": "role",
          "type": "bytes32",
          "internalType": "bytes32"
        },
        {
          "name": "index",
          "type": "uint256",
          "internalType": "uint256"
        }
      ],
      "outputs": [
        {
          "name": "",
          "type": "address",
          "internalType": "address"
        }
      ],
      "stateMutability": "view"
    },
    {
      "type": "function",
      "name": "getRoleMemberCount",
      "inputs": [
        {
          "name": "role",
          "type": "bytes32",
          "internalType": "bytes32"
        }
      ],
      "outputs": [
        {
          "name": "",
          "type": "uint256",
          "internalType": "uint256"
        }
      ],
      "stateMutability": "view"
    },
    {
      "type": "function",
      "name": "grantGlobalRole",
      "inputs": [
        {
          "name": "role",
          "type": "bytes32",
          "internalType": "bytes32"
        },
        {
          "name": "target",
          "type": "address",
          "internalType": "address"
        }
      ],
      "outputs": [],
      "stateMutability": "nonpayable"
    },
    {
      "type": "function",
      "name": "grantModuleRole",
      "inputs": [
        {
          "name": "role",
          "type": "bytes32",
          "internalType": "bytes32"
        },
        {
          "name": "addr",
          "type": "address",
          "internalType": "address"
        }
      ],
      "outputs": [],
      "stateMutability": "nonpayable"
    },
    {
      "type": "function",
      "name": "grantRole",
      "inputs": [
        {
          "name": "role",
          "type": "bytes32",
          "internalType": "bytes32"
        },
        {
          "name": "account",
          "type": "address",
          "internalType": "address"
        }
      ],
      "outputs": [],
      "stateMutability": "nonpayable"
    },
    {
      "type": "function",
      "name": "grantRoleFromModule",
      "inputs": [
        {
          "name": "role",
          "type": "bytes32",
          "internalType": "bytes32"
        },
        {
          "name": "target",
          "type": "address",
          "internalType": "address"
        }
      ],
      "outputs": [],
      "stateMutability": "nonpayable"
    },
    {
      "type": "function",
      "name": "hasModuleRole",
      "inputs": [
        {
          "name": "role",
          "type": "bytes32",
          "internalType": "bytes32"
        },
        {
          "name": "who",
          "type": "address",
          "internalType": "address"
        }
      ],
      "outputs": [
        {
          "name": "",
          "type": "bool",
          "internalType": "bool"
        }
      ],
      "stateMutability": "view"
    },
    {
      "type": "function",
      "name": "hasRole",
      "inputs": [
        {
          "name": "role",
          "type": "bytes32",
          "internalType": "bytes32"
        },
        {
          "name": "account",
          "type": "address",
          "internalType": "address"
        }
      ],
      "outputs": [
        {
          "name": "",
          "type": "bool",
          "internalType": "bool"
        }
      ],
      "stateMutability": "view"
    },
    {
      "type": "function",
      "name": "identifier",
      "inputs": [],
      "outputs": [
        {
          "name": "",
          "type": "bytes32",
          "internalType": "bytes32"
        }
      ],
      "stateMutability": "view"
    },
    {
      "type": "function",
      "name": "init",
      "inputs": [
        {
          "name": "orchestrator_",
          "type": "address",
          "internalType": "contract IOrchestrator"
        },
        {
          "name": "metadata",
          "type": "tuple",
          "internalType": "struct IModule.Metadata",
          "components": [
            {
              "name": "majorVersion",
              "type": "uint256",
              "internalType": "uint256"
            },
            {
              "name": "minorVersion",
              "type": "uint256",
              "internalType": "uint256"
            },
            {
              "name": "url",
              "type": "string",
              "internalType": "string"
            },
            {
              "name": "title",
              "type": "string",
              "internalType": "string"
            }
          ]
        },
        {
          "name": "configData",
          "type": "bytes",
          "internalType": "bytes"
        }
      ],
      "outputs": [],
      "stateMutability": "nonpayable"
    },
    {
      "type": "function",
      "name": "init2",
      "inputs": [
        {
          "name": "orchestrator_",
          "type": "address",
          "internalType": "contract IOrchestrator"
        },
        {
          "name": "dependencyData",
          "type": "bytes",
          "internalType": "bytes"
        }
      ],
      "outputs": [],
      "stateMutability": "nonpayable"
    },
    {
      "type": "function",
      "name": "isTrustedForwarder",
      "inputs": [
        {
          "name": "forwarder",
          "type": "address",
          "internalType": "address"
        }
      ],
      "outputs": [
        {
          "name": "",
          "type": "bool",
          "internalType": "bool"
        }
      ],
      "stateMutability": "view"
    },
    {
      "type": "function",
      "name": "orchestrator",
      "inputs": [],
      "outputs": [
        {
          "name": "",
          "type": "address",
          "internalType": "contract IOrchestrator"
        }
      ],
      "stateMutability": "view"
    },
    {
      "type": "function",
      "name": "renounceRole",
      "inputs": [
        {
          "name": "role",
          "type": "bytes32",
          "internalType": "bytes32"
        },
        {
          "name": "callerConfirmation",
          "type": "address",
          "internalType": "address"
        }
      ],
      "outputs": [],
      "stateMutability": "nonpayable"
    },
    {
      "type": "function",
      "name": "revokeGlobalRole",
      "inputs": [
        {
          "name": "role",
          "type": "bytes32",
          "internalType": "bytes32"
        },
        {
          "name": "target",
          "type": "address",
          "internalType": "address"
        }
      ],
      "outputs": [],
      "stateMutability": "nonpayable"
    },
    {
      "type": "function",
      "name": "revokeModuleRole",
      "inputs": [
        {
          "name": "role",
          "type": "bytes32",
          "internalType": "bytes32"
        },
        {
          "name": "addr",
          "type": "address",
          "internalType": "address"
        }
      ],
      "outputs": [],
      "stateMutability": "nonpayable"
    },
    {
      "type": "function",
      "name": "revokeRole",
      "inputs": [
        {
          "name": "role",
          "type": "bytes32",
          "internalType": "bytes32"
        },
        {
          "name": "account",
          "type": "address",
          "internalType": "address"
        }
      ],
      "outputs": [],
      "stateMutability": "nonpayable"
    },
    {
      "type": "function",
      "name": "revokeRoleFromModule",
      "inputs": [
        {
          "name": "role",
          "type": "bytes32",
          "internalType": "bytes32"
        },
        {
          "name": "target",
          "type": "address",
          "internalType": "address"
        }
      ],
      "outputs": [],
      "stateMutability": "nonpayable"
    },
    {
      "type": "function",
      "name": "supportsInterface",
      "inputs": [
        {
          "name": "interfaceId",
          "type": "bytes4",
          "internalType": "bytes4"
        }
      ],
      "outputs": [
        {
          "name": "",
          "type": "bool",
          "internalType": "bool"
        }
      ],
      "stateMutability": "view"
    },
    {
      "type": "function",
      "name": "title",
      "inputs": [],
      "outputs": [
        {
          "name": "",
          "type": "string",
          "internalType": "string"
        }
      ],
      "stateMutability": "view"
    },
    {
      "type": "function",
      "name": "transferAdminRole",
      "inputs": [
        {
          "name": "roleId",
          "type": "bytes32",
          "internalType": "bytes32"
        },
        {
          "name": "newAdmin",
          "type": "bytes32",
          "internalType": "bytes32"
        }
      ],
      "outputs": [],
      "stateMutability": "nonpayable"
    },
    {
      "type": "function",
      "name": "url",
      "inputs": [],
      "outputs": [
        {
          "name": "",
          "type": "string",
          "internalType": "string"
        }
      ],
      "stateMutability": "view"
    },
    {
      "type": "function",
      "name": "version",
      "inputs": [],
      "outputs": [
        {
          "name": "",
          "type": "uint256",
          "internalType": "uint256"
        },
        {
          "name": "",
          "type": "uint256",
          "internalType": "uint256"
        }
      ],
      "stateMutability": "view"
    },
    {
      "type": "event",
      "name": "Initialized",
      "inputs": [
        {
          "name": "version",
          "type": "uint64",
          "indexed": false,
          "internalType": "uint64"
        }
      ],
      "anonymous": false
    },
    {
      "type": "event",
      "name": "ModuleInitialized",
      "inputs": [
        {
          "name": "parentOrchestrator",
          "type": "address",
          "indexed": true,
          "internalType": "address"
        },
        {
          "name": "moduleTitle",
          "type": "string",
          "indexed": true,
          "internalType": "string"
        },
        {
          "name": "majorVersion",
          "type": "uint256",
          "indexed": false,
          "internalType": "uint256"
        },
        {
          "name": "minorVersion",
          "type": "uint256",
          "indexed": false,
          "internalType": "uint256"
        }
      ],
      "anonymous": false
    },
    {
      "type": "event",
      "name": "RoleAdminChanged",
      "inputs": [
        {
          "name": "role",
          "type": "bytes32",
          "indexed": true,
          "internalType": "bytes32"
        },
        {
          "name": "previousAdminRole",
          "type": "bytes32",
          "indexed": true,
          "internalType": "bytes32"
        },
        {
          "name": "newAdminRole",
          "type": "bytes32",
          "indexed": true,
          "internalType": "bytes32"
        }
      ],
      "anonymous": false
    },
    {
      "type": "event",
      "name": "RoleGranted",
      "inputs": [
        {
          "name": "role",
          "type": "bytes32",
          "indexed": true,
          "internalType": "bytes32"
        },
        {
          "name": "account",
          "type": "address",
          "indexed": true,
          "internalType": "address"
        },
        {
          "name": "sender",
          "type": "address",
          "indexed": true,
          "internalType": "address"
        }
      ],
      "anonymous": false
    },
    {
      "type": "event",
      "name": "RoleRevoked",
      "inputs": [
        {
          "name": "role",
          "type": "bytes32",
          "indexed": true,
          "internalType": "bytes32"
        },
        {
          "name": "account",
          "type": "address",
          "indexed": true,
          "internalType": "address"
        },
        {
          "name": "sender",
          "type": "address",
          "indexed": true,
          "internalType": "address"
        }
      ],
      "anonymous": false
    },
    {
      "type": "error",
      "name": "AccessControlBadConfirmation",
      "inputs": []
    },
    {
      "type": "error",
      "name": "AccessControlUnauthorizedAccount",
      "inputs": [
        {
          "name": "account",
          "type": "address",
          "internalType": "address"
        },
        {
          "name": "neededRole",
          "type": "bytes32",
          "internalType": "bytes32"
        }
      ]
    },
    {
      "type": "error",
      "name": "InvalidInitialization",
      "inputs": []
    },
    {
      "type": "error",
      "name": "Module_OrchestratorCallbackFailed",
      "inputs": [
        {
          "name": "funcSig",
          "type": "string",
          "internalType": "string"
        }
      ]
    },
    {
      "type": "error",
      "name": "Module__CallerNotAuthorized",
      "inputs": [
        {
          "name": "role",
          "type": "bytes32",
          "internalType": "bytes32"
        },
        {
          "name": "caller",
          "type": "address",
          "internalType": "address"
        }
      ]
    },
    {
      "type": "error",
      "name": "Module__CannotCallInit2Again",
      "inputs": []
    },
    {
      "type": "error",
      "name": "Module__InvalidMetadata",
      "inputs": []
    },
    {
      "type": "error",
      "name": "Module__InvalidOrchestratorAddress",
      "inputs": []
    },
    {
      "type": "error",
      "name": "Module__NoDependencyOrMalformedDependencyData",
      "inputs": []
    },
    {
      "type": "error",
      "name": "Module__OnlyCallableByOrchestrator",
      "inputs": []
    },
    {
      "type": "error",
      "name": "Module__RoleAuthorizer__ModuleNotSelfManaged",
      "inputs": []
    },
    {
      "type": "error",
      "name": "Module__RoleAuthorizer__NotActiveModule",
      "inputs": [
        {
          "name": "module",
          "type": "address",
          "internalType": "address"
        }
      ]
    },
    {
      "type": "error",
      "name": "Module__RoleAuthorizer__OwnerRoleCannotBeEmpty",
      "inputs": []
    },
    {
      "type": "error",
      "name": "NotInitializing",
      "inputs": []
    }
  ],
  "bytecode": {
    "object": "0x60806040523480156200001157600080fd5b506200001c62000030565b6200002a60001980620000e4565b62000189565b7ff0c57e16840df040f15088dc2f81fe391c3923bec73e23a9662efc9c229c6a00805468010000000000000000900460ff1615620000815760405163f92ee8a960e01b815260040160405180910390fd5b80546001600160401b0390811614620000e15780546001600160401b0319166001600160401b0390811782556040519081527fc7f505b2f371ae2175ee4913f4499e1f2633a7b5936321eed1cdaeb6115181d29060200160405180910390a15b50565b7f02dd7bc7dec4dceedda775e58dd541e08a116c6c53815c0bd028192f7b6268006000620001408460009081527f02dd7bc7dec4dceedda775e58dd541e08a116c6c53815c0bd028192f7b626800602052604090206001015490565b600085815260208490526040808220600101869055519192508491839187917fbd79b86ffe0ab8e8776151514217cd7cacd52c909f66475c3af44e129f0b00ff9190a450505050565b6128f980620001996000396000f3fe608060405234801561001057600080fd5b506004361061020b5760003560e01c806391d148541161012a578063bcb61920116100bd578063e38a584c1161008c578063f3aafa7011610071578063f3aafa70146104fe578063fb31277814610511578063fdd5205f1461051f57600080fd5b8063e38a584c146104d8578063e99b6e13146104eb57600080fd5b8063bcb619201461048c578063ca15c8731461049f578063d547741f146104b2578063e1788154146104c557600080fd5b8063a217fddf116100f9578063a217fddf14610452578063b3cb19911461045a578063b74795d914610463578063ba66f9fc1461047957600080fd5b806391d14854146103c157806399df6ff1146104195780639bfdf7661461042c5780639e9785751461043f57600080fd5b806355ff58d4116101a257806361bcd0c41161017157806361bcd0c4146103685780636c67e8071461037b5780637998a1c41461038e5780639010d07c1461039657600080fd5b806355ff58d4146103195780635600f04f14610326578063572b6c051461032e5780635b58890e1461034157600080fd5b806336568abe116101de57806336568abe146102c357806342dfe958146102d65780634a79d50c146102e957806354fd4d50146102fe57600080fd5b806301ffc9a714610210578063248a9ca3146102385780632f2ff15d14610288578063328c4c301461029d575b600080fd5b61022361021e3660046120f8565b610587565b60405190151581526020015b60405180910390f35b61027a61024636600461213a565b60009081527f02dd7bc7dec4dceedda775e58dd541e08a116c6c53815c0bd028192f7b626800602052604090206001015490565b60405190815260200161022f565b61029b610296366004612168565b6105e3565b005b7f307830320000000000000000000000000000000000000000000000000000000061027a565b61029b6102d1366004612168565b61062d565b61029b6102e436600461229f565b61068e565b6102f1610838565b60405161022f91906123cb565b6001546002546040805192835260208301919091520161022f565b633078303160e01b61027a565b6102f16108cd565b61022361033c3660046123de565b6108df565b61027a7f307830320000000000000000000000000000000000000000000000000000000081565b61029b610376366004612168565b61096d565b61029b610389366004612168565b610a03565b61027a610cd6565b6103a96103a43660046123fb565b610e26565b6040516001600160a01b03909116815260200161022f565b6102236103cf366004612168565b60009182527f02dd7bc7dec4dceedda775e58dd541e08a116c6c53815c0bd028192f7b626800602090815260408084206001600160a01b0393909316845291905290205460ff1690565b61029b610427366004612168565b610e67565b61029b61043a36600461241d565b610e9f565b61022361044d36600461246d565b610f29565b61027a600081565b61027a60001981565b60005461010090046001600160a01b03166103a9565b61029b610487366004612168565b610f46565b61029b61049a366004612168565b611034565b61027a6104ad36600461213a565b611289565b61029b6104c0366004612168565b6112c8565b61029b6104d3366004612168565b61130c565b61029b6104e63660046123fb565b6113fa565b61029b6104f936600461213a565b61143e565b61022361050c366004612168565b611595565b61027a633078303160e01b81565b61027a61052d3660046124a2565b6040517fffffffffffffffffffffffffffffffffffffffff000000000000000000000000606084901b1660208201526034810182905260009060540160405160208183030381529060405280519060200120905092915050565b60007fffffffff0000000000000000000000000000000000000000000000000000000082167fc0603f090000000000000000000000000000000000000000000000000000000014806105dd57506105dd826115f0565b92915050565b60008281527f02dd7bc7dec4dceedda775e58dd541e08a116c6c53815c0bd028192f7b626800602052604090206001015461061d81611687565b610627838361169b565b50505050565b6106356116f2565b6001600160a01b0316816001600160a01b03161461067f576040517f6697b23200000000000000000000000000000000000000000000000000000000815260040160405180910390fd5b61068982826116fc565b505050565b7ff0c57e16840df040f15088dc2f81fe391c3923bec73e23a9662efc9c229c6a00805468010000000000000000810460ff16159067ffffffffffffffff166000811580156106d95750825b905060008267ffffffffffffffff1660011480156106f65750303b155b905081158015610704575080155b1561073b576040517ff92ee8a900000000000000000000000000000000000000000000000000000000815260040160405180910390fd5b84547fffffffffffffffffffffffffffffffffffffffffffffffff0000000000000000166001178555831561079c5784547fffffffffffffffffffffffffffffffffffffffffffffff00ffffffffffffffff16680100000000000000001785555b6107a68888611766565b600080878060200190518101906107bd91906124ce565b915091506107cb82826118c5565b5050831561082e5784547fffffffffffffffffffffffffffffffffffffffffffffff00ffffffffffffffff168555604051600181527fc7f505b2f371ae2175ee4913f4499e1f2633a7b5936321eed1cdaeb6115181d29060200160405180910390a15b5050505050505050565b60606001600301805461084a906124fd565b80601f0160208091040260200160405190810160405280929190818152602001828054610876906124fd565b80156108c35780601f10610898576101008083540402835291602001916108c3565b820191906000526020600020905b8154815290600101906020018083116108a657829003601f168201915b5050505050905090565b60606001600201805461084a906124fd565b600080546040517f572b6c050000000000000000000000000000000000000000000000000000000081526001600160a01b0384811660048301526101009092049091169063572b6c0590602401602060405180830381865afa158015610949573d6000803e3d6000fd5b505050506040513d601f19601f820116820180604052508101906105dd9190612560565b633078303160e01b61097e81611687565b600080546109f09061010090046001600160a01b03165b856040517fffffffffffffffffffffffffffffffffffffffff000000000000000000000000606084901b1660208201526034810182905260009060540160405160208183030381529060405280519060200120905092915050565b90506109fc818461169b565b5050505050565b60008060019054906101000a90046001600160a01b03166001600160a01b031663d09edf316040518163ffffffff1660e01b8152600401602060405180830381865afa158015610a57573d6000803e3d6000fd5b505050506040513d601f19601f82011682018060405250810190610a7b919061257b565b90506000816001600160a01b03166355ff58d46040518163ffffffff1660e01b8152600401602060405180830381865afa158015610abd573d6000803e3d6000fd5b505050506040513d601f19601f82011682018060405250810190610ae19190612598565b9050816001600160a01b03166391d1485482610afb6116f2565b6040517fffffffff0000000000000000000000000000000000000000000000000000000060e085901b16815260048101929092526001600160a01b03166024820152604401602060405180830381865afa158015610b5d573d6000803e3d6000fd5b505050506040513d601f19601f82011682018060405250810190610b819190612560565b610bd75780610b8e6116f2565b6040517f42abbb7700000000000000000000000000000000000000000000000000000000815260048101929092526001600160a01b031660248201526044015b60405180910390fd5b60008060019054906101000a90046001600160a01b03166001600160a01b031663d09edf316040518163ffffffff1660e01b8152600401602060405180830381865afa158015610c2b573d6000803e3d6000fd5b505050506040513d601f19601f82011682018060405250810190610c4f919061257b565b6040517fe1788154000000000000000000000000000000000000000000000000000000008152600481018790526001600160a01b0386811660248301529192509082169063e1788154906044015b600060405180830381600087803b158015610cb757600080fd5b505af1158015610ccb573d6000803e3d6000fd5b505050505050505050565b60408051608081018252600180548252600254602083015260038054600094610e2194939290840191610d08906124fd565b80601f0160208091040260200160405190810160405280929190818152602001828054610d34906124fd565b8015610d815780601f10610d5657610100808354040283529160200191610d81565b820191906000526020600020905b815481529060010190602001808311610d6457829003601f168201915b50505050508152602001600382018054610d9a906124fd565b80601f0160208091040260200160405190810160405280929190818152602001828054610dc6906124fd565b8015610e135780601f10610de857610100808354040283529160200191610e13565b820191906000526020600020905b815481529060010190602001808311610df657829003601f168201915b505050505081525050611988565b905090565b60008281527fc1f6fe24621ce81ec5827caf0253cadb74709b061630e6b55e82371705932000602081905260408220610e5f90846119c8565b949350505050565b633078303160e01b610e7881611687565b60008054610e939061010090046001600160a01b0316610995565b90506109fc81846116fc565b60005460ff1615610edc576040517f904875a100000000000000000000000000000000000000000000000000000000815260040160405180910390fd5b6000805460ff1916600117905580610ef3816119d4565b610689576040517feef043ae00000000000000000000000000000000000000000000000000000000815260040160405180910390fd5b600081806020019051810190610f3f91906125b1565b5092915050565b610f4e6116f2565b60005461010090046001600160a01b03166040517f42f6e3890000000000000000000000000000000000000000000000000000000081526001600160a01b03838116600483015291909116906342f6e389906024016020604051808303816000875af1158015610fc2573d6000803e3d6000fd5b505050506040513d601f19601f82011682018060405250810190610fe69190612560565b611027576040517f18d61cb50000000000000000000000000000000000000000000000000000000081526001600160a01b0382166004820152602401610bce565b6000610e936109956116f2565b60008060019054906101000a90046001600160a01b03166001600160a01b031663d09edf316040518163ffffffff1660e01b8152600401602060405180830381865afa158015611088573d6000803e3d6000fd5b505050506040513d601f19601f820116820180604052508101906110ac919061257b565b90506000816001600160a01b03166355ff58d46040518163ffffffff1660e01b8152600401602060405180830381865afa1580156110ee573d6000803e3d6000fd5b505050506040513d601f19601f820116820180604052508101906111129190612598565b9050816001600160a01b03166391d148548261112c6116f2565b6040517fffffffff0000000000000000000000000000000000000000000000000000000060e085901b16815260048101929092526001600160a01b03166024820152604401602060405180830381865afa15801561118e573d6000803e3d6000fd5b505050506040513d601f19601f820116820180604052508101906111b29190612560565b6111bf5780610b8e6116f2565b60008060019054906101000a90046001600160a01b03166001600160a01b031663d09edf316040518163ffffffff1660e01b8152600401602060405180830381865afa158015611213573d6000803e3d6000fd5b505050506040513d601f19601f82011682018060405250810190611237919061257b565b6040517fba66f9fc000000000000000000000000000000000000000000000000000000008152600481018790526001600160a01b0386811660248301529192509082169063ba66f9fc90604401610c9d565b60008181527fc1f6fe24621ce81ec5827caf0253cadb74709b061630e6b55e823717059320006020819052604082206112c190611ada565b9392505050565b60008281527f02dd7bc7dec4dceedda775e58dd541e08a116c6c53815c0bd028192f7b626800602052604090206001015461130281611687565b61062783836116fc565b6113146116f2565b60005461010090046001600160a01b03166040517f42f6e3890000000000000000000000000000000000000000000000000000000081526001600160a01b03838116600483015291909116906342f6e389906024016020604051808303816000875af1158015611388573d6000803e3d6000fd5b505050506040513d601f19601f820116820180604052508101906113ac9190612560565b6113ed576040517f18d61cb50000000000000000000000000000000000000000000000000000000081526001600160a01b0382166004820152602401610bce565b60006109f06109956116f2565b60008281527f02dd7bc7dec4dceedda775e58dd541e08a116c6c53815c0bd028192f7b626800602052604090206001015461143481611687565b6106898383611ae4565b6114466116f2565b60005461010090046001600160a01b03166040517f42f6e3890000000000000000000000000000000000000000000000000000000081526001600160a01b03838116600483015291909116906342f6e389906024016020604051808303816000875af11580156114ba573d6000803e3d6000fd5b505050506040513d601f19601f820116820180604052508101906114de9190612560565b61151f576040517f18d61cb50000000000000000000000000000000000000000000000000000000081526001600160a01b0382166004820152602401610bce565b600061158761152c6116f2565b846040517fffffffffffffffffffffffffffffffffffffffff000000000000000000000000606084901b1660208201526034810182905260009060540160405160208183030381529060405280519060200120905092915050565b905061068981600019611ae4565b6000806115a36109956116f2565b60008181527f02dd7bc7dec4dceedda775e58dd541e08a116c6c53815c0bd028192f7b626800602090815260408083206001600160a01b038816845290915290205490915060ff16610e5f565b60007fffffffff0000000000000000000000000000000000000000000000000000000082167fd883df120000000000000000000000000000000000000000000000000000000014806105dd57507f01ffc9a7000000000000000000000000000000000000000000000000000000007fffffffff000000000000000000000000000000000000000000000000000000008316146105dd565b611698816116936116f2565b611b88565b50565b60007fc1f6fe24621ce81ec5827caf0253cadb74709b061630e6b55e82371705932000816116c98585611c15565b90508015610e5f5760008581526020839052604090206116e99085611ce5565b50949350505050565b6000610e21611cfa565b600082633078303160e01b8114801561172557506001611722633078303160e01b611289565b11155b1561175c576040517f73a9f13900000000000000000000000000000000000000000000000000000000815260040160405180910390fd5b610e5f8484611db9565b61176e611e07565b6001600160a01b0382166117ae576040517f7280679300000000000000000000000000000000000000000000000000000000815260040160405180910390fd5b600080547fffffffffffffffffffffff0000000000000000000000000000000000000000ff166101006001600160a01b038516021790556117ee81611e70565b611824576040517f7511254100000000000000000000000000000000000000000000000000000000815260040160405180910390fd5b80516001908155602082015160025560408201518291906003906118489082612712565b506060820151600382019061185d9082612712565b505050606081015160405161187291906127d2565b604080519182900382208351602080860151918552840152916001600160a01b038516917feb175f148a71d29a5f7bf5439182fcd81e6ea9cfc8a11b54ab0f705fa98fa8ca910160405180910390a35050565b6118cd611e07565b6118de633078303160e01b80611ae4565b6118f06000633078303160e01b611ae4565b6119217f3078303200000000000000000000000000000000000000000000000000000000633078303160e01b611ae4565b61194b7f30783032000000000000000000000000000000000000000000000000000000008261169b565b506001600160a01b0382161561196c57610689633078303160e01b8361169b565b610689633078303160e01b61197f6116f2565b61169b565b5050565b60008160000151826040015183606001516040516020016119ab939291906127ee565b604051602081830303815290604052805190602001209050919050565b60006112c18383611ec2565b6040517f9e9785750000000000000000000000000000000000000000000000000000000081526000903090639e97857590611a139085906004016123cb565b602060405180830381865afa925050508015611a4c575060408051601f3d908101601f19168201909252611a4991810190612560565b60015b611a5857506000919050565b6040517f9e9785750000000000000000000000000000000000000000000000000000000081523090639e97857590611a949086906004016123cb565b602060405180830381865afa158015611ab1573d6000803e3d6000fd5b505050506040513d601f19601f820116820180604052508101906112c19190612560565b919050565b60006105dd825490565b7f02dd7bc7dec4dceedda775e58dd541e08a116c6c53815c0bd028192f7b6268006000611b3f8460009081527f02dd7bc7dec4dceedda775e58dd541e08a116c6c53815c0bd028192f7b626800602052604090206001015490565b600085815260208490526040808220600101869055519192508491839187917fbd79b86ffe0ab8e8776151514217cd7cacd52c909f66475c3af44e129f0b00ff9190a450505050565b60008281527f02dd7bc7dec4dceedda775e58dd541e08a116c6c53815c0bd028192f7b626800602090815260408083206001600160a01b038516845290915290205460ff16611984576040517fe2517d3f0000000000000000000000000000000000000000000000000000000081526001600160a01b038216600482015260248101839052604401610bce565b60008281527f02dd7bc7dec4dceedda775e58dd541e08a116c6c53815c0bd028192f7b626800602081815260408084206001600160a01b038616855290915282205460ff16611cdb576000848152602082815260408083206001600160a01b03871684529091529020805460ff19166001179055611c916116f2565b6001600160a01b0316836001600160a01b0316857f2f8788117e7eff1d82e926ec794901d17c78024a50270940304540a733656f0d60405160405180910390a460019150506105dd565b60009150506105dd565b60006112c1836001600160a01b038416611eec565b600080546040517f572b6c050000000000000000000000000000000000000000000000000000000081523360048201526101009091046001600160a01b03169063572b6c0590602401602060405180830381865afa158015611d60573d6000803e3d6000fd5b505050506040513d601f19601f82011682018060405250810190611d849190612560565b15611db457507fffffffffffffffffffffffffffffffffffffffffffffffffffffffffffffffec36013560601c90565b503390565b60007fc1f6fe24621ce81ec5827caf0253cadb74709b061630e6b55e8237170593200081611de78585611f3b565b90508015610e5f5760008581526020839052604090206116e99085611fff565b7ff0c57e16840df040f15088dc2f81fe391c3923bec73e23a9662efc9c229c6a005468010000000000000000900460ff16611e6e576040517fd7e6bcf800000000000000000000000000000000000000000000000000000000815260040160405180910390fd5b565b6000816040015151600003611e8757506000919050565b816060015151600003611e9c57506000919050565b8151158015611ead57506020820151155b15611eba57506000919050565b506001919050565b6000826000018281548110611ed957611ed961282b565b9060005260206000200154905092915050565b6000818152600183016020526040812054611f33575081546001818101845560008481526020808220909301849055845484825282860190935260409020919091556105dd565b5060006105dd565b60008281527f02dd7bc7dec4dceedda775e58dd541e08a116c6c53815c0bd028192f7b626800602081815260408084206001600160a01b038616855290915282205460ff1615611cdb576000848152602082815260408083206001600160a01b03871684529091529020805460ff19169055611fb56116f2565b6001600160a01b0316836001600160a01b0316857ff6391f5c32d9c69d2a47ea670b442974b53935d1edc7fd64eb21e047a839171b60405160405180910390a460019150506105dd565b60006112c1836001600160a01b03841660008181526001830160205260408120548015611cdb57600061203360018361285a565b85549091506000906120479060019061285a565b90508082146120ac5760008660000182815481106120675761206761282b565b906000526020600020015490508087600001848154811061208a5761208a61282b565b6000918252602080832090910192909255918252600188019052604090208390555b85548690806120bd576120bd612894565b6001900381819060005260206000200160009055905585600101600086815260200190815260200160002060009055600193505050506105dd565b60006020828403121561210a57600080fd5b81357fffffffff00000000000000000000000000000000000000000000000000000000811681146112c157600080fd5b60006020828403121561214c57600080fd5b5035919050565b6001600160a01b038116811461169857600080fd5b6000806040838503121561217b57600080fd5b82359150602083013561218d81612153565b809150509250929050565b7f4e487b7100000000000000000000000000000000000000000000000000000000600052604160045260246000fd5b6040516080810167ffffffffffffffff811182821017156121ea576121ea612198565b60405290565b604051601f8201601f1916810167ffffffffffffffff8111828210171561221957612219612198565b604052919050565b600067ffffffffffffffff82111561223b5761223b612198565b50601f01601f191660200190565b600082601f83011261225a57600080fd5b813561226d61226882612221565b6121f0565b81815284602083860101111561228257600080fd5b816020850160208301376000918101602001919091529392505050565b6000806000606084860312156122b457600080fd5b83356122bf81612153565b9250602084013567ffffffffffffffff808211156122dc57600080fd5b90850190608082880312156122f057600080fd5b6122f86121c7565b823581526020830135602082015260408301358281111561231857600080fd5b61232489828601612249565b60408301525060608301358281111561233c57600080fd5b61234889828601612249565b6060830152509350604086013591508082111561236457600080fd5b5061237186828701612249565b9150509250925092565b60005b8381101561239657818101518382015260200161237e565b50506000910152565b600081518084526123b781602086016020860161237b565b601f01601f19169290920160200192915050565b6020815260006112c1602083018461239f565b6000602082840312156123f057600080fd5b81356112c181612153565b6000806040838503121561240e57600080fd5b50508035926020909101359150565b6000806040838503121561243057600080fd5b823561243b81612153565b9150602083013567ffffffffffffffff81111561245757600080fd5b61246385828601612249565b9150509250929050565b60006020828403121561247f57600080fd5b813567ffffffffffffffff81111561249657600080fd5b610e5f84828501612249565b600080604083850312156124b557600080fd5b82356124c081612153565b946020939093013593505050565b600080604083850312156124e157600080fd5b82516124ec81612153565b602084015190925061218d81612153565b600181811c9082168061251157607f821691505b60208210810361254a577f4e487b7100000000000000000000000000000000000000000000000000000000600052602260045260246000fd5b50919050565b80518015158114611ad557600080fd5b60006020828403121561257257600080fd5b6112c182612550565b60006020828403121561258d57600080fd5b81516112c181612153565b6000602082840312156125aa57600080fd5b5051919050565b60008060408084860312156125c557600080fd5b6125ce84612550565b925060208085015167ffffffffffffffff808211156125ec57600080fd5b818701915087601f83011261260057600080fd5b81518181111561261257612612612198565b8060051b6126218582016121f0565b918252838101850191858101908b84111561263b57600080fd5b86860192505b838310156126b0578251858111156126595760008081fd5b8601603f81018d1361266b5760008081fd5b8781015161267b61226882612221565b8181528e8b8385010111156126905760008081fd5b61269f828b83018d860161237b565b845250509186019190860190612641565b80985050505050505050509250929050565b601f821115610689576000816000526020600020601f850160051c810160208610156126eb5750805b601f850160051c820191505b8181101561270a578281556001016126f7565b505050505050565b815167ffffffffffffffff81111561272c5761272c612198565b6127408161273a84546124fd565b846126c2565b602080601f831160018114612775576000841561275d5750858301515b600019600386901b1c1916600185901b17855561270a565b600085815260208120601f198616915b828110156127a457888601518255948401946001909101908401612785565b50858210156127c25787850151600019600388901b60f8161c191681555b5050505050600190811b01905550565b600082516127e481846020870161237b565b9190910192915050565b8381526000835161280681602085016020880161237b565b8083019050835161281e81602084016020880161237b565b0160200195945050505050565b7f4e487b7100000000000000000000000000000000000000000000000000000000600052603260045260246000fd5b818103818111156105dd577f4e487b7100000000000000000000000000000000000000000000000000000000600052601160045260246000fd5b7f4e487b7100000000000000000000000000000000000000000000000000000000600052603160045260246000fdfea264697066735822122054f7af63319adf2c22f51d0943627a67c34e8d86618a9010c0e5324d9bb9d4c464736f6c63430008170033",
    "linkReferences": {}
  },
  "methodIdentifiers": {
    "BURN_ADMIN_ROLE()": "b3cb1991",
    "DEFAULT_ADMIN_ROLE()": "a217fddf",
    "ORCHESTRATOR_MANAGER_ROLE()": "5b58890e",
    "ORCHESTRATOR_OWNER_ROLE()": "fb312778",
    "burnAdminFromModuleRole(bytes32)": "e99b6e13",
    "decoder(bytes)": "9e978575",
    "generateRoleId(address,bytes32)": "fdd5205f",
    "getManagerRole()": "328c4c30",
    "getOwnerRole()": "55ff58d4",
    "getRoleAdmin(bytes32)": "248a9ca3",
    "getRoleMember(bytes32,uint256)": "9010d07c",
    "getRoleMemberCount(bytes32)": "ca15c873",
    "grantGlobalRole(bytes32,address)": "61bcd0c4",
    "grantModuleRole(bytes32,address)": "6c67e807",
    "grantRole(bytes32,address)": "2f2ff15d",
    "grantRoleFromModule(bytes32,address)": "e1788154",
    "hasModuleRole(bytes32,address)": "f3aafa70",
    "hasRole(bytes32,address)": "91d14854",
    "identifier()": "7998a1c4",
    "init(address,(uint256,uint256,string,string),bytes)": "42dfe958",
    "init2(address,bytes)": "9bfdf766",
    "isTrustedForwarder(address)": "572b6c05",
    "orchestrator()": "b74795d9",
    "renounceRole(bytes32,address)": "36568abe",
    "revokeGlobalRole(bytes32,address)": "99df6ff1",
    "revokeModuleRole(bytes32,address)": "bcb61920",
    "revokeRole(bytes32,address)": "d547741f",
    "revokeRoleFromModule(bytes32,address)": "ba66f9fc",
    "supportsInterface(bytes4)": "01ffc9a7",
    "title()": "4a79d50c",
    "transferAdminRole(bytes32,bytes32)": "e38a584c",
    "url()": "5600f04f",
    "version()": "54fd4d50"
  },
  "id": 97
}