{
  "abi": [
    {
      "type": "constructor",
      "inputs": [
        {
          "name": "_orchestratorFactory",
          "type": "address",
          "internalType": "address"
        },
        {
          "name": "_trustedForwarder",
          "type": "address",
          "internalType": "address"
        },
        {
          "name": "_dexAdapter",
          "type": "address",
          "internalType": "address"
        }
      ],
      "stateMutability": "nonpayable"
    },
    {
      "type": "function",
      "name": "buyForUpTo",
      "inputs": [
        {
          "name": "issuanceToken",
          "type": "address",
          "internalType": "address"
        },
        {
          "name": "recipient",
          "type": "address",
          "internalType": "address"
        },
        {
          "name": "amountIn",
          "type": "uint256",
          "internalType": "uint256"
        },
        {
          "name": "minAmountOut",
          "type": "uint256",
          "internalType": "uint256"
        }
      ],
      "outputs": [],
      "stateMutability": "nonpayable"
    },
    {
      "type": "function",
      "name": "createPIMWorkflow",
      "inputs": [
        {
          "name": "workflowConfig",
          "type": "tuple",
          "internalType": "struct IOrchestratorFactory_v1.WorkflowConfig",
          "components": [
            {
              "name": "independentUpdates",
              "type": "bool",
              "internalType": "bool"
            },
            {
              "name": "independentUpdateAdmin",
              "type": "address",
              "internalType": "address"
            }
          ]
        },
        {
          "name": "fundingManagerConfig",
          "type": "tuple",
          "internalType": "struct IOrchestratorFactory_v1.ModuleConfig",
          "components": [
            {
              "name": "metadata",
              "type": "tuple",
              "internalType": "struct IModule_v1.Metadata",
              "components": [
                {
                  "name": "majorVersion",
                  "type": "uint256",
                  "internalType": "uint256"
                },
                {
                  "name": "minorVersion",
                  "type": "uint256",
                  "internalType": "uint256"
                },
                {
                  "name": "patchVersion",
                  "type": "uint256",
                  "internalType": "uint256"
                },
                {
                  "name": "url",
                  "type": "string",
                  "internalType": "string"
                },
                {
                  "name": "title",
                  "type": "string",
                  "internalType": "string"
                }
              ]
            },
            {
              "name": "configData",
              "type": "bytes",
              "internalType": "bytes"
            }
          ]
        },
        {
          "name": "authorizerConfig",
          "type": "tuple",
          "internalType": "struct IOrchestratorFactory_v1.ModuleConfig",
          "components": [
            {
              "name": "metadata",
              "type": "tuple",
              "internalType": "struct IModule_v1.Metadata",
              "components": [
                {
                  "name": "majorVersion",
                  "type": "uint256",
                  "internalType": "uint256"
                },
                {
                  "name": "minorVersion",
                  "type": "uint256",
                  "internalType": "uint256"
                },
                {
                  "name": "patchVersion",
                  "type": "uint256",
                  "internalType": "uint256"
                },
                {
                  "name": "url",
                  "type": "string",
                  "internalType": "string"
                },
                {
                  "name": "title",
                  "type": "string",
                  "internalType": "string"
                }
              ]
            },
            {
              "name": "configData",
              "type": "bytes",
              "internalType": "bytes"
            }
          ]
        },
        {
          "name": "paymentProcessorConfig",
          "type": "tuple",
          "internalType": "struct IOrchestratorFactory_v1.ModuleConfig",
          "components": [
            {
              "name": "metadata",
              "type": "tuple",
              "internalType": "struct IModule_v1.Metadata",
              "components": [
                {
                  "name": "majorVersion",
                  "type": "uint256",
                  "internalType": "uint256"
                },
                {
                  "name": "minorVersion",
                  "type": "uint256",
                  "internalType": "uint256"
                },
                {
                  "name": "patchVersion",
                  "type": "uint256",
                  "internalType": "uint256"
                },
                {
                  "name": "url",
                  "type": "string",
                  "internalType": "string"
                },
                {
                  "name": "title",
                  "type": "string",
                  "internalType": "string"
                }
              ]
            },
            {
              "name": "configData",
              "type": "bytes",
              "internalType": "bytes"
            }
          ]
        },
        {
          "name": "moduleConfigs",
          "type": "tuple[]",
          "internalType": "struct IOrchestratorFactory_v1.ModuleConfig[]",
          "components": [
            {
              "name": "metadata",
              "type": "tuple",
              "internalType": "struct IModule_v1.Metadata",
              "components": [
                {
                  "name": "majorVersion",
                  "type": "uint256",
                  "internalType": "uint256"
                },
                {
                  "name": "minorVersion",
                  "type": "uint256",
                  "internalType": "uint256"
                },
                {
                  "name": "patchVersion",
                  "type": "uint256",
                  "internalType": "uint256"
                },
                {
                  "name": "url",
                  "type": "string",
                  "internalType": "string"
                },
                {
                  "name": "title",
                  "type": "string",
                  "internalType": "string"
                }
              ]
            },
            {
              "name": "configData",
              "type": "bytes",
              "internalType": "bytes"
            }
          ]
        },
        {
          "name": "issuanceTokenParams",
          "type": "tuple",
          "internalType": "struct IBondingCurveBase_v1.IssuanceToken",
          "components": [
            {
              "name": "name",
              "type": "string",
              "internalType": "string"
            },
            {
              "name": "symbol",
              "type": "string",
              "internalType": "string"
            },
            {
              "name": "decimals",
              "type": "uint8",
              "internalType": "uint8"
            },
            {
              "name": "maxSupply",
              "type": "uint256",
              "internalType": "uint256"
            }
          ]
        },
        {
          "name": "initialPurchaseAmount",
          "type": "uint256",
          "internalType": "uint256"
        },
        {
          "name": "isImmutable",
          "type": "bool",
          "internalType": "bool"
        }
      ],
      "outputs": [
        {
          "name": "",
          "type": "address",
          "internalType": "contract IOrchestrator_v1"
        }
      ],
      "stateMutability": "nonpayable"
    },
    {
      "type": "function",
      "name": "dexAdapter",
      "inputs": [],
      "outputs": [
        {
          "name": "",
          "type": "address",
          "internalType": "contract IDexAdapter_v1"
        }
      ],
      "stateMutability": "view"
    },
    {
      "type": "function",
      "name": "isTrustedForwarder",
      "inputs": [
        {
          "name": "forwarder",
          "type": "address",
          "internalType": "address"
        }
      ],
      "outputs": [
        {
          "name": "",
          "type": "bool",
          "internalType": "bool"
        }
      ],
      "stateMutability": "view"
    },
    {
      "type": "function",
      "name": "orchestratorFactory",
      "inputs": [],
      "outputs": [
        {
          "name": "",
          "type": "address",
          "internalType": "address"
        }
      ],
      "stateMutability": "view"
    },
    {
      "type": "function",
      "name": "pims",
      "inputs": [
        {
          "name": "issuanceToken",
          "type": "address",
          "internalType": "address"
        }
      ],
      "outputs": [
        {
          "name": "orchestrator",
          "type": "address",
          "internalType": "contract IOrchestrator_v1"
        },
        {
          "name": "initialVirtualIssuanceSupply",
          "type": "uint256",
          "internalType": "uint256"
        },
        {
          "name": "initialVirtualCollateralSupply",
          "type": "uint256",
          "internalType": "uint256"
        }
      ],
      "stateMutability": "view"
    },
    {
      "type": "function",
      "name": "sellTo",
      "inputs": [
        {
          "name": "issuanceToken",
          "type": "address",
          "internalType": "address"
        },
        {
          "name": "recipient",
          "type": "address",
          "internalType": "address"
        },
        {
          "name": "amountIn",
          "type": "uint256",
          "internalType": "uint256"
        },
        {
          "name": "minAmountOut",
          "type": "uint256",
          "internalType": "uint256"
        }
      ],
      "outputs": [],
      "stateMutability": "nonpayable"
    },
    {
      "type": "function",
      "name": "trustedForwarder",
      "inputs": [],
      "outputs": [
        {
          "name": "",
          "type": "address",
          "internalType": "address"
        }
      ],
      "stateMutability": "view"
    },
    {
      "type": "event",
      "name": "Graduation",
      "inputs": [
        {
          "name": "issuanceToken",
          "type": "address",
          "indexed": true,
          "internalType": "address"
        },
        {
          "name": "collateralToken",
          "type": "address",
          "indexed": true,
          "internalType": "address"
        },
        {
          "name": "pool",
          "type": "address",
          "indexed": true,
          "internalType": "address"
        },
        {
          "name": "issuanceTokenAmount",
          "type": "uint256",
          "indexed": false,
          "internalType": "uint256"
        },
        {
          "name": "collateralTokenAmount",
          "type": "uint256",
          "indexed": false,
          "internalType": "uint256"
        }
      ],
      "anonymous": false
    },
    {
      "type": "event",
      "name": "PIMWorkflowCreated",
      "inputs": [
        {
          "name": "fundingManager",
          "type": "address",
          "indexed": true,
          "internalType": "address"
        },
        {
          "name": "issuanceToken",
          "type": "address",
          "indexed": true,
          "internalType": "address"
        },
        {
          "name": "deployer",
          "type": "address",
          "indexed": true,
          "internalType": "address"
        }
      ],
      "anonymous": false
    },
    {
      "type": "event",
      "name": "PimFeeClaimed",
      "inputs": [
        {
          "name": "fundingManager",
          "type": "address",
          "indexed": true,
          "internalType": "address"
        },
        {
          "name": "claimer",
          "type": "address",
          "indexed": true,
          "internalType": "address"
        },
        {
          "name": "to",
          "type": "address",
          "indexed": true,
          "internalType": "address"
        },
        {
          "name": "amount",
          "type": "uint256",
          "indexed": false,
          "internalType": "uint256"
        }
      ],
      "anonymous": false
    },
    {
      "type": "event",
      "name": "PimFeeRecipientUpdated",
      "inputs": [
        {
          "name": "fundingManager",
          "type": "address",
          "indexed": true,
          "internalType": "address"
        },
        {
          "name": "oldRecipient",
          "type": "address",
          "indexed": true,
          "internalType": "address"
        },
        {
          "name": "newRecipient",
          "type": "address",
          "indexed": true,
          "internalType": "address"
        }
      ],
      "anonymous": false
    },
    {
      "type": "error",
      "name": "PIM_WorkflowFactory__OnlyPimFeeRecipient",
      "inputs": []
    }
  ],
  "bytecode": {
    "object": "0x60a06040523480156200001157600080fd5b50604051620039913803806200399183398101604081905262000034916200008a565b6001600160a01b03918216608052600080546001600160a01b0319908116948416949094179055600180549093169116179055620000d4565b80516001600160a01b03811681146200008557600080fd5b919050565b600080600060608486031215620000a057600080fd5b620000ab846200006d565b9250620000bb602085016200006d565b9150620000cb604085016200006d565b90509250925092565b608051613893620000fe600039600081816101560152818161019901526114c301526138936000f3fe60806040523480156200001157600080fd5b5060043610620000935760003560e01c80637da0a87711620000625780637da0a877146200019757806391f03efd14620001be578063ce7c83dd14620001d2578063fcde984714620001eb57600080fd5b80631615f65714620000985780632269ebe614620000ff5780632f36a25d146200012f578063572b6c051462000143575b600080fd5b620000d5620000a936600462001d6a565b60026020819052600091825260409091208054600182015491909201546001600160a01b039092169183565b604080516001600160a01b0390941684526020840192909252908201526060015b60405180910390f35b62000116620001103660046200219e565b62000202565b6040516001600160a01b039091168152602001620000f6565b60005462000116906001600160a01b031681565b620001866200015436600462001d6a565b7f00000000000000000000000000000000000000000000000000000000000000006001600160a01b0390811691161490565b6040519015158152602001620000f6565b7f000000000000000000000000000000000000000000000000000000000000000062000116565b60015462000116906001600160a01b031681565b620001e9620001e3366004620022b1565b62000550565b005b620001e9620001fc366004620022b1565b62000751565b600080846000015185602001518660400151876060015130604051620002289062001d43565b6200023895949392919062002344565b604051809103906000f08015801562000255573d6000803e3d6000fd5b50905060008060006200026d8d8d8d8d8d8962000c0d565b9250925092506000836001600160a01b03166304baed9e6040518163ffffffff1660e01b8152600401602060405180830381865afa158015620002b4573d6000803e3d6000fd5b505050506040513d601f19601f82011682018060405250810190620002da919062002397565b90506040518060600160405280856001600160a01b03168152602001826001600160a01b031663d1c6022f6040518163ffffffff1660e01b8152600401602060405180830381865afa15801562000335573d6000803e3d6000fd5b505050506040513d601f19601f820116820180604052508101906200035b9190620023b7565b8152602001826001600160a01b031663bf75292b6040518163ffffffff1660e01b8152600401602060405180830381865afa1580156200039f573d6000803e3d6000fd5b505050506040513d601f19601f82011682018060405250810190620003c59190620023b7565b90526001600160a01b03868116600081815260026020818152604092839020865181547fffffffffffffffffffffffff00000000000000000000000000000000000000001690871617815590860151600180830191909155958301519101555163cf456ae760e01b81529184166004830152602482019290925263cf456ae790604401600060405180830381600087803b1580156200046357600080fd5b505af115801562000478573d6000803e3d6000fd5b5050505062000488858862000d97565b6200049681838a8662001338565b846001600160a01b031663715018a66040518163ffffffff1660e01b8152600401600060405180830381600087803b158015620004d257600080fd5b505af1158015620004e7573d6000803e3d6000fd5b50505050620004f5620014bc565b6001600160a01b0316856001600160a01b0316856001600160a01b03167f109e680e5525a688fcbb20189978e087df93150adc050b1592517f7ca215d30a60405160405180910390a450919c9b505050505050505050505050565b6001600160a01b0380851660009081526002602081815260408084208151606081018352815490961680875260018201548785015293015485820152805163025d76cf60e11b815290516304baed9e926004808401939192918290030181865afa158015620005c3573d6000803e3d6000fd5b505050506040513d601f19601f82011682018060405250810190620005e9919062002397565b6040516323b872dd60e01b8152336004820152306024820152604481018690529091506001600160a01b038716906323b872dd906064016020604051808303816000875af115801562000640573d6000803e3d6000fd5b505050506040513d601f19601f82011682018060405250810190620006669190620023de565b5060405163095ea7b360e01b81526001600160a01b0382811660048301526024820186905287169063095ea7b3906044016020604051808303816000875af1158015620006b7573d6000803e3d6000fd5b505050506040513d601f19601f82011682018060405250810190620006dd9190620023de565b506040516362d93eef60e11b81526001600160a01b038681166004830152602482018690526044820185905282169063c5b27dde90606401600060405180830381600087803b1580156200073057600080fd5b505af115801562000745573d6000803e3d6000fd5b50505050505050505050565b6001600160a01b0380851660009081526002602081815260408084208151606081018352815490961680875260018201548785015293015485820152805163025d76cf60e11b815290516304baed9e926004808401939192918290030181865afa158015620007c4573d6000803e3d6000fd5b505050506040513d601f19601f82011682018060405250810190620007ea919062002397565b9050600082600001516001600160a01b03166304baed9e6040518163ffffffff1660e01b8152600401602060405180830381865afa15801562000831573d6000803e3d6000fd5b505050506040513d601f19601f8201168201806040525081019062000857919062002397565b6001600160a01b031663fc0c546a6040518163ffffffff1660e01b8152600401602060405180830381865afa15801562000895573d6000803e3d6000fd5b505050506040513d601f19601f82011682018060405250810190620008bb919062002397565b6040516323b872dd60e01b8152336004820152306024820152604481018790529091506001600160a01b038216906323b872dd906064016020604051808303816000875af115801562000912573d6000803e3d6000fd5b505050506040513d601f19601f82011682018060405250810190620009389190620023de565b5060405163095ea7b360e01b81526001600160a01b0383811660048301526024820187905282169063095ea7b3906044016020604051808303816000875af115801562000989573d6000803e3d6000fd5b505050506040513d601f19601f82011682018060405250810190620009af9190620023de565b50600080620009bf898862001539565b9092509050801562000a375760405163935b7dbd60e01b81526001600160a01b038981166004830152602482018390526044820188905285169063935b7dbd90606401600060405180830381600087803b15801562000a1d57600080fd5b505af115801562000a32573d6000803e3d6000fd5b505050505b811562000acd57826001600160a01b031663a9059cbb62000a57620014bc565b6040516001600160e01b031960e084901b1681526001600160a01b039091166004820152602481018590526044016020604051808303816000875af115801562000aa5573d6000803e3d6000fd5b505050506040513d601f19601f8201168201806040525081019062000acb9190620023de565b505b6040516370a0823160e01b81526001600160a01b03858116600483015269021e19e0c9bab240000091908516906370a0823190602401602060405180830381865afa15801562000b21573d6000803e3d6000fd5b505050506040513d601f19601f8201168201806040525081019062000b479190620023b7565b1062000c0257836001600160a01b031663c6ab5cdc6040518163ffffffff1660e01b8152600401600060405180830381600087803b15801562000b8957600080fd5b505af115801562000b9e573d6000803e3d6000fd5b50505050836001600160a01b031663ba83c9706040518163ffffffff1660e01b8152600401600060405180830381600087803b15801562000bde57600080fd5b505af115801562000bf3573d6000803e3d6000fd5b5050505062000c02896200179d565b505050505050505050565b600080600080876020015190508080602001905181019062000c30919062002397565b604080513060208201529194500160408051601f1981840301815291815260208a81018390528151610120810183526000808252918101829052918201819052606082018190526080820181905260a0820181905260c0820181905260e082018190526101008201529091506020808b01518051909162000cb8918301810190830162002420565b60405190965090935062000cd6915088908490879060200162002506565b60408051601f1981840301815291815260208d0182905260005490517fff2676990000000000000000000000000000000000000000000000000000000081529192506001600160a01b03169063ff2676999062000d40908f908f908f908f908f9060040162002639565b6020604051808303816000875af115801562000d60573d6000803e3d6000fd5b505050506040513d601f19601f8201168201806040525081019062000d86919062002397565b955050505096509650969350505050565b6001600160a01b0380831660009081526002602081815260408084208151606081018352815490961680875260018201548785015293015485820152805163025d76cf60e11b815290516304baed9e926004808401939192918290030181865afa15801562000e0a573d6000803e3d6000fd5b505050506040513d601f19601f8201168201806040525081019062000e30919062002397565b905081600001516001600160a01b031663d09edf316040518163ffffffff1660e01b8152600401602060405180830381865afa15801562000e75573d6000803e3d6000fd5b505050506040513d601f19601f8201168201806040525081019062000e9b919062002397565b6001600160a01b0316632f2ff15d83600001516001600160a01b031663d09edf316040518163ffffffff1660e01b8152600401602060405180830381865afa15801562000eec573d6000803e3d6000fd5b505050506040513d601f19601f8201168201806040525081019062000f12919062002397565b6001600160a01b031663b3ecf2366040518163ffffffff1660e01b8152600401602060405180830381865afa15801562000f50573d6000803e3d6000fd5b505050506040513d601f19601f8201168201806040525081019062000f769190620023b7565b8562000f8c5762000f86620014bc565b62000f8e565b305b6040516001600160e01b031960e085901b16815260048101929092526001600160a01b03166024820152604401600060405180830381600087803b15801562000fd657600080fd5b505af115801562000feb573d6000803e3d6000fd5b505060405163cf456ae760e01b8152306004820152600160248201526001600160a01b038716925063cf456ae79150604401600060405180830381600087803b1580156200103857600080fd5b505af11580156200104d573d6000803e3d6000fd5b50505050806001600160a01b0316636c67e807826001600160a01b0316637feb48a16040518163ffffffff1660e01b8152600401602060405180830381865afa1580156200109f573d6000803e3d6000fd5b505050506040513d601f19601f82011682018060405250810190620010c59190620023b7565b6040516001600160e01b031960e084901b1681526004810191909152306024820152604401600060405180830381600087803b1580156200110557600080fd5b505af11580156200111a573d6000803e3d6000fd5b50505050600082600001516001600160a01b0316634cfa64876040518163ffffffff1660e01b8152600401600060405180830381865afa15801562001163573d6000803e3d6000fd5b505050506040513d6000823e601f3d908101601f191682016040526200118d9190810190620026fb565b905060005b81518110156200133057818181518110620011b157620011b1620027a0565b60200260200101516001600160a01b03166346ebcacf6040518163ffffffff1660e01b8152600401602060405180830381865afa92505050801562001215575060408051601f3d908101601f191682019092526200121291810190620023b7565b60015b15620013275750818181518110620012315762001231620027a0565b60200260200101516001600160a01b0316636c67e8078383815181106200125c576200125c620027a0565b60200260200101516001600160a01b03166346ebcacf6040518163ffffffff1660e01b8152600401602060405180830381865afa158015620012a2573d6000803e3d6000fd5b505050506040513d601f19601f82011682018060405250810190620012c89190620023b7565b6040516001600160e01b031960e084901b1681526004810191909152306024820152604401600060405180830381600087803b1580156200130857600080fd5b505af11580156200131d573d6000803e3d6000fd5b5050505062001330565b60010162001192565b505050505050565b8115620014b657826001600160a01b03166323b872dd62001358620014bc565b6040516001600160e01b031960e084901b1681526001600160a01b039091166004820152306024820152604481018590526064016020604051808303816000875af1158015620013ac573d6000803e3d6000fd5b505050506040513d601f19601f82011682018060405250810190620013d29190620023de565b5060405163095ea7b360e01b81526001600160a01b0385811660048301526024820184905284169063095ea7b3906044016020604051808303816000875af115801562001423573d6000803e3d6000fd5b505050506040513d601f19601f82011682018060405250810190620014499190620023de565b5060405163935b7dbd60e01b81526001600160a01b038281166004830152602482018490526001604483015285169063935b7dbd90606401600060405180830381600087803b1580156200149c57600080fd5b505af1158015620014b1573d6000803e3d6000fd5b505050505b50505050565b60003660147f00000000000000000000000000000000000000000000000000000000000000006001600160a01b031633148015620014fa5750808210155b1562001531576000366200150f8385620027cc565b6200151c928290620027e8565b620015279162002814565b60601c9250505090565b339250505090565b6001600160a01b0380831660009081526002602081815260408084208151606081018352815490961680875260018201548785015293015485820152805163025d76cf60e11b81529051939485949093859390926304baed9e92600480830193928290030181865afa158015620015b4573d6000803e3d6000fd5b505050506040513d601f19601f82011682018060405250810190620015da919062002397565b9050600082600001516001600160a01b03166304baed9e6040518163ffffffff1660e01b8152600401602060405180830381865afa15801562001621573d6000803e3d6000fd5b505050506040513d601f19601f8201168201806040525081019062001647919062002397565b6001600160a01b031663fc0c546a6040518163ffffffff1660e01b8152600401602060405180830381865afa15801562001685573d6000803e3d6000fd5b505050506040513d601f19601f82011682018060405250810190620016ab919062002397565b6040516370a0823160e01b81526001600160a01b0384811660048301529192506000918316906370a0823190602401602060405180830381865afa158015620016f8573d6000803e3d6000fd5b505050506040513d601f19601f820116820180604052508101906200171e9190620023b7565b905060006200172e88836200284a565b905069021e19e0c9bab240000081111562001789578169021e19e0c9bab2400000116200175d57600062001773565b620017738269021e19e0c9bab2400000620027cc565b9550620017818689620027cc565b965062001791565b879550600096505b50505050509250929050565b6001600160a01b0380821660009081526002602081815260408084208151606081018352815490961680875260018201548785015293015485820152805163025d76cf60e11b815290516304baed9e926004808401939192918290030181865afa15801562001810573d6000803e3d6000fd5b505050506040513d601f19601f8201168201806040525081019062001836919062002397565b90506000816001600160a01b031663fc0c546a6040518163ffffffff1660e01b8152600401602060405180830381865afa15801562001879573d6000803e3d6000fd5b505050506040513d601f19601f820116820180604052508101906200189f919062002397565b6040516370a0823160e01b81526001600160a01b0384811660048301529192506000918316906370a0823190602401602060405180830381865afa158015620018ec573d6000803e3d6000fd5b505050506040513d601f19601f82011682018060405250810190620019129190620023b7565b905060008460200151846001600160a01b031663d1c6022f6040518163ffffffff1660e01b8152600401602060405180830381865afa1580156200195a573d6000803e3d6000fd5b505050506040513d601f19601f82011682018060405250810190620019809190620023b7565b6200198c9190620027cc565b9050600085600001516001600160a01b0316634cfa64876040518163ffffffff1660e01b8152600401600060405180830381865afa158015620019d3573d6000803e3d6000fd5b505050506040513d6000823e601f3d908101601f19168201604052620019fd9190810190620026fb565b905060005b815181101562001b3f5781818151811062001a215762001a21620027a0565b60200260200101516001600160a01b03166346ebcacf6040518163ffffffff1660e01b8152600401602060405180830381865afa92505050801562001a85575060408051601f3d908101601f1916820190925262001a8291810190620023b7565b60015b1562001b36575081818151811062001aa15762001aa1620027a0565b6020908102919091010151600154604051638028b82f60e01b81526001600160a01b0391821660048201528782166024820152604481018790526000606482018190526084820181905260a4820152911690638028b82f9060c401600060405180830381600087803b15801562001b1757600080fd5b505af115801562001b2c573d6000803e3d6000fd5b5050505062001b3f565b60010162001a02565b50846001600160a01b031663c6ab5cdc6040518163ffffffff1660e01b8152600401600060405180830381600087803b15801562001b7c57600080fd5b505af115801562001b91573d6000803e3d6000fd5b50505050846001600160a01b031663ba83c9706040518163ffffffff1660e01b8152600401600060405180830381600087803b15801562001bd157600080fd5b505af115801562001be6573d6000803e3d6000fd5b50506001546040516340c10f1960e01b81526001600160a01b03918216600482015260248101869052908a1692506340c10f199150604401600060405180830381600087803b15801562001c3957600080fd5b505af115801562001c4e573d6000803e3d6000fd5b50506001546040516332092e4f60e21b81526001600160a01b0388811660048301528b8116602483015230604483015260009450909116915063c824b93c906064016020604051808303816000875af115801562001cb0573d6000803e3d6000fd5b505050506040513d601f19601f8201168201806040525081019062001cd6919062002397565b9050806001600160a01b0316856001600160a01b0316896001600160a01b03167f61a7be01a73db9bec6d726c8ac152dec55617d188289647aa5b17fcbe83a42e2868860405162001d31929190918252602082015260400190565b60405180910390a45050505050505050565b610ffd806200286183390190565b6001600160a01b038116811462001d6757600080fd5b50565b60006020828403121562001d7d57600080fd5b813562001d8a8162001d51565b9392505050565b634e487b7160e01b600052604160045260246000fd5b6040805190810167ffffffffffffffff8111828210171562001dcd5762001dcd62001d91565b60405290565b60405160a0810167ffffffffffffffff8111828210171562001dcd5762001dcd62001d91565b604051610120810167ffffffffffffffff8111828210171562001dcd5762001dcd62001d91565b604051601f8201601f1916810167ffffffffffffffff8111828210171562001e4c5762001e4c62001d91565b604052919050565b801515811462001d6757600080fd5b803562001e708162001e54565b919050565b60006040828403121562001e8857600080fd5b62001e9262001da7565b9050813562001ea18162001e54565b8152602082013562001eb38162001d51565b602082015292915050565b600082601f83011262001ed057600080fd5b813567ffffffffffffffff81111562001eed5762001eed62001d91565b62001f02601f8201601f191660200162001e20565b81815284602083860101111562001f1857600080fd5b816020850160208301376000918101602001919091529392505050565b60006040828403121562001f4857600080fd5b62001f5262001da7565b9050813567ffffffffffffffff8082111562001f6d57600080fd5b9083019060a0828603121562001f8257600080fd5b62001f8c62001dd3565b82358152602083013560208201526040830135604082015260608301358281111562001fb757600080fd5b62001fc58782860162001ebe565b60608301525060808301358281111562001fde57600080fd5b62001fec8782860162001ebe565b608083015250835260208401359150808211156200200957600080fd5b50620020188482850162001ebe565b60208301525092915050565b600067ffffffffffffffff82111562002041576200204162001d91565b5060051b60200190565b600082601f8301126200205d57600080fd5b8135602062002076620020708362002024565b62001e20565b82815260059290921b840181019181810190868411156200209657600080fd5b8286015b84811015620020db57803567ffffffffffffffff811115620020bc5760008081fd5b620020cc8986838b010162001f35565b8452509183019183016200209a565b509695505050505050565b600060808284031215620020f957600080fd5b6040516080810167ffffffffffffffff828210818311171562002120576200212062001d91565b8160405282935084359150808211156200213957600080fd5b620021478683870162001ebe565b835260208501359150808211156200215e57600080fd5b506200216d8582860162001ebe565b602083015250604083013560ff811681146200218857600080fd5b6040820152606092830135920191909152919050565b600080600080600080600080610120898b031215620021bc57600080fd5b620021c88a8a62001e75565b9750604089013567ffffffffffffffff80821115620021e657600080fd5b620021f48c838d0162001f35565b985060608b01359150808211156200220b57600080fd5b620022198c838d0162001f35565b975060808b01359150808211156200223057600080fd5b6200223e8c838d0162001f35565b965060a08b01359150808211156200225557600080fd5b620022638c838d016200204b565b955060c08b01359150808211156200227a57600080fd5b50620022898b828c01620020e6565b93505060e08901359150620022a26101008a0162001e63565b90509295985092959890939650565b60008060008060808587031215620022c857600080fd5b8435620022d58162001d51565b93506020850135620022e78162001d51565b93969395505050506040820135916060013590565b6000815180845260005b81811015620023245760208185018101518683018201520162002306565b506000602082860101526020601f19601f83011685010191505092915050565b60a0815260006200235960a0830188620022fc565b82810360208401526200236d8188620022fc565b60ff969096166040840152505060608101929092526001600160a01b031660809091015292915050565b600060208284031215620023aa57600080fd5b815162001d8a8162001d51565b600060208284031215620023ca57600080fd5b5051919050565b805162001e708162001e54565b600060208284031215620023f157600080fd5b815162001d8a8162001e54565b805162001e708162001d51565b805163ffffffff8116811462001e7057600080fd5b60008060008385036101608112156200243857600080fd5b8451620024458162001d51565b9350610120601f1982018113156200245c57600080fd5b6200246662001df9565b91506200247660208701620023fe565b825262002486604087016200240b565b602083015262002499606087016200240b565b60408301526080860151606083015260a08601516080830152620024c060c08701620023d1565b60a0830152620024d360e08701620023d1565b60c08301526101008681015160e084015290860151908201529150620024fd6101408501620023fe565b90509250925092565b6000610160820190506001600160a01b0380861683528085511660208401525063ffffffff602085015116604083015260408401516200254e606084018263ffffffff169052565b5060608401516080830152608084015160a083015260a08401516200257760c084018215159052565b5060c084015180151560e08401525060e0840151610100838101919091528401516101208301526001600160a01b038316610140830152949350505050565b6000815160408452805160408501526020810151606085015260408101516080850152606081015160a080860152620025f360e0860182620022fc565b905060808201519150603f198582030160c0860152620026148183620022fc565b91505060208301518482036020860152620026308282620022fc565b95945050505050565b855115158152600060206001600160a01b0381890151168184015260c060408401526200266a60c0840188620025b6565b83810360608501526200267e8188620025b6565b90508381036080850152620026948187620025b6565b905083810360a08501528085518083528383019150838160051b84010184880160005b83811015620026e957601f19868403018552620026d6838351620025b6565b94870194925090860190600101620026b7565b50909c9b505050505050505050505050565b600060208083850312156200270f57600080fd5b825167ffffffffffffffff8111156200272757600080fd5b8301601f810185136200273957600080fd5b80516200274a620020708262002024565b81815260059190911b820183019083810190878311156200276a57600080fd5b928401925b8284101562002795578351620027858162001d51565b825292840192908401906200276f565b979650505050505050565b634e487b7160e01b600052603260045260246000fd5b634e487b7160e01b600052601160045260246000fd5b81810381811115620027e257620027e2620027b6565b92915050565b60008085851115620027f957600080fd5b838611156200280757600080fd5b5050820193919092039150565b6bffffffffffffffffffffffff198135818116916014851015620028425780818660140360031b1b83161692505b505092915050565b80820180821115620027e257620027e2620027b656fe60c06040523480156200001157600080fd5b5060405162000ffd38038062000ffd833981016040819052620000349162000254565b80828686600362000046838262000395565b50600462000055828262000395565b50505080600003620000825760405163392e1e2760e01b8152600060048201526024015b60405180910390fd5b6080526001600160a01b038116620000b157604051631e4fbdf760e01b81526000600482015260240162000079565b620000bc81620000db565b50620000ca8160016200012d565b505060ff1660a05250620004619050565b600580546001600160a01b038381166001600160a01b0319831681179093556040519116919082907f8be0079c531659141344cd1fd0a4f28419497f9722a3daafe3b4186f6b6457e090600090a35050565b6001600160a01b038216600081815260066020908152604091829020805460ff191685151590811790915591519182527f583b0aa0e528532caf4b907c11d7a8158a122fe2a6fb80cd9b09776ebea8d92d910160405180910390a25050565b634e487b7160e01b600052604160045260246000fd5b600082601f830112620001b457600080fd5b81516001600160401b0380821115620001d157620001d16200018c565b604051601f8301601f19908116603f01168101908282118183101715620001fc57620001fc6200018c565b81604052838152602092508660208588010111156200021a57600080fd5b600091505b838210156200023e57858201830151818301840152908201906200021f565b6000602085830101528094505050505092915050565b600080600080600060a086880312156200026d57600080fd5b85516001600160401b03808211156200028557600080fd5b6200029389838a01620001a2565b96506020880151915080821115620002aa57600080fd5b50620002b988828901620001a2565b945050604086015160ff81168114620002d157600080fd5b6060870151608088015191945092506001600160a01b0381168114620002f657600080fd5b809150509295509295909350565b600181811c908216806200031957607f821691505b6020821081036200033a57634e487b7160e01b600052602260045260246000fd5b50919050565b601f82111562000390576000816000526020600020601f850160051c810160208610156200036b5750805b601f850160051c820191505b818110156200038c5782815560010162000377565b5050505b505050565b81516001600160401b03811115620003b157620003b16200018c565b620003c981620003c2845462000304565b8462000340565b602080601f831160018114620004015760008415620003e85750858301515b600019600386901b1c1916600185901b1785556200038c565b600085815260208120601f198616915b82811015620004325788860151825594840194600190910190840162000411565b5085821015620004515787850151600019600388901b60f8161c191681555b5050505050600190811b01905550565b60805160a051610b6f6200048e600039600061018d0152600081816101b901526108000152610b6f6000f3fe608060405234801561001057600080fd5b506004361061011b5760003560e01c806370a08231116100b25780639dc29fac11610081578063cf456ae711610066578063cf456ae71461028f578063dd62ed3e146102a2578063f2fde38b146102db57600080fd5b80639dc29fac14610269578063a9059cbb1461027c57600080fd5b806370a0823114610215578063715018a61461023e5780638da5cb5b1461024657806395d89b411461026157600080fd5b8063313ce567116100ee578063313ce56714610186578063355274ea146101b757806340c10f19146101dd578063423afa66146101f257600080fd5b806306fdde0314610120578063095ea7b31461013e57806318160ddd1461016157806323b872dd14610173575b600080fd5b6101286102ee565b604051610135919061097c565b60405180910390f35b61015161014c3660046109e7565b610380565b6040519015158152602001610135565b6002545b604051908152602001610135565b610151610181366004610a11565b61039a565b60405160ff7f0000000000000000000000000000000000000000000000000000000000000000168152602001610135565b7f0000000000000000000000000000000000000000000000000000000000000000610165565b6101f06101eb3660046109e7565b6103be565b005b610151610200366004610a4d565b60066020526000908152604090205460ff1681565b610165610223366004610a4d565b6001600160a01b031660009081526020819052604090205490565b6101f06103fc565b6005546040516001600160a01b039091168152602001610135565b610128610410565b6101f06102773660046109e7565b61041f565b61015161028a3660046109e7565b610459565b6101f061029d366004610a6f565b610467565b6101656102b0366004610aab565b6001600160a01b03918216600090815260016020908152604080832093909416825291909152205490565b6101f06102e9366004610a4d565b610479565b6060600380546102fd90610ade565b80601f016020809104026020016040519081016040528092919081815260200182805461032990610ade565b80156103765780601f1061034b57610100808354040283529160200191610376565b820191906000526020600020905b81548152906001019060200180831161035957829003601f168201915b5050505050905090565b60003361038e8185856104bc565b60019150505b92915050565b6000336103a88582856104ce565b6103b385858561054c565b506001949350505050565b3360009081526006602052604090205460ff166103ee57604051634199e25360e11b815260040160405180910390fd5b6103f882826105ab565b5050565b6104046105e1565b61040e600061060e565b565b6060600480546102fd90610ade565b3360009081526006602052604090205460ff1661044f57604051634199e25360e11b815260040160405180910390fd5b6103f88282610678565b60003361038e81858561054c565b61046f6105e1565b6103f882826106ae565b6104816105e1565b6001600160a01b0381166104b057604051631e4fbdf760e01b8152600060048201526024015b60405180910390fd5b6104b98161060e565b50565b6104c9838383600161070d565b505050565b6001600160a01b038381166000908152600160209081526040808320938616835292905220546000198114610546578181101561053757604051637dc7a0d960e11b81526001600160a01b038416600482015260248101829052604481018390526064016104a7565b6105468484848403600061070d565b50505050565b6001600160a01b03831661057657604051634b637e8f60e11b8152600060048201526024016104a7565b6001600160a01b0382166105a05760405163ec442f0560e01b8152600060048201526024016104a7565b6104c98383836107e2565b6001600160a01b0382166105d55760405163ec442f0560e01b8152600060048201526024016104a7565b6103f8600083836107e2565b6005546001600160a01b0316331461040e5760405163118cdaa760e01b81523360048201526024016104a7565b600580546001600160a01b038381167fffffffffffffffffffffffff0000000000000000000000000000000000000000831681179093556040519116919082907f8be0079c531659141344cd1fd0a4f28419497f9722a3daafe3b4186f6b6457e090600090a35050565b6001600160a01b0382166106a257604051634b637e8f60e11b8152600060048201526024016104a7565b6103f8826000836107e2565b6001600160a01b038216600081815260066020908152604091829020805460ff191685151590811790915591519182527f583b0aa0e528532caf4b907c11d7a8158a122fe2a6fb80cd9b09776ebea8d92d910160405180910390a25050565b6001600160a01b0384166107375760405163e602df0560e01b8152600060048201526024016104a7565b6001600160a01b03831661076157604051634a1406b160e11b8152600060048201526024016104a7565b6001600160a01b038085166000908152600160209081526040808320938716835292905220829055801561054657826001600160a01b0316846001600160a01b03167f8c5be1e5ebec7d5bd14f71427d1e84f3dd0314c0f7b2291e5b200ac8c7c3b925846040516107d491815260200190565b60405180910390a350505050565b6107ed838383610852565b6001600160a01b0383166104c9576002547f0000000000000000000000000000000000000000000000000000000000000000908181111561084b5760405163279e7e1560e21b815260048101829052602481018390526044016104a7565b5050505050565b6001600160a01b03831661087d5780600260008282546108729190610b18565b909155506108ef9050565b6001600160a01b038316600090815260208190526040902054818110156108d05760405163391434e360e21b81526001600160a01b038516600482015260248101829052604481018390526064016104a7565b6001600160a01b03841660009081526020819052604090209082900390555b6001600160a01b03821661090b5760028054829003905561092a565b6001600160a01b03821660009081526020819052604090208054820190555b816001600160a01b0316836001600160a01b03167fddf252ad1be2c89b69c2b068fc378daa952ba7f163c4a11628f55a4df523b3ef8360405161096f91815260200190565b60405180910390a3505050565b60006020808352835180602085015260005b818110156109aa5785810183015185820160400152820161098e565b506000604082860101526040601f19601f8301168501019250505092915050565b80356001600160a01b03811681146109e257600080fd5b919050565b600080604083850312156109fa57600080fd5b610a03836109cb565b946020939093013593505050565b600080600060608486031215610a2657600080fd5b610a2f846109cb565b9250610a3d602085016109cb565b9150604084013590509250925092565b600060208284031215610a5f57600080fd5b610a68826109cb565b9392505050565b60008060408385031215610a8257600080fd5b610a8b836109cb565b915060208301358015158114610aa057600080fd5b809150509250929050565b60008060408385031215610abe57600080fd5b610ac7836109cb565b9150610ad5602084016109cb565b90509250929050565b600181811c90821680610af257607f821691505b602082108103610b1257634e487b7160e01b600052602260045260246000fd5b50919050565b8082018082111561039457634e487b7160e01b600052601160045260246000fdfea2646970667358221220a8f5fc4ca5b0878bad4d0aa88585960830319f4c0dc5c8f77e00aef99ed5703264736f6c63430008170033a2646970667358221220aad40913c88bb7e795dcebc9e5b1ff8ecef76877667ef03fd69e377af0a006d864736f6c63430008170033",
    "linkReferences": {}
  },
  "methodIdentifiers": {
    "buyForUpTo(address,address,uint256,uint256)": "fcde9847",
    "createPIMWorkflow((bool,address),((uint256,uint256,uint256,string,string),bytes),((uint256,uint256,uint256,string,string),bytes),((uint256,uint256,uint256,string,string),bytes),((uint256,uint256,uint256,string,string),bytes)[],(string,string,uint8,uint256),uint256,bool)": "2269ebe6",
    "dexAdapter()": "91f03efd",
    "isTrustedForwarder(address)": "572b6c05",
    "orchestratorFactory()": "2f36a25d",
    "pims(address)": "1615f657",
    "sellTo(address,address,uint256,uint256)": "ce7c83dd",
    "trustedForwarder()": "7da0a877"
  },
  "id": 79
}