{
  "abi": [
    {
      "type": "constructor",
      "inputs": [
        {
          "name": "_orchestratorFactory",
          "type": "address",
          "internalType": "address"
        },
        {
          "name": "_trustedForwarder",
          "type": "address",
          "internalType": "address"
        }
      ],
      "stateMutability": "nonpayable"
    },
    {
      "type": "function",
      "name": "createPIMWorkflow",
      "inputs": [
        {
          "name": "workflowConfig",
          "type": "tuple",
          "internalType": "struct IOrchestratorFactory_v1.WorkflowConfig",
          "components": [
            {
              "name": "independentUpdates",
              "type": "bool",
              "internalType": "bool"
            },
            {
              "name": "independentUpdateAdmin",
              "type": "address",
              "internalType": "address"
            }
          ]
        },
        {
          "name": "fundingManagerConfig",
          "type": "tuple",
          "internalType": "struct IOrchestratorFactory_v1.ModuleConfig",
          "components": [
            {
              "name": "metadata",
              "type": "tuple",
              "internalType": "struct IModule_v1.Metadata",
              "components": [
                {
                  "name": "majorVersion",
                  "type": "uint256",
                  "internalType": "uint256"
                },
                {
                  "name": "minorVersion",
                  "type": "uint256",
                  "internalType": "uint256"
                },
                {
                  "name": "patchVersion",
                  "type": "uint256",
                  "internalType": "uint256"
                },
                {
                  "name": "url",
                  "type": "string",
                  "internalType": "string"
                },
                {
                  "name": "title",
                  "type": "string",
                  "internalType": "string"
                }
              ]
            },
            {
              "name": "configData",
              "type": "bytes",
              "internalType": "bytes"
            }
          ]
        },
        {
          "name": "authorizerConfig",
          "type": "tuple",
          "internalType": "struct IOrchestratorFactory_v1.ModuleConfig",
          "components": [
            {
              "name": "metadata",
              "type": "tuple",
              "internalType": "struct IModule_v1.Metadata",
              "components": [
                {
                  "name": "majorVersion",
                  "type": "uint256",
                  "internalType": "uint256"
                },
                {
                  "name": "minorVersion",
                  "type": "uint256",
                  "internalType": "uint256"
                },
                {
                  "name": "patchVersion",
                  "type": "uint256",
                  "internalType": "uint256"
                },
                {
                  "name": "url",
                  "type": "string",
                  "internalType": "string"
                },
                {
                  "name": "title",
                  "type": "string",
                  "internalType": "string"
                }
              ]
            },
            {
              "name": "configData",
              "type": "bytes",
              "internalType": "bytes"
            }
          ]
        },
        {
          "name": "paymentProcessorConfig",
          "type": "tuple",
          "internalType": "struct IOrchestratorFactory_v1.ModuleConfig",
          "components": [
            {
              "name": "metadata",
              "type": "tuple",
              "internalType": "struct IModule_v1.Metadata",
              "components": [
                {
                  "name": "majorVersion",
                  "type": "uint256",
                  "internalType": "uint256"
                },
                {
                  "name": "minorVersion",
                  "type": "uint256",
                  "internalType": "uint256"
                },
                {
                  "name": "patchVersion",
                  "type": "uint256",
                  "internalType": "uint256"
                },
                {
                  "name": "url",
                  "type": "string",
                  "internalType": "string"
                },
                {
                  "name": "title",
                  "type": "string",
                  "internalType": "string"
                }
              ]
            },
            {
              "name": "configData",
              "type": "bytes",
              "internalType": "bytes"
            }
          ]
        },
        {
          "name": "moduleConfigs",
          "type": "tuple[]",
          "internalType": "struct IOrchestratorFactory_v1.ModuleConfig[]",
          "components": [
            {
              "name": "metadata",
              "type": "tuple",
              "internalType": "struct IModule_v1.Metadata",
              "components": [
                {
                  "name": "majorVersion",
                  "type": "uint256",
                  "internalType": "uint256"
                },
                {
                  "name": "minorVersion",
                  "type": "uint256",
                  "internalType": "uint256"
                },
                {
                  "name": "patchVersion",
                  "type": "uint256",
                  "internalType": "uint256"
                },
                {
                  "name": "url",
                  "type": "string",
                  "internalType": "string"
                },
                {
                  "name": "title",
                  "type": "string",
                  "internalType": "string"
                }
              ]
            },
            {
              "name": "configData",
              "type": "bytes",
              "internalType": "bytes"
            }
          ]
        },
        {
          "name": "issuanceTokenParams",
          "type": "tuple",
          "internalType": "struct IBondingCurveBase_v1.IssuanceToken",
          "components": [
            {
              "name": "name",
              "type": "string",
              "internalType": "string"
            },
            {
              "name": "symbol",
              "type": "string",
              "internalType": "string"
            },
            {
              "name": "decimals",
              "type": "uint8",
              "internalType": "uint8"
            },
            {
              "name": "maxSupply",
              "type": "uint256",
              "internalType": "uint256"
            }
          ]
        },
        {
          "name": "initialPurchaseAmount",
          "type": "uint256",
          "internalType": "uint256"
        }
      ],
      "outputs": [
        {
          "name": "orchestrator",
          "type": "address",
          "internalType": "contract IOrchestrator_v1"
        }
      ],
      "stateMutability": "nonpayable"
    },
    {
      "type": "function",
      "name": "isTrustedForwarder",
      "inputs": [
        {
          "name": "forwarder",
          "type": "address",
          "internalType": "address"
        }
      ],
      "outputs": [
        {
          "name": "",
          "type": "bool",
          "internalType": "bool"
        }
      ],
      "stateMutability": "view"
    },
    {
      "type": "function",
      "name": "orchestratorFactory",
      "inputs": [],
      "outputs": [
        {
          "name": "",
          "type": "address",
          "internalType": "address"
        }
      ],
      "stateMutability": "view"
    },
    {
      "type": "function",
      "name": "transferPimFeeEligibility",
      "inputs": [
        {
          "name": "fundingManager",
          "type": "address",
          "internalType": "address"
        },
        {
          "name": "to",
          "type": "address",
          "internalType": "address"
        }
      ],
      "outputs": [],
      "stateMutability": "nonpayable"
    },
    {
      "type": "function",
      "name": "trustedForwarder",
      "inputs": [],
      "outputs": [
        {
          "name": "",
          "type": "address",
          "internalType": "address"
        }
      ],
      "stateMutability": "view"
    },
    {
      "type": "function",
      "name": "withdrawPimFee",
      "inputs": [
        {
          "name": "fundingManager",
          "type": "address",
          "internalType": "address"
        },
        {
          "name": "to",
          "type": "address",
          "internalType": "address"
        }
      ],
      "outputs": [],
      "stateMutability": "nonpayable"
    },
    {
      "type": "event",
      "name": "PIMWorkflowCreated",
      "inputs": [
        {
          "name": "orchestrator",
          "type": "address",
          "indexed": true,
          "internalType": "address"
        },
        {
          "name": "issuanceToken",
          "type": "address",
          "indexed": true,
          "internalType": "address"
        },
        {
          "name": "deployer",
          "type": "address",
          "indexed": true,
          "internalType": "address"
        }
      ],
      "anonymous": false
    },
    {
      "type": "event",
      "name": "PimFeeClaimed",
      "inputs": [
        {
          "name": "fundingManager",
          "type": "address",
          "indexed": true,
          "internalType": "address"
        },
        {
          "name": "claimer",
          "type": "address",
          "indexed": true,
          "internalType": "address"
        },
        {
          "name": "to",
          "type": "address",
          "indexed": true,
          "internalType": "address"
        },
        {
          "name": "amount",
          "type": "uint256",
          "indexed": false,
          "internalType": "uint256"
        }
      ],
      "anonymous": false
    },
    {
      "type": "event",
      "name": "PimFeeRecipientUpdated",
      "inputs": [
        {
          "name": "fundingManager",
          "type": "address",
          "indexed": true,
          "internalType": "address"
        },
        {
          "name": "oldRecipient",
          "type": "address",
          "indexed": true,
          "internalType": "address"
        },
        {
          "name": "newRecipient",
          "type": "address",
          "indexed": true,
          "internalType": "address"
        }
      ],
      "anonymous": false
    },
    {
      "type": "error",
      "name": "PIM_WorkflowFactory__InvalidZeroAddress",
      "inputs": []
    },
    {
      "type": "error",
      "name": "PIM_WorkflowFactory__OnlyPimFeeRecipient",
      "inputs": []
    }
  ],
  "bytecode": {
    "object": "0x60a060405234801561001057600080fd5b506040516124b53803806124b583398101604081905261002f91610076565b6001600160a01b03908116608052600080546001600160a01b031916929091169190911790556100a9565b80516001600160a01b038116811461007157600080fd5b919050565b6000806040838503121561008957600080fd5b6100928361005a565b91506100a06020840161005a565b90509250929050565b6080516123e46100d16000396000818160c40152818161011e015261093d01526123e46000f3fe60806040523480156200001157600080fd5b50600436106200007b5760003560e01c80637da0a87711620000565780637da0a877146200011c578063a0f7c7eb1462000143578063afd00d8a146200015c57600080fd5b80632f36a25d1462000080578063572b6c0514620000b15780637a0821c91462000105575b600080fd5b60005462000094906001600160a01b031681565b6040516001600160a01b0390911681526020015b60405180910390f35b620000f4620000c2366004620009da565b7f00000000000000000000000000000000000000000000000000000000000000006001600160a01b0390811691161490565b6040519015158152602001620000a8565b620000946200011636600462000de5565b62000173565b7f000000000000000000000000000000000000000000000000000000000000000062000094565b6200015a6200015436600462000ee5565b620006da565b005b6200015a6200016d36600462000ee5565b6200085f565b6000808360000151846020015185604001518660600151306040516200019990620009b3565b620001a995949392919062000f6b565b604051809103906000f080158015620001c6573d6000803e3d6000fd5b509050600087602001519050600081806020019051810190620001ea919062000fd0565b90506001600160a01b0381166200021457604051633134f88d60e21b815260040160405180910390fd5b6040805130602082015201604051602081830303815290604052915081896020018190525060008a602001519050600080828060200190518101906200025b919062001012565b92509250508582826040516020016200027793929190620010f8565b6040516020818303038152906040529250828d6020018190525060008054906101000a90046001600160a01b03166001600160a01b031663ff2676998f8f8f8f8f6040518663ffffffff1660e01b8152600401620002da9594939291906200122b565b6020604051808303816000875af1158015620002fa573d6000803e3d6000fd5b505050506040513d601f19601f8201168201806040525081019062000320919062000fd0565b96506000876001600160a01b03166304baed9e6040518163ffffffff1660e01b8152600401602060405180830381865afa15801562000363573d6000803e3d6000fd5b505050506040513d601f19601f8201168201806040525081019062000389919062000fd0565b60405163cf456ae760e01b81526001600160a01b038083166004830152600160248301529192509088169063cf456ae790604401600060405180830381600087803b158015620003d857600080fd5b505af1158015620003ed573d6000803e3d6000fd5b505060405163cf456ae760e01b8152306004820152600060248201526001600160a01b038a16925063cf456ae79150604401600060405180830381600087803b1580156200043a57600080fd5b505af11580156200044f573d6000803e3d6000fd5b505050506000891115620005ec57816001600160a01b03166323b872dd6200047662000936565b6040517fffffffff0000000000000000000000000000000000000000000000000000000060e084901b1681526001600160a01b039091166004820152306024820152604481018c90526064016020604051808303816000875af1158015620004e2573d6000803e3d6000fd5b505050506040513d601f19601f82011682018060405250810190620005089190620012ed565b5060405163095ea7b360e01b81526001600160a01b038281166004830152602482018b905283169063095ea7b3906044016020604051808303816000875af115801562000559573d6000803e3d6000fd5b505050506040513d601f19601f820116820180604052508101906200057f9190620012ed565b5060405163935b7dbd60e01b81526001600160a01b038681166004830152602482018b90526001604483015282169063935b7dbd90606401600060405180830381600087803b158015620005d257600080fd5b505af1158015620005e7573d6000803e3d6000fd5b505050505b6001600160a01b03818116600090815260016020526040808220805473ffffffffffffffffffffffffffffffffffffffff191689851617905580516338a80c5360e11b81529051928a169263715018a69260048084019391929182900301818387803b1580156200065c57600080fd5b505af115801562000671573d6000803e3d6000fd5b505050506200067f62000936565b6001600160a01b0316876001600160a01b0316896001600160a01b03167f109e680e5525a688fcbb20189978e087df93150adc050b1592517f7ca215d30a60405160405180910390a450505050505050979650505050505050565b6001600160a01b038083166000908152600160205260409020548391166200070162000936565b6001600160a01b031614620007295760405163e3155a9160e01b815260040160405180910390fd5b6000836001600160a01b031663cbda8f826040518163ffffffff1660e01b8152600401602060405180830381865afa1580156200076a573d6000803e3d6000fd5b505050506040513d601f19601f820116820180604052508101906200079091906200130d565b6040516327c49ddd60e11b81526001600160a01b0385811660048301526024820183905291925090851690634f893bba90604401600060405180830381600087803b158015620007df57600080fd5b505af1158015620007f4573d6000803e3d6000fd5b50505050826001600160a01b03166200080c62000936565b6001600160a01b0316856001600160a01b03167f78d14c8b4e6adc2f1f2a447e8d0f0997d3b03230b3f6917f87f275131d0ca7f0846040516200085191815260200190565b60405180910390a450505050565b6001600160a01b038083166000908152600160205260409020548391166200088662000936565b6001600160a01b031614620008ae5760405163e3155a9160e01b815260040160405180910390fd5b6001600160a01b038381166000908152600160205260409020805473ffffffffffffffffffffffffffffffffffffffff19169184169182179055620008f262000936565b6001600160a01b0316846001600160a01b03167f9a44a9a7d775df9f74b749bbe9c1297cac32e5ee9ee7f30fe31fe82b0d52432460405160405180910390a4505050565b60003660147f00000000000000000000000000000000000000000000000000000000000000006001600160a01b031633148015620009745750808210155b15620009ab5760003662000989838562001327565b620009969282906200134f565b620009a1916200137b565b60601c9250505090565b339250505090565b610ffd80620013b283390190565b6001600160a01b0381168114620009d757600080fd5b50565b600060208284031215620009ed57600080fd5b8135620009fa81620009c1565b9392505050565b634e487b7160e01b600052604160045260246000fd5b6040805190810167ffffffffffffffff8111828210171562000a3d5762000a3d62000a01565b60405290565b60405160a0810167ffffffffffffffff8111828210171562000a3d5762000a3d62000a01565b604051610120810167ffffffffffffffff8111828210171562000a3d5762000a3d62000a01565b604051601f8201601f1916810167ffffffffffffffff8111828210171562000abc5762000abc62000a01565b604052919050565b8015158114620009d757600080fd5b60006040828403121562000ae657600080fd5b62000af062000a17565b9050813562000aff8162000ac4565b8152602082013562000b1181620009c1565b602082015292915050565b600082601f83011262000b2e57600080fd5b813567ffffffffffffffff81111562000b4b5762000b4b62000a01565b62000b60601f8201601f191660200162000a90565b81815284602083860101111562000b7657600080fd5b816020850160208301376000918101602001919091529392505050565b60006040828403121562000ba657600080fd5b62000bb062000a17565b9050813567ffffffffffffffff8082111562000bcb57600080fd5b9083019060a0828603121562000be057600080fd5b62000bea62000a43565b82358152602083013560208201526040830135604082015260608301358281111562000c1557600080fd5b62000c238782860162000b1c565b60608301525060808301358281111562000c3c57600080fd5b62000c4a8782860162000b1c565b6080830152508352602084013591508082111562000c6757600080fd5b5062000c768482850162000b1c565b60208301525092915050565b600082601f83011262000c9457600080fd5b8135602067ffffffffffffffff8083111562000cb45762000cb462000a01565b8260051b62000cc583820162000a90565b938452858101830193838101908886111562000ce057600080fd5b84880192505b8583101562000d215782358481111562000d005760008081fd5b62000d108a87838c010162000b93565b835250918401919084019062000ce6565b98975050505050505050565b60006080828403121562000d4057600080fd5b6040516080810167ffffffffffffffff828210818311171562000d675762000d6762000a01565b81604052829350843591508082111562000d8057600080fd5b62000d8e8683870162000b1c565b8352602085013591508082111562000da557600080fd5b5062000db48582860162000b1c565b602083015250604083013560ff8116811462000dcf57600080fd5b6040820152606092830135920191909152919050565b6000806000806000806000610100888a03121562000e0257600080fd5b62000e0e898962000ad3565b9650604088013567ffffffffffffffff8082111562000e2c57600080fd5b62000e3a8b838c0162000b93565b975060608a013591508082111562000e5157600080fd5b62000e5f8b838c0162000b93565b965060808a013591508082111562000e7657600080fd5b62000e848b838c0162000b93565b955060a08a013591508082111562000e9b57600080fd5b62000ea98b838c0162000c82565b945060c08a013591508082111562000ec057600080fd5b5062000ecf8a828b0162000d2d565b92505060e0880135905092959891949750929550565b6000806040838503121562000ef957600080fd5b823562000f0681620009c1565b9150602083013562000f1881620009c1565b809150509250929050565b6000815180845260005b8181101562000f4b5760208185018101518683018201520162000f2d565b506000602082860101526020601f19601f83011685010191505092915050565b60a08152600062000f8060a083018862000f23565b828103602084015262000f94818862000f23565b60ff969096166040840152505060608101929092526001600160a01b031660809091015292915050565b805162000fcb81620009c1565b919050565b60006020828403121562000fe357600080fd5b8151620009fa81620009c1565b805163ffffffff8116811462000fcb57600080fd5b805162000fcb8162000ac4565b60008060008385036101608112156200102a57600080fd5b84516200103781620009c1565b9350610120601f1982018113156200104e57600080fd5b6200105862000a69565b9150620010686020870162000fbe565b8252620010786040870162000ff0565b60208301526200108b6060870162000ff0565b60408301526080860151606083015260a08601516080830152620010b260c0870162001005565b60a0830152620010c560e0870162001005565b60c08301526101008681015160e084015290860151908201529150620010ef610140850162000fbe565b90509250925092565b6000610160820190506001600160a01b0380861683528085511660208401525063ffffffff6020850151166040830152604084015162001140606084018263ffffffff169052565b5060608401516080830152608084015160a083015260a08401516200116960c084018215159052565b5060c084015180151560e08401525060e0840151610100838101919091528401516101208301526001600160a01b038316610140830152949350505050565b6000815160408452805160408501526020810151606085015260408101516080850152606081015160a080860152620011e560e086018262000f23565b905060808201519150603f198582030160c086015262001206818362000f23565b9150506020830151848203602086015262001222828262000f23565b95945050505050565b855115158152600060206001600160a01b0381890151168184015260c060408401526200125c60c0840188620011a8565b8381036060850152620012708188620011a8565b90508381036080850152620012868187620011a8565b905083810360a08501528085518083528383019150838160051b84010184880160005b83811015620012db57601f19868403018552620012c8838351620011a8565b94870194925090860190600101620012a9565b50909c9b505050505050505050505050565b6000602082840312156200130057600080fd5b8151620009fa8162000ac4565b6000602082840312156200132057600080fd5b5051919050565b818103818111156200134957634e487b7160e01b600052601160045260246000fd5b92915050565b600080858511156200136057600080fd5b838611156200136e57600080fd5b5050820193919092039150565b6bffffffffffffffffffffffff198135818116916014851015620013a95780818660140360031b1b83161692505b50509291505056fe60c06040523480156200001157600080fd5b5060405162000ffd38038062000ffd833981016040819052620000349162000254565b80828686600362000046838262000395565b50600462000055828262000395565b50505080600003620000825760405163392e1e2760e01b8152600060048201526024015b60405180910390fd5b6080526001600160a01b038116620000b157604051631e4fbdf760e01b81526000600482015260240162000079565b620000bc81620000db565b50620000ca8160016200012d565b505060ff1660a05250620004619050565b600580546001600160a01b038381166001600160a01b0319831681179093556040519116919082907f8be0079c531659141344cd1fd0a4f28419497f9722a3daafe3b4186f6b6457e090600090a35050565b6001600160a01b038216600081815260066020908152604091829020805460ff191685151590811790915591519182527f583b0aa0e528532caf4b907c11d7a8158a122fe2a6fb80cd9b09776ebea8d92d910160405180910390a25050565b634e487b7160e01b600052604160045260246000fd5b600082601f830112620001b457600080fd5b81516001600160401b0380821115620001d157620001d16200018c565b604051601f8301601f19908116603f01168101908282118183101715620001fc57620001fc6200018c565b81604052838152602092508660208588010111156200021a57600080fd5b600091505b838210156200023e57858201830151818301840152908201906200021f565b6000602085830101528094505050505092915050565b600080600080600060a086880312156200026d57600080fd5b85516001600160401b03808211156200028557600080fd5b6200029389838a01620001a2565b96506020880151915080821115620002aa57600080fd5b50620002b988828901620001a2565b945050604086015160ff81168114620002d157600080fd5b6060870151608088015191945092506001600160a01b0381168114620002f657600080fd5b809150509295509295909350565b600181811c908216806200031957607f821691505b6020821081036200033a57634e487b7160e01b600052602260045260246000fd5b50919050565b601f82111562000390576000816000526020600020601f850160051c810160208610156200036b5750805b601f850160051c820191505b818110156200038c5782815560010162000377565b5050505b505050565b81516001600160401b03811115620003b157620003b16200018c565b620003c981620003c2845462000304565b8462000340565b602080601f831160018114620004015760008415620003e85750858301515b600019600386901b1c1916600185901b1785556200038c565b600085815260208120601f198616915b82811015620004325788860151825594840194600190910190840162000411565b5085821015620004515787850151600019600388901b60f8161c191681555b5050505050600190811b01905550565b60805160a051610b6f6200048e600039600061018d0152600081816101b901526108000152610b6f6000f3fe608060405234801561001057600080fd5b506004361061011b5760003560e01c806370a08231116100b25780639dc29fac11610081578063cf456ae711610066578063cf456ae71461028f578063dd62ed3e146102a2578063f2fde38b146102db57600080fd5b80639dc29fac14610269578063a9059cbb1461027c57600080fd5b806370a0823114610215578063715018a61461023e5780638da5cb5b1461024657806395d89b411461026157600080fd5b8063313ce567116100ee578063313ce56714610186578063355274ea146101b757806340c10f19146101dd578063423afa66146101f257600080fd5b806306fdde0314610120578063095ea7b31461013e57806318160ddd1461016157806323b872dd14610173575b600080fd5b6101286102ee565b604051610135919061097c565b60405180910390f35b61015161014c3660046109e7565b610380565b6040519015158152602001610135565b6002545b604051908152602001610135565b610151610181366004610a11565b61039a565b60405160ff7f0000000000000000000000000000000000000000000000000000000000000000168152602001610135565b7f0000000000000000000000000000000000000000000000000000000000000000610165565b6101f06101eb3660046109e7565b6103be565b005b610151610200366004610a4d565b60066020526000908152604090205460ff1681565b610165610223366004610a4d565b6001600160a01b031660009081526020819052604090205490565b6101f06103fc565b6005546040516001600160a01b039091168152602001610135565b610128610410565b6101f06102773660046109e7565b61041f565b61015161028a3660046109e7565b610459565b6101f061029d366004610a6f565b610467565b6101656102b0366004610aab565b6001600160a01b03918216600090815260016020908152604080832093909416825291909152205490565b6101f06102e9366004610a4d565b610479565b6060600380546102fd90610ade565b80601f016020809104026020016040519081016040528092919081815260200182805461032990610ade565b80156103765780601f1061034b57610100808354040283529160200191610376565b820191906000526020600020905b81548152906001019060200180831161035957829003601f168201915b5050505050905090565b60003361038e8185856104bc565b60019150505b92915050565b6000336103a88582856104ce565b6103b385858561054c565b506001949350505050565b3360009081526006602052604090205460ff166103ee57604051634199e25360e11b815260040160405180910390fd5b6103f882826105ab565b5050565b6104046105e1565b61040e600061060e565b565b6060600480546102fd90610ade565b3360009081526006602052604090205460ff1661044f57604051634199e25360e11b815260040160405180910390fd5b6103f88282610678565b60003361038e81858561054c565b61046f6105e1565b6103f882826106ae565b6104816105e1565b6001600160a01b0381166104b057604051631e4fbdf760e01b8152600060048201526024015b60405180910390fd5b6104b98161060e565b50565b6104c9838383600161070d565b505050565b6001600160a01b038381166000908152600160209081526040808320938616835292905220546000198114610546578181101561053757604051637dc7a0d960e11b81526001600160a01b038416600482015260248101829052604481018390526064016104a7565b6105468484848403600061070d565b50505050565b6001600160a01b03831661057657604051634b637e8f60e11b8152600060048201526024016104a7565b6001600160a01b0382166105a05760405163ec442f0560e01b8152600060048201526024016104a7565b6104c98383836107e2565b6001600160a01b0382166105d55760405163ec442f0560e01b8152600060048201526024016104a7565b6103f8600083836107e2565b6005546001600160a01b0316331461040e5760405163118cdaa760e01b81523360048201526024016104a7565b600580546001600160a01b038381167fffffffffffffffffffffffff0000000000000000000000000000000000000000831681179093556040519116919082907f8be0079c531659141344cd1fd0a4f28419497f9722a3daafe3b4186f6b6457e090600090a35050565b6001600160a01b0382166106a257604051634b637e8f60e11b8152600060048201526024016104a7565b6103f8826000836107e2565b6001600160a01b038216600081815260066020908152604091829020805460ff191685151590811790915591519182527f583b0aa0e528532caf4b907c11d7a8158a122fe2a6fb80cd9b09776ebea8d92d910160405180910390a25050565b6001600160a01b0384166107375760405163e602df0560e01b8152600060048201526024016104a7565b6001600160a01b03831661076157604051634a1406b160e11b8152600060048201526024016104a7565b6001600160a01b038085166000908152600160209081526040808320938716835292905220829055801561054657826001600160a01b0316846001600160a01b03167f8c5be1e5ebec7d5bd14f71427d1e84f3dd0314c0f7b2291e5b200ac8c7c3b925846040516107d491815260200190565b60405180910390a350505050565b6107ed838383610852565b6001600160a01b0383166104c9576002547f0000000000000000000000000000000000000000000000000000000000000000908181111561084b5760405163279e7e1560e21b815260048101829052602481018390526044016104a7565b5050505050565b6001600160a01b03831661087d5780600260008282546108729190610b18565b909155506108ef9050565b6001600160a01b038316600090815260208190526040902054818110156108d05760405163391434e360e21b81526001600160a01b038516600482015260248101829052604481018390526064016104a7565b6001600160a01b03841660009081526020819052604090209082900390555b6001600160a01b03821661090b5760028054829003905561092a565b6001600160a01b03821660009081526020819052604090208054820190555b816001600160a01b0316836001600160a01b03167fddf252ad1be2c89b69c2b068fc378daa952ba7f163c4a11628f55a4df523b3ef8360405161096f91815260200190565b60405180910390a3505050565b60006020808352835180602085015260005b818110156109aa5785810183015185820160400152820161098e565b506000604082860101526040601f19601f8301168501019250505092915050565b80356001600160a01b03811681146109e257600080fd5b919050565b600080604083850312156109fa57600080fd5b610a03836109cb565b946020939093013593505050565b600080600060608486031215610a2657600080fd5b610a2f846109cb565b9250610a3d602085016109cb565b9150604084013590509250925092565b600060208284031215610a5f57600080fd5b610a68826109cb565b9392505050565b60008060408385031215610a8257600080fd5b610a8b836109cb565b915060208301358015158114610aa057600080fd5b809150509250929050565b60008060408385031215610abe57600080fd5b610ac7836109cb565b9150610ad5602084016109cb565b90509250929050565b600181811c90821680610af257607f821691505b602082108103610b1257634e487b7160e01b600052602260045260246000fd5b50919050565b8082018082111561039457634e487b7160e01b600052601160045260246000fdfea26469706673582212200902ac30e917bee2171f6a23df98e1319c0806bbed49f4d1d7e4311d76d689ae64736f6c63430008170033a26469706673582212200dbb1a040b32743994987e7c4622360671eb0c380d8f77113510904c19ec2bc164736f6c63430008170033",
    "linkReferences": {}
  },
  "methodIdentifiers": {
    "createPIMWorkflow((bool,address),((uint256,uint256,uint256,string,string),bytes),((uint256,uint256,uint256,string,string),bytes),((uint256,uint256,uint256,string,string),bytes),((uint256,uint256,uint256,string,string),bytes)[],(string,string,uint8,uint256),uint256)": "7a0821c9",
    "isTrustedForwarder(address)": "572b6c05",
    "orchestratorFactory()": "2f36a25d",
    "transferPimFeeEligibility(address,address)": "afd00d8a",
    "trustedForwarder()": "7da0a877",
    "withdrawPimFee(address,address)": "a0f7c7eb"
  },
  "id": 83
}