{
  "abi": [
    {
      "type": "constructor",
      "inputs": [
        {
          "name": "_orchestratorFactory",
          "type": "address",
          "internalType": "address"
        },
        {
          "name": "_trustedForwarder",
          "type": "address",
          "internalType": "address"
        }
      ],
      "stateMutability": "nonpayable"
    },
    {
      "type": "function",
      "name": "createPIMWorkflow",
      "inputs": [
        {
          "name": "workflowConfig",
          "type": "tuple",
          "internalType": "struct IOrchestratorFactory_v1.WorkflowConfig",
          "components": [
            {
              "name": "independentUpdates",
              "type": "bool",
              "internalType": "bool"
            },
            {
              "name": "independentUpdateAdmin",
              "type": "address",
              "internalType": "address"
            }
          ]
        },
        {
          "name": "fundingManagerConfig",
          "type": "tuple",
          "internalType": "struct IOrchestratorFactory_v1.ModuleConfig",
          "components": [
            {
              "name": "metadata",
              "type": "tuple",
              "internalType": "struct IModule_v1.Metadata",
              "components": [
                {
                  "name": "majorVersion",
                  "type": "uint256",
                  "internalType": "uint256"
                },
                {
                  "name": "minorVersion",
                  "type": "uint256",
                  "internalType": "uint256"
                },
                {
                  "name": "patchVersion",
                  "type": "uint256",
                  "internalType": "uint256"
                },
                {
                  "name": "url",
                  "type": "string",
                  "internalType": "string"
                },
                {
                  "name": "title",
                  "type": "string",
                  "internalType": "string"
                }
              ]
            },
            {
              "name": "configData",
              "type": "bytes",
              "internalType": "bytes"
            }
          ]
        },
        {
          "name": "authorizerConfig",
          "type": "tuple",
          "internalType": "struct IOrchestratorFactory_v1.ModuleConfig",
          "components": [
            {
              "name": "metadata",
              "type": "tuple",
              "internalType": "struct IModule_v1.Metadata",
              "components": [
                {
                  "name": "majorVersion",
                  "type": "uint256",
                  "internalType": "uint256"
                },
                {
                  "name": "minorVersion",
                  "type": "uint256",
                  "internalType": "uint256"
                },
                {
                  "name": "patchVersion",
                  "type": "uint256",
                  "internalType": "uint256"
                },
                {
                  "name": "url",
                  "type": "string",
                  "internalType": "string"
                },
                {
                  "name": "title",
                  "type": "string",
                  "internalType": "string"
                }
              ]
            },
            {
              "name": "configData",
              "type": "bytes",
              "internalType": "bytes"
            }
          ]
        },
        {
          "name": "paymentProcessorConfig",
          "type": "tuple",
          "internalType": "struct IOrchestratorFactory_v1.ModuleConfig",
          "components": [
            {
              "name": "metadata",
              "type": "tuple",
              "internalType": "struct IModule_v1.Metadata",
              "components": [
                {
                  "name": "majorVersion",
                  "type": "uint256",
                  "internalType": "uint256"
                },
                {
                  "name": "minorVersion",
                  "type": "uint256",
                  "internalType": "uint256"
                },
                {
                  "name": "patchVersion",
                  "type": "uint256",
                  "internalType": "uint256"
                },
                {
                  "name": "url",
                  "type": "string",
                  "internalType": "string"
                },
                {
                  "name": "title",
                  "type": "string",
                  "internalType": "string"
                }
              ]
            },
            {
              "name": "configData",
              "type": "bytes",
              "internalType": "bytes"
            }
          ]
        },
        {
          "name": "moduleConfigs",
          "type": "tuple[]",
          "internalType": "struct IOrchestratorFactory_v1.ModuleConfig[]",
          "components": [
            {
              "name": "metadata",
              "type": "tuple",
              "internalType": "struct IModule_v1.Metadata",
              "components": [
                {
                  "name": "majorVersion",
                  "type": "uint256",
                  "internalType": "uint256"
                },
                {
                  "name": "minorVersion",
                  "type": "uint256",
                  "internalType": "uint256"
                },
                {
                  "name": "patchVersion",
                  "type": "uint256",
                  "internalType": "uint256"
                },
                {
                  "name": "url",
                  "type": "string",
                  "internalType": "string"
                },
                {
                  "name": "title",
                  "type": "string",
                  "internalType": "string"
                }
              ]
            },
            {
              "name": "configData",
              "type": "bytes",
              "internalType": "bytes"
            }
          ]
        },
        {
          "name": "issuanceTokenParams",
          "type": "tuple",
          "internalType": "struct IBondingCurveBase_v1.IssuanceToken",
          "components": [
            {
              "name": "name",
              "type": "string",
              "internalType": "string"
            },
            {
              "name": "symbol",
              "type": "string",
              "internalType": "string"
            },
            {
              "name": "decimals",
              "type": "uint8",
              "internalType": "uint8"
            },
            {
              "name": "maxSupply",
              "type": "uint256",
              "internalType": "uint256"
            }
          ]
        },
        {
          "name": "initialPurchaseAmount",
          "type": "uint256",
          "internalType": "uint256"
        }
      ],
      "outputs": [
        {
          "name": "orchestrator",
          "type": "address",
          "internalType": "contract IOrchestrator_v1"
        }
      ],
      "stateMutability": "nonpayable"
    },
    {
      "type": "function",
      "name": "isTrustedForwarder",
      "inputs": [
        {
          "name": "forwarder",
          "type": "address",
          "internalType": "address"
        }
      ],
      "outputs": [
        {
          "name": "",
          "type": "bool",
          "internalType": "bool"
        }
      ],
      "stateMutability": "view"
    },
    {
      "type": "function",
      "name": "orchestratorFactory",
      "inputs": [],
      "outputs": [
        {
          "name": "",
          "type": "address",
          "internalType": "address"
        }
      ],
      "stateMutability": "view"
    },
    {
      "type": "function",
      "name": "transferPimFeeEligibility",
      "inputs": [
        {
          "name": "fundingManager",
          "type": "address",
          "internalType": "address"
        },
        {
          "name": "to",
          "type": "address",
          "internalType": "address"
        }
      ],
      "outputs": [],
      "stateMutability": "nonpayable"
    },
    {
      "type": "function",
      "name": "trustedForwarder",
      "inputs": [],
      "outputs": [
        {
          "name": "",
          "type": "address",
          "internalType": "address"
        }
      ],
      "stateMutability": "view"
    },
    {
      "type": "function",
      "name": "withdrawPimFee",
      "inputs": [
        {
          "name": "fundingManager",
          "type": "address",
          "internalType": "address"
        },
        {
          "name": "to",
          "type": "address",
          "internalType": "address"
        }
      ],
      "outputs": [],
      "stateMutability": "nonpayable"
    },
    {
      "type": "event",
      "name": "PIMWorkflowCreated",
      "inputs": [
        {
          "name": "fundingManager",
          "type": "address",
          "indexed": true,
          "internalType": "address"
        },
        {
          "name": "issuanceToken",
          "type": "address",
          "indexed": true,
          "internalType": "address"
        },
        {
          "name": "deployer",
          "type": "address",
          "indexed": true,
          "internalType": "address"
        }
      ],
      "anonymous": false
    },
    {
      "type": "event",
      "name": "PimFeeClaimed",
      "inputs": [
        {
          "name": "fundingManager",
          "type": "address",
          "indexed": true,
          "internalType": "address"
        },
        {
          "name": "claimer",
          "type": "address",
          "indexed": true,
          "internalType": "address"
        },
        {
          "name": "to",
          "type": "address",
          "indexed": true,
          "internalType": "address"
        },
        {
          "name": "amount",
          "type": "uint256",
          "indexed": false,
          "internalType": "uint256"
        }
      ],
      "anonymous": false
    },
    {
      "type": "event",
      "name": "PimFeeRecipientUpdated",
      "inputs": [
        {
          "name": "fundingManager",
          "type": "address",
          "indexed": true,
          "internalType": "address"
        },
        {
          "name": "oldRecipient",
          "type": "address",
          "indexed": true,
          "internalType": "address"
        },
        {
          "name": "newRecipient",
          "type": "address",
          "indexed": true,
          "internalType": "address"
        }
      ],
      "anonymous": false
    },
    {
      "type": "error",
      "name": "PIM_WorkflowFactory__OnlyPimFeeRecipient",
      "inputs": []
    }
  ],
  "bytecode": {
    "object": "0x60a060405234801561001057600080fd5b5060405161240438038061240483398101604081905261002f91610076565b6001600160a01b03908116608052600080546001600160a01b031916929091169190911790556100a9565b80516001600160a01b038116811461007157600080fd5b919050565b6000806040838503121561008957600080fd5b6100928361005a565b91506100a06020840161005a565b90509250929050565b6080516123406100c4600039600061066201526123406000f3fe60806040523480156200001157600080fd5b50600436106200006a5760003560e01c80632f36a25d146200006f578063572b6c05146200009b5780637a0821c914620000c35780637da0a87714620000da578063a0f7c7eb14620000e4578063afd00d8a14620000fd575b600080fd5b60005462000083906001600160a01b031681565b6040516200009291906200093c565b60405180910390f35b620000b2620000ac36600462000969565b62000114565b604051901515815260200162000092565b62000083620000d436600462000d6c565b6200013b565b6200008362000660565b620000fb620000f536600462000e6b565b62000684565b005b620000fb6200010e36600462000e6b565b62000808565b60006200012062000660565b6001600160a01b0316826001600160a01b0316149050919050565b60008083600001518460200151856040015186606001513060405162000161906200092e565b6200017195949392919062000ef1565b604051809103906000f0801580156200018e573d6000803e3d6000fd5b509050600087602001519050600081806020019051810190620001b2919062000f56565b905030604051602001620001c791906200093c565b604051602081830303815290604052915081896020018190525060008a6020015190506000808280602001905181019062000203919062000f98565b92509250508582826040516020016200021f939291906200107e565b6040516020818303038152906040529250828d6020018190525060008054906101000a90046001600160a01b03166001600160a01b031663ff2676998f8f8f8f8f6040518663ffffffff1660e01b815260040162000282959493929190620011b0565b6020604051808303816000875af1158015620002a2573d6000803e3d6000fd5b505050506040513d601f19601f82011682018060405250810190620002c8919062000f56565b96506000876001600160a01b03166304baed9e6040518163ffffffff1660e01b8152600401602060405180830381865afa1580156200030b573d6000803e3d6000fd5b505050506040513d601f19601f8201168201806040525081019062000331919062000f56565b60405163cf456ae760e01b81529091506001600160a01b0388169063cf456ae7906200036590849060019060040162001271565b600060405180830381600087803b1580156200038057600080fd5b505af115801562000395573d6000803e3d6000fd5b505060405163cf456ae760e01b81526001600160a01b038a16925063cf456ae79150620003ca90309060009060040162001271565b600060405180830381600087803b158015620003e557600080fd5b505af1158015620003fa573d6000803e3d6000fd5b5050505060008911156200057f57816001600160a01b03166323b872dd62000421620008d2565b6040516001600160e01b031960e084901b1681526001600160a01b039091166004820152306024820152604481018c90526064016020604051808303816000875af115801562000475573d6000803e3d6000fd5b505050506040513d601f19601f820116820180604052508101906200049b91906200128c565b5060405163095ea7b360e01b81526001600160a01b0383169063095ea7b390620004cc9084908d90600401620012ac565b6020604051808303816000875af1158015620004ec573d6000803e3d6000fd5b505050506040513d601f19601f820116820180604052508101906200051291906200128c565b5060405163935b7dbd60e01b81526001600160a01b038681166004830152602482018b90526001604483015282169063935b7dbd90606401600060405180830381600087803b1580156200056557600080fd5b505af11580156200057a573d6000803e3d6000fd5b505050505b6001600160a01b0381811660009081526001602052604080822080546001600160a01b03191689851617905580516338a80c5360e11b81529051928a169263715018a69260048084019391929182900301818387803b158015620005e257600080fd5b505af1158015620005f7573d6000803e3d6000fd5b5050505062000605620008d2565b6001600160a01b0316876001600160a01b0316896001600160a01b03167f109e680e5525a688fcbb20189978e087df93150adc050b1592517f7ca215d30a60405160405180910390a450505050505050979650505050505050565b7f000000000000000000000000000000000000000000000000000000000000000090565b6001600160a01b03808316600090815260016020526040902054839116620006ab620008d2565b6001600160a01b031614620006d35760405163e3155a9160e01b815260040160405180910390fd5b6000836001600160a01b031663cbda8f826040518163ffffffff1660e01b8152600401602060405180830381865afa15801562000714573d6000803e3d6000fd5b505050506040513d601f19601f820116820180604052508101906200073a9190620012c5565b6040516327c49ddd60e11b81529091506001600160a01b03851690634f893bba906200076d9086908590600401620012ac565b600060405180830381600087803b1580156200078857600080fd5b505af11580156200079d573d6000803e3d6000fd5b50505050826001600160a01b0316620007b5620008d2565b6001600160a01b0316856001600160a01b03167f78d14c8b4e6adc2f1f2a447e8d0f0997d3b03230b3f6917f87f275131d0ca7f084604051620007fa91815260200190565b60405180910390a450505050565b6001600160a01b038083166000908152600160205260409020548391166200082f620008d2565b6001600160a01b031614620008575760405163e3155a9160e01b815260040160405180910390fd5b6001600160a01b03838116600090815260016020526040902080546001600160a01b03191691841691821790556200088e620008d2565b6001600160a01b0316846001600160a01b03167f9a44a9a7d775df9f74b749bbe9c1297cac32e5ee9ee7f30fe31fe82b0d52432460405160405180910390a4505050565b6000366014620008e23362000114565b8015620008ef5750808210155b156200092657600036620009048385620012df565b6200091192829062001307565b6200091c9162001333565b60601c9250505090565b339250505090565b610fa6806200136583390190565b6001600160a01b0391909116815260200190565b6001600160a01b03811681146200096657600080fd5b50565b6000602082840312156200097c57600080fd5b8135620009898162000950565b9392505050565b634e487b7160e01b600052604160045260246000fd5b604080519081016001600160401b0381118282101715620009cb57620009cb62000990565b60405290565b60405160a081016001600160401b0381118282101715620009cb57620009cb62000990565b60405161012081016001600160401b0381118282101715620009cb57620009cb62000990565b604051601f8201601f191681016001600160401b038111828210171562000a475762000a4762000990565b604052919050565b80151581146200096657600080fd5b60006040828403121562000a7157600080fd5b62000a7b620009a6565b9050813562000a8a8162000a4f565b8152602082013562000a9c8162000950565b602082015292915050565b600082601f83011262000ab957600080fd5b81356001600160401b0381111562000ad55762000ad562000990565b62000aea601f8201601f191660200162000a1c565b81815284602083860101111562000b0057600080fd5b816020850160208301376000918101602001919091529392505050565b60006040828403121562000b3057600080fd5b62000b3a620009a6565b905081356001600160401b038082111562000b5457600080fd5b9083019060a0828603121562000b6957600080fd5b62000b73620009d1565b82358152602083013560208201526040830135604082015260608301358281111562000b9e57600080fd5b62000bac8782860162000aa7565b60608301525060808301358281111562000bc557600080fd5b62000bd38782860162000aa7565b6080830152508352602084013591508082111562000bf057600080fd5b5062000bff8482850162000aa7565b60208301525092915050565b600082601f83011262000c1d57600080fd5b813560206001600160401b038083111562000c3c5762000c3c62000990565b8260051b62000c4d83820162000a1c565b938452858101830193838101908886111562000c6857600080fd5b84880192505b8583101562000ca95782358481111562000c885760008081fd5b62000c988a87838c010162000b1d565b835250918401919084019062000c6e565b98975050505050505050565b60006080828403121562000cc857600080fd5b604051608081016001600160401b03808211838310171562000cee5762000cee62000990565b81604052829350843591508082111562000d0757600080fd5b62000d158683870162000aa7565b8352602085013591508082111562000d2c57600080fd5b5062000d3b8582860162000aa7565b602083015250604083013560ff8116811462000d5657600080fd5b6040820152606092830135920191909152919050565b6000806000806000806000610100888a03121562000d8957600080fd5b62000d95898962000a5e565b965060408801356001600160401b038082111562000db257600080fd5b62000dc08b838c0162000b1d565b975060608a013591508082111562000dd757600080fd5b62000de58b838c0162000b1d565b965060808a013591508082111562000dfc57600080fd5b62000e0a8b838c0162000b1d565b955060a08a013591508082111562000e2157600080fd5b62000e2f8b838c0162000c0b565b945060c08a013591508082111562000e4657600080fd5b5062000e558a828b0162000cb5565b92505060e0880135905092959891949750929550565b6000806040838503121562000e7f57600080fd5b823562000e8c8162000950565b9150602083013562000e9e8162000950565b809150509250929050565b6000815180845260005b8181101562000ed15760208185018101518683018201520162000eb3565b506000602082860101526020601f19601f83011685010191505092915050565b60a08152600062000f0660a083018862000ea9565b828103602084015262000f1a818862000ea9565b60ff969096166040840152505060608101929092526001600160a01b031660809091015292915050565b805162000f518162000950565b919050565b60006020828403121562000f6957600080fd5b8151620009898162000950565b805163ffffffff8116811462000f5157600080fd5b805162000f518162000a4f565b600080600083850361016081121562000fb057600080fd5b845162000fbd8162000950565b9350610120601f19820181131562000fd457600080fd5b62000fde620009f6565b915062000fee6020870162000f44565b825262000ffe6040870162000f76565b6020830152620010116060870162000f76565b60408301526080860151606083015260a086015160808301526200103860c0870162000f8b565b60a08301526200104b60e0870162000f8b565b60c08301526101008681015160e08401529086015190820152915062001075610140850162000f44565b90509250925092565b6001600160a01b03848116825283511660208083019190915283015163ffffffff16604080830191909152830151610160820190620010c5606084018263ffffffff169052565b5060608401516080830152608084015160a083015260a0840151620010ee60c084018215159052565b5060c084015180151560e08401525060e0840151610100838101919091528401516101208301526001600160a01b038316610140830152949350505050565b6000815160408452805160408501526020810151606085015260408101516080850152606081015160a0808601526200116a60e086018262000ea9565b905060808201519150603f198582030160c08601526200118b818362000ea9565b91505060208301518482036020860152620011a7828262000ea9565b95945050505050565b8551151581526000602060018060a01b0381890151168184015260c06040840152620011e060c08401886200112d565b8381036060850152620011f481886200112d565b905083810360808501526200120a81876200112d565b905083810360a08501528085518083528383019150838160051b84010184880160005b838110156200125f57601f198684030185526200124c8383516200112d565b948701949250908601906001016200122d565b50909c9b505050505050505050505050565b6001600160a01b039290921682521515602082015260400190565b6000602082840312156200129f57600080fd5b8151620009898162000a4f565b6001600160a01b03929092168252602082015260400190565b600060208284031215620012d857600080fd5b5051919050565b818103818111156200130157634e487b7160e01b600052601160045260246000fd5b92915050565b600080858511156200131857600080fd5b838611156200132657600080fd5b5050820193919092039150565b6001600160601b031981358181169160148510156200135c5780818660140360031b1b83161692505b50509291505056fe60c06040523480156200001157600080fd5b5060405162000fa638038062000fa6833981016040819052620000349162000254565b80828686600362000046838262000395565b50600462000055828262000395565b50505080600003620000825760405163392e1e2760e01b8152600060048201526024015b60405180910390fd5b6080526001600160a01b038116620000b157604051631e4fbdf760e01b81526000600482015260240162000079565b620000bc81620000db565b50620000ca8160016200012d565b505060ff1660a05250620004619050565b600580546001600160a01b038381166001600160a01b0319831681179093556040519116919082907f8be0079c531659141344cd1fd0a4f28419497f9722a3daafe3b4186f6b6457e090600090a35050565b6001600160a01b038216600081815260066020908152604091829020805460ff191685151590811790915591519182527f583b0aa0e528532caf4b907c11d7a8158a122fe2a6fb80cd9b09776ebea8d92d910160405180910390a25050565b634e487b7160e01b600052604160045260246000fd5b600082601f830112620001b457600080fd5b81516001600160401b0380821115620001d157620001d16200018c565b604051601f8301601f19908116603f01168101908282118183101715620001fc57620001fc6200018c565b81604052838152602092508660208588010111156200021a57600080fd5b600091505b838210156200023e57858201830151818301840152908201906200021f565b6000602085830101528094505050505092915050565b600080600080600060a086880312156200026d57600080fd5b85516001600160401b03808211156200028557600080fd5b6200029389838a01620001a2565b96506020880151915080821115620002aa57600080fd5b50620002b988828901620001a2565b945050604086015160ff81168114620002d157600080fd5b6060870151608088015191945092506001600160a01b0381168114620002f657600080fd5b809150509295509295909350565b600181811c908216806200031957607f821691505b6020821081036200033a57634e487b7160e01b600052602260045260246000fd5b50919050565b601f82111562000390576000816000526020600020601f850160051c810160208610156200036b5750805b601f850160051c820191505b818110156200038c5782815560010162000377565b5050505b505050565b81516001600160401b03811115620003b157620003b16200018c565b620003c981620003c2845462000304565b8462000340565b602080601f831160018114620004015760008415620003e85750858301515b600019600386901b1c1916600185901b1785556200038c565b600085815260208120601f198616915b82811015620004325788860151825594840194600190910190840162000411565b5085821015620004515787850151600019600388901b60f8161c191681555b5050505050600190811b01905550565b60805160a051610b1f62000487600039600061014d015260006103360152610b1f6000f3fe608060405234801561001057600080fd5b50600436106100db5760003560e01c806306fdde03146100e0578063095ea7b3146100fe57806318160ddd1461012157806323b872dd14610133578063313ce56714610146578063355274ea1461017757806340c10f191461017f578063423afa661461019457806370a08231146101b7578063715018a6146101e05780638da5cb5b146101e857806395d89b41146101fd5780639dc29fac14610205578063a9059cbb14610218578063cf456ae71461022b578063dd62ed3e1461023e578063f2fde38b14610251575b600080fd5b6100e8610264565b6040516100f591906108f7565b60405180910390f35b61011161010c366004610962565b6102f6565b60405190151581526020016100f5565b6002545b6040519081526020016100f5565b61011161014136600461098c565b610310565b60405160ff7f00000000000000000000000000000000000000000000000000000000000000001681526020016100f5565b610125610334565b61019261018d366004610962565b610358565b005b6101116101a23660046109c8565b60066020526000908152604090205460ff1681565b6101256101c53660046109c8565b6001600160a01b031660009081526020819052604090205490565b610192610396565b6101f06103aa565b6040516100f591906109ea565b6100e86103b9565b610192610213366004610962565b6103c8565b610111610226366004610962565b610402565b6101926102393660046109fe565b610410565b61012561024c366004610a3a565b610422565b61019261025f3660046109c8565b61044d565b60606003805461027390610a6d565b80601f016020809104026020016040519081016040528092919081815260200182805461029f90610a6d565b80156102ec5780601f106102c1576101008083540402835291602001916102ec565b820191906000526020600020905b8154815290600101906020018083116102cf57829003601f168201915b5050505050905090565b600033610304818585610494565b60019150505b92915050565b60003361031e8582856104a6565b6103298585856104f9565b506001949350505050565b7f000000000000000000000000000000000000000000000000000000000000000090565b3360009081526006602052604090205460ff1661038857604051634199e25360e11b815260040160405180910390fd5b6103928282610558565b5050565b61039e61058e565b6103a860006105c0565b565b6005546001600160a01b031690565b60606004805461027390610a6d565b3360009081526006602052604090205460ff166103f857604051634199e25360e11b815260040160405180910390fd5b6103928282610612565b6000336103048185856104f9565b61041861058e565b6103928282610648565b6001600160a01b03918216600090815260016020908152604080832093909416825291909152205490565b61045561058e565b6001600160a01b038116610488576000604051631e4fbdf760e01b815260040161047f91906109ea565b60405180910390fd5b610491816105c0565b50565b6104a183838360016106a7565b505050565b60006104b28484610422565b905060001981146104f357818110156104e457828183604051637dc7a0d960e11b815260040161047f93929190610aa7565b6104f3848484840360006106a7565b50505050565b6001600160a01b038316610523576000604051634b637e8f60e11b815260040161047f91906109ea565b6001600160a01b03821661054d57600060405163ec442f0560e01b815260040161047f91906109ea565b6104a183838361077c565b6001600160a01b03821661058257600060405163ec442f0560e01b815260040161047f91906109ea565b6103926000838361077c565b336105976103aa565b6001600160a01b0316146103a8573360405163118cdaa760e01b815260040161047f91906109ea565b600580546001600160a01b038381166001600160a01b0319831681179093556040519116919082907f8be0079c531659141344cd1fd0a4f28419497f9722a3daafe3b4186f6b6457e090600090a35050565b6001600160a01b03821661063c576000604051634b637e8f60e11b815260040161047f91906109ea565b6103928260008361077c565b6001600160a01b038216600081815260066020908152604091829020805460ff191685151590811790915591519182527f583b0aa0e528532caf4b907c11d7a8158a122fe2a6fb80cd9b09776ebea8d92d910160405180910390a25050565b6001600160a01b0384166106d157600060405163e602df0560e01b815260040161047f91906109ea565b6001600160a01b0383166106fb576000604051634a1406b160e11b815260040161047f91906109ea565b6001600160a01b03808516600090815260016020908152604080832093871683529290522082905580156104f357826001600160a01b0316846001600160a01b03167f8c5be1e5ebec7d5bd14f71427d1e84f3dd0314c0f7b2291e5b200ac8c7c3b9258460405161076e91815260200190565b60405180910390a350505050565b6107878383836107e0565b6001600160a01b0383166104a157600061079f610334565b905060006107ac60025490565b9050818111156107d95760405163279e7e1560e21b8152600481018290526024810183905260440161047f565b5050505050565b6001600160a01b03831661080b5780600260008282546108009190610ac8565b9091555061086a9050565b6001600160a01b0383166000908152602081905260409020548181101561084b5783818360405163391434e360e21b815260040161047f93929190610aa7565b6001600160a01b03841660009081526020819052604090209082900390555b6001600160a01b038216610886576002805482900390556108a5565b6001600160a01b03821660009081526020819052604090208054820190555b816001600160a01b0316836001600160a01b03167fddf252ad1be2c89b69c2b068fc378daa952ba7f163c4a11628f55a4df523b3ef836040516108ea91815260200190565b60405180910390a3505050565b60006020808352835180602085015260005b8181101561092557858101830151858201604001528201610909565b506000604082860101526040601f19601f8301168501019250505092915050565b80356001600160a01b038116811461095d57600080fd5b919050565b6000806040838503121561097557600080fd5b61097e83610946565b946020939093013593505050565b6000806000606084860312156109a157600080fd5b6109aa84610946565b92506109b860208501610946565b9150604084013590509250925092565b6000602082840312156109da57600080fd5b6109e382610946565b9392505050565b6001600160a01b0391909116815260200190565b60008060408385031215610a1157600080fd5b610a1a83610946565b915060208301358015158114610a2f57600080fd5b809150509250929050565b60008060408385031215610a4d57600080fd5b610a5683610946565b9150610a6460208401610946565b90509250929050565b600181811c90821680610a8157607f821691505b602082108103610aa157634e487b7160e01b600052602260045260246000fd5b50919050565b6001600160a01b039390931683526020830191909152604082015260600190565b8082018082111561030a57634e487b7160e01b600052601160045260246000fdfea2646970667358221220c7184e3f3013d5cf089cd65eb014a07a1dc41321604a610652a6ad9f83b42a4a64736f6c63430008170033a26469706673582212202c4aeb7f0485ce876908e519204c9c4897cb23d00d7cd06344482b3f40190b1b64736f6c63430008170033",
    "linkReferences": {}
  },
  "methodIdentifiers": {
    "createPIMWorkflow((bool,address),((uint256,uint256,uint256,string,string),bytes),((uint256,uint256,uint256,string,string),bytes),((uint256,uint256,uint256,string,string),bytes),((uint256,uint256,uint256,string,string),bytes)[],(string,string,uint8,uint256),uint256)": "7a0821c9",
    "isTrustedForwarder(address)": "572b6c05",
    "orchestratorFactory()": "2f36a25d",
    "transferPimFeeEligibility(address,address)": "afd00d8a",
    "trustedForwarder()": "7da0a877",
    "withdrawPimFee(address,address)": "a0f7c7eb"
  },
  "id": 74
}