{
  "abi": [
    {
      "type": "constructor",
      "inputs": [
        {
          "name": "owner",
          "type": "address",
          "internalType": "address"
        },
        {
          "name": "_majorVersion",
          "type": "uint256",
          "internalType": "uint256"
        },
        {
          "name": "_implementation",
          "type": "address",
          "internalType": "address"
        },
        {
          "name": "_newMinorVersion",
          "type": "uint256",
          "internalType": "uint256"
        }
      ],
      "stateMutability": "nonpayable"
    },
    {
      "type": "function",
      "name": "acceptOwnership",
      "inputs": [],
      "outputs": [],
      "stateMutability": "nonpayable"
    },
    {
      "type": "function",
      "name": "emergencyModeActive",
      "inputs": [],
      "outputs": [
        {
          "name": "",
          "type": "bool",
          "internalType": "bool"
        }
      ],
      "stateMutability": "view"
    },
    {
      "type": "function",
      "name": "getImplementationAddress",
      "inputs": [],
      "outputs": [
        {
          "name": "",
          "type": "address",
          "internalType": "address"
        }
      ],
      "stateMutability": "view"
    },
    {
      "type": "function",
      "name": "implementation",
      "inputs": [],
      "outputs": [
        {
          "name": "",
          "type": "address",
          "internalType": "address"
        }
      ],
      "stateMutability": "view"
    },
    {
      "type": "function",
      "name": "owner",
      "inputs": [],
      "outputs": [
        {
          "name": "",
          "type": "address",
          "internalType": "address"
        }
      ],
      "stateMutability": "view"
    },
    {
      "type": "function",
      "name": "pendingOwner",
      "inputs": [],
      "outputs": [
        {
          "name": "",
          "type": "address",
          "internalType": "address"
        }
      ],
      "stateMutability": "view"
    },
    {
      "type": "function",
      "name": "renounceOwnership",
      "inputs": [],
      "outputs": [],
      "stateMutability": "nonpayable"
    },
    {
      "type": "function",
      "name": "restartImplementation",
      "inputs": [],
      "outputs": [],
      "stateMutability": "nonpayable"
    },
    {
      "type": "function",
      "name": "shutDownImplementation",
      "inputs": [],
      "outputs": [],
      "stateMutability": "nonpayable"
    },
    {
      "type": "function",
      "name": "supportsInterface",
      "inputs": [
        {
          "name": "interfaceId",
          "type": "bytes4",
          "internalType": "bytes4"
        }
      ],
      "outputs": [
        {
          "name": "",
          "type": "bool",
          "internalType": "bool"
        }
      ],
      "stateMutability": "view"
    },
    {
      "type": "function",
      "name": "transferOwnership",
      "inputs": [
        {
          "name": "newOwner",
          "type": "address",
          "internalType": "address"
        }
      ],
      "outputs": [],
      "stateMutability": "nonpayable"
    },
    {
      "type": "function",
      "name": "upgradeTo",
      "inputs": [
        {
          "name": "newImplementation",
          "type": "address",
          "internalType": "address"
        },
        {
          "name": "newMinorVersion",
          "type": "uint256",
          "internalType": "uint256"
        },
        {
          "name": "overrideShutdown",
          "type": "bool",
          "internalType": "bool"
        }
      ],
      "outputs": [],
      "stateMutability": "nonpayable"
    },
    {
      "type": "function",
      "name": "version",
      "inputs": [],
      "outputs": [
        {
          "name": "",
          "type": "uint256",
          "internalType": "uint256"
        },
        {
          "name": "",
          "type": "uint256",
          "internalType": "uint256"
        }
      ],
      "stateMutability": "view"
    },
    {
      "type": "event",
      "name": "Constructed",
      "inputs": [
        {
          "name": "majorVersion",
          "type": "uint256",
          "indexed": false,
          "internalType": "uint256"
        }
      ],
      "anonymous": false
    },
    {
      "type": "event",
      "name": "OwnershipTransferStarted",
      "inputs": [
        {
          "name": "previousOwner",
          "type": "address",
          "indexed": true,
          "internalType": "address"
        },
        {
          "name": "newOwner",
          "type": "address",
          "indexed": true,
          "internalType": "address"
        }
      ],
      "anonymous": false
    },
    {
      "type": "event",
      "name": "OwnershipTransferred",
      "inputs": [
        {
          "name": "previousOwner",
          "type": "address",
          "indexed": true,
          "internalType": "address"
        },
        {
          "name": "newOwner",
          "type": "address",
          "indexed": true,
          "internalType": "address"
        }
      ],
      "anonymous": false
    },
    {
      "type": "event",
      "name": "ShutdownInitiated",
      "inputs": [],
      "anonymous": false
    },
    {
      "type": "event",
      "name": "ShutdownReversed",
      "inputs": [],
      "anonymous": false
    },
    {
      "type": "event",
      "name": "Upgraded",
      "inputs": [
        {
          "name": "implementation",
          "type": "address",
          "indexed": true,
          "internalType": "address"
        },
        {
          "name": "newMinorVersion",
          "type": "uint256",
          "indexed": false,
          "internalType": "uint256"
        }
      ],
      "anonymous": false
    },
    {
      "type": "error",
      "name": "InverterBeacon__InvalidImplementation",
      "inputs": []
    },
    {
      "type": "error",
      "name": "InverterBeacon__InvalidImplementationMinorVersion",
      "inputs": []
    },
    {
      "type": "error",
      "name": "OwnableInvalidOwner",
      "inputs": [
        {
          "name": "owner",
          "type": "address",
          "internalType": "address"
        }
      ]
    },
    {
      "type": "error",
      "name": "OwnableUnauthorizedAccount",
      "inputs": [
        {
          "name": "account",
          "type": "address",
          "internalType": "address"
        }
      ]
    }
  ],
  "bytecode": {
    "object": "0x608060405234801561001057600080fd5b506040516108da3803806108da83398101604081905261002f91610224565b836001600160a01b03811661005e57604051631e4fbdf760e01b81526000600482015260240160405180910390fd5b61006781610082565b5060048390556100798282600061009e565b50505050610268565b600180546001600160a01b031916905561009b816100f0565b50565b6100a88382610140565b60058290556040518281526001600160a01b038416907f5887ab9161c3be2fe962b73e068a9f29082efb6daf2bfcbd3f064bc34d1ef1b79060200160405180910390a2505050565b600080546001600160a01b038381166001600160a01b0319831681178455604051919092169283917f8be0079c531659141344cd1fd0a4f28419497f9722a3daafe3b4186f6b6457e09190a35050565b816000816001600160a01b03163b1161016c576040516354b979e960e11b815260040160405180910390fd5b600280546001600160a01b0319166001600160a01b038516179055600354600160a01b900460ff166101b857600380546001600160a01b0319166001600160a01b038516179055505050565b811561020357600380546001600160a81b0319166001600160a01b0385161790556040517f3a4d7b35d2f4493e8ee22fbb3dff8e8d5c7448a0eabbc5fa5574c01e2af8c5b890600090a15b505050565b80516001600160a01b038116811461021f57600080fd5b919050565b6000806000806080858703121561023a57600080fd5b61024385610208565b93506020850151925061025860408601610208565b6060959095015193969295505050565b610663806102776000396000f3fe608060405234801561001057600080fd5b50600436106100df5760003560e01c806379ba50971161008c578063bf556ca911610066578063bf556ca9146101a5578063e30c3978146101ad578063f2fde38b146101be578063f9ae84b6146101d157600080fd5b806379ba50971461017a5780638da5cb5b14610182578063a81d326e1461019357600080fd5b806354fd4d50116100bd57806354fd4d50146101465780635c60da1b14610161578063715018a61461017257600080fd5b806301ffc9a7146100e45780630cbcae701461010c5780633b79408914610131575b600080fd5b6100f76100f2366004610580565b6101d9565b60405190151581526020015b60405180910390f35b6002546001600160a01b03165b6040516001600160a01b039091168152602001610103565b61014461013f3660046105cd565b61022b565b005b60045460055460408051928352602083019190915201610103565b6003546001600160a01b0316610119565b610144610267565b61014461027b565b6000546001600160a01b0316610119565b600354600160a01b900460ff166100f7565b6101446102c4565b6001546001600160a01b0316610119565b6101446101cc366004610612565b610316565b610144610387565b60006001600160e01b031982166311bbcf3b60e31b148061020a57506001600160e01b03198216635c60da1b60e01b145b8061022557506301ffc9a760e01b6001600160e01b03198316145b92915050565b6102336103d0565b81600554811161025657604051630db8ed4760e21b815260040160405180910390fd5b6102618484846103fd565b50505050565b61026f6103d0565b610279600061044f565b565b60015433906001600160a01b031681146102b85760405163118cdaa760e01b81526001600160a01b03821660048201526024015b60405180910390fd5b6102c18161044f565b50565b6102cc6103d0565b600380546002546001600160a01b03166001600160a81b03199091161790556040517f3a4d7b35d2f4493e8ee22fbb3dff8e8d5c7448a0eabbc5fa5574c01e2af8c5b890600090a1565b61031e6103d0565b600180546001600160a01b0383166001600160a01b0319909116811790915561034f6000546001600160a01b031690565b6001600160a01b03167f38d16b8cac22d99fc7c124b9cd0de2d3fa1faef420bfe791d8c362d765e2270060405160405180910390a350565b61038f6103d0565b600380546001600160a81b031916600160a01b1790556040517fe8849021a66751d01fba6e8286939266cf82b3afe550ab48d28e2119e51af45a90600090a1565b6000546001600160a01b031633146102795760405163118cdaa760e01b81523360048201526024016102af565b6104078382610468565b60058290556040518281526001600160a01b038416907f5887ab9161c3be2fe962b73e068a9f29082efb6daf2bfcbd3f064bc34d1ef1b79060200160405180910390a2505050565b600180546001600160a01b03191690556102c181610530565b816000816001600160a01b03163b11610494576040516354b979e960e11b815260040160405180910390fd5b600280546001600160a01b0319166001600160a01b038516179055600354600160a01b900460ff166104e057600380546001600160a01b0319166001600160a01b038516179055505050565b811561052b57600380546001600160a81b0319166001600160a01b0385161790556040517f3a4d7b35d2f4493e8ee22fbb3dff8e8d5c7448a0eabbc5fa5574c01e2af8c5b890600090a15b505050565b600080546001600160a01b038381166001600160a01b0319831681178455604051919092169283917f8be0079c531659141344cd1fd0a4f28419497f9722a3daafe3b4186f6b6457e09190a35050565b60006020828403121561059257600080fd5b81356001600160e01b0319811681146105aa57600080fd5b9392505050565b80356001600160a01b03811681146105c857600080fd5b919050565b6000806000606084860312156105e257600080fd5b6105eb846105b1565b9250602084013591506040840135801515811461060757600080fd5b809150509250925092565b60006020828403121561062457600080fd5b6105aa826105b156fea26469706673582212200b91483a8462ae07f4001f4cb97dcd23477e8c0455eda3b19d2b2aee72c6083a64736f6c63430008170033",
    "linkReferences": {}
  },
  "methodIdentifiers": {
    "acceptOwnership()": "79ba5097",
    "emergencyModeActive()": "a81d326e",
    "getImplementationAddress()": "0cbcae70",
    "implementation()": "5c60da1b",
    "owner()": "8da5cb5b",
    "pendingOwner()": "e30c3978",
    "renounceOwnership()": "715018a6",
    "restartImplementation()": "bf556ca9",
    "shutDownImplementation()": "f9ae84b6",
    "supportsInterface(bytes4)": "01ffc9a7",
    "transferOwnership(address)": "f2fde38b",
    "upgradeTo(address,uint256,bool)": "3b794089",
    "version()": "54fd4d50"
  },
  "id": 171
}