{
  "abi": [
    {
      "type": "constructor",
      "inputs": [
        {
          "name": "initialOwner",
          "type": "address",
          "internalType": "address"
        }
      ],
      "stateMutability": "nonpayable"
    },
    {
      "type": "function",
      "name": "acceptOwnership",
      "inputs": [],
      "outputs": [],
      "stateMutability": "nonpayable"
    },
    {
      "type": "function",
      "name": "owner",
      "inputs": [],
      "outputs": [
        {
          "name": "",
          "type": "address",
          "internalType": "address"
        }
      ],
      "stateMutability": "view"
    },
    {
      "type": "function",
      "name": "pendingOwner",
      "inputs": [],
      "outputs": [
        {
          "name": "",
          "type": "address",
          "internalType": "address"
        }
      ],
      "stateMutability": "view"
    },
    {
      "type": "function",
      "name": "renounceOwnership",
      "inputs": [],
      "outputs": [],
      "stateMutability": "nonpayable"
    },
    {
      "type": "function",
      "name": "transferOwnership",
      "inputs": [
        {
          "name": "newOwner",
          "type": "address",
          "internalType": "address"
        }
      ],
      "outputs": [],
      "stateMutability": "nonpayable"
    },
    {
      "type": "function",
      "name": "upgradeToNewestVersion",
      "inputs": [
        {
          "name": "proxy",
          "type": "address",
          "internalType": "contract IInverterTransparentUpgradeableProxy_v1"
        }
      ],
      "outputs": [],
      "stateMutability": "nonpayable"
    },
    {
      "type": "function",
      "name": "upgradeToNewestVersionBatched",
      "inputs": [
        {
          "name": "proxies",
          "type": "address[]",
          "internalType": "contract IInverterTransparentUpgradeableProxy_v1[]"
        }
      ],
      "outputs": [],
      "stateMutability": "nonpayable"
    },
    {
      "type": "event",
      "name": "OwnershipTransferStarted",
      "inputs": [
        {
          "name": "previousOwner",
          "type": "address",
          "indexed": true,
          "internalType": "address"
        },
        {
          "name": "newOwner",
          "type": "address",
          "indexed": true,
          "internalType": "address"
        }
      ],
      "anonymous": false
    },
    {
      "type": "event",
      "name": "OwnershipTransferred",
      "inputs": [
        {
          "name": "previousOwner",
          "type": "address",
          "indexed": true,
          "internalType": "address"
        },
        {
          "name": "newOwner",
          "type": "address",
          "indexed": true,
          "internalType": "address"
        }
      ],
      "anonymous": false
    },
    {
      "type": "error",
      "name": "OwnableInvalidOwner",
      "inputs": [
        {
          "name": "owner",
          "type": "address",
          "internalType": "address"
        }
      ]
    },
    {
      "type": "error",
      "name": "OwnableUnauthorizedAccount",
      "inputs": [
        {
          "name": "account",
          "type": "address",
          "internalType": "address"
        }
      ]
    }
  ],
  "bytecode": {
    "object": "0x608060405234801561001057600080fd5b5060405161059a38038061059a83398101604081905261002f916100da565b806001600160a01b03811661005e57604051631e4fbdf760e01b81526000600482015260240160405180910390fd5b6100678161006e565b505061010a565b600180546001600160a01b03191690556100878161008a565b50565b600080546001600160a01b038381166001600160a01b0319831681178455604051919092169283917f8be0079c531659141344cd1fd0a4f28419497f9722a3daafe3b4186f6b6457e09190a35050565b6000602082840312156100ec57600080fd5b81516001600160a01b038116811461010357600080fd5b9392505050565b610481806101196000396000f3fe608060405234801561001057600080fd5b506004361061007d5760003560e01c80638da5cb5b1161005b5780638da5cb5b146100a7578063e30c3978146100d0578063ed6130ce146100e1578063f2fde38b146100f457600080fd5b8063715018a61461008257806379ba50971461008c5780637a4fb27a14610094575b600080fd5b61008a610107565b005b61008a61011b565b61008a6100a2366004610387565b610164565b6000546001600160a01b03165b6040516001600160a01b03909116815260200160405180910390f35b6001546001600160a01b03166100b4565b61008a6100ef366004610411565b610200565b61008a610102366004610411565b61025e565b61010f6102dc565b6101196000610309565b565b60015433906001600160a01b031681146101585760405163118cdaa760e01b81526001600160a01b03821660048201526024015b60405180910390fd5b61016181610309565b50565b61016c6102dc565b60005b818110156101fb5782828281811061018957610189610435565b905060200201602081019061019e9190610411565b6001600160a01b031663314105af6040518163ffffffff1660e01b8152600401600060405180830381600087803b1580156101d857600080fd5b505af11580156101ec573d6000803e3d6000fd5b5050505080600101905061016f565b505050565b6102086102dc565b806001600160a01b031663314105af6040518163ffffffff1660e01b8152600401600060405180830381600087803b15801561024357600080fd5b505af1158015610257573d6000803e3d6000fd5b5050505050565b6102666102dc565b600180546001600160a01b03831673ffffffffffffffffffffffffffffffffffffffff1990911681179091556102a46000546001600160a01b031690565b6001600160a01b03167f38d16b8cac22d99fc7c124b9cd0de2d3fa1faef420bfe791d8c362d765e2270060405160405180910390a350565b6000546001600160a01b031633146101195760405163118cdaa760e01b815233600482015260240161014f565b6001805473ffffffffffffffffffffffffffffffffffffffff1916905561016181600080546001600160a01b0383811673ffffffffffffffffffffffffffffffffffffffff19831681178455604051919092169283917f8be0079c531659141344cd1fd0a4f28419497f9722a3daafe3b4186f6b6457e09190a35050565b6000806020838503121561039a57600080fd5b823567ffffffffffffffff808211156103b257600080fd5b818501915085601f8301126103c657600080fd5b8135818111156103d557600080fd5b8660208260051b85010111156103ea57600080fd5b60209290920196919550909350505050565b6001600160a01b038116811461016157600080fd5b60006020828403121561042357600080fd5b813561042e816103fc565b9392505050565b634e487b7160e01b600052603260045260246000fdfea26469706673582212203d8fb6bc3f2b070c7e134fab3e17a576151e48f6bc9c8330c6de7196ea2b4a9364736f6c63430008170033",
    "linkReferences": {}
  },
  "methodIdentifiers": {
    "acceptOwnership()": "79ba5097",
    "owner()": "8da5cb5b",
    "pendingOwner()": "e30c3978",
    "renounceOwnership()": "715018a6",
    "transferOwnership(address)": "f2fde38b",
    "upgradeToNewestVersion(address)": "ed6130ce",
    "upgradeToNewestVersionBatched(address[])": "7a4fb27a"
  },
  "id": 161
}