{
  "abi": [
    {
      "type": "constructor",
      "inputs": [
        {
          "name": "reverter",
          "type": "address",
          "internalType": "address"
        },
        {
          "name": "owner",
          "type": "address",
          "internalType": "address"
        },
        {
          "name": "_majorVersion",
          "type": "uint256",
          "internalType": "uint256"
        },
        {
          "name": "_implementation",
          "type": "address",
          "internalType": "address"
        },
        {
          "name": "_newMinorVersion",
          "type": "uint256",
          "internalType": "uint256"
        },
        {
          "name": "_newPatchVersion",
          "type": "uint256",
          "internalType": "uint256"
        }
      ],
      "stateMutability": "nonpayable"
    },
    {
      "type": "function",
      "name": "acceptOwnership",
      "inputs": [],
      "outputs": [],
      "stateMutability": "nonpayable"
    },
    {
      "type": "function",
      "name": "emergencyModeActive",
      "inputs": [],
      "outputs": [
        {
          "name": "",
          "type": "bool",
          "internalType": "bool"
        }
      ],
      "stateMutability": "view"
    },
    {
      "type": "function",
      "name": "getImplementationAddress",
      "inputs": [],
      "outputs": [
        {
          "name": "",
          "type": "address",
          "internalType": "address"
        }
      ],
      "stateMutability": "view"
    },
    {
      "type": "function",
      "name": "getReverterAddress",
      "inputs": [],
      "outputs": [
        {
          "name": "",
          "type": "address",
          "internalType": "address"
        }
      ],
      "stateMutability": "view"
    },
    {
      "type": "function",
      "name": "implementation",
      "inputs": [],
      "outputs": [
        {
          "name": "",
          "type": "address",
          "internalType": "address"
        }
      ],
      "stateMutability": "view"
    },
    {
      "type": "function",
      "name": "owner",
      "inputs": [],
      "outputs": [
        {
          "name": "",
          "type": "address",
          "internalType": "address"
        }
      ],
      "stateMutability": "view"
    },
    {
      "type": "function",
      "name": "pendingOwner",
      "inputs": [],
      "outputs": [
        {
          "name": "",
          "type": "address",
          "internalType": "address"
        }
      ],
      "stateMutability": "view"
    },
    {
      "type": "function",
      "name": "renounceOwnership",
      "inputs": [],
      "outputs": [],
      "stateMutability": "nonpayable"
    },
    {
      "type": "function",
      "name": "restartImplementation",
      "inputs": [],
      "outputs": [],
      "stateMutability": "nonpayable"
    },
    {
      "type": "function",
      "name": "shutDownImplementation",
      "inputs": [],
      "outputs": [],
      "stateMutability": "nonpayable"
    },
    {
      "type": "function",
      "name": "supportsInterface",
      "inputs": [
        {
          "name": "interfaceId",
          "type": "bytes4",
          "internalType": "bytes4"
        }
      ],
      "outputs": [
        {
          "name": "",
          "type": "bool",
          "internalType": "bool"
        }
      ],
      "stateMutability": "view"
    },
    {
      "type": "function",
      "name": "transferOwnership",
      "inputs": [
        {
          "name": "newOwner",
          "type": "address",
          "internalType": "address"
        }
      ],
      "outputs": [],
      "stateMutability": "nonpayable"
    },
    {
      "type": "function",
      "name": "upgradeTo",
      "inputs": [
        {
          "name": "newImplementation",
          "type": "address",
          "internalType": "address"
        },
        {
          "name": "newMinorVersion",
          "type": "uint256",
          "internalType": "uint256"
        },
        {
          "name": "newPatchVersion",
          "type": "uint256",
          "internalType": "uint256"
        },
        {
          "name": "overrideShutdown",
          "type": "bool",
          "internalType": "bool"
        }
      ],
      "outputs": [],
      "stateMutability": "nonpayable"
    },
    {
      "type": "function",
      "name": "version",
      "inputs": [],
      "outputs": [
        {
          "name": "",
          "type": "uint256",
          "internalType": "uint256"
        },
        {
          "name": "",
          "type": "uint256",
          "internalType": "uint256"
        },
        {
          "name": "",
          "type": "uint256",
          "internalType": "uint256"
        }
      ],
      "stateMutability": "view"
    },
    {
      "type": "event",
      "name": "Constructed",
      "inputs": [
        {
          "name": "majorVersion",
          "type": "uint256",
          "indexed": false,
          "internalType": "uint256"
        }
      ],
      "anonymous": false
    },
    {
      "type": "event",
      "name": "OwnershipTransferStarted",
      "inputs": [
        {
          "name": "previousOwner",
          "type": "address",
          "indexed": true,
          "internalType": "address"
        },
        {
          "name": "newOwner",
          "type": "address",
          "indexed": true,
          "internalType": "address"
        }
      ],
      "anonymous": false
    },
    {
      "type": "event",
      "name": "OwnershipTransferred",
      "inputs": [
        {
          "name": "previousOwner",
          "type": "address",
          "indexed": true,
          "internalType": "address"
        },
        {
          "name": "newOwner",
          "type": "address",
          "indexed": true,
          "internalType": "address"
        }
      ],
      "anonymous": false
    },
    {
      "type": "event",
      "name": "ShutdownInitiated",
      "inputs": [],
      "anonymous": false
    },
    {
      "type": "event",
      "name": "ShutdownReversed",
      "inputs": [],
      "anonymous": false
    },
    {
      "type": "event",
      "name": "Upgraded",
      "inputs": [
        {
          "name": "implementation",
          "type": "address",
          "indexed": true,
          "internalType": "address"
        },
        {
          "name": "newMinorVersion",
          "type": "uint256",
          "indexed": false,
          "internalType": "uint256"
        },
        {
          "name": "newPatchVersion",
          "type": "uint256",
          "indexed": false,
          "internalType": "uint256"
        }
      ],
      "anonymous": false
    },
    {
      "type": "error",
      "name": "InverterBeacon__InvalidImplementation",
      "inputs": []
    },
    {
      "type": "error",
      "name": "InverterBeacon__InvalidImplementationMinorOrPatchVersion",
      "inputs": []
    },
    {
      "type": "error",
      "name": "OwnableInvalidOwner",
      "inputs": [
        {
          "name": "owner",
          "type": "address",
          "internalType": "address"
        }
      ]
    },
    {
      "type": "error",
      "name": "OwnableUnauthorizedAccount",
      "inputs": [
        {
          "name": "account",
          "type": "address",
          "internalType": "address"
        }
      ]
    }
  ],
  "bytecode": {
    "object": "0x608060405234801561001057600080fd5b506040516109b13803806109b183398101604081905261002f9161024e565b846001600160a01b03811661005e57604051631e4fbdf760e01b81526000600482015260240160405180910390fd5b610067816100a0565b50600280546001600160a01b0319166001600160a01b038816179055600584905561009583838360006100bc565b5050505050506102ad565b600180546001600160a01b03191690556100b98161011a565b50565b6100c6848261016a565b6006839055600782905560408051848152602081018490526001600160a01b038616917fe89aaeb9eee869d9fee98314598ae974e15af4dcb5321a66415944799354e019910160405180910390a250505050565b600080546001600160a01b038381166001600160a01b0319831681178455604051919092169283917f8be0079c531659141344cd1fd0a4f28419497f9722a3daafe3b4186f6b6457e09190a35050565b816000816001600160a01b03163b11610196576040516354b979e960e11b815260040160405180910390fd5b600380546001600160a01b0319166001600160a01b038516179055600454600160a01b900460ff166101e257600480546001600160a01b0319166001600160a01b038516179055505050565b811561022d57600480546001600160a81b0319166001600160a01b0385161790556040517f3a4d7b35d2f4493e8ee22fbb3dff8e8d5c7448a0eabbc5fa5574c01e2af8c5b890600090a15b505050565b80516001600160a01b038116811461024957600080fd5b919050565b60008060008060008060c0878903121561026757600080fd5b61027087610232565b955061027e60208801610232565b94506040870151935061029360608801610232565b92506080870151915060a087015190509295509295509295565b6106f5806102bc6000396000f3fe608060405234801561001057600080fd5b50600436106100ea5760003560e01c80638da5cb5b1161008c578063bf556ca911610066578063bf556ca9146101ca578063e30c3978146101d2578063f2fde38b146101e3578063f9ae84b6146101f657600080fd5b80638da5cb5b14610194578063a37e9d3b146101a5578063a81d326e146101b857600080fd5b80635c60da1b116100c85780635c60da1b1461016057806366cc326714610171578063715018a61461018257806379ba50971461018c57600080fd5b806301ffc9a7146100ef5780630cbcae701461011757806354fd4d501461013c575b600080fd5b6101026100fd36600461060a565b6101fe565b60405190151581526020015b60405180910390f35b6003546001600160a01b03165b6040516001600160a01b03909116815260200161010e565b6005546006546007546040805193845260208401929092529082015260600161010e565b6004546001600160a01b0316610124565b6002546001600160a01b0316610124565b61018a610250565b005b61018a610264565b6000546001600160a01b0316610124565b61018a6101b3366004610657565b6102ad565b600454600160a01b900460ff16610102565b61018a610307565b6001546001600160a01b0316610124565b61018a6101f13660046106a4565b610367565b61018a6103d8565b60006001600160e01b03198216637315960d60e01b148061022f57506001600160e01b03198216635c60da1b60e01b145b8061024a57506301ffc9a760e01b6001600160e01b03198316145b92915050565b610258610440565b610262600061046d565b565b60015433906001600160a01b031681146102a15760405163118cdaa760e01b81526001600160a01b03821660048201526024015b60405180910390fd5b6102aa8161046d565b50565b6102b5610440565b82826006548210806102d5575060075481111580156102d5575060065482145b156102f357604051637c51905160e01b815260040160405180910390fd5b6102ff86868686610486565b505050505050565b61030f610440565b600480546003546001600160a01b031674ffffffffffffffffffffffffffffffffffffffffff199091161790556040517f3a4d7b35d2f4493e8ee22fbb3dff8e8d5c7448a0eabbc5fa5574c01e2af8c5b890600090a1565b61036f610440565b600180546001600160a01b0383166001600160a01b031990911681179091556103a06000546001600160a01b031690565b6001600160a01b03167f38d16b8cac22d99fc7c124b9cd0de2d3fa1faef420bfe791d8c362d765e2270060405160405180910390a350565b6103e0610440565b6004805460025474ffffffffffffffffffffffffffffffffffffffffff199091166001600160a01b0390911617600160a01b1790556040517fe8849021a66751d01fba6e8286939266cf82b3afe550ab48d28e2119e51af45a90600090a1565b6000546001600160a01b031633146102625760405163118cdaa760e01b8152336004820152602401610298565b600180546001600160a01b03191690556102aa816104e4565b6104908482610534565b6006839055600782905560408051848152602081018490526001600160a01b038616917fe89aaeb9eee869d9fee98314598ae974e15af4dcb5321a66415944799354e019910160405180910390a250505050565b600080546001600160a01b038381166001600160a01b0319831681178455604051919092169283917f8be0079c531659141344cd1fd0a4f28419497f9722a3daafe3b4186f6b6457e09190a35050565b816000816001600160a01b03163b11610560576040516354b979e960e11b815260040160405180910390fd5b600380546001600160a01b0319166001600160a01b038516179055600454600160a01b900460ff166105ac57600480546001600160a01b0319166001600160a01b038516179055505050565b8115610605576004805474ffffffffffffffffffffffffffffffffffffffffff19166001600160a01b0385161790556040517f3a4d7b35d2f4493e8ee22fbb3dff8e8d5c7448a0eabbc5fa5574c01e2af8c5b890600090a15b505050565b60006020828403121561061c57600080fd5b81356001600160e01b03198116811461063457600080fd5b9392505050565b80356001600160a01b038116811461065257600080fd5b919050565b6000806000806080858703121561066d57600080fd5b6106768561063b565b935060208501359250604085013591506060850135801515811461069957600080fd5b939692955090935050565b6000602082840312156106b657600080fd5b6106348261063b56fea2646970667358221220db2d30f635a9fc52c4537973c5caa444d94170129095e538d4d2ed42e8ca31e164736f6c63430008170033",
    "linkReferences": {}
  },
  "methodIdentifiers": {
    "acceptOwnership()": "79ba5097",
    "emergencyModeActive()": "a81d326e",
    "getImplementationAddress()": "0cbcae70",
    "getReverterAddress()": "66cc3267",
    "implementation()": "5c60da1b",
    "owner()": "8da5cb5b",
    "pendingOwner()": "e30c3978",
    "renounceOwnership()": "715018a6",
    "restartImplementation()": "bf556ca9",
    "shutDownImplementation()": "f9ae84b6",
    "supportsInterface(bytes4)": "01ffc9a7",
    "transferOwnership(address)": "f2fde38b",
    "upgradeTo(address,uint256,uint256,bool)": "a37e9d3b",
    "version()": "54fd4d50"
  },
  "id": 160
}