{
  "abi": [
    {
      "type": "constructor",
      "inputs": [
        {
          "name": "owner",
          "type": "address",
          "internalType": "address"
        },
        {
          "name": "_majorVersion",
          "type": "uint256",
          "internalType": "uint256"
        },
        {
          "name": "_implementation",
          "type": "address",
          "internalType": "address"
        },
        {
          "name": "_newMinorVersion",
          "type": "uint256",
          "internalType": "uint256"
        }
      ],
      "stateMutability": "nonpayable"
    },
    {
      "type": "function",
      "name": "acceptOwnership",
      "inputs": [],
      "outputs": [],
      "stateMutability": "nonpayable"
    },
    {
      "type": "function",
      "name": "emergencyModeActive",
      "inputs": [],
      "outputs": [
        {
          "name": "",
          "type": "bool",
          "internalType": "bool"
        }
      ],
      "stateMutability": "view"
    },
    {
      "type": "function",
      "name": "implementation",
      "inputs": [],
      "outputs": [
        {
          "name": "",
          "type": "address",
          "internalType": "address"
        }
      ],
      "stateMutability": "view"
    },
    {
      "type": "function",
      "name": "owner",
      "inputs": [],
      "outputs": [
        {
          "name": "",
          "type": "address",
          "internalType": "address"
        }
      ],
      "stateMutability": "view"
    },
    {
      "type": "function",
      "name": "pendingOwner",
      "inputs": [],
      "outputs": [
        {
          "name": "",
          "type": "address",
          "internalType": "address"
        }
      ],
      "stateMutability": "view"
    },
    {
      "type": "function",
      "name": "renounceOwnership",
      "inputs": [],
      "outputs": [],
      "stateMutability": "nonpayable"
    },
    {
      "type": "function",
      "name": "restartImplementation",
      "inputs": [],
      "outputs": [],
      "stateMutability": "nonpayable"
    },
    {
      "type": "function",
      "name": "shutDownImplementation",
      "inputs": [],
      "outputs": [],
      "stateMutability": "nonpayable"
    },
    {
      "type": "function",
      "name": "supportsInterface",
      "inputs": [
        {
          "name": "interfaceId",
          "type": "bytes4",
          "internalType": "bytes4"
        }
      ],
      "outputs": [
        {
          "name": "",
          "type": "bool",
          "internalType": "bool"
        }
      ],
      "stateMutability": "view"
    },
    {
      "type": "function",
      "name": "transferOwnership",
      "inputs": [
        {
          "name": "newOwner",
          "type": "address",
          "internalType": "address"
        }
      ],
      "outputs": [],
      "stateMutability": "nonpayable"
    },
    {
      "type": "function",
      "name": "upgradeTo",
      "inputs": [
        {
          "name": "newImplementation",
          "type": "address",
          "internalType": "address"
        },
        {
          "name": "newMinorVersion",
          "type": "uint256",
          "internalType": "uint256"
        },
        {
          "name": "overrideShutdown",
          "type": "bool",
          "internalType": "bool"
        }
      ],
      "outputs": [],
      "stateMutability": "nonpayable"
    },
    {
      "type": "function",
      "name": "version",
      "inputs": [],
      "outputs": [
        {
          "name": "",
          "type": "uint256",
          "internalType": "uint256"
        },
        {
          "name": "",
          "type": "uint256",
          "internalType": "uint256"
        }
      ],
      "stateMutability": "view"
    },
    {
      "type": "event",
      "name": "Constructed",
      "inputs": [
        {
          "name": "majorVersion",
          "type": "uint256",
          "indexed": false,
          "internalType": "uint256"
        }
      ],
      "anonymous": false
    },
    {
      "type": "event",
      "name": "OwnershipTransferStarted",
      "inputs": [
        {
          "name": "previousOwner",
          "type": "address",
          "indexed": true,
          "internalType": "address"
        },
        {
          "name": "newOwner",
          "type": "address",
          "indexed": true,
          "internalType": "address"
        }
      ],
      "anonymous": false
    },
    {
      "type": "event",
      "name": "OwnershipTransferred",
      "inputs": [
        {
          "name": "previousOwner",
          "type": "address",
          "indexed": true,
          "internalType": "address"
        },
        {
          "name": "newOwner",
          "type": "address",
          "indexed": true,
          "internalType": "address"
        }
      ],
      "anonymous": false
    },
    {
      "type": "event",
      "name": "ShutdownInitiated",
      "inputs": [],
      "anonymous": false
    },
    {
      "type": "event",
      "name": "ShutdownReversed",
      "inputs": [],
      "anonymous": false
    },
    {
      "type": "event",
      "name": "Upgraded",
      "inputs": [
        {
          "name": "implementation",
          "type": "address",
          "indexed": true,
          "internalType": "address"
        },
        {
          "name": "newMinorVersion",
          "type": "uint256",
          "indexed": false,
          "internalType": "uint256"
        }
      ],
      "anonymous": false
    },
    {
      "type": "error",
      "name": "InverterBeacon__InvalidImplementation",
      "inputs": []
    },
    {
      "type": "error",
      "name": "InverterBeacon__InvalidImplementationMinorVersion",
      "inputs": []
    },
    {
      "type": "error",
      "name": "OwnableInvalidOwner",
      "inputs": [
        {
          "name": "owner",
          "type": "address",
          "internalType": "address"
        }
      ]
    },
    {
      "type": "error",
      "name": "OwnableUnauthorizedAccount",
      "inputs": [
        {
          "name": "account",
          "type": "address",
          "internalType": "address"
        }
      ]
    }
  ],
  "bytecode": {
    "object": "0x608060405234801561001057600080fd5b50604051610baa380380610baa83398101604081905261002f91610224565b836001600160a01b03811661005e57604051631e4fbdf760e01b81526000600482015260240160405180910390fd5b61006781610082565b5060048390556100798282600061009e565b50505050610268565b600180546001600160a01b031916905561009b816100f0565b50565b6100a88382610140565b60058290556040518281526001600160a01b038416907f5887ab9161c3be2fe962b73e068a9f29082efb6daf2bfcbd3f064bc34d1ef1b79060200160405180910390a2505050565b600080546001600160a01b038381166001600160a01b0319831681178455604051919092169283917f8be0079c531659141344cd1fd0a4f28419497f9722a3daafe3b4186f6b6457e09190a35050565b816000816001600160a01b03163b1161016c576040516354b979e960e11b815260040160405180910390fd5b600280546001600160a01b0319166001600160a01b038516179055600354600160a01b900460ff166101b857600380546001600160a01b0319166001600160a01b038516179055505050565b811561020357600380546001600160a81b0319166001600160a01b0385161790556040517f3a4d7b35d2f4493e8ee22fbb3dff8e8d5c7448a0eabbc5fa5574c01e2af8c5b890600090a15b505050565b80516001600160a01b038116811461021f57600080fd5b919050565b6000806000806080858703121561023a57600080fd5b61024385610208565b93506020850151925061025860408601610208565b6060959095015193969295505050565b610933806102776000396000f3fe608060405234801561001057600080fd5b50600436106100d45760003560e01c80638da5cb5b11610081578063e30c39781161005b578063e30c3978146101c9578063f2fde38b146101e7578063f9ae84b6146101fa57600080fd5b80638da5cb5b14610180578063a81d326e1461019e578063bf556ca9146101c157600080fd5b80635c60da1b116100b25780635c60da1b14610131578063715018a61461017057806379ba50971461017857600080fd5b806301ffc9a7146100d95780633b7940891461010157806354fd4d5014610116575b600080fd5b6100ec6100e736600461082b565b610202565b60405190151581526020015b60405180910390f35b61011461010f36600461089d565b6102e7565b005b600454600554604080519283526020830191909152016100f8565b60035473ffffffffffffffffffffffffffffffffffffffff165b60405173ffffffffffffffffffffffffffffffffffffffff90911681526020016100f8565b61011461033c565b610114610350565b60005473ffffffffffffffffffffffffffffffffffffffff1661014b565b60035474010000000000000000000000000000000000000000900460ff166100ec565b6101146103cc565b60015473ffffffffffffffffffffffffffffffffffffffff1661014b565b6101146101f53660046108e2565b610443565b6101146104f3565b60007fffffffff0000000000000000000000000000000000000000000000000000000082167f8162d7a800000000000000000000000000000000000000000000000000000000148061029557507fffffffff0000000000000000000000000000000000000000000000000000000082167f5c60da1b00000000000000000000000000000000000000000000000000000000145b806102e157507f01ffc9a7000000000000000000000000000000000000000000000000000000007fffffffff000000000000000000000000000000000000000000000000000000008316145b92915050565b6102ef610565565b81600554811161032b576040517f36e3b51c00000000000000000000000000000000000000000000000000000000815260040160405180910390fd5b6103368484846105b8565b50505050565b610344610565565b61034e6000610617565b565b600154339073ffffffffffffffffffffffffffffffffffffffff1681146103c0576040517f118cdaa700000000000000000000000000000000000000000000000000000000815273ffffffffffffffffffffffffffffffffffffffff821660048201526024015b60405180910390fd5b6103c981610617565b50565b6103d4610565565b6003805460025473ffffffffffffffffffffffffffffffffffffffff167fffffffffffffffffffffff0000000000000000000000000000000000000000009091161790556040517f3a4d7b35d2f4493e8ee22fbb3dff8e8d5c7448a0eabbc5fa5574c01e2af8c5b890600090a1565b61044b610565565b6001805473ffffffffffffffffffffffffffffffffffffffff83167fffffffffffffffffffffffff000000000000000000000000000000000000000090911681179091556104ae60005473ffffffffffffffffffffffffffffffffffffffff1690565b73ffffffffffffffffffffffffffffffffffffffff167f38d16b8cac22d99fc7c124b9cd0de2d3fa1faef420bfe791d8c362d765e2270060405160405180910390a350565b6104fb610565565b600380547fffffffffffffffffffffff00000000000000000000000000000000000000000016740100000000000000000000000000000000000000001790556040517fe8849021a66751d01fba6e8286939266cf82b3afe550ab48d28e2119e51af45a90600090a1565b60005473ffffffffffffffffffffffffffffffffffffffff16331461034e576040517f118cdaa70000000000000000000000000000000000000000000000000000000081523360048201526024016103b7565b6105c28382610648565b600582905560405182815273ffffffffffffffffffffffffffffffffffffffff8416907f5887ab9161c3be2fe962b73e068a9f29082efb6daf2bfcbd3f064bc34d1ef1b79060200160405180910390a2505050565b600180547fffffffffffffffffffffffff00000000000000000000000000000000000000001690556103c9816107b6565b8160008173ffffffffffffffffffffffffffffffffffffffff163b1161069a576040517fa972f3d200000000000000000000000000000000000000000000000000000000815260040160405180910390fd5b600280547fffffffffffffffffffffffff00000000000000000000000000000000000000001673ffffffffffffffffffffffffffffffffffffffff851617905560035474010000000000000000000000000000000000000000900460ff1661074157600380547fffffffffffffffffffffffff00000000000000000000000000000000000000001673ffffffffffffffffffffffffffffffffffffffff8516179055505050565b81156107b157600380547fffffffffffffffffffffff0000000000000000000000000000000000000000001673ffffffffffffffffffffffffffffffffffffffff85161790556040517f3a4d7b35d2f4493e8ee22fbb3dff8e8d5c7448a0eabbc5fa5574c01e2af8c5b890600090a15b505050565b6000805473ffffffffffffffffffffffffffffffffffffffff8381167fffffffffffffffffffffffff0000000000000000000000000000000000000000831681178455604051919092169283917f8be0079c531659141344cd1fd0a4f28419497f9722a3daafe3b4186f6b6457e09190a35050565b60006020828403121561083d57600080fd5b81357fffffffff000000000000000000000000000000000000000000000000000000008116811461086d57600080fd5b9392505050565b803573ffffffffffffffffffffffffffffffffffffffff8116811461089857600080fd5b919050565b6000806000606084860312156108b257600080fd5b6108bb84610874565b925060208401359150604084013580151581146108d757600080fd5b809150509250925092565b6000602082840312156108f457600080fd5b61086d8261087456fea2646970667358221220097aaf6dab387fa0828b483c3d1e5728914581a0ba1bd4f7c2f85caf5f65ecc964736f6c63430008170033",
    "linkReferences": {}
  },
  "methodIdentifiers": {
    "acceptOwnership()": "79ba5097",
    "emergencyModeActive()": "a81d326e",
    "implementation()": "5c60da1b",
    "owner()": "8da5cb5b",
    "pendingOwner()": "e30c3978",
    "renounceOwnership()": "715018a6",
    "restartImplementation()": "bf556ca9",
    "shutDownImplementation()": "f9ae84b6",
    "supportsInterface(bytes4)": "01ffc9a7",
    "transferOwnership(address)": "f2fde38b",
    "upgradeTo(address,uint256,bool)": "3b794089",
    "version()": "54fd4d50"
  },
  "id": 172
}