{
  "abi": [
    {
      "type": "constructor",
      "inputs": [
        {
          "name": "_orchestratorFactory",
          "type": "address",
          "internalType": "address"
        },
        {
          "name": "_trustedForwarder",
          "type": "address",
          "internalType": "address"
        }
      ],
      "stateMutability": "nonpayable"
    },
    {
      "type": "function",
      "name": "buyFor",
      "inputs": [
        {
          "name": "fundingManager",
          "type": "address",
          "internalType": "address"
        },
        {
          "name": "recipient",
          "type": "address",
          "internalType": "address"
        },
        {
          "name": "amountIn",
          "type": "uint256",
          "internalType": "uint256"
        },
        {
          "name": "minAmountOut",
          "type": "uint256",
          "internalType": "uint256"
        }
      ],
      "outputs": [],
      "stateMutability": "nonpayable"
    },
    {
      "type": "function",
      "name": "createPIMWorkflow",
      "inputs": [
        {
          "name": "workflowConfig",
          "type": "tuple",
          "internalType": "struct IOrchestratorFactory_v1.WorkflowConfig",
          "components": [
            {
              "name": "independentUpdates",
              "type": "bool",
              "internalType": "bool"
            },
            {
              "name": "independentUpdateAdmin",
              "type": "address",
              "internalType": "address"
            }
          ]
        },
        {
          "name": "fundingManagerConfig",
          "type": "tuple",
          "internalType": "struct IOrchestratorFactory_v1.ModuleConfig",
          "components": [
            {
              "name": "metadata",
              "type": "tuple",
              "internalType": "struct IModule_v1.Metadata",
              "components": [
                {
                  "name": "majorVersion",
                  "type": "uint256",
                  "internalType": "uint256"
                },
                {
                  "name": "minorVersion",
                  "type": "uint256",
                  "internalType": "uint256"
                },
                {
                  "name": "patchVersion",
                  "type": "uint256",
                  "internalType": "uint256"
                },
                {
                  "name": "url",
                  "type": "string",
                  "internalType": "string"
                },
                {
                  "name": "title",
                  "type": "string",
                  "internalType": "string"
                }
              ]
            },
            {
              "name": "configData",
              "type": "bytes",
              "internalType": "bytes"
            }
          ]
        },
        {
          "name": "authorizerConfig",
          "type": "tuple",
          "internalType": "struct IOrchestratorFactory_v1.ModuleConfig",
          "components": [
            {
              "name": "metadata",
              "type": "tuple",
              "internalType": "struct IModule_v1.Metadata",
              "components": [
                {
                  "name": "majorVersion",
                  "type": "uint256",
                  "internalType": "uint256"
                },
                {
                  "name": "minorVersion",
                  "type": "uint256",
                  "internalType": "uint256"
                },
                {
                  "name": "patchVersion",
                  "type": "uint256",
                  "internalType": "uint256"
                },
                {
                  "name": "url",
                  "type": "string",
                  "internalType": "string"
                },
                {
                  "name": "title",
                  "type": "string",
                  "internalType": "string"
                }
              ]
            },
            {
              "name": "configData",
              "type": "bytes",
              "internalType": "bytes"
            }
          ]
        },
        {
          "name": "paymentProcessorConfig",
          "type": "tuple",
          "internalType": "struct IOrchestratorFactory_v1.ModuleConfig",
          "components": [
            {
              "name": "metadata",
              "type": "tuple",
              "internalType": "struct IModule_v1.Metadata",
              "components": [
                {
                  "name": "majorVersion",
                  "type": "uint256",
                  "internalType": "uint256"
                },
                {
                  "name": "minorVersion",
                  "type": "uint256",
                  "internalType": "uint256"
                },
                {
                  "name": "patchVersion",
                  "type": "uint256",
                  "internalType": "uint256"
                },
                {
                  "name": "url",
                  "type": "string",
                  "internalType": "string"
                },
                {
                  "name": "title",
                  "type": "string",
                  "internalType": "string"
                }
              ]
            },
            {
              "name": "configData",
              "type": "bytes",
              "internalType": "bytes"
            }
          ]
        },
        {
          "name": "moduleConfigs",
          "type": "tuple[]",
          "internalType": "struct IOrchestratorFactory_v1.ModuleConfig[]",
          "components": [
            {
              "name": "metadata",
              "type": "tuple",
              "internalType": "struct IModule_v1.Metadata",
              "components": [
                {
                  "name": "majorVersion",
                  "type": "uint256",
                  "internalType": "uint256"
                },
                {
                  "name": "minorVersion",
                  "type": "uint256",
                  "internalType": "uint256"
                },
                {
                  "name": "patchVersion",
                  "type": "uint256",
                  "internalType": "uint256"
                },
                {
                  "name": "url",
                  "type": "string",
                  "internalType": "string"
                },
                {
                  "name": "title",
                  "type": "string",
                  "internalType": "string"
                }
              ]
            },
            {
              "name": "configData",
              "type": "bytes",
              "internalType": "bytes"
            }
          ]
        },
        {
          "name": "issuanceTokenParams",
          "type": "tuple",
          "internalType": "struct IBondingCurveBase_v1.IssuanceToken",
          "components": [
            {
              "name": "name",
              "type": "string",
              "internalType": "string"
            },
            {
              "name": "symbol",
              "type": "string",
              "internalType": "string"
            },
            {
              "name": "decimals",
              "type": "uint8",
              "internalType": "uint8"
            },
            {
              "name": "maxSupply",
              "type": "uint256",
              "internalType": "uint256"
            }
          ]
        },
        {
          "name": "initialPurchaseAmount",
          "type": "uint256",
          "internalType": "uint256"
        },
        {
          "name": "migrationConfig_",
          "type": "tuple",
          "internalType": "struct IMigrating_PIM_Factory_v1.MigrationConfig",
          "components": [
            {
              "name": "isImmutable",
              "type": "bool",
              "internalType": "bool"
            },
            {
              "name": "migrationThreshold",
              "type": "uint256",
              "internalType": "uint256"
            },
            {
              "name": "dexAdapter",
              "type": "address",
              "internalType": "address"
            },
            {
              "name": "lpTokenRecipient",
              "type": "address",
              "internalType": "address"
            }
          ]
        }
      ],
      "outputs": [
        {
          "name": "",
          "type": "address",
          "internalType": "contract IOrchestrator_v1"
        }
      ],
      "stateMutability": "nonpayable"
    },
    {
      "type": "function",
      "name": "getIsGraduated",
      "inputs": [
        {
          "name": "fundingManager",
          "type": "address",
          "internalType": "address"
        }
      ],
      "outputs": [
        {
          "name": "",
          "type": "bool",
          "internalType": "bool"
        }
      ],
      "stateMutability": "view"
    },
    {
      "type": "function",
      "name": "getIsImmutable",
      "inputs": [
        {
          "name": "fundingManager",
          "type": "address",
          "internalType": "address"
        }
      ],
      "outputs": [
        {
          "name": "",
          "type": "bool",
          "internalType": "bool"
        }
      ],
      "stateMutability": "view"
    },
    {
      "type": "function",
      "name": "getLpTokenRecipient",
      "inputs": [
        {
          "name": "fundingManager",
          "type": "address",
          "internalType": "address"
        }
      ],
      "outputs": [
        {
          "name": "",
          "type": "address",
          "internalType": "address"
        }
      ],
      "stateMutability": "view"
    },
    {
      "type": "function",
      "name": "getMigrationThreshold",
      "inputs": [
        {
          "name": "fundingManager",
          "type": "address",
          "internalType": "address"
        }
      ],
      "outputs": [
        {
          "name": "",
          "type": "uint256",
          "internalType": "uint256"
        }
      ],
      "stateMutability": "view"
    },
    {
      "type": "function",
      "name": "isTrustedForwarder",
      "inputs": [
        {
          "name": "forwarder",
          "type": "address",
          "internalType": "address"
        }
      ],
      "outputs": [
        {
          "name": "",
          "type": "bool",
          "internalType": "bool"
        }
      ],
      "stateMutability": "view"
    },
    {
      "type": "function",
      "name": "orchestratorFactory",
      "inputs": [],
      "outputs": [
        {
          "name": "",
          "type": "address",
          "internalType": "address"
        }
      ],
      "stateMutability": "view"
    },
    {
      "type": "function",
      "name": "pims",
      "inputs": [
        {
          "name": "fundingManager",
          "type": "address",
          "internalType": "address"
        }
      ],
      "outputs": [
        {
          "name": "isGraduated",
          "type": "bool",
          "internalType": "bool"
        },
        {
          "name": "isImmutable",
          "type": "bool",
          "internalType": "bool"
        },
        {
          "name": "migrationThreshold",
          "type": "uint256",
          "internalType": "uint256"
        },
        {
          "name": "initiator",
          "type": "address",
          "internalType": "address"
        },
        {
          "name": "dexAdapter",
          "type": "address",
          "internalType": "address"
        },
        {
          "name": "lpTokenRecipient",
          "type": "address",
          "internalType": "address"
        },
        {
          "name": "orchestrator",
          "type": "address",
          "internalType": "contract IOrchestrator_v1"
        },
        {
          "name": "initialVirtualIssuanceSupply",
          "type": "uint256",
          "internalType": "uint256"
        },
        {
          "name": "initialVirtualCollateralSupply",
          "type": "uint256",
          "internalType": "uint256"
        }
      ],
      "stateMutability": "view"
    },
    {
      "type": "function",
      "name": "sellTo",
      "inputs": [
        {
          "name": "fundingManager",
          "type": "address",
          "internalType": "address"
        },
        {
          "name": "recipient",
          "type": "address",
          "internalType": "address"
        },
        {
          "name": "amountIn",
          "type": "uint256",
          "internalType": "uint256"
        },
        {
          "name": "minAmountOut",
          "type": "uint256",
          "internalType": "uint256"
        }
      ],
      "outputs": [],
      "stateMutability": "nonpayable"
    },
    {
      "type": "function",
      "name": "setRewards",
      "inputs": [
        {
          "name": "fundingManager",
          "type": "address",
          "internalType": "address"
        },
        {
          "name": "amount",
          "type": "uint256",
          "internalType": "uint256"
        },
        {
          "name": "duration",
          "type": "uint256",
          "internalType": "uint256"
        }
      ],
      "outputs": [],
      "stateMutability": "nonpayable"
    },
    {
      "type": "function",
      "name": "trustedForwarder",
      "inputs": [],
      "outputs": [
        {
          "name": "",
          "type": "address",
          "internalType": "address"
        }
      ],
      "stateMutability": "view"
    },
    {
      "type": "event",
      "name": "Graduation",
      "inputs": [
        {
          "name": "fundingManager",
          "type": "address",
          "indexed": true,
          "internalType": "address"
        },
        {
          "name": "issuanceToken",
          "type": "address",
          "indexed": true,
          "internalType": "address"
        },
        {
          "name": "collateralToken",
          "type": "address",
          "indexed": false,
          "internalType": "address"
        },
        {
          "name": "pool",
          "type": "address",
          "indexed": true,
          "internalType": "address"
        },
        {
          "name": "issuanceTokenAmount",
          "type": "uint256",
          "indexed": false,
          "internalType": "uint256"
        },
        {
          "name": "collateralTokenAmount",
          "type": "uint256",
          "indexed": false,
          "internalType": "uint256"
        }
      ],
      "anonymous": false
    },
    {
      "type": "event",
      "name": "PIMWorkflowCreated",
      "inputs": [
        {
          "name": "orchestrator",
          "type": "address",
          "indexed": true,
          "internalType": "address"
        },
        {
          "name": "issuanceToken",
          "type": "address",
          "indexed": true,
          "internalType": "address"
        },
        {
          "name": "deployer",
          "type": "address",
          "indexed": true,
          "internalType": "address"
        },
        {
          "name": "initiator",
          "type": "address",
          "indexed": false,
          "internalType": "address"
        },
        {
          "name": "migrationThreshold",
          "type": "uint256",
          "indexed": false,
          "internalType": "uint256"
        }
      ],
      "anonymous": false
    },
    {
      "type": "event",
      "name": "PimFeeClaimed",
      "inputs": [
        {
          "name": "fundingManager",
          "type": "address",
          "indexed": true,
          "internalType": "address"
        },
        {
          "name": "claimer",
          "type": "address",
          "indexed": true,
          "internalType": "address"
        },
        {
          "name": "to",
          "type": "address",
          "indexed": true,
          "internalType": "address"
        },
        {
          "name": "amount",
          "type": "uint256",
          "indexed": false,
          "internalType": "uint256"
        }
      ],
      "anonymous": false
    },
    {
      "type": "event",
      "name": "PimFeeRecipientUpdated",
      "inputs": [
        {
          "name": "fundingManager",
          "type": "address",
          "indexed": true,
          "internalType": "address"
        },
        {
          "name": "oldRecipient",
          "type": "address",
          "indexed": true,
          "internalType": "address"
        },
        {
          "name": "newRecipient",
          "type": "address",
          "indexed": true,
          "internalType": "address"
        }
      ],
      "anonymous": false
    },
    {
      "type": "error",
      "name": "PIM_WorkflowFactory__OnlyInitiator",
      "inputs": []
    },
    {
      "type": "error",
      "name": "PIM_WorkflowFactory__OnlyPimFeeRecipient",
      "inputs": []
    }
  ],
  "bytecode": {
    "object": "0x60a06040523480156200001157600080fd5b50604051620045a5380380620045a583398101604081905262000034916200007d565b6001600160a01b03908116608052600080546001600160a01b03191692909116919091179055620000b5565b80516001600160a01b03811681146200007857600080fd5b919050565b600080604083850312156200009157600080fd5b6200009c8362000060565b9150620000ac6020840162000060565b90509250929050565b6080516144c6620000df60003960008181610249015281816102920152611a5201526144c66000f3fe60806040523480156200001157600080fd5b5060043610620000e55760003560e01c80637da0a877116200008b578063de78c7291162000062578063de78c729146200030d578063f402c2bb146200033f578063f6819293146200037357600080fd5b80637da0a8771462000290578063ce7c83dd14620002b7578063d835422214620002ce57600080fd5b8063455964f611620000c0578063455964f6146200021d578063572b6c0514620002365780636daf301a146200027957600080fd5b80631248c80314620000ea5780631615f657146200012e5780632f36a25d14620001f0575b600080fd5b62000119620000fb36600462002894565b6001600160a01b031660009081526001602052604090205460ff1690565b60405190151581526020015b60405180910390f35b6200019e6200013f36600462002894565b60016020819052600091825260409091208054918101546002820154600383015460048401546005850154600686015460079096015460ff80891698610100900416966001600160a01b03958616959485169493841693909216919089565b604080519915158a5297151560208a0152968801959095526001600160a01b0393841660608801529183166080870152821660a08601521660c084015260e08301526101008201526101200162000125565b60005462000204906001600160a01b031681565b6040516001600160a01b03909116815260200162000125565b620002346200022e366004620028bb565b6200038a565b005b620001196200024736600462002894565b7f00000000000000000000000000000000000000000000000000000000000000006001600160a01b0390811691161490565b620002046200028a36600462002d62565b620005f1565b7f000000000000000000000000000000000000000000000000000000000000000062000204565b62000234620002c836600462002e76565b620009ef565b620002fe620002df36600462002894565b6001600160a01b03166000908152600160208190526040909120015490565b60405190815260200162000125565b620002046200031e36600462002894565b6001600160a01b039081166000908152600160205260409020600401541690565b620001196200035036600462002894565b6001600160a01b0316600090815260016020526040902054610100900460ff1690565b620002346200038436600462002e76565b62000c47565b6001600160a01b038381166000908152600160205260409020600201548491163314620003ca576040516305d8067160e21b815260040160405180910390fd5b6001600160a01b038085166000908152600160208181526040808420815161012081018352815460ff8082161515835261010091829004161515948201949094529381015484830152600281015486166060850152600381015486166080850152600480820154871660a0860152600582015490961660c08501819052600682015460e0860152600790910154928401929092528051634cfa648760e01b8152905192949192634cfa64879282810192869291908290030181865afa15801562000498573d6000803e3d6000fd5b505050506040513d6000823e601f3d908101601f19168201604052620004c2919081019062002ed3565b905060005b8151811015620005e857818181518110620004e657620004e662002f78565b60200260200101516001600160a01b0316637b0a47ee6040518163ffffffff1660e01b8152600401602060405180830381865afa9250505080156200054a575060408051601f3d908101601f19168201909252620005479181019062002f8e565b60015b15620005df575081818151811062000566576200056662002f78565b60200260200101516001600160a01b031663654e51e787876040518363ffffffff1660e01b8152600401620005a5929190918252602082015260400190565b600060405180830381600087803b158015620005c057600080fd5b505af1158015620005d5573d6000803e3d6000fd5b50505050620005e8565b600101620004c7565b50505050505050565b600080846000015185602001518660400151876060015130604051620006179062002822565b6200062795949392919062002ff0565b604051809103906000f08015801562000644573d6000803e3d6000fd5b50905060008060006200065c8d8d8d8d8d8962000fc7565b9250925092506000836001600160a01b03166304baed9e6040518163ffffffff1660e01b8152600401602060405180830381865afa158015620006a3573d6000803e3d6000fd5b505050506040513d601f19601f82011682018060405250810190620006c9919062003043565b905060008760000151620006e2578760600151620006e4565b305b905060405180610120016040528060001515815260200189600001511515815260200189602001518152602001856001600160a01b0316815260200189604001516001600160a01b03168152602001826001600160a01b03168152602001866001600160a01b03168152602001836001600160a01b031663d1c6022f6040518163ffffffff1660e01b8152600401602060405180830381865afa15801562000790573d6000803e3d6000fd5b505050506040513d601f19601f82011682018060405250810190620007b6919062002f8e565b8152602001836001600160a01b031663bf75292b6040518163ffffffff1660e01b8152600401602060405180830381865afa158015620007fa573d6000803e3d6000fd5b505050506040513d601f19601f8201168201806040525081019062000820919062002f8e565b90526001600160a01b03838116600081815260016020818152604092839020865181549288015161ffff1990931690151561ff0019161761010092151583021781558684015181840155606087015160028201805473ffffffffffffffffffffffffffffffffffffffff199081169289169290921790556080880151600383018054831691891691909117905560a0880151600480840180548416928a169290921790915560c08901516005840180549093169089161790915560e088015160068301559190960151600790960195909555905163cf456ae760e01b815293840191909152602483015287169063cf456ae790604401600060405180830381600087803b1580156200093157600080fd5b505af115801562000946573d6000803e3d6000fd5b505050506200095582620012d8565b6200096382848b87620018c7565b6200096d62001a4b565b6001600160a01b0316866001600160a01b0316866001600160a01b03167f61a33e5a4a1e981fd909e549d5cf0f8aa651a5c71d59c132d6149d5eb139dd4e878c60200151604051620009d49291906001600160a01b03929092168252602082015260400190565b60405180910390a450929d9c50505050505050505050505050565b6001600160a01b038085166000818152600160208181526040808420815161012081018352815460ff8082161515835261010091829004161515828601529482015481840152600282015488166060820152600382015488166080820152600480830154891660a0830152600583015490981660c0820152600682015460e0820152600790910154938101939093528051631ca3bc4f60e01b8152905192958a9593631ca3bc4f93838301939092908290030181865afa15801562000ab8573d6000803e3d6000fd5b505050506040513d601f19601f8201168201806040525081019062000ade919062003043565b6040516323b872dd60e01b8152336004820152306024820152604481018790529091506001600160a01b038216906323b872dd906064016020604051808303816000875af115801562000b35573d6000803e3d6000fd5b505050506040513d601f19601f8201168201806040525081019062000b5b919062003070565b5060405163095ea7b360e01b81526001600160a01b0388811660048301526024820187905282169063095ea7b3906044016020604051808303816000875af115801562000bac573d6000803e3d6000fd5b505050506040513d601f19601f8201168201806040525081019062000bd2919062003070565b506040516362d93eef60e11b81526001600160a01b038781166004830152602482018790526044820186905283169063c5b27dde90606401600060405180830381600087803b15801562000c2557600080fd5b505af115801562000c3a573d6000803e3d6000fd5b5050505050505050505050565b6001600160a01b038085166000818152600160208181526040808420815161012081018352815460ff8082161515835261010091829004161515828601529482015481840152600282015488166060820152600382015488166080820152600480830154891660a0830152600583015490981660c0820152600682015460e0820152600790910154938101939093528051631ca3bc4f60e01b8152905192958a9593631ca3bc4f93838301939092908290030181865afa15801562000d10573d6000803e3d6000fd5b505050506040513d601f19601f8201168201806040525081019062000d36919062003043565b90506000826001600160a01b031663fc0c546a6040518163ffffffff1660e01b8152600401602060405180830381865afa15801562000d79573d6000803e3d6000fd5b505050506040513d601f19601f8201168201806040525081019062000d9f919062003043565b905060008062000db08a8962001ac8565b9092509050801562000fbb576040516323b872dd60e01b8152336004820152306024820152604481018290526001600160a01b038416906323b872dd906064016020604051808303816000875af115801562000e10573d6000803e3d6000fd5b505050506040513d601f19601f8201168201806040525081019062000e36919062003070565b5060405163095ea7b360e01b81526001600160a01b038b811660048301526024820183905284169063095ea7b3906044016020604051808303816000875af115801562000e87573d6000803e3d6000fd5b505050506040513d601f19601f8201168201806040525081019062000ead919062003070565b5060008862000ebd838a620030a6565b62000ec99190620030c6565b60405163935b7dbd60e01b81526001600160a01b038c8116600483015260248201859052604482018390529192509087169063935b7dbd90606401600060405180830381600087803b15801562000f1f57600080fd5b505af115801562000f34573d6000803e3d6000fd5b5050505060408781015190516370a0823160e01b81526001600160a01b038d811660048301528616906370a0823190602401602060405180830381865afa15801562000f84573d6000803e3d6000fd5b505050506040513d601f19601f8201168201806040525081019062000faa919062002f8e565b1062000c3a5762000c3a8b62001e49565b50505050505050505050565b600080600080876020015190508080602001905181019062000fea919062003043565b604080513060208201529194500160408051601f1981840301815291815260208a81018390528151610120810183526000808252918101829052918201819052606082018190526080820181905260a0820181905260c0820181905260e082018190526101008201529091506020808b015180519091620010729183018101908301620030fe565b604051909650909350620010909150889084908790602001620031e4565b6040516020818303038152906040529050808b60200181905250600088516001620010bc919062003294565b67ffffffffffffffff811115620010d757620010d7620028f3565b6040519080825280602002602001820160405280156200111457816020015b6200110062002830565b815260200190600190039081620010f65790505b50905060005b89518110156200116a5789818151811062001139576200113962002f78565b602002602001015182828151811062001156576200115662002f78565b60209081029190910101526001016200111a565b5060405180604001604052806040518060a001604052806001815260200160008152602001600081526020016040518060600160405280602c815260200162004465602c91398152604080518082018252601081527f4c4d5f50435f5374616b696e675f7631000000000000000000000000000000006020828101919091529283015291835281516001600160a01b038d168183015292019101604051602081830303815290604052815250818a51815181106200122c576200122c62002f78565b602002602001018190525060008054906101000a90046001600160a01b03166001600160a01b031663ff2676998e8e8e8e866040518663ffffffff1660e01b8152600401620012809594939291906200332d565b6020604051808303816000875af1158015620012a0573d6000803e3d6000fd5b505050506040513d601f19601f82011682018060405250810190620012c6919062003043565b96505050505096509650969350505050565b6001600160a01b038082166000818152600160208181526040808420815161012081018352815460ff8082161515835261010091829004161515828601529482015481840152600282015488166060820152600382015488166080820152600480830154891660a0830152600583015490981660c0820152600682015460e0820152600790910154938101939093528051631ca3bc4f60e01b815290519295879593631ca3bc4f93838301939092908290030181865afa158015620013a1573d6000803e3d6000fd5b505050506040513d601f19601f82011682018060405250810190620013c7919062003043565b905082602001516200157e578260c001516001600160a01b031663d09edf316040518163ffffffff1660e01b8152600401602060405180830381865afa15801562001416573d6000803e3d6000fd5b505050506040513d601f19601f820116820180604052508101906200143c919062003043565b6001600160a01b0316632f2ff15d8460c001516001600160a01b031663d09edf316040518163ffffffff1660e01b8152600401602060405180830381865afa1580156200148d573d6000803e3d6000fd5b505050506040513d601f19601f82011682018060405250810190620014b3919062003043565b6001600160a01b031663b3ecf2366040518163ffffffff1660e01b8152600401602060405180830381865afa158015620014f1573d6000803e3d6000fd5b505050506040513d601f19601f8201168201806040525081019062001517919062002f8e565b60608601516040516001600160e01b031960e085901b16815260048101929092526001600160a01b03166024820152604401600060405180830381600087803b1580156200156457600080fd5b505af115801562001579573d6000803e3d6000fd5b505050505b60405163cf456ae760e01b8152306004820152600160248201526001600160a01b0382169063cf456ae790604401600060405180830381600087803b158015620015c757600080fd5b505af1158015620015dc573d6000803e3d6000fd5b50505050816001600160a01b0316636c67e807836001600160a01b0316637feb48a16040518163ffffffff1660e01b8152600401602060405180830381865afa1580156200162e573d6000803e3d6000fd5b505050506040513d601f19601f8201168201806040525081019062001654919062002f8e565b6040516001600160e01b031960e084901b1681526004810191909152306024820152604401600060405180830381600087803b1580156200169457600080fd5b505af1158015620016a9573d6000803e3d6000fd5b5050505060008360c001516001600160a01b0316634cfa64876040518163ffffffff1660e01b8152600401600060405180830381865afa158015620016f2573d6000803e3d6000fd5b505050506040513d6000823e601f3d908101601f191682016040526200171c919081019062002ed3565b905060005b8151811015620018bf5781818151811062001740576200174062002f78565b60200260200101516001600160a01b03166346ebcacf6040518163ffffffff1660e01b8152600401602060405180830381865afa925050508015620017a4575060408051601f3d908101601f19168201909252620017a19181019062002f8e565b60015b15620018b65750818181518110620017c057620017c062002f78565b60200260200101516001600160a01b0316636c67e807838381518110620017eb57620017eb62002f78565b60200260200101516001600160a01b03166346ebcacf6040518163ffffffff1660e01b8152600401602060405180830381865afa15801562001831573d6000803e3d6000fd5b505050506040513d601f19601f8201168201806040525081019062001857919062002f8e565b6040516001600160e01b031960e084901b1681526004810191909152306024820152604401600060405180830381600087803b1580156200189757600080fd5b505af1158015620018ac573d6000803e3d6000fd5b50505050620018bf565b60010162001721565b505050505050565b811562001a4557826001600160a01b03166323b872dd620018e762001a4b565b6040516001600160e01b031960e084901b1681526001600160a01b039091166004820152306024820152604481018590526064016020604051808303816000875af11580156200193b573d6000803e3d6000fd5b505050506040513d601f19601f8201168201806040525081019062001961919062003070565b5060405163095ea7b360e01b81526001600160a01b0385811660048301526024820184905284169063095ea7b3906044016020604051808303816000875af1158015620019b2573d6000803e3d6000fd5b505050506040513d601f19601f82011682018060405250810190620019d8919062003070565b5060405163935b7dbd60e01b81526001600160a01b038281166004830152602482018490526001604483015285169063935b7dbd90606401600060405180830381600087803b15801562001a2b57600080fd5b505af115801562001a40573d6000803e3d6000fd5b505050505b50505050565b60003660147f00000000000000000000000000000000000000000000000000000000000000006001600160a01b03163314801562001a895750808210155b1562001ac05760003662001a9e8385620033ef565b62001aab92829062003405565b62001ab69162003431565b60601c9250505090565b339250505090565b6001600160a01b038083166000908152600160208181526040808420815161012081018352815460ff8082161515835261010091829004161515828601529482015481840152600282015487166060820152600382015487166080820152600480830154881660a0830152600583015490971660c08201819052600683015460e083015260079092015494810194909452815163030d028960e21b815291519495869586949293630c340a2493818401939092918290030181865afa15801562001b96573d6000803e3d6000fd5b505050506040513d601f19601f8201168201806040525081019062001bbc919062003043565b6001600160a01b031663f2d638266040518163ffffffff1660e01b8152600401602060405180830381865afa15801562001bfa573d6000803e3d6000fd5b505050506040513d601f19601f8201168201806040525081019062001c20919062003043565b905060008690506000816001600160a01b031663fc0c546a6040518163ffffffff1660e01b8152600401602060405180830381865afa15801562001c68573d6000803e3d6000fd5b505050506040513d601f19601f8201168201806040525081019062001c8e919062003043565b6040516370a0823160e01b81526001600160a01b038a811660048301529192506000918316906370a0823190602401602060405180830381865afa15801562001cdb573d6000803e3d6000fd5b505050506040513d601f19601f8201168201806040525081019062001d01919062002f8e565b90506000846001600160a01b0316631a3e87336040518163ffffffff1660e01b8152600401602060405180830381865afa15801562001d44573d6000803e3d6000fd5b505050506040513d601f19601f8201168201806040525081019062001d6a919062002f8e565b9050600061271062001d7d838c620030a6565b62001d899190620030c6565b9050600062001d99828c620033ef565b9050600062001da9828662003294565b9050886040015181111562001e31576000858a604001511162001dce57600062001de0565b858a6040015162001de09190620033ef565b905062001df085612710620033ef565b62001dfe82612710620030a6565b62001e0a9190620030c6565b9a508a8d1162001e1c57600062001e28565b62001e288b8e620033ef565b9b505062001e39565b8b995060009a505b5050505050505050509250929050565b6001600160a01b038082166000818152600160208181526040808420815161012081018352815460ff8082161515835261010091829004161515828601529482015481840152600282015488166060820152600382015488166080820152600480830154891660a0830152600583015490981660c0820152600682015460e0820152600790910154938101939093528051637e062a3560e11b81529051929587959363fc0c546a93838301939092908290030181865afa15801562001f12573d6000803e3d6000fd5b505050506040513d601f19601f8201168201806040525081019062001f38919062003043565b90506000826001600160a01b0316631ca3bc4f6040518163ffffffff1660e01b8152600401602060405180830381865afa15801562001f7b573d6000803e3d6000fd5b505050506040513d601f19601f8201168201806040525081019062001fa1919062003043565b905060008460c001516001600160a01b0316634cfa64876040518163ffffffff1660e01b8152600401600060405180830381865afa15801562001fe8573d6000803e3d6000fd5b505050506040513d6000823e601f3d908101601f1916820160405262002012919081019062002ed3565b6040516370a0823160e01b81526001600160a01b0388811660048301529192506000918516906370a0823190602401602060405180830381865afa1580156200205f573d6000803e3d6000fd5b505050506040513d601f19601f8201168201806040525081019062002085919062002f8e565b905060008660e00151866001600160a01b031663d1c6022f6040518163ffffffff1660e01b8152600401602060405180830381865afa158015620020cd573d6000803e3d6000fd5b505050506040513d601f19601f82011682018060405250810190620020f3919062002f8e565b620020ff9190620033ef565b905060005b8351811015620022bd5783818151811062002123576200212362002f78565b60200260200101516001600160a01b03166346ebcacf6040518163ffffffff1660e01b8152600401602060405180830381865afa92505050801562002187575060408051601f3d908101601f19168201909252620021849181019062002f8e565b60015b15620022b45750838181518110620021a357620021a362002f78565b60200260200101516001600160a01b0316638028b82f8960800151888a6001600160a01b031663cbda8f826040518163ffffffff1660e01b8152600401602060405180830381865afa158015620021fe573d6000803e3d6000fd5b505050506040513d601f19601f8201168201806040525081019062002224919062002f8e565b620022309088620033ef565b6040516001600160e01b031960e086901b1681526001600160a01b03938416600482015292909116602483015260448201526000606482018190526084820181905260a482015260c401600060405180830381600087803b1580156200229557600080fd5b505af1158015620022aa573d6000803e3d6000fd5b50505050620022bd565b60010162002104565b50856001600160a01b031663c6ab5cdc6040518163ffffffff1660e01b8152600401600060405180830381600087803b158015620022fa57600080fd5b505af11580156200230f573d6000803e3d6000fd5b50505050856001600160a01b031663ba83c9706040518163ffffffff1660e01b8152600401600060405180830381600087803b1580156200234f57600080fd5b505af115801562002364573d6000803e3d6000fd5b5050505060808701516040516340c10f1960e01b81526001600160a01b03918216600482015260248101839052908516906340c10f1990604401600060405180830381600087803b158015620023b957600080fd5b505af1158015620023ce573d6000803e3d6000fd5b505050608088015160a08901516040516332092e4f60e21b81526001600160a01b038981166004830152888116602483015291821660448201526000935091169063c824b93c906064016020604051808303816000875af115801562002438573d6000803e3d6000fd5b505050506040513d601f19601f820116820180604052508101906200245e919062003043565b9050876020015115620024c657846001600160a01b031663715018a66040518163ffffffff1660e01b8152600401600060405180830381600087803b158015620024a757600080fd5b505af1158015620024bc573d6000803e3d6000fd5b505050506200252a565b606088015160405163f2fde38b60e01b81526001600160a01b0391821660048201529086169063f2fde38b90602401600060405180830381600087803b1580156200251057600080fd5b505af115801562002525573d6000803e3d6000fd5b505050505b8760200151620026df578760c001516001600160a01b031663d09edf316040518163ffffffff1660e01b8152600401602060405180830381865afa15801562002577573d6000803e3d6000fd5b505050506040513d601f19601f820116820180604052508101906200259d919062003043565b6001600160a01b0316632f2ff15d8960c001516001600160a01b031663d09edf316040518163ffffffff1660e01b8152600401602060405180830381865afa158015620025ee573d6000803e3d6000fd5b505050506040513d601f19601f8201168201806040525081019062002614919062003043565b6001600160a01b031663b3ecf2366040518163ffffffff1660e01b8152600401602060405180830381865afa15801562002652573d6000803e3d6000fd5b505050506040513d601f19601f8201168201806040525081019062002678919062002f8e565b60608b01516040516001600160e01b031960e085901b16815260048101929092526001600160a01b03166024820152604401600060405180830381600087803b158015620026c557600080fd5b505af1158015620026da573d6000803e3d6000fd5b505050505b60018089526001600160a01b03808b16600081815260208481526040918290208d518154928f0151151561010090810261ff00199215159290921661ffff1990941693909317178155828e01519581019590955560608d015160028601805491861673ffffffffffffffffffffffffffffffffffffffff1992831617905560808e015160038701805491871691831691909117905560a08e015160048701805491871691831691909117905560c08e01516005870180549187169190921617905560e08d015160068601558c015160079094019390935591518382169291881691907fa1e96b3ce3fc5768278dc15122fe99fb7059af1a41229142fc6db77b9de60dba906200280f908b9088908a906001600160a01b039390931683526020830191909152604082015260600190565b60405180910390a4505050505050505050565b610ffd806200346883390190565b60405180604001604052806200286e6040518060a0016040528060008152602001600081526020016000815260200160608152602001606081525090565b8152602001606081525090565b6001600160a01b03811681146200289157600080fd5b50565b600060208284031215620028a757600080fd5b8135620028b4816200287b565b9392505050565b600080600060608486031215620028d157600080fd5b8335620028de816200287b565b95602085013595506040909401359392505050565b634e487b7160e01b600052604160045260246000fd5b6040805190810167ffffffffffffffff811182821017156200292f576200292f620028f3565b60405290565b60405160a0810167ffffffffffffffff811182821017156200292f576200292f620028f3565b6040516080810167ffffffffffffffff811182821017156200292f576200292f620028f3565b604051610120810167ffffffffffffffff811182821017156200292f576200292f620028f3565b604051601f8201601f1916810167ffffffffffffffff81118282101715620029d457620029d4620028f3565b604052919050565b80151581146200289157600080fd5b600060408284031215620029fe57600080fd5b62002a0862002909565b9050813562002a1781620029dc565b8152602082013562002a29816200287b565b602082015292915050565b600082601f83011262002a4657600080fd5b813567ffffffffffffffff81111562002a635762002a63620028f3565b62002a78601f8201601f1916602001620029a8565b81815284602083860101111562002a8e57600080fd5b816020850160208301376000918101602001919091529392505050565b60006040828403121562002abe57600080fd5b62002ac862002909565b9050813567ffffffffffffffff8082111562002ae357600080fd5b9083019060a0828603121562002af857600080fd5b62002b0262002935565b82358152602083013560208201526040830135604082015260608301358281111562002b2d57600080fd5b62002b3b8782860162002a34565b60608301525060808301358281111562002b5457600080fd5b62002b628782860162002a34565b6080830152508352602084013591508082111562002b7f57600080fd5b5062002b8e8482850162002a34565b60208301525092915050565b600067ffffffffffffffff82111562002bb75762002bb7620028f3565b5060051b60200190565b600082601f83011262002bd357600080fd5b8135602062002bec62002be68362002b9a565b620029a8565b82815260059290921b8401810191818101908684111562002c0c57600080fd5b8286015b8481101562002c5157803567ffffffffffffffff81111562002c325760008081fd5b62002c428986838b010162002aab565b84525091830191830162002c10565b509695505050505050565b60006080828403121562002c6f57600080fd5b62002c796200295b565b9050813567ffffffffffffffff8082111562002c9457600080fd5b62002ca28583860162002a34565b8352602084013591508082111562002cb957600080fd5b5062002cc88482850162002a34565b602083015250604082013560ff8116811462002ce357600080fd5b806040830152506060820135606082015292915050565b60006080828403121562002d0d57600080fd5b62002d176200295b565b9050813562002d2681620029dc565b815260208281013590820152604082013562002d42816200287b565b6040820152606082013562002d57816200287b565b606082015292915050565b600080600080600080600080610180898b03121562002d8057600080fd5b62002d8c8a8a620029eb565b9750604089013567ffffffffffffffff8082111562002daa57600080fd5b62002db88c838d0162002aab565b985060608b013591508082111562002dcf57600080fd5b62002ddd8c838d0162002aab565b975060808b013591508082111562002df457600080fd5b62002e028c838d0162002aab565b965060a08b013591508082111562002e1957600080fd5b62002e278c838d0162002bc1565b955060c08b013591508082111562002e3e57600080fd5b5062002e4d8b828c0162002c5c565b93505060e0890135915062002e678a6101008b0162002cfa565b90509295985092959890939650565b6000806000806080858703121562002e8d57600080fd5b843562002e9a816200287b565b9350602085013562002eac816200287b565b93969395505050506040820135916060013590565b805162002ece816200287b565b919050565b6000602080838503121562002ee757600080fd5b825167ffffffffffffffff81111562002eff57600080fd5b8301601f8101851362002f1157600080fd5b805162002f2262002be68262002b9a565b81815260059190911b8201830190838101908783111562002f4257600080fd5b928401925b8284101562002f6d57835162002f5d816200287b565b8252928401929084019062002f47565b979650505050505050565b634e487b7160e01b600052603260045260246000fd5b60006020828403121562002fa157600080fd5b5051919050565b6000815180845260005b8181101562002fd05760208185018101518683018201520162002fb2565b506000602082860101526020601f19601f83011685010191505092915050565b60a0815260006200300560a083018862002fa8565b828103602084015262003019818862002fa8565b60ff969096166040840152505060608101929092526001600160a01b031660809091015292915050565b6000602082840312156200305657600080fd5b8151620028b4816200287b565b805162002ece81620029dc565b6000602082840312156200308357600080fd5b8151620028b481620029dc565b634e487b7160e01b600052601160045260246000fd5b8082028115828204841417620030c057620030c062003090565b92915050565b600082620030e457634e487b7160e01b600052601260045260246000fd5b500490565b805163ffffffff8116811462002ece57600080fd5b60008060008385036101608112156200311657600080fd5b845162003123816200287b565b9350610120601f1982018113156200313a57600080fd5b6200314462002981565b9150620031546020870162002ec1565b82526200316460408701620030e9565b60208301526200317760608701620030e9565b60408301526080860151606083015260a086015160808301526200319e60c0870162003063565b60a0830152620031b160e0870162003063565b60c08301526101008681015160e084015290860151908201529150620031db610140850162002ec1565b90509250925092565b6000610160820190506001600160a01b0380861683528085511660208401525063ffffffff602085015116604083015260408401516200322c606084018263ffffffff169052565b5060608401516080830152608084015160a083015260a08401516200325560c084018215159052565b5060c084015180151560e08401525060e0840151610100838101919091528401516101208301526001600160a01b038316610140830152949350505050565b80820180821115620030c057620030c062003090565b6000815160408452805160408501526020810151606085015260408101516080850152606081015160a080860152620032e760e086018262002fa8565b905060808201519150603f198582030160c086015262003308818362002fa8565b9150506020830151848203602086015262003324828262002fa8565b95945050505050565b855115158152600060206001600160a01b0381890151168184015260c060408401526200335e60c0840188620032aa565b8381036060850152620033728188620032aa565b90508381036080850152620033888187620032aa565b905083810360a08501528085518083528383019150838160051b84010184880160005b83811015620033dd57601f19868403018552620033ca838351620032aa565b94870194925090860190600101620033ab565b50909c9b505050505050505050505050565b81810381811115620030c057620030c062003090565b600080858511156200341657600080fd5b838611156200342457600080fd5b5050820193919092039150565b6bffffffffffffffffffffffff1981358181169160148510156200345f5780818660140360031b1b83161692505b50509291505056fe60c06040523480156200001157600080fd5b5060405162000ffd38038062000ffd833981016040819052620000349162000254565b80828686600362000046838262000395565b50600462000055828262000395565b50505080600003620000825760405163392e1e2760e01b8152600060048201526024015b60405180910390fd5b6080526001600160a01b038116620000b157604051631e4fbdf760e01b81526000600482015260240162000079565b620000bc81620000db565b50620000ca8160016200012d565b505060ff1660a05250620004619050565b600580546001600160a01b038381166001600160a01b0319831681179093556040519116919082907f8be0079c531659141344cd1fd0a4f28419497f9722a3daafe3b4186f6b6457e090600090a35050565b6001600160a01b038216600081815260066020908152604091829020805460ff191685151590811790915591519182527f583b0aa0e528532caf4b907c11d7a8158a122fe2a6fb80cd9b09776ebea8d92d910160405180910390a25050565b634e487b7160e01b600052604160045260246000fd5b600082601f830112620001b457600080fd5b81516001600160401b0380821115620001d157620001d16200018c565b604051601f8301601f19908116603f01168101908282118183101715620001fc57620001fc6200018c565b81604052838152602092508660208588010111156200021a57600080fd5b600091505b838210156200023e57858201830151818301840152908201906200021f565b6000602085830101528094505050505092915050565b600080600080600060a086880312156200026d57600080fd5b85516001600160401b03808211156200028557600080fd5b6200029389838a01620001a2565b96506020880151915080821115620002aa57600080fd5b50620002b988828901620001a2565b945050604086015160ff81168114620002d157600080fd5b6060870151608088015191945092506001600160a01b0381168114620002f657600080fd5b809150509295509295909350565b600181811c908216806200031957607f821691505b6020821081036200033a57634e487b7160e01b600052602260045260246000fd5b50919050565b601f82111562000390576000816000526020600020601f850160051c810160208610156200036b5750805b601f850160051c820191505b818110156200038c5782815560010162000377565b5050505b505050565b81516001600160401b03811115620003b157620003b16200018c565b620003c981620003c2845462000304565b8462000340565b602080601f831160018114620004015760008415620003e85750858301515b600019600386901b1c1916600185901b1785556200038c565b600085815260208120601f198616915b82811015620004325788860151825594840194600190910190840162000411565b5085821015620004515787850151600019600388901b60f8161c191681555b5050505050600190811b01905550565b60805160a051610b6f6200048e600039600061018d0152600081816101b901526108000152610b6f6000f3fe608060405234801561001057600080fd5b506004361061011b5760003560e01c806370a08231116100b25780639dc29fac11610081578063cf456ae711610066578063cf456ae71461028f578063dd62ed3e146102a2578063f2fde38b146102db57600080fd5b80639dc29fac14610269578063a9059cbb1461027c57600080fd5b806370a0823114610215578063715018a61461023e5780638da5cb5b1461024657806395d89b411461026157600080fd5b8063313ce567116100ee578063313ce56714610186578063355274ea146101b757806340c10f19146101dd578063423afa66146101f257600080fd5b806306fdde0314610120578063095ea7b31461013e57806318160ddd1461016157806323b872dd14610173575b600080fd5b6101286102ee565b604051610135919061097c565b60405180910390f35b61015161014c3660046109e7565b610380565b6040519015158152602001610135565b6002545b604051908152602001610135565b610151610181366004610a11565b61039a565b60405160ff7f0000000000000000000000000000000000000000000000000000000000000000168152602001610135565b7f0000000000000000000000000000000000000000000000000000000000000000610165565b6101f06101eb3660046109e7565b6103be565b005b610151610200366004610a4d565b60066020526000908152604090205460ff1681565b610165610223366004610a4d565b6001600160a01b031660009081526020819052604090205490565b6101f06103fc565b6005546040516001600160a01b039091168152602001610135565b610128610410565b6101f06102773660046109e7565b61041f565b61015161028a3660046109e7565b610459565b6101f061029d366004610a6f565b610467565b6101656102b0366004610aab565b6001600160a01b03918216600090815260016020908152604080832093909416825291909152205490565b6101f06102e9366004610a4d565b610479565b6060600380546102fd90610ade565b80601f016020809104026020016040519081016040528092919081815260200182805461032990610ade565b80156103765780601f1061034b57610100808354040283529160200191610376565b820191906000526020600020905b81548152906001019060200180831161035957829003601f168201915b5050505050905090565b60003361038e8185856104bc565b60019150505b92915050565b6000336103a88582856104ce565b6103b385858561054c565b506001949350505050565b3360009081526006602052604090205460ff166103ee57604051634199e25360e11b815260040160405180910390fd5b6103f882826105ab565b5050565b6104046105e1565b61040e600061060e565b565b6060600480546102fd90610ade565b3360009081526006602052604090205460ff1661044f57604051634199e25360e11b815260040160405180910390fd5b6103f88282610678565b60003361038e81858561054c565b61046f6105e1565b6103f882826106ae565b6104816105e1565b6001600160a01b0381166104b057604051631e4fbdf760e01b8152600060048201526024015b60405180910390fd5b6104b98161060e565b50565b6104c9838383600161070d565b505050565b6001600160a01b038381166000908152600160209081526040808320938616835292905220546000198114610546578181101561053757604051637dc7a0d960e11b81526001600160a01b038416600482015260248101829052604481018390526064016104a7565b6105468484848403600061070d565b50505050565b6001600160a01b03831661057657604051634b637e8f60e11b8152600060048201526024016104a7565b6001600160a01b0382166105a05760405163ec442f0560e01b8152600060048201526024016104a7565b6104c98383836107e2565b6001600160a01b0382166105d55760405163ec442f0560e01b8152600060048201526024016104a7565b6103f8600083836107e2565b6005546001600160a01b0316331461040e5760405163118cdaa760e01b81523360048201526024016104a7565b600580546001600160a01b038381167fffffffffffffffffffffffff0000000000000000000000000000000000000000831681179093556040519116919082907f8be0079c531659141344cd1fd0a4f28419497f9722a3daafe3b4186f6b6457e090600090a35050565b6001600160a01b0382166106a257604051634b637e8f60e11b8152600060048201526024016104a7565b6103f8826000836107e2565b6001600160a01b038216600081815260066020908152604091829020805460ff191685151590811790915591519182527f583b0aa0e528532caf4b907c11d7a8158a122fe2a6fb80cd9b09776ebea8d92d910160405180910390a25050565b6001600160a01b0384166107375760405163e602df0560e01b8152600060048201526024016104a7565b6001600160a01b03831661076157604051634a1406b160e11b8152600060048201526024016104a7565b6001600160a01b038085166000908152600160209081526040808320938716835292905220829055801561054657826001600160a01b0316846001600160a01b03167f8c5be1e5ebec7d5bd14f71427d1e84f3dd0314c0f7b2291e5b200ac8c7c3b925846040516107d491815260200190565b60405180910390a350505050565b6107ed838383610852565b6001600160a01b0383166104c9576002547f0000000000000000000000000000000000000000000000000000000000000000908181111561084b5760405163279e7e1560e21b815260048101829052602481018390526044016104a7565b5050505050565b6001600160a01b03831661087d5780600260008282546108729190610b18565b909155506108ef9050565b6001600160a01b038316600090815260208190526040902054818110156108d05760405163391434e360e21b81526001600160a01b038516600482015260248101829052604481018390526064016104a7565b6001600160a01b03841660009081526020819052604090209082900390555b6001600160a01b03821661090b5760028054829003905561092a565b6001600160a01b03821660009081526020819052604090208054820190555b816001600160a01b0316836001600160a01b03167fddf252ad1be2c89b69c2b068fc378daa952ba7f163c4a11628f55a4df523b3ef8360405161096f91815260200190565b60405180910390a3505050565b60006020808352835180602085015260005b818110156109aa5785810183015185820160400152820161098e565b506000604082860101526040601f19601f8301168501019250505092915050565b80356001600160a01b03811681146109e257600080fd5b919050565b600080604083850312156109fa57600080fd5b610a03836109cb565b946020939093013593505050565b600080600060608486031215610a2657600080fd5b610a2f846109cb565b9250610a3d602085016109cb565b9150604084013590509250925092565b600060208284031215610a5f57600080fd5b610a68826109cb565b9392505050565b60008060408385031215610a8257600080fd5b610a8b836109cb565b915060208301358015158114610aa057600080fd5b809150509250929050565b60008060408385031215610abe57600080fd5b610ac7836109cb565b9150610ad5602084016109cb565b90509250929050565b600181811c90821680610af257607f821691505b602082108103610b1257634e487b7160e01b600052602260045260246000fd5b50919050565b8082018082111561039457634e487b7160e01b600052601160045260246000fdfea26469706673582212200d68669bd9d7a7cf36532e94088db26b3e972e6649ce1d5bd2b0e1bd50d1234764736f6c6343000817003368747470733a2f2f6769746875622e636f6d2f496e7665727465724e6574776f726b2f636f6e747261637473a264697066735822122054c558bf749cc01b7e9b2518b7a5ea5773243cc1e5035b4f5ef93a503c43740564736f6c63430008170033",
    "linkReferences": {}
  },
  "methodIdentifiers": {
    "buyFor(address,address,uint256,uint256)": "f6819293",
    "createPIMWorkflow((bool,address),((uint256,uint256,uint256,string,string),bytes),((uint256,uint256,uint256,string,string),bytes),((uint256,uint256,uint256,string,string),bytes),((uint256,uint256,uint256,string,string),bytes)[],(string,string,uint8,uint256),uint256,(bool,uint256,address,address))": "6daf301a",
    "getIsGraduated(address)": "1248c803",
    "getIsImmutable(address)": "f402c2bb",
    "getLpTokenRecipient(address)": "de78c729",
    "getMigrationThreshold(address)": "d8354222",
    "isTrustedForwarder(address)": "572b6c05",
    "orchestratorFactory()": "2f36a25d",
    "pims(address)": "1615f657",
    "sellTo(address,address,uint256,uint256)": "ce7c83dd",
    "setRewards(address,uint256,uint256)": "455964f6",
    "trustedForwarder()": "7da0a877"
  },
  "id": 78
}