{
  "abi": [
    {
      "type": "constructor",
      "inputs": [
        {
          "name": "_orchestratorFactory",
          "type": "address",
          "internalType": "address"
        },
        {
          "name": "_trustedForwarder",
          "type": "address",
          "internalType": "address"
        }
      ],
      "stateMutability": "nonpayable"
    },
    {
      "type": "function",
      "name": "buyFor",
      "inputs": [
        {
          "name": "fundingManager",
          "type": "address",
          "internalType": "address"
        },
        {
          "name": "recipient",
          "type": "address",
          "internalType": "address"
        },
        {
          "name": "amountIn",
          "type": "uint256",
          "internalType": "uint256"
        },
        {
          "name": "minAmountOut",
          "type": "uint256",
          "internalType": "uint256"
        }
      ],
      "outputs": [],
      "stateMutability": "nonpayable"
    },
    {
      "type": "function",
      "name": "createPIMWorkflow",
      "inputs": [
        {
          "name": "workflowConfig",
          "type": "tuple",
          "internalType": "struct IOrchestratorFactory_v1.WorkflowConfig",
          "components": [
            {
              "name": "independentUpdates",
              "type": "bool",
              "internalType": "bool"
            },
            {
              "name": "independentUpdateAdmin",
              "type": "address",
              "internalType": "address"
            }
          ]
        },
        {
          "name": "fundingManagerConfig",
          "type": "tuple",
          "internalType": "struct IOrchestratorFactory_v1.ModuleConfig",
          "components": [
            {
              "name": "metadata",
              "type": "tuple",
              "internalType": "struct IModule_v1.Metadata",
              "components": [
                {
                  "name": "majorVersion",
                  "type": "uint256",
                  "internalType": "uint256"
                },
                {
                  "name": "minorVersion",
                  "type": "uint256",
                  "internalType": "uint256"
                },
                {
                  "name": "patchVersion",
                  "type": "uint256",
                  "internalType": "uint256"
                },
                {
                  "name": "url",
                  "type": "string",
                  "internalType": "string"
                },
                {
                  "name": "title",
                  "type": "string",
                  "internalType": "string"
                }
              ]
            },
            {
              "name": "configData",
              "type": "bytes",
              "internalType": "bytes"
            }
          ]
        },
        {
          "name": "authorizerConfig",
          "type": "tuple",
          "internalType": "struct IOrchestratorFactory_v1.ModuleConfig",
          "components": [
            {
              "name": "metadata",
              "type": "tuple",
              "internalType": "struct IModule_v1.Metadata",
              "components": [
                {
                  "name": "majorVersion",
                  "type": "uint256",
                  "internalType": "uint256"
                },
                {
                  "name": "minorVersion",
                  "type": "uint256",
                  "internalType": "uint256"
                },
                {
                  "name": "patchVersion",
                  "type": "uint256",
                  "internalType": "uint256"
                },
                {
                  "name": "url",
                  "type": "string",
                  "internalType": "string"
                },
                {
                  "name": "title",
                  "type": "string",
                  "internalType": "string"
                }
              ]
            },
            {
              "name": "configData",
              "type": "bytes",
              "internalType": "bytes"
            }
          ]
        },
        {
          "name": "paymentProcessorConfig",
          "type": "tuple",
          "internalType": "struct IOrchestratorFactory_v1.ModuleConfig",
          "components": [
            {
              "name": "metadata",
              "type": "tuple",
              "internalType": "struct IModule_v1.Metadata",
              "components": [
                {
                  "name": "majorVersion",
                  "type": "uint256",
                  "internalType": "uint256"
                },
                {
                  "name": "minorVersion",
                  "type": "uint256",
                  "internalType": "uint256"
                },
                {
                  "name": "patchVersion",
                  "type": "uint256",
                  "internalType": "uint256"
                },
                {
                  "name": "url",
                  "type": "string",
                  "internalType": "string"
                },
                {
                  "name": "title",
                  "type": "string",
                  "internalType": "string"
                }
              ]
            },
            {
              "name": "configData",
              "type": "bytes",
              "internalType": "bytes"
            }
          ]
        },
        {
          "name": "moduleConfigs",
          "type": "tuple[]",
          "internalType": "struct IOrchestratorFactory_v1.ModuleConfig[]",
          "components": [
            {
              "name": "metadata",
              "type": "tuple",
              "internalType": "struct IModule_v1.Metadata",
              "components": [
                {
                  "name": "majorVersion",
                  "type": "uint256",
                  "internalType": "uint256"
                },
                {
                  "name": "minorVersion",
                  "type": "uint256",
                  "internalType": "uint256"
                },
                {
                  "name": "patchVersion",
                  "type": "uint256",
                  "internalType": "uint256"
                },
                {
                  "name": "url",
                  "type": "string",
                  "internalType": "string"
                },
                {
                  "name": "title",
                  "type": "string",
                  "internalType": "string"
                }
              ]
            },
            {
              "name": "configData",
              "type": "bytes",
              "internalType": "bytes"
            }
          ]
        },
        {
          "name": "issuanceTokenParams",
          "type": "tuple",
          "internalType": "struct IBondingCurveBase_v1.IssuanceToken",
          "components": [
            {
              "name": "name",
              "type": "string",
              "internalType": "string"
            },
            {
              "name": "symbol",
              "type": "string",
              "internalType": "string"
            },
            {
              "name": "decimals",
              "type": "uint8",
              "internalType": "uint8"
            },
            {
              "name": "maxSupply",
              "type": "uint256",
              "internalType": "uint256"
            }
          ]
        },
        {
          "name": "initialPurchaseAmount",
          "type": "uint256",
          "internalType": "uint256"
        },
        {
          "name": "migrationConfig_",
          "type": "tuple",
          "internalType": "struct IMigrating_PIM_Factory_v1.MigrationConfig",
          "components": [
            {
              "name": "isImmutable",
              "type": "bool",
              "internalType": "bool"
            },
            {
              "name": "migrationThreshold",
              "type": "uint256",
              "internalType": "uint256"
            },
            {
              "name": "dexAdapter",
              "type": "address",
              "internalType": "address"
            },
            {
              "name": "lpTokenRecipient",
              "type": "address",
              "internalType": "address"
            }
          ]
        }
      ],
      "outputs": [
        {
          "name": "",
          "type": "address",
          "internalType": "contract IOrchestrator_v1"
        }
      ],
      "stateMutability": "nonpayable"
    },
    {
      "type": "function",
      "name": "getIsGraduated",
      "inputs": [
        {
          "name": "fundingManager",
          "type": "address",
          "internalType": "address"
        }
      ],
      "outputs": [
        {
          "name": "",
          "type": "bool",
          "internalType": "bool"
        }
      ],
      "stateMutability": "view"
    },
    {
      "type": "function",
      "name": "getIsImmutable",
      "inputs": [
        {
          "name": "fundingManager",
          "type": "address",
          "internalType": "address"
        }
      ],
      "outputs": [
        {
          "name": "",
          "type": "bool",
          "internalType": "bool"
        }
      ],
      "stateMutability": "view"
    },
    {
      "type": "function",
      "name": "getLpTokenRecipient",
      "inputs": [
        {
          "name": "fundingManager",
          "type": "address",
          "internalType": "address"
        }
      ],
      "outputs": [
        {
          "name": "",
          "type": "address",
          "internalType": "address"
        }
      ],
      "stateMutability": "view"
    },
    {
      "type": "function",
      "name": "getMigrationThreshold",
      "inputs": [
        {
          "name": "fundingManager",
          "type": "address",
          "internalType": "address"
        }
      ],
      "outputs": [
        {
          "name": "",
          "type": "uint256",
          "internalType": "uint256"
        }
      ],
      "stateMutability": "view"
    },
    {
      "type": "function",
      "name": "isTrustedForwarder",
      "inputs": [
        {
          "name": "forwarder",
          "type": "address",
          "internalType": "address"
        }
      ],
      "outputs": [
        {
          "name": "",
          "type": "bool",
          "internalType": "bool"
        }
      ],
      "stateMutability": "view"
    },
    {
      "type": "function",
      "name": "orchestratorFactory",
      "inputs": [],
      "outputs": [
        {
          "name": "",
          "type": "address",
          "internalType": "address"
        }
      ],
      "stateMutability": "view"
    },
    {
      "type": "function",
      "name": "pims",
      "inputs": [
        {
          "name": "fundingManager",
          "type": "address",
          "internalType": "address"
        }
      ],
      "outputs": [
        {
          "name": "isGraduated",
          "type": "bool",
          "internalType": "bool"
        },
        {
          "name": "isImmutable",
          "type": "bool",
          "internalType": "bool"
        },
        {
          "name": "migrationThreshold",
          "type": "uint256",
          "internalType": "uint256"
        },
        {
          "name": "initiator",
          "type": "address",
          "internalType": "address"
        },
        {
          "name": "dexAdapter",
          "type": "address",
          "internalType": "address"
        },
        {
          "name": "lpTokenRecipient",
          "type": "address",
          "internalType": "address"
        },
        {
          "name": "orchestrator",
          "type": "address",
          "internalType": "contract IOrchestrator_v1"
        },
        {
          "name": "initialVirtualIssuanceSupply",
          "type": "uint256",
          "internalType": "uint256"
        },
        {
          "name": "initialVirtualCollateralSupply",
          "type": "uint256",
          "internalType": "uint256"
        }
      ],
      "stateMutability": "view"
    },
    {
      "type": "function",
      "name": "sellTo",
      "inputs": [
        {
          "name": "fundingManager",
          "type": "address",
          "internalType": "address"
        },
        {
          "name": "recipient",
          "type": "address",
          "internalType": "address"
        },
        {
          "name": "amountIn",
          "type": "uint256",
          "internalType": "uint256"
        },
        {
          "name": "minAmountOut",
          "type": "uint256",
          "internalType": "uint256"
        }
      ],
      "outputs": [],
      "stateMutability": "nonpayable"
    },
    {
      "type": "function",
      "name": "setRewards",
      "inputs": [
        {
          "name": "fundingManager",
          "type": "address",
          "internalType": "address"
        },
        {
          "name": "amount",
          "type": "uint256",
          "internalType": "uint256"
        },
        {
          "name": "duration",
          "type": "uint256",
          "internalType": "uint256"
        }
      ],
      "outputs": [],
      "stateMutability": "nonpayable"
    },
    {
      "type": "function",
      "name": "trustedForwarder",
      "inputs": [],
      "outputs": [
        {
          "name": "",
          "type": "address",
          "internalType": "address"
        }
      ],
      "stateMutability": "view"
    },
    {
      "type": "event",
      "name": "Graduation",
      "inputs": [
        {
          "name": "orchestrator",
          "type": "address",
          "indexed": true,
          "internalType": "address"
        },
        {
          "name": "pool",
          "type": "address",
          "indexed": true,
          "internalType": "address"
        },
        {
          "name": "issuanceTokenAmount",
          "type": "uint256",
          "indexed": false,
          "internalType": "uint256"
        },
        {
          "name": "collateralTokenAmount",
          "type": "uint256",
          "indexed": false,
          "internalType": "uint256"
        }
      ],
      "anonymous": false
    },
    {
      "type": "event",
      "name": "PIMWorkflowCreated",
      "inputs": [
        {
          "name": "orchestrator",
          "type": "address",
          "indexed": true,
          "internalType": "address"
        },
        {
          "name": "issuanceToken",
          "type": "address",
          "indexed": true,
          "internalType": "address"
        },
        {
          "name": "deployer",
          "type": "address",
          "indexed": true,
          "internalType": "address"
        },
        {
          "name": "collateralToken",
          "type": "address",
          "indexed": false,
          "internalType": "address"
        },
        {
          "name": "initiator",
          "type": "address",
          "indexed": false,
          "internalType": "address"
        },
        {
          "name": "migrationConfig_",
          "type": "tuple",
          "indexed": false,
          "internalType": "struct IMigrating_PIM_Factory_v1.MigrationConfig",
          "components": [
            {
              "name": "isImmutable",
              "type": "bool",
              "internalType": "bool"
            },
            {
              "name": "migrationThreshold",
              "type": "uint256",
              "internalType": "uint256"
            },
            {
              "name": "dexAdapter",
              "type": "address",
              "internalType": "address"
            },
            {
              "name": "lpTokenRecipient",
              "type": "address",
              "internalType": "address"
            }
          ]
        }
      ],
      "anonymous": false
    },
    {
      "type": "event",
      "name": "PimFeeClaimed",
      "inputs": [
        {
          "name": "fundingManager",
          "type": "address",
          "indexed": true,
          "internalType": "address"
        },
        {
          "name": "claimer",
          "type": "address",
          "indexed": true,
          "internalType": "address"
        },
        {
          "name": "to",
          "type": "address",
          "indexed": true,
          "internalType": "address"
        },
        {
          "name": "amount",
          "type": "uint256",
          "indexed": false,
          "internalType": "uint256"
        }
      ],
      "anonymous": false
    },
    {
      "type": "event",
      "name": "PimFeeRecipientUpdated",
      "inputs": [
        {
          "name": "fundingManager",
          "type": "address",
          "indexed": true,
          "internalType": "address"
        },
        {
          "name": "oldRecipient",
          "type": "address",
          "indexed": true,
          "internalType": "address"
        },
        {
          "name": "newRecipient",
          "type": "address",
          "indexed": true,
          "internalType": "address"
        }
      ],
      "anonymous": false
    },
    {
      "type": "error",
      "name": "PIM_WorkflowFactory__OnlyInitiator",
      "inputs": []
    },
    {
      "type": "error",
      "name": "PIM_WorkflowFactory__OnlyPimFeeRecipient",
      "inputs": []
    }
  ],
  "bytecode": {
    "object": "0x60a06040523480156200001157600080fd5b506040516200449f3803806200449f83398101604081905262000034916200007d565b6001600160a01b03908116608052600080546001600160a01b03191692909116919091179055620000b5565b80516001600160a01b03811681146200007857600080fd5b919050565b600080604083850312156200009157600080fd5b6200009c8362000060565b9150620000ac6020840162000060565b90509250929050565b6080516143c0620000df6000396000818161024901528181610292015261197401526143c06000f3fe60806040523480156200001157600080fd5b5060043610620000e55760003560e01c80637da0a877116200008b578063de78c7291162000062578063de78c729146200030d578063f402c2bb146200033f578063f6819293146200037357600080fd5b80637da0a8771462000290578063ce7c83dd14620002b7578063d835422214620002ce57600080fd5b8063455964f611620000c0578063455964f6146200021d578063572b6c0514620002365780636daf301a146200027957600080fd5b80631248c80314620000ea5780631615f657146200012e5780632f36a25d14620001f0575b600080fd5b62000119620000fb3660046200278e565b6001600160a01b031660009081526001602052604090205460ff1690565b60405190151581526020015b60405180910390f35b6200019e6200013f3660046200278e565b60016020819052600091825260409091208054918101546002820154600383015460048401546005850154600686015460079096015460ff80891698610100900416966001600160a01b03958616959485169493841693909216919089565b604080519915158a5297151560208a0152968801959095526001600160a01b0393841660608801529183166080870152821660a08601521660c084015260e08301526101008201526101200162000125565b60005462000204906001600160a01b031681565b6040516001600160a01b03909116815260200162000125565b620002346200022e366004620027b5565b6200038a565b005b62000119620002473660046200278e565b7f00000000000000000000000000000000000000000000000000000000000000006001600160a01b0390811691161490565b620002046200028a36600462002c5c565b620005f1565b7f000000000000000000000000000000000000000000000000000000000000000062000204565b62000234620002c836600462002d70565b620009ff565b620002fe620002df3660046200278e565b6001600160a01b03166000908152600160208190526040909120015490565b60405190815260200162000125565b620002046200031e3660046200278e565b6001600160a01b039081166000908152600160205260409020600401541690565b62000119620003503660046200278e565b6001600160a01b0316600090815260016020526040902054610100900460ff1690565b620002346200038436600462002d70565b62000bd3565b6001600160a01b038381166000908152600160205260409020600201548491163314620003ca576040516305d8067160e21b815260040160405180910390fd5b6001600160a01b038085166000908152600160208181526040808420815161012081018352815460ff8082161515835261010091829004161515948201949094529381015484830152600281015486166060850152600381015486166080850152600480820154871660a0860152600582015490961660c08501819052600682015460e0860152600790910154928401929092528051634cfa648760e01b8152905192949192634cfa64879282810192869291908290030181865afa15801562000498573d6000803e3d6000fd5b505050506040513d6000823e601f3d908101601f19168201604052620004c2919081019062002dcd565b905060005b8151811015620005e857818181518110620004e657620004e662002e72565b60200260200101516001600160a01b0316637b0a47ee6040518163ffffffff1660e01b8152600401602060405180830381865afa9250505080156200054a575060408051601f3d908101601f19168201909252620005479181019062002e88565b60015b15620005df575081818151811062000566576200056662002e72565b60200260200101516001600160a01b031663654e51e787876040518363ffffffff1660e01b8152600401620005a5929190918252602082015260400190565b600060405180830381600087803b158015620005c057600080fd5b505af1158015620005d5573d6000803e3d6000fd5b50505050620005e8565b600101620004c7565b50505050505050565b60008084600001518560200151866040015187606001513060405162000617906200271c565b6200062795949392919062002eea565b604051809103906000f08015801562000644573d6000803e3d6000fd5b50905060008060006200065c8d8d8d8d8d8962000ee9565b9250925092506000836001600160a01b03166304baed9e6040518163ffffffff1660e01b8152600401602060405180830381865afa158015620006a3573d6000803e3d6000fd5b505050506040513d601f19601f82011682018060405250810190620006c9919062002f3d565b905060008760000151620006e2578760600151620006e4565b305b905060405180610120016040528060001515815260200189600001511515815260200189602001518152602001856001600160a01b0316815260200189604001516001600160a01b03168152602001826001600160a01b03168152602001866001600160a01b03168152602001836001600160a01b031663d1c6022f6040518163ffffffff1660e01b8152600401602060405180830381865afa15801562000790573d6000803e3d6000fd5b505050506040513d601f19601f82011682018060405250810190620007b6919062002e88565b8152602001836001600160a01b031663bf75292b6040518163ffffffff1660e01b8152600401602060405180830381865afa158015620007fa573d6000803e3d6000fd5b505050506040513d601f19601f8201168201806040525081019062000820919062002e88565b90526001600160a01b03838116600081815260016020818152604092839020865181549288015161ffff1990931690151561ff0019161761010092151583021781558684015181840155606087015160028201805473ffffffffffffffffffffffffffffffffffffffff199081169289169290921790556080880151600383018054831691891691909117905560a0880151600480840180548416928a169290921790915560c08901516005840180549093169089161790915560e088015160068301559190960151600790960195909555905163cf456ae760e01b815293840191909152602483015287169063cf456ae790604401600060405180830381600087803b1580156200093157600080fd5b505af115801562000946573d6000803e3d6000fd5b505050506200095582620011fa565b6200096382848b87620017e9565b6200096d6200196d565b604080516001600160a01b0386811682528781166020808401919091528c511515838501528c0151606080840191909152928c015181166080830152918b0151821660a082015291811691888216918816907ff3a31cb79568cc2c523dcd7467e718e402436fc2e2aecd9cb74fea01f99224b19060c00160405180910390a450929d9c50505050505050505050505050565b60008490506000816001600160a01b0316631ca3bc4f6040518163ffffffff1660e01b8152600401602060405180830381865afa15801562000a45573d6000803e3d6000fd5b505050506040513d601f19601f8201168201806040525081019062000a6b919062002f3d565b6040516323b872dd60e01b8152336004820152306024820152604481018690529091506001600160a01b038216906323b872dd906064016020604051808303816000875af115801562000ac2573d6000803e3d6000fd5b505050506040513d601f19601f8201168201806040525081019062000ae8919062002f6a565b5060405163095ea7b360e01b81526001600160a01b0387811660048301526024820186905282169063095ea7b3906044016020604051808303816000875af115801562000b39573d6000803e3d6000fd5b505050506040513d601f19601f8201168201806040525081019062000b5f919062002f6a565b506040516362d93eef60e11b81526001600160a01b038681166004830152602482018690526044820185905283169063c5b27dde90606401600060405180830381600087803b15801562000bb257600080fd5b505af115801562000bc7573d6000803e3d6000fd5b50505050505050505050565b6001600160a01b038085166000818152600160208181526040808420815161012081018352815460ff8082161515835261010091829004161515828601529482015481840152600282015488166060820152600382015488166080820152600480830154891660a0830152600583015490981660c0820152600682015460e0820152600790910154938101939093528051637e062a3560e11b8152905192958a959363fc0c546a93838301939092908290030181865afa15801562000c9c573d6000803e3d6000fd5b505050506040513d601f19601f8201168201806040525081019062000cc2919062002f3d565b905060008062000cd38988620019ea565b9092509050801562000ede576040516323b872dd60e01b8152336004820152306024820152604481018290526001600160a01b038416906323b872dd906064016020604051808303816000875af115801562000d33573d6000803e3d6000fd5b505050506040513d601f19601f8201168201806040525081019062000d59919062002f6a565b5060405163095ea7b360e01b81526001600160a01b038a811660048301526024820183905284169063095ea7b3906044016020604051808303816000875af115801562000daa573d6000803e3d6000fd5b505050506040513d601f19601f8201168201806040525081019062000dd0919062002f6a565b5060008762000de0838962002fa0565b62000dec919062002fc0565b60405163935b7dbd60e01b81526001600160a01b038b8116600483015260248201859052604482018390529192509086169063935b7dbd90606401600060405180830381600087803b15801562000e4257600080fd5b505af115801562000e57573d6000803e3d6000fd5b5050505060408681015190516370a0823160e01b81526001600160a01b038c811660048301528616906370a0823190602401602060405180830381865afa15801562000ea7573d6000803e3d6000fd5b505050506040513d601f19601f8201168201806040525081019062000ecd919062002e88565b1062000bc75762000bc78a62001d6b565b505050505050505050565b600080600080876020015190508080602001905181019062000f0c919062002f3d565b604080513060208201529194500160408051601f1981840301815291815260208a81018390528151610120810183526000808252918101829052918201819052606082018190526080820181905260a0820181905260c0820181905260e082018190526101008201529091506020808b01518051909162000f94918301810190830162002ff8565b60405190965090935062000fb29150889084908790602001620030de565b6040516020818303038152906040529050808b6020018190525060008851600162000fde91906200318e565b67ffffffffffffffff81111562000ff95762000ff9620027ed565b6040519080825280602002602001820160405280156200103657816020015b620010226200272a565b815260200190600190039081620010185790505b50905060005b89518110156200108c578981815181106200105b576200105b62002e72565b602002602001015182828151811062001078576200107862002e72565b60209081029190910101526001016200103c565b5060405180604001604052806040518060a001604052806001815260200160008152602001600081526020016040518060600160405280602c81526020016200435f602c91398152604080518082018252601081527f4c4d5f50435f5374616b696e675f7631000000000000000000000000000000006020828101919091529283015291835281516001600160a01b038d168183015292019101604051602081830303815290604052815250818a51815181106200114e576200114e62002e72565b602002602001018190525060008054906101000a90046001600160a01b03166001600160a01b031663ff2676998e8e8e8e866040518663ffffffff1660e01b8152600401620011a295949392919062003227565b6020604051808303816000875af1158015620011c2573d6000803e3d6000fd5b505050506040513d601f19601f82011682018060405250810190620011e8919062002f3d565b96505050505096509650969350505050565b6001600160a01b038082166000818152600160208181526040808420815161012081018352815460ff8082161515835261010091829004161515828601529482015481840152600282015488166060820152600382015488166080820152600480830154891660a0830152600583015490981660c0820152600682015460e0820152600790910154938101939093528051631ca3bc4f60e01b815290519295879593631ca3bc4f93838301939092908290030181865afa158015620012c3573d6000803e3d6000fd5b505050506040513d601f19601f82011682018060405250810190620012e9919062002f3d565b90508260200151620014a0578260c001516001600160a01b031663d09edf316040518163ffffffff1660e01b8152600401602060405180830381865afa15801562001338573d6000803e3d6000fd5b505050506040513d601f19601f820116820180604052508101906200135e919062002f3d565b6001600160a01b0316632f2ff15d8460c001516001600160a01b031663d09edf316040518163ffffffff1660e01b8152600401602060405180830381865afa158015620013af573d6000803e3d6000fd5b505050506040513d601f19601f82011682018060405250810190620013d5919062002f3d565b6001600160a01b031663b3ecf2366040518163ffffffff1660e01b8152600401602060405180830381865afa15801562001413573d6000803e3d6000fd5b505050506040513d601f19601f8201168201806040525081019062001439919062002e88565b60608601516040516001600160e01b031960e085901b16815260048101929092526001600160a01b03166024820152604401600060405180830381600087803b1580156200148657600080fd5b505af11580156200149b573d6000803e3d6000fd5b505050505b60405163cf456ae760e01b8152306004820152600160248201526001600160a01b0382169063cf456ae790604401600060405180830381600087803b158015620014e957600080fd5b505af1158015620014fe573d6000803e3d6000fd5b50505050816001600160a01b0316636c67e807836001600160a01b0316637feb48a16040518163ffffffff1660e01b8152600401602060405180830381865afa15801562001550573d6000803e3d6000fd5b505050506040513d601f19601f8201168201806040525081019062001576919062002e88565b6040516001600160e01b031960e084901b1681526004810191909152306024820152604401600060405180830381600087803b158015620015b657600080fd5b505af1158015620015cb573d6000803e3d6000fd5b5050505060008360c001516001600160a01b0316634cfa64876040518163ffffffff1660e01b8152600401600060405180830381865afa15801562001614573d6000803e3d6000fd5b505050506040513d6000823e601f3d908101601f191682016040526200163e919081019062002dcd565b905060005b8151811015620017e15781818151811062001662576200166262002e72565b60200260200101516001600160a01b03166346ebcacf6040518163ffffffff1660e01b8152600401602060405180830381865afa925050508015620016c6575060408051601f3d908101601f19168201909252620016c39181019062002e88565b60015b15620017d85750818181518110620016e257620016e262002e72565b60200260200101516001600160a01b0316636c67e8078383815181106200170d576200170d62002e72565b60200260200101516001600160a01b03166346ebcacf6040518163ffffffff1660e01b8152600401602060405180830381865afa15801562001753573d6000803e3d6000fd5b505050506040513d601f19601f8201168201806040525081019062001779919062002e88565b6040516001600160e01b031960e084901b1681526004810191909152306024820152604401600060405180830381600087803b158015620017b957600080fd5b505af1158015620017ce573d6000803e3d6000fd5b50505050620017e1565b60010162001643565b505050505050565b81156200196757826001600160a01b03166323b872dd620018096200196d565b6040516001600160e01b031960e084901b1681526001600160a01b039091166004820152306024820152604481018590526064016020604051808303816000875af11580156200185d573d6000803e3d6000fd5b505050506040513d601f19601f8201168201806040525081019062001883919062002f6a565b5060405163095ea7b360e01b81526001600160a01b0385811660048301526024820184905284169063095ea7b3906044016020604051808303816000875af1158015620018d4573d6000803e3d6000fd5b505050506040513d601f19601f82011682018060405250810190620018fa919062002f6a565b5060405163935b7dbd60e01b81526001600160a01b038281166004830152602482018490526001604483015285169063935b7dbd90606401600060405180830381600087803b1580156200194d57600080fd5b505af115801562001962573d6000803e3d6000fd5b505050505b50505050565b60003660147f00000000000000000000000000000000000000000000000000000000000000006001600160a01b031633148015620019ab5750808210155b15620019e257600036620019c08385620032e9565b620019cd928290620032ff565b620019d8916200332b565b60601c9250505090565b339250505090565b6001600160a01b038083166000908152600160208181526040808420815161012081018352815460ff8082161515835261010091829004161515828601529482015481840152600282015487166060820152600382015487166080820152600480830154881660a0830152600583015490971660c08201819052600683015460e083015260079092015494810194909452815163030d028960e21b815291519495869586949293630c340a2493818401939092918290030181865afa15801562001ab8573d6000803e3d6000fd5b505050506040513d601f19601f8201168201806040525081019062001ade919062002f3d565b6001600160a01b031663f2d638266040518163ffffffff1660e01b8152600401602060405180830381865afa15801562001b1c573d6000803e3d6000fd5b505050506040513d601f19601f8201168201806040525081019062001b42919062002f3d565b905060008690506000816001600160a01b031663fc0c546a6040518163ffffffff1660e01b8152600401602060405180830381865afa15801562001b8a573d6000803e3d6000fd5b505050506040513d601f19601f8201168201806040525081019062001bb0919062002f3d565b6040516370a0823160e01b81526001600160a01b038a811660048301529192506000918316906370a0823190602401602060405180830381865afa15801562001bfd573d6000803e3d6000fd5b505050506040513d601f19601f8201168201806040525081019062001c23919062002e88565b90506000846001600160a01b0316631a3e87336040518163ffffffff1660e01b8152600401602060405180830381865afa15801562001c66573d6000803e3d6000fd5b505050506040513d601f19601f8201168201806040525081019062001c8c919062002e88565b9050600061271062001c9f838c62002fa0565b62001cab919062002fc0565b9050600062001cbb828c620032e9565b9050600062001ccb82866200318e565b9050886040015181111562001d53576000858a604001511162001cf057600062001d02565b858a6040015162001d029190620032e9565b905062001d1285612710620032e9565b62001d208261271062002fa0565b62001d2c919062002fc0565b9a508a8d1162001d3e57600062001d4a565b62001d4a8b8e620032e9565b9b505062001d5b565b8b995060009a505b5050505050505050509250929050565b6001600160a01b038082166000818152600160208181526040808420815161012081018352815460ff8082161515835261010091829004161515828601529482015481840152600282015488166060820152600382015488166080820152600480830154891660a0830152600583015490981660c0820152600682015460e0820152600790910154938101939093528051637e062a3560e11b81529051929587959363fc0c546a93838301939092908290030181865afa15801562001e34573d6000803e3d6000fd5b505050506040513d601f19601f8201168201806040525081019062001e5a919062002f3d565b90506000826001600160a01b0316631ca3bc4f6040518163ffffffff1660e01b8152600401602060405180830381865afa15801562001e9d573d6000803e3d6000fd5b505050506040513d601f19601f8201168201806040525081019062001ec3919062002f3d565b905060008460c001516001600160a01b0316634cfa64876040518163ffffffff1660e01b8152600401600060405180830381865afa15801562001f0a573d6000803e3d6000fd5b505050506040513d6000823e601f3d908101601f1916820160405262001f34919081019062002dcd565b6040516370a0823160e01b81526001600160a01b0388811660048301529192506000918516906370a0823190602401602060405180830381865afa15801562001f81573d6000803e3d6000fd5b505050506040513d601f19601f8201168201806040525081019062001fa7919062002e88565b905060008660e00151866001600160a01b031663d1c6022f6040518163ffffffff1660e01b8152600401602060405180830381865afa15801562001fef573d6000803e3d6000fd5b505050506040513d601f19601f8201168201806040525081019062002015919062002e88565b620020219190620032e9565b905060005b8351811015620021df5783818151811062002045576200204562002e72565b60200260200101516001600160a01b03166346ebcacf6040518163ffffffff1660e01b8152600401602060405180830381865afa925050508015620020a9575060408051601f3d908101601f19168201909252620020a69181019062002e88565b60015b15620021d65750838181518110620020c557620020c562002e72565b60200260200101516001600160a01b0316638028b82f8960800151888a6001600160a01b031663cbda8f826040518163ffffffff1660e01b8152600401602060405180830381865afa15801562002120573d6000803e3d6000fd5b505050506040513d601f19601f8201168201806040525081019062002146919062002e88565b620021529088620032e9565b6040516001600160e01b031960e086901b1681526001600160a01b03938416600482015292909116602483015260448201526000606482018190526084820181905260a482015260c401600060405180830381600087803b158015620021b757600080fd5b505af1158015620021cc573d6000803e3d6000fd5b50505050620021df565b60010162002026565b50856001600160a01b031663c6ab5cdc6040518163ffffffff1660e01b8152600401600060405180830381600087803b1580156200221c57600080fd5b505af115801562002231573d6000803e3d6000fd5b50505050856001600160a01b031663ba83c9706040518163ffffffff1660e01b8152600401600060405180830381600087803b1580156200227157600080fd5b505af115801562002286573d6000803e3d6000fd5b5050505060808701516040516340c10f1960e01b81526001600160a01b03918216600482015260248101839052908516906340c10f1990604401600060405180830381600087803b158015620022db57600080fd5b505af1158015620022f0573d6000803e3d6000fd5b505050608088015160a08901516040516332092e4f60e21b81526001600160a01b038981166004830152888116602483015291821660448201526000935091169063c824b93c906064016020604051808303816000875af11580156200235a573d6000803e3d6000fd5b505050506040513d601f19601f8201168201806040525081019062002380919062002f3d565b9050876020015115620023e857846001600160a01b031663715018a66040518163ffffffff1660e01b8152600401600060405180830381600087803b158015620023c957600080fd5b505af1158015620023de573d6000803e3d6000fd5b505050506200244c565b606088015160405163f2fde38b60e01b81526001600160a01b0391821660048201529086169063f2fde38b90602401600060405180830381600087803b1580156200243257600080fd5b505af115801562002447573d6000803e3d6000fd5b505050505b876020015162002601578760c001516001600160a01b031663d09edf316040518163ffffffff1660e01b8152600401602060405180830381865afa15801562002499573d6000803e3d6000fd5b505050506040513d601f19601f82011682018060405250810190620024bf919062002f3d565b6001600160a01b0316632f2ff15d8960c001516001600160a01b031663d09edf316040518163ffffffff1660e01b8152600401602060405180830381865afa15801562002510573d6000803e3d6000fd5b505050506040513d601f19601f8201168201806040525081019062002536919062002f3d565b6001600160a01b031663b3ecf2366040518163ffffffff1660e01b8152600401602060405180830381865afa15801562002574573d6000803e3d6000fd5b505050506040513d601f19601f820116820180604052508101906200259a919062002e88565b60608b01516040516001600160e01b031960e085901b16815260048101929092526001600160a01b03166024820152604401600060405180830381600087803b158015620025e757600080fd5b505af1158015620025fc573d6000803e3d6000fd5b505050505b60018089526001600160a01b038a8116600090815260208381526040918290208c518154838f015161ffff1990911691151561ff001916919091176101009115158202178255838e01519582019590955560608d015160028201805473ffffffffffffffffffffffffffffffffffffffff1990811692871692909217905560808e0151600383018054831691871691909117905560a08e0151600483018054831691871691909117905560c08e015160058301805490921690861690811790915560e08e01516006830155948d0151600790910155815186815290810187905291841692917feddae9d2e53c54be02851320408790594a59dcb6ff5ab585cd8e04cd7c5373e9910160405180910390a3505050505050505050565b610ffd806200336283390190565b6040518060400160405280620027686040518060a0016040528060008152602001600081526020016000815260200160608152602001606081525090565b8152602001606081525090565b6001600160a01b03811681146200278b57600080fd5b50565b600060208284031215620027a157600080fd5b8135620027ae8162002775565b9392505050565b600080600060608486031215620027cb57600080fd5b8335620027d88162002775565b95602085013595506040909401359392505050565b634e487b7160e01b600052604160045260246000fd5b6040805190810167ffffffffffffffff81118282101715620028295762002829620027ed565b60405290565b60405160a0810167ffffffffffffffff81118282101715620028295762002829620027ed565b6040516080810167ffffffffffffffff81118282101715620028295762002829620027ed565b604051610120810167ffffffffffffffff81118282101715620028295762002829620027ed565b604051601f8201601f1916810167ffffffffffffffff81118282101715620028ce57620028ce620027ed565b604052919050565b80151581146200278b57600080fd5b600060408284031215620028f857600080fd5b6200290262002803565b905081356200291181620028d6565b81526020820135620029238162002775565b602082015292915050565b600082601f8301126200294057600080fd5b813567ffffffffffffffff8111156200295d576200295d620027ed565b62002972601f8201601f1916602001620028a2565b8181528460208386010111156200298857600080fd5b816020850160208301376000918101602001919091529392505050565b600060408284031215620029b857600080fd5b620029c262002803565b9050813567ffffffffffffffff80821115620029dd57600080fd5b9083019060a08286031215620029f257600080fd5b620029fc6200282f565b82358152602083013560208201526040830135604082015260608301358281111562002a2757600080fd5b62002a35878286016200292e565b60608301525060808301358281111562002a4e57600080fd5b62002a5c878286016200292e565b6080830152508352602084013591508082111562002a7957600080fd5b5062002a88848285016200292e565b60208301525092915050565b600067ffffffffffffffff82111562002ab15762002ab1620027ed565b5060051b60200190565b600082601f83011262002acd57600080fd5b8135602062002ae662002ae08362002a94565b620028a2565b82815260059290921b8401810191818101908684111562002b0657600080fd5b8286015b8481101562002b4b57803567ffffffffffffffff81111562002b2c5760008081fd5b62002b3c8986838b0101620029a5565b84525091830191830162002b0a565b509695505050505050565b60006080828403121562002b6957600080fd5b62002b7362002855565b9050813567ffffffffffffffff8082111562002b8e57600080fd5b62002b9c858386016200292e565b8352602084013591508082111562002bb357600080fd5b5062002bc2848285016200292e565b602083015250604082013560ff8116811462002bdd57600080fd5b806040830152506060820135606082015292915050565b60006080828403121562002c0757600080fd5b62002c1162002855565b9050813562002c2081620028d6565b815260208281013590820152604082013562002c3c8162002775565b6040820152606082013562002c518162002775565b606082015292915050565b600080600080600080600080610180898b03121562002c7a57600080fd5b62002c868a8a620028e5565b9750604089013567ffffffffffffffff8082111562002ca457600080fd5b62002cb28c838d01620029a5565b985060608b013591508082111562002cc957600080fd5b62002cd78c838d01620029a5565b975060808b013591508082111562002cee57600080fd5b62002cfc8c838d01620029a5565b965060a08b013591508082111562002d1357600080fd5b62002d218c838d0162002abb565b955060c08b013591508082111562002d3857600080fd5b5062002d478b828c0162002b56565b93505060e0890135915062002d618a6101008b0162002bf4565b90509295985092959890939650565b6000806000806080858703121562002d8757600080fd5b843562002d948162002775565b9350602085013562002da68162002775565b93969395505050506040820135916060013590565b805162002dc88162002775565b919050565b6000602080838503121562002de157600080fd5b825167ffffffffffffffff81111562002df957600080fd5b8301601f8101851362002e0b57600080fd5b805162002e1c62002ae08262002a94565b81815260059190911b8201830190838101908783111562002e3c57600080fd5b928401925b8284101562002e6757835162002e578162002775565b8252928401929084019062002e41565b979650505050505050565b634e487b7160e01b600052603260045260246000fd5b60006020828403121562002e9b57600080fd5b5051919050565b6000815180845260005b8181101562002eca5760208185018101518683018201520162002eac565b506000602082860101526020601f19601f83011685010191505092915050565b60a08152600062002eff60a083018862002ea2565b828103602084015262002f13818862002ea2565b60ff969096166040840152505060608101929092526001600160a01b031660809091015292915050565b60006020828403121562002f5057600080fd5b8151620027ae8162002775565b805162002dc881620028d6565b60006020828403121562002f7d57600080fd5b8151620027ae81620028d6565b634e487b7160e01b600052601160045260246000fd5b808202811582820484141762002fba5762002fba62002f8a565b92915050565b60008262002fde57634e487b7160e01b600052601260045260246000fd5b500490565b805163ffffffff8116811462002dc857600080fd5b60008060008385036101608112156200301057600080fd5b84516200301d8162002775565b9350610120601f1982018113156200303457600080fd5b6200303e6200287b565b91506200304e6020870162002dbb565b82526200305e6040870162002fe3565b6020830152620030716060870162002fe3565b60408301526080860151606083015260a086015160808301526200309860c0870162002f5d565b60a0830152620030ab60e0870162002f5d565b60c08301526101008681015160e084015290860151908201529150620030d5610140850162002dbb565b90509250925092565b6000610160820190506001600160a01b0380861683528085511660208401525063ffffffff6020850151166040830152604084015162003126606084018263ffffffff169052565b5060608401516080830152608084015160a083015260a08401516200314f60c084018215159052565b5060c084015180151560e08401525060e0840151610100838101919091528401516101208301526001600160a01b038316610140830152949350505050565b8082018082111562002fba5762002fba62002f8a565b6000815160408452805160408501526020810151606085015260408101516080850152606081015160a080860152620031e160e086018262002ea2565b905060808201519150603f198582030160c086015262003202818362002ea2565b915050602083015184820360208601526200321e828262002ea2565b95945050505050565b855115158152600060206001600160a01b0381890151168184015260c060408401526200325860c0840188620031a4565b83810360608501526200326c8188620031a4565b90508381036080850152620032828187620031a4565b905083810360a08501528085518083528383019150838160051b84010184880160005b83811015620032d757601f19868403018552620032c4838351620031a4565b94870194925090860190600101620032a5565b50909c9b505050505050505050505050565b8181038181111562002fba5762002fba62002f8a565b600080858511156200331057600080fd5b838611156200331e57600080fd5b5050820193919092039150565b6bffffffffffffffffffffffff198135818116916014851015620033595780818660140360031b1b83161692505b50509291505056fe60c06040523480156200001157600080fd5b5060405162000ffd38038062000ffd833981016040819052620000349162000254565b80828686600362000046838262000395565b50600462000055828262000395565b50505080600003620000825760405163392e1e2760e01b8152600060048201526024015b60405180910390fd5b6080526001600160a01b038116620000b157604051631e4fbdf760e01b81526000600482015260240162000079565b620000bc81620000db565b50620000ca8160016200012d565b505060ff1660a05250620004619050565b600580546001600160a01b038381166001600160a01b0319831681179093556040519116919082907f8be0079c531659141344cd1fd0a4f28419497f9722a3daafe3b4186f6b6457e090600090a35050565b6001600160a01b038216600081815260066020908152604091829020805460ff191685151590811790915591519182527f583b0aa0e528532caf4b907c11d7a8158a122fe2a6fb80cd9b09776ebea8d92d910160405180910390a25050565b634e487b7160e01b600052604160045260246000fd5b600082601f830112620001b457600080fd5b81516001600160401b0380821115620001d157620001d16200018c565b604051601f8301601f19908116603f01168101908282118183101715620001fc57620001fc6200018c565b81604052838152602092508660208588010111156200021a57600080fd5b600091505b838210156200023e57858201830151818301840152908201906200021f565b6000602085830101528094505050505092915050565b600080600080600060a086880312156200026d57600080fd5b85516001600160401b03808211156200028557600080fd5b6200029389838a01620001a2565b96506020880151915080821115620002aa57600080fd5b50620002b988828901620001a2565b945050604086015160ff81168114620002d157600080fd5b6060870151608088015191945092506001600160a01b0381168114620002f657600080fd5b809150509295509295909350565b600181811c908216806200031957607f821691505b6020821081036200033a57634e487b7160e01b600052602260045260246000fd5b50919050565b601f82111562000390576000816000526020600020601f850160051c810160208610156200036b5750805b601f850160051c820191505b818110156200038c5782815560010162000377565b5050505b505050565b81516001600160401b03811115620003b157620003b16200018c565b620003c981620003c2845462000304565b8462000340565b602080601f831160018114620004015760008415620003e85750858301515b600019600386901b1c1916600185901b1785556200038c565b600085815260208120601f198616915b82811015620004325788860151825594840194600190910190840162000411565b5085821015620004515787850151600019600388901b60f8161c191681555b5050505050600190811b01905550565b60805160a051610b6f6200048e600039600061018d0152600081816101b901526108000152610b6f6000f3fe608060405234801561001057600080fd5b506004361061011b5760003560e01c806370a08231116100b25780639dc29fac11610081578063cf456ae711610066578063cf456ae71461028f578063dd62ed3e146102a2578063f2fde38b146102db57600080fd5b80639dc29fac14610269578063a9059cbb1461027c57600080fd5b806370a0823114610215578063715018a61461023e5780638da5cb5b1461024657806395d89b411461026157600080fd5b8063313ce567116100ee578063313ce56714610186578063355274ea146101b757806340c10f19146101dd578063423afa66146101f257600080fd5b806306fdde0314610120578063095ea7b31461013e57806318160ddd1461016157806323b872dd14610173575b600080fd5b6101286102ee565b604051610135919061097c565b60405180910390f35b61015161014c3660046109e7565b610380565b6040519015158152602001610135565b6002545b604051908152602001610135565b610151610181366004610a11565b61039a565b60405160ff7f0000000000000000000000000000000000000000000000000000000000000000168152602001610135565b7f0000000000000000000000000000000000000000000000000000000000000000610165565b6101f06101eb3660046109e7565b6103be565b005b610151610200366004610a4d565b60066020526000908152604090205460ff1681565b610165610223366004610a4d565b6001600160a01b031660009081526020819052604090205490565b6101f06103fc565b6005546040516001600160a01b039091168152602001610135565b610128610410565b6101f06102773660046109e7565b61041f565b61015161028a3660046109e7565b610459565b6101f061029d366004610a6f565b610467565b6101656102b0366004610aab565b6001600160a01b03918216600090815260016020908152604080832093909416825291909152205490565b6101f06102e9366004610a4d565b610479565b6060600380546102fd90610ade565b80601f016020809104026020016040519081016040528092919081815260200182805461032990610ade565b80156103765780601f1061034b57610100808354040283529160200191610376565b820191906000526020600020905b81548152906001019060200180831161035957829003601f168201915b5050505050905090565b60003361038e8185856104bc565b60019150505b92915050565b6000336103a88582856104ce565b6103b385858561054c565b506001949350505050565b3360009081526006602052604090205460ff166103ee57604051634199e25360e11b815260040160405180910390fd5b6103f882826105ab565b5050565b6104046105e1565b61040e600061060e565b565b6060600480546102fd90610ade565b3360009081526006602052604090205460ff1661044f57604051634199e25360e11b815260040160405180910390fd5b6103f88282610678565b60003361038e81858561054c565b61046f6105e1565b6103f882826106ae565b6104816105e1565b6001600160a01b0381166104b057604051631e4fbdf760e01b8152600060048201526024015b60405180910390fd5b6104b98161060e565b50565b6104c9838383600161070d565b505050565b6001600160a01b038381166000908152600160209081526040808320938616835292905220546000198114610546578181101561053757604051637dc7a0d960e11b81526001600160a01b038416600482015260248101829052604481018390526064016104a7565b6105468484848403600061070d565b50505050565b6001600160a01b03831661057657604051634b637e8f60e11b8152600060048201526024016104a7565b6001600160a01b0382166105a05760405163ec442f0560e01b8152600060048201526024016104a7565b6104c98383836107e2565b6001600160a01b0382166105d55760405163ec442f0560e01b8152600060048201526024016104a7565b6103f8600083836107e2565b6005546001600160a01b0316331461040e5760405163118cdaa760e01b81523360048201526024016104a7565b600580546001600160a01b038381167fffffffffffffffffffffffff0000000000000000000000000000000000000000831681179093556040519116919082907f8be0079c531659141344cd1fd0a4f28419497f9722a3daafe3b4186f6b6457e090600090a35050565b6001600160a01b0382166106a257604051634b637e8f60e11b8152600060048201526024016104a7565b6103f8826000836107e2565b6001600160a01b038216600081815260066020908152604091829020805460ff191685151590811790915591519182527f583b0aa0e528532caf4b907c11d7a8158a122fe2a6fb80cd9b09776ebea8d92d910160405180910390a25050565b6001600160a01b0384166107375760405163e602df0560e01b8152600060048201526024016104a7565b6001600160a01b03831661076157604051634a1406b160e11b8152600060048201526024016104a7565b6001600160a01b038085166000908152600160209081526040808320938716835292905220829055801561054657826001600160a01b0316846001600160a01b03167f8c5be1e5ebec7d5bd14f71427d1e84f3dd0314c0f7b2291e5b200ac8c7c3b925846040516107d491815260200190565b60405180910390a350505050565b6107ed838383610852565b6001600160a01b0383166104c9576002547f0000000000000000000000000000000000000000000000000000000000000000908181111561084b5760405163279e7e1560e21b815260048101829052602481018390526044016104a7565b5050505050565b6001600160a01b03831661087d5780600260008282546108729190610b18565b909155506108ef9050565b6001600160a01b038316600090815260208190526040902054818110156108d05760405163391434e360e21b81526001600160a01b038516600482015260248101829052604481018390526064016104a7565b6001600160a01b03841660009081526020819052604090209082900390555b6001600160a01b03821661090b5760028054829003905561092a565b6001600160a01b03821660009081526020819052604090208054820190555b816001600160a01b0316836001600160a01b03167fddf252ad1be2c89b69c2b068fc378daa952ba7f163c4a11628f55a4df523b3ef8360405161096f91815260200190565b60405180910390a3505050565b60006020808352835180602085015260005b818110156109aa5785810183015185820160400152820161098e565b506000604082860101526040601f19601f8301168501019250505092915050565b80356001600160a01b03811681146109e257600080fd5b919050565b600080604083850312156109fa57600080fd5b610a03836109cb565b946020939093013593505050565b600080600060608486031215610a2657600080fd5b610a2f846109cb565b9250610a3d602085016109cb565b9150604084013590509250925092565b600060208284031215610a5f57600080fd5b610a68826109cb565b9392505050565b60008060408385031215610a8257600080fd5b610a8b836109cb565b915060208301358015158114610aa057600080fd5b809150509250929050565b60008060408385031215610abe57600080fd5b610ac7836109cb565b9150610ad5602084016109cb565b90509250929050565b600181811c90821680610af257607f821691505b602082108103610b1257634e487b7160e01b600052602260045260246000fd5b50919050565b8082018082111561039457634e487b7160e01b600052601160045260246000fdfea26469706673582212200d68669bd9d7a7cf36532e94088db26b3e972e6649ce1d5bd2b0e1bd50d1234764736f6c6343000817003368747470733a2f2f6769746875622e636f6d2f496e7665727465724e6574776f726b2f636f6e747261637473a26469706673582212209e9ab45ef664d0a25c93158f6c7a5051c75150cd84590753e0d43fe82d69a9aa64736f6c63430008170033",
    "linkReferences": {}
  },
  "methodIdentifiers": {
    "buyFor(address,address,uint256,uint256)": "f6819293",
    "createPIMWorkflow((bool,address),((uint256,uint256,uint256,string,string),bytes),((uint256,uint256,uint256,string,string),bytes),((uint256,uint256,uint256,string,string),bytes),((uint256,uint256,uint256,string,string),bytes)[],(string,string,uint8,uint256),uint256,(bool,uint256,address,address))": "6daf301a",
    "getIsGraduated(address)": "1248c803",
    "getIsImmutable(address)": "f402c2bb",
    "getLpTokenRecipient(address)": "de78c729",
    "getMigrationThreshold(address)": "d8354222",
    "isTrustedForwarder(address)": "572b6c05",
    "orchestratorFactory()": "2f36a25d",
    "pims(address)": "1615f657",
    "sellTo(address,address,uint256,uint256)": "ce7c83dd",
    "setRewards(address,uint256,uint256)": "455964f6",
    "trustedForwarder()": "7da0a877"
  },
  "id": 78
}