{
  "abi": [
    {
      "type": "constructor",
      "inputs": [
        {
          "name": "_orchestratorFactory",
          "type": "address",
          "internalType": "address"
        },
        {
          "name": "_trustedForwarder",
          "type": "address",
          "internalType": "address"
        }
      ],
      "stateMutability": "nonpayable"
    },
    {
      "type": "function",
      "name": "buyFor",
      "inputs": [
        {
          "name": "fundingManager",
          "type": "address",
          "internalType": "address"
        },
        {
          "name": "recipient",
          "type": "address",
          "internalType": "address"
        },
        {
          "name": "amountIn",
          "type": "uint256",
          "internalType": "uint256"
        },
        {
          "name": "minAmountOut",
          "type": "uint256",
          "internalType": "uint256"
        }
      ],
      "outputs": [],
      "stateMutability": "nonpayable"
    },
    {
      "type": "function",
      "name": "createPIMWorkflow",
      "inputs": [
        {
          "name": "workflowConfig",
          "type": "tuple",
          "internalType": "struct IOrchestratorFactory_v1.WorkflowConfig",
          "components": [
            {
              "name": "independentUpdates",
              "type": "bool",
              "internalType": "bool"
            },
            {
              "name": "independentUpdateAdmin",
              "type": "address",
              "internalType": "address"
            }
          ]
        },
        {
          "name": "fundingManagerConfig",
          "type": "tuple",
          "internalType": "struct IOrchestratorFactory_v1.ModuleConfig",
          "components": [
            {
              "name": "metadata",
              "type": "tuple",
              "internalType": "struct IModule_v1.Metadata",
              "components": [
                {
                  "name": "majorVersion",
                  "type": "uint256",
                  "internalType": "uint256"
                },
                {
                  "name": "minorVersion",
                  "type": "uint256",
                  "internalType": "uint256"
                },
                {
                  "name": "patchVersion",
                  "type": "uint256",
                  "internalType": "uint256"
                },
                {
                  "name": "url",
                  "type": "string",
                  "internalType": "string"
                },
                {
                  "name": "title",
                  "type": "string",
                  "internalType": "string"
                }
              ]
            },
            {
              "name": "configData",
              "type": "bytes",
              "internalType": "bytes"
            }
          ]
        },
        {
          "name": "authorizerConfig",
          "type": "tuple",
          "internalType": "struct IOrchestratorFactory_v1.ModuleConfig",
          "components": [
            {
              "name": "metadata",
              "type": "tuple",
              "internalType": "struct IModule_v1.Metadata",
              "components": [
                {
                  "name": "majorVersion",
                  "type": "uint256",
                  "internalType": "uint256"
                },
                {
                  "name": "minorVersion",
                  "type": "uint256",
                  "internalType": "uint256"
                },
                {
                  "name": "patchVersion",
                  "type": "uint256",
                  "internalType": "uint256"
                },
                {
                  "name": "url",
                  "type": "string",
                  "internalType": "string"
                },
                {
                  "name": "title",
                  "type": "string",
                  "internalType": "string"
                }
              ]
            },
            {
              "name": "configData",
              "type": "bytes",
              "internalType": "bytes"
            }
          ]
        },
        {
          "name": "paymentProcessorConfig",
          "type": "tuple",
          "internalType": "struct IOrchestratorFactory_v1.ModuleConfig",
          "components": [
            {
              "name": "metadata",
              "type": "tuple",
              "internalType": "struct IModule_v1.Metadata",
              "components": [
                {
                  "name": "majorVersion",
                  "type": "uint256",
                  "internalType": "uint256"
                },
                {
                  "name": "minorVersion",
                  "type": "uint256",
                  "internalType": "uint256"
                },
                {
                  "name": "patchVersion",
                  "type": "uint256",
                  "internalType": "uint256"
                },
                {
                  "name": "url",
                  "type": "string",
                  "internalType": "string"
                },
                {
                  "name": "title",
                  "type": "string",
                  "internalType": "string"
                }
              ]
            },
            {
              "name": "configData",
              "type": "bytes",
              "internalType": "bytes"
            }
          ]
        },
        {
          "name": "moduleConfigs",
          "type": "tuple[]",
          "internalType": "struct IOrchestratorFactory_v1.ModuleConfig[]",
          "components": [
            {
              "name": "metadata",
              "type": "tuple",
              "internalType": "struct IModule_v1.Metadata",
              "components": [
                {
                  "name": "majorVersion",
                  "type": "uint256",
                  "internalType": "uint256"
                },
                {
                  "name": "minorVersion",
                  "type": "uint256",
                  "internalType": "uint256"
                },
                {
                  "name": "patchVersion",
                  "type": "uint256",
                  "internalType": "uint256"
                },
                {
                  "name": "url",
                  "type": "string",
                  "internalType": "string"
                },
                {
                  "name": "title",
                  "type": "string",
                  "internalType": "string"
                }
              ]
            },
            {
              "name": "configData",
              "type": "bytes",
              "internalType": "bytes"
            }
          ]
        },
        {
          "name": "issuanceTokenParams",
          "type": "tuple",
          "internalType": "struct IBondingCurveBase_v1.IssuanceToken",
          "components": [
            {
              "name": "name",
              "type": "string",
              "internalType": "string"
            },
            {
              "name": "symbol",
              "type": "string",
              "internalType": "string"
            },
            {
              "name": "decimals",
              "type": "uint8",
              "internalType": "uint8"
            },
            {
              "name": "maxSupply",
              "type": "uint256",
              "internalType": "uint256"
            }
          ]
        },
        {
          "name": "initialPurchaseAmount",
          "type": "uint256",
          "internalType": "uint256"
        },
        {
          "name": "migrationConfig_",
          "type": "tuple",
          "internalType": "struct IMigrating_PIM_Factory_v1.MigrationConfig",
          "components": [
            {
              "name": "isImmutable",
              "type": "bool",
              "internalType": "bool"
            },
            {
              "name": "migrationThreshold",
              "type": "uint256",
              "internalType": "uint256"
            },
            {
              "name": "dexAdapter",
              "type": "address",
              "internalType": "address"
            },
            {
              "name": "lpTokenRecipient",
              "type": "address",
              "internalType": "address"
            },
            {
              "name": "initialRewardDuration",
              "type": "uint256",
              "internalType": "uint256"
            }
          ]
        }
      ],
      "outputs": [
        {
          "name": "",
          "type": "address",
          "internalType": "contract IOrchestrator_v1"
        }
      ],
      "stateMutability": "nonpayable"
    },
    {
      "type": "function",
      "name": "getIsGraduated",
      "inputs": [
        {
          "name": "fundingManager",
          "type": "address",
          "internalType": "address"
        }
      ],
      "outputs": [
        {
          "name": "",
          "type": "bool",
          "internalType": "bool"
        }
      ],
      "stateMutability": "view"
    },
    {
      "type": "function",
      "name": "getIsImmutable",
      "inputs": [
        {
          "name": "fundingManager",
          "type": "address",
          "internalType": "address"
        }
      ],
      "outputs": [
        {
          "name": "",
          "type": "bool",
          "internalType": "bool"
        }
      ],
      "stateMutability": "view"
    },
    {
      "type": "function",
      "name": "getLpTokenRecipient",
      "inputs": [
        {
          "name": "fundingManager",
          "type": "address",
          "internalType": "address"
        }
      ],
      "outputs": [
        {
          "name": "",
          "type": "address",
          "internalType": "address"
        }
      ],
      "stateMutability": "view"
    },
    {
      "type": "function",
      "name": "getMigrationThreshold",
      "inputs": [
        {
          "name": "fundingManager",
          "type": "address",
          "internalType": "address"
        }
      ],
      "outputs": [
        {
          "name": "",
          "type": "uint256",
          "internalType": "uint256"
        }
      ],
      "stateMutability": "view"
    },
    {
      "type": "function",
      "name": "isTrustedForwarder",
      "inputs": [
        {
          "name": "forwarder",
          "type": "address",
          "internalType": "address"
        }
      ],
      "outputs": [
        {
          "name": "",
          "type": "bool",
          "internalType": "bool"
        }
      ],
      "stateMutability": "view"
    },
    {
      "type": "function",
      "name": "orchestratorFactory",
      "inputs": [],
      "outputs": [
        {
          "name": "",
          "type": "address",
          "internalType": "address"
        }
      ],
      "stateMutability": "view"
    },
    {
      "type": "function",
      "name": "pims",
      "inputs": [
        {
          "name": "fundingManager",
          "type": "address",
          "internalType": "address"
        }
      ],
      "outputs": [
        {
          "name": "isGraduated",
          "type": "bool",
          "internalType": "bool"
        },
        {
          "name": "isImmutable",
          "type": "bool",
          "internalType": "bool"
        },
        {
          "name": "migrationThreshold",
          "type": "uint256",
          "internalType": "uint256"
        },
        {
          "name": "initiator",
          "type": "address",
          "internalType": "address"
        },
        {
          "name": "dexAdapter",
          "type": "address",
          "internalType": "address"
        },
        {
          "name": "lpTokenRecipient",
          "type": "address",
          "internalType": "address"
        },
        {
          "name": "orchestrator",
          "type": "address",
          "internalType": "contract IOrchestrator_v1"
        },
        {
          "name": "initialVirtualIssuanceSupply",
          "type": "uint256",
          "internalType": "uint256"
        },
        {
          "name": "initialVirtualCollateralSupply",
          "type": "uint256",
          "internalType": "uint256"
        },
        {
          "name": "initialRewardDuration",
          "type": "uint256",
          "internalType": "uint256"
        }
      ],
      "stateMutability": "view"
    },
    {
      "type": "function",
      "name": "sellTo",
      "inputs": [
        {
          "name": "fundingManager",
          "type": "address",
          "internalType": "address"
        },
        {
          "name": "recipient",
          "type": "address",
          "internalType": "address"
        },
        {
          "name": "amountIn",
          "type": "uint256",
          "internalType": "uint256"
        },
        {
          "name": "minAmountOut",
          "type": "uint256",
          "internalType": "uint256"
        }
      ],
      "outputs": [],
      "stateMutability": "nonpayable"
    },
    {
      "type": "function",
      "name": "trustedForwarder",
      "inputs": [],
      "outputs": [
        {
          "name": "",
          "type": "address",
          "internalType": "address"
        }
      ],
      "stateMutability": "view"
    },
    {
      "type": "event",
      "name": "Graduation",
      "inputs": [
        {
          "name": "orchestrator",
          "type": "address",
          "indexed": true,
          "internalType": "address"
        },
        {
          "name": "pool",
          "type": "address",
          "indexed": true,
          "internalType": "address"
        },
        {
          "name": "issuanceTokenAmount",
          "type": "uint256",
          "indexed": false,
          "internalType": "uint256"
        },
        {
          "name": "collateralTokenAmount",
          "type": "uint256",
          "indexed": false,
          "internalType": "uint256"
        },
        {
          "name": "stakingRewards",
          "type": "uint256",
          "indexed": false,
          "internalType": "uint256"
        }
      ],
      "anonymous": false
    },
    {
      "type": "event",
      "name": "PIMWorkflowCreated",
      "inputs": [
        {
          "name": "orchestrator",
          "type": "address",
          "indexed": true,
          "internalType": "address"
        },
        {
          "name": "issuanceToken",
          "type": "address",
          "indexed": true,
          "internalType": "address"
        },
        {
          "name": "deployer",
          "type": "address",
          "indexed": true,
          "internalType": "address"
        },
        {
          "name": "collateralToken",
          "type": "address",
          "indexed": false,
          "internalType": "address"
        },
        {
          "name": "initiator",
          "type": "address",
          "indexed": false,
          "internalType": "address"
        },
        {
          "name": "migrationConfig_",
          "type": "tuple",
          "indexed": false,
          "internalType": "struct IMigrating_PIM_Factory_v1.MigrationConfig",
          "components": [
            {
              "name": "isImmutable",
              "type": "bool",
              "internalType": "bool"
            },
            {
              "name": "migrationThreshold",
              "type": "uint256",
              "internalType": "uint256"
            },
            {
              "name": "dexAdapter",
              "type": "address",
              "internalType": "address"
            },
            {
              "name": "lpTokenRecipient",
              "type": "address",
              "internalType": "address"
            },
            {
              "name": "initialRewardDuration",
              "type": "uint256",
              "internalType": "uint256"
            }
          ]
        }
      ],
      "anonymous": false
    },
    {
      "type": "error",
      "name": "PIM_WorkflowFactory__OnlyInitiatorAfterGraduation",
      "inputs": []
    }
  ],
  "bytecode": {
    "object": "0x60a06040523480156200001157600080fd5b506040516200447f3803806200447f83398101604081905262000034916200007d565b6001600160a01b03908116608052600080546001600160a01b03191692909116919091179055620000b5565b80516001600160a01b03811681146200007857600080fd5b919050565b600080604083850312156200009157600080fd5b6200009c8362000060565b9150620000ac6020840162000060565b90509250929050565b6080516143a0620000df600039600081816102320152818161027b015261174701526143a06000f3fe60806040523480156200001157600080fd5b5060043610620000d95760003560e01c80637da0a877116200008b578063de78c7291162000062578063de78c72914620002f8578063f402c2bb146200032a578063f6819293146200035e57600080fd5b80637da0a8771462000279578063ce7c83dd14620002a0578063d835422214620002b957600080fd5b80632f36a25d11620000c05780632f36a25d14620001f2578063572b6c05146200021f5780635a02353b146200026257600080fd5b80631248c80314620000de5780631615f6571462000122575b600080fd5b6200010d620000ef366004620027a6565b6001600160a01b031660009081526001602052604090205460ff1690565b60405190151581526020015b60405180910390f35b6200019762000133366004620027a6565b600160208190526000918252604090912080549181015460028201546003830154600484015460058501546006860154600787015460089097015460ff808a1699610100900416976001600160a01b0396871696958616959485169490931692908a565b604080519a15158b5298151560208b0152978901969096526001600160a01b039485166060890152928416608088015290831660a087015290911660c085015260e08401526101008301526101208201526101400162000119565b60005462000206906001600160a01b031681565b6040516001600160a01b03909116815260200162000119565b6200010d62000230366004620027a6565b7f00000000000000000000000000000000000000000000000000000000000000006001600160a01b0390811691161490565b620002066200027336600462002c3c565b62000375565b7f000000000000000000000000000000000000000000000000000000000000000062000206565b620002b7620002b136600462002d50565b620007b2565b005b620002e9620002ca366004620027a6565b6001600160a01b03166000908152600160208190526040909120015490565b60405190815260200162000119565b6200020662000309366004620027a6565b6001600160a01b039081166000908152600160205260409020600401541690565b6200010d6200033b366004620027a6565b6001600160a01b0316600090815260016020526040902054610100900460ff1690565b620002b76200036f36600462002d50565b62000986565b6000808460000151856020015186604001518760600151306040516200039b9062002734565b620003ab95949392919062002de3565b604051809103906000f080158015620003c8573d6000803e3d6000fd5b5090506000806000620003e08d8d8d8d8d8962000ca5565b9250925092506000836001600160a01b03166304baed9e6040518163ffffffff1660e01b8152600401602060405180830381865afa15801562000427573d6000803e3d6000fd5b505050506040513d601f19601f820116820180604052508101906200044d919062002e36565b9050600087600001516200046657876060015162000468565b305b905060405180610140016040528060001515815260200189600001511515815260200189602001518152602001856001600160a01b0316815260200189604001516001600160a01b03168152602001826001600160a01b03168152602001866001600160a01b03168152602001836001600160a01b031663d1c6022f6040518163ffffffff1660e01b8152600401602060405180830381865afa15801562000514573d6000803e3d6000fd5b505050506040513d601f19601f820116820180604052508101906200053a919062002e56565b8152602001836001600160a01b031663bf75292b6040518163ffffffff1660e01b8152600401602060405180830381865afa1580156200057e573d6000803e3d6000fd5b505050506040513d601f19601f82011682018060405250810190620005a4919062002e56565b815260808a8101516020928301526001600160a01b0385811660008181526001808652604091829020875181549789015161ffff1990981690151561ff001916176101009715158802178155878301518183015560608801516002820180547fffffffffffffffffffffffff000000000000000000000000000000000000000090811692881692909217905595880151600382018054881691871691909117905560a08801516004808301805489169288169290921790915560c08901516005830180549098169087161790965560e0880151600682015595870151600787015561012090960151600890950194909455925163cf456ae760e01b815291820192909252602481019290925287169063cf456ae790604401600060405180830381600087803b158015620006d757600080fd5b505af1158015620006ec573d6000803e3d6000fd5b50505050620006fb8262000fc4565b6200070982848b87620015bc565b6200071362001740565b604080516001600160a01b0386811682528781166020808401919091528c511515838501528c0151606080840191909152928c01518116608080840191909152928c0151811660a0830152918b015160c082015291811691888216918816907feeb7ae1479b3048d1a408212efad2a332ba64e0b75f616357040d4c58fa9a1089060e00160405180910390a450929d9c50505050505050505050505050565b60008490506000816001600160a01b0316631ca3bc4f6040518163ffffffff1660e01b8152600401602060405180830381865afa158015620007f8573d6000803e3d6000fd5b505050506040513d601f19601f820116820180604052508101906200081e919062002e36565b6040516323b872dd60e01b8152336004820152306024820152604481018690529091506001600160a01b038216906323b872dd906064016020604051808303816000875af115801562000875573d6000803e3d6000fd5b505050506040513d601f19601f820116820180604052508101906200089b919062002e8f565b5060405163095ea7b360e01b81526001600160a01b0387811660048301526024820186905282169063095ea7b3906044016020604051808303816000875af1158015620008ec573d6000803e3d6000fd5b505050506040513d601f19601f8201168201806040525081019062000912919062002e8f565b506040516362d93eef60e11b81526001600160a01b038681166004830152602482018690526044820185905283169063c5b27dde90606401600060405180830381600087803b1580156200096557600080fd5b505af11580156200097a573d6000803e3d6000fd5b50505050505050505050565b6001600160a01b038085166000818152600160208181526040808420815161014081018352815460ff8082161515835261010091829004161515828601529482015481840152600282015488166060820152600382015488166080820152600480830154891660a0830152600583015490981660c0820152600682015460e0820152600782015494810194909452600801546101208401528051637e062a3560e11b8152905192958a959363fc0c546a93838301939092908290030181865afa15801562000a58573d6000803e3d6000fd5b505050506040513d601f19601f8201168201806040525081019062000a7e919062002e36565b905060008062000a8f8988620017bd565b9092509050801562000c9a576040516323b872dd60e01b8152336004820152306024820152604481018290526001600160a01b038416906323b872dd906064016020604051808303816000875af115801562000aef573d6000803e3d6000fd5b505050506040513d601f19601f8201168201806040525081019062000b15919062002e8f565b5060405163095ea7b360e01b81526001600160a01b038a811660048301526024820183905284169063095ea7b3906044016020604051808303816000875af115801562000b66573d6000803e3d6000fd5b505050506040513d601f19601f8201168201806040525081019062000b8c919062002e8f565b5060008762000b9c838962002ec5565b62000ba8919062002ee5565b60405163935b7dbd60e01b81526001600160a01b038b8116600483015260248201859052604482018390529192509086169063935b7dbd90606401600060405180830381600087803b15801562000bfe57600080fd5b505af115801562000c13573d6000803e3d6000fd5b5050505060408681015190516370a0823160e01b81526001600160a01b038c811660048301528616906370a0823190602401602060405180830381865afa15801562000c63573d6000803e3d6000fd5b505050506040513d601f19601f8201168201806040525081019062000c89919062002e56565b106200097a576200097a8a62001b4a565b505050505050505050565b600080600080876020015190508080602001905181019062000cc8919062002e36565b604080513060208201529194500160408051601f1981840301815291815260208a81018390528151610120810183526000808252918101829052918201819052606082018190526080820181905260a0820181905260c0820181905260e082018190526101008201529091506020808b01518051909162000d50918301810190830162002f1d565b606460608301819052608083015260405190965090935062000d7c915088908490879060200162003003565b6040516020818303038152906040529050808b6020018190525060008851600162000da89190620030b3565b67ffffffffffffffff81111562000dc35762000dc3620027cd565b60405190808252806020026020018201604052801562000e0057816020015b62000dec62002742565b81526020019060019003908162000de25790505b50905060005b895181101562000e565789818151811062000e255762000e25620030c9565b602002602001015182828151811062000e425762000e42620030c9565b602090810291909101015260010162000e06565b5060405180604001604052806040518060a001604052806001815260200160008152602001600081526020016040518060600160405280602c81526020016200433f602c91398152604080518082018252601081527f4c4d5f50435f5374616b696e675f7631000000000000000000000000000000006020828101919091529283015291835281516001600160a01b038d168183015292019101604051602081830303815290604052815250818a518151811062000f185762000f18620030c9565b602002602001018190525060008054906101000a90046001600160a01b03166001600160a01b031663ff2676998e8e8e8e866040518663ffffffff1660e01b815260040162000f6c95949392919062003162565b6020604051808303816000875af115801562000f8c573d6000803e3d6000fd5b505050506040513d601f19601f8201168201806040525081019062000fb2919062002e36565b96505050505096509650969350505050565b6001600160a01b038082166000818152600160208181526040808420815161014081018352815460ff8082161515835261010091829004161515828601529482015481840152600282015488166060820152600382015488166080820152600480830154891660a0830152600583015490981660c0820152600682015460e0820152600782015494810194909452600801546101208401528051631ca3bc4f60e01b815290519295879593631ca3bc4f93838301939092908290030181865afa15801562001096573d6000803e3d6000fd5b505050506040513d601f19601f82011682018060405250810190620010bc919062002e36565b9050826020015162001273578260c001516001600160a01b031663d09edf316040518163ffffffff1660e01b8152600401602060405180830381865afa1580156200110b573d6000803e3d6000fd5b505050506040513d601f19601f8201168201806040525081019062001131919062002e36565b6001600160a01b0316632f2ff15d8460c001516001600160a01b031663d09edf316040518163ffffffff1660e01b8152600401602060405180830381865afa15801562001182573d6000803e3d6000fd5b505050506040513d601f19601f82011682018060405250810190620011a8919062002e36565b6001600160a01b031663b3ecf2366040518163ffffffff1660e01b8152600401602060405180830381865afa158015620011e6573d6000803e3d6000fd5b505050506040513d601f19601f820116820180604052508101906200120c919062002e56565b60608601516040516001600160e01b031960e085901b16815260048101929092526001600160a01b03166024820152604401600060405180830381600087803b1580156200125957600080fd5b505af11580156200126e573d6000803e3d6000fd5b505050505b60405163cf456ae760e01b8152306004820152600160248201526001600160a01b0382169063cf456ae790604401600060405180830381600087803b158015620012bc57600080fd5b505af1158015620012d1573d6000803e3d6000fd5b50505050816001600160a01b0316636c67e807836001600160a01b0316637feb48a16040518163ffffffff1660e01b8152600401602060405180830381865afa15801562001323573d6000803e3d6000fd5b505050506040513d601f19601f8201168201806040525081019062001349919062002e56565b6040516001600160e01b031960e084901b1681526004810191909152306024820152604401600060405180830381600087803b1580156200138957600080fd5b505af11580156200139e573d6000803e3d6000fd5b5050505060008360c001516001600160a01b0316634cfa64876040518163ffffffff1660e01b8152600401600060405180830381865afa158015620013e7573d6000803e3d6000fd5b505050506040513d6000823e601f3d908101601f1916820160405262001411919081019062003224565b905060005b8151811015620015b457818181518110620014355762001435620030c9565b60200260200101516001600160a01b03166346ebcacf6040518163ffffffff1660e01b8152600401602060405180830381865afa92505050801562001499575060408051601f3d908101601f19168201909252620014969181019062002e56565b60015b15620015ab5750818181518110620014b557620014b5620030c9565b60200260200101516001600160a01b0316636c67e807838381518110620014e057620014e0620030c9565b60200260200101516001600160a01b03166346ebcacf6040518163ffffffff1660e01b8152600401602060405180830381865afa15801562001526573d6000803e3d6000fd5b505050506040513d601f19601f820116820180604052508101906200154c919062002e56565b6040516001600160e01b031960e084901b1681526004810191909152306024820152604401600060405180830381600087803b1580156200158c57600080fd5b505af1158015620015a1573d6000803e3d6000fd5b50505050620015b4565b60010162001416565b505050505050565b81156200173a57826001600160a01b03166323b872dd620015dc62001740565b6040516001600160e01b031960e084901b1681526001600160a01b039091166004820152306024820152604481018590526064016020604051808303816000875af115801562001630573d6000803e3d6000fd5b505050506040513d601f19601f8201168201806040525081019062001656919062002e8f565b5060405163095ea7b360e01b81526001600160a01b0385811660048301526024820184905284169063095ea7b3906044016020604051808303816000875af1158015620016a7573d6000803e3d6000fd5b505050506040513d601f19601f82011682018060405250810190620016cd919062002e8f565b5060405163935b7dbd60e01b81526001600160a01b038281166004830152602482018490526001604483015285169063935b7dbd90606401600060405180830381600087803b1580156200172057600080fd5b505af115801562001735573d6000803e3d6000fd5b505050505b50505050565b60003660147f00000000000000000000000000000000000000000000000000000000000000006001600160a01b0316331480156200177e5750808210155b15620017b557600036620017938385620032c9565b620017a0928290620032df565b620017ab916200330b565b60601c9250505090565b339250505090565b6001600160a01b038083166000908152600160208181526040808420815161014081018352815460ff8082161515835261010091829004161515828601529482015481840152600282015487166060820152600382015487166080820152600480830154881660a0830152600583015490971660c08201819052600683015460e0830152600783015495820195909552600890910154610120820152815163030d028960e21b8152915194958695919486949093630c340a24938184019390918290030181865afa15801562001897573d6000803e3d6000fd5b505050506040513d601f19601f82011682018060405250810190620018bd919062002e36565b6001600160a01b031663f2d638266040518163ffffffff1660e01b8152600401602060405180830381865afa158015620018fb573d6000803e3d6000fd5b505050506040513d601f19601f8201168201806040525081019062001921919062002e36565b905060008690506000816001600160a01b031663fc0c546a6040518163ffffffff1660e01b8152600401602060405180830381865afa15801562001969573d6000803e3d6000fd5b505050506040513d601f19601f820116820180604052508101906200198f919062002e36565b6040516370a0823160e01b81526001600160a01b038a811660048301529192506000918316906370a0823190602401602060405180830381865afa158015620019dc573d6000803e3d6000fd5b505050506040513d601f19601f8201168201806040525081019062001a02919062002e56565b90506000846001600160a01b0316631a3e87336040518163ffffffff1660e01b8152600401602060405180830381865afa15801562001a45573d6000803e3d6000fd5b505050506040513d601f19601f8201168201806040525081019062001a6b919062002e56565b9050600061271062001a7e838c62002ec5565b62001a8a919062002ee5565b9050600062001a9a828c620032c9565b9050600062001aaa8286620030b3565b9050886040015181111562001b32576000858a604001511162001acf57600062001ae1565b858a6040015162001ae19190620032c9565b905062001af185612710620032c9565b62001aff8261271062002ec5565b62001b0b919062002ee5565b9a508a8d1162001b1d57600062001b29565b62001b298b8e620032c9565b9b505062001b3a565b8b995060009a505b5050505050505050509250929050565b6001600160a01b038082166000818152600160208181526040808420815161014081018352815460ff8082161515835261010091829004161515828601529482015481840152600282015488166060820152600382015488166080820152600480830154891660a0830152600583015490981660c0820152600682015460e0820152600782015494810194909452600801546101208401528051637e062a3560e11b81529051929587959363fc0c546a93838301939092908290030181865afa15801562001c1c573d6000803e3d6000fd5b505050506040513d601f19601f8201168201806040525081019062001c42919062002e36565b90506000826001600160a01b0316631ca3bc4f6040518163ffffffff1660e01b8152600401602060405180830381865afa15801562001c85573d6000803e3d6000fd5b505050506040513d601f19601f8201168201806040525081019062001cab919062002e36565b905060008460c001516001600160a01b0316634cfa64876040518163ffffffff1660e01b8152600401600060405180830381865afa15801562001cf2573d6000803e3d6000fd5b505050506040513d6000823e601f3d908101601f1916820160405262001d1c919081019062003224565b6040516370a0823160e01b81526001600160a01b0388811660048301529192506000918516906370a0823190602401602060405180830381865afa15801562001d69573d6000803e3d6000fd5b505050506040513d601f19601f8201168201806040525081019062001d8f919062002e56565b905060008660e00151866001600160a01b031663d1c6022f6040518163ffffffff1660e01b8152600401602060405180830381865afa15801562001dd7573d6000803e3d6000fd5b505050506040513d601f19601f8201168201806040525081019062001dfd919062002e56565b62001e099190620032c9565b905060005b835181101562001fc75783818151811062001e2d5762001e2d620030c9565b60200260200101516001600160a01b03166346ebcacf6040518163ffffffff1660e01b8152600401602060405180830381865afa92505050801562001e91575060408051601f3d908101601f1916820190925262001e8e9181019062002e56565b60015b1562001fbe575083818151811062001ead5762001ead620030c9565b60200260200101516001600160a01b0316638028b82f8960800151888a6001600160a01b031663cbda8f826040518163ffffffff1660e01b8152600401602060405180830381865afa15801562001f08573d6000803e3d6000fd5b505050506040513d601f19601f8201168201806040525081019062001f2e919062002e56565b62001f3a9088620032c9565b6040516001600160e01b031960e086901b1681526001600160a01b03938416600482015292909116602483015260448201526000606482018190526084820181905260a482015260c401600060405180830381600087803b15801562001f9f57600080fd5b505af115801562001fb4573d6000803e3d6000fd5b5050505062001fc7565b60010162001e0e565b50856001600160a01b031663c6ab5cdc6040518163ffffffff1660e01b8152600401600060405180830381600087803b1580156200200457600080fd5b505af115801562002019573d6000803e3d6000fd5b50505050856001600160a01b031663ba83c9706040518163ffffffff1660e01b8152600401600060405180830381600087803b1580156200205957600080fd5b505af11580156200206e573d6000803e3d6000fd5b5050505060808701516040516340c10f1960e01b81526001600160a01b03918216600482015260248101839052908516906340c10f1990604401600060405180830381600087803b158015620020c357600080fd5b505af1158015620020d8573d6000803e3d6000fd5b505050608088015160a08901516040516332092e4f60e21b81526001600160a01b038981166004830152888116602483015291821660448201526000935091169063c824b93c906064016020604051808303816000875af115801562002142573d6000803e3d6000fd5b505050506040513d601f19601f8201168201806040525081019062002168919062002e36565b9050876020015115620021d057846001600160a01b031663715018a66040518163ffffffff1660e01b8152600401600060405180830381600087803b158015620021b157600080fd5b505af1158015620021c6573d6000803e3d6000fd5b5050505062002234565b606088015160405163f2fde38b60e01b81526001600160a01b0391821660048201529086169063f2fde38b90602401600060405180830381600087803b1580156200221a57600080fd5b505af11580156200222f573d6000803e3d6000fd5b505050505b8760200151620023e9578760c001516001600160a01b031663d09edf316040518163ffffffff1660e01b8152600401602060405180830381865afa15801562002281573d6000803e3d6000fd5b505050506040513d601f19601f82011682018060405250810190620022a7919062002e36565b6001600160a01b0316632f2ff15d8960c001516001600160a01b031663d09edf316040518163ffffffff1660e01b8152600401602060405180830381865afa158015620022f8573d6000803e3d6000fd5b505050506040513d601f19601f820116820180604052508101906200231e919062002e36565b6001600160a01b031663b3ecf2366040518163ffffffff1660e01b8152600401602060405180830381865afa1580156200235c573d6000803e3d6000fd5b505050506040513d601f19601f8201168201806040525081019062002382919062002e56565b60608b01516040516001600160e01b031960e085901b16815260048101929092526001600160a01b03166024820152604401600060405180830381600087803b158015620023cf57600080fd5b505af1158015620023e4573d6000803e3d6000fd5b505050505b600188600001901515908115158152505087600160008b6001600160a01b03166001600160a01b0316815260200190815260200160002060008201518160000160006101000a81548160ff02191690831515021790555060208201518160000160016101000a81548160ff0219169083151502179055506040820151816001015560608201518160020160006101000a8154816001600160a01b0302191690836001600160a01b0316021790555060808201518160030160006101000a8154816001600160a01b0302191690836001600160a01b0316021790555060a08201518160040160006101000a8154816001600160a01b0302191690836001600160a01b0316021790555060c08201518160050160006101000a8154816001600160a01b0302191690836001600160a01b0316021790555060e08201518160060155610100820151816007015561012082015181600801559050506000876001600160a01b031663cbda8f826040518163ffffffff1660e01b8152600401602060405180830381865afa15801562002582573d6000803e3d6000fd5b505050506040513d601f19601f82011682018060405250810190620025a8919062002e56565b905060005b8551811015620026d357858181518110620025cc57620025cc620030c9565b60200260200101516001600160a01b0316637b0a47ee6040518163ffffffff1660e01b8152600401602060405180830381865afa92505050801562002630575060408051601f3d908101601f191682019092526200262d9181019062002e56565b60015b15620026ca57508581815181106200264c576200264c620030c9565b60200260200101516001600160a01b031663654e51e7838c61012001516040518363ffffffff1660e01b815260040162002690929190918252602082015260400190565b600060405180830381600087803b158015620026ab57600080fd5b505af1158015620026c0573d6000803e3d6000fd5b50505050620026d3565b600101620025ad565b5060c089015160408051858152602081018790529081018390526001600160a01b038085169216907f87ece6ae87f63ef38f596f64744e430b4ff9f0ef3c45a93b5e82ae668cbf21819060600160405180910390a350505050505050505050565b610ffd806200334283390190565b6040518060400160405280620027806040518060a0016040528060008152602001600081526020016000815260200160608152602001606081525090565b8152602001606081525090565b6001600160a01b0381168114620027a357600080fd5b50565b600060208284031215620027b957600080fd5b8135620027c6816200278d565b9392505050565b634e487b7160e01b600052604160045260246000fd5b6040805190810167ffffffffffffffff81118282101715620028095762002809620027cd565b60405290565b60405160a0810167ffffffffffffffff81118282101715620028095762002809620027cd565b604051610120810167ffffffffffffffff81118282101715620028095762002809620027cd565b604051601f8201601f1916810167ffffffffffffffff81118282101715620028885762002888620027cd565b604052919050565b8015158114620027a357600080fd5b600060408284031215620028b257600080fd5b620028bc620027e3565b90508135620028cb8162002890565b81526020820135620028dd816200278d565b602082015292915050565b600082601f830112620028fa57600080fd5b813567ffffffffffffffff811115620029175762002917620027cd565b6200292c601f8201601f19166020016200285c565b8181528460208386010111156200294257600080fd5b816020850160208301376000918101602001919091529392505050565b6000604082840312156200297257600080fd5b6200297c620027e3565b9050813567ffffffffffffffff808211156200299757600080fd5b9083019060a08286031215620029ac57600080fd5b620029b66200280f565b823581526020830135602082015260408301356040820152606083013582811115620029e157600080fd5b620029ef87828601620028e8565b60608301525060808301358281111562002a0857600080fd5b62002a1687828601620028e8565b6080830152508352602084013591508082111562002a3357600080fd5b5062002a4284828501620028e8565b60208301525092915050565b600067ffffffffffffffff82111562002a6b5762002a6b620027cd565b5060051b60200190565b600082601f83011262002a8757600080fd5b8135602062002aa062002a9a8362002a4e565b6200285c565b82815260059290921b8401810191818101908684111562002ac057600080fd5b8286015b8481101562002b0557803567ffffffffffffffff81111562002ae65760008081fd5b62002af68986838b01016200295f565b84525091830191830162002ac4565b509695505050505050565b60006080828403121562002b2357600080fd5b6040516080810167ffffffffffffffff828210818311171562002b4a5762002b4a620027cd565b81604052829350843591508082111562002b6357600080fd5b62002b7186838701620028e8565b8352602085013591508082111562002b8857600080fd5b5062002b9785828601620028e8565b602083015250604083013560ff8116811462002bb257600080fd5b6040820152606092830135920191909152919050565b600060a0828403121562002bdb57600080fd5b62002be56200280f565b9050813562002bf48162002890565b815260208281013590820152604082013562002c10816200278d565b6040820152606082013562002c25816200278d565b806060830152506080820135608082015292915050565b6000806000806000806000806101a0898b03121562002c5a57600080fd5b62002c668a8a6200289f565b9750604089013567ffffffffffffffff8082111562002c8457600080fd5b62002c928c838d016200295f565b985060608b013591508082111562002ca957600080fd5b62002cb78c838d016200295f565b975060808b013591508082111562002cce57600080fd5b62002cdc8c838d016200295f565b965060a08b013591508082111562002cf357600080fd5b62002d018c838d0162002a75565b955060c08b013591508082111562002d1857600080fd5b5062002d278b828c0162002b10565b93505060e0890135915062002d418a6101008b0162002bc8565b90509295985092959890939650565b6000806000806080858703121562002d6757600080fd5b843562002d74816200278d565b9350602085013562002d86816200278d565b93969395505050506040820135916060013590565b6000815180845260005b8181101562002dc35760208185018101518683018201520162002da5565b506000602082860101526020601f19601f83011685010191505092915050565b60a08152600062002df860a083018862002d9b565b828103602084015262002e0c818862002d9b565b60ff969096166040840152505060608101929092526001600160a01b031660809091015292915050565b60006020828403121562002e4957600080fd5b8151620027c6816200278d565b60006020828403121562002e6957600080fd5b5051919050565b805162002e7d816200278d565b919050565b805162002e7d8162002890565b60006020828403121562002ea257600080fd5b8151620027c68162002890565b634e487b7160e01b600052601160045260246000fd5b808202811582820484141762002edf5762002edf62002eaf565b92915050565b60008262002f0357634e487b7160e01b600052601260045260246000fd5b500490565b805163ffffffff8116811462002e7d57600080fd5b600080600083850361016081121562002f3557600080fd5b845162002f42816200278d565b9350610120601f19820181131562002f5957600080fd5b62002f6362002835565b915062002f736020870162002e70565b825262002f836040870162002f08565b602083015262002f966060870162002f08565b60408301526080860151606083015260a0860151608083015262002fbd60c0870162002e82565b60a083015262002fd060e0870162002e82565b60c08301526101008681015160e08401529086015190820152915062002ffa610140850162002e70565b90509250925092565b6000610160820190506001600160a01b0380861683528085511660208401525063ffffffff602085015116604083015260408401516200304b606084018263ffffffff169052565b5060608401516080830152608084015160a083015260a08401516200307460c084018215159052565b5060c084015180151560e08401525060e0840151610100838101919091528401516101208301526001600160a01b038316610140830152949350505050565b8082018082111562002edf5762002edf62002eaf565b634e487b7160e01b600052603260045260246000fd5b6000815160408452805160408501526020810151606085015260408101516080850152606081015160a0808601526200311c60e086018262002d9b565b905060808201519150603f198582030160c08601526200313d818362002d9b565b9150506020830151848203602086015262003159828262002d9b565b95945050505050565b855115158152600060206001600160a01b0381890151168184015260c060408401526200319360c0840188620030df565b8381036060850152620031a78188620030df565b90508381036080850152620031bd8187620030df565b905083810360a08501528085518083528383019150838160051b84010184880160005b838110156200321257601f19868403018552620031ff838351620030df565b94870194925090860190600101620031e0565b50909c9b505050505050505050505050565b600060208083850312156200323857600080fd5b825167ffffffffffffffff8111156200325057600080fd5b8301601f810185136200326257600080fd5b80516200327362002a9a8262002a4e565b81815260059190911b820183019083810190878311156200329357600080fd5b928401925b82841015620032be578351620032ae816200278d565b8252928401929084019062003298565b979650505050505050565b8181038181111562002edf5762002edf62002eaf565b60008085851115620032f057600080fd5b83861115620032fe57600080fd5b5050820193919092039150565b6bffffffffffffffffffffffff198135818116916014851015620033395780818660140360031b1b83161692505b50509291505056fe60c06040523480156200001157600080fd5b5060405162000ffd38038062000ffd833981016040819052620000349162000254565b80828686600362000046838262000395565b50600462000055828262000395565b50505080600003620000825760405163392e1e2760e01b8152600060048201526024015b60405180910390fd5b6080526001600160a01b038116620000b157604051631e4fbdf760e01b81526000600482015260240162000079565b620000bc81620000db565b50620000ca8160016200012d565b505060ff1660a05250620004619050565b600580546001600160a01b038381166001600160a01b0319831681179093556040519116919082907f8be0079c531659141344cd1fd0a4f28419497f9722a3daafe3b4186f6b6457e090600090a35050565b6001600160a01b038216600081815260066020908152604091829020805460ff191685151590811790915591519182527f583b0aa0e528532caf4b907c11d7a8158a122fe2a6fb80cd9b09776ebea8d92d910160405180910390a25050565b634e487b7160e01b600052604160045260246000fd5b600082601f830112620001b457600080fd5b81516001600160401b0380821115620001d157620001d16200018c565b604051601f8301601f19908116603f01168101908282118183101715620001fc57620001fc6200018c565b81604052838152602092508660208588010111156200021a57600080fd5b600091505b838210156200023e57858201830151818301840152908201906200021f565b6000602085830101528094505050505092915050565b600080600080600060a086880312156200026d57600080fd5b85516001600160401b03808211156200028557600080fd5b6200029389838a01620001a2565b96506020880151915080821115620002aa57600080fd5b50620002b988828901620001a2565b945050604086015160ff81168114620002d157600080fd5b6060870151608088015191945092506001600160a01b0381168114620002f657600080fd5b809150509295509295909350565b600181811c908216806200031957607f821691505b6020821081036200033a57634e487b7160e01b600052602260045260246000fd5b50919050565b601f82111562000390576000816000526020600020601f850160051c810160208610156200036b5750805b601f850160051c820191505b818110156200038c5782815560010162000377565b5050505b505050565b81516001600160401b03811115620003b157620003b16200018c565b620003c981620003c2845462000304565b8462000340565b602080601f831160018114620004015760008415620003e85750858301515b600019600386901b1c1916600185901b1785556200038c565b600085815260208120601f198616915b82811015620004325788860151825594840194600190910190840162000411565b5085821015620004515787850151600019600388901b60f8161c191681555b5050505050600190811b01905550565b60805160a051610b6f6200048e600039600061018d0152600081816101b901526108000152610b6f6000f3fe608060405234801561001057600080fd5b506004361061011b5760003560e01c806370a08231116100b25780639dc29fac11610081578063cf456ae711610066578063cf456ae71461028f578063dd62ed3e146102a2578063f2fde38b146102db57600080fd5b80639dc29fac14610269578063a9059cbb1461027c57600080fd5b806370a0823114610215578063715018a61461023e5780638da5cb5b1461024657806395d89b411461026157600080fd5b8063313ce567116100ee578063313ce56714610186578063355274ea146101b757806340c10f19146101dd578063423afa66146101f257600080fd5b806306fdde0314610120578063095ea7b31461013e57806318160ddd1461016157806323b872dd14610173575b600080fd5b6101286102ee565b604051610135919061097c565b60405180910390f35b61015161014c3660046109e7565b610380565b6040519015158152602001610135565b6002545b604051908152602001610135565b610151610181366004610a11565b61039a565b60405160ff7f0000000000000000000000000000000000000000000000000000000000000000168152602001610135565b7f0000000000000000000000000000000000000000000000000000000000000000610165565b6101f06101eb3660046109e7565b6103be565b005b610151610200366004610a4d565b60066020526000908152604090205460ff1681565b610165610223366004610a4d565b6001600160a01b031660009081526020819052604090205490565b6101f06103fc565b6005546040516001600160a01b039091168152602001610135565b610128610410565b6101f06102773660046109e7565b61041f565b61015161028a3660046109e7565b610459565b6101f061029d366004610a6f565b610467565b6101656102b0366004610aab565b6001600160a01b03918216600090815260016020908152604080832093909416825291909152205490565b6101f06102e9366004610a4d565b610479565b6060600380546102fd90610ade565b80601f016020809104026020016040519081016040528092919081815260200182805461032990610ade565b80156103765780601f1061034b57610100808354040283529160200191610376565b820191906000526020600020905b81548152906001019060200180831161035957829003601f168201915b5050505050905090565b60003361038e8185856104bc565b60019150505b92915050565b6000336103a88582856104ce565b6103b385858561054c565b506001949350505050565b3360009081526006602052604090205460ff166103ee57604051634199e25360e11b815260040160405180910390fd5b6103f882826105ab565b5050565b6104046105e1565b61040e600061060e565b565b6060600480546102fd90610ade565b3360009081526006602052604090205460ff1661044f57604051634199e25360e11b815260040160405180910390fd5b6103f88282610678565b60003361038e81858561054c565b61046f6105e1565b6103f882826106ae565b6104816105e1565b6001600160a01b0381166104b057604051631e4fbdf760e01b8152600060048201526024015b60405180910390fd5b6104b98161060e565b50565b6104c9838383600161070d565b505050565b6001600160a01b038381166000908152600160209081526040808320938616835292905220546000198114610546578181101561053757604051637dc7a0d960e11b81526001600160a01b038416600482015260248101829052604481018390526064016104a7565b6105468484848403600061070d565b50505050565b6001600160a01b03831661057657604051634b637e8f60e11b8152600060048201526024016104a7565b6001600160a01b0382166105a05760405163ec442f0560e01b8152600060048201526024016104a7565b6104c98383836107e2565b6001600160a01b0382166105d55760405163ec442f0560e01b8152600060048201526024016104a7565b6103f8600083836107e2565b6005546001600160a01b0316331461040e5760405163118cdaa760e01b81523360048201526024016104a7565b600580546001600160a01b038381167fffffffffffffffffffffffff0000000000000000000000000000000000000000831681179093556040519116919082907f8be0079c531659141344cd1fd0a4f28419497f9722a3daafe3b4186f6b6457e090600090a35050565b6001600160a01b0382166106a257604051634b637e8f60e11b8152600060048201526024016104a7565b6103f8826000836107e2565b6001600160a01b038216600081815260066020908152604091829020805460ff191685151590811790915591519182527f583b0aa0e528532caf4b907c11d7a8158a122fe2a6fb80cd9b09776ebea8d92d910160405180910390a25050565b6001600160a01b0384166107375760405163e602df0560e01b8152600060048201526024016104a7565b6001600160a01b03831661076157604051634a1406b160e11b8152600060048201526024016104a7565b6001600160a01b038085166000908152600160209081526040808320938716835292905220829055801561054657826001600160a01b0316846001600160a01b03167f8c5be1e5ebec7d5bd14f71427d1e84f3dd0314c0f7b2291e5b200ac8c7c3b925846040516107d491815260200190565b60405180910390a350505050565b6107ed838383610852565b6001600160a01b0383166104c9576002547f0000000000000000000000000000000000000000000000000000000000000000908181111561084b5760405163279e7e1560e21b815260048101829052602481018390526044016104a7565b5050505050565b6001600160a01b03831661087d5780600260008282546108729190610b18565b909155506108ef9050565b6001600160a01b038316600090815260208190526040902054818110156108d05760405163391434e360e21b81526001600160a01b038516600482015260248101829052604481018390526064016104a7565b6001600160a01b03841660009081526020819052604090209082900390555b6001600160a01b03821661090b5760028054829003905561092a565b6001600160a01b03821660009081526020819052604090208054820190555b816001600160a01b0316836001600160a01b03167fddf252ad1be2c89b69c2b068fc378daa952ba7f163c4a11628f55a4df523b3ef8360405161096f91815260200190565b60405180910390a3505050565b60006020808352835180602085015260005b818110156109aa5785810183015185820160400152820161098e565b506000604082860101526040601f19601f8301168501019250505092915050565b80356001600160a01b03811681146109e257600080fd5b919050565b600080604083850312156109fa57600080fd5b610a03836109cb565b946020939093013593505050565b600080600060608486031215610a2657600080fd5b610a2f846109cb565b9250610a3d602085016109cb565b9150604084013590509250925092565b600060208284031215610a5f57600080fd5b610a68826109cb565b9392505050565b60008060408385031215610a8257600080fd5b610a8b836109cb565b915060208301358015158114610aa057600080fd5b809150509250929050565b60008060408385031215610abe57600080fd5b610ac7836109cb565b9150610ad5602084016109cb565b90509250929050565b600181811c90821680610af257607f821691505b602082108103610b1257634e487b7160e01b600052602260045260246000fd5b50919050565b8082018082111561039457634e487b7160e01b600052601160045260246000fdfea26469706673582212200d68669bd9d7a7cf36532e94088db26b3e972e6649ce1d5bd2b0e1bd50d1234764736f6c6343000817003368747470733a2f2f6769746875622e636f6d2f496e7665727465724e6574776f726b2f636f6e747261637473a26469706673582212207c0b196d10396046fa17f5a7caec3f2948e666a21367dd2aa4adae91c66a52c264736f6c63430008170033",
    "linkReferences": {}
  },
  "methodIdentifiers": {
    "buyFor(address,address,uint256,uint256)": "f6819293",
    "createPIMWorkflow((bool,address),((uint256,uint256,uint256,string,string),bytes),((uint256,uint256,uint256,string,string),bytes),((uint256,uint256,uint256,string,string),bytes),((uint256,uint256,uint256,string,string),bytes)[],(string,string,uint8,uint256),uint256,(bool,uint256,address,address,uint256))": "5a02353b",
    "getIsGraduated(address)": "1248c803",
    "getIsImmutable(address)": "f402c2bb",
    "getLpTokenRecipient(address)": "de78c729",
    "getMigrationThreshold(address)": "d8354222",
    "isTrustedForwarder(address)": "572b6c05",
    "orchestratorFactory()": "2f36a25d",
    "pims(address)": "1615f657",
    "sellTo(address,address,uint256,uint256)": "ce7c83dd",
    "trustedForwarder()": "7da0a877"
  },
  "id": 78
}