{
  "abi": [
    {
      "type": "constructor",
      "inputs": [
        {
          "name": "_orchestratorFactory",
          "type": "address",
          "internalType": "address"
        },
        {
          "name": "_trustedForwarder",
          "type": "address",
          "internalType": "address"
        },
        {
          "name": "_admin",
          "type": "address",
          "internalType": "address"
        }
      ],
      "stateMutability": "nonpayable"
    },
    {
      "type": "function",
      "name": "admin",
      "inputs": [],
      "outputs": [
        {
          "name": "",
          "type": "address",
          "internalType": "address"
        }
      ],
      "stateMutability": "view"
    },
    {
      "type": "function",
      "name": "buyFor",
      "inputs": [
        {
          "name": "fundingManager",
          "type": "address",
          "internalType": "address"
        },
        {
          "name": "recipient",
          "type": "address",
          "internalType": "address"
        },
        {
          "name": "amountIn",
          "type": "uint256",
          "internalType": "uint256"
        },
        {
          "name": "minAmountOut",
          "type": "uint256",
          "internalType": "uint256"
        }
      ],
      "outputs": [],
      "stateMutability": "nonpayable"
    },
    {
      "type": "function",
      "name": "collateralFeeMultiplier",
      "inputs": [],
      "outputs": [
        {
          "name": "",
          "type": "uint256",
          "internalType": "uint256"
        }
      ],
      "stateMutability": "view"
    },
    {
      "type": "function",
      "name": "createPIMWorkflow",
      "inputs": [
        {
          "name": "workflowConfig",
          "type": "tuple",
          "internalType": "struct IOrchestratorFactory_v1.WorkflowConfig",
          "components": [
            {
              "name": "independentUpdates",
              "type": "bool",
              "internalType": "bool"
            },
            {
              "name": "independentUpdateAdmin",
              "type": "address",
              "internalType": "address"
            }
          ]
        },
        {
          "name": "fundingManagerConfig",
          "type": "tuple",
          "internalType": "struct IOrchestratorFactory_v1.ModuleConfig",
          "components": [
            {
              "name": "metadata",
              "type": "tuple",
              "internalType": "struct IModule_v1.Metadata",
              "components": [
                {
                  "name": "majorVersion",
                  "type": "uint256",
                  "internalType": "uint256"
                },
                {
                  "name": "minorVersion",
                  "type": "uint256",
                  "internalType": "uint256"
                },
                {
                  "name": "patchVersion",
                  "type": "uint256",
                  "internalType": "uint256"
                },
                {
                  "name": "url",
                  "type": "string",
                  "internalType": "string"
                },
                {
                  "name": "title",
                  "type": "string",
                  "internalType": "string"
                }
              ]
            },
            {
              "name": "configData",
              "type": "bytes",
              "internalType": "bytes"
            }
          ]
        },
        {
          "name": "authorizerConfig",
          "type": "tuple",
          "internalType": "struct IOrchestratorFactory_v1.ModuleConfig",
          "components": [
            {
              "name": "metadata",
              "type": "tuple",
              "internalType": "struct IModule_v1.Metadata",
              "components": [
                {
                  "name": "majorVersion",
                  "type": "uint256",
                  "internalType": "uint256"
                },
                {
                  "name": "minorVersion",
                  "type": "uint256",
                  "internalType": "uint256"
                },
                {
                  "name": "patchVersion",
                  "type": "uint256",
                  "internalType": "uint256"
                },
                {
                  "name": "url",
                  "type": "string",
                  "internalType": "string"
                },
                {
                  "name": "title",
                  "type": "string",
                  "internalType": "string"
                }
              ]
            },
            {
              "name": "configData",
              "type": "bytes",
              "internalType": "bytes"
            }
          ]
        },
        {
          "name": "paymentProcessorConfig",
          "type": "tuple",
          "internalType": "struct IOrchestratorFactory_v1.ModuleConfig",
          "components": [
            {
              "name": "metadata",
              "type": "tuple",
              "internalType": "struct IModule_v1.Metadata",
              "components": [
                {
                  "name": "majorVersion",
                  "type": "uint256",
                  "internalType": "uint256"
                },
                {
                  "name": "minorVersion",
                  "type": "uint256",
                  "internalType": "uint256"
                },
                {
                  "name": "patchVersion",
                  "type": "uint256",
                  "internalType": "uint256"
                },
                {
                  "name": "url",
                  "type": "string",
                  "internalType": "string"
                },
                {
                  "name": "title",
                  "type": "string",
                  "internalType": "string"
                }
              ]
            },
            {
              "name": "configData",
              "type": "bytes",
              "internalType": "bytes"
            }
          ]
        },
        {
          "name": "moduleConfigs",
          "type": "tuple[]",
          "internalType": "struct IOrchestratorFactory_v1.ModuleConfig[]",
          "components": [
            {
              "name": "metadata",
              "type": "tuple",
              "internalType": "struct IModule_v1.Metadata",
              "components": [
                {
                  "name": "majorVersion",
                  "type": "uint256",
                  "internalType": "uint256"
                },
                {
                  "name": "minorVersion",
                  "type": "uint256",
                  "internalType": "uint256"
                },
                {
                  "name": "patchVersion",
                  "type": "uint256",
                  "internalType": "uint256"
                },
                {
                  "name": "url",
                  "type": "string",
                  "internalType": "string"
                },
                {
                  "name": "title",
                  "type": "string",
                  "internalType": "string"
                }
              ]
            },
            {
              "name": "configData",
              "type": "bytes",
              "internalType": "bytes"
            }
          ]
        },
        {
          "name": "issuanceTokenParams",
          "type": "tuple",
          "internalType": "struct IBondingCurveBase_v1.IssuanceToken",
          "components": [
            {
              "name": "name",
              "type": "string",
              "internalType": "string"
            },
            {
              "name": "symbol",
              "type": "string",
              "internalType": "string"
            },
            {
              "name": "decimals",
              "type": "uint8",
              "internalType": "uint8"
            },
            {
              "name": "maxSupply",
              "type": "uint256",
              "internalType": "uint256"
            }
          ]
        },
        {
          "name": "initialPurchaseAmount",
          "type": "uint256",
          "internalType": "uint256"
        },
        {
          "name": "migrationConfig_",
          "type": "tuple",
          "internalType": "struct IMigrating_PIM_Factory_v1.MigrationConfig",
          "components": [
            {
              "name": "isImmutable",
              "type": "bool",
              "internalType": "bool"
            },
            {
              "name": "migrationThreshold",
              "type": "uint256",
              "internalType": "uint256"
            },
            {
              "name": "dexAdapter",
              "type": "address",
              "internalType": "address"
            },
            {
              "name": "lpTokenRecipient",
              "type": "address",
              "internalType": "address"
            }
          ]
        }
      ],
      "outputs": [
        {
          "name": "",
          "type": "address",
          "internalType": "contract IOrchestrator_v1"
        }
      ],
      "stateMutability": "nonpayable"
    },
    {
      "type": "function",
      "name": "fundingManagers",
      "inputs": [
        {
          "name": "",
          "type": "uint256",
          "internalType": "uint256"
        }
      ],
      "outputs": [
        {
          "name": "",
          "type": "address",
          "internalType": "address"
        }
      ],
      "stateMutability": "view"
    },
    {
      "type": "function",
      "name": "getIsGraduated",
      "inputs": [
        {
          "name": "fundingManager",
          "type": "address",
          "internalType": "address"
        }
      ],
      "outputs": [
        {
          "name": "",
          "type": "bool",
          "internalType": "bool"
        }
      ],
      "stateMutability": "view"
    },
    {
      "type": "function",
      "name": "getIsImmutable",
      "inputs": [
        {
          "name": "fundingManager",
          "type": "address",
          "internalType": "address"
        }
      ],
      "outputs": [
        {
          "name": "",
          "type": "bool",
          "internalType": "bool"
        }
      ],
      "stateMutability": "view"
    },
    {
      "type": "function",
      "name": "getLpTokenRecipient",
      "inputs": [
        {
          "name": "fundingManager",
          "type": "address",
          "internalType": "address"
        }
      ],
      "outputs": [
        {
          "name": "",
          "type": "address",
          "internalType": "address"
        }
      ],
      "stateMutability": "view"
    },
    {
      "type": "function",
      "name": "getMigrationThreshold",
      "inputs": [
        {
          "name": "fundingManager",
          "type": "address",
          "internalType": "address"
        }
      ],
      "outputs": [
        {
          "name": "",
          "type": "uint256",
          "internalType": "uint256"
        }
      ],
      "stateMutability": "view"
    },
    {
      "type": "function",
      "name": "isTrustedForwarder",
      "inputs": [
        {
          "name": "forwarder",
          "type": "address",
          "internalType": "address"
        }
      ],
      "outputs": [
        {
          "name": "",
          "type": "bool",
          "internalType": "bool"
        }
      ],
      "stateMutability": "view"
    },
    {
      "type": "function",
      "name": "issuanceFeeMultiplier",
      "inputs": [],
      "outputs": [
        {
          "name": "",
          "type": "uint256",
          "internalType": "uint256"
        }
      ],
      "stateMutability": "view"
    },
    {
      "type": "function",
      "name": "issuanceLiquidityDivisor",
      "inputs": [],
      "outputs": [
        {
          "name": "",
          "type": "uint256",
          "internalType": "uint256"
        }
      ],
      "stateMutability": "view"
    },
    {
      "type": "function",
      "name": "mainFundingManager",
      "inputs": [],
      "outputs": [
        {
          "name": "",
          "type": "address",
          "internalType": "address"
        }
      ],
      "stateMutability": "view"
    },
    {
      "type": "function",
      "name": "orchestratorFactory",
      "inputs": [],
      "outputs": [
        {
          "name": "",
          "type": "address",
          "internalType": "address"
        }
      ],
      "stateMutability": "view"
    },
    {
      "type": "function",
      "name": "pims",
      "inputs": [
        {
          "name": "fundingManager",
          "type": "address",
          "internalType": "address"
        }
      ],
      "outputs": [
        {
          "name": "isGraduated",
          "type": "bool",
          "internalType": "bool"
        },
        {
          "name": "isImmutable",
          "type": "bool",
          "internalType": "bool"
        },
        {
          "name": "migrationThreshold",
          "type": "uint256",
          "internalType": "uint256"
        },
        {
          "name": "initiator",
          "type": "address",
          "internalType": "address"
        },
        {
          "name": "dexAdapter",
          "type": "address",
          "internalType": "address"
        },
        {
          "name": "lpTokenRecipient",
          "type": "address",
          "internalType": "address"
        },
        {
          "name": "orchestrator",
          "type": "address",
          "internalType": "contract IOrchestrator_v1"
        },
        {
          "name": "initialVirtualIssuanceSupply",
          "type": "uint256",
          "internalType": "uint256"
        },
        {
          "name": "initialVirtualCollateralSupply",
          "type": "uint256",
          "internalType": "uint256"
        },
        {
          "name": "stakingModule",
          "type": "address",
          "internalType": "address"
        },
        {
          "name": "paymentRouter",
          "type": "address",
          "internalType": "address"
        }
      ],
      "stateMutability": "view"
    },
    {
      "type": "function",
      "name": "sellTo",
      "inputs": [
        {
          "name": "fundingManager",
          "type": "address",
          "internalType": "address"
        },
        {
          "name": "recipient",
          "type": "address",
          "internalType": "address"
        },
        {
          "name": "amountIn",
          "type": "uint256",
          "internalType": "uint256"
        },
        {
          "name": "minAmountOut",
          "type": "uint256",
          "internalType": "uint256"
        }
      ],
      "outputs": [],
      "stateMutability": "nonpayable"
    },
    {
      "type": "function",
      "name": "setAdmin",
      "inputs": [
        {
          "name": "_admin",
          "type": "address",
          "internalType": "address"
        }
      ],
      "outputs": [],
      "stateMutability": "nonpayable"
    },
    {
      "type": "function",
      "name": "setCollateralFeeMultiplier",
      "inputs": [
        {
          "name": "_collateralFeeMultiplier",
          "type": "uint256",
          "internalType": "uint256"
        }
      ],
      "outputs": [],
      "stateMutability": "nonpayable"
    },
    {
      "type": "function",
      "name": "setIssuanceFeeMultiplier",
      "inputs": [
        {
          "name": "_issuanceFeeMultiplier",
          "type": "uint256",
          "internalType": "uint256"
        }
      ],
      "outputs": [],
      "stateMutability": "nonpayable"
    },
    {
      "type": "function",
      "name": "setIssuanceLiquidityDivisor",
      "inputs": [
        {
          "name": "_issuanceLiquidityDivisor",
          "type": "uint256",
          "internalType": "uint256"
        }
      ],
      "outputs": [],
      "stateMutability": "nonpayable"
    },
    {
      "type": "function",
      "name": "setMainFundingManager",
      "inputs": [
        {
          "name": "_mainFundingManager",
          "type": "address",
          "internalType": "address"
        }
      ],
      "outputs": [],
      "stateMutability": "nonpayable"
    },
    {
      "type": "function",
      "name": "trustedForwarder",
      "inputs": [],
      "outputs": [
        {
          "name": "",
          "type": "address",
          "internalType": "address"
        }
      ],
      "stateMutability": "view"
    },
    {
      "type": "function",
      "name": "withdrawAllProjectCollateralFeesToStaking",
      "inputs": [],
      "outputs": [],
      "stateMutability": "nonpayable"
    },
    {
      "type": "event",
      "name": "FundingManagerRegistered",
      "inputs": [
        {
          "name": "fundingManager",
          "type": "address",
          "indexed": true,
          "internalType": "address"
        }
      ],
      "anonymous": false
    },
    {
      "type": "event",
      "name": "Graduation",
      "inputs": [
        {
          "name": "orchestrator",
          "type": "address",
          "indexed": true,
          "internalType": "address"
        },
        {
          "name": "pool",
          "type": "address",
          "indexed": true,
          "internalType": "address"
        },
        {
          "name": "issuanceTokenAmount",
          "type": "uint256",
          "indexed": false,
          "internalType": "uint256"
        },
        {
          "name": "collateralTokenAmount",
          "type": "uint256",
          "indexed": false,
          "internalType": "uint256"
        }
      ],
      "anonymous": false
    },
    {
      "type": "event",
      "name": "PIMWorkflowCreated",
      "inputs": [
        {
          "name": "orchestrator",
          "type": "address",
          "indexed": true,
          "internalType": "address"
        },
        {
          "name": "issuanceToken",
          "type": "address",
          "indexed": true,
          "internalType": "address"
        },
        {
          "name": "deployer",
          "type": "address",
          "indexed": true,
          "internalType": "address"
        },
        {
          "name": "collateralToken",
          "type": "address",
          "indexed": false,
          "internalType": "address"
        },
        {
          "name": "initiator",
          "type": "address",
          "indexed": false,
          "internalType": "address"
        },
        {
          "name": "migrationConfig_",
          "type": "tuple",
          "indexed": false,
          "internalType": "struct IMigrating_PIM_Factory_v1.MigrationConfig",
          "components": [
            {
              "name": "isImmutable",
              "type": "bool",
              "internalType": "bool"
            },
            {
              "name": "migrationThreshold",
              "type": "uint256",
              "internalType": "uint256"
            },
            {
              "name": "dexAdapter",
              "type": "address",
              "internalType": "address"
            },
            {
              "name": "lpTokenRecipient",
              "type": "address",
              "internalType": "address"
            }
          ]
        }
      ],
      "anonymous": false
    },
    {
      "type": "error",
      "name": "PIM_WorkflowFactory__CantBeZeroAddress",
      "inputs": []
    },
    {
      "type": "error",
      "name": "PIM_WorkflowFactory__InitialPurchaseGraduatesMarket",
      "inputs": []
    },
    {
      "type": "error",
      "name": "PIM_WorkflowFactory__OnlyAdmin",
      "inputs": []
    },
    {
      "type": "error",
      "name": "PIM_WorkflowFactory__OnlyInitiatorAfterGraduation",
      "inputs": []
    }
  ],
  "bytecode": {
    "object": "0x60a0604052600e600355600060045560006005553480156200002057600080fd5b5060405162004a8838038062004a88833981016040819052620000439162000099565b6001600160a01b03918216608052600080546001600160a01b0319908116948416949094179055600180549093169116179055620000e3565b80516001600160a01b03811681146200009457600080fd5b919050565b600080600060608486031215620000af57600080fd5b620000ba846200007c565b9250620000ca602085016200007c565b9150620000da604085016200007c565b90509250925092565b60805161497b6200010d60003960008181610382015281816104030152611f13015261497b6000f3fe60806040523480156200001157600080fd5b5060043610620001ad5760003560e01c8063704b6c0211620000f5578063ce7c83dd1162000097578063f402c2bb116200006e578063f402c2bb14620004d8578063f6819293146200050c578063f851a440146200052357600080fd5b8063ce7c83dd1462000460578063d83542221462000477578063de78c72914620004a657600080fd5b80638016515111620000cc578063801651511462000428578063a38bc66d146200043f578063c5c1f584146200044957600080fd5b8063704b6c0214620003d35780637b542b7114620003ea5780637da0a877146200040157600080fd5b80631cfcc51c116200015f578063572b6c051162000136578063572b6c05146200036f5780635eecade614620003b25780636daf301a14620003bc57600080fd5b80631cfcc51c146200032d5780632f36a25d14620003445780633cd27545146200035857600080fd5b80630f25247e11620001945780630f25247e14620001ef5780631248c80314620002085780631615f657146200024857600080fd5b806303828e7e14620001b257806309bc630014620001e3575b600080fd5b600254620001c6906001600160a01b031681565b6040516001600160a01b0390911681526020015b60405180910390f35b620001ed62000537565b005b620001f960055481565b604051908152602001620001da565b620002376200021936600462002d67565b6001600160a01b031660009081526006602052604090205460ff1690565b6040519015158152602001620001da565b620002c96200025936600462002d67565b6006602081905260009182526040909120805460018201546002830154600384015460048501546005860154968601546007870154600888015460099098015460ff8089169a610100909904169896976001600160a01b039687169795871696948516959085169490811691168b565b604080519b15158c5299151560208c0152988a01979097526001600160a01b0395861660608a0152938516608089015291841660a0880152831660c087015260e08601526101008501529081166101208401521661014082015261016001620001da565b620001ed6200033e36600462002d8e565b6200058c565b600054620001c6906001600160a01b031681565b620001ed6200036936600462002d67565b620005bd565b620002376200038036600462002d67565b7f00000000000000000000000000000000000000000000000000000000000000006001600160a01b0390811691161490565b620001f960045481565b620001c6620003cd36600462003217565b62000640565b620001ed620003e436600462002d67565b62000821565b620001c6620003fb36600462002d8e565b620008a4565b7f0000000000000000000000000000000000000000000000000000000000000000620001c6565b620001ed6200043936600462002d8e565b620008cf565b620001f960035481565b620001ed6200045a36600462002d8e565b62000900565b620001ed620004713660046200332b565b62000931565b620001f96200048836600462002d67565b6001600160a01b031660009081526006602052604090206001015490565b620001c6620004b736600462002d67565b6001600160a01b039081166000908152600660205260409020600401541690565b62000237620004e936600462002d67565b6001600160a01b0316600090815260066020526040902054610100900460ff1690565b620001ed6200051d3660046200332b565b62000b05565b600154620001c6906001600160a01b031681565b60005b60075481101562000589576000600782815481106200055d576200055d62003376565b6000918252602090912001546001600160a01b031690506200057f8162000e2e565b506001016200053a565b50565b6001546001600160a01b03163314620005b85760405163d27a836960e01b815260040160405180910390fd5b600555565b6001546001600160a01b03163314620005e95760405163d27a836960e01b815260040160405180910390fd5b6001600160a01b0381166200061157604051638b22004360e01b815260040160405180910390fd5b6002805473ffffffffffffffffffffffffffffffffffffffff19166001600160a01b0392909216919091179055565b6000806200064e8562000f70565b905060008060006200066a8d8d8d8d8d898c6000015162000fc9565b9250925092506000836001600160a01b03166304baed9e6040518163ffffffff1660e01b8152600401602060405180830381865afa158015620006b1573d6000803e3d6000fd5b505050506040513d601f19601f82011682018060405250810190620006d791906200338c565b905060008760000151620006f0578760600151620006f2565b305b9050620007038286868b856200139e565b60405163cf456ae760e01b81526001600160a01b0383811660048301526001602483015287169063cf456ae790604401600060405180830381600087803b1580156200074e57600080fd5b505af115801562000763573d6000803e3d6000fd5b505050506200077282620018da565b6200078582848b878c6020015162001d94565b6200078f62001f0c565b604080516001600160a01b0386811682528781166020808401919091528c511515838501528c0151606080840191909152928c015181166080830152918b0151821660a082015291811691888216918816907ff3a31cb79568cc2c523dcd7467e718e402436fc2e2aecd9cb74fea01f99224b19060c00160405180910390a450929d9c50505050505050505050505050565b6001546001600160a01b031633146200084d5760405163d27a836960e01b815260040160405180910390fd5b6001600160a01b0381166200087557604051638b22004360e01b815260040160405180910390fd5b6001805473ffffffffffffffffffffffffffffffffffffffff19166001600160a01b0392909216919091179055565b60078181548110620008b557600080fd5b6000918252602090912001546001600160a01b0316905081565b6001546001600160a01b03163314620008fb5760405163d27a836960e01b815260040160405180910390fd5b600455565b6001546001600160a01b031633146200092c5760405163d27a836960e01b815260040160405180910390fd5b600355565b60008490506000816001600160a01b0316631ca3bc4f6040518163ffffffff1660e01b8152600401602060405180830381865afa15801562000977573d6000803e3d6000fd5b505050506040513d601f19601f820116820180604052508101906200099d91906200338c565b6040516323b872dd60e01b8152336004820152306024820152604481018690529091506001600160a01b038216906323b872dd906064016020604051808303816000875af1158015620009f4573d6000803e3d6000fd5b505050506040513d601f19601f8201168201806040525081019062000a1a9190620033cb565b5060405163095ea7b360e01b81526001600160a01b0387811660048301526024820186905282169063095ea7b3906044016020604051808303816000875af115801562000a6b573d6000803e3d6000fd5b505050506040513d601f19601f8201168201806040525081019062000a919190620033cb565b506040516362d93eef60e11b81526001600160a01b038681166004830152602482018690526044820185905283169063c5b27dde90606401600060405180830381600087803b15801562000ae457600080fd5b505af115801562000af9573d6000803e3d6000fd5b50505050505050505050565b6001600160a01b038085166000818152600660208181526040808420815161016081018352815460ff8082161515835261010091829004161515828601526001830154828501526002830154891660608301526003830154891660808301526004808401548a1660a084015260058401548a1660c08401529583015460e0830152600783015490820152600882015488166101208201526009909101549096166101408701528051637e062a3560e11b815290518a959363fc0c546a9383820193909291908290030181865afa15801562000be4573d6000803e3d6000fd5b505050506040513d601f19601f8201168201806040525081019062000c0a91906200338c565b9050600062000c1a888762001f89565b9050801562000e24576040516323b872dd60e01b8152336004820152306024820152604481018290526001600160a01b038316906323b872dd906064016020604051808303816000875af115801562000c77573d6000803e3d6000fd5b505050506040513d601f19601f8201168201806040525081019062000c9d9190620033cb565b5060405163095ea7b360e01b81526001600160a01b0389811660048301526024820183905283169063095ea7b3906044016020604051808303816000875af115801562000cee573d6000803e3d6000fd5b505050506040513d601f19601f8201168201806040525081019062000d149190620033cb565b5060008662000d24838862003401565b62000d30919062003421565b60405163935b7dbd60e01b81526001600160a01b038a8116600483015260248201859052604482018390529192509085169063935b7dbd90606401600060405180830381600087803b15801562000d8657600080fd5b505af115801562000d9b573d6000803e3d6000fd5b5050505060408581015190516370a0823160e01b81526001600160a01b038b811660048301528516906370a0823190602401602060405180830381865afa15801562000deb573d6000803e3d6000fd5b505050506040513d601f19601f8201168201806040525081019062000e11919062003444565b1062000e225762000e22896200234b565b505b5050505050505050565b6002546001600160a01b031662000e425750565b6001600160a01b03811660009081526006602052604090205460ff161562000e675750565b60008190506000816001600160a01b031663cbda8f826040518163ffffffff1660e01b8152600401602060405180830381865afa15801562000ead573d6000803e3d6000fd5b505050506040513d601f19601f8201168201806040525081019062000ed3919062003444565b90508060000362000ee357505050565b6002546001600160a01b03908116600090815260066020526040902060080154168062000f105750505050565b6040516327c49ddd60e11b81526001600160a01b03828116600483015260248201849052841690634f893bba90604401600060405180830381600087803b15801562000f5b57600080fd5b505af115801562000e24573d6000803e3d6000fd5b600081600001518260200151836040015184606001513060405162000f959062002cf8565b62000fa5959493929190620034a6565b604051809103906000f08015801562000fc2573d6000803e3d6000fd5b5092915050565b600080600080886020015190508080602001905181019062000fec91906200338c565b604080513060208201529194500160408051601f1981840301815291815260208b8101929092528051610120810182526000808252928101839052908101829052606081018290526080810182905260a0810182905260c0810182905260e081018290526101008101919091526020808c0151805190916200107591830181019083016200350e565b604051909650909350620010939150899084908790602001620035f4565b60408051601f1981840301815291905260208d0152600087620010c5578951620010bf906001620036a4565b620010c8565b89515b67ffffffffffffffff811115620010e357620010e362002da8565b6040519080825280602002602001820160405280156200112057816020015b6200110c62002d06565b815260200190600190039081620011025790505b50905060005b8a5181101562001176578a818151811062001145576200114562003376565b602002602001015182828151811062001162576200116262003376565b602090810291909101015260010162001126565b50876200124a5760405180604001604052806040518060a001604052806001815260200160008152602001600081526020016040518060600160405280602c81526020016200491a602c91398152604080518082018252601081527f4c4d5f50435f5374616b696e675f7631000000000000000000000000000000006020828101919091529283015291835281516001600160a01b038e168183015292019101604051602081830303815290604052815250818b51815181106200123e576200123e62003376565b60200260200101819052505b60008054906101000a90046001600160a01b03166001600160a01b031663ff2676998f8f8f8f866040518663ffffffff1660e01b8152600401620012939594939291906200373d565b6020604051808303816000875af1158015620012b3573d6000803e3d6000fd5b505050506040513d601f19601f82011682018060405250810190620012d991906200338c565b6002549097506001600160a01b0316158015620012f4575087155b156200138d57866001600160a01b03166304baed9e6040518163ffffffff1660e01b8152600401602060405180830381865afa15801562001339573d6000803e3d6000fd5b505050506040513d601f19601f820116820180604052508101906200135f91906200338c565b6002805473ffffffffffffffffffffffffffffffffffffffff19166001600160a01b03929092169190911790555b505050509750975097945050505050565b60008590506000856001600160a01b0316634cfa64876040518163ffffffff1660e01b8152600401600060405180830381865afa158015620013e4573d6000803e3d6000fd5b505050506040513d6000823e601f3d908101601f191682016040526200140e9190810190620037ff565b90506000805b8251811015620014cc5782818151811062001433576200143362003376565b60200260200101516001600160a01b03166346ebcacf6040518163ffffffff1660e01b8152600401602060405180830381865afa92505050801562001497575060408051601f3d908101601f19168201909252620014949181019062003444565b60015b15620014c35750828181518110620014b357620014b362003376565b60200260200101519150620014cc565b60010162001414565b508451600090620015945760005b83518110156200159257838181518110620014f957620014f962003376565b60200260200101516001600160a01b0316637b0a47ee6040518163ffffffff1660e01b8152600401602060405180830381865afa9250505080156200155d575060408051601f3d908101601f191682019092526200155a9181019062003444565b60015b1562001589575083818151811062001579576200157962003376565b6020026020010151915062001592565b600101620014da565b505b60405180610160016040528060001515815260200187600001511515815260200187602001518152602001886001600160a01b0316815260200187604001516001600160a01b03168152602001866001600160a01b03168152602001896001600160a01b03168152602001856001600160a01b031663d1c6022f6040518163ffffffff1660e01b8152600401602060405180830381865afa1580156200163e573d6000803e3d6000fd5b505050506040513d601f19601f8201168201806040525081019062001664919062003444565b8152602001856001600160a01b031663bf75292b6040518163ffffffff1660e01b8152600401602060405180830381865afa158015620016a8573d6000803e3d6000fd5b505050506040513d601f19601f82011682018060405250810190620016ce919062003444565b8152602001826001600160a01b03168152602001836001600160a01b0316815250600660008b6001600160a01b03166001600160a01b0316815260200190815260200160002060008201518160000160006101000a81548160ff02191690831515021790555060208201518160000160016101000a81548160ff0219169083151502179055506040820151816001015560608201518160020160006101000a8154816001600160a01b0302191690836001600160a01b0316021790555060808201518160030160006101000a8154816001600160a01b0302191690836001600160a01b0316021790555060a08201518160040160006101000a8154816001600160a01b0302191690836001600160a01b0316021790555060c08201518160050160006101000a8154816001600160a01b0302191690836001600160a01b0316021790555060e0820151816006015561010082015181600701556101208201518160080160006101000a8154816001600160a01b0302191690836001600160a01b031602179055506101408201518160090160006101000a8154816001600160a01b0302191690836001600160a01b031602179055509050506007899080600181540180825580915050600190039060005260206000200160009091909190916101000a8154816001600160a01b0302191690836001600160a01b03160217905550505050505050505050565b6001600160a01b038082166000818152600660208181526040808420815161016081018352815460ff8082161515835261010091829004161515828601526001830154828501526002830154891660608301526003830154891660808301526004808401548a1660a084015260058401548a1660c08401529583015460e08301526007830154908201526008820154881661012082015260099091015490961661014087018190528151631ca3bc4f60e01b8152915190958895949093631ca3bc4f93808301939192908290030181865afa158015620019be573d6000803e3d6000fd5b505050506040513d601f19601f82011682018060405250810190620019e491906200338c565b9050836020015162001b9b578360c001516001600160a01b031663d09edf316040518163ffffffff1660e01b8152600401602060405180830381865afa15801562001a33573d6000803e3d6000fd5b505050506040513d601f19601f8201168201806040525081019062001a5991906200338c565b6001600160a01b0316632f2ff15d8560c001516001600160a01b031663d09edf316040518163ffffffff1660e01b8152600401602060405180830381865afa15801562001aaa573d6000803e3d6000fd5b505050506040513d601f19601f8201168201806040525081019062001ad091906200338c565b6001600160a01b031663b3ecf2366040518163ffffffff1660e01b8152600401602060405180830381865afa15801562001b0e573d6000803e3d6000fd5b505050506040513d601f19601f8201168201806040525081019062001b34919062003444565b60608701516040516001600160e01b031960e085901b16815260048101929092526001600160a01b03166024820152604401600060405180830381600087803b15801562001b8157600080fd5b505af115801562001b96573d6000803e3d6000fd5b505050505b60405163cf456ae760e01b8152306004820152600160248201526001600160a01b0382169063cf456ae790604401600060405180830381600087803b15801562001be457600080fd5b505af115801562001bf9573d6000803e3d6000fd5b50505050816001600160a01b0316636c67e807836001600160a01b0316637feb48a16040518163ffffffff1660e01b8152600401602060405180830381865afa15801562001c4b573d6000803e3d6000fd5b505050506040513d601f19601f8201168201806040525081019062001c71919062003444565b6040516001600160e01b031960e084901b1681526004810191909152306024820152604401600060405180830381600087803b15801562001cb157600080fd5b505af115801562001cc6573d6000803e3d6000fd5b50505050826001600160a01b0316636c67e807846001600160a01b03166346ebcacf6040518163ffffffff1660e01b8152600401602060405180830381865afa15801562001d18573d6000803e3d6000fd5b505050506040513d601f19601f8201168201806040525081019062001d3e919062003444565b6040516001600160e01b031960e084901b16815260048101919091523060248201526044015b600060405180830381600087803b15801562001d7f57600080fd5b505af115801562000e22573d6000803e3d6000fd5b8083111562001db65760405163262cabc360e21b815260040160405180910390fd5b821562001f0557836001600160a01b03166323b872dd62001dd662001f0c565b6040516001600160e01b031960e084901b1681526001600160a01b039091166004820152306024820152604481018690526064016020604051808303816000875af115801562001e2a573d6000803e3d6000fd5b505050506040513d601f19601f8201168201806040525081019062001e509190620033cb565b5060405163095ea7b360e01b81526001600160a01b0386811660048301526024820185905285169063095ea7b3906044016020604051808303816000875af115801562001ea1573d6000803e3d6000fd5b505050506040513d601f19601f8201168201806040525081019062001ec79190620033cb565b5060405163935b7dbd60e01b81526001600160a01b038381166004830152602482018590526001604483015286169063935b7dbd9060640162001d64565b5050505050565b60003660147f00000000000000000000000000000000000000000000000000000000000000006001600160a01b03163314801562001f4a5750808210155b1562001f815760003662001f5f8385620038a4565b62001f6c928290620038ba565b62001f7791620038e6565b60601c9250505090565b339250505090565b6001600160a01b038083166000908152600660208181526040808420815161016081018352815460ff808216151583526101009182900416151582860152600183015482850152600283015488166060830152600383015488166080830152600480840154891660a08401526005840154891660c084018190529684015460e084015260078401549183019190915260088301548816610120830152600990920154909616610140870152815163030d028960e21b81529151949594869493630c340a249380840193919291908290030181865afa15801562002070573d6000803e3d6000fd5b505050506040513d601f19601f820116820180604052508101906200209691906200338c565b6001600160a01b031663f2d638266040518163ffffffff1660e01b8152600401602060405180830381865afa158015620020d4573d6000803e3d6000fd5b505050506040513d601f19601f82011682018060405250810190620020fa91906200338c565b905060008590506000816001600160a01b031663fc0c546a6040518163ffffffff1660e01b8152600401602060405180830381865afa15801562002142573d6000803e3d6000fd5b505050506040513d601f19601f820116820180604052508101906200216891906200338c565b6040516370a0823160e01b81526001600160a01b0389811660048301529192506000918316906370a0823190602401602060405180830381865afa158015620021b5573d6000803e3d6000fd5b505050506040513d601f19601f82011682018060405250810190620021db919062003444565b90506000846001600160a01b0316631a3e87336040518163ffffffff1660e01b8152600401602060405180830381865afa1580156200221e573d6000803e3d6000fd5b505050506040513d601f19601f8201168201806040525081019062002244919062003444565b90506000846001600160a01b031663470624026040518163ffffffff1660e01b8152600401602060405180830381865afa15801562002287573d6000803e3d6000fd5b505050506040513d601f19601f82011682018060405250810190620022ad919062003444565b90506000620022bd8284620036a4565b90506000612710620022d0838d62003401565b620022dc919062003421565b90506000620022ec828d620038a4565b90506000620022fc8288620036a4565b90508a60400151811115620023365760008b60400151826200231f9190620038a4565b90506200232d818f620038a4565b9c50506200233a565b8c9b505b505050505050505050505092915050565b6001600160a01b038082166000818152600660208181526040808420815161016081018352815460ff8082161515835261010091829004161515828601526001830154828501526002830154891660608301526003830154891660808301526004808401548a1660a084015260058401548a1660c08401529583015460e08301526007830154908201526008820154881661012082015260099091015490961661014087018190528151637e062a3560e11b815291519095889594909363fc0c546a93808301939192908290030181865afa1580156200242f573d6000803e3d6000fd5b505050506040513d601f19601f820116820180604052508101906200245591906200338c565b90506000826001600160a01b0316631ca3bc4f6040518163ffffffff1660e01b8152600401602060405180830381865afa15801562002498573d6000803e3d6000fd5b505050506040513d601f19601f82011682018060405250810190620024be91906200338c565b90506000836001600160a01b031663cbda8f826040518163ffffffff1660e01b8152600401602060405180830381865afa15801562002501573d6000803e3d6000fd5b505050506040513d601f19601f8201168201806040525081019062002527919062003444565b6040516370a0823160e01b81526001600160a01b0389811660048301528516906370a0823190602401602060405180830381865afa1580156200256e573d6000803e3d6000fd5b505050506040513d601f19601f8201168201806040525081019062002594919062003444565b620025a09190620038a4565b9050600061271060045483620025b7919062003401565b620025c3919062003421565b604051638028b82f60e01b81523060048201526001600160a01b038681166024830152604482018590526000606483018190526084830181905260a483015291925090871690638028b82f9060c401600060405180830381600087803b1580156200262d57600080fd5b505af115801562002642573d6000803e3d6000fd5b505050508082620026549190620038a4565b608088015160405163a9059cbb60e01b81526001600160a01b0391821660048201526024810183905291935085169063a9059cbb906044016020604051808303816000875af1158015620026ac573d6000803e3d6000fd5b505050506040513d601f19601f82011682018060405250810190620026d29190620033cb565b5060015460405163a9059cbb60e01b81526001600160a01b039182166004820152602481018390529085169063a9059cbb906044016020604051808303816000875af115801562002727573d6000803e3d6000fd5b505050506040513d601f19601f820116820180604052508101906200274d9190620033cb565b50620027598862000e2e565b60006003548860e00151876001600160a01b031663d1c6022f6040518163ffffffff1660e01b8152600401602060405180830381865afa158015620027a2573d6000803e3d6000fd5b505050506040513d601f19601f82011682018060405250810190620027c8919062003444565b620027d49190620038a4565b620027e0919062003421565b9050600061271060055483620027f7919062003401565b62002803919062003421565b9050620028118183620038a4565b60808a01516040516340c10f1960e01b81526001600160a01b039182166004820152602481018390529193508616906340c10f1990604401600060405180830381600087803b1580156200286457600080fd5b505af115801562002879573d6000803e3d6000fd5b50506001546040516340c10f1960e01b81526001600160a01b0391821660048201526024810185905290881692506340c10f199150604401600060405180830381600087803b158015620028cc57600080fd5b505af1158015620028e1573d6000803e3d6000fd5b50505050866001600160a01b031663c6ab5cdc6040518163ffffffff1660e01b8152600401600060405180830381600087803b1580156200292157600080fd5b505af115801562002936573d6000803e3d6000fd5b50505050866001600160a01b031663ba83c9706040518163ffffffff1660e01b8152600401600060405180830381600087803b1580156200297657600080fd5b505af11580156200298b573d6000803e3d6000fd5b50505060808a015160a08b01516040516332092e4f60e21b81526001600160a01b038a81166004830152898116602483015291821660448201526000935091169063c824b93c906064016020604051808303816000875af1158015620029f5573d6000803e3d6000fd5b505050506040513d601f19601f8201168201806040525081019062002a1b91906200338c565b905089602001511562002a8357856001600160a01b031663715018a66040518163ffffffff1660e01b8152600401600060405180830381600087803b15801562002a6457600080fd5b505af115801562002a79573d6000803e3d6000fd5b5050505062002ae7565b60608a015160405163f2fde38b60e01b81526001600160a01b0391821660048201529087169063f2fde38b90602401600060405180830381600087803b15801562002acd57600080fd5b505af115801562002ae2573d6000803e3d6000fd5b505050505b60018a600001901515908115158152505089600660008d6001600160a01b03166001600160a01b0316815260200190815260200160002060008201518160000160006101000a81548160ff02191690831515021790555060208201518160000160016101000a81548160ff0219169083151502179055506040820151816001015560608201518160020160006101000a8154816001600160a01b0302191690836001600160a01b0316021790555060808201518160030160006101000a8154816001600160a01b0302191690836001600160a01b0316021790555060a08201518160040160006101000a8154816001600160a01b0302191690836001600160a01b0316021790555060c08201518160050160006101000a8154816001600160a01b0302191690836001600160a01b0316021790555060e0820151816006015561010082015181600701556101208201518160080160006101000a8154816001600160a01b0302191690836001600160a01b031602179055506101408201518160090160006101000a8154816001600160a01b0302191690836001600160a01b03160217905550905050806001600160a01b03168a60c001516001600160a01b03167feddae9d2e53c54be02851320408790594a59dcb6ff5ab585cd8e04cd7c5373e9858860405162002ce3929190918252602082015260400190565b60405180910390a35050505050505050505050565b610ffd806200391d83390190565b604051806040016040528062002d446040518060a0016040528060008152602001600081526020016000815260200160608152602001606081525090565b8152602001606081525090565b6001600160a01b03811681146200058957600080fd5b60006020828403121562002d7a57600080fd5b813562002d878162002d51565b9392505050565b60006020828403121562002da157600080fd5b5035919050565b634e487b7160e01b600052604160045260246000fd5b6040805190810167ffffffffffffffff8111828210171562002de45762002de462002da8565b60405290565b60405160a0810167ffffffffffffffff8111828210171562002de45762002de462002da8565b6040516080810167ffffffffffffffff8111828210171562002de45762002de462002da8565b604051610120810167ffffffffffffffff8111828210171562002de45762002de462002da8565b604051601f8201601f1916810167ffffffffffffffff8111828210171562002e895762002e8962002da8565b604052919050565b80151581146200058957600080fd5b60006040828403121562002eb357600080fd5b62002ebd62002dbe565b9050813562002ecc8162002e91565b8152602082013562002ede8162002d51565b602082015292915050565b600082601f83011262002efb57600080fd5b813567ffffffffffffffff81111562002f185762002f1862002da8565b62002f2d601f8201601f191660200162002e5d565b81815284602083860101111562002f4357600080fd5b816020850160208301376000918101602001919091529392505050565b60006040828403121562002f7357600080fd5b62002f7d62002dbe565b9050813567ffffffffffffffff8082111562002f9857600080fd5b9083019060a0828603121562002fad57600080fd5b62002fb762002dea565b82358152602083013560208201526040830135604082015260608301358281111562002fe257600080fd5b62002ff08782860162002ee9565b6060830152506080830135828111156200300957600080fd5b620030178782860162002ee9565b608083015250835260208401359150808211156200303457600080fd5b50620030438482850162002ee9565b60208301525092915050565b600067ffffffffffffffff8211156200306c576200306c62002da8565b5060051b60200190565b600082601f8301126200308857600080fd5b81356020620030a16200309b836200304f565b62002e5d565b82815260059290921b84018101918181019086841115620030c157600080fd5b8286015b848110156200310657803567ffffffffffffffff811115620030e75760008081fd5b620030f78986838b010162002f60565b845250918301918301620030c5565b509695505050505050565b6000608082840312156200312457600080fd5b6200312e62002e10565b9050813567ffffffffffffffff808211156200314957600080fd5b620031578583860162002ee9565b835260208401359150808211156200316e57600080fd5b506200317d8482850162002ee9565b602083015250604082013560ff811681146200319857600080fd5b806040830152506060820135606082015292915050565b600060808284031215620031c257600080fd5b620031cc62002e10565b90508135620031db8162002e91565b8152602082810135908201526040820135620031f78162002d51565b604082015260608201356200320c8162002d51565b606082015292915050565b600080600080600080600080610180898b0312156200323557600080fd5b620032418a8a62002ea0565b9750604089013567ffffffffffffffff808211156200325f57600080fd5b6200326d8c838d0162002f60565b985060608b01359150808211156200328457600080fd5b620032928c838d0162002f60565b975060808b0135915080821115620032a957600080fd5b620032b78c838d0162002f60565b965060a08b0135915080821115620032ce57600080fd5b620032dc8c838d0162003076565b955060c08b0135915080821115620032f357600080fd5b50620033028b828c0162003111565b93505060e089013591506200331c8a6101008b01620031af565b90509295985092959890939650565b600080600080608085870312156200334257600080fd5b84356200334f8162002d51565b93506020850135620033618162002d51565b93969395505050506040820135916060013590565b634e487b7160e01b600052603260045260246000fd5b6000602082840312156200339f57600080fd5b815162002d878162002d51565b8051620033b98162002d51565b919050565b8051620033b98162002e91565b600060208284031215620033de57600080fd5b815162002d878162002e91565b634e487b7160e01b600052601160045260246000fd5b80820281158282048414176200341b576200341b620033eb565b92915050565b6000826200343f57634e487b7160e01b600052601260045260246000fd5b500490565b6000602082840312156200345757600080fd5b5051919050565b6000815180845260005b81811015620034865760208185018101518683018201520162003468565b506000602082860101526020601f19601f83011685010191505092915050565b60a081526000620034bb60a08301886200345e565b8281036020840152620034cf81886200345e565b60ff969096166040840152505060608101929092526001600160a01b031660809091015292915050565b805163ffffffff81168114620033b957600080fd5b60008060008385036101608112156200352657600080fd5b8451620035338162002d51565b9350610120601f1982018113156200354a57600080fd5b6200355462002e36565b91506200356460208701620033ac565b82526200357460408701620034f9565b60208301526200358760608701620034f9565b60408301526080860151606083015260a08601516080830152620035ae60c08701620033be565b60a0830152620035c160e08701620033be565b60c08301526101008681015160e084015290860151908201529150620035eb6101408501620033ac565b90509250925092565b6000610160820190506001600160a01b0380861683528085511660208401525063ffffffff602085015116604083015260408401516200363c606084018263ffffffff169052565b5060608401516080830152608084015160a083015260a08401516200366560c084018215159052565b5060c084015180151560e08401525060e0840151610100838101919091528401516101208301526001600160a01b038316610140830152949350505050565b808201808211156200341b576200341b620033eb565b6000815160408452805160408501526020810151606085015260408101516080850152606081015160a080860152620036f760e08601826200345e565b905060808201519150603f198582030160c08601526200371881836200345e565b915050602083015184820360208601526200373482826200345e565b95945050505050565b855115158152600060206001600160a01b0381890151168184015260c060408401526200376e60c0840188620036ba565b8381036060850152620037828188620036ba565b90508381036080850152620037988187620036ba565b905083810360a08501528085518083528383019150838160051b84010184880160005b83811015620037ed57601f19868403018552620037da838351620036ba565b94870194925090860190600101620037bb565b50909c9b505050505050505050505050565b600060208083850312156200381357600080fd5b825167ffffffffffffffff8111156200382b57600080fd5b8301601f810185136200383d57600080fd5b80516200384e6200309b826200304f565b81815260059190911b820183019083810190878311156200386e57600080fd5b928401925b8284101562003899578351620038898162002d51565b8252928401929084019062003873565b979650505050505050565b818103818111156200341b576200341b620033eb565b60008085851115620038cb57600080fd5b83861115620038d957600080fd5b5050820193919092039150565b6bffffffffffffffffffffffff198135818116916014851015620039145780818660140360031b1b83161692505b50509291505056fe60c06040523480156200001157600080fd5b5060405162000ffd38038062000ffd833981016040819052620000349162000254565b80828686600362000046838262000395565b50600462000055828262000395565b50505080600003620000825760405163392e1e2760e01b8152600060048201526024015b60405180910390fd5b6080526001600160a01b038116620000b157604051631e4fbdf760e01b81526000600482015260240162000079565b620000bc81620000db565b50620000ca8160016200012d565b505060ff1660a05250620004619050565b600580546001600160a01b038381166001600160a01b0319831681179093556040519116919082907f8be0079c531659141344cd1fd0a4f28419497f9722a3daafe3b4186f6b6457e090600090a35050565b6001600160a01b038216600081815260066020908152604091829020805460ff191685151590811790915591519182527f583b0aa0e528532caf4b907c11d7a8158a122fe2a6fb80cd9b09776ebea8d92d910160405180910390a25050565b634e487b7160e01b600052604160045260246000fd5b600082601f830112620001b457600080fd5b81516001600160401b0380821115620001d157620001d16200018c565b604051601f8301601f19908116603f01168101908282118183101715620001fc57620001fc6200018c565b81604052838152602092508660208588010111156200021a57600080fd5b600091505b838210156200023e57858201830151818301840152908201906200021f565b6000602085830101528094505050505092915050565b600080600080600060a086880312156200026d57600080fd5b85516001600160401b03808211156200028557600080fd5b6200029389838a01620001a2565b96506020880151915080821115620002aa57600080fd5b50620002b988828901620001a2565b945050604086015160ff81168114620002d157600080fd5b6060870151608088015191945092506001600160a01b0381168114620002f657600080fd5b809150509295509295909350565b600181811c908216806200031957607f821691505b6020821081036200033a57634e487b7160e01b600052602260045260246000fd5b50919050565b601f82111562000390576000816000526020600020601f850160051c810160208610156200036b5750805b601f850160051c820191505b818110156200038c5782815560010162000377565b5050505b505050565b81516001600160401b03811115620003b157620003b16200018c565b620003c981620003c2845462000304565b8462000340565b602080601f831160018114620004015760008415620003e85750858301515b600019600386901b1c1916600185901b1785556200038c565b600085815260208120601f198616915b82811015620004325788860151825594840194600190910190840162000411565b5085821015620004515787850151600019600388901b60f8161c191681555b5050505050600190811b01905550565b60805160a051610b6f6200048e600039600061018d0152600081816101b901526108000152610b6f6000f3fe608060405234801561001057600080fd5b506004361061011b5760003560e01c806370a08231116100b25780639dc29fac11610081578063cf456ae711610066578063cf456ae71461028f578063dd62ed3e146102a2578063f2fde38b146102db57600080fd5b80639dc29fac14610269578063a9059cbb1461027c57600080fd5b806370a0823114610215578063715018a61461023e5780638da5cb5b1461024657806395d89b411461026157600080fd5b8063313ce567116100ee578063313ce56714610186578063355274ea146101b757806340c10f19146101dd578063423afa66146101f257600080fd5b806306fdde0314610120578063095ea7b31461013e57806318160ddd1461016157806323b872dd14610173575b600080fd5b6101286102ee565b604051610135919061097c565b60405180910390f35b61015161014c3660046109e7565b610380565b6040519015158152602001610135565b6002545b604051908152602001610135565b610151610181366004610a11565b61039a565b60405160ff7f0000000000000000000000000000000000000000000000000000000000000000168152602001610135565b7f0000000000000000000000000000000000000000000000000000000000000000610165565b6101f06101eb3660046109e7565b6103be565b005b610151610200366004610a4d565b60066020526000908152604090205460ff1681565b610165610223366004610a4d565b6001600160a01b031660009081526020819052604090205490565b6101f06103fc565b6005546040516001600160a01b039091168152602001610135565b610128610410565b6101f06102773660046109e7565b61041f565b61015161028a3660046109e7565b610459565b6101f061029d366004610a6f565b610467565b6101656102b0366004610aab565b6001600160a01b03918216600090815260016020908152604080832093909416825291909152205490565b6101f06102e9366004610a4d565b610479565b6060600380546102fd90610ade565b80601f016020809104026020016040519081016040528092919081815260200182805461032990610ade565b80156103765780601f1061034b57610100808354040283529160200191610376565b820191906000526020600020905b81548152906001019060200180831161035957829003601f168201915b5050505050905090565b60003361038e8185856104bc565b60019150505b92915050565b6000336103a88582856104ce565b6103b385858561054c565b506001949350505050565b3360009081526006602052604090205460ff166103ee57604051634199e25360e11b815260040160405180910390fd5b6103f882826105ab565b5050565b6104046105e1565b61040e600061060e565b565b6060600480546102fd90610ade565b3360009081526006602052604090205460ff1661044f57604051634199e25360e11b815260040160405180910390fd5b6103f88282610678565b60003361038e81858561054c565b61046f6105e1565b6103f882826106ae565b6104816105e1565b6001600160a01b0381166104b057604051631e4fbdf760e01b8152600060048201526024015b60405180910390fd5b6104b98161060e565b50565b6104c9838383600161070d565b505050565b6001600160a01b038381166000908152600160209081526040808320938616835292905220546000198114610546578181101561053757604051637dc7a0d960e11b81526001600160a01b038416600482015260248101829052604481018390526064016104a7565b6105468484848403600061070d565b50505050565b6001600160a01b03831661057657604051634b637e8f60e11b8152600060048201526024016104a7565b6001600160a01b0382166105a05760405163ec442f0560e01b8152600060048201526024016104a7565b6104c98383836107e2565b6001600160a01b0382166105d55760405163ec442f0560e01b8152600060048201526024016104a7565b6103f8600083836107e2565b6005546001600160a01b0316331461040e5760405163118cdaa760e01b81523360048201526024016104a7565b600580546001600160a01b038381167fffffffffffffffffffffffff0000000000000000000000000000000000000000831681179093556040519116919082907f8be0079c531659141344cd1fd0a4f28419497f9722a3daafe3b4186f6b6457e090600090a35050565b6001600160a01b0382166106a257604051634b637e8f60e11b8152600060048201526024016104a7565b6103f8826000836107e2565b6001600160a01b038216600081815260066020908152604091829020805460ff191685151590811790915591519182527f583b0aa0e528532caf4b907c11d7a8158a122fe2a6fb80cd9b09776ebea8d92d910160405180910390a25050565b6001600160a01b0384166107375760405163e602df0560e01b8152600060048201526024016104a7565b6001600160a01b03831661076157604051634a1406b160e11b8152600060048201526024016104a7565b6001600160a01b038085166000908152600160209081526040808320938716835292905220829055801561054657826001600160a01b0316846001600160a01b03167f8c5be1e5ebec7d5bd14f71427d1e84f3dd0314c0f7b2291e5b200ac8c7c3b925846040516107d491815260200190565b60405180910390a350505050565b6107ed838383610852565b6001600160a01b0383166104c9576002547f0000000000000000000000000000000000000000000000000000000000000000908181111561084b5760405163279e7e1560e21b815260048101829052602481018390526044016104a7565b5050505050565b6001600160a01b03831661087d5780600260008282546108729190610b18565b909155506108ef9050565b6001600160a01b038316600090815260208190526040902054818110156108d05760405163391434e360e21b81526001600160a01b038516600482015260248101829052604481018390526064016104a7565b6001600160a01b03841660009081526020819052604090209082900390555b6001600160a01b03821661090b5760028054829003905561092a565b6001600160a01b03821660009081526020819052604090208054820190555b816001600160a01b0316836001600160a01b03167fddf252ad1be2c89b69c2b068fc378daa952ba7f163c4a11628f55a4df523b3ef8360405161096f91815260200190565b60405180910390a3505050565b60006020808352835180602085015260005b818110156109aa5785810183015185820160400152820161098e565b506000604082860101526040601f19601f8301168501019250505092915050565b80356001600160a01b03811681146109e257600080fd5b919050565b600080604083850312156109fa57600080fd5b610a03836109cb565b946020939093013593505050565b600080600060608486031215610a2657600080fd5b610a2f846109cb565b9250610a3d602085016109cb565b9150604084013590509250925092565b600060208284031215610a5f57600080fd5b610a68826109cb565b9392505050565b60008060408385031215610a8257600080fd5b610a8b836109cb565b915060208301358015158114610aa057600080fd5b809150509250929050565b60008060408385031215610abe57600080fd5b610ac7836109cb565b9150610ad5602084016109cb565b90509250929050565b600181811c90821680610af257607f821691505b602082108103610b1257634e487b7160e01b600052602260045260246000fd5b50919050565b8082018082111561039457634e487b7160e01b600052601160045260246000fdfea26469706673582212200d68669bd9d7a7cf36532e94088db26b3e972e6649ce1d5bd2b0e1bd50d1234764736f6c6343000817003368747470733a2f2f6769746875622e636f6d2f496e7665727465724e6574776f726b2f636f6e747261637473a2646970667358221220b73986815ecca5a7cd2923be253114665b5f236162cfbe13637c9d39cef1e47264736f6c63430008170033",
    "linkReferences": {}
  },
  "methodIdentifiers": {
    "admin()": "f851a440",
    "buyFor(address,address,uint256,uint256)": "f6819293",
    "collateralFeeMultiplier()": "5eecade6",
    "createPIMWorkflow((bool,address),((uint256,uint256,uint256,string,string),bytes),((uint256,uint256,uint256,string,string),bytes),((uint256,uint256,uint256,string,string),bytes),((uint256,uint256,uint256,string,string),bytes)[],(string,string,uint8,uint256),uint256,(bool,uint256,address,address))": "6daf301a",
    "fundingManagers(uint256)": "7b542b71",
    "getIsGraduated(address)": "1248c803",
    "getIsImmutable(address)": "f402c2bb",
    "getLpTokenRecipient(address)": "de78c729",
    "getMigrationThreshold(address)": "d8354222",
    "isTrustedForwarder(address)": "572b6c05",
    "issuanceFeeMultiplier()": "0f25247e",
    "issuanceLiquidityDivisor()": "a38bc66d",
    "mainFundingManager()": "03828e7e",
    "orchestratorFactory()": "2f36a25d",
    "pims(address)": "1615f657",
    "sellTo(address,address,uint256,uint256)": "ce7c83dd",
    "setAdmin(address)": "704b6c02",
    "setCollateralFeeMultiplier(uint256)": "80165151",
    "setIssuanceFeeMultiplier(uint256)": "1cfcc51c",
    "setIssuanceLiquidityDivisor(uint256)": "c5c1f584",
    "setMainFundingManager(address)": "3cd27545",
    "trustedForwarder()": "7da0a877",
    "withdrawAllProjectCollateralFeesToStaking()": "09bc6300"
  },
  "id": 78
}