{
  "abi": [
    {
      "type": "constructor",
      "inputs": [
        {
          "name": "_orchestratorFactory",
          "type": "address",
          "internalType": "address"
        },
        {
          "name": "_trustedForwarder",
          "type": "address",
          "internalType": "address"
        }
      ],
      "stateMutability": "nonpayable"
    },
    {
      "type": "function",
      "name": "buyForUpTo",
      "inputs": [
        {
          "name": "issuanceToken",
          "type": "address",
          "internalType": "address"
        },
        {
          "name": "recipient",
          "type": "address",
          "internalType": "address"
        },
        {
          "name": "amountIn",
          "type": "uint256",
          "internalType": "uint256"
        },
        {
          "name": "minAmountOut",
          "type": "uint256",
          "internalType": "uint256"
        }
      ],
      "outputs": [],
      "stateMutability": "nonpayable"
    },
    {
      "type": "function",
      "name": "createPIMWorkflow",
      "inputs": [
        {
          "name": "workflowConfig",
          "type": "tuple",
          "internalType": "struct IOrchestratorFactory_v1.WorkflowConfig",
          "components": [
            {
              "name": "independentUpdates",
              "type": "bool",
              "internalType": "bool"
            },
            {
              "name": "independentUpdateAdmin",
              "type": "address",
              "internalType": "address"
            }
          ]
        },
        {
          "name": "fundingManagerConfig",
          "type": "tuple",
          "internalType": "struct IOrchestratorFactory_v1.ModuleConfig",
          "components": [
            {
              "name": "metadata",
              "type": "tuple",
              "internalType": "struct IModule_v1.Metadata",
              "components": [
                {
                  "name": "majorVersion",
                  "type": "uint256",
                  "internalType": "uint256"
                },
                {
                  "name": "minorVersion",
                  "type": "uint256",
                  "internalType": "uint256"
                },
                {
                  "name": "patchVersion",
                  "type": "uint256",
                  "internalType": "uint256"
                },
                {
                  "name": "url",
                  "type": "string",
                  "internalType": "string"
                },
                {
                  "name": "title",
                  "type": "string",
                  "internalType": "string"
                }
              ]
            },
            {
              "name": "configData",
              "type": "bytes",
              "internalType": "bytes"
            }
          ]
        },
        {
          "name": "authorizerConfig",
          "type": "tuple",
          "internalType": "struct IOrchestratorFactory_v1.ModuleConfig",
          "components": [
            {
              "name": "metadata",
              "type": "tuple",
              "internalType": "struct IModule_v1.Metadata",
              "components": [
                {
                  "name": "majorVersion",
                  "type": "uint256",
                  "internalType": "uint256"
                },
                {
                  "name": "minorVersion",
                  "type": "uint256",
                  "internalType": "uint256"
                },
                {
                  "name": "patchVersion",
                  "type": "uint256",
                  "internalType": "uint256"
                },
                {
                  "name": "url",
                  "type": "string",
                  "internalType": "string"
                },
                {
                  "name": "title",
                  "type": "string",
                  "internalType": "string"
                }
              ]
            },
            {
              "name": "configData",
              "type": "bytes",
              "internalType": "bytes"
            }
          ]
        },
        {
          "name": "paymentProcessorConfig",
          "type": "tuple",
          "internalType": "struct IOrchestratorFactory_v1.ModuleConfig",
          "components": [
            {
              "name": "metadata",
              "type": "tuple",
              "internalType": "struct IModule_v1.Metadata",
              "components": [
                {
                  "name": "majorVersion",
                  "type": "uint256",
                  "internalType": "uint256"
                },
                {
                  "name": "minorVersion",
                  "type": "uint256",
                  "internalType": "uint256"
                },
                {
                  "name": "patchVersion",
                  "type": "uint256",
                  "internalType": "uint256"
                },
                {
                  "name": "url",
                  "type": "string",
                  "internalType": "string"
                },
                {
                  "name": "title",
                  "type": "string",
                  "internalType": "string"
                }
              ]
            },
            {
              "name": "configData",
              "type": "bytes",
              "internalType": "bytes"
            }
          ]
        },
        {
          "name": "moduleConfigs",
          "type": "tuple[]",
          "internalType": "struct IOrchestratorFactory_v1.ModuleConfig[]",
          "components": [
            {
              "name": "metadata",
              "type": "tuple",
              "internalType": "struct IModule_v1.Metadata",
              "components": [
                {
                  "name": "majorVersion",
                  "type": "uint256",
                  "internalType": "uint256"
                },
                {
                  "name": "minorVersion",
                  "type": "uint256",
                  "internalType": "uint256"
                },
                {
                  "name": "patchVersion",
                  "type": "uint256",
                  "internalType": "uint256"
                },
                {
                  "name": "url",
                  "type": "string",
                  "internalType": "string"
                },
                {
                  "name": "title",
                  "type": "string",
                  "internalType": "string"
                }
              ]
            },
            {
              "name": "configData",
              "type": "bytes",
              "internalType": "bytes"
            }
          ]
        },
        {
          "name": "issuanceTokenParams",
          "type": "tuple",
          "internalType": "struct IBondingCurveBase_v1.IssuanceToken",
          "components": [
            {
              "name": "name",
              "type": "string",
              "internalType": "string"
            },
            {
              "name": "symbol",
              "type": "string",
              "internalType": "string"
            },
            {
              "name": "decimals",
              "type": "uint8",
              "internalType": "uint8"
            },
            {
              "name": "maxSupply",
              "type": "uint256",
              "internalType": "uint256"
            }
          ]
        },
        {
          "name": "initialPurchaseAmount",
          "type": "uint256",
          "internalType": "uint256"
        },
        {
          "name": "migrationConfig_",
          "type": "tuple",
          "internalType": "struct IMigrating_PIM_Factory_v1.MigrationConfig",
          "components": [
            {
              "name": "collateralToken",
              "type": "address",
              "internalType": "address"
            },
            {
              "name": "isImmutable",
              "type": "bool",
              "internalType": "bool"
            },
            {
              "name": "migrationThreshold",
              "type": "uint256",
              "internalType": "uint256"
            },
            {
              "name": "dexAdapter",
              "type": "address",
              "internalType": "address"
            },
            {
              "name": "lpTokenRecipient",
              "type": "address",
              "internalType": "address"
            }
          ]
        }
      ],
      "outputs": [
        {
          "name": "",
          "type": "address",
          "internalType": "contract IOrchestrator_v1"
        }
      ],
      "stateMutability": "nonpayable"
    },
    {
      "type": "function",
      "name": "dexAdapter",
      "inputs": [],
      "outputs": [
        {
          "name": "",
          "type": "address",
          "internalType": "contract IDexAdapter_v1"
        }
      ],
      "stateMutability": "view"
    },
    {
      "type": "function",
      "name": "isGraduated",
      "inputs": [],
      "outputs": [
        {
          "name": "",
          "type": "bool",
          "internalType": "bool"
        }
      ],
      "stateMutability": "view"
    },
    {
      "type": "function",
      "name": "isImmutable",
      "inputs": [],
      "outputs": [
        {
          "name": "",
          "type": "bool",
          "internalType": "bool"
        }
      ],
      "stateMutability": "view"
    },
    {
      "type": "function",
      "name": "isTrustedForwarder",
      "inputs": [
        {
          "name": "forwarder",
          "type": "address",
          "internalType": "address"
        }
      ],
      "outputs": [
        {
          "name": "",
          "type": "bool",
          "internalType": "bool"
        }
      ],
      "stateMutability": "view"
    },
    {
      "type": "function",
      "name": "lpTokenRecipient",
      "inputs": [],
      "outputs": [
        {
          "name": "",
          "type": "address",
          "internalType": "address"
        }
      ],
      "stateMutability": "view"
    },
    {
      "type": "function",
      "name": "migrationThreshold",
      "inputs": [],
      "outputs": [
        {
          "name": "",
          "type": "uint256",
          "internalType": "uint256"
        }
      ],
      "stateMutability": "view"
    },
    {
      "type": "function",
      "name": "orchestratorFactory",
      "inputs": [],
      "outputs": [
        {
          "name": "",
          "type": "address",
          "internalType": "address"
        }
      ],
      "stateMutability": "view"
    },
    {
      "type": "function",
      "name": "pims",
      "inputs": [
        {
          "name": "issuanceToken",
          "type": "address",
          "internalType": "address"
        }
      ],
      "outputs": [
        {
          "name": "orchestrator",
          "type": "address",
          "internalType": "contract IOrchestrator_v1"
        },
        {
          "name": "initialVirtualIssuanceSupply",
          "type": "uint256",
          "internalType": "uint256"
        },
        {
          "name": "initialVirtualCollateralSupply",
          "type": "uint256",
          "internalType": "uint256"
        }
      ],
      "stateMutability": "view"
    },
    {
      "type": "function",
      "name": "sellTo",
      "inputs": [
        {
          "name": "issuanceToken",
          "type": "address",
          "internalType": "address"
        },
        {
          "name": "recipient",
          "type": "address",
          "internalType": "address"
        },
        {
          "name": "amountIn",
          "type": "uint256",
          "internalType": "uint256"
        },
        {
          "name": "minAmountOut",
          "type": "uint256",
          "internalType": "uint256"
        }
      ],
      "outputs": [],
      "stateMutability": "nonpayable"
    },
    {
      "type": "function",
      "name": "trustedForwarder",
      "inputs": [],
      "outputs": [
        {
          "name": "",
          "type": "address",
          "internalType": "address"
        }
      ],
      "stateMutability": "view"
    },
    {
      "type": "event",
      "name": "Graduation",
      "inputs": [
        {
          "name": "issuanceToken",
          "type": "address",
          "indexed": true,
          "internalType": "address"
        },
        {
          "name": "collateralToken",
          "type": "address",
          "indexed": true,
          "internalType": "address"
        },
        {
          "name": "pool",
          "type": "address",
          "indexed": true,
          "internalType": "address"
        },
        {
          "name": "issuanceTokenAmount",
          "type": "uint256",
          "indexed": false,
          "internalType": "uint256"
        },
        {
          "name": "collateralTokenAmount",
          "type": "uint256",
          "indexed": false,
          "internalType": "uint256"
        }
      ],
      "anonymous": false
    },
    {
      "type": "event",
      "name": "PIMWorkflowCreated",
      "inputs": [
        {
          "name": "fundingManager",
          "type": "address",
          "indexed": true,
          "internalType": "address"
        },
        {
          "name": "issuanceToken",
          "type": "address",
          "indexed": true,
          "internalType": "address"
        },
        {
          "name": "deployer",
          "type": "address",
          "indexed": true,
          "internalType": "address"
        },
        {
          "name": "isImmutable",
          "type": "bool",
          "indexed": false,
          "internalType": "bool"
        },
        {
          "name": "migrationThreshold",
          "type": "uint256",
          "indexed": false,
          "internalType": "uint256"
        },
        {
          "name": "lpTokenRecipient",
          "type": "address",
          "indexed": false,
          "internalType": "address"
        }
      ],
      "anonymous": false
    },
    {
      "type": "event",
      "name": "PimFeeClaimed",
      "inputs": [
        {
          "name": "fundingManager",
          "type": "address",
          "indexed": true,
          "internalType": "address"
        },
        {
          "name": "claimer",
          "type": "address",
          "indexed": true,
          "internalType": "address"
        },
        {
          "name": "to",
          "type": "address",
          "indexed": true,
          "internalType": "address"
        },
        {
          "name": "amount",
          "type": "uint256",
          "indexed": false,
          "internalType": "uint256"
        }
      ],
      "anonymous": false
    },
    {
      "type": "event",
      "name": "PimFeeRecipientUpdated",
      "inputs": [
        {
          "name": "fundingManager",
          "type": "address",
          "indexed": true,
          "internalType": "address"
        },
        {
          "name": "oldRecipient",
          "type": "address",
          "indexed": true,
          "internalType": "address"
        },
        {
          "name": "newRecipient",
          "type": "address",
          "indexed": true,
          "internalType": "address"
        }
      ],
      "anonymous": false
    },
    {
      "type": "error",
      "name": "PIM_WorkflowFactory__AlreadyGraduated",
      "inputs": []
    },
    {
      "type": "error",
      "name": "PIM_WorkflowFactory__OnlyPimFeeRecipient",
      "inputs": []
    }
  ],
  "bytecode": {
    "object": "0x60a06040523480156200001157600080fd5b5060405162003b9b38038062003b9b83398101604081905262000034916200008a565b6001600160a01b039081166080526001805460ff60a81b19169055600080546001600160a01b03191692909116919091179055620000c2565b80516001600160a01b03811681146200008557600080fd5b919050565b600080604083850312156200009e57600080fd5b620000a9836200006d565b9150620000b9602084016200006d565b90509250929050565b608051613aaf620000ec600039600081816101bb015281816101fe01526116310152613aaf6000f3fe60806040523480156200001157600080fd5b5060043610620000e55760003560e01c806390bc1e85116200008b578063bb0aa8ef1162000062578063bb0aa8ef1462000265578063ce7c83dd146200027a578063fcde9847146200029357600080fd5b806390bc1e85146200022357806391f03efd146200023c5780639e5f2602146200025057600080fd5b80632f36a25d11620000c05780632f36a25d1462000194578063572b6c0514620001a85780637da0a87714620001fc57600080fd5b80631615f65714620000ea578063164093d6146200015057806316b4ad7a1462000180575b600080fd5b62000126620000fb36600462001f15565b6004602052600090815260409020805460018201546002909201546001600160a01b03909116919083565b604080516001600160a01b0390941684526020840192909252908201526060015b60405180910390f35b6200016762000161366004620023b4565b620002aa565b6040516001600160a01b03909116815260200162000147565b60035462000167906001600160a01b031681565b60005462000167906001600160a01b031681565b620001eb620001b936600462001f15565b7f00000000000000000000000000000000000000000000000000000000000000006001600160a01b0390811691161490565b604051901515815260200162000147565b7f000000000000000000000000000000000000000000000000000000000000000062000167565b6200022d60025481565b60405190815260200162000147565b60015462000167906001600160a01b031681565b600154620001eb90600160a81b900460ff1681565b600154620001eb90600160a01b900460ff1681565b620002916200028b366004620024c8565b620006b1565b005b62000291620002a4366004620024c8565b620008b6565b602081015160018054604084015160025560608401517fffffffffffffffffffffff000000000000000000000000000000000000000000909116600160a01b93151584026001600160a01b031916176001600160a01b03909116179081905560009160ff910416156200032f57600380546001600160a01b0319163017905562000354565b6080820151600380546001600160a01b0319166001600160a01b039092169190911790555b6000846000015185602001518660400151876060015130604051620003799062001eee565b620003899594939291906200255b565b604051809103906000f080158015620003a6573d6000803e3d6000fd5b5090506000806000620003be8d8d8d8d8d8962000d6c565b9250925092506000836001600160a01b03166304baed9e6040518163ffffffff1660e01b8152600401602060405180830381865afa15801562000405573d6000803e3d6000fd5b505050506040513d601f19601f820116820180604052508101906200042b9190620025ae565b90506040518060600160405280856001600160a01b03168152602001826001600160a01b031663d1c6022f6040518163ffffffff1660e01b8152600401602060405180830381865afa15801562000486573d6000803e3d6000fd5b505050506040513d601f19601f82011682018060405250810190620004ac9190620025ce565b8152602001826001600160a01b031663bf75292b6040518163ffffffff1660e01b8152600401602060405180830381865afa158015620004f0573d6000803e3d6000fd5b505050506040513d601f19601f82011682018060405250810190620005169190620025ce565b90526001600160a01b03868116600081815260046020818152604092839020865181546001600160a01b0319169087161781559086015160018083019190915595830151600290910155905163cf456ae760e01b815292851690830152602482019290925263cf456ae790604401600060405180830381600087803b1580156200059f57600080fd5b505af1158015620005b4573d6000803e3d6000fd5b50505050620005c38562000ef6565b620005d181838a86620014a6565b846001600160a01b031663715018a66040518163ffffffff1660e01b8152600401600060405180830381600087803b1580156200060d57600080fd5b505af115801562000622573d6000803e3d6000fd5b50505050620006306200162a565b60015460025460035460408051600160a01b90940460ff161515845260208401929092526001600160a01b03908116918301919091529182169187811691908716907fd48997388cefe01f404a6f289de0365da97616ade304f75e7f2d994affbc985c9060600160405180910390a450919c9b505050505050505050505050565b6001600160a01b0380851660009081526004602081815260408084208151606081018352815490961680875260018201548785015260029091015486830152815163025d76cf60e11b8152915190936304baed9e9383820193909291908290030181865afa15801562000728573d6000803e3d6000fd5b505050506040513d601f19601f820116820180604052508101906200074e9190620025ae565b6040516323b872dd60e01b8152336004820152306024820152604481018690529091506001600160a01b038716906323b872dd906064016020604051808303816000875af1158015620007a5573d6000803e3d6000fd5b505050506040513d601f19601f82011682018060405250810190620007cb9190620025fa565b5060405163095ea7b360e01b81526001600160a01b0382811660048301526024820186905287169063095ea7b3906044016020604051808303816000875af11580156200081c573d6000803e3d6000fd5b505050506040513d601f19601f82011682018060405250810190620008429190620025fa565b506040516362d93eef60e11b81526001600160a01b038681166004830152602482018690526044820185905282169063c5b27dde90606401600060405180830381600087803b1580156200089557600080fd5b505af1158015620008aa573d6000803e3d6000fd5b50505050505050505050565b6001600160a01b0380851660009081526004602081815260408084208151606081018352815490961680875260018201548785015260029091015486830152815163025d76cf60e11b8152915190936304baed9e9383820193909291908290030181865afa1580156200092d573d6000803e3d6000fd5b505050506040513d601f19601f82011682018060405250810190620009539190620025ae565b9050600082600001516001600160a01b03166304baed9e6040518163ffffffff1660e01b8152600401602060405180830381865afa1580156200099a573d6000803e3d6000fd5b505050506040513d601f19601f82011682018060405250810190620009c09190620025ae565b6001600160a01b031663fc0c546a6040518163ffffffff1660e01b8152600401602060405180830381865afa158015620009fe573d6000803e3d6000fd5b505050506040513d601f19601f8201168201806040525081019062000a249190620025ae565b6040516323b872dd60e01b8152336004820152306024820152604481018790529091506001600160a01b038216906323b872dd906064016020604051808303816000875af115801562000a7b573d6000803e3d6000fd5b505050506040513d601f19601f8201168201806040525081019062000aa19190620025fa565b5060405163095ea7b360e01b81526001600160a01b0383811660048301526024820187905282169063095ea7b3906044016020604051808303816000875af115801562000af2573d6000803e3d6000fd5b505050506040513d601f19601f8201168201806040525081019062000b189190620025fa565b5060008062000b288988620016a7565b9092509050801562000ba05760405163935b7dbd60e01b81526001600160a01b038981166004830152602482018390526044820188905285169063935b7dbd90606401600060405180830381600087803b15801562000b8657600080fd5b505af115801562000b9b573d6000803e3d6000fd5b505050505b811562000c3657826001600160a01b031663a9059cbb62000bc06200162a565b6040516001600160e01b031960e084901b1681526001600160a01b039091166004820152602481018590526044016020604051808303816000875af115801562000c0e573d6000803e3d6000fd5b505050506040513d601f19601f8201168201806040525081019062000c349190620025fa565b505b6002546040516370a0823160e01b81526001600160a01b0386811660048301528516906370a0823190602401602060405180830381865afa15801562000c80573d6000803e3d6000fd5b505050506040513d601f19601f8201168201806040525081019062000ca69190620025ce565b1062000d6157836001600160a01b031663c6ab5cdc6040518163ffffffff1660e01b8152600401600060405180830381600087803b15801562000ce857600080fd5b505af115801562000cfd573d6000803e3d6000fd5b50505050836001600160a01b031663ba83c9706040518163ffffffff1660e01b8152600401600060405180830381600087803b15801562000d3d57600080fd5b505af115801562000d52573d6000803e3d6000fd5b5050505062000d6189620018f9565b505050505050505050565b600080600080876020015190508080602001905181019062000d8f9190620025ae565b604080513060208201529194500160408051601f1981840301815291815260208a81018390528151610120810183526000808252918101829052918201819052606082018190526080820181905260a0820181905260c0820181905260e082018190526101008201529091506020808b01518051909162000e1791830181019083016200263c565b60405190965090935062000e35915088908490879060200162002722565b60408051601f1981840301815291815260208d0182905260005490517fff2676990000000000000000000000000000000000000000000000000000000081529192506001600160a01b03169063ff2676999062000e9f908f908f908f908f908f9060040162002855565b6020604051808303816000875af115801562000ebf573d6000803e3d6000fd5b505050506040513d601f19601f8201168201806040525081019062000ee59190620025ae565b955050505096509650969350505050565b6001600160a01b0380821660009081526004602081815260408084208151606081018352815490961680875260018201548785015260029091015486830152815163025d76cf60e11b8152915190936304baed9e9383820193909291908290030181865afa15801562000f6d573d6000803e3d6000fd5b505050506040513d601f19601f8201168201806040525081019062000f939190620025ae565b905081600001516001600160a01b031663d09edf316040518163ffffffff1660e01b8152600401602060405180830381865afa15801562000fd8573d6000803e3d6000fd5b505050506040513d601f19601f8201168201806040525081019062000ffe9190620025ae565b6001600160a01b0316632f2ff15d83600001516001600160a01b031663d09edf316040518163ffffffff1660e01b8152600401602060405180830381865afa1580156200104f573d6000803e3d6000fd5b505050506040513d601f19601f82011682018060405250810190620010759190620025ae565b6001600160a01b031663b3ecf2366040518163ffffffff1660e01b8152600401602060405180830381865afa158015620010b3573d6000803e3d6000fd5b505050506040513d601f19601f82011682018060405250810190620010d99190620025ce565b600154600160a01b900460ff16620010fb57620010f56200162a565b620010fd565b305b6040516001600160e01b031960e085901b16815260048101929092526001600160a01b03166024820152604401600060405180830381600087803b1580156200114557600080fd5b505af11580156200115a573d6000803e3d6000fd5b505060405163cf456ae760e01b8152306004820152600160248201526001600160a01b038616925063cf456ae79150604401600060405180830381600087803b158015620011a757600080fd5b505af1158015620011bc573d6000803e3d6000fd5b50505050806001600160a01b0316636c67e807826001600160a01b0316637feb48a16040518163ffffffff1660e01b8152600401602060405180830381865afa1580156200120e573d6000803e3d6000fd5b505050506040513d601f19601f82011682018060405250810190620012349190620025ce565b6040516001600160e01b031960e084901b1681526004810191909152306024820152604401600060405180830381600087803b1580156200127457600080fd5b505af115801562001289573d6000803e3d6000fd5b50505050600082600001516001600160a01b0316634cfa64876040518163ffffffff1660e01b8152600401600060405180830381865afa158015620012d2573d6000803e3d6000fd5b505050506040513d6000823e601f3d908101601f19168201604052620012fc919081019062002917565b905060005b81518110156200149f57818181518110620013205762001320620029bc565b60200260200101516001600160a01b03166346ebcacf6040518163ffffffff1660e01b8152600401602060405180830381865afa92505050801562001384575060408051601f3d908101601f191682019092526200138191810190620025ce565b60015b15620014965750818181518110620013a057620013a0620029bc565b60200260200101516001600160a01b0316636c67e807838381518110620013cb57620013cb620029bc565b60200260200101516001600160a01b03166346ebcacf6040518163ffffffff1660e01b8152600401602060405180830381865afa15801562001411573d6000803e3d6000fd5b505050506040513d601f19601f82011682018060405250810190620014379190620025ce565b6040516001600160e01b031960e084901b1681526004810191909152306024820152604401600060405180830381600087803b1580156200147757600080fd5b505af11580156200148c573d6000803e3d6000fd5b505050506200149f565b60010162001301565b5050505050565b81156200162457826001600160a01b03166323b872dd620014c66200162a565b6040516001600160e01b031960e084901b1681526001600160a01b039091166004820152306024820152604481018590526064016020604051808303816000875af11580156200151a573d6000803e3d6000fd5b505050506040513d601f19601f82011682018060405250810190620015409190620025fa565b5060405163095ea7b360e01b81526001600160a01b0385811660048301526024820184905284169063095ea7b3906044016020604051808303816000875af115801562001591573d6000803e3d6000fd5b505050506040513d601f19601f82011682018060405250810190620015b79190620025fa565b5060405163935b7dbd60e01b81526001600160a01b038281166004830152602482018490526001604483015285169063935b7dbd90606401600060405180830381600087803b1580156200160a57600080fd5b505af11580156200161f573d6000803e3d6000fd5b505050505b50505050565b60003660147f00000000000000000000000000000000000000000000000000000000000000006001600160a01b031633148015620016685750808210155b156200169f576000366200167d8385620029e8565b6200168a92829062002a04565b620016959162002a30565b60601c9250505090565b339250505090565b6001600160a01b0380831660009081526004602081815260408084208151606081018352815490961680875260018201548785015260029091015486830152815163025d76cf60e11b81529151949586959094869492936304baed9e9381830193909290918290030181865afa15801562001726573d6000803e3d6000fd5b505050506040513d601f19601f820116820180604052508101906200174c9190620025ae565b9050600082600001516001600160a01b03166304baed9e6040518163ffffffff1660e01b8152600401602060405180830381865afa15801562001793573d6000803e3d6000fd5b505050506040513d601f19601f82011682018060405250810190620017b99190620025ae565b6001600160a01b031663fc0c546a6040518163ffffffff1660e01b8152600401602060405180830381865afa158015620017f7573d6000803e3d6000fd5b505050506040513d601f19601f820116820180604052508101906200181d9190620025ae565b6040516370a0823160e01b81526001600160a01b0384811660048301529192506000918316906370a0823190602401602060405180830381865afa1580156200186a573d6000803e3d6000fd5b505050506040513d601f19601f82011682018060405250810190620018909190620025ce565b90506000620018a0888362002a66565b9050600254811115620018e5578160025411620018bf576000620018cf565b81600254620018cf9190620029e8565b9550620018dd8689620029e8565b9650620018ed565b879550600096505b50505050509250929050565b600154600160a81b900460ff161562001925576040516396f73faf60e01b815260040160405180910390fd5b6001600160a01b0380821660009081526004602081815260408084208151606081018352815490961680875260018201548785015260029091015486830152815163025d76cf60e11b8152915190936304baed9e9383820193909291908290030181865afa1580156200199c573d6000803e3d6000fd5b505050506040513d601f19601f82011682018060405250810190620019c29190620025ae565b90506000816001600160a01b031663fc0c546a6040518163ffffffff1660e01b8152600401602060405180830381865afa15801562001a05573d6000803e3d6000fd5b505050506040513d601f19601f8201168201806040525081019062001a2b9190620025ae565b6040516370a0823160e01b81526001600160a01b0384811660048301529192506000918316906370a0823190602401602060405180830381865afa15801562001a78573d6000803e3d6000fd5b505050506040513d601f19601f8201168201806040525081019062001a9e9190620025ce565b905060008460200151846001600160a01b031663d1c6022f6040518163ffffffff1660e01b8152600401602060405180830381865afa15801562001ae6573d6000803e3d6000fd5b505050506040513d601f19601f8201168201806040525081019062001b0c9190620025ce565b62001b189190620029e8565b9050600085600001516001600160a01b0316634cfa64876040518163ffffffff1660e01b8152600401600060405180830381865afa15801562001b5f573d6000803e3d6000fd5b505050506040513d6000823e601f3d908101601f1916820160405262001b89919081019062002917565b905060005b815181101562001ccb5781818151811062001bad5762001bad620029bc565b60200260200101516001600160a01b03166346ebcacf6040518163ffffffff1660e01b8152600401602060405180830381865afa92505050801562001c11575060408051601f3d908101601f1916820190925262001c0e91810190620025ce565b60015b1562001cc2575081818151811062001c2d5762001c2d620029bc565b6020908102919091010151600154604051638028b82f60e01b81526001600160a01b0391821660048201528782166024820152604481018790526000606482018190526084820181905260a4820152911690638028b82f9060c401600060405180830381600087803b15801562001ca357600080fd5b505af115801562001cb8573d6000803e3d6000fd5b5050505062001ccb565b60010162001b8e565b50846001600160a01b031663c6ab5cdc6040518163ffffffff1660e01b8152600401600060405180830381600087803b15801562001d0857600080fd5b505af115801562001d1d573d6000803e3d6000fd5b50505050846001600160a01b031663ba83c9706040518163ffffffff1660e01b8152600401600060405180830381600087803b15801562001d5d57600080fd5b505af115801562001d72573d6000803e3d6000fd5b50506001546040516340c10f1960e01b81526001600160a01b03918216600482015260248101869052908a1692506340c10f199150604401600060405180830381600087803b15801562001dc557600080fd5b505af115801562001dda573d6000803e3d6000fd5b50506001546003546040516332092e4f60e21b81526001600160a01b0389811660048301528c811660248301529182166044820152600094509116915063c824b93c906064016020604051808303816000875af115801562001e40573d6000803e3d6000fd5b505050506040513d601f19601f8201168201806040525081019062001e669190620025ae565b600180547fffffffffffffffffffff00ffffffffffffffffffffffffffffffffffffffffff16600160a81b17905560408051858152602081018790529192506001600160a01b038084169288821692918c16917f61a7be01a73db9bec6d726c8ac152dec55617d188289647aa5b17fcbe83a42e2910160405180910390a45050505050505050565b610ffd8062002a7d83390190565b6001600160a01b038116811462001f1257600080fd5b50565b60006020828403121562001f2857600080fd5b813562001f358162001efc565b9392505050565b634e487b7160e01b600052604160045260246000fd5b6040805190810167ffffffffffffffff8111828210171562001f785762001f7862001f3c565b60405290565b60405160a0810167ffffffffffffffff8111828210171562001f785762001f7862001f3c565b604051610120810167ffffffffffffffff8111828210171562001f785762001f7862001f3c565b604051601f8201601f1916810167ffffffffffffffff8111828210171562001ff75762001ff762001f3c565b604052919050565b801515811462001f1257600080fd5b6000604082840312156200202157600080fd5b6200202b62001f52565b905081356200203a8162001fff565b815260208201356200204c8162001efc565b602082015292915050565b600082601f8301126200206957600080fd5b813567ffffffffffffffff81111562002086576200208662001f3c565b6200209b601f8201601f191660200162001fcb565b818152846020838601011115620020b157600080fd5b816020850160208301376000918101602001919091529392505050565b600060408284031215620020e157600080fd5b620020eb62001f52565b9050813567ffffffffffffffff808211156200210657600080fd5b9083019060a082860312156200211b57600080fd5b6200212562001f7e565b8235815260208301356020820152604083013560408201526060830135828111156200215057600080fd5b6200215e8782860162002057565b6060830152506080830135828111156200217757600080fd5b620021858782860162002057565b60808301525083526020840135915080821115620021a257600080fd5b50620021b18482850162002057565b60208301525092915050565b600067ffffffffffffffff821115620021da57620021da62001f3c565b5060051b60200190565b600082601f830112620021f657600080fd5b813560206200220f6200220983620021bd565b62001fcb565b82815260059290921b840181019181810190868411156200222f57600080fd5b8286015b848110156200227457803567ffffffffffffffff811115620022555760008081fd5b620022658986838b0101620020ce565b84525091830191830162002233565b509695505050505050565b6000608082840312156200229257600080fd5b6040516080810167ffffffffffffffff8282108183111715620022b957620022b962001f3c565b816040528293508435915080821115620022d257600080fd5b620022e08683870162002057565b83526020850135915080821115620022f757600080fd5b50620023068582860162002057565b602083015250604083013560ff811681146200232157600080fd5b6040820152606092830135920191909152919050565b600060a082840312156200234a57600080fd5b6200235462001f7e565b90508135620023638162001efc565b81526020820135620023758162001fff565b6020820152604082810135908201526060820135620023948162001efc565b60608201526080820135620023a98162001efc565b608082015292915050565b6000806000806000806000806101a0898b031215620023d257600080fd5b620023de8a8a6200200e565b9750604089013567ffffffffffffffff80821115620023fc57600080fd5b6200240a8c838d01620020ce565b985060608b01359150808211156200242157600080fd5b6200242f8c838d01620020ce565b975060808b01359150808211156200244657600080fd5b620024548c838d01620020ce565b965060a08b01359150808211156200246b57600080fd5b620024798c838d01620021e4565b955060c08b01359150808211156200249057600080fd5b506200249f8b828c016200227f565b93505060e08901359150620024b98a6101008b0162002337565b90509295985092959890939650565b60008060008060808587031215620024df57600080fd5b8435620024ec8162001efc565b93506020850135620024fe8162001efc565b93969395505050506040820135916060013590565b6000815180845260005b818110156200253b576020818501810151868301820152016200251d565b506000602082860101526020601f19601f83011685010191505092915050565b60a0815260006200257060a083018862002513565b828103602084015262002584818862002513565b60ff969096166040840152505060608101929092526001600160a01b031660809091015292915050565b600060208284031215620025c157600080fd5b815162001f358162001efc565b600060208284031215620025e157600080fd5b5051919050565b8051620025f58162001fff565b919050565b6000602082840312156200260d57600080fd5b815162001f358162001fff565b8051620025f58162001efc565b805163ffffffff81168114620025f557600080fd5b60008060008385036101608112156200265457600080fd5b8451620026618162001efc565b9350610120601f1982018113156200267857600080fd5b6200268262001fa4565b915062002692602087016200261a565b8252620026a26040870162002627565b6020830152620026b56060870162002627565b60408301526080860151606083015260a08601516080830152620026dc60c08701620025e8565b60a0830152620026ef60e08701620025e8565b60c08301526101008681015160e0840152908601519082015291506200271961014085016200261a565b90509250925092565b6000610160820190506001600160a01b0380861683528085511660208401525063ffffffff602085015116604083015260408401516200276a606084018263ffffffff169052565b5060608401516080830152608084015160a083015260a08401516200279360c084018215159052565b5060c084015180151560e08401525060e0840151610100838101919091528401516101208301526001600160a01b038316610140830152949350505050565b6000815160408452805160408501526020810151606085015260408101516080850152606081015160a0808601526200280f60e086018262002513565b905060808201519150603f198582030160c086015262002830818362002513565b915050602083015184820360208601526200284c828262002513565b95945050505050565b855115158152600060206001600160a01b0381890151168184015260c060408401526200288660c0840188620027d2565b83810360608501526200289a8188620027d2565b90508381036080850152620028b08187620027d2565b905083810360a08501528085518083528383019150838160051b84010184880160005b838110156200290557601f19868403018552620028f2838351620027d2565b94870194925090860190600101620028d3565b50909c9b505050505050505050505050565b600060208083850312156200292b57600080fd5b825167ffffffffffffffff8111156200294357600080fd5b8301601f810185136200295557600080fd5b8051620029666200220982620021bd565b81815260059190911b820183019083810190878311156200298657600080fd5b928401925b82841015620029b1578351620029a18162001efc565b825292840192908401906200298b565b979650505050505050565b634e487b7160e01b600052603260045260246000fd5b634e487b7160e01b600052601160045260246000fd5b81810381811115620029fe57620029fe620029d2565b92915050565b6000808585111562002a1557600080fd5b8386111562002a2357600080fd5b5050820193919092039150565b6bffffffffffffffffffffffff19813581811691601485101562002a5e5780818660140360031b1b83161692505b505092915050565b80820180821115620029fe57620029fe620029d256fe60c06040523480156200001157600080fd5b5060405162000ffd38038062000ffd833981016040819052620000349162000254565b80828686600362000046838262000395565b50600462000055828262000395565b50505080600003620000825760405163392e1e2760e01b8152600060048201526024015b60405180910390fd5b6080526001600160a01b038116620000b157604051631e4fbdf760e01b81526000600482015260240162000079565b620000bc81620000db565b50620000ca8160016200012d565b505060ff1660a05250620004619050565b600580546001600160a01b038381166001600160a01b0319831681179093556040519116919082907f8be0079c531659141344cd1fd0a4f28419497f9722a3daafe3b4186f6b6457e090600090a35050565b6001600160a01b038216600081815260066020908152604091829020805460ff191685151590811790915591519182527f583b0aa0e528532caf4b907c11d7a8158a122fe2a6fb80cd9b09776ebea8d92d910160405180910390a25050565b634e487b7160e01b600052604160045260246000fd5b600082601f830112620001b457600080fd5b81516001600160401b0380821115620001d157620001d16200018c565b604051601f8301601f19908116603f01168101908282118183101715620001fc57620001fc6200018c565b81604052838152602092508660208588010111156200021a57600080fd5b600091505b838210156200023e57858201830151818301840152908201906200021f565b6000602085830101528094505050505092915050565b600080600080600060a086880312156200026d57600080fd5b85516001600160401b03808211156200028557600080fd5b6200029389838a01620001a2565b96506020880151915080821115620002aa57600080fd5b50620002b988828901620001a2565b945050604086015160ff81168114620002d157600080fd5b6060870151608088015191945092506001600160a01b0381168114620002f657600080fd5b809150509295509295909350565b600181811c908216806200031957607f821691505b6020821081036200033a57634e487b7160e01b600052602260045260246000fd5b50919050565b601f82111562000390576000816000526020600020601f850160051c810160208610156200036b5750805b601f850160051c820191505b818110156200038c5782815560010162000377565b5050505b505050565b81516001600160401b03811115620003b157620003b16200018c565b620003c981620003c2845462000304565b8462000340565b602080601f831160018114620004015760008415620003e85750858301515b600019600386901b1c1916600185901b1785556200038c565b600085815260208120601f198616915b82811015620004325788860151825594840194600190910190840162000411565b5085821015620004515787850151600019600388901b60f8161c191681555b5050505050600190811b01905550565b60805160a051610b6f6200048e600039600061018d0152600081816101b901526108000152610b6f6000f3fe608060405234801561001057600080fd5b506004361061011b5760003560e01c806370a08231116100b25780639dc29fac11610081578063cf456ae711610066578063cf456ae71461028f578063dd62ed3e146102a2578063f2fde38b146102db57600080fd5b80639dc29fac14610269578063a9059cbb1461027c57600080fd5b806370a0823114610215578063715018a61461023e5780638da5cb5b1461024657806395d89b411461026157600080fd5b8063313ce567116100ee578063313ce56714610186578063355274ea146101b757806340c10f19146101dd578063423afa66146101f257600080fd5b806306fdde0314610120578063095ea7b31461013e57806318160ddd1461016157806323b872dd14610173575b600080fd5b6101286102ee565b604051610135919061097c565b60405180910390f35b61015161014c3660046109e7565b610380565b6040519015158152602001610135565b6002545b604051908152602001610135565b610151610181366004610a11565b61039a565b60405160ff7f0000000000000000000000000000000000000000000000000000000000000000168152602001610135565b7f0000000000000000000000000000000000000000000000000000000000000000610165565b6101f06101eb3660046109e7565b6103be565b005b610151610200366004610a4d565b60066020526000908152604090205460ff1681565b610165610223366004610a4d565b6001600160a01b031660009081526020819052604090205490565b6101f06103fc565b6005546040516001600160a01b039091168152602001610135565b610128610410565b6101f06102773660046109e7565b61041f565b61015161028a3660046109e7565b610459565b6101f061029d366004610a6f565b610467565b6101656102b0366004610aab565b6001600160a01b03918216600090815260016020908152604080832093909416825291909152205490565b6101f06102e9366004610a4d565b610479565b6060600380546102fd90610ade565b80601f016020809104026020016040519081016040528092919081815260200182805461032990610ade565b80156103765780601f1061034b57610100808354040283529160200191610376565b820191906000526020600020905b81548152906001019060200180831161035957829003601f168201915b5050505050905090565b60003361038e8185856104bc565b60019150505b92915050565b6000336103a88582856104ce565b6103b385858561054c565b506001949350505050565b3360009081526006602052604090205460ff166103ee57604051634199e25360e11b815260040160405180910390fd5b6103f882826105ab565b5050565b6104046105e1565b61040e600061060e565b565b6060600480546102fd90610ade565b3360009081526006602052604090205460ff1661044f57604051634199e25360e11b815260040160405180910390fd5b6103f88282610678565b60003361038e81858561054c565b61046f6105e1565b6103f882826106ae565b6104816105e1565b6001600160a01b0381166104b057604051631e4fbdf760e01b8152600060048201526024015b60405180910390fd5b6104b98161060e565b50565b6104c9838383600161070d565b505050565b6001600160a01b038381166000908152600160209081526040808320938616835292905220546000198114610546578181101561053757604051637dc7a0d960e11b81526001600160a01b038416600482015260248101829052604481018390526064016104a7565b6105468484848403600061070d565b50505050565b6001600160a01b03831661057657604051634b637e8f60e11b8152600060048201526024016104a7565b6001600160a01b0382166105a05760405163ec442f0560e01b8152600060048201526024016104a7565b6104c98383836107e2565b6001600160a01b0382166105d55760405163ec442f0560e01b8152600060048201526024016104a7565b6103f8600083836107e2565b6005546001600160a01b0316331461040e5760405163118cdaa760e01b81523360048201526024016104a7565b600580546001600160a01b038381167fffffffffffffffffffffffff0000000000000000000000000000000000000000831681179093556040519116919082907f8be0079c531659141344cd1fd0a4f28419497f9722a3daafe3b4186f6b6457e090600090a35050565b6001600160a01b0382166106a257604051634b637e8f60e11b8152600060048201526024016104a7565b6103f8826000836107e2565b6001600160a01b038216600081815260066020908152604091829020805460ff191685151590811790915591519182527f583b0aa0e528532caf4b907c11d7a8158a122fe2a6fb80cd9b09776ebea8d92d910160405180910390a25050565b6001600160a01b0384166107375760405163e602df0560e01b8152600060048201526024016104a7565b6001600160a01b03831661076157604051634a1406b160e11b8152600060048201526024016104a7565b6001600160a01b038085166000908152600160209081526040808320938716835292905220829055801561054657826001600160a01b0316846001600160a01b03167f8c5be1e5ebec7d5bd14f71427d1e84f3dd0314c0f7b2291e5b200ac8c7c3b925846040516107d491815260200190565b60405180910390a350505050565b6107ed838383610852565b6001600160a01b0383166104c9576002547f0000000000000000000000000000000000000000000000000000000000000000908181111561084b5760405163279e7e1560e21b815260048101829052602481018390526044016104a7565b5050505050565b6001600160a01b03831661087d5780600260008282546108729190610b18565b909155506108ef9050565b6001600160a01b038316600090815260208190526040902054818110156108d05760405163391434e360e21b81526001600160a01b038516600482015260248101829052604481018390526064016104a7565b6001600160a01b03841660009081526020819052604090209082900390555b6001600160a01b03821661090b5760028054829003905561092a565b6001600160a01b03821660009081526020819052604090208054820190555b816001600160a01b0316836001600160a01b03167fddf252ad1be2c89b69c2b068fc378daa952ba7f163c4a11628f55a4df523b3ef8360405161096f91815260200190565b60405180910390a3505050565b60006020808352835180602085015260005b818110156109aa5785810183015185820160400152820161098e565b506000604082860101526040601f19601f8301168501019250505092915050565b80356001600160a01b03811681146109e257600080fd5b919050565b600080604083850312156109fa57600080fd5b610a03836109cb565b946020939093013593505050565b600080600060608486031215610a2657600080fd5b610a2f846109cb565b9250610a3d602085016109cb565b9150604084013590509250925092565b600060208284031215610a5f57600080fd5b610a68826109cb565b9392505050565b60008060408385031215610a8257600080fd5b610a8b836109cb565b915060208301358015158114610aa057600080fd5b809150509250929050565b60008060408385031215610abe57600080fd5b610ac7836109cb565b9150610ad5602084016109cb565b90509250929050565b600181811c90821680610af257607f821691505b602082108103610b1257634e487b7160e01b600052602260045260246000fd5b50919050565b8082018082111561039457634e487b7160e01b600052601160045260246000fdfea26469706673582212200d68669bd9d7a7cf36532e94088db26b3e972e6649ce1d5bd2b0e1bd50d1234764736f6c63430008170033a26469706673582212204e157328294c99200665e08219ad4427e02fee7d700c26290b965ceabee7010964736f6c63430008170033",
    "linkReferences": {}
  },
  "methodIdentifiers": {
    "buyForUpTo(address,address,uint256,uint256)": "fcde9847",
    "createPIMWorkflow((bool,address),((uint256,uint256,uint256,string,string),bytes),((uint256,uint256,uint256,string,string),bytes),((uint256,uint256,uint256,string,string),bytes),((uint256,uint256,uint256,string,string),bytes)[],(string,string,uint8,uint256),uint256,(address,bool,uint256,address,address))": "164093d6",
    "dexAdapter()": "91f03efd",
    "isGraduated()": "9e5f2602",
    "isImmutable()": "bb0aa8ef",
    "isTrustedForwarder(address)": "572b6c05",
    "lpTokenRecipient()": "16b4ad7a",
    "migrationThreshold()": "90bc1e85",
    "orchestratorFactory()": "2f36a25d",
    "pims(address)": "1615f657",
    "sellTo(address,address,uint256,uint256)": "ce7c83dd",
    "trustedForwarder()": "7da0a877"
  },
  "id": 78
}