{
  "abi": [
    {
      "type": "constructor",
      "inputs": [
        {
          "name": "_orchestratorFactory",
          "type": "address",
          "internalType": "address"
        },
        {
          "name": "_trustedForwarder",
          "type": "address",
          "internalType": "address"
        },
        {
          "name": "_admin",
          "type": "address",
          "internalType": "address"
        }
      ],
      "stateMutability": "nonpayable"
    },
    {
      "type": "function",
      "name": "buyFor",
      "inputs": [
        {
          "name": "fundingManager",
          "type": "address",
          "internalType": "address"
        },
        {
          "name": "recipient",
          "type": "address",
          "internalType": "address"
        },
        {
          "name": "amountIn",
          "type": "uint256",
          "internalType": "uint256"
        },
        {
          "name": "minAmountOut",
          "type": "uint256",
          "internalType": "uint256"
        }
      ],
      "outputs": [],
      "stateMutability": "nonpayable"
    },
    {
      "type": "function",
      "name": "collateralFeeMultiplier",
      "inputs": [],
      "outputs": [
        {
          "name": "",
          "type": "uint256",
          "internalType": "uint256"
        }
      ],
      "stateMutability": "view"
    },
    {
      "type": "function",
      "name": "createPIMWorkflow",
      "inputs": [
        {
          "name": "workflowConfig",
          "type": "tuple",
          "internalType": "struct IOrchestratorFactory_v1.WorkflowConfig",
          "components": [
            {
              "name": "independentUpdates",
              "type": "bool",
              "internalType": "bool"
            },
            {
              "name": "independentUpdateAdmin",
              "type": "address",
              "internalType": "address"
            }
          ]
        },
        {
          "name": "fundingManagerConfig",
          "type": "tuple",
          "internalType": "struct IOrchestratorFactory_v1.ModuleConfig",
          "components": [
            {
              "name": "metadata",
              "type": "tuple",
              "internalType": "struct IModule_v1.Metadata",
              "components": [
                {
                  "name": "majorVersion",
                  "type": "uint256",
                  "internalType": "uint256"
                },
                {
                  "name": "minorVersion",
                  "type": "uint256",
                  "internalType": "uint256"
                },
                {
                  "name": "patchVersion",
                  "type": "uint256",
                  "internalType": "uint256"
                },
                {
                  "name": "url",
                  "type": "string",
                  "internalType": "string"
                },
                {
                  "name": "title",
                  "type": "string",
                  "internalType": "string"
                }
              ]
            },
            {
              "name": "configData",
              "type": "bytes",
              "internalType": "bytes"
            }
          ]
        },
        {
          "name": "authorizerConfig",
          "type": "tuple",
          "internalType": "struct IOrchestratorFactory_v1.ModuleConfig",
          "components": [
            {
              "name": "metadata",
              "type": "tuple",
              "internalType": "struct IModule_v1.Metadata",
              "components": [
                {
                  "name": "majorVersion",
                  "type": "uint256",
                  "internalType": "uint256"
                },
                {
                  "name": "minorVersion",
                  "type": "uint256",
                  "internalType": "uint256"
                },
                {
                  "name": "patchVersion",
                  "type": "uint256",
                  "internalType": "uint256"
                },
                {
                  "name": "url",
                  "type": "string",
                  "internalType": "string"
                },
                {
                  "name": "title",
                  "type": "string",
                  "internalType": "string"
                }
              ]
            },
            {
              "name": "configData",
              "type": "bytes",
              "internalType": "bytes"
            }
          ]
        },
        {
          "name": "paymentProcessorConfig",
          "type": "tuple",
          "internalType": "struct IOrchestratorFactory_v1.ModuleConfig",
          "components": [
            {
              "name": "metadata",
              "type": "tuple",
              "internalType": "struct IModule_v1.Metadata",
              "components": [
                {
                  "name": "majorVersion",
                  "type": "uint256",
                  "internalType": "uint256"
                },
                {
                  "name": "minorVersion",
                  "type": "uint256",
                  "internalType": "uint256"
                },
                {
                  "name": "patchVersion",
                  "type": "uint256",
                  "internalType": "uint256"
                },
                {
                  "name": "url",
                  "type": "string",
                  "internalType": "string"
                },
                {
                  "name": "title",
                  "type": "string",
                  "internalType": "string"
                }
              ]
            },
            {
              "name": "configData",
              "type": "bytes",
              "internalType": "bytes"
            }
          ]
        },
        {
          "name": "moduleConfigs",
          "type": "tuple[]",
          "internalType": "struct IOrchestratorFactory_v1.ModuleConfig[]",
          "components": [
            {
              "name": "metadata",
              "type": "tuple",
              "internalType": "struct IModule_v1.Metadata",
              "components": [
                {
                  "name": "majorVersion",
                  "type": "uint256",
                  "internalType": "uint256"
                },
                {
                  "name": "minorVersion",
                  "type": "uint256",
                  "internalType": "uint256"
                },
                {
                  "name": "patchVersion",
                  "type": "uint256",
                  "internalType": "uint256"
                },
                {
                  "name": "url",
                  "type": "string",
                  "internalType": "string"
                },
                {
                  "name": "title",
                  "type": "string",
                  "internalType": "string"
                }
              ]
            },
            {
              "name": "configData",
              "type": "bytes",
              "internalType": "bytes"
            }
          ]
        },
        {
          "name": "issuanceTokenParams",
          "type": "tuple",
          "internalType": "struct IBondingCurveBase_v1.IssuanceToken",
          "components": [
            {
              "name": "name",
              "type": "string",
              "internalType": "string"
            },
            {
              "name": "symbol",
              "type": "string",
              "internalType": "string"
            },
            {
              "name": "decimals",
              "type": "uint8",
              "internalType": "uint8"
            },
            {
              "name": "maxSupply",
              "type": "uint256",
              "internalType": "uint256"
            }
          ]
        },
        {
          "name": "initialPurchaseAmount",
          "type": "uint256",
          "internalType": "uint256"
        },
        {
          "name": "migrationConfig_",
          "type": "tuple",
          "internalType": "struct IMigrating_PIM_Factory_v1.MigrationConfig",
          "components": [
            {
              "name": "isImmutable",
              "type": "bool",
              "internalType": "bool"
            },
            {
              "name": "migrationThreshold",
              "type": "uint256",
              "internalType": "uint256"
            },
            {
              "name": "dexAdapter",
              "type": "address",
              "internalType": "address"
            },
            {
              "name": "lpTokenRecipient",
              "type": "address",
              "internalType": "address"
            }
          ]
        }
      ],
      "outputs": [
        {
          "name": "",
          "type": "address",
          "internalType": "contract IOrchestrator_v1"
        }
      ],
      "stateMutability": "nonpayable"
    },
    {
      "type": "function",
      "name": "getIsGraduated",
      "inputs": [
        {
          "name": "fundingManager",
          "type": "address",
          "internalType": "address"
        }
      ],
      "outputs": [
        {
          "name": "",
          "type": "bool",
          "internalType": "bool"
        }
      ],
      "stateMutability": "view"
    },
    {
      "type": "function",
      "name": "getIsImmutable",
      "inputs": [
        {
          "name": "fundingManager",
          "type": "address",
          "internalType": "address"
        }
      ],
      "outputs": [
        {
          "name": "",
          "type": "bool",
          "internalType": "bool"
        }
      ],
      "stateMutability": "view"
    },
    {
      "type": "function",
      "name": "getLpTokenRecipient",
      "inputs": [
        {
          "name": "fundingManager",
          "type": "address",
          "internalType": "address"
        }
      ],
      "outputs": [
        {
          "name": "",
          "type": "address",
          "internalType": "address"
        }
      ],
      "stateMutability": "view"
    },
    {
      "type": "function",
      "name": "getMigrationThreshold",
      "inputs": [
        {
          "name": "fundingManager",
          "type": "address",
          "internalType": "address"
        }
      ],
      "outputs": [
        {
          "name": "",
          "type": "uint256",
          "internalType": "uint256"
        }
      ],
      "stateMutability": "view"
    },
    {
      "type": "function",
      "name": "isTrustedForwarder",
      "inputs": [
        {
          "name": "forwarder",
          "type": "address",
          "internalType": "address"
        }
      ],
      "outputs": [
        {
          "name": "",
          "type": "bool",
          "internalType": "bool"
        }
      ],
      "stateMutability": "view"
    },
    {
      "type": "function",
      "name": "issuanceFeeMultiplier",
      "inputs": [],
      "outputs": [
        {
          "name": "",
          "type": "uint256",
          "internalType": "uint256"
        }
      ],
      "stateMutability": "view"
    },
    {
      "type": "function",
      "name": "mainFundingManager",
      "inputs": [],
      "outputs": [
        {
          "name": "",
          "type": "address",
          "internalType": "address"
        }
      ],
      "stateMutability": "view"
    },
    {
      "type": "function",
      "name": "orchestratorFactory",
      "inputs": [],
      "outputs": [
        {
          "name": "",
          "type": "address",
          "internalType": "address"
        }
      ],
      "stateMutability": "view"
    },
    {
      "type": "function",
      "name": "pims",
      "inputs": [
        {
          "name": "fundingManager",
          "type": "address",
          "internalType": "address"
        }
      ],
      "outputs": [
        {
          "name": "isGraduated",
          "type": "bool",
          "internalType": "bool"
        },
        {
          "name": "isImmutable",
          "type": "bool",
          "internalType": "bool"
        },
        {
          "name": "migrationThreshold",
          "type": "uint256",
          "internalType": "uint256"
        },
        {
          "name": "initiator",
          "type": "address",
          "internalType": "address"
        },
        {
          "name": "dexAdapter",
          "type": "address",
          "internalType": "address"
        },
        {
          "name": "lpTokenRecipient",
          "type": "address",
          "internalType": "address"
        },
        {
          "name": "orchestrator",
          "type": "address",
          "internalType": "contract IOrchestrator_v1"
        },
        {
          "name": "initialVirtualIssuanceSupply",
          "type": "uint256",
          "internalType": "uint256"
        },
        {
          "name": "initialVirtualCollateralSupply",
          "type": "uint256",
          "internalType": "uint256"
        }
      ],
      "stateMutability": "view"
    },
    {
      "type": "function",
      "name": "sellTo",
      "inputs": [
        {
          "name": "fundingManager",
          "type": "address",
          "internalType": "address"
        },
        {
          "name": "recipient",
          "type": "address",
          "internalType": "address"
        },
        {
          "name": "amountIn",
          "type": "uint256",
          "internalType": "uint256"
        },
        {
          "name": "minAmountOut",
          "type": "uint256",
          "internalType": "uint256"
        }
      ],
      "outputs": [],
      "stateMutability": "nonpayable"
    },
    {
      "type": "function",
      "name": "setAdmin",
      "inputs": [
        {
          "name": "_admin",
          "type": "address",
          "internalType": "address"
        }
      ],
      "outputs": [],
      "stateMutability": "nonpayable"
    },
    {
      "type": "function",
      "name": "setCollateralFeeMultiplier",
      "inputs": [
        {
          "name": "_collateralFeeMultiplier",
          "type": "uint256",
          "internalType": "uint256"
        }
      ],
      "outputs": [],
      "stateMutability": "nonpayable"
    },
    {
      "type": "function",
      "name": "setIssuanceFeeMultiplier",
      "inputs": [
        {
          "name": "_issuanceFeeMultiplier",
          "type": "uint256",
          "internalType": "uint256"
        }
      ],
      "outputs": [],
      "stateMutability": "nonpayable"
    },
    {
      "type": "function",
      "name": "setMainFundingManager",
      "inputs": [
        {
          "name": "_mainFundingManager",
          "type": "address",
          "internalType": "address"
        }
      ],
      "outputs": [],
      "stateMutability": "nonpayable"
    },
    {
      "type": "function",
      "name": "trustedForwarder",
      "inputs": [],
      "outputs": [
        {
          "name": "",
          "type": "address",
          "internalType": "address"
        }
      ],
      "stateMutability": "view"
    },
    {
      "type": "event",
      "name": "Graduation",
      "inputs": [
        {
          "name": "orchestrator",
          "type": "address",
          "indexed": true,
          "internalType": "address"
        },
        {
          "name": "pool",
          "type": "address",
          "indexed": true,
          "internalType": "address"
        },
        {
          "name": "issuanceTokenAmount",
          "type": "uint256",
          "indexed": false,
          "internalType": "uint256"
        },
        {
          "name": "collateralTokenAmount",
          "type": "uint256",
          "indexed": false,
          "internalType": "uint256"
        },
        {
          "name": "stakingRewards",
          "type": "uint256",
          "indexed": false,
          "internalType": "uint256"
        }
      ],
      "anonymous": false
    },
    {
      "type": "event",
      "name": "PIMWorkflowCreated",
      "inputs": [
        {
          "name": "orchestrator",
          "type": "address",
          "indexed": true,
          "internalType": "address"
        },
        {
          "name": "issuanceToken",
          "type": "address",
          "indexed": true,
          "internalType": "address"
        },
        {
          "name": "deployer",
          "type": "address",
          "indexed": true,
          "internalType": "address"
        },
        {
          "name": "collateralToken",
          "type": "address",
          "indexed": false,
          "internalType": "address"
        },
        {
          "name": "initiator",
          "type": "address",
          "indexed": false,
          "internalType": "address"
        },
        {
          "name": "migrationConfig_",
          "type": "tuple",
          "indexed": false,
          "internalType": "struct IMigrating_PIM_Factory_v1.MigrationConfig",
          "components": [
            {
              "name": "isImmutable",
              "type": "bool",
              "internalType": "bool"
            },
            {
              "name": "migrationThreshold",
              "type": "uint256",
              "internalType": "uint256"
            },
            {
              "name": "dexAdapter",
              "type": "address",
              "internalType": "address"
            },
            {
              "name": "lpTokenRecipient",
              "type": "address",
              "internalType": "address"
            }
          ]
        }
      ],
      "anonymous": false
    },
    {
      "type": "error",
      "name": "PIM_WorkflowFactory__CantBeZeroAddress",
      "inputs": []
    },
    {
      "type": "error",
      "name": "PIM_WorkflowFactory__OnlyAdmin",
      "inputs": []
    },
    {
      "type": "error",
      "name": "PIM_WorkflowFactory__OnlyInitiatorAfterGraduation",
      "inputs": []
    }
  ],
  "bytecode": {
    "object": "0x60a0604052600060035560006004553480156200001b57600080fd5b5060405162004707380380620047078339810160408190526200003e9162000094565b6001600160a01b03918216608052600080546001600160a01b0319908116948416949094179055600180549093169116179055620000de565b80516001600160a01b03811681146200008f57600080fd5b919050565b600080600060608486031215620000aa57600080fd5b620000b58462000077565b9250620000c56020850162000077565b9150620000d56040850162000077565b90509250925092565b6080516145ff62000108600039600081816102f90152818161036301526118e401526145ff6000f3fe60806040523480156200001157600080fd5b50600436106200014f5760003560e01c80636daf301a11620000c0578063ce7c83dd116200008b578063de78c729116200006e578063de78c72914620003e5578063f402c2bb1462000417578063f6819293146200044b57600080fd5b8063ce7c83dd146200039f578063d835422214620003b657600080fd5b80636daf301a1462000333578063704b6c02146200034a5780637da0a877146200036157806380165151146200038857600080fd5b80631cfcc51c116200011e5780633cd2754511620001015780633cd2754514620002cf578063572b6c0514620002e65780635eecade6146200032957600080fd5b80631cfcc51c14620002a25780632f36a25d14620002bb57600080fd5b806303828e7e14620001545780630f25247e14620001855780631248c803146200019e5780631615f65714620001de575b600080fd5b60025462000168906001600160a01b031681565b6040516001600160a01b0390911681526020015b60405180910390f35b6200018f60045481565b6040519081526020016200017c565b620001cd620001af366004620029eb565b6001600160a01b031660009081526005602052604090205460ff1690565b60405190151581526020016200017c565b62000250620001ef366004620029eb565b60056020819052600091825260409091208054600182015460028301546003840154600485015495850154600686015460079096015460ff80871698610100909704169694956001600160a01b039485169593851694908116939216919089565b604080519915158a5297151560208a0152968801959095526001600160a01b0393841660608801529183166080870152821660a08601521660c084015260e0830152610100820152610120016200017c565b620002b9620002b336600462002a12565b62000462565b005b60005462000168906001600160a01b031681565b620002b9620002e0366004620029eb565b62000493565b620001cd620002f7366004620029eb565b7f00000000000000000000000000000000000000000000000000000000000000006001600160a01b0390811691161490565b6200018f60035481565b620001686200034436600462002e9b565b62000509565b620002b96200035b366004620029eb565b620006e5565b7f000000000000000000000000000000000000000000000000000000000000000062000168565b620002b96200039936600462002a12565b6200075b565b620002b9620003b036600462002faf565b6200078c565b6200018f620003c7366004620029eb565b6001600160a01b031660009081526005602052604090206001015490565b62000168620003f6366004620029eb565b6001600160a01b039081166000908152600560205260409020600401541690565b620001cd62000428366004620029eb565b6001600160a01b0316600090815260056020526040902054610100900460ff1690565b620002b96200045c36600462002faf565b62000960565b6001546001600160a01b031633146200048e5760405163d27a836960e01b815260040160405180910390fd5b600455565b6001546001600160a01b03163314620004bf5760405163d27a836960e01b815260040160405180910390fd5b6001600160a01b038116620004e757604051638b22004360e01b815260040160405180910390fd5b600280546001600160a01b0319166001600160a01b0392909216919091179055565b600080620005178562000c75565b90506000806000620005338d8d8d8d8d898c6000015162000cce565b9250925092506000836001600160a01b03166304baed9e6040518163ffffffff1660e01b8152600401602060405180830381865afa1580156200057a573d6000803e3d6000fd5b505050506040513d601f19601f82011682018060405250810190620005a0919062002ffa565b905060008760000151620005b9578760600151620005bb565b305b9050620005cc8286868b8562001099565b60405163cf456ae760e01b81526001600160a01b0383811660048301526001602483015287169063cf456ae790604401600060405180830381600087803b1580156200061757600080fd5b505af11580156200062c573d6000803e3d6000fd5b505050506200063b826200129e565b6200064982848b8762001759565b62000653620018dd565b604080516001600160a01b0386811682528781166020808401919091528c511515838501528c0151606080840191909152928c015181166080830152918b0151821660a082015291811691888216918816907ff3a31cb79568cc2c523dcd7467e718e402436fc2e2aecd9cb74fea01f99224b19060c00160405180910390a450929d9c50505050505050505050505050565b6001546001600160a01b03163314620007115760405163d27a836960e01b815260040160405180910390fd5b6001600160a01b0381166200073957604051638b22004360e01b815260040160405180910390fd5b600180546001600160a01b0319166001600160a01b0392909216919091179055565b6001546001600160a01b03163314620007875760405163d27a836960e01b815260040160405180910390fd5b600355565b60008490506000816001600160a01b0316631ca3bc4f6040518163ffffffff1660e01b8152600401602060405180830381865afa158015620007d2573d6000803e3d6000fd5b505050506040513d601f19601f82011682018060405250810190620007f8919062002ffa565b6040516323b872dd60e01b8152336004820152306024820152604481018690529091506001600160a01b038216906323b872dd906064016020604051808303816000875af11580156200084f573d6000803e3d6000fd5b505050506040513d601f19601f8201168201806040525081019062000875919062003039565b5060405163095ea7b360e01b81526001600160a01b0387811660048301526024820186905282169063095ea7b3906044016020604051808303816000875af1158015620008c6573d6000803e3d6000fd5b505050506040513d601f19601f82011682018060405250810190620008ec919062003039565b506040516362d93eef60e11b81526001600160a01b038681166004830152602482018690526044820185905283169063c5b27dde90606401600060405180830381600087803b1580156200093f57600080fd5b505af115801562000954573d6000803e3d6000fd5b50505050505050505050565b6001600160a01b038085166000818152600560208181526040808420815161012081018352815460ff8082161515835261010091829004161515828601526001830154828501526002830154891660608301526003830154891660808301526004808401548a1660a08401529583015490981660c0820152600682015460e0820152600790910154968101969096528051637e062a3560e11b815290518a959363fc0c546a9383820193909291908290030181865afa15801562000a28573d6000803e3d6000fd5b505050506040513d601f19601f8201168201806040525081019062000a4e919062002ffa565b905060008062000a5f89886200195a565b9092509050801562000c6a576040516323b872dd60e01b8152336004820152306024820152604481018290526001600160a01b038416906323b872dd906064016020604051808303816000875af115801562000abf573d6000803e3d6000fd5b505050506040513d601f19601f8201168201806040525081019062000ae5919062003039565b5060405163095ea7b360e01b81526001600160a01b038a811660048301526024820183905284169063095ea7b3906044016020604051808303816000875af115801562000b36573d6000803e3d6000fd5b505050506040513d601f19601f8201168201806040525081019062000b5c919062003039565b5060008762000b6c83896200306f565b62000b7891906200308f565b60405163935b7dbd60e01b81526001600160a01b038b8116600483015260248201859052604482018390529192509086169063935b7dbd90606401600060405180830381600087803b15801562000bce57600080fd5b505af115801562000be3573d6000803e3d6000fd5b5050505060408681015190516370a0823160e01b81526001600160a01b038c811660048301528616906370a0823190602401602060405180830381865afa15801562000c33573d6000803e3d6000fd5b505050506040513d601f19601f8201168201806040525081019062000c599190620030b2565b106200095457620009548a62001cde565b505050505050505050565b600081600001518260200151836040015184606001513060405162000c9a9062002979565b62000caa95949392919062003114565b604051809103906000f08015801562000cc7573d6000803e3d6000fd5b5092915050565b600080600080886020015190508080602001905181019062000cf1919062002ffa565b604080513060208201529194500160408051601f1981840301815291815260208b81018390528151610120810183526000808252918101829052918201819052606082018190526080820181905260a0820181905260c0820181905260e082018190526101008201529091506020808c01518051909162000d7991830181019083016200317c565b60405190965090935062000d97915089908490879060200162003262565b60408051601f1981840301815291905260208d01819052905060008762000dcd57895162000dc790600162003312565b62000dd0565b89515b67ffffffffffffffff81111562000deb5762000deb62002a2c565b60405190808252806020026020018201604052801562000e2857816020015b62000e1462002987565b81526020019060019003908162000e0a5790505b50905060005b8a5181101562000e7e578a818151811062000e4d5762000e4d62003328565b602002602001015182828151811062000e6a5762000e6a62003328565b602090810291909101015260010162000e2e565b508762000f525760405180604001604052806040518060a001604052806001815260200160008152602001600081526020016040518060600160405280602c81526020016200459e602c91398152604080518082018252601081527f4c4d5f50435f5374616b696e675f7631000000000000000000000000000000006020828101919091529283015291835281516001600160a01b038e168183015292019101604051602081830303815290604052815250818b518151811062000f465762000f4662003328565b60200260200101819052505b60008054906101000a90046001600160a01b03166001600160a01b031663ff2676998f8f8f8f866040518663ffffffff1660e01b815260040162000f9b959493929190620033c1565b6020604051808303816000875af115801562000fbb573d6000803e3d6000fd5b505050506040513d601f19601f8201168201806040525081019062000fe1919062002ffa565b6002549097506001600160a01b031615801562000ffc575087155b156200108857866001600160a01b03166304baed9e6040518163ffffffff1660e01b8152600401602060405180830381865afa15801562001041573d6000803e3d6000fd5b505050506040513d601f19601f8201168201806040525081019062001067919062002ffa565b600280546001600160a01b0319166001600160a01b03929092169190911790555b505050509750975097945050505050565b60405180610120016040528060001515815260200183600001511515815260200183602001518152602001846001600160a01b0316815260200183604001516001600160a01b03168152602001826001600160a01b03168152602001856001600160a01b03168152602001866001600160a01b031663d1c6022f6040518163ffffffff1660e01b8152600401602060405180830381865afa15801562001143573d6000803e3d6000fd5b505050506040513d601f19601f82011682018060405250810190620011699190620030b2565b8152602001866001600160a01b031663bf75292b6040518163ffffffff1660e01b8152600401602060405180830381865afa158015620011ad573d6000803e3d6000fd5b505050506040513d601f19601f82011682018060405250810190620011d39190620030b2565b90526001600160a01b03958616600090815260056020818152604092839020845181549286015161ffff1990931690151561ff00191617610100921515830217815592840151600184015560608401516002840180546001600160a01b0319908116928c1692909217905560808501516003850180548316918c1691909117905560a08501516004850180548316918c1691909117905560c08501519284018054909116929099169190911790975560e0820151600682015595015160079095019490945550505050565b6001600160a01b038082166000908152600560208181526040808420815161012081018352815460ff8082161515835261010091829004161515948201949094526001820154928101929092526002810154861660608301526003810154861660808301526004810154861660a08301529283015490941660c08501819052600683015460e0860152600790920154908401526200133c9062002730565b905060008390506000816001600160a01b0316631ca3bc4f6040518163ffffffff1660e01b8152600401602060405180830381865afa15801562001384573d6000803e3d6000fd5b505050506040513d601f19601f82011682018060405250810190620013aa919062002ffa565b9050836020015162001561578360c001516001600160a01b031663d09edf316040518163ffffffff1660e01b8152600401602060405180830381865afa158015620013f9573d6000803e3d6000fd5b505050506040513d601f19601f820116820180604052508101906200141f919062002ffa565b6001600160a01b0316632f2ff15d8560c001516001600160a01b031663d09edf316040518163ffffffff1660e01b8152600401602060405180830381865afa15801562001470573d6000803e3d6000fd5b505050506040513d601f19601f8201168201806040525081019062001496919062002ffa565b6001600160a01b031663b3ecf2366040518163ffffffff1660e01b8152600401602060405180830381865afa158015620014d4573d6000803e3d6000fd5b505050506040513d601f19601f82011682018060405250810190620014fa9190620030b2565b60608701516040516001600160e01b031960e085901b16815260048101929092526001600160a01b03166024820152604401600060405180830381600087803b1580156200154757600080fd5b505af11580156200155c573d6000803e3d6000fd5b505050505b60405163cf456ae760e01b8152306004820152600160248201526001600160a01b0382169063cf456ae790604401600060405180830381600087803b158015620015aa57600080fd5b505af1158015620015bf573d6000803e3d6000fd5b50505050816001600160a01b0316636c67e807836001600160a01b0316637feb48a16040518163ffffffff1660e01b8152600401602060405180830381865afa15801562001611573d6000803e3d6000fd5b505050506040513d601f19601f82011682018060405250810190620016379190620030b2565b6040516001600160e01b031960e084901b1681526004810191909152306024820152604401600060405180830381600087803b1580156200167757600080fd5b505af11580156200168c573d6000803e3d6000fd5b50505050826001600160a01b0316636c67e807846001600160a01b03166346ebcacf6040518163ffffffff1660e01b8152600401602060405180830381865afa158015620016de573d6000803e3d6000fd5b505050506040513d601f19601f82011682018060405250810190620017049190620030b2565b6040516001600160e01b031960e084901b1681526004810191909152306024820152604401600060405180830381600087803b1580156200174457600080fd5b505af115801562000c6a573d6000803e3d6000fd5b8115620018d757826001600160a01b03166323b872dd62001779620018dd565b6040516001600160e01b031960e084901b1681526001600160a01b039091166004820152306024820152604481018590526064016020604051808303816000875af1158015620017cd573d6000803e3d6000fd5b505050506040513d601f19601f82011682018060405250810190620017f3919062003039565b5060405163095ea7b360e01b81526001600160a01b0385811660048301526024820184905284169063095ea7b3906044016020604051808303816000875af115801562001844573d6000803e3d6000fd5b505050506040513d601f19601f820116820180604052508101906200186a919062003039565b5060405163935b7dbd60e01b81526001600160a01b038281166004830152602482018490526001604483015285169063935b7dbd90606401600060405180830381600087803b158015620018bd57600080fd5b505af1158015620018d2573d6000803e3d6000fd5b505050505b50505050565b60003660147f00000000000000000000000000000000000000000000000000000000000000006001600160a01b0316331480156200191b5750808210155b15620019525760003662001930838562003483565b6200193d92829062003499565b6200194891620034c5565b60601c9250505090565b339250505090565b6001600160a01b038083166000908152600560208181526040808420815161012081018352815460ff808216151583526101009182900416151582860152600183015482850152600283015488166060830152600383015488166080830152600480840154891660a08401529583015490971660c08201819052600683015460e083015260079092015496810196909652815163030d028960e21b8152915194958695909486949293630c340a249381830193909290918290030181865afa15801562001a2b573d6000803e3d6000fd5b505050506040513d601f19601f8201168201806040525081019062001a51919062002ffa565b6001600160a01b031663f2d638266040518163ffffffff1660e01b8152600401602060405180830381865afa15801562001a8f573d6000803e3d6000fd5b505050506040513d601f19601f8201168201806040525081019062001ab5919062002ffa565b905060008690506000816001600160a01b031663fc0c546a6040518163ffffffff1660e01b8152600401602060405180830381865afa15801562001afd573d6000803e3d6000fd5b505050506040513d601f19601f8201168201806040525081019062001b23919062002ffa565b6040516370a0823160e01b81526001600160a01b038a811660048301529192506000918316906370a0823190602401602060405180830381865afa15801562001b70573d6000803e3d6000fd5b505050506040513d601f19601f8201168201806040525081019062001b969190620030b2565b90506000846001600160a01b0316631a3e87336040518163ffffffff1660e01b8152600401602060405180830381865afa15801562001bd9573d6000803e3d6000fd5b505050506040513d601f19601f8201168201806040525081019062001bff9190620030b2565b9050600061271062001c12838c6200306f565b62001c1e91906200308f565b9050600062001c2e828c62003483565b9050600062001c3e828662003312565b9050886040015181111562001cc6576000858a604001511162001c6357600062001c75565b858a6040015162001c75919062003483565b905062001c858561271062003483565b62001c93826127106200306f565b62001c9f91906200308f565b9a508a8d1162001cb157600062001cbd565b62001cbd8b8e62003483565b9b505062001cce565b8b995060009a505b5050505050505050509250929050565b6001600160a01b038082166000908152600560208181526040808420815161012081018352815460ff8082161515835261010091829004161515948201949094526001820154928101929092526002810154861660608301526003810154861660808301526004810154861660a08301529283015490941660c08501819052600683015460e08601526007909201549084015262001d7c9062002730565b905060008390506000816001600160a01b031663fc0c546a6040518163ffffffff1660e01b8152600401602060405180830381865afa15801562001dc4573d6000803e3d6000fd5b505050506040513d601f19601f8201168201806040525081019062001dea919062002ffa565b90506000826001600160a01b0316631ca3bc4f6040518163ffffffff1660e01b8152600401602060405180830381865afa15801562001e2d573d6000803e3d6000fd5b505050506040513d601f19601f8201168201806040525081019062001e53919062002ffa565b90506000836001600160a01b031663cbda8f826040518163ffffffff1660e01b8152600401602060405180830381865afa15801562001e96573d6000803e3d6000fd5b505050506040513d601f19601f8201168201806040525081019062001ebc9190620030b2565b6040516370a0823160e01b81526001600160a01b0389811660048301528516906370a0823190602401602060405180830381865afa15801562001f03573d6000803e3d6000fd5b505050506040513d601f19601f8201168201806040525081019062001f299190620030b2565b62001f35919062003483565b905060006127106003548362001f4c91906200306f565b62001f5891906200308f565b604051638028b82f60e01b81523060048201526001600160a01b038681166024830152604482018590526000606483018190526084830181905260a483015291925090871690638028b82f9060c401600060405180830381600087803b15801562001fc257600080fd5b505af115801562001fd7573d6000803e3d6000fd5b50505050808262001fe9919062003483565b608088015160405163a9059cbb60e01b81526001600160a01b0391821660048201526024810183905291935085169063a9059cbb906044016020604051808303816000875af115801562002041573d6000803e3d6000fd5b505050506040513d601f19601f8201168201806040525081019062002067919062003039565b5060015460405163a9059cbb60e01b81526001600160a01b039182166004820152602481018390529085169063a9059cbb906044016020604051808303816000875af1158015620020bc573d6000803e3d6000fd5b505050506040513d601f19601f82011682018060405250810190620020e2919062003039565b506000600e8860e00151876001600160a01b031663d1c6022f6040518163ffffffff1660e01b8152600401602060405180830381865afa1580156200212b573d6000803e3d6000fd5b505050506040513d601f19601f82011682018060405250810190620021519190620030b2565b6200215d919062003483565b6200216991906200308f565b90506000612710600454836200218091906200306f565b6200218c91906200308f565b90506200219a818362003483565b9150866001600160a01b031663c6ab5cdc6040518163ffffffff1660e01b8152600401600060405180830381600087803b158015620021d857600080fd5b505af1158015620021ed573d6000803e3d6000fd5b50505050866001600160a01b031663ba83c9706040518163ffffffff1660e01b8152600401600060405180830381600087803b1580156200222d57600080fd5b505af115801562002242573d6000803e3d6000fd5b5050505060808901516040516340c10f1960e01b81526001600160a01b03918216600482015260248101849052908616906340c10f1990604401600060405180830381600087803b1580156200229757600080fd5b505af1158015620022ac573d6000803e3d6000fd5b50506001546040516340c10f1960e01b81526001600160a01b0391821660048201526024810185905290881692506340c10f199150604401600060405180830381600087803b158015620022ff57600080fd5b505af115801562002314573d6000803e3d6000fd5b50505060808a015160a08b01516040516332092e4f60e21b81526001600160a01b038a81166004830152898116602483015291821660448201526000935091169063c824b93c906064016020604051808303816000875af11580156200237e573d6000803e3d6000fd5b505050506040513d601f19601f82011682018060405250810190620023a4919062002ffa565b90508960200151156200240c57856001600160a01b031663715018a66040518163ffffffff1660e01b8152600401600060405180830381600087803b158015620023ed57600080fd5b505af115801562002402573d6000803e3d6000fd5b5050505062002470565b60608a015160405163f2fde38b60e01b81526001600160a01b0391821660048201529087169063f2fde38b90602401600060405180830381600087803b1580156200245657600080fd5b505af11580156200246b573d6000803e3d6000fd5b505050505b60018a600001901515908115158152505089600560008d6001600160a01b03166001600160a01b0316815260200190815260200160002060008201518160000160006101000a81548160ff02191690831515021790555060208201518160000160016101000a81548160ff0219169083151502179055506040820151816001015560608201518160020160006101000a8154816001600160a01b0302191690836001600160a01b0316021790555060808201518160030160006101000a8154816001600160a01b0302191690836001600160a01b0316021790555060a08201518160040160006101000a8154816001600160a01b0302191690836001600160a01b0316021790555060c08201518160050160006101000a8154816001600160a01b0302191690836001600160a01b0316021790555060e0820151816006015561010082015181600701559050506000886001600160a01b031663cbda8f826040518163ffffffff1660e01b8152600401602060405180830381865afa158015620025fe573d6000803e3d6000fd5b505050506040513d601f19601f82011682018060405250810190620026249190620030b2565b6002546001600160a01b039081166000908152600560208190526040822001549293509162002654911662002860565b6040516327c49ddd60e11b81526001600160a01b03808316600483015260248201859052919250908b1690634f893bba90604401600060405180830381600087803b158015620026a357600080fd5b505af1158015620026b8573d6000803e3d6000fd5b50505050826001600160a01b03168c60c001516001600160a01b03167f87ece6ae87f63ef38f596f64744e430b4ff9f0ef3c45a93b5e82ae668cbf2181878a8660405162002719939291909283526020830191909152604082015260600190565b60405180910390a350505050505050505050505050565b600080826001600160a01b0316634cfa64876040518163ffffffff1660e01b8152600401600060405180830381865afa15801562002772573d6000803e3d6000fd5b505050506040513d6000823e601f3d908101601f191682016040526200279c9190810190620034fb565b905060005b81518110156200285957818181518110620027c057620027c062003328565b60200260200101516001600160a01b03166346ebcacf6040518163ffffffff1660e01b8152600401602060405180830381865afa92505050801562002824575060408051601f3d908101601f191682019092526200282191810190620030b2565b60015b1562002850575081818151811062002840576200284062003328565b6020026020010151925062002859565b600101620027a1565b5050919050565b600080826001600160a01b0316634cfa64876040518163ffffffff1660e01b8152600401600060405180830381865afa158015620028a2573d6000803e3d6000fd5b505050506040513d6000823e601f3d908101601f19168201604052620028cc9190810190620034fb565b905060005b81518110156200285957818181518110620028f057620028f062003328565b60200260200101516001600160a01b0316637b0a47ee6040518163ffffffff1660e01b8152600401602060405180830381865afa92505050801562002954575060408051601f3d908101601f191682019092526200295191810190620030b2565b60015b1562002970575081818151811062002840576200284062003328565b600101620028d1565b610ffd80620035a183390190565b6040518060400160405280620029c56040518060a0016040528060008152602001600081526020016000815260200160608152602001606081525090565b8152602001606081525090565b6001600160a01b0381168114620029e857600080fd5b50565b600060208284031215620029fe57600080fd5b813562002a0b81620029d2565b9392505050565b60006020828403121562002a2557600080fd5b5035919050565b634e487b7160e01b600052604160045260246000fd5b6040805190810167ffffffffffffffff8111828210171562002a685762002a6862002a2c565b60405290565b60405160a0810167ffffffffffffffff8111828210171562002a685762002a6862002a2c565b6040516080810167ffffffffffffffff8111828210171562002a685762002a6862002a2c565b604051610120810167ffffffffffffffff8111828210171562002a685762002a6862002a2c565b604051601f8201601f1916810167ffffffffffffffff8111828210171562002b0d5762002b0d62002a2c565b604052919050565b8015158114620029e857600080fd5b60006040828403121562002b3757600080fd5b62002b4162002a42565b9050813562002b508162002b15565b8152602082013562002b6281620029d2565b602082015292915050565b600082601f83011262002b7f57600080fd5b813567ffffffffffffffff81111562002b9c5762002b9c62002a2c565b62002bb1601f8201601f191660200162002ae1565b81815284602083860101111562002bc757600080fd5b816020850160208301376000918101602001919091529392505050565b60006040828403121562002bf757600080fd5b62002c0162002a42565b9050813567ffffffffffffffff8082111562002c1c57600080fd5b9083019060a0828603121562002c3157600080fd5b62002c3b62002a6e565b82358152602083013560208201526040830135604082015260608301358281111562002c6657600080fd5b62002c748782860162002b6d565b60608301525060808301358281111562002c8d57600080fd5b62002c9b8782860162002b6d565b6080830152508352602084013591508082111562002cb857600080fd5b5062002cc78482850162002b6d565b60208301525092915050565b600067ffffffffffffffff82111562002cf05762002cf062002a2c565b5060051b60200190565b600082601f83011262002d0c57600080fd5b8135602062002d2562002d1f8362002cd3565b62002ae1565b82815260059290921b8401810191818101908684111562002d4557600080fd5b8286015b8481101562002d8a57803567ffffffffffffffff81111562002d6b5760008081fd5b62002d7b8986838b010162002be4565b84525091830191830162002d49565b509695505050505050565b60006080828403121562002da857600080fd5b62002db262002a94565b9050813567ffffffffffffffff8082111562002dcd57600080fd5b62002ddb8583860162002b6d565b8352602084013591508082111562002df257600080fd5b5062002e018482850162002b6d565b602083015250604082013560ff8116811462002e1c57600080fd5b806040830152506060820135606082015292915050565b60006080828403121562002e4657600080fd5b62002e5062002a94565b9050813562002e5f8162002b15565b815260208281013590820152604082013562002e7b81620029d2565b6040820152606082013562002e9081620029d2565b606082015292915050565b600080600080600080600080610180898b03121562002eb957600080fd5b62002ec58a8a62002b24565b9750604089013567ffffffffffffffff8082111562002ee357600080fd5b62002ef18c838d0162002be4565b985060608b013591508082111562002f0857600080fd5b62002f168c838d0162002be4565b975060808b013591508082111562002f2d57600080fd5b62002f3b8c838d0162002be4565b965060a08b013591508082111562002f5257600080fd5b62002f608c838d0162002cfa565b955060c08b013591508082111562002f7757600080fd5b5062002f868b828c0162002d95565b93505060e0890135915062002fa08a6101008b0162002e33565b90509295985092959890939650565b6000806000806080858703121562002fc657600080fd5b843562002fd381620029d2565b9350602085013562002fe581620029d2565b93969395505050506040820135916060013590565b6000602082840312156200300d57600080fd5b815162002a0b81620029d2565b80516200302781620029d2565b919050565b8051620030278162002b15565b6000602082840312156200304c57600080fd5b815162002a0b8162002b15565b634e487b7160e01b600052601160045260246000fd5b808202811582820484141762003089576200308962003059565b92915050565b600082620030ad57634e487b7160e01b600052601260045260246000fd5b500490565b600060208284031215620030c557600080fd5b5051919050565b6000815180845260005b81811015620030f457602081850181015186830182015201620030d6565b506000602082860101526020601f19601f83011685010191505092915050565b60a0815260006200312960a0830188620030cc565b82810360208401526200313d8188620030cc565b60ff969096166040840152505060608101929092526001600160a01b031660809091015292915050565b805163ffffffff811681146200302757600080fd5b60008060008385036101608112156200319457600080fd5b8451620031a181620029d2565b9350610120601f198201811315620031b857600080fd5b620031c262002aba565b9150620031d2602087016200301a565b8252620031e26040870162003167565b6020830152620031f56060870162003167565b60408301526080860151606083015260a086015160808301526200321c60c087016200302c565b60a08301526200322f60e087016200302c565b60c08301526101008681015160e0840152908601519082015291506200325961014085016200301a565b90509250925092565b6000610160820190506001600160a01b0380861683528085511660208401525063ffffffff60208501511660408301526040840151620032aa606084018263ffffffff169052565b5060608401516080830152608084015160a083015260a0840151620032d360c084018215159052565b5060c084015180151560e08401525060e0840151610100838101919091528401516101208301526001600160a01b038316610140830152949350505050565b8082018082111562003089576200308962003059565b634e487b7160e01b600052603260045260246000fd5b6000815160408452805160408501526020810151606085015260408101516080850152606081015160a0808601526200337b60e0860182620030cc565b905060808201519150603f198582030160c08601526200339c8183620030cc565b91505060208301518482036020860152620033b88282620030cc565b95945050505050565b855115158152600060206001600160a01b0381890151168184015260c06040840152620033f260c08401886200333e565b83810360608501526200340681886200333e565b905083810360808501526200341c81876200333e565b905083810360a08501528085518083528383019150838160051b84010184880160005b838110156200347157601f198684030185526200345e8383516200333e565b948701949250908601906001016200343f565b50909c9b505050505050505050505050565b8181038181111562003089576200308962003059565b60008085851115620034aa57600080fd5b83861115620034b857600080fd5b5050820193919092039150565b6bffffffffffffffffffffffff198135818116916014851015620034f35780818660140360031b1b83161692505b505092915050565b600060208083850312156200350f57600080fd5b825167ffffffffffffffff8111156200352757600080fd5b8301601f810185136200353957600080fd5b80516200354a62002d1f8262002cd3565b81815260059190911b820183019083810190878311156200356a57600080fd5b928401925b82841015620035955783516200358581620029d2565b825292840192908401906200356f565b97965050505050505056fe60c06040523480156200001157600080fd5b5060405162000ffd38038062000ffd833981016040819052620000349162000254565b80828686600362000046838262000395565b50600462000055828262000395565b50505080600003620000825760405163392e1e2760e01b8152600060048201526024015b60405180910390fd5b6080526001600160a01b038116620000b157604051631e4fbdf760e01b81526000600482015260240162000079565b620000bc81620000db565b50620000ca8160016200012d565b505060ff1660a05250620004619050565b600580546001600160a01b038381166001600160a01b0319831681179093556040519116919082907f8be0079c531659141344cd1fd0a4f28419497f9722a3daafe3b4186f6b6457e090600090a35050565b6001600160a01b038216600081815260066020908152604091829020805460ff191685151590811790915591519182527f583b0aa0e528532caf4b907c11d7a8158a122fe2a6fb80cd9b09776ebea8d92d910160405180910390a25050565b634e487b7160e01b600052604160045260246000fd5b600082601f830112620001b457600080fd5b81516001600160401b0380821115620001d157620001d16200018c565b604051601f8301601f19908116603f01168101908282118183101715620001fc57620001fc6200018c565b81604052838152602092508660208588010111156200021a57600080fd5b600091505b838210156200023e57858201830151818301840152908201906200021f565b6000602085830101528094505050505092915050565b600080600080600060a086880312156200026d57600080fd5b85516001600160401b03808211156200028557600080fd5b6200029389838a01620001a2565b96506020880151915080821115620002aa57600080fd5b50620002b988828901620001a2565b945050604086015160ff81168114620002d157600080fd5b6060870151608088015191945092506001600160a01b0381168114620002f657600080fd5b809150509295509295909350565b600181811c908216806200031957607f821691505b6020821081036200033a57634e487b7160e01b600052602260045260246000fd5b50919050565b601f82111562000390576000816000526020600020601f850160051c810160208610156200036b5750805b601f850160051c820191505b818110156200038c5782815560010162000377565b5050505b505050565b81516001600160401b03811115620003b157620003b16200018c565b620003c981620003c2845462000304565b8462000340565b602080601f831160018114620004015760008415620003e85750858301515b600019600386901b1c1916600185901b1785556200038c565b600085815260208120601f198616915b82811015620004325788860151825594840194600190910190840162000411565b5085821015620004515787850151600019600388901b60f8161c191681555b5050505050600190811b01905550565b60805160a051610b6f6200048e600039600061018d0152600081816101b901526108000152610b6f6000f3fe608060405234801561001057600080fd5b506004361061011b5760003560e01c806370a08231116100b25780639dc29fac11610081578063cf456ae711610066578063cf456ae71461028f578063dd62ed3e146102a2578063f2fde38b146102db57600080fd5b80639dc29fac14610269578063a9059cbb1461027c57600080fd5b806370a0823114610215578063715018a61461023e5780638da5cb5b1461024657806395d89b411461026157600080fd5b8063313ce567116100ee578063313ce56714610186578063355274ea146101b757806340c10f19146101dd578063423afa66146101f257600080fd5b806306fdde0314610120578063095ea7b31461013e57806318160ddd1461016157806323b872dd14610173575b600080fd5b6101286102ee565b604051610135919061097c565b60405180910390f35b61015161014c3660046109e7565b610380565b6040519015158152602001610135565b6002545b604051908152602001610135565b610151610181366004610a11565b61039a565b60405160ff7f0000000000000000000000000000000000000000000000000000000000000000168152602001610135565b7f0000000000000000000000000000000000000000000000000000000000000000610165565b6101f06101eb3660046109e7565b6103be565b005b610151610200366004610a4d565b60066020526000908152604090205460ff1681565b610165610223366004610a4d565b6001600160a01b031660009081526020819052604090205490565b6101f06103fc565b6005546040516001600160a01b039091168152602001610135565b610128610410565b6101f06102773660046109e7565b61041f565b61015161028a3660046109e7565b610459565b6101f061029d366004610a6f565b610467565b6101656102b0366004610aab565b6001600160a01b03918216600090815260016020908152604080832093909416825291909152205490565b6101f06102e9366004610a4d565b610479565b6060600380546102fd90610ade565b80601f016020809104026020016040519081016040528092919081815260200182805461032990610ade565b80156103765780601f1061034b57610100808354040283529160200191610376565b820191906000526020600020905b81548152906001019060200180831161035957829003601f168201915b5050505050905090565b60003361038e8185856104bc565b60019150505b92915050565b6000336103a88582856104ce565b6103b385858561054c565b506001949350505050565b3360009081526006602052604090205460ff166103ee57604051634199e25360e11b815260040160405180910390fd5b6103f882826105ab565b5050565b6104046105e1565b61040e600061060e565b565b6060600480546102fd90610ade565b3360009081526006602052604090205460ff1661044f57604051634199e25360e11b815260040160405180910390fd5b6103f88282610678565b60003361038e81858561054c565b61046f6105e1565b6103f882826106ae565b6104816105e1565b6001600160a01b0381166104b057604051631e4fbdf760e01b8152600060048201526024015b60405180910390fd5b6104b98161060e565b50565b6104c9838383600161070d565b505050565b6001600160a01b038381166000908152600160209081526040808320938616835292905220546000198114610546578181101561053757604051637dc7a0d960e11b81526001600160a01b038416600482015260248101829052604481018390526064016104a7565b6105468484848403600061070d565b50505050565b6001600160a01b03831661057657604051634b637e8f60e11b8152600060048201526024016104a7565b6001600160a01b0382166105a05760405163ec442f0560e01b8152600060048201526024016104a7565b6104c98383836107e2565b6001600160a01b0382166105d55760405163ec442f0560e01b8152600060048201526024016104a7565b6103f8600083836107e2565b6005546001600160a01b0316331461040e5760405163118cdaa760e01b81523360048201526024016104a7565b600580546001600160a01b038381167fffffffffffffffffffffffff0000000000000000000000000000000000000000831681179093556040519116919082907f8be0079c531659141344cd1fd0a4f28419497f9722a3daafe3b4186f6b6457e090600090a35050565b6001600160a01b0382166106a257604051634b637e8f60e11b8152600060048201526024016104a7565b6103f8826000836107e2565b6001600160a01b038216600081815260066020908152604091829020805460ff191685151590811790915591519182527f583b0aa0e528532caf4b907c11d7a8158a122fe2a6fb80cd9b09776ebea8d92d910160405180910390a25050565b6001600160a01b0384166107375760405163e602df0560e01b8152600060048201526024016104a7565b6001600160a01b03831661076157604051634a1406b160e11b8152600060048201526024016104a7565b6001600160a01b038085166000908152600160209081526040808320938716835292905220829055801561054657826001600160a01b0316846001600160a01b03167f8c5be1e5ebec7d5bd14f71427d1e84f3dd0314c0f7b2291e5b200ac8c7c3b925846040516107d491815260200190565b60405180910390a350505050565b6107ed838383610852565b6001600160a01b0383166104c9576002547f0000000000000000000000000000000000000000000000000000000000000000908181111561084b5760405163279e7e1560e21b815260048101829052602481018390526044016104a7565b5050505050565b6001600160a01b03831661087d5780600260008282546108729190610b18565b909155506108ef9050565b6001600160a01b038316600090815260208190526040902054818110156108d05760405163391434e360e21b81526001600160a01b038516600482015260248101829052604481018390526064016104a7565b6001600160a01b03841660009081526020819052604090209082900390555b6001600160a01b03821661090b5760028054829003905561092a565b6001600160a01b03821660009081526020819052604090208054820190555b816001600160a01b0316836001600160a01b03167fddf252ad1be2c89b69c2b068fc378daa952ba7f163c4a11628f55a4df523b3ef8360405161096f91815260200190565b60405180910390a3505050565b60006020808352835180602085015260005b818110156109aa5785810183015185820160400152820161098e565b506000604082860101526040601f19601f8301168501019250505092915050565b80356001600160a01b03811681146109e257600080fd5b919050565b600080604083850312156109fa57600080fd5b610a03836109cb565b946020939093013593505050565b600080600060608486031215610a2657600080fd5b610a2f846109cb565b9250610a3d602085016109cb565b9150604084013590509250925092565b600060208284031215610a5f57600080fd5b610a68826109cb565b9392505050565b60008060408385031215610a8257600080fd5b610a8b836109cb565b915060208301358015158114610aa057600080fd5b809150509250929050565b60008060408385031215610abe57600080fd5b610ac7836109cb565b9150610ad5602084016109cb565b90509250929050565b600181811c90821680610af257607f821691505b602082108103610b1257634e487b7160e01b600052602260045260246000fd5b50919050565b8082018082111561039457634e487b7160e01b600052601160045260246000fdfea26469706673582212200d68669bd9d7a7cf36532e94088db26b3e972e6649ce1d5bd2b0e1bd50d1234764736f6c6343000817003368747470733a2f2f6769746875622e636f6d2f496e7665727465724e6574776f726b2f636f6e747261637473a264697066735822122022d74a2b3dc4078724ac561f622a3d1e2527e054cbb633a2da77c028b94c1df164736f6c63430008170033",
    "linkReferences": {}
  },
  "methodIdentifiers": {
    "buyFor(address,address,uint256,uint256)": "f6819293",
    "collateralFeeMultiplier()": "5eecade6",
    "createPIMWorkflow((bool,address),((uint256,uint256,uint256,string,string),bytes),((uint256,uint256,uint256,string,string),bytes),((uint256,uint256,uint256,string,string),bytes),((uint256,uint256,uint256,string,string),bytes)[],(string,string,uint8,uint256),uint256,(bool,uint256,address,address))": "6daf301a",
    "getIsGraduated(address)": "1248c803",
    "getIsImmutable(address)": "f402c2bb",
    "getLpTokenRecipient(address)": "de78c729",
    "getMigrationThreshold(address)": "d8354222",
    "isTrustedForwarder(address)": "572b6c05",
    "issuanceFeeMultiplier()": "0f25247e",
    "mainFundingManager()": "03828e7e",
    "orchestratorFactory()": "2f36a25d",
    "pims(address)": "1615f657",
    "sellTo(address,address,uint256,uint256)": "ce7c83dd",
    "setAdmin(address)": "704b6c02",
    "setCollateralFeeMultiplier(uint256)": "80165151",
    "setIssuanceFeeMultiplier(uint256)": "1cfcc51c",
    "setMainFundingManager(address)": "3cd27545",
    "trustedForwarder()": "7da0a877"
  },
  "id": 78
}