{
  "abi": [
    {
      "type": "constructor",
      "inputs": [
        {
          "name": "_orchestratorFactory",
          "type": "address",
          "internalType": "address"
        },
        {
          "name": "_trustedForwarder",
          "type": "address",
          "internalType": "address"
        }
      ],
      "stateMutability": "nonpayable"
    },
    {
      "type": "function",
      "name": "buyForUpTo",
      "inputs": [
        {
          "name": "issuanceToken",
          "type": "address",
          "internalType": "address"
        },
        {
          "name": "recipient",
          "type": "address",
          "internalType": "address"
        },
        {
          "name": "amountIn",
          "type": "uint256",
          "internalType": "uint256"
        },
        {
          "name": "minAmountOut",
          "type": "uint256",
          "internalType": "uint256"
        }
      ],
      "outputs": [],
      "stateMutability": "nonpayable"
    },
    {
      "type": "function",
      "name": "createPIMWorkflow",
      "inputs": [
        {
          "name": "workflowConfig",
          "type": "tuple",
          "internalType": "struct IOrchestratorFactory_v1.WorkflowConfig",
          "components": [
            {
              "name": "independentUpdates",
              "type": "bool",
              "internalType": "bool"
            },
            {
              "name": "independentUpdateAdmin",
              "type": "address",
              "internalType": "address"
            }
          ]
        },
        {
          "name": "fundingManagerConfig",
          "type": "tuple",
          "internalType": "struct IOrchestratorFactory_v1.ModuleConfig",
          "components": [
            {
              "name": "metadata",
              "type": "tuple",
              "internalType": "struct IModule_v1.Metadata",
              "components": [
                {
                  "name": "majorVersion",
                  "type": "uint256",
                  "internalType": "uint256"
                },
                {
                  "name": "minorVersion",
                  "type": "uint256",
                  "internalType": "uint256"
                },
                {
                  "name": "patchVersion",
                  "type": "uint256",
                  "internalType": "uint256"
                },
                {
                  "name": "url",
                  "type": "string",
                  "internalType": "string"
                },
                {
                  "name": "title",
                  "type": "string",
                  "internalType": "string"
                }
              ]
            },
            {
              "name": "configData",
              "type": "bytes",
              "internalType": "bytes"
            }
          ]
        },
        {
          "name": "authorizerConfig",
          "type": "tuple",
          "internalType": "struct IOrchestratorFactory_v1.ModuleConfig",
          "components": [
            {
              "name": "metadata",
              "type": "tuple",
              "internalType": "struct IModule_v1.Metadata",
              "components": [
                {
                  "name": "majorVersion",
                  "type": "uint256",
                  "internalType": "uint256"
                },
                {
                  "name": "minorVersion",
                  "type": "uint256",
                  "internalType": "uint256"
                },
                {
                  "name": "patchVersion",
                  "type": "uint256",
                  "internalType": "uint256"
                },
                {
                  "name": "url",
                  "type": "string",
                  "internalType": "string"
                },
                {
                  "name": "title",
                  "type": "string",
                  "internalType": "string"
                }
              ]
            },
            {
              "name": "configData",
              "type": "bytes",
              "internalType": "bytes"
            }
          ]
        },
        {
          "name": "paymentProcessorConfig",
          "type": "tuple",
          "internalType": "struct IOrchestratorFactory_v1.ModuleConfig",
          "components": [
            {
              "name": "metadata",
              "type": "tuple",
              "internalType": "struct IModule_v1.Metadata",
              "components": [
                {
                  "name": "majorVersion",
                  "type": "uint256",
                  "internalType": "uint256"
                },
                {
                  "name": "minorVersion",
                  "type": "uint256",
                  "internalType": "uint256"
                },
                {
                  "name": "patchVersion",
                  "type": "uint256",
                  "internalType": "uint256"
                },
                {
                  "name": "url",
                  "type": "string",
                  "internalType": "string"
                },
                {
                  "name": "title",
                  "type": "string",
                  "internalType": "string"
                }
              ]
            },
            {
              "name": "configData",
              "type": "bytes",
              "internalType": "bytes"
            }
          ]
        },
        {
          "name": "moduleConfigs",
          "type": "tuple[]",
          "internalType": "struct IOrchestratorFactory_v1.ModuleConfig[]",
          "components": [
            {
              "name": "metadata",
              "type": "tuple",
              "internalType": "struct IModule_v1.Metadata",
              "components": [
                {
                  "name": "majorVersion",
                  "type": "uint256",
                  "internalType": "uint256"
                },
                {
                  "name": "minorVersion",
                  "type": "uint256",
                  "internalType": "uint256"
                },
                {
                  "name": "patchVersion",
                  "type": "uint256",
                  "internalType": "uint256"
                },
                {
                  "name": "url",
                  "type": "string",
                  "internalType": "string"
                },
                {
                  "name": "title",
                  "type": "string",
                  "internalType": "string"
                }
              ]
            },
            {
              "name": "configData",
              "type": "bytes",
              "internalType": "bytes"
            }
          ]
        },
        {
          "name": "issuanceTokenParams",
          "type": "tuple",
          "internalType": "struct IBondingCurveBase_v1.IssuanceToken",
          "components": [
            {
              "name": "name",
              "type": "string",
              "internalType": "string"
            },
            {
              "name": "symbol",
              "type": "string",
              "internalType": "string"
            },
            {
              "name": "decimals",
              "type": "uint8",
              "internalType": "uint8"
            },
            {
              "name": "maxSupply",
              "type": "uint256",
              "internalType": "uint256"
            }
          ]
        },
        {
          "name": "initialPurchaseAmount",
          "type": "uint256",
          "internalType": "uint256"
        },
        {
          "name": "migrationConfig_",
          "type": "tuple",
          "internalType": "struct IMigrating_PIM_Factory_v1.MigrationConfig",
          "components": [
            {
              "name": "isImmutable",
              "type": "bool",
              "internalType": "bool"
            },
            {
              "name": "migrationThreshold",
              "type": "uint256",
              "internalType": "uint256"
            },
            {
              "name": "dexAdapter",
              "type": "address",
              "internalType": "address"
            },
            {
              "name": "lpTokenRecipient",
              "type": "address",
              "internalType": "address"
            }
          ]
        }
      ],
      "outputs": [
        {
          "name": "",
          "type": "address",
          "internalType": "contract IOrchestrator_v1"
        }
      ],
      "stateMutability": "nonpayable"
    },
    {
      "type": "function",
      "name": "dexAdapter",
      "inputs": [],
      "outputs": [
        {
          "name": "",
          "type": "address",
          "internalType": "contract IDexAdapter_v1"
        }
      ],
      "stateMutability": "view"
    },
    {
      "type": "function",
      "name": "isGraduated",
      "inputs": [],
      "outputs": [
        {
          "name": "",
          "type": "bool",
          "internalType": "bool"
        }
      ],
      "stateMutability": "view"
    },
    {
      "type": "function",
      "name": "isImmutable",
      "inputs": [],
      "outputs": [
        {
          "name": "",
          "type": "bool",
          "internalType": "bool"
        }
      ],
      "stateMutability": "view"
    },
    {
      "type": "function",
      "name": "isTrustedForwarder",
      "inputs": [
        {
          "name": "forwarder",
          "type": "address",
          "internalType": "address"
        }
      ],
      "outputs": [
        {
          "name": "",
          "type": "bool",
          "internalType": "bool"
        }
      ],
      "stateMutability": "view"
    },
    {
      "type": "function",
      "name": "lpTokenRecipient",
      "inputs": [],
      "outputs": [
        {
          "name": "",
          "type": "address",
          "internalType": "address"
        }
      ],
      "stateMutability": "view"
    },
    {
      "type": "function",
      "name": "migrationThreshold",
      "inputs": [],
      "outputs": [
        {
          "name": "",
          "type": "uint256",
          "internalType": "uint256"
        }
      ],
      "stateMutability": "view"
    },
    {
      "type": "function",
      "name": "orchestratorFactory",
      "inputs": [],
      "outputs": [
        {
          "name": "",
          "type": "address",
          "internalType": "address"
        }
      ],
      "stateMutability": "view"
    },
    {
      "type": "function",
      "name": "pims",
      "inputs": [
        {
          "name": "issuanceToken",
          "type": "address",
          "internalType": "address"
        }
      ],
      "outputs": [
        {
          "name": "orchestrator",
          "type": "address",
          "internalType": "contract IOrchestrator_v1"
        },
        {
          "name": "initialVirtualIssuanceSupply",
          "type": "uint256",
          "internalType": "uint256"
        },
        {
          "name": "initialVirtualCollateralSupply",
          "type": "uint256",
          "internalType": "uint256"
        }
      ],
      "stateMutability": "view"
    },
    {
      "type": "function",
      "name": "sellTo",
      "inputs": [
        {
          "name": "issuanceToken",
          "type": "address",
          "internalType": "address"
        },
        {
          "name": "recipient",
          "type": "address",
          "internalType": "address"
        },
        {
          "name": "amountIn",
          "type": "uint256",
          "internalType": "uint256"
        },
        {
          "name": "minAmountOut",
          "type": "uint256",
          "internalType": "uint256"
        }
      ],
      "outputs": [],
      "stateMutability": "nonpayable"
    },
    {
      "type": "function",
      "name": "trustedForwarder",
      "inputs": [],
      "outputs": [
        {
          "name": "",
          "type": "address",
          "internalType": "address"
        }
      ],
      "stateMutability": "view"
    },
    {
      "type": "event",
      "name": "Graduation",
      "inputs": [
        {
          "name": "issuanceToken",
          "type": "address",
          "indexed": true,
          "internalType": "address"
        },
        {
          "name": "collateralToken",
          "type": "address",
          "indexed": true,
          "internalType": "address"
        },
        {
          "name": "pool",
          "type": "address",
          "indexed": true,
          "internalType": "address"
        },
        {
          "name": "issuanceTokenAmount",
          "type": "uint256",
          "indexed": false,
          "internalType": "uint256"
        },
        {
          "name": "collateralTokenAmount",
          "type": "uint256",
          "indexed": false,
          "internalType": "uint256"
        }
      ],
      "anonymous": false
    },
    {
      "type": "event",
      "name": "PIMWorkflowCreated",
      "inputs": [
        {
          "name": "fundingManager",
          "type": "address",
          "indexed": true,
          "internalType": "address"
        },
        {
          "name": "issuanceToken",
          "type": "address",
          "indexed": true,
          "internalType": "address"
        },
        {
          "name": "deployer",
          "type": "address",
          "indexed": true,
          "internalType": "address"
        },
        {
          "name": "isImmutable",
          "type": "bool",
          "indexed": false,
          "internalType": "bool"
        },
        {
          "name": "migrationThreshold",
          "type": "uint256",
          "indexed": false,
          "internalType": "uint256"
        },
        {
          "name": "lpTokenRecipient",
          "type": "address",
          "indexed": false,
          "internalType": "address"
        }
      ],
      "anonymous": false
    },
    {
      "type": "event",
      "name": "PimFeeClaimed",
      "inputs": [
        {
          "name": "fundingManager",
          "type": "address",
          "indexed": true,
          "internalType": "address"
        },
        {
          "name": "claimer",
          "type": "address",
          "indexed": true,
          "internalType": "address"
        },
        {
          "name": "to",
          "type": "address",
          "indexed": true,
          "internalType": "address"
        },
        {
          "name": "amount",
          "type": "uint256",
          "indexed": false,
          "internalType": "uint256"
        }
      ],
      "anonymous": false
    },
    {
      "type": "event",
      "name": "PimFeeRecipientUpdated",
      "inputs": [
        {
          "name": "fundingManager",
          "type": "address",
          "indexed": true,
          "internalType": "address"
        },
        {
          "name": "oldRecipient",
          "type": "address",
          "indexed": true,
          "internalType": "address"
        },
        {
          "name": "newRecipient",
          "type": "address",
          "indexed": true,
          "internalType": "address"
        }
      ],
      "anonymous": false
    },
    {
      "type": "error",
      "name": "PIM_WorkflowFactory__AlreadyGraduated",
      "inputs": []
    },
    {
      "type": "error",
      "name": "PIM_WorkflowFactory__OnlyPimFeeRecipient",
      "inputs": []
    }
  ],
  "bytecode": {
    "object": "0x60a06040523480156200001157600080fd5b5060405162003b8f38038062003b8f83398101604081905262000034916200008a565b6001600160a01b039081166080526001805460ff60a81b19169055600080546001600160a01b03191692909116919091179055620000c2565b80516001600160a01b03811681146200008557600080fd5b919050565b600080604083850312156200009e57600080fd5b620000a9836200006d565b9150620000b9602084016200006d565b90509250929050565b608051613aa3620000ec600039600081816101a4015281816101fe015261162e0152613aa36000f3fe60806040523480156200001157600080fd5b5060043610620000e55760003560e01c806390bc1e85116200008b578063bb0aa8ef1162000062578063bb0aa8ef1462000265578063ce7c83dd146200027a578063fcde9847146200029357600080fd5b806390bc1e85146200022357806391f03efd146200023c5780639e5f2602146200025057600080fd5b8063572b6c0511620000c0578063572b6c0514620001915780636daf301a14620001e55780637da0a87714620001fc57600080fd5b80631615f65714620000ea57806316b4ad7a14620001505780632f36a25d146200017d575b600080fd5b62000126620000fb36600462001f12565b6004602052600090815260409020805460018201546002909201546001600160a01b03909116919083565b604080516001600160a01b0390941684526020840192909252908201526060015b60405180910390f35b60035462000164906001600160a01b031681565b6040516001600160a01b03909116815260200162000147565b60005462000164906001600160a01b031681565b620001d4620001a236600462001f12565b7f00000000000000000000000000000000000000000000000000000000000000006001600160a01b0390811691161490565b604051901515815260200162000147565b62000164620001f6366004620023a8565b620002aa565b7f000000000000000000000000000000000000000000000000000000000000000062000164565b6200022d60025481565b60405190815260200162000147565b60015462000164906001600160a01b031681565b600154620001d490600160a81b900460ff1681565b600154620001d490600160a01b900460ff1681565b620002916200028b366004620024bc565b620006ae565b005b62000291620002a4366004620024bc565b620008b3565b805160018054602084015160025560408401517fffffffffffffffffffffff000000000000000000000000000000000000000000909116600160a01b93151584026001600160a01b031916176001600160a01b03909116179081905560009160ff910416156200032c57600380546001600160a01b0319163017905562000351565b6060820151600380546001600160a01b0319166001600160a01b039092169190911790555b6000846000015185602001518660400151876060015130604051620003769062001eeb565b620003869594939291906200254f565b604051809103906000f080158015620003a3573d6000803e3d6000fd5b5090506000806000620003bb8d8d8d8d8d8962000d69565b9250925092506000836001600160a01b03166304baed9e6040518163ffffffff1660e01b8152600401602060405180830381865afa15801562000402573d6000803e3d6000fd5b505050506040513d601f19601f82011682018060405250810190620004289190620025a2565b90506040518060600160405280856001600160a01b03168152602001826001600160a01b031663d1c6022f6040518163ffffffff1660e01b8152600401602060405180830381865afa15801562000483573d6000803e3d6000fd5b505050506040513d601f19601f82011682018060405250810190620004a99190620025c2565b8152602001826001600160a01b031663bf75292b6040518163ffffffff1660e01b8152600401602060405180830381865afa158015620004ed573d6000803e3d6000fd5b505050506040513d601f19601f82011682018060405250810190620005139190620025c2565b90526001600160a01b03868116600081815260046020818152604092839020865181546001600160a01b0319169087161781559086015160018083019190915595830151600290910155905163cf456ae760e01b815292851690830152602482019290925263cf456ae790604401600060405180830381600087803b1580156200059c57600080fd5b505af1158015620005b1573d6000803e3d6000fd5b50505050620005c08562000ef3565b620005ce81838a86620014a3565b846001600160a01b031663715018a66040518163ffffffff1660e01b8152600401600060405180830381600087803b1580156200060a57600080fd5b505af11580156200061f573d6000803e3d6000fd5b505050506200062d62001627565b60015460025460035460408051600160a01b90940460ff161515845260208401929092526001600160a01b03908116918301919091529182169187811691908716907fd48997388cefe01f404a6f289de0365da97616ade304f75e7f2d994affbc985c9060600160405180910390a450919c9b505050505050505050505050565b6001600160a01b0380851660009081526004602081815260408084208151606081018352815490961680875260018201548785015260029091015486830152815163025d76cf60e11b8152915190936304baed9e9383820193909291908290030181865afa15801562000725573d6000803e3d6000fd5b505050506040513d601f19601f820116820180604052508101906200074b9190620025a2565b6040516323b872dd60e01b8152336004820152306024820152604481018690529091506001600160a01b038716906323b872dd906064016020604051808303816000875af1158015620007a2573d6000803e3d6000fd5b505050506040513d601f19601f82011682018060405250810190620007c89190620025ee565b5060405163095ea7b360e01b81526001600160a01b0382811660048301526024820186905287169063095ea7b3906044016020604051808303816000875af115801562000819573d6000803e3d6000fd5b505050506040513d601f19601f820116820180604052508101906200083f9190620025ee565b506040516362d93eef60e11b81526001600160a01b038681166004830152602482018690526044820185905282169063c5b27dde90606401600060405180830381600087803b1580156200089257600080fd5b505af1158015620008a7573d6000803e3d6000fd5b50505050505050505050565b6001600160a01b0380851660009081526004602081815260408084208151606081018352815490961680875260018201548785015260029091015486830152815163025d76cf60e11b8152915190936304baed9e9383820193909291908290030181865afa1580156200092a573d6000803e3d6000fd5b505050506040513d601f19601f82011682018060405250810190620009509190620025a2565b9050600082600001516001600160a01b03166304baed9e6040518163ffffffff1660e01b8152600401602060405180830381865afa15801562000997573d6000803e3d6000fd5b505050506040513d601f19601f82011682018060405250810190620009bd9190620025a2565b6001600160a01b031663fc0c546a6040518163ffffffff1660e01b8152600401602060405180830381865afa158015620009fb573d6000803e3d6000fd5b505050506040513d601f19601f8201168201806040525081019062000a219190620025a2565b6040516323b872dd60e01b8152336004820152306024820152604481018790529091506001600160a01b038216906323b872dd906064016020604051808303816000875af115801562000a78573d6000803e3d6000fd5b505050506040513d601f19601f8201168201806040525081019062000a9e9190620025ee565b5060405163095ea7b360e01b81526001600160a01b0383811660048301526024820187905282169063095ea7b3906044016020604051808303816000875af115801562000aef573d6000803e3d6000fd5b505050506040513d601f19601f8201168201806040525081019062000b159190620025ee565b5060008062000b258988620016a4565b9092509050801562000b9d5760405163935b7dbd60e01b81526001600160a01b038981166004830152602482018390526044820188905285169063935b7dbd90606401600060405180830381600087803b15801562000b8357600080fd5b505af115801562000b98573d6000803e3d6000fd5b505050505b811562000c3357826001600160a01b031663a9059cbb62000bbd62001627565b6040516001600160e01b031960e084901b1681526001600160a01b039091166004820152602481018590526044016020604051808303816000875af115801562000c0b573d6000803e3d6000fd5b505050506040513d601f19601f8201168201806040525081019062000c319190620025ee565b505b6002546040516370a0823160e01b81526001600160a01b0386811660048301528516906370a0823190602401602060405180830381865afa15801562000c7d573d6000803e3d6000fd5b505050506040513d601f19601f8201168201806040525081019062000ca39190620025c2565b1062000d5e57836001600160a01b031663c6ab5cdc6040518163ffffffff1660e01b8152600401600060405180830381600087803b15801562000ce557600080fd5b505af115801562000cfa573d6000803e3d6000fd5b50505050836001600160a01b031663ba83c9706040518163ffffffff1660e01b8152600401600060405180830381600087803b15801562000d3a57600080fd5b505af115801562000d4f573d6000803e3d6000fd5b5050505062000d5e89620018f6565b505050505050505050565b600080600080876020015190508080602001905181019062000d8c9190620025a2565b604080513060208201529194500160408051601f1981840301815291815260208a81018390528151610120810183526000808252918101829052918201819052606082018190526080820181905260a0820181905260c0820181905260e082018190526101008201529091506020808b01518051909162000e14918301810190830162002630565b60405190965090935062000e32915088908490879060200162002716565b60408051601f1981840301815291815260208d0182905260005490517fff2676990000000000000000000000000000000000000000000000000000000081529192506001600160a01b03169063ff2676999062000e9c908f908f908f908f908f9060040162002849565b6020604051808303816000875af115801562000ebc573d6000803e3d6000fd5b505050506040513d601f19601f8201168201806040525081019062000ee29190620025a2565b955050505096509650969350505050565b6001600160a01b0380821660009081526004602081815260408084208151606081018352815490961680875260018201548785015260029091015486830152815163025d76cf60e11b8152915190936304baed9e9383820193909291908290030181865afa15801562000f6a573d6000803e3d6000fd5b505050506040513d601f19601f8201168201806040525081019062000f909190620025a2565b905081600001516001600160a01b031663d09edf316040518163ffffffff1660e01b8152600401602060405180830381865afa15801562000fd5573d6000803e3d6000fd5b505050506040513d601f19601f8201168201806040525081019062000ffb9190620025a2565b6001600160a01b0316632f2ff15d83600001516001600160a01b031663d09edf316040518163ffffffff1660e01b8152600401602060405180830381865afa1580156200104c573d6000803e3d6000fd5b505050506040513d601f19601f82011682018060405250810190620010729190620025a2565b6001600160a01b031663b3ecf2366040518163ffffffff1660e01b8152600401602060405180830381865afa158015620010b0573d6000803e3d6000fd5b505050506040513d601f19601f82011682018060405250810190620010d69190620025c2565b600154600160a01b900460ff16620010f857620010f262001627565b620010fa565b305b6040516001600160e01b031960e085901b16815260048101929092526001600160a01b03166024820152604401600060405180830381600087803b1580156200114257600080fd5b505af115801562001157573d6000803e3d6000fd5b505060405163cf456ae760e01b8152306004820152600160248201526001600160a01b038616925063cf456ae79150604401600060405180830381600087803b158015620011a457600080fd5b505af1158015620011b9573d6000803e3d6000fd5b50505050806001600160a01b0316636c67e807826001600160a01b0316637feb48a16040518163ffffffff1660e01b8152600401602060405180830381865afa1580156200120b573d6000803e3d6000fd5b505050506040513d601f19601f82011682018060405250810190620012319190620025c2565b6040516001600160e01b031960e084901b1681526004810191909152306024820152604401600060405180830381600087803b1580156200127157600080fd5b505af115801562001286573d6000803e3d6000fd5b50505050600082600001516001600160a01b0316634cfa64876040518163ffffffff1660e01b8152600401600060405180830381865afa158015620012cf573d6000803e3d6000fd5b505050506040513d6000823e601f3d908101601f19168201604052620012f991908101906200290b565b905060005b81518110156200149c578181815181106200131d576200131d620029b0565b60200260200101516001600160a01b03166346ebcacf6040518163ffffffff1660e01b8152600401602060405180830381865afa92505050801562001381575060408051601f3d908101601f191682019092526200137e91810190620025c2565b60015b156200149357508181815181106200139d576200139d620029b0565b60200260200101516001600160a01b0316636c67e807838381518110620013c857620013c8620029b0565b60200260200101516001600160a01b03166346ebcacf6040518163ffffffff1660e01b8152600401602060405180830381865afa1580156200140e573d6000803e3d6000fd5b505050506040513d601f19601f82011682018060405250810190620014349190620025c2565b6040516001600160e01b031960e084901b1681526004810191909152306024820152604401600060405180830381600087803b1580156200147457600080fd5b505af115801562001489573d6000803e3d6000fd5b505050506200149c565b600101620012fe565b5050505050565b81156200162157826001600160a01b03166323b872dd620014c362001627565b6040516001600160e01b031960e084901b1681526001600160a01b039091166004820152306024820152604481018590526064016020604051808303816000875af115801562001517573d6000803e3d6000fd5b505050506040513d601f19601f820116820180604052508101906200153d9190620025ee565b5060405163095ea7b360e01b81526001600160a01b0385811660048301526024820184905284169063095ea7b3906044016020604051808303816000875af11580156200158e573d6000803e3d6000fd5b505050506040513d601f19601f82011682018060405250810190620015b49190620025ee565b5060405163935b7dbd60e01b81526001600160a01b038281166004830152602482018490526001604483015285169063935b7dbd90606401600060405180830381600087803b1580156200160757600080fd5b505af11580156200161c573d6000803e3d6000fd5b505050505b50505050565b60003660147f00000000000000000000000000000000000000000000000000000000000000006001600160a01b031633148015620016655750808210155b156200169c576000366200167a8385620029dc565b62001687928290620029f8565b620016929162002a24565b60601c9250505090565b339250505090565b6001600160a01b0380831660009081526004602081815260408084208151606081018352815490961680875260018201548785015260029091015486830152815163025d76cf60e11b81529151949586959094869492936304baed9e9381830193909290918290030181865afa15801562001723573d6000803e3d6000fd5b505050506040513d601f19601f82011682018060405250810190620017499190620025a2565b9050600082600001516001600160a01b03166304baed9e6040518163ffffffff1660e01b8152600401602060405180830381865afa15801562001790573d6000803e3d6000fd5b505050506040513d601f19601f82011682018060405250810190620017b69190620025a2565b6001600160a01b031663fc0c546a6040518163ffffffff1660e01b8152600401602060405180830381865afa158015620017f4573d6000803e3d6000fd5b505050506040513d601f19601f820116820180604052508101906200181a9190620025a2565b6040516370a0823160e01b81526001600160a01b0384811660048301529192506000918316906370a0823190602401602060405180830381865afa15801562001867573d6000803e3d6000fd5b505050506040513d601f19601f820116820180604052508101906200188d9190620025c2565b905060006200189d888362002a5a565b9050600254811115620018e2578160025411620018bc576000620018cc565b81600254620018cc9190620029dc565b9550620018da8689620029dc565b9650620018ea565b879550600096505b50505050509250929050565b600154600160a81b900460ff161562001922576040516396f73faf60e01b815260040160405180910390fd5b6001600160a01b0380821660009081526004602081815260408084208151606081018352815490961680875260018201548785015260029091015486830152815163025d76cf60e11b8152915190936304baed9e9383820193909291908290030181865afa15801562001999573d6000803e3d6000fd5b505050506040513d601f19601f82011682018060405250810190620019bf9190620025a2565b90506000816001600160a01b031663fc0c546a6040518163ffffffff1660e01b8152600401602060405180830381865afa15801562001a02573d6000803e3d6000fd5b505050506040513d601f19601f8201168201806040525081019062001a289190620025a2565b6040516370a0823160e01b81526001600160a01b0384811660048301529192506000918316906370a0823190602401602060405180830381865afa15801562001a75573d6000803e3d6000fd5b505050506040513d601f19601f8201168201806040525081019062001a9b9190620025c2565b905060008460200151846001600160a01b031663d1c6022f6040518163ffffffff1660e01b8152600401602060405180830381865afa15801562001ae3573d6000803e3d6000fd5b505050506040513d601f19601f8201168201806040525081019062001b099190620025c2565b62001b159190620029dc565b9050600085600001516001600160a01b0316634cfa64876040518163ffffffff1660e01b8152600401600060405180830381865afa15801562001b5c573d6000803e3d6000fd5b505050506040513d6000823e601f3d908101601f1916820160405262001b8691908101906200290b565b905060005b815181101562001cc85781818151811062001baa5762001baa620029b0565b60200260200101516001600160a01b03166346ebcacf6040518163ffffffff1660e01b8152600401602060405180830381865afa92505050801562001c0e575060408051601f3d908101601f1916820190925262001c0b91810190620025c2565b60015b1562001cbf575081818151811062001c2a5762001c2a620029b0565b6020908102919091010151600154604051638028b82f60e01b81526001600160a01b0391821660048201528782166024820152604481018790526000606482018190526084820181905260a4820152911690638028b82f9060c401600060405180830381600087803b15801562001ca057600080fd5b505af115801562001cb5573d6000803e3d6000fd5b5050505062001cc8565b60010162001b8b565b50846001600160a01b031663c6ab5cdc6040518163ffffffff1660e01b8152600401600060405180830381600087803b15801562001d0557600080fd5b505af115801562001d1a573d6000803e3d6000fd5b50505050846001600160a01b031663ba83c9706040518163ffffffff1660e01b8152600401600060405180830381600087803b15801562001d5a57600080fd5b505af115801562001d6f573d6000803e3d6000fd5b50506001546040516340c10f1960e01b81526001600160a01b03918216600482015260248101869052908a1692506340c10f199150604401600060405180830381600087803b15801562001dc257600080fd5b505af115801562001dd7573d6000803e3d6000fd5b50506001546003546040516332092e4f60e21b81526001600160a01b0389811660048301528c811660248301529182166044820152600094509116915063c824b93c906064016020604051808303816000875af115801562001e3d573d6000803e3d6000fd5b505050506040513d601f19601f8201168201806040525081019062001e639190620025a2565b600180547fffffffffffffffffffff00ffffffffffffffffffffffffffffffffffffffffff16600160a81b17905560408051858152602081018790529192506001600160a01b038084169288821692918c16917f61a7be01a73db9bec6d726c8ac152dec55617d188289647aa5b17fcbe83a42e2910160405180910390a45050505050505050565b610ffd8062002a7183390190565b6001600160a01b038116811462001f0f57600080fd5b50565b60006020828403121562001f2557600080fd5b813562001f328162001ef9565b9392505050565b634e487b7160e01b600052604160045260246000fd5b6040805190810167ffffffffffffffff8111828210171562001f755762001f7562001f39565b60405290565b60405160a0810167ffffffffffffffff8111828210171562001f755762001f7562001f39565b6040516080810167ffffffffffffffff8111828210171562001f755762001f7562001f39565b604051610120810167ffffffffffffffff8111828210171562001f755762001f7562001f39565b604051601f8201601f1916810167ffffffffffffffff811182821017156200201a576200201a62001f39565b604052919050565b801515811462001f0f57600080fd5b6000604082840312156200204457600080fd5b6200204e62001f4f565b905081356200205d8162002022565b815260208201356200206f8162001ef9565b602082015292915050565b600082601f8301126200208c57600080fd5b813567ffffffffffffffff811115620020a957620020a962001f39565b620020be601f8201601f191660200162001fee565b818152846020838601011115620020d457600080fd5b816020850160208301376000918101602001919091529392505050565b6000604082840312156200210457600080fd5b6200210e62001f4f565b9050813567ffffffffffffffff808211156200212957600080fd5b9083019060a082860312156200213e57600080fd5b6200214862001f7b565b8235815260208301356020820152604083013560408201526060830135828111156200217357600080fd5b62002181878286016200207a565b6060830152506080830135828111156200219a57600080fd5b620021a8878286016200207a565b60808301525083526020840135915080821115620021c557600080fd5b50620021d4848285016200207a565b60208301525092915050565b600067ffffffffffffffff821115620021fd57620021fd62001f39565b5060051b60200190565b600082601f8301126200221957600080fd5b81356020620022326200222c83620021e0565b62001fee565b82815260059290921b840181019181810190868411156200225257600080fd5b8286015b848110156200229757803567ffffffffffffffff811115620022785760008081fd5b620022888986838b0101620020f1565b84525091830191830162002256565b509695505050505050565b600060808284031215620022b557600080fd5b620022bf62001fa1565b9050813567ffffffffffffffff80821115620022da57600080fd5b620022e8858386016200207a565b83526020840135915080821115620022ff57600080fd5b506200230e848285016200207a565b602083015250604082013560ff811681146200232957600080fd5b806040830152506060820135606082015292915050565b6000608082840312156200235357600080fd5b6200235d62001fa1565b905081356200236c8162002022565b8152602082810135908201526040820135620023888162001ef9565b604082015260608201356200239d8162001ef9565b606082015292915050565b600080600080600080600080610180898b031215620023c657600080fd5b620023d28a8a62002031565b9750604089013567ffffffffffffffff80821115620023f057600080fd5b620023fe8c838d01620020f1565b985060608b01359150808211156200241557600080fd5b620024238c838d01620020f1565b975060808b01359150808211156200243a57600080fd5b620024488c838d01620020f1565b965060a08b01359150808211156200245f57600080fd5b6200246d8c838d0162002207565b955060c08b01359150808211156200248457600080fd5b50620024938b828c01620022a2565b93505060e08901359150620024ad8a6101008b0162002340565b90509295985092959890939650565b60008060008060808587031215620024d357600080fd5b8435620024e08162001ef9565b93506020850135620024f28162001ef9565b93969395505050506040820135916060013590565b6000815180845260005b818110156200252f5760208185018101518683018201520162002511565b506000602082860101526020601f19601f83011685010191505092915050565b60a0815260006200256460a083018862002507565b828103602084015262002578818862002507565b60ff969096166040840152505060608101929092526001600160a01b031660809091015292915050565b600060208284031215620025b557600080fd5b815162001f328162001ef9565b600060208284031215620025d557600080fd5b5051919050565b8051620025e98162002022565b919050565b6000602082840312156200260157600080fd5b815162001f328162002022565b8051620025e98162001ef9565b805163ffffffff81168114620025e957600080fd5b60008060008385036101608112156200264857600080fd5b8451620026558162001ef9565b9350610120601f1982018113156200266c57600080fd5b6200267662001fc7565b915062002686602087016200260e565b825262002696604087016200261b565b6020830152620026a9606087016200261b565b60408301526080860151606083015260a08601516080830152620026d060c08701620025dc565b60a0830152620026e360e08701620025dc565b60c08301526101008681015160e0840152908601519082015291506200270d61014085016200260e565b90509250925092565b6000610160820190506001600160a01b0380861683528085511660208401525063ffffffff602085015116604083015260408401516200275e606084018263ffffffff169052565b5060608401516080830152608084015160a083015260a08401516200278760c084018215159052565b5060c084015180151560e08401525060e0840151610100838101919091528401516101208301526001600160a01b038316610140830152949350505050565b6000815160408452805160408501526020810151606085015260408101516080850152606081015160a0808601526200280360e086018262002507565b905060808201519150603f198582030160c086015262002824818362002507565b9150506020830151848203602086015262002840828262002507565b95945050505050565b855115158152600060206001600160a01b0381890151168184015260c060408401526200287a60c0840188620027c6565b83810360608501526200288e8188620027c6565b90508381036080850152620028a48187620027c6565b905083810360a08501528085518083528383019150838160051b84010184880160005b83811015620028f957601f19868403018552620028e6838351620027c6565b94870194925090860190600101620028c7565b50909c9b505050505050505050505050565b600060208083850312156200291f57600080fd5b825167ffffffffffffffff8111156200293757600080fd5b8301601f810185136200294957600080fd5b80516200295a6200222c82620021e0565b81815260059190911b820183019083810190878311156200297a57600080fd5b928401925b82841015620029a5578351620029958162001ef9565b825292840192908401906200297f565b979650505050505050565b634e487b7160e01b600052603260045260246000fd5b634e487b7160e01b600052601160045260246000fd5b81810381811115620029f257620029f2620029c6565b92915050565b6000808585111562002a0957600080fd5b8386111562002a1757600080fd5b5050820193919092039150565b6bffffffffffffffffffffffff19813581811691601485101562002a525780818660140360031b1b83161692505b505092915050565b80820180821115620029f257620029f2620029c656fe60c06040523480156200001157600080fd5b5060405162000ffd38038062000ffd833981016040819052620000349162000254565b80828686600362000046838262000395565b50600462000055828262000395565b50505080600003620000825760405163392e1e2760e01b8152600060048201526024015b60405180910390fd5b6080526001600160a01b038116620000b157604051631e4fbdf760e01b81526000600482015260240162000079565b620000bc81620000db565b50620000ca8160016200012d565b505060ff1660a05250620004619050565b600580546001600160a01b038381166001600160a01b0319831681179093556040519116919082907f8be0079c531659141344cd1fd0a4f28419497f9722a3daafe3b4186f6b6457e090600090a35050565b6001600160a01b038216600081815260066020908152604091829020805460ff191685151590811790915591519182527f583b0aa0e528532caf4b907c11d7a8158a122fe2a6fb80cd9b09776ebea8d92d910160405180910390a25050565b634e487b7160e01b600052604160045260246000fd5b600082601f830112620001b457600080fd5b81516001600160401b0380821115620001d157620001d16200018c565b604051601f8301601f19908116603f01168101908282118183101715620001fc57620001fc6200018c565b81604052838152602092508660208588010111156200021a57600080fd5b600091505b838210156200023e57858201830151818301840152908201906200021f565b6000602085830101528094505050505092915050565b600080600080600060a086880312156200026d57600080fd5b85516001600160401b03808211156200028557600080fd5b6200029389838a01620001a2565b96506020880151915080821115620002aa57600080fd5b50620002b988828901620001a2565b945050604086015160ff81168114620002d157600080fd5b6060870151608088015191945092506001600160a01b0381168114620002f657600080fd5b809150509295509295909350565b600181811c908216806200031957607f821691505b6020821081036200033a57634e487b7160e01b600052602260045260246000fd5b50919050565b601f82111562000390576000816000526020600020601f850160051c810160208610156200036b5750805b601f850160051c820191505b818110156200038c5782815560010162000377565b5050505b505050565b81516001600160401b03811115620003b157620003b16200018c565b620003c981620003c2845462000304565b8462000340565b602080601f831160018114620004015760008415620003e85750858301515b600019600386901b1c1916600185901b1785556200038c565b600085815260208120601f198616915b82811015620004325788860151825594840194600190910190840162000411565b5085821015620004515787850151600019600388901b60f8161c191681555b5050505050600190811b01905550565b60805160a051610b6f6200048e600039600061018d0152600081816101b901526108000152610b6f6000f3fe608060405234801561001057600080fd5b506004361061011b5760003560e01c806370a08231116100b25780639dc29fac11610081578063cf456ae711610066578063cf456ae71461028f578063dd62ed3e146102a2578063f2fde38b146102db57600080fd5b80639dc29fac14610269578063a9059cbb1461027c57600080fd5b806370a0823114610215578063715018a61461023e5780638da5cb5b1461024657806395d89b411461026157600080fd5b8063313ce567116100ee578063313ce56714610186578063355274ea146101b757806340c10f19146101dd578063423afa66146101f257600080fd5b806306fdde0314610120578063095ea7b31461013e57806318160ddd1461016157806323b872dd14610173575b600080fd5b6101286102ee565b604051610135919061097c565b60405180910390f35b61015161014c3660046109e7565b610380565b6040519015158152602001610135565b6002545b604051908152602001610135565b610151610181366004610a11565b61039a565b60405160ff7f0000000000000000000000000000000000000000000000000000000000000000168152602001610135565b7f0000000000000000000000000000000000000000000000000000000000000000610165565b6101f06101eb3660046109e7565b6103be565b005b610151610200366004610a4d565b60066020526000908152604090205460ff1681565b610165610223366004610a4d565b6001600160a01b031660009081526020819052604090205490565b6101f06103fc565b6005546040516001600160a01b039091168152602001610135565b610128610410565b6101f06102773660046109e7565b61041f565b61015161028a3660046109e7565b610459565b6101f061029d366004610a6f565b610467565b6101656102b0366004610aab565b6001600160a01b03918216600090815260016020908152604080832093909416825291909152205490565b6101f06102e9366004610a4d565b610479565b6060600380546102fd90610ade565b80601f016020809104026020016040519081016040528092919081815260200182805461032990610ade565b80156103765780601f1061034b57610100808354040283529160200191610376565b820191906000526020600020905b81548152906001019060200180831161035957829003601f168201915b5050505050905090565b60003361038e8185856104bc565b60019150505b92915050565b6000336103a88582856104ce565b6103b385858561054c565b506001949350505050565b3360009081526006602052604090205460ff166103ee57604051634199e25360e11b815260040160405180910390fd5b6103f882826105ab565b5050565b6104046105e1565b61040e600061060e565b565b6060600480546102fd90610ade565b3360009081526006602052604090205460ff1661044f57604051634199e25360e11b815260040160405180910390fd5b6103f88282610678565b60003361038e81858561054c565b61046f6105e1565b6103f882826106ae565b6104816105e1565b6001600160a01b0381166104b057604051631e4fbdf760e01b8152600060048201526024015b60405180910390fd5b6104b98161060e565b50565b6104c9838383600161070d565b505050565b6001600160a01b038381166000908152600160209081526040808320938616835292905220546000198114610546578181101561053757604051637dc7a0d960e11b81526001600160a01b038416600482015260248101829052604481018390526064016104a7565b6105468484848403600061070d565b50505050565b6001600160a01b03831661057657604051634b637e8f60e11b8152600060048201526024016104a7565b6001600160a01b0382166105a05760405163ec442f0560e01b8152600060048201526024016104a7565b6104c98383836107e2565b6001600160a01b0382166105d55760405163ec442f0560e01b8152600060048201526024016104a7565b6103f8600083836107e2565b6005546001600160a01b0316331461040e5760405163118cdaa760e01b81523360048201526024016104a7565b600580546001600160a01b038381167fffffffffffffffffffffffff0000000000000000000000000000000000000000831681179093556040519116919082907f8be0079c531659141344cd1fd0a4f28419497f9722a3daafe3b4186f6b6457e090600090a35050565b6001600160a01b0382166106a257604051634b637e8f60e11b8152600060048201526024016104a7565b6103f8826000836107e2565b6001600160a01b038216600081815260066020908152604091829020805460ff191685151590811790915591519182527f583b0aa0e528532caf4b907c11d7a8158a122fe2a6fb80cd9b09776ebea8d92d910160405180910390a25050565b6001600160a01b0384166107375760405163e602df0560e01b8152600060048201526024016104a7565b6001600160a01b03831661076157604051634a1406b160e11b8152600060048201526024016104a7565b6001600160a01b038085166000908152600160209081526040808320938716835292905220829055801561054657826001600160a01b0316846001600160a01b03167f8c5be1e5ebec7d5bd14f71427d1e84f3dd0314c0f7b2291e5b200ac8c7c3b925846040516107d491815260200190565b60405180910390a350505050565b6107ed838383610852565b6001600160a01b0383166104c9576002547f0000000000000000000000000000000000000000000000000000000000000000908181111561084b5760405163279e7e1560e21b815260048101829052602481018390526044016104a7565b5050505050565b6001600160a01b03831661087d5780600260008282546108729190610b18565b909155506108ef9050565b6001600160a01b038316600090815260208190526040902054818110156108d05760405163391434e360e21b81526001600160a01b038516600482015260248101829052604481018390526064016104a7565b6001600160a01b03841660009081526020819052604090209082900390555b6001600160a01b03821661090b5760028054829003905561092a565b6001600160a01b03821660009081526020819052604090208054820190555b816001600160a01b0316836001600160a01b03167fddf252ad1be2c89b69c2b068fc378daa952ba7f163c4a11628f55a4df523b3ef8360405161096f91815260200190565b60405180910390a3505050565b60006020808352835180602085015260005b818110156109aa5785810183015185820160400152820161098e565b506000604082860101526040601f19601f8301168501019250505092915050565b80356001600160a01b03811681146109e257600080fd5b919050565b600080604083850312156109fa57600080fd5b610a03836109cb565b946020939093013593505050565b600080600060608486031215610a2657600080fd5b610a2f846109cb565b9250610a3d602085016109cb565b9150604084013590509250925092565b600060208284031215610a5f57600080fd5b610a68826109cb565b9392505050565b60008060408385031215610a8257600080fd5b610a8b836109cb565b915060208301358015158114610aa057600080fd5b809150509250929050565b60008060408385031215610abe57600080fd5b610ac7836109cb565b9150610ad5602084016109cb565b90509250929050565b600181811c90821680610af257607f821691505b602082108103610b1257634e487b7160e01b600052602260045260246000fd5b50919050565b8082018082111561039457634e487b7160e01b600052601160045260246000fdfea26469706673582212200d68669bd9d7a7cf36532e94088db26b3e972e6649ce1d5bd2b0e1bd50d1234764736f6c63430008170033a26469706673582212201631b2b969588fc75862daaffb4e779d520e7043625beb6d372fc67881fcc69c64736f6c63430008170033",
    "linkReferences": {}
  },
  "methodIdentifiers": {
    "buyForUpTo(address,address,uint256,uint256)": "fcde9847",
    "createPIMWorkflow((bool,address),((uint256,uint256,uint256,string,string),bytes),((uint256,uint256,uint256,string,string),bytes),((uint256,uint256,uint256,string,string),bytes),((uint256,uint256,uint256,string,string),bytes)[],(string,string,uint8,uint256),uint256,(bool,uint256,address,address))": "6daf301a",
    "dexAdapter()": "91f03efd",
    "isGraduated()": "9e5f2602",
    "isImmutable()": "bb0aa8ef",
    "isTrustedForwarder(address)": "572b6c05",
    "lpTokenRecipient()": "16b4ad7a",
    "migrationThreshold()": "90bc1e85",
    "orchestratorFactory()": "2f36a25d",
    "pims(address)": "1615f657",
    "sellTo(address,address,uint256,uint256)": "ce7c83dd",
    "trustedForwarder()": "7da0a877"
  },
  "id": 78
}