{
  "abi": [
    {
      "type": "constructor",
      "inputs": [
        {
          "name": "_orchestratorFactory",
          "type": "address",
          "internalType": "address"
        },
        {
          "name": "_trustedForwarder",
          "type": "address",
          "internalType": "address"
        }
      ],
      "stateMutability": "nonpayable"
    },
    {
      "type": "function",
      "name": "buyFor",
      "inputs": [
        {
          "name": "fundingManager",
          "type": "address",
          "internalType": "address"
        },
        {
          "name": "recipient",
          "type": "address",
          "internalType": "address"
        },
        {
          "name": "amountIn",
          "type": "uint256",
          "internalType": "uint256"
        },
        {
          "name": "minAmountOut",
          "type": "uint256",
          "internalType": "uint256"
        }
      ],
      "outputs": [],
      "stateMutability": "nonpayable"
    },
    {
      "type": "function",
      "name": "createPIMWorkflow",
      "inputs": [
        {
          "name": "workflowConfig",
          "type": "tuple",
          "internalType": "struct IOrchestratorFactory_v1.WorkflowConfig",
          "components": [
            {
              "name": "independentUpdates",
              "type": "bool",
              "internalType": "bool"
            },
            {
              "name": "independentUpdateAdmin",
              "type": "address",
              "internalType": "address"
            }
          ]
        },
        {
          "name": "fundingManagerConfig",
          "type": "tuple",
          "internalType": "struct IOrchestratorFactory_v1.ModuleConfig",
          "components": [
            {
              "name": "metadata",
              "type": "tuple",
              "internalType": "struct IModule_v1.Metadata",
              "components": [
                {
                  "name": "majorVersion",
                  "type": "uint256",
                  "internalType": "uint256"
                },
                {
                  "name": "minorVersion",
                  "type": "uint256",
                  "internalType": "uint256"
                },
                {
                  "name": "patchVersion",
                  "type": "uint256",
                  "internalType": "uint256"
                },
                {
                  "name": "url",
                  "type": "string",
                  "internalType": "string"
                },
                {
                  "name": "title",
                  "type": "string",
                  "internalType": "string"
                }
              ]
            },
            {
              "name": "configData",
              "type": "bytes",
              "internalType": "bytes"
            }
          ]
        },
        {
          "name": "authorizerConfig",
          "type": "tuple",
          "internalType": "struct IOrchestratorFactory_v1.ModuleConfig",
          "components": [
            {
              "name": "metadata",
              "type": "tuple",
              "internalType": "struct IModule_v1.Metadata",
              "components": [
                {
                  "name": "majorVersion",
                  "type": "uint256",
                  "internalType": "uint256"
                },
                {
                  "name": "minorVersion",
                  "type": "uint256",
                  "internalType": "uint256"
                },
                {
                  "name": "patchVersion",
                  "type": "uint256",
                  "internalType": "uint256"
                },
                {
                  "name": "url",
                  "type": "string",
                  "internalType": "string"
                },
                {
                  "name": "title",
                  "type": "string",
                  "internalType": "string"
                }
              ]
            },
            {
              "name": "configData",
              "type": "bytes",
              "internalType": "bytes"
            }
          ]
        },
        {
          "name": "paymentProcessorConfig",
          "type": "tuple",
          "internalType": "struct IOrchestratorFactory_v1.ModuleConfig",
          "components": [
            {
              "name": "metadata",
              "type": "tuple",
              "internalType": "struct IModule_v1.Metadata",
              "components": [
                {
                  "name": "majorVersion",
                  "type": "uint256",
                  "internalType": "uint256"
                },
                {
                  "name": "minorVersion",
                  "type": "uint256",
                  "internalType": "uint256"
                },
                {
                  "name": "patchVersion",
                  "type": "uint256",
                  "internalType": "uint256"
                },
                {
                  "name": "url",
                  "type": "string",
                  "internalType": "string"
                },
                {
                  "name": "title",
                  "type": "string",
                  "internalType": "string"
                }
              ]
            },
            {
              "name": "configData",
              "type": "bytes",
              "internalType": "bytes"
            }
          ]
        },
        {
          "name": "moduleConfigs",
          "type": "tuple[]",
          "internalType": "struct IOrchestratorFactory_v1.ModuleConfig[]",
          "components": [
            {
              "name": "metadata",
              "type": "tuple",
              "internalType": "struct IModule_v1.Metadata",
              "components": [
                {
                  "name": "majorVersion",
                  "type": "uint256",
                  "internalType": "uint256"
                },
                {
                  "name": "minorVersion",
                  "type": "uint256",
                  "internalType": "uint256"
                },
                {
                  "name": "patchVersion",
                  "type": "uint256",
                  "internalType": "uint256"
                },
                {
                  "name": "url",
                  "type": "string",
                  "internalType": "string"
                },
                {
                  "name": "title",
                  "type": "string",
                  "internalType": "string"
                }
              ]
            },
            {
              "name": "configData",
              "type": "bytes",
              "internalType": "bytes"
            }
          ]
        },
        {
          "name": "issuanceTokenParams",
          "type": "tuple",
          "internalType": "struct IBondingCurveBase_v1.IssuanceToken",
          "components": [
            {
              "name": "name",
              "type": "string",
              "internalType": "string"
            },
            {
              "name": "symbol",
              "type": "string",
              "internalType": "string"
            },
            {
              "name": "decimals",
              "type": "uint8",
              "internalType": "uint8"
            },
            {
              "name": "maxSupply",
              "type": "uint256",
              "internalType": "uint256"
            }
          ]
        },
        {
          "name": "initialPurchaseAmount",
          "type": "uint256",
          "internalType": "uint256"
        },
        {
          "name": "migrationConfig_",
          "type": "tuple",
          "internalType": "struct IMigrating_PIM_Factory_v1.MigrationConfig",
          "components": [
            {
              "name": "isImmutable",
              "type": "bool",
              "internalType": "bool"
            },
            {
              "name": "migrationThreshold",
              "type": "uint256",
              "internalType": "uint256"
            },
            {
              "name": "dexAdapter",
              "type": "address",
              "internalType": "address"
            },
            {
              "name": "lpTokenRecipient",
              "type": "address",
              "internalType": "address"
            },
            {
              "name": "initialRewardDuration",
              "type": "uint256",
              "internalType": "uint256"
            }
          ]
        }
      ],
      "outputs": [
        {
          "name": "",
          "type": "address",
          "internalType": "contract IOrchestrator_v1"
        }
      ],
      "stateMutability": "nonpayable"
    },
    {
      "type": "function",
      "name": "getIsGraduated",
      "inputs": [
        {
          "name": "fundingManager",
          "type": "address",
          "internalType": "address"
        }
      ],
      "outputs": [
        {
          "name": "",
          "type": "bool",
          "internalType": "bool"
        }
      ],
      "stateMutability": "view"
    },
    {
      "type": "function",
      "name": "getIsImmutable",
      "inputs": [
        {
          "name": "fundingManager",
          "type": "address",
          "internalType": "address"
        }
      ],
      "outputs": [
        {
          "name": "",
          "type": "bool",
          "internalType": "bool"
        }
      ],
      "stateMutability": "view"
    },
    {
      "type": "function",
      "name": "getLpTokenRecipient",
      "inputs": [
        {
          "name": "fundingManager",
          "type": "address",
          "internalType": "address"
        }
      ],
      "outputs": [
        {
          "name": "",
          "type": "address",
          "internalType": "address"
        }
      ],
      "stateMutability": "view"
    },
    {
      "type": "function",
      "name": "getMigrationThreshold",
      "inputs": [
        {
          "name": "fundingManager",
          "type": "address",
          "internalType": "address"
        }
      ],
      "outputs": [
        {
          "name": "",
          "type": "uint256",
          "internalType": "uint256"
        }
      ],
      "stateMutability": "view"
    },
    {
      "type": "function",
      "name": "isTrustedForwarder",
      "inputs": [
        {
          "name": "forwarder",
          "type": "address",
          "internalType": "address"
        }
      ],
      "outputs": [
        {
          "name": "",
          "type": "bool",
          "internalType": "bool"
        }
      ],
      "stateMutability": "view"
    },
    {
      "type": "function",
      "name": "orchestratorFactory",
      "inputs": [],
      "outputs": [
        {
          "name": "",
          "type": "address",
          "internalType": "address"
        }
      ],
      "stateMutability": "view"
    },
    {
      "type": "function",
      "name": "pims",
      "inputs": [
        {
          "name": "fundingManager",
          "type": "address",
          "internalType": "address"
        }
      ],
      "outputs": [
        {
          "name": "isGraduated",
          "type": "bool",
          "internalType": "bool"
        },
        {
          "name": "isImmutable",
          "type": "bool",
          "internalType": "bool"
        },
        {
          "name": "migrationThreshold",
          "type": "uint256",
          "internalType": "uint256"
        },
        {
          "name": "initiator",
          "type": "address",
          "internalType": "address"
        },
        {
          "name": "dexAdapter",
          "type": "address",
          "internalType": "address"
        },
        {
          "name": "lpTokenRecipient",
          "type": "address",
          "internalType": "address"
        },
        {
          "name": "orchestrator",
          "type": "address",
          "internalType": "contract IOrchestrator_v1"
        },
        {
          "name": "initialVirtualIssuanceSupply",
          "type": "uint256",
          "internalType": "uint256"
        },
        {
          "name": "initialVirtualCollateralSupply",
          "type": "uint256",
          "internalType": "uint256"
        },
        {
          "name": "initialRewardDuration",
          "type": "uint256",
          "internalType": "uint256"
        },
        {
          "name": "staking",
          "type": "address",
          "internalType": "contract LM_PC_Staking_v1"
        },
        {
          "name": "paymentRouter",
          "type": "address",
          "internalType": "contract LM_PC_PaymentRouter_v1"
        }
      ],
      "stateMutability": "view"
    },
    {
      "type": "function",
      "name": "sellTo",
      "inputs": [
        {
          "name": "fundingManager",
          "type": "address",
          "internalType": "address"
        },
        {
          "name": "recipient",
          "type": "address",
          "internalType": "address"
        },
        {
          "name": "amountIn",
          "type": "uint256",
          "internalType": "uint256"
        },
        {
          "name": "minAmountOut",
          "type": "uint256",
          "internalType": "uint256"
        }
      ],
      "outputs": [],
      "stateMutability": "nonpayable"
    },
    {
      "type": "function",
      "name": "setRewards",
      "inputs": [
        {
          "name": "fundingManager",
          "type": "address",
          "internalType": "address"
        },
        {
          "name": "amount",
          "type": "uint256",
          "internalType": "uint256"
        },
        {
          "name": "duration",
          "type": "uint256",
          "internalType": "uint256"
        }
      ],
      "outputs": [],
      "stateMutability": "nonpayable"
    },
    {
      "type": "function",
      "name": "trustedForwarder",
      "inputs": [],
      "outputs": [
        {
          "name": "",
          "type": "address",
          "internalType": "address"
        }
      ],
      "stateMutability": "view"
    },
    {
      "type": "function",
      "name": "withdrawPimFee",
      "inputs": [
        {
          "name": "fundingManager",
          "type": "address",
          "internalType": "address"
        },
        {
          "name": "to",
          "type": "address",
          "internalType": "address"
        }
      ],
      "outputs": [],
      "stateMutability": "nonpayable"
    },
    {
      "type": "event",
      "name": "Graduation",
      "inputs": [
        {
          "name": "orchestrator",
          "type": "address",
          "indexed": true,
          "internalType": "address"
        },
        {
          "name": "pool",
          "type": "address",
          "indexed": true,
          "internalType": "address"
        },
        {
          "name": "issuanceTokenAmount",
          "type": "uint256",
          "indexed": false,
          "internalType": "uint256"
        },
        {
          "name": "collateralTokenAmount",
          "type": "uint256",
          "indexed": false,
          "internalType": "uint256"
        },
        {
          "name": "stakingRewards",
          "type": "uint256",
          "indexed": false,
          "internalType": "uint256"
        }
      ],
      "anonymous": false
    },
    {
      "type": "event",
      "name": "PIMWorkflowCreated",
      "inputs": [
        {
          "name": "orchestrator",
          "type": "address",
          "indexed": true,
          "internalType": "address"
        },
        {
          "name": "issuanceToken",
          "type": "address",
          "indexed": true,
          "internalType": "address"
        },
        {
          "name": "deployer",
          "type": "address",
          "indexed": true,
          "internalType": "address"
        },
        {
          "name": "collateralToken",
          "type": "address",
          "indexed": false,
          "internalType": "address"
        },
        {
          "name": "initiator",
          "type": "address",
          "indexed": false,
          "internalType": "address"
        },
        {
          "name": "migrationConfig_",
          "type": "tuple",
          "indexed": false,
          "internalType": "struct IMigrating_PIM_Factory_v1.MigrationConfig",
          "components": [
            {
              "name": "isImmutable",
              "type": "bool",
              "internalType": "bool"
            },
            {
              "name": "migrationThreshold",
              "type": "uint256",
              "internalType": "uint256"
            },
            {
              "name": "dexAdapter",
              "type": "address",
              "internalType": "address"
            },
            {
              "name": "lpTokenRecipient",
              "type": "address",
              "internalType": "address"
            },
            {
              "name": "initialRewardDuration",
              "type": "uint256",
              "internalType": "uint256"
            }
          ]
        }
      ],
      "anonymous": false
    },
    {
      "type": "error",
      "name": "PIM_WorkflowFactory__OnlyInitiatorAfterGraduation",
      "inputs": []
    },
    {
      "type": "error",
      "name": "PIM_WorkflowFactory__OnlyInitiatorAndRewardDurationOver",
      "inputs": []
    }
  ],
  "bytecode": {
    "object": "0x60a06040523480156200001157600080fd5b50604051620048de380380620048de83398101604081905262000034916200007d565b6001600160a01b03908116608052600080546001600160a01b03191692909116919091179055620000b5565b80516001600160a01b03811681146200007857600080fd5b919050565b600080604083850312156200009157600080fd5b6200009c8362000060565b9150620000ac6020840162000060565b90509250929050565b6080516147ff620000df60003960008181610281015281816102ca0152611ca701526147ff6000f3fe60806040523480156200001157600080fd5b5060043610620000f15760003560e01c80637da0a8771162000097578063d8354222116200006e578063d8354222146200031d578063de78c729146200035c578063f402c2bb146200038e578063f681929314620003c257600080fd5b80637da0a87714620002c8578063a0f7c7eb14620002ef578063ce7c83dd146200030657600080fd5b8063455964f611620000cc578063455964f61462000255578063572b6c05146200026e5780635a02353b14620002b157600080fd5b80631248c80314620000f65780631615f657146200013a5780632f36a25d1462000228575b600080fd5b620001256200010736600462002b8f565b6001600160a01b031660009081526001602052604090205460ff1690565b60405190151581526020015b60405180910390f35b620001bd6200014b36600462002b8f565b600160208190526000918252604090912080549181015460028201546003830154600484015460058501546006860154600787015460088801546009890154600a9099015460ff808c169b610100900416996001600160a01b039889169897881697968716969586169590811691168c565b604080519c15158d529a151560208d0152998b01989098526001600160a01b0396871660608b015294861660808a015292851660a089015290841660c088015260e0870152610100860152610120850152908116610140840152166101608201526101800162000131565b6000546200023c906001600160a01b031681565b6040516001600160a01b03909116815260200162000131565b6200026c6200026636600462002bb6565b620003d9565b005b620001256200027f36600462002b8f565b7f00000000000000000000000000000000000000000000000000000000000000006001600160a01b0390811691161490565b6200023c620002c23660046200305d565b62000649565b7f00000000000000000000000000000000000000000000000000000000000000006200023c565b6200026c6200030036600462003171565b62000843565b6200026c62000317366004620031af565b620009d5565b6200034d6200032e36600462002b8f565b6001600160a01b03166000908152600160208190526040909120015490565b60405190815260200162000131565b6200023c6200036d36600462002b8f565b6001600160a01b039081166000908152600160205260409020600401541690565b620001256200039f36600462002b8f565b6001600160a01b0316600090815260016020526040902054610100900460ff1690565b6200026c620003d3366004620031af565b62000b73565b6001600160a01b03808416600090815260016020818152604092839020835161018081018552815460ff808216151583526101009182900416151593820193909352928101549383019390935260028301548416606083018190526003840154851660808401526004840154851660a08401526005840154851660c0840152600684015460e0840152600784015491830191909152600883015461012083015260098301548416610140830152600a90920154909216610160830152849190331415806200050f5750428161014001516001600160a01b031663a6d14d696040518163ffffffff1660e01b8152600401602060405180830381865afa158015620004e7573d6000803e3d6000fd5b505050506040513d601f19601f820116820180604052508101906200050d9190620031fa565b115b156200052e57604051632ffd9cc960e21b815260040160405180910390fd5b6001600160a01b03858116600090815260016020818152604092839020835161018081018552815460ff8082161515835261010091829004161515938201939093529281015483850152600281015485166060840152600381015485166080840152600480820154861660a08501526005820154861660c0850152600682015460e08501526007820154928401929092526008810154610120840152600981015485166101408401819052600a90910154909416610160830152915163654e51e760e01b815291820187905260248201869052919063654e51e7906044015b600060405180830381600087803b1580156200062857600080fd5b505af11580156200063d573d6000803e3d6000fd5b50505050505050505050565b600080620006578562000ead565b905060008060006200066e8d8d8d8d8d8962000f06565b925092509250600080620006828562001225565b915091506000856001600160a01b03166304baed9e6040518163ffffffff1660e01b8152600401602060405180830381865afa158015620006c7573d6000803e3d6000fd5b505050506040513d601f19601f82011682018060405250810190620006ed919062003214565b9050600089600001516200070657896060015162000708565b305b90506200071b82888887878f8762001413565b60405163cf456ae760e01b81526001600160a01b0383811660048301526001602483015289169063cf456ae790604401600060405180830381600087803b1580156200076657600080fd5b505af11580156200077b573d6000803e3d6000fd5b505050506200078a8262001674565b6200079882868d8962001b4b565b620007a262001ca0565b604080516001600160a01b0388811682528981166020808401919091528e511515838501528e0151606080840191909152928e01518116608080840191909152928e0151811660a0830152918d015160c0820152918116918a8216918a16907feeb7ae1479b3048d1a408212efad2a332ba64e0b75f616357040d4c58fa9a1089060e00160405180910390a450949f9e505050505050505050505050505050565b6001600160a01b03808316600090815260016020818152604092839020835161018081018552815460ff808216151583526101009182900416151593820193909352928101549383019390935260028301548416606083018190526003840154851660808401526004840154851660a08401526005840154851660c0840152600684015460e0840152600784015491830191909152600883015461012083015260098301548416610140830152600a90920154909216610160830152839190331415806200091057508051155b156200092f57604051630c01813160e31b815260040160405180910390fd5b60008490506000816001600160a01b031663cbda8f826040518163ffffffff1660e01b8152600401602060405180830381865afa15801562000975573d6000803e3d6000fd5b505050506040513d601f19601f820116820180604052508101906200099b9190620031fa565b6040516327c49ddd60e11b81526001600160a01b0387811660048301526024820183905291925090831690634f893bba906044016200060d565b60008490506000816001600160a01b0316631ca3bc4f6040518163ffffffff1660e01b8152600401602060405180830381865afa15801562000a1b573d6000803e3d6000fd5b505050506040513d601f19601f8201168201806040525081019062000a41919062003214565b6040516323b872dd60e01b8152336004820152306024820152604481018690529091506001600160a01b038216906323b872dd906064016020604051808303816000875af115801562000a98573d6000803e3d6000fd5b505050506040513d601f19601f8201168201806040525081019062000abe919062003253565b5060405163095ea7b360e01b81526001600160a01b0387811660048301526024820186905282169063095ea7b3906044016020604051808303816000875af115801562000b0f573d6000803e3d6000fd5b505050506040513d601f19601f8201168201806040525081019062000b35919062003253565b506040516362d93eef60e11b81526001600160a01b038681166004830152602482018690526044820185905283169063c5b27dde906064016200060d565b6001600160a01b038085166000818152600160208181526040808420815161018081018352815460ff8082161515835261010091829004161515828601529482015481840152600282015488166060820152600382015488166080820152600480830154891660a08301526005830154891660c0830152600683015460e0830152600783015495820195909552600882015461012082015260098201548816610140820152600a909101549096166101608701528051637e062a3560e11b815290518a959363fc0c546a9383820193909291908290030181865afa15801562000c60573d6000803e3d6000fd5b505050506040513d601f19601f8201168201806040525081019062000c86919062003214565b905060008062000c97898862001d1d565b9092509050801562000ea2576040516323b872dd60e01b8152336004820152306024820152604481018290526001600160a01b038416906323b872dd906064016020604051808303816000875af115801562000cf7573d6000803e3d6000fd5b505050506040513d601f19601f8201168201806040525081019062000d1d919062003253565b5060405163095ea7b360e01b81526001600160a01b038a811660048301526024820183905284169063095ea7b3906044016020604051808303816000875af115801562000d6e573d6000803e3d6000fd5b505050506040513d601f19601f8201168201806040525081019062000d94919062003253565b5060008762000da4838962003289565b62000db09190620032a9565b60405163935b7dbd60e01b81526001600160a01b038b8116600483015260248201859052604482018390529192509086169063935b7dbd90606401600060405180830381600087803b15801562000e0657600080fd5b505af115801562000e1b573d6000803e3d6000fd5b5050505060408681015190516370a0823160e01b81526001600160a01b038c811660048301528616906370a0823190602401602060405180830381865afa15801562000e6b573d6000803e3d6000fd5b505050506040513d601f19601f8201168201806040525081019062000e919190620031fa565b106200063d576200063d8a620020c3565b505050505050505050565b600081600001518260200151836040015184606001513060405162000ed29062002b1d565b62000ee295949392919062003314565b604051809103906000f08015801562000eff573d6000803e3d6000fd5b5092915050565b600080600080876020015190508080602001905181019062000f29919062003214565b604080513060208201529194500160408051601f1981840301815291815260208a81018390528151610120810183526000808252918101829052918201819052606082018190526080820181905260a0820181905260c0820181905260e082018190526101008201529091506020808b01518051909162000fb191830181019083016200337c565b606460608301819052608083015260405190965090935062000fdd915088908490879060200162003462565b6040516020818303038152906040529050808b6020018190525060008851600162001009919062003512565b67ffffffffffffffff81111562001024576200102462002bee565b6040519080825280602002602001820160405280156200106157816020015b6200104d62002b2b565b815260200190600190039081620010435790505b50905060005b8951811015620010b75789818151811062001086576200108662003528565b6020026020010151828281518110620010a357620010a362003528565b602090810291909101015260010162001067565b5060405180604001604052806040518060a001604052806001815260200160008152602001600081526020016040518060600160405280602c81526020016200479e602c91398152604080518082018252601081527f4c4d5f50435f5374616b696e675f7631000000000000000000000000000000006020828101919091529283015291835281516001600160a01b038d168183015292019101604051602081830303815290604052815250818a518151811062001179576200117962003528565b602002602001018190525060008054906101000a90046001600160a01b03166001600160a01b031663ff2676998e8e8e8e866040518663ffffffff1660e01b8152600401620011cd959493929190620035c1565b6020604051808303816000875af1158015620011ed573d6000803e3d6000fd5b505050506040513d601f19601f8201168201806040525081019062001213919062003214565b96505050505096509650969350505050565b6000806000836001600160a01b0316634cfa64876040518163ffffffff1660e01b8152600401600060405180830381865afa15801562001269573d6000803e3d6000fd5b505050506040513d6000823e601f3d908101601f1916820160405262001293919081019062003683565b905060005b81518110156200135057818181518110620012b757620012b762003528565b60200260200101516001600160a01b0316637b0a47ee6040518163ffffffff1660e01b8152600401602060405180830381865afa9250505080156200131b575060408051601f3d908101601f191682019092526200131891810190620031fa565b60015b1562001347575081818151811062001337576200133762003528565b6020026020010151935062001350565b60010162001298565b5060005b81518110156200140c5781818151811062001373576200137362003528565b60200260200101516001600160a01b03166346ebcacf6040518163ffffffff1660e01b8152600401602060405180830381865afa925050508015620013d7575060408051601f3d908101601f19168201909252620013d491810190620031fa565b60015b15620014035750818181518110620013f357620013f362003528565b602002602001015192506200140c565b60010162001354565b5050915091565b60405180610180016040528060001515815260200183600001511515815260200183602001518152602001866001600160a01b0316815260200183604001516001600160a01b03168152602001826001600160a01b03168152602001876001600160a01b03168152602001886001600160a01b031663d1c6022f6040518163ffffffff1660e01b8152600401602060405180830381865afa158015620014bd573d6000803e3d6000fd5b505050506040513d601f19601f82011682018060405250810190620014e39190620031fa565b8152602001886001600160a01b031663bf75292b6040518163ffffffff1660e01b8152600401602060405180830381865afa15801562001527573d6000803e3d6000fd5b505050506040513d601f19601f820116820180604052508101906200154d9190620031fa565b81526080938401516020808301919091526001600160a01b0396871660408084019190915295871660609283015298861660009081526001808b5290869020835181549b85015161ffff19909c1690151561ff001916176101009b15158c02178155958301519086015581015160028501805473ffffffffffffffffffffffffffffffffffffffff1990811692881692909217905592810151600385018054851691871691909117905560a0810151600485018054851691871691909117905560c0810151600585018054851691871691909117905560e08101516006850155968701516007840155506101208601516008830155610140860151600983018054831691851691909117905561016090950151600a90910180549095169116179092555050565b6001600160a01b038082166000818152600160208181526040808420815161018081018352815460ff8082161515835261010091829004161515828601529482015481840152600282015488166060820152600382015488166080820152600480830154891660a08301526005830154891660c0830152600683015460e0830152600783015495820195909552600882015461012082015260098201548816610140820152600a909101549096166101608701528051631ca3bc4f60e01b81529051879593631ca3bc4f9383820193909291908290030181865afa15801562001761573d6000803e3d6000fd5b505050506040513d601f19601f8201168201806040525081019062001787919062003214565b905082602001516200193e578260c001516001600160a01b031663d09edf316040518163ffffffff1660e01b8152600401602060405180830381865afa158015620017d6573d6000803e3d6000fd5b505050506040513d601f19601f82011682018060405250810190620017fc919062003214565b6001600160a01b0316632f2ff15d8460c001516001600160a01b031663d09edf316040518163ffffffff1660e01b8152600401602060405180830381865afa1580156200184d573d6000803e3d6000fd5b505050506040513d601f19601f8201168201806040525081019062001873919062003214565b6001600160a01b031663b3ecf2366040518163ffffffff1660e01b8152600401602060405180830381865afa158015620018b1573d6000803e3d6000fd5b505050506040513d601f19601f82011682018060405250810190620018d79190620031fa565b60608601516040516001600160e01b031960e085901b16815260048101929092526001600160a01b03166024820152604401600060405180830381600087803b1580156200192457600080fd5b505af115801562001939573d6000803e3d6000fd5b505050505b60405163cf456ae760e01b8152306004820152600160248201526001600160a01b0382169063cf456ae790604401600060405180830381600087803b1580156200198757600080fd5b505af11580156200199c573d6000803e3d6000fd5b50505050816001600160a01b0316636c67e807836001600160a01b0316637feb48a16040518163ffffffff1660e01b8152600401602060405180830381865afa158015620019ee573d6000803e3d6000fd5b505050506040513d601f19601f8201168201806040525081019062001a149190620031fa565b6040516001600160e01b031960e084901b1681526004810191909152306024820152604401600060405180830381600087803b15801562001a5457600080fd5b505af115801562001a69573d6000803e3d6000fd5b505050508261016001516001600160a01b0316636c67e8078461016001516001600160a01b03166346ebcacf6040518163ffffffff1660e01b8152600401602060405180830381865afa15801562001ac5573d6000803e3d6000fd5b505050506040513d601f19601f8201168201806040525081019062001aeb9190620031fa565b6040516001600160e01b031960e084901b16815260048101919091523060248201526044015b600060405180830381600087803b15801562001b2c57600080fd5b505af115801562001b41573d6000803e3d6000fd5b5050505050505050565b811562001c9a57826001600160a01b03166323b872dd62001b6b62001ca0565b6040516001600160e01b031960e084901b1681526001600160a01b039091166004820152306024820152604481018590526064016020604051808303816000875af115801562001bbf573d6000803e3d6000fd5b505050506040513d601f19601f8201168201806040525081019062001be5919062003253565b5060405163095ea7b360e01b81526001600160a01b0385811660048301526024820184905284169063095ea7b3906044016020604051808303816000875af115801562001c36573d6000803e3d6000fd5b505050506040513d601f19601f8201168201806040525081019062001c5c919062003253565b5060405163935b7dbd60e01b81526001600160a01b038281166004830152602482018490526001604483015285169063935b7dbd9060640162001b11565b50505050565b60003660147f00000000000000000000000000000000000000000000000000000000000000006001600160a01b03163314801562001cde5750808210155b1562001d155760003662001cf3838562003728565b62001d009282906200373e565b62001d0b916200376a565b60601c9250505090565b339250505090565b6001600160a01b038083166000908152600160208181526040808420815161018081018352815460ff8082161515835261010091829004161515828601529482015481840152600282015487166060820152600382015487166080820152600480830154881660a08301526005830154881660c08301819052600684015460e0840152600784015496830196909652600883015461012083015260098301548816610140830152600a90920154909616610160870152815163030d028960e21b8152915194958695909486949093630c340a249381810193918290030181865afa15801562001e10573d6000803e3d6000fd5b505050506040513d601f19601f8201168201806040525081019062001e36919062003214565b6001600160a01b031663f2d638266040518163ffffffff1660e01b8152600401602060405180830381865afa15801562001e74573d6000803e3d6000fd5b505050506040513d601f19601f8201168201806040525081019062001e9a919062003214565b905060008690506000816001600160a01b031663fc0c546a6040518163ffffffff1660e01b8152600401602060405180830381865afa15801562001ee2573d6000803e3d6000fd5b505050506040513d601f19601f8201168201806040525081019062001f08919062003214565b6040516370a0823160e01b81526001600160a01b038a811660048301529192506000918316906370a0823190602401602060405180830381865afa15801562001f55573d6000803e3d6000fd5b505050506040513d601f19601f8201168201806040525081019062001f7b9190620031fa565b90506000846001600160a01b0316631a3e87336040518163ffffffff1660e01b8152600401602060405180830381865afa15801562001fbe573d6000803e3d6000fd5b505050506040513d601f19601f8201168201806040525081019062001fe49190620031fa565b9050600061271062001ff7838c62003289565b620020039190620032a9565b9050600062002013828c62003728565b9050600062002023828662003512565b90508860400151811115620020ab576000858a6040015111620020485760006200205a565b858a604001516200205a919062003728565b90506200206a8561271062003728565b620020788261271062003289565b620020849190620032a9565b9a508a8d1162002096576000620020a2565b620020a28b8e62003728565b9b5050620020b3565b8b995060009a505b5050505050505050509250929050565b6001600160a01b038082166000818152600160208181526040808420815161018081018352815460ff8082161515835261010091829004161515828601529482015481840152600282015488166060820152600382015488166080820152600480830154891660a08301526005830154891660c0830152600683015460e0830152600783015495820195909552600882015461012082015260098201548816610140820152600a909101549096166101608701528051637e062a3560e11b8152905187959363fc0c546a9383820193909291908290030181865afa158015620021b0573d6000803e3d6000fd5b505050506040513d601f19601f82011682018060405250810190620021d6919062003214565b90506000826001600160a01b0316631ca3bc4f6040518163ffffffff1660e01b8152600401602060405180830381865afa15801562002219573d6000803e3d6000fd5b505050506040513d601f19601f820116820180604052508101906200223f919062003214565b6040516370a0823160e01b81526001600160a01b0387811660048301529192506000918416906370a0823190602401602060405180830381865afa1580156200228c573d6000803e3d6000fd5b505050506040513d601f19601f82011682018060405250810190620022b29190620031fa565b905060008560e00151856001600160a01b031663d1c6022f6040518163ffffffff1660e01b8152600401602060405180830381865afa158015620022fa573d6000803e3d6000fd5b505050506040513d601f19601f82011682018060405250810190620023209190620031fa565b6200232c919062003728565b90508561016001516001600160a01b0316638028b82f876080015186886001600160a01b031663cbda8f826040518163ffffffff1660e01b8152600401602060405180830381865afa15801562002387573d6000803e3d6000fd5b505050506040513d601f19601f82011682018060405250810190620023ad9190620031fa565b620023b9908762003728565b6040516001600160e01b031960e086901b1681526001600160a01b03938416600482015292909116602483015260448201526000606482018190526084820181905260a482015260c401600060405180830381600087803b1580156200241e57600080fd5b505af115801562002433573d6000803e3d6000fd5b50505050846001600160a01b031663c6ab5cdc6040518163ffffffff1660e01b8152600401600060405180830381600087803b1580156200247357600080fd5b505af115801562002488573d6000803e3d6000fd5b50505050846001600160a01b031663ba83c9706040518163ffffffff1660e01b8152600401600060405180830381600087803b158015620024c857600080fd5b505af1158015620024dd573d6000803e3d6000fd5b5050505060808601516040516340c10f1960e01b81526001600160a01b03918216600482015260248101839052908416906340c10f1990604401600060405180830381600087803b1580156200253257600080fd5b505af115801562002547573d6000803e3d6000fd5b505050608087015160a08801516040516332092e4f60e21b81526001600160a01b038881166004830152878116602483015291821660448201526000935091169063c824b93c906064016020604051808303816000875af1158015620025b1573d6000803e3d6000fd5b505050506040513d601f19601f82011682018060405250810190620025d7919062003214565b90508660200151156200263f57836001600160a01b031663715018a66040518163ffffffff1660e01b8152600401600060405180830381600087803b1580156200262057600080fd5b505af115801562002635573d6000803e3d6000fd5b50505050620026a3565b606087015160405163f2fde38b60e01b81526001600160a01b0391821660048201529085169063f2fde38b90602401600060405180830381600087803b1580156200268957600080fd5b505af11580156200269e573d6000803e3d6000fd5b505050505b866020015162002858578660c001516001600160a01b031663d09edf316040518163ffffffff1660e01b8152600401602060405180830381865afa158015620026f0573d6000803e3d6000fd5b505050506040513d601f19601f8201168201806040525081019062002716919062003214565b6001600160a01b0316632f2ff15d8860c001516001600160a01b031663d09edf316040518163ffffffff1660e01b8152600401602060405180830381865afa15801562002767573d6000803e3d6000fd5b505050506040513d601f19601f820116820180604052508101906200278d919062003214565b6001600160a01b031663b3ecf2366040518163ffffffff1660e01b8152600401602060405180830381865afa158015620027cb573d6000803e3d6000fd5b505050506040513d601f19601f82011682018060405250810190620027f19190620031fa565b60608a01516040516001600160e01b031960e085901b16815260048101929092526001600160a01b03166024820152604401600060405180830381600087803b1580156200283e57600080fd5b505af115801562002853573d6000803e3d6000fd5b505050505b60018088526001600160a01b038981166000908152602083815260408083208c518154848f015161ffff1990911691151561ff001916919091176101009115158202178255828e01519682019690965560608d015160028201805473ffffffffffffffffffffffffffffffffffffffff1990811692881692909217905560808e0151600383018054831691881691909117905560a08e01516004808401805484169289169290921790915560c08f0151600584018054841691891691909117905560e08f01516006840155968e015160078301556101208e015160088301556101408e015160098301805483169188169190911790556101608e0151600a909201805490911691861691909117905580516365ed47c160e11b815290519294938b169363cbda8f829382820193929091908290030181865afa158015620029a3573d6000803e3d6000fd5b505050506040513d601f19601f82011682018060405250810190620029c99190620031fa565b6101408901516040516327c49ddd60e11b81526001600160a01b03918216600482015260248101839052919250881690634f893bba90604401600060405180830381600087803b15801562002a1d57600080fd5b505af115801562002a32573d6000803e3d6000fd5b5050506101408901516101208a015160405163654e51e760e01b81526001600160a01b03909216925063654e51e79162002a79918591600401918252602082015260400190565b600060405180830381600087803b15801562002a9457600080fd5b505af115801562002aa9573d6000803e3d6000fd5b50505050816001600160a01b03168860c001516001600160a01b03167f87ece6ae87f63ef38f596f64744e430b4ff9f0ef3c45a93b5e82ae668cbf218185878560405162002b0a939291909283526020830191909152604082015260600190565b60405180910390a3505050505050505050565b610ffd80620037a183390190565b604051806040016040528062002b696040518060a0016040528060008152602001600081526020016000815260200160608152602001606081525090565b8152602001606081525090565b6001600160a01b038116811462002b8c57600080fd5b50565b60006020828403121562002ba257600080fd5b813562002baf8162002b76565b9392505050565b60008060006060848603121562002bcc57600080fd5b833562002bd98162002b76565b95602085013595506040909401359392505050565b634e487b7160e01b600052604160045260246000fd5b6040805190810167ffffffffffffffff8111828210171562002c2a5762002c2a62002bee565b60405290565b60405160a0810167ffffffffffffffff8111828210171562002c2a5762002c2a62002bee565b604051610120810167ffffffffffffffff8111828210171562002c2a5762002c2a62002bee565b604051601f8201601f1916810167ffffffffffffffff8111828210171562002ca95762002ca962002bee565b604052919050565b801515811462002b8c57600080fd5b60006040828403121562002cd357600080fd5b62002cdd62002c04565b9050813562002cec8162002cb1565b8152602082013562002cfe8162002b76565b602082015292915050565b600082601f83011262002d1b57600080fd5b813567ffffffffffffffff81111562002d385762002d3862002bee565b62002d4d601f8201601f191660200162002c7d565b81815284602083860101111562002d6357600080fd5b816020850160208301376000918101602001919091529392505050565b60006040828403121562002d9357600080fd5b62002d9d62002c04565b9050813567ffffffffffffffff8082111562002db857600080fd5b9083019060a0828603121562002dcd57600080fd5b62002dd762002c30565b82358152602083013560208201526040830135604082015260608301358281111562002e0257600080fd5b62002e108782860162002d09565b60608301525060808301358281111562002e2957600080fd5b62002e378782860162002d09565b6080830152508352602084013591508082111562002e5457600080fd5b5062002e638482850162002d09565b60208301525092915050565b600067ffffffffffffffff82111562002e8c5762002e8c62002bee565b5060051b60200190565b600082601f83011262002ea857600080fd5b8135602062002ec162002ebb8362002e6f565b62002c7d565b82815260059290921b8401810191818101908684111562002ee157600080fd5b8286015b8481101562002f2657803567ffffffffffffffff81111562002f075760008081fd5b62002f178986838b010162002d80565b84525091830191830162002ee5565b509695505050505050565b60006080828403121562002f4457600080fd5b6040516080810167ffffffffffffffff828210818311171562002f6b5762002f6b62002bee565b81604052829350843591508082111562002f8457600080fd5b62002f928683870162002d09565b8352602085013591508082111562002fa957600080fd5b5062002fb88582860162002d09565b602083015250604083013560ff8116811462002fd357600080fd5b6040820152606092830135920191909152919050565b600060a0828403121562002ffc57600080fd5b6200300662002c30565b90508135620030158162002cb1565b8152602082810135908201526040820135620030318162002b76565b60408201526060820135620030468162002b76565b806060830152506080820135608082015292915050565b6000806000806000806000806101a0898b0312156200307b57600080fd5b620030878a8a62002cc0565b9750604089013567ffffffffffffffff80821115620030a557600080fd5b620030b38c838d0162002d80565b985060608b0135915080821115620030ca57600080fd5b620030d88c838d0162002d80565b975060808b0135915080821115620030ef57600080fd5b620030fd8c838d0162002d80565b965060a08b01359150808211156200311457600080fd5b620031228c838d0162002e96565b955060c08b01359150808211156200313957600080fd5b50620031488b828c0162002f31565b93505060e08901359150620031628a6101008b0162002fe9565b90509295985092959890939650565b600080604083850312156200318557600080fd5b8235620031928162002b76565b91506020830135620031a48162002b76565b809150509250929050565b60008060008060808587031215620031c657600080fd5b8435620031d38162002b76565b93506020850135620031e58162002b76565b93969395505050506040820135916060013590565b6000602082840312156200320d57600080fd5b5051919050565b6000602082840312156200322757600080fd5b815162002baf8162002b76565b8051620032418162002b76565b919050565b8051620032418162002cb1565b6000602082840312156200326657600080fd5b815162002baf8162002cb1565b634e487b7160e01b600052601160045260246000fd5b8082028115828204841417620032a357620032a362003273565b92915050565b600082620032c757634e487b7160e01b600052601260045260246000fd5b500490565b6000815180845260005b81811015620032f457602081850181015186830182015201620032d6565b506000602082860101526020601f19601f83011685010191505092915050565b60a0815260006200332960a0830188620032cc565b82810360208401526200333d8188620032cc565b60ff969096166040840152505060608101929092526001600160a01b031660809091015292915050565b805163ffffffff811681146200324157600080fd5b60008060008385036101608112156200339457600080fd5b8451620033a18162002b76565b9350610120601f198201811315620033b857600080fd5b620033c262002c56565b9150620033d26020870162003234565b8252620033e26040870162003367565b6020830152620033f56060870162003367565b60408301526080860151606083015260a086015160808301526200341c60c0870162003246565b60a08301526200342f60e0870162003246565b60c08301526101008681015160e08401529086015190820152915062003459610140850162003234565b90509250925092565b6000610160820190506001600160a01b0380861683528085511660208401525063ffffffff60208501511660408301526040840151620034aa606084018263ffffffff169052565b5060608401516080830152608084015160a083015260a0840151620034d360c084018215159052565b5060c084015180151560e08401525060e0840151610100838101919091528401516101208301526001600160a01b038316610140830152949350505050565b80820180821115620032a357620032a362003273565b634e487b7160e01b600052603260045260246000fd5b6000815160408452805160408501526020810151606085015260408101516080850152606081015160a0808601526200357b60e0860182620032cc565b905060808201519150603f198582030160c08601526200359c8183620032cc565b91505060208301518482036020860152620035b88282620032cc565b95945050505050565b855115158152600060206001600160a01b0381890151168184015260c06040840152620035f260c08401886200353e565b83810360608501526200360681886200353e565b905083810360808501526200361c81876200353e565b905083810360a08501528085518083528383019150838160051b84010184880160005b838110156200367157601f198684030185526200365e8383516200353e565b948701949250908601906001016200363f565b50909c9b505050505050505050505050565b600060208083850312156200369757600080fd5b825167ffffffffffffffff811115620036af57600080fd5b8301601f81018513620036c157600080fd5b8051620036d262002ebb8262002e6f565b81815260059190911b82018301908381019087831115620036f257600080fd5b928401925b828410156200371d5783516200370d8162002b76565b82529284019290840190620036f7565b979650505050505050565b81810381811115620032a357620032a362003273565b600080858511156200374f57600080fd5b838611156200375d57600080fd5b5050820193919092039150565b6bffffffffffffffffffffffff198135818116916014851015620037985780818660140360031b1b83161692505b50509291505056fe60c06040523480156200001157600080fd5b5060405162000ffd38038062000ffd833981016040819052620000349162000254565b80828686600362000046838262000395565b50600462000055828262000395565b50505080600003620000825760405163392e1e2760e01b8152600060048201526024015b60405180910390fd5b6080526001600160a01b038116620000b157604051631e4fbdf760e01b81526000600482015260240162000079565b620000bc81620000db565b50620000ca8160016200012d565b505060ff1660a05250620004619050565b600580546001600160a01b038381166001600160a01b0319831681179093556040519116919082907f8be0079c531659141344cd1fd0a4f28419497f9722a3daafe3b4186f6b6457e090600090a35050565b6001600160a01b038216600081815260066020908152604091829020805460ff191685151590811790915591519182527f583b0aa0e528532caf4b907c11d7a8158a122fe2a6fb80cd9b09776ebea8d92d910160405180910390a25050565b634e487b7160e01b600052604160045260246000fd5b600082601f830112620001b457600080fd5b81516001600160401b0380821115620001d157620001d16200018c565b604051601f8301601f19908116603f01168101908282118183101715620001fc57620001fc6200018c565b81604052838152602092508660208588010111156200021a57600080fd5b600091505b838210156200023e57858201830151818301840152908201906200021f565b6000602085830101528094505050505092915050565b600080600080600060a086880312156200026d57600080fd5b85516001600160401b03808211156200028557600080fd5b6200029389838a01620001a2565b96506020880151915080821115620002aa57600080fd5b50620002b988828901620001a2565b945050604086015160ff81168114620002d157600080fd5b6060870151608088015191945092506001600160a01b0381168114620002f657600080fd5b809150509295509295909350565b600181811c908216806200031957607f821691505b6020821081036200033a57634e487b7160e01b600052602260045260246000fd5b50919050565b601f82111562000390576000816000526020600020601f850160051c810160208610156200036b5750805b601f850160051c820191505b818110156200038c5782815560010162000377565b5050505b505050565b81516001600160401b03811115620003b157620003b16200018c565b620003c981620003c2845462000304565b8462000340565b602080601f831160018114620004015760008415620003e85750858301515b600019600386901b1c1916600185901b1785556200038c565b600085815260208120601f198616915b82811015620004325788860151825594840194600190910190840162000411565b5085821015620004515787850151600019600388901b60f8161c191681555b5050505050600190811b01905550565b60805160a051610b6f6200048e600039600061018d0152600081816101b901526108000152610b6f6000f3fe608060405234801561001057600080fd5b506004361061011b5760003560e01c806370a08231116100b25780639dc29fac11610081578063cf456ae711610066578063cf456ae71461028f578063dd62ed3e146102a2578063f2fde38b146102db57600080fd5b80639dc29fac14610269578063a9059cbb1461027c57600080fd5b806370a0823114610215578063715018a61461023e5780638da5cb5b1461024657806395d89b411461026157600080fd5b8063313ce567116100ee578063313ce56714610186578063355274ea146101b757806340c10f19146101dd578063423afa66146101f257600080fd5b806306fdde0314610120578063095ea7b31461013e57806318160ddd1461016157806323b872dd14610173575b600080fd5b6101286102ee565b604051610135919061097c565b60405180910390f35b61015161014c3660046109e7565b610380565b6040519015158152602001610135565b6002545b604051908152602001610135565b610151610181366004610a11565b61039a565b60405160ff7f0000000000000000000000000000000000000000000000000000000000000000168152602001610135565b7f0000000000000000000000000000000000000000000000000000000000000000610165565b6101f06101eb3660046109e7565b6103be565b005b610151610200366004610a4d565b60066020526000908152604090205460ff1681565b610165610223366004610a4d565b6001600160a01b031660009081526020819052604090205490565b6101f06103fc565b6005546040516001600160a01b039091168152602001610135565b610128610410565b6101f06102773660046109e7565b61041f565b61015161028a3660046109e7565b610459565b6101f061029d366004610a6f565b610467565b6101656102b0366004610aab565b6001600160a01b03918216600090815260016020908152604080832093909416825291909152205490565b6101f06102e9366004610a4d565b610479565b6060600380546102fd90610ade565b80601f016020809104026020016040519081016040528092919081815260200182805461032990610ade565b80156103765780601f1061034b57610100808354040283529160200191610376565b820191906000526020600020905b81548152906001019060200180831161035957829003601f168201915b5050505050905090565b60003361038e8185856104bc565b60019150505b92915050565b6000336103a88582856104ce565b6103b385858561054c565b506001949350505050565b3360009081526006602052604090205460ff166103ee57604051634199e25360e11b815260040160405180910390fd5b6103f882826105ab565b5050565b6104046105e1565b61040e600061060e565b565b6060600480546102fd90610ade565b3360009081526006602052604090205460ff1661044f57604051634199e25360e11b815260040160405180910390fd5b6103f88282610678565b60003361038e81858561054c565b61046f6105e1565b6103f882826106ae565b6104816105e1565b6001600160a01b0381166104b057604051631e4fbdf760e01b8152600060048201526024015b60405180910390fd5b6104b98161060e565b50565b6104c9838383600161070d565b505050565b6001600160a01b038381166000908152600160209081526040808320938616835292905220546000198114610546578181101561053757604051637dc7a0d960e11b81526001600160a01b038416600482015260248101829052604481018390526064016104a7565b6105468484848403600061070d565b50505050565b6001600160a01b03831661057657604051634b637e8f60e11b8152600060048201526024016104a7565b6001600160a01b0382166105a05760405163ec442f0560e01b8152600060048201526024016104a7565b6104c98383836107e2565b6001600160a01b0382166105d55760405163ec442f0560e01b8152600060048201526024016104a7565b6103f8600083836107e2565b6005546001600160a01b0316331461040e5760405163118cdaa760e01b81523360048201526024016104a7565b600580546001600160a01b038381167fffffffffffffffffffffffff0000000000000000000000000000000000000000831681179093556040519116919082907f8be0079c531659141344cd1fd0a4f28419497f9722a3daafe3b4186f6b6457e090600090a35050565b6001600160a01b0382166106a257604051634b637e8f60e11b8152600060048201526024016104a7565b6103f8826000836107e2565b6001600160a01b038216600081815260066020908152604091829020805460ff191685151590811790915591519182527f583b0aa0e528532caf4b907c11d7a8158a122fe2a6fb80cd9b09776ebea8d92d910160405180910390a25050565b6001600160a01b0384166107375760405163e602df0560e01b8152600060048201526024016104a7565b6001600160a01b03831661076157604051634a1406b160e11b8152600060048201526024016104a7565b6001600160a01b038085166000908152600160209081526040808320938716835292905220829055801561054657826001600160a01b0316846001600160a01b03167f8c5be1e5ebec7d5bd14f71427d1e84f3dd0314c0f7b2291e5b200ac8c7c3b925846040516107d491815260200190565b60405180910390a350505050565b6107ed838383610852565b6001600160a01b0383166104c9576002547f0000000000000000000000000000000000000000000000000000000000000000908181111561084b5760405163279e7e1560e21b815260048101829052602481018390526044016104a7565b5050505050565b6001600160a01b03831661087d5780600260008282546108729190610b18565b909155506108ef9050565b6001600160a01b038316600090815260208190526040902054818110156108d05760405163391434e360e21b81526001600160a01b038516600482015260248101829052604481018390526064016104a7565b6001600160a01b03841660009081526020819052604090209082900390555b6001600160a01b03821661090b5760028054829003905561092a565b6001600160a01b03821660009081526020819052604090208054820190555b816001600160a01b0316836001600160a01b03167fddf252ad1be2c89b69c2b068fc378daa952ba7f163c4a11628f55a4df523b3ef8360405161096f91815260200190565b60405180910390a3505050565b60006020808352835180602085015260005b818110156109aa5785810183015185820160400152820161098e565b506000604082860101526040601f19601f8301168501019250505092915050565b80356001600160a01b03811681146109e257600080fd5b919050565b600080604083850312156109fa57600080fd5b610a03836109cb565b946020939093013593505050565b600080600060608486031215610a2657600080fd5b610a2f846109cb565b9250610a3d602085016109cb565b9150604084013590509250925092565b600060208284031215610a5f57600080fd5b610a68826109cb565b9392505050565b60008060408385031215610a8257600080fd5b610a8b836109cb565b915060208301358015158114610aa057600080fd5b809150509250929050565b60008060408385031215610abe57600080fd5b610ac7836109cb565b9150610ad5602084016109cb565b90509250929050565b600181811c90821680610af257607f821691505b602082108103610b1257634e487b7160e01b600052602260045260246000fd5b50919050565b8082018082111561039457634e487b7160e01b600052601160045260246000fdfea26469706673582212200d68669bd9d7a7cf36532e94088db26b3e972e6649ce1d5bd2b0e1bd50d1234764736f6c6343000817003368747470733a2f2f6769746875622e636f6d2f496e7665727465724e6574776f726b2f636f6e747261637473a26469706673582212204106bd3539b755571dcd3362fcf42aa104fd73bd4a97c2bd8fc5defbbb5e6a6764736f6c63430008170033",
    "linkReferences": {}
  },
  "methodIdentifiers": {
    "buyFor(address,address,uint256,uint256)": "f6819293",
    "createPIMWorkflow((bool,address),((uint256,uint256,uint256,string,string),bytes),((uint256,uint256,uint256,string,string),bytes),((uint256,uint256,uint256,string,string),bytes),((uint256,uint256,uint256,string,string),bytes)[],(string,string,uint8,uint256),uint256,(bool,uint256,address,address,uint256))": "5a02353b",
    "getIsGraduated(address)": "1248c803",
    "getIsImmutable(address)": "f402c2bb",
    "getLpTokenRecipient(address)": "de78c729",
    "getMigrationThreshold(address)": "d8354222",
    "isTrustedForwarder(address)": "572b6c05",
    "orchestratorFactory()": "2f36a25d",
    "pims(address)": "1615f657",
    "sellTo(address,address,uint256,uint256)": "ce7c83dd",
    "setRewards(address,uint256,uint256)": "455964f6",
    "trustedForwarder()": "7da0a877",
    "withdrawPimFee(address,address)": "a0f7c7eb"
  },
  "id": 78
}