{
  "abi": [
    {
      "type": "constructor",
      "inputs": [
        {
          "name": "_orchestratorFactory",
          "type": "address",
          "internalType": "address"
        },
        {
          "name": "_trustedForwarder",
          "type": "address",
          "internalType": "address"
        }
      ],
      "stateMutability": "nonpayable"
    },
    {
      "type": "function",
      "name": "buyFor",
      "inputs": [
        {
          "name": "fundingManager",
          "type": "address",
          "internalType": "address"
        },
        {
          "name": "recipient",
          "type": "address",
          "internalType": "address"
        },
        {
          "name": "amountIn",
          "type": "uint256",
          "internalType": "uint256"
        },
        {
          "name": "minAmountOut",
          "type": "uint256",
          "internalType": "uint256"
        }
      ],
      "outputs": [],
      "stateMutability": "nonpayable"
    },
    {
      "type": "function",
      "name": "createPIMWorkflow",
      "inputs": [
        {
          "name": "workflowConfig",
          "type": "tuple",
          "internalType": "struct IOrchestratorFactory_v1.WorkflowConfig",
          "components": [
            {
              "name": "independentUpdates",
              "type": "bool",
              "internalType": "bool"
            },
            {
              "name": "independentUpdateAdmin",
              "type": "address",
              "internalType": "address"
            }
          ]
        },
        {
          "name": "fundingManagerConfig",
          "type": "tuple",
          "internalType": "struct IOrchestratorFactory_v1.ModuleConfig",
          "components": [
            {
              "name": "metadata",
              "type": "tuple",
              "internalType": "struct IModule_v1.Metadata",
              "components": [
                {
                  "name": "majorVersion",
                  "type": "uint256",
                  "internalType": "uint256"
                },
                {
                  "name": "minorVersion",
                  "type": "uint256",
                  "internalType": "uint256"
                },
                {
                  "name": "patchVersion",
                  "type": "uint256",
                  "internalType": "uint256"
                },
                {
                  "name": "url",
                  "type": "string",
                  "internalType": "string"
                },
                {
                  "name": "title",
                  "type": "string",
                  "internalType": "string"
                }
              ]
            },
            {
              "name": "configData",
              "type": "bytes",
              "internalType": "bytes"
            }
          ]
        },
        {
          "name": "authorizerConfig",
          "type": "tuple",
          "internalType": "struct IOrchestratorFactory_v1.ModuleConfig",
          "components": [
            {
              "name": "metadata",
              "type": "tuple",
              "internalType": "struct IModule_v1.Metadata",
              "components": [
                {
                  "name": "majorVersion",
                  "type": "uint256",
                  "internalType": "uint256"
                },
                {
                  "name": "minorVersion",
                  "type": "uint256",
                  "internalType": "uint256"
                },
                {
                  "name": "patchVersion",
                  "type": "uint256",
                  "internalType": "uint256"
                },
                {
                  "name": "url",
                  "type": "string",
                  "internalType": "string"
                },
                {
                  "name": "title",
                  "type": "string",
                  "internalType": "string"
                }
              ]
            },
            {
              "name": "configData",
              "type": "bytes",
              "internalType": "bytes"
            }
          ]
        },
        {
          "name": "paymentProcessorConfig",
          "type": "tuple",
          "internalType": "struct IOrchestratorFactory_v1.ModuleConfig",
          "components": [
            {
              "name": "metadata",
              "type": "tuple",
              "internalType": "struct IModule_v1.Metadata",
              "components": [
                {
                  "name": "majorVersion",
                  "type": "uint256",
                  "internalType": "uint256"
                },
                {
                  "name": "minorVersion",
                  "type": "uint256",
                  "internalType": "uint256"
                },
                {
                  "name": "patchVersion",
                  "type": "uint256",
                  "internalType": "uint256"
                },
                {
                  "name": "url",
                  "type": "string",
                  "internalType": "string"
                },
                {
                  "name": "title",
                  "type": "string",
                  "internalType": "string"
                }
              ]
            },
            {
              "name": "configData",
              "type": "bytes",
              "internalType": "bytes"
            }
          ]
        },
        {
          "name": "moduleConfigs",
          "type": "tuple[]",
          "internalType": "struct IOrchestratorFactory_v1.ModuleConfig[]",
          "components": [
            {
              "name": "metadata",
              "type": "tuple",
              "internalType": "struct IModule_v1.Metadata",
              "components": [
                {
                  "name": "majorVersion",
                  "type": "uint256",
                  "internalType": "uint256"
                },
                {
                  "name": "minorVersion",
                  "type": "uint256",
                  "internalType": "uint256"
                },
                {
                  "name": "patchVersion",
                  "type": "uint256",
                  "internalType": "uint256"
                },
                {
                  "name": "url",
                  "type": "string",
                  "internalType": "string"
                },
                {
                  "name": "title",
                  "type": "string",
                  "internalType": "string"
                }
              ]
            },
            {
              "name": "configData",
              "type": "bytes",
              "internalType": "bytes"
            }
          ]
        },
        {
          "name": "issuanceTokenParams",
          "type": "tuple",
          "internalType": "struct IBondingCurveBase_v1.IssuanceToken",
          "components": [
            {
              "name": "name",
              "type": "string",
              "internalType": "string"
            },
            {
              "name": "symbol",
              "type": "string",
              "internalType": "string"
            },
            {
              "name": "decimals",
              "type": "uint8",
              "internalType": "uint8"
            },
            {
              "name": "maxSupply",
              "type": "uint256",
              "internalType": "uint256"
            }
          ]
        },
        {
          "name": "initialPurchaseAmount",
          "type": "uint256",
          "internalType": "uint256"
        },
        {
          "name": "migrationConfig_",
          "type": "tuple",
          "internalType": "struct IMigrating_PIM_Factory_v1.MigrationConfig",
          "components": [
            {
              "name": "isImmutable",
              "type": "bool",
              "internalType": "bool"
            },
            {
              "name": "migrationThreshold",
              "type": "uint256",
              "internalType": "uint256"
            },
            {
              "name": "dexAdapter",
              "type": "address",
              "internalType": "address"
            },
            {
              "name": "lpTokenRecipient",
              "type": "address",
              "internalType": "address"
            }
          ]
        }
      ],
      "outputs": [
        {
          "name": "",
          "type": "address",
          "internalType": "contract IOrchestrator_v1"
        }
      ],
      "stateMutability": "nonpayable"
    },
    {
      "type": "function",
      "name": "dexAdapter",
      "inputs": [],
      "outputs": [
        {
          "name": "",
          "type": "address",
          "internalType": "contract IDexAdapter_v1"
        }
      ],
      "stateMutability": "view"
    },
    {
      "type": "function",
      "name": "getIsGraduated",
      "inputs": [
        {
          "name": "fundingManager",
          "type": "address",
          "internalType": "address"
        }
      ],
      "outputs": [
        {
          "name": "",
          "type": "bool",
          "internalType": "bool"
        }
      ],
      "stateMutability": "view"
    },
    {
      "type": "function",
      "name": "isImmutable",
      "inputs": [],
      "outputs": [
        {
          "name": "",
          "type": "bool",
          "internalType": "bool"
        }
      ],
      "stateMutability": "view"
    },
    {
      "type": "function",
      "name": "isTrustedForwarder",
      "inputs": [
        {
          "name": "forwarder",
          "type": "address",
          "internalType": "address"
        }
      ],
      "outputs": [
        {
          "name": "",
          "type": "bool",
          "internalType": "bool"
        }
      ],
      "stateMutability": "view"
    },
    {
      "type": "function",
      "name": "lpTokenRecipient",
      "inputs": [],
      "outputs": [
        {
          "name": "",
          "type": "address",
          "internalType": "address"
        }
      ],
      "stateMutability": "view"
    },
    {
      "type": "function",
      "name": "migrationThreshold",
      "inputs": [],
      "outputs": [
        {
          "name": "",
          "type": "uint256",
          "internalType": "uint256"
        }
      ],
      "stateMutability": "view"
    },
    {
      "type": "function",
      "name": "orchestratorFactory",
      "inputs": [],
      "outputs": [
        {
          "name": "",
          "type": "address",
          "internalType": "address"
        }
      ],
      "stateMutability": "view"
    },
    {
      "type": "function",
      "name": "pims",
      "inputs": [
        {
          "name": "fundingManager",
          "type": "address",
          "internalType": "address"
        }
      ],
      "outputs": [
        {
          "name": "isGraduated",
          "type": "bool",
          "internalType": "bool"
        },
        {
          "name": "orchestrator",
          "type": "address",
          "internalType": "contract IOrchestrator_v1"
        },
        {
          "name": "initialVirtualIssuanceSupply",
          "type": "uint256",
          "internalType": "uint256"
        },
        {
          "name": "initialVirtualCollateralSupply",
          "type": "uint256",
          "internalType": "uint256"
        }
      ],
      "stateMutability": "view"
    },
    {
      "type": "function",
      "name": "sellTo",
      "inputs": [
        {
          "name": "fundingManager",
          "type": "address",
          "internalType": "address"
        },
        {
          "name": "recipient",
          "type": "address",
          "internalType": "address"
        },
        {
          "name": "amountIn",
          "type": "uint256",
          "internalType": "uint256"
        },
        {
          "name": "minAmountOut",
          "type": "uint256",
          "internalType": "uint256"
        }
      ],
      "outputs": [],
      "stateMutability": "nonpayable"
    },
    {
      "type": "function",
      "name": "trustedForwarder",
      "inputs": [],
      "outputs": [
        {
          "name": "",
          "type": "address",
          "internalType": "address"
        }
      ],
      "stateMutability": "view"
    },
    {
      "type": "event",
      "name": "Graduation",
      "inputs": [
        {
          "name": "fundingManager",
          "type": "address",
          "indexed": true,
          "internalType": "address"
        },
        {
          "name": "issuanceToken",
          "type": "address",
          "indexed": true,
          "internalType": "address"
        },
        {
          "name": "collateralToken",
          "type": "address",
          "indexed": false,
          "internalType": "address"
        },
        {
          "name": "pool",
          "type": "address",
          "indexed": true,
          "internalType": "address"
        },
        {
          "name": "issuanceTokenAmount",
          "type": "uint256",
          "indexed": false,
          "internalType": "uint256"
        },
        {
          "name": "collateralTokenAmount",
          "type": "uint256",
          "indexed": false,
          "internalType": "uint256"
        }
      ],
      "anonymous": false
    },
    {
      "type": "event",
      "name": "PIMWorkflowCreated",
      "inputs": [
        {
          "name": "fundingManager",
          "type": "address",
          "indexed": true,
          "internalType": "address"
        },
        {
          "name": "issuanceToken",
          "type": "address",
          "indexed": true,
          "internalType": "address"
        },
        {
          "name": "deployer",
          "type": "address",
          "indexed": true,
          "internalType": "address"
        },
        {
          "name": "isImmutable",
          "type": "bool",
          "indexed": false,
          "internalType": "bool"
        },
        {
          "name": "migrationThreshold",
          "type": "uint256",
          "indexed": false,
          "internalType": "uint256"
        },
        {
          "name": "lpTokenRecipient",
          "type": "address",
          "indexed": false,
          "internalType": "address"
        }
      ],
      "anonymous": false
    },
    {
      "type": "event",
      "name": "PimFeeClaimed",
      "inputs": [
        {
          "name": "fundingManager",
          "type": "address",
          "indexed": true,
          "internalType": "address"
        },
        {
          "name": "claimer",
          "type": "address",
          "indexed": true,
          "internalType": "address"
        },
        {
          "name": "to",
          "type": "address",
          "indexed": true,
          "internalType": "address"
        },
        {
          "name": "amount",
          "type": "uint256",
          "indexed": false,
          "internalType": "uint256"
        }
      ],
      "anonymous": false
    },
    {
      "type": "event",
      "name": "PimFeeRecipientUpdated",
      "inputs": [
        {
          "name": "fundingManager",
          "type": "address",
          "indexed": true,
          "internalType": "address"
        },
        {
          "name": "oldRecipient",
          "type": "address",
          "indexed": true,
          "internalType": "address"
        },
        {
          "name": "newRecipient",
          "type": "address",
          "indexed": true,
          "internalType": "address"
        }
      ],
      "anonymous": false
    },
    {
      "type": "error",
      "name": "PIM_WorkflowFactory__OnlyPimFeeRecipient",
      "inputs": []
    }
  ],
  "bytecode": {
    "object": "0x60a06040523480156200001157600080fd5b5060405162003f0c38038062003f0c83398101604081905262000034916200007d565b6001600160a01b03908116608052600080546001600160a01b03191692909116919091179055620000b5565b80516001600160a01b03811681146200007857600080fd5b919050565b600080604083850312156200009157600080fd5b6200009c8362000060565b9150620000ac6020840162000060565b90509250929050565b608051613e2d620000df600039600081816101f20152818161023b01526115240152613e2d6000f3fe60806040523480156200001157600080fd5b5060043610620000e55760003560e01c80637da0a877116200008b578063bb0aa8ef1162000062578063bb0aa8ef146200028d578063ce7c83dd14620002a2578063f681929314620002bb57600080fd5b80637da0a877146200023957806390bc1e85146200026057806391f03efd146200027957600080fd5b80632f36a25d11620000c05780632f36a25d14620001cb578063572b6c0514620001df5780636daf301a146200022257600080fd5b80631248c80314620000ea5780631615f657146200012e57806316b4ad7a146200019e575b600080fd5b62000119620000fb3660046200225f565b6001600160a01b031660009081526005602052604090205460ff1690565b60405190151581526020015b60405180910390f35b620001736200013f3660046200225f565b60056020526000908152604090208054600182015460029092015460ff8216926101009092046001600160a01b0316919084565b6040805194151585526001600160a01b03909316602085015291830152606082015260800162000125565b600354620001b2906001600160a01b031681565b6040516001600160a01b03909116815260200162000125565b600054620001b2906001600160a01b031681565b62000119620001f03660046200225f565b7f00000000000000000000000000000000000000000000000000000000000000006001600160a01b0390811691161490565b620001b262000233366004620026f5565b620002d2565b7f0000000000000000000000000000000000000000000000000000000000000000620001b2565b6200026a60025481565b60405190815260200162000125565b600154620001b2906001600160a01b031681565b6001546200011990600160a01b900460ff1681565b620002b9620002b336600462002809565b6200070d565b005b620002b9620002cc36600462002809565b62000920565b8051600180546020840151600255604084015174ffffffffffffffffffffffffffffffffffffffffff19909116600160a01b931515840273ffffffffffffffffffffffffffffffffffffffff1916176001600160a01b03909116179081905560009160ff9104161562000364576003805473ffffffffffffffffffffffffffffffffffffffff19163017905562000396565b60608201516003805473ffffffffffffffffffffffffffffffffffffffff19166001600160a01b039092169190911790555b6000846000015185602001518660400151876060015130604051620003bb9062002238565b620003cb9594939291906200289c565b604051809103906000f080158015620003e8573d6000803e3d6000fd5b5090506000806000620004008d8d8d8d8d8962000c5c565b92509250925081600460006101000a8154816001600160a01b0302191690836001600160a01b031602179055506000836001600160a01b03166304baed9e6040518163ffffffff1660e01b8152600401602060405180830381865afa1580156200046e573d6000803e3d6000fd5b505050506040513d601f19601f82011682018060405250810190620004949190620028ef565b90506040518060800160405280600015158152602001856001600160a01b03168152602001826001600160a01b031663d1c6022f6040518163ffffffff1660e01b8152600401602060405180830381865afa158015620004f8573d6000803e3d6000fd5b505050506040513d601f19601f820116820180604052508101906200051e91906200290f565b8152602001826001600160a01b031663bf75292b6040518163ffffffff1660e01b8152600401602060405180830381865afa15801562000562573d6000803e3d6000fd5b505050506040513d601f19601f820116820180604052508101906200058891906200290f565b90526001600160a01b03828116600081815260056020908152604091829020855181549287015174ffffffffffffffffffffffffffffffffffffffffff1990931690151574ffffffffffffffffffffffffffffffffffffffff0019161761010092861692909202919091178155848201516001808301919091556060909501516002909101555163cf456ae760e01b81526004810191909152602481019290925286169063cf456ae790604401600060405180830381600087803b1580156200065057600080fd5b505af115801562000665573d6000803e3d6000fd5b50505050620006748162000de6565b6200068281838a8662001399565b6200068c6200151d565b60015460025460035460408051600160a01b90940460ff161515845260208401929092526001600160a01b03908116918301919091529182169187811691908716907fd48997388cefe01f404a6f289de0365da97616ade304f75e7f2d994affbc985c9060600160405180910390a450919c9b505050505050505050505050565b6001600160a01b0380851660008181526005602090815260408083208151608081018352815460ff8116151582526101009004909616868401526001810154868301526002015460608601528051631ca3bc4f60e01b81529051899492631ca3bc4f92600480820193918290030181865afa15801562000791573d6000803e3d6000fd5b505050506040513d601f19601f82011682018060405250810190620007b79190620028ef565b6040516323b872dd60e01b8152336004820152306024820152604481018790529091506001600160a01b038216906323b872dd906064016020604051808303816000875af11580156200080e573d6000803e3d6000fd5b505050506040513d601f19601f8201168201806040525081019062000834919062002948565b5060405163095ea7b360e01b81526001600160a01b0388811660048301526024820187905282169063095ea7b3906044016020604051808303816000875af115801562000885573d6000803e3d6000fd5b505050506040513d601f19601f82011682018060405250810190620008ab919062002948565b506040516362d93eef60e11b81526001600160a01b038781166004830152602482018790526044820186905283169063c5b27dde90606401600060405180830381600087803b158015620008fe57600080fd5b505af115801562000913573d6000803e3d6000fd5b5050505050505050505050565b6001600160a01b0380851660008181526005602090815260408083208151608081018352815460ff8116151582526101009004909616868401526001810154868301526002015460608601528051631ca3bc4f60e01b81529051899492631ca3bc4f92600480820193918290030181865afa158015620009a4573d6000803e3d6000fd5b505050506040513d601f19601f82011682018060405250810190620009ca9190620028ef565b90506000826001600160a01b031663fc0c546a6040518163ffffffff1660e01b8152600401602060405180830381865afa15801562000a0d573d6000803e3d6000fd5b505050506040513d601f19601f8201168201806040525081019062000a339190620028ef565b905060008062000a448a896200159a565b9092509050801562000c50576040516323b872dd60e01b8152336004820152306024820152604481018290526001600160a01b038416906323b872dd906064016020604051808303816000875af115801562000aa4573d6000803e3d6000fd5b505050506040513d601f19601f8201168201806040525081019062000aca919062002948565b5060405163095ea7b360e01b81526001600160a01b038b811660048301526024820183905284169063095ea7b3906044016020604051808303816000875af115801562000b1b573d6000803e3d6000fd5b505050506040513d601f19601f8201168201806040525081019062000b41919062002948565b5060008862000b51838a6200297e565b62000b5d91906200299e565b60405163935b7dbd60e01b81526001600160a01b038c8116600483015260248201859052604482018390529192509087169063935b7dbd90606401600060405180830381600087803b15801562000bb357600080fd5b505af115801562000bc8573d6000803e3d6000fd5b50506002546040516370a0823160e01b81526001600160a01b038f8116600483015291935090871691506370a0823190602401602060405180830381865afa15801562000c19573d6000803e3d6000fd5b505050506040513d601f19601f8201168201806040525081019062000c3f91906200290f565b106200091357620009138b620018d4565b50505050505050505050565b600080600080876020015190508080602001905181019062000c7f9190620028ef565b604080513060208201529194500160408051601f1981840301815291815260208a81018390528151610120810183526000808252918101829052918201819052606082018190526080820181905260a0820181905260c0820181905260e082018190526101008201529091506020808b01518051909162000d079183018101908301620029d6565b60405190965090935062000d25915088908490879060200162002abc565b60408051601f1981840301815291815260208d0182905260005490517fff2676990000000000000000000000000000000000000000000000000000000081529192506001600160a01b03169063ff2676999062000d8f908f908f908f908f908f9060040162002bef565b6020604051808303816000875af115801562000daf573d6000803e3d6000fd5b505050506040513d601f19601f8201168201806040525081019062000dd59190620028ef565b955050505096509650969350505050565b6001600160a01b0380821660008181526005602090815260408083208151608081018352815460ff8116151582526101009004909616868401526001810154868301526002015460608601528051631ca3bc4f60e01b81529051869492631ca3bc4f92600480820193918290030181865afa15801562000e6a573d6000803e3d6000fd5b505050506040513d601f19601f8201168201806040525081019062000e909190620028ef565b600154909150600160a01b900460ff16620010505782602001516001600160a01b031663d09edf316040518163ffffffff1660e01b8152600401602060405180830381865afa15801562000ee8573d6000803e3d6000fd5b505050506040513d601f19601f8201168201806040525081019062000f0e9190620028ef565b6001600160a01b0316632f2ff15d84602001516001600160a01b031663d09edf316040518163ffffffff1660e01b8152600401602060405180830381865afa15801562000f5f573d6000803e3d6000fd5b505050506040513d601f19601f8201168201806040525081019062000f859190620028ef565b6001600160a01b031663b3ecf2366040518163ffffffff1660e01b8152600401602060405180830381865afa15801562000fc3573d6000803e3d6000fd5b505050506040513d601f19601f8201168201806040525081019062000fe991906200290f565b6004805460405160e085901b6001600160e01b0319168152918201929092526001600160a01b039091166024820152604401600060405180830381600087803b1580156200103657600080fd5b505af11580156200104b573d6000803e3d6000fd5b505050505b60405163cf456ae760e01b8152306004820152600160248201526001600160a01b0382169063cf456ae790604401600060405180830381600087803b1580156200109957600080fd5b505af1158015620010ae573d6000803e3d6000fd5b50505050816001600160a01b0316636c67e807836001600160a01b0316637feb48a16040518163ffffffff1660e01b8152600401602060405180830381865afa15801562001100573d6000803e3d6000fd5b505050506040513d601f19601f820116820180604052508101906200112691906200290f565b6040516001600160e01b031960e084901b1681526004810191909152306024820152604401600060405180830381600087803b1580156200116657600080fd5b505af11580156200117b573d6000803e3d6000fd5b50505050600083602001516001600160a01b0316634cfa64876040518163ffffffff1660e01b8152600401600060405180830381865afa158015620011c4573d6000803e3d6000fd5b505050506040513d6000823e601f3d908101601f19168201604052620011ee919081019062002cb1565b905060005b8151811015620013915781818151811062001212576200121262002d56565b60200260200101516001600160a01b03166346ebcacf6040518163ffffffff1660e01b8152600401602060405180830381865afa92505050801562001276575060408051601f3d908101601f1916820190925262001273918101906200290f565b60015b1562001388575081818151811062001292576200129262002d56565b60200260200101516001600160a01b0316636c67e807838381518110620012bd57620012bd62002d56565b60200260200101516001600160a01b03166346ebcacf6040518163ffffffff1660e01b8152600401602060405180830381865afa15801562001303573d6000803e3d6000fd5b505050506040513d601f19601f820116820180604052508101906200132991906200290f565b6040516001600160e01b031960e084901b1681526004810191909152306024820152604401600060405180830381600087803b1580156200136957600080fd5b505af11580156200137e573d6000803e3d6000fd5b5050505062001391565b600101620011f3565b505050505050565b81156200151757826001600160a01b03166323b872dd620013b96200151d565b6040516001600160e01b031960e084901b1681526001600160a01b039091166004820152306024820152604481018590526064016020604051808303816000875af11580156200140d573d6000803e3d6000fd5b505050506040513d601f19601f8201168201806040525081019062001433919062002948565b5060405163095ea7b360e01b81526001600160a01b0385811660048301526024820184905284169063095ea7b3906044016020604051808303816000875af115801562001484573d6000803e3d6000fd5b505050506040513d601f19601f82011682018060405250810190620014aa919062002948565b5060405163935b7dbd60e01b81526001600160a01b038281166004830152602482018490526001604483015285169063935b7dbd90606401600060405180830381600087803b158015620014fd57600080fd5b505af115801562001512573d6000803e3d6000fd5b505050505b50505050565b60003660147f00000000000000000000000000000000000000000000000000000000000000006001600160a01b0316331480156200155b5750808210155b15620015925760003662001570838562002d6c565b6200157d92829062002d82565b620015889162002dae565b60601c9250505090565b339250505090565b6001600160a01b0380831660009081526005602090815260408083208151608081018352815460ff81161515825261010090049095168584018190526001820154868401526002909101546060860152815163030d028960e21b815291519394859490938593630c340a2492600480830193928290030181865afa15801562001627573d6000803e3d6000fd5b505050506040513d601f19601f820116820180604052508101906200164d9190620028ef565b6001600160a01b031663f2d638266040518163ffffffff1660e01b8152600401602060405180830381865afa1580156200168b573d6000803e3d6000fd5b505050506040513d601f19601f82011682018060405250810190620016b19190620028ef565b905060008690506000816001600160a01b031663fc0c546a6040518163ffffffff1660e01b8152600401602060405180830381865afa158015620016f9573d6000803e3d6000fd5b505050506040513d601f19601f820116820180604052508101906200171f9190620028ef565b6040516370a0823160e01b81526001600160a01b038a811660048301529192506000918316906370a0823190602401602060405180830381865afa1580156200176c573d6000803e3d6000fd5b505050506040513d601f19601f820116820180604052508101906200179291906200290f565b90506000846001600160a01b0316631a3e87336040518163ffffffff1660e01b8152600401602060405180830381865afa158015620017d5573d6000803e3d6000fd5b505050506040513d601f19601f82011682018060405250810190620017fb91906200290f565b905060006127106200180e838c6200297e565b6200181a91906200299e565b905060006200182a828c62002d6c565b905060006200183a828662002de4565b9050600254811115620018bc57600085600254116200185b5760006200186b565b856002546200186b919062002d6c565b90506200187b8561271062002d6c565b62001889826127106200297e565b6200189591906200299e565b9a508a8d11620018a7576000620018b3565b620018b38b8e62002d6c565b9b5050620018c4565b8b995060009a505b5050505050505050509250929050565b6001600160a01b0380821660008181526005602090815260408083208151608081018352815460ff8116151582526101009004909616868401526001810154868301526002015460608601528051637e062a3560e11b8152905186949263fc0c546a92600480820193918290030181865afa15801562001958573d6000803e3d6000fd5b505050506040513d601f19601f820116820180604052508101906200197e9190620028ef565b90506000826001600160a01b0316631ca3bc4f6040518163ffffffff1660e01b8152600401602060405180830381865afa158015620019c1573d6000803e3d6000fd5b505050506040513d601f19601f82011682018060405250810190620019e79190620028ef565b9050600084602001516001600160a01b0316634cfa64876040518163ffffffff1660e01b8152600401600060405180830381865afa15801562001a2e573d6000803e3d6000fd5b505050506040513d6000823e601f3d908101601f1916820160405262001a58919081019062002cb1565b6040516370a0823160e01b81526001600160a01b0388811660048301529192506000918516906370a0823190602401602060405180830381865afa15801562001aa5573d6000803e3d6000fd5b505050506040513d601f19601f8201168201806040525081019062001acb91906200290f565b905060008660400151866001600160a01b031663d1c6022f6040518163ffffffff1660e01b8152600401602060405180830381865afa15801562001b13573d6000803e3d6000fd5b505050506040513d601f19601f8201168201806040525081019062001b3991906200290f565b62001b45919062002d6c565b905060005b835181101562001d145783818151811062001b695762001b6962002d56565b60200260200101516001600160a01b03166346ebcacf6040518163ffffffff1660e01b8152600401602060405180830381865afa92505050801562001bcd575060408051601f3d908101601f1916820190925262001bca918101906200290f565b60015b1562001d0b575083818151811062001be95762001be962002d56565b60200260200101516001600160a01b0316638028b82f600160009054906101000a90046001600160a01b0316888a6001600160a01b031663cbda8f826040518163ffffffff1660e01b8152600401602060405180830381865afa15801562001c55573d6000803e3d6000fd5b505050506040513d601f19601f8201168201806040525081019062001c7b91906200290f565b62001c87908862002d6c565b6040516001600160e01b031960e086901b1681526001600160a01b03938416600482015292909116602483015260448201526000606482018190526084820181905260a482015260c401600060405180830381600087803b15801562001cec57600080fd5b505af115801562001d01573d6000803e3d6000fd5b5050505062001d14565b60010162001b4a565b50856001600160a01b031663c6ab5cdc6040518163ffffffff1660e01b8152600401600060405180830381600087803b15801562001d5157600080fd5b505af115801562001d66573d6000803e3d6000fd5b50505050856001600160a01b031663ba83c9706040518163ffffffff1660e01b8152600401600060405180830381600087803b15801562001da657600080fd5b505af115801562001dbb573d6000803e3d6000fd5b50506001546040516340c10f1960e01b81526001600160a01b0391821660048201526024810185905290871692506340c10f199150604401600060405180830381600087803b15801562001e0e57600080fd5b505af115801562001e23573d6000803e3d6000fd5b50506001546003546040516332092e4f60e21b81526001600160a01b038a8116600483015289811660248301529182166044820152600094509116915063c824b93c906064016020604051808303816000875af115801562001e89573d6000803e3d6000fd5b505050506040513d601f19601f8201168201806040525081019062001eaf9190620028ef565b600154909150600160a01b900460ff161562001f2057846001600160a01b031663715018a66040518163ffffffff1660e01b8152600401600060405180830381600087803b15801562001f0157600080fd5b505af115801562001f16573d6000803e3d6000fd5b5050505062001f84565b6004805460405163f2fde38b60e01b81526001600160a01b039182169281019290925286169063f2fde38b90602401600060405180830381600087803b15801562001f6a57600080fd5b505af115801562001f7f573d6000803e3d6000fd5b505050505b600154600160a01b900460ff16620021415787602001516001600160a01b031663d09edf316040518163ffffffff1660e01b8152600401602060405180830381865afa15801562001fd9573d6000803e3d6000fd5b505050506040513d601f19601f8201168201806040525081019062001fff9190620028ef565b6001600160a01b0316632f2ff15d89602001516001600160a01b031663d09edf316040518163ffffffff1660e01b8152600401602060405180830381865afa15801562002050573d6000803e3d6000fd5b505050506040513d601f19601f82011682018060405250810190620020769190620028ef565b6001600160a01b031663b3ecf2366040518163ffffffff1660e01b8152600401602060405180830381865afa158015620020b4573d6000803e3d6000fd5b505050506040513d601f19601f82011682018060405250810190620020da91906200290f565b6004805460405160e085901b6001600160e01b0319168152918201929092526001600160a01b039091166024820152604401600060405180830381600087803b1580156200212757600080fd5b505af11580156200213c573d6000803e3d6000fd5b505050505b60018089526001600160a01b03808b166000818152600560209081526040918290208d518154928f015186166101000274ffffffffffffffffffffffffffffffffffffffff00199115159190911674ffffffffffffffffffffffffffffffffffffffffff1990931692909217919091178155818d01519481019490945560608c015160029094019390935591518382169291881691907fa1e96b3ce3fc5768278dc15122fe99fb7059af1a41229142fc6db77b9de60dba9062002225908b9088908a906001600160a01b039390931683526020830191909152604082015260600190565b60405180910390a4505050505050505050565b610ffd8062002dfb83390190565b6001600160a01b03811681146200225c57600080fd5b50565b6000602082840312156200227257600080fd5b81356200227f8162002246565b9392505050565b634e487b7160e01b600052604160045260246000fd5b6040805190810167ffffffffffffffff81118282101715620022c257620022c262002286565b60405290565b60405160a0810167ffffffffffffffff81118282101715620022c257620022c262002286565b6040516080810167ffffffffffffffff81118282101715620022c257620022c262002286565b604051610120810167ffffffffffffffff81118282101715620022c257620022c262002286565b604051601f8201601f1916810167ffffffffffffffff8111828210171562002367576200236762002286565b604052919050565b80151581146200225c57600080fd5b6000604082840312156200239157600080fd5b6200239b6200229c565b90508135620023aa816200236f565b81526020820135620023bc8162002246565b602082015292915050565b600082601f830112620023d957600080fd5b813567ffffffffffffffff811115620023f657620023f662002286565b6200240b601f8201601f19166020016200233b565b8181528460208386010111156200242157600080fd5b816020850160208301376000918101602001919091529392505050565b6000604082840312156200245157600080fd5b6200245b6200229c565b9050813567ffffffffffffffff808211156200247657600080fd5b9083019060a082860312156200248b57600080fd5b62002495620022c8565b823581526020830135602082015260408301356040820152606083013582811115620024c057600080fd5b620024ce87828601620023c7565b606083015250608083013582811115620024e757600080fd5b620024f587828601620023c7565b608083015250835260208401359150808211156200251257600080fd5b506200252184828501620023c7565b60208301525092915050565b600067ffffffffffffffff8211156200254a576200254a62002286565b5060051b60200190565b600082601f8301126200256657600080fd5b813560206200257f62002579836200252d565b6200233b565b82815260059290921b840181019181810190868411156200259f57600080fd5b8286015b84811015620025e457803567ffffffffffffffff811115620025c55760008081fd5b620025d58986838b01016200243e565b845250918301918301620025a3565b509695505050505050565b6000608082840312156200260257600080fd5b6200260c620022ee565b9050813567ffffffffffffffff808211156200262757600080fd5b6200263585838601620023c7565b835260208401359150808211156200264c57600080fd5b506200265b84828501620023c7565b602083015250604082013560ff811681146200267657600080fd5b806040830152506060820135606082015292915050565b600060808284031215620026a057600080fd5b620026aa620022ee565b90508135620026b9816200236f565b8152602082810135908201526040820135620026d58162002246565b60408201526060820135620026ea8162002246565b606082015292915050565b600080600080600080600080610180898b0312156200271357600080fd5b6200271f8a8a6200237e565b9750604089013567ffffffffffffffff808211156200273d57600080fd5b6200274b8c838d016200243e565b985060608b01359150808211156200276257600080fd5b620027708c838d016200243e565b975060808b01359150808211156200278757600080fd5b620027958c838d016200243e565b965060a08b0135915080821115620027ac57600080fd5b620027ba8c838d0162002554565b955060c08b0135915080821115620027d157600080fd5b50620027e08b828c01620025ef565b93505060e08901359150620027fa8a6101008b016200268d565b90509295985092959890939650565b600080600080608085870312156200282057600080fd5b84356200282d8162002246565b935060208501356200283f8162002246565b93969395505050506040820135916060013590565b6000815180845260005b818110156200287c576020818501810151868301820152016200285e565b506000602082860101526020601f19601f83011685010191505092915050565b60a081526000620028b160a083018862002854565b8281036020840152620028c5818862002854565b60ff969096166040840152505060608101929092526001600160a01b031660809091015292915050565b6000602082840312156200290257600080fd5b81516200227f8162002246565b6000602082840312156200292257600080fd5b5051919050565b8051620029368162002246565b919050565b805162002936816200236f565b6000602082840312156200295b57600080fd5b81516200227f816200236f565b634e487b7160e01b600052601160045260246000fd5b808202811582820484141762002998576200299862002968565b92915050565b600082620029bc57634e487b7160e01b600052601260045260246000fd5b500490565b805163ffffffff811681146200293657600080fd5b6000806000838503610160811215620029ee57600080fd5b8451620029fb8162002246565b9350610120601f19820181131562002a1257600080fd5b62002a1c62002314565b915062002a2c6020870162002929565b825262002a3c60408701620029c1565b602083015262002a4f60608701620029c1565b60408301526080860151606083015260a0860151608083015262002a7660c087016200293b565b60a083015262002a8960e087016200293b565b60c08301526101008681015160e08401529086015190820152915062002ab3610140850162002929565b90509250925092565b6000610160820190506001600160a01b0380861683528085511660208401525063ffffffff6020850151166040830152604084015162002b04606084018263ffffffff169052565b5060608401516080830152608084015160a083015260a084015162002b2d60c084018215159052565b5060c084015180151560e08401525060e0840151610100838101919091528401516101208301526001600160a01b038316610140830152949350505050565b6000815160408452805160408501526020810151606085015260408101516080850152606081015160a08086015262002ba960e086018262002854565b905060808201519150603f198582030160c086015262002bca818362002854565b9150506020830151848203602086015262002be6828262002854565b95945050505050565b855115158152600060206001600160a01b0381890151168184015260c0604084015262002c2060c084018862002b6c565b838103606085015262002c34818862002b6c565b9050838103608085015262002c4a818762002b6c565b905083810360a08501528085518083528383019150838160051b84010184880160005b8381101562002c9f57601f1986840301855262002c8c83835162002b6c565b9487019492509086019060010162002c6d565b50909c9b505050505050505050505050565b6000602080838503121562002cc557600080fd5b825167ffffffffffffffff81111562002cdd57600080fd5b8301601f8101851362002cef57600080fd5b805162002d0062002579826200252d565b81815260059190911b8201830190838101908783111562002d2057600080fd5b928401925b8284101562002d4b57835162002d3b8162002246565b8252928401929084019062002d25565b979650505050505050565b634e487b7160e01b600052603260045260246000fd5b8181038181111562002998576200299862002968565b6000808585111562002d9357600080fd5b8386111562002da157600080fd5b5050820193919092039150565b6bffffffffffffffffffffffff19813581811691601485101562002ddc5780818660140360031b1b83161692505b505092915050565b808201808211156200299857620029986200296856fe60c06040523480156200001157600080fd5b5060405162000ffd38038062000ffd833981016040819052620000349162000254565b80828686600362000046838262000395565b50600462000055828262000395565b50505080600003620000825760405163392e1e2760e01b8152600060048201526024015b60405180910390fd5b6080526001600160a01b038116620000b157604051631e4fbdf760e01b81526000600482015260240162000079565b620000bc81620000db565b50620000ca8160016200012d565b505060ff1660a05250620004619050565b600580546001600160a01b038381166001600160a01b0319831681179093556040519116919082907f8be0079c531659141344cd1fd0a4f28419497f9722a3daafe3b4186f6b6457e090600090a35050565b6001600160a01b038216600081815260066020908152604091829020805460ff191685151590811790915591519182527f583b0aa0e528532caf4b907c11d7a8158a122fe2a6fb80cd9b09776ebea8d92d910160405180910390a25050565b634e487b7160e01b600052604160045260246000fd5b600082601f830112620001b457600080fd5b81516001600160401b0380821115620001d157620001d16200018c565b604051601f8301601f19908116603f01168101908282118183101715620001fc57620001fc6200018c565b81604052838152602092508660208588010111156200021a57600080fd5b600091505b838210156200023e57858201830151818301840152908201906200021f565b6000602085830101528094505050505092915050565b600080600080600060a086880312156200026d57600080fd5b85516001600160401b03808211156200028557600080fd5b6200029389838a01620001a2565b96506020880151915080821115620002aa57600080fd5b50620002b988828901620001a2565b945050604086015160ff81168114620002d157600080fd5b6060870151608088015191945092506001600160a01b0381168114620002f657600080fd5b809150509295509295909350565b600181811c908216806200031957607f821691505b6020821081036200033a57634e487b7160e01b600052602260045260246000fd5b50919050565b601f82111562000390576000816000526020600020601f850160051c810160208610156200036b5750805b601f850160051c820191505b818110156200038c5782815560010162000377565b5050505b505050565b81516001600160401b03811115620003b157620003b16200018c565b620003c981620003c2845462000304565b8462000340565b602080601f831160018114620004015760008415620003e85750858301515b600019600386901b1c1916600185901b1785556200038c565b600085815260208120601f198616915b82811015620004325788860151825594840194600190910190840162000411565b5085821015620004515787850151600019600388901b60f8161c191681555b5050505050600190811b01905550565b60805160a051610b6f6200048e600039600061018d0152600081816101b901526108000152610b6f6000f3fe608060405234801561001057600080fd5b506004361061011b5760003560e01c806370a08231116100b25780639dc29fac11610081578063cf456ae711610066578063cf456ae71461028f578063dd62ed3e146102a2578063f2fde38b146102db57600080fd5b80639dc29fac14610269578063a9059cbb1461027c57600080fd5b806370a0823114610215578063715018a61461023e5780638da5cb5b1461024657806395d89b411461026157600080fd5b8063313ce567116100ee578063313ce56714610186578063355274ea146101b757806340c10f19146101dd578063423afa66146101f257600080fd5b806306fdde0314610120578063095ea7b31461013e57806318160ddd1461016157806323b872dd14610173575b600080fd5b6101286102ee565b604051610135919061097c565b60405180910390f35b61015161014c3660046109e7565b610380565b6040519015158152602001610135565b6002545b604051908152602001610135565b610151610181366004610a11565b61039a565b60405160ff7f0000000000000000000000000000000000000000000000000000000000000000168152602001610135565b7f0000000000000000000000000000000000000000000000000000000000000000610165565b6101f06101eb3660046109e7565b6103be565b005b610151610200366004610a4d565b60066020526000908152604090205460ff1681565b610165610223366004610a4d565b6001600160a01b031660009081526020819052604090205490565b6101f06103fc565b6005546040516001600160a01b039091168152602001610135565b610128610410565b6101f06102773660046109e7565b61041f565b61015161028a3660046109e7565b610459565b6101f061029d366004610a6f565b610467565b6101656102b0366004610aab565b6001600160a01b03918216600090815260016020908152604080832093909416825291909152205490565b6101f06102e9366004610a4d565b610479565b6060600380546102fd90610ade565b80601f016020809104026020016040519081016040528092919081815260200182805461032990610ade565b80156103765780601f1061034b57610100808354040283529160200191610376565b820191906000526020600020905b81548152906001019060200180831161035957829003601f168201915b5050505050905090565b60003361038e8185856104bc565b60019150505b92915050565b6000336103a88582856104ce565b6103b385858561054c565b506001949350505050565b3360009081526006602052604090205460ff166103ee57604051634199e25360e11b815260040160405180910390fd5b6103f882826105ab565b5050565b6104046105e1565b61040e600061060e565b565b6060600480546102fd90610ade565b3360009081526006602052604090205460ff1661044f57604051634199e25360e11b815260040160405180910390fd5b6103f88282610678565b60003361038e81858561054c565b61046f6105e1565b6103f882826106ae565b6104816105e1565b6001600160a01b0381166104b057604051631e4fbdf760e01b8152600060048201526024015b60405180910390fd5b6104b98161060e565b50565b6104c9838383600161070d565b505050565b6001600160a01b038381166000908152600160209081526040808320938616835292905220546000198114610546578181101561053757604051637dc7a0d960e11b81526001600160a01b038416600482015260248101829052604481018390526064016104a7565b6105468484848403600061070d565b50505050565b6001600160a01b03831661057657604051634b637e8f60e11b8152600060048201526024016104a7565b6001600160a01b0382166105a05760405163ec442f0560e01b8152600060048201526024016104a7565b6104c98383836107e2565b6001600160a01b0382166105d55760405163ec442f0560e01b8152600060048201526024016104a7565b6103f8600083836107e2565b6005546001600160a01b0316331461040e5760405163118cdaa760e01b81523360048201526024016104a7565b600580546001600160a01b038381167fffffffffffffffffffffffff0000000000000000000000000000000000000000831681179093556040519116919082907f8be0079c531659141344cd1fd0a4f28419497f9722a3daafe3b4186f6b6457e090600090a35050565b6001600160a01b0382166106a257604051634b637e8f60e11b8152600060048201526024016104a7565b6103f8826000836107e2565b6001600160a01b038216600081815260066020908152604091829020805460ff191685151590811790915591519182527f583b0aa0e528532caf4b907c11d7a8158a122fe2a6fb80cd9b09776ebea8d92d910160405180910390a25050565b6001600160a01b0384166107375760405163e602df0560e01b8152600060048201526024016104a7565b6001600160a01b03831661076157604051634a1406b160e11b8152600060048201526024016104a7565b6001600160a01b038085166000908152600160209081526040808320938716835292905220829055801561054657826001600160a01b0316846001600160a01b03167f8c5be1e5ebec7d5bd14f71427d1e84f3dd0314c0f7b2291e5b200ac8c7c3b925846040516107d491815260200190565b60405180910390a350505050565b6107ed838383610852565b6001600160a01b0383166104c9576002547f0000000000000000000000000000000000000000000000000000000000000000908181111561084b5760405163279e7e1560e21b815260048101829052602481018390526044016104a7565b5050505050565b6001600160a01b03831661087d5780600260008282546108729190610b18565b909155506108ef9050565b6001600160a01b038316600090815260208190526040902054818110156108d05760405163391434e360e21b81526001600160a01b038516600482015260248101829052604481018390526064016104a7565b6001600160a01b03841660009081526020819052604090209082900390555b6001600160a01b03821661090b5760028054829003905561092a565b6001600160a01b03821660009081526020819052604090208054820190555b816001600160a01b0316836001600160a01b03167fddf252ad1be2c89b69c2b068fc378daa952ba7f163c4a11628f55a4df523b3ef8360405161096f91815260200190565b60405180910390a3505050565b60006020808352835180602085015260005b818110156109aa5785810183015185820160400152820161098e565b506000604082860101526040601f19601f8301168501019250505092915050565b80356001600160a01b03811681146109e257600080fd5b919050565b600080604083850312156109fa57600080fd5b610a03836109cb565b946020939093013593505050565b600080600060608486031215610a2657600080fd5b610a2f846109cb565b9250610a3d602085016109cb565b9150604084013590509250925092565b600060208284031215610a5f57600080fd5b610a68826109cb565b9392505050565b60008060408385031215610a8257600080fd5b610a8b836109cb565b915060208301358015158114610aa057600080fd5b809150509250929050565b60008060408385031215610abe57600080fd5b610ac7836109cb565b9150610ad5602084016109cb565b90509250929050565b600181811c90821680610af257607f821691505b602082108103610b1257634e487b7160e01b600052602260045260246000fd5b50919050565b8082018082111561039457634e487b7160e01b600052601160045260246000fdfea26469706673582212200d68669bd9d7a7cf36532e94088db26b3e972e6649ce1d5bd2b0e1bd50d1234764736f6c63430008170033a264697066735822122077a399d399d26f781a5d83eda5254fd0e354ab5fdad874b049cc5674a0b3657a64736f6c63430008170033",
    "linkReferences": {}
  },
  "methodIdentifiers": {
    "buyFor(address,address,uint256,uint256)": "f6819293",
    "createPIMWorkflow((bool,address),((uint256,uint256,uint256,string,string),bytes),((uint256,uint256,uint256,string,string),bytes),((uint256,uint256,uint256,string,string),bytes),((uint256,uint256,uint256,string,string),bytes)[],(string,string,uint8,uint256),uint256,(bool,uint256,address,address))": "6daf301a",
    "dexAdapter()": "91f03efd",
    "getIsGraduated(address)": "1248c803",
    "isImmutable()": "bb0aa8ef",
    "isTrustedForwarder(address)": "572b6c05",
    "lpTokenRecipient()": "16b4ad7a",
    "migrationThreshold()": "90bc1e85",
    "orchestratorFactory()": "2f36a25d",
    "pims(address)": "1615f657",
    "sellTo(address,address,uint256,uint256)": "ce7c83dd",
    "trustedForwarder()": "7da0a877"
  },
  "id": 98
}