{
  "abi": [
    {
      "type": "constructor",
      "inputs": [
        {
          "name": "_orchestratorFactory",
          "type": "address",
          "internalType": "address"
        },
        {
          "name": "_trustedForwarder",
          "type": "address",
          "internalType": "address"
        },
        {
          "name": "_admin",
          "type": "address",
          "internalType": "address"
        }
      ],
      "stateMutability": "nonpayable"
    },
    {
      "type": "function",
      "name": "admin",
      "inputs": [],
      "outputs": [
        {
          "name": "",
          "type": "address",
          "internalType": "address"
        }
      ],
      "stateMutability": "view"
    },
    {
      "type": "function",
      "name": "buyFor",
      "inputs": [
        {
          "name": "fundingManager",
          "type": "address",
          "internalType": "address"
        },
        {
          "name": "recipient",
          "type": "address",
          "internalType": "address"
        },
        {
          "name": "amountIn",
          "type": "uint256",
          "internalType": "uint256"
        },
        {
          "name": "minAmountOut",
          "type": "uint256",
          "internalType": "uint256"
        }
      ],
      "outputs": [],
      "stateMutability": "nonpayable"
    },
    {
      "type": "function",
      "name": "collateralFeeMultiplier",
      "inputs": [],
      "outputs": [
        {
          "name": "",
          "type": "uint256",
          "internalType": "uint256"
        }
      ],
      "stateMutability": "view"
    },
    {
      "type": "function",
      "name": "createPIMWorkflow",
      "inputs": [
        {
          "name": "workflowConfig",
          "type": "tuple",
          "internalType": "struct IOrchestratorFactory_v1.WorkflowConfig",
          "components": [
            {
              "name": "independentUpdates",
              "type": "bool",
              "internalType": "bool"
            },
            {
              "name": "independentUpdateAdmin",
              "type": "address",
              "internalType": "address"
            }
          ]
        },
        {
          "name": "fundingManagerConfig",
          "type": "tuple",
          "internalType": "struct IOrchestratorFactory_v1.ModuleConfig",
          "components": [
            {
              "name": "metadata",
              "type": "tuple",
              "internalType": "struct IModule_v1.Metadata",
              "components": [
                {
                  "name": "majorVersion",
                  "type": "uint256",
                  "internalType": "uint256"
                },
                {
                  "name": "minorVersion",
                  "type": "uint256",
                  "internalType": "uint256"
                },
                {
                  "name": "patchVersion",
                  "type": "uint256",
                  "internalType": "uint256"
                },
                {
                  "name": "url",
                  "type": "string",
                  "internalType": "string"
                },
                {
                  "name": "title",
                  "type": "string",
                  "internalType": "string"
                }
              ]
            },
            {
              "name": "configData",
              "type": "bytes",
              "internalType": "bytes"
            }
          ]
        },
        {
          "name": "authorizerConfig",
          "type": "tuple",
          "internalType": "struct IOrchestratorFactory_v1.ModuleConfig",
          "components": [
            {
              "name": "metadata",
              "type": "tuple",
              "internalType": "struct IModule_v1.Metadata",
              "components": [
                {
                  "name": "majorVersion",
                  "type": "uint256",
                  "internalType": "uint256"
                },
                {
                  "name": "minorVersion",
                  "type": "uint256",
                  "internalType": "uint256"
                },
                {
                  "name": "patchVersion",
                  "type": "uint256",
                  "internalType": "uint256"
                },
                {
                  "name": "url",
                  "type": "string",
                  "internalType": "string"
                },
                {
                  "name": "title",
                  "type": "string",
                  "internalType": "string"
                }
              ]
            },
            {
              "name": "configData",
              "type": "bytes",
              "internalType": "bytes"
            }
          ]
        },
        {
          "name": "paymentProcessorConfig",
          "type": "tuple",
          "internalType": "struct IOrchestratorFactory_v1.ModuleConfig",
          "components": [
            {
              "name": "metadata",
              "type": "tuple",
              "internalType": "struct IModule_v1.Metadata",
              "components": [
                {
                  "name": "majorVersion",
                  "type": "uint256",
                  "internalType": "uint256"
                },
                {
                  "name": "minorVersion",
                  "type": "uint256",
                  "internalType": "uint256"
                },
                {
                  "name": "patchVersion",
                  "type": "uint256",
                  "internalType": "uint256"
                },
                {
                  "name": "url",
                  "type": "string",
                  "internalType": "string"
                },
                {
                  "name": "title",
                  "type": "string",
                  "internalType": "string"
                }
              ]
            },
            {
              "name": "configData",
              "type": "bytes",
              "internalType": "bytes"
            }
          ]
        },
        {
          "name": "moduleConfigs",
          "type": "tuple[]",
          "internalType": "struct IOrchestratorFactory_v1.ModuleConfig[]",
          "components": [
            {
              "name": "metadata",
              "type": "tuple",
              "internalType": "struct IModule_v1.Metadata",
              "components": [
                {
                  "name": "majorVersion",
                  "type": "uint256",
                  "internalType": "uint256"
                },
                {
                  "name": "minorVersion",
                  "type": "uint256",
                  "internalType": "uint256"
                },
                {
                  "name": "patchVersion",
                  "type": "uint256",
                  "internalType": "uint256"
                },
                {
                  "name": "url",
                  "type": "string",
                  "internalType": "string"
                },
                {
                  "name": "title",
                  "type": "string",
                  "internalType": "string"
                }
              ]
            },
            {
              "name": "configData",
              "type": "bytes",
              "internalType": "bytes"
            }
          ]
        },
        {
          "name": "issuanceTokenParams",
          "type": "tuple",
          "internalType": "struct IBondingCurveBase_v1.IssuanceToken",
          "components": [
            {
              "name": "name",
              "type": "string",
              "internalType": "string"
            },
            {
              "name": "symbol",
              "type": "string",
              "internalType": "string"
            },
            {
              "name": "decimals",
              "type": "uint8",
              "internalType": "uint8"
            },
            {
              "name": "maxSupply",
              "type": "uint256",
              "internalType": "uint256"
            }
          ]
        },
        {
          "name": "initialPurchaseAmount",
          "type": "uint256",
          "internalType": "uint256"
        },
        {
          "name": "migrationConfig_",
          "type": "tuple",
          "internalType": "struct IMigrating_PIM_Factory_v1.MigrationConfig",
          "components": [
            {
              "name": "isImmutable",
              "type": "bool",
              "internalType": "bool"
            },
            {
              "name": "migrationThreshold",
              "type": "uint256",
              "internalType": "uint256"
            },
            {
              "name": "dexAdapter",
              "type": "address",
              "internalType": "address"
            },
            {
              "name": "lpTokenRecipient",
              "type": "address",
              "internalType": "address"
            }
          ]
        }
      ],
      "outputs": [
        {
          "name": "",
          "type": "address",
          "internalType": "contract IOrchestrator_v1"
        }
      ],
      "stateMutability": "nonpayable"
    },
    {
      "type": "function",
      "name": "fundingManagers",
      "inputs": [
        {
          "name": "",
          "type": "uint256",
          "internalType": "uint256"
        }
      ],
      "outputs": [
        {
          "name": "",
          "type": "address",
          "internalType": "address"
        }
      ],
      "stateMutability": "view"
    },
    {
      "type": "function",
      "name": "getIsGraduated",
      "inputs": [
        {
          "name": "fundingManager",
          "type": "address",
          "internalType": "address"
        }
      ],
      "outputs": [
        {
          "name": "",
          "type": "bool",
          "internalType": "bool"
        }
      ],
      "stateMutability": "view"
    },
    {
      "type": "function",
      "name": "getIsImmutable",
      "inputs": [
        {
          "name": "fundingManager",
          "type": "address",
          "internalType": "address"
        }
      ],
      "outputs": [
        {
          "name": "",
          "type": "bool",
          "internalType": "bool"
        }
      ],
      "stateMutability": "view"
    },
    {
      "type": "function",
      "name": "getLpTokenRecipient",
      "inputs": [
        {
          "name": "fundingManager",
          "type": "address",
          "internalType": "address"
        }
      ],
      "outputs": [
        {
          "name": "",
          "type": "address",
          "internalType": "address"
        }
      ],
      "stateMutability": "view"
    },
    {
      "type": "function",
      "name": "getMigrationThreshold",
      "inputs": [
        {
          "name": "fundingManager",
          "type": "address",
          "internalType": "address"
        }
      ],
      "outputs": [
        {
          "name": "",
          "type": "uint256",
          "internalType": "uint256"
        }
      ],
      "stateMutability": "view"
    },
    {
      "type": "function",
      "name": "isTrustedForwarder",
      "inputs": [
        {
          "name": "forwarder",
          "type": "address",
          "internalType": "address"
        }
      ],
      "outputs": [
        {
          "name": "",
          "type": "bool",
          "internalType": "bool"
        }
      ],
      "stateMutability": "view"
    },
    {
      "type": "function",
      "name": "issuanceFeeMultiplier",
      "inputs": [],
      "outputs": [
        {
          "name": "",
          "type": "uint256",
          "internalType": "uint256"
        }
      ],
      "stateMutability": "view"
    },
    {
      "type": "function",
      "name": "mainFundingManager",
      "inputs": [],
      "outputs": [
        {
          "name": "",
          "type": "address",
          "internalType": "address"
        }
      ],
      "stateMutability": "view"
    },
    {
      "type": "function",
      "name": "mutableInitialMintAmount",
      "inputs": [],
      "outputs": [
        {
          "name": "",
          "type": "uint256",
          "internalType": "uint256"
        }
      ],
      "stateMutability": "view"
    },
    {
      "type": "function",
      "name": "orchestratorFactory",
      "inputs": [],
      "outputs": [
        {
          "name": "",
          "type": "address",
          "internalType": "address"
        }
      ],
      "stateMutability": "view"
    },
    {
      "type": "function",
      "name": "pims",
      "inputs": [
        {
          "name": "fundingManager",
          "type": "address",
          "internalType": "address"
        }
      ],
      "outputs": [
        {
          "name": "isGraduated",
          "type": "bool",
          "internalType": "bool"
        },
        {
          "name": "isImmutable",
          "type": "bool",
          "internalType": "bool"
        },
        {
          "name": "migrationThreshold",
          "type": "uint256",
          "internalType": "uint256"
        },
        {
          "name": "initiator",
          "type": "address",
          "internalType": "address"
        },
        {
          "name": "dexAdapter",
          "type": "address",
          "internalType": "address"
        },
        {
          "name": "lpTokenRecipient",
          "type": "address",
          "internalType": "address"
        },
        {
          "name": "orchestrator",
          "type": "address",
          "internalType": "contract IOrchestrator_v1"
        },
        {
          "name": "initialVirtualIssuanceSupply",
          "type": "uint256",
          "internalType": "uint256"
        },
        {
          "name": "initialVirtualCollateralSupply",
          "type": "uint256",
          "internalType": "uint256"
        },
        {
          "name": "stakingModule",
          "type": "address",
          "internalType": "address"
        },
        {
          "name": "paymentRouter",
          "type": "address",
          "internalType": "address"
        }
      ],
      "stateMutability": "view"
    },
    {
      "type": "function",
      "name": "sellTo",
      "inputs": [
        {
          "name": "fundingManager",
          "type": "address",
          "internalType": "address"
        },
        {
          "name": "recipient",
          "type": "address",
          "internalType": "address"
        },
        {
          "name": "amountIn",
          "type": "uint256",
          "internalType": "uint256"
        },
        {
          "name": "minAmountOut",
          "type": "uint256",
          "internalType": "uint256"
        }
      ],
      "outputs": [],
      "stateMutability": "nonpayable"
    },
    {
      "type": "function",
      "name": "setAdmin",
      "inputs": [
        {
          "name": "_admin",
          "type": "address",
          "internalType": "address"
        }
      ],
      "outputs": [],
      "stateMutability": "nonpayable"
    },
    {
      "type": "function",
      "name": "setCollateralFeeMultiplier",
      "inputs": [
        {
          "name": "_collateralFeeMultiplier",
          "type": "uint256",
          "internalType": "uint256"
        }
      ],
      "outputs": [],
      "stateMutability": "nonpayable"
    },
    {
      "type": "function",
      "name": "setIssuanceFeeMultiplier",
      "inputs": [
        {
          "name": "_issuanceFeeMultiplier",
          "type": "uint256",
          "internalType": "uint256"
        }
      ],
      "outputs": [],
      "stateMutability": "nonpayable"
    },
    {
      "type": "function",
      "name": "setMainFundingManager",
      "inputs": [
        {
          "name": "_mainFundingManager",
          "type": "address",
          "internalType": "address"
        }
      ],
      "outputs": [],
      "stateMutability": "nonpayable"
    },
    {
      "type": "function",
      "name": "setMutableInitialMintAmount",
      "inputs": [
        {
          "name": "_mutableInitialMintAmount",
          "type": "uint256",
          "internalType": "uint256"
        }
      ],
      "outputs": [],
      "stateMutability": "nonpayable"
    },
    {
      "type": "function",
      "name": "setStakingModuleMetadata",
      "inputs": [
        {
          "name": "_stakingModuleMetadata",
          "type": "tuple",
          "internalType": "struct IMigrating_PIM_Factory_v1.LM_PC_Staking_v1_Metadata",
          "components": [
            {
              "name": "majorVersion",
              "type": "uint256",
              "internalType": "uint256"
            },
            {
              "name": "minorVersion",
              "type": "uint256",
              "internalType": "uint256"
            },
            {
              "name": "patchVersion",
              "type": "uint256",
              "internalType": "uint256"
            },
            {
              "name": "url",
              "type": "string",
              "internalType": "string"
            }
          ]
        }
      ],
      "outputs": [],
      "stateMutability": "nonpayable"
    },
    {
      "type": "function",
      "name": "stakingModuleMetadata",
      "inputs": [],
      "outputs": [
        {
          "name": "majorVersion",
          "type": "uint256",
          "internalType": "uint256"
        },
        {
          "name": "minorVersion",
          "type": "uint256",
          "internalType": "uint256"
        },
        {
          "name": "patchVersion",
          "type": "uint256",
          "internalType": "uint256"
        },
        {
          "name": "url",
          "type": "string",
          "internalType": "string"
        }
      ],
      "stateMutability": "view"
    },
    {
      "type": "function",
      "name": "trustedForwarder",
      "inputs": [],
      "outputs": [
        {
          "name": "",
          "type": "address",
          "internalType": "address"
        }
      ],
      "stateMutability": "view"
    },
    {
      "type": "function",
      "name": "withdrawAllProjectCollateralFeesToStaking",
      "inputs": [],
      "outputs": [],
      "stateMutability": "nonpayable"
    },
    {
      "type": "event",
      "name": "AdminChanged",
      "inputs": [
        {
          "name": "oldAdmin",
          "type": "address",
          "indexed": true,
          "internalType": "address"
        },
        {
          "name": "newAdmin",
          "type": "address",
          "indexed": true,
          "internalType": "address"
        }
      ],
      "anonymous": false
    },
    {
      "type": "event",
      "name": "CollateralFeeMultiplierChanged",
      "inputs": [
        {
          "name": "oldMultiplier",
          "type": "uint256",
          "indexed": false,
          "internalType": "uint256"
        },
        {
          "name": "newMultiplier",
          "type": "uint256",
          "indexed": false,
          "internalType": "uint256"
        }
      ],
      "anonymous": false
    },
    {
      "type": "event",
      "name": "Graduation",
      "inputs": [
        {
          "name": "orchestrator",
          "type": "address",
          "indexed": true,
          "internalType": "address"
        },
        {
          "name": "pool",
          "type": "address",
          "indexed": true,
          "internalType": "address"
        },
        {
          "name": "issuanceTokenAmount",
          "type": "uint256",
          "indexed": false,
          "internalType": "uint256"
        },
        {
          "name": "collateralTokenAmount",
          "type": "uint256",
          "indexed": false,
          "internalType": "uint256"
        }
      ],
      "anonymous": false
    },
    {
      "type": "event",
      "name": "IssuanceFeeMultiplierChanged",
      "inputs": [
        {
          "name": "oldMultiplier",
          "type": "uint256",
          "indexed": false,
          "internalType": "uint256"
        },
        {
          "name": "newMultiplier",
          "type": "uint256",
          "indexed": false,
          "internalType": "uint256"
        }
      ],
      "anonymous": false
    },
    {
      "type": "event",
      "name": "MainFundingManagerChanged",
      "inputs": [
        {
          "name": "oldMainFundingManager",
          "type": "address",
          "indexed": true,
          "internalType": "address"
        },
        {
          "name": "newMainFundingManager",
          "type": "address",
          "indexed": true,
          "internalType": "address"
        }
      ],
      "anonymous": false
    },
    {
      "type": "event",
      "name": "MutableInitialMintAmountChanged",
      "inputs": [
        {
          "name": "oldAmount",
          "type": "uint256",
          "indexed": false,
          "internalType": "uint256"
        },
        {
          "name": "newAmount",
          "type": "uint256",
          "indexed": false,
          "internalType": "uint256"
        }
      ],
      "anonymous": false
    },
    {
      "type": "event",
      "name": "PIMWorkflowCreated",
      "inputs": [
        {
          "name": "orchestrator",
          "type": "address",
          "indexed": true,
          "internalType": "address"
        },
        {
          "name": "issuanceToken",
          "type": "address",
          "indexed": true,
          "internalType": "address"
        },
        {
          "name": "deployer",
          "type": "address",
          "indexed": true,
          "internalType": "address"
        },
        {
          "name": "collateralToken",
          "type": "address",
          "indexed": false,
          "internalType": "address"
        },
        {
          "name": "initiator",
          "type": "address",
          "indexed": false,
          "internalType": "address"
        },
        {
          "name": "migrationConfig_",
          "type": "tuple",
          "indexed": false,
          "internalType": "struct IMigrating_PIM_Factory_v1.MigrationConfig",
          "components": [
            {
              "name": "isImmutable",
              "type": "bool",
              "internalType": "bool"
            },
            {
              "name": "migrationThreshold",
              "type": "uint256",
              "internalType": "uint256"
            },
            {
              "name": "dexAdapter",
              "type": "address",
              "internalType": "address"
            },
            {
              "name": "lpTokenRecipient",
              "type": "address",
              "internalType": "address"
            }
          ]
        }
      ],
      "anonymous": false
    },
    {
      "type": "event",
      "name": "StakingModuleMetadataChanged",
      "inputs": [
        {
          "name": "oldMetadata",
          "type": "tuple",
          "indexed": false,
          "internalType": "struct IMigrating_PIM_Factory_v1.LM_PC_Staking_v1_Metadata",
          "components": [
            {
              "name": "majorVersion",
              "type": "uint256",
              "internalType": "uint256"
            },
            {
              "name": "minorVersion",
              "type": "uint256",
              "internalType": "uint256"
            },
            {
              "name": "patchVersion",
              "type": "uint256",
              "internalType": "uint256"
            },
            {
              "name": "url",
              "type": "string",
              "internalType": "string"
            }
          ]
        },
        {
          "name": "newMetadata",
          "type": "tuple",
          "indexed": false,
          "internalType": "struct IMigrating_PIM_Factory_v1.LM_PC_Staking_v1_Metadata",
          "components": [
            {
              "name": "majorVersion",
              "type": "uint256",
              "internalType": "uint256"
            },
            {
              "name": "minorVersion",
              "type": "uint256",
              "internalType": "uint256"
            },
            {
              "name": "patchVersion",
              "type": "uint256",
              "internalType": "uint256"
            },
            {
              "name": "url",
              "type": "string",
              "internalType": "string"
            }
          ]
        }
      ],
      "anonymous": false
    },
    {
      "type": "error",
      "name": "AddressEmptyCode",
      "inputs": [
        {
          "name": "target",
          "type": "address",
          "internalType": "address"
        }
      ]
    },
    {
      "type": "error",
      "name": "AddressInsufficientBalance",
      "inputs": [
        {
          "name": "account",
          "type": "address",
          "internalType": "address"
        }
      ]
    },
    {
      "type": "error",
      "name": "FailedInnerCall",
      "inputs": []
    },
    {
      "type": "error",
      "name": "PIM_WorkflowFactory__CantBeZeroAddress",
      "inputs": []
    },
    {
      "type": "error",
      "name": "PIM_WorkflowFactory__InitialPurchaseGraduatesMarket",
      "inputs": []
    },
    {
      "type": "error",
      "name": "PIM_WorkflowFactory__MainFundingManagerNotSet",
      "inputs": []
    },
    {
      "type": "error",
      "name": "PIM_WorkflowFactory__OnlyAdmin",
      "inputs": []
    },
    {
      "type": "error",
      "name": "PIM_WorkflowFactory__OnlyInitiatorAfterGraduation",
      "inputs": []
    },
    {
      "type": "error",
      "name": "SafeERC20FailedOperation",
      "inputs": [
        {
          "name": "token",
          "type": "address",
          "internalType": "address"
        }
      ]
    }
  ],
  "bytecode": {
    "object": "0x60c06040523480156200001157600080fd5b506040516200557f3803806200557f833981016040819052620000349162000174565b6001600160a01b0380831660805283166200006257604051638b22004360e01b815260040160405180910390fd5b6001600160a01b0381166200008a57604051638b22004360e01b815260040160405180910390fd5b826001600160a01b031660a0816001600160a01b031681525050806000806101000a8154816001600160a01b0302191690836001600160a01b0316021790555060405180608001604052806001815260200160008152602001600081526020016040518060600160405280602c815260200162005553602c913990528051600290815560208201516003556040820151600455606082015160059062000131908262000265565b50506aa56fa5b99019a5c800000060065550506000600781905560085550620003319050565b80516001600160a01b03811681146200016f57600080fd5b919050565b6000806000606084860312156200018a57600080fd5b620001958462000157565b9250620001a56020850162000157565b9150620001b56040850162000157565b90509250925092565b634e487b7160e01b600052604160045260246000fd5b600181811c90821680620001e957607f821691505b6020821081036200020a57634e487b7160e01b600052602260045260246000fd5b50919050565b601f82111562000260576000816000526020600020601f850160051c810160208610156200023b5750805b601f850160051c820191505b818110156200025c5782815560010162000247565b5050505b505050565b81516001600160401b03811115620002815762000281620001be565b6200029981620002928454620001d4565b8462000210565b602080601f831160018114620002d15760008415620002b85750858301515b600019600386901b1c1916600185901b1785556200025c565b600085815260208120601f198616915b828110156200030257888601518255948401946001909101908401620002e1565b5085821015620003215787850151600019600388901b60f8161c191681555b5050505050600190811b01905550565b60805160a0516151e76200036c60003960008181610366015261159d0152600081816103b20152818161046101526121a301526151e76000f3fe60806040523480156200001157600080fd5b5060043610620001c55760003560e01c8063704b6c021162000101578063b96086d911620000a3578063de78c729116200007a578063de78c7291462000509578063f402c2bb146200053b578063f6819293146200056f578063f851a440146200058657600080fd5b8063b96086d914620004a7578063ce7c83dd14620004c3578063d835422214620004da57600080fd5b80637da0a87711620000d85780637da0a877146200045f57806380165151146200048657806393f3721f146200049d57600080fd5b8063704b6c02146200041a5780637715db6f14620004315780637b542b71146200044857600080fd5b80632f36a25d116200016b5780635eecade611620001425780635eecade614620003e25780635fb0992d14620003ec5780636daf301a146200040357600080fd5b80632f36a25d14620003605780633cd275451462000388578063572b6c05146200039f57600080fd5b80631248c80311620001a05780631248c80314620002205780631615f65714620002605780631cfcc51c146200034957600080fd5b806303828e7e14620001ca57806309bc630014620001fb5780630f25247e1462000207575b600080fd5b600154620001de906001600160a01b031681565b6040516001600160a01b0390911681526020015b60405180910390f35b620002056200059a565b005b6200021160085481565b604051908152602001620001f2565b6200024f6200023136600462003366565b6001600160a01b031660009081526009602052604090205460ff1690565b6040519015158152602001620001f2565b620002e56200027136600462003366565b6009602081905260009182526040909120805460018201546002830154600384015460048501546005860154600687015460078801546008890154989099015460ff8089169a610100909904169896976001600160a01b03968716979587169694851695938516949293909290811691168b565b604080519b15158c5299151560208c0152988a01979097526001600160a01b0395861660608a0152938516608089015291841660a0880152831660c087015260e08601526101008501529081166101208401521661014082015261016001620001f2565b620002056200035a36600462003386565b620005f1565b620001de7f000000000000000000000000000000000000000000000000000000000000000081565b620002056200039936600462003366565b62000663565b6200024f620003b036600462003366565b7f00000000000000000000000000000000000000000000000000000000000000006001600160a01b0390811691161490565b6200021160075481565b62000205620003fd36600462003386565b62000716565b620001de620004143660046200380f565b62000781565b620002056200042b36600462003366565b620009a3565b620002056200044236600462003923565b62000a54565b620001de6200045936600462003386565b62000bac565b7f0000000000000000000000000000000000000000000000000000000000000000620001de565b620002056200049736600462003386565b62000bd7565b6200021160065481565b620004b162000c42565b604051620001f2949392919062003a0a565b62000205620004d436600462003a3b565b62000ceb565b62000211620004eb36600462003366565b6001600160a01b031660009081526009602052604090206001015490565b620001de6200051a36600462003366565b6001600160a01b039081166000908152600960205260409020600401541690565b6200024f6200054c36600462003366565b6001600160a01b0316600090815260096020526040902054610100900460ff1690565b620002056200058036600462003a3b565b62000df9565b600054620001de906001600160a01b031681565b600a5460005b81811015620005ed576000600a8281548110620005c157620005c162003a86565b6000918252602090912001546001600160a01b03169050620005e38162001061565b50600101620005a0565b5050565b6000546001600160a01b031633146200061d5760405163d27a836960e01b815260040160405180910390fd5b600880549082905560408051828152602081018490527f3866b8dabb97b03bbd9d436e5e08ffd81040a58fd71346e8fa31d305dc40ae8e91015b60405180910390a15050565b6000546001600160a01b031633146200068f5760405163d27a836960e01b815260040160405180910390fd5b6001600160a01b038116620006b757604051638b22004360e01b815260040160405180910390fd5b600180546001600160a01b0383811673ffffffffffffffffffffffffffffffffffffffff19831681179093556040519116919082907f87a30098057761fae11f6c0b0e80e80f125fc9b7dfb701af1eee15c074dc3a1590600090a35050565b6000546001600160a01b03163314620007425760405163d27a836960e01b815260040160405180910390fd5b600680549082905560408051828152602081018490527f8f2ebd7f59fb1b242878f742a52a12121bb3a73205436bbbe9a8a291ee21c2eb910162000657565b80516000908080156200079d57506001546001600160a01b0316155b15620007bc576040516350f7a0f760e11b815260040160405180910390fd5b6000620007ce868560000151620011a3565b90506000806000620007ea8e8e8e8e8e898d600001516200129d565b9250925092506000836001600160a01b03166304baed9e6040518163ffffffff1660e01b8152600401602060405180830381865afa15801562000831573d6000803e3d6000fd5b505050506040513d601f19601f8201168201806040525081019062000857919062003a9c565b9050600088600001516200087057886060015162000873565b60005b9050620008848286868c85620016fc565b60405163cf456ae760e01b81526001600160a01b0383811660048301526001602483015287169063cf456ae790604401600060405180830381600087803b158015620008cf57600080fd5b505af1158015620008e4573d6000803e3d6000fd5b50505050620008f38262001c38565b6200090682848c878d60200151620020f8565b620009106200219c565b604080516001600160a01b0386811682528781166020808401919091528d511515838501528d0151606080840191909152928d015181166080830152918c0151821660a082015291811691888216918816907ff3a31cb79568cc2c523dcd7467e718e402436fc2e2aecd9cb74fea01f99224b19060c00160405180910390a450929e9d5050505050505050505050505050565b6000546001600160a01b03163314620009cf5760405163d27a836960e01b815260040160405180910390fd5b6001600160a01b038116620009f757604051638b22004360e01b815260040160405180910390fd5b600080546001600160a01b0383811673ffffffffffffffffffffffffffffffffffffffff19831681178455604051919092169283917f7e644d79422f17c01e4894b5f4f588d331ebfa28653d42ae832dc59e38c9798f9190a35050565b6000546001600160a01b0316331462000a805760405163d27a836960e01b815260040160405180910390fd5b604080516080810182526002805482526003546020830152600454928201929092526005805460009391606084019162000aba9062003abc565b80601f016020809104026020016040519081016040528092919081815260200182805462000ae89062003abc565b801562000b395780601f1062000b0d5761010080835404028352916020019162000b39565b820191906000526020600020905b81548152906001019060200180831162000b1b57829003601f168201915b50505091909252505083516002908155602085015160035560408501516004556060850151929350849290915060059062000b75908262003b4c565b509050507f2f9d73a6edf64f66aeba6d81f7ca64653deffd27373303ea29d41425737d893481836040516200065792919062003c56565b600a818154811062000bbd57600080fd5b6000918252602090912001546001600160a01b0316905081565b6000546001600160a01b0316331462000c035760405163d27a836960e01b815260040160405180910390fd5b600780549082905560408051828152602081018490527f39b96ff2d0362a4b876c9491016124dfa0205c89dcf9943922947954dc4ed248910162000657565b60028054600354600454600580549394929391929162000c629062003abc565b80601f016020809104026020016040519081016040528092919081815260200182805462000c909062003abc565b801562000ce15780601f1062000cb55761010080835404028352916020019162000ce1565b820191906000526020600020905b81548152906001019060200180831162000cc357829003601f168201915b5050505050905084565b60008490506000816001600160a01b0316631ca3bc4f6040518163ffffffff1660e01b8152600401602060405180830381865afa15801562000d31573d6000803e3d6000fd5b505050506040513d601f19601f8201168201806040525081019062000d57919062003a9c565b905062000d706001600160a01b03821633308762002219565b62000d866001600160a01b03821687866200229d565b6040516362d93eef60e11b81526001600160a01b038681166004830152602482018690526044820185905283169063c5b27dde90606401600060405180830381600087803b15801562000dd857600080fd5b505af115801562000ded573d6000803e3d6000fd5b50505050505050505050565b6001600160a01b038085166000818152600960208181526040808420815161016081018352815460ff8082161515835261010091829004161515828601526001830154828501526002830154891660608301526003830154891660808301526004808401548a1660a084015260058401548a1660c0840152600684015460e08401526007840154918301919091526008830154891661012083015291909401549096166101408401528051637e062a3560e11b8152905192958a959363fc0c546a93838301939092908290030181865afa15801562000edc573d6000803e3d6000fd5b505050506040513d601f19601f8201168201806040525081019062000f02919062003a9c565b9050600062000f1288876200232e565b90508015620010575762000f326001600160a01b03831633308462002219565b62000f486001600160a01b03831689836200229d565b60008662000f57838862003ca7565b62000f63919062003cc1565b60405163935b7dbd60e01b81526001600160a01b038a8116600483015260248201859052604482018390529192509085169063935b7dbd90606401600060405180830381600087803b15801562000fb957600080fd5b505af115801562000fce573d6000803e3d6000fd5b5050505060408581015190516370a0823160e01b81526001600160a01b038b811660048301528516906370a0823190602401602060405180830381865afa1580156200101e573d6000803e3d6000fd5b505050506040513d601f19601f8201168201806040525081019062001044919062003ce4565b1062001055576200105589620026f0565b505b5050505050505050565b6001546001600160a01b0316620010755750565b6001600160a01b03811660009081526009602052604090205460ff16156200109a5750565b60008190506000816001600160a01b031663cbda8f826040518163ffffffff1660e01b8152600401602060405180830381865afa158015620010e0573d6000803e3d6000fd5b505050506040513d601f19601f8201168201806040525081019062001106919062003ce4565b9050806000036200111657505050565b6001546001600160a01b039081166000908152600960205260409020600801541680620011435750505050565b6040516327c49ddd60e11b81526001600160a01b03828116600483015260248201849052841690634f893bba90604401600060405180830381600087803b1580156200118e57600080fd5b505af115801562001057573d6000803e3d6000fd5b600080836000015184602001518560400151866060015130604051620011c990620032f7565b620011d995949392919062003cfe565b604051809103906000f080158015620011f6573d6000803e3d6000fd5b509050821580156200121257506000546001600160a01b031615155b80156200122157506000600654115b1562001294576000546006546040516340c10f1960e01b81526001600160a01b0392831660048201526024810191909152908216906340c10f1990604401600060405180830381600087803b1580156200127a57600080fd5b505af11580156200128f573d6000803e3d6000fd5b505050505b90505b92915050565b6000806000808860200151905080806020019051810190620012c0919062003a9c565b604080513060208201529194500160408051601f1981840301815291815260208b8101929092528051610120810182526000808252928101839052908101829052606081018290526080810182905260a0810182905260c0810182905260e081018290526101008101919091526020808c01518051909162001349918301810190830162003d73565b60405190965090935062001367915089908490879060200162003e59565b60408051601f1981840301815291905260208d0152600087620013995789516200139390600162003f07565b6200139c565b89515b67ffffffffffffffff811115620013b757620013b7620033a0565b604051908082528060200260200182016040528015620013f457816020015b620013e062003305565b815260200190600190039081620013d65790505b50905060005b8a518110156200144a578a818151811062001419576200141962003a86565b602002602001015182828151811062001436576200143662003a86565b6020908102919091010152600101620013fa565b50876200159b576040805160e081018252600254918101918252600354606082015260045460808201526005805491928392909160a08401916200148e9062003abc565b80601f0160208091040260200160405190810160405280929190818152602001828054620014bc9062003abc565b80156200150d5780601f10620014e1576101008083540402835291602001916200150d565b820191906000526020600020905b815481529060010190602001808311620014ef57829003601f168201915b5050509183525050604080518082018252601081527f4c4d5f50435f5374616b696e675f7631000000000000000000000000000000006020828101919091529283015291835281516001600160a01b038e168183015292019101604051602081830303815290604052815250818b51815181106200158f576200158f62003a86565b60200260200101819052505b7f00000000000000000000000000000000000000000000000000000000000000006001600160a01b031663ff2676998f8f8f8f866040518663ffffffff1660e01b8152600401620015f195949392919062003f97565b6020604051808303816000875af115801562001611573d6000803e3d6000fd5b505050506040513d601f19601f8201168201806040525081019062001637919062003a9c565b6001549097506001600160a01b031615801562001652575087155b15620016eb57866001600160a01b03166304baed9e6040518163ffffffff1660e01b8152600401602060405180830381865afa15801562001697573d6000803e3d6000fd5b505050506040513d601f19601f82011682018060405250810190620016bd919062003a9c565b6001805473ffffffffffffffffffffffffffffffffffffffff19166001600160a01b03929092169190911790555b505050509750975097945050505050565b60008590506000856001600160a01b0316634cfa64876040518163ffffffff1660e01b8152600401600060405180830381865afa15801562001742573d6000803e3d6000fd5b505050506040513d6000823e601f3d908101601f191682016040526200176c919081019062004059565b90506000805b82518110156200182a5782818151811062001791576200179162003a86565b60200260200101516001600160a01b03166346ebcacf6040518163ffffffff1660e01b8152600401602060405180830381865afa925050508015620017f5575060408051601f3d908101601f19168201909252620017f29181019062003ce4565b60015b1562001821575082818151811062001811576200181162003a86565b602002602001015191506200182a565b60010162001772565b508451600090620018f25760005b8351811015620018f05783818151811062001857576200185762003a86565b60200260200101516001600160a01b0316637b0a47ee6040518163ffffffff1660e01b8152600401602060405180830381865afa925050508015620018bb575060408051601f3d908101601f19168201909252620018b89181019062003ce4565b60015b15620018e75750838181518110620018d757620018d762003a86565b60200260200101519150620018f0565b60010162001838565b505b60405180610160016040528060001515815260200187600001511515815260200187602001518152602001886001600160a01b0316815260200187604001516001600160a01b03168152602001866001600160a01b03168152602001896001600160a01b03168152602001856001600160a01b031663d1c6022f6040518163ffffffff1660e01b8152600401602060405180830381865afa1580156200199c573d6000803e3d6000fd5b505050506040513d601f19601f82011682018060405250810190620019c2919062003ce4565b8152602001856001600160a01b031663bf75292b6040518163ffffffff1660e01b8152600401602060405180830381865afa15801562001a06573d6000803e3d6000fd5b505050506040513d601f19601f8201168201806040525081019062001a2c919062003ce4565b8152602001826001600160a01b03168152602001836001600160a01b0316815250600960008b6001600160a01b03166001600160a01b0316815260200190815260200160002060008201518160000160006101000a81548160ff02191690831515021790555060208201518160000160016101000a81548160ff0219169083151502179055506040820151816001015560608201518160020160006101000a8154816001600160a01b0302191690836001600160a01b0316021790555060808201518160030160006101000a8154816001600160a01b0302191690836001600160a01b0316021790555060a08201518160040160006101000a8154816001600160a01b0302191690836001600160a01b0316021790555060c08201518160050160006101000a8154816001600160a01b0302191690836001600160a01b0316021790555060e0820151816006015561010082015181600701556101208201518160080160006101000a8154816001600160a01b0302191690836001600160a01b031602179055506101408201518160090160006101000a8154816001600160a01b0302191690836001600160a01b03160217905550905050600a899080600181540180825580915050600190039060005260206000200160009091909190916101000a8154816001600160a01b0302191690836001600160a01b03160217905550505050505050505050565b6001600160a01b038082166000818152600960208181526040808420815161016081018352815460ff8082161515835261010091829004161515828601526001830154828501526002830154891660608301526003830154891660808301526004808401548a1660a084015260058401548a1660c0840152600684015460e084015260078401549183019190915260088301548916610120830152919094015490961661014084018190528151631ca3bc4f60e01b81529151939690958895949093631ca3bc4f9380840193919291908290030181865afa15801562001d22573d6000803e3d6000fd5b505050506040513d601f19601f8201168201806040525081019062001d48919062003a9c565b9050836020015162001eff578360c001516001600160a01b031663d09edf316040518163ffffffff1660e01b8152600401602060405180830381865afa15801562001d97573d6000803e3d6000fd5b505050506040513d601f19601f8201168201806040525081019062001dbd919062003a9c565b6001600160a01b0316632f2ff15d8560c001516001600160a01b031663d09edf316040518163ffffffff1660e01b8152600401602060405180830381865afa15801562001e0e573d6000803e3d6000fd5b505050506040513d601f19601f8201168201806040525081019062001e34919062003a9c565b6001600160a01b031663b3ecf2366040518163ffffffff1660e01b8152600401602060405180830381865afa15801562001e72573d6000803e3d6000fd5b505050506040513d601f19601f8201168201806040525081019062001e98919062003ce4565b60608701516040516001600160e01b031960e085901b16815260048101929092526001600160a01b03166024820152604401600060405180830381600087803b15801562001ee557600080fd5b505af115801562001efa573d6000803e3d6000fd5b505050505b60405163cf456ae760e01b8152306004820152600160248201526001600160a01b0382169063cf456ae790604401600060405180830381600087803b15801562001f4857600080fd5b505af115801562001f5d573d6000803e3d6000fd5b50505050816001600160a01b0316636c67e807836001600160a01b0316637feb48a16040518163ffffffff1660e01b8152600401602060405180830381865afa15801562001faf573d6000803e3d6000fd5b505050506040513d601f19601f8201168201806040525081019062001fd5919062003ce4565b6040516001600160e01b031960e084901b1681526004810191909152306024820152604401600060405180830381600087803b1580156200201557600080fd5b505af11580156200202a573d6000803e3d6000fd5b50505050826001600160a01b0316636c67e807846001600160a01b03166346ebcacf6040518163ffffffff1660e01b8152600401602060405180830381865afa1580156200207c573d6000803e3d6000fd5b505050506040513d601f19601f82011682018060405250810190620020a2919062003ce4565b6040516001600160e01b031960e084901b16815260048101919091523060248201526044015b600060405180830381600087803b158015620020e357600080fd5b505af115801562001055573d6000803e3d6000fd5b808311156200211a5760405163262cabc360e21b815260040160405180910390fd5b82156200219557620021426200212f6200219c565b6001600160a01b03861690308662002219565b620021586001600160a01b03851686856200229d565b60405163935b7dbd60e01b81526001600160a01b038381166004830152602482018590526001604483015286169063935b7dbd90606401620020c8565b5050505050565b60003660147f00000000000000000000000000000000000000000000000000000000000000006001600160a01b031633148015620021da5750808210155b156200221157600036620021ef8385620040fe565b620021fc92829062004114565b620022079162004140565b60601c9250505090565b339250505090565b6040516001600160a01b038481166024830152838116604483015260648201839052620022979186918216906323b872dd906084015b604051602081830303815290604052915060e01b6020820180517bffffffffffffffffffffffffffffffffffffffffffffffffffffffff838183161783525050505062002fac565b50505050565b604051636eb1769f60e11b81523060048201526001600160a01b0383811660248301526000919085169063dd62ed3e90604401602060405180830381865afa158015620022ee573d6000803e3d6000fd5b505050506040513d601f19601f8201168201806040525081019062002314919062003ce4565b905062002297848462002328858562003f07565b6200301f565b6001600160a01b038083166000908152600960208181526040808420815161016081018352815460ff808216151583526101009182900416151582860152600183015482850152600283015488166060830152600383015488166080830152600480840154891660a08401526005840154891660c08401819052600685015460e0850152600785015492840192909252600884015489166101208401529290950154909616610140870152815163030d028960e21b81529151949594869493630c340a249380840193919291908290030181865afa15801562002415573d6000803e3d6000fd5b505050506040513d601f19601f820116820180604052508101906200243b919062003a9c565b6001600160a01b031663f2d638266040518163ffffffff1660e01b8152600401602060405180830381865afa15801562002479573d6000803e3d6000fd5b505050506040513d601f19601f820116820180604052508101906200249f919062003a9c565b905060008590506000816001600160a01b031663fc0c546a6040518163ffffffff1660e01b8152600401602060405180830381865afa158015620024e7573d6000803e3d6000fd5b505050506040513d601f19601f820116820180604052508101906200250d919062003a9c565b6040516370a0823160e01b81526001600160a01b0389811660048301529192506000918316906370a0823190602401602060405180830381865afa1580156200255a573d6000803e3d6000fd5b505050506040513d601f19601f8201168201806040525081019062002580919062003ce4565b90506000846001600160a01b0316631a3e87336040518163ffffffff1660e01b8152600401602060405180830381865afa158015620025c3573d6000803e3d6000fd5b505050506040513d601f19601f82011682018060405250810190620025e9919062003ce4565b90506000846001600160a01b031663470624026040518163ffffffff1660e01b8152600401602060405180830381865afa1580156200262c573d6000803e3d6000fd5b505050506040513d601f19601f8201168201806040525081019062002652919062003ce4565b9050600062002662828462003f07565b9050600061271062002675838d62003ca7565b62002681919062003cc1565b9050600062002691828d620040fe565b90506000620026a1828862003f07565b90508a60400151811115620026db5760008b6040015182620026c49190620040fe565b9050620026d2818f620040fe565b9c5050620026df565b8c9b505b505050505050505050505092915050565b6001600160a01b038082166000818152600960208181526040808420815161016081018352815460ff8082161515835261010091829004161515828601526001830154828501526002830154891660608301526003830154891660808301526004808401548a1660a084015260058401548a1660c0840152600684015460e084015260078401549183019190915260088301548916610120830152919094015490961661014084018190528151637e062a3560e11b8152915193969095889594909363fc0c546a9380840193919291908290030181865afa158015620027da573d6000803e3d6000fd5b505050506040513d601f19601f8201168201806040525081019062002800919062003a9c565b90506000826001600160a01b0316631ca3bc4f6040518163ffffffff1660e01b8152600401602060405180830381865afa15801562002843573d6000803e3d6000fd5b505050506040513d601f19601f8201168201806040525081019062002869919062003a9c565b90506000836001600160a01b031663cbda8f826040518163ffffffff1660e01b8152600401602060405180830381865afa158015620028ac573d6000803e3d6000fd5b505050506040513d601f19601f82011682018060405250810190620028d2919062003ce4565b6040516370a0823160e01b81526001600160a01b0389811660048301528516906370a0823190602401602060405180830381865afa15801562002919573d6000803e3d6000fd5b505050506040513d601f19601f820116820180604052508101906200293f919062003ce4565b6200294b9190620040fe565b905060006127106007548362002962919062003ca7565b6200296e919062003cc1565b604051638028b82f60e01b81523060048201526001600160a01b038681166024830152604482018590526000606483018190526084830181905260a483015291925090871690638028b82f9060c401600060405180830381600087803b158015620029d857600080fd5b505af1158015620029ed573d6000803e3d6000fd5b505050508082620029ff9190620040fe565b608088015190925062002a1e906001600160a01b0386169084620030cb565b60005462002a3a906001600160a01b03868116911683620030cb565b62002a458862001061565b6000836001600160a01b031663355274ea6040518163ffffffff1660e01b8152600401602060405180830381865afa15801562002a86573d6000803e3d6000fd5b505050506040513d601f19601f8201168201806040525081019062002aac919062003ce4565b90506000846001600160a01b03166318160ddd6040518163ffffffff1660e01b8152600401602060405180830381865afa15801562002aef573d6000803e3d6000fd5b505050506040513d601f19601f8201168201806040525081019062002b15919062003ce4565b9050600062002b258284620040fe565b905060006127106008548362002b3c919062003ca7565b62002b48919062003cc1565b905062002b568183620040fe565b91506001600160a01b0387166340c10f193062002b74848662003f07565b6040516001600160e01b031960e085901b1681526001600160a01b0390921660048301526024820152604401600060405180830381600087803b15801562002bbb57600080fd5b505af115801562002bd0573d6000803e3d6000fd5b50505060808c015162002bf091506001600160a01b0389169084620030cb565b60005462002c0c906001600160a01b03898116911683620030cb565b886001600160a01b031663c6ab5cdc6040518163ffffffff1660e01b8152600401600060405180830381600087803b15801562002c4857600080fd5b505af115801562002c5d573d6000803e3d6000fd5b50505050886001600160a01b031663ba83c9706040518163ffffffff1660e01b8152600401600060405180830381600087803b15801562002c9d57600080fd5b505af115801562002cb2573d6000803e3d6000fd5b50505060808c015160a08d01516040516332092e4f60e21b81526001600160a01b038c811660048301528b8116602483015291821660448201526000935091169063c824b93c906064016020604051808303816000875af115801562002d1c573d6000803e3d6000fd5b505050506040513d601f19601f8201168201806040525081019062002d42919062003a9c565b9050876001600160a01b031663715018a66040518163ffffffff1660e01b8152600401600060405180830381600087803b15801562002d8057600080fd5b505af115801562002d95573d6000803e3d6000fd5b5050505060018c60000190151590811515815250508b600960008f6001600160a01b03166001600160a01b0316815260200190815260200160002060008201518160000160006101000a81548160ff02191690831515021790555060208201518160000160016101000a81548160ff0219169083151502179055506040820151816001015560608201518160020160006101000a8154816001600160a01b0302191690836001600160a01b0316021790555060808201518160030160006101000a8154816001600160a01b0302191690836001600160a01b0316021790555060a08201518160040160006101000a8154816001600160a01b0302191690836001600160a01b0316021790555060c08201518160050160006101000a8154816001600160a01b0302191690836001600160a01b0316021790555060e0820151816006015561010082015181600701556101208201518160080160006101000a8154816001600160a01b0302191690836001600160a01b031602179055506101408201518160090160006101000a8154816001600160a01b0302191690836001600160a01b03160217905550905050806001600160a01b03168c60c001516001600160a01b03167feddae9d2e53c54be02851320408790594a59dcb6ff5ab585cd8e04cd7c5373e9858a60405162002f95929190918252602082015260400190565b60405180910390a350505050505050505050505050565b600062002fc36001600160a01b03841683620030fe565b9050805160001415801562002feb57508080602001905181019062002fe9919062004176565b155b156200301a57604051635274afe760e01b81526001600160a01b03841660048201526024015b60405180910390fd5b505050565b604080516001600160a01b038416602482015260448082018490528251808303909101815260649091019091526020810180517bffffffffffffffffffffffffffffffffffffffffffffffffffffffff1663095ea7b360e01b1790526200308784826200310e565b62002297576040516001600160a01b03848116602483015260006044830152620030bf91869182169063095ea7b3906064016200224f565b62002297848262002fac565b6040516001600160a01b038381166024830152604482018390526200301a91859182169063a9059cbb906064016200224f565b60606200129483836000620031bf565b6000806000846001600160a01b0316846040516200312d919062004196565b6000604051808303816000865af19150503d80600081146200316c576040519150601f19603f3d011682016040523d82523d6000602084013e62003171565b606091505b50915091508180156200319f5750805115806200319f5750808060200190518101906200319f919062004176565b8015620031b657506000856001600160a01b03163b115b95945050505050565b606081471015620031e65760405163cd78605960e01b815230600482015260240162003011565b600080856001600160a01b0316848660405162003204919062004196565b60006040518083038185875af1925050503d806000811462003243576040519150601f19603f3d011682016040523d82523d6000602084013e62003248565b606091505b50915091506200325a86838362003266565b925050505b9392505050565b6060826200327f576200327982620032ca565b6200325f565b81511580156200329757506001600160a01b0384163b155b15620032c257604051639996b31560e01b81526001600160a01b038516600482015260240162003011565b50806200325f565b805115620032db5780518082602001fd5b604051630a12f52160e11b815260040160405180910390fd5b50565b610ffd80620041b583390190565b6040518060400160405280620033436040518060a0016040528060008152602001600081526020016000815260200160608152602001606081525090565b8152602001606081525090565b6001600160a01b0381168114620032f457600080fd5b6000602082840312156200337957600080fd5b8135620012948162003350565b6000602082840312156200339957600080fd5b5035919050565b634e487b7160e01b600052604160045260246000fd5b6040805190810167ffffffffffffffff81118282101715620033dc57620033dc620033a0565b60405290565b60405160a0810167ffffffffffffffff81118282101715620033dc57620033dc620033a0565b6040516080810167ffffffffffffffff81118282101715620033dc57620033dc620033a0565b604051610120810167ffffffffffffffff81118282101715620033dc57620033dc620033a0565b604051601f8201601f1916810167ffffffffffffffff81118282101715620034815762003481620033a0565b604052919050565b8015158114620032f457600080fd5b600060408284031215620034ab57600080fd5b620034b5620033b6565b90508135620034c48162003489565b81526020820135620034d68162003350565b602082015292915050565b600082601f830112620034f357600080fd5b813567ffffffffffffffff811115620035105762003510620033a0565b62003525601f8201601f191660200162003455565b8181528460208386010111156200353b57600080fd5b816020850160208301376000918101602001919091529392505050565b6000604082840312156200356b57600080fd5b62003575620033b6565b9050813567ffffffffffffffff808211156200359057600080fd5b9083019060a08286031215620035a557600080fd5b620035af620033e2565b823581526020830135602082015260408301356040820152606083013582811115620035da57600080fd5b620035e887828601620034e1565b6060830152506080830135828111156200360157600080fd5b6200360f87828601620034e1565b608083015250835260208401359150808211156200362c57600080fd5b506200363b84828501620034e1565b60208301525092915050565b600067ffffffffffffffff821115620036645762003664620033a0565b5060051b60200190565b600082601f8301126200368057600080fd5b8135602062003699620036938362003647565b62003455565b82815260059290921b84018101918181019086841115620036b957600080fd5b8286015b84811015620036fe57803567ffffffffffffffff811115620036df5760008081fd5b620036ef8986838b010162003558565b845250918301918301620036bd565b509695505050505050565b6000608082840312156200371c57600080fd5b6200372662003408565b9050813567ffffffffffffffff808211156200374157600080fd5b6200374f85838601620034e1565b835260208401359150808211156200376657600080fd5b506200377584828501620034e1565b602083015250604082013560ff811681146200379057600080fd5b806040830152506060820135606082015292915050565b600060808284031215620037ba57600080fd5b620037c462003408565b90508135620037d38162003489565b8152602082810135908201526040820135620037ef8162003350565b60408201526060820135620038048162003350565b606082015292915050565b600080600080600080600080610180898b0312156200382d57600080fd5b620038398a8a62003498565b9750604089013567ffffffffffffffff808211156200385757600080fd5b620038658c838d0162003558565b985060608b01359150808211156200387c57600080fd5b6200388a8c838d0162003558565b975060808b0135915080821115620038a157600080fd5b620038af8c838d0162003558565b965060a08b0135915080821115620038c657600080fd5b620038d48c838d016200366e565b955060c08b0135915080821115620038eb57600080fd5b50620038fa8b828c0162003709565b93505060e08901359150620039148a6101008b01620037a7565b90509295985092959890939650565b6000602082840312156200393657600080fd5b813567ffffffffffffffff808211156200394f57600080fd5b90830190608082860312156200396457600080fd5b6200396e62003408565b8235815260208301356020820152604083013560408201526060830135828111156200399957600080fd5b620039a787828601620034e1565b60608301525095945050505050565b60005b83811015620039d3578181015183820152602001620039b9565b50506000910152565b60008151808452620039f6816020860160208601620039b6565b601f01601f19169290920160200192915050565b84815283602082015282604082015260806060820152600062003a316080830184620039dc565b9695505050505050565b6000806000806080858703121562003a5257600080fd5b843562003a5f8162003350565b9350602085013562003a718162003350565b93969395505050506040820135916060013590565b634e487b7160e01b600052603260045260246000fd5b60006020828403121562003aaf57600080fd5b8151620012948162003350565b600181811c9082168062003ad157607f821691505b60208210810362003af257634e487b7160e01b600052602260045260246000fd5b50919050565b601f8211156200301a576000816000526020600020601f850160051c8101602086101562003b235750805b601f850160051c820191505b8181101562003b445782815560010162003b2f565b505050505050565b815167ffffffffffffffff81111562003b695762003b69620033a0565b62003b818162003b7a845462003abc565b8462003af8565b602080601f83116001811462003bb9576000841562003ba05750858301515b600019600386901b1c1916600185901b17855562003b44565b600085815260208120601f198616915b8281101562003bea5788860151825594840194600190910190840162003bc9565b508582101562003c095787850151600019600388901b60f8161c191681555b5050505050600190811b01905550565b805182526020810151602083015260408101516040830152600060608201516080606085015262003c4e6080850182620039dc565b949350505050565b60408152600062003c6b604083018562003c19565b8281036020840152620031b6818562003c19565b805162003c8c8162003350565b919050565b634e487b7160e01b600052601160045260246000fd5b808202811582820484141762001297576200129762003c91565b60008262003cdf57634e487b7160e01b600052601260045260246000fd5b500490565b60006020828403121562003cf757600080fd5b5051919050565b60a08152600062003d1360a0830188620039dc565b828103602084015262003d278188620039dc565b60ff969096166040840152505060608101929092526001600160a01b031660809091015292915050565b805163ffffffff8116811462003c8c57600080fd5b805162003c8c8162003489565b600080600083850361016081121562003d8b57600080fd5b845162003d988162003350565b9350610120601f19820181131562003daf57600080fd5b62003db96200342e565b915062003dc96020870162003c7f565b825262003dd96040870162003d51565b602083015262003dec6060870162003d51565b60408301526080860151606083015260a0860151608083015262003e1360c0870162003d66565b60a083015262003e2660e0870162003d66565b60c08301526101008681015160e08401529086015190820152915062003e50610140850162003c7f565b90509250925092565b6000610160820190506001600160a01b0380861683528085511660208401525063ffffffff6020850151166040830152604084015162003ea1606084018263ffffffff169052565b5060608401516080830152608084015160a083015260a084015162003eca60c084018215159052565b5060c084015180151560e08401525060e0840151610100838101919091528401516101208301526001600160a01b03831661014083015262003c4e565b8082018082111562001297576200129762003c91565b6000815160408452805160408501526020810151606085015260408101516080850152606081015160a08086015262003f5a60e0860182620039dc565b905060808201519150603f198582030160c086015262003f7b8183620039dc565b91505060208301518482036020860152620031b68282620039dc565b855115158152600060206001600160a01b0381890151168184015260c0604084015262003fc860c084018862003f1d565b838103606085015262003fdc818862003f1d565b9050838103608085015262003ff2818762003f1d565b905083810360a08501528085518083528383019150838160051b84010184880160005b838110156200404757601f198684030185526200403483835162003f1d565b9487019492509086019060010162004015565b50909c9b505050505050505050505050565b600060208083850312156200406d57600080fd5b825167ffffffffffffffff8111156200408557600080fd5b8301601f810185136200409757600080fd5b8051620040a8620036938262003647565b81815260059190911b82018301908381019087831115620040c857600080fd5b928401925b82841015620040f3578351620040e38162003350565b82529284019290840190620040cd565b979650505050505050565b8181038181111562001297576200129762003c91565b600080858511156200412557600080fd5b838611156200413357600080fd5b5050820193919092039150565b6bffffffffffffffffffffffff1981358181169160148510156200416e5780818660140360031b1b83161692505b505092915050565b6000602082840312156200418957600080fd5b8151620012948162003489565b60008251620041aa818460208701620039b6565b919091019291505056fe60c06040523480156200001157600080fd5b5060405162000ffd38038062000ffd833981016040819052620000349162000254565b80828686600362000046838262000395565b50600462000055828262000395565b50505080600003620000825760405163392e1e2760e01b8152600060048201526024015b60405180910390fd5b6080526001600160a01b038116620000b157604051631e4fbdf760e01b81526000600482015260240162000079565b620000bc81620000db565b50620000ca8160016200012d565b505060ff1660a05250620004619050565b600580546001600160a01b038381166001600160a01b0319831681179093556040519116919082907f8be0079c531659141344cd1fd0a4f28419497f9722a3daafe3b4186f6b6457e090600090a35050565b6001600160a01b038216600081815260066020908152604091829020805460ff191685151590811790915591519182527f583b0aa0e528532caf4b907c11d7a8158a122fe2a6fb80cd9b09776ebea8d92d910160405180910390a25050565b634e487b7160e01b600052604160045260246000fd5b600082601f830112620001b457600080fd5b81516001600160401b0380821115620001d157620001d16200018c565b604051601f8301601f19908116603f01168101908282118183101715620001fc57620001fc6200018c565b81604052838152602092508660208588010111156200021a57600080fd5b600091505b838210156200023e57858201830151818301840152908201906200021f565b6000602085830101528094505050505092915050565b600080600080600060a086880312156200026d57600080fd5b85516001600160401b03808211156200028557600080fd5b6200029389838a01620001a2565b96506020880151915080821115620002aa57600080fd5b50620002b988828901620001a2565b945050604086015160ff81168114620002d157600080fd5b6060870151608088015191945092506001600160a01b0381168114620002f657600080fd5b809150509295509295909350565b600181811c908216806200031957607f821691505b6020821081036200033a57634e487b7160e01b600052602260045260246000fd5b50919050565b601f82111562000390576000816000526020600020601f850160051c810160208610156200036b5750805b601f850160051c820191505b818110156200038c5782815560010162000377565b5050505b505050565b81516001600160401b03811115620003b157620003b16200018c565b620003c981620003c2845462000304565b8462000340565b602080601f831160018114620004015760008415620003e85750858301515b600019600386901b1c1916600185901b1785556200038c565b600085815260208120601f198616915b82811015620004325788860151825594840194600190910190840162000411565b5085821015620004515787850151600019600388901b60f8161c191681555b5050505050600190811b01905550565b60805160a051610b6f6200048e600039600061018d0152600081816101b901526108000152610b6f6000f3fe608060405234801561001057600080fd5b506004361061011b5760003560e01c806370a08231116100b25780639dc29fac11610081578063cf456ae711610066578063cf456ae71461028f578063dd62ed3e146102a2578063f2fde38b146102db57600080fd5b80639dc29fac14610269578063a9059cbb1461027c57600080fd5b806370a0823114610215578063715018a61461023e5780638da5cb5b1461024657806395d89b411461026157600080fd5b8063313ce567116100ee578063313ce56714610186578063355274ea146101b757806340c10f19146101dd578063423afa66146101f257600080fd5b806306fdde0314610120578063095ea7b31461013e57806318160ddd1461016157806323b872dd14610173575b600080fd5b6101286102ee565b604051610135919061097c565b60405180910390f35b61015161014c3660046109e7565b610380565b6040519015158152602001610135565b6002545b604051908152602001610135565b610151610181366004610a11565b61039a565b60405160ff7f0000000000000000000000000000000000000000000000000000000000000000168152602001610135565b7f0000000000000000000000000000000000000000000000000000000000000000610165565b6101f06101eb3660046109e7565b6103be565b005b610151610200366004610a4d565b60066020526000908152604090205460ff1681565b610165610223366004610a4d565b6001600160a01b031660009081526020819052604090205490565b6101f06103fc565b6005546040516001600160a01b039091168152602001610135565b610128610410565b6101f06102773660046109e7565b61041f565b61015161028a3660046109e7565b610459565b6101f061029d366004610a6f565b610467565b6101656102b0366004610aab565b6001600160a01b03918216600090815260016020908152604080832093909416825291909152205490565b6101f06102e9366004610a4d565b610479565b6060600380546102fd90610ade565b80601f016020809104026020016040519081016040528092919081815260200182805461032990610ade565b80156103765780601f1061034b57610100808354040283529160200191610376565b820191906000526020600020905b81548152906001019060200180831161035957829003601f168201915b5050505050905090565b60003361038e8185856104bc565b60019150505b92915050565b6000336103a88582856104ce565b6103b385858561054c565b506001949350505050565b3360009081526006602052604090205460ff166103ee57604051634199e25360e11b815260040160405180910390fd5b6103f882826105ab565b5050565b6104046105e1565b61040e600061060e565b565b6060600480546102fd90610ade565b3360009081526006602052604090205460ff1661044f57604051634199e25360e11b815260040160405180910390fd5b6103f88282610678565b60003361038e81858561054c565b61046f6105e1565b6103f882826106ae565b6104816105e1565b6001600160a01b0381166104b057604051631e4fbdf760e01b8152600060048201526024015b60405180910390fd5b6104b98161060e565b50565b6104c9838383600161070d565b505050565b6001600160a01b038381166000908152600160209081526040808320938616835292905220546000198114610546578181101561053757604051637dc7a0d960e11b81526001600160a01b038416600482015260248101829052604481018390526064016104a7565b6105468484848403600061070d565b50505050565b6001600160a01b03831661057657604051634b637e8f60e11b8152600060048201526024016104a7565b6001600160a01b0382166105a05760405163ec442f0560e01b8152600060048201526024016104a7565b6104c98383836107e2565b6001600160a01b0382166105d55760405163ec442f0560e01b8152600060048201526024016104a7565b6103f8600083836107e2565b6005546001600160a01b0316331461040e5760405163118cdaa760e01b81523360048201526024016104a7565b600580546001600160a01b038381167fffffffffffffffffffffffff0000000000000000000000000000000000000000831681179093556040519116919082907f8be0079c531659141344cd1fd0a4f28419497f9722a3daafe3b4186f6b6457e090600090a35050565b6001600160a01b0382166106a257604051634b637e8f60e11b8152600060048201526024016104a7565b6103f8826000836107e2565b6001600160a01b038216600081815260066020908152604091829020805460ff191685151590811790915591519182527f583b0aa0e528532caf4b907c11d7a8158a122fe2a6fb80cd9b09776ebea8d92d910160405180910390a25050565b6001600160a01b0384166107375760405163e602df0560e01b8152600060048201526024016104a7565b6001600160a01b03831661076157604051634a1406b160e11b8152600060048201526024016104a7565b6001600160a01b038085166000908152600160209081526040808320938716835292905220829055801561054657826001600160a01b0316846001600160a01b03167f8c5be1e5ebec7d5bd14f71427d1e84f3dd0314c0f7b2291e5b200ac8c7c3b925846040516107d491815260200190565b60405180910390a350505050565b6107ed838383610852565b6001600160a01b0383166104c9576002547f0000000000000000000000000000000000000000000000000000000000000000908181111561084b5760405163279e7e1560e21b815260048101829052602481018390526044016104a7565b5050505050565b6001600160a01b03831661087d5780600260008282546108729190610b18565b909155506108ef9050565b6001600160a01b038316600090815260208190526040902054818110156108d05760405163391434e360e21b81526001600160a01b038516600482015260248101829052604481018390526064016104a7565b6001600160a01b03841660009081526020819052604090209082900390555b6001600160a01b03821661090b5760028054829003905561092a565b6001600160a01b03821660009081526020819052604090208054820190555b816001600160a01b0316836001600160a01b03167fddf252ad1be2c89b69c2b068fc378daa952ba7f163c4a11628f55a4df523b3ef8360405161096f91815260200190565b60405180910390a3505050565b60006020808352835180602085015260005b818110156109aa5785810183015185820160400152820161098e565b506000604082860101526040601f19601f8301168501019250505092915050565b80356001600160a01b03811681146109e257600080fd5b919050565b600080604083850312156109fa57600080fd5b610a03836109cb565b946020939093013593505050565b600080600060608486031215610a2657600080fd5b610a2f846109cb565b9250610a3d602085016109cb565b9150604084013590509250925092565b600060208284031215610a5f57600080fd5b610a68826109cb565b9392505050565b60008060408385031215610a8257600080fd5b610a8b836109cb565b915060208301358015158114610aa057600080fd5b809150509250929050565b60008060408385031215610abe57600080fd5b610ac7836109cb565b9150610ad5602084016109cb565b90509250929050565b600181811c90821680610af257607f821691505b602082108103610b1257634e487b7160e01b600052602260045260246000fd5b50919050565b8082018082111561039457634e487b7160e01b600052601160045260246000fdfea26469706673582212200d68669bd9d7a7cf36532e94088db26b3e972e6649ce1d5bd2b0e1bd50d1234764736f6c63430008170033a2646970667358221220c65ff5fbd54c43248bffeb7e99ce0d2206b166c9d919d25bc5e45b8dd2c9c93664736f6c6343000817003368747470733a2f2f6769746875622e636f6d2f496e7665727465724e6574776f726b2f636f6e747261637473",
    "linkReferences": {}
  },
  "methodIdentifiers": {
    "admin()": "f851a440",
    "buyFor(address,address,uint256,uint256)": "f6819293",
    "collateralFeeMultiplier()": "5eecade6",
    "createPIMWorkflow((bool,address),((uint256,uint256,uint256,string,string),bytes),((uint256,uint256,uint256,string,string),bytes),((uint256,uint256,uint256,string,string),bytes),((uint256,uint256,uint256,string,string),bytes)[],(string,string,uint8,uint256),uint256,(bool,uint256,address,address))": "6daf301a",
    "fundingManagers(uint256)": "7b542b71",
    "getIsGraduated(address)": "1248c803",
    "getIsImmutable(address)": "f402c2bb",
    "getLpTokenRecipient(address)": "de78c729",
    "getMigrationThreshold(address)": "d8354222",
    "isTrustedForwarder(address)": "572b6c05",
    "issuanceFeeMultiplier()": "0f25247e",
    "mainFundingManager()": "03828e7e",
    "mutableInitialMintAmount()": "93f3721f",
    "orchestratorFactory()": "2f36a25d",
    "pims(address)": "1615f657",
    "sellTo(address,address,uint256,uint256)": "ce7c83dd",
    "setAdmin(address)": "704b6c02",
    "setCollateralFeeMultiplier(uint256)": "80165151",
    "setIssuanceFeeMultiplier(uint256)": "1cfcc51c",
    "setMainFundingManager(address)": "3cd27545",
    "setMutableInitialMintAmount(uint256)": "5fb0992d",
    "setStakingModuleMetadata((uint256,uint256,uint256,string))": "7715db6f",
    "stakingModuleMetadata()": "b96086d9",
    "trustedForwarder()": "7da0a877",
    "withdrawAllProjectCollateralFeesToStaking()": "09bc6300"
  },
  "id": 78
}