{
  "abi": [
    {
      "type": "constructor",
      "inputs": [
        {
          "name": "_orchestratorFactory",
          "type": "address",
          "internalType": "address"
        },
        {
          "name": "_trustedForwarder",
          "type": "address",
          "internalType": "address"
        },
        {
          "name": "_admin",
          "type": "address",
          "internalType": "address"
        }
      ],
      "stateMutability": "nonpayable"
    },
    {
      "type": "function",
      "name": "admin",
      "inputs": [],
      "outputs": [
        {
          "name": "",
          "type": "address",
          "internalType": "address"
        }
      ],
      "stateMutability": "view"
    },
    {
      "type": "function",
      "name": "buyFor",
      "inputs": [
        {
          "name": "fundingManager",
          "type": "address",
          "internalType": "address"
        },
        {
          "name": "recipient",
          "type": "address",
          "internalType": "address"
        },
        {
          "name": "amountIn",
          "type": "uint256",
          "internalType": "uint256"
        },
        {
          "name": "minAmountOut",
          "type": "uint256",
          "internalType": "uint256"
        }
      ],
      "outputs": [],
      "stateMutability": "nonpayable"
    },
    {
      "type": "function",
      "name": "collateralFeeMultiplier",
      "inputs": [],
      "outputs": [
        {
          "name": "",
          "type": "uint256",
          "internalType": "uint256"
        }
      ],
      "stateMutability": "view"
    },
    {
      "type": "function",
      "name": "createPIMWorkflow",
      "inputs": [
        {
          "name": "workflowConfig",
          "type": "tuple",
          "internalType": "struct IOrchestratorFactory_v1.WorkflowConfig",
          "components": [
            {
              "name": "independentUpdates",
              "type": "bool",
              "internalType": "bool"
            },
            {
              "name": "independentUpdateAdmin",
              "type": "address",
              "internalType": "address"
            }
          ]
        },
        {
          "name": "fundingManagerConfig",
          "type": "tuple",
          "internalType": "struct IOrchestratorFactory_v1.ModuleConfig",
          "components": [
            {
              "name": "metadata",
              "type": "tuple",
              "internalType": "struct IModule_v1.Metadata",
              "components": [
                {
                  "name": "majorVersion",
                  "type": "uint256",
                  "internalType": "uint256"
                },
                {
                  "name": "minorVersion",
                  "type": "uint256",
                  "internalType": "uint256"
                },
                {
                  "name": "patchVersion",
                  "type": "uint256",
                  "internalType": "uint256"
                },
                {
                  "name": "url",
                  "type": "string",
                  "internalType": "string"
                },
                {
                  "name": "title",
                  "type": "string",
                  "internalType": "string"
                }
              ]
            },
            {
              "name": "configData",
              "type": "bytes",
              "internalType": "bytes"
            }
          ]
        },
        {
          "name": "authorizerConfig",
          "type": "tuple",
          "internalType": "struct IOrchestratorFactory_v1.ModuleConfig",
          "components": [
            {
              "name": "metadata",
              "type": "tuple",
              "internalType": "struct IModule_v1.Metadata",
              "components": [
                {
                  "name": "majorVersion",
                  "type": "uint256",
                  "internalType": "uint256"
                },
                {
                  "name": "minorVersion",
                  "type": "uint256",
                  "internalType": "uint256"
                },
                {
                  "name": "patchVersion",
                  "type": "uint256",
                  "internalType": "uint256"
                },
                {
                  "name": "url",
                  "type": "string",
                  "internalType": "string"
                },
                {
                  "name": "title",
                  "type": "string",
                  "internalType": "string"
                }
              ]
            },
            {
              "name": "configData",
              "type": "bytes",
              "internalType": "bytes"
            }
          ]
        },
        {
          "name": "paymentProcessorConfig",
          "type": "tuple",
          "internalType": "struct IOrchestratorFactory_v1.ModuleConfig",
          "components": [
            {
              "name": "metadata",
              "type": "tuple",
              "internalType": "struct IModule_v1.Metadata",
              "components": [
                {
                  "name": "majorVersion",
                  "type": "uint256",
                  "internalType": "uint256"
                },
                {
                  "name": "minorVersion",
                  "type": "uint256",
                  "internalType": "uint256"
                },
                {
                  "name": "patchVersion",
                  "type": "uint256",
                  "internalType": "uint256"
                },
                {
                  "name": "url",
                  "type": "string",
                  "internalType": "string"
                },
                {
                  "name": "title",
                  "type": "string",
                  "internalType": "string"
                }
              ]
            },
            {
              "name": "configData",
              "type": "bytes",
              "internalType": "bytes"
            }
          ]
        },
        {
          "name": "moduleConfigs",
          "type": "tuple[]",
          "internalType": "struct IOrchestratorFactory_v1.ModuleConfig[]",
          "components": [
            {
              "name": "metadata",
              "type": "tuple",
              "internalType": "struct IModule_v1.Metadata",
              "components": [
                {
                  "name": "majorVersion",
                  "type": "uint256",
                  "internalType": "uint256"
                },
                {
                  "name": "minorVersion",
                  "type": "uint256",
                  "internalType": "uint256"
                },
                {
                  "name": "patchVersion",
                  "type": "uint256",
                  "internalType": "uint256"
                },
                {
                  "name": "url",
                  "type": "string",
                  "internalType": "string"
                },
                {
                  "name": "title",
                  "type": "string",
                  "internalType": "string"
                }
              ]
            },
            {
              "name": "configData",
              "type": "bytes",
              "internalType": "bytes"
            }
          ]
        },
        {
          "name": "issuanceTokenParams",
          "type": "tuple",
          "internalType": "struct IBondingCurveBase_v1.IssuanceToken",
          "components": [
            {
              "name": "name",
              "type": "string",
              "internalType": "string"
            },
            {
              "name": "symbol",
              "type": "string",
              "internalType": "string"
            },
            {
              "name": "decimals",
              "type": "uint8",
              "internalType": "uint8"
            },
            {
              "name": "maxSupply",
              "type": "uint256",
              "internalType": "uint256"
            }
          ]
        },
        {
          "name": "initialPurchaseAmount",
          "type": "uint256",
          "internalType": "uint256"
        },
        {
          "name": "migrationConfig_",
          "type": "tuple",
          "internalType": "struct IMigrating_PIM_Factory_v1.MigrationConfig",
          "components": [
            {
              "name": "isImmutable",
              "type": "bool",
              "internalType": "bool"
            },
            {
              "name": "migrationThreshold",
              "type": "uint256",
              "internalType": "uint256"
            },
            {
              "name": "dexAdapter",
              "type": "address",
              "internalType": "address"
            },
            {
              "name": "lpTokenRecipient",
              "type": "address",
              "internalType": "address"
            }
          ]
        }
      ],
      "outputs": [
        {
          "name": "",
          "type": "address",
          "internalType": "contract IOrchestrator_v1"
        }
      ],
      "stateMutability": "nonpayable"
    },
    {
      "type": "function",
      "name": "fundingManagers",
      "inputs": [
        {
          "name": "",
          "type": "uint256",
          "internalType": "uint256"
        }
      ],
      "outputs": [
        {
          "name": "",
          "type": "address",
          "internalType": "address"
        }
      ],
      "stateMutability": "view"
    },
    {
      "type": "function",
      "name": "getIsGraduated",
      "inputs": [
        {
          "name": "fundingManager",
          "type": "address",
          "internalType": "address"
        }
      ],
      "outputs": [
        {
          "name": "",
          "type": "bool",
          "internalType": "bool"
        }
      ],
      "stateMutability": "view"
    },
    {
      "type": "function",
      "name": "getIsImmutable",
      "inputs": [
        {
          "name": "fundingManager",
          "type": "address",
          "internalType": "address"
        }
      ],
      "outputs": [
        {
          "name": "",
          "type": "bool",
          "internalType": "bool"
        }
      ],
      "stateMutability": "view"
    },
    {
      "type": "function",
      "name": "getLpTokenRecipient",
      "inputs": [
        {
          "name": "fundingManager",
          "type": "address",
          "internalType": "address"
        }
      ],
      "outputs": [
        {
          "name": "",
          "type": "address",
          "internalType": "address"
        }
      ],
      "stateMutability": "view"
    },
    {
      "type": "function",
      "name": "getMigrationThreshold",
      "inputs": [
        {
          "name": "fundingManager",
          "type": "address",
          "internalType": "address"
        }
      ],
      "outputs": [
        {
          "name": "",
          "type": "uint256",
          "internalType": "uint256"
        }
      ],
      "stateMutability": "view"
    },
    {
      "type": "function",
      "name": "isTrustedForwarder",
      "inputs": [
        {
          "name": "forwarder",
          "type": "address",
          "internalType": "address"
        }
      ],
      "outputs": [
        {
          "name": "",
          "type": "bool",
          "internalType": "bool"
        }
      ],
      "stateMutability": "view"
    },
    {
      "type": "function",
      "name": "issuanceFeeMultiplier",
      "inputs": [],
      "outputs": [
        {
          "name": "",
          "type": "uint256",
          "internalType": "uint256"
        }
      ],
      "stateMutability": "view"
    },
    {
      "type": "function",
      "name": "issuanceLiquidityDivisor",
      "inputs": [],
      "outputs": [
        {
          "name": "",
          "type": "uint256",
          "internalType": "uint256"
        }
      ],
      "stateMutability": "view"
    },
    {
      "type": "function",
      "name": "mainFundingManager",
      "inputs": [],
      "outputs": [
        {
          "name": "",
          "type": "address",
          "internalType": "address"
        }
      ],
      "stateMutability": "view"
    },
    {
      "type": "function",
      "name": "orchestratorFactory",
      "inputs": [],
      "outputs": [
        {
          "name": "",
          "type": "address",
          "internalType": "address"
        }
      ],
      "stateMutability": "view"
    },
    {
      "type": "function",
      "name": "pims",
      "inputs": [
        {
          "name": "fundingManager",
          "type": "address",
          "internalType": "address"
        }
      ],
      "outputs": [
        {
          "name": "isGraduated",
          "type": "bool",
          "internalType": "bool"
        },
        {
          "name": "isImmutable",
          "type": "bool",
          "internalType": "bool"
        },
        {
          "name": "migrationThreshold",
          "type": "uint256",
          "internalType": "uint256"
        },
        {
          "name": "initiator",
          "type": "address",
          "internalType": "address"
        },
        {
          "name": "dexAdapter",
          "type": "address",
          "internalType": "address"
        },
        {
          "name": "lpTokenRecipient",
          "type": "address",
          "internalType": "address"
        },
        {
          "name": "orchestrator",
          "type": "address",
          "internalType": "contract IOrchestrator_v1"
        },
        {
          "name": "initialVirtualIssuanceSupply",
          "type": "uint256",
          "internalType": "uint256"
        },
        {
          "name": "initialVirtualCollateralSupply",
          "type": "uint256",
          "internalType": "uint256"
        },
        {
          "name": "stakingModule",
          "type": "address",
          "internalType": "address"
        },
        {
          "name": "paymentRouter",
          "type": "address",
          "internalType": "address"
        }
      ],
      "stateMutability": "view"
    },
    {
      "type": "function",
      "name": "sellTo",
      "inputs": [
        {
          "name": "fundingManager",
          "type": "address",
          "internalType": "address"
        },
        {
          "name": "recipient",
          "type": "address",
          "internalType": "address"
        },
        {
          "name": "amountIn",
          "type": "uint256",
          "internalType": "uint256"
        },
        {
          "name": "minAmountOut",
          "type": "uint256",
          "internalType": "uint256"
        }
      ],
      "outputs": [],
      "stateMutability": "nonpayable"
    },
    {
      "type": "function",
      "name": "setAdmin",
      "inputs": [
        {
          "name": "_admin",
          "type": "address",
          "internalType": "address"
        }
      ],
      "outputs": [],
      "stateMutability": "nonpayable"
    },
    {
      "type": "function",
      "name": "setCollateralFeeMultiplier",
      "inputs": [
        {
          "name": "_collateralFeeMultiplier",
          "type": "uint256",
          "internalType": "uint256"
        }
      ],
      "outputs": [],
      "stateMutability": "nonpayable"
    },
    {
      "type": "function",
      "name": "setIssuanceFeeMultiplier",
      "inputs": [
        {
          "name": "_issuanceFeeMultiplier",
          "type": "uint256",
          "internalType": "uint256"
        }
      ],
      "outputs": [],
      "stateMutability": "nonpayable"
    },
    {
      "type": "function",
      "name": "setIssuanceLiquidityDivisor",
      "inputs": [
        {
          "name": "_issuanceLiquidityDivisor",
          "type": "uint256",
          "internalType": "uint256"
        }
      ],
      "outputs": [],
      "stateMutability": "nonpayable"
    },
    {
      "type": "function",
      "name": "setMainFundingManager",
      "inputs": [
        {
          "name": "_mainFundingManager",
          "type": "address",
          "internalType": "address"
        }
      ],
      "outputs": [],
      "stateMutability": "nonpayable"
    },
    {
      "type": "function",
      "name": "setStakingModuleMetadata",
      "inputs": [
        {
          "name": "_stakingModuleMetadata",
          "type": "tuple",
          "internalType": "struct IMigrating_PIM_Factory_v1.LM_PC_Staking_v1_Metadata",
          "components": [
            {
              "name": "majorVersion",
              "type": "uint256",
              "internalType": "uint256"
            },
            {
              "name": "minorVersion",
              "type": "uint256",
              "internalType": "uint256"
            },
            {
              "name": "patchVersion",
              "type": "uint256",
              "internalType": "uint256"
            },
            {
              "name": "url",
              "type": "string",
              "internalType": "string"
            }
          ]
        }
      ],
      "outputs": [],
      "stateMutability": "nonpayable"
    },
    {
      "type": "function",
      "name": "stakingModuleMetadata",
      "inputs": [],
      "outputs": [
        {
          "name": "majorVersion",
          "type": "uint256",
          "internalType": "uint256"
        },
        {
          "name": "minorVersion",
          "type": "uint256",
          "internalType": "uint256"
        },
        {
          "name": "patchVersion",
          "type": "uint256",
          "internalType": "uint256"
        },
        {
          "name": "url",
          "type": "string",
          "internalType": "string"
        }
      ],
      "stateMutability": "view"
    },
    {
      "type": "function",
      "name": "trustedForwarder",
      "inputs": [],
      "outputs": [
        {
          "name": "",
          "type": "address",
          "internalType": "address"
        }
      ],
      "stateMutability": "view"
    },
    {
      "type": "function",
      "name": "withdrawAllProjectCollateralFeesToStaking",
      "inputs": [],
      "outputs": [],
      "stateMutability": "nonpayable"
    },
    {
      "type": "event",
      "name": "AdminChanged",
      "inputs": [
        {
          "name": "oldAdmin",
          "type": "address",
          "indexed": true,
          "internalType": "address"
        },
        {
          "name": "newAdmin",
          "type": "address",
          "indexed": true,
          "internalType": "address"
        }
      ],
      "anonymous": false
    },
    {
      "type": "event",
      "name": "CollateralFeeMultiplierChanged",
      "inputs": [
        {
          "name": "oldMultiplier",
          "type": "uint256",
          "indexed": false,
          "internalType": "uint256"
        },
        {
          "name": "newMultiplier",
          "type": "uint256",
          "indexed": false,
          "internalType": "uint256"
        }
      ],
      "anonymous": false
    },
    {
      "type": "event",
      "name": "Graduation",
      "inputs": [
        {
          "name": "orchestrator",
          "type": "address",
          "indexed": true,
          "internalType": "address"
        },
        {
          "name": "pool",
          "type": "address",
          "indexed": true,
          "internalType": "address"
        },
        {
          "name": "issuanceTokenAmount",
          "type": "uint256",
          "indexed": false,
          "internalType": "uint256"
        },
        {
          "name": "collateralTokenAmount",
          "type": "uint256",
          "indexed": false,
          "internalType": "uint256"
        }
      ],
      "anonymous": false
    },
    {
      "type": "event",
      "name": "IssuanceFeeMultiplierChanged",
      "inputs": [
        {
          "name": "oldMultiplier",
          "type": "uint256",
          "indexed": false,
          "internalType": "uint256"
        },
        {
          "name": "newMultiplier",
          "type": "uint256",
          "indexed": false,
          "internalType": "uint256"
        }
      ],
      "anonymous": false
    },
    {
      "type": "event",
      "name": "IssuanceLiquidityDivisorChanged",
      "inputs": [
        {
          "name": "oldDivisor",
          "type": "uint256",
          "indexed": false,
          "internalType": "uint256"
        },
        {
          "name": "newDivisor",
          "type": "uint256",
          "indexed": false,
          "internalType": "uint256"
        }
      ],
      "anonymous": false
    },
    {
      "type": "event",
      "name": "MainFundingManagerChanged",
      "inputs": [
        {
          "name": "oldMainFundingManager",
          "type": "address",
          "indexed": true,
          "internalType": "address"
        },
        {
          "name": "newMainFundingManager",
          "type": "address",
          "indexed": true,
          "internalType": "address"
        }
      ],
      "anonymous": false
    },
    {
      "type": "event",
      "name": "PIMWorkflowCreated",
      "inputs": [
        {
          "name": "orchestrator",
          "type": "address",
          "indexed": true,
          "internalType": "address"
        },
        {
          "name": "issuanceToken",
          "type": "address",
          "indexed": true,
          "internalType": "address"
        },
        {
          "name": "deployer",
          "type": "address",
          "indexed": true,
          "internalType": "address"
        },
        {
          "name": "collateralToken",
          "type": "address",
          "indexed": false,
          "internalType": "address"
        },
        {
          "name": "initiator",
          "type": "address",
          "indexed": false,
          "internalType": "address"
        },
        {
          "name": "migrationConfig_",
          "type": "tuple",
          "indexed": false,
          "internalType": "struct IMigrating_PIM_Factory_v1.MigrationConfig",
          "components": [
            {
              "name": "isImmutable",
              "type": "bool",
              "internalType": "bool"
            },
            {
              "name": "migrationThreshold",
              "type": "uint256",
              "internalType": "uint256"
            },
            {
              "name": "dexAdapter",
              "type": "address",
              "internalType": "address"
            },
            {
              "name": "lpTokenRecipient",
              "type": "address",
              "internalType": "address"
            }
          ]
        }
      ],
      "anonymous": false
    },
    {
      "type": "event",
      "name": "StakingModuleMetadataChanged",
      "inputs": [
        {
          "name": "oldMetadata",
          "type": "tuple",
          "indexed": false,
          "internalType": "struct IMigrating_PIM_Factory_v1.LM_PC_Staking_v1_Metadata",
          "components": [
            {
              "name": "majorVersion",
              "type": "uint256",
              "internalType": "uint256"
            },
            {
              "name": "minorVersion",
              "type": "uint256",
              "internalType": "uint256"
            },
            {
              "name": "patchVersion",
              "type": "uint256",
              "internalType": "uint256"
            },
            {
              "name": "url",
              "type": "string",
              "internalType": "string"
            }
          ]
        },
        {
          "name": "newMetadata",
          "type": "tuple",
          "indexed": false,
          "internalType": "struct IMigrating_PIM_Factory_v1.LM_PC_Staking_v1_Metadata",
          "components": [
            {
              "name": "majorVersion",
              "type": "uint256",
              "internalType": "uint256"
            },
            {
              "name": "minorVersion",
              "type": "uint256",
              "internalType": "uint256"
            },
            {
              "name": "patchVersion",
              "type": "uint256",
              "internalType": "uint256"
            },
            {
              "name": "url",
              "type": "string",
              "internalType": "string"
            }
          ]
        }
      ],
      "anonymous": false
    },
    {
      "type": "error",
      "name": "AddressEmptyCode",
      "inputs": [
        {
          "name": "target",
          "type": "address",
          "internalType": "address"
        }
      ]
    },
    {
      "type": "error",
      "name": "AddressInsufficientBalance",
      "inputs": [
        {
          "name": "account",
          "type": "address",
          "internalType": "address"
        }
      ]
    },
    {
      "type": "error",
      "name": "FailedInnerCall",
      "inputs": []
    },
    {
      "type": "error",
      "name": "PIM_WorkflowFactory__CantBeZeroAddress",
      "inputs": []
    },
    {
      "type": "error",
      "name": "PIM_WorkflowFactory__InitialPurchaseGraduatesMarket",
      "inputs": []
    },
    {
      "type": "error",
      "name": "PIM_WorkflowFactory__OnlyAdmin",
      "inputs": []
    },
    {
      "type": "error",
      "name": "PIM_WorkflowFactory__OnlyInitiatorAfterGraduation",
      "inputs": []
    },
    {
      "type": "error",
      "name": "SafeERC20FailedOperation",
      "inputs": [
        {
          "name": "token",
          "type": "address",
          "internalType": "address"
        }
      ]
    }
  ],
  "bytecode": {
    "object": "0x60c06040523480156200001157600080fd5b50604051620054d4380380620054d483398101604081905262000034916200016a565b6001600160a01b0380831660805283166200006257604051638b22004360e01b815260040160405180910390fd5b6001600160a01b0381166200008a57604051638b22004360e01b815260040160405180910390fd5b826001600160a01b031660a0816001600160a01b031681525050806000806101000a8154816001600160a01b0302191690836001600160a01b0316021790555060405180608001604052806001815260200160008152602001600081526020016040518060600160405280602c8152602001620054a8602c91399052805160029081556020820151600355604082015160045560608201516005906200013190826200025b565b5050600e60065550506000600781905560085550620003279050565b80516001600160a01b03811681146200016557600080fd5b919050565b6000806000606084860312156200018057600080fd5b6200018b846200014d565b92506200019b602085016200014d565b9150620001ab604085016200014d565b90509250925092565b634e487b7160e01b600052604160045260246000fd5b600181811c90821680620001df57607f821691505b6020821081036200020057634e487b7160e01b600052602260045260246000fd5b50919050565b601f82111562000256576000816000526020600020601f850160051c81016020861015620002315750805b601f850160051c820191505b8181101562000252578281556001016200023d565b5050505b505050565b81516001600160401b03811115620002775762000277620001b4565b6200028f81620002888454620001ca565b8462000206565b602080601f831160018114620002c75760008415620002ae5750858301515b600019600386901b1c1916600185901b17855562000252565b600085815260208120601f198616915b82811015620002f857888601518255948401946001909101908401620002d7565b5085821015620003175787850151600019600388901b60f8161c191681555b5050505050600190811b01905550565b60805160a051615146620003626000396000818161036601526114bb0152600081816103b20152818161044a01526120c101526151466000f3fe60806040523480156200001157600080fd5b5060043610620001c55760003560e01c80637715db6f1162000101578063c5c1f58411620000a3578063de78c729116200007a578063de78c7291462000509578063f402c2bb146200053b578063f6819293146200056f578063f851a440146200058657600080fd5b8063c5c1f58414620004ac578063ce7c83dd14620004c3578063d835422214620004da57600080fd5b80638016515111620000d857806380165151146200046f578063a38bc66d1462000486578063b96086d9146200049057600080fd5b80637715db6f146200041a5780637b542b7114620004315780637da0a877146200044857600080fd5b80632f36a25d116200016b5780635eecade611620001425780635eecade614620003e25780636daf301a14620003ec578063704b6c02146200040357600080fd5b80632f36a25d14620003605780633cd275451462000388578063572b6c05146200039f57600080fd5b80631248c80311620001a05780631248c80314620002205780631615f65714620002605780631cfcc51c146200034957600080fd5b806303828e7e14620001ca57806309bc630014620001fb5780630f25247e1462000207575b600080fd5b600154620001de906001600160a01b031681565b6040516001600160a01b0390911681526020015b60405180910390f35b620002056200059a565b005b6200021160085481565b604051908152602001620001f2565b6200024f62000231366004620032c5565b6001600160a01b031660009081526009602052604090205460ff1690565b6040519015158152602001620001f2565b620002e562000271366004620032c5565b6009602081905260009182526040909120805460018201546002830154600384015460048501546005860154600687015460078801546008890154989099015460ff8089169a610100909904169896976001600160a01b03968716979587169694851695938516949293909290811691168b565b604080519b15158c5299151560208c0152988a01979097526001600160a01b0395861660608a0152938516608089015291841660a0880152831660c087015260e08601526101008501529081166101208401521661014082015261016001620001f2565b620002056200035a366004620032e5565b620005f1565b620001de7f000000000000000000000000000000000000000000000000000000000000000081565b6200020562000399366004620032c5565b62000663565b6200024f620003b0366004620032c5565b7f00000000000000000000000000000000000000000000000000000000000000006001600160a01b0390811691161490565b6200021160075481565b620001de620003fd3660046200376e565b62000716565b6200020562000414366004620032c5565b620008f7565b620002056200042b36600462003882565b620009a8565b620001de62000442366004620032e5565b62000b00565b7f0000000000000000000000000000000000000000000000000000000000000000620001de565b6200020562000480366004620032e5565b62000b2b565b6200021160065481565b6200049a62000b96565b604051620001f2949392919062003969565b62000205620004bd366004620032e5565b62000c3f565b62000205620004d43660046200399a565b62000caa565b62000211620004eb366004620032c5565b6001600160a01b031660009081526009602052604090206001015490565b620001de6200051a366004620032c5565b6001600160a01b039081166000908152600960205260409020600401541690565b6200024f6200054c366004620032c5565b6001600160a01b0316600090815260096020526040902054610100900460ff1690565b62000205620005803660046200399a565b62000db8565b600054620001de906001600160a01b031681565b600a5460005b81811015620005ed576000600a8281548110620005c157620005c1620039e5565b6000918252602090912001546001600160a01b03169050620005e38162001020565b50600101620005a0565b5050565b6000546001600160a01b031633146200061d5760405163d27a836960e01b815260040160405180910390fd5b600880549082905560408051828152602081018490527f3866b8dabb97b03bbd9d436e5e08ffd81040a58fd71346e8fa31d305dc40ae8e91015b60405180910390a15050565b6000546001600160a01b031633146200068f5760405163d27a836960e01b815260040160405180910390fd5b6001600160a01b038116620006b757604051638b22004360e01b815260040160405180910390fd5b600180546001600160a01b0383811673ffffffffffffffffffffffffffffffffffffffff19831681179093556040519116919082907f87a30098057761fae11f6c0b0e80e80f125fc9b7dfb701af1eee15c074dc3a1590600090a35050565b600080620007248562001162565b90506000806000620007408d8d8d8d8d898c60000151620011bb565b9250925092506000836001600160a01b03166304baed9e6040518163ffffffff1660e01b8152600401602060405180830381865afa15801562000787573d6000803e3d6000fd5b505050506040513d601f19601f82011682018060405250810190620007ad9190620039fb565b905060008760000151620007c6578760600151620007c8565b305b9050620007d98286868b856200161a565b60405163cf456ae760e01b81526001600160a01b0383811660048301526001602483015287169063cf456ae790604401600060405180830381600087803b1580156200082457600080fd5b505af115801562000839573d6000803e3d6000fd5b50505050620008488262001b56565b6200085b82848b878c6020015162002016565b62000865620020ba565b604080516001600160a01b0386811682528781166020808401919091528c511515838501528c0151606080840191909152928c015181166080830152918b0151821660a082015291811691888216918816907ff3a31cb79568cc2c523dcd7467e718e402436fc2e2aecd9cb74fea01f99224b19060c00160405180910390a450929d9c50505050505050505050505050565b6000546001600160a01b03163314620009235760405163d27a836960e01b815260040160405180910390fd5b6001600160a01b0381166200094b57604051638b22004360e01b815260040160405180910390fd5b600080546001600160a01b0383811673ffffffffffffffffffffffffffffffffffffffff19831681178455604051919092169283917f7e644d79422f17c01e4894b5f4f588d331ebfa28653d42ae832dc59e38c9798f9190a35050565b6000546001600160a01b03163314620009d45760405163d27a836960e01b815260040160405180910390fd5b604080516080810182526002805482526003546020830152600454928201929092526005805460009391606084019162000a0e9062003a1b565b80601f016020809104026020016040519081016040528092919081815260200182805462000a3c9062003a1b565b801562000a8d5780601f1062000a615761010080835404028352916020019162000a8d565b820191906000526020600020905b81548152906001019060200180831162000a6f57829003601f168201915b50505091909252505083516002908155602085015160035560408501516004556060850151929350849290915060059062000ac9908262003aab565b509050507f2f9d73a6edf64f66aeba6d81f7ca64653deffd27373303ea29d41425737d893481836040516200065792919062003bb5565b600a818154811062000b1157600080fd5b6000918252602090912001546001600160a01b0316905081565b6000546001600160a01b0316331462000b575760405163d27a836960e01b815260040160405180910390fd5b600780549082905560408051828152602081018490527f39b96ff2d0362a4b876c9491016124dfa0205c89dcf9943922947954dc4ed248910162000657565b60028054600354600454600580549394929391929162000bb69062003a1b565b80601f016020809104026020016040519081016040528092919081815260200182805462000be49062003a1b565b801562000c355780601f1062000c095761010080835404028352916020019162000c35565b820191906000526020600020905b81548152906001019060200180831162000c1757829003601f168201915b5050505050905084565b6000546001600160a01b0316331462000c6b5760405163d27a836960e01b815260040160405180910390fd5b600680549082905560408051828152602081018490527ff532f42d1babed3440290faf7c9029e2a429efc66738ca24e46640e8a646932a910162000657565b60008490506000816001600160a01b0316631ca3bc4f6040518163ffffffff1660e01b8152600401602060405180830381865afa15801562000cf0573d6000803e3d6000fd5b505050506040513d601f19601f8201168201806040525081019062000d169190620039fb565b905062000d2f6001600160a01b03821633308762002137565b62000d456001600160a01b0382168786620021bb565b6040516362d93eef60e11b81526001600160a01b038681166004830152602482018690526044820185905283169063c5b27dde90606401600060405180830381600087803b15801562000d9757600080fd5b505af115801562000dac573d6000803e3d6000fd5b50505050505050505050565b6001600160a01b038085166000818152600960208181526040808420815161016081018352815460ff8082161515835261010091829004161515828601526001830154828501526002830154891660608301526003830154891660808301526004808401548a1660a084015260058401548a1660c0840152600684015460e08401526007840154918301919091526008830154891661012083015291909401549096166101408401528051637e062a3560e11b8152905192958a959363fc0c546a93838301939092908290030181865afa15801562000e9b573d6000803e3d6000fd5b505050506040513d601f19601f8201168201806040525081019062000ec19190620039fb565b9050600062000ed188876200224c565b90508015620010165762000ef16001600160a01b03831633308462002137565b62000f076001600160a01b0383168983620021bb565b60008662000f16838862003c06565b62000f22919062003c20565b60405163935b7dbd60e01b81526001600160a01b038a8116600483015260248201859052604482018390529192509085169063935b7dbd90606401600060405180830381600087803b15801562000f7857600080fd5b505af115801562000f8d573d6000803e3d6000fd5b5050505060408581015190516370a0823160e01b81526001600160a01b038b811660048301528516906370a0823190602401602060405180830381865afa15801562000fdd573d6000803e3d6000fd5b505050506040513d601f19601f8201168201806040525081019062001003919062003c43565b10620010145762001014896200260e565b505b5050505050505050565b6001546001600160a01b0316620010345750565b6001600160a01b03811660009081526009602052604090205460ff1615620010595750565b60008190506000816001600160a01b031663cbda8f826040518163ffffffff1660e01b8152600401602060405180830381865afa1580156200109f573d6000803e3d6000fd5b505050506040513d601f19601f82011682018060405250810190620010c5919062003c43565b905080600003620010d557505050565b6001546001600160a01b039081166000908152600960205260409020600801541680620011025750505050565b6040516327c49ddd60e11b81526001600160a01b03828116600483015260248201849052841690634f893bba90604401600060405180830381600087803b1580156200114d57600080fd5b505af115801562001016573d6000803e3d6000fd5b6000816000015182602001518360400151846060015130604051620011879062003256565b6200119795949392919062003c5d565b604051809103906000f080158015620011b4573d6000803e3d6000fd5b5092915050565b6000806000808860200151905080806020019051810190620011de9190620039fb565b604080513060208201529194500160408051601f1981840301815291815260208b8101929092528051610120810182526000808252928101839052908101829052606081018290526080810182905260a0810182905260c0810182905260e081018290526101008101919091526020808c01518051909162001267918301810190830162003cd2565b60405190965090935062001285915089908490879060200162003db8565b60408051601f1981840301815291905260208d0152600087620012b7578951620012b190600162003e66565b620012ba565b89515b67ffffffffffffffff811115620012d557620012d5620032ff565b6040519080825280602002602001820160405280156200131257816020015b620012fe62003264565b815260200190600190039081620012f45790505b50905060005b8a5181101562001368578a8181518110620013375762001337620039e5565b6020026020010151828281518110620013545762001354620039e5565b602090810291909101015260010162001318565b5087620014b9576040805160e081018252600254918101918252600354606082015260045460808201526005805491928392909160a0840191620013ac9062003a1b565b80601f0160208091040260200160405190810160405280929190818152602001828054620013da9062003a1b565b80156200142b5780601f10620013ff576101008083540402835291602001916200142b565b820191906000526020600020905b8154815290600101906020018083116200140d57829003601f168201915b5050509183525050604080518082018252601081527f4c4d5f50435f5374616b696e675f7631000000000000000000000000000000006020828101919091529283015291835281516001600160a01b038e168183015292019101604051602081830303815290604052815250818b5181518110620014ad57620014ad620039e5565b60200260200101819052505b7f00000000000000000000000000000000000000000000000000000000000000006001600160a01b031663ff2676998f8f8f8f866040518663ffffffff1660e01b81526004016200150f95949392919062003ef6565b6020604051808303816000875af11580156200152f573d6000803e3d6000fd5b505050506040513d601f19601f82011682018060405250810190620015559190620039fb565b6001549097506001600160a01b031615801562001570575087155b156200160957866001600160a01b03166304baed9e6040518163ffffffff1660e01b8152600401602060405180830381865afa158015620015b5573d6000803e3d6000fd5b505050506040513d601f19601f82011682018060405250810190620015db9190620039fb565b6001805473ffffffffffffffffffffffffffffffffffffffff19166001600160a01b03929092169190911790555b505050509750975097945050505050565b60008590506000856001600160a01b0316634cfa64876040518163ffffffff1660e01b8152600401600060405180830381865afa15801562001660573d6000803e3d6000fd5b505050506040513d6000823e601f3d908101601f191682016040526200168a919081019062003fb8565b90506000805b82518110156200174857828181518110620016af57620016af620039e5565b60200260200101516001600160a01b03166346ebcacf6040518163ffffffff1660e01b8152600401602060405180830381865afa92505050801562001713575060408051601f3d908101601f19168201909252620017109181019062003c43565b60015b156200173f57508281815181106200172f576200172f620039e5565b6020026020010151915062001748565b60010162001690565b508451600090620018105760005b83518110156200180e57838181518110620017755762001775620039e5565b60200260200101516001600160a01b0316637b0a47ee6040518163ffffffff1660e01b8152600401602060405180830381865afa925050508015620017d9575060408051601f3d908101601f19168201909252620017d69181019062003c43565b60015b15620018055750838181518110620017f557620017f5620039e5565b602002602001015191506200180e565b60010162001756565b505b60405180610160016040528060001515815260200187600001511515815260200187602001518152602001886001600160a01b0316815260200187604001516001600160a01b03168152602001866001600160a01b03168152602001896001600160a01b03168152602001856001600160a01b031663d1c6022f6040518163ffffffff1660e01b8152600401602060405180830381865afa158015620018ba573d6000803e3d6000fd5b505050506040513d601f19601f82011682018060405250810190620018e0919062003c43565b8152602001856001600160a01b031663bf75292b6040518163ffffffff1660e01b8152600401602060405180830381865afa15801562001924573d6000803e3d6000fd5b505050506040513d601f19601f820116820180604052508101906200194a919062003c43565b8152602001826001600160a01b03168152602001836001600160a01b0316815250600960008b6001600160a01b03166001600160a01b0316815260200190815260200160002060008201518160000160006101000a81548160ff02191690831515021790555060208201518160000160016101000a81548160ff0219169083151502179055506040820151816001015560608201518160020160006101000a8154816001600160a01b0302191690836001600160a01b0316021790555060808201518160030160006101000a8154816001600160a01b0302191690836001600160a01b0316021790555060a08201518160040160006101000a8154816001600160a01b0302191690836001600160a01b0316021790555060c08201518160050160006101000a8154816001600160a01b0302191690836001600160a01b0316021790555060e0820151816006015561010082015181600701556101208201518160080160006101000a8154816001600160a01b0302191690836001600160a01b031602179055506101408201518160090160006101000a8154816001600160a01b0302191690836001600160a01b03160217905550905050600a899080600181540180825580915050600190039060005260206000200160009091909190916101000a8154816001600160a01b0302191690836001600160a01b03160217905550505050505050505050565b6001600160a01b038082166000818152600960208181526040808420815161016081018352815460ff8082161515835261010091829004161515828601526001830154828501526002830154891660608301526003830154891660808301526004808401548a1660a084015260058401548a1660c0840152600684015460e084015260078401549183019190915260088301548916610120830152919094015490961661014084018190528151631ca3bc4f60e01b81529151939690958895949093631ca3bc4f9380840193919291908290030181865afa15801562001c40573d6000803e3d6000fd5b505050506040513d601f19601f8201168201806040525081019062001c669190620039fb565b9050836020015162001e1d578360c001516001600160a01b031663d09edf316040518163ffffffff1660e01b8152600401602060405180830381865afa15801562001cb5573d6000803e3d6000fd5b505050506040513d601f19601f8201168201806040525081019062001cdb9190620039fb565b6001600160a01b0316632f2ff15d8560c001516001600160a01b031663d09edf316040518163ffffffff1660e01b8152600401602060405180830381865afa15801562001d2c573d6000803e3d6000fd5b505050506040513d601f19601f8201168201806040525081019062001d529190620039fb565b6001600160a01b031663b3ecf2366040518163ffffffff1660e01b8152600401602060405180830381865afa15801562001d90573d6000803e3d6000fd5b505050506040513d601f19601f8201168201806040525081019062001db6919062003c43565b60608701516040516001600160e01b031960e085901b16815260048101929092526001600160a01b03166024820152604401600060405180830381600087803b15801562001e0357600080fd5b505af115801562001e18573d6000803e3d6000fd5b505050505b60405163cf456ae760e01b8152306004820152600160248201526001600160a01b0382169063cf456ae790604401600060405180830381600087803b15801562001e6657600080fd5b505af115801562001e7b573d6000803e3d6000fd5b50505050816001600160a01b0316636c67e807836001600160a01b0316637feb48a16040518163ffffffff1660e01b8152600401602060405180830381865afa15801562001ecd573d6000803e3d6000fd5b505050506040513d601f19601f8201168201806040525081019062001ef3919062003c43565b6040516001600160e01b031960e084901b1681526004810191909152306024820152604401600060405180830381600087803b15801562001f3357600080fd5b505af115801562001f48573d6000803e3d6000fd5b50505050826001600160a01b0316636c67e807846001600160a01b03166346ebcacf6040518163ffffffff1660e01b8152600401602060405180830381865afa15801562001f9a573d6000803e3d6000fd5b505050506040513d601f19601f8201168201806040525081019062001fc0919062003c43565b6040516001600160e01b031960e084901b16815260048101919091523060248201526044015b600060405180830381600087803b1580156200200157600080fd5b505af115801562001014573d6000803e3d6000fd5b80831115620020385760405163262cabc360e21b815260040160405180910390fd5b8215620020b357620020606200204d620020ba565b6001600160a01b03861690308662002137565b620020766001600160a01b0385168685620021bb565b60405163935b7dbd60e01b81526001600160a01b038381166004830152602482018590526001604483015286169063935b7dbd9060640162001fe6565b5050505050565b60003660147f00000000000000000000000000000000000000000000000000000000000000006001600160a01b031633148015620020f85750808210155b156200212f576000366200210d83856200405d565b6200211a92829062004073565b62002125916200409f565b60601c9250505090565b339250505090565b6040516001600160a01b038481166024830152838116604483015260648201839052620021b59186918216906323b872dd906084015b604051602081830303815290604052915060e01b6020820180517bffffffffffffffffffffffffffffffffffffffffffffffffffffffff838183161783525050505062002f02565b50505050565b604051636eb1769f60e11b81523060048201526001600160a01b0383811660248301526000919085169063dd62ed3e90604401602060405180830381865afa1580156200220c573d6000803e3d6000fd5b505050506040513d601f19601f8201168201806040525081019062002232919062003c43565b9050620021b5848462002246858562003e66565b62002f75565b6001600160a01b038083166000908152600960208181526040808420815161016081018352815460ff808216151583526101009182900416151582860152600183015482850152600283015488166060830152600383015488166080830152600480840154891660a08401526005840154891660c08401819052600685015460e0850152600785015492840192909252600884015489166101208401529290950154909616610140870152815163030d028960e21b81529151949594869493630c340a249380840193919291908290030181865afa15801562002333573d6000803e3d6000fd5b505050506040513d601f19601f82011682018060405250810190620023599190620039fb565b6001600160a01b031663f2d638266040518163ffffffff1660e01b8152600401602060405180830381865afa15801562002397573d6000803e3d6000fd5b505050506040513d601f19601f82011682018060405250810190620023bd9190620039fb565b905060008590506000816001600160a01b031663fc0c546a6040518163ffffffff1660e01b8152600401602060405180830381865afa15801562002405573d6000803e3d6000fd5b505050506040513d601f19601f820116820180604052508101906200242b9190620039fb565b6040516370a0823160e01b81526001600160a01b0389811660048301529192506000918316906370a0823190602401602060405180830381865afa15801562002478573d6000803e3d6000fd5b505050506040513d601f19601f820116820180604052508101906200249e919062003c43565b90506000846001600160a01b0316631a3e87336040518163ffffffff1660e01b8152600401602060405180830381865afa158015620024e1573d6000803e3d6000fd5b505050506040513d601f19601f8201168201806040525081019062002507919062003c43565b90506000846001600160a01b031663470624026040518163ffffffff1660e01b8152600401602060405180830381865afa1580156200254a573d6000803e3d6000fd5b505050506040513d601f19601f8201168201806040525081019062002570919062003c43565b9050600062002580828462003e66565b9050600061271062002593838d62003c06565b6200259f919062003c20565b90506000620025af828d6200405d565b90506000620025bf828862003e66565b90508a60400151811115620025f95760008b6040015182620025e291906200405d565b9050620025f0818f6200405d565b9c5050620025fd565b8c9b505b505050505050505050505092915050565b6001600160a01b038082166000818152600960208181526040808420815161016081018352815460ff8082161515835261010091829004161515828601526001830154828501526002830154891660608301526003830154891660808301526004808401548a1660a084015260058401548a1660c0840152600684015460e084015260078401549183019190915260088301548916610120830152919094015490961661014084018190528151637e062a3560e11b8152915193969095889594909363fc0c546a9380840193919291908290030181865afa158015620026f8573d6000803e3d6000fd5b505050506040513d601f19601f820116820180604052508101906200271e9190620039fb565b90506000826001600160a01b0316631ca3bc4f6040518163ffffffff1660e01b8152600401602060405180830381865afa15801562002761573d6000803e3d6000fd5b505050506040513d601f19601f82011682018060405250810190620027879190620039fb565b90506000836001600160a01b031663cbda8f826040518163ffffffff1660e01b8152600401602060405180830381865afa158015620027ca573d6000803e3d6000fd5b505050506040513d601f19601f82011682018060405250810190620027f0919062003c43565b6040516370a0823160e01b81526001600160a01b0389811660048301528516906370a0823190602401602060405180830381865afa15801562002837573d6000803e3d6000fd5b505050506040513d601f19601f820116820180604052508101906200285d919062003c43565b6200286991906200405d565b905060006127106007548362002880919062003c06565b6200288c919062003c20565b604051638028b82f60e01b81523060048201526001600160a01b038681166024830152604482018590526000606483018190526084830181905260a483015291925090871690638028b82f9060c401600060405180830381600087803b158015620028f657600080fd5b505af11580156200290b573d6000803e3d6000fd5b5050505080826200291d91906200405d565b60808801519092506200293c906001600160a01b038616908462003021565b60005462002958906001600160a01b0386811691168362003021565b620029638862001020565b60006006548860e00151876001600160a01b031663d1c6022f6040518163ffffffff1660e01b8152600401602060405180830381865afa158015620029ac573d6000803e3d6000fd5b505050506040513d601f19601f82011682018060405250810190620029d2919062003c43565b620029de91906200405d565b620029ea919062003c20565b905060006127106008548362002a01919062003c06565b62002a0d919062003c20565b905062002a1b81836200405d565b60808a01516040516340c10f1960e01b81526001600160a01b039182166004820152602481018390529193508616906340c10f1990604401600060405180830381600087803b15801562002a6e57600080fd5b505af115801562002a83573d6000803e3d6000fd5b50506000546040516340c10f1960e01b81526001600160a01b0391821660048201526024810185905290881692506340c10f199150604401600060405180830381600087803b15801562002ad657600080fd5b505af115801562002aeb573d6000803e3d6000fd5b50505050866001600160a01b031663c6ab5cdc6040518163ffffffff1660e01b8152600401600060405180830381600087803b15801562002b2b57600080fd5b505af115801562002b40573d6000803e3d6000fd5b50505050866001600160a01b031663ba83c9706040518163ffffffff1660e01b8152600401600060405180830381600087803b15801562002b8057600080fd5b505af115801562002b95573d6000803e3d6000fd5b50505060808a015160a08b01516040516332092e4f60e21b81526001600160a01b038a81166004830152898116602483015291821660448201526000935091169063c824b93c906064016020604051808303816000875af115801562002bff573d6000803e3d6000fd5b505050506040513d601f19601f8201168201806040525081019062002c259190620039fb565b905089602001511562002c8d57856001600160a01b031663715018a66040518163ffffffff1660e01b8152600401600060405180830381600087803b15801562002c6e57600080fd5b505af115801562002c83573d6000803e3d6000fd5b5050505062002cf1565b60608a015160405163f2fde38b60e01b81526001600160a01b0391821660048201529087169063f2fde38b90602401600060405180830381600087803b15801562002cd757600080fd5b505af115801562002cec573d6000803e3d6000fd5b505050505b60018a600001901515908115158152505089600960008d6001600160a01b03166001600160a01b0316815260200190815260200160002060008201518160000160006101000a81548160ff02191690831515021790555060208201518160000160016101000a81548160ff0219169083151502179055506040820151816001015560608201518160020160006101000a8154816001600160a01b0302191690836001600160a01b0316021790555060808201518160030160006101000a8154816001600160a01b0302191690836001600160a01b0316021790555060a08201518160040160006101000a8154816001600160a01b0302191690836001600160a01b0316021790555060c08201518160050160006101000a8154816001600160a01b0302191690836001600160a01b0316021790555060e0820151816006015561010082015181600701556101208201518160080160006101000a8154816001600160a01b0302191690836001600160a01b031602179055506101408201518160090160006101000a8154816001600160a01b0302191690836001600160a01b03160217905550905050806001600160a01b03168a60c001516001600160a01b03167feddae9d2e53c54be02851320408790594a59dcb6ff5ab585cd8e04cd7c5373e9858860405162002eed929190918252602082015260400190565b60405180910390a35050505050505050505050565b600062002f196001600160a01b0384168362003054565b9050805160001415801562002f4157508080602001905181019062002f3f9190620040d5565b155b1562002f7057604051635274afe760e01b81526001600160a01b03841660048201526024015b60405180910390fd5b505050565b604080516001600160a01b038416602482015260448082018490528251808303909101815260649091019091526020810180517bffffffffffffffffffffffffffffffffffffffffffffffffffffffff1663095ea7b360e01b17905262002fdd84826200306d565b620021b5576040516001600160a01b038481166024830152600060448301526200301591869182169063095ea7b3906064016200216d565b620021b5848262002f02565b6040516001600160a01b0383811660248301526044820183905262002f7091859182169063a9059cbb906064016200216d565b606062003064838360006200311e565b90505b92915050565b6000806000846001600160a01b0316846040516200308c9190620040f5565b6000604051808303816000865af19150503d8060008114620030cb576040519150601f19603f3d011682016040523d82523d6000602084013e620030d0565b606091505b5091509150818015620030fe575080511580620030fe575080806020019051810190620030fe9190620040d5565b80156200311557506000856001600160a01b03163b115b95945050505050565b606081471015620031455760405163cd78605960e01b815230600482015260240162002f67565b600080856001600160a01b03168486604051620031639190620040f5565b60006040518083038185875af1925050503d8060008114620031a2576040519150601f19603f3d011682016040523d82523d6000602084013e620031a7565b606091505b5091509150620031b9868383620031c5565b925050505b9392505050565b606082620031de57620031d88262003229565b620031be565b8151158015620031f657506001600160a01b0384163b155b156200322157604051639996b31560e01b81526001600160a01b038516600482015260240162002f67565b5080620031be565b8051156200323a5780518082602001fd5b604051630a12f52160e11b815260040160405180910390fd5b50565b610ffd806200411483390190565b6040518060400160405280620032a26040518060a0016040528060008152602001600081526020016000815260200160608152602001606081525090565b8152602001606081525090565b6001600160a01b03811681146200325357600080fd5b600060208284031215620032d857600080fd5b8135620031be81620032af565b600060208284031215620032f857600080fd5b5035919050565b634e487b7160e01b600052604160045260246000fd5b6040805190810167ffffffffffffffff811182821017156200333b576200333b620032ff565b60405290565b60405160a0810167ffffffffffffffff811182821017156200333b576200333b620032ff565b6040516080810167ffffffffffffffff811182821017156200333b576200333b620032ff565b604051610120810167ffffffffffffffff811182821017156200333b576200333b620032ff565b604051601f8201601f1916810167ffffffffffffffff81118282101715620033e057620033e0620032ff565b604052919050565b80151581146200325357600080fd5b6000604082840312156200340a57600080fd5b6200341462003315565b905081356200342381620033e8565b815260208201356200343581620032af565b602082015292915050565b600082601f8301126200345257600080fd5b813567ffffffffffffffff8111156200346f576200346f620032ff565b62003484601f8201601f1916602001620033b4565b8181528460208386010111156200349a57600080fd5b816020850160208301376000918101602001919091529392505050565b600060408284031215620034ca57600080fd5b620034d462003315565b9050813567ffffffffffffffff80821115620034ef57600080fd5b9083019060a082860312156200350457600080fd5b6200350e62003341565b8235815260208301356020820152604083013560408201526060830135828111156200353957600080fd5b620035478782860162003440565b6060830152506080830135828111156200356057600080fd5b6200356e8782860162003440565b608083015250835260208401359150808211156200358b57600080fd5b506200359a8482850162003440565b60208301525092915050565b600067ffffffffffffffff821115620035c357620035c3620032ff565b5060051b60200190565b600082601f830112620035df57600080fd5b81356020620035f8620035f283620035a6565b620033b4565b82815260059290921b840181019181810190868411156200361857600080fd5b8286015b848110156200365d57803567ffffffffffffffff8111156200363e5760008081fd5b6200364e8986838b0101620034b7565b8452509183019183016200361c565b509695505050505050565b6000608082840312156200367b57600080fd5b6200368562003367565b9050813567ffffffffffffffff80821115620036a057600080fd5b620036ae8583860162003440565b83526020840135915080821115620036c557600080fd5b50620036d48482850162003440565b602083015250604082013560ff81168114620036ef57600080fd5b806040830152506060820135606082015292915050565b6000608082840312156200371957600080fd5b6200372362003367565b905081356200373281620033e8565b81526020828101359082015260408201356200374e81620032af565b604082015260608201356200376381620032af565b606082015292915050565b600080600080600080600080610180898b0312156200378c57600080fd5b620037988a8a620033f7565b9750604089013567ffffffffffffffff80821115620037b657600080fd5b620037c48c838d01620034b7565b985060608b0135915080821115620037db57600080fd5b620037e98c838d01620034b7565b975060808b01359150808211156200380057600080fd5b6200380e8c838d01620034b7565b965060a08b01359150808211156200382557600080fd5b620038338c838d01620035cd565b955060c08b01359150808211156200384a57600080fd5b50620038598b828c0162003668565b93505060e08901359150620038738a6101008b0162003706565b90509295985092959890939650565b6000602082840312156200389557600080fd5b813567ffffffffffffffff80821115620038ae57600080fd5b9083019060808286031215620038c357600080fd5b620038cd62003367565b823581526020830135602082015260408301356040820152606083013582811115620038f857600080fd5b620039068782860162003440565b60608301525095945050505050565b60005b838110156200393257818101518382015260200162003918565b50506000910152565b600081518084526200395581602086016020860162003915565b601f01601f19169290920160200192915050565b8481528360208201528260408201526080606082015260006200399060808301846200393b565b9695505050505050565b60008060008060808587031215620039b157600080fd5b8435620039be81620032af565b93506020850135620039d081620032af565b93969395505050506040820135916060013590565b634e487b7160e01b600052603260045260246000fd5b60006020828403121562003a0e57600080fd5b8151620031be81620032af565b600181811c9082168062003a3057607f821691505b60208210810362003a5157634e487b7160e01b600052602260045260246000fd5b50919050565b601f82111562002f70576000816000526020600020601f850160051c8101602086101562003a825750805b601f850160051c820191505b8181101562003aa35782815560010162003a8e565b505050505050565b815167ffffffffffffffff81111562003ac85762003ac8620032ff565b62003ae08162003ad9845462003a1b565b8462003a57565b602080601f83116001811462003b18576000841562003aff5750858301515b600019600386901b1c1916600185901b17855562003aa3565b600085815260208120601f198616915b8281101562003b495788860151825594840194600190910190840162003b28565b508582101562003b685787850151600019600388901b60f8161c191681555b5050505050600190811b01905550565b805182526020810151602083015260408101516040830152600060608201516080606085015262003bad60808501826200393b565b949350505050565b60408152600062003bca604083018562003b78565b828103602084015262003115818562003b78565b805162003beb81620032af565b919050565b634e487b7160e01b600052601160045260246000fd5b808202811582820484141762003067576200306762003bf0565b60008262003c3e57634e487b7160e01b600052601260045260246000fd5b500490565b60006020828403121562003c5657600080fd5b5051919050565b60a08152600062003c7260a08301886200393b565b828103602084015262003c8681886200393b565b60ff969096166040840152505060608101929092526001600160a01b031660809091015292915050565b805163ffffffff8116811462003beb57600080fd5b805162003beb81620033e8565b600080600083850361016081121562003cea57600080fd5b845162003cf781620032af565b9350610120601f19820181131562003d0e57600080fd5b62003d186200338d565b915062003d286020870162003bde565b825262003d386040870162003cb0565b602083015262003d4b6060870162003cb0565b60408301526080860151606083015260a0860151608083015262003d7260c0870162003cc5565b60a083015262003d8560e0870162003cc5565b60c08301526101008681015160e08401529086015190820152915062003daf610140850162003bde565b90509250925092565b6000610160820190506001600160a01b0380861683528085511660208401525063ffffffff6020850151166040830152604084015162003e00606084018263ffffffff169052565b5060608401516080830152608084015160a083015260a084015162003e2960c084018215159052565b5060c084015180151560e08401525060e0840151610100838101919091528401516101208301526001600160a01b03831661014083015262003bad565b8082018082111562003067576200306762003bf0565b6000815160408452805160408501526020810151606085015260408101516080850152606081015160a08086015262003eb960e08601826200393b565b905060808201519150603f198582030160c086015262003eda81836200393b565b915050602083015184820360208601526200311582826200393b565b855115158152600060206001600160a01b0381890151168184015260c0604084015262003f2760c084018862003e7c565b838103606085015262003f3b818862003e7c565b9050838103608085015262003f51818762003e7c565b905083810360a08501528085518083528383019150838160051b84010184880160005b8381101562003fa657601f1986840301855262003f9383835162003e7c565b9487019492509086019060010162003f74565b50909c9b505050505050505050505050565b6000602080838503121562003fcc57600080fd5b825167ffffffffffffffff81111562003fe457600080fd5b8301601f8101851362003ff657600080fd5b805162004007620035f282620035a6565b81815260059190911b820183019083810190878311156200402757600080fd5b928401925b82841015620040525783516200404281620032af565b825292840192908401906200402c565b979650505050505050565b8181038181111562003067576200306762003bf0565b600080858511156200408457600080fd5b838611156200409257600080fd5b5050820193919092039150565b6bffffffffffffffffffffffff198135818116916014851015620040cd5780818660140360031b1b83161692505b505092915050565b600060208284031215620040e857600080fd5b8151620031be81620033e8565b600082516200410981846020870162003915565b919091019291505056fe60c06040523480156200001157600080fd5b5060405162000ffd38038062000ffd833981016040819052620000349162000254565b80828686600362000046838262000395565b50600462000055828262000395565b50505080600003620000825760405163392e1e2760e01b8152600060048201526024015b60405180910390fd5b6080526001600160a01b038116620000b157604051631e4fbdf760e01b81526000600482015260240162000079565b620000bc81620000db565b50620000ca8160016200012d565b505060ff1660a05250620004619050565b600580546001600160a01b038381166001600160a01b0319831681179093556040519116919082907f8be0079c531659141344cd1fd0a4f28419497f9722a3daafe3b4186f6b6457e090600090a35050565b6001600160a01b038216600081815260066020908152604091829020805460ff191685151590811790915591519182527f583b0aa0e528532caf4b907c11d7a8158a122fe2a6fb80cd9b09776ebea8d92d910160405180910390a25050565b634e487b7160e01b600052604160045260246000fd5b600082601f830112620001b457600080fd5b81516001600160401b0380821115620001d157620001d16200018c565b604051601f8301601f19908116603f01168101908282118183101715620001fc57620001fc6200018c565b81604052838152602092508660208588010111156200021a57600080fd5b600091505b838210156200023e57858201830151818301840152908201906200021f565b6000602085830101528094505050505092915050565b600080600080600060a086880312156200026d57600080fd5b85516001600160401b03808211156200028557600080fd5b6200029389838a01620001a2565b96506020880151915080821115620002aa57600080fd5b50620002b988828901620001a2565b945050604086015160ff81168114620002d157600080fd5b6060870151608088015191945092506001600160a01b0381168114620002f657600080fd5b809150509295509295909350565b600181811c908216806200031957607f821691505b6020821081036200033a57634e487b7160e01b600052602260045260246000fd5b50919050565b601f82111562000390576000816000526020600020601f850160051c810160208610156200036b5750805b601f850160051c820191505b818110156200038c5782815560010162000377565b5050505b505050565b81516001600160401b03811115620003b157620003b16200018c565b620003c981620003c2845462000304565b8462000340565b602080601f831160018114620004015760008415620003e85750858301515b600019600386901b1c1916600185901b1785556200038c565b600085815260208120601f198616915b82811015620004325788860151825594840194600190910190840162000411565b5085821015620004515787850151600019600388901b60f8161c191681555b5050505050600190811b01905550565b60805160a051610b6f6200048e600039600061018d0152600081816101b901526108000152610b6f6000f3fe608060405234801561001057600080fd5b506004361061011b5760003560e01c806370a08231116100b25780639dc29fac11610081578063cf456ae711610066578063cf456ae71461028f578063dd62ed3e146102a2578063f2fde38b146102db57600080fd5b80639dc29fac14610269578063a9059cbb1461027c57600080fd5b806370a0823114610215578063715018a61461023e5780638da5cb5b1461024657806395d89b411461026157600080fd5b8063313ce567116100ee578063313ce56714610186578063355274ea146101b757806340c10f19146101dd578063423afa66146101f257600080fd5b806306fdde0314610120578063095ea7b31461013e57806318160ddd1461016157806323b872dd14610173575b600080fd5b6101286102ee565b604051610135919061097c565b60405180910390f35b61015161014c3660046109e7565b610380565b6040519015158152602001610135565b6002545b604051908152602001610135565b610151610181366004610a11565b61039a565b60405160ff7f0000000000000000000000000000000000000000000000000000000000000000168152602001610135565b7f0000000000000000000000000000000000000000000000000000000000000000610165565b6101f06101eb3660046109e7565b6103be565b005b610151610200366004610a4d565b60066020526000908152604090205460ff1681565b610165610223366004610a4d565b6001600160a01b031660009081526020819052604090205490565b6101f06103fc565b6005546040516001600160a01b039091168152602001610135565b610128610410565b6101f06102773660046109e7565b61041f565b61015161028a3660046109e7565b610459565b6101f061029d366004610a6f565b610467565b6101656102b0366004610aab565b6001600160a01b03918216600090815260016020908152604080832093909416825291909152205490565b6101f06102e9366004610a4d565b610479565b6060600380546102fd90610ade565b80601f016020809104026020016040519081016040528092919081815260200182805461032990610ade565b80156103765780601f1061034b57610100808354040283529160200191610376565b820191906000526020600020905b81548152906001019060200180831161035957829003601f168201915b5050505050905090565b60003361038e8185856104bc565b60019150505b92915050565b6000336103a88582856104ce565b6103b385858561054c565b506001949350505050565b3360009081526006602052604090205460ff166103ee57604051634199e25360e11b815260040160405180910390fd5b6103f882826105ab565b5050565b6104046105e1565b61040e600061060e565b565b6060600480546102fd90610ade565b3360009081526006602052604090205460ff1661044f57604051634199e25360e11b815260040160405180910390fd5b6103f88282610678565b60003361038e81858561054c565b61046f6105e1565b6103f882826106ae565b6104816105e1565b6001600160a01b0381166104b057604051631e4fbdf760e01b8152600060048201526024015b60405180910390fd5b6104b98161060e565b50565b6104c9838383600161070d565b505050565b6001600160a01b038381166000908152600160209081526040808320938616835292905220546000198114610546578181101561053757604051637dc7a0d960e11b81526001600160a01b038416600482015260248101829052604481018390526064016104a7565b6105468484848403600061070d565b50505050565b6001600160a01b03831661057657604051634b637e8f60e11b8152600060048201526024016104a7565b6001600160a01b0382166105a05760405163ec442f0560e01b8152600060048201526024016104a7565b6104c98383836107e2565b6001600160a01b0382166105d55760405163ec442f0560e01b8152600060048201526024016104a7565b6103f8600083836107e2565b6005546001600160a01b0316331461040e5760405163118cdaa760e01b81523360048201526024016104a7565b600580546001600160a01b038381167fffffffffffffffffffffffff0000000000000000000000000000000000000000831681179093556040519116919082907f8be0079c531659141344cd1fd0a4f28419497f9722a3daafe3b4186f6b6457e090600090a35050565b6001600160a01b0382166106a257604051634b637e8f60e11b8152600060048201526024016104a7565b6103f8826000836107e2565b6001600160a01b038216600081815260066020908152604091829020805460ff191685151590811790915591519182527f583b0aa0e528532caf4b907c11d7a8158a122fe2a6fb80cd9b09776ebea8d92d910160405180910390a25050565b6001600160a01b0384166107375760405163e602df0560e01b8152600060048201526024016104a7565b6001600160a01b03831661076157604051634a1406b160e11b8152600060048201526024016104a7565b6001600160a01b038085166000908152600160209081526040808320938716835292905220829055801561054657826001600160a01b0316846001600160a01b03167f8c5be1e5ebec7d5bd14f71427d1e84f3dd0314c0f7b2291e5b200ac8c7c3b925846040516107d491815260200190565b60405180910390a350505050565b6107ed838383610852565b6001600160a01b0383166104c9576002547f0000000000000000000000000000000000000000000000000000000000000000908181111561084b5760405163279e7e1560e21b815260048101829052602481018390526044016104a7565b5050505050565b6001600160a01b03831661087d5780600260008282546108729190610b18565b909155506108ef9050565b6001600160a01b038316600090815260208190526040902054818110156108d05760405163391434e360e21b81526001600160a01b038516600482015260248101829052604481018390526064016104a7565b6001600160a01b03841660009081526020819052604090209082900390555b6001600160a01b03821661090b5760028054829003905561092a565b6001600160a01b03821660009081526020819052604090208054820190555b816001600160a01b0316836001600160a01b03167fddf252ad1be2c89b69c2b068fc378daa952ba7f163c4a11628f55a4df523b3ef8360405161096f91815260200190565b60405180910390a3505050565b60006020808352835180602085015260005b818110156109aa5785810183015185820160400152820161098e565b506000604082860101526040601f19601f8301168501019250505092915050565b80356001600160a01b03811681146109e257600080fd5b919050565b600080604083850312156109fa57600080fd5b610a03836109cb565b946020939093013593505050565b600080600060608486031215610a2657600080fd5b610a2f846109cb565b9250610a3d602085016109cb565b9150604084013590509250925092565b600060208284031215610a5f57600080fd5b610a68826109cb565b9392505050565b60008060408385031215610a8257600080fd5b610a8b836109cb565b915060208301358015158114610aa057600080fd5b809150509250929050565b60008060408385031215610abe57600080fd5b610ac7836109cb565b9150610ad5602084016109cb565b90509250929050565b600181811c90821680610af257607f821691505b602082108103610b1257634e487b7160e01b600052602260045260246000fd5b50919050565b8082018082111561039457634e487b7160e01b600052601160045260246000fdfea26469706673582212200d68669bd9d7a7cf36532e94088db26b3e972e6649ce1d5bd2b0e1bd50d1234764736f6c63430008170033a264697066735822122075974c3cfb5606559f14e3895214c7948bc43476f743dd6db3214fa4873d755d64736f6c6343000817003368747470733a2f2f6769746875622e636f6d2f496e7665727465724e6574776f726b2f636f6e747261637473",
    "linkReferences": {}
  },
  "methodIdentifiers": {
    "admin()": "f851a440",
    "buyFor(address,address,uint256,uint256)": "f6819293",
    "collateralFeeMultiplier()": "5eecade6",
    "createPIMWorkflow((bool,address),((uint256,uint256,uint256,string,string),bytes),((uint256,uint256,uint256,string,string),bytes),((uint256,uint256,uint256,string,string),bytes),((uint256,uint256,uint256,string,string),bytes)[],(string,string,uint8,uint256),uint256,(bool,uint256,address,address))": "6daf301a",
    "fundingManagers(uint256)": "7b542b71",
    "getIsGraduated(address)": "1248c803",
    "getIsImmutable(address)": "f402c2bb",
    "getLpTokenRecipient(address)": "de78c729",
    "getMigrationThreshold(address)": "d8354222",
    "isTrustedForwarder(address)": "572b6c05",
    "issuanceFeeMultiplier()": "0f25247e",
    "issuanceLiquidityDivisor()": "a38bc66d",
    "mainFundingManager()": "03828e7e",
    "orchestratorFactory()": "2f36a25d",
    "pims(address)": "1615f657",
    "sellTo(address,address,uint256,uint256)": "ce7c83dd",
    "setAdmin(address)": "704b6c02",
    "setCollateralFeeMultiplier(uint256)": "80165151",
    "setIssuanceFeeMultiplier(uint256)": "1cfcc51c",
    "setIssuanceLiquidityDivisor(uint256)": "c5c1f584",
    "setMainFundingManager(address)": "3cd27545",
    "setStakingModuleMetadata((uint256,uint256,uint256,string))": "7715db6f",
    "stakingModuleMetadata()": "b96086d9",
    "trustedForwarder()": "7da0a877",
    "withdrawAllProjectCollateralFeesToStaking()": "09bc6300"
  },
  "id": 78
}