{
  "abi": [
    {
      "type": "constructor",
      "inputs": [
        {
          "name": "_orchestratorFactory",
          "type": "address",
          "internalType": "address"
        },
        {
          "name": "_trustedForwarder",
          "type": "address",
          "internalType": "address"
        },
        {
          "name": "_admin",
          "type": "address",
          "internalType": "address"
        }
      ],
      "stateMutability": "nonpayable"
    },
    {
      "type": "function",
      "name": "admin",
      "inputs": [],
      "outputs": [
        {
          "name": "",
          "type": "address",
          "internalType": "address"
        }
      ],
      "stateMutability": "view"
    },
    {
      "type": "function",
      "name": "buyFor",
      "inputs": [
        {
          "name": "fundingManager",
          "type": "address",
          "internalType": "address"
        },
        {
          "name": "recipient",
          "type": "address",
          "internalType": "address"
        },
        {
          "name": "amountIn",
          "type": "uint256",
          "internalType": "uint256"
        },
        {
          "name": "minAmountOut",
          "type": "uint256",
          "internalType": "uint256"
        }
      ],
      "outputs": [],
      "stateMutability": "nonpayable"
    },
    {
      "type": "function",
      "name": "collateralFeeMultiplier",
      "inputs": [],
      "outputs": [
        {
          "name": "",
          "type": "uint256",
          "internalType": "uint256"
        }
      ],
      "stateMutability": "view"
    },
    {
      "type": "function",
      "name": "createPIMWorkflow",
      "inputs": [
        {
          "name": "workflowConfig",
          "type": "tuple",
          "internalType": "struct IOrchestratorFactory_v1.WorkflowConfig",
          "components": [
            {
              "name": "independentUpdates",
              "type": "bool",
              "internalType": "bool"
            },
            {
              "name": "independentUpdateAdmin",
              "type": "address",
              "internalType": "address"
            }
          ]
        },
        {
          "name": "fundingManagerConfig",
          "type": "tuple",
          "internalType": "struct IOrchestratorFactory_v1.ModuleConfig",
          "components": [
            {
              "name": "metadata",
              "type": "tuple",
              "internalType": "struct IModule_v1.Metadata",
              "components": [
                {
                  "name": "majorVersion",
                  "type": "uint256",
                  "internalType": "uint256"
                },
                {
                  "name": "minorVersion",
                  "type": "uint256",
                  "internalType": "uint256"
                },
                {
                  "name": "patchVersion",
                  "type": "uint256",
                  "internalType": "uint256"
                },
                {
                  "name": "url",
                  "type": "string",
                  "internalType": "string"
                },
                {
                  "name": "title",
                  "type": "string",
                  "internalType": "string"
                }
              ]
            },
            {
              "name": "configData",
              "type": "bytes",
              "internalType": "bytes"
            }
          ]
        },
        {
          "name": "authorizerConfig",
          "type": "tuple",
          "internalType": "struct IOrchestratorFactory_v1.ModuleConfig",
          "components": [
            {
              "name": "metadata",
              "type": "tuple",
              "internalType": "struct IModule_v1.Metadata",
              "components": [
                {
                  "name": "majorVersion",
                  "type": "uint256",
                  "internalType": "uint256"
                },
                {
                  "name": "minorVersion",
                  "type": "uint256",
                  "internalType": "uint256"
                },
                {
                  "name": "patchVersion",
                  "type": "uint256",
                  "internalType": "uint256"
                },
                {
                  "name": "url",
                  "type": "string",
                  "internalType": "string"
                },
                {
                  "name": "title",
                  "type": "string",
                  "internalType": "string"
                }
              ]
            },
            {
              "name": "configData",
              "type": "bytes",
              "internalType": "bytes"
            }
          ]
        },
        {
          "name": "paymentProcessorConfig",
          "type": "tuple",
          "internalType": "struct IOrchestratorFactory_v1.ModuleConfig",
          "components": [
            {
              "name": "metadata",
              "type": "tuple",
              "internalType": "struct IModule_v1.Metadata",
              "components": [
                {
                  "name": "majorVersion",
                  "type": "uint256",
                  "internalType": "uint256"
                },
                {
                  "name": "minorVersion",
                  "type": "uint256",
                  "internalType": "uint256"
                },
                {
                  "name": "patchVersion",
                  "type": "uint256",
                  "internalType": "uint256"
                },
                {
                  "name": "url",
                  "type": "string",
                  "internalType": "string"
                },
                {
                  "name": "title",
                  "type": "string",
                  "internalType": "string"
                }
              ]
            },
            {
              "name": "configData",
              "type": "bytes",
              "internalType": "bytes"
            }
          ]
        },
        {
          "name": "moduleConfigs",
          "type": "tuple[]",
          "internalType": "struct IOrchestratorFactory_v1.ModuleConfig[]",
          "components": [
            {
              "name": "metadata",
              "type": "tuple",
              "internalType": "struct IModule_v1.Metadata",
              "components": [
                {
                  "name": "majorVersion",
                  "type": "uint256",
                  "internalType": "uint256"
                },
                {
                  "name": "minorVersion",
                  "type": "uint256",
                  "internalType": "uint256"
                },
                {
                  "name": "patchVersion",
                  "type": "uint256",
                  "internalType": "uint256"
                },
                {
                  "name": "url",
                  "type": "string",
                  "internalType": "string"
                },
                {
                  "name": "title",
                  "type": "string",
                  "internalType": "string"
                }
              ]
            },
            {
              "name": "configData",
              "type": "bytes",
              "internalType": "bytes"
            }
          ]
        },
        {
          "name": "issuanceTokenParams",
          "type": "tuple",
          "internalType": "struct IBondingCurveBase_v1.IssuanceToken",
          "components": [
            {
              "name": "name",
              "type": "string",
              "internalType": "string"
            },
            {
              "name": "symbol",
              "type": "string",
              "internalType": "string"
            },
            {
              "name": "decimals",
              "type": "uint8",
              "internalType": "uint8"
            },
            {
              "name": "maxSupply",
              "type": "uint256",
              "internalType": "uint256"
            }
          ]
        },
        {
          "name": "initialPurchaseAmount",
          "type": "uint256",
          "internalType": "uint256"
        },
        {
          "name": "migrationConfig_",
          "type": "tuple",
          "internalType": "struct IMigrating_PIM_Factory_v1.MigrationConfig",
          "components": [
            {
              "name": "isImmutable",
              "type": "bool",
              "internalType": "bool"
            },
            {
              "name": "migrationThreshold",
              "type": "uint256",
              "internalType": "uint256"
            },
            {
              "name": "dexAdapter",
              "type": "address",
              "internalType": "address"
            },
            {
              "name": "lpTokenRecipient",
              "type": "address",
              "internalType": "address"
            }
          ]
        }
      ],
      "outputs": [
        {
          "name": "",
          "type": "address",
          "internalType": "contract IOrchestrator_v1"
        }
      ],
      "stateMutability": "nonpayable"
    },
    {
      "type": "function",
      "name": "fundingManagers",
      "inputs": [
        {
          "name": "",
          "type": "uint256",
          "internalType": "uint256"
        }
      ],
      "outputs": [
        {
          "name": "",
          "type": "address",
          "internalType": "address"
        }
      ],
      "stateMutability": "view"
    },
    {
      "type": "function",
      "name": "getIsGraduated",
      "inputs": [
        {
          "name": "fundingManager",
          "type": "address",
          "internalType": "address"
        }
      ],
      "outputs": [
        {
          "name": "",
          "type": "bool",
          "internalType": "bool"
        }
      ],
      "stateMutability": "view"
    },
    {
      "type": "function",
      "name": "getIsImmutable",
      "inputs": [
        {
          "name": "fundingManager",
          "type": "address",
          "internalType": "address"
        }
      ],
      "outputs": [
        {
          "name": "",
          "type": "bool",
          "internalType": "bool"
        }
      ],
      "stateMutability": "view"
    },
    {
      "type": "function",
      "name": "getLpTokenRecipient",
      "inputs": [
        {
          "name": "fundingManager",
          "type": "address",
          "internalType": "address"
        }
      ],
      "outputs": [
        {
          "name": "",
          "type": "address",
          "internalType": "address"
        }
      ],
      "stateMutability": "view"
    },
    {
      "type": "function",
      "name": "getMigrationThreshold",
      "inputs": [
        {
          "name": "fundingManager",
          "type": "address",
          "internalType": "address"
        }
      ],
      "outputs": [
        {
          "name": "",
          "type": "uint256",
          "internalType": "uint256"
        }
      ],
      "stateMutability": "view"
    },
    {
      "type": "function",
      "name": "isTrustedForwarder",
      "inputs": [
        {
          "name": "forwarder",
          "type": "address",
          "internalType": "address"
        }
      ],
      "outputs": [
        {
          "name": "",
          "type": "bool",
          "internalType": "bool"
        }
      ],
      "stateMutability": "view"
    },
    {
      "type": "function",
      "name": "issuanceFeeMultiplier",
      "inputs": [],
      "outputs": [
        {
          "name": "",
          "type": "uint256",
          "internalType": "uint256"
        }
      ],
      "stateMutability": "view"
    },
    {
      "type": "function",
      "name": "mainFundingManager",
      "inputs": [],
      "outputs": [
        {
          "name": "",
          "type": "address",
          "internalType": "address"
        }
      ],
      "stateMutability": "view"
    },
    {
      "type": "function",
      "name": "mutableInitialMintAmount",
      "inputs": [],
      "outputs": [
        {
          "name": "",
          "type": "uint256",
          "internalType": "uint256"
        }
      ],
      "stateMutability": "view"
    },
    {
      "type": "function",
      "name": "orchestratorFactory",
      "inputs": [],
      "outputs": [
        {
          "name": "",
          "type": "address",
          "internalType": "address"
        }
      ],
      "stateMutability": "view"
    },
    {
      "type": "function",
      "name": "pims",
      "inputs": [
        {
          "name": "fundingManager",
          "type": "address",
          "internalType": "address"
        }
      ],
      "outputs": [
        {
          "name": "isGraduated",
          "type": "bool",
          "internalType": "bool"
        },
        {
          "name": "isImmutable",
          "type": "bool",
          "internalType": "bool"
        },
        {
          "name": "migrationThreshold",
          "type": "uint256",
          "internalType": "uint256"
        },
        {
          "name": "initiator",
          "type": "address",
          "internalType": "address"
        },
        {
          "name": "dexAdapter",
          "type": "address",
          "internalType": "address"
        },
        {
          "name": "lpTokenRecipient",
          "type": "address",
          "internalType": "address"
        },
        {
          "name": "orchestrator",
          "type": "address",
          "internalType": "contract IOrchestrator_v1"
        },
        {
          "name": "initialVirtualIssuanceSupply",
          "type": "uint256",
          "internalType": "uint256"
        },
        {
          "name": "initialVirtualCollateralSupply",
          "type": "uint256",
          "internalType": "uint256"
        },
        {
          "name": "stakingModule",
          "type": "address",
          "internalType": "address"
        },
        {
          "name": "paymentRouter",
          "type": "address",
          "internalType": "address"
        }
      ],
      "stateMutability": "view"
    },
    {
      "type": "function",
      "name": "sellTo",
      "inputs": [
        {
          "name": "fundingManager",
          "type": "address",
          "internalType": "address"
        },
        {
          "name": "recipient",
          "type": "address",
          "internalType": "address"
        },
        {
          "name": "amountIn",
          "type": "uint256",
          "internalType": "uint256"
        },
        {
          "name": "minAmountOut",
          "type": "uint256",
          "internalType": "uint256"
        }
      ],
      "outputs": [],
      "stateMutability": "nonpayable"
    },
    {
      "type": "function",
      "name": "setAdmin",
      "inputs": [
        {
          "name": "_admin",
          "type": "address",
          "internalType": "address"
        }
      ],
      "outputs": [],
      "stateMutability": "nonpayable"
    },
    {
      "type": "function",
      "name": "setCollateralFeeMultiplier",
      "inputs": [
        {
          "name": "_collateralFeeMultiplier",
          "type": "uint256",
          "internalType": "uint256"
        }
      ],
      "outputs": [],
      "stateMutability": "nonpayable"
    },
    {
      "type": "function",
      "name": "setIssuanceFeeMultiplier",
      "inputs": [
        {
          "name": "_issuanceFeeMultiplier",
          "type": "uint256",
          "internalType": "uint256"
        }
      ],
      "outputs": [],
      "stateMutability": "nonpayable"
    },
    {
      "type": "function",
      "name": "setMainFundingManager",
      "inputs": [
        {
          "name": "_mainFundingManager",
          "type": "address",
          "internalType": "address"
        }
      ],
      "outputs": [],
      "stateMutability": "nonpayable"
    },
    {
      "type": "function",
      "name": "setMutableInitialMintAmount",
      "inputs": [
        {
          "name": "_mutableInitialMintAmount",
          "type": "uint256",
          "internalType": "uint256"
        }
      ],
      "outputs": [],
      "stateMutability": "nonpayable"
    },
    {
      "type": "function",
      "name": "setStakingModuleMetadata",
      "inputs": [
        {
          "name": "_stakingModuleMetadata",
          "type": "tuple",
          "internalType": "struct IMigrating_PIM_Factory_v1.LM_PC_Staking_v1_Metadata",
          "components": [
            {
              "name": "majorVersion",
              "type": "uint256",
              "internalType": "uint256"
            },
            {
              "name": "minorVersion",
              "type": "uint256",
              "internalType": "uint256"
            },
            {
              "name": "patchVersion",
              "type": "uint256",
              "internalType": "uint256"
            },
            {
              "name": "url",
              "type": "string",
              "internalType": "string"
            }
          ]
        }
      ],
      "outputs": [],
      "stateMutability": "nonpayable"
    },
    {
      "type": "function",
      "name": "stakingModuleMetadata",
      "inputs": [],
      "outputs": [
        {
          "name": "majorVersion",
          "type": "uint256",
          "internalType": "uint256"
        },
        {
          "name": "minorVersion",
          "type": "uint256",
          "internalType": "uint256"
        },
        {
          "name": "patchVersion",
          "type": "uint256",
          "internalType": "uint256"
        },
        {
          "name": "url",
          "type": "string",
          "internalType": "string"
        }
      ],
      "stateMutability": "view"
    },
    {
      "type": "function",
      "name": "trustedForwarder",
      "inputs": [],
      "outputs": [
        {
          "name": "",
          "type": "address",
          "internalType": "address"
        }
      ],
      "stateMutability": "view"
    },
    {
      "type": "function",
      "name": "withdrawAllProjectCollateralFeesToStaking",
      "inputs": [],
      "outputs": [],
      "stateMutability": "nonpayable"
    },
    {
      "type": "event",
      "name": "AdminChanged",
      "inputs": [
        {
          "name": "oldAdmin",
          "type": "address",
          "indexed": true,
          "internalType": "address"
        },
        {
          "name": "newAdmin",
          "type": "address",
          "indexed": true,
          "internalType": "address"
        }
      ],
      "anonymous": false
    },
    {
      "type": "event",
      "name": "CollateralFeeMultiplierChanged",
      "inputs": [
        {
          "name": "oldMultiplier",
          "type": "uint256",
          "indexed": false,
          "internalType": "uint256"
        },
        {
          "name": "newMultiplier",
          "type": "uint256",
          "indexed": false,
          "internalType": "uint256"
        }
      ],
      "anonymous": false
    },
    {
      "type": "event",
      "name": "Graduation",
      "inputs": [
        {
          "name": "orchestrator",
          "type": "address",
          "indexed": true,
          "internalType": "address"
        },
        {
          "name": "pool",
          "type": "address",
          "indexed": true,
          "internalType": "address"
        },
        {
          "name": "issuanceTokenAmount",
          "type": "uint256",
          "indexed": false,
          "internalType": "uint256"
        },
        {
          "name": "collateralTokenAmount",
          "type": "uint256",
          "indexed": false,
          "internalType": "uint256"
        }
      ],
      "anonymous": false
    },
    {
      "type": "event",
      "name": "IssuanceFeeMultiplierChanged",
      "inputs": [
        {
          "name": "oldMultiplier",
          "type": "uint256",
          "indexed": false,
          "internalType": "uint256"
        },
        {
          "name": "newMultiplier",
          "type": "uint256",
          "indexed": false,
          "internalType": "uint256"
        }
      ],
      "anonymous": false
    },
    {
      "type": "event",
      "name": "MainFundingManagerChanged",
      "inputs": [
        {
          "name": "oldMainFundingManager",
          "type": "address",
          "indexed": true,
          "internalType": "address"
        },
        {
          "name": "newMainFundingManager",
          "type": "address",
          "indexed": true,
          "internalType": "address"
        }
      ],
      "anonymous": false
    },
    {
      "type": "event",
      "name": "MutableInitialMintAmountChanged",
      "inputs": [
        {
          "name": "oldAmount",
          "type": "uint256",
          "indexed": false,
          "internalType": "uint256"
        },
        {
          "name": "newAmount",
          "type": "uint256",
          "indexed": false,
          "internalType": "uint256"
        }
      ],
      "anonymous": false
    },
    {
      "type": "event",
      "name": "PIMWorkflowCreated",
      "inputs": [
        {
          "name": "orchestrator",
          "type": "address",
          "indexed": true,
          "internalType": "address"
        },
        {
          "name": "issuanceToken",
          "type": "address",
          "indexed": true,
          "internalType": "address"
        },
        {
          "name": "deployer",
          "type": "address",
          "indexed": true,
          "internalType": "address"
        },
        {
          "name": "collateralToken",
          "type": "address",
          "indexed": false,
          "internalType": "address"
        },
        {
          "name": "initiator",
          "type": "address",
          "indexed": false,
          "internalType": "address"
        },
        {
          "name": "migrationConfig_",
          "type": "tuple",
          "indexed": false,
          "internalType": "struct IMigrating_PIM_Factory_v1.MigrationConfig",
          "components": [
            {
              "name": "isImmutable",
              "type": "bool",
              "internalType": "bool"
            },
            {
              "name": "migrationThreshold",
              "type": "uint256",
              "internalType": "uint256"
            },
            {
              "name": "dexAdapter",
              "type": "address",
              "internalType": "address"
            },
            {
              "name": "lpTokenRecipient",
              "type": "address",
              "internalType": "address"
            }
          ]
        }
      ],
      "anonymous": false
    },
    {
      "type": "event",
      "name": "StakingModuleMetadataChanged",
      "inputs": [
        {
          "name": "oldMetadata",
          "type": "tuple",
          "indexed": false,
          "internalType": "struct IMigrating_PIM_Factory_v1.LM_PC_Staking_v1_Metadata",
          "components": [
            {
              "name": "majorVersion",
              "type": "uint256",
              "internalType": "uint256"
            },
            {
              "name": "minorVersion",
              "type": "uint256",
              "internalType": "uint256"
            },
            {
              "name": "patchVersion",
              "type": "uint256",
              "internalType": "uint256"
            },
            {
              "name": "url",
              "type": "string",
              "internalType": "string"
            }
          ]
        },
        {
          "name": "newMetadata",
          "type": "tuple",
          "indexed": false,
          "internalType": "struct IMigrating_PIM_Factory_v1.LM_PC_Staking_v1_Metadata",
          "components": [
            {
              "name": "majorVersion",
              "type": "uint256",
              "internalType": "uint256"
            },
            {
              "name": "minorVersion",
              "type": "uint256",
              "internalType": "uint256"
            },
            {
              "name": "patchVersion",
              "type": "uint256",
              "internalType": "uint256"
            },
            {
              "name": "url",
              "type": "string",
              "internalType": "string"
            }
          ]
        }
      ],
      "anonymous": false
    },
    {
      "type": "error",
      "name": "AddressEmptyCode",
      "inputs": [
        {
          "name": "target",
          "type": "address",
          "internalType": "address"
        }
      ]
    },
    {
      "type": "error",
      "name": "AddressInsufficientBalance",
      "inputs": [
        {
          "name": "account",
          "type": "address",
          "internalType": "address"
        }
      ]
    },
    {
      "type": "error",
      "name": "FailedInnerCall",
      "inputs": []
    },
    {
      "type": "error",
      "name": "PIM_WorkflowFactory__CantBeZeroAddress",
      "inputs": []
    },
    {
      "type": "error",
      "name": "PIM_WorkflowFactory__InitialPurchaseGraduatesMarket",
      "inputs": []
    },
    {
      "type": "error",
      "name": "PIM_WorkflowFactory__OnlyAdmin",
      "inputs": []
    },
    {
      "type": "error",
      "name": "PIM_WorkflowFactory__OnlyInitiatorAfterGraduation",
      "inputs": []
    },
    {
      "type": "error",
      "name": "SafeERC20FailedOperation",
      "inputs": [
        {
          "name": "token",
          "type": "address",
          "internalType": "address"
        }
      ]
    }
  ],
  "bytecode": {
    "object": "0x60c06040523480156200001157600080fd5b506040516200554438038062005544833981016040819052620000349162000174565b6001600160a01b0380831660805283166200006257604051638b22004360e01b815260040160405180910390fd5b6001600160a01b0381166200008a57604051638b22004360e01b815260040160405180910390fd5b826001600160a01b031660a0816001600160a01b031681525050806000806101000a8154816001600160a01b0302191690836001600160a01b0316021790555060405180608001604052806001815260200160008152602001600081526020016040518060600160405280602c815260200162005518602c913990528051600290815560208201516003556040820151600455606082015160059062000131908262000265565b50506aa56fa5b99019a5c800000060065550506000600781905560085550620003319050565b80516001600160a01b03811681146200016f57600080fd5b919050565b6000806000606084860312156200018a57600080fd5b620001958462000157565b9250620001a56020850162000157565b9150620001b56040850162000157565b90509250925092565b634e487b7160e01b600052604160045260246000fd5b600181811c90821680620001e957607f821691505b6020821081036200020a57634e487b7160e01b600052602260045260246000fd5b50919050565b601f82111562000260576000816000526020600020601f850160051c810160208610156200023b5750805b601f850160051c820191505b818110156200025c5782815560010162000247565b5050505b505050565b81516001600160401b03811115620002815762000281620001be565b6200029981620002928454620001d4565b8462000210565b602080601f831160018114620002d15760008415620002b85750858301515b600019600386901b1c1916600185901b1785556200025c565b600085815260208120601f198616915b828110156200030257888601518255948401946001909101908401620002e1565b5085821015620003215787850151600019600388901b60f8161c191681555b5050505050600190811b01905550565b60805160a0516151ac6200036c6000396000818161036601526115620152600081816103b201528181610461015261216801526151ac6000f3fe60806040523480156200001157600080fd5b5060043610620001c55760003560e01c8063704b6c021162000101578063b96086d911620000a3578063de78c729116200007a578063de78c7291462000509578063f402c2bb146200053b578063f6819293146200056f578063f851a440146200058657600080fd5b8063b96086d914620004a7578063ce7c83dd14620004c3578063d835422214620004da57600080fd5b80637da0a87711620000d85780637da0a877146200045f57806380165151146200048657806393f3721f146200049d57600080fd5b8063704b6c02146200041a5780637715db6f14620004315780637b542b71146200044857600080fd5b80632f36a25d116200016b5780635eecade611620001425780635eecade614620003e25780635fb0992d14620003ec5780636daf301a146200040357600080fd5b80632f36a25d14620003605780633cd275451462000388578063572b6c05146200039f57600080fd5b80631248c80311620001a05780631248c80314620002205780631615f65714620002605780631cfcc51c146200034957600080fd5b806303828e7e14620001ca57806309bc630014620001fb5780630f25247e1462000207575b600080fd5b600154620001de906001600160a01b031681565b6040516001600160a01b0390911681526020015b60405180910390f35b620002056200059a565b005b6200021160085481565b604051908152602001620001f2565b6200024f620002313660046200332b565b6001600160a01b031660009081526009602052604090205460ff1690565b6040519015158152602001620001f2565b620002e5620002713660046200332b565b6009602081905260009182526040909120805460018201546002830154600384015460048501546005860154600687015460078801546008890154989099015460ff8089169a610100909904169896976001600160a01b03968716979587169694851695938516949293909290811691168b565b604080519b15158c5299151560208c0152988a01979097526001600160a01b0395861660608a0152938516608089015291841660a0880152831660c087015260e08601526101008501529081166101208401521661014082015261016001620001f2565b620002056200035a3660046200334b565b620005f1565b620001de7f000000000000000000000000000000000000000000000000000000000000000081565b62000205620003993660046200332b565b62000663565b6200024f620003b03660046200332b565b7f00000000000000000000000000000000000000000000000000000000000000006001600160a01b0390811691161490565b6200021160075481565b62000205620003fd3660046200334b565b62000716565b620001de62000414366004620037d4565b62000781565b620002056200042b3660046200332b565b62000968565b6200020562000442366004620038e8565b62000a19565b620001de620004593660046200334b565b62000b71565b7f0000000000000000000000000000000000000000000000000000000000000000620001de565b62000205620004973660046200334b565b62000b9c565b6200021160065481565b620004b162000c07565b604051620001f29493929190620039cf565b62000205620004d436600462003a00565b62000cb0565b62000211620004eb3660046200332b565b6001600160a01b031660009081526009602052604090206001015490565b620001de6200051a3660046200332b565b6001600160a01b039081166000908152600960205260409020600401541690565b6200024f6200054c3660046200332b565b6001600160a01b0316600090815260096020526040902054610100900460ff1690565b620002056200058036600462003a00565b62000dbe565b600054620001de906001600160a01b031681565b600a5460005b81811015620005ed576000600a8281548110620005c157620005c162003a4b565b6000918252602090912001546001600160a01b03169050620005e38162001026565b50600101620005a0565b5050565b6000546001600160a01b031633146200061d5760405163d27a836960e01b815260040160405180910390fd5b600880549082905560408051828152602081018490527f3866b8dabb97b03bbd9d436e5e08ffd81040a58fd71346e8fa31d305dc40ae8e91015b60405180910390a15050565b6000546001600160a01b031633146200068f5760405163d27a836960e01b815260040160405180910390fd5b6001600160a01b038116620006b757604051638b22004360e01b815260040160405180910390fd5b600180546001600160a01b0383811673ffffffffffffffffffffffffffffffffffffffff19831681179093556040519116919082907f87a30098057761fae11f6c0b0e80e80f125fc9b7dfb701af1eee15c074dc3a1590600090a35050565b6000546001600160a01b03163314620007425760405163d27a836960e01b815260040160405180910390fd5b600680549082905560408051828152602081018490527f8f2ebd7f59fb1b242878f742a52a12121bb3a73205436bbbe9a8a291ee21c2eb910162000657565b6000806200079485846000015162001168565b90506000806000620007b08d8d8d8d8d898c6000015162001262565b9250925092506000836001600160a01b03166304baed9e6040518163ffffffff1660e01b8152600401602060405180830381865afa158015620007f7573d6000803e3d6000fd5b505050506040513d601f19601f820116820180604052508101906200081d919062003a61565b9050600087600001516200083657876060015162000839565b60005b90506200084a8286868b85620016c1565b60405163cf456ae760e01b81526001600160a01b0383811660048301526001602483015287169063cf456ae790604401600060405180830381600087803b1580156200089557600080fd5b505af1158015620008aa573d6000803e3d6000fd5b50505050620008b98262001bfd565b620008cc82848b878c60200151620020bd565b620008d662002161565b604080516001600160a01b0386811682528781166020808401919091528c511515838501528c0151606080840191909152928c015181166080830152918b0151821660a082015291811691888216918816907ff3a31cb79568cc2c523dcd7467e718e402436fc2e2aecd9cb74fea01f99224b19060c00160405180910390a450929d9c50505050505050505050505050565b6000546001600160a01b03163314620009945760405163d27a836960e01b815260040160405180910390fd5b6001600160a01b038116620009bc57604051638b22004360e01b815260040160405180910390fd5b600080546001600160a01b0383811673ffffffffffffffffffffffffffffffffffffffff19831681178455604051919092169283917f7e644d79422f17c01e4894b5f4f588d331ebfa28653d42ae832dc59e38c9798f9190a35050565b6000546001600160a01b0316331462000a455760405163d27a836960e01b815260040160405180910390fd5b604080516080810182526002805482526003546020830152600454928201929092526005805460009391606084019162000a7f9062003a81565b80601f016020809104026020016040519081016040528092919081815260200182805462000aad9062003a81565b801562000afe5780601f1062000ad25761010080835404028352916020019162000afe565b820191906000526020600020905b81548152906001019060200180831162000ae057829003601f168201915b50505091909252505083516002908155602085015160035560408501516004556060850151929350849290915060059062000b3a908262003b11565b509050507f2f9d73a6edf64f66aeba6d81f7ca64653deffd27373303ea29d41425737d893481836040516200065792919062003c1b565b600a818154811062000b8257600080fd5b6000918252602090912001546001600160a01b0316905081565b6000546001600160a01b0316331462000bc85760405163d27a836960e01b815260040160405180910390fd5b600780549082905560408051828152602081018490527f39b96ff2d0362a4b876c9491016124dfa0205c89dcf9943922947954dc4ed248910162000657565b60028054600354600454600580549394929391929162000c279062003a81565b80601f016020809104026020016040519081016040528092919081815260200182805462000c559062003a81565b801562000ca65780601f1062000c7a5761010080835404028352916020019162000ca6565b820191906000526020600020905b81548152906001019060200180831162000c8857829003601f168201915b5050505050905084565b60008490506000816001600160a01b0316631ca3bc4f6040518163ffffffff1660e01b8152600401602060405180830381865afa15801562000cf6573d6000803e3d6000fd5b505050506040513d601f19601f8201168201806040525081019062000d1c919062003a61565b905062000d356001600160a01b038216333087620021de565b62000d4b6001600160a01b038216878662002262565b6040516362d93eef60e11b81526001600160a01b038681166004830152602482018690526044820185905283169063c5b27dde90606401600060405180830381600087803b15801562000d9d57600080fd5b505af115801562000db2573d6000803e3d6000fd5b50505050505050505050565b6001600160a01b038085166000818152600960208181526040808420815161016081018352815460ff8082161515835261010091829004161515828601526001830154828501526002830154891660608301526003830154891660808301526004808401548a1660a084015260058401548a1660c0840152600684015460e08401526007840154918301919091526008830154891661012083015291909401549096166101408401528051637e062a3560e11b8152905192958a959363fc0c546a93838301939092908290030181865afa15801562000ea1573d6000803e3d6000fd5b505050506040513d601f19601f8201168201806040525081019062000ec7919062003a61565b9050600062000ed78887620022f3565b905080156200101c5762000ef76001600160a01b038316333084620021de565b62000f0d6001600160a01b038316898362002262565b60008662000f1c838862003c6c565b62000f28919062003c86565b60405163935b7dbd60e01b81526001600160a01b038a8116600483015260248201859052604482018390529192509085169063935b7dbd90606401600060405180830381600087803b15801562000f7e57600080fd5b505af115801562000f93573d6000803e3d6000fd5b5050505060408581015190516370a0823160e01b81526001600160a01b038b811660048301528516906370a0823190602401602060405180830381865afa15801562000fe3573d6000803e3d6000fd5b505050506040513d601f19601f8201168201806040525081019062001009919062003ca9565b106200101a576200101a89620026b5565b505b5050505050505050565b6001546001600160a01b03166200103a5750565b6001600160a01b03811660009081526009602052604090205460ff16156200105f5750565b60008190506000816001600160a01b031663cbda8f826040518163ffffffff1660e01b8152600401602060405180830381865afa158015620010a5573d6000803e3d6000fd5b505050506040513d601f19601f82011682018060405250810190620010cb919062003ca9565b905080600003620010db57505050565b6001546001600160a01b039081166000908152600960205260409020600801541680620011085750505050565b6040516327c49ddd60e11b81526001600160a01b03828116600483015260248201849052841690634f893bba90604401600060405180830381600087803b1580156200115357600080fd5b505af11580156200101c573d6000803e3d6000fd5b6000808360000151846020015185604001518660600151306040516200118e90620032bc565b6200119e95949392919062003cc3565b604051809103906000f080158015620011bb573d6000803e3d6000fd5b50905082158015620011d757506000546001600160a01b031615155b8015620011e657506000600654115b1562001259576000546006546040516340c10f1960e01b81526001600160a01b0392831660048201526024810191909152908216906340c10f1990604401600060405180830381600087803b1580156200123f57600080fd5b505af115801562001254573d6000803e3d6000fd5b505050505b90505b92915050565b600080600080886020015190508080602001905181019062001285919062003a61565b604080513060208201529194500160408051601f1981840301815291815260208b8101929092528051610120810182526000808252928101839052908101829052606081018290526080810182905260a0810182905260c0810182905260e081018290526101008101919091526020808c0151805190916200130e918301810190830162003d38565b6040519096509093506200132c915089908490879060200162003e1e565b60408051601f1981840301815291905260208d01526000876200135e5789516200135890600162003ecc565b62001361565b89515b67ffffffffffffffff8111156200137c576200137c62003365565b604051908082528060200260200182016040528015620013b957816020015b620013a5620032ca565b8152602001906001900390816200139b5790505b50905060005b8a518110156200140f578a8181518110620013de57620013de62003a4b565b6020026020010151828281518110620013fb57620013fb62003a4b565b6020908102919091010152600101620013bf565b508762001560576040805160e081018252600254918101918252600354606082015260045460808201526005805491928392909160a0840191620014539062003a81565b80601f0160208091040260200160405190810160405280929190818152602001828054620014819062003a81565b8015620014d25780601f10620014a657610100808354040283529160200191620014d2565b820191906000526020600020905b815481529060010190602001808311620014b457829003601f168201915b5050509183525050604080518082018252601081527f4c4d5f50435f5374616b696e675f7631000000000000000000000000000000006020828101919091529283015291835281516001600160a01b038e168183015292019101604051602081830303815290604052815250818b518151811062001554576200155462003a4b565b60200260200101819052505b7f00000000000000000000000000000000000000000000000000000000000000006001600160a01b031663ff2676998f8f8f8f866040518663ffffffff1660e01b8152600401620015b695949392919062003f5c565b6020604051808303816000875af1158015620015d6573d6000803e3d6000fd5b505050506040513d601f19601f82011682018060405250810190620015fc919062003a61565b6001549097506001600160a01b031615801562001617575087155b15620016b057866001600160a01b03166304baed9e6040518163ffffffff1660e01b8152600401602060405180830381865afa1580156200165c573d6000803e3d6000fd5b505050506040513d601f19601f8201168201806040525081019062001682919062003a61565b6001805473ffffffffffffffffffffffffffffffffffffffff19166001600160a01b03929092169190911790555b505050509750975097945050505050565b60008590506000856001600160a01b0316634cfa64876040518163ffffffff1660e01b8152600401600060405180830381865afa15801562001707573d6000803e3d6000fd5b505050506040513d6000823e601f3d908101601f191682016040526200173191908101906200401e565b90506000805b8251811015620017ef5782818151811062001756576200175662003a4b565b60200260200101516001600160a01b03166346ebcacf6040518163ffffffff1660e01b8152600401602060405180830381865afa925050508015620017ba575060408051601f3d908101601f19168201909252620017b79181019062003ca9565b60015b15620017e65750828181518110620017d657620017d662003a4b565b60200260200101519150620017ef565b60010162001737565b508451600090620018b75760005b8351811015620018b5578381815181106200181c576200181c62003a4b565b60200260200101516001600160a01b0316637b0a47ee6040518163ffffffff1660e01b8152600401602060405180830381865afa92505050801562001880575060408051601f3d908101601f191682019092526200187d9181019062003ca9565b60015b15620018ac57508381815181106200189c576200189c62003a4b565b60200260200101519150620018b5565b600101620017fd565b505b60405180610160016040528060001515815260200187600001511515815260200187602001518152602001886001600160a01b0316815260200187604001516001600160a01b03168152602001866001600160a01b03168152602001896001600160a01b03168152602001856001600160a01b031663d1c6022f6040518163ffffffff1660e01b8152600401602060405180830381865afa15801562001961573d6000803e3d6000fd5b505050506040513d601f19601f8201168201806040525081019062001987919062003ca9565b8152602001856001600160a01b031663bf75292b6040518163ffffffff1660e01b8152600401602060405180830381865afa158015620019cb573d6000803e3d6000fd5b505050506040513d601f19601f82011682018060405250810190620019f1919062003ca9565b8152602001826001600160a01b03168152602001836001600160a01b0316815250600960008b6001600160a01b03166001600160a01b0316815260200190815260200160002060008201518160000160006101000a81548160ff02191690831515021790555060208201518160000160016101000a81548160ff0219169083151502179055506040820151816001015560608201518160020160006101000a8154816001600160a01b0302191690836001600160a01b0316021790555060808201518160030160006101000a8154816001600160a01b0302191690836001600160a01b0316021790555060a08201518160040160006101000a8154816001600160a01b0302191690836001600160a01b0316021790555060c08201518160050160006101000a8154816001600160a01b0302191690836001600160a01b0316021790555060e0820151816006015561010082015181600701556101208201518160080160006101000a8154816001600160a01b0302191690836001600160a01b031602179055506101408201518160090160006101000a8154816001600160a01b0302191690836001600160a01b03160217905550905050600a899080600181540180825580915050600190039060005260206000200160009091909190916101000a8154816001600160a01b0302191690836001600160a01b03160217905550505050505050505050565b6001600160a01b038082166000818152600960208181526040808420815161016081018352815460ff8082161515835261010091829004161515828601526001830154828501526002830154891660608301526003830154891660808301526004808401548a1660a084015260058401548a1660c0840152600684015460e084015260078401549183019190915260088301548916610120830152919094015490961661014084018190528151631ca3bc4f60e01b81529151939690958895949093631ca3bc4f9380840193919291908290030181865afa15801562001ce7573d6000803e3d6000fd5b505050506040513d601f19601f8201168201806040525081019062001d0d919062003a61565b9050836020015162001ec4578360c001516001600160a01b031663d09edf316040518163ffffffff1660e01b8152600401602060405180830381865afa15801562001d5c573d6000803e3d6000fd5b505050506040513d601f19601f8201168201806040525081019062001d82919062003a61565b6001600160a01b0316632f2ff15d8560c001516001600160a01b031663d09edf316040518163ffffffff1660e01b8152600401602060405180830381865afa15801562001dd3573d6000803e3d6000fd5b505050506040513d601f19601f8201168201806040525081019062001df9919062003a61565b6001600160a01b031663b3ecf2366040518163ffffffff1660e01b8152600401602060405180830381865afa15801562001e37573d6000803e3d6000fd5b505050506040513d601f19601f8201168201806040525081019062001e5d919062003ca9565b60608701516040516001600160e01b031960e085901b16815260048101929092526001600160a01b03166024820152604401600060405180830381600087803b15801562001eaa57600080fd5b505af115801562001ebf573d6000803e3d6000fd5b505050505b60405163cf456ae760e01b8152306004820152600160248201526001600160a01b0382169063cf456ae790604401600060405180830381600087803b15801562001f0d57600080fd5b505af115801562001f22573d6000803e3d6000fd5b50505050816001600160a01b0316636c67e807836001600160a01b0316637feb48a16040518163ffffffff1660e01b8152600401602060405180830381865afa15801562001f74573d6000803e3d6000fd5b505050506040513d601f19601f8201168201806040525081019062001f9a919062003ca9565b6040516001600160e01b031960e084901b1681526004810191909152306024820152604401600060405180830381600087803b15801562001fda57600080fd5b505af115801562001fef573d6000803e3d6000fd5b50505050826001600160a01b0316636c67e807846001600160a01b03166346ebcacf6040518163ffffffff1660e01b8152600401602060405180830381865afa15801562002041573d6000803e3d6000fd5b505050506040513d601f19601f8201168201806040525081019062002067919062003ca9565b6040516001600160e01b031960e084901b16815260048101919091523060248201526044015b600060405180830381600087803b158015620020a857600080fd5b505af11580156200101a573d6000803e3d6000fd5b80831115620020df5760405163262cabc360e21b815260040160405180910390fd5b82156200215a5762002107620020f462002161565b6001600160a01b038616903086620021de565b6200211d6001600160a01b038516868562002262565b60405163935b7dbd60e01b81526001600160a01b038381166004830152602482018590526001604483015286169063935b7dbd906064016200208d565b5050505050565b60003660147f00000000000000000000000000000000000000000000000000000000000000006001600160a01b0316331480156200219f5750808210155b15620021d657600036620021b48385620040c3565b620021c1928290620040d9565b620021cc9162004105565b60601c9250505090565b339250505090565b6040516001600160a01b0384811660248301528381166044830152606482018390526200225c9186918216906323b872dd906084015b604051602081830303815290604052915060e01b6020820180517bffffffffffffffffffffffffffffffffffffffffffffffffffffffff838183161783525050505062002f71565b50505050565b604051636eb1769f60e11b81523060048201526001600160a01b0383811660248301526000919085169063dd62ed3e90604401602060405180830381865afa158015620022b3573d6000803e3d6000fd5b505050506040513d601f19601f82011682018060405250810190620022d9919062003ca9565b90506200225c8484620022ed858562003ecc565b62002fe4565b6001600160a01b038083166000908152600960208181526040808420815161016081018352815460ff808216151583526101009182900416151582860152600183015482850152600283015488166060830152600383015488166080830152600480840154891660a08401526005840154891660c08401819052600685015460e0850152600785015492840192909252600884015489166101208401529290950154909616610140870152815163030d028960e21b81529151949594869493630c340a249380840193919291908290030181865afa158015620023da573d6000803e3d6000fd5b505050506040513d601f19601f8201168201806040525081019062002400919062003a61565b6001600160a01b031663f2d638266040518163ffffffff1660e01b8152600401602060405180830381865afa1580156200243e573d6000803e3d6000fd5b505050506040513d601f19601f8201168201806040525081019062002464919062003a61565b905060008590506000816001600160a01b031663fc0c546a6040518163ffffffff1660e01b8152600401602060405180830381865afa158015620024ac573d6000803e3d6000fd5b505050506040513d601f19601f82011682018060405250810190620024d2919062003a61565b6040516370a0823160e01b81526001600160a01b0389811660048301529192506000918316906370a0823190602401602060405180830381865afa1580156200251f573d6000803e3d6000fd5b505050506040513d601f19601f8201168201806040525081019062002545919062003ca9565b90506000846001600160a01b0316631a3e87336040518163ffffffff1660e01b8152600401602060405180830381865afa15801562002588573d6000803e3d6000fd5b505050506040513d601f19601f82011682018060405250810190620025ae919062003ca9565b90506000846001600160a01b031663470624026040518163ffffffff1660e01b8152600401602060405180830381865afa158015620025f1573d6000803e3d6000fd5b505050506040513d601f19601f8201168201806040525081019062002617919062003ca9565b9050600062002627828462003ecc565b905060006127106200263a838d62003c6c565b62002646919062003c86565b9050600062002656828d620040c3565b9050600062002666828862003ecc565b90508a60400151811115620026a05760008b6040015182620026899190620040c3565b905062002697818f620040c3565b9c5050620026a4565b8c9b505b505050505050505050505092915050565b6001600160a01b038082166000818152600960208181526040808420815161016081018352815460ff8082161515835261010091829004161515828601526001830154828501526002830154891660608301526003830154891660808301526004808401548a1660a084015260058401548a1660c0840152600684015460e084015260078401549183019190915260088301548916610120830152919094015490961661014084018190528151637e062a3560e11b8152915193969095889594909363fc0c546a9380840193919291908290030181865afa1580156200279f573d6000803e3d6000fd5b505050506040513d601f19601f82011682018060405250810190620027c5919062003a61565b90506000826001600160a01b0316631ca3bc4f6040518163ffffffff1660e01b8152600401602060405180830381865afa15801562002808573d6000803e3d6000fd5b505050506040513d601f19601f820116820180604052508101906200282e919062003a61565b90506000836001600160a01b031663cbda8f826040518163ffffffff1660e01b8152600401602060405180830381865afa15801562002871573d6000803e3d6000fd5b505050506040513d601f19601f8201168201806040525081019062002897919062003ca9565b6040516370a0823160e01b81526001600160a01b0389811660048301528516906370a0823190602401602060405180830381865afa158015620028de573d6000803e3d6000fd5b505050506040513d601f19601f8201168201806040525081019062002904919062003ca9565b620029109190620040c3565b905060006127106007548362002927919062003c6c565b62002933919062003c86565b604051638028b82f60e01b81523060048201526001600160a01b038681166024830152604482018590526000606483018190526084830181905260a483015291925090871690638028b82f9060c401600060405180830381600087803b1580156200299d57600080fd5b505af1158015620029b2573d6000803e3d6000fd5b505050508082620029c49190620040c3565b6080880151909250620029e3906001600160a01b038616908462003090565b600054620029ff906001600160a01b0386811691168362003090565b62002a0a8862001026565b6000836001600160a01b031663355274ea6040518163ffffffff1660e01b8152600401602060405180830381865afa15801562002a4b573d6000803e3d6000fd5b505050506040513d601f19601f8201168201806040525081019062002a71919062003ca9565b90506000846001600160a01b03166318160ddd6040518163ffffffff1660e01b8152600401602060405180830381865afa15801562002ab4573d6000803e3d6000fd5b505050506040513d601f19601f8201168201806040525081019062002ada919062003ca9565b9050600062002aea8284620040c3565b905060006127106008548362002b01919062003c6c565b62002b0d919062003c86565b905062002b1b8183620040c3565b91506001600160a01b0387166340c10f193062002b39848662003ecc565b6040516001600160e01b031960e085901b1681526001600160a01b0390921660048301526024820152604401600060405180830381600087803b15801562002b8057600080fd5b505af115801562002b95573d6000803e3d6000fd5b50505060808c015162002bb591506001600160a01b038916908462003090565b60005462002bd1906001600160a01b0389811691168362003090565b886001600160a01b031663c6ab5cdc6040518163ffffffff1660e01b8152600401600060405180830381600087803b15801562002c0d57600080fd5b505af115801562002c22573d6000803e3d6000fd5b50505050886001600160a01b031663ba83c9706040518163ffffffff1660e01b8152600401600060405180830381600087803b15801562002c6257600080fd5b505af115801562002c77573d6000803e3d6000fd5b50505060808c015160a08d01516040516332092e4f60e21b81526001600160a01b038c811660048301528b8116602483015291821660448201526000935091169063c824b93c906064016020604051808303816000875af115801562002ce1573d6000803e3d6000fd5b505050506040513d601f19601f8201168201806040525081019062002d07919062003a61565b9050876001600160a01b031663715018a66040518163ffffffff1660e01b8152600401600060405180830381600087803b15801562002d4557600080fd5b505af115801562002d5a573d6000803e3d6000fd5b5050505060018c60000190151590811515815250508b600960008f6001600160a01b03166001600160a01b0316815260200190815260200160002060008201518160000160006101000a81548160ff02191690831515021790555060208201518160000160016101000a81548160ff0219169083151502179055506040820151816001015560608201518160020160006101000a8154816001600160a01b0302191690836001600160a01b0316021790555060808201518160030160006101000a8154816001600160a01b0302191690836001600160a01b0316021790555060a08201518160040160006101000a8154816001600160a01b0302191690836001600160a01b0316021790555060c08201518160050160006101000a8154816001600160a01b0302191690836001600160a01b0316021790555060e0820151816006015561010082015181600701556101208201518160080160006101000a8154816001600160a01b0302191690836001600160a01b031602179055506101408201518160090160006101000a8154816001600160a01b0302191690836001600160a01b03160217905550905050806001600160a01b03168c60c001516001600160a01b03167feddae9d2e53c54be02851320408790594a59dcb6ff5ab585cd8e04cd7c5373e9858a60405162002f5a929190918252602082015260400190565b60405180910390a350505050505050505050505050565b600062002f886001600160a01b03841683620030c3565b9050805160001415801562002fb057508080602001905181019062002fae91906200413b565b155b1562002fdf57604051635274afe760e01b81526001600160a01b03841660048201526024015b60405180910390fd5b505050565b604080516001600160a01b038416602482015260448082018490528251808303909101815260649091019091526020810180517bffffffffffffffffffffffffffffffffffffffffffffffffffffffff1663095ea7b360e01b1790526200304c8482620030d3565b6200225c576040516001600160a01b038481166024830152600060448301526200308491869182169063095ea7b39060640162002214565b6200225c848262002f71565b6040516001600160a01b0383811660248301526044820183905262002fdf91859182169063a9059cbb9060640162002214565b6060620012598383600062003184565b6000806000846001600160a01b031684604051620030f291906200415b565b6000604051808303816000865af19150503d806000811462003131576040519150601f19603f3d011682016040523d82523d6000602084013e62003136565b606091505b509150915081801562003164575080511580620031645750808060200190518101906200316491906200413b565b80156200317b57506000856001600160a01b03163b115b95945050505050565b606081471015620031ab5760405163cd78605960e01b815230600482015260240162002fd6565b600080856001600160a01b03168486604051620031c991906200415b565b60006040518083038185875af1925050503d806000811462003208576040519150601f19603f3d011682016040523d82523d6000602084013e6200320d565b606091505b50915091506200321f8683836200322b565b925050505b9392505050565b60608262003244576200323e826200328f565b62003224565b81511580156200325c57506001600160a01b0384163b155b156200328757604051639996b31560e01b81526001600160a01b038516600482015260240162002fd6565b508062003224565b805115620032a05780518082602001fd5b604051630a12f52160e11b815260040160405180910390fd5b50565b610ffd806200417a83390190565b6040518060400160405280620033086040518060a0016040528060008152602001600081526020016000815260200160608152602001606081525090565b8152602001606081525090565b6001600160a01b0381168114620032b957600080fd5b6000602082840312156200333e57600080fd5b8135620012598162003315565b6000602082840312156200335e57600080fd5b5035919050565b634e487b7160e01b600052604160045260246000fd5b6040805190810167ffffffffffffffff81118282101715620033a157620033a162003365565b60405290565b60405160a0810167ffffffffffffffff81118282101715620033a157620033a162003365565b6040516080810167ffffffffffffffff81118282101715620033a157620033a162003365565b604051610120810167ffffffffffffffff81118282101715620033a157620033a162003365565b604051601f8201601f1916810167ffffffffffffffff8111828210171562003446576200344662003365565b604052919050565b8015158114620032b957600080fd5b6000604082840312156200347057600080fd5b6200347a6200337b565b9050813562003489816200344e565b815260208201356200349b8162003315565b602082015292915050565b600082601f830112620034b857600080fd5b813567ffffffffffffffff811115620034d557620034d562003365565b620034ea601f8201601f19166020016200341a565b8181528460208386010111156200350057600080fd5b816020850160208301376000918101602001919091529392505050565b6000604082840312156200353057600080fd5b6200353a6200337b565b9050813567ffffffffffffffff808211156200355557600080fd5b9083019060a082860312156200356a57600080fd5b62003574620033a7565b8235815260208301356020820152604083013560408201526060830135828111156200359f57600080fd5b620035ad87828601620034a6565b606083015250608083013582811115620035c657600080fd5b620035d487828601620034a6565b60808301525083526020840135915080821115620035f157600080fd5b506200360084828501620034a6565b60208301525092915050565b600067ffffffffffffffff82111562003629576200362962003365565b5060051b60200190565b600082601f8301126200364557600080fd5b813560206200365e62003658836200360c565b6200341a565b82815260059290921b840181019181810190868411156200367e57600080fd5b8286015b84811015620036c357803567ffffffffffffffff811115620036a45760008081fd5b620036b48986838b01016200351d565b84525091830191830162003682565b509695505050505050565b600060808284031215620036e157600080fd5b620036eb620033cd565b9050813567ffffffffffffffff808211156200370657600080fd5b6200371485838601620034a6565b835260208401359150808211156200372b57600080fd5b506200373a84828501620034a6565b602083015250604082013560ff811681146200375557600080fd5b806040830152506060820135606082015292915050565b6000608082840312156200377f57600080fd5b62003789620033cd565b9050813562003798816200344e565b8152602082810135908201526040820135620037b48162003315565b60408201526060820135620037c98162003315565b606082015292915050565b600080600080600080600080610180898b031215620037f257600080fd5b620037fe8a8a6200345d565b9750604089013567ffffffffffffffff808211156200381c57600080fd5b6200382a8c838d016200351d565b985060608b01359150808211156200384157600080fd5b6200384f8c838d016200351d565b975060808b01359150808211156200386657600080fd5b620038748c838d016200351d565b965060a08b01359150808211156200388b57600080fd5b620038998c838d0162003633565b955060c08b0135915080821115620038b057600080fd5b50620038bf8b828c01620036ce565b93505060e08901359150620038d98a6101008b016200376c565b90509295985092959890939650565b600060208284031215620038fb57600080fd5b813567ffffffffffffffff808211156200391457600080fd5b90830190608082860312156200392957600080fd5b62003933620033cd565b8235815260208301356020820152604083013560408201526060830135828111156200395e57600080fd5b6200396c87828601620034a6565b60608301525095945050505050565b60005b83811015620039985781810151838201526020016200397e565b50506000910152565b60008151808452620039bb8160208601602086016200397b565b601f01601f19169290920160200192915050565b848152836020820152826040820152608060608201526000620039f66080830184620039a1565b9695505050505050565b6000806000806080858703121562003a1757600080fd5b843562003a248162003315565b9350602085013562003a368162003315565b93969395505050506040820135916060013590565b634e487b7160e01b600052603260045260246000fd5b60006020828403121562003a7457600080fd5b8151620012598162003315565b600181811c9082168062003a9657607f821691505b60208210810362003ab757634e487b7160e01b600052602260045260246000fd5b50919050565b601f82111562002fdf576000816000526020600020601f850160051c8101602086101562003ae85750805b601f850160051c820191505b8181101562003b095782815560010162003af4565b505050505050565b815167ffffffffffffffff81111562003b2e5762003b2e62003365565b62003b468162003b3f845462003a81565b8462003abd565b602080601f83116001811462003b7e576000841562003b655750858301515b600019600386901b1c1916600185901b17855562003b09565b600085815260208120601f198616915b8281101562003baf5788860151825594840194600190910190840162003b8e565b508582101562003bce5787850151600019600388901b60f8161c191681555b5050505050600190811b01905550565b805182526020810151602083015260408101516040830152600060608201516080606085015262003c136080850182620039a1565b949350505050565b60408152600062003c30604083018562003bde565b82810360208401526200317b818562003bde565b805162003c518162003315565b919050565b634e487b7160e01b600052601160045260246000fd5b80820281158282048414176200125c576200125c62003c56565b60008262003ca457634e487b7160e01b600052601260045260246000fd5b500490565b60006020828403121562003cbc57600080fd5b5051919050565b60a08152600062003cd860a0830188620039a1565b828103602084015262003cec8188620039a1565b60ff969096166040840152505060608101929092526001600160a01b031660809091015292915050565b805163ffffffff8116811462003c5157600080fd5b805162003c51816200344e565b600080600083850361016081121562003d5057600080fd5b845162003d5d8162003315565b9350610120601f19820181131562003d7457600080fd5b62003d7e620033f3565b915062003d8e6020870162003c44565b825262003d9e6040870162003d16565b602083015262003db16060870162003d16565b60408301526080860151606083015260a0860151608083015262003dd860c0870162003d2b565b60a083015262003deb60e0870162003d2b565b60c08301526101008681015160e08401529086015190820152915062003e15610140850162003c44565b90509250925092565b6000610160820190506001600160a01b0380861683528085511660208401525063ffffffff6020850151166040830152604084015162003e66606084018263ffffffff169052565b5060608401516080830152608084015160a083015260a084015162003e8f60c084018215159052565b5060c084015180151560e08401525060e0840151610100838101919091528401516101208301526001600160a01b03831661014083015262003c13565b808201808211156200125c576200125c62003c56565b6000815160408452805160408501526020810151606085015260408101516080850152606081015160a08086015262003f1f60e0860182620039a1565b905060808201519150603f198582030160c086015262003f408183620039a1565b915050602083015184820360208601526200317b8282620039a1565b855115158152600060206001600160a01b0381890151168184015260c0604084015262003f8d60c084018862003ee2565b838103606085015262003fa1818862003ee2565b9050838103608085015262003fb7818762003ee2565b905083810360a08501528085518083528383019150838160051b84010184880160005b838110156200400c57601f1986840301855262003ff983835162003ee2565b9487019492509086019060010162003fda565b50909c9b505050505050505050505050565b600060208083850312156200403257600080fd5b825167ffffffffffffffff8111156200404a57600080fd5b8301601f810185136200405c57600080fd5b80516200406d62003658826200360c565b81815260059190911b820183019083810190878311156200408d57600080fd5b928401925b82841015620040b8578351620040a88162003315565b8252928401929084019062004092565b979650505050505050565b818103818111156200125c576200125c62003c56565b60008085851115620040ea57600080fd5b83861115620040f857600080fd5b5050820193919092039150565b6bffffffffffffffffffffffff198135818116916014851015620041335780818660140360031b1b83161692505b505092915050565b6000602082840312156200414e57600080fd5b815162001259816200344e565b600082516200416f8184602087016200397b565b919091019291505056fe60c06040523480156200001157600080fd5b5060405162000ffd38038062000ffd833981016040819052620000349162000254565b80828686600362000046838262000395565b50600462000055828262000395565b50505080600003620000825760405163392e1e2760e01b8152600060048201526024015b60405180910390fd5b6080526001600160a01b038116620000b157604051631e4fbdf760e01b81526000600482015260240162000079565b620000bc81620000db565b50620000ca8160016200012d565b505060ff1660a05250620004619050565b600580546001600160a01b038381166001600160a01b0319831681179093556040519116919082907f8be0079c531659141344cd1fd0a4f28419497f9722a3daafe3b4186f6b6457e090600090a35050565b6001600160a01b038216600081815260066020908152604091829020805460ff191685151590811790915591519182527f583b0aa0e528532caf4b907c11d7a8158a122fe2a6fb80cd9b09776ebea8d92d910160405180910390a25050565b634e487b7160e01b600052604160045260246000fd5b600082601f830112620001b457600080fd5b81516001600160401b0380821115620001d157620001d16200018c565b604051601f8301601f19908116603f01168101908282118183101715620001fc57620001fc6200018c565b81604052838152602092508660208588010111156200021a57600080fd5b600091505b838210156200023e57858201830151818301840152908201906200021f565b6000602085830101528094505050505092915050565b600080600080600060a086880312156200026d57600080fd5b85516001600160401b03808211156200028557600080fd5b6200029389838a01620001a2565b96506020880151915080821115620002aa57600080fd5b50620002b988828901620001a2565b945050604086015160ff81168114620002d157600080fd5b6060870151608088015191945092506001600160a01b0381168114620002f657600080fd5b809150509295509295909350565b600181811c908216806200031957607f821691505b6020821081036200033a57634e487b7160e01b600052602260045260246000fd5b50919050565b601f82111562000390576000816000526020600020601f850160051c810160208610156200036b5750805b601f850160051c820191505b818110156200038c5782815560010162000377565b5050505b505050565b81516001600160401b03811115620003b157620003b16200018c565b620003c981620003c2845462000304565b8462000340565b602080601f831160018114620004015760008415620003e85750858301515b600019600386901b1c1916600185901b1785556200038c565b600085815260208120601f198616915b82811015620004325788860151825594840194600190910190840162000411565b5085821015620004515787850151600019600388901b60f8161c191681555b5050505050600190811b01905550565b60805160a051610b6f6200048e600039600061018d0152600081816101b901526108000152610b6f6000f3fe608060405234801561001057600080fd5b506004361061011b5760003560e01c806370a08231116100b25780639dc29fac11610081578063cf456ae711610066578063cf456ae71461028f578063dd62ed3e146102a2578063f2fde38b146102db57600080fd5b80639dc29fac14610269578063a9059cbb1461027c57600080fd5b806370a0823114610215578063715018a61461023e5780638da5cb5b1461024657806395d89b411461026157600080fd5b8063313ce567116100ee578063313ce56714610186578063355274ea146101b757806340c10f19146101dd578063423afa66146101f257600080fd5b806306fdde0314610120578063095ea7b31461013e57806318160ddd1461016157806323b872dd14610173575b600080fd5b6101286102ee565b604051610135919061097c565b60405180910390f35b61015161014c3660046109e7565b610380565b6040519015158152602001610135565b6002545b604051908152602001610135565b610151610181366004610a11565b61039a565b60405160ff7f0000000000000000000000000000000000000000000000000000000000000000168152602001610135565b7f0000000000000000000000000000000000000000000000000000000000000000610165565b6101f06101eb3660046109e7565b6103be565b005b610151610200366004610a4d565b60066020526000908152604090205460ff1681565b610165610223366004610a4d565b6001600160a01b031660009081526020819052604090205490565b6101f06103fc565b6005546040516001600160a01b039091168152602001610135565b610128610410565b6101f06102773660046109e7565b61041f565b61015161028a3660046109e7565b610459565b6101f061029d366004610a6f565b610467565b6101656102b0366004610aab565b6001600160a01b03918216600090815260016020908152604080832093909416825291909152205490565b6101f06102e9366004610a4d565b610479565b6060600380546102fd90610ade565b80601f016020809104026020016040519081016040528092919081815260200182805461032990610ade565b80156103765780601f1061034b57610100808354040283529160200191610376565b820191906000526020600020905b81548152906001019060200180831161035957829003601f168201915b5050505050905090565b60003361038e8185856104bc565b60019150505b92915050565b6000336103a88582856104ce565b6103b385858561054c565b506001949350505050565b3360009081526006602052604090205460ff166103ee57604051634199e25360e11b815260040160405180910390fd5b6103f882826105ab565b5050565b6104046105e1565b61040e600061060e565b565b6060600480546102fd90610ade565b3360009081526006602052604090205460ff1661044f57604051634199e25360e11b815260040160405180910390fd5b6103f88282610678565b60003361038e81858561054c565b61046f6105e1565b6103f882826106ae565b6104816105e1565b6001600160a01b0381166104b057604051631e4fbdf760e01b8152600060048201526024015b60405180910390fd5b6104b98161060e565b50565b6104c9838383600161070d565b505050565b6001600160a01b038381166000908152600160209081526040808320938616835292905220546000198114610546578181101561053757604051637dc7a0d960e11b81526001600160a01b038416600482015260248101829052604481018390526064016104a7565b6105468484848403600061070d565b50505050565b6001600160a01b03831661057657604051634b637e8f60e11b8152600060048201526024016104a7565b6001600160a01b0382166105a05760405163ec442f0560e01b8152600060048201526024016104a7565b6104c98383836107e2565b6001600160a01b0382166105d55760405163ec442f0560e01b8152600060048201526024016104a7565b6103f8600083836107e2565b6005546001600160a01b0316331461040e5760405163118cdaa760e01b81523360048201526024016104a7565b600580546001600160a01b038381167fffffffffffffffffffffffff0000000000000000000000000000000000000000831681179093556040519116919082907f8be0079c531659141344cd1fd0a4f28419497f9722a3daafe3b4186f6b6457e090600090a35050565b6001600160a01b0382166106a257604051634b637e8f60e11b8152600060048201526024016104a7565b6103f8826000836107e2565b6001600160a01b038216600081815260066020908152604091829020805460ff191685151590811790915591519182527f583b0aa0e528532caf4b907c11d7a8158a122fe2a6fb80cd9b09776ebea8d92d910160405180910390a25050565b6001600160a01b0384166107375760405163e602df0560e01b8152600060048201526024016104a7565b6001600160a01b03831661076157604051634a1406b160e11b8152600060048201526024016104a7565b6001600160a01b038085166000908152600160209081526040808320938716835292905220829055801561054657826001600160a01b0316846001600160a01b03167f8c5be1e5ebec7d5bd14f71427d1e84f3dd0314c0f7b2291e5b200ac8c7c3b925846040516107d491815260200190565b60405180910390a350505050565b6107ed838383610852565b6001600160a01b0383166104c9576002547f0000000000000000000000000000000000000000000000000000000000000000908181111561084b5760405163279e7e1560e21b815260048101829052602481018390526044016104a7565b5050505050565b6001600160a01b03831661087d5780600260008282546108729190610b18565b909155506108ef9050565b6001600160a01b038316600090815260208190526040902054818110156108d05760405163391434e360e21b81526001600160a01b038516600482015260248101829052604481018390526064016104a7565b6001600160a01b03841660009081526020819052604090209082900390555b6001600160a01b03821661090b5760028054829003905561092a565b6001600160a01b03821660009081526020819052604090208054820190555b816001600160a01b0316836001600160a01b03167fddf252ad1be2c89b69c2b068fc378daa952ba7f163c4a11628f55a4df523b3ef8360405161096f91815260200190565b60405180910390a3505050565b60006020808352835180602085015260005b818110156109aa5785810183015185820160400152820161098e565b506000604082860101526040601f19601f8301168501019250505092915050565b80356001600160a01b03811681146109e257600080fd5b919050565b600080604083850312156109fa57600080fd5b610a03836109cb565b946020939093013593505050565b600080600060608486031215610a2657600080fd5b610a2f846109cb565b9250610a3d602085016109cb565b9150604084013590509250925092565b600060208284031215610a5f57600080fd5b610a68826109cb565b9392505050565b60008060408385031215610a8257600080fd5b610a8b836109cb565b915060208301358015158114610aa057600080fd5b809150509250929050565b60008060408385031215610abe57600080fd5b610ac7836109cb565b9150610ad5602084016109cb565b90509250929050565b600181811c90821680610af257607f821691505b602082108103610b1257634e487b7160e01b600052602260045260246000fd5b50919050565b8082018082111561039457634e487b7160e01b600052601160045260246000fdfea26469706673582212200d68669bd9d7a7cf36532e94088db26b3e972e6649ce1d5bd2b0e1bd50d1234764736f6c63430008170033a2646970667358221220af1e8d848fd6d1a92975d64936ad686c94597fa56cdbba2c38b3df6acea9827264736f6c6343000817003368747470733a2f2f6769746875622e636f6d2f496e7665727465724e6574776f726b2f636f6e747261637473",
    "linkReferences": {}
  },
  "methodIdentifiers": {
    "admin()": "f851a440",
    "buyFor(address,address,uint256,uint256)": "f6819293",
    "collateralFeeMultiplier()": "5eecade6",
    "createPIMWorkflow((bool,address),((uint256,uint256,uint256,string,string),bytes),((uint256,uint256,uint256,string,string),bytes),((uint256,uint256,uint256,string,string),bytes),((uint256,uint256,uint256,string,string),bytes)[],(string,string,uint8,uint256),uint256,(bool,uint256,address,address))": "6daf301a",
    "fundingManagers(uint256)": "7b542b71",
    "getIsGraduated(address)": "1248c803",
    "getIsImmutable(address)": "f402c2bb",
    "getLpTokenRecipient(address)": "de78c729",
    "getMigrationThreshold(address)": "d8354222",
    "isTrustedForwarder(address)": "572b6c05",
    "issuanceFeeMultiplier()": "0f25247e",
    "mainFundingManager()": "03828e7e",
    "mutableInitialMintAmount()": "93f3721f",
    "orchestratorFactory()": "2f36a25d",
    "pims(address)": "1615f657",
    "sellTo(address,address,uint256,uint256)": "ce7c83dd",
    "setAdmin(address)": "704b6c02",
    "setCollateralFeeMultiplier(uint256)": "80165151",
    "setIssuanceFeeMultiplier(uint256)": "1cfcc51c",
    "setMainFundingManager(address)": "3cd27545",
    "setMutableInitialMintAmount(uint256)": "5fb0992d",
    "setStakingModuleMetadata((uint256,uint256,uint256,string))": "7715db6f",
    "stakingModuleMetadata()": "b96086d9",
    "trustedForwarder()": "7da0a877",
    "withdrawAllProjectCollateralFeesToStaking()": "09bc6300"
  },
  "id": 78
}