{
  "abi": [
    {
      "type": "constructor",
      "inputs": [
        {
          "name": "_orchestratorFactory",
          "type": "address",
          "internalType": "address"
        },
        {
          "name": "_trustedForwarder",
          "type": "address",
          "internalType": "address"
        }
      ],
      "stateMutability": "nonpayable"
    },
    {
      "type": "function",
      "name": "buyFor",
      "inputs": [
        {
          "name": "fundingManager",
          "type": "address",
          "internalType": "address"
        },
        {
          "name": "recipient",
          "type": "address",
          "internalType": "address"
        },
        {
          "name": "amountIn",
          "type": "uint256",
          "internalType": "uint256"
        },
        {
          "name": "minAmountOut",
          "type": "uint256",
          "internalType": "uint256"
        }
      ],
      "outputs": [],
      "stateMutability": "nonpayable"
    },
    {
      "type": "function",
      "name": "createPIMWorkflow",
      "inputs": [
        {
          "name": "workflowConfig",
          "type": "tuple",
          "internalType": "struct IOrchestratorFactory_v1.WorkflowConfig",
          "components": [
            {
              "name": "independentUpdates",
              "type": "bool",
              "internalType": "bool"
            },
            {
              "name": "independentUpdateAdmin",
              "type": "address",
              "internalType": "address"
            }
          ]
        },
        {
          "name": "fundingManagerConfig",
          "type": "tuple",
          "internalType": "struct IOrchestratorFactory_v1.ModuleConfig",
          "components": [
            {
              "name": "metadata",
              "type": "tuple",
              "internalType": "struct IModule_v1.Metadata",
              "components": [
                {
                  "name": "majorVersion",
                  "type": "uint256",
                  "internalType": "uint256"
                },
                {
                  "name": "minorVersion",
                  "type": "uint256",
                  "internalType": "uint256"
                },
                {
                  "name": "patchVersion",
                  "type": "uint256",
                  "internalType": "uint256"
                },
                {
                  "name": "url",
                  "type": "string",
                  "internalType": "string"
                },
                {
                  "name": "title",
                  "type": "string",
                  "internalType": "string"
                }
              ]
            },
            {
              "name": "configData",
              "type": "bytes",
              "internalType": "bytes"
            }
          ]
        },
        {
          "name": "authorizerConfig",
          "type": "tuple",
          "internalType": "struct IOrchestratorFactory_v1.ModuleConfig",
          "components": [
            {
              "name": "metadata",
              "type": "tuple",
              "internalType": "struct IModule_v1.Metadata",
              "components": [
                {
                  "name": "majorVersion",
                  "type": "uint256",
                  "internalType": "uint256"
                },
                {
                  "name": "minorVersion",
                  "type": "uint256",
                  "internalType": "uint256"
                },
                {
                  "name": "patchVersion",
                  "type": "uint256",
                  "internalType": "uint256"
                },
                {
                  "name": "url",
                  "type": "string",
                  "internalType": "string"
                },
                {
                  "name": "title",
                  "type": "string",
                  "internalType": "string"
                }
              ]
            },
            {
              "name": "configData",
              "type": "bytes",
              "internalType": "bytes"
            }
          ]
        },
        {
          "name": "paymentProcessorConfig",
          "type": "tuple",
          "internalType": "struct IOrchestratorFactory_v1.ModuleConfig",
          "components": [
            {
              "name": "metadata",
              "type": "tuple",
              "internalType": "struct IModule_v1.Metadata",
              "components": [
                {
                  "name": "majorVersion",
                  "type": "uint256",
                  "internalType": "uint256"
                },
                {
                  "name": "minorVersion",
                  "type": "uint256",
                  "internalType": "uint256"
                },
                {
                  "name": "patchVersion",
                  "type": "uint256",
                  "internalType": "uint256"
                },
                {
                  "name": "url",
                  "type": "string",
                  "internalType": "string"
                },
                {
                  "name": "title",
                  "type": "string",
                  "internalType": "string"
                }
              ]
            },
            {
              "name": "configData",
              "type": "bytes",
              "internalType": "bytes"
            }
          ]
        },
        {
          "name": "moduleConfigs",
          "type": "tuple[]",
          "internalType": "struct IOrchestratorFactory_v1.ModuleConfig[]",
          "components": [
            {
              "name": "metadata",
              "type": "tuple",
              "internalType": "struct IModule_v1.Metadata",
              "components": [
                {
                  "name": "majorVersion",
                  "type": "uint256",
                  "internalType": "uint256"
                },
                {
                  "name": "minorVersion",
                  "type": "uint256",
                  "internalType": "uint256"
                },
                {
                  "name": "patchVersion",
                  "type": "uint256",
                  "internalType": "uint256"
                },
                {
                  "name": "url",
                  "type": "string",
                  "internalType": "string"
                },
                {
                  "name": "title",
                  "type": "string",
                  "internalType": "string"
                }
              ]
            },
            {
              "name": "configData",
              "type": "bytes",
              "internalType": "bytes"
            }
          ]
        },
        {
          "name": "issuanceTokenParams",
          "type": "tuple",
          "internalType": "struct IBondingCurveBase_v1.IssuanceToken",
          "components": [
            {
              "name": "name",
              "type": "string",
              "internalType": "string"
            },
            {
              "name": "symbol",
              "type": "string",
              "internalType": "string"
            },
            {
              "name": "decimals",
              "type": "uint8",
              "internalType": "uint8"
            },
            {
              "name": "maxSupply",
              "type": "uint256",
              "internalType": "uint256"
            }
          ]
        },
        {
          "name": "initialPurchaseAmount",
          "type": "uint256",
          "internalType": "uint256"
        },
        {
          "name": "migrationConfig_",
          "type": "tuple",
          "internalType": "struct IMigrating_PIM_Factory_v1.MigrationConfig",
          "components": [
            {
              "name": "isImmutable",
              "type": "bool",
              "internalType": "bool"
            },
            {
              "name": "migrationThreshold",
              "type": "uint256",
              "internalType": "uint256"
            },
            {
              "name": "dexAdapter",
              "type": "address",
              "internalType": "address"
            },
            {
              "name": "lpTokenRecipient",
              "type": "address",
              "internalType": "address"
            }
          ]
        }
      ],
      "outputs": [
        {
          "name": "",
          "type": "address",
          "internalType": "contract IOrchestrator_v1"
        }
      ],
      "stateMutability": "nonpayable"
    },
    {
      "type": "function",
      "name": "getIsGraduated",
      "inputs": [
        {
          "name": "fundingManager",
          "type": "address",
          "internalType": "address"
        }
      ],
      "outputs": [
        {
          "name": "",
          "type": "bool",
          "internalType": "bool"
        }
      ],
      "stateMutability": "view"
    },
    {
      "type": "function",
      "name": "getIsImmutable",
      "inputs": [
        {
          "name": "fundingManager",
          "type": "address",
          "internalType": "address"
        }
      ],
      "outputs": [
        {
          "name": "",
          "type": "bool",
          "internalType": "bool"
        }
      ],
      "stateMutability": "view"
    },
    {
      "type": "function",
      "name": "getLpTokenRecipient",
      "inputs": [
        {
          "name": "fundingManager",
          "type": "address",
          "internalType": "address"
        }
      ],
      "outputs": [
        {
          "name": "",
          "type": "address",
          "internalType": "address"
        }
      ],
      "stateMutability": "view"
    },
    {
      "type": "function",
      "name": "getMigrationThreshold",
      "inputs": [
        {
          "name": "fundingManager",
          "type": "address",
          "internalType": "address"
        }
      ],
      "outputs": [
        {
          "name": "",
          "type": "uint256",
          "internalType": "uint256"
        }
      ],
      "stateMutability": "view"
    },
    {
      "type": "function",
      "name": "isTrustedForwarder",
      "inputs": [
        {
          "name": "forwarder",
          "type": "address",
          "internalType": "address"
        }
      ],
      "outputs": [
        {
          "name": "",
          "type": "bool",
          "internalType": "bool"
        }
      ],
      "stateMutability": "view"
    },
    {
      "type": "function",
      "name": "orchestratorFactory",
      "inputs": [],
      "outputs": [
        {
          "name": "",
          "type": "address",
          "internalType": "address"
        }
      ],
      "stateMutability": "view"
    },
    {
      "type": "function",
      "name": "pims",
      "inputs": [
        {
          "name": "fundingManager",
          "type": "address",
          "internalType": "address"
        }
      ],
      "outputs": [
        {
          "name": "isGraduated",
          "type": "bool",
          "internalType": "bool"
        },
        {
          "name": "isImmutable",
          "type": "bool",
          "internalType": "bool"
        },
        {
          "name": "migrationThreshold",
          "type": "uint256",
          "internalType": "uint256"
        },
        {
          "name": "dexAdapter",
          "type": "address",
          "internalType": "address"
        },
        {
          "name": "lpTokenRecipient",
          "type": "address",
          "internalType": "address"
        },
        {
          "name": "orchestrator",
          "type": "address",
          "internalType": "contract IOrchestrator_v1"
        },
        {
          "name": "initialVirtualIssuanceSupply",
          "type": "uint256",
          "internalType": "uint256"
        },
        {
          "name": "initialVirtualCollateralSupply",
          "type": "uint256",
          "internalType": "uint256"
        }
      ],
      "stateMutability": "view"
    },
    {
      "type": "function",
      "name": "sellTo",
      "inputs": [
        {
          "name": "fundingManager",
          "type": "address",
          "internalType": "address"
        },
        {
          "name": "recipient",
          "type": "address",
          "internalType": "address"
        },
        {
          "name": "amountIn",
          "type": "uint256",
          "internalType": "uint256"
        },
        {
          "name": "minAmountOut",
          "type": "uint256",
          "internalType": "uint256"
        }
      ],
      "outputs": [],
      "stateMutability": "nonpayable"
    },
    {
      "type": "function",
      "name": "trustedForwarder",
      "inputs": [],
      "outputs": [
        {
          "name": "",
          "type": "address",
          "internalType": "address"
        }
      ],
      "stateMutability": "view"
    },
    {
      "type": "event",
      "name": "Graduation",
      "inputs": [
        {
          "name": "fundingManager",
          "type": "address",
          "indexed": true,
          "internalType": "address"
        },
        {
          "name": "issuanceToken",
          "type": "address",
          "indexed": true,
          "internalType": "address"
        },
        {
          "name": "collateralToken",
          "type": "address",
          "indexed": false,
          "internalType": "address"
        },
        {
          "name": "pool",
          "type": "address",
          "indexed": true,
          "internalType": "address"
        },
        {
          "name": "issuanceTokenAmount",
          "type": "uint256",
          "indexed": false,
          "internalType": "uint256"
        },
        {
          "name": "collateralTokenAmount",
          "type": "uint256",
          "indexed": false,
          "internalType": "uint256"
        }
      ],
      "anonymous": false
    },
    {
      "type": "event",
      "name": "PIMWorkflowCreated",
      "inputs": [
        {
          "name": "fundingManager",
          "type": "address",
          "indexed": true,
          "internalType": "address"
        },
        {
          "name": "issuanceToken",
          "type": "address",
          "indexed": true,
          "internalType": "address"
        },
        {
          "name": "deployer",
          "type": "address",
          "indexed": true,
          "internalType": "address"
        },
        {
          "name": "isImmutable",
          "type": "bool",
          "indexed": false,
          "internalType": "bool"
        },
        {
          "name": "migrationThreshold",
          "type": "uint256",
          "indexed": false,
          "internalType": "uint256"
        },
        {
          "name": "lpTokenRecipient",
          "type": "address",
          "indexed": false,
          "internalType": "address"
        }
      ],
      "anonymous": false
    },
    {
      "type": "event",
      "name": "PimFeeClaimed",
      "inputs": [
        {
          "name": "fundingManager",
          "type": "address",
          "indexed": true,
          "internalType": "address"
        },
        {
          "name": "claimer",
          "type": "address",
          "indexed": true,
          "internalType": "address"
        },
        {
          "name": "to",
          "type": "address",
          "indexed": true,
          "internalType": "address"
        },
        {
          "name": "amount",
          "type": "uint256",
          "indexed": false,
          "internalType": "uint256"
        }
      ],
      "anonymous": false
    },
    {
      "type": "event",
      "name": "PimFeeRecipientUpdated",
      "inputs": [
        {
          "name": "fundingManager",
          "type": "address",
          "indexed": true,
          "internalType": "address"
        },
        {
          "name": "oldRecipient",
          "type": "address",
          "indexed": true,
          "internalType": "address"
        },
        {
          "name": "newRecipient",
          "type": "address",
          "indexed": true,
          "internalType": "address"
        }
      ],
      "anonymous": false
    },
    {
      "type": "error",
      "name": "PIM_WorkflowFactory__OnlyPimFeeRecipient",
      "inputs": []
    }
  ],
  "bytecode": {
    "object": "0x60a06040523480156200001157600080fd5b50604051620040eb380380620040eb83398101604081905262000034916200007d565b6001600160a01b03908116608052600080546001600160a01b03191692909116919091179055620000b5565b80516001600160a01b03811681146200007857600080fd5b919050565b600080604083850312156200009157600080fd5b6200009c8362000060565b9150620000ac6020840162000060565b90509250929050565b60805161400c620000df600039600081816102140152818161025d0152611612015261400c6000f3fe60806040523480156200001157600080fd5b5060043610620000d95760003560e01c80637da0a877116200008b578063de78c7291162000062578063de78c72914620002d9578063f402c2bb146200030b578063f6819293146200033f57600080fd5b80637da0a877146200025b578063ce7c83dd1462000282578063d8354222146200029b57600080fd5b80632f36a25d11620000c05780632f36a25d14620001d4578063572b6c0514620002015780636daf301a146200024457600080fd5b80631248c80314620000de5780631615f6571462000122575b600080fd5b6200010d620000ef3660046200243e565b6001600160a01b031660009081526002602052604090205460ff1690565b60405190151581526020015b60405180910390f35b6200018a620001333660046200243e565b6002602081905260009182526040909120805460018201549282015460038301546004840154600585015460069095015460ff8086169761010090960416956001600160a01b039485169493841693909216919088565b6040805198151589529615156020890152958701949094526001600160a01b03928316606087015290821660808601521660a084015260c083015260e08201526101000162000119565b600054620001e8906001600160a01b031681565b6040516001600160a01b03909116815260200162000119565b6200010d620002123660046200243e565b7f00000000000000000000000000000000000000000000000000000000000000006001600160a01b0390811691161490565b620001e862000255366004620028d4565b62000356565b7f0000000000000000000000000000000000000000000000000000000000000000620001e8565b6200029962000293366004620029e8565b62000771565b005b620002ca620002ac3660046200243e565b6001600160a01b031660009081526002602052604090206001015490565b60405190815260200162000119565b620001e8620002ea3660046200243e565b6001600160a01b039081166000908152600260205260409020600301541690565b6200010d6200031c3660046200243e565b6001600160a01b0316600090815260026020526040902054610100900460ff1690565b6200029962000350366004620029e8565b620009b6565b6000808460000151856020015186604001518760600151306040516200037c9062002417565b6200038c95949392919062002a7b565b604051809103906000f080158015620003a9573d6000803e3d6000fd5b5090506000806000620003c18d8d8d8d8d8962000d23565b6001805473ffffffffffffffffffffffffffffffffffffffff19166001600160a01b038416179055885192955090935091506000906200040657866060015162000408565b305b90506000846001600160a01b03166304baed9e6040518163ffffffff1660e01b8152600401602060405180830381865afa1580156200044b573d6000803e3d6000fd5b505050506040513d601f19601f8201168201806040525081019062000471919062002ace565b90506040518061010001604052806000151581526020018960000151151581526020018960200151815260200189604001516001600160a01b03168152602001836001600160a01b03168152602001866001600160a01b03168152602001826001600160a01b031663d1c6022f6040518163ffffffff1660e01b8152600401602060405180830381865afa1580156200050e573d6000803e3d6000fd5b505050506040513d601f19601f8201168201806040525081019062000534919062002aee565b8152602001826001600160a01b031663bf75292b6040518163ffffffff1660e01b8152600401602060405180830381865afa15801562000578573d6000803e3d6000fd5b505050506040513d601f19601f820116820180604052508101906200059e919062002aee565b90526001600160a01b03828116600081815260026020818152604092839020865181549288015161ffff1990931690151561ff0019161761010092151592909202919091178155858301516001808301919091556060870151928201805473ffffffffffffffffffffffffffffffffffffffff199081169488169490941790556080870151600383018054851691881691909117905560a0870151600480840180549095169188169190911790935560c0870151600583015560e090960151600690910155905163cf456ae760e01b815290810191909152602481019290925287169063cf456ae790604401600060405180830381600087803b158015620006a557600080fd5b505af1158015620006ba573d6000803e3d6000fd5b50505050620006c98162000ead565b620006d781848b8762001487565b620006e16200160b565b6001600160a01b0316866001600160a01b0316826001600160a01b03167fd48997388cefe01f404a6f289de0365da97616ade304f75e7f2d994affbc985c8b600001518c60200151876040516200075693929190921515835260208301919091526001600160a01b0316604082015260600190565b60405180910390a450929d9c50505050505050505050505050565b6001600160a01b03808516600081815260026020818152604080842081516101008082018452825460ff8082161515845291900416151581850152600182015481840152938101548716606085015260038101548716608085015260048082015490971660a0850152600581015460c08501526006015460e08401528051631ca3bc4f60e01b8152905192958a9593631ca3bc4f93838301939092908290030181865afa15801562000827573d6000803e3d6000fd5b505050506040513d601f19601f820116820180604052508101906200084d919062002ace565b6040516323b872dd60e01b8152336004820152306024820152604481018790529091506001600160a01b038216906323b872dd906064016020604051808303816000875af1158015620008a4573d6000803e3d6000fd5b505050506040513d601f19601f82011682018060405250810190620008ca919062002b27565b5060405163095ea7b360e01b81526001600160a01b0388811660048301526024820187905282169063095ea7b3906044016020604051808303816000875af11580156200091b573d6000803e3d6000fd5b505050506040513d601f19601f8201168201806040525081019062000941919062002b27565b506040516362d93eef60e11b81526001600160a01b038781166004830152602482018790526044820186905283169063c5b27dde90606401600060405180830381600087803b1580156200099457600080fd5b505af1158015620009a9573d6000803e3d6000fd5b5050505050505050505050565b6001600160a01b03808516600081815260026020818152604080842081516101008082018452825460ff8082161515845291900416151581850152600182015481840152938101548716606085015260038101548716608085015260048082015490971660a0850152600581015460c08501526006015460e08401528051631ca3bc4f60e01b8152905192958a9593631ca3bc4f93838301939092908290030181865afa15801562000a6c573d6000803e3d6000fd5b505050506040513d601f19601f8201168201806040525081019062000a92919062002ace565b90506000826001600160a01b031663fc0c546a6040518163ffffffff1660e01b8152600401602060405180830381865afa15801562000ad5573d6000803e3d6000fd5b505050506040513d601f19601f8201168201806040525081019062000afb919062002ace565b905060008062000b0c8a8962001688565b9092509050801562000d17576040516323b872dd60e01b8152336004820152306024820152604481018290526001600160a01b038416906323b872dd906064016020604051808303816000875af115801562000b6c573d6000803e3d6000fd5b505050506040513d601f19601f8201168201806040525081019062000b92919062002b27565b5060405163095ea7b360e01b81526001600160a01b038b811660048301526024820183905284169063095ea7b3906044016020604051808303816000875af115801562000be3573d6000803e3d6000fd5b505050506040513d601f19601f8201168201806040525081019062000c09919062002b27565b5060008862000c19838a62002b5d565b62000c25919062002b7d565b60405163935b7dbd60e01b81526001600160a01b038c8116600483015260248201859052604482018390529192509087169063935b7dbd90606401600060405180830381600087803b15801562000c7b57600080fd5b505af115801562000c90573d6000803e3d6000fd5b5050505060408781015190516370a0823160e01b81526001600160a01b038d811660048301528616906370a0823190602401602060405180830381865afa15801562000ce0573d6000803e3d6000fd5b505050506040513d601f19601f8201168201806040525081019062000d06919062002aee565b10620009a957620009a98b620019f8565b50505050505050505050565b600080600080876020015190508080602001905181019062000d46919062002ace565b604080513060208201529194500160408051601f1981840301815291815260208a81018390528151610120810183526000808252918101829052918201819052606082018190526080820181905260a0820181905260c0820181905260e082018190526101008201529091506020808b01518051909162000dce918301810190830162002bb5565b60405190965090935062000dec915088908490879060200162002c9b565b60408051601f1981840301815291815260208d0182905260005490517fff2676990000000000000000000000000000000000000000000000000000000081529192506001600160a01b03169063ff2676999062000e56908f908f908f908f908f9060040162002dce565b6020604051808303816000875af115801562000e76573d6000803e3d6000fd5b505050506040513d601f19601f8201168201806040525081019062000e9c919062002ace565b955050505096509650969350505050565b6001600160a01b03808216600081815260026020818152604080842081516101008082018452825460ff8082161515845291900416151581850152600182015481840152938101548716606085015260038101548716608085015260048082015490971660a0850152600581015460c08501526006015460e08401528051631ca3bc4f60e01b815290519295879593631ca3bc4f93838301939092908290030181865afa15801562000f63573d6000803e3d6000fd5b505050506040513d601f19601f8201168201806040525081019062000f89919062002ace565b905082602001516200113e578260a001516001600160a01b031663d09edf316040518163ffffffff1660e01b8152600401602060405180830381865afa15801562000fd8573d6000803e3d6000fd5b505050506040513d601f19601f8201168201806040525081019062000ffe919062002ace565b6001600160a01b0316632f2ff15d8460a001516001600160a01b031663d09edf316040518163ffffffff1660e01b8152600401602060405180830381865afa1580156200104f573d6000803e3d6000fd5b505050506040513d601f19601f8201168201806040525081019062001075919062002ace565b6001600160a01b031663b3ecf2366040518163ffffffff1660e01b8152600401602060405180830381865afa158015620010b3573d6000803e3d6000fd5b505050506040513d601f19601f82011682018060405250810190620010d9919062002aee565b60015460405160e084901b6001600160e01b031916815260048101929092526001600160a01b03166024820152604401600060405180830381600087803b1580156200112457600080fd5b505af115801562001139573d6000803e3d6000fd5b505050505b60405163cf456ae760e01b8152306004820152600160248201526001600160a01b0382169063cf456ae790604401600060405180830381600087803b1580156200118757600080fd5b505af11580156200119c573d6000803e3d6000fd5b50505050816001600160a01b0316636c67e807836001600160a01b0316637feb48a16040518163ffffffff1660e01b8152600401602060405180830381865afa158015620011ee573d6000803e3d6000fd5b505050506040513d601f19601f8201168201806040525081019062001214919062002aee565b6040516001600160e01b031960e084901b1681526004810191909152306024820152604401600060405180830381600087803b1580156200125457600080fd5b505af115801562001269573d6000803e3d6000fd5b5050505060008360a001516001600160a01b0316634cfa64876040518163ffffffff1660e01b8152600401600060405180830381865afa158015620012b2573d6000803e3d6000fd5b505050506040513d6000823e601f3d908101601f19168201604052620012dc919081019062002e90565b905060005b81518110156200147f5781818151811062001300576200130062002f35565b60200260200101516001600160a01b03166346ebcacf6040518163ffffffff1660e01b8152600401602060405180830381865afa92505050801562001364575060408051601f3d908101601f19168201909252620013619181019062002aee565b60015b1562001476575081818151811062001380576200138062002f35565b60200260200101516001600160a01b0316636c67e807838381518110620013ab57620013ab62002f35565b60200260200101516001600160a01b03166346ebcacf6040518163ffffffff1660e01b8152600401602060405180830381865afa158015620013f1573d6000803e3d6000fd5b505050506040513d601f19601f8201168201806040525081019062001417919062002aee565b6040516001600160e01b031960e084901b1681526004810191909152306024820152604401600060405180830381600087803b1580156200145757600080fd5b505af11580156200146c573d6000803e3d6000fd5b505050506200147f565b600101620012e1565b505050505050565b81156200160557826001600160a01b03166323b872dd620014a76200160b565b6040516001600160e01b031960e084901b1681526001600160a01b039091166004820152306024820152604481018590526064016020604051808303816000875af1158015620014fb573d6000803e3d6000fd5b505050506040513d601f19601f8201168201806040525081019062001521919062002b27565b5060405163095ea7b360e01b81526001600160a01b0385811660048301526024820184905284169063095ea7b3906044016020604051808303816000875af115801562001572573d6000803e3d6000fd5b505050506040513d601f19601f8201168201806040525081019062001598919062002b27565b5060405163935b7dbd60e01b81526001600160a01b038281166004830152602482018490526001604483015285169063935b7dbd90606401600060405180830381600087803b158015620015eb57600080fd5b505af115801562001600573d6000803e3d6000fd5b505050505b50505050565b60003660147f00000000000000000000000000000000000000000000000000000000000000006001600160a01b031633148015620016495750808210155b1562001680576000366200165e838562002f4b565b6200166b92829062002f61565b620016769162002f8d565b60601c9250505090565b339250505090565b6001600160a01b03808316600090815260026020818152604080842081516101008082018452825460ff8082161515845291900416151581850152600182015481840152938101548616606085015260038101548616608085015260048082015490961660a08501819052600582015460c086015260069091015460e0850152815163030d028960e21b815291519495869586949293630c340a2493818401939092918290030181865afa15801562001745573d6000803e3d6000fd5b505050506040513d601f19601f820116820180604052508101906200176b919062002ace565b6001600160a01b031663f2d638266040518163ffffffff1660e01b8152600401602060405180830381865afa158015620017a9573d6000803e3d6000fd5b505050506040513d601f19601f82011682018060405250810190620017cf919062002ace565b905060008690506000816001600160a01b031663fc0c546a6040518163ffffffff1660e01b8152600401602060405180830381865afa15801562001817573d6000803e3d6000fd5b505050506040513d601f19601f820116820180604052508101906200183d919062002ace565b6040516370a0823160e01b81526001600160a01b038a811660048301529192506000918316906370a0823190602401602060405180830381865afa1580156200188a573d6000803e3d6000fd5b505050506040513d601f19601f82011682018060405250810190620018b0919062002aee565b90506000846001600160a01b0316631a3e87336040518163ffffffff1660e01b8152600401602060405180830381865afa158015620018f3573d6000803e3d6000fd5b505050506040513d601f19601f8201168201806040525081019062001919919062002aee565b905060006127106200192c838c62002b5d565b62001938919062002b7d565b9050600062001948828c62002f4b565b9050600062001958828662002fc3565b90508860400151811115620019e0576000858a60400151116200197d5760006200198f565b858a604001516200198f919062002f4b565b90506200199f8561271062002f4b565b620019ad8261271062002b5d565b620019b9919062002b7d565b9a508a8d11620019cb576000620019d7565b620019d78b8e62002f4b565b9b5050620019e8565b8b995060009a505b5050505050505050509250929050565b6001600160a01b03808216600081815260026020818152604080842081516101008082018452825460ff8082161515845291900416151581850152600182015481840152938101548716606085015260038101548716608085015260048082015490971660a0850152600581015460c08501526006015460e08401528051637e062a3560e11b81529051929587959363fc0c546a93838301939092908290030181865afa15801562001aae573d6000803e3d6000fd5b505050506040513d601f19601f8201168201806040525081019062001ad4919062002ace565b90506000826001600160a01b0316631ca3bc4f6040518163ffffffff1660e01b8152600401602060405180830381865afa15801562001b17573d6000803e3d6000fd5b505050506040513d601f19601f8201168201806040525081019062001b3d919062002ace565b905060008460a001516001600160a01b0316634cfa64876040518163ffffffff1660e01b8152600401600060405180830381865afa15801562001b84573d6000803e3d6000fd5b505050506040513d6000823e601f3d908101601f1916820160405262001bae919081019062002e90565b6040516370a0823160e01b81526001600160a01b0388811660048301529192506000918516906370a0823190602401602060405180830381865afa15801562001bfb573d6000803e3d6000fd5b505050506040513d601f19601f8201168201806040525081019062001c21919062002aee565b905060008660c00151866001600160a01b031663d1c6022f6040518163ffffffff1660e01b8152600401602060405180830381865afa15801562001c69573d6000803e3d6000fd5b505050506040513d601f19601f8201168201806040525081019062001c8f919062002aee565b62001c9b919062002f4b565b905060005b835181101562001e595783818151811062001cbf5762001cbf62002f35565b60200260200101516001600160a01b03166346ebcacf6040518163ffffffff1660e01b8152600401602060405180830381865afa92505050801562001d23575060408051601f3d908101601f1916820190925262001d209181019062002aee565b60015b1562001e50575083818151811062001d3f5762001d3f62002f35565b60200260200101516001600160a01b0316638028b82f8960600151888a6001600160a01b031663cbda8f826040518163ffffffff1660e01b8152600401602060405180830381865afa15801562001d9a573d6000803e3d6000fd5b505050506040513d601f19601f8201168201806040525081019062001dc0919062002aee565b62001dcc908862002f4b565b6040516001600160e01b031960e086901b1681526001600160a01b03938416600482015292909116602483015260448201526000606482018190526084820181905260a482015260c401600060405180830381600087803b15801562001e3157600080fd5b505af115801562001e46573d6000803e3d6000fd5b5050505062001e59565b60010162001ca0565b50856001600160a01b031663c6ab5cdc6040518163ffffffff1660e01b8152600401600060405180830381600087803b15801562001e9657600080fd5b505af115801562001eab573d6000803e3d6000fd5b50505050856001600160a01b031663ba83c9706040518163ffffffff1660e01b8152600401600060405180830381600087803b15801562001eeb57600080fd5b505af115801562001f00573d6000803e3d6000fd5b5050505060608701516040516340c10f1960e01b81526001600160a01b03918216600482015260248101839052908516906340c10f1990604401600060405180830381600087803b15801562001f5557600080fd5b505af115801562001f6a573d6000803e3d6000fd5b505050606088015160808901516040516332092e4f60e21b81526001600160a01b038981166004830152888116602483015291821660448201526000935091169063c824b93c906064016020604051808303816000875af115801562001fd4573d6000803e3d6000fd5b505050506040513d601f19601f8201168201806040525081019062001ffa919062002ace565b90508760200151156200206257846001600160a01b031663715018a66040518163ffffffff1660e01b8152600401600060405180830381600087803b1580156200204357600080fd5b505af115801562002058573d6000803e3d6000fd5b50505050620020c4565b60015460405163f2fde38b60e01b81526001600160a01b0391821660048201529086169063f2fde38b90602401600060405180830381600087803b158015620020aa57600080fd5b505af1158015620020bf573d6000803e3d6000fd5b505050505b876020015162002277578760a001516001600160a01b031663d09edf316040518163ffffffff1660e01b8152600401602060405180830381865afa15801562002111573d6000803e3d6000fd5b505050506040513d601f19601f8201168201806040525081019062002137919062002ace565b6001600160a01b0316632f2ff15d8960a001516001600160a01b031663d09edf316040518163ffffffff1660e01b8152600401602060405180830381865afa15801562002188573d6000803e3d6000fd5b505050506040513d601f19601f82011682018060405250810190620021ae919062002ace565b6001600160a01b031663b3ecf2366040518163ffffffff1660e01b8152600401602060405180830381865afa158015620021ec573d6000803e3d6000fd5b505050506040513d601f19601f8201168201806040525081019062002212919062002aee565b60015460405160e084901b6001600160e01b031916815260048101929092526001600160a01b03166024820152604401600060405180830381600087803b1580156200225d57600080fd5b505af115801562002272573d6000803e3d6000fd5b505050505b600188600001901515908115158152505087600260008b6001600160a01b03166001600160a01b0316815260200190815260200160002060008201518160000160006101000a81548160ff02191690831515021790555060208201518160000160016101000a81548160ff0219169083151502179055506040820151816001015560608201518160020160006101000a8154816001600160a01b0302191690836001600160a01b0316021790555060808201518160030160006101000a8154816001600160a01b0302191690836001600160a01b0316021790555060a08201518160040160006101000a8154816001600160a01b0302191690836001600160a01b0316021790555060c0820151816005015560e08201518160060155905050806001600160a01b0316856001600160a01b03168a6001600160a01b03167fa1e96b3ce3fc5768278dc15122fe99fb7059af1a41229142fc6db77b9de60dba89868860405162002404939291906001600160a01b039390931683526020830191909152604082015260600190565b60405180910390a4505050505050505050565b610ffd8062002fda83390190565b6001600160a01b03811681146200243b57600080fd5b50565b6000602082840312156200245157600080fd5b81356200245e8162002425565b9392505050565b634e487b7160e01b600052604160045260246000fd5b6040805190810167ffffffffffffffff81118282101715620024a157620024a162002465565b60405290565b60405160a0810167ffffffffffffffff81118282101715620024a157620024a162002465565b6040516080810167ffffffffffffffff81118282101715620024a157620024a162002465565b604051610120810167ffffffffffffffff81118282101715620024a157620024a162002465565b604051601f8201601f1916810167ffffffffffffffff8111828210171562002546576200254662002465565b604052919050565b80151581146200243b57600080fd5b6000604082840312156200257057600080fd5b6200257a6200247b565b9050813562002589816200254e565b815260208201356200259b8162002425565b602082015292915050565b600082601f830112620025b857600080fd5b813567ffffffffffffffff811115620025d557620025d562002465565b620025ea601f8201601f19166020016200251a565b8181528460208386010111156200260057600080fd5b816020850160208301376000918101602001919091529392505050565b6000604082840312156200263057600080fd5b6200263a6200247b565b9050813567ffffffffffffffff808211156200265557600080fd5b9083019060a082860312156200266a57600080fd5b62002674620024a7565b8235815260208301356020820152604083013560408201526060830135828111156200269f57600080fd5b620026ad87828601620025a6565b606083015250608083013582811115620026c657600080fd5b620026d487828601620025a6565b60808301525083526020840135915080821115620026f157600080fd5b506200270084828501620025a6565b60208301525092915050565b600067ffffffffffffffff82111562002729576200272962002465565b5060051b60200190565b600082601f8301126200274557600080fd5b813560206200275e62002758836200270c565b6200251a565b82815260059290921b840181019181810190868411156200277e57600080fd5b8286015b84811015620027c357803567ffffffffffffffff811115620027a45760008081fd5b620027b48986838b01016200261d565b84525091830191830162002782565b509695505050505050565b600060808284031215620027e157600080fd5b620027eb620024cd565b9050813567ffffffffffffffff808211156200280657600080fd5b6200281485838601620025a6565b835260208401359150808211156200282b57600080fd5b506200283a84828501620025a6565b602083015250604082013560ff811681146200285557600080fd5b806040830152506060820135606082015292915050565b6000608082840312156200287f57600080fd5b62002889620024cd565b9050813562002898816200254e565b8152602082810135908201526040820135620028b48162002425565b60408201526060820135620028c98162002425565b606082015292915050565b600080600080600080600080610180898b031215620028f257600080fd5b620028fe8a8a6200255d565b9750604089013567ffffffffffffffff808211156200291c57600080fd5b6200292a8c838d016200261d565b985060608b01359150808211156200294157600080fd5b6200294f8c838d016200261d565b975060808b01359150808211156200296657600080fd5b620029748c838d016200261d565b965060a08b01359150808211156200298b57600080fd5b620029998c838d0162002733565b955060c08b0135915080821115620029b057600080fd5b50620029bf8b828c01620027ce565b93505060e08901359150620029d98a6101008b016200286c565b90509295985092959890939650565b60008060008060808587031215620029ff57600080fd5b843562002a0c8162002425565b9350602085013562002a1e8162002425565b93969395505050506040820135916060013590565b6000815180845260005b8181101562002a5b5760208185018101518683018201520162002a3d565b506000602082860101526020601f19601f83011685010191505092915050565b60a08152600062002a9060a083018862002a33565b828103602084015262002aa4818862002a33565b60ff969096166040840152505060608101929092526001600160a01b031660809091015292915050565b60006020828403121562002ae157600080fd5b81516200245e8162002425565b60006020828403121562002b0157600080fd5b5051919050565b805162002b158162002425565b919050565b805162002b15816200254e565b60006020828403121562002b3a57600080fd5b81516200245e816200254e565b634e487b7160e01b600052601160045260246000fd5b808202811582820484141762002b775762002b7762002b47565b92915050565b60008262002b9b57634e487b7160e01b600052601260045260246000fd5b500490565b805163ffffffff8116811462002b1557600080fd5b600080600083850361016081121562002bcd57600080fd5b845162002bda8162002425565b9350610120601f19820181131562002bf157600080fd5b62002bfb620024f3565b915062002c0b6020870162002b08565b825262002c1b6040870162002ba0565b602083015262002c2e6060870162002ba0565b60408301526080860151606083015260a0860151608083015262002c5560c0870162002b1a565b60a083015262002c6860e0870162002b1a565b60c08301526101008681015160e08401529086015190820152915062002c92610140850162002b08565b90509250925092565b6000610160820190506001600160a01b0380861683528085511660208401525063ffffffff6020850151166040830152604084015162002ce3606084018263ffffffff169052565b5060608401516080830152608084015160a083015260a084015162002d0c60c084018215159052565b5060c084015180151560e08401525060e0840151610100838101919091528401516101208301526001600160a01b038316610140830152949350505050565b6000815160408452805160408501526020810151606085015260408101516080850152606081015160a08086015262002d8860e086018262002a33565b905060808201519150603f198582030160c086015262002da9818362002a33565b9150506020830151848203602086015262002dc5828262002a33565b95945050505050565b855115158152600060206001600160a01b0381890151168184015260c0604084015262002dff60c084018862002d4b565b838103606085015262002e13818862002d4b565b9050838103608085015262002e29818762002d4b565b905083810360a08501528085518083528383019150838160051b84010184880160005b8381101562002e7e57601f1986840301855262002e6b83835162002d4b565b9487019492509086019060010162002e4c565b50909c9b505050505050505050505050565b6000602080838503121562002ea457600080fd5b825167ffffffffffffffff81111562002ebc57600080fd5b8301601f8101851362002ece57600080fd5b805162002edf62002758826200270c565b81815260059190911b8201830190838101908783111562002eff57600080fd5b928401925b8284101562002f2a57835162002f1a8162002425565b8252928401929084019062002f04565b979650505050505050565b634e487b7160e01b600052603260045260246000fd5b8181038181111562002b775762002b7762002b47565b6000808585111562002f7257600080fd5b8386111562002f8057600080fd5b5050820193919092039150565b6bffffffffffffffffffffffff19813581811691601485101562002fbb5780818660140360031b1b83161692505b505092915050565b8082018082111562002b775762002b7762002b4756fe60c06040523480156200001157600080fd5b5060405162000ffd38038062000ffd833981016040819052620000349162000254565b80828686600362000046838262000395565b50600462000055828262000395565b50505080600003620000825760405163392e1e2760e01b8152600060048201526024015b60405180910390fd5b6080526001600160a01b038116620000b157604051631e4fbdf760e01b81526000600482015260240162000079565b620000bc81620000db565b50620000ca8160016200012d565b505060ff1660a05250620004619050565b600580546001600160a01b038381166001600160a01b0319831681179093556040519116919082907f8be0079c531659141344cd1fd0a4f28419497f9722a3daafe3b4186f6b6457e090600090a35050565b6001600160a01b038216600081815260066020908152604091829020805460ff191685151590811790915591519182527f583b0aa0e528532caf4b907c11d7a8158a122fe2a6fb80cd9b09776ebea8d92d910160405180910390a25050565b634e487b7160e01b600052604160045260246000fd5b600082601f830112620001b457600080fd5b81516001600160401b0380821115620001d157620001d16200018c565b604051601f8301601f19908116603f01168101908282118183101715620001fc57620001fc6200018c565b81604052838152602092508660208588010111156200021a57600080fd5b600091505b838210156200023e57858201830151818301840152908201906200021f565b6000602085830101528094505050505092915050565b600080600080600060a086880312156200026d57600080fd5b85516001600160401b03808211156200028557600080fd5b6200029389838a01620001a2565b96506020880151915080821115620002aa57600080fd5b50620002b988828901620001a2565b945050604086015160ff81168114620002d157600080fd5b6060870151608088015191945092506001600160a01b0381168114620002f657600080fd5b809150509295509295909350565b600181811c908216806200031957607f821691505b6020821081036200033a57634e487b7160e01b600052602260045260246000fd5b50919050565b601f82111562000390576000816000526020600020601f850160051c810160208610156200036b5750805b601f850160051c820191505b818110156200038c5782815560010162000377565b5050505b505050565b81516001600160401b03811115620003b157620003b16200018c565b620003c981620003c2845462000304565b8462000340565b602080601f831160018114620004015760008415620003e85750858301515b600019600386901b1c1916600185901b1785556200038c565b600085815260208120601f198616915b82811015620004325788860151825594840194600190910190840162000411565b5085821015620004515787850151600019600388901b60f8161c191681555b5050505050600190811b01905550565b60805160a051610b6f6200048e600039600061018d0152600081816101b901526108000152610b6f6000f3fe608060405234801561001057600080fd5b506004361061011b5760003560e01c806370a08231116100b25780639dc29fac11610081578063cf456ae711610066578063cf456ae71461028f578063dd62ed3e146102a2578063f2fde38b146102db57600080fd5b80639dc29fac14610269578063a9059cbb1461027c57600080fd5b806370a0823114610215578063715018a61461023e5780638da5cb5b1461024657806395d89b411461026157600080fd5b8063313ce567116100ee578063313ce56714610186578063355274ea146101b757806340c10f19146101dd578063423afa66146101f257600080fd5b806306fdde0314610120578063095ea7b31461013e57806318160ddd1461016157806323b872dd14610173575b600080fd5b6101286102ee565b604051610135919061097c565b60405180910390f35b61015161014c3660046109e7565b610380565b6040519015158152602001610135565b6002545b604051908152602001610135565b610151610181366004610a11565b61039a565b60405160ff7f0000000000000000000000000000000000000000000000000000000000000000168152602001610135565b7f0000000000000000000000000000000000000000000000000000000000000000610165565b6101f06101eb3660046109e7565b6103be565b005b610151610200366004610a4d565b60066020526000908152604090205460ff1681565b610165610223366004610a4d565b6001600160a01b031660009081526020819052604090205490565b6101f06103fc565b6005546040516001600160a01b039091168152602001610135565b610128610410565b6101f06102773660046109e7565b61041f565b61015161028a3660046109e7565b610459565b6101f061029d366004610a6f565b610467565b6101656102b0366004610aab565b6001600160a01b03918216600090815260016020908152604080832093909416825291909152205490565b6101f06102e9366004610a4d565b610479565b6060600380546102fd90610ade565b80601f016020809104026020016040519081016040528092919081815260200182805461032990610ade565b80156103765780601f1061034b57610100808354040283529160200191610376565b820191906000526020600020905b81548152906001019060200180831161035957829003601f168201915b5050505050905090565b60003361038e8185856104bc565b60019150505b92915050565b6000336103a88582856104ce565b6103b385858561054c565b506001949350505050565b3360009081526006602052604090205460ff166103ee57604051634199e25360e11b815260040160405180910390fd5b6103f882826105ab565b5050565b6104046105e1565b61040e600061060e565b565b6060600480546102fd90610ade565b3360009081526006602052604090205460ff1661044f57604051634199e25360e11b815260040160405180910390fd5b6103f88282610678565b60003361038e81858561054c565b61046f6105e1565b6103f882826106ae565b6104816105e1565b6001600160a01b0381166104b057604051631e4fbdf760e01b8152600060048201526024015b60405180910390fd5b6104b98161060e565b50565b6104c9838383600161070d565b505050565b6001600160a01b038381166000908152600160209081526040808320938616835292905220546000198114610546578181101561053757604051637dc7a0d960e11b81526001600160a01b038416600482015260248101829052604481018390526064016104a7565b6105468484848403600061070d565b50505050565b6001600160a01b03831661057657604051634b637e8f60e11b8152600060048201526024016104a7565b6001600160a01b0382166105a05760405163ec442f0560e01b8152600060048201526024016104a7565b6104c98383836107e2565b6001600160a01b0382166105d55760405163ec442f0560e01b8152600060048201526024016104a7565b6103f8600083836107e2565b6005546001600160a01b0316331461040e5760405163118cdaa760e01b81523360048201526024016104a7565b600580546001600160a01b038381167fffffffffffffffffffffffff0000000000000000000000000000000000000000831681179093556040519116919082907f8be0079c531659141344cd1fd0a4f28419497f9722a3daafe3b4186f6b6457e090600090a35050565b6001600160a01b0382166106a257604051634b637e8f60e11b8152600060048201526024016104a7565b6103f8826000836107e2565b6001600160a01b038216600081815260066020908152604091829020805460ff191685151590811790915591519182527f583b0aa0e528532caf4b907c11d7a8158a122fe2a6fb80cd9b09776ebea8d92d910160405180910390a25050565b6001600160a01b0384166107375760405163e602df0560e01b8152600060048201526024016104a7565b6001600160a01b03831661076157604051634a1406b160e11b8152600060048201526024016104a7565b6001600160a01b038085166000908152600160209081526040808320938716835292905220829055801561054657826001600160a01b0316846001600160a01b03167f8c5be1e5ebec7d5bd14f71427d1e84f3dd0314c0f7b2291e5b200ac8c7c3b925846040516107d491815260200190565b60405180910390a350505050565b6107ed838383610852565b6001600160a01b0383166104c9576002547f0000000000000000000000000000000000000000000000000000000000000000908181111561084b5760405163279e7e1560e21b815260048101829052602481018390526044016104a7565b5050505050565b6001600160a01b03831661087d5780600260008282546108729190610b18565b909155506108ef9050565b6001600160a01b038316600090815260208190526040902054818110156108d05760405163391434e360e21b81526001600160a01b038516600482015260248101829052604481018390526064016104a7565b6001600160a01b03841660009081526020819052604090209082900390555b6001600160a01b03821661090b5760028054829003905561092a565b6001600160a01b03821660009081526020819052604090208054820190555b816001600160a01b0316836001600160a01b03167fddf252ad1be2c89b69c2b068fc378daa952ba7f163c4a11628f55a4df523b3ef8360405161096f91815260200190565b60405180910390a3505050565b60006020808352835180602085015260005b818110156109aa5785810183015185820160400152820161098e565b506000604082860101526040601f19601f8301168501019250505092915050565b80356001600160a01b03811681146109e257600080fd5b919050565b600080604083850312156109fa57600080fd5b610a03836109cb565b946020939093013593505050565b600080600060608486031215610a2657600080fd5b610a2f846109cb565b9250610a3d602085016109cb565b9150604084013590509250925092565b600060208284031215610a5f57600080fd5b610a68826109cb565b9392505050565b60008060408385031215610a8257600080fd5b610a8b836109cb565b915060208301358015158114610aa057600080fd5b809150509250929050565b60008060408385031215610abe57600080fd5b610ac7836109cb565b9150610ad5602084016109cb565b90509250929050565b600181811c90821680610af257607f821691505b602082108103610b1257634e487b7160e01b600052602260045260246000fd5b50919050565b8082018082111561039457634e487b7160e01b600052601160045260246000fdfea26469706673582212200d68669bd9d7a7cf36532e94088db26b3e972e6649ce1d5bd2b0e1bd50d1234764736f6c63430008170033a26469706673582212207d440297d24b45cba732534026e12d5f97a24fd5526102d93e90c1e3f6a2c68e64736f6c63430008170033",
    "linkReferences": {}
  },
  "methodIdentifiers": {
    "buyFor(address,address,uint256,uint256)": "f6819293",
    "createPIMWorkflow((bool,address),((uint256,uint256,uint256,string,string),bytes),((uint256,uint256,uint256,string,string),bytes),((uint256,uint256,uint256,string,string),bytes),((uint256,uint256,uint256,string,string),bytes)[],(string,string,uint8,uint256),uint256,(bool,uint256,address,address))": "6daf301a",
    "getIsGraduated(address)": "1248c803",
    "getIsImmutable(address)": "f402c2bb",
    "getLpTokenRecipient(address)": "de78c729",
    "getMigrationThreshold(address)": "d8354222",
    "isTrustedForwarder(address)": "572b6c05",
    "orchestratorFactory()": "2f36a25d",
    "pims(address)": "1615f657",
    "sellTo(address,address,uint256,uint256)": "ce7c83dd",
    "trustedForwarder()": "7da0a877"
  },
  "id": 96
}