{
  "abi": [
    {
      "type": "constructor",
      "inputs": [
        {
          "name": "_trustedForwarder",
          "type": "address",
          "internalType": "address"
        }
      ],
      "stateMutability": "nonpayable"
    },
    {
      "type": "function",
      "name": "acceptOwnership",
      "inputs": [],
      "outputs": [],
      "stateMutability": "nonpayable"
    },
    {
      "type": "function",
      "name": "createModule",
      "inputs": [
        {
          "name": "metadata",
          "type": "tuple",
          "internalType": "struct IModule_v1.Metadata",
          "components": [
            {
              "name": "majorVersion",
              "type": "uint256",
              "internalType": "uint256"
            },
            {
              "name": "minorVersion",
              "type": "uint256",
              "internalType": "uint256"
            },
            {
              "name": "url",
              "type": "string",
              "internalType": "string"
            },
            {
              "name": "title",
              "type": "string",
              "internalType": "string"
            }
          ]
        },
        {
          "name": "orchestrator",
          "type": "address",
          "internalType": "contract IOrchestrator_v1"
        },
        {
          "name": "configData",
          "type": "bytes",
          "internalType": "bytes"
        }
      ],
      "outputs": [
        {
          "name": "",
          "type": "address",
          "internalType": "address"
        }
      ],
      "stateMutability": "nonpayable"
    },
    {
      "type": "function",
      "name": "getBeaconAndId",
      "inputs": [
        {
          "name": "metadata",
          "type": "tuple",
          "internalType": "struct IModule_v1.Metadata",
          "components": [
            {
              "name": "majorVersion",
              "type": "uint256",
              "internalType": "uint256"
            },
            {
              "name": "minorVersion",
              "type": "uint256",
              "internalType": "uint256"
            },
            {
              "name": "url",
              "type": "string",
              "internalType": "string"
            },
            {
              "name": "title",
              "type": "string",
              "internalType": "string"
            }
          ]
        }
      ],
      "outputs": [
        {
          "name": "",
          "type": "address",
          "internalType": "contract IInverterBeacon_v1"
        },
        {
          "name": "",
          "type": "bytes32",
          "internalType": "bytes32"
        }
      ],
      "stateMutability": "view"
    },
    {
      "type": "function",
      "name": "governor",
      "inputs": [],
      "outputs": [
        {
          "name": "",
          "type": "address",
          "internalType": "address"
        }
      ],
      "stateMutability": "view"
    },
    {
      "type": "function",
      "name": "init",
      "inputs": [
        {
          "name": "_governor",
          "type": "address",
          "internalType": "address"
        }
      ],
      "outputs": [],
      "stateMutability": "nonpayable"
    },
    {
      "type": "function",
      "name": "isTrustedForwarder",
      "inputs": [
        {
          "name": "forwarder",
          "type": "address",
          "internalType": "address"
        }
      ],
      "outputs": [
        {
          "name": "",
          "type": "bool",
          "internalType": "bool"
        }
      ],
      "stateMutability": "view"
    },
    {
      "type": "function",
      "name": "owner",
      "inputs": [],
      "outputs": [
        {
          "name": "",
          "type": "address",
          "internalType": "address"
        }
      ],
      "stateMutability": "view"
    },
    {
      "type": "function",
      "name": "pendingOwner",
      "inputs": [],
      "outputs": [
        {
          "name": "",
          "type": "address",
          "internalType": "address"
        }
      ],
      "stateMutability": "view"
    },
    {
      "type": "function",
      "name": "registerMetadata",
      "inputs": [
        {
          "name": "metadata",
          "type": "tuple",
          "internalType": "struct IModule_v1.Metadata",
          "components": [
            {
              "name": "majorVersion",
              "type": "uint256",
              "internalType": "uint256"
            },
            {
              "name": "minorVersion",
              "type": "uint256",
              "internalType": "uint256"
            },
            {
              "name": "url",
              "type": "string",
              "internalType": "string"
            },
            {
              "name": "title",
              "type": "string",
              "internalType": "string"
            }
          ]
        },
        {
          "name": "beacon",
          "type": "address",
          "internalType": "contract IInverterBeacon_v1"
        }
      ],
      "outputs": [],
      "stateMutability": "nonpayable"
    },
    {
      "type": "function",
      "name": "renounceOwnership",
      "inputs": [],
      "outputs": [],
      "stateMutability": "nonpayable"
    },
    {
      "type": "function",
      "name": "supportsInterface",
      "inputs": [
        {
          "name": "interfaceId",
          "type": "bytes4",
          "internalType": "bytes4"
        }
      ],
      "outputs": [
        {
          "name": "",
          "type": "bool",
          "internalType": "bool"
        }
      ],
      "stateMutability": "view"
    },
    {
      "type": "function",
      "name": "transferOwnership",
      "inputs": [
        {
          "name": "newOwner",
          "type": "address",
          "internalType": "address"
        }
      ],
      "outputs": [],
      "stateMutability": "nonpayable"
    },
    {
      "type": "function",
      "name": "trustedForwarder",
      "inputs": [],
      "outputs": [
        {
          "name": "",
          "type": "address",
          "internalType": "address"
        }
      ],
      "stateMutability": "view"
    },
    {
      "type": "event",
      "name": "Initialized",
      "inputs": [
        {
          "name": "version",
          "type": "uint64",
          "indexed": false,
          "internalType": "uint64"
        }
      ],
      "anonymous": false
    },
    {
      "type": "event",
      "name": "MetadataRegistered",
      "inputs": [
        {
          "name": "metadata",
          "type": "tuple",
          "indexed": true,
          "internalType": "struct IModule_v1.Metadata",
          "components": [
            {
              "name": "majorVersion",
              "type": "uint256",
              "internalType": "uint256"
            },
            {
              "name": "minorVersion",
              "type": "uint256",
              "internalType": "uint256"
            },
            {
              "name": "url",
              "type": "string",
              "internalType": "string"
            },
            {
              "name": "title",
              "type": "string",
              "internalType": "string"
            }
          ]
        },
        {
          "name": "beacon",
          "type": "address",
          "indexed": true,
          "internalType": "contract IInverterBeacon_v1"
        }
      ],
      "anonymous": false
    },
    {
      "type": "event",
      "name": "ModuleCreated",
      "inputs": [
        {
          "name": "orchestrator",
          "type": "address",
          "indexed": true,
          "internalType": "address"
        },
        {
          "name": "module",
          "type": "address",
          "indexed": true,
          "internalType": "address"
        },
        {
          "name": "identifier",
          "type": "bytes32",
          "indexed": false,
          "internalType": "bytes32"
        }
      ],
      "anonymous": false
    },
    {
      "type": "event",
      "name": "OwnershipTransferStarted",
      "inputs": [
        {
          "name": "previousOwner",
          "type": "address",
          "indexed": true,
          "internalType": "address"
        },
        {
          "name": "newOwner",
          "type": "address",
          "indexed": true,
          "internalType": "address"
        }
      ],
      "anonymous": false
    },
    {
      "type": "event",
      "name": "OwnershipTransferred",
      "inputs": [
        {
          "name": "previousOwner",
          "type": "address",
          "indexed": true,
          "internalType": "address"
        },
        {
          "name": "newOwner",
          "type": "address",
          "indexed": true,
          "internalType": "address"
        }
      ],
      "anonymous": false
    },
    {
      "type": "error",
      "name": "InvalidInitialization",
      "inputs": []
    },
    {
      "type": "error",
      "name": "ModuleFactory__InvalidInverterBeacon",
      "inputs": []
    },
    {
      "type": "error",
      "name": "ModuleFactory__InvalidMetadata",
      "inputs": []
    },
    {
      "type": "error",
      "name": "ModuleFactory__MetadataAlreadyRegistered",
      "inputs": []
    },
    {
      "type": "error",
      "name": "ModuleFactory__UnregisteredMetadata",
      "inputs": []
    },
    {
      "type": "error",
      "name": "NotInitializing",
      "inputs": []
    },
    {
      "type": "error",
      "name": "OwnableInvalidOwner",
      "inputs": [
        {
          "name": "owner",
          "type": "address",
          "internalType": "address"
        }
      ]
    },
    {
      "type": "error",
      "name": "OwnableUnauthorizedAccount",
      "inputs": [
        {
          "name": "account",
          "type": "address",
          "internalType": "address"
        }
      ]
    }
  ],
  "bytecode": {
    "object": "0x60a060405234801561001057600080fd5b506040516115fb3803806115fb83398101604081905261002f91610040565b6001600160a01b0316608052610070565b60006020828403121561005257600080fd5b81516001600160a01b038116811461006957600080fd5b9392505050565b6080516115626100996000396000818161015c015281816101b10152610c6101526115626000f3fe608060405234801561001057600080fd5b50600436106100df5760003560e01c806379ba50971161008c578063cd11040611610066578063cd110406146101dd578063cda4206a146101f0578063e30c397814610222578063f2fde38b1461022a57600080fd5b806379ba5097146101a75780637da0a877146101af5780638da5cb5b146101d557600080fd5b8063572b6c05116100bd578063572b6c051461014c57806367ecfa5e1461018c578063715018a61461019f57600080fd5b806301ffc9a7146100e45780630c340a241461010c57806319ab453c14610137575b600080fd5b6100f76100f2366004610cd3565b61023d565b60405190151581526020015b60405180910390f35b60005461011f906001600160a01b031681565b6040516001600160a01b039091168152602001610103565b61014a610145366004610d31565b6102d6565b005b6100f761015a366004610d31565b7f00000000000000000000000000000000000000000000000000000000000000006001600160a01b0390811691161490565b61011f61019a366004610eb1565b610452565b61014a6105b3565b61014a6105c7565b7f000000000000000000000000000000000000000000000000000000000000000061011f565b61011f610641565b61014a6101eb366004610f3d565b610676565b6102036101fe366004610f8f565b6108ce565b604080516001600160a01b039093168352602083019190915201610103565b61011f6108fe565b61014a610238366004610d31565b610927565b60007fffffffff0000000000000000000000000000000000000000000000000000000082167f6b6dd4160000000000000000000000000000000000000000000000000000000014806102d057507f01ffc9a7000000000000000000000000000000000000000000000000000000007fffffffff000000000000000000000000000000000000000000000000000000008316145b92915050565b7ff0c57e16840df040f15088dc2f81fe391c3923bec73e23a9662efc9c229c6a00805468010000000000000000810460ff16159067ffffffffffffffff166000811580156103215750825b905060008267ffffffffffffffff16600114801561033e5750303b155b90508115801561034c575080155b15610383576040517ff92ee8a900000000000000000000000000000000000000000000000000000000815260040160405180910390fd5b84547fffffffffffffffffffffffffffffffffffffffffffffffff000000000000000016600117855583156103ce57845468ff00000000000000001916680100000000000000001785555b6103d7866109b9565b6000805473ffffffffffffffffffffffffffffffffffffffff19166001600160a01b038816179055831561044a57845468ff000000000000000019168555604051600181527fc7f505b2f371ae2175ee4913f4499e1f2633a7b5936321eed1cdaeb6115181d29060200160405180910390a15b505050505050565b60008061045e856108ce565b5090506001600160a01b0381166104a1576040517fbc885f3d00000000000000000000000000000000000000000000000000000000815260040160405180910390fd5b6000816040516104b090610cc6565b6001600160a01b039091168152602001604051809103906000f0801580156104dc573d6000803e3d6000fd5b506040517f42dfe9580000000000000000000000000000000000000000000000000000000081529091506001600160a01b038216906342dfe958906105299088908a90899060040161101c565b600060405180830381600087803b15801561054357600080fd5b505af1158015610557573d6000803e3d6000fd5b50505050806001600160a01b0316856001600160a01b03167f4aea2a8b5a2ff7c92db1aa60324a25bb8ac6b8751fb86ab49cc4bc554bdb9d4b610599896109ca565b60405190815260200160405180910390a395945050505050565b6105bb610a0a565b6105c56000610a77565b565b60006105d1610ac0565b9050806001600160a01b03166105e56108fe565b6001600160a01b031614610635576040517f118cdaa70000000000000000000000000000000000000000000000000000000081526001600160a01b03821660048201526024015b60405180910390fd5b61063e81610a77565b50565b6000807f9016d09d72d40fdae2fd8ceac6b6234c7706214fd39c1cd1e609a0528c1993005b546001600160a01b031692915050565b61067e610a0a565b8161068881610acf565b6106be576040517fadc1baa100000000000000000000000000000000000000000000000000000000815260040160405180910390fd5b8160006001600160a01b0316816001600160a01b0316635c60da1b6040518163ffffffff1660e01b8152600401602060405180830381865afa158015610708573d6000803e3d6000fd5b505050506040513d601f19601f8201168201806040525081019061072c91906110b5565b6001600160a01b031614806107c7575060008054906101000a90046001600160a01b03166001600160a01b0316816001600160a01b0316638da5cb5b6040518163ffffffff1660e01b8152600401602060405180830381865afa158015610797573d6000803e3d6000fd5b505050506040513d601f19601f820116820180604052508101906107bb91906110b5565b6001600160a01b031614155b156107fe576040517ff9596d3200000000000000000000000000000000000000000000000000000000815260040160405180910390fd5b60008061080a866108ce565b90925090506001600160a01b03821615610850576040517f9bc9dc5600000000000000000000000000000000000000000000000000000000815260040160405180910390fd5b60008181526001602052604090819020805473ffffffffffffffffffffffffffffffffffffffff19166001600160a01b03881690811790915590516108969088906110d2565b604051908190038120907f80ab88cbf796aefcd53c97e7ed0b90589abb1b2d40e9c9f7e0a26f20e4b118b590600090a3505050505050565b60008060006108dc846109ca565b6000818152600160205260409020546001600160a01b03169590945092505050565b6000807f237e158222e3e6968b72b9db0d8043aacf074ad9f650f0d1606b4d82ee432c00610666565b61092f610a0a565b7f237e158222e3e6968b72b9db0d8043aacf074ad9f650f0d1606b4d82ee432c00805473ffffffffffffffffffffffffffffffffffffffff19166001600160a01b0383169081178255610980610641565b6001600160a01b03167f38d16b8cac22d99fc7c124b9cd0de2d3fa1faef420bfe791d8c362d765e2270060405160405180910390a35050565b6109c1610b21565b61063e81610b88565b60008160000151826040015183606001516040516020016109ed93929190611133565b604051602081830303815290604052805190602001209050919050565b610a12610ac0565b6001600160a01b0316610a23610641565b6001600160a01b0316146105c557610a39610ac0565b6040517f118cdaa70000000000000000000000000000000000000000000000000000000081526001600160a01b03909116600482015260240161062c565b7f237e158222e3e6968b72b9db0d8043aacf074ad9f650f0d1606b4d82ee432c00805473ffffffffffffffffffffffffffffffffffffffff19168155610abc82610bd3565b5050565b6000610aca610c51565b905090565b6000816040015151600003610ae657506000919050565b816060015151600003610afb57506000919050565b8151158015610b0c57506020820151155b15610b1957506000919050565b506001919050565b7ff0c57e16840df040f15088dc2f81fe391c3923bec73e23a9662efc9c229c6a005468010000000000000000900460ff166105c5576040517fd7e6bcf800000000000000000000000000000000000000000000000000000000815260040160405180910390fd5b610b90610b21565b6001600160a01b038116610635576040517f1e4fbdf70000000000000000000000000000000000000000000000000000000081526000600482015260240161062c565b7f9016d09d72d40fdae2fd8ceac6b6234c7706214fd39c1cd1e609a0528c199300805473ffffffffffffffffffffffffffffffffffffffff1981166001600160a01b03848116918217845560405192169182907f8be0079c531659141344cd1fd0a4f28419497f9722a3daafe3b4186f6b6457e090600090a3505050565b6000366014336001600160a01b037f000000000000000000000000000000000000000000000000000000000000000016148015610c8e5750808210155b15610cbe57600036610ca08385611170565b610cab9282906111aa565b610cb4916111d4565b60601c9250505090565b339250505090565b6103108061121d83390190565b600060208284031215610ce557600080fd5b81357fffffffff0000000000000000000000000000000000000000000000000000000081168114610d1557600080fd5b9392505050565b6001600160a01b038116811461063e57600080fd5b600060208284031215610d4357600080fd5b8135610d1581610d1c565b7f4e487b7100000000000000000000000000000000000000000000000000000000600052604160045260246000fd5b600067ffffffffffffffff80841115610d9857610d98610d4e565b604051601f8501601f19908116603f01168101908282118183101715610dc057610dc0610d4e565b81604052809350858152868686011115610dd957600080fd5b858560208301376000602087830101525050509392505050565b600082601f830112610e0457600080fd5b610d1583833560208501610d7d565b600060808284031215610e2557600080fd5b6040516080810167ffffffffffffffff8282108183111715610e4957610e49610d4e565b8160405282935084358352602085013560208401526040850135915080821115610e7257600080fd5b610e7e86838701610df3565b60408401526060850135915080821115610e9757600080fd5b50610ea485828601610df3565b6060830152505092915050565b600080600060608486031215610ec657600080fd5b833567ffffffffffffffff80821115610ede57600080fd5b610eea87838801610e13565b945060208601359150610efc82610d1c565b90925060408501359080821115610f1257600080fd5b508401601f81018613610f2457600080fd5b610f3386823560208401610d7d565b9150509250925092565b60008060408385031215610f5057600080fd5b823567ffffffffffffffff811115610f6757600080fd5b610f7385828601610e13565b9250506020830135610f8481610d1c565b809150509250929050565b600060208284031215610fa157600080fd5b813567ffffffffffffffff811115610fb857600080fd5b610fc484828501610e13565b949350505050565b60005b83811015610fe7578181015183820152602001610fcf565b50506000910152565b60008151808452611008816020860160208601610fcc565b601f01601f19169290920160200192915050565b6001600160a01b038416815260606020820152825160608201526020830151608082015260006040840151608060a084015261105b60e0840182610ff0565b905060608501517fffffffffffffffffffffffffffffffffffffffffffffffffffffffffffffffa08483030160c08501526110968282610ff0565b91505082810360408401526110ab8185610ff0565b9695505050505050565b6000602082840312156110c757600080fd5b8151610d1581610d1c565b81518152602082015160208201526000604083015180516110fa816040860160208501610fcc565b601f19915081601f8201168401905060608501518051611121816040850160208501610fcc565b601f0190921601604001949350505050565b8381526000835161114b816020850160208801610fcc565b80830190508351611163816020840160208801610fcc565b0160200195945050505050565b818103818111156102d0577f4e487b7100000000000000000000000000000000000000000000000000000000600052601160045260246000fd5b600080858511156111ba57600080fd5b838611156111c757600080fd5b5050820193919092039150565b7fffffffffffffffffffffffffffffffffffffffff00000000000000000000000081358181169160148510156112145780818660140360031b1b83161692505b50509291505056fe60a060405234801561001057600080fd5b5060405161031038038061031083398101604081905261002f9161006d565b6001600160a01b03811660808190526040517f1cf3b03a6cf19fa2baba4df148e9dcabedea7f8a5c07840e207e5c089be95d3e90600090a25061009d565b60006020828403121561007f57600080fd5b81516001600160a01b038116811461009657600080fd5b9392505050565b6080516102526100be60003960008181606d015261010501526102526000f3fe60806040526004361061001e5760003560e01c806354fd4d5014610028575b610026610056565b005b34801561003457600080fd5b5061003d610068565b6040805192835260208301919091520160405180910390f35b610066610061610101565b610197565b565b6000807f000000000000000000000000000000000000000000000000000000000000000073ffffffffffffffffffffffffffffffffffffffff166354fd4d506040518163ffffffff1660e01b81526004016040805180830381865afa1580156100d5573d6000803e3d6000fd5b505050506040513d601f19601f820116820180604052508101906100f991906101bb565b915091509091565b60007f000000000000000000000000000000000000000000000000000000000000000073ffffffffffffffffffffffffffffffffffffffff16635c60da1b6040518163ffffffff1660e01b8152600401602060405180830381865afa15801561016e573d6000803e3d6000fd5b505050506040513d601f19601f8201168201806040525081019061019291906101df565b905090565b3660008037600080366000845af43d6000803e8080156101b6573d6000f35b3d6000fd5b600080604083850312156101ce57600080fd5b505080516020909101519092909150565b6000602082840312156101f157600080fd5b815173ffffffffffffffffffffffffffffffffffffffff8116811461021557600080fd5b939250505056fea264697066735822122064f94b1397a423a6a66b823fa50325478b2e731491837ef5a922d5bb4fde2b8c64736f6c63430008170033a26469706673582212208ede57bdb979fa46cf0063438a905ac2cca59ff62d1c3d950fc79c406ccc73ce64736f6c63430008170033",
    "linkReferences": {}
  },
  "methodIdentifiers": {
    "acceptOwnership()": "79ba5097",
    "createModule((uint256,uint256,string,string),address,bytes)": "67ecfa5e",
    "getBeaconAndId((uint256,uint256,string,string))": "cda4206a",
    "governor()": "0c340a24",
    "init(address)": "19ab453c",
    "isTrustedForwarder(address)": "572b6c05",
    "owner()": "8da5cb5b",
    "pendingOwner()": "e30c3978",
    "registerMetadata((uint256,uint256,string,string),address)": "cd110406",
    "renounceOwnership()": "715018a6",
    "supportsInterface(bytes4)": "01ffc9a7",
    "transferOwnership(address)": "f2fde38b",
    "trustedForwarder()": "7da0a877"
  },
  "id": 106
}