{
  "abi": [
    {
      "type": "constructor",
      "inputs": [
        {
          "name": "_trustedForwarder",
          "type": "address",
          "internalType": "address"
        }
      ],
      "stateMutability": "nonpayable"
    },
    {
      "type": "function",
      "name": "acceptOwnership",
      "inputs": [],
      "outputs": [],
      "stateMutability": "nonpayable"
    },
    {
      "type": "function",
      "name": "createModule",
      "inputs": [
        {
          "name": "metadata",
          "type": "tuple",
          "internalType": "struct IModule_v1.Metadata",
          "components": [
            {
              "name": "majorVersion",
              "type": "uint256",
              "internalType": "uint256"
            },
            {
              "name": "minorVersion",
              "type": "uint256",
              "internalType": "uint256"
            },
            {
              "name": "url",
              "type": "string",
              "internalType": "string"
            },
            {
              "name": "title",
              "type": "string",
              "internalType": "string"
            }
          ]
        },
        {
          "name": "orchestrator",
          "type": "address",
          "internalType": "contract IOrchestrator_v1"
        },
        {
          "name": "configData",
          "type": "bytes",
          "internalType": "bytes"
        },
        {
          "name": "workflowConfig",
          "type": "tuple",
          "internalType": "struct IOrchestratorFactory_v1.WorkflowConfig",
          "components": [
            {
              "name": "independentUpdates",
              "type": "bool",
              "internalType": "bool"
            },
            {
              "name": "independentUpdateAdmin",
              "type": "address",
              "internalType": "address"
            }
          ]
        }
      ],
      "outputs": [
        {
          "name": "",
          "type": "address",
          "internalType": "address"
        }
      ],
      "stateMutability": "nonpayable"
    },
    {
      "type": "function",
      "name": "getBeaconAndId",
      "inputs": [
        {
          "name": "metadata",
          "type": "tuple",
          "internalType": "struct IModule_v1.Metadata",
          "components": [
            {
              "name": "majorVersion",
              "type": "uint256",
              "internalType": "uint256"
            },
            {
              "name": "minorVersion",
              "type": "uint256",
              "internalType": "uint256"
            },
            {
              "name": "url",
              "type": "string",
              "internalType": "string"
            },
            {
              "name": "title",
              "type": "string",
              "internalType": "string"
            }
          ]
        }
      ],
      "outputs": [
        {
          "name": "",
          "type": "address",
          "internalType": "contract IInverterBeacon_v1"
        },
        {
          "name": "",
          "type": "bytes32",
          "internalType": "bytes32"
        }
      ],
      "stateMutability": "view"
    },
    {
      "type": "function",
      "name": "getOrchestratorOfProxy",
      "inputs": [
        {
          "name": "proxy",
          "type": "address",
          "internalType": "address"
        }
      ],
      "outputs": [
        {
          "name": "",
          "type": "address",
          "internalType": "address"
        }
      ],
      "stateMutability": "view"
    },
    {
      "type": "function",
      "name": "governor",
      "inputs": [],
      "outputs": [
        {
          "name": "",
          "type": "address",
          "internalType": "address"
        }
      ],
      "stateMutability": "view"
    },
    {
      "type": "function",
      "name": "init",
      "inputs": [
        {
          "name": "_governor",
          "type": "address",
          "internalType": "address"
        },
        {
          "name": "initialMetadataRegistration",
          "type": "tuple[]",
          "internalType": "struct IModule_v1.Metadata[]",
          "components": [
            {
              "name": "majorVersion",
              "type": "uint256",
              "internalType": "uint256"
            },
            {
              "name": "minorVersion",
              "type": "uint256",
              "internalType": "uint256"
            },
            {
              "name": "url",
              "type": "string",
              "internalType": "string"
            },
            {
              "name": "title",
              "type": "string",
              "internalType": "string"
            }
          ]
        },
        {
          "name": "initialBeaconRegistration",
          "type": "address[]",
          "internalType": "contract IInverterBeacon_v1[]"
        }
      ],
      "outputs": [],
      "stateMutability": "nonpayable"
    },
    {
      "type": "function",
      "name": "isTrustedForwarder",
      "inputs": [
        {
          "name": "forwarder",
          "type": "address",
          "internalType": "address"
        }
      ],
      "outputs": [
        {
          "name": "",
          "type": "bool",
          "internalType": "bool"
        }
      ],
      "stateMutability": "view"
    },
    {
      "type": "function",
      "name": "owner",
      "inputs": [],
      "outputs": [
        {
          "name": "",
          "type": "address",
          "internalType": "address"
        }
      ],
      "stateMutability": "view"
    },
    {
      "type": "function",
      "name": "pendingOwner",
      "inputs": [],
      "outputs": [
        {
          "name": "",
          "type": "address",
          "internalType": "address"
        }
      ],
      "stateMutability": "view"
    },
    {
      "type": "function",
      "name": "registerMetadata",
      "inputs": [
        {
          "name": "metadata",
          "type": "tuple",
          "internalType": "struct IModule_v1.Metadata",
          "components": [
            {
              "name": "majorVersion",
              "type": "uint256",
              "internalType": "uint256"
            },
            {
              "name": "minorVersion",
              "type": "uint256",
              "internalType": "uint256"
            },
            {
              "name": "url",
              "type": "string",
              "internalType": "string"
            },
            {
              "name": "title",
              "type": "string",
              "internalType": "string"
            }
          ]
        },
        {
          "name": "beacon",
          "type": "address",
          "internalType": "contract IInverterBeacon_v1"
        }
      ],
      "outputs": [],
      "stateMutability": "nonpayable"
    },
    {
      "type": "function",
      "name": "renounceOwnership",
      "inputs": [],
      "outputs": [],
      "stateMutability": "nonpayable"
    },
    {
      "type": "function",
      "name": "supportsInterface",
      "inputs": [
        {
          "name": "interfaceId",
          "type": "bytes4",
          "internalType": "bytes4"
        }
      ],
      "outputs": [
        {
          "name": "",
          "type": "bool",
          "internalType": "bool"
        }
      ],
      "stateMutability": "view"
    },
    {
      "type": "function",
      "name": "transferOwnership",
      "inputs": [
        {
          "name": "newOwner",
          "type": "address",
          "internalType": "address"
        }
      ],
      "outputs": [],
      "stateMutability": "nonpayable"
    },
    {
      "type": "function",
      "name": "trustedForwarder",
      "inputs": [],
      "outputs": [
        {
          "name": "",
          "type": "address",
          "internalType": "address"
        }
      ],
      "stateMutability": "view"
    },
    {
      "type": "event",
      "name": "Initialized",
      "inputs": [
        {
          "name": "version",
          "type": "uint64",
          "indexed": false,
          "internalType": "uint64"
        }
      ],
      "anonymous": false
    },
    {
      "type": "event",
      "name": "MetadataRegistered",
      "inputs": [
        {
          "name": "metadata",
          "type": "tuple",
          "indexed": true,
          "internalType": "struct IModule_v1.Metadata",
          "components": [
            {
              "name": "majorVersion",
              "type": "uint256",
              "internalType": "uint256"
            },
            {
              "name": "minorVersion",
              "type": "uint256",
              "internalType": "uint256"
            },
            {
              "name": "url",
              "type": "string",
              "internalType": "string"
            },
            {
              "name": "title",
              "type": "string",
              "internalType": "string"
            }
          ]
        },
        {
          "name": "beacon",
          "type": "address",
          "indexed": true,
          "internalType": "contract IInverterBeacon_v1"
        }
      ],
      "anonymous": false
    },
    {
      "type": "event",
      "name": "ModuleCreated",
      "inputs": [
        {
          "name": "orchestrator",
          "type": "address",
          "indexed": true,
          "internalType": "address"
        },
        {
          "name": "module",
          "type": "address",
          "indexed": true,
          "internalType": "address"
        },
        {
          "name": "identifier",
          "type": "bytes32",
          "indexed": false,
          "internalType": "bytes32"
        }
      ],
      "anonymous": false
    },
    {
      "type": "event",
      "name": "OwnershipTransferStarted",
      "inputs": [
        {
          "name": "previousOwner",
          "type": "address",
          "indexed": true,
          "internalType": "address"
        },
        {
          "name": "newOwner",
          "type": "address",
          "indexed": true,
          "internalType": "address"
        }
      ],
      "anonymous": false
    },
    {
      "type": "event",
      "name": "OwnershipTransferred",
      "inputs": [
        {
          "name": "previousOwner",
          "type": "address",
          "indexed": true,
          "internalType": "address"
        },
        {
          "name": "newOwner",
          "type": "address",
          "indexed": true,
          "internalType": "address"
        }
      ],
      "anonymous": false
    },
    {
      "type": "error",
      "name": "InvalidInitialization",
      "inputs": []
    },
    {
      "type": "error",
      "name": "ModuleFactory__InvalidInitialRegistrationData",
      "inputs": []
    },
    {
      "type": "error",
      "name": "ModuleFactory__InvalidInverterBeacon",
      "inputs": []
    },
    {
      "type": "error",
      "name": "ModuleFactory__InvalidMetadata",
      "inputs": []
    },
    {
      "type": "error",
      "name": "ModuleFactory__MetadataAlreadyRegistered",
      "inputs": []
    },
    {
      "type": "error",
      "name": "ModuleFactory__UnregisteredMetadata",
      "inputs": []
    },
    {
      "type": "error",
      "name": "NotInitializing",
      "inputs": []
    },
    {
      "type": "error",
      "name": "OwnableInvalidOwner",
      "inputs": [
        {
          "name": "owner",
          "type": "address",
          "internalType": "address"
        }
      ]
    },
    {
      "type": "error",
      "name": "OwnableUnauthorizedAccount",
      "inputs": [
        {
          "name": "account",
          "type": "address",
          "internalType": "address"
        }
      ]
    }
  ],
  "bytecode": {
    "object": "0x60a060405234801561001057600080fd5b5060405161240538038061240583398101604081905261002f91610040565b6001600160a01b0316608052610070565b60006020828403121561005257600080fd5b81516001600160a01b038116811461006957600080fd5b9392505050565b60805161236c610099600039600081816101b6015281816102130152610c7e015261236c6000f3fe60806040523480156200001157600080fd5b5060043610620000fd5760003560e01c806379ba50971162000097578063cd110406116200006e578063cd1104061462000242578063cda4206a1462000259578063e30c39781462000290578063f2fde38b146200029a57600080fd5b806379ba509714620002075780637da0a87714620002115780638da5cb5b146200023857600080fd5b80633cdb014511620000d85780633cdb0145146200018a578063572b6c0514620001a35780636e61902614620001e6578063715018a614620001fd57600080fd5b806301ffc9a714620001025780630c340a24146200012e578063179550da146200015b575b600080fd5b620001196200011336600462000d07565b620002b1565b60405190151581526020015b60405180910390f35b60005462000142906001600160a01b031681565b6040516001600160a01b03909116815260200162000125565b620001426200016c36600462000d50565b6001600160a01b039081166000908152600260205260409020541690565b620001a16200019b36600462000fb8565b620002e9565b005b62000119620001b436600462000d50565b7f00000000000000000000000000000000000000000000000000000000000000006001600160a01b0390811691161490565b62000142620001f7366004620010b1565b620004b1565b620001a162000668565b620001a162000680565b7f000000000000000000000000000000000000000000000000000000000000000062000142565b62000142620006e8565b620001a16200025336600462001196565b6200071d565b620002706200026a366004620011ee565b62000737565b604080516001600160a01b03909316835260208301919091520162000125565b6200014262000769565b620001a1620002ab36600462000d50565b62000793565b60006001600160e01b03198216631d5d7bad60e21b1480620002e357506301ffc9a760e01b6001600160e01b03198316145b92915050565b7ff0c57e16840df040f15088dc2f81fe391c3923bec73e23a9662efc9c229c6a00805468010000000000000000810460ff16159067ffffffffffffffff16600081158015620003355750825b905060008267ffffffffffffffff166001148015620003535750303b155b90508115801562000362575080155b15620003815760405163f92ee8a960e01b815260040160405180910390fd5b845467ffffffffffffffff191660011785558315620003b657845468ff00000000000000001916680100000000000000001785555b620003c1886200081c565b600080546001600160a01b0319166001600160a01b038a1617905586518651811462000400576040516317158bf160e31b815260040160405180910390fd5b60005b818110156200045957620004508982815181106200042557620004256200122f565b60200260200101518983815181106200044257620004426200122f565b602002602001015162000831565b60010162000403565b50508315620004a757845468ff000000000000000019168555604051600181527fc7f505b2f371ae2175ee4913f4499e1f2633a7b5936321eed1cdaeb6115181d29060200160405180910390a15b5050505050505050565b600080620004bf8662000737565b5090506001600160a01b038116620004ea5760405163bc885f3d60e01b815260040160405180910390fd5b8251600090156200054d5781846020015160405180602001604052806000815250604051620005199062000ceb565b620005279392919062001299565b604051809103906000f08015801562000544573d6000803e3d6000fd5b5090506200058d565b816040516200055c9062000cf9565b6001600160a01b039091168152602001604051809103906000f08015801562000589573d6000803e3d6000fd5b5090505b60405163085bfd2b60e31b81526001600160a01b038216906342dfe95890620005bf9089908b908a90600401620012d0565b600060405180830381600087803b158015620005da57600080fd5b505af1158015620005ef573d6000803e3d6000fd5b505050506001600160a01b03818116600081815260026020526040902080546001600160a01b0319169289169283179055907f4aea2a8b5a2ff7c92db1aa60324a25bb8ac6b8751fb86ab49cc4bc554bdb9d4b6200064d8a62000a39565b60405190815260200160405180910390a39695505050505050565b6200067262000a7b565b6200067e600062000ad7565b565b60006200068c62000b11565b9050806001600160a01b0316620006a262000769565b6001600160a01b031614620006da5760405163118cdaa760e01b81526001600160a01b03821660048201526024015b60405180910390fd5b620006e58162000ad7565b50565b6000807f9016d09d72d40fdae2fd8ceac6b6234c7706214fd39c1cd1e609a0528c1993005b546001600160a01b031692915050565b6200072762000a7b565b62000733828262000831565b5050565b6000806000620007478462000a39565b6000818152600160205260409020546001600160a01b03169590945092505050565b6000807f237e158222e3e6968b72b9db0d8043aacf074ad9f650f0d1606b4d82ee432c006200070d565b6200079d62000a7b565b7f237e158222e3e6968b72b9db0d8043aacf074ad9f650f0d1606b4d82ee432c0080546001600160a01b0319166001600160a01b0383169081178255620007e3620006e8565b6001600160a01b03167f38d16b8cac22d99fc7c124b9cd0de2d3fa1faef420bfe791d8c362d765e2270060405160405180910390a35050565b6200082662000b22565b620006e58162000b71565b816200083d8162000ba7565b6200085b5760405163adc1baa160e01b815260040160405180910390fd5b8160006001600160a01b0316816001600160a01b0316635c60da1b6040518163ffffffff1660e01b8152600401602060405180830381865afa158015620008a6573d6000803e3d6000fd5b505050506040513d601f19601f82011682018060405250810190620008cc919062001351565b6001600160a01b031614806200096b575060008054906101000a90046001600160a01b03166001600160a01b0316816001600160a01b0316638da5cb5b6040518163ffffffff1660e01b8152600401602060405180830381865afa15801562000939573d6000803e3d6000fd5b505050506040513d601f19601f820116820180604052508101906200095f919062001351565b6001600160a01b031614155b156200098a57604051637cacb69960e11b815260040160405180910390fd5b600080620009988662000737565b90925090506001600160a01b03821615620009c657604051634de4ee2b60e11b815260040160405180910390fd5b6000818152600160205260409081902080546001600160a01b0319166001600160a01b038816908117909155905162000a0190889062001371565b604051908190038120907f80ab88cbf796aefcd53c97e7ed0b90589abb1b2d40e9c9f7e0a26f20e4b118b590600090a3505050505050565b600081600001518260400151836060015160405160200162000a5e93929190620013d6565b604051602081830303815290604052805190602001209050919050565b62000a8562000b11565b6001600160a01b031662000a98620006e8565b6001600160a01b0316146200067e5762000ab162000b11565b60405163118cdaa760e01b81526001600160a01b039091166004820152602401620006d1565b7f237e158222e3e6968b72b9db0d8043aacf074ad9f650f0d1606b4d82ee432c0080546001600160a01b0319168155620007338262000bfd565b600062000b1d62000c6e565b905090565b7ff0c57e16840df040f15088dc2f81fe391c3923bec73e23a9662efc9c229c6a005468010000000000000000900460ff166200067e57604051631afcd79f60e31b815260040160405180910390fd5b62000b7b62000b22565b6001600160a01b038116620006da57604051631e4fbdf760e01b815260006004820152602401620006d1565b600081604001515160000362000bbf57506000919050565b81606001515160000362000bd557506000919050565b815115801562000be757506020820151155b1562000bf557506000919050565b506001919050565b7f9016d09d72d40fdae2fd8ceac6b6234c7706214fd39c1cd1e609a0528c19930080546001600160a01b031981166001600160a01b03848116918217845560405192169182907f8be0079c531659141344cd1fd0a4f28419497f9722a3daafe3b4186f6b6457e090600090a3505050565b6000366014336001600160a01b037f00000000000000000000000000000000000000000000000000000000000000001614801562000cac5750808210155b1562000ce35760003662000cc1838562001405565b62000cce92829062001427565b62000cd99162001453565b60601c9250505090565b339250505090565b610bc5806200148a83390190565b6102e8806200204f83390190565b60006020828403121562000d1a57600080fd5b81356001600160e01b03198116811462000d3357600080fd5b9392505050565b6001600160a01b0381168114620006e557600080fd5b60006020828403121562000d6357600080fd5b813562000d338162000d3a565b634e487b7160e01b600052604160045260246000fd5b6040805190810167ffffffffffffffff8111828210171562000dac5762000dac62000d70565b60405290565b604051601f8201601f1916810167ffffffffffffffff8111828210171562000dde5762000dde62000d70565b604052919050565b600067ffffffffffffffff82111562000e035762000e0362000d70565b5060051b60200190565b600067ffffffffffffffff83111562000e2a5762000e2a62000d70565b62000e3f601f8401601f191660200162000db2565b905082815283838301111562000e5457600080fd5b828260208301376000602084830101529392505050565b600082601f83011262000e7d57600080fd5b62000d338383356020850162000e0d565b60006080828403121562000ea157600080fd5b6040516080810167ffffffffffffffff828210818311171562000ec85762000ec862000d70565b816040528293508435835260208501356020840152604085013591508082111562000ef257600080fd5b62000f008683870162000e6b565b6040840152606085013591508082111562000f1a57600080fd5b5062000f298582860162000e6b565b6060830152505092915050565b600082601f83011262000f4857600080fd5b8135602062000f6162000f5b8362000de6565b62000db2565b8083825260208201915060208460051b87010193508684111562000f8457600080fd5b602086015b8481101562000fad57803562000f9f8162000d3a565b835291830191830162000f89565b509695505050505050565b60008060006060848603121562000fce57600080fd5b833562000fdb8162000d3a565b925060208481013567ffffffffffffffff8082111562000ffa57600080fd5b818701915087601f8301126200100f57600080fd5b81356200102062000f5b8262000de6565b81815260059190911b8301840190848101908a8311156200104057600080fd5b8585015b838110156200107d578035858111156200105e5760008081fd5b6200106e8d89838a010162000e8e565b84525091860191860162001044565b509650505060408701359250808311156200109757600080fd5b5050620010a78682870162000f36565b9150509250925092565b60008060008084860360a0811215620010c957600080fd5b853567ffffffffffffffff80821115620010e257600080fd5b620010f089838a0162000e8e565b965060208801359150620011048262000d3a565b909450604087013590808211156200111b57600080fd5b508601601f810188136200112e57600080fd5b6200113f8882356020840162000e0d565b9350506040605f19820112156200115557600080fd5b506200116062000d86565b606086013580151581146200117457600080fd5b81526080860135620011868162000d3a565b6020820152939692955090935050565b60008060408385031215620011aa57600080fd5b823567ffffffffffffffff811115620011c257600080fd5b620011d08582860162000e8e565b9250506020830135620011e38162000d3a565b809150509250929050565b6000602082840312156200120157600080fd5b813567ffffffffffffffff8111156200121957600080fd5b620012278482850162000e8e565b949350505050565b634e487b7160e01b600052603260045260246000fd5b60005b838110156200126257818101518382015260200162001248565b50506000910152565b600081518084526200128581602086016020860162001245565b601f01601f19169290920160200192915050565b60006001600160a01b03808616835280851660208401525060606040830152620012c760608301846200126b565b95945050505050565b6001600160a01b038416815260606020820152825160608201526020830151608082015260006040840151608060a08401526200131160e08401826200126b565b90506060850151605f198483030160c08501526200133082826200126b565b91505082810360408401526200134781856200126b565b9695505050505050565b6000602082840312156200136457600080fd5b815162000d338162000d3a565b81518152602082015160208201526000604083015180516200139b81604086016020850162001245565b601f19915081601f8201168401905060608501518051620013c481604085016020850162001245565b601f0190921601604001949350505050565b838152606060208201526000620013f160608301856200126b565b82810360408401526200134781856200126b565b81810381811115620002e357634e487b7160e01b600052601160045260246000fd5b600080858511156200143857600080fd5b838611156200144657600080fd5b5050820193919092039150565b6bffffffffffffffffffffffff198135818116916014851015620014815780818660140360031b1b83161692505b50509291505056fe60c06040523480156200001157600080fd5b5060405162000bc538038062000bc58339810160408190526200003491620004e5565b826001600160a01b0316630cbcae706040518163ffffffff1660e01b81526004016020604051808303816000875af115801562000075573d6000803e3d6000fd5b505050506040513d601f19601f820116820180604052508101906200009b9190620005ca565b81620000a88282620001c9565b50506040516301ffc9a760e01b81526311bbcf3b60e31b60048201526001600160a01b038416906301ffc9a790602401602060405180830381865afa158015620000f6573d6000803e3d6000fd5b505050506040513d601f19601f820116820180604052508101906200011c9190620005ea565b6200013a5760405163cca1645360e01b815260040160405180910390fd5b6001600160a01b0380841660a08190529083166080526040805163054fd4d560e41b815281516354fd4d50926004808401939192918290030181865afa15801562000189573d6000803e3d6000fd5b505050506040513d601f19601f82011682018060405250810190620001af91906200060e565b600155600055620001c0826200022f565b50505062000651565b620001d482620002a1565b6040516001600160a01b038316907fbc7cd75a20ee27fd9adebab32041f755214dbc6bffa90cc0225b39da2e5c2d3b90600090a280511562000221576200021c828262000321565b505050565b6200022b6200039e565b5050565b7f7e644d79422f17c01e4894b5f4f588d331ebfa28653d42ae832dc59e38c9798f6200027160008051602062000ba5833981519152546001600160a01b031690565b604080516001600160a01b03928316815291841660208301520160405180910390a16200029e81620003c0565b50565b806001600160a01b03163b600003620002dd57604051634c9c8ce360e01b81526001600160a01b03821660048201526024015b60405180910390fd5b807f360894a13ba1a3210667c828492db98dca3e2076cc3735a920a3ca505d382bbc5b80546001600160a01b0319166001600160a01b039290921691909117905550565b6060600080846001600160a01b03168460405162000340919062000633565b600060405180830381855af49150503d80600081146200037d576040519150601f19603f3d011682016040523d82523d6000602084013e62000382565b606091505b5090925090506200039585838362000403565b95945050505050565b3415620003be5760405163b398979f60e01b815260040160405180910390fd5b565b6001600160a01b038116620003ec57604051633173bdd160e11b815260006004820152602401620002d4565b8060008051602062000ba583398151915262000300565b6060826200041c57620004168262000469565b62000462565b81511580156200043457506001600160a01b0384163b155b156200045f57604051639996b31560e01b81526001600160a01b0385166004820152602401620002d4565b50805b9392505050565b8051156200047a5780518082602001fd5b604051630a12f52160e11b815260040160405180910390fd5b6001600160a01b03811681146200029e57600080fd5b634e487b7160e01b600052604160045260246000fd5b60005b83811015620004dc578181015183820152602001620004c2565b50506000910152565b600080600060608486031215620004fb57600080fd5b8351620005088162000493565b60208501519093506200051b8162000493565b60408501519092506001600160401b03808211156200053957600080fd5b818601915086601f8301126200054e57600080fd5b815181811115620005635762000563620004a9565b604051601f8201601f19908116603f011681019083821181831017156200058e576200058e620004a9565b81604052828152896020848701011115620005a857600080fd5b620005bb836020830160208801620004bf565b80955050505050509250925092565b600060208284031215620005dd57600080fd5b8151620004628162000493565b600060208284031215620005fd57600080fd5b815180151581146200046257600080fd5b600080604083850312156200062257600080fd5b505080516020909101519092909150565b6000825162000647818460208701620004bf565b9190910192915050565b60805160a0516105296200067c6000396000818160e6015261017f01526000605e01526105296000f3fe60806040526004361061001e5760003560e01c806354fd4d5014610028575b610026610054565b005b34801561003457600080fd5b506000546001546040805192835260208301919091520160405180910390f35b6001600160a01b037f00000000000000000000000000000000000000000000000000000000000000001633036100d95763cebefa5160e01b6000357fffffffff0000000000000000000000000000000000000000000000000000000016016100c0576100be6100e1565b565b60405163759196e560e11b815260040160405180910390fd5b6100be610206565b61017d7f00000000000000000000000000000000000000000000000000000000000000006001600160a01b0316630cbcae706040518163ffffffff1660e01b81526004016020604051808303816000875af1158015610144573d6000803e3d6000fd5b505050506040513d601f19601f820116820180604052508101906101689190610477565b60405180602001604052806000815250610216565b7f00000000000000000000000000000000000000000000000000000000000000006001600160a01b03166354fd4d506040518163ffffffff1660e01b81526004016040805180830381865afa1580156101da573d6000803e3d6000fd5b505050506040513d601f19601f820116820180604052508101906101fe91906104a0565b600155600055565b6100be610211610275565b6102ad565b61021f826102d1565b6040516001600160a01b038316907fbc7cd75a20ee27fd9adebab32041f755214dbc6bffa90cc0225b39da2e5c2d3b90600090a280511561026957610264828261035a565b505050565b6102716103d0565b5050565b60006102a87f360894a13ba1a3210667c828492db98dca3e2076cc3735a920a3ca505d382bbc546001600160a01b031690565b905090565b3660008037600080366000845af43d6000803e8080156102cc573d6000f35b3d6000fd5b806001600160a01b03163b60000361030c57604051634c9c8ce360e01b81526001600160a01b03821660048201526024015b60405180910390fd5b7f360894a13ba1a3210667c828492db98dca3e2076cc3735a920a3ca505d382bbc805473ffffffffffffffffffffffffffffffffffffffff19166001600160a01b0392909216919091179055565b6060600080846001600160a01b03168460405161037791906104c4565b600060405180830381855af49150503d80600081146103b2576040519150601f19603f3d011682016040523d82523d6000602084013e6103b7565b606091505b50915091506103c78583836103ef565b95945050505050565b34156100be5760405163b398979f60e01b815260040160405180910390fd5b606082610404576103ff8261044e565b610447565b815115801561041b57506001600160a01b0384163b155b1561044457604051639996b31560e01b81526001600160a01b0385166004820152602401610303565b50805b9392505050565b80511561045e5780518082602001fd5b604051630a12f52160e11b815260040160405180910390fd5b60006020828403121561048957600080fd5b81516001600160a01b038116811461044757600080fd5b600080604083850312156104b357600080fd5b505080516020909101519092909150565b6000825160005b818110156104e557602081860181015185830152016104cb565b50600092019182525091905056fea2646970667358221220995a013d3f5af243af458e54d334e51a225d112b2c25c48dc62c7a3b63b03bd664736f6c63430008170033b53127684a568b3173ae13b9f8a6016e243e63b6e8ee1178d6a717850b5d610360a060405234801561001057600080fd5b506040516102e83803806102e883398101604081905261002f9161006d565b6001600160a01b03811660808190526040517f1cf3b03a6cf19fa2baba4df148e9dcabedea7f8a5c07840e207e5c089be95d3e90600090a25061009d565b60006020828403121561007f57600080fd5b81516001600160a01b038116811461009657600080fd5b9392505050565b60805161022b6100bd60003960008181606d015260f8015261022b6000f3fe60806040526004361061001e5760003560e01c806354fd4d5014610028575b610026610056565b005b34801561003457600080fd5b5061003d610068565b6040805192835260208301919091520160405180910390f35b6100666100616100f4565b61017d565b565b6000807f00000000000000000000000000000000000000000000000000000000000000006001600160a01b03166354fd4d506040518163ffffffff1660e01b81526004016040805180830381865afa1580156100c8573d6000803e3d6000fd5b505050506040513d601f19601f820116820180604052508101906100ec91906101a1565b915091509091565b60007f00000000000000000000000000000000000000000000000000000000000000006001600160a01b0316635c60da1b6040518163ffffffff1660e01b8152600401602060405180830381865afa158015610154573d6000803e3d6000fd5b505050506040513d601f19601f8201168201806040525081019061017891906101c5565b905090565b3660008037600080366000845af43d6000803e80801561019c573d6000f35b3d6000fd5b600080604083850312156101b457600080fd5b505080516020909101519092909150565b6000602082840312156101d757600080fd5b81516001600160a01b03811681146101ee57600080fd5b939250505056fea2646970667358221220494aca5b3c909285d507e77d29127a89d11b83ca5c04ec1f8fb550dcccec6ec064736f6c63430008170033a2646970667358221220222c97574560490ff614e0350cf75056160eaf78340dc5e799535b1ed5c540a964736f6c63430008170033",
    "linkReferences": {}
  },
  "methodIdentifiers": {
    "acceptOwnership()": "79ba5097",
    "createModule((uint256,uint256,string,string),address,bytes,(bool,address))": "6e619026",
    "getBeaconAndId((uint256,uint256,string,string))": "cda4206a",
    "getOrchestratorOfProxy(address)": "179550da",
    "governor()": "0c340a24",
    "init(address,(uint256,uint256,string,string)[],address[])": "3cdb0145",
    "isTrustedForwarder(address)": "572b6c05",
    "owner()": "8da5cb5b",
    "pendingOwner()": "e30c3978",
    "registerMetadata((uint256,uint256,string,string),address)": "cd110406",
    "renounceOwnership()": "715018a6",
    "supportsInterface(bytes4)": "01ffc9a7",
    "transferOwnership(address)": "f2fde38b",
    "trustedForwarder()": "7da0a877"
  },
  "id": 105
}