{
  "abi": [
    {
      "type": "constructor",
      "inputs": [
        {
          "name": "_trustedForwarder",
          "type": "address",
          "internalType": "address"
        }
      ],
      "stateMutability": "nonpayable"
    },
    {
      "type": "function",
      "name": "acceptOwnership",
      "inputs": [],
      "outputs": [],
      "stateMutability": "nonpayable"
    },
    {
      "type": "function",
      "name": "createModule",
      "inputs": [
        {
          "name": "metadata",
          "type": "tuple",
          "internalType": "struct IModule_v1.Metadata",
          "components": [
            {
              "name": "majorVersion",
              "type": "uint256",
              "internalType": "uint256"
            },
            {
              "name": "minorVersion",
              "type": "uint256",
              "internalType": "uint256"
            },
            {
              "name": "url",
              "type": "string",
              "internalType": "string"
            },
            {
              "name": "title",
              "type": "string",
              "internalType": "string"
            }
          ]
        },
        {
          "name": "orchestrator",
          "type": "address",
          "internalType": "contract IOrchestrator_v1"
        },
        {
          "name": "configData",
          "type": "bytes",
          "internalType": "bytes"
        }
      ],
      "outputs": [
        {
          "name": "",
          "type": "address",
          "internalType": "address"
        }
      ],
      "stateMutability": "nonpayable"
    },
    {
      "type": "function",
      "name": "getBeaconAndId",
      "inputs": [
        {
          "name": "metadata",
          "type": "tuple",
          "internalType": "struct IModule_v1.Metadata",
          "components": [
            {
              "name": "majorVersion",
              "type": "uint256",
              "internalType": "uint256"
            },
            {
              "name": "minorVersion",
              "type": "uint256",
              "internalType": "uint256"
            },
            {
              "name": "url",
              "type": "string",
              "internalType": "string"
            },
            {
              "name": "title",
              "type": "string",
              "internalType": "string"
            }
          ]
        }
      ],
      "outputs": [
        {
          "name": "",
          "type": "address",
          "internalType": "contract IInverterBeacon_v1"
        },
        {
          "name": "",
          "type": "bytes32",
          "internalType": "bytes32"
        }
      ],
      "stateMutability": "view"
    },
    {
      "type": "function",
      "name": "governor",
      "inputs": [],
      "outputs": [
        {
          "name": "",
          "type": "address",
          "internalType": "address"
        }
      ],
      "stateMutability": "view"
    },
    {
      "type": "function",
      "name": "init",
      "inputs": [
        {
          "name": "_governor",
          "type": "address",
          "internalType": "address"
        }
      ],
      "outputs": [],
      "stateMutability": "nonpayable"
    },
    {
      "type": "function",
      "name": "isTrustedForwarder",
      "inputs": [
        {
          "name": "forwarder",
          "type": "address",
          "internalType": "address"
        }
      ],
      "outputs": [
        {
          "name": "",
          "type": "bool",
          "internalType": "bool"
        }
      ],
      "stateMutability": "view"
    },
    {
      "type": "function",
      "name": "owner",
      "inputs": [],
      "outputs": [
        {
          "name": "",
          "type": "address",
          "internalType": "address"
        }
      ],
      "stateMutability": "view"
    },
    {
      "type": "function",
      "name": "pendingOwner",
      "inputs": [],
      "outputs": [
        {
          "name": "",
          "type": "address",
          "internalType": "address"
        }
      ],
      "stateMutability": "view"
    },
    {
      "type": "function",
      "name": "registerMetadata",
      "inputs": [
        {
          "name": "metadata",
          "type": "tuple",
          "internalType": "struct IModule_v1.Metadata",
          "components": [
            {
              "name": "majorVersion",
              "type": "uint256",
              "internalType": "uint256"
            },
            {
              "name": "minorVersion",
              "type": "uint256",
              "internalType": "uint256"
            },
            {
              "name": "url",
              "type": "string",
              "internalType": "string"
            },
            {
              "name": "title",
              "type": "string",
              "internalType": "string"
            }
          ]
        },
        {
          "name": "beacon",
          "type": "address",
          "internalType": "contract IInverterBeacon_v1"
        }
      ],
      "outputs": [],
      "stateMutability": "nonpayable"
    },
    {
      "type": "function",
      "name": "renounceOwnership",
      "inputs": [],
      "outputs": [],
      "stateMutability": "nonpayable"
    },
    {
      "type": "function",
      "name": "supportsInterface",
      "inputs": [
        {
          "name": "interfaceId",
          "type": "bytes4",
          "internalType": "bytes4"
        }
      ],
      "outputs": [
        {
          "name": "",
          "type": "bool",
          "internalType": "bool"
        }
      ],
      "stateMutability": "view"
    },
    {
      "type": "function",
      "name": "transferOwnership",
      "inputs": [
        {
          "name": "newOwner",
          "type": "address",
          "internalType": "address"
        }
      ],
      "outputs": [],
      "stateMutability": "nonpayable"
    },
    {
      "type": "function",
      "name": "trustedForwarder",
      "inputs": [],
      "outputs": [
        {
          "name": "",
          "type": "address",
          "internalType": "address"
        }
      ],
      "stateMutability": "view"
    },
    {
      "type": "event",
      "name": "Initialized",
      "inputs": [
        {
          "name": "version",
          "type": "uint64",
          "indexed": false,
          "internalType": "uint64"
        }
      ],
      "anonymous": false
    },
    {
      "type": "event",
      "name": "MetadataRegistered",
      "inputs": [
        {
          "name": "metadata",
          "type": "tuple",
          "indexed": true,
          "internalType": "struct IModule_v1.Metadata",
          "components": [
            {
              "name": "majorVersion",
              "type": "uint256",
              "internalType": "uint256"
            },
            {
              "name": "minorVersion",
              "type": "uint256",
              "internalType": "uint256"
            },
            {
              "name": "url",
              "type": "string",
              "internalType": "string"
            },
            {
              "name": "title",
              "type": "string",
              "internalType": "string"
            }
          ]
        },
        {
          "name": "beacon",
          "type": "address",
          "indexed": true,
          "internalType": "contract IInverterBeacon_v1"
        }
      ],
      "anonymous": false
    },
    {
      "type": "event",
      "name": "ModuleCreated",
      "inputs": [
        {
          "name": "orchestrator",
          "type": "address",
          "indexed": true,
          "internalType": "address"
        },
        {
          "name": "module",
          "type": "address",
          "indexed": true,
          "internalType": "address"
        },
        {
          "name": "identifier",
          "type": "bytes32",
          "indexed": false,
          "internalType": "bytes32"
        }
      ],
      "anonymous": false
    },
    {
      "type": "event",
      "name": "OwnershipTransferStarted",
      "inputs": [
        {
          "name": "previousOwner",
          "type": "address",
          "indexed": true,
          "internalType": "address"
        },
        {
          "name": "newOwner",
          "type": "address",
          "indexed": true,
          "internalType": "address"
        }
      ],
      "anonymous": false
    },
    {
      "type": "event",
      "name": "OwnershipTransferred",
      "inputs": [
        {
          "name": "previousOwner",
          "type": "address",
          "indexed": true,
          "internalType": "address"
        },
        {
          "name": "newOwner",
          "type": "address",
          "indexed": true,
          "internalType": "address"
        }
      ],
      "anonymous": false
    },
    {
      "type": "error",
      "name": "InvalidInitialization",
      "inputs": []
    },
    {
      "type": "error",
      "name": "ModuleFactory__InvalidInverterBeacon",
      "inputs": []
    },
    {
      "type": "error",
      "name": "ModuleFactory__InvalidMetadata",
      "inputs": []
    },
    {
      "type": "error",
      "name": "ModuleFactory__MetadataAlreadyRegistered",
      "inputs": []
    },
    {
      "type": "error",
      "name": "ModuleFactory__UnregisteredMetadata",
      "inputs": []
    },
    {
      "type": "error",
      "name": "NotInitializing",
      "inputs": []
    },
    {
      "type": "error",
      "name": "OwnableInvalidOwner",
      "inputs": [
        {
          "name": "owner",
          "type": "address",
          "internalType": "address"
        }
      ]
    },
    {
      "type": "error",
      "name": "OwnableUnauthorizedAccount",
      "inputs": [
        {
          "name": "account",
          "type": "address",
          "internalType": "address"
        }
      ]
    }
  ],
  "bytecode": {
    "object": "0x60a060405234801561001057600080fd5b5060405161165e38038061165e83398101604081905261002f91610040565b6001600160a01b0316608052610070565b60006020828403121561005257600080fd5b81516001600160a01b038116811461006957600080fd5b9392505050565b6080516115c56100996000396000818161015c015281816101b10152610cc401526115c56000f3fe608060405234801561001057600080fd5b50600436106100df5760003560e01c806379ba50971161008c578063cd11040611610066578063cd110406146101dd578063cda4206a146101f0578063e30c397814610222578063f2fde38b1461022a57600080fd5b806379ba5097146101a75780637da0a877146101af5780638da5cb5b146101d557600080fd5b8063572b6c05116100bd578063572b6c051461014c57806367ecfa5e1461018c578063715018a61461019f57600080fd5b806301ffc9a7146100e45780630c340a241461010c57806319ab453c14610137575b600080fd5b6100f76100f2366004610d36565b61023d565b60405190151581526020015b60405180910390f35b60005461011f906001600160a01b031681565b6040516001600160a01b039091168152602001610103565b61014a610145366004610d94565b6102d6565b005b6100f761015a366004610d94565b7f00000000000000000000000000000000000000000000000000000000000000006001600160a01b0390811691161490565b61011f61019a366004610f14565b610489565b61014a6105ea565b61014a6105fe565b7f000000000000000000000000000000000000000000000000000000000000000061011f565b61011f610678565b61014a6101eb366004610fa0565b6106ad565b6102036101fe366004610ff2565b610910565b604080516001600160a01b039093168352602083019190915201610103565b61011f610940565b61014a610238366004610d94565b610969565b60007fffffffff0000000000000000000000000000000000000000000000000000000082167f6b6dd4160000000000000000000000000000000000000000000000000000000014806102d057507f01ffc9a7000000000000000000000000000000000000000000000000000000007fffffffff000000000000000000000000000000000000000000000000000000008316145b92915050565b7ff0c57e16840df040f15088dc2f81fe391c3923bec73e23a9662efc9c229c6a00805468010000000000000000810460ff16159067ffffffffffffffff166000811580156103215750825b905060008267ffffffffffffffff16600114801561033e5750303b155b90508115801561034c575080155b15610383576040517ff92ee8a900000000000000000000000000000000000000000000000000000000815260040160405180910390fd5b84547fffffffffffffffffffffffffffffffffffffffffffffffff000000000000000016600117855583156103e45784547fffffffffffffffffffffffffffffffffffffffffffffff00ffffffffffffffff16680100000000000000001785555b6103ed86610a06565b600080547fffffffffffffffffffffffff0000000000000000000000000000000000000000166001600160a01b03881617905583156104815784547fffffffffffffffffffffffffffffffffffffffffffffff00ffffffffffffffff168555604051600181527fc7f505b2f371ae2175ee4913f4499e1f2633a7b5936321eed1cdaeb6115181d29060200160405180910390a15b505050505050565b60008061049585610910565b5090506001600160a01b0381166104d8576040517fbc885f3d00000000000000000000000000000000000000000000000000000000815260040160405180910390fd5b6000816040516104e790610d29565b6001600160a01b039091168152602001604051809103906000f080158015610513573d6000803e3d6000fd5b506040517f42dfe9580000000000000000000000000000000000000000000000000000000081529091506001600160a01b038216906342dfe958906105609088908a90899060040161107f565b600060405180830381600087803b15801561057a57600080fd5b505af115801561058e573d6000803e3d6000fd5b50505050806001600160a01b0316856001600160a01b03167f4aea2a8b5a2ff7c92db1aa60324a25bb8ac6b8751fb86ab49cc4bc554bdb9d4b6105d089610a17565b60405190815260200160405180910390a395945050505050565b6105f2610a57565b6105fc6000610ac4565b565b6000610608610b18565b9050806001600160a01b031661061c610940565b6001600160a01b03161461066c576040517f118cdaa70000000000000000000000000000000000000000000000000000000081526001600160a01b03821660048201526024015b60405180910390fd5b61067581610ac4565b50565b6000807f9016d09d72d40fdae2fd8ceac6b6234c7706214fd39c1cd1e609a0528c1993005b546001600160a01b031692915050565b6106b5610a57565b816106bf81610b27565b6106f5576040517fadc1baa100000000000000000000000000000000000000000000000000000000815260040160405180910390fd5b8160006001600160a01b0316816001600160a01b0316635c60da1b6040518163ffffffff1660e01b8152600401602060405180830381865afa15801561073f573d6000803e3d6000fd5b505050506040513d601f19601f820116820180604052508101906107639190611118565b6001600160a01b031614806107fe575060008054906101000a90046001600160a01b03166001600160a01b0316816001600160a01b0316638da5cb5b6040518163ffffffff1660e01b8152600401602060405180830381865afa1580156107ce573d6000803e3d6000fd5b505050506040513d601f19601f820116820180604052508101906107f29190611118565b6001600160a01b031614155b15610835576040517ff9596d3200000000000000000000000000000000000000000000000000000000815260040160405180910390fd5b60008061084186610910565b90925090506001600160a01b03821615610887576040517f9bc9dc5600000000000000000000000000000000000000000000000000000000815260040160405180910390fd5b6000818152600160205260409081902080547fffffffffffffffffffffffff0000000000000000000000000000000000000000166001600160a01b03881690811790915590516108d8908890611135565b604051908190038120907f80ab88cbf796aefcd53c97e7ed0b90589abb1b2d40e9c9f7e0a26f20e4b118b590600090a3505050505050565b600080600061091e84610a17565b6000818152600160205260409020546001600160a01b03169590945092505050565b6000807f237e158222e3e6968b72b9db0d8043aacf074ad9f650f0d1606b4d82ee432c0061069d565b610971610a57565b7f237e158222e3e6968b72b9db0d8043aacf074ad9f650f0d1606b4d82ee432c0080547fffffffffffffffffffffffff0000000000000000000000000000000000000000166001600160a01b03831690811782556109cd610678565b6001600160a01b03167f38d16b8cac22d99fc7c124b9cd0de2d3fa1faef420bfe791d8c362d765e2270060405160405180910390a35050565b610a0e610b79565b61067581610be0565b6000816000015182604001518360600151604051602001610a3a93929190611196565b604051602081830303815290604052805190602001209050919050565b610a5f610b18565b6001600160a01b0316610a70610678565b6001600160a01b0316146105fc57610a86610b18565b6040517f118cdaa70000000000000000000000000000000000000000000000000000000081526001600160a01b039091166004820152602401610663565b7f237e158222e3e6968b72b9db0d8043aacf074ad9f650f0d1606b4d82ee432c0080547fffffffffffffffffffffffff0000000000000000000000000000000000000000168155610b1482610c2b565b5050565b6000610b22610cb4565b905090565b6000816040015151600003610b3e57506000919050565b816060015151600003610b5357506000919050565b8151158015610b6457506020820151155b15610b7157506000919050565b506001919050565b7ff0c57e16840df040f15088dc2f81fe391c3923bec73e23a9662efc9c229c6a005468010000000000000000900460ff166105fc576040517fd7e6bcf800000000000000000000000000000000000000000000000000000000815260040160405180910390fd5b610be8610b79565b6001600160a01b03811661066c576040517f1e4fbdf700000000000000000000000000000000000000000000000000000000815260006004820152602401610663565b7f9016d09d72d40fdae2fd8ceac6b6234c7706214fd39c1cd1e609a0528c19930080547fffffffffffffffffffffffff000000000000000000000000000000000000000081166001600160a01b03848116918217845560405192169182907f8be0079c531659141344cd1fd0a4f28419497f9722a3daafe3b4186f6b6457e090600090a3505050565b6000366014336001600160a01b037f000000000000000000000000000000000000000000000000000000000000000016148015610cf15750808210155b15610d2157600036610d0383856111d3565b610d0e92829061120d565b610d1791611237565b60601c9250505090565b339250505090565b6103108061128083390190565b600060208284031215610d4857600080fd5b81357fffffffff0000000000000000000000000000000000000000000000000000000081168114610d7857600080fd5b9392505050565b6001600160a01b038116811461067557600080fd5b600060208284031215610da657600080fd5b8135610d7881610d7f565b7f4e487b7100000000000000000000000000000000000000000000000000000000600052604160045260246000fd5b600067ffffffffffffffff80841115610dfb57610dfb610db1565b604051601f8501601f19908116603f01168101908282118183101715610e2357610e23610db1565b81604052809350858152868686011115610e3c57600080fd5b858560208301376000602087830101525050509392505050565b600082601f830112610e6757600080fd5b610d7883833560208501610de0565b600060808284031215610e8857600080fd5b6040516080810167ffffffffffffffff8282108183111715610eac57610eac610db1565b8160405282935084358352602085013560208401526040850135915080821115610ed557600080fd5b610ee186838701610e56565b60408401526060850135915080821115610efa57600080fd5b50610f0785828601610e56565b6060830152505092915050565b600080600060608486031215610f2957600080fd5b833567ffffffffffffffff80821115610f4157600080fd5b610f4d87838801610e76565b945060208601359150610f5f82610d7f565b90925060408501359080821115610f7557600080fd5b508401601f81018613610f8757600080fd5b610f9686823560208401610de0565b9150509250925092565b60008060408385031215610fb357600080fd5b823567ffffffffffffffff811115610fca57600080fd5b610fd685828601610e76565b9250506020830135610fe781610d7f565b809150509250929050565b60006020828403121561100457600080fd5b813567ffffffffffffffff81111561101b57600080fd5b61102784828501610e76565b949350505050565b60005b8381101561104a578181015183820152602001611032565b50506000910152565b6000815180845261106b81602086016020860161102f565b601f01601f19169290920160200192915050565b6001600160a01b038416815260606020820152825160608201526020830151608082015260006040840151608060a08401526110be60e0840182611053565b905060608501517fffffffffffffffffffffffffffffffffffffffffffffffffffffffffffffffa08483030160c08501526110f98282611053565b915050828103604084015261110e8185611053565b9695505050505050565b60006020828403121561112a57600080fd5b8151610d7881610d7f565b815181526020820151602082015260006040830151805161115d81604086016020850161102f565b601f19915081601f820116840190506060850151805161118481604085016020850161102f565b601f0190921601604001949350505050565b838152600083516111ae81602085016020880161102f565b808301905083516111c681602084016020880161102f565b0160200195945050505050565b818103818111156102d0577f4e487b7100000000000000000000000000000000000000000000000000000000600052601160045260246000fd5b6000808585111561121d57600080fd5b8386111561122a57600080fd5b5050820193919092039150565b7fffffffffffffffffffffffffffffffffffffffff00000000000000000000000081358181169160148510156112775780818660140360031b1b83161692505b50509291505056fe60a060405234801561001057600080fd5b5060405161031038038061031083398101604081905261002f9161006d565b6001600160a01b03811660808190526040517f1cf3b03a6cf19fa2baba4df148e9dcabedea7f8a5c07840e207e5c089be95d3e90600090a25061009d565b60006020828403121561007f57600080fd5b81516001600160a01b038116811461009657600080fd5b9392505050565b6080516102526100be60003960008181606d015261010501526102526000f3fe60806040526004361061001e5760003560e01c806354fd4d5014610028575b610026610056565b005b34801561003457600080fd5b5061003d610068565b6040805192835260208301919091520160405180910390f35b610066610061610101565b610197565b565b6000807f000000000000000000000000000000000000000000000000000000000000000073ffffffffffffffffffffffffffffffffffffffff166354fd4d506040518163ffffffff1660e01b81526004016040805180830381865afa1580156100d5573d6000803e3d6000fd5b505050506040513d601f19601f820116820180604052508101906100f991906101bb565b915091509091565b60007f000000000000000000000000000000000000000000000000000000000000000073ffffffffffffffffffffffffffffffffffffffff16635c60da1b6040518163ffffffff1660e01b8152600401602060405180830381865afa15801561016e573d6000803e3d6000fd5b505050506040513d601f19601f8201168201806040525081019061019291906101df565b905090565b3660008037600080366000845af43d6000803e8080156101b6573d6000f35b3d6000fd5b600080604083850312156101ce57600080fd5b505080516020909101519092909150565b6000602082840312156101f157600080fd5b815173ffffffffffffffffffffffffffffffffffffffff8116811461021557600080fd5b939250505056fea26469706673582212209908cb3271107f039c38b8a63b52f61bbfd897b6e9fb78f4daf123da665818c864736f6c63430008170033a26469706673582212206d3aa77463985d532df8f283051e1a3e4f04de95d6bb60c88bc1c60e11b1763264736f6c63430008170033",
    "linkReferences": {}
  },
  "methodIdentifiers": {
    "acceptOwnership()": "79ba5097",
    "createModule((uint256,uint256,string,string),address,bytes)": "67ecfa5e",
    "getBeaconAndId((uint256,uint256,string,string))": "cda4206a",
    "governor()": "0c340a24",
    "init(address)": "19ab453c",
    "isTrustedForwarder(address)": "572b6c05",
    "owner()": "8da5cb5b",
    "pendingOwner()": "e30c3978",
    "registerMetadata((uint256,uint256,string,string),address)": "cd110406",
    "renounceOwnership()": "715018a6",
    "supportsInterface(bytes4)": "01ffc9a7",
    "transferOwnership(address)": "f2fde38b",
    "trustedForwarder()": "7da0a877"
  },
  "id": 107
}