{
  "abi": [
    {
      "type": "constructor",
      "inputs": [
        {
          "name": "_reverter",
          "type": "address",
          "internalType": "address"
        },
        {
          "name": "_trustedForwarder",
          "type": "address",
          "internalType": "address"
        }
      ],
      "stateMutability": "nonpayable"
    },
    {
      "type": "function",
      "name": "acceptOwnership",
      "inputs": [],
      "outputs": [],
      "stateMutability": "nonpayable"
    },
    {
      "type": "function",
      "name": "createAndInitModule",
      "inputs": [
        {
          "name": "metadata",
          "type": "tuple",
          "internalType": "struct IModule_v1.Metadata",
          "components": [
            {
              "name": "majorVersion",
              "type": "uint256",
              "internalType": "uint256"
            },
            {
              "name": "minorVersion",
              "type": "uint256",
              "internalType": "uint256"
            },
            {
              "name": "patchVersion",
              "type": "uint256",
              "internalType": "uint256"
            },
            {
              "name": "url",
              "type": "string",
              "internalType": "string"
            },
            {
              "name": "title",
              "type": "string",
              "internalType": "string"
            }
          ]
        },
        {
          "name": "orchestrator",
          "type": "address",
          "internalType": "contract IOrchestrator_v1"
        },
        {
          "name": "configData",
          "type": "bytes",
          "internalType": "bytes"
        },
        {
          "name": "workflowConfig",
          "type": "tuple",
          "internalType": "struct IOrchestratorFactory_v1.WorkflowConfig",
          "components": [
            {
              "name": "independentUpdates",
              "type": "bool",
              "internalType": "bool"
            },
            {
              "name": "independentUpdateAdmin",
              "type": "address",
              "internalType": "address"
            }
          ]
        }
      ],
      "outputs": [
        {
          "name": "",
          "type": "address",
          "internalType": "address"
        }
      ],
      "stateMutability": "nonpayable"
    },
    {
      "type": "function",
      "name": "createModuleProxy",
      "inputs": [
        {
          "name": "metadata",
          "type": "tuple",
          "internalType": "struct IModule_v1.Metadata",
          "components": [
            {
              "name": "majorVersion",
              "type": "uint256",
              "internalType": "uint256"
            },
            {
              "name": "minorVersion",
              "type": "uint256",
              "internalType": "uint256"
            },
            {
              "name": "patchVersion",
              "type": "uint256",
              "internalType": "uint256"
            },
            {
              "name": "url",
              "type": "string",
              "internalType": "string"
            },
            {
              "name": "title",
              "type": "string",
              "internalType": "string"
            }
          ]
        },
        {
          "name": "orchestrator",
          "type": "address",
          "internalType": "contract IOrchestrator_v1"
        },
        {
          "name": "workflowConfig",
          "type": "tuple",
          "internalType": "struct IOrchestratorFactory_v1.WorkflowConfig",
          "components": [
            {
              "name": "independentUpdates",
              "type": "bool",
              "internalType": "bool"
            },
            {
              "name": "independentUpdateAdmin",
              "type": "address",
              "internalType": "address"
            }
          ]
        }
      ],
      "outputs": [
        {
          "name": "",
          "type": "address",
          "internalType": "address"
        }
      ],
      "stateMutability": "nonpayable"
    },
    {
      "type": "function",
      "name": "getBeaconAndId",
      "inputs": [
        {
          "name": "metadata",
          "type": "tuple",
          "internalType": "struct IModule_v1.Metadata",
          "components": [
            {
              "name": "majorVersion",
              "type": "uint256",
              "internalType": "uint256"
            },
            {
              "name": "minorVersion",
              "type": "uint256",
              "internalType": "uint256"
            },
            {
              "name": "patchVersion",
              "type": "uint256",
              "internalType": "uint256"
            },
            {
              "name": "url",
              "type": "string",
              "internalType": "string"
            },
            {
              "name": "title",
              "type": "string",
              "internalType": "string"
            }
          ]
        }
      ],
      "outputs": [
        {
          "name": "",
          "type": "address",
          "internalType": "contract IInverterBeacon_v1"
        },
        {
          "name": "",
          "type": "bytes32",
          "internalType": "bytes32"
        }
      ],
      "stateMutability": "view"
    },
    {
      "type": "function",
      "name": "getOrchestratorOfProxy",
      "inputs": [
        {
          "name": "proxy",
          "type": "address",
          "internalType": "address"
        }
      ],
      "outputs": [
        {
          "name": "",
          "type": "address",
          "internalType": "address"
        }
      ],
      "stateMutability": "view"
    },
    {
      "type": "function",
      "name": "governor",
      "inputs": [],
      "outputs": [
        {
          "name": "",
          "type": "address",
          "internalType": "address"
        }
      ],
      "stateMutability": "view"
    },
    {
      "type": "function",
      "name": "init",
      "inputs": [
        {
          "name": "_governor",
          "type": "address",
          "internalType": "address"
        },
        {
          "name": "initialMetadataRegistration",
          "type": "tuple[]",
          "internalType": "struct IModule_v1.Metadata[]",
          "components": [
            {
              "name": "majorVersion",
              "type": "uint256",
              "internalType": "uint256"
            },
            {
              "name": "minorVersion",
              "type": "uint256",
              "internalType": "uint256"
            },
            {
              "name": "patchVersion",
              "type": "uint256",
              "internalType": "uint256"
            },
            {
              "name": "url",
              "type": "string",
              "internalType": "string"
            },
            {
              "name": "title",
              "type": "string",
              "internalType": "string"
            }
          ]
        },
        {
          "name": "initialBeaconRegistration",
          "type": "address[]",
          "internalType": "contract IInverterBeacon_v1[]"
        }
      ],
      "outputs": [],
      "stateMutability": "nonpayable"
    },
    {
      "type": "function",
      "name": "isTrustedForwarder",
      "inputs": [
        {
          "name": "forwarder",
          "type": "address",
          "internalType": "address"
        }
      ],
      "outputs": [
        {
          "name": "",
          "type": "bool",
          "internalType": "bool"
        }
      ],
      "stateMutability": "view"
    },
    {
      "type": "function",
      "name": "owner",
      "inputs": [],
      "outputs": [
        {
          "name": "",
          "type": "address",
          "internalType": "address"
        }
      ],
      "stateMutability": "view"
    },
    {
      "type": "function",
      "name": "pendingOwner",
      "inputs": [],
      "outputs": [
        {
          "name": "",
          "type": "address",
          "internalType": "address"
        }
      ],
      "stateMutability": "view"
    },
    {
      "type": "function",
      "name": "registerMetadata",
      "inputs": [
        {
          "name": "metadata",
          "type": "tuple",
          "internalType": "struct IModule_v1.Metadata",
          "components": [
            {
              "name": "majorVersion",
              "type": "uint256",
              "internalType": "uint256"
            },
            {
              "name": "minorVersion",
              "type": "uint256",
              "internalType": "uint256"
            },
            {
              "name": "patchVersion",
              "type": "uint256",
              "internalType": "uint256"
            },
            {
              "name": "url",
              "type": "string",
              "internalType": "string"
            },
            {
              "name": "title",
              "type": "string",
              "internalType": "string"
            }
          ]
        },
        {
          "name": "beacon",
          "type": "address",
          "internalType": "contract IInverterBeacon_v1"
        }
      ],
      "outputs": [],
      "stateMutability": "nonpayable"
    },
    {
      "type": "function",
      "name": "renounceOwnership",
      "inputs": [],
      "outputs": [],
      "stateMutability": "nonpayable"
    },
    {
      "type": "function",
      "name": "reverter",
      "inputs": [],
      "outputs": [
        {
          "name": "",
          "type": "address",
          "internalType": "address"
        }
      ],
      "stateMutability": "view"
    },
    {
      "type": "function",
      "name": "supportsInterface",
      "inputs": [
        {
          "name": "interfaceId",
          "type": "bytes4",
          "internalType": "bytes4"
        }
      ],
      "outputs": [
        {
          "name": "",
          "type": "bool",
          "internalType": "bool"
        }
      ],
      "stateMutability": "view"
    },
    {
      "type": "function",
      "name": "transferOwnership",
      "inputs": [
        {
          "name": "newOwner",
          "type": "address",
          "internalType": "address"
        }
      ],
      "outputs": [],
      "stateMutability": "nonpayable"
    },
    {
      "type": "function",
      "name": "trustedForwarder",
      "inputs": [],
      "outputs": [
        {
          "name": "",
          "type": "address",
          "internalType": "address"
        }
      ],
      "stateMutability": "view"
    },
    {
      "type": "event",
      "name": "GovernorSet",
      "inputs": [
        {
          "name": "governor",
          "type": "address",
          "indexed": true,
          "internalType": "address"
        }
      ],
      "anonymous": false
    },
    {
      "type": "event",
      "name": "Initialized",
      "inputs": [
        {
          "name": "version",
          "type": "uint64",
          "indexed": false,
          "internalType": "uint64"
        }
      ],
      "anonymous": false
    },
    {
      "type": "event",
      "name": "MetadataRegistered",
      "inputs": [
        {
          "name": "metadata",
          "type": "tuple",
          "indexed": false,
          "internalType": "struct IModule_v1.Metadata",
          "components": [
            {
              "name": "majorVersion",
              "type": "uint256",
              "internalType": "uint256"
            },
            {
              "name": "minorVersion",
              "type": "uint256",
              "internalType": "uint256"
            },
            {
              "name": "patchVersion",
              "type": "uint256",
              "internalType": "uint256"
            },
            {
              "name": "url",
              "type": "string",
              "internalType": "string"
            },
            {
              "name": "title",
              "type": "string",
              "internalType": "string"
            }
          ]
        },
        {
          "name": "beacon",
          "type": "address",
          "indexed": true,
          "internalType": "contract IInverterBeacon_v1"
        }
      ],
      "anonymous": false
    },
    {
      "type": "event",
      "name": "ModuleCreated",
      "inputs": [
        {
          "name": "orchestrator",
          "type": "address",
          "indexed": true,
          "internalType": "address"
        },
        {
          "name": "module",
          "type": "address",
          "indexed": true,
          "internalType": "address"
        },
        {
          "name": "metadata",
          "type": "tuple",
          "indexed": false,
          "internalType": "struct IModule_v1.Metadata",
          "components": [
            {
              "name": "majorVersion",
              "type": "uint256",
              "internalType": "uint256"
            },
            {
              "name": "minorVersion",
              "type": "uint256",
              "internalType": "uint256"
            },
            {
              "name": "patchVersion",
              "type": "uint256",
              "internalType": "uint256"
            },
            {
              "name": "url",
              "type": "string",
              "internalType": "string"
            },
            {
              "name": "title",
              "type": "string",
              "internalType": "string"
            }
          ]
        }
      ],
      "anonymous": false
    },
    {
      "type": "event",
      "name": "OwnershipTransferStarted",
      "inputs": [
        {
          "name": "previousOwner",
          "type": "address",
          "indexed": true,
          "internalType": "address"
        },
        {
          "name": "newOwner",
          "type": "address",
          "indexed": true,
          "internalType": "address"
        }
      ],
      "anonymous": false
    },
    {
      "type": "event",
      "name": "OwnershipTransferred",
      "inputs": [
        {
          "name": "previousOwner",
          "type": "address",
          "indexed": true,
          "internalType": "address"
        },
        {
          "name": "newOwner",
          "type": "address",
          "indexed": true,
          "internalType": "address"
        }
      ],
      "anonymous": false
    },
    {
      "type": "error",
      "name": "InvalidInitialization",
      "inputs": []
    },
    {
      "type": "error",
      "name": "ModuleFactory__InvalidInitialRegistrationData",
      "inputs": []
    },
    {
      "type": "error",
      "name": "ModuleFactory__InvalidInverterBeacon",
      "inputs": []
    },
    {
      "type": "error",
      "name": "ModuleFactory__InvalidMetadata",
      "inputs": []
    },
    {
      "type": "error",
      "name": "ModuleFactory__MetadataAlreadyRegistered",
      "inputs": []
    },
    {
      "type": "error",
      "name": "ModuleFactory__ModuleIsSunset",
      "inputs": []
    },
    {
      "type": "error",
      "name": "ModuleFactory__UnregisteredMetadata",
      "inputs": []
    },
    {
      "type": "error",
      "name": "NotInitializing",
      "inputs": []
    },
    {
      "type": "error",
      "name": "OwnableInvalidOwner",
      "inputs": [
        {
          "name": "owner",
          "type": "address",
          "internalType": "address"
        }
      ]
    },
    {
      "type": "error",
      "name": "OwnableUnauthorizedAccount",
      "inputs": [
        {
          "name": "account",
          "type": "address",
          "internalType": "address"
        }
      ]
    }
  ],
  "bytecode": {
    "object": "0x60c06040523480156200001157600080fd5b50604051620029453803806200294583398101604081905262000034916200012f565b6001600160a01b0381166080526200004b6200005e565b506001600160a01b031660a05262000167565b7ff0c57e16840df040f15088dc2f81fe391c3923bec73e23a9662efc9c229c6a00805468010000000000000000900460ff1615620000af5760405163f92ee8a960e01b815260040160405180910390fd5b80546001600160401b03908116146200010f5780546001600160401b0319166001600160401b0390811782556040519081527fc7f505b2f371ae2175ee4913f4499e1f2633a7b5936321eed1cdaeb6115181d29060200160405180910390a15b50565b80516001600160a01b03811681146200012a57600080fd5b919050565b600080604083850312156200014357600080fd5b6200014e8362000112565b91506200015e6020840162000112565b90509250929050565b60805160a0516127a3620001a26000396000818161020f0152610b1a0152600081816102440152818161028a0152610f6401526127a36000f3fe60806040523480156200001157600080fd5b5060043610620001155760003560e01c8063715018a611620000a3578063e30c3978116200006e578063e30c397814620002b9578063e9e9b6a014620002c3578063f18ae49114620002da578063f2fde38b14620002f157600080fd5b8063715018a6146200027457806379ba5097146200027e5780637da0a87714620002885780638da5cb5b14620002af57600080fd5b806320bd24eb11620000e457806320bd24eb14620001d95780632a1df27a14620001f257806335ff01031462000209578063572b6c05146200023157600080fd5b806301ffc9a7146200011a5780630c340a241462000146578063167eedc71462000173578063179550da14620001aa575b600080fd5b620001316200012b36600462000fed565b62000308565b60405190151581526020015b60405180910390f35b6000546200015a906001600160a01b031681565b6040516001600160a01b0390911681526020016200013d565b6200018a620001843660046200119d565b6200033f565b604080516001600160a01b0390931683526020830191909152016200013d565b6200015a620001bb366004620011f4565b6001600160a01b039081166000908152600260205260409020541690565b620001f0620001ea36600462001214565b62000371565b005b620001f06200020336600462001315565b6200038b565b6200015a7f000000000000000000000000000000000000000000000000000000000000000081565b6200013162000242366004620011f4565b7f00000000000000000000000000000000000000000000000000000000000000006001600160a01b0390811691161490565b620001f0620005e9565b620001f062000601565b7f00000000000000000000000000000000000000000000000000000000000000006200015a565b6200015a62000669565b6200015a6200069e565b6200015a620002d43660046200147d565b620006c8565b6200015a620002eb366004620014e6565b620008c2565b620001f062000302366004620011f4565b62000945565b60006001600160e01b031982166207f60760e51b14806200033957506301ffc9a760e01b6001600160e01b03198316145b92915050565b60008060006200034f84620009ce565b6000818152600160205260409020546001600160a01b03169590945092505050565b6200037b62000a10565b62000387828262000a6c565b5050565b7ff0c57e16840df040f15088dc2f81fe391c3923bec73e23a9662efc9c229c6a00805468010000000000000000810460ff16159067ffffffffffffffff16600081158015620003d75750825b905060008267ffffffffffffffff166001148015620003f55750303b155b90508115801562000404575080155b15620004235760405163f92ee8a960e01b815260040160405180910390fd5b845467ffffffffffffffff1916600117855583156200045857845468ff00000000000000001916680100000000000000001785555b620004638862000d12565b600080546001600160a01b0319166001600160a01b038a16179055865186518114620004a2576040516317158bf160e31b815260040160405180910390fd5b60005b81811015620004fb57620004f2898281518110620004c757620004c762001590565b6020026020010151898381518110620004e457620004e462001590565b602002602001015162000a6c565b600101620004a5565b506040516330b1e82f60e01b81526001600160a01b038a16906330b1e82f906200052a908a90600401620015a6565b600060405180830381600087803b1580156200054557600080fd5b505af11580156200055a573d6000803e3d6000fd5b50506040516001600160a01b038c1692507f1cbb37f5a02c38ab13773cb770fae505cce417a4d81560117389e3a9f7e001f29150600090a2508315620005df57845468ff000000000000000019168555604051600181527fc7f505b2f371ae2175ee4913f4499e1f2633a7b5936321eed1cdaeb6115181d29060200160405180910390a15b5050505050505050565b620005f362000a10565b620005ff600062000d27565b565b60006200060d62000d61565b9050806001600160a01b0316620006236200069e565b6001600160a01b0316146200065b5760405163118cdaa760e01b81526001600160a01b03821660048201526024015b60405180910390fd5b620006668162000d27565b50565b6000807f9016d09d72d40fdae2fd8ceac6b6234c7706214fd39c1cd1e609a0528c1993005b546001600160a01b031692915050565b6000807f237e158222e3e6968b72b9db0d8043aacf074ad9f650f0d1606b4d82ee432c006200068e565b600080620006d6856200033f565b5090506001600160a01b038116620007015760405163bc885f3d60e01b815260040160405180910390fd5b6000816001600160a01b03166354fd4d506040518163ffffffff1660e01b8152600401606060405180830381865afa15801562000742573d6000803e3d6000fd5b505050506040513d601f19601f82011682018060405250810190620007689190620015f5565b5091505060001981036200078f57604051631e6cf5d160e21b815260040160405180910390fd5b8351600090156200080057620007a462000d72565b83866020015160405180602001604052806000815250604051620007c89062000fd1565b620007d6939291906200166c565b8190604051809103906000f5905080158015620007f7573d6000803e3d6000fd5b5090506200084e565b6200080a62000d72565b83604051620008199062000fdf565b6001600160a01b0390911681526020018190604051809103906000f59050801580156200084a573d6000803e3d6000fd5b5090505b6001600160a01b038181166000818152600260205260409081902080546001600160a01b031916938a169384179055519091907f7d944befac52dc180b050a40d4eb014b29ad416be42966fc86545b5642dc0fd290620008b0908b90620016f3565b60405180910390a39695505050505050565b600080620008d2868685620006c8565b604051632d9aa1c360e21b81529091506001600160a01b0382169063b66a870c90620009079088908a90899060040162001708565b600060405180830381600087803b1580156200092257600080fd5b505af115801562000937573d6000803e3d6000fd5b509298975050505050505050565b6200094f62000a10565b7f237e158222e3e6968b72b9db0d8043aacf074ad9f650f0d1606b4d82ee432c0080546001600160a01b0319166001600160a01b03831690811782556200099562000669565b6001600160a01b03167f38d16b8cac22d99fc7c124b9cd0de2d3fa1faef420bfe791d8c362d765e2270060405160405180910390a35050565b6000816000015182606001518360800151604051602001620009f3939291906200174a565b604051602081830303815290604052805190602001209050919050565b62000a1a62000d61565b6001600160a01b031662000a2d62000669565b6001600160a01b031614620005ff5762000a4662000d61565b60405163118cdaa760e01b81526001600160a01b03909116600482015260240162000652565b8162000a788162000df9565b62000a965760405163adc1baa160e01b815260040160405180910390fd5b8160006001600160a01b0316816001600160a01b0316635c60da1b6040518163ffffffff1660e01b8152600401602060405180830381865afa15801562000ae1573d6000803e3d6000fd5b505050506040513d601f19601f8201168201806040525081019062000b07919062001765565b6001600160a01b0316148062000bb557507f00000000000000000000000000000000000000000000000000000000000000006001600160a01b0316816001600160a01b03166366cc32676040518163ffffffff1660e01b81526004016020604051808303816000875af115801562000b83573d6000803e3d6000fd5b505050506040513d601f19601f8201168201806040525081019062000ba9919062001765565b6001600160a01b031614155b8062000c4a575060008054906101000a90046001600160a01b03166001600160a01b0316816001600160a01b0316638da5cb5b6040518163ffffffff1660e01b8152600401602060405180830381865afa15801562000c18573d6000803e3d6000fd5b505050506040513d601f19601f8201168201806040525081019062000c3e919062001765565b6001600160a01b031614155b1562000c6957604051637cacb69960e11b815260040160405180910390fd5b60008062000c77866200033f565b90925090506001600160a01b0382161562000ca557604051634de4ee2b60e11b815260040160405180910390fd5b6000818152600160205260409081902080546001600160a01b0319166001600160a01b03881690811790915590517f7550d6edf0d7e233282dbadd1e9342500422d2e9b5a827176eaeb04a9fcf218e9062000d02908990620016f3565b60405180910390a2505050505050565b62000d1c62000e5e565b620006668162000ead565b7f237e158222e3e6968b72b9db0d8043aacf074ad9f650f0d1606b4d82ee432c0080546001600160a01b0319168155620003878262000ee3565b600062000d6d62000f54565b905090565b600062000d7e62000d61565b6003600062000d8c62000d61565b6001600160a01b031681526020810191909152604001600090812080549162000db5836200179b565b9091555060405160609290921b6bffffffffffffffffffffffff19166020830152603482015260540160405160208183030381529060405280519060200120905090565b600081606001515160000362000e1157506000919050565b81608001515160000362000e2757506000919050565b815115801562000e3957506020820151155b801562000e4857506040820151155b1562000e5657506000919050565b506001919050565b7ff0c57e16840df040f15088dc2f81fe391c3923bec73e23a9662efc9c229c6a005468010000000000000000900460ff16620005ff57604051631afcd79f60e31b815260040160405180910390fd5b62000eb762000e5e565b6001600160a01b0381166200065b57604051631e4fbdf760e01b81526000600482015260240162000652565b7f9016d09d72d40fdae2fd8ceac6b6234c7706214fd39c1cd1e609a0528c19930080546001600160a01b031981166001600160a01b03848116918217845560405192169182907f8be0079c531659141344cd1fd0a4f28419497f9722a3daafe3b4186f6b6457e090600090a3505050565b6000366014336001600160a01b037f00000000000000000000000000000000000000000000000000000000000000001614801562000f925750808210155b1562000fc95760003662000fa78385620017b7565b62000fb4928290620017cd565b62000fbf91620017f9565b60601c9250505090565b339250505090565b610c07806200183083390190565b610337806200243783390190565b6000602082840312156200100057600080fd5b81356001600160e01b0319811681146200101957600080fd5b9392505050565b634e487b7160e01b600052604160045260246000fd5b604051601f8201601f1916810167ffffffffffffffff8111828210171562001062576200106262001020565b604052919050565b600067ffffffffffffffff83111562001087576200108762001020565b6200109c601f8401601f191660200162001036565b9050828152838383011115620010b157600080fd5b828260208301376000602084830101529392505050565b600082601f830112620010da57600080fd5b62001019838335602085016200106a565b600060a08284031215620010fe57600080fd5b60405160a0810167ffffffffffffffff828210818311171562001125576200112562001020565b8160405282935084358352602085013560208401526040850135604084015260608501359150808211156200115957600080fd5b6200116786838701620010c8565b606084015260808501359150808211156200118157600080fd5b506200119085828601620010c8565b6080830152505092915050565b600060208284031215620011b057600080fd5b813567ffffffffffffffff811115620011c857600080fd5b620011d684828501620010eb565b949350505050565b6001600160a01b03811681146200066657600080fd5b6000602082840312156200120757600080fd5b81356200101981620011de565b600080604083850312156200122857600080fd5b823567ffffffffffffffff8111156200124057600080fd5b6200124e85828601620010eb565b92505060208301356200126181620011de565b809150509250929050565b600067ffffffffffffffff82111562001289576200128962001020565b5060051b60200190565b600082601f830112620012a557600080fd5b81356020620012be620012b8836200126c565b62001036565b8083825260208201915060208460051b870101935086841115620012e157600080fd5b602086015b848110156200130a578035620012fc81620011de565b8352918301918301620012e6565b509695505050505050565b6000806000606084860312156200132b57600080fd5b83356200133881620011de565b925060208481013567ffffffffffffffff808211156200135757600080fd5b818701915087601f8301126200136c57600080fd5b81356200137d620012b8826200126c565b81815260059190911b8301840190848101908a8311156200139d57600080fd5b8585015b83811015620013da57803585811115620013bb5760008081fd5b620013cb8d89838a0101620010eb565b845250918601918601620013a1565b50965050506040870135925080831115620013f457600080fd5b5050620014048682870162001293565b9150509250925092565b6000604082840312156200142157600080fd5b6040516040810181811067ffffffffffffffff8211171562001447576200144762001020565b604052905080823580151581146200145e57600080fd5b815260208301356200147081620011de565b6020919091015292915050565b6000806000608084860312156200149357600080fd5b833567ffffffffffffffff811115620014ab57600080fd5b620014b986828701620010eb565b9350506020840135620014cc81620011de565b9150620014dd85604086016200140e565b90509250925092565b60008060008060a08587031215620014fd57600080fd5b843567ffffffffffffffff808211156200151657600080fd5b6200152488838901620010eb565b9550602087013591506200153882620011de565b909350604086013590808211156200154f57600080fd5b508501601f810187136200156257600080fd5b62001573878235602084016200106a565b9250506200158586606087016200140e565b905092959194509250565b634e487b7160e01b600052603260045260246000fd5b6020808252825182820181905260009190848201906040850190845b81811015620015e95783516001600160a01b031683529284019291840191600101620015c2565b50909695505050505050565b6000806000606084860312156200160b57600080fd5b8351925060208401519150604084015190509250925092565b6000815180845260005b818110156200164c576020818501810151868301820152016200162e565b506000602082860101526020601f19601f83011685010191505092915050565b60006001600160a01b038086168352808516602084015250606060408301526200169a606083018462001624565b95945050505050565b8051825260208101516020830152604081015160408301526000606082015160a06060850152620016d860a085018262001624565b9050608083015184820360808601526200169a828262001624565b602081526000620010196020830184620016a3565b6001600160a01b03841681526060602082015260006200172c6060830185620016a3565b828103604084015262001740818562001624565b9695505050505050565b8381526060602082015260006200172c606083018562001624565b6000602082840312156200177857600080fd5b81516200101981620011de565b634e487b7160e01b600052601160045260246000fd5b600060018201620017b057620017b062001785565b5060010190565b8181038181111562000339576200033962001785565b60008085851115620017de57600080fd5b83861115620017ec57600080fd5b5050820193919092039150565b6bffffffffffffffffffffffff198135818116916014851015620018275780818660140360031b1b83161692505b50509291505056fe60c06040523480156200001157600080fd5b5060405162000c0738038062000c078339810160408190526200003491620004eb565b826001600160a01b0316630cbcae706040518163ffffffff1660e01b81526004016020604051808303816000875af115801562000075573d6000803e3d6000fd5b505050506040513d601f19601f820116820180604052508101906200009b9190620005d0565b81620000a88282620001cf565b50506040516301ffc9a760e01b8152637315960d60e01b60048201526001600160a01b038416906301ffc9a790602401602060405180830381865afa158015620000f6573d6000803e3d6000fd5b505050506040513d601f19601f820116820180604052508101906200011c9190620005f0565b6200013a5760405163cca1645360e01b815260040160405180910390fd5b6001600160a01b0380841660a08190529083166080526040805163054fd4d560e41b815290516354fd4d50916004808201926060929091908290030181865afa1580156200018c573d6000803e3d6000fd5b505050506040513d601f19601f82011682018060405250810190620001b2919062000614565b600255600155600055620001c68262000235565b50505062000661565b620001da82620002a7565b6040516001600160a01b038316907fbc7cd75a20ee27fd9adebab32041f755214dbc6bffa90cc0225b39da2e5c2d3b90600090a2805115620002275762000222828262000327565b505050565b62000231620003a4565b5050565b7f7e644d79422f17c01e4894b5f4f588d331ebfa28653d42ae832dc59e38c9798f6200027760008051602062000be7833981519152546001600160a01b031690565b604080516001600160a01b03928316815291841660208301520160405180910390a1620002a481620003c6565b50565b806001600160a01b03163b600003620002e357604051634c9c8ce360e01b81526001600160a01b03821660048201526024015b60405180910390fd5b807f360894a13ba1a3210667c828492db98dca3e2076cc3735a920a3ca505d382bbc5b80546001600160a01b0319166001600160a01b039290921691909117905550565b6060600080846001600160a01b03168460405162000346919062000643565b600060405180830381855af49150503d806000811462000383576040519150601f19603f3d011682016040523d82523d6000602084013e62000388565b606091505b5090925090506200039b85838362000409565b95945050505050565b3415620003c45760405163b398979f60e01b815260040160405180910390fd5b565b6001600160a01b038116620003f257604051633173bdd160e11b815260006004820152602401620002da565b8060008051602062000be783398151915262000306565b60608262000422576200041c826200046f565b62000468565b81511580156200043a57506001600160a01b0384163b155b156200046557604051639996b31560e01b81526001600160a01b0385166004820152602401620002da565b50805b9392505050565b805115620004805780518082602001fd5b604051630a12f52160e11b815260040160405180910390fd5b6001600160a01b0381168114620002a457600080fd5b634e487b7160e01b600052604160045260246000fd5b60005b83811015620004e2578181015183820152602001620004c8565b50506000910152565b6000806000606084860312156200050157600080fd5b83516200050e8162000499565b6020850151909350620005218162000499565b60408501519092506001600160401b03808211156200053f57600080fd5b818601915086601f8301126200055457600080fd5b815181811115620005695762000569620004af565b604051601f8201601f19908116603f01168101908382118183101715620005945762000594620004af565b81604052828152896020848701011115620005ae57600080fd5b620005c1836020830160208801620004c5565b80955050505050509250925092565b600060208284031215620005e357600080fd5b8151620004688162000499565b6000602082840312156200060357600080fd5b815180151581146200046857600080fd5b6000806000606084860312156200062a57600080fd5b8351925060208401519150604084015190509250925092565b6000825162000657818460208701620004c5565b9190910192915050565b60805160a05161055a6200068d600039600081816101000152610197015260006078015261055a6000f3fe6080604052600436106100225760003560e01c806354fd4d501461003957610031565b366100315761002f61006e565b005b61002f61006e565b34801561004557600080fd5b506000546001546002546040805193845260208401929092529082015260600160405180910390f35b6001600160a01b037f00000000000000000000000000000000000000000000000000000000000000001633036100f35763cebefa5160e01b6000357fffffffff0000000000000000000000000000000000000000000000000000000016016100da576100d86100fb565b565b60405163759196e560e11b815260040160405180910390fd5b6100d8610222565b6101957f00000000000000000000000000000000000000000000000000000000000000006001600160a01b0316635c60da1b6040518163ffffffff1660e01b8152600401602060405180830381865afa15801561015c573d6000803e3d6000fd5b505050506040513d601f19601f82011682018060405250810190610180919061049e565b60405180602001604052806000815250610232565b7f00000000000000000000000000000000000000000000000000000000000000006001600160a01b03166354fd4d506040518163ffffffff1660e01b8152600401606060405180830381865afa1580156101f3573d6000803e3d6000fd5b505050506040513d601f19601f8201168201806040525081019061021791906104c7565b600255600155600055565b6100d861022d610291565b6102c9565b61023b826102ed565b6040516001600160a01b038316907fbc7cd75a20ee27fd9adebab32041f755214dbc6bffa90cc0225b39da2e5c2d3b90600090a2805115610285576102808282610381565b505050565b61028d6103f7565b5050565b60006102c47f360894a13ba1a3210667c828492db98dca3e2076cc3735a920a3ca505d382bbc546001600160a01b031690565b905090565b3660008037600080366000845af43d6000803e8080156102e8573d6000f35b3d6000fd5b806001600160a01b03163b60000361032857604051634c9c8ce360e01b81526001600160a01b03821660048201526024015b60405180910390fd5b7f360894a13ba1a3210667c828492db98dca3e2076cc3735a920a3ca505d382bbc80547fffffffffffffffffffffffff0000000000000000000000000000000000000000166001600160a01b0392909216919091179055565b6060600080846001600160a01b03168460405161039e91906104f5565b600060405180830381855af49150503d80600081146103d9576040519150601f19603f3d011682016040523d82523d6000602084013e6103de565b606091505b50915091506103ee858383610416565b95945050505050565b34156100d85760405163b398979f60e01b815260040160405180910390fd5b60608261042b5761042682610475565b61046e565b815115801561044257506001600160a01b0384163b155b1561046b57604051639996b31560e01b81526001600160a01b038516600482015260240161031f565b50805b9392505050565b8051156104855780518082602001fd5b604051630a12f52160e11b815260040160405180910390fd5b6000602082840312156104b057600080fd5b81516001600160a01b038116811461046e57600080fd5b6000806000606084860312156104dc57600080fd5b8351925060208401519150604084015190509250925092565b6000825160005b8181101561051657602081860181015185830152016104fc565b50600092019182525091905056fea2646970667358221220b97344e7ac12078d0dcbc91c315b85b882eb79134c55402d825dd5d0b0b4b09664736f6c63430008170033b53127684a568b3173ae13b9f8a6016e243e63b6e8ee1178d6a717850b5d610360a060405234801561001057600080fd5b5060405161033738038061033783398101604081905261002f9161006d565b6001600160a01b03811660808190526040517f1cf3b03a6cf19fa2baba4df148e9dcabedea7f8a5c07840e207e5c089be95d3e90600090a25061009d565b60006020828403121561007f57600080fd5b81516001600160a01b038116811461009657600080fd5b9392505050565b6080516102796100be600039600081816086015261012201526102796000f3fe6080604052600436106100225760003560e01c806354fd4d501461003957610031565b366100315761002f61006d565b005b61002f61006d565b34801561004557600080fd5b5061004e61007f565b6040805193845260208401929092529082015260600160405180910390f35b61007d61007861011e565b6101b4565b565b60008060007f000000000000000000000000000000000000000000000000000000000000000073ffffffffffffffffffffffffffffffffffffffff166354fd4d506040518163ffffffff1660e01b8152600401606060405180830381865afa1580156100ef573d6000803e3d6000fd5b505050506040513d601f19601f8201168201806040525081019061011391906101d8565b925092509250909192565b60007f000000000000000000000000000000000000000000000000000000000000000073ffffffffffffffffffffffffffffffffffffffff16635c60da1b6040518163ffffffff1660e01b8152600401602060405180830381865afa15801561018b573d6000803e3d6000fd5b505050506040513d601f19601f820116820180604052508101906101af9190610206565b905090565b3660008037600080366000845af43d6000803e8080156101d3573d6000f35b3d6000fd5b6000806000606084860312156101ed57600080fd5b8351925060208401519150604084015190509250925092565b60006020828403121561021857600080fd5b815173ffffffffffffffffffffffffffffffffffffffff8116811461023c57600080fd5b939250505056fea26469706673582212207cc8827101d5f1f265653ebe610daf91c65cbbf3f8965b13e192a48a650a9ccf64736f6c63430008170033a26469706673582212208bc0e430aaaea5c4ccc3908797c39018f71ed2513de1545ab0fa35ccfb19b32864736f6c63430008170033",
    "linkReferences": {}
  },
  "methodIdentifiers": {
    "acceptOwnership()": "79ba5097",
    "createAndInitModule((uint256,uint256,uint256,string,string),address,bytes,(bool,address))": "f18ae491",
    "createModuleProxy((uint256,uint256,uint256,string,string),address,(bool,address))": "e9e9b6a0",
    "getBeaconAndId((uint256,uint256,uint256,string,string))": "167eedc7",
    "getOrchestratorOfProxy(address)": "179550da",
    "governor()": "0c340a24",
    "init(address,(uint256,uint256,uint256,string,string)[],address[])": "2a1df27a",
    "isTrustedForwarder(address)": "572b6c05",
    "owner()": "8da5cb5b",
    "pendingOwner()": "e30c3978",
    "registerMetadata((uint256,uint256,uint256,string,string),address)": "20bd24eb",
    "renounceOwnership()": "715018a6",
    "reverter()": "35ff0103",
    "supportsInterface(bytes4)": "01ffc9a7",
    "transferOwnership(address)": "f2fde38b",
    "trustedForwarder()": "7da0a877"
  },
  "id": 92
}