{
  "abi": [
    {
      "type": "constructor",
      "inputs": [
        {
          "name": "_trustedForwarder",
          "type": "address",
          "internalType": "address"
        }
      ],
      "stateMutability": "nonpayable"
    },
    {
      "type": "function",
      "name": "acceptOwnership",
      "inputs": [],
      "outputs": [],
      "stateMutability": "nonpayable"
    },
    {
      "type": "function",
      "name": "createOrchestrator",
      "inputs": [
        {
          "name": "orchestratorConfig",
          "type": "tuple",
          "internalType": "struct IOrchestratorFactory_v1.OrchestratorConfig",
          "components": [
            {
              "name": "owner",
              "type": "address",
              "internalType": "address"
            },
            {
              "name": "token",
              "type": "address",
              "internalType": "contract IERC20"
            }
          ]
        },
        {
          "name": "fundingManagerConfig",
          "type": "tuple",
          "internalType": "struct IOrchestratorFactory_v1.ModuleConfig",
          "components": [
            {
              "name": "metadata",
              "type": "tuple",
              "internalType": "struct IModule_v1.Metadata",
              "components": [
                {
                  "name": "majorVersion",
                  "type": "uint256",
                  "internalType": "uint256"
                },
                {
                  "name": "minorVersion",
                  "type": "uint256",
                  "internalType": "uint256"
                },
                {
                  "name": "url",
                  "type": "string",
                  "internalType": "string"
                },
                {
                  "name": "title",
                  "type": "string",
                  "internalType": "string"
                }
              ]
            },
            {
              "name": "configData",
              "type": "bytes",
              "internalType": "bytes"
            }
          ]
        },
        {
          "name": "authorizerConfig",
          "type": "tuple",
          "internalType": "struct IOrchestratorFactory_v1.ModuleConfig",
          "components": [
            {
              "name": "metadata",
              "type": "tuple",
              "internalType": "struct IModule_v1.Metadata",
              "components": [
                {
                  "name": "majorVersion",
                  "type": "uint256",
                  "internalType": "uint256"
                },
                {
                  "name": "minorVersion",
                  "type": "uint256",
                  "internalType": "uint256"
                },
                {
                  "name": "url",
                  "type": "string",
                  "internalType": "string"
                },
                {
                  "name": "title",
                  "type": "string",
                  "internalType": "string"
                }
              ]
            },
            {
              "name": "configData",
              "type": "bytes",
              "internalType": "bytes"
            }
          ]
        },
        {
          "name": "paymentProcessorConfig",
          "type": "tuple",
          "internalType": "struct IOrchestratorFactory_v1.ModuleConfig",
          "components": [
            {
              "name": "metadata",
              "type": "tuple",
              "internalType": "struct IModule_v1.Metadata",
              "components": [
                {
                  "name": "majorVersion",
                  "type": "uint256",
                  "internalType": "uint256"
                },
                {
                  "name": "minorVersion",
                  "type": "uint256",
                  "internalType": "uint256"
                },
                {
                  "name": "url",
                  "type": "string",
                  "internalType": "string"
                },
                {
                  "name": "title",
                  "type": "string",
                  "internalType": "string"
                }
              ]
            },
            {
              "name": "configData",
              "type": "bytes",
              "internalType": "bytes"
            }
          ]
        },
        {
          "name": "moduleConfigs",
          "type": "tuple[]",
          "internalType": "struct IOrchestratorFactory_v1.ModuleConfig[]",
          "components": [
            {
              "name": "metadata",
              "type": "tuple",
              "internalType": "struct IModule_v1.Metadata",
              "components": [
                {
                  "name": "majorVersion",
                  "type": "uint256",
                  "internalType": "uint256"
                },
                {
                  "name": "minorVersion",
                  "type": "uint256",
                  "internalType": "uint256"
                },
                {
                  "name": "url",
                  "type": "string",
                  "internalType": "string"
                },
                {
                  "name": "title",
                  "type": "string",
                  "internalType": "string"
                }
              ]
            },
            {
              "name": "configData",
              "type": "bytes",
              "internalType": "bytes"
            }
          ]
        }
      ],
      "outputs": [
        {
          "name": "",
          "type": "address",
          "internalType": "contract IOrchestrator_v1"
        }
      ],
      "stateMutability": "nonpayable"
    },
    {
      "type": "function",
      "name": "getOrchestratorByID",
      "inputs": [
        {
          "name": "id",
          "type": "uint256",
          "internalType": "uint256"
        }
      ],
      "outputs": [
        {
          "name": "",
          "type": "address",
          "internalType": "address"
        }
      ],
      "stateMutability": "view"
    },
    {
      "type": "function",
      "name": "getOrchestratorIDCounter",
      "inputs": [],
      "outputs": [
        {
          "name": "",
          "type": "uint256",
          "internalType": "uint256"
        }
      ],
      "stateMutability": "view"
    },
    {
      "type": "function",
      "name": "init",
      "inputs": [
        {
          "name": "governor_",
          "type": "address",
          "internalType": "address"
        },
        {
          "name": "target_",
          "type": "address",
          "internalType": "address"
        },
        {
          "name": "moduleFactory_",
          "type": "address",
          "internalType": "address"
        }
      ],
      "outputs": [],
      "stateMutability": "nonpayable"
    },
    {
      "type": "function",
      "name": "isTrustedForwarder",
      "inputs": [
        {
          "name": "forwarder",
          "type": "address",
          "internalType": "address"
        }
      ],
      "outputs": [
        {
          "name": "",
          "type": "bool",
          "internalType": "bool"
        }
      ],
      "stateMutability": "view"
    },
    {
      "type": "function",
      "name": "moduleFactory",
      "inputs": [],
      "outputs": [
        {
          "name": "",
          "type": "address",
          "internalType": "address"
        }
      ],
      "stateMutability": "view"
    },
    {
      "type": "function",
      "name": "owner",
      "inputs": [],
      "outputs": [
        {
          "name": "",
          "type": "address",
          "internalType": "address"
        }
      ],
      "stateMutability": "view"
    },
    {
      "type": "function",
      "name": "pendingOwner",
      "inputs": [],
      "outputs": [
        {
          "name": "",
          "type": "address",
          "internalType": "address"
        }
      ],
      "stateMutability": "view"
    },
    {
      "type": "function",
      "name": "renounceOwnership",
      "inputs": [],
      "outputs": [],
      "stateMutability": "nonpayable"
    },
    {
      "type": "function",
      "name": "supportsInterface",
      "inputs": [
        {
          "name": "interfaceId",
          "type": "bytes4",
          "internalType": "bytes4"
        }
      ],
      "outputs": [
        {
          "name": "",
          "type": "bool",
          "internalType": "bool"
        }
      ],
      "stateMutability": "view"
    },
    {
      "type": "function",
      "name": "target",
      "inputs": [],
      "outputs": [
        {
          "name": "",
          "type": "address",
          "internalType": "address"
        }
      ],
      "stateMutability": "view"
    },
    {
      "type": "function",
      "name": "transferOwnership",
      "inputs": [
        {
          "name": "newOwner",
          "type": "address",
          "internalType": "address"
        }
      ],
      "outputs": [],
      "stateMutability": "nonpayable"
    },
    {
      "type": "function",
      "name": "trustedForwarder",
      "inputs": [],
      "outputs": [
        {
          "name": "",
          "type": "address",
          "internalType": "address"
        }
      ],
      "stateMutability": "view"
    },
    {
      "type": "event",
      "name": "Initialized",
      "inputs": [
        {
          "name": "version",
          "type": "uint64",
          "indexed": false,
          "internalType": "uint64"
        }
      ],
      "anonymous": false
    },
    {
      "type": "event",
      "name": "OrchestratorCreated",
      "inputs": [
        {
          "name": "orchestratorId",
          "type": "uint256",
          "indexed": true,
          "internalType": "uint256"
        },
        {
          "name": "orchestratorAddress",
          "type": "address",
          "indexed": true,
          "internalType": "address"
        }
      ],
      "anonymous": false
    },
    {
      "type": "event",
      "name": "OwnershipTransferStarted",
      "inputs": [
        {
          "name": "previousOwner",
          "type": "address",
          "indexed": true,
          "internalType": "address"
        },
        {
          "name": "newOwner",
          "type": "address",
          "indexed": true,
          "internalType": "address"
        }
      ],
      "anonymous": false
    },
    {
      "type": "event",
      "name": "OwnershipTransferred",
      "inputs": [
        {
          "name": "previousOwner",
          "type": "address",
          "indexed": true,
          "internalType": "address"
        },
        {
          "name": "newOwner",
          "type": "address",
          "indexed": true,
          "internalType": "address"
        }
      ],
      "anonymous": false
    },
    {
      "type": "error",
      "name": "ERC1167FailedCreateClone",
      "inputs": []
    },
    {
      "type": "error",
      "name": "InvalidInitialization",
      "inputs": []
    },
    {
      "type": "error",
      "name": "NotInitializing",
      "inputs": []
    },
    {
      "type": "error",
      "name": "OrchestratorFactory__InvalidId",
      "inputs": []
    },
    {
      "type": "error",
      "name": "OrchestratorFactory__ModuleDataLengthMismatch",
      "inputs": []
    },
    {
      "type": "error",
      "name": "OrchestratorFactory__OrchestratorOwnerIsInvalid",
      "inputs": []
    },
    {
      "type": "error",
      "name": "OwnableInvalidOwner",
      "inputs": [
        {
          "name": "owner",
          "type": "address",
          "internalType": "address"
        }
      ]
    },
    {
      "type": "error",
      "name": "OwnableUnauthorizedAccount",
      "inputs": [
        {
          "name": "account",
          "type": "address",
          "internalType": "address"
        }
      ]
    }
  ],
  "bytecode": {
    "object": "0x60a060405234801561001057600080fd5b5060405161155538038061155583398101604081905261002f91610040565b6001600160a01b0316608052610070565b60006020828403121561005257600080fd5b81516001600160a01b038116811461006957600080fd5b9392505050565b6080516114bc61009960003960008181610167015281816101bc0152610d6f01526114bc6000f3fe608060405234801561001057600080fd5b50600436106100ea5760003560e01c80637da0a8771161008c578063b8ddae2111610066578063b8ddae21146101fb578063d4b839921461020c578063e30c39781461021f578063f2fde38b1461022757600080fd5b80637da0a877146101ba5780638991255b146101e05780638da5cb5b146101f357600080fd5b8063572b6c05116100c8578063572b6c05146101575780635f7c5d6e14610197578063715018a6146101aa57806379ba5097146101b257600080fd5b806301ffc9a7146100ef578063184b9559146101175780633ea9d1071461012c575b600080fd5b6101026100fd366004610dd4565b61023a565b60405190151581526020015b60405180910390f35b61012a610125366004610e32565b6102d3565b005b61013f61013a366004610e7d565b610466565b6040516001600160a01b03909116815260200161010e565b610102610165366004610e96565b7f00000000000000000000000000000000000000000000000000000000000000006001600160a01b0390811691161490565b61013f6101a536600461112a565b6104c2565b61012a610950565b61012a610964565b7f000000000000000000000000000000000000000000000000000000000000000061013f565b60015461013f906001600160a01b031681565b61013f6109de565b60035460405190815260200161010e565b60005461013f906001600160a01b031681565b61013f610a13565b61012a610235366004610e96565b610a3c565b60007fffffffff0000000000000000000000000000000000000000000000000000000082167f84213e810000000000000000000000000000000000000000000000000000000014806102cd57507f01ffc9a7000000000000000000000000000000000000000000000000000000007fffffffff000000000000000000000000000000000000000000000000000000008316145b92915050565b7ff0c57e16840df040f15088dc2f81fe391c3923bec73e23a9662efc9c229c6a00805468010000000000000000810460ff16159067ffffffffffffffff1660008115801561031e5750825b905060008267ffffffffffffffff16600114801561033b5750303b155b905081158015610349575080155b15610380576040517ff92ee8a900000000000000000000000000000000000000000000000000000000815260040160405180910390fd5b84547fffffffffffffffffffffffffffffffffffffffffffffffff000000000000000016600117855583156103cb57845468ff00000000000000001916680100000000000000001785555b6103d488610ace565b600080546001600160a01b03808a1673ffffffffffffffffffffffffffffffffffffffff19928316179092556001805492891692909116919091179055831561045c57845468ff000000000000000019168555604051600181527fc7f505b2f371ae2175ee4913f4499e1f2633a7b5936321eed1cdaeb6115181d29060200160405180910390a15b5050505050505050565b6000816003548111156104a5576040517f6ae20c4c00000000000000000000000000000000000000000000000000000000815260040160405180910390fd5b50506000908152600260205260409020546001600160a01b031690565b6000805481906104da906001600160a01b0316610adf565b905080600260006003600081546104f09061122d565b9182905550815260208082019290925260409081016000908120805473ffffffffffffffffffffffffffffffffffffffff19166001600160a01b039586161790556001548a51938b015192516333f67d2f60e11b8152919416926367ecfa5e9261055f928791906004016112ab565b6020604051808303816000875af115801561057e573d6000803e3d6000fd5b505050506040513d601f19601f820116820180604052508101906105a29190611344565b600154875160208901516040516333f67d2f60e11b81529394506000936001600160a01b03909316926367ecfa5e926105e29290918891906004016112ab565b6020604051808303816000875af1158015610601573d6000803e3d6000fd5b505050506040513d601f19601f820116820180604052508101906106259190611344565b600154875160208901516040516333f67d2f60e11b81529394506000936001600160a01b03909316926367ecfa5e926106659290918991906004016112ab565b6020604051808303816000875af1158015610684573d6000803e3d6000fd5b505050506040513d601f19601f820116820180604052508101906106a89190611344565b865190915060008167ffffffffffffffff8111156106c8576106c8610eb3565b6040519080825280602002602001820160405280156106f1578160200160208202803683370190505b50905060005b828110156107e65760015489516001600160a01b03909116906367ecfa5e908b908490811061072857610728611361565b602002602001015160000151898c858151811061074757610747611361565b6020026020010151602001516040518463ffffffff1660e01b8152600401610771939291906112ab565b6020604051808303816000875af1158015610790573d6000803e3d6000fd5b505050506040513d601f19601f820116820180604052508101906107b49190611344565b8282815181106107c6576107c6611361565b6001600160a01b03909216602092830291909101909101526001016106f7565b508b516001600160a01b0316610828576040517fd3ab9dbe00000000000000000000000000000000000000000000000000000000815260040160405180910390fd5b6003546040516001600160a01b03881691907f2244662809777b2119a09852cb07778be2984f50dce1dfd37ec75dd06d3844b890600090a3856001600160a01b031663de4959d560035483888888600160009054906101000a90046001600160a01b03166001600160a01b0316630c340a246040518163ffffffff1660e01b8152600401602060405180830381865afa1580156108c9573d6000803e3d6000fd5b505050506040513d601f19601f820116820180604052508101906108ed9190611344565b6040518763ffffffff1660e01b815260040161090e96959493929190611377565b600060405180830381600087803b15801561092857600080fd5b505af115801561093c573d6000803e3d6000fd5b50979e9d5050505050505050505050505050565b610958610b6a565b6109626000610bd7565b565b600061096e610c20565b9050806001600160a01b0316610982610a13565b6001600160a01b0316146109d2576040517f118cdaa70000000000000000000000000000000000000000000000000000000081526001600160a01b03821660048201526024015b60405180910390fd5b6109db81610bd7565b50565b6000807f9016d09d72d40fdae2fd8ceac6b6234c7706214fd39c1cd1e609a0528c1993005b546001600160a01b031692915050565b6000807f237e158222e3e6968b72b9db0d8043aacf074ad9f650f0d1606b4d82ee432c00610a03565b610a44610b6a565b7f237e158222e3e6968b72b9db0d8043aacf074ad9f650f0d1606b4d82ee432c00805473ffffffffffffffffffffffffffffffffffffffff19166001600160a01b0383169081178255610a956109de565b6001600160a01b03167f38d16b8cac22d99fc7c124b9cd0de2d3fa1faef420bfe791d8c362d765e2270060405160405180910390a35050565b610ad6610c2f565b6109db81610c96565b6000763d602d80600a3d3981f3363d3d373d3d3d363d730000008260601b60e81c176000526e5af43d82803e903d91602b57fd5bf38260781b17602052603760096000f090506001600160a01b038116610b65576040517fc2f868f400000000000000000000000000000000000000000000000000000000815260040160405180910390fd5b919050565b610b72610c20565b6001600160a01b0316610b836109de565b6001600160a01b03161461096257610b99610c20565b6040517f118cdaa70000000000000000000000000000000000000000000000000000000081526001600160a01b0390911660048201526024016109c9565b7f237e158222e3e6968b72b9db0d8043aacf074ad9f650f0d1606b4d82ee432c00805473ffffffffffffffffffffffffffffffffffffffff19168155610c1c82610ce1565b5050565b6000610c2a610d5f565b905090565b7ff0c57e16840df040f15088dc2f81fe391c3923bec73e23a9662efc9c229c6a005468010000000000000000900460ff16610962576040517fd7e6bcf800000000000000000000000000000000000000000000000000000000815260040160405180910390fd5b610c9e610c2f565b6001600160a01b0381166109d2576040517f1e4fbdf7000000000000000000000000000000000000000000000000000000008152600060048201526024016109c9565b7f9016d09d72d40fdae2fd8ceac6b6234c7706214fd39c1cd1e609a0528c199300805473ffffffffffffffffffffffffffffffffffffffff1981166001600160a01b03848116918217845560405192169182907f8be0079c531659141344cd1fd0a4f28419497f9722a3daafe3b4186f6b6457e090600090a3505050565b6000366014336001600160a01b037f000000000000000000000000000000000000000000000000000000000000000016148015610d9c5750808210155b15610dcc57600036610dae8385611401565b610db9928290611414565b610dc29161143e565b60601c9250505090565b339250505090565b600060208284031215610de657600080fd5b81357fffffffff0000000000000000000000000000000000000000000000000000000081168114610e1657600080fd5b9392505050565b6001600160a01b03811681146109db57600080fd5b600080600060608486031215610e4757600080fd5b8335610e5281610e1d565b92506020840135610e6281610e1d565b91506040840135610e7281610e1d565b809150509250925092565b600060208284031215610e8f57600080fd5b5035919050565b600060208284031215610ea857600080fd5b8135610e1681610e1d565b634e487b7160e01b600052604160045260246000fd5b6040805190810167ffffffffffffffff81118282101715610eec57610eec610eb3565b60405290565b6040516080810167ffffffffffffffff81118282101715610eec57610eec610eb3565b604051601f8201601f1916810167ffffffffffffffff81118282101715610f3e57610f3e610eb3565b604052919050565b600082601f830112610f5757600080fd5b813567ffffffffffffffff811115610f7157610f71610eb3565b610f846020601f19601f84011601610f15565b818152846020838601011115610f9957600080fd5b816020850160208301376000918101602001919091529392505050565b600060408284031215610fc857600080fd5b610fd0610ec9565b9050813567ffffffffffffffff80821115610fea57600080fd5b9083019060808286031215610ffe57600080fd5b611006610ef2565b823581526020830135602082015260408301358281111561102657600080fd5b61103287828601610f46565b60408301525060608301358281111561104a57600080fd5b61105687828601610f46565b6060830152508352602084013591508082111561107257600080fd5b5061107f84828501610f46565b60208301525092915050565b600082601f83011261109c57600080fd5b8135602067ffffffffffffffff808311156110b9576110b9610eb3565b8260051b6110c8838201610f15565b93845285810183019383810190888611156110e257600080fd5b84880192505b8583101561111e578235848111156111005760008081fd5b61110e8a87838c0101610fb6565b83525091840191908401906110e8565b98975050505050505050565b600080600080600085870360c081121561114357600080fd5b604081121561115157600080fd5b5061115a610ec9565b863561116581610e1d565b8152602087013561117581610e1d565b60208201529450604086013567ffffffffffffffff8082111561119757600080fd5b6111a389838a01610fb6565b955060608801359150808211156111b957600080fd5b6111c589838a01610fb6565b945060808801359150808211156111db57600080fd5b6111e789838a01610fb6565b935060a08801359150808211156111fd57600080fd5b5061120a8882890161108b565b9150509295509295909350565b634e487b7160e01b600052601160045260246000fd5b60007fffffffffffffffffffffffffffffffffffffffffffffffffffffffffffffffff820361125e5761125e611217565b5060010190565b6000815180845260005b8181101561128b5760208185018101518683018201520161126f565b506000602082860101526020601f19601f83011685010191505092915050565b60608152835160608201526020840151608082015260006040850151608060a08401526112db60e0840182611265565b905060608601517fffffffffffffffffffffffffffffffffffffffffffffffffffffffffffffffa08483030160c08501526113168282611265565b9150506001600160a01b0385166020840152828103604084015261133a8185611265565b9695505050505050565b60006020828403121561135657600080fd5b8151610e1681610e1d565b634e487b7160e01b600052603260045260246000fd5b600060c08201888352602060c0602085015281895180845260e08601915060208b01935060005b818110156113c35784516001600160a01b03168352938301939183019160010161139e565b50506001600160a01b03898116604087015288811660608701528781166080870152861660a086015292506113f6915050565b979650505050505050565b818103818111156102cd576102cd611217565b6000808585111561142457600080fd5b8386111561143157600080fd5b5050820193919092039150565b7fffffffffffffffffffffffffffffffffffffffff000000000000000000000000813581811691601485101561147e5780818660140360031b1b83161692505b50509291505056fea2646970667358221220afc81556457bd4169b0d7f77e7aae0f4038e5182438215273213ec7d343ab40a64736f6c63430008170033",
    "linkReferences": {}
  },
  "methodIdentifiers": {
    "acceptOwnership()": "79ba5097",
    "createOrchestrator((address,address),((uint256,uint256,string,string),bytes),((uint256,uint256,string,string),bytes),((uint256,uint256,string,string),bytes),((uint256,uint256,string,string),bytes)[])": "5f7c5d6e",
    "getOrchestratorByID(uint256)": "3ea9d107",
    "getOrchestratorIDCounter()": "b8ddae21",
    "init(address,address,address)": "184b9559",
    "isTrustedForwarder(address)": "572b6c05",
    "moduleFactory()": "8991255b",
    "owner()": "8da5cb5b",
    "pendingOwner()": "e30c3978",
    "renounceOwnership()": "715018a6",
    "supportsInterface(bytes4)": "01ffc9a7",
    "target()": "d4b83992",
    "transferOwnership(address)": "f2fde38b",
    "trustedForwarder()": "7da0a877"
  },
  "id": 107
}