{"abi":[{"type":"constructor","inputs":[{"name":"_trustedForwarder","type":"address","internalType":"address"}],"stateMutability":"nonpayable"},{"type":"function","name":"acceptOwnership","inputs":[],"outputs":[],"stateMutability":"nonpayable"},{"type":"function","name":"createOrchestrator","inputs":[{"name":"orchestratorConfig","type":"tuple","internalType":"struct IOrchestratorFactory_v1.OrchestratorConfig","components":[{"name":"owner","type":"address","internalType":"address"},{"name":"token","type":"address","internalType":"contract IERC20"}]},{"name":"fundingManagerConfig","type":"tuple","internalType":"struct IOrchestratorFactory_v1.ModuleConfig","components":[{"name":"metadata","type":"tuple","internalType":"struct IModule_v1.Metadata","components":[{"name":"majorVersion","type":"uint256","internalType":"uint256"},{"name":"minorVersion","type":"uint256","internalType":"uint256"},{"name":"url","type":"string","internalType":"string"},{"name":"title","type":"string","internalType":"string"}]},{"name":"configData","type":"bytes","internalType":"bytes"},{"name":"dependencyData","type":"bytes","internalType":"bytes"}]},{"name":"authorizerConfig","type":"tuple","internalType":"struct IOrchestratorFactory_v1.ModuleConfig","components":[{"name":"metadata","type":"tuple","internalType":"struct IModule_v1.Metadata","components":[{"name":"majorVersion","type":"uint256","internalType":"uint256"},{"name":"minorVersion","type":"uint256","internalType":"uint256"},{"name":"url","type":"string","internalType":"string"},{"name":"title","type":"string","internalType":"string"}]},{"name":"configData","type":"bytes","internalType":"bytes"},{"name":"dependencyData","type":"bytes","internalType":"bytes"}]},{"name":"paymentProcessorConfig","type":"tuple","internalType":"struct IOrchestratorFactory_v1.ModuleConfig","components":[{"name":"metadata","type":"tuple","internalType":"struct IModule_v1.Metadata","components":[{"name":"majorVersion","type":"uint256","internalType":"uint256"},{"name":"minorVersion","type":"uint256","internalType":"uint256"},{"name":"url","type":"string","internalType":"string"},{"name":"title","type":"string","internalType":"string"}]},{"name":"configData","type":"bytes","internalType":"bytes"},{"name":"dependencyData","type":"bytes","internalType":"bytes"}]},{"name":"moduleConfigs","type":"tuple[]","internalType":"struct IOrchestratorFactory_v1.ModuleConfig[]","components":[{"name":"metadata","type":"tuple","internalType":"struct IModule_v1.Metadata","components":[{"name":"majorVersion","type":"uint256","internalType":"uint256"},{"name":"minorVersion","type":"uint256","internalType":"uint256"},{"name":"url","type":"string","internalType":"string"},{"name":"title","type":"string","internalType":"string"}]},{"name":"configData","type":"bytes","internalType":"bytes"},{"name":"dependencyData","type":"bytes","internalType":"bytes"}]}],"outputs":[{"name":"","type":"address","internalType":"contract IOrchestrator_v1"}],"stateMutability":"nonpayable"},{"type":"function","name":"decoder","inputs":[{"name":"data","type":"bytes","internalType":"bytes"}],"outputs":[{"name":"requirement","type":"bool","internalType":"bool"}],"stateMutability":"pure"},{"type":"function","name":"getOrchestratorByID","inputs":[{"name":"id","type":"uint256","internalType":"uint256"}],"outputs":[{"name":"","type":"address","internalType":"address"}],"stateMutability":"view"},{"type":"function","name":"getOrchestratorIDCounter","inputs":[],"outputs":[{"name":"","type":"uint256","internalType":"uint256"}],"stateMutability":"view"},{"type":"function","name":"init","inputs":[{"name":"governor_","type":"address","internalType":"address"},{"name":"target_","type":"address","internalType":"address"},{"name":"moduleFactory_","type":"address","internalType":"address"}],"outputs":[],"stateMutability":"nonpayable"},{"type":"function","name":"isTrustedForwarder","inputs":[{"name":"forwarder","type":"address","internalType":"address"}],"outputs":[{"name":"","type":"bool","internalType":"bool"}],"stateMutability":"view"},{"type":"function","name":"moduleFactory","inputs":[],"outputs":[{"name":"","type":"address","internalType":"address"}],"stateMutability":"view"},{"type":"function","name":"owner","inputs":[],"outputs":[{"name":"","type":"address","internalType":"address"}],"stateMutability":"view"},{"type":"function","name":"pendingOwner","inputs":[],"outputs":[{"name":"","type":"address","internalType":"address"}],"stateMutability":"view"},{"type":"function","name":"renounceOwnership","inputs":[],"outputs":[],"stateMutability":"nonpayable"},{"type":"function","name":"supportsInterface","inputs":[{"name":"interfaceId","type":"bytes4","internalType":"bytes4"}],"outputs":[{"name":"","type":"bool","internalType":"bool"}],"stateMutability":"view"},{"type":"function","name":"target","inputs":[],"outputs":[{"name":"","type":"address","internalType":"address"}],"stateMutability":"view"},{"type":"function","name":"transferOwnership","inputs":[{"name":"newOwner","type":"address","internalType":"address"}],"outputs":[],"stateMutability":"nonpayable"},{"type":"function","name":"trustedForwarder","inputs":[],"outputs":[{"name":"","type":"address","internalType":"address"}],"stateMutability":"view"},{"type":"event","name":"Initialized","inputs":[{"name":"version","type":"uint64","indexed":false,"internalType":"uint64"}],"anonymous":false},{"type":"event","name":"OrchestratorCreated","inputs":[{"name":"orchestratorId","type":"uint256","indexed":true,"internalType":"uint256"},{"name":"orchestratorAddress","type":"address","indexed":true,"internalType":"address"}],"anonymous":false},{"type":"event","name":"OwnershipTransferStarted","inputs":[{"name":"previousOwner","type":"address","indexed":true,"internalType":"address"},{"name":"newOwner","type":"address","indexed":true,"internalType":"address"}],"anonymous":false},{"type":"event","name":"OwnershipTransferred","inputs":[{"name":"previousOwner","type":"address","indexed":true,"internalType":"address"},{"name":"newOwner","type":"address","indexed":true,"internalType":"address"}],"anonymous":false},{"type":"error","name":"ERC1167FailedCreateClone","inputs":[]},{"type":"error","name":"InvalidInitialization","inputs":[]},{"type":"error","name":"NotInitializing","inputs":[]},{"type":"error","name":"OrchestratorFactory__InvalidId","inputs":[]},{"type":"error","name":"OrchestratorFactory__ModuleDataLengthMismatch","inputs":[]},{"type":"error","name":"OrchestratorFactory__OrchestratorOwnerIsInvalid","inputs":[]},{"type":"error","name":"OwnableInvalidOwner","inputs":[{"name":"owner","type":"address","internalType":"address"}]},{"type":"error","name":"OwnableUnauthorizedAccount","inputs":[{"name":"account","type":"address","internalType":"address"}]}],"bytecode":{"object":"0x60a060405234801561001057600080fd5b50604051611c12380380611c1283398101604081905261002f91610040565b6001600160a01b0316608052610070565b60006020828403121561005257600080fd5b81516001600160a01b038116811461006957600080fd5b9392505050565b608051611b7961009960003960008181610172015281816101b401526111e30152611b796000f3fe608060405234801561001057600080fd5b50600436106100f55760003560e01c80638991255b11610097578063d4b8399211610066578063d4b8399214610217578063d7e135941461022a578063e30c39781461023d578063f2fde38b1461024557600080fd5b80638991255b146101d85780638da5cb5b146101eb5780639e978575146101f3578063b8ddae211461020657600080fd5b8063572b6c05116100d3578063572b6c0514610162578063715018a6146101a257806379ba5097146101aa5780637da0a877146101b257600080fd5b806301ffc9a7146100fa578063184b9559146101225780633ea9d10714610137575b600080fd5b61010d610108366004611248565b610258565b60405190151581526020015b60405180910390f35b61013561013036600461129f565b6102f1565b005b61014a6101453660046112ea565b6104bb565b6040516001600160a01b039091168152602001610119565b61010d610170366004611303565b7f00000000000000000000000000000000000000000000000000000000000000006001600160a01b0390811691161490565b610135610517565b61013561052b565b7f000000000000000000000000000000000000000000000000000000000000000061014a565b60015461014a906001600160a01b031681565b61014a6105a5565b61010d61020136600461146d565b6105da565b600354604051908152602001610119565b60005461014a906001600160a01b031681565b61014a610238366004611653565b6105f7565b61014a610d5e565b610135610253366004611303565b610d87565b60007fffffffff0000000000000000000000000000000000000000000000000000000082167f0cbc567b0000000000000000000000000000000000000000000000000000000014806102eb57507f01ffc9a7000000000000000000000000000000000000000000000000000000007fffffffff000000000000000000000000000000000000000000000000000000008316145b92915050565b7ff0c57e16840df040f15088dc2f81fe391c3923bec73e23a9662efc9c229c6a00805468010000000000000000810460ff16159067ffffffffffffffff1660008115801561033c5750825b905060008267ffffffffffffffff1660011480156103595750303b155b905081158015610367575080155b1561039e576040517ff92ee8a900000000000000000000000000000000000000000000000000000000815260040160405180910390fd5b84547fffffffffffffffffffffffffffffffffffffffffffffffff000000000000000016600117855583156103ff5784547fffffffffffffffffffffffffffffffffffffffffffffff00ffffffffffffffff16680100000000000000001785555b61040888610e24565b600080546001600160a01b03808a167fffffffffffffffffffffffff000000000000000000000000000000000000000092831617909255600180549289169290911691909117905583156104b15784547fffffffffffffffffffffffffffffffffffffffffffffff00ffffffffffffffff168555604051600181527fc7f505b2f371ae2175ee4913f4499e1f2633a7b5936321eed1cdaeb6115181d29060200160405180910390a15b5050505050505050565b6000816003548111156104fa576040517f6ae20c4c00000000000000000000000000000000000000000000000000000000815260040160405180910390fd5b50506000908152600260205260409020546001600160a01b031690565b61051f610e35565b6105296000610ea2565b565b6000610535610ef6565b9050806001600160a01b0316610549610d5e565b6001600160a01b031614610599576040517f118cdaa70000000000000000000000000000000000000000000000000000000081526001600160a01b03821660048201526024015b60405180910390fd5b6105a281610ea2565b50565b6000807f9016d09d72d40fdae2fd8ceac6b6234c7706214fd39c1cd1e609a0528c1993005b546001600160a01b031692915050565b6000818060200190518101906105f09190611774565b5092915050565b60008054819061060f906001600160a01b0316610f05565b90508060026000600360008154610625906118a2565b918290555081526020808201929092526040908101600090812080547fffffffffffffffffffffffff0000000000000000000000000000000000000000166001600160a01b039586161790556001548a51938b015192517f67ecfa5e000000000000000000000000000000000000000000000000000000008152919416926367ecfa5e926106b892879190600401611906565b6020604051808303816000875af11580156106d7573d6000803e3d6000fd5b505050506040513d601f19601f820116820180604052508101906106fb919061199f565b600154875160208901516040517f67ecfa5e0000000000000000000000000000000000000000000000000000000081529394506000936001600160a01b03909316926367ecfa5e92610754929091889190600401611906565b6020604051808303816000875af1158015610773573d6000803e3d6000fd5b505050506040513d601f19601f82011682018060405250810190610797919061199f565b600154875160208901516040517f67ecfa5e0000000000000000000000000000000000000000000000000000000081529394506000936001600160a01b03909316926367ecfa5e926107f0929091899190600401611906565b6020604051808303816000875af115801561080f573d6000803e3d6000fd5b505050506040513d601f19601f82011682018060405250810190610833919061199f565b865190915060008167ffffffffffffffff81111561085357610853611320565b60405190808252806020026020018201604052801561087c578160200160208202803683370190505b50905060005b828110156109715760015489516001600160a01b03909116906367ecfa5e908b90849081106108b3576108b36119bc565b602002602001015160000151898c85815181106108d2576108d26119bc565b6020026020010151602001516040518463ffffffff1660e01b81526004016108fc93929190611906565b6020604051808303816000875af115801561091b573d6000803e3d6000fd5b505050506040513d601f19601f8201168201806040525081019061093f919061199f565b828281518110610951576109516119bc565b6001600160a01b0390921660209283029190910190910152600101610882565b508b516001600160a01b03166109b3576040517fd3ab9dbe00000000000000000000000000000000000000000000000000000000815260040160405180910390fd5b6003546040516001600160a01b03881691907f2244662809777b2119a09852cb07778be2984f50dce1dfd37ec75dd06d3844b890600090a3856001600160a01b031663de4959d560035483888888600160009054906101000a90046001600160a01b03166001600160a01b0316630c340a246040518163ffffffff1660e01b8152600401602060405180830381865afa158015610a54573d6000803e3d6000fd5b505050506040513d601f19601f82011682018060405250810190610a78919061199f565b6040518763ffffffff1660e01b8152600401610a99969594939291906119eb565b600060405180830381600087803b158015610ab357600080fd5b505af1158015610ac7573d6000803e3d6000fd5b5050505060005b82811015610ba057610afc898281518110610aeb57610aeb6119bc565b602002602001015160400151610f90565b15610b9857818181518110610b1357610b136119bc565b60200260200101516001600160a01b0316639bfdf766888b8481518110610b3c57610b3c6119bc565b6020026020010151604001516040518363ffffffff1660e01b8152600401610b65929190611a6e565b600060405180830381600087803b158015610b7f57600080fd5b505af1158015610b93573d6000803e3d6000fd5b505050505b600101610ace565b50610bae8b60400151610f90565b15610c30576040808c015190517f9bfdf7660000000000000000000000000000000000000000000000000000000081526001600160a01b03871691639bfdf76691610bfd918a91600401611a6e565b600060405180830381600087803b158015610c1757600080fd5b505af1158015610c2b573d6000803e3d6000fd5b505050505b610c3d8a60400151610f90565b15610cbf576040808b015190517f9bfdf7660000000000000000000000000000000000000000000000000000000081526001600160a01b03861691639bfdf76691610c8c918a91600401611a6e565b600060405180830381600087803b158015610ca657600080fd5b505af1158015610cba573d6000803e3d6000fd5b505050505b610ccc8960400151610f90565b15610d4e576040808a015190517f9bfdf7660000000000000000000000000000000000000000000000000000000081526001600160a01b03851691639bfdf76691610d1b918a91600401611a6e565b600060405180830381600087803b158015610d3557600080fd5b505af1158015610d49573d6000803e3d6000fd5b505050505b50939a9950505050505050505050565b6000807f237e158222e3e6968b72b9db0d8043aacf074ad9f650f0d1606b4d82ee432c006105ca565b610d8f610e35565b7f237e158222e3e6968b72b9db0d8043aacf074ad9f650f0d1606b4d82ee432c0080547fffffffffffffffffffffffff0000000000000000000000000000000000000000166001600160a01b0383169081178255610deb6105a5565b6001600160a01b03167f38d16b8cac22d99fc7c124b9cd0de2d3fa1faef420bfe791d8c362d765e2270060405160405180910390a35050565b610e2c611098565b6105a2816110ff565b610e3d610ef6565b6001600160a01b0316610e4e6105a5565b6001600160a01b03161461052957610e64610ef6565b6040517f118cdaa70000000000000000000000000000000000000000000000000000000081526001600160a01b039091166004820152602401610590565b7f237e158222e3e6968b72b9db0d8043aacf074ad9f650f0d1606b4d82ee432c0080547fffffffffffffffffffffffff0000000000000000000000000000000000000000168155610ef28261114a565b5050565b6000610f006111d3565b905090565b6000763d602d80600a3d3981f3363d3d373d3d3d363d730000008260601b60e81c176000526e5af43d82803e903d91602b57fd5bf38260781b17602052603760096000f090506001600160a01b038116610f8b576040517fc2f868f400000000000000000000000000000000000000000000000000000000815260040160405180910390fd5b919050565b6040517f9e9785750000000000000000000000000000000000000000000000000000000081526000903090639e97857590610fcf908590600401611a90565b602060405180830381865afa925050508015611008575060408051601f3d908101601f1916820190925261100591810190611aa3565b60015b61101457506000919050565b6040517f9e9785750000000000000000000000000000000000000000000000000000000081523090639e97857590611050908690600401611a90565b602060405180830381865afa15801561106d573d6000803e3d6000fd5b505050506040513d601f19601f820116820180604052508101906110919190611aa3565b9392505050565b7ff0c57e16840df040f15088dc2f81fe391c3923bec73e23a9662efc9c229c6a005468010000000000000000900460ff16610529576040517fd7e6bcf800000000000000000000000000000000000000000000000000000000815260040160405180910390fd5b611107611098565b6001600160a01b038116610599576040517f1e4fbdf700000000000000000000000000000000000000000000000000000000815260006004820152602401610590565b7f9016d09d72d40fdae2fd8ceac6b6234c7706214fd39c1cd1e609a0528c19930080547fffffffffffffffffffffffff000000000000000000000000000000000000000081166001600160a01b03848116918217845560405192169182907f8be0079c531659141344cd1fd0a4f28419497f9722a3daafe3b4186f6b6457e090600090a3505050565b6000366014336001600160a01b037f0000000000000000000000000000000000000000000000000000000000000000161480156112105750808210155b15611240576000366112228385611abe565b61122d928290611ad1565b61123691611afb565b60601c9250505090565b339250505090565b60006020828403121561125a57600080fd5b81357fffffffff000000000000000000000000000000000000000000000000000000008116811461109157600080fd5b6001600160a01b03811681146105a257600080fd5b6000806000606084860312156112b457600080fd5b83356112bf8161128a565b925060208401356112cf8161128a565b915060408401356112df8161128a565b809150509250925092565b6000602082840312156112fc57600080fd5b5035919050565b60006020828403121561131557600080fd5b81356110918161128a565b7f4e487b7100000000000000000000000000000000000000000000000000000000600052604160045260246000fd5b6040516060810167ffffffffffffffff8111828210171561137257611372611320565b60405290565b6040516080810167ffffffffffffffff8111828210171561137257611372611320565b6040805190810167ffffffffffffffff8111828210171561137257611372611320565b604051601f8201601f1916810167ffffffffffffffff811182821017156113e7576113e7611320565b604052919050565b600067ffffffffffffffff82111561140957611409611320565b50601f01601f191660200190565b600082601f83011261142857600080fd5b813561143b611436826113ef565b6113be565b81815284602083860101111561145057600080fd5b816020850160208301376000918101602001919091529392505050565b60006020828403121561147f57600080fd5b813567ffffffffffffffff81111561149657600080fd5b6114a284828501611417565b949350505050565b6000606082840312156114bc57600080fd5b6114c461134f565b9050813567ffffffffffffffff808211156114de57600080fd5b90830190608082860312156114f257600080fd5b6114fa611378565b823581526020830135602082015260408301358281111561151a57600080fd5b61152687828601611417565b60408301525060608301358281111561153e57600080fd5b61154a87828601611417565b6060830152508352602084013591508082111561156657600080fd5b61157285838601611417565b6020840152604084013591508082111561158b57600080fd5b5061159884828501611417565b60408301525092915050565b600067ffffffffffffffff8211156115be576115be611320565b5060051b60200190565b600082601f8301126115d957600080fd5b813560206115e9611436836115a4565b82815260059290921b8401810191818101908684111561160857600080fd5b8286015b8481101561164857803567ffffffffffffffff81111561162c5760008081fd5b61163a8986838b01016114aa565b84525091830191830161160c565b509695505050505050565b600080600080600085870360c081121561166c57600080fd5b604081121561167a57600080fd5b5061168361139b565b863561168e8161128a565b8152602087013561169e8161128a565b60208201529450604086013567ffffffffffffffff808211156116c057600080fd5b6116cc89838a016114aa565b955060608801359150808211156116e257600080fd5b6116ee89838a016114aa565b9450608088013591508082111561170457600080fd5b61171089838a016114aa565b935060a088013591508082111561172657600080fd5b50611733888289016115c8565b9150509295509295909350565b80518015158114610f8b57600080fd5b60005b8381101561176b578181015183820152602001611753565b50506000910152565b600080604080848603121561178857600080fd5b61179184611740565b925060208085015167ffffffffffffffff808211156117af57600080fd5b818701915087601f8301126117c357600080fd5b81516117d1611436826115a4565b81815260059190911b8301840190848101908a8311156117f057600080fd5b8585015b838110156118615780518581111561180c5760008081fd5b8601603f81018d1361181e5760008081fd5b8781015161182e611436826113ef565b8181528e8b8385010111156118435760008081fd5b611852828b83018d8601611750565b855250509186019186016117f4565b50809750505050505050509250929050565b7f4e487b7100000000000000000000000000000000000000000000000000000000600052601160045260246000fd5b60007fffffffffffffffffffffffffffffffffffffffffffffffffffffffffffffffff82036118d3576118d3611873565b5060010190565b600081518084526118f2816020860160208601611750565b601f01601f19169290920160200192915050565b60608152835160608201526020840151608082015260006040850151608060a084015261193660e08401826118da565b905060608601517fffffffffffffffffffffffffffffffffffffffffffffffffffffffffffffffa08483030160c085015261197182826118da565b9150506001600160a01b0385166020840152828103604084015261199581856118da565b9695505050505050565b6000602082840312156119b157600080fd5b81516110918161128a565b7f4e487b7100000000000000000000000000000000000000000000000000000000600052603260045260246000fd5b600060c08201888352602060c0602085015281895180845260e08601915060208b01935060005b81811015611a375784516001600160a01b031683529383019391830191600101611a12565b50506001600160a01b0398891660408601529688166060850152505050918416608083015290921660a09092019190915292915050565b6001600160a01b03831681526040602082015260006114a260408301846118da565b60208152600061109160208301846118da565b600060208284031215611ab557600080fd5b61109182611740565b818103818111156102eb576102eb611873565b60008085851115611ae157600080fd5b83861115611aee57600080fd5b5050820193919092039150565b7fffffffffffffffffffffffffffffffffffffffff0000000000000000000000008135818116916014851015611b3b5780818660140360031b1b83161692505b50509291505056fea2646970667358221220432611f7a07fd4b602ae4d064e94e15b7eac483b098e1a25dd495ce20fb94c7564736f6c63430008170033","linkReferences":{}},"methodIdentifiers":{"acceptOwnership()":"79ba5097","createOrchestrator((address,address),((uint256,uint256,string,string),bytes,bytes),((uint256,uint256,string,string),bytes,bytes),((uint256,uint256,string,string),bytes,bytes),((uint256,uint256,string,string),bytes,bytes)[])":"d7e13594","decoder(bytes)":"9e978575","getOrchestratorByID(uint256)":"3ea9d107","getOrchestratorIDCounter()":"b8ddae21","init(address,address,address)":"184b9559","isTrustedForwarder(address)":"572b6c05","moduleFactory()":"8991255b","owner()":"8da5cb5b","pendingOwner()":"e30c3978","renounceOwnership()":"715018a6","supportsInterface(bytes4)":"01ffc9a7","target()":"d4b83992","transferOwnership(address)":"f2fde38b","trustedForwarder()":"7da0a877"},"id":108}