{
  "abi": [
    {
      "type": "constructor",
      "inputs": [
        {
          "name": "_trustedForwarder",
          "type": "address",
          "internalType": "address"
        }
      ],
      "stateMutability": "nonpayable"
    },
    {
      "type": "function",
      "name": "acceptOwnership",
      "inputs": [],
      "outputs": [],
      "stateMutability": "nonpayable"
    },
    {
      "type": "function",
      "name": "beacon",
      "inputs": [],
      "outputs": [
        {
          "name": "",
          "type": "address",
          "internalType": "contract IInverterBeacon_v1"
        }
      ],
      "stateMutability": "view"
    },
    {
      "type": "function",
      "name": "createOrchestrator",
      "inputs": [
        {
          "name": "workflowConfig",
          "type": "tuple",
          "internalType": "struct IOrchestratorFactory_v1.WorkflowConfig",
          "components": [
            {
              "name": "independentUpdates",
              "type": "bool",
              "internalType": "bool"
            },
            {
              "name": "independentUpdateAdmin",
              "type": "address",
              "internalType": "address"
            }
          ]
        },
        {
          "name": "fundingManagerConfig",
          "type": "tuple",
          "internalType": "struct IOrchestratorFactory_v1.ModuleConfig",
          "components": [
            {
              "name": "metadata",
              "type": "tuple",
              "internalType": "struct IModule_v1.Metadata",
              "components": [
                {
                  "name": "majorVersion",
                  "type": "uint256",
                  "internalType": "uint256"
                },
                {
                  "name": "minorVersion",
                  "type": "uint256",
                  "internalType": "uint256"
                },
                {
                  "name": "patchVersion",
                  "type": "uint256",
                  "internalType": "uint256"
                },
                {
                  "name": "url",
                  "type": "string",
                  "internalType": "string"
                },
                {
                  "name": "title",
                  "type": "string",
                  "internalType": "string"
                }
              ]
            },
            {
              "name": "configData",
              "type": "bytes",
              "internalType": "bytes"
            }
          ]
        },
        {
          "name": "authorizerConfig",
          "type": "tuple",
          "internalType": "struct IOrchestratorFactory_v1.ModuleConfig",
          "components": [
            {
              "name": "metadata",
              "type": "tuple",
              "internalType": "struct IModule_v1.Metadata",
              "components": [
                {
                  "name": "majorVersion",
                  "type": "uint256",
                  "internalType": "uint256"
                },
                {
                  "name": "minorVersion",
                  "type": "uint256",
                  "internalType": "uint256"
                },
                {
                  "name": "patchVersion",
                  "type": "uint256",
                  "internalType": "uint256"
                },
                {
                  "name": "url",
                  "type": "string",
                  "internalType": "string"
                },
                {
                  "name": "title",
                  "type": "string",
                  "internalType": "string"
                }
              ]
            },
            {
              "name": "configData",
              "type": "bytes",
              "internalType": "bytes"
            }
          ]
        },
        {
          "name": "paymentProcessorConfig",
          "type": "tuple",
          "internalType": "struct IOrchestratorFactory_v1.ModuleConfig",
          "components": [
            {
              "name": "metadata",
              "type": "tuple",
              "internalType": "struct IModule_v1.Metadata",
              "components": [
                {
                  "name": "majorVersion",
                  "type": "uint256",
                  "internalType": "uint256"
                },
                {
                  "name": "minorVersion",
                  "type": "uint256",
                  "internalType": "uint256"
                },
                {
                  "name": "patchVersion",
                  "type": "uint256",
                  "internalType": "uint256"
                },
                {
                  "name": "url",
                  "type": "string",
                  "internalType": "string"
                },
                {
                  "name": "title",
                  "type": "string",
                  "internalType": "string"
                }
              ]
            },
            {
              "name": "configData",
              "type": "bytes",
              "internalType": "bytes"
            }
          ]
        },
        {
          "name": "moduleConfigs",
          "type": "tuple[]",
          "internalType": "struct IOrchestratorFactory_v1.ModuleConfig[]",
          "components": [
            {
              "name": "metadata",
              "type": "tuple",
              "internalType": "struct IModule_v1.Metadata",
              "components": [
                {
                  "name": "majorVersion",
                  "type": "uint256",
                  "internalType": "uint256"
                },
                {
                  "name": "minorVersion",
                  "type": "uint256",
                  "internalType": "uint256"
                },
                {
                  "name": "patchVersion",
                  "type": "uint256",
                  "internalType": "uint256"
                },
                {
                  "name": "url",
                  "type": "string",
                  "internalType": "string"
                },
                {
                  "name": "title",
                  "type": "string",
                  "internalType": "string"
                }
              ]
            },
            {
              "name": "configData",
              "type": "bytes",
              "internalType": "bytes"
            }
          ]
        }
      ],
      "outputs": [
        {
          "name": "",
          "type": "address",
          "internalType": "contract IOrchestrator_v1"
        }
      ],
      "stateMutability": "nonpayable"
    },
    {
      "type": "function",
      "name": "getOrchestratorByID",
      "inputs": [
        {
          "name": "id",
          "type": "uint256",
          "internalType": "uint256"
        }
      ],
      "outputs": [
        {
          "name": "",
          "type": "address",
          "internalType": "address"
        }
      ],
      "stateMutability": "view"
    },
    {
      "type": "function",
      "name": "getOrchestratorIDCounter",
      "inputs": [],
      "outputs": [
        {
          "name": "",
          "type": "uint256",
          "internalType": "uint256"
        }
      ],
      "stateMutability": "view"
    },
    {
      "type": "function",
      "name": "init",
      "inputs": [
        {
          "name": "governor_",
          "type": "address",
          "internalType": "address"
        },
        {
          "name": "beacon_",
          "type": "address",
          "internalType": "contract IInverterBeacon_v1"
        },
        {
          "name": "moduleFactory_",
          "type": "address",
          "internalType": "address"
        }
      ],
      "outputs": [],
      "stateMutability": "nonpayable"
    },
    {
      "type": "function",
      "name": "isTrustedForwarder",
      "inputs": [
        {
          "name": "forwarder",
          "type": "address",
          "internalType": "address"
        }
      ],
      "outputs": [
        {
          "name": "",
          "type": "bool",
          "internalType": "bool"
        }
      ],
      "stateMutability": "view"
    },
    {
      "type": "function",
      "name": "moduleFactory",
      "inputs": [],
      "outputs": [
        {
          "name": "",
          "type": "address",
          "internalType": "address"
        }
      ],
      "stateMutability": "view"
    },
    {
      "type": "function",
      "name": "owner",
      "inputs": [],
      "outputs": [
        {
          "name": "",
          "type": "address",
          "internalType": "address"
        }
      ],
      "stateMutability": "view"
    },
    {
      "type": "function",
      "name": "pendingOwner",
      "inputs": [],
      "outputs": [
        {
          "name": "",
          "type": "address",
          "internalType": "address"
        }
      ],
      "stateMutability": "view"
    },
    {
      "type": "function",
      "name": "renounceOwnership",
      "inputs": [],
      "outputs": [],
      "stateMutability": "nonpayable"
    },
    {
      "type": "function",
      "name": "supportsInterface",
      "inputs": [
        {
          "name": "interfaceId",
          "type": "bytes4",
          "internalType": "bytes4"
        }
      ],
      "outputs": [
        {
          "name": "",
          "type": "bool",
          "internalType": "bool"
        }
      ],
      "stateMutability": "view"
    },
    {
      "type": "function",
      "name": "transferOwnership",
      "inputs": [
        {
          "name": "newOwner",
          "type": "address",
          "internalType": "address"
        }
      ],
      "outputs": [],
      "stateMutability": "nonpayable"
    },
    {
      "type": "function",
      "name": "trustedForwarder",
      "inputs": [],
      "outputs": [
        {
          "name": "",
          "type": "address",
          "internalType": "address"
        }
      ],
      "stateMutability": "view"
    },
    {
      "type": "event",
      "name": "Initialized",
      "inputs": [
        {
          "name": "version",
          "type": "uint64",
          "indexed": false,
          "internalType": "uint64"
        }
      ],
      "anonymous": false
    },
    {
      "type": "event",
      "name": "OrchestratorCreated",
      "inputs": [
        {
          "name": "orchestratorId",
          "type": "uint256",
          "indexed": true,
          "internalType": "uint256"
        },
        {
          "name": "orchestratorAddress",
          "type": "address",
          "indexed": true,
          "internalType": "address"
        }
      ],
      "anonymous": false
    },
    {
      "type": "event",
      "name": "OrchestratorFactoryInitialized",
      "inputs": [
        {
          "name": "beacon",
          "type": "address",
          "indexed": true,
          "internalType": "address"
        },
        {
          "name": "moduleFactory",
          "type": "address",
          "indexed": true,
          "internalType": "address"
        }
      ],
      "anonymous": false
    },
    {
      "type": "event",
      "name": "OwnershipTransferStarted",
      "inputs": [
        {
          "name": "previousOwner",
          "type": "address",
          "indexed": true,
          "internalType": "address"
        },
        {
          "name": "newOwner",
          "type": "address",
          "indexed": true,
          "internalType": "address"
        }
      ],
      "anonymous": false
    },
    {
      "type": "event",
      "name": "OwnershipTransferred",
      "inputs": [
        {
          "name": "previousOwner",
          "type": "address",
          "indexed": true,
          "internalType": "address"
        },
        {
          "name": "newOwner",
          "type": "address",
          "indexed": true,
          "internalType": "address"
        }
      ],
      "anonymous": false
    },
    {
      "type": "error",
      "name": "InvalidInitialization",
      "inputs": []
    },
    {
      "type": "error",
      "name": "NotInitializing",
      "inputs": []
    },
    {
      "type": "error",
      "name": "OrchestratorFactory__InvalidBeacon",
      "inputs": []
    },
    {
      "type": "error",
      "name": "OrchestratorFactory__InvalidId",
      "inputs": []
    },
    {
      "type": "error",
      "name": "OrchestratorFactory__ModuleDataLengthMismatch",
      "inputs": []
    },
    {
      "type": "error",
      "name": "OrchestratorFactory__OrchestratorAdminIsInvalid",
      "inputs": []
    },
    {
      "type": "error",
      "name": "OwnableInvalidOwner",
      "inputs": [
        {
          "name": "owner",
          "type": "address",
          "internalType": "address"
        }
      ]
    },
    {
      "type": "error",
      "name": "OwnableUnauthorizedAccount",
      "inputs": [
        {
          "name": "account",
          "type": "address",
          "internalType": "address"
        }
      ]
    }
  ],
  "bytecode": {
    "object": "0x60a06040523480156200001157600080fd5b5060405162002e2b38038062002e2b833981016040819052620000349162000106565b6001600160a01b0381166080526200004b62000052565b5062000138565b7ff0c57e16840df040f15088dc2f81fe391c3923bec73e23a9662efc9c229c6a00805468010000000000000000900460ff1615620000a35760405163f92ee8a960e01b815260040160405180910390fd5b80546001600160401b0390811614620001035780546001600160401b0319166001600160401b0390811782556040519081527fc7f505b2f371ae2175ee4913f4499e1f2633a7b5936321eed1cdaeb6115181d29060200160405180910390a15b50565b6000602082840312156200011957600080fd5b81516001600160a01b03811681146200013157600080fd5b9392505050565b608051612cc9620001626000396000818161018a015281816101e40152610f3b0152612cc96000f3fe60806040523480156200001157600080fd5b5060043610620000fd5760003560e01c80637da0a8771162000097578063b8ddae21116200006e578063b8ddae211462000227578063e30c39781462000239578063f2fde38b1462000243578063ff267699146200025a57600080fd5b80637da0a87714620001e25780638991255b14620002095780638da5cb5b146200021d57600080fd5b8063572b6c0511620000d8578063572b6c05146200017757806359659e9014620001ba578063715018a614620001ce57806379ba509714620001d857600080fd5b806301ffc9a71462000102578063184b9559146200012e5780633ea9d1071462000147575b600080fd5b620001196200011336600462000fd2565b62000271565b60405190151581526020015b60405180910390f35b620001456200013f3660046200101b565b620002a9565b005b6200015e620001583660046200106d565b620004be565b6040516001600160a01b03909116815260200162000125565b620001196200018836600462001087565b7f00000000000000000000000000000000000000000000000000000000000000006001600160a01b0390811691161490565b6000546200015e906001600160a01b031681565b6200014562000502565b620001456200051a565b7f00000000000000000000000000000000000000000000000000000000000000006200015e565b6001546200015e906001600160a01b031681565b6200015e62000582565b60035460405190815260200162000125565b6200015e620005b7565b620001456200025436600462001087565b620005e1565b6200015e6200026b36600462001363565b6200066a565b60006001600160e01b03198216632a69ac9d60e21b1480620002a357506301ffc9a760e01b6001600160e01b03198316145b92915050565b7ff0c57e16840df040f15088dc2f81fe391c3923bec73e23a9662efc9c229c6a00805468010000000000000000810460ff16159067ffffffffffffffff16600081158015620002f55750825b905060008267ffffffffffffffff166001148015620003135750303b155b90508115801562000322575080155b15620003415760405163f92ee8a960e01b815260040160405180910390fd5b845467ffffffffffffffff1916600117855583156200037657845468ff00000000000000001916680100000000000000001785555b620003818862000ad3565b6040516301ffc9a760e01b8152637315960d60e01b60048201526001600160a01b038816906301ffc9a790602401602060405180830381865afa158015620003cd573d6000803e3d6000fd5b505050506040513d601f19601f82011682018060405250810190620003f3919062001464565b62000411576040516321c7867560e01b815260040160405180910390fd5b600080546001600160a01b03808a166001600160a01b03199283168117845560018054928b1692909316821790925560405190927f57add6b7e361e0194fd845e44eb9b3d4f4cc38946b81187cbb45fff9c3dcce3a91a38315620004b457845468ff000000000000000019168555604051600181527fc7f505b2f371ae2175ee4913f4499e1f2633a7b5936321eed1cdaeb6115181d29060200160405180910390a15b5050505050505050565b600081600354811115620004e557604051631ab8831360e21b815260040160405180910390fd5b50506000908152600260205260409020546001600160a01b031690565b6200050c62000ae8565b62000518600062000b44565b565b60006200052662000b82565b9050806001600160a01b03166200053c620005b7565b6001600160a01b031614620005745760405163118cdaa760e01b81526001600160a01b03821660048201526024015b60405180910390fd5b6200057f8162000b44565b50565b6000807f9016d09d72d40fdae2fd8ceac6b6234c7706214fd39c1cd1e609a0528c1993005b546001600160a01b031692915050565b6000807f237e158222e3e6968b72b9db0d8043aacf074ad9f650f0d1606b4d82ee432c00620005a7565b620005eb62000ae8565b7f237e158222e3e6968b72b9db0d8043aacf074ad9f650f0d1606b4d82ee432c0080546001600160a01b0319166001600160a01b03831690811782556200063162000582565b6001600160a01b03167f38d16b8cac22d99fc7c124b9cd0de2d3fa1faef420bfe791d8c362d765e2270060405160405180910390a35050565b60008086600001511562000747576200068262000b93565b8760200151604051620006959062000fa8565b6001600160a01b0390911681526020018190604051809103906000f5905080158015620006c6573d6000803e3d6000fd5b506001600160a01b03166020880152620006df62000b93565b600080546020808b015160408051928301815293825292516001600160a01b0390921692916200070f9062000fb6565b6200071d93929190620014cc565b8190604051809103906000f59050801580156200073e573d6000803e3d6000fd5b509050620007a3565b6200075162000b93565b6000546040516001600160a01b03909116906200076e9062000fc4565b6001600160a01b0390911681526020018190604051809103906000f59050801580156200079f573d6000803e3d6000fd5b5090505b8060026000600360008154620007b99062001510565b918290555081526020808201929092526040908101600090812080546001600160a01b0319166001600160a01b039586161790556001548a51938b0151925163f18ae49160e01b81529194169263f18ae491926200081f928791908e906004016200157c565b6020604051808303816000875af11580156200083f573d6000803e3d6000fd5b505050506040513d601f19601f82011682018060405250810190620008659190620015da565b6001548751602089015160405163f18ae49160e01b81529394506000936001600160a01b039093169263f18ae49192620008a99290918891908f906004016200157c565b6020604051808303816000875af1158015620008c9573d6000803e3d6000fd5b505050506040513d601f19601f82011682018060405250810190620008ef9190620015da565b90506000600160009054906101000a90046001600160a01b03166001600160a01b031663f18ae4918860000151868a602001518e6040518563ffffffff1660e01b81526004016200094494939291906200157c565b6020604051808303816000875af115801562000964573d6000803e3d6000fd5b505050506040513d601f19601f820116820180604052508101906200098a9190620015da565b905060006200099b87868d62000c1a565b6003546040519192506001600160a01b038716917f2244662809777b2119a09852cb07778be2984f50dce1dfd37ec75dd06d3844b890600090a36003546001546040805163030d028960e21b815290516001600160a01b03808a169463e7623d3b94909391169186918a918a918a918691630c340a249160048083019260209291908290030181865afa15801562000a37573d6000803e3d6000fd5b505050506040513d601f19601f8201168201806040525081019062000a5d9190620015da565b6040518863ffffffff1660e01b815260040162000a819796959493929190620015fa565b600060405180830381600087803b15801562000a9c57600080fd5b505af115801562000ab1573d6000803e3d6000fd5b5050505062000ac281888762000d54565b509293505050505b95945050505050565b62000add62000e35565b6200057f8162000e84565b62000af262000b82565b6001600160a01b031662000b0562000582565b6001600160a01b031614620005185762000b1e62000b82565b60405163118cdaa760e01b81526001600160a01b0390911660048201526024016200056b565b7f237e158222e3e6968b72b9db0d8043aacf074ad9f650f0d1606b4d82ee432c0080546001600160a01b031916815562000b7e8262000eba565b5050565b600062000b8e62000f2b565b905090565b600062000b9f62000b82565b6004600062000bad62000b82565b6001600160a01b031681526020810191909152604001600090812080549162000bd68362001510565b9091555060405160609290921b6bffffffffffffffffffffffff19166020830152603482015260540160405160208183030381529060405280519060200120905090565b60606000845167ffffffffffffffff81111562000c3b5762000c3b620010a7565b60405190808252806020026020018201604052801562000c65578160200160208202803683370190505b50905060005b855181101562000d4b5760015486516001600160a01b039091169063e9e9b6a09088908490811062000ca15762000ca16200169a565b60200260200101516000015187876040518463ffffffff1660e01b815260040162000ccf93929190620016b0565b6020604051808303816000875af115801562000cef573d6000803e3d6000fd5b505050506040513d601f19601f8201168201806040525081019062000d159190620015da565b82828151811062000d2a5762000d2a6200169a565b6001600160a01b039092166020928302919091019091015260010162000c6b565b50949350505050565b60005b835181101562000e2f5783818151811062000d765762000d766200169a565b60200260200101516001600160a01b031663b66a870c8385848151811062000da25762000da26200169a565b60200260200101516000015186858151811062000dc35762000dc36200169a565b6020026020010151602001516040518463ffffffff1660e01b815260040162000def9392919062001701565b600060405180830381600087803b15801562000e0a57600080fd5b505af115801562000e1f573d6000803e3d6000fd5b5050505080600101905062000d57565b50505050565b7ff0c57e16840df040f15088dc2f81fe391c3923bec73e23a9662efc9c229c6a005468010000000000000000900460ff166200051857604051631afcd79f60e31b815260040160405180910390fd5b62000e8e62000e35565b6001600160a01b0381166200057457604051631e4fbdf760e01b8152600060048201526024016200056b565b7f9016d09d72d40fdae2fd8ceac6b6234c7706214fd39c1cd1e609a0528c19930080546001600160a01b031981166001600160a01b03848116918217845560405192169182907f8be0079c531659141344cd1fd0a4f28419497f9722a3daafe3b4186f6b6457e090600090a3505050565b6000366014336001600160a01b037f00000000000000000000000000000000000000000000000000000000000000001614801562000f695750808210155b1562000fa05760003662000f7e838562001743565b62000f8b92829062001759565b62000f969162001785565b60601c9250505090565b339250505090565b61059a80620017bc83390190565b610c078062001d5683390190565b610337806200295d83390190565b60006020828403121562000fe557600080fd5b81356001600160e01b03198116811462000ffe57600080fd5b9392505050565b6001600160a01b03811681146200057f57600080fd5b6000806000606084860312156200103157600080fd5b83356200103e8162001005565b92506020840135620010508162001005565b91506040840135620010628162001005565b809150509250925092565b6000602082840312156200108057600080fd5b5035919050565b6000602082840312156200109a57600080fd5b813562000ffe8162001005565b634e487b7160e01b600052604160045260246000fd5b6040805190810167ffffffffffffffff81118282101715620010e357620010e3620010a7565b60405290565b60405160a0810167ffffffffffffffff81118282101715620010e357620010e3620010a7565b604051601f8201601f1916810167ffffffffffffffff811182821017156200113b576200113b620010a7565b604052919050565b80151581146200057f57600080fd5b600082601f8301126200116457600080fd5b813567ffffffffffffffff811115620011815762001181620010a7565b62001196601f8201601f19166020016200110f565b818152846020838601011115620011ac57600080fd5b816020850160208301376000918101602001919091529392505050565b600060408284031215620011dc57600080fd5b620011e6620010bd565b9050813567ffffffffffffffff808211156200120157600080fd5b9083019060a082860312156200121657600080fd5b62001220620010e9565b8235815260208301356020820152604083013560408201526060830135828111156200124b57600080fd5b620012598782860162001152565b6060830152506080830135828111156200127257600080fd5b620012808782860162001152565b608083015250835260208401359150808211156200129d57600080fd5b50620012ac8482850162001152565b60208301525092915050565b600082601f830112620012ca57600080fd5b8135602067ffffffffffffffff80831115620012ea57620012ea620010a7565b8260051b620012fb8382016200110f565b93845285810183019383810190888611156200131657600080fd5b84880192505b858310156200135757823584811115620013365760008081fd5b620013468a87838c0101620011c9565b83525091840191908401906200131c565b98975050505050505050565b600080600080600085870360c08112156200137d57600080fd5b60408112156200138c57600080fd5b5062001397620010bd565b8635620013a48162001143565b81526020870135620013b68162001005565b60208201529450604086013567ffffffffffffffff80821115620013d957600080fd5b620013e789838a01620011c9565b95506060880135915080821115620013fe57600080fd5b6200140c89838a01620011c9565b945060808801359150808211156200142357600080fd5b6200143189838a01620011c9565b935060a08801359150808211156200144857600080fd5b506200145788828901620012b8565b9150509295509295909350565b6000602082840312156200147757600080fd5b815162000ffe8162001143565b6000815180845260005b81811015620014ac576020818501810151868301820152016200148e565b506000602082860101526020601f19601f83011685010191505092915050565b60006001600160a01b0380861683528085166020840152506060604083015262000aca606083018462001484565b634e487b7160e01b600052601160045260246000fd5b600060018201620015255762001525620014fa565b5060010190565b8051825260208101516020830152604081015160408301526000606082015160a060608501526200156160a085018262001484565b90506080830151848203608086015262000aca828262001484565b60a0815260006200159160a08301876200152c565b6001600160a01b03861660208401528281036040840152620015b4818662001484565b84511515606085015260208501516001600160a01b03166080850152915062000aca9050565b600060208284031215620015ed57600080fd5b815162000ffe8162001005565b600060e0820189835260206001600160a01b03808b16602086015260e06040860152828a518085526101008701915060208c01945060005b818110156200165257855184168352948401949184019160010162001632565b505090891660608601526001600160a01b0388166080860152925062001676915050565b6001600160a01b03841660a08301526001600160a01b03831660c083015262001357565b634e487b7160e01b600052603260045260246000fd5b608081526000620016c560808301866200152c565b90506001600160a01b0384166020830152620016f960408301848051151582526020908101516001600160a01b0316910152565b949350505050565b6001600160a01b03841681526060602082015260006200172560608301856200152c565b828103604084015262001739818562001484565b9695505050505050565b81810381811115620002a357620002a3620014fa565b600080858511156200176a57600080fd5b838611156200177857600080fd5b5050820193919092039150565b6bffffffffffffffffffffffff198135818116916014851015620017b35780818660140360031b1b83161692505b50509291505056fe608060405234801561001057600080fd5b5060405161059a38038061059a83398101604081905261002f916100da565b806001600160a01b03811661005e57604051631e4fbdf760e01b81526000600482015260240160405180910390fd5b6100678161006e565b505061010a565b600180546001600160a01b03191690556100878161008a565b50565b600080546001600160a01b038381166001600160a01b0319831681178455604051919092169283917f8be0079c531659141344cd1fd0a4f28419497f9722a3daafe3b4186f6b6457e09190a35050565b6000602082840312156100ec57600080fd5b81516001600160a01b038116811461010357600080fd5b9392505050565b610481806101196000396000f3fe608060405234801561001057600080fd5b506004361061007d5760003560e01c80638da5cb5b1161005b5780638da5cb5b146100a7578063e30c3978146100d0578063ed6130ce146100e1578063f2fde38b146100f457600080fd5b8063715018a61461008257806379ba50971461008c5780637a4fb27a14610094575b600080fd5b61008a610107565b005b61008a61011b565b61008a6100a2366004610387565b610164565b6000546001600160a01b03165b6040516001600160a01b03909116815260200160405180910390f35b6001546001600160a01b03166100b4565b61008a6100ef366004610411565b610200565b61008a610102366004610411565b61025e565b61010f6102dc565b6101196000610309565b565b60015433906001600160a01b031681146101585760405163118cdaa760e01b81526001600160a01b03821660048201526024015b60405180910390fd5b61016181610309565b50565b61016c6102dc565b60005b818110156101fb5782828281811061018957610189610435565b905060200201602081019061019e9190610411565b6001600160a01b031663314105af6040518163ffffffff1660e01b8152600401600060405180830381600087803b1580156101d857600080fd5b505af11580156101ec573d6000803e3d6000fd5b5050505080600101905061016f565b505050565b6102086102dc565b806001600160a01b031663314105af6040518163ffffffff1660e01b8152600401600060405180830381600087803b15801561024357600080fd5b505af1158015610257573d6000803e3d6000fd5b5050505050565b6102666102dc565b600180546001600160a01b03831673ffffffffffffffffffffffffffffffffffffffff1990911681179091556102a46000546001600160a01b031690565b6001600160a01b03167f38d16b8cac22d99fc7c124b9cd0de2d3fa1faef420bfe791d8c362d765e2270060405160405180910390a350565b6000546001600160a01b031633146101195760405163118cdaa760e01b815233600482015260240161014f565b6001805473ffffffffffffffffffffffffffffffffffffffff1916905561016181600080546001600160a01b0383811673ffffffffffffffffffffffffffffffffffffffff19831681178455604051919092169283917f8be0079c531659141344cd1fd0a4f28419497f9722a3daafe3b4186f6b6457e09190a35050565b6000806020838503121561039a57600080fd5b823567ffffffffffffffff808211156103b257600080fd5b818501915085601f8301126103c657600080fd5b8135818111156103d557600080fd5b8660208260051b85010111156103ea57600080fd5b60209290920196919550909350505050565b6001600160a01b038116811461016157600080fd5b60006020828403121561042357600080fd5b813561042e816103fc565b9392505050565b634e487b7160e01b600052603260045260246000fdfea26469706673582212203d8fb6bc3f2b070c7e134fab3e17a576151e48f6bc9c8330c6de7196ea2b4a9364736f6c6343000817003360c06040523480156200001157600080fd5b5060405162000c0738038062000c078339810160408190526200003491620004eb565b826001600160a01b0316630cbcae706040518163ffffffff1660e01b81526004016020604051808303816000875af115801562000075573d6000803e3d6000fd5b505050506040513d601f19601f820116820180604052508101906200009b9190620005d0565b81620000a88282620001cf565b50506040516301ffc9a760e01b8152637315960d60e01b60048201526001600160a01b038416906301ffc9a790602401602060405180830381865afa158015620000f6573d6000803e3d6000fd5b505050506040513d601f19601f820116820180604052508101906200011c9190620005f0565b6200013a5760405163cca1645360e01b815260040160405180910390fd5b6001600160a01b0380841660a08190529083166080526040805163054fd4d560e41b815290516354fd4d50916004808201926060929091908290030181865afa1580156200018c573d6000803e3d6000fd5b505050506040513d601f19601f82011682018060405250810190620001b2919062000614565b600255600155600055620001c68262000235565b50505062000661565b620001da82620002a7565b6040516001600160a01b038316907fbc7cd75a20ee27fd9adebab32041f755214dbc6bffa90cc0225b39da2e5c2d3b90600090a2805115620002275762000222828262000327565b505050565b62000231620003a4565b5050565b7f7e644d79422f17c01e4894b5f4f588d331ebfa28653d42ae832dc59e38c9798f6200027760008051602062000be7833981519152546001600160a01b031690565b604080516001600160a01b03928316815291841660208301520160405180910390a1620002a481620003c6565b50565b806001600160a01b03163b600003620002e357604051634c9c8ce360e01b81526001600160a01b03821660048201526024015b60405180910390fd5b807f360894a13ba1a3210667c828492db98dca3e2076cc3735a920a3ca505d382bbc5b80546001600160a01b0319166001600160a01b039290921691909117905550565b6060600080846001600160a01b03168460405162000346919062000643565b600060405180830381855af49150503d806000811462000383576040519150601f19603f3d011682016040523d82523d6000602084013e62000388565b606091505b5090925090506200039b85838362000409565b95945050505050565b3415620003c45760405163b398979f60e01b815260040160405180910390fd5b565b6001600160a01b038116620003f257604051633173bdd160e11b815260006004820152602401620002da565b8060008051602062000be783398151915262000306565b60608262000422576200041c826200046f565b62000468565b81511580156200043a57506001600160a01b0384163b155b156200046557604051639996b31560e01b81526001600160a01b0385166004820152602401620002da565b50805b9392505050565b805115620004805780518082602001fd5b604051630a12f52160e11b815260040160405180910390fd5b6001600160a01b0381168114620002a457600080fd5b634e487b7160e01b600052604160045260246000fd5b60005b83811015620004e2578181015183820152602001620004c8565b50506000910152565b6000806000606084860312156200050157600080fd5b83516200050e8162000499565b6020850151909350620005218162000499565b60408501519092506001600160401b03808211156200053f57600080fd5b818601915086601f8301126200055457600080fd5b815181811115620005695762000569620004af565b604051601f8201601f19908116603f01168101908382118183101715620005945762000594620004af565b81604052828152896020848701011115620005ae57600080fd5b620005c1836020830160208801620004c5565b80955050505050509250925092565b600060208284031215620005e357600080fd5b8151620004688162000499565b6000602082840312156200060357600080fd5b815180151581146200046857600080fd5b6000806000606084860312156200062a57600080fd5b8351925060208401519150604084015190509250925092565b6000825162000657818460208701620004c5565b9190910192915050565b60805160a05161055a6200068d600039600081816101000152610197015260006078015261055a6000f3fe6080604052600436106100225760003560e01c806354fd4d501461003957610031565b366100315761002f61006e565b005b61002f61006e565b34801561004557600080fd5b506000546001546002546040805193845260208401929092529082015260600160405180910390f35b6001600160a01b037f00000000000000000000000000000000000000000000000000000000000000001633036100f35763cebefa5160e01b6000357fffffffff0000000000000000000000000000000000000000000000000000000016016100da576100d86100fb565b565b60405163759196e560e11b815260040160405180910390fd5b6100d8610222565b6101957f00000000000000000000000000000000000000000000000000000000000000006001600160a01b0316635c60da1b6040518163ffffffff1660e01b8152600401602060405180830381865afa15801561015c573d6000803e3d6000fd5b505050506040513d601f19601f82011682018060405250810190610180919061049e565b60405180602001604052806000815250610232565b7f00000000000000000000000000000000000000000000000000000000000000006001600160a01b03166354fd4d506040518163ffffffff1660e01b8152600401606060405180830381865afa1580156101f3573d6000803e3d6000fd5b505050506040513d601f19601f8201168201806040525081019061021791906104c7565b600255600155600055565b6100d861022d610291565b6102c9565b61023b826102ed565b6040516001600160a01b038316907fbc7cd75a20ee27fd9adebab32041f755214dbc6bffa90cc0225b39da2e5c2d3b90600090a2805115610285576102808282610381565b505050565b61028d6103f7565b5050565b60006102c47f360894a13ba1a3210667c828492db98dca3e2076cc3735a920a3ca505d382bbc546001600160a01b031690565b905090565b3660008037600080366000845af43d6000803e8080156102e8573d6000f35b3d6000fd5b806001600160a01b03163b60000361032857604051634c9c8ce360e01b81526001600160a01b03821660048201526024015b60405180910390fd5b7f360894a13ba1a3210667c828492db98dca3e2076cc3735a920a3ca505d382bbc80547fffffffffffffffffffffffff0000000000000000000000000000000000000000166001600160a01b0392909216919091179055565b6060600080846001600160a01b03168460405161039e91906104f5565b600060405180830381855af49150503d80600081146103d9576040519150601f19603f3d011682016040523d82523d6000602084013e6103de565b606091505b50915091506103ee858383610416565b95945050505050565b34156100d85760405163b398979f60e01b815260040160405180910390fd5b60608261042b5761042682610475565b61046e565b815115801561044257506001600160a01b0384163b155b1561046b57604051639996b31560e01b81526001600160a01b038516600482015260240161031f565b50805b9392505050565b8051156104855780518082602001fd5b604051630a12f52160e11b815260040160405180910390fd5b6000602082840312156104b057600080fd5b81516001600160a01b038116811461046e57600080fd5b6000806000606084860312156104dc57600080fd5b8351925060208401519150604084015190509250925092565b6000825160005b8181101561051657602081860181015185830152016104fc565b50600092019182525091905056fea2646970667358221220b97344e7ac12078d0dcbc91c315b85b882eb79134c55402d825dd5d0b0b4b09664736f6c63430008170033b53127684a568b3173ae13b9f8a6016e243e63b6e8ee1178d6a717850b5d610360a060405234801561001057600080fd5b5060405161033738038061033783398101604081905261002f9161006d565b6001600160a01b03811660808190526040517f1cf3b03a6cf19fa2baba4df148e9dcabedea7f8a5c07840e207e5c089be95d3e90600090a25061009d565b60006020828403121561007f57600080fd5b81516001600160a01b038116811461009657600080fd5b9392505050565b6080516102796100be600039600081816086015261012201526102796000f3fe6080604052600436106100225760003560e01c806354fd4d501461003957610031565b366100315761002f61006d565b005b61002f61006d565b34801561004557600080fd5b5061004e61007f565b6040805193845260208401929092529082015260600160405180910390f35b61007d61007861011e565b6101b4565b565b60008060007f000000000000000000000000000000000000000000000000000000000000000073ffffffffffffffffffffffffffffffffffffffff166354fd4d506040518163ffffffff1660e01b8152600401606060405180830381865afa1580156100ef573d6000803e3d6000fd5b505050506040513d601f19601f8201168201806040525081019061011391906101d8565b925092509250909192565b60007f000000000000000000000000000000000000000000000000000000000000000073ffffffffffffffffffffffffffffffffffffffff16635c60da1b6040518163ffffffff1660e01b8152600401602060405180830381865afa15801561018b573d6000803e3d6000fd5b505050506040513d601f19601f820116820180604052508101906101af9190610206565b905090565b3660008037600080366000845af43d6000803e8080156101d3573d6000f35b3d6000fd5b6000806000606084860312156101ed57600080fd5b8351925060208401519150604084015190509250925092565b60006020828403121561021857600080fd5b815173ffffffffffffffffffffffffffffffffffffffff8116811461023c57600080fd5b939250505056fea26469706673582212207cc8827101d5f1f265653ebe610daf91c65cbbf3f8965b13e192a48a650a9ccf64736f6c63430008170033a26469706673582212207c2543423ee8fed8fe31ce0df140e3103e8a1ac148c7a953f725751ce1e8dbc064736f6c63430008170033",
    "linkReferences": {}
  },
  "methodIdentifiers": {
    "acceptOwnership()": "79ba5097",
    "beacon()": "59659e90",
    "createOrchestrator((bool,address),((uint256,uint256,uint256,string,string),bytes),((uint256,uint256,uint256,string,string),bytes),((uint256,uint256,uint256,string,string),bytes),((uint256,uint256,uint256,string,string),bytes)[])": "ff267699",
    "getOrchestratorByID(uint256)": "3ea9d107",
    "getOrchestratorIDCounter()": "b8ddae21",
    "init(address,address,address)": "184b9559",
    "isTrustedForwarder(address)": "572b6c05",
    "moduleFactory()": "8991255b",
    "owner()": "8da5cb5b",
    "pendingOwner()": "e30c3978",
    "renounceOwnership()": "715018a6",
    "supportsInterface(bytes4)": "01ffc9a7",
    "transferOwnership(address)": "f2fde38b",
    "trustedForwarder()": "7da0a877"
  },
  "id": 93
}