{
  "abi": [
    {
      "type": "constructor",
      "inputs": [
        {
          "name": "_trustedForwarder",
          "type": "address",
          "internalType": "address"
        }
      ],
      "stateMutability": "nonpayable"
    },
    {
      "type": "function",
      "name": "acceptOwnership",
      "inputs": [],
      "outputs": [],
      "stateMutability": "nonpayable"
    },
    {
      "type": "function",
      "name": "beacon",
      "inputs": [],
      "outputs": [
        {
          "name": "",
          "type": "address",
          "internalType": "contract IInverterBeacon_v1"
        }
      ],
      "stateMutability": "view"
    },
    {
      "type": "function",
      "name": "createOrchestrator",
      "inputs": [
        {
          "name": "workflowConfig",
          "type": "tuple",
          "internalType": "struct IOrchestratorFactory_v1.WorkflowConfig",
          "components": [
            {
              "name": "independentUpdates",
              "type": "bool",
              "internalType": "bool"
            },
            {
              "name": "independentUpdateAdmin",
              "type": "address",
              "internalType": "address"
            }
          ]
        },
        {
          "name": "fundingManagerConfig",
          "type": "tuple",
          "internalType": "struct IOrchestratorFactory_v1.ModuleConfig",
          "components": [
            {
              "name": "metadata",
              "type": "tuple",
              "internalType": "struct IModule_v1.Metadata",
              "components": [
                {
                  "name": "majorVersion",
                  "type": "uint256",
                  "internalType": "uint256"
                },
                {
                  "name": "minorVersion",
                  "type": "uint256",
                  "internalType": "uint256"
                },
                {
                  "name": "url",
                  "type": "string",
                  "internalType": "string"
                },
                {
                  "name": "title",
                  "type": "string",
                  "internalType": "string"
                }
              ]
            },
            {
              "name": "configData",
              "type": "bytes",
              "internalType": "bytes"
            }
          ]
        },
        {
          "name": "authorizerConfig",
          "type": "tuple",
          "internalType": "struct IOrchestratorFactory_v1.ModuleConfig",
          "components": [
            {
              "name": "metadata",
              "type": "tuple",
              "internalType": "struct IModule_v1.Metadata",
              "components": [
                {
                  "name": "majorVersion",
                  "type": "uint256",
                  "internalType": "uint256"
                },
                {
                  "name": "minorVersion",
                  "type": "uint256",
                  "internalType": "uint256"
                },
                {
                  "name": "url",
                  "type": "string",
                  "internalType": "string"
                },
                {
                  "name": "title",
                  "type": "string",
                  "internalType": "string"
                }
              ]
            },
            {
              "name": "configData",
              "type": "bytes",
              "internalType": "bytes"
            }
          ]
        },
        {
          "name": "paymentProcessorConfig",
          "type": "tuple",
          "internalType": "struct IOrchestratorFactory_v1.ModuleConfig",
          "components": [
            {
              "name": "metadata",
              "type": "tuple",
              "internalType": "struct IModule_v1.Metadata",
              "components": [
                {
                  "name": "majorVersion",
                  "type": "uint256",
                  "internalType": "uint256"
                },
                {
                  "name": "minorVersion",
                  "type": "uint256",
                  "internalType": "uint256"
                },
                {
                  "name": "url",
                  "type": "string",
                  "internalType": "string"
                },
                {
                  "name": "title",
                  "type": "string",
                  "internalType": "string"
                }
              ]
            },
            {
              "name": "configData",
              "type": "bytes",
              "internalType": "bytes"
            }
          ]
        },
        {
          "name": "moduleConfigs",
          "type": "tuple[]",
          "internalType": "struct IOrchestratorFactory_v1.ModuleConfig[]",
          "components": [
            {
              "name": "metadata",
              "type": "tuple",
              "internalType": "struct IModule_v1.Metadata",
              "components": [
                {
                  "name": "majorVersion",
                  "type": "uint256",
                  "internalType": "uint256"
                },
                {
                  "name": "minorVersion",
                  "type": "uint256",
                  "internalType": "uint256"
                },
                {
                  "name": "url",
                  "type": "string",
                  "internalType": "string"
                },
                {
                  "name": "title",
                  "type": "string",
                  "internalType": "string"
                }
              ]
            },
            {
              "name": "configData",
              "type": "bytes",
              "internalType": "bytes"
            }
          ]
        }
      ],
      "outputs": [
        {
          "name": "",
          "type": "address",
          "internalType": "contract IOrchestrator_v1"
        }
      ],
      "stateMutability": "nonpayable"
    },
    {
      "type": "function",
      "name": "getOrchestratorByID",
      "inputs": [
        {
          "name": "id",
          "type": "uint256",
          "internalType": "uint256"
        }
      ],
      "outputs": [
        {
          "name": "",
          "type": "address",
          "internalType": "address"
        }
      ],
      "stateMutability": "view"
    },
    {
      "type": "function",
      "name": "getOrchestratorIDCounter",
      "inputs": [],
      "outputs": [
        {
          "name": "",
          "type": "uint256",
          "internalType": "uint256"
        }
      ],
      "stateMutability": "view"
    },
    {
      "type": "function",
      "name": "init",
      "inputs": [
        {
          "name": "governor_",
          "type": "address",
          "internalType": "address"
        },
        {
          "name": "beacon_",
          "type": "address",
          "internalType": "contract IInverterBeacon_v1"
        },
        {
          "name": "moduleFactory_",
          "type": "address",
          "internalType": "address"
        }
      ],
      "outputs": [],
      "stateMutability": "nonpayable"
    },
    {
      "type": "function",
      "name": "isTrustedForwarder",
      "inputs": [
        {
          "name": "forwarder",
          "type": "address",
          "internalType": "address"
        }
      ],
      "outputs": [
        {
          "name": "",
          "type": "bool",
          "internalType": "bool"
        }
      ],
      "stateMutability": "view"
    },
    {
      "type": "function",
      "name": "moduleFactory",
      "inputs": [],
      "outputs": [
        {
          "name": "",
          "type": "address",
          "internalType": "address"
        }
      ],
      "stateMutability": "view"
    },
    {
      "type": "function",
      "name": "owner",
      "inputs": [],
      "outputs": [
        {
          "name": "",
          "type": "address",
          "internalType": "address"
        }
      ],
      "stateMutability": "view"
    },
    {
      "type": "function",
      "name": "pendingOwner",
      "inputs": [],
      "outputs": [
        {
          "name": "",
          "type": "address",
          "internalType": "address"
        }
      ],
      "stateMutability": "view"
    },
    {
      "type": "function",
      "name": "renounceOwnership",
      "inputs": [],
      "outputs": [],
      "stateMutability": "nonpayable"
    },
    {
      "type": "function",
      "name": "supportsInterface",
      "inputs": [
        {
          "name": "interfaceId",
          "type": "bytes4",
          "internalType": "bytes4"
        }
      ],
      "outputs": [
        {
          "name": "",
          "type": "bool",
          "internalType": "bool"
        }
      ],
      "stateMutability": "view"
    },
    {
      "type": "function",
      "name": "transferOwnership",
      "inputs": [
        {
          "name": "newOwner",
          "type": "address",
          "internalType": "address"
        }
      ],
      "outputs": [],
      "stateMutability": "nonpayable"
    },
    {
      "type": "function",
      "name": "trustedForwarder",
      "inputs": [],
      "outputs": [
        {
          "name": "",
          "type": "address",
          "internalType": "address"
        }
      ],
      "stateMutability": "view"
    },
    {
      "type": "event",
      "name": "Initialized",
      "inputs": [
        {
          "name": "version",
          "type": "uint64",
          "indexed": false,
          "internalType": "uint64"
        }
      ],
      "anonymous": false
    },
    {
      "type": "event",
      "name": "OrchestratorCreated",
      "inputs": [
        {
          "name": "orchestratorId",
          "type": "uint256",
          "indexed": true,
          "internalType": "uint256"
        },
        {
          "name": "orchestratorAddress",
          "type": "address",
          "indexed": true,
          "internalType": "address"
        }
      ],
      "anonymous": false
    },
    {
      "type": "event",
      "name": "OwnershipTransferStarted",
      "inputs": [
        {
          "name": "previousOwner",
          "type": "address",
          "indexed": true,
          "internalType": "address"
        },
        {
          "name": "newOwner",
          "type": "address",
          "indexed": true,
          "internalType": "address"
        }
      ],
      "anonymous": false
    },
    {
      "type": "event",
      "name": "OwnershipTransferred",
      "inputs": [
        {
          "name": "previousOwner",
          "type": "address",
          "indexed": true,
          "internalType": "address"
        },
        {
          "name": "newOwner",
          "type": "address",
          "indexed": true,
          "internalType": "address"
        }
      ],
      "anonymous": false
    },
    {
      "type": "error",
      "name": "InvalidInitialization",
      "inputs": []
    },
    {
      "type": "error",
      "name": "NotInitializing",
      "inputs": []
    },
    {
      "type": "error",
      "name": "OrchestratorFactory__InvalidBeacon",
      "inputs": []
    },
    {
      "type": "error",
      "name": "OrchestratorFactory__InvalidId",
      "inputs": []
    },
    {
      "type": "error",
      "name": "OrchestratorFactory__ModuleDataLengthMismatch",
      "inputs": []
    },
    {
      "type": "error",
      "name": "OrchestratorFactory__OrchestratorAdminIsInvalid",
      "inputs": []
    },
    {
      "type": "error",
      "name": "OwnableInvalidOwner",
      "inputs": [
        {
          "name": "owner",
          "type": "address",
          "internalType": "address"
        }
      ]
    },
    {
      "type": "error",
      "name": "OwnableUnauthorizedAccount",
      "inputs": [
        {
          "name": "account",
          "type": "address",
          "internalType": "address"
        }
      ]
    }
  ],
  "bytecode": {
    "object": "0x60a060405234801561001057600080fd5b50604051612a53380380612a5383398101604081905261002f91610040565b6001600160a01b0316608052610070565b60006020828403121561005257600080fd5b81516001600160a01b038116811461006957600080fd5b9392505050565b6080516129ba6100996000396000818161018a015281816101e40152610d8a01526129ba6000f3fe60806040523480156200001157600080fd5b5060043610620000fd5760003560e01c80637da0a8771162000097578063b8ddae21116200006e578063b8ddae211462000227578063e30c39781462000239578063ece3f58a1462000243578063f2fde38b146200025a57600080fd5b80637da0a87714620001e25780638991255b14620002095780638da5cb5b146200021d57600080fd5b8063572b6c0511620000d8578063572b6c05146200017757806359659e9014620001ba578063715018a614620001ce57806379ba509714620001d857600080fd5b806301ffc9a71462000102578063184b9559146200012e5780633ea9d1071462000147575b600080fd5b620001196200011336600462000e21565b62000271565b60405190151581526020015b60405180910390f35b620001456200013f36600462000e6a565b620002a9565b005b6200015e6200015836600462000ebc565b62000497565b6040516001600160a01b03909116815260200162000125565b620001196200018836600462000ed6565b7f00000000000000000000000000000000000000000000000000000000000000006001600160a01b0390811691161490565b6000546200015e906001600160a01b031681565b62000145620004db565b62000145620004f3565b7f00000000000000000000000000000000000000000000000000000000000000006200015e565b6001546200015e906001600160a01b031681565b6200015e6200055b565b60035460405190815260200162000125565b6200015e62000590565b6200015e62000254366004620011a8565b620005ba565b620001456200026b36600462000ed6565b620009df565b60006001600160e01b0319821663ba63316760e01b1480620002a357506301ffc9a760e01b6001600160e01b03198316145b92915050565b7ff0c57e16840df040f15088dc2f81fe391c3923bec73e23a9662efc9c229c6a00805468010000000000000000810460ff16159067ffffffffffffffff16600081158015620002f55750825b905060008267ffffffffffffffff166001148015620003135750303b155b90508115801562000322575080155b15620003415760405163f92ee8a960e01b815260040160405180910390fd5b845467ffffffffffffffff1916600117855583156200037657845468ff00000000000000001916680100000000000000001785555b620003818862000a68565b6040516301ffc9a760e01b81526311bbcf3b60e31b60048201526001600160a01b038816906301ffc9a790602401602060405180830381865afa158015620003cd573d6000803e3d6000fd5b505050506040513d601f19601f82011682018060405250810190620003f39190620012a9565b62000411576040516321c7867560e01b815260040160405180910390fd5b600080546001600160a01b03808a166001600160a01b031992831617909255600180549289169290911691909117905583156200048d57845468ff000000000000000019168555604051600181527fc7f505b2f371ae2175ee4913f4499e1f2633a7b5936321eed1cdaeb6115181d29060200160405180910390a15b5050505050505050565b600081600354811115620004be57604051631ab8831360e21b815260040160405180910390fd5b50506000908152600260205260409020546001600160a01b031690565b620004e562000a7d565b620004f1600062000ad9565b565b6000620004ff62000b17565b9050806001600160a01b03166200051562000590565b6001600160a01b0316146200054d5760405163118cdaa760e01b81526001600160a01b03821660048201526024015b60405180910390fd5b620005588162000ad9565b50565b6000807f9016d09d72d40fdae2fd8ceac6b6234c7706214fd39c1cd1e609a0528c1993005b546001600160a01b031692915050565b6000807f237e158222e3e6968b72b9db0d8043aacf074ad9f650f0d1606b4d82ee432c0062000580565b60008086600001511562000670578660200151604051620005db9062000df7565b6001600160a01b039091168152602001604051809103906000f08015801562000608573d6000803e3d6000fd5b506001600160a01b039081166020808a018290526000805460408051938401815291835290519316926200063c9062000e05565b6200064a9392919062001311565b604051809103906000f08015801562000667573d6000803e3d6000fd5b509050620006be565b6000546040516001600160a01b03909116906200068d9062000e13565b6001600160a01b039091168152602001604051809103906000f080158015620006ba573d6000803e3d6000fd5b5090505b8060026000600360008154620006d4906200135e565b918290555081526020808201929092526040908101600090812080546001600160a01b0319166001600160a01b039586161790556001548a51938b01519251633730c81360e11b815291941692636e619026926200073a928791908e906004016200137a565b6020604051808303816000875af11580156200075a573d6000803e3d6000fd5b505050506040513d601f19601f8201168201806040525081019062000780919062001416565b60015487516020890151604051633730c81360e11b81529394506000936001600160a01b0390931692636e61902692620007c49290918891908f906004016200137a565b6020604051808303816000875af1158015620007e4573d6000803e3d6000fd5b505050506040513d601f19601f820116820180604052508101906200080a919062001416565b90506000600160009054906101000a90046001600160a01b03166001600160a01b0316636e6190268860000151868a602001518e6040518563ffffffff1660e01b81526004016200085f94939291906200137a565b6020604051808303816000875af11580156200087f573d6000803e3d6000fd5b505050506040513d601f19601f82011682018060405250810190620008a5919062001416565b90506000620008b687868d62000b28565b6003546040519192506001600160a01b038716917f2244662809777b2119a09852cb07778be2984f50dce1dfd37ec75dd06d3844b890600090a36003546001546040805163030d028960e21b815290516001600160a01b03808a169463e7623d3b94909391169186918a918a918a918691630c340a249160048083019260209291908290030181865afa15801562000952573d6000803e3d6000fd5b505050506040513d601f19601f8201168201806040525081019062000978919062001416565b6040518863ffffffff1660e01b81526004016200099c979695949392919062001436565b600060405180830381600087803b158015620009b757600080fd5b505af1158015620009cc573d6000803e3d6000fd5b50969d9c50505050505050505050505050565b620009e962000a7d565b7f237e158222e3e6968b72b9db0d8043aacf074ad9f650f0d1606b4d82ee432c0080546001600160a01b0319166001600160a01b038316908117825562000a2f6200055b565b6001600160a01b03167f38d16b8cac22d99fc7c124b9cd0de2d3fa1faef420bfe791d8c362d765e2270060405160405180910390a35050565b62000a7262000c84565b620005588162000cd3565b62000a8762000b17565b6001600160a01b031662000a9a6200055b565b6001600160a01b031614620004f15762000ab362000b17565b60405163118cdaa760e01b81526001600160a01b03909116600482015260240162000544565b7f237e158222e3e6968b72b9db0d8043aacf074ad9f650f0d1606b4d82ee432c0080546001600160a01b031916815562000b138262000d09565b5050565b600062000b2362000d7a565b905090565b60606000845167ffffffffffffffff81111562000b495762000b4962000ef6565b60405190808252806020026020018201604052801562000b73578160200160208202803683370190505b50905060005b855181101562000c7b5760015486516001600160a01b0390911690636e6190269088908490811062000baf5762000baf620014d6565b6020026020010151600001518789858151811062000bd15762000bd1620014d6565b602002602001015160200151886040518563ffffffff1660e01b815260040162000bff94939291906200137a565b6020604051808303816000875af115801562000c1f573d6000803e3d6000fd5b505050506040513d601f19601f8201168201806040525081019062000c45919062001416565b82828151811062000c5a5762000c5a620014d6565b6001600160a01b039092166020928302919091019091015260010162000b79565b50949350505050565b7ff0c57e16840df040f15088dc2f81fe391c3923bec73e23a9662efc9c229c6a005468010000000000000000900460ff16620004f157604051631afcd79f60e31b815260040160405180910390fd5b62000cdd62000c84565b6001600160a01b0381166200054d57604051631e4fbdf760e01b81526000600482015260240162000544565b7f9016d09d72d40fdae2fd8ceac6b6234c7706214fd39c1cd1e609a0528c19930080546001600160a01b031981166001600160a01b03848116918217845560405192169182907f8be0079c531659141344cd1fd0a4f28419497f9722a3daafe3b4186f6b6457e090600090a3505050565b6000366014336001600160a01b037f00000000000000000000000000000000000000000000000000000000000000001614801562000db85750808210155b1562000def5760003662000dcd8385620014ec565b62000dda92829062001502565b62000de5916200152e565b60601c9250505090565b339250505090565b610573806200156583390190565b610bc58062001ad883390190565b6102e8806200269d83390190565b60006020828403121562000e3457600080fd5b81356001600160e01b03198116811462000e4d57600080fd5b9392505050565b6001600160a01b03811681146200055857600080fd5b60008060006060848603121562000e8057600080fd5b833562000e8d8162000e54565b9250602084013562000e9f8162000e54565b9150604084013562000eb18162000e54565b809150509250925092565b60006020828403121562000ecf57600080fd5b5035919050565b60006020828403121562000ee957600080fd5b813562000e4d8162000e54565b634e487b7160e01b600052604160045260246000fd5b6040805190810167ffffffffffffffff8111828210171562000f325762000f3262000ef6565b60405290565b6040516080810167ffffffffffffffff8111828210171562000f325762000f3262000ef6565b604051601f8201601f1916810167ffffffffffffffff8111828210171562000f8a5762000f8a62000ef6565b604052919050565b80151581146200055857600080fd5b600082601f83011262000fb357600080fd5b813567ffffffffffffffff81111562000fd05762000fd062000ef6565b62000fe5601f8201601f191660200162000f5e565b81815284602083860101111562000ffb57600080fd5b816020850160208301376000918101602001919091529392505050565b6000604082840312156200102b57600080fd5b6200103562000f0c565b9050813567ffffffffffffffff808211156200105057600080fd5b90830190608082860312156200106557600080fd5b6200106f62000f38565b82358152602083013560208201526040830135828111156200109057600080fd5b6200109e8782860162000fa1565b604083015250606083013582811115620010b757600080fd5b620010c58782860162000fa1565b60608301525083526020840135915080821115620010e257600080fd5b50620010f18482850162000fa1565b60208301525092915050565b600082601f8301126200110f57600080fd5b8135602067ffffffffffffffff808311156200112f576200112f62000ef6565b8260051b6200114083820162000f5e565b93845285810183019383810190888611156200115b57600080fd5b84880192505b858310156200119c578235848111156200117b5760008081fd5b6200118b8a87838c010162001018565b835250918401919084019062001161565b98975050505050505050565b600080600080600085870360c0811215620011c257600080fd5b6040811215620011d157600080fd5b50620011dc62000f0c565b8635620011e98162000f92565b81526020870135620011fb8162000e54565b60208201529450604086013567ffffffffffffffff808211156200121e57600080fd5b6200122c89838a0162001018565b955060608801359150808211156200124357600080fd5b6200125189838a0162001018565b945060808801359150808211156200126857600080fd5b6200127689838a0162001018565b935060a08801359150808211156200128d57600080fd5b506200129c88828901620010fd565b9150509295509295909350565b600060208284031215620012bc57600080fd5b815162000e4d8162000f92565b6000815180845260005b81811015620012f157602081850181015186830182015201620012d3565b506000602082860101526020601f19601f83011685010191505092915050565b60006001600160a01b038086168352808516602084015250606060408301526200133f6060830184620012c9565b95945050505050565b634e487b7160e01b600052601160045260246000fd5b60006001820162001373576200137362001348565b5060010190565b60a08152845160a0820152602085015160c082015260006040860151608060e0840152620013ad610120840182620012c9565b90506060870151609f1984830301610100850152620013cd8282620012c9565b9150506001600160a01b0380871660208501528382036040850152620013f48287620012c9565b9250845115156060850152806020860151166080850152505095945050505050565b6000602082840312156200142957600080fd5b815162000e4d8162000e54565b600060e0820189835260206001600160a01b03808b16602086015260e06040860152828a518085526101008701915060208c01945060005b818110156200148e5785518416835294840194918401916001016200146e565b505090891660608601526001600160a01b03881660808601529250620014b2915050565b6001600160a01b03841660a08301526001600160a01b03831660c08301526200119c565b634e487b7160e01b600052603260045260246000fd5b81810381811115620002a357620002a362001348565b600080858511156200151357600080fd5b838611156200152157600080fd5b5050820193919092039150565b6bffffffffffffffffffffffff1981358181169160148510156200155c5780818660140360031b1b83161692505b50509291505056fe608060405234801561001057600080fd5b5060405161057338038061057383398101604081905261002f916100da565b806001600160a01b03811661005e57604051631e4fbdf760e01b81526000600482015260240160405180910390fd5b6100678161006e565b505061010a565b600180546001600160a01b03191690556100878161008a565b50565b600080546001600160a01b038381166001600160a01b0319831681178455604051919092169283917f8be0079c531659141344cd1fd0a4f28419497f9722a3daafe3b4186f6b6457e09190a35050565b6000602082840312156100ec57600080fd5b81516001600160a01b038116811461010357600080fd5b9392505050565b61045a806101196000396000f3fe608060405234801561001057600080fd5b506004361061007d5760003560e01c80638da5cb5b1161005b5780638da5cb5b146100a7578063e30c3978146100d0578063ed6130ce146100e1578063f2fde38b146100f457600080fd5b8063715018a61461008257806379ba50971461008c5780637a4fb27a14610094575b600080fd5b61008a610107565b005b61008a61011b565b61008a6100a2366004610360565b610164565b6000546001600160a01b03165b6040516001600160a01b03909116815260200160405180910390f35b6001546001600160a01b03166100b4565b61008a6100ef3660046103ea565b610200565b61008a6101023660046103ea565b61025e565b61010f6102cf565b61011960006102fc565b565b60015433906001600160a01b031681146101585760405163118cdaa760e01b81526001600160a01b03821660048201526024015b60405180910390fd5b610161816102fc565b50565b61016c6102cf565b60005b818110156101fb578282828181106101895761018961040e565b905060200201602081019061019e91906103ea565b6001600160a01b031663314105af6040518163ffffffff1660e01b8152600401600060405180830381600087803b1580156101d857600080fd5b505af11580156101ec573d6000803e3d6000fd5b5050505080600101905061016f565b505050565b6102086102cf565b806001600160a01b031663314105af6040518163ffffffff1660e01b8152600401600060405180830381600087803b15801561024357600080fd5b505af1158015610257573d6000803e3d6000fd5b5050505050565b6102666102cf565b600180546001600160a01b0383166001600160a01b031990911681179091556102976000546001600160a01b031690565b6001600160a01b03167f38d16b8cac22d99fc7c124b9cd0de2d3fa1faef420bfe791d8c362d765e2270060405160405180910390a350565b6000546001600160a01b031633146101195760405163118cdaa760e01b815233600482015260240161014f565b600180546001600160a01b031916905561016181600080546001600160a01b038381166001600160a01b0319831681178455604051919092169283917f8be0079c531659141344cd1fd0a4f28419497f9722a3daafe3b4186f6b6457e09190a35050565b6000806020838503121561037357600080fd5b823567ffffffffffffffff8082111561038b57600080fd5b818501915085601f83011261039f57600080fd5b8135818111156103ae57600080fd5b8660208260051b85010111156103c357600080fd5b60209290920196919550909350505050565b6001600160a01b038116811461016157600080fd5b6000602082840312156103fc57600080fd5b8135610407816103d5565b9392505050565b634e487b7160e01b600052603260045260246000fdfea26469706673582212204da5932b383545235a0f3793c4e9d83e20b58fceed45491b4ea7012789b681fc64736f6c6343000817003360c06040523480156200001157600080fd5b5060405162000bc538038062000bc58339810160408190526200003491620004e5565b826001600160a01b0316630cbcae706040518163ffffffff1660e01b81526004016020604051808303816000875af115801562000075573d6000803e3d6000fd5b505050506040513d601f19601f820116820180604052508101906200009b9190620005ca565b81620000a88282620001c9565b50506040516301ffc9a760e01b81526311bbcf3b60e31b60048201526001600160a01b038416906301ffc9a790602401602060405180830381865afa158015620000f6573d6000803e3d6000fd5b505050506040513d601f19601f820116820180604052508101906200011c9190620005ea565b6200013a5760405163cca1645360e01b815260040160405180910390fd5b6001600160a01b0380841660a08190529083166080526040805163054fd4d560e41b815281516354fd4d50926004808401939192918290030181865afa15801562000189573d6000803e3d6000fd5b505050506040513d601f19601f82011682018060405250810190620001af91906200060e565b600155600055620001c0826200022f565b50505062000651565b620001d482620002a1565b6040516001600160a01b038316907fbc7cd75a20ee27fd9adebab32041f755214dbc6bffa90cc0225b39da2e5c2d3b90600090a280511562000221576200021c828262000321565b505050565b6200022b6200039e565b5050565b7f7e644d79422f17c01e4894b5f4f588d331ebfa28653d42ae832dc59e38c9798f6200027160008051602062000ba5833981519152546001600160a01b031690565b604080516001600160a01b03928316815291841660208301520160405180910390a16200029e81620003c0565b50565b806001600160a01b03163b600003620002dd57604051634c9c8ce360e01b81526001600160a01b03821660048201526024015b60405180910390fd5b807f360894a13ba1a3210667c828492db98dca3e2076cc3735a920a3ca505d382bbc5b80546001600160a01b0319166001600160a01b039290921691909117905550565b6060600080846001600160a01b03168460405162000340919062000633565b600060405180830381855af49150503d80600081146200037d576040519150601f19603f3d011682016040523d82523d6000602084013e62000382565b606091505b5090925090506200039585838362000403565b95945050505050565b3415620003be5760405163b398979f60e01b815260040160405180910390fd5b565b6001600160a01b038116620003ec57604051633173bdd160e11b815260006004820152602401620002d4565b8060008051602062000ba583398151915262000300565b6060826200041c57620004168262000469565b62000462565b81511580156200043457506001600160a01b0384163b155b156200045f57604051639996b31560e01b81526001600160a01b0385166004820152602401620002d4565b50805b9392505050565b8051156200047a5780518082602001fd5b604051630a12f52160e11b815260040160405180910390fd5b6001600160a01b03811681146200029e57600080fd5b634e487b7160e01b600052604160045260246000fd5b60005b83811015620004dc578181015183820152602001620004c2565b50506000910152565b600080600060608486031215620004fb57600080fd5b8351620005088162000493565b60208501519093506200051b8162000493565b60408501519092506001600160401b03808211156200053957600080fd5b818601915086601f8301126200054e57600080fd5b815181811115620005635762000563620004a9565b604051601f8201601f19908116603f011681019083821181831017156200058e576200058e620004a9565b81604052828152896020848701011115620005a857600080fd5b620005bb836020830160208801620004bf565b80955050505050509250925092565b600060208284031215620005dd57600080fd5b8151620004628162000493565b600060208284031215620005fd57600080fd5b815180151581146200046257600080fd5b600080604083850312156200062257600080fd5b505080516020909101519092909150565b6000825162000647818460208701620004bf565b9190910192915050565b60805160a0516105296200067c6000396000818160e6015261017f01526000605e01526105296000f3fe60806040526004361061001e5760003560e01c806354fd4d5014610028575b610026610054565b005b34801561003457600080fd5b506000546001546040805192835260208301919091520160405180910390f35b6001600160a01b037f00000000000000000000000000000000000000000000000000000000000000001633036100d95763cebefa5160e01b6000357fffffffff0000000000000000000000000000000000000000000000000000000016016100c0576100be6100e1565b565b60405163759196e560e11b815260040160405180910390fd5b6100be610206565b61017d7f00000000000000000000000000000000000000000000000000000000000000006001600160a01b0316630cbcae706040518163ffffffff1660e01b81526004016020604051808303816000875af1158015610144573d6000803e3d6000fd5b505050506040513d601f19601f820116820180604052508101906101689190610477565b60405180602001604052806000815250610216565b7f00000000000000000000000000000000000000000000000000000000000000006001600160a01b03166354fd4d506040518163ffffffff1660e01b81526004016040805180830381865afa1580156101da573d6000803e3d6000fd5b505050506040513d601f19601f820116820180604052508101906101fe91906104a0565b600155600055565b6100be610211610275565b6102ad565b61021f826102d1565b6040516001600160a01b038316907fbc7cd75a20ee27fd9adebab32041f755214dbc6bffa90cc0225b39da2e5c2d3b90600090a280511561026957610264828261035a565b505050565b6102716103d0565b5050565b60006102a87f360894a13ba1a3210667c828492db98dca3e2076cc3735a920a3ca505d382bbc546001600160a01b031690565b905090565b3660008037600080366000845af43d6000803e8080156102cc573d6000f35b3d6000fd5b806001600160a01b03163b60000361030c57604051634c9c8ce360e01b81526001600160a01b03821660048201526024015b60405180910390fd5b7f360894a13ba1a3210667c828492db98dca3e2076cc3735a920a3ca505d382bbc805473ffffffffffffffffffffffffffffffffffffffff19166001600160a01b0392909216919091179055565b6060600080846001600160a01b03168460405161037791906104c4565b600060405180830381855af49150503d80600081146103b2576040519150601f19603f3d011682016040523d82523d6000602084013e6103b7565b606091505b50915091506103c78583836103ef565b95945050505050565b34156100be5760405163b398979f60e01b815260040160405180910390fd5b606082610404576103ff8261044e565b610447565b815115801561041b57506001600160a01b0384163b155b1561044457604051639996b31560e01b81526001600160a01b0385166004820152602401610303565b50805b9392505050565b80511561045e5780518082602001fd5b604051630a12f52160e11b815260040160405180910390fd5b60006020828403121561048957600080fd5b81516001600160a01b038116811461044757600080fd5b600080604083850312156104b357600080fd5b505080516020909101519092909150565b6000825160005b818110156104e557602081860181015185830152016104cb565b50600092019182525091905056fea2646970667358221220995a013d3f5af243af458e54d334e51a225d112b2c25c48dc62c7a3b63b03bd664736f6c63430008170033b53127684a568b3173ae13b9f8a6016e243e63b6e8ee1178d6a717850b5d610360a060405234801561001057600080fd5b506040516102e83803806102e883398101604081905261002f9161006d565b6001600160a01b03811660808190526040517f1cf3b03a6cf19fa2baba4df148e9dcabedea7f8a5c07840e207e5c089be95d3e90600090a25061009d565b60006020828403121561007f57600080fd5b81516001600160a01b038116811461009657600080fd5b9392505050565b60805161022b6100bd60003960008181606d015260f8015261022b6000f3fe60806040526004361061001e5760003560e01c806354fd4d5014610028575b610026610056565b005b34801561003457600080fd5b5061003d610068565b6040805192835260208301919091520160405180910390f35b6100666100616100f4565b61017d565b565b6000807f00000000000000000000000000000000000000000000000000000000000000006001600160a01b03166354fd4d506040518163ffffffff1660e01b81526004016040805180830381865afa1580156100c8573d6000803e3d6000fd5b505050506040513d601f19601f820116820180604052508101906100ec91906101a1565b915091509091565b60007f00000000000000000000000000000000000000000000000000000000000000006001600160a01b0316635c60da1b6040518163ffffffff1660e01b8152600401602060405180830381865afa158015610154573d6000803e3d6000fd5b505050506040513d601f19601f8201168201806040525081019061017891906101c5565b905090565b3660008037600080366000845af43d6000803e80801561019c573d6000f35b3d6000fd5b600080604083850312156101b457600080fd5b505080516020909101519092909150565b6000602082840312156101d757600080fd5b81516001600160a01b03811681146101ee57600080fd5b939250505056fea2646970667358221220494aca5b3c909285d507e77d29127a89d11b83ca5c04ec1f8fb550dcccec6ec064736f6c63430008170033a2646970667358221220190bedee41ec0cdb8f53983c82093d98de6173239176c66fb2836855be03175d64736f6c63430008170033",
    "linkReferences": {}
  },
  "methodIdentifiers": {
    "acceptOwnership()": "79ba5097",
    "beacon()": "59659e90",
    "createOrchestrator((bool,address),((uint256,uint256,string,string),bytes),((uint256,uint256,string,string),bytes),((uint256,uint256,string,string),bytes),((uint256,uint256,string,string),bytes)[])": "ece3f58a",
    "getOrchestratorByID(uint256)": "3ea9d107",
    "getOrchestratorIDCounter()": "b8ddae21",
    "init(address,address,address)": "184b9559",
    "isTrustedForwarder(address)": "572b6c05",
    "moduleFactory()": "8991255b",
    "owner()": "8da5cb5b",
    "pendingOwner()": "e30c3978",
    "renounceOwnership()": "715018a6",
    "supportsInterface(bytes4)": "01ffc9a7",
    "transferOwnership(address)": "f2fde38b",
    "trustedForwarder()": "7da0a877"
  },
  "id": 106
}