{
  "abi": [
    {
      "type": "constructor",
      "inputs": [
        {
          "name": "_trustedForwarder",
          "type": "address",
          "internalType": "address"
        }
      ],
      "stateMutability": "nonpayable"
    },
    {
      "type": "function",
      "name": "acceptOwnership",
      "inputs": [],
      "outputs": [],
      "stateMutability": "nonpayable"
    },
    {
      "type": "function",
      "name": "beacon",
      "inputs": [],
      "outputs": [
        {
          "name": "",
          "type": "address",
          "internalType": "contract IInverterBeacon_v1"
        }
      ],
      "stateMutability": "view"
    },
    {
      "type": "function",
      "name": "createOrchestrator",
      "inputs": [
        {
          "name": "workflowConfig",
          "type": "tuple",
          "internalType": "struct IOrchestratorFactory_v1.WorkflowConfig",
          "components": [
            {
              "name": "independentUpdates",
              "type": "bool",
              "internalType": "bool"
            },
            {
              "name": "independentUpdateAdmin",
              "type": "address",
              "internalType": "address"
            }
          ]
        },
        {
          "name": "fundingManagerConfig",
          "type": "tuple",
          "internalType": "struct IOrchestratorFactory_v1.ModuleConfig",
          "components": [
            {
              "name": "metadata",
              "type": "tuple",
              "internalType": "struct IModule_v1.Metadata",
              "components": [
                {
                  "name": "majorVersion",
                  "type": "uint256",
                  "internalType": "uint256"
                },
                {
                  "name": "minorVersion",
                  "type": "uint256",
                  "internalType": "uint256"
                },
                {
                  "name": "patchVersion",
                  "type": "uint256",
                  "internalType": "uint256"
                },
                {
                  "name": "url",
                  "type": "string",
                  "internalType": "string"
                },
                {
                  "name": "title",
                  "type": "string",
                  "internalType": "string"
                }
              ]
            },
            {
              "name": "configData",
              "type": "bytes",
              "internalType": "bytes"
            }
          ]
        },
        {
          "name": "authorizerConfig",
          "type": "tuple",
          "internalType": "struct IOrchestratorFactory_v1.ModuleConfig",
          "components": [
            {
              "name": "metadata",
              "type": "tuple",
              "internalType": "struct IModule_v1.Metadata",
              "components": [
                {
                  "name": "majorVersion",
                  "type": "uint256",
                  "internalType": "uint256"
                },
                {
                  "name": "minorVersion",
                  "type": "uint256",
                  "internalType": "uint256"
                },
                {
                  "name": "patchVersion",
                  "type": "uint256",
                  "internalType": "uint256"
                },
                {
                  "name": "url",
                  "type": "string",
                  "internalType": "string"
                },
                {
                  "name": "title",
                  "type": "string",
                  "internalType": "string"
                }
              ]
            },
            {
              "name": "configData",
              "type": "bytes",
              "internalType": "bytes"
            }
          ]
        },
        {
          "name": "paymentProcessorConfig",
          "type": "tuple",
          "internalType": "struct IOrchestratorFactory_v1.ModuleConfig",
          "components": [
            {
              "name": "metadata",
              "type": "tuple",
              "internalType": "struct IModule_v1.Metadata",
              "components": [
                {
                  "name": "majorVersion",
                  "type": "uint256",
                  "internalType": "uint256"
                },
                {
                  "name": "minorVersion",
                  "type": "uint256",
                  "internalType": "uint256"
                },
                {
                  "name": "patchVersion",
                  "type": "uint256",
                  "internalType": "uint256"
                },
                {
                  "name": "url",
                  "type": "string",
                  "internalType": "string"
                },
                {
                  "name": "title",
                  "type": "string",
                  "internalType": "string"
                }
              ]
            },
            {
              "name": "configData",
              "type": "bytes",
              "internalType": "bytes"
            }
          ]
        },
        {
          "name": "moduleConfigs",
          "type": "tuple[]",
          "internalType": "struct IOrchestratorFactory_v1.ModuleConfig[]",
          "components": [
            {
              "name": "metadata",
              "type": "tuple",
              "internalType": "struct IModule_v1.Metadata",
              "components": [
                {
                  "name": "majorVersion",
                  "type": "uint256",
                  "internalType": "uint256"
                },
                {
                  "name": "minorVersion",
                  "type": "uint256",
                  "internalType": "uint256"
                },
                {
                  "name": "patchVersion",
                  "type": "uint256",
                  "internalType": "uint256"
                },
                {
                  "name": "url",
                  "type": "string",
                  "internalType": "string"
                },
                {
                  "name": "title",
                  "type": "string",
                  "internalType": "string"
                }
              ]
            },
            {
              "name": "configData",
              "type": "bytes",
              "internalType": "bytes"
            }
          ]
        }
      ],
      "outputs": [
        {
          "name": "",
          "type": "address",
          "internalType": "contract IOrchestrator_v1"
        }
      ],
      "stateMutability": "nonpayable"
    },
    {
      "type": "function",
      "name": "deployExternalContract",
      "inputs": [
        {
          "name": "code",
          "type": "bytes",
          "internalType": "bytes"
        },
        {
          "name": "calls",
          "type": "bytes[]",
          "internalType": "bytes[]"
        }
      ],
      "outputs": [
        {
          "name": "deploymentAddress",
          "type": "address",
          "internalType": "address"
        }
      ],
      "stateMutability": "nonpayable"
    },
    {
      "type": "function",
      "name": "getOrchestratorByID",
      "inputs": [
        {
          "name": "id",
          "type": "uint256",
          "internalType": "uint256"
        }
      ],
      "outputs": [
        {
          "name": "",
          "type": "address",
          "internalType": "address"
        }
      ],
      "stateMutability": "view"
    },
    {
      "type": "function",
      "name": "getOrchestratorIDCounter",
      "inputs": [],
      "outputs": [
        {
          "name": "",
          "type": "uint256",
          "internalType": "uint256"
        }
      ],
      "stateMutability": "view"
    },
    {
      "type": "function",
      "name": "init",
      "inputs": [
        {
          "name": "governor_",
          "type": "address",
          "internalType": "address"
        },
        {
          "name": "beacon_",
          "type": "address",
          "internalType": "contract IInverterBeacon_v1"
        },
        {
          "name": "moduleFactory_",
          "type": "address",
          "internalType": "address"
        }
      ],
      "outputs": [],
      "stateMutability": "nonpayable"
    },
    {
      "type": "function",
      "name": "isTrustedForwarder",
      "inputs": [
        {
          "name": "forwarder",
          "type": "address",
          "internalType": "address"
        }
      ],
      "outputs": [
        {
          "name": "",
          "type": "bool",
          "internalType": "bool"
        }
      ],
      "stateMutability": "view"
    },
    {
      "type": "function",
      "name": "moduleFactory",
      "inputs": [],
      "outputs": [
        {
          "name": "",
          "type": "address",
          "internalType": "address"
        }
      ],
      "stateMutability": "view"
    },
    {
      "type": "function",
      "name": "owner",
      "inputs": [],
      "outputs": [
        {
          "name": "",
          "type": "address",
          "internalType": "address"
        }
      ],
      "stateMutability": "view"
    },
    {
      "type": "function",
      "name": "pendingOwner",
      "inputs": [],
      "outputs": [
        {
          "name": "",
          "type": "address",
          "internalType": "address"
        }
      ],
      "stateMutability": "view"
    },
    {
      "type": "function",
      "name": "renounceOwnership",
      "inputs": [],
      "outputs": [],
      "stateMutability": "nonpayable"
    },
    {
      "type": "function",
      "name": "supportsInterface",
      "inputs": [
        {
          "name": "interfaceId",
          "type": "bytes4",
          "internalType": "bytes4"
        }
      ],
      "outputs": [
        {
          "name": "",
          "type": "bool",
          "internalType": "bool"
        }
      ],
      "stateMutability": "view"
    },
    {
      "type": "function",
      "name": "transferOwnership",
      "inputs": [
        {
          "name": "newOwner",
          "type": "address",
          "internalType": "address"
        }
      ],
      "outputs": [],
      "stateMutability": "nonpayable"
    },
    {
      "type": "function",
      "name": "trustedForwarder",
      "inputs": [],
      "outputs": [
        {
          "name": "",
          "type": "address",
          "internalType": "address"
        }
      ],
      "stateMutability": "view"
    },
    {
      "type": "event",
      "name": "Initialized",
      "inputs": [
        {
          "name": "version",
          "type": "uint64",
          "indexed": false,
          "internalType": "uint64"
        }
      ],
      "anonymous": false
    },
    {
      "type": "event",
      "name": "OrchestratorCreated",
      "inputs": [
        {
          "name": "orchestratorId",
          "type": "uint256",
          "indexed": true,
          "internalType": "uint256"
        },
        {
          "name": "orchestratorAddress",
          "type": "address",
          "indexed": true,
          "internalType": "address"
        }
      ],
      "anonymous": false
    },
    {
      "type": "event",
      "name": "OrchestratorFactoryInitialized",
      "inputs": [
        {
          "name": "beacon",
          "type": "address",
          "indexed": true,
          "internalType": "address"
        },
        {
          "name": "moduleFactory",
          "type": "address",
          "indexed": true,
          "internalType": "address"
        }
      ],
      "anonymous": false
    },
    {
      "type": "event",
      "name": "OwnershipTransferStarted",
      "inputs": [
        {
          "name": "previousOwner",
          "type": "address",
          "indexed": true,
          "internalType": "address"
        },
        {
          "name": "newOwner",
          "type": "address",
          "indexed": true,
          "internalType": "address"
        }
      ],
      "anonymous": false
    },
    {
      "type": "event",
      "name": "OwnershipTransferred",
      "inputs": [
        {
          "name": "previousOwner",
          "type": "address",
          "indexed": true,
          "internalType": "address"
        },
        {
          "name": "newOwner",
          "type": "address",
          "indexed": true,
          "internalType": "address"
        }
      ],
      "anonymous": false
    },
    {
      "type": "error",
      "name": "Create2EmptyBytecode",
      "inputs": []
    },
    {
      "type": "error",
      "name": "Create2FailedDeployment",
      "inputs": []
    },
    {
      "type": "error",
      "name": "Create2InsufficientBalance",
      "inputs": [
        {
          "name": "balance",
          "type": "uint256",
          "internalType": "uint256"
        },
        {
          "name": "needed",
          "type": "uint256",
          "internalType": "uint256"
        }
      ]
    },
    {
      "type": "error",
      "name": "InvalidInitialization",
      "inputs": []
    },
    {
      "type": "error",
      "name": "NotInitializing",
      "inputs": []
    },
    {
      "type": "error",
      "name": "OrchestratorFactory__InvalidBeacon",
      "inputs": []
    },
    {
      "type": "error",
      "name": "OrchestratorFactory__InvalidId",
      "inputs": []
    },
    {
      "type": "error",
      "name": "OrchestratorFactory__ModuleDataLengthMismatch",
      "inputs": []
    },
    {
      "type": "error",
      "name": "OrchestratorFactory__OrchestratorAdminIsInvalid",
      "inputs": []
    },
    {
      "type": "error",
      "name": "OwnableInvalidOwner",
      "inputs": [
        {
          "name": "owner",
          "type": "address",
          "internalType": "address"
        }
      ]
    },
    {
      "type": "error",
      "name": "OwnableUnauthorizedAccount",
      "inputs": [
        {
          "name": "account",
          "type": "address",
          "internalType": "address"
        }
      ]
    }
  ],
  "bytecode": {
    "object": "0x60a060405234801562000010575f80fd5b506040516200301438038062003014833981016040819052620000339162000105565b6001600160a01b0381166080526200004a62000051565b5062000134565b7ff0c57e16840df040f15088dc2f81fe391c3923bec73e23a9662efc9c229c6a00805468010000000000000000900460ff1615620000a25760405163f92ee8a960e01b815260040160405180910390fd5b80546001600160401b0390811614620001025780546001600160401b0319166001600160401b0390811782556040519081527fc7f505b2f371ae2175ee4913f4499e1f2633a7b5936321eed1cdaeb6115181d29060200160405180910390a15b50565b5f6020828403121562000116575f80fd5b81516001600160a01b03811681146200012d575f80fd5b9392505050565b608051612eb96200015b5f395f8181610190015281816101e901526110e00152612eb95ff3fe608060405234801562000010575f80fd5b506004361062000104575f3560e01c80637da0a877116200009f578063de4b1b68116200006b578063de4b1b68146200023e578063e30c39781462000255578063f2fde38b146200025f578063ff2676991462000276575f80fd5b80637da0a87714620001e75780638991255b146200020e5780638da5cb5b1462000222578063b8ddae21146200022c575f80fd5b8063572b6c0511620000df578063572b6c05146200017d57806359659e9014620001c0578063715018a614620001d357806379ba509714620001dd575f80fd5b806301ffc9a71462000108578063184b955914620001345780633ea9d107146200014d575b5f80fd5b6200011f6200011936600462001176565b6200028d565b60405190151581526020015b60405180910390f35b6200014b62000145366004620011b4565b620002c4565b005b620001646200015e36600462001203565b620004d4565b6040516001600160a01b0390911681526020016200012b565b6200011f6200018e3660046200121b565b7f00000000000000000000000000000000000000000000000000000000000000006001600160a01b0390811691161490565b5f5462000164906001600160a01b031681565b6200014b62000516565b6200014b6200052d565b7f000000000000000000000000000000000000000000000000000000000000000062000164565b60015462000164906001600160a01b031681565b6200016462000594565b6003546040519081526020016200012b565b620001646200024f36600462001239565b620005c8565b6200016462000717565b6200014b620002703660046200121b565b62000740565b6200016462000287366004620015a5565b620007c9565b5f6001600160e01b03198216631dfb6a4760e21b1480620002be57506301ffc9a760e01b6001600160e01b03198316145b92915050565b7ff0c57e16840df040f15088dc2f81fe391c3923bec73e23a9662efc9c229c6a00805468010000000000000000810460ff16159067ffffffffffffffff165f811580156200030f5750825b90505f8267ffffffffffffffff1660011480156200032c5750303b155b9050811580156200033b575080155b156200035a5760405163f92ee8a960e01b815260040160405180910390fd5b845467ffffffffffffffff1916600117855583156200038f57845468ff00000000000000001916680100000000000000001785555b6200039a8862000c0c565b6040516301ffc9a760e01b8152637315960d60e01b60048201526001600160a01b038816906301ffc9a790602401602060405180830381865afa158015620003e4573d5f803e3d5ffd5b505050506040513d601f19601f820116820180604052508101906200040a91906200169d565b62000428576040516321c7867560e01b815260040160405180910390fd5b5f80546001600160a01b03808a166001600160a01b03199283168117845560018054928b1692909316821790925560405190927f57add6b7e361e0194fd845e44eb9b3d4f4cc38946b81187cbb45fff9c3dcce3a91a38315620004ca57845468ff000000000000000019168555604051600181527fc7f505b2f371ae2175ee4913f4499e1f2633a7b5936321eed1cdaeb6115181d29060200160405180910390a15b5050505050505050565b5f81600354811115620004fa57604051631ab8831360e21b815260040160405180910390fd5b50505f908152600260205260409020546001600160a01b031690565b6200052062000c21565b6200052b5f62000c7d565b565b5f6200053862000cbb565b9050806001600160a01b03166200054e62000717565b6001600160a01b031614620005865760405163118cdaa760e01b81526001600160a01b03821660048201526024015b60405180910390fd5b620005918162000c7d565b50565b5f807f9016d09d72d40fdae2fd8ceac6b6234c7706214fd39c1cd1e609a0528c1993005b546001600160a01b031692915050565b5f620006145f620005d862000ccb565b87878080601f0160208091040260200160405190810160405280939291908181526020018383808284375f9201919091525062000d4f92505050565b90505f5b828110156200070e575f826001600160a01b0316858584818110620006415762000641620016bb565b9050602002810190620006559190620016cf565b604051620006659291906200171c565b5f604051808303815f865af19150503d805f8114620006a0576040519150601f19603f3d011682016040523d82523d5f602084013e620006a5565b606091505b5050905080620007045760405162461bcd60e51b815260206004820152602360248201527f45787465726e616c20636f6e7472616374206465706c6f796d656e74206661696044820152621b195960ea1b60648201526084016200057d565b5060010162000618565b50949350505050565b5f807f237e158222e3e6968b72b9db0d8043aacf074ad9f650f0d1606b4d82ee432c00620005b8565b6200074a62000c21565b7f237e158222e3e6968b72b9db0d8043aacf074ad9f650f0d1606b4d82ee432c0080546001600160a01b0319166001600160a01b03831690811782556200079062000594565b6001600160a01b03167f38d16b8cac22d99fc7c124b9cd0de2d3fa1faef420bfe791d8c362d765e2270060405160405180910390a35050565b5f80865f0151156200089d57620007df62000ccb565b8760200151604051620007f2906200114c565b6001600160a01b0390911681526020018190604051809103905ff590508015801562000820573d5f803e3d5ffd5b506001600160a01b031660208801526200083962000ccb565b5f80546020808b015160408051928301815293825292516001600160a01b03909216929162000868906200115a565b620008769392919062001770565b8190604051809103905ff590508015801562000894573d5f803e3d5ffd5b509050620008f5565b620008a762000ccb565b5f546040516001600160a01b0390911690620008c39062001168565b6001600160a01b0390911681526020018190604051809103905ff5905080158015620008f1573d5f803e3d5ffd5b5090505b8060025f60035f81546200090990620017b1565b9182905550815260208082019290925260409081015f90812080546001600160a01b0319166001600160a01b039586161790556001548a51938b0151925163f18ae49160e01b81529194169263f18ae491926200096e928791908e906004016200181b565b6020604051808303815f875af11580156200098b573d5f803e3d5ffd5b505050506040513d601f19601f82011682018060405250810190620009b1919062001878565b6001548751602089015160405163f18ae49160e01b81529394505f936001600160a01b039093169263f18ae49192620009f49290918891908f906004016200181b565b6020604051808303815f875af115801562000a11573d5f803e3d5ffd5b505050506040513d601f19601f8201168201806040525081019062000a37919062001878565b90505f60015f9054906101000a90046001600160a01b03166001600160a01b031663f18ae491885f0151868a602001518e6040518563ffffffff1660e01b815260040162000a8994939291906200181b565b6020604051808303815f875af115801562000aa6573d5f803e3d5ffd5b505050506040513d601f19601f8201168201806040525081019062000acc919062001878565b90505f62000adc87868d62000dd8565b6003546040519192506001600160a01b038716917f2244662809777b2119a09852cb07778be2984f50dce1dfd37ec75dd06d3844b8905f90a36003546001546040805163030d028960e21b815290516001600160a01b03808a169463e7623d3b94909391169186918a918a918a918691630c340a249160048083019260209291908290030181865afa15801562000b75573d5f803e3d5ffd5b505050506040513d601f19601f8201168201806040525081019062000b9b919062001878565b6040518863ffffffff1660e01b815260040162000bbf979695949392919062001896565b5f604051808303815f87803b15801562000bd7575f80fd5b505af115801562000bea573d5f803e3d5ffd5b5050505062000bfb81888762000f03565b509293505050505b95945050505050565b62000c1662000fdd565b62000591816200102c565b62000c2b62000cbb565b6001600160a01b031662000c3e62000594565b6001600160a01b0316146200052b5762000c5762000cbb565b60405163118cdaa760e01b81526001600160a01b0390911660048201526024016200057d565b7f237e158222e3e6968b72b9db0d8043aacf074ad9f650f0d1606b4d82ee432c0080546001600160a01b031916815562000cb78262001061565b5050565b5f62000cc6620010d1565b905090565b5f62000cd662000cbb565b60045f62000ce362000cbb565b6001600160a01b0316815260208101919091526040015f90812080549162000d0b83620017b1565b9091555060405160609290921b6bffffffffffffffffffffffff19166020830152603482015260540160405160208183030381529060405280519060200120905090565b5f8347101562000d7c5760405163392efb2b60e21b8152476004820152602481018590526044016200057d565b81515f0362000d9e57604051631328927760e21b815260040160405180910390fd5b8282516020840186f590506001600160a01b03811662000dd157604051633a0ba96160e11b815260040160405180910390fd5b9392505050565b60605f845167ffffffffffffffff81111562000df85762000df8620012fc565b60405190808252806020026020018201604052801562000e22578160200160208202803683370190505b5090505f5b85518110156200070e5760015486516001600160a01b039091169063e9e9b6a09088908490811062000e5d5762000e5d620016bb565b60200260200101515f015187876040518463ffffffff1660e01b815260040162000e8a9392919062001934565b6020604051808303815f875af115801562000ea7573d5f803e3d5ffd5b505050506040513d601f19601f8201168201806040525081019062000ecd919062001878565b82828151811062000ee25762000ee2620016bb565b6001600160a01b039092166020928302919091019091015260010162000e27565b5f5b835181101562000fd75783818151811062000f245762000f24620016bb565b60200260200101516001600160a01b031663b66a870c8385848151811062000f505762000f50620016bb565b60200260200101515f015186858151811062000f705762000f70620016bb565b6020026020010151602001516040518463ffffffff1660e01b815260040162000f9c9392919062001984565b5f604051808303815f87803b15801562000fb4575f80fd5b505af115801562000fc7573d5f803e3d5ffd5b5050505080600101905062000f05565b50505050565b7ff0c57e16840df040f15088dc2f81fe391c3923bec73e23a9662efc9c229c6a005468010000000000000000900460ff166200052b57604051631afcd79f60e31b815260040160405180910390fd5b6200103662000fdd565b6001600160a01b0381166200058657604051631e4fbdf760e01b81525f60048201526024016200057d565b7f9016d09d72d40fdae2fd8ceac6b6234c7706214fd39c1cd1e609a0528c19930080546001600160a01b031981166001600160a01b03848116918217845560405192169182907f8be0079c531659141344cd1fd0a4f28419497f9722a3daafe3b4186f6b6457e0905f90a3505050565b5f366014336001600160a01b037f0000000000000000000000000000000000000000000000000000000000000000161480156200110e5750808210155b1562001144575f36620011228385620019c5565b6200112f928290620019db565b6200113a9162001a04565b60601c9250505090565b339250505090565b6105738062001a3b83390190565b610bbc8062001fae83390190565b61031a8062002b6a83390190565b5f6020828403121562001187575f80fd5b81356001600160e01b03198116811462000dd1575f80fd5b6001600160a01b038116811462000591575f80fd5b5f805f60608486031215620011c7575f80fd5b8335620011d4816200119f565b92506020840135620011e6816200119f565b91506040840135620011f8816200119f565b809150509250925092565b5f6020828403121562001214575f80fd5b5035919050565b5f602082840312156200122c575f80fd5b813562000dd1816200119f565b5f805f80604085870312156200124d575f80fd5b843567ffffffffffffffff8082111562001265575f80fd5b818701915087601f83011262001279575f80fd5b81358181111562001288575f80fd5b8860208285010111156200129a575f80fd5b602092830196509450908601359080821115620012b5575f80fd5b818701915087601f830112620012c9575f80fd5b813581811115620012d8575f80fd5b8860208260051b8501011115620012ed575f80fd5b95989497505060200194505050565b634e487b7160e01b5f52604160045260245ffd5b6040805190810167ffffffffffffffff81118282101715620013365762001336620012fc565b60405290565b60405160a0810167ffffffffffffffff81118282101715620013365762001336620012fc565b604051601f8201601f1916810167ffffffffffffffff811182821017156200138e576200138e620012fc565b604052919050565b801515811462000591575f80fd5b5f82601f830112620013b4575f80fd5b813567ffffffffffffffff811115620013d157620013d1620012fc565b620013e6601f8201601f191660200162001362565b818152846020838601011115620013fb575f80fd5b816020850160208301375f918101602001919091529392505050565b5f6040828403121562001428575f80fd5b6200143262001310565b9050813567ffffffffffffffff808211156200144c575f80fd5b9083019060a0828603121562001460575f80fd5b6200146a6200133c565b82358152602083013560208201526040830135604082015260608301358281111562001494575f80fd5b620014a287828601620013a4565b606083015250608083013582811115620014ba575f80fd5b620014c887828601620013a4565b60808301525083526020840135915080821115620014e4575f80fd5b50620014f384828501620013a4565b60208301525092915050565b5f82601f8301126200150f575f80fd5b8135602067ffffffffffffffff808311156200152f576200152f620012fc565b8260051b6200154083820162001362565b93845285810183019383810190888611156200155a575f80fd5b84880192505b85831015620015995782358481111562001578575f80fd5b620015888a87838c010162001417565b835250918401919084019062001560565b98975050505050505050565b5f805f805f85870360c0811215620015bb575f80fd5b6040811215620015c9575f80fd5b50620015d462001310565b8635620015e18162001396565b81526020870135620015f3816200119f565b60208201529450604086013567ffffffffffffffff8082111562001615575f80fd5b6200162389838a0162001417565b9550606088013591508082111562001639575f80fd5b6200164789838a0162001417565b945060808801359150808211156200165d575f80fd5b6200166b89838a0162001417565b935060a088013591508082111562001681575f80fd5b506200169088828901620014ff565b9150509295509295909350565b5f60208284031215620016ae575f80fd5b815162000dd18162001396565b634e487b7160e01b5f52603260045260245ffd5b5f808335601e19843603018112620016e5575f80fd5b83018035915067ffffffffffffffff82111562001700575f80fd5b60200191503681900382131562001715575f80fd5b9250929050565b818382375f9101908152919050565b5f81518084525f5b81811015620017515760208185018101518683018201520162001733565b505f602082860101526020601f19601f83011685010191505092915050565b5f6001600160a01b0380861683528085166020840152506060604083015262000c0360608301846200172b565b634e487b7160e01b5f52601160045260245ffd5b5f60018201620017c557620017c56200179d565b5060010190565b8051825260208101516020830152604081015160408301525f606082015160a060608501526200180060a08501826200172b565b90506080830151848203608086015262000c0382826200172b565b60a081525f6200182f60a0830187620017cc565b6001600160a01b038616602084015282810360408401526200185281866200172b565b84511515606085015260208501516001600160a01b03166080850152915062000c039050565b5f6020828403121562001889575f80fd5b815162000dd1816200119f565b5f60e0820189835260206001600160a01b03808b16602086015260e06040860152828a518085526101008701915060208c0194505f5b81811015620018ec578551841683529484019491840191600101620018cc565b505090891660608601526001600160a01b0388166080860152925062001910915050565b6001600160a01b03841660a08301526001600160a01b03831660c083015262001599565b608081525f620019486080830186620017cc565b90506001600160a01b03841660208301526200197c60408301848051151582526020908101516001600160a01b0316910152565b949350505050565b6001600160a01b0384168152606060208201525f620019a76060830185620017cc565b8281036040840152620019bb81856200172b565b9695505050505050565b81810381811115620002be57620002be6200179d565b5f8085851115620019ea575f80fd5b83861115620019f7575f80fd5b5050820193919092039150565b6bffffffffffffffffffffffff19813581811691601485101562001a325780818660140360031b1b83161692505b50509291505056fe608060405234801561000f575f80fd5b5060405161057338038061057383398101604081905261002e916100d7565b806001600160a01b03811661005c57604051631e4fbdf760e01b81525f600482015260240160405180910390fd5b6100658161006c565b5050610104565b600180546001600160a01b031916905561008581610088565b50565b5f80546001600160a01b038381166001600160a01b0319831681178455604051919092169283917f8be0079c531659141344cd1fd0a4f28419497f9722a3daafe3b4186f6b6457e09190a35050565b5f602082840312156100e7575f80fd5b81516001600160a01b03811681146100fd575f80fd5b9392505050565b610462806101115f395ff3fe608060405234801561000f575f80fd5b506004361061007a575f3560e01c80638da5cb5b116100585780638da5cb5b146100a3578063e30c3978146100cb578063ed6130ce146100dc578063f2fde38b146100ef575f80fd5b8063715018a61461007e57806379ba5097146100885780637a4fb27a14610090575b5f80fd5b610086610102565b005b610086610115565b61008661009e366004610373565b61015e565b5f546001600160a01b03165b6040516001600160a01b03909116815260200160405180910390f35b6001546001600160a01b03166100af565b6100866100ea3660046103f6565b6101f4565b6100866100fd3660046103f6565b61024d565b61010a6102ca565b6101135f6102f6565b565b60015433906001600160a01b031681146101525760405163118cdaa760e01b81526001600160a01b03821660048201526024015b60405180910390fd5b61015b816102f6565b50565b6101666102ca565b5f5b818110156101ef5782828281811061018257610182610418565b905060200201602081019061019791906103f6565b6001600160a01b031663314105af6040518163ffffffff1660e01b81526004015f604051808303815f87803b1580156101ce575f80fd5b505af11580156101e0573d5f803e3d5ffd5b50505050806001019050610168565b505050565b6101fc6102ca565b806001600160a01b031663314105af6040518163ffffffff1660e01b81526004015f604051808303815f87803b158015610234575f80fd5b505af1158015610246573d5f803e3d5ffd5b5050505050565b6102556102ca565b600180546001600160a01b03831673ffffffffffffffffffffffffffffffffffffffff1990911681179091556102925f546001600160a01b031690565b6001600160a01b03167f38d16b8cac22d99fc7c124b9cd0de2d3fa1faef420bfe791d8c362d765e2270060405160405180910390a350565b5f546001600160a01b031633146101135760405163118cdaa760e01b8152336004820152602401610149565b6001805473ffffffffffffffffffffffffffffffffffffffff1916905561015b815f80546001600160a01b0383811673ffffffffffffffffffffffffffffffffffffffff19831681178455604051919092169283917f8be0079c531659141344cd1fd0a4f28419497f9722a3daafe3b4186f6b6457e09190a35050565b5f8060208385031215610384575f80fd5b823567ffffffffffffffff8082111561039b575f80fd5b818501915085601f8301126103ae575f80fd5b8135818111156103bc575f80fd5b8660208260051b85010111156103d0575f80fd5b60209290920196919550909350505050565b6001600160a01b038116811461015b575f80fd5b5f60208284031215610406575f80fd5b8135610411816103e2565b9392505050565b634e487b7160e01b5f52603260045260245ffdfea2646970667358221220729c2129ec9fbeca00b9d81bef2cb4c4e4dc5bead0948ca4e718464ab15a0dae64736f6c6343000817003360c060405234801562000010575f80fd5b5060405162000bbc38038062000bbc8339810160408190526200003391620004d4565b826001600160a01b0316630cbcae706040518163ffffffff1660e01b81526004016020604051808303815f875af115801562000071573d5f803e3d5ffd5b505050506040513d601f19601f82011682018060405250810190620000979190620005b3565b81620000a48282620001c6565b50506040516301ffc9a760e01b8152637315960d60e01b60048201526001600160a01b038416906301ffc9a790602401602060405180830381865afa158015620000f0573d5f803e3d5ffd5b505050506040513d601f19601f82011682018060405250810190620001169190620005d1565b620001345760405163cca1645360e01b815260040160405180910390fd5b6001600160a01b0380841660a08190529083166080526040805163054fd4d560e41b815290516354fd4d50916004808201926060929091908290030181865afa15801562000184573d5f803e3d5ffd5b505050506040513d601f19601f82011682018060405250810190620001aa9190620005f2565b6002556001555f55620001bd826200022b565b5050506200063b565b620001d1826200029c565b6040516001600160a01b038316907fbc7cd75a20ee27fd9adebab32041f755214dbc6bffa90cc0225b39da2e5c2d3b905f90a28051156200021d576200021882826200031b565b505050565b6200022762000394565b5050565b7f7e644d79422f17c01e4894b5f4f588d331ebfa28653d42ae832dc59e38c9798f6200026c5f8051602062000b9c833981519152546001600160a01b031690565b604080516001600160a01b03928316815291841660208301520160405180910390a16200029981620003b6565b50565b806001600160a01b03163b5f03620002d757604051634c9c8ce360e01b81526001600160a01b03821660048201526024015b60405180910390fd5b807f360894a13ba1a3210667c828492db98dca3e2076cc3735a920a3ca505d382bbc5b80546001600160a01b0319166001600160a01b039290921691909117905550565b60605f80846001600160a01b0316846040516200033991906200061e565b5f60405180830381855af49150503d805f811462000373576040519150601f19603f3d011682016040523d82523d5f602084013e62000378565b606091505b5090925090506200038b858383620003f7565b95945050505050565b3415620003b45760405163b398979f60e01b815260040160405180910390fd5b565b6001600160a01b038116620003e157604051633173bdd160e11b81525f6004820152602401620002ce565b805f8051602062000b9c833981519152620002fa565b60608262000410576200040a826200045d565b62000456565b81511580156200042857506001600160a01b0384163b155b156200045357604051639996b31560e01b81526001600160a01b0385166004820152602401620002ce565b50805b9392505050565b8051156200046e5780518082602001fd5b604051630a12f52160e11b815260040160405180910390fd5b6001600160a01b038116811462000299575f80fd5b634e487b7160e01b5f52604160045260245ffd5b5f5b83811015620004cc578181015183820152602001620004b2565b50505f910152565b5f805f60608486031215620004e7575f80fd5b8351620004f48162000487565b6020850151909350620005078162000487565b60408501519092506001600160401b038082111562000524575f80fd5b818601915086601f83011262000538575f80fd5b8151818111156200054d576200054d6200049c565b604051601f8201601f19908116603f011681019083821181831017156200057857620005786200049c565b8160405282815289602084870101111562000591575f80fd5b620005a4836020830160208801620004b0565b80955050505050509250925092565b5f60208284031215620005c4575f80fd5b8151620004568162000487565b5f60208284031215620005e2575f80fd5b8151801515811462000456575f80fd5b5f805f6060848603121562000605575f80fd5b8351925060208401519150604084015190509250925092565b5f825162000631818460208701620004b0565b9190910192915050565b60805160a05161053a620006625f395f818160fc015261019001525f6075015261053a5ff3fe608060405260043610610021575f3560e01c806354fd4d501461003857610030565b366100305761002e61006b565b005b61002e61006b565b348015610043575f80fd5b505f546001546002546040805193845260208401929092529082015260600160405180910390f35b6001600160a01b037f00000000000000000000000000000000000000000000000000000000000000001633036100ef5763cebefa5160e01b5f357fffffffff0000000000000000000000000000000000000000000000000000000016016100d6576100d46100f7565b565b60405163759196e560e11b815260040160405180910390fd5b6100d4610218565b61018e7f00000000000000000000000000000000000000000000000000000000000000006001600160a01b0316635c60da1b6040518163ffffffff1660e01b8152600401602060405180830381865afa158015610156573d5f803e3d5ffd5b505050506040513d601f19601f8201168201806040525081019061017a9190610487565b60405180602001604052805f815250610228565b7f00000000000000000000000000000000000000000000000000000000000000006001600160a01b03166354fd4d506040518163ffffffff1660e01b8152600401606060405180830381865afa1580156101ea573d5f803e3d5ffd5b505050506040513d601f19601f8201168201806040525081019061020e91906104ad565b6002556001555f55565b6100d4610223610286565b6102bd565b610231826102db565b6040516001600160a01b038316907fbc7cd75a20ee27fd9adebab32041f755214dbc6bffa90cc0225b39da2e5c2d3b905f90a280511561027a57610275828261036e565b505050565b6102826103e0565b5050565b5f6102b87f360894a13ba1a3210667c828492db98dca3e2076cc3735a920a3ca505d382bbc546001600160a01b031690565b905090565b365f80375f80365f845af43d5f803e8080156102d7573d5ff35b3d5ffd5b806001600160a01b03163b5f0361031557604051634c9c8ce360e01b81526001600160a01b03821660048201526024015b60405180910390fd5b7f360894a13ba1a3210667c828492db98dca3e2076cc3735a920a3ca505d382bbc80547fffffffffffffffffffffffff0000000000000000000000000000000000000000166001600160a01b0392909216919091179055565b60605f80846001600160a01b03168460405161038a91906104d8565b5f60405180830381855af49150503d805f81146103c2576040519150601f19603f3d011682016040523d82523d5f602084013e6103c7565b606091505b50915091506103d78583836103ff565b95945050505050565b34156100d45760405163b398979f60e01b815260040160405180910390fd5b6060826104145761040f8261045e565b610457565b815115801561042b57506001600160a01b0384163b155b1561045457604051639996b31560e01b81526001600160a01b038516600482015260240161030c565b50805b9392505050565b80511561046e5780518082602001fd5b604051630a12f52160e11b815260040160405180910390fd5b5f60208284031215610497575f80fd5b81516001600160a01b0381168114610457575f80fd5b5f805f606084860312156104bf575f80fd5b8351925060208401519150604084015190509250925092565b5f82515f5b818110156104f757602081860181015185830152016104dd565b505f92019182525091905056fea26469706673582212209de15cb0ac7d62d0d049579c5d49d23e1f7db26cca33c5695188457f54bbd0d764736f6c63430008170033b53127684a568b3173ae13b9f8a6016e243e63b6e8ee1178d6a717850b5d610360a060405234801561000f575f80fd5b5060405161031a38038061031a83398101604081905261002e9161006b565b6001600160a01b03811660808190526040517f1cf3b03a6cf19fa2baba4df148e9dcabedea7f8a5c07840e207e5c089be95d3e905f90a250610098565b5f6020828403121561007b575f80fd5b81516001600160a01b0381168114610091575f80fd5b9392505050565b6080516102646100b65f395f81816082015261011b01526102645ff3fe608060405260043610610021575f3560e01c806354fd4d501461003857610030565b366100305761002e61006b565b005b61002e61006b565b348015610043575f80fd5b5061004c61007d565b6040805193845260208401929092529082015260600160405180910390f35b61007b610076610118565b6101ab565b565b5f805f7f000000000000000000000000000000000000000000000000000000000000000073ffffffffffffffffffffffffffffffffffffffff166354fd4d506040518163ffffffff1660e01b8152600401606060405180830381865afa1580156100e9573d5f803e3d5ffd5b505050506040513d601f19601f8201168201806040525081019061010d91906101c9565b925092509250909192565b5f7f000000000000000000000000000000000000000000000000000000000000000073ffffffffffffffffffffffffffffffffffffffff16635c60da1b6040518163ffffffff1660e01b8152600401602060405180830381865afa158015610182573d5f803e3d5ffd5b505050506040513d601f19601f820116820180604052508101906101a691906101f4565b905090565b365f80375f80365f845af43d5f803e8080156101c5573d5ff35b3d5ffd5b5f805f606084860312156101db575f80fd5b8351925060208401519150604084015190509250925092565b5f60208284031215610204575f80fd5b815173ffffffffffffffffffffffffffffffffffffffff81168114610227575f80fd5b939250505056fea2646970667358221220eac2400d676a912716e4ac8679db56a279e6402cbe67ee4c4539a7bd116814c964736f6c63430008170033a26469706673582212206f87a72b0fdf28ee8326de43e9e6517c504a55a893a7767735efcd25130aec2964736f6c63430008170033",
    "linkReferences": {}
  },
  "methodIdentifiers": {
    "acceptOwnership()": "79ba5097",
    "beacon()": "59659e90",
    "createOrchestrator((bool,address),((uint256,uint256,uint256,string,string),bytes),((uint256,uint256,uint256,string,string),bytes),((uint256,uint256,uint256,string,string),bytes),((uint256,uint256,uint256,string,string),bytes)[])": "ff267699",
    "deployExternalContract(bytes,bytes[])": "de4b1b68",
    "getOrchestratorByID(uint256)": "3ea9d107",
    "getOrchestratorIDCounter()": "b8ddae21",
    "init(address,address,address)": "184b9559",
    "isTrustedForwarder(address)": "572b6c05",
    "moduleFactory()": "8991255b",
    "owner()": "8da5cb5b",
    "pendingOwner()": "e30c3978",
    "renounceOwnership()": "715018a6",
    "supportsInterface(bytes4)": "01ffc9a7",
    "transferOwnership(address)": "f2fde38b",
    "trustedForwarder()": "7da0a877"
  },
  "id": 103
}