{
  "abi": [
    {
      "type": "constructor",
      "inputs": [
        {
          "name": "_orchestratorFactory",
          "type": "address",
          "internalType": "address"
        },
        {
          "name": "_trustedForwarder",
          "type": "address",
          "internalType": "address"
        }
      ],
      "stateMutability": "nonpayable"
    },
    {
      "type": "function",
      "name": "addFunding",
      "inputs": [
        {
          "name": "actor",
          "type": "address",
          "internalType": "address"
        },
        {
          "name": "token",
          "type": "address",
          "internalType": "address"
        },
        {
          "name": "amount",
          "type": "uint256",
          "internalType": "uint256"
        }
      ],
      "outputs": [],
      "stateMutability": "nonpayable"
    },
    {
      "type": "function",
      "name": "createPIMWorkflow",
      "inputs": [
        {
          "name": "workflowConfig",
          "type": "tuple",
          "internalType": "struct IOrchestratorFactory_v1.WorkflowConfig",
          "components": [
            {
              "name": "independentUpdates",
              "type": "bool",
              "internalType": "bool"
            },
            {
              "name": "independentUpdateAdmin",
              "type": "address",
              "internalType": "address"
            }
          ]
        },
        {
          "name": "fundingManagerConfig",
          "type": "tuple",
          "internalType": "struct IOrchestratorFactory_v1.ModuleConfig",
          "components": [
            {
              "name": "metadata",
              "type": "tuple",
              "internalType": "struct IModule_v1.Metadata",
              "components": [
                {
                  "name": "majorVersion",
                  "type": "uint256",
                  "internalType": "uint256"
                },
                {
                  "name": "minorVersion",
                  "type": "uint256",
                  "internalType": "uint256"
                },
                {
                  "name": "patchVersion",
                  "type": "uint256",
                  "internalType": "uint256"
                },
                {
                  "name": "url",
                  "type": "string",
                  "internalType": "string"
                },
                {
                  "name": "title",
                  "type": "string",
                  "internalType": "string"
                }
              ]
            },
            {
              "name": "configData",
              "type": "bytes",
              "internalType": "bytes"
            }
          ]
        },
        {
          "name": "authorizerConfig",
          "type": "tuple",
          "internalType": "struct IOrchestratorFactory_v1.ModuleConfig",
          "components": [
            {
              "name": "metadata",
              "type": "tuple",
              "internalType": "struct IModule_v1.Metadata",
              "components": [
                {
                  "name": "majorVersion",
                  "type": "uint256",
                  "internalType": "uint256"
                },
                {
                  "name": "minorVersion",
                  "type": "uint256",
                  "internalType": "uint256"
                },
                {
                  "name": "patchVersion",
                  "type": "uint256",
                  "internalType": "uint256"
                },
                {
                  "name": "url",
                  "type": "string",
                  "internalType": "string"
                },
                {
                  "name": "title",
                  "type": "string",
                  "internalType": "string"
                }
              ]
            },
            {
              "name": "configData",
              "type": "bytes",
              "internalType": "bytes"
            }
          ]
        },
        {
          "name": "paymentProcessorConfig",
          "type": "tuple",
          "internalType": "struct IOrchestratorFactory_v1.ModuleConfig",
          "components": [
            {
              "name": "metadata",
              "type": "tuple",
              "internalType": "struct IModule_v1.Metadata",
              "components": [
                {
                  "name": "majorVersion",
                  "type": "uint256",
                  "internalType": "uint256"
                },
                {
                  "name": "minorVersion",
                  "type": "uint256",
                  "internalType": "uint256"
                },
                {
                  "name": "patchVersion",
                  "type": "uint256",
                  "internalType": "uint256"
                },
                {
                  "name": "url",
                  "type": "string",
                  "internalType": "string"
                },
                {
                  "name": "title",
                  "type": "string",
                  "internalType": "string"
                }
              ]
            },
            {
              "name": "configData",
              "type": "bytes",
              "internalType": "bytes"
            }
          ]
        },
        {
          "name": "moduleConfigs",
          "type": "tuple[]",
          "internalType": "struct IOrchestratorFactory_v1.ModuleConfig[]",
          "components": [
            {
              "name": "metadata",
              "type": "tuple",
              "internalType": "struct IModule_v1.Metadata",
              "components": [
                {
                  "name": "majorVersion",
                  "type": "uint256",
                  "internalType": "uint256"
                },
                {
                  "name": "minorVersion",
                  "type": "uint256",
                  "internalType": "uint256"
                },
                {
                  "name": "patchVersion",
                  "type": "uint256",
                  "internalType": "uint256"
                },
                {
                  "name": "url",
                  "type": "string",
                  "internalType": "string"
                },
                {
                  "name": "title",
                  "type": "string",
                  "internalType": "string"
                }
              ]
            },
            {
              "name": "configData",
              "type": "bytes",
              "internalType": "bytes"
            }
          ]
        },
        {
          "name": "issuanceTokenParams",
          "type": "tuple",
          "internalType": "struct IBondingCurveBase_v1.IssuanceToken",
          "components": [
            {
              "name": "name",
              "type": "string",
              "internalType": "string"
            },
            {
              "name": "symbol",
              "type": "string",
              "internalType": "string"
            },
            {
              "name": "decimals",
              "type": "uint8",
              "internalType": "uint8"
            },
            {
              "name": "maxSupply",
              "type": "uint256",
              "internalType": "uint256"
            }
          ]
        },
        {
          "name": "beneficiary",
          "type": "address",
          "internalType": "address"
        }
      ],
      "outputs": [
        {
          "name": "",
          "type": "address",
          "internalType": "contract IOrchestrator_v1"
        }
      ],
      "stateMutability": "nonpayable"
    },
    {
      "type": "function",
      "name": "fundings",
      "inputs": [
        {
          "name": "sponsor",
          "type": "address",
          "internalType": "address"
        },
        {
          "name": "actor",
          "type": "address",
          "internalType": "address"
        },
        {
          "name": "token",
          "type": "address",
          "internalType": "address"
        }
      ],
      "outputs": [
        {
          "name": "amount",
          "type": "uint256",
          "internalType": "uint256"
        }
      ],
      "stateMutability": "view"
    },
    {
      "type": "function",
      "name": "isTrustedForwarder",
      "inputs": [
        {
          "name": "forwarder",
          "type": "address",
          "internalType": "address"
        }
      ],
      "outputs": [
        {
          "name": "",
          "type": "bool",
          "internalType": "bool"
        }
      ],
      "stateMutability": "view"
    },
    {
      "type": "function",
      "name": "orchestratorFactory",
      "inputs": [],
      "outputs": [
        {
          "name": "",
          "type": "address",
          "internalType": "address"
        }
      ],
      "stateMutability": "view"
    },
    {
      "type": "function",
      "name": "trustedForwarder",
      "inputs": [],
      "outputs": [
        {
          "name": "",
          "type": "address",
          "internalType": "address"
        }
      ],
      "stateMutability": "view"
    },
    {
      "type": "function",
      "name": "withdrawFunding",
      "inputs": [
        {
          "name": "actor",
          "type": "address",
          "internalType": "address"
        },
        {
          "name": "token",
          "type": "address",
          "internalType": "address"
        },
        {
          "name": "amount",
          "type": "uint256",
          "internalType": "uint256"
        }
      ],
      "outputs": [],
      "stateMutability": "nonpayable"
    },
    {
      "type": "event",
      "name": "FundingAdded",
      "inputs": [
        {
          "name": "sponsor",
          "type": "address",
          "indexed": true,
          "internalType": "address"
        },
        {
          "name": "actor",
          "type": "address",
          "indexed": true,
          "internalType": "address"
        },
        {
          "name": "token",
          "type": "address",
          "indexed": true,
          "internalType": "address"
        },
        {
          "name": "amount",
          "type": "uint256",
          "indexed": false,
          "internalType": "uint256"
        }
      ],
      "anonymous": false
    },
    {
      "type": "event",
      "name": "FundingRemoved",
      "inputs": [
        {
          "name": "sponsor",
          "type": "address",
          "indexed": true,
          "internalType": "address"
        },
        {
          "name": "actor",
          "type": "address",
          "indexed": true,
          "internalType": "address"
        },
        {
          "name": "token",
          "type": "address",
          "indexed": true,
          "internalType": "address"
        },
        {
          "name": "amount",
          "type": "uint256",
          "indexed": false,
          "internalType": "uint256"
        }
      ],
      "anonymous": false
    },
    {
      "type": "event",
      "name": "PIMWorkflowCreated",
      "inputs": [
        {
          "name": "orchestrator",
          "type": "address",
          "indexed": true,
          "internalType": "address"
        },
        {
          "name": "issuanceToken",
          "type": "address",
          "indexed": true,
          "internalType": "address"
        },
        {
          "name": "beneficiary",
          "type": "address",
          "indexed": true,
          "internalType": "address"
        }
      ],
      "anonymous": false
    },
    {
      "type": "error",
      "name": "AddressEmptyCode",
      "inputs": [
        {
          "name": "target",
          "type": "address",
          "internalType": "address"
        }
      ]
    },
    {
      "type": "error",
      "name": "AddressInsufficientBalance",
      "inputs": [
        {
          "name": "account",
          "type": "address",
          "internalType": "address"
        }
      ]
    },
    {
      "type": "error",
      "name": "FailedInnerCall",
      "inputs": []
    },
    {
      "type": "error",
      "name": "InsufficientFunding",
      "inputs": [
        {
          "name": "availableFunding",
          "type": "uint256",
          "internalType": "uint256"
        }
      ]
    },
    {
      "type": "error",
      "name": "SafeERC20FailedOperation",
      "inputs": [
        {
          "name": "token",
          "type": "address",
          "internalType": "address"
        }
      ]
    }
  ],
  "bytecode": {
    "object": "0x60a06040523480156200001157600080fd5b50604051620033d1380380620033d183398101604081905262000034916200007d565b6001600160a01b03908116608052600080546001600160a01b03191692909116919091179055620000b5565b80516001600160a01b03811681146200007857600080fd5b919050565b600080604083850312156200009157600080fd5b6200009c8362000060565b9150620000ac6020840162000060565b90509250929050565b6080516132f2620000df600039600081816101170152818161015a015261047001526132f26000f3fe60806040523480156200001157600080fd5b5060043610620000875760003560e01c806341038ca0116200006257806341038ca014620000ed578063572b6c0514620001045780637da0a8771462000158578063faaeebc7146200017f57600080fd5b80631fe9a09d146200008c5780632f36a25d14620000a55780633d4d9a5e14620000d6575b600080fd5b620000a36200009d366004620011ad565b620001c2565b005b600054620000b9906001600160a01b031681565b6040516001600160a01b0390911681526020015b60405180910390f35b620000a3620000e7366004620011ad565b62000313565b620000b9620000fe366004620015d7565b620003f4565b6200014762000115366004620016e0565b7f00000000000000000000000000000000000000000000000000000000000000006001600160a01b0390811691161490565b6040519015158152602001620000cd565b7f0000000000000000000000000000000000000000000000000000000000000000620000b9565b620001b36200019036600462001700565b600160209081526000938452604080852082529284528284209052825290205481565b604051908152602001620000cd565b600060016000620001d262000469565b6001600160a01b0390811682526020808301939093526040918201600090812088831682528452828120918716815292529020549050808211156200023257604051638269426160e01b8152600481018290526024015b60405180910390fd5b81600160006200024162000469565b6001600160a01b039081168252602080830193909352604091820160009081208983168252845282812091881681529252812080549091906200028690849062001768565b90915550620002ac90506200029a62000469565b6001600160a01b0385169084620004e6565b826001600160a01b0316846001600160a01b0316620002ca62000469565b6001600160a01b03167f1fba18e00691c2cfe2cd987b719268e3160da91ce4500204262fdc4f5e49d1a0856040516200030591815260200190565b60405180910390a450505050565b80600160006200032262000469565b6001600160a01b03908116825260208083019390935260409182016000908120888316825284528281209187168152925281208054909190620003679084906200177e565b909155506200038e90506200037b62000469565b6001600160a01b03841690308462000561565b816001600160a01b0316836001600160a01b0316620003ac62000469565b6001600160a01b03167fa27c3943d61d02dc697bf62b56bda25ed88376a96fc8bf4ab9b5c2411b4e0fc584604051620003e791815260200190565b60405180910390a4505050565b6000806000620004098a8a8a8a8a8a620005a2565b915091506200041a82828662000901565b602082015182516040516001600160a01b038088169381169216907f109e680e5525a688fcbb20189978e087df93150adc050b1592517f7ca215d30a90600090a4505198975050505050505050565b60003660147f00000000000000000000000000000000000000000000000000000000000000006001600160a01b031633148015620004a75750808210155b15620004de57600036620004bc838562001768565b620004c992829062001794565b620004d491620017c0565b60601c9250505090565b339250505090565b6040516001600160a01b038381166024830152604482018390526200055c91859182169063a9059cbb906064015b604051602081830303815290604052915060e01b6020820180517bffffffffffffffffffffffffffffffffffffffffffffffffffffffff838183161783525050505062000b0a565b505050565b6040516001600160a01b0384811660248301528381166044830152606482018390526200059c9186918216906323b872dd9060840162000514565b50505050565b6040805160608101825260008082526020820181905291810191909152604080516080810182526000808252602082018190529181018290526060810191909152602080870151805160009262000600918301810190830162001803565b60408051306020820152919350019050604051602081830303815290604052876020018190525060008460000151856020015186604001518760600151306040516200064c9062001169565b6200065c95949392919062001877565b604051809103906000f08015801562000679573d6000803e3d6000fd5b509050600081306040516200068e9062001177565b6001600160a01b03928316815291166020820152604001604051809103906000f080158015620006c2573d6000803e3d6000fd5b5060405163cf456ae760e01b81526001600160a01b038083166004830152600160248301529192509083169063cf456ae790604401600060405180830381600087803b1580156200071257600080fd5b505af115801562000727573d6000803e3d6000fd5b505050506200079460405180610120016040528060006001600160a01b03168152602001600063ffffffff168152602001600063ffffffff168152602001600081526020016000815260200160001515815260200160001515815260200160008152602001600081525090565b6020808c01518051600092620007b19183018101908301620018ec565b6040519195509350620007cf925085915084908490602001620019d2565b6040516020818303038152906040528c6020018190525060008060009054906101000a90046001600160a01b03166001600160a01b031663ff2676998f8f8f8f8f6040518663ffffffff1660e01b81526004016200083295949392919062001b05565b6020604051808303816000875af115801562000852573d6000803e3d6000fd5b505050506040513d601f19601f8201168201806040525081019062000878919062001803565b90506040518060600160405280826001600160a01b03168152602001866001600160a01b03168152602001856001600160a01b03168152506040518060800160405280846001600160a01b0316815260200185610100015181526020018560e001518152602001886001600160a01b031681525097509750505050505050965096945050505050565b600083600001516001600160a01b03166304baed9e6040518163ffffffff1660e01b8152600401602060405180830381865afa15801562000946573d6000803e3d6000fd5b505050506040513d601f19601f820116820180604052508101906200096c919062001803565b604080860151905163cf456ae760e01b81526001600160a01b0380841660048301526001602483015292935091169063cf456ae790604401600060405180830381600087803b158015620009bf57600080fd5b505af1158015620009d4573d6000803e3d6000fd5b50505050620009fd81846000015186602001518660200151876040015188606001518862000b74565b6000816001600160a01b0316637feb48a16040518163ffffffff1660e01b8152600401602060405180830381865afa15801562000a3e573d6000803e3d6000fd5b505050506040513d601f19601f8201168201806040525081019062000a64919062001bc7565b604051636c67e80760e01b8152600481018290526001600160a01b03858116602483015291925090831690636c67e80790604401600060405180830381600087803b15801562000ab357600080fd5b505af115801562000ac8573d6000803e3d6000fd5b5050505062000adb856020015162000c97565b62000aef8560000151856060015162000d09565b62000b038560400151856060015162000f6f565b5050505050565b600062000b216001600160a01b038416836200101b565b9050805160001415801562000b4957508080602001905181019062000b47919062001be1565b155b156200055c57604051635274afe760e01b81526001600160a01b038416600482015260240162000229565b6001600160a01b03808316600090815260016020908152604080832085851684528252808320938a16835292905220548481101562000bca57604051638269426160e01b81526004810182905260240162000229565b6001600160a01b03808416600090815260016020908152604080832086851684528252808320938b168352929052908120805487929062000c0d90849062001768565b9091555062000c2990506001600160a01b0388168987620004e6565b6040516340c10f1960e01b81526001600160a01b038381166004830152602482018690528716906340c10f1990604401600060405180830381600087803b15801562000c7457600080fd5b505af115801562000c89573d6000803e3d6000fd5b505050505050505050505050565b60405163cf456ae760e01b8152306004820152600060248201526001600160a01b0382169063cf456ae790604401600060405180830381600087803b15801562000ce057600080fd5b505af115801562000cf5573d6000803e3d6000fd5b5050505062000d0681600062000f6f565b50565b6000826001600160a01b031663d09edf316040518163ffffffff1660e01b8152600401602060405180830381865afa15801562000d4a573d6000803e3d6000fd5b505050506040513d601f19601f8201168201806040525081019062000d70919062001803565b6001600160a01b031663b3ecf2366040518163ffffffff1660e01b8152600401602060405180830381865afa15801562000dae573d6000803e3d6000fd5b505050506040513d601f19601f8201168201806040525081019062000dd4919062001bc7565b9050826001600160a01b031663d09edf316040518163ffffffff1660e01b8152600401602060405180830381865afa15801562000e15573d6000803e3d6000fd5b505050506040513d601f19601f8201168201806040525081019062000e3b919062001803565b604051632f2ff15d60e01b8152600481018390526001600160a01b0384811660248301529190911690632f2ff15d90604401600060405180830381600087803b15801562000e8857600080fd5b505af115801562000e9d573d6000803e3d6000fd5b50505050826001600160a01b031663d09edf316040518163ffffffff1660e01b8152600401602060405180830381865afa15801562000ee0573d6000803e3d6000fd5b505050506040513d601f19601f8201168201806040525081019062000f06919062001803565b60405163d547741f60e01b8152600481018390523060248201526001600160a01b03919091169063d547741f90604401600060405180830381600087803b15801562000f5157600080fd5b505af115801562000f66573d6000803e3d6000fd5b50505050505050565b6001600160a01b03811662000fd757816001600160a01b031663715018a66040518163ffffffff1660e01b8152600401600060405180830381600087803b15801562000fba57600080fd5b505af115801562000fcf573d6000803e3d6000fd5b505050505050565b60405163f2fde38b60e01b81526001600160a01b03828116600483015283169063f2fde38b90602401600060405180830381600087803b15801562000fba57600080fd5b60606200102b8383600062001034565b90505b92915050565b6060814710156200105b5760405163cd78605960e01b815230600482015260240162000229565b600080856001600160a01b0316848660405162001079919062001c01565b60006040518083038185875af1925050503d8060008114620010b8576040519150601f19603f3d011682016040523d82523d6000602084013e620010bd565b606091505b5091509150620010cf868383620010db565b925050505b9392505050565b606082620010f457620010ee826200113f565b620010d4565b81511580156200110c57506001600160a01b0384163b155b156200113757604051639996b31560e01b81526001600160a01b038516600482015260240162000229565b5080620010d4565b805115620011505780518082602001fd5b604051630a12f52160e11b815260040160405180910390fd5b610ffd8062001c2083390190565b6106a08062002c1d83390190565b6001600160a01b038116811462000d0657600080fd5b8035620011a88162001185565b919050565b600080600060608486031215620011c357600080fd5b8335620011d08162001185565b92506020840135620011e28162001185565b929592945050506040919091013590565b634e487b7160e01b600052604160045260246000fd5b6040805190810167ffffffffffffffff811182821017156200122f576200122f620011f3565b60405290565b60405160a0810167ffffffffffffffff811182821017156200122f576200122f620011f3565b604051610120810167ffffffffffffffff811182821017156200122f576200122f620011f3565b604051601f8201601f1916810167ffffffffffffffff81118282101715620012ae57620012ae620011f3565b604052919050565b801515811462000d0657600080fd5b600060408284031215620012d857600080fd5b620012e262001209565b90508135620012f181620012b6565b81526020820135620013038162001185565b602082015292915050565b600082601f8301126200132057600080fd5b813567ffffffffffffffff8111156200133d576200133d620011f3565b62001352601f8201601f191660200162001282565b8181528460208386010111156200136857600080fd5b816020850160208301376000918101602001919091529392505050565b6000604082840312156200139857600080fd5b620013a262001209565b9050813567ffffffffffffffff80821115620013bd57600080fd5b9083019060a08286031215620013d257600080fd5b620013dc62001235565b8235815260208301356020820152604083013560408201526060830135828111156200140757600080fd5b62001415878286016200130e565b6060830152506080830135828111156200142e57600080fd5b6200143c878286016200130e565b608083015250835260208401359150808211156200145957600080fd5b5062001468848285016200130e565b60208301525092915050565b600082601f8301126200148657600080fd5b8135602067ffffffffffffffff80831115620014a657620014a6620011f3565b8260051b620014b783820162001282565b9384528581018301938381019088861115620014d257600080fd5b84880192505b858310156200151357823584811115620014f25760008081fd5b620015028a87838c010162001385565b8352509184019190840190620014d8565b98975050505050505050565b6000608082840312156200153257600080fd5b6040516080810167ffffffffffffffff8282108183111715620015595762001559620011f3565b8160405282935084359150808211156200157257600080fd5b62001580868387016200130e565b835260208501359150808211156200159757600080fd5b50620015a6858286016200130e565b602083015250604083013560ff81168114620015c157600080fd5b6040820152606092830135920191909152919050565b6000806000806000806000610100888a031215620015f457600080fd5b620016008989620012c5565b9650604088013567ffffffffffffffff808211156200161e57600080fd5b6200162c8b838c0162001385565b975060608a01359150808211156200164357600080fd5b620016518b838c0162001385565b965060808a01359150808211156200166857600080fd5b620016768b838c0162001385565b955060a08a01359150808211156200168d57600080fd5b6200169b8b838c0162001474565b945060c08a0135915080821115620016b257600080fd5b50620016c18a828b016200151f565b925050620016d260e089016200119b565b905092959891949750929550565b600060208284031215620016f357600080fd5b8135620010d48162001185565b6000806000606084860312156200171657600080fd5b8335620017238162001185565b92506020840135620017358162001185565b91506040840135620017478162001185565b809150509250925092565b634e487b7160e01b600052601160045260246000fd5b818103818111156200102e576200102e62001752565b808201808211156200102e576200102e62001752565b60008085851115620017a557600080fd5b83861115620017b357600080fd5b5050820193919092039150565b6bffffffffffffffffffffffff198135818116916014851015620017ee5780818660140360031b1b83161692505b505092915050565b8051620011a88162001185565b6000602082840312156200181657600080fd5b8151620010d48162001185565b60005b838110156200184057818101518382015260200162001826565b50506000910152565b600081518084526200186381602086016020860162001823565b601f01601f19169290920160200192915050565b60a0815260006200188c60a083018862001849565b8281036020840152620018a0818862001849565b60ff969096166040840152505060608101929092526001600160a01b031660809091015292915050565b805163ffffffff81168114620011a857600080fd5b8051620011a881620012b6565b60008060008385036101608112156200190457600080fd5b8451620019118162001185565b9350610120601f1982018113156200192857600080fd5b620019326200125b565b91506200194260208701620017f6565b82526200195260408701620018ca565b60208301526200196560608701620018ca565b60408301526080860151606083015260a086015160808301526200198c60c08701620018df565b60a08301526200199f60e08701620018df565b60c08301526101008681015160e084015290860151908201529150620019c96101408501620017f6565b90509250925092565b6000610160820190506001600160a01b0380861683528085511660208401525063ffffffff6020850151166040830152604084015162001a1a606084018263ffffffff169052565b5060608401516080830152608084015160a083015260a084015162001a4360c084018215159052565b5060c084015180151560e08401525060e0840151610100838101919091528401516101208301526001600160a01b038316610140830152949350505050565b6000815160408452805160408501526020810151606085015260408101516080850152606081015160a08086015262001abf60e086018262001849565b905060808201519150603f198582030160c086015262001ae0818362001849565b9150506020830151848203602086015262001afc828262001849565b95945050505050565b855115158152600060206001600160a01b0381890151168184015260c0604084015262001b3660c084018862001a82565b838103606085015262001b4a818862001a82565b9050838103608085015262001b60818762001a82565b905083810360a08501528085518083528383019150838160051b84010184880160005b8381101562001bb557601f1986840301855262001ba283835162001a82565b9487019492509086019060010162001b83565b50909c9b505050505050505050505050565b60006020828403121562001bda57600080fd5b5051919050565b60006020828403121562001bf457600080fd5b8151620010d481620012b6565b6000825162001c1581846020870162001823565b919091019291505056fe60c06040523480156200001157600080fd5b5060405162000ffd38038062000ffd833981016040819052620000349162000254565b80828686600362000046838262000395565b50600462000055828262000395565b50505080600003620000825760405163392e1e2760e01b8152600060048201526024015b60405180910390fd5b6080526001600160a01b038116620000b157604051631e4fbdf760e01b81526000600482015260240162000079565b620000bc81620000db565b50620000ca8160016200012d565b505060ff1660a05250620004619050565b600580546001600160a01b038381166001600160a01b0319831681179093556040519116919082907f8be0079c531659141344cd1fd0a4f28419497f9722a3daafe3b4186f6b6457e090600090a35050565b6001600160a01b038216600081815260066020908152604091829020805460ff191685151590811790915591519182527f583b0aa0e528532caf4b907c11d7a8158a122fe2a6fb80cd9b09776ebea8d92d910160405180910390a25050565b634e487b7160e01b600052604160045260246000fd5b600082601f830112620001b457600080fd5b81516001600160401b0380821115620001d157620001d16200018c565b604051601f8301601f19908116603f01168101908282118183101715620001fc57620001fc6200018c565b81604052838152602092508660208588010111156200021a57600080fd5b600091505b838210156200023e57858201830151818301840152908201906200021f565b6000602085830101528094505050505092915050565b600080600080600060a086880312156200026d57600080fd5b85516001600160401b03808211156200028557600080fd5b6200029389838a01620001a2565b96506020880151915080821115620002aa57600080fd5b50620002b988828901620001a2565b945050604086015160ff81168114620002d157600080fd5b6060870151608088015191945092506001600160a01b0381168114620002f657600080fd5b809150509295509295909350565b600181811c908216806200031957607f821691505b6020821081036200033a57634e487b7160e01b600052602260045260246000fd5b50919050565b601f82111562000390576000816000526020600020601f850160051c810160208610156200036b5750805b601f850160051c820191505b818110156200038c5782815560010162000377565b5050505b505050565b81516001600160401b03811115620003b157620003b16200018c565b620003c981620003c2845462000304565b8462000340565b602080601f831160018114620004015760008415620003e85750858301515b600019600386901b1c1916600185901b1785556200038c565b600085815260208120601f198616915b82811015620004325788860151825594840194600190910190840162000411565b5085821015620004515787850151600019600388901b60f8161c191681555b5050505050600190811b01905550565b60805160a051610b6f6200048e600039600061018d0152600081816101b901526108000152610b6f6000f3fe608060405234801561001057600080fd5b506004361061011b5760003560e01c806370a08231116100b25780639dc29fac11610081578063cf456ae711610066578063cf456ae71461028f578063dd62ed3e146102a2578063f2fde38b146102db57600080fd5b80639dc29fac14610269578063a9059cbb1461027c57600080fd5b806370a0823114610215578063715018a61461023e5780638da5cb5b1461024657806395d89b411461026157600080fd5b8063313ce567116100ee578063313ce56714610186578063355274ea146101b757806340c10f19146101dd578063423afa66146101f257600080fd5b806306fdde0314610120578063095ea7b31461013e57806318160ddd1461016157806323b872dd14610173575b600080fd5b6101286102ee565b604051610135919061097c565b60405180910390f35b61015161014c3660046109e7565b610380565b6040519015158152602001610135565b6002545b604051908152602001610135565b610151610181366004610a11565b61039a565b60405160ff7f0000000000000000000000000000000000000000000000000000000000000000168152602001610135565b7f0000000000000000000000000000000000000000000000000000000000000000610165565b6101f06101eb3660046109e7565b6103be565b005b610151610200366004610a4d565b60066020526000908152604090205460ff1681565b610165610223366004610a4d565b6001600160a01b031660009081526020819052604090205490565b6101f06103fc565b6005546040516001600160a01b039091168152602001610135565b610128610410565b6101f06102773660046109e7565b61041f565b61015161028a3660046109e7565b610459565b6101f061029d366004610a6f565b610467565b6101656102b0366004610aab565b6001600160a01b03918216600090815260016020908152604080832093909416825291909152205490565b6101f06102e9366004610a4d565b610479565b6060600380546102fd90610ade565b80601f016020809104026020016040519081016040528092919081815260200182805461032990610ade565b80156103765780601f1061034b57610100808354040283529160200191610376565b820191906000526020600020905b81548152906001019060200180831161035957829003601f168201915b5050505050905090565b60003361038e8185856104bc565b60019150505b92915050565b6000336103a88582856104ce565b6103b385858561054c565b506001949350505050565b3360009081526006602052604090205460ff166103ee57604051634199e25360e11b815260040160405180910390fd5b6103f882826105ab565b5050565b6104046105e1565b61040e600061060e565b565b6060600480546102fd90610ade565b3360009081526006602052604090205460ff1661044f57604051634199e25360e11b815260040160405180910390fd5b6103f88282610678565b60003361038e81858561054c565b61046f6105e1565b6103f882826106ae565b6104816105e1565b6001600160a01b0381166104b057604051631e4fbdf760e01b8152600060048201526024015b60405180910390fd5b6104b98161060e565b50565b6104c9838383600161070d565b505050565b6001600160a01b038381166000908152600160209081526040808320938616835292905220546000198114610546578181101561053757604051637dc7a0d960e11b81526001600160a01b038416600482015260248101829052604481018390526064016104a7565b6105468484848403600061070d565b50505050565b6001600160a01b03831661057657604051634b637e8f60e11b8152600060048201526024016104a7565b6001600160a01b0382166105a05760405163ec442f0560e01b8152600060048201526024016104a7565b6104c98383836107e2565b6001600160a01b0382166105d55760405163ec442f0560e01b8152600060048201526024016104a7565b6103f8600083836107e2565b6005546001600160a01b0316331461040e5760405163118cdaa760e01b81523360048201526024016104a7565b600580546001600160a01b038381167fffffffffffffffffffffffff0000000000000000000000000000000000000000831681179093556040519116919082907f8be0079c531659141344cd1fd0a4f28419497f9722a3daafe3b4186f6b6457e090600090a35050565b6001600160a01b0382166106a257604051634b637e8f60e11b8152600060048201526024016104a7565b6103f8826000836107e2565b6001600160a01b038216600081815260066020908152604091829020805460ff191685151590811790915591519182527f583b0aa0e528532caf4b907c11d7a8158a122fe2a6fb80cd9b09776ebea8d92d910160405180910390a25050565b6001600160a01b0384166107375760405163e602df0560e01b8152600060048201526024016104a7565b6001600160a01b03831661076157604051634a1406b160e11b8152600060048201526024016104a7565b6001600160a01b038085166000908152600160209081526040808320938716835292905220829055801561054657826001600160a01b0316846001600160a01b03167f8c5be1e5ebec7d5bd14f71427d1e84f3dd0314c0f7b2291e5b200ac8c7c3b925846040516107d491815260200190565b60405180910390a350505050565b6107ed838383610852565b6001600160a01b0383166104c9576002547f0000000000000000000000000000000000000000000000000000000000000000908181111561084b5760405163279e7e1560e21b815260048101829052602481018390526044016104a7565b5050505050565b6001600160a01b03831661087d5780600260008282546108729190610b18565b909155506108ef9050565b6001600160a01b038316600090815260208190526040902054818110156108d05760405163391434e360e21b81526001600160a01b038516600482015260248101829052604481018390526064016104a7565b6001600160a01b03841660009081526020819052604090209082900390555b6001600160a01b03821661090b5760028054829003905561092a565b6001600160a01b03821660009081526020819052604090208054820190555b816001600160a01b0316836001600160a01b03167fddf252ad1be2c89b69c2b068fc378daa952ba7f163c4a11628f55a4df523b3ef8360405161096f91815260200190565b60405180910390a3505050565b60006020808352835180602085015260005b818110156109aa5785810183015185820160400152820161098e565b506000604082860101526040601f19601f8301168501019250505092915050565b80356001600160a01b03811681146109e257600080fd5b919050565b600080604083850312156109fa57600080fd5b610a03836109cb565b946020939093013593505050565b600080600060608486031215610a2657600080fd5b610a2f846109cb565b9250610a3d602085016109cb565b9150604084013590509250925092565b600060208284031215610a5f57600080fd5b610a68826109cb565b9392505050565b60008060408385031215610a8257600080fd5b610a8b836109cb565b915060208301358015158114610aa057600080fd5b809150509250929050565b60008060408385031215610abe57600080fd5b610ac7836109cb565b9150610ad5602084016109cb565b90509250929050565b600181811c90821680610af257607f821691505b602082108103610b1257634e487b7160e01b600052602260045260246000fd5b50919050565b8082018082111561039457634e487b7160e01b600052601160045260246000fdfea26469706673582212200d68669bd9d7a7cf36532e94088db26b3e972e6649ce1d5bd2b0e1bd50d1234764736f6c63430008170033608060405234801561001057600080fd5b506040516106a03803806106a083398101604081905261002f916100f6565b806001600160a01b03811661005e57604051631e4fbdf760e01b81526000600482015260240160405180910390fd5b6100678161008e565b5050600180546001600160a01b0319166001600160a01b0392909216919091179055610130565b600080546001600160a01b038381166001600160a01b0319831681178455604051919092169283917f8be0079c531659141344cd1fd0a4f28419497f9722a3daafe3b4186f6b6457e09190a35050565b6001600160a01b03811681146100f357600080fd5b50565b6000806040838503121561010957600080fd5b8251610114816100de565b6020840151909250610125816100de565b809150509250929050565b6105618061013f6000396000f3fe608060405234801561001057600080fd5b50600436106100a35760003560e01c8063715018a6116100765780639dc29fac1161005b5780639dc29fac14610153578063cf456ae714610166578063f2fde38b1461017957600080fd5b8063715018a61461013a5780638da5cb5b1461014257600080fd5b806326a5e394146100a8578063313ce567146100d857806340c10f19146100f2578063423afa6614610107575b600080fd5b6001546100bb906001600160a01b031681565b6040516001600160a01b0390911681526020015b60405180910390f35b6100e061018c565b60405160ff90911681526020016100cf565b610105610100366004610480565b6101ff565b005b61012a6101153660046104aa565b60026020526000908152604090205460ff1681565b60405190151581526020016100cf565b61010561029a565b6000546001600160a01b03166100bb565b610105610161366004610480565b6102ae565b6101056101743660046104cc565b610317565b6101056101873660046104aa565b61032d565b6001546040805163313ce56760e01b815290516000926001600160a01b03169163313ce5679160048083019260209291908290030181865afa1580156101d6573d6000803e3d6000fd5b505050506040513d601f19601f820116820180604052508101906101fa9190610508565b905090565b3360009081526002602052604090205460ff1661022f57604051634199e25360e11b815260040160405180910390fd5b6001546040516340c10f1960e01b81526001600160a01b03848116600483015260248201849052909116906340c10f19906044015b600060405180830381600087803b15801561027e57600080fd5b505af1158015610292573d6000803e3d6000fd5b505050505050565b6102a2610370565b6102ac600061039d565b565b3360009081526002602052604090205460ff166102de57604051634199e25360e11b815260040160405180910390fd5b600154604051632770a7eb60e21b81526001600160a01b0384811660048301526024820184905290911690639dc29fac90604401610264565b61031f610370565b6103298282610405565b5050565b610335610370565b6001600160a01b03811661036457604051631e4fbdf760e01b8152600060048201526024015b60405180910390fd5b61036d8161039d565b50565b6000546001600160a01b031633146102ac5760405163118cdaa760e01b815233600482015260240161035b565b600080546001600160a01b038381167fffffffffffffffffffffffff0000000000000000000000000000000000000000831681178455604051919092169283917f8be0079c531659141344cd1fd0a4f28419497f9722a3daafe3b4186f6b6457e09190a35050565b6001600160a01b038216600081815260026020908152604091829020805460ff191685151590811790915591519182527f583b0aa0e528532caf4b907c11d7a8158a122fe2a6fb80cd9b09776ebea8d92d910160405180910390a25050565b80356001600160a01b038116811461047b57600080fd5b919050565b6000806040838503121561049357600080fd5b61049c83610464565b946020939093013593505050565b6000602082840312156104bc57600080fd5b6104c582610464565b9392505050565b600080604083850312156104df57600080fd5b6104e883610464565b9150602083013580151581146104fd57600080fd5b809150509250929050565b60006020828403121561051a57600080fd5b815160ff811681146104c557600080fdfea2646970667358221220d3856bad2ace3f35455516ff9d91e14e117a6a814099f76059139478bed23dfe64736f6c63430008170033a2646970667358221220280d2adb8fcff64d8f8bb4088ed776c3d7b6ff504f501342e41876186d06241764736f6c63430008170033",
    "linkReferences": {}
  },
  "methodIdentifiers": {
    "addFunding(address,address,uint256)": "3d4d9a5e",
    "createPIMWorkflow((bool,address),((uint256,uint256,uint256,string,string),bytes),((uint256,uint256,uint256,string,string),bytes),((uint256,uint256,uint256,string,string),bytes),((uint256,uint256,uint256,string,string),bytes)[],(string,string,uint8,uint256),address)": "41038ca0",
    "fundings(address,address,address)": "faaeebc7",
    "isTrustedForwarder(address)": "572b6c05",
    "orchestratorFactory()": "2f36a25d",
    "trustedForwarder()": "7da0a877",
    "withdrawFunding(address,address,uint256)": "1fe9a09d"
  },
  "id": 100
}