{
  "abi": [
    {
      "type": "constructor",
      "inputs": [
        {
          "name": "_orchestratorFactory",
          "type": "address",
          "internalType": "address"
        },
        {
          "name": "_trustedForwarder",
          "type": "address",
          "internalType": "address"
        }
      ],
      "stateMutability": "nonpayable"
    },
    {
      "type": "function",
      "name": "addFunding",
      "inputs": [
        {
          "name": "actor",
          "type": "address",
          "internalType": "address"
        },
        {
          "name": "token",
          "type": "address",
          "internalType": "address"
        },
        {
          "name": "amount",
          "type": "uint256",
          "internalType": "uint256"
        }
      ],
      "outputs": [],
      "stateMutability": "nonpayable"
    },
    {
      "type": "function",
      "name": "createPIMWorkflow",
      "inputs": [
        {
          "name": "workflowConfig",
          "type": "tuple",
          "internalType": "struct IOrchestratorFactory_v1.WorkflowConfig",
          "components": [
            {
              "name": "independentUpdates",
              "type": "bool",
              "internalType": "bool"
            },
            {
              "name": "independentUpdateAdmin",
              "type": "address",
              "internalType": "address"
            }
          ]
        },
        {
          "name": "fundingManagerConfig",
          "type": "tuple",
          "internalType": "struct IOrchestratorFactory_v1.ModuleConfig",
          "components": [
            {
              "name": "metadata",
              "type": "tuple",
              "internalType": "struct IModule_v1.Metadata",
              "components": [
                {
                  "name": "majorVersion",
                  "type": "uint256",
                  "internalType": "uint256"
                },
                {
                  "name": "minorVersion",
                  "type": "uint256",
                  "internalType": "uint256"
                },
                {
                  "name": "patchVersion",
                  "type": "uint256",
                  "internalType": "uint256"
                },
                {
                  "name": "url",
                  "type": "string",
                  "internalType": "string"
                },
                {
                  "name": "title",
                  "type": "string",
                  "internalType": "string"
                }
              ]
            },
            {
              "name": "configData",
              "type": "bytes",
              "internalType": "bytes"
            }
          ]
        },
        {
          "name": "authorizerConfig",
          "type": "tuple",
          "internalType": "struct IOrchestratorFactory_v1.ModuleConfig",
          "components": [
            {
              "name": "metadata",
              "type": "tuple",
              "internalType": "struct IModule_v1.Metadata",
              "components": [
                {
                  "name": "majorVersion",
                  "type": "uint256",
                  "internalType": "uint256"
                },
                {
                  "name": "minorVersion",
                  "type": "uint256",
                  "internalType": "uint256"
                },
                {
                  "name": "patchVersion",
                  "type": "uint256",
                  "internalType": "uint256"
                },
                {
                  "name": "url",
                  "type": "string",
                  "internalType": "string"
                },
                {
                  "name": "title",
                  "type": "string",
                  "internalType": "string"
                }
              ]
            },
            {
              "name": "configData",
              "type": "bytes",
              "internalType": "bytes"
            }
          ]
        },
        {
          "name": "paymentProcessorConfig",
          "type": "tuple",
          "internalType": "struct IOrchestratorFactory_v1.ModuleConfig",
          "components": [
            {
              "name": "metadata",
              "type": "tuple",
              "internalType": "struct IModule_v1.Metadata",
              "components": [
                {
                  "name": "majorVersion",
                  "type": "uint256",
                  "internalType": "uint256"
                },
                {
                  "name": "minorVersion",
                  "type": "uint256",
                  "internalType": "uint256"
                },
                {
                  "name": "patchVersion",
                  "type": "uint256",
                  "internalType": "uint256"
                },
                {
                  "name": "url",
                  "type": "string",
                  "internalType": "string"
                },
                {
                  "name": "title",
                  "type": "string",
                  "internalType": "string"
                }
              ]
            },
            {
              "name": "configData",
              "type": "bytes",
              "internalType": "bytes"
            }
          ]
        },
        {
          "name": "moduleConfigs",
          "type": "tuple[]",
          "internalType": "struct IOrchestratorFactory_v1.ModuleConfig[]",
          "components": [
            {
              "name": "metadata",
              "type": "tuple",
              "internalType": "struct IModule_v1.Metadata",
              "components": [
                {
                  "name": "majorVersion",
                  "type": "uint256",
                  "internalType": "uint256"
                },
                {
                  "name": "minorVersion",
                  "type": "uint256",
                  "internalType": "uint256"
                },
                {
                  "name": "patchVersion",
                  "type": "uint256",
                  "internalType": "uint256"
                },
                {
                  "name": "url",
                  "type": "string",
                  "internalType": "string"
                },
                {
                  "name": "title",
                  "type": "string",
                  "internalType": "string"
                }
              ]
            },
            {
              "name": "configData",
              "type": "bytes",
              "internalType": "bytes"
            }
          ]
        },
        {
          "name": "issuanceTokenParams",
          "type": "tuple",
          "internalType": "struct IBondingCurveBase_v1.IssuanceToken",
          "components": [
            {
              "name": "name",
              "type": "string",
              "internalType": "string"
            },
            {
              "name": "symbol",
              "type": "string",
              "internalType": "string"
            },
            {
              "name": "decimals",
              "type": "uint8",
              "internalType": "uint8"
            },
            {
              "name": "maxSupply",
              "type": "uint256",
              "internalType": "uint256"
            }
          ]
        }
      ],
      "outputs": [
        {
          "name": "orchestrator",
          "type": "address",
          "internalType": "contract IOrchestrator_v1"
        }
      ],
      "stateMutability": "nonpayable"
    },
    {
      "type": "function",
      "name": "fundings",
      "inputs": [
        {
          "name": "sponsor",
          "type": "address",
          "internalType": "address"
        },
        {
          "name": "actor",
          "type": "address",
          "internalType": "address"
        },
        {
          "name": "token",
          "type": "address",
          "internalType": "address"
        }
      ],
      "outputs": [
        {
          "name": "amount",
          "type": "uint256",
          "internalType": "uint256"
        }
      ],
      "stateMutability": "view"
    },
    {
      "type": "function",
      "name": "isTrustedForwarder",
      "inputs": [
        {
          "name": "forwarder",
          "type": "address",
          "internalType": "address"
        }
      ],
      "outputs": [
        {
          "name": "",
          "type": "bool",
          "internalType": "bool"
        }
      ],
      "stateMutability": "view"
    },
    {
      "type": "function",
      "name": "orchestratorFactory",
      "inputs": [],
      "outputs": [
        {
          "name": "",
          "type": "address",
          "internalType": "address"
        }
      ],
      "stateMutability": "view"
    },
    {
      "type": "function",
      "name": "trustedForwarder",
      "inputs": [],
      "outputs": [
        {
          "name": "",
          "type": "address",
          "internalType": "address"
        }
      ],
      "stateMutability": "view"
    },
    {
      "type": "function",
      "name": "withdrawFunding",
      "inputs": [
        {
          "name": "actor",
          "type": "address",
          "internalType": "address"
        },
        {
          "name": "token",
          "type": "address",
          "internalType": "address"
        },
        {
          "name": "amount",
          "type": "uint256",
          "internalType": "uint256"
        }
      ],
      "outputs": [],
      "stateMutability": "nonpayable"
    },
    {
      "type": "event",
      "name": "FundingAdded",
      "inputs": [
        {
          "name": "sponsor",
          "type": "address",
          "indexed": true,
          "internalType": "address"
        },
        {
          "name": "actor",
          "type": "address",
          "indexed": true,
          "internalType": "address"
        },
        {
          "name": "token",
          "type": "address",
          "indexed": true,
          "internalType": "address"
        },
        {
          "name": "amount",
          "type": "uint256",
          "indexed": false,
          "internalType": "uint256"
        }
      ],
      "anonymous": false
    },
    {
      "type": "event",
      "name": "FundingRemoved",
      "inputs": [
        {
          "name": "sponsor",
          "type": "address",
          "indexed": true,
          "internalType": "address"
        },
        {
          "name": "actor",
          "type": "address",
          "indexed": true,
          "internalType": "address"
        },
        {
          "name": "token",
          "type": "address",
          "indexed": true,
          "internalType": "address"
        },
        {
          "name": "amount",
          "type": "uint256",
          "indexed": false,
          "internalType": "uint256"
        }
      ],
      "anonymous": false
    },
    {
      "type": "event",
      "name": "PIMWorkflowCreated",
      "inputs": [
        {
          "name": "orchestrator",
          "type": "address",
          "indexed": true,
          "internalType": "address"
        },
        {
          "name": "issuanceToken",
          "type": "address",
          "indexed": true,
          "internalType": "address"
        },
        {
          "name": "deployer",
          "type": "address",
          "indexed": true,
          "internalType": "address"
        }
      ],
      "anonymous": false
    },
    {
      "type": "error",
      "name": "AddressEmptyCode",
      "inputs": [
        {
          "name": "target",
          "type": "address",
          "internalType": "address"
        }
      ]
    },
    {
      "type": "error",
      "name": "AddressInsufficientBalance",
      "inputs": [
        {
          "name": "account",
          "type": "address",
          "internalType": "address"
        }
      ]
    },
    {
      "type": "error",
      "name": "FailedInnerCall",
      "inputs": []
    },
    {
      "type": "error",
      "name": "InsufficientFunding",
      "inputs": [
        {
          "name": "availableFunding",
          "type": "uint256",
          "internalType": "uint256"
        }
      ]
    },
    {
      "type": "error",
      "name": "SafeERC20FailedOperation",
      "inputs": [
        {
          "name": "token",
          "type": "address",
          "internalType": "address"
        }
      ]
    }
  ],
  "bytecode": {
    "object": "0x60a060405234801561001057600080fd5b5060405161243c38038061243c83398101604081905261002f91610076565b6001600160a01b03908116608052600080546001600160a01b031916929091169190911790556100a9565b80516001600160a01b038116811461007157600080fd5b919050565b6000806040838503121561008957600080fd5b6100928361005a565b91506100a06020840161005a565b90509250929050565b6080516123796100c3600039600060f501526123796000f3fe60806040523480156200001157600080fd5b5060043610620000525760003560e01c80632f36a25d1462000057578063572b6c0514620000835780637da0a87714620000ab578063efa60a0414620000b5575b600080fd5b6000546200006b906001600160a01b031681565b6040516200007a9190620009c1565b60405180910390f35b6200009a62000094366004620009ee565b620000cc565b60405190151581526020016200007a565b6200006b620000f3565b6200006b620000c636600462000df1565b62000117565b6000620000d8620000f3565b6001600160a01b0316826001600160a01b0316149050919050565b7f000000000000000000000000000000000000000000000000000000000000000090565b6000808260000151836020015184604001518560600151306040516200013d90620009b3565b6200014d95949392919062000f2c565b604051809103906000f0801580156200016a573d6000803e3d6000fd5b5090506000866020015190506000818060200190518101906200018e919062000f91565b6040519091503090620001a6908290602001620009c1565b604051602081830303815290604052925082896020018190525060008a60200151905060008082806020019051810190620001e2919062000fd3565b9250925050868282604051602001620001fe93929190620010b9565b6040516020818303038152906040529250828d6020018190525060008054906101000a90046001600160a01b03166001600160a01b031663ff2676998f8f8f8f8f6040518663ffffffff1660e01b815260040162000261959493929190620011eb565b6020604051808303816000875af115801562000281573d6000803e3d6000fd5b505050506040513d601f19601f82011682018060405250810190620002a7919062000f91565b97506000886001600160a01b03166304baed9e6040518163ffffffff1660e01b8152600401602060405180830381865afa158015620002ea573d6000803e3d6000fd5b505050506040513d601f19601f8201168201806040525081019062000310919062000f91565b60405163cf456ae760e01b81529091506001600160a01b0389169063cf456ae79062000344908490600190600401620012ac565b600060405180830381600087803b1580156200035f57600080fd5b505af115801562000374573d6000803e3d6000fd5b505050506200039181838a8661010001518760e001518b62000542565b6000816001600160a01b0316637feb48a16040518163ffffffff1660e01b8152600401602060405180830381865afa158015620003d2573d6000803e3d6000fd5b505050506040513d601f19601f82011682018060405250810190620003f89190620012c7565b604051636c67e80760e01b81529091506001600160a01b03831690636c67e807906200042b9084908b90600401620012e1565b600060405180830381600087803b1580156200044657600080fd5b505af11580156200045b573d6000803e3d6000fd5b505060405163cf456ae760e01b81526001600160a01b038c16925063cf456ae7915062000490903090600090600401620012ac565b600060405180830381600087803b158015620004ab57600080fd5b505af1158015620004c0573d6000803e3d6000fd5b50505050620004d0898862000644565b620004dc8a88620006f5565b620004e662000957565b6001600160a01b0316896001600160a01b03168b6001600160a01b03167f109e680e5525a688fcbb20189978e087df93150adc050b1592517f7ca215d30a60405160405180910390a45050505050505050509695505050505050565b846001600160a01b03166323b872dd6200055b62000957565b6040516001600160e01b031960e084901b1681526001600160a01b0391821660048201529089166024820152604481018690526064016020604051808303816000875af1158015620005b1573d6000803e3d6000fd5b505050506040513d601f19601f82011682018060405250810190620005d79190620012f8565b506040516340c10f1960e01b81526001600160a01b038281166004830152602482018490528516906340c10f1990604401600060405180830381600087803b1580156200062357600080fd5b505af115801562000638573d6000803e3d6000fd5b50505050505050505050565b6001600160a01b038116620006ac57816001600160a01b031663715018a66040518163ffffffff1660e01b8152600401600060405180830381600087803b1580156200068f57600080fd5b505af1158015620006a4573d6000803e3d6000fd5b505050505050565b60405163f2fde38b60e01b81526001600160a01b0383169063f2fde38b90620006da908490600401620009c1565b600060405180830381600087803b1580156200068f57600080fd5b6000826001600160a01b031663d09edf316040518163ffffffff1660e01b8152600401602060405180830381865afa15801562000736573d6000803e3d6000fd5b505050506040513d601f19601f820116820180604052508101906200075c919062000f91565b6001600160a01b031663b3ecf2366040518163ffffffff1660e01b8152600401602060405180830381865afa1580156200079a573d6000803e3d6000fd5b505050506040513d601f19601f82011682018060405250810190620007c09190620012c7565b9050826001600160a01b031663d09edf316040518163ffffffff1660e01b8152600401602060405180830381865afa15801562000801573d6000803e3d6000fd5b505050506040513d601f19601f8201168201806040525081019062000827919062000f91565b6001600160a01b0316632f2ff15d82846040518363ffffffff1660e01b815260040162000856929190620012e1565b600060405180830381600087803b1580156200087157600080fd5b505af115801562000886573d6000803e3d6000fd5b50505050826001600160a01b031663d09edf316040518163ffffffff1660e01b8152600401602060405180830381865afa158015620008c9573d6000803e3d6000fd5b505050506040513d601f19601f82011682018060405250810190620008ef919062000f91565b6001600160a01b031663d547741f82306040518363ffffffff1660e01b81526004016200091e929190620012e1565b600060405180830381600087803b1580156200093957600080fd5b505af11580156200094e573d6000803e3d6000fd5b50505050505050565b60003660146200096733620000cc565b8015620009745750808210155b15620009ab5760003662000989838562001318565b6200099692829062001340565b620009a1916200136c565b60601c9250505090565b339250505090565b610fa6806200139e83390190565b6001600160a01b0391909116815260200190565b6001600160a01b0381168114620009eb57600080fd5b50565b60006020828403121562000a0157600080fd5b813562000a0e81620009d5565b9392505050565b634e487b7160e01b600052604160045260246000fd5b604080519081016001600160401b038111828210171562000a505762000a5062000a15565b60405290565b60405160a081016001600160401b038111828210171562000a505762000a5062000a15565b60405161012081016001600160401b038111828210171562000a505762000a5062000a15565b604051601f8201601f191681016001600160401b038111828210171562000acc5762000acc62000a15565b604052919050565b8015158114620009eb57600080fd5b60006040828403121562000af657600080fd5b62000b0062000a2b565b9050813562000b0f8162000ad4565b8152602082013562000b2181620009d5565b602082015292915050565b600082601f83011262000b3e57600080fd5b81356001600160401b0381111562000b5a5762000b5a62000a15565b62000b6f601f8201601f191660200162000aa1565b81815284602083860101111562000b8557600080fd5b816020850160208301376000918101602001919091529392505050565b60006040828403121562000bb557600080fd5b62000bbf62000a2b565b905081356001600160401b038082111562000bd957600080fd5b9083019060a0828603121562000bee57600080fd5b62000bf862000a56565b82358152602083013560208201526040830135604082015260608301358281111562000c2357600080fd5b62000c318782860162000b2c565b60608301525060808301358281111562000c4a57600080fd5b62000c588782860162000b2c565b6080830152508352602084013591508082111562000c7557600080fd5b5062000c848482850162000b2c565b60208301525092915050565b600082601f83011262000ca257600080fd5b813560206001600160401b038083111562000cc15762000cc162000a15565b8260051b62000cd283820162000aa1565b938452858101830193838101908886111562000ced57600080fd5b84880192505b8583101562000d2e5782358481111562000d0d5760008081fd5b62000d1d8a87838c010162000ba2565b835250918401919084019062000cf3565b98975050505050505050565b60006080828403121562000d4d57600080fd5b604051608081016001600160401b03808211838310171562000d735762000d7362000a15565b81604052829350843591508082111562000d8c57600080fd5b62000d9a8683870162000b2c565b8352602085013591508082111562000db157600080fd5b5062000dc08582860162000b2c565b602083015250604083013560ff8116811462000ddb57600080fd5b6040820152606092830135920191909152919050565b60008060008060008060e0878903121562000e0b57600080fd5b62000e17888862000ae3565b955060408701356001600160401b038082111562000e3457600080fd5b62000e428a838b0162000ba2565b9650606089013591508082111562000e5957600080fd5b62000e678a838b0162000ba2565b9550608089013591508082111562000e7e57600080fd5b62000e8c8a838b0162000ba2565b945060a089013591508082111562000ea357600080fd5b62000eb18a838b0162000c90565b935060c089013591508082111562000ec857600080fd5b5062000ed789828a0162000d3a565b9150509295509295509295565b6000815180845260005b8181101562000f0c5760208185018101518683018201520162000eee565b506000602082860101526020601f19601f83011685010191505092915050565b60a08152600062000f4160a083018862000ee4565b828103602084015262000f55818862000ee4565b60ff969096166040840152505060608101929092526001600160a01b031660809091015292915050565b805162000f8c81620009d5565b919050565b60006020828403121562000fa457600080fd5b815162000a0e81620009d5565b805163ffffffff8116811462000f8c57600080fd5b805162000f8c8162000ad4565b600080600083850361016081121562000feb57600080fd5b845162000ff881620009d5565b9350610120601f1982018113156200100f57600080fd5b6200101962000a7b565b9150620010296020870162000f7f565b8252620010396040870162000fb1565b60208301526200104c6060870162000fb1565b60408301526080860151606083015260a086015160808301526200107360c0870162000fc6565b60a08301526200108660e0870162000fc6565b60c08301526101008681015160e084015290860151908201529150620010b0610140850162000f7f565b90509250925092565b6001600160a01b03848116825283511660208083019190915283015163ffffffff1660408083019190915283015161016082019062001100606084018263ffffffff169052565b5060608401516080830152608084015160a083015260a08401516200112960c084018215159052565b5060c084015180151560e08401525060e0840151610100838101919091528401516101208301526001600160a01b038316610140830152949350505050565b6000815160408452805160408501526020810151606085015260408101516080850152606081015160a080860152620011a560e086018262000ee4565b905060808201519150603f198582030160c0860152620011c6818362000ee4565b91505060208301518482036020860152620011e2828262000ee4565b95945050505050565b8551151581526000602060018060a01b0381890151168184015260c060408401526200121b60c084018862001168565b83810360608501526200122f818862001168565b9050838103608085015262001245818762001168565b905083810360a08501528085518083528383019150838160051b84010184880160005b838110156200129a57601f198684030185526200128783835162001168565b9487019492509086019060010162001268565b50909c9b505050505050505050505050565b6001600160a01b039290921682521515602082015260400190565b600060208284031215620012da57600080fd5b5051919050565b9182526001600160a01b0316602082015260400190565b6000602082840312156200130b57600080fd5b815162000a0e8162000ad4565b818103818111156200133a57634e487b7160e01b600052601160045260246000fd5b92915050565b600080858511156200135157600080fd5b838611156200135f57600080fd5b5050820193919092039150565b6001600160601b03198135818116916014851015620013955780818660140360031b1b83161692505b50509291505056fe60c06040523480156200001157600080fd5b5060405162000fa638038062000fa6833981016040819052620000349162000254565b80828686600362000046838262000395565b50600462000055828262000395565b50505080600003620000825760405163392e1e2760e01b8152600060048201526024015b60405180910390fd5b6080526001600160a01b038116620000b157604051631e4fbdf760e01b81526000600482015260240162000079565b620000bc81620000db565b50620000ca8160016200012d565b505060ff1660a05250620004619050565b600580546001600160a01b038381166001600160a01b0319831681179093556040519116919082907f8be0079c531659141344cd1fd0a4f28419497f9722a3daafe3b4186f6b6457e090600090a35050565b6001600160a01b038216600081815260066020908152604091829020805460ff191685151590811790915591519182527f583b0aa0e528532caf4b907c11d7a8158a122fe2a6fb80cd9b09776ebea8d92d910160405180910390a25050565b634e487b7160e01b600052604160045260246000fd5b600082601f830112620001b457600080fd5b81516001600160401b0380821115620001d157620001d16200018c565b604051601f8301601f19908116603f01168101908282118183101715620001fc57620001fc6200018c565b81604052838152602092508660208588010111156200021a57600080fd5b600091505b838210156200023e57858201830151818301840152908201906200021f565b6000602085830101528094505050505092915050565b600080600080600060a086880312156200026d57600080fd5b85516001600160401b03808211156200028557600080fd5b6200029389838a01620001a2565b96506020880151915080821115620002aa57600080fd5b50620002b988828901620001a2565b945050604086015160ff81168114620002d157600080fd5b6060870151608088015191945092506001600160a01b0381168114620002f657600080fd5b809150509295509295909350565b600181811c908216806200031957607f821691505b6020821081036200033a57634e487b7160e01b600052602260045260246000fd5b50919050565b601f82111562000390576000816000526020600020601f850160051c810160208610156200036b5750805b601f850160051c820191505b818110156200038c5782815560010162000377565b5050505b505050565b81516001600160401b03811115620003b157620003b16200018c565b620003c981620003c2845462000304565b8462000340565b602080601f831160018114620004015760008415620003e85750858301515b600019600386901b1c1916600185901b1785556200038c565b600085815260208120601f198616915b82811015620004325788860151825594840194600190910190840162000411565b5085821015620004515787850151600019600388901b60f8161c191681555b5050505050600190811b01905550565b60805160a051610b1f62000487600039600061014d015260006103360152610b1f6000f3fe608060405234801561001057600080fd5b50600436106100db5760003560e01c806306fdde03146100e0578063095ea7b3146100fe57806318160ddd1461012157806323b872dd14610133578063313ce56714610146578063355274ea1461017757806340c10f191461017f578063423afa661461019457806370a08231146101b7578063715018a6146101e05780638da5cb5b146101e857806395d89b41146101fd5780639dc29fac14610205578063a9059cbb14610218578063cf456ae71461022b578063dd62ed3e1461023e578063f2fde38b14610251575b600080fd5b6100e8610264565b6040516100f591906108f7565b60405180910390f35b61011161010c366004610962565b6102f6565b60405190151581526020016100f5565b6002545b6040519081526020016100f5565b61011161014136600461098c565b610310565b60405160ff7f00000000000000000000000000000000000000000000000000000000000000001681526020016100f5565b610125610334565b61019261018d366004610962565b610358565b005b6101116101a23660046109c8565b60066020526000908152604090205460ff1681565b6101256101c53660046109c8565b6001600160a01b031660009081526020819052604090205490565b610192610396565b6101f06103aa565b6040516100f591906109ea565b6100e86103b9565b610192610213366004610962565b6103c8565b610111610226366004610962565b610402565b6101926102393660046109fe565b610410565b61012561024c366004610a3a565b610422565b61019261025f3660046109c8565b61044d565b60606003805461027390610a6d565b80601f016020809104026020016040519081016040528092919081815260200182805461029f90610a6d565b80156102ec5780601f106102c1576101008083540402835291602001916102ec565b820191906000526020600020905b8154815290600101906020018083116102cf57829003601f168201915b5050505050905090565b600033610304818585610494565b60019150505b92915050565b60003361031e8582856104a6565b6103298585856104f9565b506001949350505050565b7f000000000000000000000000000000000000000000000000000000000000000090565b3360009081526006602052604090205460ff1661038857604051634199e25360e11b815260040160405180910390fd5b6103928282610558565b5050565b61039e61058e565b6103a860006105c0565b565b6005546001600160a01b031690565b60606004805461027390610a6d565b3360009081526006602052604090205460ff166103f857604051634199e25360e11b815260040160405180910390fd5b6103928282610612565b6000336103048185856104f9565b61041861058e565b6103928282610648565b6001600160a01b03918216600090815260016020908152604080832093909416825291909152205490565b61045561058e565b6001600160a01b038116610488576000604051631e4fbdf760e01b815260040161047f91906109ea565b60405180910390fd5b610491816105c0565b50565b6104a183838360016106a7565b505050565b60006104b28484610422565b905060001981146104f357818110156104e457828183604051637dc7a0d960e11b815260040161047f93929190610aa7565b6104f3848484840360006106a7565b50505050565b6001600160a01b038316610523576000604051634b637e8f60e11b815260040161047f91906109ea565b6001600160a01b03821661054d57600060405163ec442f0560e01b815260040161047f91906109ea565b6104a183838361077c565b6001600160a01b03821661058257600060405163ec442f0560e01b815260040161047f91906109ea565b6103926000838361077c565b336105976103aa565b6001600160a01b0316146103a8573360405163118cdaa760e01b815260040161047f91906109ea565b600580546001600160a01b038381166001600160a01b0319831681179093556040519116919082907f8be0079c531659141344cd1fd0a4f28419497f9722a3daafe3b4186f6b6457e090600090a35050565b6001600160a01b03821661063c576000604051634b637e8f60e11b815260040161047f91906109ea565b6103928260008361077c565b6001600160a01b038216600081815260066020908152604091829020805460ff191685151590811790915591519182527f583b0aa0e528532caf4b907c11d7a8158a122fe2a6fb80cd9b09776ebea8d92d910160405180910390a25050565b6001600160a01b0384166106d157600060405163e602df0560e01b815260040161047f91906109ea565b6001600160a01b0383166106fb576000604051634a1406b160e11b815260040161047f91906109ea565b6001600160a01b03808516600090815260016020908152604080832093871683529290522082905580156104f357826001600160a01b0316846001600160a01b03167f8c5be1e5ebec7d5bd14f71427d1e84f3dd0314c0f7b2291e5b200ac8c7c3b9258460405161076e91815260200190565b60405180910390a350505050565b6107878383836107e0565b6001600160a01b0383166104a157600061079f610334565b905060006107ac60025490565b9050818111156107d95760405163279e7e1560e21b8152600481018290526024810183905260440161047f565b5050505050565b6001600160a01b03831661080b5780600260008282546108009190610ac8565b9091555061086a9050565b6001600160a01b0383166000908152602081905260409020548181101561084b5783818360405163391434e360e21b815260040161047f93929190610aa7565b6001600160a01b03841660009081526020819052604090209082900390555b6001600160a01b038216610886576002805482900390556108a5565b6001600160a01b03821660009081526020819052604090208054820190555b816001600160a01b0316836001600160a01b03167fddf252ad1be2c89b69c2b068fc378daa952ba7f163c4a11628f55a4df523b3ef836040516108ea91815260200190565b60405180910390a3505050565b60006020808352835180602085015260005b8181101561092557858101830151858201604001528201610909565b506000604082860101526040601f19601f8301168501019250505092915050565b80356001600160a01b038116811461095d57600080fd5b919050565b6000806040838503121561097557600080fd5b61097e83610946565b946020939093013593505050565b6000806000606084860312156109a157600080fd5b6109aa84610946565b92506109b860208501610946565b9150604084013590509250925092565b6000602082840312156109da57600080fd5b6109e382610946565b9392505050565b6001600160a01b0391909116815260200190565b60008060408385031215610a1157600080fd5b610a1a83610946565b915060208301358015158114610a2f57600080fd5b809150509250929050565b60008060408385031215610a4d57600080fd5b610a5683610946565b9150610a6460208401610946565b90509250929050565b600181811c90821680610a8157607f821691505b602082108103610aa157634e487b7160e01b600052602260045260246000fd5b50919050565b6001600160a01b039390931683526020830191909152604082015260600190565b8082018082111561030a57634e487b7160e01b600052601160045260246000fdfea2646970667358221220a8e1802e8e7e44b1a5d3b00e260cc9a2b25afaee37eb09401df213c25e3fb05464736f6c63430008170033a26469706673582212208bdcf8cda334ce7f04f7063a53c2ad98973c1920dbb1d302fbcb96cec0ed344e64736f6c63430008170033",
    "linkReferences": {}
  },
  "methodIdentifiers": {
    "createPIMWorkflow((bool,address),((uint256,uint256,uint256,string,string),bytes),((uint256,uint256,uint256,string,string),bytes),((uint256,uint256,uint256,string,string),bytes),((uint256,uint256,uint256,string,string),bytes)[],(string,string,uint8,uint256))": "efa60a04",
    "isTrustedForwarder(address)": "572b6c05",
    "orchestratorFactory()": "2f36a25d",
    "trustedForwarder()": "7da0a877"
  },
  "id": 104
}