{
  "abi": [
    {
      "type": "constructor",
      "inputs": [
        {
          "name": "_orchestratorFactory",
          "type": "address",
          "internalType": "address"
        },
        {
          "name": "_trustedForwarder",
          "type": "address",
          "internalType": "address"
        }
      ],
      "stateMutability": "nonpayable"
    },
    {
      "type": "function",
      "name": "addFunding",
      "inputs": [
        {
          "name": "actor",
          "type": "address",
          "internalType": "address"
        },
        {
          "name": "token",
          "type": "address",
          "internalType": "address"
        },
        {
          "name": "amount",
          "type": "uint256",
          "internalType": "uint256"
        }
      ],
      "outputs": [],
      "stateMutability": "nonpayable"
    },
    {
      "type": "function",
      "name": "createPIMWorkflow",
      "inputs": [
        {
          "name": "workflowConfig",
          "type": "tuple",
          "internalType": "struct IOrchestratorFactory_v1.WorkflowConfig",
          "components": [
            {
              "name": "independentUpdates",
              "type": "bool",
              "internalType": "bool"
            },
            {
              "name": "independentUpdateAdmin",
              "type": "address",
              "internalType": "address"
            }
          ]
        },
        {
          "name": "fundingManagerConfig",
          "type": "tuple",
          "internalType": "struct IOrchestratorFactory_v1.ModuleConfig",
          "components": [
            {
              "name": "metadata",
              "type": "tuple",
              "internalType": "struct IModule_v1.Metadata",
              "components": [
                {
                  "name": "majorVersion",
                  "type": "uint256",
                  "internalType": "uint256"
                },
                {
                  "name": "minorVersion",
                  "type": "uint256",
                  "internalType": "uint256"
                },
                {
                  "name": "patchVersion",
                  "type": "uint256",
                  "internalType": "uint256"
                },
                {
                  "name": "url",
                  "type": "string",
                  "internalType": "string"
                },
                {
                  "name": "title",
                  "type": "string",
                  "internalType": "string"
                }
              ]
            },
            {
              "name": "configData",
              "type": "bytes",
              "internalType": "bytes"
            }
          ]
        },
        {
          "name": "authorizerConfig",
          "type": "tuple",
          "internalType": "struct IOrchestratorFactory_v1.ModuleConfig",
          "components": [
            {
              "name": "metadata",
              "type": "tuple",
              "internalType": "struct IModule_v1.Metadata",
              "components": [
                {
                  "name": "majorVersion",
                  "type": "uint256",
                  "internalType": "uint256"
                },
                {
                  "name": "minorVersion",
                  "type": "uint256",
                  "internalType": "uint256"
                },
                {
                  "name": "patchVersion",
                  "type": "uint256",
                  "internalType": "uint256"
                },
                {
                  "name": "url",
                  "type": "string",
                  "internalType": "string"
                },
                {
                  "name": "title",
                  "type": "string",
                  "internalType": "string"
                }
              ]
            },
            {
              "name": "configData",
              "type": "bytes",
              "internalType": "bytes"
            }
          ]
        },
        {
          "name": "paymentProcessorConfig",
          "type": "tuple",
          "internalType": "struct IOrchestratorFactory_v1.ModuleConfig",
          "components": [
            {
              "name": "metadata",
              "type": "tuple",
              "internalType": "struct IModule_v1.Metadata",
              "components": [
                {
                  "name": "majorVersion",
                  "type": "uint256",
                  "internalType": "uint256"
                },
                {
                  "name": "minorVersion",
                  "type": "uint256",
                  "internalType": "uint256"
                },
                {
                  "name": "patchVersion",
                  "type": "uint256",
                  "internalType": "uint256"
                },
                {
                  "name": "url",
                  "type": "string",
                  "internalType": "string"
                },
                {
                  "name": "title",
                  "type": "string",
                  "internalType": "string"
                }
              ]
            },
            {
              "name": "configData",
              "type": "bytes",
              "internalType": "bytes"
            }
          ]
        },
        {
          "name": "moduleConfigs",
          "type": "tuple[]",
          "internalType": "struct IOrchestratorFactory_v1.ModuleConfig[]",
          "components": [
            {
              "name": "metadata",
              "type": "tuple",
              "internalType": "struct IModule_v1.Metadata",
              "components": [
                {
                  "name": "majorVersion",
                  "type": "uint256",
                  "internalType": "uint256"
                },
                {
                  "name": "minorVersion",
                  "type": "uint256",
                  "internalType": "uint256"
                },
                {
                  "name": "patchVersion",
                  "type": "uint256",
                  "internalType": "uint256"
                },
                {
                  "name": "url",
                  "type": "string",
                  "internalType": "string"
                },
                {
                  "name": "title",
                  "type": "string",
                  "internalType": "string"
                }
              ]
            },
            {
              "name": "configData",
              "type": "bytes",
              "internalType": "bytes"
            }
          ]
        },
        {
          "name": "issuanceTokenParams",
          "type": "tuple",
          "internalType": "struct IBondingCurveBase_v1.IssuanceToken",
          "components": [
            {
              "name": "name",
              "type": "string",
              "internalType": "string"
            },
            {
              "name": "symbol",
              "type": "string",
              "internalType": "string"
            },
            {
              "name": "decimals",
              "type": "uint8",
              "internalType": "uint8"
            },
            {
              "name": "maxSupply",
              "type": "uint256",
              "internalType": "uint256"
            }
          ]
        }
      ],
      "outputs": [
        {
          "name": "orchestrator",
          "type": "address",
          "internalType": "contract IOrchestrator_v1"
        }
      ],
      "stateMutability": "nonpayable"
    },
    {
      "type": "function",
      "name": "fundings",
      "inputs": [
        {
          "name": "sponsor",
          "type": "address",
          "internalType": "address"
        },
        {
          "name": "actor",
          "type": "address",
          "internalType": "address"
        },
        {
          "name": "token",
          "type": "address",
          "internalType": "address"
        }
      ],
      "outputs": [
        {
          "name": "amount",
          "type": "uint256",
          "internalType": "uint256"
        }
      ],
      "stateMutability": "view"
    },
    {
      "type": "function",
      "name": "isTrustedForwarder",
      "inputs": [
        {
          "name": "forwarder",
          "type": "address",
          "internalType": "address"
        }
      ],
      "outputs": [
        {
          "name": "",
          "type": "bool",
          "internalType": "bool"
        }
      ],
      "stateMutability": "view"
    },
    {
      "type": "function",
      "name": "orchestratorFactory",
      "inputs": [],
      "outputs": [
        {
          "name": "",
          "type": "address",
          "internalType": "address"
        }
      ],
      "stateMutability": "view"
    },
    {
      "type": "function",
      "name": "trustedForwarder",
      "inputs": [],
      "outputs": [
        {
          "name": "",
          "type": "address",
          "internalType": "address"
        }
      ],
      "stateMutability": "view"
    },
    {
      "type": "function",
      "name": "withdrawFunding",
      "inputs": [
        {
          "name": "actor",
          "type": "address",
          "internalType": "address"
        },
        {
          "name": "token",
          "type": "address",
          "internalType": "address"
        },
        {
          "name": "amount",
          "type": "uint256",
          "internalType": "uint256"
        }
      ],
      "outputs": [],
      "stateMutability": "nonpayable"
    },
    {
      "type": "event",
      "name": "FundingAdded",
      "inputs": [
        {
          "name": "sponsor",
          "type": "address",
          "indexed": true,
          "internalType": "address"
        },
        {
          "name": "actor",
          "type": "address",
          "indexed": true,
          "internalType": "address"
        },
        {
          "name": "token",
          "type": "address",
          "indexed": true,
          "internalType": "address"
        },
        {
          "name": "amount",
          "type": "uint256",
          "indexed": false,
          "internalType": "uint256"
        }
      ],
      "anonymous": false
    },
    {
      "type": "event",
      "name": "FundingRemoved",
      "inputs": [
        {
          "name": "sponsor",
          "type": "address",
          "indexed": true,
          "internalType": "address"
        },
        {
          "name": "actor",
          "type": "address",
          "indexed": true,
          "internalType": "address"
        },
        {
          "name": "token",
          "type": "address",
          "indexed": true,
          "internalType": "address"
        },
        {
          "name": "amount",
          "type": "uint256",
          "indexed": false,
          "internalType": "uint256"
        }
      ],
      "anonymous": false
    },
    {
      "type": "event",
      "name": "PIMWorkflowCreated",
      "inputs": [
        {
          "name": "orchestrator",
          "type": "address",
          "indexed": true,
          "internalType": "address"
        },
        {
          "name": "issuanceToken",
          "type": "address",
          "indexed": true,
          "internalType": "address"
        },
        {
          "name": "deployer",
          "type": "address",
          "indexed": true,
          "internalType": "address"
        }
      ],
      "anonymous": false
    },
    {
      "type": "error",
      "name": "AddressEmptyCode",
      "inputs": [
        {
          "name": "target",
          "type": "address",
          "internalType": "address"
        }
      ]
    },
    {
      "type": "error",
      "name": "AddressInsufficientBalance",
      "inputs": [
        {
          "name": "account",
          "type": "address",
          "internalType": "address"
        }
      ]
    },
    {
      "type": "error",
      "name": "FailedInnerCall",
      "inputs": []
    },
    {
      "type": "error",
      "name": "InsufficientFunding",
      "inputs": [
        {
          "name": "availableFunding",
          "type": "uint256",
          "internalType": "uint256"
        }
      ]
    },
    {
      "type": "error",
      "name": "SafeERC20FailedOperation",
      "inputs": [
        {
          "name": "token",
          "type": "address",
          "internalType": "address"
        }
      ]
    }
  ],
  "bytecode": {
    "object": "0x60a06040523480156200001157600080fd5b5060405162002b0a38038062002b0a83398101604081905262000034916200007d565b6001600160a01b03908116608052600080546001600160a01b03191692909116919091179055620000b5565b80516001600160a01b03811681146200007857600080fd5b919050565b600080604083850312156200009157600080fd5b6200009c8362000060565b9150620000ac6020840162000060565b90509250929050565b608051612a2b620000df600039600081816101000152818161014301526108500152612a2b6000f3fe60806040523480156200001157600080fd5b5060043610620000875760003560e01c8063572b6c051162000062578063572b6c0514620000ed5780637da0a8771462000141578063efa60a041462000168578063faaeebc7146200017f57600080fd5b80631fe9a09d146200008c5780632f36a25d14620000a55780633d4d9a5e14620000d6575b600080fd5b620000a36200009d36600462000f96565b620001c2565b005b600054620000b9906001600160a01b031681565b6040516001600160a01b0390911681526020015b60405180910390f35b620000a3620000e736600462000f96565b62000313565b62000130620000fe36600462000fdc565b7f00000000000000000000000000000000000000000000000000000000000000006001600160a01b0390811691161490565b6040519015158152602001620000cd565b7f0000000000000000000000000000000000000000000000000000000000000000620000b9565b620000b962000179366004620013e0565b620003f4565b620001b362000190366004620014d4565b600160209081526000938452604080852082529284528284209052825290205481565b604051908152602001620000cd565b600060016000620001d262000849565b6001600160a01b0390811682526020808301939093526040918201600090812088831682528452828120918716815292529020549050808211156200023257604051638269426160e01b8152600481018290526024015b60405180910390fd5b81600160006200024162000849565b6001600160a01b03908116825260208083019390935260409182016000908120898316825284528281209188168152925281208054909190620002869084906200153c565b90915550620002ac90506200029a62000849565b6001600160a01b0385169084620008c6565b826001600160a01b0316846001600160a01b0316620002ca62000849565b6001600160a01b03167f1fba18e00691c2cfe2cd987b719268e3160da91ce4500204262fdc4f5e49d1a0856040516200030591815260200190565b60405180910390a450505050565b80600160006200032262000849565b6001600160a01b039081168252602080830193909352604091820160009081208883168252845282812091871681529252812080549091906200036790849062001552565b909155506200038e90506200037b62000849565b6001600160a01b03841690308462000941565b816001600160a01b0316836001600160a01b0316620003ac62000849565b6001600160a01b03167fa27c3943d61d02dc697bf62b56bda25ed88376a96fc8bf4ab9b5c2411b4e0fc584604051620003e791815260200190565b60405180910390a4505050565b6000808260000151836020015184604001518560600151306040516200041a9062000f72565b6200042a959493929190620015bc565b604051809103906000f08015801562000447573d6000803e3d6000fd5b5090506000866020015190506000818060200190518101906200046b919062001621565b6040805130602082015291925001604051602081830303815290604052915081886020018190525060008960200151905060008082806020019051810190620004b5919062001663565b9250925050858282604051602001620004d19392919062001749565b6040516020818303038152906040529250828c6020018190525060008054906101000a90046001600160a01b03166001600160a01b031663ff2676998e8e8e8e8e6040518663ffffffff1660e01b8152600401620005349594939291906200187c565b6020604051808303816000875af115801562000554573d6000803e3d6000fd5b505050506040513d601f19601f820116820180604052508101906200057a919062001621565b96506000876001600160a01b03166304baed9e6040518163ffffffff1660e01b8152600401602060405180830381865afa158015620005bd573d6000803e3d6000fd5b505050506040513d601f19601f82011682018060405250810190620005e3919062001621565b60405163cf456ae760e01b81526001600160a01b038083166004830152600160248301529192509088169063cf456ae790604401600060405180830381600087803b1580156200063257600080fd5b505af115801562000647573d6000803e3d6000fd5b505050506200066e8183898661010001518760e001518a6200066862000849565b62000982565b6000816001600160a01b0316637feb48a16040518163ffffffff1660e01b8152600401602060405180830381865afa158015620006af573d6000803e3d6000fd5b505050506040513d601f19601f82011682018060405250810190620006d591906200193e565b9050816001600160a01b0316636c67e80782620006f162000849565b6040517fffffffff0000000000000000000000000000000000000000000000000000000060e085901b16815260048101929092526001600160a01b03166024820152604401600060405180830381600087803b1580156200075157600080fd5b505af115801562000766573d6000803e3d6000fd5b505060405163cf456ae760e01b8152306004820152600060248201526001600160a01b038b16925063cf456ae79150604401600060405180830381600087803b158015620007b357600080fd5b505af1158015620007c8573d6000803e3d6000fd5b50505050620007d8888762000aa5565b620007e4898762000b51565b620007ee62000849565b6001600160a01b0316886001600160a01b03168a6001600160a01b03167f109e680e5525a688fcbb20189978e087df93150adc050b1592517f7ca215d30a60405160405180910390a450505050505050509695505050505050565b60003660147f00000000000000000000000000000000000000000000000000000000000000006001600160a01b031633148015620008875750808210155b15620008be576000366200089c83856200153c565b620008a992829062001958565b620008b49162001984565b60601c9250505090565b339250505090565b6040516001600160a01b038381166024830152604482018390526200093c91859182169063a9059cbb906064015b604051602081830303815290604052915060e01b6020820180517bffffffffffffffffffffffffffffffffffffffffffffffffffffffff838183161783525050505062000db7565b505050565b6040516001600160a01b0384811660248301528381166044830152606482018390526200097c9186918216906323b872dd90608401620008f4565b50505050565b6001600160a01b03808316600090815260016020908152604080832085851684528252808320938a168352929052205484811015620009d857604051638269426160e01b81526004810182905260240162000229565b6001600160a01b03808416600090815260016020908152604080832086851684528252808320938b168352929052908120805487929062000a1b9084906200153c565b9091555062000a3790506001600160a01b0388168987620008c6565b6040516340c10f1960e01b81526001600160a01b038381166004830152602482018690528716906340c10f1990604401600060405180830381600087803b15801562000a8257600080fd5b505af115801562000a97573d6000803e3d6000fd5b505050505050505050505050565b6001600160a01b03811662000b0d57816001600160a01b031663715018a66040518163ffffffff1660e01b8152600401600060405180830381600087803b15801562000af057600080fd5b505af115801562000b05573d6000803e3d6000fd5b505050505050565b60405163f2fde38b60e01b81526001600160a01b03828116600483015283169063f2fde38b90602401600060405180830381600087803b15801562000af057600080fd5b6000826001600160a01b031663d09edf316040518163ffffffff1660e01b8152600401602060405180830381865afa15801562000b92573d6000803e3d6000fd5b505050506040513d601f19601f8201168201806040525081019062000bb8919062001621565b6001600160a01b031663b3ecf2366040518163ffffffff1660e01b8152600401602060405180830381865afa15801562000bf6573d6000803e3d6000fd5b505050506040513d601f19601f8201168201806040525081019062000c1c91906200193e565b9050826001600160a01b031663d09edf316040518163ffffffff1660e01b8152600401602060405180830381865afa15801562000c5d573d6000803e3d6000fd5b505050506040513d601f19601f8201168201806040525081019062000c83919062001621565b604051632f2ff15d60e01b8152600481018390526001600160a01b0384811660248301529190911690632f2ff15d90604401600060405180830381600087803b15801562000cd057600080fd5b505af115801562000ce5573d6000803e3d6000fd5b50505050826001600160a01b031663d09edf316040518163ffffffff1660e01b8152600401602060405180830381865afa15801562000d28573d6000803e3d6000fd5b505050506040513d601f19601f8201168201806040525081019062000d4e919062001621565b60405163d547741f60e01b8152600481018390523060248201526001600160a01b03919091169063d547741f90604401600060405180830381600087803b15801562000d9957600080fd5b505af115801562000dae573d6000803e3d6000fd5b50505050505050565b600062000dce6001600160a01b0384168362000e21565b9050805160001415801562000df657508080602001905181019062000df49190620019ba565b155b156200093c57604051635274afe760e01b81526001600160a01b038416600482015260240162000229565b606062000e318383600062000e3a565b90505b92915050565b60608147101562000e615760405163cd78605960e01b815230600482015260240162000229565b600080856001600160a01b0316848660405162000e7f9190620019da565b60006040518083038185875af1925050503d806000811462000ebe576040519150601f19603f3d011682016040523d82523d6000602084013e62000ec3565b606091505b509150915062000ed586838362000ee1565b925050505b9392505050565b60608262000efa5762000ef48262000f45565b62000eda565b815115801562000f1257506001600160a01b0384163b155b1562000f3d57604051639996b31560e01b81526001600160a01b038516600482015260240162000229565b508062000eda565b80511562000f565780518082602001fd5b604051630a12f52160e11b815260040160405180910390fd5b50565b610ffd80620019f983390190565b6001600160a01b038116811462000f6f57600080fd5b60008060006060848603121562000fac57600080fd5b833562000fb98162000f80565b9250602084013562000fcb8162000f80565b929592945050506040919091013590565b60006020828403121562000fef57600080fd5b813562000eda8162000f80565b634e487b7160e01b600052604160045260246000fd5b6040805190810167ffffffffffffffff8111828210171562001038576200103862000ffc565b60405290565b60405160a0810167ffffffffffffffff8111828210171562001038576200103862000ffc565b604051610120810167ffffffffffffffff8111828210171562001038576200103862000ffc565b604051601f8201601f1916810167ffffffffffffffff81118282101715620010b757620010b762000ffc565b604052919050565b801515811462000f6f57600080fd5b600060408284031215620010e157600080fd5b620010eb62001012565b90508135620010fa81620010bf565b815260208201356200110c8162000f80565b602082015292915050565b600082601f8301126200112957600080fd5b813567ffffffffffffffff81111562001146576200114662000ffc565b6200115b601f8201601f19166020016200108b565b8181528460208386010111156200117157600080fd5b816020850160208301376000918101602001919091529392505050565b600060408284031215620011a157600080fd5b620011ab62001012565b9050813567ffffffffffffffff80821115620011c657600080fd5b9083019060a08286031215620011db57600080fd5b620011e56200103e565b8235815260208301356020820152604083013560408201526060830135828111156200121057600080fd5b6200121e8782860162001117565b6060830152506080830135828111156200123757600080fd5b620012458782860162001117565b608083015250835260208401359150808211156200126257600080fd5b50620012718482850162001117565b60208301525092915050565b600082601f8301126200128f57600080fd5b8135602067ffffffffffffffff80831115620012af57620012af62000ffc565b8260051b620012c08382016200108b565b9384528581018301938381019088861115620012db57600080fd5b84880192505b858310156200131c57823584811115620012fb5760008081fd5b6200130b8a87838c01016200118e565b8352509184019190840190620012e1565b98975050505050505050565b6000608082840312156200133b57600080fd5b6040516080810167ffffffffffffffff828210818311171562001362576200136262000ffc565b8160405282935084359150808211156200137b57600080fd5b620013898683870162001117565b83526020850135915080821115620013a057600080fd5b50620013af8582860162001117565b602083015250604083013560ff81168114620013ca57600080fd5b6040820152606092830135920191909152919050565b60008060008060008060e08789031215620013fa57600080fd5b620014068888620010ce565b9550604087013567ffffffffffffffff808211156200142457600080fd5b620014328a838b016200118e565b965060608901359150808211156200144957600080fd5b620014578a838b016200118e565b955060808901359150808211156200146e57600080fd5b6200147c8a838b016200118e565b945060a08901359150808211156200149357600080fd5b620014a18a838b016200127d565b935060c0890135915080821115620014b857600080fd5b50620014c789828a0162001328565b9150509295509295509295565b600080600060608486031215620014ea57600080fd5b8335620014f78162000f80565b92506020840135620015098162000f80565b915060408401356200151b8162000f80565b809150509250925092565b634e487b7160e01b600052601160045260246000fd5b8181038181111562000e345762000e3462001526565b8082018082111562000e345762000e3462001526565b60005b83811015620015855781810151838201526020016200156b565b50506000910152565b60008151808452620015a881602086016020860162001568565b601f01601f19169290920160200192915050565b60a081526000620015d160a08301886200158e565b8281036020840152620015e581886200158e565b60ff969096166040840152505060608101929092526001600160a01b031660809091015292915050565b80516200161c8162000f80565b919050565b6000602082840312156200163457600080fd5b815162000eda8162000f80565b805163ffffffff811681146200161c57600080fd5b80516200161c81620010bf565b60008060008385036101608112156200167b57600080fd5b8451620016888162000f80565b9350610120601f1982018113156200169f57600080fd5b620016a962001064565b9150620016b9602087016200160f565b8252620016c96040870162001641565b6020830152620016dc6060870162001641565b60408301526080860151606083015260a086015160808301526200170360c0870162001656565b60a08301526200171660e0870162001656565b60c08301526101008681015160e0840152908601519082015291506200174061014085016200160f565b90509250925092565b6000610160820190506001600160a01b0380861683528085511660208401525063ffffffff6020850151166040830152604084015162001791606084018263ffffffff169052565b5060608401516080830152608084015160a083015260a0840151620017ba60c084018215159052565b5060c084015180151560e08401525060e0840151610100838101919091528401516101208301526001600160a01b038316610140830152949350505050565b6000815160408452805160408501526020810151606085015260408101516080850152606081015160a0808601526200183660e08601826200158e565b905060808201519150603f198582030160c08601526200185781836200158e565b915050602083015184820360208601526200187382826200158e565b95945050505050565b855115158152600060206001600160a01b0381890151168184015260c06040840152620018ad60c0840188620017f9565b8381036060850152620018c18188620017f9565b90508381036080850152620018d78187620017f9565b905083810360a08501528085518083528383019150838160051b84010184880160005b838110156200192c57601f1986840301855262001919838351620017f9565b94870194925090860190600101620018fa565b50909c9b505050505050505050505050565b6000602082840312156200195157600080fd5b5051919050565b600080858511156200196957600080fd5b838611156200197757600080fd5b5050820193919092039150565b6bffffffffffffffffffffffff198135818116916014851015620019b25780818660140360031b1b83161692505b505092915050565b600060208284031215620019cd57600080fd5b815162000eda81620010bf565b60008251620019ee81846020870162001568565b919091019291505056fe60c06040523480156200001157600080fd5b5060405162000ffd38038062000ffd833981016040819052620000349162000254565b80828686600362000046838262000395565b50600462000055828262000395565b50505080600003620000825760405163392e1e2760e01b8152600060048201526024015b60405180910390fd5b6080526001600160a01b038116620000b157604051631e4fbdf760e01b81526000600482015260240162000079565b620000bc81620000db565b50620000ca8160016200012d565b505060ff1660a05250620004619050565b600580546001600160a01b038381166001600160a01b0319831681179093556040519116919082907f8be0079c531659141344cd1fd0a4f28419497f9722a3daafe3b4186f6b6457e090600090a35050565b6001600160a01b038216600081815260066020908152604091829020805460ff191685151590811790915591519182527f583b0aa0e528532caf4b907c11d7a8158a122fe2a6fb80cd9b09776ebea8d92d910160405180910390a25050565b634e487b7160e01b600052604160045260246000fd5b600082601f830112620001b457600080fd5b81516001600160401b0380821115620001d157620001d16200018c565b604051601f8301601f19908116603f01168101908282118183101715620001fc57620001fc6200018c565b81604052838152602092508660208588010111156200021a57600080fd5b600091505b838210156200023e57858201830151818301840152908201906200021f565b6000602085830101528094505050505092915050565b600080600080600060a086880312156200026d57600080fd5b85516001600160401b03808211156200028557600080fd5b6200029389838a01620001a2565b96506020880151915080821115620002aa57600080fd5b50620002b988828901620001a2565b945050604086015160ff81168114620002d157600080fd5b6060870151608088015191945092506001600160a01b0381168114620002f657600080fd5b809150509295509295909350565b600181811c908216806200031957607f821691505b6020821081036200033a57634e487b7160e01b600052602260045260246000fd5b50919050565b601f82111562000390576000816000526020600020601f850160051c810160208610156200036b5750805b601f850160051c820191505b818110156200038c5782815560010162000377565b5050505b505050565b81516001600160401b03811115620003b157620003b16200018c565b620003c981620003c2845462000304565b8462000340565b602080601f831160018114620004015760008415620003e85750858301515b600019600386901b1c1916600185901b1785556200038c565b600085815260208120601f198616915b82811015620004325788860151825594840194600190910190840162000411565b5085821015620004515787850151600019600388901b60f8161c191681555b5050505050600190811b01905550565b60805160a051610b6f6200048e600039600061018d0152600081816101b901526108000152610b6f6000f3fe608060405234801561001057600080fd5b506004361061011b5760003560e01c806370a08231116100b25780639dc29fac11610081578063cf456ae711610066578063cf456ae71461028f578063dd62ed3e146102a2578063f2fde38b146102db57600080fd5b80639dc29fac14610269578063a9059cbb1461027c57600080fd5b806370a0823114610215578063715018a61461023e5780638da5cb5b1461024657806395d89b411461026157600080fd5b8063313ce567116100ee578063313ce56714610186578063355274ea146101b757806340c10f19146101dd578063423afa66146101f257600080fd5b806306fdde0314610120578063095ea7b31461013e57806318160ddd1461016157806323b872dd14610173575b600080fd5b6101286102ee565b604051610135919061097c565b60405180910390f35b61015161014c3660046109e7565b610380565b6040519015158152602001610135565b6002545b604051908152602001610135565b610151610181366004610a11565b61039a565b60405160ff7f0000000000000000000000000000000000000000000000000000000000000000168152602001610135565b7f0000000000000000000000000000000000000000000000000000000000000000610165565b6101f06101eb3660046109e7565b6103be565b005b610151610200366004610a4d565b60066020526000908152604090205460ff1681565b610165610223366004610a4d565b6001600160a01b031660009081526020819052604090205490565b6101f06103fc565b6005546040516001600160a01b039091168152602001610135565b610128610410565b6101f06102773660046109e7565b61041f565b61015161028a3660046109e7565b610459565b6101f061029d366004610a6f565b610467565b6101656102b0366004610aab565b6001600160a01b03918216600090815260016020908152604080832093909416825291909152205490565b6101f06102e9366004610a4d565b610479565b6060600380546102fd90610ade565b80601f016020809104026020016040519081016040528092919081815260200182805461032990610ade565b80156103765780601f1061034b57610100808354040283529160200191610376565b820191906000526020600020905b81548152906001019060200180831161035957829003601f168201915b5050505050905090565b60003361038e8185856104bc565b60019150505b92915050565b6000336103a88582856104ce565b6103b385858561054c565b506001949350505050565b3360009081526006602052604090205460ff166103ee57604051634199e25360e11b815260040160405180910390fd5b6103f882826105ab565b5050565b6104046105e1565b61040e600061060e565b565b6060600480546102fd90610ade565b3360009081526006602052604090205460ff1661044f57604051634199e25360e11b815260040160405180910390fd5b6103f88282610678565b60003361038e81858561054c565b61046f6105e1565b6103f882826106ae565b6104816105e1565b6001600160a01b0381166104b057604051631e4fbdf760e01b8152600060048201526024015b60405180910390fd5b6104b98161060e565b50565b6104c9838383600161070d565b505050565b6001600160a01b038381166000908152600160209081526040808320938616835292905220546000198114610546578181101561053757604051637dc7a0d960e11b81526001600160a01b038416600482015260248101829052604481018390526064016104a7565b6105468484848403600061070d565b50505050565b6001600160a01b03831661057657604051634b637e8f60e11b8152600060048201526024016104a7565b6001600160a01b0382166105a05760405163ec442f0560e01b8152600060048201526024016104a7565b6104c98383836107e2565b6001600160a01b0382166105d55760405163ec442f0560e01b8152600060048201526024016104a7565b6103f8600083836107e2565b6005546001600160a01b0316331461040e5760405163118cdaa760e01b81523360048201526024016104a7565b600580546001600160a01b038381167fffffffffffffffffffffffff0000000000000000000000000000000000000000831681179093556040519116919082907f8be0079c531659141344cd1fd0a4f28419497f9722a3daafe3b4186f6b6457e090600090a35050565b6001600160a01b0382166106a257604051634b637e8f60e11b8152600060048201526024016104a7565b6103f8826000836107e2565b6001600160a01b038216600081815260066020908152604091829020805460ff191685151590811790915591519182527f583b0aa0e528532caf4b907c11d7a8158a122fe2a6fb80cd9b09776ebea8d92d910160405180910390a25050565b6001600160a01b0384166107375760405163e602df0560e01b8152600060048201526024016104a7565b6001600160a01b03831661076157604051634a1406b160e11b8152600060048201526024016104a7565b6001600160a01b038085166000908152600160209081526040808320938716835292905220829055801561054657826001600160a01b0316846001600160a01b03167f8c5be1e5ebec7d5bd14f71427d1e84f3dd0314c0f7b2291e5b200ac8c7c3b925846040516107d491815260200190565b60405180910390a350505050565b6107ed838383610852565b6001600160a01b0383166104c9576002547f0000000000000000000000000000000000000000000000000000000000000000908181111561084b5760405163279e7e1560e21b815260048101829052602481018390526044016104a7565b5050505050565b6001600160a01b03831661087d5780600260008282546108729190610b18565b909155506108ef9050565b6001600160a01b038316600090815260208190526040902054818110156108d05760405163391434e360e21b81526001600160a01b038516600482015260248101829052604481018390526064016104a7565b6001600160a01b03841660009081526020819052604090209082900390555b6001600160a01b03821661090b5760028054829003905561092a565b6001600160a01b03821660009081526020819052604090208054820190555b816001600160a01b0316836001600160a01b03167fddf252ad1be2c89b69c2b068fc378daa952ba7f163c4a11628f55a4df523b3ef8360405161096f91815260200190565b60405180910390a3505050565b60006020808352835180602085015260005b818110156109aa5785810183015185820160400152820161098e565b506000604082860101526040601f19601f8301168501019250505092915050565b80356001600160a01b03811681146109e257600080fd5b919050565b600080604083850312156109fa57600080fd5b610a03836109cb565b946020939093013593505050565b600080600060608486031215610a2657600080fd5b610a2f846109cb565b9250610a3d602085016109cb565b9150604084013590509250925092565b600060208284031215610a5f57600080fd5b610a68826109cb565b9392505050565b60008060408385031215610a8257600080fd5b610a8b836109cb565b915060208301358015158114610aa057600080fd5b809150509250929050565b60008060408385031215610abe57600080fd5b610ac7836109cb565b9150610ad5602084016109cb565b90509250929050565b600181811c90821680610af257607f821691505b602082108103610b1257634e487b7160e01b600052602260045260246000fd5b50919050565b8082018082111561039457634e487b7160e01b600052601160045260246000fdfea26469706673582212200d68669bd9d7a7cf36532e94088db26b3e972e6649ce1d5bd2b0e1bd50d1234764736f6c63430008170033a2646970667358221220be893b00a0a38088436caa362c19892b1cbf16ac20774d626b43a0715b74823c64736f6c63430008170033",
    "linkReferences": {}
  },
  "methodIdentifiers": {
    "addFunding(address,address,uint256)": "3d4d9a5e",
    "createPIMWorkflow((bool,address),((uint256,uint256,uint256,string,string),bytes),((uint256,uint256,uint256,string,string),bytes),((uint256,uint256,uint256,string,string),bytes),((uint256,uint256,uint256,string,string),bytes)[],(string,string,uint8,uint256))": "efa60a04",
    "fundings(address,address,address)": "faaeebc7",
    "isTrustedForwarder(address)": "572b6c05",
    "orchestratorFactory()": "2f36a25d",
    "trustedForwarder()": "7da0a877",
    "withdrawFunding(address,address,uint256)": "1fe9a09d"
  },
  "id": 101
}