{
  "abi": [
    {
      "type": "constructor",
      "inputs": [
        {
          "name": "_trustedForwarder",
          "type": "address",
          "internalType": "address"
        }
      ],
      "stateMutability": "nonpayable"
    },
    {
      "type": "function",
      "name": "MODULE_UPDATE_TIMELOCK",
      "inputs": [],
      "outputs": [
        {
          "name": "",
          "type": "uint256",
          "internalType": "uint256"
        }
      ],
      "stateMutability": "view"
    },
    {
      "type": "function",
      "name": "authorizer",
      "inputs": [],
      "outputs": [
        {
          "name": "",
          "type": "address",
          "internalType": "contract IAuthorizer_v1"
        }
      ],
      "stateMutability": "view"
    },
    {
      "type": "function",
      "name": "cancelAuthorizerUpdate",
      "inputs": [
        {
          "name": "authorizer_",
          "type": "address",
          "internalType": "contract IAuthorizer_v1"
        }
      ],
      "outputs": [],
      "stateMutability": "nonpayable"
    },
    {
      "type": "function",
      "name": "cancelFundingManagerUpdate",
      "inputs": [
        {
          "name": "fundingManager_",
          "type": "address",
          "internalType": "contract IFundingManager_v1"
        }
      ],
      "outputs": [],
      "stateMutability": "nonpayable"
    },
    {
      "type": "function",
      "name": "cancelModuleUpdate",
      "inputs": [
        {
          "name": "module_",
          "type": "address",
          "internalType": "address"
        }
      ],
      "outputs": [],
      "stateMutability": "nonpayable"
    },
    {
      "type": "function",
      "name": "cancelPaymentProcessorUpdate",
      "inputs": [
        {
          "name": "paymentProcessor_",
          "type": "address",
          "internalType": "contract IPaymentProcessor_v1"
        }
      ],
      "outputs": [],
      "stateMutability": "nonpayable"
    },
    {
      "type": "function",
      "name": "executeAddModule",
      "inputs": [
        {
          "name": "module_",
          "type": "address",
          "internalType": "address"
        }
      ],
      "outputs": [],
      "stateMutability": "nonpayable"
    },
    {
      "type": "function",
      "name": "executeRemoveModule",
      "inputs": [
        {
          "name": "module_",
          "type": "address",
          "internalType": "address"
        }
      ],
      "outputs": [],
      "stateMutability": "nonpayable"
    },
    {
      "type": "function",
      "name": "executeSetAuthorizer",
      "inputs": [
        {
          "name": "newAuthorizer",
          "type": "address",
          "internalType": "contract IAuthorizer_v1"
        }
      ],
      "outputs": [],
      "stateMutability": "nonpayable"
    },
    {
      "type": "function",
      "name": "executeSetFundingManager",
      "inputs": [
        {
          "name": "newFundingManager",
          "type": "address",
          "internalType": "contract IFundingManager_v1"
        }
      ],
      "outputs": [],
      "stateMutability": "nonpayable"
    },
    {
      "type": "function",
      "name": "executeSetPaymentProcessor",
      "inputs": [
        {
          "name": "newPaymentProcessor",
          "type": "address",
          "internalType": "contract IPaymentProcessor_v1"
        }
      ],
      "outputs": [],
      "stateMutability": "nonpayable"
    },
    {
      "type": "function",
      "name": "fundingManager",
      "inputs": [],
      "outputs": [
        {
          "name": "",
          "type": "address",
          "internalType": "contract IFundingManager_v1"
        }
      ],
      "stateMutability": "view"
    },
    {
      "type": "function",
      "name": "governor",
      "inputs": [],
      "outputs": [
        {
          "name": "",
          "type": "address",
          "internalType": "contract IGovernor_v1"
        }
      ],
      "stateMutability": "view"
    },
    {
      "type": "function",
      "name": "init",
      "inputs": [
        {
          "name": "orchestratorId_",
          "type": "uint256",
          "internalType": "uint256"
        },
        {
          "name": "moduleFactory_",
          "type": "address",
          "internalType": "address"
        },
        {
          "name": "modules",
          "type": "address[]",
          "internalType": "address[]"
        },
        {
          "name": "fundingManager_",
          "type": "address",
          "internalType": "contract IFundingManager_v1"
        },
        {
          "name": "authorizer_",
          "type": "address",
          "internalType": "contract IAuthorizer_v1"
        },
        {
          "name": "paymentProcessor_",
          "type": "address",
          "internalType": "contract IPaymentProcessor_v1"
        },
        {
          "name": "governor_",
          "type": "address",
          "internalType": "contract IGovernor_v1"
        }
      ],
      "outputs": [],
      "stateMutability": "nonpayable"
    },
    {
      "type": "function",
      "name": "initiateAddModuleWithTimelock",
      "inputs": [
        {
          "name": "module_",
          "type": "address",
          "internalType": "address"
        }
      ],
      "outputs": [],
      "stateMutability": "nonpayable"
    },
    {
      "type": "function",
      "name": "initiateRemoveModuleWithTimelock",
      "inputs": [
        {
          "name": "module_",
          "type": "address",
          "internalType": "address"
        }
      ],
      "outputs": [],
      "stateMutability": "nonpayable"
    },
    {
      "type": "function",
      "name": "initiateSetAuthorizerWithTimelock",
      "inputs": [
        {
          "name": "newAuthorizer",
          "type": "address",
          "internalType": "contract IAuthorizer_v1"
        }
      ],
      "outputs": [],
      "stateMutability": "nonpayable"
    },
    {
      "type": "function",
      "name": "initiateSetFundingManagerWithTimelock",
      "inputs": [
        {
          "name": "newFundingManager",
          "type": "address",
          "internalType": "contract IFundingManager_v1"
        }
      ],
      "outputs": [],
      "stateMutability": "nonpayable"
    },
    {
      "type": "function",
      "name": "initiateSetPaymentProcessorWithTimelock",
      "inputs": [
        {
          "name": "newPaymentProcessor",
          "type": "address",
          "internalType": "contract IPaymentProcessor_v1"
        }
      ],
      "outputs": [],
      "stateMutability": "nonpayable"
    },
    {
      "type": "function",
      "name": "isModule",
      "inputs": [
        {
          "name": "module",
          "type": "address",
          "internalType": "address"
        }
      ],
      "outputs": [
        {
          "name": "",
          "type": "bool",
          "internalType": "bool"
        }
      ],
      "stateMutability": "view"
    },
    {
      "type": "function",
      "name": "isTrustedForwarder",
      "inputs": [
        {
          "name": "forwarder",
          "type": "address",
          "internalType": "address"
        }
      ],
      "outputs": [
        {
          "name": "",
          "type": "bool",
          "internalType": "bool"
        }
      ],
      "stateMutability": "view"
    },
    {
      "type": "function",
      "name": "listModules",
      "inputs": [],
      "outputs": [
        {
          "name": "",
          "type": "address[]",
          "internalType": "address[]"
        }
      ],
      "stateMutability": "view"
    },
    {
      "type": "function",
      "name": "moduleAddressToTimelock",
      "inputs": [
        {
          "name": "module",
          "type": "address",
          "internalType": "address"
        }
      ],
      "outputs": [
        {
          "name": "timelockActive",
          "type": "bool",
          "internalType": "bool"
        },
        {
          "name": "timelockUntil",
          "type": "uint256",
          "internalType": "uint256"
        }
      ],
      "stateMutability": "view"
    },
    {
      "type": "function",
      "name": "moduleFactory",
      "inputs": [],
      "outputs": [
        {
          "name": "",
          "type": "address",
          "internalType": "address"
        }
      ],
      "stateMutability": "view"
    },
    {
      "type": "function",
      "name": "modulesSize",
      "inputs": [],
      "outputs": [
        {
          "name": "",
          "type": "uint8",
          "internalType": "uint8"
        }
      ],
      "stateMutability": "view"
    },
    {
      "type": "function",
      "name": "orchestratorId",
      "inputs": [],
      "outputs": [
        {
          "name": "",
          "type": "uint256",
          "internalType": "uint256"
        }
      ],
      "stateMutability": "view"
    },
    {
      "type": "function",
      "name": "paymentProcessor",
      "inputs": [],
      "outputs": [
        {
          "name": "",
          "type": "address",
          "internalType": "contract IPaymentProcessor_v1"
        }
      ],
      "stateMutability": "view"
    },
    {
      "type": "function",
      "name": "supportsInterface",
      "inputs": [
        {
          "name": "interfaceId",
          "type": "bytes4",
          "internalType": "bytes4"
        }
      ],
      "outputs": [
        {
          "name": "",
          "type": "bool",
          "internalType": "bool"
        }
      ],
      "stateMutability": "view"
    },
    {
      "type": "function",
      "name": "trustedForwarder",
      "inputs": [],
      "outputs": [
        {
          "name": "",
          "type": "address",
          "internalType": "address"
        }
      ],
      "stateMutability": "view"
    },
    {
      "type": "event",
      "name": "AuthorizerUpdated",
      "inputs": [
        {
          "name": "_address",
          "type": "address",
          "indexed": true,
          "internalType": "address"
        }
      ],
      "anonymous": false
    },
    {
      "type": "event",
      "name": "FundingManagerUpdated",
      "inputs": [
        {
          "name": "_address",
          "type": "address",
          "indexed": true,
          "internalType": "address"
        }
      ],
      "anonymous": false
    },
    {
      "type": "event",
      "name": "Initialized",
      "inputs": [
        {
          "name": "version",
          "type": "uint64",
          "indexed": false,
          "internalType": "uint64"
        }
      ],
      "anonymous": false
    },
    {
      "type": "event",
      "name": "ModuleAdded",
      "inputs": [
        {
          "name": "module",
          "type": "address",
          "indexed": true,
          "internalType": "address"
        }
      ],
      "anonymous": false
    },
    {
      "type": "event",
      "name": "ModuleRemoved",
      "inputs": [
        {
          "name": "module",
          "type": "address",
          "indexed": true,
          "internalType": "address"
        }
      ],
      "anonymous": false
    },
    {
      "type": "event",
      "name": "ModuleTimelockStarted",
      "inputs": [
        {
          "name": "module",
          "type": "address",
          "indexed": false,
          "internalType": "address"
        },
        {
          "name": "timelockUntil",
          "type": "uint256",
          "indexed": false,
          "internalType": "uint256"
        }
      ],
      "anonymous": false
    },
    {
      "type": "event",
      "name": "ModuleUpdateCanceled",
      "inputs": [
        {
          "name": "module",
          "type": "address",
          "indexed": false,
          "internalType": "address"
        }
      ],
      "anonymous": false
    },
    {
      "type": "event",
      "name": "OrchestratorInitialized",
      "inputs": [
        {
          "name": "orchestratorId_",
          "type": "uint256",
          "indexed": true,
          "internalType": "uint256"
        },
        {
          "name": "fundingManager",
          "type": "address",
          "indexed": false,
          "internalType": "address"
        },
        {
          "name": "authorizer",
          "type": "address",
          "indexed": false,
          "internalType": "address"
        },
        {
          "name": "paymentProcessor",
          "type": "address",
          "indexed": false,
          "internalType": "address"
        },
        {
          "name": "modules",
          "type": "address[]",
          "indexed": false,
          "internalType": "address[]"
        },
        {
          "name": "governor",
          "type": "address",
          "indexed": false,
          "internalType": "address"
        }
      ],
      "anonymous": false
    },
    {
      "type": "event",
      "name": "PaymentProcessorUpdated",
      "inputs": [
        {
          "name": "_address",
          "type": "address",
          "indexed": true,
          "internalType": "address"
        }
      ],
      "anonymous": false
    },
    {
      "type": "error",
      "name": "InvalidInitialization",
      "inputs": []
    },
    {
      "type": "error",
      "name": "ModuleManagerBase__CallerNotAuthorized",
      "inputs": []
    },
    {
      "type": "error",
      "name": "ModuleManagerBase__InvalidModuleAddress",
      "inputs": []
    },
    {
      "type": "error",
      "name": "ModuleManagerBase__IsModule",
      "inputs": []
    },
    {
      "type": "error",
      "name": "ModuleManagerBase__IsNotModule",
      "inputs": []
    },
    {
      "type": "error",
      "name": "ModuleManagerBase__ModuleAmountOverLimits",
      "inputs": []
    },
    {
      "type": "error",
      "name": "ModuleManagerBase__ModuleFactoryInvalid",
      "inputs": []
    },
    {
      "type": "error",
      "name": "ModuleManagerBase__ModuleNotRegistered",
      "inputs": []
    },
    {
      "type": "error",
      "name": "ModuleManagerBase__ModuleUpdateAlreadyStarted",
      "inputs": []
    },
    {
      "type": "error",
      "name": "ModuleManagerBase__ModuleUpdateTimelockStillActive",
      "inputs": [
        {
          "name": "_module",
          "type": "address",
          "internalType": "address"
        },
        {
          "name": "_timelockUntil",
          "type": "uint256",
          "internalType": "uint256"
        }
      ]
    },
    {
      "type": "error",
      "name": "ModuleManagerBase__OnlyCallableByModule",
      "inputs": []
    },
    {
      "type": "error",
      "name": "NotInitializing",
      "inputs": []
    },
    {
      "type": "error",
      "name": "Orchestrator__CallerNotAuthorized",
      "inputs": [
        {
          "name": "role",
          "type": "bytes32",
          "internalType": "bytes32"
        },
        {
          "name": "caller",
          "type": "address",
          "internalType": "address"
        }
      ]
    },
    {
      "type": "error",
      "name": "Orchestrator__DependencyInjection__ModuleNotUsedInOrchestrator",
      "inputs": []
    },
    {
      "type": "error",
      "name": "Orchestrator__InvalidModuleType",
      "inputs": [
        {
          "name": "module",
          "type": "address",
          "internalType": "address"
        }
      ]
    },
    {
      "type": "error",
      "name": "Orchestrator__InvalidRemovalOfAuthorizer",
      "inputs": []
    },
    {
      "type": "error",
      "name": "Orchestrator__InvalidRemovalOfFundingManager",
      "inputs": []
    },
    {
      "type": "error",
      "name": "Orchestrator__InvalidRemovalOfPaymentProcessor",
      "inputs": []
    },
    {
      "type": "error",
      "name": "Orchestrator__MismatchedTokenForFundingManager",
      "inputs": [
        {
          "name": "currentToken",
          "type": "address",
          "internalType": "address"
        },
        {
          "name": "newToken",
          "type": "address",
          "internalType": "address"
        }
      ]
    }
  ],
  "bytecode": {
    "object": "0x60a06040523480156200001157600080fd5b506040516200282538038062002825833981016040819052620000349162000106565b6001600160a01b0381166080526200004b62000052565b5062000138565b7ff0c57e16840df040f15088dc2f81fe391c3923bec73e23a9662efc9c229c6a00805468010000000000000000900460ff1615620000a35760405163f92ee8a960e01b815260040160405180910390fd5b80546001600160401b0390811614620001035780546001600160401b0319166001600160401b0390811782556040519081527fc7f505b2f371ae2175ee4913f4499e1f2633a7b5936321eed1cdaeb6115181d29060200160405180910390a15b50565b6000602082840312156200011957600080fd5b81516001600160a01b03811681146200013157600080fd5b9392505050565b6080516126ca6200015b600039600081816103b70152611c2001526126ca6000f3fe608060405234801561001057600080fd5b50600436106101cf5760003560e01c8063572b6c0511610104578063b8b03f4c116100a2578063d09edf3111610071578063d09edf311461043a578063d2b1ad061461044d578063e7623d3b14610460578063f1c6bdf81461047357600080fd5b8063b8b03f4c146103ee578063bca5226614610401578063c21094ff14610414578063c3f786fb1461042757600080fd5b8063736963a7116100de578063736963a7146103995780637590a394146103a25780637da0a877146103b55780638991255b146103db57600080fd5b8063572b6c051461032f5780635c4e51f0146103425780636d3043711461038657600080fd5b80632e3a22d3116101715780634cfa64871161014b5780634cfa6487146102dc5780634e395b1c146102f1578063505128bf14610304578063547501a11461031757600080fd5b80632e3a22d3146102885780633cc85f581461029d57806342f6e389146102b057600080fd5b80630c340a24116101ad5780630c340a241461023c5780630e68347a1461024f57806314f460af14610262578063220026fc1461027557600080fd5b806301ffc9a7146101d457806304baed9e146101fc57806309a445cd14610227575b600080fd5b6101e76101e236600461236a565b610486565b60405190151581526020015b60405180910390f35b60375461020f906001600160a01b031681565b6040516001600160a01b0390911681526020016101f3565b61023a6102353660046123a9565b6104b1565b005b603a5461020f906001600160a01b031681565b61023a61025d3660046123a9565b61054d565b61023a6102703660046123a9565b6108ad565b61023a6102833660046123a9565b610ae4565b60015460405160ff90911681526020016101f3565b61023a6102ab3660046123a9565b610af9565b6101e76102be3660046123a9565b6001600160a01b031660009081526002602052604090205460ff1690565b6102e4610c2f565b6040516101f391906123d6565b61023a6102ff3660046123a9565b610c91565b61023a6103123660046123a9565b610e19565b6103216203f48081565b6040519081526020016101f3565b6101e761033d3660046123a9565b610f3d565b61036f6103503660046123a9565b6003602052600090815260409020805460019091015460ff9091169082565b6040805192151583526020830191909152016101f3565b61023a6103943660046123a9565b610f48565b61032160365481565b61023a6103b03660046123a9565b611063565b7f000000000000000000000000000000000000000000000000000000000000000061020f565b60005461020f906001600160a01b031681565b61023a6103fc3660046123a9565b611199565b61023a61040f3660046123a9565b611231565b61023a6104223660046123a9565b611243565b61023a6104353660046123a9565b61135e565b60385461020f906001600160a01b031681565b61023a61045b3660046123a9565b6114e6565b61023a61046e366004612423565b6114f8565b60395461020f906001600160a01b031681565b60006001600160e01b031982166361a6823d60e01b14806104ab57506104ab82611704565b92915050565b60385481906001600160a01b03908116908216036104e2576040516392fd9a2b60e01b815260040160405180910390fd5b6037546001600160a01b03908116908216036105115760405163de582e2f60e01b815260040160405180910390fd5b6039546001600160a01b0390811690821603610540576040516350f654df60e11b815260040160405180910390fd5b61054982611739565b5050565b603854604080516359f6791b60e11b815290516000926001600160a01b03169163b3ecf2369160048083019260209291908290030181865afa158015610597573d6000803e3d6000fd5b505050506040513d601f19601f820116820180604052508101906105bb91906124f7565b6038549091506001600160a01b03166391d14854826105d8611821565b6040516001600160e01b031960e085901b16815260048101929092526001600160a01b03166024820152604401602060405180830381865afa158015610622573d6000803e3d6000fd5b505050506040513d601f19601f820116820180604052508101906106469190612510565b6106835780610653611821565b6040516325f3b92760e01b815260048101929092526001600160a01b031660248201526044015b60405180910390fd5b816106958163899090df60e01b611873565b826001600160a01b031663fc0c546a6040518163ffffffff1660e01b8152600401602060405180830381865afa1580156106d3573d6000803e3d6000fd5b505050506040513d601f19601f820116820180604052508101906106f79190612532565b6001600160a01b0316603760009054906101000a90046001600160a01b03166001600160a01b031663fc0c546a6040518163ffffffff1660e01b8152600401602060405180830381865afa158015610753573d6000803e3d6000fd5b505050506040513d601f19601f820116820180604052508101906107779190612532565b6001600160a01b03161461088a57603760009054906101000a90046001600160a01b03166001600160a01b031663fc0c546a6040518163ffffffff1660e01b8152600401602060405180830381865afa1580156107d8573d6000803e3d6000fd5b505050506040513d601f19601f820116820180604052508101906107fc9190612532565b836001600160a01b031663fc0c546a6040518163ffffffff1660e01b8152600401602060405180830381865afa15801561083a573d6000803e3d6000fd5b505050506040513d601f19601f8201168201806040525081019061085e9190612532565b604051632fa8ee3f60e21b81526001600160a01b0392831660048201529116602482015260440161067a565b610893816118c1565b6037546108a8906001600160a01b0316611906565b505050565b603854604080516359f6791b60e11b815290516000926001600160a01b03169163b3ecf2369160048083019260209291908290030181865afa1580156108f7573d6000803e3d6000fd5b505050506040513d601f19601f8201168201806040525081019061091b91906124f7565b6038549091506001600160a01b03166391d1485482610938611821565b6040516001600160e01b031960e085901b16815260048101929092526001600160a01b03166024820152604401602060405180830381865afa158015610982573d6000803e3d6000fd5b505050506040513d601f19601f820116820180604052508101906109a69190612510565b6109b35780610653611821565b6001600160a01b038216600090815260036020526040902054829060ff166109ee57604051633db9141960e11b815260040160405180910390fd5b6001600160a01b038316600090815260036020526040902060010154839042811115610a3f576040516308b25c9b60e01b81526001600160a01b03831660048201526024810182905260440161067a565b84610a5181631e38b60f60e31b611873565b603854610a66906001600160a01b0316611739565b6001600160a01b0381166000908152600360205260409020805460ff19169055610a8f81611977565b603880546001600160a01b0319166001600160a01b0388811691909117909155604051908216907ff3f625a7d9e02778afdfdf1bea978d6565840d408866c70f5d25aadf77021d7090600090a2505050505050565b610aed81611a03565b610af6816118c1565b50565b603854604080516359f6791b60e11b815290516000926001600160a01b03169163b3ecf2369160048083019260209291908290030181865afa158015610b43573d6000803e3d6000fd5b505050506040513d601f19601f82011682018060405250810190610b6791906124f7565b6038549091506001600160a01b03166391d1485482610b84611821565b6040516001600160e01b031960e085901b16815260048101929092526001600160a01b03166024820152604401602060405180830381865afa158015610bce573d6000803e3d6000fd5b505050506040513d601f19601f82011682018060405250810190610bf29190612510565b610bff5780610653611821565b81610c1181631e38b60f60e31b611873565b610c1a816118c1565b6038546108a8906001600160a01b0316611906565b60606001805480602002602001604051908101604052809291908181526020018280548015610c8757602002820191906000526020600020905b81546001600160a01b03168152600190910190602001808311610c69575b5050505050905090565b603854604080516359f6791b60e11b815290516000926001600160a01b03169163b3ecf2369160048083019260209291908290030181865afa158015610cdb573d6000803e3d6000fd5b505050506040513d601f19601f82011682018060405250810190610cff91906124f7565b6038549091506001600160a01b03166391d1485482610d1c611821565b6040516001600160e01b031960e085901b16815260048101929092526001600160a01b03166024820152604401602060405180830381865afa158015610d66573d6000803e3d6000fd5b505050506040513d601f19601f82011682018060405250810190610d8a9190612510565b610d975780610653611821565b81610da98163d563de2160e01b611873565b603954610dbe906001600160a01b0316611739565b610dc781611a84565b603980546001600160a01b0319166001600160a01b0385811691909117909155604051908216907fae8716ba090b1cdfccf3851704c6dc4610f3be4f2f6badf912e74315e5280db490600090a2505050565b603854604080516359f6791b60e11b815290516000926001600160a01b03169163b3ecf2369160048083019260209291908290030181865afa158015610e63573d6000803e3d6000fd5b505050506040513d601f19601f82011682018060405250810190610e8791906124f7565b6038549091506001600160a01b03166391d1485482610ea4611821565b6040516001600160e01b031960e085901b16815260048101929092526001600160a01b03166024820152604401602060405180830381865afa158015610eee573d6000803e3d6000fd5b505050506040513d601f19601f82011682018060405250810190610f129190612510565b610f1f5780610653611821565b603754610f34906001600160a01b0316611b61565b61054982611b61565b60006104ab82611c1c565b603854604080516359f6791b60e11b815290516000926001600160a01b03169163b3ecf2369160048083019260209291908290030181865afa158015610f92573d6000803e3d6000fd5b505050506040513d601f19601f82011682018060405250810190610fb691906124f7565b6038549091506001600160a01b03166391d1485482610fd3611821565b6040516001600160e01b031960e085901b16815260048101929092526001600160a01b03166024820152604401602060405180830381865afa15801561101d573d6000803e3d6000fd5b505050506040513d601f19601f820116820180604052508101906110419190612510565b61104e5780610653611821565b603954610f34906001600160a01b0316611b61565b603854604080516359f6791b60e11b815290516000926001600160a01b03169163b3ecf2369160048083019260209291908290030181865afa1580156110ad573d6000803e3d6000fd5b505050506040513d601f19601f820116820180604052508101906110d191906124f7565b6038549091506001600160a01b03166391d14854826110ee611821565b6040516001600160e01b031960e085901b16815260048101929092526001600160a01b03166024820152604401602060405180830381865afa158015611138573d6000803e3d6000fd5b505050506040513d601f19601f8201168201806040525081019061115c9190612510565b6111695780610653611821565b8161117b8163d563de2160e01b611873565b611184816118c1565b6039546108a8906001600160a01b0316611906565b60385481906001600160a01b03908116908216036111ca576040516392fd9a2b60e01b815260040160405180910390fd5b6037546001600160a01b03908116908216036111f95760405163de582e2f60e01b815260040160405180910390fd5b6039546001600160a01b0390811690821603611228576040516350f654df60e11b815260040160405180910390fd5b61054982611906565b61123a81611a03565b610af681611a84565b603854604080516359f6791b60e11b815290516000926001600160a01b03169163b3ecf2369160048083019260209291908290030181865afa15801561128d573d6000803e3d6000fd5b505050506040513d601f19601f820116820180604052508101906112b191906124f7565b6038549091506001600160a01b03166391d14854826112ce611821565b6040516001600160e01b031960e085901b16815260048101929092526001600160a01b03166024820152604401602060405180830381865afa158015611318573d6000803e3d6000fd5b505050506040513d601f19601f8201168201806040525081019061133c9190612510565b6113495780610653611821565b603854610f34906001600160a01b0316611b61565b603854604080516359f6791b60e11b815290516000926001600160a01b03169163b3ecf2369160048083019260209291908290030181865afa1580156113a8573d6000803e3d6000fd5b505050506040513d601f19601f820116820180604052508101906113cc91906124f7565b6038549091506001600160a01b03166391d14854826113e9611821565b6040516001600160e01b031960e085901b16815260048101929092526001600160a01b03166024820152604401602060405180830381865afa158015611433573d6000803e3d6000fd5b505050506040513d601f19601f820116820180604052508101906114579190612510565b6114645780610653611821565b816114768163899090df60e01b611873565b60375461148b906001600160a01b0316611739565b61149481611a84565b603780546001600160a01b0319166001600160a01b0385811691909117909155604051908216907f224dfb9d0227c04cf6e5b57d4b0594d2962f550c547f4bf5e2578e09d6aa67ed90600090a2505050565b6114ef81611a03565b610af681611b61565b7ff0c57e16840df040f15088dc2f81fe391c3923bec73e23a9662efc9c229c6a00805468010000000000000000810460ff16159067ffffffffffffffff166000811580156115435750825b905060008267ffffffffffffffff1660011480156115605750303b155b90508115801561156e575080155b1561158c5760405163f92ee8a960e01b815260040160405180910390fd5b845467ffffffffffffffff1916600117855583156115c057845468ff00000000000000001916680100000000000000001785555b6115cb8c8c8c611c53565b60368d9055603780546001600160a01b03808c166001600160a01b031992831617909255603880548b8416908316179055603980548a8416908316179055603a80549289169290911691909117905561162b8963899090df60e01b611873565b61163489611d17565b61164588631e38b60f60e31b611873565b61164e88611d17565b61165f8763d563de2160e01b611873565b61166887611d17565b8c7f7a47dfa388d168c902b55f35a523c42a138df7ca4f46d65fcd085909e90473ea8a8a8a8f8f8c6040516116a29695949392919061254f565b60405180910390a283156116f557845468ff000000000000000019168555604051600181527fc7f505b2f371ae2175ee4913f4499e1f2633a7b5936321eed1cdaeb6115181d29060200160405180910390a15b50505050505050505050505050565b60006001600160e01b03198216630abd61af60e01b14806104ab57506301ffc9a760e01b6001600160e01b03198316146104ab565b611749611744611821565b611d57565b61176657604051635e9f49ed60e11b815260040160405180910390fd5b6001600160a01b038116600090815260036020526040902054819060ff166117a157604051633db9141960e11b815260040160405180910390fd5b6001600160a01b0382166000908152600360205260409020600101548290428111156117f2576040516308b25c9b60e01b81526001600160a01b03831660048201526024810182905260440161067a565b6001600160a01b0384166000908152600360205260409020805460ff1916905561181b84611e3c565b50505050565b600036601461182f33610f3d565b801561183b5750808210155b1561186b5760003661184d83856125e3565b6118589282906125f6565b61186191612620565b60601c9250505090565b339250505090565b63e328951160e01b6118858382611fea565b158061189857506118968383611fea565b155b156108a857604051630792fedb60e11b81526001600160a01b038416600482015260240161067a565b6118cc611744611821565b6118e957604051635e9f49ed60e11b815260040160405180910390fd5b806118f38161200d565b816118fd81612047565b6108a8836121a1565b611911611744611821565b61192e57604051635e9f49ed60e11b815260040160405180910390fd5b80611951816001600160a01b031660009081526002602052604090205460ff1690565b61196e57604051630667ee4760e51b815260040160405180910390fd5b610549826121a1565b6001805480820182557fb10e2d527612073b26eecdfd717e6a320cf44b4afac2b0732d9fcbe2b7fa0cf60180546001600160a01b0319166001600160a01b038416908117909155600081815260026020526040808220805460ff1916909417909355915190917fead6a006345da1073a106d5f32372d2d2204f46cb0b4bca8f5ebafcbbed12b8a91a250565b63e328951160e01b611a158282611fea565b1580611a2d5750611a2d82631e38b60f60e31b611fea565b80611a445750611a448263899090df60e01b611fea565b80611a5b5750611a5b8263d563de2160e01b611fea565b1561054957604051630792fedb60e11b81526001600160a01b038316600482015260240161067a565b611a8f611744611821565b611aac57604051635e9f49ed60e11b815260040160405180910390fd5b6001600160a01b038116600090815260036020526040902054819060ff16611ae757604051633db9141960e11b815260040160405180910390fd5b6001600160a01b038216600090815260036020526040902060010154829042811115611b38576040516308b25c9b60e01b81526001600160a01b03831660048201526024810182905260440161067a565b6001600160a01b0384166000908152600360205260409020805460ff1916905561181b84611d17565b611b6c611744611821565b611b8957604051635e9f49ed60e11b815260040160405180910390fd5b6001600160a01b038116600090815260036020526040902054819060ff16611bc457604051633db9141960e11b815260040160405180910390fd5b6001600160a01b038216600081815260036020908152604091829020805460ff1916905590519182527f34b61b05aa2ce0966541b7b17938be27068f7483157b83dc30e4455b340bba09910160405180910390a15050565b60007f00000000000000000000000000000000000000000000000000000000000000006001600160a01b03908116908316146104ab565b611c5b612248565b6001600160a01b038316611c82576040516303c7e09d60e61b815260040160405180910390fd5b600080546001600160a01b0319166001600160a01b03851617815581611caa600360806125e3565b811115611cca5760405163ba9e0d8360e01b815260040160405180910390fd5b60005b81811015611d0f57848482818110611ce757611ce7612655565b9050602002016020810190611cfc91906123a9565b9250611d0783611d17565b600101611ccd565b505050505050565b80611d218161200d565b81611d2b81612047565b600154608011611d4e5760405163ba9e0d8360e01b815260040160405180910390fd5b6108a883611977565b603854604080516359f6791b60e11b815290516000926001600160a01b0316916391d1485491839163b3ecf2369160048083019260209291908290030181865afa158015611da9573d6000803e3d6000fd5b505050506040513d601f19601f82011682018060405250810190611dcd91906124f7565b6040516001600160e01b031960e084901b16815260048101919091526001600160a01b0385166024820152604401602060405180830381865afa158015611e18573d6000803e3d6000fd5b505050506040513d601f19601f820116820180604052508101906104ab9190612510565b60006001805480602002602001604051908101604052809291908181526020018280548015611e9457602002820191906000526020600020905b81546001600160a01b03168152600190910190602001808311611e76575b5050835193945060001993925060009150505b81811015611ef157846001600160a01b0316848281518110611ecb57611ecb612655565b60200260200101516001600160a01b031603611ee957809250611ef1565b600101611ea7565b506001611efe81836125e3565b81548110611f0e57611f0e612655565b600091825260209091200154600180546001600160a01b039092169184908110611f3a57611f3a612655565b9060005260206000200160006101000a8154816001600160a01b0302191690836001600160a01b031602179055506001805480611f7957611f7961266b565b60008281526020808220830160001990810180546001600160a01b03191690559092019092556001600160a01b03861680835260029091526040808320805460ff191690555190917f0a1ee69f55c33d8467c69ca59ce2007a737a88603d75392972520bf67cb513b891a250505050565b6000611ff583612298565b8015612006575061200683836122cb565b9392505050565b6001600160a01b03811660009081526002602052604090205460ff1615610af6576040516312e73c6560e11b815260040160405180910390fd5b6001600160a01b0381163b158061206557506001600160a01b038116155b8061207857506001600160a01b03811630145b806120ef57506040516301ffc9a760e01b815263e328951160e01b60048201526001600160a01b038216906301ffc9a790602401602060405180830381865afa1580156120c9573d6000803e3d6000fd5b505050506040513d601f19601f820116820180604052508101906120ed9190612510565b155b1561210d57604051632aa9895960e21b815260040160405180910390fd5b600054604051630bcaa86d60e11b81526001600160a01b0383811660048301523092169063179550da90602401602060405180830381865afa158015612157573d6000803e3d6000fd5b505050506040513d601f19601f8201168201806040525081019061217b9190612532565b6001600160a01b031614610af65760405162c855c360e41b815260040160405180910390fd5b6040805180820190915260018152602081016121c06203f48042612681565b90526001600160a01b03821660009081526003602090815260409091208251815460ff19169015151781559101516001909101557f3635e1281dcab7f1670ca794fca564fd39c34cd8528b10e396cdc893cbbd8acb816122236203f48042612681565b604080516001600160a01b03909316835260208301919091520160405180910390a150565b7ff0c57e16840df040f15088dc2f81fe391c3923bec73e23a9662efc9c229c6a005468010000000000000000900460ff1661229657604051631afcd79f60e31b815260040160405180910390fd5b565b60006122ab826301ffc9a760e01b6122cb565b80156104ab57506122c4826001600160e01b03196122cb565b1592915050565b6040516001600160e01b031982166024820152600090819060440160408051601f19818403018152919052602080820180517bffffffffffffffffffffffffffffffffffffffffffffffffffffffff166301ffc9a760e01b178152825192935060009283928392909183918a617530fa92503d91506000519050828015612353575060208210155b801561235f5750600081115b979650505050505050565b60006020828403121561237c57600080fd5b81356001600160e01b03198116811461200657600080fd5b6001600160a01b0381168114610af657600080fd5b6000602082840312156123bb57600080fd5b813561200681612394565b80356123d181612394565b919050565b6020808252825182820181905260009190848201906040850190845b818110156124175783516001600160a01b0316835292840192918401916001016123f2565b50909695505050505050565b60008060008060008060008060e0898b03121561243f57600080fd5b88359750602089013561245181612394565b9650604089013567ffffffffffffffff8082111561246e57600080fd5b818b0191508b601f83011261248257600080fd5b81358181111561249157600080fd5b8c60208260051b85010111156124a657600080fd5b6020830198508097505050506124be60608a016123c6565b93506124cc60808a016123c6565b92506124da60a08a016123c6565b91506124e860c08a016123c6565b90509295985092959890939650565b60006020828403121561250957600080fd5b5051919050565b60006020828403121561252257600080fd5b8151801515811461200657600080fd5b60006020828403121561254457600080fd5b815161200681612394565b600060a082016001600160a01b03808a1684526020818a166020860152818916604086015260a060608601528287845260c08601905088935060005b888110156125b257843561259e81612394565b84168252938201939082019060010161258b565b50809450505080851660808501525050979650505050505050565b634e487b7160e01b600052601160045260246000fd5b818103818111156104ab576104ab6125cd565b6000808585111561260657600080fd5b8386111561261357600080fd5b5050820193919092039150565b6bffffffffffffffffffffffff19813581811691601485101561264d5780818660140360031b1b83161692505b505092915050565b634e487b7160e01b600052603260045260246000fd5b634e487b7160e01b600052603160045260246000fd5b808201808211156104ab576104ab6125cd56fea264697066735822122077cfdb4ce1a8926444ce70565f2b7325ebdd6885305213525befde31cff05ceb64736f6c63430008170033",
    "linkReferences": {}
  },
  "methodIdentifiers": {
    "MODULE_UPDATE_TIMELOCK()": "547501a1",
    "authorizer()": "d09edf31",
    "cancelAuthorizerUpdate(address)": "c21094ff",
    "cancelFundingManagerUpdate(address)": "505128bf",
    "cancelModuleUpdate(address)": "d2b1ad06",
    "cancelPaymentProcessorUpdate(address)": "6d304371",
    "executeAddModule(address)": "bca52266",
    "executeRemoveModule(address)": "09a445cd",
    "executeSetAuthorizer(address)": "14f460af",
    "executeSetFundingManager(address)": "c3f786fb",
    "executeSetPaymentProcessor(address)": "4e395b1c",
    "fundingManager()": "04baed9e",
    "governor()": "0c340a24",
    "init(uint256,address,address[],address,address,address,address)": "e7623d3b",
    "initiateAddModuleWithTimelock(address)": "220026fc",
    "initiateRemoveModuleWithTimelock(address)": "b8b03f4c",
    "initiateSetAuthorizerWithTimelock(address)": "3cc85f58",
    "initiateSetFundingManagerWithTimelock(address)": "0e68347a",
    "initiateSetPaymentProcessorWithTimelock(address)": "7590a394",
    "isModule(address)": "42f6e389",
    "isTrustedForwarder(address)": "572b6c05",
    "listModules()": "4cfa6487",
    "moduleAddressToTimelock(address)": "5c4e51f0",
    "moduleFactory()": "8991255b",
    "modulesSize()": "2e3a22d3",
    "orchestratorId()": "736963a7",
    "paymentProcessor()": "f1c6bdf8",
    "supportsInterface(bytes4)": "01ffc9a7",
    "trustedForwarder()": "7da0a877"
  },
  "id": 155
}