{
  "abi": [
    {
      "type": "constructor",
      "inputs": [
        {
          "name": "_trustedForwarder",
          "type": "address",
          "internalType": "address"
        }
      ],
      "stateMutability": "nonpayable"
    },
    {
      "type": "function",
      "name": "MODULE_UPDATE_TIMELOCK",
      "inputs": [],
      "outputs": [
        {
          "name": "",
          "type": "uint256",
          "internalType": "uint256"
        }
      ],
      "stateMutability": "view"
    },
    {
      "type": "function",
      "name": "authorizer",
      "inputs": [],
      "outputs": [
        {
          "name": "",
          "type": "address",
          "internalType": "contract IAuthorizer_v1"
        }
      ],
      "stateMutability": "view"
    },
    {
      "type": "function",
      "name": "cancelAuthorizerUpdate",
      "inputs": [
        {
          "name": "authorizer_",
          "type": "address",
          "internalType": "contract IAuthorizer_v1"
        }
      ],
      "outputs": [],
      "stateMutability": "nonpayable"
    },
    {
      "type": "function",
      "name": "cancelFundingManagerUpdate",
      "inputs": [
        {
          "name": "fundingManager_",
          "type": "address",
          "internalType": "contract IFundingManager_v1"
        }
      ],
      "outputs": [],
      "stateMutability": "nonpayable"
    },
    {
      "type": "function",
      "name": "cancelModuleUpdate",
      "inputs": [
        {
          "name": "module_",
          "type": "address",
          "internalType": "address"
        }
      ],
      "outputs": [],
      "stateMutability": "nonpayable"
    },
    {
      "type": "function",
      "name": "cancelPaymentProcessorUpdate",
      "inputs": [
        {
          "name": "paymentProcessor_",
          "type": "address",
          "internalType": "contract IPaymentProcessor_v1"
        }
      ],
      "outputs": [],
      "stateMutability": "nonpayable"
    },
    {
      "type": "function",
      "name": "executeAddModule",
      "inputs": [
        {
          "name": "module_",
          "type": "address",
          "internalType": "address"
        }
      ],
      "outputs": [],
      "stateMutability": "nonpayable"
    },
    {
      "type": "function",
      "name": "executeRemoveModule",
      "inputs": [
        {
          "name": "module_",
          "type": "address",
          "internalType": "address"
        }
      ],
      "outputs": [],
      "stateMutability": "nonpayable"
    },
    {
      "type": "function",
      "name": "executeSetAuthorizer",
      "inputs": [
        {
          "name": "authorizer_",
          "type": "address",
          "internalType": "contract IAuthorizer_v1"
        }
      ],
      "outputs": [],
      "stateMutability": "nonpayable"
    },
    {
      "type": "function",
      "name": "executeSetFundingManager",
      "inputs": [
        {
          "name": "fundingManager_",
          "type": "address",
          "internalType": "contract IFundingManager_v1"
        }
      ],
      "outputs": [],
      "stateMutability": "nonpayable"
    },
    {
      "type": "function",
      "name": "executeSetPaymentProcessor",
      "inputs": [
        {
          "name": "paymentProcessor_",
          "type": "address",
          "internalType": "contract IPaymentProcessor_v1"
        }
      ],
      "outputs": [],
      "stateMutability": "nonpayable"
    },
    {
      "type": "function",
      "name": "executeTx",
      "inputs": [
        {
          "name": "target",
          "type": "address",
          "internalType": "address"
        },
        {
          "name": "data",
          "type": "bytes",
          "internalType": "bytes"
        }
      ],
      "outputs": [
        {
          "name": "",
          "type": "bytes",
          "internalType": "bytes"
        }
      ],
      "stateMutability": "nonpayable"
    },
    {
      "type": "function",
      "name": "executeTxFromModule",
      "inputs": [
        {
          "name": "to",
          "type": "address",
          "internalType": "address"
        },
        {
          "name": "data",
          "type": "bytes",
          "internalType": "bytes"
        }
      ],
      "outputs": [
        {
          "name": "",
          "type": "bool",
          "internalType": "bool"
        },
        {
          "name": "",
          "type": "bytes",
          "internalType": "bytes"
        }
      ],
      "stateMutability": "nonpayable"
    },
    {
      "type": "function",
      "name": "findModuleAddressInOrchestrator",
      "inputs": [
        {
          "name": "moduleName",
          "type": "string",
          "internalType": "string"
        }
      ],
      "outputs": [
        {
          "name": "",
          "type": "address",
          "internalType": "address"
        }
      ],
      "stateMutability": "view"
    },
    {
      "type": "function",
      "name": "fundingManager",
      "inputs": [],
      "outputs": [
        {
          "name": "",
          "type": "address",
          "internalType": "contract IFundingManager_v1"
        }
      ],
      "stateMutability": "view"
    },
    {
      "type": "function",
      "name": "governor",
      "inputs": [],
      "outputs": [
        {
          "name": "",
          "type": "address",
          "internalType": "contract IGovernor_v1"
        }
      ],
      "stateMutability": "view"
    },
    {
      "type": "function",
      "name": "init",
      "inputs": [
        {
          "name": "orchestratorId_",
          "type": "uint256",
          "internalType": "uint256"
        },
        {
          "name": "modules",
          "type": "address[]",
          "internalType": "address[]"
        },
        {
          "name": "fundingManager_",
          "type": "address",
          "internalType": "contract IFundingManager_v1"
        },
        {
          "name": "authorizer_",
          "type": "address",
          "internalType": "contract IAuthorizer_v1"
        },
        {
          "name": "paymentProcessor_",
          "type": "address",
          "internalType": "contract IPaymentProcessor_v1"
        },
        {
          "name": "governor_",
          "type": "address",
          "internalType": "contract IGovernor_v1"
        }
      ],
      "outputs": [],
      "stateMutability": "nonpayable"
    },
    {
      "type": "function",
      "name": "initiateAddModuleWithTimelock",
      "inputs": [
        {
          "name": "module_",
          "type": "address",
          "internalType": "address"
        }
      ],
      "outputs": [],
      "stateMutability": "nonpayable"
    },
    {
      "type": "function",
      "name": "initiateRemoveModuleWithTimelock",
      "inputs": [
        {
          "name": "module_",
          "type": "address",
          "internalType": "address"
        }
      ],
      "outputs": [],
      "stateMutability": "nonpayable"
    },
    {
      "type": "function",
      "name": "initiateSetAuthorizerWithTimelock",
      "inputs": [
        {
          "name": "authorizer_",
          "type": "address",
          "internalType": "contract IAuthorizer_v1"
        }
      ],
      "outputs": [],
      "stateMutability": "nonpayable"
    },
    {
      "type": "function",
      "name": "initiateSetFundingManagerWithTimelock",
      "inputs": [
        {
          "name": "fundingManager_",
          "type": "address",
          "internalType": "contract IFundingManager_v1"
        }
      ],
      "outputs": [],
      "stateMutability": "nonpayable"
    },
    {
      "type": "function",
      "name": "initiateSetPaymentProcessorWithTimelock",
      "inputs": [
        {
          "name": "paymentProcessor_",
          "type": "address",
          "internalType": "contract IPaymentProcessor_v1"
        }
      ],
      "outputs": [],
      "stateMutability": "nonpayable"
    },
    {
      "type": "function",
      "name": "isModule",
      "inputs": [
        {
          "name": "module",
          "type": "address",
          "internalType": "address"
        }
      ],
      "outputs": [
        {
          "name": "",
          "type": "bool",
          "internalType": "bool"
        }
      ],
      "stateMutability": "view"
    },
    {
      "type": "function",
      "name": "isTrustedForwarder",
      "inputs": [
        {
          "name": "forwarder",
          "type": "address",
          "internalType": "address"
        }
      ],
      "outputs": [
        {
          "name": "",
          "type": "bool",
          "internalType": "bool"
        }
      ],
      "stateMutability": "view"
    },
    {
      "type": "function",
      "name": "listModules",
      "inputs": [],
      "outputs": [
        {
          "name": "",
          "type": "address[]",
          "internalType": "address[]"
        }
      ],
      "stateMutability": "view"
    },
    {
      "type": "function",
      "name": "moduleAddressToTimelock",
      "inputs": [
        {
          "name": "module",
          "type": "address",
          "internalType": "address"
        }
      ],
      "outputs": [
        {
          "name": "timelockActive",
          "type": "bool",
          "internalType": "bool"
        },
        {
          "name": "timelockUntil",
          "type": "uint256",
          "internalType": "uint256"
        }
      ],
      "stateMutability": "view"
    },
    {
      "type": "function",
      "name": "modulesSize",
      "inputs": [],
      "outputs": [
        {
          "name": "",
          "type": "uint8",
          "internalType": "uint8"
        }
      ],
      "stateMutability": "view"
    },
    {
      "type": "function",
      "name": "orchestratorId",
      "inputs": [],
      "outputs": [
        {
          "name": "",
          "type": "uint256",
          "internalType": "uint256"
        }
      ],
      "stateMutability": "view"
    },
    {
      "type": "function",
      "name": "paymentProcessor",
      "inputs": [],
      "outputs": [
        {
          "name": "",
          "type": "address",
          "internalType": "contract IPaymentProcessor_v1"
        }
      ],
      "stateMutability": "view"
    },
    {
      "type": "function",
      "name": "supportsInterface",
      "inputs": [
        {
          "name": "interfaceId",
          "type": "bytes4",
          "internalType": "bytes4"
        }
      ],
      "outputs": [
        {
          "name": "",
          "type": "bool",
          "internalType": "bool"
        }
      ],
      "stateMutability": "view"
    },
    {
      "type": "function",
      "name": "trustedForwarder",
      "inputs": [],
      "outputs": [
        {
          "name": "",
          "type": "address",
          "internalType": "address"
        }
      ],
      "stateMutability": "view"
    },
    {
      "type": "function",
      "name": "version",
      "inputs": [],
      "outputs": [
        {
          "name": "",
          "type": "string",
          "internalType": "string"
        }
      ],
      "stateMutability": "pure"
    },
    {
      "type": "event",
      "name": "AuthorizerUpdated",
      "inputs": [
        {
          "name": "_address",
          "type": "address",
          "indexed": true,
          "internalType": "address"
        }
      ],
      "anonymous": false
    },
    {
      "type": "event",
      "name": "FundingManagerUpdated",
      "inputs": [
        {
          "name": "_address",
          "type": "address",
          "indexed": true,
          "internalType": "address"
        }
      ],
      "anonymous": false
    },
    {
      "type": "event",
      "name": "Initialized",
      "inputs": [
        {
          "name": "version",
          "type": "uint64",
          "indexed": false,
          "internalType": "uint64"
        }
      ],
      "anonymous": false
    },
    {
      "type": "event",
      "name": "ModuleAdded",
      "inputs": [
        {
          "name": "module",
          "type": "address",
          "indexed": true,
          "internalType": "address"
        }
      ],
      "anonymous": false
    },
    {
      "type": "event",
      "name": "ModuleRemoved",
      "inputs": [
        {
          "name": "module",
          "type": "address",
          "indexed": true,
          "internalType": "address"
        }
      ],
      "anonymous": false
    },
    {
      "type": "event",
      "name": "ModuleTimelockStarted",
      "inputs": [
        {
          "name": "module",
          "type": "address",
          "indexed": false,
          "internalType": "address"
        },
        {
          "name": "timelockUntil",
          "type": "uint256",
          "indexed": false,
          "internalType": "uint256"
        }
      ],
      "anonymous": false
    },
    {
      "type": "event",
      "name": "ModuleUpdateCanceled",
      "inputs": [
        {
          "name": "module",
          "type": "address",
          "indexed": false,
          "internalType": "address"
        }
      ],
      "anonymous": false
    },
    {
      "type": "event",
      "name": "OrchestratorInitialized",
      "inputs": [
        {
          "name": "orchestratorId_",
          "type": "uint256",
          "indexed": true,
          "internalType": "uint256"
        },
        {
          "name": "fundingManager",
          "type": "address",
          "indexed": false,
          "internalType": "address"
        },
        {
          "name": "authorizer",
          "type": "address",
          "indexed": false,
          "internalType": "address"
        },
        {
          "name": "paymentProcessor",
          "type": "address",
          "indexed": false,
          "internalType": "address"
        },
        {
          "name": "modules",
          "type": "address[]",
          "indexed": false,
          "internalType": "address[]"
        },
        {
          "name": "governor",
          "type": "address",
          "indexed": false,
          "internalType": "address"
        }
      ],
      "anonymous": false
    },
    {
      "type": "event",
      "name": "PaymentProcessorUpdated",
      "inputs": [
        {
          "name": "_address",
          "type": "address",
          "indexed": true,
          "internalType": "address"
        }
      ],
      "anonymous": false
    },
    {
      "type": "error",
      "name": "InvalidInitialization",
      "inputs": []
    },
    {
      "type": "error",
      "name": "ModuleManagerBase__CallerNotAuthorized",
      "inputs": []
    },
    {
      "type": "error",
      "name": "ModuleManagerBase__InvalidModuleAddress",
      "inputs": []
    },
    {
      "type": "error",
      "name": "ModuleManagerBase__IsModule",
      "inputs": []
    },
    {
      "type": "error",
      "name": "ModuleManagerBase__IsNotModule",
      "inputs": []
    },
    {
      "type": "error",
      "name": "ModuleManagerBase__ModuleAmountOverLimits",
      "inputs": []
    },
    {
      "type": "error",
      "name": "ModuleManagerBase__ModuleUpdateAlreadyStarted",
      "inputs": []
    },
    {
      "type": "error",
      "name": "ModuleManagerBase__ModuleUpdateTimelockStillActive",
      "inputs": [
        {
          "name": "_module",
          "type": "address",
          "internalType": "address"
        },
        {
          "name": "_timelockUntil",
          "type": "uint256",
          "internalType": "uint256"
        }
      ]
    },
    {
      "type": "error",
      "name": "ModuleManagerBase__ModulesNotConsecutive",
      "inputs": []
    },
    {
      "type": "error",
      "name": "ModuleManagerBase__OnlyCallableByModule",
      "inputs": []
    },
    {
      "type": "error",
      "name": "NotInitializing",
      "inputs": []
    },
    {
      "type": "error",
      "name": "Orchestrator__CallerNotAuthorized",
      "inputs": [
        {
          "name": "role",
          "type": "bytes32",
          "internalType": "bytes32"
        },
        {
          "name": "caller",
          "type": "address",
          "internalType": "address"
        }
      ]
    },
    {
      "type": "error",
      "name": "Orchestrator__DependencyInjection__ModuleNotUsedInOrchestrator",
      "inputs": []
    },
    {
      "type": "error",
      "name": "Orchestrator__ExecuteTxFailed",
      "inputs": []
    },
    {
      "type": "error",
      "name": "Orchestrator__InvalidModuleType",
      "inputs": [
        {
          "name": "module",
          "type": "address",
          "internalType": "address"
        }
      ]
    },
    {
      "type": "error",
      "name": "Orchestrator__InvalidRemovalOfAuthorizer",
      "inputs": []
    },
    {
      "type": "error",
      "name": "Orchestrator__InvalidRemovalOfFundingManager",
      "inputs": []
    },
    {
      "type": "error",
      "name": "Orchestrator__InvalidRemovalOfPaymentProcessor",
      "inputs": []
    }
  ],
  "bytecode": {
    "object": "0x60a06040523480156200001157600080fd5b506040516200299738038062002997833981016040819052620000349162000106565b6001600160a01b0381166080526200004b62000052565b5062000138565b7ff0c57e16840df040f15088dc2f81fe391c3923bec73e23a9662efc9c229c6a00805468010000000000000000900460ff1615620000a35760405163f92ee8a960e01b815260040160405180910390fd5b80546001600160401b0390811614620001035780546001600160401b0319166001600160401b0390811782556040519081527fc7f505b2f371ae2175ee4913f4499e1f2633a7b5936321eed1cdaeb6115181d29060200160405180910390a15b50565b6000602082840312156200011957600080fd5b81516001600160a01b03811681146200013157600080fd5b9392505050565b60805161283c6200015b6000396000818161043b0152611bb9015261283c6000f3fe608060405234801561001057600080fd5b50600436106101f05760003560e01c8063572b6c051161010f578063bca52266116100a2578063d2b1ad0611610071578063d2b1ad06146104ab578063de4959d5146104be578063f1c6bdf8146104d1578063fac5e981146104e457600080fd5b8063bca5226614610472578063c21094ff14610338578063c3f786fb14610485578063d09edf311461049857600080fd5b8063736963a7116100de578063736963a71461041d5780637590a394146104265780637da0a87714610439578063b8b03f4c1461045f57600080fd5b8063572b6c05146103a55780635c4e51f0146103b8578063685dc6b1146103fc5780636d3043711461033857600080fd5b80632e3a22d3116101875780634e395b1c116101565780634e395b1c14610325578063505128bf14610338578063547501a11461034b57806354fd4d501461036357600080fd5b80632e3a22d3146102bc5780633cc85f58146102d157806342f6e389146102e45780634cfa64871461031057600080fd5b80630c340a24116101c35780630c340a24146102705780630e68347a1461028357806314f460af14610296578063220026fc146102a957600080fd5b806301ffc9a7146101f557806304baed9e1461021d57806308c101b11461024857806309a445cd1461025b575b600080fd5b610208610203366004612263565b6104f7565b60405190151581526020015b60405180910390f35b600554610230906001600160a01b031681565b6040516001600160a01b039091168152602001610214565b61023061025636600461228d565b61053b565b61026e610269366004612314565b610591565b005b600854610230906001600160a01b031681565b61026e610291366004612314565b61059d565b61026e6102a4366004612314565b61079d565b61026e6102b7366004612314565b610919565b60005460405160ff9091168152602001610214565b61026e6102df366004612314565b610922565b6102086102f2366004612314565b6001600160a01b031660009081526001602052604090205460ff1690565b610318610a90565b6040516102149190612341565b61026e610333366004612314565b610af2565b61026e610346366004612314565b610c6e565b6103556203f48081565b604051908152602001610214565b60408051808201909152600181527f310000000000000000000000000000000000000000000000000000000000000060208201525b60405161021491906123de565b6102086103b3366004612314565b610d81565b6103e56103c6366004612314565b6002602052600090815260409020805460019091015460ff9091169082565b604080519215158352602083019190915201610214565b61040f61040a366004612460565b610d8c565b6040516102149291906124f3565b61035560045481565b61026e610434366004612314565b610e3f565b7f0000000000000000000000000000000000000000000000000000000000000000610230565b61026e61046d366004612314565b610fad565b61026e610480366004612314565b61108e565b61026e610493366004612314565b611097565b600654610230906001600160a01b031681565b61026e6104b9366004612314565b611213565b61026e6104cc36600461250e565b61121c565b600754610230906001600160a01b031681565b6103986104f2366004612460565b611430565b60006001600160e01b031982167ffe7443b30000000000000000000000000000000000000000000000000000000014806105355750610535826115ef565b92915050565b600080600061054a858561163d565b915091506000198203610589576040517f6fba4a1b00000000000000000000000000000000000000000000000000000000815260040160405180910390fd5b949350505050565b61059a8161177e565b50565b6006546040805163157fd63560e21b815290516000926001600160a01b0316916355ff58d49160048083019260209291908290030181865afa1580156105e7573d6000803e3d6000fd5b505050506040513d601f19601f8201168201806040525081019061060b91906125d0565b6006549091506001600160a01b03166391d148548261062861187f565b6040516001600160e01b031960e085901b16815260048101929092526001600160a01b03166024820152604401602060405180830381865afa158015610672573d6000803e3d6000fd5b505050506040513d601f19601f8201168201806040525081019061069691906125e9565b6106ec57806106a361187f565b6040517f25f3b92700000000000000000000000000000000000000000000000000000000815260048101929092526001600160a01b031660248201526044015b60405180910390fd5b8163179dfb4560e01b7f899090df0000000000000000000000000000000000000000000000000000000061072083836118d1565b8015610731575061073183826118d1565b156107595761073f856118f4565b600554610754906001600160a01b031661197a565b610796565b6040517f0f25fdb60000000000000000000000000000000000000000000000000000000081526001600160a01b03861660048201526024016106e3565b5050505050565b6006546040805163157fd63560e21b815290516000926001600160a01b0316916355ff58d49160048083019260209291908290030181865afa1580156107e7573d6000803e3d6000fd5b505050506040513d601f19601f8201168201806040525081019061080b91906125d0565b6006549091506001600160a01b03166391d148548261082861187f565b6040516001600160e01b031960e085901b16815260048101929092526001600160a01b03166024820152604401602060405180830381865afa158015610872573d6000803e3d6000fd5b505050506040513d601f19601f8201168201806040525081019061089691906125e9565b6108a357806106a361187f565b6108ac82611a04565b6006546108c1906001600160a01b031661177e565b6006805473ffffffffffffffffffffffffffffffffffffffff19166001600160a01b0384169081179091556040517ff3f625a7d9e02778afdfdf1bea978d6565840d408866c70f5d25aadf77021d7090600090a25050565b61059a816118f4565b6006546040805163157fd63560e21b815290516000926001600160a01b0316916355ff58d49160048083019260209291908290030181865afa15801561096c573d6000803e3d6000fd5b505050506040513d601f19601f8201168201806040525081019061099091906125d0565b6006549091506001600160a01b03166391d14854826109ad61187f565b6040516001600160e01b031960e085901b16815260048101929092526001600160a01b03166024820152604401602060405180830381865afa1580156109f7573d6000803e3d6000fd5b505050506040513d601f19601f82011682018060405250810190610a1b91906125e9565b610a2857806106a361187f565b8163179dfb4560e01b7f7e732aa700000000000000000000000000000000000000000000000000000000610a5c83836118d1565b8015610a6d5750610a6d83826118d1565b1561075957610a7b836118f4565b600654610754906001600160a01b031661197a565b60606000805480602002602001604051908101604052809291908181526020018280548015610ae857602002820191906000526020600020905b81546001600160a01b03168152600190910190602001808311610aca575b5050505050905090565b6006546040805163157fd63560e21b815290516000926001600160a01b0316916355ff58d49160048083019260209291908290030181865afa158015610b3c573d6000803e3d6000fd5b505050506040513d601f19601f82011682018060405250810190610b6091906125d0565b6006549091506001600160a01b03166391d1485482610b7d61187f565b6040516001600160e01b031960e085901b16815260048101929092526001600160a01b03166024820152604401602060405180830381865afa158015610bc7573d6000803e3d6000fd5b505050506040513d601f19601f82011682018060405250810190610beb91906125e9565b610bf857806106a361187f565b610c0182611a04565b600754610c16906001600160a01b031661177e565b6007805473ffffffffffffffffffffffffffffffffffffffff19166001600160a01b0384169081179091556040517fae8716ba090b1cdfccf3851704c6dc4610f3be4f2f6badf912e74315e5280db490600090a25050565b6006546040805163157fd63560e21b815290516000926001600160a01b0316916355ff58d49160048083019260209291908290030181865afa158015610cb8573d6000803e3d6000fd5b505050506040513d601f19601f82011682018060405250810190610cdc91906125d0565b6006549091506001600160a01b03166391d1485482610cf961187f565b6040516001600160e01b031960e085901b16815260048101929092526001600160a01b03166024820152604401602060405180830381865afa158015610d43573d6000803e3d6000fd5b505050506040513d601f19601f82011682018060405250810190610d6791906125e9565b610d7457806106a361187f565b610d7d82611afa565b5050565b600061053582611bb5565b60006060610d9b6102f261187f565b610dd1576040517fa543f5f000000000000000000000000000000000000000000000000000000000815260040160405180910390fd5b60006060856001600160a01b031685604051610ded919061260b565b6000604051808303816000865af19150503d8060008114610e2a576040519150601f19603f3d011682016040523d82523d6000602084013e610e2f565b606091505b50909450925050505b9250929050565b6006546040805163157fd63560e21b815290516000926001600160a01b0316916355ff58d49160048083019260209291908290030181865afa158015610e89573d6000803e3d6000fd5b505050506040513d601f19601f82011682018060405250810190610ead91906125d0565b6006549091506001600160a01b03166391d1485482610eca61187f565b6040516001600160e01b031960e085901b16815260048101929092526001600160a01b03166024820152604401602060405180830381865afa158015610f14573d6000803e3d6000fd5b505050506040513d601f19601f82011682018060405250810190610f3891906125e9565b610f4557806106a361187f565b8163179dfb4560e01b7f92868a2f00000000000000000000000000000000000000000000000000000000610f7983836118d1565b8015610f8a5750610f8a83826118d1565b1561075957610f98856118f4565b600754610754906001600160a01b031661197a565b6006546001600160a01b0390811690821603610ff5576040517f92fd9a2b00000000000000000000000000000000000000000000000000000000815260040160405180910390fd5b6005546001600160a01b039081169082160361103d576040517fde582e2f00000000000000000000000000000000000000000000000000000000815260040160405180910390fd5b6007546001600160a01b0390811690821603611085576040517fa1eca9be00000000000000000000000000000000000000000000000000000000815260040160405180910390fd5b61059a8161197a565b61059a81611a04565b6006546040805163157fd63560e21b815290516000926001600160a01b0316916355ff58d49160048083019260209291908290030181865afa1580156110e1573d6000803e3d6000fd5b505050506040513d601f19601f8201168201806040525081019061110591906125d0565b6006549091506001600160a01b03166391d148548261112261187f565b6040516001600160e01b031960e085901b16815260048101929092526001600160a01b03166024820152604401602060405180830381865afa15801561116c573d6000803e3d6000fd5b505050506040513d601f19601f8201168201806040525081019061119091906125e9565b61119d57806106a361187f565b6111a682611a04565b6005546111bb906001600160a01b031661177e565b6005805473ffffffffffffffffffffffffffffffffffffffff19166001600160a01b0384169081179091556040517f224dfb9d0227c04cf6e5b57d4b0594d2962f550c547f4bf5e2578e09d6aa67ed90600090a25050565b61059a81611afa565b7ff0c57e16840df040f15088dc2f81fe391c3923bec73e23a9662efc9c229c6a00805468010000000000000000810460ff16159067ffffffffffffffff166000811580156112675750825b905060008267ffffffffffffffff1660011480156112845750303b155b905081158015611292575080155b156112c9576040517ff92ee8a900000000000000000000000000000000000000000000000000000000815260040160405180910390fd5b84547fffffffffffffffffffffffffffffffffffffffffffffffff0000000000000000166001178555831561131457845468ff00000000000000001916680100000000000000001785555b61131e8b8b611bec565b60048c9055600580546001600160a01b03808c1673ffffffffffffffffffffffffffffffffffffffff1992831617909255600680548b8416908316179055600780548a8416908316179055600880549289169290911691909117905561138389611c81565b61138c88611c81565b61139587611c81565b8b7f7a47dfa388d168c902b55f35a523c42a138df7ca4f46d65fcd085909e90473ea8a8a8a8f8f8c6040516113cf96959493929190612627565b60405180910390a2831561142257845468ff000000000000000019168555604051600181527fc7f505b2f371ae2175ee4913f4499e1f2633a7b5936321eed1cdaeb6115181d29060200160405180910390a15b505050505050505050505050565b60606000600660009054906101000a90046001600160a01b03166001600160a01b03166355ff58d46040518163ffffffff1660e01b8152600401602060405180830381865afa158015611487573d6000803e3d6000fd5b505050506040513d601f19601f820116820180604052508101906114ab91906125d0565b6006549091506001600160a01b03166391d14854826114c861187f565b6040516001600160e01b031960e085901b16815260048101929092526001600160a01b03166024820152604401602060405180830381865afa158015611512573d6000803e3d6000fd5b505050506040513d601f19601f8201168201806040525081019061153691906125e9565b61154357806106a361187f565b60006060856001600160a01b03168560405161155f919061260b565b6000604051808303816000865af19150503d806000811461159c576040519150601f19603f3d011682016040523d82523d6000602084013e6115a1565b606091505b50909250905081156115b65792506115e89050565b6040517f74373f0f00000000000000000000000000000000000000000000000000000000815260040160405180910390fd5b5092915050565b60006001600160e01b031982167f62e0a71e00000000000000000000000000000000000000000000000000000000148061053557506301ffc9a760e01b6001600160e01b0319831614610535565b600080600061164a610a90565b8051909150606060005b8281101561176c5783818151811061166e5761166e6126a5565b60200260200101516001600160a01b0316634a79d50c6040518163ffffffff1660e01b8152600401600060405180830381865afa1580156116b3573d6000803e3d6000fd5b505050506040513d6000823e601f3d908101601f191682016040526116db91908101906126bb565b80519092508790036117645787876040516020016116fa929190612732565b6040516020818303038152906040528051906020012082604051602001611721919061260b565b6040516020818303038152906040528051906020012003611764578084828151811061174f5761174f6126a5565b60200260200101519550955050505050610e38565b600101611654565b50600019976000975095505050505050565b61178e61178961187f565b611c9e565b6117ab57604051635e9f49ed60e11b815260040160405180910390fd5b6001600160a01b038116600090815260026020526040902054819060ff166117e657604051633db9141960e11b815260040160405180910390fd5b6001600160a01b038216600090815260026020526040902060010154829042811115611850576040517f08b25c9b0000000000000000000000000000000000000000000000000000000081526001600160a01b0383166004820152602481018290526044016106e3565b6001600160a01b0384166000908152600260205260409020805460ff1916905561187984611d83565b50505050565b600036601461188d33610d81565b80156118995750808210155b156118c9576000366118ab8385612758565b6118b692829061276b565b6118bf91612795565b60601c9250505090565b339250505090565b60006118dc83611f3e565b80156118ed57506118ed8383611f71565b9392505050565b6118ff61178961187f565b61191c57604051635e9f49ed60e11b815260040160405180910390fd5b600054608011611958576040517fba9e0d8300000000000000000000000000000000000000000000000000000000815260040160405180910390fd5b8061196281612010565b8161196c81612063565b611975836120b8565b505050565b61198561178961187f565b6119a257604051635e9f49ed60e11b815260040160405180910390fd5b806119c5816001600160a01b031660009081526001602052604090205460ff1690565b6119fb576040517fccfdc8e000000000000000000000000000000000000000000000000000000000815260040160405180910390fd5b610d7d826120b8565b611a0f61178961187f565b611a2c57604051635e9f49ed60e11b815260040160405180910390fd5b6001600160a01b038116600090815260026020526040902054819060ff16611a6757604051633db9141960e11b815260040160405180910390fd5b6001600160a01b038216600090815260026020526040902060010154829042811115611ad1576040517f08b25c9b0000000000000000000000000000000000000000000000000000000081526001600160a01b0383166004820152602481018290526044016106e3565b6001600160a01b0384166000908152600260205260409020805460ff191690556118798461215f565b611b0561178961187f565b611b2257604051635e9f49ed60e11b815260040160405180910390fd5b6001600160a01b038116600090815260026020526040902054819060ff16611b5d57604051633db9141960e11b815260040160405180910390fd5b6001600160a01b038216600081815260026020908152604091829020805460ff1916905590519182527f34b61b05aa2ce0966541b7b17938be27068f7483157b83dc30e4455b340bba09910160405180910390a15050565b60007f00000000000000000000000000000000000000000000000000000000000000006001600160a01b0390811690831614610535565b611bf46121fa565b600081611c0360036080612758565b811115611c3c576040517fba9e0d8300000000000000000000000000000000000000000000000000000000815260040160405180910390fd5b60005b8181101561079657848482818110611c5957611c596126a5565b9050602002016020810190611c6e9190612314565b9250611c7983611c81565b600101611c3f565b80611c8b81612010565b81611c9581612063565b6119758361215f565b6006546040805163157fd63560e21b815290516000926001600160a01b0316916391d148549183916355ff58d49160048083019260209291908290030181865afa158015611cf0573d6000803e3d6000fd5b505050506040513d601f19601f82011682018060405250810190611d1491906125d0565b6040516001600160e01b031960e084901b16815260048101919091526001600160a01b0385166024820152604401602060405180830381865afa158015611d5f573d6000803e3d6000fd5b505050506040513d601f19601f8201168201806040525081019061053591906125e9565b6000805460408051602080840282018101909252828152918391830182828015611dd657602002820191906000526020600020905b81546001600160a01b03168152600190910190602001808311611db8575b5050835193945060001993925060009150505b81811015611e3357846001600160a01b0316848281518110611e0d57611e0d6126a5565b60200260200101516001600160a01b031603611e2b57809250611e33565b600101611de9565b506000611e41600183612758565b81548110611e5157611e516126a5565b600091825260208220015481546001600160a01b03909116919084908110611e7b57611e7b6126a5565b60009182526020822001805473ffffffffffffffffffffffffffffffffffffffff19166001600160a01b039390931692909217909155805480611ec057611ec06127dd565b600082815260208082208301600019908101805473ffffffffffffffffffffffffffffffffffffffff191690559092019092556001600160a01b03861680835260019091526040808320805460ff191690555190917f0a1ee69f55c33d8467c69ca59ce2007a737a88603d75392972520bf67cb513b891a250505050565b6000611f51826301ffc9a760e01b611f71565b80156105355750611f6a826001600160e01b0319611f71565b1592915050565b6040516001600160e01b031982166024820152600090819060440160408051601f19818403018152919052602080820180517bffffffffffffffffffffffffffffffffffffffffffffffffffffffff166301ffc9a760e01b178152825192935060009283928392909183918a617530fa92503d91506000519050828015611ff9575060208210155b80156120055750600081115b979650505050505050565b6001600160a01b03811660009081526001602052604090205460ff161561059a576040517f25ce78ca00000000000000000000000000000000000000000000000000000000815260040160405180910390fd5b6001600160a01b038116158061208157506001600160a01b03811630145b1561059a576040517faaa6256400000000000000000000000000000000000000000000000000000000815260040160405180910390fd5b6040805180820190915260018152602081016120d76203f480426127f3565b90526001600160a01b03821660009081526002602090815260409091208251815460ff19169015151781559101516001909101557f3635e1281dcab7f1670ca794fca564fd39c34cd8528b10e396cdc893cbbd8acb8161213a6203f480426127f3565b604080516001600160a01b03909316835260208301919091520160405180910390a150565b60008054600180820183557f290decd9548b62a8d60345a988386fc84ba6bc95484008f6362f93160ef3e563909101805473ffffffffffffffffffffffffffffffffffffffff19166001600160a01b03851690811790915580835260208290526040808420805460ff1916909317909255905190917fead6a006345da1073a106d5f32372d2d2204f46cb0b4bca8f5ebafcbbed12b8a91a250565b7ff0c57e16840df040f15088dc2f81fe391c3923bec73e23a9662efc9c229c6a005468010000000000000000900460ff16612261576040517fd7e6bcf800000000000000000000000000000000000000000000000000000000815260040160405180910390fd5b565b60006020828403121561227557600080fd5b81356001600160e01b0319811681146118ed57600080fd5b600080602083850312156122a057600080fd5b823567ffffffffffffffff808211156122b857600080fd5b818501915085601f8301126122cc57600080fd5b8135818111156122db57600080fd5b8660208285010111156122ed57600080fd5b60209290920196919550909350505050565b6001600160a01b038116811461059a57600080fd5b60006020828403121561232657600080fd5b81356118ed816122ff565b803561233c816122ff565b919050565b6020808252825182820181905260009190848201906040850190845b818110156123825783516001600160a01b03168352928401929184019160010161235d565b50909695505050505050565b60005b838110156123a9578181015183820152602001612391565b50506000910152565b600081518084526123ca81602086016020860161238e565b601f01601f19169290920160200192915050565b6020815260006118ed60208301846123b2565b634e487b7160e01b600052604160045260246000fd5b604051601f8201601f1916810167ffffffffffffffff81118282101715612430576124306123f1565b604052919050565b600067ffffffffffffffff821115612452576124526123f1565b50601f01601f191660200190565b6000806040838503121561247357600080fd5b823561247e816122ff565b9150602083013567ffffffffffffffff81111561249a57600080fd5b8301601f810185136124ab57600080fd5b80356124be6124b982612438565b612407565b8181528660208385010111156124d357600080fd5b816020840160208301376000602083830101528093505050509250929050565b821515815260406020820152600061058960408301846123b2565b600080600080600080600060c0888a03121561252957600080fd5b87359650602088013567ffffffffffffffff8082111561254857600080fd5b818a0191508a601f83011261255c57600080fd5b81358181111561256b57600080fd5b8b60208260051b850101111561258057600080fd5b60208301985080975050505061259860408901612331565b93506125a660608901612331565b92506125b460808901612331565b91506125c260a08901612331565b905092959891949750929550565b6000602082840312156125e257600080fd5b5051919050565b6000602082840312156125fb57600080fd5b815180151581146118ed57600080fd5b6000825161261d81846020870161238e565b9190910192915050565b600060a082016001600160a01b03808a1684526020818a166020860152818916604086015260a060608601528287845260c08601905088935060005b8881101561268a578435612676816122ff565b841682529382019390820190600101612663565b50809450505080851660808501525050979650505050505050565b634e487b7160e01b600052603260045260246000fd5b6000602082840312156126cd57600080fd5b815167ffffffffffffffff8111156126e457600080fd5b8201601f810184136126f557600080fd5b80516127036124b982612438565b81815285602083850101111561271857600080fd5b61272982602083016020860161238e565b95945050505050565b8183823760009101908152919050565b634e487b7160e01b600052601160045260246000fd5b8181038181111561053557610535612742565b6000808585111561277b57600080fd5b8386111561278857600080fd5b5050820193919092039150565b7fffffffffffffffffffffffffffffffffffffffff00000000000000000000000081358181169160148510156127d55780818660140360031b1b83161692505b505092915050565b634e487b7160e01b600052603160045260246000fd5b808201808211156105355761053561274256fea2646970667358221220c27c37c40e1cbc89ad51939e6e4598a9b3732823c727c78bb640cd70cf68a59964736f6c63430008170033",
    "linkReferences": {}
  },
  "methodIdentifiers": {
    "MODULE_UPDATE_TIMELOCK()": "547501a1",
    "authorizer()": "d09edf31",
    "cancelAuthorizerUpdate(address)": "c21094ff",
    "cancelFundingManagerUpdate(address)": "505128bf",
    "cancelModuleUpdate(address)": "d2b1ad06",
    "cancelPaymentProcessorUpdate(address)": "6d304371",
    "executeAddModule(address)": "bca52266",
    "executeRemoveModule(address)": "09a445cd",
    "executeSetAuthorizer(address)": "14f460af",
    "executeSetFundingManager(address)": "c3f786fb",
    "executeSetPaymentProcessor(address)": "4e395b1c",
    "executeTx(address,bytes)": "fac5e981",
    "executeTxFromModule(address,bytes)": "685dc6b1",
    "findModuleAddressInOrchestrator(string)": "08c101b1",
    "fundingManager()": "04baed9e",
    "governor()": "0c340a24",
    "init(uint256,address[],address,address,address,address)": "de4959d5",
    "initiateAddModuleWithTimelock(address)": "220026fc",
    "initiateRemoveModuleWithTimelock(address)": "b8b03f4c",
    "initiateSetAuthorizerWithTimelock(address)": "3cc85f58",
    "initiateSetFundingManagerWithTimelock(address)": "0e68347a",
    "initiateSetPaymentProcessorWithTimelock(address)": "7590a394",
    "isModule(address)": "42f6e389",
    "isTrustedForwarder(address)": "572b6c05",
    "listModules()": "4cfa6487",
    "moduleAddressToTimelock(address)": "5c4e51f0",
    "modulesSize()": "2e3a22d3",
    "orchestratorId()": "736963a7",
    "paymentProcessor()": "f1c6bdf8",
    "supportsInterface(bytes4)": "01ffc9a7",
    "trustedForwarder()": "7da0a877",
    "version()": "54fd4d50"
  },
  "id": 167
}