{
  "abi": [
    {
      "type": "constructor",
      "inputs": [
        {
          "name": "_trustedForwarder",
          "type": "address",
          "internalType": "address"
        }
      ],
      "stateMutability": "nonpayable"
    },
    {
      "type": "function",
      "name": "MODULE_UPDATE_TIMELOCK",
      "inputs": [],
      "outputs": [
        {
          "name": "",
          "type": "uint256",
          "internalType": "uint256"
        }
      ],
      "stateMutability": "view"
    },
    {
      "type": "function",
      "name": "authorizer",
      "inputs": [],
      "outputs": [
        {
          "name": "",
          "type": "address",
          "internalType": "contract IAuthorizer_v1"
        }
      ],
      "stateMutability": "view"
    },
    {
      "type": "function",
      "name": "cancelAuthorizerUpdate",
      "inputs": [
        {
          "name": "authorizer_",
          "type": "address",
          "internalType": "contract IAuthorizer_v1"
        }
      ],
      "outputs": [],
      "stateMutability": "nonpayable"
    },
    {
      "type": "function",
      "name": "cancelFundingManagerUpdate",
      "inputs": [
        {
          "name": "fundingManager_",
          "type": "address",
          "internalType": "contract IFundingManager_v1"
        }
      ],
      "outputs": [],
      "stateMutability": "nonpayable"
    },
    {
      "type": "function",
      "name": "cancelModuleUpdate",
      "inputs": [
        {
          "name": "module_",
          "type": "address",
          "internalType": "address"
        }
      ],
      "outputs": [],
      "stateMutability": "nonpayable"
    },
    {
      "type": "function",
      "name": "cancelPaymentProcessorUpdate",
      "inputs": [
        {
          "name": "paymentProcessor_",
          "type": "address",
          "internalType": "contract IPaymentProcessor_v1"
        }
      ],
      "outputs": [],
      "stateMutability": "nonpayable"
    },
    {
      "type": "function",
      "name": "executeAddModule",
      "inputs": [
        {
          "name": "module_",
          "type": "address",
          "internalType": "address"
        }
      ],
      "outputs": [],
      "stateMutability": "nonpayable"
    },
    {
      "type": "function",
      "name": "executeRemoveModule",
      "inputs": [
        {
          "name": "module_",
          "type": "address",
          "internalType": "address"
        }
      ],
      "outputs": [],
      "stateMutability": "nonpayable"
    },
    {
      "type": "function",
      "name": "executeSetAuthorizer",
      "inputs": [
        {
          "name": "authorizer_",
          "type": "address",
          "internalType": "contract IAuthorizer_v1"
        }
      ],
      "outputs": [],
      "stateMutability": "nonpayable"
    },
    {
      "type": "function",
      "name": "executeSetFundingManager",
      "inputs": [
        {
          "name": "fundingManager_",
          "type": "address",
          "internalType": "contract IFundingManager_v1"
        }
      ],
      "outputs": [],
      "stateMutability": "nonpayable"
    },
    {
      "type": "function",
      "name": "executeSetPaymentProcessor",
      "inputs": [
        {
          "name": "paymentProcessor_",
          "type": "address",
          "internalType": "contract IPaymentProcessor_v1"
        }
      ],
      "outputs": [],
      "stateMutability": "nonpayable"
    },
    {
      "type": "function",
      "name": "executeTx",
      "inputs": [
        {
          "name": "target",
          "type": "address",
          "internalType": "address"
        },
        {
          "name": "data",
          "type": "bytes",
          "internalType": "bytes"
        }
      ],
      "outputs": [
        {
          "name": "",
          "type": "bytes",
          "internalType": "bytes"
        }
      ],
      "stateMutability": "nonpayable"
    },
    {
      "type": "function",
      "name": "executeTxFromModule",
      "inputs": [
        {
          "name": "to",
          "type": "address",
          "internalType": "address"
        },
        {
          "name": "data",
          "type": "bytes",
          "internalType": "bytes"
        }
      ],
      "outputs": [
        {
          "name": "",
          "type": "bool",
          "internalType": "bool"
        },
        {
          "name": "",
          "type": "bytes",
          "internalType": "bytes"
        }
      ],
      "stateMutability": "nonpayable"
    },
    {
      "type": "function",
      "name": "findModuleAddressInOrchestrator",
      "inputs": [
        {
          "name": "moduleName",
          "type": "string",
          "internalType": "string"
        }
      ],
      "outputs": [
        {
          "name": "",
          "type": "address",
          "internalType": "address"
        }
      ],
      "stateMutability": "view"
    },
    {
      "type": "function",
      "name": "fundingManager",
      "inputs": [],
      "outputs": [
        {
          "name": "",
          "type": "address",
          "internalType": "contract IFundingManager_v1"
        }
      ],
      "stateMutability": "view"
    },
    {
      "type": "function",
      "name": "governor",
      "inputs": [],
      "outputs": [
        {
          "name": "",
          "type": "address",
          "internalType": "contract IGovernor_v1"
        }
      ],
      "stateMutability": "view"
    },
    {
      "type": "function",
      "name": "init",
      "inputs": [
        {
          "name": "orchestratorId_",
          "type": "uint256",
          "internalType": "uint256"
        },
        {
          "name": "moduleFactory_",
          "type": "address",
          "internalType": "address"
        },
        {
          "name": "modules",
          "type": "address[]",
          "internalType": "address[]"
        },
        {
          "name": "fundingManager_",
          "type": "address",
          "internalType": "contract IFundingManager_v1"
        },
        {
          "name": "authorizer_",
          "type": "address",
          "internalType": "contract IAuthorizer_v1"
        },
        {
          "name": "paymentProcessor_",
          "type": "address",
          "internalType": "contract IPaymentProcessor_v1"
        },
        {
          "name": "governor_",
          "type": "address",
          "internalType": "contract IGovernor_v1"
        }
      ],
      "outputs": [],
      "stateMutability": "nonpayable"
    },
    {
      "type": "function",
      "name": "initiateAddModuleWithTimelock",
      "inputs": [
        {
          "name": "module_",
          "type": "address",
          "internalType": "address"
        }
      ],
      "outputs": [],
      "stateMutability": "nonpayable"
    },
    {
      "type": "function",
      "name": "initiateRemoveModuleWithTimelock",
      "inputs": [
        {
          "name": "module_",
          "type": "address",
          "internalType": "address"
        }
      ],
      "outputs": [],
      "stateMutability": "nonpayable"
    },
    {
      "type": "function",
      "name": "initiateSetAuthorizerWithTimelock",
      "inputs": [
        {
          "name": "authorizer_",
          "type": "address",
          "internalType": "contract IAuthorizer_v1"
        }
      ],
      "outputs": [],
      "stateMutability": "nonpayable"
    },
    {
      "type": "function",
      "name": "initiateSetFundingManagerWithTimelock",
      "inputs": [
        {
          "name": "fundingManager_",
          "type": "address",
          "internalType": "contract IFundingManager_v1"
        }
      ],
      "outputs": [],
      "stateMutability": "nonpayable"
    },
    {
      "type": "function",
      "name": "initiateSetPaymentProcessorWithTimelock",
      "inputs": [
        {
          "name": "paymentProcessor_",
          "type": "address",
          "internalType": "contract IPaymentProcessor_v1"
        }
      ],
      "outputs": [],
      "stateMutability": "nonpayable"
    },
    {
      "type": "function",
      "name": "isModule",
      "inputs": [
        {
          "name": "module",
          "type": "address",
          "internalType": "address"
        }
      ],
      "outputs": [
        {
          "name": "",
          "type": "bool",
          "internalType": "bool"
        }
      ],
      "stateMutability": "view"
    },
    {
      "type": "function",
      "name": "isTrustedForwarder",
      "inputs": [
        {
          "name": "forwarder",
          "type": "address",
          "internalType": "address"
        }
      ],
      "outputs": [
        {
          "name": "",
          "type": "bool",
          "internalType": "bool"
        }
      ],
      "stateMutability": "view"
    },
    {
      "type": "function",
      "name": "listModules",
      "inputs": [],
      "outputs": [
        {
          "name": "",
          "type": "address[]",
          "internalType": "address[]"
        }
      ],
      "stateMutability": "view"
    },
    {
      "type": "function",
      "name": "moduleAddressToTimelock",
      "inputs": [
        {
          "name": "module",
          "type": "address",
          "internalType": "address"
        }
      ],
      "outputs": [
        {
          "name": "timelockActive",
          "type": "bool",
          "internalType": "bool"
        },
        {
          "name": "timelockUntil",
          "type": "uint256",
          "internalType": "uint256"
        }
      ],
      "stateMutability": "view"
    },
    {
      "type": "function",
      "name": "moduleFactory",
      "inputs": [],
      "outputs": [
        {
          "name": "",
          "type": "address",
          "internalType": "address"
        }
      ],
      "stateMutability": "view"
    },
    {
      "type": "function",
      "name": "modulesSize",
      "inputs": [],
      "outputs": [
        {
          "name": "",
          "type": "uint8",
          "internalType": "uint8"
        }
      ],
      "stateMutability": "view"
    },
    {
      "type": "function",
      "name": "orchestratorId",
      "inputs": [],
      "outputs": [
        {
          "name": "",
          "type": "uint256",
          "internalType": "uint256"
        }
      ],
      "stateMutability": "view"
    },
    {
      "type": "function",
      "name": "paymentProcessor",
      "inputs": [],
      "outputs": [
        {
          "name": "",
          "type": "address",
          "internalType": "contract IPaymentProcessor_v1"
        }
      ],
      "stateMutability": "view"
    },
    {
      "type": "function",
      "name": "supportsInterface",
      "inputs": [
        {
          "name": "interfaceId",
          "type": "bytes4",
          "internalType": "bytes4"
        }
      ],
      "outputs": [
        {
          "name": "",
          "type": "bool",
          "internalType": "bool"
        }
      ],
      "stateMutability": "view"
    },
    {
      "type": "function",
      "name": "trustedForwarder",
      "inputs": [],
      "outputs": [
        {
          "name": "",
          "type": "address",
          "internalType": "address"
        }
      ],
      "stateMutability": "view"
    },
    {
      "type": "function",
      "name": "version",
      "inputs": [],
      "outputs": [
        {
          "name": "",
          "type": "string",
          "internalType": "string"
        }
      ],
      "stateMutability": "pure"
    },
    {
      "type": "event",
      "name": "AuthorizerUpdated",
      "inputs": [
        {
          "name": "_address",
          "type": "address",
          "indexed": true,
          "internalType": "address"
        }
      ],
      "anonymous": false
    },
    {
      "type": "event",
      "name": "FundingManagerUpdated",
      "inputs": [
        {
          "name": "_address",
          "type": "address",
          "indexed": true,
          "internalType": "address"
        }
      ],
      "anonymous": false
    },
    {
      "type": "event",
      "name": "Initialized",
      "inputs": [
        {
          "name": "version",
          "type": "uint64",
          "indexed": false,
          "internalType": "uint64"
        }
      ],
      "anonymous": false
    },
    {
      "type": "event",
      "name": "ModuleAdded",
      "inputs": [
        {
          "name": "module",
          "type": "address",
          "indexed": true,
          "internalType": "address"
        }
      ],
      "anonymous": false
    },
    {
      "type": "event",
      "name": "ModuleRemoved",
      "inputs": [
        {
          "name": "module",
          "type": "address",
          "indexed": true,
          "internalType": "address"
        }
      ],
      "anonymous": false
    },
    {
      "type": "event",
      "name": "ModuleTimelockStarted",
      "inputs": [
        {
          "name": "module",
          "type": "address",
          "indexed": false,
          "internalType": "address"
        },
        {
          "name": "timelockUntil",
          "type": "uint256",
          "indexed": false,
          "internalType": "uint256"
        }
      ],
      "anonymous": false
    },
    {
      "type": "event",
      "name": "ModuleUpdateCanceled",
      "inputs": [
        {
          "name": "module",
          "type": "address",
          "indexed": false,
          "internalType": "address"
        }
      ],
      "anonymous": false
    },
    {
      "type": "event",
      "name": "OrchestratorInitialized",
      "inputs": [
        {
          "name": "orchestratorId_",
          "type": "uint256",
          "indexed": true,
          "internalType": "uint256"
        },
        {
          "name": "fundingManager",
          "type": "address",
          "indexed": false,
          "internalType": "address"
        },
        {
          "name": "authorizer",
          "type": "address",
          "indexed": false,
          "internalType": "address"
        },
        {
          "name": "paymentProcessor",
          "type": "address",
          "indexed": false,
          "internalType": "address"
        },
        {
          "name": "modules",
          "type": "address[]",
          "indexed": false,
          "internalType": "address[]"
        },
        {
          "name": "governor",
          "type": "address",
          "indexed": false,
          "internalType": "address"
        }
      ],
      "anonymous": false
    },
    {
      "type": "event",
      "name": "PaymentProcessorUpdated",
      "inputs": [
        {
          "name": "_address",
          "type": "address",
          "indexed": true,
          "internalType": "address"
        }
      ],
      "anonymous": false
    },
    {
      "type": "error",
      "name": "InvalidInitialization",
      "inputs": []
    },
    {
      "type": "error",
      "name": "ModuleManagerBase__CallerNotAuthorized",
      "inputs": []
    },
    {
      "type": "error",
      "name": "ModuleManagerBase__InvalidModuleAddress",
      "inputs": []
    },
    {
      "type": "error",
      "name": "ModuleManagerBase__IsModule",
      "inputs": []
    },
    {
      "type": "error",
      "name": "ModuleManagerBase__IsNotModule",
      "inputs": []
    },
    {
      "type": "error",
      "name": "ModuleManagerBase__ModuleAmountOverLimits",
      "inputs": []
    },
    {
      "type": "error",
      "name": "ModuleManagerBase__ModuleFactoryInvalid",
      "inputs": []
    },
    {
      "type": "error",
      "name": "ModuleManagerBase__ModuleNotRegistered",
      "inputs": []
    },
    {
      "type": "error",
      "name": "ModuleManagerBase__ModuleUpdateAlreadyStarted",
      "inputs": []
    },
    {
      "type": "error",
      "name": "ModuleManagerBase__ModuleUpdateTimelockStillActive",
      "inputs": [
        {
          "name": "_module",
          "type": "address",
          "internalType": "address"
        },
        {
          "name": "_timelockUntil",
          "type": "uint256",
          "internalType": "uint256"
        }
      ]
    },
    {
      "type": "error",
      "name": "ModuleManagerBase__OnlyCallableByModule",
      "inputs": []
    },
    {
      "type": "error",
      "name": "NotInitializing",
      "inputs": []
    },
    {
      "type": "error",
      "name": "Orchestrator__CallerNotAuthorized",
      "inputs": [
        {
          "name": "role",
          "type": "bytes32",
          "internalType": "bytes32"
        },
        {
          "name": "caller",
          "type": "address",
          "internalType": "address"
        }
      ]
    },
    {
      "type": "error",
      "name": "Orchestrator__DependencyInjection__ModuleNotUsedInOrchestrator",
      "inputs": []
    },
    {
      "type": "error",
      "name": "Orchestrator__ExecuteTxFailed",
      "inputs": []
    },
    {
      "type": "error",
      "name": "Orchestrator__InvalidModuleType",
      "inputs": [
        {
          "name": "module",
          "type": "address",
          "internalType": "address"
        }
      ]
    },
    {
      "type": "error",
      "name": "Orchestrator__InvalidRemovalOfAuthorizer",
      "inputs": []
    },
    {
      "type": "error",
      "name": "Orchestrator__InvalidRemovalOfFundingManager",
      "inputs": []
    },
    {
      "type": "error",
      "name": "Orchestrator__InvalidRemovalOfPaymentProcessor",
      "inputs": []
    },
    {
      "type": "error",
      "name": "Orchestrator__MismatchedTokenForFundingManager",
      "inputs": [
        {
          "name": "currentToken",
          "type": "address",
          "internalType": "address"
        },
        {
          "name": "newToken",
          "type": "address",
          "internalType": "address"
        }
      ]
    }
  ],
  "bytecode": {
    "object": "0x60a06040523480156200001157600080fd5b5060405162002bbc38038062002bbc833981016040819052620000349162000106565b6001600160a01b0381166080526200004b62000052565b5062000138565b7ff0c57e16840df040f15088dc2f81fe391c3923bec73e23a9662efc9c229c6a00805468010000000000000000900460ff1615620000a35760405163f92ee8a960e01b815260040160405180910390fd5b80546001600160401b0390811614620001035780546001600160401b0319166001600160401b0390811782556040519081527fc7f505b2f371ae2175ee4913f4499e1f2633a7b5936321eed1cdaeb6115181d29060200160405180910390a15b50565b6000602082840312156200011957600080fd5b81516001600160a01b03811681146200013157600080fd5b9392505050565b608051612a616200015b6000396000818161042a0152611d450152612a616000f3fe608060405234801561001057600080fd5b50600436106101fb5760003560e01c8063572b6c051161011a578063b8b03f4c116100ad578063d09edf311161007c578063d09edf311461049a578063d2b1ad06146104ad578063e7623d3b146104c0578063f1c6bdf8146104d3578063fac5e981146104e657600080fd5b8063b8b03f4c14610461578063bca5226614610474578063c21094ff14610343578063c3f786fb1461048757600080fd5b8063736963a7116100e9578063736963a71461040c5780637590a394146104155780637da0a877146104285780638991255b1461044e57600080fd5b8063572b6c05146103945780635c4e51f0146103a7578063685dc6b1146103eb5780636d3043711461034357600080fd5b80632e3a22d3116101925780634e395b1c116101615780634e395b1c14610330578063505128bf14610343578063547501a11461035657806354fd4d501461036e57600080fd5b80632e3a22d3146102c75780633cc85f58146102dc57806342f6e389146102ef5780634cfa64871461031b57600080fd5b80630c340a24116101ce5780630c340a241461027b5780630e68347a1461028e57806314f460af146102a1578063220026fc146102b457600080fd5b806301ffc9a71461020057806304baed9e1461022857806308c101b11461025357806309a445cd14610266575b600080fd5b61021361020e36600461246c565b6104f9565b60405190151581526020015b60405180910390f35b60375461023b906001600160a01b031681565b6040516001600160a01b03909116815260200161021f565b61023b610261366004612496565b610524565b61027961027436600461251d565b610561565b005b603a5461023b906001600160a01b031681565b61027961029c36600461251d565b6105fd565b6102796102af36600461251d565b61095f565b6102796102c236600461251d565b610b7d565b60015460405160ff909116815260200161021f565b6102796102ea36600461251d565b610b89565b6102136102fd36600461251d565b6001600160a01b031660009081526002602052604090205460ff1690565b610323610cc0565b60405161021f919061254a565b61027961033e36600461251d565b610d22565b61027961035136600461251d565b610e91565b6103606203f48081565b60405190815260200161021f565b6040805180820190915260018152603160f81b60208201525b60405161021f91906125e7565b6102136103a236600461251d565b610fa0565b6103d46103b536600461251d565b6003602052600090815260409020805460019091015460ff9091169082565b60408051921515835260208301919091520161021f565b6103fe6103f9366004612669565b610fab565b60405161021f9291906126fc565b61036060365481565b61027961042336600461251d565b611045565b7f000000000000000000000000000000000000000000000000000000000000000061023b565b60005461023b906001600160a01b031681565b61027961046f36600461251d565b61117c565b61027961048236600461251d565b611214565b61027961049536600461251d565b61121d565b60385461023b906001600160a01b031681565b6102796104bb36600461251d565b61138c565b6102796104ce366004612717565b611395565b60395461023b906001600160a01b031681565b6103876104f4366004612669565b6115a1565b60006001600160e01b0319821663c75f275d60e01b148061051e575061051e82611747565b92915050565b6000806000610533858561177c565b91509150600019820361055957604051636fba4a1b60e01b815260040160405180910390fd5b949350505050565b60385481906001600160a01b0390811690821603610592576040516392fd9a2b60e01b815260040160405180910390fd5b6037546001600160a01b03908116908216036105c15760405163de582e2f60e01b815260040160405180910390fd5b6039546001600160a01b03908116908216036105f0576040516350f654df60e11b815260040160405180910390fd5b6105f9826118bd565b5050565b603854604080516359f6791b60e11b815290516000926001600160a01b03169163b3ecf2369160048083019260209291908290030181865afa158015610647573d6000803e3d6000fd5b505050506040513d601f19601f8201168201806040525081019061066b91906127eb565b6038549091506001600160a01b03166391d148548261068861199f565b6040516001600160e01b031960e085901b16815260048101929092526001600160a01b03166024820152604401602060405180830381865afa1580156106d2573d6000803e3d6000fd5b505050506040513d601f19601f820116820180604052508101906106f69190612804565b610733578061070361199f565b6040516325f3b92760e01b815260048101929092526001600160a01b031660248201526044015b60405180910390fd5b8163899090df60e01b61074682826119f1565b836001600160a01b031663fc0c546a6040518163ffffffff1660e01b8152600401602060405180830381865afa158015610784573d6000803e3d6000fd5b505050506040513d601f19601f820116820180604052508101906107a89190612826565b6001600160a01b0316603760009054906101000a90046001600160a01b03166001600160a01b031663fc0c546a6040518163ffffffff1660e01b8152600401602060405180830381865afa158015610804573d6000803e3d6000fd5b505050506040513d601f19601f820116820180604052508101906108289190612826565b6001600160a01b03161461093b57603760009054906101000a90046001600160a01b03166001600160a01b031663fc0c546a6040518163ffffffff1660e01b8152600401602060405180830381865afa158015610889573d6000803e3d6000fd5b505050506040513d601f19601f820116820180604052508101906108ad9190612826565b846001600160a01b031663fc0c546a6040518163ffffffff1660e01b8152600401602060405180830381865afa1580156108eb573d6000803e3d6000fd5b505050506040513d601f19601f8201168201806040525081019061090f9190612826565b604051632fa8ee3f60e21b81526001600160a01b0392831660048201529116602482015260440161072a565b61094482611a44565b603754610959906001600160a01b0316611aac565b50505050565b603854604080516359f6791b60e11b815290516000926001600160a01b03169163b3ecf2369160048083019260209291908290030181865afa1580156109a9573d6000803e3d6000fd5b505050506040513d601f19601f820116820180604052508101906109cd91906127eb565b6038549091506001600160a01b03166391d14854826109ea61199f565b6040516001600160e01b031960e085901b16815260048101929092526001600160a01b03166024820152604401602060405180830381865afa158015610a34573d6000803e3d6000fd5b505050506040513d601f19601f82011682018060405250810190610a589190612804565b610a65578061070361199f565b6001600160a01b038216600090815260036020526040902054829060ff16610aa057604051633db9141960e11b815260040160405180910390fd5b6001600160a01b038316600090815260036020526040902060010154839042811115610af1576040516308b25c9b60e01b81526001600160a01b03831660048201526024810182905260440161072a565b603854610b06906001600160a01b03166118bd565b6001600160a01b0385166000908152600360205260409020805460ff19169055610b2f85611b1d565b603880546001600160a01b0319166001600160a01b0387169081179091556040517ff3f625a7d9e02778afdfdf1bea978d6565840d408866c70f5d25aadf77021d7090600090a25050505050565b610b8681611a44565b50565b603854604080516359f6791b60e11b815290516000926001600160a01b03169163b3ecf2369160048083019260209291908290030181865afa158015610bd3573d6000803e3d6000fd5b505050506040513d601f19601f82011682018060405250810190610bf791906127eb565b6038549091506001600160a01b03166391d1485482610c1461199f565b6040516001600160e01b031960e085901b16815260048101929092526001600160a01b03166024820152604401602060405180830381865afa158015610c5e573d6000803e3d6000fd5b505050506040513d601f19601f82011682018060405250810190610c829190612804565b610c8f578061070361199f565b8163aaeccc7560e01b610ca282826119f1565b610cab82611a44565b603854610959906001600160a01b0316611aac565b60606001805480602002602001604051908101604052809291908181526020018280548015610d1857602002820191906000526020600020905b81546001600160a01b03168152600190910190602001808311610cfa575b5050505050905090565b603854604080516359f6791b60e11b815290516000926001600160a01b03169163b3ecf2369160048083019260209291908290030181865afa158015610d6c573d6000803e3d6000fd5b505050506040513d601f19601f82011682018060405250810190610d9091906127eb565b6038549091506001600160a01b03166391d1485482610dad61199f565b6040516001600160e01b031960e085901b16815260048101929092526001600160a01b03166024820152604401602060405180830381865afa158015610df7573d6000803e3d6000fd5b505050506040513d601f19601f82011682018060405250810190610e1b9190612804565b610e28578061070361199f565b603954610e3d906001600160a01b03166118bd565b610e4682611ba9565b603980546001600160a01b0319166001600160a01b0384169081179091556040517fae8716ba090b1cdfccf3851704c6dc4610f3be4f2f6badf912e74315e5280db490600090a25050565b603854604080516359f6791b60e11b815290516000926001600160a01b03169163b3ecf2369160048083019260209291908290030181865afa158015610edb573d6000803e3d6000fd5b505050506040513d601f19601f82011682018060405250810190610eff91906127eb565b6038549091506001600160a01b03166391d1485482610f1c61199f565b6040516001600160e01b031960e085901b16815260048101929092526001600160a01b03166024820152604401602060405180830381865afa158015610f66573d6000803e3d6000fd5b505050506040513d601f19601f82011682018060405250810190610f8a9190612804565b610f97578061070361199f565b6105f982611c86565b600061051e82611d41565b60006060610fba6102fd61199f565b610fd757604051630a543f5f60e41b815260040160405180910390fd5b60006060856001600160a01b031685604051610ff39190612843565b6000604051808303816000865af19150503d8060008114611030576040519150601f19603f3d011682016040523d82523d6000602084013e611035565b606091505b50909450925050505b9250929050565b603854604080516359f6791b60e11b815290516000926001600160a01b03169163b3ecf2369160048083019260209291908290030181865afa15801561108f573d6000803e3d6000fd5b505050506040513d601f19601f820116820180604052508101906110b391906127eb565b6038549091506001600160a01b03166391d14854826110d061199f565b6040516001600160e01b031960e085901b16815260048101929092526001600160a01b03166024820152604401602060405180830381865afa15801561111a573d6000803e3d6000fd5b505050506040513d601f19601f8201168201806040525081019061113e9190612804565b61114b578061070361199f565b81633767ad8760e21b61115e82826119f1565b61116782611a44565b603954610959906001600160a01b0316611aac565b60385481906001600160a01b03908116908216036111ad576040516392fd9a2b60e01b815260040160405180910390fd5b6037546001600160a01b03908116908216036111dc5760405163de582e2f60e01b815260040160405180910390fd5b6039546001600160a01b039081169082160361120b576040516350f654df60e11b815260040160405180910390fd5b6105f982611aac565b610b8681611ba9565b603854604080516359f6791b60e11b815290516000926001600160a01b03169163b3ecf2369160048083019260209291908290030181865afa158015611267573d6000803e3d6000fd5b505050506040513d601f19601f8201168201806040525081019061128b91906127eb565b6038549091506001600160a01b03166391d14854826112a861199f565b6040516001600160e01b031960e085901b16815260048101929092526001600160a01b03166024820152604401602060405180830381865afa1580156112f2573d6000803e3d6000fd5b505050506040513d601f19601f820116820180604052508101906113169190612804565b611323578061070361199f565b603754611338906001600160a01b03166118bd565b61134182611ba9565b603780546001600160a01b0319166001600160a01b0384169081179091556040517f224dfb9d0227c04cf6e5b57d4b0594d2962f550c547f4bf5e2578e09d6aa67ed90600090a25050565b610b8681611c86565b7ff0c57e16840df040f15088dc2f81fe391c3923bec73e23a9662efc9c229c6a00805468010000000000000000810460ff16159067ffffffffffffffff166000811580156113e05750825b905060008267ffffffffffffffff1660011480156113fd5750303b155b90508115801561140b575080155b156114295760405163f92ee8a960e01b815260040160405180910390fd5b845467ffffffffffffffff19166001178555831561145d57845468ff00000000000000001916680100000000000000001785555b6114688c8c8c611d78565b60368d9055603780546001600160a01b03808c166001600160a01b031992831617909255603880548b8416908316179055603980548a8416908316179055603a8054928916929091169190911790556114c88963899090df60e01b6119f1565b6114d189611e3c565b6114e28863aaeccc7560e01b6119f1565b6114eb88611e3c565b6114fc87633767ad8760e21b6119f1565b61150587611e3c565b8c7f7a47dfa388d168c902b55f35a523c42a138df7ca4f46d65fcd085909e90473ea8a8a8a8f8f8c60405161153f9695949392919061285f565b60405180910390a2831561159257845468ff000000000000000019168555604051600181527fc7f505b2f371ae2175ee4913f4499e1f2633a7b5936321eed1cdaeb6115181d29060200160405180910390a15b50505050505050505050505050565b60606000603860009054906101000a90046001600160a01b03166001600160a01b031663b3ecf2366040518163ffffffff1660e01b8152600401602060405180830381865afa1580156115f8573d6000803e3d6000fd5b505050506040513d601f19601f8201168201806040525081019061161c91906127eb565b6038549091506001600160a01b03166391d148548261163961199f565b6040516001600160e01b031960e085901b16815260048101929092526001600160a01b03166024820152604401602060405180830381865afa158015611683573d6000803e3d6000fd5b505050506040513d601f19601f820116820180604052508101906116a79190612804565b6116b4578061070361199f565b60006060856001600160a01b0316856040516116d09190612843565b6000604051808303816000865af19150503d806000811461170d576040519150601f19603f3d011682016040523d82523d6000602084013e611712565b606091505b50909250905081156117275792506117409050565b6040516374373f0f60e01b815260040160405180910390fd5b5092915050565b60006001600160e01b03198216633170538f60e11b148061051e57506301ffc9a760e01b6001600160e01b031983161461051e565b6000806000611789610cc0565b8051909150606060005b828110156118ab578381815181106117ad576117ad6128dd565b60200260200101516001600160a01b0316634a79d50c6040518163ffffffff1660e01b8152600401600060405180830381865afa1580156117f2573d6000803e3d6000fd5b505050506040513d6000823e601f3d908101601f1916820160405261181a91908101906128f3565b80519092508790036118a357878760405160200161183992919061296a565b60405160208183030381529060405280519060200120826040516020016118609190612843565b60405160208183030381529060405280519060200120036118a3578084828151811061188e5761188e6128dd565b6020026020010151955095505050505061103e565b600101611793565b50600019976000975095505050505050565b6118cd6118c861199f565b611e59565b6118ea57604051635e9f49ed60e11b815260040160405180910390fd5b6001600160a01b038116600090815260036020526040902054819060ff1661192557604051633db9141960e11b815260040160405180910390fd5b6001600160a01b038216600090815260036020526040902060010154829042811115611976576040516308b25c9b60e01b81526001600160a01b03831660048201526024810182905260440161072a565b6001600160a01b0384166000908152600360205260409020805460ff1916905561095984611f3e565b60003660146119ad33610fa0565b80156119b95750808210155b156119e9576000366119cb8385612990565b6119d69282906129a3565b6119df916129cd565b60601c9250505090565b339250505090565b63179dfb4560e01b611a0383826120ec565b1580611a165750611a1483836120ec565b155b15611a3f57604051630792fedb60e11b81526001600160a01b038416600482015260240161072a565b505050565b611a4f6118c861199f565b611a6c57604051635e9f49ed60e11b815260040160405180910390fd5b600154608011611a8f5760405163ba9e0d8360e01b815260040160405180910390fd5b80611a998161210f565b81611aa381612149565b611a3f836122a3565b611ab76118c861199f565b611ad457604051635e9f49ed60e11b815260040160405180910390fd5b80611af7816001600160a01b031660009081526002602052604090205460ff1690565b611b1457604051630667ee4760e51b815260040160405180910390fd5b6105f9826122a3565b6001805480820182557fb10e2d527612073b26eecdfd717e6a320cf44b4afac2b0732d9fcbe2b7fa0cf60180546001600160a01b0319166001600160a01b038416908117909155600081815260026020526040808220805460ff1916909417909355915190917fead6a006345da1073a106d5f32372d2d2204f46cb0b4bca8f5ebafcbbed12b8a91a250565b611bb46118c861199f565b611bd157604051635e9f49ed60e11b815260040160405180910390fd5b6001600160a01b038116600090815260036020526040902054819060ff16611c0c57604051633db9141960e11b815260040160405180910390fd5b6001600160a01b038216600090815260036020526040902060010154829042811115611c5d576040516308b25c9b60e01b81526001600160a01b03831660048201526024810182905260440161072a565b6001600160a01b0384166000908152600360205260409020805460ff1916905561095984611b1d565b611c916118c861199f565b611cae57604051635e9f49ed60e11b815260040160405180910390fd5b6001600160a01b038116600090815260036020526040902054819060ff16611ce957604051633db9141960e11b815260040160405180910390fd5b6001600160a01b038216600081815260036020908152604091829020805460ff1916905590519182527f34b61b05aa2ce0966541b7b17938be27068f7483157b83dc30e4455b340bba09910160405180910390a15050565b60007f00000000000000000000000000000000000000000000000000000000000000006001600160a01b039081169083161461051e565b611d8061234a565b6001600160a01b038316611da7576040516303c7e09d60e61b815260040160405180910390fd5b600080546001600160a01b0319166001600160a01b03851617815581611dcf60036080612990565b811115611def5760405163ba9e0d8360e01b815260040160405180910390fd5b60005b81811015611e3457848482818110611e0c57611e0c6128dd565b9050602002016020810190611e21919061251d565b9250611e2c83611e3c565b600101611df2565b505050505050565b80611e468161210f565b81611e5081612149565b611a3f83611b1d565b603854604080516359f6791b60e11b815290516000926001600160a01b0316916391d1485491839163b3ecf2369160048083019260209291908290030181865afa158015611eab573d6000803e3d6000fd5b505050506040513d601f19601f82011682018060405250810190611ecf91906127eb565b6040516001600160e01b031960e084901b16815260048101919091526001600160a01b0385166024820152604401602060405180830381865afa158015611f1a573d6000803e3d6000fd5b505050506040513d601f19601f8201168201806040525081019061051e9190612804565b60006001805480602002602001604051908101604052809291908181526020018280548015611f9657602002820191906000526020600020905b81546001600160a01b03168152600190910190602001808311611f78575b5050835193945060001993925060009150505b81811015611ff357846001600160a01b0316848281518110611fcd57611fcd6128dd565b60200260200101516001600160a01b031603611feb57809250611ff3565b600101611fa9565b5060016120008183612990565b81548110612010576120106128dd565b600091825260209091200154600180546001600160a01b03909216918490811061203c5761203c6128dd565b9060005260206000200160006101000a8154816001600160a01b0302191690836001600160a01b03160217905550600180548061207b5761207b612a02565b60008281526020808220830160001990810180546001600160a01b03191690559092019092556001600160a01b03861680835260029091526040808320805460ff191690555190917f0a1ee69f55c33d8467c69ca59ce2007a737a88603d75392972520bf67cb513b891a250505050565b60006120f78361239a565b8015612108575061210883836123cd565b9392505050565b6001600160a01b03811660009081526002602052604090205460ff1615610b86576040516312e73c6560e11b815260040160405180910390fd5b6001600160a01b0381163b158061216757506001600160a01b038116155b8061217a57506001600160a01b03811630145b806121f157506040516301ffc9a760e01b815263179dfb4560e01b60048201526001600160a01b038216906301ffc9a790602401602060405180830381865afa1580156121cb573d6000803e3d6000fd5b505050506040513d601f19601f820116820180604052508101906121ef9190612804565b155b1561220f57604051632aa9895960e21b815260040160405180910390fd5b600054604051630bcaa86d60e11b81526001600160a01b0383811660048301523092169063179550da90602401602060405180830381865afa158015612259573d6000803e3d6000fd5b505050506040513d601f19601f8201168201806040525081019061227d9190612826565b6001600160a01b031614610b865760405162c855c360e41b815260040160405180910390fd5b6040805180820190915260018152602081016122c26203f48042612a18565b90526001600160a01b03821660009081526003602090815260409091208251815460ff19169015151781559101516001909101557f3635e1281dcab7f1670ca794fca564fd39c34cd8528b10e396cdc893cbbd8acb816123256203f48042612a18565b604080516001600160a01b03909316835260208301919091520160405180910390a150565b7ff0c57e16840df040f15088dc2f81fe391c3923bec73e23a9662efc9c229c6a005468010000000000000000900460ff1661239857604051631afcd79f60e31b815260040160405180910390fd5b565b60006123ad826301ffc9a760e01b6123cd565b801561051e57506123c6826001600160e01b03196123cd565b1592915050565b6040516001600160e01b031982166024820152600090819060440160408051601f19818403018152919052602080820180517bffffffffffffffffffffffffffffffffffffffffffffffffffffffff166301ffc9a760e01b178152825192935060009283928392909183918a617530fa92503d91506000519050828015612455575060208210155b80156124615750600081115b979650505050505050565b60006020828403121561247e57600080fd5b81356001600160e01b03198116811461210857600080fd5b600080602083850312156124a957600080fd5b823567ffffffffffffffff808211156124c157600080fd5b818501915085601f8301126124d557600080fd5b8135818111156124e457600080fd5b8660208285010111156124f657600080fd5b60209290920196919550909350505050565b6001600160a01b0381168114610b8657600080fd5b60006020828403121561252f57600080fd5b813561210881612508565b803561254581612508565b919050565b6020808252825182820181905260009190848201906040850190845b8181101561258b5783516001600160a01b031683529284019291840191600101612566565b50909695505050505050565b60005b838110156125b257818101518382015260200161259a565b50506000910152565b600081518084526125d3816020860160208601612597565b601f01601f19169290920160200192915050565b60208152600061210860208301846125bb565b634e487b7160e01b600052604160045260246000fd5b604051601f8201601f1916810167ffffffffffffffff81118282101715612639576126396125fa565b604052919050565b600067ffffffffffffffff82111561265b5761265b6125fa565b50601f01601f191660200190565b6000806040838503121561267c57600080fd5b823561268781612508565b9150602083013567ffffffffffffffff8111156126a357600080fd5b8301601f810185136126b457600080fd5b80356126c76126c282612641565b612610565b8181528660208385010111156126dc57600080fd5b816020840160208301376000602083830101528093505050509250929050565b821515815260406020820152600061055960408301846125bb565b60008060008060008060008060e0898b03121561273357600080fd5b88359750602089013561274581612508565b9650604089013567ffffffffffffffff8082111561276257600080fd5b818b0191508b601f83011261277657600080fd5b81358181111561278557600080fd5b8c60208260051b850101111561279a57600080fd5b6020830198508097505050506127b260608a0161253a565b93506127c060808a0161253a565b92506127ce60a08a0161253a565b91506127dc60c08a0161253a565b90509295985092959890939650565b6000602082840312156127fd57600080fd5b5051919050565b60006020828403121561281657600080fd5b8151801515811461210857600080fd5b60006020828403121561283857600080fd5b815161210881612508565b60008251612855818460208701612597565b9190910192915050565b600060a082016001600160a01b03808a1684526020818a166020860152818916604086015260a060608601528287845260c08601905088935060005b888110156128c25784356128ae81612508565b84168252938201939082019060010161289b565b50809450505080851660808501525050979650505050505050565b634e487b7160e01b600052603260045260246000fd5b60006020828403121561290557600080fd5b815167ffffffffffffffff81111561291c57600080fd5b8201601f8101841361292d57600080fd5b805161293b6126c282612641565b81815285602083850101111561295057600080fd5b612961826020830160208601612597565b95945050505050565b8183823760009101908152919050565b634e487b7160e01b600052601160045260246000fd5b8181038181111561051e5761051e61297a565b600080858511156129b357600080fd5b838611156129c057600080fd5b5050820193919092039150565b6bffffffffffffffffffffffff1981358181169160148510156129fa5780818660140360031b1b83161692505b505092915050565b634e487b7160e01b600052603160045260246000fd5b8082018082111561051e5761051e61297a56fea26469706673582212206234a0c2ee4d0dbb4ffca3464199822614c6b048467f4fca4f690d3d77c8caec64736f6c63430008170033",
    "linkReferences": {}
  },
  "methodIdentifiers": {
    "MODULE_UPDATE_TIMELOCK()": "547501a1",
    "authorizer()": "d09edf31",
    "cancelAuthorizerUpdate(address)": "c21094ff",
    "cancelFundingManagerUpdate(address)": "505128bf",
    "cancelModuleUpdate(address)": "d2b1ad06",
    "cancelPaymentProcessorUpdate(address)": "6d304371",
    "executeAddModule(address)": "bca52266",
    "executeRemoveModule(address)": "09a445cd",
    "executeSetAuthorizer(address)": "14f460af",
    "executeSetFundingManager(address)": "c3f786fb",
    "executeSetPaymentProcessor(address)": "4e395b1c",
    "executeTx(address,bytes)": "fac5e981",
    "executeTxFromModule(address,bytes)": "685dc6b1",
    "findModuleAddressInOrchestrator(string)": "08c101b1",
    "fundingManager()": "04baed9e",
    "governor()": "0c340a24",
    "init(uint256,address,address[],address,address,address,address)": "e7623d3b",
    "initiateAddModuleWithTimelock(address)": "220026fc",
    "initiateRemoveModuleWithTimelock(address)": "b8b03f4c",
    "initiateSetAuthorizerWithTimelock(address)": "3cc85f58",
    "initiateSetFundingManagerWithTimelock(address)": "0e68347a",
    "initiateSetPaymentProcessorWithTimelock(address)": "7590a394",
    "isModule(address)": "42f6e389",
    "isTrustedForwarder(address)": "572b6c05",
    "listModules()": "4cfa6487",
    "moduleAddressToTimelock(address)": "5c4e51f0",
    "moduleFactory()": "8991255b",
    "modulesSize()": "2e3a22d3",
    "orchestratorId()": "736963a7",
    "paymentProcessor()": "f1c6bdf8",
    "supportsInterface(bytes4)": "01ffc9a7",
    "trustedForwarder()": "7da0a877",
    "version()": "54fd4d50"
  },
  "id": 166
}