{
  "abi": [
    {
      "type": "constructor",
      "inputs": [],
      "stateMutability": "nonpayable"
    },
    {
      "type": "function",
      "name": "__ERC20Issuance_init",
      "inputs": [
        {
          "name": "name_",
          "type": "string",
          "internalType": "string"
        },
        {
          "name": "symbol_",
          "type": "string",
          "internalType": "string"
        },
        {
          "name": "decimals_",
          "type": "uint8",
          "internalType": "uint8"
        },
        {
          "name": "maxSupply_",
          "type": "uint256",
          "internalType": "uint256"
        }
      ],
      "outputs": [],
      "stateMutability": "nonpayable"
    },
    {
      "type": "function",
      "name": "allowance",
      "inputs": [
        {
          "name": "owner",
          "type": "address",
          "internalType": "address"
        },
        {
          "name": "spender",
          "type": "address",
          "internalType": "address"
        }
      ],
      "outputs": [
        {
          "name": "",
          "type": "uint256",
          "internalType": "uint256"
        }
      ],
      "stateMutability": "view"
    },
    {
      "type": "function",
      "name": "allowedMinters",
      "inputs": [
        {
          "name": "",
          "type": "address",
          "internalType": "address"
        }
      ],
      "outputs": [
        {
          "name": "",
          "type": "bool",
          "internalType": "bool"
        }
      ],
      "stateMutability": "view"
    },
    {
      "type": "function",
      "name": "approve",
      "inputs": [
        {
          "name": "spender",
          "type": "address",
          "internalType": "address"
        },
        {
          "name": "value",
          "type": "uint256",
          "internalType": "uint256"
        }
      ],
      "outputs": [
        {
          "name": "",
          "type": "bool",
          "internalType": "bool"
        }
      ],
      "stateMutability": "nonpayable"
    },
    {
      "type": "function",
      "name": "balanceOf",
      "inputs": [
        {
          "name": "account",
          "type": "address",
          "internalType": "address"
        }
      ],
      "outputs": [
        {
          "name": "",
          "type": "uint256",
          "internalType": "uint256"
        }
      ],
      "stateMutability": "view"
    },
    {
      "type": "function",
      "name": "burn",
      "inputs": [
        {
          "name": "_from",
          "type": "address",
          "internalType": "address"
        },
        {
          "name": "_amount",
          "type": "uint256",
          "internalType": "uint256"
        }
      ],
      "outputs": [],
      "stateMutability": "nonpayable"
    },
    {
      "type": "function",
      "name": "cap",
      "inputs": [],
      "outputs": [
        {
          "name": "",
          "type": "uint256",
          "internalType": "uint256"
        }
      ],
      "stateMutability": "view"
    },
    {
      "type": "function",
      "name": "decimals",
      "inputs": [],
      "outputs": [
        {
          "name": "",
          "type": "uint8",
          "internalType": "uint8"
        }
      ],
      "stateMutability": "view"
    },
    {
      "type": "function",
      "name": "mint",
      "inputs": [
        {
          "name": "_to",
          "type": "address",
          "internalType": "address"
        },
        {
          "name": "_amount",
          "type": "uint256",
          "internalType": "uint256"
        }
      ],
      "outputs": [],
      "stateMutability": "nonpayable"
    },
    {
      "type": "function",
      "name": "name",
      "inputs": [],
      "outputs": [
        {
          "name": "",
          "type": "string",
          "internalType": "string"
        }
      ],
      "stateMutability": "view"
    },
    {
      "type": "function",
      "name": "owner",
      "inputs": [],
      "outputs": [
        {
          "name": "",
          "type": "address",
          "internalType": "address"
        }
      ],
      "stateMutability": "view"
    },
    {
      "type": "function",
      "name": "renounceOwnership",
      "inputs": [],
      "outputs": [],
      "stateMutability": "nonpayable"
    },
    {
      "type": "function",
      "name": "setMinter",
      "inputs": [
        {
          "name": "_minter",
          "type": "address",
          "internalType": "address"
        },
        {
          "name": "_allowed",
          "type": "bool",
          "internalType": "bool"
        }
      ],
      "outputs": [],
      "stateMutability": "nonpayable"
    },
    {
      "type": "function",
      "name": "spendAllowance",
      "inputs": [
        {
          "name": "_from",
          "type": "address",
          "internalType": "address"
        },
        {
          "name": "_spender",
          "type": "address",
          "internalType": "address"
        },
        {
          "name": "_amount",
          "type": "uint256",
          "internalType": "uint256"
        }
      ],
      "outputs": [],
      "stateMutability": "nonpayable"
    },
    {
      "type": "function",
      "name": "symbol",
      "inputs": [],
      "outputs": [
        {
          "name": "",
          "type": "string",
          "internalType": "string"
        }
      ],
      "stateMutability": "view"
    },
    {
      "type": "function",
      "name": "totalSupply",
      "inputs": [],
      "outputs": [
        {
          "name": "",
          "type": "uint256",
          "internalType": "uint256"
        }
      ],
      "stateMutability": "view"
    },
    {
      "type": "function",
      "name": "transfer",
      "inputs": [
        {
          "name": "to",
          "type": "address",
          "internalType": "address"
        },
        {
          "name": "value",
          "type": "uint256",
          "internalType": "uint256"
        }
      ],
      "outputs": [
        {
          "name": "",
          "type": "bool",
          "internalType": "bool"
        }
      ],
      "stateMutability": "nonpayable"
    },
    {
      "type": "function",
      "name": "transferFrom",
      "inputs": [
        {
          "name": "from",
          "type": "address",
          "internalType": "address"
        },
        {
          "name": "to",
          "type": "address",
          "internalType": "address"
        },
        {
          "name": "value",
          "type": "uint256",
          "internalType": "uint256"
        }
      ],
      "outputs": [
        {
          "name": "",
          "type": "bool",
          "internalType": "bool"
        }
      ],
      "stateMutability": "nonpayable"
    },
    {
      "type": "function",
      "name": "transferOwnership",
      "inputs": [
        {
          "name": "newOwner",
          "type": "address",
          "internalType": "address"
        }
      ],
      "outputs": [],
      "stateMutability": "nonpayable"
    },
    {
      "type": "event",
      "name": "Approval",
      "inputs": [
        {
          "name": "owner",
          "type": "address",
          "indexed": true,
          "internalType": "address"
        },
        {
          "name": "spender",
          "type": "address",
          "indexed": true,
          "internalType": "address"
        },
        {
          "name": "value",
          "type": "uint256",
          "indexed": false,
          "internalType": "uint256"
        }
      ],
      "anonymous": false
    },
    {
      "type": "event",
      "name": "Initialized",
      "inputs": [
        {
          "name": "version",
          "type": "uint64",
          "indexed": false,
          "internalType": "uint64"
        }
      ],
      "anonymous": false
    },
    {
      "type": "event",
      "name": "MinterSet",
      "inputs": [
        {
          "name": "minter",
          "type": "address",
          "indexed": true,
          "internalType": "address"
        },
        {
          "name": "allowed",
          "type": "bool",
          "indexed": false,
          "internalType": "bool"
        }
      ],
      "anonymous": false
    },
    {
      "type": "event",
      "name": "OwnershipTransferred",
      "inputs": [
        {
          "name": "previousOwner",
          "type": "address",
          "indexed": true,
          "internalType": "address"
        },
        {
          "name": "newOwner",
          "type": "address",
          "indexed": true,
          "internalType": "address"
        }
      ],
      "anonymous": false
    },
    {
      "type": "event",
      "name": "Transfer",
      "inputs": [
        {
          "name": "from",
          "type": "address",
          "indexed": true,
          "internalType": "address"
        },
        {
          "name": "to",
          "type": "address",
          "indexed": true,
          "internalType": "address"
        },
        {
          "name": "value",
          "type": "uint256",
          "indexed": false,
          "internalType": "uint256"
        }
      ],
      "anonymous": false
    },
    {
      "type": "error",
      "name": "ERC20ExceededCap",
      "inputs": [
        {
          "name": "increasedSupply",
          "type": "uint256",
          "internalType": "uint256"
        },
        {
          "name": "cap",
          "type": "uint256",
          "internalType": "uint256"
        }
      ]
    },
    {
      "type": "error",
      "name": "ERC20InsufficientAllowance",
      "inputs": [
        {
          "name": "spender",
          "type": "address",
          "internalType": "address"
        },
        {
          "name": "allowance",
          "type": "uint256",
          "internalType": "uint256"
        },
        {
          "name": "needed",
          "type": "uint256",
          "internalType": "uint256"
        }
      ]
    },
    {
      "type": "error",
      "name": "ERC20InsufficientBalance",
      "inputs": [
        {
          "name": "sender",
          "type": "address",
          "internalType": "address"
        },
        {
          "name": "balance",
          "type": "uint256",
          "internalType": "uint256"
        },
        {
          "name": "needed",
          "type": "uint256",
          "internalType": "uint256"
        }
      ]
    },
    {
      "type": "error",
      "name": "ERC20InvalidApprover",
      "inputs": [
        {
          "name": "approver",
          "type": "address",
          "internalType": "address"
        }
      ]
    },
    {
      "type": "error",
      "name": "ERC20InvalidCap",
      "inputs": [
        {
          "name": "cap",
          "type": "uint256",
          "internalType": "uint256"
        }
      ]
    },
    {
      "type": "error",
      "name": "ERC20InvalidReceiver",
      "inputs": [
        {
          "name": "receiver",
          "type": "address",
          "internalType": "address"
        }
      ]
    },
    {
      "type": "error",
      "name": "ERC20InvalidSender",
      "inputs": [
        {
          "name": "sender",
          "type": "address",
          "internalType": "address"
        }
      ]
    },
    {
      "type": "error",
      "name": "ERC20InvalidSpender",
      "inputs": [
        {
          "name": "spender",
          "type": "address",
          "internalType": "address"
        }
      ]
    },
    {
      "type": "error",
      "name": "IERC20Issuance__CallerIsNotMinter",
      "inputs": []
    },
    {
      "type": "error",
      "name": "InvalidInitialization",
      "inputs": []
    },
    {
      "type": "error",
      "name": "NotInitializing",
      "inputs": []
    },
    {
      "type": "error",
      "name": "OwnableInvalidOwner",
      "inputs": [
        {
          "name": "owner",
          "type": "address",
          "internalType": "address"
        }
      ]
    },
    {
      "type": "error",
      "name": "OwnableUnauthorizedAccount",
      "inputs": [
        {
          "name": "account",
          "type": "address",
          "internalType": "address"
        }
      ]
    }
  ],
  "bytecode": {
    "object": "0x608060405234801561000f575f80fd5b5061001861001d565b6100cf565b7ff0c57e16840df040f15088dc2f81fe391c3923bec73e23a9662efc9c229c6a00805468010000000000000000900460ff161561006d5760405163f92ee8a960e01b815260040160405180910390fd5b80546001600160401b03908116146100cc5780546001600160401b0319166001600160401b0390811782556040519081527fc7f505b2f371ae2175ee4913f4499e1f2633a7b5936321eed1cdaeb6115181d29060200160405180910390a15b50565b611231806100dc5f395ff3fe608060405234801561000f575f80fd5b5060043610610149575f3560e01c8063715018a6116100c7578063cf456ae71161007d578063dd62ed3e11610063578063dd62ed3e14610322578063dd8aaa4f14610379578063f2fde38b1461038c575f80fd5b8063cf456ae7146102fc578063d28de4fe1461030f575f80fd5b806395d89b41116100ad57806395d89b41146102ce5780639dc29fac146102d6578063a9059cbb146102e9575f80fd5b8063715018a61461028c5780638da5cb5b14610294575f80fd5b8063313ce5671161011c57806340c10f191161010257806340c10f191461020e578063423afa661461022357806370a0823114610245575f80fd5b8063313ce567146101d2578063355274ea146101e7575f80fd5b806306fdde031461014d578063095ea7b31461016b57806318160ddd1461018e57806323b872dd146101bf575b5f80fd5b61015561039f565b6040516101629190610e33565b60405180910390f35b61017e610179366004610e9a565b610472565b6040519015158152602001610162565b7f52c63247e1f47db19d5ce0460030c497f067ca4cebf71ba98eeadabe20bace02545b604051908152602001610162565b61017e6101cd366004610ec2565b61048b565b60015460405160ff9091168152602001610162565b7f0f070392f17d5f958cc1ac31867dabecfc5c9758b4a419a200803226d7155d00546101b1565b61022161021c366004610e9a565b6104ae565b005b61017e610231366004610efb565b5f6020819052908152604090205460ff1681565b6101b1610253366004610efb565b6001600160a01b03165f9081527f52c63247e1f47db19d5ce0460030c497f067ca4cebf71ba98eeadabe20bace00602052604090205490565b6102216104eb565b7f9016d09d72d40fdae2fd8ceac6b6234c7706214fd39c1cd1e609a0528c199300546040516001600160a01b039091168152602001610162565b6101556104fe565b6102216102e4366004610e9a565b61054f565b61017e6102f7366004610e9a565b610588565b61022161030a366004610f1b565b610595565b61022161031d366004610ff1565b6105a7565b6101b161033036600461106f565b6001600160a01b039182165f9081527f52c63247e1f47db19d5ce0460030c497f067ca4cebf71ba98eeadabe20bace016020908152604080832093909416825291909152205490565b610221610387366004610ec2565b6106ee565b61022161039a366004610efb565b61072d565b7f52c63247e1f47db19d5ce0460030c497f067ca4cebf71ba98eeadabe20bace0380546060917f52c63247e1f47db19d5ce0460030c497f067ca4cebf71ba98eeadabe20bace00916103f0906110a0565b80601f016020809104026020016040519081016040528092919081815260200182805461041c906110a0565b80156104675780601f1061043e57610100808354040283529160200191610467565b820191905f5260205f20905b81548152906001019060200180831161044a57829003601f168201915b505050505091505090565b5f3361047f81858561076f565b60019150505b92915050565b5f3361049885828561077c565b6104a3858585610816565b506001949350505050565b335f9081526020819052604090205460ff166104dd57604051634199e25360e11b815260040160405180910390fd5b6104e78282610873565b5050565b6104f36108a7565b6104fc5f610902565b565b7f52c63247e1f47db19d5ce0460030c497f067ca4cebf71ba98eeadabe20bace0480546060917f52c63247e1f47db19d5ce0460030c497f067ca4cebf71ba98eeadabe20bace00916103f0906110a0565b335f9081526020819052604090205460ff1661057e57604051634199e25360e11b815260040160405180910390fd5b6104e7828261098a565b5f3361047f818585610816565b61059d6108a7565b6104e782826109be565b7ff0c57e16840df040f15088dc2f81fe391c3923bec73e23a9662efc9c229c6a00805468010000000000000000810460ff16159067ffffffffffffffff165f811580156105f15750825b90505f8267ffffffffffffffff16600114801561060d5750303b155b90508115801561061b575080155b156106395760405163f92ee8a960e01b815260040160405180910390fd5b845467ffffffffffffffff19166001178555831561066d57845468ff00000000000000001916680100000000000000001785555b6106778989610a1a565b61068086610a2c565b61068933610a3d565b6001805460ff191660ff891617905583156106e357845468ff000000000000000019168555604051600181527fc7f505b2f371ae2175ee4913f4499e1f2633a7b5936321eed1cdaeb6115181d29060200160405180910390a15b505050505050505050565b335f9081526020819052604090205460ff1661071d57604051634199e25360e11b815260040160405180910390fd5b61072883838361077c565b505050565b6107356108a7565b6001600160a01b03811661076357604051631e4fbdf760e01b81525f60048201526024015b60405180910390fd5b61076c81610902565b50565b6107288383836001610a4e565b6001600160a01b038381165f9081527f52c63247e1f47db19d5ce0460030c497f067ca4cebf71ba98eeadabe20bace0160209081526040808320938616835292905220545f198114610810578181101561080257604051637dc7a0d960e11b81526001600160a01b0384166004820152602481018290526044810183905260640161075a565b61081084848484035f610a4e565b50505050565b6001600160a01b03831661083f57604051634b637e8f60e11b81525f600482015260240161075a565b6001600160a01b0382166108685760405163ec442f0560e01b81525f600482015260240161075a565b610728838383610b45565b6001600160a01b03821661089c5760405163ec442f0560e01b81525f600482015260240161075a565b6104e75f8383610b45565b336108d97f9016d09d72d40fdae2fd8ceac6b6234c7706214fd39c1cd1e609a0528c199300546001600160a01b031690565b6001600160a01b0316146104fc5760405163118cdaa760e01b815233600482015260240161075a565b7f9016d09d72d40fdae2fd8ceac6b6234c7706214fd39c1cd1e609a0528c19930080547fffffffffffffffffffffffff000000000000000000000000000000000000000081166001600160a01b03848116918217845560405192169182907f8be0079c531659141344cd1fd0a4f28419497f9722a3daafe3b4186f6b6457e0905f90a3505050565b6001600160a01b0382166109b357604051634b637e8f60e11b81525f600482015260240161075a565b6104e7825f83610b45565b6001600160a01b0382165f8181526020818152604091829020805460ff191685151590811790915591519182527f583b0aa0e528532caf4b907c11d7a8158a122fe2a6fb80cd9b09776ebea8d92d910160405180910390a25050565b610a22610bdf565b6104e78282610c2d565b610a34610bdf565b61076c81610c90565b610a45610bdf565b61076c81610cdf565b7f52c63247e1f47db19d5ce0460030c497f067ca4cebf71ba98eeadabe20bace006001600160a01b038516610a985760405163e602df0560e01b81525f600482015260240161075a565b6001600160a01b038416610ac157604051634a1406b160e11b81525f600482015260240161075a565b6001600160a01b038086165f90815260018301602090815260408083209388168352929052208390558115610b3e57836001600160a01b0316856001600160a01b03167f8c5be1e5ebec7d5bd14f71427d1e84f3dd0314c0f7b2291e5b200ac8c7c3b92585604051610b3591815260200190565b60405180910390a35b5050505050565b610b50838383610ce7565b6001600160a01b038316610728575f610b877f0f070392f17d5f958cc1ac31867dabecfc5c9758b4a419a200803226d7155d005490565b90505f610bb27f52c63247e1f47db19d5ce0460030c497f067ca4cebf71ba98eeadabe20bace025490565b905081811115610b3e5760405163279e7e1560e21b8152600481018290526024810183905260440161075a565b7ff0c57e16840df040f15088dc2f81fe391c3923bec73e23a9662efc9c229c6a005468010000000000000000900460ff166104fc57604051631afcd79f60e31b815260040160405180910390fd5b610c35610bdf565b7f52c63247e1f47db19d5ce0460030c497f067ca4cebf71ba98eeadabe20bace007f52c63247e1f47db19d5ce0460030c497f067ca4cebf71ba98eeadabe20bace03610c81848261111c565b5060048101610810838261111c565b610c98610bdf565b7f0f070392f17d5f958cc1ac31867dabecfc5c9758b4a419a200803226d7155d005f829003610cdc5760405163392e1e2760e01b81525f600482015260240161075a565b55565b610735610bdf565b7f52c63247e1f47db19d5ce0460030c497f067ca4cebf71ba98eeadabe20bace006001600160a01b038416610d345781816002015f828254610d2991906111dc565b90915550610da49050565b6001600160a01b0384165f9081526020829052604090205482811015610d865760405163391434e360e21b81526001600160a01b0386166004820152602481018290526044810184905260640161075a565b6001600160a01b0385165f9081526020839052604090209083900390555b6001600160a01b038316610dc2576002810180548390039055610de0565b6001600160a01b0383165f9081526020829052604090208054830190555b826001600160a01b0316846001600160a01b03167fddf252ad1be2c89b69c2b068fc378daa952ba7f163c4a11628f55a4df523b3ef84604051610e2591815260200190565b60405180910390a350505050565b5f602080835283518060208501525f5b81811015610e5f57858101830151858201604001528201610e43565b505f604082860101526040601f19601f8301168501019250505092915050565b80356001600160a01b0381168114610e95575f80fd5b919050565b5f8060408385031215610eab575f80fd5b610eb483610e7f565b946020939093013593505050565b5f805f60608486031215610ed4575f80fd5b610edd84610e7f565b9250610eeb60208501610e7f565b9150604084013590509250925092565b5f60208284031215610f0b575f80fd5b610f1482610e7f565b9392505050565b5f8060408385031215610f2c575f80fd5b610f3583610e7f565b915060208301358015158114610f49575f80fd5b809150509250929050565b634e487b7160e01b5f52604160045260245ffd5b5f82601f830112610f77575f80fd5b813567ffffffffffffffff80821115610f9257610f92610f54565b604051601f8301601f19908116603f01168101908282118183101715610fba57610fba610f54565b81604052838152866020858801011115610fd2575f80fd5b836020870160208301375f602085830101528094505050505092915050565b5f805f8060808587031215611004575f80fd5b843567ffffffffffffffff8082111561101b575f80fd5b61102788838901610f68565b9550602087013591508082111561103c575f80fd5b5061104987828801610f68565b935050604085013560ff8116811461105f575f80fd5b9396929550929360600135925050565b5f8060408385031215611080575f80fd5b61108983610e7f565b915061109760208401610e7f565b90509250929050565b600181811c908216806110b457607f821691505b6020821081036110d257634e487b7160e01b5f52602260045260245ffd5b50919050565b601f82111561072857805f5260205f20601f840160051c810160208510156110fd5750805b601f840160051c820191505b81811015610b3e575f8155600101611109565b815167ffffffffffffffff81111561113657611136610f54565b61114a8161114484546110a0565b846110d8565b602080601f83116001811461117d575f84156111665750858301515b5f19600386901b1c1916600185901b1785556111d4565b5f85815260208120601f198616915b828110156111ab5788860151825594840194600190910190840161118c565b50858210156111c857878501515f19600388901b60f8161c191681555b505060018460011b0185555b505050505050565b8082018082111561048557634e487b7160e01b5f52601160045260245ffdfea264697066735822122079c0a7b0c5d5326652778904a748e861594eb85cbc905c375ddb0209b4dc357364736f6c63430008170033",
    "linkReferences": {}
  },
  "methodIdentifiers": {
    "__ERC20Issuance_init(string,string,uint8,uint256)": "d28de4fe",
    "allowance(address,address)": "dd62ed3e",
    "allowedMinters(address)": "423afa66",
    "approve(address,uint256)": "095ea7b3",
    "balanceOf(address)": "70a08231",
    "burn(address,uint256)": "9dc29fac",
    "cap()": "355274ea",
    "decimals()": "313ce567",
    "mint(address,uint256)": "40c10f19",
    "name()": "06fdde03",
    "owner()": "8da5cb5b",
    "renounceOwnership()": "715018a6",
    "setMinter(address,bool)": "cf456ae7",
    "spendAllowance(address,address,uint256)": "dd8aaa4f",
    "symbol()": "95d89b41",
    "totalSupply()": "18160ddd",
    "transfer(address,uint256)": "a9059cbb",
    "transferFrom(address,address,uint256)": "23b872dd",
    "transferOwnership(address)": "f2fde38b"
  },
  "id": 96
}