{
  "abi": [
    {
      "type": "constructor",
      "inputs": [
        {
          "name": "name_",
          "type": "string",
          "internalType": "string"
        },
        {
          "name": "symbol_",
          "type": "string",
          "internalType": "string"
        },
        {
          "name": "decimals_",
          "type": "uint8",
          "internalType": "uint8"
        },
        {
          "name": "maxSupply_",
          "type": "uint256",
          "internalType": "uint256"
        }
      ],
      "stateMutability": "nonpayable"
    },
    {
      "type": "function",
      "name": "allowance",
      "inputs": [
        {
          "name": "owner",
          "type": "address",
          "internalType": "address"
        },
        {
          "name": "spender",
          "type": "address",
          "internalType": "address"
        }
      ],
      "outputs": [
        {
          "name": "",
          "type": "uint256",
          "internalType": "uint256"
        }
      ],
      "stateMutability": "view"
    },
    {
      "type": "function",
      "name": "allowedMinters",
      "inputs": [
        {
          "name": "",
          "type": "address",
          "internalType": "address"
        }
      ],
      "outputs": [
        {
          "name": "",
          "type": "bool",
          "internalType": "bool"
        }
      ],
      "stateMutability": "view"
    },
    {
      "type": "function",
      "name": "approve",
      "inputs": [
        {
          "name": "spender",
          "type": "address",
          "internalType": "address"
        },
        {
          "name": "value",
          "type": "uint256",
          "internalType": "uint256"
        }
      ],
      "outputs": [
        {
          "name": "",
          "type": "bool",
          "internalType": "bool"
        }
      ],
      "stateMutability": "nonpayable"
    },
    {
      "type": "function",
      "name": "balanceOf",
      "inputs": [
        {
          "name": "account",
          "type": "address",
          "internalType": "address"
        }
      ],
      "outputs": [
        {
          "name": "",
          "type": "uint256",
          "internalType": "uint256"
        }
      ],
      "stateMutability": "view"
    },
    {
      "type": "function",
      "name": "burn",
      "inputs": [
        {
          "name": "_from",
          "type": "address",
          "internalType": "address"
        },
        {
          "name": "_amount",
          "type": "uint256",
          "internalType": "uint256"
        }
      ],
      "outputs": [],
      "stateMutability": "nonpayable"
    },
    {
      "type": "function",
      "name": "cap",
      "inputs": [],
      "outputs": [
        {
          "name": "",
          "type": "uint256",
          "internalType": "uint256"
        }
      ],
      "stateMutability": "view"
    },
    {
      "type": "function",
      "name": "decimals",
      "inputs": [],
      "outputs": [
        {
          "name": "",
          "type": "uint8",
          "internalType": "uint8"
        }
      ],
      "stateMutability": "view"
    },
    {
      "type": "function",
      "name": "mint",
      "inputs": [
        {
          "name": "_to",
          "type": "address",
          "internalType": "address"
        },
        {
          "name": "_amount",
          "type": "uint256",
          "internalType": "uint256"
        }
      ],
      "outputs": [],
      "stateMutability": "nonpayable"
    },
    {
      "type": "function",
      "name": "name",
      "inputs": [],
      "outputs": [
        {
          "name": "",
          "type": "string",
          "internalType": "string"
        }
      ],
      "stateMutability": "view"
    },
    {
      "type": "function",
      "name": "owner",
      "inputs": [],
      "outputs": [
        {
          "name": "",
          "type": "address",
          "internalType": "address"
        }
      ],
      "stateMutability": "view"
    },
    {
      "type": "function",
      "name": "renounceOwnership",
      "inputs": [],
      "outputs": [],
      "stateMutability": "nonpayable"
    },
    {
      "type": "function",
      "name": "setMinter",
      "inputs": [
        {
          "name": "_minter",
          "type": "address",
          "internalType": "address"
        },
        {
          "name": "_allowed",
          "type": "bool",
          "internalType": "bool"
        }
      ],
      "outputs": [],
      "stateMutability": "nonpayable"
    },
    {
      "type": "function",
      "name": "spendAllowance",
      "inputs": [
        {
          "name": "_from",
          "type": "address",
          "internalType": "address"
        },
        {
          "name": "_spender",
          "type": "address",
          "internalType": "address"
        },
        {
          "name": "_amount",
          "type": "uint256",
          "internalType": "uint256"
        }
      ],
      "outputs": [],
      "stateMutability": "nonpayable"
    },
    {
      "type": "function",
      "name": "symbol",
      "inputs": [],
      "outputs": [
        {
          "name": "",
          "type": "string",
          "internalType": "string"
        }
      ],
      "stateMutability": "view"
    },
    {
      "type": "function",
      "name": "totalSupply",
      "inputs": [],
      "outputs": [
        {
          "name": "",
          "type": "uint256",
          "internalType": "uint256"
        }
      ],
      "stateMutability": "view"
    },
    {
      "type": "function",
      "name": "transfer",
      "inputs": [
        {
          "name": "to",
          "type": "address",
          "internalType": "address"
        },
        {
          "name": "value",
          "type": "uint256",
          "internalType": "uint256"
        }
      ],
      "outputs": [
        {
          "name": "",
          "type": "bool",
          "internalType": "bool"
        }
      ],
      "stateMutability": "nonpayable"
    },
    {
      "type": "function",
      "name": "transferFrom",
      "inputs": [
        {
          "name": "from",
          "type": "address",
          "internalType": "address"
        },
        {
          "name": "to",
          "type": "address",
          "internalType": "address"
        },
        {
          "name": "value",
          "type": "uint256",
          "internalType": "uint256"
        }
      ],
      "outputs": [
        {
          "name": "",
          "type": "bool",
          "internalType": "bool"
        }
      ],
      "stateMutability": "nonpayable"
    },
    {
      "type": "function",
      "name": "transferOwnership",
      "inputs": [
        {
          "name": "newOwner",
          "type": "address",
          "internalType": "address"
        }
      ],
      "outputs": [],
      "stateMutability": "nonpayable"
    },
    {
      "type": "event",
      "name": "Approval",
      "inputs": [
        {
          "name": "owner",
          "type": "address",
          "indexed": true,
          "internalType": "address"
        },
        {
          "name": "spender",
          "type": "address",
          "indexed": true,
          "internalType": "address"
        },
        {
          "name": "value",
          "type": "uint256",
          "indexed": false,
          "internalType": "uint256"
        }
      ],
      "anonymous": false
    },
    {
      "type": "event",
      "name": "MinterSet",
      "inputs": [
        {
          "name": "minter",
          "type": "address",
          "indexed": true,
          "internalType": "address"
        },
        {
          "name": "allowed",
          "type": "bool",
          "indexed": false,
          "internalType": "bool"
        }
      ],
      "anonymous": false
    },
    {
      "type": "event",
      "name": "OwnershipTransferred",
      "inputs": [
        {
          "name": "previousOwner",
          "type": "address",
          "indexed": true,
          "internalType": "address"
        },
        {
          "name": "newOwner",
          "type": "address",
          "indexed": true,
          "internalType": "address"
        }
      ],
      "anonymous": false
    },
    {
      "type": "event",
      "name": "Transfer",
      "inputs": [
        {
          "name": "from",
          "type": "address",
          "indexed": true,
          "internalType": "address"
        },
        {
          "name": "to",
          "type": "address",
          "indexed": true,
          "internalType": "address"
        },
        {
          "name": "value",
          "type": "uint256",
          "indexed": false,
          "internalType": "uint256"
        }
      ],
      "anonymous": false
    },
    {
      "type": "error",
      "name": "ERC20ExceededCap",
      "inputs": [
        {
          "name": "increasedSupply",
          "type": "uint256",
          "internalType": "uint256"
        },
        {
          "name": "cap",
          "type": "uint256",
          "internalType": "uint256"
        }
      ]
    },
    {
      "type": "error",
      "name": "ERC20InsufficientAllowance",
      "inputs": [
        {
          "name": "spender",
          "type": "address",
          "internalType": "address"
        },
        {
          "name": "allowance",
          "type": "uint256",
          "internalType": "uint256"
        },
        {
          "name": "needed",
          "type": "uint256",
          "internalType": "uint256"
        }
      ]
    },
    {
      "type": "error",
      "name": "ERC20InsufficientBalance",
      "inputs": [
        {
          "name": "sender",
          "type": "address",
          "internalType": "address"
        },
        {
          "name": "balance",
          "type": "uint256",
          "internalType": "uint256"
        },
        {
          "name": "needed",
          "type": "uint256",
          "internalType": "uint256"
        }
      ]
    },
    {
      "type": "error",
      "name": "ERC20InvalidApprover",
      "inputs": [
        {
          "name": "approver",
          "type": "address",
          "internalType": "address"
        }
      ]
    },
    {
      "type": "error",
      "name": "ERC20InvalidCap",
      "inputs": [
        {
          "name": "cap",
          "type": "uint256",
          "internalType": "uint256"
        }
      ]
    },
    {
      "type": "error",
      "name": "ERC20InvalidReceiver",
      "inputs": [
        {
          "name": "receiver",
          "type": "address",
          "internalType": "address"
        }
      ]
    },
    {
      "type": "error",
      "name": "ERC20InvalidSender",
      "inputs": [
        {
          "name": "sender",
          "type": "address",
          "internalType": "address"
        }
      ]
    },
    {
      "type": "error",
      "name": "ERC20InvalidSpender",
      "inputs": [
        {
          "name": "spender",
          "type": "address",
          "internalType": "address"
        }
      ]
    },
    {
      "type": "error",
      "name": "IERC20Issuance__CallerIsNotMinter",
      "inputs": []
    },
    {
      "type": "error",
      "name": "OwnableInvalidOwner",
      "inputs": [
        {
          "name": "owner",
          "type": "address",
          "internalType": "address"
        }
      ]
    },
    {
      "type": "error",
      "name": "OwnableUnauthorizedAccount",
      "inputs": [
        {
          "name": "account",
          "type": "address",
          "internalType": "address"
        }
      ]
    }
  ],
  "bytecode": {
    "object": "0x60c060405234801562000010575f80fd5b5060405162000f7c38038062000f7c8339810160408190526200003391620001db565b338185856003620000458382620002ea565b506004620000548282620002ea565b505050805f036200007f5760405163392e1e2760e01b81525f60048201526024015b60405180910390fd5b6080526001600160a01b038116620000ad57604051631e4fbdf760e01b81525f600482015260240162000076565b620000b881620000c9565b505060ff1660a05250620003b69050565b600580546001600160a01b038381166001600160a01b0319831681179093556040519116919082907f8be0079c531659141344cd1fd0a4f28419497f9722a3daafe3b4186f6b6457e0905f90a35050565b634e487b7160e01b5f52604160045260245ffd5b5f82601f8301126200013e575f80fd5b81516001600160401b03808211156200015b576200015b6200011a565b604051601f8301601f19908116603f011681019082821181831017156200018657620001866200011a565b8160405283815260209250866020858801011115620001a3575f80fd5b5f91505b83821015620001c65785820183015181830184015290820190620001a7565b5f602085830101528094505050505092915050565b5f805f8060808587031215620001ef575f80fd5b84516001600160401b038082111562000206575f80fd5b62000214888389016200012e565b955060208701519150808211156200022a575f80fd5b5062000239878288016200012e565b935050604085015160ff8116811462000250575f80fd5b6060959095015193969295505050565b600181811c908216806200027557607f821691505b6020821081036200029457634e487b7160e01b5f52602260045260245ffd5b50919050565b601f821115620002e557805f5260205f20601f840160051c81016020851015620002c15750805b601f840160051c820191505b81811015620002e2575f8155600101620002cd565b50505b505050565b81516001600160401b038111156200030657620003066200011a565b6200031e8162000317845462000260565b846200029a565b602080601f83116001811462000354575f84156200033c5750858301515b5f19600386901b1c1916600185901b178555620003ae565b5f85815260208120601f198616915b82811015620003845788860151825594840194600190910190840162000363565b5085821015620003a257878501515f19600388901b60f8161c191681555b505060018460011b0185555b505050505050565b60805160a051610b9d620003df5f395f6101a001525f81816101cc01526108460152610b9d5ff3fe608060405234801561000f575f80fd5b506004361061012f575f3560e01c8063715018a6116100ad578063a9059cbb1161007d578063dd62ed3e11610063578063dd62ed3e146102b3578063dd8aaa4f146102eb578063f2fde38b146102fe575f80fd5b8063a9059cbb1461028d578063cf456ae7146102a0575f80fd5b8063715018a61461024f5780638da5cb5b1461025757806395d89b41146102725780639dc29fac1461027a575f80fd5b8063313ce5671161010257806340c10f19116100e857806340c10f19146101f0578063423afa661461020557806370a0823114610227575f80fd5b8063313ce56714610199578063355274ea146101ca575f80fd5b806306fdde0314610133578063095ea7b31461015157806318160ddd1461017457806323b872dd14610186575b5f80fd5b61013b610311565b60405161014891906109be565b60405180910390f35b61016461015f366004610a25565b6103a1565b6040519015158152602001610148565b6002545b604051908152602001610148565b610164610194366004610a4d565b6103ba565b60405160ff7f0000000000000000000000000000000000000000000000000000000000000000168152602001610148565b7f0000000000000000000000000000000000000000000000000000000000000000610178565b6102036101fe366004610a25565b6103dd565b005b610164610213366004610a86565b60066020525f908152604090205460ff1681565b610178610235366004610a86565b6001600160a01b03165f9081526020819052604090205490565b61020361041a565b6005546040516001600160a01b039091168152602001610148565b61013b61042d565b610203610288366004610a25565b61043c565b61016461029b366004610a25565b610475565b6102036102ae366004610aa6565b610482565b6101786102c1366004610adf565b6001600160a01b039182165f90815260016020908152604080832093909416825291909152205490565b6102036102f9366004610a4d565b610494565b61020361030c366004610a86565b6104d3565b60606003805461032090610b10565b80601f016020809104026020016040519081016040528092919081815260200182805461034c90610b10565b80156103975780601f1061036e57610100808354040283529160200191610397565b820191905f5260205f20905b81548152906001019060200180831161037a57829003601f168201915b5050505050905090565b5f336103ae818585610515565b60019150505b92915050565b5f336103c7858285610522565b6103d285858561059d565b506001949350505050565b335f9081526006602052604090205460ff1661040c57604051634199e25360e11b815260040160405180910390fd5b61041682826105fa565b5050565b61042261062e565b61042b5f61065b565b565b60606004805461032090610b10565b335f9081526006602052604090205460ff1661046b57604051634199e25360e11b815260040160405180910390fd5b61041682826106c4565b5f336103ae81858561059d565b61048a61062e565b61041682826106f8565b335f9081526006602052604090205460ff166104c357604051634199e25360e11b815260040160405180910390fd5b6104ce838383610522565b505050565b6104db61062e565b6001600160a01b03811661050957604051631e4fbdf760e01b81525f60048201526024015b60405180910390fd5b6105128161065b565b50565b6104ce8383836001610756565b6001600160a01b038381165f908152600160209081526040808320938616835292905220545f198114610597578181101561058957604051637dc7a0d960e11b81526001600160a01b03841660048201526024810182905260448101839052606401610500565b61059784848484035f610756565b50505050565b6001600160a01b0383166105c657604051634b637e8f60e11b81525f6004820152602401610500565b6001600160a01b0382166105ef5760405163ec442f0560e01b81525f6004820152602401610500565b6104ce838383610828565b6001600160a01b0382166106235760405163ec442f0560e01b81525f6004820152602401610500565b6104165f8383610828565b6005546001600160a01b0316331461042b5760405163118cdaa760e01b8152336004820152602401610500565b600580546001600160a01b038381167fffffffffffffffffffffffff0000000000000000000000000000000000000000831681179093556040519116919082907f8be0079c531659141344cd1fd0a4f28419497f9722a3daafe3b4186f6b6457e0905f90a35050565b6001600160a01b0382166106ed57604051634b637e8f60e11b81525f6004820152602401610500565b610416825f83610828565b6001600160a01b0382165f81815260066020908152604091829020805460ff191685151590811790915591519182527f583b0aa0e528532caf4b907c11d7a8158a122fe2a6fb80cd9b09776ebea8d92d910160405180910390a25050565b6001600160a01b03841661077f5760405163e602df0560e01b81525f6004820152602401610500565b6001600160a01b0383166107a857604051634a1406b160e11b81525f6004820152602401610500565b6001600160a01b038085165f908152600160209081526040808320938716835292905220829055801561059757826001600160a01b0316846001600160a01b03167f8c5be1e5ebec7d5bd14f71427d1e84f3dd0314c0f7b2291e5b200ac8c7c3b9258460405161081a91815260200190565b60405180910390a350505050565b610833838383610898565b6001600160a01b0383166104ce576002547f000000000000000000000000000000000000000000000000000000000000000090818111156108915760405163279e7e1560e21b81526004810182905260248101839052604401610500565b5050505050565b6001600160a01b0383166108c2578060025f8282546108b79190610b48565b909155506109329050565b6001600160a01b0383165f90815260208190526040902054818110156109145760405163391434e360e21b81526001600160a01b03851660048201526024810182905260448101839052606401610500565b6001600160a01b0384165f9081526020819052604090209082900390555b6001600160a01b03821661094e5760028054829003905561096c565b6001600160a01b0382165f9081526020819052604090208054820190555b816001600160a01b0316836001600160a01b03167fddf252ad1be2c89b69c2b068fc378daa952ba7f163c4a11628f55a4df523b3ef836040516109b191815260200190565b60405180910390a3505050565b5f602080835283518060208501525f5b818110156109ea578581018301518582016040015282016109ce565b505f604082860101526040601f19601f8301168501019250505092915050565b80356001600160a01b0381168114610a20575f80fd5b919050565b5f8060408385031215610a36575f80fd5b610a3f83610a0a565b946020939093013593505050565b5f805f60608486031215610a5f575f80fd5b610a6884610a0a565b9250610a7660208501610a0a565b9150604084013590509250925092565b5f60208284031215610a96575f80fd5b610a9f82610a0a565b9392505050565b5f8060408385031215610ab7575f80fd5b610ac083610a0a565b915060208301358015158114610ad4575f80fd5b809150509250929050565b5f8060408385031215610af0575f80fd5b610af983610a0a565b9150610b0760208401610a0a565b90509250929050565b600181811c90821680610b2457607f821691505b602082108103610b4257634e487b7160e01b5f52602260045260245ffd5b50919050565b808201808211156103b457634e487b7160e01b5f52601160045260245ffdfea2646970667358221220ea20c4b22fbd13fae30fef226ab5afd7e847fb218d67315ba4c263f549ecd2c164736f6c63430008170033",
    "linkReferences": {}
  },
  "methodIdentifiers": {
    "allowance(address,address)": "dd62ed3e",
    "allowedMinters(address)": "423afa66",
    "approve(address,uint256)": "095ea7b3",
    "balanceOf(address)": "70a08231",
    "burn(address,uint256)": "9dc29fac",
    "cap()": "355274ea",
    "decimals()": "313ce567",
    "mint(address,uint256)": "40c10f19",
    "name()": "06fdde03",
    "owner()": "8da5cb5b",
    "renounceOwnership()": "715018a6",
    "setMinter(address,bool)": "cf456ae7",
    "spendAllowance(address,address,uint256)": "dd8aaa4f",
    "symbol()": "95d89b41",
    "totalSupply()": "18160ddd",
    "transfer(address,uint256)": "a9059cbb",
    "transferFrom(address,address,uint256)": "23b872dd",
    "transferOwnership(address)": "f2fde38b"
  },
  "id": 100
}