{
  "abi": [
    {
      "type": "constructor",
      "inputs": [
        {
          "name": "name_",
          "type": "string",
          "internalType": "string"
        },
        {
          "name": "symbol_",
          "type": "string",
          "internalType": "string"
        },
        {
          "name": "decimals_",
          "type": "uint8",
          "internalType": "uint8"
        },
        {
          "name": "maxSupply_",
          "type": "uint256",
          "internalType": "uint256"
        },
        {
          "name": "initialAdmin_",
          "type": "address",
          "internalType": "address"
        },
        {
          "name": "initialBlacklistManager_",
          "type": "address",
          "internalType": "address"
        }
      ],
      "stateMutability": "nonpayable"
    },
    {
      "type": "function",
      "name": "BATCH_LIMIT",
      "inputs": [],
      "outputs": [
        {
          "name": "",
          "type": "uint256",
          "internalType": "uint256"
        }
      ],
      "stateMutability": "view"
    },
    {
      "type": "function",
      "name": "addToBlacklist",
      "inputs": [
        {
          "name": "account_",
          "type": "address",
          "internalType": "address"
        }
      ],
      "outputs": [],
      "stateMutability": "nonpayable"
    },
    {
      "type": "function",
      "name": "addToBlacklistBatched",
      "inputs": [
        {
          "name": "accounts_",
          "type": "address[]",
          "internalType": "address[]"
        }
      ],
      "outputs": [],
      "stateMutability": "nonpayable"
    },
    {
      "type": "function",
      "name": "allowance",
      "inputs": [
        {
          "name": "owner",
          "type": "address",
          "internalType": "address"
        },
        {
          "name": "spender",
          "type": "address",
          "internalType": "address"
        }
      ],
      "outputs": [
        {
          "name": "",
          "type": "uint256",
          "internalType": "uint256"
        }
      ],
      "stateMutability": "view"
    },
    {
      "type": "function",
      "name": "allowedMinters",
      "inputs": [
        {
          "name": "",
          "type": "address",
          "internalType": "address"
        }
      ],
      "outputs": [
        {
          "name": "",
          "type": "bool",
          "internalType": "bool"
        }
      ],
      "stateMutability": "view"
    },
    {
      "type": "function",
      "name": "approve",
      "inputs": [
        {
          "name": "spender",
          "type": "address",
          "internalType": "address"
        },
        {
          "name": "value",
          "type": "uint256",
          "internalType": "uint256"
        }
      ],
      "outputs": [
        {
          "name": "",
          "type": "bool",
          "internalType": "bool"
        }
      ],
      "stateMutability": "nonpayable"
    },
    {
      "type": "function",
      "name": "balanceOf",
      "inputs": [
        {
          "name": "account",
          "type": "address",
          "internalType": "address"
        }
      ],
      "outputs": [
        {
          "name": "",
          "type": "uint256",
          "internalType": "uint256"
        }
      ],
      "stateMutability": "view"
    },
    {
      "type": "function",
      "name": "burn",
      "inputs": [
        {
          "name": "_from",
          "type": "address",
          "internalType": "address"
        },
        {
          "name": "_amount",
          "type": "uint256",
          "internalType": "uint256"
        }
      ],
      "outputs": [],
      "stateMutability": "nonpayable"
    },
    {
      "type": "function",
      "name": "cap",
      "inputs": [],
      "outputs": [
        {
          "name": "",
          "type": "uint256",
          "internalType": "uint256"
        }
      ],
      "stateMutability": "view"
    },
    {
      "type": "function",
      "name": "decimals",
      "inputs": [],
      "outputs": [
        {
          "name": "",
          "type": "uint8",
          "internalType": "uint8"
        }
      ],
      "stateMutability": "view"
    },
    {
      "type": "function",
      "name": "isBlacklistManager",
      "inputs": [
        {
          "name": "account_",
          "type": "address",
          "internalType": "address"
        }
      ],
      "outputs": [
        {
          "name": "",
          "type": "bool",
          "internalType": "bool"
        }
      ],
      "stateMutability": "view"
    },
    {
      "type": "function",
      "name": "isBlacklisted",
      "inputs": [
        {
          "name": "account_",
          "type": "address",
          "internalType": "address"
        }
      ],
      "outputs": [
        {
          "name": "",
          "type": "bool",
          "internalType": "bool"
        }
      ],
      "stateMutability": "view"
    },
    {
      "type": "function",
      "name": "mint",
      "inputs": [
        {
          "name": "_to",
          "type": "address",
          "internalType": "address"
        },
        {
          "name": "_amount",
          "type": "uint256",
          "internalType": "uint256"
        }
      ],
      "outputs": [],
      "stateMutability": "nonpayable"
    },
    {
      "type": "function",
      "name": "name",
      "inputs": [],
      "outputs": [
        {
          "name": "",
          "type": "string",
          "internalType": "string"
        }
      ],
      "stateMutability": "view"
    },
    {
      "type": "function",
      "name": "owner",
      "inputs": [],
      "outputs": [
        {
          "name": "",
          "type": "address",
          "internalType": "address"
        }
      ],
      "stateMutability": "view"
    },
    {
      "type": "function",
      "name": "removeFromBlacklist",
      "inputs": [
        {
          "name": "account_",
          "type": "address",
          "internalType": "address"
        }
      ],
      "outputs": [],
      "stateMutability": "nonpayable"
    },
    {
      "type": "function",
      "name": "removeFromBlacklistBatched",
      "inputs": [
        {
          "name": "accounts_",
          "type": "address[]",
          "internalType": "address[]"
        }
      ],
      "outputs": [],
      "stateMutability": "nonpayable"
    },
    {
      "type": "function",
      "name": "renounceOwnership",
      "inputs": [],
      "outputs": [],
      "stateMutability": "nonpayable"
    },
    {
      "type": "function",
      "name": "setBlacklistManager",
      "inputs": [
        {
          "name": "manager_",
          "type": "address",
          "internalType": "address"
        },
        {
          "name": "allowed_",
          "type": "bool",
          "internalType": "bool"
        }
      ],
      "outputs": [],
      "stateMutability": "nonpayable"
    },
    {
      "type": "function",
      "name": "setMinter",
      "inputs": [
        {
          "name": "_minter",
          "type": "address",
          "internalType": "address"
        },
        {
          "name": "_allowed",
          "type": "bool",
          "internalType": "bool"
        }
      ],
      "outputs": [],
      "stateMutability": "nonpayable"
    },
    {
      "type": "function",
      "name": "symbol",
      "inputs": [],
      "outputs": [
        {
          "name": "",
          "type": "string",
          "internalType": "string"
        }
      ],
      "stateMutability": "view"
    },
    {
      "type": "function",
      "name": "totalSupply",
      "inputs": [],
      "outputs": [
        {
          "name": "",
          "type": "uint256",
          "internalType": "uint256"
        }
      ],
      "stateMutability": "view"
    },
    {
      "type": "function",
      "name": "transfer",
      "inputs": [
        {
          "name": "to",
          "type": "address",
          "internalType": "address"
        },
        {
          "name": "value",
          "type": "uint256",
          "internalType": "uint256"
        }
      ],
      "outputs": [
        {
          "name": "",
          "type": "bool",
          "internalType": "bool"
        }
      ],
      "stateMutability": "nonpayable"
    },
    {
      "type": "function",
      "name": "transferFrom",
      "inputs": [
        {
          "name": "from",
          "type": "address",
          "internalType": "address"
        },
        {
          "name": "to",
          "type": "address",
          "internalType": "address"
        },
        {
          "name": "value",
          "type": "uint256",
          "internalType": "uint256"
        }
      ],
      "outputs": [
        {
          "name": "",
          "type": "bool",
          "internalType": "bool"
        }
      ],
      "stateMutability": "nonpayable"
    },
    {
      "type": "function",
      "name": "transferOwnership",
      "inputs": [
        {
          "name": "newOwner",
          "type": "address",
          "internalType": "address"
        }
      ],
      "outputs": [],
      "stateMutability": "nonpayable"
    },
    {
      "type": "event",
      "name": "AddedToBlacklist",
      "inputs": [
        {
          "name": "account_",
          "type": "address",
          "indexed": true,
          "internalType": "address"
        }
      ],
      "anonymous": false
    },
    {
      "type": "event",
      "name": "Approval",
      "inputs": [
        {
          "name": "owner",
          "type": "address",
          "indexed": true,
          "internalType": "address"
        },
        {
          "name": "spender",
          "type": "address",
          "indexed": true,
          "internalType": "address"
        },
        {
          "name": "value",
          "type": "uint256",
          "indexed": false,
          "internalType": "uint256"
        }
      ],
      "anonymous": false
    },
    {
      "type": "event",
      "name": "BlacklistManagerUpdated",
      "inputs": [
        {
          "name": "account_",
          "type": "address",
          "indexed": true,
          "internalType": "address"
        },
        {
          "name": "allowed_",
          "type": "bool",
          "indexed": false,
          "internalType": "bool"
        }
      ],
      "anonymous": false
    },
    {
      "type": "event",
      "name": "MinterSet",
      "inputs": [
        {
          "name": "minter",
          "type": "address",
          "indexed": true,
          "internalType": "address"
        },
        {
          "name": "allowed",
          "type": "bool",
          "indexed": false,
          "internalType": "bool"
        }
      ],
      "anonymous": false
    },
    {
      "type": "event",
      "name": "OwnershipTransferred",
      "inputs": [
        {
          "name": "previousOwner",
          "type": "address",
          "indexed": true,
          "internalType": "address"
        },
        {
          "name": "newOwner",
          "type": "address",
          "indexed": true,
          "internalType": "address"
        }
      ],
      "anonymous": false
    },
    {
      "type": "event",
      "name": "RemovedFromBlacklist",
      "inputs": [
        {
          "name": "account_",
          "type": "address",
          "indexed": true,
          "internalType": "address"
        }
      ],
      "anonymous": false
    },
    {
      "type": "event",
      "name": "Transfer",
      "inputs": [
        {
          "name": "from",
          "type": "address",
          "indexed": true,
          "internalType": "address"
        },
        {
          "name": "to",
          "type": "address",
          "indexed": true,
          "internalType": "address"
        },
        {
          "name": "value",
          "type": "uint256",
          "indexed": false,
          "internalType": "uint256"
        }
      ],
      "anonymous": false
    },
    {
      "type": "error",
      "name": "ERC20ExceededCap",
      "inputs": [
        {
          "name": "increasedSupply",
          "type": "uint256",
          "internalType": "uint256"
        },
        {
          "name": "cap",
          "type": "uint256",
          "internalType": "uint256"
        }
      ]
    },
    {
      "type": "error",
      "name": "ERC20InsufficientAllowance",
      "inputs": [
        {
          "name": "spender",
          "type": "address",
          "internalType": "address"
        },
        {
          "name": "allowance",
          "type": "uint256",
          "internalType": "uint256"
        },
        {
          "name": "needed",
          "type": "uint256",
          "internalType": "uint256"
        }
      ]
    },
    {
      "type": "error",
      "name": "ERC20InsufficientBalance",
      "inputs": [
        {
          "name": "sender",
          "type": "address",
          "internalType": "address"
        },
        {
          "name": "balance",
          "type": "uint256",
          "internalType": "uint256"
        },
        {
          "name": "needed",
          "type": "uint256",
          "internalType": "uint256"
        }
      ]
    },
    {
      "type": "error",
      "name": "ERC20InvalidApprover",
      "inputs": [
        {
          "name": "approver",
          "type": "address",
          "internalType": "address"
        }
      ]
    },
    {
      "type": "error",
      "name": "ERC20InvalidCap",
      "inputs": [
        {
          "name": "cap",
          "type": "uint256",
          "internalType": "uint256"
        }
      ]
    },
    {
      "type": "error",
      "name": "ERC20InvalidReceiver",
      "inputs": [
        {
          "name": "receiver",
          "type": "address",
          "internalType": "address"
        }
      ]
    },
    {
      "type": "error",
      "name": "ERC20InvalidSender",
      "inputs": [
        {
          "name": "sender",
          "type": "address",
          "internalType": "address"
        }
      ]
    },
    {
      "type": "error",
      "name": "ERC20InvalidSpender",
      "inputs": [
        {
          "name": "spender",
          "type": "address",
          "internalType": "address"
        }
      ]
    },
    {
      "type": "error",
      "name": "ERC20Issuance_Blacklist_BatchLimitExceeded",
      "inputs": [
        {
          "name": "provided_",
          "type": "uint256",
          "internalType": "uint256"
        },
        {
          "name": "limit_",
          "type": "uint256",
          "internalType": "uint256"
        }
      ]
    },
    {
      "type": "error",
      "name": "ERC20Issuance_Blacklist_BlacklistedAddress",
      "inputs": [
        {
          "name": "account_",
          "type": "address",
          "internalType": "address"
        }
      ]
    },
    {
      "type": "error",
      "name": "ERC20Issuance_Blacklist_NotBlacklistManager",
      "inputs": []
    },
    {
      "type": "error",
      "name": "ERC20Issuance_Blacklist_ZeroAddress",
      "inputs": []
    },
    {
      "type": "error",
      "name": "IERC20Issuance__CallerIsNotMinter",
      "inputs": []
    },
    {
      "type": "error",
      "name": "OwnableInvalidOwner",
      "inputs": [
        {
          "name": "owner",
          "type": "address",
          "internalType": "address"
        }
      ]
    },
    {
      "type": "error",
      "name": "OwnableUnauthorizedAccount",
      "inputs": [
        {
          "name": "account",
          "type": "address",
          "internalType": "address"
        }
      ]
    }
  ],
  "bytecode": {
    "object": "0x60c06040523480156200001157600080fd5b50604051620016b8380380620016b883398101604081905262000034916200030b565b85858585858082868660036200004b83826200044e565b5060046200005a82826200044e565b50505080600003620000875760405163392e1e2760e01b8152600060048201526024015b60405180910390fd5b6080526001600160a01b038116620000b657604051631e4fbdf760e01b8152600060048201526024016200007e565b620000c181620000f3565b50620000cf81600162000145565b505060ff1660a05250620000e79050816001620001a5565b5050505050506200051a565b600580546001600160a01b038381166001600160a01b0319831681179093556040519116919082907f8be0079c531659141344cd1fd0a4f28419497f9722a3daafe3b4186f6b6457e090600090a35050565b6001600160a01b038216600081815260066020908152604091829020805460ff191685151590811790915591519182527f583b0aa0e528532caf4b907c11d7a8158a122fe2a6fb80cd9b09776ebea8d92d91015b60405180910390a25050565b6001600160a01b038216620001cd576040516362c6e65560e01b815260040160405180910390fd5b6001600160a01b038216600081815260086020908152604091829020805460ff191685151590811790915591519182527f45c726725db69800dfdea06b168ff321aa8b770b249eaa27ae3d9a06c4a29259910162000199565b634e487b7160e01b600052604160045260246000fd5b600082601f8301126200024e57600080fd5b81516001600160401b03808211156200026b576200026b62000226565b604051601f8301601f19908116603f0116810190828211818310171562000296576200029662000226565b8160405283815260209250866020858801011115620002b457600080fd5b600091505b83821015620002d85785820183015181830184015290820190620002b9565b6000602085830101528094505050505092915050565b80516001600160a01b03811681146200030657600080fd5b919050565b60008060008060008060c087890312156200032557600080fd5b86516001600160401b03808211156200033d57600080fd5b6200034b8a838b016200023c565b975060208901519150808211156200036257600080fd5b506200037189828a016200023c565b955050604087015160ff811681146200038957600080fd5b60608801519094509250620003a160808801620002ee565b9150620003b160a08801620002ee565b90509295509295509295565b600181811c90821680620003d257607f821691505b602082108103620003f357634e487b7160e01b600052602260045260246000fd5b50919050565b601f82111562000449576000816000526020600020601f850160051c81016020861015620004245750805b601f850160051c820191505b81811015620004455782815560010162000430565b5050505b505050565b81516001600160401b038111156200046a576200046a62000226565b62000482816200047b8454620003bd565b84620003f9565b602080601f831160018114620004ba5760008415620004a15750858301515b600019600386901b1c1916600185901b17855562000445565b600085815260208120601f198616915b82811015620004eb57888601518255948401946001909101908401620004ca565b50858210156200050a5787850151600019600388901b60f8161c191681555b5050505050600190811b01905550565b60805160a0516111716200054760003960006102150152600081816102410152610d1101526111716000f3fe608060405234801561001057600080fd5b50600436106101a35760003560e01c806370a08231116100ee578063a9059cbb11610097578063d075d0c111610071578063d075d0c1146103aa578063dd62ed3e146103bd578063f2fde38b146103f6578063fe575a871461040957600080fd5b8063a9059cbb14610371578063b9cfc79114610384578063cf456ae71461039757600080fd5b80639559c0bd116100c85780639559c0bd1461034e57806395d89b41146103565780639dc29fac1461035e57600080fd5b806370a0823114610302578063715018a61461032b5780638da5cb5b1461033357600080fd5b806339c5fe5b1161015057806344337ea11161012a57806344337ea1146102c95780634fc6f4f7146102dc578063537df3b6146102ef57600080fd5b806339c5fe5b1461026557806340c10f1914610291578063423afa66146102a657600080fd5b806323b872dd1161018157806323b872dd146101fb578063313ce5671461020e578063355274ea1461023f57600080fd5b806306fdde03146101a8578063095ea7b3146101c657806318160ddd146101e9575b600080fd5b6101b0610435565b6040516101bd9190610e8d565b60405180910390f35b6101d96101d4366004610ef8565b6104c7565b60405190151581526020016101bd565b6002545b6040519081526020016101bd565b6101d9610209366004610f22565b6104e1565b60405160ff7f00000000000000000000000000000000000000000000000000000000000000001681526020016101bd565b7f00000000000000000000000000000000000000000000000000000000000000006101ed565b6101d9610273366004610f5e565b6001600160a01b031660009081526008602052604090205460ff1690565b6102a461029f366004610ef8565b610505565b005b6101d96102b4366004610f5e565b60066020526000908152604090205460ff1681565b6102a46102d7366004610f5e565b610543565b6102a46102ea366004610f80565b610607565b6102a46102fd366004610f5e565b610619565b6101ed610310366004610f5e565b6001600160a01b031660009081526020819052604090205490565b6102a46106da565b6005546040516001600160a01b0390911681526020016101bd565b6101ed60c881565b6101b06106ee565b6102a461036c366004610ef8565b6106fd565b6101d961037f366004610ef8565b610737565b6102a4610392366004610fd2565b610745565b6102a46103a5366004610f80565b6107e2565b6102a46103b8366004610fd2565b6107f4565b6101ed6103cb366004611097565b6001600160a01b03918216600090815260016020908152604080832093909416825291909152205490565b6102a4610404366004610f5e565b610887565b6101d9610417366004610f5e565b6001600160a01b031660009081526007602052604090205460ff1690565b606060038054610444906110ca565b80601f0160208091040260200160405190810160405280929190818152602001828054610470906110ca565b80156104bd5780601f10610492576101008083540402835291602001916104bd565b820191906000526020600020905b8154815290600101906020018083116104a057829003601f168201915b5050505050905090565b6000336104d58185856108c2565b60019150505b92915050565b6000336104ef8582856108cf565b6104fa85858561094d565b506001949350505050565b3360009081526006602052604090205460ff1661053557604051634199e25360e11b815260040160405180910390fd5b61053f82826109ac565b5050565b3360009081526008602052604090205460ff1661057357604051634a2ece7160e01b815260040160405180910390fd5b6001600160a01b03811661059a576040516362c6e65560e01b815260040160405180910390fd5b6001600160a01b03811660009081526007602052604090205460ff16610604576001600160a01b038116600081815260076020526040808220805460ff19166001179055517ff9b68063b051b82957fa193585681240904fed808db8b30fc5a2d2202c6ed6279190a25b50565b61060f6109e2565b61053f8282610a0f565b3360009081526008602052604090205460ff1661064957604051634a2ece7160e01b815260040160405180910390fd5b6001600160a01b038116610670576040516362c6e65560e01b815260040160405180910390fd5b6001600160a01b03811660009081526007602052604090205460ff1615610604576001600160a01b038116600081815260076020526040808220805460ff19169055517f2b6bf71b58b3583add364b3d9060ebf8019650f65f5be35f5464b9cb3e4ba2d49190a250565b6106e26109e2565b6106ec6000610a96565b565b606060048054610444906110ca565b3360009081526006602052604090205460ff1661072d57604051634199e25360e11b815260040160405180910390fd5b61053f8282610b00565b6000336104d581858561094d565b3360009081526008602052604090205460ff1661077557604051634a2ece7160e01b815260040160405180910390fd5b805160c88111156107a8576040516358451eed60e11b81526004810182905260c860248201526044015b60405180910390fd5b60005b818110156107dd576107d58382815181106107c8576107c8611104565b6020026020010151610543565b6001016107ab565b505050565b6107ea6109e2565b61053f8282610b36565b3360009081526008602052604090205460ff1661082457604051634a2ece7160e01b815260040160405180910390fd5b805160c8811115610852576040516358451eed60e11b81526004810182905260c8602482015260440161079f565b60005b818110156107dd5761087f83828151811061087257610872611104565b6020026020010151610619565b600101610855565b61088f6109e2565b6001600160a01b0381166108b957604051631e4fbdf760e01b81526000600482015260240161079f565b61060481610a96565b6107dd8383836001610b8e565b6001600160a01b038381166000908152600160209081526040808320938616835292905220546000198114610947578181101561093857604051637dc7a0d960e11b81526001600160a01b0384166004820152602481018290526044810183905260640161079f565b61094784848484036000610b8e565b50505050565b6001600160a01b03831661097757604051634b637e8f60e11b81526000600482015260240161079f565b6001600160a01b0382166109a15760405163ec442f0560e01b81526000600482015260240161079f565b6107dd838383610c63565b6001600160a01b0382166109d65760405163ec442f0560e01b81526000600482015260240161079f565b61053f60008383610c63565b6005546001600160a01b031633146106ec5760405163118cdaa760e01b815233600482015260240161079f565b6001600160a01b038216610a36576040516362c6e65560e01b815260040160405180910390fd5b6001600160a01b038216600081815260086020908152604091829020805460ff191685151590811790915591519182527f45c726725db69800dfdea06b168ff321aa8b770b249eaa27ae3d9a06c4a2925991015b60405180910390a25050565b600580546001600160a01b038381167fffffffffffffffffffffffff0000000000000000000000000000000000000000831681179093556040519116919082907f8be0079c531659141344cd1fd0a4f28419497f9722a3daafe3b4186f6b6457e090600090a35050565b6001600160a01b038216610b2a57604051634b637e8f60e11b81526000600482015260240161079f565b61053f82600083610c63565b6001600160a01b038216600081815260066020908152604091829020805460ff191685151590811790915591519182527f583b0aa0e528532caf4b907c11d7a8158a122fe2a6fb80cd9b09776ebea8d92d9101610a8a565b6001600160a01b038416610bb85760405163e602df0560e01b81526000600482015260240161079f565b6001600160a01b038316610be257604051634a1406b160e11b81526000600482015260240161079f565b6001600160a01b038085166000908152600160209081526040808320938716835292905220829055801561094757826001600160a01b0316846001600160a01b03167f8c5be1e5ebec7d5bd14f71427d1e84f3dd0314c0f7b2291e5b200ac8c7c3b92584604051610c5591815260200190565b60405180910390a350505050565b6001600160a01b03831660009081526007602052604090205460ff1615610ca85760405163022a56f160e21b81526001600160a01b038416600482015260240161079f565b6001600160a01b03821660009081526007602052604090205460ff1615610ced5760405163022a56f160e21b81526001600160a01b038316600482015260240161079f565b6107dd838383610cfe838383610d63565b6001600160a01b0383166107dd576002547f00000000000000000000000000000000000000000000000000000000000000009081811115610d5c5760405163279e7e1560e21b8152600481018290526024810183905260440161079f565b5050505050565b6001600160a01b038316610d8e578060026000828254610d83919061111a565b90915550610e009050565b6001600160a01b03831660009081526020819052604090205481811015610de15760405163391434e360e21b81526001600160a01b0385166004820152602481018290526044810183905260640161079f565b6001600160a01b03841660009081526020819052604090209082900390555b6001600160a01b038216610e1c57600280548290039055610e3b565b6001600160a01b03821660009081526020819052604090208054820190555b816001600160a01b0316836001600160a01b03167fddf252ad1be2c89b69c2b068fc378daa952ba7f163c4a11628f55a4df523b3ef83604051610e8091815260200190565b60405180910390a3505050565b60006020808352835180602085015260005b81811015610ebb57858101830151858201604001528201610e9f565b506000604082860101526040601f19601f8301168501019250505092915050565b80356001600160a01b0381168114610ef357600080fd5b919050565b60008060408385031215610f0b57600080fd5b610f1483610edc565b946020939093013593505050565b600080600060608486031215610f3757600080fd5b610f4084610edc565b9250610f4e60208501610edc565b9150604084013590509250925092565b600060208284031215610f7057600080fd5b610f7982610edc565b9392505050565b60008060408385031215610f9357600080fd5b610f9c83610edc565b915060208301358015158114610fb157600080fd5b809150509250929050565b634e487b7160e01b600052604160045260246000fd5b60006020808385031215610fe557600080fd5b823567ffffffffffffffff80821115610ffd57600080fd5b818501915085601f83011261101157600080fd5b81358181111561102357611023610fbc565b8060051b604051601f19603f8301168101818110858211171561104857611048610fbc565b60405291825284820192508381018501918883111561106657600080fd5b938501935b8285101561108b5761107c85610edc565b8452938501939285019261106b565b98975050505050505050565b600080604083850312156110aa57600080fd5b6110b383610edc565b91506110c160208401610edc565b90509250929050565b600181811c908216806110de57607f821691505b6020821081036110fe57634e487b7160e01b600052602260045260246000fd5b50919050565b634e487b7160e01b600052603260045260246000fd5b808201808211156104db57634e487b7160e01b600052601160045260246000fdfea2646970667358221220914f7ff4dd36ced0ffe52901d501c321cfdb498b1c47edfaf3003e99165d00c764736f6c63430008170033",
    "linkReferences": {}
  },
  "methodIdentifiers": {
    "BATCH_LIMIT()": "9559c0bd",
    "addToBlacklist(address)": "44337ea1",
    "addToBlacklistBatched(address[])": "b9cfc791",
    "allowance(address,address)": "dd62ed3e",
    "allowedMinters(address)": "423afa66",
    "approve(address,uint256)": "095ea7b3",
    "balanceOf(address)": "70a08231",
    "burn(address,uint256)": "9dc29fac",
    "cap()": "355274ea",
    "decimals()": "313ce567",
    "isBlacklistManager(address)": "39c5fe5b",
    "isBlacklisted(address)": "fe575a87",
    "mint(address,uint256)": "40c10f19",
    "name()": "06fdde03",
    "owner()": "8da5cb5b",
    "removeFromBlacklist(address)": "537df3b6",
    "removeFromBlacklistBatched(address[])": "d075d0c1",
    "renounceOwnership()": "715018a6",
    "setBlacklistManager(address,bool)": "4fc6f4f7",
    "setMinter(address,bool)": "cf456ae7",
    "symbol()": "95d89b41",
    "totalSupply()": "18160ddd",
    "transfer(address,uint256)": "a9059cbb",
    "transferFrom(address,address,uint256)": "23b872dd",
    "transferOwnership(address)": "f2fde38b"
  },
  "id": 96
}