{
  "abi": [
    {
      "type": "function",
      "name": "BATCH_LIMIT",
      "inputs": [],
      "outputs": [
        {
          "name": "",
          "type": "uint256",
          "internalType": "uint256"
        }
      ],
      "stateMutability": "view"
    },
    {
      "type": "function",
      "name": "__ERC20IssuanceBlacklist_init",
      "inputs": [
        {
          "name": "name_",
          "type": "string",
          "internalType": "string"
        },
        {
          "name": "symbol_",
          "type": "string",
          "internalType": "string"
        },
        {
          "name": "decimals_",
          "type": "uint8",
          "internalType": "uint8"
        },
        {
          "name": "maxSupply_",
          "type": "uint256",
          "internalType": "uint256"
        }
      ],
      "outputs": [],
      "stateMutability": "nonpayable"
    },
    {
      "type": "function",
      "name": "__ERC20Issuance_init",
      "inputs": [
        {
          "name": "name_",
          "type": "string",
          "internalType": "string"
        },
        {
          "name": "symbol_",
          "type": "string",
          "internalType": "string"
        },
        {
          "name": "decimals_",
          "type": "uint8",
          "internalType": "uint8"
        },
        {
          "name": "maxSupply_",
          "type": "uint256",
          "internalType": "uint256"
        }
      ],
      "outputs": [],
      "stateMutability": "nonpayable"
    },
    {
      "type": "function",
      "name": "addToBlacklist",
      "inputs": [
        {
          "name": "account_",
          "type": "address",
          "internalType": "address"
        }
      ],
      "outputs": [],
      "stateMutability": "nonpayable"
    },
    {
      "type": "function",
      "name": "addToBlacklistBatched",
      "inputs": [
        {
          "name": "accounts_",
          "type": "address[]",
          "internalType": "address[]"
        }
      ],
      "outputs": [],
      "stateMutability": "nonpayable"
    },
    {
      "type": "function",
      "name": "allowance",
      "inputs": [
        {
          "name": "owner",
          "type": "address",
          "internalType": "address"
        },
        {
          "name": "spender",
          "type": "address",
          "internalType": "address"
        }
      ],
      "outputs": [
        {
          "name": "",
          "type": "uint256",
          "internalType": "uint256"
        }
      ],
      "stateMutability": "view"
    },
    {
      "type": "function",
      "name": "allowedMinters",
      "inputs": [
        {
          "name": "",
          "type": "address",
          "internalType": "address"
        }
      ],
      "outputs": [
        {
          "name": "",
          "type": "bool",
          "internalType": "bool"
        }
      ],
      "stateMutability": "view"
    },
    {
      "type": "function",
      "name": "approve",
      "inputs": [
        {
          "name": "spender",
          "type": "address",
          "internalType": "address"
        },
        {
          "name": "value",
          "type": "uint256",
          "internalType": "uint256"
        }
      ],
      "outputs": [
        {
          "name": "",
          "type": "bool",
          "internalType": "bool"
        }
      ],
      "stateMutability": "nonpayable"
    },
    {
      "type": "function",
      "name": "balanceOf",
      "inputs": [
        {
          "name": "account",
          "type": "address",
          "internalType": "address"
        }
      ],
      "outputs": [
        {
          "name": "",
          "type": "uint256",
          "internalType": "uint256"
        }
      ],
      "stateMutability": "view"
    },
    {
      "type": "function",
      "name": "burn",
      "inputs": [
        {
          "name": "_from",
          "type": "address",
          "internalType": "address"
        },
        {
          "name": "_amount",
          "type": "uint256",
          "internalType": "uint256"
        }
      ],
      "outputs": [],
      "stateMutability": "nonpayable"
    },
    {
      "type": "function",
      "name": "cap",
      "inputs": [],
      "outputs": [
        {
          "name": "",
          "type": "uint256",
          "internalType": "uint256"
        }
      ],
      "stateMutability": "view"
    },
    {
      "type": "function",
      "name": "decimals",
      "inputs": [],
      "outputs": [
        {
          "name": "",
          "type": "uint8",
          "internalType": "uint8"
        }
      ],
      "stateMutability": "view"
    },
    {
      "type": "function",
      "name": "isBlacklistManager",
      "inputs": [
        {
          "name": "account_",
          "type": "address",
          "internalType": "address"
        }
      ],
      "outputs": [
        {
          "name": "",
          "type": "bool",
          "internalType": "bool"
        }
      ],
      "stateMutability": "view"
    },
    {
      "type": "function",
      "name": "isBlacklisted",
      "inputs": [
        {
          "name": "account_",
          "type": "address",
          "internalType": "address"
        }
      ],
      "outputs": [
        {
          "name": "",
          "type": "bool",
          "internalType": "bool"
        }
      ],
      "stateMutability": "view"
    },
    {
      "type": "function",
      "name": "mint",
      "inputs": [
        {
          "name": "_to",
          "type": "address",
          "internalType": "address"
        },
        {
          "name": "_amount",
          "type": "uint256",
          "internalType": "uint256"
        }
      ],
      "outputs": [],
      "stateMutability": "nonpayable"
    },
    {
      "type": "function",
      "name": "name",
      "inputs": [],
      "outputs": [
        {
          "name": "",
          "type": "string",
          "internalType": "string"
        }
      ],
      "stateMutability": "view"
    },
    {
      "type": "function",
      "name": "owner",
      "inputs": [],
      "outputs": [
        {
          "name": "",
          "type": "address",
          "internalType": "address"
        }
      ],
      "stateMutability": "view"
    },
    {
      "type": "function",
      "name": "removeFromBlacklist",
      "inputs": [
        {
          "name": "account_",
          "type": "address",
          "internalType": "address"
        }
      ],
      "outputs": [],
      "stateMutability": "nonpayable"
    },
    {
      "type": "function",
      "name": "removeFromBlacklistBatched",
      "inputs": [
        {
          "name": "accounts_",
          "type": "address[]",
          "internalType": "address[]"
        }
      ],
      "outputs": [],
      "stateMutability": "nonpayable"
    },
    {
      "type": "function",
      "name": "renounceOwnership",
      "inputs": [],
      "outputs": [],
      "stateMutability": "nonpayable"
    },
    {
      "type": "function",
      "name": "setBlacklistManager",
      "inputs": [
        {
          "name": "manager_",
          "type": "address",
          "internalType": "address"
        },
        {
          "name": "allowed_",
          "type": "bool",
          "internalType": "bool"
        }
      ],
      "outputs": [],
      "stateMutability": "nonpayable"
    },
    {
      "type": "function",
      "name": "setMinter",
      "inputs": [
        {
          "name": "_minter",
          "type": "address",
          "internalType": "address"
        },
        {
          "name": "_allowed",
          "type": "bool",
          "internalType": "bool"
        }
      ],
      "outputs": [],
      "stateMutability": "nonpayable"
    },
    {
      "type": "function",
      "name": "spendAllowance",
      "inputs": [
        {
          "name": "_from",
          "type": "address",
          "internalType": "address"
        },
        {
          "name": "_spender",
          "type": "address",
          "internalType": "address"
        },
        {
          "name": "_amount",
          "type": "uint256",
          "internalType": "uint256"
        }
      ],
      "outputs": [],
      "stateMutability": "nonpayable"
    },
    {
      "type": "function",
      "name": "symbol",
      "inputs": [],
      "outputs": [
        {
          "name": "",
          "type": "string",
          "internalType": "string"
        }
      ],
      "stateMutability": "view"
    },
    {
      "type": "function",
      "name": "totalSupply",
      "inputs": [],
      "outputs": [
        {
          "name": "",
          "type": "uint256",
          "internalType": "uint256"
        }
      ],
      "stateMutability": "view"
    },
    {
      "type": "function",
      "name": "transfer",
      "inputs": [
        {
          "name": "to",
          "type": "address",
          "internalType": "address"
        },
        {
          "name": "value",
          "type": "uint256",
          "internalType": "uint256"
        }
      ],
      "outputs": [
        {
          "name": "",
          "type": "bool",
          "internalType": "bool"
        }
      ],
      "stateMutability": "nonpayable"
    },
    {
      "type": "function",
      "name": "transferFrom",
      "inputs": [
        {
          "name": "from",
          "type": "address",
          "internalType": "address"
        },
        {
          "name": "to",
          "type": "address",
          "internalType": "address"
        },
        {
          "name": "value",
          "type": "uint256",
          "internalType": "uint256"
        }
      ],
      "outputs": [
        {
          "name": "",
          "type": "bool",
          "internalType": "bool"
        }
      ],
      "stateMutability": "nonpayable"
    },
    {
      "type": "function",
      "name": "transferOwnership",
      "inputs": [
        {
          "name": "newOwner",
          "type": "address",
          "internalType": "address"
        }
      ],
      "outputs": [],
      "stateMutability": "nonpayable"
    },
    {
      "type": "event",
      "name": "AddedToBlacklist",
      "inputs": [
        {
          "name": "account_",
          "type": "address",
          "indexed": true,
          "internalType": "address"
        },
        {
          "name": "blacklistManager_",
          "type": "address",
          "indexed": true,
          "internalType": "address"
        }
      ],
      "anonymous": false
    },
    {
      "type": "event",
      "name": "Approval",
      "inputs": [
        {
          "name": "owner",
          "type": "address",
          "indexed": true,
          "internalType": "address"
        },
        {
          "name": "spender",
          "type": "address",
          "indexed": true,
          "internalType": "address"
        },
        {
          "name": "value",
          "type": "uint256",
          "indexed": false,
          "internalType": "uint256"
        }
      ],
      "anonymous": false
    },
    {
      "type": "event",
      "name": "BlacklistManagerUpdated",
      "inputs": [
        {
          "name": "account_",
          "type": "address",
          "indexed": true,
          "internalType": "address"
        },
        {
          "name": "allowed_",
          "type": "bool",
          "indexed": false,
          "internalType": "bool"
        },
        {
          "name": "tokenOwner_",
          "type": "address",
          "indexed": true,
          "internalType": "address"
        }
      ],
      "anonymous": false
    },
    {
      "type": "event",
      "name": "Initialized",
      "inputs": [
        {
          "name": "version",
          "type": "uint64",
          "indexed": false,
          "internalType": "uint64"
        }
      ],
      "anonymous": false
    },
    {
      "type": "event",
      "name": "MinterSet",
      "inputs": [
        {
          "name": "minter",
          "type": "address",
          "indexed": true,
          "internalType": "address"
        },
        {
          "name": "allowed",
          "type": "bool",
          "indexed": false,
          "internalType": "bool"
        }
      ],
      "anonymous": false
    },
    {
      "type": "event",
      "name": "OwnershipTransferred",
      "inputs": [
        {
          "name": "previousOwner",
          "type": "address",
          "indexed": true,
          "internalType": "address"
        },
        {
          "name": "newOwner",
          "type": "address",
          "indexed": true,
          "internalType": "address"
        }
      ],
      "anonymous": false
    },
    {
      "type": "event",
      "name": "RemovedFromBlacklist",
      "inputs": [
        {
          "name": "account_",
          "type": "address",
          "indexed": true,
          "internalType": "address"
        },
        {
          "name": "blacklistManager_",
          "type": "address",
          "indexed": true,
          "internalType": "address"
        }
      ],
      "anonymous": false
    },
    {
      "type": "event",
      "name": "Transfer",
      "inputs": [
        {
          "name": "from",
          "type": "address",
          "indexed": true,
          "internalType": "address"
        },
        {
          "name": "to",
          "type": "address",
          "indexed": true,
          "internalType": "address"
        },
        {
          "name": "value",
          "type": "uint256",
          "indexed": false,
          "internalType": "uint256"
        }
      ],
      "anonymous": false
    },
    {
      "type": "error",
      "name": "ERC20ExceededCap",
      "inputs": [
        {
          "name": "increasedSupply",
          "type": "uint256",
          "internalType": "uint256"
        },
        {
          "name": "cap",
          "type": "uint256",
          "internalType": "uint256"
        }
      ]
    },
    {
      "type": "error",
      "name": "ERC20InsufficientAllowance",
      "inputs": [
        {
          "name": "spender",
          "type": "address",
          "internalType": "address"
        },
        {
          "name": "allowance",
          "type": "uint256",
          "internalType": "uint256"
        },
        {
          "name": "needed",
          "type": "uint256",
          "internalType": "uint256"
        }
      ]
    },
    {
      "type": "error",
      "name": "ERC20InsufficientBalance",
      "inputs": [
        {
          "name": "sender",
          "type": "address",
          "internalType": "address"
        },
        {
          "name": "balance",
          "type": "uint256",
          "internalType": "uint256"
        },
        {
          "name": "needed",
          "type": "uint256",
          "internalType": "uint256"
        }
      ]
    },
    {
      "type": "error",
      "name": "ERC20InvalidApprover",
      "inputs": [
        {
          "name": "approver",
          "type": "address",
          "internalType": "address"
        }
      ]
    },
    {
      "type": "error",
      "name": "ERC20InvalidCap",
      "inputs": [
        {
          "name": "cap",
          "type": "uint256",
          "internalType": "uint256"
        }
      ]
    },
    {
      "type": "error",
      "name": "ERC20InvalidReceiver",
      "inputs": [
        {
          "name": "receiver",
          "type": "address",
          "internalType": "address"
        }
      ]
    },
    {
      "type": "error",
      "name": "ERC20InvalidSender",
      "inputs": [
        {
          "name": "sender",
          "type": "address",
          "internalType": "address"
        }
      ]
    },
    {
      "type": "error",
      "name": "ERC20InvalidSpender",
      "inputs": [
        {
          "name": "spender",
          "type": "address",
          "internalType": "address"
        }
      ]
    },
    {
      "type": "error",
      "name": "ERC20Issuance_Blacklist_BatchLimitExceeded",
      "inputs": [
        {
          "name": "provided_",
          "type": "uint256",
          "internalType": "uint256"
        },
        {
          "name": "limit_",
          "type": "uint256",
          "internalType": "uint256"
        }
      ]
    },
    {
      "type": "error",
      "name": "ERC20Issuance_Blacklist_BlacklistedAddress",
      "inputs": [
        {
          "name": "account_",
          "type": "address",
          "internalType": "address"
        }
      ]
    },
    {
      "type": "error",
      "name": "ERC20Issuance_Blacklist_NotBlacklistManager",
      "inputs": []
    },
    {
      "type": "error",
      "name": "ERC20Issuance_Blacklist_ZeroAddress",
      "inputs": []
    },
    {
      "type": "error",
      "name": "IERC20Issuance__CallerIsNotMinter",
      "inputs": []
    },
    {
      "type": "error",
      "name": "InvalidInitialization",
      "inputs": []
    },
    {
      "type": "error",
      "name": "NotInitializing",
      "inputs": []
    },
    {
      "type": "error",
      "name": "OwnableInvalidOwner",
      "inputs": [
        {
          "name": "owner",
          "type": "address",
          "internalType": "address"
        }
      ]
    },
    {
      "type": "error",
      "name": "OwnableUnauthorizedAccount",
      "inputs": [
        {
          "name": "account",
          "type": "address",
          "internalType": "address"
        }
      ]
    }
  ],
  "bytecode": {
    "object": "0x608060405234801561000f575f80fd5b5061001861001d565b6100cf565b7ff0c57e16840df040f15088dc2f81fe391c3923bec73e23a9662efc9c229c6a00805468010000000000000000900460ff161561006d5760405163f92ee8a960e01b815260040160405180910390fd5b80546001600160401b03908116146100cc5780546001600160401b0319166001600160401b0390811782556040519081527fc7f505b2f371ae2175ee4913f4499e1f2633a7b5936321eed1cdaeb6115181d29060200160405180910390a15b50565b611930806100dc5f395ff3fe608060405234801561000f575f80fd5b50600436106101bb575f3560e01c8063878fa724116100f3578063cf456ae711610093578063dd62ed3e1161006e578063dd62ed3e14610421578063dd8aaa4f14610478578063f2fde38b1461048b578063fe575a871461049e575f80fd5b8063cf456ae7146103e8578063d075d0c1146103fb578063d28de4fe1461040e575f80fd5b806395d89b41116100ce57806395d89b41146103a75780639dc29fac146103af578063a9059cbb146103c2578063b9cfc791146103d5575f80fd5b8063878fa724146103525780638da5cb5b146103655780639559c0bd1461039f575f80fd5b806340c10f191161015e5780634fc6f4f7116101395780634fc6f4f7146102dd578063537df3b6146102f057806370a0823114610303578063715018a61461034a575f80fd5b806340c10f1914610293578063423afa66146102a857806344337ea1146102ca575f80fd5b806323b872dd1161019957806323b872dd14610231578063313ce56714610244578063355274ea1461025957806339c5fe5b14610280575f80fd5b806306fdde03146101bf578063095ea7b3146101dd57806318160ddd14610200575b5f80fd5b6101c76104c9565b6040516101d49190611462565b60405180910390f35b6101f06101eb3660046114c9565b61059c565b60405190151581526020016101d4565b7f52c63247e1f47db19d5ce0460030c497f067ca4cebf71ba98eeadabe20bace02545b6040519081526020016101d4565b6101f061023f3660046114f1565b6105b5565b60015460405160ff90911681526020016101d4565b7f0f070392f17d5f958cc1ac31867dabecfc5c9758b4a419a200803226d7155d0054610223565b6101f061028e36600461152a565b6105d8565b6102a66102a13660046114c9565b6105f8565b005b6101f06102b636600461152a565b5f6020819052908152604090205460ff1681565b6102a66102d836600461152a565b610635565b6102a66102eb36600461154a565b610680565b6102a66102fe36600461152a565b610692565b61022361031136600461152a565b6001600160a01b03165f9081527f52c63247e1f47db19d5ce0460030c497f067ca4cebf71ba98eeadabe20bace00602052604090205490565b6102a66106c1565b6102a6610360366004611634565b6106d4565b7f9016d09d72d40fdae2fd8ceac6b6234c7706214fd39c1cd1e609a0528c199300546040516001600160a01b0390911681526020016101d4565b61022360c881565b6101c76107f3565b6102a66103bd3660046114c9565b610844565b6101f06103d03660046114c9565b61087d565b6102a66103e33660046116b2565b61088a565b6102a66103f636600461154a565b61091c565b6102a66104093660046116b2565b61092e565b6102a661041c366004611634565b6109b6565b61022361042f36600461175a565b6001600160a01b039182165f9081527f52c63247e1f47db19d5ce0460030c497f067ca4cebf71ba98eeadabe20bace016020908152604080832093909416825291909152205490565b6102a66104863660046114f1565b610ae4565b6102a661049936600461152a565b610b1e565b6101f06104ac36600461152a565b6001600160a01b03165f9081526034602052604090205460ff1690565b7f52c63247e1f47db19d5ce0460030c497f067ca4cebf71ba98eeadabe20bace0380546060917f52c63247e1f47db19d5ce0460030c497f067ca4cebf71ba98eeadabe20bace009161051a9061178b565b80601f01602080910402602001604051908101604052809291908181526020018280546105469061178b565b80156105915780601f1061056857610100808354040283529160200191610591565b820191905f5260205f20905b81548152906001019060200180831161057457829003601f168201915b505050505091505090565b5f336105a9818585610b58565b60019150505b92915050565b5f336105c2858285610b65565b6105cd858585610bff565b506001949350505050565b6001600160a01b0381165f9081526035602052604081205460ff166105af565b335f9081526020819052604090205460ff1661062757604051634199e25360e11b815260040160405180910390fd5b6106318282610c5c565b5050565b610657335b6001600160a01b03165f9081526035602052604090205460ff1690565b61067457604051634a2ece7160e01b815260040160405180910390fd5b61067d81610c90565b50565b610688610d41565b6106318282610d9c565b61069b3361063a565b6106b857604051634a2ece7160e01b815260040160405180910390fd5b61067d81610e39565b6106c9610d41565b6106d25f610ea3565b565b7ff0c57e16840df040f15088dc2f81fe391c3923bec73e23a9662efc9c229c6a008054600160401b810460ff16159067ffffffffffffffff165f811580156107195750825b90505f8267ffffffffffffffff1660011480156107355750303b155b905081158015610743575080155b156107615760405163f92ee8a960e01b815260040160405180910390fd5b845467ffffffffffffffff19166001178555831561079057845468ff00000000000000001916600160401b1785555b61079c898989896109b6565b83156107e857845468ff000000000000000019168555604051600181527fc7f505b2f371ae2175ee4913f4499e1f2633a7b5936321eed1cdaeb6115181d2906020015b60405180910390a15b505050505050505050565b7f52c63247e1f47db19d5ce0460030c497f067ca4cebf71ba98eeadabe20bace0480546060917f52c63247e1f47db19d5ce0460030c497f067ca4cebf71ba98eeadabe20bace009161051a9061178b565b335f9081526020819052604090205460ff1661087357604051634199e25360e11b815260040160405180910390fd5b6106318282610f2b565b5f336105a9818585610bff565b6108933361063a565b6108b057604051634a2ece7160e01b815260040160405180910390fd5b805160c88111156108e3576040516358451eed60e11b81526004810182905260c860248201526044015b60405180910390fd5b5f5b818110156109175761090f838281518110610902576109026117c3565b6020026020010151610c90565b6001016108e5565b505050565b610924610d41565b6106318282610f5f565b6109373361063a565b61095457604051634a2ece7160e01b815260040160405180910390fd5b805160c8811115610982576040516358451eed60e11b81526004810182905260c860248201526044016108da565b5f5b81811015610917576109ae8382815181106109a1576109a16117c3565b6020026020010151610e39565b600101610984565b7ff0c57e16840df040f15088dc2f81fe391c3923bec73e23a9662efc9c229c6a008054600160401b810460ff16159067ffffffffffffffff165f811580156109fb5750825b90505f8267ffffffffffffffff166001148015610a175750303b155b905081158015610a25575080155b15610a435760405163f92ee8a960e01b815260040160405180910390fd5b845467ffffffffffffffff191660011785558315610a7257845468ff00000000000000001916600160401b1785555b610a7c8989610fbb565b610a8586610fcd565b610a8e33610fde565b6001805460ff191660ff891617905583156107e857845468ff000000000000000019168555604051600181527fc7f505b2f371ae2175ee4913f4499e1f2633a7b5936321eed1cdaeb6115181d2906020016107df565b335f9081526020819052604090205460ff16610b1357604051634199e25360e11b815260040160405180910390fd5b610917838383610b65565b610b26610d41565b6001600160a01b038116610b4f57604051631e4fbdf760e01b81525f60048201526024016108da565b61067d81610ea3565b6109178383836001610fef565b6001600160a01b038381165f9081527f52c63247e1f47db19d5ce0460030c497f067ca4cebf71ba98eeadabe20bace0160209081526040808320938616835292905220545f198114610bf95781811015610beb57604051637dc7a0d960e11b81526001600160a01b038416600482015260248101829052604481018390526064016108da565b610bf984848484035f610fef565b50505050565b6001600160a01b038316610c2857604051634b637e8f60e11b81525f60048201526024016108da565b6001600160a01b038216610c515760405163ec442f0560e01b81525f60048201526024016108da565b6109178383836110e6565b6001600160a01b038216610c855760405163ec442f0560e01b81525f60048201526024016108da565b6106315f83836110e6565b6001600160a01b038116610cb7576040516362c6e65560e01b815260040160405180910390fd5b6001600160a01b0381165f9081526034602052604090205460ff1661067d576001600160a01b0381165f908152603460205260409020805460ff19166001179055610cff3390565b6001600160a01b0316816001600160a01b03167f708802ac7da0a63d9f6b2df693b53345ad263e42d74c245110e1ec1e03a1567e60405160405180910390a350565b33610d737f9016d09d72d40fdae2fd8ceac6b6234c7706214fd39c1cd1e609a0528c199300546001600160a01b031690565b6001600160a01b0316146106d25760405163118cdaa760e01b81523360048201526024016108da565b6001600160a01b038216610dc3576040516362c6e65560e01b815260040160405180910390fd5b6001600160a01b0382165f908152603560205260409020805460ff1916821515179055336001600160a01b0316826001600160a01b03167f030d7e4e9eac43e950f70d4c6be972ca8968070a3fcf9730763317dbda2a564e83604051610e2d911515815260200190565b60405180910390a35050565b6001600160a01b0381165f9081526034602052604090205460ff161561067d576001600160a01b0381165f81815260346020526040808220805460ff19169055513392917f576a9aef294e1b4baf3617fde4cbc80ba5344d5eb508222f29e558981704a45791a350565b7f9016d09d72d40fdae2fd8ceac6b6234c7706214fd39c1cd1e609a0528c19930080547fffffffffffffffffffffffff000000000000000000000000000000000000000081166001600160a01b03848116918217845560405192169182907f8be0079c531659141344cd1fd0a4f28419497f9722a3daafe3b4186f6b6457e0905f90a3505050565b6001600160a01b038216610f5457604051634b637e8f60e11b81525f60048201526024016108da565b610631825f836110e6565b6001600160a01b0382165f8181526020818152604091829020805460ff191685151590811790915591519182527f583b0aa0e528532caf4b907c11d7a8158a122fe2a6fb80cd9b09776ebea8d92d910160405180910390a25050565b610fc3611179565b61063182826111c2565b610fd5611179565b61067d81611225565b610fe6611179565b61067d81611274565b7f52c63247e1f47db19d5ce0460030c497f067ca4cebf71ba98eeadabe20bace006001600160a01b0385166110395760405163e602df0560e01b81525f60048201526024016108da565b6001600160a01b03841661106257604051634a1406b160e11b81525f60048201526024016108da565b6001600160a01b038086165f908152600183016020908152604080832093881683529290522083905581156110df57836001600160a01b0316856001600160a01b03167f8c5be1e5ebec7d5bd14f71427d1e84f3dd0314c0f7b2291e5b200ac8c7c3b925856040516110d691815260200190565b60405180910390a35b5050505050565b6001600160a01b0383165f9081526034602052604090205460ff161561112a5760405163022a56f160e21b81526001600160a01b03841660048201526024016108da565b6001600160a01b0382165f9081526034602052604090205460ff161561116e5760405163022a56f160e21b81526001600160a01b03831660048201526024016108da565b61091783838361127c565b7ff0c57e16840df040f15088dc2f81fe391c3923bec73e23a9662efc9c229c6a0054600160401b900460ff166106d257604051631afcd79f60e31b815260040160405180910390fd5b6111ca611179565b7f52c63247e1f47db19d5ce0460030c497f067ca4cebf71ba98eeadabe20bace007f52c63247e1f47db19d5ce0460030c497f067ca4cebf71ba98eeadabe20bace03611216848261181b565b5060048101610bf9838261181b565b61122d611179565b7f0f070392f17d5f958cc1ac31867dabecfc5c9758b4a419a200803226d7155d005f8290036112715760405163392e1e2760e01b81525f60048201526024016108da565b55565b610b26611179565b611287838383611316565b6001600160a01b038316610917575f6112be7f0f070392f17d5f958cc1ac31867dabecfc5c9758b4a419a200803226d7155d005490565b90505f6112e97f52c63247e1f47db19d5ce0460030c497f067ca4cebf71ba98eeadabe20bace025490565b9050818111156110df5760405163279e7e1560e21b815260048101829052602481018390526044016108da565b7f52c63247e1f47db19d5ce0460030c497f067ca4cebf71ba98eeadabe20bace006001600160a01b0384166113635781816002015f82825461135891906118db565b909155506113d39050565b6001600160a01b0384165f90815260208290526040902054828110156113b55760405163391434e360e21b81526001600160a01b038616600482015260248101829052604481018490526064016108da565b6001600160a01b0385165f9081526020839052604090209083900390555b6001600160a01b0383166113f157600281018054839003905561140f565b6001600160a01b0383165f9081526020829052604090208054830190555b826001600160a01b0316846001600160a01b03167fddf252ad1be2c89b69c2b068fc378daa952ba7f163c4a11628f55a4df523b3ef8460405161145491815260200190565b60405180910390a350505050565b5f602080835283518060208501525f5b8181101561148e57858101830151858201604001528201611472565b505f604082860101526040601f19601f8301168501019250505092915050565b80356001600160a01b03811681146114c4575f80fd5b919050565b5f80604083850312156114da575f80fd5b6114e3836114ae565b946020939093013593505050565b5f805f60608486031215611503575f80fd5b61150c846114ae565b925061151a602085016114ae565b9150604084013590509250925092565b5f6020828403121561153a575f80fd5b611543826114ae565b9392505050565b5f806040838503121561155b575f80fd5b611564836114ae565b915060208301358015158114611578575f80fd5b809150509250929050565b634e487b7160e01b5f52604160045260245ffd5b604051601f8201601f1916810167ffffffffffffffff811182821017156115c0576115c0611583565b604052919050565b5f82601f8301126115d7575f80fd5b813567ffffffffffffffff8111156115f1576115f1611583565b611604601f8201601f1916602001611597565b818152846020838601011115611618575f80fd5b816020850160208301375f918101602001919091529392505050565b5f805f8060808587031215611647575f80fd5b843567ffffffffffffffff8082111561165e575f80fd5b61166a888389016115c8565b9550602087013591508082111561167f575f80fd5b5061168c878288016115c8565b935050604085013560ff811681146116a2575f80fd5b9396929550929360600135925050565b5f60208083850312156116c3575f80fd5b823567ffffffffffffffff808211156116da575f80fd5b818501915085601f8301126116ed575f80fd5b8135818111156116ff576116ff611583565b8060051b9150611710848301611597565b8181529183018401918481019088841115611729575f80fd5b938501935b8385101561174e5761173f856114ae565b8252938501939085019061172e565b98975050505050505050565b5f806040838503121561176b575f80fd5b611774836114ae565b9150611782602084016114ae565b90509250929050565b600181811c9082168061179f57607f821691505b6020821081036117bd57634e487b7160e01b5f52602260045260245ffd5b50919050565b634e487b7160e01b5f52603260045260245ffd5b601f82111561091757805f5260205f20601f840160051c810160208510156117fc5750805b601f840160051c820191505b818110156110df575f8155600101611808565b815167ffffffffffffffff81111561183557611835611583565b61184981611843845461178b565b846117d7565b602080601f83116001811461187c575f84156118655750858301515b5f19600386901b1c1916600185901b1785556118d3565b5f85815260208120601f198616915b828110156118aa5788860151825594840194600190910190840161188b565b50858210156118c757878501515f19600388901b60f8161c191681555b505060018460011b0185555b505050505050565b808201808211156105af57634e487b7160e01b5f52601160045260245ffdfea2646970667358221220a3ee8bcd1664ea732da8221424b3f6ac41f312170ebee9c68ed37c6406d046ae64736f6c63430008170033",
    "linkReferences": {}
  },
  "methodIdentifiers": {
    "BATCH_LIMIT()": "9559c0bd",
    "__ERC20IssuanceBlacklist_init(string,string,uint8,uint256)": "878fa724",
    "__ERC20Issuance_init(string,string,uint8,uint256)": "d28de4fe",
    "addToBlacklist(address)": "44337ea1",
    "addToBlacklistBatched(address[])": "b9cfc791",
    "allowance(address,address)": "dd62ed3e",
    "allowedMinters(address)": "423afa66",
    "approve(address,uint256)": "095ea7b3",
    "balanceOf(address)": "70a08231",
    "burn(address,uint256)": "9dc29fac",
    "cap()": "355274ea",
    "decimals()": "313ce567",
    "isBlacklistManager(address)": "39c5fe5b",
    "isBlacklisted(address)": "fe575a87",
    "mint(address,uint256)": "40c10f19",
    "name()": "06fdde03",
    "owner()": "8da5cb5b",
    "removeFromBlacklist(address)": "537df3b6",
    "removeFromBlacklistBatched(address[])": "d075d0c1",
    "renounceOwnership()": "715018a6",
    "setBlacklistManager(address,bool)": "4fc6f4f7",
    "setMinter(address,bool)": "cf456ae7",
    "spendAllowance(address,address,uint256)": "dd8aaa4f",
    "symbol()": "95d89b41",
    "totalSupply()": "18160ddd",
    "transfer(address,uint256)": "a9059cbb",
    "transferFrom(address,address,uint256)": "23b872dd",
    "transferOwnership(address)": "f2fde38b"
  },
  "id": 95
}