{
  "abi": [
    {
      "type": "constructor",
      "inputs": [
        {
          "name": "name_",
          "type": "string",
          "internalType": "string"
        },
        {
          "name": "symbol_",
          "type": "string",
          "internalType": "string"
        },
        {
          "name": "decimals_",
          "type": "uint8",
          "internalType": "uint8"
        },
        {
          "name": "initialSupply_",
          "type": "uint256",
          "internalType": "uint256"
        },
        {
          "name": "initialAdmin_",
          "type": "address",
          "internalType": "address"
        },
        {
          "name": "initialBlacklistManager_",
          "type": "address",
          "internalType": "address"
        }
      ],
      "stateMutability": "nonpayable"
    },
    {
      "type": "function",
      "name": "BATCH_LIMIT",
      "inputs": [],
      "outputs": [
        {
          "name": "",
          "type": "uint256",
          "internalType": "uint256"
        }
      ],
      "stateMutability": "view"
    },
    {
      "type": "function",
      "name": "addToBlacklist",
      "inputs": [
        {
          "name": "account_",
          "type": "address",
          "internalType": "address"
        }
      ],
      "outputs": [],
      "stateMutability": "nonpayable"
    },
    {
      "type": "function",
      "name": "addToBlacklistBatchAddresses",
      "inputs": [
        {
          "name": "accounts_",
          "type": "address[]",
          "internalType": "address[]"
        }
      ],
      "outputs": [],
      "stateMutability": "nonpayable"
    },
    {
      "type": "function",
      "name": "allowance",
      "inputs": [
        {
          "name": "owner",
          "type": "address",
          "internalType": "address"
        },
        {
          "name": "spender",
          "type": "address",
          "internalType": "address"
        }
      ],
      "outputs": [
        {
          "name": "",
          "type": "uint256",
          "internalType": "uint256"
        }
      ],
      "stateMutability": "view"
    },
    {
      "type": "function",
      "name": "allowedMinters",
      "inputs": [
        {
          "name": "",
          "type": "address",
          "internalType": "address"
        }
      ],
      "outputs": [
        {
          "name": "",
          "type": "bool",
          "internalType": "bool"
        }
      ],
      "stateMutability": "view"
    },
    {
      "type": "function",
      "name": "approve",
      "inputs": [
        {
          "name": "spender",
          "type": "address",
          "internalType": "address"
        },
        {
          "name": "value",
          "type": "uint256",
          "internalType": "uint256"
        }
      ],
      "outputs": [
        {
          "name": "",
          "type": "bool",
          "internalType": "bool"
        }
      ],
      "stateMutability": "nonpayable"
    },
    {
      "type": "function",
      "name": "balanceOf",
      "inputs": [
        {
          "name": "account",
          "type": "address",
          "internalType": "address"
        }
      ],
      "outputs": [
        {
          "name": "",
          "type": "uint256",
          "internalType": "uint256"
        }
      ],
      "stateMutability": "view"
    },
    {
      "type": "function",
      "name": "burn",
      "inputs": [
        {
          "name": "_from",
          "type": "address",
          "internalType": "address"
        },
        {
          "name": "_amount",
          "type": "uint256",
          "internalType": "uint256"
        }
      ],
      "outputs": [],
      "stateMutability": "nonpayable"
    },
    {
      "type": "function",
      "name": "cap",
      "inputs": [],
      "outputs": [
        {
          "name": "",
          "type": "uint256",
          "internalType": "uint256"
        }
      ],
      "stateMutability": "view"
    },
    {
      "type": "function",
      "name": "decimals",
      "inputs": [],
      "outputs": [
        {
          "name": "",
          "type": "uint8",
          "internalType": "uint8"
        }
      ],
      "stateMutability": "view"
    },
    {
      "type": "function",
      "name": "isBlacklistManager",
      "inputs": [
        {
          "name": "account_",
          "type": "address",
          "internalType": "address"
        }
      ],
      "outputs": [
        {
          "name": "",
          "type": "bool",
          "internalType": "bool"
        }
      ],
      "stateMutability": "view"
    },
    {
      "type": "function",
      "name": "isBlacklisted",
      "inputs": [
        {
          "name": "account_",
          "type": "address",
          "internalType": "address"
        }
      ],
      "outputs": [
        {
          "name": "",
          "type": "bool",
          "internalType": "bool"
        }
      ],
      "stateMutability": "view"
    },
    {
      "type": "function",
      "name": "mint",
      "inputs": [
        {
          "name": "_to",
          "type": "address",
          "internalType": "address"
        },
        {
          "name": "_amount",
          "type": "uint256",
          "internalType": "uint256"
        }
      ],
      "outputs": [],
      "stateMutability": "nonpayable"
    },
    {
      "type": "function",
      "name": "name",
      "inputs": [],
      "outputs": [
        {
          "name": "",
          "type": "string",
          "internalType": "string"
        }
      ],
      "stateMutability": "view"
    },
    {
      "type": "function",
      "name": "owner",
      "inputs": [],
      "outputs": [
        {
          "name": "",
          "type": "address",
          "internalType": "address"
        }
      ],
      "stateMutability": "view"
    },
    {
      "type": "function",
      "name": "removeFromBlacklist",
      "inputs": [
        {
          "name": "account_",
          "type": "address",
          "internalType": "address"
        }
      ],
      "outputs": [],
      "stateMutability": "nonpayable"
    },
    {
      "type": "function",
      "name": "removeFromBlacklistBatchAddresses",
      "inputs": [
        {
          "name": "accounts_",
          "type": "address[]",
          "internalType": "address[]"
        }
      ],
      "outputs": [],
      "stateMutability": "nonpayable"
    },
    {
      "type": "function",
      "name": "renounceOwnership",
      "inputs": [],
      "outputs": [],
      "stateMutability": "nonpayable"
    },
    {
      "type": "function",
      "name": "setBlacklistManager",
      "inputs": [
        {
          "name": "manager_",
          "type": "address",
          "internalType": "address"
        },
        {
          "name": "allowed_",
          "type": "bool",
          "internalType": "bool"
        }
      ],
      "outputs": [],
      "stateMutability": "nonpayable"
    },
    {
      "type": "function",
      "name": "setMinter",
      "inputs": [
        {
          "name": "_minter",
          "type": "address",
          "internalType": "address"
        },
        {
          "name": "_allowed",
          "type": "bool",
          "internalType": "bool"
        }
      ],
      "outputs": [],
      "stateMutability": "nonpayable"
    },
    {
      "type": "function",
      "name": "symbol",
      "inputs": [],
      "outputs": [
        {
          "name": "",
          "type": "string",
          "internalType": "string"
        }
      ],
      "stateMutability": "view"
    },
    {
      "type": "function",
      "name": "totalSupply",
      "inputs": [],
      "outputs": [
        {
          "name": "",
          "type": "uint256",
          "internalType": "uint256"
        }
      ],
      "stateMutability": "view"
    },
    {
      "type": "function",
      "name": "transfer",
      "inputs": [
        {
          "name": "to",
          "type": "address",
          "internalType": "address"
        },
        {
          "name": "value",
          "type": "uint256",
          "internalType": "uint256"
        }
      ],
      "outputs": [
        {
          "name": "",
          "type": "bool",
          "internalType": "bool"
        }
      ],
      "stateMutability": "nonpayable"
    },
    {
      "type": "function",
      "name": "transferFrom",
      "inputs": [
        {
          "name": "from",
          "type": "address",
          "internalType": "address"
        },
        {
          "name": "to",
          "type": "address",
          "internalType": "address"
        },
        {
          "name": "value",
          "type": "uint256",
          "internalType": "uint256"
        }
      ],
      "outputs": [
        {
          "name": "",
          "type": "bool",
          "internalType": "bool"
        }
      ],
      "stateMutability": "nonpayable"
    },
    {
      "type": "function",
      "name": "transferOwnership",
      "inputs": [
        {
          "name": "newOwner",
          "type": "address",
          "internalType": "address"
        }
      ],
      "outputs": [],
      "stateMutability": "nonpayable"
    },
    {
      "type": "event",
      "name": "AddedToBlacklist",
      "inputs": [
        {
          "name": "account_",
          "type": "address",
          "indexed": true,
          "internalType": "address"
        }
      ],
      "anonymous": false
    },
    {
      "type": "event",
      "name": "Approval",
      "inputs": [
        {
          "name": "owner",
          "type": "address",
          "indexed": true,
          "internalType": "address"
        },
        {
          "name": "spender",
          "type": "address",
          "indexed": true,
          "internalType": "address"
        },
        {
          "name": "value",
          "type": "uint256",
          "indexed": false,
          "internalType": "uint256"
        }
      ],
      "anonymous": false
    },
    {
      "type": "event",
      "name": "BlacklistManagerUpdated",
      "inputs": [
        {
          "name": "account_",
          "type": "address",
          "indexed": true,
          "internalType": "address"
        },
        {
          "name": "allowed_",
          "type": "bool",
          "indexed": false,
          "internalType": "bool"
        }
      ],
      "anonymous": false
    },
    {
      "type": "event",
      "name": "MinterSet",
      "inputs": [
        {
          "name": "minter",
          "type": "address",
          "indexed": true,
          "internalType": "address"
        },
        {
          "name": "allowed",
          "type": "bool",
          "indexed": false,
          "internalType": "bool"
        }
      ],
      "anonymous": false
    },
    {
      "type": "event",
      "name": "OwnershipTransferred",
      "inputs": [
        {
          "name": "previousOwner",
          "type": "address",
          "indexed": true,
          "internalType": "address"
        },
        {
          "name": "newOwner",
          "type": "address",
          "indexed": true,
          "internalType": "address"
        }
      ],
      "anonymous": false
    },
    {
      "type": "event",
      "name": "RemovedFromBlacklist",
      "inputs": [
        {
          "name": "account_",
          "type": "address",
          "indexed": true,
          "internalType": "address"
        }
      ],
      "anonymous": false
    },
    {
      "type": "event",
      "name": "Transfer",
      "inputs": [
        {
          "name": "from",
          "type": "address",
          "indexed": true,
          "internalType": "address"
        },
        {
          "name": "to",
          "type": "address",
          "indexed": true,
          "internalType": "address"
        },
        {
          "name": "value",
          "type": "uint256",
          "indexed": false,
          "internalType": "uint256"
        }
      ],
      "anonymous": false
    },
    {
      "type": "error",
      "name": "ERC20ExceededCap",
      "inputs": [
        {
          "name": "increasedSupply",
          "type": "uint256",
          "internalType": "uint256"
        },
        {
          "name": "cap",
          "type": "uint256",
          "internalType": "uint256"
        }
      ]
    },
    {
      "type": "error",
      "name": "ERC20InsufficientAllowance",
      "inputs": [
        {
          "name": "spender",
          "type": "address",
          "internalType": "address"
        },
        {
          "name": "allowance",
          "type": "uint256",
          "internalType": "uint256"
        },
        {
          "name": "needed",
          "type": "uint256",
          "internalType": "uint256"
        }
      ]
    },
    {
      "type": "error",
      "name": "ERC20InsufficientBalance",
      "inputs": [
        {
          "name": "sender",
          "type": "address",
          "internalType": "address"
        },
        {
          "name": "balance",
          "type": "uint256",
          "internalType": "uint256"
        },
        {
          "name": "needed",
          "type": "uint256",
          "internalType": "uint256"
        }
      ]
    },
    {
      "type": "error",
      "name": "ERC20InvalidApprover",
      "inputs": [
        {
          "name": "approver",
          "type": "address",
          "internalType": "address"
        }
      ]
    },
    {
      "type": "error",
      "name": "ERC20InvalidCap",
      "inputs": [
        {
          "name": "cap",
          "type": "uint256",
          "internalType": "uint256"
        }
      ]
    },
    {
      "type": "error",
      "name": "ERC20InvalidReceiver",
      "inputs": [
        {
          "name": "receiver",
          "type": "address",
          "internalType": "address"
        }
      ]
    },
    {
      "type": "error",
      "name": "ERC20InvalidSender",
      "inputs": [
        {
          "name": "sender",
          "type": "address",
          "internalType": "address"
        }
      ]
    },
    {
      "type": "error",
      "name": "ERC20InvalidSpender",
      "inputs": [
        {
          "name": "spender",
          "type": "address",
          "internalType": "address"
        }
      ]
    },
    {
      "type": "error",
      "name": "ERC20Issuance_Blacklist_BatchLimitExceeded",
      "inputs": [
        {
          "name": "provided",
          "type": "uint256",
          "internalType": "uint256"
        },
        {
          "name": "limit",
          "type": "uint256",
          "internalType": "uint256"
        }
      ]
    },
    {
      "type": "error",
      "name": "ERC20Issuance_Blacklist_BlacklistedAddress",
      "inputs": [
        {
          "name": "account",
          "type": "address",
          "internalType": "address"
        }
      ]
    },
    {
      "type": "error",
      "name": "ERC20Issuance_Blacklist_NotBlacklistManager",
      "inputs": []
    },
    {
      "type": "error",
      "name": "ERC20Issuance_Blacklist_ZeroAddress",
      "inputs": []
    },
    {
      "type": "error",
      "name": "IERC20Issuance__CallerIsNotMinter",
      "inputs": []
    },
    {
      "type": "error",
      "name": "OwnableInvalidOwner",
      "inputs": [
        {
          "name": "owner",
          "type": "address",
          "internalType": "address"
        }
      ]
    },
    {
      "type": "error",
      "name": "OwnableUnauthorizedAccount",
      "inputs": [
        {
          "name": "account",
          "type": "address",
          "internalType": "address"
        }
      ]
    }
  ],
  "bytecode": {
    "object": "0x60c06040523480156200001157600080fd5b50604051620017343803806200173483398101604081905262000034916200030b565b85858585858082868660036200004b83826200044e565b5060046200005a82826200044e565b50505080600003620000875760405163392e1e2760e01b8152600060048201526024015b60405180910390fd5b6080526001600160a01b038116620000b657604051631e4fbdf760e01b8152600060048201526024016200007e565b620000c181620000f3565b50620000cf81600162000145565b505060ff1660a05250620000e79050816001620001a5565b5050505050506200051a565b600580546001600160a01b038381166001600160a01b0319831681179093556040519116919082907f8be0079c531659141344cd1fd0a4f28419497f9722a3daafe3b4186f6b6457e090600090a35050565b6001600160a01b038216600081815260066020908152604091829020805460ff191685151590811790915591519182527f583b0aa0e528532caf4b907c11d7a8158a122fe2a6fb80cd9b09776ebea8d92d91015b60405180910390a25050565b6001600160a01b038216620001cd576040516362c6e65560e01b815260040160405180910390fd5b6001600160a01b038216600081815260086020908152604091829020805460ff191685151590811790915591519182527f45c726725db69800dfdea06b168ff321aa8b770b249eaa27ae3d9a06c4a29259910162000199565b634e487b7160e01b600052604160045260246000fd5b600082601f8301126200024e57600080fd5b81516001600160401b03808211156200026b576200026b62000226565b604051601f8301601f19908116603f0116810190828211818310171562000296576200029662000226565b8160405283815260209250866020858801011115620002b457600080fd5b600091505b83821015620002d85785820183015181830184015290820190620002b9565b6000602085830101528094505050505092915050565b80516001600160a01b03811681146200030657600080fd5b919050565b60008060008060008060c087890312156200032557600080fd5b86516001600160401b03808211156200033d57600080fd5b6200034b8a838b016200023c565b975060208901519150808211156200036257600080fd5b506200037189828a016200023c565b955050604087015160ff811681146200038957600080fd5b60608801519094509250620003a160808801620002ee565b9150620003b160a08801620002ee565b90509295509295509295565b600181811c90821680620003d257607f821691505b602082108103620003f357634e487b7160e01b600052602260045260246000fd5b50919050565b601f82111562000449576000816000526020600020601f850160051c81016020861015620004245750805b601f850160051c820191505b81811015620004455782815560010162000430565b5050505b505050565b81516001600160401b038111156200046a576200046a62000226565b62000482816200047b8454620003bd565b84620003f9565b602080601f831160018114620004ba5760008415620004a15750858301515b600019600386901b1c1916600185901b17855562000445565b600085815260208120601f198616915b82811015620004eb57888601518255948401946001909101908401620004ca565b50858210156200050a5787850151600019600388901b60f8161c191681555b5050505050600190811b01905550565b60805160a0516111ed62000547600039600061022a0152600081816102560152610d1801526111ed6000f3fe608060405234801561001057600080fd5b50600436106101a35760003560e01c8063537df3b6116100ee57806395d89b4111610097578063cf456ae711610071578063cf456ae7146103aa578063dd62ed3e146103bd578063f2fde38b146103f6578063fe575a871461040957600080fd5b806395d89b411461037c5780639dc29fac14610384578063a9059cbb1461039757600080fd5b8063715018a6116100c8578063715018a6146103515780638da5cb5b146103595780639559c0bd1461037457600080fd5b8063537df3b61461030257806369aa43e31461031557806370a082311461032857600080fd5b8063355274ea11610150578063423afa661161012a578063423afa66146102b957806344337ea1146102dc5780634fc6f4f7146102ef57600080fd5b8063355274ea1461025457806339c5fe5b1461027a57806340c10f19146102a657600080fd5b806323b872dd1161018157806323b872dd146101fb5780632659e5da1461020e578063313ce5671461022357600080fd5b806306fdde03146101a8578063095ea7b3146101c657806318160ddd146101e9575b600080fd5b6101b0610435565b6040516101bd9190610e94565b60405180910390f35b6101d96101d4366004610eff565b6104c7565b60405190151581526020016101bd565b6002545b6040519081526020016101bd565b6101d9610209366004610f29565b6104e1565b61022161021c366004610f65565b610505565b005b60405160ff7f00000000000000000000000000000000000000000000000000000000000000001681526020016101bd565b7f00000000000000000000000000000000000000000000000000000000000000006101ed565b6101d9610288366004610fda565b6001600160a01b031660009081526008602052604090205460ff1690565b6102216102b4366004610eff565b6105aa565b6101d96102c7366004610fda565b60066020526000908152604090205460ff1681565b6102216102ea366004610fda565b6105e8565b6102216102fd366004610ffc565b6106ac565b610221610310366004610fda565b6106be565b61022161032336600461104e565b61077f565b6101ed610336366004610fda565b6001600160a01b031660009081526020819052604090205490565b610221610817565b6005546040516001600160a01b0390911681526020016101bd565b6101ed60c881565b6101b061082b565b610221610392366004610eff565b61083a565b6101d96103a5366004610eff565b610874565b6102216103b8366004610ffc565b610882565b6101ed6103cb366004611113565b6001600160a01b03918216600090815260016020908152604080832093909416825291909152205490565b610221610404366004610fda565b610894565b6101d9610417366004610fda565b6001600160a01b031660009081526007602052604090205460ff1690565b60606003805461044490611146565b80601f016020809104026020016040519081016040528092919081815260200182805461047090611146565b80156104bd5780601f10610492576101008083540402835291602001916104bd565b820191906000526020600020905b8154815290600101906020018083116104a057829003601f168201915b5050505050905090565b6000336104d58185856108cf565b60019150505b92915050565b6000336104ef8582856108dc565b6104fa858585610954565b506001949350505050565b3360009081526008602052604090205460ff1661053557604051634a2ece7160e01b815260040160405180910390fd5b8060c8811115610567576040516358451eed60e11b81526004810182905260c860248201526044015b60405180910390fd5b60005b818110156105a45761059c84848381811061058757610587611180565b90506020020160208101906103109190610fda565b60010161056a565b50505050565b3360009081526006602052604090205460ff166105da57604051634199e25360e11b815260040160405180910390fd5b6105e482826109b3565b5050565b3360009081526008602052604090205460ff1661061857604051634a2ece7160e01b815260040160405180910390fd5b6001600160a01b03811661063f576040516362c6e65560e01b815260040160405180910390fd5b6001600160a01b03811660009081526007602052604090205460ff166106a9576001600160a01b038116600081815260076020526040808220805460ff19166001179055517ff9b68063b051b82957fa193585681240904fed808db8b30fc5a2d2202c6ed6279190a25b50565b6106b46109e9565b6105e48282610a16565b3360009081526008602052604090205460ff166106ee57604051634a2ece7160e01b815260040160405180910390fd5b6001600160a01b038116610715576040516362c6e65560e01b815260040160405180910390fd5b6001600160a01b03811660009081526007602052604090205460ff16156106a9576001600160a01b038116600081815260076020526040808220805460ff19169055517f2b6bf71b58b3583add364b3d9060ebf8019650f65f5be35f5464b9cb3e4ba2d49190a250565b3360009081526008602052604090205460ff166107af57604051634a2ece7160e01b815260040160405180910390fd5b805160c88111156107dd576040516358451eed60e11b81526004810182905260c8602482015260440161055e565b60005b818110156108125761080a8382815181106107fd576107fd611180565b60200260200101516105e8565b6001016107e0565b505050565b61081f6109e9565b6108296000610a9d565b565b60606004805461044490611146565b3360009081526006602052604090205460ff1661086a57604051634199e25360e11b815260040160405180910390fd5b6105e48282610b07565b6000336104d5818585610954565b61088a6109e9565b6105e48282610b3d565b61089c6109e9565b6001600160a01b0381166108c657604051631e4fbdf760e01b81526000600482015260240161055e565b6106a981610a9d565b6108128383836001610b95565b6001600160a01b0383811660009081526001602090815260408083209386168352929052205460001981146105a4578181101561094557604051637dc7a0d960e11b81526001600160a01b0384166004820152602481018290526044810183905260640161055e565b6105a484848484036000610b95565b6001600160a01b03831661097e57604051634b637e8f60e11b81526000600482015260240161055e565b6001600160a01b0382166109a85760405163ec442f0560e01b81526000600482015260240161055e565b610812838383610c6a565b6001600160a01b0382166109dd5760405163ec442f0560e01b81526000600482015260240161055e565b6105e460008383610c6a565b6005546001600160a01b031633146108295760405163118cdaa760e01b815233600482015260240161055e565b6001600160a01b038216610a3d576040516362c6e65560e01b815260040160405180910390fd5b6001600160a01b038216600081815260086020908152604091829020805460ff191685151590811790915591519182527f45c726725db69800dfdea06b168ff321aa8b770b249eaa27ae3d9a06c4a2925991015b60405180910390a25050565b600580546001600160a01b038381167fffffffffffffffffffffffff0000000000000000000000000000000000000000831681179093556040519116919082907f8be0079c531659141344cd1fd0a4f28419497f9722a3daafe3b4186f6b6457e090600090a35050565b6001600160a01b038216610b3157604051634b637e8f60e11b81526000600482015260240161055e565b6105e482600083610c6a565b6001600160a01b038216600081815260066020908152604091829020805460ff191685151590811790915591519182527f583b0aa0e528532caf4b907c11d7a8158a122fe2a6fb80cd9b09776ebea8d92d9101610a91565b6001600160a01b038416610bbf5760405163e602df0560e01b81526000600482015260240161055e565b6001600160a01b038316610be957604051634a1406b160e11b81526000600482015260240161055e565b6001600160a01b03808516600090815260016020908152604080832093871683529290522082905580156105a457826001600160a01b0316846001600160a01b03167f8c5be1e5ebec7d5bd14f71427d1e84f3dd0314c0f7b2291e5b200ac8c7c3b92584604051610c5c91815260200190565b60405180910390a350505050565b6001600160a01b03831660009081526007602052604090205460ff1615610caf5760405163022a56f160e21b81526001600160a01b038416600482015260240161055e565b6001600160a01b03821660009081526007602052604090205460ff1615610cf45760405163022a56f160e21b81526001600160a01b038316600482015260240161055e565b610812838383610d05838383610d6a565b6001600160a01b038316610812576002547f00000000000000000000000000000000000000000000000000000000000000009081811115610d635760405163279e7e1560e21b8152600481018290526024810183905260440161055e565b5050505050565b6001600160a01b038316610d95578060026000828254610d8a9190611196565b90915550610e079050565b6001600160a01b03831660009081526020819052604090205481811015610de85760405163391434e360e21b81526001600160a01b0385166004820152602481018290526044810183905260640161055e565b6001600160a01b03841660009081526020819052604090209082900390555b6001600160a01b038216610e2357600280548290039055610e42565b6001600160a01b03821660009081526020819052604090208054820190555b816001600160a01b0316836001600160a01b03167fddf252ad1be2c89b69c2b068fc378daa952ba7f163c4a11628f55a4df523b3ef83604051610e8791815260200190565b60405180910390a3505050565b60006020808352835180602085015260005b81811015610ec257858101830151858201604001528201610ea6565b506000604082860101526040601f19601f8301168501019250505092915050565b80356001600160a01b0381168114610efa57600080fd5b919050565b60008060408385031215610f1257600080fd5b610f1b83610ee3565b946020939093013593505050565b600080600060608486031215610f3e57600080fd5b610f4784610ee3565b9250610f5560208501610ee3565b9150604084013590509250925092565b60008060208385031215610f7857600080fd5b823567ffffffffffffffff80821115610f9057600080fd5b818501915085601f830112610fa457600080fd5b813581811115610fb357600080fd5b8660208260051b8501011115610fc857600080fd5b60209290920196919550909350505050565b600060208284031215610fec57600080fd5b610ff582610ee3565b9392505050565b6000806040838503121561100f57600080fd5b61101883610ee3565b91506020830135801515811461102d57600080fd5b809150509250929050565b634e487b7160e01b600052604160045260246000fd5b6000602080838503121561106157600080fd5b823567ffffffffffffffff8082111561107957600080fd5b818501915085601f83011261108d57600080fd5b81358181111561109f5761109f611038565b8060051b604051601f19603f830116810181811085821117156110c4576110c4611038565b6040529182528482019250838101850191888311156110e257600080fd5b938501935b82851015611107576110f885610ee3565b845293850193928501926110e7565b98975050505050505050565b6000806040838503121561112657600080fd5b61112f83610ee3565b915061113d60208401610ee3565b90509250929050565b600181811c9082168061115a57607f821691505b60208210810361117a57634e487b7160e01b600052602260045260246000fd5b50919050565b634e487b7160e01b600052603260045260246000fd5b808201808211156104db57634e487b7160e01b600052601160045260246000fdfea2646970667358221220f53dd979bbffdfb60d6e2f01449a3a151b97ffa75c00a4418d4d81dbebbbac9f64736f6c63430008170033",
    "linkReferences": {}
  },
  "methodIdentifiers": {
    "BATCH_LIMIT()": "9559c0bd",
    "addToBlacklist(address)": "44337ea1",
    "addToBlacklistBatchAddresses(address[])": "69aa43e3",
    "allowance(address,address)": "dd62ed3e",
    "allowedMinters(address)": "423afa66",
    "approve(address,uint256)": "095ea7b3",
    "balanceOf(address)": "70a08231",
    "burn(address,uint256)": "9dc29fac",
    "cap()": "355274ea",
    "decimals()": "313ce567",
    "isBlacklistManager(address)": "39c5fe5b",
    "isBlacklisted(address)": "fe575a87",
    "mint(address,uint256)": "40c10f19",
    "name()": "06fdde03",
    "owner()": "8da5cb5b",
    "removeFromBlacklist(address)": "537df3b6",
    "removeFromBlacklistBatchAddresses(address[])": "2659e5da",
    "renounceOwnership()": "715018a6",
    "setBlacklistManager(address,bool)": "4fc6f4f7",
    "setMinter(address,bool)": "cf456ae7",
    "symbol()": "95d89b41",
    "totalSupply()": "18160ddd",
    "transfer(address,uint256)": "a9059cbb",
    "transferFrom(address,address,uint256)": "23b872dd",
    "transferOwnership(address)": "f2fde38b"
  },
  "id": 91
}