{
  "abi": [
    {
      "type": "constructor",
      "inputs": [
        {
          "name": "name_",
          "type": "string",
          "internalType": "string"
        },
        {
          "name": "symbol_",
          "type": "string",
          "internalType": "string"
        },
        {
          "name": "decimals_",
          "type": "uint8",
          "internalType": "uint8"
        },
        {
          "name": "maxSupply_",
          "type": "uint256",
          "internalType": "uint256"
        },
        {
          "name": "initialAdmin_",
          "type": "address",
          "internalType": "address"
        }
      ],
      "stateMutability": "nonpayable"
    },
    {
      "type": "function",
      "name": "allowance",
      "inputs": [
        {
          "name": "owner",
          "type": "address",
          "internalType": "address"
        },
        {
          "name": "spender",
          "type": "address",
          "internalType": "address"
        }
      ],
      "outputs": [
        {
          "name": "",
          "type": "uint256",
          "internalType": "uint256"
        }
      ],
      "stateMutability": "view"
    },
    {
      "type": "function",
      "name": "allowedMinters",
      "inputs": [
        {
          "name": "",
          "type": "address",
          "internalType": "address"
        }
      ],
      "outputs": [
        {
          "name": "",
          "type": "bool",
          "internalType": "bool"
        }
      ],
      "stateMutability": "view"
    },
    {
      "type": "function",
      "name": "approve",
      "inputs": [
        {
          "name": "spender",
          "type": "address",
          "internalType": "address"
        },
        {
          "name": "value",
          "type": "uint256",
          "internalType": "uint256"
        }
      ],
      "outputs": [
        {
          "name": "",
          "type": "bool",
          "internalType": "bool"
        }
      ],
      "stateMutability": "nonpayable"
    },
    {
      "type": "function",
      "name": "balanceOf",
      "inputs": [
        {
          "name": "account",
          "type": "address",
          "internalType": "address"
        }
      ],
      "outputs": [
        {
          "name": "",
          "type": "uint256",
          "internalType": "uint256"
        }
      ],
      "stateMutability": "view"
    },
    {
      "type": "function",
      "name": "burn",
      "inputs": [
        {
          "name": "_from",
          "type": "address",
          "internalType": "address"
        },
        {
          "name": "_amount",
          "type": "uint256",
          "internalType": "uint256"
        }
      ],
      "outputs": [],
      "stateMutability": "nonpayable"
    },
    {
      "type": "function",
      "name": "cap",
      "inputs": [],
      "outputs": [
        {
          "name": "",
          "type": "uint256",
          "internalType": "uint256"
        }
      ],
      "stateMutability": "view"
    },
    {
      "type": "function",
      "name": "decimals",
      "inputs": [],
      "outputs": [
        {
          "name": "",
          "type": "uint8",
          "internalType": "uint8"
        }
      ],
      "stateMutability": "view"
    },
    {
      "type": "function",
      "name": "mint",
      "inputs": [
        {
          "name": "_to",
          "type": "address",
          "internalType": "address"
        },
        {
          "name": "_amount",
          "type": "uint256",
          "internalType": "uint256"
        }
      ],
      "outputs": [],
      "stateMutability": "nonpayable"
    },
    {
      "type": "function",
      "name": "name",
      "inputs": [],
      "outputs": [
        {
          "name": "",
          "type": "string",
          "internalType": "string"
        }
      ],
      "stateMutability": "view"
    },
    {
      "type": "function",
      "name": "owner",
      "inputs": [],
      "outputs": [
        {
          "name": "",
          "type": "address",
          "internalType": "address"
        }
      ],
      "stateMutability": "view"
    },
    {
      "type": "function",
      "name": "renounceOwnership",
      "inputs": [],
      "outputs": [],
      "stateMutability": "nonpayable"
    },
    {
      "type": "function",
      "name": "setMinter",
      "inputs": [
        {
          "name": "_minter",
          "type": "address",
          "internalType": "address"
        },
        {
          "name": "_allowed",
          "type": "bool",
          "internalType": "bool"
        }
      ],
      "outputs": [],
      "stateMutability": "nonpayable"
    },
    {
      "type": "function",
      "name": "symbol",
      "inputs": [],
      "outputs": [
        {
          "name": "",
          "type": "string",
          "internalType": "string"
        }
      ],
      "stateMutability": "view"
    },
    {
      "type": "function",
      "name": "totalSupply",
      "inputs": [],
      "outputs": [
        {
          "name": "",
          "type": "uint256",
          "internalType": "uint256"
        }
      ],
      "stateMutability": "view"
    },
    {
      "type": "function",
      "name": "transfer",
      "inputs": [
        {
          "name": "to",
          "type": "address",
          "internalType": "address"
        },
        {
          "name": "value",
          "type": "uint256",
          "internalType": "uint256"
        }
      ],
      "outputs": [
        {
          "name": "",
          "type": "bool",
          "internalType": "bool"
        }
      ],
      "stateMutability": "nonpayable"
    },
    {
      "type": "function",
      "name": "transferFrom",
      "inputs": [
        {
          "name": "from",
          "type": "address",
          "internalType": "address"
        },
        {
          "name": "to",
          "type": "address",
          "internalType": "address"
        },
        {
          "name": "value",
          "type": "uint256",
          "internalType": "uint256"
        }
      ],
      "outputs": [
        {
          "name": "",
          "type": "bool",
          "internalType": "bool"
        }
      ],
      "stateMutability": "nonpayable"
    },
    {
      "type": "function",
      "name": "transferOwnership",
      "inputs": [
        {
          "name": "newOwner",
          "type": "address",
          "internalType": "address"
        }
      ],
      "outputs": [],
      "stateMutability": "nonpayable"
    },
    {
      "type": "event",
      "name": "Approval",
      "inputs": [
        {
          "name": "owner",
          "type": "address",
          "indexed": true,
          "internalType": "address"
        },
        {
          "name": "spender",
          "type": "address",
          "indexed": true,
          "internalType": "address"
        },
        {
          "name": "value",
          "type": "uint256",
          "indexed": false,
          "internalType": "uint256"
        }
      ],
      "anonymous": false
    },
    {
      "type": "event",
      "name": "MinterSet",
      "inputs": [
        {
          "name": "minter",
          "type": "address",
          "indexed": true,
          "internalType": "address"
        },
        {
          "name": "allowed",
          "type": "bool",
          "indexed": false,
          "internalType": "bool"
        }
      ],
      "anonymous": false
    },
    {
      "type": "event",
      "name": "OwnershipTransferred",
      "inputs": [
        {
          "name": "previousOwner",
          "type": "address",
          "indexed": true,
          "internalType": "address"
        },
        {
          "name": "newOwner",
          "type": "address",
          "indexed": true,
          "internalType": "address"
        }
      ],
      "anonymous": false
    },
    {
      "type": "event",
      "name": "Transfer",
      "inputs": [
        {
          "name": "from",
          "type": "address",
          "indexed": true,
          "internalType": "address"
        },
        {
          "name": "to",
          "type": "address",
          "indexed": true,
          "internalType": "address"
        },
        {
          "name": "value",
          "type": "uint256",
          "indexed": false,
          "internalType": "uint256"
        }
      ],
      "anonymous": false
    },
    {
      "type": "error",
      "name": "ERC20ExceededCap",
      "inputs": [
        {
          "name": "increasedSupply",
          "type": "uint256",
          "internalType": "uint256"
        },
        {
          "name": "cap",
          "type": "uint256",
          "internalType": "uint256"
        }
      ]
    },
    {
      "type": "error",
      "name": "ERC20InsufficientAllowance",
      "inputs": [
        {
          "name": "spender",
          "type": "address",
          "internalType": "address"
        },
        {
          "name": "allowance",
          "type": "uint256",
          "internalType": "uint256"
        },
        {
          "name": "needed",
          "type": "uint256",
          "internalType": "uint256"
        }
      ]
    },
    {
      "type": "error",
      "name": "ERC20InsufficientBalance",
      "inputs": [
        {
          "name": "sender",
          "type": "address",
          "internalType": "address"
        },
        {
          "name": "balance",
          "type": "uint256",
          "internalType": "uint256"
        },
        {
          "name": "needed",
          "type": "uint256",
          "internalType": "uint256"
        }
      ]
    },
    {
      "type": "error",
      "name": "ERC20InvalidApprover",
      "inputs": [
        {
          "name": "approver",
          "type": "address",
          "internalType": "address"
        }
      ]
    },
    {
      "type": "error",
      "name": "ERC20InvalidCap",
      "inputs": [
        {
          "name": "cap",
          "type": "uint256",
          "internalType": "uint256"
        }
      ]
    },
    {
      "type": "error",
      "name": "ERC20InvalidReceiver",
      "inputs": [
        {
          "name": "receiver",
          "type": "address",
          "internalType": "address"
        }
      ]
    },
    {
      "type": "error",
      "name": "ERC20InvalidSender",
      "inputs": [
        {
          "name": "sender",
          "type": "address",
          "internalType": "address"
        }
      ]
    },
    {
      "type": "error",
      "name": "ERC20InvalidSpender",
      "inputs": [
        {
          "name": "spender",
          "type": "address",
          "internalType": "address"
        }
      ]
    },
    {
      "type": "error",
      "name": "IERC20Issuance__CallerIsNotMinter",
      "inputs": []
    },
    {
      "type": "error",
      "name": "OwnableInvalidOwner",
      "inputs": [
        {
          "name": "owner",
          "type": "address",
          "internalType": "address"
        }
      ]
    },
    {
      "type": "error",
      "name": "OwnableUnauthorizedAccount",
      "inputs": [
        {
          "name": "account",
          "type": "address",
          "internalType": "address"
        }
      ]
    }
  ],
  "bytecode": {
    "object": "0x60c06040523480156200001157600080fd5b5060405162000ffd38038062000ffd833981016040819052620000349162000254565b80828686600362000046838262000395565b50600462000055828262000395565b50505080600003620000825760405163392e1e2760e01b8152600060048201526024015b60405180910390fd5b6080526001600160a01b038116620000b157604051631e4fbdf760e01b81526000600482015260240162000079565b620000bc81620000db565b50620000ca8160016200012d565b505060ff1660a05250620004619050565b600580546001600160a01b038381166001600160a01b0319831681179093556040519116919082907f8be0079c531659141344cd1fd0a4f28419497f9722a3daafe3b4186f6b6457e090600090a35050565b6001600160a01b038216600081815260066020908152604091829020805460ff191685151590811790915591519182527f583b0aa0e528532caf4b907c11d7a8158a122fe2a6fb80cd9b09776ebea8d92d910160405180910390a25050565b634e487b7160e01b600052604160045260246000fd5b600082601f830112620001b457600080fd5b81516001600160401b0380821115620001d157620001d16200018c565b604051601f8301601f19908116603f01168101908282118183101715620001fc57620001fc6200018c565b81604052838152602092508660208588010111156200021a57600080fd5b600091505b838210156200023e57858201830151818301840152908201906200021f565b6000602085830101528094505050505092915050565b600080600080600060a086880312156200026d57600080fd5b85516001600160401b03808211156200028557600080fd5b6200029389838a01620001a2565b96506020880151915080821115620002aa57600080fd5b50620002b988828901620001a2565b945050604086015160ff81168114620002d157600080fd5b6060870151608088015191945092506001600160a01b0381168114620002f657600080fd5b809150509295509295909350565b600181811c908216806200031957607f821691505b6020821081036200033a57634e487b7160e01b600052602260045260246000fd5b50919050565b601f82111562000390576000816000526020600020601f850160051c810160208610156200036b5750805b601f850160051c820191505b818110156200038c5782815560010162000377565b5050505b505050565b81516001600160401b03811115620003b157620003b16200018c565b620003c981620003c2845462000304565b8462000340565b602080601f831160018114620004015760008415620003e85750858301515b600019600386901b1c1916600185901b1785556200038c565b600085815260208120601f198616915b82811015620004325788860151825594840194600190910190840162000411565b5085821015620004515787850151600019600388901b60f8161c191681555b5050505050600190811b01905550565b60805160a051610b6f6200048e600039600061018d0152600081816101b901526108000152610b6f6000f3fe608060405234801561001057600080fd5b506004361061011b5760003560e01c806370a08231116100b25780639dc29fac11610081578063cf456ae711610066578063cf456ae71461028f578063dd62ed3e146102a2578063f2fde38b146102db57600080fd5b80639dc29fac14610269578063a9059cbb1461027c57600080fd5b806370a0823114610215578063715018a61461023e5780638da5cb5b1461024657806395d89b411461026157600080fd5b8063313ce567116100ee578063313ce56714610186578063355274ea146101b757806340c10f19146101dd578063423afa66146101f257600080fd5b806306fdde0314610120578063095ea7b31461013e57806318160ddd1461016157806323b872dd14610173575b600080fd5b6101286102ee565b604051610135919061097c565b60405180910390f35b61015161014c3660046109e7565b610380565b6040519015158152602001610135565b6002545b604051908152602001610135565b610151610181366004610a11565b61039a565b60405160ff7f0000000000000000000000000000000000000000000000000000000000000000168152602001610135565b7f0000000000000000000000000000000000000000000000000000000000000000610165565b6101f06101eb3660046109e7565b6103be565b005b610151610200366004610a4d565b60066020526000908152604090205460ff1681565b610165610223366004610a4d565b6001600160a01b031660009081526020819052604090205490565b6101f06103fc565b6005546040516001600160a01b039091168152602001610135565b610128610410565b6101f06102773660046109e7565b61041f565b61015161028a3660046109e7565b610459565b6101f061029d366004610a6f565b610467565b6101656102b0366004610aab565b6001600160a01b03918216600090815260016020908152604080832093909416825291909152205490565b6101f06102e9366004610a4d565b610479565b6060600380546102fd90610ade565b80601f016020809104026020016040519081016040528092919081815260200182805461032990610ade565b80156103765780601f1061034b57610100808354040283529160200191610376565b820191906000526020600020905b81548152906001019060200180831161035957829003601f168201915b5050505050905090565b60003361038e8185856104bc565b60019150505b92915050565b6000336103a88582856104ce565b6103b385858561054c565b506001949350505050565b3360009081526006602052604090205460ff166103ee57604051634199e25360e11b815260040160405180910390fd5b6103f882826105ab565b5050565b6104046105e1565b61040e600061060e565b565b6060600480546102fd90610ade565b3360009081526006602052604090205460ff1661044f57604051634199e25360e11b815260040160405180910390fd5b6103f88282610678565b60003361038e81858561054c565b61046f6105e1565b6103f882826106ae565b6104816105e1565b6001600160a01b0381166104b057604051631e4fbdf760e01b8152600060048201526024015b60405180910390fd5b6104b98161060e565b50565b6104c9838383600161070d565b505050565b6001600160a01b038381166000908152600160209081526040808320938616835292905220546000198114610546578181101561053757604051637dc7a0d960e11b81526001600160a01b038416600482015260248101829052604481018390526064016104a7565b6105468484848403600061070d565b50505050565b6001600160a01b03831661057657604051634b637e8f60e11b8152600060048201526024016104a7565b6001600160a01b0382166105a05760405163ec442f0560e01b8152600060048201526024016104a7565b6104c98383836107e2565b6001600160a01b0382166105d55760405163ec442f0560e01b8152600060048201526024016104a7565b6103f8600083836107e2565b6005546001600160a01b0316331461040e5760405163118cdaa760e01b81523360048201526024016104a7565b600580546001600160a01b038381167fffffffffffffffffffffffff0000000000000000000000000000000000000000831681179093556040519116919082907f8be0079c531659141344cd1fd0a4f28419497f9722a3daafe3b4186f6b6457e090600090a35050565b6001600160a01b0382166106a257604051634b637e8f60e11b8152600060048201526024016104a7565b6103f8826000836107e2565b6001600160a01b038216600081815260066020908152604091829020805460ff191685151590811790915591519182527f583b0aa0e528532caf4b907c11d7a8158a122fe2a6fb80cd9b09776ebea8d92d910160405180910390a25050565b6001600160a01b0384166107375760405163e602df0560e01b8152600060048201526024016104a7565b6001600160a01b03831661076157604051634a1406b160e11b8152600060048201526024016104a7565b6001600160a01b038085166000908152600160209081526040808320938716835292905220829055801561054657826001600160a01b0316846001600160a01b03167f8c5be1e5ebec7d5bd14f71427d1e84f3dd0314c0f7b2291e5b200ac8c7c3b925846040516107d491815260200190565b60405180910390a350505050565b6107ed838383610852565b6001600160a01b0383166104c9576002547f0000000000000000000000000000000000000000000000000000000000000000908181111561084b5760405163279e7e1560e21b815260048101829052602481018390526044016104a7565b5050505050565b6001600160a01b03831661087d5780600260008282546108729190610b18565b909155506108ef9050565b6001600160a01b038316600090815260208190526040902054818110156108d05760405163391434e360e21b81526001600160a01b038516600482015260248101829052604481018390526064016104a7565b6001600160a01b03841660009081526020819052604090209082900390555b6001600160a01b03821661090b5760028054829003905561092a565b6001600160a01b03821660009081526020819052604090208054820190555b816001600160a01b0316836001600160a01b03167fddf252ad1be2c89b69c2b068fc378daa952ba7f163c4a11628f55a4df523b3ef8360405161096f91815260200190565b60405180910390a3505050565b60006020808352835180602085015260005b818110156109aa5785810183015185820160400152820161098e565b506000604082860101526040601f19601f8301168501019250505092915050565b80356001600160a01b03811681146109e257600080fd5b919050565b600080604083850312156109fa57600080fd5b610a03836109cb565b946020939093013593505050565b600080600060608486031215610a2657600080fd5b610a2f846109cb565b9250610a3d602085016109cb565b9150604084013590509250925092565b600060208284031215610a5f57600080fd5b610a68826109cb565b9392505050565b60008060408385031215610a8257600080fd5b610a8b836109cb565b915060208301358015158114610aa057600080fd5b809150509250929050565b60008060408385031215610abe57600080fd5b610ac7836109cb565b9150610ad5602084016109cb565b90509250929050565b600181811c90821680610af257607f821691505b602082108103610b1257634e487b7160e01b600052602260045260246000fd5b50919050565b8082018082111561039457634e487b7160e01b600052601160045260246000fdfea2646970667358221220a9bfb5c5c20706a86afab827653f8ff975327b66b0754c3a10cb4f785a9afa8f64736f6c63430008170033",
    "linkReferences": {}
  },
  "methodIdentifiers": {
    "allowance(address,address)": "dd62ed3e",
    "allowedMinters(address)": "423afa66",
    "approve(address,uint256)": "095ea7b3",
    "balanceOf(address)": "70a08231",
    "burn(address,uint256)": "9dc29fac",
    "cap()": "355274ea",
    "decimals()": "313ce567",
    "mint(address,uint256)": "40c10f19",
    "name()": "06fdde03",
    "owner()": "8da5cb5b",
    "renounceOwnership()": "715018a6",
    "setMinter(address,bool)": "cf456ae7",
    "symbol()": "95d89b41",
    "totalSupply()": "18160ddd",
    "transfer(address,uint256)": "a9059cbb",
    "transferFrom(address,address,uint256)": "23b872dd",
    "transferOwnership(address)": "f2fde38b"
  },
  "id": 90
}