{
  "abi": [
    {
      "type": "constructor",
      "inputs": [
        {
          "name": "name_",
          "type": "string",
          "internalType": "string"
        },
        {
          "name": "symbol_",
          "type": "string",
          "internalType": "string"
        },
        {
          "name": "decimals_",
          "type": "uint8",
          "internalType": "uint8"
        },
        {
          "name": "maxSupply_",
          "type": "uint256",
          "internalType": "uint256"
        },
        {
          "name": "initialAdmin_",
          "type": "address",
          "internalType": "address"
        }
      ],
      "stateMutability": "nonpayable"
    },
    {
      "type": "function",
      "name": "BATCH_LIMIT",
      "inputs": [],
      "outputs": [
        {
          "name": "",
          "type": "uint256",
          "internalType": "uint256"
        }
      ],
      "stateMutability": "view"
    },
    {
      "type": "function",
      "name": "addToBlacklist",
      "inputs": [
        {
          "name": "account_",
          "type": "address",
          "internalType": "address"
        }
      ],
      "outputs": [],
      "stateMutability": "nonpayable"
    },
    {
      "type": "function",
      "name": "addToBlacklistBatched",
      "inputs": [
        {
          "name": "accounts_",
          "type": "address[]",
          "internalType": "address[]"
        }
      ],
      "outputs": [],
      "stateMutability": "nonpayable"
    },
    {
      "type": "function",
      "name": "allowance",
      "inputs": [
        {
          "name": "owner",
          "type": "address",
          "internalType": "address"
        },
        {
          "name": "spender",
          "type": "address",
          "internalType": "address"
        }
      ],
      "outputs": [
        {
          "name": "",
          "type": "uint256",
          "internalType": "uint256"
        }
      ],
      "stateMutability": "view"
    },
    {
      "type": "function",
      "name": "allowedMinters",
      "inputs": [
        {
          "name": "",
          "type": "address",
          "internalType": "address"
        }
      ],
      "outputs": [
        {
          "name": "",
          "type": "bool",
          "internalType": "bool"
        }
      ],
      "stateMutability": "view"
    },
    {
      "type": "function",
      "name": "approve",
      "inputs": [
        {
          "name": "spender",
          "type": "address",
          "internalType": "address"
        },
        {
          "name": "value",
          "type": "uint256",
          "internalType": "uint256"
        }
      ],
      "outputs": [
        {
          "name": "",
          "type": "bool",
          "internalType": "bool"
        }
      ],
      "stateMutability": "nonpayable"
    },
    {
      "type": "function",
      "name": "balanceOf",
      "inputs": [
        {
          "name": "account",
          "type": "address",
          "internalType": "address"
        }
      ],
      "outputs": [
        {
          "name": "",
          "type": "uint256",
          "internalType": "uint256"
        }
      ],
      "stateMutability": "view"
    },
    {
      "type": "function",
      "name": "burn",
      "inputs": [
        {
          "name": "_from",
          "type": "address",
          "internalType": "address"
        },
        {
          "name": "_amount",
          "type": "uint256",
          "internalType": "uint256"
        }
      ],
      "outputs": [],
      "stateMutability": "nonpayable"
    },
    {
      "type": "function",
      "name": "cap",
      "inputs": [],
      "outputs": [
        {
          "name": "",
          "type": "uint256",
          "internalType": "uint256"
        }
      ],
      "stateMutability": "view"
    },
    {
      "type": "function",
      "name": "decimals",
      "inputs": [],
      "outputs": [
        {
          "name": "",
          "type": "uint8",
          "internalType": "uint8"
        }
      ],
      "stateMutability": "view"
    },
    {
      "type": "function",
      "name": "isBlacklistManager",
      "inputs": [
        {
          "name": "account_",
          "type": "address",
          "internalType": "address"
        }
      ],
      "outputs": [
        {
          "name": "",
          "type": "bool",
          "internalType": "bool"
        }
      ],
      "stateMutability": "view"
    },
    {
      "type": "function",
      "name": "isBlacklisted",
      "inputs": [
        {
          "name": "account_",
          "type": "address",
          "internalType": "address"
        }
      ],
      "outputs": [
        {
          "name": "",
          "type": "bool",
          "internalType": "bool"
        }
      ],
      "stateMutability": "view"
    },
    {
      "type": "function",
      "name": "mint",
      "inputs": [
        {
          "name": "_to",
          "type": "address",
          "internalType": "address"
        },
        {
          "name": "_amount",
          "type": "uint256",
          "internalType": "uint256"
        }
      ],
      "outputs": [],
      "stateMutability": "nonpayable"
    },
    {
      "type": "function",
      "name": "name",
      "inputs": [],
      "outputs": [
        {
          "name": "",
          "type": "string",
          "internalType": "string"
        }
      ],
      "stateMutability": "view"
    },
    {
      "type": "function",
      "name": "owner",
      "inputs": [],
      "outputs": [
        {
          "name": "",
          "type": "address",
          "internalType": "address"
        }
      ],
      "stateMutability": "view"
    },
    {
      "type": "function",
      "name": "removeFromBlacklist",
      "inputs": [
        {
          "name": "account_",
          "type": "address",
          "internalType": "address"
        }
      ],
      "outputs": [],
      "stateMutability": "nonpayable"
    },
    {
      "type": "function",
      "name": "removeFromBlacklistBatched",
      "inputs": [
        {
          "name": "accounts_",
          "type": "address[]",
          "internalType": "address[]"
        }
      ],
      "outputs": [],
      "stateMutability": "nonpayable"
    },
    {
      "type": "function",
      "name": "renounceOwnership",
      "inputs": [],
      "outputs": [],
      "stateMutability": "nonpayable"
    },
    {
      "type": "function",
      "name": "setBlacklistManager",
      "inputs": [
        {
          "name": "manager_",
          "type": "address",
          "internalType": "address"
        },
        {
          "name": "allowed_",
          "type": "bool",
          "internalType": "bool"
        }
      ],
      "outputs": [],
      "stateMutability": "nonpayable"
    },
    {
      "type": "function",
      "name": "setMinter",
      "inputs": [
        {
          "name": "_minter",
          "type": "address",
          "internalType": "address"
        },
        {
          "name": "_allowed",
          "type": "bool",
          "internalType": "bool"
        }
      ],
      "outputs": [],
      "stateMutability": "nonpayable"
    },
    {
      "type": "function",
      "name": "spendAllowance",
      "inputs": [
        {
          "name": "_from",
          "type": "address",
          "internalType": "address"
        },
        {
          "name": "_spender",
          "type": "address",
          "internalType": "address"
        },
        {
          "name": "_amount",
          "type": "uint256",
          "internalType": "uint256"
        }
      ],
      "outputs": [],
      "stateMutability": "nonpayable"
    },
    {
      "type": "function",
      "name": "symbol",
      "inputs": [],
      "outputs": [
        {
          "name": "",
          "type": "string",
          "internalType": "string"
        }
      ],
      "stateMutability": "view"
    },
    {
      "type": "function",
      "name": "totalSupply",
      "inputs": [],
      "outputs": [
        {
          "name": "",
          "type": "uint256",
          "internalType": "uint256"
        }
      ],
      "stateMutability": "view"
    },
    {
      "type": "function",
      "name": "transfer",
      "inputs": [
        {
          "name": "to",
          "type": "address",
          "internalType": "address"
        },
        {
          "name": "value",
          "type": "uint256",
          "internalType": "uint256"
        }
      ],
      "outputs": [
        {
          "name": "",
          "type": "bool",
          "internalType": "bool"
        }
      ],
      "stateMutability": "nonpayable"
    },
    {
      "type": "function",
      "name": "transferFrom",
      "inputs": [
        {
          "name": "from",
          "type": "address",
          "internalType": "address"
        },
        {
          "name": "to",
          "type": "address",
          "internalType": "address"
        },
        {
          "name": "value",
          "type": "uint256",
          "internalType": "uint256"
        }
      ],
      "outputs": [
        {
          "name": "",
          "type": "bool",
          "internalType": "bool"
        }
      ],
      "stateMutability": "nonpayable"
    },
    {
      "type": "function",
      "name": "transferOwnership",
      "inputs": [
        {
          "name": "newOwner",
          "type": "address",
          "internalType": "address"
        }
      ],
      "outputs": [],
      "stateMutability": "nonpayable"
    },
    {
      "type": "event",
      "name": "AddedToBlacklist",
      "inputs": [
        {
          "name": "account_",
          "type": "address",
          "indexed": true,
          "internalType": "address"
        },
        {
          "name": "blacklistManager_",
          "type": "address",
          "indexed": true,
          "internalType": "address"
        }
      ],
      "anonymous": false
    },
    {
      "type": "event",
      "name": "Approval",
      "inputs": [
        {
          "name": "owner",
          "type": "address",
          "indexed": true,
          "internalType": "address"
        },
        {
          "name": "spender",
          "type": "address",
          "indexed": true,
          "internalType": "address"
        },
        {
          "name": "value",
          "type": "uint256",
          "indexed": false,
          "internalType": "uint256"
        }
      ],
      "anonymous": false
    },
    {
      "type": "event",
      "name": "BlacklistManagerUpdated",
      "inputs": [
        {
          "name": "account_",
          "type": "address",
          "indexed": true,
          "internalType": "address"
        },
        {
          "name": "allowed_",
          "type": "bool",
          "indexed": false,
          "internalType": "bool"
        },
        {
          "name": "tokenOwner_",
          "type": "address",
          "indexed": true,
          "internalType": "address"
        }
      ],
      "anonymous": false
    },
    {
      "type": "event",
      "name": "MinterSet",
      "inputs": [
        {
          "name": "minter",
          "type": "address",
          "indexed": true,
          "internalType": "address"
        },
        {
          "name": "allowed",
          "type": "bool",
          "indexed": false,
          "internalType": "bool"
        }
      ],
      "anonymous": false
    },
    {
      "type": "event",
      "name": "OwnershipTransferred",
      "inputs": [
        {
          "name": "previousOwner",
          "type": "address",
          "indexed": true,
          "internalType": "address"
        },
        {
          "name": "newOwner",
          "type": "address",
          "indexed": true,
          "internalType": "address"
        }
      ],
      "anonymous": false
    },
    {
      "type": "event",
      "name": "RemovedFromBlacklist",
      "inputs": [
        {
          "name": "account_",
          "type": "address",
          "indexed": true,
          "internalType": "address"
        },
        {
          "name": "blacklistManager_",
          "type": "address",
          "indexed": true,
          "internalType": "address"
        }
      ],
      "anonymous": false
    },
    {
      "type": "event",
      "name": "Transfer",
      "inputs": [
        {
          "name": "from",
          "type": "address",
          "indexed": true,
          "internalType": "address"
        },
        {
          "name": "to",
          "type": "address",
          "indexed": true,
          "internalType": "address"
        },
        {
          "name": "value",
          "type": "uint256",
          "indexed": false,
          "internalType": "uint256"
        }
      ],
      "anonymous": false
    },
    {
      "type": "error",
      "name": "ERC20ExceededCap",
      "inputs": [
        {
          "name": "increasedSupply",
          "type": "uint256",
          "internalType": "uint256"
        },
        {
          "name": "cap",
          "type": "uint256",
          "internalType": "uint256"
        }
      ]
    },
    {
      "type": "error",
      "name": "ERC20InsufficientAllowance",
      "inputs": [
        {
          "name": "spender",
          "type": "address",
          "internalType": "address"
        },
        {
          "name": "allowance",
          "type": "uint256",
          "internalType": "uint256"
        },
        {
          "name": "needed",
          "type": "uint256",
          "internalType": "uint256"
        }
      ]
    },
    {
      "type": "error",
      "name": "ERC20InsufficientBalance",
      "inputs": [
        {
          "name": "sender",
          "type": "address",
          "internalType": "address"
        },
        {
          "name": "balance",
          "type": "uint256",
          "internalType": "uint256"
        },
        {
          "name": "needed",
          "type": "uint256",
          "internalType": "uint256"
        }
      ]
    },
    {
      "type": "error",
      "name": "ERC20InvalidApprover",
      "inputs": [
        {
          "name": "approver",
          "type": "address",
          "internalType": "address"
        }
      ]
    },
    {
      "type": "error",
      "name": "ERC20InvalidCap",
      "inputs": [
        {
          "name": "cap",
          "type": "uint256",
          "internalType": "uint256"
        }
      ]
    },
    {
      "type": "error",
      "name": "ERC20InvalidReceiver",
      "inputs": [
        {
          "name": "receiver",
          "type": "address",
          "internalType": "address"
        }
      ]
    },
    {
      "type": "error",
      "name": "ERC20InvalidSender",
      "inputs": [
        {
          "name": "sender",
          "type": "address",
          "internalType": "address"
        }
      ]
    },
    {
      "type": "error",
      "name": "ERC20InvalidSpender",
      "inputs": [
        {
          "name": "spender",
          "type": "address",
          "internalType": "address"
        }
      ]
    },
    {
      "type": "error",
      "name": "ERC20Issuance_Blacklist_BatchLimitExceeded",
      "inputs": [
        {
          "name": "provided_",
          "type": "uint256",
          "internalType": "uint256"
        },
        {
          "name": "limit_",
          "type": "uint256",
          "internalType": "uint256"
        }
      ]
    },
    {
      "type": "error",
      "name": "ERC20Issuance_Blacklist_BlacklistedAddress",
      "inputs": [
        {
          "name": "account_",
          "type": "address",
          "internalType": "address"
        }
      ]
    },
    {
      "type": "error",
      "name": "ERC20Issuance_Blacklist_NotBlacklistManager",
      "inputs": []
    },
    {
      "type": "error",
      "name": "ERC20Issuance_Blacklist_ZeroAddress",
      "inputs": []
    },
    {
      "type": "error",
      "name": "IERC20Issuance__CallerIsNotMinter",
      "inputs": []
    },
    {
      "type": "error",
      "name": "OwnableInvalidOwner",
      "inputs": [
        {
          "name": "owner",
          "type": "address",
          "internalType": "address"
        }
      ]
    },
    {
      "type": "error",
      "name": "OwnableUnauthorizedAccount",
      "inputs": [
        {
          "name": "account",
          "type": "address",
          "internalType": "address"
        }
      ]
    }
  ],
  "bytecode": {
    "object": "0x60c060405234801562000010575f80fd5b50604051620015b7380380620015b7833981016040819052620000339162000251565b84848484848082868660036200004a838262000383565b50600462000059828262000383565b505050805f03620000845760405163392e1e2760e01b81525f60048201526024015b60405180910390fd5b6080526001600160a01b038116620000b257604051631e4fbdf760e01b81525f60048201526024016200007b565b620000bd81620000e1565b50620000cb81600162000132565b505060ff1660a052506200044f95505050505050565b600580546001600160a01b038381166001600160a01b0319831681179093556040519116919082907f8be0079c531659141344cd1fd0a4f28419497f9722a3daafe3b4186f6b6457e0905f90a35050565b6001600160a01b0382165f81815260066020908152604091829020805460ff191685151590811790915591519182527f583b0aa0e528532caf4b907c11d7a8158a122fe2a6fb80cd9b09776ebea8d92d910160405180910390a25050565b634e487b7160e01b5f52604160045260245ffd5b5f82601f830112620001b4575f80fd5b81516001600160401b0380821115620001d157620001d162000190565b604051601f8301601f19908116603f01168101908282118183101715620001fc57620001fc62000190565b816040528381526020925086602085880101111562000219575f80fd5b5f91505b838210156200023c57858201830151818301840152908201906200021d565b5f602085830101528094505050505092915050565b5f805f805f60a0868803121562000266575f80fd5b85516001600160401b03808211156200027d575f80fd5b6200028b89838a01620001a4565b96506020880151915080821115620002a1575f80fd5b50620002b088828901620001a4565b945050604086015160ff81168114620002c7575f80fd5b6060870151608088015191945092506001600160a01b0381168114620002eb575f80fd5b809150509295509295909350565b600181811c908216806200030e57607f821691505b6020821081036200032d57634e487b7160e01b5f52602260045260245ffd5b50919050565b601f8211156200037e57805f5260205f20601f840160051c810160208510156200035a5750805b601f840160051c820191505b818110156200037b575f815560010162000366565b50505b505050565b81516001600160401b038111156200039f576200039f62000190565b620003b781620003b08454620002f9565b8462000333565b602080601f831160018114620003ed575f8415620003d55750858301515b5f19600386901b1c1916600185901b17855562000447565b5f85815260208120601f198616915b828110156200041d57888601518255948401946001909101908401620003fc565b50858210156200043b57878501515f19600388901b60f8161c191681555b505060018460011b0185555b505050505050565b60805160a05161113f620004785f395f61021601525f81816102420152610d00015261113f5ff3fe608060405234801561000f575f80fd5b50600436106101a5575f3560e01c8063715018a6116100e8578063b9cfc79111610093578063dd62ed3e1161006e578063dd62ed3e146103a3578063dd8aaa4f146103db578063f2fde38b146103ee578063fe575a8714610401575f80fd5b8063b9cfc7911461036a578063cf456ae71461037d578063d075d0c114610390575f80fd5b806395d89b41116100c357806395d89b411461033c5780639dc29fac14610344578063a9059cbb14610357575f80fd5b8063715018a6146103115780638da5cb5b146103195780639559c0bd14610334575f80fd5b806339c5fe5b1161015357806344337ea11161012e57806344337ea1146102b05780634fc6f4f7146102c3578063537df3b6146102d657806370a08231146102e9575f80fd5b806339c5fe5b1461026657806340c10f1914610279578063423afa661461028e575f80fd5b806323b872dd1161018357806323b872dd146101fc578063313ce5671461020f578063355274ea14610240575f80fd5b806306fdde03146101a9578063095ea7b3146101c757806318160ddd146101ea575b5f80fd5b6101b161042c565b6040516101be9190610e78565b60405180910390f35b6101da6101d5366004610edf565b6104bc565b60405190151581526020016101be565b6002545b6040519081526020016101be565b6101da61020a366004610f07565b6104d5565b60405160ff7f00000000000000000000000000000000000000000000000000000000000000001681526020016101be565b7f00000000000000000000000000000000000000000000000000000000000000006101ee565b6101da610274366004610f40565b6104f8565b61028c610287366004610edf565b610518565b005b6101da61029c366004610f40565b60066020525f908152604090205460ff1681565b61028c6102be366004610f40565b610555565b61028c6102d1366004610f60565b610646565b61028c6102e4366004610f40565b610658565b6101ee6102f7366004610f40565b6001600160a01b03165f9081526020819052604090205490565b61028c6106e8565b6005546040516001600160a01b0390911681526020016101be565b6101ee60c881565b6101b16106fb565b61028c610352366004610edf565b61070a565b6101da610365366004610edf565b610743565b61028c610378366004610fad565b610750565b61028c61038b366004610f60565b6107bc565b61028c61039e366004610fad565b6107ce565b6101ee6103b136600461106d565b6001600160a01b039182165f90815260016020908152604080832093909416825291909152205490565b61028c6103e9366004610f07565b610830565b61028c6103fc366004610f40565b61086a565b6101da61040f366004610f40565b6001600160a01b03165f9081526007602052604090205460ff1690565b60606003805461043b9061109e565b80601f01602080910402602001604051908101604052809291908181526020018280546104679061109e565b80156104b25780601f10610489576101008083540402835291602001916104b2565b820191905f5260205f20905b81548152906001019060200180831161049557829003601f168201915b5050505050905090565b5f336104c98185856108a4565b60019150505b92915050565b5f336104e28582856108b1565b6104ed85858561092c565b506001949350505050565b6001600160a01b0381165f9081526008602052604081205460ff166104cf565b335f9081526006602052604090205460ff1661054757604051634199e25360e11b815260040160405180910390fd5b6105518282610989565b5050565b610577335b6001600160a01b03165f9081526008602052604090205460ff1690565b61059457604051634a2ece7160e01b815260040160405180910390fd5b6001600160a01b0381166105bb576040516362c6e65560e01b815260040160405180910390fd5b6001600160a01b0381165f9081526007602052604090205460ff16610643576001600160a01b0381165f908152600760205260409020805460ff191660011790556106033390565b6001600160a01b0316816001600160a01b03167f708802ac7da0a63d9f6b2df693b53345ad263e42d74c245110e1ec1e03a1567e60405160405180910390a35b50565b61064e6109bd565b61055182826109ea565b6106613361055a565b61067e57604051634a2ece7160e01b815260040160405180910390fd5b6001600160a01b0381165f9081526007602052604090205460ff1615610643576001600160a01b0381165f81815260076020526040808220805460ff19169055513392917f576a9aef294e1b4baf3617fde4cbc80ba5344d5eb508222f29e558981704a45791a350565b6106f06109bd565b6106f95f610a87565b565b60606004805461043b9061109e565b335f9081526006602052604090205460ff1661073957604051634199e25360e11b815260040160405180910390fd5b6105518282610af0565b5f336104c981858561092c565b805160c8811115610783576040516358451eed60e11b81526004810182905260c860248201526044015b60405180910390fd5b5f5b818110156107b7576107af8382815181106107a2576107a26110d6565b6020026020010151610555565b600101610785565b505050565b6107c46109bd565b6105518282610b24565b805160c88111156107fc576040516358451eed60e11b81526004810182905260c8602482015260440161077a565b5f5b818110156107b75761082883828151811061081b5761081b6110d6565b6020026020010151610658565b6001016107fe565b335f9081526006602052604090205460ff1661085f57604051634199e25360e11b815260040160405180910390fd5b6107b78383836108b1565b6108726109bd565b6001600160a01b03811661089b57604051631e4fbdf760e01b81525f600482015260240161077a565b61064381610a87565b6107b78383836001610b82565b6001600160a01b038381165f908152600160209081526040808320938616835292905220545f198114610926578181101561091857604051637dc7a0d960e11b81526001600160a01b0384166004820152602481018290526044810183905260640161077a565b61092684848484035f610b82565b50505050565b6001600160a01b03831661095557604051634b637e8f60e11b81525f600482015260240161077a565b6001600160a01b03821661097e5760405163ec442f0560e01b81525f600482015260240161077a565b6107b7838383610c54565b6001600160a01b0382166109b25760405163ec442f0560e01b81525f600482015260240161077a565b6105515f8383610c54565b6005546001600160a01b031633146106f95760405163118cdaa760e01b815233600482015260240161077a565b6001600160a01b038216610a11576040516362c6e65560e01b815260040160405180910390fd5b6001600160a01b0382165f908152600860205260409020805460ff1916821515179055336001600160a01b0316826001600160a01b03167f030d7e4e9eac43e950f70d4c6be972ca8968070a3fcf9730763317dbda2a564e83604051610a7b911515815260200190565b60405180910390a35050565b600580546001600160a01b038381167fffffffffffffffffffffffff0000000000000000000000000000000000000000831681179093556040519116919082907f8be0079c531659141344cd1fd0a4f28419497f9722a3daafe3b4186f6b6457e0905f90a35050565b6001600160a01b038216610b1957604051634b637e8f60e11b81525f600482015260240161077a565b610551825f83610c54565b6001600160a01b0382165f81815260066020908152604091829020805460ff191685151590811790915591519182527f583b0aa0e528532caf4b907c11d7a8158a122fe2a6fb80cd9b09776ebea8d92d910160405180910390a25050565b6001600160a01b038416610bab5760405163e602df0560e01b81525f600482015260240161077a565b6001600160a01b038316610bd457604051634a1406b160e11b81525f600482015260240161077a565b6001600160a01b038085165f908152600160209081526040808320938716835292905220829055801561092657826001600160a01b0316846001600160a01b03167f8c5be1e5ebec7d5bd14f71427d1e84f3dd0314c0f7b2291e5b200ac8c7c3b92584604051610c4691815260200190565b60405180910390a350505050565b6001600160a01b0383165f9081526007602052604090205460ff1615610c985760405163022a56f160e21b81526001600160a01b038416600482015260240161077a565b6001600160a01b0382165f9081526007602052604090205460ff1615610cdc5760405163022a56f160e21b81526001600160a01b038316600482015260240161077a565b6107b7838383610ced838383610d52565b6001600160a01b0383166107b7576002547f00000000000000000000000000000000000000000000000000000000000000009081811115610d4b5760405163279e7e1560e21b8152600481018290526024810183905260440161077a565b5050505050565b6001600160a01b038316610d7c578060025f828254610d7191906110ea565b90915550610dec9050565b6001600160a01b0383165f9081526020819052604090205481811015610dce5760405163391434e360e21b81526001600160a01b0385166004820152602481018290526044810183905260640161077a565b6001600160a01b0384165f9081526020819052604090209082900390555b6001600160a01b038216610e0857600280548290039055610e26565b6001600160a01b0382165f9081526020819052604090208054820190555b816001600160a01b0316836001600160a01b03167fddf252ad1be2c89b69c2b068fc378daa952ba7f163c4a11628f55a4df523b3ef83604051610e6b91815260200190565b60405180910390a3505050565b5f602080835283518060208501525f5b81811015610ea457858101830151858201604001528201610e88565b505f604082860101526040601f19601f8301168501019250505092915050565b80356001600160a01b0381168114610eda575f80fd5b919050565b5f8060408385031215610ef0575f80fd5b610ef983610ec4565b946020939093013593505050565b5f805f60608486031215610f19575f80fd5b610f2284610ec4565b9250610f3060208501610ec4565b9150604084013590509250925092565b5f60208284031215610f50575f80fd5b610f5982610ec4565b9392505050565b5f8060408385031215610f71575f80fd5b610f7a83610ec4565b915060208301358015158114610f8e575f80fd5b809150509250929050565b634e487b7160e01b5f52604160045260245ffd5b5f6020808385031215610fbe575f80fd5b823567ffffffffffffffff80821115610fd5575f80fd5b818501915085601f830112610fe8575f80fd5b813581811115610ffa57610ffa610f99565b8060051b604051601f19603f8301168101818110858211171561101f5761101f610f99565b60405291825284820192508381018501918883111561103c575f80fd5b938501935b828510156110615761105285610ec4565b84529385019392850192611041565b98975050505050505050565b5f806040838503121561107e575f80fd5b61108783610ec4565b915061109560208401610ec4565b90509250929050565b600181811c908216806110b257607f821691505b6020821081036110d057634e487b7160e01b5f52602260045260245ffd5b50919050565b634e487b7160e01b5f52603260045260245ffd5b808201808211156104cf57634e487b7160e01b5f52601160045260245ffdfea26469706673582212204245670fb3f2df87a95ea6c39f8a4445fcc81ae0f83ede4106cd6d49674a9b1f64736f6c63430008170033",
    "linkReferences": {}
  },
  "methodIdentifiers": {
    "BATCH_LIMIT()": "9559c0bd",
    "addToBlacklist(address)": "44337ea1",
    "addToBlacklistBatched(address[])": "b9cfc791",
    "allowance(address,address)": "dd62ed3e",
    "allowedMinters(address)": "423afa66",
    "approve(address,uint256)": "095ea7b3",
    "balanceOf(address)": "70a08231",
    "burn(address,uint256)": "9dc29fac",
    "cap()": "355274ea",
    "decimals()": "313ce567",
    "isBlacklistManager(address)": "39c5fe5b",
    "isBlacklisted(address)": "fe575a87",
    "mint(address,uint256)": "40c10f19",
    "name()": "06fdde03",
    "owner()": "8da5cb5b",
    "removeFromBlacklist(address)": "537df3b6",
    "removeFromBlacklistBatched(address[])": "d075d0c1",
    "renounceOwnership()": "715018a6",
    "setBlacklistManager(address,bool)": "4fc6f4f7",
    "setMinter(address,bool)": "cf456ae7",
    "spendAllowance(address,address,uint256)": "dd8aaa4f",
    "symbol()": "95d89b41",
    "totalSupply()": "18160ddd",
    "transfer(address,uint256)": "a9059cbb",
    "transferFrom(address,address,uint256)": "23b872dd",
    "transferOwnership(address)": "f2fde38b"
  },
  "id": 69
}