{
  "abi": [
    {
      "type": "constructor",
      "inputs": [
        {
          "name": "name",
          "type": "string",
          "internalType": "string"
        }
      ],
      "stateMutability": "nonpayable"
    },
    {
      "type": "function",
      "name": "createDigest",
      "inputs": [
        {
          "name": "req",
          "type": "tuple",
          "internalType": "struct ERC2771Forwarder.ForwardRequestData",
          "components": [
            {
              "name": "from",
              "type": "address",
              "internalType": "address"
            },
            {
              "name": "to",
              "type": "address",
              "internalType": "address"
            },
            {
              "name": "value",
              "type": "uint256",
              "internalType": "uint256"
            },
            {
              "name": "gas",
              "type": "uint256",
              "internalType": "uint256"
            },
            {
              "name": "deadline",
              "type": "uint48",
              "internalType": "uint48"
            },
            {
              "name": "data",
              "type": "bytes",
              "internalType": "bytes"
            },
            {
              "name": "signature",
              "type": "bytes",
              "internalType": "bytes"
            }
          ]
        }
      ],
      "outputs": [
        {
          "name": "digest",
          "type": "bytes32",
          "internalType": "bytes32"
        }
      ],
      "stateMutability": "view"
    },
    {
      "type": "function",
      "name": "eip712Domain",
      "inputs": [],
      "outputs": [
        {
          "name": "fields",
          "type": "bytes1",
          "internalType": "bytes1"
        },
        {
          "name": "name",
          "type": "string",
          "internalType": "string"
        },
        {
          "name": "version",
          "type": "string",
          "internalType": "string"
        },
        {
          "name": "chainId",
          "type": "uint256",
          "internalType": "uint256"
        },
        {
          "name": "verifyingContract",
          "type": "address",
          "internalType": "address"
        },
        {
          "name": "salt",
          "type": "bytes32",
          "internalType": "bytes32"
        },
        {
          "name": "extensions",
          "type": "uint256[]",
          "internalType": "uint256[]"
        }
      ],
      "stateMutability": "view"
    },
    {
      "type": "function",
      "name": "execute",
      "inputs": [
        {
          "name": "request",
          "type": "tuple",
          "internalType": "struct ERC2771Forwarder.ForwardRequestData",
          "components": [
            {
              "name": "from",
              "type": "address",
              "internalType": "address"
            },
            {
              "name": "to",
              "type": "address",
              "internalType": "address"
            },
            {
              "name": "value",
              "type": "uint256",
              "internalType": "uint256"
            },
            {
              "name": "gas",
              "type": "uint256",
              "internalType": "uint256"
            },
            {
              "name": "deadline",
              "type": "uint48",
              "internalType": "uint48"
            },
            {
              "name": "data",
              "type": "bytes",
              "internalType": "bytes"
            },
            {
              "name": "signature",
              "type": "bytes",
              "internalType": "bytes"
            }
          ]
        }
      ],
      "outputs": [],
      "stateMutability": "payable"
    },
    {
      "type": "function",
      "name": "executeBatch",
      "inputs": [
        {
          "name": "requests",
          "type": "tuple[]",
          "internalType": "struct ERC2771Forwarder.ForwardRequestData[]",
          "components": [
            {
              "name": "from",
              "type": "address",
              "internalType": "address"
            },
            {
              "name": "to",
              "type": "address",
              "internalType": "address"
            },
            {
              "name": "value",
              "type": "uint256",
              "internalType": "uint256"
            },
            {
              "name": "gas",
              "type": "uint256",
              "internalType": "uint256"
            },
            {
              "name": "deadline",
              "type": "uint48",
              "internalType": "uint48"
            },
            {
              "name": "data",
              "type": "bytes",
              "internalType": "bytes"
            },
            {
              "name": "signature",
              "type": "bytes",
              "internalType": "bytes"
            }
          ]
        },
        {
          "name": "refundReceiver",
          "type": "address",
          "internalType": "address payable"
        }
      ],
      "outputs": [],
      "stateMutability": "payable"
    },
    {
      "type": "function",
      "name": "executeMulticall",
      "inputs": [
        {
          "name": "calls",
          "type": "tuple[]",
          "internalType": "struct ITransactionForwarder_v1.SingleCall[]",
          "components": [
            {
              "name": "target",
              "type": "address",
              "internalType": "address"
            },
            {
              "name": "allowFailure",
              "type": "bool",
              "internalType": "bool"
            },
            {
              "name": "callData",
              "type": "bytes",
              "internalType": "bytes"
            }
          ]
        }
      ],
      "outputs": [
        {
          "name": "results",
          "type": "tuple[]",
          "internalType": "struct ITransactionForwarder_v1.Result[]",
          "components": [
            {
              "name": "success",
              "type": "bool",
              "internalType": "bool"
            },
            {
              "name": "returnData",
              "type": "bytes",
              "internalType": "bytes"
            }
          ]
        }
      ],
      "stateMutability": "nonpayable"
    },
    {
      "type": "function",
      "name": "nonces",
      "inputs": [
        {
          "name": "owner",
          "type": "address",
          "internalType": "address"
        }
      ],
      "outputs": [
        {
          "name": "",
          "type": "uint256",
          "internalType": "uint256"
        }
      ],
      "stateMutability": "view"
    },
    {
      "type": "function",
      "name": "verify",
      "inputs": [
        {
          "name": "request",
          "type": "tuple",
          "internalType": "struct ERC2771Forwarder.ForwardRequestData",
          "components": [
            {
              "name": "from",
              "type": "address",
              "internalType": "address"
            },
            {
              "name": "to",
              "type": "address",
              "internalType": "address"
            },
            {
              "name": "value",
              "type": "uint256",
              "internalType": "uint256"
            },
            {
              "name": "gas",
              "type": "uint256",
              "internalType": "uint256"
            },
            {
              "name": "deadline",
              "type": "uint48",
              "internalType": "uint48"
            },
            {
              "name": "data",
              "type": "bytes",
              "internalType": "bytes"
            },
            {
              "name": "signature",
              "type": "bytes",
              "internalType": "bytes"
            }
          ]
        }
      ],
      "outputs": [
        {
          "name": "",
          "type": "bool",
          "internalType": "bool"
        }
      ],
      "stateMutability": "view"
    },
    {
      "type": "event",
      "name": "EIP712DomainChanged",
      "inputs": [],
      "anonymous": false
    },
    {
      "type": "event",
      "name": "ExecutedForwardRequest",
      "inputs": [
        {
          "name": "signer",
          "type": "address",
          "indexed": true,
          "internalType": "address"
        },
        {
          "name": "nonce",
          "type": "uint256",
          "indexed": false,
          "internalType": "uint256"
        },
        {
          "name": "success",
          "type": "bool",
          "indexed": false,
          "internalType": "bool"
        }
      ],
      "anonymous": false
    },
    {
      "type": "error",
      "name": "AddressInsufficientBalance",
      "inputs": [
        {
          "name": "account",
          "type": "address",
          "internalType": "address"
        }
      ]
    },
    {
      "type": "error",
      "name": "CallFailed",
      "inputs": [
        {
          "name": "call",
          "type": "tuple",
          "internalType": "struct ITransactionForwarder_v1.SingleCall",
          "components": [
            {
              "name": "target",
              "type": "address",
              "internalType": "address"
            },
            {
              "name": "allowFailure",
              "type": "bool",
              "internalType": "bool"
            },
            {
              "name": "callData",
              "type": "bytes",
              "internalType": "bytes"
            }
          ]
        }
      ]
    },
    {
      "type": "error",
      "name": "ERC2771ForwarderExpiredRequest",
      "inputs": [
        {
          "name": "deadline",
          "type": "uint48",
          "internalType": "uint48"
        }
      ]
    },
    {
      "type": "error",
      "name": "ERC2771ForwarderInvalidSigner",
      "inputs": [
        {
          "name": "signer",
          "type": "address",
          "internalType": "address"
        },
        {
          "name": "from",
          "type": "address",
          "internalType": "address"
        }
      ]
    },
    {
      "type": "error",
      "name": "ERC2771ForwarderMismatchedValue",
      "inputs": [
        {
          "name": "requestedValue",
          "type": "uint256",
          "internalType": "uint256"
        },
        {
          "name": "msgValue",
          "type": "uint256",
          "internalType": "uint256"
        }
      ]
    },
    {
      "type": "error",
      "name": "ERC2771UntrustfulTarget",
      "inputs": [
        {
          "name": "target",
          "type": "address",
          "internalType": "address"
        },
        {
          "name": "forwarder",
          "type": "address",
          "internalType": "address"
        }
      ]
    },
    {
      "type": "error",
      "name": "FailedInnerCall",
      "inputs": []
    },
    {
      "type": "error",
      "name": "InvalidAccountNonce",
      "inputs": [
        {
          "name": "account",
          "type": "address",
          "internalType": "address"
        },
        {
          "name": "currentNonce",
          "type": "uint256",
          "internalType": "uint256"
        }
      ]
    },
    {
      "type": "error",
      "name": "InvalidShortString",
      "inputs": []
    },
    {
      "type": "error",
      "name": "StringTooLong",
      "inputs": [
        {
          "name": "str",
          "type": "string",
          "internalType": "string"
        }
      ]
    }
  ],
  "bytecode": {
    "object": "0x6101606040523480156200001257600080fd5b5060405162001cd238038062001cd28339810160408190526200003591620001d0565b6040805180820190915260018152603160f81b6020820152819081906200005e8260006200010f565b610120526200006f8160016200010f565b61014052815160208084019190912060e052815190820120610100524660a052620000fd60e05161010051604080517f8b73c3c69bb8fe3d512ecc4cf759cc79239f7b179b0ffacaa9a75d522b39400f60208201529081019290925260608201524660808201523060a082015260009060c00160405160208183030381529060405280519060200120905090565b60805250503060c052506200043f9050565b60006020835110156200012f57620001278362000148565b905062000142565b816200013c848262000319565b5060ff90505b92915050565b600080829050601f815111156200017f578260405163305a27a960e01b8152600401620001769190620003e5565b60405180910390fd5b80516200018c826200041a565b179392505050565b634e487b7160e01b600052604160045260246000fd5b60005b83811015620001c7578181015183820152602001620001ad565b50506000910152565b600060208284031215620001e357600080fd5b81516001600160401b0380821115620001fb57600080fd5b818401915084601f8301126200021057600080fd5b81518181111562000225576200022562000194565b604051601f8201601f19908116603f0116810190838211818310171562000250576200025062000194565b816040528281528760208487010111156200026a57600080fd5b6200027d836020830160208801620001aa565b979650505050505050565b600181811c908216806200029d57607f821691505b602082108103620002be57634e487b7160e01b600052602260045260246000fd5b50919050565b601f82111562000314576000816000526020600020601f850160051c81016020861015620002ef5750805b601f850160051c820191505b818110156200031057828155600101620002fb565b5050505b505050565b81516001600160401b0381111562000335576200033562000194565b6200034d8162000346845462000288565b84620002c4565b602080601f8311600181146200038557600084156200036c5750858301515b600019600386901b1c1916600185901b17855562000310565b600085815260208120601f198616915b82811015620003b65788860151825594840194600190910190840162000395565b5085821015620003d55787850151600019600388901b60f8161c191681555b5050505050600190811b01905550565b602081526000825180602084015262000406816040850160208701620001aa565b601f01601f19169190910160400192915050565b80516020808301519190811015620002be5760001960209190910360031b1b16919050565b60805160a05160c05160e0516101005161012051610140516118386200049a600039600061078c0152600061075a01526000610e8e01526000610e6601526000610dc101526000610deb01526000610e1501526118386000f3fe6080604052600436106100705760003560e01c806384b0196e1161004e57806384b0196e1461011f57806397259d9c14610147578063ccf96b4a14610167578063df905caf1461017c57600080fd5b8063089168fe1461007557806319d8d38c146100ab5780637ecebe00146100db575b600080fd5b34801561008157600080fd5b506100956100903660046110e3565b61018f565b6040516100a29190611175565b60405180910390f35b3480156100b757600080fd5b506100cb6100c636600461120b565b6103d3565b60405190151581526020016100a2565b3480156100e757600080fd5b506101116100f6366004611272565b6001600160a01b031660009081526002602052604090205490565b6040519081526020016100a2565b34801561012b57600080fd5b50610134610405565b6040516100a2979695949392919061128f565b34801561015357600080fd5b50610111610162366004611426565b610467565b61017a6101753660046114fe565b610480565b005b61017a61018a36600461120b565b61059b565b6060818067ffffffffffffffff8111156101ab576101ab611344565b6040519080825280602002602001820160405280156101f157816020015b6040805180820190915260008152606060208201528152602001906001900390816101c95790505b50915036606060005b838110156103c95786868281811061021457610214611555565b9050602002810190610226919061156b565b925061023d6102386020850185611272565b610628565b6102975761024e6020840184611272565b6040517fd2650cd10000000000000000000000000000000000000000000000000000000081526001600160a01b0390911660048201523060248201526044015b60405180910390fd5b6102a460408401846115a9565b336040516020016102b7939291906115f0565b60408051601f1981840301815291905291506000806102d96020860186611272565b6001600160a01b0316846040516102f09190611629565b6000604051808303816000865af19150503d806000811461032d576040519150601f19603f3d011682016040523d82523d6000602084013e610332565b606091505b5091509150811580156103525750610350604086016020870161164b565b155b1561038b57846040517f4def4a8c00000000000000000000000000000000000000000000000000000000815260040161028e9190611666565b60405180604001604052808315158152602001828152508784815181106103b4576103b4611555565b602090810291909101015250506001016101fa565b5050505092915050565b6000806000806103e2856106d3565b509250925092508280156103f35750815b80156103fc5750805b95945050505050565b600060608060008060006060610419610753565b610421610785565b604080516000808252602082019092527f0f000000000000000000000000000000000000000000000000000000000000009b939a50919850469750309650945092509050565b600061047a610475836107b2565b610894565b92915050565b6001600160a01b03811615600080805b85811015610540578686828181106104aa576104aa611555565b90506020028101906104bc9190611710565b6104ca906040013584611744565b925060006104fb8888848181106104e3576104e3611555565b90506020028101906104f59190611710565b866108dc565b9050806105375787878381811061051457610514611555565b90506020028101906105269190611710565b610534906040013584611744565b92505b50600101610490565b50348214610583576040517f70647f790000000000000000000000000000000000000000000000000000000081526004810183905234602482015260440161028e565b8015610593576105938482610ac5565b505050505050565b806040013534146105e457604080517f70647f7900000000000000000000000000000000000000000000000000000000815290820135600482015234602482015260440161028e565b6105ef8160016108dc565b610625576040517f1425ea4200000000000000000000000000000000000000000000000000000000815260040160405180910390fd5b50565b604051306024820152600090819060440160408051601f19818403018152919052602080820180517bffffffffffffffffffffffffffffffffffffffffffffffffffffffff167f572b6c050000000000000000000000000000000000000000000000000000000017815282519293506000928392839290918391895afa92503d915060005190508280156106bd575060208210155b80156106c95750600081115b9695505050505050565b6000806000806000806106e587610b93565b90925090506106fd6102386040890160208a01611272565b4261070e60a08a0160808b01611765565b65ffffffffffff161015838015610742575061072d60208a018a611272565b6001600160a01b0316836001600160a01b0316145b919750955093509150509193509193565b60606107807f00000000000000000000000000000000000000000000000000000000000000006000610d08565b905090565b60606107807f00000000000000000000000000000000000000000000000000000000000000006001610d08565b60007f7f96328b83274ebc7c1cf4f7a3abda602b51a78b7fa1d86a2ce353d75e587cac826000015183602001518460400151856060015161080c87600001516001600160a01b031660009081526002602052604090205490565b608088015160a089015180516020918201206040516108779998979695949392019788526001600160a01b0396871660208901529490951660408701526060860192909252608085015260a084015265ffffffffffff9190911660c083015260e08201526101000190565b604051602081830303815290604052805190602001209050919050565b600061047a6108a1610db4565b836040517f19010000000000000000000000000000000000000000000000000000000000008152600281019290925260228201526042902090565b60008060008060006108ed876106d3565b935093509350935085156109ba57836109105761024e6040880160208901611272565b826109625761092560a0880160808901611765565b6040517f94eef58a00000000000000000000000000000000000000000000000000000000815265ffffffffffff909116600482015260240161028e565b816109ba57806109756020890189611272565b6040517fc845a0560000000000000000000000000000000000000000000000000000000081526001600160a01b0392831660048201529116602482015260440161028e565b8380156109c45750815b80156109cd5750825b156103c9576001600160a01b0381166000908152600260205260408120805460018101909155905060608801356000610a0c60408b0160208c01611272565b905060408a01356000610a2260a08d018d6115a9565b610a2f60208f018f611272565b604051602001610a41939291906115f0565b6040516020818303038152906040529050600080600083516020850186888af19a505a9050610a70818e610edf565b604080518781528c151560208201526001600160a01b038916917f842fb24a83793558587a3dab2be7674da4a51d09c5542d6dd354e5d0ea70813c910160405180910390a25050505050505050505092915050565b80471015610b01576040517fcd78605900000000000000000000000000000000000000000000000000000000815230600482015260240161028e565b6000826001600160a01b03168260405160006040518083038185875af1925050503d8060008114610b4e576040519150601f19603f3d011682016040523d82523d6000602084013e610b53565b606091505b5050905080610b8e576040517f1425ea4200000000000000000000000000000000000000000000000000000000815260040160405180910390fd5b505050565b6000808080610ce2610ba860c08701876115a9565b8080601f016020809104026020016040519081016040528093929190818152602001838380828437600092019190915250610cdc92507f7f96328b83274ebc7c1cf4f7a3abda602b51a78b7fa1d86a2ce353d75e587cac9150610c10905060208a018a611272565b610c2060408b0160208c01611272565b60408b013560608c0135610c3a6100f660208f018f611272565b8d6080016020810190610c4d9190611765565b8e8060a00190610c5d91906115a9565b604051610c6b929190611780565b6040805191829003822060208301999099526001600160a01b0397881690820152959094166060860152608085019290925260a084015260c083015265ffffffffffff1660e08201526101008101919091526101200160405160208183030381529060405280519060200120610894565b90610efb565b5090925090506000816003811115610cfc57610cfc611790565b14959194509092505050565b606060ff8314610d2257610d1b83610f48565b905061047a565b818054610d2e906117a6565b80601f0160208091040260200160405190810160405280929190818152602001828054610d5a906117a6565b8015610da75780601f10610d7c57610100808354040283529160200191610da7565b820191906000526020600020905b815481529060010190602001808311610d8a57829003601f168201915b5050505050905092915050565b6000306001600160a01b037f000000000000000000000000000000000000000000000000000000000000000016148015610e0d57507f000000000000000000000000000000000000000000000000000000000000000046145b15610e3757507f000000000000000000000000000000000000000000000000000000000000000090565b610780604080517f8b73c3c69bb8fe3d512ecc4cf759cc79239f7b179b0ffacaa9a75d522b39400f60208201527f0000000000000000000000000000000000000000000000000000000000000000918101919091527f000000000000000000000000000000000000000000000000000000000000000060608201524660808201523060a082015260009060c00160405160208183030381529060405280519060200120905090565b610eee603f60608301356117e0565b821015610ef757fe5b5050565b60008060008351604103610f355760208401516040850151606086015160001a610f2788828585610f87565b955095509550505050610f41565b50508151600091506002905b9250925092565b60606000610f5583611056565b604080516020808252818301909252919250600091906020820181803683375050509182525060208101929092525090565b600080807f7fffffffffffffffffffffffffffffff5d576e7357a4501ddfe92f46681b20a0841115610fc2575060009150600390508261104c565b604080516000808252602082018084528a905260ff891692820192909252606081018790526080810186905260019060a0016020604051602081039080840390855afa158015611016573d6000803e3d6000fd5b5050604051601f1901519150506001600160a01b0381166110425750600092506001915082905061104c565b9250600091508190505b9450945094915050565b600060ff8216601f81111561047a576040517fb3512b0c00000000000000000000000000000000000000000000000000000000815260040160405180910390fd5b60008083601f8401126110a957600080fd5b50813567ffffffffffffffff8111156110c157600080fd5b6020830191508360208260051b85010111156110dc57600080fd5b9250929050565b600080602083850312156110f657600080fd5b823567ffffffffffffffff81111561110d57600080fd5b61111985828601611097565b90969095509350505050565b60005b83811015611140578181015183820152602001611128565b50506000910152565b60008151808452611161816020860160208601611125565b601f01601f19169290920160200192915050565b600060208083018184528085518083526040925060408601915060408160051b87010184880160005b838110156111fd578883037fffffffffffffffffffffffffffffffffffffffffffffffffffffffffffffffc001855281518051151584528701518784018790526111ea87850182611149565b958801959350509086019060010161119e565b509098975050505050505050565b60006020828403121561121d57600080fd5b813567ffffffffffffffff81111561123457600080fd5b820160e0818503121561124657600080fd5b9392505050565b6001600160a01b038116811461062557600080fd5b803561126d8161124d565b919050565b60006020828403121561128457600080fd5b81356112468161124d565b7fff00000000000000000000000000000000000000000000000000000000000000881681526000602060e060208401526112cc60e084018a611149565b83810360408501526112de818a611149565b606085018990526001600160a01b038816608086015260a0850187905284810360c08601528551808252602080880193509091019060005b8181101561133257835183529284019291840191600101611316565b50909c9b505050505050505050505050565b634e487b7160e01b600052604160045260246000fd5b60405160e0810167ffffffffffffffff8111828210171561137d5761137d611344565b60405290565b803565ffffffffffff8116811461126d57600080fd5b600082601f8301126113aa57600080fd5b813567ffffffffffffffff808211156113c5576113c5611344565b604051601f8301601f19908116603f011681019082821181831017156113ed576113ed611344565b8160405283815286602085880101111561140657600080fd5b836020870160208301376000602085830101528094505050505092915050565b60006020828403121561143857600080fd5b813567ffffffffffffffff8082111561145057600080fd5b9083019060e0828603121561146457600080fd5b61146c61135a565b61147583611262565b815261148360208401611262565b602082015260408301356040820152606083013560608201526114a860808401611383565b608082015260a0830135828111156114bf57600080fd5b6114cb87828601611399565b60a08301525060c0830135828111156114e357600080fd5b6114ef87828601611399565b60c08301525095945050505050565b60008060006040848603121561151357600080fd5b833567ffffffffffffffff81111561152a57600080fd5b61153686828701611097565b909450925050602084013561154a8161124d565b809150509250925092565b634e487b7160e01b600052603260045260246000fd5b600082357fffffffffffffffffffffffffffffffffffffffffffffffffffffffffffffffa183360301811261159f57600080fd5b9190910192915050565b6000808335601e198436030181126115c057600080fd5b83018035915067ffffffffffffffff8211156115db57600080fd5b6020019150368190038213156110dc57600080fd5b8284823760609190911b7fffffffffffffffffffffffffffffffffffffffff000000000000000000000000169101908152601401919050565b6000825161159f818460208701611125565b8035801515811461126d57600080fd5b60006020828403121561165d57600080fd5b6112468261163b565b60208152600082356116778161124d565b6001600160a01b0381166020840152506116936020840161163b565b151560408301526040830135601e198436030181126116b157600080fd5b830160208101903567ffffffffffffffff8111156116ce57600080fd5b8036038213156116dd57600080fd5b606080850152806080850152808260a0860137600060a0828601015260a0601f19601f8301168501019250505092915050565b600082357fffffffffffffffffffffffffffffffffffffffffffffffffffffffffffffff2183360301811261159f57600080fd5b8082018082111561047a57634e487b7160e01b600052601160045260246000fd5b60006020828403121561177757600080fd5b61124682611383565b8183823760009101908152919050565b634e487b7160e01b600052602160045260246000fd5b600181811c908216806117ba57607f821691505b6020821081036117da57634e487b7160e01b600052602260045260246000fd5b50919050565b6000826117fd57634e487b7160e01b600052601260045260246000fd5b50049056fea2646970667358221220ca76a88254b86e95fa0ccd2d8a98f797f805db6e4265e92e96810d536d034bc864736f6c63430008170033",
    "linkReferences": {}
  },
  "methodIdentifiers": {
    "createDigest((address,address,uint256,uint256,uint48,bytes,bytes))": "97259d9c",
    "eip712Domain()": "84b0196e",
    "execute((address,address,uint256,uint256,uint48,bytes,bytes))": "df905caf",
    "executeBatch((address,address,uint256,uint256,uint48,bytes,bytes)[],address)": "ccf96b4a",
    "executeMulticall((address,bool,bytes)[])": "089168fe",
    "nonces(address)": "7ecebe00",
    "verify((address,address,uint256,uint256,uint48,bytes,bytes))": "19d8d38c"
  },
  "id": 102
}