{
  "abi": [
    {
      "type": "constructor",
      "inputs": [
        {
          "name": "factory_",
          "type": "address",
          "internalType": "address"
        },
        {
          "name": "router_",
          "type": "address",
          "internalType": "address"
        }
      ],
      "stateMutability": "nonpayable"
    },
    {
      "type": "function",
      "name": "createLiquidity",
      "inputs": [
        {
          "name": "tokenA",
          "type": "address",
          "internalType": "address"
        },
        {
          "name": "tokenB",
          "type": "address",
          "internalType": "address"
        },
        {
          "name": "to",
          "type": "address",
          "internalType": "address"
        }
      ],
      "outputs": [
        {
          "name": "pool",
          "type": "address",
          "internalType": "address"
        }
      ],
      "stateMutability": "nonpayable"
    },
    {
      "type": "function",
      "name": "factory",
      "inputs": [],
      "outputs": [
        {
          "name": "",
          "type": "address",
          "internalType": "contract IUniswapV2Factory"
        }
      ],
      "stateMutability": "view"
    },
    {
      "type": "function",
      "name": "router",
      "inputs": [],
      "outputs": [
        {
          "name": "",
          "type": "address",
          "internalType": "contract IUniswapV2Router01"
        }
      ],
      "stateMutability": "view"
    }
  ],
  "bytecode": {
    "object": "0x60c060405234801561001057600080fd5b506040516106f73803806106f783398101604081905261002f91610062565b6001600160a01b039182166080521660a052610095565b80516001600160a01b038116811461005d57600080fd5b919050565b6000806040838503121561007557600080fd5b61007e83610046565b915061008c60208401610046565b90509250929050565b60805160a0516106246100d36000396000818160a10152818161024f015281816102e7015261036e015260008181604b015260ed01526106246000f3fe608060405234801561001057600080fd5b50600436106100415760003560e01c8063c45a015514610046578063c824b93c14610089578063f887ea401461009c575b600080fd5b61006d7f000000000000000000000000000000000000000000000000000000000000000081565b6040516001600160a01b03909116815260200160405180910390f35b61006d6100973660046104ae565b6100c3565b61006d7f000000000000000000000000000000000000000000000000000000000000000081565b6040516364e329cb60e11b81526001600160a01b03848116600483015283811660248301526000917f00000000000000000000000000000000000000000000000000000000000000009091169063c9c65396906044016020604051808303816000875af1158015610138573d6000803e3d6000fd5b505050506040513d601f19601f8201168201806040525081019061015c91906104f9565b6040516370a0823160e01b81523060048201529091506000906001600160a01b038616906370a0823190602401602060405180830381865afa1580156101a6573d6000803e3d6000fd5b505050506040513d601f19601f820116820180604052508101906101ca919061051d565b6040516370a0823160e01b81523060048201529091506000906001600160a01b038616906370a0823190602401602060405180830381865afa158015610214573d6000803e3d6000fd5b505050506040513d601f19601f82011682018060405250810190610238919061051d565b60405163095ea7b360e01b81526001600160a01b037f000000000000000000000000000000000000000000000000000000000000000081166004830152602482018590529192509087169063095ea7b3906044016020604051808303816000875af11580156102ab573d6000803e3d6000fd5b505050506040513d601f19601f820116820180604052508101906102cf9190610536565b5060405163095ea7b360e01b81526001600160a01b037f0000000000000000000000000000000000000000000000000000000000000000811660048301526024820183905286169063095ea7b3906044016020604051808303816000875af115801561033f573d6000803e3d6000fd5b505050506040513d601f19601f820116820180604052508101906103639190610536565b506001600160a01b037f00000000000000000000000000000000000000000000000000000000000000001663e8e337008787858560646103a483605f61056e565b6103ae919061058b565b60646103bb89605f61056e565b6103c5919061058b565b8b6103d2426102586105ad565b60405160e08a901b7fffffffff000000000000000000000000000000000000000000000000000000001681526001600160a01b039889166004820152968816602488015260448701959095526064860193909352608485019190915260a484015290921660c482015260e4810191909152610104016060604051808303816000875af1158015610466573d6000803e3d6000fd5b505050506040513d601f19601f8201168201806040525081019061048a91906105c0565b50505050509392505050565b6001600160a01b03811681146104ab57600080fd5b50565b6000806000606084860312156104c357600080fd5b83356104ce81610496565b925060208401356104de81610496565b915060408401356104ee81610496565b809150509250925092565b60006020828403121561050b57600080fd5b815161051681610496565b9392505050565b60006020828403121561052f57600080fd5b5051919050565b60006020828403121561054857600080fd5b8151801515811461051657600080fd5b634e487b7160e01b600052601160045260246000fd5b808202811582820484141761058557610585610558565b92915050565b6000826105a857634e487b7160e01b600052601260045260246000fd5b500490565b8082018082111561058557610585610558565b6000806000606084860312156105d557600080fd5b835192506020840151915060408401519050925092509256fea26469706673582212209e8a7f42f130ba939d20a64417e91b1349cc52197c6fd6bfa637a803a95f717364736f6c63430008170033",
    "linkReferences": {}
  },
  "methodIdentifiers": {
    "createLiquidity(address,address,address)": "c824b93c",
    "factory()": "c45a0155",
    "router()": "f887ea40"
  },
  "id": 68
}