{
    "abi": [
        {
            "type": "constructor",
            "inputs": [
                {
                    "name": "name",
                    "type": "string",
                    "internalType": "string"
                }
            ],
            "stateMutability": "nonpayable"
        },
        {
            "type": "function",
            "name": "createDigest",
            "inputs": [
                {
                    "name": "req",
                    "type": "tuple",
                    "internalType": "struct ERC2771Forwarder.ForwardRequestData",
                    "components": [
                        {
                            "name": "from",
                            "type": "address",
                            "internalType": "address"
                        },
                        {
                            "name": "to",
                            "type": "address",
                            "internalType": "address"
                        },
                        {
                            "name": "value",
                            "type": "uint256",
                            "internalType": "uint256"
                        },
                        {
                            "name": "gas",
                            "type": "uint256",
                            "internalType": "uint256"
                        },
                        {
                            "name": "deadline",
                            "type": "uint48",
                            "internalType": "uint48"
                        },
                        {
                            "name": "data",
                            "type": "bytes",
                            "internalType": "bytes"
                        },
                        {
                            "name": "signature",
                            "type": "bytes",
                            "internalType": "bytes"
                        }
                    ]
                }
            ],
            "outputs": [
                {
                    "name": "digest",
                    "type": "bytes32",
                    "internalType": "bytes32"
                }
            ],
            "stateMutability": "view"
        },
        {
            "type": "function",
            "name": "eip712Domain",
            "inputs": [],
            "outputs": [
                {
                    "name": "fields",
                    "type": "bytes1",
                    "internalType": "bytes1"
                },
                {
                    "name": "name",
                    "type": "string",
                    "internalType": "string"
                },
                {
                    "name": "version",
                    "type": "string",
                    "internalType": "string"
                },
                {
                    "name": "chainId",
                    "type": "uint256",
                    "internalType": "uint256"
                },
                {
                    "name": "verifyingContract",
                    "type": "address",
                    "internalType": "address"
                },
                {
                    "name": "salt",
                    "type": "bytes32",
                    "internalType": "bytes32"
                },
                {
                    "name": "extensions",
                    "type": "uint256[]",
                    "internalType": "uint256[]"
                }
            ],
            "stateMutability": "view"
        },
        {
            "type": "function",
            "name": "execute",
            "inputs": [
                {
                    "name": "request",
                    "type": "tuple",
                    "internalType": "struct ERC2771Forwarder.ForwardRequestData",
                    "components": [
                        {
                            "name": "from",
                            "type": "address",
                            "internalType": "address"
                        },
                        {
                            "name": "to",
                            "type": "address",
                            "internalType": "address"
                        },
                        {
                            "name": "value",
                            "type": "uint256",
                            "internalType": "uint256"
                        },
                        {
                            "name": "gas",
                            "type": "uint256",
                            "internalType": "uint256"
                        },
                        {
                            "name": "deadline",
                            "type": "uint48",
                            "internalType": "uint48"
                        },
                        {
                            "name": "data",
                            "type": "bytes",
                            "internalType": "bytes"
                        },
                        {
                            "name": "signature",
                            "type": "bytes",
                            "internalType": "bytes"
                        }
                    ]
                }
            ],
            "outputs": [],
            "stateMutability": "payable"
        },
        {
            "type": "function",
            "name": "executeBatch",
            "inputs": [
                {
                    "name": "requests",
                    "type": "tuple[]",
                    "internalType": "struct ERC2771Forwarder.ForwardRequestData[]",
                    "components": [
                        {
                            "name": "from",
                            "type": "address",
                            "internalType": "address"
                        },
                        {
                            "name": "to",
                            "type": "address",
                            "internalType": "address"
                        },
                        {
                            "name": "value",
                            "type": "uint256",
                            "internalType": "uint256"
                        },
                        {
                            "name": "gas",
                            "type": "uint256",
                            "internalType": "uint256"
                        },
                        {
                            "name": "deadline",
                            "type": "uint48",
                            "internalType": "uint48"
                        },
                        {
                            "name": "data",
                            "type": "bytes",
                            "internalType": "bytes"
                        },
                        {
                            "name": "signature",
                            "type": "bytes",
                            "internalType": "bytes"
                        }
                    ]
                },
                {
                    "name": "refundReceiver",
                    "type": "address",
                    "internalType": "address payable"
                }
            ],
            "outputs": [],
            "stateMutability": "payable"
        },
        {
            "type": "function",
            "name": "executeMulticall",
            "inputs": [
                {
                    "name": "calls",
                    "type": "tuple[]",
                    "internalType": "struct ITransactionForwarder.SingleCall[]",
                    "components": [
                        {
                            "name": "target",
                            "type": "address",
                            "internalType": "address"
                        },
                        {
                            "name": "allowFailure",
                            "type": "bool",
                            "internalType": "bool"
                        },
                        {
                            "name": "callData",
                            "type": "bytes",
                            "internalType": "bytes"
                        }
                    ]
                }
            ],
            "outputs": [
                {
                    "name": "results",
                    "type": "tuple[]",
                    "internalType": "struct ITransactionForwarder.Result[]",
                    "components": [
                        {
                            "name": "success",
                            "type": "bool",
                            "internalType": "bool"
                        },
                        {
                            "name": "returnData",
                            "type": "bytes",
                            "internalType": "bytes"
                        }
                    ]
                }
            ],
            "stateMutability": "nonpayable"
        },
        {
            "type": "function",
            "name": "nonces",
            "inputs": [
                {
                    "name": "owner",
                    "type": "address",
                    "internalType": "address"
                }
            ],
            "outputs": [
                {
                    "name": "",
                    "type": "uint256",
                    "internalType": "uint256"
                }
            ],
            "stateMutability": "view"
        },
        {
            "type": "function",
            "name": "verify",
            "inputs": [
                {
                    "name": "request",
                    "type": "tuple",
                    "internalType": "struct ERC2771Forwarder.ForwardRequestData",
                    "components": [
                        {
                            "name": "from",
                            "type": "address",
                            "internalType": "address"
                        },
                        {
                            "name": "to",
                            "type": "address",
                            "internalType": "address"
                        },
                        {
                            "name": "value",
                            "type": "uint256",
                            "internalType": "uint256"
                        },
                        {
                            "name": "gas",
                            "type": "uint256",
                            "internalType": "uint256"
                        },
                        {
                            "name": "deadline",
                            "type": "uint48",
                            "internalType": "uint48"
                        },
                        {
                            "name": "data",
                            "type": "bytes",
                            "internalType": "bytes"
                        },
                        {
                            "name": "signature",
                            "type": "bytes",
                            "internalType": "bytes"
                        }
                    ]
                }
            ],
            "outputs": [
                {
                    "name": "",
                    "type": "bool",
                    "internalType": "bool"
                }
            ],
            "stateMutability": "view"
        },
        {
            "type": "event",
            "name": "EIP712DomainChanged",
            "inputs": [],
            "anonymous": false
        },
        {
            "type": "event",
            "name": "ExecutedForwardRequest",
            "inputs": [
                {
                    "name": "signer",
                    "type": "address",
                    "indexed": true,
                    "internalType": "address"
                },
                {
                    "name": "nonce",
                    "type": "uint256",
                    "indexed": false,
                    "internalType": "uint256"
                },
                {
                    "name": "success",
                    "type": "bool",
                    "indexed": false,
                    "internalType": "bool"
                }
            ],
            "anonymous": false
        },
        {
            "type": "error",
            "name": "AddressInsufficientBalance",
            "inputs": [
                {
                    "name": "account",
                    "type": "address",
                    "internalType": "address"
                }
            ]
        },
        {
            "type": "error",
            "name": "CallFailed",
            "inputs": [
                {
                    "name": "call",
                    "type": "tuple",
                    "internalType": "struct ITransactionForwarder.SingleCall",
                    "components": [
                        {
                            "name": "target",
                            "type": "address",
                            "internalType": "address"
                        },
                        {
                            "name": "allowFailure",
                            "type": "bool",
                            "internalType": "bool"
                        },
                        {
                            "name": "callData",
                            "type": "bytes",
                            "internalType": "bytes"
                        }
                    ]
                }
            ]
        },
        {
            "type": "error",
            "name": "ERC2771ForwarderExpiredRequest",
            "inputs": [
                {
                    "name": "deadline",
                    "type": "uint48",
                    "internalType": "uint48"
                }
            ]
        },
        {
            "type": "error",
            "name": "ERC2771ForwarderInvalidSigner",
            "inputs": [
                {
                    "name": "signer",
                    "type": "address",
                    "internalType": "address"
                },
                {
                    "name": "from",
                    "type": "address",
                    "internalType": "address"
                }
            ]
        },
        {
            "type": "error",
            "name": "ERC2771ForwarderMismatchedValue",
            "inputs": [
                {
                    "name": "requestedValue",
                    "type": "uint256",
                    "internalType": "uint256"
                },
                {
                    "name": "msgValue",
                    "type": "uint256",
                    "internalType": "uint256"
                }
            ]
        },
        {
            "type": "error",
            "name": "ERC2771UntrustfulTarget",
            "inputs": [
                {
                    "name": "target",
                    "type": "address",
                    "internalType": "address"
                },
                {
                    "name": "forwarder",
                    "type": "address",
                    "internalType": "address"
                }
            ]
        },
        {
            "type": "error",
            "name": "FailedInnerCall",
            "inputs": []
        },
        {
            "type": "error",
            "name": "InvalidAccountNonce",
            "inputs": [
                {
                    "name": "account",
                    "type": "address",
                    "internalType": "address"
                },
                {
                    "name": "currentNonce",
                    "type": "uint256",
                    "internalType": "uint256"
                }
            ]
        },
        {
            "type": "error",
            "name": "InvalidShortString",
            "inputs": []
        },
        {
            "type": "error",
            "name": "StringTooLong",
            "inputs": [
                {
                    "name": "str",
                    "type": "string",
                    "internalType": "string"
                }
            ]
        }
    ],
    "bytecode": {
        "object": "0x6101606040523480156200001257600080fd5b5060405162001e8e38038062001e8e8339810160408190526200003591620001d0565b6040805180820190915260018152603160f81b6020820152819081906200005e8260006200010f565b610120526200006f8160016200010f565b61014052815160208084019190912060e052815190820120610100524660a052620000fd60e05161010051604080517f8b73c3c69bb8fe3d512ecc4cf759cc79239f7b179b0ffacaa9a75d522b39400f60208201529081019290925260608201524660808201523060a082015260009060c00160405160208183030381529060405280519060200120905090565b60805250503060c052506200043f9050565b60006020835110156200012f57620001278362000148565b905062000142565b816200013c848262000319565b5060ff90505b92915050565b600080829050601f815111156200017f578260405163305a27a960e01b8152600401620001769190620003e5565b60405180910390fd5b80516200018c826200041a565b179392505050565b634e487b7160e01b600052604160045260246000fd5b60005b83811015620001c7578181015183820152602001620001ad565b50506000910152565b600060208284031215620001e357600080fd5b81516001600160401b0380821115620001fb57600080fd5b818401915084601f8301126200021057600080fd5b81518181111562000225576200022562000194565b604051601f8201601f19908116603f0116810190838211818310171562000250576200025062000194565b816040528281528760208487010111156200026a57600080fd5b6200027d836020830160208801620001aa565b979650505050505050565b600181811c908216806200029d57607f821691505b602082108103620002be57634e487b7160e01b600052602260045260246000fd5b50919050565b601f82111562000314576000816000526020600020601f850160051c81016020861015620002ef5750805b601f850160051c820191505b818110156200031057828155600101620002fb565b5050505b505050565b81516001600160401b0381111562000335576200033562000194565b6200034d8162000346845462000288565b84620002c4565b602080601f8311600181146200038557600084156200036c5750858301515b600019600386901b1c1916600185901b17855562000310565b600085815260208120601f198616915b82811015620003b65788860151825594840194600190910190840162000395565b5085821015620003d55787850151600019600388901b60f8161c191681555b5050505050600190811b01905550565b602081526000825180602084015262000406816040850160208701620001aa565b601f01601f19169190910160400192915050565b80516020808301519190811015620002be5760001960209190910360031b1b16919050565b60805160a05160c05160e0516101005161012051610140516119f46200049a60003960006107da015260006107a801526000610f4401526000610f1c01526000610e7701526000610ea101526000610ecb01526119f46000f3fe6080604052600436106100705760003560e01c806384b0196e1161004e57806384b0196e1461012c57806397259d9c14610154578063ccf96b4a14610174578063df905caf1461018957600080fd5b8063089168fe1461007557806319d8d38c146100ab5780637ecebe00146100db575b600080fd5b34801561008157600080fd5b506100956100903660046111a6565b61019c565b6040516100a29190611238565b60405180910390f35b3480156100b757600080fd5b506100cb6100c63660046112ce565b6103fa565b60405190151581526020016100a2565b3480156100e757600080fd5b5061011e6100f6366004611342565b73ffffffffffffffffffffffffffffffffffffffff1660009081526002602052604090205490565b6040519081526020016100a2565b34801561013857600080fd5b5061014161042c565b6040516100a2979695949392919061135f565b34801561016057600080fd5b5061011e61016f36600461151c565b61048e565b6101876101823660046115f4565b6104a7565b005b6101876101973660046112ce565b6105cf565b6060818067ffffffffffffffff8111156101b8576101b8611421565b6040519080825280602002602001820160405280156101fe57816020015b6040805180820190915260008152606060208201528152602001906001900390816101d65790505b50915036606060005b838110156103f0578686828181106102215761022161164b565b9050602002810190610233919061167a565b925061024a6102456020850185611342565b61065c565b6102b15761025b6020840184611342565b6040517fd2650cd100000000000000000000000000000000000000000000000000000000815273ffffffffffffffffffffffffffffffffffffffff90911660048201523060248201526044015b60405180910390fd5b6102be60408401846116b8565b336040516020016102d19392919061171d565b60408051601f1981840301815291905291506000806102f36020860186611342565b73ffffffffffffffffffffffffffffffffffffffff16846040516103179190611756565b6000604051808303816000865af19150503d8060008114610354576040519150601f19603f3d011682016040523d82523d6000602084013e610359565b606091505b50915091508115801561037957506103776040860160208701611778565b155b156103b257846040517f4def4a8c0000000000000000000000000000000000000000000000000000000081526004016102a89190611793565b60405180604001604052808315158152602001828152508784815181106103db576103db61164b565b60209081029190910101525050600101610207565b5050505092915050565b60008060008061040985610707565b5092509250925082801561041a5750815b80156104235750805b95945050505050565b6000606080600080600060606104406107a1565b6104486107d3565b604080516000808252602082019092527f0f000000000000000000000000000000000000000000000000000000000000009b939a50919850469750309650945092509050565b60006104a161049c83610800565b6108fc565b92915050565b73ffffffffffffffffffffffffffffffffffffffff811615600080805b85811015610574578686828181106104de576104de61164b565b90506020028101906104f09190611868565b6104fe90604001358461189c565b9250600061052f8888848181106105175761051761164b565b90506020028101906105299190611868565b86610944565b90508061056b578787838181106105485761054861164b565b905060200281019061055a9190611868565b61056890604001358461189c565b92505b506001016104c4565b503482146105b7576040517f70647f79000000000000000000000000000000000000000000000000000000008152600481018390523460248201526044016102a8565b80156105c7576105c78482610b54565b505050505050565b8060400135341461061857604080517f70647f790000000000000000000000000000000000000000000000000000000081529082013560048201523460248201526044016102a8565b610623816001610944565b610659576040517f1425ea4200000000000000000000000000000000000000000000000000000000815260040160405180910390fd5b50565b604051306024820152600090819060440160408051601f19818403018152919052602080820180517bffffffffffffffffffffffffffffffffffffffffffffffffffffffff167f572b6c050000000000000000000000000000000000000000000000000000000017815282519293506000928392839290918391895afa92503d915060005190508280156106f1575060208210155b80156106fd5750600081115b9695505050505050565b60008060008060008061071987610c2f565b90925090506107316102456040890160208a01611342565b4261074260a08a0160808b016118d6565b65ffffffffffff161015838015610790575061076160208a018a611342565b73ffffffffffffffffffffffffffffffffffffffff168373ffffffffffffffffffffffffffffffffffffffff16145b919750955093509150509193509193565b60606107ce7f00000000000000000000000000000000000000000000000000000000000000006000610db1565b905090565b60606107ce7f00000000000000000000000000000000000000000000000000000000000000006001610db1565b60007f7f96328b83274ebc7c1cf4f7a3abda602b51a78b7fa1d86a2ce353d75e587cac8260000151836020015184604001518560600151610867876000015173ffffffffffffffffffffffffffffffffffffffff1660009081526002602052604090205490565b608088015160a089015180516020918201206040516108df99989796959493920197885273ffffffffffffffffffffffffffffffffffffffff96871660208901529490951660408701526060860192909252608085015260a084015265ffffffffffff9190911660c083015260e08201526101000190565b604051602081830303815290604052805190602001209050919050565b60006104a1610909610e5d565b836040517f19010000000000000000000000000000000000000000000000000000000000008152600281019290925260228201526042902090565b600080600080600061095587610707565b93509350935093508515610a2f57836109785761025b6040880160208901611342565b826109ca5761098d60a08801608089016118d6565b6040517f94eef58a00000000000000000000000000000000000000000000000000000000815265ffffffffffff90911660048201526024016102a8565b81610a2f57806109dd6020890189611342565b6040517fc845a05600000000000000000000000000000000000000000000000000000000815273ffffffffffffffffffffffffffffffffffffffff9283166004820152911660248201526044016102a8565b838015610a395750815b8015610a425750825b156103f05773ffffffffffffffffffffffffffffffffffffffff81166000908152600260205260408120805460018101909155905060608801356000610a8e60408b0160208c01611342565b905060408a01356000610aa460a08d018d6116b8565b610ab160208f018f611342565b604051602001610ac39392919061171d565b6040516020818303038152906040529050600080600083516020850186888af19a505a9050610af2818e610f95565b604080518781528c1515602082015273ffffffffffffffffffffffffffffffffffffffff8916917f842fb24a83793558587a3dab2be7674da4a51d09c5542d6dd354e5d0ea70813c910160405180910390a25050505050505050505092915050565b80471015610b90576040517fcd7860590000000000000000000000000000000000000000000000000000000081523060048201526024016102a8565b60008273ffffffffffffffffffffffffffffffffffffffff168260405160006040518083038185875af1925050503d8060008114610bea576040519150601f19603f3d011682016040523d82523d6000602084013e610bef565b606091505b5050905080610c2a576040517f1425ea4200000000000000000000000000000000000000000000000000000000815260040160405180910390fd5b505050565b6000808080610d8b610c4460c08701876116b8565b8080601f016020809104026020016040519081016040528093929190818152602001838380828437600092019190915250610d8592507f7f96328b83274ebc7c1cf4f7a3abda602b51a78b7fa1d86a2ce353d75e587cac9150610cac905060208a018a611342565b610cbc60408b0160208c01611342565b60408b013560608c0135610cd66100f660208f018f611342565b8d6080016020810190610ce991906118d6565b8e8060a00190610cf991906116b8565b604051610d079291906118f1565b60408051918290038220602083019990995273ffffffffffffffffffffffffffffffffffffffff97881690820152959094166060860152608085019290925260a084015260c083015265ffffffffffff1660e082015261010081019190915261012001604051602081830303815290604052805190602001206108fc565b90610fb1565b5090925090506000816003811115610da557610da5611901565b14959194509092505050565b606060ff8314610dcb57610dc483610ffe565b90506104a1565b818054610dd790611930565b80601f0160208091040260200160405190810160405280929190818152602001828054610e0390611930565b8015610e505780601f10610e2557610100808354040283529160200191610e50565b820191906000526020600020905b815481529060010190602001808311610e3357829003601f168201915b5050505050905092915050565b60003073ffffffffffffffffffffffffffffffffffffffff7f000000000000000000000000000000000000000000000000000000000000000016148015610ec357507f000000000000000000000000000000000000000000000000000000000000000046145b15610eed57507f000000000000000000000000000000000000000000000000000000000000000090565b6107ce604080517f8b73c3c69bb8fe3d512ecc4cf759cc79239f7b179b0ffacaa9a75d522b39400f60208201527f0000000000000000000000000000000000000000000000000000000000000000918101919091527f000000000000000000000000000000000000000000000000000000000000000060608201524660808201523060a082015260009060c00160405160208183030381529060405280519060200120905090565b610fa4603f6060830135611983565b821015610fad57fe5b5050565b60008060008351604103610feb5760208401516040850151606086015160001a610fdd8882858561103d565b955095509550505050610ff7565b50508151600091506002905b9250925092565b6060600061100b83611119565b604080516020808252818301909252919250600091906020820181803683375050509182525060208101929092525090565b600080807f7fffffffffffffffffffffffffffffff5d576e7357a4501ddfe92f46681b20a0841115611078575060009150600390508261110f565b604080516000808252602082018084528a905260ff891692820192909252606081018790526080810186905260019060a0016020604051602081039080840390855afa1580156110cc573d6000803e3d6000fd5b5050604051601f19015191505073ffffffffffffffffffffffffffffffffffffffff81166111055750600092506001915082905061110f565b9250600091508190505b9450945094915050565b600060ff8216601f8111156104a1576040517fb3512b0c00000000000000000000000000000000000000000000000000000000815260040160405180910390fd5b60008083601f84011261116c57600080fd5b50813567ffffffffffffffff81111561118457600080fd5b6020830191508360208260051b850101111561119f57600080fd5b9250929050565b600080602083850312156111b957600080fd5b823567ffffffffffffffff8111156111d057600080fd5b6111dc8582860161115a565b90969095509350505050565b60005b838110156112035781810151838201526020016111eb565b50506000910152565b600081518084526112248160208601602086016111e8565b601f01601f19169290920160200192915050565b600060208083018184528085518083526040925060408601915060408160051b87010184880160005b838110156112c0578883037fffffffffffffffffffffffffffffffffffffffffffffffffffffffffffffffc001855281518051151584528701518784018790526112ad8785018261120c565b9588019593505090860190600101611261565b509098975050505050505050565b6000602082840312156112e057600080fd5b813567ffffffffffffffff8111156112f757600080fd5b820160e0818503121561130957600080fd5b9392505050565b73ffffffffffffffffffffffffffffffffffffffff8116811461065957600080fd5b803561133d81611310565b919050565b60006020828403121561135457600080fd5b813561130981611310565b7fff00000000000000000000000000000000000000000000000000000000000000881681526000602060e0602084015261139c60e084018a61120c565b83810360408501526113ae818a61120c565b6060850189905273ffffffffffffffffffffffffffffffffffffffff8816608086015260a0850187905284810360c08601528551808252602080880193509091019060005b8181101561140f578351835292840192918401916001016113f3565b50909c9b505050505050505050505050565b7f4e487b7100000000000000000000000000000000000000000000000000000000600052604160045260246000fd5b60405160e0810167ffffffffffffffff8111828210171561147357611473611421565b60405290565b803565ffffffffffff8116811461133d57600080fd5b600082601f8301126114a057600080fd5b813567ffffffffffffffff808211156114bb576114bb611421565b604051601f8301601f19908116603f011681019082821181831017156114e3576114e3611421565b816040528381528660208588010111156114fc57600080fd5b836020870160208301376000602085830101528094505050505092915050565b60006020828403121561152e57600080fd5b813567ffffffffffffffff8082111561154657600080fd5b9083019060e0828603121561155a57600080fd5b611562611450565b61156b83611332565b815261157960208401611332565b6020820152604083013560408201526060830135606082015261159e60808401611479565b608082015260a0830135828111156115b557600080fd5b6115c18782860161148f565b60a08301525060c0830135828111156115d957600080fd5b6115e58782860161148f565b60c08301525095945050505050565b60008060006040848603121561160957600080fd5b833567ffffffffffffffff81111561162057600080fd5b61162c8682870161115a565b909450925050602084013561164081611310565b809150509250925092565b7f4e487b7100000000000000000000000000000000000000000000000000000000600052603260045260246000fd5b600082357fffffffffffffffffffffffffffffffffffffffffffffffffffffffffffffffa18336030181126116ae57600080fd5b9190910192915050565b60008083357fffffffffffffffffffffffffffffffffffffffffffffffffffffffffffffffe18436030181126116ed57600080fd5b83018035915067ffffffffffffffff82111561170857600080fd5b60200191503681900382131561119f57600080fd5b8284823760609190911b7fffffffffffffffffffffffffffffffffffffffff000000000000000000000000169101908152601401919050565b600082516116ae8184602087016111e8565b8035801515811461133d57600080fd5b60006020828403121561178a57600080fd5b61130982611768565b60208152600082356117a481611310565b73ffffffffffffffffffffffffffffffffffffffff81166020840152506117cd60208401611768565b1515604083015260408301357fffffffffffffffffffffffffffffffffffffffffffffffffffffffffffffffe184360301811261180957600080fd5b830160208101903567ffffffffffffffff81111561182657600080fd5b80360382131561183557600080fd5b606080850152806080850152808260a0860137600060a0828601015260a0601f19601f8301168501019250505092915050565b600082357fffffffffffffffffffffffffffffffffffffffffffffffffffffffffffffff218336030181126116ae57600080fd5b808201808211156104a1577f4e487b7100000000000000000000000000000000000000000000000000000000600052601160045260246000fd5b6000602082840312156118e857600080fd5b61130982611479565b8183823760009101908152919050565b7f4e487b7100000000000000000000000000000000000000000000000000000000600052602160045260246000fd5b600181811c9082168061194457607f821691505b60208210810361197d577f4e487b7100000000000000000000000000000000000000000000000000000000600052602260045260246000fd5b50919050565b6000826119b9577f4e487b7100000000000000000000000000000000000000000000000000000000600052601260045260246000fd5b50049056fea264697066735822122090d6b44dbfb14c27c9703fd0118ee54b6d4f5b3b35ff519417ef0c1080050b6964736f6c63430008170033",
        "linkReferences": {}
    },
    "methodIdentifiers": {
        "createDigest((address,address,uint256,uint256,uint48,bytes,bytes))": "97259d9c",
        "eip712Domain()": "84b0196e",
        "execute((address,address,uint256,uint256,uint48,bytes,bytes))": "df905caf",
        "executeBatch((address,address,uint256,uint256,uint48,bytes,bytes)[],address)": "ccf96b4a",
        "executeMulticall((address,bool,bytes)[])": "089168fe",
        "nonces(address)": "7ecebe00",
        "verify((address,address,uint256,uint256,uint48,bytes,bytes))": "19d8d38c"
    },
    "id": 86
}