{
  "abi": [
    {
      "type": "function",
      "name": "MAX_VOTING_DURATION",
      "inputs": [],
      "outputs": [
        {
          "name": "",
          "type": "uint256",
          "internalType": "uint256"
        }
      ],
      "stateMutability": "view"
    },
    {
      "type": "function",
      "name": "MIN_VOTING_DURATION",
      "inputs": [],
      "outputs": [
        {
          "name": "",
          "type": "uint256",
          "internalType": "uint256"
        }
      ],
      "stateMutability": "view"
    },
    {
      "type": "function",
      "name": "addVoter",
      "inputs": [
        {
          "name": "who",
          "type": "address",
          "internalType": "address"
        }
      ],
      "outputs": [],
      "stateMutability": "nonpayable"
    },
    {
      "type": "function",
      "name": "addVoterAndUpdateThreshold",
      "inputs": [
        {
          "name": "who",
          "type": "address",
          "internalType": "address"
        },
        {
          "name": "newThreshold",
          "type": "uint256",
          "internalType": "uint256"
        }
      ],
      "outputs": [],
      "stateMutability": "nonpayable"
    },
    {
      "type": "function",
      "name": "castVote",
      "inputs": [
        {
          "name": "motionId",
          "type": "bytes32",
          "internalType": "bytes32"
        },
        {
          "name": "support",
          "type": "uint8",
          "internalType": "uint8"
        }
      ],
      "outputs": [],
      "stateMutability": "nonpayable"
    },
    {
      "type": "function",
      "name": "createMotion",
      "inputs": [
        {
          "name": "target",
          "type": "address",
          "internalType": "address"
        },
        {
          "name": "action",
          "type": "bytes",
          "internalType": "bytes"
        }
      ],
      "outputs": [
        {
          "name": "",
          "type": "bytes32",
          "internalType": "bytes32"
        }
      ],
      "stateMutability": "nonpayable"
    },
    {
      "type": "function",
      "name": "executeMotion",
      "inputs": [
        {
          "name": "motionId",
          "type": "bytes32",
          "internalType": "bytes32"
        }
      ],
      "outputs": [],
      "stateMutability": "nonpayable"
    },
    {
      "type": "function",
      "name": "getReceipt",
      "inputs": [
        {
          "name": "_ID",
          "type": "bytes32",
          "internalType": "bytes32"
        },
        {
          "name": "voter",
          "type": "address",
          "internalType": "address"
        }
      ],
      "outputs": [
        {
          "name": "",
          "type": "tuple",
          "internalType": "struct IAUT_EXT_VotingRoles_v1.Receipt",
          "components": [
            {
              "name": "hasVoted",
              "type": "bool",
              "internalType": "bool"
            },
            {
              "name": "support",
              "type": "uint8",
              "internalType": "uint8"
            }
          ]
        }
      ],
      "stateMutability": "view"
    },
    {
      "type": "function",
      "name": "grantModuleRole",
      "inputs": [
        {
          "name": "role",
          "type": "bytes32",
          "internalType": "bytes32"
        },
        {
          "name": "target",
          "type": "address",
          "internalType": "address"
        }
      ],
      "outputs": [],
      "stateMutability": "nonpayable"
    },
    {
      "type": "function",
      "name": "grantModuleRoleBatched",
      "inputs": [
        {
          "name": "role",
          "type": "bytes32",
          "internalType": "bytes32"
        },
        {
          "name": "targets",
          "type": "address[]",
          "internalType": "address[]"
        }
      ],
      "outputs": [],
      "stateMutability": "nonpayable"
    },
    {
      "type": "function",
      "name": "identifier",
      "inputs": [],
      "outputs": [
        {
          "name": "",
          "type": "bytes32",
          "internalType": "bytes32"
        }
      ],
      "stateMutability": "view"
    },
    {
      "type": "function",
      "name": "init",
      "inputs": [
        {
          "name": "orchestrator_",
          "type": "address",
          "internalType": "contract IOrchestrator_v1"
        },
        {
          "name": "metadata",
          "type": "tuple",
          "internalType": "struct IModule_v1.Metadata",
          "components": [
            {
              "name": "majorVersion",
              "type": "uint256",
              "internalType": "uint256"
            },
            {
              "name": "minorVersion",
              "type": "uint256",
              "internalType": "uint256"
            },
            {
              "name": "patchVersion",
              "type": "uint256",
              "internalType": "uint256"
            },
            {
              "name": "url",
              "type": "string",
              "internalType": "string"
            },
            {
              "name": "title",
              "type": "string",
              "internalType": "string"
            }
          ]
        },
        {
          "name": "configData",
          "type": "bytes",
          "internalType": "bytes"
        }
      ],
      "outputs": [],
      "stateMutability": "nonpayable"
    },
    {
      "type": "function",
      "name": "isTrustedForwarder",
      "inputs": [
        {
          "name": "forwarder",
          "type": "address",
          "internalType": "address"
        }
      ],
      "outputs": [
        {
          "name": "",
          "type": "bool",
          "internalType": "bool"
        }
      ],
      "stateMutability": "view"
    },
    {
      "type": "function",
      "name": "isVoter",
      "inputs": [
        {
          "name": "",
          "type": "address",
          "internalType": "address"
        }
      ],
      "outputs": [
        {
          "name": "",
          "type": "bool",
          "internalType": "bool"
        }
      ],
      "stateMutability": "view"
    },
    {
      "type": "function",
      "name": "motionCount",
      "inputs": [],
      "outputs": [
        {
          "name": "",
          "type": "uint256",
          "internalType": "uint256"
        }
      ],
      "stateMutability": "view"
    },
    {
      "type": "function",
      "name": "motions",
      "inputs": [
        {
          "name": "",
          "type": "bytes32",
          "internalType": "bytes32"
        }
      ],
      "outputs": [
        {
          "name": "target",
          "type": "address",
          "internalType": "address"
        },
        {
          "name": "action",
          "type": "bytes",
          "internalType": "bytes"
        },
        {
          "name": "startTimestamp",
          "type": "uint256",
          "internalType": "uint256"
        },
        {
          "name": "endTimestamp",
          "type": "uint256",
          "internalType": "uint256"
        },
        {
          "name": "requiredThreshold",
          "type": "uint256",
          "internalType": "uint256"
        },
        {
          "name": "forVotes",
          "type": "uint256",
          "internalType": "uint256"
        },
        {
          "name": "againstVotes",
          "type": "uint256",
          "internalType": "uint256"
        },
        {
          "name": "abstainVotes",
          "type": "uint256",
          "internalType": "uint256"
        },
        {
          "name": "executedAt",
          "type": "uint256",
          "internalType": "uint256"
        },
        {
          "name": "executionResult",
          "type": "bool",
          "internalType": "bool"
        },
        {
          "name": "executionReturnData",
          "type": "bytes",
          "internalType": "bytes"
        }
      ],
      "stateMutability": "view"
    },
    {
      "type": "function",
      "name": "orchestrator",
      "inputs": [],
      "outputs": [
        {
          "name": "",
          "type": "address",
          "internalType": "contract IOrchestrator_v1"
        }
      ],
      "stateMutability": "view"
    },
    {
      "type": "function",
      "name": "removeVoter",
      "inputs": [
        {
          "name": "who",
          "type": "address",
          "internalType": "address"
        }
      ],
      "outputs": [],
      "stateMutability": "nonpayable"
    },
    {
      "type": "function",
      "name": "removeVoterAndUpdateThreshold",
      "inputs": [
        {
          "name": "who",
          "type": "address",
          "internalType": "address"
        },
        {
          "name": "newThreshold",
          "type": "uint256",
          "internalType": "uint256"
        }
      ],
      "outputs": [],
      "stateMutability": "nonpayable"
    },
    {
      "type": "function",
      "name": "revokeModuleRole",
      "inputs": [
        {
          "name": "role",
          "type": "bytes32",
          "internalType": "bytes32"
        },
        {
          "name": "target",
          "type": "address",
          "internalType": "address"
        }
      ],
      "outputs": [],
      "stateMutability": "nonpayable"
    },
    {
      "type": "function",
      "name": "revokeModuleRoleBatched",
      "inputs": [
        {
          "name": "role",
          "type": "bytes32",
          "internalType": "bytes32"
        },
        {
          "name": "targets",
          "type": "address[]",
          "internalType": "address[]"
        }
      ],
      "outputs": [],
      "stateMutability": "nonpayable"
    },
    {
      "type": "function",
      "name": "setThreshold",
      "inputs": [
        {
          "name": "newThreshold",
          "type": "uint256",
          "internalType": "uint256"
        }
      ],
      "outputs": [],
      "stateMutability": "nonpayable"
    },
    {
      "type": "function",
      "name": "setVotingDuration",
      "inputs": [
        {
          "name": "newVoteDuration",
          "type": "uint256",
          "internalType": "uint256"
        }
      ],
      "outputs": [],
      "stateMutability": "nonpayable"
    },
    {
      "type": "function",
      "name": "supportsInterface",
      "inputs": [
        {
          "name": "interfaceId",
          "type": "bytes4",
          "internalType": "bytes4"
        }
      ],
      "outputs": [
        {
          "name": "",
          "type": "bool",
          "internalType": "bool"
        }
      ],
      "stateMutability": "view"
    },
    {
      "type": "function",
      "name": "threshold",
      "inputs": [],
      "outputs": [
        {
          "name": "",
          "type": "uint256",
          "internalType": "uint256"
        }
      ],
      "stateMutability": "view"
    },
    {
      "type": "function",
      "name": "title",
      "inputs": [],
      "outputs": [
        {
          "name": "",
          "type": "string",
          "internalType": "string"
        }
      ],
      "stateMutability": "view"
    },
    {
      "type": "function",
      "name": "trustedForwarder",
      "inputs": [],
      "outputs": [
        {
          "name": "",
          "type": "address",
          "internalType": "address"
        }
      ],
      "stateMutability": "view"
    },
    {
      "type": "function",
      "name": "url",
      "inputs": [],
      "outputs": [
        {
          "name": "",
          "type": "string",
          "internalType": "string"
        }
      ],
      "stateMutability": "view"
    },
    {
      "type": "function",
      "name": "version",
      "inputs": [],
      "outputs": [
        {
          "name": "",
          "type": "uint256",
          "internalType": "uint256"
        },
        {
          "name": "",
          "type": "uint256",
          "internalType": "uint256"
        },
        {
          "name": "",
          "type": "uint256",
          "internalType": "uint256"
        }
      ],
      "stateMutability": "view"
    },
    {
      "type": "function",
      "name": "voteDuration",
      "inputs": [],
      "outputs": [
        {
          "name": "",
          "type": "uint256",
          "internalType": "uint256"
        }
      ],
      "stateMutability": "view"
    },
    {
      "type": "function",
      "name": "voterCount",
      "inputs": [],
      "outputs": [
        {
          "name": "",
          "type": "uint256",
          "internalType": "uint256"
        }
      ],
      "stateMutability": "view"
    },
    {
      "type": "event",
      "name": "Initialized",
      "inputs": [
        {
          "name": "version",
          "type": "uint64",
          "indexed": false,
          "internalType": "uint64"
        }
      ],
      "anonymous": false
    },
    {
      "type": "event",
      "name": "ModuleInitialized",
      "inputs": [
        {
          "name": "parentOrchestrator",
          "type": "address",
          "indexed": true,
          "internalType": "address"
        },
        {
          "name": "metadata",
          "type": "tuple",
          "indexed": false,
          "internalType": "struct IModule_v1.Metadata",
          "components": [
            {
              "name": "majorVersion",
              "type": "uint256",
              "internalType": "uint256"
            },
            {
              "name": "minorVersion",
              "type": "uint256",
              "internalType": "uint256"
            },
            {
              "name": "patchVersion",
              "type": "uint256",
              "internalType": "uint256"
            },
            {
              "name": "url",
              "type": "string",
              "internalType": "string"
            },
            {
              "name": "title",
              "type": "string",
              "internalType": "string"
            }
          ]
        }
      ],
      "anonymous": false
    },
    {
      "type": "event",
      "name": "MotionCreated",
      "inputs": [
        {
          "name": "motionId",
          "type": "bytes32",
          "indexed": true,
          "internalType": "bytes32"
        }
      ],
      "anonymous": false
    },
    {
      "type": "event",
      "name": "MotionExecuted",
      "inputs": [
        {
          "name": "motionId",
          "type": "bytes32",
          "indexed": true,
          "internalType": "bytes32"
        }
      ],
      "anonymous": false
    },
    {
      "type": "event",
      "name": "ThresholdUpdated",
      "inputs": [
        {
          "name": "oldThreshold",
          "type": "uint256",
          "indexed": false,
          "internalType": "uint256"
        },
        {
          "name": "newThreshold",
          "type": "uint256",
          "indexed": false,
          "internalType": "uint256"
        }
      ],
      "anonymous": false
    },
    {
      "type": "event",
      "name": "VoteCast",
      "inputs": [
        {
          "name": "motionId",
          "type": "bytes32",
          "indexed": true,
          "internalType": "bytes32"
        },
        {
          "name": "voter",
          "type": "address",
          "indexed": true,
          "internalType": "address"
        },
        {
          "name": "support",
          "type": "uint8",
          "indexed": true,
          "internalType": "uint8"
        }
      ],
      "anonymous": false
    },
    {
      "type": "event",
      "name": "VoteDurationUpdated",
      "inputs": [
        {
          "name": "oldVotingDuration",
          "type": "uint256",
          "indexed": false,
          "internalType": "uint256"
        },
        {
          "name": "newVotingDuration",
          "type": "uint256",
          "indexed": false,
          "internalType": "uint256"
        }
      ],
      "anonymous": false
    },
    {
      "type": "event",
      "name": "VoterAdded",
      "inputs": [
        {
          "name": "who",
          "type": "address",
          "indexed": true,
          "internalType": "address"
        }
      ],
      "anonymous": false
    },
    {
      "type": "event",
      "name": "VoterRemoved",
      "inputs": [
        {
          "name": "who",
          "type": "address",
          "indexed": true,
          "internalType": "address"
        }
      ],
      "anonymous": false
    },
    {
      "type": "error",
      "name": "InvalidInitialization",
      "inputs": []
    },
    {
      "type": "error",
      "name": "Module_OrchestratorCallbackFailed",
      "inputs": [
        {
          "name": "funcSig",
          "type": "string",
          "internalType": "string"
        }
      ]
    },
    {
      "type": "error",
      "name": "Module__CallerNotAuthorized",
      "inputs": [
        {
          "name": "role",
          "type": "bytes32",
          "internalType": "bytes32"
        },
        {
          "name": "caller",
          "type": "address",
          "internalType": "address"
        }
      ]
    },
    {
      "type": "error",
      "name": "Module__InvalidAddress",
      "inputs": []
    },
    {
      "type": "error",
      "name": "Module__InvalidMetadata",
      "inputs": []
    },
    {
      "type": "error",
      "name": "Module__InvalidOrchestratorAddress",
      "inputs": []
    },
    {
      "type": "error",
      "name": "Module__OnlyCallableByOrchestrator",
      "inputs": []
    },
    {
      "type": "error",
      "name": "Module__OnlyCallableByPaymentClient",
      "inputs": []
    },
    {
      "type": "error",
      "name": "Module__VotingRoleManager__AttemptedDoubleVote",
      "inputs": []
    },
    {
      "type": "error",
      "name": "Module__VotingRoleManager__CallerNotVoter",
      "inputs": []
    },
    {
      "type": "error",
      "name": "Module__VotingRoleManager__EmptyVoters",
      "inputs": []
    },
    {
      "type": "error",
      "name": "Module__VotingRoleManager__InvalidMotionId",
      "inputs": []
    },
    {
      "type": "error",
      "name": "Module__VotingRoleManager__InvalidSupport",
      "inputs": []
    },
    {
      "type": "error",
      "name": "Module__VotingRoleManager__InvalidThreshold",
      "inputs": []
    },
    {
      "type": "error",
      "name": "Module__VotingRoleManager__InvalidVoterAddress",
      "inputs": []
    },
    {
      "type": "error",
      "name": "Module__VotingRoleManager__InvalidVotingDuration",
      "inputs": []
    },
    {
      "type": "error",
      "name": "Module__VotingRoleManager__IsAlreadyVoter",
      "inputs": []
    },
    {
      "type": "error",
      "name": "Module__VotingRoleManager__MotionAlreadyExecuted",
      "inputs": []
    },
    {
      "type": "error",
      "name": "Module__VotingRoleManager__MotionInVotingPhase",
      "inputs": []
    },
    {
      "type": "error",
      "name": "Module__VotingRoleManager__MotionVotingPhaseClosed",
      "inputs": []
    },
    {
      "type": "error",
      "name": "Module__VotingRoleManager__ThresholdNotReached",
      "inputs": []
    },
    {
      "type": "error",
      "name": "NotInitializing",
      "inputs": []
    }
  ],
  "bytecode": {
    "object": "0x60a06040523480156200001157600080fd5b5060006080526200002162000027565b620000db565b7ff0c57e16840df040f15088dc2f81fe391c3923bec73e23a9662efc9c229c6a00805468010000000000000000900460ff1615620000785760405163f92ee8a960e01b815260040160405180910390fd5b80546001600160401b0390811614620000d85780546001600160401b0319166001600160401b0390811782556040519081527fc7f505b2f371ae2175ee4913f4499e1f2633a7b5936321eed1cdaeb6115181d29060200160405180910390a15b50565b608051612b05620000f460003960005050612b056000f3fe608060405234801561001057600080fd5b50600436106101e55760003560e01c80636c67e8071161010f578063b4b0713e116100a2578063e6f5ed5d11610071578063e6f5ed5d1461048b578063eaf1061c1461049e578063eefe85e4146104a8578063f4ab9adf146104b257600080fd5b8063b4b0713e14610441578063b66a870c14610454578063b74795d914610467578063bcb619201461047857600080fd5b806381ca1753116100de57806381ca1753146103ce57806386c1ff68146103f8578063960bfe041461040b578063a7771ee31461041e57600080fd5b80636c67e8071461030c57806376aa26451461031f5780637998a1c4146103a65780637da0a877146103ae57600080fd5b80634a79d50c11610187578063572b6c0511610156578063572b6c05146102c05780635bcfadb5146102d35780635ec4858c146102e6578063696a6eca146102f957600080fd5b80634a79d50c1461027657806354fd4d501461028b5780635600f04f146102af57806356364499146102b757600080fd5b8063272bbd44116101c3578063272bbd441461023a5780632cb0c6501461024d57806342169e481461026457806342cde4e81461026d57600080fd5b806301ffc9a7146101ea57806313f998261461021257806324e3027014610227575b600080fd5b6101fd6101f83660046120d4565b6104c5565b60405190151581526020015b60405180910390f35b61022561022036600461211a565b6104f0565b005b610225610235366004612146565b610506565b610225610248366004612146565b6107b8565b610256603a5481565b604051908152602001610209565b610256603b5481565b610256603c5481565b61027e610992565b604051610209919061220b565b60015460025460035460408051938452602084019290925290820152606001610209565b61027e610a27565b610256603d5481565b6101fd6102ce36600461221e565b610a39565b6102256102e136600461223b565b610aa8565b6102256102f436600461223b565b610b75565b61022561030736600461211a565b610cdb565b61022561031a366004612254565b610d0f565b61038661032d366004612254565b60408051808201825260008082526020918201819052938452603981528184206001600160a01b03939093168452600890920182529182902082518084019093525460ff80821615158452610100909104169082015290565b6040805182511515815260209283015160ff169281019290925201610209565b610256610f25565b6103b6611083565b6040516001600160a01b039091168152602001610209565b6103e16103dc36600461223b565b6110fb565b6040516102099b9a99989796959493929190612284565b61022561040636600461221e565b611275565b61022561041936600461223b565b6112ba565b6101fd61042c36600461221e565b60386020526000908152604090205460ff1681565b61022561044f366004612302565b611332565b61022561046236600461240d565b611522565b6000546001600160a01b03166103b6565b610225610486366004612254565b611863565b6102566104993660046124f3565b611a45565b6102566201518081565b6102566212750081565b6102256104c036600461221e565b611b63565b60006001600160e01b0319821663e7f98d6160e01b14806104ea57506104ea82611c5c565b92915050565b6104f982611b63565b610502816112ba565b5050565b600080546040805163d09edf3160e01b815290518693926001600160a01b03169163d09edf319160048083019260209291908290030181865afa158015610551573d6000803e3d6000fd5b505050506040513d601f19601f820116820180604052508101906105759190612565565b60405163fdd5205f60e01b8152306004820152602481018490526001600160a01b03919091169063fdd5205f90604401602060405180830381865afa1580156105c2573d6000803e3d6000fd5b505050506040513d601f19601f820116820180604052508101906105e69190612582565b90506106db60008054906101000a90046001600160a01b03166001600160a01b031663d09edf316040518163ffffffff1660e01b8152600401602060405180830381865afa15801561063c573d6000803e3d6000fd5b505050506040513d601f19601f820116820180604052508101906106609190612565565b6001600160a01b031663248a9ca3836040518263ffffffff1660e01b815260040161068d91815260200190565b602060405180830381865afa1580156106aa573d6000803e3d6000fd5b505050506040513d601f19601f820116820180604052508101906106ce9190612582565b6106d6611c91565b611ce3565b60008054906101000a90046001600160a01b03166001600160a01b031663d09edf316040518163ffffffff1660e01b8152600401602060405180830381865afa15801561072c573d6000803e3d6000fd5b505050506040513d601f19601f820116820180604052508101906107509190612565565b6001600160a01b0316637d540a648686866040518463ffffffff1660e01b815260040161077f9392919061259b565b600060405180830381600087803b15801561079957600080fd5b505af11580156107ad573d6000803e3d6000fd5b505050505050505050565b600080546040805163d09edf3160e01b815290518693926001600160a01b03169163d09edf319160048083019260209291908290030181865afa158015610803573d6000803e3d6000fd5b505050506040513d601f19601f820116820180604052508101906108279190612565565b60405163fdd5205f60e01b8152306004820152602481018490526001600160a01b03919091169063fdd5205f90604401602060405180830381865afa158015610874573d6000803e3d6000fd5b505050506040513d601f19601f820116820180604052508101906108989190612582565b90506108ee60008054906101000a90046001600160a01b03166001600160a01b031663d09edf316040518163ffffffff1660e01b8152600401602060405180830381865afa15801561063c573d6000803e3d6000fd5b60008054906101000a90046001600160a01b03166001600160a01b031663d09edf316040518163ffffffff1660e01b8152600401602060405180830381865afa15801561093f573d6000803e3d6000fd5b505050506040513d601f19601f820116820180604052508101906109639190612565565b6001600160a01b031663648154538686866040518463ffffffff1660e01b815260040161077f9392919061259b565b6060600160040180546109a4906125f3565b80601f01602080910402602001604051908101604052809291908181526020018280546109d0906125f3565b8015610a1d5780601f106109f257610100808354040283529160200191610a1d565b820191906000526020600020905b815481529060010190602001808311610a0057829003601f168201915b5050505050905090565b6060600160030180546109a4906125f3565b6000805460405163572b6c0560e01b81526001600160a01b0384811660048301529091169063572b6c0590602401602060405180830381865afa158015610a84573d6000803e3d6000fd5b505050506040513d601f19601f820116820180604052508101906104ea919061262d565b30610ab1611c91565b6001600160a01b031614610b03576737b7363ca9b2b63360c11b610ad3611c91565b6040516342abbb7760e01b815260048101929092526001600160a01b031660248201526044015b60405180910390fd5b62015180811080610b1657506212750081115b15610b3457604051634b017c5760e11b815260040160405180910390fd5b603d5460408051918252602082018390527fd47773545974972c430ef4df16cf8d0c415f1c29bc3ec203d20b7452d94494e7910160405180910390a1603d55565b60008181526039602052604081206002810154909103610ba85760405163742b68d760e01b815260040160405180910390fd5b80600301544211610bcc5760405163b8a3c65b60e01b815260040160405180910390fd5b806004015481600501541015610bf5576040516344a20e9f60e01b815260040160405180910390fd5b600981015415610c1857604051633eaf6c4760e21b815260040160405180910390fd5b42600982015580546040516000916060916001600160a01b0390911690610c4390600186019061264f565b6000604051808303816000865af19150503d8060008114610c80576040519150601f19603f3d011682016040523d82523d6000602084013e610c85565b606091505b50600a8501805460ff19168315151790559092509050600b8301610ca98282612716565b5060405184907f44aac391ec2171be7629493a133c4c734d5c1b9b15ee7ae6f01c5b85becbc43190600090a250505050565b30610ce4611c91565b6001600160a01b031614610d06576737b7363ca9b2b63360c11b610ad3611c91565b6104f982611dfa565b600080546040805163d09edf3160e01b815290518593926001600160a01b03169163d09edf319160048083019260209291908290030181865afa158015610d5a573d6000803e3d6000fd5b505050506040513d601f19601f82011682018060405250810190610d7e9190612565565b60405163fdd5205f60e01b8152306004820152602481018490526001600160a01b03919091169063fdd5205f90604401602060405180830381865afa158015610dcb573d6000803e3d6000fd5b505050506040513d601f19601f82011682018060405250810190610def9190612582565b9050610e4560008054906101000a90046001600160a01b03166001600160a01b031663d09edf316040518163ffffffff1660e01b8152600401602060405180830381865afa15801561063c573d6000803e3d6000fd5b60008054906101000a90046001600160a01b03166001600160a01b031663d09edf316040518163ffffffff1660e01b8152600401602060405180830381865afa158015610e96573d6000803e3d6000fd5b505050506040513d601f19601f82011682018060405250810190610eba9190612565565b60405163385e205560e21b8152600481018690526001600160a01b038581166024830152919091169063e1788154906044015b600060405180830381600087803b158015610f0757600080fd5b505af1158015610f1b573d6000803e3d6000fd5b5050505050505050565b600061107e60016040518060a0016040529081600082015481526020016001820154815260200160028201548152602001600382018054610f65906125f3565b80601f0160208091040260200160405190810160405280929190818152602001828054610f91906125f3565b8015610fde5780601f10610fb357610100808354040283529160200191610fde565b820191906000526020600020905b815481529060010190602001808311610fc157829003601f168201915b50505050508152602001600482018054610ff7906125f3565b80601f0160208091040260200160405190810160405280929190818152602001828054611023906125f3565b80156110705780601f1061104557610100808354040283529160200191611070565b820191906000526020600020905b81548152906001019060200180831161105357829003601f168201915b505050505081525050611e91565b905090565b60008060009054906101000a90046001600160a01b03166001600160a01b0316637da0a8776040518163ffffffff1660e01b8152600401602060405180830381865afa1580156110d7573d6000803e3d6000fd5b505050506040513d601f19601f8201168201806040525081019061107e9190612565565b603960205260009081526040902080546001820180546001600160a01b039092169291611127906125f3565b80601f0160208091040260200160405190810160405280929190818152602001828054611153906125f3565b80156111a05780601f10611175576101008083540402835291602001916111a0565b820191906000526020600020905b81548152906001019060200180831161118357829003601f168201915b50505050509080600201549080600301549080600401549080600501549080600601549080600701549080600901549080600a0160009054906101000a900460ff169080600b0180546111f2906125f3565b80601f016020809104026020016040519081016040528092919081815260200182805461121e906125f3565b801561126b5780601f106112405761010080835404028352916020019161126b565b820191906000526020600020905b81548152906001019060200180831161124e57829003601f168201915b505050505090508b565b3061127e611c91565b6001600160a01b0316146112a0576737b7363ca9b2b63360c11b610ad3611c91565b6112a981611dfa565b6112b7603b54603c54611ed1565b50565b306112c3611c91565b6001600160a01b0316146112e5576737b7363ca9b2b63360c11b610ad3611c91565b6112f1603b5482611ed1565b603c5460408051918252602082018390527fb06a54caabe58475c86c2bf9df3f2f06dd1213e9e10659c293117fe4893b274b910160405180910390a1603c55565b6038600061133e611c91565b6001600160a01b0316815260208101919091526040016000205460ff1661137857604051633928026560e21b815260040160405180910390fd5b60028160ff16111561139d57604051632832fccb60e11b815260040160405180910390fd5b600082815260396020526040812060028101549091036113d05760405163742b68d760e01b815260040160405180910390fd5b80600301544211156113f55760405163ed13b8f760e01b815260040160405180910390fd5b806008016000611403611c91565b6001600160a01b0316815260208101919091526040016000205460ff161561143e57604051635758b7bf60e11b815260040160405180910390fd5b8160ff1660000361145957600581018054600101905561148b565b8160ff1660010361147457600681018054600101905561148b565b8160ff1660020361148b5760078101805460010190555b6000611495611c91565b6040805180820182526001815260ff86811660208084018281526001600160a01b038716600081815260088b0190935286832095518654925161ffff1990931690151561ff001916176101009290951691909102939093179093559251939450919287917fd8a95ca05e9a2656fe21d836329d9cd77830e7fef7acb7c0fd3bf5421ea7ad9a91a450505050565b7ff0c57e16840df040f15088dc2f81fe391c3923bec73e23a9662efc9c229c6a00805468010000000000000000810460ff16159067ffffffffffffffff1660008115801561156d5750825b905060008267ffffffffffffffff16600114801561158a5750303b155b905081158015611598575080155b156115b65760405163f92ee8a960e01b815260040160405180910390fd5b845467ffffffffffffffff1916600117855583156115ea57845468ff00000000000000001916680100000000000000001785555b6115f48888611f1d565b60606000808880602001905181019061160d91906127d6565b825192955090935091506000819003611639576040516371d0d18f60e01b815260040160405180910390fd5b6116438184611ed1565b6201518082108061165657506212750082115b1561167457604051634b017c5760e11b815260040160405180910390fd5b6000805b82811015611786578581815181106116925761169261289b565b6020026020010151915060006001600160a01b0316826001600160a01b031614806116c557506001600160a01b03821630145b806116dd57506000546001600160a01b038381169116145b156116fb576040516320afbe5160e21b815260040160405180910390fd5b6001600160a01b03821660009081526038602052604090205460ff1615611735576040516303e3421f60e11b815260040160405180910390fd5b6001600160a01b038216600081815260386020526040808220805460ff19166001179055517fa636f4a11e2d3ba7f89d042ecb0a6b886716e98cd49d8fd876ee0f73bced42b89190a2600101611678565b50603b829055603c8490556040805160008152602081018690527fb06a54caabe58475c86c2bf9df3f2f06dd1213e9e10659c293117fe4893b274b910160405180910390a1603d8390556040805160008152602081018590527fd47773545974972c430ef4df16cf8d0c415f1c29bc3ec203d20b7452d94494e7910160405180910390a150505050508315610f1b57845468ff000000000000000019168555604051600181527fc7f505b2f371ae2175ee4913f4499e1f2633a7b5936321eed1cdaeb6115181d29060200160405180910390a15050505050505050565b600080546040805163d09edf3160e01b815290518593926001600160a01b03169163d09edf319160048083019260209291908290030181865afa1580156118ae573d6000803e3d6000fd5b505050506040513d601f19601f820116820180604052508101906118d29190612565565b60405163fdd5205f60e01b8152306004820152602481018490526001600160a01b03919091169063fdd5205f90604401602060405180830381865afa15801561191f573d6000803e3d6000fd5b505050506040513d601f19601f820116820180604052508101906119439190612582565b905061199960008054906101000a90046001600160a01b03166001600160a01b031663d09edf316040518163ffffffff1660e01b8152600401602060405180830381865afa15801561063c573d6000803e3d6000fd5b60008054906101000a90046001600160a01b03166001600160a01b031663d09edf316040518163ffffffff1660e01b8152600401602060405180830381865afa1580156119ea573d6000803e3d6000fd5b505050506040513d601f19601f82011682018060405250810190611a0e9190612565565b604051632e99be7f60e21b8152600481018690526001600160a01b038581166024830152919091169063ba66f9fc90604401610eed565b600060386000611a53611c91565b6001600160a01b0316815260208101919091526040016000205460ff16611a8d57604051633928026560e21b815260040160405180910390fd5b6000848484603a54604051602001611aa894939291906128b1565b60408051808303601f190181529181528151602092830120600081815260399093529120805473ffffffffffffffffffffffffffffffffffffffff19166001600160a01b03881617815590915060018101611b048587836128de565b504260028201819055603d54611b19916129b5565b6003820155603c54600482015560405182907fdc396f10375221dd1a9c697ed5e2a7864ef1eb3dc140071da067f4b2d74d001990600090a250603a80546001019055949350505050565b30611b6c611c91565b6001600160a01b031614611b8e576737b7363ca9b2b63360c11b610ad3611c91565b806001600160a01b0381161580611bad57506001600160a01b03811630145b80611bc557506000546001600160a01b038281169116145b15611be3576040516320afbe5160e21b815260040160405180910390fd5b6001600160a01b03821660009081526038602052604090205460ff16610502576001600160a01b038216600081815260386020526040808220805460ff19166001908117909155603b80549091019055517fa636f4a11e2d3ba7f89d042ecb0a6b886716e98cd49d8fd876ee0f73bced42b89190a25050565b60006001600160e01b0319821663e328951160e01b14806104ea57506301ffc9a760e01b6001600160e01b03198316146104ea565b6000366014611c9f33610a39565b8015611cab5750808210155b15611cdb57600036611cbd83856129c8565b611cc89282906129db565b611cd191612a05565b60601c9250505090565b339250505090565b60008054906101000a90046001600160a01b03166001600160a01b031663d09edf316040518163ffffffff1660e01b8152600401602060405180830381865afa158015611d34573d6000803e3d6000fd5b505050506040513d601f19601f82011682018060405250810190611d589190612565565b60405163a883867d60e01b8152600481018490526001600160a01b038381166024830152919091169063a883867d90604401602060405180830381865afa158015611da7573d6000803e3d6000fd5b505050506040513d601f19601f82011682018060405250810190611dcb919061262d565b610502576040516342abbb7760e01b8152600481018390526001600160a01b0382166024820152604401610afa565b603b54600103611e1d576040516371d0d18f60e01b815260040160405180910390fd5b6001600160a01b03811660009081526038602052604090205460ff16156112b7576001600160a01b038116600081815260386020526040808220805460ff19169055603b8054600019019055517fa14a79af012d1756818f9bd59ccfc9ad185a71df86b9392d9059d9e6faf6d6449190a250565b6000816000015182606001518360800151604051602001611eb493929190612a3a565b604051602081830303815290604052805190602001209050919050565b81811180611eeb575060038210158015611eeb5750600281105b80611eff5750600382108015611eff575080155b1561050257604051634633ab4160e01b815260040160405180910390fd5b611f25612024565b6001600160a01b038216611f4c57604051637280679360e01b815260040160405180910390fd5b6000805473ffffffffffffffffffffffffffffffffffffffff19166001600160a01b038416179055611f7d81612074565b611f9a57604051637511254160e01b815260040160405180910390fd5b80516001908155602082015160025560408201516003556060820151829190600490611fc69082612716565b5060808201516004820190611fdb9082612716565b50905050816001600160a01b03167fd5f3f84c2e1816ce290af84d002663800b02f2985d770cdd335de76fd723b730826040516120189190612a6f565b60405180910390a25050565b7ff0c57e16840df040f15088dc2f81fe391c3923bec73e23a9662efc9c229c6a005468010000000000000000900460ff1661207257604051631afcd79f60e31b815260040160405180910390fd5b565b600081606001515160000361208b57506000919050565b8160800151516000036120a057506000919050565b81511580156120b157506020820151155b80156120bf57506040820151155b156120cc57506000919050565b506001919050565b6000602082840312156120e657600080fd5b81356001600160e01b0319811681146120fe57600080fd5b9392505050565b6001600160a01b03811681146112b757600080fd5b6000806040838503121561212d57600080fd5b823561213881612105565b946020939093013593505050565b60008060006040848603121561215b57600080fd5b83359250602084013567ffffffffffffffff8082111561217a57600080fd5b818601915086601f83011261218e57600080fd5b81358181111561219d57600080fd5b8760208260051b85010111156121b257600080fd5b6020830194508093505050509250925092565b6000815180845260005b818110156121eb576020818501810151868301820152016121cf565b506000602082860101526020601f19601f83011685010191505092915050565b6020815260006120fe60208301846121c5565b60006020828403121561223057600080fd5b81356120fe81612105565b60006020828403121561224d57600080fd5b5035919050565b6000806040838503121561226757600080fd5b82359150602083013561227981612105565b809150509250929050565b60006101606001600160a01b038e1683528060208401526122a78184018e6121c5565b90508b60408401528a60608401528960808401528860a08401528760c08401528660e0840152856101008401528415156101208401528281036101408401526122f081856121c5565b9e9d5050505050505050505050505050565b6000806040838503121561231557600080fd5b82359150602083013560ff8116811461227957600080fd5b634e487b7160e01b600052604160045260246000fd5b60405160a0810167ffffffffffffffff811182821017156123665761236661232d565b60405290565b604051601f8201601f1916810167ffffffffffffffff811182821017156123955761239561232d565b604052919050565b600082601f8301126123ae57600080fd5b813567ffffffffffffffff8111156123c8576123c861232d565b6123db601f8201601f191660200161236c565b8181528460208386010111156123f057600080fd5b816020850160208301376000918101602001919091529392505050565b60008060006060848603121561242257600080fd5b833561242d81612105565b9250602084013567ffffffffffffffff8082111561244a57600080fd5b9085019060a0828803121561245e57600080fd5b612466612343565b82358152602083013560208201526040830135604082015260608301358281111561249057600080fd5b61249c8982860161239d565b6060830152506080830135828111156124b457600080fd5b6124c08982860161239d565b608083015250935060408601359150808211156124dc57600080fd5b506124e98682870161239d565b9150509250925092565b60008060006040848603121561250857600080fd5b833561251381612105565b9250602084013567ffffffffffffffff8082111561253057600080fd5b818601915086601f83011261254457600080fd5b81358181111561255357600080fd5b8760208285010111156121b257600080fd5b60006020828403121561257757600080fd5b81516120fe81612105565b60006020828403121561259457600080fd5b5051919050565b83815260406020808301829052908201839052600090849060608401835b868110156125e75783356125cc81612105565b6001600160a01b0316825292820192908201906001016125b9565b50979650505050505050565b600181811c9082168061260757607f821691505b60208210810361262757634e487b7160e01b600052602260045260246000fd5b50919050565b60006020828403121561263f57600080fd5b815180151581146120fe57600080fd5b600080835461265d816125f3565b60018281168015612675576001811461268a576126b9565b60ff19841687528215158302870194506126b9565b8760005260208060002060005b858110156126b05781548a820152908401908201612697565b50505082870194505b50929695505050505050565b601f821115612711576000816000526020600020601f850160051c810160208610156126ee5750805b601f850160051c820191505b8181101561270d578281556001016126fa565b5050505b505050565b815167ffffffffffffffff8111156127305761273061232d565b6127448161273e84546125f3565b846126c5565b602080601f83116001811461277957600084156127615750858301515b600019600386901b1c1916600185901b17855561270d565b600085815260208120601f198616915b828110156127a857888601518255948401946001909101908401612789565b50858210156127c65787850151600019600388901b60f8161c191681555b5050505050600190811b01905550565b6000806000606084860312156127eb57600080fd5b835167ffffffffffffffff8082111561280357600080fd5b818601915086601f83011261281757600080fd5b815160208282111561282b5761282b61232d565b8160051b925061283c81840161236c565b828152928401810192818101908a85111561285657600080fd5b948201945b84861015612880578551935061287084612105565b838252948201949082019061285b565b91890151604090990151919a98995090979650505050505050565b634e487b7160e01b600052603260045260246000fd5b6bffffffffffffffffffffffff198560601b16815282846014830137601492019182015260340192915050565b67ffffffffffffffff8311156128f6576128f661232d565b61290a8361290483546125f3565b836126c5565b6000601f84116001811461293e57600085156129265750838201355b600019600387901b1c1916600186901b178355612998565b600083815260209020601f19861690835b8281101561296f578685013582556020948501946001909201910161294f565b508682101561298c5760001960f88860031b161c19848701351681555b505060018560011b0183555b5050505050565b634e487b7160e01b600052601160045260246000fd5b808201808211156104ea576104ea61299f565b818103818111156104ea576104ea61299f565b600080858511156129eb57600080fd5b838611156129f857600080fd5b5050820193919092039150565b6bffffffffffffffffffffffff198135818116916014851015612a325780818660140360031b1b83161692505b505092915050565b838152606060208201526000612a5360608301856121c5565b8281036040840152612a6581856121c5565b9695505050505050565b602081528151602082015260208201516040820152604082015160608201526000606083015160a06080840152612aa960c08401826121c5565b90506080840151601f198483030160a0850152612ac682826121c5565b9594505050505056fea2646970667358221220451e34ec7a717f9999a4ac27032657b58d28941083c98ad0257b8378afd0006f64736f6c63430008170033",
    "linkReferences": {}
  },
  "methodIdentifiers": {
    "MAX_VOTING_DURATION()": "eefe85e4",
    "MIN_VOTING_DURATION()": "eaf1061c",
    "addVoter(address)": "f4ab9adf",
    "addVoterAndUpdateThreshold(address,uint256)": "13f99826",
    "castVote(bytes32,uint8)": "b4b0713e",
    "createMotion(address,bytes)": "e6f5ed5d",
    "executeMotion(bytes32)": "5ec4858c",
    "getReceipt(bytes32,address)": "76aa2645",
    "grantModuleRole(bytes32,address)": "6c67e807",
    "grantModuleRoleBatched(bytes32,address[])": "272bbd44",
    "identifier()": "7998a1c4",
    "init(address,(uint256,uint256,uint256,string,string),bytes)": "b66a870c",
    "isTrustedForwarder(address)": "572b6c05",
    "isVoter(address)": "a7771ee3",
    "motionCount()": "2cb0c650",
    "motions(bytes32)": "81ca1753",
    "orchestrator()": "b74795d9",
    "removeVoter(address)": "86c1ff68",
    "removeVoterAndUpdateThreshold(address,uint256)": "696a6eca",
    "revokeModuleRole(bytes32,address)": "bcb61920",
    "revokeModuleRoleBatched(bytes32,address[])": "24e30270",
    "setThreshold(uint256)": "960bfe04",
    "setVotingDuration(uint256)": "5bcfadb5",
    "supportsInterface(bytes4)": "01ffc9a7",
    "threshold()": "42cde4e8",
    "title()": "4a79d50c",
    "trustedForwarder()": "7da0a877",
    "url()": "5600f04f",
    "version()": "54fd4d50",
    "voteDuration()": "56364499",
    "voterCount()": "42169e48"
  },
  "id": 100
}