{
  "abi": [
    {
      "type": "function",
      "name": "PRICE_SETTER_ROLE",
      "inputs": [],
      "outputs": [
        {
          "name": "",
          "type": "bytes32",
          "internalType": "bytes32"
        }
      ],
      "stateMutability": "view"
    },
    {
      "type": "function",
      "name": "getPriceForIssuance",
      "inputs": [],
      "outputs": [
        {
          "name": "",
          "type": "uint256",
          "internalType": "uint256"
        }
      ],
      "stateMutability": "view"
    },
    {
      "type": "function",
      "name": "getPriceForRedemption",
      "inputs": [],
      "outputs": [
        {
          "name": "",
          "type": "uint256",
          "internalType": "uint256"
        }
      ],
      "stateMutability": "view"
    },
    {
      "type": "function",
      "name": "grantModuleRole",
      "inputs": [
        {
          "name": "role",
          "type": "bytes32",
          "internalType": "bytes32"
        },
        {
          "name": "target",
          "type": "address",
          "internalType": "address"
        }
      ],
      "outputs": [],
      "stateMutability": "nonpayable"
    },
    {
      "type": "function",
      "name": "grantModuleRoleBatched",
      "inputs": [
        {
          "name": "role",
          "type": "bytes32",
          "internalType": "bytes32"
        },
        {
          "name": "targets",
          "type": "address[]",
          "internalType": "address[]"
        }
      ],
      "outputs": [],
      "stateMutability": "nonpayable"
    },
    {
      "type": "function",
      "name": "identifier",
      "inputs": [],
      "outputs": [
        {
          "name": "",
          "type": "bytes32",
          "internalType": "bytes32"
        }
      ],
      "stateMutability": "view"
    },
    {
      "type": "function",
      "name": "init",
      "inputs": [
        {
          "name": "orchestrator_",
          "type": "address",
          "internalType": "contract IOrchestrator_v1"
        },
        {
          "name": "metadata_",
          "type": "tuple",
          "internalType": "struct IModule_v1.Metadata",
          "components": [
            {
              "name": "majorVersion",
              "type": "uint256",
              "internalType": "uint256"
            },
            {
              "name": "minorVersion",
              "type": "uint256",
              "internalType": "uint256"
            },
            {
              "name": "patchVersion",
              "type": "uint256",
              "internalType": "uint256"
            },
            {
              "name": "url",
              "type": "string",
              "internalType": "string"
            },
            {
              "name": "title",
              "type": "string",
              "internalType": "string"
            }
          ]
        },
        {
          "name": "configData_",
          "type": "bytes",
          "internalType": "bytes"
        }
      ],
      "outputs": [],
      "stateMutability": "nonpayable"
    },
    {
      "type": "function",
      "name": "isTrustedForwarder",
      "inputs": [
        {
          "name": "forwarder",
          "type": "address",
          "internalType": "address"
        }
      ],
      "outputs": [
        {
          "name": "",
          "type": "bool",
          "internalType": "bool"
        }
      ],
      "stateMutability": "view"
    },
    {
      "type": "function",
      "name": "orchestrator",
      "inputs": [],
      "outputs": [
        {
          "name": "",
          "type": "address",
          "internalType": "contract IOrchestrator_v1"
        }
      ],
      "stateMutability": "view"
    },
    {
      "type": "function",
      "name": "revokeModuleRole",
      "inputs": [
        {
          "name": "role",
          "type": "bytes32",
          "internalType": "bytes32"
        },
        {
          "name": "target",
          "type": "address",
          "internalType": "address"
        }
      ],
      "outputs": [],
      "stateMutability": "nonpayable"
    },
    {
      "type": "function",
      "name": "revokeModuleRoleBatched",
      "inputs": [
        {
          "name": "role",
          "type": "bytes32",
          "internalType": "bytes32"
        },
        {
          "name": "targets",
          "type": "address[]",
          "internalType": "address[]"
        }
      ],
      "outputs": [],
      "stateMutability": "nonpayable"
    },
    {
      "type": "function",
      "name": "setIssuancePrice",
      "inputs": [
        {
          "name": "price_",
          "type": "uint256",
          "internalType": "uint256"
        }
      ],
      "outputs": [],
      "stateMutability": "nonpayable"
    },
    {
      "type": "function",
      "name": "setRedemptionPrice",
      "inputs": [
        {
          "name": "price_",
          "type": "uint256",
          "internalType": "uint256"
        }
      ],
      "outputs": [],
      "stateMutability": "nonpayable"
    },
    {
      "type": "function",
      "name": "supportsInterface",
      "inputs": [
        {
          "name": "interfaceId",
          "type": "bytes4",
          "internalType": "bytes4"
        }
      ],
      "outputs": [
        {
          "name": "",
          "type": "bool",
          "internalType": "bool"
        }
      ],
      "stateMutability": "view"
    },
    {
      "type": "function",
      "name": "title",
      "inputs": [],
      "outputs": [
        {
          "name": "",
          "type": "string",
          "internalType": "string"
        }
      ],
      "stateMutability": "view"
    },
    {
      "type": "function",
      "name": "trustedForwarder",
      "inputs": [],
      "outputs": [
        {
          "name": "",
          "type": "address",
          "internalType": "address"
        }
      ],
      "stateMutability": "view"
    },
    {
      "type": "function",
      "name": "url",
      "inputs": [],
      "outputs": [
        {
          "name": "",
          "type": "string",
          "internalType": "string"
        }
      ],
      "stateMutability": "view"
    },
    {
      "type": "function",
      "name": "version",
      "inputs": [],
      "outputs": [
        {
          "name": "",
          "type": "uint256",
          "internalType": "uint256"
        },
        {
          "name": "",
          "type": "uint256",
          "internalType": "uint256"
        },
        {
          "name": "",
          "type": "uint256",
          "internalType": "uint256"
        }
      ],
      "stateMutability": "view"
    },
    {
      "type": "event",
      "name": "Initialized",
      "inputs": [
        {
          "name": "version",
          "type": "uint64",
          "indexed": false,
          "internalType": "uint64"
        }
      ],
      "anonymous": false
    },
    {
      "type": "event",
      "name": "IssuancePriceSet",
      "inputs": [
        {
          "name": "price",
          "type": "uint256",
          "indexed": true,
          "internalType": "uint256"
        },
        {
          "name": "timestamp",
          "type": "uint256",
          "indexed": true,
          "internalType": "uint256"
        }
      ],
      "anonymous": false
    },
    {
      "type": "event",
      "name": "ModuleInitialized",
      "inputs": [
        {
          "name": "parentOrchestrator",
          "type": "address",
          "indexed": true,
          "internalType": "address"
        },
        {
          "name": "metadata",
          "type": "tuple",
          "indexed": false,
          "internalType": "struct IModule_v1.Metadata",
          "components": [
            {
              "name": "majorVersion",
              "type": "uint256",
              "internalType": "uint256"
            },
            {
              "name": "minorVersion",
              "type": "uint256",
              "internalType": "uint256"
            },
            {
              "name": "patchVersion",
              "type": "uint256",
              "internalType": "uint256"
            },
            {
              "name": "url",
              "type": "string",
              "internalType": "string"
            },
            {
              "name": "title",
              "type": "string",
              "internalType": "string"
            }
          ]
        }
      ],
      "anonymous": false
    },
    {
      "type": "event",
      "name": "ProtocolFeeTransferred",
      "inputs": [
        {
          "name": "token",
          "type": "address",
          "indexed": true,
          "internalType": "address"
        },
        {
          "name": "treasury",
          "type": "address",
          "indexed": true,
          "internalType": "address"
        },
        {
          "name": "feeAmount",
          "type": "uint256",
          "indexed": false,
          "internalType": "uint256"
        }
      ],
      "anonymous": false
    },
    {
      "type": "event",
      "name": "RedemptionPriceSet",
      "inputs": [
        {
          "name": "price",
          "type": "uint256",
          "indexed": true,
          "internalType": "uint256"
        },
        {
          "name": "timestamp",
          "type": "uint256",
          "indexed": true,
          "internalType": "uint256"
        }
      ],
      "anonymous": false
    },
    {
      "type": "error",
      "name": "InvalidInitialization",
      "inputs": []
    },
    {
      "type": "error",
      "name": "Module_OrchestratorCallbackFailed",
      "inputs": [
        {
          "name": "funcSig",
          "type": "string",
          "internalType": "string"
        }
      ]
    },
    {
      "type": "error",
      "name": "Module__CallerNotAuthorized",
      "inputs": [
        {
          "name": "role",
          "type": "bytes32",
          "internalType": "bytes32"
        },
        {
          "name": "caller",
          "type": "address",
          "internalType": "address"
        }
      ]
    },
    {
      "type": "error",
      "name": "Module__InvalidAddress",
      "inputs": []
    },
    {
      "type": "error",
      "name": "Module__InvalidMetadata",
      "inputs": []
    },
    {
      "type": "error",
      "name": "Module__InvalidOrchestratorAddress",
      "inputs": []
    },
    {
      "type": "error",
      "name": "Module__LM_ExternalPriceSetter__InvalidPrice",
      "inputs": []
    },
    {
      "type": "error",
      "name": "Module__OnlyCallableByOrchestrator",
      "inputs": []
    },
    {
      "type": "error",
      "name": "Module__OnlyCallableByPaymentClient",
      "inputs": []
    },
    {
      "type": "error",
      "name": "NotInitializing",
      "inputs": []
    },
    {
      "type": "error",
      "name": "OraclePrice__ZeroPrice",
      "inputs": []
    }
  ],
  "bytecode": {
    "object": "0x60a060405234801561001057600080fd5b50600060805261001e610023565b6100d5565b7ff0c57e16840df040f15088dc2f81fe391c3923bec73e23a9662efc9c229c6a00805468010000000000000000900460ff16156100735760405163f92ee8a960e01b815260040160405180910390fd5b80546001600160401b03908116146100d25780546001600160401b0319166001600160401b0390811782556040519081527fc7f505b2f371ae2175ee4913f4499e1f2633a7b5936321eed1cdaeb6115181d29060200160405180910390a15b50565b608051611f616100ed60003960005050611f616000f3fe608060405234801561001057600080fd5b50600436106101365760003560e01c8063572b6c05116100b25780637da0a87711610081578063b74795d911610066578063b74795d914610271578063bcb6192014610282578063f00acbaa1461029557600080fd5b80637da0a8771461023e578063b66a870c1461025e57600080fd5b8063572b6c05146102085780636650c9c51461021b5780636c67e807146102235780637998a1c41461023657600080fd5b806328c87cdb116101095780634a79d50c116100ee5780634a79d50c146101c757806354fd4d50146101dc5780635600f04f1461020057600080fd5b806328c87cdb146101a157806341e795ff146101b457600080fd5b806301ffc9a71461013b578063098f5a201461016357806324e3027014610179578063272bbd441461018e575b600080fd5b61014e610149366004611743565b6102b0565b60405190151581526020015b60405180910390f35b61016b6102db565b60405190815260200161015a565b61018c610187366004611774565b61031d565b005b61018c61019c366004611774565b6105cf565b61018c6101af3660046117f3565b6107a9565b61018c6101c23660046117f3565b6108d1565b6101cf6109a5565b60405161015a9190611852565b6001546002546003546040805193845260208401929092529082015260600161015a565b6101cf610a3a565b61014e61021636600461187d565b610a4c565b61016b610abb565b61018c61023136600461189a565b610af8565b61016b610d0e565b610246610e67565b6040516001600160a01b03909116815260200161015a565b61018c61026c366004611996565b610edf565b6000546001600160a01b0316610246565b61018c61029036600461189a565b61111a565b61016b7050524943455f5345545445525f524f4c4560781b81565b60006001600160e01b03198216631a4bfa4960e21b14806102d557506102d5826112fc565b92915050565b600060395460000361030057604051634f3bcaef60e11b815260040160405180910390fd5b603954603a546103189190610100900460ff16611331565b905090565b600080546040805163d09edf3160e01b815290518693926001600160a01b03169163d09edf319160048083019260209291908290030181865afa158015610368573d6000803e3d6000fd5b505050506040513d601f19601f8201168201806040525081019061038c9190611a7c565b60405163fdd5205f60e01b8152306004820152602481018490526001600160a01b03919091169063fdd5205f90604401602060405180830381865afa1580156103d9573d6000803e3d6000fd5b505050506040513d601f19601f820116820180604052508101906103fd9190611a99565b90506104f260008054906101000a90046001600160a01b03166001600160a01b031663d09edf316040518163ffffffff1660e01b8152600401602060405180830381865afa158015610453573d6000803e3d6000fd5b505050506040513d601f19601f820116820180604052508101906104779190611a7c565b6001600160a01b031663248a9ca3836040518263ffffffff1660e01b81526004016104a491815260200190565b602060405180830381865afa1580156104c1573d6000803e3d6000fd5b505050506040513d601f19601f820116820180604052508101906104e59190611a99565b6104ed611399565b6113eb565b60008054906101000a90046001600160a01b03166001600160a01b031663d09edf316040518163ffffffff1660e01b8152600401602060405180830381865afa158015610543573d6000803e3d6000fd5b505050506040513d601f19601f820116820180604052508101906105679190611a7c565b6001600160a01b0316637d540a648686866040518463ffffffff1660e01b815260040161059693929190611ab2565b600060405180830381600087803b1580156105b057600080fd5b505af11580156105c4573d6000803e3d6000fd5b505050505050505050565b600080546040805163d09edf3160e01b815290518693926001600160a01b03169163d09edf319160048083019260209291908290030181865afa15801561061a573d6000803e3d6000fd5b505050506040513d601f19601f8201168201806040525081019061063e9190611a7c565b60405163fdd5205f60e01b8152306004820152602481018490526001600160a01b03919091169063fdd5205f90604401602060405180830381865afa15801561068b573d6000803e3d6000fd5b505050506040513d601f19601f820116820180604052508101906106af9190611a99565b905061070560008054906101000a90046001600160a01b03166001600160a01b031663d09edf316040518163ffffffff1660e01b8152600401602060405180830381865afa158015610453573d6000803e3d6000fd5b60008054906101000a90046001600160a01b03166001600160a01b031663d09edf316040518163ffffffff1660e01b8152600401602060405180830381865afa158015610756573d6000803e3d6000fd5b505050506040513d601f19601f8201168201806040525081019061077a9190611a7c565b6001600160a01b031663648154538686866040518463ffffffff1660e01b815260040161059693929190611ab2565b7050524943455f5345545445525f524f4c4560781b61086b60008054906101000a90046001600160a01b03166001600160a01b031663d09edf316040518163ffffffff1660e01b8152600401602060405180830381865afa158015610812573d6000803e3d6000fd5b505050506040513d601f19601f820116820180604052508101906108369190611a7c565b60405163fdd5205f60e01b8152306004820152602481018490526001600160a01b03919091169063fdd5205f906044016104a4565b8160000361088c57604051634f3bcaef60e11b815260040160405180910390fd5b603a5461089d90839060ff1661150a565b603855604051429083907f81f221bce442e7f52873ddd32f2cf578a5eafea3e9585bff2cbeee88dc93418590600090a35050565b7050524943455f5345545445525f524f4c4560781b61093a60008054906101000a90046001600160a01b03166001600160a01b031663d09edf316040518163ffffffff1660e01b8152600401602060405180830381865afa158015610812573d6000803e3d6000fd5b8160000361095b57604051634f3bcaef60e11b815260040160405180910390fd5b603a54610971908390610100900460ff1661150a565b603955604051429083907f70434c6374cf0fdef8144bf5d9d0d5099c452959baf093785719a07e5c173aa890600090a35050565b6060600160040180546109b790611b0a565b80601f01602080910402602001604051908101604052809291908181526020018280546109e390611b0a565b8015610a305780601f10610a0557610100808354040283529160200191610a30565b820191906000526020600020905b815481529060010190602001808311610a1357829003601f168201915b5050505050905090565b6060600160030180546109b790611b0a565b6000805460405163572b6c0560e01b81526001600160a01b0384811660048301529091169063572b6c0590602401602060405180830381865afa158015610a97573d6000803e3d6000fd5b505050506040513d601f19601f820116820180604052508101906102d59190611b44565b6000603854600003610ae057604051634f3bcaef60e11b815260040160405180910390fd5b603854603a546103189190610100900460ff16611331565b600080546040805163d09edf3160e01b815290518593926001600160a01b03169163d09edf319160048083019260209291908290030181865afa158015610b43573d6000803e3d6000fd5b505050506040513d601f19601f82011682018060405250810190610b679190611a7c565b60405163fdd5205f60e01b8152306004820152602481018490526001600160a01b03919091169063fdd5205f90604401602060405180830381865afa158015610bb4573d6000803e3d6000fd5b505050506040513d601f19601f82011682018060405250810190610bd89190611a99565b9050610c2e60008054906101000a90046001600160a01b03166001600160a01b031663d09edf316040518163ffffffff1660e01b8152600401602060405180830381865afa158015610453573d6000803e3d6000fd5b60008054906101000a90046001600160a01b03166001600160a01b031663d09edf316040518163ffffffff1660e01b8152600401602060405180830381865afa158015610c7f573d6000803e3d6000fd5b505050506040513d601f19601f82011682018060405250810190610ca39190611a7c565b60405163385e205560e21b8152600481018690526001600160a01b038581166024830152919091169063e1788154906044015b600060405180830381600087803b158015610cf057600080fd5b505af1158015610d04573d6000803e3d6000fd5b5050505050505050565b600061031860016040518060a0016040529081600082015481526020016001820154815260200160028201548152602001600382018054610d4e90611b0a565b80601f0160208091040260200160405190810160405280929190818152602001828054610d7a90611b0a565b8015610dc75780601f10610d9c57610100808354040283529160200191610dc7565b820191906000526020600020905b815481529060010190602001808311610daa57829003601f168201915b50505050508152602001600482018054610de090611b0a565b80601f0160208091040260200160405190810160405280929190818152602001828054610e0c90611b0a565b8015610e595780601f10610e2e57610100808354040283529160200191610e59565b820191906000526020600020905b815481529060010190602001808311610e3c57829003601f168201915b505050505081525050611541565b60008060009054906101000a90046001600160a01b03166001600160a01b0316637da0a8776040518163ffffffff1660e01b8152600401602060405180830381865afa158015610ebb573d6000803e3d6000fd5b505050506040513d601f19601f820116820180604052508101906103189190611a7c565b7ff0c57e16840df040f15088dc2f81fe391c3923bec73e23a9662efc9c229c6a00805468010000000000000000810460ff16159067ffffffffffffffff16600081158015610f2a5750825b905060008267ffffffffffffffff166001148015610f475750303b155b905081158015610f55575080155b15610f735760405163f92ee8a960e01b815260040160405180910390fd5b845467ffffffffffffffff191660011785558315610fa757845468ff00000000000000001916680100000000000000001785555b610fb18888611581565b60008087806020019051810190610fc89190611b66565b91509150816001600160a01b031663313ce5676040518163ffffffff1660e01b8152600401602060405180830381865afa15801561100a573d6000803e3d6000fd5b505050506040513d601f19601f8201168201806040525081019061102e9190611b95565b603a60006101000a81548160ff021916908360ff160217905550806001600160a01b031663313ce5676040518163ffffffff1660e01b8152600401602060405180830381865afa158015611086573d6000803e3d6000fd5b505050506040513d601f19601f820116820180604052508101906110aa9190611b95565b603a60016101000a81548160ff021916908360ff16021790555050508315610d0457845468ff000000000000000019168555604051600181527fc7f505b2f371ae2175ee4913f4499e1f2633a7b5936321eed1cdaeb6115181d29060200160405180910390a15050505050505050565b600080546040805163d09edf3160e01b815290518593926001600160a01b03169163d09edf319160048083019260209291908290030181865afa158015611165573d6000803e3d6000fd5b505050506040513d601f19601f820116820180604052508101906111899190611a7c565b60405163fdd5205f60e01b8152306004820152602481018490526001600160a01b03919091169063fdd5205f90604401602060405180830381865afa1580156111d6573d6000803e3d6000fd5b505050506040513d601f19601f820116820180604052508101906111fa9190611a99565b905061125060008054906101000a90046001600160a01b03166001600160a01b031663d09edf316040518163ffffffff1660e01b8152600401602060405180830381865afa158015610453573d6000803e3d6000fd5b60008054906101000a90046001600160a01b03166001600160a01b031663d09edf316040518163ffffffff1660e01b8152600401602060405180830381865afa1580156112a1573d6000803e3d6000fd5b505050506040513d601f19601f820116820180604052508101906112c59190611a7c565b604051632e99be7f60e21b8152600481018690526001600160a01b038581166024830152919091169063ba66f9fc90604401610cd6565b60006001600160e01b0319821663e328951160e01b14806102d557506301ffc9a760e01b6001600160e01b03198316146102d5565b600060111960ff8316016113465750816102d5565b601260ff831611156113795761135d601283611bce565b61136890600a611ccb565b6113729084611cda565b90506102d5565b611384826012611bce565b61138f90600a611ccb565b6113729084611cf1565b60003660146113a733610a4c565b80156113b35750808210155b156113e3576000366113c58385611d13565b6113d0928290611d26565b6113d991611d50565b60601c9250505090565b339250505090565b60008054906101000a90046001600160a01b03166001600160a01b031663d09edf316040518163ffffffff1660e01b8152600401602060405180830381865afa15801561143c573d6000803e3d6000fd5b505050506040513d601f19601f820116820180604052508101906114609190611a7c565b60405163a883867d60e01b8152600481018490526001600160a01b038381166024830152919091169063a883867d90604401602060405180830381865afa1580156114af573d6000803e3d6000fd5b505050506040513d601f19601f820116820180604052508101906114d39190611b44565b611506576040516342abbb7760e01b8152600481018390526001600160a01b038216602482015260440160405180910390fd5b5050565b600060111960ff83160161151f5750816102d5565b601260ff8316111561153657611384601283611bce565b61135d826012611bce565b600081600001518260600151836080015160405160200161156493929190611d85565b604051602081830303815290604052805190602001209050919050565b611589611693565b6001600160a01b0382166115b057604051637280679360e01b815260040160405180910390fd5b600080547fffffffffffffffffffffffff0000000000000000000000000000000000000000166001600160a01b0384161790556115ec816116e3565b61160957604051637511254160e01b815260040160405180910390fd5b805160019081556020820151600255604082015160035560608201518291906004906116359082611e0b565b506080820151600482019061164a9082611e0b565b50905050816001600160a01b03167fd5f3f84c2e1816ce290af84d002663800b02f2985d770cdd335de76fd723b730826040516116879190611ecb565b60405180910390a25050565b7ff0c57e16840df040f15088dc2f81fe391c3923bec73e23a9662efc9c229c6a005468010000000000000000900460ff166116e157604051631afcd79f60e31b815260040160405180910390fd5b565b60008160600151516000036116fa57506000919050565b81608001515160000361170f57506000919050565b815115801561172057506020820151155b801561172e57506040820151155b1561173b57506000919050565b506001919050565b60006020828403121561175557600080fd5b81356001600160e01b03198116811461176d57600080fd5b9392505050565b60008060006040848603121561178957600080fd5b83359250602084013567ffffffffffffffff808211156117a857600080fd5b818601915086601f8301126117bc57600080fd5b8135818111156117cb57600080fd5b8760208260051b85010111156117e057600080fd5b6020830194508093505050509250925092565b60006020828403121561180557600080fd5b5035919050565b6000815180845260005b8181101561183257602081850181015186830182015201611816565b506000602082860101526020601f19601f83011685010191505092915050565b60208152600061176d602083018461180c565b6001600160a01b038116811461187a57600080fd5b50565b60006020828403121561188f57600080fd5b813561176d81611865565b600080604083850312156118ad57600080fd5b8235915060208301356118bf81611865565b809150509250929050565b634e487b7160e01b600052604160045260246000fd5b60405160a0810167ffffffffffffffff81118282101715611903576119036118ca565b60405290565b600082601f83011261191a57600080fd5b813567ffffffffffffffff80821115611935576119356118ca565b604051601f8301601f19908116603f0116810190828211818310171561195d5761195d6118ca565b8160405283815286602085880101111561197657600080fd5b836020870160208301376000602085830101528094505050505092915050565b6000806000606084860312156119ab57600080fd5b83356119b681611865565b9250602084013567ffffffffffffffff808211156119d357600080fd5b9085019060a082880312156119e757600080fd5b6119ef6118e0565b823581526020830135602082015260408301356040820152606083013582811115611a1957600080fd5b611a2589828601611909565b606083015250608083013582811115611a3d57600080fd5b611a4989828601611909565b60808301525093506040860135915080821115611a6557600080fd5b50611a7286828701611909565b9150509250925092565b600060208284031215611a8e57600080fd5b815161176d81611865565b600060208284031215611aab57600080fd5b5051919050565b83815260406020808301829052908201839052600090849060608401835b86811015611afe578335611ae381611865565b6001600160a01b031682529282019290820190600101611ad0565b50979650505050505050565b600181811c90821680611b1e57607f821691505b602082108103611b3e57634e487b7160e01b600052602260045260246000fd5b50919050565b600060208284031215611b5657600080fd5b8151801515811461176d57600080fd5b60008060408385031215611b7957600080fd5b8251611b8481611865565b60208401519092506118bf81611865565b600060208284031215611ba757600080fd5b815160ff8116811461176d57600080fd5b634e487b7160e01b600052601160045260246000fd5b60ff82811682821603908111156102d5576102d5611bb8565b600181815b80851115611c22578160001904821115611c0857611c08611bb8565b80851615611c1557918102915b93841c9390800290611bec565b509250929050565b600082611c39575060016102d5565b81611c46575060006102d5565b8160018114611c5c5760028114611c6657611c82565b60019150506102d5565b60ff841115611c7757611c77611bb8565b50506001821b6102d5565b5060208310610133831016604e8410600b8410161715611ca5575081810a6102d5565b611caf8383611be7565b8060001904821115611cc357611cc3611bb8565b029392505050565b600061176d60ff841683611c2a565b80820281158282048414176102d5576102d5611bb8565b600082611d0e57634e487b7160e01b600052601260045260246000fd5b500490565b818103818111156102d5576102d5611bb8565b60008085851115611d3657600080fd5b83861115611d4357600080fd5b5050820193919092039150565b6bffffffffffffffffffffffff198135818116916014851015611d7d5780818660140360031b1b83161692505b505092915050565b838152606060208201526000611d9e606083018561180c565b8281036040840152611db0818561180c565b9695505050505050565b601f821115611e06576000816000526020600020601f850160051c81016020861015611de35750805b601f850160051c820191505b81811015611e0257828155600101611def565b5050505b505050565b815167ffffffffffffffff811115611e2557611e256118ca565b611e3981611e338454611b0a565b84611dba565b602080601f831160018114611e6e5760008415611e565750858301515b600019600386901b1c1916600185901b178555611e02565b600085815260208120601f198616915b82811015611e9d57888601518255948401946001909101908401611e7e565b5085821015611ebb5787850151600019600388901b60f8161c191681555b5050505050600190811b01905550565b602081528151602082015260208201516040820152604082015160608201526000606083015160a06080840152611f0560c084018261180c565b90506080840151601f198483030160a0850152611f22828261180c565b9594505050505056fea2646970667358221220f86e07e381e80dbee32f05826bfd66985dbcd37fb145deb645ae76f7fbbd366f64736f6c63430008170033",
    "linkReferences": {}
  },
  "methodIdentifiers": {
    "PRICE_SETTER_ROLE()": "f00acbaa",
    "getPriceForIssuance()": "6650c9c5",
    "getPriceForRedemption()": "098f5a20",
    "grantModuleRole(bytes32,address)": "6c67e807",
    "grantModuleRoleBatched(bytes32,address[])": "272bbd44",
    "identifier()": "7998a1c4",
    "init(address,(uint256,uint256,uint256,string,string),bytes)": "b66a870c",
    "isTrustedForwarder(address)": "572b6c05",
    "orchestrator()": "b74795d9",
    "revokeModuleRole(bytes32,address)": "bcb61920",
    "revokeModuleRoleBatched(bytes32,address[])": "24e30270",
    "setIssuancePrice(uint256)": "28c87cdb",
    "setRedemptionPrice(uint256)": "41e795ff",
    "supportsInterface(bytes4)": "01ffc9a7",
    "title()": "4a79d50c",
    "trustedForwarder()": "7da0a877",
    "url()": "5600f04f",
    "version()": "54fd4d50"
  },
  "id": 129
}