{
  "abi": [
    {
      "type": "function",
      "name": "PRICE_SETTER_ROLE",
      "inputs": [],
      "outputs": [
        {
          "name": "",
          "type": "bytes32",
          "internalType": "bytes32"
        }
      ],
      "stateMutability": "view"
    },
    {
      "type": "function",
      "name": "getPriceForIssuance",
      "inputs": [],
      "outputs": [
        {
          "name": "",
          "type": "uint256",
          "internalType": "uint256"
        }
      ],
      "stateMutability": "view"
    },
    {
      "type": "function",
      "name": "getPriceForRedemption",
      "inputs": [],
      "outputs": [
        {
          "name": "",
          "type": "uint256",
          "internalType": "uint256"
        }
      ],
      "stateMutability": "view"
    },
    {
      "type": "function",
      "name": "grantModuleRole",
      "inputs": [
        {
          "name": "role",
          "type": "bytes32",
          "internalType": "bytes32"
        },
        {
          "name": "target",
          "type": "address",
          "internalType": "address"
        }
      ],
      "outputs": [],
      "stateMutability": "nonpayable"
    },
    {
      "type": "function",
      "name": "grantModuleRoleBatched",
      "inputs": [
        {
          "name": "role",
          "type": "bytes32",
          "internalType": "bytes32"
        },
        {
          "name": "targets",
          "type": "address[]",
          "internalType": "address[]"
        }
      ],
      "outputs": [],
      "stateMutability": "nonpayable"
    },
    {
      "type": "function",
      "name": "identifier",
      "inputs": [],
      "outputs": [
        {
          "name": "",
          "type": "bytes32",
          "internalType": "bytes32"
        }
      ],
      "stateMutability": "view"
    },
    {
      "type": "function",
      "name": "init",
      "inputs": [
        {
          "name": "orchestrator_",
          "type": "address",
          "internalType": "contract IOrchestrator_v1"
        },
        {
          "name": "metadata_",
          "type": "tuple",
          "internalType": "struct IModule_v1.Metadata",
          "components": [
            {
              "name": "majorVersion",
              "type": "uint256",
              "internalType": "uint256"
            },
            {
              "name": "minorVersion",
              "type": "uint256",
              "internalType": "uint256"
            },
            {
              "name": "patchVersion",
              "type": "uint256",
              "internalType": "uint256"
            },
            {
              "name": "url",
              "type": "string",
              "internalType": "string"
            },
            {
              "name": "title",
              "type": "string",
              "internalType": "string"
            }
          ]
        },
        {
          "name": "configData_",
          "type": "bytes",
          "internalType": "bytes"
        }
      ],
      "outputs": [],
      "stateMutability": "nonpayable"
    },
    {
      "type": "function",
      "name": "isTrustedForwarder",
      "inputs": [
        {
          "name": "forwarder",
          "type": "address",
          "internalType": "address"
        }
      ],
      "outputs": [
        {
          "name": "",
          "type": "bool",
          "internalType": "bool"
        }
      ],
      "stateMutability": "view"
    },
    {
      "type": "function",
      "name": "orchestrator",
      "inputs": [],
      "outputs": [
        {
          "name": "",
          "type": "address",
          "internalType": "contract IOrchestrator_v1"
        }
      ],
      "stateMutability": "view"
    },
    {
      "type": "function",
      "name": "revokeModuleRole",
      "inputs": [
        {
          "name": "role",
          "type": "bytes32",
          "internalType": "bytes32"
        },
        {
          "name": "target",
          "type": "address",
          "internalType": "address"
        }
      ],
      "outputs": [],
      "stateMutability": "nonpayable"
    },
    {
      "type": "function",
      "name": "revokeModuleRoleBatched",
      "inputs": [
        {
          "name": "role",
          "type": "bytes32",
          "internalType": "bytes32"
        },
        {
          "name": "targets",
          "type": "address[]",
          "internalType": "address[]"
        }
      ],
      "outputs": [],
      "stateMutability": "nonpayable"
    },
    {
      "type": "function",
      "name": "setIssuancePrice",
      "inputs": [
        {
          "name": "price_",
          "type": "uint256",
          "internalType": "uint256"
        }
      ],
      "outputs": [],
      "stateMutability": "nonpayable"
    },
    {
      "type": "function",
      "name": "setRedemptionPrice",
      "inputs": [
        {
          "name": "price_",
          "type": "uint256",
          "internalType": "uint256"
        }
      ],
      "outputs": [],
      "stateMutability": "nonpayable"
    },
    {
      "type": "function",
      "name": "supportsInterface",
      "inputs": [
        {
          "name": "interfaceId",
          "type": "bytes4",
          "internalType": "bytes4"
        }
      ],
      "outputs": [
        {
          "name": "",
          "type": "bool",
          "internalType": "bool"
        }
      ],
      "stateMutability": "view"
    },
    {
      "type": "function",
      "name": "title",
      "inputs": [],
      "outputs": [
        {
          "name": "",
          "type": "string",
          "internalType": "string"
        }
      ],
      "stateMutability": "view"
    },
    {
      "type": "function",
      "name": "trustedForwarder",
      "inputs": [],
      "outputs": [
        {
          "name": "",
          "type": "address",
          "internalType": "address"
        }
      ],
      "stateMutability": "view"
    },
    {
      "type": "function",
      "name": "url",
      "inputs": [],
      "outputs": [
        {
          "name": "",
          "type": "string",
          "internalType": "string"
        }
      ],
      "stateMutability": "view"
    },
    {
      "type": "function",
      "name": "version",
      "inputs": [],
      "outputs": [
        {
          "name": "",
          "type": "uint256",
          "internalType": "uint256"
        },
        {
          "name": "",
          "type": "uint256",
          "internalType": "uint256"
        },
        {
          "name": "",
          "type": "uint256",
          "internalType": "uint256"
        }
      ],
      "stateMutability": "view"
    },
    {
      "type": "event",
      "name": "Initialized",
      "inputs": [
        {
          "name": "version",
          "type": "uint64",
          "indexed": false,
          "internalType": "uint64"
        }
      ],
      "anonymous": false
    },
    {
      "type": "event",
      "name": "IssuancePriceSet",
      "inputs": [
        {
          "name": "price_",
          "type": "uint256",
          "indexed": true,
          "internalType": "uint256"
        },
        {
          "name": "timestamp_",
          "type": "uint256",
          "indexed": true,
          "internalType": "uint256"
        }
      ],
      "anonymous": false
    },
    {
      "type": "event",
      "name": "ModuleInitialized",
      "inputs": [
        {
          "name": "parentOrchestrator",
          "type": "address",
          "indexed": true,
          "internalType": "address"
        },
        {
          "name": "metadata",
          "type": "tuple",
          "indexed": false,
          "internalType": "struct IModule_v1.Metadata",
          "components": [
            {
              "name": "majorVersion",
              "type": "uint256",
              "internalType": "uint256"
            },
            {
              "name": "minorVersion",
              "type": "uint256",
              "internalType": "uint256"
            },
            {
              "name": "patchVersion",
              "type": "uint256",
              "internalType": "uint256"
            },
            {
              "name": "url",
              "type": "string",
              "internalType": "string"
            },
            {
              "name": "title",
              "type": "string",
              "internalType": "string"
            }
          ]
        }
      ],
      "anonymous": false
    },
    {
      "type": "event",
      "name": "ProtocolFeeTransferred",
      "inputs": [
        {
          "name": "token",
          "type": "address",
          "indexed": true,
          "internalType": "address"
        },
        {
          "name": "treasury",
          "type": "address",
          "indexed": true,
          "internalType": "address"
        },
        {
          "name": "feeAmount",
          "type": "uint256",
          "indexed": false,
          "internalType": "uint256"
        }
      ],
      "anonymous": false
    },
    {
      "type": "event",
      "name": "RedemptionPriceSet",
      "inputs": [
        {
          "name": "price_",
          "type": "uint256",
          "indexed": true,
          "internalType": "uint256"
        },
        {
          "name": "timestamp_",
          "type": "uint256",
          "indexed": true,
          "internalType": "uint256"
        }
      ],
      "anonymous": false
    },
    {
      "type": "error",
      "name": "InvalidInitialization",
      "inputs": []
    },
    {
      "type": "error",
      "name": "Module_OrchestratorCallbackFailed",
      "inputs": [
        {
          "name": "funcSig",
          "type": "string",
          "internalType": "string"
        }
      ]
    },
    {
      "type": "error",
      "name": "Module__CallerNotAuthorized",
      "inputs": [
        {
          "name": "role",
          "type": "bytes32",
          "internalType": "bytes32"
        },
        {
          "name": "caller",
          "type": "address",
          "internalType": "address"
        }
      ]
    },
    {
      "type": "error",
      "name": "Module__InvalidAddress",
      "inputs": []
    },
    {
      "type": "error",
      "name": "Module__InvalidMetadata",
      "inputs": []
    },
    {
      "type": "error",
      "name": "Module__InvalidOrchestratorAddress",
      "inputs": []
    },
    {
      "type": "error",
      "name": "Module__LM_ExternalPriceSetter__InvalidPrice",
      "inputs": []
    },
    {
      "type": "error",
      "name": "Module__OnlyCallableByOrchestrator",
      "inputs": []
    },
    {
      "type": "error",
      "name": "Module__OnlyCallableByPaymentClient",
      "inputs": []
    },
    {
      "type": "error",
      "name": "NotInitializing",
      "inputs": []
    },
    {
      "type": "error",
      "name": "OraclePrice__ZeroPrice",
      "inputs": []
    }
  ],
  "bytecode": {
    "object": "0x60a060405234801561001057600080fd5b50600060805261001e610023565b6100d5565b7ff0c57e16840df040f15088dc2f81fe391c3923bec73e23a9662efc9c229c6a00805468010000000000000000900460ff16156100735760405163f92ee8a960e01b815260040160405180910390fd5b80546001600160401b03908116146100d25780546001600160401b0319166001600160401b0390811782556040519081527fc7f505b2f371ae2175ee4913f4499e1f2633a7b5936321eed1cdaeb6115181d29060200160405180910390a15b50565b608051611f7c6100ed60003960005050611f7c6000f3fe608060405234801561001057600080fd5b50600436106101365760003560e01c8063572b6c05116100b25780637da0a87711610081578063b74795d911610066578063b74795d914610271578063bcb6192014610282578063f00acbaa1461029557600080fd5b80637da0a8771461023e578063b66a870c1461025e57600080fd5b8063572b6c05146102085780636650c9c51461021b5780636c67e807146102235780637998a1c41461023657600080fd5b806328c87cdb116101095780634a79d50c116100ee5780634a79d50c146101c757806354fd4d50146101dc5780635600f04f1461020057600080fd5b806328c87cdb146101a157806341e795ff146101b457600080fd5b806301ffc9a71461013b578063098f5a201461016357806324e3027014610179578063272bbd441461018e575b600080fd5b61014e61014936600461175e565b6102b0565b60405190151581526020015b60405180910390f35b61016b6102f6565b60405190815260200161015a565b61018c61018736600461178f565b610338565b005b61018c61019c36600461178f565b6105ea565b61018c6101af36600461180e565b6107c4565b61018c6101c236600461180e565b6108ec565b6101cf6109c0565b60405161015a919061186d565b6001546002546003546040805193845260208401929092529082015260600161015a565b6101cf610a55565b61014e610216366004611898565b610a67565b61016b610ad6565b61018c6102313660046118b5565b610b13565b61016b610d29565b610246610e82565b6040516001600160a01b03909116815260200161015a565b61018c61026c3660046119b1565b610efa565b6000546001600160a01b0316610246565b61018c6102903660046118b5565b611135565b61016b7050524943455f5345545445525f524f4c4560781b81565b60006001600160e01b03198216631a4bfa4960e21b14806102e157506001600160e01b03198216636fdf93e560e01b145b806102f057506102f082611317565b92915050565b600060395460000361031b57604051634f3bcaef60e11b815260040160405180910390fd5b603954603a546103339190610100900460ff1661134c565b905090565b600080546040805163d09edf3160e01b815290518693926001600160a01b03169163d09edf319160048083019260209291908290030181865afa158015610383573d6000803e3d6000fd5b505050506040513d601f19601f820116820180604052508101906103a79190611a97565b60405163fdd5205f60e01b8152306004820152602481018490526001600160a01b03919091169063fdd5205f90604401602060405180830381865afa1580156103f4573d6000803e3d6000fd5b505050506040513d601f19601f820116820180604052508101906104189190611ab4565b905061050d60008054906101000a90046001600160a01b03166001600160a01b031663d09edf316040518163ffffffff1660e01b8152600401602060405180830381865afa15801561046e573d6000803e3d6000fd5b505050506040513d601f19601f820116820180604052508101906104929190611a97565b6001600160a01b031663248a9ca3836040518263ffffffff1660e01b81526004016104bf91815260200190565b602060405180830381865afa1580156104dc573d6000803e3d6000fd5b505050506040513d601f19601f820116820180604052508101906105009190611ab4565b6105086113b4565b611406565b60008054906101000a90046001600160a01b03166001600160a01b031663d09edf316040518163ffffffff1660e01b8152600401602060405180830381865afa15801561055e573d6000803e3d6000fd5b505050506040513d601f19601f820116820180604052508101906105829190611a97565b6001600160a01b0316637d540a648686866040518463ffffffff1660e01b81526004016105b193929190611acd565b600060405180830381600087803b1580156105cb57600080fd5b505af11580156105df573d6000803e3d6000fd5b505050505050505050565b600080546040805163d09edf3160e01b815290518693926001600160a01b03169163d09edf319160048083019260209291908290030181865afa158015610635573d6000803e3d6000fd5b505050506040513d601f19601f820116820180604052508101906106599190611a97565b60405163fdd5205f60e01b8152306004820152602481018490526001600160a01b03919091169063fdd5205f90604401602060405180830381865afa1580156106a6573d6000803e3d6000fd5b505050506040513d601f19601f820116820180604052508101906106ca9190611ab4565b905061072060008054906101000a90046001600160a01b03166001600160a01b031663d09edf316040518163ffffffff1660e01b8152600401602060405180830381865afa15801561046e573d6000803e3d6000fd5b60008054906101000a90046001600160a01b03166001600160a01b031663d09edf316040518163ffffffff1660e01b8152600401602060405180830381865afa158015610771573d6000803e3d6000fd5b505050506040513d601f19601f820116820180604052508101906107959190611a97565b6001600160a01b031663648154538686866040518463ffffffff1660e01b81526004016105b193929190611acd565b7050524943455f5345545445525f524f4c4560781b61088660008054906101000a90046001600160a01b03166001600160a01b031663d09edf316040518163ffffffff1660e01b8152600401602060405180830381865afa15801561082d573d6000803e3d6000fd5b505050506040513d601f19601f820116820180604052508101906108519190611a97565b60405163fdd5205f60e01b8152306004820152602481018490526001600160a01b03919091169063fdd5205f906044016104bf565b816000036108a757604051634f3bcaef60e11b815260040160405180910390fd5b603a546108b890839060ff16611525565b603855604051429083907f81f221bce442e7f52873ddd32f2cf578a5eafea3e9585bff2cbeee88dc93418590600090a35050565b7050524943455f5345545445525f524f4c4560781b61095560008054906101000a90046001600160a01b03166001600160a01b031663d09edf316040518163ffffffff1660e01b8152600401602060405180830381865afa15801561082d573d6000803e3d6000fd5b8160000361097657604051634f3bcaef60e11b815260040160405180910390fd5b603a5461098c908390610100900460ff16611525565b603955604051429083907f70434c6374cf0fdef8144bf5d9d0d5099c452959baf093785719a07e5c173aa890600090a35050565b6060600160040180546109d290611b25565b80601f01602080910402602001604051908101604052809291908181526020018280546109fe90611b25565b8015610a4b5780601f10610a2057610100808354040283529160200191610a4b565b820191906000526020600020905b815481529060010190602001808311610a2e57829003601f168201915b5050505050905090565b6060600160030180546109d290611b25565b6000805460405163572b6c0560e01b81526001600160a01b0384811660048301529091169063572b6c0590602401602060405180830381865afa158015610ab2573d6000803e3d6000fd5b505050506040513d601f19601f820116820180604052508101906102f09190611b5f565b6000603854600003610afb57604051634f3bcaef60e11b815260040160405180910390fd5b603854603a546103339190610100900460ff1661134c565b600080546040805163d09edf3160e01b815290518593926001600160a01b03169163d09edf319160048083019260209291908290030181865afa158015610b5e573d6000803e3d6000fd5b505050506040513d601f19601f82011682018060405250810190610b829190611a97565b60405163fdd5205f60e01b8152306004820152602481018490526001600160a01b03919091169063fdd5205f90604401602060405180830381865afa158015610bcf573d6000803e3d6000fd5b505050506040513d601f19601f82011682018060405250810190610bf39190611ab4565b9050610c4960008054906101000a90046001600160a01b03166001600160a01b031663d09edf316040518163ffffffff1660e01b8152600401602060405180830381865afa15801561046e573d6000803e3d6000fd5b60008054906101000a90046001600160a01b03166001600160a01b031663d09edf316040518163ffffffff1660e01b8152600401602060405180830381865afa158015610c9a573d6000803e3d6000fd5b505050506040513d601f19601f82011682018060405250810190610cbe9190611a97565b60405163385e205560e21b8152600481018690526001600160a01b038581166024830152919091169063e1788154906044015b600060405180830381600087803b158015610d0b57600080fd5b505af1158015610d1f573d6000803e3d6000fd5b5050505050505050565b600061033360016040518060a0016040529081600082015481526020016001820154815260200160028201548152602001600382018054610d6990611b25565b80601f0160208091040260200160405190810160405280929190818152602001828054610d9590611b25565b8015610de25780601f10610db757610100808354040283529160200191610de2565b820191906000526020600020905b815481529060010190602001808311610dc557829003601f168201915b50505050508152602001600482018054610dfb90611b25565b80601f0160208091040260200160405190810160405280929190818152602001828054610e2790611b25565b8015610e745780601f10610e4957610100808354040283529160200191610e74565b820191906000526020600020905b815481529060010190602001808311610e5757829003601f168201915b50505050508152505061155c565b60008060009054906101000a90046001600160a01b03166001600160a01b0316637da0a8776040518163ffffffff1660e01b8152600401602060405180830381865afa158015610ed6573d6000803e3d6000fd5b505050506040513d601f19601f820116820180604052508101906103339190611a97565b7ff0c57e16840df040f15088dc2f81fe391c3923bec73e23a9662efc9c229c6a00805468010000000000000000810460ff16159067ffffffffffffffff16600081158015610f455750825b905060008267ffffffffffffffff166001148015610f625750303b155b905081158015610f70575080155b15610f8e5760405163f92ee8a960e01b815260040160405180910390fd5b845467ffffffffffffffff191660011785558315610fc257845468ff00000000000000001916680100000000000000001785555b610fcc888861159c565b60008087806020019051810190610fe39190611b81565b91509150816001600160a01b031663313ce5676040518163ffffffff1660e01b8152600401602060405180830381865afa158015611025573d6000803e3d6000fd5b505050506040513d601f19601f820116820180604052508101906110499190611bb0565b603a60006101000a81548160ff021916908360ff160217905550806001600160a01b031663313ce5676040518163ffffffff1660e01b8152600401602060405180830381865afa1580156110a1573d6000803e3d6000fd5b505050506040513d601f19601f820116820180604052508101906110c59190611bb0565b603a60016101000a81548160ff021916908360ff16021790555050508315610d1f57845468ff000000000000000019168555604051600181527fc7f505b2f371ae2175ee4913f4499e1f2633a7b5936321eed1cdaeb6115181d29060200160405180910390a15050505050505050565b600080546040805163d09edf3160e01b815290518593926001600160a01b03169163d09edf319160048083019260209291908290030181865afa158015611180573d6000803e3d6000fd5b505050506040513d601f19601f820116820180604052508101906111a49190611a97565b60405163fdd5205f60e01b8152306004820152602481018490526001600160a01b03919091169063fdd5205f90604401602060405180830381865afa1580156111f1573d6000803e3d6000fd5b505050506040513d601f19601f820116820180604052508101906112159190611ab4565b905061126b60008054906101000a90046001600160a01b03166001600160a01b031663d09edf316040518163ffffffff1660e01b8152600401602060405180830381865afa15801561046e573d6000803e3d6000fd5b60008054906101000a90046001600160a01b03166001600160a01b031663d09edf316040518163ffffffff1660e01b8152600401602060405180830381865afa1580156112bc573d6000803e3d6000fd5b505050506040513d601f19601f820116820180604052508101906112e09190611a97565b604051632e99be7f60e21b8152600481018690526001600160a01b038581166024830152919091169063ba66f9fc90604401610cf1565b60006001600160e01b0319821663e328951160e01b14806102f057506301ffc9a760e01b6001600160e01b03198316146102f0565b600060111960ff8316016113615750816102f0565b601260ff8316111561139457611378601283611be9565b61138390600a611ce6565b61138d9084611cf5565b90506102f0565b61139f826012611be9565b6113aa90600a611ce6565b61138d9084611d0c565b60003660146113c233610a67565b80156113ce5750808210155b156113fe576000366113e08385611d2e565b6113eb928290611d41565b6113f491611d6b565b60601c9250505090565b339250505090565b60008054906101000a90046001600160a01b03166001600160a01b031663d09edf316040518163ffffffff1660e01b8152600401602060405180830381865afa158015611457573d6000803e3d6000fd5b505050506040513d601f19601f8201168201806040525081019061147b9190611a97565b60405163a883867d60e01b8152600481018490526001600160a01b038381166024830152919091169063a883867d90604401602060405180830381865afa1580156114ca573d6000803e3d6000fd5b505050506040513d601f19601f820116820180604052508101906114ee9190611b5f565b611521576040516342abbb7760e01b8152600481018390526001600160a01b038216602482015260440160405180910390fd5b5050565b600060111960ff83160161153a5750816102f0565b601260ff831611156115515761139f601283611be9565b611378826012611be9565b600081600001518260600151836080015160405160200161157f93929190611da0565b604051602081830303815290604052805190602001209050919050565b6115a46116ae565b6001600160a01b0382166115cb57604051637280679360e01b815260040160405180910390fd5b600080547fffffffffffffffffffffffff0000000000000000000000000000000000000000166001600160a01b038416179055611607816116fe565b61162457604051637511254160e01b815260040160405180910390fd5b805160019081556020820151600255604082015160035560608201518291906004906116509082611e26565b50608082015160048201906116659082611e26565b50905050816001600160a01b03167fd5f3f84c2e1816ce290af84d002663800b02f2985d770cdd335de76fd723b730826040516116a29190611ee6565b60405180910390a25050565b7ff0c57e16840df040f15088dc2f81fe391c3923bec73e23a9662efc9c229c6a005468010000000000000000900460ff166116fc57604051631afcd79f60e31b815260040160405180910390fd5b565b600081606001515160000361171557506000919050565b81608001515160000361172a57506000919050565b815115801561173b57506020820151155b801561174957506040820151155b1561175657506000919050565b506001919050565b60006020828403121561177057600080fd5b81356001600160e01b03198116811461178857600080fd5b9392505050565b6000806000604084860312156117a457600080fd5b83359250602084013567ffffffffffffffff808211156117c357600080fd5b818601915086601f8301126117d757600080fd5b8135818111156117e657600080fd5b8760208260051b85010111156117fb57600080fd5b6020830194508093505050509250925092565b60006020828403121561182057600080fd5b5035919050565b6000815180845260005b8181101561184d57602081850181015186830182015201611831565b506000602082860101526020601f19601f83011685010191505092915050565b6020815260006117886020830184611827565b6001600160a01b038116811461189557600080fd5b50565b6000602082840312156118aa57600080fd5b813561178881611880565b600080604083850312156118c857600080fd5b8235915060208301356118da81611880565b809150509250929050565b634e487b7160e01b600052604160045260246000fd5b60405160a0810167ffffffffffffffff8111828210171561191e5761191e6118e5565b60405290565b600082601f83011261193557600080fd5b813567ffffffffffffffff80821115611950576119506118e5565b604051601f8301601f19908116603f01168101908282118183101715611978576119786118e5565b8160405283815286602085880101111561199157600080fd5b836020870160208301376000602085830101528094505050505092915050565b6000806000606084860312156119c657600080fd5b83356119d181611880565b9250602084013567ffffffffffffffff808211156119ee57600080fd5b9085019060a08288031215611a0257600080fd5b611a0a6118fb565b823581526020830135602082015260408301356040820152606083013582811115611a3457600080fd5b611a4089828601611924565b606083015250608083013582811115611a5857600080fd5b611a6489828601611924565b60808301525093506040860135915080821115611a8057600080fd5b50611a8d86828701611924565b9150509250925092565b600060208284031215611aa957600080fd5b815161178881611880565b600060208284031215611ac657600080fd5b5051919050565b83815260406020808301829052908201839052600090849060608401835b86811015611b19578335611afe81611880565b6001600160a01b031682529282019290820190600101611aeb565b50979650505050505050565b600181811c90821680611b3957607f821691505b602082108103611b5957634e487b7160e01b600052602260045260246000fd5b50919050565b600060208284031215611b7157600080fd5b8151801515811461178857600080fd5b60008060408385031215611b9457600080fd5b8251611b9f81611880565b60208401519092506118da81611880565b600060208284031215611bc257600080fd5b815160ff8116811461178857600080fd5b634e487b7160e01b600052601160045260246000fd5b60ff82811682821603908111156102f0576102f0611bd3565b600181815b80851115611c3d578160001904821115611c2357611c23611bd3565b80851615611c3057918102915b93841c9390800290611c07565b509250929050565b600082611c54575060016102f0565b81611c61575060006102f0565b8160018114611c775760028114611c8157611c9d565b60019150506102f0565b60ff841115611c9257611c92611bd3565b50506001821b6102f0565b5060208310610133831016604e8410600b8410161715611cc0575081810a6102f0565b611cca8383611c02565b8060001904821115611cde57611cde611bd3565b029392505050565b600061178860ff841683611c45565b80820281158282048414176102f0576102f0611bd3565b600082611d2957634e487b7160e01b600052601260045260246000fd5b500490565b818103818111156102f0576102f0611bd3565b60008085851115611d5157600080fd5b83861115611d5e57600080fd5b5050820193919092039150565b6bffffffffffffffffffffffff198135818116916014851015611d985780818660140360031b1b83161692505b505092915050565b838152606060208201526000611db96060830185611827565b8281036040840152611dcb8185611827565b9695505050505050565b601f821115611e21576000816000526020600020601f850160051c81016020861015611dfe5750805b601f850160051c820191505b81811015611e1d57828155600101611e0a565b5050505b505050565b815167ffffffffffffffff811115611e4057611e406118e5565b611e5481611e4e8454611b25565b84611dd5565b602080601f831160018114611e895760008415611e715750858301515b600019600386901b1c1916600185901b178555611e1d565b600085815260208120601f198616915b82811015611eb857888601518255948401946001909101908401611e99565b5085821015611ed65787850151600019600388901b60f8161c191681555b5050505050600190811b01905550565b602081528151602082015260208201516040820152604082015160608201526000606083015160a06080840152611f2060c0840182611827565b90506080840151601f198483030160a0850152611f3d8282611827565b9594505050505056fea2646970667358221220bd42e8f6c97ebc0218aec2326ef48d45c3297dc79175c0fbd698a5c0ccd983c464736f6c63430008170033",
    "linkReferences": {}
  },
  "methodIdentifiers": {
    "PRICE_SETTER_ROLE()": "f00acbaa",
    "getPriceForIssuance()": "6650c9c5",
    "getPriceForRedemption()": "098f5a20",
    "grantModuleRole(bytes32,address)": "6c67e807",
    "grantModuleRoleBatched(bytes32,address[])": "272bbd44",
    "identifier()": "7998a1c4",
    "init(address,(uint256,uint256,uint256,string,string),bytes)": "b66a870c",
    "isTrustedForwarder(address)": "572b6c05",
    "orchestrator()": "b74795d9",
    "revokeModuleRole(bytes32,address)": "bcb61920",
    "revokeModuleRoleBatched(bytes32,address[])": "24e30270",
    "setIssuancePrice(uint256)": "28c87cdb",
    "setRedemptionPrice(uint256)": "41e795ff",
    "supportsInterface(bytes4)": "01ffc9a7",
    "title()": "4a79d50c",
    "trustedForwarder()": "7da0a877",
    "url()": "5600f04f",
    "version()": "54fd4d50"
  },
  "id": 135
}