{
  "abi": [
    {
      "type": "function",
      "name": "getCollateralTokenDecimals",
      "inputs": [],
      "outputs": [
        {
          "name": "",
          "type": "uint8",
          "internalType": "uint8"
        }
      ],
      "stateMutability": "view"
    },
    {
      "type": "function",
      "name": "getPriceForIssuance",
      "inputs": [],
      "outputs": [
        {
          "name": "",
          "type": "uint256",
          "internalType": "uint256"
        }
      ],
      "stateMutability": "view"
    },
    {
      "type": "function",
      "name": "getPriceForRedemption",
      "inputs": [],
      "outputs": [
        {
          "name": "",
          "type": "uint256",
          "internalType": "uint256"
        }
      ],
      "stateMutability": "view"
    },
    {
      "type": "function",
      "name": "getPriceSetterRole",
      "inputs": [],
      "outputs": [
        {
          "name": "",
          "type": "bytes32",
          "internalType": "bytes32"
        }
      ],
      "stateMutability": "pure"
    },
    {
      "type": "function",
      "name": "getPriceSetterRoleAdmin",
      "inputs": [],
      "outputs": [
        {
          "name": "",
          "type": "bytes32",
          "internalType": "bytes32"
        }
      ],
      "stateMutability": "pure"
    },
    {
      "type": "function",
      "name": "grantModuleRole",
      "inputs": [
        {
          "name": "role",
          "type": "bytes32",
          "internalType": "bytes32"
        },
        {
          "name": "target",
          "type": "address",
          "internalType": "address"
        }
      ],
      "outputs": [],
      "stateMutability": "nonpayable"
    },
    {
      "type": "function",
      "name": "grantModuleRoleBatched",
      "inputs": [
        {
          "name": "role",
          "type": "bytes32",
          "internalType": "bytes32"
        },
        {
          "name": "targets",
          "type": "address[]",
          "internalType": "address[]"
        }
      ],
      "outputs": [],
      "stateMutability": "nonpayable"
    },
    {
      "type": "function",
      "name": "identifier",
      "inputs": [],
      "outputs": [
        {
          "name": "",
          "type": "bytes32",
          "internalType": "bytes32"
        }
      ],
      "stateMutability": "view"
    },
    {
      "type": "function",
      "name": "init",
      "inputs": [
        {
          "name": "orchestrator_",
          "type": "address",
          "internalType": "contract IOrchestrator_v1"
        },
        {
          "name": "metadata_",
          "type": "tuple",
          "internalType": "struct IModule_v1.Metadata",
          "components": [
            {
              "name": "majorVersion",
              "type": "uint256",
              "internalType": "uint256"
            },
            {
              "name": "minorVersion",
              "type": "uint256",
              "internalType": "uint256"
            },
            {
              "name": "patchVersion",
              "type": "uint256",
              "internalType": "uint256"
            },
            {
              "name": "url",
              "type": "string",
              "internalType": "string"
            },
            {
              "name": "title",
              "type": "string",
              "internalType": "string"
            }
          ]
        },
        {
          "name": "configData_",
          "type": "bytes",
          "internalType": "bytes"
        }
      ],
      "outputs": [],
      "stateMutability": "nonpayable"
    },
    {
      "type": "function",
      "name": "isTrustedForwarder",
      "inputs": [
        {
          "name": "forwarder",
          "type": "address",
          "internalType": "address"
        }
      ],
      "outputs": [
        {
          "name": "",
          "type": "bool",
          "internalType": "bool"
        }
      ],
      "stateMutability": "view"
    },
    {
      "type": "function",
      "name": "orchestrator",
      "inputs": [],
      "outputs": [
        {
          "name": "",
          "type": "address",
          "internalType": "contract IOrchestrator_v1"
        }
      ],
      "stateMutability": "view"
    },
    {
      "type": "function",
      "name": "revokeModuleRole",
      "inputs": [
        {
          "name": "role",
          "type": "bytes32",
          "internalType": "bytes32"
        },
        {
          "name": "target",
          "type": "address",
          "internalType": "address"
        }
      ],
      "outputs": [],
      "stateMutability": "nonpayable"
    },
    {
      "type": "function",
      "name": "revokeModuleRoleBatched",
      "inputs": [
        {
          "name": "role",
          "type": "bytes32",
          "internalType": "bytes32"
        },
        {
          "name": "targets",
          "type": "address[]",
          "internalType": "address[]"
        }
      ],
      "outputs": [],
      "stateMutability": "nonpayable"
    },
    {
      "type": "function",
      "name": "setIssuanceAndRedemptionPrice",
      "inputs": [
        {
          "name": "issuancePrice_",
          "type": "uint256",
          "internalType": "uint256"
        },
        {
          "name": "redemptionPrice_",
          "type": "uint256",
          "internalType": "uint256"
        }
      ],
      "outputs": [],
      "stateMutability": "nonpayable"
    },
    {
      "type": "function",
      "name": "setIssuancePrice",
      "inputs": [
        {
          "name": "price_",
          "type": "uint256",
          "internalType": "uint256"
        }
      ],
      "outputs": [],
      "stateMutability": "nonpayable"
    },
    {
      "type": "function",
      "name": "setRedemptionPrice",
      "inputs": [
        {
          "name": "price_",
          "type": "uint256",
          "internalType": "uint256"
        }
      ],
      "outputs": [],
      "stateMutability": "nonpayable"
    },
    {
      "type": "function",
      "name": "supportsInterface",
      "inputs": [
        {
          "name": "interfaceId",
          "type": "bytes4",
          "internalType": "bytes4"
        }
      ],
      "outputs": [
        {
          "name": "",
          "type": "bool",
          "internalType": "bool"
        }
      ],
      "stateMutability": "view"
    },
    {
      "type": "function",
      "name": "title",
      "inputs": [],
      "outputs": [
        {
          "name": "",
          "type": "string",
          "internalType": "string"
        }
      ],
      "stateMutability": "view"
    },
    {
      "type": "function",
      "name": "trustedForwarder",
      "inputs": [],
      "outputs": [
        {
          "name": "",
          "type": "address",
          "internalType": "address"
        }
      ],
      "stateMutability": "view"
    },
    {
      "type": "function",
      "name": "url",
      "inputs": [],
      "outputs": [
        {
          "name": "",
          "type": "string",
          "internalType": "string"
        }
      ],
      "stateMutability": "view"
    },
    {
      "type": "function",
      "name": "version",
      "inputs": [],
      "outputs": [
        {
          "name": "",
          "type": "uint256",
          "internalType": "uint256"
        },
        {
          "name": "",
          "type": "uint256",
          "internalType": "uint256"
        },
        {
          "name": "",
          "type": "uint256",
          "internalType": "uint256"
        }
      ],
      "stateMutability": "view"
    },
    {
      "type": "event",
      "name": "Initialized",
      "inputs": [
        {
          "name": "version",
          "type": "uint64",
          "indexed": false,
          "internalType": "uint64"
        }
      ],
      "anonymous": false
    },
    {
      "type": "event",
      "name": "IssuancePriceSet",
      "inputs": [
        {
          "name": "price_",
          "type": "uint256",
          "indexed": true,
          "internalType": "uint256"
        },
        {
          "name": "caller_",
          "type": "address",
          "indexed": true,
          "internalType": "address"
        }
      ],
      "anonymous": false
    },
    {
      "type": "event",
      "name": "ModuleInitialized",
      "inputs": [
        {
          "name": "parentOrchestrator",
          "type": "address",
          "indexed": true,
          "internalType": "address"
        },
        {
          "name": "metadata",
          "type": "tuple",
          "indexed": false,
          "internalType": "struct IModule_v1.Metadata",
          "components": [
            {
              "name": "majorVersion",
              "type": "uint256",
              "internalType": "uint256"
            },
            {
              "name": "minorVersion",
              "type": "uint256",
              "internalType": "uint256"
            },
            {
              "name": "patchVersion",
              "type": "uint256",
              "internalType": "uint256"
            },
            {
              "name": "url",
              "type": "string",
              "internalType": "string"
            },
            {
              "name": "title",
              "type": "string",
              "internalType": "string"
            }
          ]
        }
      ],
      "anonymous": false
    },
    {
      "type": "event",
      "name": "ProtocolFeeTransferred",
      "inputs": [
        {
          "name": "token",
          "type": "address",
          "indexed": true,
          "internalType": "address"
        },
        {
          "name": "treasury",
          "type": "address",
          "indexed": true,
          "internalType": "address"
        },
        {
          "name": "feeAmount",
          "type": "uint256",
          "indexed": false,
          "internalType": "uint256"
        }
      ],
      "anonymous": false
    },
    {
      "type": "event",
      "name": "RedemptionPriceSet",
      "inputs": [
        {
          "name": "price_",
          "type": "uint256",
          "indexed": true,
          "internalType": "uint256"
        },
        {
          "name": "caller_",
          "type": "address",
          "indexed": true,
          "internalType": "address"
        }
      ],
      "anonymous": false
    },
    {
      "type": "error",
      "name": "InvalidInitialization",
      "inputs": []
    },
    {
      "type": "error",
      "name": "Module_OrchestratorCallbackFailed",
      "inputs": [
        {
          "name": "funcSig",
          "type": "string",
          "internalType": "string"
        }
      ]
    },
    {
      "type": "error",
      "name": "Module__CallerNotAuthorized",
      "inputs": [
        {
          "name": "role",
          "type": "bytes32",
          "internalType": "bytes32"
        },
        {
          "name": "caller",
          "type": "address",
          "internalType": "address"
        }
      ]
    },
    {
      "type": "error",
      "name": "Module__InvalidAddress",
      "inputs": []
    },
    {
      "type": "error",
      "name": "Module__InvalidMetadata",
      "inputs": []
    },
    {
      "type": "error",
      "name": "Module__InvalidOrchestratorAddress",
      "inputs": []
    },
    {
      "type": "error",
      "name": "Module__LM_ExternalPriceSetter__InvalidPrice",
      "inputs": []
    },
    {
      "type": "error",
      "name": "Module__OnlyCallableByOrchestrator",
      "inputs": []
    },
    {
      "type": "error",
      "name": "Module__OnlyCallableByPaymentClient",
      "inputs": []
    },
    {
      "type": "error",
      "name": "NotInitializing",
      "inputs": []
    },
    {
      "type": "error",
      "name": "OraclePrice__ZeroPrice",
      "inputs": []
    }
  ],
  "bytecode": {
    "object": "0x60a060405234801561000f575f80fd5b505f60805261001c610021565b6100d3565b7ff0c57e16840df040f15088dc2f81fe391c3923bec73e23a9662efc9c229c6a00805468010000000000000000900460ff16156100715760405163f92ee8a960e01b815260040160405180910390fd5b80546001600160401b03908116146100d05780546001600160401b0319166001600160401b0390811782556040519081527fc7f505b2f371ae2175ee4913f4499e1f2633a7b5936321eed1cdaeb6115181d29060200160405180910390a15b50565b608051611ce96100e85f395f5050611ce95ff3fe608060405234801561000f575f80fd5b506004361061016e575f3560e01c8063572b6c05116100d2578063b66a870c11610088578063bcb6192011610063578063bcb61920146102ef578063cbcf2d4614610302578063df07b1051461031c575f80fd5b8063b66a870c146102b7578063b74795d9146102ca578063ba388ee7146102da575f80fd5b80636c67e807116100b85780636c67e8071461027c5780637998a1c41461028f5780637da0a87714610297575f80fd5b8063572b6c05146102615780636650c9c514610274575f80fd5b806328c87cdb116101275780634a79d50c1161010d5780634a79d50c1461022057806354fd4d50146102355780635600f04f14610259575f80fd5b806328c87cdb146101fa57806341e795ff1461020d575f80fd5b806313d8560f1161015757806313d8560f146101ac57806324e30270146101d2578063272bbd44146101e7575f80fd5b806301ffc9a714610172578063098f5a201461019a575b5f80fd5b610185610180366004611664565b61032f565b60405190151581526020015b60405180910390f35b6039545b604051908152602001610191565b7f50524943455f5345545445525f524f4c455f41444d494e00000000000000000061019e565b6101e56101e0366004611692565b610374565b005b6101e56101f5366004611692565b610614565b6101e561020836600461170a565b6107e3565b6101e561021b36600461170a565b6108af565b61022861091e565b6040516101919190611764565b60015460025460035460408051938452602084019290925290820152606001610191565b6102286109b1565b61018561026f36600461178d565b6109c3565b60385461019e565b6101e561028a3660046117a8565b610a2f565b61019e610c35565b61029f610d8d565b6040516001600160a01b039091168152602001610191565b6101e56102c536600461189c565b610e01565b5f546001600160a01b031661029f565b603a5460405160ff9091168152602001610191565b6101e56102fd3660046117a8565b610fb1565b7050524943455f5345545445525f524f4c4560781b61019e565b6101e561032a36600461197a565b611188565b5f6001600160e01b0319821663d407ad8f60e01b148061035f57506001600160e01b03198216636fdf93e560e01b145b8061036e575061036e82611205565b92915050565b5f80546040805163d09edf3160e01b815290518693926001600160a01b03169163d09edf319160048083019260209291908290030181865afa1580156103bc573d5f803e3d5ffd5b505050506040513d601f19601f820116820180604052508101906103e0919061199a565b60405163fdd5205f60e01b8152306004820152602481018490526001600160a01b03919091169063fdd5205f90604401602060405180830381865afa15801561042b573d5f803e3d5ffd5b505050506040513d601f19601f8201168201806040525081019061044f91906119b5565b905061053f5f8054906101000a90046001600160a01b03166001600160a01b031663d09edf316040518163ffffffff1660e01b8152600401602060405180830381865afa1580156104a2573d5f803e3d5ffd5b505050506040513d601f19601f820116820180604052508101906104c6919061199a565b6001600160a01b031663248a9ca3836040518263ffffffff1660e01b81526004016104f391815260200190565b602060405180830381865afa15801561050e573d5f803e3d5ffd5b505050506040513d601f19601f8201168201806040525081019061053291906119b5565b61053a611239565b611289565b5f8054906101000a90046001600160a01b03166001600160a01b031663d09edf316040518163ffffffff1660e01b8152600401602060405180830381865afa15801561058d573d5f803e3d5ffd5b505050506040513d601f19601f820116820180604052508101906105b1919061199a565b6001600160a01b0316637d540a648686866040518463ffffffff1660e01b81526004016105e0939291906119cc565b5f604051808303815f87803b1580156105f7575f80fd5b505af1158015610609573d5f803e3d5ffd5b505050505050505050565b5f80546040805163d09edf3160e01b815290518693926001600160a01b03169163d09edf319160048083019260209291908290030181865afa15801561065c573d5f803e3d5ffd5b505050506040513d601f19601f82011682018060405250810190610680919061199a565b60405163fdd5205f60e01b8152306004820152602481018490526001600160a01b03919091169063fdd5205f90604401602060405180830381865afa1580156106cb573d5f803e3d5ffd5b505050506040513d601f19601f820116820180604052508101906106ef91906119b5565b90506107425f8054906101000a90046001600160a01b03166001600160a01b031663d09edf316040518163ffffffff1660e01b8152600401602060405180830381865afa1580156104a2573d5f803e3d5ffd5b5f8054906101000a90046001600160a01b03166001600160a01b031663d09edf316040518163ffffffff1660e01b8152600401602060405180830381865afa158015610790573d5f803e3d5ffd5b505050506040513d601f19601f820116820180604052508101906107b4919061199a565b6001600160a01b031663648154538686866040518463ffffffff1660e01b81526004016105e0939291906119cc565b7050524943455f5345545445525f524f4c4560781b6108a25f8054906101000a90046001600160a01b03166001600160a01b031663d09edf316040518163ffffffff1660e01b8152600401602060405180830381865afa158015610849573d5f803e3d5ffd5b505050506040513d601f19601f8201168201806040525081019061086d919061199a565b60405163fdd5205f60e01b8152306004820152602481018490526001600160a01b03919091169063fdd5205f906044016104f3565b6108ab8261139f565b5050565b7050524943455f5345545445525f524f4c4560781b6109155f8054906101000a90046001600160a01b03166001600160a01b031663d09edf316040518163ffffffff1660e01b8152600401602060405180830381865afa158015610849573d5f803e3d5ffd5b6108ab82611405565b60606001600401805461093090611a23565b80601f016020809104026020016040519081016040528092919081815260200182805461095c90611a23565b80156109a75780601f1061097e576101008083540402835291602001916109a7565b820191905f5260205f20905b81548152906001019060200180831161098a57829003601f168201915b5050505050905090565b60606001600301805461093090611a23565b5f805460405163572b6c0560e01b81526001600160a01b0384811660048301529091169063572b6c0590602401602060405180830381865afa158015610a0b573d5f803e3d5ffd5b505050506040513d601f19601f8201168201806040525081019061036e9190611a5b565b5f80546040805163d09edf3160e01b815290518593926001600160a01b03169163d09edf319160048083019260209291908290030181865afa158015610a77573d5f803e3d5ffd5b505050506040513d601f19601f82011682018060405250810190610a9b919061199a565b60405163fdd5205f60e01b8152306004820152602481018490526001600160a01b03919091169063fdd5205f90604401602060405180830381865afa158015610ae6573d5f803e3d5ffd5b505050506040513d601f19601f82011682018060405250810190610b0a91906119b5565b9050610b5d5f8054906101000a90046001600160a01b03166001600160a01b031663d09edf316040518163ffffffff1660e01b8152600401602060405180830381865afa1580156104a2573d5f803e3d5ffd5b5f8054906101000a90046001600160a01b03166001600160a01b031663d09edf316040518163ffffffff1660e01b8152600401602060405180830381865afa158015610bab573d5f803e3d5ffd5b505050506040513d601f19601f82011682018060405250810190610bcf919061199a565b60405163385e205560e21b8152600481018690526001600160a01b038581166024830152919091169063e1788154906044015b5f604051808303815f87803b158015610c19575f80fd5b505af1158015610c2b573d5f803e3d5ffd5b5050505050505050565b5f610d8860016040518060a00160405290815f82015481526020016001820154815260200160028201548152602001600382018054610c7390611a23565b80601f0160208091040260200160405190810160405280929190818152602001828054610c9f90611a23565b8015610cea5780601f10610cc157610100808354040283529160200191610cea565b820191905f5260205f20905b815481529060010190602001808311610ccd57829003601f168201915b50505050508152602001600482018054610d0390611a23565b80601f0160208091040260200160405190810160405280929190818152602001828054610d2f90611a23565b8015610d7a5780601f10610d5157610100808354040283529160200191610d7a565b820191905f5260205f20905b815481529060010190602001808311610d5d57829003601f168201915b50505050508152505061146b565b905090565b5f805f9054906101000a90046001600160a01b03166001600160a01b0316637da0a8776040518163ffffffff1660e01b8152600401602060405180830381865afa158015610ddd573d5f803e3d5ffd5b505050506040513d601f19601f82011682018060405250810190610d88919061199a565b7ff0c57e16840df040f15088dc2f81fe391c3923bec73e23a9662efc9c229c6a00805468010000000000000000810460ff16159067ffffffffffffffff165f81158015610e4b5750825b90505f8267ffffffffffffffff166001148015610e675750303b155b905081158015610e75575080155b15610e935760405163f92ee8a960e01b815260040160405180910390fd5b845467ffffffffffffffff191660011785558315610ec757845468ff00000000000000001916680100000000000000001785555b610ed188886114a9565b5f86806020019051810190610ee6919061199a565b9050806001600160a01b031663313ce5676040518163ffffffff1660e01b8152600401602060405180830381865afa158015610f24573d5f803e3d5ffd5b505050506040513d601f19601f82011682018060405250810190610f489190611a7a565b603a805460ff191660ff92909216919091179055508315610c2b57845468ff000000000000000019168555604051600181527fc7f505b2f371ae2175ee4913f4499e1f2633a7b5936321eed1cdaeb6115181d29060200160405180910390a15050505050505050565b5f80546040805163d09edf3160e01b815290518593926001600160a01b03169163d09edf319160048083019260209291908290030181865afa158015610ff9573d5f803e3d5ffd5b505050506040513d601f19601f8201168201806040525081019061101d919061199a565b60405163fdd5205f60e01b8152306004820152602481018490526001600160a01b03919091169063fdd5205f90604401602060405180830381865afa158015611068573d5f803e3d5ffd5b505050506040513d601f19601f8201168201806040525081019061108c91906119b5565b90506110df5f8054906101000a90046001600160a01b03166001600160a01b031663d09edf316040518163ffffffff1660e01b8152600401602060405180830381865afa1580156104a2573d5f803e3d5ffd5b5f8054906101000a90046001600160a01b03166001600160a01b031663d09edf316040518163ffffffff1660e01b8152600401602060405180830381865afa15801561112d573d5f803e3d5ffd5b505050506040513d601f19601f82011682018060405250810190611151919061199a565b604051632e99be7f60e21b8152600481018690526001600160a01b038581166024830152919091169063ba66f9fc90604401610c02565b7050524943455f5345545445525f524f4c4560781b6111ee5f8054906101000a90046001600160a01b03166001600160a01b031663d09edf316040518163ffffffff1660e01b8152600401602060405180830381865afa158015610849573d5f803e3d5ffd5b6111f78361139f565b61120082611405565b505050565b5f6001600160e01b0319821663e328951160e01b148061036e57506301ffc9a760e01b6001600160e01b031983161461036e565b5f366014611246336109c3565b80156112525750808210155b15611281575f366112638385611a9a565b61126e928290611ab9565b61127791611ae0565b60601c9250505090565b339250505090565b5f8054906101000a90046001600160a01b03166001600160a01b031663d09edf316040518163ffffffff1660e01b8152600401602060405180830381865afa1580156112d7573d5f803e3d5ffd5b505050506040513d601f19601f820116820180604052508101906112fb919061199a565b60405163a883867d60e01b8152600481018490526001600160a01b038381166024830152919091169063a883867d90604401602060405180830381865afa158015611348573d5f803e3d5ffd5b505050506040513d601f19601f8201168201806040525081019061136c9190611a5b565b6108ab576040516342abbb7760e01b8152600481018390526001600160a01b038216602482015260440160405180910390fd5b805f036113bf57604051634f3bcaef60e11b815260040160405180910390fd5b60388190556113cc611239565b6001600160a01b0316817f9f68d4c76c4c629400400e26c9c01bf616908e26dbc07b388e4e5732f37e199660405160405180910390a350565b805f0361142557604051634f3bcaef60e11b815260040160405180910390fd5b6039819055611432611239565b6001600160a01b0316817fe930044efce1f10e161dbde8e8a1cde1469649ebb9f4a226c1228f620a47928c60405160405180910390a350565b5f815f01518260600151836080015160405160200161148c93929190611b15565b604051602081830303815290604052805190602001209050919050565b6114b16115ba565b6001600160a01b0382166114d857604051637280679360e01b815260040160405180910390fd5b5f80547fffffffffffffffffffffffff0000000000000000000000000000000000000000166001600160a01b0384161790556115138161160a565b61153057604051637511254160e01b815260040160405180910390fd5b8051600190815560208201516002556040820151600355606082015182919060049061155c9082611b94565b50608082015160048201906115719082611b94565b50905050816001600160a01b03167fd5f3f84c2e1816ce290af84d002663800b02f2985d770cdd335de76fd723b730826040516115ae9190611c54565b60405180910390a25050565b7ff0c57e16840df040f15088dc2f81fe391c3923bec73e23a9662efc9c229c6a005468010000000000000000900460ff1661160857604051631afcd79f60e31b815260040160405180910390fd5b565b5f8160600151515f0361161e57505f919050565b8160800151515f0361163157505f919050565b815115801561164257506020820151155b801561165057506040820151155b1561165c57505f919050565b506001919050565b5f60208284031215611674575f80fd5b81356001600160e01b03198116811461168b575f80fd5b9392505050565b5f805f604084860312156116a4575f80fd5b83359250602084013567ffffffffffffffff808211156116c2575f80fd5b818601915086601f8301126116d5575f80fd5b8135818111156116e3575f80fd5b8760208260051b85010111156116f7575f80fd5b6020830194508093505050509250925092565b5f6020828403121561171a575f80fd5b5035919050565b5f81518084525f5b8181101561174557602081850181015186830182015201611729565b505f602082860101526020601f19601f83011685010191505092915050565b602081525f61168b6020830184611721565b6001600160a01b038116811461178a575f80fd5b50565b5f6020828403121561179d575f80fd5b813561168b81611776565b5f80604083850312156117b9575f80fd5b8235915060208301356117cb81611776565b809150509250929050565b634e487b7160e01b5f52604160045260245ffd5b60405160a0810167ffffffffffffffff8111828210171561180d5761180d6117d6565b60405290565b5f82601f830112611822575f80fd5b813567ffffffffffffffff8082111561183d5761183d6117d6565b604051601f8301601f19908116603f01168101908282118183101715611865576118656117d6565b8160405283815286602085880101111561187d575f80fd5b836020870160208301375f602085830101528094505050505092915050565b5f805f606084860312156118ae575f80fd5b83356118b981611776565b9250602084013567ffffffffffffffff808211156118d5575f80fd5b9085019060a082880312156118e8575f80fd5b6118f06117ea565b823581526020830135602082015260408301356040820152606083013582811115611919575f80fd5b61192589828601611813565b60608301525060808301358281111561193c575f80fd5b61194889828601611813565b60808301525093506040860135915080821115611963575f80fd5b5061197086828701611813565b9150509250925092565b5f806040838503121561198b575f80fd5b50508035926020909101359150565b5f602082840312156119aa575f80fd5b815161168b81611776565b5f602082840312156119c5575f80fd5b5051919050565b838152604060208083018290529082018390525f90849060608401835b86811015611a175783356119fc81611776565b6001600160a01b0316825292820192908201906001016119e9565b50979650505050505050565b600181811c90821680611a3757607f821691505b602082108103611a5557634e487b7160e01b5f52602260045260245ffd5b50919050565b5f60208284031215611a6b575f80fd5b8151801515811461168b575f80fd5b5f60208284031215611a8a575f80fd5b815160ff8116811461168b575f80fd5b8181038181111561036e57634e487b7160e01b5f52601160045260245ffd5b5f8085851115611ac7575f80fd5b83861115611ad3575f80fd5b5050820193919092039150565b6bffffffffffffffffffffffff198135818116916014851015611b0d5780818660140360031b1b83161692505b505092915050565b838152606060208201525f611b2d6060830185611721565b8281036040840152611b3f8185611721565b9695505050505050565b601f82111561120057805f5260205f20601f840160051c81016020851015611b6e5750805b601f840160051c820191505b81811015611b8d575f8155600101611b7a565b5050505050565b815167ffffffffffffffff811115611bae57611bae6117d6565b611bc281611bbc8454611a23565b84611b49565b602080601f831160018114611bf5575f8415611bde5750858301515b5f19600386901b1c1916600185901b178555611c4c565b5f85815260208120601f198616915b82811015611c2357888601518255948401946001909101908401611c04565b5085821015611c4057878501515f19600388901b60f8161c191681555b505060018460011b0185555b505050505050565b602081528151602082015260208201516040820152604082015160608201525f606083015160a06080840152611c8d60c0840182611721565b90506080840151601f198483030160a0850152611caa8282611721565b9594505050505056fea26469706673582212203f0bf910fb52c1e33bd4e04a1b1502bf5f13249a569991f15966734645121bcf64736f6c63430008170033",
    "linkReferences": {}
  },
  "methodIdentifiers": {
    "getCollateralTokenDecimals()": "ba388ee7",
    "getPriceForIssuance()": "6650c9c5",
    "getPriceForRedemption()": "098f5a20",
    "getPriceSetterRole()": "cbcf2d46",
    "getPriceSetterRoleAdmin()": "13d8560f",
    "grantModuleRole(bytes32,address)": "6c67e807",
    "grantModuleRoleBatched(bytes32,address[])": "272bbd44",
    "identifier()": "7998a1c4",
    "init(address,(uint256,uint256,uint256,string,string),bytes)": "b66a870c",
    "isTrustedForwarder(address)": "572b6c05",
    "orchestrator()": "b74795d9",
    "revokeModuleRole(bytes32,address)": "bcb61920",
    "revokeModuleRoleBatched(bytes32,address[])": "24e30270",
    "setIssuanceAndRedemptionPrice(uint256,uint256)": "df07b105",
    "setIssuancePrice(uint256)": "28c87cdb",
    "setRedemptionPrice(uint256)": "41e795ff",
    "supportsInterface(bytes4)": "01ffc9a7",
    "title()": "4a79d50c",
    "trustedForwarder()": "7da0a877",
    "url()": "5600f04f",
    "version()": "54fd4d50"
  },
  "id": 143
}