{
  "abi": [
    {
      "type": "function",
      "name": "amountPaid",
      "inputs": [
        {
          "name": "token_",
          "type": "address",
          "internalType": "address"
        },
        {
          "name": "amount_",
          "type": "uint256",
          "internalType": "uint256"
        }
      ],
      "outputs": [],
      "stateMutability": "nonpayable"
    },
    {
      "type": "function",
      "name": "claimRewards",
      "inputs": [],
      "outputs": [],
      "stateMutability": "nonpayable"
    },
    {
      "type": "function",
      "name": "collectPaymentOrders",
      "inputs": [],
      "outputs": [
        {
          "name": "paymentOrders_",
          "type": "tuple[]",
          "internalType": "struct IERC20PaymentClientBase_v2.PaymentOrder[]",
          "components": [
            {
              "name": "recipient",
              "type": "address",
              "internalType": "address"
            },
            {
              "name": "paymentToken",
              "type": "address",
              "internalType": "address"
            },
            {
              "name": "amount",
              "type": "uint256",
              "internalType": "uint256"
            },
            {
              "name": "originChainId",
              "type": "uint256",
              "internalType": "uint256"
            },
            {
              "name": "targetChainId",
              "type": "uint256",
              "internalType": "uint256"
            },
            {
              "name": "flags",
              "type": "bytes32",
              "internalType": "bytes32"
            },
            {
              "name": "data",
              "type": "bytes32[]",
              "internalType": "bytes32[]"
            }
          ]
        },
        {
          "name": "tokens_",
          "type": "address[]",
          "internalType": "address[]"
        },
        {
          "name": "totalAmounts_",
          "type": "uint256[]",
          "internalType": "uint256[]"
        }
      ],
      "stateMutability": "nonpayable"
    },
    {
      "type": "function",
      "name": "getBalance",
      "inputs": [
        {
          "name": "user",
          "type": "address",
          "internalType": "address"
        }
      ],
      "outputs": [
        {
          "name": "",
          "type": "uint256",
          "internalType": "uint256"
        }
      ],
      "stateMutability": "view"
    },
    {
      "type": "function",
      "name": "getEarned",
      "inputs": [
        {
          "name": "user",
          "type": "address",
          "internalType": "address"
        }
      ],
      "outputs": [
        {
          "name": "",
          "type": "uint256",
          "internalType": "uint256"
        }
      ],
      "stateMutability": "view"
    },
    {
      "type": "function",
      "name": "getEstimatedReward",
      "inputs": [
        {
          "name": "amount",
          "type": "uint256",
          "internalType": "uint256"
        },
        {
          "name": "duration",
          "type": "uint256",
          "internalType": "uint256"
        }
      ],
      "outputs": [
        {
          "name": "",
          "type": "uint256",
          "internalType": "uint256"
        }
      ],
      "stateMutability": "view"
    },
    {
      "type": "function",
      "name": "getFlagCount",
      "inputs": [],
      "outputs": [
        {
          "name": "flagCount_",
          "type": "uint8",
          "internalType": "uint8"
        }
      ],
      "stateMutability": "view"
    },
    {
      "type": "function",
      "name": "getFlags",
      "inputs": [],
      "outputs": [
        {
          "name": "flags_",
          "type": "bytes32",
          "internalType": "bytes32"
        }
      ],
      "stateMutability": "view"
    },
    {
      "type": "function",
      "name": "getLastUpdate",
      "inputs": [],
      "outputs": [
        {
          "name": "",
          "type": "uint256",
          "internalType": "uint256"
        }
      ],
      "stateMutability": "view"
    },
    {
      "type": "function",
      "name": "getRewardRate",
      "inputs": [],
      "outputs": [
        {
          "name": "",
          "type": "uint256",
          "internalType": "uint256"
        }
      ],
      "stateMutability": "view"
    },
    {
      "type": "function",
      "name": "getRewardValue",
      "inputs": [],
      "outputs": [
        {
          "name": "",
          "type": "uint256",
          "internalType": "uint256"
        }
      ],
      "stateMutability": "view"
    },
    {
      "type": "function",
      "name": "getRewardsEnd",
      "inputs": [],
      "outputs": [
        {
          "name": "",
          "type": "uint256",
          "internalType": "uint256"
        }
      ],
      "stateMutability": "view"
    },
    {
      "type": "function",
      "name": "getStakingToken",
      "inputs": [],
      "outputs": [
        {
          "name": "",
          "type": "address",
          "internalType": "address"
        }
      ],
      "stateMutability": "view"
    },
    {
      "type": "function",
      "name": "getTotalSupply",
      "inputs": [],
      "outputs": [
        {
          "name": "",
          "type": "uint256",
          "internalType": "uint256"
        }
      ],
      "stateMutability": "view"
    },
    {
      "type": "function",
      "name": "grantModuleRole",
      "inputs": [
        {
          "name": "role",
          "type": "bytes32",
          "internalType": "bytes32"
        },
        {
          "name": "target",
          "type": "address",
          "internalType": "address"
        }
      ],
      "outputs": [],
      "stateMutability": "nonpayable"
    },
    {
      "type": "function",
      "name": "grantModuleRoleBatched",
      "inputs": [
        {
          "name": "role",
          "type": "bytes32",
          "internalType": "bytes32"
        },
        {
          "name": "targets",
          "type": "address[]",
          "internalType": "address[]"
        }
      ],
      "outputs": [],
      "stateMutability": "nonpayable"
    },
    {
      "type": "function",
      "name": "identifier",
      "inputs": [],
      "outputs": [
        {
          "name": "",
          "type": "bytes32",
          "internalType": "bytes32"
        }
      ],
      "stateMutability": "view"
    },
    {
      "type": "function",
      "name": "init",
      "inputs": [
        {
          "name": "orchestrator_",
          "type": "address",
          "internalType": "contract IOrchestrator_v1"
        },
        {
          "name": "metadata",
          "type": "tuple",
          "internalType": "struct IModule_v1.Metadata",
          "components": [
            {
              "name": "majorVersion",
              "type": "uint256",
              "internalType": "uint256"
            },
            {
              "name": "minorVersion",
              "type": "uint256",
              "internalType": "uint256"
            },
            {
              "name": "patchVersion",
              "type": "uint256",
              "internalType": "uint256"
            },
            {
              "name": "url",
              "type": "string",
              "internalType": "string"
            },
            {
              "name": "title",
              "type": "string",
              "internalType": "string"
            }
          ]
        },
        {
          "name": "configData",
          "type": "bytes",
          "internalType": "bytes"
        }
      ],
      "outputs": [],
      "stateMutability": "nonpayable"
    },
    {
      "type": "function",
      "name": "isTrustedForwarder",
      "inputs": [
        {
          "name": "forwarder",
          "type": "address",
          "internalType": "address"
        }
      ],
      "outputs": [
        {
          "name": "",
          "type": "bool",
          "internalType": "bool"
        }
      ],
      "stateMutability": "view"
    },
    {
      "type": "function",
      "name": "orchestrator",
      "inputs": [],
      "outputs": [
        {
          "name": "",
          "type": "address",
          "internalType": "contract IOrchestrator_v1"
        }
      ],
      "stateMutability": "view"
    },
    {
      "type": "function",
      "name": "outstandingTokenAmount",
      "inputs": [
        {
          "name": "token_",
          "type": "address",
          "internalType": "address"
        }
      ],
      "outputs": [
        {
          "name": "total_",
          "type": "uint256",
          "internalType": "uint256"
        }
      ],
      "stateMutability": "view"
    },
    {
      "type": "function",
      "name": "paymentOrders",
      "inputs": [],
      "outputs": [
        {
          "name": "",
          "type": "tuple[]",
          "internalType": "struct IERC20PaymentClientBase_v2.PaymentOrder[]",
          "components": [
            {
              "name": "recipient",
              "type": "address",
              "internalType": "address"
            },
            {
              "name": "paymentToken",
              "type": "address",
              "internalType": "address"
            },
            {
              "name": "amount",
              "type": "uint256",
              "internalType": "uint256"
            },
            {
              "name": "originChainId",
              "type": "uint256",
              "internalType": "uint256"
            },
            {
              "name": "targetChainId",
              "type": "uint256",
              "internalType": "uint256"
            },
            {
              "name": "flags",
              "type": "bytes32",
              "internalType": "bytes32"
            },
            {
              "name": "data",
              "type": "bytes32[]",
              "internalType": "bytes32[]"
            }
          ]
        }
      ],
      "stateMutability": "view"
    },
    {
      "type": "function",
      "name": "revokeModuleRole",
      "inputs": [
        {
          "name": "role",
          "type": "bytes32",
          "internalType": "bytes32"
        },
        {
          "name": "target",
          "type": "address",
          "internalType": "address"
        }
      ],
      "outputs": [],
      "stateMutability": "nonpayable"
    },
    {
      "type": "function",
      "name": "revokeModuleRoleBatched",
      "inputs": [
        {
          "name": "role",
          "type": "bytes32",
          "internalType": "bytes32"
        },
        {
          "name": "targets",
          "type": "address[]",
          "internalType": "address[]"
        }
      ],
      "outputs": [],
      "stateMutability": "nonpayable"
    },
    {
      "type": "function",
      "name": "setRewards",
      "inputs": [
        {
          "name": "amount",
          "type": "uint256",
          "internalType": "uint256"
        },
        {
          "name": "duration",
          "type": "uint256",
          "internalType": "uint256"
        }
      ],
      "outputs": [],
      "stateMutability": "nonpayable"
    },
    {
      "type": "function",
      "name": "stake",
      "inputs": [
        {
          "name": "amount",
          "type": "uint256",
          "internalType": "uint256"
        }
      ],
      "outputs": [],
      "stateMutability": "nonpayable"
    },
    {
      "type": "function",
      "name": "supportsInterface",
      "inputs": [
        {
          "name": "interfaceId",
          "type": "bytes4",
          "internalType": "bytes4"
        }
      ],
      "outputs": [
        {
          "name": "",
          "type": "bool",
          "internalType": "bool"
        }
      ],
      "stateMutability": "view"
    },
    {
      "type": "function",
      "name": "title",
      "inputs": [],
      "outputs": [
        {
          "name": "",
          "type": "string",
          "internalType": "string"
        }
      ],
      "stateMutability": "view"
    },
    {
      "type": "function",
      "name": "trustedForwarder",
      "inputs": [],
      "outputs": [
        {
          "name": "",
          "type": "address",
          "internalType": "address"
        }
      ],
      "stateMutability": "view"
    },
    {
      "type": "function",
      "name": "unstake",
      "inputs": [
        {
          "name": "amount",
          "type": "uint256",
          "internalType": "uint256"
        }
      ],
      "outputs": [],
      "stateMutability": "nonpayable"
    },
    {
      "type": "function",
      "name": "url",
      "inputs": [],
      "outputs": [
        {
          "name": "",
          "type": "string",
          "internalType": "string"
        }
      ],
      "stateMutability": "view"
    },
    {
      "type": "function",
      "name": "version",
      "inputs": [],
      "outputs": [
        {
          "name": "",
          "type": "uint256",
          "internalType": "uint256"
        },
        {
          "name": "",
          "type": "uint256",
          "internalType": "uint256"
        },
        {
          "name": "",
          "type": "uint256",
          "internalType": "uint256"
        }
      ],
      "stateMutability": "view"
    },
    {
      "type": "event",
      "name": "FlagsSet",
      "inputs": [
        {
          "name": "flagCount",
          "type": "uint8",
          "indexed": false,
          "internalType": "uint8"
        },
        {
          "name": "newFlags",
          "type": "bytes32",
          "indexed": false,
          "internalType": "bytes32"
        }
      ],
      "anonymous": false
    },
    {
      "type": "event",
      "name": "Initialized",
      "inputs": [
        {
          "name": "version",
          "type": "uint64",
          "indexed": false,
          "internalType": "uint64"
        }
      ],
      "anonymous": false
    },
    {
      "type": "event",
      "name": "ModuleInitialized",
      "inputs": [
        {
          "name": "parentOrchestrator",
          "type": "address",
          "indexed": true,
          "internalType": "address"
        },
        {
          "name": "metadata",
          "type": "tuple",
          "indexed": false,
          "internalType": "struct IModule_v1.Metadata",
          "components": [
            {
              "name": "majorVersion",
              "type": "uint256",
              "internalType": "uint256"
            },
            {
              "name": "minorVersion",
              "type": "uint256",
              "internalType": "uint256"
            },
            {
              "name": "patchVersion",
              "type": "uint256",
              "internalType": "uint256"
            },
            {
              "name": "url",
              "type": "string",
              "internalType": "string"
            },
            {
              "name": "title",
              "type": "string",
              "internalType": "string"
            }
          ]
        }
      ],
      "anonymous": false
    },
    {
      "type": "event",
      "name": "PaymentOrderAdded",
      "inputs": [
        {
          "name": "recipient",
          "type": "address",
          "indexed": true,
          "internalType": "address"
        },
        {
          "name": "token",
          "type": "address",
          "indexed": true,
          "internalType": "address"
        },
        {
          "name": "amount",
          "type": "uint256",
          "indexed": false,
          "internalType": "uint256"
        },
        {
          "name": "originChainId",
          "type": "uint256",
          "indexed": false,
          "internalType": "uint256"
        },
        {
          "name": "targetChainId",
          "type": "uint256",
          "indexed": false,
          "internalType": "uint256"
        },
        {
          "name": "flags",
          "type": "bytes32",
          "indexed": false,
          "internalType": "bytes32"
        },
        {
          "name": "data",
          "type": "bytes32[]",
          "indexed": false,
          "internalType": "bytes32[]"
        }
      ],
      "anonymous": false
    },
    {
      "type": "event",
      "name": "ProtocolFeeTransferred",
      "inputs": [
        {
          "name": "token",
          "type": "address",
          "indexed": true,
          "internalType": "address"
        },
        {
          "name": "treasury",
          "type": "address",
          "indexed": true,
          "internalType": "address"
        },
        {
          "name": "feeAmount",
          "type": "uint256",
          "indexed": false,
          "internalType": "uint256"
        }
      ],
      "anonymous": false
    },
    {
      "type": "event",
      "name": "RewardSet",
      "inputs": [
        {
          "name": "rewardAmount",
          "type": "uint256",
          "indexed": false,
          "internalType": "uint256"
        },
        {
          "name": "duration",
          "type": "uint256",
          "indexed": false,
          "internalType": "uint256"
        },
        {
          "name": "newRewardRate",
          "type": "uint256",
          "indexed": false,
          "internalType": "uint256"
        },
        {
          "name": "newRewardsEnd",
          "type": "uint256",
          "indexed": false,
          "internalType": "uint256"
        }
      ],
      "anonymous": false
    },
    {
      "type": "event",
      "name": "RewardsDistributed",
      "inputs": [
        {
          "name": "user",
          "type": "address",
          "indexed": true,
          "internalType": "address"
        },
        {
          "name": "amount",
          "type": "uint256",
          "indexed": false,
          "internalType": "uint256"
        }
      ],
      "anonymous": false
    },
    {
      "type": "event",
      "name": "Staked",
      "inputs": [
        {
          "name": "user",
          "type": "address",
          "indexed": true,
          "internalType": "address"
        },
        {
          "name": "amount",
          "type": "uint256",
          "indexed": false,
          "internalType": "uint256"
        }
      ],
      "anonymous": false
    },
    {
      "type": "event",
      "name": "StakingTokenSet",
      "inputs": [
        {
          "name": "token",
          "type": "address",
          "indexed": true,
          "internalType": "address"
        }
      ],
      "anonymous": false
    },
    {
      "type": "event",
      "name": "Unstaked",
      "inputs": [
        {
          "name": "user",
          "type": "address",
          "indexed": true,
          "internalType": "address"
        },
        {
          "name": "amount",
          "type": "uint256",
          "indexed": false,
          "internalType": "uint256"
        }
      ],
      "anonymous": false
    },
    {
      "type": "event",
      "name": "Updated",
      "inputs": [
        {
          "name": "triggerAddress",
          "type": "address",
          "indexed": true,
          "internalType": "address"
        },
        {
          "name": "rewardValue",
          "type": "uint256",
          "indexed": false,
          "internalType": "uint256"
        },
        {
          "name": "lastUpdate",
          "type": "uint256",
          "indexed": false,
          "internalType": "uint256"
        },
        {
          "name": "earnedRewards",
          "type": "uint256",
          "indexed": false,
          "internalType": "uint256"
        }
      ],
      "anonymous": false
    },
    {
      "type": "error",
      "name": "AddressEmptyCode",
      "inputs": [
        {
          "name": "target",
          "type": "address",
          "internalType": "address"
        }
      ]
    },
    {
      "type": "error",
      "name": "AddressInsufficientBalance",
      "inputs": [
        {
          "name": "account",
          "type": "address",
          "internalType": "address"
        }
      ]
    },
    {
      "type": "error",
      "name": "FailedInnerCall",
      "inputs": []
    },
    {
      "type": "error",
      "name": "InvalidInitialization",
      "inputs": []
    },
    {
      "type": "error",
      "name": "Module_OrchestratorCallbackFailed",
      "inputs": [
        {
          "name": "funcSig",
          "type": "string",
          "internalType": "string"
        }
      ]
    },
    {
      "type": "error",
      "name": "Module__CallerNotAuthorized",
      "inputs": [
        {
          "name": "role",
          "type": "bytes32",
          "internalType": "bytes32"
        },
        {
          "name": "caller",
          "type": "address",
          "internalType": "address"
        }
      ]
    },
    {
      "type": "error",
      "name": "Module__ERC20PaymentClientBase__CallerNotAuthorized",
      "inputs": []
    },
    {
      "type": "error",
      "name": "Module__ERC20PaymentClientBase__InsufficientFunds",
      "inputs": [
        {
          "name": "token",
          "type": "address",
          "internalType": "address"
        }
      ]
    },
    {
      "type": "error",
      "name": "Module__ERC20PaymentClientBase__InvalidAmount",
      "inputs": []
    },
    {
      "type": "error",
      "name": "Module__ERC20PaymentClientBase__InvalidPaymentOrder",
      "inputs": []
    },
    {
      "type": "error",
      "name": "Module__ERC20PaymentClientBase__InvalidRecipient",
      "inputs": []
    },
    {
      "type": "error",
      "name": "Module__ERC20PaymentClientBase__InvalidToken",
      "inputs": []
    },
    {
      "type": "error",
      "name": "Module__ERC20PaymentClientBase__MismatchBetweenFlagCountAndArrayLength",
      "inputs": [
        {
          "name": "flagCount",
          "type": "uint8",
          "internalType": "uint8"
        },
        {
          "name": "arrayLength",
          "type": "uint256",
          "internalType": "uint256"
        }
      ]
    },
    {
      "type": "error",
      "name": "Module__ERC20PaymentClientBase__TokenTransferFailed",
      "inputs": []
    },
    {
      "type": "error",
      "name": "Module__ERC20PaymentClientBase_v2__FlagAmountTooHigh",
      "inputs": []
    },
    {
      "type": "error",
      "name": "Module__InvalidAddress",
      "inputs": []
    },
    {
      "type": "error",
      "name": "Module__InvalidMetadata",
      "inputs": []
    },
    {
      "type": "error",
      "name": "Module__InvalidOrchestratorAddress",
      "inputs": []
    },
    {
      "type": "error",
      "name": "Module__LM_PC_Staking_v2__InvalidDuration",
      "inputs": []
    },
    {
      "type": "error",
      "name": "Module__LM_PC_Staking_v2__InvalidRewardRate",
      "inputs": []
    },
    {
      "type": "error",
      "name": "Module__LM_PC_Staking_v2__InvalidStakingToken",
      "inputs": []
    },
    {
      "type": "error",
      "name": "Module__OnlyCallableByOrchestrator",
      "inputs": []
    },
    {
      "type": "error",
      "name": "Module__OnlyCallableByPaymentClient",
      "inputs": []
    },
    {
      "type": "error",
      "name": "NotInitializing",
      "inputs": []
    },
    {
      "type": "error",
      "name": "ReentrancyGuardReentrantCall",
      "inputs": []
    },
    {
      "type": "error",
      "name": "SafeERC20FailedOperation",
      "inputs": [
        {
          "name": "token",
          "type": "address",
          "internalType": "address"
        }
      ]
    }
  ],
  "bytecode": {
    "object": "0x60a060405234801562000010575f80fd5b505f6080526200001f62000025565b620000d9565b7ff0c57e16840df040f15088dc2f81fe391c3923bec73e23a9662efc9c229c6a00805468010000000000000000900460ff1615620000765760405163f92ee8a960e01b815260040160405180910390fd5b80546001600160401b0390811614620000d65780546001600160401b0319166001600160401b0390811782556040519081527fc7f505b2f371ae2175ee4913f4499e1f2633a7b5936321eed1cdaeb6115181d29060200160405180910390a15b50565b608051613aa4620000ef5f395f5050613aa45ff3fe608060405234801561000f575f80fd5b50600436106101e7575f3560e01c806375fa0b7611610109578063b66a870c1161009e578063c4e41b221161006e578063c4e41b22146103fe578063c9582f2014610406578063f8b2cb4f1461041b578063ff96461b14610443575f80fd5b8063b66a870c146103b1578063b74795d9146103c4578063bcb61920146103d4578063c0231ff6146103e7575f80fd5b80638620612b116100d95780638620612b146103675780639f9106d11461037a578063a694fc3a1461038b578063b33ec6181461039e575f80fd5b806375fa0b76146103225780637998a1c4146103375780637da0a8771461033f5780637e1a37861461035f575f80fd5b80634a79d50c1161017f578063572b6c051161014f578063572b6c05146102e1578063654e51e7146102f45780636c67e807146103075780636cc7149d1461031a575f80fd5b80634a79d50c146102985780634c89867f146102ad57806354fd4d50146102b55780635600f04f146102d9575f80fd5b8063272bbd44116101ba578063272bbd44146102425780632e17de78146102555780632e84db5f14610268578063372500ab14610290575f80fd5b806301ffc9a7146101eb57806303269bda146102135780630f2bdef61461022557806324e302701461022d575b5f80fd5b6101fe6101f936600461318f565b610456565b60405190151581526020015b60405180910390f35b606f545b60405190815260200161020a565b607054610217565b61024061023b3660046131b6565b610480565b005b6102406102503660046131b6565b610720565b61024061026336600461322e565b6108ef565b610217610276366004613259565b6001600160a01b03165f9081526039602052604090205490565b610240610a07565b6102a0610a58565b60405161020a91906132c1565b607154610217565b6001546002546003546040805193845260208401929092529082015260600161020a565b6102a0610aeb565b6101fe6102ef366004613259565b610afd565b6102406103023660046132d3565b610b69565b6102406103153660046132f3565b610c1e565b603b54610217565b61032a610e24565b60405161020a9190613418565b610217610f17565b61034761106f565b6040516001600160a01b03909116815260200161020a565b606e54610217565b610217610375366004613259565b6110e3565b606c546001600160a01b0316610347565b61024061039936600461322e565b6110f5565b6102406103ac36600461342a565b61115f565b6102406103bf36600461351a565b6111bc565b5f546001600160a01b0316610347565b6102406103e23660046132f3565b611312565b6103ef6114e9565b60405161020a939291906135f8565b606d54610217565b603a5460405160ff909116815260200161020a565b610217610429366004613259565b6001600160a01b03165f9081526072602052604090205490565b6102176104513660046132d3565b6119e5565b5f6001600160e01b03198216633e07765760e01b148061047a575061047a82611a86565b92915050565b5f80546040805163d09edf3160e01b815290518693926001600160a01b03169163d09edf319160048083019260209291908290030181865afa1580156104c8573d5f803e3d5ffd5b505050506040513d601f19601f820116820180604052508101906104ec919061368d565b60405163fdd5205f60e01b8152306004820152602481018490526001600160a01b03919091169063fdd5205f90604401602060405180830381865afa158015610537573d5f803e3d5ffd5b505050506040513d601f19601f8201168201806040525081019061055b91906136a8565b905061064b5f8054906101000a90046001600160a01b03166001600160a01b031663d09edf316040518163ffffffff1660e01b8152600401602060405180830381865afa1580156105ae573d5f803e3d5ffd5b505050506040513d601f19601f820116820180604052508101906105d2919061368d565b6001600160a01b031663248a9ca3836040518263ffffffff1660e01b81526004016105ff91815260200190565b602060405180830381865afa15801561061a573d5f803e3d5ffd5b505050506040513d601f19601f8201168201806040525081019061063e91906136a8565b610646611aaa565b611afa565b5f8054906101000a90046001600160a01b03166001600160a01b031663d09edf316040518163ffffffff1660e01b8152600401602060405180830381865afa158015610699573d5f803e3d5ffd5b505050506040513d601f19601f820116820180604052508101906106bd919061368d565b6001600160a01b0316637d540a648686866040518463ffffffff1660e01b81526004016106ec939291906136bf565b5f604051808303815f87803b158015610703575f80fd5b505af1158015610715573d5f803e3d5ffd5b505050505050505050565b5f80546040805163d09edf3160e01b815290518693926001600160a01b03169163d09edf319160048083019260209291908290030181865afa158015610768573d5f803e3d5ffd5b505050506040513d601f19601f8201168201806040525081019061078c919061368d565b60405163fdd5205f60e01b8152306004820152602481018490526001600160a01b03919091169063fdd5205f90604401602060405180830381865afa1580156107d7573d5f803e3d5ffd5b505050506040513d601f19601f820116820180604052508101906107fb91906136a8565b905061084e5f8054906101000a90046001600160a01b03166001600160a01b031663d09edf316040518163ffffffff1660e01b8152600401602060405180830381865afa1580156105ae573d5f803e3d5ffd5b5f8054906101000a90046001600160a01b03166001600160a01b031663d09edf316040518163ffffffff1660e01b8152600401602060405180830381865afa15801561089c573d5f803e3d5ffd5b505050506040513d601f19601f820116820180604052508101906108c0919061368d565b6001600160a01b031663648154538686866040518463ffffffff1660e01b81526004016106ec939291906136bf565b6108f7611c11565b8061090181611c5b565b5f61090a611aaa565b905061091581611c7b565b6001600160a01b0381165f908152607260205260408120805485929061093c90849061372a565b9250508190555082606d5f828254610954919061372a565b9091555050606c54610970906001600160a01b03168285611d36565b6001600160a01b0381165f90815260746020526040902054156109965761099681611daf565b806001600160a01b03167f0f5bb82176feb1b5e747e28471aa92156a04d9f3ab9f45f28e2d704232b93f75846040516109d191815260200190565b60405180910390a25050610a0460017f9b779b17422d0df92223018b32b4d1fa46e071723d6817e2486d003becc55f0055565b50565b610a0f611c11565b5f610a18611aaa565b9050610a2381611c7b565b610a2c81611daf565b50610a5660017f9b779b17422d0df92223018b32b4d1fa46e071723d6817e2486d003becc55f0055565b565b606060016004018054610a6a9061373d565b80601f0160208091040260200160405190810160405280929190818152602001828054610a969061373d565b8015610ae15780601f10610ab857610100808354040283529160200191610ae1565b820191905f5260205f20905b815481529060010190602001808311610ac457829003601f168201915b5050505050905090565b606060016003018054610a6a9061373d565b5f805460405163572b6c0560e01b81526001600160a01b0384811660048301529091169063572b6c0590602401602060405180830381865afa158015610b45573d5f803e3d5ffd5b505050506040513d601f19601f8201168201806040525081019061047a9190613775565b5f546040805163d09edf3160e01b81529051610c10926001600160a01b03169163d09edf319160048083019260209291908290030181865afa158015610bb1573d5f803e3d5ffd5b505050506040513d601f19601f82011682018060405250810190610bd5919061368d565b6001600160a01b031663b3ecf2366040518163ffffffff1660e01b8152600401602060405180830381865afa15801561061a573d5f803e3d5ffd5b610c1a8282612049565b5050565b5f80546040805163d09edf3160e01b815290518593926001600160a01b03169163d09edf319160048083019260209291908290030181865afa158015610c66573d5f803e3d5ffd5b505050506040513d601f19601f82011682018060405250810190610c8a919061368d565b60405163fdd5205f60e01b8152306004820152602481018490526001600160a01b03919091169063fdd5205f90604401602060405180830381865afa158015610cd5573d5f803e3d5ffd5b505050506040513d601f19601f82011682018060405250810190610cf991906136a8565b9050610d4c5f8054906101000a90046001600160a01b03166001600160a01b031663d09edf316040518163ffffffff1660e01b8152600401602060405180830381865afa1580156105ae573d5f803e3d5ffd5b5f8054906101000a90046001600160a01b03166001600160a01b031663d09edf316040518163ffffffff1660e01b8152600401602060405180830381865afa158015610d9a573d5f803e3d5ffd5b505050506040513d601f19601f82011682018060405250810190610dbe919061368d565b60405163385e205560e21b8152600481018690526001600160a01b038581166024830152919091169063e1788154906044015b5f604051808303815f87803b158015610e08575f80fd5b505af1158015610e1a573d5f803e3d5ffd5b5050505050505050565b60606038805480602002602001604051908101604052809291908181526020015f905b82821015610f0e575f8481526020908190206040805160e0810182526007860290920180546001600160a01b039081168452600182015416838501526002810154838301526003810154606084015260048101546080840152600581015460a08401526006810180548351818702810187019094528084529394919360c086019392830182828015610ef657602002820191905f5260205f20905b815481526020019060010190808311610ee2575b50505050508152505081526020019060010190610e47565b50505050905090565b5f61106a60016040518060a00160405290815f82015481526020016001820154815260200160028201548152602001600382018054610f559061373d565b80601f0160208091040260200160405190810160405280929190818152602001828054610f819061373d565b8015610fcc5780601f10610fa357610100808354040283529160200191610fcc565b820191905f5260205f20905b815481529060010190602001808311610faf57829003601f168201915b50505050508152602001600482018054610fe59061373d565b80601f01602080910402602001604051908101604052809291908181526020018280546110119061373d565b801561105c5780601f106110335761010080835404028352916020019161105c565b820191905f5260205f20905b81548152906001019060200180831161103f57829003601f168201915b505050505081525050612141565b905090565b5f805f9054906101000a90046001600160a01b03166001600160a01b0316637da0a8776040518163ffffffff1660e01b8152600401602060405180830381865afa1580156110bf573d5f803e3d5ffd5b505050506040513d601f19601f8201168201806040525081019061106a919061368d565b5f61047a826110f061217f565b6121e5565b6110fd611c11565b8061110781611c5b565b5f611110611aaa565b905061111c8184612253565b606c54611134906001600160a01b0316823086612309565b5050610a0460017f9b779b17422d0df92223018b32b4d1fa46e071723d6817e2486d003becc55f0055565b61116f61116a611aaa565b612348565b61118c5760405163e4597a6b60e01b815260040160405180910390fd5b6001600160a01b0382165f90815260396020526040812080548392906111b390849061372a565b90915550505050565b7ff0c57e16840df040f15088dc2f81fe391c3923bec73e23a9662efc9c229c6a00805468010000000000000000810460ff16159067ffffffffffffffff165f811580156112065750825b90505f8267ffffffffffffffff1660011480156112225750303b155b905081158015611230575080155b1561124e5760405163f92ee8a960e01b815260040160405180910390fd5b845467ffffffffffffffff19166001178555831561128257845468ff00000000000000001916680100000000000000001785555b61128a6123c5565b61129488886123d5565b5f868060200190518101906112a9919061368d565b90506112b4816124c2565b6112bd5f6124d3565b508315610e1a57845468ff000000000000000019168555604051600181527fc7f505b2f371ae2175ee4913f4499e1f2633a7b5936321eed1cdaeb6115181d29060200160405180910390a15050505050505050565b5f80546040805163d09edf3160e01b815290518593926001600160a01b03169163d09edf319160048083019260209291908290030181865afa15801561135a573d5f803e3d5ffd5b505050506040513d601f19601f8201168201806040525081019061137e919061368d565b60405163fdd5205f60e01b8152306004820152602481018490526001600160a01b03919091169063fdd5205f90604401602060405180830381865afa1580156113c9573d5f803e3d5ffd5b505050506040513d601f19601f820116820180604052508101906113ed91906136a8565b90506114405f8054906101000a90046001600160a01b03166001600160a01b031663d09edf316040518163ffffffff1660e01b8152600401602060405180830381865afa1580156105ae573d5f803e3d5ffd5b5f8054906101000a90046001600160a01b03166001600160a01b031663d09edf316040518163ffffffff1660e01b8152600401602060405180830381865afa15801561148e573d5f803e3d5ffd5b505050506040513d601f19601f820116820180604052508101906114b2919061368d565b604051632e99be7f60e21b8152600481018690526001600160a01b038581166024830152919091169063ba66f9fc90604401610df1565b60608060606114f961116a611aaa565b6115165760405163e4597a6b60e01b815260040160405180910390fd5b6038545f808267ffffffffffffffff81111561153457611534613454565b60405190808252806020026020018201604052801561155d578160200160208202803683370190505b5090505f8367ffffffffffffffff81111561157a5761157a613454565b6040519080825280602002602001820160405280156115a3578160200160208202803683370190505b5090508367ffffffffffffffff8111156115bf576115bf613454565b60405190808252806020026020018201604052801561163f57816020015b61162c6040518060e001604052805f6001600160a01b031681526020015f6001600160a01b031681526020015f81526020015f81526020015f81526020015f8019168152602001606081525090565b8152602001906001900390816115dd5790505b5096505f5b84811015611863576038818154811061165f5761165f613794565b5f9182526020918290206040805160e081018252600790930290910180546001600160a01b039081168452600182015416838501526002810154838301526003810154606084015260048101546080840152600581015460a08401526006810180548351818702810187019094528084529394919360c08601939283018282801561170757602002820191905f5260205f20905b8154815260200190600101908083116116f3575b50505050508152505088828151811061172257611722613794565b60200260200101819052505f805b858110156117985789838151811061174a5761174a613794565b6020026020010151602001516001600160a01b031685828151811061177157611771613794565b60200260200101516001600160a01b0316036117905760019150611798565b600101611730565b508061185a578882815181106117b0576117b0613794565b6020026020010151602001518486815181106117ce576117ce613794565b60200260200101906001600160a01b031690816001600160a01b03168152505060395f8a848151811061180357611803613794565b6020026020010151602001516001600160a01b03166001600160a01b031681526020019081526020015f205483868151811061184157611841613794565b602090810291909101015284611856816137a8565b9550505b50600101611644565b5061186f60385f6130a3565b8267ffffffffffffffff81111561188857611888613454565b6040519080825280602002602001820160405280156118b1578160200160208202803683370190505b5095508267ffffffffffffffff8111156118cd576118cd613454565b6040519080825280602002602001820160405280156118f6578160200160208202803683370190505b5094505f5b838110156119db5782818151811061191557611915613794565b602002602001015187828151811061192f5761192f613794565b60200260200101906001600160a01b031690816001600160a01b03168152505081818151811061196157611961613794565b602002602001015186828151811061197b5761197b613794565b6020026020010181815250506119b1611992611aaa565b8883815181106119a4576119a4613794565b60200260200101516124e4565b6119d38782815181106119c6576119c6613794565b6020026020010151612508565b6001016118fb565b5050505050909192565b5f826119f081611c5b565b826119fa8161277e565b606f54421115611a0c575f9250611a7e565b606f54611a1985426137c0565b1115611a305742606f54611a2d919061372a565b93505b606d545f03611a5757606e54611a4685876137d3565b611a5091906137d3565b9250611a7e565b606d54606e54611a6786886137d3565b611a7191906137d3565b611a7b91906137ea565b92505b505092915050565b5f6001600160e01b031982166346fe193d60e11b148061047a575061047a8261279e565b5f366014611ab733610afd565b8015611ac35750808210155b15611af2575f36611ad4838561372a565b611adf928290613809565b611ae891613830565b60601c9250505090565b339250505090565b5f8054906101000a90046001600160a01b03166001600160a01b031663d09edf316040518163ffffffff1660e01b8152600401602060405180830381865afa158015611b48573d5f803e3d5ffd5b505050506040513d601f19601f82011682018060405250810190611b6c919061368d565b60405163a883867d60e01b8152600481018490526001600160a01b038381166024830152919091169063a883867d90604401602060405180830381865afa158015611bb9573d5f803e3d5ffd5b505050506040513d601f19601f82011682018060405250810190611bdd9190613775565b610c1a576040516342abbb7760e01b8152600481018390526001600160a01b03821660248201526044015b60405180910390fd5b7f9b779b17422d0df92223018b32b4d1fa46e071723d6817e2486d003becc55f00805460011901611c5557604051633ee5aeb560e01b815260040160405180910390fd5b60029055565b805f03610a04576040516351cd1a8760e11b815260040160405180910390fd5b5f611c8461217f565b607081905590505f611c946127d2565b607181905590505f6001600160a01b03841615611ce357611cb7846070546121e5565b6001600160a01b0385165f90815260746020908152604080832084905560705460739092529091205590505b60408051848152602081018490529081018290526001600160a01b038516907fa970b12b7ab9d055296c48cc861cf24cf1b06100b204a5a3a32d9208ca06cc91906060015b60405180910390a250505050565b6040516001600160a01b03838116602483015260448201839052611daa91859182169063a9059cbb906064015b604051602081830303815290604052915060e01b6020820180517bffffffffffffffffffffffffffffffffffffffffffffffffffffffff83818316178352505050506127e9565b505050565b6001600160a01b0381165f9081526074602052604081208054908290559080611e0181604051908082528060200260200182016040528015611dfb578160200160208202803683370190505b5061284a565b91509150611f206040518060e00160405280866001600160a01b03168152602001611e335f546001600160a01b031690565b6001600160a01b03166304baed9e6040518163ffffffff1660e01b8152600401602060405180830381865afa158015611e6e573d5f803e3d5ffd5b505050506040513d601f19601f82011682018060405250810190611e92919061368d565b6001600160a01b031663fc0c546a6040518163ffffffff1660e01b8152600401602060405180830381865afa158015611ecd573d5f803e3d5ffd5b505050506040513d601f19601f82011682018060405250810190611ef1919061368d565b6001600160a01b031681526020018581526020014681526020014681526020018481526020018381525061288d565b5f8054906101000a90046001600160a01b03166001600160a01b031663f1c6bdf86040518163ffffffff1660e01b8152600401602060405180830381865afa158015611f6e573d5f803e3d5ffd5b505050506040513d601f19601f82011682018060405250810190611f92919061368d565b60405163e151fc6160e01b81523060048201526001600160a01b03919091169063e151fc61906024015f604051808303815f87803b158015611fd2575f80fd5b505af1158015611fe4573d5f803e3d5ffd5b50505050836001600160a01b03167fdf29796aad820e4bb192f3a8d631b76519bcd2cbe77cc85af20e9df53cece08684604051611d2891815260200190565b60017f9b779b17422d0df92223018b32b4d1fa46e071723d6817e2486d003becc55f0055565b8161205381611c5b565b8161205d8161277e565b6120665f611c7b565b606f5442106120815761207983856137ea565b606e556120b9565b5f606e5442606f54612093919061372a565b61209d91906137d3565b9050836120aa82876137c0565b6120b491906137ea565b606e55505b606e545f036120db5760405163a771e08160e01b815260040160405180910390fd5b6120e583426137c0565b606f81905542607155606e5460408051878152602081018790529081019190915260608101919091527fe6ff9e5909ab32d770b5c8e779b77275ca8dda9d96cfb24d0287d80715dd02969060800160405180910390a150505050565b5f815f01518260600151836080015160405160200161216293929190613863565b604051602081830303815290604052805190602001209050919050565b5f606d545f03612190575060705490565b607054606d54606e546071546121a46127d2565b6121ae919061372a565b6121b891906137d3565b6121d1906ec097ce7bc90715b34b9f10000000006137d3565b6121db91906137ea565b61106a91906137c0565b6001600160a01b0382165f90815260746020908152604080832054607283528184205460739093529083205490916ec097ce7bc90715b34b9f10000000009161222e908661372a565b61223891906137d3565b61224291906137ea565b61224c91906137c0565b9392505050565b61225c82611c7b565b6001600160a01b0382165f90815260746020526040902054156122825761228282611daf565b6001600160a01b0382165f90815260726020526040812080548392906122a99084906137c0565b9250508190555080606d5f8282546122c191906137c0565b90915550506040518181526001600160a01b038316907f9e71bc8eea02a63969f509818f2dafb9254532904319f9dbda79b67bd34a5f3d906020015b60405180910390a25050565b6040516001600160a01b0384811660248301528381166044830152606482018390526123429186918216906323b872dd90608401611d63565b50505050565b5f805460408051631e38d7bf60e31b815290516001600160a01b0380861693169163f1c6bdf89160048083019260209291908290030181865afa158015612391573d5f803e3d5ffd5b505050506040513d601f19601f820116820180604052508101906123b5919061368d565b6001600160a01b03161492915050565b6123cd612ab4565b610a56612b02565b6123dd612ab4565b6001600160a01b03821661240457604051637280679360e01b815260040160405180910390fd5b5f80546001600160a01b0319166001600160a01b03841617905561242781612b0a565b61244457604051637511254160e01b815260040160405180910390fd5b8051600190815560208201516002556040820151600355606082015182919060049061247090826138d8565b506080820151600482019061248590826138d8565b50905050816001600160a01b03167fd5f3f84c2e1816ce290af84d002663800b02f2985d770cdd335de76fd723b730826040516122fd9190613998565b6124ca612ab4565b610a0481612b64565b6124db612ab4565b610a0481612cba565b6001600160a01b0381165f81815260396020526040902054610c1a91908490612d45565b6001600160a01b0381165f818152603960205260408082205490516370a0823160e01b81523060048201529092906370a0823190602401602060405180830381865afa15801561255a573d5f803e3d5ffd5b505050506040513d601f19601f8201168201806040525081019061257e91906136a8565b905081811015611daa575f8054906101000a90046001600160a01b03166001600160a01b03166304baed9e6040518163ffffffff1660e01b8152600401602060405180830381865afa1580156125d6573d5f803e3d5ffd5b505050506040513d601f19601f820116820180604052508101906125fa919061368d565b6001600160a01b031663fc0c546a6040518163ffffffff1660e01b8152600401602060405180830381865afa158015612635573d5f803e3d5ffd5b505050506040513d601f19601f82011682018060405250810190612659919061368d565b6001600160a01b0316836001600160a01b03160361275a575f8054906101000a90046001600160a01b03166001600160a01b03166304baed9e6040518163ffffffff1660e01b8152600401602060405180830381865afa1580156126bf573d5f803e3d5ffd5b505050506040513d601f19601f820116820180604052508101906126e3919061368d565b6001600160a01b031663759cc4b5306126fc848661372a565b6040516001600160e01b031960e085901b1681526001600160a01b03909216600483015260248201526044015f604051808303815f87803b15801561273f575f80fd5b505af1158015612751573d5f803e3d5ffd5b50505050505050565b6040516346511acb60e11b81526001600160a01b0384166004820152602401611c08565b805f03610a045760405163f65f433b60e01b815260040160405180910390fd5b5f6001600160e01b0319821663e328951160e01b148061047a57506301ffc9a760e01b6001600160e01b031983161461047a565b5f42606f5411156127e257504290565b50606f5490565b5f6127fd6001600160a01b03841683612de9565b905080515f1415801561282157508080602001905181019061281f9190613775565b155b15611daa57604051635274afe760e01b81526001600160a01b0384166004820152602401611c08565b8051603a545f9160609160ff161461288557603a548351604051630bf3089f60e11b815260ff90921660048301526024820152604401611c08565b5050603b5491565b8061289781612df6565b816040015160395f84602001516001600160a01b03166001600160a01b031681526020019081526020015f205f8282546128d191906137c0565b9091555050603880546001810182555f9190915282517f38395c5dceade9603479b177b68959049485df8aa97b39f3533039af5f456199600790920291820180546001600160a01b03199081166001600160a01b039384161782556020808701517f38395c5dceade9603479b177b68959049485df8aa97b39f3533039af5f45619a86018054909316941693909317905560408501517f38395c5dceade9603479b177b68959049485df8aa97b39f3533039af5f45619b84015560608501517f38395c5dceade9603479b177b68959049485df8aa97b39f3533039af5f45619c84015560808501517f38395c5dceade9603479b177b68959049485df8aa97b39f3533039af5f45619d84015560a08501517f38395c5dceade9603479b177b68959049485df8aa97b39f3533039af5f45619e84015560c0850151805186949293612a3f937f38395c5dceade9603479b177b68959049485df8aa97b39f3533039af5f45619f019201906130c1565b50505081602001516001600160a01b0316825f01516001600160a01b03167ff7c0c50e520bf64576a9482cc54780006390b90cee6a1c0bde1adaeb9c0f02f68460400151856060015186608001518760a001518860c00151604051612aa89594939291906139ee565b60405180910390a35050565b7ff0c57e16840df040f15088dc2f81fe391c3923bec73e23a9662efc9c229c6a005468010000000000000000900460ff16610a5657604051631afcd79f60e31b815260040160405180910390fd5b612023612ab4565b5f8160600151515f03612b1e57505f919050565b8160800151515f03612b3157505f919050565b8151158015612b4257506020820151155b8015612b5057506040820151155b15612b5c57505f919050565b506001919050565b6001600160a01b0381161580612c5357505f546001600160a01b03166001600160a01b03166304baed9e6040518163ffffffff1660e01b8152600401602060405180830381865afa158015612bbb573d5f803e3d5ffd5b505050506040513d601f19601f82011682018060405250810190612bdf919061368d565b6001600160a01b031663fc0c546a6040518163ffffffff1660e01b8152600401602060405180830381865afa158015612c1a573d5f803e3d5ffd5b505050506040513d601f19601f82011682018060405250810190612c3e919061368d565b6001600160a01b0316816001600160a01b0316145b15612c715760405163017e6d2d60e41b815260040160405180910390fd5b606c80546001600160a01b0319166001600160a01b0383169081179091556040517f9904a32444ae0eb0bae2045baf588aa248f03f4fef600c18afd1d7e751614af8905f90a250565b5f805b60ff8111612cf0576001811b831615612cde5781612cda81613a23565b9250505b80612ce8816137a8565b915050612cbd565b50603b829055603a805460ff191660ff831690811790915560408051918252602082018490527f7b463eebcf86a9ecb1c64d88acc3609fe74aaccb569d01b4bb01875b737eda18910160405180910390a15050565b604080516001600160a01b038416602482015260448082018490528251808303909101815260649091019091526020810180517bffffffffffffffffffffffffffffffffffffffffffffffffffffffff1663095ea7b360e01b179052612dab8482612ee8565b612342576040516001600160a01b0384811660248301525f6044830152612ddf91869182169063095ea7b390606401611d63565b61234284826127e9565b606061224c83835f612f85565b5f546001600160a01b03166001600160a01b031663f1c6bdf86040518163ffffffff1660e01b8152600401602060405180830381865afa158015612e3c573d5f803e3d5ffd5b505050506040513d601f19601f82011682018060405250810190612e60919061368d565b6001600160a01b031663f7698285826040518263ffffffff1660e01b8152600401612e8b9190613a41565b6020604051808303815f875af1158015612ea7573d5f803e3d5ffd5b505050506040513d601f19601f82011682018060405250810190612ecb9190613775565b610a045760405163349a262760e01b815260040160405180910390fd5b5f805f846001600160a01b031684604051612f039190613a53565b5f604051808303815f865af19150503d805f8114612f3c576040519150601f19603f3d011682016040523d82523d5f602084013e612f41565b606091505b5091509150818015612f6b575080511580612f6b575080806020019051810190612f6b9190613775565b8015611a7b5750505050506001600160a01b03163b151590565b606081471015612faa5760405163cd78605960e01b8152306004820152602401611c08565b5f80856001600160a01b03168486604051612fc59190613a53565b5f6040518083038185875af1925050503d805f8114612fff576040519150601f19603f3d011682016040523d82523d5f602084013e613004565b606091505b509150915061301486838361301e565b9695505050505050565b6060826130335761302e8261307a565b61224c565b815115801561304a57506001600160a01b0384163b155b1561307357604051639996b31560e01b81526001600160a01b0385166004820152602401611c08565b508061224c565b80511561308a5780518082602001fd5b604051630a12f52160e11b815260040160405180910390fd5b5080545f8255600702905f5260205f2090810190610a04919061310a565b828054828255905f5260205f209081019282156130fa579160200282015b828111156130fa5782518255916020019190600101906130df565b50613106929150613160565b5090565b808211156131065780546001600160a01b0319908116825560018201805490911690555f600282018190556003820181905560048201819055600582018190556131576006830182613174565b5060070161310a565b5b80821115613106575f8155600101613161565b5080545f8255905f5260205f2090810190610a049190613160565b5f6020828403121561319f575f80fd5b81356001600160e01b03198116811461224c575f80fd5b5f805f604084860312156131c8575f80fd5b83359250602084013567ffffffffffffffff808211156131e6575f80fd5b818601915086601f8301126131f9575f80fd5b813581811115613207575f80fd5b8760208260051b850101111561321b575f80fd5b6020830194508093505050509250925092565b5f6020828403121561323e575f80fd5b5035919050565b6001600160a01b0381168114610a04575f80fd5b5f60208284031215613269575f80fd5b813561224c81613245565b5f5b8381101561328e578181015183820152602001613276565b50505f910152565b5f81518084526132ad816020860160208601613274565b601f01601f19169290920160200192915050565b602081525f61224c6020830184613296565b5f80604083850312156132e4575f80fd5b50508035926020909101359150565b5f8060408385031215613304575f80fd5b82359150602083013561331681613245565b809150509250929050565b5f815180845260208085019450602084015f5b8381101561335057815187529582019590820190600101613334565b509495945050505050565b5f6001600160a01b038083511684528060208401511660208501525060408201516040840152606082015160608401526080820151608084015260a082015160a084015260c082015160e060c08501526133b860e0850182613321565b949350505050565b5f8282518085526020808601955060208260051b840101602086015f5b8481101561340b57601f198684030189526133f983835161335b565b988401989250908301906001016133dd565b5090979650505050505050565b602081525f61224c60208301846133c0565b5f806040838503121561343b575f80fd5b823561344681613245565b946020939093013593505050565b634e487b7160e01b5f52604160045260245ffd5b60405160a0810167ffffffffffffffff8111828210171561348b5761348b613454565b60405290565b5f82601f8301126134a0575f80fd5b813567ffffffffffffffff808211156134bb576134bb613454565b604051601f8301601f19908116603f011681019082821181831017156134e3576134e3613454565b816040528381528660208588010111156134fb575f80fd5b836020870160208301375f602085830101528094505050505092915050565b5f805f6060848603121561352c575f80fd5b833561353781613245565b9250602084013567ffffffffffffffff80821115613553575f80fd5b9085019060a08288031215613566575f80fd5b61356e613468565b823581526020830135602082015260408301356040820152606083013582811115613597575f80fd5b6135a389828601613491565b6060830152506080830135828111156135ba575f80fd5b6135c689828601613491565b608083015250935060408601359150808211156135e1575f80fd5b506135ee86828701613491565b9150509250925092565b606081525f61360a60608301866133c0565b8281036020848101919091528551808352868201928201905f5b818110156136495784516001600160a01b031683529383019391830191600101613624565b5050848103604086015285518082529082019250818601905f5b8181101561367f57825185529383019391830191600101613663565b509298975050505050505050565b5f6020828403121561369d575f80fd5b815161224c81613245565b5f602082840312156136b8575f80fd5b5051919050565b838152604060208083018290529082018390525f90849060608401835b8681101561370a5783356136ef81613245565b6001600160a01b0316825292820192908201906001016136dc565b50979650505050505050565b634e487b7160e01b5f52601160045260245ffd5b8181038181111561047a5761047a613716565b600181811c9082168061375157607f821691505b60208210810361376f57634e487b7160e01b5f52602260045260245ffd5b50919050565b5f60208284031215613785575f80fd5b8151801515811461224c575f80fd5b634e487b7160e01b5f52603260045260245ffd5b5f600182016137b9576137b9613716565b5060010190565b8082018082111561047a5761047a613716565b808202811582820484141761047a5761047a613716565b5f8261380457634e487b7160e01b5f52601260045260245ffd5b500490565b5f8085851115613817575f80fd5b83861115613823575f80fd5b5050820193919092039150565b6bffffffffffffffffffffffff198135818116916014851015611a7e5760149490940360031b84901b1690921692915050565b838152606060208201525f61387b6060830185613296565b82810360408401526130148185613296565b601f821115611daa57805f5260205f20601f840160051c810160208510156138b25750805b601f840160051c820191505b818110156138d1575f81556001016138be565b5050505050565b815167ffffffffffffffff8111156138f2576138f2613454565b61390681613900845461373d565b8461388d565b602080601f831160018114613939575f84156139225750858301515b5f19600386901b1c1916600185901b178555613990565b5f85815260208120601f198616915b8281101561396757888601518255948401946001909101908401613948565b508582101561398457878501515f19600388901b60f8161c191681555b505060018460011b0185555b505050505050565b602081528151602082015260208201516040820152604082015160608201525f606083015160a060808401526139d160c0840182613296565b90506080840151601f198483030160a0850152611a7b8282613296565b85815284602082015283604082015282606082015260a060808201525f613a1860a0830184613321565b979650505050505050565b5f60ff821660ff8103613a3857613a38613716565b60010192915050565b602081525f61224c602083018461335b565b5f8251613a64818460208701613274565b919091019291505056fea2646970667358221220a765beb2263b0afcd77ba1140803df0636412d9279c00a3c7e51aabc17537a8264736f6c63430008170033",
    "linkReferences": {}
  },
  "methodIdentifiers": {
    "amountPaid(address,uint256)": "b33ec618",
    "claimRewards()": "372500ab",
    "collectPaymentOrders()": "c0231ff6",
    "getBalance(address)": "f8b2cb4f",
    "getEarned(address)": "8620612b",
    "getEstimatedReward(uint256,uint256)": "ff96461b",
    "getFlagCount()": "c9582f20",
    "getFlags()": "6cc7149d",
    "getLastUpdate()": "4c89867f",
    "getRewardRate()": "7e1a3786",
    "getRewardValue()": "0f2bdef6",
    "getRewardsEnd()": "03269bda",
    "getStakingToken()": "9f9106d1",
    "getTotalSupply()": "c4e41b22",
    "grantModuleRole(bytes32,address)": "6c67e807",
    "grantModuleRoleBatched(bytes32,address[])": "272bbd44",
    "identifier()": "7998a1c4",
    "init(address,(uint256,uint256,uint256,string,string),bytes)": "b66a870c",
    "isTrustedForwarder(address)": "572b6c05",
    "orchestrator()": "b74795d9",
    "outstandingTokenAmount(address)": "2e84db5f",
    "paymentOrders()": "75fa0b76",
    "revokeModuleRole(bytes32,address)": "bcb61920",
    "revokeModuleRoleBatched(bytes32,address[])": "24e30270",
    "setRewards(uint256,uint256)": "654e51e7",
    "stake(uint256)": "a694fc3a",
    "supportsInterface(bytes4)": "01ffc9a7",
    "title()": "4a79d50c",
    "trustedForwarder()": "7da0a877",
    "unstake(uint256)": "2e17de78",
    "url()": "5600f04f",
    "version()": "54fd4d50"
  },
  "id": 158
}