{
  "abi": [
    {
      "type": "function",
      "name": "amountPaid",
      "inputs": [
        {
          "name": "token",
          "type": "address",
          "internalType": "address"
        },
        {
          "name": "amount",
          "type": "uint256",
          "internalType": "uint256"
        }
      ],
      "outputs": [],
      "stateMutability": "nonpayable"
    },
    {
      "type": "function",
      "name": "collectPaymentOrders",
      "inputs": [],
      "outputs": [
        {
          "name": "",
          "type": "tuple[]",
          "internalType": "struct IERC20PaymentClientBase_v1.PaymentOrder[]",
          "components": [
            {
              "name": "recipient",
              "type": "address",
              "internalType": "address"
            },
            {
              "name": "paymentToken",
              "type": "address",
              "internalType": "address"
            },
            {
              "name": "amount",
              "type": "uint256",
              "internalType": "uint256"
            },
            {
              "name": "start",
              "type": "uint256",
              "internalType": "uint256"
            },
            {
              "name": "cliff",
              "type": "uint256",
              "internalType": "uint256"
            },
            {
              "name": "end",
              "type": "uint256",
              "internalType": "uint256"
            }
          ]
        },
        {
          "name": "",
          "type": "address[]",
          "internalType": "address[]"
        },
        {
          "name": "",
          "type": "uint256[]",
          "internalType": "uint256[]"
        }
      ],
      "stateMutability": "nonpayable"
    },
    {
      "type": "function",
      "name": "executeMigration",
      "inputs": [],
      "outputs": [
        {
          "name": "",
          "type": "tuple",
          "internalType": "struct ILM_PC_MigrateLiquidity_UniswapV2_v1.LiquidityMigrationResult",
          "components": [
            {
              "name": "lpTokenAddress",
              "type": "address",
              "internalType": "address"
            },
            {
              "name": "lpTokenAmount",
              "type": "uint256",
              "internalType": "uint256"
            },
            {
              "name": "token0",
              "type": "address",
              "internalType": "address"
            },
            {
              "name": "token1",
              "type": "address",
              "internalType": "address"
            },
            {
              "name": "amount0",
              "type": "uint256",
              "internalType": "uint256"
            },
            {
              "name": "amount1",
              "type": "uint256",
              "internalType": "uint256"
            }
          ]
        }
      ],
      "stateMutability": "nonpayable"
    },
    {
      "type": "function",
      "name": "getExecuted",
      "inputs": [],
      "outputs": [
        {
          "name": "",
          "type": "bool",
          "internalType": "bool"
        }
      ],
      "stateMutability": "view"
    },
    {
      "type": "function",
      "name": "getMigrationConfig",
      "inputs": [],
      "outputs": [
        {
          "name": "",
          "type": "tuple",
          "internalType": "struct ILM_PC_MigrateLiquidity_UniswapV2_v1.LiquidityMigrationConfig",
          "components": [
            {
              "name": "collateralMigrationAmount",
              "type": "uint256",
              "internalType": "uint256"
            },
            {
              "name": "collateralMigrateThreshold",
              "type": "uint256",
              "internalType": "uint256"
            },
            {
              "name": "dexRouterAddress",
              "type": "address",
              "internalType": "address"
            },
            {
              "name": "lpTokenRecipientAddress",
              "type": "address",
              "internalType": "address"
            }
          ]
        }
      ],
      "stateMutability": "view"
    },
    {
      "type": "function",
      "name": "grantModuleRole",
      "inputs": [
        {
          "name": "role",
          "type": "bytes32",
          "internalType": "bytes32"
        },
        {
          "name": "target",
          "type": "address",
          "internalType": "address"
        }
      ],
      "outputs": [],
      "stateMutability": "nonpayable"
    },
    {
      "type": "function",
      "name": "grantModuleRoleBatched",
      "inputs": [
        {
          "name": "role",
          "type": "bytes32",
          "internalType": "bytes32"
        },
        {
          "name": "targets",
          "type": "address[]",
          "internalType": "address[]"
        }
      ],
      "outputs": [],
      "stateMutability": "nonpayable"
    },
    {
      "type": "function",
      "name": "identifier",
      "inputs": [],
      "outputs": [
        {
          "name": "",
          "type": "bytes32",
          "internalType": "bytes32"
        }
      ],
      "stateMutability": "view"
    },
    {
      "type": "function",
      "name": "init",
      "inputs": [
        {
          "name": "orchestrator_",
          "type": "address",
          "internalType": "contract IOrchestrator_v1"
        },
        {
          "name": "metadata",
          "type": "tuple",
          "internalType": "struct IModule_v1.Metadata",
          "components": [
            {
              "name": "majorVersion",
              "type": "uint256",
              "internalType": "uint256"
            },
            {
              "name": "minorVersion",
              "type": "uint256",
              "internalType": "uint256"
            },
            {
              "name": "patchVersion",
              "type": "uint256",
              "internalType": "uint256"
            },
            {
              "name": "url",
              "type": "string",
              "internalType": "string"
            },
            {
              "name": "title",
              "type": "string",
              "internalType": "string"
            }
          ]
        },
        {
          "name": "configData",
          "type": "bytes",
          "internalType": "bytes"
        }
      ],
      "outputs": [],
      "stateMutability": "nonpayable"
    },
    {
      "type": "function",
      "name": "isMigrationReady",
      "inputs": [],
      "outputs": [
        {
          "name": "",
          "type": "bool",
          "internalType": "bool"
        }
      ],
      "stateMutability": "view"
    },
    {
      "type": "function",
      "name": "isTrustedForwarder",
      "inputs": [
        {
          "name": "forwarder",
          "type": "address",
          "internalType": "address"
        }
      ],
      "outputs": [
        {
          "name": "",
          "type": "bool",
          "internalType": "bool"
        }
      ],
      "stateMutability": "view"
    },
    {
      "type": "function",
      "name": "orchestrator",
      "inputs": [],
      "outputs": [
        {
          "name": "",
          "type": "address",
          "internalType": "contract IOrchestrator_v1"
        }
      ],
      "stateMutability": "view"
    },
    {
      "type": "function",
      "name": "outstandingTokenAmount",
      "inputs": [
        {
          "name": "_token",
          "type": "address",
          "internalType": "address"
        }
      ],
      "outputs": [
        {
          "name": "",
          "type": "uint256",
          "internalType": "uint256"
        }
      ],
      "stateMutability": "view"
    },
    {
      "type": "function",
      "name": "paymentOrders",
      "inputs": [],
      "outputs": [
        {
          "name": "",
          "type": "tuple[]",
          "internalType": "struct IERC20PaymentClientBase_v1.PaymentOrder[]",
          "components": [
            {
              "name": "recipient",
              "type": "address",
              "internalType": "address"
            },
            {
              "name": "paymentToken",
              "type": "address",
              "internalType": "address"
            },
            {
              "name": "amount",
              "type": "uint256",
              "internalType": "uint256"
            },
            {
              "name": "start",
              "type": "uint256",
              "internalType": "uint256"
            },
            {
              "name": "cliff",
              "type": "uint256",
              "internalType": "uint256"
            },
            {
              "name": "end",
              "type": "uint256",
              "internalType": "uint256"
            }
          ]
        }
      ],
      "stateMutability": "view"
    },
    {
      "type": "function",
      "name": "revokeModuleRole",
      "inputs": [
        {
          "name": "role",
          "type": "bytes32",
          "internalType": "bytes32"
        },
        {
          "name": "target",
          "type": "address",
          "internalType": "address"
        }
      ],
      "outputs": [],
      "stateMutability": "nonpayable"
    },
    {
      "type": "function",
      "name": "revokeModuleRoleBatched",
      "inputs": [
        {
          "name": "role",
          "type": "bytes32",
          "internalType": "bytes32"
        },
        {
          "name": "targets",
          "type": "address[]",
          "internalType": "address[]"
        }
      ],
      "outputs": [],
      "stateMutability": "nonpayable"
    },
    {
      "type": "function",
      "name": "supportsInterface",
      "inputs": [
        {
          "name": "interfaceId",
          "type": "bytes4",
          "internalType": "bytes4"
        }
      ],
      "outputs": [
        {
          "name": "",
          "type": "bool",
          "internalType": "bool"
        }
      ],
      "stateMutability": "view"
    },
    {
      "type": "function",
      "name": "title",
      "inputs": [],
      "outputs": [
        {
          "name": "",
          "type": "string",
          "internalType": "string"
        }
      ],
      "stateMutability": "view"
    },
    {
      "type": "function",
      "name": "trustedForwarder",
      "inputs": [],
      "outputs": [
        {
          "name": "",
          "type": "address",
          "internalType": "address"
        }
      ],
      "stateMutability": "view"
    },
    {
      "type": "function",
      "name": "url",
      "inputs": [],
      "outputs": [
        {
          "name": "",
          "type": "string",
          "internalType": "string"
        }
      ],
      "stateMutability": "view"
    },
    {
      "type": "function",
      "name": "version",
      "inputs": [],
      "outputs": [
        {
          "name": "",
          "type": "uint256",
          "internalType": "uint256"
        },
        {
          "name": "",
          "type": "uint256",
          "internalType": "uint256"
        },
        {
          "name": "",
          "type": "uint256",
          "internalType": "uint256"
        }
      ],
      "stateMutability": "view"
    },
    {
      "type": "event",
      "name": "Initialized",
      "inputs": [
        {
          "name": "version",
          "type": "uint64",
          "indexed": false,
          "internalType": "uint64"
        }
      ],
      "anonymous": false
    },
    {
      "type": "event",
      "name": "MigrationConfigured",
      "inputs": [
        {
          "name": "collateralMigrationAmount",
          "type": "uint256",
          "indexed": false,
          "internalType": "uint256"
        },
        {
          "name": "collateralMigrateThreshold",
          "type": "uint256",
          "indexed": false,
          "internalType": "uint256"
        }
      ],
      "anonymous": false
    },
    {
      "type": "event",
      "name": "MigrationExecuted",
      "inputs": [
        {
          "name": "result",
          "type": "tuple",
          "indexed": false,
          "internalType": "struct ILM_PC_MigrateLiquidity_UniswapV2_v1.LiquidityMigrationResult",
          "components": [
            {
              "name": "lpTokenAddress",
              "type": "address",
              "internalType": "address"
            },
            {
              "name": "lpTokenAmount",
              "type": "uint256",
              "internalType": "uint256"
            },
            {
              "name": "token0",
              "type": "address",
              "internalType": "address"
            },
            {
              "name": "token1",
              "type": "address",
              "internalType": "address"
            },
            {
              "name": "amount0",
              "type": "uint256",
              "internalType": "uint256"
            },
            {
              "name": "amount1",
              "type": "uint256",
              "internalType": "uint256"
            }
          ]
        }
      ],
      "anonymous": false
    },
    {
      "type": "event",
      "name": "ModuleInitialized",
      "inputs": [
        {
          "name": "parentOrchestrator",
          "type": "address",
          "indexed": true,
          "internalType": "address"
        },
        {
          "name": "metadata",
          "type": "tuple",
          "indexed": false,
          "internalType": "struct IModule_v1.Metadata",
          "components": [
            {
              "name": "majorVersion",
              "type": "uint256",
              "internalType": "uint256"
            },
            {
              "name": "minorVersion",
              "type": "uint256",
              "internalType": "uint256"
            },
            {
              "name": "patchVersion",
              "type": "uint256",
              "internalType": "uint256"
            },
            {
              "name": "url",
              "type": "string",
              "internalType": "string"
            },
            {
              "name": "title",
              "type": "string",
              "internalType": "string"
            }
          ]
        }
      ],
      "anonymous": false
    },
    {
      "type": "event",
      "name": "PaymentOrderAdded",
      "inputs": [
        {
          "name": "recipient",
          "type": "address",
          "indexed": true,
          "internalType": "address"
        },
        {
          "name": "token",
          "type": "address",
          "indexed": true,
          "internalType": "address"
        },
        {
          "name": "amount",
          "type": "uint256",
          "indexed": false,
          "internalType": "uint256"
        }
      ],
      "anonymous": false
    },
    {
      "type": "event",
      "name": "ProtocolFeeTransferred",
      "inputs": [
        {
          "name": "token",
          "type": "address",
          "indexed": true,
          "internalType": "address"
        },
        {
          "name": "treasury",
          "type": "address",
          "indexed": true,
          "internalType": "address"
        },
        {
          "name": "feeAmount",
          "type": "uint256",
          "indexed": false,
          "internalType": "uint256"
        }
      ],
      "anonymous": false
    },
    {
      "type": "error",
      "name": "AddressEmptyCode",
      "inputs": [
        {
          "name": "target",
          "type": "address",
          "internalType": "address"
        }
      ]
    },
    {
      "type": "error",
      "name": "AddressInsufficientBalance",
      "inputs": [
        {
          "name": "account",
          "type": "address",
          "internalType": "address"
        }
      ]
    },
    {
      "type": "error",
      "name": "FailedInnerCall",
      "inputs": []
    },
    {
      "type": "error",
      "name": "InvalidInitialization",
      "inputs": []
    },
    {
      "type": "error",
      "name": "Module_OrchestratorCallbackFailed",
      "inputs": [
        {
          "name": "funcSig",
          "type": "string",
          "internalType": "string"
        }
      ]
    },
    {
      "type": "error",
      "name": "Module__CallerNotAuthorized",
      "inputs": [
        {
          "name": "role",
          "type": "bytes32",
          "internalType": "bytes32"
        },
        {
          "name": "caller",
          "type": "address",
          "internalType": "address"
        }
      ]
    },
    {
      "type": "error",
      "name": "Module__ERC20PaymentClientBase__ArrayLengthMismatch",
      "inputs": []
    },
    {
      "type": "error",
      "name": "Module__ERC20PaymentClientBase__CallerNotAuthorized",
      "inputs": []
    },
    {
      "type": "error",
      "name": "Module__ERC20PaymentClientBase__InsufficientFunds",
      "inputs": [
        {
          "name": "token",
          "type": "address",
          "internalType": "address"
        }
      ]
    },
    {
      "type": "error",
      "name": "Module__ERC20PaymentClientBase__InvalidAmount",
      "inputs": []
    },
    {
      "type": "error",
      "name": "Module__ERC20PaymentClientBase__InvalidPaymentOrder",
      "inputs": []
    },
    {
      "type": "error",
      "name": "Module__ERC20PaymentClientBase__InvalidRecipient",
      "inputs": []
    },
    {
      "type": "error",
      "name": "Module__ERC20PaymentClientBase__InvalidToken",
      "inputs": []
    },
    {
      "type": "error",
      "name": "Module__ERC20PaymentClientBase__Invalidend",
      "inputs": []
    },
    {
      "type": "error",
      "name": "Module__ERC20PaymentClientBase__TokenTransferFailed",
      "inputs": []
    },
    {
      "type": "error",
      "name": "Module__InvalidAddress",
      "inputs": []
    },
    {
      "type": "error",
      "name": "Module__InvalidMetadata",
      "inputs": []
    },
    {
      "type": "error",
      "name": "Module__InvalidOrchestratorAddress",
      "inputs": []
    },
    {
      "type": "error",
      "name": "Module__LM_PC_MigrateLiquidity__AlreadyExecuted",
      "inputs": []
    },
    {
      "type": "error",
      "name": "Module__LM_PC_MigrateLiquidity__InvalidParameters",
      "inputs": []
    },
    {
      "type": "error",
      "name": "Module__LM_PC_MigrateLiquidity__ThresholdNotReached",
      "inputs": []
    },
    {
      "type": "error",
      "name": "Module__OnlyCallableByOrchestrator",
      "inputs": []
    },
    {
      "type": "error",
      "name": "Module__OnlyCallableByPaymentClient",
      "inputs": []
    },
    {
      "type": "error",
      "name": "NotInitializing",
      "inputs": []
    },
    {
      "type": "error",
      "name": "SafeERC20FailedOperation",
      "inputs": [
        {
          "name": "token",
          "type": "address",
          "internalType": "address"
        }
      ]
    }
  ],
  "bytecode": {
    "object": "0x60a06040523480156200001157600080fd5b5060006080526200002162000027565b620000db565b7ff0c57e16840df040f15088dc2f81fe391c3923bec73e23a9662efc9c229c6a00805468010000000000000000900460ff1615620000785760405163f92ee8a960e01b815260040160405180910390fd5b80546001600160401b0390811614620000d85780546001600160401b0319166001600160401b0390811782556040519081527fc7f505b2f371ae2175ee4913f4499e1f2633a7b5936321eed1cdaeb6115181d29060200160405180910390a15b50565b60805161342b620000f46000396000505061342b6000f3fe608060405234801561001057600080fd5b50600436106101775760003560e01c806375fa0b76116100d8578063b66a870c1161008c578063c0231ff611610066578063c0231ff6146103a5578063c3c987cc146103bc578063c9d4693a146103c457600080fd5b8063b66a870c1461036e578063b74795d914610381578063bcb619201461039257600080fd5b80637da0a877116100bd5780637da0a87714610329578063af12a57114610349578063b33ec6181461035b57600080fd5b806375fa0b761461030c5780637998a1c41461032157600080fd5b806354fd4d501161012f578063572b6c0511610114578063572b6c051461024457806359e97f6b146102575780636c67e807146102f957600080fd5b806354fd4d50146102185780635600f04f1461023c57600080fd5b8063272bbd4411610160578063272bbd44146101b95780632e84db5f146101cc5780634a79d50c1461020357600080fd5b806301ffc9a71461017c57806324e30270146101a4575b600080fd5b61018f61018a366004612b44565b610427565b60405190151581526020015b60405180910390f35b6101b76101b2366004612b6e565b610452565b005b6101b76101c7366004612b6e565b610704565b6101f56101da366004612c02565b6001600160a01b031660009081526039602052604090205490565b60405190815260200161019b565b61020b6108de565b60405161019b9190612c6f565b6001546002546003546040805193845260208401929092529082015260600161019b565b61020b610973565b61018f610252366004612c02565b610985565b6102b96040805160808101825260008082526020820181905291810182905260608101919091525060408051608081018252607054815260715460208201526072546001600160a01b0390811692820192909252607354909116606082015290565b604080518251815260208084015190820152828201516001600160a01b03908116928201929092526060928301519091169181019190915260800161019b565b6101b7610307366004612c82565b6109f4565b610314610c0a565b60405161019b9190612d2e565b6101f5610cad565b610331610e0b565b6040516001600160a01b03909116815260200161019b565b607454600160a01b900460ff1661018f565b6101b7610369366004612d41565b610e83565b6101b761037c366004612e39565b610ee1565b6000546001600160a01b0316610331565b6101b76103a0366004612c82565b61127b565b6103ad61145d565b60405161019b93929190612f1f565b61018f61191c565b6103cc6119c9565b60405161019b9190600060c0820190506001600160a01b0380845116835260208401516020840152806040850151166040840152806060850151166060840152506080830151608083015260a083015160a083015292915050565b60006001600160e01b03198216633f398d3b60e21b148061044c575061044c826120d2565b92915050565b600080546040805163d09edf3160e01b815290518693926001600160a01b03169163d09edf319160048083019260209291908290030181865afa15801561049d573d6000803e3d6000fd5b505050506040513d601f19601f820116820180604052508101906104c19190612fb7565b60405163fdd5205f60e01b8152306004820152602481018490526001600160a01b03919091169063fdd5205f90604401602060405180830381865afa15801561050e573d6000803e3d6000fd5b505050506040513d601f19601f820116820180604052508101906105329190612fd4565b905061062760008054906101000a90046001600160a01b03166001600160a01b031663d09edf316040518163ffffffff1660e01b8152600401602060405180830381865afa158015610588573d6000803e3d6000fd5b505050506040513d601f19601f820116820180604052508101906105ac9190612fb7565b6001600160a01b031663248a9ca3836040518263ffffffff1660e01b81526004016105d991815260200190565b602060405180830381865afa1580156105f6573d6000803e3d6000fd5b505050506040513d601f19601f8201168201806040525081019061061a9190612fd4565b6106226120f7565b612149565b60008054906101000a90046001600160a01b03166001600160a01b031663d09edf316040518163ffffffff1660e01b8152600401602060405180830381865afa158015610678573d6000803e3d6000fd5b505050506040513d601f19601f8201168201806040525081019061069c9190612fb7565b6001600160a01b0316637d540a648686866040518463ffffffff1660e01b81526004016106cb93929190612fed565b600060405180830381600087803b1580156106e557600080fd5b505af11580156106f9573d6000803e3d6000fd5b505050505050505050565b600080546040805163d09edf3160e01b815290518693926001600160a01b03169163d09edf319160048083019260209291908290030181865afa15801561074f573d6000803e3d6000fd5b505050506040513d601f19601f820116820180604052508101906107739190612fb7565b60405163fdd5205f60e01b8152306004820152602481018490526001600160a01b03919091169063fdd5205f90604401602060405180830381865afa1580156107c0573d6000803e3d6000fd5b505050506040513d601f19601f820116820180604052508101906107e49190612fd4565b905061083a60008054906101000a90046001600160a01b03166001600160a01b031663d09edf316040518163ffffffff1660e01b8152600401602060405180830381865afa158015610588573d6000803e3d6000fd5b60008054906101000a90046001600160a01b03166001600160a01b031663d09edf316040518163ffffffff1660e01b8152600401602060405180830381865afa15801561088b573d6000803e3d6000fd5b505050506040513d601f19601f820116820180604052508101906108af9190612fb7565b6001600160a01b031663648154538686866040518463ffffffff1660e01b81526004016106cb93929190612fed565b6060600160040180546108f090613045565b80601f016020809104026020016040519081016040528092919081815260200182805461091c90613045565b80156109695780601f1061093e57610100808354040283529160200191610969565b820191906000526020600020905b81548152906001019060200180831161094c57829003601f168201915b5050505050905090565b6060600160030180546108f090613045565b6000805460405163572b6c0560e01b81526001600160a01b0384811660048301529091169063572b6c0590602401602060405180830381865afa1580156109d0573d6000803e3d6000fd5b505050506040513d601f19601f8201168201806040525081019061044c919061307f565b600080546040805163d09edf3160e01b815290518593926001600160a01b03169163d09edf319160048083019260209291908290030181865afa158015610a3f573d6000803e3d6000fd5b505050506040513d601f19601f82011682018060405250810190610a639190612fb7565b60405163fdd5205f60e01b8152306004820152602481018490526001600160a01b03919091169063fdd5205f90604401602060405180830381865afa158015610ab0573d6000803e3d6000fd5b505050506040513d601f19601f82011682018060405250810190610ad49190612fd4565b9050610b2a60008054906101000a90046001600160a01b03166001600160a01b031663d09edf316040518163ffffffff1660e01b8152600401602060405180830381865afa158015610588573d6000803e3d6000fd5b60008054906101000a90046001600160a01b03166001600160a01b031663d09edf316040518163ffffffff1660e01b8152600401602060405180830381865afa158015610b7b573d6000803e3d6000fd5b505050506040513d601f19601f82011682018060405250810190610b9f9190612fb7565b60405163385e205560e21b8152600481018690526001600160a01b038581166024830152919091169063e1788154906044015b600060405180830381600087803b158015610bec57600080fd5b505af1158015610c00573d6000803e3d6000fd5b5050505050505050565b60606038805480602002602001604051908101604052809291908181526020016000905b82821015610ca45760008481526020908190206040805160c0810182526006860290920180546001600160a01b0390811684526001808301549091168486015260028201549284019290925260038101546060840152600481015460808401526005015460a08301529083529092019101610c2e565b50505050905090565b6000610e0660016040518060a0016040529081600082015481526020016001820154815260200160028201548152602001600382018054610ced90613045565b80601f0160208091040260200160405190810160405280929190818152602001828054610d1990613045565b8015610d665780601f10610d3b57610100808354040283529160200191610d66565b820191906000526020600020905b815481529060010190602001808311610d4957829003601f168201915b50505050508152602001600482018054610d7f90613045565b80601f0160208091040260200160405190810160405280929190818152602001828054610dab90613045565b8015610df85780601f10610dcd57610100808354040283529160200191610df8565b820191906000526020600020905b815481529060010190602001808311610ddb57829003601f168201915b505050505081525050612264565b905090565b60008060009054906101000a90046001600160a01b03166001600160a01b0316637da0a8776040518163ffffffff1660e01b8152600401602060405180830381865afa158015610e5f573d6000803e3d6000fd5b505050506040513d601f19601f82011682018060405250810190610e069190612fb7565b610e93610e8e6120f7565b6122a4565b610eb05760405163e4597a6b60e01b815260040160405180910390fd5b6001600160a01b03821660009081526039602052604081208054839290610ed89084906130b7565b90915550505050565b7ff0c57e16840df040f15088dc2f81fe391c3923bec73e23a9662efc9c229c6a00805468010000000000000000810460ff16159067ffffffffffffffff16600081158015610f2c5750825b905060008267ffffffffffffffff166001148015610f495750303b155b905081158015610f57575080155b15610f755760405163f92ee8a960e01b815260040160405180910390fd5b845467ffffffffffffffff191660011785558315610fa957845468ff00000000000000001916680100000000000000001785555b610fb38888612324565b6000546001600160a01b03166001600160a01b03166304baed9e6040518163ffffffff1660e01b8152600401602060405180830381865afa158015610ffc573d6000803e3d6000fd5b505050506040513d601f19601f820116820180604052508101906110209190612fb7565b606c80546001600160a01b03929092166001600160a01b031992831681179091556074805490921617905561105d6000546001600160a01b031690565b6001600160a01b03166304baed9e6040518163ffffffff1660e01b8152600401602060405180830381865afa15801561109a573d6000803e3d6000fd5b505050506040513d601f19601f820116820180604052508101906110be9190612fb7565b6001600160a01b031663fc0c546a6040518163ffffffff1660e01b8152600401602060405180830381865afa1580156110fb573d6000803e3d6000fd5b505050506040513d601f19601f8201168201806040525081019061111f9190612fb7565b606e80546001600160a01b0319166001600160a01b0392831617905560745460408051631ca3bc4f60e01b815290519190921691631ca3bc4f9160048083019260209291908290030181865afa15801561117d573d6000803e3d6000fd5b505050506040513d601f19601f820116820180604052508101906111a19190612fb7565b606d80546001600160a01b0319166001600160a01b039290921691909117905585516111d690602090880181019088016130ca565b805160705560208101516071556040810151607280546001600160a01b039283166001600160a01b03199182161790915560609092015160738054919092169083168117909155606f80549092161790558315610c0057845468ff000000000000000019168555604051600181527fc7f505b2f371ae2175ee4913f4499e1f2633a7b5936321eed1cdaeb6115181d29060200160405180910390a15050505050505050565b600080546040805163d09edf3160e01b815290518593926001600160a01b03169163d09edf319160048083019260209291908290030181865afa1580156112c6573d6000803e3d6000fd5b505050506040513d601f19601f820116820180604052508101906112ea9190612fb7565b60405163fdd5205f60e01b8152306004820152602481018490526001600160a01b03919091169063fdd5205f90604401602060405180830381865afa158015611337573d6000803e3d6000fd5b505050506040513d601f19601f8201168201806040525081019061135b9190612fd4565b90506113b160008054906101000a90046001600160a01b03166001600160a01b031663d09edf316040518163ffffffff1660e01b8152600401602060405180830381865afa158015610588573d6000803e3d6000fd5b60008054906101000a90046001600160a01b03166001600160a01b031663d09edf316040518163ffffffff1660e01b8152600401602060405180830381865afa158015611402573d6000803e3d6000fd5b505050506040513d601f19601f820116820180604052508101906114269190612fb7565b604051632e99be7f60e21b8152600481018690526001600160a01b038581166024830152919091169063ba66f9fc90604401610bd2565b606080606061146d610e8e6120f7565b61148a5760405163e4597a6b60e01b815260040160405180910390fd5b6038546000808267ffffffffffffffff8111156114a9576114a9612d6d565b6040519080825280602002602001820160405280156114d2578160200160208202803683370190505b50905060008367ffffffffffffffff8111156114f0576114f0612d6d565b604051908082528060200260200182016040528015611519578160200160208202803683370190505b50905060008467ffffffffffffffff81111561153757611537612d6d565b6040519080825280602002602001820160405280156115b357816020015b6115a06040518060c0016040528060006001600160a01b0316815260200160006001600160a01b03168152602001600081526020016000815260200160008152602001600081525090565b8152602001906001900390816115555790505b50905060005b8581101561178d57603881815481106115d4576115d461313f565b60009182526020918290206040805160c081018252600690930290910180546001600160a01b03908116845260018201541693830193909352600283015490820152600382015460608201526004820154608082015260059091015460a082015282518390839081106116495761164961313f565b60200260200101819052506000805b868110156116c0578383815181106116725761167261313f565b6020026020010151602001516001600160a01b03168682815181106116995761169961313f565b60200260200101516001600160a01b0316036116b857600191506116c0565b600101611658565b5080611784578282815181106116d8576116d861313f565b6020026020010151602001518587815181106116f6576116f661313f565b60200260200101906001600160a01b031690816001600160a01b0316815250506039600084848151811061172c5761172c61313f565b6020026020010151602001516001600160a01b03166001600160a01b031681526020019081526020016000205484878151811061176b5761176b61313f565b60209081029190910101528561178081613155565b9650505b506001016115b9565b5061179a60386000612adc565b60008467ffffffffffffffff8111156117b5576117b5612d6d565b6040519080825280602002602001820160405280156117de578160200160208202803683370190505b50905060008567ffffffffffffffff8111156117fc576117fc612d6d565b604051908082528060200260200182016040528015611825578160200160208202803683370190505b50905060005b8681101561190b578581815181106118455761184561313f565b602002602001015183828151811061185f5761185f61313f565b60200260200101906001600160a01b031690816001600160a01b0316815250508481815181106118915761189161313f565b60200260200101518282815181106118ab576118ab61313f565b6020026020010181815250506118e16118c26120f7565b8483815181106118d4576118d461313f565b602002602001015161241e565b6119038382815181106118f6576118f661313f565b6020026020010151612443565b60010161182b565b509199909850909650945050505050565b607454600090600160a01b900460ff16156119375750600090565b606e54606c546040516370a0823160e01b81526001600160a01b03918216600482015260009291909116906370a0823190602401602060405180830381865afa158015611988573d6000803e3d6000fd5b505050506040513d601f19601f820116820180604052508101906119ac9190612fd4565b6071549091508110156119c157600091505090565b600191505090565b6040805160c081018252600080825260208201819052918101829052606081018290526080810182905260a0810191909152607454600160a01b900460ff1615611a2657604051632f2f0e5f60e21b815260040160405180910390fd5b611a2e61191c565b611a4b5760405163074a8c7560e11b815260040160405180910390fd5b607254606e54606d5460745460705460405163759cc4b560e01b815230600482015260248101919091526001600160a01b039485169493841693928316929091169063759cc4b590604401600060405180830381600087803b158015611ab057600080fd5b505af1158015611ac4573d6000803e3d6000fd5b505060745460705460405162322d2160e81b81526004810191909152600093506001600160a01b03909116915063322d2100906024016020604051808303816000875af1158015611b19573d6000803e3d6000fd5b505050506040513d601f19601f82011682018060405250810190611b3d9190612fd4565b606d546040516340c10f1960e01b8152306004820152602481018390529192506001600160a01b0316906340c10f1990604401600060405180830381600087803b158015611b8a57600080fd5b505af1158015611b9e573d6000803e3d6000fd5b505060725460705460405163095ea7b360e01b81526001600160a01b0392831660048201526024810191909152908616925063095ea7b391506044016020604051808303816000875af1158015611bf9573d6000803e3d6000fd5b505050506040513d601f19601f82011682018060405250810190611c1d919061307f565b5060725460405163095ea7b360e01b81526001600160a01b039182166004820152602481018390529083169063095ea7b3906044016020604051808303816000875af1158015611c71573d6000803e3d6000fd5b505050506040513d601f19601f82011682018060405250810190611c95919061307f565b506000846001600160a01b031663c45a01556040518163ffffffff1660e01b8152600401602060405180830381865afa158015611cd6573d6000803e3d6000fd5b505050506040513d601f19601f82011682018060405250810190611cfa9190612fb7565b6040516364e329cb60e11b81526001600160a01b0386811660048301528581166024830152919091169063c9c65396906044016020604051808303816000875af1158015611d4c573d6000803e3d6000fd5b505050506040513d601f19601f82011682018060405250810190611d709190612fb7565b90506000806000876001600160a01b031663e8e337008888607060000154896064607060000154605f611da3919061316e565b611dad9190613185565b6064611dba8d605f61316e565b611dc49190613185565b606f546001600160a01b0316611eb8576000546001600160a01b03166001600160a01b031663d09edf316040518163ffffffff1660e01b8152600401602060405180830381865afa158015611e1d573d6000803e3d6000fd5b505050506040513d601f19601f82011682018060405250810190611e419190612fb7565b604051632404341f60e21b815260006004820181905260248201526001600160a01b039190911690639010d07c90604401602060405180830381865afa158015611e8f573d6000803e3d6000fd5b505050506040513d601f19601f82011682018060405250810190611eb39190612fb7565b611ec5565b606f546001600160a01b03165b611ed1426103846131a7565b60405160e08a901b6001600160e01b03191681526001600160a01b039889166004820152968816602488015260448701959095526064860193909352608485019190915260a484015290921660c482015260e4810191909152610104016060604051808303816000875af1158015611f4d573d6000803e3d6000fd5b505050506040513d601f19601f82011682018060405250810190611f7191906131ba565b925092509250600083118015611f875750600082115b611fd85760405162461bcd60e51b815260206004820152601960248201527f4c6971756964697479206164646974696f6e206661696c65640000000000000060448201526064015b60405180910390fd5b607480547fffffffffffffffffffffff00ffffffffffffffffffffffffffffffffffffffff16600160a01b1790556040805160c0810182526001600160a01b0380871682526020820184905289811682840152881660608201526080810185905260a0810184905290517fedab5b150a06be75d7d432cb4c399db76879ab2c54afece046326ae8eec25818906120bd908390600060c0820190506001600160a01b0380845116835260208401516020840152806040850151166040840152806060850151166060840152506080830151608083015260a083015160a083015292915050565b60405180910390a19850505050505050505090565b60006001600160e01b0319821663286309c760e01b148061044c575061044c826126ce565b600036601461210533610985565b80156121115750808210155b156121415760003661212383856130b7565b61212e9282906131e8565b61213791613212565b60601c9250505090565b339250505090565b60008054906101000a90046001600160a01b03166001600160a01b031663d09edf316040518163ffffffff1660e01b8152600401602060405180830381865afa15801561219a573d6000803e3d6000fd5b505050506040513d601f19601f820116820180604052508101906121be9190612fb7565b60405163a883867d60e01b8152600481018490526001600160a01b038381166024830152919091169063a883867d90604401602060405180830381865afa15801561220d573d6000803e3d6000fd5b505050506040513d601f19601f82011682018060405250810190612231919061307f565b612260576040516342abbb7760e01b8152600481018390526001600160a01b0382166024820152604401611fcf565b5050565b600081600001518260600151836080015160405160200161228793929190613247565b604051602081830303815290604052805190602001209050919050565b6000805460408051631e38d7bf60e31b815290516001600160a01b0380861693169163f1c6bdf89160048083019260209291908290030181865afa1580156122f0573d6000803e3d6000fd5b505050506040513d601f19601f820116820180604052508101906123149190612fb7565b6001600160a01b03161492915050565b61232c612703565b6001600160a01b03821661235357604051637280679360e01b815260040160405180910390fd5b600080546001600160a01b0319166001600160a01b03841617905561237781612753565b61239457604051637511254160e01b815260040160405180910390fd5b805160019081556020820151600255604082015160035560608201518291906004906123c090826132c2565b50608082015160048201906123d590826132c2565b50905050816001600160a01b03167fd5f3f84c2e1816ce290af84d002663800b02f2985d770cdd335de76fd723b730826040516124129190613382565b60405180910390a25050565b6001600160a01b038116600081815260396020526040902054612260919084906127b3565b6001600160a01b0381166000818152603960205260408082205490516370a0823160e01b81523060048201529092906370a0823190602401602060405180830381865afa158015612498573d6000803e3d6000fd5b505050506040513d601f19601f820116820180604052508101906124bc9190612fd4565b9050818110156126c95760008054906101000a90046001600160a01b03166001600160a01b03166304baed9e6040518163ffffffff1660e01b8152600401602060405180830381865afa158015612517573d6000803e3d6000fd5b505050506040513d601f19601f8201168201806040525081019061253b9190612fb7565b6001600160a01b031663fc0c546a6040518163ffffffff1660e01b8152600401602060405180830381865afa158015612578573d6000803e3d6000fd5b505050506040513d601f19601f8201168201806040525081019061259c9190612fb7565b6001600160a01b0316836001600160a01b0316036126a55760008054906101000a90046001600160a01b03166001600160a01b03166304baed9e6040518163ffffffff1660e01b8152600401602060405180830381865afa158015612605573d6000803e3d6000fd5b505050506040513d601f19601f820116820180604052508101906126299190612fb7565b6001600160a01b031663759cc4b53061264284866130b7565b6040516001600160e01b031960e085901b1681526001600160a01b0390921660048301526024820152604401600060405180830381600087803b15801561268857600080fd5b505af115801561269c573d6000803e3d6000fd5b50505050505050565b6040516346511acb60e11b81526001600160a01b0384166004820152602401611fcf565b505050565b60006001600160e01b0319821663e328951160e01b148061044c57506301ffc9a760e01b6001600160e01b031983161461044c565b7ff0c57e16840df040f15088dc2f81fe391c3923bec73e23a9662efc9c229c6a005468010000000000000000900460ff1661275157604051631afcd79f60e31b815260040160405180910390fd5b565b600081606001515160000361276a57506000919050565b81608001515160000361277f57506000919050565b815115801561279057506020820151155b801561279e57506040820151155b156127ab57506000919050565b506001919050565b604080516001600160a01b038416602482015260448082018490528251808303909101815260649091019091526020810180517bffffffffffffffffffffffffffffffffffffffffffffffffffffffff1663095ea7b360e01b1790526128198482612897565b61289157604080516001600160a01b038516602482015260006044808301919091528251808303909101815260649091019091526020810180517bffffffffffffffffffffffffffffffffffffffffffffffffffffffff1663095ea7b360e01b17905261288790859061293f565b612891848261293f565b50505050565b6000806000846001600160a01b0316846040516128b491906133d9565b6000604051808303816000865af19150503d80600081146128f1576040519150601f19603f3d011682016040523d82523d6000602084013e6128f6565b606091505b5091509150818015612920575080511580612920575080806020019051810190612920919061307f565b801561293657506000856001600160a01b03163b115b95945050505050565b60006129546001600160a01b038416836129a2565b90508051600014158015612979575080806020019051810190612977919061307f565b155b156126c957604051635274afe760e01b81526001600160a01b0384166004820152602401611fcf565b60606129b0838360006129b7565b9392505050565b6060814710156129dc5760405163cd78605960e01b8152306004820152602401611fcf565b600080856001600160a01b031684866040516129f891906133d9565b60006040518083038185875af1925050503d8060008114612a35576040519150601f19603f3d011682016040523d82523d6000602084013e612a3a565b606091505b5091509150612a4a868383612a54565b9695505050505050565b606082612a6957612a6482612ab0565b6129b0565b8151158015612a8057506001600160a01b0384163b155b15612aa957604051639996b31560e01b81526001600160a01b0385166004820152602401611fcf565b50806129b0565b805115612ac05780518082602001fd5b604051630a12f52160e11b815260040160405180910390fd5b50565b5080546000825560060290600052602060002090810190612ad991905b80821115612b405780546001600160a01b03199081168255600182018054909116905560006002820181905560038201819055600482018190556005820155600601612af9565b5090565b600060208284031215612b5657600080fd5b81356001600160e01b0319811681146129b057600080fd5b600080600060408486031215612b8357600080fd5b83359250602084013567ffffffffffffffff80821115612ba257600080fd5b818601915086601f830112612bb657600080fd5b813581811115612bc557600080fd5b8760208260051b8501011115612bda57600080fd5b6020830194508093505050509250925092565b6001600160a01b0381168114612ad957600080fd5b600060208284031215612c1457600080fd5b81356129b081612bed565b60005b83811015612c3a578181015183820152602001612c22565b50506000910152565b60008151808452612c5b816020860160208601612c1f565b601f01601f19169290920160200192915050565b6020815260006129b06020830184612c43565b60008060408385031215612c9557600080fd5b823591506020830135612ca781612bed565b809150509250929050565b60008151808452602080850194506020840160005b83811015612d2357815180516001600160a01b03908116895284820151168489015260408082015190890152606080820151908901526080808201519089015260a0908101519088015260c09096019590820190600101612cc7565b509495945050505050565b6020815260006129b06020830184612cb2565b60008060408385031215612d5457600080fd5b8235612d5f81612bed565b946020939093013593505050565b634e487b7160e01b600052604160045260246000fd5b60405160a0810167ffffffffffffffff81118282101715612da657612da6612d6d565b60405290565b600082601f830112612dbd57600080fd5b813567ffffffffffffffff80821115612dd857612dd8612d6d565b604051601f8301601f19908116603f01168101908282118183101715612e0057612e00612d6d565b81604052838152866020858801011115612e1957600080fd5b836020870160208301376000602085830101528094505050505092915050565b600080600060608486031215612e4e57600080fd5b8335612e5981612bed565b9250602084013567ffffffffffffffff80821115612e7657600080fd5b9085019060a08288031215612e8a57600080fd5b612e92612d83565b823581526020830135602082015260408301356040820152606083013582811115612ebc57600080fd5b612ec889828601612dac565b606083015250608083013582811115612ee057600080fd5b612eec89828601612dac565b60808301525093506040860135915080821115612f0857600080fd5b50612f1586828701612dac565b9150509250925092565b606081526000612f326060830186612cb2565b82810360208481019190915285518083528682019282019060005b81811015612f725784516001600160a01b031683529383019391830191600101612f4d565b50508481036040860152855180825290820192508186019060005b81811015612fa957825185529383019391830191600101612f8d565b509298975050505050505050565b600060208284031215612fc957600080fd5b81516129b081612bed565b600060208284031215612fe657600080fd5b5051919050565b83815260406020808301829052908201839052600090849060608401835b8681101561303957833561301e81612bed565b6001600160a01b03168252928201929082019060010161300b565b50979650505050505050565b600181811c9082168061305957607f821691505b60208210810361307957634e487b7160e01b600052602260045260246000fd5b50919050565b60006020828403121561309157600080fd5b815180151581146129b057600080fd5b634e487b7160e01b600052601160045260246000fd5b8181038181111561044c5761044c6130a1565b6000608082840312156130dc57600080fd5b6040516080810181811067ffffffffffffffff821117156130ff576130ff612d6d565b80604052508251815260208301516020820152604083015161312081612bed565b6040820152606083015161313381612bed565b60608201529392505050565b634e487b7160e01b600052603260045260246000fd5b600060018201613167576131676130a1565b5060010190565b808202811582820484141761044c5761044c6130a1565b6000826131a257634e487b7160e01b600052601260045260246000fd5b500490565b8082018082111561044c5761044c6130a1565b6000806000606084860312156131cf57600080fd5b8351925060208401519150604084015190509250925092565b600080858511156131f857600080fd5b8386111561320557600080fd5b5050820193919092039150565b6bffffffffffffffffffffffff19813581811691601485101561323f5780818660140360031b1b83161692505b505092915050565b8381526060602082015260006132606060830185612c43565b8281036040840152612a4a8185612c43565b601f8211156126c9576000816000526020600020601f850160051c8101602086101561329b5750805b601f850160051c820191505b818110156132ba578281556001016132a7565b505050505050565b815167ffffffffffffffff8111156132dc576132dc612d6d565b6132f0816132ea8454613045565b84613272565b602080601f831160018114613325576000841561330d5750858301515b600019600386901b1c1916600185901b1785556132ba565b600085815260208120601f198616915b8281101561335457888601518255948401946001909101908401613335565b50858210156133725787850151600019600388901b60f8161c191681555b5050505050600190811b01905550565b602081528151602082015260208201516040820152604082015160608201526000606083015160a060808401526133bc60c0840182612c43565b90506080840151601f198483030160a08501526129368282612c43565b600082516133eb818460208701612c1f565b919091019291505056fea264697066735822122030a194f750cc07019f2c6ca214562dff89d5f22a932988a347fdcea2d227befb64736f6c63430008170033",
    "linkReferences": {}
  },
  "methodIdentifiers": {
    "amountPaid(address,uint256)": "b33ec618",
    "collectPaymentOrders()": "c0231ff6",
    "executeMigration()": "c9d4693a",
    "getExecuted()": "af12a571",
    "getMigrationConfig()": "59e97f6b",
    "grantModuleRole(bytes32,address)": "6c67e807",
    "grantModuleRoleBatched(bytes32,address[])": "272bbd44",
    "identifier()": "7998a1c4",
    "init(address,(uint256,uint256,uint256,string,string),bytes)": "b66a870c",
    "isMigrationReady()": "c3c987cc",
    "isTrustedForwarder(address)": "572b6c05",
    "orchestrator()": "b74795d9",
    "outstandingTokenAmount(address)": "2e84db5f",
    "paymentOrders()": "75fa0b76",
    "revokeModuleRole(bytes32,address)": "bcb61920",
    "revokeModuleRoleBatched(bytes32,address[])": "24e30270",
    "supportsInterface(bytes4)": "01ffc9a7",
    "title()": "4a79d50c",
    "trustedForwarder()": "7da0a877",
    "url()": "5600f04f",
    "version()": "54fd4d50"
  },
  "id": 130
}