{
  "abi": [
    {
      "type": "function",
      "name": "amountPaid",
      "inputs": [
        {
          "name": "token",
          "type": "address",
          "internalType": "address"
        },
        {
          "name": "amount",
          "type": "uint256",
          "internalType": "uint256"
        }
      ],
      "outputs": [],
      "stateMutability": "nonpayable"
    },
    {
      "type": "function",
      "name": "balanceOf",
      "inputs": [
        {
          "name": "user",
          "type": "address",
          "internalType": "address"
        }
      ],
      "outputs": [
        {
          "name": "",
          "type": "uint256",
          "internalType": "uint256"
        }
      ],
      "stateMutability": "view"
    },
    {
      "type": "function",
      "name": "claimRewards",
      "inputs": [],
      "outputs": [],
      "stateMutability": "nonpayable"
    },
    {
      "type": "function",
      "name": "collectPaymentOrders",
      "inputs": [],
      "outputs": [
        {
          "name": "",
          "type": "tuple[]",
          "internalType": "struct IERC20PaymentClientBase_v1.PaymentOrder[]",
          "components": [
            {
              "name": "recipient",
              "type": "address",
              "internalType": "address"
            },
            {
              "name": "paymentToken",
              "type": "address",
              "internalType": "address"
            },
            {
              "name": "amount",
              "type": "uint256",
              "internalType": "uint256"
            },
            {
              "name": "start",
              "type": "uint256",
              "internalType": "uint256"
            },
            {
              "name": "cliff",
              "type": "uint256",
              "internalType": "uint256"
            },
            {
              "name": "end",
              "type": "uint256",
              "internalType": "uint256"
            }
          ]
        },
        {
          "name": "",
          "type": "address[]",
          "internalType": "address[]"
        },
        {
          "name": "",
          "type": "uint256[]",
          "internalType": "uint256[]"
        }
      ],
      "stateMutability": "nonpayable"
    },
    {
      "type": "function",
      "name": "earned",
      "inputs": [
        {
          "name": "user",
          "type": "address",
          "internalType": "address"
        }
      ],
      "outputs": [
        {
          "name": "",
          "type": "uint256",
          "internalType": "uint256"
        }
      ],
      "stateMutability": "view"
    },
    {
      "type": "function",
      "name": "estimateReward",
      "inputs": [
        {
          "name": "amount",
          "type": "uint256",
          "internalType": "uint256"
        },
        {
          "name": "duration",
          "type": "uint256",
          "internalType": "uint256"
        }
      ],
      "outputs": [
        {
          "name": "",
          "type": "uint256",
          "internalType": "uint256"
        }
      ],
      "stateMutability": "view"
    },
    {
      "type": "function",
      "name": "grantModuleRole",
      "inputs": [
        {
          "name": "role",
          "type": "bytes32",
          "internalType": "bytes32"
        },
        {
          "name": "target",
          "type": "address",
          "internalType": "address"
        }
      ],
      "outputs": [],
      "stateMutability": "nonpayable"
    },
    {
      "type": "function",
      "name": "grantModuleRoleBatched",
      "inputs": [
        {
          "name": "role",
          "type": "bytes32",
          "internalType": "bytes32"
        },
        {
          "name": "targets",
          "type": "address[]",
          "internalType": "address[]"
        }
      ],
      "outputs": [],
      "stateMutability": "nonpayable"
    },
    {
      "type": "function",
      "name": "identifier",
      "inputs": [],
      "outputs": [
        {
          "name": "",
          "type": "bytes32",
          "internalType": "bytes32"
        }
      ],
      "stateMutability": "view"
    },
    {
      "type": "function",
      "name": "init",
      "inputs": [
        {
          "name": "orchestrator_",
          "type": "address",
          "internalType": "contract IOrchestrator_v1"
        },
        {
          "name": "metadata",
          "type": "tuple",
          "internalType": "struct IModule_v1.Metadata",
          "components": [
            {
              "name": "majorVersion",
              "type": "uint256",
              "internalType": "uint256"
            },
            {
              "name": "minorVersion",
              "type": "uint256",
              "internalType": "uint256"
            },
            {
              "name": "url",
              "type": "string",
              "internalType": "string"
            },
            {
              "name": "title",
              "type": "string",
              "internalType": "string"
            }
          ]
        },
        {
          "name": "configData",
          "type": "bytes",
          "internalType": "bytes"
        }
      ],
      "outputs": [],
      "stateMutability": "nonpayable"
    },
    {
      "type": "function",
      "name": "isTrustedForwarder",
      "inputs": [
        {
          "name": "forwarder",
          "type": "address",
          "internalType": "address"
        }
      ],
      "outputs": [
        {
          "name": "",
          "type": "bool",
          "internalType": "bool"
        }
      ],
      "stateMutability": "view"
    },
    {
      "type": "function",
      "name": "orchestrator",
      "inputs": [],
      "outputs": [
        {
          "name": "",
          "type": "address",
          "internalType": "contract IOrchestrator_v1"
        }
      ],
      "stateMutability": "view"
    },
    {
      "type": "function",
      "name": "outstandingTokenAmount",
      "inputs": [
        {
          "name": "_token",
          "type": "address",
          "internalType": "address"
        }
      ],
      "outputs": [
        {
          "name": "",
          "type": "uint256",
          "internalType": "uint256"
        }
      ],
      "stateMutability": "view"
    },
    {
      "type": "function",
      "name": "paymentOrders",
      "inputs": [],
      "outputs": [
        {
          "name": "",
          "type": "tuple[]",
          "internalType": "struct IERC20PaymentClientBase_v1.PaymentOrder[]",
          "components": [
            {
              "name": "recipient",
              "type": "address",
              "internalType": "address"
            },
            {
              "name": "paymentToken",
              "type": "address",
              "internalType": "address"
            },
            {
              "name": "amount",
              "type": "uint256",
              "internalType": "uint256"
            },
            {
              "name": "start",
              "type": "uint256",
              "internalType": "uint256"
            },
            {
              "name": "cliff",
              "type": "uint256",
              "internalType": "uint256"
            },
            {
              "name": "end",
              "type": "uint256",
              "internalType": "uint256"
            }
          ]
        }
      ],
      "stateMutability": "view"
    },
    {
      "type": "function",
      "name": "revokeModuleRole",
      "inputs": [
        {
          "name": "role",
          "type": "bytes32",
          "internalType": "bytes32"
        },
        {
          "name": "target",
          "type": "address",
          "internalType": "address"
        }
      ],
      "outputs": [],
      "stateMutability": "nonpayable"
    },
    {
      "type": "function",
      "name": "revokeModuleRoleBatched",
      "inputs": [
        {
          "name": "role",
          "type": "bytes32",
          "internalType": "bytes32"
        },
        {
          "name": "targets",
          "type": "address[]",
          "internalType": "address[]"
        }
      ],
      "outputs": [],
      "stateMutability": "nonpayable"
    },
    {
      "type": "function",
      "name": "rewardRate",
      "inputs": [],
      "outputs": [
        {
          "name": "",
          "type": "uint256",
          "internalType": "uint256"
        }
      ],
      "stateMutability": "view"
    },
    {
      "type": "function",
      "name": "rewardsEnd",
      "inputs": [],
      "outputs": [
        {
          "name": "",
          "type": "uint256",
          "internalType": "uint256"
        }
      ],
      "stateMutability": "view"
    },
    {
      "type": "function",
      "name": "setRewards",
      "inputs": [
        {
          "name": "amount",
          "type": "uint256",
          "internalType": "uint256"
        },
        {
          "name": "duration",
          "type": "uint256",
          "internalType": "uint256"
        }
      ],
      "outputs": [],
      "stateMutability": "nonpayable"
    },
    {
      "type": "function",
      "name": "stake",
      "inputs": [
        {
          "name": "amount",
          "type": "uint256",
          "internalType": "uint256"
        }
      ],
      "outputs": [],
      "stateMutability": "nonpayable"
    },
    {
      "type": "function",
      "name": "stakingToken",
      "inputs": [],
      "outputs": [
        {
          "name": "",
          "type": "address",
          "internalType": "address"
        }
      ],
      "stateMutability": "view"
    },
    {
      "type": "function",
      "name": "supportsInterface",
      "inputs": [
        {
          "name": "interfaceId",
          "type": "bytes4",
          "internalType": "bytes4"
        }
      ],
      "outputs": [
        {
          "name": "",
          "type": "bool",
          "internalType": "bool"
        }
      ],
      "stateMutability": "view"
    },
    {
      "type": "function",
      "name": "title",
      "inputs": [],
      "outputs": [
        {
          "name": "",
          "type": "string",
          "internalType": "string"
        }
      ],
      "stateMutability": "view"
    },
    {
      "type": "function",
      "name": "totalSupply",
      "inputs": [],
      "outputs": [
        {
          "name": "",
          "type": "uint256",
          "internalType": "uint256"
        }
      ],
      "stateMutability": "view"
    },
    {
      "type": "function",
      "name": "trustedForwarder",
      "inputs": [],
      "outputs": [
        {
          "name": "",
          "type": "address",
          "internalType": "address"
        }
      ],
      "stateMutability": "view"
    },
    {
      "type": "function",
      "name": "unstake",
      "inputs": [
        {
          "name": "amount",
          "type": "uint256",
          "internalType": "uint256"
        }
      ],
      "outputs": [],
      "stateMutability": "nonpayable"
    },
    {
      "type": "function",
      "name": "url",
      "inputs": [],
      "outputs": [
        {
          "name": "",
          "type": "string",
          "internalType": "string"
        }
      ],
      "stateMutability": "view"
    },
    {
      "type": "function",
      "name": "version",
      "inputs": [],
      "outputs": [
        {
          "name": "",
          "type": "uint256",
          "internalType": "uint256"
        },
        {
          "name": "",
          "type": "uint256",
          "internalType": "uint256"
        }
      ],
      "stateMutability": "view"
    },
    {
      "type": "event",
      "name": "Initialized",
      "inputs": [
        {
          "name": "version",
          "type": "uint64",
          "indexed": false,
          "internalType": "uint64"
        }
      ],
      "anonymous": false
    },
    {
      "type": "event",
      "name": "ModuleInitialized",
      "inputs": [
        {
          "name": "parentOrchestrator",
          "type": "address",
          "indexed": true,
          "internalType": "address"
        },
        {
          "name": "moduleTitle",
          "type": "string",
          "indexed": true,
          "internalType": "string"
        },
        {
          "name": "majorVersion",
          "type": "uint256",
          "indexed": false,
          "internalType": "uint256"
        },
        {
          "name": "minorVersion",
          "type": "uint256",
          "indexed": false,
          "internalType": "uint256"
        }
      ],
      "anonymous": false
    },
    {
      "type": "event",
      "name": "PaymentOrderAdded",
      "inputs": [
        {
          "name": "recipient",
          "type": "address",
          "indexed": true,
          "internalType": "address"
        },
        {
          "name": "token",
          "type": "address",
          "indexed": true,
          "internalType": "address"
        },
        {
          "name": "amount",
          "type": "uint256",
          "indexed": false,
          "internalType": "uint256"
        }
      ],
      "anonymous": false
    },
    {
      "type": "event",
      "name": "RewardSet",
      "inputs": [
        {
          "name": "rewardAmount",
          "type": "uint256",
          "indexed": false,
          "internalType": "uint256"
        },
        {
          "name": "duration",
          "type": "uint256",
          "indexed": false,
          "internalType": "uint256"
        },
        {
          "name": "newRewardRate",
          "type": "uint256",
          "indexed": false,
          "internalType": "uint256"
        },
        {
          "name": "newRewardsEnd",
          "type": "uint256",
          "indexed": false,
          "internalType": "uint256"
        }
      ],
      "anonymous": false
    },
    {
      "type": "event",
      "name": "RewardsDistributed",
      "inputs": [
        {
          "name": "user",
          "type": "address",
          "indexed": true,
          "internalType": "address"
        },
        {
          "name": "amount",
          "type": "uint256",
          "indexed": false,
          "internalType": "uint256"
        }
      ],
      "anonymous": false
    },
    {
      "type": "event",
      "name": "RewardsDurationUpdated",
      "inputs": [
        {
          "name": "newDuration",
          "type": "uint256",
          "indexed": false,
          "internalType": "uint256"
        }
      ],
      "anonymous": false
    },
    {
      "type": "event",
      "name": "Staked",
      "inputs": [
        {
          "name": "user",
          "type": "address",
          "indexed": true,
          "internalType": "address"
        },
        {
          "name": "amount",
          "type": "uint256",
          "indexed": false,
          "internalType": "uint256"
        }
      ],
      "anonymous": false
    },
    {
      "type": "event",
      "name": "Unstaked",
      "inputs": [
        {
          "name": "user",
          "type": "address",
          "indexed": true,
          "internalType": "address"
        },
        {
          "name": "amount",
          "type": "uint256",
          "indexed": false,
          "internalType": "uint256"
        }
      ],
      "anonymous": false
    },
    {
      "type": "error",
      "name": "AddressEmptyCode",
      "inputs": [
        {
          "name": "target",
          "type": "address",
          "internalType": "address"
        }
      ]
    },
    {
      "type": "error",
      "name": "AddressInsufficientBalance",
      "inputs": [
        {
          "name": "account",
          "type": "address",
          "internalType": "address"
        }
      ]
    },
    {
      "type": "error",
      "name": "FailedInnerCall",
      "inputs": []
    },
    {
      "type": "error",
      "name": "InvalidInitialization",
      "inputs": []
    },
    {
      "type": "error",
      "name": "Module_OrchestratorCallbackFailed",
      "inputs": [
        {
          "name": "funcSig",
          "type": "string",
          "internalType": "string"
        }
      ]
    },
    {
      "type": "error",
      "name": "Module__CallerNotAuthorized",
      "inputs": [
        {
          "name": "role",
          "type": "bytes32",
          "internalType": "bytes32"
        },
        {
          "name": "caller",
          "type": "address",
          "internalType": "address"
        }
      ]
    },
    {
      "type": "error",
      "name": "Module__ERC20PaymentClientBase__ArrayLengthMismatch",
      "inputs": []
    },
    {
      "type": "error",
      "name": "Module__ERC20PaymentClientBase__CallerNotAuthorized",
      "inputs": []
    },
    {
      "type": "error",
      "name": "Module__ERC20PaymentClientBase__InsufficientFunds",
      "inputs": [
        {
          "name": "token",
          "type": "address",
          "internalType": "address"
        }
      ]
    },
    {
      "type": "error",
      "name": "Module__ERC20PaymentClientBase__InvalidAmount",
      "inputs": []
    },
    {
      "type": "error",
      "name": "Module__ERC20PaymentClientBase__InvalidRecipient",
      "inputs": []
    },
    {
      "type": "error",
      "name": "Module__ERC20PaymentClientBase__InvalidToken",
      "inputs": []
    },
    {
      "type": "error",
      "name": "Module__ERC20PaymentClientBase__Invalidend",
      "inputs": []
    },
    {
      "type": "error",
      "name": "Module__ERC20PaymentClientBase__TokenTransferFailed",
      "inputs": []
    },
    {
      "type": "error",
      "name": "Module__InvalidMetadata",
      "inputs": []
    },
    {
      "type": "error",
      "name": "Module__InvalidOrchestratorAddress",
      "inputs": []
    },
    {
      "type": "error",
      "name": "Module__LM_PC_Staking_v1__InvalidDuration",
      "inputs": []
    },
    {
      "type": "error",
      "name": "Module__LM_PC_Staking_v1__InvalidRewardRate",
      "inputs": []
    },
    {
      "type": "error",
      "name": "Module__LM_PC_Staking_v1__InvalidStakingToken",
      "inputs": []
    },
    {
      "type": "error",
      "name": "Module__OnlyCallableByOrchestrator",
      "inputs": []
    },
    {
      "type": "error",
      "name": "NotInitializing",
      "inputs": []
    },
    {
      "type": "error",
      "name": "ReentrancyGuardReentrantCall",
      "inputs": []
    },
    {
      "type": "error",
      "name": "SafeERC20FailedOperation",
      "inputs": [
        {
          "name": "token",
          "type": "address",
          "internalType": "address"
        }
      ]
    }
  ],
  "bytecode": {
    "object": "0x60a06040523480156200001157600080fd5b506000608052620000216200002c565b6001600755620000e0565b7ff0c57e16840df040f15088dc2f81fe391c3923bec73e23a9662efc9c229c6a00805468010000000000000000900460ff16156200007d5760405163f92ee8a960e01b815260040160405180910390fd5b80546001600160401b0390811614620000dd5780546001600160401b0319166001600160401b0390811782556040519081527fc7f505b2f371ae2175ee4913f4499e1f2633a7b5936321eed1cdaeb6115181d29060200160405180910390a15b50565b608051613857620000f9600039600050506138576000f3fe608060405234801561001057600080fd5b50600436106101c35760003560e01c80636c67e807116100f95780637e5f43ff11610097578063b33ec61811610071578063b33ec618146103bb578063b74795d9146103ce578063bcb61920146103df578063c0231ff6146103f257600080fd5b80637e5f43ff1461038c578063a694fc3a1461039f578063a6d14d69146103b257600080fd5b806375fa0b76116100d357806375fa0b761461035e5780637998a1c4146103735780637b0a47ee1461037b5780637da0a8771461038457600080fd5b80636c67e807146102f757806370a082311461030a57806372f702f31461033357600080fd5b8063372500ab1161016657806354fd4d501161014057806354fd4d50146102ae5780635600f04f146102c9578063572b6c05146102d1578063654e51e7146102e457600080fd5b8063372500ab1461027e57806342dfe958146102865780634a79d50c1461029957600080fd5b806324e30270116101a257806324e302701461021a578063272bbd441461022f5780632e17de78146102425780632e84db5f1461025557600080fd5b80628cc262146101c857806301ffc9a7146101ee57806318160ddd14610211575b600080fd5b6101db6101d6366004612f4e565b610409565b6040519081526020015b60405180910390f35b6102016101fc366004612f6b565b610422565b60405190151581526020016101e5565b6101db60095481565b61022d610228366004612f95565b610460565b005b61022d61023d366004612f95565b610618565b61022d610250366004613014565b610707565b6101db610263366004612f4e565b6001600160a01b031660009081526006602052604090205490565b61022d610804565b61022d61029436600461311b565b610837565b6102a16109b0565b6040516101e59190613247565b600154600254604080519283526020830191909152016101e5565b6102a1610a45565b6102016102df366004612f4e565b610a57565b61022d6102f236600461325a565b610adf565b61022d61030536600461327c565b610af5565b6101db610318366004612f4e565b6001600160a01b03166000908152600e602052604090205490565b600854610346906001600160a01b031681565b6040516001600160a01b0390911681526020016101e5565b610366610c37565b6040516101e59190613328565b6101db610cda565b6101db600a5481565b610346610e2a565b6101db61039a36600461325a565b610ea2565b61022d6103ad366004613014565b610f77565b6101db600b5481565b61022d6103c936600461333b565b610fc3565b6000546001600160a01b0316610346565b61022d6103ed36600461327c565b61103a565b6103fa61114a565b6040516101e593929190613367565b600061041c82610417611622565b611683565b92915050565b60006001600160e01b031982167f548475a000000000000000000000000000000000000000000000000000000000148061041c575061041c826116eb565b6000546040805163d09edf3160e01b8152905161053d926001600160a01b03169163d09edf319160048083019260209291908290030181865afa1580156104ab573d6000803e3d6000fd5b505050506040513d601f19601f820116820180604052508101906104cf91906133ff565b6001600160a01b03166355ff58d46040518163ffffffff1660e01b8152600401602060405180830381865afa15801561050c573d6000803e3d6000fd5b505050506040513d601f19601f82011682018060405250810190610530919061341c565b610538611729565b61177b565b60008054906101000a90046001600160a01b03166001600160a01b031663d09edf316040518163ffffffff1660e01b8152600401602060405180830381865afa15801561058e573d6000803e3d6000fd5b505050506040513d601f19601f820116820180604052508101906105b291906133ff565b6001600160a01b0316637d540a648484846040518463ffffffff1660e01b81526004016105e193929190613435565b600060405180830381600087803b1580156105fb57600080fd5b505af115801561060f573d6000803e3d6000fd5b50505050505050565b6000546040805163d09edf3160e01b81529051610663926001600160a01b03169163d09edf319160048083019260209291908290030181865afa1580156104ab573d6000803e3d6000fd5b60008054906101000a90046001600160a01b03166001600160a01b031663d09edf316040518163ffffffff1660e01b8152600401602060405180830381865afa1580156106b4573d6000803e3d6000fd5b505050506040513d601f19601f820116820180604052508101906106d891906133ff565b6001600160a01b031663648154538484846040518463ffffffff1660e01b81526004016105e193929190613435565b61070f6118c9565b806107198161190c565b6000610723611729565b905061072e81611946565b6001600160a01b0381166000908152600e6020526040812080548592906107569084906134a3565b92505081905550826009600082825461076f91906134a3565b909155505060085461078b906001600160a01b031682856119a5565b6001600160a01b038116600090815260106020526040902054156107b2576107b281611a1e565b806001600160a01b03167f0f5bb82176feb1b5e747e28471aa92156a04d9f3ab9f45f28e2d704232b93f75846040516107ed91815260200190565b60405180910390a250506108016001600755565b50565b61080c6118c9565b6000610816611729565b905061082181611946565b61082a81611a1e565b506108356001600755565b565b7ff0c57e16840df040f15088dc2f81fe391c3923bec73e23a9662efc9c229c6a00805468010000000000000000810460ff16159067ffffffffffffffff166000811580156108825750825b905060008267ffffffffffffffff16600114801561089f5750303b155b9050811580156108ad575080155b156108e4576040517ff92ee8a900000000000000000000000000000000000000000000000000000000815260040160405180910390fd5b84547fffffffffffffffffffffffffffffffffffffffffffffffff0000000000000000166001178555831561092f57845468ff00000000000000001916680100000000000000001785555b6109398888611c8f565b60008680602001905181019061094f91906133ff565b905061095a81611de0565b5083156109a657845468ff000000000000000019168555604051600181527fc7f505b2f371ae2175ee4913f4499e1f2633a7b5936321eed1cdaeb6115181d29060200160405180910390a15b5050505050505050565b6060600160030180546109c2906134b6565b80601f01602080910402602001604051908101604052809291908181526020018280546109ee906134b6565b8015610a3b5780601f10610a1057610100808354040283529160200191610a3b565b820191906000526020600020905b815481529060010190602001808311610a1e57829003601f168201915b5050505050905090565b6060600160020180546109c2906134b6565b600080546040517f572b6c050000000000000000000000000000000000000000000000000000000081526001600160a01b0384811660048301529091169063572b6c0590602401602060405180830381865afa158015610abb573d6000803e3d6000fd5b505050506040513d601f19601f8201168201806040525081019061041c9190613505565b610ae7611df1565b610af182826120a0565b5050565b6000546040805163d09edf3160e01b81529051610b40926001600160a01b03169163d09edf319160048083019260209291908290030181865afa1580156104ab573d6000803e3d6000fd5b60008054906101000a90046001600160a01b03166001600160a01b031663d09edf316040518163ffffffff1660e01b8152600401602060405180830381865afa158015610b91573d6000803e3d6000fd5b505050506040513d601f19601f82011682018060405250810190610bb591906133ff565b6040517fe1788154000000000000000000000000000000000000000000000000000000008152600481018490526001600160a01b038381166024830152919091169063e1788154906044015b600060405180830381600087803b158015610c1b57600080fd5b505af1158015610c2f573d6000803e3d6000fd5b505050505050565b60606005805480602002602001604051908101604052809291908181526020016000905b82821015610cd15760008481526020908190206040805160c0810182526006860290920180546001600160a01b0390811684526001808301549091168486015260028201549284019290925260038101546060840152600481015460808401526005015460a08301529083529092019101610c5b565b50505050905090565b60408051608081018252600180548252600254602083015260038054600094610e2594939290840191610d0c906134b6565b80601f0160208091040260200160405190810160405280929190818152602001828054610d38906134b6565b8015610d855780601f10610d5a57610100808354040283529160200191610d85565b820191906000526020600020905b815481529060010190602001808311610d6857829003601f168201915b50505050508152602001600382018054610d9e906134b6565b80601f0160208091040260200160405190810160405280929190818152602001828054610dca906134b6565b8015610e175780601f10610dec57610100808354040283529160200191610e17565b820191906000526020600020905b815481529060010190602001808311610dfa57829003601f168201915b5050505050815250506121e5565b905090565b60008060009054906101000a90046001600160a01b03166001600160a01b0316637da0a8776040518163ffffffff1660e01b8152600401602060405180830381865afa158015610e7e573d6000803e3d6000fd5b505050506040513d601f19601f82011682018060405250810190610e2591906133ff565b600082610eae8161190c565b8280600003610ee9576040517fe05ce79000000000000000000000000000000000000000000000000000000000815260040160405180910390fd5b600b54421115610efc5760009250610f6f565b600b54610f098542613520565b1115610f205742600b54610f1d91906134a3565b93505b600954600003610f4857600a54610f378587613533565b610f419190613533565b9250610f6f565b600954600a54610f588688613533565b610f629190613533565b610f6c919061354a565b92505b505092915050565b610f7f6118c9565b80610f898161190c565b6000610f93611729565b9050610f9f8184612225565b600854610fb7906001600160a01b03168230866122d6565b50506108016001600755565b610fd3610fce611729565b612315565b611009576040517fe4597a6b00000000000000000000000000000000000000000000000000000000815260040160405180910390fd5b6001600160a01b038216600090815260066020526040812080548392906110319084906134a3565b90915550505050565b6000546040805163d09edf3160e01b81529051611085926001600160a01b03169163d09edf319160048083019260209291908290030181865afa1580156104ab573d6000803e3d6000fd5b60008054906101000a90046001600160a01b03166001600160a01b031663d09edf316040518163ffffffff1660e01b8152600401602060405180830381865afa1580156110d6573d6000803e3d6000fd5b505050506040513d601f19601f820116820180604052508101906110fa91906133ff565b6040517fba66f9fc000000000000000000000000000000000000000000000000000000008152600481018490526001600160a01b038381166024830152919091169063ba66f9fc90604401610c01565b606080606061115a610fce611729565b611190576040517fe4597a6b00000000000000000000000000000000000000000000000000000000815260040160405180910390fd5b6005546000808267ffffffffffffffff8111156111af576111af61302d565b6040519080825280602002602001820160405280156111d8578160200160208202803683370190505b50905060008367ffffffffffffffff8111156111f6576111f661302d565b60405190808252806020026020018201604052801561121f578160200160208202803683370190505b50905060008467ffffffffffffffff81111561123d5761123d61302d565b6040519080825280602002602001820160405280156112b957816020015b6112a66040518060c0016040528060006001600160a01b0316815260200160006001600160a01b03168152602001600081526020016000815260200160008152602001600081525090565b81526020019060019003908161125b5790505b50905060005b8581101561149357600581815481106112da576112da61356c565b60009182526020918290206040805160c081018252600690930290910180546001600160a01b03908116845260018201541693830193909352600283015490820152600382015460608201526004820154608082015260059091015460a0820152825183908390811061134f5761134f61356c565b60200260200101819052506000805b868110156113c6578383815181106113785761137861356c565b6020026020010151602001516001600160a01b031686828151811061139f5761139f61356c565b60200260200101516001600160a01b0316036113be57600191506113c6565b60010161135e565b508061148a578282815181106113de576113de61356c565b6020026020010151602001518587815181106113fc576113fc61356c565b60200260200101906001600160a01b031690816001600160a01b031681525050600660008484815181106114325761143261356c565b6020026020010151602001516001600160a01b03166001600160a01b03168152602001908152602001600020548487815181106114715761147161356c565b60209081029190910101528561148681613582565b9650505b506001016112bf565b506114a060056000612ec4565b60008467ffffffffffffffff8111156114bb576114bb61302d565b6040519080825280602002602001820160405280156114e4578160200160208202803683370190505b50905060008567ffffffffffffffff8111156115025761150261302d565b60405190808252806020026020018201604052801561152b578160200160208202803683370190505b50905060005b868110156116115785818151811061154b5761154b61356c565b60200260200101518382815181106115655761156561356c565b60200260200101906001600160a01b031690816001600160a01b0316815250508481815181106115975761159761356c565b60200260200101518282815181106115b1576115b161356c565b6020026020010181815250506115e76115c8611729565b8483815181106115da576115da61356c565b60200260200101516123ae565b6116098382815181106115fc576115fc61356c565b60200260200101516123d3565b600101611531565b509199909850909650945050505050565b60006009546000036116355750600c5490565b600c54600954600a54600d54611649612749565b61165391906134a3565b61165d9190613533565b61166f90670de0b6b3a7640000613533565b611679919061354a565b610e259190613520565b6001600160a01b038216600090815260106020908152604080832054600e835281842054600f909352908320549091670de0b6b3a7640000916116c690866134a3565b6116d09190613533565b6116da919061354a565b6116e49190613520565b9392505050565b60006001600160e01b031982167f286309c700000000000000000000000000000000000000000000000000000000148061041c575061041c82612761565b600036601461173733610a57565b80156117435750808210155b156117735760003661175583856134a3565b61176092829061359c565b611769916135c6565b60601c9250505090565b339250505090565b60008054906101000a90046001600160a01b03166001600160a01b031663d09edf316040518163ffffffff1660e01b8152600401602060405180830381865afa1580156117cc573d6000803e3d6000fd5b505050506040513d601f19601f820116820180604052508101906117f091906133ff565b6040517f91d14854000000000000000000000000000000000000000000000000000000008152600481018490526001600160a01b03838116602483015291909116906391d1485490604401602060405180830381865afa158015611858573d6000803e3d6000fd5b505050506040513d601f19601f8201168201806040525081019061187c9190613505565b610af1576040517f42abbb77000000000000000000000000000000000000000000000000000000008152600481018390526001600160a01b03821660248201526044015b60405180910390fd5b600260075403611905576040517f3ee5aeb500000000000000000000000000000000000000000000000000000000815260040160405180910390fd5b6002600755565b80600003610801576040517fa39a350e00000000000000000000000000000000000000000000000000000000815260040160405180910390fd5b61194e611622565b600c55611959612749565b600d556001600160a01b038116156108015761197781600c54611683565b6001600160a01b038216600090815260106020908152604080832093909355600c54600f9091529190205550565b6040516001600160a01b03838116602483015260448201839052611a1991859182169063a9059cbb906064015b604051602081830303815290604052915060e01b6020820180517bffffffffffffffffffffffffffffffffffffffffffffffffffffffff83818316178352505050506127c8565b505050565b6000611a2c82600c54611683565b6001600160a01b038316600081815260106020908152604080832092909255815160c08101909252918152919250611b5f91908101611a736000546001600160a01b031690565b6001600160a01b03166304baed9e6040518163ffffffff1660e01b8152600401602060405180830381865afa158015611ab0573d6000803e3d6000fd5b505050506040513d601f19601f82011682018060405250810190611ad491906133ff565b6001600160a01b031663fc0c546a6040518163ffffffff1660e01b8152600401602060405180830381865afa158015611b11573d6000803e3d6000fd5b505050506040513d601f19601f82011682018060405250810190611b3591906133ff565b6001600160a01b031681526020018381526020014281526020016000815260200142815250612844565b60008054906101000a90046001600160a01b03166001600160a01b031663f1c6bdf86040518163ffffffff1660e01b8152600401602060405180830381865afa158015611bb0573d6000803e3d6000fd5b505050506040513d601f19601f82011682018060405250810190611bd491906133ff565b6040517fe151fc610000000000000000000000000000000000000000000000000000000081523060048201526001600160a01b03919091169063e151fc6190602401600060405180830381600087803b158015611c3057600080fd5b505af1158015611c44573d6000803e3d6000fd5b50505050816001600160a01b03167fdf29796aad820e4bb192f3a8d631b76519bcd2cbe77cc85af20e9df53cece08682604051611c8391815260200190565b60405180910390a25050565b611c97612a06565b6001600160a01b038216611cd7576040517f7280679300000000000000000000000000000000000000000000000000000000815260040160405180910390fd5b6000805473ffffffffffffffffffffffffffffffffffffffff19166001600160a01b038416179055611d0881612a6d565b611d3e576040517f7511254100000000000000000000000000000000000000000000000000000000815260040160405180910390fd5b8051600190815560208201516002556040820151829190600390611d629082613654565b5060608201516003820190611d779082613654565b5050506060810151604051611d8c9190613714565b604080519182900382208351602080860151918552840152916001600160a01b038516917feb175f148a71d29a5f7bf5439182fcd81e6ea9cfc8a11b54ab0f705fa98fa8ca91015b60405180910390a35050565b611de8612a06565b61080181612abf565b60008060009054906101000a90046001600160a01b03166001600160a01b031663d09edf316040518163ffffffff1660e01b8152600401602060405180830381865afa158015611e45573d6000803e3d6000fd5b505050506040513d601f19601f82011682018060405250810190611e6991906133ff565b90506000816001600160a01b03166355ff58d46040518163ffffffff1660e01b8152600401602060405180830381865afa158015611eab573d6000803e3d6000fd5b505050506040513d601f19601f82011682018060405250810190611ecf919061341c565b90506000826001600160a01b031663328c4c306040518163ffffffff1660e01b8152600401602060405180830381865afa158015611f11573d6000803e3d6000fd5b505050506040513d601f19601f82011682018060405250810190611f35919061341c565b9050826001600160a01b03166391d1485483611f4f611729565b6040516001600160e01b031960e085901b16815260048101929092526001600160a01b03166024820152604401602060405180830381865afa158015611f99573d6000803e3d6000fd5b505050506040513d601f19601f82011682018060405250810190611fbd9190613505565b806120495750826001600160a01b03166391d1485482611fdb611729565b6040516001600160e01b031960e085901b16815260048101929092526001600160a01b03166024820152604401602060405180830381865afa158015612025573d6000803e3d6000fd5b505050506040513d601f19601f820116820180604052508101906120499190613505565b1561205357505050565b8161205c611729565b6040517f42abbb7700000000000000000000000000000000000000000000000000000000815260048101929092526001600160a01b031660248201526044016118c0565b816120aa8161190c565b81806000036120e5576040517fe05ce79000000000000000000000000000000000000000000000000000000000815260040160405180910390fd5b6120ef6000611946565b600b54421061210a57612102838561354a565b600a55612143565b6000600a5442600b5461211d91906134a3565b6121279190613533565b9050836121348287613520565b61213e919061354a565b600a55505b600a5460000361217f576040517f76e6bcec00000000000000000000000000000000000000000000000000000000815260040160405180910390fd5b6121898342613520565b600b81905542600d55600a5460408051878152602081018790529081019190915260608101919091527fe6ff9e5909ab32d770b5c8e779b77275ca8dda9d96cfb24d0287d80715dd02969060800160405180910390a150505050565b600081600001518260400151836060015160405160200161220893929190613730565b604051602081830303815290604052805190602001209050919050565b61222e82611946565b6001600160a01b038216600090815260106020526040902054156122555761225582611a1e565b6001600160a01b0382166000908152600e60205260408120805483929061227d908490613520565b9250508190555080600960008282546122969190613520565b90915550506040518181526001600160a01b038316907f9e71bc8eea02a63969f509818f2dafb9254532904319f9dbda79b67bd34a5f3d90602001611c83565b6040516001600160a01b03848116602483015283811660448301526064820183905261230f9186918216906323b872dd906084016119d2565b50505050565b60008054604080517ff1c6bdf800000000000000000000000000000000000000000000000000000000815290516001600160a01b0380861693169163f1c6bdf89160048083019260209291908290030181865afa15801561237a573d6000803e3d6000fd5b505050506040513d601f19601f8201168201806040525081019061239e91906133ff565b6001600160a01b03161492915050565b6001600160a01b038116600081815260066020526040902054610af191908490612b2e565b6001600160a01b0381166000818152600660205260408082205490517f70a082310000000000000000000000000000000000000000000000000000000081523060048201529092906370a0823190602401602060405180830381865afa158015612441573d6000803e3d6000fd5b505050506040513d601f19601f82011682018060405250810190612465919061341c565b905081811015611a195760008054906101000a90046001600160a01b03166001600160a01b03166304baed9e6040518163ffffffff1660e01b8152600401602060405180830381865afa1580156124c0573d6000803e3d6000fd5b505050506040513d601f19601f820116820180604052508101906124e491906133ff565b6001600160a01b031663fc0c546a6040518163ffffffff1660e01b8152600401602060405180830381865afa158015612521573d6000803e3d6000fd5b505050506040513d601f19601f8201168201806040525081019061254591906133ff565b6001600160a01b0316836001600160a01b03160361270c5760008054604080517f04baed9e00000000000000000000000000000000000000000000000000000000815290516001600160a01b039092169163685dc6b19183916304baed9e916004808201926020929091908290030181865afa1580156125c9573d6000803e3d6000fd5b505050506040513d601f19601f820116820180604052508101906125ed91906133ff565b306125f886886134a3565b6040516001600160a01b039092166024830152604482015260640160408051601f198184030181529181526020820180517bffffffffffffffffffffffffffffffffffffffffffffffffffffffff167f759cc4b500000000000000000000000000000000000000000000000000000000179052516001600160e01b031960e085901b16815261268b92919060040161376d565b6000604051808303816000875af11580156126aa573d6000803e3d6000fd5b505050506040513d6000823e601f3d908101601f191682016040526126d29190810190613797565b5090508061230f576040517f1a299f4400000000000000000000000000000000000000000000000000000000815260040160405180910390fd5b6040517f8ca235960000000000000000000000000000000000000000000000000000000081526001600160a01b03841660048201526024016118c0565b600042600b54111561275a57504290565b50600b5490565b60006001600160e01b031982167f179dfb4500000000000000000000000000000000000000000000000000000000148061041c57507f01ffc9a7000000000000000000000000000000000000000000000000000000006001600160e01b031983161461041c565b60006127dd6001600160a01b03841683612bec565b905080516000141580156128025750808060200190518101906128009190613505565b155b15611a19576040517f5274afe70000000000000000000000000000000000000000000000000000000081526001600160a01b03841660048201526024016118c0565b8061284e81612bfa565b81604001516006600084602001516001600160a01b03166001600160a01b03168152602001908152602001600020600082825461288b9190613520565b909155505060058054600181018255600091909152825160069091027f036b6384b5eca791c62761152d0c79bb0604c104a5fb6f4eb0703f3154bb3db0810180546001600160a01b0393841673ffffffffffffffffffffffffffffffffffffffff19918216811790925560208601517f036b6384b5eca791c62761152d0c79bb0604c104a5fb6f4eb0703f3154bb3db18401805491909516911681179093556040808601517f036b6384b5eca791c62761152d0c79bb0604c104a5fb6f4eb0703f3154bb3db2840181905560608701517f036b6384b5eca791c62761152d0c79bb0604c104a5fb6f4eb0703f3154bb3db385015560808701517f036b6384b5eca791c62761152d0c79bb0604c104a5fb6f4eb0703f3154bb3db485015560a08701517f036b6384b5eca791c62761152d0c79bb0604c104a5fb6f4eb0703f3154bb3db5909401939093555190917f21b8b94494ef1aff6ce0f5f3741800bdb27204fd430c1280b54d4cc653ae6f3a91611dd491815260200190565b7ff0c57e16840df040f15088dc2f81fe391c3923bec73e23a9662efc9c229c6a005468010000000000000000900460ff16610835576040517fd7e6bcf800000000000000000000000000000000000000000000000000000000815260040160405180910390fd5b6000816040015151600003612a8457506000919050565b816060015151600003612a9957506000919050565b8151158015612aaa57506020820151155b15612ab757506000919050565b506001919050565b6001600160a01b038116612aff576040517fe183dff800000000000000000000000000000000000000000000000000000000815260040160405180910390fd5b6008805473ffffffffffffffffffffffffffffffffffffffff19166001600160a01b0392909216919091179055565b604080516001600160a01b038416602482015260448082018490528251808303909101815260649091019091526020810180517bffffffffffffffffffffffffffffffffffffffffffffffffffffffff167f095ea7b300000000000000000000000000000000000000000000000000000000179052612bad8482612c1f565b61230f576040516001600160a01b03848116602483015260006044830152612be291869182169063095ea7b3906064016119d2565b61230f84826127c8565b60606116e483836000612cc2565b8051612c0590612d78565b612c128160200151612dcd565b610801816040015161190c565b6000806000846001600160a01b031684604051612c3c9190613714565b6000604051808303816000865af19150503d8060008114612c79576040519150601f19603f3d011682016040523d82523d6000602084013e612c7e565b606091505b5091509150818015612ca8575080511580612ca8575080806020019051810190612ca89190613505565b8015610f6c5750505050506001600160a01b03163b151590565b606081471015612d00576040517fcd7860590000000000000000000000000000000000000000000000000000000081523060048201526024016118c0565b600080856001600160a01b03168486604051612d1c9190613714565b60006040518083038185875af1925050503d8060008114612d59576040519150601f19603f3d011682016040523d82523d6000602084013e612d5e565b606091505b5091509150612d6e868383612e0d565b9695505050505050565b6001600160a01b0381161580612d9657506001600160a01b03811630145b15610801576040517f0cef278700000000000000000000000000000000000000000000000000000000815260040160405180910390fd5b6001600160a01b038116610801576040517f9bfa9a6b00000000000000000000000000000000000000000000000000000000815260040160405180910390fd5b606082612e2257612e1d82612e82565b6116e4565b8151158015612e3957506001600160a01b0384163b155b15612e7b576040517f9996b3150000000000000000000000000000000000000000000000000000000081526001600160a01b03851660048201526024016118c0565b50806116e4565b805115612e925780518082602001fd5b6040517f1425ea4200000000000000000000000000000000000000000000000000000000815260040160405180910390fd5b508054600082556006029060005260206000209081019061080191905b80821115612f3557805473ffffffffffffffffffffffffffffffffffffffff199081168255600182018054909116905560006002820181905560038201819055600482018190556005820155600601612ee1565b5090565b6001600160a01b038116811461080157600080fd5b600060208284031215612f6057600080fd5b81356116e481612f39565b600060208284031215612f7d57600080fd5b81356001600160e01b0319811681146116e457600080fd5b600080600060408486031215612faa57600080fd5b83359250602084013567ffffffffffffffff80821115612fc957600080fd5b818601915086601f830112612fdd57600080fd5b813581811115612fec57600080fd5b8760208260051b850101111561300157600080fd5b6020830194508093505050509250925092565b60006020828403121561302657600080fd5b5035919050565b634e487b7160e01b600052604160045260246000fd5b6040516080810167ffffffffffffffff811182821017156130665761306661302d565b60405290565b604051601f8201601f1916810167ffffffffffffffff811182821017156130955761309561302d565b604052919050565b600067ffffffffffffffff8211156130b7576130b761302d565b50601f01601f191660200190565b600082601f8301126130d657600080fd5b81356130e96130e48261309d565b61306c565b8181528460208386010111156130fe57600080fd5b816020850160208301376000918101602001919091529392505050565b60008060006060848603121561313057600080fd5b833561313b81612f39565b9250602084013567ffffffffffffffff8082111561315857600080fd5b908501906080828803121561316c57600080fd5b613174613043565b823581526020830135602082015260408301358281111561319457600080fd5b6131a0898286016130c5565b6040830152506060830135828111156131b857600080fd5b6131c4898286016130c5565b606083015250935060408601359150808211156131e057600080fd5b506131ed868287016130c5565b9150509250925092565b60005b838110156132125781810151838201526020016131fa565b50506000910152565b600081518084526132338160208601602086016131f7565b601f01601f19169290920160200192915050565b6020815260006116e4602083018461321b565b6000806040838503121561326d57600080fd5b50508035926020909101359150565b6000806040838503121561328f57600080fd5b8235915060208301356132a181612f39565b809150509250929050565b60008151808452602080850194506020840160005b8381101561331d57815180516001600160a01b03908116895284820151168489015260408082015190890152606080820151908901526080808201519089015260a0908101519088015260c090960195908201906001016132c1565b509495945050505050565b6020815260006116e460208301846132ac565b6000806040838503121561334e57600080fd5b823561335981612f39565b946020939093013593505050565b60608152600061337a60608301866132ac565b82810360208481019190915285518083528682019282019060005b818110156133ba5784516001600160a01b031683529383019391830191600101613395565b50508481036040860152855180825290820192508186019060005b818110156133f1578251855293830193918301916001016133d5565b509298975050505050505050565b60006020828403121561341157600080fd5b81516116e481612f39565b60006020828403121561342e57600080fd5b5051919050565b83815260406020808301829052908201839052600090849060608401835b8681101561348157833561346681612f39565b6001600160a01b031682529282019290820190600101613453565b50979650505050505050565b634e487b7160e01b600052601160045260246000fd5b8181038181111561041c5761041c61348d565b600181811c908216806134ca57607f821691505b6020821081036134ea57634e487b7160e01b600052602260045260246000fd5b50919050565b8051801515811461350057600080fd5b919050565b60006020828403121561351757600080fd5b6116e4826134f0565b8082018082111561041c5761041c61348d565b808202811582820484141761041c5761041c61348d565b60008261356757634e487b7160e01b600052601260045260246000fd5b500490565b634e487b7160e01b600052603260045260246000fd5b600060001982036135955761359561348d565b5060010190565b600080858511156135ac57600080fd5b838611156135b957600080fd5b5050820193919092039150565b7fffffffffffffffffffffffffffffffffffffffff0000000000000000000000008135818116916014851015610f6f5760149490940360031b84901b1690921692915050565b601f821115611a19576000816000526020600020601f850160051c810160208610156136355750805b601f850160051c820191505b81811015610c2f57828155600101613641565b815167ffffffffffffffff81111561366e5761366e61302d565b6136828161367c84546134b6565b8461360c565b602080601f8311600181146136b7576000841561369f5750858301515b600019600386901b1c1916600185901b178555610c2f565b600085815260208120601f198616915b828110156136e6578886015182559484019460019091019084016136c7565b50858210156137045787850151600019600388901b60f8161c191681555b5050505050600190811b01905550565b600082516137268184602087016131f7565b9190910192915050565b838152600083516137488160208501602088016131f7565b808301905083516137608160208401602088016131f7565b0160200195945050505050565b6001600160a01b038316815260406020820152600061378f604083018461321b565b949350505050565b600080604083850312156137aa57600080fd5b6137b3836134f0565b9150602083015167ffffffffffffffff8111156137cf57600080fd5b8301601f810185136137e057600080fd5b80516137ee6130e48261309d565b81815286602083850101111561380357600080fd5b6138148260208301602086016131f7565b809350505050925092905056fea2646970667358221220c29957d99f49e16b7f71c1b24ecb141d507069271bc8a42d3f61b530278813c464736f6c63430008170033",
    "linkReferences": {}
  },
  "methodIdentifiers": {
    "amountPaid(address,uint256)": "b33ec618",
    "balanceOf(address)": "70a08231",
    "claimRewards()": "372500ab",
    "collectPaymentOrders()": "c0231ff6",
    "earned(address)": "008cc262",
    "estimateReward(uint256,uint256)": "7e5f43ff",
    "grantModuleRole(bytes32,address)": "6c67e807",
    "grantModuleRoleBatched(bytes32,address[])": "272bbd44",
    "identifier()": "7998a1c4",
    "init(address,(uint256,uint256,string,string),bytes)": "42dfe958",
    "isTrustedForwarder(address)": "572b6c05",
    "orchestrator()": "b74795d9",
    "outstandingTokenAmount(address)": "2e84db5f",
    "paymentOrders()": "75fa0b76",
    "revokeModuleRole(bytes32,address)": "bcb61920",
    "revokeModuleRoleBatched(bytes32,address[])": "24e30270",
    "rewardRate()": "7b0a47ee",
    "rewardsEnd()": "a6d14d69",
    "setRewards(uint256,uint256)": "654e51e7",
    "stake(uint256)": "a694fc3a",
    "stakingToken()": "72f702f3",
    "supportsInterface(bytes4)": "01ffc9a7",
    "title()": "4a79d50c",
    "totalSupply()": "18160ddd",
    "trustedForwarder()": "7da0a877",
    "unstake(uint256)": "2e17de78",
    "url()": "5600f04f",
    "version()": "54fd4d50"
  },
  "id": 148
}