{
  "abi": [
    {
      "type": "function",
      "name": "FLAG_CLIFF",
      "inputs": [],
      "outputs": [
        {
          "name": "",
          "type": "uint8",
          "internalType": "uint8"
        }
      ],
      "stateMutability": "view"
    },
    {
      "type": "function",
      "name": "FLAG_END",
      "inputs": [],
      "outputs": [
        {
          "name": "",
          "type": "uint8",
          "internalType": "uint8"
        }
      ],
      "stateMutability": "view"
    },
    {
      "type": "function",
      "name": "FLAG_START",
      "inputs": [],
      "outputs": [
        {
          "name": "",
          "type": "uint8",
          "internalType": "uint8"
        }
      ],
      "stateMutability": "view"
    },
    {
      "type": "function",
      "name": "PAYMENT_PUSHER_ROLE",
      "inputs": [],
      "outputs": [
        {
          "name": "",
          "type": "bytes32",
          "internalType": "bytes32"
        }
      ],
      "stateMutability": "view"
    },
    {
      "type": "function",
      "name": "amountPaid",
      "inputs": [
        {
          "name": "token_",
          "type": "address",
          "internalType": "address"
        },
        {
          "name": "amount_",
          "type": "uint256",
          "internalType": "uint256"
        }
      ],
      "outputs": [],
      "stateMutability": "nonpayable"
    },
    {
      "type": "function",
      "name": "collectPaymentOrders",
      "inputs": [],
      "outputs": [
        {
          "name": "paymentOrders_",
          "type": "tuple[]",
          "internalType": "struct IERC20PaymentClientBase_v2.PaymentOrder[]",
          "components": [
            {
              "name": "recipient",
              "type": "address",
              "internalType": "address"
            },
            {
              "name": "paymentToken",
              "type": "address",
              "internalType": "address"
            },
            {
              "name": "amount",
              "type": "uint256",
              "internalType": "uint256"
            },
            {
              "name": "originChainId",
              "type": "uint256",
              "internalType": "uint256"
            },
            {
              "name": "targetChainId",
              "type": "uint256",
              "internalType": "uint256"
            },
            {
              "name": "flags",
              "type": "bytes32",
              "internalType": "bytes32"
            },
            {
              "name": "data",
              "type": "bytes32[]",
              "internalType": "bytes32[]"
            }
          ]
        },
        {
          "name": "tokens_",
          "type": "address[]",
          "internalType": "address[]"
        },
        {
          "name": "totalAmounts_",
          "type": "uint256[]",
          "internalType": "uint256[]"
        }
      ],
      "stateMutability": "nonpayable"
    },
    {
      "type": "function",
      "name": "getFlagCount",
      "inputs": [],
      "outputs": [
        {
          "name": "flagCount_",
          "type": "uint8",
          "internalType": "uint8"
        }
      ],
      "stateMutability": "view"
    },
    {
      "type": "function",
      "name": "getFlags",
      "inputs": [],
      "outputs": [
        {
          "name": "flags_",
          "type": "bytes32",
          "internalType": "bytes32"
        }
      ],
      "stateMutability": "view"
    },
    {
      "type": "function",
      "name": "grantModuleRole",
      "inputs": [
        {
          "name": "role",
          "type": "bytes32",
          "internalType": "bytes32"
        },
        {
          "name": "target",
          "type": "address",
          "internalType": "address"
        }
      ],
      "outputs": [],
      "stateMutability": "nonpayable"
    },
    {
      "type": "function",
      "name": "grantModuleRoleBatched",
      "inputs": [
        {
          "name": "role",
          "type": "bytes32",
          "internalType": "bytes32"
        },
        {
          "name": "targets",
          "type": "address[]",
          "internalType": "address[]"
        }
      ],
      "outputs": [],
      "stateMutability": "nonpayable"
    },
    {
      "type": "function",
      "name": "identifier",
      "inputs": [],
      "outputs": [
        {
          "name": "",
          "type": "bytes32",
          "internalType": "bytes32"
        }
      ],
      "stateMutability": "view"
    },
    {
      "type": "function",
      "name": "init",
      "inputs": [
        {
          "name": "orchestrator_",
          "type": "address",
          "internalType": "contract IOrchestrator_v1"
        },
        {
          "name": "metadata",
          "type": "tuple",
          "internalType": "struct IModule_v1.Metadata",
          "components": [
            {
              "name": "majorVersion",
              "type": "uint256",
              "internalType": "uint256"
            },
            {
              "name": "minorVersion",
              "type": "uint256",
              "internalType": "uint256"
            },
            {
              "name": "patchVersion",
              "type": "uint256",
              "internalType": "uint256"
            },
            {
              "name": "url",
              "type": "string",
              "internalType": "string"
            },
            {
              "name": "title",
              "type": "string",
              "internalType": "string"
            }
          ]
        },
        {
          "name": "configData",
          "type": "bytes",
          "internalType": "bytes"
        }
      ],
      "outputs": [],
      "stateMutability": "nonpayable"
    },
    {
      "type": "function",
      "name": "isTrustedForwarder",
      "inputs": [
        {
          "name": "forwarder",
          "type": "address",
          "internalType": "address"
        }
      ],
      "outputs": [
        {
          "name": "",
          "type": "bool",
          "internalType": "bool"
        }
      ],
      "stateMutability": "view"
    },
    {
      "type": "function",
      "name": "orchestrator",
      "inputs": [],
      "outputs": [
        {
          "name": "",
          "type": "address",
          "internalType": "contract IOrchestrator_v1"
        }
      ],
      "stateMutability": "view"
    },
    {
      "type": "function",
      "name": "outstandingTokenAmount",
      "inputs": [
        {
          "name": "token_",
          "type": "address",
          "internalType": "address"
        }
      ],
      "outputs": [
        {
          "name": "total_",
          "type": "uint256",
          "internalType": "uint256"
        }
      ],
      "stateMutability": "view"
    },
    {
      "type": "function",
      "name": "paymentOrders",
      "inputs": [],
      "outputs": [
        {
          "name": "",
          "type": "tuple[]",
          "internalType": "struct IERC20PaymentClientBase_v2.PaymentOrder[]",
          "components": [
            {
              "name": "recipient",
              "type": "address",
              "internalType": "address"
            },
            {
              "name": "paymentToken",
              "type": "address",
              "internalType": "address"
            },
            {
              "name": "amount",
              "type": "uint256",
              "internalType": "uint256"
            },
            {
              "name": "originChainId",
              "type": "uint256",
              "internalType": "uint256"
            },
            {
              "name": "targetChainId",
              "type": "uint256",
              "internalType": "uint256"
            },
            {
              "name": "flags",
              "type": "bytes32",
              "internalType": "bytes32"
            },
            {
              "name": "data",
              "type": "bytes32[]",
              "internalType": "bytes32[]"
            }
          ]
        }
      ],
      "stateMutability": "view"
    },
    {
      "type": "function",
      "name": "pushPayment",
      "inputs": [
        {
          "name": "recipient",
          "type": "address",
          "internalType": "address"
        },
        {
          "name": "paymentToken",
          "type": "address",
          "internalType": "address"
        },
        {
          "name": "amount",
          "type": "uint256",
          "internalType": "uint256"
        },
        {
          "name": "start",
          "type": "uint256",
          "internalType": "uint256"
        },
        {
          "name": "cliff",
          "type": "uint256",
          "internalType": "uint256"
        },
        {
          "name": "end",
          "type": "uint256",
          "internalType": "uint256"
        }
      ],
      "outputs": [],
      "stateMutability": "nonpayable"
    },
    {
      "type": "function",
      "name": "pushPaymentBatched",
      "inputs": [
        {
          "name": "numOfOrders",
          "type": "uint8",
          "internalType": "uint8"
        },
        {
          "name": "recipients",
          "type": "address[]",
          "internalType": "address[]"
        },
        {
          "name": "paymentTokens",
          "type": "address[]",
          "internalType": "address[]"
        },
        {
          "name": "amounts",
          "type": "uint256[]",
          "internalType": "uint256[]"
        },
        {
          "name": "start",
          "type": "uint256",
          "internalType": "uint256"
        },
        {
          "name": "cliff",
          "type": "uint256",
          "internalType": "uint256"
        },
        {
          "name": "end",
          "type": "uint256",
          "internalType": "uint256"
        }
      ],
      "outputs": [],
      "stateMutability": "nonpayable"
    },
    {
      "type": "function",
      "name": "revokeModuleRole",
      "inputs": [
        {
          "name": "role",
          "type": "bytes32",
          "internalType": "bytes32"
        },
        {
          "name": "target",
          "type": "address",
          "internalType": "address"
        }
      ],
      "outputs": [],
      "stateMutability": "nonpayable"
    },
    {
      "type": "function",
      "name": "revokeModuleRoleBatched",
      "inputs": [
        {
          "name": "role",
          "type": "bytes32",
          "internalType": "bytes32"
        },
        {
          "name": "targets",
          "type": "address[]",
          "internalType": "address[]"
        }
      ],
      "outputs": [],
      "stateMutability": "nonpayable"
    },
    {
      "type": "function",
      "name": "supportsInterface",
      "inputs": [
        {
          "name": "interfaceId",
          "type": "bytes4",
          "internalType": "bytes4"
        }
      ],
      "outputs": [
        {
          "name": "",
          "type": "bool",
          "internalType": "bool"
        }
      ],
      "stateMutability": "view"
    },
    {
      "type": "function",
      "name": "title",
      "inputs": [],
      "outputs": [
        {
          "name": "",
          "type": "string",
          "internalType": "string"
        }
      ],
      "stateMutability": "view"
    },
    {
      "type": "function",
      "name": "trustedForwarder",
      "inputs": [],
      "outputs": [
        {
          "name": "",
          "type": "address",
          "internalType": "address"
        }
      ],
      "stateMutability": "view"
    },
    {
      "type": "function",
      "name": "url",
      "inputs": [],
      "outputs": [
        {
          "name": "",
          "type": "string",
          "internalType": "string"
        }
      ],
      "stateMutability": "view"
    },
    {
      "type": "function",
      "name": "version",
      "inputs": [],
      "outputs": [
        {
          "name": "",
          "type": "uint256",
          "internalType": "uint256"
        },
        {
          "name": "",
          "type": "uint256",
          "internalType": "uint256"
        },
        {
          "name": "",
          "type": "uint256",
          "internalType": "uint256"
        }
      ],
      "stateMutability": "view"
    },
    {
      "type": "event",
      "name": "FlagsSet",
      "inputs": [
        {
          "name": "flagCount",
          "type": "uint8",
          "indexed": false,
          "internalType": "uint8"
        },
        {
          "name": "newFlags",
          "type": "bytes32",
          "indexed": false,
          "internalType": "bytes32"
        }
      ],
      "anonymous": false
    },
    {
      "type": "event",
      "name": "Initialized",
      "inputs": [
        {
          "name": "version",
          "type": "uint64",
          "indexed": false,
          "internalType": "uint64"
        }
      ],
      "anonymous": false
    },
    {
      "type": "event",
      "name": "ModuleInitialized",
      "inputs": [
        {
          "name": "parentOrchestrator",
          "type": "address",
          "indexed": true,
          "internalType": "address"
        },
        {
          "name": "metadata",
          "type": "tuple",
          "indexed": false,
          "internalType": "struct IModule_v1.Metadata",
          "components": [
            {
              "name": "majorVersion",
              "type": "uint256",
              "internalType": "uint256"
            },
            {
              "name": "minorVersion",
              "type": "uint256",
              "internalType": "uint256"
            },
            {
              "name": "patchVersion",
              "type": "uint256",
              "internalType": "uint256"
            },
            {
              "name": "url",
              "type": "string",
              "internalType": "string"
            },
            {
              "name": "title",
              "type": "string",
              "internalType": "string"
            }
          ]
        }
      ],
      "anonymous": false
    },
    {
      "type": "event",
      "name": "PaymentOrderAdded",
      "inputs": [
        {
          "name": "recipient",
          "type": "address",
          "indexed": true,
          "internalType": "address"
        },
        {
          "name": "token",
          "type": "address",
          "indexed": true,
          "internalType": "address"
        },
        {
          "name": "amount",
          "type": "uint256",
          "indexed": false,
          "internalType": "uint256"
        },
        {
          "name": "originChainId",
          "type": "uint256",
          "indexed": false,
          "internalType": "uint256"
        },
        {
          "name": "targetChainId",
          "type": "uint256",
          "indexed": false,
          "internalType": "uint256"
        },
        {
          "name": "flags",
          "type": "bytes32",
          "indexed": false,
          "internalType": "bytes32"
        },
        {
          "name": "data",
          "type": "bytes32[]",
          "indexed": false,
          "internalType": "bytes32[]"
        }
      ],
      "anonymous": false
    },
    {
      "type": "event",
      "name": "ProtocolFeeTransferred",
      "inputs": [
        {
          "name": "token",
          "type": "address",
          "indexed": true,
          "internalType": "address"
        },
        {
          "name": "treasury",
          "type": "address",
          "indexed": true,
          "internalType": "address"
        },
        {
          "name": "feeAmount",
          "type": "uint256",
          "indexed": false,
          "internalType": "uint256"
        }
      ],
      "anonymous": false
    },
    {
      "type": "error",
      "name": "AddressEmptyCode",
      "inputs": [
        {
          "name": "target",
          "type": "address",
          "internalType": "address"
        }
      ]
    },
    {
      "type": "error",
      "name": "AddressInsufficientBalance",
      "inputs": [
        {
          "name": "account",
          "type": "address",
          "internalType": "address"
        }
      ]
    },
    {
      "type": "error",
      "name": "FailedInnerCall",
      "inputs": []
    },
    {
      "type": "error",
      "name": "InvalidInitialization",
      "inputs": []
    },
    {
      "type": "error",
      "name": "Module_OrchestratorCallbackFailed",
      "inputs": [
        {
          "name": "funcSig",
          "type": "string",
          "internalType": "string"
        }
      ]
    },
    {
      "type": "error",
      "name": "Module__CallerNotAuthorized",
      "inputs": [
        {
          "name": "role",
          "type": "bytes32",
          "internalType": "bytes32"
        },
        {
          "name": "caller",
          "type": "address",
          "internalType": "address"
        }
      ]
    },
    {
      "type": "error",
      "name": "Module__ERC20PaymentClientBase__CallerNotAuthorized",
      "inputs": []
    },
    {
      "type": "error",
      "name": "Module__ERC20PaymentClientBase__InsufficientFunds",
      "inputs": [
        {
          "name": "token",
          "type": "address",
          "internalType": "address"
        }
      ]
    },
    {
      "type": "error",
      "name": "Module__ERC20PaymentClientBase__InvalidAmount",
      "inputs": []
    },
    {
      "type": "error",
      "name": "Module__ERC20PaymentClientBase__InvalidPaymentOrder",
      "inputs": []
    },
    {
      "type": "error",
      "name": "Module__ERC20PaymentClientBase__InvalidRecipient",
      "inputs": []
    },
    {
      "type": "error",
      "name": "Module__ERC20PaymentClientBase__InvalidToken",
      "inputs": []
    },
    {
      "type": "error",
      "name": "Module__ERC20PaymentClientBase__MismatchBetweenFlagCountAndArrayLength",
      "inputs": [
        {
          "name": "flagCount",
          "type": "uint8",
          "internalType": "uint8"
        },
        {
          "name": "arrayLength",
          "type": "uint256",
          "internalType": "uint256"
        }
      ]
    },
    {
      "type": "error",
      "name": "Module__ERC20PaymentClientBase__TokenTransferFailed",
      "inputs": []
    },
    {
      "type": "error",
      "name": "Module__ERC20PaymentClientBase_v2__FlagAmountTooHigh",
      "inputs": []
    },
    {
      "type": "error",
      "name": "Module__InvalidAddress",
      "inputs": []
    },
    {
      "type": "error",
      "name": "Module__InvalidMetadata",
      "inputs": []
    },
    {
      "type": "error",
      "name": "Module__InvalidOrchestratorAddress",
      "inputs": []
    },
    {
      "type": "error",
      "name": "Module__LM_PC_PaymentRouter_v2__ArrayLengthMismatch",
      "inputs": []
    },
    {
      "type": "error",
      "name": "Module__OnlyCallableByOrchestrator",
      "inputs": []
    },
    {
      "type": "error",
      "name": "Module__OnlyCallableByPaymentClient",
      "inputs": []
    },
    {
      "type": "error",
      "name": "NotInitializing",
      "inputs": []
    },
    {
      "type": "error",
      "name": "SafeERC20FailedOperation",
      "inputs": [
        {
          "name": "token",
          "type": "address",
          "internalType": "address"
        }
      ]
    }
  ],
  "bytecode": {
    "object": "0x60a060405234801562000010575f80fd5b505f6080526200001f62000025565b620000d9565b7ff0c57e16840df040f15088dc2f81fe391c3923bec73e23a9662efc9c229c6a00805468010000000000000000900460ff1615620000765760405163f92ee8a960e01b815260040160405180910390fd5b80546001600160401b0390811614620000d65780546001600160401b0319166001600160401b0390811782556040519081527fc7f505b2f371ae2175ee4913f4499e1f2633a7b5936321eed1cdaeb6115181d29060200160405180910390a15b50565b6080516134a6620000ef5f395f50506134a65ff3fe608060405234801561000f575f80fd5b506004361061019a575f3560e01c806375fa0b76116100e8578063b74795d911610093578063bcb619201161006e578063bcb6192014610366578063c0231ff614610379578063c9582f2014610390578063ed15a6641461039b575f80fd5b8063b74795d914610334578063ba0ff42c14610344578063bc5823191461035e575f80fd5b80638028b82f116100c35780638028b82f146102fb578063b33ec6181461030e578063b66a870c14610321575f80fd5b806375fa0b76146102be5780637998a1c4146102d35780637da0a877146102db575f80fd5b806354fd4d5011610148578063572b6c0511610123578063572b6c05146102905780636c67e807146102a35780636cc7149d146102b6575f80fd5b806354fd4d501461025157806355f304c6146102755780635600f04f14610288575f80fd5b80632e84db5f116101785780632e84db5f146101ee57806346ebcacf146102245780634a79d50c1461023c575f80fd5b806301ffc9a71461019e57806324e30270146101c6578063272bbd44146101db575b5f80fd5b6101b16101ac366004612acc565b6103a3565b60405190151581526020015b60405180910390f35b6101d96101d4366004612b3b565b6103cd565b005b6101d96101e9366004612b3b565b61066d565b6102166101fc366004612b97565b6001600160a01b03165f9081526039602052604090205490565b6040519081526020016101bd565b6102166d2820aca6a2a72a2fa82aa9a422a960911b81565b61024461083c565b6040516101bd9190612bff565b600154600254600354604080519384526020840192909252908201526060016101bd565b6101d9610283366004612c11565b6108cf565b610244610c11565b6101b161029e366004612b97565b610c23565b6101d96102b1366004612cd4565b610c8f565b603b54610216565b6102c6610e95565b6040516101bd9190612df9565b610216610f88565b6102e36110e0565b6040516001600160a01b0390911681526020016101bd565b6101d9610309366004612e0b565b611154565b6101d961031c366004612e60565b611387565b6101d961032f366004612f50565b6113e4565b5f546001600160a01b03166102e3565b61034c600281565b60405160ff90911681526020016101bd565b61034c600181565b6101d9610374366004612cd4565b611514565b6103816116eb565b6040516101bd9392919061302e565b603a5460ff1661034c565b61034c600381565b5f6001600160e01b0319821663d5dbbce960e01b14806103c757506103c782611be7565b92915050565b5f80546040805163d09edf3160e01b815290518693926001600160a01b03169163d09edf319160048083019260209291908290030181865afa158015610415573d5f803e3d5ffd5b505050506040513d601f19601f8201168201806040525081019061043991906130c3565b60405163fdd5205f60e01b8152306004820152602481018490526001600160a01b03919091169063fdd5205f90604401602060405180830381865afa158015610484573d5f803e3d5ffd5b505050506040513d601f19601f820116820180604052508101906104a891906130de565b90506105985f8054906101000a90046001600160a01b03166001600160a01b031663d09edf316040518163ffffffff1660e01b8152600401602060405180830381865afa1580156104fb573d5f803e3d5ffd5b505050506040513d601f19601f8201168201806040525081019061051f91906130c3565b6001600160a01b031663248a9ca3836040518263ffffffff1660e01b815260040161054c91815260200190565b602060405180830381865afa158015610567573d5f803e3d5ffd5b505050506040513d601f19601f8201168201806040525081019061058b91906130de565b610593611c0b565b611c5b565b5f8054906101000a90046001600160a01b03166001600160a01b031663d09edf316040518163ffffffff1660e01b8152600401602060405180830381865afa1580156105e6573d5f803e3d5ffd5b505050506040513d601f19601f8201168201806040525081019061060a91906130c3565b6001600160a01b0316637d540a648686866040518463ffffffff1660e01b8152600401610639939291906130f5565b5f604051808303815f87803b158015610650575f80fd5b505af1158015610662573d5f803e3d5ffd5b505050505050505050565b5f80546040805163d09edf3160e01b815290518693926001600160a01b03169163d09edf319160048083019260209291908290030181865afa1580156106b5573d5f803e3d5ffd5b505050506040513d601f19601f820116820180604052508101906106d991906130c3565b60405163fdd5205f60e01b8152306004820152602481018490526001600160a01b03919091169063fdd5205f90604401602060405180830381865afa158015610724573d5f803e3d5ffd5b505050506040513d601f19601f8201168201806040525081019061074891906130de565b905061079b5f8054906101000a90046001600160a01b03166001600160a01b031663d09edf316040518163ffffffff1660e01b8152600401602060405180830381865afa1580156104fb573d5f803e3d5ffd5b5f8054906101000a90046001600160a01b03166001600160a01b031663d09edf316040518163ffffffff1660e01b8152600401602060405180830381865afa1580156107e9573d5f803e3d5ffd5b505050506040513d601f19601f8201168201806040525081019061080d91906130c3565b6001600160a01b031663648154538686866040518463ffffffff1660e01b8152600401610639939291906130f5565b60606001600401805461084e9061314c565b80601f016020809104026020016040519081016040528092919081815260200182805461087a9061314c565b80156108c55780601f1061089c576101008083540402835291602001916108c5565b820191905f5260205f20905b8154815290600101906020018083116108a857829003601f168201915b5050505050905090565b6d2820aca6a2a72a2fa82aa9a422a960911b61098b5f8054906101000a90046001600160a01b03166001600160a01b031663d09edf316040518163ffffffff1660e01b8152600401602060405180830381865afa158015610932573d5f803e3d5ffd5b505050506040513d601f19601f8201168201806040525081019061095691906130c3565b60405163fdd5205f60e01b8152306004820152602481018490526001600160a01b03919091169063fdd5205f9060440161054c565b60ff8b16891415806109a0575060ff8b168714155b806109ae575060ff8b168514155b156109cc57604051633672df6360e21b815260040160405180910390fd5b604080516003808252608082019092525f916060918391602082018480368337019050509050865f1b815f81518110610a0757610a07613184565b602002602001018181525050855f1b81600181518110610a2957610a29613184565b602002602001018181525050845f1b81600281518110610a4b57610a4b613184565b602002602001018181525050610a6081611d76565b90935091505f90505b8d60ff168160ff161015610b3957610b316040518060e001604052808f8f8560ff16818110610a9a57610a9a613184565b9050602002016020810190610aaf9190612b97565b6001600160a01b031681526020018d8d8560ff16818110610ad257610ad2613184565b9050602002016020810190610ae79190612b97565b6001600160a01b031681526020018b8b8560ff16818110610b0a57610b0a613184565b90506020020135815260200146815260200146815260200185815260200184815250611db9565b600101610a69565b505f8054906101000a90046001600160a01b03166001600160a01b031663f1c6bdf86040518163ffffffff1660e01b8152600401602060405180830381865afa158015610b88573d5f803e3d5ffd5b505050506040513d601f19601f82011682018060405250810190610bac91906130c3565b60405163e151fc6160e01b81523060048201526001600160a01b03919091169063e151fc61906024015f604051808303815f87803b158015610bec575f80fd5b505af1158015610bfe573d5f803e3d5ffd5b5050505050505050505050505050505050565b60606001600301805461084e9061314c565b5f805460405163572b6c0560e01b81526001600160a01b0384811660048301529091169063572b6c0590602401602060405180830381865afa158015610c6b573d5f803e3d5ffd5b505050506040513d601f19601f820116820180604052508101906103c79190613198565b5f80546040805163d09edf3160e01b815290518593926001600160a01b03169163d09edf319160048083019260209291908290030181865afa158015610cd7573d5f803e3d5ffd5b505050506040513d601f19601f82011682018060405250810190610cfb91906130c3565b60405163fdd5205f60e01b8152306004820152602481018490526001600160a01b03919091169063fdd5205f90604401602060405180830381865afa158015610d46573d5f803e3d5ffd5b505050506040513d601f19601f82011682018060405250810190610d6a91906130de565b9050610dbd5f8054906101000a90046001600160a01b03166001600160a01b031663d09edf316040518163ffffffff1660e01b8152600401602060405180830381865afa1580156104fb573d5f803e3d5ffd5b5f8054906101000a90046001600160a01b03166001600160a01b031663d09edf316040518163ffffffff1660e01b8152600401602060405180830381865afa158015610e0b573d5f803e3d5ffd5b505050506040513d601f19601f82011682018060405250810190610e2f91906130c3565b60405163385e205560e21b8152600481018690526001600160a01b038581166024830152919091169063e1788154906044015b5f604051808303815f87803b158015610e79575f80fd5b505af1158015610e8b573d5f803e3d5ffd5b5050505050505050565b60606038805480602002602001604051908101604052809291908181526020015f905b82821015610f7f575f8481526020908190206040805160e0810182526007860290920180546001600160a01b039081168452600182015416838501526002810154838301526003810154606084015260048101546080840152600581015460a08401526006810180548351818702810187019094528084529394919360c086019392830182828015610f6757602002820191905f5260205f20905b815481526020019060010190808311610f53575b50505050508152505081526020019060010190610eb8565b50505050905090565b5f6110db60016040518060a00160405290815f82015481526020016001820154815260200160028201548152602001600382018054610fc69061314c565b80601f0160208091040260200160405190810160405280929190818152602001828054610ff29061314c565b801561103d5780601f106110145761010080835404028352916020019161103d565b820191905f5260205f20905b81548152906001019060200180831161102057829003601f168201915b505050505081526020016004820180546110569061314c565b80601f01602080910402602001604051908101604052809291908181526020018280546110829061314c565b80156110cd5780601f106110a4576101008083540402835291602001916110cd565b820191905f5260205f20905b8154815290600101906020018083116110b057829003601f168201915b505050505081525050611fed565b905090565b5f805f9054906101000a90046001600160a01b03166001600160a01b0316637da0a8776040518163ffffffff1660e01b8152600401602060405180830381865afa158015611130573d5f803e3d5ffd5b505050506040513d601f19601f820116820180604052508101906110db91906130c3565b6d2820aca6a2a72a2fa82aa9a422a960911b6111b75f8054906101000a90046001600160a01b03166001600160a01b031663d09edf316040518163ffffffff1660e01b8152600401602060405180830381865afa158015610932573d5f803e3d5ffd5b604080516003808252608082019092525f91606091839160208201848036833701905050905086156111e957866111eb565b425b5f1b815f815181106111ff576111ff613184565b602002602001018181525050855f1b8160018151811061122157611221613184565b60209081029190910101528415611238578461123a565b425b5f1b8160028151811061124f5761124f613184565b60200260200101818152505061126481611d76565b6040805160e0810182526001600160a01b03808f1682528d1660208201529081018b90524660608201819052608082015260a0810183905260c08101829052919450925090506112b381611db9565b5f8054906101000a90046001600160a01b03166001600160a01b031663f1c6bdf86040518163ffffffff1660e01b8152600401602060405180830381865afa158015611301573d5f803e3d5ffd5b505050506040513d601f19601f8201168201806040525081019061132591906130c3565b60405163e151fc6160e01b81523060048201526001600160a01b03919091169063e151fc61906024015f604051808303815f87803b158015611365575f80fd5b505af1158015611377573d5f803e3d5ffd5b5050505050505050505050505050565b611397611392611c0b565b61202b565b6113b45760405163e4597a6b60e01b815260040160405180910390fd5b6001600160a01b0382165f90815260396020526040812080548392906113db9084906131cb565b90915550505050565b7ff0c57e16840df040f15088dc2f81fe391c3923bec73e23a9662efc9c229c6a00805468010000000000000000810460ff16159067ffffffffffffffff165f8115801561142e5750825b90505f8267ffffffffffffffff16600114801561144a5750303b155b905081158015611458575080155b156114765760405163f92ee8a960e01b815260040160405180910390fd5b845467ffffffffffffffff1916600117855583156114aa57845468ff00000000000000001916680100000000000000001785555b6114b488886120a8565b600e6114bf816121ae565b508315610e8b57845468ff000000000000000019168555604051600181527fc7f505b2f371ae2175ee4913f4499e1f2633a7b5936321eed1cdaeb6115181d29060200160405180910390a15050505050505050565b5f80546040805163d09edf3160e01b815290518593926001600160a01b03169163d09edf319160048083019260209291908290030181865afa15801561155c573d5f803e3d5ffd5b505050506040513d601f19601f8201168201806040525081019061158091906130c3565b60405163fdd5205f60e01b8152306004820152602481018490526001600160a01b03919091169063fdd5205f90604401602060405180830381865afa1580156115cb573d5f803e3d5ffd5b505050506040513d601f19601f820116820180604052508101906115ef91906130de565b90506116425f8054906101000a90046001600160a01b03166001600160a01b031663d09edf316040518163ffffffff1660e01b8152600401602060405180830381865afa1580156104fb573d5f803e3d5ffd5b5f8054906101000a90046001600160a01b03166001600160a01b031663d09edf316040518163ffffffff1660e01b8152600401602060405180830381865afa158015611690573d5f803e3d5ffd5b505050506040513d601f19601f820116820180604052508101906116b491906130c3565b604051632e99be7f60e21b8152600481018690526001600160a01b038581166024830152919091169063ba66f9fc90604401610e62565b60608060606116fb611392611c0b565b6117185760405163e4597a6b60e01b815260040160405180910390fd5b6038545f808267ffffffffffffffff81111561173657611736612e8a565b60405190808252806020026020018201604052801561175f578160200160208202803683370190505b5090505f8367ffffffffffffffff81111561177c5761177c612e8a565b6040519080825280602002602001820160405280156117a5578160200160208202803683370190505b5090508367ffffffffffffffff8111156117c1576117c1612e8a565b60405190808252806020026020018201604052801561184157816020015b61182e6040518060e001604052805f6001600160a01b031681526020015f6001600160a01b031681526020015f81526020015f81526020015f81526020015f8019168152602001606081525090565b8152602001906001900390816117df5790505b5096505f5b84811015611a65576038818154811061186157611861613184565b5f9182526020918290206040805160e081018252600790930290910180546001600160a01b039081168452600182015416838501526002810154838301526003810154606084015260048101546080840152600581015460a08401526006810180548351818702810187019094528084529394919360c08601939283018282801561190957602002820191905f5260205f20905b8154815260200190600101908083116118f5575b50505050508152505088828151811061192457611924613184565b60200260200101819052505f805b8581101561199a5789838151811061194c5761194c613184565b6020026020010151602001516001600160a01b031685828151811061197357611973613184565b60200260200101516001600160a01b031603611992576001915061199a565b600101611932565b5080611a5c578882815181106119b2576119b2613184565b6020026020010151602001518486815181106119d0576119d0613184565b60200260200101906001600160a01b031690816001600160a01b03168152505060395f8a8481518110611a0557611a05613184565b6020026020010151602001516001600160a01b03166001600160a01b031681526020019081526020015f2054838681518110611a4357611a43613184565b602090810291909101015284611a58816131de565b9550505b50600101611846565b50611a7160385f6129d3565b8267ffffffffffffffff811115611a8a57611a8a612e8a565b604051908082528060200260200182016040528015611ab3578160200160208202803683370190505b5095508267ffffffffffffffff811115611acf57611acf612e8a565b604051908082528060200260200182016040528015611af8578160200160208202803683370190505b5094505f5b83811015611bdd57828181518110611b1757611b17613184565b6020026020010151878281518110611b3157611b31613184565b60200260200101906001600160a01b031690816001600160a01b031681525050818181518110611b6357611b63613184565b6020026020010151868281518110611b7d57611b7d613184565b602002602001018181525050611bb3611b94611c0b565b888381518110611ba657611ba6613184565b60200260200101516121c2565b611bd5878281518110611bc857611bc8613184565b60200260200101516121e6565b600101611afd565b5050505050909192565b5f6001600160e01b031982166346fe193d60e11b14806103c757506103c782612461565b5f366014611c1833610c23565b8015611c245750808210155b15611c53575f36611c3583856131cb565b611c409282906131f6565b611c499161321d565b60601c9250505090565b339250505090565b5f8054906101000a90046001600160a01b03166001600160a01b031663d09edf316040518163ffffffff1660e01b8152600401602060405180830381865afa158015611ca9573d5f803e3d5ffd5b505050506040513d601f19601f82011682018060405250810190611ccd91906130c3565b60405163a883867d60e01b8152600481018490526001600160a01b038381166024830152919091169063a883867d90604401602060405180830381865afa158015611d1a573d5f803e3d5ffd5b505050506040513d601f19601f82011682018060405250810190611d3e9190613198565b611d72576040516342abbb7760e01b8152600481018390526001600160a01b03821660248201526044015b60405180910390fd5b5050565b8051603a545f9160609160ff1614611db157603a548351604051630bf3089f60e11b815260ff90921660048301526024820152604401611d69565b5050603b5491565b80611dc381612495565b816040015160395f84602001516001600160a01b03166001600160a01b031681526020019081526020015f205f828254611dfd9190613252565b9091555050603880546001810182555f9190915282517f38395c5dceade9603479b177b68959049485df8aa97b39f3533039af5f4561996007909202918201805473ffffffffffffffffffffffffffffffffffffffff199081166001600160a01b039384161782556020808701517f38395c5dceade9603479b177b68959049485df8aa97b39f3533039af5f45619a86018054909316941693909317905560408501517f38395c5dceade9603479b177b68959049485df8aa97b39f3533039af5f45619b84015560608501517f38395c5dceade9603479b177b68959049485df8aa97b39f3533039af5f45619c84015560808501517f38395c5dceade9603479b177b68959049485df8aa97b39f3533039af5f45619d84015560a08501517f38395c5dceade9603479b177b68959049485df8aa97b39f3533039af5f45619e84015560c0850151805186949293611f78937f38395c5dceade9603479b177b68959049485df8aa97b39f3533039af5f45619f019201906129f1565b50505081602001516001600160a01b0316825f01516001600160a01b03167ff7c0c50e520bf64576a9482cc54780006390b90cee6a1c0bde1adaeb9c0f02f68460400151856060015186608001518760a001518860c00151604051611fe1959493929190613265565b60405180910390a35050565b5f815f01518260600151836080015160405160200161200e9392919061329a565b604051602081830303815290604052805190602001209050919050565b5f805460408051631e38d7bf60e31b815290516001600160a01b0380861693169163f1c6bdf89160048083019260209291908290030181865afa158015612074573d5f803e3d5ffd5b505050506040513d601f19601f8201168201806040525081019061209891906130c3565b6001600160a01b03161492915050565b6120b0612587565b6001600160a01b0382166120d757604051637280679360e01b815260040160405180910390fd5b5f805473ffffffffffffffffffffffffffffffffffffffff19166001600160a01b038416179055612107816125d7565b61212457604051637511254160e01b815260040160405180910390fd5b80516001908155602082015160025560408201516003556060820151829190600490612150908261330f565b5060808201516004820190612165908261330f565b50905050816001600160a01b03167fd5f3f84c2e1816ce290af84d002663800b02f2985d770cdd335de76fd723b730826040516121a291906133cf565b60405180910390a25050565b6121b6612587565b6121bf81612631565b50565b6001600160a01b0381165f81815260396020526040902054611d72919084906126bc565b6001600160a01b0381165f818152603960205260408082205490516370a0823160e01b81523060048201529092906370a0823190602401602060405180830381865afa158015612238573d5f803e3d5ffd5b505050506040513d601f19601f8201168201806040525081019061225c91906130de565b90508181101561245c575f8054906101000a90046001600160a01b03166001600160a01b03166304baed9e6040518163ffffffff1660e01b8152600401602060405180830381865afa1580156122b4573d5f803e3d5ffd5b505050506040513d601f19601f820116820180604052508101906122d891906130c3565b6001600160a01b031663fc0c546a6040518163ffffffff1660e01b8152600401602060405180830381865afa158015612313573d5f803e3d5ffd5b505050506040513d601f19601f8201168201806040525081019061233791906130c3565b6001600160a01b0316836001600160a01b031603612438575f8054906101000a90046001600160a01b03166001600160a01b03166304baed9e6040518163ffffffff1660e01b8152600401602060405180830381865afa15801561239d573d5f803e3d5ffd5b505050506040513d601f19601f820116820180604052508101906123c191906130c3565b6001600160a01b031663759cc4b5306123da84866131cb565b6040516001600160e01b031960e085901b1681526001600160a01b03909216600483015260248201526044015f604051808303815f87803b15801561241d575f80fd5b505af115801561242f573d5f803e3d5ffd5b50505050505050565b6040516346511acb60e11b81526001600160a01b0384166004820152602401611d69565b505050565b5f6001600160e01b0319821663e328951160e01b14806103c757506301ffc9a760e01b6001600160e01b03198316146103c7565b5f546001600160a01b03166001600160a01b031663f1c6bdf86040518163ffffffff1660e01b8152600401602060405180830381865afa1580156124db573d5f803e3d5ffd5b505050506040513d601f19601f820116820180604052508101906124ff91906130c3565b6001600160a01b031663f7698285826040518263ffffffff1660e01b815260040161252a9190613425565b6020604051808303815f875af1158015612546573d5f803e3d5ffd5b505050506040513d601f19601f8201168201806040525081019061256a9190613198565b6121bf5760405163349a262760e01b815260040160405180910390fd5b7ff0c57e16840df040f15088dc2f81fe391c3923bec73e23a9662efc9c229c6a005468010000000000000000900460ff166125d557604051631afcd79f60e31b815260040160405180910390fd5b565b5f8160600151515f036125eb57505f919050565b8160800151515f036125fe57505f919050565b815115801561260f57506020820151155b801561261d57506040820151155b1561262957505f919050565b506001919050565b5f805b60ff8111612667576001811b831615612655578161265181613437565b9250505b8061265f816131de565b915050612634565b50603b829055603a805460ff191660ff831690811790915560408051918252602082018490527f7b463eebcf86a9ecb1c64d88acc3609fe74aaccb569d01b4bb01875b737eda18910160405180910390a15050565b604080516001600160a01b038416602482015260448082018490528251808303909101815260649091019091526020810180517bffffffffffffffffffffffffffffffffffffffffffffffffffffffff1663095ea7b360e01b179052612722848261279f565b61279957604080516001600160a01b03851660248201525f6044808301919091528251808303909101815260649091019091526020810180517bffffffffffffffffffffffffffffffffffffffffffffffffffffffff1663095ea7b360e01b17905261278f908590612840565b6127998482612840565b50505050565b5f805f846001600160a01b0316846040516127ba9190613455565b5f604051808303815f865af19150503d805f81146127f3576040519150601f19603f3d011682016040523d82523d5f602084013e6127f8565b606091505b50915091508180156128225750805115806128225750808060200190518101906128229190613198565b801561283757505f856001600160a01b03163b115b95945050505050565b5f6128546001600160a01b038416836128a1565b905080515f141580156128785750808060200190518101906128769190613198565b155b1561245c57604051635274afe760e01b81526001600160a01b0384166004820152602401611d69565b60606128ae83835f6128b5565b9392505050565b6060814710156128da5760405163cd78605960e01b8152306004820152602401611d69565b5f80856001600160a01b031684866040516128f59190613455565b5f6040518083038185875af1925050503d805f811461292f576040519150601f19603f3d011682016040523d82523d5f602084013e612934565b606091505b509150915061294486838361294e565b9695505050505050565b6060826129635761295e826129aa565b6128ae565b815115801561297a57506001600160a01b0384163b155b156129a357604051639996b31560e01b81526001600160a01b0385166004820152602401611d69565b50806128ae565b8051156129ba5780518082602001fd5b604051630a12f52160e11b815260040160405180910390fd5b5080545f8255600702905f5260205f20908101906121bf9190612a3a565b828054828255905f5260205f20908101928215612a2a579160200282015b82811115612a2a578251825591602001919060010190612a0f565b50612a36929150612a9d565b5090565b80821115612a3657805473ffffffffffffffffffffffffffffffffffffffff19908116825560018201805490911690555f60028201819055600382018190556004820181905560058201819055612a946006830182612ab1565b50600701612a3a565b5b80821115612a36575f8155600101612a9e565b5080545f8255905f5260205f20908101906121bf9190612a9d565b5f60208284031215612adc575f80fd5b81356001600160e01b0319811681146128ae575f80fd5b5f8083601f840112612b03575f80fd5b50813567ffffffffffffffff811115612b1a575f80fd5b6020830191508360208260051b8501011115612b34575f80fd5b9250929050565b5f805f60408486031215612b4d575f80fd5b83359250602084013567ffffffffffffffff811115612b6a575f80fd5b612b7686828701612af3565b9497909650939450505050565b6001600160a01b03811681146121bf575f80fd5b5f60208284031215612ba7575f80fd5b81356128ae81612b83565b5f5b83811015612bcc578181015183820152602001612bb4565b50505f910152565b5f8151808452612beb816020860160208601612bb2565b601f01601f19169290920160200192915050565b602081525f6128ae6020830184612bd4565b5f805f805f805f805f8060e08b8d031215612c2a575f80fd5b8a3560ff81168114612c3a575f80fd5b995060208b013567ffffffffffffffff80821115612c56575f80fd5b612c628e838f01612af3565b909b50995060408d0135915080821115612c7a575f80fd5b612c868e838f01612af3565b909950975060608d0135915080821115612c9e575f80fd5b50612cab8d828e01612af3565b9b9e9a9d50989b979a9699969760808101359760a0820135975060c09091013595509350505050565b5f8060408385031215612ce5575f80fd5b823591506020830135612cf781612b83565b809150509250929050565b5f815180845260208085019450602084015f5b83811015612d3157815187529582019590820190600101612d15565b509495945050505050565b5f6001600160a01b038083511684528060208401511660208501525060408201516040840152606082015160608401526080820151608084015260a082015160a084015260c082015160e060c0850152612d9960e0850182612d02565b949350505050565b5f8282518085526020808601955060208260051b840101602086015f5b84811015612dec57601f19868403018952612dda838351612d3c565b98840198925090830190600101612dbe565b5090979650505050505050565b602081525f6128ae6020830184612da1565b5f805f805f8060c08789031215612e20575f80fd5b8635612e2b81612b83565b95506020870135612e3b81612b83565b95989597505050506040840135936060810135936080820135935060a0909101359150565b5f8060408385031215612e71575f80fd5b8235612e7c81612b83565b946020939093013593505050565b634e487b7160e01b5f52604160045260245ffd5b60405160a0810167ffffffffffffffff81118282101715612ec157612ec1612e8a565b60405290565b5f82601f830112612ed6575f80fd5b813567ffffffffffffffff80821115612ef157612ef1612e8a565b604051601f8301601f19908116603f01168101908282118183101715612f1957612f19612e8a565b81604052838152866020858801011115612f31575f80fd5b836020870160208301375f602085830101528094505050505092915050565b5f805f60608486031215612f62575f80fd5b8335612f6d81612b83565b9250602084013567ffffffffffffffff80821115612f89575f80fd5b9085019060a08288031215612f9c575f80fd5b612fa4612e9e565b823581526020830135602082015260408301356040820152606083013582811115612fcd575f80fd5b612fd989828601612ec7565b606083015250608083013582811115612ff0575f80fd5b612ffc89828601612ec7565b60808301525093506040860135915080821115613017575f80fd5b5061302486828701612ec7565b9150509250925092565b606081525f6130406060830186612da1565b8281036020848101919091528551808352868201928201905f5b8181101561307f5784516001600160a01b03168352938301939183019160010161305a565b5050848103604086015285518082529082019250818601905f5b818110156130b557825185529383019391830191600101613099565b509298975050505050505050565b5f602082840312156130d3575f80fd5b81516128ae81612b83565b5f602082840312156130ee575f80fd5b5051919050565b838152604060208083018290529082018390525f90849060608401835b8681101561314057833561312581612b83565b6001600160a01b031682529282019290820190600101613112565b50979650505050505050565b600181811c9082168061316057607f821691505b60208210810361317e57634e487b7160e01b5f52602260045260245ffd5b50919050565b634e487b7160e01b5f52603260045260245ffd5b5f602082840312156131a8575f80fd5b815180151581146128ae575f80fd5b634e487b7160e01b5f52601160045260245ffd5b818103818111156103c7576103c76131b7565b5f600182016131ef576131ef6131b7565b5060010190565b5f8085851115613204575f80fd5b83861115613210575f80fd5b5050820193919092039150565b6bffffffffffffffffffffffff19813581811691601485101561324a5780818660140360031b1b83161692505b505092915050565b808201808211156103c7576103c76131b7565b85815284602082015283604082015282606082015260a060808201525f61328f60a0830184612d02565b979650505050505050565b838152606060208201525f6132b26060830185612bd4565b82810360408401526129448185612bd4565b601f82111561245c57805f5260205f20601f840160051c810160208510156132e95750805b601f840160051c820191505b81811015613308575f81556001016132f5565b5050505050565b815167ffffffffffffffff81111561332957613329612e8a565b61333d81613337845461314c565b846132c4565b602080601f831160018114613370575f84156133595750858301515b5f19600386901b1c1916600185901b1785556133c7565b5f85815260208120601f198616915b8281101561339e5788860151825594840194600190910190840161337f565b50858210156133bb57878501515f19600388901b60f8161c191681555b505060018460011b0185555b505050505050565b602081528151602082015260208201516040820152604082015160608201525f606083015160a0608084015261340860c0840182612bd4565b90506080840151601f198483030160a08501526128378282612bd4565b602081525f6128ae6020830184612d3c565b5f60ff821660ff810361344c5761344c6131b7565b60010192915050565b5f8251613466818460208701612bb2565b919091019291505056fea2646970667358221220425acc0006c38e673c512d342898c966e56713562cf0ef5fa8a8cfcd5cf51c4164736f6c63430008170033",
    "linkReferences": {}
  },
  "methodIdentifiers": {
    "FLAG_CLIFF()": "ba0ff42c",
    "FLAG_END()": "ed15a664",
    "FLAG_START()": "bc582319",
    "PAYMENT_PUSHER_ROLE()": "46ebcacf",
    "amountPaid(address,uint256)": "b33ec618",
    "collectPaymentOrders()": "c0231ff6",
    "getFlagCount()": "c9582f20",
    "getFlags()": "6cc7149d",
    "grantModuleRole(bytes32,address)": "6c67e807",
    "grantModuleRoleBatched(bytes32,address[])": "272bbd44",
    "identifier()": "7998a1c4",
    "init(address,(uint256,uint256,uint256,string,string),bytes)": "b66a870c",
    "isTrustedForwarder(address)": "572b6c05",
    "orchestrator()": "b74795d9",
    "outstandingTokenAmount(address)": "2e84db5f",
    "paymentOrders()": "75fa0b76",
    "pushPayment(address,address,uint256,uint256,uint256,uint256)": "8028b82f",
    "pushPaymentBatched(uint8,address[],address[],uint256[],uint256,uint256,uint256)": "55f304c6",
    "revokeModuleRole(bytes32,address)": "bcb61920",
    "revokeModuleRoleBatched(bytes32,address[])": "24e30270",
    "supportsInterface(bytes4)": "01ffc9a7",
    "title()": "4a79d50c",
    "trustedForwarder()": "7da0a877",
    "url()": "5600f04f",
    "version()": "54fd4d50"
  },
  "id": 156
}