{
  "abi": [
    {
      "type": "function",
      "name": "BOUNTY_ISSUER_ROLE",
      "inputs": [],
      "outputs": [
        {
          "name": "",
          "type": "bytes32",
          "internalType": "bytes32"
        }
      ],
      "stateMutability": "view"
    },
    {
      "type": "function",
      "name": "CLAIMANT_ROLE",
      "inputs": [],
      "outputs": [
        {
          "name": "",
          "type": "bytes32",
          "internalType": "bytes32"
        }
      ],
      "stateMutability": "view"
    },
    {
      "type": "function",
      "name": "VERIFIER_ROLE",
      "inputs": [],
      "outputs": [
        {
          "name": "",
          "type": "bytes32",
          "internalType": "bytes32"
        }
      ],
      "stateMutability": "view"
    },
    {
      "type": "function",
      "name": "addBounty",
      "inputs": [
        {
          "name": "minimumPayoutAmount",
          "type": "uint256",
          "internalType": "uint256"
        },
        {
          "name": "maximumPayoutAmount",
          "type": "uint256",
          "internalType": "uint256"
        },
        {
          "name": "details",
          "type": "bytes",
          "internalType": "bytes"
        }
      ],
      "outputs": [
        {
          "name": "id",
          "type": "uint256",
          "internalType": "uint256"
        }
      ],
      "stateMutability": "nonpayable"
    },
    {
      "type": "function",
      "name": "addBountyBatch",
      "inputs": [
        {
          "name": "minimumPayoutAmounts",
          "type": "uint256[]",
          "internalType": "uint256[]"
        },
        {
          "name": "maximumPayoutAmounts",
          "type": "uint256[]",
          "internalType": "uint256[]"
        },
        {
          "name": "detailArray",
          "type": "bytes[]",
          "internalType": "bytes[]"
        }
      ],
      "outputs": [
        {
          "name": "ids",
          "type": "uint256[]",
          "internalType": "uint256[]"
        }
      ],
      "stateMutability": "nonpayable"
    },
    {
      "type": "function",
      "name": "addClaim",
      "inputs": [
        {
          "name": "bountyId",
          "type": "uint256",
          "internalType": "uint256"
        },
        {
          "name": "contributors",
          "type": "tuple[]",
          "internalType": "struct ILM_PC_Bounties_v1.Contributor[]",
          "components": [
            {
              "name": "addr",
              "type": "address",
              "internalType": "address"
            },
            {
              "name": "claimAmount",
              "type": "uint256",
              "internalType": "uint256"
            }
          ]
        },
        {
          "name": "details",
          "type": "bytes",
          "internalType": "bytes"
        }
      ],
      "outputs": [
        {
          "name": "id",
          "type": "uint256",
          "internalType": "uint256"
        }
      ],
      "stateMutability": "nonpayable"
    },
    {
      "type": "function",
      "name": "amountPaid",
      "inputs": [
        {
          "name": "token",
          "type": "address",
          "internalType": "address"
        },
        {
          "name": "amount",
          "type": "uint256",
          "internalType": "uint256"
        }
      ],
      "outputs": [],
      "stateMutability": "nonpayable"
    },
    {
      "type": "function",
      "name": "collectPaymentOrders",
      "inputs": [],
      "outputs": [
        {
          "name": "",
          "type": "tuple[]",
          "internalType": "struct IERC20PaymentClientBase_v1.PaymentOrder[]",
          "components": [
            {
              "name": "recipient",
              "type": "address",
              "internalType": "address"
            },
            {
              "name": "paymentToken",
              "type": "address",
              "internalType": "address"
            },
            {
              "name": "amount",
              "type": "uint256",
              "internalType": "uint256"
            },
            {
              "name": "start",
              "type": "uint256",
              "internalType": "uint256"
            },
            {
              "name": "cliff",
              "type": "uint256",
              "internalType": "uint256"
            },
            {
              "name": "end",
              "type": "uint256",
              "internalType": "uint256"
            }
          ]
        },
        {
          "name": "",
          "type": "address[]",
          "internalType": "address[]"
        },
        {
          "name": "",
          "type": "uint256[]",
          "internalType": "uint256[]"
        }
      ],
      "stateMutability": "nonpayable"
    },
    {
      "type": "function",
      "name": "getBountyInformation",
      "inputs": [
        {
          "name": "bountyId",
          "type": "uint256",
          "internalType": "uint256"
        }
      ],
      "outputs": [
        {
          "name": "",
          "type": "tuple",
          "internalType": "struct ILM_PC_Bounties_v1.Bounty",
          "components": [
            {
              "name": "minimumPayoutAmount",
              "type": "uint256",
              "internalType": "uint256"
            },
            {
              "name": "maximumPayoutAmount",
              "type": "uint256",
              "internalType": "uint256"
            },
            {
              "name": "details",
              "type": "bytes",
              "internalType": "bytes"
            },
            {
              "name": "locked",
              "type": "bool",
              "internalType": "bool"
            }
          ]
        }
      ],
      "stateMutability": "view"
    },
    {
      "type": "function",
      "name": "getClaimInformation",
      "inputs": [
        {
          "name": "claimId",
          "type": "uint256",
          "internalType": "uint256"
        }
      ],
      "outputs": [
        {
          "name": "",
          "type": "tuple",
          "internalType": "struct ILM_PC_Bounties_v1.Claim",
          "components": [
            {
              "name": "bountyId",
              "type": "uint256",
              "internalType": "uint256"
            },
            {
              "name": "contributors",
              "type": "tuple[]",
              "internalType": "struct ILM_PC_Bounties_v1.Contributor[]",
              "components": [
                {
                  "name": "addr",
                  "type": "address",
                  "internalType": "address"
                },
                {
                  "name": "claimAmount",
                  "type": "uint256",
                  "internalType": "uint256"
                }
              ]
            },
            {
              "name": "details",
              "type": "bytes",
              "internalType": "bytes"
            },
            {
              "name": "claimed",
              "type": "bool",
              "internalType": "bool"
            }
          ]
        }
      ],
      "stateMutability": "view"
    },
    {
      "type": "function",
      "name": "grantModuleRole",
      "inputs": [
        {
          "name": "role",
          "type": "bytes32",
          "internalType": "bytes32"
        },
        {
          "name": "target",
          "type": "address",
          "internalType": "address"
        }
      ],
      "outputs": [],
      "stateMutability": "nonpayable"
    },
    {
      "type": "function",
      "name": "grantModuleRoleBatched",
      "inputs": [
        {
          "name": "role",
          "type": "bytes32",
          "internalType": "bytes32"
        },
        {
          "name": "targets",
          "type": "address[]",
          "internalType": "address[]"
        }
      ],
      "outputs": [],
      "stateMutability": "nonpayable"
    },
    {
      "type": "function",
      "name": "identifier",
      "inputs": [],
      "outputs": [
        {
          "name": "",
          "type": "bytes32",
          "internalType": "bytes32"
        }
      ],
      "stateMutability": "view"
    },
    {
      "type": "function",
      "name": "init",
      "inputs": [
        {
          "name": "orchestrator_",
          "type": "address",
          "internalType": "contract IOrchestrator_v1"
        },
        {
          "name": "metadata",
          "type": "tuple",
          "internalType": "struct IModule_v1.Metadata",
          "components": [
            {
              "name": "majorVersion",
              "type": "uint256",
              "internalType": "uint256"
            },
            {
              "name": "minorVersion",
              "type": "uint256",
              "internalType": "uint256"
            },
            {
              "name": "patchVersion",
              "type": "uint256",
              "internalType": "uint256"
            },
            {
              "name": "url",
              "type": "string",
              "internalType": "string"
            },
            {
              "name": "title",
              "type": "string",
              "internalType": "string"
            }
          ]
        },
        {
          "name": "",
          "type": "bytes",
          "internalType": "bytes"
        }
      ],
      "outputs": [],
      "stateMutability": "nonpayable"
    },
    {
      "type": "function",
      "name": "isExistingBountyId",
      "inputs": [
        {
          "name": "bountyId",
          "type": "uint256",
          "internalType": "uint256"
        }
      ],
      "outputs": [
        {
          "name": "",
          "type": "bool",
          "internalType": "bool"
        }
      ],
      "stateMutability": "view"
    },
    {
      "type": "function",
      "name": "isExistingClaimId",
      "inputs": [
        {
          "name": "claimId",
          "type": "uint256",
          "internalType": "uint256"
        }
      ],
      "outputs": [
        {
          "name": "",
          "type": "bool",
          "internalType": "bool"
        }
      ],
      "stateMutability": "view"
    },
    {
      "type": "function",
      "name": "isTrustedForwarder",
      "inputs": [
        {
          "name": "forwarder",
          "type": "address",
          "internalType": "address"
        }
      ],
      "outputs": [
        {
          "name": "",
          "type": "bool",
          "internalType": "bool"
        }
      ],
      "stateMutability": "view"
    },
    {
      "type": "function",
      "name": "listBountyIds",
      "inputs": [],
      "outputs": [
        {
          "name": "",
          "type": "uint256[]",
          "internalType": "uint256[]"
        }
      ],
      "stateMutability": "view"
    },
    {
      "type": "function",
      "name": "listClaimIds",
      "inputs": [],
      "outputs": [
        {
          "name": "",
          "type": "uint256[]",
          "internalType": "uint256[]"
        }
      ],
      "stateMutability": "view"
    },
    {
      "type": "function",
      "name": "listClaimIdsForContributorAddress",
      "inputs": [
        {
          "name": "contributorAddrs",
          "type": "address",
          "internalType": "address"
        }
      ],
      "outputs": [
        {
          "name": "",
          "type": "uint256[]",
          "internalType": "uint256[]"
        }
      ],
      "stateMutability": "view"
    },
    {
      "type": "function",
      "name": "lockBounty",
      "inputs": [
        {
          "name": "bountyId",
          "type": "uint256",
          "internalType": "uint256"
        }
      ],
      "outputs": [],
      "stateMutability": "nonpayable"
    },
    {
      "type": "function",
      "name": "orchestrator",
      "inputs": [],
      "outputs": [
        {
          "name": "",
          "type": "address",
          "internalType": "contract IOrchestrator_v1"
        }
      ],
      "stateMutability": "view"
    },
    {
      "type": "function",
      "name": "outstandingTokenAmount",
      "inputs": [
        {
          "name": "_token",
          "type": "address",
          "internalType": "address"
        }
      ],
      "outputs": [
        {
          "name": "",
          "type": "uint256",
          "internalType": "uint256"
        }
      ],
      "stateMutability": "view"
    },
    {
      "type": "function",
      "name": "paymentOrders",
      "inputs": [],
      "outputs": [
        {
          "name": "",
          "type": "tuple[]",
          "internalType": "struct IERC20PaymentClientBase_v1.PaymentOrder[]",
          "components": [
            {
              "name": "recipient",
              "type": "address",
              "internalType": "address"
            },
            {
              "name": "paymentToken",
              "type": "address",
              "internalType": "address"
            },
            {
              "name": "amount",
              "type": "uint256",
              "internalType": "uint256"
            },
            {
              "name": "start",
              "type": "uint256",
              "internalType": "uint256"
            },
            {
              "name": "cliff",
              "type": "uint256",
              "internalType": "uint256"
            },
            {
              "name": "end",
              "type": "uint256",
              "internalType": "uint256"
            }
          ]
        }
      ],
      "stateMutability": "view"
    },
    {
      "type": "function",
      "name": "revokeModuleRole",
      "inputs": [
        {
          "name": "role",
          "type": "bytes32",
          "internalType": "bytes32"
        },
        {
          "name": "target",
          "type": "address",
          "internalType": "address"
        }
      ],
      "outputs": [],
      "stateMutability": "nonpayable"
    },
    {
      "type": "function",
      "name": "revokeModuleRoleBatched",
      "inputs": [
        {
          "name": "role",
          "type": "bytes32",
          "internalType": "bytes32"
        },
        {
          "name": "targets",
          "type": "address[]",
          "internalType": "address[]"
        }
      ],
      "outputs": [],
      "stateMutability": "nonpayable"
    },
    {
      "type": "function",
      "name": "supportsInterface",
      "inputs": [
        {
          "name": "interfaceId",
          "type": "bytes4",
          "internalType": "bytes4"
        }
      ],
      "outputs": [
        {
          "name": "",
          "type": "bool",
          "internalType": "bool"
        }
      ],
      "stateMutability": "view"
    },
    {
      "type": "function",
      "name": "title",
      "inputs": [],
      "outputs": [
        {
          "name": "",
          "type": "string",
          "internalType": "string"
        }
      ],
      "stateMutability": "view"
    },
    {
      "type": "function",
      "name": "trustedForwarder",
      "inputs": [],
      "outputs": [
        {
          "name": "",
          "type": "address",
          "internalType": "address"
        }
      ],
      "stateMutability": "view"
    },
    {
      "type": "function",
      "name": "updateBounty",
      "inputs": [
        {
          "name": "bountyId",
          "type": "uint256",
          "internalType": "uint256"
        },
        {
          "name": "details",
          "type": "bytes",
          "internalType": "bytes"
        }
      ],
      "outputs": [],
      "stateMutability": "nonpayable"
    },
    {
      "type": "function",
      "name": "updateClaimContributors",
      "inputs": [
        {
          "name": "claimId",
          "type": "uint256",
          "internalType": "uint256"
        },
        {
          "name": "contributors",
          "type": "tuple[]",
          "internalType": "struct ILM_PC_Bounties_v1.Contributor[]",
          "components": [
            {
              "name": "addr",
              "type": "address",
              "internalType": "address"
            },
            {
              "name": "claimAmount",
              "type": "uint256",
              "internalType": "uint256"
            }
          ]
        }
      ],
      "outputs": [],
      "stateMutability": "nonpayable"
    },
    {
      "type": "function",
      "name": "updateClaimDetails",
      "inputs": [
        {
          "name": "claimId",
          "type": "uint256",
          "internalType": "uint256"
        },
        {
          "name": "details",
          "type": "bytes",
          "internalType": "bytes"
        }
      ],
      "outputs": [],
      "stateMutability": "nonpayable"
    },
    {
      "type": "function",
      "name": "url",
      "inputs": [],
      "outputs": [
        {
          "name": "",
          "type": "string",
          "internalType": "string"
        }
      ],
      "stateMutability": "view"
    },
    {
      "type": "function",
      "name": "verifyClaim",
      "inputs": [
        {
          "name": "claimId",
          "type": "uint256",
          "internalType": "uint256"
        },
        {
          "name": "contributors",
          "type": "tuple[]",
          "internalType": "struct ILM_PC_Bounties_v1.Contributor[]",
          "components": [
            {
              "name": "addr",
              "type": "address",
              "internalType": "address"
            },
            {
              "name": "claimAmount",
              "type": "uint256",
              "internalType": "uint256"
            }
          ]
        }
      ],
      "outputs": [],
      "stateMutability": "nonpayable"
    },
    {
      "type": "function",
      "name": "version",
      "inputs": [],
      "outputs": [
        {
          "name": "",
          "type": "uint256",
          "internalType": "uint256"
        },
        {
          "name": "",
          "type": "uint256",
          "internalType": "uint256"
        },
        {
          "name": "",
          "type": "uint256",
          "internalType": "uint256"
        }
      ],
      "stateMutability": "view"
    },
    {
      "type": "event",
      "name": "BountyAdded",
      "inputs": [
        {
          "name": "bountyId",
          "type": "uint256",
          "indexed": true,
          "internalType": "uint256"
        },
        {
          "name": "minimumPayoutAmount",
          "type": "uint256",
          "indexed": false,
          "internalType": "uint256"
        },
        {
          "name": "maximumPayoutAmount",
          "type": "uint256",
          "indexed": false,
          "internalType": "uint256"
        },
        {
          "name": "details",
          "type": "bytes",
          "indexed": false,
          "internalType": "bytes"
        }
      ],
      "anonymous": false
    },
    {
      "type": "event",
      "name": "BountyLocked",
      "inputs": [
        {
          "name": "bountyId",
          "type": "uint256",
          "indexed": true,
          "internalType": "uint256"
        }
      ],
      "anonymous": false
    },
    {
      "type": "event",
      "name": "BountyUpdated",
      "inputs": [
        {
          "name": "bountyId",
          "type": "uint256",
          "indexed": true,
          "internalType": "uint256"
        },
        {
          "name": "details",
          "type": "bytes",
          "indexed": false,
          "internalType": "bytes"
        }
      ],
      "anonymous": false
    },
    {
      "type": "event",
      "name": "ClaimAdded",
      "inputs": [
        {
          "name": "claimId",
          "type": "uint256",
          "indexed": true,
          "internalType": "uint256"
        },
        {
          "name": "bountyId",
          "type": "uint256",
          "indexed": true,
          "internalType": "uint256"
        },
        {
          "name": "contributors",
          "type": "tuple[]",
          "indexed": false,
          "internalType": "struct ILM_PC_Bounties_v1.Contributor[]",
          "components": [
            {
              "name": "addr",
              "type": "address",
              "internalType": "address"
            },
            {
              "name": "claimAmount",
              "type": "uint256",
              "internalType": "uint256"
            }
          ]
        },
        {
          "name": "details",
          "type": "bytes",
          "indexed": false,
          "internalType": "bytes"
        }
      ],
      "anonymous": false
    },
    {
      "type": "event",
      "name": "ClaimContributorsUpdated",
      "inputs": [
        {
          "name": "claimId",
          "type": "uint256",
          "indexed": true,
          "internalType": "uint256"
        },
        {
          "name": "contributors",
          "type": "tuple[]",
          "indexed": false,
          "internalType": "struct ILM_PC_Bounties_v1.Contributor[]",
          "components": [
            {
              "name": "addr",
              "type": "address",
              "internalType": "address"
            },
            {
              "name": "claimAmount",
              "type": "uint256",
              "internalType": "uint256"
            }
          ]
        }
      ],
      "anonymous": false
    },
    {
      "type": "event",
      "name": "ClaimDetailsUpdated",
      "inputs": [
        {
          "name": "claimId",
          "type": "uint256",
          "indexed": true,
          "internalType": "uint256"
        },
        {
          "name": "details",
          "type": "bytes",
          "indexed": false,
          "internalType": "bytes"
        }
      ],
      "anonymous": false
    },
    {
      "type": "event",
      "name": "ClaimVerified",
      "inputs": [
        {
          "name": "claimId",
          "type": "uint256",
          "indexed": true,
          "internalType": "uint256"
        }
      ],
      "anonymous": false
    },
    {
      "type": "event",
      "name": "Initialized",
      "inputs": [
        {
          "name": "version",
          "type": "uint64",
          "indexed": false,
          "internalType": "uint64"
        }
      ],
      "anonymous": false
    },
    {
      "type": "event",
      "name": "ModuleInitialized",
      "inputs": [
        {
          "name": "parentOrchestrator",
          "type": "address",
          "indexed": true,
          "internalType": "address"
        },
        {
          "name": "metadata",
          "type": "tuple",
          "indexed": false,
          "internalType": "struct IModule_v1.Metadata",
          "components": [
            {
              "name": "majorVersion",
              "type": "uint256",
              "internalType": "uint256"
            },
            {
              "name": "minorVersion",
              "type": "uint256",
              "internalType": "uint256"
            },
            {
              "name": "patchVersion",
              "type": "uint256",
              "internalType": "uint256"
            },
            {
              "name": "url",
              "type": "string",
              "internalType": "string"
            },
            {
              "name": "title",
              "type": "string",
              "internalType": "string"
            }
          ]
        }
      ],
      "anonymous": false
    },
    {
      "type": "event",
      "name": "PaymentOrderAdded",
      "inputs": [
        {
          "name": "recipient",
          "type": "address",
          "indexed": true,
          "internalType": "address"
        },
        {
          "name": "token",
          "type": "address",
          "indexed": true,
          "internalType": "address"
        },
        {
          "name": "amount",
          "type": "uint256",
          "indexed": false,
          "internalType": "uint256"
        }
      ],
      "anonymous": false
    },
    {
      "type": "error",
      "name": "AddressEmptyCode",
      "inputs": [
        {
          "name": "target",
          "type": "address",
          "internalType": "address"
        }
      ]
    },
    {
      "type": "error",
      "name": "AddressInsufficientBalance",
      "inputs": [
        {
          "name": "account",
          "type": "address",
          "internalType": "address"
        }
      ]
    },
    {
      "type": "error",
      "name": "FailedInnerCall",
      "inputs": []
    },
    {
      "type": "error",
      "name": "InvalidInitialization",
      "inputs": []
    },
    {
      "type": "error",
      "name": "Library__LinkedIdList__InvalidNewId",
      "inputs": []
    },
    {
      "type": "error",
      "name": "Module_OrchestratorCallbackFailed",
      "inputs": [
        {
          "name": "funcSig",
          "type": "string",
          "internalType": "string"
        }
      ]
    },
    {
      "type": "error",
      "name": "Module__CallerNotAuthorized",
      "inputs": [
        {
          "name": "role",
          "type": "bytes32",
          "internalType": "bytes32"
        },
        {
          "name": "caller",
          "type": "address",
          "internalType": "address"
        }
      ]
    },
    {
      "type": "error",
      "name": "Module__ERC20PaymentClientBase__ArrayLengthMismatch",
      "inputs": []
    },
    {
      "type": "error",
      "name": "Module__ERC20PaymentClientBase__CallerNotAuthorized",
      "inputs": []
    },
    {
      "type": "error",
      "name": "Module__ERC20PaymentClientBase__InsufficientFunds",
      "inputs": [
        {
          "name": "token",
          "type": "address",
          "internalType": "address"
        }
      ]
    },
    {
      "type": "error",
      "name": "Module__ERC20PaymentClientBase__InvalidAmount",
      "inputs": []
    },
    {
      "type": "error",
      "name": "Module__ERC20PaymentClientBase__InvalidPaymentOrder",
      "inputs": []
    },
    {
      "type": "error",
      "name": "Module__ERC20PaymentClientBase__InvalidRecipient",
      "inputs": []
    },
    {
      "type": "error",
      "name": "Module__ERC20PaymentClientBase__InvalidToken",
      "inputs": []
    },
    {
      "type": "error",
      "name": "Module__ERC20PaymentClientBase__Invalidend",
      "inputs": []
    },
    {
      "type": "error",
      "name": "Module__ERC20PaymentClientBase__TokenTransferFailed",
      "inputs": []
    },
    {
      "type": "error",
      "name": "Module__InvalidAddress",
      "inputs": []
    },
    {
      "type": "error",
      "name": "Module__InvalidMetadata",
      "inputs": []
    },
    {
      "type": "error",
      "name": "Module__InvalidOrchestratorAddress",
      "inputs": []
    },
    {
      "type": "error",
      "name": "Module__LM_PC_Bounty__AlreadyClaimed",
      "inputs": []
    },
    {
      "type": "error",
      "name": "Module__LM_PC_Bounty__BountyLocked",
      "inputs": []
    },
    {
      "type": "error",
      "name": "Module__LM_PC_Bounty__ClaimExceedsGivenPayoutAmounts",
      "inputs": []
    },
    {
      "type": "error",
      "name": "Module__LM_PC_Bounty__ContributorsChanged",
      "inputs": []
    },
    {
      "type": "error",
      "name": "Module__LM_PC_Bounty__InvalidArrayLengths",
      "inputs": []
    },
    {
      "type": "error",
      "name": "Module__LM_PC_Bounty__InvalidBountyId",
      "inputs": []
    },
    {
      "type": "error",
      "name": "Module__LM_PC_Bounty__InvalidClaimId",
      "inputs": []
    },
    {
      "type": "error",
      "name": "Module__LM_PC_Bounty__InvalidContributorAddress",
      "inputs": []
    },
    {
      "type": "error",
      "name": "Module__LM_PC_Bounty__InvalidContributorAmount",
      "inputs": []
    },
    {
      "type": "error",
      "name": "Module__LM_PC_Bounty__InvalidContributorsLength",
      "inputs": []
    },
    {
      "type": "error",
      "name": "Module__LM_PC_Bounty__InvalidPayoutAmounts",
      "inputs": []
    },
    {
      "type": "error",
      "name": "Module__LM_PC_Bounty__OnlyClaimContributor",
      "inputs": []
    },
    {
      "type": "error",
      "name": "Module__OnlyCallableByOrchestrator",
      "inputs": []
    },
    {
      "type": "error",
      "name": "Module__OnlyCallableByPaymentClient",
      "inputs": []
    },
    {
      "type": "error",
      "name": "NotInitializing",
      "inputs": []
    },
    {
      "type": "error",
      "name": "SafeERC20FailedOperation",
      "inputs": [
        {
          "name": "token",
          "type": "address",
          "internalType": "address"
        }
      ]
    }
  ],
  "bytecode": {
    "object": "0x60a06040523480156200001157600080fd5b5060006080526200002162000027565b620000db565b7ff0c57e16840df040f15088dc2f81fe391c3923bec73e23a9662efc9c229c6a00805468010000000000000000900460ff1615620000785760405163f92ee8a960e01b815260040160405180910390fd5b80546001600160401b0390811614620000d85780546001600160401b0319166001600160401b0390811782556040519081527fc7f505b2f371ae2175ee4913f4499e1f2633a7b5936321eed1cdaeb6115181d29060200160405180910390a15b50565b608051614e4d620000f460003960005050614e4d6000f3fe608060405234801561001057600080fd5b50600436106102415760003560e01c80637998a1c411610145578063bcb61920116100bd578063c0231ff61161008c578063e2114c8c11610071578063e2114c8c14610503578063e7705db614610516578063fa4dbd031461052857600080fd5b8063c0231ff6146104cc578063cb05296f146104e357600080fd5b8063bcb6192014610480578063bd769f7914610493578063be5a5745146104a6578063bf1f9656146104b957600080fd5b80639c16f52511610114578063b5e8bc45116100f9578063b5e8bc4514610454578063b66a870c1461045c578063b74795d91461046f57600080fd5b80639c16f5251461042e578063b33ec6181461044157600080fd5b80637998a1c4146103dd5780637bfee048146103e55780637da0a877146103fc5780638a8673681461041c57600080fd5b80633cd6b5d1116101d85780635600f04f116101a75780635beaeb8c1161018c5780635beaeb8c146103a25780636c67e807146103b557806375fa0b76146103c857600080fd5b80635600f04f14610387578063572b6c051461038f57600080fd5b80633cd6b5d114610326578063418ab5f81461033b5780634a79d50c1461034e57806354fd4d501461036357600080fd5b80632d54a71c116102145780632d54a71c146102b75780632e84db5f146102ca57806331be580e146102f357806331de0bdb1461031357600080fd5b806301ffc9a7146102465780630d97d72c1461026e57806324e302701461028f578063272bbd44146102a4575b600080fd5b610259610254366004613fb3565b61053b565b60405190151581526020015b60405180910390f35b61028161027c36600461406b565b610566565b604051908152602001610265565b6102a261029d36600461412a565b610935565b005b6102a26102b236600461412a565b610b99565b6102a26102c5366004614176565b610d73565b6102816102d83660046141ca565b6001600160a01b031660009081526039602052604090205490565b6103066103013660046141e7565b610f76565b6040516102659190614250565b6102a2610321366004614176565b6110a8565b61032e6111c8565b60405161026591906142d4565b61032e6103493660046142e7565b6111d9565b610356611397565b6040516102659190614381565b60015460025460035460408051938452602084019290925290820152606001610265565b61035661142c565b61025961039d3660046141ca565b61143e565b6102a26103b0366004614394565b6114ad565b6102a26103c33660046143d3565b61178b565b6103d06119a1565b6040516102659190614480565b610281611a44565b6102816c2127aaa72a2cafa4a9a9aaa2a960991b81565b610404611b9d565b6040516001600160a01b039091168152602001610265565b6102816710d310525350539560c21b81565b61032e61043c3660046141ca565b611c15565b6102a261044f366004614493565b611c39565b61032e611c97565b6102a261046a36600461458b565b611ca3565b6000546001600160a01b0316610404565b6102a261048e3660046143d3565b611e26565b6102816104a1366004614671565b612008565b6102596104b43660046141e7565b612093565b6102a26104c7366004614394565b6120a0565b6104d4612509565b604051610265939291906146c4565b6104f66104f13660046141e7565b6129c8565b604051610265919061472b565b6102596105113660046141e7565b612ac9565b610281672b22a924a324a2a960c11b81565b6102a26105363660046141e7565b612ad6565b60006001600160e01b0319821663204083d560e11b1480610560575061056082612be0565b92915050565b60006710d310525350539560c21b61066b60008054906101000a90046001600160a01b03166001600160a01b031663d09edf316040518163ffffffff1660e01b8152600401602060405180830381865afa1580156105c8573d6000803e3d6000fd5b505050506040513d601f19601f820116820180604052508101906105ec91906147d0565b60405163fdd5205f60e01b8152306004820152602481018490526001600160a01b03919091169063fdd5205f906044015b602060405180830381865afa15801561063a573d6000803e3d6000fd5b505050506040513d601f19601f8201168201806040525081019061065e91906147ed565b610666612c05565b612c57565b8661067581612093565b61069257604051630a3c13ff60e31b815260040160405180910390fd5b6000888152606d6020526040902060030154889060ff16156106c7576040516355eceaeb60e11b815260040160405180910390fd5b6107f78888808060200260200160405190810160405280939291908181526020016000905b828210156107185761070960408302860136819003810190614806565b815260200190600101906106ec565b5050505050606d60008c8152602001908152602001600020604051806080016040529081600082015481526020016001820154815260200160028201805461075f9061485e565b80601f016020809104026020016040519081016040528092919081815260200182805461078b9061485e565b80156107d85780601f106107ad576101008083540402835291602001916107d8565b820191906000526020600020905b8154815290600101906020018083116107bb57829003601f168201915b50505091835250506003919091015460ff161515602090910152612d77565b6000606c60008154610808906148a8565b9182905550905061081a607282612ebd565b60008181526071602052604081208b81559089905b818110156108d557826001018c8c8381811061084d5761084d6148c1565b83546001810185556000948552602090942060409091029290920192600202909101905061087b82826148d7565b50506108cc84607560008f8f86818110610897576108976148c1565b6108ad92602060409092020190810191506141ca565b6001600160a01b03168152602081019190915260400160002090612f31565b5060010161082f565b50600282016108e5898b8361495a565b508b837f23ea023b108a98377fb5440ffbb7fe7a5c3827c821ef0e16fbd60af8b93cddac8d8d8d8d60405161091d9493929190614a8b565b60405180910390a350909a9950505050505050505050565b600080546040805163d09edf3160e01b815290518693926001600160a01b03169163d09edf319160048083019260209291908290030181865afa158015610980573d6000803e3d6000fd5b505050506040513d601f19601f820116820180604052508101906109a491906147d0565b60405163fdd5205f60e01b8152306004820152602481018490526001600160a01b03919091169063fdd5205f90604401602060405180830381865afa1580156109f1573d6000803e3d6000fd5b505050506040513d601f19601f82011682018060405250810190610a1591906147ed565b9050610abc60008054906101000a90046001600160a01b03166001600160a01b031663d09edf316040518163ffffffff1660e01b8152600401602060405180830381865afa158015610a6b573d6000803e3d6000fd5b505050506040513d601f19601f82011682018060405250810190610a8f91906147d0565b6001600160a01b031663248a9ca3836040518263ffffffff1660e01b815260040161061d91815260200190565b60008054906101000a90046001600160a01b03166001600160a01b031663d09edf316040518163ffffffff1660e01b8152600401602060405180830381865afa158015610b0d573d6000803e3d6000fd5b505050506040513d601f19601f82011682018060405250810190610b3191906147d0565b6001600160a01b0316637d540a648686866040518463ffffffff1660e01b8152600401610b6093929190614abd565b600060405180830381600087803b158015610b7a57600080fd5b505af1158015610b8e573d6000803e3d6000fd5b505050505050505050565b600080546040805163d09edf3160e01b815290518693926001600160a01b03169163d09edf319160048083019260209291908290030181865afa158015610be4573d6000803e3d6000fd5b505050506040513d601f19601f82011682018060405250810190610c0891906147d0565b60405163fdd5205f60e01b8152306004820152602481018490526001600160a01b03919091169063fdd5205f90604401602060405180830381865afa158015610c55573d6000803e3d6000fd5b505050506040513d601f19601f82011682018060405250810190610c7991906147ed565b9050610ccf60008054906101000a90046001600160a01b03166001600160a01b031663d09edf316040518163ffffffff1660e01b8152600401602060405180830381865afa158015610a6b573d6000803e3d6000fd5b60008054906101000a90046001600160a01b03166001600160a01b031663d09edf316040518163ffffffff1660e01b8152600401602060405180830381865afa158015610d20573d6000803e3d6000fd5b505050506040513d601f19601f82011682018060405250810190610d4491906147d0565b6001600160a01b031663648154538686866040518463ffffffff1660e01b8152600401610b6093929190614abd565b82610d7d81612ac9565b610d9a576040516355cee66560e11b815260040160405180910390fd5b600084815260716020526040902060030154849060ff1615610dcf5760405163581991ff60e01b815260040160405180910390fd5b600085815260716020908152604080832054808452606d9092529091206003015460ff1615610e11576040516355eceaeb60e11b815260040160405180910390fd5b856000610e1c612c05565b9050600060716000848152602001908152602001600020600101805480602002602001604051908101604052809291908181526020016000905b82821015610e9e576000848152602090819020604080518082019091526002850290910180546001600160a01b03168252600190810154828401529083529092019101610e56565b5050825192935060009150505b81811015610ef257836001600160a01b0316838281518110610ecf57610ecf6148c1565b6020026020010151600001516001600160a01b03160315610ef257600101610eab565b818110610f125760405163b7b3e8c560e01b815260040160405180910390fd5b60008b8152607160205260409020600201610f2e8a8c8361495a565b508a7f4128fe4992a5cb5a9cb54a23107ba2cd9db975f7f66fd5a978927aaf54350a998b8b604051610f61929190614b15565b60405180910390a25050505050505050505050565b610fa360405180608001604052806000815260200160008152602001606081526020016000151581525090565b81610fad81612093565b610fca57604051630a3c13ff60e31b815260040160405180910390fd5b606d6000848152602001908152602001600020604051806080016040529081600082015481526020016001820154815260200160028201805461100c9061485e565b80601f01602080910402602001604051908101604052809291908181526020018280546110389061485e565b80156110855780601f1061105a57610100808354040283529160200191611085565b820191906000526020600020905b81548152906001019060200180831161106857829003601f168201915b50505091835250506003919091015460ff16151560209091015291505b50919050565b6c2127aaa72a2cafa4a9a9aaa2a960991b61110d60008054906101000a90046001600160a01b03166001600160a01b031663d09edf316040518163ffffffff1660e01b8152600401602060405180830381865afa1580156105c8573d6000803e3d6000fd5b8361111781612093565b61113457604051630a3c13ff60e31b815260040160405180910390fd5b6000858152606d6020526040902060030154859060ff1615611169576040516355eceaeb60e11b815260040160405180910390fd5b6000868152606d6020526040902060020161118585878361495a565b50857f5b748b1bf798d437f4457fa662e95d5b99ba7c5c739e2d6342c7d06c4ad4300786866040516111b8929190614b15565b60405180910390a2505050505050565b60606111d46072612f44565b905090565b60606c2127aaa72a2cafa4a9a9aaa2a960991b61124060008054906101000a90046001600160a01b03166001600160a01b031663d09edf316040518163ffffffff1660e01b8152600401602060405180830381865afa1580156105c8573d6000803e3d6000fd5b8685848215806112505750828214155b8061125b5750828114155b15611279576040516344e1c69760e01b815260040160405180910390fd5b898067ffffffffffffffff811115611293576112936144bf565b6040519080825280602002602001820160405280156112bc578160200160208202803683370190505b50955060005b81811015611387576113048d8d838181106112df576112df6148c1565b905060200201358c8c848181106112f8576112f86148c1565b90506020020135612ffe565b6113628d8d83818110611319576113196148c1565b905060200201358c8c84818110611332576113326148c1565b905060200201358b8b8581811061134b5761134b6148c1565b905060200281019061135d9190614b31565b613028565b878281518110611374576113746148c1565b60209081029190910101526001016112c2565b5050505050509695505050505050565b6060600160040180546113a99061485e565b80601f01602080910402602001604051908101604052809291908181526020018280546113d59061485e565b80156114225780601f106113f757610100808354040283529160200191611422565b820191906000526020600020905b81548152906001019060200180831161140557829003601f168201915b5050505050905090565b6060600160030180546113a99061485e565b6000805460405163572b6c0560e01b81526001600160a01b0384811660048301529091169063572b6c0590602401602060405180830381865afa158015611489573d6000803e3d6000fd5b505050506040513d601f19601f820116820180604052508101906105609190614b78565b826114b781612ac9565b6114d4576040516355cee66560e11b815260040160405180910390fd5b600084815260716020526040902060030154849060ff16156115095760405163581991ff60e01b815260040160405180910390fd5b600085815260716020908152604080832054808452606d9092529091206003015460ff161561154b576040516355eceaeb60e11b815260040160405180910390fd5b6710d310525350539560c21b6115ab60008054906101000a90046001600160a01b03166001600160a01b031663d09edf316040518163ffffffff1660e01b8152600401602060405180830381865afa1580156105c8573d6000803e3d6000fd5b61164d8686808060200260200160405190810160405280939291908181526020016000905b828210156115fc576115ed60408302860136819003810190614806565b815260200190600101906115d0565b50505060008b8152607160209081526040808320548352606d825291829020825160808101845281548152600182015492810192909252600281018054929550909350918401919061075f9061485e565b6000878152607160205260408120600181015490915b818110156116c0576116b78a60756000866001018581548110611688576116886148c1565b600091825260208083206002909202909101546001600160a01b031683528201929092526040019020906130ba565b50600101611663565b506116cf600183016000613eff565b508560005b8181101561174557826001018989838181106116f2576116f26148c1565b83546001810185556000948552602090942060409091029290920192600202909101905061172082826148d7565b505061173c8a607560008c8c86818110610897576108976148c1565b506001016116d4565b50887f1d41ce0f1e2efe8a516e804c8208a8a92b1931eb13d5c7be8847790b6eb25ec18989604051611778929190614b9a565b60405180910390a2505050505050505050565b600080546040805163d09edf3160e01b815290518593926001600160a01b03169163d09edf319160048083019260209291908290030181865afa1580156117d6573d6000803e3d6000fd5b505050506040513d601f19601f820116820180604052508101906117fa91906147d0565b60405163fdd5205f60e01b8152306004820152602481018490526001600160a01b03919091169063fdd5205f90604401602060405180830381865afa158015611847573d6000803e3d6000fd5b505050506040513d601f19601f8201168201806040525081019061186b91906147ed565b90506118c160008054906101000a90046001600160a01b03166001600160a01b031663d09edf316040518163ffffffff1660e01b8152600401602060405180830381865afa158015610a6b573d6000803e3d6000fd5b60008054906101000a90046001600160a01b03166001600160a01b031663d09edf316040518163ffffffff1660e01b8152600401602060405180830381865afa158015611912573d6000803e3d6000fd5b505050506040513d601f19601f8201168201806040525081019061193691906147d0565b60405163385e205560e21b8152600481018690526001600160a01b038581166024830152919091169063e1788154906044015b600060405180830381600087803b15801561198357600080fd5b505af1158015611997573d6000803e3d6000fd5b5050505050505050565b60606038805480602002602001604051908101604052809291908181526020016000905b82821015611a3b5760008481526020908190206040805160c0810182526006860290920180546001600160a01b0390811684526001808301549091168486015260028201549284019290925260038101546060840152600481015460808401526005015460a083015290835290920191016119c5565b50505050905090565b60006111d460016040518060a0016040529081600082015481526020016001820154815260200160028201548152602001600382018054611a849061485e565b80601f0160208091040260200160405190810160405280929190818152602001828054611ab09061485e565b8015611afd5780601f10611ad257610100808354040283529160200191611afd565b820191906000526020600020905b815481529060010190602001808311611ae057829003601f168201915b50505050508152602001600482018054611b169061485e565b80601f0160208091040260200160405190810160405280929190818152602001828054611b429061485e565b8015611b8f5780601f10611b6457610100808354040283529160200191611b8f565b820191906000526020600020905b815481529060010190602001808311611b7257829003601f168201915b5050505050815250506130c6565b60008060009054906101000a90046001600160a01b03166001600160a01b0316637da0a8776040518163ffffffff1660e01b8152600401602060405180830381865afa158015611bf1573d6000803e3d6000fd5b505050506040513d601f19601f820116820180604052508101906111d491906147d0565b6001600160a01b038116600090815260756020526040902060609061056090613106565b611c49611c44612c05565b613113565b611c665760405163e4597a6b60e01b815260040160405180910390fd5b6001600160a01b03821660009081526039602052604081208054839290611c8e908490614bae565b90915550505050565b60606111d4606e612f44565b7ff0c57e16840df040f15088dc2f81fe391c3923bec73e23a9662efc9c229c6a00805468010000000000000000810460ff16159067ffffffffffffffff16600081158015611cee5750825b905060008267ffffffffffffffff166001148015611d0b5750303b155b905081158015611d19575080155b15611d375760405163f92ee8a960e01b815260040160405180910390fd5b845467ffffffffffffffff191660011785558315611d6b57845468ff00000000000000001916680100000000000000001785555b611d758888613193565b60001960008190527f90e8828a45adaa15d8645928a320f3f2178f38b1e816e9a534ed71202ec464cc819055606f81905560746020527f591e574d7f81566c032ac223579fc5f865f01f50eb85857e56ae181a970ebfc6819055607355831561199757845468ff000000000000000019168555604051600181527fc7f505b2f371ae2175ee4913f4499e1f2633a7b5936321eed1cdaeb6115181d29060200160405180910390a15050505050505050565b600080546040805163d09edf3160e01b815290518593926001600160a01b03169163d09edf319160048083019260209291908290030181865afa158015611e71573d6000803e3d6000fd5b505050506040513d601f19601f82011682018060405250810190611e9591906147d0565b60405163fdd5205f60e01b8152306004820152602481018490526001600160a01b03919091169063fdd5205f90604401602060405180830381865afa158015611ee2573d6000803e3d6000fd5b505050506040513d601f19601f82011682018060405250810190611f0691906147ed565b9050611f5c60008054906101000a90046001600160a01b03166001600160a01b031663d09edf316040518163ffffffff1660e01b8152600401602060405180830381865afa158015610a6b573d6000803e3d6000fd5b60008054906101000a90046001600160a01b03166001600160a01b031663d09edf316040518163ffffffff1660e01b8152600401602060405180830381865afa158015611fad573d6000803e3d6000fd5b505050506040513d601f19601f82011682018060405250810190611fd191906147d0565b604051632e99be7f60e21b8152600481018690526001600160a01b038581166024830152919091169063ba66f9fc90604401611969565b60006c2127aaa72a2cafa4a9a9aaa2a960991b61206f60008054906101000a90046001600160a01b03166001600160a01b031663d09edf316040518163ffffffff1660e01b8152600401602060405180830381865afa1580156105c8573d6000803e3d6000fd5b858561207b8282612ffe565b61208788888888613028565b98975050505050505050565b6000610560606e8361328d565b672b22a924a324a2a960c11b61210060008054906101000a90046001600160a01b03166001600160a01b031663d09edf316040518163ffffffff1660e01b8152600401602060405180830381865afa1580156105c8573d6000803e3d6000fd5b8361210a81612ac9565b612127576040516355cee66560e11b815260040160405180910390fd5b600085815260716020526040902060030154859060ff161561215c5760405163581991ff60e01b815260040160405180910390fd5b600086815260716020908152604080832054808452606d9092529091206003015460ff161561219e576040516355eceaeb60e11b815260040160405180910390fd5b6121fa878787808060200260200160405190810160405280939291908181526020016000905b828210156121f0576121e160408302860136819003810190614806565b815260200190600101906121c4565b50505050506132b2565b600087815260716020908152604080832060010180548251818502810185019093528083529192909190849084015b82821015612271576000848152602090819020604080518082019091526002850290910180546001600160a01b03168252600190810154828401529083529092019101612229565b5050825160408051808201909152600080825260208201529394509291506122969050565b60005b828110156123e8578381815181106122b3576122b36148c1565b602002602001015191506123e06040518060c0016040528084600001516001600160a01b031681526020016122f06000546001600160a01b031690565b6001600160a01b03166304baed9e6040518163ffffffff1660e01b8152600401602060405180830381865afa15801561232d573d6000803e3d6000fd5b505050506040513d601f19601f8201168201806040525081019061235191906147d0565b6001600160a01b031663fc0c546a6040518163ffffffff1660e01b8152600401602060405180830381865afa15801561238e573d6000803e3d6000fd5b505050506040513d601f19601f820116820180604052508101906123b291906147d0565b6001600160a01b03168152602001846020015181526020014281526020016000815260200142815250613423565b600101612299565b5060008054906101000a90046001600160a01b03166001600160a01b031663f1c6bdf86040518163ffffffff1660e01b8152600401602060405180830381865afa15801561243a573d6000803e3d6000fd5b505050506040513d601f19601f8201168201806040525081019061245e91906147d0565b60405163e151fc6160e01b81523060048201526001600160a01b03919091169063e151fc6190602401600060405180830381600087803b1580156124a157600080fd5b505af11580156124b5573d6000803e3d6000fd5b50505060008b815260716020526040808220600301805460ff19166001179055518c92507f393efda0b92bc01071b66a816d6bcddde867b8c91da505a0f309d9133a53650a9190a250505050505050505050565b6060806060612519611c44612c05565b6125365760405163e4597a6b60e01b815260040160405180910390fd5b6038546000808267ffffffffffffffff811115612555576125556144bf565b60405190808252806020026020018201604052801561257e578160200160208202803683370190505b50905060008367ffffffffffffffff81111561259c5761259c6144bf565b6040519080825280602002602001820160405280156125c5578160200160208202803683370190505b50905060008467ffffffffffffffff8111156125e3576125e36144bf565b60405190808252806020026020018201604052801561265f57816020015b61264c6040518060c0016040528060006001600160a01b0316815260200160006001600160a01b03168152602001600081526020016000815260200160008152602001600081525090565b8152602001906001900390816126015790505b50905060005b858110156128395760388181548110612680576126806148c1565b60009182526020918290206040805160c081018252600690930290910180546001600160a01b03908116845260018201541693830193909352600283015490820152600382015460608201526004820154608082015260059091015460a082015282518390839081106126f5576126f56148c1565b60200260200101819052506000805b8681101561276c5783838151811061271e5761271e6148c1565b6020026020010151602001516001600160a01b0316868281518110612745576127456148c1565b60200260200101516001600160a01b031603612764576001915061276c565b600101612704565b508061283057828281518110612784576127846148c1565b6020026020010151602001518587815181106127a2576127a26148c1565b60200260200101906001600160a01b031690816001600160a01b031681525050603960008484815181106127d8576127d86148c1565b6020026020010151602001516001600160a01b03166001600160a01b0316815260200190815260200160002054848781518110612817576128176148c1565b60209081029190910101528561282c816148a8565b9650505b50600101612665565b5061284660386000613f20565b60008467ffffffffffffffff811115612861576128616144bf565b60405190808252806020026020018201604052801561288a578160200160208202803683370190505b50905060008567ffffffffffffffff8111156128a8576128a86144bf565b6040519080825280602002602001820160405280156128d1578160200160208202803683370190505b50905060005b868110156129b7578581815181106128f1576128f16148c1565b602002602001015183828151811061290b5761290b6148c1565b60200260200101906001600160a01b031690816001600160a01b03168152505084818151811061293d5761293d6148c1565b6020026020010151828281518110612957576129576148c1565b60200260200101818152505061298d61296e612c05565b848381518110612980576129806148c1565b60200260200101516135e4565b6129af8382815181106129a2576129a26148c1565b6020026020010151613609565b6001016128d7565b509199909850909650945050505050565b6129f560405180608001604052806000815260200160608152602001606081526020016000151581525090565b816129ff81612ac9565b612a1c576040516355cee66560e11b815260040160405180910390fd5b607160008481526020019081526020016000206040518060800160405290816000820154815260200160018201805480602002602001604051908101604052809291908181526020016000905b82821015612ab1576000848152602090819020604080518082019091526002850290910180546001600160a01b03168252600190810154828401529083529092019101612a69565b50505050815260200160028201805461100c9061485e565b600061056060728361328d565b6c2127aaa72a2cafa4a9a9aaa2a960991b612b3b60008054906101000a90046001600160a01b03166001600160a01b031663d09edf316040518163ffffffff1660e01b8152600401602060405180830381865afa1580156105c8573d6000803e3d6000fd5b81612b4581612093565b612b6257604051630a3c13ff60e31b815260040160405180910390fd5b6000838152606d6020526040902060030154839060ff1615612b97576040516355eceaeb60e11b815260040160405180910390fd5b6000848152606d6020526040808220600301805460ff191660011790555185917fa0e18720f77efbbf5292a427112cd5b87106c4dd3e6b27fe1fa001090a508a4091a250505050565b60006001600160e01b0319821663286309c760e01b148061056057506105608261388b565b6000366014612c133361143e565b8015612c1f5750808210155b15612c4f57600036612c318385614bae565b612c3c928290614bc1565b612c4591614beb565b60601c9250505090565b339250505090565b60008054906101000a90046001600160a01b03166001600160a01b031663d09edf316040518163ffffffff1660e01b8152600401602060405180830381865afa158015612ca8573d6000803e3d6000fd5b505050506040513d601f19601f82011682018060405250810190612ccc91906147d0565b60405163a883867d60e01b8152600481018490526001600160a01b038381166024830152919091169063a883867d90604401602060405180830381865afa158015612d1b573d6000803e3d6000fd5b505050506040513d601f19601f82011682018060405250810190612d3f9190614b78565b612d73576040516342abbb7760e01b8152600481018390526001600160a01b03821660248201526044015b60405180910390fd5b5050565b81516000819003612d9b576040516336df9e9360e11b815260040160405180910390fd5b60008054819081906001600160a01b0316815b85811015612e8357878181518110612dc857612dc86148c1565b602002602001015160200151935083600003612df757604051633e8ef59760e11b815260040160405180910390fd5b878181518110612e0957612e096148c1565b60209081029190910101515192506001600160a01b0383161580612e3557506001600160a01b03831630145b80612e515750816001600160a01b0316836001600160a01b0316145b15612e6f5760405163328b624b60e11b815260040160405180910390fd5b612e798486614c20565b9450600101612dae565b508560200151841180612e965750855184105b15612eb457604051635de5137760e11b815260040160405180910390fd5b50505050505050565b8181612ec9828261328d565b80612ed2575080155b15612ef05760405163582fbbaf60e01b815260040160405180910390fd5b600184018054600090815260028601602052604080822086905585825281206000199055908490558454908590612f26836148a8565b919050555050505050565b6000612f3d83836138c0565b9392505050565b60606000826000015467ffffffffffffffff811115612f6557612f656144bf565b604051908082528060200260200182016040528015612f8e578160200160208202803683370190505b506000196000908152600285016020526040812054919250905b6000198114612ff55780838381518110612fc457612fc46148c1565b6020908102919091018101919091526000918252600286019052604090205481612fed816148a8565b925050612fa8565b50909392505050565b81158061300a57508181105b15612d73576040516306338ccd60e31b815260040160405180910390fd5b6000606c60008154613039906148a8565b9182905550905061304b606e82612ebd565b6000818152606d60205260409020858155600181018590556002810161307284868361495a565b50817f16aa89bae6ad0e0b7a94b930e87a8e04b02978ed503e2698b1b6359416e1ac83878787876040516130a99493929190614c33565b60405180910390a250949350505050565b6000612f3d838361390f565b60008160000151826060015183608001516040516020016130e993929190614c53565b604051602081830303815290604052805190602001209050919050565b60606000612f3d83613a02565b6000805460408051631e38d7bf60e31b815290516001600160a01b0380861693169163f1c6bdf89160048083019260209291908290030181865afa15801561315f573d6000803e3d6000fd5b505050506040513d601f19601f8201168201806040525081019061318391906147d0565b6001600160a01b03161492915050565b61319b613a5e565b6001600160a01b0382166131c257604051637280679360e01b815260040160405180910390fd5b600080546001600160a01b0319166001600160a01b0384161790556131e681613aae565b61320357604051637511254160e01b815260040160405180910390fd5b8051600190815560208201516002556040820151600355606082015182919060049061322f9082614c7e565b50608082015160048201906132449082614c7e565b50905050816001600160a01b03167fd5f3f84c2e1816ce290af84d002663800b02f2985d770cdd335de76fd723b730826040516132819190614d3e565b60405180910390a25050565b600081815260028301602052604081205415801590612f3d5750506000191415919050565b600082815260716020908152604080832060010180548251818502810185019093528083529192909190849084015b82821015613329576000848152602090819020604080518082019091526002850290910180546001600160a01b031682526001908101548284015290835290920191016132e1565b505050509050600082519050808251146133565760405163b854595560e01b815260040160405180910390fd5b60005b8181101561341c57828181518110613373576133736148c1565b6020026020010151600001516001600160a01b031684828151811061339a5761339a6148c1565b6020026020010151600001516001600160a01b03161415806133f657508281815181106133c9576133c96148c1565b6020026020010151602001518482815181106133e7576133e76148c1565b60200260200101516020015114155b156134145760405163b854595560e01b815260040160405180910390fd5b600101613359565b5050505050565b8061342d81613b0e565b81604001516039600084602001516001600160a01b03166001600160a01b03168152602001908152602001600020600082825461346a9190614c20565b909155505060388054600181018255600091909152825160069091027f38395c5dceade9603479b177b68959049485df8aa97b39f3533039af5f456199810180546001600160a01b039384166001600160a01b0319918216811790925560208601517f38395c5dceade9603479b177b68959049485df8aa97b39f3533039af5f45619a8401805491909516911681179093556040808601517f38395c5dceade9603479b177b68959049485df8aa97b39f3533039af5f45619b840181905560608701517f38395c5dceade9603479b177b68959049485df8aa97b39f3533039af5f45619c85015560808701517f38395c5dceade9603479b177b68959049485df8aa97b39f3533039af5f45619d85015560a08701517f38395c5dceade9603479b177b68959049485df8aa97b39f3533039af5f45619e909401939093555190917f21b8b94494ef1aff6ce0f5f3741800bdb27204fd430c1280b54d4cc653ae6f3a916135d891815260200190565b60405180910390a35050565b6001600160a01b038116600081815260396020526040902054612d7391908490613c09565b6001600160a01b0381166000818152603960205260408082205490516370a0823160e01b81523060048201529092906370a0823190602401602060405180830381865afa15801561365e573d6000803e3d6000fd5b505050506040513d601f19601f8201168201806040525081019061368291906147ed565b9050818110156138865760008054906101000a90046001600160a01b03166001600160a01b03166304baed9e6040518163ffffffff1660e01b8152600401602060405180830381865afa1580156136dd573d6000803e3d6000fd5b505050506040513d601f19601f8201168201806040525081019061370191906147d0565b6001600160a01b031663fc0c546a6040518163ffffffff1660e01b8152600401602060405180830381865afa15801561373e573d6000803e3d6000fd5b505050506040513d601f19601f8201168201806040525081019061376291906147d0565b6001600160a01b0316836001600160a01b0316036138625760008054906101000a90046001600160a01b03166001600160a01b03166304baed9e6040518163ffffffff1660e01b8152600401602060405180830381865afa1580156137cb573d6000803e3d6000fd5b505050506040513d601f19601f820116820180604052508101906137ef91906147d0565b6001600160a01b031663759cc4b5306138088486614bae565b6040516001600160e01b031960e085901b1681526001600160a01b0390921660048301526024820152604401600060405180830381600087803b15801561384e57600080fd5b505af1158015612eb4573d6000803e3d6000fd5b6040516346511acb60e11b81526001600160a01b0384166004820152602401612d6a565b505050565b60006001600160e01b0319821663e328951160e01b148061056057506301ffc9a760e01b6001600160e01b0319831614610560565b600081815260018301602052604081205461390757508154600181810184556000848152602080822090930184905584548482528286019093526040902091909155610560565b506000610560565b600081815260018301602052604081205480156139f8576000613933600183614bae565b855490915060009061394790600190614bae565b90508082146139ac576000866000018281548110613967576139676148c1565b906000526020600020015490508087600001848154811061398a5761398a6148c1565b6000918252602080832090910192909255918252600188019052604090208390555b85548690806139bd576139bd614d95565b600190038181906000526020600020016000905590558560010160008681526020019081526020016000206000905560019350505050610560565b6000915050610560565b606081600001805480602002602001604051908101604052809291908181526020018280548015613a5257602002820191906000526020600020905b815481526020019060010190808311613a3e575b50505050509050919050565b7ff0c57e16840df040f15088dc2f81fe391c3923bec73e23a9662efc9c229c6a005468010000000000000000900460ff16613aac57604051631afcd79f60e31b815260040160405180910390fd5b565b6000816060015151600003613ac557506000919050565b816080015151600003613ada57506000919050565b8151158015613aeb57506020820151155b8015613af957506040820151155b15613b0657506000919050565b506001919050565b6000546001600160a01b03166001600160a01b031663f1c6bdf86040518163ffffffff1660e01b8152600401602060405180830381865afa158015613b57573d6000803e3d6000fd5b505050506040513d601f19601f82011682018060405250810190613b7b91906147d0565b6001600160a01b03166308fd683d826040518263ffffffff1660e01b8152600401613ba69190614dab565b6020604051808303816000875af1158015613bc5573d6000803e3d6000fd5b505050506040513d601f19601f82011682018060405250810190613be99190614b78565b613c065760405163349a262760e01b815260040160405180910390fd5b50565b604080516001600160a01b038416602482015260448082018490528251808303909101815260649091019091526020810180517bffffffffffffffffffffffffffffffffffffffffffffffffffffffff1663095ea7b360e01b179052613c6f8482613ced565b613ce757604080516001600160a01b038516602482015260006044808301919091528251808303909101815260649091019091526020810180517bffffffffffffffffffffffffffffffffffffffffffffffffffffffff1663095ea7b360e01b179052613cdd908590613d95565b613ce78482613d95565b50505050565b6000806000846001600160a01b031684604051613d0a9190614dfb565b6000604051808303816000865af19150503d8060008114613d47576040519150601f19603f3d011682016040523d82523d6000602084013e613d4c565b606091505b5091509150818015613d76575080511580613d76575080806020019051810190613d769190614b78565b8015613d8c57506000856001600160a01b03163b115b95945050505050565b6000613daa6001600160a01b03841683613df8565b90508051600014158015613dcf575080806020019051810190613dcd9190614b78565b155b1561388657604051635274afe760e01b81526001600160a01b0384166004820152602401612d6a565b6060612f3d8383600084600080856001600160a01b03168486604051613e1e9190614dfb565b60006040518083038185875af1925050503d8060008114613e5b576040519150601f19603f3d011682016040523d82523d6000602084013e613e60565b606091505b5091509150613e70868383613e7a565b9695505050505050565b606082613e8f57613e8a82613ed6565b612f3d565b8151158015613ea657506001600160a01b0384163b155b15613ecf57604051639996b31560e01b81526001600160a01b0385166004820152602401612d6a565b5080612f3d565b805115613ee65780518082602001fd5b604051630a12f52160e11b815260040160405180910390fd5b5080546000825560020290600052602060002090810190613c069190613f41565b5080546000825560060290600052602060002090810190613c069190613f6b565b5b80821115613f675780546001600160a01b031916815560006001820155600201613f42565b5090565b5b80821115613f675780546001600160a01b03199081168255600182018054909116905560006002820181905560038201819055600482018190556005820155600601613f6c565b600060208284031215613fc557600080fd5b81356001600160e01b031981168114612f3d57600080fd5b60008083601f840112613fef57600080fd5b50813567ffffffffffffffff81111561400757600080fd5b6020830191508360208260061b850101111561402257600080fd5b9250929050565b60008083601f84011261403b57600080fd5b50813567ffffffffffffffff81111561405357600080fd5b60208301915083602082850101111561402257600080fd5b60008060008060006060868803121561408357600080fd5b85359450602086013567ffffffffffffffff808211156140a257600080fd5b6140ae89838a01613fdd565b909650945060408801359150808211156140c757600080fd5b506140d488828901614029565b969995985093965092949392505050565b60008083601f8401126140f757600080fd5b50813567ffffffffffffffff81111561410f57600080fd5b6020830191508360208260051b850101111561402257600080fd5b60008060006040848603121561413f57600080fd5b83359250602084013567ffffffffffffffff81111561415d57600080fd5b614169868287016140e5565b9497909650939450505050565b60008060006040848603121561418b57600080fd5b83359250602084013567ffffffffffffffff8111156141a957600080fd5b61416986828701614029565b6001600160a01b0381168114613c0657600080fd5b6000602082840312156141dc57600080fd5b8135612f3d816141b5565b6000602082840312156141f957600080fd5b5035919050565b60005b8381101561421b578181015183820152602001614203565b50506000910152565b6000815180845261423c816020860160208601614200565b601f01601f19169290920160200192915050565b602081528151602082015260208201516040820152600060408301516080606084015261428060a0840182614224565b90506060840151151560808401528091505092915050565b60008151808452602080850194506020840160005b838110156142c9578151875295820195908201906001016142ad565b509495945050505050565b602081526000612f3d6020830184614298565b6000806000806000806060878903121561430057600080fd5b863567ffffffffffffffff8082111561431857600080fd5b6143248a838b016140e5565b9098509650602089013591508082111561433d57600080fd5b6143498a838b016140e5565b9096509450604089013591508082111561436257600080fd5b5061436f89828a016140e5565b979a9699509497509295939492505050565b602081526000612f3d6020830184614224565b6000806000604084860312156143a957600080fd5b83359250602084013567ffffffffffffffff8111156143c757600080fd5b61416986828701613fdd565b600080604083850312156143e657600080fd5b8235915060208301356143f8816141b5565b809150509250929050565b60008151808452602080850194506020840160005b838110156142c95761446d8783516001600160a01b038082511683528060208301511660208401525060408101516040830152606081015160608301526080810151608083015260a081015160a08301525050565b60c0969096019590820190600101614418565b602081526000612f3d6020830184614403565b600080604083850312156144a657600080fd5b82356144b1816141b5565b946020939093013593505050565b634e487b7160e01b600052604160045260246000fd5b60405160a0810167ffffffffffffffff811182821017156144f8576144f86144bf565b60405290565b600082601f83011261450f57600080fd5b813567ffffffffffffffff8082111561452a5761452a6144bf565b604051601f8301601f19908116603f01168101908282118183101715614552576145526144bf565b8160405283815286602085880101111561456b57600080fd5b836020870160208301376000602085830101528094505050505092915050565b6000806000606084860312156145a057600080fd5b83356145ab816141b5565b9250602084013567ffffffffffffffff808211156145c857600080fd5b9085019060a082880312156145dc57600080fd5b6145e46144d5565b82358152602083013560208201526040830135604082015260608301358281111561460e57600080fd5b61461a898286016144fe565b60608301525060808301358281111561463257600080fd5b61463e898286016144fe565b6080830152509350604086013591508082111561465a57600080fd5b50614667868287016144fe565b9150509250925092565b6000806000806060858703121561468757600080fd5b8435935060208501359250604085013567ffffffffffffffff8111156146ac57600080fd5b6146b887828801614029565b95989497509550505050565b6060815260006146d76060830186614403565b82810360208481019190915285518083528682019282019060005b818110156147175784516001600160a01b0316835293830193918301916001016146f2565b505084810360408601526120878187614298565b6000602080835260a083018451828501528185015160406080604087015282825180855260c0880191508584019450600093505b8084101561479157845180516001600160a01b031683528601518683015293850193600193909301929082019061475f565b506040880151878203601f1901606089015294506147af8186614224565b94505050505060608401516147c8608085018215159052565b509392505050565b6000602082840312156147e257600080fd5b8151612f3d816141b5565b6000602082840312156147ff57600080fd5b5051919050565b60006040828403121561481857600080fd5b6040516040810181811067ffffffffffffffff8211171561483b5761483b6144bf565b6040528235614849816141b5565b81526020928301359281019290925250919050565b600181811c9082168061487257607f821691505b6020821081036110a257634e487b7160e01b600052602260045260246000fd5b634e487b7160e01b600052601160045260246000fd5b6000600182016148ba576148ba614892565b5060010190565b634e487b7160e01b600052603260045260246000fd5b81356148e2816141b5565b6001600160a01b0381166001600160a01b031983541617825550602082013560018201555050565b601f821115613886576000816000526020600020601f850160051c810160208610156149335750805b601f850160051c820191505b818110156149525782815560010161493f565b505050505050565b67ffffffffffffffff831115614972576149726144bf565b61498683614980835461485e565b8361490a565b6000601f8411600181146149ba57600085156149a25750838201355b600019600387901b1c1916600186901b17835561341c565b600083815260209020601f19861690835b828110156149eb57868501358255602094850194600190920191016149cb565b5086821015614a085760001960f88860031b161c19848701351681555b505060018560011b0183555050505050565b8183526000602080850194508260005b858110156142c9578135614a3d816141b5565b6001600160a01b03168752818301358388015260409687019690910190600101614a2a565b81835281816020850137506000828201602090810191909152601f909101601f19169091010190565b604081526000614a9f604083018688614a1a565b8281036020840152614ab2818587614a62565b979650505050505050565b83815260406020808301829052908201839052600090849060608401835b86811015614b09578335614aee816141b5565b6001600160a01b031682529282019290820190600101614adb565b50979650505050505050565b602081526000614b29602083018486614a62565b949350505050565b6000808335601e19843603018112614b4857600080fd5b83018035915067ffffffffffffffff821115614b6357600080fd5b60200191503681900382131561402257600080fd5b600060208284031215614b8a57600080fd5b81518015158114612f3d57600080fd5b602081526000614b29602083018486614a1a565b8181038181111561056057610560614892565b60008085851115614bd157600080fd5b83861115614bde57600080fd5b5050820193919092039150565b6bffffffffffffffffffffffff198135818116916014851015614c185780818660140360031b1b83161692505b505092915050565b8082018082111561056057610560614892565b848152836020820152606060408201526000613e70606083018486614a62565b838152606060208201526000614c6c6060830185614224565b8281036040840152613e708185614224565b815167ffffffffffffffff811115614c9857614c986144bf565b614cac81614ca6845461485e565b8461490a565b602080601f831160018114614ce15760008415614cc95750858301515b600019600386901b1c1916600185901b178555614952565b600085815260208120601f198616915b82811015614d1057888601518255948401946001909101908401614cf1565b5085821015614d2e5787850151600019600388901b60f8161c191681555b5050505050600190811b01905550565b602081528151602082015260208201516040820152604082015160608201526000606083015160a06080840152614d7860c0840182614224565b90506080840151601f198483030160a0850152613d8c8282614224565b634e487b7160e01b600052603160045260246000fd5b60c0810161056082846001600160a01b038082511683528060208301511660208401525060408101516040830152606081015160608301526080810151608083015260a081015160a08301525050565b60008251614e0d818460208701614200565b919091019291505056fea2646970667358221220097c327f2f5aa1c37809fbf9f8f4ce3d38120b3f8bd7a90987514bab3534996964736f6c63430008170033",
    "linkReferences": {}
  },
  "methodIdentifiers": {
    "BOUNTY_ISSUER_ROLE()": "7bfee048",
    "CLAIMANT_ROLE()": "8a867368",
    "VERIFIER_ROLE()": "e7705db6",
    "addBounty(uint256,uint256,bytes)": "bd769f79",
    "addBountyBatch(uint256[],uint256[],bytes[])": "418ab5f8",
    "addClaim(uint256,(address,uint256)[],bytes)": "0d97d72c",
    "amountPaid(address,uint256)": "b33ec618",
    "collectPaymentOrders()": "c0231ff6",
    "getBountyInformation(uint256)": "31be580e",
    "getClaimInformation(uint256)": "cb05296f",
    "grantModuleRole(bytes32,address)": "6c67e807",
    "grantModuleRoleBatched(bytes32,address[])": "272bbd44",
    "identifier()": "7998a1c4",
    "init(address,(uint256,uint256,uint256,string,string),bytes)": "b66a870c",
    "isExistingBountyId(uint256)": "be5a5745",
    "isExistingClaimId(uint256)": "e2114c8c",
    "isTrustedForwarder(address)": "572b6c05",
    "listBountyIds()": "b5e8bc45",
    "listClaimIds()": "3cd6b5d1",
    "listClaimIdsForContributorAddress(address)": "9c16f525",
    "lockBounty(uint256)": "fa4dbd03",
    "orchestrator()": "b74795d9",
    "outstandingTokenAmount(address)": "2e84db5f",
    "paymentOrders()": "75fa0b76",
    "revokeModuleRole(bytes32,address)": "bcb61920",
    "revokeModuleRoleBatched(bytes32,address[])": "24e30270",
    "supportsInterface(bytes4)": "01ffc9a7",
    "title()": "4a79d50c",
    "trustedForwarder()": "7da0a877",
    "updateBounty(uint256,bytes)": "31de0bdb",
    "updateClaimContributors(uint256,(address,uint256)[])": "5beaeb8c",
    "updateClaimDetails(uint256,bytes)": "2d54a71c",
    "url()": "5600f04f",
    "verifyClaim(uint256,(address,uint256)[])": "bf1f9656",
    "version()": "54fd4d50"
  },
  "id": 133
}