{
  "abi": [
    {
      "type": "function",
      "name": "BOUNTY_ISSUER_ROLE",
      "inputs": [],
      "outputs": [
        {
          "name": "",
          "type": "bytes32",
          "internalType": "bytes32"
        }
      ],
      "stateMutability": "view"
    },
    {
      "type": "function",
      "name": "CLAIMANT_ROLE",
      "inputs": [],
      "outputs": [
        {
          "name": "",
          "type": "bytes32",
          "internalType": "bytes32"
        }
      ],
      "stateMutability": "view"
    },
    {
      "type": "function",
      "name": "VERIFIER_ROLE",
      "inputs": [],
      "outputs": [
        {
          "name": "",
          "type": "bytes32",
          "internalType": "bytes32"
        }
      ],
      "stateMutability": "view"
    },
    {
      "type": "function",
      "name": "addBounty",
      "inputs": [
        {
          "name": "minimumPayoutAmount",
          "type": "uint256",
          "internalType": "uint256"
        },
        {
          "name": "maximumPayoutAmount",
          "type": "uint256",
          "internalType": "uint256"
        },
        {
          "name": "details",
          "type": "bytes",
          "internalType": "bytes"
        }
      ],
      "outputs": [
        {
          "name": "id",
          "type": "uint256",
          "internalType": "uint256"
        }
      ],
      "stateMutability": "nonpayable"
    },
    {
      "type": "function",
      "name": "addClaim",
      "inputs": [
        {
          "name": "bountyId",
          "type": "uint256",
          "internalType": "uint256"
        },
        {
          "name": "contributors",
          "type": "tuple[]",
          "internalType": "struct ILM_PC_Bounties_v1.Contributor[]",
          "components": [
            {
              "name": "addr",
              "type": "address",
              "internalType": "address"
            },
            {
              "name": "claimAmount",
              "type": "uint256",
              "internalType": "uint256"
            }
          ]
        },
        {
          "name": "details",
          "type": "bytes",
          "internalType": "bytes"
        }
      ],
      "outputs": [
        {
          "name": "id",
          "type": "uint256",
          "internalType": "uint256"
        }
      ],
      "stateMutability": "nonpayable"
    },
    {
      "type": "function",
      "name": "amountPaid",
      "inputs": [
        {
          "name": "token",
          "type": "address",
          "internalType": "address"
        },
        {
          "name": "amount",
          "type": "uint256",
          "internalType": "uint256"
        }
      ],
      "outputs": [],
      "stateMutability": "nonpayable"
    },
    {
      "type": "function",
      "name": "collectPaymentOrders",
      "inputs": [],
      "outputs": [
        {
          "name": "",
          "type": "tuple[]",
          "internalType": "struct IERC20PaymentClientBase_v1.PaymentOrder[]",
          "components": [
            {
              "name": "recipient",
              "type": "address",
              "internalType": "address"
            },
            {
              "name": "paymentToken",
              "type": "address",
              "internalType": "address"
            },
            {
              "name": "amount",
              "type": "uint256",
              "internalType": "uint256"
            },
            {
              "name": "start",
              "type": "uint256",
              "internalType": "uint256"
            },
            {
              "name": "cliff",
              "type": "uint256",
              "internalType": "uint256"
            },
            {
              "name": "end",
              "type": "uint256",
              "internalType": "uint256"
            }
          ]
        },
        {
          "name": "",
          "type": "address[]",
          "internalType": "address[]"
        },
        {
          "name": "",
          "type": "uint256[]",
          "internalType": "uint256[]"
        }
      ],
      "stateMutability": "nonpayable"
    },
    {
      "type": "function",
      "name": "getBountyInformation",
      "inputs": [
        {
          "name": "bountyId",
          "type": "uint256",
          "internalType": "uint256"
        }
      ],
      "outputs": [
        {
          "name": "",
          "type": "tuple",
          "internalType": "struct ILM_PC_Bounties_v1.Bounty",
          "components": [
            {
              "name": "minimumPayoutAmount",
              "type": "uint256",
              "internalType": "uint256"
            },
            {
              "name": "maximumPayoutAmount",
              "type": "uint256",
              "internalType": "uint256"
            },
            {
              "name": "details",
              "type": "bytes",
              "internalType": "bytes"
            },
            {
              "name": "locked",
              "type": "bool",
              "internalType": "bool"
            }
          ]
        }
      ],
      "stateMutability": "view"
    },
    {
      "type": "function",
      "name": "getClaimInformation",
      "inputs": [
        {
          "name": "claimId",
          "type": "uint256",
          "internalType": "uint256"
        }
      ],
      "outputs": [
        {
          "name": "",
          "type": "tuple",
          "internalType": "struct ILM_PC_Bounties_v1.Claim",
          "components": [
            {
              "name": "bountyId",
              "type": "uint256",
              "internalType": "uint256"
            },
            {
              "name": "contributors",
              "type": "tuple[]",
              "internalType": "struct ILM_PC_Bounties_v1.Contributor[]",
              "components": [
                {
                  "name": "addr",
                  "type": "address",
                  "internalType": "address"
                },
                {
                  "name": "claimAmount",
                  "type": "uint256",
                  "internalType": "uint256"
                }
              ]
            },
            {
              "name": "details",
              "type": "bytes",
              "internalType": "bytes"
            },
            {
              "name": "claimed",
              "type": "bool",
              "internalType": "bool"
            }
          ]
        }
      ],
      "stateMutability": "view"
    },
    {
      "type": "function",
      "name": "grantModuleRole",
      "inputs": [
        {
          "name": "role",
          "type": "bytes32",
          "internalType": "bytes32"
        },
        {
          "name": "target",
          "type": "address",
          "internalType": "address"
        }
      ],
      "outputs": [],
      "stateMutability": "nonpayable"
    },
    {
      "type": "function",
      "name": "grantModuleRoleBatched",
      "inputs": [
        {
          "name": "role",
          "type": "bytes32",
          "internalType": "bytes32"
        },
        {
          "name": "targets",
          "type": "address[]",
          "internalType": "address[]"
        }
      ],
      "outputs": [],
      "stateMutability": "nonpayable"
    },
    {
      "type": "function",
      "name": "identifier",
      "inputs": [],
      "outputs": [
        {
          "name": "",
          "type": "bytes32",
          "internalType": "bytes32"
        }
      ],
      "stateMutability": "view"
    },
    {
      "type": "function",
      "name": "init",
      "inputs": [
        {
          "name": "orchestrator_",
          "type": "address",
          "internalType": "contract IOrchestrator_v1"
        },
        {
          "name": "metadata",
          "type": "tuple",
          "internalType": "struct IModule_v1.Metadata",
          "components": [
            {
              "name": "majorVersion",
              "type": "uint256",
              "internalType": "uint256"
            },
            {
              "name": "minorVersion",
              "type": "uint256",
              "internalType": "uint256"
            },
            {
              "name": "url",
              "type": "string",
              "internalType": "string"
            },
            {
              "name": "title",
              "type": "string",
              "internalType": "string"
            }
          ]
        },
        {
          "name": "",
          "type": "bytes",
          "internalType": "bytes"
        }
      ],
      "outputs": [],
      "stateMutability": "nonpayable"
    },
    {
      "type": "function",
      "name": "isExistingBountyId",
      "inputs": [
        {
          "name": "bountyId",
          "type": "uint256",
          "internalType": "uint256"
        }
      ],
      "outputs": [
        {
          "name": "",
          "type": "bool",
          "internalType": "bool"
        }
      ],
      "stateMutability": "view"
    },
    {
      "type": "function",
      "name": "isExistingClaimId",
      "inputs": [
        {
          "name": "claimId",
          "type": "uint256",
          "internalType": "uint256"
        }
      ],
      "outputs": [
        {
          "name": "",
          "type": "bool",
          "internalType": "bool"
        }
      ],
      "stateMutability": "view"
    },
    {
      "type": "function",
      "name": "isTrustedForwarder",
      "inputs": [
        {
          "name": "forwarder",
          "type": "address",
          "internalType": "address"
        }
      ],
      "outputs": [
        {
          "name": "",
          "type": "bool",
          "internalType": "bool"
        }
      ],
      "stateMutability": "view"
    },
    {
      "type": "function",
      "name": "listBountyIds",
      "inputs": [],
      "outputs": [
        {
          "name": "",
          "type": "uint256[]",
          "internalType": "uint256[]"
        }
      ],
      "stateMutability": "view"
    },
    {
      "type": "function",
      "name": "listClaimIds",
      "inputs": [],
      "outputs": [
        {
          "name": "",
          "type": "uint256[]",
          "internalType": "uint256[]"
        }
      ],
      "stateMutability": "view"
    },
    {
      "type": "function",
      "name": "listClaimIdsForContributorAddress",
      "inputs": [
        {
          "name": "contributorAddrs",
          "type": "address",
          "internalType": "address"
        }
      ],
      "outputs": [
        {
          "name": "",
          "type": "uint256[]",
          "internalType": "uint256[]"
        }
      ],
      "stateMutability": "view"
    },
    {
      "type": "function",
      "name": "lockBounty",
      "inputs": [
        {
          "name": "bountyId",
          "type": "uint256",
          "internalType": "uint256"
        }
      ],
      "outputs": [],
      "stateMutability": "nonpayable"
    },
    {
      "type": "function",
      "name": "orchestrator",
      "inputs": [],
      "outputs": [
        {
          "name": "",
          "type": "address",
          "internalType": "contract IOrchestrator_v1"
        }
      ],
      "stateMutability": "view"
    },
    {
      "type": "function",
      "name": "outstandingTokenAmount",
      "inputs": [
        {
          "name": "_token",
          "type": "address",
          "internalType": "address"
        }
      ],
      "outputs": [
        {
          "name": "",
          "type": "uint256",
          "internalType": "uint256"
        }
      ],
      "stateMutability": "view"
    },
    {
      "type": "function",
      "name": "paymentOrders",
      "inputs": [],
      "outputs": [
        {
          "name": "",
          "type": "tuple[]",
          "internalType": "struct IERC20PaymentClientBase_v1.PaymentOrder[]",
          "components": [
            {
              "name": "recipient",
              "type": "address",
              "internalType": "address"
            },
            {
              "name": "paymentToken",
              "type": "address",
              "internalType": "address"
            },
            {
              "name": "amount",
              "type": "uint256",
              "internalType": "uint256"
            },
            {
              "name": "start",
              "type": "uint256",
              "internalType": "uint256"
            },
            {
              "name": "cliff",
              "type": "uint256",
              "internalType": "uint256"
            },
            {
              "name": "end",
              "type": "uint256",
              "internalType": "uint256"
            }
          ]
        }
      ],
      "stateMutability": "view"
    },
    {
      "type": "function",
      "name": "revokeModuleRole",
      "inputs": [
        {
          "name": "role",
          "type": "bytes32",
          "internalType": "bytes32"
        },
        {
          "name": "target",
          "type": "address",
          "internalType": "address"
        }
      ],
      "outputs": [],
      "stateMutability": "nonpayable"
    },
    {
      "type": "function",
      "name": "revokeModuleRoleBatched",
      "inputs": [
        {
          "name": "role",
          "type": "bytes32",
          "internalType": "bytes32"
        },
        {
          "name": "targets",
          "type": "address[]",
          "internalType": "address[]"
        }
      ],
      "outputs": [],
      "stateMutability": "nonpayable"
    },
    {
      "type": "function",
      "name": "supportsInterface",
      "inputs": [
        {
          "name": "interfaceId",
          "type": "bytes4",
          "internalType": "bytes4"
        }
      ],
      "outputs": [
        {
          "name": "",
          "type": "bool",
          "internalType": "bool"
        }
      ],
      "stateMutability": "view"
    },
    {
      "type": "function",
      "name": "title",
      "inputs": [],
      "outputs": [
        {
          "name": "",
          "type": "string",
          "internalType": "string"
        }
      ],
      "stateMutability": "view"
    },
    {
      "type": "function",
      "name": "trustedForwarder",
      "inputs": [],
      "outputs": [
        {
          "name": "",
          "type": "address",
          "internalType": "address"
        }
      ],
      "stateMutability": "view"
    },
    {
      "type": "function",
      "name": "updateBounty",
      "inputs": [
        {
          "name": "bountyId",
          "type": "uint256",
          "internalType": "uint256"
        },
        {
          "name": "details",
          "type": "bytes",
          "internalType": "bytes"
        }
      ],
      "outputs": [],
      "stateMutability": "nonpayable"
    },
    {
      "type": "function",
      "name": "updateClaimContributors",
      "inputs": [
        {
          "name": "claimId",
          "type": "uint256",
          "internalType": "uint256"
        },
        {
          "name": "contributors",
          "type": "tuple[]",
          "internalType": "struct ILM_PC_Bounties_v1.Contributor[]",
          "components": [
            {
              "name": "addr",
              "type": "address",
              "internalType": "address"
            },
            {
              "name": "claimAmount",
              "type": "uint256",
              "internalType": "uint256"
            }
          ]
        }
      ],
      "outputs": [],
      "stateMutability": "nonpayable"
    },
    {
      "type": "function",
      "name": "updateClaimDetails",
      "inputs": [
        {
          "name": "claimId",
          "type": "uint256",
          "internalType": "uint256"
        },
        {
          "name": "details",
          "type": "bytes",
          "internalType": "bytes"
        }
      ],
      "outputs": [],
      "stateMutability": "nonpayable"
    },
    {
      "type": "function",
      "name": "url",
      "inputs": [],
      "outputs": [
        {
          "name": "",
          "type": "string",
          "internalType": "string"
        }
      ],
      "stateMutability": "view"
    },
    {
      "type": "function",
      "name": "verifyClaim",
      "inputs": [
        {
          "name": "claimId",
          "type": "uint256",
          "internalType": "uint256"
        },
        {
          "name": "contributors",
          "type": "tuple[]",
          "internalType": "struct ILM_PC_Bounties_v1.Contributor[]",
          "components": [
            {
              "name": "addr",
              "type": "address",
              "internalType": "address"
            },
            {
              "name": "claimAmount",
              "type": "uint256",
              "internalType": "uint256"
            }
          ]
        }
      ],
      "outputs": [],
      "stateMutability": "nonpayable"
    },
    {
      "type": "function",
      "name": "version",
      "inputs": [],
      "outputs": [
        {
          "name": "",
          "type": "uint256",
          "internalType": "uint256"
        },
        {
          "name": "",
          "type": "uint256",
          "internalType": "uint256"
        }
      ],
      "stateMutability": "view"
    },
    {
      "type": "event",
      "name": "BountyAdded",
      "inputs": [
        {
          "name": "bountyId",
          "type": "uint256",
          "indexed": true,
          "internalType": "uint256"
        },
        {
          "name": "minimumPayoutAmount",
          "type": "uint256",
          "indexed": false,
          "internalType": "uint256"
        },
        {
          "name": "maximumPayoutAmount",
          "type": "uint256",
          "indexed": false,
          "internalType": "uint256"
        },
        {
          "name": "details",
          "type": "bytes",
          "indexed": false,
          "internalType": "bytes"
        }
      ],
      "anonymous": false
    },
    {
      "type": "event",
      "name": "BountyLocked",
      "inputs": [
        {
          "name": "bountyId",
          "type": "uint256",
          "indexed": true,
          "internalType": "uint256"
        }
      ],
      "anonymous": false
    },
    {
      "type": "event",
      "name": "BountyUpdated",
      "inputs": [
        {
          "name": "bountyId",
          "type": "uint256",
          "indexed": true,
          "internalType": "uint256"
        },
        {
          "name": "details",
          "type": "bytes",
          "indexed": true,
          "internalType": "bytes"
        }
      ],
      "anonymous": false
    },
    {
      "type": "event",
      "name": "ClaimAdded",
      "inputs": [
        {
          "name": "claimId",
          "type": "uint256",
          "indexed": true,
          "internalType": "uint256"
        },
        {
          "name": "bountyId",
          "type": "uint256",
          "indexed": true,
          "internalType": "uint256"
        },
        {
          "name": "contributors",
          "type": "tuple[]",
          "indexed": true,
          "internalType": "struct ILM_PC_Bounties_v1.Contributor[]",
          "components": [
            {
              "name": "addr",
              "type": "address",
              "internalType": "address"
            },
            {
              "name": "claimAmount",
              "type": "uint256",
              "internalType": "uint256"
            }
          ]
        },
        {
          "name": "details",
          "type": "bytes",
          "indexed": false,
          "internalType": "bytes"
        }
      ],
      "anonymous": false
    },
    {
      "type": "event",
      "name": "ClaimContributorsUpdated",
      "inputs": [
        {
          "name": "claimId",
          "type": "uint256",
          "indexed": true,
          "internalType": "uint256"
        },
        {
          "name": "contributors",
          "type": "tuple[]",
          "indexed": true,
          "internalType": "struct ILM_PC_Bounties_v1.Contributor[]",
          "components": [
            {
              "name": "addr",
              "type": "address",
              "internalType": "address"
            },
            {
              "name": "claimAmount",
              "type": "uint256",
              "internalType": "uint256"
            }
          ]
        }
      ],
      "anonymous": false
    },
    {
      "type": "event",
      "name": "ClaimDetailsUpdated",
      "inputs": [
        {
          "name": "claimId",
          "type": "uint256",
          "indexed": true,
          "internalType": "uint256"
        },
        {
          "name": "details",
          "type": "bytes",
          "indexed": false,
          "internalType": "bytes"
        }
      ],
      "anonymous": false
    },
    {
      "type": "event",
      "name": "ClaimVerified",
      "inputs": [
        {
          "name": "claimId",
          "type": "uint256",
          "indexed": true,
          "internalType": "uint256"
        }
      ],
      "anonymous": false
    },
    {
      "type": "event",
      "name": "Initialized",
      "inputs": [
        {
          "name": "version",
          "type": "uint64",
          "indexed": false,
          "internalType": "uint64"
        }
      ],
      "anonymous": false
    },
    {
      "type": "event",
      "name": "ModuleInitialized",
      "inputs": [
        {
          "name": "parentOrchestrator",
          "type": "address",
          "indexed": true,
          "internalType": "address"
        },
        {
          "name": "moduleTitle",
          "type": "string",
          "indexed": true,
          "internalType": "string"
        },
        {
          "name": "majorVersion",
          "type": "uint256",
          "indexed": false,
          "internalType": "uint256"
        },
        {
          "name": "minorVersion",
          "type": "uint256",
          "indexed": false,
          "internalType": "uint256"
        }
      ],
      "anonymous": false
    },
    {
      "type": "event",
      "name": "PaymentOrderAdded",
      "inputs": [
        {
          "name": "recipient",
          "type": "address",
          "indexed": true,
          "internalType": "address"
        },
        {
          "name": "token",
          "type": "address",
          "indexed": true,
          "internalType": "address"
        },
        {
          "name": "amount",
          "type": "uint256",
          "indexed": false,
          "internalType": "uint256"
        }
      ],
      "anonymous": false
    },
    {
      "type": "error",
      "name": "AddressEmptyCode",
      "inputs": [
        {
          "name": "target",
          "type": "address",
          "internalType": "address"
        }
      ]
    },
    {
      "type": "error",
      "name": "AddressInsufficientBalance",
      "inputs": [
        {
          "name": "account",
          "type": "address",
          "internalType": "address"
        }
      ]
    },
    {
      "type": "error",
      "name": "FailedInnerCall",
      "inputs": []
    },
    {
      "type": "error",
      "name": "InvalidInitialization",
      "inputs": []
    },
    {
      "type": "error",
      "name": "Library__LinkedIdList__InvalidNewId",
      "inputs": []
    },
    {
      "type": "error",
      "name": "Module_OrchestratorCallbackFailed",
      "inputs": [
        {
          "name": "funcSig",
          "type": "string",
          "internalType": "string"
        }
      ]
    },
    {
      "type": "error",
      "name": "Module__CallerNotAuthorized",
      "inputs": [
        {
          "name": "role",
          "type": "bytes32",
          "internalType": "bytes32"
        },
        {
          "name": "caller",
          "type": "address",
          "internalType": "address"
        }
      ]
    },
    {
      "type": "error",
      "name": "Module__ERC20PaymentClientBase__ArrayLengthMismatch",
      "inputs": []
    },
    {
      "type": "error",
      "name": "Module__ERC20PaymentClientBase__CallerNotAuthorized",
      "inputs": []
    },
    {
      "type": "error",
      "name": "Module__ERC20PaymentClientBase__InsufficientFunds",
      "inputs": [
        {
          "name": "token",
          "type": "address",
          "internalType": "address"
        }
      ]
    },
    {
      "type": "error",
      "name": "Module__ERC20PaymentClientBase__InvalidAmount",
      "inputs": []
    },
    {
      "type": "error",
      "name": "Module__ERC20PaymentClientBase__InvalidRecipient",
      "inputs": []
    },
    {
      "type": "error",
      "name": "Module__ERC20PaymentClientBase__InvalidToken",
      "inputs": []
    },
    {
      "type": "error",
      "name": "Module__ERC20PaymentClientBase__Invalidend",
      "inputs": []
    },
    {
      "type": "error",
      "name": "Module__ERC20PaymentClientBase__TokenTransferFailed",
      "inputs": []
    },
    {
      "type": "error",
      "name": "Module__InvalidMetadata",
      "inputs": []
    },
    {
      "type": "error",
      "name": "Module__InvalidOrchestratorAddress",
      "inputs": []
    },
    {
      "type": "error",
      "name": "Module__LM_PC_Bounty__AlreadyClaimed",
      "inputs": []
    },
    {
      "type": "error",
      "name": "Module__LM_PC_Bounty__BountyLocked",
      "inputs": []
    },
    {
      "type": "error",
      "name": "Module__LM_PC_Bounty__ClaimExceedsGivenPayoutAmounts",
      "inputs": []
    },
    {
      "type": "error",
      "name": "Module__LM_PC_Bounty__ContributorsChanged",
      "inputs": []
    },
    {
      "type": "error",
      "name": "Module__LM_PC_Bounty__InvalidBountyId",
      "inputs": []
    },
    {
      "type": "error",
      "name": "Module__LM_PC_Bounty__InvalidClaimId",
      "inputs": []
    },
    {
      "type": "error",
      "name": "Module__LM_PC_Bounty__InvalidContributorAddress",
      "inputs": []
    },
    {
      "type": "error",
      "name": "Module__LM_PC_Bounty__InvalidContributorAmount",
      "inputs": []
    },
    {
      "type": "error",
      "name": "Module__LM_PC_Bounty__InvalidContributorsLength",
      "inputs": []
    },
    {
      "type": "error",
      "name": "Module__LM_PC_Bounty__InvalidPayoutAmounts",
      "inputs": []
    },
    {
      "type": "error",
      "name": "Module__LM_PC_Bounty__OnlyClaimContributor",
      "inputs": []
    },
    {
      "type": "error",
      "name": "Module__OnlyCallableByOrchestrator",
      "inputs": []
    },
    {
      "type": "error",
      "name": "NotInitializing",
      "inputs": []
    },
    {
      "type": "error",
      "name": "SafeERC20FailedOperation",
      "inputs": [
        {
          "name": "token",
          "type": "address",
          "internalType": "address"
        }
      ]
    }
  ],
  "bytecode": {
    "object": "0x60a06040523480156200001157600080fd5b5060006080526200002162000027565b620000db565b7ff0c57e16840df040f15088dc2f81fe391c3923bec73e23a9662efc9c229c6a00805468010000000000000000900460ff1615620000785760405163f92ee8a960e01b815260040160405180910390fd5b80546001600160401b0390811614620000d85780546001600160401b0319166001600160401b0390811782556040519081527fc7f505b2f371ae2175ee4913f4499e1f2633a7b5936321eed1cdaeb6115181d29060200160405180910390a15b50565b608051614cc4620000f460003960005050614cc46000f3fe608060405234801561001057600080fd5b50600436106102265760003560e01c80637998a1c41161012a578063bcb61920116100bd578063c0231ff61161008c578063e2114c8c11610071578063e2114c8c146104cc578063e7705db6146104df578063fa4dbd031461050657600080fd5b8063c0231ff614610495578063cb05296f146104ac57600080fd5b8063bcb6192014610449578063bd769f791461045c578063be5a57451461046f578063bf1f96561461048257600080fd5b80639c16f525116100f95780639c16f5251461040a578063b33ec6181461041d578063b5e8bc4514610430578063b74795d91461043857600080fd5b80637998a1c4146103b95780637bfee048146103c15780637da0a877146103d85780638a867368146103f857600080fd5b80633cd6b5d1116101bd5780635600f04f1161018c5780635beaeb8c116101715780635beaeb8c1461037e5780636c67e8071461039157806375fa0b76146103a457600080fd5b80635600f04f14610363578063572b6c051461036b57600080fd5b80633cd6b5d11461030b57806342dfe958146103205780634a79d50c1461033357806354fd4d501461034857600080fd5b80632d54a71c116101f95780632d54a71c1461029c5780632e84db5f146102af57806331be580e146102d857806331de0bdb146102f857600080fd5b806301ffc9a71461022b5780630d97d72c1461025357806324e3027014610274578063272bbd4414610289575b600080fd5b61023e610239366004613ed3565b610519565b60405190151581526020015b60405180910390f35b610266610261366004613fa3565b610575565b60405190815260200161024a565b61028761028236600461401d565b610972565b005b61028761029736600461401d565b610af9565b6102876102aa36600461409c565b610be8565b6102666102bd3660046140fd565b6001600160a01b031660009081526006602052604090205490565b6102eb6102e636600461411a565b610e04565b60405161024a9190614183565b61028761030636600461409c565b610f36565b61031361105e565b60405161024a9190614207565b61028761032e366004614308565b61106f565b61033b611223565b60405161024a91906143e4565b6001546002546040805192835260208301919091520161024a565b61033b6112b8565b61023e6103793660046140fd565b6112ca565b61028761038c3660046143f7565b611352565b61028761039f366004614436565b611638565b6103ac61177a565b60405161024a91906144d7565b61026661181d565b6102666c2127aaa72a2cafa4a9a9aaa2a960991b81565b6103e0611968565b6040516001600160a01b03909116815260200161024a565b6102666710d310525350539560c21b81565b6103136104183660046140fd565b6119e0565b61028761042b3660046144ea565b611a04565b610313611a7b565b6000546001600160a01b03166103e0565b610287610457366004614436565b611a87565b61026661046a366004614516565b611b97565b61023e61047d36600461411a565b611cd9565b6102876104903660046143f7565b611ce6565b61049d61217d565b60405161024a93929190614569565b6104bf6104ba36600461411a565b612655565b60405161024a91906145dc565b61023e6104da36600461411a565b612756565b6102667f564552494649455200000000000000000000000000000000000000000000000081565b61028761051436600461411a565b612763565b60007fffffffff0000000000000000000000000000000000000000000000000000000082167f010bb25200000000000000000000000000000000000000000000000000000000148061056f575061056f8261286d565b92915050565b60006710d310525350539560c21b61069460008054906101000a90046001600160a01b03166001600160a01b031663d09edf316040518163ffffffff1660e01b8152600401602060405180830381865afa1580156105d7573d6000803e3d6000fd5b505050506040513d601f19601f820116820180604052508101906105fb9190614681565b6040517ffdd5205f000000000000000000000000000000000000000000000000000000008152306004820152602481018490526001600160a01b03919091169063fdd5205f906044016020604051808303816000875af1158015610663573d6000803e3d6000fd5b505050506040513d601f19601f82011682018060405250810190610687919061469e565b61068f6128c3565b612915565b8661069e81611cd9565b6106bb57604051630a3c13ff60e31b815260040160405180910390fd5b600088815260086020526040902060030154889060ff16156106f0576040516355eceaeb60e11b815260040160405180910390fd5b6108208888808060200260200160405190810160405280939291908181526020016000905b8282101561074157610732604083028601368190038101906146b7565b81526020019060010190610715565b5050505050600860008c815260200190815260200160002060405180608001604052908160008201548152602001600182015481526020016002820180546107889061470f565b80601f01602080910402602001604051908101604052809291908181526020018280546107b49061470f565b80156108015780601f106107d657610100808354040283529160200191610801565b820191906000526020600020905b8154815290600101906020018083116107e457829003601f168201915b50505091835250506003919091015460ff161515602090910152612a67565b600060076000815461083190614759565b91829055509050610843600d82612c08565b6000818152600c602052604081208b81559089905b818110156108fe57826001018c8c8381811061087657610876614773565b8354600181018555600094855260209094206040909102929092019260020290910190506108a48282614789565b50506108f584601060008f8f868181106108c0576108c0614773565b6108d692602060409092020190810191506140fd565b6001600160a01b03168152602081019190915260400160002090612c95565b50600101610858565b506002820161090e898b83614811565b508a8a60405161091f9291906148d1565b60405180910390208c847f23ea023b108a98377fb5440ffbb7fe7a5c3827c821ef0e16fbd60af8b93cddac8c8c60405161095a929190614947565b60405180910390a450909a9950505050505050505050565b6000546040805163d09edf3160e01b81529051610a1e926001600160a01b03169163d09edf319160048083019260209291908290030181865afa1580156109bd573d6000803e3d6000fd5b505050506040513d601f19601f820116820180604052508101906109e19190614681565b6001600160a01b03166355ff58d46040518163ffffffff1660e01b8152600401602060405180830381865afa158015610663573d6000803e3d6000fd5b60008054906101000a90046001600160a01b03166001600160a01b031663d09edf316040518163ffffffff1660e01b8152600401602060405180830381865afa158015610a6f573d6000803e3d6000fd5b505050506040513d601f19601f82011682018060405250810190610a939190614681565b6001600160a01b0316637d540a648484846040518463ffffffff1660e01b8152600401610ac293929190614963565b600060405180830381600087803b158015610adc57600080fd5b505af1158015610af0573d6000803e3d6000fd5b50505050505050565b6000546040805163d09edf3160e01b81529051610b44926001600160a01b03169163d09edf319160048083019260209291908290030181865afa1580156109bd573d6000803e3d6000fd5b60008054906101000a90046001600160a01b03166001600160a01b031663d09edf316040518163ffffffff1660e01b8152600401602060405180830381865afa158015610b95573d6000803e3d6000fd5b505050506040513d601f19601f82011682018060405250810190610bb99190614681565b6001600160a01b031663648154538484846040518463ffffffff1660e01b8152600401610ac293929190614963565b82610bf281612756565b610c0f576040516355cee66560e11b815260040160405180910390fd5b6000848152600c6020526040902060030154849060ff1615610c445760405163581991ff60e01b815260040160405180910390fd5b6000858152600c602090815260408083205480845260089092529091206003015460ff1615610c86576040516355eceaeb60e11b815260040160405180910390fd5b856000610c916128c3565b90506000600c6000848152602001908152602001600020600101805480602002602001604051908101604052809291908181526020016000905b82821015610d13576000848152602090819020604080518082019091526002850290910180546001600160a01b03168252600190810154828401529083529092019101610ccb565b5050825192935060009150505b81811015610d6757836001600160a01b0316838281518110610d4457610d44614773565b6020026020010151600001516001600160a01b03160315610d6757600101610d20565b818110610da0576040517fb7b3e8c500000000000000000000000000000000000000000000000000000000815260040160405180910390fd5b60008b8152600c60205260409020600201610dbc8a8c83614811565b508a7f4128fe4992a5cb5a9cb54a23107ba2cd9db975f7f66fd5a978927aaf54350a998b8b604051610def929190614947565b60405180910390a25050505050505050505050565b610e3160405180608001604052806000815260200160008152602001606081526020016000151581525090565b81610e3b81611cd9565b610e5857604051630a3c13ff60e31b815260040160405180910390fd5b600860008481526020019081526020016000206040518060800160405290816000820154815260200160018201548152602001600282018054610e9a9061470f565b80601f0160208091040260200160405190810160405280929190818152602001828054610ec69061470f565b8015610f135780601f10610ee857610100808354040283529160200191610f13565b820191906000526020600020905b815481529060010190602001808311610ef657829003601f168201915b50505091835250506003919091015460ff16151560209091015291505b50919050565b6c2127aaa72a2cafa4a9a9aaa2a960991b610f9b60008054906101000a90046001600160a01b03166001600160a01b031663d09edf316040518163ffffffff1660e01b8152600401602060405180830381865afa1580156105d7573d6000803e3d6000fd5b83610fa581611cd9565b610fc257604051630a3c13ff60e31b815260040160405180910390fd5b600085815260086020526040902060030154859060ff1615610ff7576040516355eceaeb60e11b815260040160405180910390fd5b6000868152600860205260409020600201611013858783614811565b5084846040516110249291906149bb565b6040519081900381209087907f5b748b1bf798d437f4457fa662e95d5b99ba7c5c739e2d6342c7d06c4ad4300790600090a3505050505050565b606061106a600d612ca8565b905090565b7ff0c57e16840df040f15088dc2f81fe391c3923bec73e23a9662efc9c229c6a00805468010000000000000000810460ff16159067ffffffffffffffff166000811580156110ba5750825b905060008267ffffffffffffffff1660011480156110d75750303b155b9050811580156110e5575080155b1561111c576040517ff92ee8a900000000000000000000000000000000000000000000000000000000815260040160405180910390fd5b84547fffffffffffffffffffffffffffffffffffffffffffffffff0000000000000000166001178555831561116757845468ff00000000000000001916680100000000000000001785555b6111718888612d62565b60001960008190527f5030e2ff9d3404671c17fc42c5714d9bdf34dbce2663e34014ba8c942df513fb819055600a819055600f6020527f5f49b1b339959b31ad74f07b88b44259ea11bfb77e53c425ee4e04612cace647819055600e55831561121957845468ff000000000000000019168555604051600181527fc7f505b2f371ae2175ee4913f4499e1f2633a7b5936321eed1cdaeb6115181d29060200160405180910390a15b5050505050505050565b6060600160030180546112359061470f565b80601f01602080910402602001604051908101604052809291908181526020018280546112619061470f565b80156112ae5780601f10611283576101008083540402835291602001916112ae565b820191906000526020600020905b81548152906001019060200180831161129157829003601f168201915b5050505050905090565b6060600160020180546112359061470f565b600080546040517f572b6c050000000000000000000000000000000000000000000000000000000081526001600160a01b0384811660048301529091169063572b6c0590602401602060405180830381865afa15801561132e573d6000803e3d6000fd5b505050506040513d601f19601f8201168201806040525081019061056f91906149e0565b8261135c81612756565b611379576040516355cee66560e11b815260040160405180910390fd5b6000848152600c6020526040902060030154849060ff16156113ae5760405163581991ff60e01b815260040160405180910390fd5b6000858152600c602090815260408083205480845260089092529091206003015460ff16156113f0576040516355eceaeb60e11b815260040160405180910390fd5b6710d310525350539560c21b61145060008054906101000a90046001600160a01b03166001600160a01b031663d09edf316040518163ffffffff1660e01b8152600401602060405180830381865afa1580156105d7573d6000803e3d6000fd5b6114f28686808060200260200160405190810160405280939291908181526020016000905b828210156114a157611492604083028601368190038101906146b7565b81526020019060010190611475565b50505060008b8152600c60209081526040808320548352600882529182902082516080810184528154815260018201549281019290925260028101805492955090935091840191906107889061470f565b6000878152600c60205260408120600181015490915b818110156115655761155c8a6010600086600101858154811061152d5761152d614773565b600091825260208083206002909202909101546001600160a01b03168352820192909252604001902090612eb3565b50600101611508565b50611574600183016000613e05565b508560005b818110156115ea578260010189898381811061159757611597614773565b8354600181018555600094855260209094206040909102929092019260020290910190506115c58282614789565b50506115e18a601060008c8c868181106108c0576108c0614773565b50600101611579565b5087876040516115fb9291906148d1565b604051908190038120908a907f1d41ce0f1e2efe8a516e804c8208a8a92b1931eb13d5c7be8847790b6eb25ec190600090a3505050505050505050565b6000546040805163d09edf3160e01b81529051611683926001600160a01b03169163d09edf319160048083019260209291908290030181865afa1580156109bd573d6000803e3d6000fd5b60008054906101000a90046001600160a01b03166001600160a01b031663d09edf316040518163ffffffff1660e01b8152600401602060405180830381865afa1580156116d4573d6000803e3d6000fd5b505050506040513d601f19601f820116820180604052508101906116f89190614681565b6040517fe1788154000000000000000000000000000000000000000000000000000000008152600481018490526001600160a01b038381166024830152919091169063e1788154906044015b600060405180830381600087803b15801561175e57600080fd5b505af1158015611772573d6000803e3d6000fd5b505050505050565b60606005805480602002602001604051908101604052809291908181526020016000905b828210156118145760008481526020908190206040805160c0810182526006860290920180546001600160a01b0390811684526001808301549091168486015260028201549284019290925260038101546060840152600481015460808401526005015460a0830152908352909201910161179e565b50505050905090565b6040805160808101825260018054825260025460208301526003805460009461106a9493929084019161184f9061470f565b80601f016020809104026020016040519081016040528092919081815260200182805461187b9061470f565b80156118c85780601f1061189d576101008083540402835291602001916118c8565b820191906000526020600020905b8154815290600101906020018083116118ab57829003601f168201915b505050505081526020016003820180546118e19061470f565b80601f016020809104026020016040519081016040528092919081815260200182805461190d9061470f565b801561195a5780601f1061192f5761010080835404028352916020019161195a565b820191906000526020600020905b81548152906001019060200180831161193d57829003601f168201915b505050505081525050612ebf565b60008060009054906101000a90046001600160a01b03166001600160a01b0316637da0a8776040518163ffffffff1660e01b8152600401602060405180830381865afa1580156119bc573d6000803e3d6000fd5b505050506040513d601f19601f8201168201806040525081019061106a9190614681565b6001600160a01b038116600090815260106020526040902060609061056f90612eff565b611a14611a0f6128c3565b612f0c565b611a4a576040517fe4597a6b00000000000000000000000000000000000000000000000000000000815260040160405180910390fd5b6001600160a01b03821660009081526006602052604081208054839290611a729084906149fb565b90915550505050565b606061106a6009612ca8565b6000546040805163d09edf3160e01b81529051611ad2926001600160a01b03169163d09edf319160048083019260209291908290030181865afa1580156109bd573d6000803e3d6000fd5b60008054906101000a90046001600160a01b03166001600160a01b031663d09edf316040518163ffffffff1660e01b8152600401602060405180830381865afa158015611b23573d6000803e3d6000fd5b505050506040513d601f19601f82011682018060405250810190611b479190614681565b6040517fba66f9fc000000000000000000000000000000000000000000000000000000008152600481018490526001600160a01b038381166024830152919091169063ba66f9fc90604401611744565b60006c2127aaa72a2cafa4a9a9aaa2a960991b611bfe60008054906101000a90046001600160a01b03166001600160a01b031663d09edf316040518163ffffffff1660e01b8152600401602060405180830381865afa1580156105d7573d6000803e3d6000fd5b8585811580611c0c57508181105b15611c43576040517f319c666800000000000000000000000000000000000000000000000000000000815260040160405180910390fd5b6000600760008154611c5490614759565b91829055509050611c66600982612c08565b60008181526008602052604090208981556001810189905560028101611c8d888a83614811565b50817f16aa89bae6ad0e0b7a94b930e87a8e04b02978ed503e2698b1b6359416e1ac838b8b8b8b604051611cc49493929190614a0e565b60405180910390a25098975050505050505050565b600061056f600983612fa5565b7f5645524946494552000000000000000000000000000000000000000000000000611d5b60008054906101000a90046001600160a01b03166001600160a01b031663d09edf316040518163ffffffff1660e01b8152600401602060405180830381865afa1580156105d7573d6000803e3d6000fd5b83611d6581612756565b611d82576040516355cee66560e11b815260040160405180910390fd5b6000858152600c6020526040902060030154859060ff1615611db75760405163581991ff60e01b815260040160405180910390fd5b6000868152600c602090815260408083205480845260089092529091206003015460ff1615611df9576040516355eceaeb60e11b815260040160405180910390fd5b611e55878787808060200260200160405190810160405280939291908181526020016000905b82821015611e4b57611e3c604083028601368190038101906146b7565b81526020019060010190611e1f565b5050505050612fca565b6000878152600c6020908152604080832060010180548251818502810185019093528083529192909190849084015b82821015611ecc576000848152602090819020604080518082019091526002850290910180546001600160a01b03168252600190810154828401529083529092019101611e84565b505082516040805180820190915260008082526020820152939450929150611ef19050565b60005b8281101561204357838181518110611f0e57611f0e614773565b6020026020010151915061203b6040518060c0016040528084600001516001600160a01b03168152602001611f4b6000546001600160a01b031690565b6001600160a01b03166304baed9e6040518163ffffffff1660e01b8152600401602060405180830381865afa158015611f88573d6000803e3d6000fd5b505050506040513d601f19601f82011682018060405250810190611fac9190614681565b6001600160a01b031663fc0c546a6040518163ffffffff1660e01b8152600401602060405180830381865afa158015611fe9573d6000803e3d6000fd5b505050506040513d601f19601f8201168201806040525081019061200d9190614681565b6001600160a01b03168152602001846020015181526020014281526020016000815260200142815250613131565b600101611ef4565b5060008054906101000a90046001600160a01b03166001600160a01b031663f1c6bdf86040518163ffffffff1660e01b8152600401602060405180830381865afa158015612095573d6000803e3d6000fd5b505050506040513d601f19601f820116820180604052508101906120b99190614681565b6040517fe151fc610000000000000000000000000000000000000000000000000000000081523060048201526001600160a01b03919091169063e151fc6190602401600060405180830381600087803b15801561211557600080fd5b505af1158015612129573d6000803e3d6000fd5b50505060008b8152600c6020526040808220600301805460ff19166001179055518c92507f393efda0b92bc01071b66a816d6bcddde867b8c91da505a0f309d9133a53650a9190a250505050505050505050565b606080606061218d611a0f6128c3565b6121c3576040517fe4597a6b00000000000000000000000000000000000000000000000000000000815260040160405180910390fd5b6005546000808267ffffffffffffffff8111156121e2576121e261421a565b60405190808252806020026020018201604052801561220b578160200160208202803683370190505b50905060008367ffffffffffffffff8111156122295761222961421a565b604051908082528060200260200182016040528015612252578160200160208202803683370190505b50905060008467ffffffffffffffff8111156122705761227061421a565b6040519080825280602002602001820160405280156122ec57816020015b6122d96040518060c0016040528060006001600160a01b0316815260200160006001600160a01b03168152602001600081526020016000815260200160008152602001600081525090565b81526020019060019003908161228e5790505b50905060005b858110156124c6576005818154811061230d5761230d614773565b60009182526020918290206040805160c081018252600690930290910180546001600160a01b03908116845260018201541693830193909352600283015490820152600382015460608201526004820154608082015260059091015460a0820152825183908390811061238257612382614773565b60200260200101819052506000805b868110156123f9578383815181106123ab576123ab614773565b6020026020010151602001516001600160a01b03168682815181106123d2576123d2614773565b60200260200101516001600160a01b0316036123f157600191506123f9565b600101612391565b50806124bd5782828151811061241157612411614773565b60200260200101516020015185878151811061242f5761242f614773565b60200260200101906001600160a01b031690816001600160a01b0316815250506006600084848151811061246557612465614773565b6020026020010151602001516001600160a01b03166001600160a01b03168152602001908152602001600020548487815181106124a4576124a4614773565b6020908102919091010152856124b981614759565b9650505b506001016122f2565b506124d360056000613e26565b60008467ffffffffffffffff8111156124ee576124ee61421a565b604051908082528060200260200182016040528015612517578160200160208202803683370190505b50905060008567ffffffffffffffff8111156125355761253561421a565b60405190808252806020026020018201604052801561255e578160200160208202803683370190505b50905060005b868110156126445785818151811061257e5761257e614773565b602002602001015183828151811061259857612598614773565b60200260200101906001600160a01b031690816001600160a01b0316815250508481815181106125ca576125ca614773565b60200260200101518282815181106125e4576125e4614773565b60200260200101818152505061261a6125fb6128c3565b84838151811061260d5761260d614773565b60200260200101516132f3565b61263c83828151811061262f5761262f614773565b6020026020010151613318565b600101612564565b509199909850909650945050505050565b61268260405180608001604052806000815260200160608152602001606081526020016000151581525090565b8161268c81612756565b6126a9576040516355cee66560e11b815260040160405180910390fd5b600c60008481526020019081526020016000206040518060800160405290816000820154815260200160018201805480602002602001604051908101604052809291908181526020016000905b8282101561273e576000848152602090819020604080518082019091526002850290910180546001600160a01b031682526001908101548284015290835290920191016126f6565b505050508152602001600282018054610e9a9061470f565b600061056f600d83612fa5565b6c2127aaa72a2cafa4a9a9aaa2a960991b6127c860008054906101000a90046001600160a01b03166001600160a01b031663d09edf316040518163ffffffff1660e01b8152600401602060405180830381865afa1580156105d7573d6000803e3d6000fd5b816127d281611cd9565b6127ef57604051630a3c13ff60e31b815260040160405180910390fd5b600083815260086020526040902060030154839060ff1615612824576040516355eceaeb60e11b815260040160405180910390fd5b600084815260086020526040808220600301805460ff191660011790555185917fa0e18720f77efbbf5292a427112cd5b87106c4dd3e6b27fe1fa001090a508a4091a250505050565b60007fffffffff0000000000000000000000000000000000000000000000000000000082167f286309c700000000000000000000000000000000000000000000000000000000148061056f575061056f826136b1565b60003660146128d1336112ca565b80156128dd5750808210155b1561290d576000366128ef83856149fb565b6128fa928290614a2e565b61290391614a58565b60601c9250505090565b339250505090565b60008054906101000a90046001600160a01b03166001600160a01b031663d09edf316040518163ffffffff1660e01b8152600401602060405180830381865afa158015612966573d6000803e3d6000fd5b505050506040513d601f19601f8201168201806040525081019061298a9190614681565b6040517f91d14854000000000000000000000000000000000000000000000000000000008152600481018490526001600160a01b03838116602483015291909116906391d1485490604401602060405180830381865afa1580156129f2573d6000803e3d6000fd5b505050506040513d601f19601f82011682018060405250810190612a1691906149e0565b612a63576040517f42abbb77000000000000000000000000000000000000000000000000000000008152600481018390526001600160a01b03821660248201526044015b60405180910390fd5b5050565b81516000819003612aa4576040517f6dbf3d2600000000000000000000000000000000000000000000000000000000815260040160405180910390fd5b60008054819081906001600160a01b0316815b85811015612bbe57878181518110612ad157612ad1614773565b602002602001015160200151935083600003612b19576040517f7d1deb2e00000000000000000000000000000000000000000000000000000000815260040160405180910390fd5b878181518110612b2b57612b2b614773565b60209081029190910101515192506001600160a01b0383161580612b5757506001600160a01b03831630145b80612b735750816001600160a01b0316836001600160a01b0316145b15612baa576040517f6516c49600000000000000000000000000000000000000000000000000000000815260040160405180910390fd5b612bb48486614aa0565b9450600101612ab7565b508560200151841180612bd15750855184105b15610af0576040517fbbca26ee00000000000000000000000000000000000000000000000000000000815260040160405180910390fd5b8181612c148282612fa5565b80612c1d575080155b15612c54576040517f582fbbaf00000000000000000000000000000000000000000000000000000000815260040160405180910390fd5b600184018054600090815260028601602052604080822086905585825281206000199055908490558454908590612c8a83614759565b919050555050505050565b6000612ca18383613748565b9392505050565b60606000826000015467ffffffffffffffff811115612cc957612cc961421a565b604051908082528060200260200182016040528015612cf2578160200160208202803683370190505b506000196000908152600285016020526040812054919250905b6000198114612d595780838381518110612d2857612d28614773565b6020908102919091018101919091526000918252600286019052604090205481612d5181614759565b925050612d0c565b50909392505050565b612d6a613797565b6001600160a01b038216612daa576040517f7280679300000000000000000000000000000000000000000000000000000000815260040160405180910390fd5b6000805473ffffffffffffffffffffffffffffffffffffffff19166001600160a01b038416179055612ddb81613800565b612e11576040517f7511254100000000000000000000000000000000000000000000000000000000815260040160405180910390fd5b8051600190815560208201516002556040820151829190600390612e359082614ab3565b5060608201516003820190612e4a9082614ab3565b5050506060810151604051612e5f9190614b73565b604080519182900382208351602080860151918552840152916001600160a01b038516917feb175f148a71d29a5f7bf5439182fcd81e6ea9cfc8a11b54ab0f705fa98fa8ca91015b60405180910390a35050565b6000612ca18383613852565b6000816000015182604001518360600151604051602001612ee293929190614b8f565b604051602081830303815290604052805190602001209050919050565b60606000612ca183613945565b60008054604080517ff1c6bdf800000000000000000000000000000000000000000000000000000000815290516001600160a01b0380861693169163f1c6bdf89160048083019260209291908290030181865afa158015612f71573d6000803e3d6000fd5b505050506040513d601f19601f82011682018060405250810190612f959190614681565b6001600160a01b03161492915050565b600081815260028301602052604081205415801590612ca15750506000191415919050565b6000828152600c6020908152604080832060010180548251818502810185019093528083529192909190849084015b82821015613041576000848152602090819020604080518082019091526002850290910180546001600160a01b03168252600190810154828401529083529092019101612ff9565b5050845192935060009150505b8181101561312a5782818151811061306857613068614773565b6020026020010151600001516001600160a01b031684828151811061308f5761308f614773565b6020026020010151600001516001600160a01b03161415806130eb57508281815181106130be576130be614773565b6020026020010151602001518482815181106130dc576130dc614773565b60200260200101516020015114155b15613122576040517fb854595500000000000000000000000000000000000000000000000000000000815260040160405180910390fd5b60010161304e565b5050505050565b8061313b816139a1565b81604001516006600084602001516001600160a01b03166001600160a01b0316815260200190815260200160002060008282546131789190614aa0565b909155505060058054600181018255600091909152825160069091027f036b6384b5eca791c62761152d0c79bb0604c104a5fb6f4eb0703f3154bb3db0810180546001600160a01b0393841673ffffffffffffffffffffffffffffffffffffffff19918216811790925560208601517f036b6384b5eca791c62761152d0c79bb0604c104a5fb6f4eb0703f3154bb3db18401805491909516911681179093556040808601517f036b6384b5eca791c62761152d0c79bb0604c104a5fb6f4eb0703f3154bb3db2840181905560608701517f036b6384b5eca791c62761152d0c79bb0604c104a5fb6f4eb0703f3154bb3db385015560808701517f036b6384b5eca791c62761152d0c79bb0604c104a5fb6f4eb0703f3154bb3db485015560a08701517f036b6384b5eca791c62761152d0c79bb0604c104a5fb6f4eb0703f3154bb3db5909401939093555190917f21b8b94494ef1aff6ce0f5f3741800bdb27204fd430c1280b54d4cc653ae6f3a91612ea791815260200190565b6001600160a01b038116600081815260066020526040902054612a63919084906139c9565b6001600160a01b0381166000818152600660205260408082205490517f70a082310000000000000000000000000000000000000000000000000000000081523060048201529092906370a0823190602401602060405180830381865afa158015613386573d6000803e3d6000fd5b505050506040513d601f19601f820116820180604052508101906133aa919061469e565b9050818110156136ac5760008054906101000a90046001600160a01b03166001600160a01b03166304baed9e6040518163ffffffff1660e01b8152600401602060405180830381865afa158015613405573d6000803e3d6000fd5b505050506040513d601f19601f820116820180604052508101906134299190614681565b6001600160a01b031663fc0c546a6040518163ffffffff1660e01b8152600401602060405180830381865afa158015613466573d6000803e3d6000fd5b505050506040513d601f19601f8201168201806040525081019061348a9190614681565b6001600160a01b0316836001600160a01b03160361366f5760008054604080517f04baed9e00000000000000000000000000000000000000000000000000000000815290516001600160a01b039092169163685dc6b19183916304baed9e916004808201926020929091908290030181865afa15801561350e573d6000803e3d6000fd5b505050506040513d601f19601f820116820180604052508101906135329190614681565b3061353d86886149fb565b6040516001600160a01b039092166024830152604482015260640160408051601f198184030181529181526020820180517bffffffffffffffffffffffffffffffffffffffffffffffffffffffff167f759cc4b500000000000000000000000000000000000000000000000000000000179052517fffffffff0000000000000000000000000000000000000000000000000000000060e085901b1681526135e8929190600401614bcc565b6000604051808303816000875af1158015613607573d6000803e3d6000fd5b505050506040513d6000823e601f3d908101601f1916820160405261362f9190810190614bee565b50905080613669576040517f1a299f4400000000000000000000000000000000000000000000000000000000815260040160405180910390fd5b50505050565b6040517f8ca235960000000000000000000000000000000000000000000000000000000081526001600160a01b0384166004820152602401612a5a565b505050565b60007fffffffff0000000000000000000000000000000000000000000000000000000082167f179dfb4500000000000000000000000000000000000000000000000000000000148061056f57507f01ffc9a7000000000000000000000000000000000000000000000000000000007fffffffff0000000000000000000000000000000000000000000000000000000083161461056f565b600081815260018301602052604081205461378f5750815460018181018455600084815260208082209093018490558454848252828601909352604090209190915561056f565b50600061056f565b7ff0c57e16840df040f15088dc2f81fe391c3923bec73e23a9662efc9c229c6a005468010000000000000000900460ff166137fe576040517fd7e6bcf800000000000000000000000000000000000000000000000000000000815260040160405180910390fd5b565b600081604001515160000361381757506000919050565b81606001515160000361382c57506000919050565b815115801561383d57506020820151155b1561384a57506000919050565b506001919050565b6000818152600183016020526040812054801561393b5760006138766001836149fb565b855490915060009061388a906001906149fb565b90508082146138ef5760008660000182815481106138aa576138aa614773565b90600052602060002001549050808760000184815481106138cd576138cd614773565b6000918252602080832090910192909255918252600188019052604090208390555b855486908061390057613900614c78565b60019003818190600052602060002001600090559055856001016000868152602001908152602001600020600090556001935050505061056f565b600091505061056f565b60608160000180548060200260200160405190810160405280929190818152602001828054801561399557602002820191906000526020600020905b815481526020019060010190808311613981575b50505050509050919050565b80516139ac90613ad9565b6139b98160200151613b2e565b6139c68160400151613b6e565b50565b604080516001600160a01b038416602482015260448082018490528251808303909101815260649091019091526020810180517bffffffffffffffffffffffffffffffffffffffffffffffffffffffff167f095ea7b300000000000000000000000000000000000000000000000000000000179052613a488482613ba8565b61366957604080516001600160a01b038516602482015260006044808301919091528251808303909101815260649091019091526020810180517bffffffffffffffffffffffffffffffffffffffffffffffffffffffff167f095ea7b300000000000000000000000000000000000000000000000000000000179052613acf908590613c50565b6136698482613c50565b6001600160a01b0381161580613af757506001600160a01b03811630145b156139c6576040517f0cef278700000000000000000000000000000000000000000000000000000000815260040160405180910390fd5b6001600160a01b0381166139c6576040517f9bfa9a6b00000000000000000000000000000000000000000000000000000000815260040160405180910390fd5b806000036139c6576040517fa39a350e00000000000000000000000000000000000000000000000000000000815260040160405180910390fd5b6000806000846001600160a01b031684604051613bc59190614b73565b6000604051808303816000865af19150503d8060008114613c02576040519150601f19603f3d011682016040523d82523d6000602084013e613c07565b606091505b5091509150818015613c31575080511580613c31575080806020019051810190613c3191906149e0565b8015613c4757506000856001600160a01b03163b115b95945050505050565b6000613c656001600160a01b03841683613ccc565b90508051600014158015613c8a575080806020019051810190613c8891906149e0565b155b156136ac576040517f5274afe70000000000000000000000000000000000000000000000000000000081526001600160a01b0384166004820152602401612a5a565b6060612ca18383600084600080856001600160a01b03168486604051613cf29190614b73565b60006040518083038185875af1925050503d8060008114613d2f576040519150601f19603f3d011682016040523d82523d6000602084013e613d34565b606091505b5091509150613d44868383613d4e565b9695505050505050565b606082613d6357613d5e82613dc3565b612ca1565b8151158015613d7a57506001600160a01b0384163b155b15613dbc576040517f9996b3150000000000000000000000000000000000000000000000000000000081526001600160a01b0385166004820152602401612a5a565b5080612ca1565b805115613dd35780518082602001fd5b6040517f1425ea4200000000000000000000000000000000000000000000000000000000815260040160405180910390fd5b50805460008255600202906000526020600020908101906139c69190613e47565b50805460008255600602906000526020600020908101906139c69190613e7e565b5b80821115613e7a57805473ffffffffffffffffffffffffffffffffffffffff1916815560006001820155600201613e48565b5090565b5b80821115613e7a57805473ffffffffffffffffffffffffffffffffffffffff199081168255600182018054909116905560006002820181905560038201819055600482018190556005820155600601613e7f565b600060208284031215613ee557600080fd5b81357fffffffff0000000000000000000000000000000000000000000000000000000081168114612ca157600080fd5b60008083601f840112613f2757600080fd5b50813567ffffffffffffffff811115613f3f57600080fd5b6020830191508360208260061b8501011115613f5a57600080fd5b9250929050565b60008083601f840112613f7357600080fd5b50813567ffffffffffffffff811115613f8b57600080fd5b602083019150836020828501011115613f5a57600080fd5b600080600080600060608688031215613fbb57600080fd5b85359450602086013567ffffffffffffffff80821115613fda57600080fd5b613fe689838a01613f15565b90965094506040880135915080821115613fff57600080fd5b5061400c88828901613f61565b969995985093965092949392505050565b60008060006040848603121561403257600080fd5b83359250602084013567ffffffffffffffff8082111561405157600080fd5b818601915086601f83011261406557600080fd5b81358181111561407457600080fd5b8760208260051b850101111561408957600080fd5b6020830194508093505050509250925092565b6000806000604084860312156140b157600080fd5b83359250602084013567ffffffffffffffff8111156140cf57600080fd5b6140db86828701613f61565b9497909650939450505050565b6001600160a01b03811681146139c657600080fd5b60006020828403121561410f57600080fd5b8135612ca1816140e8565b60006020828403121561412c57600080fd5b5035919050565b60005b8381101561414e578181015183820152602001614136565b50506000910152565b6000815180845261416f816020860160208601614133565b601f01601f19169290920160200192915050565b60208152815160208201526020820151604082015260006040830151608060608401526141b360a0840182614157565b90506060840151151560808401528091505092915050565b60008151808452602080850194506020840160005b838110156141fc578151875295820195908201906001016141e0565b509495945050505050565b602081526000612ca160208301846141cb565b634e487b7160e01b600052604160045260246000fd5b6040516080810167ffffffffffffffff811182821017156142535761425361421a565b60405290565b604051601f8201601f1916810167ffffffffffffffff811182821017156142825761428261421a565b604052919050565b600067ffffffffffffffff8211156142a4576142a461421a565b50601f01601f191660200190565b600082601f8301126142c357600080fd5b81356142d66142d18261428a565b614259565b8181528460208386010111156142eb57600080fd5b816020850160208301376000918101602001919091529392505050565b60008060006060848603121561431d57600080fd5b8335614328816140e8565b9250602084013567ffffffffffffffff8082111561434557600080fd5b908501906080828803121561435957600080fd5b614361614230565b823581526020830135602082015260408301358281111561438157600080fd5b61438d898286016142b2565b6040830152506060830135828111156143a557600080fd5b6143b1898286016142b2565b606083015250935060408601359150808211156143cd57600080fd5b506143da868287016142b2565b9150509250925092565b602081526000612ca16020830184614157565b60008060006040848603121561440c57600080fd5b83359250602084013567ffffffffffffffff81111561442a57600080fd5b6140db86828701613f15565b6000806040838503121561444957600080fd5b82359150602083013561445b816140e8565b809150509250929050565b60008151808452602080850194506020840160005b838110156141fc57815180516001600160a01b03908116895284820151168489015260408082015190890152606080820151908901526080808201519089015260a0908101519088015260c0909601959082019060010161447b565b602081526000612ca16020830184614466565b600080604083850312156144fd57600080fd5b8235614508816140e8565b946020939093013593505050565b6000806000806060858703121561452c57600080fd5b8435935060208501359250604085013567ffffffffffffffff81111561455157600080fd5b61455d87828801613f61565b95989497509550505050565b60608152600061457c6060830186614466565b82810360208481019190915285518083528682019282019060005b818110156145bc5784516001600160a01b031683529383019391830191600101614597565b505084810360408601526145d081876141cb565b98975050505050505050565b6000602080835260a083018451828501528185015160406080604087015282825180855260c0880191508584019450600093505b8084101561464257845180516001600160a01b0316835286015186830152938501936001939093019290820190614610565b5060408801519450601f198782030160608801526146608186614157565b9450505050506060840151614679608085018215159052565b509392505050565b60006020828403121561469357600080fd5b8151612ca1816140e8565b6000602082840312156146b057600080fd5b5051919050565b6000604082840312156146c957600080fd5b6040516040810181811067ffffffffffffffff821117156146ec576146ec61421a565b60405282356146fa816140e8565b81526020928301359281019290925250919050565b600181811c9082168061472357607f821691505b602082108103610f3057634e487b7160e01b600052602260045260246000fd5b634e487b7160e01b600052601160045260246000fd5b6000600019820361476c5761476c614743565b5060010190565b634e487b7160e01b600052603260045260246000fd5b8135614794816140e8565b6001600160a01b03811673ffffffffffffffffffffffffffffffffffffffff1983541617825550602082013560018201555050565b601f8211156136ac576000816000526020600020601f850160051c810160208610156147f25750805b601f850160051c820191505b81811015611772578281556001016147fe565b67ffffffffffffffff8311156148295761482961421a565b61483d83614837835461470f565b836147c9565b6000601f84116001811461487157600085156148595750838201355b600019600387901b1c1916600186901b17835561312a565b600083815260209020601f19861690835b828110156148a25786850135825560209485019460019092019101614882565b50868210156148bf5760001960f88860031b161c19848701351681555b505060018560011b0183555050505050565b60008184825b858110156149115781356148ea816140e8565b6001600160a01b0316835260208281013590840152604092830192909101906001016148d7565b509095945050505050565b818352818160208501375060006020828401015260006020601f19601f840116840101905092915050565b60208152600061495b60208301848661491c565b949350505050565b83815260406020808301829052908201839052600090849060608401835b868110156149af578335614994816140e8565b6001600160a01b031682529282019290820190600101614981565b50979650505050505050565b8183823760009101908152919050565b805180151581146149db57600080fd5b919050565b6000602082840312156149f257600080fd5b612ca1826149cb565b8181038181111561056f5761056f614743565b848152836020820152606060408201526000613d4460608301848661491c565b60008085851115614a3e57600080fd5b83861115614a4b57600080fd5b5050820193919092039150565b7fffffffffffffffffffffffffffffffffffffffff0000000000000000000000008135818116916014851015614a985780818660140360031b1b83161692505b505092915050565b8082018082111561056f5761056f614743565b815167ffffffffffffffff811115614acd57614acd61421a565b614ae181614adb845461470f565b846147c9565b602080601f831160018114614b165760008415614afe5750858301515b600019600386901b1c1916600185901b178555611772565b600085815260208120601f198616915b82811015614b4557888601518255948401946001909101908401614b26565b5085821015614b635787850151600019600388901b60f8161c191681555b5050505050600190811b01905550565b60008251614b85818460208701614133565b9190910192915050565b83815260008351614ba7816020850160208801614133565b80830190508351614bbf816020840160208801614133565b0160200195945050505050565b6001600160a01b038316815260406020820152600061495b6040830184614157565b60008060408385031215614c0157600080fd5b614c0a836149cb565b9150602083015167ffffffffffffffff811115614c2657600080fd5b8301601f81018513614c3757600080fd5b8051614c456142d18261428a565b818152866020838501011115614c5a57600080fd5b614c6b826020830160208601614133565b8093505050509250929050565b634e487b7160e01b600052603160045260246000fdfea26469706673582212200f490100f5e5bf858fc807ea3d5e2be73700562a94f20be1ea89810d0b43cb4464736f6c63430008170033",
    "linkReferences": {}
  },
  "methodIdentifiers": {
    "BOUNTY_ISSUER_ROLE()": "7bfee048",
    "CLAIMANT_ROLE()": "8a867368",
    "VERIFIER_ROLE()": "e7705db6",
    "addBounty(uint256,uint256,bytes)": "bd769f79",
    "addClaim(uint256,(address,uint256)[],bytes)": "0d97d72c",
    "amountPaid(address,uint256)": "b33ec618",
    "collectPaymentOrders()": "c0231ff6",
    "getBountyInformation(uint256)": "31be580e",
    "getClaimInformation(uint256)": "cb05296f",
    "grantModuleRole(bytes32,address)": "6c67e807",
    "grantModuleRoleBatched(bytes32,address[])": "272bbd44",
    "identifier()": "7998a1c4",
    "init(address,(uint256,uint256,string,string),bytes)": "42dfe958",
    "isExistingBountyId(uint256)": "be5a5745",
    "isExistingClaimId(uint256)": "e2114c8c",
    "isTrustedForwarder(address)": "572b6c05",
    "listBountyIds()": "b5e8bc45",
    "listClaimIds()": "3cd6b5d1",
    "listClaimIdsForContributorAddress(address)": "9c16f525",
    "lockBounty(uint256)": "fa4dbd03",
    "orchestrator()": "b74795d9",
    "outstandingTokenAmount(address)": "2e84db5f",
    "paymentOrders()": "75fa0b76",
    "revokeModuleRole(bytes32,address)": "bcb61920",
    "revokeModuleRoleBatched(bytes32,address[])": "24e30270",
    "supportsInterface(bytes4)": "01ffc9a7",
    "title()": "4a79d50c",
    "trustedForwarder()": "7da0a877",
    "updateBounty(uint256,bytes)": "31de0bdb",
    "updateClaimContributors(uint256,(address,uint256)[])": "5beaeb8c",
    "updateClaimDetails(uint256,bytes)": "2d54a71c",
    "url()": "5600f04f",
    "verifyClaim(uint256,(address,uint256)[])": "bf1f9656",
    "version()": "54fd4d50"
  },
  "id": 145
}