{
  "abi": [
    {
      "type": "function",
      "name": "ASSERTER_ROLE",
      "inputs": [],
      "outputs": [
        {
          "name": "",
          "type": "bytes32",
          "internalType": "bytes32"
        }
      ],
      "stateMutability": "view"
    },
    {
      "type": "function",
      "name": "KPICounter",
      "inputs": [],
      "outputs": [
        {
          "name": "",
          "type": "uint256",
          "internalType": "uint256"
        }
      ],
      "stateMutability": "view"
    },
    {
      "type": "function",
      "name": "amountPaid",
      "inputs": [
        {
          "name": "token",
          "type": "address",
          "internalType": "address"
        },
        {
          "name": "amount",
          "type": "uint256",
          "internalType": "uint256"
        }
      ],
      "outputs": [],
      "stateMutability": "nonpayable"
    },
    {
      "type": "function",
      "name": "assertDataFor",
      "inputs": [
        {
          "name": "dataId",
          "type": "bytes32",
          "internalType": "bytes32"
        },
        {
          "name": "data_",
          "type": "bytes32",
          "internalType": "bytes32"
        },
        {
          "name": "asserter",
          "type": "address",
          "internalType": "address"
        }
      ],
      "outputs": [
        {
          "name": "assertionId",
          "type": "bytes32",
          "internalType": "bytes32"
        }
      ],
      "stateMutability": "nonpayable"
    },
    {
      "type": "function",
      "name": "assertionConfig",
      "inputs": [
        {
          "name": "",
          "type": "bytes32",
          "internalType": "bytes32"
        }
      ],
      "outputs": [
        {
          "name": "creationTime",
          "type": "uint256",
          "internalType": "uint256"
        },
        {
          "name": "assertedValue",
          "type": "uint256",
          "internalType": "uint256"
        },
        {
          "name": "KpiToUse",
          "type": "uint256",
          "internalType": "uint256"
        },
        {
          "name": "distributed",
          "type": "bool",
          "internalType": "bool"
        }
      ],
      "stateMutability": "view"
    },
    {
      "type": "function",
      "name": "assertionData",
      "inputs": [
        {
          "name": "",
          "type": "bytes32",
          "internalType": "bytes32"
        }
      ],
      "outputs": [
        {
          "name": "dataId",
          "type": "bytes32",
          "internalType": "bytes32"
        },
        {
          "name": "data",
          "type": "bytes32",
          "internalType": "bytes32"
        },
        {
          "name": "asserter",
          "type": "address",
          "internalType": "address"
        },
        {
          "name": "resolved",
          "type": "bool",
          "internalType": "bool"
        }
      ],
      "stateMutability": "view"
    },
    {
      "type": "function",
      "name": "assertionDisputedCallback",
      "inputs": [
        {
          "name": "assertionId",
          "type": "bytes32",
          "internalType": "bytes32"
        }
      ],
      "outputs": [],
      "stateMutability": "nonpayable"
    },
    {
      "type": "function",
      "name": "assertionLiveness",
      "inputs": [],
      "outputs": [
        {
          "name": "",
          "type": "uint64",
          "internalType": "uint64"
        }
      ],
      "stateMutability": "view"
    },
    {
      "type": "function",
      "name": "assertionPending",
      "inputs": [],
      "outputs": [
        {
          "name": "",
          "type": "bool",
          "internalType": "bool"
        }
      ],
      "stateMutability": "view"
    },
    {
      "type": "function",
      "name": "assertionResolvedCallback",
      "inputs": [
        {
          "name": "assertionId",
          "type": "bytes32",
          "internalType": "bytes32"
        },
        {
          "name": "assertedTruthfully",
          "type": "bool",
          "internalType": "bool"
        }
      ],
      "outputs": [],
      "stateMutability": "nonpayable"
    },
    {
      "type": "function",
      "name": "balanceOf",
      "inputs": [
        {
          "name": "user",
          "type": "address",
          "internalType": "address"
        }
      ],
      "outputs": [
        {
          "name": "",
          "type": "uint256",
          "internalType": "uint256"
        }
      ],
      "stateMutability": "view"
    },
    {
      "type": "function",
      "name": "claimRewards",
      "inputs": [],
      "outputs": [],
      "stateMutability": "nonpayable"
    },
    {
      "type": "function",
      "name": "collectPaymentOrders",
      "inputs": [],
      "outputs": [
        {
          "name": "",
          "type": "tuple[]",
          "internalType": "struct IERC20PaymentClientBase_v1.PaymentOrder[]",
          "components": [
            {
              "name": "recipient",
              "type": "address",
              "internalType": "address"
            },
            {
              "name": "paymentToken",
              "type": "address",
              "internalType": "address"
            },
            {
              "name": "amount",
              "type": "uint256",
              "internalType": "uint256"
            },
            {
              "name": "start",
              "type": "uint256",
              "internalType": "uint256"
            },
            {
              "name": "cliff",
              "type": "uint256",
              "internalType": "uint256"
            },
            {
              "name": "end",
              "type": "uint256",
              "internalType": "uint256"
            }
          ]
        },
        {
          "name": "",
          "type": "address[]",
          "internalType": "address[]"
        },
        {
          "name": "",
          "type": "uint256[]",
          "internalType": "uint256[]"
        }
      ],
      "stateMutability": "nonpayable"
    },
    {
      "type": "function",
      "name": "createKPI",
      "inputs": [
        {
          "name": "_continuous",
          "type": "bool",
          "internalType": "bool"
        },
        {
          "name": "_trancheValues",
          "type": "uint256[]",
          "internalType": "uint256[]"
        },
        {
          "name": "_trancheRewards",
          "type": "uint256[]",
          "internalType": "uint256[]"
        }
      ],
      "outputs": [
        {
          "name": "",
          "type": "uint256",
          "internalType": "uint256"
        }
      ],
      "stateMutability": "nonpayable"
    },
    {
      "type": "function",
      "name": "defaultBond",
      "inputs": [],
      "outputs": [
        {
          "name": "",
          "type": "uint256",
          "internalType": "uint256"
        }
      ],
      "stateMutability": "view"
    },
    {
      "type": "function",
      "name": "defaultCurrency",
      "inputs": [],
      "outputs": [
        {
          "name": "",
          "type": "address",
          "internalType": "contract IERC20"
        }
      ],
      "stateMutability": "view"
    },
    {
      "type": "function",
      "name": "defaultIdentifier",
      "inputs": [],
      "outputs": [
        {
          "name": "",
          "type": "bytes32",
          "internalType": "bytes32"
        }
      ],
      "stateMutability": "view"
    },
    {
      "type": "function",
      "name": "deleteStuckAssertion",
      "inputs": [
        {
          "name": "assertionId",
          "type": "bytes32",
          "internalType": "bytes32"
        }
      ],
      "outputs": [],
      "stateMutability": "nonpayable"
    },
    {
      "type": "function",
      "name": "depositFeeFunds",
      "inputs": [
        {
          "name": "amount",
          "type": "uint256",
          "internalType": "uint256"
        }
      ],
      "outputs": [],
      "stateMutability": "nonpayable"
    },
    {
      "type": "function",
      "name": "earned",
      "inputs": [
        {
          "name": "user",
          "type": "address",
          "internalType": "address"
        }
      ],
      "outputs": [
        {
          "name": "",
          "type": "uint256",
          "internalType": "uint256"
        }
      ],
      "stateMutability": "view"
    },
    {
      "type": "function",
      "name": "estimateReward",
      "inputs": [
        {
          "name": "amount",
          "type": "uint256",
          "internalType": "uint256"
        },
        {
          "name": "duration",
          "type": "uint256",
          "internalType": "uint256"
        }
      ],
      "outputs": [
        {
          "name": "",
          "type": "uint256",
          "internalType": "uint256"
        }
      ],
      "stateMutability": "view"
    },
    {
      "type": "function",
      "name": "getAssertion",
      "inputs": [
        {
          "name": "assertionId",
          "type": "bytes32",
          "internalType": "bytes32"
        }
      ],
      "outputs": [
        {
          "name": "",
          "type": "tuple",
          "internalType": "struct IOptimisticOracleIntegrator.DataAssertion",
          "components": [
            {
              "name": "dataId",
              "type": "bytes32",
              "internalType": "bytes32"
            },
            {
              "name": "data",
              "type": "bytes32",
              "internalType": "bytes32"
            },
            {
              "name": "asserter",
              "type": "address",
              "internalType": "address"
            },
            {
              "name": "resolved",
              "type": "bool",
              "internalType": "bool"
            }
          ]
        }
      ],
      "stateMutability": "view"
    },
    {
      "type": "function",
      "name": "getAssertionConfig",
      "inputs": [
        {
          "name": "assertionId",
          "type": "bytes32",
          "internalType": "bytes32"
        }
      ],
      "outputs": [
        {
          "name": "",
          "type": "tuple",
          "internalType": "struct ILM_PC_KPIRewarder_v1.RewardRoundConfiguration",
          "components": [
            {
              "name": "creationTime",
              "type": "uint256",
              "internalType": "uint256"
            },
            {
              "name": "assertedValue",
              "type": "uint256",
              "internalType": "uint256"
            },
            {
              "name": "KpiToUse",
              "type": "uint256",
              "internalType": "uint256"
            },
            {
              "name": "distributed",
              "type": "bool",
              "internalType": "bool"
            }
          ]
        }
      ],
      "stateMutability": "view"
    },
    {
      "type": "function",
      "name": "getData",
      "inputs": [
        {
          "name": "assertionId",
          "type": "bytes32",
          "internalType": "bytes32"
        }
      ],
      "outputs": [
        {
          "name": "",
          "type": "bool",
          "internalType": "bool"
        },
        {
          "name": "",
          "type": "bytes32",
          "internalType": "bytes32"
        }
      ],
      "stateMutability": "view"
    },
    {
      "type": "function",
      "name": "getKPI",
      "inputs": [
        {
          "name": "KPInum",
          "type": "uint256",
          "internalType": "uint256"
        }
      ],
      "outputs": [
        {
          "name": "",
          "type": "tuple",
          "internalType": "struct ILM_PC_KPIRewarder_v1.KPI",
          "components": [
            {
              "name": "numOfTranches",
              "type": "uint256",
              "internalType": "uint256"
            },
            {
              "name": "totalRewards",
              "type": "uint256",
              "internalType": "uint256"
            },
            {
              "name": "continuous",
              "type": "bool",
              "internalType": "bool"
            },
            {
              "name": "trancheValues",
              "type": "uint256[]",
              "internalType": "uint256[]"
            },
            {
              "name": "trancheRewards",
              "type": "uint256[]",
              "internalType": "uint256[]"
            }
          ]
        }
      ],
      "stateMutability": "view"
    },
    {
      "type": "function",
      "name": "grantModuleRole",
      "inputs": [
        {
          "name": "role",
          "type": "bytes32",
          "internalType": "bytes32"
        },
        {
          "name": "target",
          "type": "address",
          "internalType": "address"
        }
      ],
      "outputs": [],
      "stateMutability": "nonpayable"
    },
    {
      "type": "function",
      "name": "grantModuleRoleBatched",
      "inputs": [
        {
          "name": "role",
          "type": "bytes32",
          "internalType": "bytes32"
        },
        {
          "name": "targets",
          "type": "address[]",
          "internalType": "address[]"
        }
      ],
      "outputs": [],
      "stateMutability": "nonpayable"
    },
    {
      "type": "function",
      "name": "identifier",
      "inputs": [],
      "outputs": [
        {
          "name": "",
          "type": "bytes32",
          "internalType": "bytes32"
        }
      ],
      "stateMutability": "view"
    },
    {
      "type": "function",
      "name": "init",
      "inputs": [
        {
          "name": "orchestrator_",
          "type": "address",
          "internalType": "contract IOrchestrator_v1"
        },
        {
          "name": "metadata",
          "type": "tuple",
          "internalType": "struct IModule_v1.Metadata",
          "components": [
            {
              "name": "majorVersion",
              "type": "uint256",
              "internalType": "uint256"
            },
            {
              "name": "minorVersion",
              "type": "uint256",
              "internalType": "uint256"
            },
            {
              "name": "patchVersion",
              "type": "uint256",
              "internalType": "uint256"
            },
            {
              "name": "url",
              "type": "string",
              "internalType": "string"
            },
            {
              "name": "title",
              "type": "string",
              "internalType": "string"
            }
          ]
        },
        {
          "name": "configData",
          "type": "bytes",
          "internalType": "bytes"
        }
      ],
      "outputs": [],
      "stateMutability": "nonpayable"
    },
    {
      "type": "function",
      "name": "isTrustedForwarder",
      "inputs": [
        {
          "name": "forwarder",
          "type": "address",
          "internalType": "address"
        }
      ],
      "outputs": [
        {
          "name": "",
          "type": "bool",
          "internalType": "bool"
        }
      ],
      "stateMutability": "view"
    },
    {
      "type": "function",
      "name": "oo",
      "inputs": [],
      "outputs": [
        {
          "name": "",
          "type": "address",
          "internalType": "contract OptimisticOracleV3Interface"
        }
      ],
      "stateMutability": "view"
    },
    {
      "type": "function",
      "name": "orchestrator",
      "inputs": [],
      "outputs": [
        {
          "name": "",
          "type": "address",
          "internalType": "contract IOrchestrator_v1"
        }
      ],
      "stateMutability": "view"
    },
    {
      "type": "function",
      "name": "outstandingTokenAmount",
      "inputs": [
        {
          "name": "_token",
          "type": "address",
          "internalType": "address"
        }
      ],
      "outputs": [
        {
          "name": "",
          "type": "uint256",
          "internalType": "uint256"
        }
      ],
      "stateMutability": "view"
    },
    {
      "type": "function",
      "name": "paymentOrders",
      "inputs": [],
      "outputs": [
        {
          "name": "",
          "type": "tuple[]",
          "internalType": "struct IERC20PaymentClientBase_v1.PaymentOrder[]",
          "components": [
            {
              "name": "recipient",
              "type": "address",
              "internalType": "address"
            },
            {
              "name": "paymentToken",
              "type": "address",
              "internalType": "address"
            },
            {
              "name": "amount",
              "type": "uint256",
              "internalType": "uint256"
            },
            {
              "name": "start",
              "type": "uint256",
              "internalType": "uint256"
            },
            {
              "name": "cliff",
              "type": "uint256",
              "internalType": "uint256"
            },
            {
              "name": "end",
              "type": "uint256",
              "internalType": "uint256"
            }
          ]
        }
      ],
      "stateMutability": "view"
    },
    {
      "type": "function",
      "name": "postAssertion",
      "inputs": [
        {
          "name": "dataId",
          "type": "bytes32",
          "internalType": "bytes32"
        },
        {
          "name": "assertedValue",
          "type": "uint256",
          "internalType": "uint256"
        },
        {
          "name": "asserter",
          "type": "address",
          "internalType": "address"
        },
        {
          "name": "targetKPI",
          "type": "uint256",
          "internalType": "uint256"
        }
      ],
      "outputs": [
        {
          "name": "assertionId",
          "type": "bytes32",
          "internalType": "bytes32"
        }
      ],
      "stateMutability": "nonpayable"
    },
    {
      "type": "function",
      "name": "registryOfKPIs",
      "inputs": [
        {
          "name": "",
          "type": "uint256",
          "internalType": "uint256"
        }
      ],
      "outputs": [
        {
          "name": "numOfTranches",
          "type": "uint256",
          "internalType": "uint256"
        },
        {
          "name": "totalRewards",
          "type": "uint256",
          "internalType": "uint256"
        },
        {
          "name": "continuous",
          "type": "bool",
          "internalType": "bool"
        }
      ],
      "stateMutability": "view"
    },
    {
      "type": "function",
      "name": "revokeModuleRole",
      "inputs": [
        {
          "name": "role",
          "type": "bytes32",
          "internalType": "bytes32"
        },
        {
          "name": "target",
          "type": "address",
          "internalType": "address"
        }
      ],
      "outputs": [],
      "stateMutability": "nonpayable"
    },
    {
      "type": "function",
      "name": "revokeModuleRoleBatched",
      "inputs": [
        {
          "name": "role",
          "type": "bytes32",
          "internalType": "bytes32"
        },
        {
          "name": "targets",
          "type": "address[]",
          "internalType": "address[]"
        }
      ],
      "outputs": [],
      "stateMutability": "nonpayable"
    },
    {
      "type": "function",
      "name": "rewardRate",
      "inputs": [],
      "outputs": [
        {
          "name": "",
          "type": "uint256",
          "internalType": "uint256"
        }
      ],
      "stateMutability": "view"
    },
    {
      "type": "function",
      "name": "rewardsEnd",
      "inputs": [],
      "outputs": [
        {
          "name": "",
          "type": "uint256",
          "internalType": "uint256"
        }
      ],
      "stateMutability": "view"
    },
    {
      "type": "function",
      "name": "setDefaultAssertionLiveness",
      "inputs": [
        {
          "name": "_newLiveness",
          "type": "uint64",
          "internalType": "uint64"
        }
      ],
      "outputs": [],
      "stateMutability": "nonpayable"
    },
    {
      "type": "function",
      "name": "setDefaultCurrencyAndBond",
      "inputs": [
        {
          "name": "_newCurrency",
          "type": "address",
          "internalType": "address"
        },
        {
          "name": "_newBond",
          "type": "uint256",
          "internalType": "uint256"
        }
      ],
      "outputs": [],
      "stateMutability": "nonpayable"
    },
    {
      "type": "function",
      "name": "setOptimisticOracle",
      "inputs": [
        {
          "name": "_newOO",
          "type": "address",
          "internalType": "address"
        }
      ],
      "outputs": [],
      "stateMutability": "nonpayable"
    },
    {
      "type": "function",
      "name": "setRewards",
      "inputs": [
        {
          "name": "amount",
          "type": "uint256",
          "internalType": "uint256"
        },
        {
          "name": "duration",
          "type": "uint256",
          "internalType": "uint256"
        }
      ],
      "outputs": [],
      "stateMutability": "nonpayable"
    },
    {
      "type": "function",
      "name": "stake",
      "inputs": [
        {
          "name": "amount",
          "type": "uint256",
          "internalType": "uint256"
        }
      ],
      "outputs": [],
      "stateMutability": "nonpayable"
    },
    {
      "type": "function",
      "name": "stakingToken",
      "inputs": [],
      "outputs": [
        {
          "name": "",
          "type": "address",
          "internalType": "address"
        }
      ],
      "stateMutability": "view"
    },
    {
      "type": "function",
      "name": "supportsInterface",
      "inputs": [
        {
          "name": "interfaceId",
          "type": "bytes4",
          "internalType": "bytes4"
        }
      ],
      "outputs": [
        {
          "name": "",
          "type": "bool",
          "internalType": "bool"
        }
      ],
      "stateMutability": "view"
    },
    {
      "type": "function",
      "name": "title",
      "inputs": [],
      "outputs": [
        {
          "name": "",
          "type": "string",
          "internalType": "string"
        }
      ],
      "stateMutability": "view"
    },
    {
      "type": "function",
      "name": "totalSupply",
      "inputs": [],
      "outputs": [
        {
          "name": "",
          "type": "uint256",
          "internalType": "uint256"
        }
      ],
      "stateMutability": "view"
    },
    {
      "type": "function",
      "name": "trustedForwarder",
      "inputs": [],
      "outputs": [
        {
          "name": "",
          "type": "address",
          "internalType": "address"
        }
      ],
      "stateMutability": "view"
    },
    {
      "type": "function",
      "name": "unstake",
      "inputs": [
        {
          "name": "amount",
          "type": "uint256",
          "internalType": "uint256"
        }
      ],
      "outputs": [],
      "stateMutability": "nonpayable"
    },
    {
      "type": "function",
      "name": "url",
      "inputs": [],
      "outputs": [
        {
          "name": "",
          "type": "string",
          "internalType": "string"
        }
      ],
      "stateMutability": "view"
    },
    {
      "type": "function",
      "name": "version",
      "inputs": [],
      "outputs": [
        {
          "name": "",
          "type": "uint256",
          "internalType": "uint256"
        },
        {
          "name": "",
          "type": "uint256",
          "internalType": "uint256"
        },
        {
          "name": "",
          "type": "uint256",
          "internalType": "uint256"
        }
      ],
      "stateMutability": "view"
    },
    {
      "type": "event",
      "name": "DataAsserted",
      "inputs": [
        {
          "name": "dataId",
          "type": "bytes32",
          "indexed": true,
          "internalType": "bytes32"
        },
        {
          "name": "data",
          "type": "bytes32",
          "indexed": false,
          "internalType": "bytes32"
        },
        {
          "name": "asserter",
          "type": "address",
          "indexed": true,
          "internalType": "address"
        },
        {
          "name": "assertionId",
          "type": "bytes32",
          "indexed": true,
          "internalType": "bytes32"
        }
      ],
      "anonymous": false
    },
    {
      "type": "event",
      "name": "DataAssertionResolved",
      "inputs": [
        {
          "name": "assertedTruthfully",
          "type": "bool",
          "indexed": false,
          "internalType": "bool"
        },
        {
          "name": "dataId",
          "type": "bytes32",
          "indexed": true,
          "internalType": "bytes32"
        },
        {
          "name": "data",
          "type": "bytes32",
          "indexed": false,
          "internalType": "bytes32"
        },
        {
          "name": "asserter",
          "type": "address",
          "indexed": true,
          "internalType": "address"
        },
        {
          "name": "assertionId",
          "type": "bytes32",
          "indexed": true,
          "internalType": "bytes32"
        }
      ],
      "anonymous": false
    },
    {
      "type": "event",
      "name": "DeletedStuckAssertion",
      "inputs": [
        {
          "name": "assertionId",
          "type": "bytes32",
          "indexed": true,
          "internalType": "bytes32"
        }
      ],
      "anonymous": false
    },
    {
      "type": "event",
      "name": "FeeFundsDeposited",
      "inputs": [
        {
          "name": "token",
          "type": "address",
          "indexed": true,
          "internalType": "address"
        },
        {
          "name": "amount",
          "type": "uint256",
          "indexed": false,
          "internalType": "uint256"
        }
      ],
      "anonymous": false
    },
    {
      "type": "event",
      "name": "Initialized",
      "inputs": [
        {
          "name": "version",
          "type": "uint64",
          "indexed": false,
          "internalType": "uint64"
        }
      ],
      "anonymous": false
    },
    {
      "type": "event",
      "name": "KPICreated",
      "inputs": [
        {
          "name": "KPI_Id",
          "type": "uint256",
          "indexed": true,
          "internalType": "uint256"
        },
        {
          "name": "numOfTranches",
          "type": "uint256",
          "indexed": false,
          "internalType": "uint256"
        },
        {
          "name": "totalKPIRewards",
          "type": "uint256",
          "indexed": false,
          "internalType": "uint256"
        },
        {
          "name": "continuous",
          "type": "bool",
          "indexed": false,
          "internalType": "bool"
        },
        {
          "name": "trancheValues",
          "type": "uint256[]",
          "indexed": false,
          "internalType": "uint256[]"
        },
        {
          "name": "trancheRewards",
          "type": "uint256[]",
          "indexed": false,
          "internalType": "uint256[]"
        }
      ],
      "anonymous": false
    },
    {
      "type": "event",
      "name": "ModuleInitialized",
      "inputs": [
        {
          "name": "parentOrchestrator",
          "type": "address",
          "indexed": true,
          "internalType": "address"
        },
        {
          "name": "metadata",
          "type": "tuple",
          "indexed": false,
          "internalType": "struct IModule_v1.Metadata",
          "components": [
            {
              "name": "majorVersion",
              "type": "uint256",
              "internalType": "uint256"
            },
            {
              "name": "minorVersion",
              "type": "uint256",
              "internalType": "uint256"
            },
            {
              "name": "patchVersion",
              "type": "uint256",
              "internalType": "uint256"
            },
            {
              "name": "url",
              "type": "string",
              "internalType": "string"
            },
            {
              "name": "title",
              "type": "string",
              "internalType": "string"
            }
          ]
        }
      ],
      "anonymous": false
    },
    {
      "type": "event",
      "name": "PaymentOrderAdded",
      "inputs": [
        {
          "name": "recipient",
          "type": "address",
          "indexed": true,
          "internalType": "address"
        },
        {
          "name": "token",
          "type": "address",
          "indexed": true,
          "internalType": "address"
        },
        {
          "name": "amount",
          "type": "uint256",
          "indexed": false,
          "internalType": "uint256"
        }
      ],
      "anonymous": false
    },
    {
      "type": "event",
      "name": "RewardRoundConfigured",
      "inputs": [
        {
          "name": "assertionId",
          "type": "bytes32",
          "indexed": true,
          "internalType": "bytes32"
        },
        {
          "name": "creationTime",
          "type": "uint256",
          "indexed": false,
          "internalType": "uint256"
        },
        {
          "name": "assertedValue",
          "type": "uint256",
          "indexed": false,
          "internalType": "uint256"
        },
        {
          "name": "KpiToUse",
          "type": "uint256",
          "indexed": true,
          "internalType": "uint256"
        }
      ],
      "anonymous": false
    },
    {
      "type": "event",
      "name": "RewardSet",
      "inputs": [
        {
          "name": "rewardAmount",
          "type": "uint256",
          "indexed": false,
          "internalType": "uint256"
        },
        {
          "name": "duration",
          "type": "uint256",
          "indexed": false,
          "internalType": "uint256"
        },
        {
          "name": "newRewardRate",
          "type": "uint256",
          "indexed": false,
          "internalType": "uint256"
        },
        {
          "name": "newRewardsEnd",
          "type": "uint256",
          "indexed": false,
          "internalType": "uint256"
        }
      ],
      "anonymous": false
    },
    {
      "type": "event",
      "name": "RewardsDistributed",
      "inputs": [
        {
          "name": "user",
          "type": "address",
          "indexed": true,
          "internalType": "address"
        },
        {
          "name": "amount",
          "type": "uint256",
          "indexed": false,
          "internalType": "uint256"
        }
      ],
      "anonymous": false
    },
    {
      "type": "event",
      "name": "Staked",
      "inputs": [
        {
          "name": "user",
          "type": "address",
          "indexed": true,
          "internalType": "address"
        },
        {
          "name": "amount",
          "type": "uint256",
          "indexed": false,
          "internalType": "uint256"
        }
      ],
      "anonymous": false
    },
    {
      "type": "event",
      "name": "StakingTokenSet",
      "inputs": [
        {
          "name": "token",
          "type": "address",
          "indexed": true,
          "internalType": "address"
        }
      ],
      "anonymous": false
    },
    {
      "type": "event",
      "name": "Unstaked",
      "inputs": [
        {
          "name": "user",
          "type": "address",
          "indexed": true,
          "internalType": "address"
        },
        {
          "name": "amount",
          "type": "uint256",
          "indexed": false,
          "internalType": "uint256"
        }
      ],
      "anonymous": false
    },
    {
      "type": "event",
      "name": "Updated",
      "inputs": [
        {
          "name": "triggerAddress",
          "type": "address",
          "indexed": true,
          "internalType": "address"
        },
        {
          "name": "rewardValue",
          "type": "uint256",
          "indexed": false,
          "internalType": "uint256"
        },
        {
          "name": "lastUpdate",
          "type": "uint256",
          "indexed": false,
          "internalType": "uint256"
        },
        {
          "name": "earnedRewards",
          "type": "uint256",
          "indexed": false,
          "internalType": "uint256"
        }
      ],
      "anonymous": false
    },
    {
      "type": "error",
      "name": "AddressEmptyCode",
      "inputs": [
        {
          "name": "target",
          "type": "address",
          "internalType": "address"
        }
      ]
    },
    {
      "type": "error",
      "name": "AddressInsufficientBalance",
      "inputs": [
        {
          "name": "account",
          "type": "address",
          "internalType": "address"
        }
      ]
    },
    {
      "type": "error",
      "name": "FailedInnerCall",
      "inputs": []
    },
    {
      "type": "error",
      "name": "InvalidInitialization",
      "inputs": []
    },
    {
      "type": "error",
      "name": "Module_OrchestratorCallbackFailed",
      "inputs": [
        {
          "name": "funcSig",
          "type": "string",
          "internalType": "string"
        }
      ]
    },
    {
      "type": "error",
      "name": "Module__CallerNotAuthorized",
      "inputs": [
        {
          "name": "role",
          "type": "bytes32",
          "internalType": "bytes32"
        },
        {
          "name": "caller",
          "type": "address",
          "internalType": "address"
        }
      ]
    },
    {
      "type": "error",
      "name": "Module__ERC20PaymentClientBase__ArrayLengthMismatch",
      "inputs": []
    },
    {
      "type": "error",
      "name": "Module__ERC20PaymentClientBase__CallerNotAuthorized",
      "inputs": []
    },
    {
      "type": "error",
      "name": "Module__ERC20PaymentClientBase__InsufficientFunds",
      "inputs": [
        {
          "name": "token",
          "type": "address",
          "internalType": "address"
        }
      ]
    },
    {
      "type": "error",
      "name": "Module__ERC20PaymentClientBase__InvalidAmount",
      "inputs": []
    },
    {
      "type": "error",
      "name": "Module__ERC20PaymentClientBase__InvalidPaymentOrder",
      "inputs": []
    },
    {
      "type": "error",
      "name": "Module__ERC20PaymentClientBase__InvalidRecipient",
      "inputs": []
    },
    {
      "type": "error",
      "name": "Module__ERC20PaymentClientBase__InvalidToken",
      "inputs": []
    },
    {
      "type": "error",
      "name": "Module__ERC20PaymentClientBase__Invalidend",
      "inputs": []
    },
    {
      "type": "error",
      "name": "Module__ERC20PaymentClientBase__TokenTransferFailed",
      "inputs": []
    },
    {
      "type": "error",
      "name": "Module__InvalidAddress",
      "inputs": []
    },
    {
      "type": "error",
      "name": "Module__InvalidMetadata",
      "inputs": []
    },
    {
      "type": "error",
      "name": "Module__InvalidOrchestratorAddress",
      "inputs": []
    },
    {
      "type": "error",
      "name": "Module__LM_PC_KPIRewarder_v1__AssertionNotStuck",
      "inputs": [
        {
          "name": "assertionId",
          "type": "bytes32",
          "internalType": "bytes32"
        }
      ]
    },
    {
      "type": "error",
      "name": "Module__LM_PC_KPIRewarder_v1__CannotStakeWhenAssertionPending",
      "inputs": []
    },
    {
      "type": "error",
      "name": "Module__LM_PC_KPIRewarder_v1__InvalidKPINumber",
      "inputs": []
    },
    {
      "type": "error",
      "name": "Module__LM_PC_KPIRewarder_v1__InvalidKPITrancheValues",
      "inputs": []
    },
    {
      "type": "error",
      "name": "Module__LM_PC_KPIRewarder_v1__InvalidKPIValueLengths",
      "inputs": []
    },
    {
      "type": "error",
      "name": "Module__LM_PC_KPIRewarder_v1__InvalidTrancheNumber",
      "inputs": []
    },
    {
      "type": "error",
      "name": "Module__LM_PC_KPIRewarder_v1__ModuleCannotUseStakingTokenAsBond",
      "inputs": []
    },
    {
      "type": "error",
      "name": "Module__LM_PC_KPIRewarder_v1__NonExistentAssertionId",
      "inputs": [
        {
          "name": "assertionId",
          "type": "bytes32",
          "internalType": "bytes32"
        }
      ]
    },
    {
      "type": "error",
      "name": "Module__LM_PC_KPIRewarder_v1__UnresolvedAssertionExists",
      "inputs": []
    },
    {
      "type": "error",
      "name": "Module__LM_PC_Staking_v1__InvalidDuration",
      "inputs": []
    },
    {
      "type": "error",
      "name": "Module__LM_PC_Staking_v1__InvalidRewardRate",
      "inputs": []
    },
    {
      "type": "error",
      "name": "Module__LM_PC_Staking_v1__InvalidStakingToken",
      "inputs": []
    },
    {
      "type": "error",
      "name": "Module__OnlyCallableByOrchestrator",
      "inputs": []
    },
    {
      "type": "error",
      "name": "Module__OnlyCallableByPaymentClient",
      "inputs": []
    },
    {
      "type": "error",
      "name": "Module__OptimisticOracleIntegrator_InsufficientFundsToPayForBond",
      "inputs": []
    },
    {
      "type": "error",
      "name": "Module__OptimisticOracleIntegrator__CallerNotOO",
      "inputs": []
    },
    {
      "type": "error",
      "name": "Module__OptimisticOracleIntegrator__CurrencyBondTooLow",
      "inputs": []
    },
    {
      "type": "error",
      "name": "Module__OptimisticOracleIntegrator__InvalidDefaultCurrency",
      "inputs": []
    },
    {
      "type": "error",
      "name": "Module__OptimisticOracleIntegrator__InvalidDefaultLiveness",
      "inputs": []
    },
    {
      "type": "error",
      "name": "Module__OptimisticOracleIntegrator__InvalidOOInstance",
      "inputs": []
    },
    {
      "type": "error",
      "name": "NotInitializing",
      "inputs": []
    },
    {
      "type": "error",
      "name": "ReentrancyGuardReentrantCall",
      "inputs": []
    },
    {
      "type": "error",
      "name": "SafeERC20FailedOperation",
      "inputs": [
        {
          "name": "token",
          "type": "address",
          "internalType": "address"
        }
      ]
    }
  ],
  "bytecode": {
    "object": "0x60a06040523480156200001157600080fd5b5060006080526200002162000027565b620000db565b7ff0c57e16840df040f15088dc2f81fe391c3923bec73e23a9662efc9c229c6a00805468010000000000000000900460ff1615620000785760405163f92ee8a960e01b815260040160405180910390fd5b80546001600160401b0390811614620000d85780546001600160401b0319166001600160401b0390811782556040519081527fc7f505b2f371ae2175ee4913f4499e1f2633a7b5936321eed1cdaeb6115181d29060200160405180910390a15b50565b608051615e72620000f460003960005050615e726000f3fe608060405234801561001057600080fd5b50600436106103565760003560e01c806378802654116101c8578063a6d14d6911610104578063bf14d4a9116100a2578063d448a4ec1161007c578063d448a4ec1461093f578063d509b01714610950578063e31ae42114610959578063f1b156b21461096c57600080fd5b8063bf14d4a9146108ee578063bf5c325214610915578063c0231ff61461092857600080fd5b8063b74795d9116100de578063b74795d914610883578063b75d4e2414610894578063bc7d2a33146108c8578063bcb61920146108db57600080fd5b8063a6d14d6914610854578063b33ec6181461085d578063b66a870c1461087057600080fd5b806381d09517116101715780638921a6141161014b5780638921a614146107d357806393ee663b146107e6578063956ae17b146107f9578063a694fc3a1461084157600080fd5b806381d09517146106f25780638333cb0614610705578063883028841461070e57600080fd5b80637b9a9c7f116101a25780637b9a9c7f1461067d5780637da0a877146106d75780637e5f43ff146106df57600080fd5b806378802654146106635780637998a1c41461066c5780637b0a47ee1461067457600080fd5b806354f6127f1161029757806364e6bbe51161024057806370a082311161021a57806370a08231146105f257806372f702f31461061b57806375fa0b761461062e578063772fd8da1461064357600080fd5b806364e6bbe5146105b9578063654e51e7146105cc5780636c67e807146105df57600080fd5b8063572b6c0511610271578063572b6c051461058657806359be48f21461059957806360a93176146105ac57600080fd5b806354f6127f1461053057806354fd4d501461055a5780635600f04f1461057e57600080fd5b8063272bbd44116103045780632e84db5f116102de5780632e84db5f1461049b578063372500ab146104c45780633ecd7972146104cc5780634a79d50c1461051b57600080fd5b8063272bbd44146104005780632a4e1904146104135780632e17de781461048857600080fd5b806318160ddd1161033557806318160ddd146103b757806320402e1d146103c057806324e30270146103eb57600080fd5b80628cc2621461035b57806301ffc9a714610381578063074644e6146103a4575b600080fd5b61036e610369366004614f19565b61097f565b6040519081526020015b60405180910390f35b61039461038f366004614f36565b610998565b6040519015158152602001610378565b61036e6103b2366004614f60565b6109d8565b61036e606d5481565b60a7546103d3906001600160a01b031681565b6040516001600160a01b039091168152602001610378565b6103fe6103f9366004614feb565b610c40565b005b6103fe61040e366004614feb565b610ea4565b610457610421366004615037565b60ab602052600090815260409020805460018201546002909201549091906001600160a01b03811690600160a01b900460ff1684565b604051610378949392919093845260208401929092526001600160a01b031660408301521515606082015260800190565b6103fe610496366004615037565b61107e565b61036e6104a9366004614f19565b6001600160a01b031660009081526039602052604090205490565b6103fe611197565b6104fe6104da366004615037565b60df6020526000908152604090208054600182015460029092015490919060ff1683565b604080519384526020840192909252151590820152606001610378565b6105236111e9565b60405161037891906150a0565b61054361053e366004615037565b61127e565b604080519215158352602083019190915201610378565b60015460025460035460408051938452602084019290925290820152606001610378565b6105236112c5565b610394610594366004614f19565b6112d7565b6103fe6105a73660046150b3565b611346565b60e1546103949060ff1681565b6103fe6105c7366004615037565b611400565b6103fe6105da3660046150df565b6114e8565b6103fe6105ed366004615101565b61153d565b61036e610600366004614f19565b6001600160a01b031660009081526072602052604090205490565b606c546103d3906001600160a01b031681565b610636611753565b60405161037891906151b9565b610656610651366004615037565b6117f6565b60405161037891906151fd565b61036e60de5481565b61036e611916565b61036e606e5481565b6106b561068b366004615037565b60e06020526000908152604090208054600182015460028301546003909301549192909160ff1684565b6040805194855260208501939093529183015215156060820152608001610378565b6103d3611a74565b61036e6106ed3660046150df565b611aec565b6103fe61070036600461526c565b611ba8565b61036e60a85481565b61079561071c366004615037565b60408051608081018252600080825260208201819052918101829052606081019190915250600090815260ab6020908152604091829020825160808101845281548152600182015492810192909252600201546001600160a01b03811692820192909252600160a01b90910460ff161515606082015290565b604051610378919081518152602080830151908201526040808301516001600160a01b03169082015260609182015115159181019190915260800190565b60a9546103d3906001600160a01b031681565b61036e6107f4366004615289565b611bfc565b61080c610807366004615037565b612024565b604051610378919081518152602080830151908201526040808301519082015260609182015115159181019190915260800190565b6103fe61084f366004615037565b61209b565b61036e606f5481565b6103fe61086b3660046150b3565b61212a565b6103fe61087e3660046153b2565b612188565b6000546001600160a01b03166103d3565b60a9546108af90600160a01b900467ffffffffffffffff1681565b60405167ffffffffffffffff9091168152602001610378565b61036e6108d63660046154a6565b6122ee565b6103fe6108e9366004615101565b6125ae565b61036e7f351566c1ac6c6b0e5df4c16e81bc932aa8bf8cb9457b6e94847672b67f393cba81565b6103fe610923366004614f19565b612790565b6109306127e4565b60405161037893929190615529565b6103fe61094d366004615037565b50565b61036e60aa5481565b6103fe610967366004615037565b612ca3565b6103fe61097a36600461559c565b612ed1565b60006109928261098d6131c9565b613231565b92915050565b60006001600160e01b03198216630de8208b60e41b14806109c957506001600160e01b031982166363a1750b60e01b145b806109925750610992826132a0565b60007f351566c1ac6c6b0e5df4c16e81bc932aa8bf8cb9457b6e94847672b67f393cba610af260008054906101000a90046001600160a01b03166001600160a01b031663d09edf316040518163ffffffff1660e01b8152600401602060405180830381865afa158015610a4f573d6000803e3d6000fd5b505050506040513d601f19601f82011682018060405250810190610a7391906155c1565b60405163fdd5205f60e01b8152306004820152602481018490526001600160a01b03919091169063fdd5205f906044015b602060405180830381865afa158015610ac1573d6000803e3d6000fd5b505050506040513d601f19601f82011682018060405250810190610ae591906155de565b610aed6132e0565b613332565b60e15460ff1615610b1657604051631d0f767960e31b815260040160405180910390fd5b6001600160a01b03841630148015610b3e5750606c5460a7546001600160a01b039081169116145b15610b5c576040516357ee800b60e11b815260040160405180910390fd5b60de541580610b6d575060de548310155b15610b8b5760405163b88c02af60e01b815260040160405180910390fd5b610b96868686611bfc565b604080516080810182524280825260208083018a815283850189815260006060860181815288825260e08552908790209551865591516001860155516002850155516003909301805460ff1916931515939093179092558251908152908101889052919350849184917f2f7b2bd564a62db13a01d975e329f0cd4b96b6e435fd4114d8e25ab72a349f43910160405180910390a35060e1805460ff19166001179055949350505050565b600080546040805163d09edf3160e01b815290518693926001600160a01b03169163d09edf319160048083019260209291908290030181865afa158015610c8b573d6000803e3d6000fd5b505050506040513d601f19601f82011682018060405250810190610caf91906155c1565b60405163fdd5205f60e01b8152306004820152602481018490526001600160a01b03919091169063fdd5205f90604401602060405180830381865afa158015610cfc573d6000803e3d6000fd5b505050506040513d601f19601f82011682018060405250810190610d2091906155de565b9050610dc760008054906101000a90046001600160a01b03166001600160a01b031663d09edf316040518163ffffffff1660e01b8152600401602060405180830381865afa158015610d76573d6000803e3d6000fd5b505050506040513d601f19601f82011682018060405250810190610d9a91906155c1565b6001600160a01b031663248a9ca3836040518263ffffffff1660e01b8152600401610aa491815260200190565b60008054906101000a90046001600160a01b03166001600160a01b031663d09edf316040518163ffffffff1660e01b8152600401602060405180830381865afa158015610e18573d6000803e3d6000fd5b505050506040513d601f19601f82011682018060405250810190610e3c91906155c1565b6001600160a01b0316637d540a648686866040518463ffffffff1660e01b8152600401610e6b939291906155f7565b600060405180830381600087803b158015610e8557600080fd5b505af1158015610e99573d6000803e3d6000fd5b505050505050505050565b600080546040805163d09edf3160e01b815290518693926001600160a01b03169163d09edf319160048083019260209291908290030181865afa158015610eef573d6000803e3d6000fd5b505050506040513d601f19601f82011682018060405250810190610f1391906155c1565b60405163fdd5205f60e01b8152306004820152602481018490526001600160a01b03919091169063fdd5205f90604401602060405180830381865afa158015610f60573d6000803e3d6000fd5b505050506040513d601f19601f82011682018060405250810190610f8491906155de565b9050610fda60008054906101000a90046001600160a01b03166001600160a01b031663d09edf316040518163ffffffff1660e01b8152600401602060405180830381865afa158015610d76573d6000803e3d6000fd5b60008054906101000a90046001600160a01b03166001600160a01b031663d09edf316040518163ffffffff1660e01b8152600401602060405180830381865afa15801561102b573d6000803e3d6000fd5b505050506040513d601f19601f8201168201806040525081019061104f91906155c1565b6001600160a01b031663648154538686866040518463ffffffff1660e01b8152600401610e6b939291906155f7565b611086613449565b8061109081613493565b600061109a6132e0565b90506110a5816134b4565b6001600160a01b038116600090815260726020526040812080548592906110cd908490615665565b9250508190555082606d60008282546110e69190615665565b9091555050606c54611102906001600160a01b03168285613572565b6001600160a01b0381166000908152607460205260409020541561112957611129816135d6565b806001600160a01b03167f0f5bb82176feb1b5e747e28471aa92156a04d9f3ab9f45f28e2d704232b93f758460405161116491815260200190565b60405180910390a2505061094d60017f9b779b17422d0df92223018b32b4d1fa46e071723d6817e2486d003becc55f0055565b61119f613449565b60006111a96132e0565b90506111b4816134b4565b6111bd816135d6565b506111e760017f9b779b17422d0df92223018b32b4d1fa46e071723d6817e2486d003becc55f0055565b565b6060600160040180546111fb90615678565b80601f016020809104026020016040519081016040528092919081815260200182805461122790615678565b80156112745780601f1061124957610100808354040283529160200191611274565b820191906000526020600020905b81548152906001019060200180831161125757829003601f168201915b5050505050905090565b600081815260ab60205260408120600201548190600160a01b900460ff166112ab57506000928392509050565b5050600090815260ab602052604090206001908101549091565b6060600160030180546111fb90615678565b6000805460405163572b6c0560e01b81526001600160a01b0384811660048301529091169063572b6c0590602401602060405180830381865afa158015611322573d6000803e3d6000fd5b505050506040513d601f19601f8201168201806040525081019061099291906156c2565b6000546040805163d09edf3160e01b815290516113f2926001600160a01b03169163d09edf319160048083019260209291908290030181865afa158015611391573d6000803e3d6000fd5b505050506040513d601f19601f820116820180604052508101906113b591906155c1565b6001600160a01b031663b3ecf2366040518163ffffffff1660e01b8152600401602060405180830381865afa158015610ac1573d6000803e3d6000fd5b6113fc828261381f565b5050565b6000546040805163d09edf3160e01b8152905161144b926001600160a01b03169163d09edf319160048083019260209291908290030181865afa158015611391573d6000803e3d6000fd5b611453613449565b8061145d81613493565b61147c6114686132e0565b60a7546001600160a01b03169030856138fa565b60a7546040518381526001600160a01b03909116907f643b1bd5b160e780fef319c0a18a3535edb10da7f7136320b2935bb6f1a9f6059060200160405180910390a25061094d60017f9b779b17422d0df92223018b32b4d1fa46e071723d6817e2486d003becc55f0055565b6000546040805163d09edf3160e01b81529051611533926001600160a01b03169163d09edf319160048083019260209291908290030181865afa158015611391573d6000803e3d6000fd5b6113fc8282613939565b600080546040805163d09edf3160e01b815290518593926001600160a01b03169163d09edf319160048083019260209291908290030181865afa158015611588573d6000803e3d6000fd5b505050506040513d601f19601f820116820180604052508101906115ac91906155c1565b60405163fdd5205f60e01b8152306004820152602481018490526001600160a01b03919091169063fdd5205f90604401602060405180830381865afa1580156115f9573d6000803e3d6000fd5b505050506040513d601f19601f8201168201806040525081019061161d91906155de565b905061167360008054906101000a90046001600160a01b03166001600160a01b031663d09edf316040518163ffffffff1660e01b8152600401602060405180830381865afa158015610d76573d6000803e3d6000fd5b60008054906101000a90046001600160a01b03166001600160a01b031663d09edf316040518163ffffffff1660e01b8152600401602060405180830381865afa1580156116c4573d6000803e3d6000fd5b505050506040513d601f19601f820116820180604052508101906116e891906155c1565b60405163385e205560e21b8152600481018690526001600160a01b038581166024830152919091169063e1788154906044015b600060405180830381600087803b15801561173557600080fd5b505af1158015611749573d6000803e3d6000fd5b5050505050505050565b60606038805480602002602001604051908101604052809291908181526020016000905b828210156117ed5760008481526020908190206040805160c0810182526006860290920180546001600160a01b0390811684526001808301549091168486015260028201549284019290925260038101546060840152600481015460808401526005015460a08301529083529092019101611777565b50505050905090565b61182a6040518060a00160405280600081526020016000815260200160001515815260200160608152602001606081525090565b600082815260df6020908152604091829020825160a08101845281548152600182015481840152600282015460ff1615158185015260038201805485518186028101860190965280865291949293606086019392908301828280156118ae57602002820191906000526020600020905b81548152602001906001019080831161189a575b505050505081526020016004820180548060200260200160405190810160405280929190818152602001828054801561190657602002820191906000526020600020905b8154815260200190600101908083116118f2575b5050505050815250509050919050565b6000611a6f60016040518060a001604052908160008201548152602001600182015481526020016002820154815260200160038201805461195690615678565b80601f016020809104026020016040519081016040528092919081815260200182805461198290615678565b80156119cf5780601f106119a4576101008083540402835291602001916119cf565b820191906000526020600020905b8154815290600101906020018083116119b257829003601f168201915b505050505081526020016004820180546119e890615678565b80601f0160208091040260200160405190810160405280929190818152602001828054611a1490615678565b8015611a615780601f10611a3657610100808354040283529160200191611a61565b820191906000526020600020905b815481529060010190602001808311611a4457829003601f168201915b505050505081525050613a4c565b905090565b60008060009054906101000a90046001600160a01b03166001600160a01b0316637da0a8776040518163ffffffff1660e01b8152600401602060405180830381865afa158015611ac8573d6000803e3d6000fd5b505050506040513d601f19601f82011682018060405250810190611a6f91906155c1565b600082611af881613493565b8280600003611b1a57604051630e05ce7960e41b815260040160405180910390fd5b606f54421115611b2d5760009250611ba0565b606f54611b3a85426156ea565b1115611b515742606f54611b4e9190615665565b93505b606d54600003611b7957606e54611b6885876156fd565b611b7291906156fd565b9250611ba0565b606d54606e54611b8986886156fd565b611b9391906156fd565b611b9d919061572a565b92505b505092915050565b6000546040805163d09edf3160e01b81529051611bf3926001600160a01b03169163d09edf319160048083019260209291908290030181865afa158015611391573d6000803e3d6000fd5b61094d81613a8c565b60007f351566c1ac6c6b0e5df4c16e81bc932aa8bf8cb9457b6e94847672b67f393cba611c7360008054906101000a90046001600160a01b03166001600160a01b031663d09edf316040518163ffffffff1660e01b8152600401602060405180830381865afa158015610a4f573d6000803e3d6000fd5b6001600160a01b03831615611c885782611c90565b611c906132e0565b9250306001600160a01b03841603611d355760a85460a7546040516370a0823160e01b81523060048201526001600160a01b03909116906370a0823190602401602060405180830381865afa158015611ced573d6000803e3d6000fd5b505050506040513d601f19601f82011682018060405250810190611d1191906155de565b1015611d3057604051635ad9961b60e01b815260040160405180910390fd5b611e43565b60a75460a854604080516001600160a01b03878116602483015230604483015260648083019490945282518083039094018452608490910182526020830180516001600160e01b03166323b872dd60e01b17905290516000938493921691611d9c91615768565b6000604051808303816000865af19150503d8060008114611dd9576040519150601f19603f3d011682016040523d82523d6000602084013e611dde565b606091505b5091509150811580611e0d575060008151118015611e0d575080806020019051810190611e0b91906156c2565b155b80611e22575060a7546001600160a01b03163b155b15611e4057604051635ad9961b60e01b815260040160405180910390fd5b50505b60a95460a85460a754611e64926001600160a01b0391821692911690613afb565b60a9546001600160a01b0316636457c979611e7e86613b85565b611e8788613b85565b611e9087613bc6565b611e9942613c3e565b611ea230613bc6565b604051602001611eb6959493929190615784565b60408051808303601f190181529082905260a95460a75460a85460aa5460e087901b6001600160e01b0319168652611f18958b943094600094600160a01b90920467ffffffffffffffff16936001600160a01b039091169285906004016158e2565b6020604051808303816000875af1158015611f37573d6000803e3d6000fd5b505050506040513d601f19601f82011682018060405250810190611f5b91906155de565b6040805160808101825287815260208082018881526001600160a01b0380891684860181815260006060870181815289825260ab909652879020955186559251600186015591516002909401805493511515600160a01b0274ffffffffffffffffffffffffffffffffffffffffff199094169490911693909317919091179091559051919350839187907f29ae27364abd65b112ad0ac18e7e4f97360c20afa9636864dc91195d4d9204ec906120149089815260200190565b60405180910390a4509392505050565b61205160405180608001604052806000815260200160008152602001600081526020016000151581525090565b50600090815260e0602090815260409182902082516080810184528154815260018201549281019290925260028101549282019290925260039091015460ff161515606082015290565b6120a3613449565b806120ad81613493565b60e15460ff16156120d15760405163ee0a20ad60e01b815260040160405180910390fd5b60006120db6132e0565b90506120e78184613d82565b606c546120ff906001600160a01b03168230866138fa565b505061094d60017f9b779b17422d0df92223018b32b4d1fa46e071723d6817e2486d003becc55f0055565b61213a6121356132e0565b613e33565b6121575760405163e4597a6b60e01b815260040160405180910390fd5b6001600160a01b0382166000908152603960205260408120805483929061217f908490615665565b90915550505050565b7ff0c57e16840df040f15088dc2f81fe391c3923bec73e23a9662efc9c229c6a00805468010000000000000000810460ff16159067ffffffffffffffff166000811580156121d35750825b905060008267ffffffffffffffff1660011480156121f05750303b155b9050811580156121fe575080155b1561221c5760405163f92ee8a960e01b815260040160405180910390fd5b845467ffffffffffffffff19166001178555831561225057845468ff00000000000000001916680100000000000000001785555b61225a8888613eb3565b60008060008060008a806020019051810190612276919061595b565b9450945094509450945061228985613fa1565b61229584848484613fb2565b5050505050831561174957845468ff000000000000000019168555604051600181527fc7f505b2f371ae2175ee4913f4499e1f2633a7b5936321eed1cdaeb6115181d29060200160405180910390a15050505050505050565b600080546040805163d09edf3160e01b8152905161233a926001600160a01b03169163d09edf319160048083019260209291908290030181865afa158015611391573d6000803e3d6000fd5b83600181108061234a5750601481115b156123685760405163036da02f60e61b815260040160405180910390fd5b80831461238857604051631166f7c560e31b815260040160405180910390fd5b60008484600081811061239d5761239d6159c6565b90506020020135905060018211156124465760015b82811015612444578787828181106123cc576123cc6159c6565b9050602002013588886001846123e29190615665565b8181106123f1576123f16159c6565b90506020020135106124165760405163458f641360e11b815260040160405180910390fd5b858582818110612428576124286159c6565b905060200201358261243a91906156ea565b91506001016123b2565b505b600060de5490506040518060a001604052808481526020018381526020018a1515815260200189898080602002602001604051908101604052809392919081815260200183836020028082843760009201919091525050509082525060408051602089810282810182019093528982529283019290918a918a918291850190849080828437600092018290525093909452505083815260df6020908152604091829020845181558482015160018201559184015160028301805460ff19169115159190911790556060840151805192935061252a9260038501929190910190614e3b565b5060808201518051612546916004840191602090910190614e3b565b505060de805491506000612559836159dc565b9190505550807fc1063bd63d477506eb51343042d915c0d3377b74bb787bc0f4d255ca1a7039b684848c8c8c8c8c60405161259a9796959493929190615a40565b60405180910390a298975050505050505050565b600080546040805163d09edf3160e01b815290518593926001600160a01b03169163d09edf319160048083019260209291908290030181865afa1580156125f9573d6000803e3d6000fd5b505050506040513d601f19601f8201168201806040525081019061261d91906155c1565b60405163fdd5205f60e01b8152306004820152602481018490526001600160a01b03919091169063fdd5205f90604401602060405180830381865afa15801561266a573d6000803e3d6000fd5b505050506040513d601f19601f8201168201806040525081019061268e91906155de565b90506126e460008054906101000a90046001600160a01b03166001600160a01b031663d09edf316040518163ffffffff1660e01b8152600401602060405180830381865afa158015610d76573d6000803e3d6000fd5b60008054906101000a90046001600160a01b03166001600160a01b031663d09edf316040518163ffffffff1660e01b8152600401602060405180830381865afa158015612735573d6000803e3d6000fd5b505050506040513d601f19601f8201168201806040525081019061275991906155c1565b604051632e99be7f60e21b8152600481018690526001600160a01b038581166024830152919091169063ba66f9fc9060440161171b565b6000546040805163d09edf3160e01b815290516127db926001600160a01b03169163d09edf319160048083019260209291908290030181865afa158015611391573d6000803e3d6000fd5b61094d81613fd6565b60608060606127f46121356132e0565b6128115760405163e4597a6b60e01b815260040160405180910390fd5b6038546000808267ffffffffffffffff811115612830576128306152c2565b604051908082528060200260200182016040528015612859578160200160208202803683370190505b50905060008367ffffffffffffffff811115612877576128776152c2565b6040519080825280602002602001820160405280156128a0578160200160208202803683370190505b50905060008467ffffffffffffffff8111156128be576128be6152c2565b60405190808252806020026020018201604052801561293a57816020015b6129276040518060c0016040528060006001600160a01b0316815260200160006001600160a01b03168152602001600081526020016000815260200160008152602001600081525090565b8152602001906001900390816128dc5790505b50905060005b85811015612b14576038818154811061295b5761295b6159c6565b60009182526020918290206040805160c081018252600690930290910180546001600160a01b03908116845260018201541693830193909352600283015490820152600382015460608201526004820154608082015260059091015460a082015282518390839081106129d0576129d06159c6565b60200260200101819052506000805b86811015612a47578383815181106129f9576129f96159c6565b6020026020010151602001516001600160a01b0316868281518110612a2057612a206159c6565b60200260200101516001600160a01b031603612a3f5760019150612a47565b6001016129df565b5080612b0b57828281518110612a5f57612a5f6159c6565b602002602001015160200151858781518110612a7d57612a7d6159c6565b60200260200101906001600160a01b031690816001600160a01b03168152505060396000848481518110612ab357612ab36159c6565b6020026020010151602001516001600160a01b03166001600160a01b0316815260200190815260200160002054848781518110612af257612af26159c6565b602090810291909101015285612b07816159dc565b9650505b50600101612940565b50612b2160386000614e86565b60008467ffffffffffffffff811115612b3c57612b3c6152c2565b604051908082528060200260200182016040528015612b65578160200160208202803683370190505b50905060008567ffffffffffffffff811115612b8357612b836152c2565b604051908082528060200260200182016040528015612bac578160200160208202803683370190505b50905060005b86811015612c9257858181518110612bcc57612bcc6159c6565b6020026020010151838281518110612be657612be66159c6565b60200260200101906001600160a01b031690816001600160a01b031681525050848181518110612c1857612c186159c6565b6020026020010151828281518110612c3257612c326159c6565b602002602001018181525050612c68612c496132e0565b848381518110612c5b57612c5b6159c6565b6020026020010151614080565b612c8a838281518110612c7d57612c7d6159c6565b60200260200101516140a5565b600101612bb2565b509199909850909650945050505050565b6000546040805163d09edf3160e01b81529051612cee926001600160a01b03169163d09edf319160048083019260209291908290030181865afa158015611391573d6000803e3d6000fd5b600081815260ab6020526040902054612d2257604051634cd2cb0d60e01b8152600481018290526024015b60405180910390fd5b60a95460405163220c0a2160e21b8152600481018390526000916001600160a01b03169063883028849060240161020060405180830381865afa158015612d6d573d6000803e3d6000fd5b505050506040513d601f19601f82011682018060405250810190612d919190615b04565b60a0015167ffffffffffffffff169050804211612dc45760405163189f57a760e11b815260048101839052602401612d19565b60a954604051634124beef60e01b8152600481018490526001600160a01b0390911690634124beef90602401600060405180830381600087803b158015612e0a57600080fd5b505af1925050508015612e1b575060015b612eb557600082815260e060209081526040808320838155600180820185905560028083018690556003909201805460ff1990811690915560ab90945282852085815590810185905501805474ffffffffffffffffffffffffffffffffffffffffff1916905560e180549092169091555183917fcd1f3eba521c46676cab303c79c9a68595d6f3efd65761b2588af919b7b2885b91a25050565b60405163189f57a760e11b815260048101839052602401612d19565b600082815260ab6020526040902054612f0057604051634cd2cb0d60e01b815260048101839052602401612d19565b612f0a828261432b565b801561318f57600082815260e060209081526040808320600290810154845260df8352818420825160a081018452815481526001820154818601529181015460ff161515828401526003810180548451818702810187019095528085529294919360608601939092830182828015612fa157602002820191906000526020600020905b815481526020019060010190808311612f8d575b5050505050815260200160048201805480602002602001604051908101604052809291908181526020018280548015612ff957602002820191906000526020600020905b815481526020019060010190808311612fe5575b50505050508152505090506000805b825181101561316057600085815260e06020526040902060010154606084015180518390811061303a5761303a6159c6565b602002602001015111613077578260800151818151811061305d5761305d6159c6565b60200260200101518261307091906156ea565b9150613158565b82604001511561315357600083608001518281518110613099576130996159c6565b602002602001015190506000826000146130da5760608501516130bd600185615665565b815181106130cd576130cd6159c6565b60200260200101516130dd565b60005b600088815260e06020526040812060010154919250906130fe908390615665565b905060008287606001518681518110613119576131196159c6565b602002602001015161312b9190615665565b90508061313885846156fd565b613142919061572a565b61314c90876156ea565b9550505050505b613160565b600101613008565b5061316c816001613939565b5050600082815260e060205260409020600301805460ff191660011790556131bb565b600082815260e060205260408120818155600181018290556002810191909155600301805460ff191690555b505060e1805460ff19169055565b6000606d546000036131dc575060705490565b607054606d54606e546071546131f0614479565b6131fa9190615665565b61320491906156fd565b61321d906ec097ce7bc90715b34b9f10000000006156fd565b613227919061572a565b611a6f91906156ea565b6001600160a01b038216600090815260746020908152604080832054607283528184205460739093529083205490916ec097ce7bc90715b34b9f10000000009161327b9086615665565b61328591906156fd565b61328f919061572a565b61329991906156ea565b9392505050565b60006001600160e01b0319821663281ab37760e01b14806132d157506001600160e01b031982166312fcf92f60e11b145b80610992575061099282614491565b60003660146132ee336112d7565b80156132fa5750808210155b1561332a5760003661330c8385615665565b613317928290615be4565b61332091615c0e565b60601c9250505090565b339250505090565b60008054906101000a90046001600160a01b03166001600160a01b031663d09edf316040518163ffffffff1660e01b8152600401602060405180830381865afa158015613383573d6000803e3d6000fd5b505050506040513d601f19601f820116820180604052508101906133a791906155c1565b60405163a883867d60e01b8152600481018490526001600160a01b038381166024830152919091169063a883867d90604401602060405180830381865afa1580156133f6573d6000803e3d6000fd5b505050506040513d601f19601f8201168201806040525081019061341a91906156c2565b6113fc576040516342abbb7760e01b8152600481018390526001600160a01b0382166024820152604401612d19565b7f9b779b17422d0df92223018b32b4d1fa46e071723d6817e2486d003becc55f0080546001190161348d57604051633ee5aeb560e01b815260040160405180910390fd5b60029055565b8060000361094d576040516351cd1a8760e11b815260040160405180910390fd5b60006134be6131c9565b6070819055905060006134cf614479565b6071819055905060006001600160a01b03841615613520576134f384607054613231565b6001600160a01b038516600090815260746020908152604080832084905560705460739092529091205590505b60408051848152602081018490529081018290526001600160a01b038516907fa970b12b7ab9d055296c48cc861cf24cf1b06100b204a5a3a32d9208ca06cc919060600160405180910390a250505050565b6040516001600160a01b038381166024830152604482018390526135d191859182169063a9059cbb906064015b604051602081830303815290604052915060e01b6020820180516001600160e01b0383818316178352505050506144b6565b505050565b6001600160a01b03811660008181526074602090815260408083208054939055805160c08101909152928352909161370891810161361c6000546001600160a01b031690565b6001600160a01b03166304baed9e6040518163ffffffff1660e01b8152600401602060405180830381865afa158015613659573d6000803e3d6000fd5b505050506040513d601f19601f8201168201806040525081019061367d91906155c1565b6001600160a01b031663fc0c546a6040518163ffffffff1660e01b8152600401602060405180830381865afa1580156136ba573d6000803e3d6000fd5b505050506040513d601f19601f820116820180604052508101906136de91906155c1565b6001600160a01b031681526020018381526020014281526020016000815260200142815250614519565b60008054906101000a90046001600160a01b03166001600160a01b031663f1c6bdf86040518163ffffffff1660e01b8152600401602060405180830381865afa158015613759573d6000803e3d6000fd5b505050506040513d601f19601f8201168201806040525081019061377d91906155c1565b60405163e151fc6160e01b81523060048201526001600160a01b03919091169063e151fc6190602401600060405180830381600087803b1580156137c057600080fd5b505af11580156137d4573d6000803e3d6000fd5b50505050816001600160a01b03167fdf29796aad820e4bb192f3a8d631b76519bcd2cbe77cc85af20e9df53cece0868260405161381391815260200190565b60405180910390a25050565b6001600160a01b03821661384657604051630d03dd3d60e01b815260040160405180910390fd5b60a954604051634360af3d60e01b81526001600160a01b03848116600483015290911690634360af3d90602401602060405180830381865afa158015613890573d6000803e3d6000fd5b505050506040513d601f19601f820116820180604052508101906138b491906155de565b8110156138d457604051634c79406b60e01b815260040160405180910390fd5b60a780546001600160a01b0319166001600160a01b03939093169290921790915560a855565b6040516001600160a01b0384811660248301528381166044830152606482018390526139339186918216906323b872dd9060840161359f565b50505050565b8161394381613493565b818060000361396557604051630e05ce7960e41b815260040160405180910390fd5b61396f60006134b4565b606f54421061398a57613982838561572a565b606e556139c3565b6000606e5442606f5461399d9190615665565b6139a791906156fd565b9050836139b482876156ea565b6139be919061572a565b606e55505b606e546000036139e657604051631db9af3b60e21b815260040160405180910390fd5b6139f083426156ea565b606f81905542607155606e5460408051878152602081018790529081019190915260608101919091527fe6ff9e5909ab32d770b5c8e779b77275ca8dda9d96cfb24d0287d80715dd02969060800160405180910390a150505050565b6000816000015182606001518360800151604051602001613a6f93929190615c41565b604051602081830303815290604052805190602001209050919050565b6154608167ffffffffffffffff161015613ab957604051634f0d3f4960e01b815260040160405180910390fd5b60a9805467ffffffffffffffff909216600160a01b027fffffffff0000000000000000ffffffffffffffffffffffffffffffffffffffff909216919091179055565b604051636eb1769f60e11b81523060048201526001600160a01b0383811660248301526000919085169063dd62ed3e90604401602060405180830381865afa158015613b4b573d6000803e3d6000fd5b505050506040513d601f19601f82011682018060405250810190613b6f91906155de565b90506139338484613b8085856156ea565b6146da565b6060613b94608083901c61476a565b613b9d8361476a565b6040805160208101939093528201526060015b6040516020818303038152906040529050919050565b6060613be76fffffffffffffffffffffffffffffffff602084901c1661476a565b613c028360601b6bffffffffffffffffffffffff191661476a565b604051602001613bb09291909182527fffffffffffffffff00000000000000000000000000000000000000000000000016602082015260280190565b606081600003613c655750506040805180820190915260018152600360fc1b602082015290565b8160005b8115613c8f5780613c79816159dc565b9150613c889050600a8361572a565b9150613c69565b60008167ffffffffffffffff811115613caa57613caa6152c2565b6040519080825280601f01601f191660200182016040528015613cd4576020820181803683370190505b509050815b8515613d7957613cea600182615665565b90506000613cf9600a8861572a565b613d0490600a6156fd565b613d0e9088615665565b613d19906030615c6c565b905060008160f81b905080848481518110613d3657613d366159c6565b60200101907effffffffffffffffffffffffffffffffffffffffffffffffffffffffffffff1916908160001a905350613d70600a8961572a565b97505050613cd9565b50949350505050565b613d8b826134b4565b6001600160a01b03821660009081526074602052604090205415613db257613db2826135d6565b6001600160a01b03821660009081526072602052604081208054839290613dda9084906156ea565b9250508190555080606d6000828254613df391906156ea565b90915550506040518181526001600160a01b038316907f9e71bc8eea02a63969f509818f2dafb9254532904319f9dbda79b67bd34a5f3d90602001613813565b6000805460408051631e38d7bf60e31b815290516001600160a01b0380861693169163f1c6bdf89160048083019260209291908290030181865afa158015613e7f573d6000803e3d6000fd5b505050506040513d601f19601f82011682018060405250810190613ea391906155c1565b6001600160a01b03161492915050565b613ebb61490c565b6001600160a01b038216613ee257604051637280679360e01b815260040160405180910390fd5b600080546001600160a01b0319166001600160a01b038416179055613f068161495a565b613f2357604051637511254160e01b815260040160405180910390fd5b80516001908155602082015160025560408201516003556060820151829190600490613f4f9082615cd5565b5060808201516004820190613f649082615cd5565b50905050816001600160a01b03167fd5f3f84c2e1816ce290af84d002663800b02f2985d770cdd335de76fd723b730826040516138139190615d95565b613fa961490c565b61094d816149ba565b613fba61490c565b613fc382613fd6565b613fcc81613a8c565b613933848461381f565b6001600160a01b038116613ffd576040516321ea035160e21b815260040160405180910390fd5b60a980546001600160a01b0319166001600160a01b0383169081179091556040805163d509b01760e01b8152905163d509b017916004808201926020929091908290030181865afa158015614056573d6000803e3d6000fd5b505050506040513d601f19601f8201168201806040525081019061407a91906155de565b60aa5550565b6001600160a01b0381166000818152603960205260409020546113fc919084906146da565b6001600160a01b0381166000818152603960205260408082205490516370a0823160e01b81523060048201529092906370a0823190602401602060405180830381865afa1580156140fa573d6000803e3d6000fd5b505050506040513d601f19601f8201168201806040525081019061411e91906155de565b9050818110156135d15760008054906101000a90046001600160a01b03166001600160a01b03166304baed9e6040518163ffffffff1660e01b8152600401602060405180830381865afa158015614179573d6000803e3d6000fd5b505050506040513d601f19601f8201168201806040525081019061419d91906155c1565b6001600160a01b031663fc0c546a6040518163ffffffff1660e01b8152600401602060405180830381865afa1580156141da573d6000803e3d6000fd5b505050506040513d601f19601f820116820180604052508101906141fe91906155c1565b6001600160a01b0316836001600160a01b0316036143075760008054906101000a90046001600160a01b03166001600160a01b03166304baed9e6040518163ffffffff1660e01b8152600401602060405180830381865afa158015614267573d6000803e3d6000fd5b505050506040513d601f19601f8201168201806040525081019061428b91906155c1565b6001600160a01b031663759cc4b5306142a48486615665565b6040516001600160e01b031960e085901b1681526001600160a01b0390921660048301526024820152604401600060405180830381600087803b1580156142ea57600080fd5b505af11580156142fe573d6000803e3d6000fd5b50505050505050565b6040516346511acb60e11b81526001600160a01b0384166004820152602401612d19565b60a9546001600160a01b031661433f6132e0565b6001600160a01b031614614366576040516311b77b4360e11b815260040160405180910390fd5b600082815260ab60209081526040918290208251608081018452815480825260018301548285018190526002909301546001600160a01b038116838701819052600160a01b90910460ff16151560608401528551871515815294850193909352909386937f557deaca39aedd0a84876c0dcbcb715b9b68641286033d7e79a274bdfe8d8a40910160405180910390a4811561443d57600083815260ab6020526040902060020180547fffffffffffffffffffffff00ffffffffffffffffffffffffffffffffffffffff16600160a01b179055505050565b5050600090815260ab602052604081208181556001810191909155600201805474ffffffffffffffffffffffffffffffffffffffffff19169055565b600042606f54111561448a57504290565b50606f5490565b60006001600160e01b031982166363a1750b60e01b1480610992575061099282614b16565b60006144cb6001600160a01b03841683614b3b565b905080516000141580156144f05750808060200190518101906144ee91906156c2565b155b156135d157604051635274afe760e01b81526001600160a01b0384166004820152602401612d19565b8061452381614b49565b81604001516039600084602001516001600160a01b03166001600160a01b03168152602001908152602001600020600082825461456091906156ea565b909155505060388054600181018255600091909152825160069091027f38395c5dceade9603479b177b68959049485df8aa97b39f3533039af5f456199810180546001600160a01b039384166001600160a01b0319918216811790925560208601517f38395c5dceade9603479b177b68959049485df8aa97b39f3533039af5f45619a8401805491909516911681179093556040808601517f38395c5dceade9603479b177b68959049485df8aa97b39f3533039af5f45619b840181905560608701517f38395c5dceade9603479b177b68959049485df8aa97b39f3533039af5f45619c85015560808701517f38395c5dceade9603479b177b68959049485df8aa97b39f3533039af5f45619d85015560a08701517f38395c5dceade9603479b177b68959049485df8aa97b39f3533039af5f45619e909401939093555190917f21b8b94494ef1aff6ce0f5f3741800bdb27204fd430c1280b54d4cc653ae6f3a916146ce91815260200190565b60405180910390a35050565b604080516001600160a01b038416602482015260448082018490528251808303909101815260649091019091526020810180516001600160e01b031663095ea7b360e01b17905261472b8482614c41565b613933576040516001600160a01b0384811660248301526000604483015261476091869182169063095ea7b39060640161359f565b61393384826144b6565b6000808260001c9050806fffffffffffffffffffffffffffffffff169050806801000000000000000002811777ffffffffffffffff0000000000000000ffffffffffffffff169050806401000000000281177bffffffff00000000ffffffff00000000ffffffff00000000ffffffff16905080620100000281177dffff0000ffff0000ffff0000ffff0000ffff0000ffff0000ffff0000ffff169050806101000281177eff00ff00ff00ff00ff00ff00ff00ff00ff00ff00ff00ff00ff00ff00ff00ff1690508060100281177f0f0f0f0f0f0f0f0f0f0f0f0f0f0f0f0f0f0f0f0f0f0f0f0f0f0f0f0f0f0f0f0f16905060006008827f0808080808080808080808080808080808080808080808080808080808080808168161488e5761488e615714565b0460047f040404040404040404040404040404040404040404040404040404040404040484160460027f020202020202020202020202020202020202020202020202020202020202020285160417166027029091017f3030303030303030303030303030303030303030303030303030303030303030019392505050565b7ff0c57e16840df040f15088dc2f81fe391c3923bec73e23a9662efc9c229c6a005468010000000000000000900460ff166111e757604051631afcd79f60e31b815260040160405180910390fd5b600081606001515160000361497157506000919050565b81608001515160000361498657506000919050565b815115801561499757506020820151155b80156149a557506040820151155b156149b257506000919050565b506001919050565b6001600160a01b0381161580614aae57506000546001600160a01b03166001600160a01b03166304baed9e6040518163ffffffff1660e01b8152600401602060405180830381865afa158015614a14573d6000803e3d6000fd5b505050506040513d601f19601f82011682018060405250810190614a3891906155c1565b6001600160a01b031663fc0c546a6040518163ffffffff1660e01b8152600401602060405180830381865afa158015614a75573d6000803e3d6000fd5b505050506040513d601f19601f82011682018060405250810190614a9991906155c1565b6001600160a01b0316816001600160a01b0316145b15614acc57604051631c307bff60e31b815260040160405180910390fd5b606c80546001600160a01b0319166001600160a01b0383169081179091556040517f9904a32444ae0eb0bae2045baf588aa248f03f4fef600c18afd1d7e751614af890600090a250565b60006001600160e01b0319821663286309c760e01b1480610992575061099282614ce4565b606061329983836000614d19565b6000546001600160a01b03166001600160a01b031663f1c6bdf86040518163ffffffff1660e01b8152600401602060405180830381865afa158015614b92573d6000803e3d6000fd5b505050506040513d601f19601f82011682018060405250810190614bb691906155c1565b6001600160a01b03166308fd683d826040518263ffffffff1660e01b8152600401614be19190615dec565b6020604051808303816000875af1158015614c00573d6000803e3d6000fd5b505050506040513d601f19601f82011682018060405250810190614c2491906156c2565b61094d5760405163349a262760e01b815260040160405180910390fd5b6000806000846001600160a01b031684604051614c5e9190615768565b6000604051808303816000865af19150503d8060008114614c9b576040519150601f19603f3d011682016040523d82523d6000602084013e614ca0565b606091505b5091509150818015614cca575080511580614cca575080806020019051810190614cca91906156c2565b8015611b9d5750505050506001600160a01b03163b151590565b60006001600160e01b0319821663e328951160e01b148061099257506301ffc9a760e01b6001600160e01b0319831614610992565b606081471015614d3e5760405163cd78605960e01b8152306004820152602401612d19565b600080856001600160a01b03168486604051614d5a9190615768565b60006040518083038185875af1925050503d8060008114614d97576040519150601f19603f3d011682016040523d82523d6000602084013e614d9c565b606091505b5091509150614dac868383614db6565b9695505050505050565b606082614dcb57614dc682614e12565b613299565b8151158015614de257506001600160a01b0384163b155b15614e0b57604051639996b31560e01b81526001600160a01b0385166004820152602401612d19565b5080613299565b805115614e225780518082602001fd5b604051630a12f52160e11b815260040160405180910390fd5b828054828255906000526020600020908101928215614e76579160200282015b82811115614e76578251825591602001919060010190614e5b565b50614e82929150614ea7565b5090565b508054600082556006029060005260206000209081019061094d9190614ebc565b5b80821115614e825760008155600101614ea8565b5b80821115614e825780546001600160a01b03199081168255600182018054909116905560006002820181905560038201819055600482018190556005820155600601614ebd565b6001600160a01b038116811461094d57600080fd5b600060208284031215614f2b57600080fd5b813561329981614f04565b600060208284031215614f4857600080fd5b81356001600160e01b03198116811461329957600080fd5b60008060008060808587031215614f7657600080fd5b84359350602085013592506040850135614f8f81614f04565b9396929550929360600135925050565b60008083601f840112614fb157600080fd5b50813567ffffffffffffffff811115614fc957600080fd5b6020830191508360208260051b8501011115614fe457600080fd5b9250929050565b60008060006040848603121561500057600080fd5b83359250602084013567ffffffffffffffff81111561501e57600080fd5b61502a86828701614f9f565b9497909650939450505050565b60006020828403121561504957600080fd5b5035919050565b60005b8381101561506b578181015183820152602001615053565b50506000910152565b6000815180845261508c816020860160208601615050565b601f01601f19169290920160200192915050565b6020815260006132996020830184615074565b600080604083850312156150c657600080fd5b82356150d181614f04565b946020939093013593505050565b600080604083850312156150f257600080fd5b50508035926020909101359150565b6000806040838503121561511457600080fd5b82359150602083013561512681614f04565b809150509250929050565b60008151808452602080850194506020840160005b838110156151ae5761519b8783516001600160a01b038082511683528060208301511660208401525060408101516040830152606081015160608301526080810151608083015260a081015160a08301525050565b60c0969096019590820190600101615146565b509495945050505050565b6020815260006132996020830184615131565b60008151808452602080850194506020840160005b838110156151ae578151875295820195908201906001016151e1565b6020815281516020820152602082015160408201526040820151151560608201526000606083015160a0608084015261523960c08401826151cc565b90506080840151601f198483030160a0850152611b9d82826151cc565b67ffffffffffffffff8116811461094d57600080fd5b60006020828403121561527e57600080fd5b813561329981615256565b60008060006060848603121561529e57600080fd5b833592506020840135915060408401356152b781614f04565b809150509250925092565b634e487b7160e01b600052604160045260246000fd5b60405160a0810167ffffffffffffffff811182821017156152fb576152fb6152c2565b60405290565b604051610180810167ffffffffffffffff811182821017156152fb576152fb6152c2565b600082601f83011261533657600080fd5b813567ffffffffffffffff80821115615351576153516152c2565b604051601f8301601f19908116603f01168101908282118183101715615379576153796152c2565b8160405283815286602085880101111561539257600080fd5b836020870160208301376000602085830101528094505050505092915050565b6000806000606084860312156153c757600080fd5b83356153d281614f04565b9250602084013567ffffffffffffffff808211156153ef57600080fd5b9085019060a0828803121561540357600080fd5b61540b6152d8565b82358152602083013560208201526040830135604082015260608301358281111561543557600080fd5b61544189828601615325565b60608301525060808301358281111561545957600080fd5b61546589828601615325565b6080830152509350604086013591508082111561548157600080fd5b5061548e86828701615325565b9150509250925092565b801515811461094d57600080fd5b6000806000806000606086880312156154be57600080fd5b85356154c981615498565b9450602086013567ffffffffffffffff808211156154e657600080fd5b6154f289838a01614f9f565b9096509450604088013591508082111561550b57600080fd5b5061551888828901614f9f565b969995985093965092949392505050565b60608152600061553c6060830186615131565b82810360208481019190915285518083528682019282019060005b8181101561557c5784516001600160a01b031683529383019391830191600101615557565b5050848103604086015261559081876151cc565b98975050505050505050565b600080604083850312156155af57600080fd5b82359150602083013561512681615498565b6000602082840312156155d357600080fd5b815161329981614f04565b6000602082840312156155f057600080fd5b5051919050565b83815260406020808301829052908201839052600090849060608401835b8681101561564357833561562881614f04565b6001600160a01b031682529282019290820190600101615615565b50979650505050505050565b634e487b7160e01b600052601160045260246000fd5b818103818111156109925761099261564f565b600181811c9082168061568c57607f821691505b6020821081036156ac57634e487b7160e01b600052602260045260246000fd5b50919050565b80516156bd81615498565b919050565b6000602082840312156156d457600080fd5b815161329981615498565b80516156bd81614f04565b808201808211156109925761099261564f565b80820281158282048414176109925761099261564f565b634e487b7160e01b600052601260045260246000fd5b60008261574757634e487b7160e01b600052601260045260246000fd5b500490565b6000815161575e818560208601615050565b9290920192915050565b6000825161577a818460208701615050565b9190910192915050565b7f446174612061737365727465643a20307800000000000000000000000000000081526000865160206157bd8260118601838c01615050565b7f20666f72206461746149643a203078000000000000000000000000000000000060119285019283015287516157f881838501848c01615050565b7f20616e642061737365727465723a203078000000000000000000000000000000920181810192909252865161583481603185018a8501615050565b7f2061742074696d657374616d703a2000000000000000000000000000000000006031939091019283015285516158718160408501848a01615050565b7f20696e207468652044617461417373657274657220636f6e747261637420617460409390910192830152506204060f60eb1b60608201526155906158b9606383018661574c565b7f2069732076616c69642e000000000000000000000000000000000000000000008152600a0190565b60006101208083526158f68184018d615074565b6001600160a01b039b8c166020850152998b1660408401525050958816606087015267ffffffffffffffff9490941660808601529190951660a084015260c083019490945260e08201939093526101000191909152919050565b80516156bd81615256565b600080600080600060a0868803121561597357600080fd5b855161597e81614f04565b602087015190955061598f81614f04565b6040870151606088015191955093506159a781614f04565b60808701519092506159b881615256565b809150509295509295909350565b634e487b7160e01b600052603260045260246000fd5b6000600182016159ee576159ee61564f565b5060010190565b81835260007f07ffffffffffffffffffffffffffffffffffffffffffffffffffffffffffffff831115615a2757600080fd5b8260051b80836020870137939093016020019392505050565b878152866020820152851515604082015260a060608201526000615a6860a0830186886159f5565b8281036080840152615a7b8185876159f5565b9a9950505050505050505050565b600060a08284031215615a9b57600080fd5b615aa36152d8565b90508151615ab081615498565b81526020820151615ac081615498565b60208201526040820151615ad381615498565b60408201526060820151615ae681614f04565b60608201526080820151615af981614f04565b608082015292915050565b60006102008284031215615b1757600080fd5b615b1f615301565b615b298484615a89565b8152615b3760a084016156df565b6020820152615b4860c08401615950565b6040820152615b5960e084016156b2565b6060820152610100615b6c8185016156df565b6080830152610120615b7f818601615950565b60a0840152610140615b928187016156b2565b60c08501526101608087015160e0860152610180870151848601526101a087015183860152615bc46101c088016156df565b82860152615bd56101e088016156df565b90850152509195945050505050565b60008085851115615bf457600080fd5b83861115615c0157600080fd5b5050820193919092039150565b6bffffffffffffffffffffffff198135818116916014851015611ba05760149490940360031b84901b1690921692915050565b838152606060208201526000615c5a6060830185615074565b8281036040840152614dac8185615074565b60ff81811683821601908111156109925761099261564f565b601f8211156135d1576000816000526020600020601f850160051c81016020861015615cae5750805b601f850160051c820191505b81811015615ccd57828155600101615cba565b505050505050565b815167ffffffffffffffff811115615cef57615cef6152c2565b615d0381615cfd8454615678565b84615c85565b602080601f831160018114615d385760008415615d205750858301515b600019600386901b1c1916600185901b178555615ccd565b600085815260208120601f198616915b82811015615d6757888601518255948401946001909101908401615d48565b5085821015615d855787850151600019600388901b60f8161c191681555b5050505050600190811b01905550565b602081528151602082015260208201516040820152604082015160608201526000606083015160a06080840152615dcf60c0840182615074565b90506080840151601f198483030160a0850152611b9d8282615074565b60c0810161099282846001600160a01b038082511683528060208301511660208401525060408101516040830152606081015160608301526080810151608083015260a081015160a0830152505056fea26469706673582212201c472ecf4713485c54e6e1ae6b31e61a170118b132f8b95744447149d6bff1a664736f6c63430008170033",
    "linkReferences": {}
  },
  "methodIdentifiers": {
    "ASSERTER_ROLE()": "bf14d4a9",
    "KPICounter()": "78802654",
    "amountPaid(address,uint256)": "b33ec618",
    "assertDataFor(bytes32,bytes32,address)": "93ee663b",
    "assertionConfig(bytes32)": "7b9a9c7f",
    "assertionData(bytes32)": "2a4e1904",
    "assertionDisputedCallback(bytes32)": "d448a4ec",
    "assertionLiveness()": "b75d4e24",
    "assertionPending()": "60a93176",
    "assertionResolvedCallback(bytes32,bool)": "f1b156b2",
    "balanceOf(address)": "70a08231",
    "claimRewards()": "372500ab",
    "collectPaymentOrders()": "c0231ff6",
    "createKPI(bool,uint256[],uint256[])": "bc7d2a33",
    "defaultBond()": "8333cb06",
    "defaultCurrency()": "20402e1d",
    "defaultIdentifier()": "d509b017",
    "deleteStuckAssertion(bytes32)": "e31ae421",
    "depositFeeFunds(uint256)": "64e6bbe5",
    "earned(address)": "008cc262",
    "estimateReward(uint256,uint256)": "7e5f43ff",
    "getAssertion(bytes32)": "88302884",
    "getAssertionConfig(bytes32)": "956ae17b",
    "getData(bytes32)": "54f6127f",
    "getKPI(uint256)": "772fd8da",
    "grantModuleRole(bytes32,address)": "6c67e807",
    "grantModuleRoleBatched(bytes32,address[])": "272bbd44",
    "identifier()": "7998a1c4",
    "init(address,(uint256,uint256,uint256,string,string),bytes)": "b66a870c",
    "isTrustedForwarder(address)": "572b6c05",
    "oo()": "8921a614",
    "orchestrator()": "b74795d9",
    "outstandingTokenAmount(address)": "2e84db5f",
    "paymentOrders()": "75fa0b76",
    "postAssertion(bytes32,uint256,address,uint256)": "074644e6",
    "registryOfKPIs(uint256)": "3ecd7972",
    "revokeModuleRole(bytes32,address)": "bcb61920",
    "revokeModuleRoleBatched(bytes32,address[])": "24e30270",
    "rewardRate()": "7b0a47ee",
    "rewardsEnd()": "a6d14d69",
    "setDefaultAssertionLiveness(uint64)": "81d09517",
    "setDefaultCurrencyAndBond(address,uint256)": "59be48f2",
    "setOptimisticOracle(address)": "bf5c3252",
    "setRewards(uint256,uint256)": "654e51e7",
    "stake(uint256)": "a694fc3a",
    "stakingToken()": "72f702f3",
    "supportsInterface(bytes4)": "01ffc9a7",
    "title()": "4a79d50c",
    "totalSupply()": "18160ddd",
    "trustedForwarder()": "7da0a877",
    "unstake(uint256)": "2e17de78",
    "url()": "5600f04f",
    "version()": "54fd4d50"
  },
  "id": 134
}