{
  "abi": [
    {
      "type": "function",
      "name": "BOUNTY_ISSUER_ROLE",
      "inputs": [],
      "outputs": [
        {
          "name": "",
          "type": "bytes32",
          "internalType": "bytes32"
        }
      ],
      "stateMutability": "view"
    },
    {
      "type": "function",
      "name": "CLAIMANT_ROLE",
      "inputs": [],
      "outputs": [
        {
          "name": "",
          "type": "bytes32",
          "internalType": "bytes32"
        }
      ],
      "stateMutability": "view"
    },
    {
      "type": "function",
      "name": "VERIFIER_ROLE",
      "inputs": [],
      "outputs": [
        {
          "name": "",
          "type": "bytes32",
          "internalType": "bytes32"
        }
      ],
      "stateMutability": "view"
    },
    {
      "type": "function",
      "name": "addBounty",
      "inputs": [
        {
          "name": "minimumPayoutAmount",
          "type": "uint256",
          "internalType": "uint256"
        },
        {
          "name": "maximumPayoutAmount",
          "type": "uint256",
          "internalType": "uint256"
        },
        {
          "name": "details",
          "type": "bytes",
          "internalType": "bytes"
        }
      ],
      "outputs": [
        {
          "name": "id",
          "type": "uint256",
          "internalType": "uint256"
        }
      ],
      "stateMutability": "nonpayable"
    },
    {
      "type": "function",
      "name": "addClaim",
      "inputs": [
        {
          "name": "bountyId",
          "type": "uint256",
          "internalType": "uint256"
        },
        {
          "name": "contributors",
          "type": "tuple[]",
          "internalType": "struct ILM_PC_Bounties_v1.Contributor[]",
          "components": [
            {
              "name": "addr",
              "type": "address",
              "internalType": "address"
            },
            {
              "name": "claimAmount",
              "type": "uint256",
              "internalType": "uint256"
            }
          ]
        },
        {
          "name": "details",
          "type": "bytes",
          "internalType": "bytes"
        }
      ],
      "outputs": [
        {
          "name": "id",
          "type": "uint256",
          "internalType": "uint256"
        }
      ],
      "stateMutability": "nonpayable"
    },
    {
      "type": "function",
      "name": "amountPaid",
      "inputs": [
        {
          "name": "token",
          "type": "address",
          "internalType": "address"
        },
        {
          "name": "amount",
          "type": "uint256",
          "internalType": "uint256"
        }
      ],
      "outputs": [],
      "stateMutability": "nonpayable"
    },
    {
      "type": "function",
      "name": "collectPaymentOrders",
      "inputs": [],
      "outputs": [
        {
          "name": "",
          "type": "tuple[]",
          "internalType": "struct IERC20PaymentClientBase_v1.PaymentOrder[]",
          "components": [
            {
              "name": "recipient",
              "type": "address",
              "internalType": "address"
            },
            {
              "name": "paymentToken",
              "type": "address",
              "internalType": "address"
            },
            {
              "name": "amount",
              "type": "uint256",
              "internalType": "uint256"
            },
            {
              "name": "start",
              "type": "uint256",
              "internalType": "uint256"
            },
            {
              "name": "cliff",
              "type": "uint256",
              "internalType": "uint256"
            },
            {
              "name": "end",
              "type": "uint256",
              "internalType": "uint256"
            }
          ]
        },
        {
          "name": "",
          "type": "address[]",
          "internalType": "address[]"
        },
        {
          "name": "",
          "type": "uint256[]",
          "internalType": "uint256[]"
        }
      ],
      "stateMutability": "nonpayable"
    },
    {
      "type": "function",
      "name": "getBountyInformation",
      "inputs": [
        {
          "name": "bountyId",
          "type": "uint256",
          "internalType": "uint256"
        }
      ],
      "outputs": [
        {
          "name": "",
          "type": "tuple",
          "internalType": "struct ILM_PC_Bounties_v1.Bounty",
          "components": [
            {
              "name": "minimumPayoutAmount",
              "type": "uint256",
              "internalType": "uint256"
            },
            {
              "name": "maximumPayoutAmount",
              "type": "uint256",
              "internalType": "uint256"
            },
            {
              "name": "details",
              "type": "bytes",
              "internalType": "bytes"
            },
            {
              "name": "locked",
              "type": "bool",
              "internalType": "bool"
            }
          ]
        }
      ],
      "stateMutability": "view"
    },
    {
      "type": "function",
      "name": "getClaimInformation",
      "inputs": [
        {
          "name": "claimId",
          "type": "uint256",
          "internalType": "uint256"
        }
      ],
      "outputs": [
        {
          "name": "",
          "type": "tuple",
          "internalType": "struct ILM_PC_Bounties_v1.Claim",
          "components": [
            {
              "name": "bountyId",
              "type": "uint256",
              "internalType": "uint256"
            },
            {
              "name": "contributors",
              "type": "tuple[]",
              "internalType": "struct ILM_PC_Bounties_v1.Contributor[]",
              "components": [
                {
                  "name": "addr",
                  "type": "address",
                  "internalType": "address"
                },
                {
                  "name": "claimAmount",
                  "type": "uint256",
                  "internalType": "uint256"
                }
              ]
            },
            {
              "name": "details",
              "type": "bytes",
              "internalType": "bytes"
            },
            {
              "name": "claimed",
              "type": "bool",
              "internalType": "bool"
            }
          ]
        }
      ],
      "stateMutability": "view"
    },
    {
      "type": "function",
      "name": "grantModuleRole",
      "inputs": [
        {
          "name": "role",
          "type": "bytes32",
          "internalType": "bytes32"
        },
        {
          "name": "target",
          "type": "address",
          "internalType": "address"
        }
      ],
      "outputs": [],
      "stateMutability": "nonpayable"
    },
    {
      "type": "function",
      "name": "grantModuleRoleBatched",
      "inputs": [
        {
          "name": "role",
          "type": "bytes32",
          "internalType": "bytes32"
        },
        {
          "name": "targets",
          "type": "address[]",
          "internalType": "address[]"
        }
      ],
      "outputs": [],
      "stateMutability": "nonpayable"
    },
    {
      "type": "function",
      "name": "identifier",
      "inputs": [],
      "outputs": [
        {
          "name": "",
          "type": "bytes32",
          "internalType": "bytes32"
        }
      ],
      "stateMutability": "view"
    },
    {
      "type": "function",
      "name": "init",
      "inputs": [
        {
          "name": "orchestrator_",
          "type": "address",
          "internalType": "contract IOrchestrator_v1"
        },
        {
          "name": "metadata",
          "type": "tuple",
          "internalType": "struct IModule_v1.Metadata",
          "components": [
            {
              "name": "majorVersion",
              "type": "uint256",
              "internalType": "uint256"
            },
            {
              "name": "minorVersion",
              "type": "uint256",
              "internalType": "uint256"
            },
            {
              "name": "url",
              "type": "string",
              "internalType": "string"
            },
            {
              "name": "title",
              "type": "string",
              "internalType": "string"
            }
          ]
        },
        {
          "name": "",
          "type": "bytes",
          "internalType": "bytes"
        }
      ],
      "outputs": [],
      "stateMutability": "nonpayable"
    },
    {
      "type": "function",
      "name": "isExistingBountyId",
      "inputs": [
        {
          "name": "bountyId",
          "type": "uint256",
          "internalType": "uint256"
        }
      ],
      "outputs": [
        {
          "name": "",
          "type": "bool",
          "internalType": "bool"
        }
      ],
      "stateMutability": "view"
    },
    {
      "type": "function",
      "name": "isExistingClaimId",
      "inputs": [
        {
          "name": "claimId",
          "type": "uint256",
          "internalType": "uint256"
        }
      ],
      "outputs": [
        {
          "name": "",
          "type": "bool",
          "internalType": "bool"
        }
      ],
      "stateMutability": "view"
    },
    {
      "type": "function",
      "name": "isTrustedForwarder",
      "inputs": [
        {
          "name": "forwarder",
          "type": "address",
          "internalType": "address"
        }
      ],
      "outputs": [
        {
          "name": "",
          "type": "bool",
          "internalType": "bool"
        }
      ],
      "stateMutability": "view"
    },
    {
      "type": "function",
      "name": "listBountyIds",
      "inputs": [],
      "outputs": [
        {
          "name": "",
          "type": "uint256[]",
          "internalType": "uint256[]"
        }
      ],
      "stateMutability": "view"
    },
    {
      "type": "function",
      "name": "listClaimIds",
      "inputs": [],
      "outputs": [
        {
          "name": "",
          "type": "uint256[]",
          "internalType": "uint256[]"
        }
      ],
      "stateMutability": "view"
    },
    {
      "type": "function",
      "name": "listClaimIdsForContributorAddress",
      "inputs": [
        {
          "name": "contributorAddrs",
          "type": "address",
          "internalType": "address"
        }
      ],
      "outputs": [
        {
          "name": "",
          "type": "uint256[]",
          "internalType": "uint256[]"
        }
      ],
      "stateMutability": "view"
    },
    {
      "type": "function",
      "name": "lockBounty",
      "inputs": [
        {
          "name": "bountyId",
          "type": "uint256",
          "internalType": "uint256"
        }
      ],
      "outputs": [],
      "stateMutability": "nonpayable"
    },
    {
      "type": "function",
      "name": "orchestrator",
      "inputs": [],
      "outputs": [
        {
          "name": "",
          "type": "address",
          "internalType": "contract IOrchestrator_v1"
        }
      ],
      "stateMutability": "view"
    },
    {
      "type": "function",
      "name": "outstandingTokenAmount",
      "inputs": [
        {
          "name": "_token",
          "type": "address",
          "internalType": "address"
        }
      ],
      "outputs": [
        {
          "name": "",
          "type": "uint256",
          "internalType": "uint256"
        }
      ],
      "stateMutability": "view"
    },
    {
      "type": "function",
      "name": "paymentOrders",
      "inputs": [],
      "outputs": [
        {
          "name": "",
          "type": "tuple[]",
          "internalType": "struct IERC20PaymentClientBase_v1.PaymentOrder[]",
          "components": [
            {
              "name": "recipient",
              "type": "address",
              "internalType": "address"
            },
            {
              "name": "paymentToken",
              "type": "address",
              "internalType": "address"
            },
            {
              "name": "amount",
              "type": "uint256",
              "internalType": "uint256"
            },
            {
              "name": "start",
              "type": "uint256",
              "internalType": "uint256"
            },
            {
              "name": "cliff",
              "type": "uint256",
              "internalType": "uint256"
            },
            {
              "name": "end",
              "type": "uint256",
              "internalType": "uint256"
            }
          ]
        }
      ],
      "stateMutability": "view"
    },
    {
      "type": "function",
      "name": "revokeModuleRole",
      "inputs": [
        {
          "name": "role",
          "type": "bytes32",
          "internalType": "bytes32"
        },
        {
          "name": "target",
          "type": "address",
          "internalType": "address"
        }
      ],
      "outputs": [],
      "stateMutability": "nonpayable"
    },
    {
      "type": "function",
      "name": "revokeModuleRoleBatched",
      "inputs": [
        {
          "name": "role",
          "type": "bytes32",
          "internalType": "bytes32"
        },
        {
          "name": "targets",
          "type": "address[]",
          "internalType": "address[]"
        }
      ],
      "outputs": [],
      "stateMutability": "nonpayable"
    },
    {
      "type": "function",
      "name": "supportsInterface",
      "inputs": [
        {
          "name": "interfaceId",
          "type": "bytes4",
          "internalType": "bytes4"
        }
      ],
      "outputs": [
        {
          "name": "",
          "type": "bool",
          "internalType": "bool"
        }
      ],
      "stateMutability": "view"
    },
    {
      "type": "function",
      "name": "title",
      "inputs": [],
      "outputs": [
        {
          "name": "",
          "type": "string",
          "internalType": "string"
        }
      ],
      "stateMutability": "view"
    },
    {
      "type": "function",
      "name": "trustedForwarder",
      "inputs": [],
      "outputs": [
        {
          "name": "",
          "type": "address",
          "internalType": "address"
        }
      ],
      "stateMutability": "view"
    },
    {
      "type": "function",
      "name": "updateBounty",
      "inputs": [
        {
          "name": "bountyId",
          "type": "uint256",
          "internalType": "uint256"
        },
        {
          "name": "details",
          "type": "bytes",
          "internalType": "bytes"
        }
      ],
      "outputs": [],
      "stateMutability": "nonpayable"
    },
    {
      "type": "function",
      "name": "updateClaimContributors",
      "inputs": [
        {
          "name": "claimId",
          "type": "uint256",
          "internalType": "uint256"
        },
        {
          "name": "contributors",
          "type": "tuple[]",
          "internalType": "struct ILM_PC_Bounties_v1.Contributor[]",
          "components": [
            {
              "name": "addr",
              "type": "address",
              "internalType": "address"
            },
            {
              "name": "claimAmount",
              "type": "uint256",
              "internalType": "uint256"
            }
          ]
        }
      ],
      "outputs": [],
      "stateMutability": "nonpayable"
    },
    {
      "type": "function",
      "name": "updateClaimDetails",
      "inputs": [
        {
          "name": "claimId",
          "type": "uint256",
          "internalType": "uint256"
        },
        {
          "name": "details",
          "type": "bytes",
          "internalType": "bytes"
        }
      ],
      "outputs": [],
      "stateMutability": "nonpayable"
    },
    {
      "type": "function",
      "name": "url",
      "inputs": [],
      "outputs": [
        {
          "name": "",
          "type": "string",
          "internalType": "string"
        }
      ],
      "stateMutability": "view"
    },
    {
      "type": "function",
      "name": "verifyClaim",
      "inputs": [
        {
          "name": "claimId",
          "type": "uint256",
          "internalType": "uint256"
        },
        {
          "name": "contributors",
          "type": "tuple[]",
          "internalType": "struct ILM_PC_Bounties_v1.Contributor[]",
          "components": [
            {
              "name": "addr",
              "type": "address",
              "internalType": "address"
            },
            {
              "name": "claimAmount",
              "type": "uint256",
              "internalType": "uint256"
            }
          ]
        }
      ],
      "outputs": [],
      "stateMutability": "nonpayable"
    },
    {
      "type": "function",
      "name": "version",
      "inputs": [],
      "outputs": [
        {
          "name": "",
          "type": "uint256",
          "internalType": "uint256"
        },
        {
          "name": "",
          "type": "uint256",
          "internalType": "uint256"
        }
      ],
      "stateMutability": "view"
    },
    {
      "type": "event",
      "name": "BountyAdded",
      "inputs": [
        {
          "name": "bountyId",
          "type": "uint256",
          "indexed": true,
          "internalType": "uint256"
        },
        {
          "name": "minimumPayoutAmount",
          "type": "uint256",
          "indexed": false,
          "internalType": "uint256"
        },
        {
          "name": "maximumPayoutAmount",
          "type": "uint256",
          "indexed": false,
          "internalType": "uint256"
        },
        {
          "name": "details",
          "type": "bytes",
          "indexed": false,
          "internalType": "bytes"
        }
      ],
      "anonymous": false
    },
    {
      "type": "event",
      "name": "BountyLocked",
      "inputs": [
        {
          "name": "bountyId",
          "type": "uint256",
          "indexed": true,
          "internalType": "uint256"
        }
      ],
      "anonymous": false
    },
    {
      "type": "event",
      "name": "BountyUpdated",
      "inputs": [
        {
          "name": "bountyId",
          "type": "uint256",
          "indexed": true,
          "internalType": "uint256"
        },
        {
          "name": "details",
          "type": "bytes",
          "indexed": true,
          "internalType": "bytes"
        }
      ],
      "anonymous": false
    },
    {
      "type": "event",
      "name": "ClaimAdded",
      "inputs": [
        {
          "name": "claimId",
          "type": "uint256",
          "indexed": true,
          "internalType": "uint256"
        },
        {
          "name": "bountyId",
          "type": "uint256",
          "indexed": true,
          "internalType": "uint256"
        },
        {
          "name": "contributors",
          "type": "tuple[]",
          "indexed": true,
          "internalType": "struct ILM_PC_Bounties_v1.Contributor[]",
          "components": [
            {
              "name": "addr",
              "type": "address",
              "internalType": "address"
            },
            {
              "name": "claimAmount",
              "type": "uint256",
              "internalType": "uint256"
            }
          ]
        },
        {
          "name": "details",
          "type": "bytes",
          "indexed": false,
          "internalType": "bytes"
        }
      ],
      "anonymous": false
    },
    {
      "type": "event",
      "name": "ClaimContributorsUpdated",
      "inputs": [
        {
          "name": "claimId",
          "type": "uint256",
          "indexed": true,
          "internalType": "uint256"
        },
        {
          "name": "contributors",
          "type": "tuple[]",
          "indexed": true,
          "internalType": "struct ILM_PC_Bounties_v1.Contributor[]",
          "components": [
            {
              "name": "addr",
              "type": "address",
              "internalType": "address"
            },
            {
              "name": "claimAmount",
              "type": "uint256",
              "internalType": "uint256"
            }
          ]
        }
      ],
      "anonymous": false
    },
    {
      "type": "event",
      "name": "ClaimDetailsUpdated",
      "inputs": [
        {
          "name": "claimId",
          "type": "uint256",
          "indexed": true,
          "internalType": "uint256"
        },
        {
          "name": "details",
          "type": "bytes",
          "indexed": false,
          "internalType": "bytes"
        }
      ],
      "anonymous": false
    },
    {
      "type": "event",
      "name": "ClaimVerified",
      "inputs": [
        {
          "name": "claimId",
          "type": "uint256",
          "indexed": true,
          "internalType": "uint256"
        }
      ],
      "anonymous": false
    },
    {
      "type": "event",
      "name": "Initialized",
      "inputs": [
        {
          "name": "version",
          "type": "uint64",
          "indexed": false,
          "internalType": "uint64"
        }
      ],
      "anonymous": false
    },
    {
      "type": "event",
      "name": "ModuleInitialized",
      "inputs": [
        {
          "name": "parentOrchestrator",
          "type": "address",
          "indexed": true,
          "internalType": "address"
        },
        {
          "name": "moduleTitle",
          "type": "string",
          "indexed": true,
          "internalType": "string"
        },
        {
          "name": "majorVersion",
          "type": "uint256",
          "indexed": false,
          "internalType": "uint256"
        },
        {
          "name": "minorVersion",
          "type": "uint256",
          "indexed": false,
          "internalType": "uint256"
        }
      ],
      "anonymous": false
    },
    {
      "type": "event",
      "name": "PaymentOrderAdded",
      "inputs": [
        {
          "name": "recipient",
          "type": "address",
          "indexed": true,
          "internalType": "address"
        },
        {
          "name": "token",
          "type": "address",
          "indexed": true,
          "internalType": "address"
        },
        {
          "name": "amount",
          "type": "uint256",
          "indexed": false,
          "internalType": "uint256"
        }
      ],
      "anonymous": false
    },
    {
      "type": "error",
      "name": "AddressEmptyCode",
      "inputs": [
        {
          "name": "target",
          "type": "address",
          "internalType": "address"
        }
      ]
    },
    {
      "type": "error",
      "name": "AddressInsufficientBalance",
      "inputs": [
        {
          "name": "account",
          "type": "address",
          "internalType": "address"
        }
      ]
    },
    {
      "type": "error",
      "name": "FailedInnerCall",
      "inputs": []
    },
    {
      "type": "error",
      "name": "InvalidInitialization",
      "inputs": []
    },
    {
      "type": "error",
      "name": "Library__LinkedIdList__InvalidNewId",
      "inputs": []
    },
    {
      "type": "error",
      "name": "Module_OrchestratorCallbackFailed",
      "inputs": [
        {
          "name": "funcSig",
          "type": "string",
          "internalType": "string"
        }
      ]
    },
    {
      "type": "error",
      "name": "Module__CallerNotAuthorized",
      "inputs": [
        {
          "name": "role",
          "type": "bytes32",
          "internalType": "bytes32"
        },
        {
          "name": "caller",
          "type": "address",
          "internalType": "address"
        }
      ]
    },
    {
      "type": "error",
      "name": "Module__ERC20PaymentClientBase__ArrayLengthMismatch",
      "inputs": []
    },
    {
      "type": "error",
      "name": "Module__ERC20PaymentClientBase__CallerNotAuthorized",
      "inputs": []
    },
    {
      "type": "error",
      "name": "Module__ERC20PaymentClientBase__InsufficientFunds",
      "inputs": [
        {
          "name": "token",
          "type": "address",
          "internalType": "address"
        }
      ]
    },
    {
      "type": "error",
      "name": "Module__ERC20PaymentClientBase__InvalidAmount",
      "inputs": []
    },
    {
      "type": "error",
      "name": "Module__ERC20PaymentClientBase__InvalidRecipient",
      "inputs": []
    },
    {
      "type": "error",
      "name": "Module__ERC20PaymentClientBase__InvalidToken",
      "inputs": []
    },
    {
      "type": "error",
      "name": "Module__ERC20PaymentClientBase__Invalidend",
      "inputs": []
    },
    {
      "type": "error",
      "name": "Module__ERC20PaymentClientBase__TokenTransferFailed",
      "inputs": []
    },
    {
      "type": "error",
      "name": "Module__InvalidMetadata",
      "inputs": []
    },
    {
      "type": "error",
      "name": "Module__InvalidOrchestratorAddress",
      "inputs": []
    },
    {
      "type": "error",
      "name": "Module__LM_PC_Bounty__AlreadyClaimed",
      "inputs": []
    },
    {
      "type": "error",
      "name": "Module__LM_PC_Bounty__BountyLocked",
      "inputs": []
    },
    {
      "type": "error",
      "name": "Module__LM_PC_Bounty__ClaimExceedsGivenPayoutAmounts",
      "inputs": []
    },
    {
      "type": "error",
      "name": "Module__LM_PC_Bounty__ContributorsChanged",
      "inputs": []
    },
    {
      "type": "error",
      "name": "Module__LM_PC_Bounty__InvalidBountyId",
      "inputs": []
    },
    {
      "type": "error",
      "name": "Module__LM_PC_Bounty__InvalidClaimId",
      "inputs": []
    },
    {
      "type": "error",
      "name": "Module__LM_PC_Bounty__InvalidContributorAddress",
      "inputs": []
    },
    {
      "type": "error",
      "name": "Module__LM_PC_Bounty__InvalidContributorAmount",
      "inputs": []
    },
    {
      "type": "error",
      "name": "Module__LM_PC_Bounty__InvalidContributorsLength",
      "inputs": []
    },
    {
      "type": "error",
      "name": "Module__LM_PC_Bounty__InvalidPayoutAmounts",
      "inputs": []
    },
    {
      "type": "error",
      "name": "Module__LM_PC_Bounty__OnlyClaimContributor",
      "inputs": []
    },
    {
      "type": "error",
      "name": "Module__OnlyCallableByOrchestrator",
      "inputs": []
    },
    {
      "type": "error",
      "name": "NotInitializing",
      "inputs": []
    },
    {
      "type": "error",
      "name": "SafeERC20FailedOperation",
      "inputs": [
        {
          "name": "token",
          "type": "address",
          "internalType": "address"
        }
      ]
    }
  ],
  "bytecode": {
    "object": "0x60a06040523480156200001157600080fd5b5060006080526200002162000027565b620000db565b7ff0c57e16840df040f15088dc2f81fe391c3923bec73e23a9662efc9c229c6a00805468010000000000000000900460ff1615620000785760405163f92ee8a960e01b815260040160405180910390fd5b80546001600160401b0390811614620000d85780546001600160401b0319166001600160401b0390811782556040519081527fc7f505b2f371ae2175ee4913f4499e1f2633a7b5936321eed1cdaeb6115181d29060200160405180910390a15b50565b608051614b27620000f460003960005050614b276000f3fe608060405234801561001057600080fd5b50600436106102065760003560e01c80637998a1c41161011a578063bcb61920116100ad578063c0231ff61161007c578063c0231ff614610475578063cb05296f1461048c578063e2114c8c146104ac578063e7705db6146104bf578063fa4dbd03146104d157600080fd5b8063bcb6192014610429578063bd769f791461043c578063be5a57451461044f578063bf1f96561461046257600080fd5b80639c16f525116100e95780639c16f525146103ea578063b33ec618146103fd578063b5e8bc4514610410578063b74795d91461041857600080fd5b80637998a1c4146103995780637bfee048146103a15780637da0a877146103b85780638a867368146103d857600080fd5b80633cd6b5d11161019d5780635600f04f1161016c5780635600f04f14610343578063572b6c051461034b5780635beaeb8c1461035e5780636c67e8071461037157806375fa0b761461038457600080fd5b80633cd6b5d1146102eb57806342dfe958146103005780634a79d50c1461031357806354fd4d501461032857600080fd5b80632d54a71c116101d95780632d54a71c1461027c5780632e84db5f1461028f57806331be580e146102b857806331de0bdb146102d857600080fd5b806301ffc9a71461020b5780630d97d72c1461023357806324e3027014610254578063272bbd4414610269575b600080fd5b61021e610219366004613d7b565b6104e4565b60405190151581526020015b60405180910390f35b610246610241366004613e33565b61050e565b60405190815260200161022a565b610267610262366004613ead565b6108f2565b005b610267610277366004613ead565b610b75565b61026761028a366004613f2c565b610d51565b61024661029d366004613f8d565b6001600160a01b031660009081526038602052604090205490565b6102cb6102c6366004613faa565b610f54565b60405161022a9190614013565b6102676102e6366004613f2c565b611086565b6102f36111ae565b60405161022a9190614097565b61026761030e366004614198565b6111bf565b61031b611343565b60405161022a9190614274565b6001546002546040805192835260208301919091520161022a565b61031b6113d8565b61021e610359366004613f8d565b6113ea565b61026761036c366004614287565b611459565b61026761037f3660046142c6565b61173f565b61038c61194d565b60405161022a9190614367565b6102466119f0565b6102466c2127aaa72a2cafa4a9a9aaa2a960991b81565b6103c0611b3b565b6040516001600160a01b03909116815260200161022a565b6102466710d310525350539560c21b81565b6102f36103f8366004613f8d565b611bb3565b61026761040b36600461437a565b611bd7565b6102f3611c35565b6000546001600160a01b03166103c0565b6102676104373660046142c6565b611c41565b61024661044a3660046143a6565b611e25565b61021e61045d366004613faa565b611f4e565b610267610470366004614287565b611f5b565b61047d6123c4565b60405161022a939291906143f9565b61049f61049a366004613faa565b612883565b60405161022a919061446c565b61021e6104ba366004613faa565b612984565b610246672b22a924a324a2a960c11b81565b6102676104df366004613faa565b612991565b60006001600160e01b031982166285d92960e11b1480610508575061050882612a9b565b92915050565b60006710d310525350539560c21b61061460008054906101000a90046001600160a01b03166001600160a01b031663d09edf316040518163ffffffff1660e01b8152600401602060405180830381865afa158015610570573d6000803e3d6000fd5b505050506040513d601f19601f820116820180604052508101906105949190614511565b60405163fdd5205f60e01b8152306004820152602481018490526001600160a01b03919091169063fdd5205f906044016020604051808303816000875af11580156105e3573d6000803e3d6000fd5b505050506040513d601f19601f82011682018060405250810190610607919061452e565b61060f612ac0565b612b12565b8661061e81611f4e565b61063b57604051630a3c13ff60e31b815260040160405180910390fd5b6000888152606c6020526040902060030154889060ff1615610670576040516355eceaeb60e11b815260040160405180910390fd5b6107a08888808060200260200160405190810160405280939291908181526020016000905b828210156106c1576106b260408302860136819003810190614547565b81526020019060010190610695565b5050505050606c60008c815260200190815260200160002060405180608001604052908160008201548152602001600182015481526020016002820180546107089061459f565b80601f01602080910402602001604051908101604052809291908181526020018280546107349061459f565b80156107815780601f1061075657610100808354040283529160200191610781565b820191906000526020600020905b81548152906001019060200180831161076457829003601f168201915b50505091835250506003919091015460ff161515602090910152612c32565b6000606b600081546107b1906145e9565b918290555090506107c3607182612d78565b60008181526070602052604081208b81559089905b8181101561087e57826001018c8c838181106107f6576107f6614602565b8354600181018555600094855260209094206040909102929092019260020290910190506108248282614618565b505061087584607460008f8f8681811061084057610840614602565b6108569260206040909202019081019150613f8d565b6001600160a01b03168152602081019190915260400160002090612dec565b506001016107d8565b506002820161088e898b8361469b565b508a8a60405161089f92919061475b565b60405180910390208c847f23ea023b108a98377fb5440ffbb7fe7a5c3827c821ef0e16fbd60af8b93cddac8c8c6040516108da9291906147cf565b60405180910390a450909a9950505050505050505050565b600080546040805163d09edf3160e01b815290518693926001600160a01b03169163d09edf319160048083019260209291908290030181865afa15801561093d573d6000803e3d6000fd5b505050506040513d601f19601f820116820180604052508101906109619190614511565b60405163fdd5205f60e01b8152306004820152602481018490526001600160a01b03919091169063fdd5205f906044016020604051808303816000875af11580156109b0573d6000803e3d6000fd5b505050506040513d601f19601f820116820180604052508101906109d4919061452e565b9050610a9860008054906101000a90046001600160a01b03166001600160a01b031663d09edf316040518163ffffffff1660e01b8152600401602060405180830381865afa158015610a2a573d6000803e3d6000fd5b505050506040513d601f19601f82011682018060405250810190610a4e9190614511565b6001600160a01b031663248a9ca3836040518263ffffffff1660e01b8152600401610a7b91815260200190565b602060405180830381865afa1580156105e3573d6000803e3d6000fd5b60008054906101000a90046001600160a01b03166001600160a01b031663d09edf316040518163ffffffff1660e01b8152600401602060405180830381865afa158015610ae9573d6000803e3d6000fd5b505050506040513d601f19601f82011682018060405250810190610b0d9190614511565b6001600160a01b0316637d540a648686866040518463ffffffff1660e01b8152600401610b3c939291906147eb565b600060405180830381600087803b158015610b5657600080fd5b505af1158015610b6a573d6000803e3d6000fd5b505050505050505050565b600080546040805163d09edf3160e01b815290518693926001600160a01b03169163d09edf319160048083019260209291908290030181865afa158015610bc0573d6000803e3d6000fd5b505050506040513d601f19601f82011682018060405250810190610be49190614511565b60405163fdd5205f60e01b8152306004820152602481018490526001600160a01b03919091169063fdd5205f906044016020604051808303816000875af1158015610c33573d6000803e3d6000fd5b505050506040513d601f19601f82011682018060405250810190610c57919061452e565b9050610cad60008054906101000a90046001600160a01b03166001600160a01b031663d09edf316040518163ffffffff1660e01b8152600401602060405180830381865afa158015610a2a573d6000803e3d6000fd5b60008054906101000a90046001600160a01b03166001600160a01b031663d09edf316040518163ffffffff1660e01b8152600401602060405180830381865afa158015610cfe573d6000803e3d6000fd5b505050506040513d601f19601f82011682018060405250810190610d229190614511565b6001600160a01b031663648154538686866040518463ffffffff1660e01b8152600401610b3c939291906147eb565b82610d5b81612984565b610d78576040516355cee66560e11b815260040160405180910390fd5b600084815260706020526040902060030154849060ff1615610dad5760405163581991ff60e01b815260040160405180910390fd5b600085815260706020908152604080832054808452606c9092529091206003015460ff1615610def576040516355eceaeb60e11b815260040160405180910390fd5b856000610dfa612ac0565b9050600060706000848152602001908152602001600020600101805480602002602001604051908101604052809291908181526020016000905b82821015610e7c576000848152602090819020604080518082019091526002850290910180546001600160a01b03168252600190810154828401529083529092019101610e34565b5050825192935060009150505b81811015610ed057836001600160a01b0316838281518110610ead57610ead614602565b6020026020010151600001516001600160a01b03160315610ed057600101610e89565b818110610ef05760405163b7b3e8c560e01b815260040160405180910390fd5b60008b8152607060205260409020600201610f0c8a8c8361469b565b508a7f4128fe4992a5cb5a9cb54a23107ba2cd9db975f7f66fd5a978927aaf54350a998b8b604051610f3f9291906147cf565b60405180910390a25050505050505050505050565b610f8160405180608001604052806000815260200160008152602001606081526020016000151581525090565b81610f8b81611f4e565b610fa857604051630a3c13ff60e31b815260040160405180910390fd5b606c60008481526020019081526020016000206040518060800160405290816000820154815260200160018201548152602001600282018054610fea9061459f565b80601f01602080910402602001604051908101604052809291908181526020018280546110169061459f565b80156110635780601f1061103857610100808354040283529160200191611063565b820191906000526020600020905b81548152906001019060200180831161104657829003601f168201915b50505091835250506003919091015460ff16151560209091015291505b50919050565b6c2127aaa72a2cafa4a9a9aaa2a960991b6110eb60008054906101000a90046001600160a01b03166001600160a01b031663d09edf316040518163ffffffff1660e01b8152600401602060405180830381865afa158015610570573d6000803e3d6000fd5b836110f581611f4e565b61111257604051630a3c13ff60e31b815260040160405180910390fd5b6000858152606c6020526040902060030154859060ff1615611147576040516355eceaeb60e11b815260040160405180910390fd5b6000868152606c6020526040902060020161116385878361469b565b508484604051611174929190614843565b6040519081900381209087907f5b748b1bf798d437f4457fa662e95d5b99ba7c5c739e2d6342c7d06c4ad4300790600090a3505050505050565b60606111ba6071612dff565b905090565b7ff0c57e16840df040f15088dc2f81fe391c3923bec73e23a9662efc9c229c6a00805468010000000000000000810460ff16159067ffffffffffffffff1660008115801561120a5750825b905060008267ffffffffffffffff1660011480156112275750303b155b905081158015611235575080155b156112535760405163f92ee8a960e01b815260040160405180910390fd5b845467ffffffffffffffff19166001178555831561128757845468ff00000000000000001916680100000000000000001785555b6112918888612eb9565b60001960008190527fe8b5d4e96eaf675693290afcd3f7c5f18ed244f74281c9bb437f886a1ce7e89b819055606e81905560736020527f49adc9fe813401d196f72dc0281f2ae2aa3b155a6d433809eaf7fd1e723998e3819055607255831561133957845468ff000000000000000019168555604051600181527fc7f505b2f371ae2175ee4913f4499e1f2633a7b5936321eed1cdaeb6115181d29060200160405180910390a15b5050505050505050565b6060600160030180546113559061459f565b80601f01602080910402602001604051908101604052809291908181526020018280546113819061459f565b80156113ce5780601f106113a3576101008083540402835291602001916113ce565b820191906000526020600020905b8154815290600101906020018083116113b157829003601f168201915b5050505050905090565b6060600160020180546113559061459f565b6000805460405163572b6c0560e01b81526001600160a01b0384811660048301529091169063572b6c0590602401602060405180830381865afa158015611435573d6000803e3d6000fd5b505050506040513d601f19601f820116820180604052508101906105089190614868565b8261146381612984565b611480576040516355cee66560e11b815260040160405180910390fd5b600084815260706020526040902060030154849060ff16156114b55760405163581991ff60e01b815260040160405180910390fd5b600085815260706020908152604080832054808452606c9092529091206003015460ff16156114f7576040516355eceaeb60e11b815260040160405180910390fd5b6710d310525350539560c21b61155760008054906101000a90046001600160a01b03166001600160a01b031663d09edf316040518163ffffffff1660e01b8152600401602060405180830381865afa158015610570573d6000803e3d6000fd5b6115f98686808060200260200160405190810160405280939291908181526020016000905b828210156115a85761159960408302860136819003810190614547565b8152602001906001019061157c565b50505060008b8152607060209081526040808320548352606c82529182902082516080810184528154815260018201549281019290925260028101805492955090935091840191906107089061459f565b6000878152607060205260408120600181015490915b8181101561166c576116638a6074600086600101858154811061163457611634614602565b600091825260208083206002909202909101546001600160a01b03168352820192909252604001902090612fcb565b5060010161160f565b5061167b600183016000613cc7565b508560005b818110156116f1578260010189898381811061169e5761169e614602565b8354600181018555600094855260209094206040909102929092019260020290910190506116cc8282614618565b50506116e88a607460008c8c8681811061084057610840614602565b50600101611680565b50878760405161170292919061475b565b604051908190038120908a907f1d41ce0f1e2efe8a516e804c8208a8a92b1931eb13d5c7be8847790b6eb25ec190600090a3505050505050505050565b600080546040805163d09edf3160e01b815290518593926001600160a01b03169163d09edf319160048083019260209291908290030181865afa15801561178a573d6000803e3d6000fd5b505050506040513d601f19601f820116820180604052508101906117ae9190614511565b60405163fdd5205f60e01b8152306004820152602481018490526001600160a01b03919091169063fdd5205f906044016020604051808303816000875af11580156117fd573d6000803e3d6000fd5b505050506040513d601f19601f82011682018060405250810190611821919061452e565b905061187760008054906101000a90046001600160a01b03166001600160a01b031663d09edf316040518163ffffffff1660e01b8152600401602060405180830381865afa158015610a2a573d6000803e3d6000fd5b60008054906101000a90046001600160a01b03166001600160a01b031663d09edf316040518163ffffffff1660e01b8152600401602060405180830381865afa1580156118c8573d6000803e3d6000fd5b505050506040513d601f19601f820116820180604052508101906118ec9190614511565b60405163385e205560e21b8152600481018690526001600160a01b038581166024830152919091169063e1788154906044015b600060405180830381600087803b15801561193957600080fd5b505af1158015611339573d6000803e3d6000fd5b60606037805480602002602001604051908101604052809291908181526020016000905b828210156119e75760008481526020908190206040805160c0810182526006860290920180546001600160a01b0390811684526001808301549091168486015260028201549284019290925260038101546060840152600481015460808401526005015460a08301529083529092019101611971565b50505050905090565b604080516080810182526001805482526002546020830152600380546000946111ba94939290840191611a229061459f565b80601f0160208091040260200160405190810160405280929190818152602001828054611a4e9061459f565b8015611a9b5780601f10611a7057610100808354040283529160200191611a9b565b820191906000526020600020905b815481529060010190602001808311611a7e57829003601f168201915b50505050508152602001600382018054611ab49061459f565b80601f0160208091040260200160405190810160405280929190818152602001828054611ae09061459f565b8015611b2d5780601f10611b0257610100808354040283529160200191611b2d565b820191906000526020600020905b815481529060010190602001808311611b1057829003601f168201915b505050505081525050612fd7565b60008060009054906101000a90046001600160a01b03166001600160a01b0316637da0a8776040518163ffffffff1660e01b8152600401602060405180830381865afa158015611b8f573d6000803e3d6000fd5b505050506040513d601f19601f820116820180604052508101906111ba9190614511565b6001600160a01b038116600090815260746020526040902060609061050890613017565b611be7611be2612ac0565b613024565b611c045760405163e4597a6b60e01b815260040160405180910390fd5b6001600160a01b03821660009081526038602052604081208054839290611c2c908490614883565b90915550505050565b60606111ba606d612dff565b600080546040805163d09edf3160e01b815290518593926001600160a01b03169163d09edf319160048083019260209291908290030181865afa158015611c8c573d6000803e3d6000fd5b505050506040513d601f19601f82011682018060405250810190611cb09190614511565b60405163fdd5205f60e01b8152306004820152602481018490526001600160a01b03919091169063fdd5205f906044016020604051808303816000875af1158015611cff573d6000803e3d6000fd5b505050506040513d601f19601f82011682018060405250810190611d23919061452e565b9050611d7960008054906101000a90046001600160a01b03166001600160a01b031663d09edf316040518163ffffffff1660e01b8152600401602060405180830381865afa158015610a2a573d6000803e3d6000fd5b60008054906101000a90046001600160a01b03166001600160a01b031663d09edf316040518163ffffffff1660e01b8152600401602060405180830381865afa158015611dca573d6000803e3d6000fd5b505050506040513d601f19601f82011682018060405250810190611dee9190614511565b604051632e99be7f60e21b8152600481018690526001600160a01b038581166024830152919091169063ba66f9fc9060440161191f565b60006c2127aaa72a2cafa4a9a9aaa2a960991b611e8c60008054906101000a90046001600160a01b03166001600160a01b031663d09edf316040518163ffffffff1660e01b8152600401602060405180830381865afa158015610570573d6000803e3d6000fd5b8585811580611e9a57508181105b15611eb8576040516306338ccd60e31b815260040160405180910390fd5b6000606b60008154611ec9906145e9565b91829055509050611edb606d82612d78565b6000818152606c602052604090208981556001810189905560028101611f02888a8361469b565b50817f16aa89bae6ad0e0b7a94b930e87a8e04b02978ed503e2698b1b6359416e1ac838b8b8b8b604051611f399493929190614896565b60405180910390a25098975050505050505050565b6000610508606d836130a4565b672b22a924a324a2a960c11b611fbb60008054906101000a90046001600160a01b03166001600160a01b031663d09edf316040518163ffffffff1660e01b8152600401602060405180830381865afa158015610570573d6000803e3d6000fd5b83611fc581612984565b611fe2576040516355cee66560e11b815260040160405180910390fd5b600085815260706020526040902060030154859060ff16156120175760405163581991ff60e01b815260040160405180910390fd5b600086815260706020908152604080832054808452606c9092529091206003015460ff1615612059576040516355eceaeb60e11b815260040160405180910390fd5b6120b5878787808060200260200160405190810160405280939291908181526020016000905b828210156120ab5761209c60408302860136819003810190614547565b8152602001906001019061207f565b50505050506130c9565b600087815260706020908152604080832060010180548251818502810185019093528083529192909190849084015b8282101561212c576000848152602090819020604080518082019091526002850290910180546001600160a01b031682526001908101548284015290835290920191016120e4565b5050825160408051808201909152600080825260208201529394509291506121519050565b60005b828110156122a35783818151811061216e5761216e614602565b6020026020010151915061229b6040518060c0016040528084600001516001600160a01b031681526020016121ab6000546001600160a01b031690565b6001600160a01b03166304baed9e6040518163ffffffff1660e01b8152600401602060405180830381865afa1580156121e8573d6000803e3d6000fd5b505050506040513d601f19601f8201168201806040525081019061220c9190614511565b6001600160a01b031663fc0c546a6040518163ffffffff1660e01b8152600401602060405180830381865afa158015612249573d6000803e3d6000fd5b505050506040513d601f19601f8201168201806040525081019061226d9190614511565b6001600160a01b03168152602001846020015181526020014281526020016000815260200142815250613217565b600101612154565b5060008054906101000a90046001600160a01b03166001600160a01b031663f1c6bdf86040518163ffffffff1660e01b8152600401602060405180830381865afa1580156122f5573d6000803e3d6000fd5b505050506040513d601f19601f820116820180604052508101906123199190614511565b60405163e151fc6160e01b81523060048201526001600160a01b03919091169063e151fc6190602401600060405180830381600087803b15801561235c57600080fd5b505af1158015612370573d6000803e3d6000fd5b50505060008b815260706020526040808220600301805460ff19166001179055518c92507f393efda0b92bc01071b66a816d6bcddde867b8c91da505a0f309d9133a53650a9190a250505050505050505050565b60608060606123d4611be2612ac0565b6123f15760405163e4597a6b60e01b815260040160405180910390fd5b6037546000808267ffffffffffffffff811115612410576124106140aa565b604051908082528060200260200182016040528015612439578160200160208202803683370190505b50905060008367ffffffffffffffff811115612457576124576140aa565b604051908082528060200260200182016040528015612480578160200160208202803683370190505b50905060008467ffffffffffffffff81111561249e5761249e6140aa565b60405190808252806020026020018201604052801561251a57816020015b6125076040518060c0016040528060006001600160a01b0316815260200160006001600160a01b03168152602001600081526020016000815260200160008152602001600081525090565b8152602001906001900390816124bc5790505b50905060005b858110156126f4576037818154811061253b5761253b614602565b60009182526020918290206040805160c081018252600690930290910180546001600160a01b03908116845260018201541693830193909352600283015490820152600382015460608201526004820154608082015260059091015460a082015282518390839081106125b0576125b0614602565b60200260200101819052506000805b86811015612627578383815181106125d9576125d9614602565b6020026020010151602001516001600160a01b031686828151811061260057612600614602565b60200260200101516001600160a01b03160361261f5760019150612627565b6001016125bf565b50806126eb5782828151811061263f5761263f614602565b60200260200101516020015185878151811061265d5761265d614602565b60200260200101906001600160a01b031690816001600160a01b0316815250506038600084848151811061269357612693614602565b6020026020010151602001516001600160a01b03166001600160a01b03168152602001908152602001600020548487815181106126d2576126d2614602565b6020908102919091010152856126e7816145e9565b9650505b50600101612520565b5061270160376000613ce8565b60008467ffffffffffffffff81111561271c5761271c6140aa565b604051908082528060200260200182016040528015612745578160200160208202803683370190505b50905060008567ffffffffffffffff811115612763576127636140aa565b60405190808252806020026020018201604052801561278c578160200160208202803683370190505b50905060005b86811015612872578581815181106127ac576127ac614602565b60200260200101518382815181106127c6576127c6614602565b60200260200101906001600160a01b031690816001600160a01b0316815250508481815181106127f8576127f8614602565b602002602001015182828151811061281257612812614602565b602002602001018181525050612848612829612ac0565b84838151811061283b5761283b614602565b60200260200101516133cc565b61286a83828151811061285d5761285d614602565b60200260200101516133f1565b600101612792565b509199909850909650945050505050565b6128b060405180608001604052806000815260200160608152602001606081526020016000151581525090565b816128ba81612984565b6128d7576040516355cee66560e11b815260040160405180910390fd5b607060008481526020019081526020016000206040518060800160405290816000820154815260200160018201805480602002602001604051908101604052809291908181526020016000905b8282101561296c576000848152602090819020604080518082019091526002850290910180546001600160a01b03168252600190810154828401529083529092019101612924565b505050508152602001600282018054610fea9061459f565b60006105086071836130a4565b6c2127aaa72a2cafa4a9a9aaa2a960991b6129f660008054906101000a90046001600160a01b03166001600160a01b031663d09edf316040518163ffffffff1660e01b8152600401602060405180830381865afa158015610570573d6000803e3d6000fd5b81612a0081611f4e565b612a1d57604051630a3c13ff60e31b815260040160405180910390fd5b6000838152606c6020526040902060030154839060ff1615612a52576040516355eceaeb60e11b815260040160405180910390fd5b6000848152606c6020526040808220600301805460ff191660011790555185917fa0e18720f77efbbf5292a427112cd5b87106c4dd3e6b27fe1fa001090a508a4091a250505050565b60006001600160e01b0319821663286309c760e01b14806105085750610508826136e0565b6000366014612ace336113ea565b8015612ada5750808210155b15612b0a57600036612aec8385614883565b612af79282906148b6565b612b00916148e0565b60601c9250505090565b339250505090565b60008054906101000a90046001600160a01b03166001600160a01b031663d09edf316040518163ffffffff1660e01b8152600401602060405180830381865afa158015612b63573d6000803e3d6000fd5b505050506040513d601f19601f82011682018060405250810190612b879190614511565b604051632474521560e21b8152600481018490526001600160a01b03838116602483015291909116906391d1485490604401602060405180830381865afa158015612bd6573d6000803e3d6000fd5b505050506040513d601f19601f82011682018060405250810190612bfa9190614868565b612c2e576040516342abbb7760e01b8152600481018390526001600160a01b03821660248201526044015b60405180910390fd5b5050565b81516000819003612c56576040516336df9e9360e11b815260040160405180910390fd5b60008054819081906001600160a01b0316815b85811015612d3e57878181518110612c8357612c83614602565b602002602001015160200151935083600003612cb257604051633e8ef59760e11b815260040160405180910390fd5b878181518110612cc457612cc4614602565b60209081029190910101515192506001600160a01b0383161580612cf057506001600160a01b03831630145b80612d0c5750816001600160a01b0316836001600160a01b0316145b15612d2a5760405163328b624b60e11b815260040160405180910390fd5b612d348486614915565b9450600101612c69565b508560200151841180612d515750855184105b15612d6f57604051635de5137760e11b815260040160405180910390fd5b50505050505050565b8181612d8482826130a4565b80612d8d575080155b15612dab5760405163582fbbaf60e01b815260040160405180910390fd5b600184018054600090815260028601602052604080822086905585825281206000199055908490558454908590612de1836145e9565b919050555050505050565b6000612df88383613715565b9392505050565b60606000826000015467ffffffffffffffff811115612e2057612e206140aa565b604051908082528060200260200182016040528015612e49578160200160208202803683370190505b506000196000908152600285016020526040812054919250905b6000198114612eb05780838381518110612e7f57612e7f614602565b6020908102919091018101919091526000918252600286019052604090205481612ea8816145e9565b925050612e63565b50909392505050565b612ec1613764565b6001600160a01b038216612ee857604051637280679360e01b815260040160405180910390fd5b600080546001600160a01b0319166001600160a01b038416179055612f0c816137b4565b612f2957604051637511254160e01b815260040160405180910390fd5b8051600190815560208201516002556040820151829190600390612f4d9082614928565b5060608201516003820190612f629082614928565b5050506060810151604051612f7791906149e8565b604080519182900382208351602080860151918552840152916001600160a01b038516917feb175f148a71d29a5f7bf5439182fcd81e6ea9cfc8a11b54ab0f705fa98fa8ca91015b60405180910390a35050565b6000612df88383613806565b6000816000015182604001518360600151604051602001612ffa93929190614a04565b604051602081830303815290604052805190602001209050919050565b60606000612df8836138f9565b6000805460408051631e38d7bf60e31b815290516001600160a01b0380861693169163f1c6bdf89160048083019260209291908290030181865afa158015613070573d6000803e3d6000fd5b505050506040513d601f19601f820116820180604052508101906130949190614511565b6001600160a01b03161492915050565b600081815260028301602052604081205415801590612df85750506000191415919050565b600082815260706020908152604080832060010180548251818502810185019093528083529192909190849084015b82821015613140576000848152602090819020604080518082019091526002850290910180546001600160a01b031682526001908101548284015290835290920191016130f8565b5050845192935060009150505b818110156132105782818151811061316757613167614602565b6020026020010151600001516001600160a01b031684828151811061318e5761318e614602565b6020026020010151600001516001600160a01b03161415806131ea57508281815181106131bd576131bd614602565b6020026020010151602001518482815181106131db576131db614602565b60200260200101516020015114155b156132085760405163b854595560e01b815260040160405180910390fd5b60010161314d565b5050505050565b8061322181613955565b81604001516038600084602001516001600160a01b03166001600160a01b03168152602001908152602001600020600082825461325e9190614915565b909155505060378054600181018255600091909152825160069091027f42a7b7dd785cd69714a189dffb3fd7d7174edc9ece837694ce50f7078f7c31ae810180546001600160a01b039384166001600160a01b0319918216811790925560208601517f42a7b7dd785cd69714a189dffb3fd7d7174edc9ece837694ce50f7078f7c31af8401805491909516911681179093556040808601517f42a7b7dd785cd69714a189dffb3fd7d7174edc9ece837694ce50f7078f7c31b0840181905560608701517f42a7b7dd785cd69714a189dffb3fd7d7174edc9ece837694ce50f7078f7c31b185015560808701517f42a7b7dd785cd69714a189dffb3fd7d7174edc9ece837694ce50f7078f7c31b285015560a08701517f42a7b7dd785cd69714a189dffb3fd7d7174edc9ece837694ce50f7078f7c31b3909401939093555190917f21b8b94494ef1aff6ce0f5f3741800bdb27204fd430c1280b54d4cc653ae6f3a91612fbf91815260200190565b6001600160a01b038116600081815260386020526040902054612c2e9190849061397d565b6001600160a01b0381166000818152603860205260408082205490516370a0823160e01b81523060048201529092906370a0823190602401602060405180830381865afa158015613446573d6000803e3d6000fd5b505050506040513d601f19601f8201168201806040525081019061346a919061452e565b9050818110156136db5760008054906101000a90046001600160a01b03166001600160a01b03166304baed9e6040518163ffffffff1660e01b8152600401602060405180830381865afa1580156134c5573d6000803e3d6000fd5b505050506040513d601f19601f820116820180604052508101906134e99190614511565b6001600160a01b031663fc0c546a6040518163ffffffff1660e01b8152600401602060405180830381865afa158015613526573d6000803e3d6000fd5b505050506040513d601f19601f8201168201806040525081019061354a9190614511565b6001600160a01b0316836001600160a01b0316036136b757600080546040805163025d76cf60e11b815290516001600160a01b039092169163685dc6b19183916304baed9e916004808201926020929091908290030181865afa1580156135b5573d6000803e3d6000fd5b505050506040513d601f19601f820116820180604052508101906135d99190614511565b306135e48688614883565b6040516001600160a01b039092166024830152604482015260640160408051601f198184030181529181526020820180516001600160e01b031663759cc4b560e01b179052516001600160e01b031960e085901b168152613649929190600401614a2f565b6000604051808303816000875af1158015613668573d6000803e3d6000fd5b505050506040513d6000823e601f3d908101601f191682016040526136909190810190614a51565b509050806136b15760405163068a67d160e21b815260040160405180910390fd5b50505050565b6040516346511acb60e11b81526001600160a01b0384166004820152602401612c25565b505050565b60006001600160e01b0319821663179dfb4560e01b148061050857506301ffc9a760e01b6001600160e01b0319831614610508565b600081815260018301602052604081205461375c57508154600181810184556000848152602080822090930184905584548482528286019093526040902091909155610508565b506000610508565b7ff0c57e16840df040f15088dc2f81fe391c3923bec73e23a9662efc9c229c6a005468010000000000000000900460ff166137b257604051631afcd79f60e31b815260040160405180910390fd5b565b60008160400151516000036137cb57506000919050565b8160600151516000036137e057506000919050565b81511580156137f157506020820151155b156137fe57506000919050565b506001919050565b600081815260018301602052604081205480156138ef57600061382a600183614883565b855490915060009061383e90600190614883565b90508082146138a357600086600001828154811061385e5761385e614602565b906000526020600020015490508087600001848154811061388157613881614602565b6000918252602080832090910192909255918252600188019052604090208390555b85548690806138b4576138b4614adb565b600190038181906000526020600020016000905590558560010160008681526020019081526020016000206000905560019350505050610508565b6000915050610508565b60608160000180548060200260200160405190810160405280929190818152602001828054801561394957602002820191906000526020600020905b815481526020019060010190808311613935575b50505050509050919050565b805161396090613a31565b61396d8160200151613a6d565b61397a8160400151613a94565b50565b604080516001600160a01b038416602482015260448082018490528251808303909101815260649091019091526020810180516001600160e01b031663095ea7b360e01b1790526139ce8482613ab5565b6136b157604080516001600160a01b038516602482015260006044808301919091528251808303909101815260649091019091526020810180516001600160e01b031663095ea7b360e01b179052613a27908590613b5d565b6136b18482613b5d565b6001600160a01b0381161580613a4f57506001600160a01b03811630145b1561397a57604051630cef278760e01b815260040160405180910390fd5b6001600160a01b03811661397a57604051639bfa9a6b60e01b815260040160405180910390fd5b8060000361397a576040516351cd1a8760e11b815260040160405180910390fd5b6000806000846001600160a01b031684604051613ad291906149e8565b6000604051808303816000865af19150503d8060008114613b0f576040519150601f19603f3d011682016040523d82523d6000602084013e613b14565b606091505b5091509150818015613b3e575080511580613b3e575080806020019051810190613b3e9190614868565b8015613b5457506000856001600160a01b03163b115b95945050505050565b6000613b726001600160a01b03841683613bc0565b90508051600014158015613b97575080806020019051810190613b959190614868565b155b156136db57604051635274afe760e01b81526001600160a01b0384166004820152602401612c25565b6060612df88383600084600080856001600160a01b03168486604051613be691906149e8565b60006040518083038185875af1925050503d8060008114613c23576040519150601f19603f3d011682016040523d82523d6000602084013e613c28565b606091505b5091509150613c38868383613c42565b9695505050505050565b606082613c5757613c5282613c9e565b612df8565b8151158015613c6e57506001600160a01b0384163b155b15613c9757604051639996b31560e01b81526001600160a01b0385166004820152602401612c25565b5080612df8565b805115613cae5780518082602001fd5b604051630a12f52160e11b815260040160405180910390fd5b508054600082556002029060005260206000209081019061397a9190613d09565b508054600082556006029060005260206000209081019061397a9190613d33565b5b80821115613d2f5780546001600160a01b031916815560006001820155600201613d0a565b5090565b5b80821115613d2f5780546001600160a01b03199081168255600182018054909116905560006002820181905560038201819055600482018190556005820155600601613d34565b600060208284031215613d8d57600080fd5b81356001600160e01b031981168114612df857600080fd5b60008083601f840112613db757600080fd5b50813567ffffffffffffffff811115613dcf57600080fd5b6020830191508360208260061b8501011115613dea57600080fd5b9250929050565b60008083601f840112613e0357600080fd5b50813567ffffffffffffffff811115613e1b57600080fd5b602083019150836020828501011115613dea57600080fd5b600080600080600060608688031215613e4b57600080fd5b85359450602086013567ffffffffffffffff80821115613e6a57600080fd5b613e7689838a01613da5565b90965094506040880135915080821115613e8f57600080fd5b50613e9c88828901613df1565b969995985093965092949392505050565b600080600060408486031215613ec257600080fd5b83359250602084013567ffffffffffffffff80821115613ee157600080fd5b818601915086601f830112613ef557600080fd5b813581811115613f0457600080fd5b8760208260051b8501011115613f1957600080fd5b6020830194508093505050509250925092565b600080600060408486031215613f4157600080fd5b83359250602084013567ffffffffffffffff811115613f5f57600080fd5b613f6b86828701613df1565b9497909650939450505050565b6001600160a01b038116811461397a57600080fd5b600060208284031215613f9f57600080fd5b8135612df881613f78565b600060208284031215613fbc57600080fd5b5035919050565b60005b83811015613fde578181015183820152602001613fc6565b50506000910152565b60008151808452613fff816020860160208601613fc3565b601f01601f19169290920160200192915050565b602081528151602082015260208201516040820152600060408301516080606084015261404360a0840182613fe7565b90506060840151151560808401528091505092915050565b60008151808452602080850194506020840160005b8381101561408c57815187529582019590820190600101614070565b509495945050505050565b602081526000612df8602083018461405b565b634e487b7160e01b600052604160045260246000fd5b6040516080810167ffffffffffffffff811182821017156140e3576140e36140aa565b60405290565b604051601f8201601f1916810167ffffffffffffffff81118282101715614112576141126140aa565b604052919050565b600067ffffffffffffffff821115614134576141346140aa565b50601f01601f191660200190565b600082601f83011261415357600080fd5b81356141666141618261411a565b6140e9565b81815284602083860101111561417b57600080fd5b816020850160208301376000918101602001919091529392505050565b6000806000606084860312156141ad57600080fd5b83356141b881613f78565b9250602084013567ffffffffffffffff808211156141d557600080fd5b90850190608082880312156141e957600080fd5b6141f16140c0565b823581526020830135602082015260408301358281111561421157600080fd5b61421d89828601614142565b60408301525060608301358281111561423557600080fd5b61424189828601614142565b6060830152509350604086013591508082111561425d57600080fd5b5061426a86828701614142565b9150509250925092565b602081526000612df86020830184613fe7565b60008060006040848603121561429c57600080fd5b83359250602084013567ffffffffffffffff8111156142ba57600080fd5b613f6b86828701613da5565b600080604083850312156142d957600080fd5b8235915060208301356142eb81613f78565b809150509250929050565b60008151808452602080850194506020840160005b8381101561408c57815180516001600160a01b03908116895284820151168489015260408082015190890152606080820151908901526080808201519089015260a0908101519088015260c0909601959082019060010161430b565b602081526000612df860208301846142f6565b6000806040838503121561438d57600080fd5b823561439881613f78565b946020939093013593505050565b600080600080606085870312156143bc57600080fd5b8435935060208501359250604085013567ffffffffffffffff8111156143e157600080fd5b6143ed87828801613df1565b95989497509550505050565b60608152600061440c60608301866142f6565b82810360208481019190915285518083528682019282019060005b8181101561444c5784516001600160a01b031683529383019391830191600101614427565b50508481036040860152614460818761405b565b98975050505050505050565b6000602080835260a083018451828501528185015160406080604087015282825180855260c0880191508584019450600093505b808410156144d257845180516001600160a01b03168352860151868301529385019360019390930192908201906144a0565b506040880151878203601f1901606089015294506144f08186613fe7565b9450505050506060840151614509608085018215159052565b509392505050565b60006020828403121561452357600080fd5b8151612df881613f78565b60006020828403121561454057600080fd5b5051919050565b60006040828403121561455957600080fd5b6040516040810181811067ffffffffffffffff8211171561457c5761457c6140aa565b604052823561458a81613f78565b81526020928301359281019290925250919050565b600181811c908216806145b357607f821691505b60208210810361108057634e487b7160e01b600052602260045260246000fd5b634e487b7160e01b600052601160045260246000fd5b6000600182016145fb576145fb6145d3565b5060010190565b634e487b7160e01b600052603260045260246000fd5b813561462381613f78565b6001600160a01b0381166001600160a01b031983541617825550602082013560018201555050565b601f8211156136db576000816000526020600020601f850160051c810160208610156146745750805b601f850160051c820191505b8181101561469357828155600101614680565b505050505050565b67ffffffffffffffff8311156146b3576146b36140aa565b6146c7836146c1835461459f565b8361464b565b6000601f8411600181146146fb57600085156146e35750838201355b600019600387901b1c1916600186901b178355613210565b600083815260209020601f19861690835b8281101561472c578685013582556020948501946001909201910161470c565b50868210156147495760001960f88860031b161c19848701351681555b505060018560011b0183555050505050565b60008184825b8581101561479b57813561477481613f78565b6001600160a01b031683526020828101359084015260409283019290910190600101614761565b509095945050505050565b81835281816020850137506000828201602090810191909152601f909101601f19169091010190565b6020815260006147e36020830184866147a6565b949350505050565b83815260406020808301829052908201839052600090849060608401835b8681101561483757833561481c81613f78565b6001600160a01b031682529282019290820190600101614809565b50979650505050505050565b8183823760009101908152919050565b8051801515811461486357600080fd5b919050565b60006020828403121561487a57600080fd5b612df882614853565b81810381811115610508576105086145d3565b848152836020820152606060408201526000613c386060830184866147a6565b600080858511156148c657600080fd5b838611156148d357600080fd5b5050820193919092039150565b6bffffffffffffffffffffffff19813581811691601485101561490d5780818660140360031b1b83161692505b505092915050565b80820180821115610508576105086145d3565b815167ffffffffffffffff811115614942576149426140aa565b61495681614950845461459f565b8461464b565b602080601f83116001811461498b57600084156149735750858301515b600019600386901b1c1916600185901b178555614693565b600085815260208120601f198616915b828110156149ba5788860151825594840194600190910190840161499b565b50858210156149d85787850151600019600388901b60f8161c191681555b5050505050600190811b01905550565b600082516149fa818460208701613fc3565b9190910192915050565b838152606060208201526000614a1d6060830185613fe7565b8281036040840152613c388185613fe7565b6001600160a01b03831681526040602082015260006147e36040830184613fe7565b60008060408385031215614a6457600080fd5b614a6d83614853565b9150602083015167ffffffffffffffff811115614a8957600080fd5b8301601f81018513614a9a57600080fd5b8051614aa86141618261411a565b818152866020838501011115614abd57600080fd5b614ace826020830160208601613fc3565b8093505050509250929050565b634e487b7160e01b600052603160045260246000fdfea2646970667358221220802ee12b5e030abedbd48d05c76c6612d05e849432a30916f9a1ba0e902c0dfc64736f6c63430008170033",
    "linkReferences": {}
  },
  "methodIdentifiers": {
    "BOUNTY_ISSUER_ROLE()": "7bfee048",
    "CLAIMANT_ROLE()": "8a867368",
    "VERIFIER_ROLE()": "e7705db6",
    "addBounty(uint256,uint256,bytes)": "bd769f79",
    "addClaim(uint256,(address,uint256)[],bytes)": "0d97d72c",
    "amountPaid(address,uint256)": "b33ec618",
    "collectPaymentOrders()": "c0231ff6",
    "getBountyInformation(uint256)": "31be580e",
    "getClaimInformation(uint256)": "cb05296f",
    "grantModuleRole(bytes32,address)": "6c67e807",
    "grantModuleRoleBatched(bytes32,address[])": "272bbd44",
    "identifier()": "7998a1c4",
    "init(address,(uint256,uint256,string,string),bytes)": "42dfe958",
    "isExistingBountyId(uint256)": "be5a5745",
    "isExistingClaimId(uint256)": "e2114c8c",
    "isTrustedForwarder(address)": "572b6c05",
    "listBountyIds()": "b5e8bc45",
    "listClaimIds()": "3cd6b5d1",
    "listClaimIdsForContributorAddress(address)": "9c16f525",
    "lockBounty(uint256)": "fa4dbd03",
    "orchestrator()": "b74795d9",
    "outstandingTokenAmount(address)": "2e84db5f",
    "paymentOrders()": "75fa0b76",
    "revokeModuleRole(bytes32,address)": "bcb61920",
    "revokeModuleRoleBatched(bytes32,address[])": "24e30270",
    "supportsInterface(bytes4)": "01ffc9a7",
    "title()": "4a79d50c",
    "trustedForwarder()": "7da0a877",
    "updateBounty(uint256,bytes)": "31de0bdb",
    "updateClaimContributors(uint256,(address,uint256)[])": "5beaeb8c",
    "updateClaimDetails(uint256,bytes)": "2d54a71c",
    "url()": "5600f04f",
    "verifyClaim(uint256,(address,uint256)[])": "bf1f9656",
    "version()": "54fd4d50"
  },
  "id": 144
}