{
  "abi": [
    {
      "type": "function",
      "name": "PAYMENT_PUSHER_ROLE",
      "inputs": [],
      "outputs": [
        {
          "name": "",
          "type": "bytes32",
          "internalType": "bytes32"
        }
      ],
      "stateMutability": "view"
    },
    {
      "type": "function",
      "name": "amountPaid",
      "inputs": [
        {
          "name": "token",
          "type": "address",
          "internalType": "address"
        },
        {
          "name": "amount",
          "type": "uint256",
          "internalType": "uint256"
        }
      ],
      "outputs": [],
      "stateMutability": "nonpayable"
    },
    {
      "type": "function",
      "name": "collectPaymentOrders",
      "inputs": [],
      "outputs": [
        {
          "name": "",
          "type": "tuple[]",
          "internalType": "struct IERC20PaymentClientBase_v1.PaymentOrder[]",
          "components": [
            {
              "name": "recipient",
              "type": "address",
              "internalType": "address"
            },
            {
              "name": "paymentToken",
              "type": "address",
              "internalType": "address"
            },
            {
              "name": "amount",
              "type": "uint256",
              "internalType": "uint256"
            },
            {
              "name": "start",
              "type": "uint256",
              "internalType": "uint256"
            },
            {
              "name": "cliff",
              "type": "uint256",
              "internalType": "uint256"
            },
            {
              "name": "end",
              "type": "uint256",
              "internalType": "uint256"
            }
          ]
        },
        {
          "name": "",
          "type": "address[]",
          "internalType": "address[]"
        },
        {
          "name": "",
          "type": "uint256[]",
          "internalType": "uint256[]"
        }
      ],
      "stateMutability": "nonpayable"
    },
    {
      "type": "function",
      "name": "grantModuleRole",
      "inputs": [
        {
          "name": "role",
          "type": "bytes32",
          "internalType": "bytes32"
        },
        {
          "name": "target",
          "type": "address",
          "internalType": "address"
        }
      ],
      "outputs": [],
      "stateMutability": "nonpayable"
    },
    {
      "type": "function",
      "name": "grantModuleRoleBatched",
      "inputs": [
        {
          "name": "role",
          "type": "bytes32",
          "internalType": "bytes32"
        },
        {
          "name": "targets",
          "type": "address[]",
          "internalType": "address[]"
        }
      ],
      "outputs": [],
      "stateMutability": "nonpayable"
    },
    {
      "type": "function",
      "name": "identifier",
      "inputs": [],
      "outputs": [
        {
          "name": "",
          "type": "bytes32",
          "internalType": "bytes32"
        }
      ],
      "stateMutability": "view"
    },
    {
      "type": "function",
      "name": "init",
      "inputs": [
        {
          "name": "orchestrator_",
          "type": "address",
          "internalType": "contract IOrchestrator_v1"
        },
        {
          "name": "metadata",
          "type": "tuple",
          "internalType": "struct IModule_v1.Metadata",
          "components": [
            {
              "name": "majorVersion",
              "type": "uint256",
              "internalType": "uint256"
            },
            {
              "name": "minorVersion",
              "type": "uint256",
              "internalType": "uint256"
            },
            {
              "name": "url",
              "type": "string",
              "internalType": "string"
            },
            {
              "name": "title",
              "type": "string",
              "internalType": "string"
            }
          ]
        },
        {
          "name": "",
          "type": "bytes",
          "internalType": "bytes"
        }
      ],
      "outputs": [],
      "stateMutability": "nonpayable"
    },
    {
      "type": "function",
      "name": "isTrustedForwarder",
      "inputs": [
        {
          "name": "forwarder",
          "type": "address",
          "internalType": "address"
        }
      ],
      "outputs": [
        {
          "name": "",
          "type": "bool",
          "internalType": "bool"
        }
      ],
      "stateMutability": "view"
    },
    {
      "type": "function",
      "name": "orchestrator",
      "inputs": [],
      "outputs": [
        {
          "name": "",
          "type": "address",
          "internalType": "contract IOrchestrator_v1"
        }
      ],
      "stateMutability": "view"
    },
    {
      "type": "function",
      "name": "outstandingTokenAmount",
      "inputs": [
        {
          "name": "_token",
          "type": "address",
          "internalType": "address"
        }
      ],
      "outputs": [
        {
          "name": "",
          "type": "uint256",
          "internalType": "uint256"
        }
      ],
      "stateMutability": "view"
    },
    {
      "type": "function",
      "name": "paymentOrders",
      "inputs": [],
      "outputs": [
        {
          "name": "",
          "type": "tuple[]",
          "internalType": "struct IERC20PaymentClientBase_v1.PaymentOrder[]",
          "components": [
            {
              "name": "recipient",
              "type": "address",
              "internalType": "address"
            },
            {
              "name": "paymentToken",
              "type": "address",
              "internalType": "address"
            },
            {
              "name": "amount",
              "type": "uint256",
              "internalType": "uint256"
            },
            {
              "name": "start",
              "type": "uint256",
              "internalType": "uint256"
            },
            {
              "name": "cliff",
              "type": "uint256",
              "internalType": "uint256"
            },
            {
              "name": "end",
              "type": "uint256",
              "internalType": "uint256"
            }
          ]
        }
      ],
      "stateMutability": "view"
    },
    {
      "type": "function",
      "name": "pushPayment",
      "inputs": [
        {
          "name": "recipient",
          "type": "address",
          "internalType": "address"
        },
        {
          "name": "paymentToken",
          "type": "address",
          "internalType": "address"
        },
        {
          "name": "amount",
          "type": "uint256",
          "internalType": "uint256"
        },
        {
          "name": "start",
          "type": "uint256",
          "internalType": "uint256"
        },
        {
          "name": "cliff",
          "type": "uint256",
          "internalType": "uint256"
        },
        {
          "name": "end",
          "type": "uint256",
          "internalType": "uint256"
        }
      ],
      "outputs": [],
      "stateMutability": "nonpayable"
    },
    {
      "type": "function",
      "name": "pushPaymentBatched",
      "inputs": [
        {
          "name": "numOfOrders",
          "type": "uint8",
          "internalType": "uint8"
        },
        {
          "name": "recipients",
          "type": "address[]",
          "internalType": "address[]"
        },
        {
          "name": "paymentTokens",
          "type": "address[]",
          "internalType": "address[]"
        },
        {
          "name": "amounts",
          "type": "uint256[]",
          "internalType": "uint256[]"
        },
        {
          "name": "start",
          "type": "uint256",
          "internalType": "uint256"
        },
        {
          "name": "cliff",
          "type": "uint256",
          "internalType": "uint256"
        },
        {
          "name": "end",
          "type": "uint256",
          "internalType": "uint256"
        }
      ],
      "outputs": [],
      "stateMutability": "nonpayable"
    },
    {
      "type": "function",
      "name": "revokeModuleRole",
      "inputs": [
        {
          "name": "role",
          "type": "bytes32",
          "internalType": "bytes32"
        },
        {
          "name": "target",
          "type": "address",
          "internalType": "address"
        }
      ],
      "outputs": [],
      "stateMutability": "nonpayable"
    },
    {
      "type": "function",
      "name": "revokeModuleRoleBatched",
      "inputs": [
        {
          "name": "role",
          "type": "bytes32",
          "internalType": "bytes32"
        },
        {
          "name": "targets",
          "type": "address[]",
          "internalType": "address[]"
        }
      ],
      "outputs": [],
      "stateMutability": "nonpayable"
    },
    {
      "type": "function",
      "name": "supportsInterface",
      "inputs": [
        {
          "name": "interfaceId",
          "type": "bytes4",
          "internalType": "bytes4"
        }
      ],
      "outputs": [
        {
          "name": "",
          "type": "bool",
          "internalType": "bool"
        }
      ],
      "stateMutability": "view"
    },
    {
      "type": "function",
      "name": "title",
      "inputs": [],
      "outputs": [
        {
          "name": "",
          "type": "string",
          "internalType": "string"
        }
      ],
      "stateMutability": "view"
    },
    {
      "type": "function",
      "name": "trustedForwarder",
      "inputs": [],
      "outputs": [
        {
          "name": "",
          "type": "address",
          "internalType": "address"
        }
      ],
      "stateMutability": "view"
    },
    {
      "type": "function",
      "name": "url",
      "inputs": [],
      "outputs": [
        {
          "name": "",
          "type": "string",
          "internalType": "string"
        }
      ],
      "stateMutability": "view"
    },
    {
      "type": "function",
      "name": "version",
      "inputs": [],
      "outputs": [
        {
          "name": "",
          "type": "uint256",
          "internalType": "uint256"
        },
        {
          "name": "",
          "type": "uint256",
          "internalType": "uint256"
        }
      ],
      "stateMutability": "view"
    },
    {
      "type": "event",
      "name": "Initialized",
      "inputs": [
        {
          "name": "version",
          "type": "uint64",
          "indexed": false,
          "internalType": "uint64"
        }
      ],
      "anonymous": false
    },
    {
      "type": "event",
      "name": "ModuleInitialized",
      "inputs": [
        {
          "name": "parentOrchestrator",
          "type": "address",
          "indexed": true,
          "internalType": "address"
        },
        {
          "name": "moduleTitle",
          "type": "string",
          "indexed": true,
          "internalType": "string"
        },
        {
          "name": "majorVersion",
          "type": "uint256",
          "indexed": false,
          "internalType": "uint256"
        },
        {
          "name": "minorVersion",
          "type": "uint256",
          "indexed": false,
          "internalType": "uint256"
        }
      ],
      "anonymous": false
    },
    {
      "type": "event",
      "name": "PaymentOrderAdded",
      "inputs": [
        {
          "name": "recipient",
          "type": "address",
          "indexed": true,
          "internalType": "address"
        },
        {
          "name": "token",
          "type": "address",
          "indexed": true,
          "internalType": "address"
        },
        {
          "name": "amount",
          "type": "uint256",
          "indexed": false,
          "internalType": "uint256"
        }
      ],
      "anonymous": false
    },
    {
      "type": "error",
      "name": "AddressEmptyCode",
      "inputs": [
        {
          "name": "target",
          "type": "address",
          "internalType": "address"
        }
      ]
    },
    {
      "type": "error",
      "name": "AddressInsufficientBalance",
      "inputs": [
        {
          "name": "account",
          "type": "address",
          "internalType": "address"
        }
      ]
    },
    {
      "type": "error",
      "name": "FailedInnerCall",
      "inputs": []
    },
    {
      "type": "error",
      "name": "InvalidInitialization",
      "inputs": []
    },
    {
      "type": "error",
      "name": "Module_OrchestratorCallbackFailed",
      "inputs": [
        {
          "name": "funcSig",
          "type": "string",
          "internalType": "string"
        }
      ]
    },
    {
      "type": "error",
      "name": "Module__CallerNotAuthorized",
      "inputs": [
        {
          "name": "role",
          "type": "bytes32",
          "internalType": "bytes32"
        },
        {
          "name": "caller",
          "type": "address",
          "internalType": "address"
        }
      ]
    },
    {
      "type": "error",
      "name": "Module__ERC20PaymentClientBase__ArrayLengthMismatch",
      "inputs": []
    },
    {
      "type": "error",
      "name": "Module__ERC20PaymentClientBase__CallerNotAuthorized",
      "inputs": []
    },
    {
      "type": "error",
      "name": "Module__ERC20PaymentClientBase__InsufficientFunds",
      "inputs": [
        {
          "name": "token",
          "type": "address",
          "internalType": "address"
        }
      ]
    },
    {
      "type": "error",
      "name": "Module__ERC20PaymentClientBase__InvalidAmount",
      "inputs": []
    },
    {
      "type": "error",
      "name": "Module__ERC20PaymentClientBase__InvalidRecipient",
      "inputs": []
    },
    {
      "type": "error",
      "name": "Module__ERC20PaymentClientBase__InvalidToken",
      "inputs": []
    },
    {
      "type": "error",
      "name": "Module__ERC20PaymentClientBase__Invalidend",
      "inputs": []
    },
    {
      "type": "error",
      "name": "Module__ERC20PaymentClientBase__TokenTransferFailed",
      "inputs": []
    },
    {
      "type": "error",
      "name": "Module__InvalidMetadata",
      "inputs": []
    },
    {
      "type": "error",
      "name": "Module__InvalidOrchestratorAddress",
      "inputs": []
    },
    {
      "type": "error",
      "name": "Module__OnlyCallableByOrchestrator",
      "inputs": []
    },
    {
      "type": "error",
      "name": "NotInitializing",
      "inputs": []
    },
    {
      "type": "error",
      "name": "SafeERC20FailedOperation",
      "inputs": [
        {
          "name": "token",
          "type": "address",
          "internalType": "address"
        }
      ]
    }
  ],
  "bytecode": {
    "object": "0x60a06040523480156200001157600080fd5b5060006080526200002162000027565b620000db565b7ff0c57e16840df040f15088dc2f81fe391c3923bec73e23a9662efc9c229c6a00805468010000000000000000900460ff1615620000785760405163f92ee8a960e01b815260040160405180910390fd5b80546001600160401b0390811614620000d85780546001600160401b0319166001600160401b0390811782556040519081527fc7f505b2f371ae2175ee4913f4499e1f2633a7b5936321eed1cdaeb6115181d29060200160405180910390a15b50565b6080516130ad620000f4600039600050506130ad6000f3fe608060405234801561001057600080fd5b506004361061012c5760003560e01c8063572b6c05116100ad5780638028b82f116100715780638028b82f14610291578063b33ec618146102a4578063b74795d9146102b7578063bcb61920146102c8578063c0231ff6146102db57600080fd5b8063572b6c051461022e5780636c67e8071461024157806375fa0b76146102545780637998a1c4146102695780637da0a8771461027157600080fd5b806346ebcacf116100f457806346ebcacf146101cb5780634a79d50c146101e357806354fd4d50146101f857806355f304c6146102135780635600f04f1461022657600080fd5b806301ffc9a71461013157806324e3027014610159578063272bbd441461016e5780632e84db5f1461018157806342dfe958146101b8575b600080fd5b61014461013f3660046126e0565b6102f2565b60405190151581526020015b60405180910390f35b61016c610167366004612756565b61031d565b005b61016c61017c366004612756565b6105d1565b6101aa61018f3660046127b7565b6001600160a01b031660009081526038602052604090205490565b604051908152602001610150565b61016c6101c63660046128c2565b6107ad565b6101aa6d2820aca6a2a72a2fa82aa9a422a960911b81565b6101eb6108d4565b60405161015091906129ee565b60015460025460408051928352602083019190915201610150565b61016c610221366004612a01565b610969565b6101eb610c3d565b61014461023c3660046127b7565b610c4f565b61016c61024f366004612ace565b610cbe565b61025c610ecc565b6040516101509190612b7a565b6101aa610f6f565b6102796110bf565b6040516001600160a01b039091168152602001610150565b61016c61029f366004612b8d565b611137565b61016c6102b2366004612be6565b6112cc565b6000546001600160a01b0316610279565b61016c6102d6366004612ace565b61132a565b6102e361150e565b60405161015093929190612c12565b60006001600160e01b0319821663d5dbbce960e01b14806103175750610317826119cd565b92915050565b600080546040805163d09edf3160e01b815290518693926001600160a01b03169163d09edf319160048083019260209291908290030181865afa158015610368573d6000803e3d6000fd5b505050506040513d601f19601f8201168201806040525081019061038c9190612caa565b60405163fdd5205f60e01b8152306004820152602481018490526001600160a01b03919091169063fdd5205f906044016020604051808303816000875af11580156103db573d6000803e3d6000fd5b505050506040513d601f19601f820116820180604052508101906103ff9190612cc7565b90506104f460008054906101000a90046001600160a01b03166001600160a01b031663d09edf316040518163ffffffff1660e01b8152600401602060405180830381865afa158015610455573d6000803e3d6000fd5b505050506040513d601f19601f820116820180604052508101906104799190612caa565b6001600160a01b031663248a9ca3836040518263ffffffff1660e01b81526004016104a691815260200190565b602060405180830381865afa1580156104c3573d6000803e3d6000fd5b505050506040513d601f19601f820116820180604052508101906104e79190612cc7565b6104ef6119f2565b611a44565b60008054906101000a90046001600160a01b03166001600160a01b031663d09edf316040518163ffffffff1660e01b8152600401602060405180830381865afa158015610545573d6000803e3d6000fd5b505050506040513d601f19601f820116820180604052508101906105699190612caa565b6001600160a01b0316637d540a648686866040518463ffffffff1660e01b815260040161059893929190612ce0565b600060405180830381600087803b1580156105b257600080fd5b505af11580156105c6573d6000803e3d6000fd5b505050505050505050565b600080546040805163d09edf3160e01b815290518693926001600160a01b03169163d09edf319160048083019260209291908290030181865afa15801561061c573d6000803e3d6000fd5b505050506040513d601f19601f820116820180604052508101906106409190612caa565b60405163fdd5205f60e01b8152306004820152602481018490526001600160a01b03919091169063fdd5205f906044016020604051808303816000875af115801561068f573d6000803e3d6000fd5b505050506040513d601f19601f820116820180604052508101906106b39190612cc7565b905061070960008054906101000a90046001600160a01b03166001600160a01b031663d09edf316040518163ffffffff1660e01b8152600401602060405180830381865afa158015610455573d6000803e3d6000fd5b60008054906101000a90046001600160a01b03166001600160a01b031663d09edf316040518163ffffffff1660e01b8152600401602060405180830381865afa15801561075a573d6000803e3d6000fd5b505050506040513d601f19601f8201168201806040525081019061077e9190612caa565b6001600160a01b031663648154538686866040518463ffffffff1660e01b815260040161059893929190612ce0565b7ff0c57e16840df040f15088dc2f81fe391c3923bec73e23a9662efc9c229c6a00805468010000000000000000810460ff16159067ffffffffffffffff166000811580156107f85750825b905060008267ffffffffffffffff1660011480156108155750303b155b905081158015610823575080155b156108415760405163f92ee8a960e01b815260040160405180910390fd5b845467ffffffffffffffff19166001178555831561087557845468ff00000000000000001916680100000000000000001785555b61087f8888611b64565b83156108ca57845468ff000000000000000019168555604051600181527fc7f505b2f371ae2175ee4913f4499e1f2633a7b5936321eed1cdaeb6115181d29060200160405180910390a15b5050505050505050565b6060600160030180546108e690612d38565b80601f016020809104026020016040519081016040528092919081815260200182805461091290612d38565b801561095f5780601f106109345761010080835404028352916020019161095f565b820191906000526020600020905b81548152906001019060200180831161094257829003601f168201915b5050505050905090565b6d2820aca6a2a72a2fa82aa9a422a960911b610a4260008054906101000a90046001600160a01b03166001600160a01b031663d09edf316040518163ffffffff1660e01b8152600401602060405180830381865afa1580156109cf573d6000803e3d6000fd5b505050506040513d601f19601f820116820180604052508101906109f39190612caa565b60405163fdd5205f60e01b8152306004820152602481018490526001600160a01b03919091169063fdd5205f906044016020604051808303816000875af11580156104c3573d6000803e3d6000fd5b60ff8b1689141580610a57575060ff8b168714155b80610a65575060ff8b168514155b15610a8357604051632133968b60e01b815260040160405180910390fd5b60005b8b60ff168160ff161015610b5f57610b576040518060c001604052808d8d8560ff16818110610ab757610ab7612d72565b9050602002016020810190610acc91906127b7565b6001600160a01b031681526020018b8b8560ff16818110610aef57610aef612d72565b9050602002016020810190610b0491906127b7565b6001600160a01b0316815260200189898560ff16818110610b2757610b27612d72565b90506020020135815260200187600014610b415787610b43565b425b815260200186815260200185815250611c76565b600101610a86565b5060008054906101000a90046001600160a01b03166001600160a01b031663f1c6bdf86040518163ffffffff1660e01b8152600401602060405180830381865afa158015610bb1573d6000803e3d6000fd5b505050506040513d601f19601f82011682018060405250810190610bd59190612caa565b60405163e151fc6160e01b81523060048201526001600160a01b03919091169063e151fc6190602401600060405180830381600087803b158015610c1857600080fd5b505af1158015610c2c573d6000803e3d6000fd5b505050505050505050505050505050565b6060600160020180546108e690612d38565b6000805460405163572b6c0560e01b81526001600160a01b0384811660048301529091169063572b6c0590602401602060405180830381865afa158015610c9a573d6000803e3d6000fd5b505050506040513d601f19601f820116820180604052508101906103179190612d9d565b600080546040805163d09edf3160e01b815290518593926001600160a01b03169163d09edf319160048083019260209291908290030181865afa158015610d09573d6000803e3d6000fd5b505050506040513d601f19601f82011682018060405250810190610d2d9190612caa565b60405163fdd5205f60e01b8152306004820152602481018490526001600160a01b03919091169063fdd5205f906044016020604051808303816000875af1158015610d7c573d6000803e3d6000fd5b505050506040513d601f19601f82011682018060405250810190610da09190612cc7565b9050610df660008054906101000a90046001600160a01b03166001600160a01b031663d09edf316040518163ffffffff1660e01b8152600401602060405180830381865afa158015610455573d6000803e3d6000fd5b60008054906101000a90046001600160a01b03166001600160a01b031663d09edf316040518163ffffffff1660e01b8152600401602060405180830381865afa158015610e47573d6000803e3d6000fd5b505050506040513d601f19601f82011682018060405250810190610e6b9190612caa565b60405163385e205560e21b8152600481018690526001600160a01b038581166024830152919091169063e1788154906044015b600060405180830381600087803b158015610eb857600080fd5b505af11580156108ca573d6000803e3d6000fd5b60606037805480602002602001604051908101604052809291908181526020016000905b82821015610f665760008481526020908190206040805160c0810182526006860290920180546001600160a01b0390811684526001808301549091168486015260028201549284019290925260038101546060840152600481015460808401526005015460a08301529083529092019101610ef0565b50505050905090565b604080516080810182526001805482526002546020830152600380546000946110ba94939290840191610fa190612d38565b80601f0160208091040260200160405190810160405280929190818152602001828054610fcd90612d38565b801561101a5780601f10610fef5761010080835404028352916020019161101a565b820191906000526020600020905b815481529060010190602001808311610ffd57829003601f168201915b5050505050815260200160038201805461103390612d38565b80601f016020809104026020016040519081016040528092919081815260200182805461105f90612d38565b80156110ac5780601f10611081576101008083540402835291602001916110ac565b820191906000526020600020905b81548152906001019060200180831161108f57829003601f168201915b505050505081525050611e2b565b905090565b60008060009054906101000a90046001600160a01b03166001600160a01b0316637da0a8776040518163ffffffff1660e01b8152600401602060405180830381865afa158015611113573d6000803e3d6000fd5b505050506040513d601f19601f820116820180604052508101906110ba9190612caa565b6d2820aca6a2a72a2fa82aa9a422a960911b61119d60008054906101000a90046001600160a01b03166001600160a01b031663d09edf316040518163ffffffff1660e01b8152600401602060405180830381865afa1580156109cf573d6000803e3d6000fd5b6111f36040518060c00160405280896001600160a01b03168152602001886001600160a01b03168152602001878152602001866000146111dd57866111df565b425b815260200185815260200184815250611c76565b60008054906101000a90046001600160a01b03166001600160a01b031663f1c6bdf86040518163ffffffff1660e01b8152600401602060405180830381865afa158015611244573d6000803e3d6000fd5b505050506040513d601f19601f820116820180604052508101906112689190612caa565b60405163e151fc6160e01b81523060048201526001600160a01b03919091169063e151fc6190602401600060405180830381600087803b1580156112ab57600080fd5b505af11580156112bf573d6000803e3d6000fd5b5050505050505050505050565b6112dc6112d76119f2565b611e6b565b6112f95760405163e4597a6b60e01b815260040160405180910390fd5b6001600160a01b03821660009081526038602052604081208054839290611321908490612dce565b90915550505050565b600080546040805163d09edf3160e01b815290518593926001600160a01b03169163d09edf319160048083019260209291908290030181865afa158015611375573d6000803e3d6000fd5b505050506040513d601f19601f820116820180604052508101906113999190612caa565b60405163fdd5205f60e01b8152306004820152602481018490526001600160a01b03919091169063fdd5205f906044016020604051808303816000875af11580156113e8573d6000803e3d6000fd5b505050506040513d601f19601f8201168201806040525081019061140c9190612cc7565b905061146260008054906101000a90046001600160a01b03166001600160a01b031663d09edf316040518163ffffffff1660e01b8152600401602060405180830381865afa158015610455573d6000803e3d6000fd5b60008054906101000a90046001600160a01b03166001600160a01b031663d09edf316040518163ffffffff1660e01b8152600401602060405180830381865afa1580156114b3573d6000803e3d6000fd5b505050506040513d601f19601f820116820180604052508101906114d79190612caa565b604051632e99be7f60e21b8152600481018690526001600160a01b038581166024830152919091169063ba66f9fc90604401610e9e565b606080606061151e6112d76119f2565b61153b5760405163e4597a6b60e01b815260040160405180910390fd5b6037546000808267ffffffffffffffff81111561155a5761155a6127d4565b604051908082528060200260200182016040528015611583578160200160208202803683370190505b50905060008367ffffffffffffffff8111156115a1576115a16127d4565b6040519080825280602002602001820160405280156115ca578160200160208202803683370190505b50905060008467ffffffffffffffff8111156115e8576115e86127d4565b60405190808252806020026020018201604052801561166457816020015b6116516040518060c0016040528060006001600160a01b0316815260200160006001600160a01b03168152602001600081526020016000815260200160008152602001600081525090565b8152602001906001900390816116065790505b50905060005b8581101561183e576037818154811061168557611685612d72565b60009182526020918290206040805160c081018252600690930290910180546001600160a01b03908116845260018201541693830193909352600283015490820152600382015460608201526004820154608082015260059091015460a082015282518390839081106116fa576116fa612d72565b60200260200101819052506000805b868110156117715783838151811061172357611723612d72565b6020026020010151602001516001600160a01b031686828151811061174a5761174a612d72565b60200260200101516001600160a01b0316036117695760019150611771565b600101611709565b50806118355782828151811061178957611789612d72565b6020026020010151602001518587815181106117a7576117a7612d72565b60200260200101906001600160a01b031690816001600160a01b031681525050603860008484815181106117dd576117dd612d72565b6020026020010151602001516001600160a01b03166001600160a01b031681526020019081526020016000205484878151811061181c5761181c612d72565b60209081029190910101528561183181612de1565b9650505b5060010161166a565b5061184b60376000612678565b60008467ffffffffffffffff811115611866576118666127d4565b60405190808252806020026020018201604052801561188f578160200160208202803683370190505b50905060008567ffffffffffffffff8111156118ad576118ad6127d4565b6040519080825280602002602001820160405280156118d6578160200160208202803683370190505b50905060005b868110156119bc578581815181106118f6576118f6612d72565b602002602001015183828151811061191057611910612d72565b60200260200101906001600160a01b031690816001600160a01b03168152505084818151811061194257611942612d72565b602002602001015182828151811061195c5761195c612d72565b6020026020010181815250506119926119736119f2565b84838151811061198557611985612d72565b6020026020010151611eeb565b6119b48382815181106119a7576119a7612d72565b6020026020010151611f10565b6001016118dc565b509199909850909650945050505050565b60006001600160e01b0319821663286309c760e01b14806103175750610317826121ff565b6000366014611a0033610c4f565b8015611a0c5750808210155b15611a3c57600036611a1e8385612dce565b611a29928290612dfa565b611a3291612e24565b60601c9250505090565b339250505090565b60008054906101000a90046001600160a01b03166001600160a01b031663d09edf316040518163ffffffff1660e01b8152600401602060405180830381865afa158015611a95573d6000803e3d6000fd5b505050506040513d601f19601f82011682018060405250810190611ab99190612caa565b604051632474521560e21b8152600481018490526001600160a01b03838116602483015291909116906391d1485490604401602060405180830381865afa158015611b08573d6000803e3d6000fd5b505050506040513d601f19601f82011682018060405250810190611b2c9190612d9d565b611b60576040516342abbb7760e01b8152600481018390526001600160a01b03821660248201526044015b60405180910390fd5b5050565b611b6c612234565b6001600160a01b038216611b9357604051637280679360e01b815260040160405180910390fd5b600080546001600160a01b0319166001600160a01b038416179055611bb781612284565b611bd457604051637511254160e01b815260040160405180910390fd5b8051600190815560208201516002556040820151829190600390611bf89082612ea9565b5060608201516003820190611c0d9082612ea9565b5050506060810151604051611c229190612f69565b604080519182900382208351602080860151918552840152916001600160a01b038516917feb175f148a71d29a5f7bf5439182fcd81e6ea9cfc8a11b54ab0f705fa98fa8ca91015b60405180910390a35050565b80611c80816122d6565b81604001516038600084602001516001600160a01b03166001600160a01b031681526020019081526020016000206000828254611cbd9190612f85565b909155505060378054600181018255600091909152825160069091027f42a7b7dd785cd69714a189dffb3fd7d7174edc9ece837694ce50f7078f7c31ae810180546001600160a01b039384166001600160a01b0319918216811790925560208601517f42a7b7dd785cd69714a189dffb3fd7d7174edc9ece837694ce50f7078f7c31af8401805491909516911681179093556040808601517f42a7b7dd785cd69714a189dffb3fd7d7174edc9ece837694ce50f7078f7c31b0840181905560608701517f42a7b7dd785cd69714a189dffb3fd7d7174edc9ece837694ce50f7078f7c31b185015560808701517f42a7b7dd785cd69714a189dffb3fd7d7174edc9ece837694ce50f7078f7c31b285015560a08701517f42a7b7dd785cd69714a189dffb3fd7d7174edc9ece837694ce50f7078f7c31b3909401939093555190917f21b8b94494ef1aff6ce0f5f3741800bdb27204fd430c1280b54d4cc653ae6f3a91611c6a91815260200190565b6000816000015182604001518360600151604051602001611e4e93929190612f98565b604051602081830303815290604052805190602001209050919050565b6000805460408051631e38d7bf60e31b815290516001600160a01b0380861693169163f1c6bdf89160048083019260209291908290030181865afa158015611eb7573d6000803e3d6000fd5b505050506040513d601f19601f82011682018060405250810190611edb9190612caa565b6001600160a01b03161492915050565b6001600160a01b038116600081815260386020526040902054611b60919084906122fe565b6001600160a01b0381166000818152603860205260408082205490516370a0823160e01b81523060048201529092906370a0823190602401602060405180830381865afa158015611f65573d6000803e3d6000fd5b505050506040513d601f19601f82011682018060405250810190611f899190612cc7565b9050818110156121fa5760008054906101000a90046001600160a01b03166001600160a01b03166304baed9e6040518163ffffffff1660e01b8152600401602060405180830381865afa158015611fe4573d6000803e3d6000fd5b505050506040513d601f19601f820116820180604052508101906120089190612caa565b6001600160a01b031663fc0c546a6040518163ffffffff1660e01b8152600401602060405180830381865afa158015612045573d6000803e3d6000fd5b505050506040513d601f19601f820116820180604052508101906120699190612caa565b6001600160a01b0316836001600160a01b0316036121d657600080546040805163025d76cf60e11b815290516001600160a01b039092169163685dc6b19183916304baed9e916004808201926020929091908290030181865afa1580156120d4573d6000803e3d6000fd5b505050506040513d601f19601f820116820180604052508101906120f89190612caa565b306121038688612dce565b6040516001600160a01b039092166024830152604482015260640160408051601f198184030181529181526020820180516001600160e01b031663759cc4b560e01b179052516001600160e01b031960e085901b168152612168929190600401612fc3565b6000604051808303816000875af1158015612187573d6000803e3d6000fd5b505050506040513d6000823e601f3d908101601f191682016040526121af9190810190612fed565b509050806121d05760405163068a67d160e21b815260040160405180910390fd5b50505050565b6040516346511acb60e11b81526001600160a01b0384166004820152602401611b57565b505050565b60006001600160e01b0319821663179dfb4560e01b148061031757506301ffc9a760e01b6001600160e01b0319831614610317565b7ff0c57e16840df040f15088dc2f81fe391c3923bec73e23a9662efc9c229c6a005468010000000000000000900460ff1661228257604051631afcd79f60e31b815260040160405180910390fd5b565b600081604001515160000361229b57506000919050565b8160600151516000036122b057506000919050565b81511580156122c157506020820151155b156122ce57506000919050565b506001919050565b80516122e1906123b2565b6122ee81602001516123ee565b6122fb8160400151612415565b50565b604080516001600160a01b038416602482015260448082018490528251808303909101815260649091019091526020810180516001600160e01b031663095ea7b360e01b17905261234f8482612436565b6121d057604080516001600160a01b038516602482015260006044808301919091528251808303909101815260649091019091526020810180516001600160e01b031663095ea7b360e01b1790526123a89085906124de565b6121d084826124de565b6001600160a01b03811615806123d057506001600160a01b03811630145b156122fb57604051630cef278760e01b815260040160405180910390fd5b6001600160a01b0381166122fb57604051639bfa9a6b60e01b815260040160405180910390fd5b806000036122fb576040516351cd1a8760e11b815260040160405180910390fd5b6000806000846001600160a01b0316846040516124539190612f69565b6000604051808303816000865af19150503d8060008114612490576040519150601f19603f3d011682016040523d82523d6000602084013e612495565b606091505b50915091508180156124bf5750805115806124bf5750808060200190518101906124bf9190612d9d565b80156124d557506000856001600160a01b03163b115b95945050505050565b60006124f36001600160a01b03841683612541565b905080516000141580156125185750808060200190518101906125169190612d9d565b155b156121fa57604051635274afe760e01b81526001600160a01b0384166004820152602401611b57565b606061254f83836000612556565b9392505050565b60608147101561257b5760405163cd78605960e01b8152306004820152602401611b57565b600080856001600160a01b031684866040516125979190612f69565b60006040518083038185875af1925050503d80600081146125d4576040519150601f19603f3d011682016040523d82523d6000602084013e6125d9565b606091505b50915091506125e98683836125f3565b9695505050505050565b606082612608576126038261264f565b61254f565b815115801561261f57506001600160a01b0384163b155b1561264857604051639996b31560e01b81526001600160a01b0385166004820152602401611b57565b508061254f565b80511561265f5780518082602001fd5b604051630a12f52160e11b815260040160405180910390fd5b50805460008255600602906000526020600020908101906122fb91905b808211156126dc5780546001600160a01b03199081168255600182018054909116905560006002820181905560038201819055600482018190556005820155600601612695565b5090565b6000602082840312156126f257600080fd5b81356001600160e01b03198116811461254f57600080fd5b60008083601f84011261271c57600080fd5b50813567ffffffffffffffff81111561273457600080fd5b6020830191508360208260051b850101111561274f57600080fd5b9250929050565b60008060006040848603121561276b57600080fd5b83359250602084013567ffffffffffffffff81111561278957600080fd5b6127958682870161270a565b9497909650939450505050565b6001600160a01b03811681146122fb57600080fd5b6000602082840312156127c957600080fd5b813561254f816127a2565b634e487b7160e01b600052604160045260246000fd5b6040516080810167ffffffffffffffff8111828210171561280d5761280d6127d4565b60405290565b604051601f8201601f1916810167ffffffffffffffff8111828210171561283c5761283c6127d4565b604052919050565b600067ffffffffffffffff82111561285e5761285e6127d4565b50601f01601f191660200190565b600082601f83011261287d57600080fd5b813561289061288b82612844565b612813565b8181528460208386010111156128a557600080fd5b816020850160208301376000918101602001919091529392505050565b6000806000606084860312156128d757600080fd5b83356128e2816127a2565b9250602084013567ffffffffffffffff808211156128ff57600080fd5b908501906080828803121561291357600080fd5b61291b6127ea565b823581526020830135602082015260408301358281111561293b57600080fd5b6129478982860161286c565b60408301525060608301358281111561295f57600080fd5b61296b8982860161286c565b6060830152509350604086013591508082111561298757600080fd5b506129948682870161286c565b9150509250925092565b60005b838110156129b95781810151838201526020016129a1565b50506000910152565b600081518084526129da81602086016020860161299e565b601f01601f19169290920160200192915050565b60208152600061254f60208301846129c2565b60008060008060008060008060008060e08b8d031215612a2057600080fd5b8a3560ff81168114612a3157600080fd5b995060208b013567ffffffffffffffff80821115612a4e57600080fd5b612a5a8e838f0161270a565b909b50995060408d0135915080821115612a7357600080fd5b612a7f8e838f0161270a565b909950975060608d0135915080821115612a9857600080fd5b50612aa58d828e0161270a565b9b9e9a9d50989b979a9699969760808101359760a0820135975060c09091013595509350505050565b60008060408385031215612ae157600080fd5b823591506020830135612af3816127a2565b809150509250929050565b60008151808452602080850194506020840160005b83811015612b6f57815180516001600160a01b03908116895284820151168489015260408082015190890152606080820151908901526080808201519089015260a0908101519088015260c09096019590820190600101612b13565b509495945050505050565b60208152600061254f6020830184612afe565b60008060008060008060c08789031215612ba657600080fd5b8635612bb1816127a2565b95506020870135612bc1816127a2565b95989597505050506040840135936060810135936080820135935060a0909101359150565b60008060408385031215612bf957600080fd5b8235612c04816127a2565b946020939093013593505050565b606081526000612c256060830186612afe565b82810360208481019190915285518083528682019282019060005b81811015612c655784516001600160a01b031683529383019391830191600101612c40565b50508481036040860152855180825290820192508186019060005b81811015612c9c57825185529383019391830191600101612c80565b509298975050505050505050565b600060208284031215612cbc57600080fd5b815161254f816127a2565b600060208284031215612cd957600080fd5b5051919050565b83815260406020808301829052908201839052600090849060608401835b86811015612d2c578335612d11816127a2565b6001600160a01b031682529282019290820190600101612cfe565b50979650505050505050565b600181811c90821680612d4c57607f821691505b602082108103612d6c57634e487b7160e01b600052602260045260246000fd5b50919050565b634e487b7160e01b600052603260045260246000fd5b80518015158114612d9857600080fd5b919050565b600060208284031215612daf57600080fd5b61254f82612d88565b634e487b7160e01b600052601160045260246000fd5b8181038181111561031757610317612db8565b600060018201612df357612df3612db8565b5060010190565b60008085851115612e0a57600080fd5b83861115612e1757600080fd5b5050820193919092039150565b6bffffffffffffffffffffffff198135818116916014851015612e515780818660140360031b1b83161692505b505092915050565b601f8211156121fa576000816000526020600020601f850160051c81016020861015612e825750805b601f850160051c820191505b81811015612ea157828155600101612e8e565b505050505050565b815167ffffffffffffffff811115612ec357612ec36127d4565b612ed781612ed18454612d38565b84612e59565b602080601f831160018114612f0c5760008415612ef45750858301515b600019600386901b1c1916600185901b178555612ea1565b600085815260208120601f198616915b82811015612f3b57888601518255948401946001909101908401612f1c565b5085821015612f595787850151600019600388901b60f8161c191681555b5050505050600190811b01905550565b60008251612f7b81846020870161299e565b9190910192915050565b8082018082111561031757610317612db8565b838152606060208201526000612fb160608301856129c2565b82810360408401526125e981856129c2565b6001600160a01b0383168152604060208201526000612fe560408301846129c2565b949350505050565b6000806040838503121561300057600080fd5b61300983612d88565b9150602083015167ffffffffffffffff81111561302557600080fd5b8301601f8101851361303657600080fd5b805161304461288b82612844565b81815286602083850101111561305957600080fd5b61306a82602083016020860161299e565b809350505050925092905056fea2646970667358221220eb6294fedc090756474e8d62ea7bebcf15b6fa5d51f334677e8885e8da17f5cd64736f6c63430008170033",
    "linkReferences": {}
  },
  "methodIdentifiers": {
    "PAYMENT_PUSHER_ROLE()": "46ebcacf",
    "amountPaid(address,uint256)": "b33ec618",
    "collectPaymentOrders()": "c0231ff6",
    "grantModuleRole(bytes32,address)": "6c67e807",
    "grantModuleRoleBatched(bytes32,address[])": "272bbd44",
    "identifier()": "7998a1c4",
    "init(address,(uint256,uint256,string,string),bytes)": "42dfe958",
    "isTrustedForwarder(address)": "572b6c05",
    "orchestrator()": "b74795d9",
    "outstandingTokenAmount(address)": "2e84db5f",
    "paymentOrders()": "75fa0b76",
    "pushPayment(address,address,uint256,uint256,uint256,uint256)": "8028b82f",
    "pushPaymentBatched(uint8,address[],address[],uint256[],uint256,uint256,uint256)": "55f304c6",
    "revokeModuleRole(bytes32,address)": "bcb61920",
    "revokeModuleRoleBatched(bytes32,address[])": "24e30270",
    "supportsInterface(bytes4)": "01ffc9a7",
    "title()": "4a79d50c",
    "trustedForwarder()": "7da0a877",
    "url()": "5600f04f",
    "version()": "54fd4d50"
  },
  "id": 146
}