{
  "abi": [
    {
      "type": "function",
      "name": "ASSERTER_ROLE",
      "inputs": [],
      "outputs": [
        {
          "name": "",
          "type": "bytes32",
          "internalType": "bytes32"
        }
      ],
      "stateMutability": "view"
    },
    {
      "type": "function",
      "name": "amountPaid",
      "inputs": [
        {
          "name": "token_",
          "type": "address",
          "internalType": "address"
        },
        {
          "name": "amount_",
          "type": "uint256",
          "internalType": "uint256"
        }
      ],
      "outputs": [],
      "stateMutability": "nonpayable"
    },
    {
      "type": "function",
      "name": "assertDataFor",
      "inputs": [
        {
          "name": "dataId",
          "type": "bytes32",
          "internalType": "bytes32"
        },
        {
          "name": "data_",
          "type": "bytes32",
          "internalType": "bytes32"
        },
        {
          "name": "asserter",
          "type": "address",
          "internalType": "address"
        }
      ],
      "outputs": [
        {
          "name": "assertionId",
          "type": "bytes32",
          "internalType": "bytes32"
        }
      ],
      "stateMutability": "nonpayable"
    },
    {
      "type": "function",
      "name": "assertionData",
      "inputs": [
        {
          "name": "",
          "type": "bytes32",
          "internalType": "bytes32"
        }
      ],
      "outputs": [
        {
          "name": "dataId",
          "type": "bytes32",
          "internalType": "bytes32"
        },
        {
          "name": "data",
          "type": "bytes32",
          "internalType": "bytes32"
        },
        {
          "name": "asserter",
          "type": "address",
          "internalType": "address"
        },
        {
          "name": "resolved",
          "type": "bool",
          "internalType": "bool"
        }
      ],
      "stateMutability": "view"
    },
    {
      "type": "function",
      "name": "assertionDisputedCallback",
      "inputs": [
        {
          "name": "assertionId",
          "type": "bytes32",
          "internalType": "bytes32"
        }
      ],
      "outputs": [],
      "stateMutability": "nonpayable"
    },
    {
      "type": "function",
      "name": "assertionLiveness",
      "inputs": [],
      "outputs": [
        {
          "name": "",
          "type": "uint64",
          "internalType": "uint64"
        }
      ],
      "stateMutability": "view"
    },
    {
      "type": "function",
      "name": "assertionResolvedCallback",
      "inputs": [
        {
          "name": "assertionId",
          "type": "bytes32",
          "internalType": "bytes32"
        },
        {
          "name": "assertedTruthfully",
          "type": "bool",
          "internalType": "bool"
        }
      ],
      "outputs": [],
      "stateMutability": "nonpayable"
    },
    {
      "type": "function",
      "name": "claimRewards",
      "inputs": [],
      "outputs": [],
      "stateMutability": "nonpayable"
    },
    {
      "type": "function",
      "name": "collectPaymentOrders",
      "inputs": [],
      "outputs": [
        {
          "name": "paymentOrders_",
          "type": "tuple[]",
          "internalType": "struct IERC20PaymentClientBase_v2.PaymentOrder[]",
          "components": [
            {
              "name": "recipient",
              "type": "address",
              "internalType": "address"
            },
            {
              "name": "paymentToken",
              "type": "address",
              "internalType": "address"
            },
            {
              "name": "amount",
              "type": "uint256",
              "internalType": "uint256"
            },
            {
              "name": "originChainId",
              "type": "uint256",
              "internalType": "uint256"
            },
            {
              "name": "targetChainId",
              "type": "uint256",
              "internalType": "uint256"
            },
            {
              "name": "flags",
              "type": "bytes32",
              "internalType": "bytes32"
            },
            {
              "name": "data",
              "type": "bytes32[]",
              "internalType": "bytes32[]"
            }
          ]
        },
        {
          "name": "tokens_",
          "type": "address[]",
          "internalType": "address[]"
        },
        {
          "name": "totalAmounts_",
          "type": "uint256[]",
          "internalType": "uint256[]"
        }
      ],
      "stateMutability": "nonpayable"
    },
    {
      "type": "function",
      "name": "createKPI",
      "inputs": [
        {
          "name": "_continuous",
          "type": "bool",
          "internalType": "bool"
        },
        {
          "name": "_trancheValues",
          "type": "uint256[]",
          "internalType": "uint256[]"
        },
        {
          "name": "_trancheRewards",
          "type": "uint256[]",
          "internalType": "uint256[]"
        }
      ],
      "outputs": [
        {
          "name": "",
          "type": "uint256",
          "internalType": "uint256"
        }
      ],
      "stateMutability": "nonpayable"
    },
    {
      "type": "function",
      "name": "defaultBond",
      "inputs": [],
      "outputs": [
        {
          "name": "",
          "type": "uint256",
          "internalType": "uint256"
        }
      ],
      "stateMutability": "view"
    },
    {
      "type": "function",
      "name": "defaultCurrency",
      "inputs": [],
      "outputs": [
        {
          "name": "",
          "type": "address",
          "internalType": "contract IERC20"
        }
      ],
      "stateMutability": "view"
    },
    {
      "type": "function",
      "name": "defaultIdentifier",
      "inputs": [],
      "outputs": [
        {
          "name": "",
          "type": "bytes32",
          "internalType": "bytes32"
        }
      ],
      "stateMutability": "view"
    },
    {
      "type": "function",
      "name": "deleteStuckAssertion",
      "inputs": [
        {
          "name": "assertionId",
          "type": "bytes32",
          "internalType": "bytes32"
        }
      ],
      "outputs": [],
      "stateMutability": "nonpayable"
    },
    {
      "type": "function",
      "name": "depositFeeFunds",
      "inputs": [
        {
          "name": "amount",
          "type": "uint256",
          "internalType": "uint256"
        }
      ],
      "outputs": [],
      "stateMutability": "nonpayable"
    },
    {
      "type": "function",
      "name": "getAssertion",
      "inputs": [
        {
          "name": "assertionId",
          "type": "bytes32",
          "internalType": "bytes32"
        }
      ],
      "outputs": [
        {
          "name": "",
          "type": "tuple",
          "internalType": "struct IOptimisticOracleIntegrator.DataAssertion",
          "components": [
            {
              "name": "dataId",
              "type": "bytes32",
              "internalType": "bytes32"
            },
            {
              "name": "data",
              "type": "bytes32",
              "internalType": "bytes32"
            },
            {
              "name": "asserter",
              "type": "address",
              "internalType": "address"
            },
            {
              "name": "resolved",
              "type": "bool",
              "internalType": "bool"
            }
          ]
        }
      ],
      "stateMutability": "view"
    },
    {
      "type": "function",
      "name": "getAssertionConfig",
      "inputs": [
        {
          "name": "assertionId",
          "type": "bytes32",
          "internalType": "bytes32"
        }
      ],
      "outputs": [
        {
          "name": "",
          "type": "tuple",
          "internalType": "struct ILM_PC_KPIRewarder_v2.RewardRoundConfiguration",
          "components": [
            {
              "name": "creationTime",
              "type": "uint256",
              "internalType": "uint256"
            },
            {
              "name": "assertedValue",
              "type": "uint256",
              "internalType": "uint256"
            },
            {
              "name": "KpiToUse",
              "type": "uint256",
              "internalType": "uint256"
            },
            {
              "name": "distributed",
              "type": "bool",
              "internalType": "bool"
            }
          ]
        }
      ],
      "stateMutability": "view"
    },
    {
      "type": "function",
      "name": "getAssertionPending",
      "inputs": [],
      "outputs": [
        {
          "name": "",
          "type": "bool",
          "internalType": "bool"
        }
      ],
      "stateMutability": "view"
    },
    {
      "type": "function",
      "name": "getBalance",
      "inputs": [
        {
          "name": "user",
          "type": "address",
          "internalType": "address"
        }
      ],
      "outputs": [
        {
          "name": "",
          "type": "uint256",
          "internalType": "uint256"
        }
      ],
      "stateMutability": "view"
    },
    {
      "type": "function",
      "name": "getData",
      "inputs": [
        {
          "name": "assertionId",
          "type": "bytes32",
          "internalType": "bytes32"
        }
      ],
      "outputs": [
        {
          "name": "",
          "type": "bool",
          "internalType": "bool"
        },
        {
          "name": "",
          "type": "bytes32",
          "internalType": "bytes32"
        }
      ],
      "stateMutability": "view"
    },
    {
      "type": "function",
      "name": "getEarned",
      "inputs": [
        {
          "name": "user",
          "type": "address",
          "internalType": "address"
        }
      ],
      "outputs": [
        {
          "name": "",
          "type": "uint256",
          "internalType": "uint256"
        }
      ],
      "stateMutability": "view"
    },
    {
      "type": "function",
      "name": "getEstimatedReward",
      "inputs": [
        {
          "name": "amount",
          "type": "uint256",
          "internalType": "uint256"
        },
        {
          "name": "duration",
          "type": "uint256",
          "internalType": "uint256"
        }
      ],
      "outputs": [
        {
          "name": "",
          "type": "uint256",
          "internalType": "uint256"
        }
      ],
      "stateMutability": "view"
    },
    {
      "type": "function",
      "name": "getFlagCount",
      "inputs": [],
      "outputs": [
        {
          "name": "flagCount_",
          "type": "uint8",
          "internalType": "uint8"
        }
      ],
      "stateMutability": "view"
    },
    {
      "type": "function",
      "name": "getFlags",
      "inputs": [],
      "outputs": [
        {
          "name": "flags_",
          "type": "bytes32",
          "internalType": "bytes32"
        }
      ],
      "stateMutability": "view"
    },
    {
      "type": "function",
      "name": "getKPI",
      "inputs": [
        {
          "name": "KPInum",
          "type": "uint256",
          "internalType": "uint256"
        }
      ],
      "outputs": [
        {
          "name": "",
          "type": "tuple",
          "internalType": "struct ILM_PC_KPIRewarder_v2.KPI",
          "components": [
            {
              "name": "numOfTranches",
              "type": "uint256",
              "internalType": "uint256"
            },
            {
              "name": "totalRewards",
              "type": "uint256",
              "internalType": "uint256"
            },
            {
              "name": "continuous",
              "type": "bool",
              "internalType": "bool"
            },
            {
              "name": "trancheValues",
              "type": "uint256[]",
              "internalType": "uint256[]"
            },
            {
              "name": "trancheRewards",
              "type": "uint256[]",
              "internalType": "uint256[]"
            }
          ]
        }
      ],
      "stateMutability": "view"
    },
    {
      "type": "function",
      "name": "getKPICounter",
      "inputs": [],
      "outputs": [
        {
          "name": "",
          "type": "uint256",
          "internalType": "uint256"
        }
      ],
      "stateMutability": "view"
    },
    {
      "type": "function",
      "name": "getLastUpdate",
      "inputs": [],
      "outputs": [
        {
          "name": "",
          "type": "uint256",
          "internalType": "uint256"
        }
      ],
      "stateMutability": "view"
    },
    {
      "type": "function",
      "name": "getRewardRate",
      "inputs": [],
      "outputs": [
        {
          "name": "",
          "type": "uint256",
          "internalType": "uint256"
        }
      ],
      "stateMutability": "view"
    },
    {
      "type": "function",
      "name": "getRewardValue",
      "inputs": [],
      "outputs": [
        {
          "name": "",
          "type": "uint256",
          "internalType": "uint256"
        }
      ],
      "stateMutability": "view"
    },
    {
      "type": "function",
      "name": "getRewardsEnd",
      "inputs": [],
      "outputs": [
        {
          "name": "",
          "type": "uint256",
          "internalType": "uint256"
        }
      ],
      "stateMutability": "view"
    },
    {
      "type": "function",
      "name": "getStakingToken",
      "inputs": [],
      "outputs": [
        {
          "name": "",
          "type": "address",
          "internalType": "address"
        }
      ],
      "stateMutability": "view"
    },
    {
      "type": "function",
      "name": "getTotalSupply",
      "inputs": [],
      "outputs": [
        {
          "name": "",
          "type": "uint256",
          "internalType": "uint256"
        }
      ],
      "stateMutability": "view"
    },
    {
      "type": "function",
      "name": "grantModuleRole",
      "inputs": [
        {
          "name": "role",
          "type": "bytes32",
          "internalType": "bytes32"
        },
        {
          "name": "target",
          "type": "address",
          "internalType": "address"
        }
      ],
      "outputs": [],
      "stateMutability": "nonpayable"
    },
    {
      "type": "function",
      "name": "grantModuleRoleBatched",
      "inputs": [
        {
          "name": "role",
          "type": "bytes32",
          "internalType": "bytes32"
        },
        {
          "name": "targets",
          "type": "address[]",
          "internalType": "address[]"
        }
      ],
      "outputs": [],
      "stateMutability": "nonpayable"
    },
    {
      "type": "function",
      "name": "identifier",
      "inputs": [],
      "outputs": [
        {
          "name": "",
          "type": "bytes32",
          "internalType": "bytes32"
        }
      ],
      "stateMutability": "view"
    },
    {
      "type": "function",
      "name": "init",
      "inputs": [
        {
          "name": "orchestrator_",
          "type": "address",
          "internalType": "contract IOrchestrator_v1"
        },
        {
          "name": "metadata",
          "type": "tuple",
          "internalType": "struct IModule_v1.Metadata",
          "components": [
            {
              "name": "majorVersion",
              "type": "uint256",
              "internalType": "uint256"
            },
            {
              "name": "minorVersion",
              "type": "uint256",
              "internalType": "uint256"
            },
            {
              "name": "patchVersion",
              "type": "uint256",
              "internalType": "uint256"
            },
            {
              "name": "url",
              "type": "string",
              "internalType": "string"
            },
            {
              "name": "title",
              "type": "string",
              "internalType": "string"
            }
          ]
        },
        {
          "name": "configData",
          "type": "bytes",
          "internalType": "bytes"
        }
      ],
      "outputs": [],
      "stateMutability": "nonpayable"
    },
    {
      "type": "function",
      "name": "isTrustedForwarder",
      "inputs": [
        {
          "name": "forwarder",
          "type": "address",
          "internalType": "address"
        }
      ],
      "outputs": [
        {
          "name": "",
          "type": "bool",
          "internalType": "bool"
        }
      ],
      "stateMutability": "view"
    },
    {
      "type": "function",
      "name": "oo",
      "inputs": [],
      "outputs": [
        {
          "name": "",
          "type": "address",
          "internalType": "contract OptimisticOracleV3Interface"
        }
      ],
      "stateMutability": "view"
    },
    {
      "type": "function",
      "name": "orchestrator",
      "inputs": [],
      "outputs": [
        {
          "name": "",
          "type": "address",
          "internalType": "contract IOrchestrator_v1"
        }
      ],
      "stateMutability": "view"
    },
    {
      "type": "function",
      "name": "outstandingTokenAmount",
      "inputs": [
        {
          "name": "token_",
          "type": "address",
          "internalType": "address"
        }
      ],
      "outputs": [
        {
          "name": "total_",
          "type": "uint256",
          "internalType": "uint256"
        }
      ],
      "stateMutability": "view"
    },
    {
      "type": "function",
      "name": "paymentOrders",
      "inputs": [],
      "outputs": [
        {
          "name": "",
          "type": "tuple[]",
          "internalType": "struct IERC20PaymentClientBase_v2.PaymentOrder[]",
          "components": [
            {
              "name": "recipient",
              "type": "address",
              "internalType": "address"
            },
            {
              "name": "paymentToken",
              "type": "address",
              "internalType": "address"
            },
            {
              "name": "amount",
              "type": "uint256",
              "internalType": "uint256"
            },
            {
              "name": "originChainId",
              "type": "uint256",
              "internalType": "uint256"
            },
            {
              "name": "targetChainId",
              "type": "uint256",
              "internalType": "uint256"
            },
            {
              "name": "flags",
              "type": "bytes32",
              "internalType": "bytes32"
            },
            {
              "name": "data",
              "type": "bytes32[]",
              "internalType": "bytes32[]"
            }
          ]
        }
      ],
      "stateMutability": "view"
    },
    {
      "type": "function",
      "name": "postAssertion",
      "inputs": [
        {
          "name": "dataId",
          "type": "bytes32",
          "internalType": "bytes32"
        },
        {
          "name": "assertedValue",
          "type": "uint256",
          "internalType": "uint256"
        },
        {
          "name": "asserter",
          "type": "address",
          "internalType": "address"
        },
        {
          "name": "targetKPI",
          "type": "uint256",
          "internalType": "uint256"
        }
      ],
      "outputs": [
        {
          "name": "assertionId",
          "type": "bytes32",
          "internalType": "bytes32"
        }
      ],
      "stateMutability": "nonpayable"
    },
    {
      "type": "function",
      "name": "revokeModuleRole",
      "inputs": [
        {
          "name": "role",
          "type": "bytes32",
          "internalType": "bytes32"
        },
        {
          "name": "target",
          "type": "address",
          "internalType": "address"
        }
      ],
      "outputs": [],
      "stateMutability": "nonpayable"
    },
    {
      "type": "function",
      "name": "revokeModuleRoleBatched",
      "inputs": [
        {
          "name": "role",
          "type": "bytes32",
          "internalType": "bytes32"
        },
        {
          "name": "targets",
          "type": "address[]",
          "internalType": "address[]"
        }
      ],
      "outputs": [],
      "stateMutability": "nonpayable"
    },
    {
      "type": "function",
      "name": "setDefaultAssertionLiveness",
      "inputs": [
        {
          "name": "_newLiveness",
          "type": "uint64",
          "internalType": "uint64"
        }
      ],
      "outputs": [],
      "stateMutability": "nonpayable"
    },
    {
      "type": "function",
      "name": "setDefaultCurrencyAndBond",
      "inputs": [
        {
          "name": "_newCurrency",
          "type": "address",
          "internalType": "address"
        },
        {
          "name": "_newBond",
          "type": "uint256",
          "internalType": "uint256"
        }
      ],
      "outputs": [],
      "stateMutability": "nonpayable"
    },
    {
      "type": "function",
      "name": "setOptimisticOracle",
      "inputs": [
        {
          "name": "_newOO",
          "type": "address",
          "internalType": "address"
        }
      ],
      "outputs": [],
      "stateMutability": "nonpayable"
    },
    {
      "type": "function",
      "name": "setRewards",
      "inputs": [
        {
          "name": "amount",
          "type": "uint256",
          "internalType": "uint256"
        },
        {
          "name": "duration",
          "type": "uint256",
          "internalType": "uint256"
        }
      ],
      "outputs": [],
      "stateMutability": "nonpayable"
    },
    {
      "type": "function",
      "name": "stake",
      "inputs": [
        {
          "name": "amount",
          "type": "uint256",
          "internalType": "uint256"
        }
      ],
      "outputs": [],
      "stateMutability": "nonpayable"
    },
    {
      "type": "function",
      "name": "supportsInterface",
      "inputs": [
        {
          "name": "interfaceId",
          "type": "bytes4",
          "internalType": "bytes4"
        }
      ],
      "outputs": [
        {
          "name": "",
          "type": "bool",
          "internalType": "bool"
        }
      ],
      "stateMutability": "view"
    },
    {
      "type": "function",
      "name": "title",
      "inputs": [],
      "outputs": [
        {
          "name": "",
          "type": "string",
          "internalType": "string"
        }
      ],
      "stateMutability": "view"
    },
    {
      "type": "function",
      "name": "trustedForwarder",
      "inputs": [],
      "outputs": [
        {
          "name": "",
          "type": "address",
          "internalType": "address"
        }
      ],
      "stateMutability": "view"
    },
    {
      "type": "function",
      "name": "unstake",
      "inputs": [
        {
          "name": "amount",
          "type": "uint256",
          "internalType": "uint256"
        }
      ],
      "outputs": [],
      "stateMutability": "nonpayable"
    },
    {
      "type": "function",
      "name": "url",
      "inputs": [],
      "outputs": [
        {
          "name": "",
          "type": "string",
          "internalType": "string"
        }
      ],
      "stateMutability": "view"
    },
    {
      "type": "function",
      "name": "version",
      "inputs": [],
      "outputs": [
        {
          "name": "",
          "type": "uint256",
          "internalType": "uint256"
        },
        {
          "name": "",
          "type": "uint256",
          "internalType": "uint256"
        },
        {
          "name": "",
          "type": "uint256",
          "internalType": "uint256"
        }
      ],
      "stateMutability": "view"
    },
    {
      "type": "event",
      "name": "DataAsserted",
      "inputs": [
        {
          "name": "dataId",
          "type": "bytes32",
          "indexed": true,
          "internalType": "bytes32"
        },
        {
          "name": "data",
          "type": "bytes32",
          "indexed": false,
          "internalType": "bytes32"
        },
        {
          "name": "asserter",
          "type": "address",
          "indexed": true,
          "internalType": "address"
        },
        {
          "name": "assertionId",
          "type": "bytes32",
          "indexed": true,
          "internalType": "bytes32"
        }
      ],
      "anonymous": false
    },
    {
      "type": "event",
      "name": "DataAssertionResolved",
      "inputs": [
        {
          "name": "assertedTruthfully",
          "type": "bool",
          "indexed": false,
          "internalType": "bool"
        },
        {
          "name": "dataId",
          "type": "bytes32",
          "indexed": true,
          "internalType": "bytes32"
        },
        {
          "name": "data",
          "type": "bytes32",
          "indexed": false,
          "internalType": "bytes32"
        },
        {
          "name": "asserter",
          "type": "address",
          "indexed": true,
          "internalType": "address"
        },
        {
          "name": "assertionId",
          "type": "bytes32",
          "indexed": true,
          "internalType": "bytes32"
        }
      ],
      "anonymous": false
    },
    {
      "type": "event",
      "name": "DeletedStuckAssertion",
      "inputs": [
        {
          "name": "assertionId",
          "type": "bytes32",
          "indexed": true,
          "internalType": "bytes32"
        }
      ],
      "anonymous": false
    },
    {
      "type": "event",
      "name": "FeeFundsDeposited",
      "inputs": [
        {
          "name": "token",
          "type": "address",
          "indexed": true,
          "internalType": "address"
        },
        {
          "name": "amount",
          "type": "uint256",
          "indexed": false,
          "internalType": "uint256"
        }
      ],
      "anonymous": false
    },
    {
      "type": "event",
      "name": "FlagsSet",
      "inputs": [
        {
          "name": "flagCount",
          "type": "uint8",
          "indexed": false,
          "internalType": "uint8"
        },
        {
          "name": "newFlags",
          "type": "bytes32",
          "indexed": false,
          "internalType": "bytes32"
        }
      ],
      "anonymous": false
    },
    {
      "type": "event",
      "name": "Initialized",
      "inputs": [
        {
          "name": "version",
          "type": "uint64",
          "indexed": false,
          "internalType": "uint64"
        }
      ],
      "anonymous": false
    },
    {
      "type": "event",
      "name": "KPICreated",
      "inputs": [
        {
          "name": "KPI_Id",
          "type": "uint256",
          "indexed": true,
          "internalType": "uint256"
        },
        {
          "name": "numOfTranches",
          "type": "uint256",
          "indexed": false,
          "internalType": "uint256"
        },
        {
          "name": "totalKPIRewards",
          "type": "uint256",
          "indexed": false,
          "internalType": "uint256"
        },
        {
          "name": "continuous",
          "type": "bool",
          "indexed": false,
          "internalType": "bool"
        },
        {
          "name": "trancheValues",
          "type": "uint256[]",
          "indexed": false,
          "internalType": "uint256[]"
        },
        {
          "name": "trancheRewards",
          "type": "uint256[]",
          "indexed": false,
          "internalType": "uint256[]"
        }
      ],
      "anonymous": false
    },
    {
      "type": "event",
      "name": "ModuleInitialized",
      "inputs": [
        {
          "name": "parentOrchestrator",
          "type": "address",
          "indexed": true,
          "internalType": "address"
        },
        {
          "name": "metadata",
          "type": "tuple",
          "indexed": false,
          "internalType": "struct IModule_v1.Metadata",
          "components": [
            {
              "name": "majorVersion",
              "type": "uint256",
              "internalType": "uint256"
            },
            {
              "name": "minorVersion",
              "type": "uint256",
              "internalType": "uint256"
            },
            {
              "name": "patchVersion",
              "type": "uint256",
              "internalType": "uint256"
            },
            {
              "name": "url",
              "type": "string",
              "internalType": "string"
            },
            {
              "name": "title",
              "type": "string",
              "internalType": "string"
            }
          ]
        }
      ],
      "anonymous": false
    },
    {
      "type": "event",
      "name": "PaymentOrderAdded",
      "inputs": [
        {
          "name": "recipient",
          "type": "address",
          "indexed": true,
          "internalType": "address"
        },
        {
          "name": "token",
          "type": "address",
          "indexed": true,
          "internalType": "address"
        },
        {
          "name": "amount",
          "type": "uint256",
          "indexed": false,
          "internalType": "uint256"
        },
        {
          "name": "originChainId",
          "type": "uint256",
          "indexed": false,
          "internalType": "uint256"
        },
        {
          "name": "targetChainId",
          "type": "uint256",
          "indexed": false,
          "internalType": "uint256"
        },
        {
          "name": "flags",
          "type": "bytes32",
          "indexed": false,
          "internalType": "bytes32"
        },
        {
          "name": "data",
          "type": "bytes32[]",
          "indexed": false,
          "internalType": "bytes32[]"
        }
      ],
      "anonymous": false
    },
    {
      "type": "event",
      "name": "ProtocolFeeTransferred",
      "inputs": [
        {
          "name": "token",
          "type": "address",
          "indexed": true,
          "internalType": "address"
        },
        {
          "name": "treasury",
          "type": "address",
          "indexed": true,
          "internalType": "address"
        },
        {
          "name": "feeAmount",
          "type": "uint256",
          "indexed": false,
          "internalType": "uint256"
        }
      ],
      "anonymous": false
    },
    {
      "type": "event",
      "name": "RewardRoundConfigured",
      "inputs": [
        {
          "name": "assertionId",
          "type": "bytes32",
          "indexed": true,
          "internalType": "bytes32"
        },
        {
          "name": "creationTime",
          "type": "uint256",
          "indexed": false,
          "internalType": "uint256"
        },
        {
          "name": "assertedValue",
          "type": "uint256",
          "indexed": false,
          "internalType": "uint256"
        },
        {
          "name": "KpiToUse",
          "type": "uint256",
          "indexed": true,
          "internalType": "uint256"
        }
      ],
      "anonymous": false
    },
    {
      "type": "event",
      "name": "RewardSet",
      "inputs": [
        {
          "name": "rewardAmount",
          "type": "uint256",
          "indexed": false,
          "internalType": "uint256"
        },
        {
          "name": "duration",
          "type": "uint256",
          "indexed": false,
          "internalType": "uint256"
        },
        {
          "name": "newRewardRate",
          "type": "uint256",
          "indexed": false,
          "internalType": "uint256"
        },
        {
          "name": "newRewardsEnd",
          "type": "uint256",
          "indexed": false,
          "internalType": "uint256"
        }
      ],
      "anonymous": false
    },
    {
      "type": "event",
      "name": "RewardsDistributed",
      "inputs": [
        {
          "name": "user",
          "type": "address",
          "indexed": true,
          "internalType": "address"
        },
        {
          "name": "amount",
          "type": "uint256",
          "indexed": false,
          "internalType": "uint256"
        }
      ],
      "anonymous": false
    },
    {
      "type": "event",
      "name": "Staked",
      "inputs": [
        {
          "name": "user",
          "type": "address",
          "indexed": true,
          "internalType": "address"
        },
        {
          "name": "amount",
          "type": "uint256",
          "indexed": false,
          "internalType": "uint256"
        }
      ],
      "anonymous": false
    },
    {
      "type": "event",
      "name": "StakingTokenSet",
      "inputs": [
        {
          "name": "token",
          "type": "address",
          "indexed": true,
          "internalType": "address"
        }
      ],
      "anonymous": false
    },
    {
      "type": "event",
      "name": "Unstaked",
      "inputs": [
        {
          "name": "user",
          "type": "address",
          "indexed": true,
          "internalType": "address"
        },
        {
          "name": "amount",
          "type": "uint256",
          "indexed": false,
          "internalType": "uint256"
        }
      ],
      "anonymous": false
    },
    {
      "type": "event",
      "name": "Updated",
      "inputs": [
        {
          "name": "triggerAddress",
          "type": "address",
          "indexed": true,
          "internalType": "address"
        },
        {
          "name": "rewardValue",
          "type": "uint256",
          "indexed": false,
          "internalType": "uint256"
        },
        {
          "name": "lastUpdate",
          "type": "uint256",
          "indexed": false,
          "internalType": "uint256"
        },
        {
          "name": "earnedRewards",
          "type": "uint256",
          "indexed": false,
          "internalType": "uint256"
        }
      ],
      "anonymous": false
    },
    {
      "type": "error",
      "name": "AddressEmptyCode",
      "inputs": [
        {
          "name": "target",
          "type": "address",
          "internalType": "address"
        }
      ]
    },
    {
      "type": "error",
      "name": "AddressInsufficientBalance",
      "inputs": [
        {
          "name": "account",
          "type": "address",
          "internalType": "address"
        }
      ]
    },
    {
      "type": "error",
      "name": "FailedInnerCall",
      "inputs": []
    },
    {
      "type": "error",
      "name": "InvalidInitialization",
      "inputs": []
    },
    {
      "type": "error",
      "name": "Module_OrchestratorCallbackFailed",
      "inputs": [
        {
          "name": "funcSig",
          "type": "string",
          "internalType": "string"
        }
      ]
    },
    {
      "type": "error",
      "name": "Module__CallerNotAuthorized",
      "inputs": [
        {
          "name": "role",
          "type": "bytes32",
          "internalType": "bytes32"
        },
        {
          "name": "caller",
          "type": "address",
          "internalType": "address"
        }
      ]
    },
    {
      "type": "error",
      "name": "Module__ERC20PaymentClientBase__CallerNotAuthorized",
      "inputs": []
    },
    {
      "type": "error",
      "name": "Module__ERC20PaymentClientBase__InsufficientFunds",
      "inputs": [
        {
          "name": "token",
          "type": "address",
          "internalType": "address"
        }
      ]
    },
    {
      "type": "error",
      "name": "Module__ERC20PaymentClientBase__InvalidAmount",
      "inputs": []
    },
    {
      "type": "error",
      "name": "Module__ERC20PaymentClientBase__InvalidPaymentOrder",
      "inputs": []
    },
    {
      "type": "error",
      "name": "Module__ERC20PaymentClientBase__InvalidRecipient",
      "inputs": []
    },
    {
      "type": "error",
      "name": "Module__ERC20PaymentClientBase__InvalidToken",
      "inputs": []
    },
    {
      "type": "error",
      "name": "Module__ERC20PaymentClientBase__MismatchBetweenFlagCountAndArrayLength",
      "inputs": [
        {
          "name": "flagCount",
          "type": "uint8",
          "internalType": "uint8"
        },
        {
          "name": "arrayLength",
          "type": "uint256",
          "internalType": "uint256"
        }
      ]
    },
    {
      "type": "error",
      "name": "Module__ERC20PaymentClientBase__TokenTransferFailed",
      "inputs": []
    },
    {
      "type": "error",
      "name": "Module__ERC20PaymentClientBase_v2__FlagAmountTooHigh",
      "inputs": []
    },
    {
      "type": "error",
      "name": "Module__InvalidAddress",
      "inputs": []
    },
    {
      "type": "error",
      "name": "Module__InvalidMetadata",
      "inputs": []
    },
    {
      "type": "error",
      "name": "Module__InvalidOrchestratorAddress",
      "inputs": []
    },
    {
      "type": "error",
      "name": "Module__LM_PC_KPIRewarder_v2__AssertionNotStuck",
      "inputs": [
        {
          "name": "assertionId",
          "type": "bytes32",
          "internalType": "bytes32"
        }
      ]
    },
    {
      "type": "error",
      "name": "Module__LM_PC_KPIRewarder_v2__CannotStakeWhenAssertionPending",
      "inputs": []
    },
    {
      "type": "error",
      "name": "Module__LM_PC_KPIRewarder_v2__InvalidKPINumber",
      "inputs": []
    },
    {
      "type": "error",
      "name": "Module__LM_PC_KPIRewarder_v2__InvalidKPITrancheValues",
      "inputs": []
    },
    {
      "type": "error",
      "name": "Module__LM_PC_KPIRewarder_v2__InvalidKPIValueLengths",
      "inputs": []
    },
    {
      "type": "error",
      "name": "Module__LM_PC_KPIRewarder_v2__InvalidTrancheNumber",
      "inputs": []
    },
    {
      "type": "error",
      "name": "Module__LM_PC_KPIRewarder_v2__ModuleCannotUseStakingTokenAsBond",
      "inputs": []
    },
    {
      "type": "error",
      "name": "Module__LM_PC_KPIRewarder_v2__NonExistentAssertionId",
      "inputs": [
        {
          "name": "assertionId",
          "type": "bytes32",
          "internalType": "bytes32"
        }
      ]
    },
    {
      "type": "error",
      "name": "Module__LM_PC_KPIRewarder_v2__UnresolvedAssertionExists",
      "inputs": []
    },
    {
      "type": "error",
      "name": "Module__LM_PC_Staking_v2__InvalidDuration",
      "inputs": []
    },
    {
      "type": "error",
      "name": "Module__LM_PC_Staking_v2__InvalidRewardRate",
      "inputs": []
    },
    {
      "type": "error",
      "name": "Module__LM_PC_Staking_v2__InvalidStakingToken",
      "inputs": []
    },
    {
      "type": "error",
      "name": "Module__OnlyCallableByOrchestrator",
      "inputs": []
    },
    {
      "type": "error",
      "name": "Module__OnlyCallableByPaymentClient",
      "inputs": []
    },
    {
      "type": "error",
      "name": "Module__OptimisticOracleIntegrator_InsufficientFundsToPayForBond",
      "inputs": []
    },
    {
      "type": "error",
      "name": "Module__OptimisticOracleIntegrator__CallerNotOO",
      "inputs": []
    },
    {
      "type": "error",
      "name": "Module__OptimisticOracleIntegrator__CurrencyBondTooLow",
      "inputs": []
    },
    {
      "type": "error",
      "name": "Module__OptimisticOracleIntegrator__InvalidDefaultCurrency",
      "inputs": []
    },
    {
      "type": "error",
      "name": "Module__OptimisticOracleIntegrator__InvalidDefaultLiveness",
      "inputs": []
    },
    {
      "type": "error",
      "name": "Module__OptimisticOracleIntegrator__InvalidOOInstance",
      "inputs": []
    },
    {
      "type": "error",
      "name": "NotInitializing",
      "inputs": []
    },
    {
      "type": "error",
      "name": "ReentrancyGuardReentrantCall",
      "inputs": []
    },
    {
      "type": "error",
      "name": "SafeERC20FailedOperation",
      "inputs": [
        {
          "name": "token",
          "type": "address",
          "internalType": "address"
        }
      ]
    }
  ],
  "bytecode": {
    "object": "0x60a060405234801562000010575f80fd5b505f6080526200001f62000025565b620000d9565b7ff0c57e16840df040f15088dc2f81fe391c3923bec73e23a9662efc9c229c6a00805468010000000000000000900460ff1615620000765760405163f92ee8a960e01b815260040160405180910390fd5b80546001600160401b0390811614620000d65780546001600160401b0319166001600160401b0390811782556040519081527fc7f505b2f371ae2175ee4913f4499e1f2633a7b5936321eed1cdaeb6115181d29060200160405180910390a15b50565b608051615e1a620000ef5f395f5050615e1a5ff3fe608060405234801561000f575f80fd5b506004361061035c575f3560e01c80637e1a3786116101c9578063b75d4e24116100fe578063c9582f201161009e578063e31ae42111610079578063e31ae42114610895578063f1b156b2146108a8578063f8b2cb4f146108bb578063ff96461b146108e3575f80fd5b8063c9582f2014610866578063d448a4ec1461087b578063d509b0171461088c575f80fd5b8063bf14d4a9116100d9578063bf14d4a91461080d578063bf5c325214610834578063c0231ff614610847578063c4e41b221461085e575f80fd5b8063b75d4e24146107b3578063bc7d2a33146107e7578063bcb61920146107fa575f80fd5b806393ee663b11610169578063a694fc3a11610144578063a694fc3a1461076a578063b33ec6181461077d578063b66a870c14610790578063b74795d9146107a3575f80fd5b806393ee663b146106fe578063956ae17b146107115780639f9106d114610759575f80fd5b80638608fc9e116101a45780638608fc9e1461060a5780638620612b1461061557806388302884146106285780638921a614146106eb575f80fd5b80637e1a3786146105e657806381d09517146105ee5780638333cb0614610601575f80fd5b806354f6127f1161029f5780636554139e1161023f57806375fa0b761161021a57806375fa0b76146105a1578063772fd8da146105b65780637998a1c4146105d65780637da0a877146105de575f80fd5b80636554139e1461057e5780636c67e807146105865780636cc7149d14610599575f80fd5b8063572b6c051161027a578063572b6c051461053257806359be48f21461054557806364e6bbe514610558578063654e51e71461056b575f80fd5b806354f6127f146104dc57806354fd4d50146105065780635600f04f1461052a575f80fd5b8063272bbd441161030a5780632e84db5f116102e55780632e84db5f1461048f578063372500ab146104b75780634a79d50c146104bf5780634c89867f146104d4575f80fd5b8063272bbd44146103f55780632a4e1904146104085780632e17de781461047c575f80fd5b80630f2bdef61161033a5780630f2bdef6146103ad57806320402e1d146103b557806324e30270146103e0575f80fd5b806301ffc9a71461036057806303269bda14610388578063074644e61461039a575b5f80fd5b61037361036e366004614ee1565b6108f6565b60405190151581526020015b60405180910390f35b606f545b60405190815260200161037f565b61038c6103a8366004614f1c565b61093b565b60705461038c565b60a7546103c8906001600160a01b031681565b6040516001600160a01b03909116815260200161037f565b6103f36103ee366004614fa0565b610b9c565b005b6103f3610403366004614fa0565b610df0565b61044b610416366004614fe8565b60ab6020525f90815260409020805460018201546002909201549091906001600160a01b03811690600160a01b900460ff1684565b60405161037f949392919093845260208401929092526001600160a01b031660408301521515606082015260800190565b6103f361048a366004614fe8565b610fbf565b61038c61049d366004614fff565b6001600160a01b03165f9081526039602052604090205490565b6103f36110d4565b6104c7611125565b60405161037f9190615067565b60715461038c565b6104ef6104ea366004614fe8565b6111b8565b60408051921515835260208301919091520161037f565b6001546002546003546040805193845260208401929092529082015260600161037f565b6104c76111fc565b610373610540366004614fff565b61120e565b6103f3610553366004615079565b61127a565b6103f3610566366004614fe8565b61132f565b6103f36105793660046150a3565b611414565b60de5461038c565b6103f36105943660046150c3565b611466565b603b5461038c565b6105a961166c565b60405161037f91906151e8565b6105c96105c4366004614fe8565b61175f565b60405161037f91906151fa565b61038c611877565b6103c86119cf565b606e5461038c565b6103f36105fc366004615267565b611a43565b61038c60a85481565b60e15460ff16610373565b61038c610623366004614fff565b611a94565b6106ad610636366004614fe8565b604080516080810182525f808252602082018190529181018290526060810191909152505f90815260ab6020908152604091829020825160808101845281548152600182015492810192909252600201546001600160a01b03811692820192909252600160a01b90910460ff161515606082015290565b60405161037f919081518152602080830151908201526040808301516001600160a01b03169082015260609182015115159181019190915260800190565b60a9546103c8906001600160a01b031681565b61038c61070c366004615282565b611aa6565b61072461071f366004614fe8565b611ebd565b60405161037f919081518152602080830151908201526040808301519082015260609182015115159181019190915260800190565b606c546001600160a01b03166103c8565b6103f3610778366004614fe8565b611f2f565b6103f361078b366004615079565b611fbd565b6103f361079e3660046153a2565b61201a565b5f546001600160a01b03166103c8565b60a9546107ce90600160a01b900467ffffffffffffffff1681565b60405167ffffffffffffffff909116815260200161037f565b61038c6107f536600461548d565b61217b565b6103f36108083660046150c3565b612432565b61038c7f351566c1ac6c6b0e5df4c16e81bc932aa8bf8cb9457b6e94847672b67f393cba81565b6103f3610842366004614fff565b612609565b61084f61265a565b60405161037f9392919061550a565b606d5461038c565b603a5460405160ff909116815260200161037f565b6103f3610889366004614fe8565b50565b61038c60aa5481565b6103f36108a3366004614fe8565b612b56565b6103f36108b636600461557b565b612d79565b61038c6108c9366004614fff565b6001600160a01b03165f9081526072602052604090205490565b61038c6108f13660046150a3565b613061565b5f6001600160e01b031982166303ddee7b60e41b148061092657506001600160e01b03198216633e07765760e01b145b80610935575061093582613102565b92915050565b5f7f351566c1ac6c6b0e5df4c16e81bc932aa8bf8cb9457b6e94847672b67f393cba610a4f5f8054906101000a90046001600160a01b03166001600160a01b031663d09edf316040518163ffffffff1660e01b8152600401602060405180830381865afa1580156109ae573d5f803e3d5ffd5b505050506040513d601f19601f820116820180604052508101906109d2919061559e565b60405163fdd5205f60e01b8152306004820152602481018490526001600160a01b03919091169063fdd5205f906044015b602060405180830381865afa158015610a1e573d5f803e3d5ffd5b505050506040513d601f19601f82011682018060405250810190610a4291906155b9565b610a4a613141565b613191565b60e15460ff1615610a7357604051633af931d560e01b815260040160405180910390fd5b6001600160a01b03841630148015610a9b5750606c5460a7546001600160a01b039081169116145b15610ab9576040516303afd3df60e31b815260040160405180910390fd5b60de541580610aca575060de548310155b15610ae8576040516359346a4360e11b815260040160405180910390fd5b610af3868686611aa6565b604080516080810182524280825260208083018a81528385018981525f6060860181815288825260e08552908790209551865591516001860155516002850155516003909301805460ff1916931515939093179092558251908152908101889052919350849184917f2f7b2bd564a62db13a01d975e329f0cd4b96b6e435fd4114d8e25ab72a349f43910160405180910390a35060e1805460ff19166001179055949350505050565b5f80546040805163d09edf3160e01b815290518693926001600160a01b03169163d09edf319160048083019260209291908290030181865afa158015610be4573d5f803e3d5ffd5b505050506040513d601f19601f82011682018060405250810190610c08919061559e565b60405163fdd5205f60e01b8152306004820152602481018490526001600160a01b03919091169063fdd5205f90604401602060405180830381865afa158015610c53573d5f803e3d5ffd5b505050506040513d601f19601f82011682018060405250810190610c7791906155b9565b9050610d1b5f8054906101000a90046001600160a01b03166001600160a01b031663d09edf316040518163ffffffff1660e01b8152600401602060405180830381865afa158015610cca573d5f803e3d5ffd5b505050506040513d601f19601f82011682018060405250810190610cee919061559e565b6001600160a01b031663248a9ca3836040518263ffffffff1660e01b8152600401610a0391815260200190565b5f8054906101000a90046001600160a01b03166001600160a01b031663d09edf316040518163ffffffff1660e01b8152600401602060405180830381865afa158015610d69573d5f803e3d5ffd5b505050506040513d601f19601f82011682018060405250810190610d8d919061559e565b6001600160a01b0316637d540a648686866040518463ffffffff1660e01b8152600401610dbc939291906155d0565b5f604051808303815f87803b158015610dd3575f80fd5b505af1158015610de5573d5f803e3d5ffd5b505050505050505050565b5f80546040805163d09edf3160e01b815290518693926001600160a01b03169163d09edf319160048083019260209291908290030181865afa158015610e38573d5f803e3d5ffd5b505050506040513d601f19601f82011682018060405250810190610e5c919061559e565b60405163fdd5205f60e01b8152306004820152602481018490526001600160a01b03919091169063fdd5205f90604401602060405180830381865afa158015610ea7573d5f803e3d5ffd5b505050506040513d601f19601f82011682018060405250810190610ecb91906155b9565b9050610f1e5f8054906101000a90046001600160a01b03166001600160a01b031663d09edf316040518163ffffffff1660e01b8152600401602060405180830381865afa158015610cca573d5f803e3d5ffd5b5f8054906101000a90046001600160a01b03166001600160a01b031663d09edf316040518163ffffffff1660e01b8152600401602060405180830381865afa158015610f6c573d5f803e3d5ffd5b505050506040513d601f19601f82011682018060405250810190610f90919061559e565b6001600160a01b031663648154538686866040518463ffffffff1660e01b8152600401610dbc939291906155d0565b610fc76132a3565b80610fd1816132ed565b5f610fda613141565b9050610fe58161330d565b6001600160a01b0381165f908152607260205260408120805485929061100c90849061563b565b9250508190555082606d5f828254611024919061563b565b9091555050606c54611040906001600160a01b031682856133c8565b6001600160a01b0381165f9081526074602052604090205415611066576110668161342c565b806001600160a01b03167f0f5bb82176feb1b5e747e28471aa92156a04d9f3ab9f45f28e2d704232b93f75846040516110a191815260200190565b60405180910390a2505061088960017f9b779b17422d0df92223018b32b4d1fa46e071723d6817e2486d003becc55f0055565b6110dc6132a3565b5f6110e5613141565b90506110f08161330d565b6110f98161342c565b5061112360017f9b779b17422d0df92223018b32b4d1fa46e071723d6817e2486d003becc55f0055565b565b6060600160040180546111379061564e565b80601f01602080910402602001604051908101604052809291908181526020018280546111639061564e565b80156111ae5780601f10611185576101008083540402835291602001916111ae565b820191905f5260205f20905b81548152906001019060200180831161119157829003601f168201915b5050505050905090565b5f81815260ab60205260408120600201548190600160a01b900460ff166111e357505f928392509050565b50505f90815260ab602052604090206001908101549091565b6060600160030180546111379061564e565b5f805460405163572b6c0560e01b81526001600160a01b0384811660048301529091169063572b6c0590602401602060405180830381865afa158015611256573d5f803e3d5ffd5b505050506040513d601f19601f820116820180604052508101906109359190615696565b5f546040805163d09edf3160e01b81529051611321926001600160a01b03169163d09edf319160048083019260209291908290030181865afa1580156112c2573d5f803e3d5ffd5b505050506040513d601f19601f820116820180604052508101906112e6919061559e565b6001600160a01b031663b3ecf2366040518163ffffffff1660e01b8152600401602060405180830381865afa158015610a1e573d5f803e3d5ffd5b61132b82826136a0565b5050565b5f546040805163d09edf3160e01b81529051611377926001600160a01b03169163d09edf319160048083019260209291908290030181865afa1580156112c2573d5f803e3d5ffd5b61137f6132a3565b80611389816132ed565b6113a8611394613141565b60a7546001600160a01b0316903085613779565b60a7546040518381526001600160a01b03909116907f643b1bd5b160e780fef319c0a18a3535edb10da7f7136320b2935bb6f1a9f6059060200160405180910390a25061088960017f9b779b17422d0df92223018b32b4d1fa46e071723d6817e2486d003becc55f0055565b5f546040805163d09edf3160e01b8152905161145c926001600160a01b03169163d09edf319160048083019260209291908290030181865afa1580156112c2573d5f803e3d5ffd5b61132b82826137b8565b5f80546040805163d09edf3160e01b815290518593926001600160a01b03169163d09edf319160048083019260209291908290030181865afa1580156114ae573d5f803e3d5ffd5b505050506040513d601f19601f820116820180604052508101906114d2919061559e565b60405163fdd5205f60e01b8152306004820152602481018490526001600160a01b03919091169063fdd5205f90604401602060405180830381865afa15801561151d573d5f803e3d5ffd5b505050506040513d601f19601f8201168201806040525081019061154191906155b9565b90506115945f8054906101000a90046001600160a01b03166001600160a01b031663d09edf316040518163ffffffff1660e01b8152600401602060405180830381865afa158015610cca573d5f803e3d5ffd5b5f8054906101000a90046001600160a01b03166001600160a01b031663d09edf316040518163ffffffff1660e01b8152600401602060405180830381865afa1580156115e2573d5f803e3d5ffd5b505050506040513d601f19601f82011682018060405250810190611606919061559e565b60405163385e205560e21b8152600481018690526001600160a01b038581166024830152919091169063e1788154906044015b5f604051808303815f87803b158015611650575f80fd5b505af1158015611662573d5f803e3d5ffd5b5050505050505050565b60606038805480602002602001604051908101604052809291908181526020015f905b82821015611756575f8481526020908190206040805160e0810182526007860290920180546001600160a01b039081168452600182015416838501526002810154838301526003810154606084015260048101546080840152600581015460a08401526006810180548351818702810187019094528084529394919360c08601939283018282801561173e57602002820191905f5260205f20905b81548152602001906001019080831161172a575b5050505050815250508152602001906001019061168f565b50505050905090565b6117906040518060a001604052805f81526020015f81526020015f1515815260200160608152602001606081525090565b5f82815260df6020908152604091829020825160a08101845281548152600182015481840152600282015460ff16151581850152600382018054855181860281018601909652808652919492936060860193929083018282801561181157602002820191905f5260205f20905b8154815260200190600101908083116117fd575b505050505081526020016004820180548060200260200160405190810160405280929190818152602001828054801561186757602002820191905f5260205f20905b815481526020019060010190808311611853575b5050505050815250509050919050565b5f6119ca60016040518060a00160405290815f820154815260200160018201548152602001600282015481526020016003820180546118b59061564e565b80601f01602080910402602001604051908101604052809291908181526020018280546118e19061564e565b801561192c5780601f106119035761010080835404028352916020019161192c565b820191905f5260205f20905b81548152906001019060200180831161190f57829003601f168201915b505050505081526020016004820180546119459061564e565b80601f01602080910402602001604051908101604052809291908181526020018280546119719061564e565b80156119bc5780601f10611993576101008083540402835291602001916119bc565b820191905f5260205f20905b81548152906001019060200180831161199f57829003601f168201915b5050505050815250506138b0565b905090565b5f805f9054906101000a90046001600160a01b03166001600160a01b0316637da0a8776040518163ffffffff1660e01b8152600401602060405180830381865afa158015611a1f573d5f803e3d5ffd5b505050506040513d601f19601f820116820180604052508101906119ca919061559e565b5f546040805163d09edf3160e01b81529051611a8b926001600160a01b03169163d09edf319160048083019260209291908290030181865afa1580156112c2573d5f803e3d5ffd5b610889816138ee565b5f61093582611aa161395d565b6139c3565b5f7f351566c1ac6c6b0e5df4c16e81bc932aa8bf8cb9457b6e94847672b67f393cba611b195f8054906101000a90046001600160a01b03166001600160a01b031663d09edf316040518163ffffffff1660e01b8152600401602060405180830381865afa1580156109ae573d5f803e3d5ffd5b6001600160a01b03831615611b2e5782611b36565b611b36613141565b9250306001600160a01b03841603611bd95760a85460a7546040516370a0823160e01b81523060048201526001600160a01b03909116906370a0823190602401602060405180830381865afa158015611b91573d5f803e3d5ffd5b505050506040513d601f19601f82011682018060405250810190611bb591906155b9565b1015611bd457604051635ad9961b60e01b815260040160405180910390fd5b611ce1565b60a75460a854604080516001600160a01b03878116602483015230604483015260648083019490945282518083039094018452608490910182526020830180516001600160e01b03166323b872dd60e01b17905290515f938493921691611c3f916156d7565b5f604051808303815f865af19150503d805f8114611c78576040519150601f19603f3d011682016040523d82523d5f602084013e611c7d565b606091505b5091509150811580611cab57505f8151118015611cab575080806020019051810190611ca99190615696565b155b80611cc0575060a7546001600160a01b03163b155b15611cde57604051635ad9961b60e01b815260040160405180910390fd5b50505b60a95460a85460a754611d02926001600160a01b0391821692911690613a31565b60a9546001600160a01b0316636457c979611d1c86613ab8565b611d2588613ab8565b611d2e87613af9565b611d3742613b71565b611d4030613af9565b604051602001611d549594939291906156f2565b60408051808303601f190181529082905260a95460a75460a85460aa5460e087901b6001600160e01b0319168652611db5958b9430945f94600160a01b90920467ffffffffffffffff16936001600160a01b0390911692859060040161584f565b6020604051808303815f875af1158015611dd1573d5f803e3d5ffd5b505050506040513d601f19601f82011682018060405250810190611df591906155b9565b6040805160808101825287815260208082018881526001600160a01b038089168486018181525f6060870181815289825260ab909652879020955186559251600186015591516002909401805493511515600160a01b0274ffffffffffffffffffffffffffffffffffffffffff199094169490911693909317919091179091559051919350839187907f29ae27364abd65b112ad0ac18e7e4f97360c20afa9636864dc91195d4d9204ec90611ead9089815260200190565b60405180910390a4509392505050565b611ee660405180608001604052805f81526020015f81526020015f81526020015f151581525090565b505f90815260e0602090815260409182902082516080810184528154815260018201549281019290925260028101549282019290925260039091015460ff161515606082015290565b611f376132a3565b80611f41816132ed565b60e15460ff1615611f655760405163183b73cd60e31b815260040160405180910390fd5b5f611f6e613141565b9050611f7a8184613caf565b606c54611f92906001600160a01b0316823086613779565b505061088960017f9b779b17422d0df92223018b32b4d1fa46e071723d6817e2486d003becc55f0055565b611fcd611fc8613141565b613d65565b611fea5760405163e4597a6b60e01b815260040160405180910390fd5b6001600160a01b0382165f908152603960205260408120805483929061201190849061563b565b90915550505050565b7ff0c57e16840df040f15088dc2f81fe391c3923bec73e23a9662efc9c229c6a00805468010000000000000000810460ff16159067ffffffffffffffff165f811580156120645750825b90505f8267ffffffffffffffff1660011480156120805750303b155b90508115801561208e575080155b156120ac5760405163f92ee8a960e01b815260040160405180910390fd5b845467ffffffffffffffff1916600117855583156120e057845468ff00000000000000001916680100000000000000001785555b6120ea8888613de2565b5f805f805f8a80602001905181019061210391906158c7565b9450945094509450945061211685613ecf565b61212284848484613ee0565b5050505050831561166257845468ff000000000000000019168555604051600181527fc7f505b2f371ae2175ee4913f4499e1f2633a7b5936321eed1cdaeb6115181d29060200160405180910390a15050505050505050565b5f80546040805163d09edf3160e01b815290516121c4926001600160a01b03169163d09edf319160048083019260209291908290030181865afa1580156112c2573d5f803e3d5ffd5b8360018110806121d45750601481115b156121f25760405163694570fb60e11b815260040160405180910390fd5b80831461221257604051630965d70d60e11b815260040160405180910390fd5b5f84845f8181106122255761222561592e565b90506020020135905060018211156122ce5760015b828110156122cc578787828181106122545761225461592e565b90506020020135888860018461226a919061563b565b8181106122795761227961592e565b905060200201351061229e5760405163e60d570f60e01b815260040160405180910390fd5b8585828181106122b0576122b061592e565b90506020020135826122c29190615942565b915060010161223a565b505b5f60de5490506040518060a001604052808481526020018381526020018a151581526020018989808060200260200160405190810160405280939291908181526020018383602002808284375f9201919091525050509082525060408051602089810282810182019093528982529283019290918a918a9182918501908490808284375f92018290525093909452505083815260df6020908152604091829020845181558482015160018201559184015160028301805460ff1916911515919091179055606084015180519293506123af9260038501929190910190614df5565b50608082015180516123cb916004840191602090910190614df5565b505060de805491505f6123dd83615955565b9190505550807fc1063bd63d477506eb51343042d915c0d3377b74bb787bc0f4d255ca1a7039b684848c8c8c8c8c60405161241e97969594939291906159b6565b60405180910390a298975050505050505050565b5f80546040805163d09edf3160e01b815290518593926001600160a01b03169163d09edf319160048083019260209291908290030181865afa15801561247a573d5f803e3d5ffd5b505050506040513d601f19601f8201168201806040525081019061249e919061559e565b60405163fdd5205f60e01b8152306004820152602481018490526001600160a01b03919091169063fdd5205f90604401602060405180830381865afa1580156124e9573d5f803e3d5ffd5b505050506040513d601f19601f8201168201806040525081019061250d91906155b9565b90506125605f8054906101000a90046001600160a01b03166001600160a01b031663d09edf316040518163ffffffff1660e01b8152600401602060405180830381865afa158015610cca573d5f803e3d5ffd5b5f8054906101000a90046001600160a01b03166001600160a01b031663d09edf316040518163ffffffff1660e01b8152600401602060405180830381865afa1580156125ae573d5f803e3d5ffd5b505050506040513d601f19601f820116820180604052508101906125d2919061559e565b604051632e99be7f60e21b8152600481018690526001600160a01b038581166024830152919091169063ba66f9fc90604401611639565b5f546040805163d09edf3160e01b81529051612651926001600160a01b03169163d09edf319160048083019260209291908290030181865afa1580156112c2573d5f803e3d5ffd5b61088981613f04565b606080606061266a611fc8613141565b6126875760405163e4597a6b60e01b815260040160405180910390fd5b6038545f808267ffffffffffffffff8111156126a5576126a56152b8565b6040519080825280602002602001820160405280156126ce578160200160208202803683370190505b5090505f8367ffffffffffffffff8111156126eb576126eb6152b8565b604051908082528060200260200182016040528015612714578160200160208202803683370190505b5090508367ffffffffffffffff811115612730576127306152b8565b6040519080825280602002602001820160405280156127b057816020015b61279d6040518060e001604052805f6001600160a01b031681526020015f6001600160a01b031681526020015f81526020015f81526020015f81526020015f8019168152602001606081525090565b81526020019060019003908161274e5790505b5096505f5b848110156129d457603881815481106127d0576127d061592e565b5f9182526020918290206040805160e081018252600790930290910180546001600160a01b039081168452600182015416838501526002810154838301526003810154606084015260048101546080840152600581015460a08401526006810180548351818702810187019094528084529394919360c08601939283018282801561287857602002820191905f5260205f20905b815481526020019060010190808311612864575b5050505050815250508882815181106128935761289361592e565b60200260200101819052505f805b85811015612909578983815181106128bb576128bb61592e565b6020026020010151602001516001600160a01b03168582815181106128e2576128e261592e565b60200260200101516001600160a01b0316036129015760019150612909565b6001016128a1565b50806129cb578882815181106129215761292161592e565b60200260200101516020015184868151811061293f5761293f61592e565b60200260200101906001600160a01b031690816001600160a01b03168152505060395f8a84815181106129745761297461592e565b6020026020010151602001516001600160a01b03166001600160a01b031681526020019081526020015f20548386815181106129b2576129b261592e565b6020908102919091010152846129c781615955565b9550505b506001016127b5565b506129e060385f614e3e565b8267ffffffffffffffff8111156129f9576129f96152b8565b604051908082528060200260200182016040528015612a22578160200160208202803683370190505b5095508267ffffffffffffffff811115612a3e57612a3e6152b8565b604051908082528060200260200182016040528015612a67578160200160208202803683370190505b5094505f5b83811015612b4c57828181518110612a8657612a8661592e565b6020026020010151878281518110612aa057612aa061592e565b60200260200101906001600160a01b031690816001600160a01b031681525050818181518110612ad257612ad261592e565b6020026020010151868281518110612aec57612aec61592e565b602002602001018181525050612b22612b03613141565b888381518110612b1557612b1561592e565b6020026020010151613fac565b612b44878281518110612b3757612b3761592e565b6020026020010151613fd0565b600101612a6c565b5050505050909192565b5f546040805163d09edf3160e01b81529051612b9e926001600160a01b03169163d09edf319160048083019260209291908290030181865afa1580156112c2573d5f803e3d5ffd5b5f81815260ab6020526040902054612bd157604051637ec52b2b60e11b8152600481018290526024015b60405180910390fd5b60a95460405163220c0a2160e21b8152600481018390525f916001600160a01b03169063883028849060240161020060405180830381865afa158015612c19573d5f803e3d5ffd5b505050506040513d601f19601f82011682018060405250810190612c3d9190615a77565b60a0015167ffffffffffffffff169050804211612c7057604051637cdadccf60e01b815260048101839052602401612bc8565b60a954604051634124beef60e01b8152600481018490526001600160a01b0390911690634124beef906024015f604051808303815f87803b158015612cb3575f80fd5b505af1925050508015612cc4575060015b612d5d575f82815260e060209081526040808320838155600180820185905560028083018690556003909201805460ff1990811690915560ab90945282852085815590810185905501805474ffffffffffffffffffffffffffffffffffffffffff1916905560e180549092169091555183917fcd1f3eba521c46676cab303c79c9a68595d6f3efd65761b2588af919b7b2885b91a25050565b604051637cdadccf60e01b815260048101839052602401612bc8565b5f82815260ab6020526040902054612da757604051637ec52b2b60e11b815260048101839052602401612bc8565b612db18282614246565b8015613028575f82815260e060209081526040808320600290810154845260df8352818420825160a081018452815481526001820154818601529181015460ff161515828401526003810180548451818702810187019095528085529294919360608601939092830182828015612e4557602002820191905f5260205f20905b815481526020019060010190808311612e31575b5050505050815260200160048201805480602002602001604051908101604052809291908181526020018280548015612e9b57602002820191905f5260205f20905b815481526020019060010190808311612e87575b50505050508152505090505f805b8251811015612ffa575f85815260e060205260409020600101546060840151805183908110612eda57612eda61592e565b602002602001015111612f175782608001518181518110612efd57612efd61592e565b602002602001015182612f109190615942565b9150612ff2565b826040015115612fed575f83608001518281518110612f3857612f3861592e565b602002602001015190505f825f14612f77576060850151612f5a60018561563b565b81518110612f6a57612f6a61592e565b6020026020010151612f79565b5f5b5f88815260e0602052604081206001015491925090612f9990839061563b565b90505f8287606001518681518110612fb357612fb361592e565b6020026020010151612fc5919061563b565b905080612fd28584615b55565b612fdc9190615b80565b612fe69087615942565b9550505050505b612ffa565b600101612ea9565b506130068160016137b8565b50505f82815260e060205260409020600301805460ff19166001179055613053565b5f82815260e060205260408120818155600181018290556002810191909155600301805460ff191690555b505060e1805460ff19169055565b5f8261306c816132ed565b8261307681614391565b606f54421115613088575f92506130fa565b606f546130958542615942565b11156130ac5742606f546130a9919061563b565b93505b606d545f036130d357606e546130c28587615b55565b6130cc9190615b55565b92506130fa565b606d54606e546130e38688615b55565b6130ed9190615b55565b6130f79190615b80565b92505b505092915050565b5f6001600160e01b0319821663281ab37760e01b148061313257506001600160e01b031982166312fcf92f60e11b145b806109355750610935826143b1565b5f36601461314e3361120e565b801561315a5750808210155b15613189575f3661316b838561563b565b613176928290615b9f565b61317f91615bc6565b60601c9250505090565b339250505090565b5f8054906101000a90046001600160a01b03166001600160a01b031663d09edf316040518163ffffffff1660e01b8152600401602060405180830381865afa1580156131df573d5f803e3d5ffd5b505050506040513d601f19601f82011682018060405250810190613203919061559e565b60405163a883867d60e01b8152600481018490526001600160a01b038381166024830152919091169063a883867d90604401602060405180830381865afa158015613250573d5f803e3d5ffd5b505050506040513d601f19601f820116820180604052508101906132749190615696565b61132b576040516342abbb7760e01b8152600481018390526001600160a01b0382166024820152604401612bc8565b7f9b779b17422d0df92223018b32b4d1fa46e071723d6817e2486d003becc55f008054600119016132e757604051633ee5aeb560e01b815260040160405180910390fd5b60029055565b805f03610889576040516351cd1a8760e11b815260040160405180910390fd5b5f61331661395d565b607081905590505f6133266143d5565b607181905590505f6001600160a01b0384161561337557613349846070546139c3565b6001600160a01b0385165f90815260746020908152604080832084905560705460739092529091205590505b60408051848152602081018490529081018290526001600160a01b038516907fa970b12b7ab9d055296c48cc861cf24cf1b06100b204a5a3a32d9208ca06cc91906060015b60405180910390a250505050565b6040516001600160a01b0383811660248301526044820183905261342791859182169063a9059cbb906064015b604051602081830303815290604052915060e01b6020820180516001600160e01b0383818316178352505050506143ec565b505050565b6001600160a01b0381165f908152607460205260408120805490829055908061347e81604051908082528060200260200182016040528015613478578160200160208202803683370190505b5061444d565b9150915061359d6040518060e00160405280866001600160a01b031681526020016134b05f546001600160a01b031690565b6001600160a01b03166304baed9e6040518163ffffffff1660e01b8152600401602060405180830381865afa1580156134eb573d5f803e3d5ffd5b505050506040513d601f19601f8201168201806040525081019061350f919061559e565b6001600160a01b031663fc0c546a6040518163ffffffff1660e01b8152600401602060405180830381865afa15801561354a573d5f803e3d5ffd5b505050506040513d601f19601f8201168201806040525081019061356e919061559e565b6001600160a01b0316815260200185815260200146815260200146815260200184815260200183815250614490565b5f8054906101000a90046001600160a01b03166001600160a01b031663f1c6bdf86040518163ffffffff1660e01b8152600401602060405180830381865afa1580156135eb573d5f803e3d5ffd5b505050506040513d601f19601f8201168201806040525081019061360f919061559e565b60405163e151fc6160e01b81523060048201526001600160a01b03919091169063e151fc61906024015f604051808303815f87803b15801561364f575f80fd5b505af1158015613661573d5f803e3d5ffd5b50505050836001600160a01b03167fdf29796aad820e4bb192f3a8d631b76519bcd2cbe77cc85af20e9df53cece086846040516133ba91815260200190565b6001600160a01b0382166136c757604051630d03dd3d60e01b815260040160405180910390fd5b60a954604051634360af3d60e01b81526001600160a01b03848116600483015290911690634360af3d90602401602060405180830381865afa15801561370f573d5f803e3d5ffd5b505050506040513d601f19601f8201168201806040525081019061373391906155b9565b81101561375357604051634c79406b60e01b815260040160405180910390fd5b60a780546001600160a01b0319166001600160a01b03939093169290921790915560a855565b6040516001600160a01b0384811660248301528381166044830152606482018390526137b29186918216906323b872dd906084016133f5565b50505050565b816137c2816132ed565b816137cc81614391565b6137d55f61330d565b606f5442106137f0576137e88385615b80565b606e55613828565b5f606e5442606f54613802919061563b565b61380c9190615b55565b9050836138198287615942565b6138239190615b80565b606e55505b606e545f0361384a5760405163a771e08160e01b815260040160405180910390fd5b6138548342615942565b606f81905542607155606e5460408051878152602081018790529081019190915260608101919091527fe6ff9e5909ab32d770b5c8e779b77275ca8dda9d96cfb24d0287d80715dd02969060800160405180910390a150505050565b5f815f0151826060015183608001516040516020016138d193929190615bf9565b604051602081830303815290604052805190602001209050919050565b6154608167ffffffffffffffff16101561391b57604051634f0d3f4960e01b815260040160405180910390fd5b60a9805467ffffffffffffffff909216600160a01b027fffffffff0000000000000000ffffffffffffffffffffffffffffffffffffffff909216919091179055565b5f606d545f0361396e575060705490565b607054606d54606e546071546139826143d5565b61398c919061563b565b6139969190615b55565b6139af906ec097ce7bc90715b34b9f1000000000615b55565b6139b99190615b80565b6119ca9190615942565b6001600160a01b0382165f90815260746020908152604080832054607283528184205460739093529083205490916ec097ce7bc90715b34b9f100000000091613a0c908661563b565b613a169190615b55565b613a209190615b80565b613a2a9190615942565b9392505050565b604051636eb1769f60e11b81523060048201526001600160a01b0383811660248301525f919085169063dd62ed3e90604401602060405180830381865afa158015613a7e573d5f803e3d5ffd5b505050506040513d601f19601f82011682018060405250810190613aa291906155b9565b90506137b28484613ab38585615942565b6146b7565b6060613ac7608083901c614746565b613ad083614746565b6040805160208101939093528201526060015b6040516020818303038152906040529050919050565b6060613b1a6fffffffffffffffffffffffffffffffff602084901c16614746565b613b358360601b6bffffffffffffffffffffffff1916614746565b604051602001613ae39291909182527fffffffffffffffff00000000000000000000000000000000000000000000000016602082015260280190565b6060815f03613b975750506040805180820190915260018152600360fc1b602082015290565b815f5b8115613bc05780613baa81615955565b9150613bb99050600a83615b80565b9150613b9a565b5f8167ffffffffffffffff811115613bda57613bda6152b8565b6040519080825280601f01601f191660200182016040528015613c04576020820181803683370190505b509050815b8515613ca657613c1a60018261563b565b90505f613c28600a88615b80565b613c3390600a615b55565b613c3d908861563b565b613c48906030615c23565b90505f8160f81b905080848481518110613c6457613c6461592e565b60200101907effffffffffffffffffffffffffffffffffffffffffffffffffffffffffffff191690815f1a905350613c9d600a89615b80565b97505050613c09565b50949350505050565b613cb88261330d565b6001600160a01b0382165f9081526074602052604090205415613cde57613cde8261342c565b6001600160a01b0382165f9081526072602052604081208054839290613d05908490615942565b9250508190555080606d5f828254613d1d9190615942565b90915550506040518181526001600160a01b038316907f9e71bc8eea02a63969f509818f2dafb9254532904319f9dbda79b67bd34a5f3d906020015b60405180910390a25050565b5f805460408051631e38d7bf60e31b815290516001600160a01b0380861693169163f1c6bdf89160048083019260209291908290030181865afa158015613dae573d5f803e3d5ffd5b505050506040513d601f19601f82011682018060405250810190613dd2919061559e565b6001600160a01b03161492915050565b613dea6148e5565b6001600160a01b038216613e1157604051637280679360e01b815260040160405180910390fd5b5f80546001600160a01b0319166001600160a01b038416179055613e3481614933565b613e5157604051637511254160e01b815260040160405180910390fd5b80516001908155602082015160025560408201516003556060820151829190600490613e7d9082615c87565b5060808201516004820190613e929082615c87565b50905050816001600160a01b03167fd5f3f84c2e1816ce290af84d002663800b02f2985d770cdd335de76fd723b73082604051613d599190615d47565b613ed76148e5565b6108898161498d565b613ee86148e5565b613ef182613f04565b613efa816138ee565b6137b284846136a0565b6001600160a01b038116613f2b576040516321ea035160e21b815260040160405180910390fd5b60a980546001600160a01b0319166001600160a01b0383169081179091556040805163d509b01760e01b8152905163d509b017916004808201926020929091908290030181865afa158015613f82573d5f803e3d5ffd5b505050506040513d601f19601f82011682018060405250810190613fa691906155b9565b60aa5550565b6001600160a01b0381165f8181526039602052604090205461132b919084906146b7565b6001600160a01b0381165f818152603960205260408082205490516370a0823160e01b81523060048201529092906370a0823190602401602060405180830381865afa158015614022573d5f803e3d5ffd5b505050506040513d601f19601f8201168201806040525081019061404691906155b9565b905081811015613427575f8054906101000a90046001600160a01b03166001600160a01b03166304baed9e6040518163ffffffff1660e01b8152600401602060405180830381865afa15801561409e573d5f803e3d5ffd5b505050506040513d601f19601f820116820180604052508101906140c2919061559e565b6001600160a01b031663fc0c546a6040518163ffffffff1660e01b8152600401602060405180830381865afa1580156140fd573d5f803e3d5ffd5b505050506040513d601f19601f82011682018060405250810190614121919061559e565b6001600160a01b0316836001600160a01b031603614222575f8054906101000a90046001600160a01b03166001600160a01b03166304baed9e6040518163ffffffff1660e01b8152600401602060405180830381865afa158015614187573d5f803e3d5ffd5b505050506040513d601f19601f820116820180604052508101906141ab919061559e565b6001600160a01b031663759cc4b5306141c4848661563b565b6040516001600160e01b031960e085901b1681526001600160a01b03909216600483015260248201526044015f604051808303815f87803b158015614207575f80fd5b505af1158015614219573d5f803e3d5ffd5b50505050505050565b6040516346511acb60e11b81526001600160a01b0384166004820152602401612bc8565b60a9546001600160a01b031661425a613141565b6001600160a01b031614614281576040516311b77b4360e11b815260040160405180910390fd5b5f82815260ab60209081526040918290208251608081018452815480825260018301548285018190526002909301546001600160a01b038116838701819052600160a01b90910460ff16151560608401528551871515815294850193909352909386937f557deaca39aedd0a84876c0dcbcb715b9b68641286033d7e79a274bdfe8d8a40910160405180910390a48115614356575f83815260ab6020526040902060020180547fffffffffffffffffffffff00ffffffffffffffffffffffffffffffffffffffff16600160a01b179055505050565b50505f90815260ab602052604081208181556001810191909155600201805474ffffffffffffffffffffffffffffffffffffffffff19169055565b805f036108895760405163f65f433b60e01b815260040160405180910390fd5b5f6001600160e01b03198216633e07765760e01b1480610935575061093582614ae3565b5f42606f5411156143e557504290565b50606f5490565b5f6144006001600160a01b03841683614b07565b905080515f141580156144245750808060200190518101906144229190615696565b155b1561342757604051635274afe760e01b81526001600160a01b0384166004820152602401612bc8565b8051603a545f9160609160ff161461448857603a548351604051630bf3089f60e11b815260ff90921660048301526024820152604401612bc8565b5050603b5491565b8061449a81614b14565b816040015160395f84602001516001600160a01b03166001600160a01b031681526020019081526020015f205f8282546144d49190615942565b9091555050603880546001810182555f9190915282517f38395c5dceade9603479b177b68959049485df8aa97b39f3533039af5f456199600790920291820180546001600160a01b03199081166001600160a01b039384161782556020808701517f38395c5dceade9603479b177b68959049485df8aa97b39f3533039af5f45619a86018054909316941693909317905560408501517f38395c5dceade9603479b177b68959049485df8aa97b39f3533039af5f45619b84015560608501517f38395c5dceade9603479b177b68959049485df8aa97b39f3533039af5f45619c84015560808501517f38395c5dceade9603479b177b68959049485df8aa97b39f3533039af5f45619d84015560a08501517f38395c5dceade9603479b177b68959049485df8aa97b39f3533039af5f45619e84015560c0850151805186949293614642937f38395c5dceade9603479b177b68959049485df8aa97b39f3533039af5f45619f01920190614df5565b50505081602001516001600160a01b0316825f01516001600160a01b03167ff7c0c50e520bf64576a9482cc54780006390b90cee6a1c0bde1adaeb9c0f02f68460400151856060015186608001518760a001518860c001516040516146ab959493929190615d9d565b60405180910390a35050565b604080516001600160a01b038416602482015260448082018490528251808303909101815260649091019091526020810180516001600160e01b031663095ea7b360e01b1790526147088482614c06565b6137b2576040516001600160a01b0384811660248301525f604483015261473c91869182169063095ea7b3906064016133f5565b6137b284826143ec565b5f80825f1c9050806fffffffffffffffffffffffffffffffff169050806801000000000000000002811777ffffffffffffffff0000000000000000ffffffffffffffff169050806401000000000281177bffffffff00000000ffffffff00000000ffffffff00000000ffffffff16905080620100000281177dffff0000ffff0000ffff0000ffff0000ffff0000ffff0000ffff0000ffff169050806101000281177eff00ff00ff00ff00ff00ff00ff00ff00ff00ff00ff00ff00ff00ff00ff00ff1690508060100281177f0f0f0f0f0f0f0f0f0f0f0f0f0f0f0f0f0f0f0f0f0f0f0f0f0f0f0f0f0f0f0f0f1690505f6008827f0808080808080808080808080808080808080808080808080808080808080808168161486757614867615b6c565b0460047f040404040404040404040404040404040404040404040404040404040404040484160460027f020202020202020202020202020202020202020202020202020202020202020285160417166027029091017f3030303030303030303030303030303030303030303030303030303030303030019392505050565b7ff0c57e16840df040f15088dc2f81fe391c3923bec73e23a9662efc9c229c6a005468010000000000000000900460ff1661112357604051631afcd79f60e31b815260040160405180910390fd5b5f8160600151515f0361494757505f919050565b8160800151515f0361495a57505f919050565b815115801561496b57506020820151155b801561497957506040820151155b1561498557505f919050565b506001919050565b6001600160a01b0381161580614a7c57505f546001600160a01b03166001600160a01b03166304baed9e6040518163ffffffff1660e01b8152600401602060405180830381865afa1580156149e4573d5f803e3d5ffd5b505050506040513d601f19601f82011682018060405250810190614a08919061559e565b6001600160a01b031663fc0c546a6040518163ffffffff1660e01b8152600401602060405180830381865afa158015614a43573d5f803e3d5ffd5b505050506040513d601f19601f82011682018060405250810190614a67919061559e565b6001600160a01b0316816001600160a01b0316145b15614a9a5760405163017e6d2d60e41b815260040160405180910390fd5b606c80546001600160a01b0319166001600160a01b0383169081179091556040517f9904a32444ae0eb0bae2045baf588aa248f03f4fef600c18afd1d7e751614af8905f90a250565b5f6001600160e01b031982166346fe193d60e11b1480610935575061093582614ca3565b6060613a2a83835f614cd7565b5f546001600160a01b03166001600160a01b031663f1c6bdf86040518163ffffffff1660e01b8152600401602060405180830381865afa158015614b5a573d5f803e3d5ffd5b505050506040513d601f19601f82011682018060405250810190614b7e919061559e565b6001600160a01b031663f7698285826040518263ffffffff1660e01b8152600401614ba99190615dd2565b6020604051808303815f875af1158015614bc5573d5f803e3d5ffd5b505050506040513d601f19601f82011682018060405250810190614be99190615696565b6108895760405163349a262760e01b815260040160405180910390fd5b5f805f846001600160a01b031684604051614c2191906156d7565b5f604051808303815f865af19150503d805f8114614c5a576040519150601f19603f3d011682016040523d82523d5f602084013e614c5f565b606091505b5091509150818015614c89575080511580614c89575080806020019051810190614c899190615696565b80156130f75750505050506001600160a01b03163b151590565b5f6001600160e01b0319821663e328951160e01b148061093557506301ffc9a760e01b6001600160e01b0319831614610935565b606081471015614cfc5760405163cd78605960e01b8152306004820152602401612bc8565b5f80856001600160a01b03168486604051614d1791906156d7565b5f6040518083038185875af1925050503d805f8114614d51576040519150601f19603f3d011682016040523d82523d5f602084013e614d56565b606091505b5091509150614d66868383614d70565b9695505050505050565b606082614d8557614d8082614dcc565b613a2a565b8151158015614d9c57506001600160a01b0384163b155b15614dc557604051639996b31560e01b81526001600160a01b0385166004820152602401612bc8565b5080613a2a565b805115614ddc5780518082602001fd5b604051630a12f52160e11b815260040160405180910390fd5b828054828255905f5260205f20908101928215614e2e579160200282015b82811115614e2e578251825591602001919060010190614e13565b50614e3a929150614e5c565b5090565b5080545f8255600702905f5260205f20908101906108899190614e70565b5b80821115614e3a575f8155600101614e5d565b80821115614e3a5780546001600160a01b0319908116825560018201805490911690555f60028201819055600382018190556004820181905560058201819055614ebd6006830182614ec6565b50600701614e70565b5080545f8255905f5260205f20908101906108899190614e5c565b5f60208284031215614ef1575f80fd5b81356001600160e01b031981168114613a2a575f80fd5b6001600160a01b0381168114610889575f80fd5b5f805f8060808587031215614f2f575f80fd5b84359350602085013592506040850135614f4881614f08565b9396929550929360600135925050565b5f8083601f840112614f68575f80fd5b50813567ffffffffffffffff811115614f7f575f80fd5b6020830191508360208260051b8501011115614f99575f80fd5b9250929050565b5f805f60408486031215614fb2575f80fd5b83359250602084013567ffffffffffffffff811115614fcf575f80fd5b614fdb86828701614f58565b9497909650939450505050565b5f60208284031215614ff8575f80fd5b5035919050565b5f6020828403121561500f575f80fd5b8135613a2a81614f08565b5f5b8381101561503457818101518382015260200161501c565b50505f910152565b5f815180845261505381602086016020860161501a565b601f01601f19169290920160200192915050565b602081525f613a2a602083018461503c565b5f806040838503121561508a575f80fd5b823561509581614f08565b946020939093013593505050565b5f80604083850312156150b4575f80fd5b50508035926020909101359150565b5f80604083850312156150d4575f80fd5b8235915060208301356150e681614f08565b809150509250929050565b5f815180845260208085019450602084015f5b8381101561512057815187529582019590820190600101615104565b509495945050505050565b5f6001600160a01b038083511684528060208401511660208501525060408201516040840152606082015160608401526080820151608084015260a082015160a084015260c082015160e060c085015261518860e08501826150f1565b949350505050565b5f8282518085526020808601955060208260051b840101602086015f5b848110156151db57601f198684030189526151c983835161512b565b988401989250908301906001016151ad565b5090979650505050505050565b602081525f613a2a6020830184615190565b6020815281516020820152602082015160408201526040820151151560608201525f606083015160a0608084015261523560c08401826150f1565b90506080840151601f198483030160a08501526130f782826150f1565b67ffffffffffffffff81168114610889575f80fd5b5f60208284031215615277575f80fd5b8135613a2a81615252565b5f805f60608486031215615294575f80fd5b833592506020840135915060408401356152ad81614f08565b809150509250925092565b634e487b7160e01b5f52604160045260245ffd5b60405160a0810167ffffffffffffffff811182821017156152ef576152ef6152b8565b60405290565b604051610180810167ffffffffffffffff811182821017156152ef576152ef6152b8565b5f82601f830112615328575f80fd5b813567ffffffffffffffff80821115615343576153436152b8565b604051601f8301601f19908116603f0116810190828211818310171561536b5761536b6152b8565b81604052838152866020858801011115615383575f80fd5b836020870160208301375f602085830101528094505050505092915050565b5f805f606084860312156153b4575f80fd5b83356153bf81614f08565b9250602084013567ffffffffffffffff808211156153db575f80fd5b9085019060a082880312156153ee575f80fd5b6153f66152cc565b82358152602083013560208201526040830135604082015260608301358281111561541f575f80fd5b61542b89828601615319565b606083015250608083013582811115615442575f80fd5b61544e89828601615319565b60808301525093506040860135915080821115615469575f80fd5b5061547686828701615319565b9150509250925092565b8015158114610889575f80fd5b5f805f805f606086880312156154a1575f80fd5b85356154ac81615480565b9450602086013567ffffffffffffffff808211156154c8575f80fd5b6154d489838a01614f58565b909650945060408801359150808211156154ec575f80fd5b506154f988828901614f58565b969995985093965092949392505050565b606081525f61551c6060830186615190565b8281036020848101919091528551808352868201928201905f5b8181101561555b5784516001600160a01b031683529383019391830191600101615536565b5050848103604086015261556f81876150f1565b98975050505050505050565b5f806040838503121561558c575f80fd5b8235915060208301356150e681615480565b5f602082840312156155ae575f80fd5b8151613a2a81614f08565b5f602082840312156155c9575f80fd5b5051919050565b838152604060208083018290529082018390525f90849060608401835b8681101561561b57833561560081614f08565b6001600160a01b0316825292820192908201906001016155ed565b50979650505050505050565b634e487b7160e01b5f52601160045260245ffd5b8181038181111561093557610935615627565b600181811c9082168061566257607f821691505b60208210810361568057634e487b7160e01b5f52602260045260245ffd5b50919050565b805161569181615480565b919050565b5f602082840312156156a6575f80fd5b8151613a2a81615480565b805161569181614f08565b5f81516156cd81856020860161501a565b9290920192915050565b5f82516156e881846020870161501a565b9190910192915050565b7f446174612061737365727465643a20307800000000000000000000000000000081525f8651602061572a8260118601838c0161501a565b7f20666f72206461746149643a2030780000000000000000000000000000000000601192850192830152875161576581838501848c0161501a565b7f20616e642061737365727465723a20307800000000000000000000000000000092018181019290925286516157a181603185018a850161501a565b7f2061742074696d657374616d703a2000000000000000000000000000000000006031939091019283015285516157de8160408501848a0161501a565b7f20696e207468652044617461417373657274657220636f6e747261637420617460409390910192830152506204060f60eb1b606082015261556f61582660638301866156bc565b7f2069732076616c69642e000000000000000000000000000000000000000000008152600a0190565b5f6101208083526158628184018d61503c565b6001600160a01b039b8c166020850152998b1660408401525050958816606087015267ffffffffffffffff9490941660808601529190951660a084015260c083019490945260e08201939093526101000191909152919050565b805161569181615252565b5f805f805f60a086880312156158db575f80fd5b85516158e681614f08565b60208701519095506158f781614f08565b60408701516060880151919550935061590f81614f08565b608087015190925061592081615252565b809150509295509295909350565b634e487b7160e01b5f52603260045260245ffd5b8082018082111561093557610935615627565b5f6001820161596657615966615627565b5060010190565b8183525f7f07ffffffffffffffffffffffffffffffffffffffffffffffffffffffffffffff83111561599d575f80fd5b8260051b80836020870137939093016020019392505050565b878152866020820152851515604082015260a060608201525f6159dd60a08301868861596d565b82810360808401526159f081858761596d565b9a9950505050505050505050565b5f60a08284031215615a0e575f80fd5b615a166152cc565b90508151615a2381615480565b81526020820151615a3381615480565b60208201526040820151615a4681615480565b60408201526060820151615a5981614f08565b60608201526080820151615a6c81614f08565b608082015292915050565b5f6102008284031215615a88575f80fd5b615a906152f5565b615a9a84846159fe565b8152615aa860a084016156b1565b6020820152615ab960c084016158bc565b6040820152615aca60e08401615686565b6060820152610100615add8185016156b1565b6080830152610120615af08186016158bc565b60a0840152610140615b03818701615686565b60c08501526101608087015160e0860152610180870151848601526101a087015183860152615b356101c088016156b1565b82860152615b466101e088016156b1565b90850152509195945050505050565b808202811582820484141761093557610935615627565b634e487b7160e01b5f52601260045260245ffd5b5f82615b9a57634e487b7160e01b5f52601260045260245ffd5b500490565b5f8085851115615bad575f80fd5b83861115615bb9575f80fd5b5050820193919092039150565b6bffffffffffffffffffffffff1981358181169160148510156130fa5760149490940360031b84901b1690921692915050565b838152606060208201525f615c11606083018561503c565b8281036040840152614d66818561503c565b60ff818116838216019081111561093557610935615627565b601f82111561342757805f5260205f20601f840160051c81016020851015615c615750805b601f840160051c820191505b81811015615c80575f8155600101615c6d565b5050505050565b815167ffffffffffffffff811115615ca157615ca16152b8565b615cb581615caf845461564e565b84615c3c565b602080601f831160018114615ce8575f8415615cd15750858301515b5f19600386901b1c1916600185901b178555615d3f565b5f85815260208120601f198616915b82811015615d1657888601518255948401946001909101908401615cf7565b5085821015615d3357878501515f19600388901b60f8161c191681555b505060018460011b0185555b505050505050565b602081528151602082015260208201516040820152604082015160608201525f606083015160a06080840152615d8060c084018261503c565b90506080840151601f198483030160a08501526130f7828261503c565b85815284602082015283604082015282606082015260a060808201525f615dc760a08301846150f1565b979650505050505050565b602081525f613a2a602083018461512b56fea2646970667358221220f147f006b6e0dd036157b8c5e18edb81dd52def46ea8fe3ff26df2a07d235cea64736f6c63430008170033",
    "linkReferences": {}
  },
  "methodIdentifiers": {
    "ASSERTER_ROLE()": "bf14d4a9",
    "amountPaid(address,uint256)": "b33ec618",
    "assertDataFor(bytes32,bytes32,address)": "93ee663b",
    "assertionData(bytes32)": "2a4e1904",
    "assertionDisputedCallback(bytes32)": "d448a4ec",
    "assertionLiveness()": "b75d4e24",
    "assertionResolvedCallback(bytes32,bool)": "f1b156b2",
    "claimRewards()": "372500ab",
    "collectPaymentOrders()": "c0231ff6",
    "createKPI(bool,uint256[],uint256[])": "bc7d2a33",
    "defaultBond()": "8333cb06",
    "defaultCurrency()": "20402e1d",
    "defaultIdentifier()": "d509b017",
    "deleteStuckAssertion(bytes32)": "e31ae421",
    "depositFeeFunds(uint256)": "64e6bbe5",
    "getAssertion(bytes32)": "88302884",
    "getAssertionConfig(bytes32)": "956ae17b",
    "getAssertionPending()": "8608fc9e",
    "getBalance(address)": "f8b2cb4f",
    "getData(bytes32)": "54f6127f",
    "getEarned(address)": "8620612b",
    "getEstimatedReward(uint256,uint256)": "ff96461b",
    "getFlagCount()": "c9582f20",
    "getFlags()": "6cc7149d",
    "getKPI(uint256)": "772fd8da",
    "getKPICounter()": "6554139e",
    "getLastUpdate()": "4c89867f",
    "getRewardRate()": "7e1a3786",
    "getRewardValue()": "0f2bdef6",
    "getRewardsEnd()": "03269bda",
    "getStakingToken()": "9f9106d1",
    "getTotalSupply()": "c4e41b22",
    "grantModuleRole(bytes32,address)": "6c67e807",
    "grantModuleRoleBatched(bytes32,address[])": "272bbd44",
    "identifier()": "7998a1c4",
    "init(address,(uint256,uint256,uint256,string,string),bytes)": "b66a870c",
    "isTrustedForwarder(address)": "572b6c05",
    "oo()": "8921a614",
    "orchestrator()": "b74795d9",
    "outstandingTokenAmount(address)": "2e84db5f",
    "paymentOrders()": "75fa0b76",
    "postAssertion(bytes32,uint256,address,uint256)": "074644e6",
    "revokeModuleRole(bytes32,address)": "bcb61920",
    "revokeModuleRoleBatched(bytes32,address[])": "24e30270",
    "setDefaultAssertionLiveness(uint64)": "81d09517",
    "setDefaultCurrencyAndBond(address,uint256)": "59be48f2",
    "setOptimisticOracle(address)": "bf5c3252",
    "setRewards(uint256,uint256)": "654e51e7",
    "stake(uint256)": "a694fc3a",
    "supportsInterface(bytes4)": "01ffc9a7",
    "title()": "4a79d50c",
    "trustedForwarder()": "7da0a877",
    "unstake(uint256)": "2e17de78",
    "url()": "5600f04f",
    "version()": "54fd4d50"
  },
  "id": 155
}