{
  "abi": [
    {
      "type": "function",
      "name": "amountPaid",
      "inputs": [
        {
          "name": "token",
          "type": "address",
          "internalType": "address"
        },
        {
          "name": "amount",
          "type": "uint256",
          "internalType": "uint256"
        }
      ],
      "outputs": [],
      "stateMutability": "nonpayable"
    },
    {
      "type": "function",
      "name": "balanceOf",
      "inputs": [
        {
          "name": "user",
          "type": "address",
          "internalType": "address"
        }
      ],
      "outputs": [
        {
          "name": "",
          "type": "uint256",
          "internalType": "uint256"
        }
      ],
      "stateMutability": "view"
    },
    {
      "type": "function",
      "name": "claimRewards",
      "inputs": [],
      "outputs": [],
      "stateMutability": "nonpayable"
    },
    {
      "type": "function",
      "name": "collectPaymentOrders",
      "inputs": [],
      "outputs": [
        {
          "name": "",
          "type": "tuple[]",
          "internalType": "struct IERC20PaymentClientBase_v1.PaymentOrder[]",
          "components": [
            {
              "name": "recipient",
              "type": "address",
              "internalType": "address"
            },
            {
              "name": "paymentToken",
              "type": "address",
              "internalType": "address"
            },
            {
              "name": "amount",
              "type": "uint256",
              "internalType": "uint256"
            },
            {
              "name": "start",
              "type": "uint256",
              "internalType": "uint256"
            },
            {
              "name": "cliff",
              "type": "uint256",
              "internalType": "uint256"
            },
            {
              "name": "end",
              "type": "uint256",
              "internalType": "uint256"
            }
          ]
        },
        {
          "name": "",
          "type": "address[]",
          "internalType": "address[]"
        },
        {
          "name": "",
          "type": "uint256[]",
          "internalType": "uint256[]"
        }
      ],
      "stateMutability": "nonpayable"
    },
    {
      "type": "function",
      "name": "earned",
      "inputs": [
        {
          "name": "user",
          "type": "address",
          "internalType": "address"
        }
      ],
      "outputs": [
        {
          "name": "",
          "type": "uint256",
          "internalType": "uint256"
        }
      ],
      "stateMutability": "view"
    },
    {
      "type": "function",
      "name": "estimateReward",
      "inputs": [
        {
          "name": "amount",
          "type": "uint256",
          "internalType": "uint256"
        },
        {
          "name": "duration",
          "type": "uint256",
          "internalType": "uint256"
        }
      ],
      "outputs": [
        {
          "name": "",
          "type": "uint256",
          "internalType": "uint256"
        }
      ],
      "stateMutability": "view"
    },
    {
      "type": "function",
      "name": "grantModuleRole",
      "inputs": [
        {
          "name": "role",
          "type": "bytes32",
          "internalType": "bytes32"
        },
        {
          "name": "target",
          "type": "address",
          "internalType": "address"
        }
      ],
      "outputs": [],
      "stateMutability": "nonpayable"
    },
    {
      "type": "function",
      "name": "grantModuleRoleBatched",
      "inputs": [
        {
          "name": "role",
          "type": "bytes32",
          "internalType": "bytes32"
        },
        {
          "name": "targets",
          "type": "address[]",
          "internalType": "address[]"
        }
      ],
      "outputs": [],
      "stateMutability": "nonpayable"
    },
    {
      "type": "function",
      "name": "identifier",
      "inputs": [],
      "outputs": [
        {
          "name": "",
          "type": "bytes32",
          "internalType": "bytes32"
        }
      ],
      "stateMutability": "view"
    },
    {
      "type": "function",
      "name": "init",
      "inputs": [
        {
          "name": "orchestrator_",
          "type": "address",
          "internalType": "contract IOrchestrator_v1"
        },
        {
          "name": "metadata",
          "type": "tuple",
          "internalType": "struct IModule_v1.Metadata",
          "components": [
            {
              "name": "majorVersion",
              "type": "uint256",
              "internalType": "uint256"
            },
            {
              "name": "minorVersion",
              "type": "uint256",
              "internalType": "uint256"
            },
            {
              "name": "patchVersion",
              "type": "uint256",
              "internalType": "uint256"
            },
            {
              "name": "url",
              "type": "string",
              "internalType": "string"
            },
            {
              "name": "title",
              "type": "string",
              "internalType": "string"
            }
          ]
        },
        {
          "name": "configData",
          "type": "bytes",
          "internalType": "bytes"
        }
      ],
      "outputs": [],
      "stateMutability": "nonpayable"
    },
    {
      "type": "function",
      "name": "isTrustedForwarder",
      "inputs": [
        {
          "name": "forwarder",
          "type": "address",
          "internalType": "address"
        }
      ],
      "outputs": [
        {
          "name": "",
          "type": "bool",
          "internalType": "bool"
        }
      ],
      "stateMutability": "view"
    },
    {
      "type": "function",
      "name": "orchestrator",
      "inputs": [],
      "outputs": [
        {
          "name": "",
          "type": "address",
          "internalType": "contract IOrchestrator_v1"
        }
      ],
      "stateMutability": "view"
    },
    {
      "type": "function",
      "name": "outstandingTokenAmount",
      "inputs": [
        {
          "name": "_token",
          "type": "address",
          "internalType": "address"
        }
      ],
      "outputs": [
        {
          "name": "",
          "type": "uint256",
          "internalType": "uint256"
        }
      ],
      "stateMutability": "view"
    },
    {
      "type": "function",
      "name": "paymentOrders",
      "inputs": [],
      "outputs": [
        {
          "name": "",
          "type": "tuple[]",
          "internalType": "struct IERC20PaymentClientBase_v1.PaymentOrder[]",
          "components": [
            {
              "name": "recipient",
              "type": "address",
              "internalType": "address"
            },
            {
              "name": "paymentToken",
              "type": "address",
              "internalType": "address"
            },
            {
              "name": "amount",
              "type": "uint256",
              "internalType": "uint256"
            },
            {
              "name": "start",
              "type": "uint256",
              "internalType": "uint256"
            },
            {
              "name": "cliff",
              "type": "uint256",
              "internalType": "uint256"
            },
            {
              "name": "end",
              "type": "uint256",
              "internalType": "uint256"
            }
          ]
        }
      ],
      "stateMutability": "view"
    },
    {
      "type": "function",
      "name": "revokeModuleRole",
      "inputs": [
        {
          "name": "role",
          "type": "bytes32",
          "internalType": "bytes32"
        },
        {
          "name": "target",
          "type": "address",
          "internalType": "address"
        }
      ],
      "outputs": [],
      "stateMutability": "nonpayable"
    },
    {
      "type": "function",
      "name": "revokeModuleRoleBatched",
      "inputs": [
        {
          "name": "role",
          "type": "bytes32",
          "internalType": "bytes32"
        },
        {
          "name": "targets",
          "type": "address[]",
          "internalType": "address[]"
        }
      ],
      "outputs": [],
      "stateMutability": "nonpayable"
    },
    {
      "type": "function",
      "name": "rewardRate",
      "inputs": [],
      "outputs": [
        {
          "name": "",
          "type": "uint256",
          "internalType": "uint256"
        }
      ],
      "stateMutability": "view"
    },
    {
      "type": "function",
      "name": "rewardsEnd",
      "inputs": [],
      "outputs": [
        {
          "name": "",
          "type": "uint256",
          "internalType": "uint256"
        }
      ],
      "stateMutability": "view"
    },
    {
      "type": "function",
      "name": "setRewards",
      "inputs": [
        {
          "name": "amount",
          "type": "uint256",
          "internalType": "uint256"
        },
        {
          "name": "duration",
          "type": "uint256",
          "internalType": "uint256"
        }
      ],
      "outputs": [],
      "stateMutability": "nonpayable"
    },
    {
      "type": "function",
      "name": "stake",
      "inputs": [
        {
          "name": "amount",
          "type": "uint256",
          "internalType": "uint256"
        }
      ],
      "outputs": [],
      "stateMutability": "nonpayable"
    },
    {
      "type": "function",
      "name": "stakingToken",
      "inputs": [],
      "outputs": [
        {
          "name": "",
          "type": "address",
          "internalType": "address"
        }
      ],
      "stateMutability": "view"
    },
    {
      "type": "function",
      "name": "supportsInterface",
      "inputs": [
        {
          "name": "interfaceId",
          "type": "bytes4",
          "internalType": "bytes4"
        }
      ],
      "outputs": [
        {
          "name": "",
          "type": "bool",
          "internalType": "bool"
        }
      ],
      "stateMutability": "view"
    },
    {
      "type": "function",
      "name": "title",
      "inputs": [],
      "outputs": [
        {
          "name": "",
          "type": "string",
          "internalType": "string"
        }
      ],
      "stateMutability": "view"
    },
    {
      "type": "function",
      "name": "totalSupply",
      "inputs": [],
      "outputs": [
        {
          "name": "",
          "type": "uint256",
          "internalType": "uint256"
        }
      ],
      "stateMutability": "view"
    },
    {
      "type": "function",
      "name": "trustedForwarder",
      "inputs": [],
      "outputs": [
        {
          "name": "",
          "type": "address",
          "internalType": "address"
        }
      ],
      "stateMutability": "view"
    },
    {
      "type": "function",
      "name": "unstake",
      "inputs": [
        {
          "name": "amount",
          "type": "uint256",
          "internalType": "uint256"
        }
      ],
      "outputs": [],
      "stateMutability": "nonpayable"
    },
    {
      "type": "function",
      "name": "url",
      "inputs": [],
      "outputs": [
        {
          "name": "",
          "type": "string",
          "internalType": "string"
        }
      ],
      "stateMutability": "view"
    },
    {
      "type": "function",
      "name": "version",
      "inputs": [],
      "outputs": [
        {
          "name": "",
          "type": "uint256",
          "internalType": "uint256"
        },
        {
          "name": "",
          "type": "uint256",
          "internalType": "uint256"
        },
        {
          "name": "",
          "type": "uint256",
          "internalType": "uint256"
        }
      ],
      "stateMutability": "view"
    },
    {
      "type": "event",
      "name": "Initialized",
      "inputs": [
        {
          "name": "version",
          "type": "uint64",
          "indexed": false,
          "internalType": "uint64"
        }
      ],
      "anonymous": false
    },
    {
      "type": "event",
      "name": "ModuleInitialized",
      "inputs": [
        {
          "name": "parentOrchestrator",
          "type": "address",
          "indexed": true,
          "internalType": "address"
        },
        {
          "name": "metadata",
          "type": "tuple",
          "indexed": false,
          "internalType": "struct IModule_v1.Metadata",
          "components": [
            {
              "name": "majorVersion",
              "type": "uint256",
              "internalType": "uint256"
            },
            {
              "name": "minorVersion",
              "type": "uint256",
              "internalType": "uint256"
            },
            {
              "name": "patchVersion",
              "type": "uint256",
              "internalType": "uint256"
            },
            {
              "name": "url",
              "type": "string",
              "internalType": "string"
            },
            {
              "name": "title",
              "type": "string",
              "internalType": "string"
            }
          ]
        }
      ],
      "anonymous": false
    },
    {
      "type": "event",
      "name": "PaymentOrderAdded",
      "inputs": [
        {
          "name": "recipient",
          "type": "address",
          "indexed": true,
          "internalType": "address"
        },
        {
          "name": "token",
          "type": "address",
          "indexed": true,
          "internalType": "address"
        },
        {
          "name": "amount",
          "type": "uint256",
          "indexed": false,
          "internalType": "uint256"
        }
      ],
      "anonymous": false
    },
    {
      "type": "event",
      "name": "RewardSet",
      "inputs": [
        {
          "name": "rewardAmount",
          "type": "uint256",
          "indexed": false,
          "internalType": "uint256"
        },
        {
          "name": "duration",
          "type": "uint256",
          "indexed": false,
          "internalType": "uint256"
        },
        {
          "name": "newRewardRate",
          "type": "uint256",
          "indexed": false,
          "internalType": "uint256"
        },
        {
          "name": "newRewardsEnd",
          "type": "uint256",
          "indexed": false,
          "internalType": "uint256"
        }
      ],
      "anonymous": false
    },
    {
      "type": "event",
      "name": "RewardsDistributed",
      "inputs": [
        {
          "name": "user",
          "type": "address",
          "indexed": true,
          "internalType": "address"
        },
        {
          "name": "amount",
          "type": "uint256",
          "indexed": false,
          "internalType": "uint256"
        }
      ],
      "anonymous": false
    },
    {
      "type": "event",
      "name": "Staked",
      "inputs": [
        {
          "name": "user",
          "type": "address",
          "indexed": true,
          "internalType": "address"
        },
        {
          "name": "amount",
          "type": "uint256",
          "indexed": false,
          "internalType": "uint256"
        }
      ],
      "anonymous": false
    },
    {
      "type": "event",
      "name": "StakingTokenSet",
      "inputs": [
        {
          "name": "token",
          "type": "address",
          "indexed": true,
          "internalType": "address"
        }
      ],
      "anonymous": false
    },
    {
      "type": "event",
      "name": "Unstaked",
      "inputs": [
        {
          "name": "user",
          "type": "address",
          "indexed": true,
          "internalType": "address"
        },
        {
          "name": "amount",
          "type": "uint256",
          "indexed": false,
          "internalType": "uint256"
        }
      ],
      "anonymous": false
    },
    {
      "type": "event",
      "name": "Updated",
      "inputs": [
        {
          "name": "triggerAddress",
          "type": "address",
          "indexed": true,
          "internalType": "address"
        },
        {
          "name": "rewardValue",
          "type": "uint256",
          "indexed": false,
          "internalType": "uint256"
        },
        {
          "name": "lastUpdate",
          "type": "uint256",
          "indexed": false,
          "internalType": "uint256"
        },
        {
          "name": "earnedRewards",
          "type": "uint256",
          "indexed": false,
          "internalType": "uint256"
        }
      ],
      "anonymous": false
    },
    {
      "type": "error",
      "name": "AddressEmptyCode",
      "inputs": [
        {
          "name": "target",
          "type": "address",
          "internalType": "address"
        }
      ]
    },
    {
      "type": "error",
      "name": "AddressInsufficientBalance",
      "inputs": [
        {
          "name": "account",
          "type": "address",
          "internalType": "address"
        }
      ]
    },
    {
      "type": "error",
      "name": "FailedInnerCall",
      "inputs": []
    },
    {
      "type": "error",
      "name": "InvalidInitialization",
      "inputs": []
    },
    {
      "type": "error",
      "name": "Module_OrchestratorCallbackFailed",
      "inputs": [
        {
          "name": "funcSig",
          "type": "string",
          "internalType": "string"
        }
      ]
    },
    {
      "type": "error",
      "name": "Module__CallerNotAuthorized",
      "inputs": [
        {
          "name": "role",
          "type": "bytes32",
          "internalType": "bytes32"
        },
        {
          "name": "caller",
          "type": "address",
          "internalType": "address"
        }
      ]
    },
    {
      "type": "error",
      "name": "Module__ERC20PaymentClientBase__ArrayLengthMismatch",
      "inputs": []
    },
    {
      "type": "error",
      "name": "Module__ERC20PaymentClientBase__CallerNotAuthorized",
      "inputs": []
    },
    {
      "type": "error",
      "name": "Module__ERC20PaymentClientBase__InsufficientFunds",
      "inputs": [
        {
          "name": "token",
          "type": "address",
          "internalType": "address"
        }
      ]
    },
    {
      "type": "error",
      "name": "Module__ERC20PaymentClientBase__InvalidAmount",
      "inputs": []
    },
    {
      "type": "error",
      "name": "Module__ERC20PaymentClientBase__InvalidPaymentOrder",
      "inputs": []
    },
    {
      "type": "error",
      "name": "Module__ERC20PaymentClientBase__InvalidRecipient",
      "inputs": []
    },
    {
      "type": "error",
      "name": "Module__ERC20PaymentClientBase__InvalidToken",
      "inputs": []
    },
    {
      "type": "error",
      "name": "Module__ERC20PaymentClientBase__Invalidend",
      "inputs": []
    },
    {
      "type": "error",
      "name": "Module__ERC20PaymentClientBase__TokenTransferFailed",
      "inputs": []
    },
    {
      "type": "error",
      "name": "Module__InvalidAddress",
      "inputs": []
    },
    {
      "type": "error",
      "name": "Module__InvalidMetadata",
      "inputs": []
    },
    {
      "type": "error",
      "name": "Module__InvalidOrchestratorAddress",
      "inputs": []
    },
    {
      "type": "error",
      "name": "Module__LM_PC_Staking_v1__InvalidDuration",
      "inputs": []
    },
    {
      "type": "error",
      "name": "Module__LM_PC_Staking_v1__InvalidRewardRate",
      "inputs": []
    },
    {
      "type": "error",
      "name": "Module__LM_PC_Staking_v1__InvalidStakingToken",
      "inputs": []
    },
    {
      "type": "error",
      "name": "Module__OnlyCallableByOrchestrator",
      "inputs": []
    },
    {
      "type": "error",
      "name": "Module__OnlyCallableByPaymentClient",
      "inputs": []
    },
    {
      "type": "error",
      "name": "NotInitializing",
      "inputs": []
    },
    {
      "type": "error",
      "name": "ReentrancyGuardReentrantCall",
      "inputs": []
    },
    {
      "type": "error",
      "name": "SafeERC20FailedOperation",
      "inputs": [
        {
          "name": "token",
          "type": "address",
          "internalType": "address"
        }
      ]
    }
  ],
  "bytecode": {
    "object": "0x60a06040523480156200001157600080fd5b5060006080526200002162000027565b620000db565b7ff0c57e16840df040f15088dc2f81fe391c3923bec73e23a9662efc9c229c6a00805468010000000000000000900460ff1615620000785760405163f92ee8a960e01b815260040160405180910390fd5b80546001600160401b0390811614620000d85780546001600160401b0319166001600160401b0390811782556040519081527fc7f505b2f371ae2175ee4913f4499e1f2633a7b5936321eed1cdaeb6115181d29060200160405180910390a15b50565b60805161384b620000f46000396000505061384b6000f3fe608060405234801561001057600080fd5b50600436106101c35760003560e01c806370a08231116100f9578063a694fc3a11610097578063b66a870c11610071578063b66a870c146103c4578063b74795d9146103d7578063bcb61920146103e8578063c0231ff6146103fb57600080fd5b8063a694fc3a14610395578063a6d14d69146103a8578063b33ec618146103b157600080fd5b80637998a1c4116100d35780637998a1c4146103695780637b0a47ee146103715780637da0a8771461037a5780637e5f43ff1461038257600080fd5b806370a082311461030057806372f702f31461032957806375fa0b761461035457600080fd5b8063372500ab116101665780635600f04f116101405780635600f04f146102bf578063572b6c05146102c7578063654e51e7146102da5780636c67e807146102ed57600080fd5b8063372500ab1461027e5780634a79d50c1461028657806354fd4d501461029b57600080fd5b806324e30270116101a257806324e302701461021a578063272bbd441461022f5780632e17de78146102425780632e84db5f1461025557600080fd5b80628cc262146101c857806301ffc9a7146101ee57806318160ddd14610211575b600080fd5b6101db6101d6366004612f87565b610412565b6040519081526020015b60405180910390f35b6102016101fc366004612fa4565b61042b565b60405190151581526020016101e5565b6101db606d5481565b61022d610228366004612fce565b610450565b005b61022d61023d366004612fce565b610702565b61022d61025036600461304d565b6108dc565b6101db610263366004612f87565b6001600160a01b031660009081526039602052604090205490565b61022d6109f8565b61028e610a4a565b6040516101e591906130b6565b600154600254600354604080519384526020840192909252908201526060016101e5565b61028e610adf565b6102016102d5366004612f87565b610af1565b61022d6102e83660046130c9565b610b60565b61022d6102fb3660046130eb565b610c1a565b6101db61030e366004612f87565b6001600160a01b031660009081526072602052604090205490565b606c5461033c906001600160a01b031681565b6040516001600160a01b0390911681526020016101e5565b61035c610e30565b6040516101e591906131a3565b6101db610ed3565b6101db606e5481565b61033c611031565b6101db6103903660046130c9565b6110a9565b61022d6103a336600461304d565b611165565b6101db606f5481565b61022d6103bf3660046131b6565b6111d0565b61022d6103d23660046132ae565b61122e565b6000546001600160a01b031661033c565b61022d6103f63660046130eb565b61137e565b610403611560565b6040516101e593929190613394565b600061042582610420611a1f565b611a87565b92915050565b60006001600160e01b031982166363a1750b60e01b1480610425575061042582611af6565b600080546040805163d09edf3160e01b815290518693926001600160a01b03169163d09edf319160048083019260209291908290030181865afa15801561049b573d6000803e3d6000fd5b505050506040513d601f19601f820116820180604052508101906104bf919061342c565b60405163fdd5205f60e01b8152306004820152602481018490526001600160a01b03919091169063fdd5205f90604401602060405180830381865afa15801561050c573d6000803e3d6000fd5b505050506040513d601f19601f820116820180604052508101906105309190613449565b905061062560008054906101000a90046001600160a01b03166001600160a01b031663d09edf316040518163ffffffff1660e01b8152600401602060405180830381865afa158015610586573d6000803e3d6000fd5b505050506040513d601f19601f820116820180604052508101906105aa919061342c565b6001600160a01b031663248a9ca3836040518263ffffffff1660e01b81526004016105d791815260200190565b602060405180830381865afa1580156105f4573d6000803e3d6000fd5b505050506040513d601f19601f820116820180604052508101906106189190613449565b610620611b1b565b611b6d565b60008054906101000a90046001600160a01b03166001600160a01b031663d09edf316040518163ffffffff1660e01b8152600401602060405180830381865afa158015610676573d6000803e3d6000fd5b505050506040513d601f19601f8201168201806040525081019061069a919061342c565b6001600160a01b0316637d540a648686866040518463ffffffff1660e01b81526004016106c993929190613462565b600060405180830381600087803b1580156106e357600080fd5b505af11580156106f7573d6000803e3d6000fd5b505050505050505050565b600080546040805163d09edf3160e01b815290518693926001600160a01b03169163d09edf319160048083019260209291908290030181865afa15801561074d573d6000803e3d6000fd5b505050506040513d601f19601f82011682018060405250810190610771919061342c565b60405163fdd5205f60e01b8152306004820152602481018490526001600160a01b03919091169063fdd5205f90604401602060405180830381865afa1580156107be573d6000803e3d6000fd5b505050506040513d601f19601f820116820180604052508101906107e29190613449565b905061083860008054906101000a90046001600160a01b03166001600160a01b031663d09edf316040518163ffffffff1660e01b8152600401602060405180830381865afa158015610586573d6000803e3d6000fd5b60008054906101000a90046001600160a01b03166001600160a01b031663d09edf316040518163ffffffff1660e01b8152600401602060405180830381865afa158015610889573d6000803e3d6000fd5b505050506040513d601f19601f820116820180604052508101906108ad919061342c565b6001600160a01b031663648154538686866040518463ffffffff1660e01b81526004016106c993929190613462565b6108e4611c89565b806108ee81611cd3565b60006108f8611b1b565b905061090381611cf4565b6001600160a01b0381166000908152607260205260408120805485929061092b9084906134d0565b9250508190555082606d600082825461094491906134d0565b9091555050606c54610960906001600160a01b03168285611db2565b6001600160a01b038116600090815260746020526040902054156109875761098781611e2b565b806001600160a01b03167f0f5bb82176feb1b5e747e28471aa92156a04d9f3ab9f45f28e2d704232b93f75846040516109c291815260200190565b60405180910390a250506109f560017f9b779b17422d0df92223018b32b4d1fa46e071723d6817e2486d003becc55f0055565b50565b610a00611c89565b6000610a0a611b1b565b9050610a1581611cf4565b610a1e81611e2b565b50610a4860017f9b779b17422d0df92223018b32b4d1fa46e071723d6817e2486d003becc55f0055565b565b606060016004018054610a5c906134e3565b80601f0160208091040260200160405190810160405280929190818152602001828054610a88906134e3565b8015610ad55780601f10610aaa57610100808354040283529160200191610ad5565b820191906000526020600020905b815481529060010190602001808311610ab857829003601f168201915b5050505050905090565b606060016003018054610a5c906134e3565b6000805460405163572b6c0560e01b81526001600160a01b0384811660048301529091169063572b6c0590602401602060405180830381865afa158015610b3c573d6000803e3d6000fd5b505050506040513d601f19601f82011682018060405250810190610425919061351d565b6000546040805163d09edf3160e01b81529051610c0c926001600160a01b03169163d09edf319160048083019260209291908290030181865afa158015610bab573d6000803e3d6000fd5b505050506040513d601f19601f82011682018060405250810190610bcf919061342c565b6001600160a01b031663b3ecf2366040518163ffffffff1660e01b8152600401602060405180830381865afa1580156105f4573d6000803e3d6000fd5b610c16828261209a565b5050565b600080546040805163d09edf3160e01b815290518593926001600160a01b03169163d09edf319160048083019260209291908290030181865afa158015610c65573d6000803e3d6000fd5b505050506040513d601f19601f82011682018060405250810190610c89919061342c565b60405163fdd5205f60e01b8152306004820152602481018490526001600160a01b03919091169063fdd5205f90604401602060405180830381865afa158015610cd6573d6000803e3d6000fd5b505050506040513d601f19601f82011682018060405250810190610cfa9190613449565b9050610d5060008054906101000a90046001600160a01b03166001600160a01b031663d09edf316040518163ffffffff1660e01b8152600401602060405180830381865afa158015610586573d6000803e3d6000fd5b60008054906101000a90046001600160a01b03166001600160a01b031663d09edf316040518163ffffffff1660e01b8152600401602060405180830381865afa158015610da1573d6000803e3d6000fd5b505050506040513d601f19601f82011682018060405250810190610dc5919061342c565b60405163385e205560e21b8152600481018690526001600160a01b038581166024830152919091169063e1788154906044015b600060405180830381600087803b158015610e1257600080fd5b505af1158015610e26573d6000803e3d6000fd5b5050505050505050565b60606038805480602002602001604051908101604052809291908181526020016000905b82821015610eca5760008481526020908190206040805160c0810182526006860290920180546001600160a01b0390811684526001808301549091168486015260028201549284019290925260038101546060840152600481015460808401526005015460a08301529083529092019101610e54565b50505050905090565b600061102c60016040518060a0016040529081600082015481526020016001820154815260200160028201548152602001600382018054610f13906134e3565b80601f0160208091040260200160405190810160405280929190818152602001828054610f3f906134e3565b8015610f8c5780601f10610f6157610100808354040283529160200191610f8c565b820191906000526020600020905b815481529060010190602001808311610f6f57829003601f168201915b50505050508152602001600482018054610fa5906134e3565b80601f0160208091040260200160405190810160405280929190818152602001828054610fd1906134e3565b801561101e5780601f10610ff35761010080835404028352916020019161101e565b820191906000526020600020905b81548152906001019060200180831161100157829003601f168201915b5050505050815250506121ad565b905090565b60008060009054906101000a90046001600160a01b03166001600160a01b0316637da0a8776040518163ffffffff1660e01b8152600401602060405180830381865afa158015611085573d6000803e3d6000fd5b505050506040513d601f19601f8201168201806040525081019061102c919061342c565b6000826110b581611cd3565b82806000036110d757604051630e05ce7960e41b815260040160405180910390fd5b606f544211156110ea576000925061115d565b606f546110f7854261353f565b111561110e5742606f5461110b91906134d0565b93505b606d5460000361113657606e546111258587613552565b61112f9190613552565b925061115d565b606d54606e546111468688613552565b6111509190613552565b61115a9190613569565b92505b505092915050565b61116d611c89565b8061117781611cd3565b6000611181611b1b565b905061118d81846121ed565b606c546111a5906001600160a01b031682308661229e565b50506109f560017f9b779b17422d0df92223018b32b4d1fa46e071723d6817e2486d003becc55f0055565b6111e06111db611b1b565b6122dd565b6111fd5760405163e4597a6b60e01b815260040160405180910390fd5b6001600160a01b038216600090815260396020526040812080548392906112259084906134d0565b90915550505050565b7ff0c57e16840df040f15088dc2f81fe391c3923bec73e23a9662efc9c229c6a00805468010000000000000000810460ff16159067ffffffffffffffff166000811580156112795750825b905060008267ffffffffffffffff1660011480156112965750303b155b9050811580156112a4575080155b156112c25760405163f92ee8a960e01b815260040160405180910390fd5b845467ffffffffffffffff1916600117855583156112f657845468ff00000000000000001916680100000000000000001785555b6112fe61235d565b611308888861236d565b60008680602001905181019061131e919061342c565b90506113298161245b565b508315610e2657845468ff000000000000000019168555604051600181527fc7f505b2f371ae2175ee4913f4499e1f2633a7b5936321eed1cdaeb6115181d29060200160405180910390a15050505050505050565b600080546040805163d09edf3160e01b815290518593926001600160a01b03169163d09edf319160048083019260209291908290030181865afa1580156113c9573d6000803e3d6000fd5b505050506040513d601f19601f820116820180604052508101906113ed919061342c565b60405163fdd5205f60e01b8152306004820152602481018490526001600160a01b03919091169063fdd5205f90604401602060405180830381865afa15801561143a573d6000803e3d6000fd5b505050506040513d601f19601f8201168201806040525081019061145e9190613449565b90506114b460008054906101000a90046001600160a01b03166001600160a01b031663d09edf316040518163ffffffff1660e01b8152600401602060405180830381865afa158015610586573d6000803e3d6000fd5b60008054906101000a90046001600160a01b03166001600160a01b031663d09edf316040518163ffffffff1660e01b8152600401602060405180830381865afa158015611505573d6000803e3d6000fd5b505050506040513d601f19601f82011682018060405250810190611529919061342c565b604051632e99be7f60e21b8152600481018690526001600160a01b038581166024830152919091169063ba66f9fc90604401610df8565b60608060606115706111db611b1b565b61158d5760405163e4597a6b60e01b815260040160405180910390fd5b6038546000808267ffffffffffffffff8111156115ac576115ac6131e2565b6040519080825280602002602001820160405280156115d5578160200160208202803683370190505b50905060008367ffffffffffffffff8111156115f3576115f36131e2565b60405190808252806020026020018201604052801561161c578160200160208202803683370190505b50905060008467ffffffffffffffff81111561163a5761163a6131e2565b6040519080825280602002602001820160405280156116b657816020015b6116a36040518060c0016040528060006001600160a01b0316815260200160006001600160a01b03168152602001600081526020016000815260200160008152602001600081525090565b8152602001906001900390816116585790505b50905060005b8581101561189057603881815481106116d7576116d761358b565b60009182526020918290206040805160c081018252600690930290910180546001600160a01b03908116845260018201541693830193909352600283015490820152600382015460608201526004820154608082015260059091015460a0820152825183908390811061174c5761174c61358b565b60200260200101819052506000805b868110156117c3578383815181106117755761177561358b565b6020026020010151602001516001600160a01b031686828151811061179c5761179c61358b565b60200260200101516001600160a01b0316036117bb57600191506117c3565b60010161175b565b5080611887578282815181106117db576117db61358b565b6020026020010151602001518587815181106117f9576117f961358b565b60200260200101906001600160a01b031690816001600160a01b0316815250506039600084848151811061182f5761182f61358b565b6020026020010151602001516001600160a01b03166001600160a01b031681526020019081526020016000205484878151811061186e5761186e61358b565b602090810291909101015285611883816135a1565b9650505b506001016116bc565b5061189d60386000612f0a565b60008467ffffffffffffffff8111156118b8576118b86131e2565b6040519080825280602002602001820160405280156118e1578160200160208202803683370190505b50905060008567ffffffffffffffff8111156118ff576118ff6131e2565b604051908082528060200260200182016040528015611928578160200160208202803683370190505b50905060005b86811015611a0e578581815181106119485761194861358b565b60200260200101518382815181106119625761196261358b565b60200260200101906001600160a01b031690816001600160a01b0316815250508481815181106119945761199461358b565b60200260200101518282815181106119ae576119ae61358b565b6020026020010181815250506119e46119c5611b1b565b8483815181106119d7576119d761358b565b602002602001015161246c565b611a068382815181106119f9576119f961358b565b6020026020010151612491565b60010161192e565b509199909850909650945050505050565b6000606d54600003611a32575060705490565b607054606d54606e54607154611a46612717565b611a5091906134d0565b611a5a9190613552565b611a73906ec097ce7bc90715b34b9f1000000000613552565b611a7d9190613569565b61102c919061353f565b6001600160a01b038216600090815260746020908152604080832054607283528184205460739093529083205490916ec097ce7bc90715b34b9f100000000091611ad190866134d0565b611adb9190613552565b611ae59190613569565b611aef919061353f565b9392505050565b60006001600160e01b0319821663286309c760e01b148061042557506104258261272f565b6000366014611b2933610af1565b8015611b355750808210155b15611b6557600036611b4783856134d0565b611b529282906135ba565b611b5b916135e4565b60601c9250505090565b339250505090565b60008054906101000a90046001600160a01b03166001600160a01b031663d09edf316040518163ffffffff1660e01b8152600401602060405180830381865afa158015611bbe573d6000803e3d6000fd5b505050506040513d601f19601f82011682018060405250810190611be2919061342c565b60405163a883867d60e01b8152600481018490526001600160a01b038381166024830152919091169063a883867d90604401602060405180830381865afa158015611c31573d6000803e3d6000fd5b505050506040513d601f19601f82011682018060405250810190611c55919061351d565b610c16576040516342abbb7760e01b8152600481018390526001600160a01b03821660248201526044015b60405180910390fd5b7f9b779b17422d0df92223018b32b4d1fa46e071723d6817e2486d003becc55f00805460011901611ccd57604051633ee5aeb560e01b815260040160405180910390fd5b60029055565b806000036109f5576040516351cd1a8760e11b815260040160405180910390fd5b6000611cfe611a1f565b607081905590506000611d0f612717565b6071819055905060006001600160a01b03841615611d6057611d3384607054611a87565b6001600160a01b038516600090815260746020908152604080832084905560705460739092529091205590505b60408051848152602081018490529081018290526001600160a01b038516907fa970b12b7ab9d055296c48cc861cf24cf1b06100b204a5a3a32d9208ca06cc919060600160405180910390a250505050565b6040516001600160a01b03838116602483015260448201839052611e2691859182169063a9059cbb906064015b604051602081830303815290604052915060e01b6020820180517bffffffffffffffffffffffffffffffffffffffffffffffffffffffff8381831617835250505050612764565b505050565b6001600160a01b03811660008181526074602090815260408083208054939055805160c081019091529283529091611f5d918101611e716000546001600160a01b031690565b6001600160a01b03166304baed9e6040518163ffffffff1660e01b8152600401602060405180830381865afa158015611eae573d6000803e3d6000fd5b505050506040513d601f19601f82011682018060405250810190611ed2919061342c565b6001600160a01b031663fc0c546a6040518163ffffffff1660e01b8152600401602060405180830381865afa158015611f0f573d6000803e3d6000fd5b505050506040513d601f19601f82011682018060405250810190611f33919061342c565b6001600160a01b0316815260200183815260200142815260200160008152602001428152506127c7565b60008054906101000a90046001600160a01b03166001600160a01b031663f1c6bdf86040518163ffffffff1660e01b8152600401602060405180830381865afa158015611fae573d6000803e3d6000fd5b505050506040513d601f19601f82011682018060405250810190611fd2919061342c565b60405163e151fc6160e01b81523060048201526001600160a01b03919091169063e151fc6190602401600060405180830381600087803b15801561201557600080fd5b505af1158015612029573d6000803e3d6000fd5b50505050816001600160a01b03167fdf29796aad820e4bb192f3a8d631b76519bcd2cbe77cc85af20e9df53cece0868260405161206891815260200190565b60405180910390a25050565b60017f9b779b17422d0df92223018b32b4d1fa46e071723d6817e2486d003becc55f0055565b816120a481611cd3565b81806000036120c657604051630e05ce7960e41b815260040160405180910390fd5b6120d06000611cf4565b606f5442106120eb576120e38385613569565b606e55612124565b6000606e5442606f546120fe91906134d0565b6121089190613552565b905083612115828761353f565b61211f9190613569565b606e55505b606e5460000361214757604051631db9af3b60e21b815260040160405180910390fd5b612151834261353f565b606f81905542607155606e5460408051878152602081018790529081019190915260608101919091527fe6ff9e5909ab32d770b5c8e779b77275ca8dda9d96cfb24d0287d80715dd02969060800160405180910390a150505050565b60008160000151826060015183608001516040516020016121d093929190613617565b604051602081830303815290604052805190602001209050919050565b6121f682611cf4565b6001600160a01b0382166000908152607460205260409020541561221d5761221d82611e2b565b6001600160a01b0382166000908152607260205260408120805483929061224590849061353f565b9250508190555080606d600082825461225e919061353f565b90915550506040518181526001600160a01b038316907f9e71bc8eea02a63969f509818f2dafb9254532904319f9dbda79b67bd34a5f3d90602001612068565b6040516001600160a01b0384811660248301528381166044830152606482018390526122d79186918216906323b872dd90608401611ddf565b50505050565b6000805460408051631e38d7bf60e31b815290516001600160a01b0380861693169163f1c6bdf89160048083019260209291908290030181865afa158015612329573d6000803e3d6000fd5b505050506040513d601f19601f8201168201806040525081019061234d919061342c565b6001600160a01b03161492915050565b612365612988565b610a486129d6565b612375612988565b6001600160a01b03821661239c57604051637280679360e01b815260040160405180910390fd5b600080546001600160a01b0319166001600160a01b0384161790556123c0816129de565b6123dd57604051637511254160e01b815260040160405180910390fd5b805160019081556020820151600255604082015160035560608201518291906004906124099082613692565b506080820151600482019061241e9082613692565b50905050816001600160a01b03167fd5f3f84c2e1816ce290af84d002663800b02f2985d770cdd335de76fd723b730826040516120689190613752565b612463612988565b6109f581612a3e565b6001600160a01b038116600081815260396020526040902054610c1691908490612b9a565b6001600160a01b0381166000818152603960205260408082205490516370a0823160e01b81523060048201529092906370a0823190602401602060405180830381865afa1580156124e6573d6000803e3d6000fd5b505050506040513d601f19601f8201168201806040525081019061250a9190613449565b905081811015611e265760008054906101000a90046001600160a01b03166001600160a01b03166304baed9e6040518163ffffffff1660e01b8152600401602060405180830381865afa158015612565573d6000803e3d6000fd5b505050506040513d601f19601f82011682018060405250810190612589919061342c565b6001600160a01b031663fc0c546a6040518163ffffffff1660e01b8152600401602060405180830381865afa1580156125c6573d6000803e3d6000fd5b505050506040513d601f19601f820116820180604052508101906125ea919061342c565b6001600160a01b0316836001600160a01b0316036126f35760008054906101000a90046001600160a01b03166001600160a01b03166304baed9e6040518163ffffffff1660e01b8152600401602060405180830381865afa158015612653573d6000803e3d6000fd5b505050506040513d601f19601f82011682018060405250810190612677919061342c565b6001600160a01b031663759cc4b53061269084866134d0565b6040516001600160e01b031960e085901b1681526001600160a01b0390921660048301526024820152604401600060405180830381600087803b1580156126d657600080fd5b505af11580156126ea573d6000803e3d6000fd5b50505050505050565b6040516346511acb60e11b81526001600160a01b0384166004820152602401611c80565b600042606f54111561272857504290565b50606f5490565b60006001600160e01b0319821663e328951160e01b148061042557506301ffc9a760e01b6001600160e01b0319831614610425565b60006127796001600160a01b03841683612c3f565b9050805160001415801561279e57508080602001905181019061279c919061351d565b155b15611e2657604051635274afe760e01b81526001600160a01b0384166004820152602401611c80565b806127d181612c4d565b81604001516039600084602001516001600160a01b03166001600160a01b03168152602001908152602001600020600082825461280e919061353f565b909155505060388054600181018255600091909152825160069091027f38395c5dceade9603479b177b68959049485df8aa97b39f3533039af5f456199810180546001600160a01b039384166001600160a01b0319918216811790925560208601517f38395c5dceade9603479b177b68959049485df8aa97b39f3533039af5f45619a8401805491909516911681179093556040808601517f38395c5dceade9603479b177b68959049485df8aa97b39f3533039af5f45619b840181905560608701517f38395c5dceade9603479b177b68959049485df8aa97b39f3533039af5f45619c85015560808701517f38395c5dceade9603479b177b68959049485df8aa97b39f3533039af5f45619d85015560a08701517f38395c5dceade9603479b177b68959049485df8aa97b39f3533039af5f45619e909401939093555190917f21b8b94494ef1aff6ce0f5f3741800bdb27204fd430c1280b54d4cc653ae6f3a9161297c91815260200190565b60405180910390a35050565b7ff0c57e16840df040f15088dc2f81fe391c3923bec73e23a9662efc9c229c6a005468010000000000000000900460ff16610a4857604051631afcd79f60e31b815260040160405180910390fd5b612074612988565b60008160600151516000036129f557506000919050565b816080015151600003612a0a57506000919050565b8151158015612a1b57506020820151155b8015612a2957506040820151155b15612a3657506000919050565b506001919050565b6001600160a01b0381161580612b3257506000546001600160a01b03166001600160a01b03166304baed9e6040518163ffffffff1660e01b8152600401602060405180830381865afa158015612a98573d6000803e3d6000fd5b505050506040513d601f19601f82011682018060405250810190612abc919061342c565b6001600160a01b031663fc0c546a6040518163ffffffff1660e01b8152600401602060405180830381865afa158015612af9573d6000803e3d6000fd5b505050506040513d601f19601f82011682018060405250810190612b1d919061342c565b6001600160a01b0316816001600160a01b0316145b15612b5057604051631c307bff60e31b815260040160405180910390fd5b606c80546001600160a01b0319166001600160a01b0383169081179091556040517f9904a32444ae0eb0bae2045baf588aa248f03f4fef600c18afd1d7e751614af890600090a250565b604080516001600160a01b038416602482015260448082018490528251808303909101815260649091019091526020810180517bffffffffffffffffffffffffffffffffffffffffffffffffffffffff1663095ea7b360e01b179052612c008482612d45565b6122d7576040516001600160a01b03848116602483015260006044830152612c3591869182169063095ea7b390606401611ddf565b6122d78482612764565b6060611aef83836000612de8565b6000546001600160a01b03166001600160a01b031663f1c6bdf86040518163ffffffff1660e01b8152600401602060405180830381865afa158015612c96573d6000803e3d6000fd5b505050506040513d601f19601f82011682018060405250810190612cba919061342c565b6001600160a01b03166308fd683d826040518263ffffffff1660e01b8152600401612ce591906137a9565b6020604051808303816000875af1158015612d04573d6000803e3d6000fd5b505050506040513d601f19601f82011682018060405250810190612d28919061351d565b6109f55760405163349a262760e01b815260040160405180910390fd5b6000806000846001600160a01b031684604051612d6291906137f9565b6000604051808303816000865af19150503d8060008114612d9f576040519150601f19603f3d011682016040523d82523d6000602084013e612da4565b606091505b5091509150818015612dce575080511580612dce575080806020019051810190612dce919061351d565b801561115a5750505050506001600160a01b03163b151590565b606081471015612e0d5760405163cd78605960e01b8152306004820152602401611c80565b600080856001600160a01b03168486604051612e2991906137f9565b60006040518083038185875af1925050503d8060008114612e66576040519150601f19603f3d011682016040523d82523d6000602084013e612e6b565b606091505b5091509150612e7b868383612e85565b9695505050505050565b606082612e9a57612e9582612ee1565b611aef565b8151158015612eb157506001600160a01b0384163b155b15612eda57604051639996b31560e01b81526001600160a01b0385166004820152602401611c80565b5080611aef565b805115612ef15780518082602001fd5b604051630a12f52160e11b815260040160405180910390fd5b50805460008255600602906000526020600020908101906109f591905b80821115612f6e5780546001600160a01b03199081168255600182018054909116905560006002820181905560038201819055600482018190556005820155600601612f27565b5090565b6001600160a01b03811681146109f557600080fd5b600060208284031215612f9957600080fd5b8135611aef81612f72565b600060208284031215612fb657600080fd5b81356001600160e01b031981168114611aef57600080fd5b600080600060408486031215612fe357600080fd5b83359250602084013567ffffffffffffffff8082111561300257600080fd5b818601915086601f83011261301657600080fd5b81358181111561302557600080fd5b8760208260051b850101111561303a57600080fd5b6020830194508093505050509250925092565b60006020828403121561305f57600080fd5b5035919050565b60005b83811015613081578181015183820152602001613069565b50506000910152565b600081518084526130a2816020860160208601613066565b601f01601f19169290920160200192915050565b602081526000611aef602083018461308a565b600080604083850312156130dc57600080fd5b50508035926020909101359150565b600080604083850312156130fe57600080fd5b82359150602083013561311081612f72565b809150509250929050565b60008151808452602080850194506020840160005b83811015613198576131858783516001600160a01b038082511683528060208301511660208401525060408101516040830152606081015160608301526080810151608083015260a081015160a08301525050565b60c0969096019590820190600101613130565b509495945050505050565b602081526000611aef602083018461311b565b600080604083850312156131c957600080fd5b82356131d481612f72565b946020939093013593505050565b634e487b7160e01b600052604160045260246000fd5b60405160a0810167ffffffffffffffff8111828210171561321b5761321b6131e2565b60405290565b600082601f83011261323257600080fd5b813567ffffffffffffffff8082111561324d5761324d6131e2565b604051601f8301601f19908116603f01168101908282118183101715613275576132756131e2565b8160405283815286602085880101111561328e57600080fd5b836020870160208301376000602085830101528094505050505092915050565b6000806000606084860312156132c357600080fd5b83356132ce81612f72565b9250602084013567ffffffffffffffff808211156132eb57600080fd5b9085019060a082880312156132ff57600080fd5b6133076131f8565b82358152602083013560208201526040830135604082015260608301358281111561333157600080fd5b61333d89828601613221565b60608301525060808301358281111561335557600080fd5b61336189828601613221565b6080830152509350604086013591508082111561337d57600080fd5b5061338a86828701613221565b9150509250925092565b6060815260006133a7606083018661311b565b82810360208481019190915285518083528682019282019060005b818110156133e75784516001600160a01b0316835293830193918301916001016133c2565b50508481036040860152855180825290820192508186019060005b8181101561341e57825185529383019391830191600101613402565b509298975050505050505050565b60006020828403121561343e57600080fd5b8151611aef81612f72565b60006020828403121561345b57600080fd5b5051919050565b83815260406020808301829052908201839052600090849060608401835b868110156134ae57833561349381612f72565b6001600160a01b031682529282019290820190600101613480565b50979650505050505050565b634e487b7160e01b600052601160045260246000fd5b81810381811115610425576104256134ba565b600181811c908216806134f757607f821691505b60208210810361351757634e487b7160e01b600052602260045260246000fd5b50919050565b60006020828403121561352f57600080fd5b81518015158114611aef57600080fd5b80820180821115610425576104256134ba565b8082028115828204841417610425576104256134ba565b60008261358657634e487b7160e01b600052601260045260246000fd5b500490565b634e487b7160e01b600052603260045260246000fd5b6000600182016135b3576135b36134ba565b5060010190565b600080858511156135ca57600080fd5b838611156135d757600080fd5b5050820193919092039150565b6bffffffffffffffffffffffff19813581811691601485101561115d5760149490940360031b84901b1690921692915050565b838152606060208201526000613630606083018561308a565b8281036040840152612e7b818561308a565b601f821115611e26576000816000526020600020601f850160051c8101602086101561366b5750805b601f850160051c820191505b8181101561368a57828155600101613677565b505050505050565b815167ffffffffffffffff8111156136ac576136ac6131e2565b6136c0816136ba84546134e3565b84613642565b602080601f8311600181146136f557600084156136dd5750858301515b600019600386901b1c1916600185901b17855561368a565b600085815260208120601f198616915b8281101561372457888601518255948401946001909101908401613705565b50858210156137425787850151600019600388901b60f8161c191681555b5050505050600190811b01905550565b602081528151602082015260208201516040820152604082015160608201526000606083015160a0608084015261378c60c084018261308a565b90506080840151601f198483030160a085015261115a828261308a565b60c0810161042582846001600160a01b038082511683528060208301511660208401525060408101516040830152606081015160608301526080810151608083015260a081015160a08301525050565b6000825161380b818460208701613066565b919091019291505056fea2646970667358221220d22c0ea3cea02c2bbc66339beb51c78fb6f916282adf42618ba54843f7c0b98664736f6c63430008170033",
    "linkReferences": {}
  },
  "methodIdentifiers": {
    "amountPaid(address,uint256)": "b33ec618",
    "balanceOf(address)": "70a08231",
    "claimRewards()": "372500ab",
    "collectPaymentOrders()": "c0231ff6",
    "earned(address)": "008cc262",
    "estimateReward(uint256,uint256)": "7e5f43ff",
    "grantModuleRole(bytes32,address)": "6c67e807",
    "grantModuleRoleBatched(bytes32,address[])": "272bbd44",
    "identifier()": "7998a1c4",
    "init(address,(uint256,uint256,uint256,string,string),bytes)": "b66a870c",
    "isTrustedForwarder(address)": "572b6c05",
    "orchestrator()": "b74795d9",
    "outstandingTokenAmount(address)": "2e84db5f",
    "paymentOrders()": "75fa0b76",
    "revokeModuleRole(bytes32,address)": "bcb61920",
    "revokeModuleRoleBatched(bytes32,address[])": "24e30270",
    "rewardRate()": "7b0a47ee",
    "rewardsEnd()": "a6d14d69",
    "setRewards(uint256,uint256)": "654e51e7",
    "stake(uint256)": "a694fc3a",
    "stakingToken()": "72f702f3",
    "supportsInterface(bytes4)": "01ffc9a7",
    "title()": "4a79d50c",
    "totalSupply()": "18160ddd",
    "trustedForwarder()": "7da0a877",
    "unstake(uint256)": "2e17de78",
    "url()": "5600f04f",
    "version()": "54fd4d50"
  },
  "id": 137
}