{
  "abi": [
    {
      "type": "function",
      "name": "addRecurringPayment",
      "inputs": [
        {
          "name": "amount",
          "type": "uint256",
          "internalType": "uint256"
        },
        {
          "name": "startEpoch",
          "type": "uint256",
          "internalType": "uint256"
        },
        {
          "name": "recipient",
          "type": "address",
          "internalType": "address"
        }
      ],
      "outputs": [
        {
          "name": "id",
          "type": "uint256",
          "internalType": "uint256"
        }
      ],
      "stateMutability": "nonpayable"
    },
    {
      "type": "function",
      "name": "amountPaid",
      "inputs": [
        {
          "name": "token",
          "type": "address",
          "internalType": "address"
        },
        {
          "name": "amount",
          "type": "uint256",
          "internalType": "uint256"
        }
      ],
      "outputs": [],
      "stateMutability": "nonpayable"
    },
    {
      "type": "function",
      "name": "collectPaymentOrders",
      "inputs": [],
      "outputs": [
        {
          "name": "",
          "type": "tuple[]",
          "internalType": "struct IERC20PaymentClientBase_v1.PaymentOrder[]",
          "components": [
            {
              "name": "recipient",
              "type": "address",
              "internalType": "address"
            },
            {
              "name": "paymentToken",
              "type": "address",
              "internalType": "address"
            },
            {
              "name": "amount",
              "type": "uint256",
              "internalType": "uint256"
            },
            {
              "name": "start",
              "type": "uint256",
              "internalType": "uint256"
            },
            {
              "name": "cliff",
              "type": "uint256",
              "internalType": "uint256"
            },
            {
              "name": "end",
              "type": "uint256",
              "internalType": "uint256"
            }
          ]
        },
        {
          "name": "",
          "type": "address[]",
          "internalType": "address[]"
        },
        {
          "name": "",
          "type": "uint256[]",
          "internalType": "uint256[]"
        }
      ],
      "stateMutability": "nonpayable"
    },
    {
      "type": "function",
      "name": "getCurrentEpoch",
      "inputs": [],
      "outputs": [
        {
          "name": "epoch",
          "type": "uint256",
          "internalType": "uint256"
        }
      ],
      "stateMutability": "view"
    },
    {
      "type": "function",
      "name": "getEpochFromTimestamp",
      "inputs": [
        {
          "name": "timestamp",
          "type": "uint256",
          "internalType": "uint256"
        }
      ],
      "outputs": [
        {
          "name": "epoch",
          "type": "uint256",
          "internalType": "uint256"
        }
      ],
      "stateMutability": "view"
    },
    {
      "type": "function",
      "name": "getEpochLength",
      "inputs": [],
      "outputs": [
        {
          "name": "",
          "type": "uint256",
          "internalType": "uint256"
        }
      ],
      "stateMutability": "view"
    },
    {
      "type": "function",
      "name": "getFutureEpoch",
      "inputs": [
        {
          "name": "xEpochsInTheFuture",
          "type": "uint256",
          "internalType": "uint256"
        }
      ],
      "outputs": [
        {
          "name": "futureEpoch",
          "type": "uint256",
          "internalType": "uint256"
        }
      ],
      "stateMutability": "view"
    },
    {
      "type": "function",
      "name": "getPreviousPaymentId",
      "inputs": [
        {
          "name": "id",
          "type": "uint256",
          "internalType": "uint256"
        }
      ],
      "outputs": [
        {
          "name": "",
          "type": "uint256",
          "internalType": "uint256"
        }
      ],
      "stateMutability": "view"
    },
    {
      "type": "function",
      "name": "getRecurringPaymentInformation",
      "inputs": [
        {
          "name": "id",
          "type": "uint256",
          "internalType": "uint256"
        }
      ],
      "outputs": [
        {
          "name": "",
          "type": "tuple",
          "internalType": "struct ILM_PC_RecurringPayments_v1.RecurringPayment",
          "components": [
            {
              "name": "amount",
              "type": "uint256",
              "internalType": "uint256"
            },
            {
              "name": "startEpoch",
              "type": "uint256",
              "internalType": "uint256"
            },
            {
              "name": "lastTriggeredEpoch",
              "type": "uint256",
              "internalType": "uint256"
            },
            {
              "name": "recipient",
              "type": "address",
              "internalType": "address"
            }
          ]
        }
      ],
      "stateMutability": "view"
    },
    {
      "type": "function",
      "name": "grantModuleRole",
      "inputs": [
        {
          "name": "role",
          "type": "bytes32",
          "internalType": "bytes32"
        },
        {
          "name": "target",
          "type": "address",
          "internalType": "address"
        }
      ],
      "outputs": [],
      "stateMutability": "nonpayable"
    },
    {
      "type": "function",
      "name": "grantModuleRoleBatched",
      "inputs": [
        {
          "name": "role",
          "type": "bytes32",
          "internalType": "bytes32"
        },
        {
          "name": "targets",
          "type": "address[]",
          "internalType": "address[]"
        }
      ],
      "outputs": [],
      "stateMutability": "nonpayable"
    },
    {
      "type": "function",
      "name": "identifier",
      "inputs": [],
      "outputs": [
        {
          "name": "",
          "type": "bytes32",
          "internalType": "bytes32"
        }
      ],
      "stateMutability": "view"
    },
    {
      "type": "function",
      "name": "init",
      "inputs": [
        {
          "name": "orchestrator_",
          "type": "address",
          "internalType": "contract IOrchestrator_v1"
        },
        {
          "name": "metadata",
          "type": "tuple",
          "internalType": "struct IModule_v1.Metadata",
          "components": [
            {
              "name": "majorVersion",
              "type": "uint256",
              "internalType": "uint256"
            },
            {
              "name": "minorVersion",
              "type": "uint256",
              "internalType": "uint256"
            },
            {
              "name": "url",
              "type": "string",
              "internalType": "string"
            },
            {
              "name": "title",
              "type": "string",
              "internalType": "string"
            }
          ]
        },
        {
          "name": "configData",
          "type": "bytes",
          "internalType": "bytes"
        }
      ],
      "outputs": [],
      "stateMutability": "nonpayable"
    },
    {
      "type": "function",
      "name": "isExistingRecurringPaymentId",
      "inputs": [
        {
          "name": "id",
          "type": "uint256",
          "internalType": "uint256"
        }
      ],
      "outputs": [
        {
          "name": "",
          "type": "bool",
          "internalType": "bool"
        }
      ],
      "stateMutability": "view"
    },
    {
      "type": "function",
      "name": "isTrustedForwarder",
      "inputs": [
        {
          "name": "forwarder",
          "type": "address",
          "internalType": "address"
        }
      ],
      "outputs": [
        {
          "name": "",
          "type": "bool",
          "internalType": "bool"
        }
      ],
      "stateMutability": "view"
    },
    {
      "type": "function",
      "name": "listRecurringPaymentIds",
      "inputs": [],
      "outputs": [
        {
          "name": "",
          "type": "uint256[]",
          "internalType": "uint256[]"
        }
      ],
      "stateMutability": "view"
    },
    {
      "type": "function",
      "name": "orchestrator",
      "inputs": [],
      "outputs": [
        {
          "name": "",
          "type": "address",
          "internalType": "contract IOrchestrator_v1"
        }
      ],
      "stateMutability": "view"
    },
    {
      "type": "function",
      "name": "outstandingTokenAmount",
      "inputs": [
        {
          "name": "_token",
          "type": "address",
          "internalType": "address"
        }
      ],
      "outputs": [
        {
          "name": "",
          "type": "uint256",
          "internalType": "uint256"
        }
      ],
      "stateMutability": "view"
    },
    {
      "type": "function",
      "name": "paymentOrders",
      "inputs": [],
      "outputs": [
        {
          "name": "",
          "type": "tuple[]",
          "internalType": "struct IERC20PaymentClientBase_v1.PaymentOrder[]",
          "components": [
            {
              "name": "recipient",
              "type": "address",
              "internalType": "address"
            },
            {
              "name": "paymentToken",
              "type": "address",
              "internalType": "address"
            },
            {
              "name": "amount",
              "type": "uint256",
              "internalType": "uint256"
            },
            {
              "name": "start",
              "type": "uint256",
              "internalType": "uint256"
            },
            {
              "name": "cliff",
              "type": "uint256",
              "internalType": "uint256"
            },
            {
              "name": "end",
              "type": "uint256",
              "internalType": "uint256"
            }
          ]
        }
      ],
      "stateMutability": "view"
    },
    {
      "type": "function",
      "name": "removeRecurringPayment",
      "inputs": [
        {
          "name": "prevId",
          "type": "uint256",
          "internalType": "uint256"
        },
        {
          "name": "id",
          "type": "uint256",
          "internalType": "uint256"
        }
      ],
      "outputs": [],
      "stateMutability": "nonpayable"
    },
    {
      "type": "function",
      "name": "revokeModuleRole",
      "inputs": [
        {
          "name": "role",
          "type": "bytes32",
          "internalType": "bytes32"
        },
        {
          "name": "target",
          "type": "address",
          "internalType": "address"
        }
      ],
      "outputs": [],
      "stateMutability": "nonpayable"
    },
    {
      "type": "function",
      "name": "revokeModuleRoleBatched",
      "inputs": [
        {
          "name": "role",
          "type": "bytes32",
          "internalType": "bytes32"
        },
        {
          "name": "targets",
          "type": "address[]",
          "internalType": "address[]"
        }
      ],
      "outputs": [],
      "stateMutability": "nonpayable"
    },
    {
      "type": "function",
      "name": "supportsInterface",
      "inputs": [
        {
          "name": "interfaceId",
          "type": "bytes4",
          "internalType": "bytes4"
        }
      ],
      "outputs": [
        {
          "name": "",
          "type": "bool",
          "internalType": "bool"
        }
      ],
      "stateMutability": "view"
    },
    {
      "type": "function",
      "name": "title",
      "inputs": [],
      "outputs": [
        {
          "name": "",
          "type": "string",
          "internalType": "string"
        }
      ],
      "stateMutability": "view"
    },
    {
      "type": "function",
      "name": "trigger",
      "inputs": [],
      "outputs": [],
      "stateMutability": "nonpayable"
    },
    {
      "type": "function",
      "name": "triggerFor",
      "inputs": [
        {
          "name": "startId",
          "type": "uint256",
          "internalType": "uint256"
        },
        {
          "name": "endId",
          "type": "uint256",
          "internalType": "uint256"
        }
      ],
      "outputs": [],
      "stateMutability": "nonpayable"
    },
    {
      "type": "function",
      "name": "trustedForwarder",
      "inputs": [],
      "outputs": [
        {
          "name": "",
          "type": "address",
          "internalType": "address"
        }
      ],
      "stateMutability": "view"
    },
    {
      "type": "function",
      "name": "url",
      "inputs": [],
      "outputs": [
        {
          "name": "",
          "type": "string",
          "internalType": "string"
        }
      ],
      "stateMutability": "view"
    },
    {
      "type": "function",
      "name": "version",
      "inputs": [],
      "outputs": [
        {
          "name": "",
          "type": "uint256",
          "internalType": "uint256"
        },
        {
          "name": "",
          "type": "uint256",
          "internalType": "uint256"
        }
      ],
      "stateMutability": "view"
    },
    {
      "type": "event",
      "name": "Initialized",
      "inputs": [
        {
          "name": "version",
          "type": "uint64",
          "indexed": false,
          "internalType": "uint64"
        }
      ],
      "anonymous": false
    },
    {
      "type": "event",
      "name": "ModuleInitialized",
      "inputs": [
        {
          "name": "parentOrchestrator",
          "type": "address",
          "indexed": true,
          "internalType": "address"
        },
        {
          "name": "moduleTitle",
          "type": "string",
          "indexed": true,
          "internalType": "string"
        },
        {
          "name": "majorVersion",
          "type": "uint256",
          "indexed": false,
          "internalType": "uint256"
        },
        {
          "name": "minorVersion",
          "type": "uint256",
          "indexed": false,
          "internalType": "uint256"
        }
      ],
      "anonymous": false
    },
    {
      "type": "event",
      "name": "PaymentOrderAdded",
      "inputs": [
        {
          "name": "recipient",
          "type": "address",
          "indexed": true,
          "internalType": "address"
        },
        {
          "name": "token",
          "type": "address",
          "indexed": true,
          "internalType": "address"
        },
        {
          "name": "amount",
          "type": "uint256",
          "indexed": false,
          "internalType": "uint256"
        }
      ],
      "anonymous": false
    },
    {
      "type": "event",
      "name": "RecurringPaymentAdded",
      "inputs": [
        {
          "name": "recurringPaymentId",
          "type": "uint256",
          "indexed": true,
          "internalType": "uint256"
        },
        {
          "name": "amount",
          "type": "uint256",
          "indexed": false,
          "internalType": "uint256"
        },
        {
          "name": "startEpoch",
          "type": "uint256",
          "indexed": false,
          "internalType": "uint256"
        },
        {
          "name": "lastTriggeredEpoch",
          "type": "uint256",
          "indexed": false,
          "internalType": "uint256"
        },
        {
          "name": "recipient",
          "type": "address",
          "indexed": false,
          "internalType": "address"
        }
      ],
      "anonymous": false
    },
    {
      "type": "event",
      "name": "RecurringPaymentRemoved",
      "inputs": [
        {
          "name": "recurringPaymentId",
          "type": "uint256",
          "indexed": true,
          "internalType": "uint256"
        }
      ],
      "anonymous": false
    },
    {
      "type": "event",
      "name": "RecurringPaymentsTriggered",
      "inputs": [
        {
          "name": "currentEpoch",
          "type": "uint256",
          "indexed": true,
          "internalType": "uint256"
        }
      ],
      "anonymous": false
    },
    {
      "type": "error",
      "name": "AddressEmptyCode",
      "inputs": [
        {
          "name": "target",
          "type": "address",
          "internalType": "address"
        }
      ]
    },
    {
      "type": "error",
      "name": "AddressInsufficientBalance",
      "inputs": [
        {
          "name": "account",
          "type": "address",
          "internalType": "address"
        }
      ]
    },
    {
      "type": "error",
      "name": "FailedInnerCall",
      "inputs": []
    },
    {
      "type": "error",
      "name": "InvalidInitialization",
      "inputs": []
    },
    {
      "type": "error",
      "name": "Library__LinkedIdList__IdNotConsecutive",
      "inputs": []
    },
    {
      "type": "error",
      "name": "Library__LinkedIdList__InvalidId",
      "inputs": []
    },
    {
      "type": "error",
      "name": "Library__LinkedIdList__InvalidNewId",
      "inputs": []
    },
    {
      "type": "error",
      "name": "Library__LinkedIdList__InvalidPosition",
      "inputs": []
    },
    {
      "type": "error",
      "name": "Module_OrchestratorCallbackFailed",
      "inputs": [
        {
          "name": "funcSig",
          "type": "string",
          "internalType": "string"
        }
      ]
    },
    {
      "type": "error",
      "name": "Module__CallerNotAuthorized",
      "inputs": [
        {
          "name": "role",
          "type": "bytes32",
          "internalType": "bytes32"
        },
        {
          "name": "caller",
          "type": "address",
          "internalType": "address"
        }
      ]
    },
    {
      "type": "error",
      "name": "Module__ERC20PaymentClientBase__ArrayLengthMismatch",
      "inputs": []
    },
    {
      "type": "error",
      "name": "Module__ERC20PaymentClientBase__CallerNotAuthorized",
      "inputs": []
    },
    {
      "type": "error",
      "name": "Module__ERC20PaymentClientBase__InsufficientFunds",
      "inputs": [
        {
          "name": "token",
          "type": "address",
          "internalType": "address"
        }
      ]
    },
    {
      "type": "error",
      "name": "Module__ERC20PaymentClientBase__InvalidAmount",
      "inputs": []
    },
    {
      "type": "error",
      "name": "Module__ERC20PaymentClientBase__InvalidRecipient",
      "inputs": []
    },
    {
      "type": "error",
      "name": "Module__ERC20PaymentClientBase__InvalidToken",
      "inputs": []
    },
    {
      "type": "error",
      "name": "Module__ERC20PaymentClientBase__Invalidend",
      "inputs": []
    },
    {
      "type": "error",
      "name": "Module__ERC20PaymentClientBase__TokenTransferFailed",
      "inputs": []
    },
    {
      "type": "error",
      "name": "Module__InvalidMetadata",
      "inputs": []
    },
    {
      "type": "error",
      "name": "Module__InvalidOrchestratorAddress",
      "inputs": []
    },
    {
      "type": "error",
      "name": "Module__LM_PC_RecurringPayments__InvalidEpochLength",
      "inputs": []
    },
    {
      "type": "error",
      "name": "Module__LM_PC_RecurringPayments__InvalidRecurringPaymentId",
      "inputs": []
    },
    {
      "type": "error",
      "name": "Module__LM_PC_RecurringPayments__InvalidStartEpoch",
      "inputs": []
    },
    {
      "type": "error",
      "name": "Module__LM_PC_RecurringPayments__StartIdNotBeforeEndId",
      "inputs": []
    },
    {
      "type": "error",
      "name": "Module__OnlyCallableByOrchestrator",
      "inputs": []
    },
    {
      "type": "error",
      "name": "NotInitializing",
      "inputs": []
    },
    {
      "type": "error",
      "name": "SafeERC20FailedOperation",
      "inputs": [
        {
          "name": "token",
          "type": "address",
          "internalType": "address"
        }
      ]
    }
  ],
  "bytecode": {
    "object": "0x60a06040523480156200001157600080fd5b5060006080526200002162000027565b620000db565b7ff0c57e16840df040f15088dc2f81fe391c3923bec73e23a9662efc9c229c6a00805468010000000000000000900460ff1615620000785760405163f92ee8a960e01b815260040160405180910390fd5b80546001600160401b0390811614620000d85780546001600160401b0319166001600160401b0390811782556040519081527fc7f505b2f371ae2175ee4913f4499e1f2633a7b5936321eed1cdaeb6115181d29060200160405180910390a15b50565b608051613bc4620000f460003960005050613bc46000f3fe608060405234801561001057600080fd5b50600436106101cf5760003560e01c80636c67e80711610104578063b74795d9116100a2578063c42542e311610071578063c42542e3146103db578063c7829b6f1461042a578063c83e63621461043d578063cfe8a73b1461045057600080fd5b8063b74795d914610398578063b97dd9e2146103a9578063bcb61920146103b1578063c0231ff6146103c457600080fd5b80637da0a877116100de5780637da0a8771461034a5780637fec8d381461036a5780638008dd8e14610372578063b33ec6181461038557600080fd5b80636c67e8071461031a57806375fa0b761461032d5780637998a1c41461034257600080fd5b80634a79d50c116101715780635600f04f1161014b5780635600f04f146102d9578063572b6c05146102e157806362fe48fd146102f4578063648bc2cd1461030757600080fd5b80634a79d50c1461029657806350287478146102ab57806354fd4d50146102be57600080fd5b8063272bbd44116101ad578063272bbd4414610226578063274b903a146102395780632e84db5f1461025a57806342dfe9581461028357600080fd5b806301ffc9a7146101d45780631bf3bfe8146101fc57806324e3027014610211575b600080fd5b6101e76101e236600461323d565b610458565b60405190151581526020015b60405180910390f35b61020461049c565b6040516101f391906132a3565b61022461021f3660046132b6565b6104ad565b005b6102246102343660046132b6565b610665565b61024c610247366004613335565b610754565b6040519081526020016101f3565b61024c610268366004613363565b6001600160a01b031660009081526006602052604090205490565b61022461029136600461346e565b610769565b61029e610959565b6040516101f3919061359a565b61024c6102b9366004613335565b6109ee565b600154600254604080519283526020830191909152016101f3565b61029e6109fb565b6101e76102ef366004613363565b610a0d565b6101e7610302366004613335565b610a95565b6102246103153660046135ad565b610aa2565b6102246103283660046135cf565b610b48565b610335610c82565b6040516101f39190613670565b61024c610d25565b610352610e70565b6040516001600160a01b0390911681526020016101f3565b610224610ee8565b61024c610380366004613683565b610f02565b6102246103933660046136bc565b61104e565b6000546001600160a01b0316610352565b61024c6110c5565b6102246103bf3660046135cf565b6110d5565b6103cc6111e5565b6040516101f3939291906136e8565b6103ee6103e9366004613335565b6116bd565b6040516101f391908151815260208083015190820152604080830151908201526060918201516001600160a01b03169181019190915260800190565b6102246104383660046135ad565b61176b565b61024c61044b366004613335565b6117f6565b60085461024c565b60006001600160e01b031982167f280d451b000000000000000000000000000000000000000000000000000000001480610496575061049682611806565b92915050565b60606104a8600a611844565b905090565b6000546040805163d09edf3160e01b8152905161058a926001600160a01b03169163d09edf319160048083019260209291908290030181865afa1580156104f8573d6000803e3d6000fd5b505050506040513d601f19601f8201168201806040525081019061051c919061375b565b6001600160a01b03166355ff58d46040518163ffffffff1660e01b8152600401602060405180830381865afa158015610559573d6000803e3d6000fd5b505050506040513d601f19601f8201168201806040525081019061057d9190613778565b6105856118fe565b611950565b60008054906101000a90046001600160a01b03166001600160a01b031663d09edf316040518163ffffffff1660e01b8152600401602060405180830381865afa1580156105db573d6000803e3d6000fd5b505050506040513d601f19601f820116820180604052508101906105ff919061375b565b6001600160a01b0316637d540a648484846040518463ffffffff1660e01b815260040161062e93929190613791565b600060405180830381600087803b15801561064857600080fd5b505af115801561065c573d6000803e3d6000fd5b50505050505050565b6000546040805163d09edf3160e01b815290516106b0926001600160a01b03169163d09edf319160048083019260209291908290030181865afa1580156104f8573d6000803e3d6000fd5b60008054906101000a90046001600160a01b03166001600160a01b031663d09edf316040518163ffffffff1660e01b8152600401602060405180830381865afa158015610701573d6000803e3d6000fd5b505050506040513d601f19601f82011682018060405250810190610725919061375b565b6001600160a01b031663648154538484846040518463ffffffff1660e01b815260040161062e93929190613791565b60008161075f6110c5565b61049691906137ff565b7ff0c57e16840df040f15088dc2f81fe391c3923bec73e23a9662efc9c229c6a00805468010000000000000000810460ff16159067ffffffffffffffff166000811580156107b45750825b905060008267ffffffffffffffff1660011480156107d15750303b155b9050811580156107df575080155b15610816576040517ff92ee8a900000000000000000000000000000000000000000000000000000000815260040160405180910390fd5b84547fffffffffffffffffffffffffffffffffffffffffffffffff0000000000000000166001178555831561086157845468ff00000000000000001916680100000000000000001785555b61086b8888611aa2565b6000196000819052600c6020527fa10f30cc98fff5708c93df4a220b8f117034e197ce203f377237571fbe641ae7819055600b55858060200190518101906108b39190613778565b600881905562093a8011806108cd57506301dfe200600854115b15610904576040517f7d65a31300000000000000000000000000000000000000000000000000000000815260040160405180910390fd5b831561094f57845468ff000000000000000019168555604051600181527fc7f505b2f371ae2175ee4913f4499e1f2633a7b5936321eed1cdaeb6115181d29060200160405180910390a15b5050505050505050565b60606001600301805461096b90613812565b80601f016020809104026020016040519081016040528092919081815260200182805461099790613812565b80156109e45780601f106109b9576101008083540402835291602001916109e4565b820191906000526020600020905b8154815290600101906020018083116109c757829003601f168201915b5050505050905090565b6000610496600a83611bf3565b60606001600201805461096b90613812565b600080546040517f572b6c050000000000000000000000000000000000000000000000000000000081526001600160a01b0384811660048301529091169063572b6c0590602401602060405180830381865afa158015610a71573d6000803e3d6000fd5b505050506040513d601f19601f82011682018060405250810190610496919061385b565b6000610496600a83611ce3565b81610aac81610a95565b610ac9576040516366f62b2360e01b815260040160405180910390fd5b81610ad381610a95565b610af0576040516366f62b2360e01b815260040160405180910390fd5b838380821115610b2c576040517fb02d7cbb00000000000000000000000000000000000000000000000000000000815260040160405180910390fd5b610b4086610b3b600a88611d0b565b611d71565b505050505050565b6000546040805163d09edf3160e01b81529051610b93926001600160a01b03169163d09edf319160048083019260209291908290030181865afa1580156104f8573d6000803e3d6000fd5b60008054906101000a90046001600160a01b03166001600160a01b031663d09edf316040518163ffffffff1660e01b8152600401602060405180830381865afa158015610be4573d6000803e3d6000fd5b505050506040513d601f19601f82011682018060405250810190610c08919061375b565b6040517fe1788154000000000000000000000000000000000000000000000000000000008152600481018490526001600160a01b038381166024830152919091169063e1788154906044015b600060405180830381600087803b158015610c6e57600080fd5b505af1158015610b40573d6000803e3d6000fd5b60606005805480602002602001604051908101604052809291908181526020016000905b82821015610d1c5760008481526020908190206040805160c0810182526006860290920180546001600160a01b0390811684526001808301549091168486015260028201549284019290925260038101546060840152600481015460808401526005015460a08301529083529092019101610ca6565b50505050905090565b604080516080810182526001805482526002546020830152600380546000946104a894939290840191610d5790613812565b80601f0160208091040260200160405190810160405280929190818152602001828054610d8390613812565b8015610dd05780601f10610da557610100808354040283529160200191610dd0565b820191906000526020600020905b815481529060010190602001808311610db357829003601f168201915b50505050508152602001600382018054610de990613812565b80601f0160208091040260200160405190810160405280929190818152602001828054610e1590613812565b8015610e625780601f10610e3757610100808354040283529160200191610e62565b820191906000526020600020905b815481529060010190602001808311610e4557829003601f168201915b5050505050815250506121e6565b60008060009054906101000a90046001600160a01b03166001600160a01b0316637da0a8776040518163ffffffff1660e01b8152600401602060405180830381865afa158015610ec4573d6000803e3d6000fd5b505050506040513d601f19601f820116820180604052508101906104a8919061375b565b610f00610ef8600a600019611d0b565b600019611d71565b565b6000610f0c612226565b83610f16816124da565b8380610f206110c5565b1115610f58576040517fb941b52000000000000000000000000000000000000000000000000000000000815260040160405180910390fd5b83610f6281612517565b6000600760008154610f7390613876565b91829055509050610f85600a8261256c565b60008181526009602052604090208881556001908101889055610fa89088613890565b60008281526009602052604090206002810191909155600301805473ffffffffffffffffffffffffffffffffffffffff19166001600160a01b038816179055807f1c3e2cbb4bc61dfafd6e9635e41a29611c202472f2c4252180bc2aacfb5dcb2c8989611016600182613890565b604080519384526020840192909252908201526001600160a01b038916606082015260800160405180910390a2979650505050505050565b61105e6110596118fe565b6125f9565b611094576040517fe4597a6b00000000000000000000000000000000000000000000000000000000815260040160405180910390fd5b6001600160a01b038216600090815260066020526040812080548392906110bc908490613890565b90915550505050565b6000600854426104a891906138a3565b6000546040805163d09edf3160e01b81529051611120926001600160a01b03169163d09edf319160048083019260209291908290030181865afa1580156104f8573d6000803e3d6000fd5b60008054906101000a90046001600160a01b03166001600160a01b031663d09edf316040518163ffffffff1660e01b8152600401602060405180830381865afa158015611171573d6000803e3d6000fd5b505050506040513d601f19601f82011682018060405250810190611195919061375b565b6040517fba66f9fc000000000000000000000000000000000000000000000000000000008152600481018490526001600160a01b038381166024830152919091169063ba66f9fc90604401610c54565b60608060606111f56110596118fe565b61122b576040517fe4597a6b00000000000000000000000000000000000000000000000000000000815260040160405180910390fd5b6005546000808267ffffffffffffffff81111561124a5761124a613380565b604051908082528060200260200182016040528015611273578160200160208202803683370190505b50905060008367ffffffffffffffff81111561129157611291613380565b6040519080825280602002602001820160405280156112ba578160200160208202803683370190505b50905060008467ffffffffffffffff8111156112d8576112d8613380565b60405190808252806020026020018201604052801561135457816020015b6113416040518060c0016040528060006001600160a01b0316815260200160006001600160a01b03168152602001600081526020016000815260200160008152602001600081525090565b8152602001906001900390816112f65790505b50905060005b8581101561152e5760058181548110611375576113756138c5565b60009182526020918290206040805160c081018252600690930290910180546001600160a01b03908116845260018201541693830193909352600283015490820152600382015460608201526004820154608082015260059091015460a082015282518390839081106113ea576113ea6138c5565b60200260200101819052506000805b8681101561146157838381518110611413576114136138c5565b6020026020010151602001516001600160a01b031686828151811061143a5761143a6138c5565b60200260200101516001600160a01b0316036114595760019150611461565b6001016113f9565b508061152557828281518110611479576114796138c5565b602002602001015160200151858781518110611497576114976138c5565b60200260200101906001600160a01b031690816001600160a01b031681525050600660008484815181106114cd576114cd6138c5565b6020026020010151602001516001600160a01b03166001600160a01b031681526020019081526020016000205484878151811061150c5761150c6138c5565b60209081029190910101528561152181613876565b9650505b5060010161135a565b5061153b600560006131c8565b60008467ffffffffffffffff81111561155657611556613380565b60405190808252806020026020018201604052801561157f578160200160208202803683370190505b50905060008567ffffffffffffffff81111561159d5761159d613380565b6040519080825280602002602001820160405280156115c6578160200160208202803683370190505b50905060005b868110156116ac578581815181106115e6576115e66138c5565b6020026020010151838281518110611600576116006138c5565b60200260200101906001600160a01b031690816001600160a01b031681525050848181518110611632576116326138c5565b602002602001015182828151811061164c5761164c6138c5565b6020026020010181815250506116826116636118fe565b848381518110611675576116756138c5565b6020026020010151612692565b6116a4838281518110611697576116976138c5565b60200260200101516126b7565b6001016115cc565b509199909850909650945050505050565b6116f1604051806080016040528060008152602001600081526020016000815260200160006001600160a01b031681525090565b816116fb81610a95565b611718576040516366f62b2360e01b815260040160405180910390fd5b6000838152600960209081526040918290208251608081018452815481526001820154928101929092526002810154928201929092526003909101546001600160a01b0316606082015291505b50919050565b611773612226565b61178281610b3b600a82611d0b565b61178e600a8383612a33565b6000818152600960205260408082208281556001810183905560028101839055600301805473ffffffffffffffffffffffffffffffffffffffff191690555182917f49dd16c810a73510f0cdd59f21ce525b27c468a7f759207177bc9a1e4820266691a25050565b60006008548261049691906138a3565b60006001600160e01b031982167f286309c7000000000000000000000000000000000000000000000000000000001480610496575061049682612b14565b60606000826000015467ffffffffffffffff81111561186557611865613380565b60405190808252806020026020018201604052801561188e578160200160208202803683370190505b506000196000908152600285016020526040812054919250905b60001981146118f557808383815181106118c4576118c46138c5565b60209081029190910181019190915260009182526002860190526040902054816118ed81613876565b9250506118a8565b50909392505050565b600036601461190c33610a0d565b80156119185750808210155b156119485760003661192a8385613890565b6119359282906138db565b61193e91613905565b60601c9250505090565b339250505090565b60008054906101000a90046001600160a01b03166001600160a01b031663d09edf316040518163ffffffff1660e01b8152600401602060405180830381865afa1580156119a1573d6000803e3d6000fd5b505050506040513d601f19601f820116820180604052508101906119c5919061375b565b6040517f91d14854000000000000000000000000000000000000000000000000000000008152600481018490526001600160a01b03838116602483015291909116906391d1485490604401602060405180830381865afa158015611a2d573d6000803e3d6000fd5b505050506040513d601f19601f82011682018060405250810190611a51919061385b565b611a9e576040517f42abbb77000000000000000000000000000000000000000000000000000000008152600481018390526001600160a01b03821660248201526044015b60405180910390fd5b5050565b611aaa612b7b565b6001600160a01b038216611aea576040517f7280679300000000000000000000000000000000000000000000000000000000815260040160405180910390fd5b6000805473ffffffffffffffffffffffffffffffffffffffff19166001600160a01b038416179055611b1b81612be2565b611b51576040517f7511254100000000000000000000000000000000000000000000000000000000815260040160405180910390fd5b8051600190815560208201516002556040820151829190600390611b759082613993565b5060608201516003820190611b8a9082613993565b5050506060810151604051611b9f9190613a53565b604080519182900382208351602080860151918552840152916001600160a01b038516917feb175f148a71d29a5f7bf5439182fcd81e6ea9cfc8a11b54ab0f705fa98fa8ca91015b60405180910390a35050565b6000818152600283016020526040812054839083908303611c40576040517ff7fd4fb200000000000000000000000000000000000000000000000000000000815260040160405180910390fd5b6000198403611c555784600101549250611cdb565b6000611c6086611844565b805190915060005b81811015611cd75786838281518110611c8357611c836138c5565b602002602001015103611ccf5780600003611ca057600019611cc5565b82611cac600183613890565b81518110611cbc57611cbc6138c5565b60200260200101515b9550505050611cdb565b600101611c68565b5050505b505092915050565b600081815260028301602052604081205415801590611d0457506000198214155b9392505050565b6000818152600283016020526040812054839083908303611d58576040517ff7fd4fb200000000000000000000000000000000000000000000000000000000815260040160405180910390fd5b5050506000908152600291909101602052604090205490565b816000611d7c6110c5565b9050611db2604051806080016040528060008152602001600081526020016000815260200160006001600160a01b031681525090565b60005b8484146120ca576000848152600960209081526040918290208251608081018452815481526001820154928101839052600282015493810193909352600301546001600160a01b0316606083015290925083106120b4576040820151611e1b9084613890565b905080156120b457611f5c6040518060c0016040528084606001516001600160a01b03168152602001611e566000546001600160a01b031690565b6001600160a01b03166304baed9e6040518163ffffffff1660e01b8152600401602060405180830381865afa158015611e93573d6000803e3d6000fd5b505050506040513d601f19601f82011682018060405250810190611eb7919061375b565b6001600160a01b031663fc0c546a6040518163ffffffff1660e01b8152600401602060405180830381865afa158015611ef4573d6000803e3d6000fd5b505050506040513d601f19601f82011682018060405250810190611f18919061375b565b6001600160a01b031681528451602082015242604082015260006060820152600854608090910190611f4b8760016137ff565b611f559190613a6f565b9052612c34565b600181111561209f5761209f6040518060c0016040528084606001516001600160a01b03168152602001611f986000546001600160a01b031690565b6001600160a01b03166304baed9e6040518163ffffffff1660e01b8152600401602060405180830381865afa158015611fd5573d6000803e3d6000fd5b505050506040513d601f19601f82011682018060405250810190611ff9919061375b565b6001600160a01b031663fc0c546a6040518163ffffffff1660e01b8152600401602060405180830381865afa158015612036573d6000803e3d6000fd5b505050506040513d601f19601f8201168201806040525081019061205a919061375b565b6001600160a01b03168152602001612073600185613890565b855161207f9190613a6f565b81526020014281526020016000815260200160085486611f559190613a6f565b60008481526009602052604090206002018390555b6000938452600c60205260409093205492611db5565b60405183907f80e11167e6b80b8377b5697de9ae975af33e62fd6418deb3ab3f29f2afad7efc90600090a260008054906101000a90046001600160a01b03166001600160a01b031663f1c6bdf86040518163ffffffff1660e01b8152600401602060405180830381865afa158015612146573d6000803e3d6000fd5b505050506040513d601f19601f8201168201806040525081019061216a919061375b565b6040517fe151fc610000000000000000000000000000000000000000000000000000000081523060048201526001600160a01b03919091169063e151fc6190602401600060405180830381600087803b1580156121c657600080fd5b505af11580156121da573d6000803e3d6000fd5b50505050505050505050565b600081600001518260400151836060015160405160200161220993929190613a86565b604051602081830303815290604052805190602001209050919050565b60008060009054906101000a90046001600160a01b03166001600160a01b031663d09edf316040518163ffffffff1660e01b8152600401602060405180830381865afa15801561227a573d6000803e3d6000fd5b505050506040513d601f19601f8201168201806040525081019061229e919061375b565b90506000816001600160a01b03166355ff58d46040518163ffffffff1660e01b8152600401602060405180830381865afa1580156122e0573d6000803e3d6000fd5b505050506040513d601f19601f820116820180604052508101906123049190613778565b90506000826001600160a01b031663328c4c306040518163ffffffff1660e01b8152600401602060405180830381865afa158015612346573d6000803e3d6000fd5b505050506040513d601f19601f8201168201806040525081019061236a9190613778565b9050826001600160a01b03166391d14854836123846118fe565b6040516001600160e01b031960e085901b16815260048101929092526001600160a01b03166024820152604401602060405180830381865afa1580156123ce573d6000803e3d6000fd5b505050506040513d601f19601f820116820180604052508101906123f2919061385b565b8061247e5750826001600160a01b03166391d14854826124106118fe565b6040516001600160e01b031960e085901b16815260048101929092526001600160a01b03166024820152604401602060405180830381865afa15801561245a573d6000803e3d6000fd5b505050506040513d601f19601f8201168201806040525081019061247e919061385b565b1561248857505050565b816124916118fe565b6040517f42abbb7700000000000000000000000000000000000000000000000000000000815260048101929092526001600160a01b03166024820152604401611a95565b505050565b80600003612514576040517fa39a350e00000000000000000000000000000000000000000000000000000000815260040160405180910390fd5b50565b6001600160a01b038116158061253557506001600160a01b03811630145b15612514576040517f0cef278700000000000000000000000000000000000000000000000000000000815260040160405180910390fd5b81816125788282611ce3565b80612581575080155b156125b8576040517f582fbbaf00000000000000000000000000000000000000000000000000000000815260040160405180910390fd5b6001840180546000908152600286016020526040808220869055858252812060001990559084905584549085906125ee83613876565b919050555050505050565b60008054604080517ff1c6bdf800000000000000000000000000000000000000000000000000000000815290516001600160a01b0380861693169163f1c6bdf89160048083019260209291908290030181865afa15801561265e573d6000803e3d6000fd5b505050506040513d601f19601f82011682018060405250810190612682919061375b565b6001600160a01b03161492915050565b6001600160a01b038116600081815260066020526040902054611a9e91908490612df6565b6001600160a01b0381166000818152600660205260408082205490517f70a082310000000000000000000000000000000000000000000000000000000081523060048201529092906370a0823190602401602060405180830381865afa158015612725573d6000803e3d6000fd5b505050506040513d601f19601f820116820180604052508101906127499190613778565b9050818110156124d55760008054906101000a90046001600160a01b03166001600160a01b03166304baed9e6040518163ffffffff1660e01b8152600401602060405180830381865afa1580156127a4573d6000803e3d6000fd5b505050506040513d601f19601f820116820180604052508101906127c8919061375b565b6001600160a01b031663fc0c546a6040518163ffffffff1660e01b8152600401602060405180830381865afa158015612805573d6000803e3d6000fd5b505050506040513d601f19601f82011682018060405250810190612829919061375b565b6001600160a01b0316836001600160a01b0316036129f65760008054604080517f04baed9e00000000000000000000000000000000000000000000000000000000815290516001600160a01b039092169163685dc6b19183916304baed9e916004808201926020929091908290030181865afa1580156128ad573d6000803e3d6000fd5b505050506040513d601f19601f820116820180604052508101906128d1919061375b565b306128dc8688613890565b6040516001600160a01b039092166024830152604482015260640160408051601f198184030181529181526020820180517bffffffffffffffffffffffffffffffffffffffffffffffffffffffff167f759cc4b500000000000000000000000000000000000000000000000000000000179052516001600160e01b031960e085901b16815261296f929190600401613ac3565b6000604051808303816000875af115801561298e573d6000803e3d6000fd5b505050506040513d6000823e601f3d908101601f191682016040526129b69190810190613aed565b509050806129f0576040517f1a299f4400000000000000000000000000000000000000000000000000000000815260040160405180910390fd5b50505050565b6040517f8ca235960000000000000000000000000000000000000000000000000000000081526001600160a01b0384166004820152602401611a95565b8281612a3f8282611ce3565b612a75576040517f8f454d2d00000000000000000000000000000000000000000000000000000000815260040160405180910390fd5b60008481526002860160205260409020548590859085908114612ac4576040517f3065847500000000000000000000000000000000000000000000000000000000815260040160405180910390fd5b600086815260028901602052604080822080548a8452918320919091558782528190558854908990612af583613b77565b91905055508760010154860361094f5750505050506001929092015550565b60006001600160e01b031982167f179dfb4500000000000000000000000000000000000000000000000000000000148061049657507f01ffc9a7000000000000000000000000000000000000000000000000000000006001600160e01b0319831614610496565b7ff0c57e16840df040f15088dc2f81fe391c3923bec73e23a9662efc9c229c6a005468010000000000000000900460ff16610f00576040517fd7e6bcf800000000000000000000000000000000000000000000000000000000815260040160405180910390fd5b6000816040015151600003612bf957506000919050565b816060015151600003612c0e57506000919050565b8151158015612c1f57506020820151155b15612c2c57506000919050565b506001919050565b80612c3e81612f06565b81604001516006600084602001516001600160a01b03166001600160a01b031681526020019081526020016000206000828254612c7b91906137ff565b909155505060058054600181018255600091909152825160069091027f036b6384b5eca791c62761152d0c79bb0604c104a5fb6f4eb0703f3154bb3db0810180546001600160a01b0393841673ffffffffffffffffffffffffffffffffffffffff19918216811790925560208601517f036b6384b5eca791c62761152d0c79bb0604c104a5fb6f4eb0703f3154bb3db18401805491909516911681179093556040808601517f036b6384b5eca791c62761152d0c79bb0604c104a5fb6f4eb0703f3154bb3db2840181905560608701517f036b6384b5eca791c62761152d0c79bb0604c104a5fb6f4eb0703f3154bb3db385015560808701517f036b6384b5eca791c62761152d0c79bb0604c104a5fb6f4eb0703f3154bb3db485015560a08701517f036b6384b5eca791c62761152d0c79bb0604c104a5fb6f4eb0703f3154bb3db5909401939093555190917f21b8b94494ef1aff6ce0f5f3741800bdb27204fd430c1280b54d4cc653ae6f3a91611be791815260200190565b604080516001600160a01b038416602482015260448082018490528251808303909101815260649091019091526020810180517bffffffffffffffffffffffffffffffffffffffffffffffffffffffff167f095ea7b300000000000000000000000000000000000000000000000000000000179052612e758482612f2b565b6129f057604080516001600160a01b038516602482015260006044808301919091528251808303909101815260649091019091526020810180517bffffffffffffffffffffffffffffffffffffffffffffffffffffffff167f095ea7b300000000000000000000000000000000000000000000000000000000179052612efc908590612fd3565b6129f08482612fd3565b8051612f1190612517565b612f1e816020015161304f565b61251481604001516124da565b6000806000846001600160a01b031684604051612f489190613a53565b6000604051808303816000865af19150503d8060008114612f85576040519150601f19603f3d011682016040523d82523d6000602084013e612f8a565b606091505b5091509150818015612fb4575080511580612fb4575080806020019051810190612fb4919061385b565b8015612fca57506000856001600160a01b03163b115b95945050505050565b6000612fe86001600160a01b0384168361308f565b9050805160001415801561300d57508080602001905181019061300b919061385b565b155b156124d5576040517f5274afe70000000000000000000000000000000000000000000000000000000081526001600160a01b0384166004820152602401611a95565b6001600160a01b038116612514576040517f9bfa9a6b00000000000000000000000000000000000000000000000000000000815260040160405180910390fd5b6060611d048383600084600080856001600160a01b031684866040516130b59190613a53565b60006040518083038185875af1925050503d80600081146130f2576040519150601f19603f3d011682016040523d82523d6000602084013e6130f7565b606091505b5091509150613107868383613111565b9695505050505050565b6060826131265761312182613186565b611d04565b815115801561313d57506001600160a01b0384163b155b1561317f576040517f9996b3150000000000000000000000000000000000000000000000000000000081526001600160a01b0385166004820152602401611a95565b5080611d04565b8051156131965780518082602001fd5b6040517f1425ea4200000000000000000000000000000000000000000000000000000000815260040160405180910390fd5b508054600082556006029060005260206000209081019061251491905b8082111561323957805473ffffffffffffffffffffffffffffffffffffffff1990811682556001820180549091169055600060028201819055600382018190556004820181905560058201556006016131e5565b5090565b60006020828403121561324f57600080fd5b81356001600160e01b031981168114611d0457600080fd5b60008151808452602080850194506020840160005b838110156132985781518752958201959082019060010161327c565b509495945050505050565b602081526000611d046020830184613267565b6000806000604084860312156132cb57600080fd5b83359250602084013567ffffffffffffffff808211156132ea57600080fd5b818601915086601f8301126132fe57600080fd5b81358181111561330d57600080fd5b8760208260051b850101111561332257600080fd5b6020830194508093505050509250925092565b60006020828403121561334757600080fd5b5035919050565b6001600160a01b038116811461251457600080fd5b60006020828403121561337557600080fd5b8135611d048161334e565b634e487b7160e01b600052604160045260246000fd5b6040516080810167ffffffffffffffff811182821017156133b9576133b9613380565b60405290565b604051601f8201601f1916810167ffffffffffffffff811182821017156133e8576133e8613380565b604052919050565b600067ffffffffffffffff82111561340a5761340a613380565b50601f01601f191660200190565b600082601f83011261342957600080fd5b813561343c613437826133f0565b6133bf565b81815284602083860101111561345157600080fd5b816020850160208301376000918101602001919091529392505050565b60008060006060848603121561348357600080fd5b833561348e8161334e565b9250602084013567ffffffffffffffff808211156134ab57600080fd5b90850190608082880312156134bf57600080fd5b6134c7613396565b82358152602083013560208201526040830135828111156134e757600080fd5b6134f389828601613418565b60408301525060608301358281111561350b57600080fd5b61351789828601613418565b6060830152509350604086013591508082111561353357600080fd5b5061354086828701613418565b9150509250925092565b60005b8381101561356557818101518382015260200161354d565b50506000910152565b6000815180845261358681602086016020860161354a565b601f01601f19169290920160200192915050565b602081526000611d04602083018461356e565b600080604083850312156135c057600080fd5b50508035926020909101359150565b600080604083850312156135e257600080fd5b8235915060208301356135f48161334e565b809150509250929050565b60008151808452602080850194506020840160005b8381101561329857815180516001600160a01b03908116895284820151168489015260408082015190890152606080820151908901526080808201519089015260a0908101519088015260c09096019590820190600101613614565b602081526000611d0460208301846135ff565b60008060006060848603121561369857600080fd5b833592506020840135915060408401356136b18161334e565b809150509250925092565b600080604083850312156136cf57600080fd5b82356136da8161334e565b946020939093013593505050565b6060815260006136fb60608301866135ff565b82810360208481019190915285518083528682019282019060005b8181101561373b5784516001600160a01b031683529383019391830191600101613716565b5050848103604086015261374f8187613267565b98975050505050505050565b60006020828403121561376d57600080fd5b8151611d048161334e565b60006020828403121561378a57600080fd5b5051919050565b83815260406020808301829052908201839052600090849060608401835b868110156137dd5783356137c28161334e565b6001600160a01b0316825292820192908201906001016137af565b50979650505050505050565b634e487b7160e01b600052601160045260246000fd5b80820180821115610496576104966137e9565b600181811c9082168061382657607f821691505b60208210810361176557634e487b7160e01b600052602260045260246000fd5b8051801515811461385657600080fd5b919050565b60006020828403121561386d57600080fd5b611d0482613846565b60006000198203613889576138896137e9565b5060010190565b81810381811115610496576104966137e9565b6000826138c057634e487b7160e01b600052601260045260246000fd5b500490565b634e487b7160e01b600052603260045260246000fd5b600080858511156138eb57600080fd5b838611156138f857600080fd5b5050820193919092039150565b7fffffffffffffffffffffffffffffffffffffffff0000000000000000000000008135818116916014851015611cdb5760149490940360031b84901b1690921692915050565b601f8211156124d5576000816000526020600020601f850160051c810160208610156139745750805b601f850160051c820191505b81811015610b4057828155600101613980565b815167ffffffffffffffff8111156139ad576139ad613380565b6139c1816139bb8454613812565b8461394b565b602080601f8311600181146139f657600084156139de5750858301515b600019600386901b1c1916600185901b178555610b40565b600085815260208120601f198616915b82811015613a2557888601518255948401946001909101908401613a06565b5085821015613a435787850151600019600388901b60f8161c191681555b5050505050600190811b01905550565b60008251613a6581846020870161354a565b9190910192915050565b8082028115828204841417610496576104966137e9565b83815260008351613a9e81602085016020880161354a565b80830190508351613ab681602084016020880161354a565b0160200195945050505050565b6001600160a01b0383168152604060208201526000613ae5604083018461356e565b949350505050565b60008060408385031215613b0057600080fd5b613b0983613846565b9150602083015167ffffffffffffffff811115613b2557600080fd5b8301601f81018513613b3657600080fd5b8051613b44613437826133f0565b818152866020838501011115613b5957600080fd5b613b6a82602083016020860161354a565b8093505050509250929050565b600081613b8657613b866137e9565b50600019019056fea2646970667358221220d259becb89079fc508d2a3a667b2f4d15486578b808a97800ada9fe3f08330a664736f6c63430008170033",
    "linkReferences": {}
  },
  "methodIdentifiers": {
    "addRecurringPayment(uint256,uint256,address)": "8008dd8e",
    "amountPaid(address,uint256)": "b33ec618",
    "collectPaymentOrders()": "c0231ff6",
    "getCurrentEpoch()": "b97dd9e2",
    "getEpochFromTimestamp(uint256)": "c83e6362",
    "getEpochLength()": "cfe8a73b",
    "getFutureEpoch(uint256)": "274b903a",
    "getPreviousPaymentId(uint256)": "50287478",
    "getRecurringPaymentInformation(uint256)": "c42542e3",
    "grantModuleRole(bytes32,address)": "6c67e807",
    "grantModuleRoleBatched(bytes32,address[])": "272bbd44",
    "identifier()": "7998a1c4",
    "init(address,(uint256,uint256,string,string),bytes)": "42dfe958",
    "isExistingRecurringPaymentId(uint256)": "62fe48fd",
    "isTrustedForwarder(address)": "572b6c05",
    "listRecurringPaymentIds()": "1bf3bfe8",
    "orchestrator()": "b74795d9",
    "outstandingTokenAmount(address)": "2e84db5f",
    "paymentOrders()": "75fa0b76",
    "removeRecurringPayment(uint256,uint256)": "c7829b6f",
    "revokeModuleRole(bytes32,address)": "bcb61920",
    "revokeModuleRoleBatched(bytes32,address[])": "24e30270",
    "supportsInterface(bytes4)": "01ffc9a7",
    "title()": "4a79d50c",
    "trigger()": "7fec8d38",
    "triggerFor(uint256,uint256)": "648bc2cd",
    "trustedForwarder()": "7da0a877",
    "url()": "5600f04f",
    "version()": "54fd4d50"
  },
  "id": 148
}