{
  "abi": [
    {
      "type": "function",
      "name": "ASSERTER_ROLE",
      "inputs": [],
      "outputs": [
        {
          "name": "",
          "type": "bytes32",
          "internalType": "bytes32"
        }
      ],
      "stateMutability": "view"
    },
    {
      "type": "function",
      "name": "KPICounter",
      "inputs": [],
      "outputs": [
        {
          "name": "",
          "type": "uint256",
          "internalType": "uint256"
        }
      ],
      "stateMutability": "view"
    },
    {
      "type": "function",
      "name": "MAX_QUEUE_LENGTH",
      "inputs": [],
      "outputs": [
        {
          "name": "",
          "type": "uint256",
          "internalType": "uint256"
        }
      ],
      "stateMutability": "view"
    },
    {
      "type": "function",
      "name": "amountPaid",
      "inputs": [
        {
          "name": "token",
          "type": "address",
          "internalType": "address"
        },
        {
          "name": "amount",
          "type": "uint256",
          "internalType": "uint256"
        }
      ],
      "outputs": [],
      "stateMutability": "nonpayable"
    },
    {
      "type": "function",
      "name": "assertDataFor",
      "inputs": [
        {
          "name": "dataId",
          "type": "bytes32",
          "internalType": "bytes32"
        },
        {
          "name": "data",
          "type": "bytes32",
          "internalType": "bytes32"
        },
        {
          "name": "asserter",
          "type": "address",
          "internalType": "address"
        }
      ],
      "outputs": [
        {
          "name": "assertionId",
          "type": "bytes32",
          "internalType": "bytes32"
        }
      ],
      "stateMutability": "nonpayable"
    },
    {
      "type": "function",
      "name": "assertionConfig",
      "inputs": [
        {
          "name": "",
          "type": "bytes32",
          "internalType": "bytes32"
        }
      ],
      "outputs": [
        {
          "name": "creationTime",
          "type": "uint256",
          "internalType": "uint256"
        },
        {
          "name": "assertedValue",
          "type": "uint256",
          "internalType": "uint256"
        },
        {
          "name": "KpiToUse",
          "type": "uint256",
          "internalType": "uint256"
        },
        {
          "name": "distributed",
          "type": "bool",
          "internalType": "bool"
        }
      ],
      "stateMutability": "view"
    },
    {
      "type": "function",
      "name": "assertionData",
      "inputs": [
        {
          "name": "",
          "type": "bytes32",
          "internalType": "bytes32"
        }
      ],
      "outputs": [
        {
          "name": "dataId",
          "type": "bytes32",
          "internalType": "bytes32"
        },
        {
          "name": "data",
          "type": "bytes32",
          "internalType": "bytes32"
        },
        {
          "name": "asserter",
          "type": "address",
          "internalType": "address"
        },
        {
          "name": "resolved",
          "type": "bool",
          "internalType": "bool"
        }
      ],
      "stateMutability": "view"
    },
    {
      "type": "function",
      "name": "assertionDisputedCallback",
      "inputs": [
        {
          "name": "assertionId",
          "type": "bytes32",
          "internalType": "bytes32"
        }
      ],
      "outputs": [],
      "stateMutability": "nonpayable"
    },
    {
      "type": "function",
      "name": "assertionLiveness",
      "inputs": [],
      "outputs": [
        {
          "name": "",
          "type": "uint64",
          "internalType": "uint64"
        }
      ],
      "stateMutability": "view"
    },
    {
      "type": "function",
      "name": "assertionPending",
      "inputs": [],
      "outputs": [
        {
          "name": "",
          "type": "bool",
          "internalType": "bool"
        }
      ],
      "stateMutability": "view"
    },
    {
      "type": "function",
      "name": "assertionResolvedCallback",
      "inputs": [
        {
          "name": "assertionId",
          "type": "bytes32",
          "internalType": "bytes32"
        },
        {
          "name": "assertedTruthfully",
          "type": "bool",
          "internalType": "bool"
        }
      ],
      "outputs": [],
      "stateMutability": "nonpayable"
    },
    {
      "type": "function",
      "name": "balanceOf",
      "inputs": [
        {
          "name": "user",
          "type": "address",
          "internalType": "address"
        }
      ],
      "outputs": [
        {
          "name": "",
          "type": "uint256",
          "internalType": "uint256"
        }
      ],
      "stateMutability": "view"
    },
    {
      "type": "function",
      "name": "claimRewards",
      "inputs": [],
      "outputs": [],
      "stateMutability": "nonpayable"
    },
    {
      "type": "function",
      "name": "collectPaymentOrders",
      "inputs": [],
      "outputs": [
        {
          "name": "",
          "type": "tuple[]",
          "internalType": "struct IERC20PaymentClientBase_v1.PaymentOrder[]",
          "components": [
            {
              "name": "recipient",
              "type": "address",
              "internalType": "address"
            },
            {
              "name": "paymentToken",
              "type": "address",
              "internalType": "address"
            },
            {
              "name": "amount",
              "type": "uint256",
              "internalType": "uint256"
            },
            {
              "name": "start",
              "type": "uint256",
              "internalType": "uint256"
            },
            {
              "name": "cliff",
              "type": "uint256",
              "internalType": "uint256"
            },
            {
              "name": "end",
              "type": "uint256",
              "internalType": "uint256"
            }
          ]
        },
        {
          "name": "",
          "type": "address[]",
          "internalType": "address[]"
        },
        {
          "name": "",
          "type": "uint256[]",
          "internalType": "uint256[]"
        }
      ],
      "stateMutability": "nonpayable"
    },
    {
      "type": "function",
      "name": "createKPI",
      "inputs": [
        {
          "name": "_continuous",
          "type": "bool",
          "internalType": "bool"
        },
        {
          "name": "_trancheValues",
          "type": "uint256[]",
          "internalType": "uint256[]"
        },
        {
          "name": "_trancheRewards",
          "type": "uint256[]",
          "internalType": "uint256[]"
        }
      ],
      "outputs": [
        {
          "name": "",
          "type": "uint256",
          "internalType": "uint256"
        }
      ],
      "stateMutability": "nonpayable"
    },
    {
      "type": "function",
      "name": "defaultBond",
      "inputs": [],
      "outputs": [
        {
          "name": "",
          "type": "uint256",
          "internalType": "uint256"
        }
      ],
      "stateMutability": "view"
    },
    {
      "type": "function",
      "name": "defaultCurrency",
      "inputs": [],
      "outputs": [
        {
          "name": "",
          "type": "address",
          "internalType": "contract IERC20"
        }
      ],
      "stateMutability": "view"
    },
    {
      "type": "function",
      "name": "defaultIdentifier",
      "inputs": [],
      "outputs": [
        {
          "name": "",
          "type": "bytes32",
          "internalType": "bytes32"
        }
      ],
      "stateMutability": "view"
    },
    {
      "type": "function",
      "name": "depositFeeFunds",
      "inputs": [
        {
          "name": "amount",
          "type": "uint256",
          "internalType": "uint256"
        }
      ],
      "outputs": [],
      "stateMutability": "nonpayable"
    },
    {
      "type": "function",
      "name": "dequeueStake",
      "inputs": [],
      "outputs": [],
      "stateMutability": "nonpayable"
    },
    {
      "type": "function",
      "name": "earned",
      "inputs": [
        {
          "name": "user",
          "type": "address",
          "internalType": "address"
        }
      ],
      "outputs": [
        {
          "name": "",
          "type": "uint256",
          "internalType": "uint256"
        }
      ],
      "stateMutability": "view"
    },
    {
      "type": "function",
      "name": "estimateReward",
      "inputs": [
        {
          "name": "amount",
          "type": "uint256",
          "internalType": "uint256"
        },
        {
          "name": "duration",
          "type": "uint256",
          "internalType": "uint256"
        }
      ],
      "outputs": [
        {
          "name": "",
          "type": "uint256",
          "internalType": "uint256"
        }
      ],
      "stateMutability": "view"
    },
    {
      "type": "function",
      "name": "getAssertion",
      "inputs": [
        {
          "name": "assertionId",
          "type": "bytes32",
          "internalType": "bytes32"
        }
      ],
      "outputs": [
        {
          "name": "",
          "type": "tuple",
          "internalType": "struct IOptimisticOracleIntegrator.DataAssertion",
          "components": [
            {
              "name": "dataId",
              "type": "bytes32",
              "internalType": "bytes32"
            },
            {
              "name": "data",
              "type": "bytes32",
              "internalType": "bytes32"
            },
            {
              "name": "asserter",
              "type": "address",
              "internalType": "address"
            },
            {
              "name": "resolved",
              "type": "bool",
              "internalType": "bool"
            }
          ]
        }
      ],
      "stateMutability": "view"
    },
    {
      "type": "function",
      "name": "getAssertionConfig",
      "inputs": [
        {
          "name": "assertionId",
          "type": "bytes32",
          "internalType": "bytes32"
        }
      ],
      "outputs": [
        {
          "name": "",
          "type": "tuple",
          "internalType": "struct ILM_PC_KPIRewarder_v1.RewardRoundConfiguration",
          "components": [
            {
              "name": "creationTime",
              "type": "uint256",
              "internalType": "uint256"
            },
            {
              "name": "assertedValue",
              "type": "uint256",
              "internalType": "uint256"
            },
            {
              "name": "KpiToUse",
              "type": "uint256",
              "internalType": "uint256"
            },
            {
              "name": "distributed",
              "type": "bool",
              "internalType": "bool"
            }
          ]
        }
      ],
      "stateMutability": "view"
    },
    {
      "type": "function",
      "name": "getData",
      "inputs": [
        {
          "name": "assertionId",
          "type": "bytes32",
          "internalType": "bytes32"
        }
      ],
      "outputs": [
        {
          "name": "",
          "type": "bool",
          "internalType": "bool"
        },
        {
          "name": "",
          "type": "bytes32",
          "internalType": "bytes32"
        }
      ],
      "stateMutability": "view"
    },
    {
      "type": "function",
      "name": "getKPI",
      "inputs": [
        {
          "name": "KPInum",
          "type": "uint256",
          "internalType": "uint256"
        }
      ],
      "outputs": [
        {
          "name": "",
          "type": "tuple",
          "internalType": "struct ILM_PC_KPIRewarder_v1.KPI",
          "components": [
            {
              "name": "numOfTranches",
              "type": "uint256",
              "internalType": "uint256"
            },
            {
              "name": "totalRewards",
              "type": "uint256",
              "internalType": "uint256"
            },
            {
              "name": "continuous",
              "type": "bool",
              "internalType": "bool"
            },
            {
              "name": "trancheValues",
              "type": "uint256[]",
              "internalType": "uint256[]"
            },
            {
              "name": "trancheRewards",
              "type": "uint256[]",
              "internalType": "uint256[]"
            }
          ]
        }
      ],
      "stateMutability": "view"
    },
    {
      "type": "function",
      "name": "getStakingQueue",
      "inputs": [],
      "outputs": [
        {
          "name": "",
          "type": "address[]",
          "internalType": "address[]"
        }
      ],
      "stateMutability": "view"
    },
    {
      "type": "function",
      "name": "grantModuleRole",
      "inputs": [
        {
          "name": "role",
          "type": "bytes32",
          "internalType": "bytes32"
        },
        {
          "name": "target",
          "type": "address",
          "internalType": "address"
        }
      ],
      "outputs": [],
      "stateMutability": "nonpayable"
    },
    {
      "type": "function",
      "name": "grantModuleRoleBatched",
      "inputs": [
        {
          "name": "role",
          "type": "bytes32",
          "internalType": "bytes32"
        },
        {
          "name": "targets",
          "type": "address[]",
          "internalType": "address[]"
        }
      ],
      "outputs": [],
      "stateMutability": "nonpayable"
    },
    {
      "type": "function",
      "name": "identifier",
      "inputs": [],
      "outputs": [
        {
          "name": "",
          "type": "bytes32",
          "internalType": "bytes32"
        }
      ],
      "stateMutability": "view"
    },
    {
      "type": "function",
      "name": "init",
      "inputs": [
        {
          "name": "orchestrator_",
          "type": "address",
          "internalType": "contract IOrchestrator_v1"
        },
        {
          "name": "metadata",
          "type": "tuple",
          "internalType": "struct IModule_v1.Metadata",
          "components": [
            {
              "name": "majorVersion",
              "type": "uint256",
              "internalType": "uint256"
            },
            {
              "name": "minorVersion",
              "type": "uint256",
              "internalType": "uint256"
            },
            {
              "name": "url",
              "type": "string",
              "internalType": "string"
            },
            {
              "name": "title",
              "type": "string",
              "internalType": "string"
            }
          ]
        },
        {
          "name": "configData",
          "type": "bytes",
          "internalType": "bytes"
        }
      ],
      "outputs": [],
      "stateMutability": "nonpayable"
    },
    {
      "type": "function",
      "name": "isTrustedForwarder",
      "inputs": [
        {
          "name": "forwarder",
          "type": "address",
          "internalType": "address"
        }
      ],
      "outputs": [
        {
          "name": "",
          "type": "bool",
          "internalType": "bool"
        }
      ],
      "stateMutability": "view"
    },
    {
      "type": "function",
      "name": "oo",
      "inputs": [],
      "outputs": [
        {
          "name": "",
          "type": "address",
          "internalType": "contract OptimisticOracleV3Interface"
        }
      ],
      "stateMutability": "view"
    },
    {
      "type": "function",
      "name": "orchestrator",
      "inputs": [],
      "outputs": [
        {
          "name": "",
          "type": "address",
          "internalType": "contract IOrchestrator_v1"
        }
      ],
      "stateMutability": "view"
    },
    {
      "type": "function",
      "name": "outstandingTokenAmount",
      "inputs": [
        {
          "name": "_token",
          "type": "address",
          "internalType": "address"
        }
      ],
      "outputs": [
        {
          "name": "",
          "type": "uint256",
          "internalType": "uint256"
        }
      ],
      "stateMutability": "view"
    },
    {
      "type": "function",
      "name": "paymentOrders",
      "inputs": [],
      "outputs": [
        {
          "name": "",
          "type": "tuple[]",
          "internalType": "struct IERC20PaymentClientBase_v1.PaymentOrder[]",
          "components": [
            {
              "name": "recipient",
              "type": "address",
              "internalType": "address"
            },
            {
              "name": "paymentToken",
              "type": "address",
              "internalType": "address"
            },
            {
              "name": "amount",
              "type": "uint256",
              "internalType": "uint256"
            },
            {
              "name": "start",
              "type": "uint256",
              "internalType": "uint256"
            },
            {
              "name": "cliff",
              "type": "uint256",
              "internalType": "uint256"
            },
            {
              "name": "end",
              "type": "uint256",
              "internalType": "uint256"
            }
          ]
        }
      ],
      "stateMutability": "view"
    },
    {
      "type": "function",
      "name": "postAssertion",
      "inputs": [
        {
          "name": "dataId",
          "type": "bytes32",
          "internalType": "bytes32"
        },
        {
          "name": "assertedValue",
          "type": "uint256",
          "internalType": "uint256"
        },
        {
          "name": "asserter",
          "type": "address",
          "internalType": "address"
        },
        {
          "name": "targetKPI",
          "type": "uint256",
          "internalType": "uint256"
        }
      ],
      "outputs": [
        {
          "name": "assertionId",
          "type": "bytes32",
          "internalType": "bytes32"
        }
      ],
      "stateMutability": "nonpayable"
    },
    {
      "type": "function",
      "name": "registryOfKPIs",
      "inputs": [
        {
          "name": "",
          "type": "uint256",
          "internalType": "uint256"
        }
      ],
      "outputs": [
        {
          "name": "numOfTranches",
          "type": "uint256",
          "internalType": "uint256"
        },
        {
          "name": "totalRewards",
          "type": "uint256",
          "internalType": "uint256"
        },
        {
          "name": "continuous",
          "type": "bool",
          "internalType": "bool"
        }
      ],
      "stateMutability": "view"
    },
    {
      "type": "function",
      "name": "revokeModuleRole",
      "inputs": [
        {
          "name": "role",
          "type": "bytes32",
          "internalType": "bytes32"
        },
        {
          "name": "target",
          "type": "address",
          "internalType": "address"
        }
      ],
      "outputs": [],
      "stateMutability": "nonpayable"
    },
    {
      "type": "function",
      "name": "revokeModuleRoleBatched",
      "inputs": [
        {
          "name": "role",
          "type": "bytes32",
          "internalType": "bytes32"
        },
        {
          "name": "targets",
          "type": "address[]",
          "internalType": "address[]"
        }
      ],
      "outputs": [],
      "stateMutability": "nonpayable"
    },
    {
      "type": "function",
      "name": "rewardRate",
      "inputs": [],
      "outputs": [
        {
          "name": "",
          "type": "uint256",
          "internalType": "uint256"
        }
      ],
      "stateMutability": "view"
    },
    {
      "type": "function",
      "name": "rewardsEnd",
      "inputs": [],
      "outputs": [
        {
          "name": "",
          "type": "uint256",
          "internalType": "uint256"
        }
      ],
      "stateMutability": "view"
    },
    {
      "type": "function",
      "name": "setDefaultAssertionLiveness",
      "inputs": [
        {
          "name": "_newLiveness",
          "type": "uint64",
          "internalType": "uint64"
        }
      ],
      "outputs": [],
      "stateMutability": "nonpayable"
    },
    {
      "type": "function",
      "name": "setDefaultCurrencyAndBond",
      "inputs": [
        {
          "name": "_newCurrency",
          "type": "address",
          "internalType": "address"
        },
        {
          "name": "_newBond",
          "type": "uint256",
          "internalType": "uint256"
        }
      ],
      "outputs": [],
      "stateMutability": "nonpayable"
    },
    {
      "type": "function",
      "name": "setMinimumStake",
      "inputs": [
        {
          "name": "_minimumStake",
          "type": "uint256",
          "internalType": "uint256"
        }
      ],
      "outputs": [],
      "stateMutability": "nonpayable"
    },
    {
      "type": "function",
      "name": "setOptimisticOracle",
      "inputs": [
        {
          "name": "_newOO",
          "type": "address",
          "internalType": "address"
        }
      ],
      "outputs": [],
      "stateMutability": "nonpayable"
    },
    {
      "type": "function",
      "name": "setRewards",
      "inputs": [
        {
          "name": "amount",
          "type": "uint256",
          "internalType": "uint256"
        },
        {
          "name": "duration",
          "type": "uint256",
          "internalType": "uint256"
        }
      ],
      "outputs": [],
      "stateMutability": "nonpayable"
    },
    {
      "type": "function",
      "name": "stake",
      "inputs": [
        {
          "name": "amount",
          "type": "uint256",
          "internalType": "uint256"
        }
      ],
      "outputs": [],
      "stateMutability": "nonpayable"
    },
    {
      "type": "function",
      "name": "stakingQueue",
      "inputs": [
        {
          "name": "",
          "type": "uint256",
          "internalType": "uint256"
        }
      ],
      "outputs": [
        {
          "name": "",
          "type": "address",
          "internalType": "address"
        }
      ],
      "stateMutability": "view"
    },
    {
      "type": "function",
      "name": "stakingQueueAmounts",
      "inputs": [
        {
          "name": "",
          "type": "address",
          "internalType": "address"
        }
      ],
      "outputs": [
        {
          "name": "",
          "type": "uint256",
          "internalType": "uint256"
        }
      ],
      "stateMutability": "view"
    },
    {
      "type": "function",
      "name": "stakingToken",
      "inputs": [],
      "outputs": [
        {
          "name": "",
          "type": "address",
          "internalType": "address"
        }
      ],
      "stateMutability": "view"
    },
    {
      "type": "function",
      "name": "supportsInterface",
      "inputs": [
        {
          "name": "interfaceId",
          "type": "bytes4",
          "internalType": "bytes4"
        }
      ],
      "outputs": [
        {
          "name": "",
          "type": "bool",
          "internalType": "bool"
        }
      ],
      "stateMutability": "view"
    },
    {
      "type": "function",
      "name": "title",
      "inputs": [],
      "outputs": [
        {
          "name": "",
          "type": "string",
          "internalType": "string"
        }
      ],
      "stateMutability": "view"
    },
    {
      "type": "function",
      "name": "totalQueuedFunds",
      "inputs": [],
      "outputs": [
        {
          "name": "",
          "type": "uint256",
          "internalType": "uint256"
        }
      ],
      "stateMutability": "view"
    },
    {
      "type": "function",
      "name": "totalSupply",
      "inputs": [],
      "outputs": [
        {
          "name": "",
          "type": "uint256",
          "internalType": "uint256"
        }
      ],
      "stateMutability": "view"
    },
    {
      "type": "function",
      "name": "trustedForwarder",
      "inputs": [],
      "outputs": [
        {
          "name": "",
          "type": "address",
          "internalType": "address"
        }
      ],
      "stateMutability": "view"
    },
    {
      "type": "function",
      "name": "unstake",
      "inputs": [
        {
          "name": "amount",
          "type": "uint256",
          "internalType": "uint256"
        }
      ],
      "outputs": [],
      "stateMutability": "nonpayable"
    },
    {
      "type": "function",
      "name": "url",
      "inputs": [],
      "outputs": [
        {
          "name": "",
          "type": "string",
          "internalType": "string"
        }
      ],
      "stateMutability": "view"
    },
    {
      "type": "function",
      "name": "version",
      "inputs": [],
      "outputs": [
        {
          "name": "",
          "type": "uint256",
          "internalType": "uint256"
        },
        {
          "name": "",
          "type": "uint256",
          "internalType": "uint256"
        }
      ],
      "stateMutability": "view"
    },
    {
      "type": "event",
      "name": "DataAsserted",
      "inputs": [
        {
          "name": "dataId",
          "type": "bytes32",
          "indexed": true,
          "internalType": "bytes32"
        },
        {
          "name": "data",
          "type": "bytes32",
          "indexed": false,
          "internalType": "bytes32"
        },
        {
          "name": "asserter",
          "type": "address",
          "indexed": true,
          "internalType": "address"
        },
        {
          "name": "assertionId",
          "type": "bytes32",
          "indexed": true,
          "internalType": "bytes32"
        }
      ],
      "anonymous": false
    },
    {
      "type": "event",
      "name": "DataAssertionResolved",
      "inputs": [
        {
          "name": "assertedTruthfully",
          "type": "bool",
          "indexed": false,
          "internalType": "bool"
        },
        {
          "name": "dataId",
          "type": "bytes32",
          "indexed": true,
          "internalType": "bytes32"
        },
        {
          "name": "data",
          "type": "bytes32",
          "indexed": false,
          "internalType": "bytes32"
        },
        {
          "name": "asserter",
          "type": "address",
          "indexed": true,
          "internalType": "address"
        },
        {
          "name": "assertionId",
          "type": "bytes32",
          "indexed": true,
          "internalType": "bytes32"
        }
      ],
      "anonymous": false
    },
    {
      "type": "event",
      "name": "FeeFundsDeposited",
      "inputs": [
        {
          "name": "token",
          "type": "address",
          "indexed": true,
          "internalType": "address"
        },
        {
          "name": "amount",
          "type": "uint256",
          "indexed": false,
          "internalType": "uint256"
        }
      ],
      "anonymous": false
    },
    {
      "type": "event",
      "name": "Initialized",
      "inputs": [
        {
          "name": "version",
          "type": "uint64",
          "indexed": false,
          "internalType": "uint64"
        }
      ],
      "anonymous": false
    },
    {
      "type": "event",
      "name": "KPICreated",
      "inputs": [
        {
          "name": "KPI_Id",
          "type": "uint256",
          "indexed": true,
          "internalType": "uint256"
        },
        {
          "name": "numOfTranches",
          "type": "uint256",
          "indexed": false,
          "internalType": "uint256"
        },
        {
          "name": "totalKPIRewards",
          "type": "uint256",
          "indexed": false,
          "internalType": "uint256"
        },
        {
          "name": "continuous",
          "type": "bool",
          "indexed": false,
          "internalType": "bool"
        },
        {
          "name": "trancheValues",
          "type": "uint256[]",
          "indexed": false,
          "internalType": "uint256[]"
        },
        {
          "name": "trancheRewards",
          "type": "uint256[]",
          "indexed": false,
          "internalType": "uint256[]"
        }
      ],
      "anonymous": false
    },
    {
      "type": "event",
      "name": "ModuleInitialized",
      "inputs": [
        {
          "name": "parentOrchestrator",
          "type": "address",
          "indexed": true,
          "internalType": "address"
        },
        {
          "name": "moduleTitle",
          "type": "string",
          "indexed": true,
          "internalType": "string"
        },
        {
          "name": "majorVersion",
          "type": "uint256",
          "indexed": false,
          "internalType": "uint256"
        },
        {
          "name": "minorVersion",
          "type": "uint256",
          "indexed": false,
          "internalType": "uint256"
        }
      ],
      "anonymous": false
    },
    {
      "type": "event",
      "name": "PaymentOrderAdded",
      "inputs": [
        {
          "name": "recipient",
          "type": "address",
          "indexed": true,
          "internalType": "address"
        },
        {
          "name": "token",
          "type": "address",
          "indexed": true,
          "internalType": "address"
        },
        {
          "name": "amount",
          "type": "uint256",
          "indexed": false,
          "internalType": "uint256"
        }
      ],
      "anonymous": false
    },
    {
      "type": "event",
      "name": "RewardRoundConfigured",
      "inputs": [
        {
          "name": "assertionId",
          "type": "bytes32",
          "indexed": true,
          "internalType": "bytes32"
        },
        {
          "name": "creationTime",
          "type": "uint256",
          "indexed": false,
          "internalType": "uint256"
        },
        {
          "name": "assertedValue",
          "type": "uint256",
          "indexed": false,
          "internalType": "uint256"
        },
        {
          "name": "KpiToUse",
          "type": "uint256",
          "indexed": true,
          "internalType": "uint256"
        }
      ],
      "anonymous": false
    },
    {
      "type": "event",
      "name": "RewardSet",
      "inputs": [
        {
          "name": "rewardAmount",
          "type": "uint256",
          "indexed": false,
          "internalType": "uint256"
        },
        {
          "name": "duration",
          "type": "uint256",
          "indexed": false,
          "internalType": "uint256"
        },
        {
          "name": "newRewardRate",
          "type": "uint256",
          "indexed": false,
          "internalType": "uint256"
        },
        {
          "name": "newRewardsEnd",
          "type": "uint256",
          "indexed": false,
          "internalType": "uint256"
        }
      ],
      "anonymous": false
    },
    {
      "type": "event",
      "name": "RewardsDistributed",
      "inputs": [
        {
          "name": "user",
          "type": "address",
          "indexed": true,
          "internalType": "address"
        },
        {
          "name": "amount",
          "type": "uint256",
          "indexed": false,
          "internalType": "uint256"
        }
      ],
      "anonymous": false
    },
    {
      "type": "event",
      "name": "StakeDequeued",
      "inputs": [
        {
          "name": "user",
          "type": "address",
          "indexed": true,
          "internalType": "address"
        },
        {
          "name": "amount",
          "type": "uint256",
          "indexed": false,
          "internalType": "uint256"
        }
      ],
      "anonymous": false
    },
    {
      "type": "event",
      "name": "StakeEnqueued",
      "inputs": [
        {
          "name": "user",
          "type": "address",
          "indexed": true,
          "internalType": "address"
        },
        {
          "name": "amount",
          "type": "uint256",
          "indexed": false,
          "internalType": "uint256"
        }
      ],
      "anonymous": false
    },
    {
      "type": "event",
      "name": "Staked",
      "inputs": [
        {
          "name": "user",
          "type": "address",
          "indexed": true,
          "internalType": "address"
        },
        {
          "name": "amount",
          "type": "uint256",
          "indexed": false,
          "internalType": "uint256"
        }
      ],
      "anonymous": false
    },
    {
      "type": "event",
      "name": "Unstaked",
      "inputs": [
        {
          "name": "user",
          "type": "address",
          "indexed": true,
          "internalType": "address"
        },
        {
          "name": "amount",
          "type": "uint256",
          "indexed": false,
          "internalType": "uint256"
        }
      ],
      "anonymous": false
    },
    {
      "type": "error",
      "name": "AddressEmptyCode",
      "inputs": [
        {
          "name": "target",
          "type": "address",
          "internalType": "address"
        }
      ]
    },
    {
      "type": "error",
      "name": "AddressInsufficientBalance",
      "inputs": [
        {
          "name": "account",
          "type": "address",
          "internalType": "address"
        }
      ]
    },
    {
      "type": "error",
      "name": "FailedInnerCall",
      "inputs": []
    },
    {
      "type": "error",
      "name": "InvalidInitialization",
      "inputs": []
    },
    {
      "type": "error",
      "name": "Module_OrchestratorCallbackFailed",
      "inputs": [
        {
          "name": "funcSig",
          "type": "string",
          "internalType": "string"
        }
      ]
    },
    {
      "type": "error",
      "name": "Module__CallerNotAuthorized",
      "inputs": [
        {
          "name": "role",
          "type": "bytes32",
          "internalType": "bytes32"
        },
        {
          "name": "caller",
          "type": "address",
          "internalType": "address"
        }
      ]
    },
    {
      "type": "error",
      "name": "Module__ERC20PaymentClientBase__ArrayLengthMismatch",
      "inputs": []
    },
    {
      "type": "error",
      "name": "Module__ERC20PaymentClientBase__CallerNotAuthorized",
      "inputs": []
    },
    {
      "type": "error",
      "name": "Module__ERC20PaymentClientBase__InsufficientFunds",
      "inputs": [
        {
          "name": "token",
          "type": "address",
          "internalType": "address"
        }
      ]
    },
    {
      "type": "error",
      "name": "Module__ERC20PaymentClientBase__InvalidAmount",
      "inputs": []
    },
    {
      "type": "error",
      "name": "Module__ERC20PaymentClientBase__InvalidRecipient",
      "inputs": []
    },
    {
      "type": "error",
      "name": "Module__ERC20PaymentClientBase__InvalidToken",
      "inputs": []
    },
    {
      "type": "error",
      "name": "Module__ERC20PaymentClientBase__Invalidend",
      "inputs": []
    },
    {
      "type": "error",
      "name": "Module__ERC20PaymentClientBase__TokenTransferFailed",
      "inputs": []
    },
    {
      "type": "error",
      "name": "Module__InvalidMetadata",
      "inputs": []
    },
    {
      "type": "error",
      "name": "Module__InvalidOrchestratorAddress",
      "inputs": []
    },
    {
      "type": "error",
      "name": "Module__LM_PC_KPIRewarder_v1__InvalidKPINumber",
      "inputs": []
    },
    {
      "type": "error",
      "name": "Module__LM_PC_KPIRewarder_v1__InvalidKPITrancheValues",
      "inputs": []
    },
    {
      "type": "error",
      "name": "Module__LM_PC_KPIRewarder_v1__InvalidKPIValueLengths",
      "inputs": []
    },
    {
      "type": "error",
      "name": "Module__LM_PC_KPIRewarder_v1__InvalidStakeAmount",
      "inputs": []
    },
    {
      "type": "error",
      "name": "Module__LM_PC_KPIRewarder_v1__InvalidTrancheNumber",
      "inputs": []
    },
    {
      "type": "error",
      "name": "Module__LM_PC_KPIRewarder_v1__ModuleCannotUseStakingTokenAsBond",
      "inputs": []
    },
    {
      "type": "error",
      "name": "Module__LM_PC_KPIRewarder_v1__StakingQueueIsFull",
      "inputs": []
    },
    {
      "type": "error",
      "name": "Module__LM_PC_KPIRewarder_v1__UnresolvedAssertionExists",
      "inputs": []
    },
    {
      "type": "error",
      "name": "Module__LM_PC_Staking_v1__InvalidDuration",
      "inputs": []
    },
    {
      "type": "error",
      "name": "Module__LM_PC_Staking_v1__InvalidRewardRate",
      "inputs": []
    },
    {
      "type": "error",
      "name": "Module__LM_PC_Staking_v1__InvalidStakingToken",
      "inputs": []
    },
    {
      "type": "error",
      "name": "Module__OnlyCallableByOrchestrator",
      "inputs": []
    },
    {
      "type": "error",
      "name": "Module__OptimisticOracleIntegrator__CallerNotOO",
      "inputs": []
    },
    {
      "type": "error",
      "name": "Module__OptimisticOracleIntegrator__CurrencyBondTooLow",
      "inputs": []
    },
    {
      "type": "error",
      "name": "Module__OptimisticOracleIntegrator__InvalidDefaultCurrency",
      "inputs": []
    },
    {
      "type": "error",
      "name": "Module__OptimisticOracleIntegrator__InvalidDefaultLiveness",
      "inputs": []
    },
    {
      "type": "error",
      "name": "Module__OptimisticOracleIntegrator__InvalidOOInstance",
      "inputs": []
    },
    {
      "type": "error",
      "name": "NotInitializing",
      "inputs": []
    },
    {
      "type": "error",
      "name": "ReentrancyGuardReentrantCall",
      "inputs": []
    },
    {
      "type": "error",
      "name": "SafeERC20FailedOperation",
      "inputs": [
        {
          "name": "token",
          "type": "address",
          "internalType": "address"
        }
      ]
    }
  ],
  "bytecode": {
    "object": "0x60a06040523480156200001157600080fd5b506000608052620000216200002c565b6001606b55620000e0565b7ff0c57e16840df040f15088dc2f81fe391c3923bec73e23a9662efc9c229c6a00805468010000000000000000900460ff16156200007d5760405163f92ee8a960e01b815260040160405180910390fd5b80546001600160401b0390811614620000dd5780546001600160401b0319166001600160401b0390811782556040519081527fc7f505b2f371ae2175ee4913f4499e1f2633a7b5936321eed1cdaeb6115181d29060200160405180910390a15b50565b608051615ba1620000f960003960005050615ba16000f3fe608060405234801561001057600080fd5b50600436106103985760003560e01c806370a08231116101e9578063956ae17b1161010f578063bcb61920116100ad578063d448a4ec1161007c578063d448a4ec146109e3578063d509b017146109f4578063d701aedb146109fd578063f1b156b214610a0657600080fd5b8063bcb619201461097f578063bf14d4a914610992578063bf5c3252146109b9578063c0231ff6146109cc57600080fd5b8063b33ec618116100e9578063b33ec61814610914578063b74795d914610927578063b75d4e2414610938578063bc7d2a331461096c57600080fd5b8063956ae17b146108b0578063a694fc3a146108f8578063a6d14d691461090b57600080fd5b80637b9a9c7f116101875780638333cb06116101565780638333cb06146107bc57806388302884146107c55780638921a6141461088a57806393ee663b1461089d57600080fd5b80637b9a9c7f146107345780637da0a8771461078e5780637e5f43ff1461079657806381d09517146107a957600080fd5b8063772fd8da116101c3578063772fd8da146106fa578063788026541461071a5780637998a1c4146107235780637b0a47ee1461072b57600080fd5b806370a08231146106a957806372f702f3146106d257806375fa0b76146106e557600080fd5b8063372500ab116102ce578063572b6c051161026c57806364e6bbe51161023b57806364e6bbe514610668578063654e51e71461067b5780636c67e8071461068e5780636e73ba5b146106a157600080fd5b8063572b6c051461062057806359be48f21461063357806360a93176146106465780636315a4551461065357600080fd5b80634a79d50c116102a85780634a79d50c146105be57806354f6127f146105d357806354fd4d50146105fd5780635600f04f1461061857600080fd5b8063372500ab146105545780633ecd79721461055c57806342dfe958146105ab57600080fd5b8063233e99031161033b5780632979b670116103155780632979b6701461049b5780632a4e1904146104a35780632e17de78146105185780632e84db5f1461052b57600080fd5b8063233e99031461046057806324e3027014610475578063272bbd441461048857600080fd5b80630dfc4357116103775780630dfc4357146103f95780630fe5bc3b1461041957806318160ddd1461044457806320402e1d1461044d57600080fd5b80628cc2621461039d57806301ffc9a7146103c3578063074644e6146103e6575b600080fd5b6103b06103ab366004614daf565b610a19565b6040519081526020015b60405180910390f35b6103d66103d1366004614dcc565b610a32565b60405190151581526020016103ba565b6103b06103f4366004614df6565b610a57565b6103b0610407366004614daf565b60e46020526000908152604090205481565b61042c610427366004614e35565b610d73565b6040516001600160a01b0390911681526020016103ba565b6103b0606d5481565b60a75461042c906001600160a01b031681565b61047361046e366004614e35565b610d9d565b005b610473610483366004614e9a565b610e4e565b610473610496366004614e9a565b6110d1565b6104736112ad565b6104e76104b1366004614e35565b60ab602052600090815260409020805460018201546002909201549091906001600160a01b03811690600160a01b900460ff1684565b6040516103ba949392919093845260208401929092526001600160a01b031660408301521515606082015260800190565b610473610526366004614e35565b61147f565b6103b0610539366004614daf565b6001600160a01b031660009081526038602052604090205490565b610473611579565b61058e61056a366004614e35565b60df6020526000908152604090208054600182015460029092015490919060ff1683565b6040805193845260208401929092521515908201526060016103ba565b6104736105b9366004614fd4565b61159f565b6105c66116fc565b6040516103ba9190615100565b6105e66105e1366004614e35565b611791565b6040805192151583526020830191909152016103ba565b600154600254604080519283526020830191909152016103ba565b6105c66117d8565b6103d661062e366004614daf565b6117ea565b610473610641366004615113565b611859565b60e1546103d69060ff1681565b61065b6118b2565b6040516103ba9190615184565b610473610676366004614e35565b611913565b610473610689366004615197565b6119dc565b61047361069c3660046151b9565b611a31565b6103b0603281565b6103b06106b7366004614daf565b6001600160a01b031660009081526072602052604090205490565b606c5461042c906001600160a01b031681565b6106ed611c3f565b6040516103ba919061525a565b61070d610708366004614e35565b611ce2565b6040516103ba919061529e565b6103b060de5481565b6103b0611e02565b6103b0606e5481565b61076c610742366004614e35565b60e06020526000908152604090208054600182015460028301546003909301549192909160ff1684565b60408051948552602085019390935291830152151560608201526080016103ba565b61042c611f52565b6103b06107a4366004615197565b611fca565b6104736107b736600461530d565b612086565b6103b060a85481565b61084c6107d3366004614e35565b60408051608081018252600080825260208201819052918101829052606081019190915250600090815260ab6020908152604091829020825160808101845281548152600182015492810192909252600201546001600160a01b03811692820192909252600160a01b90910460ff161515606082015290565b6040516103ba919081518152602080830151908201526040808301516001600160a01b03169082015260609182015115159181019190915260800190565b60a95461042c906001600160a01b031681565b6103b06108ab36600461532a565b6120da565b6108c36108be366004614e35565b612374565b6040516103ba919081518152602080830151908201526040808301519082015260609182015115159181019190915260800190565b610473610906366004614e35565b6123eb565b6103b0606f5481565b610473610922366004615113565b612553565b6000546001600160a01b031661042c565b60a95461095390600160a01b900467ffffffffffffffff1681565b60405167ffffffffffffffff90911681526020016103ba565b6103b061097a366004615371565b6125b1565b61047361098d3660046151b9565b612871565b6103b07f351566c1ac6c6b0e5df4c16e81bc932aa8bf8cb9457b6e94847672b67f393cba81565b6104736109c7366004614daf565b612a55565b6109d4612aa9565b6040516103ba939291906153f4565b6104736109f1366004614e35565b50565b6103b060aa5481565b6103b060e55481565b610473610a1436600461542d565b612f68565b6000610a2c82610a27613230565b613298565b92915050565b60006001600160e01b031982166354ca67b760e01b1480610a2c5750610a2c82613307565b60007f351566c1ac6c6b0e5df4c16e81bc932aa8bf8cb9457b6e94847672b67f393cba610b7260008054906101000a90046001600160a01b03166001600160a01b031663d09edf316040518163ffffffff1660e01b8152600401602060405180830381865afa158015610ace573d6000803e3d6000fd5b505050506040513d601f19601f82011682018060405250810190610af29190615452565b60405163fdd5205f60e01b8152306004820152602481018490526001600160a01b03919091169063fdd5205f906044016020604051808303816000875af1158015610b41573d6000803e3d6000fd5b505050506040513d601f19601f82011682018060405250810190610b65919061546f565b610b6d61332c565b61337e565b60e15460ff1615610b9657604051631d0f767960e31b815260040160405180910390fd5b6001600160a01b03841630148015610bbe5750606c5460a7546001600160a01b039081169116145b15610bdc576040516357ee800b60e11b815260040160405180910390fd5b60de541580610bed575060de548310155b15610c0b5760405163b88c02af60e01b815260040160405180910390fd5b60005b60e354811015610cb157600060e38281548110610c2d57610c2d615488565b60009182526020808320909101546001600160a01b031680835260e4909152604090912054909150610c6090829061349a565b6001600160a01b038116600090815260e4602052604081205460e5805491929091610c8c9084906154b4565b90915550506001600160a01b0316600090815260e46020526040812055600101610c0e565b50610cbe60e36000614cb3565b610cc98686866120da565b604080516080810182524280825260208083018a815283850189815260006060860181815288825260e08552908790209551865591516001860155516002850155516003909301805460ff1916931515939093179092558251908152908101889052919350849184917f2f7b2bd564a62db13a01d975e329f0cd4b96b6e435fd4114d8e25ab72a349f43910160405180910390a35060e1805460ff19166001179055949350505050565b60e38181548110610d8357600080fd5b6000918252602090912001546001600160a01b0316905081565b6000546040805163d09edf3160e01b81529051610e49926001600160a01b03169163d09edf319160048083019260209291908290030181865afa158015610de8573d6000803e3d6000fd5b505050506040513d601f19601f82011682018060405250810190610e0c9190615452565b6001600160a01b031663b3ecf2366040518163ffffffff1660e01b8152600401602060405180830381865afa158015610b41573d6000803e3d6000fd5b60e255565b600080546040805163d09edf3160e01b815290518693926001600160a01b03169163d09edf319160048083019260209291908290030181865afa158015610e99573d6000803e3d6000fd5b505050506040513d601f19601f82011682018060405250810190610ebd9190615452565b60405163fdd5205f60e01b8152306004820152602481018490526001600160a01b03919091169063fdd5205f906044016020604051808303816000875af1158015610f0c573d6000803e3d6000fd5b505050506040513d601f19601f82011682018060405250810190610f30919061546f565b9050610ff460008054906101000a90046001600160a01b03166001600160a01b031663d09edf316040518163ffffffff1660e01b8152600401602060405180830381865afa158015610f86573d6000803e3d6000fd5b505050506040513d601f19601f82011682018060405250810190610faa9190615452565b6001600160a01b031663248a9ca3836040518263ffffffff1660e01b8152600401610fd791815260200190565b602060405180830381865afa158015610b41573d6000803e3d6000fd5b60008054906101000a90046001600160a01b03166001600160a01b031663d09edf316040518163ffffffff1660e01b8152600401602060405180830381865afa158015611045573d6000803e3d6000fd5b505050506040513d601f19601f820116820180604052508101906110699190615452565b6001600160a01b0316637d540a648686866040518463ffffffff1660e01b8152600401611098939291906154c7565b600060405180830381600087803b1580156110b257600080fd5b505af11580156110c6573d6000803e3d6000fd5b505050505050505050565b600080546040805163d09edf3160e01b815290518693926001600160a01b03169163d09edf319160048083019260209291908290030181865afa15801561111c573d6000803e3d6000fd5b505050506040513d601f19601f820116820180604052508101906111409190615452565b60405163fdd5205f60e01b8152306004820152602481018490526001600160a01b03919091169063fdd5205f906044016020604051808303816000875af115801561118f573d6000803e3d6000fd5b505050506040513d601f19601f820116820180604052508101906111b3919061546f565b905061120960008054906101000a90046001600160a01b03166001600160a01b031663d09edf316040518163ffffffff1660e01b8152600401602060405180830381865afa158015610f86573d6000803e3d6000fd5b60008054906101000a90046001600160a01b03166001600160a01b031663d09edf316040518163ffffffff1660e01b8152600401602060405180830381865afa15801561125a573d6000803e3d6000fd5b505050506040513d601f19601f8201168201806040525081019061127e9190615452565b6001600160a01b031663648154538686866040518463ffffffff1660e01b8152600401611098939291906154c7565b6112b5613553565b60006112bf61332c565b6001600160a01b038116600090815260e4602052604090205490915015611472576001600160a01b038116600090815260e46020526040812080549082905560e58054919283926113119084906154b4565b90915550600090505b60e35481101561141557826001600160a01b031660e3828154811061134157611341615488565b6000918252602090912001546001600160a01b03160361140d5760e3805461136b906001906154b4565b8154811061137b5761137b615488565b60009182526020909120015460e380546001600160a01b0390921691839081106113a7576113a7615488565b9060005260206000200160006101000a8154816001600160a01b0302191690836001600160a01b0316021790555060e38054806113e6576113e661551f565b600082815260209020810160001990810180546001600160a01b0319169055019055611415565b60010161131a565b50816001600160a01b03167f2b96a2ef42d32e30dc79e8bf1b1e41bb95318494f4f578c8b28aa8dba3adb2d38260405161145191815260200190565b60405180910390a2606c54611470906001600160a01b0316838361357d565b505b5061147d6001606b55565b565b611487613553565b80611491816135e1565b600061149b61332c565b90506114a681613602565b6001600160a01b038116600090815260726020526040812080548592906114ce9084906154b4565b9250508190555082606d60008282546114e791906154b4565b9091555050606c54611503906001600160a01b0316828561357d565b6001600160a01b0381166000908152607460205260409020541561152a5761152a81613661565b806001600160a01b03167f0f5bb82176feb1b5e747e28471aa92156a04d9f3ab9f45f28e2d704232b93f758460405161156591815260200190565b60405180910390a250506109f16001606b55565b611581613553565b600061158b61332c565b905061159681613602565b61147281613661565b7ff0c57e16840df040f15088dc2f81fe391c3923bec73e23a9662efc9c229c6a008054600160401b810460ff16159067ffffffffffffffff166000811580156115e55750825b905060008267ffffffffffffffff1660011480156116025750303b155b905081158015611610575080155b1561162e5760405163f92ee8a960e01b815260040160405180910390fd5b845467ffffffffffffffff19166001178555831561165d57845468ff00000000000000001916600160401b1785555b61166788886138ad565b60008060008060008a8060200190518101906116839190615535565b94509450945094509450611696856139bf565b6116a2848484846139d0565b505050505083156116f257845468ff000000000000000019168555604051600181527fc7f505b2f371ae2175ee4913f4499e1f2633a7b5936321eed1cdaeb6115181d29060200160405180910390a15b5050505050505050565b60606001600301805461170e906155a0565b80601f016020809104026020016040519081016040528092919081815260200182805461173a906155a0565b80156117875780601f1061175c57610100808354040283529160200191611787565b820191906000526020600020905b81548152906001019060200180831161176a57829003601f168201915b5050505050905090565b600081815260ab60205260408120600201548190600160a01b900460ff166117be57506000928392509050565b5050600090815260ab602052604090206001908101549091565b60606001600201805461170e906155a0565b6000805460405163572b6c0560e01b81526001600160a01b0384811660048301529091169063572b6c0590602401602060405180830381865afa158015611835573d6000803e3d6000fd5b505050506040513d601f19601f82011682018060405250810190610a2c91906155da565b6000546040805163d09edf3160e01b815290516118a4926001600160a01b03169163d09edf319160048083019260209291908290030181865afa158015610de8573d6000803e3d6000fd5b6118ae82826139fa565b5050565b606060e380548060200260200160405190810160405280929190818152602001828054801561178757602002820191906000526020600020905b81546001600160a01b031681526001909101906020018083116118ec575050505050905090565b6000546040805163d09edf3160e01b8152905161195e926001600160a01b03169163d09edf319160048083019260209291908290030181865afa158015610de8573d6000803e3d6000fd5b611966613553565b80611970816135e1565b61198f61197b61332c565b60a7546001600160a01b0316903085613ad5565b60a7546040518381526001600160a01b03909116907f643b1bd5b160e780fef319c0a18a3535edb10da7f7136320b2935bb6f1a9f6059060200160405180910390a2506109f16001606b55565b6000546040805163d09edf3160e01b81529051611a27926001600160a01b03169163d09edf319160048083019260209291908290030181865afa158015610de8573d6000803e3d6000fd5b6118ae8282613b0e565b600080546040805163d09edf3160e01b815290518593926001600160a01b03169163d09edf319160048083019260209291908290030181865afa158015611a7c573d6000803e3d6000fd5b505050506040513d601f19601f82011682018060405250810190611aa09190615452565b60405163fdd5205f60e01b8152306004820152602481018490526001600160a01b03919091169063fdd5205f906044016020604051808303816000875af1158015611aef573d6000803e3d6000fd5b505050506040513d601f19601f82011682018060405250810190611b13919061546f565b9050611b6960008054906101000a90046001600160a01b03166001600160a01b031663d09edf316040518163ffffffff1660e01b8152600401602060405180830381865afa158015610f86573d6000803e3d6000fd5b60008054906101000a90046001600160a01b03166001600160a01b031663d09edf316040518163ffffffff1660e01b8152600401602060405180830381865afa158015611bba573d6000803e3d6000fd5b505050506040513d601f19601f82011682018060405250810190611bde9190615452565b60405163385e205560e21b8152600481018690526001600160a01b038581166024830152919091169063e1788154906044015b600060405180830381600087803b158015611c2b57600080fd5b505af11580156116f2573d6000803e3d6000fd5b60606037805480602002602001604051908101604052809291908181526020016000905b82821015611cd95760008481526020908190206040805160c0810182526006860290920180546001600160a01b0390811684526001808301549091168486015260028201549284019290925260038101546060840152600481015460808401526005015460a08301529083529092019101611c63565b50505050905090565b611d166040518060a00160405280600081526020016000815260200160001515815260200160608152602001606081525090565b600082815260df6020908152604091829020825160a08101845281548152600182015481840152600282015460ff161515818501526003820180548551818602810186019096528086529194929360608601939290830182828015611d9a57602002820191906000526020600020905b815481526020019060010190808311611d86575b5050505050815260200160048201805480602002602001604051908101604052809291908181526020018280548015611df257602002820191906000526020600020905b815481526020019060010190808311611dde575b5050505050815250509050919050565b60408051608081018252600180548252600254602083015260038054600094611f4d94939290840191611e34906155a0565b80601f0160208091040260200160405190810160405280929190818152602001828054611e60906155a0565b8015611ead5780601f10611e8257610100808354040283529160200191611ead565b820191906000526020600020905b815481529060010190602001808311611e9057829003601f168201915b50505050508152602001600382018054611ec6906155a0565b80601f0160208091040260200160405190810160405280929190818152602001828054611ef2906155a0565b8015611f3f5780601f10611f1457610100808354040283529160200191611f3f565b820191906000526020600020905b815481529060010190602001808311611f2257829003601f168201915b505050505081525050613c21565b905090565b60008060009054906101000a90046001600160a01b03166001600160a01b0316637da0a8776040518163ffffffff1660e01b8152600401602060405180830381865afa158015611fa6573d6000803e3d6000fd5b505050506040513d601f19601f82011682018060405250810190611f4d9190615452565b600082611fd6816135e1565b8280600003611ff857604051630e05ce7960e41b815260040160405180910390fd5b606f5442111561200b576000925061207e565b606f5461201885426155f7565b111561202f5742606f5461202c91906154b4565b93505b606d5460000361205757606e54612046858761560a565b612050919061560a565b925061207e565b606d54606e54612067868861560a565b612071919061560a565b61207b9190615637565b92505b505092915050565b6000546040805163d09edf3160e01b815290516120d1926001600160a01b03169163d09edf319160048083019260209291908290030181865afa158015610de8573d6000803e3d6000fd5b6109f181613c61565b60007f351566c1ac6c6b0e5df4c16e81bc932aa8bf8cb9457b6e94847672b67f393cba61215160008054906101000a90046001600160a01b03166001600160a01b031663d09edf316040518163ffffffff1660e01b8152600401602060405180830381865afa158015610ace573d6000803e3d6000fd5b6001600160a01b03831615612166578261216e565b61216e61332c565b925061219361217b61332c565b60a85460a7546001600160a01b031691903090613ad5565b60a95460a85460a7546121b4926001600160a01b0391821692911690613cd0565b60a9546001600160a01b0316636457c9796121ce86613d5a565b6121d788613d5a565b6121e087613d9b565b6121e942613e13565b6121f230613d9b565b604051602001612206959493929190615675565b60408051808303601f190181529082905260a95460a75460a85460aa5460e087901b6001600160e01b0319168652612268958b943094600094600160a01b90920467ffffffffffffffff16936001600160a01b039091169285906004016157cc565b6020604051808303816000875af1158015612287573d6000803e3d6000fd5b505050506040513d601f19601f820116820180604052508101906122ab919061546f565b6040805160808101825287815260208082018881526001600160a01b0380891684860181815260006060870181815289825260ab909652879020955186559251600186015591516002909401805493511515600160a01b0274ffffffffffffffffffffffffffffffffffffffffff199094169490911693909317919091179091559051919350839187907f29ae27364abd65b112ad0ac18e7e4f97360c20afa9636864dc91195d4d9204ec906123649089815260200190565b60405180910390a4509392505050565b6123a160405180608001604052806000815260200160008152602001600081526020016000151581525090565b50600090815260e0602090815260409182902082516080810184528154815260018201549281019290925260028101549282019290925260039091015460ff161515606082015290565b6123f3613553565b806123fd816135e1565b60e3546032116124205760405163f5fc3d4560e01b815260040160405180910390fd5b60e2548210156124435760405163d5e3f4c560e01b815260040160405180910390fd5b600061244d61332c565b6001600160a01b038116600090815260e46020526040812054919250036124ba5760e380546001810182556000919091527f37f6a7f96b945f2f9a9127ccb4a8552fcb6938e53fe8f046db8da238398093e90180546001600160a01b0319166001600160a01b0383161790555b6001600160a01b038116600090815260e46020526040812080548592906124e29084906155f7565b925050819055508260e560008282546124fb91906155f7565b9091555050606c54612518906001600160a01b0316823086613ad5565b806001600160a01b03167f092e6d0fb46de0430e74e875a283441f97dbd0a5f7495483c8a78e78c5ef86838460405161156591815260200190565b61256361255e61332c565b613f57565b6125805760405163e4597a6b60e01b815260040160405180910390fd5b6001600160a01b038216600090815260386020526040812080548392906125a89084906154b4565b90915550505050565b600080546040805163d09edf3160e01b815290516125fd926001600160a01b03169163d09edf319160048083019260209291908290030181865afa158015610de8573d6000803e3d6000fd5b83600181108061260d5750601481115b1561262b5760405163036da02f60e61b815260040160405180910390fd5b80831461264b57604051631166f7c560e31b815260040160405180910390fd5b60008484600081811061266057612660615488565b90506020020135905060018211156127095760015b828110156127075787878281811061268f5761268f615488565b9050602002013588886001846126a591906154b4565b8181106126b4576126b4615488565b90506020020135106126d95760405163458f641360e11b815260040160405180910390fd5b8585828181106126eb576126eb615488565b90506020020135826126fd91906155f7565b9150600101612675565b505b600060de5490506040518060a001604052808481526020018381526020018a1515815260200189898080602002602001604051908101604052809392919081815260200183836020028082843760009201919091525050509082525060408051602089810282810182019093528982529283019290918a918a918291850190849080828437600092018290525093909452505083815260df6020908152604091829020845181558482015160018201559184015160028301805460ff1916911515919091179055606084015180519293506127ed9260038501929190910190614cd1565b5060808201518051612809916004840191602090910190614cd1565b505060de80549150600061281c8361583a565b9190505550807fc1063bd63d477506eb51343042d915c0d3377b74bb787bc0f4d255ca1a7039b684848c8c8c8c8c60405161285d979695949392919061589e565b60405180910390a298975050505050505050565b600080546040805163d09edf3160e01b815290518593926001600160a01b03169163d09edf319160048083019260209291908290030181865afa1580156128bc573d6000803e3d6000fd5b505050506040513d601f19601f820116820180604052508101906128e09190615452565b60405163fdd5205f60e01b8152306004820152602481018490526001600160a01b03919091169063fdd5205f906044016020604051808303816000875af115801561292f573d6000803e3d6000fd5b505050506040513d601f19601f82011682018060405250810190612953919061546f565b90506129a960008054906101000a90046001600160a01b03166001600160a01b031663d09edf316040518163ffffffff1660e01b8152600401602060405180830381865afa158015610f86573d6000803e3d6000fd5b60008054906101000a90046001600160a01b03166001600160a01b031663d09edf316040518163ffffffff1660e01b8152600401602060405180830381865afa1580156129fa573d6000803e3d6000fd5b505050506040513d601f19601f82011682018060405250810190612a1e9190615452565b604051632e99be7f60e21b8152600481018690526001600160a01b038581166024830152919091169063ba66f9fc90604401611c11565b6000546040805163d09edf3160e01b81529051612aa0926001600160a01b03169163d09edf319160048083019260209291908290030181865afa158015610de8573d6000803e3d6000fd5b6109f181613fd7565b6060806060612ab961255e61332c565b612ad65760405163e4597a6b60e01b815260040160405180910390fd5b6037546000808267ffffffffffffffff811115612af557612af5614ee6565b604051908082528060200260200182016040528015612b1e578160200160208202803683370190505b50905060008367ffffffffffffffff811115612b3c57612b3c614ee6565b604051908082528060200260200182016040528015612b65578160200160208202803683370190505b50905060008467ffffffffffffffff811115612b8357612b83614ee6565b604051908082528060200260200182016040528015612bff57816020015b612bec6040518060c0016040528060006001600160a01b0316815260200160006001600160a01b03168152602001600081526020016000815260200160008152602001600081525090565b815260200190600190039081612ba15790505b50905060005b85811015612dd95760378181548110612c2057612c20615488565b60009182526020918290206040805160c081018252600690930290910180546001600160a01b03908116845260018201541693830193909352600283015490820152600382015460608201526004820154608082015260059091015460a08201528251839083908110612c9557612c95615488565b60200260200101819052506000805b86811015612d0c57838381518110612cbe57612cbe615488565b6020026020010151602001516001600160a01b0316868281518110612ce557612ce5615488565b60200260200101516001600160a01b031603612d045760019150612d0c565b600101612ca4565b5080612dd057828281518110612d2457612d24615488565b602002602001015160200151858781518110612d4257612d42615488565b60200260200101906001600160a01b031690816001600160a01b03168152505060386000848481518110612d7857612d78615488565b6020026020010151602001516001600160a01b03166001600160a01b0316815260200190815260200160002054848781518110612db757612db7615488565b602090810291909101015285612dcc8161583a565b9650505b50600101612c05565b50612de660376000614d1c565b60008467ffffffffffffffff811115612e0157612e01614ee6565b604051908082528060200260200182016040528015612e2a578160200160208202803683370190505b50905060008567ffffffffffffffff811115612e4857612e48614ee6565b604051908082528060200260200182016040528015612e71578160200160208202803683370190505b50905060005b86811015612f5757858181518110612e9157612e91615488565b6020026020010151838281518110612eab57612eab615488565b60200260200101906001600160a01b031690816001600160a01b031681525050848181518110612edd57612edd615488565b6020026020010151828281518110612ef757612ef7615488565b602002602001018181525050612f2d612f0e61332c565b848381518110612f2057612f20615488565b6020026020010151614081565b612f4f838281518110612f4257612f42615488565b60200260200101516140a6565b600101612e77565b509199909850909650945050505050565b612f72828261438a565b80156131f657600082815260e060209081526040808320600290810154845260df8352818420825160a081018452815481526001820154818601529181015460ff16151582840152600381018054845181870281018701909552808552929491936060860193909283018282801561300957602002820191906000526020600020905b815481526020019060010190808311612ff5575b505050505081526020016004820180548060200260200160405190810160405280929190818152602001828054801561306157602002820191906000526020600020905b81548152602001906001019080831161304d575b50505050508152505090506000805b82518110156131c757600085815260e0602052604090206001015460608401518051839081106130a2576130a2615488565b6020026020010151116130df57826080015181815181106130c5576130c5615488565b6020026020010151826130d891906155f7565b91506131bf565b8260400151156131ba5760008360800151828151811061310157613101615488565b602002602001015190506000826000146131425760608501516131256001856154b4565b8151811061313557613135615488565b6020026020010151613145565b60005b600088815260e06020526040812060010154919250906131669083906154b4565b90506000828760600151868151811061318157613181615488565b602002602001015161319391906154b4565b905061319f8185615637565b6131a9908361560a565b6131b390876155f7565b9550505050505b6131c7565b600101613070565b506131d3816001613b0e565b5050600082815260e060205260409020600301805460ff19166001179055613222565b600082815260e060205260408120818155600181018290556002810191909155600301805460ff191690555b505060e1805460ff19169055565b6000606d54600003613243575060705490565b607054606d54606e546071546132576144bd565b61326191906154b4565b61326b919061560a565b613284906ec097ce7bc90715b34b9f100000000061560a565b61328e9190615637565b611f4d91906155f7565b6001600160a01b038216600090815260746020908152604080832054607283528184205460739093529083205490916ec097ce7bc90715b34b9f1000000000916132e290866154b4565b6132ec919061560a565b6132f69190615637565b61330091906155f7565b9392505050565b60006001600160e01b031982166363a1750b60e01b1480610a2c5750610a2c826144d5565b600036601461333a336117ea565b80156133465750808210155b156133765760003661335883856154b4565b6133639282906158e7565b61336c91615911565b60601c9250505090565b339250505090565b60008054906101000a90046001600160a01b03166001600160a01b031663d09edf316040518163ffffffff1660e01b8152600401602060405180830381865afa1580156133cf573d6000803e3d6000fd5b505050506040513d601f19601f820116820180604052508101906133f39190615452565b604051632474521560e21b8152600481018490526001600160a01b03838116602483015291909116906391d1485490604401602060405180830381865afa158015613442573d6000803e3d6000fd5b505050506040513d601f19601f8201168201806040525081019061346691906155da565b6118ae576040516342abbb7760e01b8152600481018390526001600160a01b03821660248201526044015b60405180910390fd5b6134a382613602565b6001600160a01b038216600090815260746020526040902054156134ca576134ca82613661565b6001600160a01b038216600090815260726020526040812080548392906134f29084906155f7565b9250508190555080606d600082825461350b91906155f7565b90915550506040518181526001600160a01b038316907f9e71bc8eea02a63969f509818f2dafb9254532904319f9dbda79b67bd34a5f3d906020015b60405180910390a25050565b6002606b540361357657604051633ee5aeb560e01b815260040160405180910390fd5b6002606b55565b6040516001600160a01b038381166024830152604482018390526135dc91859182169063a9059cbb906064015b604051602081830303815290604052915060e01b6020820180516001600160e01b0383818316178352505050506144fa565b505050565b806000036109f1576040516351cd1a8760e11b815260040160405180910390fd5b61360a613230565b6070556136156144bd565b6071556001600160a01b038116156109f15761363381607054613298565b6001600160a01b03821660009081526074602090815260408083209390935560705460739091529190205550565b600061366f82607054613298565b6001600160a01b038316600081815260746020908152604080832092909255815160c081019092529181529192506137a2919081016136b66000546001600160a01b031690565b6001600160a01b03166304baed9e6040518163ffffffff1660e01b8152600401602060405180830381865afa1580156136f3573d6000803e3d6000fd5b505050506040513d601f19601f820116820180604052508101906137179190615452565b6001600160a01b031663fc0c546a6040518163ffffffff1660e01b8152600401602060405180830381865afa158015613754573d6000803e3d6000fd5b505050506040513d601f19601f820116820180604052508101906137789190615452565b6001600160a01b03168152602001838152602001428152602001600081526020014281525061455d565b60008054906101000a90046001600160a01b03166001600160a01b031663f1c6bdf86040518163ffffffff1660e01b8152600401602060405180830381865afa1580156137f3573d6000803e3d6000fd5b505050506040513d601f19601f820116820180604052508101906138179190615452565b60405163e151fc6160e01b81523060048201526001600160a01b03919091169063e151fc6190602401600060405180830381600087803b15801561385a57600080fd5b505af115801561386e573d6000803e3d6000fd5b50505050816001600160a01b03167fdf29796aad820e4bb192f3a8d631b76519bcd2cbe77cc85af20e9df53cece0868260405161354791815260200190565b6138b5614712565b6001600160a01b0382166138dc57604051637280679360e01b815260040160405180910390fd5b600080546001600160a01b0319166001600160a01b0384161790556139008161475b565b61391d57604051637511254160e01b815260040160405180910390fd5b80516001908155602082015160025560408201518291906003906139419082615994565b50606082015160038201906139569082615994565b505050606081015160405161396b9190615a54565b604080519182900382208351602080860151918552840152916001600160a01b038516917feb175f148a71d29a5f7bf5439182fcd81e6ea9cfc8a11b54ab0f705fa98fa8ca91015b60405180910390a35050565b6139c7614712565b6109f1816147ad565b6139d8614712565b6139e182613fd7565b6139ea81613c61565b6139f484846139fa565b50505050565b6001600160a01b038216613a2157604051630d03dd3d60e01b815260040160405180910390fd5b60a954604051634360af3d60e01b81526001600160a01b03848116600483015290911690634360af3d90602401602060405180830381865afa158015613a6b573d6000803e3d6000fd5b505050506040513d601f19601f82011682018060405250810190613a8f919061546f565b811015613aaf57604051634c79406b60e01b815260040160405180910390fd5b60a780546001600160a01b0319166001600160a01b03939093169290921790915560a855565b6040516001600160a01b0384811660248301528381166044830152606482018390526139f49186918216906323b872dd906084016135aa565b81613b18816135e1565b8180600003613b3a57604051630e05ce7960e41b815260040160405180910390fd5b613b446000613602565b606f544210613b5f57613b578385615637565b606e55613b98565b6000606e5442606f54613b7291906154b4565b613b7c919061560a565b905083613b8982876155f7565b613b939190615637565b606e55505b606e54600003613bbb57604051631db9af3b60e21b815260040160405180910390fd5b613bc583426155f7565b606f81905542607155606e5460408051878152602081018790529081019190915260608101919091527fe6ff9e5909ab32d770b5c8e779b77275ca8dda9d96cfb24d0287d80715dd02969060800160405180910390a150505050565b6000816000015182604001518360600151604051602001613c4493929190615a70565b604051602081830303815290604052805190602001209050919050565b6154608167ffffffffffffffff161015613c8e57604051634f0d3f4960e01b815260040160405180910390fd5b60a9805467ffffffffffffffff909216600160a01b027fffffffff0000000000000000ffffffffffffffffffffffffffffffffffffffff909216919091179055565b604051636eb1769f60e11b81523060048201526001600160a01b0383811660248301526000919085169063dd62ed3e90604401602060405180830381865afa158015613d20573d6000803e3d6000fd5b505050506040513d601f19601f82011682018060405250810190613d44919061546f565b90506139f48484613d5585856155f7565b6147f6565b6060613d69608083901c614886565b613d7283614886565b6040805160208101939093528201526060015b6040516020818303038152906040529050919050565b6060613dbc6fffffffffffffffffffffffffffffffff602084901c16614886565b613dd78360601b6bffffffffffffffffffffffff1916614886565b604051602001613d859291909182527fffffffffffffffff00000000000000000000000000000000000000000000000016602082015260280190565b606081600003613e3a5750506040805180820190915260018152600360fc1b602082015290565b8160005b8115613e645780613e4e8161583a565b9150613e5d9050600a83615637565b9150613e3e565b60008167ffffffffffffffff811115613e7f57613e7f614ee6565b6040519080825280601f01601f191660200182016040528015613ea9576020820181803683370190505b509050815b8515613f4e57613ebf6001826154b4565b90506000613ece600a88615637565b613ed990600a61560a565b613ee390886154b4565b613eee906030615a9b565b905060008160f81b905080848481518110613f0b57613f0b615488565b60200101907effffffffffffffffffffffffffffffffffffffffffffffffffffffffffffff1916908160001a905350613f45600a89615637565b97505050613eae565b50949350505050565b6000805460408051631e38d7bf60e31b815290516001600160a01b0380861693169163f1c6bdf89160048083019260209291908290030181865afa158015613fa3573d6000803e3d6000fd5b505050506040513d601f19601f82011682018060405250810190613fc79190615452565b6001600160a01b03161492915050565b6001600160a01b038116613ffe576040516321ea035160e21b815260040160405180910390fd5b60a980546001600160a01b0319166001600160a01b0383169081179091556040805163d509b01760e01b8152905163d509b017916004808201926020929091908290030181865afa158015614057573d6000803e3d6000fd5b505050506040513d601f19601f8201168201806040525081019061407b919061546f565b60aa5550565b6001600160a01b0381166000818152603860205260409020546118ae919084906147f6565b6001600160a01b0381166000818152603860205260408082205490516370a0823160e01b81523060048201529092906370a0823190602401602060405180830381865afa1580156140fb573d6000803e3d6000fd5b505050506040513d601f19601f8201168201806040525081019061411f919061546f565b9050818110156135dc5760008054906101000a90046001600160a01b03166001600160a01b03166304baed9e6040518163ffffffff1660e01b8152600401602060405180830381865afa15801561417a573d6000803e3d6000fd5b505050506040513d601f19601f8201168201806040525081019061419e9190615452565b6001600160a01b031663fc0c546a6040518163ffffffff1660e01b8152600401602060405180830381865afa1580156141db573d6000803e3d6000fd5b505050506040513d601f19601f820116820180604052508101906141ff9190615452565b6001600160a01b0316836001600160a01b03160361436657600080546040805163025d76cf60e11b815290516001600160a01b039092169163685dc6b19183916304baed9e916004808201926020929091908290030181865afa15801561426a573d6000803e3d6000fd5b505050506040513d601f19601f8201168201806040525081019061428e9190615452565b3061429986886154b4565b6040516001600160a01b039092166024830152604482015260640160408051601f198184030181529181526020820180516001600160e01b031663759cc4b560e01b179052516001600160e01b031960e085901b1681526142fe929190600401615ab4565b6000604051808303816000875af115801561431d573d6000803e3d6000fd5b505050506040513d6000823e601f3d908101601f191682016040526143459190810190615ade565b509050806139f45760405163068a67d160e21b815260040160405180910390fd5b6040516346511acb60e11b81526001600160a01b0384166004820152602401613491565b60a9546001600160a01b031661439e61332c565b6001600160a01b0316146143c5576040516311b77b4360e11b815260040160405180910390fd5b600082815260ab60209081526040918290208251608081018452815480825260018301548285018190526002909301546001600160a01b038116838701819052600160a01b90910460ff16151560608401528551871515815294850193909352909386937f557deaca39aedd0a84876c0dcbcb715b9b68641286033d7e79a274bdfe8d8a40910160405180910390a4811561448157600083815260ab60205260409020600201805460ff60a01b1916600160a01b179055505050565b5050600090815260ab602052604081208181556001810191909155600201805474ffffffffffffffffffffffffffffffffffffffffff19169055565b600042606f5411156144ce57504290565b50606f5490565b60006001600160e01b0319821663286309c760e01b1480610a2c5750610a2c82614a23565b600061450f6001600160a01b03841683614a58565b9050805160001415801561453457508080602001905181019061453291906155da565b155b156135dc57604051635274afe760e01b81526001600160a01b0384166004820152602401613491565b8061456781614a66565b81604001516038600084602001516001600160a01b03166001600160a01b0316815260200190815260200160002060008282546145a491906155f7565b909155505060378054600181018255600091909152825160069091027f42a7b7dd785cd69714a189dffb3fd7d7174edc9ece837694ce50f7078f7c31ae810180546001600160a01b039384166001600160a01b0319918216811790925560208601517f42a7b7dd785cd69714a189dffb3fd7d7174edc9ece837694ce50f7078f7c31af8401805491909516911681179093556040808601517f42a7b7dd785cd69714a189dffb3fd7d7174edc9ece837694ce50f7078f7c31b0840181905560608701517f42a7b7dd785cd69714a189dffb3fd7d7174edc9ece837694ce50f7078f7c31b185015560808701517f42a7b7dd785cd69714a189dffb3fd7d7174edc9ece837694ce50f7078f7c31b285015560a08701517f42a7b7dd785cd69714a189dffb3fd7d7174edc9ece837694ce50f7078f7c31b3909401939093555190917f21b8b94494ef1aff6ce0f5f3741800bdb27204fd430c1280b54d4cc653ae6f3a916139b391815260200190565b7ff0c57e16840df040f15088dc2f81fe391c3923bec73e23a9662efc9c229c6a0054600160401b900460ff1661147d57604051631afcd79f60e31b815260040160405180910390fd5b600081604001515160000361477257506000919050565b81606001515160000361478757506000919050565b815115801561479857506020820151155b156147a557506000919050565b506001919050565b6001600160a01b0381166147d457604051631c307bff60e31b815260040160405180910390fd5b606c80546001600160a01b0319166001600160a01b0392909216919091179055565b604080516001600160a01b038416602482015260448082018490528251808303909101815260649091019091526020810180516001600160e01b031663095ea7b360e01b1790526148478482614a8b565b6139f4576040516001600160a01b0384811660248301526000604483015261487c91869182169063095ea7b3906064016135aa565b6139f484826144fa565b6000808260001c9050806fffffffffffffffffffffffffffffffff16905080600160401b02811777ffffffffffffffff0000000000000000ffffffffffffffff169050806401000000000281177bffffffff00000000ffffffff00000000ffffffff00000000ffffffff16905080620100000281177dffff0000ffff0000ffff0000ffff0000ffff0000ffff0000ffff0000ffff169050806101000281177eff00ff00ff00ff00ff00ff00ff00ff00ff00ff00ff00ff00ff00ff00ff00ff1690508060100281177f0f0f0f0f0f0f0f0f0f0f0f0f0f0f0f0f0f0f0f0f0f0f0f0f0f0f0f0f0f0f0f0f16905060006008827f080808080808080808080808080808080808080808080808080808080808080816816149a5576149a5615621565b0460047f040404040404040404040404040404040404040404040404040404040404040484160460027f020202020202020202020202020202020202020202020202020202020202020285160417166027029091017f3030303030303030303030303030303030303030303030303030303030303030019392505050565b60006001600160e01b0319821663179dfb4560e01b1480610a2c57506301ffc9a760e01b6001600160e01b0319831614610a2c565b606061330083836000614b2e565b8051614a7190614bcb565b614a7e8160200151614c07565b6109f181604001516135e1565b6000806000846001600160a01b031684604051614aa89190615a54565b6000604051808303816000865af19150503d8060008114614ae5576040519150601f19603f3d011682016040523d82523d6000602084013e614aea565b606091505b5091509150818015614b14575080511580614b14575080806020019051810190614b1491906155da565b801561207b5750505050506001600160a01b03163b151590565b606081471015614b535760405163cd78605960e01b8152306004820152602401613491565b600080856001600160a01b03168486604051614b6f9190615a54565b60006040518083038185875af1925050503d8060008114614bac576040519150601f19603f3d011682016040523d82523d6000602084013e614bb1565b606091505b5091509150614bc1868383614c2e565b9695505050505050565b6001600160a01b0381161580614be957506001600160a01b03811630145b156109f157604051630cef278760e01b815260040160405180910390fd5b6001600160a01b0381166109f157604051639bfa9a6b60e01b815260040160405180910390fd5b606082614c4357614c3e82614c8a565b613300565b8151158015614c5a57506001600160a01b0384163b155b15614c8357604051639996b31560e01b81526001600160a01b0385166004820152602401613491565b5080613300565b805115614c9a5780518082602001fd5b604051630a12f52160e11b815260040160405180910390fd5b50805460008255906000526020600020908101906109f19190614d3d565b828054828255906000526020600020908101928215614d0c579160200282015b82811115614d0c578251825591602001919060010190614cf1565b50614d18929150614d3d565b5090565b50805460008255600602906000526020600020908101906109f19190614d52565b5b80821115614d185760008155600101614d3e565b5b80821115614d185780546001600160a01b03199081168255600182018054909116905560006002820181905560038201819055600482018190556005820155600601614d53565b6001600160a01b03811681146109f157600080fd5b600060208284031215614dc157600080fd5b813561330081614d9a565b600060208284031215614dde57600080fd5b81356001600160e01b03198116811461330057600080fd5b60008060008060808587031215614e0c57600080fd5b84359350602085013592506040850135614e2581614d9a565b9396929550929360600135925050565b600060208284031215614e4757600080fd5b5035919050565b60008083601f840112614e6057600080fd5b50813567ffffffffffffffff811115614e7857600080fd5b6020830191508360208260051b8501011115614e9357600080fd5b9250929050565b600080600060408486031215614eaf57600080fd5b83359250602084013567ffffffffffffffff811115614ecd57600080fd5b614ed986828701614e4e565b9497909650939450505050565b634e487b7160e01b600052604160045260246000fd5b6040516080810167ffffffffffffffff81118282101715614f1f57614f1f614ee6565b60405290565b604051601f8201601f1916810167ffffffffffffffff81118282101715614f4e57614f4e614ee6565b604052919050565b600067ffffffffffffffff821115614f7057614f70614ee6565b50601f01601f191660200190565b600082601f830112614f8f57600080fd5b8135614fa2614f9d82614f56565b614f25565b818152846020838601011115614fb757600080fd5b816020850160208301376000918101602001919091529392505050565b600080600060608486031215614fe957600080fd5b8335614ff481614d9a565b9250602084013567ffffffffffffffff8082111561501157600080fd5b908501906080828803121561502557600080fd5b61502d614efc565b823581526020830135602082015260408301358281111561504d57600080fd5b61505989828601614f7e565b60408301525060608301358281111561507157600080fd5b61507d89828601614f7e565b6060830152509350604086013591508082111561509957600080fd5b506150a686828701614f7e565b9150509250925092565b60005b838110156150cb5781810151838201526020016150b3565b50506000910152565b600081518084526150ec8160208601602086016150b0565b601f01601f19169290920160200192915050565b60208152600061330060208301846150d4565b6000806040838503121561512657600080fd5b823561513181614d9a565b946020939093013593505050565b60008151808452602080850194506020840160005b838110156151795781516001600160a01b031687529582019590820190600101615154565b509495945050505050565b602081526000613300602083018461513f565b600080604083850312156151aa57600080fd5b50508035926020909101359150565b600080604083850312156151cc57600080fd5b8235915060208301356151de81614d9a565b809150509250929050565b60008151808452602080850194506020840160005b8381101561517957815180516001600160a01b03908116895284820151168489015260408082015190890152606080820151908901526080808201519089015260a0908101519088015260c090960195908201906001016151fe565b60208152600061330060208301846151e9565b60008151808452602080850194506020840160005b8381101561517957815187529582019590820190600101615282565b6020815281516020820152602082015160408201526040820151151560608201526000606083015160a060808401526152da60c084018261526d565b90506080840151601f198483030160a085015261207b828261526d565b67ffffffffffffffff811681146109f157600080fd5b60006020828403121561531f57600080fd5b8135613300816152f7565b60008060006060848603121561533f57600080fd5b8335925060208401359150604084013561535881614d9a565b809150509250925092565b80151581146109f157600080fd5b60008060008060006060868803121561538957600080fd5b853561539481615363565b9450602086013567ffffffffffffffff808211156153b157600080fd5b6153bd89838a01614e4e565b909650945060408801359150808211156153d657600080fd5b506153e388828901614e4e565b969995985093965092949392505050565b60608152600061540760608301866151e9565b8281036020840152615419818661513f565b90508281036040840152614bc1818561526d565b6000806040838503121561544057600080fd5b8235915060208301356151de81615363565b60006020828403121561546457600080fd5b815161330081614d9a565b60006020828403121561548157600080fd5b5051919050565b634e487b7160e01b600052603260045260246000fd5b634e487b7160e01b600052601160045260246000fd5b81810381811115610a2c57610a2c61549e565b83815260406020808301829052908201839052600090849060608401835b868110156155135783356154f881614d9a565b6001600160a01b0316825292820192908201906001016154e5565b50979650505050505050565b634e487b7160e01b600052603160045260246000fd5b600080600080600060a0868803121561554d57600080fd5b855161555881614d9a565b602087015190955061556981614d9a565b60408701516060880151919550935061558181614d9a565b6080870151909250615592816152f7565b809150509295509295909350565b600181811c908216806155b457607f821691505b6020821081036155d457634e487b7160e01b600052602260045260246000fd5b50919050565b6000602082840312156155ec57600080fd5b815161330081615363565b80820180821115610a2c57610a2c61549e565b8082028115828204841417610a2c57610a2c61549e565b634e487b7160e01b600052601260045260246000fd5b60008261565457634e487b7160e01b600052601260045260246000fd5b500490565b6000815161566b8185602086016150b0565b9290920192915050565b7f446174612061737365727465643a20307800000000000000000000000000000081526000865160206156ae8260118601838c016150b0565b7f20666f72206461746149643a203078000000000000000000000000000000000060119285019283015287516156e981838501848c016150b0565b7f20616e642061737365727465723a203078000000000000000000000000000000920181810192909252865161572581603185018a85016150b0565b7f2061742074696d657374616d703a2000000000000000000000000000000000006031939091019283015285516157628160408501848a016150b0565b7f20696e207468652044617461417373657274657220636f6e747261637420617460409390910192830152506204060f60eb1b60608201526157c06157aa6063830186615659565b691034b9903b30b634b21760b11b8152600a0190565b98975050505050505050565b60006101208083526157e08184018d6150d4565b6001600160a01b039b8c166020850152998b1660408401525050958816606087015267ffffffffffffffff9490941660808601529190951660a084015260c083019490945260e08201939093526101000191909152919050565b60006001820161584c5761584c61549e565b5060010190565b81835260007f07ffffffffffffffffffffffffffffffffffffffffffffffffffffffffffffff83111561588557600080fd5b8260051b80836020870137939093016020019392505050565b878152866020820152851515604082015260a0606082015260006158c660a083018688615853565b82810360808401526158d9818587615853565b9a9950505050505050505050565b600080858511156158f757600080fd5b8386111561590457600080fd5b5050820193919092039150565b6bffffffffffffffffffffffff19813581811691601485101561207e5760149490940360031b84901b1690921692915050565b601f8211156135dc576000816000526020600020601f850160051c8101602086101561596d5750805b601f850160051c820191505b8181101561598c57828155600101615979565b505050505050565b815167ffffffffffffffff8111156159ae576159ae614ee6565b6159c2816159bc84546155a0565b84615944565b602080601f8311600181146159f757600084156159df5750858301515b600019600386901b1c1916600185901b17855561598c565b600085815260208120601f198616915b82811015615a2657888601518255948401946001909101908401615a07565b5085821015615a445787850151600019600388901b60f8161c191681555b5050505050600190811b01905550565b60008251615a668184602087016150b0565b9190910192915050565b838152606060208201526000615a8960608301856150d4565b8281036040840152614bc181856150d4565b60ff8181168382160190811115610a2c57610a2c61549e565b6001600160a01b0383168152604060208201526000615ad660408301846150d4565b949350505050565b60008060408385031215615af157600080fd5b8251615afc81615363565b602084015190925067ffffffffffffffff811115615b1957600080fd5b8301601f81018513615b2a57600080fd5b8051615b38614f9d82614f56565b818152866020838501011115615b4d57600080fd5b615b5e8260208301602086016150b0565b809350505050925092905056fea2646970667358221220638831b707a5cf81678764bcea86df1f380ce3b5b0b0abf475172171d13b11e964736f6c63430008170033",
    "linkReferences": {}
  },
  "methodIdentifiers": {
    "ASSERTER_ROLE()": "bf14d4a9",
    "KPICounter()": "78802654",
    "MAX_QUEUE_LENGTH()": "6e73ba5b",
    "amountPaid(address,uint256)": "b33ec618",
    "assertDataFor(bytes32,bytes32,address)": "93ee663b",
    "assertionConfig(bytes32)": "7b9a9c7f",
    "assertionData(bytes32)": "2a4e1904",
    "assertionDisputedCallback(bytes32)": "d448a4ec",
    "assertionLiveness()": "b75d4e24",
    "assertionPending()": "60a93176",
    "assertionResolvedCallback(bytes32,bool)": "f1b156b2",
    "balanceOf(address)": "70a08231",
    "claimRewards()": "372500ab",
    "collectPaymentOrders()": "c0231ff6",
    "createKPI(bool,uint256[],uint256[])": "bc7d2a33",
    "defaultBond()": "8333cb06",
    "defaultCurrency()": "20402e1d",
    "defaultIdentifier()": "d509b017",
    "depositFeeFunds(uint256)": "64e6bbe5",
    "dequeueStake()": "2979b670",
    "earned(address)": "008cc262",
    "estimateReward(uint256,uint256)": "7e5f43ff",
    "getAssertion(bytes32)": "88302884",
    "getAssertionConfig(bytes32)": "956ae17b",
    "getData(bytes32)": "54f6127f",
    "getKPI(uint256)": "772fd8da",
    "getStakingQueue()": "6315a455",
    "grantModuleRole(bytes32,address)": "6c67e807",
    "grantModuleRoleBatched(bytes32,address[])": "272bbd44",
    "identifier()": "7998a1c4",
    "init(address,(uint256,uint256,string,string),bytes)": "42dfe958",
    "isTrustedForwarder(address)": "572b6c05",
    "oo()": "8921a614",
    "orchestrator()": "b74795d9",
    "outstandingTokenAmount(address)": "2e84db5f",
    "paymentOrders()": "75fa0b76",
    "postAssertion(bytes32,uint256,address,uint256)": "074644e6",
    "registryOfKPIs(uint256)": "3ecd7972",
    "revokeModuleRole(bytes32,address)": "bcb61920",
    "revokeModuleRoleBatched(bytes32,address[])": "24e30270",
    "rewardRate()": "7b0a47ee",
    "rewardsEnd()": "a6d14d69",
    "setDefaultAssertionLiveness(uint64)": "81d09517",
    "setDefaultCurrencyAndBond(address,uint256)": "59be48f2",
    "setMinimumStake(uint256)": "233e9903",
    "setOptimisticOracle(address)": "bf5c3252",
    "setRewards(uint256,uint256)": "654e51e7",
    "stake(uint256)": "a694fc3a",
    "stakingQueue(uint256)": "0fe5bc3b",
    "stakingQueueAmounts(address)": "0dfc4357",
    "stakingToken()": "72f702f3",
    "supportsInterface(bytes4)": "01ffc9a7",
    "title()": "4a79d50c",
    "totalQueuedFunds()": "d701aedb",
    "totalSupply()": "18160ddd",
    "trustedForwarder()": "7da0a877",
    "unstake(uint256)": "2e17de78",
    "url()": "5600f04f",
    "version()": "54fd4d50"
  },
  "id": 145
}