{
  "abi": [
    {
      "type": "function",
      "name": "addRecurringPayment",
      "inputs": [
        {
          "name": "amount",
          "type": "uint256",
          "internalType": "uint256"
        },
        {
          "name": "startEpoch",
          "type": "uint256",
          "internalType": "uint256"
        },
        {
          "name": "recipient",
          "type": "address",
          "internalType": "address"
        }
      ],
      "outputs": [
        {
          "name": "id",
          "type": "uint256",
          "internalType": "uint256"
        }
      ],
      "stateMutability": "nonpayable"
    },
    {
      "type": "function",
      "name": "amountPaid",
      "inputs": [
        {
          "name": "token",
          "type": "address",
          "internalType": "address"
        },
        {
          "name": "amount",
          "type": "uint256",
          "internalType": "uint256"
        }
      ],
      "outputs": [],
      "stateMutability": "nonpayable"
    },
    {
      "type": "function",
      "name": "collectPaymentOrders",
      "inputs": [],
      "outputs": [
        {
          "name": "",
          "type": "tuple[]",
          "internalType": "struct IERC20PaymentClientBase_v1.PaymentOrder[]",
          "components": [
            {
              "name": "recipient",
              "type": "address",
              "internalType": "address"
            },
            {
              "name": "paymentToken",
              "type": "address",
              "internalType": "address"
            },
            {
              "name": "amount",
              "type": "uint256",
              "internalType": "uint256"
            },
            {
              "name": "start",
              "type": "uint256",
              "internalType": "uint256"
            },
            {
              "name": "cliff",
              "type": "uint256",
              "internalType": "uint256"
            },
            {
              "name": "end",
              "type": "uint256",
              "internalType": "uint256"
            }
          ]
        },
        {
          "name": "",
          "type": "address[]",
          "internalType": "address[]"
        },
        {
          "name": "",
          "type": "uint256[]",
          "internalType": "uint256[]"
        }
      ],
      "stateMutability": "nonpayable"
    },
    {
      "type": "function",
      "name": "getCurrentEpoch",
      "inputs": [],
      "outputs": [
        {
          "name": "epoch",
          "type": "uint256",
          "internalType": "uint256"
        }
      ],
      "stateMutability": "view"
    },
    {
      "type": "function",
      "name": "getEpochFromTimestamp",
      "inputs": [
        {
          "name": "timestamp",
          "type": "uint256",
          "internalType": "uint256"
        }
      ],
      "outputs": [
        {
          "name": "epoch",
          "type": "uint256",
          "internalType": "uint256"
        }
      ],
      "stateMutability": "view"
    },
    {
      "type": "function",
      "name": "getEpochLength",
      "inputs": [],
      "outputs": [
        {
          "name": "",
          "type": "uint256",
          "internalType": "uint256"
        }
      ],
      "stateMutability": "view"
    },
    {
      "type": "function",
      "name": "getFutureEpoch",
      "inputs": [
        {
          "name": "xEpochsInTheFuture",
          "type": "uint256",
          "internalType": "uint256"
        }
      ],
      "outputs": [
        {
          "name": "futureEpoch",
          "type": "uint256",
          "internalType": "uint256"
        }
      ],
      "stateMutability": "view"
    },
    {
      "type": "function",
      "name": "getPreviousPaymentId",
      "inputs": [
        {
          "name": "id",
          "type": "uint256",
          "internalType": "uint256"
        }
      ],
      "outputs": [
        {
          "name": "",
          "type": "uint256",
          "internalType": "uint256"
        }
      ],
      "stateMutability": "view"
    },
    {
      "type": "function",
      "name": "getRecurringPaymentInformation",
      "inputs": [
        {
          "name": "id",
          "type": "uint256",
          "internalType": "uint256"
        }
      ],
      "outputs": [
        {
          "name": "",
          "type": "tuple",
          "internalType": "struct ILM_PC_RecurringPayments_v1.RecurringPayment",
          "components": [
            {
              "name": "amount",
              "type": "uint256",
              "internalType": "uint256"
            },
            {
              "name": "startEpoch",
              "type": "uint256",
              "internalType": "uint256"
            },
            {
              "name": "lastTriggeredEpoch",
              "type": "uint256",
              "internalType": "uint256"
            },
            {
              "name": "recipient",
              "type": "address",
              "internalType": "address"
            }
          ]
        }
      ],
      "stateMutability": "view"
    },
    {
      "type": "function",
      "name": "grantModuleRole",
      "inputs": [
        {
          "name": "role",
          "type": "bytes32",
          "internalType": "bytes32"
        },
        {
          "name": "target",
          "type": "address",
          "internalType": "address"
        }
      ],
      "outputs": [],
      "stateMutability": "nonpayable"
    },
    {
      "type": "function",
      "name": "grantModuleRoleBatched",
      "inputs": [
        {
          "name": "role",
          "type": "bytes32",
          "internalType": "bytes32"
        },
        {
          "name": "targets",
          "type": "address[]",
          "internalType": "address[]"
        }
      ],
      "outputs": [],
      "stateMutability": "nonpayable"
    },
    {
      "type": "function",
      "name": "identifier",
      "inputs": [],
      "outputs": [
        {
          "name": "",
          "type": "bytes32",
          "internalType": "bytes32"
        }
      ],
      "stateMutability": "view"
    },
    {
      "type": "function",
      "name": "init",
      "inputs": [
        {
          "name": "orchestrator_",
          "type": "address",
          "internalType": "contract IOrchestrator_v1"
        },
        {
          "name": "metadata",
          "type": "tuple",
          "internalType": "struct IModule_v1.Metadata",
          "components": [
            {
              "name": "majorVersion",
              "type": "uint256",
              "internalType": "uint256"
            },
            {
              "name": "minorVersion",
              "type": "uint256",
              "internalType": "uint256"
            },
            {
              "name": "url",
              "type": "string",
              "internalType": "string"
            },
            {
              "name": "title",
              "type": "string",
              "internalType": "string"
            }
          ]
        },
        {
          "name": "configData",
          "type": "bytes",
          "internalType": "bytes"
        }
      ],
      "outputs": [],
      "stateMutability": "nonpayable"
    },
    {
      "type": "function",
      "name": "isExistingRecurringPaymentId",
      "inputs": [
        {
          "name": "id",
          "type": "uint256",
          "internalType": "uint256"
        }
      ],
      "outputs": [
        {
          "name": "",
          "type": "bool",
          "internalType": "bool"
        }
      ],
      "stateMutability": "view"
    },
    {
      "type": "function",
      "name": "isTrustedForwarder",
      "inputs": [
        {
          "name": "forwarder",
          "type": "address",
          "internalType": "address"
        }
      ],
      "outputs": [
        {
          "name": "",
          "type": "bool",
          "internalType": "bool"
        }
      ],
      "stateMutability": "view"
    },
    {
      "type": "function",
      "name": "listRecurringPaymentIds",
      "inputs": [],
      "outputs": [
        {
          "name": "",
          "type": "uint256[]",
          "internalType": "uint256[]"
        }
      ],
      "stateMutability": "view"
    },
    {
      "type": "function",
      "name": "orchestrator",
      "inputs": [],
      "outputs": [
        {
          "name": "",
          "type": "address",
          "internalType": "contract IOrchestrator_v1"
        }
      ],
      "stateMutability": "view"
    },
    {
      "type": "function",
      "name": "outstandingTokenAmount",
      "inputs": [
        {
          "name": "_token",
          "type": "address",
          "internalType": "address"
        }
      ],
      "outputs": [
        {
          "name": "",
          "type": "uint256",
          "internalType": "uint256"
        }
      ],
      "stateMutability": "view"
    },
    {
      "type": "function",
      "name": "paymentOrders",
      "inputs": [],
      "outputs": [
        {
          "name": "",
          "type": "tuple[]",
          "internalType": "struct IERC20PaymentClientBase_v1.PaymentOrder[]",
          "components": [
            {
              "name": "recipient",
              "type": "address",
              "internalType": "address"
            },
            {
              "name": "paymentToken",
              "type": "address",
              "internalType": "address"
            },
            {
              "name": "amount",
              "type": "uint256",
              "internalType": "uint256"
            },
            {
              "name": "start",
              "type": "uint256",
              "internalType": "uint256"
            },
            {
              "name": "cliff",
              "type": "uint256",
              "internalType": "uint256"
            },
            {
              "name": "end",
              "type": "uint256",
              "internalType": "uint256"
            }
          ]
        }
      ],
      "stateMutability": "view"
    },
    {
      "type": "function",
      "name": "removeRecurringPayment",
      "inputs": [
        {
          "name": "prevId",
          "type": "uint256",
          "internalType": "uint256"
        },
        {
          "name": "id",
          "type": "uint256",
          "internalType": "uint256"
        }
      ],
      "outputs": [],
      "stateMutability": "nonpayable"
    },
    {
      "type": "function",
      "name": "revokeModuleRole",
      "inputs": [
        {
          "name": "role",
          "type": "bytes32",
          "internalType": "bytes32"
        },
        {
          "name": "target",
          "type": "address",
          "internalType": "address"
        }
      ],
      "outputs": [],
      "stateMutability": "nonpayable"
    },
    {
      "type": "function",
      "name": "revokeModuleRoleBatched",
      "inputs": [
        {
          "name": "role",
          "type": "bytes32",
          "internalType": "bytes32"
        },
        {
          "name": "targets",
          "type": "address[]",
          "internalType": "address[]"
        }
      ],
      "outputs": [],
      "stateMutability": "nonpayable"
    },
    {
      "type": "function",
      "name": "supportsInterface",
      "inputs": [
        {
          "name": "interfaceId",
          "type": "bytes4",
          "internalType": "bytes4"
        }
      ],
      "outputs": [
        {
          "name": "",
          "type": "bool",
          "internalType": "bool"
        }
      ],
      "stateMutability": "view"
    },
    {
      "type": "function",
      "name": "title",
      "inputs": [],
      "outputs": [
        {
          "name": "",
          "type": "string",
          "internalType": "string"
        }
      ],
      "stateMutability": "view"
    },
    {
      "type": "function",
      "name": "trigger",
      "inputs": [],
      "outputs": [],
      "stateMutability": "nonpayable"
    },
    {
      "type": "function",
      "name": "triggerFor",
      "inputs": [
        {
          "name": "startId",
          "type": "uint256",
          "internalType": "uint256"
        },
        {
          "name": "endId",
          "type": "uint256",
          "internalType": "uint256"
        }
      ],
      "outputs": [],
      "stateMutability": "nonpayable"
    },
    {
      "type": "function",
      "name": "trustedForwarder",
      "inputs": [],
      "outputs": [
        {
          "name": "",
          "type": "address",
          "internalType": "address"
        }
      ],
      "stateMutability": "view"
    },
    {
      "type": "function",
      "name": "url",
      "inputs": [],
      "outputs": [
        {
          "name": "",
          "type": "string",
          "internalType": "string"
        }
      ],
      "stateMutability": "view"
    },
    {
      "type": "function",
      "name": "version",
      "inputs": [],
      "outputs": [
        {
          "name": "",
          "type": "uint256",
          "internalType": "uint256"
        },
        {
          "name": "",
          "type": "uint256",
          "internalType": "uint256"
        }
      ],
      "stateMutability": "view"
    },
    {
      "type": "event",
      "name": "Initialized",
      "inputs": [
        {
          "name": "version",
          "type": "uint64",
          "indexed": false,
          "internalType": "uint64"
        }
      ],
      "anonymous": false
    },
    {
      "type": "event",
      "name": "ModuleInitialized",
      "inputs": [
        {
          "name": "parentOrchestrator",
          "type": "address",
          "indexed": true,
          "internalType": "address"
        },
        {
          "name": "moduleTitle",
          "type": "string",
          "indexed": true,
          "internalType": "string"
        },
        {
          "name": "majorVersion",
          "type": "uint256",
          "indexed": false,
          "internalType": "uint256"
        },
        {
          "name": "minorVersion",
          "type": "uint256",
          "indexed": false,
          "internalType": "uint256"
        }
      ],
      "anonymous": false
    },
    {
      "type": "event",
      "name": "PaymentOrderAdded",
      "inputs": [
        {
          "name": "recipient",
          "type": "address",
          "indexed": true,
          "internalType": "address"
        },
        {
          "name": "token",
          "type": "address",
          "indexed": true,
          "internalType": "address"
        },
        {
          "name": "amount",
          "type": "uint256",
          "indexed": false,
          "internalType": "uint256"
        }
      ],
      "anonymous": false
    },
    {
      "type": "event",
      "name": "RecurringPaymentAdded",
      "inputs": [
        {
          "name": "recurringPaymentId",
          "type": "uint256",
          "indexed": true,
          "internalType": "uint256"
        },
        {
          "name": "amount",
          "type": "uint256",
          "indexed": false,
          "internalType": "uint256"
        },
        {
          "name": "startEpoch",
          "type": "uint256",
          "indexed": false,
          "internalType": "uint256"
        },
        {
          "name": "lastTriggeredEpoch",
          "type": "uint256",
          "indexed": false,
          "internalType": "uint256"
        },
        {
          "name": "recipient",
          "type": "address",
          "indexed": false,
          "internalType": "address"
        }
      ],
      "anonymous": false
    },
    {
      "type": "event",
      "name": "RecurringPaymentRemoved",
      "inputs": [
        {
          "name": "recurringPaymentId",
          "type": "uint256",
          "indexed": true,
          "internalType": "uint256"
        }
      ],
      "anonymous": false
    },
    {
      "type": "event",
      "name": "RecurringPaymentsTriggered",
      "inputs": [
        {
          "name": "currentEpoch",
          "type": "uint256",
          "indexed": true,
          "internalType": "uint256"
        }
      ],
      "anonymous": false
    },
    {
      "type": "error",
      "name": "AddressEmptyCode",
      "inputs": [
        {
          "name": "target",
          "type": "address",
          "internalType": "address"
        }
      ]
    },
    {
      "type": "error",
      "name": "AddressInsufficientBalance",
      "inputs": [
        {
          "name": "account",
          "type": "address",
          "internalType": "address"
        }
      ]
    },
    {
      "type": "error",
      "name": "FailedInnerCall",
      "inputs": []
    },
    {
      "type": "error",
      "name": "InvalidInitialization",
      "inputs": []
    },
    {
      "type": "error",
      "name": "Library__LinkedIdList__IdNotConsecutive",
      "inputs": []
    },
    {
      "type": "error",
      "name": "Library__LinkedIdList__InvalidId",
      "inputs": []
    },
    {
      "type": "error",
      "name": "Library__LinkedIdList__InvalidNewId",
      "inputs": []
    },
    {
      "type": "error",
      "name": "Library__LinkedIdList__InvalidPosition",
      "inputs": []
    },
    {
      "type": "error",
      "name": "Module_OrchestratorCallbackFailed",
      "inputs": [
        {
          "name": "funcSig",
          "type": "string",
          "internalType": "string"
        }
      ]
    },
    {
      "type": "error",
      "name": "Module__CallerNotAuthorized",
      "inputs": [
        {
          "name": "role",
          "type": "bytes32",
          "internalType": "bytes32"
        },
        {
          "name": "caller",
          "type": "address",
          "internalType": "address"
        }
      ]
    },
    {
      "type": "error",
      "name": "Module__ERC20PaymentClientBase__ArrayLengthMismatch",
      "inputs": []
    },
    {
      "type": "error",
      "name": "Module__ERC20PaymentClientBase__CallerNotAuthorized",
      "inputs": []
    },
    {
      "type": "error",
      "name": "Module__ERC20PaymentClientBase__InsufficientFunds",
      "inputs": [
        {
          "name": "token",
          "type": "address",
          "internalType": "address"
        }
      ]
    },
    {
      "type": "error",
      "name": "Module__ERC20PaymentClientBase__InvalidAmount",
      "inputs": []
    },
    {
      "type": "error",
      "name": "Module__ERC20PaymentClientBase__InvalidRecipient",
      "inputs": []
    },
    {
      "type": "error",
      "name": "Module__ERC20PaymentClientBase__InvalidToken",
      "inputs": []
    },
    {
      "type": "error",
      "name": "Module__ERC20PaymentClientBase__Invalidend",
      "inputs": []
    },
    {
      "type": "error",
      "name": "Module__ERC20PaymentClientBase__TokenTransferFailed",
      "inputs": []
    },
    {
      "type": "error",
      "name": "Module__InvalidMetadata",
      "inputs": []
    },
    {
      "type": "error",
      "name": "Module__InvalidOrchestratorAddress",
      "inputs": []
    },
    {
      "type": "error",
      "name": "Module__LM_PC_RecurringPayments__InvalidEpochLength",
      "inputs": []
    },
    {
      "type": "error",
      "name": "Module__LM_PC_RecurringPayments__InvalidRecurringPaymentId",
      "inputs": []
    },
    {
      "type": "error",
      "name": "Module__LM_PC_RecurringPayments__InvalidStartEpoch",
      "inputs": []
    },
    {
      "type": "error",
      "name": "Module__LM_PC_RecurringPayments__StartIdNotBeforeEndId",
      "inputs": []
    },
    {
      "type": "error",
      "name": "Module__OnlyCallableByOrchestrator",
      "inputs": []
    },
    {
      "type": "error",
      "name": "NotInitializing",
      "inputs": []
    },
    {
      "type": "error",
      "name": "SafeERC20FailedOperation",
      "inputs": [
        {
          "name": "token",
          "type": "address",
          "internalType": "address"
        }
      ]
    }
  ],
  "bytecode": {
    "object": "0x60a06040523480156200001157600080fd5b5060006080526200002162000027565b620000db565b7ff0c57e16840df040f15088dc2f81fe391c3923bec73e23a9662efc9c229c6a00805468010000000000000000900460ff1615620000785760405163f92ee8a960e01b815260040160405180910390fd5b80546001600160401b0390811614620000d85780546001600160401b0319166001600160401b0390811782556040519081527fc7f505b2f371ae2175ee4913f4499e1f2633a7b5936321eed1cdaeb6115181d29060200160405180910390a15b50565b60805161394b620000f46000396000505061394b6000f3fe608060405234801561001057600080fd5b50600436106101cf5760003560e01c80636c67e80711610104578063b74795d9116100a2578063c42542e311610071578063c42542e3146103db578063c7829b6f1461042a578063c83e63621461043d578063cfe8a73b1461045057600080fd5b8063b74795d914610398578063b97dd9e2146103a9578063bcb61920146103b1578063c0231ff6146103c457600080fd5b80637da0a877116100de5780637da0a8771461034a5780637fec8d381461036a5780638008dd8e14610372578063b33ec6181461038557600080fd5b80636c67e8071461031a57806375fa0b761461032d5780637998a1c41461034257600080fd5b80634a79d50c116101715780635600f04f1161014b5780635600f04f146102d9578063572b6c05146102e157806362fe48fd146102f4578063648bc2cd1461030757600080fd5b80634a79d50c1461029657806350287478146102ab57806354fd4d50146102be57600080fd5b8063272bbd44116101ad578063272bbd4414610226578063274b903a146102395780632e84db5f1461025a57806342dfe9581461028357600080fd5b806301ffc9a7146101d45780631bf3bfe8146101fc57806324e3027014610211575b600080fd5b6101e76101e2366004612fea565b610458565b60405190151581526020015b60405180910390f35b610204610483565b6040516101f39190613050565b61022461021f366004613063565b610494565b005b610224610234366004613063565b610748565b61024c6102473660046130e2565b610924565b6040519081526020016101f3565b61024c610268366004613110565b6001600160a01b031660009081526038602052604090205490565b61022461029136600461321b565b610939565b61029e610ae0565b6040516101f39190613347565b61024c6102b93660046130e2565b610b75565b600154600254604080519283526020830191909152016101f3565b61029e610b82565b6101e76102ef366004613110565b610b94565b6101e76103023660046130e2565b610c03565b61022461031536600461335a565b610c10565b61022461032836600461337c565b610c9d565b610335610eab565b6040516101f3919061341d565b61024c610f4e565b610352611099565b6040516001600160a01b0390911681526020016101f3565b610224611111565b61024c610380366004613430565b61112b565b610224610393366004613469565b6112f4565b6000546001600160a01b0316610352565b61024c611352565b6102246103bf36600461337c565b611362565b6103cc611546565b6040516101f393929190613495565b6103ee6103e93660046130e2565b611a05565b6040516101f391908151815260208083015190820152604080830151908201526060918201516001600160a01b03169181019190915260800190565b61022461043836600461335a565b611ab3565b61024c61044b3660046130e2565b611b74565b606c5461024c565b60006001600160e01b0319821663280d451b60e01b148061047d575061047d82611b84565b92915050565b606061048f606e611ba9565b905090565b600080546040805163d09edf3160e01b815290518693926001600160a01b03169163d09edf319160048083019260209291908290030181865afa1580156104df573d6000803e3d6000fd5b505050506040513d601f19601f820116820180604052508101906105039190613508565b60405163fdd5205f60e01b8152306004820152602481018490526001600160a01b03919091169063fdd5205f906044016020604051808303816000875af1158015610552573d6000803e3d6000fd5b505050506040513d601f19601f820116820180604052508101906105769190613525565b905061066b60008054906101000a90046001600160a01b03166001600160a01b031663d09edf316040518163ffffffff1660e01b8152600401602060405180830381865afa1580156105cc573d6000803e3d6000fd5b505050506040513d601f19601f820116820180604052508101906105f09190613508565b6001600160a01b031663248a9ca3836040518263ffffffff1660e01b815260040161061d91815260200190565b602060405180830381865afa15801561063a573d6000803e3d6000fd5b505050506040513d601f19601f8201168201806040525081019061065e9190613525565b610666611c63565b611cb5565b60008054906101000a90046001600160a01b03166001600160a01b031663d09edf316040518163ffffffff1660e01b8152600401602060405180830381865afa1580156106bc573d6000803e3d6000fd5b505050506040513d601f19601f820116820180604052508101906106e09190613508565b6001600160a01b0316637d540a648686866040518463ffffffff1660e01b815260040161070f9392919061353e565b600060405180830381600087803b15801561072957600080fd5b505af115801561073d573d6000803e3d6000fd5b505050505050505050565b600080546040805163d09edf3160e01b815290518693926001600160a01b03169163d09edf319160048083019260209291908290030181865afa158015610793573d6000803e3d6000fd5b505050506040513d601f19601f820116820180604052508101906107b79190613508565b60405163fdd5205f60e01b8152306004820152602481018490526001600160a01b03919091169063fdd5205f906044016020604051808303816000875af1158015610806573d6000803e3d6000fd5b505050506040513d601f19601f8201168201806040525081019061082a9190613525565b905061088060008054906101000a90046001600160a01b03166001600160a01b031663d09edf316040518163ffffffff1660e01b8152600401602060405180830381865afa1580156105cc573d6000803e3d6000fd5b60008054906101000a90046001600160a01b03166001600160a01b031663d09edf316040518163ffffffff1660e01b8152600401602060405180830381865afa1580156108d1573d6000803e3d6000fd5b505050506040513d601f19601f820116820180604052508101906108f59190613508565b6001600160a01b031663648154538686866040518463ffffffff1660e01b815260040161070f9392919061353e565b60008161092f611352565b61047d91906135ac565b7ff0c57e16840df040f15088dc2f81fe391c3923bec73e23a9662efc9c229c6a00805468010000000000000000810460ff16159067ffffffffffffffff166000811580156109845750825b905060008267ffffffffffffffff1660011480156109a15750303b155b9050811580156109af575080155b156109cd5760405163f92ee8a960e01b815260040160405180910390fd5b845467ffffffffffffffff191660011785558315610a0157845468ff00000000000000001916680100000000000000001785555b610a0b8888611dd5565b600019600081905260706020527f90e8828a45adaa15d8645928a320f3f2178f38b1e816e9a534ed71202ec464cc819055606f5585806020019051810190610a539190613525565b606c81905562093a801180610a6d57506301dfe200606c54115b15610a8b57604051637d65a31360e01b815260040160405180910390fd5b8315610ad657845468ff000000000000000019168555604051600181527fc7f505b2f371ae2175ee4913f4499e1f2633a7b5936321eed1cdaeb6115181d29060200160405180910390a15b5050505050505050565b606060016003018054610af2906135bf565b80601f0160208091040260200160405190810160405280929190818152602001828054610b1e906135bf565b8015610b6b5780601f10610b4057610100808354040283529160200191610b6b565b820191906000526020600020905b815481529060010190602001808311610b4e57829003601f168201915b5050505050905090565b600061047d606e83611ee7565b606060016002018054610af2906135bf565b6000805460405163572b6c0560e01b81526001600160a01b0384811660048301529091169063572b6c0590602401602060405180830381865afa158015610bdf573d6000803e3d6000fd5b505050506040513d601f19601f8201168201806040525081019061047d9190613608565b600061047d606e83611fbe565b81610c1a81610c03565b610c37576040516366f62b2360e01b815260040160405180910390fd5b81610c4181610c03565b610c5e576040516366f62b2360e01b815260040160405180910390fd5b838380821115610c815760405163b02d7cbb60e01b815260040160405180910390fd5b610c9586610c90606e88611fe6565b612033565b505050505050565b600080546040805163d09edf3160e01b815290518593926001600160a01b03169163d09edf319160048083019260209291908290030181865afa158015610ce8573d6000803e3d6000fd5b505050506040513d601f19601f82011682018060405250810190610d0c9190613508565b60405163fdd5205f60e01b8152306004820152602481018490526001600160a01b03919091169063fdd5205f906044016020604051808303816000875af1158015610d5b573d6000803e3d6000fd5b505050506040513d601f19601f82011682018060405250810190610d7f9190613525565b9050610dd560008054906101000a90046001600160a01b03166001600160a01b031663d09edf316040518163ffffffff1660e01b8152600401602060405180830381865afa1580156105cc573d6000803e3d6000fd5b60008054906101000a90046001600160a01b03166001600160a01b031663d09edf316040518163ffffffff1660e01b8152600401602060405180830381865afa158015610e26573d6000803e3d6000fd5b505050506040513d601f19601f82011682018060405250810190610e4a9190613508565b60405163385e205560e21b8152600481018690526001600160a01b038581166024830152919091169063e1788154906044015b600060405180830381600087803b158015610e9757600080fd5b505af1158015610ad6573d6000803e3d6000fd5b60606037805480602002602001604051908101604052809291908181526020016000905b82821015610f455760008481526020908190206040805160c0810182526006860290920180546001600160a01b0390811684526001808301549091168486015260028201549284019290925260038101546060840152600481015460808401526005015460a08301529083529092019101610ecf565b50505050905090565b6040805160808101825260018054825260025460208301526003805460009461048f94939290840191610f80906135bf565b80601f0160208091040260200160405190810160405280929190818152602001828054610fac906135bf565b8015610ff95780601f10610fce57610100808354040283529160200191610ff9565b820191906000526020600020905b815481529060010190602001808311610fdc57829003601f168201915b50505050508152602001600382018054611012906135bf565b80601f016020809104026020016040519081016040528092919081815260200182805461103e906135bf565b801561108b5780601f106110605761010080835404028352916020019161108b565b820191906000526020600020905b81548152906001019060200180831161106e57829003601f168201915b50505050508152505061248f565b60008060009054906101000a90046001600160a01b03166001600160a01b0316637da0a8776040518163ffffffff1660e01b8152600401602060405180830381865afa1580156110ed573d6000803e3d6000fd5b505050506040513d601f19601f8201168201806040525081019061048f9190613508565b611129611121606e600019611fe6565b600019612033565b565b600080546040805163d09edf3160e01b815290516111d8926001600160a01b03169163d09edf319160048083019260209291908290030181865afa158015611177573d6000803e3d6000fd5b505050506040513d601f19601f8201168201806040525081019061119b9190613508565b6001600160a01b031663b3ecf2366040518163ffffffff1660e01b8152600401602060405180830381865afa15801561063a573d6000803e3d6000fd5b836111e2816124cf565b83806111ec611352565b111561120b576040516305ca0da960e51b815260040160405180910390fd5b83611215816124f3565b6000606b6000815461122690613623565b91829055509050611238606e8261252f565b6000818152606d60205260409020888155600190810188905561125b908861363c565b6000828152606d60205260409020600281019190915560030180546001600160a01b0319166001600160a01b038816179055807f1c3e2cbb4bc61dfafd6e9635e41a29611c202472f2c4252180bc2aacfb5dcb2c89896112bc60018261363c565b604080519384526020840192909252908201526001600160a01b038916606082015260800160405180910390a2979650505050505050565b6113046112ff611c63565b6125a3565b6113215760405163e4597a6b60e01b815260040160405180910390fd5b6001600160a01b0382166000908152603860205260408120805483929061134990849061363c565b90915550505050565b6000606c544261048f919061364f565b600080546040805163d09edf3160e01b815290518593926001600160a01b03169163d09edf319160048083019260209291908290030181865afa1580156113ad573d6000803e3d6000fd5b505050506040513d601f19601f820116820180604052508101906113d19190613508565b60405163fdd5205f60e01b8152306004820152602481018490526001600160a01b03919091169063fdd5205f906044016020604051808303816000875af1158015611420573d6000803e3d6000fd5b505050506040513d601f19601f820116820180604052508101906114449190613525565b905061149a60008054906101000a90046001600160a01b03166001600160a01b031663d09edf316040518163ffffffff1660e01b8152600401602060405180830381865afa1580156105cc573d6000803e3d6000fd5b60008054906101000a90046001600160a01b03166001600160a01b031663d09edf316040518163ffffffff1660e01b8152600401602060405180830381865afa1580156114eb573d6000803e3d6000fd5b505050506040513d601f19601f8201168201806040525081019061150f9190613508565b604051632e99be7f60e21b8152600481018690526001600160a01b038581166024830152919091169063ba66f9fc90604401610e7d565b60608060606115566112ff611c63565b6115735760405163e4597a6b60e01b815260040160405180910390fd5b6037546000808267ffffffffffffffff8111156115925761159261312d565b6040519080825280602002602001820160405280156115bb578160200160208202803683370190505b50905060008367ffffffffffffffff8111156115d9576115d961312d565b604051908082528060200260200182016040528015611602578160200160208202803683370190505b50905060008467ffffffffffffffff8111156116205761162061312d565b60405190808252806020026020018201604052801561169c57816020015b6116896040518060c0016040528060006001600160a01b0316815260200160006001600160a01b03168152602001600081526020016000815260200160008152602001600081525090565b81526020019060019003908161163e5790505b50905060005b8581101561187657603781815481106116bd576116bd613671565b60009182526020918290206040805160c081018252600690930290910180546001600160a01b03908116845260018201541693830193909352600283015490820152600382015460608201526004820154608082015260059091015460a0820152825183908390811061173257611732613671565b60200260200101819052506000805b868110156117a95783838151811061175b5761175b613671565b6020026020010151602001516001600160a01b031686828151811061178257611782613671565b60200260200101516001600160a01b0316036117a157600191506117a9565b600101611741565b508061186d578282815181106117c1576117c1613671565b6020026020010151602001518587815181106117df576117df613671565b60200260200101906001600160a01b031690816001600160a01b0316815250506038600084848151811061181557611815613671565b6020026020010151602001516001600160a01b03166001600160a01b031681526020019081526020016000205484878151811061185457611854613671565b60209081029190910101528561186981613623565b9650505b506001016116a2565b5061188360376000612f82565b60008467ffffffffffffffff81111561189e5761189e61312d565b6040519080825280602002602001820160405280156118c7578160200160208202803683370190505b50905060008567ffffffffffffffff8111156118e5576118e561312d565b60405190808252806020026020018201604052801561190e578160200160208202803683370190505b50905060005b868110156119f45785818151811061192e5761192e613671565b602002602001015183828151811061194857611948613671565b60200260200101906001600160a01b031690816001600160a01b03168152505084818151811061197a5761197a613671565b602002602001015182828151811061199457611994613671565b6020026020010181815250506119ca6119ab611c63565b8483815181106119bd576119bd613671565b6020026020010151612623565b6119ec8382815181106119df576119df613671565b6020026020010151612648565b600101611914565b509199909850909650945050505050565b611a39604051806080016040528060008152602001600081526020016000815260200160006001600160a01b031681525090565b81611a4381610c03565b611a60576040516366f62b2360e01b815260040160405180910390fd5b6000838152606d60209081526040918290208251608081018452815481526001820154928101929092526002810154928201929092526003909101546001600160a01b0316606082015291505b50919050565b6000546040805163d09edf3160e01b81529051611afe926001600160a01b03169163d09edf319160048083019260209291908290030181865afa158015611177573d6000803e3d6000fd5b611b0d81610c90606e82611fe6565b611b19606e8383612937565b6000818152606d6020526040808220828155600181018390556002810183905560030180546001600160a01b03191690555182917f49dd16c810a73510f0cdd59f21ce525b27c468a7f759207177bc9a1e4820266691a25050565b6000606c548261047d919061364f565b60006001600160e01b0319821663286309c760e01b148061047d575061047d826129e6565b60606000826000015467ffffffffffffffff811115611bca57611bca61312d565b604051908082528060200260200182016040528015611bf3578160200160208202803683370190505b506000196000908152600285016020526040812054919250905b6000198114611c5a5780838381518110611c2957611c29613671565b6020908102919091018101919091526000918252600286019052604090205481611c5281613623565b925050611c0d565b50909392505050565b6000366014611c7133610b94565b8015611c7d5750808210155b15611cad57600036611c8f838561363c565b611c9a928290613687565b611ca3916136b1565b60601c9250505090565b339250505090565b60008054906101000a90046001600160a01b03166001600160a01b031663d09edf316040518163ffffffff1660e01b8152600401602060405180830381865afa158015611d06573d6000803e3d6000fd5b505050506040513d601f19601f82011682018060405250810190611d2a9190613508565b604051632474521560e21b8152600481018490526001600160a01b03838116602483015291909116906391d1485490604401602060405180830381865afa158015611d79573d6000803e3d6000fd5b505050506040513d601f19601f82011682018060405250810190611d9d9190613608565b611dd1576040516342abbb7760e01b8152600481018390526001600160a01b03821660248201526044015b60405180910390fd5b5050565b611ddd612a1b565b6001600160a01b038216611e0457604051637280679360e01b815260040160405180910390fd5b600080546001600160a01b0319166001600160a01b038416179055611e2881612a69565b611e4557604051637511254160e01b815260040160405180910390fd5b8051600190815560208201516002556040820151829190600390611e69908261372c565b5060608201516003820190611e7e908261372c565b5050506060810151604051611e9391906137ec565b604080519182900382208351602080860151918552840152916001600160a01b038516917feb175f148a71d29a5f7bf5439182fcd81e6ea9cfc8a11b54ab0f705fa98fa8ca91015b60405180910390a35050565b6000818152600283016020526040812054839083908303611f1b57604051637bfea7d960e11b815260040160405180910390fd5b6000198403611f305784600101549250611fb6565b6000611f3b86611ba9565b805190915060005b81811015611fb25786838281518110611f5e57611f5e613671565b602002602001015103611faa5780600003611f7b57600019611fa0565b82611f8760018361363c565b81518110611f9757611f97613671565b60200260200101515b9550505050611fb6565b600101611f43565b5050505b505092915050565b600081815260028301602052604081205415801590611fdf57506000198214155b9392505050565b600081815260028301602052604081205483908390830361201a57604051637bfea7d960e11b815260040160405180910390fd5b5050506000908152600291909101602052604090205490565b81600061203e611352565b9050612074604051806080016040528060008152602001600081526020016000815260200160006001600160a01b031681525090565b60005b84841461238c576000848152606d60209081526040918290208251608081018452815481526001820154928101839052600282015493810193909352600301546001600160a01b0316606083015290925083106123765760408201516120dd908461363c565b905080156123765761221e6040518060c0016040528084606001516001600160a01b031681526020016121186000546001600160a01b031690565b6001600160a01b03166304baed9e6040518163ffffffff1660e01b8152600401602060405180830381865afa158015612155573d6000803e3d6000fd5b505050506040513d601f19601f820116820180604052508101906121799190613508565b6001600160a01b031663fc0c546a6040518163ffffffff1660e01b8152600401602060405180830381865afa1580156121b6573d6000803e3d6000fd5b505050506040513d601f19601f820116820180604052508101906121da9190613508565b6001600160a01b031681528451602082015242604082015260006060820152606c5460809091019061220d8760016135ac565b6122179190613808565b9052612abb565b6001811115612361576123616040518060c0016040528084606001516001600160a01b0316815260200161225a6000546001600160a01b031690565b6001600160a01b03166304baed9e6040518163ffffffff1660e01b8152600401602060405180830381865afa158015612297573d6000803e3d6000fd5b505050506040513d601f19601f820116820180604052508101906122bb9190613508565b6001600160a01b031663fc0c546a6040518163ffffffff1660e01b8152600401602060405180830381865afa1580156122f8573d6000803e3d6000fd5b505050506040513d601f19601f8201168201806040525081019061231c9190613508565b6001600160a01b0316815260200161233560018561363c565b85516123419190613808565b815260200142815260200160008152602001606c54866122179190613808565b6000848152606d602052604090206002018390555b6000938452607060205260409093205492612077565b60405183907f80e11167e6b80b8377b5697de9ae975af33e62fd6418deb3ab3f29f2afad7efc90600090a260008054906101000a90046001600160a01b03166001600160a01b031663f1c6bdf86040518163ffffffff1660e01b8152600401602060405180830381865afa158015612408573d6000803e3d6000fd5b505050506040513d601f19601f8201168201806040525081019061242c9190613508565b60405163e151fc6160e01b81523060048201526001600160a01b03919091169063e151fc6190602401600060405180830381600087803b15801561246f57600080fd5b505af1158015612483573d6000803e3d6000fd5b50505050505050505050565b60008160000151826040015183606001516040516020016124b29392919061381f565b604051602081830303815290604052805190602001209050919050565b806000036124f0576040516351cd1a8760e11b815260040160405180910390fd5b50565b6001600160a01b038116158061251157506001600160a01b03811630145b156124f057604051630cef278760e01b815260040160405180910390fd5b818161253b8282611fbe565b80612544575080155b156125625760405163582fbbaf60e01b815260040160405180910390fd5b60018401805460009081526002860160205260408082208690558582528120600019905590849055845490859061259883613623565b919050555050505050565b6000805460408051631e38d7bf60e31b815290516001600160a01b0380861693169163f1c6bdf89160048083019260209291908290030181865afa1580156125ef573d6000803e3d6000fd5b505050506040513d601f19601f820116820180604052508101906126139190613508565b6001600160a01b03161492915050565b6001600160a01b038116600081815260386020526040902054611dd191908490612c70565b6001600160a01b0381166000818152603860205260408082205490516370a0823160e01b81523060048201529092906370a0823190602401602060405180830381865afa15801561269d573d6000803e3d6000fd5b505050506040513d601f19601f820116820180604052508101906126c19190613525565b9050818110156129325760008054906101000a90046001600160a01b03166001600160a01b03166304baed9e6040518163ffffffff1660e01b8152600401602060405180830381865afa15801561271c573d6000803e3d6000fd5b505050506040513d601f19601f820116820180604052508101906127409190613508565b6001600160a01b031663fc0c546a6040518163ffffffff1660e01b8152600401602060405180830381865afa15801561277d573d6000803e3d6000fd5b505050506040513d601f19601f820116820180604052508101906127a19190613508565b6001600160a01b0316836001600160a01b03160361290e57600080546040805163025d76cf60e11b815290516001600160a01b039092169163685dc6b19183916304baed9e916004808201926020929091908290030181865afa15801561280c573d6000803e3d6000fd5b505050506040513d601f19601f820116820180604052508101906128309190613508565b3061283b868861363c565b6040516001600160a01b039092166024830152604482015260640160408051601f198184030181529181526020820180516001600160e01b031663759cc4b560e01b179052516001600160e01b031960e085901b1681526128a092919060040161384a565b6000604051808303816000875af11580156128bf573d6000803e3d6000fd5b505050506040513d6000823e601f3d908101601f191682016040526128e79190810190613874565b509050806129085760405163068a67d160e21b815260040160405180910390fd5b50505050565b6040516346511acb60e11b81526001600160a01b0384166004820152602401611dc8565b505050565b82816129438282611fbe565b61296057604051638f454d2d60e01b815260040160405180910390fd5b6000848152600286016020526040902054859085908590811461299657604051633065847560e01b815260040160405180910390fd5b600086815260028901602052604080822080548a84529183209190915587825281905588549089906129c7836138fe565b919050555087600101548603610ad65750505050506001929092015550565b60006001600160e01b0319821663179dfb4560e01b148061047d57506301ffc9a760e01b6001600160e01b031983161461047d565b7ff0c57e16840df040f15088dc2f81fe391c3923bec73e23a9662efc9c229c6a005468010000000000000000900460ff1661112957604051631afcd79f60e31b815260040160405180910390fd5b6000816040015151600003612a8057506000919050565b816060015151600003612a9557506000919050565b8151158015612aa657506020820151155b15612ab357506000919050565b506001919050565b80612ac581612d24565b81604001516038600084602001516001600160a01b03166001600160a01b031681526020019081526020016000206000828254612b0291906135ac565b909155505060378054600181018255600091909152825160069091027f42a7b7dd785cd69714a189dffb3fd7d7174edc9ece837694ce50f7078f7c31ae810180546001600160a01b039384166001600160a01b0319918216811790925560208601517f42a7b7dd785cd69714a189dffb3fd7d7174edc9ece837694ce50f7078f7c31af8401805491909516911681179093556040808601517f42a7b7dd785cd69714a189dffb3fd7d7174edc9ece837694ce50f7078f7c31b0840181905560608701517f42a7b7dd785cd69714a189dffb3fd7d7174edc9ece837694ce50f7078f7c31b185015560808701517f42a7b7dd785cd69714a189dffb3fd7d7174edc9ece837694ce50f7078f7c31b285015560a08701517f42a7b7dd785cd69714a189dffb3fd7d7174edc9ece837694ce50f7078f7c31b3909401939093555190917f21b8b94494ef1aff6ce0f5f3741800bdb27204fd430c1280b54d4cc653ae6f3a91611edb91815260200190565b604080516001600160a01b038416602482015260448082018490528251808303909101815260649091019091526020810180516001600160e01b031663095ea7b360e01b179052612cc18482612d49565b61290857604080516001600160a01b038516602482015260006044808301919091528251808303909101815260649091019091526020810180516001600160e01b031663095ea7b360e01b179052612d1a908590612df1565b6129088482612df1565b8051612d2f906124f3565b612d3c8160200151612e54565b6124f081604001516124cf565b6000806000846001600160a01b031684604051612d6691906137ec565b6000604051808303816000865af19150503d8060008114612da3576040519150601f19603f3d011682016040523d82523d6000602084013e612da8565b606091505b5091509150818015612dd2575080511580612dd2575080806020019051810190612dd29190613608565b8015612de857506000856001600160a01b03163b115b95945050505050565b6000612e066001600160a01b03841683612e7b565b90508051600014158015612e2b575080806020019051810190612e299190613608565b155b1561293257604051635274afe760e01b81526001600160a01b0384166004820152602401611dc8565b6001600160a01b0381166124f057604051639bfa9a6b60e01b815260040160405180910390fd5b6060611fdf8383600084600080856001600160a01b03168486604051612ea191906137ec565b60006040518083038185875af1925050503d8060008114612ede576040519150601f19603f3d011682016040523d82523d6000602084013e612ee3565b606091505b5091509150612ef3868383612efd565b9695505050505050565b606082612f1257612f0d82612f59565b611fdf565b8151158015612f2957506001600160a01b0384163b155b15612f5257604051639996b31560e01b81526001600160a01b0385166004820152602401611dc8565b5080611fdf565b805115612f695780518082602001fd5b604051630a12f52160e11b815260040160405180910390fd5b50805460008255600602906000526020600020908101906124f091905b80821115612fe65780546001600160a01b03199081168255600182018054909116905560006002820181905560038201819055600482018190556005820155600601612f9f565b5090565b600060208284031215612ffc57600080fd5b81356001600160e01b031981168114611fdf57600080fd5b60008151808452602080850194506020840160005b8381101561304557815187529582019590820190600101613029565b509495945050505050565b602081526000611fdf6020830184613014565b60008060006040848603121561307857600080fd5b83359250602084013567ffffffffffffffff8082111561309757600080fd5b818601915086601f8301126130ab57600080fd5b8135818111156130ba57600080fd5b8760208260051b85010111156130cf57600080fd5b6020830194508093505050509250925092565b6000602082840312156130f457600080fd5b5035919050565b6001600160a01b03811681146124f057600080fd5b60006020828403121561312257600080fd5b8135611fdf816130fb565b634e487b7160e01b600052604160045260246000fd5b6040516080810167ffffffffffffffff811182821017156131665761316661312d565b60405290565b604051601f8201601f1916810167ffffffffffffffff811182821017156131955761319561312d565b604052919050565b600067ffffffffffffffff8211156131b7576131b761312d565b50601f01601f191660200190565b600082601f8301126131d657600080fd5b81356131e96131e48261319d565b61316c565b8181528460208386010111156131fe57600080fd5b816020850160208301376000918101602001919091529392505050565b60008060006060848603121561323057600080fd5b833561323b816130fb565b9250602084013567ffffffffffffffff8082111561325857600080fd5b908501906080828803121561326c57600080fd5b613274613143565b823581526020830135602082015260408301358281111561329457600080fd5b6132a0898286016131c5565b6040830152506060830135828111156132b857600080fd5b6132c4898286016131c5565b606083015250935060408601359150808211156132e057600080fd5b506132ed868287016131c5565b9150509250925092565b60005b838110156133125781810151838201526020016132fa565b50506000910152565b600081518084526133338160208601602086016132f7565b601f01601f19169290920160200192915050565b602081526000611fdf602083018461331b565b6000806040838503121561336d57600080fd5b50508035926020909101359150565b6000806040838503121561338f57600080fd5b8235915060208301356133a1816130fb565b809150509250929050565b60008151808452602080850194506020840160005b8381101561304557815180516001600160a01b03908116895284820151168489015260408082015190890152606080820151908901526080808201519089015260a0908101519088015260c090960195908201906001016133c1565b602081526000611fdf60208301846133ac565b60008060006060848603121561344557600080fd5b8335925060208401359150604084013561345e816130fb565b809150509250925092565b6000806040838503121561347c57600080fd5b8235613487816130fb565b946020939093013593505050565b6060815260006134a860608301866133ac565b82810360208481019190915285518083528682019282019060005b818110156134e85784516001600160a01b0316835293830193918301916001016134c3565b505084810360408601526134fc8187613014565b98975050505050505050565b60006020828403121561351a57600080fd5b8151611fdf816130fb565b60006020828403121561353757600080fd5b5051919050565b83815260406020808301829052908201839052600090849060608401835b8681101561358a57833561356f816130fb565b6001600160a01b03168252928201929082019060010161355c565b50979650505050505050565b634e487b7160e01b600052601160045260246000fd5b8082018082111561047d5761047d613596565b600181811c908216806135d357607f821691505b602082108103611aad57634e487b7160e01b600052602260045260246000fd5b8051801515811461360357600080fd5b919050565b60006020828403121561361a57600080fd5b611fdf826135f3565b60006001820161363557613635613596565b5060010190565b8181038181111561047d5761047d613596565b60008261366c57634e487b7160e01b600052601260045260246000fd5b500490565b634e487b7160e01b600052603260045260246000fd5b6000808585111561369757600080fd5b838611156136a457600080fd5b5050820193919092039150565b6bffffffffffffffffffffffff198135818116916014851015611fb65760149490940360031b84901b1690921692915050565b601f821115612932576000816000526020600020601f850160051c8101602086101561370d5750805b601f850160051c820191505b81811015610c9557828155600101613719565b815167ffffffffffffffff8111156137465761374661312d565b61375a8161375484546135bf565b846136e4565b602080601f83116001811461378f57600084156137775750858301515b600019600386901b1c1916600185901b178555610c95565b600085815260208120601f198616915b828110156137be5788860151825594840194600190910190840161379f565b50858210156137dc5787850151600019600388901b60f8161c191681555b5050505050600190811b01905550565b600082516137fe8184602087016132f7565b9190910192915050565b808202811582820484141761047d5761047d613596565b838152606060208201526000613838606083018561331b565b8281036040840152612ef3818561331b565b6001600160a01b038316815260406020820152600061386c604083018461331b565b949350505050565b6000806040838503121561388757600080fd5b613890836135f3565b9150602083015167ffffffffffffffff8111156138ac57600080fd5b8301601f810185136138bd57600080fd5b80516138cb6131e48261319d565b8181528660208385010111156138e057600080fd5b6138f18260208301602086016132f7565b8093505050509250929050565b60008161390d5761390d613596565b50600019019056fea264697066735822122070601e827a56290571a8a8836c22dac5e9f8efcebbadceed4be923da0b42d10164736f6c63430008170033",
    "linkReferences": {}
  },
  "methodIdentifiers": {
    "addRecurringPayment(uint256,uint256,address)": "8008dd8e",
    "amountPaid(address,uint256)": "b33ec618",
    "collectPaymentOrders()": "c0231ff6",
    "getCurrentEpoch()": "b97dd9e2",
    "getEpochFromTimestamp(uint256)": "c83e6362",
    "getEpochLength()": "cfe8a73b",
    "getFutureEpoch(uint256)": "274b903a",
    "getPreviousPaymentId(uint256)": "50287478",
    "getRecurringPaymentInformation(uint256)": "c42542e3",
    "grantModuleRole(bytes32,address)": "6c67e807",
    "grantModuleRoleBatched(bytes32,address[])": "272bbd44",
    "identifier()": "7998a1c4",
    "init(address,(uint256,uint256,string,string),bytes)": "42dfe958",
    "isExistingRecurringPaymentId(uint256)": "62fe48fd",
    "isTrustedForwarder(address)": "572b6c05",
    "listRecurringPaymentIds()": "1bf3bfe8",
    "orchestrator()": "b74795d9",
    "outstandingTokenAmount(address)": "2e84db5f",
    "paymentOrders()": "75fa0b76",
    "removeRecurringPayment(uint256,uint256)": "c7829b6f",
    "revokeModuleRole(bytes32,address)": "bcb61920",
    "revokeModuleRoleBatched(bytes32,address[])": "24e30270",
    "supportsInterface(bytes4)": "01ffc9a7",
    "title()": "4a79d50c",
    "trigger()": "7fec8d38",
    "triggerFor(uint256,uint256)": "648bc2cd",
    "trustedForwarder()": "7da0a877",
    "url()": "5600f04f",
    "version()": "54fd4d50"
  },
  "id": 147
}