{
  "abi": [
    {
      "type": "function",
      "name": "BOUNTY_ISSUER_ROLE",
      "inputs": [],
      "outputs": [
        {
          "name": "",
          "type": "bytes32",
          "internalType": "bytes32"
        }
      ],
      "stateMutability": "view"
    },
    {
      "type": "function",
      "name": "CLAIMANT_ROLE",
      "inputs": [],
      "outputs": [
        {
          "name": "",
          "type": "bytes32",
          "internalType": "bytes32"
        }
      ],
      "stateMutability": "view"
    },
    {
      "type": "function",
      "name": "VERIFIER_ROLE",
      "inputs": [],
      "outputs": [
        {
          "name": "",
          "type": "bytes32",
          "internalType": "bytes32"
        }
      ],
      "stateMutability": "view"
    },
    {
      "type": "function",
      "name": "addBounty",
      "inputs": [
        {
          "name": "minimumPayoutAmount",
          "type": "uint256",
          "internalType": "uint256"
        },
        {
          "name": "maximumPayoutAmount",
          "type": "uint256",
          "internalType": "uint256"
        },
        {
          "name": "details",
          "type": "bytes",
          "internalType": "bytes"
        }
      ],
      "outputs": [
        {
          "name": "id",
          "type": "uint256",
          "internalType": "uint256"
        }
      ],
      "stateMutability": "nonpayable"
    },
    {
      "type": "function",
      "name": "addBountyBatch",
      "inputs": [
        {
          "name": "minimumPayoutAmounts",
          "type": "uint256[]",
          "internalType": "uint256[]"
        },
        {
          "name": "maximumPayoutAmounts",
          "type": "uint256[]",
          "internalType": "uint256[]"
        },
        {
          "name": "detailArray",
          "type": "bytes[]",
          "internalType": "bytes[]"
        }
      ],
      "outputs": [
        {
          "name": "ids",
          "type": "uint256[]",
          "internalType": "uint256[]"
        }
      ],
      "stateMutability": "nonpayable"
    },
    {
      "type": "function",
      "name": "addClaim",
      "inputs": [
        {
          "name": "bountyId",
          "type": "uint256",
          "internalType": "uint256"
        },
        {
          "name": "contributors",
          "type": "tuple[]",
          "internalType": "struct ILM_PC_Bounties_v2.Contributor[]",
          "components": [
            {
              "name": "addr",
              "type": "address",
              "internalType": "address"
            },
            {
              "name": "claimAmount",
              "type": "uint256",
              "internalType": "uint256"
            }
          ]
        },
        {
          "name": "details",
          "type": "bytes",
          "internalType": "bytes"
        }
      ],
      "outputs": [
        {
          "name": "id",
          "type": "uint256",
          "internalType": "uint256"
        }
      ],
      "stateMutability": "nonpayable"
    },
    {
      "type": "function",
      "name": "amountPaid",
      "inputs": [
        {
          "name": "token_",
          "type": "address",
          "internalType": "address"
        },
        {
          "name": "amount_",
          "type": "uint256",
          "internalType": "uint256"
        }
      ],
      "outputs": [],
      "stateMutability": "nonpayable"
    },
    {
      "type": "function",
      "name": "collectPaymentOrders",
      "inputs": [],
      "outputs": [
        {
          "name": "paymentOrders_",
          "type": "tuple[]",
          "internalType": "struct IERC20PaymentClientBase_v2.PaymentOrder[]",
          "components": [
            {
              "name": "recipient",
              "type": "address",
              "internalType": "address"
            },
            {
              "name": "paymentToken",
              "type": "address",
              "internalType": "address"
            },
            {
              "name": "amount",
              "type": "uint256",
              "internalType": "uint256"
            },
            {
              "name": "originChainId",
              "type": "uint256",
              "internalType": "uint256"
            },
            {
              "name": "targetChainId",
              "type": "uint256",
              "internalType": "uint256"
            },
            {
              "name": "flags",
              "type": "bytes32",
              "internalType": "bytes32"
            },
            {
              "name": "data",
              "type": "bytes32[]",
              "internalType": "bytes32[]"
            }
          ]
        },
        {
          "name": "tokens_",
          "type": "address[]",
          "internalType": "address[]"
        },
        {
          "name": "totalAmounts_",
          "type": "uint256[]",
          "internalType": "uint256[]"
        }
      ],
      "stateMutability": "nonpayable"
    },
    {
      "type": "function",
      "name": "getBountyInformation",
      "inputs": [
        {
          "name": "bountyId",
          "type": "uint256",
          "internalType": "uint256"
        }
      ],
      "outputs": [
        {
          "name": "",
          "type": "tuple",
          "internalType": "struct ILM_PC_Bounties_v2.Bounty",
          "components": [
            {
              "name": "minimumPayoutAmount",
              "type": "uint256",
              "internalType": "uint256"
            },
            {
              "name": "maximumPayoutAmount",
              "type": "uint256",
              "internalType": "uint256"
            },
            {
              "name": "details",
              "type": "bytes",
              "internalType": "bytes"
            },
            {
              "name": "locked",
              "type": "bool",
              "internalType": "bool"
            }
          ]
        }
      ],
      "stateMutability": "view"
    },
    {
      "type": "function",
      "name": "getClaimInformation",
      "inputs": [
        {
          "name": "claimId",
          "type": "uint256",
          "internalType": "uint256"
        }
      ],
      "outputs": [
        {
          "name": "",
          "type": "tuple",
          "internalType": "struct ILM_PC_Bounties_v2.Claim",
          "components": [
            {
              "name": "bountyId",
              "type": "uint256",
              "internalType": "uint256"
            },
            {
              "name": "contributors",
              "type": "tuple[]",
              "internalType": "struct ILM_PC_Bounties_v2.Contributor[]",
              "components": [
                {
                  "name": "addr",
                  "type": "address",
                  "internalType": "address"
                },
                {
                  "name": "claimAmount",
                  "type": "uint256",
                  "internalType": "uint256"
                }
              ]
            },
            {
              "name": "details",
              "type": "bytes",
              "internalType": "bytes"
            },
            {
              "name": "claimed",
              "type": "bool",
              "internalType": "bool"
            }
          ]
        }
      ],
      "stateMutability": "view"
    },
    {
      "type": "function",
      "name": "getFlagCount",
      "inputs": [],
      "outputs": [
        {
          "name": "flagCount_",
          "type": "uint8",
          "internalType": "uint8"
        }
      ],
      "stateMutability": "view"
    },
    {
      "type": "function",
      "name": "getFlags",
      "inputs": [],
      "outputs": [
        {
          "name": "flags_",
          "type": "bytes32",
          "internalType": "bytes32"
        }
      ],
      "stateMutability": "view"
    },
    {
      "type": "function",
      "name": "grantModuleRole",
      "inputs": [
        {
          "name": "role",
          "type": "bytes32",
          "internalType": "bytes32"
        },
        {
          "name": "target",
          "type": "address",
          "internalType": "address"
        }
      ],
      "outputs": [],
      "stateMutability": "nonpayable"
    },
    {
      "type": "function",
      "name": "grantModuleRoleBatched",
      "inputs": [
        {
          "name": "role",
          "type": "bytes32",
          "internalType": "bytes32"
        },
        {
          "name": "targets",
          "type": "address[]",
          "internalType": "address[]"
        }
      ],
      "outputs": [],
      "stateMutability": "nonpayable"
    },
    {
      "type": "function",
      "name": "identifier",
      "inputs": [],
      "outputs": [
        {
          "name": "",
          "type": "bytes32",
          "internalType": "bytes32"
        }
      ],
      "stateMutability": "view"
    },
    {
      "type": "function",
      "name": "init",
      "inputs": [
        {
          "name": "orchestrator_",
          "type": "address",
          "internalType": "contract IOrchestrator_v1"
        },
        {
          "name": "metadata",
          "type": "tuple",
          "internalType": "struct IModule_v1.Metadata",
          "components": [
            {
              "name": "majorVersion",
              "type": "uint256",
              "internalType": "uint256"
            },
            {
              "name": "minorVersion",
              "type": "uint256",
              "internalType": "uint256"
            },
            {
              "name": "patchVersion",
              "type": "uint256",
              "internalType": "uint256"
            },
            {
              "name": "url",
              "type": "string",
              "internalType": "string"
            },
            {
              "name": "title",
              "type": "string",
              "internalType": "string"
            }
          ]
        },
        {
          "name": "",
          "type": "bytes",
          "internalType": "bytes"
        }
      ],
      "outputs": [],
      "stateMutability": "nonpayable"
    },
    {
      "type": "function",
      "name": "isExistingBountyId",
      "inputs": [
        {
          "name": "bountyId",
          "type": "uint256",
          "internalType": "uint256"
        }
      ],
      "outputs": [
        {
          "name": "",
          "type": "bool",
          "internalType": "bool"
        }
      ],
      "stateMutability": "view"
    },
    {
      "type": "function",
      "name": "isExistingClaimId",
      "inputs": [
        {
          "name": "claimId",
          "type": "uint256",
          "internalType": "uint256"
        }
      ],
      "outputs": [
        {
          "name": "",
          "type": "bool",
          "internalType": "bool"
        }
      ],
      "stateMutability": "view"
    },
    {
      "type": "function",
      "name": "isTrustedForwarder",
      "inputs": [
        {
          "name": "forwarder",
          "type": "address",
          "internalType": "address"
        }
      ],
      "outputs": [
        {
          "name": "",
          "type": "bool",
          "internalType": "bool"
        }
      ],
      "stateMutability": "view"
    },
    {
      "type": "function",
      "name": "listBountyIds",
      "inputs": [],
      "outputs": [
        {
          "name": "",
          "type": "uint256[]",
          "internalType": "uint256[]"
        }
      ],
      "stateMutability": "view"
    },
    {
      "type": "function",
      "name": "listClaimIds",
      "inputs": [],
      "outputs": [
        {
          "name": "",
          "type": "uint256[]",
          "internalType": "uint256[]"
        }
      ],
      "stateMutability": "view"
    },
    {
      "type": "function",
      "name": "listClaimIdsForContributorAddress",
      "inputs": [
        {
          "name": "contributorAddrs",
          "type": "address",
          "internalType": "address"
        }
      ],
      "outputs": [
        {
          "name": "",
          "type": "uint256[]",
          "internalType": "uint256[]"
        }
      ],
      "stateMutability": "view"
    },
    {
      "type": "function",
      "name": "lockBounty",
      "inputs": [
        {
          "name": "bountyId",
          "type": "uint256",
          "internalType": "uint256"
        }
      ],
      "outputs": [],
      "stateMutability": "nonpayable"
    },
    {
      "type": "function",
      "name": "orchestrator",
      "inputs": [],
      "outputs": [
        {
          "name": "",
          "type": "address",
          "internalType": "contract IOrchestrator_v1"
        }
      ],
      "stateMutability": "view"
    },
    {
      "type": "function",
      "name": "outstandingTokenAmount",
      "inputs": [
        {
          "name": "token_",
          "type": "address",
          "internalType": "address"
        }
      ],
      "outputs": [
        {
          "name": "total_",
          "type": "uint256",
          "internalType": "uint256"
        }
      ],
      "stateMutability": "view"
    },
    {
      "type": "function",
      "name": "paymentOrders",
      "inputs": [],
      "outputs": [
        {
          "name": "",
          "type": "tuple[]",
          "internalType": "struct IERC20PaymentClientBase_v2.PaymentOrder[]",
          "components": [
            {
              "name": "recipient",
              "type": "address",
              "internalType": "address"
            },
            {
              "name": "paymentToken",
              "type": "address",
              "internalType": "address"
            },
            {
              "name": "amount",
              "type": "uint256",
              "internalType": "uint256"
            },
            {
              "name": "originChainId",
              "type": "uint256",
              "internalType": "uint256"
            },
            {
              "name": "targetChainId",
              "type": "uint256",
              "internalType": "uint256"
            },
            {
              "name": "flags",
              "type": "bytes32",
              "internalType": "bytes32"
            },
            {
              "name": "data",
              "type": "bytes32[]",
              "internalType": "bytes32[]"
            }
          ]
        }
      ],
      "stateMutability": "view"
    },
    {
      "type": "function",
      "name": "revokeModuleRole",
      "inputs": [
        {
          "name": "role",
          "type": "bytes32",
          "internalType": "bytes32"
        },
        {
          "name": "target",
          "type": "address",
          "internalType": "address"
        }
      ],
      "outputs": [],
      "stateMutability": "nonpayable"
    },
    {
      "type": "function",
      "name": "revokeModuleRoleBatched",
      "inputs": [
        {
          "name": "role",
          "type": "bytes32",
          "internalType": "bytes32"
        },
        {
          "name": "targets",
          "type": "address[]",
          "internalType": "address[]"
        }
      ],
      "outputs": [],
      "stateMutability": "nonpayable"
    },
    {
      "type": "function",
      "name": "supportsInterface",
      "inputs": [
        {
          "name": "interfaceId",
          "type": "bytes4",
          "internalType": "bytes4"
        }
      ],
      "outputs": [
        {
          "name": "",
          "type": "bool",
          "internalType": "bool"
        }
      ],
      "stateMutability": "view"
    },
    {
      "type": "function",
      "name": "title",
      "inputs": [],
      "outputs": [
        {
          "name": "",
          "type": "string",
          "internalType": "string"
        }
      ],
      "stateMutability": "view"
    },
    {
      "type": "function",
      "name": "trustedForwarder",
      "inputs": [],
      "outputs": [
        {
          "name": "",
          "type": "address",
          "internalType": "address"
        }
      ],
      "stateMutability": "view"
    },
    {
      "type": "function",
      "name": "updateBounty",
      "inputs": [
        {
          "name": "bountyId",
          "type": "uint256",
          "internalType": "uint256"
        },
        {
          "name": "details",
          "type": "bytes",
          "internalType": "bytes"
        }
      ],
      "outputs": [],
      "stateMutability": "nonpayable"
    },
    {
      "type": "function",
      "name": "updateClaimContributors",
      "inputs": [
        {
          "name": "claimId",
          "type": "uint256",
          "internalType": "uint256"
        },
        {
          "name": "contributors",
          "type": "tuple[]",
          "internalType": "struct ILM_PC_Bounties_v2.Contributor[]",
          "components": [
            {
              "name": "addr",
              "type": "address",
              "internalType": "address"
            },
            {
              "name": "claimAmount",
              "type": "uint256",
              "internalType": "uint256"
            }
          ]
        }
      ],
      "outputs": [],
      "stateMutability": "nonpayable"
    },
    {
      "type": "function",
      "name": "updateClaimDetails",
      "inputs": [
        {
          "name": "claimId",
          "type": "uint256",
          "internalType": "uint256"
        },
        {
          "name": "details",
          "type": "bytes",
          "internalType": "bytes"
        }
      ],
      "outputs": [],
      "stateMutability": "nonpayable"
    },
    {
      "type": "function",
      "name": "url",
      "inputs": [],
      "outputs": [
        {
          "name": "",
          "type": "string",
          "internalType": "string"
        }
      ],
      "stateMutability": "view"
    },
    {
      "type": "function",
      "name": "verifyClaim",
      "inputs": [
        {
          "name": "claimId",
          "type": "uint256",
          "internalType": "uint256"
        },
        {
          "name": "contributors",
          "type": "tuple[]",
          "internalType": "struct ILM_PC_Bounties_v2.Contributor[]",
          "components": [
            {
              "name": "addr",
              "type": "address",
              "internalType": "address"
            },
            {
              "name": "claimAmount",
              "type": "uint256",
              "internalType": "uint256"
            }
          ]
        }
      ],
      "outputs": [],
      "stateMutability": "nonpayable"
    },
    {
      "type": "function",
      "name": "version",
      "inputs": [],
      "outputs": [
        {
          "name": "",
          "type": "uint256",
          "internalType": "uint256"
        },
        {
          "name": "",
          "type": "uint256",
          "internalType": "uint256"
        },
        {
          "name": "",
          "type": "uint256",
          "internalType": "uint256"
        }
      ],
      "stateMutability": "view"
    },
    {
      "type": "event",
      "name": "BountyAdded",
      "inputs": [
        {
          "name": "bountyId",
          "type": "uint256",
          "indexed": true,
          "internalType": "uint256"
        },
        {
          "name": "minimumPayoutAmount",
          "type": "uint256",
          "indexed": false,
          "internalType": "uint256"
        },
        {
          "name": "maximumPayoutAmount",
          "type": "uint256",
          "indexed": false,
          "internalType": "uint256"
        },
        {
          "name": "details",
          "type": "bytes",
          "indexed": false,
          "internalType": "bytes"
        }
      ],
      "anonymous": false
    },
    {
      "type": "event",
      "name": "BountyLocked",
      "inputs": [
        {
          "name": "bountyId",
          "type": "uint256",
          "indexed": true,
          "internalType": "uint256"
        }
      ],
      "anonymous": false
    },
    {
      "type": "event",
      "name": "BountyUpdated",
      "inputs": [
        {
          "name": "bountyId",
          "type": "uint256",
          "indexed": true,
          "internalType": "uint256"
        },
        {
          "name": "details",
          "type": "bytes",
          "indexed": false,
          "internalType": "bytes"
        }
      ],
      "anonymous": false
    },
    {
      "type": "event",
      "name": "ClaimAdded",
      "inputs": [
        {
          "name": "claimId",
          "type": "uint256",
          "indexed": true,
          "internalType": "uint256"
        },
        {
          "name": "bountyId",
          "type": "uint256",
          "indexed": true,
          "internalType": "uint256"
        },
        {
          "name": "contributors",
          "type": "tuple[]",
          "indexed": false,
          "internalType": "struct ILM_PC_Bounties_v2.Contributor[]",
          "components": [
            {
              "name": "addr",
              "type": "address",
              "internalType": "address"
            },
            {
              "name": "claimAmount",
              "type": "uint256",
              "internalType": "uint256"
            }
          ]
        },
        {
          "name": "details",
          "type": "bytes",
          "indexed": false,
          "internalType": "bytes"
        }
      ],
      "anonymous": false
    },
    {
      "type": "event",
      "name": "ClaimContributorsUpdated",
      "inputs": [
        {
          "name": "claimId",
          "type": "uint256",
          "indexed": true,
          "internalType": "uint256"
        },
        {
          "name": "contributors",
          "type": "tuple[]",
          "indexed": false,
          "internalType": "struct ILM_PC_Bounties_v2.Contributor[]",
          "components": [
            {
              "name": "addr",
              "type": "address",
              "internalType": "address"
            },
            {
              "name": "claimAmount",
              "type": "uint256",
              "internalType": "uint256"
            }
          ]
        }
      ],
      "anonymous": false
    },
    {
      "type": "event",
      "name": "ClaimDetailsUpdated",
      "inputs": [
        {
          "name": "claimId",
          "type": "uint256",
          "indexed": true,
          "internalType": "uint256"
        },
        {
          "name": "details",
          "type": "bytes",
          "indexed": false,
          "internalType": "bytes"
        }
      ],
      "anonymous": false
    },
    {
      "type": "event",
      "name": "ClaimVerified",
      "inputs": [
        {
          "name": "claimId",
          "type": "uint256",
          "indexed": true,
          "internalType": "uint256"
        }
      ],
      "anonymous": false
    },
    {
      "type": "event",
      "name": "FlagsSet",
      "inputs": [
        {
          "name": "flagCount",
          "type": "uint8",
          "indexed": false,
          "internalType": "uint8"
        },
        {
          "name": "newFlags",
          "type": "bytes32",
          "indexed": false,
          "internalType": "bytes32"
        }
      ],
      "anonymous": false
    },
    {
      "type": "event",
      "name": "Initialized",
      "inputs": [
        {
          "name": "version",
          "type": "uint64",
          "indexed": false,
          "internalType": "uint64"
        }
      ],
      "anonymous": false
    },
    {
      "type": "event",
      "name": "ModuleInitialized",
      "inputs": [
        {
          "name": "parentOrchestrator",
          "type": "address",
          "indexed": true,
          "internalType": "address"
        },
        {
          "name": "metadata",
          "type": "tuple",
          "indexed": false,
          "internalType": "struct IModule_v1.Metadata",
          "components": [
            {
              "name": "majorVersion",
              "type": "uint256",
              "internalType": "uint256"
            },
            {
              "name": "minorVersion",
              "type": "uint256",
              "internalType": "uint256"
            },
            {
              "name": "patchVersion",
              "type": "uint256",
              "internalType": "uint256"
            },
            {
              "name": "url",
              "type": "string",
              "internalType": "string"
            },
            {
              "name": "title",
              "type": "string",
              "internalType": "string"
            }
          ]
        }
      ],
      "anonymous": false
    },
    {
      "type": "event",
      "name": "PaymentOrderAdded",
      "inputs": [
        {
          "name": "recipient",
          "type": "address",
          "indexed": true,
          "internalType": "address"
        },
        {
          "name": "token",
          "type": "address",
          "indexed": true,
          "internalType": "address"
        },
        {
          "name": "amount",
          "type": "uint256",
          "indexed": false,
          "internalType": "uint256"
        },
        {
          "name": "originChainId",
          "type": "uint256",
          "indexed": false,
          "internalType": "uint256"
        },
        {
          "name": "targetChainId",
          "type": "uint256",
          "indexed": false,
          "internalType": "uint256"
        },
        {
          "name": "flags",
          "type": "bytes32",
          "indexed": false,
          "internalType": "bytes32"
        },
        {
          "name": "data",
          "type": "bytes32[]",
          "indexed": false,
          "internalType": "bytes32[]"
        }
      ],
      "anonymous": false
    },
    {
      "type": "event",
      "name": "ProtocolFeeTransferred",
      "inputs": [
        {
          "name": "token",
          "type": "address",
          "indexed": true,
          "internalType": "address"
        },
        {
          "name": "treasury",
          "type": "address",
          "indexed": true,
          "internalType": "address"
        },
        {
          "name": "feeAmount",
          "type": "uint256",
          "indexed": false,
          "internalType": "uint256"
        }
      ],
      "anonymous": false
    },
    {
      "type": "error",
      "name": "AddressEmptyCode",
      "inputs": [
        {
          "name": "target",
          "type": "address",
          "internalType": "address"
        }
      ]
    },
    {
      "type": "error",
      "name": "AddressInsufficientBalance",
      "inputs": [
        {
          "name": "account",
          "type": "address",
          "internalType": "address"
        }
      ]
    },
    {
      "type": "error",
      "name": "FailedInnerCall",
      "inputs": []
    },
    {
      "type": "error",
      "name": "InvalidInitialization",
      "inputs": []
    },
    {
      "type": "error",
      "name": "Library__LinkedIdList__InvalidNewId",
      "inputs": []
    },
    {
      "type": "error",
      "name": "Module_OrchestratorCallbackFailed",
      "inputs": [
        {
          "name": "funcSig",
          "type": "string",
          "internalType": "string"
        }
      ]
    },
    {
      "type": "error",
      "name": "Module__CallerNotAuthorized",
      "inputs": [
        {
          "name": "role",
          "type": "bytes32",
          "internalType": "bytes32"
        },
        {
          "name": "caller",
          "type": "address",
          "internalType": "address"
        }
      ]
    },
    {
      "type": "error",
      "name": "Module__ERC20PaymentClientBase__CallerNotAuthorized",
      "inputs": []
    },
    {
      "type": "error",
      "name": "Module__ERC20PaymentClientBase__InsufficientFunds",
      "inputs": [
        {
          "name": "token",
          "type": "address",
          "internalType": "address"
        }
      ]
    },
    {
      "type": "error",
      "name": "Module__ERC20PaymentClientBase__InvalidAmount",
      "inputs": []
    },
    {
      "type": "error",
      "name": "Module__ERC20PaymentClientBase__InvalidPaymentOrder",
      "inputs": []
    },
    {
      "type": "error",
      "name": "Module__ERC20PaymentClientBase__InvalidRecipient",
      "inputs": []
    },
    {
      "type": "error",
      "name": "Module__ERC20PaymentClientBase__InvalidToken",
      "inputs": []
    },
    {
      "type": "error",
      "name": "Module__ERC20PaymentClientBase__MismatchBetweenFlagCountAndArrayLength",
      "inputs": [
        {
          "name": "flagCount",
          "type": "uint8",
          "internalType": "uint8"
        },
        {
          "name": "arrayLength",
          "type": "uint256",
          "internalType": "uint256"
        }
      ]
    },
    {
      "type": "error",
      "name": "Module__ERC20PaymentClientBase__TokenTransferFailed",
      "inputs": []
    },
    {
      "type": "error",
      "name": "Module__ERC20PaymentClientBase_v2__FlagAmountTooHigh",
      "inputs": []
    },
    {
      "type": "error",
      "name": "Module__InvalidAddress",
      "inputs": []
    },
    {
      "type": "error",
      "name": "Module__InvalidMetadata",
      "inputs": []
    },
    {
      "type": "error",
      "name": "Module__InvalidOrchestratorAddress",
      "inputs": []
    },
    {
      "type": "error",
      "name": "Module__LM_PC_Bounty__AlreadyClaimed",
      "inputs": []
    },
    {
      "type": "error",
      "name": "Module__LM_PC_Bounty__BountyLocked",
      "inputs": []
    },
    {
      "type": "error",
      "name": "Module__LM_PC_Bounty__ClaimExceedsGivenPayoutAmounts",
      "inputs": []
    },
    {
      "type": "error",
      "name": "Module__LM_PC_Bounty__ContributorsChanged",
      "inputs": []
    },
    {
      "type": "error",
      "name": "Module__LM_PC_Bounty__InvalidArrayLengths",
      "inputs": []
    },
    {
      "type": "error",
      "name": "Module__LM_PC_Bounty__InvalidBountyId",
      "inputs": []
    },
    {
      "type": "error",
      "name": "Module__LM_PC_Bounty__InvalidClaimId",
      "inputs": []
    },
    {
      "type": "error",
      "name": "Module__LM_PC_Bounty__InvalidContributorAddress",
      "inputs": []
    },
    {
      "type": "error",
      "name": "Module__LM_PC_Bounty__InvalidContributorAmount",
      "inputs": []
    },
    {
      "type": "error",
      "name": "Module__LM_PC_Bounty__InvalidContributorsLength",
      "inputs": []
    },
    {
      "type": "error",
      "name": "Module__LM_PC_Bounty__InvalidPayoutAmounts",
      "inputs": []
    },
    {
      "type": "error",
      "name": "Module__LM_PC_Bounty__OnlyClaimContributor",
      "inputs": []
    },
    {
      "type": "error",
      "name": "Module__OnlyCallableByOrchestrator",
      "inputs": []
    },
    {
      "type": "error",
      "name": "Module__OnlyCallableByPaymentClient",
      "inputs": []
    },
    {
      "type": "error",
      "name": "NotInitializing",
      "inputs": []
    },
    {
      "type": "error",
      "name": "SafeERC20FailedOperation",
      "inputs": [
        {
          "name": "token",
          "type": "address",
          "internalType": "address"
        }
      ]
    }
  ],
  "bytecode": {
    "object": "0x60a060405234801562000010575f80fd5b505f6080526200001f62000025565b620000d9565b7ff0c57e16840df040f15088dc2f81fe391c3923bec73e23a9662efc9c229c6a00805468010000000000000000900460ff1615620000765760405163f92ee8a960e01b815260040160405180910390fd5b80546001600160401b0390811614620000d65780546001600160401b0319166001600160401b0390811782556040519081527fc7f505b2f371ae2175ee4913f4499e1f2633a7b5936321eed1cdaeb6115181d29060200160405180910390a15b50565b608051614fdb620000ef5f395f5050614fdb5ff3fe608060405234801561000f575f80fd5b5060043610610269575f3560e01c80637998a1c411610157578063bcb61920116100d2578063c9582f2011610088578063e2114c8c1161006e578063e2114c8c14610545578063e7705db614610558578063fa4dbd031461056a575f80fd5b8063c9582f2014610510578063cb05296f14610525575f80fd5b8063be5a5745116100b8578063be5a5745146104d3578063bf1f9656146104e6578063c0231ff6146104f9575f80fd5b8063bcb61920146104ad578063bd769f79146104c0575f80fd5b80639c16f52511610127578063b5e8bc451161010d578063b5e8bc4514610482578063b66a870c1461048a578063b74795d91461049d575f80fd5b80639c16f5251461045c578063b33ec6181461046f575f80fd5b80637998a1c41461040b5780637bfee048146104135780637da0a8771461042a5780638a8673681461044a575f80fd5b8063418ab5f8116101e7578063572b6c05116101b75780636c67e8071161019d5780636c67e807146103db5780636cc7149d146103ee57806375fa0b76146103f6575f80fd5b8063572b6c05146103b55780635beaeb8c146103c8575f80fd5b8063418ab5f8146103615780634a79d50c1461037457806354fd4d50146103895780635600f04f146103ad575f80fd5b80632d54a71c1161023c57806331be580e1161022257806331be580e1461031957806331de0bdb146103395780633cd6b5d11461034c575f80fd5b80632d54a71c146102de5780632e84db5f146102f1575f80fd5b806301ffc9a71461026d5780630d97d72c1461029557806324e30270146102b6578063272bbd44146102cb575b5f80fd5b61028061027b366004614185565b61057d565b60405190151581526020015b60405180910390f35b6102a86102a3366004614232565b6105a7565b60405190815260200161028c565b6102c96102c43660046142e7565b610963565b005b6102c96102d93660046142e7565b610bb7565b6102c96102ec36600461432f565b610d86565b6102a86102ff36600461437e565b6001600160a01b03165f9081526039602052604090205490565b61032c610327366004614399565b610f7e565b60405161028c91906143fd565b6102c961034736600461432f565b6110a8565b6103546111c3565b60405161028c919061447e565b61035461036f366004614490565b6111d4565b61037c61138e565b60405161028c9190614523565b6001546002546003546040805193845260208401929092529082015260600161028c565b61037c611421565b6102806103c336600461437e565b611433565b6102c96103d6366004614535565b61149f565b6102c96103e9366004614570565b61176f565b603b546102a8565b6103fe611975565b60405161028c919061465b565b6102a8611a68565b6102a86c2127aaa72a2cafa4a9a9aaa2a960991b81565b610432611bbb565b6040516001600160a01b03909116815260200161028c565b6102a86710d310525350539560c21b81565b61035461046a36600461437e565b611c2f565b6102c961047d36600461466d565b611c52565b610354611caf565b6102c961049836600461475d565b611cbb565b5f546001600160a01b0316610432565b6102c96104bb366004614570565b611e43565b6102a86104ce36600461483b565b61201a565b6102806104e1366004614399565b6120a1565b6102c96104f4366004614535565b6120ad565b610501612555565b60405161028c9392919061488a565b603a5460405160ff909116815260200161028c565b610538610533366004614399565b612a51565b60405161028c91906148ef565b610280610553366004614399565b612b4b565b6102a8672b22a924a324a2a960c11b81565b6102c9610578366004614399565b612b57565b5f6001600160e01b0319821663204083d560e11b14806105a157506105a182612c5c565b92915050565b5f6710d310525350539560c21b6106a65f8054906101000a90046001600160a01b03166001600160a01b031663d09edf316040518163ffffffff1660e01b8152600401602060405180830381865afa158015610605573d5f803e3d5ffd5b505050506040513d601f19601f820116820180604052508101906106299190614992565b60405163fdd5205f60e01b8152306004820152602481018490526001600160a01b03919091169063fdd5205f906044015b602060405180830381865afa158015610675573d5f803e3d5ffd5b505050506040513d601f19601f8201168201806040525081019061069991906149ad565b6106a1612c80565b612cd0565b866106b0816120a1565b6106cd57604051630a3c13ff60e31b815260040160405180910390fd5b5f888152606d6020526040902060030154889060ff1615610701576040516355eceaeb60e11b815260040160405180910390fd5b61082b8888808060200260200160405190810160405280939291908181526020015f905b8282101561075157610742604083028601368190038101906149c4565b81526020019060010190610725565b5050505050606d5f8c81526020019081526020015f206040518060800160405290815f82015481526020016001820154815260200160028201805461079590614a1a565b80601f01602080910402602001604051908101604052809291908181526020018280546107c190614a1a565b801561080c5780601f106107e35761010080835404028352916020019161080c565b820191905f5260205f20905b8154815290600101906020018083116107ef57829003601f168201915b50505091835250506003919091015460ff161515602090910152612deb565b5f606c5f815461083a90614a60565b9182905550905061084c607282612f2e565b5f8181526071602052604081208b81559089905b8181101561090357826001018c8c8381811061087e5761087e614a78565b83546001810185555f94855260209094206040909102929092019260020290910190506108ab8282614a8c565b50506108fa8460755f8f8f868181106108c6576108c6614a78565b6108dc926020604090920201908101915061437e565b6001600160a01b0316815260208101919091526040015f2090612fa0565b50600101610860565b5060028201610913898b83614b03565b508b837f23ea023b108a98377fb5440ffbb7fe7a5c3827c821ef0e16fbd60af8b93cddac8d8d8d8d60405161094b9493929190614c2b565b60405180910390a350909a9950505050505050505050565b5f80546040805163d09edf3160e01b815290518693926001600160a01b03169163d09edf319160048083019260209291908290030181865afa1580156109ab573d5f803e3d5ffd5b505050506040513d601f19601f820116820180604052508101906109cf9190614992565b60405163fdd5205f60e01b8152306004820152602481018490526001600160a01b03919091169063fdd5205f90604401602060405180830381865afa158015610a1a573d5f803e3d5ffd5b505050506040513d601f19601f82011682018060405250810190610a3e91906149ad565b9050610ae25f8054906101000a90046001600160a01b03166001600160a01b031663d09edf316040518163ffffffff1660e01b8152600401602060405180830381865afa158015610a91573d5f803e3d5ffd5b505050506040513d601f19601f82011682018060405250810190610ab59190614992565b6001600160a01b031663248a9ca3836040518263ffffffff1660e01b815260040161065a91815260200190565b5f8054906101000a90046001600160a01b03166001600160a01b031663d09edf316040518163ffffffff1660e01b8152600401602060405180830381865afa158015610b30573d5f803e3d5ffd5b505050506040513d601f19601f82011682018060405250810190610b549190614992565b6001600160a01b0316637d540a648686866040518463ffffffff1660e01b8152600401610b8393929190614c5c565b5f604051808303815f87803b158015610b9a575f80fd5b505af1158015610bac573d5f803e3d5ffd5b505050505050505050565b5f80546040805163d09edf3160e01b815290518693926001600160a01b03169163d09edf319160048083019260209291908290030181865afa158015610bff573d5f803e3d5ffd5b505050506040513d601f19601f82011682018060405250810190610c239190614992565b60405163fdd5205f60e01b8152306004820152602481018490526001600160a01b03919091169063fdd5205f90604401602060405180830381865afa158015610c6e573d5f803e3d5ffd5b505050506040513d601f19601f82011682018060405250810190610c9291906149ad565b9050610ce55f8054906101000a90046001600160a01b03166001600160a01b031663d09edf316040518163ffffffff1660e01b8152600401602060405180830381865afa158015610a91573d5f803e3d5ffd5b5f8054906101000a90046001600160a01b03166001600160a01b031663d09edf316040518163ffffffff1660e01b8152600401602060405180830381865afa158015610d33573d5f803e3d5ffd5b505050506040513d601f19601f82011682018060405250810190610d579190614992565b6001600160a01b031663648154538686866040518463ffffffff1660e01b8152600401610b8393929190614c5c565b82610d9081612b4b565b610dad576040516355cee66560e11b815260040160405180910390fd5b5f84815260716020526040902060030154849060ff1615610de15760405163581991ff60e01b815260040160405180910390fd5b5f85815260716020908152604080832054808452606d9092529091206003015460ff1615610e22576040516355eceaeb60e11b815260040160405180910390fd5b855f610e2c612c80565b90505f60715f8481526020019081526020015f20600101805480602002602001604051908101604052809291908181526020015f905b82821015610ea9575f848152602090819020604080518082019091526002850290910180546001600160a01b03168252600190810154828401529083529092019101610e62565b505082519293505f9150505b81811015610efb57836001600160a01b0316838281518110610ed957610ed9614a78565b60200260200101515f01516001600160a01b03160315610efb57600101610eb5565b818110610f1b5760405163b7b3e8c560e01b815260040160405180910390fd5b5f8b8152607160205260409020600201610f368a8c83614b03565b508a7f4128fe4992a5cb5a9cb54a23107ba2cd9db975f7f66fd5a978927aaf54350a998b8b604051610f69929190614cb3565b60405180910390a25050505050505050505050565b610fa860405180608001604052805f81526020015f8152602001606081526020015f151581525090565b81610fb2816120a1565b610fcf57604051630a3c13ff60e31b815260040160405180910390fd5b606d5f8481526020019081526020015f206040518060800160405290815f82015481526020016001820154815260200160028201805461100e90614a1a565b80601f016020809104026020016040519081016040528092919081815260200182805461103a90614a1a565b80156110855780601f1061105c57610100808354040283529160200191611085565b820191905f5260205f20905b81548152906001019060200180831161106857829003601f168201915b50505091835250506003919091015460ff16151560209091015291505b50919050565b6c2127aaa72a2cafa4a9a9aaa2a960991b61110a5f8054906101000a90046001600160a01b03166001600160a01b031663d09edf316040518163ffffffff1660e01b8152600401602060405180830381865afa158015610605573d5f803e3d5ffd5b83611114816120a1565b61113157604051630a3c13ff60e31b815260040160405180910390fd5b5f858152606d6020526040902060030154859060ff1615611165576040516355eceaeb60e11b815260040160405180910390fd5b5f868152606d60205260409020600201611180858783614b03565b50857f5b748b1bf798d437f4457fa662e95d5b99ba7c5c739e2d6342c7d06c4ad4300786866040516111b3929190614cb3565b60405180910390a2505050505050565b60606111cf6072612fb2565b905090565b60606c2127aaa72a2cafa4a9a9aaa2a960991b6112385f8054906101000a90046001600160a01b03166001600160a01b031663d09edf316040518163ffffffff1660e01b8152600401602060405180830381865afa158015610605573d5f803e3d5ffd5b8685848215806112485750828214155b806112535750828114155b15611271576040516344e1c69760e01b815260040160405180910390fd5b898067ffffffffffffffff81111561128b5761128b614697565b6040519080825280602002602001820160405280156112b4578160200160208202803683370190505b5095505f5b8181101561137e576112fb8d8d838181106112d6576112d6614a78565b905060200201358c8c848181106112ef576112ef614a78565b90506020020135613066565b6113598d8d8381811061131057611310614a78565b905060200201358c8c8481811061132957611329614a78565b905060200201358b8b8581811061134257611342614a78565b90506020028101906113549190614cc6565b613090565b87828151811061136b5761136b614a78565b60209081029190910101526001016112b9565b5050505050509695505050505050565b6060600160040180546113a090614a1a565b80601f01602080910402602001604051908101604052809291908181526020018280546113cc90614a1a565b80156114175780601f106113ee57610100808354040283529160200191611417565b820191905f5260205f20905b8154815290600101906020018083116113fa57829003601f168201915b5050505050905090565b6060600160030180546113a090614a1a565b5f805460405163572b6c0560e01b81526001600160a01b0384811660048301529091169063572b6c0590602401602060405180830381865afa15801561147b573d5f803e3d5ffd5b505050506040513d601f19601f820116820180604052508101906105a19190614d09565b826114a981612b4b565b6114c6576040516355cee66560e11b815260040160405180910390fd5b5f84815260716020526040902060030154849060ff16156114fa5760405163581991ff60e01b815260040160405180910390fd5b5f85815260716020908152604080832054808452606d9092529091206003015460ff161561153b576040516355eceaeb60e11b815260040160405180910390fd5b6710d310525350539560c21b6115985f8054906101000a90046001600160a01b03166001600160a01b031663d09edf316040518163ffffffff1660e01b8152600401602060405180830381865afa158015610605573d5f803e3d5ffd5b6116388686808060200260200160405190810160405280939291908181526020015f905b828210156115e8576115d9604083028601368190038101906149c4565b815260200190600101906115bc565b5050505f8b8152607160209081526040808320548352606d825291829020825160808101845281548152600182015492810192909252600281018054929550909350918401919061079590614a1a565b5f878152607160205260408120600181015490915b818110156116a85761169f8a60755f86600101858154811061167157611671614a78565b5f91825260208083206002909202909101546001600160a01b0316835282019290925260400190209061311f565b5060010161164d565b506116b6600183015f614056565b50855f5b8181101561172957826001018989838181106116d8576116d8614a78565b83546001810185555f94855260209094206040909102929092019260020290910190506117058282614a8c565b50506117208a60755f8c8c868181106108c6576108c6614a78565b506001016116ba565b50887f1d41ce0f1e2efe8a516e804c8208a8a92b1931eb13d5c7be8847790b6eb25ec1898960405161175c929190614d28565b60405180910390a2505050505050505050565b5f80546040805163d09edf3160e01b815290518593926001600160a01b03169163d09edf319160048083019260209291908290030181865afa1580156117b7573d5f803e3d5ffd5b505050506040513d601f19601f820116820180604052508101906117db9190614992565b60405163fdd5205f60e01b8152306004820152602481018490526001600160a01b03919091169063fdd5205f90604401602060405180830381865afa158015611826573d5f803e3d5ffd5b505050506040513d601f19601f8201168201806040525081019061184a91906149ad565b905061189d5f8054906101000a90046001600160a01b03166001600160a01b031663d09edf316040518163ffffffff1660e01b8152600401602060405180830381865afa158015610a91573d5f803e3d5ffd5b5f8054906101000a90046001600160a01b03166001600160a01b031663d09edf316040518163ffffffff1660e01b8152600401602060405180830381865afa1580156118eb573d5f803e3d5ffd5b505050506040513d601f19601f8201168201806040525081019061190f9190614992565b60405163385e205560e21b8152600481018690526001600160a01b038581166024830152919091169063e1788154906044015b5f604051808303815f87803b158015611959575f80fd5b505af115801561196b573d5f803e3d5ffd5b5050505050505050565b60606038805480602002602001604051908101604052809291908181526020015f905b82821015611a5f575f8481526020908190206040805160e0810182526007860290920180546001600160a01b039081168452600182015416838501526002810154838301526003810154606084015260048101546080840152600581015460a08401526006810180548351818702810187019094528084529394919360c086019392830182828015611a4757602002820191905f5260205f20905b815481526020019060010190808311611a33575b50505050508152505081526020019060010190611998565b50505050905090565b5f6111cf60016040518060a00160405290815f82015481526020016001820154815260200160028201548152602001600382018054611aa690614a1a565b80601f0160208091040260200160405190810160405280929190818152602001828054611ad290614a1a565b8015611b1d5780601f10611af457610100808354040283529160200191611b1d565b820191905f5260205f20905b815481529060010190602001808311611b0057829003601f168201915b50505050508152602001600482018054611b3690614a1a565b80601f0160208091040260200160405190810160405280929190818152602001828054611b6290614a1a565b8015611bad5780601f10611b8457610100808354040283529160200191611bad565b820191905f5260205f20905b815481529060010190602001808311611b9057829003601f168201915b50505050508152505061312a565b5f805f9054906101000a90046001600160a01b03166001600160a01b0316637da0a8776040518163ffffffff1660e01b8152600401602060405180830381865afa158015611c0b573d5f803e3d5ffd5b505050506040513d601f19601f820116820180604052508101906111cf9190614992565b6001600160a01b0381165f9081526075602052604090206060906105a190613168565b611c62611c5d612c80565b613174565b611c7f5760405163e4597a6b60e01b815260040160405180910390fd5b6001600160a01b0382165f9081526039602052604081208054839290611ca6908490614d3b565b90915550505050565b60606111cf606e612fb2565b7ff0c57e16840df040f15088dc2f81fe391c3923bec73e23a9662efc9c229c6a00805468010000000000000000810460ff16159067ffffffffffffffff165f81158015611d055750825b90505f8267ffffffffffffffff166001148015611d215750303b155b905081158015611d2f575080155b15611d4d5760405163f92ee8a960e01b815260040160405180910390fd5b845467ffffffffffffffff191660011785558315611d8157845468ff00000000000000001916680100000000000000001785555b611d8b88886131f1565b611d945f6132ea565b5f195f8190527f90e8828a45adaa15d8645928a320f3f2178f38b1e816e9a534ed71202ec464cc819055606f81905560746020527f591e574d7f81566c032ac223579fc5f865f01f50eb85857e56ae181a970ebfc6819055607355831561196b57845468ff000000000000000019168555604051600181527fc7f505b2f371ae2175ee4913f4499e1f2633a7b5936321eed1cdaeb6115181d29060200160405180910390a15050505050505050565b5f80546040805163d09edf3160e01b815290518593926001600160a01b03169163d09edf319160048083019260209291908290030181865afa158015611e8b573d5f803e3d5ffd5b505050506040513d601f19601f82011682018060405250810190611eaf9190614992565b60405163fdd5205f60e01b8152306004820152602481018490526001600160a01b03919091169063fdd5205f90604401602060405180830381865afa158015611efa573d5f803e3d5ffd5b505050506040513d601f19601f82011682018060405250810190611f1e91906149ad565b9050611f715f8054906101000a90046001600160a01b03166001600160a01b031663d09edf316040518163ffffffff1660e01b8152600401602060405180830381865afa158015610a91573d5f803e3d5ffd5b5f8054906101000a90046001600160a01b03166001600160a01b031663d09edf316040518163ffffffff1660e01b8152600401602060405180830381865afa158015611fbf573d5f803e3d5ffd5b505050506040513d601f19601f82011682018060405250810190611fe39190614992565b604051632e99be7f60e21b8152600481018690526001600160a01b038581166024830152919091169063ba66f9fc90604401611942565b5f6c2127aaa72a2cafa4a9a9aaa2a960991b61207d5f8054906101000a90046001600160a01b03166001600160a01b031663d09edf316040518163ffffffff1660e01b8152600401602060405180830381865afa158015610605573d5f803e3d5ffd5b85856120898282613066565b61209588888888613090565b98975050505050505050565b5f6105a1606e836132fe565b672b22a924a324a2a960c11b61210a5f8054906101000a90046001600160a01b03166001600160a01b031663d09edf316040518163ffffffff1660e01b8152600401602060405180830381865afa158015610605573d5f803e3d5ffd5b8361211481612b4b565b612131576040516355cee66560e11b815260040160405180910390fd5b5f85815260716020526040902060030154859060ff16156121655760405163581991ff60e01b815260040160405180910390fd5b5f86815260716020908152604080832054808452606d9092529091206003015460ff16156121a6576040516355eceaeb60e11b815260040160405180910390fd5b612201878787808060200260200160405190810160405280939291908181526020015f905b828210156121f7576121e8604083028601368190038101906149c4565b815260200190600101906121cb565b5050505050613321565b5f87815260716020908152604080832060010180548251818502810185019093528083529192909190849084015b82821015612276575f848152602090819020604080518082019091526002850290910180546001600160a01b0316825260019081015482840152908352909201910161222f565b50508251604080518082019091525f808252602082015293945092915061229a9050565b5f5b8281101561243d578381815181106122b6576122b6614a78565b602002602001015191505f8061230d5f67ffffffffffffffff8111156122de576122de614697565b604051908082528060200260200182016040528015612307578160200160208202803683370190505b5061348c565b915091506124336040518060e00160405280865f01516001600160a01b031681526020016123425f546001600160a01b031690565b6001600160a01b03166304baed9e6040518163ffffffff1660e01b8152600401602060405180830381865afa15801561237d573d5f803e3d5ffd5b505050506040513d601f19601f820116820180604052508101906123a19190614992565b6001600160a01b031663fc0c546a6040518163ffffffff1660e01b8152600401602060405180830381865afa1580156123dc573d5f803e3d5ffd5b505050506040513d601f19601f820116820180604052508101906124009190614992565b6001600160a01b0316815260200186602001518152602001468152602001468152602001848152602001838152506134cf565b505060010161229c565b505f8054906101000a90046001600160a01b03166001600160a01b031663f1c6bdf86040518163ffffffff1660e01b8152600401602060405180830381865afa15801561248c573d5f803e3d5ffd5b505050506040513d601f19601f820116820180604052508101906124b09190614992565b60405163e151fc6160e01b81523060048201526001600160a01b03919091169063e151fc61906024015f604051808303815f87803b1580156124f0575f80fd5b505af1158015612502573d5f803e3d5ffd5b5050505f8b815260716020526040808220600301805460ff19166001179055518c92507f393efda0b92bc01071b66a816d6bcddde867b8c91da505a0f309d9133a53650a9190a250505050505050505050565b6060806060612565611c5d612c80565b6125825760405163e4597a6b60e01b815260040160405180910390fd5b6038545f808267ffffffffffffffff8111156125a0576125a0614697565b6040519080825280602002602001820160405280156125c9578160200160208202803683370190505b5090505f8367ffffffffffffffff8111156125e6576125e6614697565b60405190808252806020026020018201604052801561260f578160200160208202803683370190505b5090508367ffffffffffffffff81111561262b5761262b614697565b6040519080825280602002602001820160405280156126ab57816020015b6126986040518060e001604052805f6001600160a01b031681526020015f6001600160a01b031681526020015f81526020015f81526020015f81526020015f8019168152602001606081525090565b8152602001906001900390816126495790505b5096505f5b848110156128cf57603881815481106126cb576126cb614a78565b5f9182526020918290206040805160e081018252600790930290910180546001600160a01b039081168452600182015416838501526002810154838301526003810154606084015260048101546080840152600581015460a08401526006810180548351818702810187019094528084529394919360c08601939283018282801561277357602002820191905f5260205f20905b81548152602001906001019080831161275f575b50505050508152505088828151811061278e5761278e614a78565b60200260200101819052505f805b85811015612804578983815181106127b6576127b6614a78565b6020026020010151602001516001600160a01b03168582815181106127dd576127dd614a78565b60200260200101516001600160a01b0316036127fc5760019150612804565b60010161279c565b50806128c65788828151811061281c5761281c614a78565b60200260200101516020015184868151811061283a5761283a614a78565b60200260200101906001600160a01b031690816001600160a01b03168152505060395f8a848151811061286f5761286f614a78565b6020026020010151602001516001600160a01b03166001600160a01b031681526020019081526020015f20548386815181106128ad576128ad614a78565b6020908102919091010152846128c281614a60565b9550505b506001016126b0565b506128db60385f614074565b8267ffffffffffffffff8111156128f4576128f4614697565b60405190808252806020026020018201604052801561291d578160200160208202803683370190505b5095508267ffffffffffffffff81111561293957612939614697565b604051908082528060200260200182016040528015612962578160200160208202803683370190505b5094505f5b83811015612a475782818151811061298157612981614a78565b602002602001015187828151811061299b5761299b614a78565b60200260200101906001600160a01b031690816001600160a01b0316815250508181815181106129cd576129cd614a78565b60200260200101518682815181106129e7576129e7614a78565b602002602001018181525050612a1d6129fe612c80565b888381518110612a1057612a10614a78565b60200260200101516136f6565b612a3f878281518110612a3257612a32614a78565b602002602001015161371a565b600101612967565b5050505050909192565b612a7c60405180608001604052805f815260200160608152602001606081526020015f151581525090565b81612a8681612b4b565b612aa3576040516355cee66560e11b815260040160405180910390fd5b60715f8481526020019081526020015f206040518060800160405290815f820154815260200160018201805480602002602001604051908101604052809291908181526020015f905b82821015612b33575f848152602090819020604080518082019091526002850290910180546001600160a01b03168252600190810154828401529083529092019101612aec565b50505050815260200160028201805461100e90614a1a565b5f6105a16072836132fe565b6c2127aaa72a2cafa4a9a9aaa2a960991b612bb95f8054906101000a90046001600160a01b03166001600160a01b031663d09edf316040518163ffffffff1660e01b8152600401602060405180830381865afa158015610605573d5f803e3d5ffd5b81612bc3816120a1565b612be057604051630a3c13ff60e31b815260040160405180910390fd5b5f838152606d6020526040902060030154839060ff1615612c14576040516355eceaeb60e11b815260040160405180910390fd5b5f848152606d6020526040808220600301805460ff191660011790555185917fa0e18720f77efbbf5292a427112cd5b87106c4dd3e6b27fe1fa001090a508a4091a250505050565b5f6001600160e01b031982166346fe193d60e11b14806105a157506105a18261398c565b5f366014612c8d33611433565b8015612c995750808210155b15612cc8575f36612caa8385614d3b565b612cb5928290614d4e565b612cbe91614d75565b60601c9250505090565b339250505090565b5f8054906101000a90046001600160a01b03166001600160a01b031663d09edf316040518163ffffffff1660e01b8152600401602060405180830381865afa158015612d1e573d5f803e3d5ffd5b505050506040513d601f19601f82011682018060405250810190612d429190614992565b60405163a883867d60e01b8152600481018490526001600160a01b038381166024830152919091169063a883867d90604401602060405180830381865afa158015612d8f573d5f803e3d5ffd5b505050506040513d601f19601f82011682018060405250810190612db39190614d09565b612de7576040516342abbb7760e01b8152600481018390526001600160a01b03821660248201526044015b60405180910390fd5b5050565b81515f819003612e0e576040516336df9e9360e11b815260040160405180910390fd5b5f8054819081906001600160a01b0316815b85811015612ef457878181518110612e3a57612e3a614a78565b6020026020010151602001519350835f03612e6857604051633e8ef59760e11b815260040160405180910390fd5b878181518110612e7a57612e7a614a78565b60209081029190910101515192506001600160a01b0383161580612ea657506001600160a01b03831630145b80612ec25750816001600160a01b0316836001600160a01b0316145b15612ee05760405163328b624b60e11b815260040160405180910390fd5b612eea8486614daa565b9450600101612e20565b508560200151841180612f075750855184105b15612f2557604051635de5137760e11b815260040160405180910390fd5b50505050505050565b8181612f3a82826132fe565b80612f43575080155b15612f615760405163582fbbaf60e01b815260040160405180910390fd5b6001840180545f90815260028601602052604080822086905585825281205f199055908490558454908590612f9583614a60565b919050555050505050565b5f612fab83836139c0565b9392505050565b60605f825f015467ffffffffffffffff811115612fd157612fd1614697565b604051908082528060200260200182016040528015612ffa578160200160208202803683370190505b505f195f908152600285016020526040812054919250905b5f19811461305d578083838151811061302d5761302d614a78565b6020908102919091018101919091525f91825260028601905260409020548161305581614a60565b925050613012565b50909392505050565b81158061307257508181105b15612de7576040516306338ccd60e31b815260040160405180910390fd5b5f606c5f815461309f90614a60565b918290555090506130b1606e82612f2e565b5f818152606d6020526040902085815560018101859055600281016130d7848683614b03565b50817f16aa89bae6ad0e0b7a94b930e87a8e04b02978ed503e2698b1b6359416e1ac838787878760405161310e9493929190614dbd565b60405180910390a250949350505050565b5f612fab8383613a0c565b5f815f01518260600151836080015160405160200161314b93929190614ddc565b604051602081830303815290604052805190602001209050919050565b60605f612fab83613aef565b5f805460408051631e38d7bf60e31b815290516001600160a01b0380861693169163f1c6bdf89160048083019260209291908290030181865afa1580156131bd573d5f803e3d5ffd5b505050506040513d601f19601f820116820180604052508101906131e19190614992565b6001600160a01b03161492915050565b6131f9613b48565b6001600160a01b03821661322057604051637280679360e01b815260040160405180910390fd5b5f80546001600160a01b0319166001600160a01b03841617905561324381613b98565b61326057604051637511254160e01b815260040160405180910390fd5b8051600190815560208201516002556040820151600355606082015182919060049061328c9082614e06565b50608082015160048201906132a19082614e06565b50905050816001600160a01b03167fd5f3f84c2e1816ce290af84d002663800b02f2985d770cdd335de76fd723b730826040516132de9190614ec6565b60405180910390a25050565b6132f2613b48565b6132fb81613bf2565b50565b5f81815260028301602052604081205415801590612fab5750505f191415919050565b5f82815260716020908152604080832060010180548251818502810185019093528083529192909190849084015b82821015613396575f848152602090819020604080518082019091526002850290910180546001600160a01b0316825260019081015482840152908352909201910161334f565b5050505090505f82519050808251146133c25760405163b854595560e01b815260040160405180910390fd5b5f5b81811015613485578281815181106133de576133de614a78565b60200260200101515f01516001600160a01b031684828151811061340457613404614a78565b60200260200101515f01516001600160a01b031614158061345f575082818151811061343257613432614a78565b60200260200101516020015184828151811061345057613450614a78565b60200260200101516020015114155b1561347d5760405163b854595560e01b815260040160405180910390fd5b6001016133c4565b5050505050565b8051603a545f9160609160ff16146134c757603a548351604051630bf3089f60e11b815260ff90921660048301526024820152604401612dde565b5050603b5491565b806134d981613c7d565b816040015160395f84602001516001600160a01b03166001600160a01b031681526020019081526020015f205f8282546135139190614daa565b9091555050603880546001810182555f9190915282517f38395c5dceade9603479b177b68959049485df8aa97b39f3533039af5f456199600790920291820180546001600160a01b03199081166001600160a01b039384161782556020808701517f38395c5dceade9603479b177b68959049485df8aa97b39f3533039af5f45619a86018054909316941693909317905560408501517f38395c5dceade9603479b177b68959049485df8aa97b39f3533039af5f45619b84015560608501517f38395c5dceade9603479b177b68959049485df8aa97b39f3533039af5f45619c84015560808501517f38395c5dceade9603479b177b68959049485df8aa97b39f3533039af5f45619d84015560a08501517f38395c5dceade9603479b177b68959049485df8aa97b39f3533039af5f45619e84015560c0850151805186949293613681937f38395c5dceade9603479b177b68959049485df8aa97b39f3533039af5f45619f01920190614092565b50505081602001516001600160a01b0316825f01516001600160a01b03167ff7c0c50e520bf64576a9482cc54780006390b90cee6a1c0bde1adaeb9c0f02f68460400151856060015186608001518760a001518860c001516040516136ea959493929190614f1c565b60405180910390a35050565b6001600160a01b0381165f81815260396020526040902054612de791908490613d6f565b6001600160a01b0381165f818152603960205260408082205490516370a0823160e01b81523060048201529092906370a0823190602401602060405180830381865afa15801561376c573d5f803e3d5ffd5b505050506040513d601f19601f8201168201806040525081019061379091906149ad565b905081811015613987575f8054906101000a90046001600160a01b03166001600160a01b03166304baed9e6040518163ffffffff1660e01b8152600401602060405180830381865afa1580156137e8573d5f803e3d5ffd5b505050506040513d601f19601f8201168201806040525081019061380c9190614992565b6001600160a01b031663fc0c546a6040518163ffffffff1660e01b8152600401602060405180830381865afa158015613847573d5f803e3d5ffd5b505050506040513d601f19601f8201168201806040525081019061386b9190614992565b6001600160a01b0316836001600160a01b031603613963575f8054906101000a90046001600160a01b03166001600160a01b03166304baed9e6040518163ffffffff1660e01b8152600401602060405180830381865afa1580156138d1573d5f803e3d5ffd5b505050506040513d601f19601f820116820180604052508101906138f59190614992565b6001600160a01b031663759cc4b53061390e8486614d3b565b6040516001600160e01b031960e085901b1681526001600160a01b03909216600483015260248201526044015f604051808303815f87803b158015613951575f80fd5b505af1158015612f25573d5f803e3d5ffd5b6040516346511acb60e11b81526001600160a01b0384166004820152602401612dde565b505050565b5f6001600160e01b0319821663e328951160e01b14806105a157506301ffc9a760e01b6001600160e01b03198316146105a1565b5f818152600183016020526040812054613a0557508154600181810184555f8481526020808220909301849055845484825282860190935260409020919091556105a1565b505f6105a1565b5f8181526001830160205260408120548015613ae6575f613a2e600183614d3b565b85549091505f90613a4190600190614d3b565b9050808214613aa0575f865f018281548110613a5f57613a5f614a78565b905f5260205f200154905080875f018481548110613a7f57613a7f614a78565b5f918252602080832090910192909255918252600188019052604090208390555b8554869080613ab157613ab1614f46565b600190038181905f5260205f20015f90559055856001015f8681526020019081526020015f205f9055600193505050506105a1565b5f9150506105a1565b6060815f01805480602002602001604051908101604052809291908181526020018280548015613b3c57602002820191905f5260205f20905b815481526020019060010190808311613b28575b50505050509050919050565b7ff0c57e16840df040f15088dc2f81fe391c3923bec73e23a9662efc9c229c6a005468010000000000000000900460ff16613b9657604051631afcd79f60e31b815260040160405180910390fd5b565b5f8160600151515f03613bac57505f919050565b8160800151515f03613bbf57505f919050565b8151158015613bd057506020820151155b8015613bde57506040820151155b15613bea57505f919050565b506001919050565b5f805b60ff8111613c28576001811b831615613c165781613c1281614f5a565b9250505b80613c2081614a60565b915050613bf5565b50603b829055603a805460ff191660ff831690811790915560408051918252602082018490527f7b463eebcf86a9ecb1c64d88acc3609fe74aaccb569d01b4bb01875b737eda18910160405180910390a15050565b5f546001600160a01b03166001600160a01b031663f1c6bdf86040518163ffffffff1660e01b8152600401602060405180830381865afa158015613cc3573d5f803e3d5ffd5b505050506040513d601f19601f82011682018060405250810190613ce79190614992565b6001600160a01b031663f7698285826040518263ffffffff1660e01b8152600401613d129190614f78565b6020604051808303815f875af1158015613d2e573d5f803e3d5ffd5b505050506040513d601f19601f82011682018060405250810190613d529190614d09565b6132fb5760405163349a262760e01b815260040160405180910390fd5b604080516001600160a01b038416602482015260448082018490528251808303909101815260649091019091526020810180517bffffffffffffffffffffffffffffffffffffffffffffffffffffffff1663095ea7b360e01b179052613dd58482613e52565b613e4c57604080516001600160a01b03851660248201525f6044808301919091528251808303909101815260649091019091526020810180517bffffffffffffffffffffffffffffffffffffffffffffffffffffffff1663095ea7b360e01b179052613e42908590613ef3565b613e4c8482613ef3565b50505050565b5f805f846001600160a01b031684604051613e6d9190614f8a565b5f604051808303815f865af19150503d805f8114613ea6576040519150601f19603f3d011682016040523d82523d5f602084013e613eab565b606091505b5091509150818015613ed5575080511580613ed5575080806020019051810190613ed59190614d09565b8015613eea57505f856001600160a01b03163b115b95945050505050565b5f613f076001600160a01b03841683613f54565b905080515f14158015613f2b575080806020019051810190613f299190614d09565b155b1561398757604051635274afe760e01b81526001600160a01b0384166004820152602401612dde565b6060612fab83835f845f80856001600160a01b03168486604051613f789190614f8a565b5f6040518083038185875af1925050503d805f8114613fb2576040519150601f19603f3d011682016040523d82523d5f602084013e613fb7565b606091505b5091509150613fc7868383613fd1565b9695505050505050565b606082613fe657613fe18261402d565b612fab565b8151158015613ffd57506001600160a01b0384163b155b1561402657604051639996b31560e01b81526001600160a01b0385166004820152602401612dde565b5080612fab565b80511561403d5780518082602001fd5b604051630a12f52160e11b815260040160405180910390fd5b5080545f8255600202905f5260205f20908101906132fb91906140db565b5080545f8255600702905f5260205f20908101906132fb9190614100565b828054828255905f5260205f209081019282156140cb579160200282015b828111156140cb5782518255916020019190600101906140b0565b506140d7929150614156565b5090565b5b808211156140d75780546001600160a01b03191681555f60018201556002016140dc565b808211156140d75780546001600160a01b0319908116825560018201805490911690555f6002820181905560038201819055600482018190556005820181905561414d600683018261416a565b50600701614100565b5b808211156140d7575f8155600101614157565b5080545f8255905f5260205f20908101906132fb9190614156565b5f60208284031215614195575f80fd5b81356001600160e01b031981168114612fab575f80fd5b5f8083601f8401126141bc575f80fd5b50813567ffffffffffffffff8111156141d3575f80fd5b6020830191508360208260061b85010111156141ed575f80fd5b9250929050565b5f8083601f840112614204575f80fd5b50813567ffffffffffffffff81111561421b575f80fd5b6020830191508360208285010111156141ed575f80fd5b5f805f805f60608688031215614246575f80fd5b85359450602086013567ffffffffffffffff80821115614264575f80fd5b61427089838a016141ac565b90965094506040880135915080821115614288575f80fd5b50614295888289016141f4565b969995985093965092949392505050565b5f8083601f8401126142b6575f80fd5b50813567ffffffffffffffff8111156142cd575f80fd5b6020830191508360208260051b85010111156141ed575f80fd5b5f805f604084860312156142f9575f80fd5b83359250602084013567ffffffffffffffff811115614316575f80fd5b614322868287016142a6565b9497909650939450505050565b5f805f60408486031215614341575f80fd5b83359250602084013567ffffffffffffffff81111561435e575f80fd5b614322868287016141f4565b6001600160a01b03811681146132fb575f80fd5b5f6020828403121561438e575f80fd5b8135612fab8161436a565b5f602082840312156143a9575f80fd5b5035919050565b5f5b838110156143ca5781810151838201526020016143b2565b50505f910152565b5f81518084526143e98160208601602086016143b0565b601f01601f19169290920160200192915050565b6020815281516020820152602082015160408201525f60408301516080606084015261442c60a08401826143d2565b90506060840151151560808401528091505092915050565b5f815180845260208085019450602084015f5b8381101561447357815187529582019590820190600101614457565b509495945050505050565b602081525f612fab6020830184614444565b5f805f805f80606087890312156144a5575f80fd5b863567ffffffffffffffff808211156144bc575f80fd5b6144c88a838b016142a6565b909850965060208901359150808211156144e0575f80fd5b6144ec8a838b016142a6565b90965094506040890135915080821115614504575f80fd5b5061451189828a016142a6565b979a9699509497509295939492505050565b602081525f612fab60208301846143d2565b5f805f60408486031215614547575f80fd5b83359250602084013567ffffffffffffffff811115614564575f80fd5b614322868287016141ac565b5f8060408385031215614581575f80fd5b8235915060208301356145938161436a565b809150509250929050565b5f6001600160a01b038083511684528060208401511660208501525060408201516040840152606082015160608401526080820151608084015260a082015160a084015260c082015160e060c08501526145fb60e0850182614444565b949350505050565b5f8282518085526020808601955060208260051b840101602086015f5b8481101561464e57601f1986840301895261463c83835161459e565b98840198925090830190600101614620565b5090979650505050505050565b602081525f612fab6020830184614603565b5f806040838503121561467e575f80fd5b82356146898161436a565b946020939093013593505050565b634e487b7160e01b5f52604160045260245ffd5b60405160a0810167ffffffffffffffff811182821017156146ce576146ce614697565b60405290565b5f82601f8301126146e3575f80fd5b813567ffffffffffffffff808211156146fe576146fe614697565b604051601f8301601f19908116603f0116810190828211818310171561472657614726614697565b8160405283815286602085880101111561473e575f80fd5b836020870160208301375f602085830101528094505050505092915050565b5f805f6060848603121561476f575f80fd5b833561477a8161436a565b9250602084013567ffffffffffffffff80821115614796575f80fd5b9085019060a082880312156147a9575f80fd5b6147b16146ab565b8235815260208301356020820152604083013560408201526060830135828111156147da575f80fd5b6147e6898286016146d4565b6060830152506080830135828111156147fd575f80fd5b614809898286016146d4565b60808301525093506040860135915080821115614824575f80fd5b50614831868287016146d4565b9150509250925092565b5f805f806060858703121561484e575f80fd5b8435935060208501359250604085013567ffffffffffffffff811115614872575f80fd5b61487e878288016141f4565b95989497509550505050565b606081525f61489c6060830186614603565b8281036020848101919091528551808352868201928201905f5b818110156148db5784516001600160a01b0316835293830193918301916001016148b6565b505084810360408601526120958187614444565b5f602080835260a083018451828501528185015160406080604087015282825180855260c08801915085840194505f93505b8084101561495357845180516001600160a01b0316835286015186830152938501936001939093019290820190614921565b506040880151878203601f19016060890152945061497181866143d2565b945050505050606084015161498a608085018215159052565b509392505050565b5f602082840312156149a2575f80fd5b8151612fab8161436a565b5f602082840312156149bd575f80fd5b5051919050565b5f604082840312156149d4575f80fd5b6040516040810181811067ffffffffffffffff821117156149f7576149f7614697565b6040528235614a058161436a565b81526020928301359281019290925250919050565b600181811c90821680614a2e57607f821691505b6020821081036110a257634e487b7160e01b5f52602260045260245ffd5b634e487b7160e01b5f52601160045260245ffd5b5f60018201614a7157614a71614a4c565b5060010190565b634e487b7160e01b5f52603260045260245ffd5b8135614a978161436a565b6001600160a01b0381166001600160a01b031983541617825550602082013560018201555050565b601f82111561398757805f5260205f20601f840160051c81016020851015614ae45750805b601f840160051c820191505b81811015613485575f8155600101614af0565b67ffffffffffffffff831115614b1b57614b1b614697565b614b2f83614b298354614a1a565b83614abf565b5f601f841160018114614b60575f8515614b495750838201355b5f19600387901b1c1916600186901b178355613485565b5f83815260208120601f198716915b82811015614b8f5786850135825560209485019460019092019101614b6f565b5086821015614bab575f1960f88860031b161c19848701351681555b505060018560011b0183555050505050565b8183525f60208085019450825f5b85811015614473578135614bde8161436a565b6001600160a01b03168752818301358388015260409687019690910190600101614bcb565b81835281816020850137505f828201602090810191909152601f909101601f19169091010190565b604081525f614c3e604083018688614bbd565b8281036020840152614c51818587614c03565b979650505050505050565b838152604060208083018290529082018390525f90849060608401835b86811015614ca7578335614c8c8161436a565b6001600160a01b031682529282019290820190600101614c79565b50979650505050505050565b602081525f6145fb602083018486614c03565b5f808335601e19843603018112614cdb575f80fd5b83018035915067ffffffffffffffff821115614cf5575f80fd5b6020019150368190038213156141ed575f80fd5b5f60208284031215614d19575f80fd5b81518015158114612fab575f80fd5b602081525f6145fb602083018486614bbd565b818103818111156105a1576105a1614a4c565b5f8085851115614d5c575f80fd5b83861115614d68575f80fd5b5050820193919092039150565b6bffffffffffffffffffffffff198135818116916014851015614da25780818660140360031b1b83161692505b505092915050565b808201808211156105a1576105a1614a4c565b848152836020820152606060408201525f613fc7606083018486614c03565b838152606060208201525f614df460608301856143d2565b8281036040840152613fc781856143d2565b815167ffffffffffffffff811115614e2057614e20614697565b614e3481614e2e8454614a1a565b84614abf565b602080601f831160018114614e67575f8415614e505750858301515b5f19600386901b1c1916600185901b178555614ebe565b5f85815260208120601f198616915b82811015614e9557888601518255948401946001909101908401614e76565b5085821015614eb257878501515f19600388901b60f8161c191681555b505060018460011b0185555b505050505050565b602081528151602082015260208201516040820152604082015160608201525f606083015160a06080840152614eff60c08401826143d2565b90506080840151601f198483030160a0850152613eea82826143d2565b85815284602082015283604082015282606082015260a060808201525f614c5160a0830184614444565b634e487b7160e01b5f52603160045260245ffd5b5f60ff821660ff8103614f6f57614f6f614a4c565b60010192915050565b602081525f612fab602083018461459e565b5f8251614f9b8184602087016143b0565b919091019291505056fea2646970667358221220d9ae02c526018347088282ff2c23ca74176e30872abeb80cd5efebcf46a244cc64736f6c63430008170033",
    "linkReferences": {}
  },
  "methodIdentifiers": {
    "BOUNTY_ISSUER_ROLE()": "7bfee048",
    "CLAIMANT_ROLE()": "8a867368",
    "VERIFIER_ROLE()": "e7705db6",
    "addBounty(uint256,uint256,bytes)": "bd769f79",
    "addBountyBatch(uint256[],uint256[],bytes[])": "418ab5f8",
    "addClaim(uint256,(address,uint256)[],bytes)": "0d97d72c",
    "amountPaid(address,uint256)": "b33ec618",
    "collectPaymentOrders()": "c0231ff6",
    "getBountyInformation(uint256)": "31be580e",
    "getClaimInformation(uint256)": "cb05296f",
    "getFlagCount()": "c9582f20",
    "getFlags()": "6cc7149d",
    "grantModuleRole(bytes32,address)": "6c67e807",
    "grantModuleRoleBatched(bytes32,address[])": "272bbd44",
    "identifier()": "7998a1c4",
    "init(address,(uint256,uint256,uint256,string,string),bytes)": "b66a870c",
    "isExistingBountyId(uint256)": "be5a5745",
    "isExistingClaimId(uint256)": "e2114c8c",
    "isTrustedForwarder(address)": "572b6c05",
    "listBountyIds()": "b5e8bc45",
    "listClaimIds()": "3cd6b5d1",
    "listClaimIdsForContributorAddress(address)": "9c16f525",
    "lockBounty(uint256)": "fa4dbd03",
    "orchestrator()": "b74795d9",
    "outstandingTokenAmount(address)": "2e84db5f",
    "paymentOrders()": "75fa0b76",
    "revokeModuleRole(bytes32,address)": "bcb61920",
    "revokeModuleRoleBatched(bytes32,address[])": "24e30270",
    "supportsInterface(bytes4)": "01ffc9a7",
    "title()": "4a79d50c",
    "trustedForwarder()": "7da0a877",
    "updateBounty(uint256,bytes)": "31de0bdb",
    "updateClaimContributors(uint256,(address,uint256)[])": "5beaeb8c",
    "updateClaimDetails(uint256,bytes)": "2d54a71c",
    "url()": "5600f04f",
    "verifyClaim(uint256,(address,uint256)[])": "bf1f9656",
    "version()": "54fd4d50"
  },
  "id": 154
}