{
  "abi": [
    {
      "type": "function",
      "name": "addRecurringPayment",
      "inputs": [
        {
          "name": "amount",
          "type": "uint256",
          "internalType": "uint256"
        },
        {
          "name": "startEpoch",
          "type": "uint256",
          "internalType": "uint256"
        },
        {
          "name": "recipient",
          "type": "address",
          "internalType": "address"
        }
      ],
      "outputs": [
        {
          "name": "id",
          "type": "uint256",
          "internalType": "uint256"
        }
      ],
      "stateMutability": "nonpayable"
    },
    {
      "type": "function",
      "name": "amountPaid",
      "inputs": [
        {
          "name": "token_",
          "type": "address",
          "internalType": "address"
        },
        {
          "name": "amount_",
          "type": "uint256",
          "internalType": "uint256"
        }
      ],
      "outputs": [],
      "stateMutability": "nonpayable"
    },
    {
      "type": "function",
      "name": "collectPaymentOrders",
      "inputs": [],
      "outputs": [
        {
          "name": "paymentOrders_",
          "type": "tuple[]",
          "internalType": "struct IERC20PaymentClientBase_v2.PaymentOrder[]",
          "components": [
            {
              "name": "recipient",
              "type": "address",
              "internalType": "address"
            },
            {
              "name": "paymentToken",
              "type": "address",
              "internalType": "address"
            },
            {
              "name": "amount",
              "type": "uint256",
              "internalType": "uint256"
            },
            {
              "name": "originChainId",
              "type": "uint256",
              "internalType": "uint256"
            },
            {
              "name": "targetChainId",
              "type": "uint256",
              "internalType": "uint256"
            },
            {
              "name": "flags",
              "type": "bytes32",
              "internalType": "bytes32"
            },
            {
              "name": "data",
              "type": "bytes32[]",
              "internalType": "bytes32[]"
            }
          ]
        },
        {
          "name": "tokens_",
          "type": "address[]",
          "internalType": "address[]"
        },
        {
          "name": "totalAmounts_",
          "type": "uint256[]",
          "internalType": "uint256[]"
        }
      ],
      "stateMutability": "nonpayable"
    },
    {
      "type": "function",
      "name": "getCurrentEpoch",
      "inputs": [],
      "outputs": [
        {
          "name": "epoch",
          "type": "uint256",
          "internalType": "uint256"
        }
      ],
      "stateMutability": "view"
    },
    {
      "type": "function",
      "name": "getEpochFromTimestamp",
      "inputs": [
        {
          "name": "timestamp",
          "type": "uint256",
          "internalType": "uint256"
        }
      ],
      "outputs": [
        {
          "name": "epoch",
          "type": "uint256",
          "internalType": "uint256"
        }
      ],
      "stateMutability": "view"
    },
    {
      "type": "function",
      "name": "getEpochLength",
      "inputs": [],
      "outputs": [
        {
          "name": "",
          "type": "uint256",
          "internalType": "uint256"
        }
      ],
      "stateMutability": "view"
    },
    {
      "type": "function",
      "name": "getFlagCount",
      "inputs": [],
      "outputs": [
        {
          "name": "flagCount_",
          "type": "uint8",
          "internalType": "uint8"
        }
      ],
      "stateMutability": "view"
    },
    {
      "type": "function",
      "name": "getFlags",
      "inputs": [],
      "outputs": [
        {
          "name": "flags_",
          "type": "bytes32",
          "internalType": "bytes32"
        }
      ],
      "stateMutability": "view"
    },
    {
      "type": "function",
      "name": "getFutureEpoch",
      "inputs": [
        {
          "name": "xEpochsInTheFuture",
          "type": "uint256",
          "internalType": "uint256"
        }
      ],
      "outputs": [
        {
          "name": "futureEpoch",
          "type": "uint256",
          "internalType": "uint256"
        }
      ],
      "stateMutability": "view"
    },
    {
      "type": "function",
      "name": "getPreviousPaymentId",
      "inputs": [
        {
          "name": "id",
          "type": "uint256",
          "internalType": "uint256"
        }
      ],
      "outputs": [
        {
          "name": "",
          "type": "uint256",
          "internalType": "uint256"
        }
      ],
      "stateMutability": "view"
    },
    {
      "type": "function",
      "name": "getRecurringPaymentInformation",
      "inputs": [
        {
          "name": "id",
          "type": "uint256",
          "internalType": "uint256"
        }
      ],
      "outputs": [
        {
          "name": "",
          "type": "tuple",
          "internalType": "struct ILM_PC_RecurringPayments_v2.RecurringPayment",
          "components": [
            {
              "name": "amount",
              "type": "uint256",
              "internalType": "uint256"
            },
            {
              "name": "startEpoch",
              "type": "uint256",
              "internalType": "uint256"
            },
            {
              "name": "lastTriggeredEpoch",
              "type": "uint256",
              "internalType": "uint256"
            },
            {
              "name": "recipient",
              "type": "address",
              "internalType": "address"
            }
          ]
        }
      ],
      "stateMutability": "view"
    },
    {
      "type": "function",
      "name": "grantModuleRole",
      "inputs": [
        {
          "name": "role",
          "type": "bytes32",
          "internalType": "bytes32"
        },
        {
          "name": "target",
          "type": "address",
          "internalType": "address"
        }
      ],
      "outputs": [],
      "stateMutability": "nonpayable"
    },
    {
      "type": "function",
      "name": "grantModuleRoleBatched",
      "inputs": [
        {
          "name": "role",
          "type": "bytes32",
          "internalType": "bytes32"
        },
        {
          "name": "targets",
          "type": "address[]",
          "internalType": "address[]"
        }
      ],
      "outputs": [],
      "stateMutability": "nonpayable"
    },
    {
      "type": "function",
      "name": "identifier",
      "inputs": [],
      "outputs": [
        {
          "name": "",
          "type": "bytes32",
          "internalType": "bytes32"
        }
      ],
      "stateMutability": "view"
    },
    {
      "type": "function",
      "name": "init",
      "inputs": [
        {
          "name": "orchestrator_",
          "type": "address",
          "internalType": "contract IOrchestrator_v1"
        },
        {
          "name": "metadata",
          "type": "tuple",
          "internalType": "struct IModule_v1.Metadata",
          "components": [
            {
              "name": "majorVersion",
              "type": "uint256",
              "internalType": "uint256"
            },
            {
              "name": "minorVersion",
              "type": "uint256",
              "internalType": "uint256"
            },
            {
              "name": "patchVersion",
              "type": "uint256",
              "internalType": "uint256"
            },
            {
              "name": "url",
              "type": "string",
              "internalType": "string"
            },
            {
              "name": "title",
              "type": "string",
              "internalType": "string"
            }
          ]
        },
        {
          "name": "configData",
          "type": "bytes",
          "internalType": "bytes"
        }
      ],
      "outputs": [],
      "stateMutability": "nonpayable"
    },
    {
      "type": "function",
      "name": "isExistingRecurringPaymentId",
      "inputs": [
        {
          "name": "id",
          "type": "uint256",
          "internalType": "uint256"
        }
      ],
      "outputs": [
        {
          "name": "",
          "type": "bool",
          "internalType": "bool"
        }
      ],
      "stateMutability": "view"
    },
    {
      "type": "function",
      "name": "isTrustedForwarder",
      "inputs": [
        {
          "name": "forwarder",
          "type": "address",
          "internalType": "address"
        }
      ],
      "outputs": [
        {
          "name": "",
          "type": "bool",
          "internalType": "bool"
        }
      ],
      "stateMutability": "view"
    },
    {
      "type": "function",
      "name": "listRecurringPaymentIds",
      "inputs": [],
      "outputs": [
        {
          "name": "",
          "type": "uint256[]",
          "internalType": "uint256[]"
        }
      ],
      "stateMutability": "view"
    },
    {
      "type": "function",
      "name": "orchestrator",
      "inputs": [],
      "outputs": [
        {
          "name": "",
          "type": "address",
          "internalType": "contract IOrchestrator_v1"
        }
      ],
      "stateMutability": "view"
    },
    {
      "type": "function",
      "name": "outstandingTokenAmount",
      "inputs": [
        {
          "name": "token_",
          "type": "address",
          "internalType": "address"
        }
      ],
      "outputs": [
        {
          "name": "total_",
          "type": "uint256",
          "internalType": "uint256"
        }
      ],
      "stateMutability": "view"
    },
    {
      "type": "function",
      "name": "paymentOrders",
      "inputs": [],
      "outputs": [
        {
          "name": "",
          "type": "tuple[]",
          "internalType": "struct IERC20PaymentClientBase_v2.PaymentOrder[]",
          "components": [
            {
              "name": "recipient",
              "type": "address",
              "internalType": "address"
            },
            {
              "name": "paymentToken",
              "type": "address",
              "internalType": "address"
            },
            {
              "name": "amount",
              "type": "uint256",
              "internalType": "uint256"
            },
            {
              "name": "originChainId",
              "type": "uint256",
              "internalType": "uint256"
            },
            {
              "name": "targetChainId",
              "type": "uint256",
              "internalType": "uint256"
            },
            {
              "name": "flags",
              "type": "bytes32",
              "internalType": "bytes32"
            },
            {
              "name": "data",
              "type": "bytes32[]",
              "internalType": "bytes32[]"
            }
          ]
        }
      ],
      "stateMutability": "view"
    },
    {
      "type": "function",
      "name": "removeRecurringPayment",
      "inputs": [
        {
          "name": "prevId",
          "type": "uint256",
          "internalType": "uint256"
        },
        {
          "name": "id",
          "type": "uint256",
          "internalType": "uint256"
        }
      ],
      "outputs": [],
      "stateMutability": "nonpayable"
    },
    {
      "type": "function",
      "name": "revokeModuleRole",
      "inputs": [
        {
          "name": "role",
          "type": "bytes32",
          "internalType": "bytes32"
        },
        {
          "name": "target",
          "type": "address",
          "internalType": "address"
        }
      ],
      "outputs": [],
      "stateMutability": "nonpayable"
    },
    {
      "type": "function",
      "name": "revokeModuleRoleBatched",
      "inputs": [
        {
          "name": "role",
          "type": "bytes32",
          "internalType": "bytes32"
        },
        {
          "name": "targets",
          "type": "address[]",
          "internalType": "address[]"
        }
      ],
      "outputs": [],
      "stateMutability": "nonpayable"
    },
    {
      "type": "function",
      "name": "supportsInterface",
      "inputs": [
        {
          "name": "interfaceId",
          "type": "bytes4",
          "internalType": "bytes4"
        }
      ],
      "outputs": [
        {
          "name": "",
          "type": "bool",
          "internalType": "bool"
        }
      ],
      "stateMutability": "view"
    },
    {
      "type": "function",
      "name": "title",
      "inputs": [],
      "outputs": [
        {
          "name": "",
          "type": "string",
          "internalType": "string"
        }
      ],
      "stateMutability": "view"
    },
    {
      "type": "function",
      "name": "trigger",
      "inputs": [],
      "outputs": [],
      "stateMutability": "nonpayable"
    },
    {
      "type": "function",
      "name": "triggerFor",
      "inputs": [
        {
          "name": "startId",
          "type": "uint256",
          "internalType": "uint256"
        },
        {
          "name": "endId",
          "type": "uint256",
          "internalType": "uint256"
        }
      ],
      "outputs": [],
      "stateMutability": "nonpayable"
    },
    {
      "type": "function",
      "name": "trustedForwarder",
      "inputs": [],
      "outputs": [
        {
          "name": "",
          "type": "address",
          "internalType": "address"
        }
      ],
      "stateMutability": "view"
    },
    {
      "type": "function",
      "name": "url",
      "inputs": [],
      "outputs": [
        {
          "name": "",
          "type": "string",
          "internalType": "string"
        }
      ],
      "stateMutability": "view"
    },
    {
      "type": "function",
      "name": "version",
      "inputs": [],
      "outputs": [
        {
          "name": "",
          "type": "uint256",
          "internalType": "uint256"
        },
        {
          "name": "",
          "type": "uint256",
          "internalType": "uint256"
        },
        {
          "name": "",
          "type": "uint256",
          "internalType": "uint256"
        }
      ],
      "stateMutability": "view"
    },
    {
      "type": "event",
      "name": "EpochLengthSet",
      "inputs": [
        {
          "name": "epochLength",
          "type": "uint256",
          "indexed": false,
          "internalType": "uint256"
        }
      ],
      "anonymous": false
    },
    {
      "type": "event",
      "name": "FlagsSet",
      "inputs": [
        {
          "name": "flagCount",
          "type": "uint8",
          "indexed": false,
          "internalType": "uint8"
        },
        {
          "name": "newFlags",
          "type": "bytes32",
          "indexed": false,
          "internalType": "bytes32"
        }
      ],
      "anonymous": false
    },
    {
      "type": "event",
      "name": "Initialized",
      "inputs": [
        {
          "name": "version",
          "type": "uint64",
          "indexed": false,
          "internalType": "uint64"
        }
      ],
      "anonymous": false
    },
    {
      "type": "event",
      "name": "ModuleInitialized",
      "inputs": [
        {
          "name": "parentOrchestrator",
          "type": "address",
          "indexed": true,
          "internalType": "address"
        },
        {
          "name": "metadata",
          "type": "tuple",
          "indexed": false,
          "internalType": "struct IModule_v1.Metadata",
          "components": [
            {
              "name": "majorVersion",
              "type": "uint256",
              "internalType": "uint256"
            },
            {
              "name": "minorVersion",
              "type": "uint256",
              "internalType": "uint256"
            },
            {
              "name": "patchVersion",
              "type": "uint256",
              "internalType": "uint256"
            },
            {
              "name": "url",
              "type": "string",
              "internalType": "string"
            },
            {
              "name": "title",
              "type": "string",
              "internalType": "string"
            }
          ]
        }
      ],
      "anonymous": false
    },
    {
      "type": "event",
      "name": "PaymentOrderAdded",
      "inputs": [
        {
          "name": "recipient",
          "type": "address",
          "indexed": true,
          "internalType": "address"
        },
        {
          "name": "token",
          "type": "address",
          "indexed": true,
          "internalType": "address"
        },
        {
          "name": "amount",
          "type": "uint256",
          "indexed": false,
          "internalType": "uint256"
        },
        {
          "name": "originChainId",
          "type": "uint256",
          "indexed": false,
          "internalType": "uint256"
        },
        {
          "name": "targetChainId",
          "type": "uint256",
          "indexed": false,
          "internalType": "uint256"
        },
        {
          "name": "flags",
          "type": "bytes32",
          "indexed": false,
          "internalType": "bytes32"
        },
        {
          "name": "data",
          "type": "bytes32[]",
          "indexed": false,
          "internalType": "bytes32[]"
        }
      ],
      "anonymous": false
    },
    {
      "type": "event",
      "name": "ProtocolFeeTransferred",
      "inputs": [
        {
          "name": "token",
          "type": "address",
          "indexed": true,
          "internalType": "address"
        },
        {
          "name": "treasury",
          "type": "address",
          "indexed": true,
          "internalType": "address"
        },
        {
          "name": "feeAmount",
          "type": "uint256",
          "indexed": false,
          "internalType": "uint256"
        }
      ],
      "anonymous": false
    },
    {
      "type": "event",
      "name": "RecurringPaymentAdded",
      "inputs": [
        {
          "name": "recurringPaymentId",
          "type": "uint256",
          "indexed": true,
          "internalType": "uint256"
        },
        {
          "name": "amount",
          "type": "uint256",
          "indexed": false,
          "internalType": "uint256"
        },
        {
          "name": "startEpoch",
          "type": "uint256",
          "indexed": false,
          "internalType": "uint256"
        },
        {
          "name": "lastTriggeredEpoch",
          "type": "uint256",
          "indexed": false,
          "internalType": "uint256"
        },
        {
          "name": "recipient",
          "type": "address",
          "indexed": false,
          "internalType": "address"
        }
      ],
      "anonymous": false
    },
    {
      "type": "event",
      "name": "RecurringPaymentRemoved",
      "inputs": [
        {
          "name": "recurringPaymentId",
          "type": "uint256",
          "indexed": true,
          "internalType": "uint256"
        }
      ],
      "anonymous": false
    },
    {
      "type": "event",
      "name": "RecurringPaymentsTriggered",
      "inputs": [
        {
          "name": "currentEpoch",
          "type": "uint256",
          "indexed": true,
          "internalType": "uint256"
        }
      ],
      "anonymous": false
    },
    {
      "type": "error",
      "name": "AddressEmptyCode",
      "inputs": [
        {
          "name": "target",
          "type": "address",
          "internalType": "address"
        }
      ]
    },
    {
      "type": "error",
      "name": "AddressInsufficientBalance",
      "inputs": [
        {
          "name": "account",
          "type": "address",
          "internalType": "address"
        }
      ]
    },
    {
      "type": "error",
      "name": "FailedInnerCall",
      "inputs": []
    },
    {
      "type": "error",
      "name": "InvalidInitialization",
      "inputs": []
    },
    {
      "type": "error",
      "name": "Library__LinkedIdList__IdNotConsecutive",
      "inputs": []
    },
    {
      "type": "error",
      "name": "Library__LinkedIdList__InvalidId",
      "inputs": []
    },
    {
      "type": "error",
      "name": "Library__LinkedIdList__InvalidNewId",
      "inputs": []
    },
    {
      "type": "error",
      "name": "Library__LinkedIdList__InvalidPosition",
      "inputs": []
    },
    {
      "type": "error",
      "name": "Module_OrchestratorCallbackFailed",
      "inputs": [
        {
          "name": "funcSig",
          "type": "string",
          "internalType": "string"
        }
      ]
    },
    {
      "type": "error",
      "name": "Module__CallerNotAuthorized",
      "inputs": [
        {
          "name": "role",
          "type": "bytes32",
          "internalType": "bytes32"
        },
        {
          "name": "caller",
          "type": "address",
          "internalType": "address"
        }
      ]
    },
    {
      "type": "error",
      "name": "Module__ERC20PaymentClientBase__CallerNotAuthorized",
      "inputs": []
    },
    {
      "type": "error",
      "name": "Module__ERC20PaymentClientBase__InsufficientFunds",
      "inputs": [
        {
          "name": "token",
          "type": "address",
          "internalType": "address"
        }
      ]
    },
    {
      "type": "error",
      "name": "Module__ERC20PaymentClientBase__InvalidAmount",
      "inputs": []
    },
    {
      "type": "error",
      "name": "Module__ERC20PaymentClientBase__InvalidPaymentOrder",
      "inputs": []
    },
    {
      "type": "error",
      "name": "Module__ERC20PaymentClientBase__InvalidRecipient",
      "inputs": []
    },
    {
      "type": "error",
      "name": "Module__ERC20PaymentClientBase__InvalidToken",
      "inputs": []
    },
    {
      "type": "error",
      "name": "Module__ERC20PaymentClientBase__MismatchBetweenFlagCountAndArrayLength",
      "inputs": [
        {
          "name": "flagCount",
          "type": "uint8",
          "internalType": "uint8"
        },
        {
          "name": "arrayLength",
          "type": "uint256",
          "internalType": "uint256"
        }
      ]
    },
    {
      "type": "error",
      "name": "Module__ERC20PaymentClientBase__TokenTransferFailed",
      "inputs": []
    },
    {
      "type": "error",
      "name": "Module__ERC20PaymentClientBase_v2__FlagAmountTooHigh",
      "inputs": []
    },
    {
      "type": "error",
      "name": "Module__InvalidAddress",
      "inputs": []
    },
    {
      "type": "error",
      "name": "Module__InvalidMetadata",
      "inputs": []
    },
    {
      "type": "error",
      "name": "Module__InvalidOrchestratorAddress",
      "inputs": []
    },
    {
      "type": "error",
      "name": "Module__LM_PC_RecurringPayments__InvalidEpochLength",
      "inputs": []
    },
    {
      "type": "error",
      "name": "Module__LM_PC_RecurringPayments__InvalidRecurringPaymentId",
      "inputs": []
    },
    {
      "type": "error",
      "name": "Module__LM_PC_RecurringPayments__InvalidStartEpoch",
      "inputs": []
    },
    {
      "type": "error",
      "name": "Module__LM_PC_RecurringPayments__StartIdNotBeforeEndId",
      "inputs": []
    },
    {
      "type": "error",
      "name": "Module__OnlyCallableByOrchestrator",
      "inputs": []
    },
    {
      "type": "error",
      "name": "Module__OnlyCallableByPaymentClient",
      "inputs": []
    },
    {
      "type": "error",
      "name": "NotInitializing",
      "inputs": []
    },
    {
      "type": "error",
      "name": "SafeERC20FailedOperation",
      "inputs": [
        {
          "name": "token",
          "type": "address",
          "internalType": "address"
        }
      ]
    }
  ],
  "bytecode": {
    "object": "0x60a060405234801562000010575f80fd5b505f6080526200001f62000025565b620000d9565b7ff0c57e16840df040f15088dc2f81fe391c3923bec73e23a9662efc9c229c6a00805468010000000000000000900460ff1615620000765760405163f92ee8a960e01b815260040160405180910390fd5b80546001600160401b0390811614620000d65780546001600160401b0319166001600160401b0390811782556040519081527fc7f505b2f371ae2175ee4913f4499e1f2633a7b5936321eed1cdaeb6115181d29060200160405180910390a15b50565b608051613c5f620000ef5f395f5050613c5f5ff3fe608060405234801561000f575f80fd5b50600436106101dc575f3560e01c806375fa0b7611610109578063b97dd9e21161009e578063c7829b6f1161006e578063c7829b6f14610445578063c83e636214610458578063c9582f201461046b578063cfe8a73b14610480575f80fd5b8063b97dd9e2146103c4578063bcb61920146103cc578063c0231ff6146103df578063c42542e3146103f6575f80fd5b80638008dd8e116100d95780638008dd8e1461037b578063b33ec6181461038e578063b66a870c146103a1578063b74795d9146103b4575f80fd5b806375fa0b76146103365780637998a1c41461034b5780637da0a877146103535780637fec8d3814610373575f80fd5b8063502874781161017f57806362fe48fd1161014f57806362fe48fd146102f5578063648bc2cd146103085780636c67e8071461031b5780636cc7149d1461032e575f80fd5b806350287478146102a357806354fd4d50146102b65780635600f04f146102da578063572b6c05146102e2575f80fd5b8063272bbd44116101ba578063272bbd4414610232578063274b903a146102455780632e84db5f146102665780634a79d50c1461028e575f80fd5b806301ffc9a7146101e05780631bf3bfe81461020857806324e302701461021d575b5f80fd5b6101f36101ee36600461331b565b610488565b60405190151581526020015b60405180910390f35b6102106104b2565b6040516101ff919061337c565b61023061022b36600461338e565b6104c3565b005b61023061024036600461338e565b610763565b610258610253366004613406565b610932565b6040519081526020016101ff565b610258610274366004613431565b6001600160a01b03165f9081526039602052604090205490565b610296610946565b6040516101ff9190613499565b6102586102b1366004613406565b6109d9565b600154600254600354604080519384526020840192909252908201526060016101ff565b6102966109e5565b6101f36102f0366004613431565b6109f7565b6101f3610303366004613406565b610a63565b6102306103163660046134ab565b610a6f565b6102306103293660046134cb565b610afc565b603b54610258565b61033e610d02565b6040516101ff91906135b6565b610258610df5565b61035b610f48565b6040516001600160a01b0390911681526020016101ff565b610230610fbc565b6102586103893660046135c8565b610fd4565b61023061039c3660046135fe565b611194565b6102306103af3660046136ee565b6111f1565b5f546001600160a01b031661035b565b6102586113d7565b6102306103da3660046134cb565b6113e6565b6103e76115bd565b6040516101ff939291906137cc565b610409610404366004613406565b611ab9565b6040516101ff91908151815260208083015190820152604080830151908201526060918201516001600160a01b03169181019190915260800190565b6102306104533660046134ab565b611b62565b610258610466366004613406565b611c1f565b603a5460405160ff90911681526020016101ff565b606d54610258565b5f6001600160e01b0319821663280d451b60e01b14806104ac57506104ac82611c2e565b92915050565b60606104be606f611c52565b905090565b5f80546040805163d09edf3160e01b815290518693926001600160a01b03169163d09edf319160048083019260209291908290030181865afa15801561050b573d5f803e3d5ffd5b505050506040513d601f19601f8201168201806040525081019061052f919061383d565b60405163fdd5205f60e01b8152306004820152602481018490526001600160a01b03919091169063fdd5205f90604401602060405180830381865afa15801561057a573d5f803e3d5ffd5b505050506040513d601f19601f8201168201806040525081019061059e9190613858565b905061068e5f8054906101000a90046001600160a01b03166001600160a01b031663d09edf316040518163ffffffff1660e01b8152600401602060405180830381865afa1580156105f1573d5f803e3d5ffd5b505050506040513d601f19601f82011682018060405250810190610615919061383d565b6001600160a01b031663248a9ca3836040518263ffffffff1660e01b815260040161064291815260200190565b602060405180830381865afa15801561065d573d5f803e3d5ffd5b505050506040513d601f19601f820116820180604052508101906106819190613858565b610689611d06565b611d56565b5f8054906101000a90046001600160a01b03166001600160a01b031663d09edf316040518163ffffffff1660e01b8152600401602060405180830381865afa1580156106dc573d5f803e3d5ffd5b505050506040513d601f19601f82011682018060405250810190610700919061383d565b6001600160a01b0316637d540a648686866040518463ffffffff1660e01b815260040161072f9392919061386f565b5f604051808303815f87803b158015610746575f80fd5b505af1158015610758573d5f803e3d5ffd5b505050505050505050565b5f80546040805163d09edf3160e01b815290518693926001600160a01b03169163d09edf319160048083019260209291908290030181865afa1580156107ab573d5f803e3d5ffd5b505050506040513d601f19601f820116820180604052508101906107cf919061383d565b60405163fdd5205f60e01b8152306004820152602481018490526001600160a01b03919091169063fdd5205f90604401602060405180830381865afa15801561081a573d5f803e3d5ffd5b505050506040513d601f19601f8201168201806040525081019061083e9190613858565b90506108915f8054906101000a90046001600160a01b03166001600160a01b031663d09edf316040518163ffffffff1660e01b8152600401602060405180830381865afa1580156105f1573d5f803e3d5ffd5b5f8054906101000a90046001600160a01b03166001600160a01b031663d09edf316040518163ffffffff1660e01b8152600401602060405180830381865afa1580156108df573d5f803e3d5ffd5b505050506040513d601f19601f82011682018060405250810190610903919061383d565b6001600160a01b031663648154538686866040518463ffffffff1660e01b815260040161072f9392919061386f565b5f8161093c6113d7565b6104ac91906138da565b606060016004018054610958906138ed565b80601f0160208091040260200160405190810160405280929190818152602001828054610984906138ed565b80156109cf5780601f106109a6576101008083540402835291602001916109cf565b820191905f5260205f20905b8154815290600101906020018083116109b257829003601f168201915b5050505050905090565b5f6104ac606f83611e71565b606060016003018054610958906138ed565b5f805460405163572b6c0560e01b81526001600160a01b0384811660048301529091169063572b6c0590602401602060405180830381865afa158015610a3f573d5f803e3d5ffd5b505050506040513d601f19601f820116820180604052508101906104ac919061391f565b5f6104ac606f83611f42565b81610a7981610a63565b610a96576040516366f62b2360e01b815260040160405180910390fd5b81610aa081610a63565b610abd576040516366f62b2360e01b815260040160405180910390fd5b838380821115610ae05760405163b02d7cbb60e01b815260040160405180910390fd5b610af486610aef606f88611f68565b611fb3565b505050505050565b5f80546040805163d09edf3160e01b815290518593926001600160a01b03169163d09edf319160048083019260209291908290030181865afa158015610b44573d5f803e3d5ffd5b505050506040513d601f19601f82011682018060405250810190610b68919061383d565b60405163fdd5205f60e01b8152306004820152602481018490526001600160a01b03919091169063fdd5205f90604401602060405180830381865afa158015610bb3573d5f803e3d5ffd5b505050506040513d601f19601f82011682018060405250810190610bd79190613858565b9050610c2a5f8054906101000a90046001600160a01b03166001600160a01b031663d09edf316040518163ffffffff1660e01b8152600401602060405180830381865afa1580156105f1573d5f803e3d5ffd5b5f8054906101000a90046001600160a01b03166001600160a01b031663d09edf316040518163ffffffff1660e01b8152600401602060405180830381865afa158015610c78573d5f803e3d5ffd5b505050506040513d601f19601f82011682018060405250810190610c9c919061383d565b60405163385e205560e21b8152600481018690526001600160a01b038581166024830152919091169063e1788154906044015b5f604051808303815f87803b158015610ce6575f80fd5b505af1158015610cf8573d5f803e3d5ffd5b5050505050505050565b60606038805480602002602001604051908101604052809291908181526020015f905b82821015610dec575f8481526020908190206040805160e0810182526007860290920180546001600160a01b039081168452600182015416838501526002810154838301526003810154606084015260048101546080840152600581015460a08401526006810180548351818702810187019094528084529394919360c086019392830182828015610dd457602002820191905f5260205f20905b815481526020019060010190808311610dc0575b50505050508152505081526020019060010190610d25565b50505050905090565b5f6104be60016040518060a00160405290815f82015481526020016001820154815260200160028201548152602001600382018054610e33906138ed565b80601f0160208091040260200160405190810160405280929190818152602001828054610e5f906138ed565b8015610eaa5780601f10610e8157610100808354040283529160200191610eaa565b820191905f5260205f20905b815481529060010190602001808311610e8d57829003601f168201915b50505050508152602001600482018054610ec3906138ed565b80601f0160208091040260200160405190810160405280929190818152602001828054610eef906138ed565b8015610f3a5780601f10610f1157610100808354040283529160200191610f3a565b820191905f5260205f20905b815481529060010190602001808311610f1d57829003601f168201915b5050505050815250506124a3565b5f805f9054906101000a90046001600160a01b03166001600160a01b0316637da0a8776040518163ffffffff1660e01b8152600401602060405180830381865afa158015610f98573d5f803e3d5ffd5b505050506040513d601f19601f820116820180604052508101906104be919061383d565b610fd2610fcb606f5f19611f68565b5f19611fb3565b565b5f80546040805163d09edf3160e01b8152905161107c926001600160a01b03169163d09edf319160048083019260209291908290030181865afa15801561101d573d5f803e3d5ffd5b505050506040513d601f19601f82011682018060405250810190611041919061383d565b6001600160a01b031663b3ecf2366040518163ffffffff1660e01b8152600401602060405180830381865afa15801561065d573d5f803e3d5ffd5b83611086816124e1565b83806110906113d7565b11156110af576040516305ca0da960e51b815260040160405180910390fd5b836110b981612504565b5f606c5f81546110c89061393e565b918290555090506110da606f82612540565b5f818152606e6020526040902088815560019081018890556110fc9088613956565b5f828152606e60205260409020600281019190915560030180546001600160a01b0319166001600160a01b038816179055807f1c3e2cbb4bc61dfafd6e9635e41a29611c202472f2c4252180bc2aacfb5dcb2c898961115c600182613956565b604080519384526020840192909252908201526001600160a01b038916606082015260800160405180910390a2979650505050505050565b6111a461119f611d06565b6125b2565b6111c15760405163e4597a6b60e01b815260040160405180910390fd5b6001600160a01b0382165f90815260396020526040812080548392906111e8908490613956565b90915550505050565b7ff0c57e16840df040f15088dc2f81fe391c3923bec73e23a9662efc9c229c6a00805468010000000000000000810460ff16159067ffffffffffffffff165f8115801561123b5750825b90505f8267ffffffffffffffff1660011480156112575750303b155b905081158015611265575080155b156112835760405163f92ee8a960e01b815260040160405180910390fd5b845467ffffffffffffffff1916600117855583156112b757845468ff00000000000000001916680100000000000000001785555b6112c1888861262f565b5f195f81905260716020527ff90777734c9d13fbd30ce10cb50cd828a0954349edaa8c7e83253326e1ca7a8c8190556070555f868060200190518101906113089190613858565b606d819055905062093a8081108061132557506301dfe200606d54115b1561134357604051637d65a31360e01b815260040160405180910390fd5b6040518181527f5f15d41eab42cb3f8a5c9e8cd44043648cb85a815522c5f4ae5a32597a8447a09060200160405180910390a1600a61138181612728565b50508315610cf857845468ff000000000000000019168555604051600181527fc7f505b2f371ae2175ee4913f4499e1f2633a7b5936321eed1cdaeb6115181d29060200160405180910390a15050505050505050565b5f606d54426104be9190613969565b5f80546040805163d09edf3160e01b815290518593926001600160a01b03169163d09edf319160048083019260209291908290030181865afa15801561142e573d5f803e3d5ffd5b505050506040513d601f19601f82011682018060405250810190611452919061383d565b60405163fdd5205f60e01b8152306004820152602481018490526001600160a01b03919091169063fdd5205f90604401602060405180830381865afa15801561149d573d5f803e3d5ffd5b505050506040513d601f19601f820116820180604052508101906114c19190613858565b90506115145f8054906101000a90046001600160a01b03166001600160a01b031663d09edf316040518163ffffffff1660e01b8152600401602060405180830381865afa1580156105f1573d5f803e3d5ffd5b5f8054906101000a90046001600160a01b03166001600160a01b031663d09edf316040518163ffffffff1660e01b8152600401602060405180830381865afa158015611562573d5f803e3d5ffd5b505050506040513d601f19601f82011682018060405250810190611586919061383d565b604051632e99be7f60e21b8152600481018690526001600160a01b038581166024830152919091169063ba66f9fc90604401610ccf565b60608060606115cd61119f611d06565b6115ea5760405163e4597a6b60e01b815260040160405180910390fd5b6038545f808267ffffffffffffffff81111561160857611608613628565b604051908082528060200260200182016040528015611631578160200160208202803683370190505b5090505f8367ffffffffffffffff81111561164e5761164e613628565b604051908082528060200260200182016040528015611677578160200160208202803683370190505b5090508367ffffffffffffffff81111561169357611693613628565b60405190808252806020026020018201604052801561171357816020015b6117006040518060e001604052805f6001600160a01b031681526020015f6001600160a01b031681526020015f81526020015f81526020015f81526020015f8019168152602001606081525090565b8152602001906001900390816116b15790505b5096505f5b84811015611937576038818154811061173357611733613988565b5f9182526020918290206040805160e081018252600790930290910180546001600160a01b039081168452600182015416838501526002810154838301526003810154606084015260048101546080840152600581015460a08401526006810180548351818702810187019094528084529394919360c0860193928301828280156117db57602002820191905f5260205f20905b8154815260200190600101908083116117c7575b5050505050815250508882815181106117f6576117f6613988565b60200260200101819052505f805b8581101561186c5789838151811061181e5761181e613988565b6020026020010151602001516001600160a01b031685828151811061184557611845613988565b60200260200101516001600160a01b031603611864576001915061186c565b600101611804565b508061192e5788828151811061188457611884613988565b6020026020010151602001518486815181106118a2576118a2613988565b60200260200101906001600160a01b031690816001600160a01b03168152505060395f8a84815181106118d7576118d7613988565b6020026020010151602001516001600160a01b03166001600160a01b031681526020019081526020015f205483868151811061191557611915613988565b60209081029190910101528461192a8161393e565b9550505b50600101611718565b5061194360385f61322f565b8267ffffffffffffffff81111561195c5761195c613628565b604051908082528060200260200182016040528015611985578160200160208202803683370190505b5095508267ffffffffffffffff8111156119a1576119a1613628565b6040519080825280602002602001820160405280156119ca578160200160208202803683370190505b5094505f5b83811015611aaf578281815181106119e9576119e9613988565b6020026020010151878281518110611a0357611a03613988565b60200260200101906001600160a01b031690816001600160a01b031681525050818181518110611a3557611a35613988565b6020026020010151868281518110611a4f57611a4f613988565b602002602001018181525050611a85611a66611d06565b888381518110611a7857611a78613988565b6020026020010151612739565b611aa7878281518110611a9a57611a9a613988565b602002602001015161275d565b6001016119cf565b5050505050909192565b611ae960405180608001604052805f81526020015f81526020015f81526020015f6001600160a01b031681525090565b81611af381610a63565b611b10576040516366f62b2360e01b815260040160405180910390fd5b5f838152606e60209081526040918290208251608081018452815481526001820154928101929092526002810154928201929092526003909101546001600160a01b0316606082015291505b50919050565b5f546040805163d09edf3160e01b81529051611baa926001600160a01b03169163d09edf319160048083019260209291908290030181865afa15801561101d573d5f803e3d5ffd5b611bb981610aef606f82611f68565b611bc5606f83836129d8565b5f818152606e6020526040808220828155600181018390556002810183905560030180546001600160a01b03191690555182917f49dd16c810a73510f0cdd59f21ce525b27c468a7f759207177bc9a1e4820266691a25050565b5f606d54826104ac9190613969565b5f6001600160e01b031982166346fe193d60e11b14806104ac57506104ac82612a85565b60605f825f015467ffffffffffffffff811115611c7157611c71613628565b604051908082528060200260200182016040528015611c9a578160200160208202803683370190505b505f195f908152600285016020526040812054919250905b5f198114611cfd5780838381518110611ccd57611ccd613988565b6020908102919091018101919091525f918252600286019052604090205481611cf58161393e565b925050611cb2565b50909392505050565b5f366014611d13336109f7565b8015611d1f5750808210155b15611d4e575f36611d308385613956565b611d3b92829061399c565b611d44916139c3565b60601c9250505090565b339250505090565b5f8054906101000a90046001600160a01b03166001600160a01b031663d09edf316040518163ffffffff1660e01b8152600401602060405180830381865afa158015611da4573d5f803e3d5ffd5b505050506040513d601f19601f82011682018060405250810190611dc8919061383d565b60405163a883867d60e01b8152600481018490526001600160a01b038381166024830152919091169063a883867d90604401602060405180830381865afa158015611e15573d5f803e3d5ffd5b505050506040513d601f19601f82011682018060405250810190611e39919061391f565b611e6d576040516342abbb7760e01b8152600481018390526001600160a01b03821660248201526044015b60405180910390fd5b5050565b5f818152600283016020526040812054839083908303611ea457604051637bfea7d960e11b815260040160405180910390fd5b5f198403611eb85784600101549250611f3a565b5f611ec286611c52565b80519091505f5b81811015611f365786838281518110611ee457611ee4613988565b602002602001015103611f2e57805f03611eff575f19611f24565b82611f0b600183613956565b81518110611f1b57611f1b613988565b60200260200101515b9550505050611f3a565b600101611ec9565b5050505b505092915050565b5f81815260028301602052604081205415801590611f6157505f198214155b9392505050565b5f818152600283016020526040812054839083908303611f9b57604051637bfea7d960e11b815260040160405180910390fd5b5050505f908152600291909101602052604090205490565b815f611fbd6113d7565b9050611fef60405180608001604052805f81526020015f81526020015f81526020015f6001600160a01b031681525090565b5f5b8484146123a9575f848152606e60209081526040918290208251608081018452815481526001820154928101839052600282015493810193909352600301546001600160a01b0316606083015290925083106123945760408201516120569084613956565b905080156123945760408051600280825260608281019093525f92918391816020016020820280368337019050509050425f1b815f8151811061209b5761209b613988565b6020908102919091010152606d546120b48760016138da565b6120be91906139f6565b5f1b816001815181106120d3576120d3613988565b6020026020010181815250506120e881612ab9565b8093508194505050506122126040518060e0016040528086606001516001600160a01b031681526020016121235f546001600160a01b031690565b6001600160a01b03166304baed9e6040518163ffffffff1660e01b8152600401602060405180830381865afa15801561215e573d5f803e3d5ffd5b505050506040513d601f19601f82011682018060405250810190612182919061383d565b6001600160a01b031663fc0c546a6040518163ffffffff1660e01b8152600401602060405180830381865afa1580156121bd573d5f803e3d5ffd5b505050506040513d601f19601f820116820180604052508101906121e1919061383d565b6001600160a01b0316815286516020820152466040820181905260608201526080810185905260a001839052612afc565b600183111561237e57606d5461222890866139f6565b5f1b8160018151811061223d5761223d613988565b60200260200101818152505061237e6040518060e0016040528086606001516001600160a01b0316815260200161227b5f546001600160a01b031690565b6001600160a01b03166304baed9e6040518163ffffffff1660e01b8152600401602060405180830381865afa1580156122b6573d5f803e3d5ffd5b505050506040513d601f19601f820116820180604052508101906122da919061383d565b6001600160a01b031663fc0c546a6040518163ffffffff1660e01b8152600401602060405180830381865afa158015612315573d5f803e3d5ffd5b505050506040513d601f19601f82011682018060405250810190612339919061383d565b6001600160a01b03168152602001612352600187613956565b875161235e91906139f6565b815260200146815260200146815260200184815260200183815250612afc565b50505f848152606e602052604090206002018390555b5f938452607160205260409093205492611ff1565b60405183907f80e11167e6b80b8377b5697de9ae975af33e62fd6418deb3ab3f29f2afad7efc905f90a25f8054906101000a90046001600160a01b03166001600160a01b031663f1c6bdf86040518163ffffffff1660e01b8152600401602060405180830381865afa158015612421573d5f803e3d5ffd5b505050506040513d601f19601f82011682018060405250810190612445919061383d565b60405163e151fc6160e01b81523060048201526001600160a01b03919091169063e151fc61906024015f604051808303815f87803b158015612485575f80fd5b505af1158015612497573d5f803e3d5ffd5b50505050505050505050565b5f815f0151826060015183608001516040516020016124c493929190613a0d565b604051602081830303815290604052805190602001209050919050565b805f03612501576040516351cd1a8760e11b815260040160405180910390fd5b50565b6001600160a01b038116158061252257506001600160a01b03811630145b1561250157604051630cef278760e01b815260040160405180910390fd5b818161254c8282611f42565b80612555575080155b156125735760405163582fbbaf60e01b815260040160405180910390fd5b6001840180545f90815260028601602052604080822086905585825281205f1990559084905584549085906125a78361393e565b919050555050505050565b5f805460408051631e38d7bf60e31b815290516001600160a01b0380861693169163f1c6bdf89160048083019260209291908290030181865afa1580156125fb573d5f803e3d5ffd5b505050506040513d601f19601f8201168201806040525081019061261f919061383d565b6001600160a01b03161492915050565b612637612d23565b6001600160a01b03821661265e57604051637280679360e01b815260040160405180910390fd5b5f80546001600160a01b0319166001600160a01b03841617905561268181612d71565b61269e57604051637511254160e01b815260040160405180910390fd5b805160019081556020820151600255604082015160035560608201518291906004906126ca9082613a82565b50608082015160048201906126df9082613a82565b50905050816001600160a01b03167fd5f3f84c2e1816ce290af84d002663800b02f2985d770cdd335de76fd723b7308260405161271c9190613b3e565b60405180910390a25050565b612730612d23565b61250181612dcb565b6001600160a01b0381165f81815260396020526040902054611e6d91908490612e56565b6001600160a01b0381165f818152603960205260408082205490516370a0823160e01b81523060048201529092906370a0823190602401602060405180830381865afa1580156127af573d5f803e3d5ffd5b505050506040513d601f19601f820116820180604052508101906127d39190613858565b9050818110156129d3575f8054906101000a90046001600160a01b03166001600160a01b03166304baed9e6040518163ffffffff1660e01b8152600401602060405180830381865afa15801561282b573d5f803e3d5ffd5b505050506040513d601f19601f8201168201806040525081019061284f919061383d565b6001600160a01b031663fc0c546a6040518163ffffffff1660e01b8152600401602060405180830381865afa15801561288a573d5f803e3d5ffd5b505050506040513d601f19601f820116820180604052508101906128ae919061383d565b6001600160a01b0316836001600160a01b0316036129af575f8054906101000a90046001600160a01b03166001600160a01b03166304baed9e6040518163ffffffff1660e01b8152600401602060405180830381865afa158015612914573d5f803e3d5ffd5b505050506040513d601f19601f82011682018060405250810190612938919061383d565b6001600160a01b031663759cc4b5306129518486613956565b6040516001600160e01b031960e085901b1681526001600160a01b03909216600483015260248201526044015f604051808303815f87803b158015612994575f80fd5b505af11580156129a6573d5f803e3d5ffd5b50505050505050565b6040516346511acb60e11b81526001600160a01b0384166004820152602401611e64565b505050565b82816129e48282611f42565b612a0157604051638f454d2d60e01b815260040160405180910390fd5b5f8481526002860160205260409020548590859085908114612a3657604051633065847560e01b815260040160405180910390fd5b5f86815260028901602052604080822080548a8452918320919091558782528190558854908990612a6683613b94565b919050555087600101548603610cf85750505050506001929092015550565b5f6001600160e01b0319821663e328951160e01b14806104ac57506301ffc9a760e01b6001600160e01b03198316146104ac565b8051603a545f9160609160ff1614612af457603a548351604051630bf3089f60e11b815260ff90921660048301526024820152604401611e64565b5050603b5491565b80612b0681612f39565b816040015160395f84602001516001600160a01b03166001600160a01b031681526020019081526020015f205f828254612b4091906138da565b9091555050603880546001810182555f9190915282517f38395c5dceade9603479b177b68959049485df8aa97b39f3533039af5f456199600790920291820180546001600160a01b03199081166001600160a01b039384161782556020808701517f38395c5dceade9603479b177b68959049485df8aa97b39f3533039af5f45619a86018054909316941693909317905560408501517f38395c5dceade9603479b177b68959049485df8aa97b39f3533039af5f45619b84015560608501517f38395c5dceade9603479b177b68959049485df8aa97b39f3533039af5f45619c84015560808501517f38395c5dceade9603479b177b68959049485df8aa97b39f3533039af5f45619d84015560a08501517f38395c5dceade9603479b177b68959049485df8aa97b39f3533039af5f45619e84015560c0850151805186949293612cae937f38395c5dceade9603479b177b68959049485df8aa97b39f3533039af5f45619f0192019061324d565b50505081602001516001600160a01b0316825f01516001600160a01b03167ff7c0c50e520bf64576a9482cc54780006390b90cee6a1c0bde1adaeb9c0f02f68460400151856060015186608001518760a001518860c00151604051612d17959493929190613ba9565b60405180910390a35050565b7ff0c57e16840df040f15088dc2f81fe391c3923bec73e23a9662efc9c229c6a005468010000000000000000900460ff16610fd257604051631afcd79f60e31b815260040160405180910390fd5b5f8160600151515f03612d8557505f919050565b8160800151515f03612d9857505f919050565b8151158015612da957506020820151155b8015612db757506040820151155b15612dc357505f919050565b506001919050565b5f805b60ff8111612e01576001811b831615612def5781612deb81613bde565b9250505b80612df98161393e565b915050612dce565b50603b829055603a805460ff191660ff831690811790915560408051918252602082018490527f7b463eebcf86a9ecb1c64d88acc3609fe74aaccb569d01b4bb01875b737eda18910160405180910390a15050565b604080516001600160a01b038416602482015260448082018490528251808303909101815260649091019091526020810180517bffffffffffffffffffffffffffffffffffffffffffffffffffffffff1663095ea7b360e01b179052612ebc848261302b565b612f3357604080516001600160a01b03851660248201525f6044808301919091528251808303909101815260649091019091526020810180517bffffffffffffffffffffffffffffffffffffffffffffffffffffffff1663095ea7b360e01b179052612f299085906130cc565b612f3384826130cc565b50505050565b5f546001600160a01b03166001600160a01b031663f1c6bdf86040518163ffffffff1660e01b8152600401602060405180830381865afa158015612f7f573d5f803e3d5ffd5b505050506040513d601f19601f82011682018060405250810190612fa3919061383d565b6001600160a01b031663f7698285826040518263ffffffff1660e01b8152600401612fce9190613bfc565b6020604051808303815f875af1158015612fea573d5f803e3d5ffd5b505050506040513d601f19601f8201168201806040525081019061300e919061391f565b6125015760405163349a262760e01b815260040160405180910390fd5b5f805f846001600160a01b0316846040516130469190613c0e565b5f604051808303815f865af19150503d805f811461307f576040519150601f19603f3d011682016040523d82523d5f602084013e613084565b606091505b50915091508180156130ae5750805115806130ae5750808060200190518101906130ae919061391f565b80156130c357505f856001600160a01b03163b115b95945050505050565b5f6130e06001600160a01b0384168361312d565b905080515f14158015613104575080806020019051810190613102919061391f565b155b156129d357604051635274afe760e01b81526001600160a01b0384166004820152602401611e64565b6060611f6183835f845f80856001600160a01b031684866040516131519190613c0e565b5f6040518083038185875af1925050503d805f811461318b576040519150601f19603f3d011682016040523d82523d5f602084013e613190565b606091505b50915091506131a08683836131aa565b9695505050505050565b6060826131bf576131ba82613206565b611f61565b81511580156131d657506001600160a01b0384163b155b156131ff57604051639996b31560e01b81526001600160a01b0385166004820152602401611e64565b5080611f61565b8051156132165780518082602001fd5b604051630a12f52160e11b815260040160405180910390fd5b5080545f8255600702905f5260205f20908101906125019190613296565b828054828255905f5260205f20908101928215613286579160200282015b8281111561328657825182559160200191906001019061326b565b506132929291506132ec565b5090565b808211156132925780546001600160a01b0319908116825560018201805490911690555f600282018190556003820181905560048201819055600582018190556132e36006830182613300565b50600701613296565b5b80821115613292575f81556001016132ed565b5080545f8255905f5260205f209081019061250191906132ec565b5f6020828403121561332b575f80fd5b81356001600160e01b031981168114611f61575f80fd5b5f815180845260208085019450602084015f5b8381101561337157815187529582019590820190600101613355565b509495945050505050565b602081525f611f616020830184613342565b5f805f604084860312156133a0575f80fd5b83359250602084013567ffffffffffffffff808211156133be575f80fd5b818601915086601f8301126133d1575f80fd5b8135818111156133df575f80fd5b8760208260051b85010111156133f3575f80fd5b6020830194508093505050509250925092565b5f60208284031215613416575f80fd5b5035919050565b6001600160a01b0381168114612501575f80fd5b5f60208284031215613441575f80fd5b8135611f618161341d565b5f5b8381101561346657818101518382015260200161344e565b50505f910152565b5f815180845261348581602086016020860161344c565b601f01601f19169290920160200192915050565b602081525f611f61602083018461346e565b5f80604083850312156134bc575f80fd5b50508035926020909101359150565b5f80604083850312156134dc575f80fd5b8235915060208301356134ee8161341d565b809150509250929050565b5f6001600160a01b038083511684528060208401511660208501525060408201516040840152606082015160608401526080820151608084015260a082015160a084015260c082015160e060c085015261355660e0850182613342565b949350505050565b5f8282518085526020808601955060208260051b840101602086015f5b848110156135a957601f198684030189526135978383516134f9565b9884019892509083019060010161357b565b5090979650505050505050565b602081525f611f61602083018461355e565b5f805f606084860312156135da575f80fd5b833592506020840135915060408401356135f38161341d565b809150509250925092565b5f806040838503121561360f575f80fd5b823561361a8161341d565b946020939093013593505050565b634e487b7160e01b5f52604160045260245ffd5b60405160a0810167ffffffffffffffff8111828210171561365f5761365f613628565b60405290565b5f82601f830112613674575f80fd5b813567ffffffffffffffff8082111561368f5761368f613628565b604051601f8301601f19908116603f011681019082821181831017156136b7576136b7613628565b816040528381528660208588010111156136cf575f80fd5b836020870160208301375f602085830101528094505050505092915050565b5f805f60608486031215613700575f80fd5b833561370b8161341d565b9250602084013567ffffffffffffffff80821115613727575f80fd5b9085019060a0828803121561373a575f80fd5b61374261363c565b82358152602083013560208201526040830135604082015260608301358281111561376b575f80fd5b61377789828601613665565b60608301525060808301358281111561378e575f80fd5b61379a89828601613665565b608083015250935060408601359150808211156137b5575f80fd5b506137c286828701613665565b9150509250925092565b606081525f6137de606083018661355e565b8281036020848101919091528551808352868201928201905f5b8181101561381d5784516001600160a01b0316835293830193918301916001016137f8565b505084810360408601526138318187613342565b98975050505050505050565b5f6020828403121561384d575f80fd5b8151611f618161341d565b5f60208284031215613868575f80fd5b5051919050565b838152604060208083018290529082018390525f90849060608401835b868110156138ba57833561389f8161341d565b6001600160a01b03168252928201929082019060010161388c565b50979650505050505050565b634e487b7160e01b5f52601160045260245ffd5b808201808211156104ac576104ac6138c6565b600181811c9082168061390157607f821691505b602082108103611b5c57634e487b7160e01b5f52602260045260245ffd5b5f6020828403121561392f575f80fd5b81518015158114611f61575f80fd5b5f6001820161394f5761394f6138c6565b5060010190565b818103818111156104ac576104ac6138c6565b5f8261398357634e487b7160e01b5f52601260045260245ffd5b500490565b634e487b7160e01b5f52603260045260245ffd5b5f80858511156139aa575f80fd5b838611156139b6575f80fd5b5050820193919092039150565b6bffffffffffffffffffffffff198135818116916014851015611f3a5760149490940360031b84901b1690921692915050565b80820281158282048414176104ac576104ac6138c6565b838152606060208201525f613a25606083018561346e565b82810360408401526131a0818561346e565b601f8211156129d357805f5260205f20601f840160051c81016020851015613a5c5750805b601f840160051c820191505b81811015613a7b575f8155600101613a68565b5050505050565b815167ffffffffffffffff811115613a9c57613a9c613628565b613ab081613aaa84546138ed565b84613a37565b602080601f831160018114613ae3575f8415613acc5750858301515b5f19600386901b1c1916600185901b178555610af4565b5f85815260208120601f198616915b82811015613b1157888601518255948401946001909101908401613af2565b5085821015613b2e57878501515f19600388901b60f8161c191681555b5050505050600190811b01905550565b602081528151602082015260208201516040820152604082015160608201525f606083015160a06080840152613b7760c084018261346e565b90506080840151601f198483030160a08501526130c3828261346e565b5f81613ba257613ba26138c6565b505f190190565b85815284602082015283604082015282606082015260a060808201525f613bd360a0830184613342565b979650505050505050565b5f60ff821660ff8103613bf357613bf36138c6565b60010192915050565b602081525f611f6160208301846134f9565b5f8251613c1f81846020870161344c565b919091019291505056fea264697066735822122083f7db17bb3271f5f2244b16c4be2ae42f6b3699301dddd15a1b4e7cda78096564736f6c63430008170033",
    "linkReferences": {}
  },
  "methodIdentifiers": {
    "addRecurringPayment(uint256,uint256,address)": "8008dd8e",
    "amountPaid(address,uint256)": "b33ec618",
    "collectPaymentOrders()": "c0231ff6",
    "getCurrentEpoch()": "b97dd9e2",
    "getEpochFromTimestamp(uint256)": "c83e6362",
    "getEpochLength()": "cfe8a73b",
    "getFlagCount()": "c9582f20",
    "getFlags()": "6cc7149d",
    "getFutureEpoch(uint256)": "274b903a",
    "getPreviousPaymentId(uint256)": "50287478",
    "getRecurringPaymentInformation(uint256)": "c42542e3",
    "grantModuleRole(bytes32,address)": "6c67e807",
    "grantModuleRoleBatched(bytes32,address[])": "272bbd44",
    "identifier()": "7998a1c4",
    "init(address,(uint256,uint256,uint256,string,string),bytes)": "b66a870c",
    "isExistingRecurringPaymentId(uint256)": "62fe48fd",
    "isTrustedForwarder(address)": "572b6c05",
    "listRecurringPaymentIds()": "1bf3bfe8",
    "orchestrator()": "b74795d9",
    "outstandingTokenAmount(address)": "2e84db5f",
    "paymentOrders()": "75fa0b76",
    "removeRecurringPayment(uint256,uint256)": "c7829b6f",
    "revokeModuleRole(bytes32,address)": "bcb61920",
    "revokeModuleRoleBatched(bytes32,address[])": "24e30270",
    "supportsInterface(bytes4)": "01ffc9a7",
    "title()": "4a79d50c",
    "trigger()": "7fec8d38",
    "triggerFor(uint256,uint256)": "648bc2cd",
    "trustedForwarder()": "7da0a877",
    "url()": "5600f04f",
    "version()": "54fd4d50"
  },
  "id": 157
}