{
    "abi": [
        {
            "type": "function",
            "name": "allowance",
            "inputs": [
                {
                    "name": "owner",
                    "type": "address",
                    "internalType": "address"
                },
                {
                    "name": "spender",
                    "type": "address",
                    "internalType": "address"
                }
            ],
            "outputs": [
                {
                    "name": "",
                    "type": "uint256",
                    "internalType": "uint256"
                }
            ],
            "stateMutability": "view"
        },
        {
            "type": "function",
            "name": "approve",
            "inputs": [
                {
                    "name": "spender",
                    "type": "address",
                    "internalType": "address"
                },
                {
                    "name": "value",
                    "type": "uint256",
                    "internalType": "uint256"
                }
            ],
            "outputs": [
                {
                    "name": "",
                    "type": "bool",
                    "internalType": "bool"
                }
            ],
            "stateMutability": "nonpayable"
        },
        {
            "type": "function",
            "name": "balanceOf",
            "inputs": [
                {
                    "name": "account",
                    "type": "address",
                    "internalType": "address"
                }
            ],
            "outputs": [
                {
                    "name": "",
                    "type": "uint256",
                    "internalType": "uint256"
                }
            ],
            "stateMutability": "view"
        },
        {
            "type": "function",
            "name": "buy",
            "inputs": [
                {
                    "name": "_depositAmount",
                    "type": "uint256",
                    "internalType": "uint256"
                },
                {
                    "name": "_minAmountOut",
                    "type": "uint256",
                    "internalType": "uint256"
                }
            ],
            "outputs": [],
            "stateMutability": "nonpayable"
        },
        {
            "type": "function",
            "name": "buyFee",
            "inputs": [],
            "outputs": [
                {
                    "name": "",
                    "type": "uint256",
                    "internalType": "uint256"
                }
            ],
            "stateMutability": "view"
        },
        {
            "type": "function",
            "name": "buyFor",
            "inputs": [
                {
                    "name": "_receiver",
                    "type": "address",
                    "internalType": "address"
                },
                {
                    "name": "_depositAmount",
                    "type": "uint256",
                    "internalType": "uint256"
                },
                {
                    "name": "_minAmountOut",
                    "type": "uint256",
                    "internalType": "uint256"
                }
            ],
            "outputs": [],
            "stateMutability": "nonpayable"
        },
        {
            "type": "function",
            "name": "buyIsOpen",
            "inputs": [],
            "outputs": [
                {
                    "name": "",
                    "type": "bool",
                    "internalType": "bool"
                }
            ],
            "stateMutability": "view"
        },
        {
            "type": "function",
            "name": "calculatePurchaseReturn",
            "inputs": [
                {
                    "name": "_depositAmount",
                    "type": "uint256",
                    "internalType": "uint256"
                }
            ],
            "outputs": [
                {
                    "name": "mintAmount",
                    "type": "uint256",
                    "internalType": "uint256"
                }
            ],
            "stateMutability": "view"
        },
        {
            "type": "function",
            "name": "calculateSaleReturn",
            "inputs": [
                {
                    "name": "_depositAmount",
                    "type": "uint256",
                    "internalType": "uint256"
                }
            ],
            "outputs": [
                {
                    "name": "redeemAmount",
                    "type": "uint256",
                    "internalType": "uint256"
                }
            ],
            "stateMutability": "view"
        },
        {
            "type": "function",
            "name": "closeBuy",
            "inputs": [],
            "outputs": [],
            "stateMutability": "nonpayable"
        },
        {
            "type": "function",
            "name": "closeSell",
            "inputs": [],
            "outputs": [],
            "stateMutability": "nonpayable"
        },
        {
            "type": "function",
            "name": "decimals",
            "inputs": [],
            "outputs": [
                {
                    "name": "",
                    "type": "uint8",
                    "internalType": "uint8"
                }
            ],
            "stateMutability": "view"
        },
        {
            "type": "function",
            "name": "decoder",
            "inputs": [
                {
                    "name": "data",
                    "type": "bytes",
                    "internalType": "bytes"
                }
            ],
            "outputs": [
                {
                    "name": "requirement",
                    "type": "bool",
                    "internalType": "bool"
                }
            ],
            "stateMutability": "pure"
        },
        {
            "type": "function",
            "name": "formula",
            "inputs": [],
            "outputs": [
                {
                    "name": "",
                    "type": "address",
                    "internalType": "contract IBancorFormula"
                }
            ],
            "stateMutability": "view"
        },
        {
            "type": "function",
            "name": "getReserveRatioForBuying",
            "inputs": [],
            "outputs": [
                {
                    "name": "",
                    "type": "uint32",
                    "internalType": "uint32"
                }
            ],
            "stateMutability": "view"
        },
        {
            "type": "function",
            "name": "getReserveRatioForSelling",
            "inputs": [],
            "outputs": [
                {
                    "name": "",
                    "type": "uint32",
                    "internalType": "uint32"
                }
            ],
            "stateMutability": "view"
        },
        {
            "type": "function",
            "name": "getStaticPriceForBuying",
            "inputs": [],
            "outputs": [
                {
                    "name": "",
                    "type": "uint256",
                    "internalType": "uint256"
                }
            ],
            "stateMutability": "view"
        },
        {
            "type": "function",
            "name": "getStaticPriceForSelling",
            "inputs": [],
            "outputs": [
                {
                    "name": "",
                    "type": "uint256",
                    "internalType": "uint256"
                }
            ],
            "stateMutability": "view"
        },
        {
            "type": "function",
            "name": "getVirtualCollateralSupply",
            "inputs": [],
            "outputs": [
                {
                    "name": "",
                    "type": "uint256",
                    "internalType": "uint256"
                }
            ],
            "stateMutability": "view"
        },
        {
            "type": "function",
            "name": "getVirtualTokenSupply",
            "inputs": [],
            "outputs": [
                {
                    "name": "",
                    "type": "uint256",
                    "internalType": "uint256"
                }
            ],
            "stateMutability": "view"
        },
        {
            "type": "function",
            "name": "grantModuleRole",
            "inputs": [
                {
                    "name": "role",
                    "type": "bytes32",
                    "internalType": "bytes32"
                },
                {
                    "name": "addr",
                    "type": "address",
                    "internalType": "address"
                }
            ],
            "outputs": [],
            "stateMutability": "nonpayable"
        },
        {
            "type": "function",
            "name": "identifier",
            "inputs": [],
            "outputs": [
                {
                    "name": "",
                    "type": "bytes32",
                    "internalType": "bytes32"
                }
            ],
            "stateMutability": "view"
        },
        {
            "type": "function",
            "name": "init",
            "inputs": [
                {
                    "name": "orchestrator_",
                    "type": "address",
                    "internalType": "contract IOrchestrator"
                },
                {
                    "name": "metadata",
                    "type": "tuple",
                    "internalType": "struct IModule.Metadata",
                    "components": [
                        {
                            "name": "majorVersion",
                            "type": "uint256",
                            "internalType": "uint256"
                        },
                        {
                            "name": "minorVersion",
                            "type": "uint256",
                            "internalType": "uint256"
                        },
                        {
                            "name": "url",
                            "type": "string",
                            "internalType": "string"
                        },
                        {
                            "name": "title",
                            "type": "string",
                            "internalType": "string"
                        }
                    ]
                },
                {
                    "name": "configData",
                    "type": "bytes",
                    "internalType": "bytes"
                }
            ],
            "outputs": [],
            "stateMutability": "nonpayable"
        },
        {
            "type": "function",
            "name": "init2",
            "inputs": [
                {
                    "name": "orchestrator_",
                    "type": "address",
                    "internalType": "contract IOrchestrator"
                },
                {
                    "name": "dependencyData",
                    "type": "bytes",
                    "internalType": "bytes"
                }
            ],
            "outputs": [],
            "stateMutability": "nonpayable"
        },
        {
            "type": "function",
            "name": "isTrustedForwarder",
            "inputs": [
                {
                    "name": "forwarder",
                    "type": "address",
                    "internalType": "address"
                }
            ],
            "outputs": [
                {
                    "name": "",
                    "type": "bool",
                    "internalType": "bool"
                }
            ],
            "stateMutability": "view"
        },
        {
            "type": "function",
            "name": "mintIssuanceTokenTo",
            "inputs": [
                {
                    "name": "_receiver",
                    "type": "address",
                    "internalType": "address"
                },
                {
                    "name": "_amount",
                    "type": "uint256",
                    "internalType": "uint256"
                }
            ],
            "outputs": [],
            "stateMutability": "nonpayable"
        },
        {
            "type": "function",
            "name": "name",
            "inputs": [],
            "outputs": [
                {
                    "name": "",
                    "type": "string",
                    "internalType": "string"
                }
            ],
            "stateMutability": "view"
        },
        {
            "type": "function",
            "name": "openBuy",
            "inputs": [],
            "outputs": [],
            "stateMutability": "nonpayable"
        },
        {
            "type": "function",
            "name": "openSell",
            "inputs": [],
            "outputs": [],
            "stateMutability": "nonpayable"
        },
        {
            "type": "function",
            "name": "orchestrator",
            "inputs": [],
            "outputs": [
                {
                    "name": "",
                    "type": "address",
                    "internalType": "contract IOrchestrator"
                }
            ],
            "stateMutability": "view"
        },
        {
            "type": "function",
            "name": "revokeModuleRole",
            "inputs": [
                {
                    "name": "role",
                    "type": "bytes32",
                    "internalType": "bytes32"
                },
                {
                    "name": "addr",
                    "type": "address",
                    "internalType": "address"
                }
            ],
            "outputs": [],
            "stateMutability": "nonpayable"
        },
        {
            "type": "function",
            "name": "sell",
            "inputs": [
                {
                    "name": "_depositAmount",
                    "type": "uint256",
                    "internalType": "uint256"
                },
                {
                    "name": "_minAmountOut",
                    "type": "uint256",
                    "internalType": "uint256"
                }
            ],
            "outputs": [],
            "stateMutability": "nonpayable"
        },
        {
            "type": "function",
            "name": "sellFee",
            "inputs": [],
            "outputs": [
                {
                    "name": "",
                    "type": "uint256",
                    "internalType": "uint256"
                }
            ],
            "stateMutability": "view"
        },
        {
            "type": "function",
            "name": "sellFor",
            "inputs": [
                {
                    "name": "_receiver",
                    "type": "address",
                    "internalType": "address"
                },
                {
                    "name": "_depositAmount",
                    "type": "uint256",
                    "internalType": "uint256"
                },
                {
                    "name": "_minAmountOut",
                    "type": "uint256",
                    "internalType": "uint256"
                }
            ],
            "outputs": [],
            "stateMutability": "nonpayable"
        },
        {
            "type": "function",
            "name": "sellIsOpen",
            "inputs": [],
            "outputs": [
                {
                    "name": "",
                    "type": "bool",
                    "internalType": "bool"
                }
            ],
            "stateMutability": "view"
        },
        {
            "type": "function",
            "name": "setBuyFee",
            "inputs": [
                {
                    "name": "_fee",
                    "type": "uint256",
                    "internalType": "uint256"
                }
            ],
            "outputs": [],
            "stateMutability": "nonpayable"
        },
        {
            "type": "function",
            "name": "setReserveRatioForBuying",
            "inputs": [
                {
                    "name": "_reserveRatio",
                    "type": "uint32",
                    "internalType": "uint32"
                }
            ],
            "outputs": [],
            "stateMutability": "nonpayable"
        },
        {
            "type": "function",
            "name": "setReserveRatioForSelling",
            "inputs": [
                {
                    "name": "_reserveRatio",
                    "type": "uint32",
                    "internalType": "uint32"
                }
            ],
            "outputs": [],
            "stateMutability": "nonpayable"
        },
        {
            "type": "function",
            "name": "setSellFee",
            "inputs": [
                {
                    "name": "_fee",
                    "type": "uint256",
                    "internalType": "uint256"
                }
            ],
            "outputs": [],
            "stateMutability": "nonpayable"
        },
        {
            "type": "function",
            "name": "setVirtualCollateralSupply",
            "inputs": [
                {
                    "name": "_virtualSupply",
                    "type": "uint256",
                    "internalType": "uint256"
                }
            ],
            "outputs": [],
            "stateMutability": "nonpayable"
        },
        {
            "type": "function",
            "name": "setVirtualTokenSupply",
            "inputs": [
                {
                    "name": "_virtualSupply",
                    "type": "uint256",
                    "internalType": "uint256"
                }
            ],
            "outputs": [],
            "stateMutability": "nonpayable"
        },
        {
            "type": "function",
            "name": "supportsInterface",
            "inputs": [
                {
                    "name": "interfaceId",
                    "type": "bytes4",
                    "internalType": "bytes4"
                }
            ],
            "outputs": [
                {
                    "name": "",
                    "type": "bool",
                    "internalType": "bool"
                }
            ],
            "stateMutability": "view"
        },
        {
            "type": "function",
            "name": "symbol",
            "inputs": [],
            "outputs": [
                {
                    "name": "",
                    "type": "string",
                    "internalType": "string"
                }
            ],
            "stateMutability": "view"
        },
        {
            "type": "function",
            "name": "title",
            "inputs": [],
            "outputs": [
                {
                    "name": "",
                    "type": "string",
                    "internalType": "string"
                }
            ],
            "stateMutability": "view"
        },
        {
            "type": "function",
            "name": "token",
            "inputs": [],
            "outputs": [
                {
                    "name": "",
                    "type": "address",
                    "internalType": "contract IERC20"
                }
            ],
            "stateMutability": "view"
        },
        {
            "type": "function",
            "name": "totalSupply",
            "inputs": [],
            "outputs": [
                {
                    "name": "",
                    "type": "uint256",
                    "internalType": "uint256"
                }
            ],
            "stateMutability": "view"
        },
        {
            "type": "function",
            "name": "transfer",
            "inputs": [
                {
                    "name": "to",
                    "type": "address",
                    "internalType": "address"
                },
                {
                    "name": "value",
                    "type": "uint256",
                    "internalType": "uint256"
                }
            ],
            "outputs": [
                {
                    "name": "",
                    "type": "bool",
                    "internalType": "bool"
                }
            ],
            "stateMutability": "nonpayable"
        },
        {
            "type": "function",
            "name": "transferFrom",
            "inputs": [
                {
                    "name": "from",
                    "type": "address",
                    "internalType": "address"
                },
                {
                    "name": "to",
                    "type": "address",
                    "internalType": "address"
                },
                {
                    "name": "value",
                    "type": "uint256",
                    "internalType": "uint256"
                }
            ],
            "outputs": [
                {
                    "name": "",
                    "type": "bool",
                    "internalType": "bool"
                }
            ],
            "stateMutability": "nonpayable"
        },
        {
            "type": "function",
            "name": "transferOrchestratorToken",
            "inputs": [
                {
                    "name": "to",
                    "type": "address",
                    "internalType": "address"
                },
                {
                    "name": "amount",
                    "type": "uint256",
                    "internalType": "uint256"
                }
            ],
            "outputs": [],
            "stateMutability": "nonpayable"
        },
        {
            "type": "function",
            "name": "url",
            "inputs": [],
            "outputs": [
                {
                    "name": "",
                    "type": "string",
                    "internalType": "string"
                }
            ],
            "stateMutability": "view"
        },
        {
            "type": "function",
            "name": "version",
            "inputs": [],
            "outputs": [
                {
                    "name": "",
                    "type": "uint256",
                    "internalType": "uint256"
                },
                {
                    "name": "",
                    "type": "uint256",
                    "internalType": "uint256"
                }
            ],
            "stateMutability": "view"
        },
        {
            "type": "event",
            "name": "Approval",
            "inputs": [
                {
                    "name": "owner",
                    "type": "address",
                    "indexed": true,
                    "internalType": "address"
                },
                {
                    "name": "spender",
                    "type": "address",
                    "indexed": true,
                    "internalType": "address"
                },
                {
                    "name": "value",
                    "type": "uint256",
                    "indexed": false,
                    "internalType": "uint256"
                }
            ],
            "anonymous": false
        },
        {
            "type": "event",
            "name": "BuyFeeUpdated",
            "inputs": [
                {
                    "name": "newBuyFee",
                    "type": "uint256",
                    "indexed": true,
                    "internalType": "uint256"
                },
                {
                    "name": "oldBuyFee",
                    "type": "uint256",
                    "indexed": true,
                    "internalType": "uint256"
                }
            ],
            "anonymous": false
        },
        {
            "type": "event",
            "name": "BuyReserveRatioSet",
            "inputs": [
                {
                    "name": "newBuyReserveRatio",
                    "type": "uint32",
                    "indexed": true,
                    "internalType": "uint32"
                },
                {
                    "name": "oldBuyReserveRatio",
                    "type": "uint32",
                    "indexed": true,
                    "internalType": "uint32"
                }
            ],
            "anonymous": false
        },
        {
            "type": "event",
            "name": "BuyingDisabled",
            "inputs": [],
            "anonymous": false
        },
        {
            "type": "event",
            "name": "BuyingEnabled",
            "inputs": [],
            "anonymous": false
        },
        {
            "type": "event",
            "name": "Deposit",
            "inputs": [
                {
                    "name": "_from",
                    "type": "address",
                    "indexed": true,
                    "internalType": "address"
                },
                {
                    "name": "_for",
                    "type": "address",
                    "indexed": true,
                    "internalType": "address"
                },
                {
                    "name": "_amount",
                    "type": "uint256",
                    "indexed": true,
                    "internalType": "uint256"
                }
            ],
            "anonymous": false
        },
        {
            "type": "event",
            "name": "Initialized",
            "inputs": [
                {
                    "name": "version",
                    "type": "uint64",
                    "indexed": false,
                    "internalType": "uint64"
                }
            ],
            "anonymous": false
        },
        {
            "type": "event",
            "name": "ModuleInitialized",
            "inputs": [
                {
                    "name": "parentOrchestrator",
                    "type": "address",
                    "indexed": true,
                    "internalType": "address"
                },
                {
                    "name": "moduleTitle",
                    "type": "string",
                    "indexed": true,
                    "internalType": "string"
                },
                {
                    "name": "majorVersion",
                    "type": "uint256",
                    "indexed": false,
                    "internalType": "uint256"
                },
                {
                    "name": "minorVersion",
                    "type": "uint256",
                    "indexed": false,
                    "internalType": "uint256"
                }
            ],
            "anonymous": false
        },
        {
            "type": "event",
            "name": "SellFeeUpdated",
            "inputs": [
                {
                    "name": "newSellFee",
                    "type": "uint256",
                    "indexed": true,
                    "internalType": "uint256"
                },
                {
                    "name": "oldSellFee",
                    "type": "uint256",
                    "indexed": true,
                    "internalType": "uint256"
                }
            ],
            "anonymous": false
        },
        {
            "type": "event",
            "name": "SellReserveRatioSet",
            "inputs": [
                {
                    "name": "newSellReserveRatio",
                    "type": "uint32",
                    "indexed": true,
                    "internalType": "uint32"
                },
                {
                    "name": "oldSellReserveRatio",
                    "type": "uint32",
                    "indexed": true,
                    "internalType": "uint32"
                }
            ],
            "anonymous": false
        },
        {
            "type": "event",
            "name": "SellingDisabled",
            "inputs": [],
            "anonymous": false
        },
        {
            "type": "event",
            "name": "SellingEnabled",
            "inputs": [],
            "anonymous": false
        },
        {
            "type": "event",
            "name": "TokenDecimalsUpdated",
            "inputs": [
                {
                    "name": "oldDecimals",
                    "type": "uint8",
                    "indexed": true,
                    "internalType": "uint8"
                },
                {
                    "name": "newDecimals",
                    "type": "uint8",
                    "indexed": true,
                    "internalType": "uint8"
                }
            ],
            "anonymous": false
        },
        {
            "type": "event",
            "name": "TokensBought",
            "inputs": [
                {
                    "name": "receiver",
                    "type": "address",
                    "indexed": true,
                    "internalType": "address"
                },
                {
                    "name": "depositAmount",
                    "type": "uint256",
                    "indexed": true,
                    "internalType": "uint256"
                },
                {
                    "name": "receivedAmount",
                    "type": "uint256",
                    "indexed": true,
                    "internalType": "uint256"
                },
                {
                    "name": "buyer",
                    "type": "address",
                    "indexed": false,
                    "internalType": "address"
                }
            ],
            "anonymous": false
        },
        {
            "type": "event",
            "name": "TokensSold",
            "inputs": [
                {
                    "name": "receiver",
                    "type": "address",
                    "indexed": true,
                    "internalType": "address"
                },
                {
                    "name": "depositAmount",
                    "type": "uint256",
                    "indexed": true,
                    "internalType": "uint256"
                },
                {
                    "name": "receivedAmount",
                    "type": "uint256",
                    "indexed": true,
                    "internalType": "uint256"
                },
                {
                    "name": "seller",
                    "type": "address",
                    "indexed": false,
                    "internalType": "address"
                }
            ],
            "anonymous": false
        },
        {
            "type": "event",
            "name": "Transfer",
            "inputs": [
                {
                    "name": "from",
                    "type": "address",
                    "indexed": true,
                    "internalType": "address"
                },
                {
                    "name": "to",
                    "type": "address",
                    "indexed": true,
                    "internalType": "address"
                },
                {
                    "name": "value",
                    "type": "uint256",
                    "indexed": false,
                    "internalType": "uint256"
                }
            ],
            "anonymous": false
        },
        {
            "type": "event",
            "name": "TransferOrchestratorToken",
            "inputs": [
                {
                    "name": "_to",
                    "type": "address",
                    "indexed": true,
                    "internalType": "address"
                },
                {
                    "name": "_amount",
                    "type": "uint256",
                    "indexed": true,
                    "internalType": "uint256"
                }
            ],
            "anonymous": false
        },
        {
            "type": "event",
            "name": "VirtualCollateralAmountAdded",
            "inputs": [
                {
                    "name": "amountAdded",
                    "type": "uint256",
                    "indexed": true,
                    "internalType": "uint256"
                },
                {
                    "name": "newSupply",
                    "type": "uint256",
                    "indexed": true,
                    "internalType": "uint256"
                }
            ],
            "anonymous": false
        },
        {
            "type": "event",
            "name": "VirtualCollateralAmountSubtracted",
            "inputs": [
                {
                    "name": "amountSubtracted",
                    "type": "uint256",
                    "indexed": true,
                    "internalType": "uint256"
                },
                {
                    "name": "newSupply",
                    "type": "uint256",
                    "indexed": true,
                    "internalType": "uint256"
                }
            ],
            "anonymous": false
        },
        {
            "type": "event",
            "name": "VirtualCollateralSupplySet",
            "inputs": [
                {
                    "name": "newSupply",
                    "type": "uint256",
                    "indexed": true,
                    "internalType": "uint256"
                },
                {
                    "name": "oldSupply",
                    "type": "uint256",
                    "indexed": true,
                    "internalType": "uint256"
                }
            ],
            "anonymous": false
        },
        {
            "type": "event",
            "name": "VirtualTokenAmountAdded",
            "inputs": [
                {
                    "name": "amountAdded",
                    "type": "uint256",
                    "indexed": true,
                    "internalType": "uint256"
                },
                {
                    "name": "newSupply",
                    "type": "uint256",
                    "indexed": true,
                    "internalType": "uint256"
                }
            ],
            "anonymous": false
        },
        {
            "type": "event",
            "name": "VirtualTokenAmountSubtracted",
            "inputs": [
                {
                    "name": "amountSubtracted",
                    "type": "uint256",
                    "indexed": true,
                    "internalType": "uint256"
                },
                {
                    "name": "newSupply",
                    "type": "uint256",
                    "indexed": true,
                    "internalType": "uint256"
                }
            ],
            "anonymous": false
        },
        {
            "type": "event",
            "name": "VirtualTokenSupplySet",
            "inputs": [
                {
                    "name": "newSupply",
                    "type": "uint256",
                    "indexed": true,
                    "internalType": "uint256"
                },
                {
                    "name": "oldSupply",
                    "type": "uint256",
                    "indexed": true,
                    "internalType": "uint256"
                }
            ],
            "anonymous": false
        },
        {
            "type": "event",
            "name": "Withdrawal",
            "inputs": [
                {
                    "name": "_from",
                    "type": "address",
                    "indexed": true,
                    "internalType": "address"
                },
                {
                    "name": "_for",
                    "type": "address",
                    "indexed": true,
                    "internalType": "address"
                },
                {
                    "name": "_amount",
                    "type": "uint256",
                    "indexed": true,
                    "internalType": "uint256"
                }
            ],
            "anonymous": false
        },
        {
            "type": "error",
            "name": "AddressEmptyCode",
            "inputs": [
                {
                    "name": "target",
                    "type": "address",
                    "internalType": "address"
                }
            ]
        },
        {
            "type": "error",
            "name": "AddressInsufficientBalance",
            "inputs": [
                {
                    "name": "account",
                    "type": "address",
                    "internalType": "address"
                }
            ]
        },
        {
            "type": "error",
            "name": "BancorVirtualSupplyBondingCurveFundingManager__InvalidDepositAmount",
            "inputs": []
        },
        {
            "type": "error",
            "name": "BancorVirtualSupplyBondingCurveFundingManager__InvalidReserveRatio",
            "inputs": []
        },
        {
            "type": "error",
            "name": "BancorVirtualSupplyBondingCurveFundingManager__InvalidTokenDecimal",
            "inputs": []
        },
        {
            "type": "error",
            "name": "BondingCurveFundingManagerBase__InsufficientOutputAmount",
            "inputs": []
        },
        {
            "type": "error",
            "name": "BondingCurveFundingManagerBase__InvalidRecipient",
            "inputs": []
        },
        {
            "type": "error",
            "name": "BondingCurveFundingManager__BuyingAlreadyClosed",
            "inputs": []
        },
        {
            "type": "error",
            "name": "BondingCurveFundingManager__BuyingAlreadyOpen",
            "inputs": []
        },
        {
            "type": "error",
            "name": "BondingCurveFundingManager__BuyingFunctionaltiesClosed",
            "inputs": []
        },
        {
            "type": "error",
            "name": "BondingCurveFundingManager__InvalidDepositAmount",
            "inputs": []
        },
        {
            "type": "error",
            "name": "BondingCurveFundingManager__InvalidFeePercentage",
            "inputs": []
        },
        {
            "type": "error",
            "name": "ERC20InsufficientAllowance",
            "inputs": [
                {
                    "name": "spender",
                    "type": "address",
                    "internalType": "address"
                },
                {
                    "name": "allowance",
                    "type": "uint256",
                    "internalType": "uint256"
                },
                {
                    "name": "needed",
                    "type": "uint256",
                    "internalType": "uint256"
                }
            ]
        },
        {
            "type": "error",
            "name": "ERC20InsufficientBalance",
            "inputs": [
                {
                    "name": "sender",
                    "type": "address",
                    "internalType": "address"
                },
                {
                    "name": "balance",
                    "type": "uint256",
                    "internalType": "uint256"
                },
                {
                    "name": "needed",
                    "type": "uint256",
                    "internalType": "uint256"
                }
            ]
        },
        {
            "type": "error",
            "name": "ERC20InvalidApprover",
            "inputs": [
                {
                    "name": "approver",
                    "type": "address",
                    "internalType": "address"
                }
            ]
        },
        {
            "type": "error",
            "name": "ERC20InvalidReceiver",
            "inputs": [
                {
                    "name": "receiver",
                    "type": "address",
                    "internalType": "address"
                }
            ]
        },
        {
            "type": "error",
            "name": "ERC20InvalidSender",
            "inputs": [
                {
                    "name": "sender",
                    "type": "address",
                    "internalType": "address"
                }
            ]
        },
        {
            "type": "error",
            "name": "ERC20InvalidSpender",
            "inputs": [
                {
                    "name": "spender",
                    "type": "address",
                    "internalType": "address"
                }
            ]
        },
        {
            "type": "error",
            "name": "FailedInnerCall",
            "inputs": []
        },
        {
            "type": "error",
            "name": "InvalidInitialization",
            "inputs": []
        },
        {
            "type": "error",
            "name": "Module_OrchestratorCallbackFailed",
            "inputs": [
                {
                    "name": "funcSig",
                    "type": "string",
                    "internalType": "string"
                }
            ]
        },
        {
            "type": "error",
            "name": "Module__CallerNotAuthorized",
            "inputs": [
                {
                    "name": "role",
                    "type": "bytes32",
                    "internalType": "bytes32"
                },
                {
                    "name": "caller",
                    "type": "address",
                    "internalType": "address"
                }
            ]
        },
        {
            "type": "error",
            "name": "Module__CannotCallInit2Again",
            "inputs": []
        },
        {
            "type": "error",
            "name": "Module__FundingManager__CannotSelfDeposit",
            "inputs": []
        },
        {
            "type": "error",
            "name": "Module__FundingManager__DepositCapReached",
            "inputs": []
        },
        {
            "type": "error",
            "name": "Module__FundingManager__InvalidAddress",
            "inputs": []
        },
        {
            "type": "error",
            "name": "Module__InvalidMetadata",
            "inputs": []
        },
        {
            "type": "error",
            "name": "Module__InvalidOrchestratorAddress",
            "inputs": []
        },
        {
            "type": "error",
            "name": "Module__NoDependencyOrMalformedDependencyData",
            "inputs": []
        },
        {
            "type": "error",
            "name": "Module__OnlyCallableByOrchestrator",
            "inputs": []
        },
        {
            "type": "error",
            "name": "NotInitializing",
            "inputs": []
        },
        {
            "type": "error",
            "name": "RedeemingBondingCurveFundingManager__InsufficientCollateralForRedemption",
            "inputs": []
        },
        {
            "type": "error",
            "name": "RedeemingBondingCurveFundingManager__InsufficientOutputAmount",
            "inputs": []
        },
        {
            "type": "error",
            "name": "RedeemingBondingCurveFundingManager__InvalidDepositAmount",
            "inputs": []
        },
        {
            "type": "error",
            "name": "RedeemingBondingCurveFundingManager__InvalidFeePercentage",
            "inputs": []
        },
        {
            "type": "error",
            "name": "RedeemingBondingCurveFundingManager__SellingAlreadyClosed",
            "inputs": []
        },
        {
            "type": "error",
            "name": "RedeemingBondingCurveFundingManager__SellingAlreadyOpen",
            "inputs": []
        },
        {
            "type": "error",
            "name": "RedeemingBondingCurveFundingManager__SellingFunctionaltiesClosed",
            "inputs": []
        },
        {
            "type": "error",
            "name": "SafeERC20FailedOperation",
            "inputs": [
                {
                    "name": "token",
                    "type": "address",
                    "internalType": "address"
                }
            ]
        },
        {
            "type": "error",
            "name": "VirtualCollateralSupply_AddResultsInOverflow",
            "inputs": []
        },
        {
            "type": "error",
            "name": "VirtualCollateralSupply__SubtractResultsInUnderflow",
            "inputs": []
        },
        {
            "type": "error",
            "name": "VirtualCollateralSupply__VirtualSupplyCannotBeZero",
            "inputs": []
        },
        {
            "type": "error",
            "name": "VirtualTokenSupply_AddResultsInOverflow",
            "inputs": []
        },
        {
            "type": "error",
            "name": "VirtualTokenSupply__SubtractResultsInUnderflow",
            "inputs": []
        },
        {
            "type": "error",
            "name": "VirtualTokenSupply__VirtualSupplyCannotBeZero",
            "inputs": []
        }
    ],
    "bytecode": {
        "object": "0x60806040523480156200001157600080fd5b506200001c62000022565b620000d6565b7ff0c57e16840df040f15088dc2f81fe391c3923bec73e23a9662efc9c229c6a00805468010000000000000000900460ff1615620000735760405163f92ee8a960e01b815260040160405180910390fd5b80546001600160401b0390811614620000d35780546001600160401b0319166001600160401b0390811782556040519081527fc7f505b2f371ae2175ee4913f4499e1f2633a7b5936321eed1cdaeb6115181d29060200160405180910390a15b50565b61554080620000e66000396000f3fe608060405234801561001057600080fd5b50600436106103415760003560e01c80638ac631e6116101bd578063bcb61920116100f9578063d6febde8116100a2578063ecd31b551161007c578063ecd31b5514610720578063f1eae64a14610733578063fa03330c1461073b578063fc0c546a1461074357600080fd5b8063d6febde8146106a2578063d79875eb146106b5578063dd62ed3e146106c857600080fd5b8063c6829ba2116100d3578063c6829ba214610680578063c6ab5cdc14610692578063d4a679301461069a57600080fd5b8063bcb619201461065d578063bd09840414610670578063bf75292b1461067857600080fd5b80639e97857511610166578063a9059cbb11610140578063a9059cbb14610619578063b74795d91461062c578063b88a2cf614610642578063ba83c9701461065557600080fd5b80639e978575146105f3578063a617b95614610606578063a8a539d9146104c057600080fd5b8063935b7dbd11610197578063935b7dbd146105c557806395d89b41146105d85780639bfdf766146105e057600080fd5b80638ac631e6146105925780638b4cee08146105a55780639093b01f146105b857600080fd5b80634a79d50c1161028c5780636115db1c116102355780636e4233791161020f5780636e4233791461051c57806370a082311461052f578063759cc4b5146105775780637998a1c41461058a57600080fd5b80636115db1c146104c057806369fcd4ac146104f65780636c67e8071461050957600080fd5b80635600f04f116102665780635600f04f14610492578063572b6c051461049a5780635f6108ff146104ad57600080fd5b80634a79d50c146104445780634b75f54f1461044c57806354fd4d501461047757600080fd5b80632b14ca56116102ee57806342dfe958116102c857806342dfe958146104205780634706240214610433578063471c7e3b1461043c57600080fd5b80632b14ca56146103ef578063313ce567146103f8578063322d21001461040d57600080fd5b80630cc835a31161031f5780630cc835a31461039657806318160ddd146103ab57806323b872dd146103dc57600080fd5b806301ffc9a71461034657806306fdde031461036e578063095ea7b314610383575b600080fd5b6103596103543660046149f0565b610754565b60405190151581526020015b60405180910390f35b610376610798565b6040516103659190614a6a565b610359610391366004614a92565b61086d565b6103a96103a4366004614abe565b61088f565b005b7f52c63247e1f47db19d5ce0460030c497f067ca4cebf71ba98eeadabe20bace02545b604051908152602001610365565b6103596103ea366004614ad7565b610a5a565b6103ce600b5481565b60075460405160ff9091168152602001610365565b6103ce61041b366004614abe565b610a8a565b6103a961042e366004614c66565b610ae7565b6103ce60085481565b6000546103ce565b610376610eec565b600c5461045f906001600160a01b031681565b6040516001600160a01b039091168152602001610365565b60035460045460408051928352602083019190915201610365565b610376610f80565b6103596104a8366004614d42565b610f92565b6103a96104bb366004614d5f565b61101f565b600c5474010000000000000000000000000000000000000000900463ffffffff1660405163ffffffff9091168152602001610365565b6103ce610504366004614abe565b6110c7565b6103a9610517366004614d94565b61112c565b6103a961052a366004614abe565b6113a0565b6103ce61053d366004614d42565b6001600160a01b031660009081527f52c63247e1f47db19d5ce0460030c497f067ca4cebf71ba98eeadabe20bace00602052604090205490565b6103a9610585366004614a92565b61151d565b6103ce61169d565b6103a96105a0366004614dd6565b6117e8565b6103a96105b3366004614abe565b611965565b600a546103599060ff1681565b6103a96105d3366004614d5f565b611ae2565b610376611b89565b6103a96105ee366004614df3565b611bda565b610359610601366004614e43565b611c64565b6103a9610614366004614abe565b611c7a565b610359610627366004614a92565b611df7565b60025461010090046001600160a01b031661045f565b6103a9610650366004614dd6565b611e0f565b6103a9611f8c565b6103a961066b366004614d94565b61210c565b6103ce61234b565b6103ce61236e565b60075461035990610100900460ff1681565b6103a9612379565b6103a96124f5565b6103a96106b0366004614e78565b612671565b6103a96106c3366004614e78565b6126c9565b6103ce6106d6366004614e9a565b6001600160a01b0391821660009081527f52c63247e1f47db19d5ce0460030c497f067ca4cebf71ba98eeadabe20bace016020908152604080832093909416825291909152205490565b6103a961072e366004614a92565b61271c565b6103a96128f7565b6103ce612a73565b600d546001600160a01b031661045f565b60006001600160e01b031982167f4cfe112c000000000000000000000000000000000000000000000000000000001480610792575061079282612a96565b92915050565b7f52c63247e1f47db19d5ce0460030c497f067ca4cebf71ba98eeadabe20bace0380546060917f52c63247e1f47db19d5ce0460030c497f067ca4cebf71ba98eeadabe20bace00916107e990614ec8565b80601f016020809104026020016040519081016040528092919081815260200182805461081590614ec8565b80156108625780601f1061083757610100808354040283529160200191610862565b820191906000526020600020905b81548152906001019060200180831161084557829003601f168201915b505050505091505090565b600080610878612ad4565b9050610885818585612ade565b5060019392505050565b6000600260019054906101000a90046001600160a01b03166001600160a01b031663d09edf316040518163ffffffff1660e01b8152600401602060405180830381865afa1580156108e4573d6000803e3d6000fd5b505050506040513d601f19601f820116820180604052508101906109089190614f1b565b90506000816001600160a01b03166355ff58d46040518163ffffffff1660e01b8152600401602060405180830381865afa15801561094a573d6000803e3d6000fd5b505050506040513d601f19601f8201168201806040525081019061096e9190614f38565b9050816001600160a01b03166391d1485482610988612ad4565b6040516001600160e01b031960e085901b16815260048101929092526001600160a01b03166024820152604401602060405180830381865afa1580156109d2573d6000803e3d6000fd5b505050506040513d601f19601f820116820180604052508101906109f69190614f61565b610a4c5780610a03612ad4565b6040517f42abbb7700000000000000000000000000000000000000000000000000000000815260048101929092526001600160a01b031660248201526044015b60405180910390fd5b610a5583612aeb565b505050565b600080610a65612ad4565b9050610a72858285612b59565b610a7d858585612c09565b60019150505b9392505050565b600081600003610ac6576040517fdf74329700000000000000000000000000000000000000000000000000000000815260040160405180910390fd5b60085415610ade57610ada82600854612c9a565b5091505b61079282612cc9565b7ff0c57e16840df040f15088dc2f81fe391c3923bec73e23a9662efc9c229c6a00805468010000000000000000810460ff16159067ffffffffffffffff16600081158015610b325750825b905060008267ffffffffffffffff166001148015610b4f5750303b155b905081158015610b5d575080155b15610b94576040517ff92ee8a900000000000000000000000000000000000000000000000000000000815260040160405180910390fd5b84547fffffffffffffffffffffffffffffffffffffffffffffffff00000000000000001660011785558315610bf55784547fffffffffffffffffffffffffffffffffffffffffffffff00ffffffffffffffff16680100000000000000001785555b610bff8888612dbd565b604080516060810182526000808252602082018190529181018290526040805161012081018252600080825260208201819052918101829052606081018290526080810182905260a0810182905260c0810182905260e0810182905261010081019190915288806020019051810190610c789190614fa3565b8251604051919650929450909250610cca91610c9a9160200190815260200190565b60408051601f19818403018152828252602086810151908401529101604051602081830303815290604052612f1c565b600d80547fffffffffffffffffffffffff0000000000000000000000000000000000000000166001600160a01b0385161790556040820151610d0b90612f2e565b600d546001600160a01b03166001600160a01b031663313ce5676040518163ffffffff1660e01b8152600401602060405180830381865afa158015610d54573d6000803e3d6000fd5b505050506040513d601f19601f82011682018060405250810190610d7891906150c2565b600d80547fffffffffffffffffffffff00ffffffffffffffffffffffffffffffffffffffff167401000000000000000000000000000000000000000060ff93909316929092029190911790558051600c80547fffffffffffffffffffffffff0000000000000000000000000000000000000000166001600160a01b0390921691909117905560e0810151610e0b90612f82565b610e19816101000151612ff1565b610e26816020015161305e565b610e338160400151613180565b610e408160600151612aeb565b610e4d81608001516132aa565b60a08101511515600103610e6357610e63613319565b60c08101511515600103610e7957610e796133b6565b5050508315610edd5784547fffffffffffffffffffffffffffffffffffffffffffffff00ffffffffffffffff168555604051600181527fc7f505b2f371ae2175ee4913f4499e1f2633a7b5936321eed1cdaeb6115181d29060200160405180910390a15b5050505050505050565b905090565b6060600380018054610efd90614ec8565b80601f0160208091040260200160405190810160405280929190818152602001828054610f2990614ec8565b8015610f765780601f10610f4b57610100808354040283529160200191610f76565b820191906000526020600020905b815481529060010190602001808311610f5957829003601f168201915b5050505050905090565b606060036002018054610efd90614ec8565b6002546040517f572b6c050000000000000000000000000000000000000000000000000000000081526001600160a01b0383811660048301526000926101009004169063572b6c0590602401602060405180830381865afa158015610ffb573d6000803e3d6000fd5b505050506040513d601f19601f820116820180604052508101906107929190614f61565b826001600160a01b038116158061103e57506001600160a01b03811630145b15611075576040517f1f26fa4100000000000000000000000000000000000000000000000000000000815260040160405180910390fd5b600a5460ff1615156000036110b6576040517f098d60c700000000000000000000000000000000000000000000000000000000815260040160405180910390fd5b6110c184848461342f565b50505050565b600081600003611103576040517fdf74329700000000000000000000000000000000000000000000000000000000815260040160405180910390fd5b61110c8261345c565b600b54909150156111275761112381600b54612c9a565b5090505b919050565b6000600260019054906101000a90046001600160a01b03166001600160a01b031663d09edf316040518163ffffffff1660e01b8152600401602060405180830381865afa158015611181573d6000803e3d6000fd5b505050506040513d601f19601f820116820180604052508101906111a59190614f1b565b90506000816001600160a01b03166355ff58d46040518163ffffffff1660e01b8152600401602060405180830381865afa1580156111e7573d6000803e3d6000fd5b505050506040513d601f19601f8201168201806040525081019061120b9190614f38565b9050816001600160a01b03166391d1485482611225612ad4565b6040516001600160e01b031960e085901b16815260048101929092526001600160a01b03166024820152604401602060405180830381865afa15801561126f573d6000803e3d6000fd5b505050506040513d601f19601f820116820180604052508101906112939190614f61565b6112a05780610a03612ad4565b6000600260019054906101000a90046001600160a01b03166001600160a01b031663d09edf316040518163ffffffff1660e01b8152600401602060405180830381865afa1580156112f5573d6000803e3d6000fd5b505050506040513d601f19601f820116820180604052508101906113199190614f1b565b6040517fe1788154000000000000000000000000000000000000000000000000000000008152600481018790526001600160a01b0386811660248301529192509082169063e1788154906044015b600060405180830381600087803b15801561138157600080fd5b505af1158015611395573d6000803e3d6000fd5b505050505050505050565b6000600260019054906101000a90046001600160a01b03166001600160a01b031663d09edf316040518163ffffffff1660e01b8152600401602060405180830381865afa1580156113f5573d6000803e3d6000fd5b505050506040513d601f19601f820116820180604052508101906114199190614f1b565b90506000816001600160a01b03166355ff58d46040518163ffffffff1660e01b8152600401602060405180830381865afa15801561145b573d6000803e3d6000fd5b505050506040513d601f19601f8201168201806040525081019061147f9190614f38565b9050816001600160a01b03166391d1485482611499612ad4565b6040516001600160e01b031960e085901b16815260048101929092526001600160a01b03166024820152604401602060405180830381865afa1580156114e3573d6000803e3d6000fd5b505050506040513d601f19601f820116820180604052508101906115079190614f61565b6115145780610a03612ad4565b610a5583612ff1565b60025461010090046001600160a01b0316611536612ad4565b6001600160a01b031614611576576040517fe614e81b00000000000000000000000000000000000000000000000000000000815260040160405180910390fd5b6116638282600260019054906101000a90046001600160a01b03166001600160a01b03166304baed9e6040518163ffffffff1660e01b8152600401602060405180830381865afa1580156115ce573d6000803e3d6000fd5b505050506040513d601f19601f820116820180604052508101906115f29190614f1b565b6001600160a01b031663fc0c546a6040518163ffffffff1660e01b8152600401602060405180830381865afa15801561162f573d6000803e3d6000fd5b505050506040513d601f19601f820116820180604052508101906116539190614f1b565b6001600160a01b03169190613554565b60405181906001600160a01b038416907fe88292c5f714100904272672c0420345093bd0e3c5555d31f3e4e2cf5f6ca8a190600090a35050565b60408051608081018252600380548252600454602083015260058054600094610ee7949392908401916116cf90614ec8565b80601f01602080910402602001604051908101604052809291908181526020018280546116fb90614ec8565b80156117485780601f1061171d57610100808354040283529160200191611748565b820191906000526020600020905b81548152906001019060200180831161172b57829003601f168201915b5050505050815260200160038201805461176190614ec8565b80601f016020809104026020016040519081016040528092919081815260200182805461178d90614ec8565b80156117da5780601f106117af576101008083540402835291602001916117da565b820191906000526020600020905b8154815290600101906020018083116117bd57829003601f168201915b5050505050815250506135c8565b6000600260019054906101000a90046001600160a01b03166001600160a01b031663d09edf316040518163ffffffff1660e01b8152600401602060405180830381865afa15801561183d573d6000803e3d6000fd5b505050506040513d601f19601f820116820180604052508101906118619190614f1b565b90506000816001600160a01b03166355ff58d46040518163ffffffff1660e01b8152600401602060405180830381865afa1580156118a3573d6000803e3d6000fd5b505050506040513d601f19601f820116820180604052508101906118c79190614f38565b9050816001600160a01b03166391d14854826118e1612ad4565b6040516001600160e01b031960e085901b16815260048101929092526001600160a01b03166024820152604401602060405180830381865afa15801561192b573d6000803e3d6000fd5b505050506040513d601f19601f8201168201806040525081019061194f9190614f61565b61195c5780610a03612ad4565b610a558361305e565b6000600260019054906101000a90046001600160a01b03166001600160a01b031663d09edf316040518163ffffffff1660e01b8152600401602060405180830381865afa1580156119ba573d6000803e3d6000fd5b505050506040513d601f19601f820116820180604052508101906119de9190614f1b565b90506000816001600160a01b03166355ff58d46040518163ffffffff1660e01b8152600401602060405180830381865afa158015611a20573d6000803e3d6000fd5b505050506040513d601f19601f82011682018060405250810190611a449190614f38565b9050816001600160a01b03166391d1485482611a5e612ad4565b6040516001600160e01b031960e085901b16815260048101929092526001600160a01b03166024820152604401602060405180830381865afa158015611aa8573d6000803e3d6000fd5b505050506040513d601f19601f82011682018060405250810190611acc9190614f61565b611ad95780610a03612ad4565b610a55836132aa565b826001600160a01b0381161580611b0157506001600160a01b03811630145b15611b38576040517f1f26fa4100000000000000000000000000000000000000000000000000000000815260040160405180910390fd5b600754610100900460ff161515600003611b7e576040517f4e1a658400000000000000000000000000000000000000000000000000000000815260040160405180910390fd5b6110c1848484613608565b7f52c63247e1f47db19d5ce0460030c497f067ca4cebf71ba98eeadabe20bace0480546060917f52c63247e1f47db19d5ce0460030c497f067ca4cebf71ba98eeadabe20bace00916107e990614ec8565b60025460ff1615611c17576040517f904875a100000000000000000000000000000000000000000000000000000000815260040160405180910390fd5b6002805460ff1916600117905580611c2e81613635565b610a55576040517feef043ae00000000000000000000000000000000000000000000000000000000815260040160405180910390fd5b60008180602001905181019061112391906150dd565b6000600260019054906101000a90046001600160a01b03166001600160a01b031663d09edf316040518163ffffffff1660e01b8152600401602060405180830381865afa158015611ccf573d6000803e3d6000fd5b505050506040513d601f19601f82011682018060405250810190611cf39190614f1b565b90506000816001600160a01b03166355ff58d46040518163ffffffff1660e01b8152600401602060405180830381865afa158015611d35573d6000803e3d6000fd5b505050506040513d601f19601f82011682018060405250810190611d599190614f38565b9050816001600160a01b03166391d1485482611d73612ad4565b6040516001600160e01b031960e085901b16815260048101929092526001600160a01b03166024820152604401602060405180830381865afa158015611dbd573d6000803e3d6000fd5b505050506040513d601f19601f82011682018060405250810190611de19190614f61565b611dee5780610a03612ad4565b610a5583612f82565b600080611e02612ad4565b9050610885818585612c09565b6000600260019054906101000a90046001600160a01b03166001600160a01b031663d09edf316040518163ffffffff1660e01b8152600401602060405180830381865afa158015611e64573d6000803e3d6000fd5b505050506040513d601f19601f82011682018060405250810190611e889190614f1b565b90506000816001600160a01b03166355ff58d46040518163ffffffff1660e01b8152600401602060405180830381865afa158015611eca573d6000803e3d6000fd5b505050506040513d601f19601f82011682018060405250810190611eee9190614f38565b9050816001600160a01b03166391d1485482611f08612ad4565b6040516001600160e01b031960e085901b16815260048101929092526001600160a01b03166024820152604401602060405180830381865afa158015611f52573d6000803e3d6000fd5b505050506040513d601f19601f82011682018060405250810190611f769190614f61565b611f835780610a03612ad4565b610a5583613180565b6000600260019054906101000a90046001600160a01b03166001600160a01b031663d09edf316040518163ffffffff1660e01b8152600401602060405180830381865afa158015611fe1573d6000803e3d6000fd5b505050506040513d601f19601f820116820180604052508101906120059190614f1b565b90506000816001600160a01b03166355ff58d46040518163ffffffff1660e01b8152600401602060405180830381865afa158015612047573d6000803e3d6000fd5b505050506040513d601f19601f8201168201806040525081019061206b9190614f38565b9050816001600160a01b03166391d1485482612085612ad4565b6040516001600160e01b031960e085901b16815260048101929092526001600160a01b03166024820152604401602060405180830381865afa1580156120cf573d6000803e3d6000fd5b505050506040513d601f19601f820116820180604052508101906120f39190614f61565b6121005780610a03612ad4565b612108613736565b5050565b6000600260019054906101000a90046001600160a01b03166001600160a01b031663d09edf316040518163ffffffff1660e01b8152600401602060405180830381865afa158015612161573d6000803e3d6000fd5b505050506040513d601f19601f820116820180604052508101906121859190614f1b565b90506000816001600160a01b03166355ff58d46040518163ffffffff1660e01b8152600401602060405180830381865afa1580156121c7573d6000803e3d6000fd5b505050506040513d601f19601f820116820180604052508101906121eb9190614f38565b9050816001600160a01b03166391d1485482612205612ad4565b6040516001600160e01b031960e085901b16815260048101929092526001600160a01b03166024820152604401602060405180830381865afa15801561224f573d6000803e3d6000fd5b505050506040513d601f19601f820116820180604052508101906122739190614f61565b6122805780610a03612ad4565b6000600260019054906101000a90046001600160a01b03166001600160a01b031663d09edf316040518163ffffffff1660e01b8152600401602060405180830381865afa1580156122d5573d6000803e3d6000fd5b505050506040513d601f19601f820116820180604052508101906122f99190614f1b565b6040517fba66f9fc000000000000000000000000000000000000000000000000000000008152600481018790526001600160a01b0386811660248301529192509082169063ba66f9fc90604401611367565b6000610ee7600054600154600c60189054906101000a900463ffffffff166137ac565b6000610ee760015490565b6000600260019054906101000a90046001600160a01b03166001600160a01b031663d09edf316040518163ffffffff1660e01b8152600401602060405180830381865afa1580156123ce573d6000803e3d6000fd5b505050506040513d601f19601f820116820180604052508101906123f29190614f1b565b90506000816001600160a01b03166355ff58d46040518163ffffffff1660e01b8152600401602060405180830381865afa158015612434573d6000803e3d6000fd5b505050506040513d601f19601f820116820180604052508101906124589190614f38565b9050816001600160a01b03166391d1485482612472612ad4565b6040516001600160e01b031960e085901b16815260048101929092526001600160a01b03166024820152604401602060405180830381865afa1580156124bc573d6000803e3d6000fd5b505050506040513d601f19601f820116820180604052508101906124e09190614f61565b6124ed5780610a03612ad4565b6121086137e8565b6000600260019054906101000a90046001600160a01b03166001600160a01b031663d09edf316040518163ffffffff1660e01b8152600401602060405180830381865afa15801561254a573d6000803e3d6000fd5b505050506040513d601f19601f8201168201806040525081019061256e9190614f1b565b90506000816001600160a01b03166355ff58d46040518163ffffffff1660e01b8152600401602060405180830381865afa1580156125b0573d6000803e3d6000fd5b505050506040513d601f19601f820116820180604052508101906125d49190614f38565b9050816001600160a01b03166391d14854826125ee612ad4565b6040516001600160e01b031960e085901b16815260048101929092526001600160a01b03166024820152604401602060405180830381865afa158015612638573d6000803e3d6000fd5b505050506040513d601f19601f8201168201806040525081019061265c9190614f61565b6126695780610a03612ad4565b612108613319565b600754610100900460ff1615156000036126b7576040517f4e1a658400000000000000000000000000000000000000000000000000000000815260040160405180910390fd5b6121086126c2612ad4565b8383613608565b600a5460ff16151560000361270a576040517f098d60c700000000000000000000000000000000000000000000000000000000815260040160405180910390fd5b612108612715612ad4565b838361342f565b6000600260019054906101000a90046001600160a01b03166001600160a01b031663d09edf316040518163ffffffff1660e01b8152600401602060405180830381865afa158015612771573d6000803e3d6000fd5b505050506040513d601f19601f820116820180604052508101906127959190614f1b565b90506000816001600160a01b03166355ff58d46040518163ffffffff1660e01b8152600401602060405180830381865afa1580156127d7573d6000803e3d6000fd5b505050506040513d601f19601f820116820180604052508101906127fb9190614f38565b9050816001600160a01b03166391d1485482612815612ad4565b6040516001600160e01b031960e085901b16815260048101929092526001600160a01b03166024820152604401602060405180830381865afa15801561285f573d6000803e3d6000fd5b505050506040513d601f19601f820116820180604052508101906128839190614f61565b6128905780610a03612ad4565b836001600160a01b03811615806128af57506001600160a01b03811630145b156128e6576040517f1f26fa4100000000000000000000000000000000000000000000000000000000815260040160405180910390fd5b6128f08585613881565b5050505050565b6000600260019054906101000a90046001600160a01b03166001600160a01b031663d09edf316040518163ffffffff1660e01b8152600401602060405180830381865afa15801561294c573d6000803e3d6000fd5b505050506040513d601f19601f820116820180604052508101906129709190614f1b565b90506000816001600160a01b03166355ff58d46040518163ffffffff1660e01b8152600401602060405180830381865afa1580156129b2573d6000803e3d6000fd5b505050506040513d601f19601f820116820180604052508101906129d69190614f38565b9050816001600160a01b03166391d14854826129f0612ad4565b6040516001600160e01b031960e085901b16815260048101929092526001600160a01b03166024820152604401602060405180830381865afa158015612a3a573d6000803e3d6000fd5b505050506040513d601f19601f82011682018060405250810190612a5e9190614f61565b612a6b5780610a03612ad4565b6121086133b6565b6000610ee7600054600154600c60149054906101000a900463ffffffff166137ac565b60006001600160e01b031982167ff5d538220000000000000000000000000000000000000000000000000000000014806107925750610792826138d0565b6000610ee7613942565b610a558383836001613a02565b6127108110612b26576040517f1fffd4a800000000000000000000000000000000000000000000000000000000815260040160405180910390fd5b60085460405182907f28e297c7c282931a994191b735b01eaf17558295f761512a7047f4e1b8dc3b0b90600090a3600855565b6001600160a01b0383811660009081527f52c63247e1f47db19d5ce0460030c497f067ca4cebf71ba98eeadabe20bace01602090815260408083209386168352929052205460001981146110c15781811015612bfa576040517ffb8f41b20000000000000000000000000000000000000000000000000000000081526001600160a01b03841660048201526024810182905260448101839052606401610a43565b6110c184848484036000613a02565b6001600160a01b038316612c4c576040517f96c6fd1e00000000000000000000000000000000000000000000000000000000815260006004820152602401610a43565b6001600160a01b038216612c8f576040517fec442f0500000000000000000000000000000000000000000000000000000000815260006004820152602401610a43565b610a55838383613b2d565b600080612710612caa848661521d565b612cb49190615234565b9050612cc0818561526f565b91509250929050565b600080612ce783600d60149054906101000a900460ff166012613c96565b600c546000546001546040517f29a00e7c0000000000000000000000000000000000000000000000000000000081526004810192909252602482015274010000000000000000000000000000000000000000820463ffffffff166044820152606481018390529192506001600160a01b0316906329a00e7c90608401602060405180830381865afa158015612d80573d6000803e3d6000fd5b505050506040513d601f19601f82011682018060405250810190612da49190614f38565b9150610a83826012612db860075460ff1690565b613c96565b612dc5613d08565b6001600160a01b038216612e05576040517f7280679300000000000000000000000000000000000000000000000000000000815260040160405180910390fd5b600280547fffffffffffffffffffffff0000000000000000000000000000000000000000ff166101006001600160a01b03851602179055612e4581613d71565b612e7b576040517f7511254100000000000000000000000000000000000000000000000000000000815260040160405180910390fd5b8051600390815560208201516004556040820151829190600590612e9f90826152d2565b5060608201516003820190612eb490826152d2565b5050506060810151604051612ec99190615392565b604080519182900382208351602080860151918552840152916001600160a01b038516917feb175f148a71d29a5f7bf5439182fcd81e6ea9cfc8a11b54ab0f705fa98fa8ca910160405180910390a35050565b612f24613d08565b6121088282613dc3565b60078160ff161015612f6c576040517fac80fcc900000000000000000000000000000000000000000000000000000000815260040160405180910390fd5b6007805460ff191660ff92909216919091179055565b80600003612fbc576040517f829bc36500000000000000000000000000000000000000000000000000000000815260040160405180910390fd5b600054817f2d1283d75c305ae938f875d219a6fece3e8d79bee574dbb307ffe711ba0e6c0160405160405180910390a3600055565b8060000361302b576040517f11005a2f00000000000000000000000000000000000000000000000000000000815260040160405180910390fd5b60015460405182907f09a070adb6f2c823cf65438ad36e4d03c24d94dd2ad6ebb19dd02d09ca1fa03f90600090a3600155565b8063ffffffff1660000361309e576040517fc3cee9c800000000000000000000000000000000000000000000000000000000815260040160405180910390fd5b620f424063ffffffff821611156130e1576040517fc3cee9c800000000000000000000000000000000000000000000000000000000815260040160405180910390fd5b600c5460405163ffffffff740100000000000000000000000000000000000000009092048216918316907f27c191dfc402c5c90b6333b6adc108fe15c0c368ccd3a50ec1d702f9288b864890600090a3600c805463ffffffff90921674010000000000000000000000000000000000000000027fffffffffffffffff00000000ffffffffffffffffffffffffffffffffffffffff909216919091179055565b8063ffffffff166000036131c0576040517fc3cee9c800000000000000000000000000000000000000000000000000000000815260040160405180910390fd5b620f424063ffffffff82161115613203576040517fc3cee9c800000000000000000000000000000000000000000000000000000000815260040160405180910390fd5b600c5460405163ffffffff78010000000000000000000000000000000000000000000000009092048216918316907fd60e348cd25e6e7624733f552b6499f3d296a6c2d464fa0ca109b41d7453b3ca90600090a3600c805463ffffffff9092167801000000000000000000000000000000000000000000000000027fffffffff00000000ffffffffffffffffffffffffffffffffffffffffffffffff909216919091179055565b6127108111156132e6576040517f7fe2c31000000000000000000000000000000000000000000000000000000000815260040160405180910390fd5b600b5460405182907f5bafec153d96f8ef37761b64348732b41a6b477401d244a5070f9f82d689adce90600090a3600b55565b600754610100900460ff16151560010361335f576040517f084f9b2800000000000000000000000000000000000000000000000000000000815260040160405180910390fd5b600780547fffffffffffffffffffffffffffffffffffffffffffffffffffffffffffff00ff166101001790556040517fe404df37e2f7360b624914a082278de0f9e7da04a61eaab0a8d3d26b52bc0b1990600090a1565b600a5460ff1615156001036133f7576040517f273000d400000000000000000000000000000000000000000000000000000000815260040160405180910390fd5b600a805460ff191660011790556040517f9d47627df4f01d3bff516199297ca647fe2ea0448c4f2925ef8c16d614a51a7c90600090a1565b60008061343d858585613e26565b9150915061344a84614240565b6128f061345782846153ae565b6142ef565b6000806134768361346f60075460ff1690565b6012613c96565b600c546000546001546040517f49f9b0f7000000000000000000000000000000000000000000000000000000008152600481019290925260248201527801000000000000000000000000000000000000000000000000820463ffffffff166044820152606481018390529192506001600160a01b0316906349f9b0f790608401602060405180830381865afa158015613513573d6000803e3d6000fd5b505050506040513d601f19601f820116820180604052508101906135379190614f38565b9150610a83826012600d60149054906101000a900460ff16613c96565b6040516001600160a01b03838116602483015260448201839052610a5591859182169063a9059cbb906064015b604051602081830303815290604052915060e01b6020820180517bffffffffffffffffffffffffffffffffffffffffffffffffffffffff838183161783525050505061439f565b60008160000151826040015183606001516040516020016135eb939291906153c1565b604051602081830303815290604052805190602001209050919050565b60008061361685858561441b565b9150915061362382614606565b6128f0613630828661526f565b614685565b6040517f9e9785750000000000000000000000000000000000000000000000000000000081526000903090639e97857590613674908590600401614a6a565b602060405180830381865afa9250505080156136ad575060408051601f3d908101601f191682019092526136aa91810190614f61565b60015b6136b957506000919050565b6040517f9e9785750000000000000000000000000000000000000000000000000000000081523090639e978575906136f5908690600401614a6a565b602060405180830381865afa158015613712573d6000803e3d6000fd5b505050506040513d601f19601f82011682018060405250810190610a839190614f61565b600a5460ff161515600003613777576040517ffd9e707600000000000000000000000000000000000000000000000000000000815260040160405180910390fd5b600a805460ff191690556040517fc34ae80cb7f967a799992108cfbc90770413d60555d5b0587a4c2c3e69c79ca490600090a1565b60006137be63ffffffff83168561521d565b836137cc620f42408061521d565b6137d6919061521d565b6137e09190615234565b949350505050565b600754610100900460ff16151560000361382e576040517f9920a23d00000000000000000000000000000000000000000000000000000000815260040160405180910390fd5b600780547fffffffffffffffffffffffffffffffffffffffffffffffffffffffffffff00ff1690556040517f44c1679cca34073ce70fed616f995237808d9599a35669fd39f3afd053e2b9b190600090a1565b6001600160a01b0382166138c4576040517fec442f0500000000000000000000000000000000000000000000000000000000815260006004820152602401610a43565b61210860008383613b2d565b60006001600160e01b031982167fa163e31600000000000000000000000000000000000000000000000000000000148061393357506001600160e01b031982167f899090df00000000000000000000000000000000000000000000000000000000145b80610792575061079282614705565b6002546040517f572b6c0500000000000000000000000000000000000000000000000000000000815233600482015260009161010090046001600160a01b03169063572b6c0590602401602060405180830381865afa1580156139a9573d6000803e3d6000fd5b505050506040513d601f19601f820116820180604052508101906139cd9190614f61565b156139fd57507fffffffffffffffffffffffffffffffffffffffffffffffffffffffffffffffec36013560601c90565b503390565b7f52c63247e1f47db19d5ce0460030c497f067ca4cebf71ba98eeadabe20bace006001600160a01b038516613a66576040517fe602df0500000000000000000000000000000000000000000000000000000000815260006004820152602401610a43565b6001600160a01b038416613aa9576040517f94280d6200000000000000000000000000000000000000000000000000000000815260006004820152602401610a43565b6001600160a01b038086166000908152600183016020908152604080832093881683529290522083905581156128f057836001600160a01b0316856001600160a01b03167f8c5be1e5ebec7d5bd14f71427d1e84f3dd0314c0f7b2291e5b200ac8c7c3b92585604051613b1e91815260200190565b60405180910390a35050505050565b7f52c63247e1f47db19d5ce0460030c497f067ca4cebf71ba98eeadabe20bace006001600160a01b038416613b7b5781816002016000828254613b7091906153ae565b90915550613c069050565b6001600160a01b03841660009081526020829052604090205482811015613be7576040517fe450d38c0000000000000000000000000000000000000000000000000000000081526001600160a01b03861660048201526024810182905260448101849052606401610a43565b6001600160a01b03851660009081526020839052604090209083900390555b6001600160a01b038316613c24576002810180548390039055613c43565b6001600160a01b03831660009081526020829052604090208054830190555b826001600160a01b0316846001600160a01b03167fddf252ad1be2c89b69c2b068fc378daa952ba7f163c4a11628f55a4df523b3ef84604051613c8891815260200190565b60405180910390a350505050565b60008160ff168360ff1603613cac575082610a83565b8160ff168360ff161115613ce5576000613cc683856153fe565b613cd190600a6154fb565b9050613cdd8186615234565b915050610a83565b6000613cf184846153fe565b613cfc90600a6154fb565b9050613cdd818661521d565b7ff0c57e16840df040f15088dc2f81fe391c3923bec73e23a9662efc9c229c6a005468010000000000000000900460ff16613d6f576040517fd7e6bcf800000000000000000000000000000000000000000000000000000000815260040160405180910390fd5b565b6000816040015151600003613d8857506000919050565b816060015151600003613d9d57506000919050565b8151158015613dae57506020820151155b15613dbb57506000919050565b506001919050565b613dcb613d08565b7f52c63247e1f47db19d5ce0460030c497f067ca4cebf71ba98eeadabe20bace007f52c63247e1f47db19d5ce0460030c497f067ca4cebf71ba98eeadabe20bace03613e1784826152d2565b50600481016110c183826152d2565b60008083600003613e63576040517f7d6f2ce500000000000000000000000000000000000000000000000000000000815260040160405180910390fd5b613e6c8461345c565b9150613e7f613e79612ad4565b85614743565b600b5415613eb357613e9382600b54612c9a565b80925081935050508060096000828254613ead91906153ae565b90915550505b82821015613eed576040517f6118744900000000000000000000000000000000000000000000000000000000815260040160405180910390fd5b600260019054906101000a90046001600160a01b03166001600160a01b03166304baed9e6040518163ffffffff1660e01b8152600401602060405180830381865afa158015613f40573d6000803e3d6000fd5b505050506040513d601f19601f82011682018060405250810190613f649190614f1b565b6001600160a01b031663fc0c546a6040518163ffffffff1660e01b8152600401602060405180830381865afa158015613fa1573d6000803e3d6000fd5b505050506040513d601f19601f82011682018060405250810190613fc59190614f1b565b6040517f70a082310000000000000000000000000000000000000000000000000000000081523060048201526001600160a01b0391909116906370a0823190602401602060405180830381865afa158015614024573d6000803e3d6000fd5b505050506040513d601f19601f820116820180604052508101906140489190614f38565b821115614081576040517fed0f5dba00000000000000000000000000000000000000000000000000000000815260040160405180910390fd5b600260019054906101000a90046001600160a01b03166001600160a01b03166304baed9e6040518163ffffffff1660e01b8152600401602060405180830381865afa1580156140d4573d6000803e3d6000fd5b505050506040513d601f19601f820116820180604052508101906140f89190614f1b565b6001600160a01b031663fc0c546a6040518163ffffffff1660e01b8152600401602060405180830381865afa158015614135573d6000803e3d6000fd5b505050506040513d601f19601f820116820180604052508101906141599190614f1b565b6040517fa9059cbb0000000000000000000000000000000000000000000000000000000081526001600160a01b03878116600483015260248201859052919091169063a9059cbb906044016020604051808303816000875af11580156141c3573d6000803e3d6000fd5b505050506040513d601f19601f820116820180604052508101906141e79190614f61565b508184866001600160a01b03167f7debc712939ce2028bbca7ca90cc85e8fb59a7772e041423d3ec1588af4730ed61421d612ad4565b6040516001600160a01b03909116815260200160405180910390a4935093915050565b60005481111561427c576040517f61cc2b9c00000000000000000000000000000000000000000000000000000000815260040160405180910390fd5b60005481036142b7576040517f829bc36500000000000000000000000000000000000000000000000000000000815260040160405180910390fd5b60008054829003808255604051909183917f374f5c14366744ad463690788295cb2e1af90f405cce865e330f0c20d265cba69190a350565b60015481111561432b576040517f02e709f500000000000000000000000000000000000000000000000000000000815260040160405180910390fd5b6001548103614366576040517f11005a2f00000000000000000000000000000000000000000000000000000000815260040160405180910390fd5b600180548290039081905560405182907ff90da9caba169a00f9544c3f2cf6e2b5c632fae79eb6116e76ff1f3c1f21472c90600090a350565b60006143b46001600160a01b03841683614792565b905080516000141580156143d95750808060200190518101906143d79190614f61565b155b15610a55576040517f5274afe70000000000000000000000000000000000000000000000000000000081526001600160a01b0384166004820152602401610a43565b60008083600003614458576040517f9bcd14d900000000000000000000000000000000000000000000000000000000815260040160405180910390fd5b61454e614463612ad4565b3086600260019054906101000a90046001600160a01b03166001600160a01b03166304baed9e6040518163ffffffff1660e01b8152600401602060405180830381865afa1580156144b8573d6000803e3d6000fd5b505050506040513d601f19601f820116820180604052508101906144dc9190614f1b565b6001600160a01b031663fc0c546a6040518163ffffffff1660e01b8152600401602060405180830381865afa158015614519573d6000803e3d6000fd5b505050506040513d601f19601f8201168201806040525081019061453d9190614f1b565b6001600160a01b03169291906147a0565b600854156145825761456284600854612c9a565b8092508195505050806009600082825461457c91906153ae565b90915550505b61458b84612cc9565b9150828210156145c7576040517f3fadde9b00000000000000000000000000000000000000000000000000000000815260040160405180910390fd5b6145d18583613881565b8184866001600160a01b03167fd150a324c4fc8346977d1499aa36cac8c85e6af24bf1486022fad77d05f8b19f61421d612ad4565b6000546146159060001961526f565b81111561464e576040517f84aa96a700000000000000000000000000000000000000000000000000000000815260040160405180910390fd5b600080548201808255604051909183917fcbfefa2bbddaf9dd7a2be70b7b0e60e0fd2eb704ee53b2a03d851b5def44bad89190a350565b6001546146949060001961526f565b8111156146cd576040517fe2fb1d8f00000000000000000000000000000000000000000000000000000000815260040160405180910390fd5b6001805482019081905560405182907fb79781f468e2af557e9be98c94e82258c72deac9797eed9d1eb079aba4b0b3ba90600090a350565b60006001600160e01b031982167fd883df120000000000000000000000000000000000000000000000000000000014806107925750610792826147d9565b6001600160a01b038216614786576040517f96c6fd1e00000000000000000000000000000000000000000000000000000000815260006004820152602401610a43565b61210882600083613b2d565b6060610a8383836000614818565b6040516001600160a01b0384811660248301528381166044830152606482018390526110c19186918216906323b872dd90608401613581565b60007fd1371a52000000000000000000000000000000000000000000000000000000006001600160e01b03198316811480610a835750610a83836148ce565b606081471015614856576040517fcd786059000000000000000000000000000000000000000000000000000000008152306004820152602401610a43565b600080856001600160a01b031684866040516148729190615392565b60006040518083038185875af1925050503d80600081146148af576040519150601f19603f3d011682016040523d82523d6000602084013e6148b4565b606091505b50915091506148c4868383614936565b9695505050505050565b60007fe10bc76d000000000000000000000000000000000000000000000000000000006001600160e01b03198316811480610a8357507f01ffc9a7000000000000000000000000000000000000000000000000000000006001600160e01b0319841614610a83565b60608261494b57614946826149ab565b610a83565b815115801561496257506001600160a01b0384163b155b156149a4576040517f9996b3150000000000000000000000000000000000000000000000000000000081526001600160a01b0385166004820152602401610a43565b5080610a83565b8051156149bb5780518082602001fd5b6040517f1425ea4200000000000000000000000000000000000000000000000000000000815260040160405180910390fd5b50565b600060208284031215614a0257600080fd5b81356001600160e01b031981168114610a8357600080fd5b60005b83811015614a35578181015183820152602001614a1d565b50506000910152565b60008151808452614a56816020860160208601614a1a565b601f01601f19169290920160200192915050565b602081526000610a836020830184614a3e565b6001600160a01b03811681146149ed57600080fd5b60008060408385031215614aa557600080fd5b8235614ab081614a7d565b946020939093013593505050565b600060208284031215614ad057600080fd5b5035919050565b600080600060608486031215614aec57600080fd5b8335614af781614a7d565b92506020840135614b0781614a7d565b929592945050506040919091013590565b7f4e487b7100000000000000000000000000000000000000000000000000000000600052604160045260246000fd5b6040516080810167ffffffffffffffff81118282101715614b6a57614b6a614b18565b60405290565b6040516060810167ffffffffffffffff81118282101715614b6a57614b6a614b18565b604051610120810167ffffffffffffffff81118282101715614b6a57614b6a614b18565b604051601f8201601f1916810167ffffffffffffffff81118282101715614be057614be0614b18565b604052919050565b600067ffffffffffffffff821115614c0257614c02614b18565b50601f01601f191660200190565b600082601f830112614c2157600080fd5b8135614c34614c2f82614be8565b614bb7565b818152846020838601011115614c4957600080fd5b816020850160208301376000918101602001919091529392505050565b600080600060608486031215614c7b57600080fd5b8335614c8681614a7d565b9250602084013567ffffffffffffffff80821115614ca357600080fd5b9085019060808288031215614cb757600080fd5b614cbf614b47565b8235815260208301356020820152604083013582811115614cdf57600080fd5b614ceb89828601614c10565b604083015250606083013582811115614d0357600080fd5b614d0f89828601614c10565b60608301525093506040860135915080821115614d2b57600080fd5b50614d3886828701614c10565b9150509250925092565b600060208284031215614d5457600080fd5b8135610a8381614a7d565b600080600060608486031215614d7457600080fd5b8335614d7f81614a7d565b95602085013595506040909401359392505050565b60008060408385031215614da757600080fd5b823591506020830135614db981614a7d565b809150509250929050565b63ffffffff811681146149ed57600080fd5b600060208284031215614de857600080fd5b8135610a8381614dc4565b60008060408385031215614e0657600080fd5b8235614e1181614a7d565b9150602083013567ffffffffffffffff811115614e2d57600080fd5b614e3985828601614c10565b9150509250929050565b600060208284031215614e5557600080fd5b813567ffffffffffffffff811115614e6c57600080fd5b6137e084828501614c10565b60008060408385031215614e8b57600080fd5b50508035926020909101359150565b60008060408385031215614ead57600080fd5b8235614eb881614a7d565b91506020830135614db981614a7d565b600181811c90821680614edc57607f821691505b602082108103614f15577f4e487b7100000000000000000000000000000000000000000000000000000000600052602260045260246000fd5b50919050565b600060208284031215614f2d57600080fd5b8151610a8381614a7d565b600060208284031215614f4a57600080fd5b5051919050565b8051801515811461112757600080fd5b600060208284031215614f7357600080fd5b610a8382614f51565b805160ff8116811461112757600080fd5b805161112781614a7d565b805161112781614dc4565b60008060008385036101a0811215614fba57600080fd5b6060811215614fc857600080fd5b614fd0614b70565b8551815260208601516020820152614fea60408701614f7c565b604082015293506101207fffffffffffffffffffffffffffffffffffffffffffffffffffffffffffffffa0820181131561502357600080fd5b61502b614b93565b915061503960608701614f8d565b825261504760808701614f98565b602083015261505860a08701614f98565b604083015260c0860151606083015260e0860151608083015261010061507f818801614f51565b60a084015261508f828801614f51565b60c084015261014087015160e0840152610160870151908301525091506150b96101808501614f8d565b90509250925092565b6000602082840312156150d457600080fd5b610a8382614f7c565b60008060408084860312156150f157600080fd5b6150fa84614f51565b925060208085015167ffffffffffffffff8082111561511857600080fd5b818701915087601f83011261512c57600080fd5b81518181111561513e5761513e614b18565b8060051b61514d858201614bb7565b918252838101850191858101908b84111561516757600080fd5b86860192505b838310156151dc578251858111156151855760008081fd5b8601603f81018d136151975760008081fd5b878101516151a7614c2f82614be8565b8181528e8b8385010111156151bc5760008081fd5b6151cb828b83018d8601614a1a565b84525050918601919086019061516d565b80985050505050505050509250929050565b7f4e487b7100000000000000000000000000000000000000000000000000000000600052601160045260246000fd5b8082028115828204841417610792576107926151ee565b60008261526a577f4e487b7100000000000000000000000000000000000000000000000000000000600052601260045260246000fd5b500490565b81810381811115610792576107926151ee565b601f821115610a55576000816000526020600020601f850160051c810160208610156152ab5750805b601f850160051c820191505b818110156152ca578281556001016152b7565b505050505050565b815167ffffffffffffffff8111156152ec576152ec614b18565b615300816152fa8454614ec8565b84615282565b602080601f831160018114615335576000841561531d5750858301515b600019600386901b1c1916600185901b1785556152ca565b600085815260208120601f198616915b8281101561536457888601518255948401946001909101908401615345565b50858210156153825787850151600019600388901b60f8161c191681555b5050505050600190811b01905550565b600082516153a4818460208701614a1a565b9190910192915050565b80820180821115610792576107926151ee565b838152600083516153d9816020850160208801614a1a565b808301905083516153f1816020840160208801614a1a565b0160200195945050505050565b60ff8281168282160390811115610792576107926151ee565b600181815b80851115615452578160001904821115615438576154386151ee565b8085161561544557918102915b93841c939080029061541c565b509250929050565b60008261546957506001610792565b8161547657506000610792565b816001811461548c5760028114615496576154b2565b6001915050610792565b60ff8411156154a7576154a76151ee565b50506001821b610792565b5060208310610133831016604e8410600b84101617156154d5575081810a610792565b6154df8383615417565b80600019048211156154f3576154f36151ee565b029392505050565b6000610a8360ff84168361545a56fea26469706673582212206b531d1ab63292cef1eb32e6a0b19a8f5cf048f6dcfa0e175294f92539f9608d64736f6c63430008170033",
        "linkReferences": {}
    },
    "methodIdentifiers": {
        "allowance(address,address)": "dd62ed3e",
        "approve(address,uint256)": "095ea7b3",
        "balanceOf(address)": "70a08231",
        "buy(uint256,uint256)": "d6febde8",
        "buyFee()": "47062402",
        "buyFor(address,uint256,uint256)": "935b7dbd",
        "buyIsOpen()": "c6829ba2",
        "calculatePurchaseReturn(uint256)": "322d2100",
        "calculateSaleReturn(uint256)": "69fcd4ac",
        "closeBuy()": "c6ab5cdc",
        "closeSell()": "ba83c970",
        "decimals()": "313ce567",
        "decoder(bytes)": "9e978575",
        "formula()": "4b75f54f",
        "getReserveRatioForBuying()": "a8a539d9",
        "getReserveRatioForSelling()": "6115db1c",
        "getStaticPriceForBuying()": "fa03330c",
        "getStaticPriceForSelling()": "bd098404",
        "getVirtualCollateralSupply()": "bf75292b",
        "getVirtualTokenSupply()": "471c7e3b",
        "grantModuleRole(bytes32,address)": "6c67e807",
        "identifier()": "7998a1c4",
        "init(address,(uint256,uint256,string,string),bytes)": "42dfe958",
        "init2(address,bytes)": "9bfdf766",
        "isTrustedForwarder(address)": "572b6c05",
        "mintIssuanceTokenTo(address,uint256)": "ecd31b55",
        "name()": "06fdde03",
        "openBuy()": "d4a67930",
        "openSell()": "f1eae64a",
        "orchestrator()": "b74795d9",
        "revokeModuleRole(bytes32,address)": "bcb61920",
        "sell(uint256,uint256)": "d79875eb",
        "sellFee()": "2b14ca56",
        "sellFor(address,uint256,uint256)": "5f6108ff",
        "sellIsOpen()": "9093b01f",
        "setBuyFee(uint256)": "0cc835a3",
        "setReserveRatioForBuying(uint32)": "8ac631e6",
        "setReserveRatioForSelling(uint32)": "b88a2cf6",
        "setSellFee(uint256)": "8b4cee08",
        "setVirtualCollateralSupply(uint256)": "6e423379",
        "setVirtualTokenSupply(uint256)": "a617b956",
        "supportsInterface(bytes4)": "01ffc9a7",
        "symbol()": "95d89b41",
        "title()": "4a79d50c",
        "token()": "fc0c546a",
        "totalSupply()": "18160ddd",
        "transfer(address,uint256)": "a9059cbb",
        "transferFrom(address,address,uint256)": "23b872dd",
        "transferOrchestratorToken(address,uint256)": "759cc4b5",
        "url()": "5600f04f",
        "version()": "54fd4d50"
    },
    "id": 103
}