{
  "abi": [
    {
      "type": "function",
      "name": "addRecurringPayment",
      "inputs": [
        {
          "name": "amount",
          "type": "uint256",
          "internalType": "uint256"
        },
        {
          "name": "startEpoch",
          "type": "uint256",
          "internalType": "uint256"
        },
        {
          "name": "recipient",
          "type": "address",
          "internalType": "address"
        }
      ],
      "outputs": [
        {
          "name": "id",
          "type": "uint256",
          "internalType": "uint256"
        }
      ],
      "stateMutability": "nonpayable"
    },
    {
      "type": "function",
      "name": "amountPaid",
      "inputs": [
        {
          "name": "amount",
          "type": "uint256",
          "internalType": "uint256"
        }
      ],
      "outputs": [],
      "stateMutability": "nonpayable"
    },
    {
      "type": "function",
      "name": "collectPaymentOrders",
      "inputs": [],
      "outputs": [
        {
          "name": "",
          "type": "tuple[]",
          "internalType": "struct IERC20PaymentClient.PaymentOrder[]",
          "components": [
            {
              "name": "recipient",
              "type": "address",
              "internalType": "address"
            },
            {
              "name": "amount",
              "type": "uint256",
              "internalType": "uint256"
            },
            {
              "name": "createdAt",
              "type": "uint256",
              "internalType": "uint256"
            },
            {
              "name": "dueTo",
              "type": "uint256",
              "internalType": "uint256"
            }
          ]
        },
        {
          "name": "",
          "type": "uint256",
          "internalType": "uint256"
        }
      ],
      "stateMutability": "nonpayable"
    },
    {
      "type": "function",
      "name": "decoder",
      "inputs": [
        {
          "name": "data",
          "type": "bytes",
          "internalType": "bytes"
        }
      ],
      "outputs": [
        {
          "name": "requirement",
          "type": "bool",
          "internalType": "bool"
        }
      ],
      "stateMutability": "pure"
    },
    {
      "type": "function",
      "name": "getCurrentEpoch",
      "inputs": [],
      "outputs": [
        {
          "name": "epoch",
          "type": "uint256",
          "internalType": "uint256"
        }
      ],
      "stateMutability": "view"
    },
    {
      "type": "function",
      "name": "getEpochFromTimestamp",
      "inputs": [
        {
          "name": "timestamp",
          "type": "uint256",
          "internalType": "uint256"
        }
      ],
      "outputs": [
        {
          "name": "epoch",
          "type": "uint256",
          "internalType": "uint256"
        }
      ],
      "stateMutability": "view"
    },
    {
      "type": "function",
      "name": "getEpochLength",
      "inputs": [],
      "outputs": [
        {
          "name": "",
          "type": "uint256",
          "internalType": "uint256"
        }
      ],
      "stateMutability": "view"
    },
    {
      "type": "function",
      "name": "getFutureEpoch",
      "inputs": [
        {
          "name": "xEpochsInTheFuture",
          "type": "uint256",
          "internalType": "uint256"
        }
      ],
      "outputs": [
        {
          "name": "futureEpoch",
          "type": "uint256",
          "internalType": "uint256"
        }
      ],
      "stateMutability": "view"
    },
    {
      "type": "function",
      "name": "getPreviousPaymentId",
      "inputs": [
        {
          "name": "id",
          "type": "uint256",
          "internalType": "uint256"
        }
      ],
      "outputs": [
        {
          "name": "",
          "type": "uint256",
          "internalType": "uint256"
        }
      ],
      "stateMutability": "view"
    },
    {
      "type": "function",
      "name": "getRecurringPaymentInformation",
      "inputs": [
        {
          "name": "id",
          "type": "uint256",
          "internalType": "uint256"
        }
      ],
      "outputs": [
        {
          "name": "",
          "type": "tuple",
          "internalType": "struct IRecurringPaymentManager.RecurringPayment",
          "components": [
            {
              "name": "amount",
              "type": "uint256",
              "internalType": "uint256"
            },
            {
              "name": "startEpoch",
              "type": "uint256",
              "internalType": "uint256"
            },
            {
              "name": "lastTriggeredEpoch",
              "type": "uint256",
              "internalType": "uint256"
            },
            {
              "name": "recipient",
              "type": "address",
              "internalType": "address"
            }
          ]
        }
      ],
      "stateMutability": "view"
    },
    {
      "type": "function",
      "name": "grantModuleRole",
      "inputs": [
        {
          "name": "role",
          "type": "bytes32",
          "internalType": "bytes32"
        },
        {
          "name": "addr",
          "type": "address",
          "internalType": "address"
        }
      ],
      "outputs": [],
      "stateMutability": "nonpayable"
    },
    {
      "type": "function",
      "name": "identifier",
      "inputs": [],
      "outputs": [
        {
          "name": "",
          "type": "bytes32",
          "internalType": "bytes32"
        }
      ],
      "stateMutability": "view"
    },
    {
      "type": "function",
      "name": "init",
      "inputs": [
        {
          "name": "orchestrator_",
          "type": "address",
          "internalType": "contract IOrchestrator"
        },
        {
          "name": "metadata",
          "type": "tuple",
          "internalType": "struct IModule.Metadata",
          "components": [
            {
              "name": "majorVersion",
              "type": "uint256",
              "internalType": "uint256"
            },
            {
              "name": "minorVersion",
              "type": "uint256",
              "internalType": "uint256"
            },
            {
              "name": "url",
              "type": "string",
              "internalType": "string"
            },
            {
              "name": "title",
              "type": "string",
              "internalType": "string"
            }
          ]
        },
        {
          "name": "configData",
          "type": "bytes",
          "internalType": "bytes"
        }
      ],
      "outputs": [],
      "stateMutability": "nonpayable"
    },
    {
      "type": "function",
      "name": "init2",
      "inputs": [
        {
          "name": "orchestrator_",
          "type": "address",
          "internalType": "contract IOrchestrator"
        },
        {
          "name": "dependencyData",
          "type": "bytes",
          "internalType": "bytes"
        }
      ],
      "outputs": [],
      "stateMutability": "nonpayable"
    },
    {
      "type": "function",
      "name": "isExistingRecurringPaymentId",
      "inputs": [
        {
          "name": "id",
          "type": "uint256",
          "internalType": "uint256"
        }
      ],
      "outputs": [
        {
          "name": "",
          "type": "bool",
          "internalType": "bool"
        }
      ],
      "stateMutability": "view"
    },
    {
      "type": "function",
      "name": "isTrustedForwarder",
      "inputs": [
        {
          "name": "forwarder",
          "type": "address",
          "internalType": "address"
        }
      ],
      "outputs": [
        {
          "name": "",
          "type": "bool",
          "internalType": "bool"
        }
      ],
      "stateMutability": "view"
    },
    {
      "type": "function",
      "name": "listRecurringPaymentIds",
      "inputs": [],
      "outputs": [
        {
          "name": "",
          "type": "uint256[]",
          "internalType": "uint256[]"
        }
      ],
      "stateMutability": "view"
    },
    {
      "type": "function",
      "name": "orchestrator",
      "inputs": [],
      "outputs": [
        {
          "name": "",
          "type": "address",
          "internalType": "contract IOrchestrator"
        }
      ],
      "stateMutability": "view"
    },
    {
      "type": "function",
      "name": "outstandingTokenAmount",
      "inputs": [],
      "outputs": [
        {
          "name": "",
          "type": "uint256",
          "internalType": "uint256"
        }
      ],
      "stateMutability": "view"
    },
    {
      "type": "function",
      "name": "paymentOrders",
      "inputs": [],
      "outputs": [
        {
          "name": "",
          "type": "tuple[]",
          "internalType": "struct IERC20PaymentClient.PaymentOrder[]",
          "components": [
            {
              "name": "recipient",
              "type": "address",
              "internalType": "address"
            },
            {
              "name": "amount",
              "type": "uint256",
              "internalType": "uint256"
            },
            {
              "name": "createdAt",
              "type": "uint256",
              "internalType": "uint256"
            },
            {
              "name": "dueTo",
              "type": "uint256",
              "internalType": "uint256"
            }
          ]
        }
      ],
      "stateMutability": "view"
    },
    {
      "type": "function",
      "name": "removeRecurringPayment",
      "inputs": [
        {
          "name": "prevId",
          "type": "uint256",
          "internalType": "uint256"
        },
        {
          "name": "id",
          "type": "uint256",
          "internalType": "uint256"
        }
      ],
      "outputs": [],
      "stateMutability": "nonpayable"
    },
    {
      "type": "function",
      "name": "revokeModuleRole",
      "inputs": [
        {
          "name": "role",
          "type": "bytes32",
          "internalType": "bytes32"
        },
        {
          "name": "addr",
          "type": "address",
          "internalType": "address"
        }
      ],
      "outputs": [],
      "stateMutability": "nonpayable"
    },
    {
      "type": "function",
      "name": "supportsInterface",
      "inputs": [
        {
          "name": "interfaceId",
          "type": "bytes4",
          "internalType": "bytes4"
        }
      ],
      "outputs": [
        {
          "name": "",
          "type": "bool",
          "internalType": "bool"
        }
      ],
      "stateMutability": "view"
    },
    {
      "type": "function",
      "name": "title",
      "inputs": [],
      "outputs": [
        {
          "name": "",
          "type": "string",
          "internalType": "string"
        }
      ],
      "stateMutability": "view"
    },
    {
      "type": "function",
      "name": "trigger",
      "inputs": [],
      "outputs": [],
      "stateMutability": "nonpayable"
    },
    {
      "type": "function",
      "name": "triggerFor",
      "inputs": [
        {
          "name": "startId",
          "type": "uint256",
          "internalType": "uint256"
        },
        {
          "name": "endId",
          "type": "uint256",
          "internalType": "uint256"
        }
      ],
      "outputs": [],
      "stateMutability": "nonpayable"
    },
    {
      "type": "function",
      "name": "url",
      "inputs": [],
      "outputs": [
        {
          "name": "",
          "type": "string",
          "internalType": "string"
        }
      ],
      "stateMutability": "view"
    },
    {
      "type": "function",
      "name": "version",
      "inputs": [],
      "outputs": [
        {
          "name": "",
          "type": "uint256",
          "internalType": "uint256"
        },
        {
          "name": "",
          "type": "uint256",
          "internalType": "uint256"
        }
      ],
      "stateMutability": "view"
    },
    {
      "type": "event",
      "name": "Initialized",
      "inputs": [
        {
          "name": "version",
          "type": "uint64",
          "indexed": false,
          "internalType": "uint64"
        }
      ],
      "anonymous": false
    },
    {
      "type": "event",
      "name": "ModuleInitialized",
      "inputs": [
        {
          "name": "parentOrchestrator",
          "type": "address",
          "indexed": true,
          "internalType": "address"
        },
        {
          "name": "moduleTitle",
          "type": "string",
          "indexed": true,
          "internalType": "string"
        },
        {
          "name": "majorVersion",
          "type": "uint256",
          "indexed": false,
          "internalType": "uint256"
        },
        {
          "name": "minorVersion",
          "type": "uint256",
          "indexed": false,
          "internalType": "uint256"
        }
      ],
      "anonymous": false
    },
    {
      "type": "event",
      "name": "PaymentOrderAdded",
      "inputs": [
        {
          "name": "recipient",
          "type": "address",
          "indexed": true,
          "internalType": "address"
        },
        {
          "name": "amount",
          "type": "uint256",
          "indexed": false,
          "internalType": "uint256"
        }
      ],
      "anonymous": false
    },
    {
      "type": "event",
      "name": "RecurringPaymentAdded",
      "inputs": [
        {
          "name": "recurringPaymentId",
          "type": "uint256",
          "indexed": true,
          "internalType": "uint256"
        },
        {
          "name": "amount",
          "type": "uint256",
          "indexed": false,
          "internalType": "uint256"
        },
        {
          "name": "startEpoch",
          "type": "uint256",
          "indexed": false,
          "internalType": "uint256"
        },
        {
          "name": "lastTriggeredEpoch",
          "type": "uint256",
          "indexed": false,
          "internalType": "uint256"
        },
        {
          "name": "recipient",
          "type": "address",
          "indexed": false,
          "internalType": "address"
        }
      ],
      "anonymous": false
    },
    {
      "type": "event",
      "name": "RecurringPaymentRemoved",
      "inputs": [
        {
          "name": "recurringPaymentId",
          "type": "uint256",
          "indexed": true,
          "internalType": "uint256"
        }
      ],
      "anonymous": false
    },
    {
      "type": "event",
      "name": "RecurringPaymentsTriggered",
      "inputs": [
        {
          "name": "currentEpoch",
          "type": "uint256",
          "indexed": true,
          "internalType": "uint256"
        }
      ],
      "anonymous": false
    },
    {
      "type": "error",
      "name": "AddressEmptyCode",
      "inputs": [
        {
          "name": "target",
          "type": "address",
          "internalType": "address"
        }
      ]
    },
    {
      "type": "error",
      "name": "AddressInsufficientBalance",
      "inputs": [
        {
          "name": "account",
          "type": "address",
          "internalType": "address"
        }
      ]
    },
    {
      "type": "error",
      "name": "FailedInnerCall",
      "inputs": []
    },
    {
      "type": "error",
      "name": "InvalidInitialization",
      "inputs": []
    },
    {
      "type": "error",
      "name": "Library__LinkedIdList__IdNotConsecutive",
      "inputs": []
    },
    {
      "type": "error",
      "name": "Library__LinkedIdList__InvalidId",
      "inputs": []
    },
    {
      "type": "error",
      "name": "Library__LinkedIdList__InvalidNewId",
      "inputs": []
    },
    {
      "type": "error",
      "name": "Library__LinkedIdList__InvalidPosition",
      "inputs": []
    },
    {
      "type": "error",
      "name": "Module_OrchestratorCallbackFailed",
      "inputs": [
        {
          "name": "funcSig",
          "type": "string",
          "internalType": "string"
        }
      ]
    },
    {
      "type": "error",
      "name": "Module__CallerNotAuthorized",
      "inputs": [
        {
          "name": "role",
          "type": "bytes32",
          "internalType": "bytes32"
        },
        {
          "name": "caller",
          "type": "address",
          "internalType": "address"
        }
      ]
    },
    {
      "type": "error",
      "name": "Module__CannotCallInit2Again",
      "inputs": []
    },
    {
      "type": "error",
      "name": "Module__ERC20PaymentClient__ArrayLengthMismatch",
      "inputs": []
    },
    {
      "type": "error",
      "name": "Module__ERC20PaymentClient__CallerNotAuthorized",
      "inputs": []
    },
    {
      "type": "error",
      "name": "Module__ERC20PaymentClient__InvalidAmount",
      "inputs": []
    },
    {
      "type": "error",
      "name": "Module__ERC20PaymentClient__InvalidDueTo",
      "inputs": []
    },
    {
      "type": "error",
      "name": "Module__ERC20PaymentClient__InvalidRecipient",
      "inputs": []
    },
    {
      "type": "error",
      "name": "Module__ERC20PaymentClient__TokenTransferFailed",
      "inputs": []
    },
    {
      "type": "error",
      "name": "Module__InvalidMetadata",
      "inputs": []
    },
    {
      "type": "error",
      "name": "Module__InvalidOrchestratorAddress",
      "inputs": []
    },
    {
      "type": "error",
      "name": "Module__NoDependencyOrMalformedDependencyData",
      "inputs": []
    },
    {
      "type": "error",
      "name": "Module__OnlyCallableByOrchestrator",
      "inputs": []
    },
    {
      "type": "error",
      "name": "Module__RecurringPaymentManager__InvalidEpochLength",
      "inputs": []
    },
    {
      "type": "error",
      "name": "Module__RecurringPaymentManager__InvalidRecurringPaymentId",
      "inputs": []
    },
    {
      "type": "error",
      "name": "Module__RecurringPaymentManager__InvalidStartEpoch",
      "inputs": []
    },
    {
      "type": "error",
      "name": "Module__RecurringPaymentManager__StartIdNotBeforeEndId",
      "inputs": []
    },
    {
      "type": "error",
      "name": "NotInitializing",
      "inputs": []
    },
    {
      "type": "error",
      "name": "SafeERC20FailedOperation",
      "inputs": [
        {
          "name": "token",
          "type": "address",
          "internalType": "address"
        }
      ]
    }
  ],
  "bytecode": {
    "object": "0x60806040523480156200001157600080fd5b506200001c62000022565b620000d6565b7ff0c57e16840df040f15088dc2f81fe391c3923bec73e23a9662efc9c229c6a00805468010000000000000000900460ff1615620000735760405163f92ee8a960e01b815260040160405180910390fd5b80546001600160401b0390811614620000d35780546001600160401b0319166001600160401b0390811782556040519081527fc7f505b2f371ae2175ee4913f4499e1f2633a7b5936321eed1cdaeb6115181d29060200160405180910390a15b50565b613b8d80620000e66000396000f3fe608060405234801561001057600080fd5b50600436106101c45760003560e01c80637998a1c4116100f9578063b97dd9e211610097578063c42542e311610071578063c42542e3146103a6578063c7829b6f146103f5578063c83e636214610408578063cfe8a73b1461041b57600080fd5b8063b97dd9e214610375578063bcb619201461037d578063c0231ff61461039057600080fd5b80639bfdf766116100d35780639bfdf7661461031e5780639e97857514610331578063a44a6bb214610344578063b74795d91461034c57600080fd5b80637998a1c4146102fb5780637fec8d38146103035780638008dd8e1461030b57600080fd5b806354fd4d501161016657806362fe48fd1161014057806362fe48fd146102ad578063648bc2cd146102c05780636c67e807146102d357806375fa0b76146102e657600080fd5b806354fd4d50146102775780635600f04f14610292578063572b6c051461029a57600080fd5b8063274b903a116101a2578063274b903a1461021b57806342dfe9581461023c5780634a79d50c1461024f578063502874781461026457600080fd5b806301ffc9a7146101c957806313e64063146101f15780631bf3bfe814610206575b600080fd5b6101dc6101d73660046131e2565b610423565b60405190151581526020015b60405180910390f35b6102046101ff366004613224565b61047f565b005b61020e6104df565b6040516101e8919061323d565b61022e610229366004613224565b6104f0565b6040519081526020016101e8565b61020461024a36600461339d565b610505565b610257610721565b6040516101e891906134c9565b61022e610272366004613224565b6107b6565b600154600254604080519283526020830191909152016101e8565b6102576107c3565b6101dc6102a83660046134dc565b6107d5565b6101dc6102bb366004613224565b610863565b6102046102ce3660046134f9565b610870565b6102046102e136600461351b565b610948565b6102ee610c1b565b6040516101e891906135b0565b61022e610ca5565b610204610df0565b61022e6103193660046135c3565b610e0a565b61020461032c3660046135fc565b6111f8565b6101dc61033f36600461364c565b6112a5565b60065461022e565b60005461010090046001600160a01b03166040516001600160a01b0390911681526020016101e8565b61022e6112c2565b61020461038b36600461351b565b6112d2565b610398611527565b6040516101e8929190613689565b6103b96103b4366004613224565b6116e5565b6040516101e891908151815260208083015190820152604080830151908201526060918201516001600160a01b03169181019190915260800190565b6102046104033660046134f9565b6117ac565b61022e610416366004613224565b611aca565b60085461022e565b60007fffffffff0000000000000000000000000000000000000000000000000000000082167f280d451b000000000000000000000000000000000000000000000000000000001480610479575061047982611ada565b92915050565b61048f61048a611b30565b611bef565b6104c5576040517f9c18b87800000000000000000000000000000000000000000000000000000000815260040160405180910390fd5b80600660008282546104d791906136da565b909155505050565b60606104eb600a611c82565b905090565b6000816104fb6112c2565b61047991906136ed565b7ff0c57e16840df040f15088dc2f81fe391c3923bec73e23a9662efc9c229c6a00805468010000000000000000810460ff16159067ffffffffffffffff166000811580156105505750825b905060008267ffffffffffffffff16600114801561056d5750303b155b90508115801561057b575080155b156105b2576040517ff92ee8a900000000000000000000000000000000000000000000000000000000815260040160405180910390fd5b84547fffffffffffffffffffffffffffffffffffffffffffffffff000000000000000016600117855583156106135784547fffffffffffffffffffffffffffffffffffffffffffffff00ffffffffffffffff16680100000000000000001785555b61061d8888611d3c565b6000196000819052600c6020527fa10f30cc98fff5708c93df4a220b8f117034e197ce203f377237571fbe641ae7819055600b55858060200190518101906106659190613700565b600881905562093a80118061067f57506301dfe200600854115b156106b6576040517fc47c56e300000000000000000000000000000000000000000000000000000000815260040160405180910390fd5b83156107175784547fffffffffffffffffffffffffffffffffffffffffffffff00ffffffffffffffff168555604051600181527fc7f505b2f371ae2175ee4913f4499e1f2633a7b5936321eed1cdaeb6115181d29060200160405180910390a15b5050505050505050565b60606001600301805461073390613719565b80601f016020809104026020016040519081016040528092919081815260200182805461075f90613719565b80156107ac5780601f10610781576101008083540402835291602001916107ac565b820191906000526020600020905b81548152906001019060200180831161078f57829003601f168201915b5050505050905090565b6000610479600a83611e9b565b60606001600201805461073390613719565b600080546040517f572b6c050000000000000000000000000000000000000000000000000000000081526001600160a01b0384811660048301526101009092049091169063572b6c0590602401602060405180830381865afa15801561083f573d6000803e3d6000fd5b505050506040513d601f19601f820116820180604052508101906104799190613776565b6000610479600a83611f8b565b8161087a81610863565b6108b0576040517f7ffc35d300000000000000000000000000000000000000000000000000000000815260040160405180910390fd5b816108ba81610863565b6108f0576040517f7ffc35d300000000000000000000000000000000000000000000000000000000815260040160405180910390fd5b83838082111561092c576040517f1738aafa00000000000000000000000000000000000000000000000000000000815260040160405180910390fd5b6109408661093b600a88611fb3565b612019565b505050505050565b60008060019054906101000a90046001600160a01b03166001600160a01b031663d09edf316040518163ffffffff1660e01b8152600401602060405180830381865afa15801561099c573d6000803e3d6000fd5b505050506040513d601f19601f820116820180604052508101906109c09190613791565b90506000816001600160a01b03166355ff58d46040518163ffffffff1660e01b8152600401602060405180830381865afa158015610a02573d6000803e3d6000fd5b505050506040513d601f19601f82011682018060405250810190610a269190613700565b9050816001600160a01b03166391d1485482610a40611b30565b6040517fffffffff0000000000000000000000000000000000000000000000000000000060e085901b16815260048101929092526001600160a01b03166024820152604401602060405180830381865afa158015610aa2573d6000803e3d6000fd5b505050506040513d601f19601f82011682018060405250810190610ac69190613776565b610b1c5780610ad3611b30565b6040517f42abbb7700000000000000000000000000000000000000000000000000000000815260048101929092526001600160a01b031660248201526044015b60405180910390fd5b60008060019054906101000a90046001600160a01b03166001600160a01b031663d09edf316040518163ffffffff1660e01b8152600401602060405180830381865afa158015610b70573d6000803e3d6000fd5b505050506040513d601f19601f82011682018060405250810190610b949190613791565b6040517fe1788154000000000000000000000000000000000000000000000000000000008152600481018790526001600160a01b0386811660248301529192509082169063e1788154906044015b600060405180830381600087803b158015610bfc57600080fd5b505af1158015610c10573d6000803e3d6000fd5b505050505050505050565b60606005805480602002602001604051908101604052809291908181526020016000905b82821015610c9c576000848152602090819020604080516080810182526004860290920180546001600160a01b03168352600180820154848601526002820154928401929092526003015460608301529083529092019101610c3f565b50505050905090565b604080516080810182526001805482526002546020830152600380546000946104eb94939290840191610cd790613719565b80601f0160208091040260200160405190810160405280929190818152602001828054610d0390613719565b8015610d505780601f10610d2557610100808354040283529160200191610d50565b820191906000526020600020905b815481529060010190602001808311610d3357829003601f168201915b50505050508152602001600382018054610d6990613719565b80601f0160208091040260200160405190810160405280929190818152602001828054610d9590613719565b8015610de25780601f10610db757610100808354040283529160200191610de2565b820191906000526020600020905b815481529060010190602001808311610dc557829003601f168201915b5050505050815250506122c2565b610e08610e00600a600019611fb3565b600019612019565b565b600080600060019054906101000a90046001600160a01b03166001600160a01b031663d09edf316040518163ffffffff1660e01b8152600401602060405180830381865afa158015610e60573d6000803e3d6000fd5b505050506040513d601f19601f82011682018060405250810190610e849190613791565b90506000816001600160a01b03166355ff58d46040518163ffffffff1660e01b8152600401602060405180830381865afa158015610ec6573d6000803e3d6000fd5b505050506040513d601f19601f82011682018060405250810190610eea9190613700565b90506000826001600160a01b031663328c4c306040518163ffffffff1660e01b8152600401602060405180830381865afa158015610f2c573d6000803e3d6000fd5b505050506040513d601f19601f82011682018060405250810190610f509190613700565b9050826001600160a01b03166391d1485483610f6a611b30565b6040517fffffffff0000000000000000000000000000000000000000000000000000000060e085901b16815260048101929092526001600160a01b03166024820152604401602060405180830381865afa158015610fcc573d6000803e3d6000fd5b505050506040513d601f19601f82011682018060405250810190610ff09190613776565b806110945750826001600160a01b03166391d148548261100e611b30565b6040517fffffffff0000000000000000000000000000000000000000000000000000000060e085901b16815260048101929092526001600160a01b03166024820152604401602060405180830381865afa158015611070573d6000803e3d6000fd5b505050506040513d601f19601f820116820180604052508101906110949190613776565b156111e557866110a381612302565b86806110ad6112c2565b11156110e5576040517f5c2cf0b800000000000000000000000000000000000000000000000000000000815260040160405180910390fd5b866110ef8161233f565b6000600760008154611100906137ae565b91829055509050611112600a82612394565b60008181526009602052604090208b815560019081018b9055611135908b6136da565b6000828152600960205260409020600281019190915560030180547fffffffffffffffffffffffff0000000000000000000000000000000000000000166001600160a01b038b16179055807f1c3e2cbb4bc61dfafd6e9635e41a29611c202472f2c4252180bc2aacfb5dcb2c8c8c6111ae6001826136da565b604080519384526020840192909252908201526001600160a01b038c16606082015260800160405180910390a296505050506111ee565b81610ad3611b30565b5050509392505050565b60005460ff1615611235576040517f904875a100000000000000000000000000000000000000000000000000000000815260040160405180910390fd5b600080547fffffffffffffffffffffffffffffffffffffffffffffffffffffffffffffff001660011790558061126a81612421565b6112a0576040517feef043ae00000000000000000000000000000000000000000000000000000000815260040160405180910390fd5b505050565b6000818060200190518101906112bb91906137f8565b5092915050565b6000600854426104eb91906138e4565b60008060019054906101000a90046001600160a01b03166001600160a01b031663d09edf316040518163ffffffff1660e01b8152600401602060405180830381865afa158015611326573d6000803e3d6000fd5b505050506040513d601f19601f8201168201806040525081019061134a9190613791565b90506000816001600160a01b03166355ff58d46040518163ffffffff1660e01b8152600401602060405180830381865afa15801561138c573d6000803e3d6000fd5b505050506040513d601f19601f820116820180604052508101906113b09190613700565b9050816001600160a01b03166391d14854826113ca611b30565b6040517fffffffff0000000000000000000000000000000000000000000000000000000060e085901b16815260048101929092526001600160a01b03166024820152604401602060405180830381865afa15801561142c573d6000803e3d6000fd5b505050506040513d601f19601f820116820180604052508101906114509190613776565b61145d5780610ad3611b30565b60008060019054906101000a90046001600160a01b03166001600160a01b031663d09edf316040518163ffffffff1660e01b8152600401602060405180830381865afa1580156114b1573d6000803e3d6000fd5b505050506040513d601f19601f820116820180604052508101906114d59190613791565b6040517fba66f9fc000000000000000000000000000000000000000000000000000000008152600481018790526001600160a01b0386811660248301529192509082169063ba66f9fc90604401610be2565b6060600061153661048a611b30565b61156c576040517f9c18b87800000000000000000000000000000000000000000000000000000000815260040160405180910390fd5b600554600090818167ffffffffffffffff81111561158c5761158c613296565b6040519080825280602002602001820160405280156115f157816020015b6115de604051806080016040528060006001600160a01b031681526020016000815260200160008152602001600081525090565b8152602001906001900390816115aa5790505b50905060005b828110156116ae57600581815481106116125761161261391f565b600091825260209182902060408051608081018252600490930290910180546001600160a01b03168352600181015493830193909352600283015490820152600390910154606082015282518390839081106116705761167061391f565b602002602001018190525081818151811061168d5761168d61391f565b602002602001015160200151846116a491906136ed565b93506001016115f7565b506116bb60056000613176565b6116cc6116c6611b30565b84612527565b6116d7600654612618565b600654909590945092505050565b611719604051806080016040528060008152602001600081526020016000815260200160006001600160a01b031681525090565b8161172381610863565b611759576040517f7ffc35d300000000000000000000000000000000000000000000000000000000815260040160405180910390fd5b6000838152600960209081526040918290208251608081018452815481526001820154928101929092526002810154928201929092526003909101546001600160a01b0316606082015291505b50919050565b60008060019054906101000a90046001600160a01b03166001600160a01b031663d09edf316040518163ffffffff1660e01b8152600401602060405180830381865afa158015611800573d6000803e3d6000fd5b505050506040513d601f19601f820116820180604052508101906118249190613791565b90506000816001600160a01b03166355ff58d46040518163ffffffff1660e01b8152600401602060405180830381865afa158015611866573d6000803e3d6000fd5b505050506040513d601f19601f8201168201806040525081019061188a9190613700565b90506000826001600160a01b031663328c4c306040518163ffffffff1660e01b8152600401602060405180830381865afa1580156118cc573d6000803e3d6000fd5b505050506040513d601f19601f820116820180604052508101906118f09190613700565b9050826001600160a01b03166391d148548361190a611b30565b6040517fffffffff0000000000000000000000000000000000000000000000000000000060e085901b16815260048101929092526001600160a01b03166024820152604401602060405180830381865afa15801561196c573d6000803e3d6000fd5b505050506040513d601f19601f820116820180604052508101906119909190613776565b80611a345750826001600160a01b03166391d14854826119ae611b30565b6040517fffffffff0000000000000000000000000000000000000000000000000000000060e085901b16815260048101929092526001600160a01b03166024820152604401602060405180830381865afa158015611a10573d6000803e3d6000fd5b505050506040513d601f19601f82011682018060405250810190611a349190613776565b156111e557611a488461093b600a82611fb3565b611a54600a8686612949565b600084815260096020526040808220828155600181018390556002810183905560030180547fffffffffffffffffffffffff00000000000000000000000000000000000000001690555185917f49dd16c810a73510f0cdd59f21ce525b27c468a7f759207177bc9a1e4820266691a25050505050565b60006008548261047991906138e4565b60007fffffffff0000000000000000000000000000000000000000000000000000000082167f02753f51000000000000000000000000000000000000000000000000000000001480610479575061047982612a2a565b600080546040517f572b6c050000000000000000000000000000000000000000000000000000000081523360048201526101009091046001600160a01b03169063572b6c0590602401602060405180830381865afa158015611b96573d6000803e3d6000fd5b505050506040513d601f19601f82011682018060405250810190611bba9190613776565b15611bea57507fffffffffffffffffffffffffffffffffffffffffffffffffffffffffffffffec36013560601c90565b503390565b6000816001600160a01b0316600060019054906101000a90046001600160a01b03166001600160a01b031663f1c6bdf86040518163ffffffff1660e01b8152600401602060405180830381865afa158015611c4e573d6000803e3d6000fd5b505050506040513d601f19601f82011682018060405250810190611c729190613791565b6001600160a01b03161492915050565b60606000826000015467ffffffffffffffff811115611ca357611ca3613296565b604051908082528060200260200182016040528015611ccc578160200160208202803683370190505b506000196000908152600285016020526040812054919250905b6000198114611d335780838381518110611d0257611d0261391f565b6020908102919091018101919091526000918252600286019052604090205481611d2b816137ae565b925050611ce6565b50909392505050565b611d44612ac1565b6001600160a01b038216611d84576040517f7280679300000000000000000000000000000000000000000000000000000000815260040160405180910390fd5b600080547fffffffffffffffffffffff0000000000000000000000000000000000000000ff166101006001600160a01b03851602179055611dc481612b28565b611dfa576040517f7511254100000000000000000000000000000000000000000000000000000000815260040160405180910390fd5b8051600190815560208201516002556040820151829190600390611e1e9082613996565b5060608201516003820190611e339082613996565b5050506060810151604051611e489190613a56565b604080519182900382208351602080860151918552840152916001600160a01b038516917feb175f148a71d29a5f7bf5439182fcd81e6ea9cfc8a11b54ab0f705fa98fa8ca910160405180910390a35050565b6000818152600283016020526040812054839083908303611ee8576040517ff7fd4fb200000000000000000000000000000000000000000000000000000000815260040160405180910390fd5b6000198403611efd5784600101549250611f83565b6000611f0886611c82565b805190915060005b81811015611f7f5786838281518110611f2b57611f2b61391f565b602002602001015103611f775780600003611f4857600019611f6d565b82611f546001836136da565b81518110611f6457611f6461391f565b60200260200101515b9550505050611f83565b600101611f10565b5050505b505092915050565b600081815260028301602052604081205415801590611fac57506000198214155b9392505050565b6000818152600283016020526040812054839083908303612000576040517ff7fd4fb200000000000000000000000000000000000000000000000000000000815260040160405180910390fd5b5050506000908152600291909101602052604090205490565b8160006120246112c2565b905061205a604051806080016040528060008152602001600081526020016000815260200160006001600160a01b031681525090565b60005b8484146121a4576000848152600960209081526040918290208251608081018452815481526001820154928101839052600282015493810193909352600301546001600160a01b03166060830152909250831061218e5760408201516120c390846136da565b9050801561218e5761211d604051806080016040528084606001516001600160a01b031681526020018460000151815260200142815260200160085486600161210c91906136ed565b6121169190613a72565b9052612b7a565b600181111561217957612179604051806080016040528084606001516001600160a01b0316815260200160018461215491906136da565b85516121609190613a72565b8152602001428152602001600854866121169190613a72565b60008481526009602052604090206002018390555b6000938452600c6020526040909320549261205d565b60405183907f80e11167e6b80b8377b5697de9ae975af33e62fd6418deb3ab3f29f2afad7efc90600090a2600060019054906101000a90046001600160a01b03166001600160a01b031663f1c6bdf86040518163ffffffff1660e01b8152600401602060405180830381865afa158015612222573d6000803e3d6000fd5b505050506040513d601f19601f820116820180604052508101906122469190613791565b6040517fe151fc610000000000000000000000000000000000000000000000000000000081523060048201526001600160a01b03919091169063e151fc6190602401600060405180830381600087803b1580156122a257600080fd5b505af11580156122b6573d6000803e3d6000fd5b50505050505050505050565b60008160000151826040015183606001516040516020016122e593929190613a89565b604051602081830303815290604052805190602001209050919050565b8060000361233c576040517f53b30ec100000000000000000000000000000000000000000000000000000000815260040160405180910390fd5b50565b6001600160a01b038116158061235d57506001600160a01b03811630145b1561233c576040517ff541b81500000000000000000000000000000000000000000000000000000000815260040160405180910390fd5b81816123a08282611f8b565b806123a9575080155b156123e0576040517f582fbbaf00000000000000000000000000000000000000000000000000000000815260040160405180910390fd5b600184018054600090815260028601602052604080822086905585825281206000199055908490558454908590612416836137ae565b919050555050505050565b6040517f9e9785750000000000000000000000000000000000000000000000000000000081526000903090639e978575906124609085906004016134c9565b602060405180830381865afa925050508015612499575060408051601f3d908101601f1916820190925261249691810190613776565b60015b6124a557506000919050565b6040517f9e9785750000000000000000000000000000000000000000000000000000000081523090639e978575906124e19086906004016134c9565b602060405180830381865afa1580156124fe573d6000803e3d6000fd5b505050506040513d601f19601f82011682018060405250810190611fac9190613776565b919050565b6126148282600060019054906101000a90046001600160a01b03166001600160a01b03166304baed9e6040518163ffffffff1660e01b8152600401602060405180830381865afa15801561257f573d6000803e3d6000fd5b505050506040513d601f19601f820116820180604052508101906125a39190613791565b6001600160a01b031663fc0c546a6040518163ffffffff1660e01b8152600401602060405180830381865afa1580156125e0573d6000803e3d6000fd5b505050506040513d601f19601f820116820180604052508101906126049190613791565b6001600160a01b03169190612ccd565b5050565b60008060019054906101000a90046001600160a01b03166001600160a01b03166304baed9e6040518163ffffffff1660e01b8152600401602060405180830381865afa15801561266c573d6000803e3d6000fd5b505050506040513d601f19601f820116820180604052508101906126909190613791565b6001600160a01b031663fc0c546a6040518163ffffffff1660e01b8152600401602060405180830381865afa1580156126cd573d6000803e3d6000fd5b505050506040513d601f19601f820116820180604052508101906126f19190613791565b6040517f70a082310000000000000000000000000000000000000000000000000000000081523060048201526001600160a01b0391909116906370a0823190602401602060405180830381865afa158015612750573d6000803e3d6000fd5b505050506040513d601f19601f820116820180604052508101906127749190613700565b9050818110156126145760008054604080517f04baed9e00000000000000000000000000000000000000000000000000000000815290516101009092046001600160a01b03169163685dc6b19183916304baed9e916004808201926020929091908290030181865afa1580156127ee573d6000803e3d6000fd5b505050506040513d601f19601f820116820180604052508101906128129190613791565b3061281d86886136da565b6040516001600160a01b039092166024830152604482015260640160408051601f198184030181529181526020820180517bffffffffffffffffffffffffffffffffffffffffffffffffffffffff167f759cc4b500000000000000000000000000000000000000000000000000000000179052517fffffffff0000000000000000000000000000000000000000000000000000000060e085901b1681526128c8929190600401613ac6565b6000604051808303816000875af11580156128e7573d6000803e3d6000fd5b505050506040513d6000823e601f3d908101601f1916820160405261290f9190810190613ae8565b509050806112a0576040517fa9a9111100000000000000000000000000000000000000000000000000000000815260040160405180910390fd5b82816129558282611f8b565b61298b576040517f8f454d2d00000000000000000000000000000000000000000000000000000000815260040160405180910390fd5b600084815260028601602052604090205485908590859081146129da576040517f3065847500000000000000000000000000000000000000000000000000000000815260040160405180910390fd5b600086815260028901602052604080822080548a8452918320919091558782528190558854908990612a0b83613b40565b9190505550876001015486036107175750505050506001929092015550565b60007fffffffff0000000000000000000000000000000000000000000000000000000082167fd883df1200000000000000000000000000000000000000000000000000000000148061047957507f01ffc9a7000000000000000000000000000000000000000000000000000000007fffffffff00000000000000000000000000000000000000000000000000000000831614610479565b7ff0c57e16840df040f15088dc2f81fe391c3923bec73e23a9662efc9c229c6a005468010000000000000000900460ff16610e08576040517fd7e6bcf800000000000000000000000000000000000000000000000000000000815260040160405180910390fd5b6000816040015151600003612b3f57506000919050565b816060015151600003612b5457506000919050565b8151158015612b6557506020820151155b15612b7257506000919050565b506001919050565b80612b8481612d76565b816020015160066000828254612b9a91906136ed565b909155505060058054600181018255600091909152825160049091027f036b6384b5eca791c62761152d0c79bb0604c104a5fb6f4eb0703f3154bb3db0810180546001600160a01b039093167fffffffffffffffffffffffff00000000000000000000000000000000000000009093168317905560208401517f036b6384b5eca791c62761152d0c79bb0604c104a5fb6f4eb0703f3154bb3db182018190556040808601517f036b6384b5eca791c62761152d0c79bb0604c104a5fb6f4eb0703f3154bb3db284015560608601517f036b6384b5eca791c62761152d0c79bb0604c104a5fb6f4eb0703f3154bb3db39093019290925590517ffc9138d87583f51297afba99687e2a6bcf276a5e3e3ccec11b3ca0052ac2e9d991612cc19190815260200190565b60405180910390a25050565b6040517fdd62ed3e0000000000000000000000000000000000000000000000000000000081523060048201526001600160a01b0383811660248301526000919085169063dd62ed3e90604401602060405180830381865afa158015612d36573d6000803e3d6000fd5b505050506040513d601f19601f82011682018060405250810190612d5a9190613700565b9050612d708484612d6b85856136ed565b612e09565b50505050565b8060200151600003612db4576040517f53b30ec100000000000000000000000000000000000000000000000000000000815260040160405180910390fd5b80516001600160a01b0316158061235d575080516001600160a01b0316300361233c576040517ff541b81500000000000000000000000000000000000000000000000000000000815260040160405180910390fd5b604080516001600160a01b038416602482015260448082018490528251808303909101815260649091019091526020810180517bffffffffffffffffffffffffffffffffffffffffffffffffffffffff167f095ea7b300000000000000000000000000000000000000000000000000000000179052612e888482612f19565b612d7057604080516001600160a01b038516602482015260006044808301919091528251808303909101815260649091019091526020810180517bffffffffffffffffffffffffffffffffffffffffffffffffffffffff167f095ea7b300000000000000000000000000000000000000000000000000000000179052612f0f908590612fc1565b612d708482612fc1565b6000806000846001600160a01b031684604051612f369190613a56565b6000604051808303816000865af19150503d8060008114612f73576040519150601f19603f3d011682016040523d82523d6000602084013e612f78565b606091505b5091509150818015612fa2575080511580612fa2575080806020019051810190612fa29190613776565b8015612fb857506000856001600160a01b03163b115b95945050505050565b6000612fd66001600160a01b0384168361303d565b90508051600014158015612ffb575080806020019051810190612ff99190613776565b155b156112a0576040517f5274afe70000000000000000000000000000000000000000000000000000000081526001600160a01b0384166004820152602401610b13565b6060611fac8383600084600080856001600160a01b031684866040516130639190613a56565b60006040518083038185875af1925050503d80600081146130a0576040519150601f19603f3d011682016040523d82523d6000602084013e6130a5565b606091505b50915091506130b58683836130bf565b9695505050505050565b6060826130d4576130cf82613134565b611fac565b81511580156130eb57506001600160a01b0384163b155b1561312d576040517f9996b3150000000000000000000000000000000000000000000000000000000081526001600160a01b0385166004820152602401610b13565b5080611fac565b8051156131445780518082602001fd5b6040517f1425ea4200000000000000000000000000000000000000000000000000000000815260040160405180910390fd5b508054600082556004029060005260206000209081019061233c91905b808211156131de5780547fffffffffffffffffffffffff0000000000000000000000000000000000000000168155600060018201819055600282018190556003820155600401613193565b5090565b6000602082840312156131f457600080fd5b81357fffffffff0000000000000000000000000000000000000000000000000000000081168114611fac57600080fd5b60006020828403121561323657600080fd5b5035919050565b6020808252825182820181905260009190848201906040850190845b8181101561327557835183529284019291840191600101613259565b50909695505050505050565b6001600160a01b038116811461233c57600080fd5b7f4e487b7100000000000000000000000000000000000000000000000000000000600052604160045260246000fd5b6040516080810167ffffffffffffffff811182821017156132e8576132e8613296565b60405290565b604051601f8201601f1916810167ffffffffffffffff8111828210171561331757613317613296565b604052919050565b600067ffffffffffffffff82111561333957613339613296565b50601f01601f191660200190565b600082601f83011261335857600080fd5b813561336b6133668261331f565b6132ee565b81815284602083860101111561338057600080fd5b816020850160208301376000918101602001919091529392505050565b6000806000606084860312156133b257600080fd5b83356133bd81613281565b9250602084013567ffffffffffffffff808211156133da57600080fd5b90850190608082880312156133ee57600080fd5b6133f66132c5565b823581526020830135602082015260408301358281111561341657600080fd5b61342289828601613347565b60408301525060608301358281111561343a57600080fd5b61344689828601613347565b6060830152509350604086013591508082111561346257600080fd5b5061346f86828701613347565b9150509250925092565b60005b8381101561349457818101518382015260200161347c565b50506000910152565b600081518084526134b5816020860160208601613479565b601f01601f19169290920160200192915050565b602081526000611fac602083018461349d565b6000602082840312156134ee57600080fd5b8135611fac81613281565b6000806040838503121561350c57600080fd5b50508035926020909101359150565b6000806040838503121561352e57600080fd5b82359150602083013561354081613281565b809150509250929050565b60008151808452602080850194506020840160005b838110156135a557815180516001600160a01b031688528381015184890152604080820151908901526060908101519088015260809096019590820190600101613560565b509495945050505050565b602081526000611fac602083018461354b565b6000806000606084860312156135d857600080fd5b833592506020840135915060408401356135f181613281565b809150509250925092565b6000806040838503121561360f57600080fd5b823561361a81613281565b9150602083013567ffffffffffffffff81111561363657600080fd5b61364285828601613347565b9150509250929050565b60006020828403121561365e57600080fd5b813567ffffffffffffffff81111561367557600080fd5b61368184828501613347565b949350505050565b60408152600061369c604083018561354b565b90508260208301529392505050565b7f4e487b7100000000000000000000000000000000000000000000000000000000600052601160045260246000fd5b81810381811115610479576104796136ab565b80820180821115610479576104796136ab565b60006020828403121561371257600080fd5b5051919050565b600181811c9082168061372d57607f821691505b6020821081036117a6577f4e487b7100000000000000000000000000000000000000000000000000000000600052602260045260246000fd5b8051801515811461252257600080fd5b60006020828403121561378857600080fd5b611fac82613766565b6000602082840312156137a357600080fd5b8151611fac81613281565b600060001982036137c1576137c16136ab565b5060010190565b60006137d66133668461331f565b90508281528383830111156137ea57600080fd5b611fac836020830184613479565b600080604080848603121561380c57600080fd5b61381584613766565b925060208085015167ffffffffffffffff8082111561383357600080fd5b818701915087601f83011261384757600080fd5b81518181111561385957613859613296565b8060051b6138688582016132ee565b918252838101850191858101908b84111561388257600080fd5b86860192505b838310156138d2578251858111156138a05760008081fd5b8601603f81018d136138b25760008081fd5b6138c28d898301518b84016137c8565b8352509186019190860190613888565b80985050505050505050509250929050565b60008261391a577f4e487b7100000000000000000000000000000000000000000000000000000000600052601260045260246000fd5b500490565b7f4e487b7100000000000000000000000000000000000000000000000000000000600052603260045260246000fd5b601f8211156112a0576000816000526020600020601f850160051c810160208610156139775750805b601f850160051c820191505b8181101561094057828155600101613983565b815167ffffffffffffffff8111156139b0576139b0613296565b6139c4816139be8454613719565b8461394e565b602080601f8311600181146139f957600084156139e15750858301515b600019600386901b1c1916600185901b178555610940565b600085815260208120601f198616915b82811015613a2857888601518255948401946001909101908401613a09565b5085821015613a465787850151600019600388901b60f8161c191681555b5050505050600190811b01905550565b60008251613a68818460208701613479565b9190910192915050565b8082028115828204841417610479576104796136ab565b83815260008351613aa1816020850160208801613479565b80830190508351613ab9816020840160208801613479565b0160200195945050505050565b6001600160a01b0383168152604060208201526000613681604083018461349d565b60008060408385031215613afb57600080fd5b613b0483613766565b9150602083015167ffffffffffffffff811115613b2057600080fd5b8301601f81018513613b3157600080fd5b613642858251602084016137c8565b600081613b4f57613b4f6136ab565b50600019019056fea2646970667358221220fe8fe015b2393e86a2dba53dcbe662002a132bb77dd62c3149a67c844a39ac6664736f6c63430008170033",
    "linkReferences": {}
  },
  "methodIdentifiers": {
    "addRecurringPayment(uint256,uint256,address)": "8008dd8e",
    "amountPaid(uint256)": "13e64063",
    "collectPaymentOrders()": "c0231ff6",
    "decoder(bytes)": "9e978575",
    "getCurrentEpoch()": "b97dd9e2",
    "getEpochFromTimestamp(uint256)": "c83e6362",
    "getEpochLength()": "cfe8a73b",
    "getFutureEpoch(uint256)": "274b903a",
    "getPreviousPaymentId(uint256)": "50287478",
    "getRecurringPaymentInformation(uint256)": "c42542e3",
    "grantModuleRole(bytes32,address)": "6c67e807",
    "identifier()": "7998a1c4",
    "init(address,(uint256,uint256,string,string),bytes)": "42dfe958",
    "init2(address,bytes)": "9bfdf766",
    "isExistingRecurringPaymentId(uint256)": "62fe48fd",
    "isTrustedForwarder(address)": "572b6c05",
    "listRecurringPaymentIds()": "1bf3bfe8",
    "orchestrator()": "b74795d9",
    "outstandingTokenAmount()": "a44a6bb2",
    "paymentOrders()": "75fa0b76",
    "removeRecurringPayment(uint256,uint256)": "c7829b6f",
    "revokeModuleRole(bytes32,address)": "bcb61920",
    "supportsInterface(bytes4)": "01ffc9a7",
    "title()": "4a79d50c",
    "trigger()": "7fec8d38",
    "triggerFor(uint256,uint256)": "648bc2cd",
    "url()": "5600f04f",
    "version()": "54fd4d50"
  },
  "id": 127
}