{
    "abi": [
        {
            "type": "function",
            "name": "BURN_ADMIN_ROLE",
            "inputs": [],
            "outputs": [
                {
                    "name": "",
                    "type": "bytes32",
                    "internalType": "bytes32"
                }
            ],
            "stateMutability": "view"
        },
        {
            "type": "function",
            "name": "DEFAULT_ADMIN_ROLE",
            "inputs": [],
            "outputs": [
                {
                    "name": "",
                    "type": "bytes32",
                    "internalType": "bytes32"
                }
            ],
            "stateMutability": "view"
        },
        {
            "type": "function",
            "name": "ORCHESTRATOR_MANAGER_ROLE",
            "inputs": [],
            "outputs": [
                {
                    "name": "",
                    "type": "bytes32",
                    "internalType": "bytes32"
                }
            ],
            "stateMutability": "view"
        },
        {
            "type": "function",
            "name": "ORCHESTRATOR_OWNER_ROLE",
            "inputs": [],
            "outputs": [
                {
                    "name": "",
                    "type": "bytes32",
                    "internalType": "bytes32"
                }
            ],
            "stateMutability": "view"
        },
        {
            "type": "function",
            "name": "burnAdminFromModuleRole",
            "inputs": [
                {
                    "name": "role",
                    "type": "bytes32",
                    "internalType": "bytes32"
                }
            ],
            "outputs": [],
            "stateMutability": "nonpayable"
        },
        {
            "type": "function",
            "name": "decoder",
            "inputs": [
                {
                    "name": "data",
                    "type": "bytes",
                    "internalType": "bytes"
                }
            ],
            "outputs": [
                {
                    "name": "requirement",
                    "type": "bool",
                    "internalType": "bool"
                }
            ],
            "stateMutability": "pure"
        },
        {
            "type": "function",
            "name": "generateRoleId",
            "inputs": [
                {
                    "name": "module",
                    "type": "address",
                    "internalType": "address"
                },
                {
                    "name": "role",
                    "type": "bytes32",
                    "internalType": "bytes32"
                }
            ],
            "outputs": [
                {
                    "name": "",
                    "type": "bytes32",
                    "internalType": "bytes32"
                }
            ],
            "stateMutability": "pure"
        },
        {
            "type": "function",
            "name": "getManagerRole",
            "inputs": [],
            "outputs": [
                {
                    "name": "",
                    "type": "bytes32",
                    "internalType": "bytes32"
                }
            ],
            "stateMutability": "pure"
        },
        {
            "type": "function",
            "name": "getOwnerRole",
            "inputs": [],
            "outputs": [
                {
                    "name": "",
                    "type": "bytes32",
                    "internalType": "bytes32"
                }
            ],
            "stateMutability": "pure"
        },
        {
            "type": "function",
            "name": "getRoleAdmin",
            "inputs": [
                {
                    "name": "role",
                    "type": "bytes32",
                    "internalType": "bytes32"
                }
            ],
            "outputs": [
                {
                    "name": "",
                    "type": "bytes32",
                    "internalType": "bytes32"
                }
            ],
            "stateMutability": "view"
        },
        {
            "type": "function",
            "name": "getRoleMember",
            "inputs": [
                {
                    "name": "role",
                    "type": "bytes32",
                    "internalType": "bytes32"
                },
                {
                    "name": "index",
                    "type": "uint256",
                    "internalType": "uint256"
                }
            ],
            "outputs": [
                {
                    "name": "",
                    "type": "address",
                    "internalType": "address"
                }
            ],
            "stateMutability": "view"
        },
        {
            "type": "function",
            "name": "getRoleMemberCount",
            "inputs": [
                {
                    "name": "role",
                    "type": "bytes32",
                    "internalType": "bytes32"
                }
            ],
            "outputs": [
                {
                    "name": "",
                    "type": "uint256",
                    "internalType": "uint256"
                }
            ],
            "stateMutability": "view"
        },
        {
            "type": "function",
            "name": "getThresholdValue",
            "inputs": [
                {
                    "name": "roleId",
                    "type": "bytes32",
                    "internalType": "bytes32"
                },
                {
                    "name": "token",
                    "type": "address",
                    "internalType": "address"
                }
            ],
            "outputs": [
                {
                    "name": "",
                    "type": "uint256",
                    "internalType": "uint256"
                }
            ],
            "stateMutability": "view"
        },
        {
            "type": "function",
            "name": "grantGlobalRole",
            "inputs": [
                {
                    "name": "role",
                    "type": "bytes32",
                    "internalType": "bytes32"
                },
                {
                    "name": "target",
                    "type": "address",
                    "internalType": "address"
                }
            ],
            "outputs": [],
            "stateMutability": "nonpayable"
        },
        {
            "type": "function",
            "name": "grantModuleRole",
            "inputs": [
                {
                    "name": "role",
                    "type": "bytes32",
                    "internalType": "bytes32"
                },
                {
                    "name": "addr",
                    "type": "address",
                    "internalType": "address"
                }
            ],
            "outputs": [],
            "stateMutability": "nonpayable"
        },
        {
            "type": "function",
            "name": "grantRole",
            "inputs": [
                {
                    "name": "role",
                    "type": "bytes32",
                    "internalType": "bytes32"
                },
                {
                    "name": "account",
                    "type": "address",
                    "internalType": "address"
                }
            ],
            "outputs": [],
            "stateMutability": "nonpayable"
        },
        {
            "type": "function",
            "name": "grantRoleFromModule",
            "inputs": [
                {
                    "name": "role",
                    "type": "bytes32",
                    "internalType": "bytes32"
                },
                {
                    "name": "target",
                    "type": "address",
                    "internalType": "address"
                }
            ],
            "outputs": [],
            "stateMutability": "nonpayable"
        },
        {
            "type": "function",
            "name": "grantTokenRoleFromModule",
            "inputs": [
                {
                    "name": "role",
                    "type": "bytes32",
                    "internalType": "bytes32"
                },
                {
                    "name": "token",
                    "type": "address",
                    "internalType": "address"
                },
                {
                    "name": "threshold",
                    "type": "uint256",
                    "internalType": "uint256"
                }
            ],
            "outputs": [],
            "stateMutability": "nonpayable"
        },
        {
            "type": "function",
            "name": "hasModuleRole",
            "inputs": [
                {
                    "name": "role",
                    "type": "bytes32",
                    "internalType": "bytes32"
                },
                {
                    "name": "who",
                    "type": "address",
                    "internalType": "address"
                }
            ],
            "outputs": [
                {
                    "name": "",
                    "type": "bool",
                    "internalType": "bool"
                }
            ],
            "stateMutability": "view"
        },
        {
            "type": "function",
            "name": "hasRole",
            "inputs": [
                {
                    "name": "roleId",
                    "type": "bytes32",
                    "internalType": "bytes32"
                },
                {
                    "name": "account",
                    "type": "address",
                    "internalType": "address"
                }
            ],
            "outputs": [
                {
                    "name": "",
                    "type": "bool",
                    "internalType": "bool"
                }
            ],
            "stateMutability": "view"
        },
        {
            "type": "function",
            "name": "hasTokenRole",
            "inputs": [
                {
                    "name": "role",
                    "type": "bytes32",
                    "internalType": "bytes32"
                },
                {
                    "name": "who",
                    "type": "address",
                    "internalType": "address"
                }
            ],
            "outputs": [
                {
                    "name": "",
                    "type": "bool",
                    "internalType": "bool"
                }
            ],
            "stateMutability": "view"
        },
        {
            "type": "function",
            "name": "identifier",
            "inputs": [],
            "outputs": [
                {
                    "name": "",
                    "type": "bytes32",
                    "internalType": "bytes32"
                }
            ],
            "stateMutability": "view"
        },
        {
            "type": "function",
            "name": "init",
            "inputs": [
                {
                    "name": "orchestrator_",
                    "type": "address",
                    "internalType": "contract IOrchestrator"
                },
                {
                    "name": "metadata",
                    "type": "tuple",
                    "internalType": "struct IModule.Metadata",
                    "components": [
                        {
                            "name": "majorVersion",
                            "type": "uint256",
                            "internalType": "uint256"
                        },
                        {
                            "name": "minorVersion",
                            "type": "uint256",
                            "internalType": "uint256"
                        },
                        {
                            "name": "url",
                            "type": "string",
                            "internalType": "string"
                        },
                        {
                            "name": "title",
                            "type": "string",
                            "internalType": "string"
                        }
                    ]
                },
                {
                    "name": "configData",
                    "type": "bytes",
                    "internalType": "bytes"
                }
            ],
            "outputs": [],
            "stateMutability": "nonpayable"
        },
        {
            "type": "function",
            "name": "init2",
            "inputs": [
                {
                    "name": "orchestrator_",
                    "type": "address",
                    "internalType": "contract IOrchestrator"
                },
                {
                    "name": "dependencyData",
                    "type": "bytes",
                    "internalType": "bytes"
                }
            ],
            "outputs": [],
            "stateMutability": "nonpayable"
        },
        {
            "type": "function",
            "name": "isTokenGated",
            "inputs": [
                {
                    "name": "",
                    "type": "bytes32",
                    "internalType": "bytes32"
                }
            ],
            "outputs": [
                {
                    "name": "",
                    "type": "bool",
                    "internalType": "bool"
                }
            ],
            "stateMutability": "view"
        },
        {
            "type": "function",
            "name": "isTrustedForwarder",
            "inputs": [
                {
                    "name": "forwarder",
                    "type": "address",
                    "internalType": "address"
                }
            ],
            "outputs": [
                {
                    "name": "",
                    "type": "bool",
                    "internalType": "bool"
                }
            ],
            "stateMutability": "view"
        },
        {
            "type": "function",
            "name": "makeRoleTokenGatedFromModule",
            "inputs": [
                {
                    "name": "role",
                    "type": "bytes32",
                    "internalType": "bytes32"
                }
            ],
            "outputs": [],
            "stateMutability": "nonpayable"
        },
        {
            "type": "function",
            "name": "orchestrator",
            "inputs": [],
            "outputs": [
                {
                    "name": "",
                    "type": "address",
                    "internalType": "contract IOrchestrator"
                }
            ],
            "stateMutability": "view"
        },
        {
            "type": "function",
            "name": "renounceRole",
            "inputs": [
                {
                    "name": "role",
                    "type": "bytes32",
                    "internalType": "bytes32"
                },
                {
                    "name": "callerConfirmation",
                    "type": "address",
                    "internalType": "address"
                }
            ],
            "outputs": [],
            "stateMutability": "nonpayable"
        },
        {
            "type": "function",
            "name": "revokeGlobalRole",
            "inputs": [
                {
                    "name": "role",
                    "type": "bytes32",
                    "internalType": "bytes32"
                },
                {
                    "name": "target",
                    "type": "address",
                    "internalType": "address"
                }
            ],
            "outputs": [],
            "stateMutability": "nonpayable"
        },
        {
            "type": "function",
            "name": "revokeModuleRole",
            "inputs": [
                {
                    "name": "role",
                    "type": "bytes32",
                    "internalType": "bytes32"
                },
                {
                    "name": "addr",
                    "type": "address",
                    "internalType": "address"
                }
            ],
            "outputs": [],
            "stateMutability": "nonpayable"
        },
        {
            "type": "function",
            "name": "revokeRole",
            "inputs": [
                {
                    "name": "role",
                    "type": "bytes32",
                    "internalType": "bytes32"
                },
                {
                    "name": "account",
                    "type": "address",
                    "internalType": "address"
                }
            ],
            "outputs": [],
            "stateMutability": "nonpayable"
        },
        {
            "type": "function",
            "name": "revokeRoleFromModule",
            "inputs": [
                {
                    "name": "role",
                    "type": "bytes32",
                    "internalType": "bytes32"
                },
                {
                    "name": "target",
                    "type": "address",
                    "internalType": "address"
                }
            ],
            "outputs": [],
            "stateMutability": "nonpayable"
        },
        {
            "type": "function",
            "name": "setThreshold",
            "inputs": [
                {
                    "name": "roleId",
                    "type": "bytes32",
                    "internalType": "bytes32"
                },
                {
                    "name": "token",
                    "type": "address",
                    "internalType": "address"
                },
                {
                    "name": "threshold",
                    "type": "uint256",
                    "internalType": "uint256"
                }
            ],
            "outputs": [],
            "stateMutability": "nonpayable"
        },
        {
            "type": "function",
            "name": "setThresholdFromModule",
            "inputs": [
                {
                    "name": "role",
                    "type": "bytes32",
                    "internalType": "bytes32"
                },
                {
                    "name": "token",
                    "type": "address",
                    "internalType": "address"
                },
                {
                    "name": "threshold",
                    "type": "uint256",
                    "internalType": "uint256"
                }
            ],
            "outputs": [],
            "stateMutability": "nonpayable"
        },
        {
            "type": "function",
            "name": "setTokenGated",
            "inputs": [
                {
                    "name": "role",
                    "type": "bytes32",
                    "internalType": "bytes32"
                },
                {
                    "name": "to",
                    "type": "bool",
                    "internalType": "bool"
                }
            ],
            "outputs": [],
            "stateMutability": "nonpayable"
        },
        {
            "type": "function",
            "name": "supportsInterface",
            "inputs": [
                {
                    "name": "interfaceId",
                    "type": "bytes4",
                    "internalType": "bytes4"
                }
            ],
            "outputs": [
                {
                    "name": "",
                    "type": "bool",
                    "internalType": "bool"
                }
            ],
            "stateMutability": "view"
        },
        {
            "type": "function",
            "name": "thresholdMap",
            "inputs": [
                {
                    "name": "",
                    "type": "bytes32",
                    "internalType": "bytes32"
                }
            ],
            "outputs": [
                {
                    "name": "",
                    "type": "uint256",
                    "internalType": "uint256"
                }
            ],
            "stateMutability": "view"
        },
        {
            "type": "function",
            "name": "title",
            "inputs": [],
            "outputs": [
                {
                    "name": "",
                    "type": "string",
                    "internalType": "string"
                }
            ],
            "stateMutability": "view"
        },
        {
            "type": "function",
            "name": "transferAdminRole",
            "inputs": [
                {
                    "name": "roleId",
                    "type": "bytes32",
                    "internalType": "bytes32"
                },
                {
                    "name": "newAdmin",
                    "type": "bytes32",
                    "internalType": "bytes32"
                }
            ],
            "outputs": [],
            "stateMutability": "nonpayable"
        },
        {
            "type": "function",
            "name": "url",
            "inputs": [],
            "outputs": [
                {
                    "name": "",
                    "type": "string",
                    "internalType": "string"
                }
            ],
            "stateMutability": "view"
        },
        {
            "type": "function",
            "name": "version",
            "inputs": [],
            "outputs": [
                {
                    "name": "",
                    "type": "uint256",
                    "internalType": "uint256"
                },
                {
                    "name": "",
                    "type": "uint256",
                    "internalType": "uint256"
                }
            ],
            "stateMutability": "view"
        },
        {
            "type": "event",
            "name": "ChangedTokenGating",
            "inputs": [
                {
                    "name": "role",
                    "type": "bytes32",
                    "indexed": false,
                    "internalType": "bytes32"
                },
                {
                    "name": "newValue",
                    "type": "bool",
                    "indexed": false,
                    "internalType": "bool"
                }
            ],
            "anonymous": false
        },
        {
            "type": "event",
            "name": "ChangedTokenThreshold",
            "inputs": [
                {
                    "name": "role",
                    "type": "bytes32",
                    "indexed": false,
                    "internalType": "bytes32"
                },
                {
                    "name": "token",
                    "type": "address",
                    "indexed": false,
                    "internalType": "address"
                },
                {
                    "name": "newValue",
                    "type": "uint256",
                    "indexed": false,
                    "internalType": "uint256"
                }
            ],
            "anonymous": false
        },
        {
            "type": "event",
            "name": "Initialized",
            "inputs": [
                {
                    "name": "version",
                    "type": "uint64",
                    "indexed": false,
                    "internalType": "uint64"
                }
            ],
            "anonymous": false
        },
        {
            "type": "event",
            "name": "ModuleInitialized",
            "inputs": [
                {
                    "name": "parentOrchestrator",
                    "type": "address",
                    "indexed": true,
                    "internalType": "address"
                },
                {
                    "name": "moduleTitle",
                    "type": "string",
                    "indexed": true,
                    "internalType": "string"
                },
                {
                    "name": "majorVersion",
                    "type": "uint256",
                    "indexed": false,
                    "internalType": "uint256"
                },
                {
                    "name": "minorVersion",
                    "type": "uint256",
                    "indexed": false,
                    "internalType": "uint256"
                }
            ],
            "anonymous": false
        },
        {
            "type": "event",
            "name": "RoleAdminChanged",
            "inputs": [
                {
                    "name": "role",
                    "type": "bytes32",
                    "indexed": true,
                    "internalType": "bytes32"
                },
                {
                    "name": "previousAdminRole",
                    "type": "bytes32",
                    "indexed": true,
                    "internalType": "bytes32"
                },
                {
                    "name": "newAdminRole",
                    "type": "bytes32",
                    "indexed": true,
                    "internalType": "bytes32"
                }
            ],
            "anonymous": false
        },
        {
            "type": "event",
            "name": "RoleGranted",
            "inputs": [
                {
                    "name": "role",
                    "type": "bytes32",
                    "indexed": true,
                    "internalType": "bytes32"
                },
                {
                    "name": "account",
                    "type": "address",
                    "indexed": true,
                    "internalType": "address"
                },
                {
                    "name": "sender",
                    "type": "address",
                    "indexed": true,
                    "internalType": "address"
                }
            ],
            "anonymous": false
        },
        {
            "type": "event",
            "name": "RoleRevoked",
            "inputs": [
                {
                    "name": "role",
                    "type": "bytes32",
                    "indexed": true,
                    "internalType": "bytes32"
                },
                {
                    "name": "account",
                    "type": "address",
                    "indexed": true,
                    "internalType": "address"
                },
                {
                    "name": "sender",
                    "type": "address",
                    "indexed": true,
                    "internalType": "address"
                }
            ],
            "anonymous": false
        },
        {
            "type": "error",
            "name": "AccessControlBadConfirmation",
            "inputs": []
        },
        {
            "type": "error",
            "name": "AccessControlUnauthorizedAccount",
            "inputs": [
                {
                    "name": "account",
                    "type": "address",
                    "internalType": "address"
                },
                {
                    "name": "neededRole",
                    "type": "bytes32",
                    "internalType": "bytes32"
                }
            ]
        },
        {
            "type": "error",
            "name": "InvalidInitialization",
            "inputs": []
        },
        {
            "type": "error",
            "name": "Module_OrchestratorCallbackFailed",
            "inputs": [
                {
                    "name": "funcSig",
                    "type": "string",
                    "internalType": "string"
                }
            ]
        },
        {
            "type": "error",
            "name": "Module__CallerNotAuthorized",
            "inputs": [
                {
                    "name": "role",
                    "type": "bytes32",
                    "internalType": "bytes32"
                },
                {
                    "name": "caller",
                    "type": "address",
                    "internalType": "address"
                }
            ]
        },
        {
            "type": "error",
            "name": "Module__CannotCallInit2Again",
            "inputs": []
        },
        {
            "type": "error",
            "name": "Module__InvalidMetadata",
            "inputs": []
        },
        {
            "type": "error",
            "name": "Module__InvalidOrchestratorAddress",
            "inputs": []
        },
        {
            "type": "error",
            "name": "Module__NoDependencyOrMalformedDependencyData",
            "inputs": []
        },
        {
            "type": "error",
            "name": "Module__OnlyCallableByOrchestrator",
            "inputs": []
        },
        {
            "type": "error",
            "name": "Module__RoleAuthorizer__ModuleNotSelfManaged",
            "inputs": []
        },
        {
            "type": "error",
            "name": "Module__RoleAuthorizer__NotActiveModule",
            "inputs": [
                {
                    "name": "module",
                    "type": "address",
                    "internalType": "address"
                }
            ]
        },
        {
            "type": "error",
            "name": "Module__RoleAuthorizer__OwnerRoleCannotBeEmpty",
            "inputs": []
        },
        {
            "type": "error",
            "name": "Module__TokenGatedRoleAuthorizer__InvalidThreshold",
            "inputs": [
                {
                    "name": "threshold",
                    "type": "uint256",
                    "internalType": "uint256"
                }
            ]
        },
        {
            "type": "error",
            "name": "Module__TokenGatedRoleAuthorizer__InvalidToken",
            "inputs": [
                {
                    "name": "token",
                    "type": "address",
                    "internalType": "address"
                }
            ]
        },
        {
            "type": "error",
            "name": "Module__TokenGatedRoleAuthorizer__RoleNotEmpty",
            "inputs": []
        },
        {
            "type": "error",
            "name": "Module__TokenGatedRoleAuthorizer__RoleNotTokenGated",
            "inputs": []
        },
        {
            "type": "error",
            "name": "NotInitializing",
            "inputs": []
        }
    ],
    "bytecode": {
        "object": "0x60806040523480156200001157600080fd5b506200001c62000030565b6200002a60001980620000e4565b62000189565b7ff0c57e16840df040f15088dc2f81fe391c3923bec73e23a9662efc9c229c6a00805468010000000000000000900460ff1615620000815760405163f92ee8a960e01b815260040160405180910390fd5b80546001600160401b0390811614620000e15780546001600160401b0319166001600160401b0390811782556040519081527fc7f505b2f371ae2175ee4913f4499e1f2633a7b5936321eed1cdaeb6115181d29060200160405180910390a15b50565b7f02dd7bc7dec4dceedda775e58dd541e08a116c6c53815c0bd028192f7b6268006000620001408460009081527f02dd7bc7dec4dceedda775e58dd541e08a116c6c53815c0bd028192f7b626800602052604090206001015490565b600085815260208490526040808220600101869055519192508491839187917fbd79b86ffe0ab8e8776151514217cd7cacd52c909f66475c3af44e129f0b00ff9190a450505050565b6133bf80620001996000396000f3fe608060405234801561001057600080fd5b50600436106102de5760003560e01c806391d1485411610186578063bcb61920116100e3578063e38a584c11610097578063f3aafa7011610071578063f3aafa7014610654578063fb31277814610667578063fdd5205f1461067557600080fd5b8063e38a584c1461061b578063e5476cbe1461062e578063e99b6e131461064157600080fd5b8063ca15c873116100c8578063ca15c873146105e2578063d547741f146105f5578063e17881541461060857600080fd5b8063bcb61920146105bc578063c8da8085146105cf57600080fd5b8063a291d0a81161013a578063b3cb19911161011f578063b3cb19911461058a578063b74795d914610593578063ba66f9fc146105a957600080fd5b8063a291d0a814610564578063b3391c671461057757600080fd5b80639bfdf7661161016b5780639bfdf766146105365780639e97857514610549578063a217fddf1461055c57600080fd5b806391d148541461051057806399df6ff11461052357600080fd5b806354fd4d501161023f5780635b58890e116101f35780637448216d116101cd5780637448216d146104bd5780637998a1c4146104dd5780639010d07c146104e557600080fd5b80635b58890e1461047057806361bcd0c4146104975780636c67e807146104aa57600080fd5b80635600f04f116102245780635600f04f14610442578063572b6c051461044a5780635b0209b91461045d57600080fd5b806354fd4d501461041a57806355ff58d41461043557600080fd5b8063328c4c301161029657806336568abe1161027b57806336568abe146103df57806342dfe958146103f25780634a79d50c1461040557600080fd5b8063328c4c30146103a657806335dde263146103cc57600080fd5b806323add683116102c757806323add68314610320578063248a9ca3146103435780632f2ff15d1461039357600080fd5b806301ffc9a7146102e357806316e109f81461030b575b600080fd5b6102f66102f1366004612b5d565b6106ca565b60405190151581526020015b60405180910390f35b61031e610319366004612bb4565b610726565b005b6102f661032e366004612bec565b60056020526000908152604090205460ff1681565b610385610351366004612bec565b60009081527f02dd7bc7dec4dceedda775e58dd541e08a116c6c53815c0bd028192f7b626800602052604090206001015490565b604051908152602001610302565b61031e6103a1366004612c05565b610771565b7f3078303200000000000000000000000000000000000000000000000000000000610385565b61031e6103da366004612bb4565b6107b5565b61031e6103ed366004612c05565b61090f565b61031e610400366004612d3c565b610970565b61040d610b1a565b6040516103029190612e68565b60015460025460408051928352602083019190915201610302565b633078303160e01b610385565b61040d610baf565b6102f6610458366004612e7b565b610bc1565b61031e61046b366004612bec565b610c4f565b6103857f307830320000000000000000000000000000000000000000000000000000000081565b61031e6104a5366004612c05565b610e76565b61031e6104b8366004612c05565b610eae565b6103856104cb366004612bec565b60066020526000908152604090205481565b61038561117c565b6104f86104f3366004612e98565b6112cc565b6040516001600160a01b039091168152602001610302565b6102f661051e366004612c05565b61130d565b61031e610531366004612c05565b61137f565b61031e610544366004612eba565b6113b7565b6102f6610557366004612f0a565b611441565b610385600081565b61031e610572366004612bb4565b61145e565b6102f6610585366004612c05565b611559565b61038560001981565b60005461010090046001600160a01b03166104f8565b61031e6105b7366004612c05565b6115ad565b61031e6105ca366004612c05565b61169b565b6103856105dd366004612c05565b6118f0565b6103856105f0366004612bec565b61194e565b61031e610603366004612c05565b61198d565b61031e610616366004612c05565b6119d1565b61031e610629366004612e98565b611abf565b61031e61063c366004612f4d565b611b03565b61031e61064f366004612bec565b611bd0565b6102f6610662366004612c05565b611d14565b610385633078303160e01b81565b610385610683366004612f72565b6040516bffffffffffffffffffffffff19606084901b1660208201526034810182905260009060540160405160208183030381529060405280519060200120905092915050565b60007fffffffff0000000000000000000000000000000000000000000000000000000082167f440bc2d6000000000000000000000000000000000000000000000000000000001480610720575061072082611d2e565b92915050565b60008381527f02dd7bc7dec4dceedda775e58dd541e08a116c6c53815c0bd028192f7b626800602052604090206001015461076081611d84565b61076b848484611d98565b50505050565b60008281527f02dd7bc7dec4dceedda775e58dd541e08a116c6c53815c0bd028192f7b62680060205260409020600101546107ab81611d84565b61076b8383611ec7565b6107bd611fa4565b60005461010090046001600160a01b03166040517f42f6e3890000000000000000000000000000000000000000000000000000000081526001600160a01b03838116600483015291909116906342f6e389906024016020604051808303816000875af1158015610831573d6000803e3d6000fd5b505050506040513d601f19601f820116820180604052508101906108559190612f9e565b61089b576040517f18d61cb50000000000000000000000000000000000000000000000000000000081526001600160a01b03821660048201526024015b60405180910390fd5b60006108f06108a8611fa4565b866040516bffffffffffffffffffffffff19606084901b1660208201526034810182905260009060540160405160208183030381529060405280519060200120905092915050565b90506108fc8185611ec7565b50610908818585611d98565b5050505050565b610917611fa4565b6001600160a01b0316816001600160a01b031614610961576040517f6697b23200000000000000000000000000000000000000000000000000000000815260040160405180910390fd5b61096b8282611fae565b505050565b7ff0c57e16840df040f15088dc2f81fe391c3923bec73e23a9662efc9c229c6a00805468010000000000000000810460ff16159067ffffffffffffffff166000811580156109bb5750825b905060008267ffffffffffffffff1660011480156109d85750303b155b9050811580156109e6575080155b15610a1d576040517ff92ee8a900000000000000000000000000000000000000000000000000000000815260040160405180910390fd5b84547fffffffffffffffffffffffffffffffffffffffffffffffff00000000000000001660011785558315610a7e5784547fffffffffffffffffffffffffffffffffffffffffffffff00ffffffffffffffff16680100000000000000001785555b610a888888612018565b60008087806020019051810190610a9f9190612fbb565b91509150610aad8282612177565b50508315610b105784547fffffffffffffffffffffffffffffffffffffffffffffff00ffffffffffffffff168555604051600181527fc7f505b2f371ae2175ee4913f4499e1f2633a7b5936321eed1cdaeb6115181d29060200160405180910390a15b5050505050505050565b606060016003018054610b2c90612fea565b80601f0160208091040260200160405190810160405280929190818152602001828054610b5890612fea565b8015610ba55780601f10610b7a57610100808354040283529160200191610ba5565b820191906000526020600020905b815481529060010190602001808311610b8857829003601f168201915b5050505050905090565b606060016002018054610b2c90612fea565b600080546040517f572b6c050000000000000000000000000000000000000000000000000000000081526001600160a01b0384811660048301526101009092049091169063572b6c0590602401602060405180830381865afa158015610c2b573d6000803e3d6000fd5b505050506040513d601f19601f820116820180604052508101906107209190612f9e565b610c57611fa4565b60005461010090046001600160a01b03166040517f42f6e3890000000000000000000000000000000000000000000000000000000081526001600160a01b03838116600483015291909116906342f6e389906024016020604051808303816000875af1158015610ccb573d6000803e3d6000fd5b505050506040513d601f19601f82011682018060405250810190610cef9190612f9e565b610d30576040517f18d61cb50000000000000000000000000000000000000000000000000000000081526001600160a01b0382166004820152602401610892565b610d83610d3b611fa4565b836040516bffffffffffffffffffffffff19606084901b1660208201526034810182905260009060540160405160208183030381529060405280519060200120905092915050565b610d8c8161194e565b15610dc3576040517f057913a900000000000000000000000000000000000000000000000000000000815260040160405180910390fd5b6000610e18610dd0611fa4565b856040516bffffffffffffffffffffffff19606084901b1660208201526034810182905260009060540160405160208183030381529060405280519060200120905092915050565b600081815260056020908152604091829020805460ff191660019081179091558251848152918201529192507f5b06680c3e27b6966fd07ba5a87e12511d3d350bb0e841c91958f34569b40b8191015b60405180910390a150505050565b633078303160e01b610e8781611d84565b60008054610ea29061010090046001600160a01b0316610dd0565b90506109088184611ec7565b60008060019054906101000a90046001600160a01b03166001600160a01b031663d09edf316040518163ffffffff1660e01b8152600401602060405180830381865afa158015610f02573d6000803e3d6000fd5b505050506040513d601f19601f82011682018060405250810190610f26919061303d565b90506000816001600160a01b03166355ff58d46040518163ffffffff1660e01b8152600401602060405180830381865afa158015610f68573d6000803e3d6000fd5b505050506040513d601f19601f82011682018060405250810190610f8c919061305a565b9050816001600160a01b03166391d1485482610fa6611fa4565b6040517fffffffff0000000000000000000000000000000000000000000000000000000060e085901b16815260048101929092526001600160a01b03166024820152604401602060405180830381865afa158015611008573d6000803e3d6000fd5b505050506040513d601f19601f8201168201806040525081019061102c9190612f9e565b61107d5780611039611fa4565b6040517f42abbb7700000000000000000000000000000000000000000000000000000000815260048101929092526001600160a01b03166024820152604401610892565b60008060019054906101000a90046001600160a01b03166001600160a01b031663d09edf316040518163ffffffff1660e01b8152600401602060405180830381865afa1580156110d1573d6000803e3d6000fd5b505050506040513d601f19601f820116820180604052508101906110f5919061303d565b6040517fe1788154000000000000000000000000000000000000000000000000000000008152600481018790526001600160a01b0386811660248301529192509082169063e1788154906044015b600060405180830381600087803b15801561115d57600080fd5b505af1158015611171573d6000803e3d6000fd5b505050505050505050565b604080516080810182526001805482526002546020830152600380546000946112c7949392908401916111ae90612fea565b80601f01602080910402602001604051908101604052809291908181526020018280546111da90612fea565b80156112275780601f106111fc57610100808354040283529160200191611227565b820191906000526020600020905b81548152906001019060200180831161120a57829003601f168201915b5050505050815260200160038201805461124090612fea565b80601f016020809104026020016040519081016040528092919081815260200182805461126c90612fea565b80156112b95780601f1061128e576101008083540402835291602001916112b9565b820191906000526020600020905b81548152906001019060200180831161129c57829003601f168201915b50505050508152505061223a565b905090565b60008281527fc1f6fe24621ce81ec5827caf0253cadb74709b061630e6b55e82371705932000602081905260408220611305908461227a565b949350505050565b60008281526005602052604081205460ff16156113355761132e8383612286565b9050610720565b60008381527f02dd7bc7dec4dceedda775e58dd541e08a116c6c53815c0bd028192f7b626800602090815260408083206001600160a01b038616845290915290205460ff1661132e565b633078303160e01b61139081611d84565b600080546113ab9061010090046001600160a01b0316610dd0565b90506109088184611fae565b60005460ff16156113f4576040517f904875a100000000000000000000000000000000000000000000000000000000815260040160405180910390fd5b6000805460ff191660011790558061140b816123b6565b61096b576040517feef043ae00000000000000000000000000000000000000000000000000000000815260040160405180910390fd5b6000818060200190518101906114579190613073565b5092915050565b611466611fa4565b60005461010090046001600160a01b03166040517f42f6e3890000000000000000000000000000000000000000000000000000000081526001600160a01b03838116600483015291909116906342f6e389906024016020604051808303816000875af11580156114da573d6000803e3d6000fd5b505050506040513d601f19601f820116820180604052508101906114fe9190612f9e565b61153f576040517f18d61cb50000000000000000000000000000000000000000000000000000000081526001600160a01b0382166004820152602401610892565b600061154c6108a8611fa4565b9050610908818585611d98565b600082815260056020526040812054839060ff166115a3576040517fd98c6d8300000000000000000000000000000000000000000000000000000000815260040160405180910390fd5b6113058484612286565b6115b5611fa4565b60005461010090046001600160a01b03166040517f42f6e3890000000000000000000000000000000000000000000000000000000081526001600160a01b03838116600483015291909116906342f6e389906024016020604051808303816000875af1158015611629573d6000803e3d6000fd5b505050506040513d601f19601f8201168201806040525081019061164d9190612f9e565b61168e576040517f18d61cb50000000000000000000000000000000000000000000000000000000081526001600160a01b0382166004820152602401610892565b60006113ab610dd0611fa4565b60008060019054906101000a90046001600160a01b03166001600160a01b031663d09edf316040518163ffffffff1660e01b8152600401602060405180830381865afa1580156116ef573d6000803e3d6000fd5b505050506040513d601f19601f82011682018060405250810190611713919061303d565b90506000816001600160a01b03166355ff58d46040518163ffffffff1660e01b8152600401602060405180830381865afa158015611755573d6000803e3d6000fd5b505050506040513d601f19601f82011682018060405250810190611779919061305a565b9050816001600160a01b03166391d1485482611793611fa4565b6040517fffffffff0000000000000000000000000000000000000000000000000000000060e085901b16815260048101929092526001600160a01b03166024820152604401602060405180830381865afa1580156117f5573d6000803e3d6000fd5b505050506040513d601f19601f820116820180604052508101906118199190612f9e565b6118265780611039611fa4565b60008060019054906101000a90046001600160a01b03166001600160a01b031663d09edf316040518163ffffffff1660e01b8152600401602060405180830381865afa15801561187a573d6000803e3d6000fd5b505050506040513d601f19601f8201168201806040525081019061189e919061303d565b6040517fba66f9fc000000000000000000000000000000000000000000000000000000008152600481018790526001600160a01b0386811660248301529192509082169063ba66f9fc90604401611143565b600080838360405160200161192192919091825260601b6bffffffffffffffffffffffff1916602082015260340190565b60408051808303601f19018152918152815160209283012060009081526006909252902054949350505050565b60008181527fc1f6fe24621ce81ec5827caf0253cadb74709b061630e6b55e82371705932000602081905260408220611986906124b7565b9392505050565b60008281527f02dd7bc7dec4dceedda775e58dd541e08a116c6c53815c0bd028192f7b62680060205260409020600101546119c781611d84565b61076b8383611fae565b6119d9611fa4565b60005461010090046001600160a01b03166040517f42f6e3890000000000000000000000000000000000000000000000000000000081526001600160a01b03838116600483015291909116906342f6e389906024016020604051808303816000875af1158015611a4d573d6000803e3d6000fd5b505050506040513d601f19601f82011682018060405250810190611a719190612f9e565b611ab2576040517f18d61cb50000000000000000000000000000000000000000000000000000000081526001600160a01b0382166004820152602401610892565b6000610ea2610dd0611fa4565b60008281527f02dd7bc7dec4dceedda775e58dd541e08a116c6c53815c0bd028192f7b6268006020526040902060010154611af981611d84565b61096b83836124c1565b60008281527f02dd7bc7dec4dceedda775e58dd541e08a116c6c53815c0bd028192f7b6268006020526040902060010154611b3d81611d84565b82611b478161194e565b15611b7e576040517f057913a900000000000000000000000000000000000000000000000000000000815260040160405180910390fd5b600084815260056020908152604091829020805460ff19168615159081179091558251878152918201527f5b06680c3e27b6966fd07ba5a87e12511d3d350bb0e841c91958f34569b40b819101610e68565b611bd8611fa4565b60005461010090046001600160a01b03166040517f42f6e3890000000000000000000000000000000000000000000000000000000081526001600160a01b03838116600483015291909116906342f6e389906024016020604051808303816000875af1158015611c4c573d6000803e3d6000fd5b505050506040513d601f19601f82011682018060405250810190611c709190612f9e565b611cb1576040517f18d61cb50000000000000000000000000000000000000000000000000000000081526001600160a01b0382166004820152602401610892565b6000611d06611cbe611fa4565b846040516bffffffffffffffffffffffff19606084901b1660208201526034810182905260009060540160405160208183030381529060405280519060200120905092915050565b905061096b816000196124c1565b600080611d22610dd0611fa4565b9050611305818461130d565b60007fffffffff0000000000000000000000000000000000000000000000000000000082167fc0603f09000000000000000000000000000000000000000000000000000000001480610720575061072082612565565b611d9581611d90611fa4565b6125fc565b50565b600083815260056020526040902054839060ff16611de2576040517fd98c6d8300000000000000000000000000000000000000000000000000000000815260040160405180910390fd5b8180600003611e20576040517f2c7f1ba100000000000000000000000000000000000000000000000000000000815260048101829052602401610892565b60008585604051602001611e5092919091825260601b6bffffffffffffffffffffffff1916602082015260340190565b60408051808303601f1901815282825280516020918201206000818152600683528390208890558984526001600160a01b0389169184019190915290820186905291507ea848dc7e0a97518071981b0bbbf38d0ce61086c12106156c3fed80f80047149060600160405180910390a1505050505050565b60008281526005602052604081205460ff1615611f9a576040517f70a082310000000000000000000000000000000000000000000000000000000081523060048201526001600160a01b038316906370a0823190602401602060405180830381865afa925050508015611f57575060408051601f3d908101601f19168201909252611f549181019061305a565b60015b611f98576040517f410217780000000000000000000000000000000000000000000000000000000081526001600160a01b0383166004820152602401610892565b505b611986838361264e565b60006112c76126a5565b600082633078303160e01b81148015611fd757506001611fd4633078303160e01b61194e565b11155b1561200e576040517f73a9f13900000000000000000000000000000000000000000000000000000000815260040160405180910390fd5b6113058484612764565b6120206127b2565b6001600160a01b038216612060576040517f7280679300000000000000000000000000000000000000000000000000000000815260040160405180910390fd5b600080547fffffffffffffffffffffff0000000000000000000000000000000000000000ff166101006001600160a01b038516021790556120a08161281b565b6120d6576040517f7511254100000000000000000000000000000000000000000000000000000000815260040160405180910390fd5b80516001908155602082015160025560408201518291906003906120fa90826131d8565b506060820151600382019061210f90826131d8565b50505060608101516040516121249190613298565b604080519182900382208351602080860151918552840152916001600160a01b038516917feb175f148a71d29a5f7bf5439182fcd81e6ea9cfc8a11b54ab0f705fa98fa8ca910160405180910390a35050565b61217f6127b2565b612190633078303160e01b806124c1565b6121a26000633078303160e01b6124c1565b6121d37f3078303200000000000000000000000000000000000000000000000000000000633078303160e01b6124c1565b6121fd7f307830320000000000000000000000000000000000000000000000000000000082611ec7565b506001600160a01b0382161561221e5761096b633078303160e01b83611ec7565b61096b633078303160e01b612231611fa4565b611ec7565b5050565b600081600001518260400151836060015160405160200161225d939291906132b4565b604051602081830303815290604052805190602001209050919050565b6000611986838361286d565b6000806122928461194e565b905060005b818110156123ab5760006122ab86836112cc565b9050600086826040516020016122dd92919091825260601b6bffffffffffffffffffffffff1916602082015260340190565b60408051808303601f19018152828252805160209182012060008181526006909252919020547f70a082310000000000000000000000000000000000000000000000000000000083526001600160a01b03898116600485015291935091908416906370a0823190602401602060405180830381865afa925050508015612380575060408051601f3d908101601f1916820190925261237d9181019061305a565b60015b1561239d5781811061239b5760019650505050505050610720565b505b505050806001019050612297565b506000949350505050565b6040517f9e9785750000000000000000000000000000000000000000000000000000000081526000903090639e978575906123f5908590600401612e68565b602060405180830381865afa92505050801561242e575060408051601f3d908101601f1916820190925261242b91810190612f9e565b60015b61243a57506000919050565b6040517f9e9785750000000000000000000000000000000000000000000000000000000081523090639e97857590612476908690600401612e68565b602060405180830381865afa158015612493573d6000803e3d6000fd5b505050506040513d601f19601f820116820180604052508101906119869190612f9e565b6000610720825490565b7f02dd7bc7dec4dceedda775e58dd541e08a116c6c53815c0bd028192f7b626800600061251c8460009081527f02dd7bc7dec4dceedda775e58dd541e08a116c6c53815c0bd028192f7b626800602052604090206001015490565b600085815260208490526040808220600101869055519192508491839187917fbd79b86ffe0ab8e8776151514217cd7cacd52c909f66475c3af44e129f0b00ff9190a450505050565b60007fffffffff0000000000000000000000000000000000000000000000000000000082167fd883df1200000000000000000000000000000000000000000000000000000000148061072057507f01ffc9a7000000000000000000000000000000000000000000000000000000007fffffffff00000000000000000000000000000000000000000000000000000000831614610720565b612606828261130d565b612236576040517fe2517d3f0000000000000000000000000000000000000000000000000000000081526001600160a01b038216600482015260248101839052604401610892565b60007fc1f6fe24621ce81ec5827caf0253cadb74709b061630e6b55e823717059320008161267c8585612897565b9050801561130557600085815260208390526040902061269c908561294f565b50949350505050565b600080546040517f572b6c050000000000000000000000000000000000000000000000000000000081523360048201526101009091046001600160a01b03169063572b6c0590602401602060405180830381865afa15801561270b573d6000803e3d6000fd5b505050506040513d601f19601f8201168201806040525081019061272f9190612f9e565b1561275f57507fffffffffffffffffffffffffffffffffffffffffffffffffffffffffffffffec36013560601c90565b503390565b60007fc1f6fe24621ce81ec5827caf0253cadb74709b061630e6b55e82371705932000816127928585612964565b9050801561130557600085815260208390526040902061269c9085612a10565b7ff0c57e16840df040f15088dc2f81fe391c3923bec73e23a9662efc9c229c6a005468010000000000000000900460ff16612819576040517fd7e6bcf800000000000000000000000000000000000000000000000000000000815260040160405180910390fd5b565b600081604001515160000361283257506000919050565b81606001515160000361284757506000919050565b815115801561285857506020820151155b1561286557506000919050565b506001919050565b6000826000018281548110612884576128846132f1565b9060005260206000200154905092915050565b60007f02dd7bc7dec4dceedda775e58dd541e08a116c6c53815c0bd028192f7b6268006128c4848461130d565b612945576000848152602082815260408083206001600160a01b03871684529091529020805460ff191660011790556128fb611fa4565b6001600160a01b0316836001600160a01b0316857f2f8788117e7eff1d82e926ec794901d17c78024a50270940304540a733656f0d60405160405180910390a46001915050610720565b6000915050610720565b6000611986836001600160a01b038416612a25565b60007f02dd7bc7dec4dceedda775e58dd541e08a116c6c53815c0bd028192f7b626800612991848461130d565b15612945576000848152602082815260408083206001600160a01b03871684529091529020805460ff191690556129c6611fa4565b6001600160a01b0316836001600160a01b0316857ff6391f5c32d9c69d2a47ea670b442974b53935d1edc7fd64eb21e047a839171b60405160405180910390a46001915050610720565b6000611986836001600160a01b038416612a74565b6000818152600183016020526040812054612a6c57508154600181810184556000848152602080822090930184905584548482528286019093526040902091909155610720565b506000610720565b60008181526001830160205260408120548015612945576000612a98600183613320565b8554909150600090612aac90600190613320565b9050808214612b11576000866000018281548110612acc57612acc6132f1565b9060005260206000200154905080876000018481548110612aef57612aef6132f1565b6000918252602080832090910192909255918252600188019052604090208390555b8554869080612b2257612b2261335a565b600190038181906000526020600020016000905590558560010160008681526020019081526020016000206000905560019350505050610720565b600060208284031215612b6f57600080fd5b81357fffffffff000000000000000000000000000000000000000000000000000000008116811461198657600080fd5b6001600160a01b0381168114611d9557600080fd5b600080600060608486031215612bc957600080fd5b833592506020840135612bdb81612b9f565b929592945050506040919091013590565b600060208284031215612bfe57600080fd5b5035919050565b60008060408385031215612c1857600080fd5b823591506020830135612c2a81612b9f565b809150509250929050565b7f4e487b7100000000000000000000000000000000000000000000000000000000600052604160045260246000fd5b6040516080810167ffffffffffffffff81118282101715612c8757612c87612c35565b60405290565b604051601f8201601f1916810167ffffffffffffffff81118282101715612cb657612cb6612c35565b604052919050565b600067ffffffffffffffff821115612cd857612cd8612c35565b50601f01601f191660200190565b600082601f830112612cf757600080fd5b8135612d0a612d0582612cbe565b612c8d565b818152846020838601011115612d1f57600080fd5b816020850160208301376000918101602001919091529392505050565b600080600060608486031215612d5157600080fd5b8335612d5c81612b9f565b9250602084013567ffffffffffffffff80821115612d7957600080fd5b9085019060808288031215612d8d57600080fd5b612d95612c64565b8235815260208301356020820152604083013582811115612db557600080fd5b612dc189828601612ce6565b604083015250606083013582811115612dd957600080fd5b612de589828601612ce6565b60608301525093506040860135915080821115612e0157600080fd5b50612e0e86828701612ce6565b9150509250925092565b60005b83811015612e33578181015183820152602001612e1b565b50506000910152565b60008151808452612e54816020860160208601612e18565b601f01601f19169290920160200192915050565b6020815260006119866020830184612e3c565b600060208284031215612e8d57600080fd5b813561198681612b9f565b60008060408385031215612eab57600080fd5b50508035926020909101359150565b60008060408385031215612ecd57600080fd5b8235612ed881612b9f565b9150602083013567ffffffffffffffff811115612ef457600080fd5b612f0085828601612ce6565b9150509250929050565b600060208284031215612f1c57600080fd5b813567ffffffffffffffff811115612f3357600080fd5b61130584828501612ce6565b8015158114611d9557600080fd5b60008060408385031215612f6057600080fd5b823591506020830135612c2a81612f3f565b60008060408385031215612f8557600080fd5b8235612f9081612b9f565b946020939093013593505050565b600060208284031215612fb057600080fd5b815161198681612f3f565b60008060408385031215612fce57600080fd5b8251612fd981612b9f565b6020840151909250612c2a81612b9f565b600181811c90821680612ffe57607f821691505b602082108103613037577f4e487b7100000000000000000000000000000000000000000000000000000000600052602260045260246000fd5b50919050565b60006020828403121561304f57600080fd5b815161198681612b9f565b60006020828403121561306c57600080fd5b5051919050565b600080604080848603121561308757600080fd5b835161309281612f3f565b8093505060208085015167ffffffffffffffff808211156130b257600080fd5b818701915087601f8301126130c657600080fd5b8151818111156130d8576130d8612c35565b8060051b6130e7858201612c8d565b918252838101850191858101908b84111561310157600080fd5b86860192505b838310156131765782518581111561311f5760008081fd5b8601603f81018d136131315760008081fd5b87810151613141612d0582612cbe565b8181528e8b8385010111156131565760008081fd5b613165828b83018d8601612e18565b845250509186019190860190613107565b80985050505050505050509250929050565b601f82111561096b576000816000526020600020601f850160051c810160208610156131b15750805b601f850160051c820191505b818110156131d0578281556001016131bd565b505050505050565b815167ffffffffffffffff8111156131f2576131f2612c35565b613206816132008454612fea565b84613188565b602080601f83116001811461323b57600084156132235750858301515b600019600386901b1c1916600185901b1785556131d0565b600085815260208120601f198616915b8281101561326a5788860151825594840194600190910190840161324b565b50858210156132885787850151600019600388901b60f8161c191681555b5050505050600190811b01905550565b600082516132aa818460208701612e18565b9190910192915050565b838152600083516132cc816020850160208801612e18565b808301905083516132e4816020840160208801612e18565b0160200195945050505050565b7f4e487b7100000000000000000000000000000000000000000000000000000000600052603260045260246000fd5b81810381811115610720577f4e487b7100000000000000000000000000000000000000000000000000000000600052601160045260246000fd5b7f4e487b7100000000000000000000000000000000000000000000000000000000600052603160045260246000fdfea2646970667358221220913ac0e7b02a28ee32e37921c0fdb6c7db667beb52f182b589321f858ed481d464736f6c63430008170033",
        "linkReferences": {}
    },
    "methodIdentifiers": {
        "BURN_ADMIN_ROLE()": "b3cb1991",
        "DEFAULT_ADMIN_ROLE()": "a217fddf",
        "ORCHESTRATOR_MANAGER_ROLE()": "5b58890e",
        "ORCHESTRATOR_OWNER_ROLE()": "fb312778",
        "burnAdminFromModuleRole(bytes32)": "e99b6e13",
        "decoder(bytes)": "9e978575",
        "generateRoleId(address,bytes32)": "fdd5205f",
        "getManagerRole()": "328c4c30",
        "getOwnerRole()": "55ff58d4",
        "getRoleAdmin(bytes32)": "248a9ca3",
        "getRoleMember(bytes32,uint256)": "9010d07c",
        "getRoleMemberCount(bytes32)": "ca15c873",
        "getThresholdValue(bytes32,address)": "c8da8085",
        "grantGlobalRole(bytes32,address)": "61bcd0c4",
        "grantModuleRole(bytes32,address)": "6c67e807",
        "grantRole(bytes32,address)": "2f2ff15d",
        "grantRoleFromModule(bytes32,address)": "e1788154",
        "grantTokenRoleFromModule(bytes32,address,uint256)": "35dde263",
        "hasModuleRole(bytes32,address)": "f3aafa70",
        "hasRole(bytes32,address)": "91d14854",
        "hasTokenRole(bytes32,address)": "b3391c67",
        "identifier()": "7998a1c4",
        "init(address,(uint256,uint256,string,string),bytes)": "42dfe958",
        "init2(address,bytes)": "9bfdf766",
        "isTokenGated(bytes32)": "23add683",
        "isTrustedForwarder(address)": "572b6c05",
        "makeRoleTokenGatedFromModule(bytes32)": "5b0209b9",
        "orchestrator()": "b74795d9",
        "renounceRole(bytes32,address)": "36568abe",
        "revokeGlobalRole(bytes32,address)": "99df6ff1",
        "revokeModuleRole(bytes32,address)": "bcb61920",
        "revokeRole(bytes32,address)": "d547741f",
        "revokeRoleFromModule(bytes32,address)": "ba66f9fc",
        "setThreshold(bytes32,address,uint256)": "16e109f8",
        "setThresholdFromModule(bytes32,address,uint256)": "a291d0a8",
        "setTokenGated(bytes32,bool)": "e5476cbe",
        "supportsInterface(bytes4)": "01ffc9a7",
        "thresholdMap(bytes32)": "7448216d",
        "title()": "4a79d50c",
        "transferAdminRole(bytes32,bytes32)": "e38a584c",
        "url()": "5600f04f",
        "version()": "54fd4d50"
    },
    "id": 98
}