{
  "abi": [
    {
      "type": "function",
      "name": "DOMAIN_SEPARATOR",
      "inputs": [],
      "outputs": [
        {
          "name": "",
          "type": "bytes32",
          "internalType": "bytes32"
        }
      ],
      "stateMutability": "view"
    },
    {
      "type": "function",
      "name": "EIP712_DOMAIN",
      "inputs": [],
      "outputs": [
        {
          "name": "",
          "type": "bytes32",
          "internalType": "bytes32"
        }
      ],
      "stateMutability": "view"
    },
    {
      "type": "function",
      "name": "EIP712_REVISION",
      "inputs": [],
      "outputs": [
        {
          "name": "",
          "type": "string",
          "internalType": "string"
        }
      ],
      "stateMutability": "view"
    },
    {
      "type": "function",
      "name": "PERMIT_TYPEHASH",
      "inputs": [],
      "outputs": [
        {
          "name": "",
          "type": "bytes32",
          "internalType": "bytes32"
        }
      ],
      "stateMutability": "view"
    },
    {
      "type": "function",
      "name": "allowance",
      "inputs": [
        {
          "name": "owner_",
          "type": "address",
          "internalType": "address"
        },
        {
          "name": "spender",
          "type": "address",
          "internalType": "address"
        }
      ],
      "outputs": [
        {
          "name": "",
          "type": "uint256",
          "internalType": "uint256"
        }
      ],
      "stateMutability": "view"
    },
    {
      "type": "function",
      "name": "approve",
      "inputs": [
        {
          "name": "spender",
          "type": "address",
          "internalType": "address"
        },
        {
          "name": "tokens",
          "type": "uint256",
          "internalType": "uint256"
        }
      ],
      "outputs": [
        {
          "name": "",
          "type": "bool",
          "internalType": "bool"
        }
      ],
      "stateMutability": "nonpayable"
    },
    {
      "type": "function",
      "name": "balanceOf",
      "inputs": [
        {
          "name": "who",
          "type": "address",
          "internalType": "address"
        }
      ],
      "outputs": [
        {
          "name": "",
          "type": "uint256",
          "internalType": "uint256"
        }
      ],
      "stateMutability": "view"
    },
    {
      "type": "function",
      "name": "decimals",
      "inputs": [],
      "outputs": [
        {
          "name": "",
          "type": "uint8",
          "internalType": "uint8"
        }
      ],
      "stateMutability": "view"
    },
    {
      "type": "function",
      "name": "decoder",
      "inputs": [
        {
          "name": "data",
          "type": "bytes",
          "internalType": "bytes"
        }
      ],
      "outputs": [
        {
          "name": "requirement",
          "type": "bool",
          "internalType": "bool"
        }
      ],
      "stateMutability": "pure"
    },
    {
      "type": "function",
      "name": "decreaseAllowance",
      "inputs": [
        {
          "name": "spender",
          "type": "address",
          "internalType": "address"
        },
        {
          "name": "tokens",
          "type": "uint256",
          "internalType": "uint256"
        }
      ],
      "outputs": [
        {
          "name": "",
          "type": "bool",
          "internalType": "bool"
        }
      ],
      "stateMutability": "nonpayable"
    },
    {
      "type": "function",
      "name": "deposit",
      "inputs": [
        {
          "name": "amount",
          "type": "uint256",
          "internalType": "uint256"
        }
      ],
      "outputs": [],
      "stateMutability": "nonpayable"
    },
    {
      "type": "function",
      "name": "depositFor",
      "inputs": [
        {
          "name": "to",
          "type": "address",
          "internalType": "address"
        },
        {
          "name": "amount",
          "type": "uint256",
          "internalType": "uint256"
        }
      ],
      "outputs": [],
      "stateMutability": "nonpayable"
    },
    {
      "type": "function",
      "name": "grantModuleRole",
      "inputs": [
        {
          "name": "role",
          "type": "bytes32",
          "internalType": "bytes32"
        },
        {
          "name": "addr",
          "type": "address",
          "internalType": "address"
        }
      ],
      "outputs": [],
      "stateMutability": "nonpayable"
    },
    {
      "type": "function",
      "name": "identifier",
      "inputs": [],
      "outputs": [
        {
          "name": "",
          "type": "bytes32",
          "internalType": "bytes32"
        }
      ],
      "stateMutability": "view"
    },
    {
      "type": "function",
      "name": "increaseAllowance",
      "inputs": [
        {
          "name": "spender",
          "type": "address",
          "internalType": "address"
        },
        {
          "name": "tokens",
          "type": "uint256",
          "internalType": "uint256"
        }
      ],
      "outputs": [
        {
          "name": "",
          "type": "bool",
          "internalType": "bool"
        }
      ],
      "stateMutability": "nonpayable"
    },
    {
      "type": "function",
      "name": "init",
      "inputs": [
        {
          "name": "orchestrator_",
          "type": "address",
          "internalType": "contract IOrchestrator"
        },
        {
          "name": "metadata",
          "type": "tuple",
          "internalType": "struct IModule.Metadata",
          "components": [
            {
              "name": "majorVersion",
              "type": "uint256",
              "internalType": "uint256"
            },
            {
              "name": "minorVersion",
              "type": "uint256",
              "internalType": "uint256"
            },
            {
              "name": "url",
              "type": "string",
              "internalType": "string"
            },
            {
              "name": "title",
              "type": "string",
              "internalType": "string"
            }
          ]
        },
        {
          "name": "configData",
          "type": "bytes",
          "internalType": "bytes"
        }
      ],
      "outputs": [],
      "stateMutability": "nonpayable"
    },
    {
      "type": "function",
      "name": "init2",
      "inputs": [
        {
          "name": "orchestrator_",
          "type": "address",
          "internalType": "contract IOrchestrator"
        },
        {
          "name": "dependencyData",
          "type": "bytes",
          "internalType": "bytes"
        }
      ],
      "outputs": [],
      "stateMutability": "nonpayable"
    },
    {
      "type": "function",
      "name": "isTrustedForwarder",
      "inputs": [
        {
          "name": "forwarder",
          "type": "address",
          "internalType": "address"
        }
      ],
      "outputs": [
        {
          "name": "",
          "type": "bool",
          "internalType": "bool"
        }
      ],
      "stateMutability": "view"
    },
    {
      "type": "function",
      "name": "name",
      "inputs": [],
      "outputs": [
        {
          "name": "",
          "type": "string",
          "internalType": "string"
        }
      ],
      "stateMutability": "view"
    },
    {
      "type": "function",
      "name": "nonces",
      "inputs": [
        {
          "name": "who",
          "type": "address",
          "internalType": "address"
        }
      ],
      "outputs": [
        {
          "name": "",
          "type": "uint256",
          "internalType": "uint256"
        }
      ],
      "stateMutability": "view"
    },
    {
      "type": "function",
      "name": "orchestrator",
      "inputs": [],
      "outputs": [
        {
          "name": "",
          "type": "address",
          "internalType": "contract IOrchestrator"
        }
      ],
      "stateMutability": "view"
    },
    {
      "type": "function",
      "name": "permit",
      "inputs": [
        {
          "name": "owner",
          "type": "address",
          "internalType": "address"
        },
        {
          "name": "spender",
          "type": "address",
          "internalType": "address"
        },
        {
          "name": "value",
          "type": "uint256",
          "internalType": "uint256"
        },
        {
          "name": "deadline",
          "type": "uint256",
          "internalType": "uint256"
        },
        {
          "name": "v",
          "type": "uint8",
          "internalType": "uint8"
        },
        {
          "name": "r",
          "type": "bytes32",
          "internalType": "bytes32"
        },
        {
          "name": "s",
          "type": "bytes32",
          "internalType": "bytes32"
        }
      ],
      "outputs": [],
      "stateMutability": "nonpayable"
    },
    {
      "type": "function",
      "name": "rebase",
      "inputs": [],
      "outputs": [],
      "stateMutability": "nonpayable"
    },
    {
      "type": "function",
      "name": "revokeModuleRole",
      "inputs": [
        {
          "name": "role",
          "type": "bytes32",
          "internalType": "bytes32"
        },
        {
          "name": "addr",
          "type": "address",
          "internalType": "address"
        }
      ],
      "outputs": [],
      "stateMutability": "nonpayable"
    },
    {
      "type": "function",
      "name": "scaledBalanceOf",
      "inputs": [
        {
          "name": "who",
          "type": "address",
          "internalType": "address"
        }
      ],
      "outputs": [
        {
          "name": "",
          "type": "uint256",
          "internalType": "uint256"
        }
      ],
      "stateMutability": "view"
    },
    {
      "type": "function",
      "name": "scaledTotalSupply",
      "inputs": [],
      "outputs": [
        {
          "name": "",
          "type": "uint256",
          "internalType": "uint256"
        }
      ],
      "stateMutability": "view"
    },
    {
      "type": "function",
      "name": "supportsInterface",
      "inputs": [
        {
          "name": "interfaceId",
          "type": "bytes4",
          "internalType": "bytes4"
        }
      ],
      "outputs": [
        {
          "name": "",
          "type": "bool",
          "internalType": "bool"
        }
      ],
      "stateMutability": "view"
    },
    {
      "type": "function",
      "name": "symbol",
      "inputs": [],
      "outputs": [
        {
          "name": "",
          "type": "string",
          "internalType": "string"
        }
      ],
      "stateMutability": "view"
    },
    {
      "type": "function",
      "name": "title",
      "inputs": [],
      "outputs": [
        {
          "name": "",
          "type": "string",
          "internalType": "string"
        }
      ],
      "stateMutability": "view"
    },
    {
      "type": "function",
      "name": "token",
      "inputs": [],
      "outputs": [
        {
          "name": "",
          "type": "address",
          "internalType": "contract IERC20"
        }
      ],
      "stateMutability": "view"
    },
    {
      "type": "function",
      "name": "totalSupply",
      "inputs": [],
      "outputs": [
        {
          "name": "",
          "type": "uint256",
          "internalType": "uint256"
        }
      ],
      "stateMutability": "view"
    },
    {
      "type": "function",
      "name": "transfer",
      "inputs": [
        {
          "name": "to",
          "type": "address",
          "internalType": "address"
        },
        {
          "name": "tokens",
          "type": "uint256",
          "internalType": "uint256"
        }
      ],
      "outputs": [
        {
          "name": "",
          "type": "bool",
          "internalType": "bool"
        }
      ],
      "stateMutability": "nonpayable"
    },
    {
      "type": "function",
      "name": "transferAll",
      "inputs": [
        {
          "name": "to",
          "type": "address",
          "internalType": "address"
        }
      ],
      "outputs": [
        {
          "name": "",
          "type": "bool",
          "internalType": "bool"
        }
      ],
      "stateMutability": "nonpayable"
    },
    {
      "type": "function",
      "name": "transferAllFrom",
      "inputs": [
        {
          "name": "from",
          "type": "address",
          "internalType": "address"
        },
        {
          "name": "to",
          "type": "address",
          "internalType": "address"
        }
      ],
      "outputs": [
        {
          "name": "",
          "type": "bool",
          "internalType": "bool"
        }
      ],
      "stateMutability": "nonpayable"
    },
    {
      "type": "function",
      "name": "transferFrom",
      "inputs": [
        {
          "name": "from",
          "type": "address",
          "internalType": "address"
        },
        {
          "name": "to",
          "type": "address",
          "internalType": "address"
        },
        {
          "name": "tokens",
          "type": "uint256",
          "internalType": "uint256"
        }
      ],
      "outputs": [
        {
          "name": "",
          "type": "bool",
          "internalType": "bool"
        }
      ],
      "stateMutability": "nonpayable"
    },
    {
      "type": "function",
      "name": "transferOrchestratorToken",
      "inputs": [
        {
          "name": "to",
          "type": "address",
          "internalType": "address"
        },
        {
          "name": "amount",
          "type": "uint256",
          "internalType": "uint256"
        }
      ],
      "outputs": [],
      "stateMutability": "nonpayable"
    },
    {
      "type": "function",
      "name": "url",
      "inputs": [],
      "outputs": [
        {
          "name": "",
          "type": "string",
          "internalType": "string"
        }
      ],
      "stateMutability": "view"
    },
    {
      "type": "function",
      "name": "version",
      "inputs": [],
      "outputs": [
        {
          "name": "",
          "type": "uint256",
          "internalType": "uint256"
        },
        {
          "name": "",
          "type": "uint256",
          "internalType": "uint256"
        }
      ],
      "stateMutability": "view"
    },
    {
      "type": "function",
      "name": "withdraw",
      "inputs": [
        {
          "name": "amount",
          "type": "uint256",
          "internalType": "uint256"
        }
      ],
      "outputs": [],
      "stateMutability": "nonpayable"
    },
    {
      "type": "function",
      "name": "withdrawTo",
      "inputs": [
        {
          "name": "to",
          "type": "address",
          "internalType": "address"
        },
        {
          "name": "amount",
          "type": "uint256",
          "internalType": "uint256"
        }
      ],
      "outputs": [],
      "stateMutability": "nonpayable"
    },
    {
      "type": "event",
      "name": "Approval",
      "inputs": [
        {
          "name": "owner",
          "type": "address",
          "indexed": true,
          "internalType": "address"
        },
        {
          "name": "spender",
          "type": "address",
          "indexed": true,
          "internalType": "address"
        },
        {
          "name": "value",
          "type": "uint256",
          "indexed": false,
          "internalType": "uint256"
        }
      ],
      "anonymous": false
    },
    {
      "type": "event",
      "name": "Deposit",
      "inputs": [
        {
          "name": "_from",
          "type": "address",
          "indexed": true,
          "internalType": "address"
        },
        {
          "name": "_for",
          "type": "address",
          "indexed": true,
          "internalType": "address"
        },
        {
          "name": "_amount",
          "type": "uint256",
          "indexed": true,
          "internalType": "uint256"
        }
      ],
      "anonymous": false
    },
    {
      "type": "event",
      "name": "Initialized",
      "inputs": [
        {
          "name": "version",
          "type": "uint64",
          "indexed": false,
          "internalType": "uint64"
        }
      ],
      "anonymous": false
    },
    {
      "type": "event",
      "name": "ModuleInitialized",
      "inputs": [
        {
          "name": "parentOrchestrator",
          "type": "address",
          "indexed": true,
          "internalType": "address"
        },
        {
          "name": "moduleTitle",
          "type": "string",
          "indexed": true,
          "internalType": "string"
        },
        {
          "name": "majorVersion",
          "type": "uint256",
          "indexed": false,
          "internalType": "uint256"
        },
        {
          "name": "minorVersion",
          "type": "uint256",
          "indexed": false,
          "internalType": "uint256"
        }
      ],
      "anonymous": false
    },
    {
      "type": "event",
      "name": "Rebase",
      "inputs": [
        {
          "name": "epoch",
          "type": "uint256",
          "indexed": true,
          "internalType": "uint256"
        },
        {
          "name": "newScalar",
          "type": "uint256",
          "indexed": false,
          "internalType": "uint256"
        }
      ],
      "anonymous": false
    },
    {
      "type": "event",
      "name": "Transfer",
      "inputs": [
        {
          "name": "from",
          "type": "address",
          "indexed": true,
          "internalType": "address"
        },
        {
          "name": "to",
          "type": "address",
          "indexed": true,
          "internalType": "address"
        },
        {
          "name": "value",
          "type": "uint256",
          "indexed": false,
          "internalType": "uint256"
        }
      ],
      "anonymous": false
    },
    {
      "type": "event",
      "name": "TransferOrchestratorToken",
      "inputs": [
        {
          "name": "_to",
          "type": "address",
          "indexed": true,
          "internalType": "address"
        },
        {
          "name": "_amount",
          "type": "uint256",
          "indexed": true,
          "internalType": "uint256"
        }
      ],
      "anonymous": false
    },
    {
      "type": "event",
      "name": "Withdrawal",
      "inputs": [
        {
          "name": "_from",
          "type": "address",
          "indexed": true,
          "internalType": "address"
        },
        {
          "name": "_for",
          "type": "address",
          "indexed": true,
          "internalType": "address"
        },
        {
          "name": "_amount",
          "type": "uint256",
          "indexed": true,
          "internalType": "uint256"
        }
      ],
      "anonymous": false
    },
    {
      "type": "error",
      "name": "AddressEmptyCode",
      "inputs": [
        {
          "name": "target",
          "type": "address",
          "internalType": "address"
        }
      ]
    },
    {
      "type": "error",
      "name": "AddressInsufficientBalance",
      "inputs": [
        {
          "name": "account",
          "type": "address",
          "internalType": "address"
        }
      ]
    },
    {
      "type": "error",
      "name": "FailedInnerCall",
      "inputs": []
    },
    {
      "type": "error",
      "name": "InvalidAmount",
      "inputs": []
    },
    {
      "type": "error",
      "name": "InvalidInitialization",
      "inputs": []
    },
    {
      "type": "error",
      "name": "InvalidRecipient",
      "inputs": []
    },
    {
      "type": "error",
      "name": "MaxSupplyReached",
      "inputs": []
    },
    {
      "type": "error",
      "name": "Module_OrchestratorCallbackFailed",
      "inputs": [
        {
          "name": "funcSig",
          "type": "string",
          "internalType": "string"
        }
      ]
    },
    {
      "type": "error",
      "name": "Module__CallerNotAuthorized",
      "inputs": [
        {
          "name": "role",
          "type": "bytes32",
          "internalType": "bytes32"
        },
        {
          "name": "caller",
          "type": "address",
          "internalType": "address"
        }
      ]
    },
    {
      "type": "error",
      "name": "Module__CannotCallInit2Again",
      "inputs": []
    },
    {
      "type": "error",
      "name": "Module__FundingManager__CannotSelfDeposit",
      "inputs": []
    },
    {
      "type": "error",
      "name": "Module__FundingManager__DepositCapReached",
      "inputs": []
    },
    {
      "type": "error",
      "name": "Module__FundingManager__InvalidAddress",
      "inputs": []
    },
    {
      "type": "error",
      "name": "Module__InvalidMetadata",
      "inputs": []
    },
    {
      "type": "error",
      "name": "Module__InvalidOrchestratorAddress",
      "inputs": []
    },
    {
      "type": "error",
      "name": "Module__NoDependencyOrMalformedDependencyData",
      "inputs": []
    },
    {
      "type": "error",
      "name": "Module__OnlyCallableByOrchestrator",
      "inputs": []
    },
    {
      "type": "error",
      "name": "NotInitializing",
      "inputs": []
    },
    {
      "type": "error",
      "name": "SafeERC20FailedOperation",
      "inputs": [
        {
          "name": "token",
          "type": "address",
          "internalType": "address"
        }
      ]
    }
  ],
  "bytecode": {
    "object": "0x60c06040527f8b73c3c69bb8fe3d512ecc4cf759cc79239f7b179b0ffacaa9a75d522b39400f6080527f6e71edae12b1b97f4d1f60370fef10105fa2faae0126114a169c64845d6126c960a0523480156200005957600080fd5b50620000646200006a565b6200011e565b7ff0c57e16840df040f15088dc2f81fe391c3923bec73e23a9662efc9c229c6a00805468010000000000000000900460ff1615620000bb5760405163f92ee8a960e01b815260040160405180910390fd5b80546001600160401b03908116146200011b5780546001600160401b0319166001600160401b0390811782556040519081527fc7f505b2f371ae2175ee4913f4499e1f2633a7b5936321eed1cdaeb6115181d29060200160405180910390a15b50565b60805160a0516137ce62000152600039600081816103ab0152611a0f015260008181610629015261092301526137ce6000f3fe608060405234801561001057600080fd5b50600436106102c85760003560e01c8063759cc4b51161017b578063a9059cbb116100d8578063bcb619201161008c578063dd62ed3e11610071578063dd62ed3e146105eb578063e1b11da414610624578063fc0c546a1461064b57600080fd5b8063bcb61920146105c5578063d505accf146105d857600080fd5b8063b1bf962d116100bd578063b1bf962d14610580578063b6b55f2514610588578063b74795d91461059b57600080fd5b8063a9059cbb14610565578063af14052c1461057857600080fd5b806395d89b411161012f5780639e978575116101145780639e9785751461052c578063a3a7e7f31461053f578063a457c2d71461055257600080fd5b806395d89b41146105115780639bfdf7661461051957600080fd5b80637998a1c4116101605780637998a1c4146104cd5780637ecebe00146104d557806384d4b410146104fe57600080fd5b8063759cc4b51461047e578063781603761461049157600080fd5b8063313ce5671161022957806354fd4d50116101dd578063572b6c05116101c2578063572b6c05146104455780636c67e8071461045857806370a082311461046b57600080fd5b806354fd4d50146104225780635600f04f1461043d57600080fd5b8063395093511161020e57806339509351146103f457806342dfe958146104075780634a79d50c1461041a57600080fd5b8063313ce567146103cd5780633644e515146103ec57600080fd5b8063205c2878116102805780632e1a7d4d116102655780632e1a7d4d146103805780632f4f21e21461039357806330adf81f146103a657600080fd5b8063205c28781461035857806323b872dd1461036d57600080fd5b8063095ea7b3116102b1578063095ea7b31461030a57806318160ddd1461031d5780631da24f3e1461032f57600080fd5b806301ffc9a7146102cd57806306fdde03146102f5575b600080fd5b6102e06102db366004612dad565b61065c565b60405190151581526020015b60405180910390f35b6102fd6106b8565b6040516102ec9190612e3f565b6102e0610318366004612e67565b610746565b6002545b6040519081526020016102ec565b61032161033d366004612e93565b6001600160a01b031660009081526003602052604090205490565b61036b610366366004612e67565b6107ea565b005b6102e061037b366004612eb0565b610800565b61036b61038e366004612ef1565b6108f1565b61036b6103a1366004612e67565b61090d565b6103217f000000000000000000000000000000000000000000000000000000000000000081565b6007546103da9060ff1681565b60405160ff90911681526020016102ec565b61032161091f565b6102e0610402366004612e67565b6109ea565b61036b610415366004613011565b610a88565b6102fd610d70565b600a54600b54604080519283526020830191909152016102ec565b6102fd610e05565b6102e0610453366004612e93565b610e17565b61036b6104663660046130ed565b610ea4565b610321610479366004612e93565b611179565b61036b61048c366004612e67565b6111a0565b6102fd6040518060400160405280600181526020017f310000000000000000000000000000000000000000000000000000000000000081525081565b61032161125e565b6103216104e3366004612e93565b6001600160a01b031660009081526008602052604090205490565b6102e061050c36600461311d565b6113ae565b6102fd611494565b61036b61052736600461314b565b6114a1565b6102e061053a36600461319b565b61152b565b6102e061054d366004612e93565b611548565b6102e0610560366004612e67565b6115c4565b6102e0610573366004612e67565b6116a1565b61036b611748565b610321611752565b61036b610596366004612ef1565b61175c565b60095461010090046001600160a01b03165b6040516001600160a01b0390911681526020016102ec565b61036b6105d33660046130ed565b611775565b61036b6105e63660046131e7565b6119cc565b6103216105f936600461311d565b6001600160a01b03918216600090815260046020908152604080832093909416825291909152205490565b6103217f000000000000000000000000000000000000000000000000000000000000000081565b600e546001600160a01b03166105ad565b60007fffffffff0000000000000000000000000000000000000000000000000000000082167f899090df0000000000000000000000000000000000000000000000000000000014806106b257506106b282611bb1565b92915050565b600580546106c590613258565b80601f01602080910402602001604051908101604052809291908181526020018280546106f190613258565b801561073e5780601f106107135761010080835404028352916020019161073e565b820191906000526020600020905b81548152906001019060200180831161072157829003601f168201915b505050505081565b6000826001600160a01b038116158061076757506001600160a01b03811630145b1561078557604051634e46966960e11b815260040160405180910390fd5b3360008181526004602090815260408083206001600160a01b03891680855290835292819020879055518681529192917f8c5be1e5ebec7d5bd14f71427d1e84f3dd0314c0f7b2291e5b200ac8c7c3b925910160405180910390a35060019392505050565b6107fc6107f5611c07565b8383611cc7565b5050565b6000836001600160a01b038116158061082157506001600160a01b03811630145b1561083f57604051634e46966960e11b815260040160405180910390fd5b836001600160a01b038116158061085e57506001600160a01b03811630145b1561087c57604051634e46966960e11b815260040160405180910390fd5b83806000036108b7576040517f2c5211c600000000000000000000000000000000000000000000000000000000815260040160405180910390fd5b6108bf611d40565b60006108ca86611dd4565b90506108d7883388611e2b565b6108e388888884611e9a565b506001979650505050505050565b61090a6108fc611c07565b610904611c07565b83611cc7565b50565b6107fc610918611c07565b8383611f80565b60007f0000000000000000000000000000000000000000000000000000000000000000600560405161095191906132a5565b604080519182900382208282018252600183527f31000000000000000000000000000000000000000000000000000000000000006020938401528151928301939093528101919091527fc89efdaa54c0f20c7adf612882df0950f5a951637e0307cdcb4c672f298b8bc660608201524660808201523060a082015260c00160405160208183030381529060405280519060200120905090565b3360009081526004602090815260408083206001600160a01b0386168452909152812080548391908390610a1f90849061334a565b90915550503360008181526004602090815260408083206001600160a01b038816808552908352928190205490519081529192917f8c5be1e5ebec7d5bd14f71427d1e84f3dd0314c0f7b2291e5b200ac8c7c3b92591015b60405180910390a350600192915050565b7ff0c57e16840df040f15088dc2f81fe391c3923bec73e23a9662efc9c229c6a00805468010000000000000000810460ff16159067ffffffffffffffff16600081158015610ad35750825b905060008267ffffffffffffffff166001148015610af05750303b155b905081158015610afe575080155b15610b35576040517ff92ee8a900000000000000000000000000000000000000000000000000000000815260040160405180910390fd5b84547fffffffffffffffffffffffffffffffffffffffffffffffff00000000000000001660011785558315610b965784547fffffffffffffffffffffffffffffffffffffffffffffff00ffffffffffffffff16680100000000000000001785555b610ba0888861211e565b600086806020019051810190610bb6919061335d565b905080600e60006101000a8154816001600160a01b0302191690836001600160a01b031602179055506000610c4b8a6001600160a01b031663736963a76040518163ffffffff1660e01b8152600401602060405180830381865afa158015610c22573d6000803e3d6000fd5b505050506040513d601f19601f82011682018060405250810190610c46919061337a565b61227d565b9050600081604051602001610c609190613393565b6040516020818303038152906040529050600082604051602001610c8491906133fe565b6040516020818303038152906040529050610d018282866001600160a01b031663313ce5676040518163ffffffff1660e01b8152600401602060405180830381865afa158015610cd8573d6000803e3d6000fd5b505050506040513d601f19601f82011682018060405250810190610cfc9190613443565b61231d565b505050508315610d665784547fffffffffffffffffffffffffffffffffffffffffffffff00ffffffffffffffff168555604051600181527fc7f505b2f371ae2175ee4913f4499e1f2633a7b5936321eed1cdaeb6115181d29060200160405180910390a15b5050505050505050565b6060600a6003018054610d8290613258565b80601f0160208091040260200160405190810160405280929190818152602001828054610dae90613258565b8015610dfb5780601f10610dd057610100808354040283529160200191610dfb565b820191906000526020600020905b815481529060010190602001808311610dde57829003601f168201915b5050505050905090565b6060600a6002018054610d8290613258565b6009546040517f572b6c050000000000000000000000000000000000000000000000000000000081526001600160a01b0383811660048301526000926101009004169063572b6c0590602401602060405180830381865afa158015610e80573d6000803e3d6000fd5b505050506040513d601f19601f820116820180604052508101906106b29190613470565b6000600960019054906101000a90046001600160a01b03166001600160a01b031663d09edf316040518163ffffffff1660e01b8152600401602060405180830381865afa158015610ef9573d6000803e3d6000fd5b505050506040513d601f19601f82011682018060405250810190610f1d919061335d565b90506000816001600160a01b03166355ff58d46040518163ffffffff1660e01b8152600401602060405180830381865afa158015610f5f573d6000803e3d6000fd5b505050506040513d601f19601f82011682018060405250810190610f83919061337a565b9050816001600160a01b03166391d1485482610f9d611c07565b6040517fffffffff0000000000000000000000000000000000000000000000000000000060e085901b16815260048101929092526001600160a01b03166024820152604401602060405180830381865afa158015610fff573d6000803e3d6000fd5b505050506040513d601f19601f820116820180604052508101906110239190613470565b6110795780611030611c07565b6040517f42abbb7700000000000000000000000000000000000000000000000000000000815260048101929092526001600160a01b031660248201526044015b60405180910390fd5b6000600960019054906101000a90046001600160a01b03166001600160a01b031663d09edf316040518163ffffffff1660e01b8152600401602060405180830381865afa1580156110ce573d6000803e3d6000fd5b505050506040513d601f19601f820116820180604052508101906110f2919061335d565b6040517fe1788154000000000000000000000000000000000000000000000000000000008152600481018790526001600160a01b0386811660248301529192509082169063e1788154906044015b600060405180830381600087803b15801561115a57600080fd5b505af115801561116e573d6000803e3d6000fd5b505050505050505050565b6001546001600160a01b03821660009081526003602052604081205490916106b2916134ba565b60095461010090046001600160a01b03166111b9611c07565b6001600160a01b0316146111f9576040517fe614e81b00000000000000000000000000000000000000000000000000000000815260040160405180910390fd5b816001600160a01b038116158061121857506001600160a01b03811630145b1561124f576040517f1f01ebd800000000000000000000000000000000000000000000000000000000815260040160405180910390fd5b61125983836123a7565b505050565b60408051608081018252600a80548252600b546020830152600c80546000946113a99493929084019161129090613258565b80601f01602080910402602001604051908101604052809291908181526020018280546112bc90613258565b80156113095780601f106112de57610100808354040283529160200191611309565b820191906000526020600020905b8154815290600101906020018083116112ec57829003601f168201915b5050505050815260200160038201805461132290613258565b80601f016020809104026020016040519081016040528092919081815260200182805461134e90613258565b801561139b5780601f106113705761010080835404028352916020019161139b565b820191906000526020600020905b81548152906001019060200180831161137e57829003601f168201915b5050505050815250506123f8565b905090565b6000826001600160a01b03811615806113cf57506001600160a01b03811630145b156113ed57604051634e46966960e11b815260040160405180910390fd5b826001600160a01b038116158061140c57506001600160a01b03811630145b1561142a57604051634e46966960e11b815260040160405180910390fd5b611432611d40565b6001600160a01b0385166000908152600360205260408120549061145582612438565b9050806000036114705761146b87336001611e2b565b61147b565b61147b873383611e2b565b61148787878385611e9a565b5060019695505050505050565b600680546106c590613258565b60095460ff16156114de576040517f904875a100000000000000000000000000000000000000000000000000000000815260040160405180910390fd5b6009805460ff19166001179055806114f581612448565b611259576040517feef043ae00000000000000000000000000000000000000000000000000000000815260040160405180910390fd5b60008180602001905181019061154191906134ce565b5092915050565b6000816001600160a01b038116158061156957506001600160a01b03811630145b1561158757604051634e46966960e11b815260040160405180910390fd5b61158f611d40565b33600090815260036020526040812054906115a982612438565b90506115b733868385611e9a565b6001935050505b50919050565b3360009081526004602090815260408083206001600160a01b03861684529091528120548210611617573360009081526004602090815260408083206001600160a01b038716845290915281205561164a565b3360009081526004602090815260408083206001600160a01b038716845290915281208054849290610a1f9084906135df565b3360008181526004602090815260408083206001600160a01b038816808552908352928190205490519081529192917f8c5be1e5ebec7d5bd14f71427d1e84f3dd0314c0f7b2291e5b200ac8c7c3b9259101610a77565b6000826001600160a01b03811615806116c257506001600160a01b03811630145b156116e057604051634e46966960e11b815260040160405180910390fd5b828060000361171b576040517f2c5211c600000000000000000000000000000000000000000000000000000000815260040160405180910390fd5b611723611d40565b600061172e85611dd4565b905061173c33878784611e9a565b50600195945050505050565b611750611d40565b565b60006113a9612555565b61090a611767611c07565b61176f611c07565b83611f80565b6000600960019054906101000a90046001600160a01b03166001600160a01b031663d09edf316040518163ffffffff1660e01b8152600401602060405180830381865afa1580156117ca573d6000803e3d6000fd5b505050506040513d601f19601f820116820180604052508101906117ee919061335d565b90506000816001600160a01b03166355ff58d46040518163ffffffff1660e01b8152600401602060405180830381865afa158015611830573d6000803e3d6000fd5b505050506040513d601f19601f82011682018060405250810190611854919061337a565b9050816001600160a01b03166391d148548261186e611c07565b6040517fffffffff0000000000000000000000000000000000000000000000000000000060e085901b16815260048101929092526001600160a01b03166024820152604401602060405180830381865afa1580156118d0573d6000803e3d6000fd5b505050506040513d601f19601f820116820180604052508101906118f49190613470565b6119015780611030611c07565b6000600960019054906101000a90046001600160a01b03166001600160a01b031663d09edf316040518163ffffffff1660e01b8152600401602060405180830381865afa158015611956573d6000803e3d6000fd5b505050506040513d601f19601f8201168201806040525081019061197a919061335d565b6040517fba66f9fc000000000000000000000000000000000000000000000000000000008152600481018790526001600160a01b0386811660248301529192509082169063ba66f9fc90604401611140565b834211156119d957600080fd5b600060016119e561091f565b6001600160a01b038a811660008181526008602090815260409182902080546001810190915582517f00000000000000000000000000000000000000000000000000000000000000008184015280840194909452938d166060840152608083018c905260a083019390935260c08083018b90528151808403909101815260e0830190915280519201919091207f19010000000000000000000000000000000000000000000000000000000000006101008301526101028201929092526101228101919091526101420160408051601f198184030181528282528051602091820120600084529083018083525260ff871690820152606081018590526080810184905260a0016020604051602081039080840390855afa158015611b0c573d6000803e3d6000fd5b5050604051601f1901519150506001600160a01b03811615801590611b425750876001600160a01b0316816001600160a01b0316145b611b4b57600080fd5b506001600160a01b038781166000818152600460209081526040808320948b168084529482529182902089905590518881527f8c5be1e5ebec7d5bd14f71427d1e84f3dd0314c0f7b2291e5b200ac8c7c3b925910160405180910390a350505050505050565b60007fffffffff0000000000000000000000000000000000000000000000000000000082167fd883df120000000000000000000000000000000000000000000000000000000014806106b257506106b2826125af565b6009546040517f572b6c0500000000000000000000000000000000000000000000000000000000815233600482015260009161010090046001600160a01b03169063572b6c0590602401602060405180830381865afa158015611c6e573d6000803e3d6000fd5b505050506040513d601f19601f82011682018060405250810190611c929190613470565b15611cc257507fffffffffffffffffffffffffffffffffffffffffffffffffffffffffffffffec36013560601c90565b503390565b611cd183826125ba565b9050611cfa8282611cea600e546001600160a01b031690565b6001600160a01b031691906126ec565b80826001600160a01b0316846001600160a01b03167f2717ead6b9200dd235aad468c9809ea400fe33ac69b5bfaa6d3e90fc922b639860405160405180910390a4505050565b6000611d4a612760565b9050801580611d6457506b033b2e3c9fd0803ce800000081115b15611d6c5750565b80611d75612555565b611d7f91906134ba565b6001556002819055600080549080611d96836135f2565b90915550506000546040518281527f11c6bf55864ff83827df712625d7a80e5583eef0264921025e7cd22003a215119060200160405180910390a250565b6000600154600014611df257600154611ded908361360c565b6106b2565b6b033b2e3c9fd0803ce8000000611e0b81600019613623565b611e17906000196135df565b611e2191906134ba565b6106b2908361360c565b6001600160a01b0380841660009081526004602090815260408083209386168352929052205460001914611259576001600160a01b03808416600090815260046020908152604080832093861683529290529081208054839290611e909084906135df565b9091555050505050565b6001600160a01b03841660009081526003602052604081208054839290611ec29084906135df565b90915550506001600160a01b03831660009081526003602052604081208054839290611eef90849061334a565b90915550506001600160a01b0384166000908152600360205260408120549003611f2d576001600160a01b0384166000908152600360205260408120555b826001600160a01b0316846001600160a01b03167fddf252ad1be2c89b69c2b068fc378daa952ba7f163c4a11628f55a4df523b3ef84604051611f7291815260200190565b60405180910390a350505050565b306001600160a01b03841603611fc2576040517ff7cd8f7100000000000000000000000000000000000000000000000000000000815260040160405180910390fd5b6a52b7d2dcc80cd2e4000000611fe0600e546001600160a01b031690565b6040517f70a082310000000000000000000000000000000000000000000000000000000081523060048201526001600160a01b0391909116906370a0823190602401602060405180830381865afa15801561203f573d6000803e3d6000fd5b505050506040513d601f19601f82011682018060405250810190612063919061337a565b61206d908361334a565b11156120a5576040517fd335887400000000000000000000000000000000000000000000000000000000815260040160405180910390fd5b6120af82826127f7565b6120d88330836120c7600e546001600160a01b031690565b6001600160a01b0316929190612987565b80826001600160a01b0316846001600160a01b03167f5548c837ab068cf56a2c2479df0882a4922fd203edb7517321831d95078c5f6260405160405180910390a4505050565b6121266129c6565b6001600160a01b038216612166576040517f7280679300000000000000000000000000000000000000000000000000000000815260040160405180910390fd5b600980547fffffffffffffffffffffff0000000000000000000000000000000000000000ff166101006001600160a01b038516021790556121a681612a2d565b6121dc576040517f7511254100000000000000000000000000000000000000000000000000000000815260040160405180910390fd5b8051600a9081556020820151600b556040820151829190600c90612200908261367f565b5060608201516003820190612215908261367f565b505050606081015160405161222a919061373f565b604080519182900382208351602080860151918552840152916001600160a01b038516917feb175f148a71d29a5f7bf5439182fcd81e6ea9cfc8a11b54ab0f705fa98fa8ca910160405180910390a35050565b6060600061228a83612a7f565b600101905060008167ffffffffffffffff8111156122aa576122aa612f0a565b6040519080825280601f01601f1916602001820160405280156122d4576020820181803683370190505b5090508181016020015b600019017f3031323334353637383961626364656600000000000000000000000000000000600a86061a8153600a85049450846122de57509392505050565b6002541561232a57600080fd5b6005612336848261367f565b506006612343838261367f565b506007805460ff191660ff831617905561236b6b033b2e3c9fd0803ce8000000600019613623565b612377906000196135df565b6000805260036020527f3617319a054d772f909f7c479a2cebe5066e836a939412e32403c99029b92eff55505050565b6123be8282611cea600e546001600160a01b031690565b60405181906001600160a01b038416907fe88292c5f714100904272672c0420345093bd0e3c5555d31f3e4e2cf5f6ca8a190600090a35050565b600081600001518260400151836060015160405160200161241b9392919061375b565b604051602081830303815290604052805190602001209050919050565b6000600154826106b291906134ba565b6040517f9e9785750000000000000000000000000000000000000000000000000000000081526000903090639e97857590612487908590600401612e3f565b602060405180830381865afa9250505080156124c0575060408051601f3d908101601f191682019092526124bd91810190613470565b60015b6124cc57506000919050565b6040517f9e9785750000000000000000000000000000000000000000000000000000000081523090639e97857590612508908690600401612e3f565b602060405180830381865afa158015612525573d6000803e3d6000fd5b505050506040513d601f19601f820116820180604052508101906125499190613470565b9392505050565b919050565b600080805260036020527f3617319a054d772f909f7c479a2cebe5066e836a939412e32403c99029b92eff546125996b033b2e3c9fd0803ce8000000600019613623565b6125a5906000196135df565b6113a991906135df565b60006106b282612b61565b6000826001600160a01b03811615806125db57506001600160a01b03811630145b156125f957604051634e46966960e11b815260040160405180910390fd5b8280600003612634576040517f2c5211c600000000000000000000000000000000000000000000000000000000815260040160405180910390fd5b600061263f85611dd4565b9050612649611d40565b61265281612438565b94506126618660008784611e9a565b846002600082825461267391906135df565b9091555050600254612683612555565b61268d91906134ba565b60015560008054908061269f836135f2565b91905055506000547f11c6bf55864ff83827df712625d7a80e5583eef0264921025e7cd22003a215116002546040516126da91815260200190565b60405180910390a25092949350505050565b6040516001600160a01b0383811660248301526044820183905261125991859182169063a9059cbb906064015b604051602081830303815290604052915060e01b6020820180517bffffffffffffffffffffffffffffffffffffffffffffffffffffffff8381831617835250505050612bf8565b6000612774600e546001600160a01b031690565b6040517f70a082310000000000000000000000000000000000000000000000000000000081523060048201526001600160a01b0391909116906370a0823190602401602060405180830381865afa1580156127d3573d6000803e3d6000fd5b505050506040513d601f19601f820116820180604052508101906113a9919061337a565b816001600160a01b038116158061281657506001600160a01b03811630145b1561283457604051634e46966960e11b815260040160405180910390fd5b818060000361286f576040517f2c5211c600000000000000000000000000000000000000000000000000000000815260040160405180910390fd5b612877611d40565b6b033b2e3c9fd0803ce800000083600254612892919061334a565b11156128ca576040517fd05cb60900000000000000000000000000000000000000000000000000000000815260040160405180910390fd5b60006128d584611dd4565b90506000816128e2612555565b6128ec919061334a565b90508460026000828254612900919061334a565b90915550506001546000036129205760025461291c90826134ba565b6001555b60008054908061292f836135f2565b91905055506000547f11c6bf55864ff83827df712625d7a80e5583eef0264921025e7cd22003a2151160025460405161296a91815260200190565b60405180910390a261297f6000878785611e9a565b505050505050565b6040516001600160a01b0384811660248301528381166044830152606482018390526129c09186918216906323b872dd90608401612719565b50505050565b7ff0c57e16840df040f15088dc2f81fe391c3923bec73e23a9662efc9c229c6a005468010000000000000000900460ff16611750576040517fd7e6bcf800000000000000000000000000000000000000000000000000000000815260040160405180910390fd5b6000816040015151600003612a4457506000919050565b816060015151600003612a5957506000919050565b8151158015612a6a57506020820151155b15612a7757506000919050565b506001919050565b6000807a184f03e93ff9f4daa797ed6e38ed64bf6a1f0100000000000000008310612ac8577a184f03e93ff9f4daa797ed6e38ed64bf6a1f010000000000000000830492506040015b6d04ee2d6d415b85acef81000000008310612af4576d04ee2d6d415b85acef8100000000830492506020015b662386f26fc100008310612b1257662386f26fc10000830492506010015b6305f5e1008310612b2a576305f5e100830492506008015b6127108310612b3e57612710830492506004015b60648310612b50576064830492506002015b600a83106106b25760010192915050565b60007fffffffff0000000000000000000000000000000000000000000000000000000082167f247a8fdc0000000000000000000000000000000000000000000000000000000014806106b257507f01ffc9a7000000000000000000000000000000000000000000000000000000007fffffffff000000000000000000000000000000000000000000000000000000008316146106b2565b6000612c0d6001600160a01b03841683612c74565b90508051600014158015612c32575080806020019051810190612c309190613470565b155b15611259576040517f5274afe70000000000000000000000000000000000000000000000000000000081526001600160a01b0384166004820152602401611070565b60606125498383600084600080856001600160a01b03168486604051612c9a919061373f565b60006040518083038185875af1925050503d8060008114612cd7576040519150601f19603f3d011682016040523d82523d6000602084013e612cdc565b606091505b5091509150612cec868383612cf6565b9695505050505050565b606082612d0b57612d0682612d6b565b612549565b8151158015612d2257506001600160a01b0384163b155b15612d64576040517f9996b3150000000000000000000000000000000000000000000000000000000081526001600160a01b0385166004820152602401611070565b5080612549565b805115612d7b5780518082602001fd5b6040517f1425ea4200000000000000000000000000000000000000000000000000000000815260040160405180910390fd5b600060208284031215612dbf57600080fd5b81357fffffffff000000000000000000000000000000000000000000000000000000008116811461254957600080fd5b60005b83811015612e0a578181015183820152602001612df2565b50506000910152565b60008151808452612e2b816020860160208601612def565b601f01601f19169290920160200192915050565b6020815260006125496020830184612e13565b6001600160a01b038116811461090a57600080fd5b60008060408385031215612e7a57600080fd5b8235612e8581612e52565b946020939093013593505050565b600060208284031215612ea557600080fd5b813561254981612e52565b600080600060608486031215612ec557600080fd5b8335612ed081612e52565b92506020840135612ee081612e52565b929592945050506040919091013590565b600060208284031215612f0357600080fd5b5035919050565b7f4e487b7100000000000000000000000000000000000000000000000000000000600052604160045260246000fd5b6040516080810167ffffffffffffffff81118282101715612f5c57612f5c612f0a565b60405290565b604051601f8201601f1916810167ffffffffffffffff81118282101715612f8b57612f8b612f0a565b604052919050565b600067ffffffffffffffff821115612fad57612fad612f0a565b50601f01601f191660200190565b600082601f830112612fcc57600080fd5b8135612fdf612fda82612f93565b612f62565b818152846020838601011115612ff457600080fd5b816020850160208301376000918101602001919091529392505050565b60008060006060848603121561302657600080fd5b833561303181612e52565b9250602084013567ffffffffffffffff8082111561304e57600080fd5b908501906080828803121561306257600080fd5b61306a612f39565b823581526020830135602082015260408301358281111561308a57600080fd5b61309689828601612fbb565b6040830152506060830135828111156130ae57600080fd5b6130ba89828601612fbb565b606083015250935060408601359150808211156130d657600080fd5b506130e386828701612fbb565b9150509250925092565b6000806040838503121561310057600080fd5b82359150602083013561311281612e52565b809150509250929050565b6000806040838503121561313057600080fd5b823561313b81612e52565b9150602083013561311281612e52565b6000806040838503121561315e57600080fd5b823561316981612e52565b9150602083013567ffffffffffffffff81111561318557600080fd5b61319185828601612fbb565b9150509250929050565b6000602082840312156131ad57600080fd5b813567ffffffffffffffff8111156131c457600080fd5b6131d084828501612fbb565b949350505050565b60ff8116811461090a57600080fd5b600080600080600080600060e0888a03121561320257600080fd5b873561320d81612e52565b9650602088013561321d81612e52565b95506040880135945060608801359350608088013561323b816131d8565b9699959850939692959460a0840135945060c09093013592915050565b600181811c9082168061326c57607f821691505b6020821081036115be577f4e487b7100000000000000000000000000000000000000000000000000000000600052602260045260246000fd5b60008083546132b381613258565b600182811680156132cb57600181146132e05761330f565b60ff198416875282151583028701945061330f565b8760005260208060002060005b858110156133065781548a8201529084019082016132ed565b50505082870194505b50929695505050505050565b7f4e487b7100000000000000000000000000000000000000000000000000000000600052601160045260246000fd5b808201808211156106b2576106b261331b565b60006020828403121561336f57600080fd5b815161254981612e52565b60006020828403121561338c57600080fd5b5051919050565b7f496e7665727465722046756e64696e6720546f6b656e202d204f72636865737481527f7261746f722023000000000000000000000000000000000000000000000000006020820152600082516133f1816027850160208701612def565b9190910160270192915050565b7f4946542d00000000000000000000000000000000000000000000000000000000815260008251613436816004850160208701612def565b9190910160040192915050565b60006020828403121561345557600080fd5b8151612549816131d8565b8051801515811461255057600080fd5b60006020828403121561348257600080fd5b61254982613460565b7f4e487b7100000000000000000000000000000000000000000000000000000000600052601260045260246000fd5b6000826134c9576134c961348b565b500490565b60008060408084860312156134e257600080fd5b6134eb84613460565b925060208085015167ffffffffffffffff8082111561350957600080fd5b818701915087601f83011261351d57600080fd5b81518181111561352f5761352f612f0a565b8060051b61353e858201612f62565b918252838101850191858101908b84111561355857600080fd5b86860192505b838310156135cd578251858111156135765760008081fd5b8601603f81018d136135885760008081fd5b87810151613598612fda82612f93565b8181528e8b8385010111156135ad5760008081fd5b6135bc828b83018d8601612def565b84525050918601919086019061355e565b80985050505050505050509250929050565b818103818111156106b2576106b261331b565b600060001982036136055761360561331b565b5060010190565b80820281158282048414176106b2576106b261331b565b6000826136325761363261348b565b500690565b601f821115611259576000816000526020600020601f850160051c810160208610156136605750805b601f850160051c820191505b8181101561297f5782815560010161366c565b815167ffffffffffffffff81111561369957613699612f0a565b6136ad816136a78454613258565b84613637565b602080601f8311600181146136e257600084156136ca5750858301515b600019600386901b1c1916600185901b17855561297f565b600085815260208120601f198616915b82811015613711578886015182559484019460019091019084016136f2565b508582101561372f5787850151600019600388901b60f8161c191681555b5050505050600190811b01905550565b60008251613751818460208701612def565b9190910192915050565b83815260008351613773816020850160208801612def565b8083019050835161378b816020840160208801612def565b016020019594505050505056fea26469706673582212207631548b61eb2ade307aab164b41e7faa011a35f1b3b5e4e7960aa6a3ef502bd64736f6c63430008170033",
    "linkReferences": {}
  },
  "methodIdentifiers": {
    "DOMAIN_SEPARATOR()": "3644e515",
    "EIP712_DOMAIN()": "e1b11da4",
    "EIP712_REVISION()": "78160376",
    "PERMIT_TYPEHASH()": "30adf81f",
    "allowance(address,address)": "dd62ed3e",
    "approve(address,uint256)": "095ea7b3",
    "balanceOf(address)": "70a08231",
    "decimals()": "313ce567",
    "decoder(bytes)": "9e978575",
    "decreaseAllowance(address,uint256)": "a457c2d7",
    "deposit(uint256)": "b6b55f25",
    "depositFor(address,uint256)": "2f4f21e2",
    "grantModuleRole(bytes32,address)": "6c67e807",
    "identifier()": "7998a1c4",
    "increaseAllowance(address,uint256)": "39509351",
    "init(address,(uint256,uint256,string,string),bytes)": "42dfe958",
    "init2(address,bytes)": "9bfdf766",
    "isTrustedForwarder(address)": "572b6c05",
    "name()": "06fdde03",
    "nonces(address)": "7ecebe00",
    "orchestrator()": "b74795d9",
    "permit(address,address,uint256,uint256,uint8,bytes32,bytes32)": "d505accf",
    "rebase()": "af14052c",
    "revokeModuleRole(bytes32,address)": "bcb61920",
    "scaledBalanceOf(address)": "1da24f3e",
    "scaledTotalSupply()": "b1bf962d",
    "supportsInterface(bytes4)": "01ffc9a7",
    "symbol()": "95d89b41",
    "title()": "4a79d50c",
    "token()": "fc0c546a",
    "totalSupply()": "18160ddd",
    "transfer(address,uint256)": "a9059cbb",
    "transferAll(address)": "a3a7e7f3",
    "transferAllFrom(address,address)": "84d4b410",
    "transferFrom(address,address,uint256)": "23b872dd",
    "transferOrchestratorToken(address,uint256)": "759cc4b5",
    "url()": "5600f04f",
    "version()": "54fd4d50",
    "withdraw(uint256)": "2e1a7d4d",
    "withdrawTo(address,uint256)": "205c2878"
  },
  "id": 102
}