{
  "abi": [
    {
      "inputs": [
        {
          "internalType": "address",
          "name": "target",
          "type": "address"
        }
      ],
      "name": "AddressEmptyCode",
      "type": "error"
    },
    {
      "inputs": [
        {
          "internalType": "address",
          "name": "account",
          "type": "address"
        }
      ],
      "name": "AddressInsufficientBalance",
      "type": "error"
    },
    {
      "inputs": [],
      "name": "FailedInnerCall",
      "type": "error"
    },
    {
      "inputs": [],
      "name": "InvalidAmount",
      "type": "error"
    },
    {
      "inputs": [],
      "name": "InvalidInitialization",
      "type": "error"
    },
    {
      "inputs": [],
      "name": "InvalidRecipient",
      "type": "error"
    },
    {
      "inputs": [],
      "name": "MaxSupplyReached",
      "type": "error"
    },
    {
      "inputs": [
        {
          "internalType": "string",
          "name": "funcSig",
          "type": "string"
        }
      ],
      "name": "Module_OrchestratorCallbackFailed",
      "type": "error"
    },
    {
      "inputs": [
        {
          "internalType": "bytes32",
          "name": "role",
          "type": "bytes32"
        },
        {
          "internalType": "address",
          "name": "caller",
          "type": "address"
        }
      ],
      "name": "Module__CallerNotAuthorized",
      "type": "error"
    },
    {
      "inputs": [],
      "name": "Module__CannotCallInit2Again",
      "type": "error"
    },
    {
      "inputs": [],
      "name": "Module__FundingManager__CannotSelfDeposit",
      "type": "error"
    },
    {
      "inputs": [],
      "name": "Module__FundingManager__DepositCapReached",
      "type": "error"
    },
    {
      "inputs": [],
      "name": "Module__FundingManager__InvalidAddress",
      "type": "error"
    },
    {
      "inputs": [],
      "name": "Module__InvalidMetadata",
      "type": "error"
    },
    {
      "inputs": [],
      "name": "Module__InvalidOrchestratorAddress",
      "type": "error"
    },
    {
      "inputs": [],
      "name": "Module__NoDependencyOrMalformedDependencyData",
      "type": "error"
    },
    {
      "inputs": [],
      "name": "Module__OnlyCallableByOrchestrator",
      "type": "error"
    },
    {
      "inputs": [],
      "name": "NotInitializing",
      "type": "error"
    },
    {
      "inputs": [
        {
          "internalType": "address",
          "name": "token",
          "type": "address"
        }
      ],
      "name": "SafeERC20FailedOperation",
      "type": "error"
    },
    {
      "anonymous": false,
      "inputs": [
        {
          "indexed": true,
          "internalType": "address",
          "name": "owner",
          "type": "address"
        },
        {
          "indexed": true,
          "internalType": "address",
          "name": "spender",
          "type": "address"
        },
        {
          "indexed": false,
          "internalType": "uint256",
          "name": "value",
          "type": "uint256"
        }
      ],
      "name": "Approval",
      "type": "event"
    },
    {
      "anonymous": false,
      "inputs": [
        {
          "indexed": true,
          "internalType": "address",
          "name": "_from",
          "type": "address"
        },
        {
          "indexed": true,
          "internalType": "address",
          "name": "_for",
          "type": "address"
        },
        {
          "indexed": true,
          "internalType": "uint256",
          "name": "_amount",
          "type": "uint256"
        }
      ],
      "name": "Deposit",
      "type": "event"
    },
    {
      "anonymous": false,
      "inputs": [
        {
          "indexed": false,
          "internalType": "uint64",
          "name": "version",
          "type": "uint64"
        }
      ],
      "name": "Initialized",
      "type": "event"
    },
    {
      "anonymous": false,
      "inputs": [
        {
          "indexed": true,
          "internalType": "address",
          "name": "parentOrchestrator",
          "type": "address"
        },
        {
          "indexed": true,
          "internalType": "string",
          "name": "moduleTitle",
          "type": "string"
        },
        {
          "indexed": false,
          "internalType": "uint256",
          "name": "majorVersion",
          "type": "uint256"
        },
        {
          "indexed": false,
          "internalType": "uint256",
          "name": "minorVersion",
          "type": "uint256"
        }
      ],
      "name": "ModuleInitialized",
      "type": "event"
    },
    {
      "anonymous": false,
      "inputs": [
        {
          "indexed": true,
          "internalType": "uint256",
          "name": "epoch",
          "type": "uint256"
        },
        {
          "indexed": false,
          "internalType": "uint256",
          "name": "newScalar",
          "type": "uint256"
        }
      ],
      "name": "Rebase",
      "type": "event"
    },
    {
      "anonymous": false,
      "inputs": [
        {
          "indexed": true,
          "internalType": "address",
          "name": "from",
          "type": "address"
        },
        {
          "indexed": true,
          "internalType": "address",
          "name": "to",
          "type": "address"
        },
        {
          "indexed": false,
          "internalType": "uint256",
          "name": "value",
          "type": "uint256"
        }
      ],
      "name": "Transfer",
      "type": "event"
    },
    {
      "anonymous": false,
      "inputs": [
        {
          "indexed": true,
          "internalType": "address",
          "name": "_to",
          "type": "address"
        },
        {
          "indexed": true,
          "internalType": "uint256",
          "name": "_amount",
          "type": "uint256"
        }
      ],
      "name": "TransferOrchestratorToken",
      "type": "event"
    },
    {
      "anonymous": false,
      "inputs": [
        {
          "indexed": true,
          "internalType": "address",
          "name": "_from",
          "type": "address"
        },
        {
          "indexed": true,
          "internalType": "address",
          "name": "_for",
          "type": "address"
        },
        {
          "indexed": true,
          "internalType": "uint256",
          "name": "_amount",
          "type": "uint256"
        }
      ],
      "name": "Withdrawal",
      "type": "event"
    },
    {
      "inputs": [],
      "name": "DOMAIN_SEPARATOR",
      "outputs": [
        {
          "internalType": "bytes32",
          "name": "",
          "type": "bytes32"
        }
      ],
      "stateMutability": "view",
      "type": "function"
    },
    {
      "inputs": [],
      "name": "EIP712_DOMAIN",
      "outputs": [
        {
          "internalType": "bytes32",
          "name": "",
          "type": "bytes32"
        }
      ],
      "stateMutability": "view",
      "type": "function"
    },
    {
      "inputs": [],
      "name": "EIP712_REVISION",
      "outputs": [
        {
          "internalType": "string",
          "name": "",
          "type": "string"
        }
      ],
      "stateMutability": "view",
      "type": "function"
    },
    {
      "inputs": [],
      "name": "PERMIT_TYPEHASH",
      "outputs": [
        {
          "internalType": "bytes32",
          "name": "",
          "type": "bytes32"
        }
      ],
      "stateMutability": "view",
      "type": "function"
    },
    {
      "inputs": [
        {
          "internalType": "address",
          "name": "owner_",
          "type": "address"
        },
        {
          "internalType": "address",
          "name": "spender",
          "type": "address"
        }
      ],
      "name": "allowance",
      "outputs": [
        {
          "internalType": "uint256",
          "name": "",
          "type": "uint256"
        }
      ],
      "stateMutability": "view",
      "type": "function"
    },
    {
      "inputs": [
        {
          "internalType": "address",
          "name": "spender",
          "type": "address"
        },
        {
          "internalType": "uint256",
          "name": "tokens",
          "type": "uint256"
        }
      ],
      "name": "approve",
      "outputs": [
        {
          "internalType": "bool",
          "name": "",
          "type": "bool"
        }
      ],
      "stateMutability": "nonpayable",
      "type": "function"
    },
    {
      "inputs": [
        {
          "internalType": "address",
          "name": "who",
          "type": "address"
        }
      ],
      "name": "balanceOf",
      "outputs": [
        {
          "internalType": "uint256",
          "name": "",
          "type": "uint256"
        }
      ],
      "stateMutability": "view",
      "type": "function"
    },
    {
      "inputs": [],
      "name": "decimals",
      "outputs": [
        {
          "internalType": "uint8",
          "name": "",
          "type": "uint8"
        }
      ],
      "stateMutability": "view",
      "type": "function"
    },
    {
      "inputs": [
        {
          "internalType": "bytes",
          "name": "data",
          "type": "bytes"
        }
      ],
      "name": "decoder",
      "outputs": [
        {
          "internalType": "bool",
          "name": "requirement",
          "type": "bool"
        }
      ],
      "stateMutability": "pure",
      "type": "function"
    },
    {
      "inputs": [
        {
          "internalType": "address",
          "name": "spender",
          "type": "address"
        },
        {
          "internalType": "uint256",
          "name": "tokens",
          "type": "uint256"
        }
      ],
      "name": "decreaseAllowance",
      "outputs": [
        {
          "internalType": "bool",
          "name": "",
          "type": "bool"
        }
      ],
      "stateMutability": "nonpayable",
      "type": "function"
    },
    {
      "inputs": [
        {
          "internalType": "uint256",
          "name": "amount",
          "type": "uint256"
        }
      ],
      "name": "deposit",
      "outputs": [],
      "stateMutability": "nonpayable",
      "type": "function"
    },
    {
      "inputs": [
        {
          "internalType": "address",
          "name": "to",
          "type": "address"
        },
        {
          "internalType": "uint256",
          "name": "amount",
          "type": "uint256"
        }
      ],
      "name": "depositFor",
      "outputs": [],
      "stateMutability": "nonpayable",
      "type": "function"
    },
    {
      "inputs": [
        {
          "internalType": "bytes32",
          "name": "role",
          "type": "bytes32"
        },
        {
          "internalType": "address",
          "name": "addr",
          "type": "address"
        }
      ],
      "name": "grantModuleRole",
      "outputs": [],
      "stateMutability": "nonpayable",
      "type": "function"
    },
    {
      "inputs": [],
      "name": "identifier",
      "outputs": [
        {
          "internalType": "bytes32",
          "name": "",
          "type": "bytes32"
        }
      ],
      "stateMutability": "view",
      "type": "function"
    },
    {
      "inputs": [
        {
          "internalType": "address",
          "name": "spender",
          "type": "address"
        },
        {
          "internalType": "uint256",
          "name": "tokens",
          "type": "uint256"
        }
      ],
      "name": "increaseAllowance",
      "outputs": [
        {
          "internalType": "bool",
          "name": "",
          "type": "bool"
        }
      ],
      "stateMutability": "nonpayable",
      "type": "function"
    },
    {
      "inputs": [
        {
          "internalType": "contract IOrchestrator",
          "name": "orchestrator_",
          "type": "address"
        },
        {
          "components": [
            {
              "internalType": "uint256",
              "name": "majorVersion",
              "type": "uint256"
            },
            {
              "internalType": "uint256",
              "name": "minorVersion",
              "type": "uint256"
            },
            {
              "internalType": "string",
              "name": "url",
              "type": "string"
            },
            {
              "internalType": "string",
              "name": "title",
              "type": "string"
            }
          ],
          "internalType": "struct IModule.Metadata",
          "name": "metadata",
          "type": "tuple"
        },
        {
          "internalType": "bytes",
          "name": "configData",
          "type": "bytes"
        }
      ],
      "name": "init",
      "outputs": [],
      "stateMutability": "nonpayable",
      "type": "function"
    },
    {
      "inputs": [
        {
          "internalType": "contract IOrchestrator",
          "name": "orchestrator_",
          "type": "address"
        },
        {
          "internalType": "bytes",
          "name": "dependencyData",
          "type": "bytes"
        }
      ],
      "name": "init2",
      "outputs": [],
      "stateMutability": "nonpayable",
      "type": "function"
    },
    {
      "inputs": [],
      "name": "name",
      "outputs": [
        {
          "internalType": "string",
          "name": "",
          "type": "string"
        }
      ],
      "stateMutability": "view",
      "type": "function"
    },
    {
      "inputs": [
        {
          "internalType": "address",
          "name": "who",
          "type": "address"
        }
      ],
      "name": "nonces",
      "outputs": [
        {
          "internalType": "uint256",
          "name": "",
          "type": "uint256"
        }
      ],
      "stateMutability": "view",
      "type": "function"
    },
    {
      "inputs": [],
      "name": "orchestrator",
      "outputs": [
        {
          "internalType": "contract IOrchestrator",
          "name": "",
          "type": "address"
        }
      ],
      "stateMutability": "view",
      "type": "function"
    },
    {
      "inputs": [
        {
          "internalType": "address",
          "name": "owner",
          "type": "address"
        },
        {
          "internalType": "address",
          "name": "spender",
          "type": "address"
        },
        {
          "internalType": "uint256",
          "name": "value",
          "type": "uint256"
        },
        {
          "internalType": "uint256",
          "name": "deadline",
          "type": "uint256"
        },
        {
          "internalType": "uint8",
          "name": "v",
          "type": "uint8"
        },
        {
          "internalType": "bytes32",
          "name": "r",
          "type": "bytes32"
        },
        {
          "internalType": "bytes32",
          "name": "s",
          "type": "bytes32"
        }
      ],
      "name": "permit",
      "outputs": [],
      "stateMutability": "nonpayable",
      "type": "function"
    },
    {
      "inputs": [],
      "name": "rebase",
      "outputs": [],
      "stateMutability": "nonpayable",
      "type": "function"
    },
    {
      "inputs": [
        {
          "internalType": "bytes32",
          "name": "role",
          "type": "bytes32"
        },
        {
          "internalType": "address",
          "name": "addr",
          "type": "address"
        }
      ],
      "name": "revokeModuleRole",
      "outputs": [],
      "stateMutability": "nonpayable",
      "type": "function"
    },
    {
      "inputs": [
        {
          "internalType": "address",
          "name": "who",
          "type": "address"
        }
      ],
      "name": "scaledBalanceOf",
      "outputs": [
        {
          "internalType": "uint256",
          "name": "",
          "type": "uint256"
        }
      ],
      "stateMutability": "view",
      "type": "function"
    },
    {
      "inputs": [],
      "name": "scaledTotalSupply",
      "outputs": [
        {
          "internalType": "uint256",
          "name": "",
          "type": "uint256"
        }
      ],
      "stateMutability": "view",
      "type": "function"
    },
    {
      "inputs": [
        {
          "internalType": "bytes4",
          "name": "interfaceId",
          "type": "bytes4"
        }
      ],
      "name": "supportsInterface",
      "outputs": [
        {
          "internalType": "bool",
          "name": "",
          "type": "bool"
        }
      ],
      "stateMutability": "view",
      "type": "function"
    },
    {
      "inputs": [],
      "name": "symbol",
      "outputs": [
        {
          "internalType": "string",
          "name": "",
          "type": "string"
        }
      ],
      "stateMutability": "view",
      "type": "function"
    },
    {
      "inputs": [],
      "name": "title",
      "outputs": [
        {
          "internalType": "string",
          "name": "",
          "type": "string"
        }
      ],
      "stateMutability": "view",
      "type": "function"
    },
    {
      "inputs": [],
      "name": "token",
      "outputs": [
        {
          "internalType": "contract IERC20",
          "name": "",
          "type": "address"
        }
      ],
      "stateMutability": "view",
      "type": "function"
    },
    {
      "inputs": [],
      "name": "totalSupply",
      "outputs": [
        {
          "internalType": "uint256",
          "name": "",
          "type": "uint256"
        }
      ],
      "stateMutability": "view",
      "type": "function"
    },
    {
      "inputs": [
        {
          "internalType": "address",
          "name": "to",
          "type": "address"
        },
        {
          "internalType": "uint256",
          "name": "tokens",
          "type": "uint256"
        }
      ],
      "name": "transfer",
      "outputs": [
        {
          "internalType": "bool",
          "name": "",
          "type": "bool"
        }
      ],
      "stateMutability": "nonpayable",
      "type": "function"
    },
    {
      "inputs": [
        {
          "internalType": "address",
          "name": "to",
          "type": "address"
        }
      ],
      "name": "transferAll",
      "outputs": [
        {
          "internalType": "bool",
          "name": "",
          "type": "bool"
        }
      ],
      "stateMutability": "nonpayable",
      "type": "function"
    },
    {
      "inputs": [
        {
          "internalType": "address",
          "name": "from",
          "type": "address"
        },
        {
          "internalType": "address",
          "name": "to",
          "type": "address"
        }
      ],
      "name": "transferAllFrom",
      "outputs": [
        {
          "internalType": "bool",
          "name": "",
          "type": "bool"
        }
      ],
      "stateMutability": "nonpayable",
      "type": "function"
    },
    {
      "inputs": [
        {
          "internalType": "address",
          "name": "from",
          "type": "address"
        },
        {
          "internalType": "address",
          "name": "to",
          "type": "address"
        },
        {
          "internalType": "uint256",
          "name": "tokens",
          "type": "uint256"
        }
      ],
      "name": "transferFrom",
      "outputs": [
        {
          "internalType": "bool",
          "name": "",
          "type": "bool"
        }
      ],
      "stateMutability": "nonpayable",
      "type": "function"
    },
    {
      "inputs": [
        {
          "internalType": "address",
          "name": "to",
          "type": "address"
        },
        {
          "internalType": "uint256",
          "name": "amount",
          "type": "uint256"
        }
      ],
      "name": "transferOrchestratorToken",
      "outputs": [],
      "stateMutability": "nonpayable",
      "type": "function"
    },
    {
      "inputs": [],
      "name": "url",
      "outputs": [
        {
          "internalType": "string",
          "name": "",
          "type": "string"
        }
      ],
      "stateMutability": "view",
      "type": "function"
    },
    {
      "inputs": [],
      "name": "version",
      "outputs": [
        {
          "internalType": "uint256",
          "name": "",
          "type": "uint256"
        },
        {
          "internalType": "uint256",
          "name": "",
          "type": "uint256"
        }
      ],
      "stateMutability": "view",
      "type": "function"
    },
    {
      "inputs": [
        {
          "internalType": "uint256",
          "name": "amount",
          "type": "uint256"
        }
      ],
      "name": "withdraw",
      "outputs": [],
      "stateMutability": "nonpayable",
      "type": "function"
    },
    {
      "inputs": [
        {
          "internalType": "address",
          "name": "to",
          "type": "address"
        },
        {
          "internalType": "uint256",
          "name": "amount",
          "type": "uint256"
        }
      ],
      "name": "withdrawTo",
      "outputs": [],
      "stateMutability": "nonpayable",
      "type": "function"
    }
  ],
  "bytecode": {
    "object": "0x60c06040527f8b73c3c69bb8fe3d512ecc4cf759cc79239f7b179b0ffacaa9a75d522b39400f6080527f6e71edae12b1b97f4d1f60370fef10105fa2faae0126114a169c64845d6126c960a0523480156200005957600080fd5b50620000646200006a565b6200011e565b7ff0c57e16840df040f15088dc2f81fe391c3923bec73e23a9662efc9c229c6a00805468010000000000000000900460ff1615620000bb5760405163f92ee8a960e01b815260040160405180910390fd5b80546001600160401b03908116146200011b5780546001600160401b0319166001600160401b0390811782556040519081527fc7f505b2f371ae2175ee4913f4499e1f2633a7b5936321eed1cdaeb6115181d29060200160405180910390a15b50565b60805160a05161360c6200015260003960008181610390015261190d0152600081816105fb01526108d9015261360c6000f3fe608060405234801561001057600080fd5b50600436106102ad5760003560e01c8063759cc4b51161017b578063a9059cbb116100d8578063bcb619201161008c578063dd62ed3e11610071578063dd62ed3e146105bd578063e1b11da4146105f6578063fc0c546a1461061d57600080fd5b8063bcb6192014610597578063d505accf146105aa57600080fd5b8063b1bf962d116100bd578063b1bf962d14610552578063b6b55f251461055a578063b74795d91461056d57600080fd5b8063a9059cbb14610537578063af14052c1461054a57600080fd5b806395d89b411161012f5780639e978575116101145780639e978575146104fe578063a3a7e7f314610511578063a457c2d71461052457600080fd5b806395d89b41146104e35780639bfdf766146104eb57600080fd5b80637998a1c4116101605780637998a1c41461049f5780637ecebe00146104a757806384d4b410146104d057600080fd5b8063759cc4b514610450578063781603761461046357600080fd5b806330adf81f116102295780634a79d50c116101dd5780635600f04f116101c25780635600f04f146104225780636c67e8071461042a57806370a082311461043d57600080fd5b80634a79d50c146103ff57806354fd4d501461040757600080fd5b80633644e5151161020e5780633644e515146103d157806339509351146103d957806342dfe958146103ec57600080fd5b806330adf81f1461038b578063313ce567146103b257600080fd5b80631da24f3e1161028057806323b872dd1161026557806323b872dd146103525780632e1a7d4d146103655780632f4f21e21461037857600080fd5b80631da24f3e14610314578063205c28781461033d57600080fd5b806301ffc9a7146102b257806306fdde03146102da578063095ea7b3146102ef57806318160ddd14610302575b600080fd5b6102c56102c0366004612beb565b61062e565b60405190151581526020015b60405180910390f35b6102e261068a565b6040516102d19190612c7d565b6102c56102fd366004612ca5565b610718565b6002545b6040519081526020016102d1565b610306610322366004612cd1565b6001600160a01b031660009081526003602052604090205490565b61035061034b366004612ca5565b6107bc565b005b6102c5610360366004612cee565b6107cb565b610350610373366004612d2f565b6108bc565b610350610386366004612ca5565b6108ca565b6103067f000000000000000000000000000000000000000000000000000000000000000081565b6007546103bf9060ff1681565b60405160ff90911681526020016102d1565b6103066108d5565b6102c56103e7366004612ca5565b6109a0565b6103506103fa366004612e4f565b610a3e565b6102e2610d26565b600a54600b54604080519283526020830191909152016102d1565b6102e2610dbb565b610350610438366004612f2b565b610dcd565b61030661044b366004612cd1565b611095565b61035061045e366004612ca5565b6110bc565b6102e26040518060400160405280600181526020017f310000000000000000000000000000000000000000000000000000000000000081525081565b610306611173565b6103066104b5366004612cd1565b6001600160a01b031660009081526008602052604090205490565b6102c56104de366004612f5b565b6112c3565b6102e26113a9565b6103506104f9366004612f89565b6113b6565b6102c561050c366004612fd9565b611440565b6102c561051f366004612cd1565b61145d565b6102c5610532366004612ca5565b6114d9565b6102c5610545366004612ca5565b6115b6565b61035061165d565b610306611667565b610350610568366004612d2f565b611671565b60095461010090046001600160a01b03165b6040516001600160a01b0390911681526020016102d1565b6103506105a5366004612f2b565b61167c565b6103506105b8366004613025565b6118ca565b6103066105cb366004612f5b565b6001600160a01b03918216600090815260046020908152604080832093909416825291909152205490565b6103067f000000000000000000000000000000000000000000000000000000000000000081565b600e546001600160a01b031661057f565b60007fffffffff0000000000000000000000000000000000000000000000000000000082167f899090df000000000000000000000000000000000000000000000000000000001480610684575061068482611aaf565b92915050565b6005805461069790613096565b80601f01602080910402602001604051908101604052809291908181526020018280546106c390613096565b80156107105780601f106106e557610100808354040283529160200191610710565b820191906000526020600020905b8154815290600101906020018083116106f357829003601f168201915b505050505081565b6000826001600160a01b038116158061073957506001600160a01b03811630145b1561075757604051634e46966960e11b815260040160405180910390fd5b3360008181526004602090815260408083206001600160a01b03891680855290835292819020879055518681529192917f8c5be1e5ebec7d5bd14f71427d1e84f3dd0314c0f7b2291e5b200ac8c7c3b925910160405180910390a35060019392505050565b6107c7338383611b05565b5050565b6000836001600160a01b03811615806107ec57506001600160a01b03811630145b1561080a57604051634e46966960e11b815260040160405180910390fd5b836001600160a01b038116158061082957506001600160a01b03811630145b1561084757604051634e46966960e11b815260040160405180910390fd5b8380600003610882576040517f2c5211c600000000000000000000000000000000000000000000000000000000815260040160405180910390fd5b61088a611b7e565b600061089586611c12565b90506108a2883388611c69565b6108ae88888884611cd8565b506001979650505050505050565b6108c7333383611b05565b50565b6107c7338383611dbe565b60007f0000000000000000000000000000000000000000000000000000000000000000600560405161090791906130e3565b604080519182900382208282018252600183527f31000000000000000000000000000000000000000000000000000000000000006020938401528151928301939093528101919091527fc89efdaa54c0f20c7adf612882df0950f5a951637e0307cdcb4c672f298b8bc660608201524660808201523060a082015260c00160405160208183030381529060405280519060200120905090565b3360009081526004602090815260408083206001600160a01b03861684529091528120805483919083906109d5908490613188565b90915550503360008181526004602090815260408083206001600160a01b038816808552908352928190205490519081529192917f8c5be1e5ebec7d5bd14f71427d1e84f3dd0314c0f7b2291e5b200ac8c7c3b92591015b60405180910390a350600192915050565b7ff0c57e16840df040f15088dc2f81fe391c3923bec73e23a9662efc9c229c6a00805468010000000000000000810460ff16159067ffffffffffffffff16600081158015610a895750825b905060008267ffffffffffffffff166001148015610aa65750303b155b905081158015610ab4575080155b15610aeb576040517ff92ee8a900000000000000000000000000000000000000000000000000000000815260040160405180910390fd5b84547fffffffffffffffffffffffffffffffffffffffffffffffff00000000000000001660011785558315610b4c5784547fffffffffffffffffffffffffffffffffffffffffffffff00ffffffffffffffff16680100000000000000001785555b610b568888611f5c565b600086806020019051810190610b6c919061319b565b905080600e60006101000a8154816001600160a01b0302191690836001600160a01b031602179055506000610c018a6001600160a01b031663736963a76040518163ffffffff1660e01b8152600401602060405180830381865afa158015610bd8573d6000803e3d6000fd5b505050506040513d601f19601f82011682018060405250810190610bfc91906131b8565b6120bb565b9050600081604051602001610c1691906131d1565b6040516020818303038152906040529050600082604051602001610c3a919061323c565b6040516020818303038152906040529050610cb78282866001600160a01b031663313ce5676040518163ffffffff1660e01b8152600401602060405180830381865afa158015610c8e573d6000803e3d6000fd5b505050506040513d601f19601f82011682018060405250810190610cb29190613281565b61215b565b505050508315610d1c5784547fffffffffffffffffffffffffffffffffffffffffffffff00ffffffffffffffff168555604051600181527fc7f505b2f371ae2175ee4913f4499e1f2633a7b5936321eed1cdaeb6115181d29060200160405180910390a15b5050505050505050565b6060600a6003018054610d3890613096565b80601f0160208091040260200160405190810160405280929190818152602001828054610d6490613096565b8015610db15780601f10610d8657610100808354040283529160200191610db1565b820191906000526020600020905b815481529060010190602001808311610d9457829003601f168201915b5050505050905090565b6060600a6002018054610d3890613096565b6000600960019054906101000a90046001600160a01b03166001600160a01b031663d09edf316040518163ffffffff1660e01b8152600401602060405180830381865afa158015610e22573d6000803e3d6000fd5b505050506040513d601f19601f82011682018060405250810190610e46919061319b565b90506000816001600160a01b03166355ff58d46040518163ffffffff1660e01b8152600401602060405180830381865afa158015610e88573d6000803e3d6000fd5b505050506040513d601f19601f82011682018060405250810190610eac91906131b8565b90506001600160a01b0382166391d1485482336040517fffffffff0000000000000000000000000000000000000000000000000000000060e085901b16815260048101929092526001600160a01b03166024820152604401602060405180830381865afa158015610f21573d6000803e3d6000fd5b505050506040513d601f19601f82011682018060405250810190610f4591906132ae565b610f955780335b6040517f42abbb7700000000000000000000000000000000000000000000000000000000815260048101929092526001600160a01b031660248201526044015b60405180910390fd5b6000600960019054906101000a90046001600160a01b03166001600160a01b031663d09edf316040518163ffffffff1660e01b8152600401602060405180830381865afa158015610fea573d6000803e3d6000fd5b505050506040513d601f19601f8201168201806040525081019061100e919061319b565b6040517fe1788154000000000000000000000000000000000000000000000000000000008152600481018790526001600160a01b0386811660248301529192509082169063e1788154906044015b600060405180830381600087803b15801561107657600080fd5b505af115801561108a573d6000803e3d6000fd5b505050505050505050565b6001546001600160a01b0382166000908152600360205260408120549091610684916132f8565b60095461010090046001600160a01b0316336001600160a01b03161461110e576040517fe614e81b00000000000000000000000000000000000000000000000000000000815260040160405180910390fd5b816001600160a01b038116158061112d57506001600160a01b03811630145b15611164576040517f1f01ebd800000000000000000000000000000000000000000000000000000000815260040160405180910390fd5b61116e83836121e5565b505050565b60408051608081018252600a80548252600b546020830152600c80546000946112be949392908401916111a590613096565b80601f01602080910402602001604051908101604052809291908181526020018280546111d190613096565b801561121e5780601f106111f35761010080835404028352916020019161121e565b820191906000526020600020905b81548152906001019060200180831161120157829003601f168201915b5050505050815260200160038201805461123790613096565b80601f016020809104026020016040519081016040528092919081815260200182805461126390613096565b80156112b05780601f10611285576101008083540402835291602001916112b0565b820191906000526020600020905b81548152906001019060200180831161129357829003601f168201915b505050505081525050612236565b905090565b6000826001600160a01b03811615806112e457506001600160a01b03811630145b1561130257604051634e46966960e11b815260040160405180910390fd5b826001600160a01b038116158061132157506001600160a01b03811630145b1561133f57604051634e46966960e11b815260040160405180910390fd5b611347611b7e565b6001600160a01b0385166000908152600360205260408120549061136a82612276565b9050806000036113855761138087336001611c69565b611390565b611390873383611c69565b61139c87878385611cd8565b5060019695505050505050565b6006805461069790613096565b60095460ff16156113f3576040517f904875a100000000000000000000000000000000000000000000000000000000815260040160405180910390fd5b6009805460ff191660011790558061140a81612286565b61116e576040517feef043ae00000000000000000000000000000000000000000000000000000000815260040160405180910390fd5b600081806020019051810190611456919061330c565b5092915050565b6000816001600160a01b038116158061147e57506001600160a01b03811630145b1561149c57604051634e46966960e11b815260040160405180910390fd5b6114a4611b7e565b33600090815260036020526040812054906114be82612276565b90506114cc33868385611cd8565b6001935050505b50919050565b3360009081526004602090815260408083206001600160a01b0386168452909152812054821061152c573360009081526004602090815260408083206001600160a01b038716845290915281205561155f565b3360009081526004602090815260408083206001600160a01b0387168452909152812080548492906109d590849061341d565b3360008181526004602090815260408083206001600160a01b038816808552908352928190205490519081529192917f8c5be1e5ebec7d5bd14f71427d1e84f3dd0314c0f7b2291e5b200ac8c7c3b9259101610a2d565b6000826001600160a01b03811615806115d757506001600160a01b03811630145b156115f557604051634e46966960e11b815260040160405180910390fd5b8280600003611630576040517f2c5211c600000000000000000000000000000000000000000000000000000000815260040160405180910390fd5b611638611b7e565b600061164385611c12565b905061165133878784611cd8565b50600195945050505050565b611665611b7e565b565b60006112be612393565b6108c7333383611dbe565b6000600960019054906101000a90046001600160a01b03166001600160a01b031663d09edf316040518163ffffffff1660e01b8152600401602060405180830381865afa1580156116d1573d6000803e3d6000fd5b505050506040513d601f19601f820116820180604052508101906116f5919061319b565b90506000816001600160a01b03166355ff58d46040518163ffffffff1660e01b8152600401602060405180830381865afa158015611737573d6000803e3d6000fd5b505050506040513d601f19601f8201168201806040525081019061175b91906131b8565b90506001600160a01b0382166391d1485482336040517fffffffff0000000000000000000000000000000000000000000000000000000060e085901b16815260048101929092526001600160a01b03166024820152604401602060405180830381865afa1580156117d0573d6000803e3d6000fd5b505050506040513d601f19601f820116820180604052508101906117f491906132ae565b6117ff578033610f4c565b6000600960019054906101000a90046001600160a01b03166001600160a01b031663d09edf316040518163ffffffff1660e01b8152600401602060405180830381865afa158015611854573d6000803e3d6000fd5b505050506040513d601f19601f82011682018060405250810190611878919061319b565b6040517fba66f9fc000000000000000000000000000000000000000000000000000000008152600481018790526001600160a01b0386811660248301529192509082169063ba66f9fc9060440161105c565b834211156118d757600080fd5b600060016118e36108d5565b6001600160a01b038a811660008181526008602090815260409182902080546001810190915582517f00000000000000000000000000000000000000000000000000000000000000008184015280840194909452938d166060840152608083018c905260a083019390935260c08083018b90528151808403909101815260e0830190915280519201919091207f19010000000000000000000000000000000000000000000000000000000000006101008301526101028201929092526101228101919091526101420160408051601f198184030181528282528051602091820120600084529083018083525260ff871690820152606081018590526080810184905260a0016020604051602081039080840390855afa158015611a0a573d6000803e3d6000fd5b5050604051601f1901519150506001600160a01b03811615801590611a405750876001600160a01b0316816001600160a01b0316145b611a4957600080fd5b506001600160a01b038781166000818152600460209081526040808320948b168084529482529182902089905590518881527f8c5be1e5ebec7d5bd14f71427d1e84f3dd0314c0f7b2291e5b200ac8c7c3b925910160405180910390a350505050505050565b60007fffffffff0000000000000000000000000000000000000000000000000000000082167f8fa8b3170000000000000000000000000000000000000000000000000000000014806106845750610684826123ed565b611b0f83826123f8565b9050611b388282611b28600e546001600160a01b031690565b6001600160a01b0316919061252a565b80826001600160a01b0316846001600160a01b03167f2717ead6b9200dd235aad468c9809ea400fe33ac69b5bfaa6d3e90fc922b639860405160405180910390a4505050565b6000611b8861259e565b9050801580611ba257506b033b2e3c9fd0803ce800000081115b15611baa5750565b80611bb3612393565b611bbd91906132f8565b6001556002819055600080549080611bd483613430565b90915550506000546040518281527f11c6bf55864ff83827df712625d7a80e5583eef0264921025e7cd22003a215119060200160405180910390a250565b6000600154600014611c3057600154611c2b908361344a565b610684565b6b033b2e3c9fd0803ce8000000611c4981600019613461565b611c559060001961341d565b611c5f91906132f8565b610684908361344a565b6001600160a01b038084166000908152600460209081526040808320938616835292905220546000191461116e576001600160a01b03808416600090815260046020908152604080832093861683529290529081208054839290611cce90849061341d565b9091555050505050565b6001600160a01b03841660009081526003602052604081208054839290611d0090849061341d565b90915550506001600160a01b03831660009081526003602052604081208054839290611d2d908490613188565b90915550506001600160a01b0384166000908152600360205260408120549003611d6b576001600160a01b0384166000908152600360205260408120555b826001600160a01b0316846001600160a01b03167fddf252ad1be2c89b69c2b068fc378daa952ba7f163c4a11628f55a4df523b3ef84604051611db091815260200190565b60405180910390a350505050565b306001600160a01b03841603611e00576040517ff7cd8f7100000000000000000000000000000000000000000000000000000000815260040160405180910390fd5b6a52b7d2dcc80cd2e4000000611e1e600e546001600160a01b031690565b6040517f70a082310000000000000000000000000000000000000000000000000000000081523060048201526001600160a01b0391909116906370a0823190602401602060405180830381865afa158015611e7d573d6000803e3d6000fd5b505050506040513d601f19601f82011682018060405250810190611ea191906131b8565b611eab9083613188565b1115611ee3576040517fd335887400000000000000000000000000000000000000000000000000000000815260040160405180910390fd5b611eed8282612635565b611f16833083611f05600e546001600160a01b031690565b6001600160a01b03169291906127c5565b80826001600160a01b0316846001600160a01b03167f5548c837ab068cf56a2c2479df0882a4922fd203edb7517321831d95078c5f6260405160405180910390a4505050565b611f64612804565b6001600160a01b038216611fa4576040517f7280679300000000000000000000000000000000000000000000000000000000815260040160405180910390fd5b600980547fffffffffffffffffffffff0000000000000000000000000000000000000000ff166101006001600160a01b03851602179055611fe48161286b565b61201a576040517f7511254100000000000000000000000000000000000000000000000000000000815260040160405180910390fd5b8051600a9081556020820151600b556040820151829190600c9061203e90826134bd565b506060820151600382019061205390826134bd565b5050506060810151604051612068919061357d565b604080519182900382208351602080860151918552840152916001600160a01b038516917feb175f148a71d29a5f7bf5439182fcd81e6ea9cfc8a11b54ab0f705fa98fa8ca910160405180910390a35050565b606060006120c8836128bd565b600101905060008167ffffffffffffffff8111156120e8576120e8612d48565b6040519080825280601f01601f191660200182016040528015612112576020820181803683370190505b5090508181016020015b600019017f3031323334353637383961626364656600000000000000000000000000000000600a86061a8153600a850494508461211c57509392505050565b6002541561216857600080fd5b600561217484826134bd565b50600661218183826134bd565b506007805460ff191660ff83161790556121a96b033b2e3c9fd0803ce8000000600019613461565b6121b59060001961341d565b6000805260036020527f3617319a054d772f909f7c479a2cebe5066e836a939412e32403c99029b92eff55505050565b6121fc8282611b28600e546001600160a01b031690565b60405181906001600160a01b038416907fe88292c5f714100904272672c0420345093bd0e3c5555d31f3e4e2cf5f6ca8a190600090a35050565b600081600001518260400151836060015160405160200161225993929190613599565b604051602081830303815290604052805190602001209050919050565b60006001548261068491906132f8565b6040517f9e9785750000000000000000000000000000000000000000000000000000000081526000903090639e978575906122c5908590600401612c7d565b602060405180830381865afa9250505080156122fe575060408051601f3d908101601f191682019092526122fb918101906132ae565b60015b61230a57506000919050565b6040517f9e9785750000000000000000000000000000000000000000000000000000000081523090639e97857590612346908690600401612c7d565b602060405180830381865afa158015612363573d6000803e3d6000fd5b505050506040513d601f19601f8201168201806040525081019061238791906132ae565b9392505050565b919050565b600080805260036020527f3617319a054d772f909f7c479a2cebe5066e836a939412e32403c99029b92eff546123d76b033b2e3c9fd0803ce8000000600019613461565b6123e39060001961341d565b6112be919061341d565b60006106848261299f565b6000826001600160a01b038116158061241957506001600160a01b03811630145b1561243757604051634e46966960e11b815260040160405180910390fd5b8280600003612472576040517f2c5211c600000000000000000000000000000000000000000000000000000000815260040160405180910390fd5b600061247d85611c12565b9050612487611b7e565b61249081612276565b945061249f8660008784611cd8565b84600260008282546124b1919061341d565b90915550506002546124c1612393565b6124cb91906132f8565b6001556000805490806124dd83613430565b91905055506000547f11c6bf55864ff83827df712625d7a80e5583eef0264921025e7cd22003a2151160025460405161251891815260200190565b60405180910390a25092949350505050565b6040516001600160a01b0383811660248301526044820183905261116e91859182169063a9059cbb906064015b604051602081830303815290604052915060e01b6020820180517bffffffffffffffffffffffffffffffffffffffffffffffffffffffff8381831617835250505050612a36565b60006125b2600e546001600160a01b031690565b6040517f70a082310000000000000000000000000000000000000000000000000000000081523060048201526001600160a01b0391909116906370a0823190602401602060405180830381865afa158015612611573d6000803e3d6000fd5b505050506040513d601f19601f820116820180604052508101906112be91906131b8565b816001600160a01b038116158061265457506001600160a01b03811630145b1561267257604051634e46966960e11b815260040160405180910390fd5b81806000036126ad576040517f2c5211c600000000000000000000000000000000000000000000000000000000815260040160405180910390fd5b6126b5611b7e565b6b033b2e3c9fd0803ce8000000836002546126d09190613188565b1115612708576040517fd05cb60900000000000000000000000000000000000000000000000000000000815260040160405180910390fd5b600061271384611c12565b9050600081612720612393565b61272a9190613188565b9050846002600082825461273e9190613188565b909155505060015460000361275e5760025461275a90826132f8565b6001555b60008054908061276d83613430565b91905055506000547f11c6bf55864ff83827df712625d7a80e5583eef0264921025e7cd22003a215116002546040516127a891815260200190565b60405180910390a26127bd6000878785611cd8565b505050505050565b6040516001600160a01b0384811660248301528381166044830152606482018390526127fe9186918216906323b872dd90608401612557565b50505050565b7ff0c57e16840df040f15088dc2f81fe391c3923bec73e23a9662efc9c229c6a005468010000000000000000900460ff16611665576040517fd7e6bcf800000000000000000000000000000000000000000000000000000000815260040160405180910390fd5b600081604001515160000361288257506000919050565b81606001515160000361289757506000919050565b81511580156128a857506020820151155b156128b557506000919050565b506001919050565b6000807a184f03e93ff9f4daa797ed6e38ed64bf6a1f0100000000000000008310612906577a184f03e93ff9f4daa797ed6e38ed64bf6a1f010000000000000000830492506040015b6d04ee2d6d415b85acef81000000008310612932576d04ee2d6d415b85acef8100000000830492506020015b662386f26fc10000831061295057662386f26fc10000830492506010015b6305f5e1008310612968576305f5e100830492506008015b612710831061297c57612710830492506004015b6064831061298e576064830492506002015b600a83106106845760010192915050565b60007fffffffff0000000000000000000000000000000000000000000000000000000082167f247a8fdc00000000000000000000000000000000000000000000000000000000148061068457507f01ffc9a7000000000000000000000000000000000000000000000000000000007fffffffff00000000000000000000000000000000000000000000000000000000831614610684565b6000612a4b6001600160a01b03841683612ab2565b90508051600014158015612a70575080806020019051810190612a6e91906132ae565b155b1561116e576040517f5274afe70000000000000000000000000000000000000000000000000000000081526001600160a01b0384166004820152602401610f8c565b60606123878383600084600080856001600160a01b03168486604051612ad8919061357d565b60006040518083038185875af1925050503d8060008114612b15576040519150601f19603f3d011682016040523d82523d6000602084013e612b1a565b606091505b5091509150612b2a868383612b34565b9695505050505050565b606082612b4957612b4482612ba9565b612387565b8151158015612b6057506001600160a01b0384163b155b15612ba2576040517f9996b3150000000000000000000000000000000000000000000000000000000081526001600160a01b0385166004820152602401610f8c565b5080612387565b805115612bb95780518082602001fd5b6040517f1425ea4200000000000000000000000000000000000000000000000000000000815260040160405180910390fd5b600060208284031215612bfd57600080fd5b81357fffffffff000000000000000000000000000000000000000000000000000000008116811461238757600080fd5b60005b83811015612c48578181015183820152602001612c30565b50506000910152565b60008151808452612c69816020860160208601612c2d565b601f01601f19169290920160200192915050565b6020815260006123876020830184612c51565b6001600160a01b03811681146108c757600080fd5b60008060408385031215612cb857600080fd5b8235612cc381612c90565b946020939093013593505050565b600060208284031215612ce357600080fd5b813561238781612c90565b600080600060608486031215612d0357600080fd5b8335612d0e81612c90565b92506020840135612d1e81612c90565b929592945050506040919091013590565b600060208284031215612d4157600080fd5b5035919050565b7f4e487b7100000000000000000000000000000000000000000000000000000000600052604160045260246000fd5b6040516080810167ffffffffffffffff81118282101715612d9a57612d9a612d48565b60405290565b604051601f8201601f1916810167ffffffffffffffff81118282101715612dc957612dc9612d48565b604052919050565b600067ffffffffffffffff821115612deb57612deb612d48565b50601f01601f191660200190565b600082601f830112612e0a57600080fd5b8135612e1d612e1882612dd1565b612da0565b818152846020838601011115612e3257600080fd5b816020850160208301376000918101602001919091529392505050565b600080600060608486031215612e6457600080fd5b8335612e6f81612c90565b9250602084013567ffffffffffffffff80821115612e8c57600080fd5b9085019060808288031215612ea057600080fd5b612ea8612d77565b8235815260208301356020820152604083013582811115612ec857600080fd5b612ed489828601612df9565b604083015250606083013582811115612eec57600080fd5b612ef889828601612df9565b60608301525093506040860135915080821115612f1457600080fd5b50612f2186828701612df9565b9150509250925092565b60008060408385031215612f3e57600080fd5b823591506020830135612f5081612c90565b809150509250929050565b60008060408385031215612f6e57600080fd5b8235612f7981612c90565b91506020830135612f5081612c90565b60008060408385031215612f9c57600080fd5b8235612fa781612c90565b9150602083013567ffffffffffffffff811115612fc357600080fd5b612fcf85828601612df9565b9150509250929050565b600060208284031215612feb57600080fd5b813567ffffffffffffffff81111561300257600080fd5b61300e84828501612df9565b949350505050565b60ff811681146108c757600080fd5b600080600080600080600060e0888a03121561304057600080fd5b873561304b81612c90565b9650602088013561305b81612c90565b95506040880135945060608801359350608088013561307981613016565b9699959850939692959460a0840135945060c09093013592915050565b600181811c908216806130aa57607f821691505b6020821081036114d3577f4e487b7100000000000000000000000000000000000000000000000000000000600052602260045260246000fd5b60008083546130f181613096565b60018281168015613109576001811461311e5761314d565b60ff198416875282151583028701945061314d565b8760005260208060002060005b858110156131445781548a82015290840190820161312b565b50505082870194505b50929695505050505050565b7f4e487b7100000000000000000000000000000000000000000000000000000000600052601160045260246000fd5b8082018082111561068457610684613159565b6000602082840312156131ad57600080fd5b815161238781612c90565b6000602082840312156131ca57600080fd5b5051919050565b7f496e7665727465722046756e64696e6720546f6b656e202d204f72636865737481527f7261746f7220230000000000000000000000000000000000000000000000000060208201526000825161322f816027850160208701612c2d565b9190910160270192915050565b7f4946542d00000000000000000000000000000000000000000000000000000000815260008251613274816004850160208701612c2d565b9190910160040192915050565b60006020828403121561329357600080fd5b815161238781613016565b8051801515811461238e57600080fd5b6000602082840312156132c057600080fd5b6123878261329e565b7f4e487b7100000000000000000000000000000000000000000000000000000000600052601260045260246000fd5b600082613307576133076132c9565b500490565b600080604080848603121561332057600080fd5b6133298461329e565b925060208085015167ffffffffffffffff8082111561334757600080fd5b818701915087601f83011261335b57600080fd5b81518181111561336d5761336d612d48565b8060051b61337c858201612da0565b918252838101850191858101908b84111561339657600080fd5b86860192505b8383101561340b578251858111156133b45760008081fd5b8601603f81018d136133c65760008081fd5b878101516133d6612e1882612dd1565b8181528e8b8385010111156133eb5760008081fd5b6133fa828b83018d8601612c2d565b84525050918601919086019061339c565b80985050505050505050509250929050565b8181038181111561068457610684613159565b6000600019820361344357613443613159565b5060010190565b808202811582820484141761068457610684613159565b600082613470576134706132c9565b500690565b601f82111561116e576000816000526020600020601f850160051c8101602086101561349e5750805b601f850160051c820191505b818110156127bd578281556001016134aa565b815167ffffffffffffffff8111156134d7576134d7612d48565b6134eb816134e58454613096565b84613475565b602080601f83116001811461352057600084156135085750858301515b600019600386901b1c1916600185901b1785556127bd565b600085815260208120601f198616915b8281101561354f57888601518255948401946001909101908401613530565b508582101561356d5787850151600019600388901b60f8161c191681555b5050505050600190811b01905550565b6000825161358f818460208701612c2d565b9190910192915050565b838152600083516135b1816020850160208801612c2d565b808301905083516135c9816020840160208801612c2d565b016020019594505050505056fea26469706673582212202507f49887904a456f783f74fde4c52c23297bf6d50765a8285fdb1159151ec264736f6c63430008170033",
    "linkReferences": {}
  },
  "methodIdentifiers": {
    "DOMAIN_SEPARATOR()": "3644e515",
    "EIP712_DOMAIN()": "e1b11da4",
    "EIP712_REVISION()": "78160376",
    "PERMIT_TYPEHASH()": "30adf81f",
    "allowance(address,address)": "dd62ed3e",
    "approve(address,uint256)": "095ea7b3",
    "balanceOf(address)": "70a08231",
    "decimals()": "313ce567",
    "decoder(bytes)": "9e978575",
    "decreaseAllowance(address,uint256)": "a457c2d7",
    "deposit(uint256)": "b6b55f25",
    "depositFor(address,uint256)": "2f4f21e2",
    "grantModuleRole(bytes32,address)": "6c67e807",
    "identifier()": "7998a1c4",
    "increaseAllowance(address,uint256)": "39509351",
    "init(address,(uint256,uint256,string,string),bytes)": "42dfe958",
    "init2(address,bytes)": "9bfdf766",
    "name()": "06fdde03",
    "nonces(address)": "7ecebe00",
    "orchestrator()": "b74795d9",
    "permit(address,address,uint256,uint256,uint8,bytes32,bytes32)": "d505accf",
    "rebase()": "af14052c",
    "revokeModuleRole(bytes32,address)": "bcb61920",
    "scaledBalanceOf(address)": "1da24f3e",
    "scaledTotalSupply()": "b1bf962d",
    "supportsInterface(bytes4)": "01ffc9a7",
    "symbol()": "95d89b41",
    "title()": "4a79d50c",
    "token()": "fc0c546a",
    "totalSupply()": "18160ddd",
    "transfer(address,uint256)": "a9059cbb",
    "transferAll(address)": "a3a7e7f3",
    "transferAllFrom(address,address)": "84d4b410",
    "transferFrom(address,address,uint256)": "23b872dd",
    "transferOrchestratorToken(address,uint256)": "759cc4b5",
    "url()": "5600f04f",
    "version()": "54fd4d50",
    "withdraw(uint256)": "2e1a7d4d",
    "withdrawTo(address,uint256)": "205c2878"
  },
  "id": 87
}