{
  "abi": [
    {
      "type": "constructor",
      "inputs": [
        {
          "name": "_trustedForwarder",
          "type": "address",
          "internalType": "address"
        }
      ],
      "stateMutability": "nonpayable"
    },
    {
      "type": "function",
      "name": "addModule",
      "inputs": [
        {
          "name": "module",
          "type": "address",
          "internalType": "address"
        }
      ],
      "outputs": [],
      "stateMutability": "nonpayable"
    },
    {
      "type": "function",
      "name": "authorizer",
      "inputs": [],
      "outputs": [
        {
          "name": "",
          "type": "address",
          "internalType": "contract IAuthorizer"
        }
      ],
      "stateMutability": "view"
    },
    {
      "type": "function",
      "name": "executeTx",
      "inputs": [
        {
          "name": "target",
          "type": "address",
          "internalType": "address"
        },
        {
          "name": "data",
          "type": "bytes",
          "internalType": "bytes"
        }
      ],
      "outputs": [
        {
          "name": "",
          "type": "bytes",
          "internalType": "bytes"
        }
      ],
      "stateMutability": "nonpayable"
    },
    {
      "type": "function",
      "name": "executeTxFromModule",
      "inputs": [
        {
          "name": "to",
          "type": "address",
          "internalType": "address"
        },
        {
          "name": "data",
          "type": "bytes",
          "internalType": "bytes"
        }
      ],
      "outputs": [
        {
          "name": "",
          "type": "bool",
          "internalType": "bool"
        },
        {
          "name": "",
          "type": "bytes",
          "internalType": "bytes"
        }
      ],
      "stateMutability": "nonpayable"
    },
    {
      "type": "function",
      "name": "findModuleAddressInOrchestrator",
      "inputs": [
        {
          "name": "moduleName",
          "type": "string",
          "internalType": "string"
        }
      ],
      "outputs": [
        {
          "name": "",
          "type": "address",
          "internalType": "address"
        }
      ],
      "stateMutability": "view"
    },
    {
      "type": "function",
      "name": "fundingManager",
      "inputs": [],
      "outputs": [
        {
          "name": "",
          "type": "address",
          "internalType": "contract IFundingManager"
        }
      ],
      "stateMutability": "view"
    },
    {
      "type": "function",
      "name": "init",
      "inputs": [
        {
          "name": "orchestratorId_",
          "type": "uint256",
          "internalType": "uint256"
        },
        {
          "name": "modules",
          "type": "address[]",
          "internalType": "address[]"
        },
        {
          "name": "fundingManager_",
          "type": "address",
          "internalType": "contract IFundingManager"
        },
        {
          "name": "authorizer_",
          "type": "address",
          "internalType": "contract IAuthorizer"
        },
        {
          "name": "paymentProcessor_",
          "type": "address",
          "internalType": "contract IPaymentProcessor"
        }
      ],
      "outputs": [],
      "stateMutability": "nonpayable"
    },
    {
      "type": "function",
      "name": "isModule",
      "inputs": [
        {
          "name": "module",
          "type": "address",
          "internalType": "address"
        }
      ],
      "outputs": [
        {
          "name": "",
          "type": "bool",
          "internalType": "bool"
        }
      ],
      "stateMutability": "view"
    },
    {
      "type": "function",
      "name": "isTrustedForwarder",
      "inputs": [
        {
          "name": "forwarder",
          "type": "address",
          "internalType": "address"
        }
      ],
      "outputs": [
        {
          "name": "",
          "type": "bool",
          "internalType": "bool"
        }
      ],
      "stateMutability": "view"
    },
    {
      "type": "function",
      "name": "listModules",
      "inputs": [],
      "outputs": [
        {
          "name": "",
          "type": "address[]",
          "internalType": "address[]"
        }
      ],
      "stateMutability": "view"
    },
    {
      "type": "function",
      "name": "modulesSize",
      "inputs": [],
      "outputs": [
        {
          "name": "",
          "type": "uint8",
          "internalType": "uint8"
        }
      ],
      "stateMutability": "view"
    },
    {
      "type": "function",
      "name": "orchestratorId",
      "inputs": [],
      "outputs": [
        {
          "name": "",
          "type": "uint256",
          "internalType": "uint256"
        }
      ],
      "stateMutability": "view"
    },
    {
      "type": "function",
      "name": "paymentProcessor",
      "inputs": [],
      "outputs": [
        {
          "name": "",
          "type": "address",
          "internalType": "contract IPaymentProcessor"
        }
      ],
      "stateMutability": "view"
    },
    {
      "type": "function",
      "name": "removeModule",
      "inputs": [
        {
          "name": "module",
          "type": "address",
          "internalType": "address"
        }
      ],
      "outputs": [],
      "stateMutability": "nonpayable"
    },
    {
      "type": "function",
      "name": "setAuthorizer",
      "inputs": [
        {
          "name": "authorizer_",
          "type": "address",
          "internalType": "contract IAuthorizer"
        }
      ],
      "outputs": [],
      "stateMutability": "nonpayable"
    },
    {
      "type": "function",
      "name": "setFundingManager",
      "inputs": [
        {
          "name": "fundingManager_",
          "type": "address",
          "internalType": "contract IFundingManager"
        }
      ],
      "outputs": [],
      "stateMutability": "nonpayable"
    },
    {
      "type": "function",
      "name": "setPaymentProcessor",
      "inputs": [
        {
          "name": "paymentProcessor_",
          "type": "address",
          "internalType": "contract IPaymentProcessor"
        }
      ],
      "outputs": [],
      "stateMutability": "nonpayable"
    },
    {
      "type": "function",
      "name": "supportsInterface",
      "inputs": [
        {
          "name": "interfaceId",
          "type": "bytes4",
          "internalType": "bytes4"
        }
      ],
      "outputs": [
        {
          "name": "",
          "type": "bool",
          "internalType": "bool"
        }
      ],
      "stateMutability": "view"
    },
    {
      "type": "function",
      "name": "trustedForwarder",
      "inputs": [],
      "outputs": [
        {
          "name": "",
          "type": "address",
          "internalType": "address"
        }
      ],
      "stateMutability": "view"
    },
    {
      "type": "function",
      "name": "version",
      "inputs": [],
      "outputs": [
        {
          "name": "",
          "type": "string",
          "internalType": "string"
        }
      ],
      "stateMutability": "pure"
    },
    {
      "type": "event",
      "name": "AuthorizerUpdated",
      "inputs": [
        {
          "name": "_address",
          "type": "address",
          "indexed": true,
          "internalType": "address"
        }
      ],
      "anonymous": false
    },
    {
      "type": "event",
      "name": "FundingManagerUpdated",
      "inputs": [
        {
          "name": "_address",
          "type": "address",
          "indexed": true,
          "internalType": "address"
        }
      ],
      "anonymous": false
    },
    {
      "type": "event",
      "name": "Initialized",
      "inputs": [
        {
          "name": "version",
          "type": "uint64",
          "indexed": false,
          "internalType": "uint64"
        }
      ],
      "anonymous": false
    },
    {
      "type": "event",
      "name": "ModuleAdded",
      "inputs": [
        {
          "name": "module",
          "type": "address",
          "indexed": true,
          "internalType": "address"
        }
      ],
      "anonymous": false
    },
    {
      "type": "event",
      "name": "ModuleRemoved",
      "inputs": [
        {
          "name": "module",
          "type": "address",
          "indexed": true,
          "internalType": "address"
        }
      ],
      "anonymous": false
    },
    {
      "type": "event",
      "name": "OrchestratorInitialized",
      "inputs": [
        {
          "name": "orchestratorId_",
          "type": "uint256",
          "indexed": true,
          "internalType": "uint256"
        },
        {
          "name": "fundingManager",
          "type": "address",
          "indexed": false,
          "internalType": "address"
        },
        {
          "name": "authorizer",
          "type": "address",
          "indexed": false,
          "internalType": "address"
        },
        {
          "name": "paymentProcessor",
          "type": "address",
          "indexed": false,
          "internalType": "address"
        },
        {
          "name": "modules",
          "type": "address[]",
          "indexed": false,
          "internalType": "address[]"
        }
      ],
      "anonymous": false
    },
    {
      "type": "event",
      "name": "PaymentProcessorUpdated",
      "inputs": [
        {
          "name": "_address",
          "type": "address",
          "indexed": true,
          "internalType": "address"
        }
      ],
      "anonymous": false
    },
    {
      "type": "error",
      "name": "DependencyInjection__ModuleNotUsedInOrchestrator",
      "inputs": []
    },
    {
      "type": "error",
      "name": "InvalidInitialization",
      "inputs": []
    },
    {
      "type": "error",
      "name": "NotInitializing",
      "inputs": []
    },
    {
      "type": "error",
      "name": "Orchestrator__CallerNotAuthorized",
      "inputs": [
        {
          "name": "role",
          "type": "bytes32",
          "internalType": "bytes32"
        },
        {
          "name": "caller",
          "type": "address",
          "internalType": "address"
        }
      ]
    },
    {
      "type": "error",
      "name": "Orchestrator__ExecuteTxFailed",
      "inputs": []
    },
    {
      "type": "error",
      "name": "Orchestrator__InvalidModuleType",
      "inputs": [
        {
          "name": "module",
          "type": "address",
          "internalType": "address"
        }
      ]
    },
    {
      "type": "error",
      "name": "Orchestrator__ModuleManager__CallerNotAuthorized",
      "inputs": []
    },
    {
      "type": "error",
      "name": "Orchestrator__ModuleManager__InvalidModuleAddress",
      "inputs": []
    },
    {
      "type": "error",
      "name": "Orchestrator__ModuleManager__IsModule",
      "inputs": []
    },
    {
      "type": "error",
      "name": "Orchestrator__ModuleManager__IsNotModule",
      "inputs": []
    },
    {
      "type": "error",
      "name": "Orchestrator__ModuleManager__ModuleAmountOverLimits",
      "inputs": []
    },
    {
      "type": "error",
      "name": "Orchestrator__ModuleManager__ModulesNotConsecutive",
      "inputs": []
    },
    {
      "type": "error",
      "name": "Orchestrator__ModuleManager__OnlyCallableByModule",
      "inputs": []
    }
  ],
  "bytecode": {
    "object": "0x60a06040523480156200001157600080fd5b50604051620021f1380380620021f1833981016040819052620000349162000106565b6001600160a01b0381166080526200004b62000052565b5062000138565b7ff0c57e16840df040f15088dc2f81fe391c3923bec73e23a9662efc9c229c6a00805468010000000000000000900460ff1615620000a35760405163f92ee8a960e01b815260040160405180910390fd5b80546001600160401b0390811614620001035780546001600160401b0319166001600160401b0390811782556040519081527fc7f505b2f371ae2175ee4913f4499e1f2633a7b5936321eed1cdaeb6115181d29060200160405180910390a15b50565b6000602082840312156200011957600080fd5b81516001600160a01b03811681146200013157600080fd5b9392505050565b6080516120966200015b6000396000818161030a015261163c01526120966000f3fe608060405234801561001057600080fd5b506004361061016c5760003560e01c806354fd4d50116100cd578063a063246111610081578063d09edf3111610066578063d09edf3114610354578063f1c6bdf814610367578063fac5e9811461037a57600080fd5b8063a06324611461032e578063aa0992aa1461034157600080fd5b8063685dc6b1116100b2578063685dc6b1146102d0578063736963a7146102f15780637da0a8771461030857600080fd5b806354fd4d501461027b578063572b6c05146102bd57600080fd5b80631ed86f1911610124578063333dc52711610109578063333dc5271461022757806342f6e3891461023a5780634cfa64871461026657600080fd5b80631ed86f19146101ff5780632e3a22d31461021257600080fd5b8063058a628f11610155578063058a628f146101c4578063088b0d75146101d957806308c101b1146101ec57600080fd5b806301ffc9a71461017157806304baed9e14610199575b600080fd5b61018461017f366004611a7a565b61038d565b60405190151581526020015b60405180910390f35b6004546101ac906001600160a01b031681565b6040516001600160a01b039091168152602001610190565b6101d76101d2366004611ae1565b6103e9565b005b6101d76101e7366004611ae1565b610687565b6101ac6101fa366004611afe565b610898565b6101d761020d366004611ae1565b6108ee565b60005460405160ff9091168152602001610190565b6101d7610235366004611ae1565b610992565b610184610248366004611ae1565b6001600160a01b031660009081526001602052604090205460ff1690565b61026e610ba3565b6040516101909190611b70565b60408051808201909152600181527f310000000000000000000000000000000000000000000000000000000000000060208201525b6040516101909190611c0d565b6101846102cb366004611ae1565b610c05565b6102e36102de366004611ca8565b610c10565b604051610190929190611d3b565b6102fa60035481565b604051908152602001610190565b7f00000000000000000000000000000000000000000000000000000000000000006101ac565b6101d761033c366004611ae1565b610cc3565b6101d761034f366004611d56565b610d6a565b6005546101ac906001600160a01b031681565b6006546101ac906001600160a01b031681565b6102b0610388366004611ca8565b610f9a565b60007fffffffff0000000000000000000000000000000000000000000000000000000082167f644771e70000000000000000000000000000000000000000000000000000000014806103e357506103e382611171565b92915050565b600554604080517f55ff58d400000000000000000000000000000000000000000000000000000000815290516000926001600160a01b0316916355ff58d49160048083019260209291908290030181865afa15801561044c573d6000803e3d6000fd5b505050506040513d601f19601f820116820180604052508101906104709190611e06565b6005549091506001600160a01b03166391d148548261048d611208565b6040517fffffffff0000000000000000000000000000000000000000000000000000000060e085901b16815260048101929092526001600160a01b03166024820152604401602060405180830381865afa1580156104ef573d6000803e3d6000fd5b505050506040513d601f19601f820116820180604052508101906105139190611e1f565b6105695780610520611208565b6040517f25f3b92700000000000000000000000000000000000000000000000000000000815260048101929092526001600160a01b031660248201526044015b60405180910390fd5b817fd883df12000000000000000000000000000000000000000000000000000000007fc0603f09000000000000000000000000000000000000000000000000000000006105b6838361125a565b80156105c757506105c7838261125a565b15610643576105d5856108ee565b6005546105ea906001600160a01b0316610cc3565b6005805473ffffffffffffffffffffffffffffffffffffffff19166001600160a01b0387169081179091556040517ff3f625a7d9e02778afdfdf1bea978d6565840d408866c70f5d25aadf77021d7090600090a2610680565b6040517f0f25fdb60000000000000000000000000000000000000000000000000000000081526001600160a01b0386166004820152602401610560565b5050505050565b600554604080517f55ff58d400000000000000000000000000000000000000000000000000000000815290516000926001600160a01b0316916355ff58d49160048083019260209291908290030181865afa1580156106ea573d6000803e3d6000fd5b505050506040513d601f19601f8201168201806040525081019061070e9190611e06565b6005549091506001600160a01b03166391d148548261072b611208565b6040517fffffffff0000000000000000000000000000000000000000000000000000000060e085901b16815260048101929092526001600160a01b03166024820152604401602060405180830381865afa15801561078d573d6000803e3d6000fd5b505050506040513d601f19601f820116820180604052508101906107b19190611e1f565b6107be5780610520611208565b817fd883df12000000000000000000000000000000000000000000000000000000007f6e8ade450000000000000000000000000000000000000000000000000000000061080b838361125a565b801561081c575061081c838261125a565b156106435761082a856108ee565b60065461083f906001600160a01b0316610cc3565b6006805473ffffffffffffffffffffffffffffffffffffffff19166001600160a01b0387169081179091556040517fae8716ba090b1cdfccf3851704c6dc4610f3be4f2f6badf912e74315e5280db490600090a2610680565b60008060006108a7858561127d565b9150915060001982036108e6576040517f8b08febc00000000000000000000000000000000000000000000000000000000815260040160405180910390fd5b949350505050565b6108fe6108f9611208565b6113be565b610934576040517fbc43719a00000000000000000000000000000000000000000000000000000000815260040160405180910390fd5b600054608011610970576040517f4b8afdce00000000000000000000000000000000000000000000000000000000815260040160405180910390fd5b8061097a816114d4565b816109848161152a565b61098d8361157f565b505050565b600554604080517f55ff58d400000000000000000000000000000000000000000000000000000000815290516000926001600160a01b0316916355ff58d49160048083019260209291908290030181865afa1580156109f5573d6000803e3d6000fd5b505050506040513d601f19601f82011682018060405250810190610a199190611e06565b6005549091506001600160a01b03166391d1485482610a36611208565b6040517fffffffff0000000000000000000000000000000000000000000000000000000060e085901b16815260048101929092526001600160a01b03166024820152604401602060405180830381865afa158015610a98573d6000803e3d6000fd5b505050506040513d601f19601f82011682018060405250810190610abc9190611e1f565b610ac95780610520611208565b817fd883df12000000000000000000000000000000000000000000000000000000007f899090df00000000000000000000000000000000000000000000000000000000610b16838361125a565b8015610b275750610b27838261125a565b1561064357610b35856108ee565b600454610b4a906001600160a01b0316610cc3565b6004805473ffffffffffffffffffffffffffffffffffffffff19166001600160a01b0387169081179091556040517f224dfb9d0227c04cf6e5b57d4b0594d2962f550c547f4bf5e2578e09d6aa67ed90600090a2610680565b60606000805480602002602001604051908101604052809291908181526020018280548015610bfb57602002820191906000526020600020905b81546001600160a01b03168152600190910190602001808311610bdd575b5050505050905090565b60006103e382611638565b60006060610c1f610248611208565b610c55576040517fd527370800000000000000000000000000000000000000000000000000000000815260040160405180910390fd5b60006060856001600160a01b031685604051610c719190611e41565b6000604051808303816000865af19150503d8060008114610cae576040519150601f19603f3d011682016040523d82523d6000602084013e610cb3565b606091505b50909450925050505b9250929050565b610cce6108f9611208565b610d04576040517fbc43719a00000000000000000000000000000000000000000000000000000000815260040160405180910390fd5b80610d27816001600160a01b031660009081526001602052604090205460ff1690565b610d5d576040517ff944147c00000000000000000000000000000000000000000000000000000000815260040160405180910390fd5b610d668261166f565b5050565b7ff0c57e16840df040f15088dc2f81fe391c3923bec73e23a9662efc9c229c6a00805468010000000000000000810460ff16159067ffffffffffffffff16600081158015610db55750825b905060008267ffffffffffffffff166001148015610dd25750303b155b905081158015610de0575080155b15610e17576040517ff92ee8a900000000000000000000000000000000000000000000000000000000815260040160405180910390fd5b84547fffffffffffffffffffffffffffffffffffffffffffffffff00000000000000001660011785558315610e785784547fffffffffffffffffffffffffffffffffffffffffffffff00ffffffffffffffff16680100000000000000001785555b610e828a8a611848565b60038b9055600480546001600160a01b03808b1673ffffffffffffffffffffffffffffffffffffffff1992831617909255600580548a84169083161790556006805492891692909116919091179055610eda88610970565b610ee387610970565b610eec86610970565b8a7f070464456e868d7463724bb8b918079d22862b221db0658876214310cc0a93308989898e8e604051610f24959493929190611e5d565b60405180910390a28315610f8d5784547fffffffffffffffffffffffffffffffffffffffffffffff00ffffffffffffffff168555604051600181527fc7f505b2f371ae2175ee4913f4499e1f2633a7b5936321eed1cdaeb6115181d29060200160405180910390a15b5050505050505050505050565b60606000600560009054906101000a90046001600160a01b03166001600160a01b03166355ff58d46040518163ffffffff1660e01b8152600401602060405180830381865afa158015610ff1573d6000803e3d6000fd5b505050506040513d601f19601f820116820180604052508101906110159190611e06565b6005549091506001600160a01b03166391d1485482611032611208565b6040517fffffffff0000000000000000000000000000000000000000000000000000000060e085901b16815260048101929092526001600160a01b03166024820152604401602060405180830381865afa158015611094573d6000803e3d6000fd5b505050506040513d601f19601f820116820180604052508101906110b89190611e1f565b6110c55780610520611208565b60006060856001600160a01b0316856040516110e19190611e41565b6000604051808303816000865af19150503d806000811461111e576040519150601f19603f3d011682016040523d82523d6000602084013e611123565b606091505b509092509050811561113857925061116a9050565b6040517f74373f0f00000000000000000000000000000000000000000000000000000000815260040160405180910390fd5b5092915050565b60007fffffffff0000000000000000000000000000000000000000000000000000000082167fa1fb44110000000000000000000000000000000000000000000000000000000014806103e357507f01ffc9a7000000000000000000000000000000000000000000000000000000007fffffffff000000000000000000000000000000000000000000000000000000008316146103e3565b600036601461121633610c05565b80156112225750808210155b15611252576000366112348385611ecf565b61123f928290611f09565b61124891611f33565b60601c9250505090565b339250505090565b6000611265836118dd565b801561127657506112768383611941565b9392505050565b600080600061128a610ba3565b8051909150606060005b828110156113ac578381815181106112ae576112ae611f7b565b60200260200101516001600160a01b0316634a79d50c6040518163ffffffff1660e01b8152600401600060405180830381865afa1580156112f3573d6000803e3d6000fd5b505050506040513d6000823e601f3d908101601f1916820160405261131b9190810190611faa565b80519092508790036113a457878760405160200161133a929190612021565b60405160208183030381529060405280519060200120826040516020016113619190611e41565b60405160208183030381529060405280519060200120036113a4578084828151811061138f5761138f611f7b565b60200260200101519550955050505050610cbc565b600101611294565b50600019976000975095505050505050565b600554604080517f55ff58d400000000000000000000000000000000000000000000000000000000815290516000926001600160a01b0316916391d148549183916355ff58d49160048083019260209291908290030181865afa158015611429573d6000803e3d6000fd5b505050506040513d601f19601f8201168201806040525081019061144d9190611e06565b6040517fffffffff0000000000000000000000000000000000000000000000000000000060e084901b16815260048101919091526001600160a01b0385166024820152604401602060405180830381865afa1580156114b0573d6000803e3d6000fd5b505050506040513d601f19601f820116820180604052508101906103e39190611e1f565b6001600160a01b03811660009081526001602052604090205460ff1615611527576040517f4ee6adbb00000000000000000000000000000000000000000000000000000000815260040160405180910390fd5b50565b6001600160a01b038116158061154857506001600160a01b03811630145b15611527576040517f9004b22700000000000000000000000000000000000000000000000000000000815260040160405180910390fd5b60008054600180820183557f290decd9548b62a8d60345a988386fc84ba6bc95484008f6362f93160ef3e563909101805473ffffffffffffffffffffffffffffffffffffffff19166001600160a01b0385169081179091558083526020829052604080842080547fffffffffffffffffffffffffffffffffffffffffffffffffffffffffffffff0016909317909255905190917fead6a006345da1073a106d5f32372d2d2204f46cb0b4bca8f5ebafcbbed12b8a91a250565b60007f00000000000000000000000000000000000000000000000000000000000000006001600160a01b03908116908316146103e3565b60008054604080516020808402820181019092528281529183918301828280156116c257602002820191906000526020600020905b81546001600160a01b031681526001909101906020018083116116a4575b5050835193945060001993925060009150505b8181101561171f57846001600160a01b03168482815181106116f9576116f9611f7b565b60200260200101516001600160a01b0316036117175780925061171f565b6001016116d5565b50600061172d600183611ecf565b8154811061173d5761173d611f7b565b600091825260208220015481546001600160a01b0390911691908490811061176757611767611f7b565b60009182526020822001805473ffffffffffffffffffffffffffffffffffffffff19166001600160a01b0393909316929092179091558054806117ac576117ac612031565b600082815260208082208301600019908101805473ffffffffffffffffffffffffffffffffffffffff191690559092019092556001600160a01b0386168083526001909152604080832080547fffffffffffffffffffffffffffffffffffffffffffffffffffffffffffffff001690555190917f0a1ee69f55c33d8467c69ca59ce2007a737a88603d75392972520bf67cb513b891a250505050565b611850611a11565b60008161185f60036080611ecf565b811115611898576040517f4b8afdce00000000000000000000000000000000000000000000000000000000815260040160405180910390fd5b60005b81811015610680578484828181106118b5576118b5611f7b565b90506020020160208101906118ca9190611ae1565b92506118d583610970565b60010161189b565b6000611909827f01ffc9a700000000000000000000000000000000000000000000000000000000611941565b80156103e3575061193a827fffffffff00000000000000000000000000000000000000000000000000000000611941565b1592915050565b6040517fffffffff0000000000000000000000000000000000000000000000000000000082166024820152600090819060440160408051601f19818403018152919052602080820180517bffffffffffffffffffffffffffffffffffffffffffffffffffffffff167f01ffc9a700000000000000000000000000000000000000000000000000000000178152825192935060009283928392909183918a617530fa92503d915060005190508280156119fa575060208210155b8015611a065750600081115b979650505050505050565b7ff0c57e16840df040f15088dc2f81fe391c3923bec73e23a9662efc9c229c6a005468010000000000000000900460ff16611a78576040517fd7e6bcf800000000000000000000000000000000000000000000000000000000815260040160405180910390fd5b565b600060208284031215611a8c57600080fd5b81357fffffffff000000000000000000000000000000000000000000000000000000008116811461127657600080fd5b6001600160a01b038116811461152757600080fd5b8035611adc81611abc565b919050565b600060208284031215611af357600080fd5b813561127681611abc565b60008060208385031215611b1157600080fd5b823567ffffffffffffffff80821115611b2957600080fd5b818501915085601f830112611b3d57600080fd5b813581811115611b4c57600080fd5b866020828501011115611b5e57600080fd5b60209290920196919550909350505050565b6020808252825182820181905260009190848201906040850190845b81811015611bb15783516001600160a01b031683529284019291840191600101611b8c565b50909695505050505050565b60005b83811015611bd8578181015183820152602001611bc0565b50506000910152565b60008151808452611bf9816020860160208601611bbd565b601f01601f19169290920160200192915050565b6020815260006112766020830184611be1565b7f4e487b7100000000000000000000000000000000000000000000000000000000600052604160045260246000fd5b604051601f8201601f1916810167ffffffffffffffff81118282101715611c7857611c78611c20565b604052919050565b600067ffffffffffffffff821115611c9a57611c9a611c20565b50601f01601f191660200190565b60008060408385031215611cbb57600080fd5b8235611cc681611abc565b9150602083013567ffffffffffffffff811115611ce257600080fd5b8301601f81018513611cf357600080fd5b8035611d06611d0182611c80565b611c4f565b818152866020838501011115611d1b57600080fd5b816020840160208301376000602083830101528093505050509250929050565b82151581526040602082015260006108e66040830184611be1565b60008060008060008060a08789031215611d6f57600080fd5b86359550602087013567ffffffffffffffff80821115611d8e57600080fd5b818901915089601f830112611da257600080fd5b813581811115611db157600080fd5b8a60208260051b8501011115611dc657600080fd5b602083019750809650505050611dde60408801611ad1565b9250611dec60608801611ad1565b9150611dfa60808801611ad1565b90509295509295509295565b600060208284031215611e1857600080fd5b5051919050565b600060208284031215611e3157600080fd5b8151801515811461127657600080fd5b60008251611e53818460208701611bbd565b9190910192915050565b6000608082016001600160a01b038089168452602081891660208601528188166040860152608060608601528286845260a08601905087935060005b87811015611ec0578435611eac81611abc565b841682529382019390820190600101611e99565b509a9950505050505050505050565b818103818111156103e3577f4e487b7100000000000000000000000000000000000000000000000000000000600052601160045260246000fd5b60008085851115611f1957600080fd5b83861115611f2657600080fd5b5050820193919092039150565b7fffffffffffffffffffffffffffffffffffffffff0000000000000000000000008135818116916014851015611f735780818660140360031b1b83161692505b505092915050565b7f4e487b7100000000000000000000000000000000000000000000000000000000600052603260045260246000fd5b600060208284031215611fbc57600080fd5b815167ffffffffffffffff811115611fd357600080fd5b8201601f81018413611fe457600080fd5b8051611ff2611d0182611c80565b81815285602083850101111561200757600080fd5b612018826020830160208601611bbd565b95945050505050565b8183823760009101908152919050565b7f4e487b7100000000000000000000000000000000000000000000000000000000600052603160045260246000fdfea2646970667358221220c8c822c91869f8751a57ec2bd4853441461abce3271f530361df67febb0d1c1864736f6c63430008170033",
    "linkReferences": {}
  },
  "methodIdentifiers": {
    "addModule(address)": "1ed86f19",
    "authorizer()": "d09edf31",
    "executeTx(address,bytes)": "fac5e981",
    "executeTxFromModule(address,bytes)": "685dc6b1",
    "findModuleAddressInOrchestrator(string)": "08c101b1",
    "fundingManager()": "04baed9e",
    "init(uint256,address[],address,address,address)": "aa0992aa",
    "isModule(address)": "42f6e389",
    "isTrustedForwarder(address)": "572b6c05",
    "listModules()": "4cfa6487",
    "modulesSize()": "2e3a22d3",
    "orchestratorId()": "736963a7",
    "paymentProcessor()": "f1c6bdf8",
    "removeModule(address)": "a0632461",
    "setAuthorizer(address)": "058a628f",
    "setFundingManager(address)": "333dc527",
    "setPaymentProcessor(address)": "088b0d75",
    "supportsInterface(bytes4)": "01ffc9a7",
    "trustedForwarder()": "7da0a877",
    "version()": "54fd4d50"
  },
  "id": 139
}