{
    "abi": [
        {
            "type": "function",
            "name": "ASSERTER_ROLE",
            "inputs": [],
            "outputs": [
                {
                    "name": "",
                    "type": "bytes32",
                    "internalType": "bytes32"
                }
            ],
            "stateMutability": "view"
        },
        {
            "type": "function",
            "name": "KPICounter",
            "inputs": [],
            "outputs": [
                {
                    "name": "",
                    "type": "uint256",
                    "internalType": "uint256"
                }
            ],
            "stateMutability": "view"
        },
        {
            "type": "function",
            "name": "MAX_QUEUE_LENGTH",
            "inputs": [],
            "outputs": [
                {
                    "name": "",
                    "type": "uint256",
                    "internalType": "uint256"
                }
            ],
            "stateMutability": "view"
        },
        {
            "type": "function",
            "name": "amountPaid",
            "inputs": [
                {
                    "name": "token",
                    "type": "address",
                    "internalType": "address"
                },
                {
                    "name": "amount",
                    "type": "uint256",
                    "internalType": "uint256"
                }
            ],
            "outputs": [],
            "stateMutability": "nonpayable"
        },
        {
            "type": "function",
            "name": "assertDataFor",
            "inputs": [
                {
                    "name": "dataId",
                    "type": "bytes32",
                    "internalType": "bytes32"
                },
                {
                    "name": "data",
                    "type": "bytes32",
                    "internalType": "bytes32"
                },
                {
                    "name": "asserter",
                    "type": "address",
                    "internalType": "address"
                }
            ],
            "outputs": [
                {
                    "name": "assertionId",
                    "type": "bytes32",
                    "internalType": "bytes32"
                }
            ],
            "stateMutability": "nonpayable"
        },
        {
            "type": "function",
            "name": "assertionConfig",
            "inputs": [
                {
                    "name": "",
                    "type": "bytes32",
                    "internalType": "bytes32"
                }
            ],
            "outputs": [
                {
                    "name": "creationTime",
                    "type": "uint256",
                    "internalType": "uint256"
                },
                {
                    "name": "assertedValue",
                    "type": "uint256",
                    "internalType": "uint256"
                },
                {
                    "name": "KpiToUse",
                    "type": "uint256",
                    "internalType": "uint256"
                },
                {
                    "name": "distributed",
                    "type": "bool",
                    "internalType": "bool"
                }
            ],
            "stateMutability": "view"
        },
        {
            "type": "function",
            "name": "assertionData",
            "inputs": [
                {
                    "name": "",
                    "type": "bytes32",
                    "internalType": "bytes32"
                }
            ],
            "outputs": [
                {
                    "name": "dataId",
                    "type": "bytes32",
                    "internalType": "bytes32"
                },
                {
                    "name": "data",
                    "type": "bytes32",
                    "internalType": "bytes32"
                },
                {
                    "name": "asserter",
                    "type": "address",
                    "internalType": "address"
                },
                {
                    "name": "resolved",
                    "type": "bool",
                    "internalType": "bool"
                }
            ],
            "stateMutability": "view"
        },
        {
            "type": "function",
            "name": "assertionDisputedCallback",
            "inputs": [
                {
                    "name": "assertionId",
                    "type": "bytes32",
                    "internalType": "bytes32"
                }
            ],
            "outputs": [],
            "stateMutability": "nonpayable"
        },
        {
            "type": "function",
            "name": "assertionLiveness",
            "inputs": [],
            "outputs": [
                {
                    "name": "",
                    "type": "uint64",
                    "internalType": "uint64"
                }
            ],
            "stateMutability": "view"
        },
        {
            "type": "function",
            "name": "assertionResolvedCallback",
            "inputs": [
                {
                    "name": "assertionId",
                    "type": "bytes32",
                    "internalType": "bytes32"
                },
                {
                    "name": "assertedTruthfully",
                    "type": "bool",
                    "internalType": "bool"
                }
            ],
            "outputs": [],
            "stateMutability": "nonpayable"
        },
        {
            "type": "function",
            "name": "balanceOf",
            "inputs": [
                {
                    "name": "user",
                    "type": "address",
                    "internalType": "address"
                }
            ],
            "outputs": [
                {
                    "name": "",
                    "type": "uint256",
                    "internalType": "uint256"
                }
            ],
            "stateMutability": "view"
        },
        {
            "type": "function",
            "name": "claimRewards",
            "inputs": [],
            "outputs": [],
            "stateMutability": "nonpayable"
        },
        {
            "type": "function",
            "name": "collectPaymentOrders",
            "inputs": [],
            "outputs": [
                {
                    "name": "",
                    "type": "tuple[]",
                    "internalType": "struct IERC20PaymentClientBase_v1.PaymentOrder[]",
                    "components": [
                        {
                            "name": "recipient",
                            "type": "address",
                            "internalType": "address"
                        },
                        {
                            "name": "paymentToken",
                            "type": "address",
                            "internalType": "address"
                        },
                        {
                            "name": "amount",
                            "type": "uint256",
                            "internalType": "uint256"
                        },
                        {
                            "name": "start",
                            "type": "uint256",
                            "internalType": "uint256"
                        },
                        {
                            "name": "cliff",
                            "type": "uint256",
                            "internalType": "uint256"
                        },
                        {
                            "name": "end",
                            "type": "uint256",
                            "internalType": "uint256"
                        }
                    ]
                },
                {
                    "name": "",
                    "type": "address[]",
                    "internalType": "address[]"
                },
                {
                    "name": "",
                    "type": "uint256[]",
                    "internalType": "uint256[]"
                }
            ],
            "stateMutability": "nonpayable"
        },
        {
            "type": "function",
            "name": "createKPI",
            "inputs": [
                {
                    "name": "_continuous",
                    "type": "bool",
                    "internalType": "bool"
                },
                {
                    "name": "_trancheValues",
                    "type": "uint256[]",
                    "internalType": "uint256[]"
                },
                {
                    "name": "_trancheRewards",
                    "type": "uint256[]",
                    "internalType": "uint256[]"
                }
            ],
            "outputs": [
                {
                    "name": "",
                    "type": "uint256",
                    "internalType": "uint256"
                }
            ],
            "stateMutability": "nonpayable"
        },
        {
            "type": "function",
            "name": "defaultCurrency",
            "inputs": [],
            "outputs": [
                {
                    "name": "",
                    "type": "address",
                    "internalType": "contract IERC20"
                }
            ],
            "stateMutability": "view"
        },
        {
            "type": "function",
            "name": "defaultIdentifier",
            "inputs": [],
            "outputs": [
                {
                    "name": "",
                    "type": "bytes32",
                    "internalType": "bytes32"
                }
            ],
            "stateMutability": "view"
        },
        {
            "type": "function",
            "name": "depositFeeFunds",
            "inputs": [
                {
                    "name": "amount",
                    "type": "uint256",
                    "internalType": "uint256"
                }
            ],
            "outputs": [],
            "stateMutability": "nonpayable"
        },
        {
            "type": "function",
            "name": "dequeueStake",
            "inputs": [],
            "outputs": [],
            "stateMutability": "nonpayable"
        },
        {
            "type": "function",
            "name": "earned",
            "inputs": [
                {
                    "name": "user",
                    "type": "address",
                    "internalType": "address"
                }
            ],
            "outputs": [
                {
                    "name": "",
                    "type": "uint256",
                    "internalType": "uint256"
                }
            ],
            "stateMutability": "view"
        },
        {
            "type": "function",
            "name": "estimateReward",
            "inputs": [
                {
                    "name": "amount",
                    "type": "uint256",
                    "internalType": "uint256"
                },
                {
                    "name": "duration",
                    "type": "uint256",
                    "internalType": "uint256"
                }
            ],
            "outputs": [
                {
                    "name": "",
                    "type": "uint256",
                    "internalType": "uint256"
                }
            ],
            "stateMutability": "view"
        },
        {
            "type": "function",
            "name": "getAssertion",
            "inputs": [
                {
                    "name": "assertionId",
                    "type": "bytes32",
                    "internalType": "bytes32"
                }
            ],
            "outputs": [
                {
                    "name": "",
                    "type": "tuple",
                    "internalType": "struct IOptimisticOracleIntegrator.DataAssertion",
                    "components": [
                        {
                            "name": "dataId",
                            "type": "bytes32",
                            "internalType": "bytes32"
                        },
                        {
                            "name": "data",
                            "type": "bytes32",
                            "internalType": "bytes32"
                        },
                        {
                            "name": "asserter",
                            "type": "address",
                            "internalType": "address"
                        },
                        {
                            "name": "resolved",
                            "type": "bool",
                            "internalType": "bool"
                        }
                    ]
                }
            ],
            "stateMutability": "view"
        },
        {
            "type": "function",
            "name": "getAssertionConfig",
            "inputs": [
                {
                    "name": "assertionId",
                    "type": "bytes32",
                    "internalType": "bytes32"
                }
            ],
            "outputs": [
                {
                    "name": "",
                    "type": "tuple",
                    "internalType": "struct ILM_PC_KPIRewarder_v1.RewardRoundConfiguration",
                    "components": [
                        {
                            "name": "creationTime",
                            "type": "uint256",
                            "internalType": "uint256"
                        },
                        {
                            "name": "assertedValue",
                            "type": "uint256",
                            "internalType": "uint256"
                        },
                        {
                            "name": "KpiToUse",
                            "type": "uint256",
                            "internalType": "uint256"
                        },
                        {
                            "name": "distributed",
                            "type": "bool",
                            "internalType": "bool"
                        }
                    ]
                }
            ],
            "stateMutability": "view"
        },
        {
            "type": "function",
            "name": "getData",
            "inputs": [
                {
                    "name": "assertionId",
                    "type": "bytes32",
                    "internalType": "bytes32"
                }
            ],
            "outputs": [
                {
                    "name": "",
                    "type": "bool",
                    "internalType": "bool"
                },
                {
                    "name": "",
                    "type": "bytes32",
                    "internalType": "bytes32"
                }
            ],
            "stateMutability": "view"
        },
        {
            "type": "function",
            "name": "getKPI",
            "inputs": [
                {
                    "name": "KPInum",
                    "type": "uint256",
                    "internalType": "uint256"
                }
            ],
            "outputs": [
                {
                    "name": "",
                    "type": "tuple",
                    "internalType": "struct ILM_PC_KPIRewarder_v1.KPI",
                    "components": [
                        {
                            "name": "numOfTranches",
                            "type": "uint256",
                            "internalType": "uint256"
                        },
                        {
                            "name": "totalRewards",
                            "type": "uint256",
                            "internalType": "uint256"
                        },
                        {
                            "name": "continuous",
                            "type": "bool",
                            "internalType": "bool"
                        },
                        {
                            "name": "trancheValues",
                            "type": "uint256[]",
                            "internalType": "uint256[]"
                        },
                        {
                            "name": "trancheRewards",
                            "type": "uint256[]",
                            "internalType": "uint256[]"
                        }
                    ]
                }
            ],
            "stateMutability": "view"
        },
        {
            "type": "function",
            "name": "getStakingQueue",
            "inputs": [],
            "outputs": [
                {
                    "name": "",
                    "type": "address[]",
                    "internalType": "address[]"
                }
            ],
            "stateMutability": "view"
        },
        {
            "type": "function",
            "name": "grantModuleRole",
            "inputs": [
                {
                    "name": "role",
                    "type": "bytes32",
                    "internalType": "bytes32"
                },
                {
                    "name": "target",
                    "type": "address",
                    "internalType": "address"
                }
            ],
            "outputs": [],
            "stateMutability": "nonpayable"
        },
        {
            "type": "function",
            "name": "grantModuleRoleBatched",
            "inputs": [
                {
                    "name": "role",
                    "type": "bytes32",
                    "internalType": "bytes32"
                },
                {
                    "name": "targets",
                    "type": "address[]",
                    "internalType": "address[]"
                }
            ],
            "outputs": [],
            "stateMutability": "nonpayable"
        },
        {
            "type": "function",
            "name": "identifier",
            "inputs": [],
            "outputs": [
                {
                    "name": "",
                    "type": "bytes32",
                    "internalType": "bytes32"
                }
            ],
            "stateMutability": "view"
        },
        {
            "type": "function",
            "name": "init",
            "inputs": [
                {
                    "name": "orchestrator_",
                    "type": "address",
                    "internalType": "contract IOrchestrator_v1"
                },
                {
                    "name": "metadata",
                    "type": "tuple",
                    "internalType": "struct IModule_v1.Metadata",
                    "components": [
                        {
                            "name": "majorVersion",
                            "type": "uint256",
                            "internalType": "uint256"
                        },
                        {
                            "name": "minorVersion",
                            "type": "uint256",
                            "internalType": "uint256"
                        },
                        {
                            "name": "url",
                            "type": "string",
                            "internalType": "string"
                        },
                        {
                            "name": "title",
                            "type": "string",
                            "internalType": "string"
                        }
                    ]
                },
                {
                    "name": "configData",
                    "type": "bytes",
                    "internalType": "bytes"
                }
            ],
            "outputs": [],
            "stateMutability": "nonpayable"
        },
        {
            "type": "function",
            "name": "isTrustedForwarder",
            "inputs": [
                {
                    "name": "forwarder",
                    "type": "address",
                    "internalType": "address"
                }
            ],
            "outputs": [
                {
                    "name": "",
                    "type": "bool",
                    "internalType": "bool"
                }
            ],
            "stateMutability": "view"
        },
        {
            "type": "function",
            "name": "oo",
            "inputs": [],
            "outputs": [
                {
                    "name": "",
                    "type": "address",
                    "internalType": "contract OptimisticOracleV3Interface"
                }
            ],
            "stateMutability": "view"
        },
        {
            "type": "function",
            "name": "orchestrator",
            "inputs": [],
            "outputs": [
                {
                    "name": "",
                    "type": "address",
                    "internalType": "contract IOrchestrator_v1"
                }
            ],
            "stateMutability": "view"
        },
        {
            "type": "function",
            "name": "outstandingTokenAmount",
            "inputs": [
                {
                    "name": "_token",
                    "type": "address",
                    "internalType": "address"
                }
            ],
            "outputs": [
                {
                    "name": "",
                    "type": "uint256",
                    "internalType": "uint256"
                }
            ],
            "stateMutability": "view"
        },
        {
            "type": "function",
            "name": "paymentOrders",
            "inputs": [],
            "outputs": [
                {
                    "name": "",
                    "type": "tuple[]",
                    "internalType": "struct IERC20PaymentClientBase_v1.PaymentOrder[]",
                    "components": [
                        {
                            "name": "recipient",
                            "type": "address",
                            "internalType": "address"
                        },
                        {
                            "name": "paymentToken",
                            "type": "address",
                            "internalType": "address"
                        },
                        {
                            "name": "amount",
                            "type": "uint256",
                            "internalType": "uint256"
                        },
                        {
                            "name": "start",
                            "type": "uint256",
                            "internalType": "uint256"
                        },
                        {
                            "name": "cliff",
                            "type": "uint256",
                            "internalType": "uint256"
                        },
                        {
                            "name": "end",
                            "type": "uint256",
                            "internalType": "uint256"
                        }
                    ]
                }
            ],
            "stateMutability": "view"
        },
        {
            "type": "function",
            "name": "postAssertion",
            "inputs": [
                {
                    "name": "dataId",
                    "type": "bytes32",
                    "internalType": "bytes32"
                },
                {
                    "name": "data",
                    "type": "bytes32",
                    "internalType": "bytes32"
                },
                {
                    "name": "asserter",
                    "type": "address",
                    "internalType": "address"
                },
                {
                    "name": "assertedValue",
                    "type": "uint256",
                    "internalType": "uint256"
                },
                {
                    "name": "targetKPI",
                    "type": "uint256",
                    "internalType": "uint256"
                }
            ],
            "outputs": [
                {
                    "name": "assertionId",
                    "type": "bytes32",
                    "internalType": "bytes32"
                }
            ],
            "stateMutability": "nonpayable"
        },
        {
            "type": "function",
            "name": "registryOfKPIs",
            "inputs": [
                {
                    "name": "",
                    "type": "uint256",
                    "internalType": "uint256"
                }
            ],
            "outputs": [
                {
                    "name": "numOfTranches",
                    "type": "uint256",
                    "internalType": "uint256"
                },
                {
                    "name": "totalRewards",
                    "type": "uint256",
                    "internalType": "uint256"
                },
                {
                    "name": "continuous",
                    "type": "bool",
                    "internalType": "bool"
                }
            ],
            "stateMutability": "view"
        },
        {
            "type": "function",
            "name": "revokeModuleRole",
            "inputs": [
                {
                    "name": "role",
                    "type": "bytes32",
                    "internalType": "bytes32"
                },
                {
                    "name": "target",
                    "type": "address",
                    "internalType": "address"
                }
            ],
            "outputs": [],
            "stateMutability": "nonpayable"
        },
        {
            "type": "function",
            "name": "revokeModuleRoleBatched",
            "inputs": [
                {
                    "name": "role",
                    "type": "bytes32",
                    "internalType": "bytes32"
                },
                {
                    "name": "targets",
                    "type": "address[]",
                    "internalType": "address[]"
                }
            ],
            "outputs": [],
            "stateMutability": "nonpayable"
        },
        {
            "type": "function",
            "name": "rewardRate",
            "inputs": [],
            "outputs": [
                {
                    "name": "",
                    "type": "uint256",
                    "internalType": "uint256"
                }
            ],
            "stateMutability": "view"
        },
        {
            "type": "function",
            "name": "rewardsEnd",
            "inputs": [],
            "outputs": [
                {
                    "name": "",
                    "type": "uint256",
                    "internalType": "uint256"
                }
            ],
            "stateMutability": "view"
        },
        {
            "type": "function",
            "name": "setDefaultAssertionLiveness",
            "inputs": [
                {
                    "name": "_newLiveness",
                    "type": "uint64",
                    "internalType": "uint64"
                }
            ],
            "outputs": [],
            "stateMutability": "nonpayable"
        },
        {
            "type": "function",
            "name": "setDefaultCurrency",
            "inputs": [
                {
                    "name": "_newCurrency",
                    "type": "address",
                    "internalType": "address"
                }
            ],
            "outputs": [],
            "stateMutability": "nonpayable"
        },
        {
            "type": "function",
            "name": "setOptimisticOracle",
            "inputs": [
                {
                    "name": "_newOO",
                    "type": "address",
                    "internalType": "address"
                }
            ],
            "outputs": [],
            "stateMutability": "nonpayable"
        },
        {
            "type": "function",
            "name": "setRewards",
            "inputs": [
                {
                    "name": "amount",
                    "type": "uint256",
                    "internalType": "uint256"
                },
                {
                    "name": "duration",
                    "type": "uint256",
                    "internalType": "uint256"
                }
            ],
            "outputs": [],
            "stateMutability": "nonpayable"
        },
        {
            "type": "function",
            "name": "stake",
            "inputs": [
                {
                    "name": "amount",
                    "type": "uint256",
                    "internalType": "uint256"
                }
            ],
            "outputs": [],
            "stateMutability": "nonpayable"
        },
        {
            "type": "function",
            "name": "stakingQueue",
            "inputs": [
                {
                    "name": "",
                    "type": "uint256",
                    "internalType": "uint256"
                }
            ],
            "outputs": [
                {
                    "name": "",
                    "type": "address",
                    "internalType": "address"
                }
            ],
            "stateMutability": "view"
        },
        {
            "type": "function",
            "name": "stakingQueueAmounts",
            "inputs": [
                {
                    "name": "",
                    "type": "address",
                    "internalType": "address"
                }
            ],
            "outputs": [
                {
                    "name": "",
                    "type": "uint256",
                    "internalType": "uint256"
                }
            ],
            "stateMutability": "view"
        },
        {
            "type": "function",
            "name": "stakingToken",
            "inputs": [],
            "outputs": [
                {
                    "name": "",
                    "type": "address",
                    "internalType": "address"
                }
            ],
            "stateMutability": "view"
        },
        {
            "type": "function",
            "name": "supportsInterface",
            "inputs": [
                {
                    "name": "interfaceId",
                    "type": "bytes4",
                    "internalType": "bytes4"
                }
            ],
            "outputs": [
                {
                    "name": "",
                    "type": "bool",
                    "internalType": "bool"
                }
            ],
            "stateMutability": "view"
        },
        {
            "type": "function",
            "name": "title",
            "inputs": [],
            "outputs": [
                {
                    "name": "",
                    "type": "string",
                    "internalType": "string"
                }
            ],
            "stateMutability": "view"
        },
        {
            "type": "function",
            "name": "totalQueuedFunds",
            "inputs": [],
            "outputs": [
                {
                    "name": "",
                    "type": "uint256",
                    "internalType": "uint256"
                }
            ],
            "stateMutability": "view"
        },
        {
            "type": "function",
            "name": "totalSupply",
            "inputs": [],
            "outputs": [
                {
                    "name": "",
                    "type": "uint256",
                    "internalType": "uint256"
                }
            ],
            "stateMutability": "view"
        },
        {
            "type": "function",
            "name": "trustedForwarder",
            "inputs": [],
            "outputs": [
                {
                    "name": "",
                    "type": "address",
                    "internalType": "address"
                }
            ],
            "stateMutability": "view"
        },
        {
            "type": "function",
            "name": "unstake",
            "inputs": [
                {
                    "name": "amount",
                    "type": "uint256",
                    "internalType": "uint256"
                }
            ],
            "outputs": [],
            "stateMutability": "nonpayable"
        },
        {
            "type": "function",
            "name": "url",
            "inputs": [],
            "outputs": [
                {
                    "name": "",
                    "type": "string",
                    "internalType": "string"
                }
            ],
            "stateMutability": "view"
        },
        {
            "type": "function",
            "name": "version",
            "inputs": [],
            "outputs": [
                {
                    "name": "",
                    "type": "uint256",
                    "internalType": "uint256"
                },
                {
                    "name": "",
                    "type": "uint256",
                    "internalType": "uint256"
                }
            ],
            "stateMutability": "view"
        },
        {
            "type": "event",
            "name": "DataAsserted",
            "inputs": [
                {
                    "name": "dataId",
                    "type": "bytes32",
                    "indexed": true,
                    "internalType": "bytes32"
                },
                {
                    "name": "data",
                    "type": "bytes32",
                    "indexed": false,
                    "internalType": "bytes32"
                },
                {
                    "name": "asserter",
                    "type": "address",
                    "indexed": true,
                    "internalType": "address"
                },
                {
                    "name": "assertionId",
                    "type": "bytes32",
                    "indexed": true,
                    "internalType": "bytes32"
                }
            ],
            "anonymous": false
        },
        {
            "type": "event",
            "name": "DataAssertionResolved",
            "inputs": [
                {
                    "name": "assertedTruthfully",
                    "type": "bool",
                    "indexed": false,
                    "internalType": "bool"
                },
                {
                    "name": "dataId",
                    "type": "bytes32",
                    "indexed": true,
                    "internalType": "bytes32"
                },
                {
                    "name": "data",
                    "type": "bytes32",
                    "indexed": false,
                    "internalType": "bytes32"
                },
                {
                    "name": "asserter",
                    "type": "address",
                    "indexed": true,
                    "internalType": "address"
                },
                {
                    "name": "assertionId",
                    "type": "bytes32",
                    "indexed": true,
                    "internalType": "bytes32"
                }
            ],
            "anonymous": false
        },
        {
            "type": "event",
            "name": "FeeFundsDeposited",
            "inputs": [
                {
                    "name": "token",
                    "type": "address",
                    "indexed": false,
                    "internalType": "address"
                },
                {
                    "name": "amount",
                    "type": "uint256",
                    "indexed": false,
                    "internalType": "uint256"
                }
            ],
            "anonymous": false
        },
        {
            "type": "event",
            "name": "Initialized",
            "inputs": [
                {
                    "name": "version",
                    "type": "uint64",
                    "indexed": false,
                    "internalType": "uint64"
                }
            ],
            "anonymous": false
        },
        {
            "type": "event",
            "name": "KPICreated",
            "inputs": [
                {
                    "name": "KPI_Id",
                    "type": "uint256",
                    "indexed": false,
                    "internalType": "uint256"
                },
                {
                    "name": "numOfTranches",
                    "type": "uint256",
                    "indexed": false,
                    "internalType": "uint256"
                },
                {
                    "name": "totalKPIRewards",
                    "type": "uint256",
                    "indexed": false,
                    "internalType": "uint256"
                },
                {
                    "name": "continuous",
                    "type": "bool",
                    "indexed": false,
                    "internalType": "bool"
                },
                {
                    "name": "trancheValues",
                    "type": "uint256[]",
                    "indexed": false,
                    "internalType": "uint256[]"
                },
                {
                    "name": "trancheRewards",
                    "type": "uint256[]",
                    "indexed": false,
                    "internalType": "uint256[]"
                }
            ],
            "anonymous": false
        },
        {
            "type": "event",
            "name": "ModuleInitialized",
            "inputs": [
                {
                    "name": "parentOrchestrator",
                    "type": "address",
                    "indexed": true,
                    "internalType": "address"
                },
                {
                    "name": "moduleTitle",
                    "type": "string",
                    "indexed": true,
                    "internalType": "string"
                },
                {
                    "name": "majorVersion",
                    "type": "uint256",
                    "indexed": false,
                    "internalType": "uint256"
                },
                {
                    "name": "minorVersion",
                    "type": "uint256",
                    "indexed": false,
                    "internalType": "uint256"
                }
            ],
            "anonymous": false
        },
        {
            "type": "event",
            "name": "PaymentOrderAdded",
            "inputs": [
                {
                    "name": "recipient",
                    "type": "address",
                    "indexed": true,
                    "internalType": "address"
                },
                {
                    "name": "token",
                    "type": "address",
                    "indexed": true,
                    "internalType": "address"
                },
                {
                    "name": "amount",
                    "type": "uint256",
                    "indexed": false,
                    "internalType": "uint256"
                }
            ],
            "anonymous": false
        },
        {
            "type": "event",
            "name": "RewardSet",
            "inputs": [
                {
                    "name": "rewardAmount",
                    "type": "uint256",
                    "indexed": false,
                    "internalType": "uint256"
                },
                {
                    "name": "duration",
                    "type": "uint256",
                    "indexed": false,
                    "internalType": "uint256"
                },
                {
                    "name": "newRewardRate",
                    "type": "uint256",
                    "indexed": false,
                    "internalType": "uint256"
                },
                {
                    "name": "newRewardsEnd",
                    "type": "uint256",
                    "indexed": false,
                    "internalType": "uint256"
                }
            ],
            "anonymous": false
        },
        {
            "type": "event",
            "name": "RewardsDistributed",
            "inputs": [
                {
                    "name": "user",
                    "type": "address",
                    "indexed": true,
                    "internalType": "address"
                },
                {
                    "name": "amount",
                    "type": "uint256",
                    "indexed": false,
                    "internalType": "uint256"
                }
            ],
            "anonymous": false
        },
        {
            "type": "event",
            "name": "RewardsDurationUpdated",
            "inputs": [
                {
                    "name": "newDuration",
                    "type": "uint256",
                    "indexed": false,
                    "internalType": "uint256"
                }
            ],
            "anonymous": false
        },
        {
            "type": "event",
            "name": "StakeDequeued",
            "inputs": [
                {
                    "name": "user",
                    "type": "address",
                    "indexed": false,
                    "internalType": "address"
                },
                {
                    "name": "amount",
                    "type": "uint256",
                    "indexed": false,
                    "internalType": "uint256"
                }
            ],
            "anonymous": false
        },
        {
            "type": "event",
            "name": "StakeEnqueued",
            "inputs": [
                {
                    "name": "user",
                    "type": "address",
                    "indexed": false,
                    "internalType": "address"
                },
                {
                    "name": "amount",
                    "type": "uint256",
                    "indexed": false,
                    "internalType": "uint256"
                }
            ],
            "anonymous": false
        },
        {
            "type": "event",
            "name": "Staked",
            "inputs": [
                {
                    "name": "user",
                    "type": "address",
                    "indexed": true,
                    "internalType": "address"
                },
                {
                    "name": "amount",
                    "type": "uint256",
                    "indexed": false,
                    "internalType": "uint256"
                }
            ],
            "anonymous": false
        },
        {
            "type": "event",
            "name": "Unstaked",
            "inputs": [
                {
                    "name": "user",
                    "type": "address",
                    "indexed": true,
                    "internalType": "address"
                },
                {
                    "name": "amount",
                    "type": "uint256",
                    "indexed": false,
                    "internalType": "uint256"
                }
            ],
            "anonymous": false
        },
        {
            "type": "error",
            "name": "AddressEmptyCode",
            "inputs": [
                {
                    "name": "target",
                    "type": "address",
                    "internalType": "address"
                }
            ]
        },
        {
            "type": "error",
            "name": "AddressInsufficientBalance",
            "inputs": [
                {
                    "name": "account",
                    "type": "address",
                    "internalType": "address"
                }
            ]
        },
        {
            "type": "error",
            "name": "FailedInnerCall",
            "inputs": []
        },
        {
            "type": "error",
            "name": "InvalidInitialization",
            "inputs": []
        },
        {
            "type": "error",
            "name": "Module_OrchestratorCallbackFailed",
            "inputs": [
                {
                    "name": "funcSig",
                    "type": "string",
                    "internalType": "string"
                }
            ]
        },
        {
            "type": "error",
            "name": "Module__CallerNotAuthorized",
            "inputs": [
                {
                    "name": "role",
                    "type": "bytes32",
                    "internalType": "bytes32"
                },
                {
                    "name": "caller",
                    "type": "address",
                    "internalType": "address"
                }
            ]
        },
        {
            "type": "error",
            "name": "Module__ERC20PaymentClientBase__ArrayLengthMismatch",
            "inputs": []
        },
        {
            "type": "error",
            "name": "Module__ERC20PaymentClientBase__CallerNotAuthorized",
            "inputs": []
        },
        {
            "type": "error",
            "name": "Module__ERC20PaymentClientBase__InsufficientFunds",
            "inputs": [
                {
                    "name": "token",
                    "type": "address",
                    "internalType": "address"
                }
            ]
        },
        {
            "type": "error",
            "name": "Module__ERC20PaymentClientBase__InvalidAmount",
            "inputs": []
        },
        {
            "type": "error",
            "name": "Module__ERC20PaymentClientBase__InvalidRecipient",
            "inputs": []
        },
        {
            "type": "error",
            "name": "Module__ERC20PaymentClientBase__InvalidToken",
            "inputs": []
        },
        {
            "type": "error",
            "name": "Module__ERC20PaymentClientBase__Invalidend",
            "inputs": []
        },
        {
            "type": "error",
            "name": "Module__ERC20PaymentClientBase__TokenTransferFailed",
            "inputs": []
        },
        {
            "type": "error",
            "name": "Module__InvalidMetadata",
            "inputs": []
        },
        {
            "type": "error",
            "name": "Module__InvalidOrchestratorAddress",
            "inputs": []
        },
        {
            "type": "error",
            "name": "Module__LM_PC_KPIRewarder_v1__InvalidKPINumber",
            "inputs": []
        },
        {
            "type": "error",
            "name": "Module__LM_PC_KPIRewarder_v1__InvalidKPITrancheValues",
            "inputs": []
        },
        {
            "type": "error",
            "name": "Module__LM_PC_KPIRewarder_v1__InvalidKPIValueLengths",
            "inputs": []
        },
        {
            "type": "error",
            "name": "Module__LM_PC_KPIRewarder_v1__InvalidTargetValue",
            "inputs": []
        },
        {
            "type": "error",
            "name": "Module__LM_PC_KPIRewarder_v1__InvalidTrancheNumber",
            "inputs": []
        },
        {
            "type": "error",
            "name": "Module__LM_PC_KPIRewarder_v1__ModuleCannotUseStakingTokenAsBond",
            "inputs": []
        },
        {
            "type": "error",
            "name": "Module__LM_PC_KPIRewarder_v1__StakingQueueIsFull",
            "inputs": []
        },
        {
            "type": "error",
            "name": "Module__LM_PC_Staking_v1__InvalidDuration",
            "inputs": []
        },
        {
            "type": "error",
            "name": "Module__LM_PC_Staking_v1__InvalidRewardRate",
            "inputs": []
        },
        {
            "type": "error",
            "name": "Module__LM_PC_Staking_v1__InvalidStakingToken",
            "inputs": []
        },
        {
            "type": "error",
            "name": "Module__OnlyCallableByOrchestrator",
            "inputs": []
        },
        {
            "type": "error",
            "name": "Module__OptimisticOracleIntegrator__CallerNotOO",
            "inputs": []
        },
        {
            "type": "error",
            "name": "Module__OptimisticOracleIntegrator__InvalidDefaultCurrency",
            "inputs": []
        },
        {
            "type": "error",
            "name": "Module__OptimisticOracleIntegrator__InvalidDefaultLiveness",
            "inputs": []
        },
        {
            "type": "error",
            "name": "Module__OptimisticOracleIntegrator__InvalidOOInstance",
            "inputs": []
        },
        {
            "type": "error",
            "name": "NotInitializing",
            "inputs": []
        },
        {
            "type": "error",
            "name": "ReentrancyGuardReentrantCall",
            "inputs": []
        },
        {
            "type": "error",
            "name": "SafeERC20FailedOperation",
            "inputs": [
                {
                    "name": "token",
                    "type": "address",
                    "internalType": "address"
                }
            ]
        }
    ],
    "bytecode": {
        "object": "0x60a06040523480156200001157600080fd5b506000608052620000216200002c565b6001600755620000e0565b7ff0c57e16840df040f15088dc2f81fe391c3923bec73e23a9662efc9c229c6a00805468010000000000000000900460ff16156200007d5760405163f92ee8a960e01b815260040160405180910390fd5b80546001600160401b0390811614620000dd5780546001600160401b0319166001600160401b0390811782556040519081527fc7f505b2f371ae2175ee4913f4499e1f2633a7b5936321eed1cdaeb6115181d29060200160405180910390a15b50565b608051615dd8620000f960003960005050615dd86000f3fe608060405234801561001057600080fd5b50600436106103775760003560e01c806375fa0b76116101d3578063a6d14d6911610104578063bf5c3252116100a2578063d448a4ec1161007c578063d448a4ec14610999578063d509b017146109aa578063d701aedb146109b3578063f1b156b2146109bc57600080fd5b8063bf5c32521461095c578063c0231ff61461096f578063c84c84f01461098657600080fd5b8063b75d4e24116100de578063b75d4e24146108db578063bc7d2a331461090f578063bcb6192014610922578063bf14d4a91461093557600080fd5b8063a6d14d69146108ae578063b33ec618146108b7578063b74795d9146108ca57600080fd5b80637e5f43ff116101715780638921a6141161014b5780638921a6141461082d57806393ee663b14610840578063956ae17b14610853578063a694fc3a1461089b57600080fd5b80637e5f43ff1461074257806381d0951714610755578063883028841461076857600080fd5b80637998a1c4116101ad5780637998a1c4146106cf5780637b0a47ee146106d75780637b9a9c7f146106e05780637da0a8771461073a57600080fd5b806375fa0b7614610691578063772fd8da146106a657806378802654146106c657600080fd5b80633ecd7972116102ad5780636315a4551161024b5780636c67e807116102255780636c67e8071461063a5780636e73ba5b1461064d57806370a082311461065557806372f702f31461067e57600080fd5b80636315a455146105ff57806364e6bbe514610614578063654e51e71461062757600080fd5b806354f6127f1161028757806354f6127f1461059f57806354fd4d50146105c95780635600f04f146105e4578063572b6c05146105ec57600080fd5b80633ecd79721461052857806342dfe958146105775780634a79d50c1461058a57600080fd5b806324e302701161031a5780632a4e1904116102f45780632a4e19041461046f5780632e17de78146104e45780632e84db5f146104f7578063372500ab1461052057600080fd5b806324e3027014610441578063272bbd44146104545780632979b6701461046757600080fd5b80630f14c8cf116103565780630f14c8cf146103e55780630fe5bc3b146103fa57806318160ddd1461042557806320402e1d1461042e57600080fd5b80628cc2621461037c57806301ffc9a7146103a25780630dfc4357146103c5575b600080fd5b61038f61038a366004614f96565b6109cf565b6040519081526020015b60405180910390f35b6103b56103b0366004614fb3565b6109e8565b6040519015158152602001610399565b61038f6103d3366004614f96565b60196020526000908152604090205481565b6103f86103f3366004614f96565b610a26565b005b61040d610408366004614fdd565b610b0c565b6040516001600160a01b039091168152602001610399565b61038f60095481565b60115461040d906001600160a01b031681565b6103f861044f366004615042565b610b36565b6103f8610462366004615042565b610c5c565b6103f8610d4b565b6104b361047d366004614fdd565b6014602052600090815260409020805460018201546002909201549091906001600160a01b03811690600160a01b900460ff1684565b604051610399949392919093845260208401929092526001600160a01b031660408301521515606082015260800190565b6103f86104f2366004614fdd565b610f29565b61038f610505366004614f96565b6001600160a01b031660009081526006602052604090205490565b6103f8611023565b61055a610536366004614fdd565b60166020526000908152604090208054600182015460029092015490919060ff1683565b604080519384526020840192909252151590820152606001610399565b6103f861058536600461517c565b611049565b6105926111da565b60405161039991906152a8565b6105b26105ad366004614fdd565b61126f565b604080519215158352602083019190915201610399565b60015460025460408051928352602083019190915201610399565b6105926112b6565b6103b56105fa366004614f96565b6112c8565b610607611350565b6040516103999190615300565b6103f8610622366004614fdd565b6113b1565b6103f8610635366004615313565b61147e565b6103f8610648366004615335565b611494565b61038f603281565b61038f610663366004614f96565b6001600160a01b03166000908152600e602052604090205490565b60085461040d906001600160a01b031681565b6106996115d6565b60405161039991906153d6565b6106b96106b4366004614fdd565b611679565b604051610399919061541a565b61038f60155481565b61038f611799565b61038f600a5481565b6107186106ee366004614fdd565b60176020526000908152604090208054600182015460028301546003909301549192909160ff1684565b6040805194855260208501939093529183015215156060820152608001610399565b61040d6118e9565b61038f610750366004615313565b611961565b6103f8610763366004615489565b611a36565b6107ef610776366004614fdd565b60408051608081018252600080825260208201819052918101829052606081019190915250600090815260146020908152604091829020825160808101845281548152600182015492810192909252600201546001600160a01b03811692820192909252600160a01b90910460ff161515606082015290565b604051610399919081518152602080830151908201526040808301516001600160a01b03169082015260609182015115159181019190915260800190565b60125461040d906001600160a01b031681565b61038f61084e3660046154a6565b611a8a565b610866610861366004614fdd565b611e41565b604051610399919081518152602080830151908201526040808301519082015260609182015115159181019190915260800190565b6103f86108a9366004614fdd565b611eb8565b61038f600b5481565b6103f86108c53660046154df565b612036565b6000546001600160a01b031661040d565b6012546108f690600160a01b900467ffffffffffffffff1681565b60405167ffffffffffffffff9091168152602001610399565b61038f61091d366004615519565b6120ad565b6103f8610930366004615335565b6123b9565b61038f7f351566c1ac6c6b0e5df4c16e81bc932aa8bf8cb9457b6e94847672b67f393cba81565b6103f861096a366004614f96565b6124c9565b61097761251d565b6040516103999392919061559c565b61038f6109943660046155d5565b6129f5565b6103f86109a7366004614fdd565b50565b61038f60135481565b61038f601a5481565b6103f86109ca36600461561e565b612c33565b60006109e2826109dd612f52565b612fb3565b92915050565b60006001600160e01b031982167fb8fe3ea20000000000000000000000000000000000000000000000000000000014806109e257506109e28261301b565b6000546040805163d09edf3160e01b81529051610b03926001600160a01b03169163d09edf319160048083019260209291908290030181865afa158015610a71573d6000803e3d6000fd5b505050506040513d601f19601f82011682018060405250810190610a959190615643565b6001600160a01b03166355ff58d46040518163ffffffff1660e01b8152600401602060405180830381865afa158015610ad2573d6000803e3d6000fd5b505050506040513d601f19601f82011682018060405250810190610af69190615660565b610afe613059565b6130ab565b6109a7816131f9565b60188181548110610b1c57600080fd5b6000918252602090912001546001600160a01b0316905081565b6000546040805163d09edf3160e01b81529051610b81926001600160a01b03169163d09edf319160048083019260209291908290030181865afa158015610a71573d6000803e3d6000fd5b60008054906101000a90046001600160a01b03166001600160a01b031663d09edf316040518163ffffffff1660e01b8152600401602060405180830381865afa158015610bd2573d6000803e3d6000fd5b505050506040513d601f19601f82011682018060405250810190610bf69190615643565b6001600160a01b0316637d540a648484846040518463ffffffff1660e01b8152600401610c2593929190615679565b600060405180830381600087803b158015610c3f57600080fd5b505af1158015610c53573d6000803e3d6000fd5b50505050505050565b6000546040805163d09edf3160e01b81529051610ca7926001600160a01b03169163d09edf319160048083019260209291908290030181865afa158015610a71573d6000803e3d6000fd5b60008054906101000a90046001600160a01b03166001600160a01b031663d09edf316040518163ffffffff1660e01b8152600401602060405180830381865afa158015610cf8573d6000803e3d6000fd5b505050506040513d601f19601f82011682018060405250810190610d1c9190615643565b6001600160a01b031663648154538484846040518463ffffffff1660e01b8152600401610c2593929190615679565b610d53613268565b6000610d5d613059565b6001600160a01b03811660009081526019602052604090205490915015610f1c576001600160a01b0381166000908152601960205260408120805490829055601a805491928392610daf9084906156e7565b90915550600090505b601854811015610ec057826001600160a01b031660188281548110610ddf57610ddf6156fa565b6000918252602090912001546001600160a01b031603610eb85760188054610e09906001906156e7565b81548110610e1957610e196156fa565b600091825260209091200154601880546001600160a01b039092169183908110610e4557610e456156fa565b9060005260206000200160006101000a8154816001600160a01b0302191690836001600160a01b031602179055506018805480610e8457610e84615710565b6000828152602090208101600019908101805473ffffffffffffffffffffffffffffffffffffffff19169055019055610ec0565b600101610db8565b50604080516001600160a01b0384168152602081018390527f2b96a2ef42d32e30dc79e8bf1b1e41bb95318494f4f578c8b28aa8dba3adb2d3910160405180910390a1600854610f1a906001600160a01b031683836132ab565b505b50610f276001600755565b565b610f31613268565b80610f3b81613324565b6000610f45613059565b9050610f508161335e565b6001600160a01b0381166000908152600e602052604081208054859290610f789084906156e7565b925050819055508260096000828254610f9191906156e7565b9091555050600854610fad906001600160a01b031682856132ab565b6001600160a01b03811660009081526010602052604090205415610fd457610fd4816133bd565b806001600160a01b03167f0f5bb82176feb1b5e747e28471aa92156a04d9f3ab9f45f28e2d704232b93f758460405161100f91815260200190565b60405180910390a250506109a76001600755565b61102b613268565b6000611035613059565b90506110408161335e565b610f1c816133bd565b7ff0c57e16840df040f15088dc2f81fe391c3923bec73e23a9662efc9c229c6a00805468010000000000000000810460ff16159067ffffffffffffffff166000811580156110945750825b905060008267ffffffffffffffff1660011480156110b15750303b155b9050811580156110bf575080155b156110f6576040517ff92ee8a900000000000000000000000000000000000000000000000000000000815260040160405180910390fd5b84547fffffffffffffffffffffffffffffffffffffffffffffffff0000000000000000166001178555831561114157845468ff00000000000000001916680100000000000000001785555b61114b888861362e565b600080600080898060200190518101906111659190615726565b93509350935093506111768461377f565b611181838383613790565b5050505083156111d057845468ff000000000000000019168555604051600181527fc7f505b2f371ae2175ee4913f4499e1f2633a7b5936321eed1cdaeb6115181d29060200160405180910390a15b5050505050505050565b6060600160030180546111ec90615785565b80601f016020809104026020016040519081016040528092919081815260200182805461121890615785565b80156112655780601f1061123a57610100808354040283529160200191611265565b820191906000526020600020905b81548152906001019060200180831161124857829003601f168201915b5050505050905090565b6000818152601460205260408120600201548190600160a01b900460ff1661129c57506000928392509050565b505060009081526014602052604090206001908101549091565b6060600160020180546111ec90615785565b600080546040517f572b6c050000000000000000000000000000000000000000000000000000000081526001600160a01b0384811660048301529091169063572b6c0590602401602060405180830381865afa15801561132c573d6000803e3d6000fd5b505050506040513d601f19601f820116820180604052508101906109e291906157bf565b6060601880548060200260200160405190810160405280929190818152602001828054801561126557602002820191906000526020600020905b81546001600160a01b0316815260019091019060200180831161138a575050505050905090565b6000546040805163d09edf3160e01b815290516113fc926001600160a01b03169163d09edf319160048083019260209291908290030181865afa158015610a71573d6000803e3d6000fd5b611404613268565b8061140e81613324565b61142d611419613059565b6011546001600160a01b03169030856137b3565b601154604080516001600160a01b039092168252602082018490527f643b1bd5b160e780fef319c0a18a3535edb10da7f7136320b2935bb6f1a9f605910160405180910390a1506109a76001600755565b6114866137f2565b6114908282613aa1565b5050565b6000546040805163d09edf3160e01b815290516114df926001600160a01b03169163d09edf319160048083019260209291908290030181865afa158015610a71573d6000803e3d6000fd5b60008054906101000a90046001600160a01b03166001600160a01b031663d09edf316040518163ffffffff1660e01b8152600401602060405180830381865afa158015611530573d6000803e3d6000fd5b505050506040513d601f19601f820116820180604052508101906115549190615643565b6040517fe1788154000000000000000000000000000000000000000000000000000000008152600481018490526001600160a01b038381166024830152919091169063e1788154906044015b600060405180830381600087803b1580156115ba57600080fd5b505af11580156115ce573d6000803e3d6000fd5b505050505050565b60606005805480602002602001604051908101604052809291908181526020016000905b828210156116705760008481526020908190206040805160c0810182526006860290920180546001600160a01b0390811684526001808301549091168486015260028201549284019290925260038101546060840152600481015460808401526005015460a083015290835290920191016115fa565b50505050905090565b6116ad6040518060a00160405280600081526020016000815260200160001515815260200160608152602001606081525090565b600082815260166020908152604091829020825160a08101845281548152600182015481840152600282015460ff16151581850152600382018054855181860281018601909652808652919492936060860193929083018282801561173157602002820191906000526020600020905b81548152602001906001019080831161171d575b505050505081526020016004820180548060200260200160405190810160405280929190818152602001828054801561178957602002820191906000526020600020905b815481526020019060010190808311611775575b5050505050815250509050919050565b604080516080810182526001805482526002546020830152600380546000946118e4949392908401916117cb90615785565b80601f01602080910402602001604051908101604052809291908181526020018280546117f790615785565b80156118445780601f1061181957610100808354040283529160200191611844565b820191906000526020600020905b81548152906001019060200180831161182757829003601f168201915b5050505050815260200160038201805461185d90615785565b80601f016020809104026020016040519081016040528092919081815260200182805461188990615785565b80156118d65780601f106118ab576101008083540402835291602001916118d6565b820191906000526020600020905b8154815290600101906020018083116118b957829003601f168201915b505050505081525050613be6565b905090565b60008060009054906101000a90046001600160a01b03166001600160a01b0316637da0a8776040518163ffffffff1660e01b8152600401602060405180830381865afa15801561193d573d6000803e3d6000fd5b505050506040513d601f19601f820116820180604052508101906118e49190615643565b60008261196d81613324565b82806000036119a8576040517fe05ce79000000000000000000000000000000000000000000000000000000000815260040160405180910390fd5b600b544211156119bb5760009250611a2e565b600b546119c885426157dc565b11156119df5742600b546119dc91906156e7565b93505b600954600003611a0757600a546119f685876157ef565b611a0091906157ef565b9250611a2e565b600954600a54611a1786886157ef565b611a2191906157ef565b611a2b919061581c565b92505b505092915050565b6000546040805163d09edf3160e01b81529051611a81926001600160a01b03169163d09edf319160048083019260209291908290030181865afa158015610a71573d6000803e3d6000fd5b6109a781613c26565b60007f351566c1ac6c6b0e5df4c16e81bc932aa8bf8cb9457b6e94847672b67f393cba611b8d60008054906101000a90046001600160a01b03166001600160a01b031663d09edf316040518163ffffffff1660e01b8152600401602060405180830381865afa158015611b01573d6000803e3d6000fd5b505050506040513d601f19601f82011682018060405250810190611b259190615643565b6040517ffdd5205f000000000000000000000000000000000000000000000000000000008152306004820152602481018490526001600160a01b03919091169063fdd5205f906044016020604051808303816000875af1158015610ad2573d6000803e3d6000fd5b6001600160a01b03831615611ba25782611baa565b611baa613059565b6012546011546040517f4360af3d0000000000000000000000000000000000000000000000000000000081526001600160a01b039182166004820152929550600092911690634360af3d90602401602060405180830381865afa158015611c15573d6000803e3d6000fd5b505050506040513d601f19601f82011682018060405250810190611c399190615660565b9050611c5a611c46613059565b6011546001600160a01b03169030846137b3565b601254601154611c77916001600160a01b03918216911683613cac565b6012546001600160a01b0316636457c979611c9187613d4f565b611c9a89613d4f565b611ca388613d90565b611cac42613e08565b611cb530613d90565b604051602001611cc995949392919061585a565b60408051808303601f190181529082905260125460115460135460e086901b6001600160e01b0319168552611d2a948b933093600093600160a01b90920467ffffffffffffffff16926001600160a01b03909116918b9185906004016159de565b6020604051808303816000875af1158015611d49573d6000803e3d6000fd5b505050506040513d601f19601f82011682018060405250810190611d6d9190615660565b6040805160808101825288815260208082018981526001600160a01b03808a168486018181526000606087018181528982526014909652879020955186559251600186015591516002909401805493511515600160a01b027fffffffffffffffffffffff0000000000000000000000000000000000000000009094169490911693909317919091179091559051919450849188907f29ae27364abd65b112ad0ac18e7e4f97360c20afa9636864dc91195d4d9204ec90611e30908a815260200190565b60405180910390a450509392505050565b611e6e60405180608001604052806000815260200160008152602001600081526020016000151581525090565b5060009081526017602090815260409182902082516080810184528154815260018201549281019290925260028101549282019290925260039091015460ff161515606082015290565b611ec0613268565b80611eca81613324565b601854603211611f06576040517ff5fc3d4500000000000000000000000000000000000000000000000000000000815260040160405180910390fd5b6000611f10613059565b6001600160a01b03811660009081526019602052604081205491925003611f8a57601880546001810182556000919091527fb13d2d76d1f4b7be834882e410b3e3a8afaf69f83600ae24db354391d2378d2e01805473ffffffffffffffffffffffffffffffffffffffff19166001600160a01b0383161790555b6001600160a01b03811660009081526019602052604081208054859290611fb29084906157dc565b9250508190555082601a6000828254611fcb91906157dc565b9091555050600854611fe8906001600160a01b03168230866137b3565b604080516001600160a01b0383168152602081018590527f092e6d0fb46de0430e74e875a283441f97dbd0a5f7495483c8a78e78c5ef8683910160405180910390a150506109a76001600755565b612046612041613059565b613f68565b61207c576040517fe4597a6b00000000000000000000000000000000000000000000000000000000815260040160405180910390fd5b6001600160a01b038216600090815260066020526040812080548392906120a49084906156e7565b90915550505050565b600080546040805163d09edf3160e01b815290516120f9926001600160a01b03169163d09edf319160048083019260209291908290030181865afa158015610a71573d6000803e3d6000fd5b8360018110806121095750601481115b15612140576040517fdb680bc000000000000000000000000000000000000000000000000000000000815260040160405180910390fd5b808314612179576040517f8b37be2800000000000000000000000000000000000000000000000000000000815260040160405180910390fd5b60008484600081811061218e5761218e6156fa565b90506020020135905060018211156122505760015b8281101561224e578787828181106121bd576121bd6156fa565b9050602002013588886001846121d391906156e7565b8181106121e2576121e26156fa565b9050602002013510612220576040517f8b1ec82600000000000000000000000000000000000000000000000000000000815260040160405180910390fd5b858582818110612232576122326156fa565b905060200201358261224491906157dc565b91506001016121a3565b505b600060155490506040518060a001604052808481526020018381526020018a1515815260200189898080602002602001604051908101604052809392919081815260200183836020028082843760009201919091525050509082525060408051602089810282810182019093528982529283019290918a918a918291850190849080828437600092018290525093909452505083815260166020908152604091829020845181558482015160018201559184015160028301805460ff1916911515919091179055606084015180519293506123349260038501929190910190614e91565b5060808201518051612350916004840191602090910190614e91565b5050601580549150600061236383615a4c565b91905055507fc1063bd63d477506eb51343042d915c0d3377b74bb787bc0f4d255ca1a7039b68184848c8c8c8c8c6040516123a5989796959493929190615ab1565b60405180910390a198975050505050505050565b6000546040805163d09edf3160e01b81529051612404926001600160a01b03169163d09edf319160048083019260209291908290030181865afa158015610a71573d6000803e3d6000fd5b60008054906101000a90046001600160a01b03166001600160a01b031663d09edf316040518163ffffffff1660e01b8152600401602060405180830381865afa158015612455573d6000803e3d6000fd5b505050506040513d601f19601f820116820180604052508101906124799190615643565b6040517fba66f9fc000000000000000000000000000000000000000000000000000000008152600481018490526001600160a01b038381166024830152919091169063ba66f9fc906044016115a0565b6000546040805163d09edf3160e01b81529051612514926001600160a01b03169163d09edf319160048083019260209291908290030181865afa158015610a71573d6000803e3d6000fd5b6109a781614001565b606080606061252d612041613059565b612563576040517fe4597a6b00000000000000000000000000000000000000000000000000000000815260040160405180910390fd5b6005546000808267ffffffffffffffff8111156125825761258261508e565b6040519080825280602002602001820160405280156125ab578160200160208202803683370190505b50905060008367ffffffffffffffff8111156125c9576125c961508e565b6040519080825280602002602001820160405280156125f2578160200160208202803683370190505b50905060008467ffffffffffffffff8111156126105761261061508e565b60405190808252806020026020018201604052801561268c57816020015b6126796040518060c0016040528060006001600160a01b0316815260200160006001600160a01b03168152602001600081526020016000815260200160008152602001600081525090565b81526020019060019003908161262e5790505b50905060005b8581101561286657600581815481106126ad576126ad6156fa565b60009182526020918290206040805160c081018252600690930290910180546001600160a01b03908116845260018201541693830193909352600283015490820152600382015460608201526004820154608082015260059091015460a08201528251839083908110612722576127226156fa565b60200260200101819052506000805b868110156127995783838151811061274b5761274b6156fa565b6020026020010151602001516001600160a01b0316868281518110612772576127726156fa565b60200260200101516001600160a01b0316036127915760019150612799565b600101612731565b508061285d578282815181106127b1576127b16156fa565b6020026020010151602001518587815181106127cf576127cf6156fa565b60200260200101906001600160a01b031690816001600160a01b03168152505060066000848481518110612805576128056156fa565b6020026020010151602001516001600160a01b03166001600160a01b0316815260200190815260200160002054848781518110612844576128446156fa565b60209081029190910101528561285981615a4c565b9650505b50600101612692565b5061287360056000614edc565b60008467ffffffffffffffff81111561288e5761288e61508e565b6040519080825280602002602001820160405280156128b7578160200160208202803683370190505b50905060008567ffffffffffffffff8111156128d5576128d561508e565b6040519080825280602002602001820160405280156128fe578160200160208202803683370190505b50905060005b868110156129e45785818151811061291e5761291e6156fa565b6020026020010151838281518110612938576129386156fa565b60200260200101906001600160a01b031690816001600160a01b03168152505084818151811061296a5761296a6156fa565b6020026020010151828281518110612984576129846156fa565b6020026020010181815250506129ba61299b613059565b8483815181106129ad576129ad6156fa565b60200260200101516140ea565b6129dc8382815181106129cf576129cf6156fa565b602002602001015161410f565b600101612904565b509199909850909650945050505050565b60007f351566c1ac6c6b0e5df4c16e81bc932aa8bf8cb9457b6e94847672b67f393cba612a6c60008054906101000a90046001600160a01b03166001600160a01b031663d09edf316040518163ffffffff1660e01b8152600401602060405180830381865afa158015611b01573d6000803e3d6000fd5b6001600160a01b03851630148015612a9457506008546011546001600160a01b039081169116145b15612acb576040517fafdd001600000000000000000000000000000000000000000000000000000000815260040160405180910390fd5b6015541580612adc57506015548310155b15612b13576040517fb88c02af00000000000000000000000000000000000000000000000000000000815260040160405180910390fd5b60005b601854811015612bb957600060188281548110612b3557612b356156fa565b60009182526020808320909101546001600160a01b03168083526019909152604090912054909150612b68908290614485565b6001600160a01b038116600090815260196020526040812054601a805491929091612b949084906156e7565b90915550506001600160a01b0316600090815260196020526040812055600101612b16565b50612bc660186000614efd565b612bd1878787611a8a565b60408051608081018252428152602080820197885281830196875260006060830181815285825260179092529290922090518155955160018701559351600286015592516003909401805460ff19169415159490941790935550949350505050565b6012546001600160a01b0316612c47613059565b6001600160a01b031614612c87576040517f236ef68600000000000000000000000000000000000000000000000000000000815260040160405180910390fd5b8015612eeb576000828152601760209081526040808320600290810154845260168352818420825160a081018452815481526001820154818601529181015460ff161515828401526003810180548451818702810187019095528085529294919360608601939092830182828015612d1e57602002820191906000526020600020905b815481526020019060010190808311612d0a575b5050505050815260200160048201805480602002602001604051908101604052809291908181526020018280548015612d7657602002820191906000526020600020905b815481526020019060010190808311612d62575b50505050508152505090506000805b8251811015612edc576000858152601760205260409020600101546060840151805183908110612db757612db76156fa565b602002602001015111612df45782608001518181518110612dda57612dda6156fa565b602002602001015182612ded91906157dc565b9150612ed4565b826040015115612ecf57600083608001518281518110612e1657612e166156fa565b60200260200101519050600082600014612e57576060850151612e3a6001856156e7565b81518110612e4a57612e4a6156fa565b6020026020010151612e5a565b60005b60008881526017602052604081206001015491925090612e7b9083906156e7565b905060008287606001518681518110612e9657612e966156fa565b6020026020010151612ea891906156e7565b9050612eb4818561581c565b612ebe90836157ef565b612ec890876157dc565b9550505050505b612edc565b600101612d85565b50612ee8816001613aa1565b50505b60008281526014602090815260409182902060028101548154600190920154845186151581529384015285936001600160a01b03909116927f557deaca39aedd0a84876c0dcbcb715b9b68641286033d7e79a274bdfe8d8a40910160405180910390a45050565b6000600954600003612f655750600c5490565b600c54600954600a54600d54612f79614536565b612f8391906156e7565b612f8d91906157ef565b612f9f90670de0b6b3a76400006157ef565b612fa9919061581c565b6118e491906157dc565b6001600160a01b038216600090815260106020908152604080832054600e835281842054600f909352908320549091670de0b6b3a764000091612ff690866156e7565b61300091906157ef565b61300a919061581c565b61301491906157dc565b9392505050565b60006001600160e01b031982167f548475a00000000000000000000000000000000000000000000000000000000014806109e257506109e28261454e565b6000366014613067336112c8565b80156130735750808210155b156130a35760003661308583856156e7565b613090928290615b01565b61309991615b2b565b60601c9250505090565b339250505090565b60008054906101000a90046001600160a01b03166001600160a01b031663d09edf316040518163ffffffff1660e01b8152600401602060405180830381865afa1580156130fc573d6000803e3d6000fd5b505050506040513d601f19601f820116820180604052508101906131209190615643565b6040517f91d14854000000000000000000000000000000000000000000000000000000008152600481018490526001600160a01b03838116602483015291909116906391d1485490604401602060405180830381865afa158015613188573d6000803e3d6000fd5b505050506040513d601f19601f820116820180604052508101906131ac91906157bf565b611490576040517f42abbb77000000000000000000000000000000000000000000000000000000008152600481018390526001600160a01b03821660248201526044015b60405180910390fd5b6001600160a01b038116613239576040517f0d03dd3d00000000000000000000000000000000000000000000000000000000815260040160405180910390fd5b6011805473ffffffffffffffffffffffffffffffffffffffff19166001600160a01b0392909216919091179055565b6002600754036132a4576040517f3ee5aeb500000000000000000000000000000000000000000000000000000000815260040160405180910390fd5b6002600755565b6040516001600160a01b0383811660248301526044820183905261331f91859182169063a9059cbb906064015b604051602081830303815290604052915060e01b6020820180517bffffffffffffffffffffffffffffffffffffffffffffffffffffffff838183161783525050505061458c565b505050565b806000036109a7576040517fa39a350e00000000000000000000000000000000000000000000000000000000815260040160405180910390fd5b613366612f52565b600c55613371614536565b600d556001600160a01b038116156109a75761338f81600c54612fb3565b6001600160a01b038216600090815260106020908152604080832093909355600c54600f9091529190205550565b60006133cb82600c54612fb3565b6001600160a01b038316600081815260106020908152604080832092909255815160c081019092529181529192506134fe919081016134126000546001600160a01b031690565b6001600160a01b03166304baed9e6040518163ffffffff1660e01b8152600401602060405180830381865afa15801561344f573d6000803e3d6000fd5b505050506040513d601f19601f820116820180604052508101906134739190615643565b6001600160a01b031663fc0c546a6040518163ffffffff1660e01b8152600401602060405180830381865afa1580156134b0573d6000803e3d6000fd5b505050506040513d601f19601f820116820180604052508101906134d49190615643565b6001600160a01b031681526020018381526020014281526020016000815260200142815250614608565b60008054906101000a90046001600160a01b03166001600160a01b031663f1c6bdf86040518163ffffffff1660e01b8152600401602060405180830381865afa15801561354f573d6000803e3d6000fd5b505050506040513d601f19601f820116820180604052508101906135739190615643565b6040517fe151fc610000000000000000000000000000000000000000000000000000000081523060048201526001600160a01b03919091169063e151fc6190602401600060405180830381600087803b1580156135cf57600080fd5b505af11580156135e3573d6000803e3d6000fd5b50505050816001600160a01b03167fdf29796aad820e4bb192f3a8d631b76519bcd2cbe77cc85af20e9df53cece0868260405161362291815260200190565b60405180910390a25050565b6136366147ca565b6001600160a01b038216613676576040517f7280679300000000000000000000000000000000000000000000000000000000815260040160405180910390fd5b6000805473ffffffffffffffffffffffffffffffffffffffff19166001600160a01b0384161790556136a781614831565b6136dd576040517f7511254100000000000000000000000000000000000000000000000000000000815260040160405180910390fd5b80516001908155602082015160025560408201518291906003906137019082615bb9565b50606082015160038201906137169082615bb9565b505050606081015160405161372b9190615c79565b604080519182900382208351602080860151918552840152916001600160a01b038516917feb175f148a71d29a5f7bf5439182fcd81e6ea9cfc8a11b54ab0f705fa98fa8ca91015b60405180910390a35050565b6137876147ca565b6109a781614883565b6137986147ca565b6137a1836131f9565b6137aa82614001565b61331f81613c26565b6040516001600160a01b0384811660248301528381166044830152606482018390526137ec9186918216906323b872dd906084016132d8565b50505050565b60008060009054906101000a90046001600160a01b03166001600160a01b031663d09edf316040518163ffffffff1660e01b8152600401602060405180830381865afa158015613846573d6000803e3d6000fd5b505050506040513d601f19601f8201168201806040525081019061386a9190615643565b90506000816001600160a01b03166355ff58d46040518163ffffffff1660e01b8152600401602060405180830381865afa1580156138ac573d6000803e3d6000fd5b505050506040513d601f19601f820116820180604052508101906138d09190615660565b90506000826001600160a01b031663328c4c306040518163ffffffff1660e01b8152600401602060405180830381865afa158015613912573d6000803e3d6000fd5b505050506040513d601f19601f820116820180604052508101906139369190615660565b9050826001600160a01b03166391d1485483613950613059565b6040516001600160e01b031960e085901b16815260048101929092526001600160a01b03166024820152604401602060405180830381865afa15801561399a573d6000803e3d6000fd5b505050506040513d601f19601f820116820180604052508101906139be91906157bf565b80613a4a5750826001600160a01b03166391d14854826139dc613059565b6040516001600160e01b031960e085901b16815260048101929092526001600160a01b03166024820152604401602060405180830381865afa158015613a26573d6000803e3d6000fd5b505050506040513d601f19601f82011682018060405250810190613a4a91906157bf565b15613a5457505050565b81613a5d613059565b6040517f42abbb7700000000000000000000000000000000000000000000000000000000815260048101929092526001600160a01b031660248201526044016131f0565b81613aab81613324565b8180600003613ae6576040517fe05ce79000000000000000000000000000000000000000000000000000000000815260040160405180910390fd5b613af0600061335e565b600b544210613b0b57613b03838561581c565b600a55613b44565b6000600a5442600b54613b1e91906156e7565b613b2891906157ef565b905083613b3582876157dc565b613b3f919061581c565b600a55505b600a54600003613b80576040517f76e6bcec00000000000000000000000000000000000000000000000000000000815260040160405180910390fd5b613b8a83426157dc565b600b81905542600d55600a5460408051878152602081018790529081019190915260608101919091527fe6ff9e5909ab32d770b5c8e779b77275ca8dda9d96cfb24d0287d80715dd02969060800160405180910390a150505050565b6000816000015182604001518360600151604051602001613c0993929190615c95565b604051602081830303815290604052805190602001209050919050565b8067ffffffffffffffff16600003613c6a576040517f4f0d3f4900000000000000000000000000000000000000000000000000000000815260040160405180910390fd5b6012805467ffffffffffffffff909216600160a01b027fffffffff0000000000000000ffffffffffffffffffffffffffffffffffffffff909216919091179055565b6040517fdd62ed3e0000000000000000000000000000000000000000000000000000000081523060048201526001600160a01b0383811660248301526000919085169063dd62ed3e90604401602060405180830381865afa158015613d15573d6000803e3d6000fd5b505050506040513d601f19601f82011682018060405250810190613d399190615660565b90506137ec8484613d4a85856157dc565b6148f2565b6060613d5e608083901c6149b0565b613d67836149b0565b6040805160208101939093528201526060015b6040516020818303038152906040529050919050565b6060613db16fffffffffffffffffffffffffffffffff602084901c166149b0565b613dcc8360601b6bffffffffffffffffffffffff19166149b0565b604051602001613d7a9291909182527fffffffffffffffff00000000000000000000000000000000000000000000000016602082015260280190565b606081600003613e4b57505060408051808201909152600181527f3000000000000000000000000000000000000000000000000000000000000000602082015290565b8160005b8115613e755780613e5f81615a4c565b9150613e6e9050600a8361581c565b9150613e4f565b60008167ffffffffffffffff811115613e9057613e9061508e565b6040519080825280601f01601f191660200182016040528015613eba576020820181803683370190505b509050815b8515613f5f57613ed06001826156e7565b90506000613edf600a8861581c565b613eea90600a6157ef565b613ef490886156e7565b613eff906030615cd2565b905060008160f81b905080848481518110613f1c57613f1c6156fa565b60200101907effffffffffffffffffffffffffffffffffffffffffffffffffffffffffffff1916908160001a905350613f56600a8961581c565b97505050613ebf565b50949350505050565b60008054604080517ff1c6bdf800000000000000000000000000000000000000000000000000000000815290516001600160a01b0380861693169163f1c6bdf89160048083019260209291908290030181865afa158015613fcd573d6000803e3d6000fd5b505050506040513d601f19601f82011682018060405250810190613ff19190615643565b6001600160a01b03161492915050565b6001600160a01b038116614041576040517f87a80d4400000000000000000000000000000000000000000000000000000000815260040160405180910390fd5b6012805473ffffffffffffffffffffffffffffffffffffffff19166001600160a01b038316908117909155604080517fd509b017000000000000000000000000000000000000000000000000000000008152905163d509b017916004808201926020929091908290030181865afa1580156140c0573d6000803e3d6000fd5b505050506040513d601f19601f820116820180604052508101906140e49190615660565b60135550565b6001600160a01b038116600081815260066020526040902054611490919084906148f2565b6001600160a01b0381166000818152600660205260408082205490517f70a082310000000000000000000000000000000000000000000000000000000081523060048201529092906370a0823190602401602060405180830381865afa15801561417d573d6000803e3d6000fd5b505050506040513d601f19601f820116820180604052508101906141a19190615660565b90508181101561331f5760008054906101000a90046001600160a01b03166001600160a01b03166304baed9e6040518163ffffffff1660e01b8152600401602060405180830381865afa1580156141fc573d6000803e3d6000fd5b505050506040513d601f19601f820116820180604052508101906142209190615643565b6001600160a01b031663fc0c546a6040518163ffffffff1660e01b8152600401602060405180830381865afa15801561425d573d6000803e3d6000fd5b505050506040513d601f19601f820116820180604052508101906142819190615643565b6001600160a01b0316836001600160a01b0316036144485760008054604080517f04baed9e00000000000000000000000000000000000000000000000000000000815290516001600160a01b039092169163685dc6b19183916304baed9e916004808201926020929091908290030181865afa158015614305573d6000803e3d6000fd5b505050506040513d601f19601f820116820180604052508101906143299190615643565b3061433486886156e7565b6040516001600160a01b039092166024830152604482015260640160408051601f198184030181529181526020820180517bffffffffffffffffffffffffffffffffffffffffffffffffffffffff167f759cc4b500000000000000000000000000000000000000000000000000000000179052516001600160e01b031960e085901b1681526143c7929190600401615ceb565b6000604051808303816000875af11580156143e6573d6000803e3d6000fd5b505050506040513d6000823e601f3d908101601f1916820160405261440e9190810190615d15565b509050806137ec576040517f1a299f4400000000000000000000000000000000000000000000000000000000815260040160405180910390fd5b6040517f8ca235960000000000000000000000000000000000000000000000000000000081526001600160a01b03841660048201526024016131f0565b61448e8261335e565b6001600160a01b038216600090815260106020526040902054156144b5576144b5826133bd565b6001600160a01b0382166000908152600e6020526040812080548392906144dd9084906157dc565b9250508190555080600960008282546144f691906157dc565b90915550506040518181526001600160a01b038316907f9e71bc8eea02a63969f509818f2dafb9254532904319f9dbda79b67bd34a5f3d90602001613622565b600042600b54111561454757504290565b50600b5490565b60006001600160e01b031982167f286309c70000000000000000000000000000000000000000000000000000000014806109e257506109e282614b52565b60006145a16001600160a01b03841683614bb9565b905080516000141580156145c65750808060200190518101906145c491906157bf565b155b1561331f576040517f5274afe70000000000000000000000000000000000000000000000000000000081526001600160a01b03841660048201526024016131f0565b8061461281614bc7565b81604001516006600084602001516001600160a01b03166001600160a01b03168152602001908152602001600020600082825461464f91906157dc565b909155505060058054600181018255600091909152825160069091027f036b6384b5eca791c62761152d0c79bb0604c104a5fb6f4eb0703f3154bb3db0810180546001600160a01b0393841673ffffffffffffffffffffffffffffffffffffffff19918216811790925560208601517f036b6384b5eca791c62761152d0c79bb0604c104a5fb6f4eb0703f3154bb3db18401805491909516911681179093556040808601517f036b6384b5eca791c62761152d0c79bb0604c104a5fb6f4eb0703f3154bb3db2840181905560608701517f036b6384b5eca791c62761152d0c79bb0604c104a5fb6f4eb0703f3154bb3db385015560808701517f036b6384b5eca791c62761152d0c79bb0604c104a5fb6f4eb0703f3154bb3db485015560a08701517f036b6384b5eca791c62761152d0c79bb0604c104a5fb6f4eb0703f3154bb3db5909401939093555190917f21b8b94494ef1aff6ce0f5f3741800bdb27204fd430c1280b54d4cc653ae6f3a9161377391815260200190565b7ff0c57e16840df040f15088dc2f81fe391c3923bec73e23a9662efc9c229c6a005468010000000000000000900460ff16610f27576040517fd7e6bcf800000000000000000000000000000000000000000000000000000000815260040160405180910390fd5b600081604001515160000361484857506000919050565b81606001515160000361485d57506000919050565b815115801561486e57506020820151155b1561487b57506000919050565b506001919050565b6001600160a01b0381166148c3576040517fe183dff800000000000000000000000000000000000000000000000000000000815260040160405180910390fd5b6008805473ffffffffffffffffffffffffffffffffffffffff19166001600160a01b0392909216919091179055565b604080516001600160a01b038416602482015260448082018490528251808303909101815260649091019091526020810180517bffffffffffffffffffffffffffffffffffffffffffffffffffffffff167f095ea7b3000000000000000000000000000000000000000000000000000000001790526149718482614bec565b6137ec576040516001600160a01b038481166024830152600060448301526149a691869182169063095ea7b3906064016132d8565b6137ec848261458c565b6000808260001c9050806fffffffffffffffffffffffffffffffff169050806801000000000000000002811777ffffffffffffffff0000000000000000ffffffffffffffff169050806401000000000281177bffffffff00000000ffffffff00000000ffffffff00000000ffffffff16905080620100000281177dffff0000ffff0000ffff0000ffff0000ffff0000ffff0000ffff0000ffff169050806101000281177eff00ff00ff00ff00ff00ff00ff00ff00ff00ff00ff00ff00ff00ff00ff00ff1690508060100281177f0f0f0f0f0f0f0f0f0f0f0f0f0f0f0f0f0f0f0f0f0f0f0f0f0f0f0f0f0f0f0f0f16905060006008827f08080808080808080808080808080808080808080808080808080808080808081681614ad457614ad4615806565b0460047f040404040404040404040404040404040404040404040404040404040404040484160460027f020202020202020202020202020202020202020202020202020202020202020285160417166027029091017f3030303030303030303030303030303030303030303030303030303030303030019392505050565b60006001600160e01b031982167f179dfb450000000000000000000000000000000000000000000000000000000014806109e257507f01ffc9a7000000000000000000000000000000000000000000000000000000006001600160e01b03198316146109e2565b606061301483836000614c8f565b8051614bd290614d45565b614bdf8160200151614d9a565b6109a78160400151613324565b6000806000846001600160a01b031684604051614c099190615c79565b6000604051808303816000865af19150503d8060008114614c46576040519150601f19603f3d011682016040523d82523d6000602084013e614c4b565b606091505b5091509150818015614c75575080511580614c75575080806020019051810190614c7591906157bf565b8015611a2b5750505050506001600160a01b03163b151590565b606081471015614ccd576040517fcd7860590000000000000000000000000000000000000000000000000000000081523060048201526024016131f0565b600080856001600160a01b03168486604051614ce99190615c79565b60006040518083038185875af1925050503d8060008114614d26576040519150601f19603f3d011682016040523d82523d6000602084013e614d2b565b606091505b5091509150614d3b868383614dda565b9695505050505050565b6001600160a01b0381161580614d6357506001600160a01b03811630145b156109a7576040517f0cef278700000000000000000000000000000000000000000000000000000000815260040160405180910390fd5b6001600160a01b0381166109a7576040517f9bfa9a6b00000000000000000000000000000000000000000000000000000000815260040160405180910390fd5b606082614def57614dea82614e4f565b613014565b8151158015614e0657506001600160a01b0384163b155b15614e48576040517f9996b3150000000000000000000000000000000000000000000000000000000081526001600160a01b03851660048201526024016131f0565b5080613014565b805115614e5f5780518082602001fd5b6040517f1425ea4200000000000000000000000000000000000000000000000000000000815260040160405180910390fd5b828054828255906000526020600020908101928215614ecc579160200282015b82811115614ecc578251825591602001919060010190614eb1565b50614ed8929150614f17565b5090565b50805460008255600602906000526020600020908101906109a79190614f2c565b50805460008255906000526020600020908101906109a791905b5b80821115614ed85760008155600101614f18565b5b80821115614ed857805473ffffffffffffffffffffffffffffffffffffffff199081168255600182018054909116905560006002820181905560038201819055600482018190556005820155600601614f2d565b6001600160a01b03811681146109a757600080fd5b600060208284031215614fa857600080fd5b813561301481614f81565b600060208284031215614fc557600080fd5b81356001600160e01b03198116811461301457600080fd5b600060208284031215614fef57600080fd5b5035919050565b60008083601f84011261500857600080fd5b50813567ffffffffffffffff81111561502057600080fd5b6020830191508360208260051b850101111561503b57600080fd5b9250929050565b60008060006040848603121561505757600080fd5b83359250602084013567ffffffffffffffff81111561507557600080fd5b61508186828701614ff6565b9497909650939450505050565b634e487b7160e01b600052604160045260246000fd5b6040516080810167ffffffffffffffff811182821017156150c7576150c761508e565b60405290565b604051601f8201601f1916810167ffffffffffffffff811182821017156150f6576150f661508e565b604052919050565b600067ffffffffffffffff8211156151185761511861508e565b50601f01601f191660200190565b600082601f83011261513757600080fd5b813561514a615145826150fe565b6150cd565b81815284602083860101111561515f57600080fd5b816020850160208301376000918101602001919091529392505050565b60008060006060848603121561519157600080fd5b833561519c81614f81565b9250602084013567ffffffffffffffff808211156151b957600080fd5b90850190608082880312156151cd57600080fd5b6151d56150a4565b82358152602083013560208201526040830135828111156151f557600080fd5b61520189828601615126565b60408301525060608301358281111561521957600080fd5b61522589828601615126565b6060830152509350604086013591508082111561524157600080fd5b5061524e86828701615126565b9150509250925092565b60005b8381101561527357818101518382015260200161525b565b50506000910152565b60008151808452615294816020860160208601615258565b601f01601f19169290920160200192915050565b602081526000613014602083018461527c565b60008151808452602080850194506020840160005b838110156152f55781516001600160a01b0316875295820195908201906001016152d0565b509495945050505050565b60208152600061301460208301846152bb565b6000806040838503121561532657600080fd5b50508035926020909101359150565b6000806040838503121561534857600080fd5b82359150602083013561535a81614f81565b809150509250929050565b60008151808452602080850194506020840160005b838110156152f557815180516001600160a01b03908116895284820151168489015260408082015190890152606080820151908901526080808201519089015260a0908101519088015260c0909601959082019060010161537a565b6020815260006130146020830184615365565b60008151808452602080850194506020840160005b838110156152f5578151875295820195908201906001016153fe565b6020815281516020820152602082015160408201526040820151151560608201526000606083015160a0608084015261545660c08401826153e9565b90506080840151601f198483030160a0850152611a2b82826153e9565b67ffffffffffffffff811681146109a757600080fd5b60006020828403121561549b57600080fd5b813561301481615473565b6000806000606084860312156154bb57600080fd5b833592506020840135915060408401356154d481614f81565b809150509250925092565b600080604083850312156154f257600080fd5b82356154fd81614f81565b946020939093013593505050565b80151581146109a757600080fd5b60008060008060006060868803121561553157600080fd5b853561553c8161550b565b9450602086013567ffffffffffffffff8082111561555957600080fd5b61556589838a01614ff6565b9096509450604088013591508082111561557e57600080fd5b5061558b88828901614ff6565b969995985093965092949392505050565b6060815260006155af6060830186615365565b82810360208401526155c181866152bb565b90508281036040840152614d3b81856153e9565b600080600080600060a086880312156155ed57600080fd5b8535945060208601359350604086013561560681614f81565b94979396509394606081013594506080013592915050565b6000806040838503121561563157600080fd5b82359150602083013561535a8161550b565b60006020828403121561565557600080fd5b815161301481614f81565b60006020828403121561567257600080fd5b5051919050565b83815260406020808301829052908201839052600090849060608401835b868110156156c55783356156aa81614f81565b6001600160a01b031682529282019290820190600101615697565b50979650505050505050565b634e487b7160e01b600052601160045260246000fd5b818103818111156109e2576109e26156d1565b634e487b7160e01b600052603260045260246000fd5b634e487b7160e01b600052603160045260246000fd5b6000806000806080858703121561573c57600080fd5b845161574781614f81565b602086015190945061575881614f81565b604086015190935061576981614f81565b606086015190925061577a81615473565b939692955090935050565b600181811c9082168061579957607f821691505b6020821081036157b957634e487b7160e01b600052602260045260246000fd5b50919050565b6000602082840312156157d157600080fd5b81516130148161550b565b808201808211156109e2576109e26156d1565b80820281158282048414176109e2576109e26156d1565b634e487b7160e01b600052601260045260246000fd5b60008261583957634e487b7160e01b600052601260045260246000fd5b500490565b60008151615850818560208601615258565b9290920192915050565b7f446174612061737365727465643a20307800000000000000000000000000000081526000865160206158938260118601838c01615258565b7f20666f72206461746149643a203078000000000000000000000000000000000060119285019283015287516158ce81838501848c01615258565b7f20616e642061737365727465723a203078000000000000000000000000000000920181810192909252865161590a81603185018a8501615258565b7f2061742074696d657374616d703a2000000000000000000000000000000000006031939091019283015285516159478160408501848a01615258565b7f20696e207468652044617461417373657274657220636f6e747261637420617460409390910192830152507f203078000000000000000000000000000000000000000000000000000000000060608201526159d26159a9606383018661583e565b7f2069732076616c69642e000000000000000000000000000000000000000000008152600a0190565b98975050505050505050565b60006101208083526159f28184018d61527c565b6001600160a01b039b8c166020850152998b1660408401525050958816606087015267ffffffffffffffff9490941660808601529190951660a084015260c083019490945260e08201939093526101000191909152919050565b60006000198203615a5f57615a5f6156d1565b5060010190565b81835260007f07ffffffffffffffffffffffffffffffffffffffffffffffffffffffffffffff831115615a9857600080fd5b8260051b80836020870137939093016020019392505050565b888152876020820152866040820152851515606082015260c060808201526000615adf60c083018688615a66565b82810360a0840152615af2818587615a66565b9b9a5050505050505050505050565b60008085851115615b1157600080fd5b83861115615b1e57600080fd5b5050820193919092039150565b7fffffffffffffffffffffffffffffffffffffffff0000000000000000000000008135818116916014851015611a2e5760149490940360031b84901b1690921692915050565b601f82111561331f576000816000526020600020601f850160051c81016020861015615b9a5750805b601f850160051c820191505b818110156115ce57828155600101615ba6565b815167ffffffffffffffff811115615bd357615bd361508e565b615be781615be18454615785565b84615b71565b602080601f831160018114615c1c5760008415615c045750858301515b600019600386901b1c1916600185901b1785556115ce565b600085815260208120601f198616915b82811015615c4b57888601518255948401946001909101908401615c2c565b5085821015615c695787850151600019600388901b60f8161c191681555b5050505050600190811b01905550565b60008251615c8b818460208701615258565b9190910192915050565b83815260008351615cad816020850160208801615258565b80830190508351615cc5816020840160208801615258565b0160200195945050505050565b60ff81811683821601908111156109e2576109e26156d1565b6001600160a01b0383168152604060208201526000615d0d604083018461527c565b949350505050565b60008060408385031215615d2857600080fd5b8251615d338161550b565b602084015190925067ffffffffffffffff811115615d5057600080fd5b8301601f81018513615d6157600080fd5b8051615d6f615145826150fe565b818152866020838501011115615d8457600080fd5b615d95826020830160208601615258565b809350505050925092905056fea2646970667358221220b4a47ea87a2145d0f114ef961e73851c76c449c08004c637cfe6e43a576acb9664736f6c63430008170033",
        "linkReferences": {}
    },
    "methodIdentifiers": {
        "ASSERTER_ROLE()": "bf14d4a9",
        "KPICounter()": "78802654",
        "MAX_QUEUE_LENGTH()": "6e73ba5b",
        "amountPaid(address,uint256)": "b33ec618",
        "assertDataFor(bytes32,bytes32,address)": "93ee663b",
        "assertionConfig(bytes32)": "7b9a9c7f",
        "assertionData(bytes32)": "2a4e1904",
        "assertionDisputedCallback(bytes32)": "d448a4ec",
        "assertionLiveness()": "b75d4e24",
        "assertionResolvedCallback(bytes32,bool)": "f1b156b2",
        "balanceOf(address)": "70a08231",
        "claimRewards()": "372500ab",
        "collectPaymentOrders()": "c0231ff6",
        "createKPI(bool,uint256[],uint256[])": "bc7d2a33",
        "defaultCurrency()": "20402e1d",
        "defaultIdentifier()": "d509b017",
        "depositFeeFunds(uint256)": "64e6bbe5",
        "dequeueStake()": "2979b670",
        "earned(address)": "008cc262",
        "estimateReward(uint256,uint256)": "7e5f43ff",
        "getAssertion(bytes32)": "88302884",
        "getAssertionConfig(bytes32)": "956ae17b",
        "getData(bytes32)": "54f6127f",
        "getKPI(uint256)": "772fd8da",
        "getStakingQueue()": "6315a455",
        "grantModuleRole(bytes32,address)": "6c67e807",
        "grantModuleRoleBatched(bytes32,address[])": "272bbd44",
        "identifier()": "7998a1c4",
        "init(address,(uint256,uint256,string,string),bytes)": "42dfe958",
        "isTrustedForwarder(address)": "572b6c05",
        "oo()": "8921a614",
        "orchestrator()": "b74795d9",
        "outstandingTokenAmount(address)": "2e84db5f",
        "paymentOrders()": "75fa0b76",
        "postAssertion(bytes32,bytes32,address,uint256,uint256)": "c84c84f0",
        "registryOfKPIs(uint256)": "3ecd7972",
        "revokeModuleRole(bytes32,address)": "bcb61920",
        "revokeModuleRoleBatched(bytes32,address[])": "24e30270",
        "rewardRate()": "7b0a47ee",
        "rewardsEnd()": "a6d14d69",
        "setDefaultAssertionLiveness(uint64)": "81d09517",
        "setDefaultCurrency(address)": "0f14c8cf",
        "setOptimisticOracle(address)": "bf5c3252",
        "setRewards(uint256,uint256)": "654e51e7",
        "stake(uint256)": "a694fc3a",
        "stakingQueue(uint256)": "0fe5bc3b",
        "stakingQueueAmounts(address)": "0dfc4357",
        "stakingToken()": "72f702f3",
        "supportsInterface(bytes4)": "01ffc9a7",
        "title()": "4a79d50c",
        "totalQueuedFunds()": "d701aedb",
        "totalSupply()": "18160ddd",
        "trustedForwarder()": "7da0a877",
        "unstake(uint256)": "2e17de78",
        "url()": "5600f04f",
        "version()": "54fd4d50"
    },
    "id": 146
}