{
  "abi": [
    {
      "type": "function",
      "name": "PAYMENT_PUSHER_ROLE",
      "inputs": [],
      "outputs": [
        {
          "name": "",
          "type": "bytes32",
          "internalType": "bytes32"
        }
      ],
      "stateMutability": "view"
    },
    {
      "type": "function",
      "name": "amountPaid",
      "inputs": [
        {
          "name": "token",
          "type": "address",
          "internalType": "address"
        },
        {
          "name": "amount",
          "type": "uint256",
          "internalType": "uint256"
        }
      ],
      "outputs": [],
      "stateMutability": "nonpayable"
    },
    {
      "type": "function",
      "name": "collectPaymentOrders",
      "inputs": [],
      "outputs": [
        {
          "name": "",
          "type": "tuple[]",
          "internalType": "struct IERC20PaymentClientBase_v1.PaymentOrder[]",
          "components": [
            {
              "name": "recipient",
              "type": "address",
              "internalType": "address"
            },
            {
              "name": "paymentToken",
              "type": "address",
              "internalType": "address"
            },
            {
              "name": "amount",
              "type": "uint256",
              "internalType": "uint256"
            },
            {
              "name": "start",
              "type": "uint256",
              "internalType": "uint256"
            },
            {
              "name": "cliff",
              "type": "uint256",
              "internalType": "uint256"
            },
            {
              "name": "end",
              "type": "uint256",
              "internalType": "uint256"
            }
          ]
        },
        {
          "name": "",
          "type": "address[]",
          "internalType": "address[]"
        },
        {
          "name": "",
          "type": "uint256[]",
          "internalType": "uint256[]"
        }
      ],
      "stateMutability": "nonpayable"
    },
    {
      "type": "function",
      "name": "grantModuleRole",
      "inputs": [
        {
          "name": "role",
          "type": "bytes32",
          "internalType": "bytes32"
        },
        {
          "name": "target",
          "type": "address",
          "internalType": "address"
        }
      ],
      "outputs": [],
      "stateMutability": "nonpayable"
    },
    {
      "type": "function",
      "name": "grantModuleRoleBatched",
      "inputs": [
        {
          "name": "role",
          "type": "bytes32",
          "internalType": "bytes32"
        },
        {
          "name": "targets",
          "type": "address[]",
          "internalType": "address[]"
        }
      ],
      "outputs": [],
      "stateMutability": "nonpayable"
    },
    {
      "type": "function",
      "name": "identifier",
      "inputs": [],
      "outputs": [
        {
          "name": "",
          "type": "bytes32",
          "internalType": "bytes32"
        }
      ],
      "stateMutability": "view"
    },
    {
      "type": "function",
      "name": "init",
      "inputs": [
        {
          "name": "orchestrator_",
          "type": "address",
          "internalType": "contract IOrchestrator_v1"
        },
        {
          "name": "metadata",
          "type": "tuple",
          "internalType": "struct IModule_v1.Metadata",
          "components": [
            {
              "name": "majorVersion",
              "type": "uint256",
              "internalType": "uint256"
            },
            {
              "name": "minorVersion",
              "type": "uint256",
              "internalType": "uint256"
            },
            {
              "name": "url",
              "type": "string",
              "internalType": "string"
            },
            {
              "name": "title",
              "type": "string",
              "internalType": "string"
            }
          ]
        },
        {
          "name": "",
          "type": "bytes",
          "internalType": "bytes"
        }
      ],
      "outputs": [],
      "stateMutability": "nonpayable"
    },
    {
      "type": "function",
      "name": "isTrustedForwarder",
      "inputs": [
        {
          "name": "forwarder",
          "type": "address",
          "internalType": "address"
        }
      ],
      "outputs": [
        {
          "name": "",
          "type": "bool",
          "internalType": "bool"
        }
      ],
      "stateMutability": "view"
    },
    {
      "type": "function",
      "name": "orchestrator",
      "inputs": [],
      "outputs": [
        {
          "name": "",
          "type": "address",
          "internalType": "contract IOrchestrator_v1"
        }
      ],
      "stateMutability": "view"
    },
    {
      "type": "function",
      "name": "outstandingTokenAmount",
      "inputs": [
        {
          "name": "_token",
          "type": "address",
          "internalType": "address"
        }
      ],
      "outputs": [
        {
          "name": "",
          "type": "uint256",
          "internalType": "uint256"
        }
      ],
      "stateMutability": "view"
    },
    {
      "type": "function",
      "name": "paymentOrders",
      "inputs": [],
      "outputs": [
        {
          "name": "",
          "type": "tuple[]",
          "internalType": "struct IERC20PaymentClientBase_v1.PaymentOrder[]",
          "components": [
            {
              "name": "recipient",
              "type": "address",
              "internalType": "address"
            },
            {
              "name": "paymentToken",
              "type": "address",
              "internalType": "address"
            },
            {
              "name": "amount",
              "type": "uint256",
              "internalType": "uint256"
            },
            {
              "name": "start",
              "type": "uint256",
              "internalType": "uint256"
            },
            {
              "name": "cliff",
              "type": "uint256",
              "internalType": "uint256"
            },
            {
              "name": "end",
              "type": "uint256",
              "internalType": "uint256"
            }
          ]
        }
      ],
      "stateMutability": "view"
    },
    {
      "type": "function",
      "name": "pushPayment",
      "inputs": [
        {
          "name": "recipient",
          "type": "address",
          "internalType": "address"
        },
        {
          "name": "paymentToken",
          "type": "address",
          "internalType": "address"
        },
        {
          "name": "amount",
          "type": "uint256",
          "internalType": "uint256"
        },
        {
          "name": "start",
          "type": "uint256",
          "internalType": "uint256"
        },
        {
          "name": "cliff",
          "type": "uint256",
          "internalType": "uint256"
        },
        {
          "name": "end",
          "type": "uint256",
          "internalType": "uint256"
        }
      ],
      "outputs": [],
      "stateMutability": "nonpayable"
    },
    {
      "type": "function",
      "name": "pushPaymentBatched",
      "inputs": [
        {
          "name": "numOfOrders",
          "type": "uint8",
          "internalType": "uint8"
        },
        {
          "name": "recipients",
          "type": "address[]",
          "internalType": "address[]"
        },
        {
          "name": "paymentTokens",
          "type": "address[]",
          "internalType": "address[]"
        },
        {
          "name": "amounts",
          "type": "uint256[]",
          "internalType": "uint256[]"
        },
        {
          "name": "start",
          "type": "uint256",
          "internalType": "uint256"
        },
        {
          "name": "cliff",
          "type": "uint256",
          "internalType": "uint256"
        },
        {
          "name": "end",
          "type": "uint256",
          "internalType": "uint256"
        }
      ],
      "outputs": [],
      "stateMutability": "nonpayable"
    },
    {
      "type": "function",
      "name": "revokeModuleRole",
      "inputs": [
        {
          "name": "role",
          "type": "bytes32",
          "internalType": "bytes32"
        },
        {
          "name": "target",
          "type": "address",
          "internalType": "address"
        }
      ],
      "outputs": [],
      "stateMutability": "nonpayable"
    },
    {
      "type": "function",
      "name": "revokeModuleRoleBatched",
      "inputs": [
        {
          "name": "role",
          "type": "bytes32",
          "internalType": "bytes32"
        },
        {
          "name": "targets",
          "type": "address[]",
          "internalType": "address[]"
        }
      ],
      "outputs": [],
      "stateMutability": "nonpayable"
    },
    {
      "type": "function",
      "name": "supportsInterface",
      "inputs": [
        {
          "name": "interfaceId",
          "type": "bytes4",
          "internalType": "bytes4"
        }
      ],
      "outputs": [
        {
          "name": "",
          "type": "bool",
          "internalType": "bool"
        }
      ],
      "stateMutability": "view"
    },
    {
      "type": "function",
      "name": "title",
      "inputs": [],
      "outputs": [
        {
          "name": "",
          "type": "string",
          "internalType": "string"
        }
      ],
      "stateMutability": "view"
    },
    {
      "type": "function",
      "name": "trustedForwarder",
      "inputs": [],
      "outputs": [
        {
          "name": "",
          "type": "address",
          "internalType": "address"
        }
      ],
      "stateMutability": "view"
    },
    {
      "type": "function",
      "name": "url",
      "inputs": [],
      "outputs": [
        {
          "name": "",
          "type": "string",
          "internalType": "string"
        }
      ],
      "stateMutability": "view"
    },
    {
      "type": "function",
      "name": "version",
      "inputs": [],
      "outputs": [
        {
          "name": "",
          "type": "uint256",
          "internalType": "uint256"
        },
        {
          "name": "",
          "type": "uint256",
          "internalType": "uint256"
        }
      ],
      "stateMutability": "view"
    },
    {
      "type": "event",
      "name": "Initialized",
      "inputs": [
        {
          "name": "version",
          "type": "uint64",
          "indexed": false,
          "internalType": "uint64"
        }
      ],
      "anonymous": false
    },
    {
      "type": "event",
      "name": "ModuleInitialized",
      "inputs": [
        {
          "name": "parentOrchestrator",
          "type": "address",
          "indexed": true,
          "internalType": "address"
        },
        {
          "name": "moduleTitle",
          "type": "string",
          "indexed": true,
          "internalType": "string"
        },
        {
          "name": "majorVersion",
          "type": "uint256",
          "indexed": false,
          "internalType": "uint256"
        },
        {
          "name": "minorVersion",
          "type": "uint256",
          "indexed": false,
          "internalType": "uint256"
        }
      ],
      "anonymous": false
    },
    {
      "type": "event",
      "name": "PaymentOrderAdded",
      "inputs": [
        {
          "name": "recipient",
          "type": "address",
          "indexed": true,
          "internalType": "address"
        },
        {
          "name": "token",
          "type": "address",
          "indexed": true,
          "internalType": "address"
        },
        {
          "name": "amount",
          "type": "uint256",
          "indexed": false,
          "internalType": "uint256"
        }
      ],
      "anonymous": false
    },
    {
      "type": "error",
      "name": "AddressEmptyCode",
      "inputs": [
        {
          "name": "target",
          "type": "address",
          "internalType": "address"
        }
      ]
    },
    {
      "type": "error",
      "name": "AddressInsufficientBalance",
      "inputs": [
        {
          "name": "account",
          "type": "address",
          "internalType": "address"
        }
      ]
    },
    {
      "type": "error",
      "name": "FailedInnerCall",
      "inputs": []
    },
    {
      "type": "error",
      "name": "InvalidInitialization",
      "inputs": []
    },
    {
      "type": "error",
      "name": "Module_OrchestratorCallbackFailed",
      "inputs": [
        {
          "name": "funcSig",
          "type": "string",
          "internalType": "string"
        }
      ]
    },
    {
      "type": "error",
      "name": "Module__CallerNotAuthorized",
      "inputs": [
        {
          "name": "role",
          "type": "bytes32",
          "internalType": "bytes32"
        },
        {
          "name": "caller",
          "type": "address",
          "internalType": "address"
        }
      ]
    },
    {
      "type": "error",
      "name": "Module__ERC20PaymentClientBase__ArrayLengthMismatch",
      "inputs": []
    },
    {
      "type": "error",
      "name": "Module__ERC20PaymentClientBase__CallerNotAuthorized",
      "inputs": []
    },
    {
      "type": "error",
      "name": "Module__ERC20PaymentClientBase__InsufficientFunds",
      "inputs": [
        {
          "name": "token",
          "type": "address",
          "internalType": "address"
        }
      ]
    },
    {
      "type": "error",
      "name": "Module__ERC20PaymentClientBase__InvalidAmount",
      "inputs": []
    },
    {
      "type": "error",
      "name": "Module__ERC20PaymentClientBase__InvalidRecipient",
      "inputs": []
    },
    {
      "type": "error",
      "name": "Module__ERC20PaymentClientBase__InvalidToken",
      "inputs": []
    },
    {
      "type": "error",
      "name": "Module__ERC20PaymentClientBase__Invalidend",
      "inputs": []
    },
    {
      "type": "error",
      "name": "Module__ERC20PaymentClientBase__TokenTransferFailed",
      "inputs": []
    },
    {
      "type": "error",
      "name": "Module__InvalidMetadata",
      "inputs": []
    },
    {
      "type": "error",
      "name": "Module__InvalidOrchestratorAddress",
      "inputs": []
    },
    {
      "type": "error",
      "name": "Module__OnlyCallableByOrchestrator",
      "inputs": []
    },
    {
      "type": "error",
      "name": "NotInitializing",
      "inputs": []
    },
    {
      "type": "error",
      "name": "SafeERC20FailedOperation",
      "inputs": [
        {
          "name": "token",
          "type": "address",
          "internalType": "address"
        }
      ]
    }
  ],
  "bytecode": {
    "object": "0x60a06040523480156200001157600080fd5b5060006080526200002162000027565b620000db565b7ff0c57e16840df040f15088dc2f81fe391c3923bec73e23a9662efc9c229c6a00805468010000000000000000900460ff1615620000785760405163f92ee8a960e01b815260040160405180910390fd5b80546001600160401b0390811614620000d85780546001600160401b0319166001600160401b0390811782556040519081527fc7f505b2f371ae2175ee4913f4499e1f2633a7b5936321eed1cdaeb6115181d29060200160405180910390a15b50565b6080516131dc620000f4600039600050506131dc6000f3fe608060405234801561001057600080fd5b506004361061016c5760003560e01c8063572b6c05116100cd5780638028b82f11610081578063b74795d911610066578063b74795d914610306578063bcb6192014610317578063c0231ff61461032a57600080fd5b80638028b82f146102e0578063b33ec618146102f357600080fd5b806375fa0b76116100b257806375fa0b76146102a35780637998a1c4146102b85780637da0a877146102c057600080fd5b8063572b6c051461027d5780636c67e8071461029057600080fd5b806346ebcacf1161012457806354fd4d501161010957806354fd4d501461024757806355f304c6146102625780635600f04f1461027557600080fd5b806346ebcacf1461020b5780634a79d50c1461023257600080fd5b8063272bbd4411610155578063272bbd44146101ae5780632e84db5f146101c157806342dfe958146101f857600080fd5b806301ffc9a71461017157806324e3027014610199575b600080fd5b61018461017f3660046127d9565b610341565b60405190151581526020015b60405180910390f35b6101ac6101a7366004612867565b61039d565b005b6101ac6101bc366004612867565b610555565b6101ea6101cf3660046128c8565b6001600160a01b031660009081526006602052604090205490565b604051908152602001610190565b6101ac6102063660046129d3565b610644565b6101ea7f5041594d454e545f50555348455200000000000000000000000000000000000081565b61023a61079b565b6040516101909190612aff565b60015460025460408051928352602083019190915201610190565b6101ac610270366004612b12565b610830565b61023a610b5e565b61018461028b3660046128c8565b610b70565b6101ac61029e366004612bdf565b610bf8565b6102ab610d3a565b6040516101909190612c8b565b6101ea610ddd565b6102c8610f2d565b6040516001600160a01b039091168152602001610190565b6101ac6102ee366004612c9e565b610fa5565b6101ac610301366004612cf7565b611162565b6000546001600160a01b03166102c8565b6101ac610325366004612bdf565b6111d9565b6103326112e9565b60405161019093929190612d23565b60007fffffffff0000000000000000000000000000000000000000000000000000000082167fd5dbbce90000000000000000000000000000000000000000000000000000000014806103975750610397826117c1565b92915050565b6000546040805163d09edf3160e01b8152905161047a926001600160a01b03169163d09edf319160048083019260209291908290030181865afa1580156103e8573d6000803e3d6000fd5b505050506040513d601f19601f8201168201806040525081019061040c9190612dbb565b6001600160a01b03166355ff58d46040518163ffffffff1660e01b8152600401602060405180830381865afa158015610449573d6000803e3d6000fd5b505050506040513d601f19601f8201168201806040525081019061046d9190612dd8565b610475611817565b611869565b60008054906101000a90046001600160a01b03166001600160a01b031663d09edf316040518163ffffffff1660e01b8152600401602060405180830381865afa1580156104cb573d6000803e3d6000fd5b505050506040513d601f19601f820116820180604052508101906104ef9190612dbb565b6001600160a01b0316637d540a648484846040518463ffffffff1660e01b815260040161051e93929190612df1565b600060405180830381600087803b15801561053857600080fd5b505af115801561054c573d6000803e3d6000fd5b50505050505050565b6000546040805163d09edf3160e01b815290516105a0926001600160a01b03169163d09edf319160048083019260209291908290030181865afa1580156103e8573d6000803e3d6000fd5b60008054906101000a90046001600160a01b03166001600160a01b031663d09edf316040518163ffffffff1660e01b8152600401602060405180830381865afa1580156105f1573d6000803e3d6000fd5b505050506040513d601f19601f820116820180604052508101906106159190612dbb565b6001600160a01b031663648154538484846040518463ffffffff1660e01b815260040161051e93929190612df1565b7ff0c57e16840df040f15088dc2f81fe391c3923bec73e23a9662efc9c229c6a00805468010000000000000000810460ff16159067ffffffffffffffff1660008115801561068f5750825b905060008267ffffffffffffffff1660011480156106ac5750303b155b9050811580156106ba575080155b156106f1576040517ff92ee8a900000000000000000000000000000000000000000000000000000000815260040160405180910390fd5b84547fffffffffffffffffffffffffffffffffffffffffffffffff0000000000000000166001178555831561073c57845468ff00000000000000001916680100000000000000001785555b61074688886119bb565b831561079157845468ff000000000000000019168555604051600181527fc7f505b2f371ae2175ee4913f4499e1f2633a7b5936321eed1cdaeb6115181d29060200160405180910390a15b5050505050505050565b6060600160030180546107ad90612e49565b80601f01602080910402602001604051908101604052809291908181526020018280546107d990612e49565b80156108265780601f106107fb57610100808354040283529160200191610826565b820191906000526020600020905b81548152906001019060200180831161080957829003601f168201915b5050505050905090565b7f5041594d454e545f50555348455200000000000000000000000000000000000061093160008054906101000a90046001600160a01b03166001600160a01b031663d09edf316040518163ffffffff1660e01b8152600401602060405180830381865afa1580156108a5573d6000803e3d6000fd5b505050506040513d601f19601f820116820180604052508101906108c99190612dbb565b6040517ffdd5205f000000000000000000000000000000000000000000000000000000008152306004820152602481018490526001600160a01b03919091169063fdd5205f906044016020604051808303816000875af1158015610449573d6000803e3d6000fd5b60ff8b1689141580610946575060ff8b168714155b80610954575060ff8b168514155b1561098b576040517f2133968b00000000000000000000000000000000000000000000000000000000815260040160405180910390fd5b60005b8b60ff168160ff161015610a6757610a5f6040518060c001604052808d8d8560ff168181106109bf576109bf612e83565b90506020020160208101906109d491906128c8565b6001600160a01b031681526020018b8b8560ff168181106109f7576109f7612e83565b9050602002016020810190610a0c91906128c8565b6001600160a01b0316815260200189898560ff16818110610a2f57610a2f612e83565b90506020020135815260200187600014610a495787610a4b565b425b815260200186815260200185815250611b0c565b60010161098e565b5060008054906101000a90046001600160a01b03166001600160a01b031663f1c6bdf86040518163ffffffff1660e01b8152600401602060405180830381865afa158015610ab9573d6000803e3d6000fd5b505050506040513d601f19601f82011682018060405250810190610add9190612dbb565b6040517fe151fc610000000000000000000000000000000000000000000000000000000081523060048201526001600160a01b03919091169063e151fc6190602401600060405180830381600087803b158015610b3957600080fd5b505af1158015610b4d573d6000803e3d6000fd5b505050505050505050505050505050565b6060600160020180546107ad90612e49565b600080546040517f572b6c050000000000000000000000000000000000000000000000000000000081526001600160a01b0384811660048301529091169063572b6c0590602401602060405180830381865afa158015610bd4573d6000803e3d6000fd5b505050506040513d601f19601f820116820180604052508101906103979190612eae565b6000546040805163d09edf3160e01b81529051610c43926001600160a01b03169163d09edf319160048083019260209291908290030181865afa1580156103e8573d6000803e3d6000fd5b60008054906101000a90046001600160a01b03166001600160a01b031663d09edf316040518163ffffffff1660e01b8152600401602060405180830381865afa158015610c94573d6000803e3d6000fd5b505050506040513d601f19601f82011682018060405250810190610cb89190612dbb565b6040517fe1788154000000000000000000000000000000000000000000000000000000008152600481018490526001600160a01b038381166024830152919091169063e1788154906044015b600060405180830381600087803b158015610d1e57600080fd5b505af1158015610d32573d6000803e3d6000fd5b505050505050565b60606005805480602002602001604051908101604052809291908181526020016000905b82821015610dd45760008481526020908190206040805160c0810182526006860290920180546001600160a01b0390811684526001808301549091168486015260028201549284019290925260038101546060840152600481015460808401526005015460a08301529083529092019101610d5e565b50505050905090565b60408051608081018252600180548252600254602083015260038054600094610f2894939290840191610e0f90612e49565b80601f0160208091040260200160405190810160405280929190818152602001828054610e3b90612e49565b8015610e885780601f10610e5d57610100808354040283529160200191610e88565b820191906000526020600020905b815481529060010190602001808311610e6b57829003601f168201915b50505050508152602001600382018054610ea190612e49565b80601f0160208091040260200160405190810160405280929190818152602001828054610ecd90612e49565b8015610f1a5780601f10610eef57610100808354040283529160200191610f1a565b820191906000526020600020905b815481529060010190602001808311610efd57829003601f168201915b505050505081525050611cce565b905090565b60008060009054906101000a90046001600160a01b03166001600160a01b0316637da0a8776040518163ffffffff1660e01b8152600401602060405180830381865afa158015610f81573d6000803e3d6000fd5b505050506040513d601f19601f82011682018060405250810190610f289190612dbb565b7f5041594d454e545f50555348455200000000000000000000000000000000000061101a60008054906101000a90046001600160a01b03166001600160a01b031663d09edf316040518163ffffffff1660e01b8152600401602060405180830381865afa1580156108a5573d6000803e3d6000fd5b6110706040518060c00160405280896001600160a01b03168152602001886001600160a01b031681526020018781526020018660001461105a578661105c565b425b815260200185815260200184815250611b0c565b60008054906101000a90046001600160a01b03166001600160a01b031663f1c6bdf86040518163ffffffff1660e01b8152600401602060405180830381865afa1580156110c1573d6000803e3d6000fd5b505050506040513d601f19601f820116820180604052508101906110e59190612dbb565b6040517fe151fc610000000000000000000000000000000000000000000000000000000081523060048201526001600160a01b03919091169063e151fc6190602401600060405180830381600087803b15801561114157600080fd5b505af1158015611155573d6000803e3d6000fd5b5050505050505050505050565b61117261116d611817565b611d0e565b6111a8576040517fe4597a6b00000000000000000000000000000000000000000000000000000000815260040160405180910390fd5b6001600160a01b038216600090815260066020526040812080548392906111d0908490612edf565b90915550505050565b6000546040805163d09edf3160e01b81529051611224926001600160a01b03169163d09edf319160048083019260209291908290030181865afa1580156103e8573d6000803e3d6000fd5b60008054906101000a90046001600160a01b03166001600160a01b031663d09edf316040518163ffffffff1660e01b8152600401602060405180830381865afa158015611275573d6000803e3d6000fd5b505050506040513d601f19601f820116820180604052508101906112999190612dbb565b6040517fba66f9fc000000000000000000000000000000000000000000000000000000008152600481018490526001600160a01b038381166024830152919091169063ba66f9fc90604401610d04565b60608060606112f961116d611817565b61132f576040517fe4597a6b00000000000000000000000000000000000000000000000000000000815260040160405180910390fd5b6005546000808267ffffffffffffffff81111561134e5761134e6128e5565b604051908082528060200260200182016040528015611377578160200160208202803683370190505b50905060008367ffffffffffffffff811115611395576113956128e5565b6040519080825280602002602001820160405280156113be578160200160208202803683370190505b50905060008467ffffffffffffffff8111156113dc576113dc6128e5565b60405190808252806020026020018201604052801561145857816020015b6114456040518060c0016040528060006001600160a01b0316815260200160006001600160a01b03168152602001600081526020016000815260200160008152602001600081525090565b8152602001906001900390816113fa5790505b50905060005b85811015611632576005818154811061147957611479612e83565b60009182526020918290206040805160c081018252600690930290910180546001600160a01b03908116845260018201541693830193909352600283015490820152600382015460608201526004820154608082015260059091015460a082015282518390839081106114ee576114ee612e83565b60200260200101819052506000805b868110156115655783838151811061151757611517612e83565b6020026020010151602001516001600160a01b031686828151811061153e5761153e612e83565b60200260200101516001600160a01b03160361155d5760019150611565565b6001016114fd565b50806116295782828151811061157d5761157d612e83565b60200260200101516020015185878151811061159b5761159b612e83565b60200260200101906001600160a01b031690816001600160a01b031681525050600660008484815181106115d1576115d1612e83565b6020026020010151602001516001600160a01b03166001600160a01b031681526020019081526020016000205484878151811061161057611610612e83565b60209081029190910101528561162581612ef2565b9650505b5060010161145e565b5061163f60056000612764565b60008467ffffffffffffffff81111561165a5761165a6128e5565b604051908082528060200260200182016040528015611683578160200160208202803683370190505b50905060008567ffffffffffffffff8111156116a1576116a16128e5565b6040519080825280602002602001820160405280156116ca578160200160208202803683370190505b50905060005b868110156117b0578581815181106116ea576116ea612e83565b602002602001015183828151811061170457611704612e83565b60200260200101906001600160a01b031690816001600160a01b03168152505084818151811061173657611736612e83565b602002602001015182828151811061175057611750612e83565b602002602001018181525050611786611767611817565b84838151811061177957611779612e83565b6020026020010151611da7565b6117a883828151811061179b5761179b612e83565b6020026020010151611dcc565b6001016116d0565b509199909850909650945050505050565b60007fffffffff0000000000000000000000000000000000000000000000000000000082167f286309c7000000000000000000000000000000000000000000000000000000001480610397575061039782612165565b600036601461182533610b70565b80156118315750808210155b15611861576000366118438385612edf565b61184e928290612f0c565b61185791612f36565b60601c9250505090565b339250505090565b60008054906101000a90046001600160a01b03166001600160a01b031663d09edf316040518163ffffffff1660e01b8152600401602060405180830381865afa1580156118ba573d6000803e3d6000fd5b505050506040513d601f19601f820116820180604052508101906118de9190612dbb565b6040517f91d14854000000000000000000000000000000000000000000000000000000008152600481018490526001600160a01b03838116602483015291909116906391d1485490604401602060405180830381865afa158015611946573d6000803e3d6000fd5b505050506040513d601f19601f8201168201806040525081019061196a9190612eae565b6119b7576040517f42abbb77000000000000000000000000000000000000000000000000000000008152600481018390526001600160a01b03821660248201526044015b60405180910390fd5b5050565b6119c36121fc565b6001600160a01b038216611a03576040517f7280679300000000000000000000000000000000000000000000000000000000815260040160405180910390fd5b6000805473ffffffffffffffffffffffffffffffffffffffff19166001600160a01b038416179055611a3481612265565b611a6a576040517f7511254100000000000000000000000000000000000000000000000000000000815260040160405180910390fd5b8051600190815560208201516002556040820151829190600390611a8e9082612fc6565b5060608201516003820190611aa39082612fc6565b5050506060810151604051611ab89190613086565b604080519182900382208351602080860151918552840152916001600160a01b038516917feb175f148a71d29a5f7bf5439182fcd81e6ea9cfc8a11b54ab0f705fa98fa8ca91015b60405180910390a35050565b80611b16816122b7565b81604001516006600084602001516001600160a01b03166001600160a01b031681526020019081526020016000206000828254611b5391906130a2565b909155505060058054600181018255600091909152825160069091027f036b6384b5eca791c62761152d0c79bb0604c104a5fb6f4eb0703f3154bb3db0810180546001600160a01b0393841673ffffffffffffffffffffffffffffffffffffffff19918216811790925560208601517f036b6384b5eca791c62761152d0c79bb0604c104a5fb6f4eb0703f3154bb3db18401805491909516911681179093556040808601517f036b6384b5eca791c62761152d0c79bb0604c104a5fb6f4eb0703f3154bb3db2840181905560608701517f036b6384b5eca791c62761152d0c79bb0604c104a5fb6f4eb0703f3154bb3db385015560808701517f036b6384b5eca791c62761152d0c79bb0604c104a5fb6f4eb0703f3154bb3db485015560a08701517f036b6384b5eca791c62761152d0c79bb0604c104a5fb6f4eb0703f3154bb3db5909401939093555190917f21b8b94494ef1aff6ce0f5f3741800bdb27204fd430c1280b54d4cc653ae6f3a91611b0091815260200190565b6000816000015182604001518360600151604051602001611cf1939291906130b5565b604051602081830303815290604052805190602001209050919050565b60008054604080517ff1c6bdf800000000000000000000000000000000000000000000000000000000815290516001600160a01b0380861693169163f1c6bdf89160048083019260209291908290030181865afa158015611d73573d6000803e3d6000fd5b505050506040513d601f19601f82011682018060405250810190611d979190612dbb565b6001600160a01b03161492915050565b6001600160a01b0381166000818152600660205260409020546119b7919084906122df565b6001600160a01b0381166000818152600660205260408082205490517f70a082310000000000000000000000000000000000000000000000000000000081523060048201529092906370a0823190602401602060405180830381865afa158015611e3a573d6000803e3d6000fd5b505050506040513d601f19601f82011682018060405250810190611e5e9190612dd8565b9050818110156121605760008054906101000a90046001600160a01b03166001600160a01b03166304baed9e6040518163ffffffff1660e01b8152600401602060405180830381865afa158015611eb9573d6000803e3d6000fd5b505050506040513d601f19601f82011682018060405250810190611edd9190612dbb565b6001600160a01b031663fc0c546a6040518163ffffffff1660e01b8152600401602060405180830381865afa158015611f1a573d6000803e3d6000fd5b505050506040513d601f19601f82011682018060405250810190611f3e9190612dbb565b6001600160a01b0316836001600160a01b0316036121235760008054604080517f04baed9e00000000000000000000000000000000000000000000000000000000815290516001600160a01b039092169163685dc6b19183916304baed9e916004808201926020929091908290030181865afa158015611fc2573d6000803e3d6000fd5b505050506040513d601f19601f82011682018060405250810190611fe69190612dbb565b30611ff18688612edf565b6040516001600160a01b039092166024830152604482015260640160408051601f198184030181529181526020820180517bffffffffffffffffffffffffffffffffffffffffffffffffffffffff167f759cc4b500000000000000000000000000000000000000000000000000000000179052517fffffffff0000000000000000000000000000000000000000000000000000000060e085901b16815261209c9291906004016130f2565b6000604051808303816000875af11580156120bb573d6000803e3d6000fd5b505050506040513d6000823e601f3d908101601f191682016040526120e3919081019061311c565b5090508061211d576040517f1a299f4400000000000000000000000000000000000000000000000000000000815260040160405180910390fd5b50505050565b6040517f8ca235960000000000000000000000000000000000000000000000000000000081526001600160a01b03841660048201526024016119ae565b505050565b60007fffffffff0000000000000000000000000000000000000000000000000000000082167f179dfb4500000000000000000000000000000000000000000000000000000000148061039757507f01ffc9a7000000000000000000000000000000000000000000000000000000007fffffffff00000000000000000000000000000000000000000000000000000000831614610397565b7ff0c57e16840df040f15088dc2f81fe391c3923bec73e23a9662efc9c229c6a005468010000000000000000900460ff16612263576040517fd7e6bcf800000000000000000000000000000000000000000000000000000000815260040160405180910390fd5b565b600081604001515160000361227c57506000919050565b81606001515160000361229157506000919050565b81511580156122a257506020820151155b156122af57506000919050565b506001919050565b80516122c2906123ef565b6122cf8160200151612444565b6122dc8160400151612484565b50565b604080516001600160a01b038416602482015260448082018490528251808303909101815260649091019091526020810180517bffffffffffffffffffffffffffffffffffffffffffffffffffffffff167f095ea7b30000000000000000000000000000000000000000000000000000000017905261235e84826124be565b61211d57604080516001600160a01b038516602482015260006044808301919091528251808303909101815260649091019091526020810180517bffffffffffffffffffffffffffffffffffffffffffffffffffffffff167f095ea7b3000000000000000000000000000000000000000000000000000000001790526123e5908590612566565b61211d8482612566565b6001600160a01b038116158061240d57506001600160a01b03811630145b156122dc576040517f0cef278700000000000000000000000000000000000000000000000000000000815260040160405180910390fd5b6001600160a01b0381166122dc576040517f9bfa9a6b00000000000000000000000000000000000000000000000000000000815260040160405180910390fd5b806000036122dc576040517fa39a350e00000000000000000000000000000000000000000000000000000000815260040160405180910390fd5b6000806000846001600160a01b0316846040516124db9190613086565b6000604051808303816000865af19150503d8060008114612518576040519150601f19603f3d011682016040523d82523d6000602084013e61251d565b606091505b50915091508180156125475750805115806125475750808060200190518101906125479190612eae565b801561255d57506000856001600160a01b03163b115b95945050505050565b600061257b6001600160a01b038416836125e2565b905080516000141580156125a057508080602001905181019061259e9190612eae565b155b15612160576040517f5274afe70000000000000000000000000000000000000000000000000000000081526001600160a01b03841660048201526024016119ae565b60606125f0838360006125f7565b9392505050565b606081471015612635576040517fcd7860590000000000000000000000000000000000000000000000000000000081523060048201526024016119ae565b600080856001600160a01b031684866040516126519190613086565b60006040518083038185875af1925050503d806000811461268e576040519150601f19603f3d011682016040523d82523d6000602084013e612693565b606091505b50915091506126a38683836126ad565b9695505050505050565b6060826126c2576126bd82612722565b6125f0565b81511580156126d957506001600160a01b0384163b155b1561271b576040517f9996b3150000000000000000000000000000000000000000000000000000000081526001600160a01b03851660048201526024016119ae565b50806125f0565b8051156127325780518082602001fd5b6040517f1425ea4200000000000000000000000000000000000000000000000000000000815260040160405180910390fd5b50805460008255600602906000526020600020908101906122dc91905b808211156127d557805473ffffffffffffffffffffffffffffffffffffffff199081168255600182018054909116905560006002820181905560038201819055600482018190556005820155600601612781565b5090565b6000602082840312156127eb57600080fd5b81357fffffffff00000000000000000000000000000000000000000000000000000000811681146125f057600080fd5b60008083601f84011261282d57600080fd5b50813567ffffffffffffffff81111561284557600080fd5b6020830191508360208260051b850101111561286057600080fd5b9250929050565b60008060006040848603121561287c57600080fd5b83359250602084013567ffffffffffffffff81111561289a57600080fd5b6128a68682870161281b565b9497909650939450505050565b6001600160a01b03811681146122dc57600080fd5b6000602082840312156128da57600080fd5b81356125f0816128b3565b634e487b7160e01b600052604160045260246000fd5b6040516080810167ffffffffffffffff8111828210171561291e5761291e6128e5565b60405290565b604051601f8201601f1916810167ffffffffffffffff8111828210171561294d5761294d6128e5565b604052919050565b600067ffffffffffffffff82111561296f5761296f6128e5565b50601f01601f191660200190565b600082601f83011261298e57600080fd5b81356129a161299c82612955565b612924565b8181528460208386010111156129b657600080fd5b816020850160208301376000918101602001919091529392505050565b6000806000606084860312156129e857600080fd5b83356129f3816128b3565b9250602084013567ffffffffffffffff80821115612a1057600080fd5b9085019060808288031215612a2457600080fd5b612a2c6128fb565b8235815260208301356020820152604083013582811115612a4c57600080fd5b612a588982860161297d565b604083015250606083013582811115612a7057600080fd5b612a7c8982860161297d565b60608301525093506040860135915080821115612a9857600080fd5b50612aa58682870161297d565b9150509250925092565b60005b83811015612aca578181015183820152602001612ab2565b50506000910152565b60008151808452612aeb816020860160208601612aaf565b601f01601f19169290920160200192915050565b6020815260006125f06020830184612ad3565b60008060008060008060008060008060e08b8d031215612b3157600080fd5b8a3560ff81168114612b4257600080fd5b995060208b013567ffffffffffffffff80821115612b5f57600080fd5b612b6b8e838f0161281b565b909b50995060408d0135915080821115612b8457600080fd5b612b908e838f0161281b565b909950975060608d0135915080821115612ba957600080fd5b50612bb68d828e0161281b565b9b9e9a9d50989b979a9699969760808101359760a0820135975060c09091013595509350505050565b60008060408385031215612bf257600080fd5b823591506020830135612c04816128b3565b809150509250929050565b60008151808452602080850194506020840160005b83811015612c8057815180516001600160a01b03908116895284820151168489015260408082015190890152606080820151908901526080808201519089015260a0908101519088015260c09096019590820190600101612c24565b509495945050505050565b6020815260006125f06020830184612c0f565b60008060008060008060c08789031215612cb757600080fd5b8635612cc2816128b3565b95506020870135612cd2816128b3565b95989597505050506040840135936060810135936080820135935060a0909101359150565b60008060408385031215612d0a57600080fd5b8235612d15816128b3565b946020939093013593505050565b606081526000612d366060830186612c0f565b82810360208481019190915285518083528682019282019060005b81811015612d765784516001600160a01b031683529383019391830191600101612d51565b50508481036040860152855180825290820192508186019060005b81811015612dad57825185529383019391830191600101612d91565b509298975050505050505050565b600060208284031215612dcd57600080fd5b81516125f0816128b3565b600060208284031215612dea57600080fd5b5051919050565b83815260406020808301829052908201839052600090849060608401835b86811015612e3d578335612e22816128b3565b6001600160a01b031682529282019290820190600101612e0f565b50979650505050505050565b600181811c90821680612e5d57607f821691505b602082108103612e7d57634e487b7160e01b600052602260045260246000fd5b50919050565b634e487b7160e01b600052603260045260246000fd5b80518015158114612ea957600080fd5b919050565b600060208284031215612ec057600080fd5b6125f082612e99565b634e487b7160e01b600052601160045260246000fd5b8181038181111561039757610397612ec9565b60006000198203612f0557612f05612ec9565b5060010190565b60008085851115612f1c57600080fd5b83861115612f2957600080fd5b5050820193919092039150565b7fffffffffffffffffffffffffffffffffffffffff0000000000000000000000008135818116916014851015612f765780818660140360031b1b83161692505b505092915050565b601f821115612160576000816000526020600020601f850160051c81016020861015612fa75750805b601f850160051c820191505b81811015610d3257828155600101612fb3565b815167ffffffffffffffff811115612fe057612fe06128e5565b612ff481612fee8454612e49565b84612f7e565b602080601f83116001811461302957600084156130115750858301515b600019600386901b1c1916600185901b178555610d32565b600085815260208120601f198616915b8281101561305857888601518255948401946001909101908401613039565b50858210156130765787850151600019600388901b60f8161c191681555b5050505050600190811b01905550565b60008251613098818460208701612aaf565b9190910192915050565b8082018082111561039757610397612ec9565b838152600083516130cd816020850160208801612aaf565b808301905083516130e5816020840160208801612aaf565b0160200195945050505050565b6001600160a01b03831681526040602082015260006131146040830184612ad3565b949350505050565b6000806040838503121561312f57600080fd5b61313883612e99565b9150602083015167ffffffffffffffff81111561315457600080fd5b8301601f8101851361316557600080fd5b805161317361299c82612955565b81815286602083850101111561318857600080fd5b613199826020830160208601612aaf565b809350505050925092905056fea264697066735822122036d2caab20d1e91969d8b41147ea9a76021edd73dbbabfd2fb0d0b509137521264736f6c63430008170033",
    "linkReferences": {}
  },
  "methodIdentifiers": {
    "PAYMENT_PUSHER_ROLE()": "46ebcacf",
    "amountPaid(address,uint256)": "b33ec618",
    "collectPaymentOrders()": "c0231ff6",
    "grantModuleRole(bytes32,address)": "6c67e807",
    "grantModuleRoleBatched(bytes32,address[])": "272bbd44",
    "identifier()": "7998a1c4",
    "init(address,(uint256,uint256,string,string),bytes)": "42dfe958",
    "isTrustedForwarder(address)": "572b6c05",
    "orchestrator()": "b74795d9",
    "outstandingTokenAmount(address)": "2e84db5f",
    "paymentOrders()": "75fa0b76",
    "pushPayment(address,address,uint256,uint256,uint256,uint256)": "8028b82f",
    "pushPaymentBatched(uint8,address[],address[],uint256[],uint256,uint256,uint256)": "55f304c6",
    "revokeModuleRole(bytes32,address)": "bcb61920",
    "revokeModuleRoleBatched(bytes32,address[])": "24e30270",
    "supportsInterface(bytes4)": "01ffc9a7",
    "title()": "4a79d50c",
    "trustedForwarder()": "7da0a877",
    "url()": "5600f04f",
    "version()": "54fd4d50"
  },
  "id": 147
}