{
  "abi": [
    {
      "type": "function",
      "name": "addRecurringPayment",
      "inputs": [
        {
          "name": "amount",
          "type": "uint256",
          "internalType": "uint256"
        },
        {
          "name": "startEpoch",
          "type": "uint256",
          "internalType": "uint256"
        },
        {
          "name": "recipient",
          "type": "address",
          "internalType": "address"
        }
      ],
      "outputs": [
        {
          "name": "id",
          "type": "uint256",
          "internalType": "uint256"
        }
      ],
      "stateMutability": "nonpayable"
    },
    {
      "type": "function",
      "name": "amountPaid",
      "inputs": [
        {
          "name": "amount",
          "type": "uint256",
          "internalType": "uint256"
        }
      ],
      "outputs": [],
      "stateMutability": "nonpayable"
    },
    {
      "type": "function",
      "name": "collectPaymentOrders",
      "inputs": [],
      "outputs": [
        {
          "name": "",
          "type": "tuple[]",
          "internalType": "struct IERC20PaymentClientBase_v1.PaymentOrder[]",
          "components": [
            {
              "name": "recipient",
              "type": "address",
              "internalType": "address"
            },
            {
              "name": "amount",
              "type": "uint256",
              "internalType": "uint256"
            },
            {
              "name": "createdAt",
              "type": "uint256",
              "internalType": "uint256"
            },
            {
              "name": "dueTo",
              "type": "uint256",
              "internalType": "uint256"
            }
          ]
        },
        {
          "name": "",
          "type": "uint256",
          "internalType": "uint256"
        }
      ],
      "stateMutability": "nonpayable"
    },
    {
      "type": "function",
      "name": "decoder",
      "inputs": [
        {
          "name": "data",
          "type": "bytes",
          "internalType": "bytes"
        }
      ],
      "outputs": [
        {
          "name": "requirement",
          "type": "bool",
          "internalType": "bool"
        }
      ],
      "stateMutability": "pure"
    },
    {
      "type": "function",
      "name": "getCurrentEpoch",
      "inputs": [],
      "outputs": [
        {
          "name": "epoch",
          "type": "uint256",
          "internalType": "uint256"
        }
      ],
      "stateMutability": "view"
    },
    {
      "type": "function",
      "name": "getEpochFromTimestamp",
      "inputs": [
        {
          "name": "timestamp",
          "type": "uint256",
          "internalType": "uint256"
        }
      ],
      "outputs": [
        {
          "name": "epoch",
          "type": "uint256",
          "internalType": "uint256"
        }
      ],
      "stateMutability": "view"
    },
    {
      "type": "function",
      "name": "getEpochLength",
      "inputs": [],
      "outputs": [
        {
          "name": "",
          "type": "uint256",
          "internalType": "uint256"
        }
      ],
      "stateMutability": "view"
    },
    {
      "type": "function",
      "name": "getFutureEpoch",
      "inputs": [
        {
          "name": "xEpochsInTheFuture",
          "type": "uint256",
          "internalType": "uint256"
        }
      ],
      "outputs": [
        {
          "name": "futureEpoch",
          "type": "uint256",
          "internalType": "uint256"
        }
      ],
      "stateMutability": "view"
    },
    {
      "type": "function",
      "name": "getPreviousPaymentId",
      "inputs": [
        {
          "name": "id",
          "type": "uint256",
          "internalType": "uint256"
        }
      ],
      "outputs": [
        {
          "name": "",
          "type": "uint256",
          "internalType": "uint256"
        }
      ],
      "stateMutability": "view"
    },
    {
      "type": "function",
      "name": "getRecurringPaymentInformation",
      "inputs": [
        {
          "name": "id",
          "type": "uint256",
          "internalType": "uint256"
        }
      ],
      "outputs": [
        {
          "name": "",
          "type": "tuple",
          "internalType": "struct ILM_PC_RecurringPayments_v1.RecurringPayment",
          "components": [
            {
              "name": "amount",
              "type": "uint256",
              "internalType": "uint256"
            },
            {
              "name": "startEpoch",
              "type": "uint256",
              "internalType": "uint256"
            },
            {
              "name": "lastTriggeredEpoch",
              "type": "uint256",
              "internalType": "uint256"
            },
            {
              "name": "recipient",
              "type": "address",
              "internalType": "address"
            }
          ]
        }
      ],
      "stateMutability": "view"
    },
    {
      "type": "function",
      "name": "grantModuleRole",
      "inputs": [
        {
          "name": "role",
          "type": "bytes32",
          "internalType": "bytes32"
        },
        {
          "name": "target",
          "type": "address",
          "internalType": "address"
        }
      ],
      "outputs": [],
      "stateMutability": "nonpayable"
    },
    {
      "type": "function",
      "name": "grantModuleRoleBatched",
      "inputs": [
        {
          "name": "role",
          "type": "bytes32",
          "internalType": "bytes32"
        },
        {
          "name": "targets",
          "type": "address[]",
          "internalType": "address[]"
        }
      ],
      "outputs": [],
      "stateMutability": "nonpayable"
    },
    {
      "type": "function",
      "name": "identifier",
      "inputs": [],
      "outputs": [
        {
          "name": "",
          "type": "bytes32",
          "internalType": "bytes32"
        }
      ],
      "stateMutability": "view"
    },
    {
      "type": "function",
      "name": "init",
      "inputs": [
        {
          "name": "orchestrator_",
          "type": "address",
          "internalType": "contract IOrchestrator_v1"
        },
        {
          "name": "metadata",
          "type": "tuple",
          "internalType": "struct IModule_v1.Metadata",
          "components": [
            {
              "name": "majorVersion",
              "type": "uint256",
              "internalType": "uint256"
            },
            {
              "name": "minorVersion",
              "type": "uint256",
              "internalType": "uint256"
            },
            {
              "name": "url",
              "type": "string",
              "internalType": "string"
            },
            {
              "name": "title",
              "type": "string",
              "internalType": "string"
            }
          ]
        },
        {
          "name": "configData",
          "type": "bytes",
          "internalType": "bytes"
        }
      ],
      "outputs": [],
      "stateMutability": "nonpayable"
    },
    {
      "type": "function",
      "name": "init2",
      "inputs": [
        {
          "name": "orchestrator_",
          "type": "address",
          "internalType": "contract IOrchestrator_v1"
        },
        {
          "name": "dependencyData",
          "type": "bytes",
          "internalType": "bytes"
        }
      ],
      "outputs": [],
      "stateMutability": "nonpayable"
    },
    {
      "type": "function",
      "name": "isExistingRecurringPaymentId",
      "inputs": [
        {
          "name": "id",
          "type": "uint256",
          "internalType": "uint256"
        }
      ],
      "outputs": [
        {
          "name": "",
          "type": "bool",
          "internalType": "bool"
        }
      ],
      "stateMutability": "view"
    },
    {
      "type": "function",
      "name": "isTrustedForwarder",
      "inputs": [
        {
          "name": "forwarder",
          "type": "address",
          "internalType": "address"
        }
      ],
      "outputs": [
        {
          "name": "",
          "type": "bool",
          "internalType": "bool"
        }
      ],
      "stateMutability": "view"
    },
    {
      "type": "function",
      "name": "listRecurringPaymentIds",
      "inputs": [],
      "outputs": [
        {
          "name": "",
          "type": "uint256[]",
          "internalType": "uint256[]"
        }
      ],
      "stateMutability": "view"
    },
    {
      "type": "function",
      "name": "orchestrator",
      "inputs": [],
      "outputs": [
        {
          "name": "",
          "type": "address",
          "internalType": "contract IOrchestrator_v1"
        }
      ],
      "stateMutability": "view"
    },
    {
      "type": "function",
      "name": "outstandingTokenAmount",
      "inputs": [],
      "outputs": [
        {
          "name": "",
          "type": "uint256",
          "internalType": "uint256"
        }
      ],
      "stateMutability": "view"
    },
    {
      "type": "function",
      "name": "paymentOrders",
      "inputs": [],
      "outputs": [
        {
          "name": "",
          "type": "tuple[]",
          "internalType": "struct IERC20PaymentClientBase_v1.PaymentOrder[]",
          "components": [
            {
              "name": "recipient",
              "type": "address",
              "internalType": "address"
            },
            {
              "name": "amount",
              "type": "uint256",
              "internalType": "uint256"
            },
            {
              "name": "createdAt",
              "type": "uint256",
              "internalType": "uint256"
            },
            {
              "name": "dueTo",
              "type": "uint256",
              "internalType": "uint256"
            }
          ]
        }
      ],
      "stateMutability": "view"
    },
    {
      "type": "function",
      "name": "removeRecurringPayment",
      "inputs": [
        {
          "name": "prevId",
          "type": "uint256",
          "internalType": "uint256"
        },
        {
          "name": "id",
          "type": "uint256",
          "internalType": "uint256"
        }
      ],
      "outputs": [],
      "stateMutability": "nonpayable"
    },
    {
      "type": "function",
      "name": "revokeModuleRole",
      "inputs": [
        {
          "name": "role",
          "type": "bytes32",
          "internalType": "bytes32"
        },
        {
          "name": "target",
          "type": "address",
          "internalType": "address"
        }
      ],
      "outputs": [],
      "stateMutability": "nonpayable"
    },
    {
      "type": "function",
      "name": "revokeModuleRoleBatched",
      "inputs": [
        {
          "name": "role",
          "type": "bytes32",
          "internalType": "bytes32"
        },
        {
          "name": "targets",
          "type": "address[]",
          "internalType": "address[]"
        }
      ],
      "outputs": [],
      "stateMutability": "nonpayable"
    },
    {
      "type": "function",
      "name": "supportsInterface",
      "inputs": [
        {
          "name": "interfaceId",
          "type": "bytes4",
          "internalType": "bytes4"
        }
      ],
      "outputs": [
        {
          "name": "",
          "type": "bool",
          "internalType": "bool"
        }
      ],
      "stateMutability": "view"
    },
    {
      "type": "function",
      "name": "title",
      "inputs": [],
      "outputs": [
        {
          "name": "",
          "type": "string",
          "internalType": "string"
        }
      ],
      "stateMutability": "view"
    },
    {
      "type": "function",
      "name": "trigger",
      "inputs": [],
      "outputs": [],
      "stateMutability": "nonpayable"
    },
    {
      "type": "function",
      "name": "triggerFor",
      "inputs": [
        {
          "name": "startId",
          "type": "uint256",
          "internalType": "uint256"
        },
        {
          "name": "endId",
          "type": "uint256",
          "internalType": "uint256"
        }
      ],
      "outputs": [],
      "stateMutability": "nonpayable"
    },
    {
      "type": "function",
      "name": "trustedForwarder",
      "inputs": [],
      "outputs": [
        {
          "name": "",
          "type": "address",
          "internalType": "address"
        }
      ],
      "stateMutability": "view"
    },
    {
      "type": "function",
      "name": "url",
      "inputs": [],
      "outputs": [
        {
          "name": "",
          "type": "string",
          "internalType": "string"
        }
      ],
      "stateMutability": "view"
    },
    {
      "type": "function",
      "name": "version",
      "inputs": [],
      "outputs": [
        {
          "name": "",
          "type": "uint256",
          "internalType": "uint256"
        },
        {
          "name": "",
          "type": "uint256",
          "internalType": "uint256"
        }
      ],
      "stateMutability": "view"
    },
    {
      "type": "event",
      "name": "Initialized",
      "inputs": [
        {
          "name": "version",
          "type": "uint64",
          "indexed": false,
          "internalType": "uint64"
        }
      ],
      "anonymous": false
    },
    {
      "type": "event",
      "name": "ModuleInitialized",
      "inputs": [
        {
          "name": "parentOrchestrator",
          "type": "address",
          "indexed": true,
          "internalType": "address"
        },
        {
          "name": "moduleTitle",
          "type": "string",
          "indexed": true,
          "internalType": "string"
        },
        {
          "name": "majorVersion",
          "type": "uint256",
          "indexed": false,
          "internalType": "uint256"
        },
        {
          "name": "minorVersion",
          "type": "uint256",
          "indexed": false,
          "internalType": "uint256"
        }
      ],
      "anonymous": false
    },
    {
      "type": "event",
      "name": "PaymentOrderAdded",
      "inputs": [
        {
          "name": "recipient",
          "type": "address",
          "indexed": true,
          "internalType": "address"
        },
        {
          "name": "amount",
          "type": "uint256",
          "indexed": false,
          "internalType": "uint256"
        }
      ],
      "anonymous": false
    },
    {
      "type": "event",
      "name": "RecurringPaymentAdded",
      "inputs": [
        {
          "name": "recurringPaymentId",
          "type": "uint256",
          "indexed": true,
          "internalType": "uint256"
        },
        {
          "name": "amount",
          "type": "uint256",
          "indexed": false,
          "internalType": "uint256"
        },
        {
          "name": "startEpoch",
          "type": "uint256",
          "indexed": false,
          "internalType": "uint256"
        },
        {
          "name": "lastTriggeredEpoch",
          "type": "uint256",
          "indexed": false,
          "internalType": "uint256"
        },
        {
          "name": "recipient",
          "type": "address",
          "indexed": false,
          "internalType": "address"
        }
      ],
      "anonymous": false
    },
    {
      "type": "event",
      "name": "RecurringPaymentRemoved",
      "inputs": [
        {
          "name": "recurringPaymentId",
          "type": "uint256",
          "indexed": true,
          "internalType": "uint256"
        }
      ],
      "anonymous": false
    },
    {
      "type": "event",
      "name": "RecurringPaymentsTriggered",
      "inputs": [
        {
          "name": "currentEpoch",
          "type": "uint256",
          "indexed": true,
          "internalType": "uint256"
        }
      ],
      "anonymous": false
    },
    {
      "type": "error",
      "name": "AddressEmptyCode",
      "inputs": [
        {
          "name": "target",
          "type": "address",
          "internalType": "address"
        }
      ]
    },
    {
      "type": "error",
      "name": "AddressInsufficientBalance",
      "inputs": [
        {
          "name": "account",
          "type": "address",
          "internalType": "address"
        }
      ]
    },
    {
      "type": "error",
      "name": "FailedInnerCall",
      "inputs": []
    },
    {
      "type": "error",
      "name": "InvalidInitialization",
      "inputs": []
    },
    {
      "type": "error",
      "name": "Library__LinkedIdList__IdNotConsecutive",
      "inputs": []
    },
    {
      "type": "error",
      "name": "Library__LinkedIdList__InvalidId",
      "inputs": []
    },
    {
      "type": "error",
      "name": "Library__LinkedIdList__InvalidNewId",
      "inputs": []
    },
    {
      "type": "error",
      "name": "Library__LinkedIdList__InvalidPosition",
      "inputs": []
    },
    {
      "type": "error",
      "name": "Module_OrchestratorCallbackFailed",
      "inputs": [
        {
          "name": "funcSig",
          "type": "string",
          "internalType": "string"
        }
      ]
    },
    {
      "type": "error",
      "name": "Module__CallerNotAuthorized",
      "inputs": [
        {
          "name": "role",
          "type": "bytes32",
          "internalType": "bytes32"
        },
        {
          "name": "caller",
          "type": "address",
          "internalType": "address"
        }
      ]
    },
    {
      "type": "error",
      "name": "Module__CannotCallInit2Again",
      "inputs": []
    },
    {
      "type": "error",
      "name": "Module__ERC20PaymentClientBase__ArrayLengthMismatch",
      "inputs": []
    },
    {
      "type": "error",
      "name": "Module__ERC20PaymentClientBase__CallerNotAuthorized",
      "inputs": []
    },
    {
      "type": "error",
      "name": "Module__ERC20PaymentClientBase__InvalidAmount",
      "inputs": []
    },
    {
      "type": "error",
      "name": "Module__ERC20PaymentClientBase__InvalidDueTo",
      "inputs": []
    },
    {
      "type": "error",
      "name": "Module__ERC20PaymentClientBase__InvalidRecipient",
      "inputs": []
    },
    {
      "type": "error",
      "name": "Module__ERC20PaymentClientBase__TokenTransferFailed",
      "inputs": []
    },
    {
      "type": "error",
      "name": "Module__InvalidMetadata",
      "inputs": []
    },
    {
      "type": "error",
      "name": "Module__InvalidOrchestratorAddress",
      "inputs": []
    },
    {
      "type": "error",
      "name": "Module__LM_PC_RecurringPayments__InvalidEpochLength",
      "inputs": []
    },
    {
      "type": "error",
      "name": "Module__LM_PC_RecurringPayments__InvalidRecurringPaymentId",
      "inputs": []
    },
    {
      "type": "error",
      "name": "Module__LM_PC_RecurringPayments__InvalidStartEpoch",
      "inputs": []
    },
    {
      "type": "error",
      "name": "Module__LM_PC_RecurringPayments__StartIdNotBeforeEndId",
      "inputs": []
    },
    {
      "type": "error",
      "name": "Module__NoDependencyOrMalformedDependencyData",
      "inputs": []
    },
    {
      "type": "error",
      "name": "Module__OnlyCallableByOrchestrator",
      "inputs": []
    },
    {
      "type": "error",
      "name": "NotInitializing",
      "inputs": []
    },
    {
      "type": "error",
      "name": "SafeERC20FailedOperation",
      "inputs": [
        {
          "name": "token",
          "type": "address",
          "internalType": "address"
        }
      ]
    }
  ],
  "bytecode": {
    "object": "0x60a06040523480156200001157600080fd5b5060006080526200002162000027565b620000db565b7ff0c57e16840df040f15088dc2f81fe391c3923bec73e23a9662efc9c229c6a00805468010000000000000000900460ff1615620000785760405163f92ee8a960e01b815260040160405180910390fd5b80546001600160401b0390811614620000d85780546001600160401b0319166001600160401b0390811782556040519081527fc7f505b2f371ae2175ee4913f4499e1f2633a7b5936321eed1cdaeb6115181d29060200160405180910390a15b50565b6080516141d6620000f4600039600050506141d66000f3fe608060405234801561001057600080fd5b50600436106101e55760003560e01c806375fa0b761161010f578063b74795d9116100a2578063c42542e311610071578063c42542e3146103fa578063c7829b6f14610449578063c83e63621461045c578063cfe8a73b1461046f57600080fd5b8063b74795d9146103b3578063b97dd9e2146103c9578063bcb61920146103d1578063c0231ff6146103e457600080fd5b80638008dd8e116100de5780638008dd8e146103725780639bfdf766146103855780639e97857514610398578063a44a6bb2146103ab57600080fd5b806375fa0b761461032d5780637998a1c4146103425780637da0a8771461034a5780637fec8d381461036a57600080fd5b80634a79d50c11610187578063572b6c0511610156578063572b6c05146102e157806362fe48fd146102f4578063648bc2cd146103075780636c67e8071461031a57600080fd5b80634a79d50c1461029657806350287478146102ab57806354fd4d50146102be5780635600f04f146102d957600080fd5b806324e30270116101c357806324e302701461023c578063272bbd441461024f578063274b903a1461026257806342dfe9581461028357600080fd5b806301ffc9a7146101ea57806313e64063146102125780631bf3bfe814610227575b600080fd5b6101fd6101f83660046136e4565b610477565b60405190151581526020015b60405180910390f35b610225610220366004613726565b6104d3565b005b61022f610533565b604051610209919061373f565b61022561024a366004613783565b610544565b61022561025d366004613783565b610816565b610275610270366004613726565b610a65565b604051908152602001610209565b61022561029136600461391e565b610a7a565b61029e610c96565b6040516102099190613a4a565b6102756102b9366004613726565b610d2b565b60015460025460408051928352602083019190915201610209565b61029e610d38565b6101fd6102ef366004613a5d565b610d4a565b6101fd610302366004613726565b610dd8565b610225610315366004613a7a565b610de5565b610225610328366004613a9c565b610ebd565b610335611147565b6040516102099190613b31565b6102756111d1565b61035261131c565b6040516001600160a01b039091168152602001610209565b610225611394565b610275610380366004613b44565b6113ae565b610225610393366004613b7d565b61179c565b6101fd6103a6366004613bcd565b611849565b600654610275565b60005461010090046001600160a01b0316610352565b610275611866565b6102256103df366004613a9c565b611876565b6103ec611acb565b604051610209929190613c0a565b61040d610408366004613726565b611c89565b60405161020991908151815260208083015190820152604080830151908201526060918201516001600160a01b03169181019190915260800190565b610225610457366004613a7a565b611d50565b61027561046a366004613726565b61206e565b600854610275565b60007fffffffff0000000000000000000000000000000000000000000000000000000082167f280d451b0000000000000000000000000000000000000000000000000000000014806104cd57506104cd8261207e565b92915050565b6104e36104de6120d4565b612126565b610519576040517fe4597a6b00000000000000000000000000000000000000000000000000000000815260040160405180910390fd5b806006600082825461052b9190613c5b565b909155505050565b606061053f600a6121b9565b905090565b60008060019054906101000a90046001600160a01b03166001600160a01b031663d09edf316040518163ffffffff1660e01b8152600401602060405180830381865afa158015610598573d6000803e3d6000fd5b505050506040513d601f19601f820116820180604052508101906105bc9190613c6e565b90506000816001600160a01b03166355ff58d46040518163ffffffff1660e01b8152600401602060405180830381865afa1580156105fe573d6000803e3d6000fd5b505050506040513d601f19601f820116820180604052508101906106229190613c8b565b9050816001600160a01b03166391d148548261063c6120d4565b6040517fffffffff0000000000000000000000000000000000000000000000000000000060e085901b16815260048101929092526001600160a01b03166024820152604401602060405180830381865afa15801561069e573d6000803e3d6000fd5b505050506040513d601f19601f820116820180604052508101906106c29190613cb4565b61071857806106cf6120d4565b6040517f42abbb7700000000000000000000000000000000000000000000000000000000815260048101929092526001600160a01b031660248201526044015b60405180910390fd5b60008060019054906101000a90046001600160a01b03166001600160a01b031663d09edf316040518163ffffffff1660e01b8152600401602060405180830381865afa15801561076c573d6000803e3d6000fd5b505050506040513d601f19601f820116820180604052508101906107909190613c6e565b6040517f7d540a640000000000000000000000000000000000000000000000000000000081529091506001600160a01b03821690637d540a64906107dc90899089908990600401613ccf565b600060405180830381600087803b1580156107f657600080fd5b505af115801561080a573d6000803e3d6000fd5b50505050505050505050565b60008060019054906101000a90046001600160a01b03166001600160a01b031663d09edf316040518163ffffffff1660e01b8152600401602060405180830381865afa15801561086a573d6000803e3d6000fd5b505050506040513d601f19601f8201168201806040525081019061088e9190613c6e565b90506000816001600160a01b03166355ff58d46040518163ffffffff1660e01b8152600401602060405180830381865afa1580156108d0573d6000803e3d6000fd5b505050506040513d601f19601f820116820180604052508101906108f49190613c8b565b9050816001600160a01b03166391d148548261090e6120d4565b6040517fffffffff0000000000000000000000000000000000000000000000000000000060e085901b16815260048101929092526001600160a01b03166024820152604401602060405180830381865afa158015610970573d6000803e3d6000fd5b505050506040513d601f19601f820116820180604052508101906109949190613cb4565b6109a157806106cf6120d4565b60008060019054906101000a90046001600160a01b03166001600160a01b031663d09edf316040518163ffffffff1660e01b8152600401602060405180830381865afa1580156109f5573d6000803e3d6000fd5b505050506040513d601f19601f82011682018060405250810190610a199190613c6e565b6040517f648154530000000000000000000000000000000000000000000000000000000081529091506001600160a01b038216906364815453906107dc90899089908990600401613ccf565b600081610a70611866565b6104cd9190613d27565b7ff0c57e16840df040f15088dc2f81fe391c3923bec73e23a9662efc9c229c6a00805468010000000000000000810460ff16159067ffffffffffffffff16600081158015610ac55750825b905060008267ffffffffffffffff166001148015610ae25750303b155b905081158015610af0575080155b15610b27576040517ff92ee8a900000000000000000000000000000000000000000000000000000000815260040160405180910390fd5b84547fffffffffffffffffffffffffffffffffffffffffffffffff00000000000000001660011785558315610b885784547fffffffffffffffffffffffffffffffffffffffffffffff00ffffffffffffffff16680100000000000000001785555b610b928888612273565b6000196000819052600c6020527fa10f30cc98fff5708c93df4a220b8f117034e197ce203f377237571fbe641ae7819055600b5585806020019051810190610bda9190613c8b565b600881905562093a801180610bf457506301dfe200600854115b15610c2b576040517f7d65a31300000000000000000000000000000000000000000000000000000000815260040160405180910390fd5b8315610c8c5784547fffffffffffffffffffffffffffffffffffffffffffffff00ffffffffffffffff168555604051600181527fc7f505b2f371ae2175ee4913f4499e1f2633a7b5936321eed1cdaeb6115181d29060200160405180910390a15b5050505050505050565b606060016003018054610ca890613d3a565b80601f0160208091040260200160405190810160405280929190818152602001828054610cd490613d3a565b8015610d215780601f10610cf657610100808354040283529160200191610d21565b820191906000526020600020905b815481529060010190602001808311610d0457829003601f168201915b5050505050905090565b60006104cd600a836123d2565b606060016002018054610ca890613d3a565b600080546040517f572b6c050000000000000000000000000000000000000000000000000000000081526001600160a01b0384811660048301526101009092049091169063572b6c0590602401602060405180830381865afa158015610db4573d6000803e3d6000fd5b505050506040513d601f19601f820116820180604052508101906104cd9190613cb4565b60006104cd600a836124c2565b81610def81610dd8565b610e25576040517f66f62b2300000000000000000000000000000000000000000000000000000000815260040160405180910390fd5b81610e2f81610dd8565b610e65576040517f66f62b2300000000000000000000000000000000000000000000000000000000815260040160405180910390fd5b838380821115610ea1576040517fb02d7cbb00000000000000000000000000000000000000000000000000000000815260040160405180910390fd5b610eb586610eb0600a886124ea565b612550565b505050505050565b60008060019054906101000a90046001600160a01b03166001600160a01b031663d09edf316040518163ffffffff1660e01b8152600401602060405180830381865afa158015610f11573d6000803e3d6000fd5b505050506040513d601f19601f82011682018060405250810190610f359190613c6e565b90506000816001600160a01b03166355ff58d46040518163ffffffff1660e01b8152600401602060405180830381865afa158015610f77573d6000803e3d6000fd5b505050506040513d601f19601f82011682018060405250810190610f9b9190613c8b565b9050816001600160a01b03166391d1485482610fb56120d4565b6040517fffffffff0000000000000000000000000000000000000000000000000000000060e085901b16815260048101929092526001600160a01b03166024820152604401602060405180830381865afa158015611017573d6000803e3d6000fd5b505050506040513d601f19601f8201168201806040525081019061103b9190613cb4565b61104857806106cf6120d4565b60008060019054906101000a90046001600160a01b03166001600160a01b031663d09edf316040518163ffffffff1660e01b8152600401602060405180830381865afa15801561109c573d6000803e3d6000fd5b505050506040513d601f19601f820116820180604052508101906110c09190613c6e565b6040517fe1788154000000000000000000000000000000000000000000000000000000008152600481018790526001600160a01b0386811660248301529192509082169063e1788154906044015b600060405180830381600087803b15801561112857600080fd5b505af115801561113c573d6000803e3d6000fd5b505050505050505050565b60606005805480602002602001604051908101604052809291908181526020016000905b828210156111c8576000848152602090819020604080516080810182526004860290920180546001600160a01b0316835260018082015484860152600282015492840192909252600301546060830152908352909201910161116b565b50505050905090565b6040805160808101825260018054825260025460208301526003805460009461053f9493929084019161120390613d3a565b80601f016020809104026020016040519081016040528092919081815260200182805461122f90613d3a565b801561127c5780601f106112515761010080835404028352916020019161127c565b820191906000526020600020905b81548152906001019060200180831161125f57829003601f168201915b5050505050815260200160038201805461129590613d3a565b80601f01602080910402602001604051908101604052809291908181526020018280546112c190613d3a565b801561130e5780601f106112e35761010080835404028352916020019161130e565b820191906000526020600020905b8154815290600101906020018083116112f157829003601f168201915b5050505050815250506127c4565b60008060019054906101000a90046001600160a01b03166001600160a01b0316637da0a8776040518163ffffffff1660e01b8152600401602060405180830381865afa158015611370573d6000803e3d6000fd5b505050506040513d601f19601f8201168201806040525081019061053f9190613c6e565b6113ac6113a4600a6000196124ea565b600019612550565b565b600080600060019054906101000a90046001600160a01b03166001600160a01b031663d09edf316040518163ffffffff1660e01b8152600401602060405180830381865afa158015611404573d6000803e3d6000fd5b505050506040513d601f19601f820116820180604052508101906114289190613c6e565b90506000816001600160a01b03166355ff58d46040518163ffffffff1660e01b8152600401602060405180830381865afa15801561146a573d6000803e3d6000fd5b505050506040513d601f19601f8201168201806040525081019061148e9190613c8b565b90506000826001600160a01b031663328c4c306040518163ffffffff1660e01b8152600401602060405180830381865afa1580156114d0573d6000803e3d6000fd5b505050506040513d601f19601f820116820180604052508101906114f49190613c8b565b9050826001600160a01b03166391d148548361150e6120d4565b6040517fffffffff0000000000000000000000000000000000000000000000000000000060e085901b16815260048101929092526001600160a01b03166024820152604401602060405180830381865afa158015611570573d6000803e3d6000fd5b505050506040513d601f19601f820116820180604052508101906115949190613cb4565b806116385750826001600160a01b03166391d14854826115b26120d4565b6040517fffffffff0000000000000000000000000000000000000000000000000000000060e085901b16815260048101929092526001600160a01b03166024820152604401602060405180830381865afa158015611614573d6000803e3d6000fd5b505050506040513d601f19601f820116820180604052508101906116389190613cb4565b15611789578661164781612804565b8680611651611866565b1115611689576040517fb941b52000000000000000000000000000000000000000000000000000000000815260040160405180910390fd5b8661169381612841565b60006007600081546116a490613d87565b918290555090506116b6600a82612896565b60008181526009602052604090208b815560019081018b90556116d9908b613c5b565b6000828152600960205260409020600281019190915560030180547fffffffffffffffffffffffff0000000000000000000000000000000000000000166001600160a01b038b16179055807f1c3e2cbb4bc61dfafd6e9635e41a29611c202472f2c4252180bc2aacfb5dcb2c8c8c611752600182613c5b565b604080519384526020840192909252908201526001600160a01b038c16606082015260800160405180910390a29650505050611792565b816106cf6120d4565b5050509392505050565b60005460ff16156117d9576040517f904875a100000000000000000000000000000000000000000000000000000000815260040160405180910390fd5b600080547fffffffffffffffffffffffffffffffffffffffffffffffffffffffffffffff001660011790558061180e81612923565b611844576040517feef043ae00000000000000000000000000000000000000000000000000000000815260040160405180910390fd5b505050565b60008180602001905181019061185f9190613dd1565b5092915050565b60006008544261053f9190613ebd565b60008060019054906101000a90046001600160a01b03166001600160a01b031663d09edf316040518163ffffffff1660e01b8152600401602060405180830381865afa1580156118ca573d6000803e3d6000fd5b505050506040513d601f19601f820116820180604052508101906118ee9190613c6e565b90506000816001600160a01b03166355ff58d46040518163ffffffff1660e01b8152600401602060405180830381865afa158015611930573d6000803e3d6000fd5b505050506040513d601f19601f820116820180604052508101906119549190613c8b565b9050816001600160a01b03166391d148548261196e6120d4565b6040517fffffffff0000000000000000000000000000000000000000000000000000000060e085901b16815260048101929092526001600160a01b03166024820152604401602060405180830381865afa1580156119d0573d6000803e3d6000fd5b505050506040513d601f19601f820116820180604052508101906119f49190613cb4565b611a0157806106cf6120d4565b60008060019054906101000a90046001600160a01b03166001600160a01b031663d09edf316040518163ffffffff1660e01b8152600401602060405180830381865afa158015611a55573d6000803e3d6000fd5b505050506040513d601f19601f82011682018060405250810190611a799190613c6e565b6040517fba66f9fc000000000000000000000000000000000000000000000000000000008152600481018790526001600160a01b0386811660248301529192509082169063ba66f9fc9060440161110e565b60606000611ada6104de6120d4565b611b10576040517fe4597a6b00000000000000000000000000000000000000000000000000000000815260040160405180910390fd5b600554600090818167ffffffffffffffff811115611b3057611b30613817565b604051908082528060200260200182016040528015611b9557816020015b611b82604051806080016040528060006001600160a01b031681526020016000815260200160008152602001600081525090565b815260200190600190039081611b4e5790505b50905060005b82811015611c525760058181548110611bb657611bb6613ef8565b600091825260209182902060408051608081018252600490930290910180546001600160a01b0316835260018101549383019390935260028301549082015260039091015460608201528251839083908110611c1457611c14613ef8565b6020026020010181905250818181518110611c3157611c31613ef8565b60200260200101516020015184611c489190613d27565b9350600101611b9b565b50611c5f60056000613678565b611c70611c6a6120d4565b84612a29565b611c7b600654612b1a565b600654909590945092505050565b611cbd604051806080016040528060008152602001600081526020016000815260200160006001600160a01b031681525090565b81611cc781610dd8565b611cfd576040517f66f62b2300000000000000000000000000000000000000000000000000000000815260040160405180910390fd5b6000838152600960209081526040918290208251608081018452815481526001820154928101929092526002810154928201929092526003909101546001600160a01b0316606082015291505b50919050565b60008060019054906101000a90046001600160a01b03166001600160a01b031663d09edf316040518163ffffffff1660e01b8152600401602060405180830381865afa158015611da4573d6000803e3d6000fd5b505050506040513d601f19601f82011682018060405250810190611dc89190613c6e565b90506000816001600160a01b03166355ff58d46040518163ffffffff1660e01b8152600401602060405180830381865afa158015611e0a573d6000803e3d6000fd5b505050506040513d601f19601f82011682018060405250810190611e2e9190613c8b565b90506000826001600160a01b031663328c4c306040518163ffffffff1660e01b8152600401602060405180830381865afa158015611e70573d6000803e3d6000fd5b505050506040513d601f19601f82011682018060405250810190611e949190613c8b565b9050826001600160a01b03166391d1485483611eae6120d4565b6040517fffffffff0000000000000000000000000000000000000000000000000000000060e085901b16815260048101929092526001600160a01b03166024820152604401602060405180830381865afa158015611f10573d6000803e3d6000fd5b505050506040513d601f19601f82011682018060405250810190611f349190613cb4565b80611fd85750826001600160a01b03166391d1485482611f526120d4565b6040517fffffffff0000000000000000000000000000000000000000000000000000000060e085901b16815260048101929092526001600160a01b03166024820152604401602060405180830381865afa158015611fb4573d6000803e3d6000fd5b505050506040513d601f19601f82011682018060405250810190611fd89190613cb4565b1561178957611fec84610eb0600a826124ea565b611ff8600a8686612e4b565b600084815260096020526040808220828155600181018390556002810183905560030180547fffffffffffffffffffffffff00000000000000000000000000000000000000001690555185917f49dd16c810a73510f0cdd59f21ce525b27c468a7f759207177bc9a1e4820266691a25050505050565b6000600854826104cd9190613ebd565b60007fffffffff0000000000000000000000000000000000000000000000000000000082167f02753f510000000000000000000000000000000000000000000000000000000014806104cd57506104cd82612f2c565b60003660146120e233610d4a565b80156120ee5750808210155b1561211e576000366121008385613c5b565b61210b928290613f27565b61211491613f51565b60601c9250505090565b339250505090565b6000816001600160a01b0316600060019054906101000a90046001600160a01b03166001600160a01b031663f1c6bdf86040518163ffffffff1660e01b8152600401602060405180830381865afa158015612185573d6000803e3d6000fd5b505050506040513d601f19601f820116820180604052508101906121a99190613c6e565b6001600160a01b03161492915050565b60606000826000015467ffffffffffffffff8111156121da576121da613817565b604051908082528060200260200182016040528015612203578160200160208202803683370190505b506000196000908152600285016020526040812054919250905b600019811461226a578083838151811061223957612239613ef8565b602090810291909101810191909152600091825260028601905260409020548161226281613d87565b92505061221d565b50909392505050565b61227b612fc3565b6001600160a01b0382166122bb576040517f7280679300000000000000000000000000000000000000000000000000000000815260040160405180910390fd5b600080547fffffffffffffffffffffff0000000000000000000000000000000000000000ff166101006001600160a01b038516021790556122fb8161302a565b612331576040517f7511254100000000000000000000000000000000000000000000000000000000815260040160405180910390fd5b80516001908155602082015160025560408201518291906003906123559082613fdf565b506060820151600382019061236a9082613fdf565b505050606081015160405161237f919061409f565b604080519182900382208351602080860151918552840152916001600160a01b038516917feb175f148a71d29a5f7bf5439182fcd81e6ea9cfc8a11b54ab0f705fa98fa8ca910160405180910390a35050565b600081815260028301602052604081205483908390830361241f576040517ff7fd4fb200000000000000000000000000000000000000000000000000000000815260040160405180910390fd5b600019840361243457846001015492506124ba565b600061243f866121b9565b805190915060005b818110156124b6578683828151811061246257612462613ef8565b6020026020010151036124ae578060000361247f576000196124a4565b8261248b600183613c5b565b8151811061249b5761249b613ef8565b60200260200101515b95505050506124ba565b600101612447565b5050505b505092915050565b6000818152600283016020526040812054158015906124e357506000198214155b9392505050565b6000818152600283016020526040812054839083908303612537576040517ff7fd4fb200000000000000000000000000000000000000000000000000000000815260040160405180910390fd5b5050506000908152600291909101602052604090205490565b81600061255b611866565b9050612591604051806080016040528060008152602001600081526020016000815260200160006001600160a01b031681525090565b60005b8484146126db576000848152600960209081526040918290208251608081018452815481526001820154928101839052600282015493810193909352600301546001600160a01b0316606083015290925083106126c55760408201516125fa9084613c5b565b905080156126c557612654604051806080016040528084606001516001600160a01b03168152602001846000015181526020014281526020016008548660016126439190613d27565b61264d91906140bb565b905261307c565b60018111156126b0576126b0604051806080016040528084606001516001600160a01b0316815260200160018461268b9190613c5b565b855161269791906140bb565b81526020014281526020016008548661264d91906140bb565b60008481526009602052604090206002018390555b6000938452600c60205260409093205492612594565b60405183907f80e11167e6b80b8377b5697de9ae975af33e62fd6418deb3ab3f29f2afad7efc90600090a2600060019054906101000a90046001600160a01b03166001600160a01b031663f1c6bdf86040518163ffffffff1660e01b8152600401602060405180830381865afa158015612759573d6000803e3d6000fd5b505050506040513d601f19601f8201168201806040525081019061277d9190613c6e565b6040517fe151fc610000000000000000000000000000000000000000000000000000000081523060048201526001600160a01b03919091169063e151fc61906024016107dc565b60008160000151826040015183606001516040516020016127e7939291906140d2565b604051602081830303815290604052805190602001209050919050565b8060000361283e576040517fa39a350e00000000000000000000000000000000000000000000000000000000815260040160405180910390fd5b50565b6001600160a01b038116158061285f57506001600160a01b03811630145b1561283e576040517f0cef278700000000000000000000000000000000000000000000000000000000815260040160405180910390fd5b81816128a282826124c2565b806128ab575080155b156128e2576040517f582fbbaf00000000000000000000000000000000000000000000000000000000815260040160405180910390fd5b60018401805460009081526002860160205260408082208690558582528120600019905590849055845490859061291883613d87565b919050555050505050565b6040517f9e9785750000000000000000000000000000000000000000000000000000000081526000903090639e97857590612962908590600401613a4a565b602060405180830381865afa92505050801561299b575060408051601f3d908101601f1916820190925261299891810190613cb4565b60015b6129a757506000919050565b6040517f9e9785750000000000000000000000000000000000000000000000000000000081523090639e978575906129e3908690600401613a4a565b602060405180830381865afa158015612a00573d6000803e3d6000fd5b505050506040513d601f19601f820116820180604052508101906124e39190613cb4565b919050565b612b168282600060019054906101000a90046001600160a01b03166001600160a01b03166304baed9e6040518163ffffffff1660e01b8152600401602060405180830381865afa158015612a81573d6000803e3d6000fd5b505050506040513d601f19601f82011682018060405250810190612aa59190613c6e565b6001600160a01b031663fc0c546a6040518163ffffffff1660e01b8152600401602060405180830381865afa158015612ae2573d6000803e3d6000fd5b505050506040513d601f19601f82011682018060405250810190612b069190613c6e565b6001600160a01b031691906131cf565b5050565b60008060019054906101000a90046001600160a01b03166001600160a01b03166304baed9e6040518163ffffffff1660e01b8152600401602060405180830381865afa158015612b6e573d6000803e3d6000fd5b505050506040513d601f19601f82011682018060405250810190612b929190613c6e565b6001600160a01b031663fc0c546a6040518163ffffffff1660e01b8152600401602060405180830381865afa158015612bcf573d6000803e3d6000fd5b505050506040513d601f19601f82011682018060405250810190612bf39190613c6e565b6040517f70a082310000000000000000000000000000000000000000000000000000000081523060048201526001600160a01b0391909116906370a0823190602401602060405180830381865afa158015612c52573d6000803e3d6000fd5b505050506040513d601f19601f82011682018060405250810190612c769190613c8b565b905081811015612b165760008054604080517f04baed9e00000000000000000000000000000000000000000000000000000000815290516101009092046001600160a01b03169163685dc6b19183916304baed9e916004808201926020929091908290030181865afa158015612cf0573d6000803e3d6000fd5b505050506040513d601f19601f82011682018060405250810190612d149190613c6e565b30612d1f8688613c5b565b6040516001600160a01b039092166024830152604482015260640160408051601f198184030181529181526020820180517bffffffffffffffffffffffffffffffffffffffffffffffffffffffff167f759cc4b500000000000000000000000000000000000000000000000000000000179052517fffffffff0000000000000000000000000000000000000000000000000000000060e085901b168152612dca92919060040161410f565b6000604051808303816000875af1158015612de9573d6000803e3d6000fd5b505050506040513d6000823e601f3d908101601f19168201604052612e119190810190614131565b50905080611844576040517f1a299f4400000000000000000000000000000000000000000000000000000000815260040160405180910390fd5b8281612e5782826124c2565b612e8d576040517f8f454d2d00000000000000000000000000000000000000000000000000000000815260040160405180910390fd5b60008481526002860160205260409020548590859085908114612edc576040517f3065847500000000000000000000000000000000000000000000000000000000815260040160405180910390fd5b600086815260028901602052604080822080548a8452918320919091558782528190558854908990612f0d83614189565b919050555087600101548603610c8c5750505050506001929092015550565b60007fffffffff0000000000000000000000000000000000000000000000000000000082167f8c600c230000000000000000000000000000000000000000000000000000000014806104cd57507f01ffc9a7000000000000000000000000000000000000000000000000000000007fffffffff000000000000000000000000000000000000000000000000000000008316146104cd565b7ff0c57e16840df040f15088dc2f81fe391c3923bec73e23a9662efc9c229c6a005468010000000000000000900460ff166113ac576040517fd7e6bcf800000000000000000000000000000000000000000000000000000000815260040160405180910390fd5b600081604001515160000361304157506000919050565b81606001515160000361305657506000919050565b815115801561306757506020820151155b1561307457506000919050565b506001919050565b8061308681613278565b81602001516006600082825461309c9190613d27565b909155505060058054600181018255600091909152825160049091027f036b6384b5eca791c62761152d0c79bb0604c104a5fb6f4eb0703f3154bb3db0810180546001600160a01b039093167fffffffffffffffffffffffff00000000000000000000000000000000000000009093168317905560208401517f036b6384b5eca791c62761152d0c79bb0604c104a5fb6f4eb0703f3154bb3db182018190556040808601517f036b6384b5eca791c62761152d0c79bb0604c104a5fb6f4eb0703f3154bb3db284015560608601517f036b6384b5eca791c62761152d0c79bb0604c104a5fb6f4eb0703f3154bb3db39093019290925590517ffc9138d87583f51297afba99687e2a6bcf276a5e3e3ccec11b3ca0052ac2e9d9916131c39190815260200190565b60405180910390a25050565b6040517fdd62ed3e0000000000000000000000000000000000000000000000000000000081523060048201526001600160a01b0383811660248301526000919085169063dd62ed3e90604401602060405180830381865afa158015613238573d6000803e3d6000fd5b505050506040513d601f19601f8201168201806040525081019061325c9190613c8b565b9050613272848461326d8585613d27565b61330b565b50505050565b80602001516000036132b6576040517fa39a350e00000000000000000000000000000000000000000000000000000000815260040160405180910390fd5b80516001600160a01b0316158061285f575080516001600160a01b0316300361283e576040517f0cef278700000000000000000000000000000000000000000000000000000000815260040160405180910390fd5b604080516001600160a01b038416602482015260448082018490528251808303909101815260649091019091526020810180517bffffffffffffffffffffffffffffffffffffffffffffffffffffffff167f095ea7b30000000000000000000000000000000000000000000000000000000017905261338a848261341b565b61327257604080516001600160a01b038516602482015260006044808301919091528251808303909101815260649091019091526020810180517bffffffffffffffffffffffffffffffffffffffffffffffffffffffff167f095ea7b3000000000000000000000000000000000000000000000000000000001790526134119085906134c3565b61327284826134c3565b6000806000846001600160a01b031684604051613438919061409f565b6000604051808303816000865af19150503d8060008114613475576040519150601f19603f3d011682016040523d82523d6000602084013e61347a565b606091505b50915091508180156134a45750805115806134a45750808060200190518101906134a49190613cb4565b80156134ba57506000856001600160a01b03163b115b95945050505050565b60006134d86001600160a01b0384168361353f565b905080516000141580156134fd5750808060200190518101906134fb9190613cb4565b155b15611844576040517f5274afe70000000000000000000000000000000000000000000000000000000081526001600160a01b038416600482015260240161070f565b60606124e38383600084600080856001600160a01b03168486604051613565919061409f565b60006040518083038185875af1925050503d80600081146135a2576040519150601f19603f3d011682016040523d82523d6000602084013e6135a7565b606091505b50915091506135b78683836135c1565b9695505050505050565b6060826135d6576135d182613636565b6124e3565b81511580156135ed57506001600160a01b0384163b155b1561362f576040517f9996b3150000000000000000000000000000000000000000000000000000000081526001600160a01b038516600482015260240161070f565b50806124e3565b8051156136465780518082602001fd5b6040517f1425ea4200000000000000000000000000000000000000000000000000000000815260040160405180910390fd5b508054600082556004029060005260206000209081019061283e91905b808211156136e05780547fffffffffffffffffffffffff0000000000000000000000000000000000000000168155600060018201819055600282018190556003820155600401613695565b5090565b6000602082840312156136f657600080fd5b81357fffffffff00000000000000000000000000000000000000000000000000000000811681146124e357600080fd5b60006020828403121561373857600080fd5b5035919050565b6020808252825182820181905260009190848201906040850190845b818110156137775783518352928401929184019160010161375b565b50909695505050505050565b60008060006040848603121561379857600080fd5b83359250602084013567ffffffffffffffff808211156137b757600080fd5b818601915086601f8301126137cb57600080fd5b8135818111156137da57600080fd5b8760208260051b85010111156137ef57600080fd5b6020830194508093505050509250925092565b6001600160a01b038116811461283e57600080fd5b7f4e487b7100000000000000000000000000000000000000000000000000000000600052604160045260246000fd5b6040516080810167ffffffffffffffff8111828210171561386957613869613817565b60405290565b604051601f8201601f1916810167ffffffffffffffff8111828210171561389857613898613817565b604052919050565b600067ffffffffffffffff8211156138ba576138ba613817565b50601f01601f191660200190565b600082601f8301126138d957600080fd5b81356138ec6138e7826138a0565b61386f565b81815284602083860101111561390157600080fd5b816020850160208301376000918101602001919091529392505050565b60008060006060848603121561393357600080fd5b833561393e81613802565b9250602084013567ffffffffffffffff8082111561395b57600080fd5b908501906080828803121561396f57600080fd5b613977613846565b823581526020830135602082015260408301358281111561399757600080fd5b6139a3898286016138c8565b6040830152506060830135828111156139bb57600080fd5b6139c7898286016138c8565b606083015250935060408601359150808211156139e357600080fd5b506139f0868287016138c8565b9150509250925092565b60005b83811015613a155781810151838201526020016139fd565b50506000910152565b60008151808452613a368160208601602086016139fa565b601f01601f19169290920160200192915050565b6020815260006124e36020830184613a1e565b600060208284031215613a6f57600080fd5b81356124e381613802565b60008060408385031215613a8d57600080fd5b50508035926020909101359150565b60008060408385031215613aaf57600080fd5b823591506020830135613ac181613802565b809150509250929050565b60008151808452602080850194506020840160005b83811015613b2657815180516001600160a01b031688528381015184890152604080820151908901526060908101519088015260809096019590820190600101613ae1565b509495945050505050565b6020815260006124e36020830184613acc565b600080600060608486031215613b5957600080fd5b83359250602084013591506040840135613b7281613802565b809150509250925092565b60008060408385031215613b9057600080fd5b8235613b9b81613802565b9150602083013567ffffffffffffffff811115613bb757600080fd5b613bc3858286016138c8565b9150509250929050565b600060208284031215613bdf57600080fd5b813567ffffffffffffffff811115613bf657600080fd5b613c02848285016138c8565b949350505050565b604081526000613c1d6040830185613acc565b90508260208301529392505050565b7f4e487b7100000000000000000000000000000000000000000000000000000000600052601160045260246000fd5b818103818111156104cd576104cd613c2c565b600060208284031215613c8057600080fd5b81516124e381613802565b600060208284031215613c9d57600080fd5b5051919050565b80518015158114612a2457600080fd5b600060208284031215613cc657600080fd5b6124e382613ca4565b83815260406020808301829052908201839052600090849060608401835b86811015613d1b578335613d0081613802565b6001600160a01b031682529282019290820190600101613ced565b50979650505050505050565b808201808211156104cd576104cd613c2c565b600181811c90821680613d4e57607f821691505b602082108103611d4a577f4e487b7100000000000000000000000000000000000000000000000000000000600052602260045260246000fd5b60006000198203613d9a57613d9a613c2c565b5060010190565b6000613daf6138e7846138a0565b9050828152838383011115613dc357600080fd5b6124e38360208301846139fa565b6000806040808486031215613de557600080fd5b613dee84613ca4565b925060208085015167ffffffffffffffff80821115613e0c57600080fd5b818701915087601f830112613e2057600080fd5b815181811115613e3257613e32613817565b8060051b613e4185820161386f565b918252838101850191858101908b841115613e5b57600080fd5b86860192505b83831015613eab57825185811115613e795760008081fd5b8601603f81018d13613e8b5760008081fd5b613e9b8d898301518b8401613da1565b8352509186019190860190613e61565b80985050505050505050509250929050565b600082613ef3577f4e487b7100000000000000000000000000000000000000000000000000000000600052601260045260246000fd5b500490565b7f4e487b7100000000000000000000000000000000000000000000000000000000600052603260045260246000fd5b60008085851115613f3757600080fd5b83861115613f4457600080fd5b5050820193919092039150565b7fffffffffffffffffffffffffffffffffffffffff00000000000000000000000081358181169160148510156124ba5760149490940360031b84901b1690921692915050565b601f821115611844576000816000526020600020601f850160051c81016020861015613fc05750805b601f850160051c820191505b81811015610eb557828155600101613fcc565b815167ffffffffffffffff811115613ff957613ff9613817565b61400d816140078454613d3a565b84613f97565b602080601f831160018114614042576000841561402a5750858301515b600019600386901b1c1916600185901b178555610eb5565b600085815260208120601f198616915b8281101561407157888601518255948401946001909101908401614052565b508582101561408f5787850151600019600388901b60f8161c191681555b5050505050600190811b01905550565b600082516140b18184602087016139fa565b9190910192915050565b80820281158282048414176104cd576104cd613c2c565b838152600083516140ea8160208501602088016139fa565b808301905083516141028160208401602088016139fa565b0160200195945050505050565b6001600160a01b0383168152604060208201526000613c026040830184613a1e565b6000806040838503121561414457600080fd5b61414d83613ca4565b9150602083015167ffffffffffffffff81111561416957600080fd5b8301601f8101851361417a57600080fd5b613bc385825160208401613da1565b60008161419857614198613c2c565b50600019019056fea26469706673582212207ba3cbb5af39c815a31661296b7ddb78a00335721982e77890d71080e0e56b4a64736f6c63430008170033",
    "linkReferences": {}
  },
  "methodIdentifiers": {
    "addRecurringPayment(uint256,uint256,address)": "8008dd8e",
    "amountPaid(uint256)": "13e64063",
    "collectPaymentOrders()": "c0231ff6",
    "decoder(bytes)": "9e978575",
    "getCurrentEpoch()": "b97dd9e2",
    "getEpochFromTimestamp(uint256)": "c83e6362",
    "getEpochLength()": "cfe8a73b",
    "getFutureEpoch(uint256)": "274b903a",
    "getPreviousPaymentId(uint256)": "50287478",
    "getRecurringPaymentInformation(uint256)": "c42542e3",
    "grantModuleRole(bytes32,address)": "6c67e807",
    "grantModuleRoleBatched(bytes32,address[])": "272bbd44",
    "identifier()": "7998a1c4",
    "init(address,(uint256,uint256,string,string),bytes)": "42dfe958",
    "init2(address,bytes)": "9bfdf766",
    "isExistingRecurringPaymentId(uint256)": "62fe48fd",
    "isTrustedForwarder(address)": "572b6c05",
    "listRecurringPaymentIds()": "1bf3bfe8",
    "orchestrator()": "b74795d9",
    "outstandingTokenAmount()": "a44a6bb2",
    "paymentOrders()": "75fa0b76",
    "removeRecurringPayment(uint256,uint256)": "c7829b6f",
    "revokeModuleRole(bytes32,address)": "bcb61920",
    "revokeModuleRoleBatched(bytes32,address[])": "24e30270",
    "supportsInterface(bytes4)": "01ffc9a7",
    "title()": "4a79d50c",
    "trigger()": "7fec8d38",
    "triggerFor(uint256,uint256)": "648bc2cd",
    "trustedForwarder()": "7da0a877",
    "url()": "5600f04f",
    "version()": "54fd4d50"
  },
  "id": 145
}