{
  "abi": [
    {
      "type": "function",
      "name": "BOUNTY_ISSUER_ROLE",
      "inputs": [],
      "outputs": [
        {
          "name": "",
          "type": "bytes32",
          "internalType": "bytes32"
        }
      ],
      "stateMutability": "view"
    },
    {
      "type": "function",
      "name": "CLAIMANT_ROLE",
      "inputs": [],
      "outputs": [
        {
          "name": "",
          "type": "bytes32",
          "internalType": "bytes32"
        }
      ],
      "stateMutability": "view"
    },
    {
      "type": "function",
      "name": "VERIFIER_ROLE",
      "inputs": [],
      "outputs": [
        {
          "name": "",
          "type": "bytes32",
          "internalType": "bytes32"
        }
      ],
      "stateMutability": "view"
    },
    {
      "type": "function",
      "name": "addBounty",
      "inputs": [
        {
          "name": "minimumPayoutAmount",
          "type": "uint256",
          "internalType": "uint256"
        },
        {
          "name": "maximumPayoutAmount",
          "type": "uint256",
          "internalType": "uint256"
        },
        {
          "name": "details",
          "type": "bytes",
          "internalType": "bytes"
        }
      ],
      "outputs": [
        {
          "name": "id",
          "type": "uint256",
          "internalType": "uint256"
        }
      ],
      "stateMutability": "nonpayable"
    },
    {
      "type": "function",
      "name": "addClaim",
      "inputs": [
        {
          "name": "bountyId",
          "type": "uint256",
          "internalType": "uint256"
        },
        {
          "name": "contributors",
          "type": "tuple[]",
          "internalType": "struct ILM_PC_Bounties_v1.Contributor[]",
          "components": [
            {
              "name": "addr",
              "type": "address",
              "internalType": "address"
            },
            {
              "name": "claimAmount",
              "type": "uint256",
              "internalType": "uint256"
            }
          ]
        },
        {
          "name": "details",
          "type": "bytes",
          "internalType": "bytes"
        }
      ],
      "outputs": [
        {
          "name": "id",
          "type": "uint256",
          "internalType": "uint256"
        }
      ],
      "stateMutability": "nonpayable"
    },
    {
      "type": "function",
      "name": "amountPaid",
      "inputs": [
        {
          "name": "amount",
          "type": "uint256",
          "internalType": "uint256"
        }
      ],
      "outputs": [],
      "stateMutability": "nonpayable"
    },
    {
      "type": "function",
      "name": "collectPaymentOrders",
      "inputs": [],
      "outputs": [
        {
          "name": "",
          "type": "tuple[]",
          "internalType": "struct IERC20PaymentClientBase_v1.PaymentOrder[]",
          "components": [
            {
              "name": "recipient",
              "type": "address",
              "internalType": "address"
            },
            {
              "name": "amount",
              "type": "uint256",
              "internalType": "uint256"
            },
            {
              "name": "createdAt",
              "type": "uint256",
              "internalType": "uint256"
            },
            {
              "name": "dueTo",
              "type": "uint256",
              "internalType": "uint256"
            }
          ]
        },
        {
          "name": "",
          "type": "uint256",
          "internalType": "uint256"
        }
      ],
      "stateMutability": "nonpayable"
    },
    {
      "type": "function",
      "name": "decoder",
      "inputs": [
        {
          "name": "data",
          "type": "bytes",
          "internalType": "bytes"
        }
      ],
      "outputs": [
        {
          "name": "requirement",
          "type": "bool",
          "internalType": "bool"
        }
      ],
      "stateMutability": "pure"
    },
    {
      "type": "function",
      "name": "getBountyInformation",
      "inputs": [
        {
          "name": "bountyId",
          "type": "uint256",
          "internalType": "uint256"
        }
      ],
      "outputs": [
        {
          "name": "",
          "type": "tuple",
          "internalType": "struct ILM_PC_Bounties_v1.Bounty",
          "components": [
            {
              "name": "minimumPayoutAmount",
              "type": "uint256",
              "internalType": "uint256"
            },
            {
              "name": "maximumPayoutAmount",
              "type": "uint256",
              "internalType": "uint256"
            },
            {
              "name": "details",
              "type": "bytes",
              "internalType": "bytes"
            },
            {
              "name": "locked",
              "type": "bool",
              "internalType": "bool"
            }
          ]
        }
      ],
      "stateMutability": "view"
    },
    {
      "type": "function",
      "name": "getClaimInformation",
      "inputs": [
        {
          "name": "claimId",
          "type": "uint256",
          "internalType": "uint256"
        }
      ],
      "outputs": [
        {
          "name": "",
          "type": "tuple",
          "internalType": "struct ILM_PC_Bounties_v1.Claim",
          "components": [
            {
              "name": "bountyId",
              "type": "uint256",
              "internalType": "uint256"
            },
            {
              "name": "contributors",
              "type": "tuple[]",
              "internalType": "struct ILM_PC_Bounties_v1.Contributor[]",
              "components": [
                {
                  "name": "addr",
                  "type": "address",
                  "internalType": "address"
                },
                {
                  "name": "claimAmount",
                  "type": "uint256",
                  "internalType": "uint256"
                }
              ]
            },
            {
              "name": "details",
              "type": "bytes",
              "internalType": "bytes"
            },
            {
              "name": "claimed",
              "type": "bool",
              "internalType": "bool"
            }
          ]
        }
      ],
      "stateMutability": "view"
    },
    {
      "type": "function",
      "name": "grantModuleRole",
      "inputs": [
        {
          "name": "role",
          "type": "bytes32",
          "internalType": "bytes32"
        },
        {
          "name": "target",
          "type": "address",
          "internalType": "address"
        }
      ],
      "outputs": [],
      "stateMutability": "nonpayable"
    },
    {
      "type": "function",
      "name": "grantModuleRoleBatched",
      "inputs": [
        {
          "name": "role",
          "type": "bytes32",
          "internalType": "bytes32"
        },
        {
          "name": "targets",
          "type": "address[]",
          "internalType": "address[]"
        }
      ],
      "outputs": [],
      "stateMutability": "nonpayable"
    },
    {
      "type": "function",
      "name": "identifier",
      "inputs": [],
      "outputs": [
        {
          "name": "",
          "type": "bytes32",
          "internalType": "bytes32"
        }
      ],
      "stateMutability": "view"
    },
    {
      "type": "function",
      "name": "init",
      "inputs": [
        {
          "name": "orchestrator_",
          "type": "address",
          "internalType": "contract IOrchestrator_v1"
        },
        {
          "name": "metadata",
          "type": "tuple",
          "internalType": "struct IModule_v1.Metadata",
          "components": [
            {
              "name": "majorVersion",
              "type": "uint256",
              "internalType": "uint256"
            },
            {
              "name": "minorVersion",
              "type": "uint256",
              "internalType": "uint256"
            },
            {
              "name": "url",
              "type": "string",
              "internalType": "string"
            },
            {
              "name": "title",
              "type": "string",
              "internalType": "string"
            }
          ]
        },
        {
          "name": "",
          "type": "bytes",
          "internalType": "bytes"
        }
      ],
      "outputs": [],
      "stateMutability": "nonpayable"
    },
    {
      "type": "function",
      "name": "init2",
      "inputs": [
        {
          "name": "",
          "type": "address",
          "internalType": "contract IOrchestrator_v1"
        },
        {
          "name": "",
          "type": "bytes",
          "internalType": "bytes"
        }
      ],
      "outputs": [],
      "stateMutability": "nonpayable"
    },
    {
      "type": "function",
      "name": "isExistingBountyId",
      "inputs": [
        {
          "name": "bountyId",
          "type": "uint256",
          "internalType": "uint256"
        }
      ],
      "outputs": [
        {
          "name": "",
          "type": "bool",
          "internalType": "bool"
        }
      ],
      "stateMutability": "view"
    },
    {
      "type": "function",
      "name": "isExistingClaimId",
      "inputs": [
        {
          "name": "claimId",
          "type": "uint256",
          "internalType": "uint256"
        }
      ],
      "outputs": [
        {
          "name": "",
          "type": "bool",
          "internalType": "bool"
        }
      ],
      "stateMutability": "view"
    },
    {
      "type": "function",
      "name": "isTrustedForwarder",
      "inputs": [
        {
          "name": "forwarder",
          "type": "address",
          "internalType": "address"
        }
      ],
      "outputs": [
        {
          "name": "",
          "type": "bool",
          "internalType": "bool"
        }
      ],
      "stateMutability": "view"
    },
    {
      "type": "function",
      "name": "listBountyIds",
      "inputs": [],
      "outputs": [
        {
          "name": "",
          "type": "uint256[]",
          "internalType": "uint256[]"
        }
      ],
      "stateMutability": "view"
    },
    {
      "type": "function",
      "name": "listClaimIds",
      "inputs": [],
      "outputs": [
        {
          "name": "",
          "type": "uint256[]",
          "internalType": "uint256[]"
        }
      ],
      "stateMutability": "view"
    },
    {
      "type": "function",
      "name": "listClaimIdsForContributorAddress",
      "inputs": [
        {
          "name": "contributorAddrs",
          "type": "address",
          "internalType": "address"
        }
      ],
      "outputs": [
        {
          "name": "",
          "type": "uint256[]",
          "internalType": "uint256[]"
        }
      ],
      "stateMutability": "view"
    },
    {
      "type": "function",
      "name": "lockBounty",
      "inputs": [
        {
          "name": "bountyId",
          "type": "uint256",
          "internalType": "uint256"
        }
      ],
      "outputs": [],
      "stateMutability": "nonpayable"
    },
    {
      "type": "function",
      "name": "orchestrator",
      "inputs": [],
      "outputs": [
        {
          "name": "",
          "type": "address",
          "internalType": "contract IOrchestrator_v1"
        }
      ],
      "stateMutability": "view"
    },
    {
      "type": "function",
      "name": "outstandingTokenAmount",
      "inputs": [],
      "outputs": [
        {
          "name": "",
          "type": "uint256",
          "internalType": "uint256"
        }
      ],
      "stateMutability": "view"
    },
    {
      "type": "function",
      "name": "paymentOrders",
      "inputs": [],
      "outputs": [
        {
          "name": "",
          "type": "tuple[]",
          "internalType": "struct IERC20PaymentClientBase_v1.PaymentOrder[]",
          "components": [
            {
              "name": "recipient",
              "type": "address",
              "internalType": "address"
            },
            {
              "name": "amount",
              "type": "uint256",
              "internalType": "uint256"
            },
            {
              "name": "createdAt",
              "type": "uint256",
              "internalType": "uint256"
            },
            {
              "name": "dueTo",
              "type": "uint256",
              "internalType": "uint256"
            }
          ]
        }
      ],
      "stateMutability": "view"
    },
    {
      "type": "function",
      "name": "revokeModuleRole",
      "inputs": [
        {
          "name": "role",
          "type": "bytes32",
          "internalType": "bytes32"
        },
        {
          "name": "target",
          "type": "address",
          "internalType": "address"
        }
      ],
      "outputs": [],
      "stateMutability": "nonpayable"
    },
    {
      "type": "function",
      "name": "revokeModuleRoleBatched",
      "inputs": [
        {
          "name": "role",
          "type": "bytes32",
          "internalType": "bytes32"
        },
        {
          "name": "targets",
          "type": "address[]",
          "internalType": "address[]"
        }
      ],
      "outputs": [],
      "stateMutability": "nonpayable"
    },
    {
      "type": "function",
      "name": "supportsInterface",
      "inputs": [
        {
          "name": "interfaceId",
          "type": "bytes4",
          "internalType": "bytes4"
        }
      ],
      "outputs": [
        {
          "name": "",
          "type": "bool",
          "internalType": "bool"
        }
      ],
      "stateMutability": "view"
    },
    {
      "type": "function",
      "name": "title",
      "inputs": [],
      "outputs": [
        {
          "name": "",
          "type": "string",
          "internalType": "string"
        }
      ],
      "stateMutability": "view"
    },
    {
      "type": "function",
      "name": "trustedForwarder",
      "inputs": [],
      "outputs": [
        {
          "name": "",
          "type": "address",
          "internalType": "address"
        }
      ],
      "stateMutability": "view"
    },
    {
      "type": "function",
      "name": "updateBounty",
      "inputs": [
        {
          "name": "bountyId",
          "type": "uint256",
          "internalType": "uint256"
        },
        {
          "name": "details",
          "type": "bytes",
          "internalType": "bytes"
        }
      ],
      "outputs": [],
      "stateMutability": "nonpayable"
    },
    {
      "type": "function",
      "name": "updateClaimContributors",
      "inputs": [
        {
          "name": "claimId",
          "type": "uint256",
          "internalType": "uint256"
        },
        {
          "name": "contributors",
          "type": "tuple[]",
          "internalType": "struct ILM_PC_Bounties_v1.Contributor[]",
          "components": [
            {
              "name": "addr",
              "type": "address",
              "internalType": "address"
            },
            {
              "name": "claimAmount",
              "type": "uint256",
              "internalType": "uint256"
            }
          ]
        }
      ],
      "outputs": [],
      "stateMutability": "nonpayable"
    },
    {
      "type": "function",
      "name": "updateClaimDetails",
      "inputs": [
        {
          "name": "claimId",
          "type": "uint256",
          "internalType": "uint256"
        },
        {
          "name": "details",
          "type": "bytes",
          "internalType": "bytes"
        }
      ],
      "outputs": [],
      "stateMutability": "nonpayable"
    },
    {
      "type": "function",
      "name": "url",
      "inputs": [],
      "outputs": [
        {
          "name": "",
          "type": "string",
          "internalType": "string"
        }
      ],
      "stateMutability": "view"
    },
    {
      "type": "function",
      "name": "verifyClaim",
      "inputs": [
        {
          "name": "claimId",
          "type": "uint256",
          "internalType": "uint256"
        },
        {
          "name": "contributors",
          "type": "tuple[]",
          "internalType": "struct ILM_PC_Bounties_v1.Contributor[]",
          "components": [
            {
              "name": "addr",
              "type": "address",
              "internalType": "address"
            },
            {
              "name": "claimAmount",
              "type": "uint256",
              "internalType": "uint256"
            }
          ]
        }
      ],
      "outputs": [],
      "stateMutability": "nonpayable"
    },
    {
      "type": "function",
      "name": "version",
      "inputs": [],
      "outputs": [
        {
          "name": "",
          "type": "uint256",
          "internalType": "uint256"
        },
        {
          "name": "",
          "type": "uint256",
          "internalType": "uint256"
        }
      ],
      "stateMutability": "view"
    },
    {
      "type": "event",
      "name": "BountyAdded",
      "inputs": [
        {
          "name": "bountyId",
          "type": "uint256",
          "indexed": true,
          "internalType": "uint256"
        },
        {
          "name": "minimumPayoutAmount",
          "type": "uint256",
          "indexed": false,
          "internalType": "uint256"
        },
        {
          "name": "maximumPayoutAmount",
          "type": "uint256",
          "indexed": false,
          "internalType": "uint256"
        },
        {
          "name": "details",
          "type": "bytes",
          "indexed": false,
          "internalType": "bytes"
        }
      ],
      "anonymous": false
    },
    {
      "type": "event",
      "name": "BountyLocked",
      "inputs": [
        {
          "name": "bountyId",
          "type": "uint256",
          "indexed": true,
          "internalType": "uint256"
        }
      ],
      "anonymous": false
    },
    {
      "type": "event",
      "name": "BountyUpdated",
      "inputs": [
        {
          "name": "bountyId",
          "type": "uint256",
          "indexed": true,
          "internalType": "uint256"
        },
        {
          "name": "details",
          "type": "bytes",
          "indexed": true,
          "internalType": "bytes"
        }
      ],
      "anonymous": false
    },
    {
      "type": "event",
      "name": "ClaimAdded",
      "inputs": [
        {
          "name": "claimId",
          "type": "uint256",
          "indexed": true,
          "internalType": "uint256"
        },
        {
          "name": "bountyId",
          "type": "uint256",
          "indexed": true,
          "internalType": "uint256"
        },
        {
          "name": "contributors",
          "type": "tuple[]",
          "indexed": true,
          "internalType": "struct ILM_PC_Bounties_v1.Contributor[]",
          "components": [
            {
              "name": "addr",
              "type": "address",
              "internalType": "address"
            },
            {
              "name": "claimAmount",
              "type": "uint256",
              "internalType": "uint256"
            }
          ]
        },
        {
          "name": "details",
          "type": "bytes",
          "indexed": false,
          "internalType": "bytes"
        }
      ],
      "anonymous": false
    },
    {
      "type": "event",
      "name": "ClaimContributorsUpdated",
      "inputs": [
        {
          "name": "claimId",
          "type": "uint256",
          "indexed": true,
          "internalType": "uint256"
        },
        {
          "name": "contributors",
          "type": "tuple[]",
          "indexed": true,
          "internalType": "struct ILM_PC_Bounties_v1.Contributor[]",
          "components": [
            {
              "name": "addr",
              "type": "address",
              "internalType": "address"
            },
            {
              "name": "claimAmount",
              "type": "uint256",
              "internalType": "uint256"
            }
          ]
        }
      ],
      "anonymous": false
    },
    {
      "type": "event",
      "name": "ClaimDetailsUpdated",
      "inputs": [
        {
          "name": "claimId",
          "type": "uint256",
          "indexed": true,
          "internalType": "uint256"
        },
        {
          "name": "details",
          "type": "bytes",
          "indexed": false,
          "internalType": "bytes"
        }
      ],
      "anonymous": false
    },
    {
      "type": "event",
      "name": "ClaimVerified",
      "inputs": [
        {
          "name": "claimId",
          "type": "uint256",
          "indexed": true,
          "internalType": "uint256"
        }
      ],
      "anonymous": false
    },
    {
      "type": "event",
      "name": "Initialized",
      "inputs": [
        {
          "name": "version",
          "type": "uint64",
          "indexed": false,
          "internalType": "uint64"
        }
      ],
      "anonymous": false
    },
    {
      "type": "event",
      "name": "ModuleInitialized",
      "inputs": [
        {
          "name": "parentOrchestrator",
          "type": "address",
          "indexed": true,
          "internalType": "address"
        },
        {
          "name": "moduleTitle",
          "type": "string",
          "indexed": true,
          "internalType": "string"
        },
        {
          "name": "majorVersion",
          "type": "uint256",
          "indexed": false,
          "internalType": "uint256"
        },
        {
          "name": "minorVersion",
          "type": "uint256",
          "indexed": false,
          "internalType": "uint256"
        }
      ],
      "anonymous": false
    },
    {
      "type": "event",
      "name": "PaymentOrderAdded",
      "inputs": [
        {
          "name": "recipient",
          "type": "address",
          "indexed": true,
          "internalType": "address"
        },
        {
          "name": "amount",
          "type": "uint256",
          "indexed": false,
          "internalType": "uint256"
        }
      ],
      "anonymous": false
    },
    {
      "type": "error",
      "name": "AddressEmptyCode",
      "inputs": [
        {
          "name": "target",
          "type": "address",
          "internalType": "address"
        }
      ]
    },
    {
      "type": "error",
      "name": "AddressInsufficientBalance",
      "inputs": [
        {
          "name": "account",
          "type": "address",
          "internalType": "address"
        }
      ]
    },
    {
      "type": "error",
      "name": "FailedInnerCall",
      "inputs": []
    },
    {
      "type": "error",
      "name": "InvalidInitialization",
      "inputs": []
    },
    {
      "type": "error",
      "name": "Library__LinkedIdList__InvalidNewId",
      "inputs": []
    },
    {
      "type": "error",
      "name": "Module_OrchestratorCallbackFailed",
      "inputs": [
        {
          "name": "funcSig",
          "type": "string",
          "internalType": "string"
        }
      ]
    },
    {
      "type": "error",
      "name": "Module__CallerNotAuthorized",
      "inputs": [
        {
          "name": "role",
          "type": "bytes32",
          "internalType": "bytes32"
        },
        {
          "name": "caller",
          "type": "address",
          "internalType": "address"
        }
      ]
    },
    {
      "type": "error",
      "name": "Module__CannotCallInit2Again",
      "inputs": []
    },
    {
      "type": "error",
      "name": "Module__ERC20PaymentClientBase__ArrayLengthMismatch",
      "inputs": []
    },
    {
      "type": "error",
      "name": "Module__ERC20PaymentClientBase__CallerNotAuthorized",
      "inputs": []
    },
    {
      "type": "error",
      "name": "Module__ERC20PaymentClientBase__InvalidAmount",
      "inputs": []
    },
    {
      "type": "error",
      "name": "Module__ERC20PaymentClientBase__InvalidDueTo",
      "inputs": []
    },
    {
      "type": "error",
      "name": "Module__ERC20PaymentClientBase__InvalidRecipient",
      "inputs": []
    },
    {
      "type": "error",
      "name": "Module__ERC20PaymentClientBase__TokenTransferFailed",
      "inputs": []
    },
    {
      "type": "error",
      "name": "Module__InvalidMetadata",
      "inputs": []
    },
    {
      "type": "error",
      "name": "Module__InvalidOrchestratorAddress",
      "inputs": []
    },
    {
      "type": "error",
      "name": "Module__LM_PC_Bounty__AlreadyClaimed",
      "inputs": []
    },
    {
      "type": "error",
      "name": "Module__LM_PC_Bounty__BountyLocked",
      "inputs": []
    },
    {
      "type": "error",
      "name": "Module__LM_PC_Bounty__ClaimExceedsGivenPayoutAmounts",
      "inputs": []
    },
    {
      "type": "error",
      "name": "Module__LM_PC_Bounty__ContributorsChanged",
      "inputs": []
    },
    {
      "type": "error",
      "name": "Module__LM_PC_Bounty__InvalidBountyId",
      "inputs": []
    },
    {
      "type": "error",
      "name": "Module__LM_PC_Bounty__InvalidClaimId",
      "inputs": []
    },
    {
      "type": "error",
      "name": "Module__LM_PC_Bounty__InvalidContributorAddress",
      "inputs": []
    },
    {
      "type": "error",
      "name": "Module__LM_PC_Bounty__InvalidContributorAmount",
      "inputs": []
    },
    {
      "type": "error",
      "name": "Module__LM_PC_Bounty__InvalidContributorsLength",
      "inputs": []
    },
    {
      "type": "error",
      "name": "Module__LM_PC_Bounty__InvalidPayoutAmounts",
      "inputs": []
    },
    {
      "type": "error",
      "name": "Module__LM_PC_Bounty__OnlyClaimContributor",
      "inputs": []
    },
    {
      "type": "error",
      "name": "Module__NoDependencyOrMalformedDependencyData",
      "inputs": []
    },
    {
      "type": "error",
      "name": "Module__OnlyCallableByOrchestrator",
      "inputs": []
    },
    {
      "type": "error",
      "name": "NotInitializing",
      "inputs": []
    },
    {
      "type": "error",
      "name": "SafeERC20FailedOperation",
      "inputs": [
        {
          "name": "token",
          "type": "address",
          "internalType": "address"
        }
      ]
    }
  ],
  "bytecode": {
    "object": "0x60a06040523480156200001157600080fd5b5060006080526200002162000027565b620000db565b7ff0c57e16840df040f15088dc2f81fe391c3923bec73e23a9662efc9c229c6a00805468010000000000000000900460ff1615620000785760405163f92ee8a960e01b815260040160405180910390fd5b80546001600160401b0390811614620000d85780546001600160401b0319166001600160401b0390811782556040519081527fc7f505b2f371ae2175ee4913f4499e1f2633a7b5936321eed1cdaeb6115181d29060200160405180910390a15b50565b608051615649620000f4600039600050506156496000f3fe608060405234801561001057600080fd5b506004361061025c5760003560e01c80637bfee04811610145578063bcb61920116100bd578063c0231ff61161008c578063e2114c8c11610071578063e2114c8c14610530578063e7705db614610543578063fa4dbd031461056a57600080fd5b8063c0231ff6146104fa578063cb05296f1461051057600080fd5b8063bcb61920146104ae578063bd769f79146104c1578063be5a5745146104d4578063bf1f9656146104e757600080fd5b80639c16f52511610114578063a44a6bb2116100f9578063a44a6bb214610488578063b5e8bc4514610490578063b74795d91461049857600080fd5b80639c16f525146104625780639e9785751461047557600080fd5b80637bfee048146103e15780637da0a877146104085780638a867368146104285780639bfdf7661461044f57600080fd5b806342dfe958116101d8578063572b6c05116101a75780636c67e8071161018c5780636c67e807146103b157806375fa0b76146103c45780637998a1c4146103d957600080fd5b8063572b6c051461038b5780635beaeb8c1461039e57600080fd5b806342dfe958146103405780634a79d50c1461035357806354fd4d50146103685780635600f04f1461038357600080fd5b8063272bbd441161022f57806331be580e1161021457806331be580e146102f857806331de0bdb146103185780633cd6b5d11461032b57600080fd5b8063272bbd44146102d25780632d54a71c146102e557600080fd5b806301ffc9a7146102615780630d97d72c1461028957806313e64063146102aa57806324e30270146102bf575b600080fd5b61027461026f366004614705565b61057d565b60405190151581526020015b60405180910390f35b61029c6102973660046147bd565b6105c1565b604051908152602001610280565b6102bd6102b8366004614837565b610b48565b005b6102bd6102cd366004614850565b610ba8565b6102bd6102e0366004614850565b610e19565b6102bd6102f33660046148cf565b611050565b61030b610306366004614837565b6112b7565b604051610280919061496b565b6102bd6103263660046148cf565b611402565b61033361166b565b60405161028091906149b3565b6102bd61034e366004614b13565b61167c565b61035b61185c565b6040516102809190614bef565b60015460025460408051928352602083019190915201610280565b61035b6118f1565b610274610399366004614c02565b611903565b6102bd6103ac366004614c1f565b611991565b6102bd6103bf366004614c5e565b611dd6565b6103cc612048565b6040516102809190614cf3565b61029c6120d2565b61029c7f424f554e54595f4953535545520000000000000000000000000000000000000081565b61041061221d565b6040516001600160a01b039091168152602001610280565b61029c7f434c41494d414e5400000000000000000000000000000000000000000000000081565b6102bd61045d366004614d06565b612295565b610333610470366004614c02565b6122e3565b610274610483366004614d56565b612307565b60065461029c565b610333612324565b60005461010090046001600160a01b0316610410565b6102bd6104bc366004614c5e565b612330565b61029c6104cf366004614d93565b61256d565b6102746104e2366004614837565b6127be565b6102bd6104f5366004614c1f565b6127cb565b610502612cc5565b604051610280929190614de6565b61052361051e366004614837565b612e83565b6040516102809190614e08565b61027461053e366004614837565b612f9d565b61029c7f564552494649455200000000000000000000000000000000000000000000000081565b6102bd610578366004614837565b612faa565b60006001600160e01b031982167f010bb2520000000000000000000000000000000000000000000000000000000014806105bb57506105bb826131f5565b92915050565b60007f434c41494d414e54000000000000000000000000000000000000000000000000600060019054906101000a90046001600160a01b03166001600160a01b031663d09edf316040518163ffffffff1660e01b8152600401602060405180830381865afa158015610637573d6000803e3d6000fd5b505050506040513d601f19601f8201168201806040525081019061065b9190614ead565b6001600160a01b031663f3aafa7082610672613233565b6040516001600160e01b031960e085901b16815260048101929092526001600160a01b03166024820152604401602060405180830381865afa1580156106bc573d6000803e3d6000fd5b505050506040513d601f19601f820116820180604052508101906106e09190614edf565b61083857600060019054906101000a90046001600160a01b03166001600160a01b031663d09edf316040518163ffffffff1660e01b8152600401602060405180830381865afa158015610737573d6000803e3d6000fd5b505050506040513d601f19601f8201168201806040525081019061075b9190614ead565b6040517ffdd5205f000000000000000000000000000000000000000000000000000000008152306004820152602481018390526001600160a01b03919091169063fdd5205f906044016020604051808303816000875af11580156107c3573d6000803e3d6000fd5b505050506040513d601f19601f820116820180604052508101906107e79190614efa565b6107ef613233565b6040517f42abbb7700000000000000000000000000000000000000000000000000000000815260048101929092526001600160a01b031660248201526044015b60405180910390fd5b86610842816127be565b610878576040517f51e09ff800000000000000000000000000000000000000000000000000000000815260040160405180910390fd5b600088815260086020526040902060030154889060ff16156108c6576040517fabd9d5d600000000000000000000000000000000000000000000000000000000815260040160405180910390fd5b6109f68888808060200260200160405190810160405280939291908181526020016000905b828210156109175761090860408302860136819003810190614f13565b815260200190600101906108eb565b5050505050600860008c8152602001908152602001600020604051806080016040529081600082015481526020016001820154815260200160028201805461095e90614f6b565b80601f016020809104026020016040519081016040528092919081815260200182805461098a90614f6b565b80156109d75780601f106109ac576101008083540402835291602001916109d7565b820191906000526020600020905b8154815290600101906020018083116109ba57829003601f168201915b50505091835250506003919091015460ff161515602090910152613285565b6000600760008154610a0790614fe7565b91829055509050610a19600d82613434565b6000818152600c602052604081208b81559089905b81811015610ad457826001018c8c83818110610a4c57610a4c615001565b835460018101855560009485526020909420604090910292909201926002029091019050610a7a8282615030565b5050610acb84601060008f8f86818110610a9657610a96615001565b610aac9260206040909202019081019150614c02565b6001600160a01b031681526020810191909152604001600020906134c1565b50600101610a2e565b5060028201610ae4898b836150cb565b508a8a604051610af592919061518b565b60405180910390208c847f23ea023b108a98377fb5440ffbb7fe7a5c3827c821ef0e16fbd60af8b93cddac8c8c604051610b30929190615201565b60405180910390a450909a9950505050505050505050565b610b58610b53613233565b6134d4565b610b8e576040517fe4597a6b00000000000000000000000000000000000000000000000000000000815260040160405180910390fd5b8060066000828254610ba09190615215565b909155505050565b60008060019054906101000a90046001600160a01b03166001600160a01b031663d09edf316040518163ffffffff1660e01b8152600401602060405180830381865afa158015610bfc573d6000803e3d6000fd5b505050506040513d601f19601f82011682018060405250810190610c209190614ead565b90506000816001600160a01b03166355ff58d46040518163ffffffff1660e01b8152600401602060405180830381865afa158015610c62573d6000803e3d6000fd5b505050506040513d601f19601f82011682018060405250810190610c869190614efa565b9050816001600160a01b03166391d1485482610ca0613233565b6040516001600160e01b031960e085901b16815260048101929092526001600160a01b03166024820152604401602060405180830381865afa158015610cea573d6000803e3d6000fd5b505050506040513d601f19601f82011682018060405250810190610d0e9190614edf565b610d1b57806107ef613233565b60008060019054906101000a90046001600160a01b03166001600160a01b031663d09edf316040518163ffffffff1660e01b8152600401602060405180830381865afa158015610d6f573d6000803e3d6000fd5b505050506040513d601f19601f82011682018060405250810190610d939190614ead565b6040517f7d540a640000000000000000000000000000000000000000000000000000000081529091506001600160a01b03821690637d540a6490610ddf90899089908990600401615228565b600060405180830381600087803b158015610df957600080fd5b505af1158015610e0d573d6000803e3d6000fd5b50505050505050505050565b60008060019054906101000a90046001600160a01b03166001600160a01b031663d09edf316040518163ffffffff1660e01b8152600401602060405180830381865afa158015610e6d573d6000803e3d6000fd5b505050506040513d601f19601f82011682018060405250810190610e919190614ead565b90506000816001600160a01b03166355ff58d46040518163ffffffff1660e01b8152600401602060405180830381865afa158015610ed3573d6000803e3d6000fd5b505050506040513d601f19601f82011682018060405250810190610ef79190614efa565b9050816001600160a01b03166391d1485482610f11613233565b6040516001600160e01b031960e085901b16815260048101929092526001600160a01b03166024820152604401602060405180830381865afa158015610f5b573d6000803e3d6000fd5b505050506040513d601f19601f82011682018060405250810190610f7f9190614edf565b610f8c57806107ef613233565b60008060019054906101000a90046001600160a01b03166001600160a01b031663d09edf316040518163ffffffff1660e01b8152600401602060405180830381865afa158015610fe0573d6000803e3d6000fd5b505050506040513d601f19601f820116820180604052508101906110049190614ead565b6040517f648154530000000000000000000000000000000000000000000000000000000081529091506001600160a01b03821690636481545390610ddf90899089908990600401615228565b8261105a81612f9d565b611090576040517fab9dccca00000000000000000000000000000000000000000000000000000000815260040160405180910390fd5b6000848152600c6020526040902060030154849060ff16156110de576040517f581991ff00000000000000000000000000000000000000000000000000000000815260040160405180910390fd5b6000858152600c602090815260408083205480845260089092529091206003015460ff1615611139576040517fabd9d5d600000000000000000000000000000000000000000000000000000000815260040160405180910390fd5b856000611144613233565b90506000600c6000848152602001908152602001600020600101805480602002602001604051908101604052809291908181526020016000905b828210156111c6576000848152602090819020604080518082019091526002850290910180546001600160a01b0316825260019081015482840152908352909201910161117e565b5050825192935060009150505b8181101561121a57836001600160a01b03168382815181106111f7576111f7615001565b6020026020010151600001516001600160a01b0316031561121a576001016111d3565b818110611253576040517fb7b3e8c500000000000000000000000000000000000000000000000000000000815260040160405180910390fd5b60008b8152600c6020526040902060020161126f8a8c836150cb565b508a7f4128fe4992a5cb5a9cb54a23107ba2cd9db975f7f66fd5a978927aaf54350a998b8b6040516112a2929190615201565b60405180910390a25050505050505050505050565b6112e460405180608001604052806000815260200160008152602001606081526020016000151581525090565b816112ee816127be565b611324576040517f51e09ff800000000000000000000000000000000000000000000000000000000815260040160405180910390fd5b60086000848152602001908152602001600020604051806080016040529081600082015481526020016001820154815260200160028201805461136690614f6b565b80601f016020809104026020016040519081016040528092919081815260200182805461139290614f6b565b80156113df5780601f106113b4576101008083540402835291602001916113df565b820191906000526020600020905b8154815290600101906020018083116113c257829003601f168201915b50505091835250506003919091015460ff16151560209091015291505b50919050565b7f424f554e54595f49535355455200000000000000000000000000000000000000600060019054906101000a90046001600160a01b03166001600160a01b031663d09edf316040518163ffffffff1660e01b8152600401602060405180830381865afa158015611476573d6000803e3d6000fd5b505050506040513d601f19601f8201168201806040525081019061149a9190614ead565b6001600160a01b031663f3aafa70826114b1613233565b6040516001600160e01b031960e085901b16815260048101929092526001600160a01b03166024820152604401602060405180830381865afa1580156114fb573d6000803e3d6000fd5b505050506040513d601f19601f8201168201806040525081019061151f9190614edf565b61157657600060019054906101000a90046001600160a01b03166001600160a01b031663d09edf316040518163ffffffff1660e01b8152600401602060405180830381865afa158015610737573d6000803e3d6000fd5b83611580816127be565b6115b6576040517f51e09ff800000000000000000000000000000000000000000000000000000000815260040160405180910390fd5b600085815260086020526040902060030154859060ff1615611604576040517fabd9d5d600000000000000000000000000000000000000000000000000000000815260040160405180910390fd5b60008681526008602052604090206002016116208587836150cb565b508484604051611631929190615280565b6040519081900381209087907f5b748b1bf798d437f4457fa662e95d5b99ba7c5c739e2d6342c7d06c4ad4300790600090a3505050505050565b6060611677600d613567565b905090565b7ff0c57e16840df040f15088dc2f81fe391c3923bec73e23a9662efc9c229c6a00805468010000000000000000810460ff16159067ffffffffffffffff166000811580156116c75750825b905060008267ffffffffffffffff1660011480156116e45750303b155b9050811580156116f2575080155b15611729576040517ff92ee8a900000000000000000000000000000000000000000000000000000000815260040160405180910390fd5b84547fffffffffffffffffffffffffffffffffffffffffffffffff0000000000000000166001178555831561178a5784547fffffffffffffffffffffffffffffffffffffffffffffff00ffffffffffffffff16680100000000000000001785555b6117948888613621565b60001960008190527f5030e2ff9d3404671c17fc42c5714d9bdf34dbce2663e34014ba8c942df513fb819055600a819055600f6020527f5f49b1b339959b31ad74f07b88b44259ea11bfb77e53c425ee4e04612cace647819055600e5583156118525784547fffffffffffffffffffffffffffffffffffffffffffffff00ffffffffffffffff168555604051600181527fc7f505b2f371ae2175ee4913f4499e1f2633a7b5936321eed1cdaeb6115181d29060200160405180910390a15b5050505050505050565b60606001600301805461186e90614f6b565b80601f016020809104026020016040519081016040528092919081815260200182805461189a90614f6b565b80156118e75780601f106118bc576101008083540402835291602001916118e7565b820191906000526020600020905b8154815290600101906020018083116118ca57829003601f168201915b5050505050905090565b60606001600201805461186e90614f6b565b600080546040517f572b6c050000000000000000000000000000000000000000000000000000000081526001600160a01b0384811660048301526101009092049091169063572b6c0590602401602060405180830381865afa15801561196d573d6000803e3d6000fd5b505050506040513d601f19601f820116820180604052508101906105bb9190614edf565b8261199b81612f9d565b6119d1576040517fab9dccca00000000000000000000000000000000000000000000000000000000815260040160405180910390fd5b6000848152600c6020526040902060030154849060ff1615611a1f576040517f581991ff00000000000000000000000000000000000000000000000000000000815260040160405180910390fd5b6000858152600c602090815260408083205480845260089092529091206003015460ff1615611a7a576040517fabd9d5d600000000000000000000000000000000000000000000000000000000815260040160405180910390fd5b7f434c41494d414e54000000000000000000000000000000000000000000000000600060019054906101000a90046001600160a01b03166001600160a01b031663d09edf316040518163ffffffff1660e01b8152600401602060405180830381865afa158015611aee573d6000803e3d6000fd5b505050506040513d601f19601f82011682018060405250810190611b129190614ead565b6001600160a01b031663f3aafa7082611b29613233565b6040516001600160e01b031960e085901b16815260048101929092526001600160a01b03166024820152604401602060405180830381865afa158015611b73573d6000803e3d6000fd5b505050506040513d601f19601f82011682018060405250810190611b979190614edf565b611bee57600060019054906101000a90046001600160a01b03166001600160a01b031663d09edf316040518163ffffffff1660e01b8152600401602060405180830381865afa158015610737573d6000803e3d6000fd5b611c908686808060200260200160405190810160405280939291908181526020016000905b82821015611c3f57611c3060408302860136819003810190614f13565b81526020019060010190611c13565b50505060008b8152600c602090815260408083205483526008825291829020825160808101845281548152600182015492810192909252600281018054929550909350918401919061095e90614f6b565b6000878152600c60205260408120600181015490915b81811015611d0357611cfa8a60106000866001018581548110611ccb57611ccb615001565b600091825260208083206002909202909101546001600160a01b03168352820192909252604001902090613780565b50600101611ca6565b50611d12600183016000614635565b508560005b81811015611d885782600101898983818110611d3557611d35615001565b835460018101855560009485526020909420604090910292909201926002029091019050611d638282615030565b5050611d7f8a601060008c8c86818110610a9657610a96615001565b50600101611d17565b508787604051611d9992919061518b565b604051908190038120908a907f1d41ce0f1e2efe8a516e804c8208a8a92b1931eb13d5c7be8847790b6eb25ec190600090a3505050505050505050565b60008060019054906101000a90046001600160a01b03166001600160a01b031663d09edf316040518163ffffffff1660e01b8152600401602060405180830381865afa158015611e2a573d6000803e3d6000fd5b505050506040513d601f19601f82011682018060405250810190611e4e9190614ead565b90506000816001600160a01b03166355ff58d46040518163ffffffff1660e01b8152600401602060405180830381865afa158015611e90573d6000803e3d6000fd5b505050506040513d601f19601f82011682018060405250810190611eb49190614efa565b9050816001600160a01b03166391d1485482611ece613233565b6040516001600160e01b031960e085901b16815260048101929092526001600160a01b03166024820152604401602060405180830381865afa158015611f18573d6000803e3d6000fd5b505050506040513d601f19601f82011682018060405250810190611f3c9190614edf565b611f4957806107ef613233565b60008060019054906101000a90046001600160a01b03166001600160a01b031663d09edf316040518163ffffffff1660e01b8152600401602060405180830381865afa158015611f9d573d6000803e3d6000fd5b505050506040513d601f19601f82011682018060405250810190611fc19190614ead565b6040517fe1788154000000000000000000000000000000000000000000000000000000008152600481018790526001600160a01b0386811660248301529192509082169063e1788154906044015b600060405180830381600087803b15801561202957600080fd5b505af115801561203d573d6000803e3d6000fd5b505050505050505050565b60606005805480602002602001604051908101604052809291908181526020016000905b828210156120c9576000848152602090819020604080516080810182526004860290920180546001600160a01b0316835260018082015484860152600282015492840192909252600301546060830152908352909201910161206c565b50505050905090565b604080516080810182526001805482526002546020830152600380546000946116779493929084019161210490614f6b565b80601f016020809104026020016040519081016040528092919081815260200182805461213090614f6b565b801561217d5780601f106121525761010080835404028352916020019161217d565b820191906000526020600020905b81548152906001019060200180831161216057829003601f168201915b5050505050815260200160038201805461219690614f6b565b80601f01602080910402602001604051908101604052809291908181526020018280546121c290614f6b565b801561220f5780601f106121e45761010080835404028352916020019161220f565b820191906000526020600020905b8154815290600101906020018083116121f257829003601f168201915b50505050508152505061378c565b60008060019054906101000a90046001600160a01b03166001600160a01b0316637da0a8776040518163ffffffff1660e01b8152600401602060405180830381865afa158015612271573d6000803e3d6000fd5b505050506040513d601f19601f820116820180604052508101906116779190614ead565b60005460ff16156122d2576040517f904875a100000000000000000000000000000000000000000000000000000000815260040160405180910390fd5b50506000805460ff19166001179055565b6001600160a01b03811660009081526010602052604090206060906105bb906137cc565b60008180602001905181019061231d91906152c0565b5092915050565b60606116776009613567565b60008060019054906101000a90046001600160a01b03166001600160a01b031663d09edf316040518163ffffffff1660e01b8152600401602060405180830381865afa158015612384573d6000803e3d6000fd5b505050506040513d601f19601f820116820180604052508101906123a89190614ead565b90506000816001600160a01b03166355ff58d46040518163ffffffff1660e01b8152600401602060405180830381865afa1580156123ea573d6000803e3d6000fd5b505050506040513d601f19601f8201168201806040525081019061240e9190614efa565b9050816001600160a01b03166391d1485482612428613233565b6040516001600160e01b031960e085901b16815260048101929092526001600160a01b03166024820152604401602060405180830381865afa158015612472573d6000803e3d6000fd5b505050506040513d601f19601f820116820180604052508101906124969190614edf565b6124a357806107ef613233565b60008060019054906101000a90046001600160a01b03166001600160a01b031663d09edf316040518163ffffffff1660e01b8152600401602060405180830381865afa1580156124f7573d6000803e3d6000fd5b505050506040513d601f19601f8201168201806040525081019061251b9190614ead565b6040517fba66f9fc000000000000000000000000000000000000000000000000000000008152600481018790526001600160a01b0386811660248301529192509082169063ba66f9fc9060440161200f565b60007f424f554e54595f49535355455200000000000000000000000000000000000000600060019054906101000a90046001600160a01b03166001600160a01b031663d09edf316040518163ffffffff1660e01b8152600401602060405180830381865afa1580156125e3573d6000803e3d6000fd5b505050506040513d601f19601f820116820180604052508101906126079190614ead565b6001600160a01b031663f3aafa708261261e613233565b6040516001600160e01b031960e085901b16815260048101929092526001600160a01b03166024820152604401602060405180830381865afa158015612668573d6000803e3d6000fd5b505050506040513d601f19601f8201168201806040525081019061268c9190614edf565b6126e357600060019054906101000a90046001600160a01b03166001600160a01b031663d09edf316040518163ffffffff1660e01b8152600401602060405180830381865afa158015610737573d6000803e3d6000fd5b85858115806126f157508181105b15612728576040517f319c666800000000000000000000000000000000000000000000000000000000815260040160405180910390fd5b600060076000815461273990614fe7565b9182905550905061274b600982613434565b60008181526008602052604090208981556001810189905560028101612772888a836150cb565b50817f16aa89bae6ad0e0b7a94b930e87a8e04b02978ed503e2698b1b6359416e1ac838b8b8b8b6040516127a994939291906153ac565b60405180910390a25098975050505050505050565b60006105bb6009836137d9565b7f5645524946494552000000000000000000000000000000000000000000000000600060019054906101000a90046001600160a01b03166001600160a01b031663d09edf316040518163ffffffff1660e01b8152600401602060405180830381865afa15801561283f573d6000803e3d6000fd5b505050506040513d601f19601f820116820180604052508101906128639190614ead565b6001600160a01b031663f3aafa708261287a613233565b6040516001600160e01b031960e085901b16815260048101929092526001600160a01b03166024820152604401602060405180830381865afa1580156128c4573d6000803e3d6000fd5b505050506040513d601f19601f820116820180604052508101906128e89190614edf565b61293f57600060019054906101000a90046001600160a01b03166001600160a01b031663d09edf316040518163ffffffff1660e01b8152600401602060405180830381865afa158015610737573d6000803e3d6000fd5b8361294981612f9d565b61297f576040517fab9dccca00000000000000000000000000000000000000000000000000000000815260040160405180910390fd5b6000858152600c6020526040902060030154859060ff16156129cd576040517f581991ff00000000000000000000000000000000000000000000000000000000815260040160405180910390fd5b6000868152600c602090815260408083205480845260089092529091206003015460ff1615612a28576040517fabd9d5d600000000000000000000000000000000000000000000000000000000815260040160405180910390fd5b612a84878787808060200260200160405190810160405280939291908181526020016000905b82821015612a7a57612a6b60408302860136819003810190614f13565b81526020019060010190612a4e565b50505050506137fe565b6000878152600c6020908152604080832060010180548251818502810185019093528083529192909190849084015b82821015612afb576000848152602090819020604080518082019091526002850290910180546001600160a01b03168252600190810154828401529083529092019101612ab3565b505082516040805180820190915260008082526020820152939450929150612b209050565b60005b82811015612b8957838181518110612b3d57612b3d615001565b60200260200101519150612b81604051806080016040528084600001516001600160a01b031681526020018460200151815260200142815260200142815250613965565b600101612b23565b50600060019054906101000a90046001600160a01b03166001600160a01b031663f1c6bdf86040518163ffffffff1660e01b8152600401602060405180830381865afa158015612bdd573d6000803e3d6000fd5b505050506040513d601f19601f82011682018060405250810190612c019190614ead565b6040517fe151fc610000000000000000000000000000000000000000000000000000000081523060048201526001600160a01b03919091169063e151fc6190602401600060405180830381600087803b158015612c5d57600080fd5b505af1158015612c71573d6000803e3d6000fd5b50505060008b8152600c6020526040808220600301805460ff19166001179055518c92507f393efda0b92bc01071b66a816d6bcddde867b8c91da505a0f309d9133a53650a9190a250505050505050505050565b60606000612cd4610b53613233565b612d0a576040517fe4597a6b00000000000000000000000000000000000000000000000000000000815260040160405180910390fd5b600554600090818167ffffffffffffffff811115612d2a57612d2a614a0c565b604051908082528060200260200182016040528015612d8f57816020015b612d7c604051806080016040528060006001600160a01b031681526020016000815260200160008152602001600081525090565b815260200190600190039081612d485790505b50905060005b82811015612e4c5760058181548110612db057612db0615001565b600091825260209182902060408051608081018252600490930290910180546001600160a01b0316835260018101549383019390935260028301549082015260039091015460608201528251839083908110612e0e57612e0e615001565b6020026020010181905250818181518110612e2b57612e2b615001565b60200260200101516020015184612e4291906153cc565b9350600101612d95565b50612e5960056000614656565b612e6a612e64613233565b84613ab8565b612e75600654613ba9565b600654909590945092505050565b612eb060405180608001604052806000815260200160608152602001606081526020016000151581525090565b81612eba81612f9d565b612ef0576040517fab9dccca00000000000000000000000000000000000000000000000000000000815260040160405180910390fd5b600c60008481526020019081526020016000206040518060800160405290816000820154815260200160018201805480602002602001604051908101604052809291908181526020016000905b82821015612f85576000848152602090819020604080518082019091526002850290910180546001600160a01b03168252600190810154828401529083529092019101612f3d565b50505050815260200160028201805461136690614f6b565b60006105bb600d836137d9565b7f424f554e54595f49535355455200000000000000000000000000000000000000600060019054906101000a90046001600160a01b03166001600160a01b031663d09edf316040518163ffffffff1660e01b8152600401602060405180830381865afa15801561301e573d6000803e3d6000fd5b505050506040513d601f19601f820116820180604052508101906130429190614ead565b6001600160a01b031663f3aafa7082613059613233565b6040516001600160e01b031960e085901b16815260048101929092526001600160a01b03166024820152604401602060405180830381865afa1580156130a3573d6000803e3d6000fd5b505050506040513d601f19601f820116820180604052508101906130c79190614edf565b61311e57600060019054906101000a90046001600160a01b03166001600160a01b031663d09edf316040518163ffffffff1660e01b8152600401602060405180830381865afa158015610737573d6000803e3d6000fd5b81613128816127be565b61315e576040517f51e09ff800000000000000000000000000000000000000000000000000000000815260040160405180910390fd5b600083815260086020526040902060030154839060ff16156131ac576040517fabd9d5d600000000000000000000000000000000000000000000000000000000815260040160405180910390fd5b600084815260086020526040808220600301805460ff191660011790555185917fa0e18720f77efbbf5292a427112cd5b87106c4dd3e6b27fe1fa001090a508a4091a250505050565b60006001600160e01b031982167f02753f510000000000000000000000000000000000000000000000000000000014806105bb57506105bb82613ec7565b600036601461324133611903565b801561324d5750808210155b1561327d5760003661325f8385615215565b61326a9282906153df565b61327391615409565b60601c9250505090565b339250505090565b815160008190036132c2576040517f6dbf3d2600000000000000000000000000000000000000000000000000000000815260040160405180910390fd5b600080548190819061010090046001600160a01b0316815b858110156133e1578781815181106132f4576132f4615001565b60200260200101516020015193508360000361333c576040517f7d1deb2e00000000000000000000000000000000000000000000000000000000815260040160405180910390fd5b87818151811061334e5761334e615001565b60209081029190910101515192506001600160a01b038316158061337a57506001600160a01b03831630145b806133965750816001600160a01b0316836001600160a01b0316145b156133cd576040517f6516c49600000000000000000000000000000000000000000000000000000000815260040160405180910390fd5b6133d784866153cc565b94506001016132da565b5085602001518411806133f45750855184105b1561342b576040517fbbca26ee00000000000000000000000000000000000000000000000000000000815260040160405180910390fd5b50505050505050565b818161344082826137d9565b80613449575080155b15613480576040517f582fbbaf00000000000000000000000000000000000000000000000000000000815260040160405180910390fd5b6001840180546000908152600286016020526040808220869055858252812060001990559084905584549085906134b683614fe7565b919050555050505050565b60006134cd8383613f2e565b9392505050565b6000816001600160a01b0316600060019054906101000a90046001600160a01b03166001600160a01b031663f1c6bdf86040518163ffffffff1660e01b8152600401602060405180830381865afa158015613533573d6000803e3d6000fd5b505050506040513d601f19601f820116820180604052508101906135579190614ead565b6001600160a01b03161492915050565b60606000826000015467ffffffffffffffff81111561358857613588614a0c565b6040519080825280602002602001820160405280156135b1578160200160208202803683370190505b506000196000908152600285016020526040812054919250905b600019811461361857808383815181106135e7576135e7615001565b602090810291909101810191909152600091825260028601905260409020548161361081614fe7565b9250506135cb565b50909392505050565b613629613f7d565b6001600160a01b038216613669576040517f7280679300000000000000000000000000000000000000000000000000000000815260040160405180910390fd5b600080547fffffffffffffffffffffff0000000000000000000000000000000000000000ff166101006001600160a01b038516021790556136a981613fe6565b6136df576040517f7511254100000000000000000000000000000000000000000000000000000000815260040160405180910390fd5b80516001908155602082015160025560408201518291906003906137039082615451565b50606082015160038201906137189082615451565b505050606081015160405161372d9190615511565b604080519182900382208351602080860151918552840152916001600160a01b038516917feb175f148a71d29a5f7bf5439182fcd81e6ea9cfc8a11b54ab0f705fa98fa8ca910160405180910390a35050565b60006134cd8383614038565b60008160000151826040015183606001516040516020016137af9392919061552d565b604051602081830303815290604052805190602001209050919050565b606060006134cd8361412b565b6000818152600283016020526040812054158015906134cd5750506000191415919050565b6000828152600c6020908152604080832060010180548251818502810185019093528083529192909190849084015b82821015613875576000848152602090819020604080518082019091526002850290910180546001600160a01b0316825260019081015482840152908352909201910161382d565b5050845192935060009150505b8181101561395e5782818151811061389c5761389c615001565b6020026020010151600001516001600160a01b03168482815181106138c3576138c3615001565b6020026020010151600001516001600160a01b031614158061391f57508281815181106138f2576138f2615001565b60200260200101516020015184828151811061391057613910615001565b60200260200101516020015114155b15613956576040517fb854595500000000000000000000000000000000000000000000000000000000815260040160405180910390fd5b600101613882565b5050505050565b8061396f81614187565b81602001516006600082825461398591906153cc565b909155505060058054600181018255600091909152825160049091027f036b6384b5eca791c62761152d0c79bb0604c104a5fb6f4eb0703f3154bb3db0810180546001600160a01b039093167fffffffffffffffffffffffff00000000000000000000000000000000000000009093168317905560208401517f036b6384b5eca791c62761152d0c79bb0604c104a5fb6f4eb0703f3154bb3db182018190556040808601517f036b6384b5eca791c62761152d0c79bb0604c104a5fb6f4eb0703f3154bb3db284015560608601517f036b6384b5eca791c62761152d0c79bb0604c104a5fb6f4eb0703f3154bb3db39093019290925590517ffc9138d87583f51297afba99687e2a6bcf276a5e3e3ccec11b3ca0052ac2e9d991613aac9190815260200190565b60405180910390a25050565b613ba58282600060019054906101000a90046001600160a01b03166001600160a01b03166304baed9e6040518163ffffffff1660e01b8152600401602060405180830381865afa158015613b10573d6000803e3d6000fd5b505050506040513d601f19601f82011682018060405250810190613b349190614ead565b6001600160a01b031663fc0c546a6040518163ffffffff1660e01b8152600401602060405180830381865afa158015613b71573d6000803e3d6000fd5b505050506040513d601f19601f82011682018060405250810190613b959190614ead565b6001600160a01b0316919061421f565b5050565b60008060019054906101000a90046001600160a01b03166001600160a01b03166304baed9e6040518163ffffffff1660e01b8152600401602060405180830381865afa158015613bfd573d6000803e3d6000fd5b505050506040513d601f19601f82011682018060405250810190613c219190614ead565b6001600160a01b031663fc0c546a6040518163ffffffff1660e01b8152600401602060405180830381865afa158015613c5e573d6000803e3d6000fd5b505050506040513d601f19601f82011682018060405250810190613c829190614ead565b6040517f70a082310000000000000000000000000000000000000000000000000000000081523060048201526001600160a01b0391909116906370a0823190602401602060405180830381865afa158015613ce1573d6000803e3d6000fd5b505050506040513d601f19601f82011682018060405250810190613d059190614efa565b905081811015613ba55760008054604080517f04baed9e00000000000000000000000000000000000000000000000000000000815290516101009092046001600160a01b03169163685dc6b19183916304baed9e916004808201926020929091908290030181865afa158015613d7f573d6000803e3d6000fd5b505050506040513d601f19601f82011682018060405250810190613da39190614ead565b30613dae8688615215565b6040516001600160a01b039092166024830152604482015260640160408051601f198184030181529181526020820180517bffffffffffffffffffffffffffffffffffffffffffffffffffffffff167f759cc4b500000000000000000000000000000000000000000000000000000000179052516001600160e01b031960e085901b168152613e4192919060040161556a565b6000604051808303816000875af1158015613e60573d6000803e3d6000fd5b505050506040513d6000823e601f3d908101601f19168201604052613e88919081019061558c565b50905080613ec2576040517f1a299f4400000000000000000000000000000000000000000000000000000000815260040160405180910390fd5b505050565b60006001600160e01b031982167f8c600c230000000000000000000000000000000000000000000000000000000014806105bb57507f01ffc9a7000000000000000000000000000000000000000000000000000000006001600160e01b03198316146105bb565b6000818152600183016020526040812054613f75575081546001818101845560008481526020808220909301849055845484825282860190935260409020919091556105bb565b5060006105bb565b7ff0c57e16840df040f15088dc2f81fe391c3923bec73e23a9662efc9c229c6a005468010000000000000000900460ff16613fe4576040517fd7e6bcf800000000000000000000000000000000000000000000000000000000815260040160405180910390fd5b565b6000816040015151600003613ffd57506000919050565b81606001515160000361401257506000919050565b815115801561402357506020820151155b1561403057506000919050565b506001919050565b6000818152600183016020526040812054801561412157600061405c600183615215565b855490915060009061407090600190615215565b90508082146140d557600086600001828154811061409057614090615001565b90600052602060002001549050808760000184815481106140b3576140b3615001565b6000918252602080832090910192909255918252600188019052604090208390555b85548690806140e6576140e66155e4565b6001900381819060005260206000200160009055905585600101600086815260200190815260200160002060009055600193505050506105bb565b60009150506105bb565b60608160000180548060200260200160405190810160405280929190818152602001828054801561417b57602002820191906000526020600020905b815481526020019060010190808311614167575b50505050509050919050565b80602001516000036141c5576040517fa39a350e00000000000000000000000000000000000000000000000000000000815260040160405180910390fd5b80516001600160a01b031615806141e5575080516001600160a01b031630145b1561421c576040517f0cef278700000000000000000000000000000000000000000000000000000000815260040160405180910390fd5b50565b6040517fdd62ed3e0000000000000000000000000000000000000000000000000000000081523060048201526001600160a01b0383811660248301526000919085169063dd62ed3e90604401602060405180830381865afa158015614288573d6000803e3d6000fd5b505050506040513d601f19601f820116820180604052508101906142ac9190614efa565b90506142c284846142bd85856153cc565b6142c8565b50505050565b604080516001600160a01b038416602482015260448082018490528251808303909101815260649091019091526020810180517bffffffffffffffffffffffffffffffffffffffffffffffffffffffff167f095ea7b30000000000000000000000000000000000000000000000000000000017905261434784826143d8565b6142c257604080516001600160a01b038516602482015260006044808301919091528251808303909101815260649091019091526020810180517bffffffffffffffffffffffffffffffffffffffffffffffffffffffff167f095ea7b3000000000000000000000000000000000000000000000000000000001790526143ce908590614480565b6142c28482614480565b6000806000846001600160a01b0316846040516143f59190615511565b6000604051808303816000865af19150503d8060008114614432576040519150601f19603f3d011682016040523d82523d6000602084013e614437565b606091505b50915091508180156144615750805115806144615750808060200190518101906144619190614edf565b801561447757506000856001600160a01b03163b115b95945050505050565b60006144956001600160a01b038416836144fc565b905080516000141580156144ba5750808060200190518101906144b89190614edf565b155b15613ec2576040517f5274afe70000000000000000000000000000000000000000000000000000000081526001600160a01b038416600482015260240161082f565b60606134cd8383600084600080856001600160a01b031684866040516145229190615511565b60006040518083038185875af1925050503d806000811461455f576040519150601f19603f3d011682016040523d82523d6000602084013e614564565b606091505b509150915061457486838361457e565b9695505050505050565b6060826145935761458e826145f3565b6134cd565b81511580156145aa57506001600160a01b0384163b155b156145ec576040517f9996b3150000000000000000000000000000000000000000000000000000000081526001600160a01b038516600482015260240161082f565b50806134cd565b8051156146035780518082602001fd5b6040517f1425ea4200000000000000000000000000000000000000000000000000000000815260040160405180910390fd5b508054600082556002029060005260206000209081019061421c9190614677565b508054600082556004029060005260206000209081019061421c91906146b9565b5b808211156146b55780547fffffffffffffffffffffffff000000000000000000000000000000000000000016815560006001820155600201614678565b5090565b5b808211156146b55780547fffffffffffffffffffffffff00000000000000000000000000000000000000001681556000600182018190556002820181905560038201556004016146ba565b60006020828403121561471757600080fd5b81356001600160e01b0319811681146134cd57600080fd5b60008083601f84011261474157600080fd5b50813567ffffffffffffffff81111561475957600080fd5b6020830191508360208260061b850101111561477457600080fd5b9250929050565b60008083601f84011261478d57600080fd5b50813567ffffffffffffffff8111156147a557600080fd5b60208301915083602082850101111561477457600080fd5b6000806000806000606086880312156147d557600080fd5b85359450602086013567ffffffffffffffff808211156147f457600080fd5b61480089838a0161472f565b9096509450604088013591508082111561481957600080fd5b506148268882890161477b565b969995985093965092949392505050565b60006020828403121561484957600080fd5b5035919050565b60008060006040848603121561486557600080fd5b83359250602084013567ffffffffffffffff8082111561488457600080fd5b818601915086601f83011261489857600080fd5b8135818111156148a757600080fd5b8760208260051b85010111156148bc57600080fd5b6020830194508093505050509250925092565b6000806000604084860312156148e457600080fd5b83359250602084013567ffffffffffffffff81111561490257600080fd5b61490e8682870161477b565b9497909650939450505050565b60005b8381101561493657818101518382015260200161491e565b50506000910152565b6000815180845261495781602086016020860161491b565b601f01601f19169290920160200192915050565b602081528151602082015260208201516040820152600060408301516080606084015261499b60a084018261493f565b90506060840151151560808401528091505092915050565b6020808252825182820181905260009190848201906040850190845b818110156149eb578351835292840192918401916001016149cf565b50909695505050505050565b6001600160a01b038116811461421c57600080fd5b7f4e487b7100000000000000000000000000000000000000000000000000000000600052604160045260246000fd5b6040516080810167ffffffffffffffff81118282101715614a5e57614a5e614a0c565b60405290565b604051601f8201601f1916810167ffffffffffffffff81118282101715614a8d57614a8d614a0c565b604052919050565b600067ffffffffffffffff821115614aaf57614aaf614a0c565b50601f01601f191660200190565b600082601f830112614ace57600080fd5b8135614ae1614adc82614a95565b614a64565b818152846020838601011115614af657600080fd5b816020850160208301376000918101602001919091529392505050565b600080600060608486031215614b2857600080fd5b8335614b33816149f7565b9250602084013567ffffffffffffffff80821115614b5057600080fd5b9085019060808288031215614b6457600080fd5b614b6c614a3b565b8235815260208301356020820152604083013582811115614b8c57600080fd5b614b9889828601614abd565b604083015250606083013582811115614bb057600080fd5b614bbc89828601614abd565b60608301525093506040860135915080821115614bd857600080fd5b50614be586828701614abd565b9150509250925092565b6020815260006134cd602083018461493f565b600060208284031215614c1457600080fd5b81356134cd816149f7565b600080600060408486031215614c3457600080fd5b83359250602084013567ffffffffffffffff811115614c5257600080fd5b61490e8682870161472f565b60008060408385031215614c7157600080fd5b823591506020830135614c83816149f7565b809150509250929050565b60008151808452602080850194506020840160005b83811015614ce857815180516001600160a01b031688528381015184890152604080820151908901526060908101519088015260809096019590820190600101614ca3565b509495945050505050565b6020815260006134cd6020830184614c8e565b60008060408385031215614d1957600080fd5b8235614d24816149f7565b9150602083013567ffffffffffffffff811115614d4057600080fd5b614d4c85828601614abd565b9150509250929050565b600060208284031215614d6857600080fd5b813567ffffffffffffffff811115614d7f57600080fd5b614d8b84828501614abd565b949350505050565b60008060008060608587031215614da957600080fd5b8435935060208501359250604085013567ffffffffffffffff811115614dce57600080fd5b614dda8782880161477b565b95989497509550505050565b604081526000614df96040830185614c8e565b90508260208301529392505050565b6000602080835260a083018451828501528185015160406080604087015282825180855260c0880191508584019450600093505b80841015614e6e57845180516001600160a01b0316835286015186830152938501936001939093019290820190614e3c565b5060408801519450601f19878203016060880152614e8c818661493f565b9450505050506060840151614ea5608085018215159052565b509392505050565b600060208284031215614ebf57600080fd5b81516134cd816149f7565b80518015158114614eda57600080fd5b919050565b600060208284031215614ef157600080fd5b6134cd82614eca565b600060208284031215614f0c57600080fd5b5051919050565b600060408284031215614f2557600080fd5b6040516040810181811067ffffffffffffffff82111715614f4857614f48614a0c565b6040528235614f56816149f7565b81526020928301359281019290925250919050565b600181811c90821680614f7f57607f821691505b6020821081036113fc577f4e487b7100000000000000000000000000000000000000000000000000000000600052602260045260246000fd5b7f4e487b7100000000000000000000000000000000000000000000000000000000600052601160045260246000fd5b60006000198203614ffa57614ffa614fb8565b5060010190565b7f4e487b7100000000000000000000000000000000000000000000000000000000600052603260045260246000fd5b813561503b816149f7565b6001600160a01b0381167fffffffffffffffffffffffff000000000000000000000000000000000000000083541617825550602082013560018201555050565b601f821115613ec2576000816000526020600020601f850160051c810160208610156150a45750805b601f850160051c820191505b818110156150c3578281556001016150b0565b505050505050565b67ffffffffffffffff8311156150e3576150e3614a0c565b6150f7836150f18354614f6b565b8361507b565b6000601f84116001811461512b57600085156151135750838201355b600019600387901b1c1916600186901b17835561395e565b600083815260209020601f19861690835b8281101561515c578685013582556020948501946001909201910161513c565b50868210156151795760001960f88860031b161c19848701351681555b505060018560011b0183555050505050565b60008184825b858110156151cb5781356151a4816149f7565b6001600160a01b031683526020828101359084015260409283019290910190600101615191565b509095945050505050565b818352818160208501375060006020828401015260006020601f19601f840116840101905092915050565b602081526000614d8b6020830184866151d6565b818103818111156105bb576105bb614fb8565b83815260406020808301829052908201839052600090849060608401835b86811015615274578335615259816149f7565b6001600160a01b031682529282019290820190600101615246565b50979650505050505050565b8183823760009101908152919050565b600061529e614adc84614a95565b90508281528383830111156152b257600080fd5b6134cd83602083018461491b565b60008060408084860312156152d457600080fd5b6152dd84614eca565b925060208085015167ffffffffffffffff808211156152fb57600080fd5b818701915087601f83011261530f57600080fd5b81518181111561532157615321614a0c565b8060051b615330858201614a64565b918252838101850191858101908b84111561534a57600080fd5b86860192505b8383101561539a578251858111156153685760008081fd5b8601603f81018d1361537a5760008081fd5b61538a8d898301518b8401615290565b8352509186019190860190615350565b80985050505050505050509250929050565b8481528360208201526060604082015260006145746060830184866151d6565b808201808211156105bb576105bb614fb8565b600080858511156153ef57600080fd5b838611156153fc57600080fd5b5050820193919092039150565b7fffffffffffffffffffffffffffffffffffffffff00000000000000000000000081358181169160148510156154495780818660140360031b1b83161692505b505092915050565b815167ffffffffffffffff81111561546b5761546b614a0c565b61547f816154798454614f6b565b8461507b565b602080601f8311600181146154b4576000841561549c5750858301515b600019600386901b1c1916600185901b1785556150c3565b600085815260208120601f198616915b828110156154e3578886015182559484019460019091019084016154c4565b50858210156155015787850151600019600388901b60f8161c191681555b5050505050600190811b01905550565b6000825161552381846020870161491b565b9190910192915050565b8381526000835161554581602085016020880161491b565b8083019050835161555d81602084016020880161491b565b0160200195945050505050565b6001600160a01b0383168152604060208201526000614d8b604083018461493f565b6000806040838503121561559f57600080fd5b6155a883614eca565b9150602083015167ffffffffffffffff8111156155c457600080fd5b8301601f810185136155d557600080fd5b614d4c85825160208401615290565b7f4e487b7100000000000000000000000000000000000000000000000000000000600052603160045260246000fdfea2646970667358221220ef9866efb6e485b217daded99339ba4ed6d291c734d531c531ff252e243bc62664736f6c63430008170033",
    "linkReferences": {}
  },
  "methodIdentifiers": {
    "BOUNTY_ISSUER_ROLE()": "7bfee048",
    "CLAIMANT_ROLE()": "8a867368",
    "VERIFIER_ROLE()": "e7705db6",
    "addBounty(uint256,uint256,bytes)": "bd769f79",
    "addClaim(uint256,(address,uint256)[],bytes)": "0d97d72c",
    "amountPaid(uint256)": "13e64063",
    "collectPaymentOrders()": "c0231ff6",
    "decoder(bytes)": "9e978575",
    "getBountyInformation(uint256)": "31be580e",
    "getClaimInformation(uint256)": "cb05296f",
    "grantModuleRole(bytes32,address)": "6c67e807",
    "grantModuleRoleBatched(bytes32,address[])": "272bbd44",
    "identifier()": "7998a1c4",
    "init(address,(uint256,uint256,string,string),bytes)": "42dfe958",
    "init2(address,bytes)": "9bfdf766",
    "isExistingBountyId(uint256)": "be5a5745",
    "isExistingClaimId(uint256)": "e2114c8c",
    "isTrustedForwarder(address)": "572b6c05",
    "listBountyIds()": "b5e8bc45",
    "listClaimIds()": "3cd6b5d1",
    "listClaimIdsForContributorAddress(address)": "9c16f525",
    "lockBounty(uint256)": "fa4dbd03",
    "orchestrator()": "b74795d9",
    "outstandingTokenAmount()": "a44a6bb2",
    "paymentOrders()": "75fa0b76",
    "revokeModuleRole(bytes32,address)": "bcb61920",
    "revokeModuleRoleBatched(bytes32,address[])": "24e30270",
    "supportsInterface(bytes4)": "01ffc9a7",
    "title()": "4a79d50c",
    "trustedForwarder()": "7da0a877",
    "updateBounty(uint256,bytes)": "31de0bdb",
    "updateClaimContributors(uint256,(address,uint256)[])": "5beaeb8c",
    "updateClaimDetails(uint256,bytes)": "2d54a71c",
    "url()": "5600f04f",
    "verifyClaim(uint256,(address,uint256)[])": "bf1f9656",
    "version()": "54fd4d50"
  },
  "id": 143
}