{
  "abi": [
    {
      "type": "function",
      "name": "decoder",
      "inputs": [
        {
          "name": "data",
          "type": "bytes",
          "internalType": "bytes"
        }
      ],
      "outputs": [
        {
          "name": "requirement",
          "type": "bool",
          "internalType": "bool"
        }
      ],
      "stateMutability": "pure"
    },
    {
      "type": "function",
      "name": "getManagerMetadata",
      "inputs": [],
      "outputs": [
        {
          "name": "",
          "type": "tuple",
          "internalType": "struct IMetadataManager.ManagerMetadata",
          "components": [
            {
              "name": "name",
              "type": "string",
              "internalType": "string"
            },
            {
              "name": "account",
              "type": "address",
              "internalType": "address"
            },
            {
              "name": "twitterHandle",
              "type": "string",
              "internalType": "string"
            }
          ]
        }
      ],
      "stateMutability": "view"
    },
    {
      "type": "function",
      "name": "getOrchestratorMetadata",
      "inputs": [],
      "outputs": [
        {
          "name": "",
          "type": "tuple",
          "internalType": "struct IMetadataManager.OrchestratorMetadata",
          "components": [
            {
              "name": "title",
              "type": "string",
              "internalType": "string"
            },
            {
              "name": "descriptionShort",
              "type": "string",
              "internalType": "string"
            },
            {
              "name": "descriptionLong",
              "type": "string",
              "internalType": "string"
            },
            {
              "name": "externalMedias",
              "type": "string[]",
              "internalType": "string[]"
            },
            {
              "name": "categories",
              "type": "string[]",
              "internalType": "string[]"
            }
          ]
        }
      ],
      "stateMutability": "view"
    },
    {
      "type": "function",
      "name": "getTeamMetadata",
      "inputs": [],
      "outputs": [
        {
          "name": "",
          "type": "tuple[]",
          "internalType": "struct IMetadataManager.MemberMetadata[]",
          "components": [
            {
              "name": "name",
              "type": "string",
              "internalType": "string"
            },
            {
              "name": "account",
              "type": "address",
              "internalType": "address"
            },
            {
              "name": "url",
              "type": "string",
              "internalType": "string"
            }
          ]
        }
      ],
      "stateMutability": "view"
    },
    {
      "type": "function",
      "name": "grantModuleRole",
      "inputs": [
        {
          "name": "role",
          "type": "bytes32",
          "internalType": "bytes32"
        },
        {
          "name": "addr",
          "type": "address",
          "internalType": "address"
        }
      ],
      "outputs": [],
      "stateMutability": "nonpayable"
    },
    {
      "type": "function",
      "name": "identifier",
      "inputs": [],
      "outputs": [
        {
          "name": "",
          "type": "bytes32",
          "internalType": "bytes32"
        }
      ],
      "stateMutability": "view"
    },
    {
      "type": "function",
      "name": "init",
      "inputs": [
        {
          "name": "orchestrator_",
          "type": "address",
          "internalType": "contract IOrchestrator"
        },
        {
          "name": "metadata",
          "type": "tuple",
          "internalType": "struct IModule.Metadata",
          "components": [
            {
              "name": "majorVersion",
              "type": "uint256",
              "internalType": "uint256"
            },
            {
              "name": "minorVersion",
              "type": "uint256",
              "internalType": "uint256"
            },
            {
              "name": "url",
              "type": "string",
              "internalType": "string"
            },
            {
              "name": "title",
              "type": "string",
              "internalType": "string"
            }
          ]
        },
        {
          "name": "configData",
          "type": "bytes",
          "internalType": "bytes"
        }
      ],
      "outputs": [],
      "stateMutability": "nonpayable"
    },
    {
      "type": "function",
      "name": "init2",
      "inputs": [
        {
          "name": "orchestrator_",
          "type": "address",
          "internalType": "contract IOrchestrator"
        },
        {
          "name": "dependencyData",
          "type": "bytes",
          "internalType": "bytes"
        }
      ],
      "outputs": [],
      "stateMutability": "nonpayable"
    },
    {
      "type": "function",
      "name": "isTrustedForwarder",
      "inputs": [
        {
          "name": "forwarder",
          "type": "address",
          "internalType": "address"
        }
      ],
      "outputs": [
        {
          "name": "",
          "type": "bool",
          "internalType": "bool"
        }
      ],
      "stateMutability": "view"
    },
    {
      "type": "function",
      "name": "orchestrator",
      "inputs": [],
      "outputs": [
        {
          "name": "",
          "type": "address",
          "internalType": "contract IOrchestrator"
        }
      ],
      "stateMutability": "view"
    },
    {
      "type": "function",
      "name": "revokeModuleRole",
      "inputs": [
        {
          "name": "role",
          "type": "bytes32",
          "internalType": "bytes32"
        },
        {
          "name": "addr",
          "type": "address",
          "internalType": "address"
        }
      ],
      "outputs": [],
      "stateMutability": "nonpayable"
    },
    {
      "type": "function",
      "name": "setManagerMetadata",
      "inputs": [
        {
          "name": "managerMetadata_",
          "type": "tuple",
          "internalType": "struct IMetadataManager.ManagerMetadata",
          "components": [
            {
              "name": "name",
              "type": "string",
              "internalType": "string"
            },
            {
              "name": "account",
              "type": "address",
              "internalType": "address"
            },
            {
              "name": "twitterHandle",
              "type": "string",
              "internalType": "string"
            }
          ]
        }
      ],
      "outputs": [],
      "stateMutability": "nonpayable"
    },
    {
      "type": "function",
      "name": "setOrchestratorMetadata",
      "inputs": [
        {
          "name": "orchestratorMetadata_",
          "type": "tuple",
          "internalType": "struct IMetadataManager.OrchestratorMetadata",
          "components": [
            {
              "name": "title",
              "type": "string",
              "internalType": "string"
            },
            {
              "name": "descriptionShort",
              "type": "string",
              "internalType": "string"
            },
            {
              "name": "descriptionLong",
              "type": "string",
              "internalType": "string"
            },
            {
              "name": "externalMedias",
              "type": "string[]",
              "internalType": "string[]"
            },
            {
              "name": "categories",
              "type": "string[]",
              "internalType": "string[]"
            }
          ]
        }
      ],
      "outputs": [],
      "stateMutability": "nonpayable"
    },
    {
      "type": "function",
      "name": "setTeamMetadata",
      "inputs": [
        {
          "name": "teamMetadata_",
          "type": "tuple[]",
          "internalType": "struct IMetadataManager.MemberMetadata[]",
          "components": [
            {
              "name": "name",
              "type": "string",
              "internalType": "string"
            },
            {
              "name": "account",
              "type": "address",
              "internalType": "address"
            },
            {
              "name": "url",
              "type": "string",
              "internalType": "string"
            }
          ]
        }
      ],
      "outputs": [],
      "stateMutability": "nonpayable"
    },
    {
      "type": "function",
      "name": "supportsInterface",
      "inputs": [
        {
          "name": "interfaceId",
          "type": "bytes4",
          "internalType": "bytes4"
        }
      ],
      "outputs": [
        {
          "name": "",
          "type": "bool",
          "internalType": "bool"
        }
      ],
      "stateMutability": "view"
    },
    {
      "type": "function",
      "name": "title",
      "inputs": [],
      "outputs": [
        {
          "name": "",
          "type": "string",
          "internalType": "string"
        }
      ],
      "stateMutability": "view"
    },
    {
      "type": "function",
      "name": "url",
      "inputs": [],
      "outputs": [
        {
          "name": "",
          "type": "string",
          "internalType": "string"
        }
      ],
      "stateMutability": "view"
    },
    {
      "type": "function",
      "name": "version",
      "inputs": [],
      "outputs": [
        {
          "name": "",
          "type": "uint256",
          "internalType": "uint256"
        },
        {
          "name": "",
          "type": "uint256",
          "internalType": "uint256"
        }
      ],
      "stateMutability": "view"
    },
    {
      "type": "event",
      "name": "Initialized",
      "inputs": [
        {
          "name": "version",
          "type": "uint64",
          "indexed": false,
          "internalType": "uint64"
        }
      ],
      "anonymous": false
    },
    {
      "type": "event",
      "name": "ManagerMetadataUpdated",
      "inputs": [
        {
          "name": "name",
          "type": "string",
          "indexed": false,
          "internalType": "string"
        },
        {
          "name": "account",
          "type": "address",
          "indexed": false,
          "internalType": "address"
        },
        {
          "name": "twitterHandle",
          "type": "string",
          "indexed": false,
          "internalType": "string"
        }
      ],
      "anonymous": false
    },
    {
      "type": "event",
      "name": "ModuleInitialized",
      "inputs": [
        {
          "name": "parentOrchestrator",
          "type": "address",
          "indexed": true,
          "internalType": "address"
        },
        {
          "name": "moduleTitle",
          "type": "string",
          "indexed": true,
          "internalType": "string"
        },
        {
          "name": "majorVersion",
          "type": "uint256",
          "indexed": false,
          "internalType": "uint256"
        },
        {
          "name": "minorVersion",
          "type": "uint256",
          "indexed": false,
          "internalType": "uint256"
        }
      ],
      "anonymous": false
    },
    {
      "type": "event",
      "name": "OrchestratorMetadataUpdated",
      "inputs": [
        {
          "name": "title",
          "type": "string",
          "indexed": false,
          "internalType": "string"
        },
        {
          "name": "descriptionShort",
          "type": "string",
          "indexed": false,
          "internalType": "string"
        },
        {
          "name": "descriptionLong",
          "type": "string",
          "indexed": false,
          "internalType": "string"
        },
        {
          "name": "externalMedias",
          "type": "string[]",
          "indexed": false,
          "internalType": "string[]"
        },
        {
          "name": "categories",
          "type": "string[]",
          "indexed": false,
          "internalType": "string[]"
        }
      ],
      "anonymous": false
    },
    {
      "type": "event",
      "name": "TeamMetadataUpdated",
      "inputs": [
        {
          "name": "members",
          "type": "tuple[]",
          "indexed": false,
          "internalType": "struct IMetadataManager.MemberMetadata[]",
          "components": [
            {
              "name": "name",
              "type": "string",
              "internalType": "string"
            },
            {
              "name": "account",
              "type": "address",
              "internalType": "address"
            },
            {
              "name": "url",
              "type": "string",
              "internalType": "string"
            }
          ]
        }
      ],
      "anonymous": false
    },
    {
      "type": "error",
      "name": "InvalidInitialization",
      "inputs": []
    },
    {
      "type": "error",
      "name": "Module_OrchestratorCallbackFailed",
      "inputs": [
        {
          "name": "funcSig",
          "type": "string",
          "internalType": "string"
        }
      ]
    },
    {
      "type": "error",
      "name": "Module__CallerNotAuthorized",
      "inputs": [
        {
          "name": "role",
          "type": "bytes32",
          "internalType": "bytes32"
        },
        {
          "name": "caller",
          "type": "address",
          "internalType": "address"
        }
      ]
    },
    {
      "type": "error",
      "name": "Module__CannotCallInit2Again",
      "inputs": []
    },
    {
      "type": "error",
      "name": "Module__InvalidMetadata",
      "inputs": []
    },
    {
      "type": "error",
      "name": "Module__InvalidOrchestratorAddress",
      "inputs": []
    },
    {
      "type": "error",
      "name": "Module__NoDependencyOrMalformedDependencyData",
      "inputs": []
    },
    {
      "type": "error",
      "name": "Module__OnlyCallableByOrchestrator",
      "inputs": []
    },
    {
      "type": "error",
      "name": "NotInitializing",
      "inputs": []
    }
  ],
  "bytecode": {
    "object": "0x60806040523480156200001157600080fd5b506200001c62000022565b620000d6565b7ff0c57e16840df040f15088dc2f81fe391c3923bec73e23a9662efc9c229c6a00805468010000000000000000900460ff1615620000735760405163f92ee8a960e01b815260040160405180910390fd5b80546001600160401b0390811614620000d35780546001600160401b0319166001600160401b0390811782556040519081527fc7f505b2f371ae2175ee4913f4499e1f2633a7b5936321eed1cdaeb6115181d29060200160405180910390a15b50565b61340780620000e66000396000f3fe608060405234801561001057600080fd5b50600436106101365760003560e01c80637bbecbd2116100b25780639bfdf76611610081578063ac7dd6b611610066578063ac7dd6b614610277578063b74795d91461028a578063bcb61920146102b357600080fd5b80639bfdf766146102515780639e9785751461026457600080fd5b80637bbecbd2146101ff5780638c16b25b146102145780638d3462af14610227578063972dc7981461023c57600080fd5b80635600f04f11610109578063572b6c05116100ee578063572b6c05146101c35780636c67e807146101d65780637998a1c4146101e957600080fd5b80635600f04f146101a85780635633082b146101b057600080fd5b806301ffc9a71461013b57806342dfe958146101635780634a79d50c1461017857806354fd4d501461018d575b600080fd5b61014e61014936600461245c565b6102c6565b60405190151581526020015b60405180910390f35b610176610171366004612600565b610322565b005b6101806104e2565b60405161015a919061272c565b6001546002546040805192835260208301919091520161015a565b610180610577565b6101766101be36600461273f565b610589565b61014e6101d13660046127b4565b610885565b6101766101e43660046127d1565b610913565b6101f1610b9d565b60405190815260200161015a565b610207610ced565b60405161015a919061284b565b6101766102223660046128cd565b610e87565b61022f61112b565b60405161015a9190612908565b610244611294565b60405161015a9190612975565b61017661025f366004612a07565b611640565b61014e610272366004612a57565b6116ed565b610176610285366004612a94565b61170a565b60005461010090046001600160a01b03166040516001600160a01b03909116815260200161015a565b6101766102c13660046127d1565b6119a8565b60007fffffffff0000000000000000000000000000000000000000000000000000000082167f17ff022300000000000000000000000000000000000000000000000000000000148061031c575061031c82611bfd565b92915050565b7ff0c57e16840df040f15088dc2f81fe391c3923bec73e23a9662efc9c229c6a00805468010000000000000000810460ff16159067ffffffffffffffff1660008115801561036d5750825b905060008267ffffffffffffffff16600114801561038a5750303b155b905081158015610398575080155b156103cf576040517ff92ee8a900000000000000000000000000000000000000000000000000000000815260040160405180910390fd5b84547fffffffffffffffffffffffffffffffffffffffffffffffff000000000000000016600117855583156104305784547fffffffffffffffffffffffffffffffffffffffffffffff00ffffffffffffffff16680100000000000000001785555b61043a8888611c94565b6000806000888060200190518101906104539190612cc8565b92509250925061046283611df3565b61046b82611ea4565b61047481611f63565b50505083156104d85784547fffffffffffffffffffffffffffffffffffffffffffffff00ffffffffffffffff168555604051600181527fc7f505b2f371ae2175ee4913f4499e1f2633a7b5936321eed1cdaeb6115181d29060200160405180910390a15b5050505050505050565b6060600160030180546104f490612e05565b80601f016020809104026020016040519081016040528092919081815260200182805461052090612e05565b801561056d5780601f106105425761010080835404028352916020019161056d565b820191906000526020600020905b81548152906001019060200180831161055057829003601f168201915b5050505050905090565b6060600160020180546104f490612e05565b60008060019054906101000a90046001600160a01b03166001600160a01b031663d09edf316040518163ffffffff1660e01b8152600401602060405180830381865afa1580156105dd573d6000803e3d6000fd5b505050506040513d601f19601f820116820180604052508101906106019190612e58565b90506000816001600160a01b03166355ff58d46040518163ffffffff1660e01b8152600401602060405180830381865afa158015610643573d6000803e3d6000fd5b505050506040513d601f19601f820116820180604052508101906106679190612e75565b90506000826001600160a01b031663328c4c306040518163ffffffff1660e01b8152600401602060405180830381865afa1580156106a9573d6000803e3d6000fd5b505050506040513d601f19601f820116820180604052508101906106cd9190612e75565b9050826001600160a01b03166391d14854836106e761205f565b6040517fffffffff0000000000000000000000000000000000000000000000000000000060e085901b16815260048101929092526001600160a01b03166024820152604401602060405180830381865afa158015610749573d6000803e3d6000fd5b505050506040513d601f19601f8201168201806040525081019061076d9190612e9e565b806108115750826001600160a01b03166391d148548261078b61205f565b6040517fffffffff0000000000000000000000000000000000000000000000000000000060e085901b16815260048101929092526001600160a01b03166024820152604401602060405180830381865afa1580156107ed573d6000803e3d6000fd5b505050506040513d601f19601f820116820180604052508101906108119190612e9e565b1561082d576108286108238587612f32565b611f63565b61087e565b8161083661205f565b6040517f42abbb7700000000000000000000000000000000000000000000000000000000815260048101929092526001600160a01b0316602482015260440160405180910390fd5b5050505050565b600080546040517f572b6c050000000000000000000000000000000000000000000000000000000081526001600160a01b0384811660048301526101009092049091169063572b6c0590602401602060405180830381865afa1580156108ef573d6000803e3d6000fd5b505050506040513d601f19601f8201168201806040525081019061031c9190612e9e565b60008060019054906101000a90046001600160a01b03166001600160a01b031663d09edf316040518163ffffffff1660e01b8152600401602060405180830381865afa158015610967573d6000803e3d6000fd5b505050506040513d601f19601f8201168201806040525081019061098b9190612e58565b90506000816001600160a01b03166355ff58d46040518163ffffffff1660e01b8152600401602060405180830381865afa1580156109cd573d6000803e3d6000fd5b505050506040513d601f19601f820116820180604052508101906109f19190612e75565b9050816001600160a01b03166391d1485482610a0b61205f565b6040517fffffffff0000000000000000000000000000000000000000000000000000000060e085901b16815260048101929092526001600160a01b03166024820152604401602060405180830381865afa158015610a6d573d6000803e3d6000fd5b505050506040513d601f19601f82011682018060405250810190610a919190612e9e565b610a9e578061083661205f565b60008060019054906101000a90046001600160a01b03166001600160a01b031663d09edf316040518163ffffffff1660e01b8152600401602060405180830381865afa158015610af2573d6000803e3d6000fd5b505050506040513d601f19601f82011682018060405250810190610b169190612e58565b6040517fe1788154000000000000000000000000000000000000000000000000000000008152600481018790526001600160a01b0386811660248301529192509082169063e1788154906044015b600060405180830381600087803b158015610b7e57600080fd5b505af1158015610b92573d6000803e3d6000fd5b505050505050505050565b60408051608081018252600180548252600254602083015260038054600094610ce894939290840191610bcf90612e05565b80601f0160208091040260200160405190810160405280929190818152602001828054610bfb90612e05565b8015610c485780601f10610c1d57610100808354040283529160200191610c48565b820191906000526020600020905b815481529060010190602001808311610c2b57829003601f168201915b50505050508152602001600382018054610c6190612e05565b80601f0160208091040260200160405190810160405280929190818152602001828054610c8d90612e05565b8015610cda5780601f10610caf57610100808354040283529160200191610cda565b820191906000526020600020905b815481529060010190602001808311610cbd57829003601f168201915b50505050508152505061211e565b905090565b6060600d805480602002602001604051908101604052809291908181526020016000905b82821015610e7e5783829060005260206000209060030201604051806060016040529081600082018054610d4490612e05565b80601f0160208091040260200160405190810160405280929190818152602001828054610d7090612e05565b8015610dbd5780601f10610d9257610100808354040283529160200191610dbd565b820191906000526020600020905b815481529060010190602001808311610da057829003601f168201915b505050918352505060018201546001600160a01b03166020820152600282018054604090920191610ded90612e05565b80601f0160208091040260200160405190810160405280929190818152602001828054610e1990612e05565b8015610e665780601f10610e3b57610100808354040283529160200191610e66565b820191906000526020600020905b815481529060010190602001808311610e4957829003601f168201915b50505050508152505081526020019060010190610d11565b50505050905090565b60008060019054906101000a90046001600160a01b03166001600160a01b031663d09edf316040518163ffffffff1660e01b8152600401602060405180830381865afa158015610edb573d6000803e3d6000fd5b505050506040513d601f19601f82011682018060405250810190610eff9190612e58565b90506000816001600160a01b03166355ff58d46040518163ffffffff1660e01b8152600401602060405180830381865afa158015610f41573d6000803e3d6000fd5b505050506040513d601f19601f82011682018060405250810190610f659190612e75565b90506000826001600160a01b031663328c4c306040518163ffffffff1660e01b8152600401602060405180830381865afa158015610fa7573d6000803e3d6000fd5b505050506040513d601f19601f82011682018060405250810190610fcb9190612e75565b9050826001600160a01b03166391d1485483610fe561205f565b6040517fffffffff0000000000000000000000000000000000000000000000000000000060e085901b16815260048101929092526001600160a01b03166024820152604401602060405180830381865afa158015611047573d6000803e3d6000fd5b505050506040513d601f19601f8201168201806040525081019061106b9190612e9e565b8061110f5750826001600160a01b03166391d148548261108961205f565b6040517fffffffff0000000000000000000000000000000000000000000000000000000060e085901b16815260048101929092526001600160a01b03166024820152604401602060405180830381865afa1580156110eb573d6000803e3d6000fd5b505050506040513d601f19601f8201168201806040525081019061110f9190612e9e565b1561082d5761112561112085612fa6565b611df3565b50505050565b60408051606080820183528082526000602083015291810191909152600560405180606001604052908160008201805461116490612e05565b80601f016020809104026020016040519081016040528092919081815260200182805461119090612e05565b80156111dd5780601f106111b2576101008083540402835291602001916111dd565b820191906000526020600020905b8154815290600101906020018083116111c057829003601f168201915b505050918352505060018201546001600160a01b0316602082015260028201805460409092019161120d90612e05565b80601f016020809104026020016040519081016040528092919081815260200182805461123990612e05565b80156112865780601f1061125b57610100808354040283529160200191611286565b820191906000526020600020905b81548152906001019060200180831161126957829003601f168201915b505050505081525050905090565b6112c66040518060a0016040528060608152602001606081526020016060815260200160608152602001606081525090565b60086040518060a00160405290816000820180546112e390612e05565b80601f016020809104026020016040519081016040528092919081815260200182805461130f90612e05565b801561135c5780601f106113315761010080835404028352916020019161135c565b820191906000526020600020905b81548152906001019060200180831161133f57829003601f168201915b5050505050815260200160018201805461137590612e05565b80601f01602080910402602001604051908101604052809291908181526020018280546113a190612e05565b80156113ee5780601f106113c3576101008083540402835291602001916113ee565b820191906000526020600020905b8154815290600101906020018083116113d157829003601f168201915b5050505050815260200160028201805461140790612e05565b80601f016020809104026020016040519081016040528092919081815260200182805461143390612e05565b80156114805780601f1061145557610100808354040283529160200191611480565b820191906000526020600020905b81548152906001019060200180831161146357829003601f168201915b5050505050815260200160038201805480602002602001604051908101604052809291908181526020016000905b8282101561155a5783829060005260206000200180546114cd90612e05565b80601f01602080910402602001604051908101604052809291908181526020018280546114f990612e05565b80156115465780601f1061151b57610100808354040283529160200191611546565b820191906000526020600020905b81548152906001019060200180831161152957829003601f168201915b5050505050815260200190600101906114ae565b50505050815260200160048201805480602002602001604051908101604052809291908181526020016000905b828210156116335783829060005260206000200180546115a690612e05565b80601f01602080910402602001604051908101604052809291908181526020018280546115d290612e05565b801561161f5780601f106115f45761010080835404028352916020019161161f565b820191906000526020600020905b81548152906001019060200180831161160257829003601f168201915b505050505081526020019060010190611587565b5050505081525050905090565b60005460ff161561167d576040517f904875a100000000000000000000000000000000000000000000000000000000815260040160405180910390fd5b600080547fffffffffffffffffffffffffffffffffffffffffffffffffffffffffffffff00166001179055806116b28161215e565b6116e8576040517feef043ae00000000000000000000000000000000000000000000000000000000815260040160405180910390fd5b505050565b6000818060200190518101906117039190612fb2565b5092915050565b60008060019054906101000a90046001600160a01b03166001600160a01b031663d09edf316040518163ffffffff1660e01b8152600401602060405180830381865afa15801561175e573d6000803e3d6000fd5b505050506040513d601f19601f820116820180604052508101906117829190612e58565b90506000816001600160a01b03166355ff58d46040518163ffffffff1660e01b8152600401602060405180830381865afa1580156117c4573d6000803e3d6000fd5b505050506040513d601f19601f820116820180604052508101906117e89190612e75565b90506000826001600160a01b031663328c4c306040518163ffffffff1660e01b8152600401602060405180830381865afa15801561182a573d6000803e3d6000fd5b505050506040513d601f19601f8201168201806040525081019061184e9190612e75565b9050826001600160a01b03166391d148548361186861205f565b6040517fffffffff0000000000000000000000000000000000000000000000000000000060e085901b16815260048101929092526001600160a01b03166024820152604401602060405180830381865afa1580156118ca573d6000803e3d6000fd5b505050506040513d601f19601f820116820180604052508101906118ee9190612e9e565b806119925750826001600160a01b03166391d148548261190c61205f565b6040517fffffffff0000000000000000000000000000000000000000000000000000000060e085901b16815260048101929092526001600160a01b03166024820152604401602060405180830381865afa15801561196e573d6000803e3d6000fd5b505050506040513d601f19601f820116820180604052508101906119929190612e9e565b1561082d576111256119a385613076565b611ea4565b60008060019054906101000a90046001600160a01b03166001600160a01b031663d09edf316040518163ffffffff1660e01b8152600401602060405180830381865afa1580156119fc573d6000803e3d6000fd5b505050506040513d601f19601f82011682018060405250810190611a209190612e58565b90506000816001600160a01b03166355ff58d46040518163ffffffff1660e01b8152600401602060405180830381865afa158015611a62573d6000803e3d6000fd5b505050506040513d601f19601f82011682018060405250810190611a869190612e75565b9050816001600160a01b03166391d1485482611aa061205f565b6040517fffffffff0000000000000000000000000000000000000000000000000000000060e085901b16815260048101929092526001600160a01b03166024820152604401602060405180830381865afa158015611b02573d6000803e3d6000fd5b505050506040513d601f19601f82011682018060405250810190611b269190612e9e565b611b33578061083661205f565b60008060019054906101000a90046001600160a01b03166001600160a01b031663d09edf316040518163ffffffff1660e01b8152600401602060405180830381865afa158015611b87573d6000803e3d6000fd5b505050506040513d601f19601f82011682018060405250810190611bab9190612e58565b6040517fba66f9fc000000000000000000000000000000000000000000000000000000008152600481018790526001600160a01b0386811660248301529192509082169063ba66f9fc90604401610b64565b60007fffffffff0000000000000000000000000000000000000000000000000000000082167fd883df1200000000000000000000000000000000000000000000000000000000148061031c57507f01ffc9a7000000000000000000000000000000000000000000000000000000007fffffffff0000000000000000000000000000000000000000000000000000000083161461031c565b611c9c61226b565b6001600160a01b038216611cdc576040517f7280679300000000000000000000000000000000000000000000000000000000815260040160405180910390fd5b600080547fffffffffffffffffffffff0000000000000000000000000000000000000000ff166101006001600160a01b03851602179055611d1c816122d4565b611d52576040517f7511254100000000000000000000000000000000000000000000000000000000815260040160405180910390fd5b8051600190815560208201516002556040820151829190600390611d7690826131a2565b5060608201516003820190611d8b90826131a2565b5050506060810151604051611da0919061329e565b604080519182900382208351602080860151918552840152916001600160a01b038516917feb175f148a71d29a5f7bf5439182fcd81e6ea9cfc8a11b54ab0f705fa98fa8ca910160405180910390a35050565b805181906005908190611e0690826131a2565b5060208201516001820180547fffffffffffffffffffffffff0000000000000000000000000000000000000000166001600160a01b0390921691909117905560408201516002820190611e5990826131a2565b50508151602083015160408085015190517f255bd0be202c6ab2f627fc114147b80fd6954db6c8f68f77dd3bdc582c95dacf9450611e99939291906132ba565b60405180910390a150565b805181906008908190611eb790826131a2565b5060208201516001820190611ecc90826131a2565b5060408201516002820190611ee190826131a2565b5060608201518051611efd916003840191602090910190612326565b5060808201518051611f19916004840191602090910190612326565b5050815160208301516040808501516060860151608087015192517f51bd9f0b55c28939c9398592272d773511566d2d8a7fc79efa2e9003f57488c89650611e99959493906132f8565b611f6f600d600061237c565b805160005b8181101561202357600d838281518110611f9057611f90613365565b60209081029190910181015182546001810184556000938452919092208251600390920201908190611fc290826131a2565b5060208201516001820180547fffffffffffffffffffffffff0000000000000000000000000000000000000000166001600160a01b039092169190911790556040820151600282019061201590826131a2565b505050806001019050611f74565b507f553f586f549aaabeb056e5c2608c088fee443a369b0b4309f627f077c0690f4982604051612053919061284b565b60405180910390a15050565b600080546040517f572b6c050000000000000000000000000000000000000000000000000000000081523360048201526101009091046001600160a01b03169063572b6c0590602401602060405180830381865afa1580156120c5573d6000803e3d6000fd5b505050506040513d601f19601f820116820180604052508101906120e99190612e9e565b1561211957507fffffffffffffffffffffffffffffffffffffffffffffffffffffffffffffffec36013560601c90565b503390565b600081600001518260400151836060015160405160200161214193929190613394565b604051602081830303815290604052805190602001209050919050565b6040517f9e9785750000000000000000000000000000000000000000000000000000000081526000903090639e9785759061219d90859060040161272c565b602060405180830381865afa9250505080156121d6575060408051601f3d908101601f191682019092526121d391810190612e9e565b60015b6121e257506000919050565b6040517f9e9785750000000000000000000000000000000000000000000000000000000081523090639e9785759061221e90869060040161272c565b602060405180830381865afa15801561223b573d6000803e3d6000fd5b505050506040513d601f19601f8201168201806040525081019061225f9190612e9e565b9392505050565b919050565b7ff0c57e16840df040f15088dc2f81fe391c3923bec73e23a9662efc9c229c6a005468010000000000000000900460ff166122d2576040517fd7e6bcf800000000000000000000000000000000000000000000000000000000815260040160405180910390fd5b565b60008160400151516000036122eb57506000919050565b81606001515160000361230057506000919050565b815115801561231157506020820151155b1561231e57506000919050565b506001919050565b82805482825590600052602060002090810192821561236c579160200282015b8281111561236c578251829061235c90826131a2565b5091602001919060010190612346565b506123789291506123a0565b5090565b508054600082556003029060005260206000209081019061239d91906123bd565b50565b808211156123785760006123b48282612412565b506001016123a0565b808211156123785760006123d18282612412565b6001820180547fffffffffffffffffffffffff0000000000000000000000000000000000000000169055612409600283016000612412565b506003016123bd565b50805461241e90612e05565b6000825580601f1061242e575050565b601f01602090049060005260206000209081019061239d91905b808211156123785760008155600101612448565b60006020828403121561246e57600080fd5b81357fffffffff000000000000000000000000000000000000000000000000000000008116811461225f57600080fd5b6001600160a01b038116811461239d57600080fd5b7f4e487b7100000000000000000000000000000000000000000000000000000000600052604160045260246000fd5b6040516080810167ffffffffffffffff81118282101715612505576125056124b3565b60405290565b6040516060810167ffffffffffffffff81118282101715612505576125056124b3565b60405160a0810167ffffffffffffffff81118282101715612505576125056124b3565b604051601f8201601f1916810167ffffffffffffffff8111828210171561257a5761257a6124b3565b604052919050565b600067ffffffffffffffff82111561259c5761259c6124b3565b50601f01601f191660200190565b600082601f8301126125bb57600080fd5b81356125ce6125c982612582565b612551565b8181528460208386010111156125e357600080fd5b816020850160208301376000918101602001919091529392505050565b60008060006060848603121561261557600080fd5b83356126208161249e565b9250602084013567ffffffffffffffff8082111561263d57600080fd5b908501906080828803121561265157600080fd5b6126596124e2565b823581526020830135602082015260408301358281111561267957600080fd5b612685898286016125aa565b60408301525060608301358281111561269d57600080fd5b6126a9898286016125aa565b606083015250935060408601359150808211156126c557600080fd5b506126d2868287016125aa565b9150509250925092565b60005b838110156126f75781810151838201526020016126df565b50506000910152565b600081518084526127188160208601602086016126dc565b601f01601f19169290920160200192915050565b60208152600061225f6020830184612700565b6000806020838503121561275257600080fd5b823567ffffffffffffffff8082111561276a57600080fd5b818501915085601f83011261277e57600080fd5b81358181111561278d57600080fd5b8660208260051b85010111156127a257600080fd5b60209290920196919550909350505050565b6000602082840312156127c657600080fd5b813561225f8161249e565b600080604083850312156127e457600080fd5b8235915060208301356127f68161249e565b809150509250929050565b60008151606084526128166060850182612700565b90506001600160a01b036020840151166020850152604083015184820360408601526128428282612700565b95945050505050565b600060208083016020845280855180835260408601915060408160051b87010192506020870160005b828110156128c0577fffffffffffffffffffffffffffffffffffffffffffffffffffffffffffffffc08886030184526128ae858351612801565b94509285019290850190600101612874565b5092979650505050505050565b6000602082840312156128df57600080fd5b813567ffffffffffffffff8111156128f657600080fd5b82016060818503121561225f57600080fd5b60208152600061225f6020830184612801565b60008282518085526020808601955060208260051b8401016020860160005b8481101561296857601f19868403018952612956838351612700565b9884019892509083019060010161293a565b5090979650505050505050565b602081526000825160a0602084015261299160c0840182612700565b90506020840151601f19808584030160408601526129af8383612700565b925060408601519150808584030160608601526129cc8383612700565b925060608601519150808584030160808601526129e9838361291b565b925060808601519150808584030160a086015250612842828261291b565b60008060408385031215612a1a57600080fd5b8235612a258161249e565b9150602083013567ffffffffffffffff811115612a4157600080fd5b612a4d858286016125aa565b9150509250929050565b600060208284031215612a6957600080fd5b813567ffffffffffffffff811115612a8057600080fd5b612a8c848285016125aa565b949350505050565b600060208284031215612aa657600080fd5b813567ffffffffffffffff811115612abd57600080fd5b820160a0818503121561225f57600080fd5b600082601f830112612ae057600080fd5b8151612aee6125c982612582565b818152846020838601011115612b0357600080fd5b612a8c8260208301602087016126dc565b600060608284031215612b2657600080fd5b612b2e61250b565b9050815167ffffffffffffffff80821115612b4857600080fd5b612b5485838601612acf565b835260208401519150612b668261249e565b8160208401526040840151915080821115612b8057600080fd5b50612b8d84828501612acf565b60408301525092915050565b600067ffffffffffffffff821115612bb357612bb36124b3565b5060051b60200190565b600082601f830112612bce57600080fd5b81516020612bde6125c983612b99565b82815260059290921b84018101918181019086841115612bfd57600080fd5b8286015b84811015612c3d57805167ffffffffffffffff811115612c215760008081fd5b612c2f8986838b0101612acf565b845250918301918301612c01565b509695505050505050565b600082601f830112612c5957600080fd5b81516020612c696125c983612b99565b82815260059290921b84018101918181019086841115612c8857600080fd5b8286015b84811015612c3d57805167ffffffffffffffff811115612cac5760008081fd5b612cba8986838b0101612b14565b845250918301918301612c8c565b600080600060608486031215612cdd57600080fd5b835167ffffffffffffffff80821115612cf557600080fd5b612d0187838801612b14565b94506020860151915080821115612d1757600080fd5b9085019060a08288031215612d2b57600080fd5b612d3361252e565b825182811115612d4257600080fd5b612d4e89828601612acf565b825250602083015182811115612d6357600080fd5b612d6f89828601612acf565b602083015250604083015182811115612d8757600080fd5b612d9389828601612acf565b604083015250606083015182811115612dab57600080fd5b612db789828601612bbd565b606083015250608083015182811115612dcf57600080fd5b612ddb89828601612bbd565b6080830152506040870151909450915080821115612df857600080fd5b506126d286828701612c48565b600181811c90821680612e1957607f821691505b602082108103612e52577f4e487b7100000000000000000000000000000000000000000000000000000000600052602260045260246000fd5b50919050565b600060208284031215612e6a57600080fd5b815161225f8161249e565b600060208284031215612e8757600080fd5b5051919050565b8051801515811461226657600080fd5b600060208284031215612eb057600080fd5b61225f82612e8e565b600060608284031215612ecb57600080fd5b612ed361250b565b9050813567ffffffffffffffff80821115612eed57600080fd5b612ef9858386016125aa565b835260208401359150612f0b8261249e565b8160208401526040840135915080821115612f2557600080fd5b50612b8d848285016125aa565b6000612f406125c984612b99565b80848252602080830192508560051b850136811115612f5e57600080fd5b855b81811015612f9a57803567ffffffffffffffff811115612f805760008081fd5b612f8c36828a01612eb9565b865250938201938201612f60565b50919695505050505050565b600061031c3683612eb9565b60008060408385031215612fc557600080fd5b612fce83612e8e565b9150602083015167ffffffffffffffff811115612fea57600080fd5b612a4d85828601612bbd565b600082601f83011261300757600080fd5b813560206130176125c983612b99565b82815260059290921b8401810191818101908684111561303657600080fd5b8286015b84811015612c3d57803567ffffffffffffffff81111561305a5760008081fd5b6130688986838b01016125aa565b84525091830191830161303a565b600060a0823603121561308857600080fd5b61309061252e565b823567ffffffffffffffff808211156130a857600080fd5b6130b4368387016125aa565b835260208501359150808211156130ca57600080fd5b6130d6368387016125aa565b602084015260408501359150808211156130ef57600080fd5b6130fb368387016125aa565b6040840152606085013591508082111561311457600080fd5b61312036838701612ff6565b6060840152608085013591508082111561313957600080fd5b5061314636828601612ff6565b60808301525092915050565b601f8211156116e8576000816000526020600020601f850160051c8101602086101561317b5750805b601f850160051c820191505b8181101561319a57828155600101613187565b505050505050565b815167ffffffffffffffff8111156131bc576131bc6124b3565b6131d0816131ca8454612e05565b84613152565b602080601f83116001811461322357600084156131ed5750858301515b7fffffffffffffffffffffffffffffffffffffffffffffffffffffffffffffffff600386901b1c1916600185901b17855561319a565b600085815260208120601f198616915b8281101561325257888601518255948401946001909101908401613233565b508582101561328e57878501517fffffffffffffffffffffffffffffffffffffffffffffffffffffffffffffffff600388901b60f8161c191681555b5050505050600190811b01905550565b600082516132b08184602087016126dc565b9190910192915050565b6060815260006132cd6060830186612700565b6001600160a01b038516602084015282810360408401526132ee8185612700565b9695505050505050565b60a08152600061330b60a0830188612700565b828103602084015261331d8188612700565b905082810360408401526133318187612700565b90508281036060840152613345818661291b565b90508281036080840152613359818561291b565b98975050505050505050565b7f4e487b7100000000000000000000000000000000000000000000000000000000600052603260045260246000fd5b838152600083516133ac8160208501602088016126dc565b808301905083516133c48160208401602088016126dc565b016020019594505050505056fea26469706673582212206c6392bb114b8dfc938a77ecdd0712ac8ae0598b0445580fb9defda1b229560864736f6c63430008170033",
    "linkReferences": {}
  },
  "methodIdentifiers": {
    "decoder(bytes)": "9e978575",
    "getManagerMetadata()": "8d3462af",
    "getOrchestratorMetadata()": "972dc798",
    "getTeamMetadata()": "7bbecbd2",
    "grantModuleRole(bytes32,address)": "6c67e807",
    "identifier()": "7998a1c4",
    "init(address,(uint256,uint256,string,string),bytes)": "42dfe958",
    "init2(address,bytes)": "9bfdf766",
    "isTrustedForwarder(address)": "572b6c05",
    "orchestrator()": "b74795d9",
    "revokeModuleRole(bytes32,address)": "bcb61920",
    "setManagerMetadata((string,address,string))": "8c16b25b",
    "setOrchestratorMetadata((string,string,string,string[],string[]))": "ac7dd6b6",
    "setTeamMetadata((string,address,string)[])": "5633082b",
    "supportsInterface(bytes4)": "01ffc9a7",
    "title()": "4a79d50c",
    "url()": "5600f04f",
    "version()": "54fd4d50"
  },
  "id": 136
}