{
    "abi": [
        {
            "type": "function",
            "name": "cancelRunningPayments",
            "inputs": [
                {
                    "name": "client",
                    "type": "address",
                    "internalType": "contract IERC20PaymentClient"
                }
            ],
            "outputs": [],
            "stateMutability": "nonpayable"
        },
        {
            "type": "function",
            "name": "claimAll",
            "inputs": [
                {
                    "name": "client",
                    "type": "address",
                    "internalType": "address"
                }
            ],
            "outputs": [],
            "stateMutability": "nonpayable"
        },
        {
            "type": "function",
            "name": "claimForSpecificWalletId",
            "inputs": [
                {
                    "name": "client",
                    "type": "address",
                    "internalType": "address"
                },
                {
                    "name": "walletId",
                    "type": "uint256",
                    "internalType": "uint256"
                },
                {
                    "name": "retryForUnclaimableAmounts",
                    "type": "bool",
                    "internalType": "bool"
                }
            ],
            "outputs": [],
            "stateMutability": "nonpayable"
        },
        {
            "type": "function",
            "name": "decoder",
            "inputs": [
                {
                    "name": "data",
                    "type": "bytes",
                    "internalType": "bytes"
                }
            ],
            "outputs": [
                {
                    "name": "requirement",
                    "type": "bool",
                    "internalType": "bool"
                }
            ],
            "stateMutability": "pure"
        },
        {
            "type": "function",
            "name": "dueToForSpecificWalletId",
            "inputs": [
                {
                    "name": "client",
                    "type": "address",
                    "internalType": "address"
                },
                {
                    "name": "paymentReceiver",
                    "type": "address",
                    "internalType": "address"
                },
                {
                    "name": "walletId",
                    "type": "uint256",
                    "internalType": "uint256"
                }
            ],
            "outputs": [
                {
                    "name": "",
                    "type": "uint256",
                    "internalType": "uint256"
                }
            ],
            "stateMutability": "view"
        },
        {
            "type": "function",
            "name": "grantModuleRole",
            "inputs": [
                {
                    "name": "role",
                    "type": "bytes32",
                    "internalType": "bytes32"
                },
                {
                    "name": "addr",
                    "type": "address",
                    "internalType": "address"
                }
            ],
            "outputs": [],
            "stateMutability": "nonpayable"
        },
        {
            "type": "function",
            "name": "identifier",
            "inputs": [],
            "outputs": [
                {
                    "name": "",
                    "type": "bytes32",
                    "internalType": "bytes32"
                }
            ],
            "stateMutability": "view"
        },
        {
            "type": "function",
            "name": "init",
            "inputs": [
                {
                    "name": "orchestrator_",
                    "type": "address",
                    "internalType": "contract IOrchestrator"
                },
                {
                    "name": "metadata",
                    "type": "tuple",
                    "internalType": "struct IModule.Metadata",
                    "components": [
                        {
                            "name": "majorVersion",
                            "type": "uint256",
                            "internalType": "uint256"
                        },
                        {
                            "name": "minorVersion",
                            "type": "uint256",
                            "internalType": "uint256"
                        },
                        {
                            "name": "url",
                            "type": "string",
                            "internalType": "string"
                        },
                        {
                            "name": "title",
                            "type": "string",
                            "internalType": "string"
                        }
                    ]
                },
                {
                    "name": "",
                    "type": "bytes",
                    "internalType": "bytes"
                }
            ],
            "outputs": [],
            "stateMutability": "nonpayable"
        },
        {
            "type": "function",
            "name": "init2",
            "inputs": [
                {
                    "name": "orchestrator_",
                    "type": "address",
                    "internalType": "contract IOrchestrator"
                },
                {
                    "name": "dependencyData",
                    "type": "bytes",
                    "internalType": "bytes"
                }
            ],
            "outputs": [],
            "stateMutability": "nonpayable"
        },
        {
            "type": "function",
            "name": "isActivePaymentReceiver",
            "inputs": [
                {
                    "name": "client",
                    "type": "address",
                    "internalType": "address"
                },
                {
                    "name": "paymentReceiver",
                    "type": "address",
                    "internalType": "address"
                }
            ],
            "outputs": [
                {
                    "name": "",
                    "type": "bool",
                    "internalType": "bool"
                }
            ],
            "stateMutability": "view"
        },
        {
            "type": "function",
            "name": "isTrustedForwarder",
            "inputs": [
                {
                    "name": "forwarder",
                    "type": "address",
                    "internalType": "address"
                }
            ],
            "outputs": [
                {
                    "name": "",
                    "type": "bool",
                    "internalType": "bool"
                }
            ],
            "stateMutability": "view"
        },
        {
            "type": "function",
            "name": "numVestingWallets",
            "inputs": [
                {
                    "name": "",
                    "type": "address",
                    "internalType": "address"
                },
                {
                    "name": "",
                    "type": "address",
                    "internalType": "address"
                }
            ],
            "outputs": [
                {
                    "name": "",
                    "type": "uint256",
                    "internalType": "uint256"
                }
            ],
            "stateMutability": "view"
        },
        {
            "type": "function",
            "name": "orchestrator",
            "inputs": [],
            "outputs": [
                {
                    "name": "",
                    "type": "address",
                    "internalType": "contract IOrchestrator"
                }
            ],
            "stateMutability": "view"
        },
        {
            "type": "function",
            "name": "processPayments",
            "inputs": [
                {
                    "name": "client",
                    "type": "address",
                    "internalType": "contract IERC20PaymentClient"
                }
            ],
            "outputs": [],
            "stateMutability": "nonpayable"
        },
        {
            "type": "function",
            "name": "releasableForSpecificWalletId",
            "inputs": [
                {
                    "name": "client",
                    "type": "address",
                    "internalType": "address"
                },
                {
                    "name": "paymentReceiver",
                    "type": "address",
                    "internalType": "address"
                },
                {
                    "name": "walletId",
                    "type": "uint256",
                    "internalType": "uint256"
                }
            ],
            "outputs": [
                {
                    "name": "",
                    "type": "uint256",
                    "internalType": "uint256"
                }
            ],
            "stateMutability": "view"
        },
        {
            "type": "function",
            "name": "releasedForSpecificWalletId",
            "inputs": [
                {
                    "name": "client",
                    "type": "address",
                    "internalType": "address"
                },
                {
                    "name": "paymentReceiver",
                    "type": "address",
                    "internalType": "address"
                },
                {
                    "name": "walletId",
                    "type": "uint256",
                    "internalType": "uint256"
                }
            ],
            "outputs": [
                {
                    "name": "",
                    "type": "uint256",
                    "internalType": "uint256"
                }
            ],
            "stateMutability": "view"
        },
        {
            "type": "function",
            "name": "removeAllPaymentReceiverPayments",
            "inputs": [
                {
                    "name": "client",
                    "type": "address",
                    "internalType": "address"
                },
                {
                    "name": "paymentReceiver",
                    "type": "address",
                    "internalType": "address"
                }
            ],
            "outputs": [],
            "stateMutability": "nonpayable"
        },
        {
            "type": "function",
            "name": "removePaymentForSpecificWalletId",
            "inputs": [
                {
                    "name": "client",
                    "type": "address",
                    "internalType": "address"
                },
                {
                    "name": "paymentReceiver",
                    "type": "address",
                    "internalType": "address"
                },
                {
                    "name": "walletId",
                    "type": "uint256",
                    "internalType": "uint256"
                },
                {
                    "name": "retryForUnclaimableAmounts",
                    "type": "bool",
                    "internalType": "bool"
                }
            ],
            "outputs": [],
            "stateMutability": "nonpayable"
        },
        {
            "type": "function",
            "name": "revokeModuleRole",
            "inputs": [
                {
                    "name": "role",
                    "type": "bytes32",
                    "internalType": "bytes32"
                },
                {
                    "name": "addr",
                    "type": "address",
                    "internalType": "address"
                }
            ],
            "outputs": [],
            "stateMutability": "nonpayable"
        },
        {
            "type": "function",
            "name": "startForSpecificWalletId",
            "inputs": [
                {
                    "name": "client",
                    "type": "address",
                    "internalType": "address"
                },
                {
                    "name": "paymentReceiver",
                    "type": "address",
                    "internalType": "address"
                },
                {
                    "name": "walletId",
                    "type": "uint256",
                    "internalType": "uint256"
                }
            ],
            "outputs": [
                {
                    "name": "",
                    "type": "uint256",
                    "internalType": "uint256"
                }
            ],
            "stateMutability": "view"
        },
        {
            "type": "function",
            "name": "supportsInterface",
            "inputs": [
                {
                    "name": "interfaceId",
                    "type": "bytes4",
                    "internalType": "bytes4"
                }
            ],
            "outputs": [
                {
                    "name": "",
                    "type": "bool",
                    "internalType": "bool"
                }
            ],
            "stateMutability": "view"
        },
        {
            "type": "function",
            "name": "title",
            "inputs": [],
            "outputs": [
                {
                    "name": "",
                    "type": "string",
                    "internalType": "string"
                }
            ],
            "stateMutability": "view"
        },
        {
            "type": "function",
            "name": "token",
            "inputs": [],
            "outputs": [
                {
                    "name": "",
                    "type": "address",
                    "internalType": "contract IERC20"
                }
            ],
            "stateMutability": "view"
        },
        {
            "type": "function",
            "name": "unclaimable",
            "inputs": [
                {
                    "name": "client",
                    "type": "address",
                    "internalType": "address"
                },
                {
                    "name": "paymentReceiver",
                    "type": "address",
                    "internalType": "address"
                }
            ],
            "outputs": [
                {
                    "name": "",
                    "type": "uint256",
                    "internalType": "uint256"
                }
            ],
            "stateMutability": "view"
        },
        {
            "type": "function",
            "name": "url",
            "inputs": [],
            "outputs": [
                {
                    "name": "",
                    "type": "string",
                    "internalType": "string"
                }
            ],
            "stateMutability": "view"
        },
        {
            "type": "function",
            "name": "version",
            "inputs": [],
            "outputs": [
                {
                    "name": "",
                    "type": "uint256",
                    "internalType": "uint256"
                },
                {
                    "name": "",
                    "type": "uint256",
                    "internalType": "uint256"
                }
            ],
            "stateMutability": "view"
        },
        {
            "type": "function",
            "name": "vestedAmountForSpecificWalletId",
            "inputs": [
                {
                    "name": "client",
                    "type": "address",
                    "internalType": "address"
                },
                {
                    "name": "paymentReceiver",
                    "type": "address",
                    "internalType": "address"
                },
                {
                    "name": "timestamp",
                    "type": "uint256",
                    "internalType": "uint256"
                },
                {
                    "name": "walletId",
                    "type": "uint256",
                    "internalType": "uint256"
                }
            ],
            "outputs": [
                {
                    "name": "",
                    "type": "uint256",
                    "internalType": "uint256"
                }
            ],
            "stateMutability": "view"
        },
        {
            "type": "function",
            "name": "viewAllPaymentOrders",
            "inputs": [
                {
                    "name": "client",
                    "type": "address",
                    "internalType": "address"
                },
                {
                    "name": "paymentReceiver",
                    "type": "address",
                    "internalType": "address"
                }
            ],
            "outputs": [
                {
                    "name": "",
                    "type": "tuple[]",
                    "internalType": "struct IStreamingPaymentProcessor.VestingWallet[]",
                    "components": [
                        {
                            "name": "_salary",
                            "type": "uint256",
                            "internalType": "uint256"
                        },
                        {
                            "name": "_released",
                            "type": "uint256",
                            "internalType": "uint256"
                        },
                        {
                            "name": "_start",
                            "type": "uint256",
                            "internalType": "uint256"
                        },
                        {
                            "name": "_dueTo",
                            "type": "uint256",
                            "internalType": "uint256"
                        },
                        {
                            "name": "_vestingWalletID",
                            "type": "uint256",
                            "internalType": "uint256"
                        }
                    ]
                }
            ],
            "stateMutability": "view"
        },
        {
            "type": "event",
            "name": "Initialized",
            "inputs": [
                {
                    "name": "version",
                    "type": "uint64",
                    "indexed": false,
                    "internalType": "uint64"
                }
            ],
            "anonymous": false
        },
        {
            "type": "event",
            "name": "InvalidStreamingOrderDiscarded",
            "inputs": [
                {
                    "name": "recipient",
                    "type": "address",
                    "indexed": true,
                    "internalType": "address"
                },
                {
                    "name": "amount",
                    "type": "uint256",
                    "indexed": false,
                    "internalType": "uint256"
                },
                {
                    "name": "start",
                    "type": "uint256",
                    "indexed": false,
                    "internalType": "uint256"
                },
                {
                    "name": "dueTo",
                    "type": "uint256",
                    "indexed": false,
                    "internalType": "uint256"
                }
            ],
            "anonymous": false
        },
        {
            "type": "event",
            "name": "ModuleInitialized",
            "inputs": [
                {
                    "name": "parentOrchestrator",
                    "type": "address",
                    "indexed": true,
                    "internalType": "address"
                },
                {
                    "name": "moduleTitle",
                    "type": "string",
                    "indexed": true,
                    "internalType": "string"
                },
                {
                    "name": "majorVersion",
                    "type": "uint256",
                    "indexed": false,
                    "internalType": "uint256"
                },
                {
                    "name": "minorVersion",
                    "type": "uint256",
                    "indexed": false,
                    "internalType": "uint256"
                }
            ],
            "anonymous": false
        },
        {
            "type": "event",
            "name": "PaymentOrderProcessed",
            "inputs": [
                {
                    "name": "paymentClient",
                    "type": "address",
                    "indexed": true,
                    "internalType": "address"
                },
                {
                    "name": "recipient",
                    "type": "address",
                    "indexed": true,
                    "internalType": "address"
                },
                {
                    "name": "amount",
                    "type": "uint256",
                    "indexed": false,
                    "internalType": "uint256"
                },
                {
                    "name": "createdAt",
                    "type": "uint256",
                    "indexed": false,
                    "internalType": "uint256"
                },
                {
                    "name": "dueTo",
                    "type": "uint256",
                    "indexed": false,
                    "internalType": "uint256"
                }
            ],
            "anonymous": false
        },
        {
            "type": "event",
            "name": "PaymentOrderProcessed",
            "inputs": [
                {
                    "name": "paymentClient",
                    "type": "address",
                    "indexed": true,
                    "internalType": "address"
                },
                {
                    "name": "recipient",
                    "type": "address",
                    "indexed": true,
                    "internalType": "address"
                },
                {
                    "name": "amount",
                    "type": "uint256",
                    "indexed": false,
                    "internalType": "uint256"
                },
                {
                    "name": "createdAt",
                    "type": "uint256",
                    "indexed": false,
                    "internalType": "uint256"
                },
                {
                    "name": "dueTo",
                    "type": "uint256",
                    "indexed": false,
                    "internalType": "uint256"
                },
                {
                    "name": "walletId",
                    "type": "uint256",
                    "indexed": false,
                    "internalType": "uint256"
                }
            ],
            "anonymous": false
        },
        {
            "type": "event",
            "name": "StreamingPaymentAdded",
            "inputs": [
                {
                    "name": "paymentClient",
                    "type": "address",
                    "indexed": true,
                    "internalType": "address"
                },
                {
                    "name": "recipient",
                    "type": "address",
                    "indexed": true,
                    "internalType": "address"
                },
                {
                    "name": "amount",
                    "type": "uint256",
                    "indexed": false,
                    "internalType": "uint256"
                },
                {
                    "name": "start",
                    "type": "uint256",
                    "indexed": false,
                    "internalType": "uint256"
                },
                {
                    "name": "dueTo",
                    "type": "uint256",
                    "indexed": false,
                    "internalType": "uint256"
                },
                {
                    "name": "walletId",
                    "type": "uint256",
                    "indexed": false,
                    "internalType": "uint256"
                }
            ],
            "anonymous": false
        },
        {
            "type": "event",
            "name": "StreamingPaymentRemoved",
            "inputs": [
                {
                    "name": "paymentClient",
                    "type": "address",
                    "indexed": true,
                    "internalType": "address"
                },
                {
                    "name": "recipient",
                    "type": "address",
                    "indexed": true,
                    "internalType": "address"
                },
                {
                    "name": "walletId",
                    "type": "uint256",
                    "indexed": true,
                    "internalType": "uint256"
                }
            ],
            "anonymous": false
        },
        {
            "type": "event",
            "name": "TokensReleased",
            "inputs": [
                {
                    "name": "recipient",
                    "type": "address",
                    "indexed": true,
                    "internalType": "address"
                },
                {
                    "name": "token",
                    "type": "address",
                    "indexed": true,
                    "internalType": "address"
                },
                {
                    "name": "amount",
                    "type": "uint256",
                    "indexed": false,
                    "internalType": "uint256"
                }
            ],
            "anonymous": false
        },
        {
            "type": "error",
            "name": "InvalidInitialization",
            "inputs": []
        },
        {
            "type": "error",
            "name": "Module_OrchestratorCallbackFailed",
            "inputs": [
                {
                    "name": "funcSig",
                    "type": "string",
                    "internalType": "string"
                }
            ]
        },
        {
            "type": "error",
            "name": "Module__CallerNotAuthorized",
            "inputs": [
                {
                    "name": "role",
                    "type": "bytes32",
                    "internalType": "bytes32"
                },
                {
                    "name": "caller",
                    "type": "address",
                    "internalType": "address"
                }
            ]
        },
        {
            "type": "error",
            "name": "Module__CannotCallInit2Again",
            "inputs": []
        },
        {
            "type": "error",
            "name": "Module__InvalidMetadata",
            "inputs": []
        },
        {
            "type": "error",
            "name": "Module__InvalidOrchestratorAddress",
            "inputs": []
        },
        {
            "type": "error",
            "name": "Module__NoDependencyOrMalformedDependencyData",
            "inputs": []
        },
        {
            "type": "error",
            "name": "Module__OnlyCallableByOrchestrator",
            "inputs": []
        },
        {
            "type": "error",
            "name": "Module__PaymentManager__CannotCallOnOtherClientsOrders",
            "inputs": []
        },
        {
            "type": "error",
            "name": "Module__PaymentManager__OnlyCallableByModule",
            "inputs": []
        },
        {
            "type": "error",
            "name": "Module__PaymentProcessor__InactiveWallet",
            "inputs": [
                {
                    "name": "paymentClient",
                    "type": "address",
                    "internalType": "address"
                },
                {
                    "name": "paymentReceiver",
                    "type": "address",
                    "internalType": "address"
                },
                {
                    "name": "walletId",
                    "type": "uint256",
                    "internalType": "uint256"
                }
            ]
        },
        {
            "type": "error",
            "name": "Module__PaymentProcessor__InsufficientTokenBalanceInClient",
            "inputs": []
        },
        {
            "type": "error",
            "name": "Module__PaymentProcessor__InvalidPaymentReceiver",
            "inputs": [
                {
                    "name": "paymentClient",
                    "type": "address",
                    "internalType": "address"
                },
                {
                    "name": "paymentReceiver",
                    "type": "address",
                    "internalType": "address"
                }
            ]
        },
        {
            "type": "error",
            "name": "Module__PaymentProcessor__InvalidWallet",
            "inputs": [
                {
                    "name": "paymentClient",
                    "type": "address",
                    "internalType": "address"
                },
                {
                    "name": "paymentReceiver",
                    "type": "address",
                    "internalType": "address"
                },
                {
                    "name": "walletId",
                    "type": "uint256",
                    "internalType": "uint256"
                }
            ]
        },
        {
            "type": "error",
            "name": "Module__PaymentProcessor__NothingToClaim",
            "inputs": [
                {
                    "name": "paymentClient",
                    "type": "address",
                    "internalType": "address"
                },
                {
                    "name": "paymentReceiver",
                    "type": "address",
                    "internalType": "address"
                }
            ]
        },
        {
            "type": "error",
            "name": "NotInitializing",
            "inputs": []
        }
    ],
    "bytecode": {
        "object": "0x60806040523480156200001157600080fd5b506200001c62000022565b620000d6565b7ff0c57e16840df040f15088dc2f81fe391c3923bec73e23a9662efc9c229c6a00805468010000000000000000900460ff1615620000735760405163f92ee8a960e01b815260040160405180910390fd5b80546001600160401b0390811614620000d35780546001600160401b0319166001600160401b0390811782556040519081527fc7f505b2f371ae2175ee4913f4499e1f2633a7b5936321eed1cdaeb6115181d29060200160405180910390a15b50565b613bf180620000e66000396000f3fe608060405234801561001057600080fd5b50600436106101c45760003560e01c806377329f35116100f9578063cb8e092f11610097578063f28cfd5411610071578063f28cfd541461047c578063fc0c546a1461048f578063fcedf1e814610497578063ff5a8913146104aa57600080fd5b8063cb8e092f1461041d578063e151fc6114610430578063e49bd91a1461044357600080fd5b80639bfdf766116100d35780639bfdf766146103ba5780639e978575146103cd578063b74795d9146103e0578063bcb619201461040a57600080fd5b806377329f351461035c5780637998a1c41461036f57806386e99ba71461037757600080fd5b80635600f04f11610166578063737c4ce211610140578063737c4ce2146102d3578063738e19a3146102e657806373d7764e1461030657806376413db91461031957600080fd5b80635600f04f146102a5578063572b6c05146102ad5780636c67e807146102c057600080fd5b8063410810cd116101a2578063410810cd1461022757806342dfe958146102625780634a79d50c1461027557806354fd4d501461028a57600080fd5b806301ffc9a7146101c957806318a41e3f146101f157806339c9997614610212575b600080fd5b6101dc6101d7366004613116565b6104d5565b60405190151581526020015b60405180910390f35b6102046101ff36600461316d565b610531565b6040519081526020016101e8565b6102256102203660046131bc565b61056a565b005b6101dc61023536600461320f565b6001600160a01b039182166000908152600960209081526040808320939094168252919091522054151590565b61022561027036600461334f565b610795565b61027d610918565b6040516101e8919061347b565b600154600254604080519283526020830191909152016101e8565b61027d6109ad565b6101dc6102bb36600461348e565b6109bf565b6102256102ce3660046134ab565b610a4d565b6102046102e13660046134d0565b610cd7565b6102f96102f436600461320f565b610cf0565b6040516101e89190613516565b61022561031436600461348e565b610f32565b61020461032736600461316d565b6001600160a01b0392831660009081526006602090815260408083209490951682529283528381209181529152206002015490565b61022561036a36600461348e565b611068565b610204611120565b61020461038536600461316d565b6001600160a01b0392831660009081526006602090815260408083209490951682529283528381209181529152206003015490565b6102256103c8366004613584565b611270565b6101dc6103db3660046135d4565b61131d565b60005461010090046001600160a01b03165b6040516001600160a01b0390911681526020016101e8565b6102256104183660046134ab565b61133a565b61022561042b36600461320f565b61158f565b61022561043e36600461348e565b611781565b61020461045136600461320f565b6001600160a01b03918216600090815260076020908152604080832093909416825291909152205490565b61020461048a36600461316d565b611b9b565b6103f2611bbe565b6102256104a5366004613609565b611ce4565b6102046104b836600461320f565b600560209081526000928352604080842090915290825290205481565b60007fffffffff0000000000000000000000000000000000000000000000000000000082167fc679276700000000000000000000000000000000000000000000000000000000148061052b575061052b82611e47565b92915050565b6001600160a01b0380841660009081526006602090815260408083209386168352928152828220848352905220600101545b9392505050565b60008060019054906101000a90046001600160a01b03166001600160a01b031663d09edf316040518163ffffffff1660e01b8152600401602060405180830381865afa1580156105be573d6000803e3d6000fd5b505050506040513d601f19601f820116820180604052508101906105e2919061364b565b90506000816001600160a01b03166355ff58d46040518163ffffffff1660e01b8152600401602060405180830381865afa158015610624573d6000803e3d6000fd5b505050506040513d601f19601f820116820180604052508101906106489190613668565b9050816001600160a01b03166391d1485482610662611ede565b6040517fffffffff0000000000000000000000000000000000000000000000000000000060e085901b16815260048101929092526001600160a01b03166024820152604401602060405180830381865afa1580156106c4573d6000803e3d6000fd5b505050506040513d601f19601f820116820180604052508101906106e89190613681565b61073e57806106f5611ede565b6040517f42abbb7700000000000000000000000000000000000000000000000000000000815260048101929092526001600160a01b031660248201526044015b60405180910390fd5b61074a86868686611f9d565b6001600160a01b03808716600090815260066020908152604080832093891683529281528282208783529052206003015442101561078d5761078d8686866122d7565b505050505050565b7ff0c57e16840df040f15088dc2f81fe391c3923bec73e23a9662efc9c229c6a00805468010000000000000000810460ff16159067ffffffffffffffff166000811580156107e05750825b905060008267ffffffffffffffff1660011480156107fd5750303b155b90508115801561080b575080155b15610842576040517ff92ee8a900000000000000000000000000000000000000000000000000000000815260040160405180910390fd5b84547fffffffffffffffffffffffffffffffffffffffffffffffff000000000000000016600117855583156108a35784547fffffffffffffffffffffffffffffffffffffffffffffff00ffffffffffffffff16680100000000000000001785555b6108ad888861239a565b831561090e5784547fffffffffffffffffffffffffffffffffffffffffffffff00ffffffffffffffff168555604051600181527fc7f505b2f371ae2175ee4913f4499e1f2633a7b5936321eed1cdaeb6115181d29060200160405180910390a15b5050505050505050565b60606001600301805461092a9061369e565b80601f01602080910402602001604051908101604052809291908181526020018280546109569061369e565b80156109a35780601f10610978576101008083540402835291602001916109a3565b820191906000526020600020905b81548152906001019060200180831161098657829003601f168201915b5050505050905090565b60606001600201805461092a9061369e565b600080546040517f572b6c050000000000000000000000000000000000000000000000000000000081526001600160a01b0384811660048301526101009092049091169063572b6c0590602401602060405180830381865afa158015610a29573d6000803e3d6000fd5b505050506040513d601f19601f8201168201806040525081019061052b9190613681565b60008060019054906101000a90046001600160a01b03166001600160a01b031663d09edf316040518163ffffffff1660e01b8152600401602060405180830381865afa158015610aa1573d6000803e3d6000fd5b505050506040513d601f19601f82011682018060405250810190610ac5919061364b565b90506000816001600160a01b03166355ff58d46040518163ffffffff1660e01b8152600401602060405180830381865afa158015610b07573d6000803e3d6000fd5b505050506040513d601f19601f82011682018060405250810190610b2b9190613668565b9050816001600160a01b03166391d1485482610b45611ede565b6040517fffffffff0000000000000000000000000000000000000000000000000000000060e085901b16815260048101929092526001600160a01b03166024820152604401602060405180830381865afa158015610ba7573d6000803e3d6000fd5b505050506040513d601f19601f82011682018060405250810190610bcb9190613681565b610bd857806106f5611ede565b60008060019054906101000a90046001600160a01b03166001600160a01b031663d09edf316040518163ffffffff1660e01b8152600401602060405180830381865afa158015610c2c573d6000803e3d6000fd5b505050506040513d601f19601f82011682018060405250810190610c50919061364b565b6040517fe1788154000000000000000000000000000000000000000000000000000000008152600481018790526001600160a01b0386811660248301529192509082169063e1788154906044015b600060405180830381600087803b158015610cb857600080fd5b505af1158015610ccc573d6000803e3d6000fd5b505050505050505050565b6000610ce5858585856124f9565b90505b949350505050565b6001600160a01b0380831660009081526009602090815260408083209385168352929052908120546060918491849103610d69576040517ff18be7e30000000000000000000000000000000000000000000000000000000081526001600160a01b03808416600483015282166024820152604401610735565b6001600160a01b038086166000908152600960209081526040808320938816835292815282822080548451818402810184019095528085529293929091830182828015610dd557602002820191906000526020600020905b815481526020019060010190808311610dc1575b505050505090506000815190506000808267ffffffffffffffff811115610dfe57610dfe613248565b604051908082528060200260200182016040528015610e6157816020015b610e4e6040518060a0016040528060008152602001600081526020016000815260200160008152602001600081525090565b815260200190600190039081610e1c5790505b5090505b82821015610f26576001600160a01b03808a166000908152600660209081526040808320938c1683529290529081208551909190869085908110610eab57610eab6136f1565b602002602001015181526020019081526020016000206040518060a001604052908160008201548152602001600182015481526020016002820154815260200160038201548152602001600482015481525050818381518110610f1057610f106136f1565b6020026020010181905250816001019150610e65565b98975050505050505050565b60005461010090046001600160a01b03166342f6e389610f50611ede565b6040517fffffffff0000000000000000000000000000000000000000000000000000000060e084901b1681526001600160a01b0390911660048201526024016020604051808303816000875af1158015610fae573d6000803e3d6000fd5b505050506040513d601f19601f82011682018060405250810190610fd29190613681565b611008576040517f7dac7c9f00000000000000000000000000000000000000000000000000000000815260040160405180910390fd5b80806001600160a01b031661101b611ede565b6001600160a01b03161461105b576040517f3e3fdec600000000000000000000000000000000000000000000000000000000815260040160405180910390fd5b61106482612590565b5050565b600061107682610451611ede565b11806110ba57506001600160a01b03811660009081526009602052604081208161109e611ede565b6001600160a01b03168152602081019190915260400160002054115b61110c57806110c7611ede565b6040517fe8c3fea00000000000000000000000000000000000000000000000000000000081526001600160a01b03928316600482015291166024820152604401610735565b61111d81611118611ede565b61263b565b50565b6040805160808101825260018054825260025460208301526003805460009461126b949392908401916111529061369e565b80601f016020809104026020016040519081016040528092919081815260200182805461117e9061369e565b80156111cb5780601f106111a0576101008083540402835291602001916111cb565b820191906000526020600020905b8154815290600101906020018083116111ae57829003601f168201915b505050505081526020016003820180546111e49061369e565b80601f01602080910402602001604051908101604052809291908181526020018280546112109061369e565b801561125d5780601f106112325761010080835404028352916020019161125d565b820191906000526020600020905b81548152906001019060200180831161124057829003601f168201915b5050505050815250506126f2565b905090565b60005460ff16156112ad576040517f904875a100000000000000000000000000000000000000000000000000000000815260040160405180910390fd5b600080547fffffffffffffffffffffffffffffffffffffffffffffffffffffffffffffff00166001179055806112e281612732565b611318576040517feef043ae00000000000000000000000000000000000000000000000000000000815260040160405180910390fd5b505050565b6000818060200190518101906113339190613744565b5092915050565b60008060019054906101000a90046001600160a01b03166001600160a01b031663d09edf316040518163ffffffff1660e01b8152600401602060405180830381865afa15801561138e573d6000803e3d6000fd5b505050506040513d601f19601f820116820180604052508101906113b2919061364b565b90506000816001600160a01b03166355ff58d46040518163ffffffff1660e01b8152600401602060405180830381865afa1580156113f4573d6000803e3d6000fd5b505050506040513d601f19601f820116820180604052508101906114189190613668565b9050816001600160a01b03166391d1485482611432611ede565b6040517fffffffff0000000000000000000000000000000000000000000000000000000060e085901b16815260048101929092526001600160a01b03166024820152604401602060405180830381865afa158015611494573d6000803e3d6000fd5b505050506040513d601f19601f820116820180604052508101906114b89190613681565b6114c557806106f5611ede565b60008060019054906101000a90046001600160a01b03166001600160a01b031663d09edf316040518163ffffffff1660e01b8152600401602060405180830381865afa158015611519573d6000803e3d6000fd5b505050506040513d601f19601f8201168201806040525081019061153d919061364b565b6040517fba66f9fc000000000000000000000000000000000000000000000000000000008152600481018790526001600160a01b0386811660248301529192509082169063ba66f9fc90604401610c9e565b60008060019054906101000a90046001600160a01b03166001600160a01b031663d09edf316040518163ffffffff1660e01b8152600401602060405180830381865afa1580156115e3573d6000803e3d6000fd5b505050506040513d601f19601f82011682018060405250810190611607919061364b565b90506000816001600160a01b03166355ff58d46040518163ffffffff1660e01b8152600401602060405180830381865afa158015611649573d6000803e3d6000fd5b505050506040513d601f19601f8201168201806040525081019061166d9190613668565b9050816001600160a01b03166391d1485482611687611ede565b6040517fffffffff0000000000000000000000000000000000000000000000000000000060e085901b16815260048101929092526001600160a01b03166024820152604401602060405180830381865afa1580156116e9573d6000803e3d6000fd5b505050506040513d601f19601f8201168201806040525081019061170d9190613681565b61171a57806106f5611ede565b6000196117278585612833565b03611771576040517ff18be7e30000000000000000000000000000000000000000000000000000000081526001600160a01b03808616600483015284166024820152604401610735565b61177b8484612916565b50505050565b60005461010090046001600160a01b03166342f6e38961179f611ede565b6040517fffffffff0000000000000000000000000000000000000000000000000000000060e084901b1681526001600160a01b0390911660048201526024016020604051808303816000875af11580156117fd573d6000803e3d6000fd5b505050506040513d601f19601f820116820180604052508101906118219190613681565b611857576040517f7dac7c9f00000000000000000000000000000000000000000000000000000000815260040160405180910390fd5b80806001600160a01b031661186a611ede565b6001600160a01b0316146118aa576040517f3e3fdec600000000000000000000000000000000000000000000000000000000815260040160405180910390fd5b6000826001600160a01b03166375fa0b766040518163ffffffff1660e01b8152600401600060405180830381865afa1580156118ea573d6000803e3d6000fd5b505050506040513d6000823e601f3d908101601f1916820160405261191291908101906138ee565b5111156110645760606000836001600160a01b031663c0231ff66040518163ffffffff1660e01b81526004016000604051808303816000875af115801561195d573d6000803e3d6000fd5b505050506040513d6000823e601f3d908101601f191682016040526119859190810190613923565b909250905080611993611bbe565b6040517f70a082310000000000000000000000000000000000000000000000000000000081526001600160a01b03878116600483015291909116906370a0823190602401602060405180830381865afa1580156119f4573d6000803e3d6000fd5b505050506040513d601f19601f82011682018060405250810190611a189190613668565b1015611a50576040517f293e0b9d00000000000000000000000000000000000000000000000000000000815260040160405180910390fd5b6000806000806000808751905060005b81811015611b8e57888181518110611a7a57611a7a6136f1565b6020026020010151600001519650888181518110611a9a57611a9a6136f1565b6020026020010151602001519550888181518110611aba57611aba6136f1565b6020026020010151604001519450888181518110611ada57611ada6136f1565b602090810291909101810151606001516001600160a01b03808e166000908152600584526040808220928c1682529190935290912054909450611b1e906001613999565b9250611b2e8b8888888888612a12565b6040805187815260208101879052908101859052606081018490526001600160a01b0380891691908d16907ff261b5eb0a7c8f0fed848ae34ac29644417fae2ec1eda997e1c36914f18461229060800160405180910390a3600101611a60565b5050505050505050505050565b6000611ba8848484610531565b611bb485854286610cd7565b610ce891906139ac565b6000306001600160a01b031663b74795d96040518163ffffffff1660e01b8152600401602060405180830381865afa158015611bfe573d6000803e3d6000fd5b505050506040513d601f19601f82011682018060405250810190611c22919061364b565b6001600160a01b03166304baed9e6040518163ffffffff1660e01b8152600401602060405180830381865afa158015611c5f573d6000803e3d6000fd5b505050506040513d601f19601f82011682018060405250810190611c83919061364b565b6001600160a01b031663fc0c546a6040518163ffffffff1660e01b8152600401602060405180830381865afa158015611cc0573d6000803e3d6000fd5b505050506040513d601f19601f8201168201806040525081019061126b919061364b565b6001600160a01b038316600090815260096020526040812090611d05611ede565b6001600160a01b031681526020810191909152604001600020541580611d6b57506001600160a01b038316600090815260056020526040812090611d47611ede565b6001600160a01b03166001600160a01b031681526020019081526020016000205482115b15611dc55782611d79611ede565b6040517f3dadbcc30000000000000000000000000000000000000000000000000000000081526001600160a01b0392831660048201529116602482015260448101839052606401610735565b600019611dda84611dd4611ede565b85612c2b565b03611e345782611de8611ede565b6040517f54bb21ce0000000000000000000000000000000000000000000000000000000081526001600160a01b0392831660048201529116602482015260448101839052606401610735565b61131883611e40611ede565b8484611f9d565b60007fffffffff0000000000000000000000000000000000000000000000000000000082167fd883df1200000000000000000000000000000000000000000000000000000000148061052b57507f01ffc9a7000000000000000000000000000000000000000000000000000000007fffffffff0000000000000000000000000000000000000000000000000000000083161461052b565b600080546040517f572b6c050000000000000000000000000000000000000000000000000000000081523360048201526101009091046001600160a01b03169063572b6c0590602401602060405180830381865afa158015611f44573d6000803e3d6000fd5b505050506040513d601f19601f82011682018060405250810190611f689190613681565b15611f9857507fffffffffffffffffffffffffffffffffffffffffffffffffffffffffffffffec36013560601c90565b503390565b6000611faa858585611b9b565b6001600160a01b0380871660009081526006602090815260408083209389168352928152828220878352905290812060010180549293508392909190611ff1908490613999565b90915550829050801561202857506001600160a01b0380861660009081526007602090815260408083209388168352929052205415155b15612088576001600160a01b0380861660009081526007602090815260408083209388168352929052205461205d9082613999565b6001600160a01b03808716600090815260076020908152604080832093891683529290529081205590505b6000612092611bbe565b604080516001600160a01b0389811660248301528881166044830152606480830187905283518084039091018152608490920183526020820180517bffffffffffffffffffffffffffffffffffffffffffffffffffffffff167f23b872dd0000000000000000000000000000000000000000000000000000000017905291519293506000928392851691612125916139bf565b6000604051808303816000865af19150503d8060008114612162576040519150601f19603f3d011682016040523d82523d6000602084013e612167565b606091505b50915091508180156121915750805115806121915750808060200190518101906121919190613681565b1561225b57826001600160a01b0316876001600160a01b03167f3737f2a73c794dafe53d8aeea06810a9ebcf7167401b259406960e088e03f830866040516121db91815260200190565b60405180910390a36040517f13e64063000000000000000000000000000000000000000000000000000000008152600481018590526001600160a01b038916906313e6406390602401600060405180830381600087803b15801561223e57600080fd5b505af1158015612252573d6000803e3d6000fd5b50505050612298565b6001600160a01b038089166000908152600760209081526040808320938b1683529290529081208054869290612292908490613999565b90915550505b6001600160a01b038881166000908152600660209081526040808320938b16835292815282822089835290522060030154428111610ccc57610ccc8989895b6122e2838383612cee565b6001600160a01b038381166000818152600660209081526040808320948716808452948252808320868452825280832083815560018101849055600281018490556003810184905560040183905592825260098152828220938252929092528120549003612354576123548383612e75565b80826001600160a01b0316846001600160a01b03167fe6a0687ee789528abb9aac335f8b10067233039efce66e64f52a6bd3fad134c560405160405180910390a4505050565b6123a2612fe1565b6001600160a01b0382166123e2576040517f7280679300000000000000000000000000000000000000000000000000000000815260040160405180910390fd5b600080547fffffffffffffffffffffff0000000000000000000000000000000000000000ff166101006001600160a01b038516021790556124228161304a565b612458576040517f7511254100000000000000000000000000000000000000000000000000000000815260040160405180910390fd5b805160019081556020820151600255604082015182919060039061247c9082613a23565b50606082015160038201906124919082613a23565b50505060608101516040516124a691906139bf565b604080519182900382208351602080860151918552840152916001600160a01b038516917feb175f148a71d29a5f7bf5439182fcd81e6ea9cfc8a11b54ab0f705fa98fa8ca910160405180910390a35050565b6001600160a01b03848116600090815260066020908152604080832093871683529281528282208483529052908120805460028201546003909201549091908186101561254c5760009350505050610ce8565b80861061255e57829350505050610ce8565b61256882826139ac565b61257283886139ac565b61257c9085613ae3565b6125869190613afa565b9350505050610ce8565b6001600160a01b0381166000908152600860209081526040808320805482518185028101850190935280835291929091908301828280156125fa57602002820191906000526020600020905b81546001600160a01b031681526001909101906020018083116125dc575b505083519394506000925050505b8181101561177b5761263384848381518110612626576126266136f1565b6020026020010151612916565b600101612608565b6001600160a01b0380831660009081526009602090815260408083209385168352928152828220805484518184028101840190955280855292939290918301828280156126a757602002820191906000526020600020905b815481526020019060010190808311612693575b505083519394506000925050505b818110156126eb576126e385858584815181106126d4576126d46136f1565b60200260200101516001611f9d565b6001016126b5565b5050505050565b600081600001518260400151836060015160405160200161271593929190613b35565b604051602081830303815290604052805190602001209050919050565b6040517f9e9785750000000000000000000000000000000000000000000000000000000081526000903090639e9785759061277190859060040161347b565b602060405180830381865afa9250505080156127aa575060408051601f3d908101601f191682019092526127a791810190613681565b60015b6127b657506000919050565b6040517f9e9785750000000000000000000000000000000000000000000000000000000081523090639e978575906127f290869060040161347b565b602060405180830381865afa15801561280f573d6000803e3d6000fd5b505050506040513d601f19601f820116820180604052508101906105639190613681565b6001600160a01b03821660009081526008602090815260408083208054825181850281018501909352808352849383018282801561289a57602002820191906000526020600020905b81546001600160a01b0316815260019091019060200180831161287c575b5050506001600160a01b0387166000908152600860205260408120549394509150505b8181101561290957846001600160a01b03168382815181106128e1576128e16136f1565b60200260200101516001600160a01b03160361290157925061052b915050565b6001016128bd565b5060001995945050505050565b6001600160a01b03808316600090815260096020908152604080832093851683529281528282208054845181840281018401909552808552929392909183018282801561298257602002820191906000526020600020905b81548152602001906001019080831161296e575b505050505090506000815190506000805b8282101561078d578382815181106129ad576129ad6136f1565b602002602001015190506129c48686836001611f9d565b6001600160a01b038087166000908152600660209081526040808320938916835292815282822084835290522060030154421015612a0757612a078686836122d7565b816001019150612993565b612a1b8561309c565b1580612a25575083155b80612a365750612a3483613103565b155b15612a8c5760408051858152602081018590529081018390526001600160a01b038616907fa8525b849c52e2e1d9a24c2ef6faa6d64c885d4b7bbccc3115c9b1b49ac2e0bb9060600160405180910390a261078d565b6001600160a01b03808716600090815260056020908152604080832093891683529290529081208054909190612ac190613b72565b909155506040805160a0810182528581526000602080830182815283850188815260608501888152608086018881526001600160a01b03808f16875260068652888720908e1687528552878620898752909452959093209351845551600184015590516002830155915160038201559051600490910155600019612b458787612833565b03612ba1576001600160a01b0386811660009081526008602090815260408220805460018101825590835291200180547fffffffffffffffffffffffff0000000000000000000000000000000000000000169187169190911790555b6001600160a01b038681166000818152600960209081526040808320948a168084529482528083208054600181018255908452928290209092018590558151888152908101879052908101859052606081018490527fb5526864f7085e2bfcfdf0997943b4931b3cf4625c187f5ada6642079adb955d9060800160405180910390a3505050505050565b6001600160a01b03808416600090815260096020908152604080832093861683529281528282208054845181840281018401909552808552929384939092830182828015612c9857602002820191906000526020600020905b815481526020019060010190808311612c84575b505083519394506000925050505b81811015612ce05784838281518110612cc157612cc16136f1565b602002602001015103612cd8579250610563915050565b600101612ca6565b506000199695505050505050565b6000612cfb848484612c2b565b90506000198103612d0f5783611de8611ede565b6000612d1c858585611b9b565b90508015612d98576040517f13e64063000000000000000000000000000000000000000000000000000000008152600481018290526001600160a01b038616906313e6406390602401600060405180830381600087803b158015612d7f57600080fd5b505af1158015612d93573d6000803e3d6000fd5b505050505b6001600160a01b0385811660009081526009602090815260408083209388168352929052208054612dcb906001906139ac565b81548110612ddb57612ddb6136f1565b60009182526020808320909101546001600160a01b038089168452600983526040808520918916855292529120805484908110612e1a57612e1a6136f1565b60009182526020808320909101929092556001600160a01b0380881682526009835260408083209188168352925220805480612e5857612e58613b8c565b600190038181906000526020600020016000905590555050505050565b6000612e818383612833565b90506000198103612ed1576040517ff18be7e30000000000000000000000000000000000000000000000000000000081526001600160a01b03808516600483015283166024820152604401610735565b6001600160a01b0383166000908152600860205260409020805490612ef76001836139ac565b81548110612f0757612f076136f1565b60009182526020808320909101546001600160a01b03878116845260089092526040909220805491909216919084908110612f4457612f446136f1565b600091825260208083209190910180547fffffffffffffffffffffffff0000000000000000000000000000000000000000166001600160a01b039485161790559186168152600890915260409020805480612fa157612fa1613b8c565b600082815260209020810160001990810180547fffffffffffffffffffffffff000000000000000000000000000000000000000016905501905550505050565b7ff0c57e16840df040f15088dc2f81fe391c3923bec73e23a9662efc9c229c6a005468010000000000000000900460ff16613048576040517fd7e6bcf800000000000000000000000000000000000000000000000000000000815260040160405180910390fd5b565b600081604001515160000361306157506000919050565b81606001515160000361307657506000919050565b815115801561308757506020820151155b1561309457506000919050565b506001919050565b60006001600160a01b03821615806130cc57506130b7611ede565b6001600160a01b0316826001600160a01b0316145b806130df57506001600160a01b03821630145b806130fc57506000546001600160a01b0383811661010090920416145b1592915050565b6000428210806130fc5750506000191190565b60006020828403121561312857600080fd5b81357fffffffff000000000000000000000000000000000000000000000000000000008116811461056357600080fd5b6001600160a01b038116811461111d57600080fd5b60008060006060848603121561318257600080fd5b833561318d81613158565b9250602084013561319d81613158565b929592945050506040919091013590565b801515811461111d57600080fd5b600080600080608085870312156131d257600080fd5b84356131dd81613158565b935060208501356131ed81613158565b9250604085013591506060850135613204816131ae565b939692955090935050565b6000806040838503121561322257600080fd5b823561322d81613158565b9150602083013561323d81613158565b809150509250929050565b7f4e487b7100000000000000000000000000000000000000000000000000000000600052604160045260246000fd5b6040516080810167ffffffffffffffff8111828210171561329a5761329a613248565b60405290565b604051601f8201601f1916810167ffffffffffffffff811182821017156132c9576132c9613248565b604052919050565b600067ffffffffffffffff8211156132eb576132eb613248565b50601f01601f191660200190565b600082601f83011261330a57600080fd5b813561331d613318826132d1565b6132a0565b81815284602083860101111561333257600080fd5b816020850160208301376000918101602001919091529392505050565b60008060006060848603121561336457600080fd5b833561336f81613158565b9250602084013567ffffffffffffffff8082111561338c57600080fd5b90850190608082880312156133a057600080fd5b6133a8613277565b82358152602083013560208201526040830135828111156133c857600080fd5b6133d4898286016132f9565b6040830152506060830135828111156133ec57600080fd5b6133f8898286016132f9565b6060830152509350604086013591508082111561341457600080fd5b50613421868287016132f9565b9150509250925092565b60005b8381101561344657818101518382015260200161342e565b50506000910152565b6000815180845261346781602086016020860161342b565b601f01601f19169290920160200192915050565b602081526000610563602083018461344f565b6000602082840312156134a057600080fd5b813561056381613158565b600080604083850312156134be57600080fd5b82359150602083013561323d81613158565b600080600080608085870312156134e657600080fd5b84356134f181613158565b9350602085013561350181613158565b93969395505050506040820135916060013590565b602080825282518282018190526000919060409081850190868401855b828110156135775781518051855286810151878601528581015186860152606080820151908601526080908101519085015260a09093019290850190600101613533565b5091979650505050505050565b6000806040838503121561359757600080fd5b82356135a281613158565b9150602083013567ffffffffffffffff8111156135be57600080fd5b6135ca858286016132f9565b9150509250929050565b6000602082840312156135e657600080fd5b813567ffffffffffffffff8111156135fd57600080fd5b610ce8848285016132f9565b60008060006060848603121561361e57600080fd5b833561362981613158565b9250602084013591506040840135613640816131ae565b809150509250925092565b60006020828403121561365d57600080fd5b815161056381613158565b60006020828403121561367a57600080fd5b5051919050565b60006020828403121561369357600080fd5b8151610563816131ae565b600181811c908216806136b257607f821691505b6020821081036136eb577f4e487b7100000000000000000000000000000000000000000000000000000000600052602260045260246000fd5b50919050565b7f4e487b7100000000000000000000000000000000000000000000000000000000600052603260045260246000fd5b600067ffffffffffffffff82111561373a5761373a613248565b5060051b60200190565b600080604080848603121561375857600080fd5b8351613763816131ae565b8093505060208085015167ffffffffffffffff8082111561378357600080fd5b818701915087601f83011261379757600080fd5b81516137a561331882613720565b81815260059190911b8301840190848101908a8311156137c457600080fd5b8585015b83811015613835578051858111156137e05760008081fd5b8601603f81018d136137f25760008081fd5b87810151613802613318826132d1565b8181528e8b8385010111156138175760008081fd5b613826828b83018d860161342b565b855250509186019186016137c8565b50809750505050505050509250929050565b600082601f83011261385857600080fd5b8151602061386861331883613720565b82815260079290921b8401810191818101908684111561388757600080fd5b8286015b848110156138e357608081890312156138a45760008081fd5b6138ac613277565b81516138b781613158565b81528185015185820152604080830151908201526060808301519082015283529183019160800161388b565b509695505050505050565b60006020828403121561390057600080fd5b815167ffffffffffffffff81111561391757600080fd5b610ce884828501613847565b6000806040838503121561393657600080fd5b825167ffffffffffffffff81111561394d57600080fd5b61395985828601613847565b925050602083015190509250929050565b7f4e487b7100000000000000000000000000000000000000000000000000000000600052601160045260246000fd5b8082018082111561052b5761052b61396a565b8181038181111561052b5761052b61396a565b600082516139d181846020870161342b565b9190910192915050565b601f821115611318576000816000526020600020601f850160051c81016020861015613a045750805b601f850160051c820191505b8181101561078d57828155600101613a10565b815167ffffffffffffffff811115613a3d57613a3d613248565b613a5181613a4b845461369e565b846139db565b602080601f831160018114613a865760008415613a6e5750858301515b600019600386901b1c1916600185901b17855561078d565b600085815260208120601f198616915b82811015613ab557888601518255948401946001909101908401613a96565b5085821015613ad35787850151600019600388901b60f8161c191681555b5050505050600190811b01905550565b808202811582820484141761052b5761052b61396a565b600082613b30577f4e487b7100000000000000000000000000000000000000000000000000000000600052601260045260246000fd5b500490565b83815260008351613b4d81602085016020880161342b565b80830190508351613b6581602084016020880161342b565b0160200195945050505050565b60006000198203613b8557613b8561396a565b5060010190565b7f4e487b7100000000000000000000000000000000000000000000000000000000600052603160045260246000fdfea26469706673582212209f9d6f494008bf4e9bdf63c60f01d3888e0b7bf5aa0f3e0fceed29f4f3dd9fca64736f6c63430008170033",
        "linkReferences": {}
    },
    "methodIdentifiers": {
        "cancelRunningPayments(address)": "73d7764e",
        "claimAll(address)": "77329f35",
        "claimForSpecificWalletId(address,uint256,bool)": "fcedf1e8",
        "decoder(bytes)": "9e978575",
        "dueToForSpecificWalletId(address,address,uint256)": "86e99ba7",
        "grantModuleRole(bytes32,address)": "6c67e807",
        "identifier()": "7998a1c4",
        "init(address,(uint256,uint256,string,string),bytes)": "42dfe958",
        "init2(address,bytes)": "9bfdf766",
        "isActivePaymentReceiver(address,address)": "410810cd",
        "isTrustedForwarder(address)": "572b6c05",
        "numVestingWallets(address,address)": "ff5a8913",
        "orchestrator()": "b74795d9",
        "processPayments(address)": "e151fc61",
        "releasableForSpecificWalletId(address,address,uint256)": "f28cfd54",
        "releasedForSpecificWalletId(address,address,uint256)": "18a41e3f",
        "removeAllPaymentReceiverPayments(address,address)": "cb8e092f",
        "removePaymentForSpecificWalletId(address,address,uint256,bool)": "39c99976",
        "revokeModuleRole(bytes32,address)": "bcb61920",
        "startForSpecificWalletId(address,address,uint256)": "76413db9",
        "supportsInterface(bytes4)": "01ffc9a7",
        "title()": "4a79d50c",
        "token()": "fc0c546a",
        "unclaimable(address,address)": "e49bd91a",
        "url()": "5600f04f",
        "version()": "54fd4d50",
        "vestedAmountForSpecificWalletId(address,address,uint256,uint256)": "737c4ce2",
        "viewAllPaymentOrders(address,address)": "738e19a3"
    },
    "id": 133
}