{
    "abi": [
        {
            "type": "constructor",
            "inputs": [
                {
                    "name": "_majorVersion",
                    "type": "uint256",
                    "internalType": "uint256"
                }
            ],
            "stateMutability": "nonpayable"
        },
        {
            "type": "function",
            "name": "acceptOwnership",
            "inputs": [],
            "outputs": [],
            "stateMutability": "nonpayable"
        },
        {
            "type": "function",
            "name": "emergencyModeActive",
            "inputs": [],
            "outputs": [
                {
                    "name": "",
                    "type": "bool",
                    "internalType": "bool"
                }
            ],
            "stateMutability": "view"
        },
        {
            "type": "function",
            "name": "implementation",
            "inputs": [],
            "outputs": [
                {
                    "name": "",
                    "type": "address",
                    "internalType": "address"
                }
            ],
            "stateMutability": "view"
        },
        {
            "type": "function",
            "name": "owner",
            "inputs": [],
            "outputs": [
                {
                    "name": "",
                    "type": "address",
                    "internalType": "address"
                }
            ],
            "stateMutability": "view"
        },
        {
            "type": "function",
            "name": "pendingOwner",
            "inputs": [],
            "outputs": [
                {
                    "name": "",
                    "type": "address",
                    "internalType": "address"
                }
            ],
            "stateMutability": "view"
        },
        {
            "type": "function",
            "name": "renounceOwnership",
            "inputs": [],
            "outputs": [],
            "stateMutability": "nonpayable"
        },
        {
            "type": "function",
            "name": "restartImplementation",
            "inputs": [],
            "outputs": [],
            "stateMutability": "nonpayable"
        },
        {
            "type": "function",
            "name": "shutDownImplementation",
            "inputs": [],
            "outputs": [],
            "stateMutability": "nonpayable"
        },
        {
            "type": "function",
            "name": "supportsInterface",
            "inputs": [
                {
                    "name": "interfaceId",
                    "type": "bytes4",
                    "internalType": "bytes4"
                }
            ],
            "outputs": [
                {
                    "name": "",
                    "type": "bool",
                    "internalType": "bool"
                }
            ],
            "stateMutability": "view"
        },
        {
            "type": "function",
            "name": "transferOwnership",
            "inputs": [
                {
                    "name": "newOwner",
                    "type": "address",
                    "internalType": "address"
                }
            ],
            "outputs": [],
            "stateMutability": "nonpayable"
        },
        {
            "type": "function",
            "name": "upgradeTo",
            "inputs": [
                {
                    "name": "newImplementation",
                    "type": "address",
                    "internalType": "address"
                },
                {
                    "name": "newMinorVersion",
                    "type": "uint256",
                    "internalType": "uint256"
                },
                {
                    "name": "overrideShutdown",
                    "type": "bool",
                    "internalType": "bool"
                }
            ],
            "outputs": [],
            "stateMutability": "nonpayable"
        },
        {
            "type": "function",
            "name": "version",
            "inputs": [],
            "outputs": [
                {
                    "name": "",
                    "type": "uint256",
                    "internalType": "uint256"
                },
                {
                    "name": "",
                    "type": "uint256",
                    "internalType": "uint256"
                }
            ],
            "stateMutability": "view"
        },
        {
            "type": "event",
            "name": "Constructed",
            "inputs": [
                {
                    "name": "majorVersion",
                    "type": "uint256",
                    "indexed": false,
                    "internalType": "uint256"
                }
            ],
            "anonymous": false
        },
        {
            "type": "event",
            "name": "OwnershipTransferStarted",
            "inputs": [
                {
                    "name": "previousOwner",
                    "type": "address",
                    "indexed": true,
                    "internalType": "address"
                },
                {
                    "name": "newOwner",
                    "type": "address",
                    "indexed": true,
                    "internalType": "address"
                }
            ],
            "anonymous": false
        },
        {
            "type": "event",
            "name": "OwnershipTransferred",
            "inputs": [
                {
                    "name": "previousOwner",
                    "type": "address",
                    "indexed": true,
                    "internalType": "address"
                },
                {
                    "name": "newOwner",
                    "type": "address",
                    "indexed": true,
                    "internalType": "address"
                }
            ],
            "anonymous": false
        },
        {
            "type": "event",
            "name": "ShutdownInitiated",
            "inputs": [],
            "anonymous": false
        },
        {
            "type": "event",
            "name": "ShutdownReversed",
            "inputs": [],
            "anonymous": false
        },
        {
            "type": "event",
            "name": "Upgraded",
            "inputs": [
                {
                    "name": "implementation",
                    "type": "address",
                    "indexed": true,
                    "internalType": "address"
                },
                {
                    "name": "newMinorVersion",
                    "type": "uint256",
                    "indexed": false,
                    "internalType": "uint256"
                }
            ],
            "anonymous": false
        },
        {
            "type": "error",
            "name": "Beacon__InvalidImplementation",
            "inputs": []
        },
        {
            "type": "error",
            "name": "Beacon__InvalidImplementationMinorVersion",
            "inputs": []
        },
        {
            "type": "error",
            "name": "OwnableInvalidOwner",
            "inputs": [
                {
                    "name": "owner",
                    "type": "address",
                    "internalType": "address"
                }
            ]
        },
        {
            "type": "error",
            "name": "OwnableUnauthorizedAccount",
            "inputs": [
                {
                    "name": "account",
                    "type": "address",
                    "internalType": "address"
                }
            ]
        }
    ],
    "bytecode": {
        "object": "0x608060405234801561001057600080fd5b50604051610a19380380610a1983398101604081905261002f916100d3565b338061005557604051631e4fbdf760e01b81526000600482015260240160405180910390fd5b61005e81610067565b506004556100ec565b600180546001600160a01b031916905561008081610083565b50565b600080546001600160a01b038381166001600160a01b0319831681178455604051919092169283917f8be0079c531659141344cd1fd0a4f28419497f9722a3daafe3b4186f6b6457e09190a35050565b6000602082840312156100e557600080fd5b5051919050565b61091e806100fb6000396000f3fe608060405234801561001057600080fd5b50600436106100d45760003560e01c80638da5cb5b11610081578063e30c39781161005b578063e30c3978146101c9578063f2fde38b146101e7578063f9ae84b6146101fa57600080fd5b80638da5cb5b14610180578063a81d326e1461019e578063bf556ca9146101c157600080fd5b80635c60da1b116100b25780635c60da1b14610131578063715018a61461017057806379ba50971461017857600080fd5b806301ffc9a7146100d95780633b7940891461010157806354fd4d5014610116575b600080fd5b6100ec6100e7366004610816565b610202565b60405190151581526020015b60405180910390f35b61011461010f366004610888565b6102e7565b005b600454600554604080519283526020830191909152016100f8565b60035473ffffffffffffffffffffffffffffffffffffffff165b60405173ffffffffffffffffffffffffffffffffffffffff90911681526020016100f8565b61011461038b565b61011461039f565b60005473ffffffffffffffffffffffffffffffffffffffff1661014b565b60035474010000000000000000000000000000000000000000900460ff166100ec565b61011461041b565b60015473ffffffffffffffffffffffffffffffffffffffff1661014b565b6101146101f53660046108cd565b610492565b610114610542565b60007fffffffff0000000000000000000000000000000000000000000000000000000082167f8162d7a800000000000000000000000000000000000000000000000000000000148061029557507fffffffff0000000000000000000000000000000000000000000000000000000082167f5c60da1b00000000000000000000000000000000000000000000000000000000145b806102e157507f01ffc9a7000000000000000000000000000000000000000000000000000000007fffffffff000000000000000000000000000000000000000000000000000000008316145b92915050565b6102ef6105b4565b81600554811161032b576040517fbaf4a5e100000000000000000000000000000000000000000000000000000000815260040160405180910390fd5b6103358483610607565b600583905560405183815273ffffffffffffffffffffffffffffffffffffffff8516907f5887ab9161c3be2fe962b73e068a9f29082efb6daf2bfcbd3f064bc34d1ef1b79060200160405180910390a250505050565b6103936105b4565b61039d6000610775565b565b600154339073ffffffffffffffffffffffffffffffffffffffff16811461040f576040517f118cdaa700000000000000000000000000000000000000000000000000000000815273ffffffffffffffffffffffffffffffffffffffff821660048201526024015b60405180910390fd5b61041881610775565b50565b6104236105b4565b6003805460025473ffffffffffffffffffffffffffffffffffffffff167fffffffffffffffffffffff0000000000000000000000000000000000000000009091161790556040517f3a4d7b35d2f4493e8ee22fbb3dff8e8d5c7448a0eabbc5fa5574c01e2af8c5b890600090a1565b61049a6105b4565b6001805473ffffffffffffffffffffffffffffffffffffffff83167fffffffffffffffffffffffff000000000000000000000000000000000000000090911681179091556104fd60005473ffffffffffffffffffffffffffffffffffffffff1690565b73ffffffffffffffffffffffffffffffffffffffff167f38d16b8cac22d99fc7c124b9cd0de2d3fa1faef420bfe791d8c362d765e2270060405160405180910390a350565b61054a6105b4565b600380547fffffffffffffffffffffff00000000000000000000000000000000000000000016740100000000000000000000000000000000000000001790556040517fe8849021a66751d01fba6e8286939266cf82b3afe550ab48d28e2119e51af45a90600090a1565b60005473ffffffffffffffffffffffffffffffffffffffff16331461039d576040517f118cdaa7000000000000000000000000000000000000000000000000000000008152336004820152602401610406565b8160008173ffffffffffffffffffffffffffffffffffffffff163b11610659576040517ff92f00cb00000000000000000000000000000000000000000000000000000000815260040160405180910390fd5b600280547fffffffffffffffffffffffff00000000000000000000000000000000000000001673ffffffffffffffffffffffffffffffffffffffff851617905560035474010000000000000000000000000000000000000000900460ff1661070057600380547fffffffffffffffffffffffff00000000000000000000000000000000000000001673ffffffffffffffffffffffffffffffffffffffff8516179055505050565b811561077057600380547fffffffffffffffffffffff0000000000000000000000000000000000000000001673ffffffffffffffffffffffffffffffffffffffff85161790556040517f3a4d7b35d2f4493e8ee22fbb3dff8e8d5c7448a0eabbc5fa5574c01e2af8c5b890600090a15b505050565b600180547fffffffffffffffffffffffff0000000000000000000000000000000000000000169055610418816000805473ffffffffffffffffffffffffffffffffffffffff8381167fffffffffffffffffffffffff0000000000000000000000000000000000000000831681178455604051919092169283917f8be0079c531659141344cd1fd0a4f28419497f9722a3daafe3b4186f6b6457e09190a35050565b60006020828403121561082857600080fd5b81357fffffffff000000000000000000000000000000000000000000000000000000008116811461085857600080fd5b9392505050565b803573ffffffffffffffffffffffffffffffffffffffff8116811461088357600080fd5b919050565b60008060006060848603121561089d57600080fd5b6108a68461085f565b925060208401359150604084013580151581146108c257600080fd5b809150509250925092565b6000602082840312156108df57600080fd5b6108588261085f56fea2646970667358221220982fa8649fd4e4a13a17f13a12085cd78807ee5763482895052987f4072dac7364736f6c63430008170033",
        "linkReferences": {}
    },
    "methodIdentifiers": {
        "acceptOwnership()": "79ba5097",
        "emergencyModeActive()": "a81d326e",
        "implementation()": "5c60da1b",
        "owner()": "8da5cb5b",
        "pendingOwner()": "e30c3978",
        "renounceOwnership()": "715018a6",
        "restartImplementation()": "bf556ca9",
        "shutDownImplementation()": "f9ae84b6",
        "supportsInterface(bytes4)": "01ffc9a7",
        "transferOwnership(address)": "f2fde38b",
        "upgradeTo(address,uint256,bool)": "3b794089",
        "version()": "54fd4d50"
    },
    "id": 93
}