{
  "abi": [
    {
      "type": "function",
      "name": "FLAG_MAX_FEE",
      "inputs": [],
      "outputs": [
        {
          "name": "",
          "type": "uint8",
          "internalType": "uint8"
        }
      ],
      "stateMutability": "view"
    },
    {
      "type": "function",
      "name": "FLAG_TTL",
      "inputs": [],
      "outputs": [
        {
          "name": "",
          "type": "uint8",
          "internalType": "uint8"
        }
      ],
      "stateMutability": "view"
    },
    {
      "type": "function",
      "name": "cancelRunningPayments",
      "inputs": [
        {
          "name": "client_",
          "type": "address",
          "internalType": "contract IERC20PaymentClientBase_v2"
        }
      ],
      "outputs": [],
      "stateMutability": "nonpayable"
    },
    {
      "type": "function",
      "name": "claimPreviouslyUnclaimable",
      "inputs": [
        {
          "name": "client_",
          "type": "address",
          "internalType": "address"
        },
        {
          "name": "token_",
          "type": "address",
          "internalType": "address"
        },
        {
          "name": "receiver_",
          "type": "address",
          "internalType": "address"
        }
      ],
      "outputs": [],
      "stateMutability": "nonpayable"
    },
    {
      "type": "function",
      "name": "getBridgeDataByPaymentId",
      "inputs": [
        {
          "name": "paymentId_",
          "type": "uint256",
          "internalType": "uint256"
        }
      ],
      "outputs": [
        {
          "name": "bridgeData_",
          "type": "bytes",
          "internalType": "bytes"
        }
      ],
      "stateMutability": "view"
    },
    {
      "type": "function",
      "name": "getEverClearSpoke",
      "inputs": [],
      "outputs": [
        {
          "name": "everClearSpoke_",
          "type": "address",
          "internalType": "contract IEverclear"
        }
      ],
      "stateMutability": "view"
    },
    {
      "type": "function",
      "name": "getIntentByIntentId",
      "inputs": [
        {
          "name": "intentId_",
          "type": "bytes32",
          "internalType": "bytes32"
        }
      ],
      "outputs": [
        {
          "name": "intent_",
          "type": "tuple",
          "internalType": "struct IEverclear.Intent",
          "components": [
            {
              "name": "initiator",
              "type": "bytes32",
              "internalType": "bytes32"
            },
            {
              "name": "receiver",
              "type": "bytes32",
              "internalType": "bytes32"
            },
            {
              "name": "inputAsset",
              "type": "bytes32",
              "internalType": "bytes32"
            },
            {
              "name": "outputAsset",
              "type": "bytes32",
              "internalType": "bytes32"
            },
            {
              "name": "maxFee",
              "type": "uint24",
              "internalType": "uint24"
            },
            {
              "name": "origin",
              "type": "uint32",
              "internalType": "uint32"
            },
            {
              "name": "nonce",
              "type": "uint64",
              "internalType": "uint64"
            },
            {
              "name": "timestamp",
              "type": "uint48",
              "internalType": "uint48"
            },
            {
              "name": "ttl",
              "type": "uint48",
              "internalType": "uint48"
            },
            {
              "name": "amount",
              "type": "uint256",
              "internalType": "uint256"
            },
            {
              "name": "destinations",
              "type": "uint32[]",
              "internalType": "uint32[]"
            },
            {
              "name": "data",
              "type": "bytes",
              "internalType": "bytes"
            }
          ]
        }
      ],
      "stateMutability": "view"
    },
    {
      "type": "function",
      "name": "getPaymentId",
      "inputs": [],
      "outputs": [
        {
          "name": "paymentId_",
          "type": "uint256",
          "internalType": "uint256"
        }
      ],
      "stateMutability": "view"
    },
    {
      "type": "function",
      "name": "grantModuleRole",
      "inputs": [
        {
          "name": "role",
          "type": "bytes32",
          "internalType": "bytes32"
        },
        {
          "name": "target",
          "type": "address",
          "internalType": "address"
        }
      ],
      "outputs": [],
      "stateMutability": "nonpayable"
    },
    {
      "type": "function",
      "name": "grantModuleRoleBatched",
      "inputs": [
        {
          "name": "role",
          "type": "bytes32",
          "internalType": "bytes32"
        },
        {
          "name": "targets",
          "type": "address[]",
          "internalType": "address[]"
        }
      ],
      "outputs": [],
      "stateMutability": "nonpayable"
    },
    {
      "type": "function",
      "name": "identifier",
      "inputs": [],
      "outputs": [
        {
          "name": "",
          "type": "bytes32",
          "internalType": "bytes32"
        }
      ],
      "stateMutability": "view"
    },
    {
      "type": "function",
      "name": "init",
      "inputs": [
        {
          "name": "orchestrator_",
          "type": "address",
          "internalType": "contract IOrchestrator_v1"
        },
        {
          "name": "metadata_",
          "type": "tuple",
          "internalType": "struct IModule_v1.Metadata",
          "components": [
            {
              "name": "majorVersion",
              "type": "uint256",
              "internalType": "uint256"
            },
            {
              "name": "minorVersion",
              "type": "uint256",
              "internalType": "uint256"
            },
            {
              "name": "patchVersion",
              "type": "uint256",
              "internalType": "uint256"
            },
            {
              "name": "url",
              "type": "string",
              "internalType": "string"
            },
            {
              "name": "title",
              "type": "string",
              "internalType": "string"
            }
          ]
        },
        {
          "name": "configData_",
          "type": "bytes",
          "internalType": "bytes"
        }
      ],
      "outputs": [],
      "stateMutability": "nonpayable"
    },
    {
      "type": "function",
      "name": "isTrustedForwarder",
      "inputs": [
        {
          "name": "forwarder",
          "type": "address",
          "internalType": "address"
        }
      ],
      "outputs": [
        {
          "name": "",
          "type": "bool",
          "internalType": "bool"
        }
      ],
      "stateMutability": "view"
    },
    {
      "type": "function",
      "name": "orchestrator",
      "inputs": [],
      "outputs": [
        {
          "name": "",
          "type": "address",
          "internalType": "contract IOrchestrator_v1"
        }
      ],
      "stateMutability": "view"
    },
    {
      "type": "function",
      "name": "processPayments",
      "inputs": [
        {
          "name": "client_",
          "type": "address",
          "internalType": "contract IERC20PaymentClientBase_v2"
        }
      ],
      "outputs": [],
      "stateMutability": "nonpayable"
    },
    {
      "type": "function",
      "name": "revokeModuleRole",
      "inputs": [
        {
          "name": "role",
          "type": "bytes32",
          "internalType": "bytes32"
        },
        {
          "name": "target",
          "type": "address",
          "internalType": "address"
        }
      ],
      "outputs": [],
      "stateMutability": "nonpayable"
    },
    {
      "type": "function",
      "name": "revokeModuleRoleBatched",
      "inputs": [
        {
          "name": "role",
          "type": "bytes32",
          "internalType": "bytes32"
        },
        {
          "name": "targets",
          "type": "address[]",
          "internalType": "address[]"
        }
      ],
      "outputs": [],
      "stateMutability": "nonpayable"
    },
    {
      "type": "function",
      "name": "supportsInterface",
      "inputs": [
        {
          "name": "interfaceId_",
          "type": "bytes4",
          "internalType": "bytes4"
        }
      ],
      "outputs": [
        {
          "name": "",
          "type": "bool",
          "internalType": "bool"
        }
      ],
      "stateMutability": "view"
    },
    {
      "type": "function",
      "name": "title",
      "inputs": [],
      "outputs": [
        {
          "name": "",
          "type": "string",
          "internalType": "string"
        }
      ],
      "stateMutability": "view"
    },
    {
      "type": "function",
      "name": "trustedForwarder",
      "inputs": [],
      "outputs": [
        {
          "name": "",
          "type": "address",
          "internalType": "address"
        }
      ],
      "stateMutability": "view"
    },
    {
      "type": "function",
      "name": "unclaimable",
      "inputs": [
        {
          "name": "client_",
          "type": "address",
          "internalType": "address"
        },
        {
          "name": "token_",
          "type": "address",
          "internalType": "address"
        },
        {
          "name": "paymentReceiver_",
          "type": "address",
          "internalType": "address"
        }
      ],
      "outputs": [
        {
          "name": "amount_",
          "type": "uint256",
          "internalType": "uint256"
        }
      ],
      "stateMutability": "view"
    },
    {
      "type": "function",
      "name": "url",
      "inputs": [],
      "outputs": [
        {
          "name": "",
          "type": "string",
          "internalType": "string"
        }
      ],
      "stateMutability": "view"
    },
    {
      "type": "function",
      "name": "validPaymentOrder",
      "inputs": [
        {
          "name": "order_",
          "type": "tuple",
          "internalType": "struct IERC20PaymentClientBase_v2.PaymentOrder",
          "components": [
            {
              "name": "recipient",
              "type": "address",
              "internalType": "address"
            },
            {
              "name": "paymentToken",
              "type": "address",
              "internalType": "address"
            },
            {
              "name": "amount",
              "type": "uint256",
              "internalType": "uint256"
            },
            {
              "name": "originChainId",
              "type": "uint256",
              "internalType": "uint256"
            },
            {
              "name": "targetChainId",
              "type": "uint256",
              "internalType": "uint256"
            },
            {
              "name": "flags",
              "type": "bytes32",
              "internalType": "bytes32"
            },
            {
              "name": "data",
              "type": "bytes32[]",
              "internalType": "bytes32[]"
            }
          ]
        }
      ],
      "outputs": [
        {
          "name": "valid_",
          "type": "bool",
          "internalType": "bool"
        }
      ],
      "stateMutability": "nonpayable"
    },
    {
      "type": "function",
      "name": "version",
      "inputs": [],
      "outputs": [
        {
          "name": "",
          "type": "uint256",
          "internalType": "uint256"
        },
        {
          "name": "",
          "type": "uint256",
          "internalType": "uint256"
        },
        {
          "name": "",
          "type": "uint256",
          "internalType": "uint256"
        }
      ],
      "stateMutability": "view"
    },
    {
      "type": "event",
      "name": "BridgeTransferCompleted",
      "inputs": [
        {
          "name": "paymentId_",
          "type": "uint256",
          "indexed": true,
          "internalType": "uint256"
        },
        {
          "name": "intentId_",
          "type": "bytes32",
          "indexed": true,
          "internalType": "bytes32"
        },
        {
          "name": "recipient_",
          "type": "address",
          "indexed": true,
          "internalType": "address"
        },
        {
          "name": "client_",
          "type": "address",
          "indexed": false,
          "internalType": "address"
        },
        {
          "name": "paymentToken_",
          "type": "address",
          "indexed": false,
          "internalType": "address"
        },
        {
          "name": "amount_",
          "type": "uint256",
          "indexed": false,
          "internalType": "uint256"
        },
        {
          "name": "originChainId_",
          "type": "uint256",
          "indexed": false,
          "internalType": "uint256"
        },
        {
          "name": "targetChainId_",
          "type": "uint256",
          "indexed": false,
          "internalType": "uint256"
        },
        {
          "name": "flags_",
          "type": "bytes32",
          "indexed": false,
          "internalType": "bytes32"
        },
        {
          "name": "data_",
          "type": "bytes32[]",
          "indexed": false,
          "internalType": "bytes32[]"
        }
      ],
      "anonymous": false
    },
    {
      "type": "event",
      "name": "BridgeTransferFailed",
      "inputs": [
        {
          "name": "client_",
          "type": "address",
          "indexed": true,
          "internalType": "address"
        },
        {
          "name": "recipient_",
          "type": "address",
          "indexed": true,
          "internalType": "address"
        },
        {
          "name": "paymentToken_",
          "type": "address",
          "indexed": true,
          "internalType": "address"
        },
        {
          "name": "amount_",
          "type": "uint256",
          "indexed": false,
          "internalType": "uint256"
        },
        {
          "name": "originChainId_",
          "type": "uint256",
          "indexed": false,
          "internalType": "uint256"
        },
        {
          "name": "targetChainId_",
          "type": "uint256",
          "indexed": false,
          "internalType": "uint256"
        },
        {
          "name": "flags_",
          "type": "bytes32",
          "indexed": false,
          "internalType": "bytes32"
        },
        {
          "name": "data_",
          "type": "bytes32[]",
          "indexed": false,
          "internalType": "bytes32[]"
        }
      ],
      "anonymous": false
    },
    {
      "type": "event",
      "name": "Initialized",
      "inputs": [
        {
          "name": "version",
          "type": "uint64",
          "indexed": false,
          "internalType": "uint64"
        }
      ],
      "anonymous": false
    },
    {
      "type": "event",
      "name": "ModuleInitialized",
      "inputs": [
        {
          "name": "parentOrchestrator",
          "type": "address",
          "indexed": true,
          "internalType": "address"
        },
        {
          "name": "metadata",
          "type": "tuple",
          "indexed": false,
          "internalType": "struct IModule_v1.Metadata",
          "components": [
            {
              "name": "majorVersion",
              "type": "uint256",
              "internalType": "uint256"
            },
            {
              "name": "minorVersion",
              "type": "uint256",
              "internalType": "uint256"
            },
            {
              "name": "patchVersion",
              "type": "uint256",
              "internalType": "uint256"
            },
            {
              "name": "url",
              "type": "string",
              "internalType": "string"
            },
            {
              "name": "title",
              "type": "string",
              "internalType": "string"
            }
          ]
        }
      ],
      "anonymous": false
    },
    {
      "type": "event",
      "name": "PaymentOrderProcessed",
      "inputs": [
        {
          "name": "paymentClient",
          "type": "address",
          "indexed": true,
          "internalType": "address"
        },
        {
          "name": "recipient",
          "type": "address",
          "indexed": true,
          "internalType": "address"
        },
        {
          "name": "paymentToken",
          "type": "address",
          "indexed": true,
          "internalType": "address"
        },
        {
          "name": "amount",
          "type": "uint256",
          "indexed": false,
          "internalType": "uint256"
        },
        {
          "name": "originChainId",
          "type": "uint256",
          "indexed": false,
          "internalType": "uint256"
        },
        {
          "name": "targetChainId",
          "type": "uint256",
          "indexed": false,
          "internalType": "uint256"
        },
        {
          "name": "flags",
          "type": "bytes32",
          "indexed": false,
          "internalType": "bytes32"
        },
        {
          "name": "data",
          "type": "bytes32[]",
          "indexed": false,
          "internalType": "bytes32[]"
        }
      ],
      "anonymous": false
    },
    {
      "type": "event",
      "name": "ProtocolFeeTransferred",
      "inputs": [
        {
          "name": "token",
          "type": "address",
          "indexed": true,
          "internalType": "address"
        },
        {
          "name": "treasury",
          "type": "address",
          "indexed": true,
          "internalType": "address"
        },
        {
          "name": "feeAmount",
          "type": "uint256",
          "indexed": false,
          "internalType": "uint256"
        }
      ],
      "anonymous": false
    },
    {
      "type": "event",
      "name": "TokensReleased",
      "inputs": [
        {
          "name": "recipient",
          "type": "address",
          "indexed": true,
          "internalType": "address"
        },
        {
          "name": "token",
          "type": "address",
          "indexed": true,
          "internalType": "address"
        },
        {
          "name": "amount",
          "type": "uint256",
          "indexed": false,
          "internalType": "uint256"
        }
      ],
      "anonymous": false
    },
    {
      "type": "event",
      "name": "UnclaimableAmountAdded",
      "inputs": [
        {
          "name": "paymentClient",
          "type": "address",
          "indexed": true,
          "internalType": "address"
        },
        {
          "name": "token",
          "type": "address",
          "indexed": true,
          "internalType": "address"
        },
        {
          "name": "recipient",
          "type": "address",
          "indexed": true,
          "internalType": "address"
        },
        {
          "name": "amount",
          "type": "uint256",
          "indexed": false,
          "internalType": "uint256"
        }
      ],
      "anonymous": false
    },
    {
      "type": "error",
      "name": "AddressEmptyCode",
      "inputs": [
        {
          "name": "target",
          "type": "address",
          "internalType": "address"
        }
      ]
    },
    {
      "type": "error",
      "name": "AddressInsufficientBalance",
      "inputs": [
        {
          "name": "account",
          "type": "address",
          "internalType": "address"
        }
      ]
    },
    {
      "type": "error",
      "name": "FailedInnerCall",
      "inputs": []
    },
    {
      "type": "error",
      "name": "InvalidInitialization",
      "inputs": []
    },
    {
      "type": "error",
      "name": "Module_OrchestratorCallbackFailed",
      "inputs": [
        {
          "name": "funcSig",
          "type": "string",
          "internalType": "string"
        }
      ]
    },
    {
      "type": "error",
      "name": "Module__CallerNotAuthorized",
      "inputs": [
        {
          "name": "role",
          "type": "bytes32",
          "internalType": "bytes32"
        },
        {
          "name": "caller",
          "type": "address",
          "internalType": "address"
        }
      ]
    },
    {
      "type": "error",
      "name": "Module__ERC20PaymentClientBase__InvalidPaymentOrder",
      "inputs": []
    },
    {
      "type": "error",
      "name": "Module__InvalidAddress",
      "inputs": []
    },
    {
      "type": "error",
      "name": "Module__InvalidMetadata",
      "inputs": []
    },
    {
      "type": "error",
      "name": "Module__InvalidOrchestratorAddress",
      "inputs": []
    },
    {
      "type": "error",
      "name": "Module__OnlyCallableByOrchestrator",
      "inputs": []
    },
    {
      "type": "error",
      "name": "Module__OnlyCallableByPaymentClient",
      "inputs": []
    },
    {
      "type": "error",
      "name": "Module__PP_CrossChain__InvalidMaxFeeOrTTL",
      "inputs": []
    },
    {
      "type": "error",
      "name": "Module__PP_CrossChain__InvalidUnclaimableAmount",
      "inputs": []
    },
    {
      "type": "error",
      "name": "Module__PaymentProcessor__CannotCallOnOtherClientsOrders",
      "inputs": []
    },
    {
      "type": "error",
      "name": "Module__PaymentProcessor__NothingToClaim",
      "inputs": [
        {
          "name": "paymentClient",
          "type": "address",
          "internalType": "address"
        },
        {
          "name": "paymentReceiver",
          "type": "address",
          "internalType": "address"
        }
      ]
    },
    {
      "type": "error",
      "name": "Module__PaymentProcessor__OnlyCallableByModule",
      "inputs": []
    },
    {
      "type": "error",
      "name": "NotInitializing",
      "inputs": []
    },
    {
      "type": "error",
      "name": "SafeERC20FailedOperation",
      "inputs": [
        {
          "name": "token",
          "type": "address",
          "internalType": "address"
        }
      ]
    }
  ],
  "bytecode": {
    "object": "0x60a060405234801562000010575f80fd5b505f6080526200001f62000025565b620000d9565b7ff0c57e16840df040f15088dc2f81fe391c3923bec73e23a9662efc9c229c6a00805468010000000000000000900460ff1615620000765760405163f92ee8a960e01b815260040160405180910390fd5b80546001600160401b0390811614620000d65780546001600160401b0319166001600160401b0390811782556040519081527fc7f505b2f371ae2175ee4913f4499e1f2633a7b5936321eed1cdaeb6115181d29060200160405180910390a15b50565b6080516137dc620000ef5f395f50506137dc5ff3fe608060405234801561000f575f80fd5b506004361061018f575f3560e01c806373d7764e116100dd578063b74795d911610088578063e151fc6111610063578063e151fc6114610351578063eefc953914610364578063f76982851461036c575f80fd5b8063b74795d91461031b578063bcb619201461032b578063ceb43f541461033e575f80fd5b806381ac0367116100b857806381ac0367146102e4578063a351b63a146102f7578063b66a870c14610308575f80fd5b806373d7764e146102a95780637998a1c4146102bc5780637da0a877146102c4575f80fd5b806354fd4d501161013d5780635a651418116101185780635a651418146102715780636baac602146102835780636c67e80714610296575f80fd5b806354fd4d50146102325780635600f04f14610256578063572b6c051461025e575f80fd5b80633055fa881161016d5780633055fa88146101e35780633b3c4ab3146101fd5780634a79d50c1461021d575f80fd5b806301ffc9a71461019357806324e30270146101bb578063272bbd44146101d0575b5f80fd5b6101a66101a1366004612858565b61037f565b60405190151581526020015b60405180910390f35b6101ce6101c936600461287f565b6103a9565b005b6101ce6101de36600461287f565b610649565b6101eb600481565b60405160ff90911681526020016101b2565b61021061020b3660046128f7565b610818565b6040516101b2919061299b565b610225610a56565b6040516101b29190612a84565b600154600254600354604080519384526020840192909252908201526060016101b2565b610225610ae9565b6101a661026c366004612aba565b610afb565b6038545b6040519081526020016101b2565b6102256102913660046128f7565b610b67565b6101ce6102a4366004612ad5565b610c06565b6101ce6102b7366004612aba565b610e0c565b610275610f2e565b6102cc611086565b6040516001600160a01b0390911681526020016101b2565b6101ce6102f2366004612b03565b6110fa565b606d546001600160a01b03166102cc565b6101ce610316366004612c79565b611152565b5f546001600160a01b03166102cc565b6101ce610339366004612ad5565b6112b9565b61027561034c366004612b03565b611490565b6101ce61035f366004612aba565b6114c7565b6101eb600581565b6101a661037a366004612de1565b6116a4565b5f6001600160e01b0319821663986dfc8960e01b14806103a357506103a3826116ae565b92915050565b5f80546040805163d09edf3160e01b815290518693926001600160a01b03169163d09edf319160048083019260209291908290030181865afa1580156103f1573d5f803e3d5ffd5b505050506040513d601f19601f820116820180604052508101906104159190612e93565b60405163fdd5205f60e01b8152306004820152602481018490526001600160a01b03919091169063fdd5205f90604401602060405180830381865afa158015610460573d5f803e3d5ffd5b505050506040513d601f19601f820116820180604052508101906104849190612eae565b90506105745f8054906101000a90046001600160a01b03166001600160a01b031663d09edf316040518163ffffffff1660e01b8152600401602060405180830381865afa1580156104d7573d5f803e3d5ffd5b505050506040513d601f19601f820116820180604052508101906104fb9190612e93565b6001600160a01b031663248a9ca3836040518263ffffffff1660e01b815260040161052891815260200190565b602060405180830381865afa158015610543573d5f803e3d5ffd5b505050506040513d601f19601f820116820180604052508101906105679190612eae565b61056f6116ed565b61173d565b5f8054906101000a90046001600160a01b03166001600160a01b031663d09edf316040518163ffffffff1660e01b8152600401602060405180830381865afa1580156105c2573d5f803e3d5ffd5b505050506040513d601f19601f820116820180604052508101906105e69190612e93565b6001600160a01b0316637d540a648686866040518463ffffffff1660e01b815260040161061593929190612ec5565b5f604051808303815f87803b15801561062c575f80fd5b505af115801561063e573d5f803e3d5ffd5b505050505050505050565b5f80546040805163d09edf3160e01b815290518693926001600160a01b03169163d09edf319160048083019260209291908290030181865afa158015610691573d5f803e3d5ffd5b505050506040513d601f19601f820116820180604052508101906106b59190612e93565b60405163fdd5205f60e01b8152306004820152602481018490526001600160a01b03919091169063fdd5205f90604401602060405180830381865afa158015610700573d5f803e3d5ffd5b505050506040513d601f19601f820116820180604052508101906107249190612eae565b90506107775f8054906101000a90046001600160a01b03166001600160a01b031663d09edf316040518163ffffffff1660e01b8152600401602060405180830381865afa1580156104d7573d5f803e3d5ffd5b5f8054906101000a90046001600160a01b03166001600160a01b031663d09edf316040518163ffffffff1660e01b8152600401602060405180830381865afa1580156107c5573d5f803e3d5ffd5b505050506040513d601f19601f820116820180604052508101906107e99190612e93565b6001600160a01b031663648154538686866040518463ffffffff1660e01b815260040161061593929190612ec5565b60408051610180810182525f8082526020820181905291810182905260608082018390526080820183905260a0820183905260c0820183905260e08201839052610100820183905261012082019290925261014081018290526101608101919091525f828152606e60209081526040918290208251610180810184528154815260018201548184015260028201548185015260038201546060820152600482015462ffffff8116608083015263ffffffff630100000082041660a083015267ffffffffffffffff67010000000000000082041660c083015265ffffffffffff6f010000000000000000000000000000008204811660e084015275010000000000000000000000000000000000000000009091041661010082015260058201546101208201526006820180548551818602810186019096528086529194929361014086019392908301828280156109b657602002820191905f5260205f20905f905b82829054906101000a900463ffffffff1663ffffffff16815260200190600401906020826003010492830192600103820291508084116109795790505b505050505081526020016007820180546109cf90612f1c565b80601f01602080910402602001604051908101604052809291908181526020018280546109fb90612f1c565b8015610a465780601f10610a1d57610100808354040283529160200191610a46565b820191905f5260205f20905b815481529060010190602001808311610a2957829003601f168201915b5050505050815250509050919050565b606060016004018054610a6890612f1c565b80601f0160208091040260200160405190810160405280929190818152602001828054610a9490612f1c565b8015610adf5780601f10610ab657610100808354040283529160200191610adf565b820191905f5260205f20905b815481529060010190602001808311610ac257829003601f168201915b5050505050905090565b606060016003018054610a6890612f1c565b5f805460405163572b6c0560e01b81526001600160a01b0384811660048301529091169063572b6c0590602401602060405180830381865afa158015610b43573d5f803e3d5ffd5b505050506040513d601f19601f820116820180604052508101906103a39190612f54565b5f818152603a60205260409020805460609190610b8390612f1c565b80601f0160208091040260200160405190810160405280929190818152602001828054610baf90612f1c565b8015610bfa5780601f10610bd157610100808354040283529160200191610bfa565b820191905f5260205f20905b815481529060010190602001808311610bdd57829003601f168201915b50505050509050919050565b5f80546040805163d09edf3160e01b815290518593926001600160a01b03169163d09edf319160048083019260209291908290030181865afa158015610c4e573d5f803e3d5ffd5b505050506040513d601f19601f82011682018060405250810190610c729190612e93565b60405163fdd5205f60e01b8152306004820152602481018490526001600160a01b03919091169063fdd5205f90604401602060405180830381865afa158015610cbd573d5f803e3d5ffd5b505050506040513d601f19601f82011682018060405250810190610ce19190612eae565b9050610d345f8054906101000a90046001600160a01b03166001600160a01b031663d09edf316040518163ffffffff1660e01b8152600401602060405180830381865afa1580156104d7573d5f803e3d5ffd5b5f8054906101000a90046001600160a01b03166001600160a01b031663d09edf316040518163ffffffff1660e01b8152600401602060405180830381865afa158015610d82573d5f803e3d5ffd5b505050506040513d601f19601f82011682018060405250810190610da69190612e93565b60405163385e205560e21b8152600481018690526001600160a01b038581166024830152919091169063e1788154906044015b5f604051808303815f87803b158015610df0575f80fd5b505af1158015610e02573d5f803e3d5ffd5b5050505050505050565b5f546001600160a01b03166342f6e389610e246116ed565b6040516001600160e01b031960e084901b1681526001600160a01b039091166004820152602401602060405180830381865afa158015610e66573d5f803e3d5ffd5b505050506040513d601f19601f82011682018060405250810190610e8a9190612f54565b610ea757604051633c9fdabb60e01b815260040160405180910390fd5b80806001600160a01b0316610eba6116ed565b6001600160a01b031614610ee1576040516305bc73ab60e51b815260040160405180910390fd5b60405162461bcd60e51b815260206004820152600f60248201527f4e6f7420696d706c656d656e746564000000000000000000000000000000000060448201526064015b60405180910390fd5b5f61108160016040518060a00160405290815f82015481526020016001820154815260200160028201548152602001600382018054610f6c90612f1c565b80601f0160208091040260200160405190810160405280929190818152602001828054610f9890612f1c565b8015610fe35780601f10610fba57610100808354040283529160200191610fe3565b820191905f5260205f20905b815481529060010190602001808311610fc657829003601f168201915b50505050508152602001600482018054610ffc90612f1c565b80601f016020809104026020016040519081016040528092919081815260200182805461102890612f1c565b80156110735780601f1061104a57610100808354040283529160200191611073565b820191905f5260205f20905b81548152906001019060200180831161105657829003601f168201915b505050505081525050611853565b905090565b5f805f9054906101000a90046001600160a01b03166001600160a01b0316637da0a8776040518163ffffffff1660e01b8152600401602060405180830381865afa1580156110d6573d5f803e3d5ffd5b505050506040513d601f19601f820116820180604052508101906110819190612e93565b611107838361034c6116ed565b5f0361114257826111166116ed565b6040516307461ff560e51b81526001600160a01b03928316600482015291166024820152604401610f25565b61114d838383611891565b505050565b7ff0c57e16840df040f15088dc2f81fe391c3923bec73e23a9662efc9c229c6a00805468010000000000000000810460ff16159067ffffffffffffffff165f8115801561119c5750825b90505f8267ffffffffffffffff1660011480156111b85750303b155b9050811580156111c6575080155b156111e45760405163f92ee8a960e01b815260040160405180910390fd5b845467ffffffffffffffff19166001178555831561121857845468ff00000000000000001916680100000000000000001785555b6112228888611933565b5f868060200190518101906112379190612e93565b606d805473ffffffffffffffffffffffffffffffffffffffff19166001600160a01b0392909216919091179055508315610e0257845468ff000000000000000019168555604051600181527fc7f505b2f371ae2175ee4913f4499e1f2633a7b5936321eed1cdaeb6115181d29060200160405180910390a15050505050505050565b5f80546040805163d09edf3160e01b815290518593926001600160a01b03169163d09edf319160048083019260209291908290030181865afa158015611301573d5f803e3d5ffd5b505050506040513d601f19601f820116820180604052508101906113259190612e93565b60405163fdd5205f60e01b8152306004820152602481018490526001600160a01b03919091169063fdd5205f90604401602060405180830381865afa158015611370573d5f803e3d5ffd5b505050506040513d601f19601f820116820180604052508101906113949190612eae565b90506113e75f8054906101000a90046001600160a01b03166001600160a01b031663d09edf316040518163ffffffff1660e01b8152600401602060405180830381865afa1580156104d7573d5f803e3d5ffd5b5f8054906101000a90046001600160a01b03166001600160a01b031663d09edf316040518163ffffffff1660e01b8152600401602060405180830381865afa158015611435573d5f803e3d5ffd5b505050506040513d601f19601f820116820180604052508101906114599190612e93565b604051632e99be7f60e21b8152600481018690526001600160a01b038581166024830152919091169063ba66f9fc90604401610dd9565b6001600160a01b038084165f90815260396020908152604080832086851684528252808320938516835292905220545b9392505050565b5f546001600160a01b03166342f6e3896114df6116ed565b6040516001600160e01b031960e084901b1681526001600160a01b039091166004820152602401602060405180830381865afa158015611521573d5f803e3d5ffd5b505050506040513d601f19601f820116820180604052508101906115459190612f54565b61156257604051633c9fdabb60e01b815260040160405180910390fd5b80806001600160a01b03166115756116ed565b6001600160a01b03161461159c576040516305bc73ab60e51b815260040160405180910390fd5b6060826001600160a01b031663c0231ff66040518163ffffffff1660e01b81526004015f604051808303815f875af11580156115da573d5f803e3d5ffd5b505050506040513d5f823e601f3d908101601f19168201604052611601919081019061303f565b509091505f90505b815181101561169e576116348282815181106116275761162761319f565b6020026020010151611a39565b6116515760405163349a262760e01b815260040160405180910390fd5b6116748282815181106116665761166661319f565b602002602001015185611ae9565b6116968282815181106116895761168961319f565b6020026020010151611c04565b600101611609565b50505050565b5f6103a382611a39565b5f6001600160e01b031982166318e7e90d60e11b14806116de57506001600160e01b03198216632af7349960e01b145b806103a357506103a382611c3e565b5f3660146116fa33610afb565b80156117065750808210155b15611735575f3661171783856131c7565b6117229282906131da565b61172b91613201565b60601c9250505090565b339250505090565b5f8054906101000a90046001600160a01b03166001600160a01b031663d09edf316040518163ffffffff1660e01b8152600401602060405180830381865afa15801561178b573d5f803e3d5ffd5b505050506040513d601f19601f820116820180604052508101906117af9190612e93565b60405163a883867d60e01b8152600481018490526001600160a01b038381166024830152919091169063a883867d90604401602060405180830381865afa1580156117fc573d5f803e3d5ffd5b505050506040513d601f19601f820116820180604052508101906118209190612f54565b61184f576040516342abbb7760e01b8152600481018390526001600160a01b0382166024820152604401610f25565b5050565b5f815f01518260600151836080015160405160200161187493929190613236565b604051602081830303815290604052805190602001209050919050565b5f61189a6116ed565b6001600160a01b038581165f908152603960209081526040808320888516808552908352818420948616845293909152812080549190559192506118df908483611c72565b836001600160a01b0316836001600160a01b03167f3737f2a73c794dafe53d8aeea06810a9ebcf7167401b259406960e088e03f8308360405161192491815260200190565b60405180910390a35050505050565b61193b611ce6565b6001600160a01b03821661196257604051637280679360e01b815260040160405180910390fd5b5f805473ffffffffffffffffffffffffffffffffffffffff19166001600160a01b03841617905561199281611d36565b6119af57604051637511254160e01b815260040160405180910390fd5b805160019081556020820151600255604082015160035560608201518291906004906119db90826132ab565b50608082015160048201906119f090826132ab565b50905050816001600160a01b03167fd5f3f84c2e1816ce290af84d002663800b02f2985d770cdd335de76fd723b73082604051611a2d919061336b565b60405180910390a25050565b5f611a46825f0151611d90565b8015611a5a5750611a5a8260200151611ed4565b8015611a695750604082015115155b8015611a825750611a8282606001518360800151611f99565b8015611a9b5750611a9b8260a001518360c00151611fac565b90505f80611aac8460c0015161200f565b915062ffffff1691505f808365ffffffffffff16118015611ad457505f8265ffffffffffff16115b9050808015611ae05750835b95945050505050565b611b118130846040015185602001516001600160a01b031661205a909392919063ffffffff16565b60208201516040808401519051631667d8c360e31b81526001600160a01b0384169263b33ec61892611b59926004016001600160a01b03929092168252602082015260400190565b5f604051808303815f87803b158015611b70575f80fd5b505af1158015611b82573d5f803e3d5ffd5b505050506020820151606d54604080850151905163095ea7b360e01b81526001600160a01b039283166004820152602481019190915291169063095ea7b3906044016020604051808303815f875af1158015611be0573d5f803e3d5ffd5b505050506040513d601f19601f8201168201806040525081019061114d9190612f54565b5f80611c0f83612093565b90925090508115611c2d5761114d83611c266116ed565b84846121e6565b61114d83611c396116ed565b612564565b5f6001600160e01b0319821663e328951160e01b14806103a357506301ffc9a760e01b6001600160e01b03198316146103a3565b6040516001600160a01b0383811660248301526044820183905261114d91859182169063a9059cbb906064015b604051602081830303815290604052915060e01b6020820180517bffffffffffffffffffffffffffffffffffffffffffffffffffffffff8381831617835250505050612632565b7ff0c57e16840df040f15088dc2f81fe391c3923bec73e23a9662efc9c229c6a005468010000000000000000900460ff16611d3457604051631afcd79f60e31b815260040160405180910390fd5b565b5f8160600151515f03611d4a57505f919050565b8160800151515f03611d5d57505f919050565b8151158015611d6e57506020820151155b8015611d7c57506040820151155b15611d8857505f919050565b506001919050565b5f6001600160a01b0382161580611dbf5750611daa6116ed565b6001600160a01b0316826001600160a01b0316145b80611dd257506001600160a01b03821630145b80611de957505f546001600160a01b038381169116145b80611ecd57505f546001600160a01b03166001600160a01b03166304baed9e6040518163ffffffff1660e01b8152600401602060405180830381865afa158015611e35573d5f803e3d5ffd5b505050506040513d601f19601f82011682018060405250810190611e599190612e93565b6001600160a01b031663fc0c546a6040518163ffffffff1660e01b8152600401602060405180830381865afa158015611e94573d5f803e3d5ffd5b505050506040513d601f19601f82011682018060405250810190611eb89190612e93565b6001600160a01b0316826001600160a01b0316145b1592915050565b604080513060248083019190915282518083039091018152604490910182526020810180517bffffffffffffffffffffffffffffffffffffffffffffffffffffffff166370a0823160e01b17905290515f91829182916001600160a01b03861691611f3f91906133c1565b5f604051808303815f865af19150503d805f8114611f78576040519150601f19603f3d011682016040523d82523d5f602084013e611f7d565b606091505b5091509150818015611f9157506020815110155b949350505050565b5f4682141580156114c057505050461490565b5f8281805b60088160ff1611611fe857600160ff82161b831615611fd85781611fd4816133dc565b9250505b611fe1816133f4565b9050611fb1565b50808451148015611ffb57506010821615155b8015611ae057505060201615159392505050565b5f8082600460ff16815181106120275761202761319f565b60200260200101515f1c915082600560ff16815181106120495761204961319f565b60200260200101515f1c9050915091565b6040516001600160a01b03848116602483015283811660448301526064820183905261169e9186918216906323b872dd90608401611c9f565b60408051610180810182525f8082526020820181905291810182905260608082018390526080820183905260a0820183905260c0820183905260e082018390526101008201839052610120820183905261014082018190526101608201525f806121008560c0015161200f565b6040805160018082528183019092529294509092505f9190602080830190803683370190505090508560800151815f8151811061213f5761213f61319f565b63ffffffff909216602092830291909101820152606d548751918801516040808a01519051634a943d2160e01b81526001600160a01b0390931693634a943d219361219793879390918291908b908b90600401613412565b5f604051808303815f875af11580156121b2573d5f803e3d5ffd5b505050506040513d5f823e601f3d908101601f191682016040526121d991908101906135ba565b9097909650945050505050565b83602001516001600160a01b0316845f01516001600160a01b0316846001600160a01b03167f77c957f699292a35e002035101358ada282ad6c1c41c1777caa5535e6dcf88438760400151886060015189608001518a60a001518b60c0015160405161225695949392919061370e565b60405180910390a4835f01516001600160a01b0316826038547f80e456aee85e734180998f6986b7ef91f9f3e74636bc5c21bad8c9644e833c1486886020015189604001518a606001518b608001518c60a001518d60c001516040516122c29796959493929190613743565b60405180910390a483602001516001600160a01b0316845f01516001600160a01b03167f3737f2a73c794dafe53d8aeea06810a9ebcf7167401b259406960e088e03f830866040015160405161231a91815260200190565b60405180910390a360408051602081018490520160408051601f198184030181529181526038545f908152603a602052209061235690826132ab565b5060388054905f612366836133dc565b9190505550604051806101800160405280825f01518152602001826020015181526020018260400151815260200182606001518152602001826080015162ffffff1681526020018260a0015163ffffffff1681526020018260c0015167ffffffffffffffff1681526020018260e0015165ffffffffffff16815260200182610100015165ffffffffffff16815260200182610120015181526020018261014001518152602001826101600151815250606e5f8481526020019081526020015f205f820151815f01556020820151816001015560408201518160020155606082015181600301556080820151816004015f6101000a81548162ffffff021916908362ffffff16021790555060a08201518160040160036101000a81548163ffffffff021916908363ffffffff16021790555060c08201518160040160076101000a81548167ffffffffffffffff021916908367ffffffffffffffff16021790555060e082015181600401600f6101000a81548165ffffffffffff021916908365ffffffffffff1602179055506101008201518160040160156101000a81548165ffffffffffff021916908365ffffffffffff1602179055506101208201518160050155610140820151816006019080519060200190612545929190612798565b50610160820151600782019061255b90826132ab565b50505050505050565b6040808301516001600160a01b038084165f908152603960209081528482208188015184168352815284822087519093168252919091529182208054919290916125af908490613793565b9250508190555081602001516001600160a01b0316825f01516001600160a01b0316826001600160a01b03167fc583a99392d516c915426f908a1de4456fc7dd7051a83af871f8f6f91b1597428560400151866060015187608001518860a001518960c0015160405161262695949392919061370e565b60405180910390a45050565b5f6126466001600160a01b03841683612693565b905080515f1415801561266a5750808060200190518101906126689190612f54565b155b1561114d57604051635274afe760e01b81526001600160a01b0384166004820152602401610f25565b60606114c083835f845f80856001600160a01b031684866040516126b791906133c1565b5f6040518083038185875af1925050503d805f81146126f1576040519150601f19603f3d011682016040523d82523d5f602084013e6126f6565b606091505b5091509150612706868383612710565b9695505050505050565b606082612725576127208261276c565b6114c0565b815115801561273c57506001600160a01b0384163b155b1561276557604051639996b31560e01b81526001600160a01b0385166004820152602401610f25565b50806114c0565b80511561277c5780518082602001fd5b604051630a12f52160e11b815260040160405180910390fd5b50565b828054828255905f5260205f2090600701600890048101928215612834579160200282015f5b8382111561280257835183826101000a81548163ffffffff021916908363ffffffff16021790555092602001926004016020816003010492830192600103026127be565b80156128325782816101000a81549063ffffffff0219169055600401602081600301049283019260010302612802565b505b50612840929150612844565b5090565b5b80821115612840575f8155600101612845565b5f60208284031215612868575f80fd5b81356001600160e01b0319811681146114c0575f80fd5b5f805f60408486031215612891575f80fd5b83359250602084013567ffffffffffffffff808211156128af575f80fd5b818601915086601f8301126128c2575f80fd5b8135818111156128d0575f80fd5b8760208260051b85010111156128e4575f80fd5b6020830194508093505050509250925092565b5f60208284031215612907575f80fd5b5035919050565b5f815180845260208085019450602084015f5b8381101561294357815163ffffffff1687529582019590820190600101612921565b509495945050505050565b5f5b83811015612968578181015183820152602001612950565b50505f910152565b5f815180845261298781602086016020860161294e565b601f01601f19169290920160200192915050565b60208152815160208201526020820151604082015260408201516060820152606082015160808201525f60808301516129db60a084018262ffffff169052565b5060a083015163ffffffff811660c08401525060c083015167ffffffffffffffff811660e08401525060e0830151610100612a1f8185018365ffffffffffff169052565b8401519050610120612a3a8482018365ffffffffffff169052565b8401516101408481019190915284015161018061016080860182905291925090612a686101a086018461290e565b90860151858203601f1901838701529092506127068382612970565b602081525f6114c06020830184612970565b6001600160a01b0381168114612795575f80fd5b8035612ab581612a96565b919050565b5f60208284031215612aca575f80fd5b81356114c081612a96565b5f8060408385031215612ae6575f80fd5b823591506020830135612af881612a96565b809150509250929050565b5f805f60608486031215612b15575f80fd5b8335612b2081612a96565b92506020840135612b3081612a96565b91506040840135612b4081612a96565b809150509250925092565b634e487b7160e01b5f52604160045260245ffd5b60405160a0810167ffffffffffffffff81118282101715612b8257612b82612b4b565b60405290565b60405160e0810167ffffffffffffffff81118282101715612b8257612b82612b4b565b604051610180810167ffffffffffffffff81118282101715612b8257612b82612b4b565b604051601f8201601f1916810167ffffffffffffffff81118282101715612bf857612bf8612b4b565b604052919050565b5f67ffffffffffffffff821115612c1957612c19612b4b565b50601f01601f191660200190565b5f82601f830112612c36575f80fd5b8135612c49612c4482612c00565b612bcf565b818152846020838601011115612c5d575f80fd5b816020850160208301375f918101602001919091529392505050565b5f805f60608486031215612c8b575f80fd5b8335612c9681612a96565b9250602084013567ffffffffffffffff80821115612cb2575f80fd5b9085019060a08288031215612cc5575f80fd5b612ccd612b5f565b823581526020830135602082015260408301356040820152606083013582811115612cf6575f80fd5b612d0289828601612c27565b606083015250608083013582811115612d19575f80fd5b612d2589828601612c27565b60808301525093506040860135915080821115612d40575f80fd5b50612d4d86828701612c27565b9150509250925092565b5f67ffffffffffffffff821115612d7057612d70612b4b565b5060051b60200190565b5f82601f830112612d89575f80fd5b81356020612d99612c4483612d57565b8083825260208201915060208460051b870101935086841115612dba575f80fd5b602086015b84811015612dd65780358352918301918301612dbf565b509695505050505050565b5f60208284031215612df1575f80fd5b813567ffffffffffffffff80821115612e08575f80fd5b9083019060e08286031215612e1b575f80fd5b612e23612b88565b612e2c83612aaa565b8152612e3a60208401612aaa565b602082015260408301356040820152606083013560608201526080830135608082015260a083013560a082015260c083013582811115612e78575f80fd5b612e8487828601612d7a565b60c08301525095945050505050565b5f60208284031215612ea3575f80fd5b81516114c081612a96565b5f60208284031215612ebe575f80fd5b5051919050565b838152604060208083018290529082018390525f90849060608401835b86811015612f10578335612ef581612a96565b6001600160a01b031682529282019290820190600101612ee2565b50979650505050505050565b600181811c90821680612f3057607f821691505b602082108103612f4e57634e487b7160e01b5f52602260045260245ffd5b50919050565b5f60208284031215612f64575f80fd5b815180151581146114c0575f80fd5b8051612ab581612a96565b5f82601f830112612f8d575f80fd5b81516020612f9d612c4483612d57565b8083825260208201915060208460051b870101935086841115612fbe575f80fd5b602086015b84811015612dd65780518352918301918301612fc3565b5f82601f830112612fe9575f80fd5b81516020612ff9612c4483612d57565b8083825260208201915060208460051b87010193508684111561301a575f80fd5b602086015b84811015612dd657805161303281612a96565b835291830191830161301f565b5f805f60608486031215613051575f80fd5b835167ffffffffffffffff80821115613068575f80fd5b818601915086601f83011261307b575f80fd5b8151602061308b612c4483612d57565b82815260059290921b8401810191818101908a8411156130a9575f80fd5b8286015b84811015613158578051868111156130c3575f80fd5b870160e0818e03601f190112156130d8575f80fd5b6130e0612b88565b6130eb868301612f73565b81526130f960408301612f73565b86820152606082015160408201526080820151606082015260a0820151608082015260c082015160a082015260e082015188811115613136575f80fd5b6131448f8883860101612f7e565b60c0830152508452509183019183016130ad565b5091890151919750909350505080821115613171575f80fd5b61317d87838801612fda565b93506040860151915080821115613192575f80fd5b50612d4d86828701612f7e565b634e487b7160e01b5f52603260045260245ffd5b634e487b7160e01b5f52601160045260245ffd5b818103818111156103a3576103a36131b3565b5f80858511156131e8575f80fd5b838611156131f4575f80fd5b5050820193919092039150565b6bffffffffffffffffffffffff19813581811691601485101561322e5780818660140360031b1b83161692505b505092915050565b838152606060208201525f61324e6060830185612970565b82810360408401526127068185612970565b601f82111561114d57805f5260205f20601f840160051c810160208510156132855750805b601f840160051c820191505b818110156132a4575f8155600101613291565b5050505050565b815167ffffffffffffffff8111156132c5576132c5612b4b565b6132d9816132d38454612f1c565b84613260565b602080601f83116001811461330c575f84156132f55750858301515b5f19600386901b1c1916600185901b178555613363565b5f85815260208120601f198616915b8281101561333a5788860151825594840194600190910190840161331b565b508582101561335757878501515f19600388901b60f8161c191681555b505060018460011b0185555b505050505050565b602081528151602082015260208201516040820152604082015160608201525f606083015160a060808401526133a460c0840182612970565b90506080840151601f198483030160a0850152611ae08282612970565b5f82516133d281846020870161294e565b9190910192915050565b5f600182016133ed576133ed6131b3565b5060010190565b5f60ff821660ff8103613409576134096131b3565b60010192915050565b61010080825288519082018190525f90610120830190602090818c01845b8281101561345257815163ffffffff1685529383019390830190600101613430565b5050506001600160a01b038a166020850152506001600160a01b03881660408401526001600160a01b038716606084015285608084015261349a60a084018662ffffff169052565b65ffffffffffff9390931660c08301525080820360e0909101525f81526020019695505050505050565b805162ffffff81168114612ab5575f80fd5b805163ffffffff81168114612ab5575f80fd5b805167ffffffffffffffff81168114612ab5575f80fd5b805165ffffffffffff81168114612ab5575f80fd5b5f82601f830112613524575f80fd5b81516020613534612c4483612d57565b8083825260208201915060208460051b870101935086841115613555575f80fd5b602086015b84811015612dd65761356b816134d6565b835291830191830161355a565b5f82601f830112613587575f80fd5b8151613595612c4482612c00565b8181528460208386010111156135a9575f80fd5b611f9182602083016020870161294e565b5f80604083850312156135cb575f80fd5b82519150602083015167ffffffffffffffff808211156135e9575f80fd5b9084019061018082870312156135fd575f80fd5b613605612bab565b82518152602083015160208201526040830151604082015260608301516060820152613633608084016134c4565b608082015261364460a084016134d6565b60a082015261365560c084016134e9565b60c082015261366660e08401613500565b60e0820152610100613679818501613500565b908201526101208381015190820152610140808401518381111561369b575f80fd5b6136a789828701613515565b82840152505061016080840151838111156136c0575f80fd5b6136cc89828701613578565b8284015250508093505050509250929050565b5f815180845260208085019450602084015f5b83811015612943578151875295820195908201906001016136f2565b85815284602082015283604082015282606082015260a060808201525f61373860a08301846136df565b979650505050505050565b5f6001600160a01b03808a1683528089166020840152508660408301528560608301528460808301528360a083015260e060c083015261378660e08301846136df565b9998505050505050505050565b808201808211156103a3576103a36131b356fea2646970667358221220445b453fce4d75e3a7c52538a613addcf05131a39e9ef360933df9fe05ea874d64736f6c63430008170033",
    "linkReferences": {}
  },
  "methodIdentifiers": {
    "FLAG_MAX_FEE()": "3055fa88",
    "FLAG_TTL()": "eefc9539",
    "cancelRunningPayments(address)": "73d7764e",
    "claimPreviouslyUnclaimable(address,address,address)": "81ac0367",
    "getBridgeDataByPaymentId(uint256)": "6baac602",
    "getEverClearSpoke()": "a351b63a",
    "getIntentByIntentId(bytes32)": "3b3c4ab3",
    "getPaymentId()": "5a651418",
    "grantModuleRole(bytes32,address)": "6c67e807",
    "grantModuleRoleBatched(bytes32,address[])": "272bbd44",
    "identifier()": "7998a1c4",
    "init(address,(uint256,uint256,uint256,string,string),bytes)": "b66a870c",
    "isTrustedForwarder(address)": "572b6c05",
    "orchestrator()": "b74795d9",
    "processPayments(address)": "e151fc61",
    "revokeModuleRole(bytes32,address)": "bcb61920",
    "revokeModuleRoleBatched(bytes32,address[])": "24e30270",
    "supportsInterface(bytes4)": "01ffc9a7",
    "title()": "4a79d50c",
    "trustedForwarder()": "7da0a877",
    "unclaimable(address,address,address)": "ceb43f54",
    "url()": "5600f04f",
    "validPaymentOrder((address,address,uint256,uint256,uint256,bytes32,bytes32[]))": "f7698285",
    "version()": "54fd4d50"
  },
  "id": 144
}