{
  "abi": [
    {
      "type": "function",
      "name": "cancelPaymentOrderThroughQueueId",
      "inputs": [
        {
          "name": "orderId_",
          "type": "uint256",
          "internalType": "uint256"
        },
        {
          "name": "client_",
          "type": "address",
          "internalType": "contract IERC20PaymentClientBase_v2"
        }
      ],
      "outputs": [
        {
          "name": "success_",
          "type": "bool",
          "internalType": "bool"
        }
      ],
      "stateMutability": "nonpayable"
    },
    {
      "type": "function",
      "name": "cancelRunningPayments",
      "inputs": [
        {
          "name": "client_",
          "type": "address",
          "internalType": "contract IERC20PaymentClientBase_v2"
        }
      ],
      "outputs": [],
      "stateMutability": "view"
    },
    {
      "type": "function",
      "name": "claimPreviouslyUnclaimable",
      "inputs": [
        {
          "name": "client_",
          "type": "address",
          "internalType": "address"
        },
        {
          "name": "token_",
          "type": "address",
          "internalType": "address"
        },
        {
          "name": "receiver_",
          "type": "address",
          "internalType": "address"
        }
      ],
      "outputs": [],
      "stateMutability": "nonpayable"
    },
    {
      "type": "function",
      "name": "claimPreviouslyUnclaimableToTreasury",
      "inputs": [
        {
          "name": "client_",
          "type": "address",
          "internalType": "address"
        },
        {
          "name": "token_",
          "type": "address",
          "internalType": "address"
        },
        {
          "name": "receiver_",
          "type": "address",
          "internalType": "address"
        }
      ],
      "outputs": [],
      "stateMutability": "nonpayable"
    },
    {
      "type": "function",
      "name": "executePaymentQueue",
      "inputs": [
        {
          "name": "client_",
          "type": "address",
          "internalType": "contract IERC20PaymentClientBase_v2"
        }
      ],
      "outputs": [],
      "stateMutability": "nonpayable"
    },
    {
      "type": "function",
      "name": "getCanceledOrdersTreasury",
      "inputs": [],
      "outputs": [
        {
          "name": "treasury_",
          "type": "address",
          "internalType": "address"
        }
      ],
      "stateMutability": "view"
    },
    {
      "type": "function",
      "name": "getFailedOrdersTreasury",
      "inputs": [],
      "outputs": [
        {
          "name": "treasury_",
          "type": "address",
          "internalType": "address"
        }
      ],
      "stateMutability": "view"
    },
    {
      "type": "function",
      "name": "getOrder",
      "inputs": [
        {
          "name": "orderId_",
          "type": "uint256",
          "internalType": "uint256"
        },
        {
          "name": "client_",
          "type": "address",
          "internalType": "contract IERC20PaymentClientBase_v2"
        }
      ],
      "outputs": [
        {
          "name": "order_",
          "type": "tuple",
          "internalType": "struct IPP_Queue_v1.QueuedOrder",
          "components": [
            {
              "name": "order_",
              "type": "tuple",
              "internalType": "struct IERC20PaymentClientBase_v2.PaymentOrder",
              "components": [
                {
                  "name": "recipient",
                  "type": "address",
                  "internalType": "address"
                },
                {
                  "name": "paymentToken",
                  "type": "address",
                  "internalType": "address"
                },
                {
                  "name": "amount",
                  "type": "uint256",
                  "internalType": "uint256"
                },
                {
                  "name": "originChainId",
                  "type": "uint256",
                  "internalType": "uint256"
                },
                {
                  "name": "targetChainId",
                  "type": "uint256",
                  "internalType": "uint256"
                },
                {
                  "name": "flags",
                  "type": "bytes32",
                  "internalType": "bytes32"
                },
                {
                  "name": "data",
                  "type": "bytes32[]",
                  "internalType": "bytes32[]"
                }
              ]
            },
            {
              "name": "state_",
              "type": "uint8",
              "internalType": "enum IPP_Queue_v1.RedemptionState"
            },
            {
              "name": "orderId_",
              "type": "uint256",
              "internalType": "uint256"
            },
            {
              "name": "timestamp_",
              "type": "uint256",
              "internalType": "uint256"
            },
            {
              "name": "client_",
              "type": "address",
              "internalType": "address"
            }
          ]
        }
      ],
      "stateMutability": "view"
    },
    {
      "type": "function",
      "name": "getOrderQueue",
      "inputs": [
        {
          "name": "client_",
          "type": "address",
          "internalType": "address"
        }
      ],
      "outputs": [
        {
          "name": "queue_",
          "type": "uint256[]",
          "internalType": "uint256[]"
        }
      ],
      "stateMutability": "view"
    },
    {
      "type": "function",
      "name": "getQueueHead",
      "inputs": [
        {
          "name": "client_",
          "type": "address",
          "internalType": "address"
        }
      ],
      "outputs": [
        {
          "name": "head_",
          "type": "uint256",
          "internalType": "uint256"
        }
      ],
      "stateMutability": "view"
    },
    {
      "type": "function",
      "name": "getQueueOperatorRole",
      "inputs": [],
      "outputs": [
        {
          "name": "role_",
          "type": "bytes32",
          "internalType": "bytes32"
        }
      ],
      "stateMutability": "pure"
    },
    {
      "type": "function",
      "name": "getQueueOperatorRoleAdmin",
      "inputs": [],
      "outputs": [
        {
          "name": "role_",
          "type": "bytes32",
          "internalType": "bytes32"
        }
      ],
      "stateMutability": "pure"
    },
    {
      "type": "function",
      "name": "getQueueSizeForClient",
      "inputs": [
        {
          "name": "client_",
          "type": "address",
          "internalType": "address"
        }
      ],
      "outputs": [
        {
          "name": "size_",
          "type": "uint256",
          "internalType": "uint256"
        }
      ],
      "stateMutability": "view"
    },
    {
      "type": "function",
      "name": "getQueueTail",
      "inputs": [
        {
          "name": "client_",
          "type": "address",
          "internalType": "address"
        }
      ],
      "outputs": [
        {
          "name": "tail_",
          "type": "uint256",
          "internalType": "uint256"
        }
      ],
      "stateMutability": "view"
    },
    {
      "type": "function",
      "name": "grantModuleRole",
      "inputs": [
        {
          "name": "role",
          "type": "bytes32",
          "internalType": "bytes32"
        },
        {
          "name": "target",
          "type": "address",
          "internalType": "address"
        }
      ],
      "outputs": [],
      "stateMutability": "nonpayable"
    },
    {
      "type": "function",
      "name": "grantModuleRoleBatched",
      "inputs": [
        {
          "name": "role",
          "type": "bytes32",
          "internalType": "bytes32"
        },
        {
          "name": "targets",
          "type": "address[]",
          "internalType": "address[]"
        }
      ],
      "outputs": [],
      "stateMutability": "nonpayable"
    },
    {
      "type": "function",
      "name": "identifier",
      "inputs": [],
      "outputs": [
        {
          "name": "",
          "type": "bytes32",
          "internalType": "bytes32"
        }
      ],
      "stateMutability": "view"
    },
    {
      "type": "function",
      "name": "init",
      "inputs": [
        {
          "name": "orchestrator_",
          "type": "address",
          "internalType": "contract IOrchestrator_v1"
        },
        {
          "name": "metadata_",
          "type": "tuple",
          "internalType": "struct IModule_v1.Metadata",
          "components": [
            {
              "name": "majorVersion",
              "type": "uint256",
              "internalType": "uint256"
            },
            {
              "name": "minorVersion",
              "type": "uint256",
              "internalType": "uint256"
            },
            {
              "name": "patchVersion",
              "type": "uint256",
              "internalType": "uint256"
            },
            {
              "name": "url",
              "type": "string",
              "internalType": "string"
            },
            {
              "name": "title",
              "type": "string",
              "internalType": "string"
            }
          ]
        },
        {
          "name": "configData_",
          "type": "bytes",
          "internalType": "bytes"
        }
      ],
      "outputs": [],
      "stateMutability": "nonpayable"
    },
    {
      "type": "function",
      "name": "isTrustedForwarder",
      "inputs": [
        {
          "name": "forwarder",
          "type": "address",
          "internalType": "address"
        }
      ],
      "outputs": [
        {
          "name": "",
          "type": "bool",
          "internalType": "bool"
        }
      ],
      "stateMutability": "view"
    },
    {
      "type": "function",
      "name": "orchestrator",
      "inputs": [],
      "outputs": [
        {
          "name": "",
          "type": "address",
          "internalType": "contract IOrchestrator_v1"
        }
      ],
      "stateMutability": "view"
    },
    {
      "type": "function",
      "name": "processPayments",
      "inputs": [
        {
          "name": "client_",
          "type": "address",
          "internalType": "contract IERC20PaymentClientBase_v2"
        }
      ],
      "outputs": [],
      "stateMutability": "nonpayable"
    },
    {
      "type": "function",
      "name": "revokeModuleRole",
      "inputs": [
        {
          "name": "role",
          "type": "bytes32",
          "internalType": "bytes32"
        },
        {
          "name": "target",
          "type": "address",
          "internalType": "address"
        }
      ],
      "outputs": [],
      "stateMutability": "nonpayable"
    },
    {
      "type": "function",
      "name": "revokeModuleRoleBatched",
      "inputs": [
        {
          "name": "role",
          "type": "bytes32",
          "internalType": "bytes32"
        },
        {
          "name": "targets",
          "type": "address[]",
          "internalType": "address[]"
        }
      ],
      "outputs": [],
      "stateMutability": "nonpayable"
    },
    {
      "type": "function",
      "name": "setCanceledOrdersTreasury",
      "inputs": [
        {
          "name": "treasury_",
          "type": "address",
          "internalType": "address"
        }
      ],
      "outputs": [],
      "stateMutability": "nonpayable"
    },
    {
      "type": "function",
      "name": "setFailedOrdersTreasury",
      "inputs": [
        {
          "name": "treasury_",
          "type": "address",
          "internalType": "address"
        }
      ],
      "outputs": [],
      "stateMutability": "nonpayable"
    },
    {
      "type": "function",
      "name": "supportsInterface",
      "inputs": [
        {
          "name": "interfaceId_",
          "type": "bytes4",
          "internalType": "bytes4"
        }
      ],
      "outputs": [
        {
          "name": "",
          "type": "bool",
          "internalType": "bool"
        }
      ],
      "stateMutability": "view"
    },
    {
      "type": "function",
      "name": "title",
      "inputs": [],
      "outputs": [
        {
          "name": "",
          "type": "string",
          "internalType": "string"
        }
      ],
      "stateMutability": "view"
    },
    {
      "type": "function",
      "name": "trustedForwarder",
      "inputs": [],
      "outputs": [
        {
          "name": "",
          "type": "address",
          "internalType": "address"
        }
      ],
      "stateMutability": "view"
    },
    {
      "type": "function",
      "name": "unclaimable",
      "inputs": [
        {
          "name": "client_",
          "type": "address",
          "internalType": "address"
        },
        {
          "name": "token_",
          "type": "address",
          "internalType": "address"
        },
        {
          "name": "paymentReceiver_",
          "type": "address",
          "internalType": "address"
        }
      ],
      "outputs": [
        {
          "name": "amount_",
          "type": "uint256",
          "internalType": "uint256"
        }
      ],
      "stateMutability": "view"
    },
    {
      "type": "function",
      "name": "url",
      "inputs": [],
      "outputs": [
        {
          "name": "",
          "type": "string",
          "internalType": "string"
        }
      ],
      "stateMutability": "view"
    },
    {
      "type": "function",
      "name": "validPaymentOrder",
      "inputs": [
        {
          "name": "order_",
          "type": "tuple",
          "internalType": "struct IERC20PaymentClientBase_v2.PaymentOrder",
          "components": [
            {
              "name": "recipient",
              "type": "address",
              "internalType": "address"
            },
            {
              "name": "paymentToken",
              "type": "address",
              "internalType": "address"
            },
            {
              "name": "amount",
              "type": "uint256",
              "internalType": "uint256"
            },
            {
              "name": "originChainId",
              "type": "uint256",
              "internalType": "uint256"
            },
            {
              "name": "targetChainId",
              "type": "uint256",
              "internalType": "uint256"
            },
            {
              "name": "flags",
              "type": "bytes32",
              "internalType": "bytes32"
            },
            {
              "name": "data",
              "type": "bytes32[]",
              "internalType": "bytes32[]"
            }
          ]
        }
      ],
      "outputs": [
        {
          "name": "isValid_",
          "type": "bool",
          "internalType": "bool"
        }
      ],
      "stateMutability": "view"
    },
    {
      "type": "function",
      "name": "version",
      "inputs": [],
      "outputs": [
        {
          "name": "",
          "type": "uint256",
          "internalType": "uint256"
        },
        {
          "name": "",
          "type": "uint256",
          "internalType": "uint256"
        },
        {
          "name": "",
          "type": "uint256",
          "internalType": "uint256"
        }
      ],
      "stateMutability": "view"
    },
    {
      "type": "event",
      "name": "Initialized",
      "inputs": [
        {
          "name": "version",
          "type": "uint64",
          "indexed": false,
          "internalType": "uint64"
        }
      ],
      "anonymous": false
    },
    {
      "type": "event",
      "name": "ModuleInitialized",
      "inputs": [
        {
          "name": "parentOrchestrator",
          "type": "address",
          "indexed": true,
          "internalType": "address"
        },
        {
          "name": "metadata",
          "type": "tuple",
          "indexed": false,
          "internalType": "struct IModule_v1.Metadata",
          "components": [
            {
              "name": "majorVersion",
              "type": "uint256",
              "internalType": "uint256"
            },
            {
              "name": "minorVersion",
              "type": "uint256",
              "internalType": "uint256"
            },
            {
              "name": "patchVersion",
              "type": "uint256",
              "internalType": "uint256"
            },
            {
              "name": "url",
              "type": "string",
              "internalType": "string"
            },
            {
              "name": "title",
              "type": "string",
              "internalType": "string"
            }
          ]
        }
      ],
      "anonymous": false
    },
    {
      "type": "event",
      "name": "PaymentOrderProcessed",
      "inputs": [
        {
          "name": "paymentClient",
          "type": "address",
          "indexed": true,
          "internalType": "address"
        },
        {
          "name": "recipient",
          "type": "address",
          "indexed": true,
          "internalType": "address"
        },
        {
          "name": "paymentToken",
          "type": "address",
          "indexed": true,
          "internalType": "address"
        },
        {
          "name": "amount",
          "type": "uint256",
          "indexed": false,
          "internalType": "uint256"
        },
        {
          "name": "originChainId",
          "type": "uint256",
          "indexed": false,
          "internalType": "uint256"
        },
        {
          "name": "targetChainId",
          "type": "uint256",
          "indexed": false,
          "internalType": "uint256"
        },
        {
          "name": "flags",
          "type": "bytes32",
          "indexed": false,
          "internalType": "bytes32"
        },
        {
          "name": "data",
          "type": "bytes32[]",
          "indexed": false,
          "internalType": "bytes32[]"
        }
      ],
      "anonymous": false
    },
    {
      "type": "event",
      "name": "PaymentOrderQueued",
      "inputs": [
        {
          "name": "orderId_",
          "type": "uint256",
          "indexed": true,
          "internalType": "uint256"
        },
        {
          "name": "recipient_",
          "type": "address",
          "indexed": true,
          "internalType": "address"
        },
        {
          "name": "token_",
          "type": "address",
          "indexed": true,
          "internalType": "address"
        },
        {
          "name": "client_",
          "type": "address",
          "indexed": false,
          "internalType": "address"
        },
        {
          "name": "amount_",
          "type": "uint256",
          "indexed": false,
          "internalType": "uint256"
        },
        {
          "name": "flags_",
          "type": "uint256",
          "indexed": false,
          "internalType": "uint256"
        }
      ],
      "anonymous": false
    },
    {
      "type": "event",
      "name": "PaymentOrderStateChanged",
      "inputs": [
        {
          "name": "orderId_",
          "type": "uint256",
          "indexed": true,
          "internalType": "uint256"
        },
        {
          "name": "state_",
          "type": "uint8",
          "indexed": false,
          "internalType": "enum IPP_Queue_v1.RedemptionState"
        },
        {
          "name": "client_",
          "type": "address",
          "indexed": true,
          "internalType": "address"
        },
        {
          "name": "executedBy_",
          "type": "address",
          "indexed": true,
          "internalType": "address"
        }
      ],
      "anonymous": false
    },
    {
      "type": "event",
      "name": "PaymentOrderTimingSkip",
      "inputs": [
        {
          "name": "orderId_",
          "type": "uint256",
          "indexed": true,
          "internalType": "uint256"
        },
        {
          "name": "client_",
          "type": "address",
          "indexed": true,
          "internalType": "address"
        },
        {
          "name": "reason_",
          "type": "uint8",
          "indexed": false,
          "internalType": "uint8"
        },
        {
          "name": "currentTime_",
          "type": "uint256",
          "indexed": false,
          "internalType": "uint256"
        }
      ],
      "anonymous": false
    },
    {
      "type": "event",
      "name": "PaymentQueueExecuted",
      "inputs": [
        {
          "name": "executor_",
          "type": "address",
          "indexed": true,
          "internalType": "address"
        },
        {
          "name": "client_",
          "type": "address",
          "indexed": true,
          "internalType": "address"
        },
        {
          "name": "count_",
          "type": "uint256",
          "indexed": false,
          "internalType": "uint256"
        }
      ],
      "anonymous": false
    },
    {
      "type": "event",
      "name": "ProtocolFeeTransferred",
      "inputs": [
        {
          "name": "token",
          "type": "address",
          "indexed": true,
          "internalType": "address"
        },
        {
          "name": "treasury",
          "type": "address",
          "indexed": true,
          "internalType": "address"
        },
        {
          "name": "feeAmount",
          "type": "uint256",
          "indexed": false,
          "internalType": "uint256"
        }
      ],
      "anonymous": false
    },
    {
      "type": "event",
      "name": "TokensReleased",
      "inputs": [
        {
          "name": "recipient",
          "type": "address",
          "indexed": true,
          "internalType": "address"
        },
        {
          "name": "token",
          "type": "address",
          "indexed": true,
          "internalType": "address"
        },
        {
          "name": "amount",
          "type": "uint256",
          "indexed": false,
          "internalType": "uint256"
        }
      ],
      "anonymous": false
    },
    {
      "type": "event",
      "name": "UnclaimableAmountAdded",
      "inputs": [
        {
          "name": "paymentClient",
          "type": "address",
          "indexed": true,
          "internalType": "address"
        },
        {
          "name": "token",
          "type": "address",
          "indexed": true,
          "internalType": "address"
        },
        {
          "name": "recipient",
          "type": "address",
          "indexed": true,
          "internalType": "address"
        },
        {
          "name": "amount",
          "type": "uint256",
          "indexed": false,
          "internalType": "uint256"
        }
      ],
      "anonymous": false
    },
    {
      "type": "event",
      "name": "UnclaimableAmountClaimedToTreasury",
      "inputs": [
        {
          "name": "originalReceiver_",
          "type": "address",
          "indexed": true,
          "internalType": "address"
        },
        {
          "name": "treasury_",
          "type": "address",
          "indexed": true,
          "internalType": "address"
        },
        {
          "name": "amount_",
          "type": "uint256",
          "indexed": true,
          "internalType": "uint256"
        },
        {
          "name": "queueOperator_",
          "type": "address",
          "indexed": false,
          "internalType": "address"
        }
      ],
      "anonymous": false
    },
    {
      "type": "error",
      "name": "AddressEmptyCode",
      "inputs": [
        {
          "name": "target",
          "type": "address",
          "internalType": "address"
        }
      ]
    },
    {
      "type": "error",
      "name": "AddressInsufficientBalance",
      "inputs": [
        {
          "name": "account",
          "type": "address",
          "internalType": "address"
        }
      ]
    },
    {
      "type": "error",
      "name": "FailedInnerCall",
      "inputs": []
    },
    {
      "type": "error",
      "name": "InvalidInitialization",
      "inputs": []
    },
    {
      "type": "error",
      "name": "Library__LinkedIdList__IdNotConsecutive",
      "inputs": []
    },
    {
      "type": "error",
      "name": "Library__LinkedIdList__InvalidId",
      "inputs": []
    },
    {
      "type": "error",
      "name": "Library__LinkedIdList__InvalidNewId",
      "inputs": []
    },
    {
      "type": "error",
      "name": "Library__LinkedIdList__InvalidPosition",
      "inputs": []
    },
    {
      "type": "error",
      "name": "Module_OrchestratorCallbackFailed",
      "inputs": [
        {
          "name": "funcSig",
          "type": "string",
          "internalType": "string"
        }
      ]
    },
    {
      "type": "error",
      "name": "Module_PP_Queue_PaymentFailed",
      "inputs": [
        {
          "name": "client_",
          "type": "address",
          "internalType": "address"
        },
        {
          "name": "recipient_",
          "type": "address",
          "internalType": "address"
        },
        {
          "name": "token_",
          "type": "address",
          "internalType": "address"
        },
        {
          "name": "amount_",
          "type": "uint256",
          "internalType": "uint256"
        }
      ]
    },
    {
      "type": "error",
      "name": "Module__CallerNotAuthorized",
      "inputs": [
        {
          "name": "role",
          "type": "bytes32",
          "internalType": "bytes32"
        },
        {
          "name": "caller",
          "type": "address",
          "internalType": "address"
        }
      ]
    },
    {
      "type": "error",
      "name": "Module__InvalidAddress",
      "inputs": []
    },
    {
      "type": "error",
      "name": "Module__InvalidMetadata",
      "inputs": []
    },
    {
      "type": "error",
      "name": "Module__InvalidOrchestratorAddress",
      "inputs": []
    },
    {
      "type": "error",
      "name": "Module__OnlyCallableByOrchestrator",
      "inputs": []
    },
    {
      "type": "error",
      "name": "Module__OnlyCallableByPaymentClient",
      "inputs": []
    },
    {
      "type": "error",
      "name": "Module__PP_Queue_EmptyQueue",
      "inputs": []
    },
    {
      "type": "error",
      "name": "Module__PP_Queue_InvalidAmount",
      "inputs": [
        {
          "name": "amount_",
          "type": "uint256",
          "internalType": "uint256"
        }
      ]
    },
    {
      "type": "error",
      "name": "Module__PP_Queue_InvalidChainId",
      "inputs": [
        {
          "name": "originChainId_",
          "type": "uint256",
          "internalType": "uint256"
        },
        {
          "name": "targetChainId_",
          "type": "uint256",
          "internalType": "uint256"
        },
        {
          "name": "currentChainId_",
          "type": "uint256",
          "internalType": "uint256"
        }
      ]
    },
    {
      "type": "error",
      "name": "Module__PP_Queue_InvalidClientAddress",
      "inputs": [
        {
          "name": "client_",
          "type": "address",
          "internalType": "address"
        }
      ]
    },
    {
      "type": "error",
      "name": "Module__PP_Queue_InvalidConfig",
      "inputs": []
    },
    {
      "type": "error",
      "name": "Module__PP_Queue_InvalidFlagsOrData",
      "inputs": [
        {
          "name": "flags_",
          "type": "bytes32",
          "internalType": "bytes32"
        },
        {
          "name": "dataLength_",
          "type": "uint256",
          "internalType": "uint256"
        }
      ]
    },
    {
      "type": "error",
      "name": "Module__PP_Queue_InvalidOrderId",
      "inputs": [
        {
          "name": "client_",
          "type": "address",
          "internalType": "address"
        },
        {
          "name": "orderId_",
          "type": "uint256",
          "internalType": "uint256"
        }
      ]
    },
    {
      "type": "error",
      "name": "Module__PP_Queue_InvalidRecipient",
      "inputs": [
        {
          "name": "recipient_",
          "type": "address",
          "internalType": "address"
        }
      ]
    },
    {
      "type": "error",
      "name": "Module__PP_Queue_InvalidState",
      "inputs": []
    },
    {
      "type": "error",
      "name": "Module__PP_Queue_InvalidStateTransition",
      "inputs": [
        {
          "name": "orderId_",
          "type": "uint256",
          "internalType": "uint256"
        },
        {
          "name": "currentState_",
          "type": "uint8",
          "internalType": "enum IPP_Queue_v1.RedemptionState"
        },
        {
          "name": "newState_",
          "type": "uint8",
          "internalType": "enum IPP_Queue_v1.RedemptionState"
        }
      ]
    },
    {
      "type": "error",
      "name": "Module__PP_Queue_InvalidTreasuryAddress",
      "inputs": [
        {
          "name": "treasury_",
          "type": "address",
          "internalType": "address"
        }
      ]
    },
    {
      "type": "error",
      "name": "Module__PP_Queue_OnlyCallableByClient",
      "inputs": []
    },
    {
      "type": "error",
      "name": "Module__PP_Queue_QueueOperationFailed",
      "inputs": [
        {
          "name": "client_",
          "type": "address",
          "internalType": "address"
        }
      ]
    },
    {
      "type": "error",
      "name": "Module__PP_Queue_Unauthorized",
      "inputs": []
    },
    {
      "type": "error",
      "name": "Module__PP_Queue_ZeroAmount",
      "inputs": []
    },
    {
      "type": "error",
      "name": "Module__PaymentProcessor__CannotCallOnOtherClientsOrders",
      "inputs": []
    },
    {
      "type": "error",
      "name": "Module__PaymentProcessor__NothingToClaim",
      "inputs": [
        {
          "name": "paymentClient",
          "type": "address",
          "internalType": "address"
        },
        {
          "name": "paymentReceiver",
          "type": "address",
          "internalType": "address"
        }
      ]
    },
    {
      "type": "error",
      "name": "Module__PaymentProcessor__OnlyCallableByModule",
      "inputs": []
    },
    {
      "type": "error",
      "name": "NotInitializing",
      "inputs": []
    },
    {
      "type": "error",
      "name": "SafeERC20FailedOperation",
      "inputs": [
        {
          "name": "token",
          "type": "address",
          "internalType": "address"
        }
      ]
    }
  ],
  "bytecode": {
    "object": "0x60a060405234801562000010575f80fd5b505f6080526200001f62000025565b620000d9565b7ff0c57e16840df040f15088dc2f81fe391c3923bec73e23a9662efc9c229c6a00805468010000000000000000900460ff1615620000765760405163f92ee8a960e01b815260040160405180910390fd5b80546001600160401b0390811614620000d65780546001600160401b0319166001600160401b0390811782556040519081527fc7f505b2f371ae2175ee4913f4499e1f2633a7b5936321eed1cdaeb6115181d29060200160405180910390a15b50565b60805161418a620000ef5f395f505061418a5ff3fe608060405234801561000f575f80fd5b50600436106101e7575f3560e01c80637ce5947111610109578063bcb619201161009e578063e151fc611161006e578063e151fc6114610477578063ee8b4f941461048a578063f14ba610146104aa578063f7698285146104bd575f80fd5b8063bcb61920146103f1578063cbbfe16814610404578063ceb43f5414610424578063df40044a14610466575f80fd5b80639d6de168116100d95780639d6de1681461039f578063aca51e3e146103b2578063b66a870c146103ce578063b74795d9146103e1575f80fd5b80637ce594711461035e5780637da0a8771461037157806381ac0367146103795780639b5674ab1461038c575f80fd5b80634d45e9aa1161017f5780636c67e8071161014f5780636c67e8071461031d57806373d7764e1461033057806375a2dc05146103435780637998a1c414610356575f80fd5b80634d45e9aa146102b957806354fd4d50146102de5780635600f04f14610302578063572b6c051461030a575f80fd5b806324e30270116101ba57806324e302701461026b578063271e42831461027e578063272bbd44146102915780634a79d50c146102a4575f80fd5b806301ffc9a7146101eb5780630e4eaa4f146102135780631720628214610243578063195254ad14610258575b5f80fd5b6101fe6101f9366004613559565b6104d0565b60405190151581526020015b60405180910390f35b7f51554555455f4f50455241544f525f524f4c455f41444d494e000000000000005b60405190815260200161020a565b61025661025136600461359f565b610515565b005b6101fe6102663660046135ba565b6105f9565b6102566102793660046135e8565b610854565b61025661028c366004613660565b610aa8565b61025661029f3660046135e8565b610c64565b6102ac610e33565b60405161020a91906136f5565b603c546001600160a01b03165b6040516001600160a01b03909116815260200161020a565b6001546002546003546040805193845260208401929092529082015260600161020a565b6102ac610ec6565b6101fe61031836600461359f565b610ed8565b61025661032b3660046135ba565b610f44565b61025661033e36600461359f565b61114a565b61023561035136600461359f565b611158565b6102356111cb565b61025661036c36600461359f565b611323565b6102c6611374565b610256610387366004613660565b6113e8565b61023561039a36600461359f565b611459565b6102566103ad36600461359f565b611476565b7251554555455f4f50455241544f525f524f4c4560681b610235565b6102566103dc366004613804565b611524565b5f546001600160a01b03166102c6565b6102566103ff3660046135ba565b611676565b6104176104123660046135ba565b61184d565b60405161020a9190613916565b610235610432366004613660565b6001600160a01b039283165f908152603b602090815260408083209486168352938152838220929094168152925290205490565b603d546001600160a01b03166102c6565b61025661048536600461359f565b611a23565b61049d61049836600461359f565b611b71565b60405161020a91906139fa565b6102356104b836600461359f565b611c94565b6101fe6104cb366004613acc565b611cb4565b5f6001600160e01b031982166313adbc2d60e31b148061050057506001600160e01b03198216632af7349960e01b145b8061050f575061050f82611cbe565b92915050565b5f546040805163d09edf3160e01b815290516105ed926001600160a01b03169163d09edf319160048083019260209291908290030181865afa15801561055d573d5f803e3d5ffd5b505050506040513d601f19601f820116820180604052508101906105819190613b7e565b6001600160a01b031663b3ecf2366040518163ffffffff1660e01b8152600401602060405180830381865afa1580156105bc573d5f803e3d5ffd5b505050506040513d601f19601f820116820180604052508101906105e09190613b99565b6105e8611cfd565b611d4d565b6105f681611e5f565b50565b5f7251554555455f4f50455241544f525f524f4c4560681b6106d25f8054906101000a90046001600160a01b03166001600160a01b031663d09edf316040518163ffffffff1660e01b8152600401602060405180830381865afa158015610662573d5f803e3d5ffd5b505050506040513d601f19601f820116820180604052508101906106869190613b7e565b60405163fdd5205f60e01b8152306004820152602481018490526001600160a01b03919091169063fdd5205f906044015b602060405180830381865afa1580156105bc573d5f803e3d5ffd5b6106dc8484611ec8565b61070f5760405162f570a360e41b81526001600160a01b0384166004820152602481018590526044015b60405180910390fd5b6001600160a01b0383165f90815260396020908152604080832087845290915290206002600782015460ff16600381111561074c5761074c6138e2565b1461076a5760405163309d2f7760e11b815260040160405180910390fd5b60028101546001820154600a8301546040516370a0823160e01b81526001600160a01b0391821660048201529116906370a0823190602401602060405180830381865afa1580156107bd573d5f803e3d5ffd5b505050506040513d601f19601f820116820180604052508101906107e19190613b99565b101561080957600281015460405163016ceee360e71b81526004810191909152602401610706565b61081585856001611f0e565b61081f8585611fc8565b6001810154600a820154603c54600284015461084b936001600160a01b0390811693811692169061200e565b95945050505050565b5f80546040805163d09edf3160e01b815290518693926001600160a01b03169163d09edf319160048083019260209291908290030181865afa15801561089c573d5f803e3d5ffd5b505050506040513d601f19601f820116820180604052508101906108c09190613b7e565b60405163fdd5205f60e01b8152306004820152602481018490526001600160a01b03919091169063fdd5205f90604401602060405180830381865afa15801561090b573d5f803e3d5ffd5b505050506040513d601f19601f8201168201806040525081019061092f9190613b99565b90506109d35f8054906101000a90046001600160a01b03166001600160a01b031663d09edf316040518163ffffffff1660e01b8152600401602060405180830381865afa158015610982573d5f803e3d5ffd5b505050506040513d601f19601f820116820180604052508101906109a69190613b7e565b6001600160a01b031663248a9ca3836040518263ffffffff1660e01b81526004016106b791815260200190565b5f8054906101000a90046001600160a01b03166001600160a01b031663d09edf316040518163ffffffff1660e01b8152600401602060405180830381865afa158015610a21573d5f803e3d5ffd5b505050506040513d601f19601f82011682018060405250810190610a459190613b7e565b6001600160a01b0316637d540a648686866040518463ffffffff1660e01b8152600401610a7493929190613bb0565b5f604051808303815f87803b158015610a8b575f80fd5b505af1158015610a9d573d5f803e3d5ffd5b505050505050505050565b7251554555455f4f50455241544f525f524f4c4560681b610b105f8054906101000a90046001600160a01b03166001600160a01b031663d09edf316040518163ffffffff1660e01b8152600401602060405180830381865afa158015610662573d5f803e3d5ffd5b6001600160a01b038085165f908152603b6020908152604080832084881684528252808320938616835292905220545f03610b71576040516307461ff560e51b81526001600160a01b03808616600483015283166024820152604401610706565b6001600160a01b038481165f908152603b60209081526040808320878516808552908352818420878616855290925282208054929055603d549192610bb992309116846121cf565b836001600160a01b0316836001600160a01b03167f3737f2a73c794dafe53d8aeea06810a9ebcf7167401b259406960e088e03f83083604051610bfe91815260200190565b60405180910390a3603d5481906001600160a01b039081169085167fd5377d7376738a24af0c54b9f2d6db87a486b02e9ca2ad120a2feb6a585f8072610c42611cfd565b6040516001600160a01b03909116815260200160405180910390a45050505050565b5f80546040805163d09edf3160e01b815290518693926001600160a01b03169163d09edf319160048083019260209291908290030181865afa158015610cac573d5f803e3d5ffd5b505050506040513d601f19601f82011682018060405250810190610cd09190613b7e565b60405163fdd5205f60e01b8152306004820152602481018490526001600160a01b03919091169063fdd5205f90604401602060405180830381865afa158015610d1b573d5f803e3d5ffd5b505050506040513d601f19601f82011682018060405250810190610d3f9190613b99565b9050610d925f8054906101000a90046001600160a01b03166001600160a01b031663d09edf316040518163ffffffff1660e01b8152600401602060405180830381865afa158015610982573d5f803e3d5ffd5b5f8054906101000a90046001600160a01b03166001600160a01b031663d09edf316040518163ffffffff1660e01b8152600401602060405180830381865afa158015610de0573d5f803e3d5ffd5b505050506040513d601f19601f82011682018060405250810190610e049190613b7e565b6001600160a01b031663648154538686866040518463ffffffff1660e01b8152600401610a7493929190613bb0565b606060016004018054610e4590613c07565b80601f0160208091040260200160405190810160405280929190818152602001828054610e7190613c07565b8015610ebc5780601f10610e9357610100808354040283529160200191610ebc565b820191905f5260205f20905b815481529060010190602001808311610e9f57829003601f168201915b5050505050905090565b606060016003018054610e4590613c07565b5f805460405163572b6c0560e01b81526001600160a01b0384811660048301529091169063572b6c0590602401602060405180830381865afa158015610f20573d5f803e3d5ffd5b505050506040513d601f19601f8201168201806040525081019061050f9190613c39565b5f80546040805163d09edf3160e01b815290518593926001600160a01b03169163d09edf319160048083019260209291908290030181865afa158015610f8c573d5f803e3d5ffd5b505050506040513d601f19601f82011682018060405250810190610fb09190613b7e565b60405163fdd5205f60e01b8152306004820152602481018490526001600160a01b03919091169063fdd5205f90604401602060405180830381865afa158015610ffb573d5f803e3d5ffd5b505050506040513d601f19601f8201168201806040525081019061101f9190613b99565b90506110725f8054906101000a90046001600160a01b03166001600160a01b031663d09edf316040518163ffffffff1660e01b8152600401602060405180830381865afa158015610982573d5f803e3d5ffd5b5f8054906101000a90046001600160a01b03166001600160a01b031663d09edf316040518163ffffffff1660e01b8152600401602060405180830381865afa1580156110c0573d5f803e3d5ffd5b505050506040513d601f19601f820116820180604052508101906110e49190613b7e565b60405163385e205560e21b8152600481018690526001600160a01b038581166024830152919091169063e1788154906044015b5f604051808303815f87803b15801561112e575f80fd5b505af1158015611140573d5f803e3d5ffd5b5050505050505050565b8061115481612244565b5050565b6001600160a01b0381165f9081526038602090815260408083205f19845260020190915281205481036111a95760405163e7f9afc560e01b81526001600160a01b0383166004820152602401610706565b6001600160a01b0382165f90815260386020526040902061050f905f196122af565b5f61131e60016040518060a00160405290815f8201548152602001600182015481526020016002820154815260200160038201805461120990613c07565b80601f016020809104026020016040519081016040528092919081815260200182805461123590613c07565b80156112805780601f1061125757610100808354040283529160200191611280565b820191905f5260205f20905b81548152906001019060200180831161126357829003601f168201915b5050505050815260200160048201805461129990613c07565b80601f01602080910402602001604051908101604052809291908181526020018280546112c590613c07565b80156113105780601f106112e757610100808354040283529160200191611310565b820191905f5260205f20905b8154815290600101906020018083116112f357829003601f168201915b5050505050815250506122fd565b905090565b5f546040805163d09edf3160e01b8152905161136b926001600160a01b03169163d09edf319160048083019260209291908290030181865afa15801561055d573d5f803e3d5ffd5b6105f68161233b565b5f805f9054906101000a90046001600160a01b03166001600160a01b0316637da0a8776040518163ffffffff1660e01b8152600401602060405180830381865afa1580156113c4573d5f803e3d5ffd5b505050506040513d601f19601f8201168201806040525081019061131e9190613b7e565b6001600160a01b038084165f908152603b6020908152604080832084871684528252808320938516835292905220545f03611449576040516307461ff560e51b81526001600160a01b03808516600483015282166024820152604401610706565b6114548383836123a4565b505050565b6001600160a01b0381165f9081526038602052604081205461050f565b8061148081612244565b5f546001600160a01b03166342f6e389611498611cfd565b6040516001600160e01b031960e084901b1681526001600160a01b039091166004820152602401602060405180830381865afa1580156114da573d5f803e3d5ffd5b505050506040513d601f19601f820116820180604052508101906114fe9190613c39565b61151b57604051633c9fdabb60e01b815260040160405180910390fd5b6111548261243b565b7ff0c57e16840df040f15088dc2f81fe391c3923bec73e23a9662efc9c229c6a00805468010000000000000000810460ff16159067ffffffffffffffff165f8115801561156e5750825b90505f8267ffffffffffffffff16600114801561158a5750303b155b905081158015611598575080155b156115b65760405163f92ee8a960e01b815260040160405180910390fd5b845467ffffffffffffffff1916600117855583156115ea57845468ff00000000000000001916680100000000000000001785555b6115f48888612527565b5f808780602001905181019061160a9190613c63565b915091506116178261233b565b61162081611e5f565b5050831561114057845468ff000000000000000019168555604051600181527fc7f505b2f371ae2175ee4913f4499e1f2633a7b5936321eed1cdaeb6115181d29060200160405180910390a15050505050505050565b5f80546040805163d09edf3160e01b815290518593926001600160a01b03169163d09edf319160048083019260209291908290030181865afa1580156116be573d5f803e3d5ffd5b505050506040513d601f19601f820116820180604052508101906116e29190613b7e565b60405163fdd5205f60e01b8152306004820152602481018490526001600160a01b03919091169063fdd5205f90604401602060405180830381865afa15801561172d573d5f803e3d5ffd5b505050506040513d601f19601f820116820180604052508101906117519190613b99565b90506117a45f8054906101000a90046001600160a01b03166001600160a01b031663d09edf316040518163ffffffff1660e01b8152600401602060405180830381865afa158015610982573d5f803e3d5ffd5b5f8054906101000a90046001600160a01b03166001600160a01b031663d09edf316040518163ffffffff1660e01b8152600401602060405180830381865afa1580156117f2573d5f803e3d5ffd5b505050506040513d601f19601f820116820180604052508101906118169190613b7e565b604051632e99be7f60e21b8152600481018690526001600160a01b038581166024830152919091169063ba66f9fc90604401611117565b6118bc6040805161018081019091525f60a0820181815260c0830182905260e08301829052610100830182905261012083018290526101408301919091526060610160830152819081526020015f81526020015f81526020015f81526020015f6001600160a01b031681525090565b6118c68383611ec8565b6118f45760405162f570a360e41b81526001600160a01b038316600482015260248101849052604401610706565b6001600160a01b038083165f9081526039602090815260408083208784528252918290208251610180810184528154851660a08201908152600183015490951660c0820152600282015460e08201526003820154610100820152600482015461012082015260058201546101408201526006820180548551818602810186019096528086529195929486948693610160870193918301828280156119b557602002820191905f5260205f20905b8154815260200190600101908083116119a1575b505050919092525050508152600782015460209091019060ff1660038111156119e0576119e06138e2565b60038111156119f1576119f16138e2565b81526008820154602082015260098201546040820152600a909101546001600160a01b03166060909101529392505050565b80611a2d81612244565b5f546001600160a01b03166342f6e389611a45611cfd565b6040516001600160e01b031960e084901b1681526001600160a01b039091166004820152602401602060405180830381865afa158015611a87573d5f803e3d5ffd5b505050506040513d601f19601f82011682018060405250810190611aab9190613c39565b611ac857604051633c9fdabb60e01b815260040160405180910390fd5b6060826001600160a01b031663c0231ff66040518163ffffffff1660e01b81526004015f604051808303815f875af1158015611b06573d5f803e3d5ffd5b505050506040513d5f823e601f3d908101601f19168201604052611b2d9190810190613d51565b505080519091505f5b81811015611b6a57611b61838281518110611b5357611b53613eb1565b602002602001015186612620565b50600101611b36565b5050505050565b6001600160a01b0381165f9081526038602052604081205460609103611ba957604080515f80825260208201909252905b5092915050565b6001600160a01b0382165f9081526038602052604081205467ffffffffffffffff811115611bd957611bd9613707565b604051908082528060200260200182016040528015611c02578160200160208202803683370190505b506001600160a01b0384165f908152603860205260408120919250908190611c2b905f196122af565b90505b5f198114611c8b57808383611c4281613ed9565b945081518110611c5457611c54613eb1565b6020908102919091018101919091526001600160a01b0386165f908152603890915260409020611c8490826122af565b9050611c2e565b50909392505050565b6001600160a01b0381165f9081526038602052604081206001015461050f565b5f61050f8261286b565b5f6001600160e01b03198216632ff60c8760e11b1480611cee57506001600160e01b03198216632af7349960e01b145b8061050f575061050f826128ff565b5f366014611d0a33610ed8565b8015611d165750808210155b15611d45575f36611d278385613ef1565b611d32928290613f04565b611d3b91613f2b565b60601c9250505090565b339250505090565b5f8054906101000a90046001600160a01b03166001600160a01b031663d09edf316040518163ffffffff1660e01b8152600401602060405180830381865afa158015611d9b573d5f803e3d5ffd5b505050506040513d601f19601f82011682018060405250810190611dbf9190613b7e565b60405163a883867d60e01b8152600481018490526001600160a01b038381166024830152919091169063a883867d90604401602060405180830381865afa158015611e0c573d5f803e3d5ffd5b505050506040513d601f19601f82011682018060405250810190611e309190613c39565b611154576040516342abbb7760e01b8152600481018390526001600160a01b0382166024820152604401610706565b6001600160a01b0381161580611e7d57506001600160a01b03811630145b15611ea65760405163158a815160e31b81526001600160a01b0382166004820152602401610706565b603d80546001600160a01b0319166001600160a01b0392909216919091179055565b6001600160a01b038082165f8181526039602090815260408083208784529091528120600a810154919390929116148015611f065750600981015415155b949350505050565b6001600160a01b0382165f90815260396020908152604080832086845290915290206007810154611f4490859060ff1684612933565b5060078101805483919060ff19166001836003811115611f6657611f666138e2565b0217905550611f73611cfd565b600a8201546040516001600160a01b03928316929091169086907f3a75e4822574db6690013a0aac0ea63058130a6f327921c57c63d54d26ffe1fe90611fba908790613f5e565b60405180910390a450505050565b6001600160a01b0381165f908152603860205260408120611fe990846129ff565b6001600160a01b0383165f908152603860205260409020909150611454908285612acf565b5f8061201c86868686612b7c565b9050801561207a57856001600160a01b0316846001600160a01b03167f3737f2a73c794dafe53d8aeea06810a9ebcf7167401b259406960e088e03f8308560405161206991815260200190565b60405180910390a360019150612169565b61208686863086612b7c565b9050806120c75760405162037f9b60ed1b81526001600160a01b03808716600483015280861660248301528716604482015260648101849052608401610706565b6001600160a01b038086165f908152603b602090815260408083208a85168452825280832093881683529290529081208054859290612107908490613f6c565b92505081905550836001600160a01b0316866001600160a01b0316866001600160a01b03167fbff6d112ab4c9d4a5f437492b210126678d87e510e41c7d8650c660302fb06b08660405161215d91815260200190565b60405180910390a45f91505b604051631667d8c360e31b81526001600160a01b0387811660048301526024820185905286169063b33ec618906044015f604051808303815f87803b1580156121b0575f80fd5b505af11580156121c2573d5f803e3d5ffd5b5050505050949350505050565b604080516001600160a01b0385811660248301528416604482015260648082018490528251808303909101815260849091019091526020810180517bffffffffffffffffffffffffffffffffffffffffffffffffffffffff166323b872dd60e01b17905261223e908590612c8f565b50505050565b6001600160a01b0381166122765760405163e81c62c560e01b81526001600160a01b0382166004820152602401610706565b61227e611cfd565b6001600160a01b0316816001600160a01b0316146105f65760405163c0cbb5a760e01b815260040160405180910390fd5b5f8181526002830160205260408120548390839083036122e257604051637bfea7d960e11b815260040160405180910390fd5b5f84815260028601602052604090205492505b505092915050565b5f815f01518260600151836080015160405160200161231e93929190613f7f565b604051602081830303815290604052805190602001209050919050565b6001600160a01b038116158061235957506001600160a01b03811630145b156123825760405163158a815160e31b81526001600160a01b0382166004820152602401610706565b603c80546001600160a01b0319166001600160a01b0392909216919091179055565b6001600160a01b038381165f908152603b6020908152604080832086851680855290835281842094861684529390915281208054919055906123e8903084846121cf565b826001600160a01b0316826001600160a01b03167f3737f2a73c794dafe53d8aeea06810a9ebcf7167401b259406960e088e03f8308360405161242d91815260200190565b60405180910390a350505050565b8061244581612244565b6001600160a01b0382165f908152603860205260408120612467905f196122af565b90505f19810361248a5760405163578cb8d960e01b815260040160405180910390fd5b5f5b5f1982141580156124a157506124a184612cf0565b156124db576124af81613ed9565b6001600160a01b0385165f9081526038602052604090209091506124d4905f196122af565b915061248c565b836001600160a01b03166124ed611cfd565b6001600160a01b03167f635cdafb2aeaf06f68681649c1e9be54e7bb8eb1e6db5047a084c10edb0ff6da8360405161242d91815260200190565b61252f612dcf565b6001600160a01b03821661255657604051637280679360e01b815260040160405180910390fd5b5f80546001600160a01b0319166001600160a01b03841617905561257981612e1f565b61259657604051637511254160e01b815260040160405180910390fd5b805160019081556020820151600255604082015160035560608201518291906004906125c29082613fed565b50608082015160048201906125d79082613fed565b50905050816001600160a01b03167fd5f3f84c2e1816ce290af84d002663800b02f2985d770cdd335de76fd723b7308260405161261491906140ad565b60405180910390a25050565b5f61262a8361286b565b6126525760405163e7f9afc560e01b81526001600160a01b0383166004820152602401610706565b6126648360a001518460c00151612e79565b6040805160a0810190915284815290915060208101600281526020808201849052426040808401919091526001600160a01b0380871660609485018190525f9081526039845282812087825284528290208551805182549084166001600160a01b031991821617835581860151600184018054919095169116179092559181015160028301559283015160038201556080830151600482015560a0830151600582015560c08301518051919392849261272392600685019201906134fc565b505050602082015160078201805460ff19166001836003811115612749576127496138e2565b0217905550604082810151600883015560608301516009830155608090920151600a90910180546001600160a01b0319166001600160a01b0392831617905583165f908152603860205220545f036127d2576001600160a01b0382165f9081526038602052604090206127d2905f195f8181526002830160205260409020819055600190910155565b6001600160a01b0382165f9081526038602052604090206127f39082612ebb565b6001600160a01b038281165f818152603a60209081526040918290208590558681015187518884015160a08a015185519687529386015292840191909152831692169083907fa837d772ba58992214e1080aef87032a8931dc3830ced0782c40f6fa21dc79a79060600160405180910390a492915050565b5f8061287f8360a001518460c00151612e79565b905061288d835f0151612f2d565b801561289c5750604083015115155b80156128ad57506128ad8133613071565b80156128c157506128c183602001516130a8565b80156128d05750606083015146145b80156128df5750608083015146145b80156128f857506128f88360a001518460c00151613137565b9392505050565b5f6001600160e01b0319821663e328951160e01b148061050f57506301ffc9a760e01b6001600160e01b031983161461050f565b5f80836003811115612947576129476138e2565b148061296457506001836003811115612962576129626138e2565b145b15612988578383836040516316e4f2ed60e31b815260040161070693929190614103565b5f82600381111561299b5761299b6138e2565b14806129b8575060018260038111156129b6576129b66138e2565b145b156129f55760028360038111156129d1576129d16138e2565b146129f5578383836040516316e4f2ed60e31b815260040161070693929190614103565b5060019392505050565b5f818152600283016020526040812054839083908303612a3257604051637bfea7d960e11b815260040160405180910390fd5b5f198403612a4657846001015492506122f5565b5f612a5086613185565b80519091505f5b81811015612ac45786838281518110612a7257612a72613eb1565b602002602001015103612abc57805f03612a8d575f19612ab2565b82612a99600183613ef1565b81518110612aa957612aa9613eb1565b60200260200101515b95505050506122f5565b600101612a57565b505050505092915050565b8281612adb8282613230565b612af857604051638f454d2d60e01b815260040160405180910390fd5b5f8481526002860160205260409020548590859085908114612b2d57604051633065847560e01b815260040160405180910390fd5b5f86815260028901602052604080822080548a8452918320919091558782528190558854908990612b5d83614124565b9190505550876001015486036111405750505050506001929092015550565b604080516001600160a01b0385811660248301528481166044830152606480830185905283518084039091018152608490920183526020820180517bffffffffffffffffffffffffffffffffffffffffffffffffffffffff166323b872dd60e01b17905291515f928392839291891691612bf69190614139565b5f604051808303815f865af19150503d805f8114612c2f576040519150601f19603f3d011682016040523d82523d5f602084013e612c34565b606091505b5091509150818015612c5e575080511580612c5e575080806020019051810190612c5e9190613c39565b8015612c7357506001600160a01b0387163b15155b15612c8357600192505050611f06565b505f9695505050505050565b5f612ca36001600160a01b03841683613253565b905080515f14158015612cc7575080806020019051810190612cc59190613c39565b155b1561145457604051635274afe760e01b81526001600160a01b0384166004820152602401610706565b5f81612cfb81612244565b6001600160a01b0383165f908152603860205260408120612d1d905f196122af565b90505f198103612d30575f925050612dc9565b6001600160a01b0384165f90815260396020908152604080832084845290915290206002600782015460ff166003811115612d6d57612d6d6138e2565b14612d8657612d7c8286611fc8565b5f93505050612dc9565b6001810154600a8201546002830154612dac926001600160a01b03908116921690613260565b612dba575f93505050612dc9565b612dc48282613354565b935050505b50919050565b7ff0c57e16840df040f15088dc2f81fe391c3923bec73e23a9662efc9c229c6a005468010000000000000000900460ff16612e1d57604051631afcd79f60e31b815260040160405180910390fd5b565b5f8160600151515f03612e3357505f919050565b8160800151515f03612e4657505f919050565b8151158015612e5757506020820151155b8015612e6557506040820151155b15612e7157505f919050565b506001919050565b5f60018316158015908190612e8e5750825115155b15611ba257825f60ff1681518110612ea857612ea8613eb1565b60200260200101515f1c91505092915050565b8181612ec78282613230565b80612ed0575080155b15612eee5760405163582fbbaf60e01b815260040160405180910390fd5b6001840180545f90815260028601602052604080822086905585825281205f199055908490558454908590612f2283613ed9565b919050555050505050565b5f6001600160a01b0382161580612f5c5750612f47611cfd565b6001600160a01b0316826001600160a01b0316145b80612f6f57506001600160a01b03821630145b80612f8657505f546001600160a01b038381169116145b8061306a57505f546001600160a01b03166001600160a01b03166304baed9e6040518163ffffffff1660e01b8152600401602060405180830381865afa158015612fd2573d5f803e3d5ffd5b505050506040513d601f19601f82011682018060405250810190612ff69190613b7e565b6001600160a01b031663fc0c546a6040518163ffffffff1660e01b8152600401602060405180830381865afa158015613031573d5f803e3d5ffd5b505050506040513d601f19601f820116820180604052508101906130559190613b7e565b6001600160a01b0316826001600160a01b0316145b1592915050565b5f80831180156128f857506001600160a01b0382165f908152603a602052604090205461309f906001613f6c565b83149392505050565b5f6001600160a01b0382166130be57505f919050565b6040516370a0823160e01b81523060048201526001600160a01b038316906370a0823190602401602060405180830381865afa92505050801561311e575060408051601f3d908101601f1916820190925261311b91810190613b99565b60015b61312957505f919050565b50600192915050565b919050565b5f8281805b60088160ff16101561316c57600160ff82161b831615613164578161316081613ed9565b9250505b60010161313c565b5080845114801561084b57505060011615159392505050565b60605f825f015467ffffffffffffffff8111156131a4576131a4613707565b6040519080825280602002602001820160405280156131cd578160200160208202803683370190505b505f195f908152600285016020526040812054919250905b5f198114611c8b578083838151811061320057613200613eb1565b6020908102919091018101919091525f91825260028601905260409020548161322881613ed9565b9250506131e5565b5f818152600283016020526040812054158015906128f85750505f191415919050565b60606128f883835f6133de565b6040516370a0823160e01b81526001600160a01b0383811660048301525f9185918491908316906370a0823190602401602060405180830381865afa1580156132ab573d5f803e3d5ffd5b505050506040513d601f19601f820116820180604052508101906132cf9190613b99565b1015801561084b5750604051636eb1769f60e11b81526001600160a01b03858116600483015230602483015284919083169063dd62ed3e90604401602060405180830381865afa158015613325573d5f803e3d5ffd5b505050506040513d601f19601f820116820180604052508101906133499190613b99565b101595945050505050565b6001810154600a820154825460028401545f93613383936001600160a01b03918216939082169291169061200e565b905080156133aa57600a8201546133a59084906001600160a01b03165f611f0e565b6133c5565b600a8201546133c59084906001600160a01b03166003611f0e565b600a82015461050f9084906001600160a01b0316611fc8565b6060814710156134035760405163cd78605960e01b8152306004820152602401610706565b5f80856001600160a01b0316848660405161341e9190614139565b5f6040518083038185875af1925050503d805f8114613458576040519150601f19603f3d011682016040523d82523d5f602084013e61345d565b606091505b509150915061346d868383613477565b9695505050505050565b60608261348c57613487826134d3565b6128f8565b81511580156134a357506001600160a01b0384163b155b156134cc57604051639996b31560e01b81526001600160a01b0385166004820152602401610706565b50806128f8565b8051156134e35780518082602001fd5b604051630a12f52160e11b815260040160405180910390fd5b828054828255905f5260205f20908101928215613535579160200282015b8281111561353557825182559160200191906001019061351a565b50613541929150613545565b5090565b5b80821115613541575f8155600101613546565b5f60208284031215613569575f80fd5b81356001600160e01b0319811681146128f8575f80fd5b6001600160a01b03811681146105f6575f80fd5b803561313281613580565b5f602082840312156135af575f80fd5b81356128f881613580565b5f80604083850312156135cb575f80fd5b8235915060208301356135dd81613580565b809150509250929050565b5f805f604084860312156135fa575f80fd5b83359250602084013567ffffffffffffffff80821115613618575f80fd5b818601915086601f83011261362b575f80fd5b813581811115613639575f80fd5b8760208260051b850101111561364d575f80fd5b6020830194508093505050509250925092565b5f805f60608486031215613672575f80fd5b833561367d81613580565b9250602084013561368d81613580565b9150604084013561369d81613580565b809150509250925092565b5f5b838110156136c25781810151838201526020016136aa565b50505f910152565b5f81518084526136e18160208601602086016136a8565b601f01601f19169290920160200192915050565b602081525f6128f860208301846136ca565b634e487b7160e01b5f52604160045260245ffd5b60405160a0810167ffffffffffffffff8111828210171561373e5761373e613707565b60405290565b60405160e0810167ffffffffffffffff8111828210171561373e5761373e613707565b604051601f8201601f1916810167ffffffffffffffff8111828210171561379057613790613707565b604052919050565b5f82601f8301126137a7575f80fd5b813567ffffffffffffffff8111156137c1576137c1613707565b6137d4601f8201601f1916602001613767565b8181528460208386010111156137e8575f80fd5b816020850160208301375f918101602001919091529392505050565b5f805f60608486031215613816575f80fd5b833561382181613580565b9250602084013567ffffffffffffffff8082111561383d575f80fd5b9085019060a08288031215613850575f80fd5b61385861371b565b823581526020830135602082015260408301356040820152606083013582811115613881575f80fd5b61388d89828601613798565b6060830152506080830135828111156138a4575f80fd5b6138b089828601613798565b608083015250935060408601359150808211156138cb575f80fd5b506138d886828701613798565b9150509250925092565b634e487b7160e01b5f52602160045260245ffd5b6004811061391257634e487b7160e01b5f52602160045260245ffd5b9052565b5f6020808352835160a0828501526101a084016001600160a01b038083511660c087015280848401511660e08701525060408201516101008601526060820151610120860152608082015161014086015260a082015161016086015260c0820151915060e06101808601528082518083526101c08701915084840193505f92505b808310156139b75783518252928401926001929092019190840190613997565b5092860151926139ca60408701856138f6565b60408701516060870152606087015160808701526080870151935061346d60a08701856001600160a01b03169052565b602080825282518282018190525f9190848201906040850190845b81811015613a3157835183529284019291840191600101613a15565b50909695505050505050565b5f67ffffffffffffffff821115613a5657613a56613707565b5060051b60200190565b5f82601f830112613a6f575f80fd5b81356020613a84613a7f83613a3d565b613767565b8083825260208201915060208460051b870101935086841115613aa5575f80fd5b602086015b84811015613ac15780358352918301918301613aaa565b509695505050505050565b5f60208284031215613adc575f80fd5b813567ffffffffffffffff80821115613af3575f80fd5b9083019060e08286031215613b06575f80fd5b613b0e613744565b613b1783613594565b8152613b2560208401613594565b602082015260408301356040820152606083013560608201526080830135608082015260a083013560a082015260c083013582811115613b63575f80fd5b613b6f87828601613a60565b60c08301525095945050505050565b5f60208284031215613b8e575f80fd5b81516128f881613580565b5f60208284031215613ba9575f80fd5b5051919050565b838152604060208083018290529082018390525f90849060608401835b86811015613bfb578335613be081613580565b6001600160a01b031682529282019290820190600101613bcd565b50979650505050505050565b600181811c90821680613c1b57607f821691505b602082108103612dc957634e487b7160e01b5f52602260045260245ffd5b5f60208284031215613c49575f80fd5b815180151581146128f8575f80fd5b805161313281613580565b5f8060408385031215613c74575f80fd5b8251613c7f81613580565b60208401519092506135dd81613580565b5f82601f830112613c9f575f80fd5b81516020613caf613a7f83613a3d565b8083825260208201915060208460051b870101935086841115613cd0575f80fd5b602086015b84811015613ac15780518352918301918301613cd5565b5f82601f830112613cfb575f80fd5b81516020613d0b613a7f83613a3d565b8083825260208201915060208460051b870101935086841115613d2c575f80fd5b602086015b84811015613ac1578051613d4481613580565b8352918301918301613d31565b5f805f60608486031215613d63575f80fd5b835167ffffffffffffffff80821115613d7a575f80fd5b818601915086601f830112613d8d575f80fd5b81516020613d9d613a7f83613a3d565b82815260059290921b8401810191818101908a841115613dbb575f80fd5b8286015b84811015613e6a57805186811115613dd5575f80fd5b870160e0818e03601f19011215613dea575f80fd5b613df2613744565b613dfd868301613c58565b8152613e0b60408301613c58565b86820152606082015160408201526080820151606082015260a0820151608082015260c082015160a082015260e082015188811115613e48575f80fd5b613e568f8883860101613c90565b60c083015250845250918301918301613dbf565b5091890151919750909350505080821115613e83575f80fd5b613e8f87838801613cec565b93506040860151915080821115613ea4575f80fd5b506138d886828701613c90565b634e487b7160e01b5f52603260045260245ffd5b634e487b7160e01b5f52601160045260245ffd5b5f60018201613eea57613eea613ec5565b5060010190565b8181038181111561050f5761050f613ec5565b5f8085851115613f12575f80fd5b83861115613f1e575f80fd5b5050820193919092039150565b6bffffffffffffffffffffffff1981358181169160148510156122f55760149490940360031b84901b1690921692915050565b6020810161050f82846138f6565b8082018082111561050f5761050f613ec5565b838152606060208201525f613f9760608301856136ca565b828103604084015261346d81856136ca565b601f82111561145457805f5260205f20601f840160051c81016020851015613fce5750805b601f840160051c820191505b81811015611b6a575f8155600101613fda565b815167ffffffffffffffff81111561400757614007613707565b61401b816140158454613c07565b84613fa9565b602080601f83116001811461404e575f84156140375750858301515b5f19600386901b1c1916600185901b1785556140a5565b5f85815260208120601f198616915b8281101561407c5788860151825594840194600190910190840161405d565b508582101561409957878501515f19600388901b60f8161c191681555b505060018460011b0185555b505050505050565b602081528151602082015260208201516040820152604082015160608201525f606083015160a060808401526140e660c08401826136ca565b90506080840151601f198483030160a085015261084b82826136ca565b8381526060810161411760208301856138f6565b611f0660408301846138f6565b5f8161413257614132613ec5565b505f190190565b5f825161414a8184602087016136a8565b919091019291505056fea26469706673582212206573b584360c61b1b08f288c2152b9af0d66faccd2e0d2b91d65ea0cf178a18a64736f6c63430008170033",
    "linkReferences": {}
  },
  "methodIdentifiers": {
    "cancelPaymentOrderThroughQueueId(uint256,address)": "195254ad",
    "cancelRunningPayments(address)": "73d7764e",
    "claimPreviouslyUnclaimable(address,address,address)": "81ac0367",
    "claimPreviouslyUnclaimableToTreasury(address,address,address)": "271e4283",
    "executePaymentQueue(address)": "9d6de168",
    "getCanceledOrdersTreasury()": "4d45e9aa",
    "getFailedOrdersTreasury()": "df40044a",
    "getOrder(uint256,address)": "cbbfe168",
    "getOrderQueue(address)": "ee8b4f94",
    "getQueueHead(address)": "75a2dc05",
    "getQueueOperatorRole()": "aca51e3e",
    "getQueueOperatorRoleAdmin()": "0e4eaa4f",
    "getQueueSizeForClient(address)": "9b5674ab",
    "getQueueTail(address)": "f14ba610",
    "grantModuleRole(bytes32,address)": "6c67e807",
    "grantModuleRoleBatched(bytes32,address[])": "272bbd44",
    "identifier()": "7998a1c4",
    "init(address,(uint256,uint256,uint256,string,string),bytes)": "b66a870c",
    "isTrustedForwarder(address)": "572b6c05",
    "orchestrator()": "b74795d9",
    "processPayments(address)": "e151fc61",
    "revokeModuleRole(bytes32,address)": "bcb61920",
    "revokeModuleRoleBatched(bytes32,address[])": "24e30270",
    "setCanceledOrdersTreasury(address)": "7ce59471",
    "setFailedOrdersTreasury(address)": "17206282",
    "supportsInterface(bytes4)": "01ffc9a7",
    "title()": "4a79d50c",
    "trustedForwarder()": "7da0a877",
    "unclaimable(address,address,address)": "ceb43f54",
    "url()": "5600f04f",
    "validPaymentOrder((address,address,uint256,uint256,uint256,bytes32,bytes32[]))": "f7698285",
    "version()": "54fd4d50"
  },
  "id": 167
}