{
  "abi": [
    {
      "type": "function",
      "name": "cancelPaymentOrderThroughQueueId",
      "inputs": [
        {
          "name": "orderId_",
          "type": "uint256",
          "internalType": "uint256"
        },
        {
          "name": "client_",
          "type": "address",
          "internalType": "contract IERC20PaymentClientBase_v1"
        }
      ],
      "outputs": [
        {
          "name": "success_",
          "type": "bool",
          "internalType": "bool"
        }
      ],
      "stateMutability": "nonpayable"
    },
    {
      "type": "function",
      "name": "cancelRunningPayments",
      "inputs": [
        {
          "name": "client_",
          "type": "address",
          "internalType": "contract IERC20PaymentClientBase_v1"
        }
      ],
      "outputs": [],
      "stateMutability": "view"
    },
    {
      "type": "function",
      "name": "claimPreviouslyUnclaimable",
      "inputs": [
        {
          "name": "client_",
          "type": "address",
          "internalType": "address"
        },
        {
          "name": "token_",
          "type": "address",
          "internalType": "address"
        },
        {
          "name": "receiver_",
          "type": "address",
          "internalType": "address"
        }
      ],
      "outputs": [],
      "stateMutability": "nonpayable"
    },
    {
      "type": "function",
      "name": "claimPreviouslyUnclaimableToTreasury",
      "inputs": [
        {
          "name": "client_",
          "type": "address",
          "internalType": "address"
        },
        {
          "name": "token_",
          "type": "address",
          "internalType": "address"
        },
        {
          "name": "receiver_",
          "type": "address",
          "internalType": "address"
        }
      ],
      "outputs": [],
      "stateMutability": "nonpayable"
    },
    {
      "type": "function",
      "name": "getCanceledOrdersTreasury",
      "inputs": [],
      "outputs": [
        {
          "name": "treasury_",
          "type": "address",
          "internalType": "address"
        }
      ],
      "stateMutability": "view"
    },
    {
      "type": "function",
      "name": "getFailedOrdersTreasury",
      "inputs": [],
      "outputs": [
        {
          "name": "treasury_",
          "type": "address",
          "internalType": "address"
        }
      ],
      "stateMutability": "view"
    },
    {
      "type": "function",
      "name": "getOrder",
      "inputs": [
        {
          "name": "orderId_",
          "type": "uint256",
          "internalType": "uint256"
        },
        {
          "name": "client_",
          "type": "address",
          "internalType": "contract IERC20PaymentClientBase_v1"
        }
      ],
      "outputs": [
        {
          "name": "order_",
          "type": "tuple",
          "internalType": "struct IPP_Queue_v1.QueuedOrder",
          "components": [
            {
              "name": "order_",
              "type": "tuple",
              "internalType": "struct IERC20PaymentClientBase_v1.PaymentOrder",
              "components": [
                {
                  "name": "recipient",
                  "type": "address",
                  "internalType": "address"
                },
                {
                  "name": "paymentToken",
                  "type": "address",
                  "internalType": "address"
                },
                {
                  "name": "amount",
                  "type": "uint256",
                  "internalType": "uint256"
                },
                {
                  "name": "originChainId",
                  "type": "uint256",
                  "internalType": "uint256"
                },
                {
                  "name": "targetChainId",
                  "type": "uint256",
                  "internalType": "uint256"
                },
                {
                  "name": "flags",
                  "type": "bytes32",
                  "internalType": "bytes32"
                },
                {
                  "name": "data",
                  "type": "bytes32[]",
                  "internalType": "bytes32[]"
                }
              ]
            },
            {
              "name": "state_",
              "type": "uint8",
              "internalType": "enum IPP_Queue_v1.RedemptionState"
            },
            {
              "name": "orderId_",
              "type": "uint256",
              "internalType": "uint256"
            },
            {
              "name": "timestamp_",
              "type": "uint256",
              "internalType": "uint256"
            },
            {
              "name": "client_",
              "type": "address",
              "internalType": "address"
            }
          ]
        }
      ],
      "stateMutability": "view"
    },
    {
      "type": "function",
      "name": "getOrderQueue",
      "inputs": [
        {
          "name": "client_",
          "type": "address",
          "internalType": "address"
        }
      ],
      "outputs": [
        {
          "name": "queue_",
          "type": "uint256[]",
          "internalType": "uint256[]"
        }
      ],
      "stateMutability": "view"
    },
    {
      "type": "function",
      "name": "getQueueHead",
      "inputs": [
        {
          "name": "client_",
          "type": "address",
          "internalType": "address"
        }
      ],
      "outputs": [
        {
          "name": "head_",
          "type": "uint256",
          "internalType": "uint256"
        }
      ],
      "stateMutability": "view"
    },
    {
      "type": "function",
      "name": "getQueueOperatorRole",
      "inputs": [],
      "outputs": [
        {
          "name": "role_",
          "type": "bytes32",
          "internalType": "bytes32"
        }
      ],
      "stateMutability": "pure"
    },
    {
      "type": "function",
      "name": "getQueueOperatorRoleAdmin",
      "inputs": [],
      "outputs": [
        {
          "name": "role_",
          "type": "bytes32",
          "internalType": "bytes32"
        }
      ],
      "stateMutability": "pure"
    },
    {
      "type": "function",
      "name": "getQueueSizeForClient",
      "inputs": [
        {
          "name": "client_",
          "type": "address",
          "internalType": "address"
        }
      ],
      "outputs": [
        {
          "name": "size_",
          "type": "uint256",
          "internalType": "uint256"
        }
      ],
      "stateMutability": "view"
    },
    {
      "type": "function",
      "name": "getQueueTail",
      "inputs": [
        {
          "name": "client_",
          "type": "address",
          "internalType": "address"
        }
      ],
      "outputs": [
        {
          "name": "tail_",
          "type": "uint256",
          "internalType": "uint256"
        }
      ],
      "stateMutability": "view"
    },
    {
      "type": "function",
      "name": "grantModuleRole",
      "inputs": [
        {
          "name": "role",
          "type": "bytes32",
          "internalType": "bytes32"
        },
        {
          "name": "target",
          "type": "address",
          "internalType": "address"
        }
      ],
      "outputs": [],
      "stateMutability": "nonpayable"
    },
    {
      "type": "function",
      "name": "grantModuleRoleBatched",
      "inputs": [
        {
          "name": "role",
          "type": "bytes32",
          "internalType": "bytes32"
        },
        {
          "name": "targets",
          "type": "address[]",
          "internalType": "address[]"
        }
      ],
      "outputs": [],
      "stateMutability": "nonpayable"
    },
    {
      "type": "function",
      "name": "identifier",
      "inputs": [],
      "outputs": [
        {
          "name": "",
          "type": "bytes32",
          "internalType": "bytes32"
        }
      ],
      "stateMutability": "view"
    },
    {
      "type": "function",
      "name": "init",
      "inputs": [
        {
          "name": "orchestrator_",
          "type": "address",
          "internalType": "contract IOrchestrator_v1"
        },
        {
          "name": "metadata_",
          "type": "tuple",
          "internalType": "struct IModule_v1.Metadata",
          "components": [
            {
              "name": "majorVersion",
              "type": "uint256",
              "internalType": "uint256"
            },
            {
              "name": "minorVersion",
              "type": "uint256",
              "internalType": "uint256"
            },
            {
              "name": "patchVersion",
              "type": "uint256",
              "internalType": "uint256"
            },
            {
              "name": "url",
              "type": "string",
              "internalType": "string"
            },
            {
              "name": "title",
              "type": "string",
              "internalType": "string"
            }
          ]
        },
        {
          "name": "configData_",
          "type": "bytes",
          "internalType": "bytes"
        }
      ],
      "outputs": [],
      "stateMutability": "nonpayable"
    },
    {
      "type": "function",
      "name": "isTrustedForwarder",
      "inputs": [
        {
          "name": "forwarder",
          "type": "address",
          "internalType": "address"
        }
      ],
      "outputs": [
        {
          "name": "",
          "type": "bool",
          "internalType": "bool"
        }
      ],
      "stateMutability": "view"
    },
    {
      "type": "function",
      "name": "orchestrator",
      "inputs": [],
      "outputs": [
        {
          "name": "",
          "type": "address",
          "internalType": "contract IOrchestrator_v1"
        }
      ],
      "stateMutability": "view"
    },
    {
      "type": "function",
      "name": "processPayments",
      "inputs": [
        {
          "name": "client_",
          "type": "address",
          "internalType": "contract IERC20PaymentClientBase_v1"
        }
      ],
      "outputs": [],
      "stateMutability": "nonpayable"
    },
    {
      "type": "function",
      "name": "revokeModuleRole",
      "inputs": [
        {
          "name": "role",
          "type": "bytes32",
          "internalType": "bytes32"
        },
        {
          "name": "target",
          "type": "address",
          "internalType": "address"
        }
      ],
      "outputs": [],
      "stateMutability": "nonpayable"
    },
    {
      "type": "function",
      "name": "revokeModuleRoleBatched",
      "inputs": [
        {
          "name": "role",
          "type": "bytes32",
          "internalType": "bytes32"
        },
        {
          "name": "targets",
          "type": "address[]",
          "internalType": "address[]"
        }
      ],
      "outputs": [],
      "stateMutability": "nonpayable"
    },
    {
      "type": "function",
      "name": "setCanceledOrdersTreasury",
      "inputs": [
        {
          "name": "treasury_",
          "type": "address",
          "internalType": "address"
        }
      ],
      "outputs": [],
      "stateMutability": "nonpayable"
    },
    {
      "type": "function",
      "name": "setFailedOrdersTreasury",
      "inputs": [
        {
          "name": "treasury_",
          "type": "address",
          "internalType": "address"
        }
      ],
      "outputs": [],
      "stateMutability": "nonpayable"
    },
    {
      "type": "function",
      "name": "supportsInterface",
      "inputs": [
        {
          "name": "interfaceId_",
          "type": "bytes4",
          "internalType": "bytes4"
        }
      ],
      "outputs": [
        {
          "name": "supported_",
          "type": "bool",
          "internalType": "bool"
        }
      ],
      "stateMutability": "view"
    },
    {
      "type": "function",
      "name": "title",
      "inputs": [],
      "outputs": [
        {
          "name": "",
          "type": "string",
          "internalType": "string"
        }
      ],
      "stateMutability": "view"
    },
    {
      "type": "function",
      "name": "trustedForwarder",
      "inputs": [],
      "outputs": [
        {
          "name": "",
          "type": "address",
          "internalType": "address"
        }
      ],
      "stateMutability": "view"
    },
    {
      "type": "function",
      "name": "unclaimable",
      "inputs": [
        {
          "name": "client_",
          "type": "address",
          "internalType": "address"
        },
        {
          "name": "token_",
          "type": "address",
          "internalType": "address"
        },
        {
          "name": "paymentReceiver_",
          "type": "address",
          "internalType": "address"
        }
      ],
      "outputs": [
        {
          "name": "amount_",
          "type": "uint256",
          "internalType": "uint256"
        }
      ],
      "stateMutability": "view"
    },
    {
      "type": "function",
      "name": "url",
      "inputs": [],
      "outputs": [
        {
          "name": "",
          "type": "string",
          "internalType": "string"
        }
      ],
      "stateMutability": "view"
    },
    {
      "type": "function",
      "name": "validPaymentOrder",
      "inputs": [
        {
          "name": "order_",
          "type": "tuple",
          "internalType": "struct IERC20PaymentClientBase_v1.PaymentOrder",
          "components": [
            {
              "name": "recipient",
              "type": "address",
              "internalType": "address"
            },
            {
              "name": "paymentToken",
              "type": "address",
              "internalType": "address"
            },
            {
              "name": "amount",
              "type": "uint256",
              "internalType": "uint256"
            },
            {
              "name": "originChainId",
              "type": "uint256",
              "internalType": "uint256"
            },
            {
              "name": "targetChainId",
              "type": "uint256",
              "internalType": "uint256"
            },
            {
              "name": "flags",
              "type": "bytes32",
              "internalType": "bytes32"
            },
            {
              "name": "data",
              "type": "bytes32[]",
              "internalType": "bytes32[]"
            }
          ]
        }
      ],
      "outputs": [
        {
          "name": "isValid_",
          "type": "bool",
          "internalType": "bool"
        }
      ],
      "stateMutability": "view"
    },
    {
      "type": "function",
      "name": "version",
      "inputs": [],
      "outputs": [
        {
          "name": "",
          "type": "uint256",
          "internalType": "uint256"
        },
        {
          "name": "",
          "type": "uint256",
          "internalType": "uint256"
        },
        {
          "name": "",
          "type": "uint256",
          "internalType": "uint256"
        }
      ],
      "stateMutability": "view"
    },
    {
      "type": "event",
      "name": "Initialized",
      "inputs": [
        {
          "name": "version",
          "type": "uint64",
          "indexed": false,
          "internalType": "uint64"
        }
      ],
      "anonymous": false
    },
    {
      "type": "event",
      "name": "ModuleInitialized",
      "inputs": [
        {
          "name": "parentOrchestrator",
          "type": "address",
          "indexed": true,
          "internalType": "address"
        },
        {
          "name": "metadata",
          "type": "tuple",
          "indexed": false,
          "internalType": "struct IModule_v1.Metadata",
          "components": [
            {
              "name": "majorVersion",
              "type": "uint256",
              "internalType": "uint256"
            },
            {
              "name": "minorVersion",
              "type": "uint256",
              "internalType": "uint256"
            },
            {
              "name": "patchVersion",
              "type": "uint256",
              "internalType": "uint256"
            },
            {
              "name": "url",
              "type": "string",
              "internalType": "string"
            },
            {
              "name": "title",
              "type": "string",
              "internalType": "string"
            }
          ]
        }
      ],
      "anonymous": false
    },
    {
      "type": "event",
      "name": "PaymentOrderProcessed",
      "inputs": [
        {
          "name": "paymentClient",
          "type": "address",
          "indexed": true,
          "internalType": "address"
        },
        {
          "name": "recipient",
          "type": "address",
          "indexed": true,
          "internalType": "address"
        },
        {
          "name": "paymentToken",
          "type": "address",
          "indexed": true,
          "internalType": "address"
        },
        {
          "name": "amount",
          "type": "uint256",
          "indexed": false,
          "internalType": "uint256"
        },
        {
          "name": "originChainId",
          "type": "uint256",
          "indexed": false,
          "internalType": "uint256"
        },
        {
          "name": "targetChainId",
          "type": "uint256",
          "indexed": false,
          "internalType": "uint256"
        },
        {
          "name": "flags",
          "type": "bytes32",
          "indexed": false,
          "internalType": "bytes32"
        },
        {
          "name": "data",
          "type": "bytes32[]",
          "indexed": false,
          "internalType": "bytes32[]"
        }
      ],
      "anonymous": false
    },
    {
      "type": "event",
      "name": "PaymentOrderQueued",
      "inputs": [
        {
          "name": "orderId_",
          "type": "uint256",
          "indexed": true,
          "internalType": "uint256"
        },
        {
          "name": "recipient_",
          "type": "address",
          "indexed": true,
          "internalType": "address"
        },
        {
          "name": "token_",
          "type": "address",
          "indexed": true,
          "internalType": "address"
        },
        {
          "name": "client_",
          "type": "address",
          "indexed": false,
          "internalType": "address"
        },
        {
          "name": "amount_",
          "type": "uint256",
          "indexed": false,
          "internalType": "uint256"
        },
        {
          "name": "flags_",
          "type": "uint256",
          "indexed": false,
          "internalType": "uint256"
        }
      ],
      "anonymous": false
    },
    {
      "type": "event",
      "name": "PaymentOrderStateChanged",
      "inputs": [
        {
          "name": "orderId_",
          "type": "uint256",
          "indexed": true,
          "internalType": "uint256"
        },
        {
          "name": "state_",
          "type": "uint8",
          "indexed": false,
          "internalType": "enum IPP_Queue_v1.RedemptionState"
        },
        {
          "name": "client_",
          "type": "address",
          "indexed": true,
          "internalType": "address"
        },
        {
          "name": "executedBy_",
          "type": "address",
          "indexed": true,
          "internalType": "address"
        }
      ],
      "anonymous": false
    },
    {
      "type": "event",
      "name": "PaymentOrderTimingSkip",
      "inputs": [
        {
          "name": "orderId_",
          "type": "uint256",
          "indexed": true,
          "internalType": "uint256"
        },
        {
          "name": "client_",
          "type": "address",
          "indexed": true,
          "internalType": "address"
        },
        {
          "name": "reason_",
          "type": "uint8",
          "indexed": false,
          "internalType": "uint8"
        },
        {
          "name": "currentTime_",
          "type": "uint256",
          "indexed": false,
          "internalType": "uint256"
        }
      ],
      "anonymous": false
    },
    {
      "type": "event",
      "name": "PaymentQueueExecuted",
      "inputs": [
        {
          "name": "executor_",
          "type": "address",
          "indexed": true,
          "internalType": "address"
        },
        {
          "name": "client_",
          "type": "address",
          "indexed": true,
          "internalType": "address"
        },
        {
          "name": "count_",
          "type": "uint256",
          "indexed": false,
          "internalType": "uint256"
        }
      ],
      "anonymous": false
    },
    {
      "type": "event",
      "name": "ProtocolFeeTransferred",
      "inputs": [
        {
          "name": "token",
          "type": "address",
          "indexed": true,
          "internalType": "address"
        },
        {
          "name": "treasury",
          "type": "address",
          "indexed": true,
          "internalType": "address"
        },
        {
          "name": "feeAmount",
          "type": "uint256",
          "indexed": false,
          "internalType": "uint256"
        }
      ],
      "anonymous": false
    },
    {
      "type": "event",
      "name": "TokensReleased",
      "inputs": [
        {
          "name": "recipient",
          "type": "address",
          "indexed": true,
          "internalType": "address"
        },
        {
          "name": "token",
          "type": "address",
          "indexed": true,
          "internalType": "address"
        },
        {
          "name": "amount",
          "type": "uint256",
          "indexed": false,
          "internalType": "uint256"
        }
      ],
      "anonymous": false
    },
    {
      "type": "event",
      "name": "UnclaimableAmountAdded",
      "inputs": [
        {
          "name": "paymentClient",
          "type": "address",
          "indexed": true,
          "internalType": "address"
        },
        {
          "name": "token",
          "type": "address",
          "indexed": true,
          "internalType": "address"
        },
        {
          "name": "recipient",
          "type": "address",
          "indexed": true,
          "internalType": "address"
        },
        {
          "name": "amount",
          "type": "uint256",
          "indexed": false,
          "internalType": "uint256"
        }
      ],
      "anonymous": false
    },
    {
      "type": "event",
      "name": "UnclaimableAmountClaimedToTreasury",
      "inputs": [
        {
          "name": "originalReceiver_",
          "type": "address",
          "indexed": true,
          "internalType": "address"
        },
        {
          "name": "treasury_",
          "type": "address",
          "indexed": true,
          "internalType": "address"
        },
        {
          "name": "amount_",
          "type": "uint256",
          "indexed": true,
          "internalType": "uint256"
        },
        {
          "name": "queueOperator_",
          "type": "address",
          "indexed": false,
          "internalType": "address"
        }
      ],
      "anonymous": false
    },
    {
      "type": "error",
      "name": "AddressEmptyCode",
      "inputs": [
        {
          "name": "target",
          "type": "address",
          "internalType": "address"
        }
      ]
    },
    {
      "type": "error",
      "name": "AddressInsufficientBalance",
      "inputs": [
        {
          "name": "account",
          "type": "address",
          "internalType": "address"
        }
      ]
    },
    {
      "type": "error",
      "name": "FailedInnerCall",
      "inputs": []
    },
    {
      "type": "error",
      "name": "InvalidInitialization",
      "inputs": []
    },
    {
      "type": "error",
      "name": "Library__LinkedIdList__IdNotConsecutive",
      "inputs": []
    },
    {
      "type": "error",
      "name": "Library__LinkedIdList__InvalidId",
      "inputs": []
    },
    {
      "type": "error",
      "name": "Library__LinkedIdList__InvalidNewId",
      "inputs": []
    },
    {
      "type": "error",
      "name": "Library__LinkedIdList__InvalidPosition",
      "inputs": []
    },
    {
      "type": "error",
      "name": "Module_OrchestratorCallbackFailed",
      "inputs": [
        {
          "name": "funcSig",
          "type": "string",
          "internalType": "string"
        }
      ]
    },
    {
      "type": "error",
      "name": "Module_PP_Queue_PaymentFailed",
      "inputs": [
        {
          "name": "client_",
          "type": "address",
          "internalType": "address"
        },
        {
          "name": "recipient_",
          "type": "address",
          "internalType": "address"
        },
        {
          "name": "token_",
          "type": "address",
          "internalType": "address"
        },
        {
          "name": "amount_",
          "type": "uint256",
          "internalType": "uint256"
        }
      ]
    },
    {
      "type": "error",
      "name": "Module__CallerNotAuthorized",
      "inputs": [
        {
          "name": "role",
          "type": "bytes32",
          "internalType": "bytes32"
        },
        {
          "name": "caller",
          "type": "address",
          "internalType": "address"
        }
      ]
    },
    {
      "type": "error",
      "name": "Module__InvalidAddress",
      "inputs": []
    },
    {
      "type": "error",
      "name": "Module__InvalidMetadata",
      "inputs": []
    },
    {
      "type": "error",
      "name": "Module__InvalidOrchestratorAddress",
      "inputs": []
    },
    {
      "type": "error",
      "name": "Module__OnlyCallableByOrchestrator",
      "inputs": []
    },
    {
      "type": "error",
      "name": "Module__OnlyCallableByPaymentClient",
      "inputs": []
    },
    {
      "type": "error",
      "name": "Module__PP_Queue_EmptyQueue",
      "inputs": []
    },
    {
      "type": "error",
      "name": "Module__PP_Queue_InvalidAmount",
      "inputs": [
        {
          "name": "amount_",
          "type": "uint256",
          "internalType": "uint256"
        }
      ]
    },
    {
      "type": "error",
      "name": "Module__PP_Queue_InvalidChainId",
      "inputs": [
        {
          "name": "originChainId_",
          "type": "uint256",
          "internalType": "uint256"
        },
        {
          "name": "targetChainId_",
          "type": "uint256",
          "internalType": "uint256"
        },
        {
          "name": "currentChainId_",
          "type": "uint256",
          "internalType": "uint256"
        }
      ]
    },
    {
      "type": "error",
      "name": "Module__PP_Queue_InvalidClientAddress",
      "inputs": [
        {
          "name": "client_",
          "type": "address",
          "internalType": "address"
        }
      ]
    },
    {
      "type": "error",
      "name": "Module__PP_Queue_InvalidConfig",
      "inputs": []
    },
    {
      "type": "error",
      "name": "Module__PP_Queue_InvalidFlagsOrData",
      "inputs": [
        {
          "name": "flags_",
          "type": "bytes32",
          "internalType": "bytes32"
        },
        {
          "name": "dataLength_",
          "type": "uint256",
          "internalType": "uint256"
        }
      ]
    },
    {
      "type": "error",
      "name": "Module__PP_Queue_InvalidOrderId",
      "inputs": [
        {
          "name": "client_",
          "type": "address",
          "internalType": "address"
        },
        {
          "name": "orderId_",
          "type": "uint256",
          "internalType": "uint256"
        }
      ]
    },
    {
      "type": "error",
      "name": "Module__PP_Queue_InvalidRecipient",
      "inputs": [
        {
          "name": "recipient_",
          "type": "address",
          "internalType": "address"
        }
      ]
    },
    {
      "type": "error",
      "name": "Module__PP_Queue_InvalidState",
      "inputs": []
    },
    {
      "type": "error",
      "name": "Module__PP_Queue_InvalidStateTransition",
      "inputs": [
        {
          "name": "orderId_",
          "type": "uint256",
          "internalType": "uint256"
        },
        {
          "name": "currentState_",
          "type": "uint8",
          "internalType": "enum IPP_Queue_v1.RedemptionState"
        },
        {
          "name": "newState_",
          "type": "uint8",
          "internalType": "enum IPP_Queue_v1.RedemptionState"
        }
      ]
    },
    {
      "type": "error",
      "name": "Module__PP_Queue_InvalidTreasuryAddress",
      "inputs": [
        {
          "name": "treasury_",
          "type": "address",
          "internalType": "address"
        }
      ]
    },
    {
      "type": "error",
      "name": "Module__PP_Queue_OnlyCallableByClient",
      "inputs": []
    },
    {
      "type": "error",
      "name": "Module__PP_Queue_QueueOperationFailed",
      "inputs": [
        {
          "name": "client_",
          "type": "address",
          "internalType": "address"
        }
      ]
    },
    {
      "type": "error",
      "name": "Module__PP_Queue_Unauthorized",
      "inputs": []
    },
    {
      "type": "error",
      "name": "Module__PP_Queue_ZeroAmount",
      "inputs": []
    },
    {
      "type": "error",
      "name": "Module__PaymentProcessor__CannotCallOnOtherClientsOrders",
      "inputs": []
    },
    {
      "type": "error",
      "name": "Module__PaymentProcessor__NothingToClaim",
      "inputs": [
        {
          "name": "paymentClient",
          "type": "address",
          "internalType": "address"
        },
        {
          "name": "paymentReceiver",
          "type": "address",
          "internalType": "address"
        }
      ]
    },
    {
      "type": "error",
      "name": "Module__PaymentProcessor__OnlyCallableByModule",
      "inputs": []
    },
    {
      "type": "error",
      "name": "NotInitializing",
      "inputs": []
    },
    {
      "type": "error",
      "name": "SafeERC20FailedOperation",
      "inputs": [
        {
          "name": "token",
          "type": "address",
          "internalType": "address"
        }
      ]
    }
  ],
  "bytecode": {
    "object": "0x60a060405234801562000010575f80fd5b505f6080526200001f62000025565b620000d9565b7ff0c57e16840df040f15088dc2f81fe391c3923bec73e23a9662efc9c229c6a00805468010000000000000000900460ff1615620000765760405163f92ee8a960e01b815260040160405180910390fd5b80546001600160401b0390811614620000d65780546001600160401b0319166001600160401b0390811782556040519081527fc7f505b2f371ae2175ee4913f4499e1f2633a7b5936321eed1cdaeb6115181d29060200160405180910390a15b50565b608051614092620000ef5f395f50506140925ff3fe608060405234801561000f575f80fd5b50600436106101dc575f3560e01c80637998a1c411610109578063bcb619201161009e578063e151fc611161006e578063e151fc6114610459578063ee8b4f941461046c578063f14ba6101461048c578063f76982851461049f575f80fd5b8063bcb61920146103d3578063cbbfe168146103e6578063ceb43f5414610406578063df40044a14610448575f80fd5b80639b5674ab116100d95780639b5674ab14610381578063aca51e3e14610394578063b66a870c146103b0578063b74795d9146103c3575f80fd5b80637998a1c41461034b5780637ce59471146103535780637da0a8771461036657806381ac03671461036e575f80fd5b80634a79d50c1161017f578063572b6c051161014f578063572b6c05146102ff5780636c67e8071461031257806373d7764e1461032557806375a2dc0514610338575f80fd5b80634a79d50c146102995780634d45e9aa146102ae57806354fd4d50146102d35780635600f04f146102f7575f80fd5b8063195254ad116101ba578063195254ad1461024d57806324e3027014610260578063271e428314610273578063272bbd4414610286575f80fd5b806301ffc9a7146101e05780630e4eaa4f146102085780631720628214610238575b5f80fd5b6101f36101ee36600461345a565b6104b2565b60405190151581526020015b60405180910390f35b7f51554555455f4f50455241544f525f524f4c455f41444d494e000000000000005b6040519081526020016101ff565b61024b6102463660046134a0565b6104f7565b005b6101f361025b3660046134bb565b6105db565b61024b61026e3660046134e9565b61083c565b61024b610281366004613561565b610a90565b61024b6102943660046134e9565b610c4c565b6102a1610e1b565b6040516101ff91906135f6565b603c546001600160a01b03165b6040516001600160a01b0390911681526020016101ff565b600154600254600354604080519384526020840192909252908201526060016101ff565b6102a1610eae565b6101f361030d3660046134a0565b610ec0565b61024b6103203660046134bb565b610f2c565b61024b6103333660046134a0565b611132565b61022a6103463660046134a0565b611140565b61022a6111b3565b61024b6103613660046134a0565b61130b565b6102bb61135c565b61024b61037c366004613561565b6113d0565b61022a61038f3660046134a0565b611441565b7251554555455f4f50455241544f525f524f4c4560681b61022a565b61024b6103be366004613705565b61145e565b5f546001600160a01b03166102bb565b61024b6103e13660046134bb565b6115b0565b6103f96103f43660046134bb565b611787565b6040516101ff9190613817565b61022a610414366004613561565b6001600160a01b039283165f908152603b602090815260408083209486168352938152838220929094168152925290205490565b603d546001600160a01b03166102bb565b61024b6104673660046134a0565b61195d565b61047f61047a3660046134a0565b611ab4565b6040516101ff91906138fb565b61022a61049a3660046134a0565b611bd7565b6101f36104ad3660046139cd565b611bf7565b5f6001600160e01b03198216632ff60c8760e11b14806104e257506001600160e01b03198216632af7349960e01b145b806104f157506104f182611c01565b92915050565b5f546040805163d09edf3160e01b815290516105cf926001600160a01b03169163d09edf319160048083019260209291908290030181865afa15801561053f573d5f803e3d5ffd5b505050506040513d601f19601f820116820180604052508101906105639190613a7f565b6001600160a01b031663b3ecf2366040518163ffffffff1660e01b8152600401602060405180830381865afa15801561059e573d5f803e3d5ffd5b505050506040513d601f19601f820116820180604052508101906105c29190613a9a565b6105ca611c35565b611c85565b6105d881611d97565b50565b5f7251554555455f4f50455241544f525f524f4c4560681b6106b45f8054906101000a90046001600160a01b03166001600160a01b031663d09edf316040518163ffffffff1660e01b8152600401602060405180830381865afa158015610644573d5f803e3d5ffd5b505050506040513d601f19601f820116820180604052508101906106689190613a7f565b60405163fdd5205f60e01b8152306004820152602481018490526001600160a01b03919091169063fdd5205f906044015b602060405180830381865afa15801561059e573d5f803e3d5ffd5b6106be8484611e00565b6106f15760405162f570a360e41b81526001600160a01b0384166004820152602481018590526044015b60405180910390fd5b6001600160a01b0383165f90815260396020908152604080832087845290915290206002600782015460ff16600381111561072e5761072e6137e3565b1461074c5760405163309d2f7760e11b815260040160405180910390fd5b60028101546001820154600a8301546040516370a0823160e01b81526001600160a01b0391821660048201529116906370a0823190602401602060405180830381865afa15801561079f573d5f803e3d5ffd5b505050506040513d601f19601f820116820180604052508101906107c39190613a9a565b10156107eb57600281015460405163016ceee360e71b815260048101919091526024016106e8565b6107f785856001611e46565b6108018585611f00565b6001810154600a820154603c5460028401545f93610831936001600160a01b039182169390821692911690611f46565b905050505092915050565b5f80546040805163d09edf3160e01b815290518693926001600160a01b03169163d09edf319160048083019260209291908290030181865afa158015610884573d5f803e3d5ffd5b505050506040513d601f19601f820116820180604052508101906108a89190613a7f565b60405163fdd5205f60e01b8152306004820152602481018490526001600160a01b03919091169063fdd5205f90604401602060405180830381865afa1580156108f3573d5f803e3d5ffd5b505050506040513d601f19601f820116820180604052508101906109179190613a9a565b90506109bb5f8054906101000a90046001600160a01b03166001600160a01b031663d09edf316040518163ffffffff1660e01b8152600401602060405180830381865afa15801561096a573d5f803e3d5ffd5b505050506040513d601f19601f8201168201806040525081019061098e9190613a7f565b6001600160a01b031663248a9ca3836040518263ffffffff1660e01b815260040161069991815260200190565b5f8054906101000a90046001600160a01b03166001600160a01b031663d09edf316040518163ffffffff1660e01b8152600401602060405180830381865afa158015610a09573d5f803e3d5ffd5b505050506040513d601f19601f82011682018060405250810190610a2d9190613a7f565b6001600160a01b0316637d540a648686866040518463ffffffff1660e01b8152600401610a5c93929190613ab1565b5f604051808303815f87803b158015610a73575f80fd5b505af1158015610a85573d5f803e3d5ffd5b505050505050505050565b7251554555455f4f50455241544f525f524f4c4560681b610af85f8054906101000a90046001600160a01b03166001600160a01b031663d09edf316040518163ffffffff1660e01b8152600401602060405180830381865afa158015610644573d5f803e3d5ffd5b6001600160a01b038085165f908152603b6020908152604080832084881684528252808320938616835292905220545f03610b59576040516307461ff560e51b81526001600160a01b038086166004830152831660248201526044016106e8565b6001600160a01b038481165f908152603b60209081526040808320878516808552908352818420878616855290925282208054929055603d549192610ba19230911684612107565b836001600160a01b0316836001600160a01b03167f3737f2a73c794dafe53d8aeea06810a9ebcf7167401b259406960e088e03f83083604051610be691815260200190565b60405180910390a3603d5481906001600160a01b039081169085167fd5377d7376738a24af0c54b9f2d6db87a486b02e9ca2ad120a2feb6a585f8072610c2a611c35565b6040516001600160a01b03909116815260200160405180910390a45050505050565b5f80546040805163d09edf3160e01b815290518693926001600160a01b03169163d09edf319160048083019260209291908290030181865afa158015610c94573d5f803e3d5ffd5b505050506040513d601f19601f82011682018060405250810190610cb89190613a7f565b60405163fdd5205f60e01b8152306004820152602481018490526001600160a01b03919091169063fdd5205f90604401602060405180830381865afa158015610d03573d5f803e3d5ffd5b505050506040513d601f19601f82011682018060405250810190610d279190613a9a565b9050610d7a5f8054906101000a90046001600160a01b03166001600160a01b031663d09edf316040518163ffffffff1660e01b8152600401602060405180830381865afa15801561096a573d5f803e3d5ffd5b5f8054906101000a90046001600160a01b03166001600160a01b031663d09edf316040518163ffffffff1660e01b8152600401602060405180830381865afa158015610dc8573d5f803e3d5ffd5b505050506040513d601f19601f82011682018060405250810190610dec9190613a7f565b6001600160a01b031663648154538686866040518463ffffffff1660e01b8152600401610a5c93929190613ab1565b606060016004018054610e2d90613b08565b80601f0160208091040260200160405190810160405280929190818152602001828054610e5990613b08565b8015610ea45780601f10610e7b57610100808354040283529160200191610ea4565b820191905f5260205f20905b815481529060010190602001808311610e8757829003601f168201915b5050505050905090565b606060016003018054610e2d90613b08565b5f805460405163572b6c0560e01b81526001600160a01b0384811660048301529091169063572b6c0590602401602060405180830381865afa158015610f08573d5f803e3d5ffd5b505050506040513d601f19601f820116820180604052508101906104f19190613b3a565b5f80546040805163d09edf3160e01b815290518593926001600160a01b03169163d09edf319160048083019260209291908290030181865afa158015610f74573d5f803e3d5ffd5b505050506040513d601f19601f82011682018060405250810190610f989190613a7f565b60405163fdd5205f60e01b8152306004820152602481018490526001600160a01b03919091169063fdd5205f90604401602060405180830381865afa158015610fe3573d5f803e3d5ffd5b505050506040513d601f19601f820116820180604052508101906110079190613a9a565b905061105a5f8054906101000a90046001600160a01b03166001600160a01b031663d09edf316040518163ffffffff1660e01b8152600401602060405180830381865afa15801561096a573d5f803e3d5ffd5b5f8054906101000a90046001600160a01b03166001600160a01b031663d09edf316040518163ffffffff1660e01b8152600401602060405180830381865afa1580156110a8573d5f803e3d5ffd5b505050506040513d601f19601f820116820180604052508101906110cc9190613a7f565b60405163385e205560e21b8152600481018690526001600160a01b038581166024830152919091169063e1788154906044015b5f604051808303815f87803b158015611116575f80fd5b505af1158015611128573d5f803e3d5ffd5b5050505050505050565b8061113c81612176565b5050565b6001600160a01b0381165f9081526038602090815260408083205f19845260020190915281205481036111915760405163e7f9afc560e01b81526001600160a01b03831660048201526024016106e8565b6001600160a01b0382165f9081526038602052604090206104f1905f196121e1565b5f61130660016040518060a00160405290815f820154815260200160018201548152602001600282015481526020016003820180546111f190613b08565b80601f016020809104026020016040519081016040528092919081815260200182805461121d90613b08565b80156112685780601f1061123f57610100808354040283529160200191611268565b820191905f5260205f20905b81548152906001019060200180831161124b57829003601f168201915b5050505050815260200160048201805461128190613b08565b80601f01602080910402602001604051908101604052809291908181526020018280546112ad90613b08565b80156112f85780601f106112cf576101008083540402835291602001916112f8565b820191905f5260205f20905b8154815290600101906020018083116112db57829003601f168201915b50505050508152505061222f565b905090565b5f546040805163d09edf3160e01b81529051611353926001600160a01b03169163d09edf319160048083019260209291908290030181865afa15801561053f573d5f803e3d5ffd5b6105d88161226d565b5f805f9054906101000a90046001600160a01b03166001600160a01b0316637da0a8776040518163ffffffff1660e01b8152600401602060405180830381865afa1580156113ac573d5f803e3d5ffd5b505050506040513d601f19601f820116820180604052508101906113069190613a7f565b6001600160a01b038084165f908152603b6020908152604080832084871684528252808320938516835292905220545f03611431576040516307461ff560e51b81526001600160a01b038085166004830152821660248201526044016106e8565b61143c8383836122d6565b505050565b6001600160a01b0381165f908152603860205260408120546104f1565b7ff0c57e16840df040f15088dc2f81fe391c3923bec73e23a9662efc9c229c6a00805468010000000000000000810460ff16159067ffffffffffffffff165f811580156114a85750825b90505f8267ffffffffffffffff1660011480156114c45750303b155b9050811580156114d2575080155b156114f05760405163f92ee8a960e01b815260040160405180910390fd5b845467ffffffffffffffff19166001178555831561152457845468ff00000000000000001916680100000000000000001785555b61152e888861236d565b5f80878060200190518101906115449190613b64565b915091506115518261226d565b61155a81611d97565b5050831561112857845468ff000000000000000019168555604051600181527fc7f505b2f371ae2175ee4913f4499e1f2633a7b5936321eed1cdaeb6115181d29060200160405180910390a15050505050505050565b5f80546040805163d09edf3160e01b815290518593926001600160a01b03169163d09edf319160048083019260209291908290030181865afa1580156115f8573d5f803e3d5ffd5b505050506040513d601f19601f8201168201806040525081019061161c9190613a7f565b60405163fdd5205f60e01b8152306004820152602481018490526001600160a01b03919091169063fdd5205f90604401602060405180830381865afa158015611667573d5f803e3d5ffd5b505050506040513d601f19601f8201168201806040525081019061168b9190613a9a565b90506116de5f8054906101000a90046001600160a01b03166001600160a01b031663d09edf316040518163ffffffff1660e01b8152600401602060405180830381865afa15801561096a573d5f803e3d5ffd5b5f8054906101000a90046001600160a01b03166001600160a01b031663d09edf316040518163ffffffff1660e01b8152600401602060405180830381865afa15801561172c573d5f803e3d5ffd5b505050506040513d601f19601f820116820180604052508101906117509190613a7f565b604051632e99be7f60e21b8152600481018690526001600160a01b038581166024830152919091169063ba66f9fc906044016110ff565b6117f66040805161018081019091525f60a0820181815260c0830182905260e08301829052610100830182905261012083018290526101408301919091526060610160830152819081526020015f81526020015f81526020015f81526020015f6001600160a01b031681525090565b6118008383611e00565b61182e5760405162f570a360e41b81526001600160a01b0383166004820152602481018490526044016106e8565b6001600160a01b038083165f9081526039602090815260408083208784528252918290208251610180810184528154851660a08201908152600183015490951660c0820152600282015460e08201526003820154610100820152600482015461012082015260058201546101408201526006820180548551818602810186019096528086529195929486948693610160870193918301828280156118ef57602002820191905f5260205f20905b8154815260200190600101908083116118db575b505050919092525050508152600782015460209091019060ff16600381111561191a5761191a6137e3565b600381111561192b5761192b6137e3565b81526008820154602082015260098201546040820152600a909101546001600160a01b03166060909101529392505050565b8061196781612176565b5f546001600160a01b03166342f6e38961197f611c35565b6040516001600160e01b031960e084901b1681526001600160a01b039091166004820152602401602060405180830381865afa1580156119c1573d5f803e3d5ffd5b505050506040513d601f19601f820116820180604052508101906119e59190613b3a565b611a0257604051633c9fdabb60e01b815260040160405180910390fd5b6060826001600160a01b031663c0231ff66040518163ffffffff1660e01b81526004015f604051808303815f875af1158015611a40573d5f803e3d5ffd5b505050506040513d5f823e601f3d908101601f19168201604052611a679190810190613c52565b505080519091505f5b81811015611aa457611a9b838281518110611a8d57611a8d613db2565b602002602001015186612466565b50600101611a70565b50611aae846126b1565b50505050565b6001600160a01b0381165f9081526038602052604081205460609103611aec57604080515f80825260208201909252905b5092915050565b6001600160a01b0382165f9081526038602052604081205467ffffffffffffffff811115611b1c57611b1c613608565b604051908082528060200260200182016040528015611b45578160200160208202803683370190505b506001600160a01b0384165f908152603860205260408120919250908190611b6e905f196121e1565b90505b5f198114611bce57808383611b8581613dda565b945081518110611b9757611b97613db2565b6020908102919091018101919091526001600160a01b0386165f908152603890915260409020611bc790826121e1565b9050611b71565b50909392505050565b6001600160a01b0381165f908152603860205260408120600101546104f1565b5f6104f18261279d565b5f6001600160e01b0319821663e328951160e01b14806104f157506301ffc9a760e01b6001600160e01b03198316146104f1565b5f366014611c4233610ec0565b8015611c4e5750808210155b15611c7d575f36611c5f8385613df2565b611c6a928290613e05565b611c7391613e2c565b60601c9250505090565b339250505090565b5f8054906101000a90046001600160a01b03166001600160a01b031663d09edf316040518163ffffffff1660e01b8152600401602060405180830381865afa158015611cd3573d5f803e3d5ffd5b505050506040513d601f19601f82011682018060405250810190611cf79190613a7f565b60405163a883867d60e01b8152600481018490526001600160a01b038381166024830152919091169063a883867d90604401602060405180830381865afa158015611d44573d5f803e3d5ffd5b505050506040513d601f19601f82011682018060405250810190611d689190613b3a565b61113c576040516342abbb7760e01b8152600481018390526001600160a01b03821660248201526044016106e8565b6001600160a01b0381161580611db557506001600160a01b03811630145b15611dde5760405163158a815160e31b81526001600160a01b03821660048201526024016106e8565b603d80546001600160a01b0319166001600160a01b0392909216919091179055565b6001600160a01b038082165f8181526039602090815260408083208784529091528120600a810154919390929116148015611e3e5750600981015415155b949350505050565b6001600160a01b0382165f90815260396020908152604080832086845290915290206007810154611e7c90859060ff1684612831565b5060078101805483919060ff19166001836003811115611e9e57611e9e6137e3565b0217905550611eab611c35565b600a8201546040516001600160a01b03928316929091169086907f3a75e4822574db6690013a0aac0ea63058130a6f327921c57c63d54d26ffe1fe90611ef2908790613e5f565b60405180910390a450505050565b6001600160a01b0381165f908152603860205260408120611f2190846128fd565b6001600160a01b0383165f90815260386020526040902090915061143c9082856129cd565b5f80611f5486868686612a7a565b90508015611fb257856001600160a01b0316846001600160a01b03167f3737f2a73c794dafe53d8aeea06810a9ebcf7167401b259406960e088e03f83085604051611fa191815260200190565b60405180910390a3600191506120a1565b611fbe86863086612a7a565b905080611fff5760405162037f9b60ed1b81526001600160a01b038087166004830152808616602483015287166044820152606481018490526084016106e8565b6001600160a01b038086165f908152603b602090815260408083208a8516845282528083209388168352929052908120805485929061203f908490613e6d565b92505081905550836001600160a01b0316866001600160a01b0316866001600160a01b03167fbff6d112ab4c9d4a5f437492b210126678d87e510e41c7d8650c660302fb06b08660405161209591815260200190565b60405180910390a45f91505b604051631667d8c360e31b81526001600160a01b0387811660048301526024820185905286169063b33ec618906044015f604051808303815f87803b1580156120e8575f80fd5b505af11580156120fa573d5f803e3d5ffd5b5050505050949350505050565b604080516001600160a01b0385811660248301528416604482015260648082018490528251808303909101815260849091019091526020810180517bffffffffffffffffffffffffffffffffffffffffffffffffffffffff166323b872dd60e01b179052611aae908590612b8d565b6001600160a01b0381166121a85760405163e81c62c560e01b81526001600160a01b03821660048201526024016106e8565b6121b0611c35565b6001600160a01b0316816001600160a01b0316146105d85760405163c0cbb5a760e01b815260040160405180910390fd5b5f81815260028301602052604081205483908390830361221457604051637bfea7d960e11b815260040160405180910390fd5b5f84815260028601602052604090205492505b505092915050565b5f815f01518260600151836080015160405160200161225093929190613e80565b604051602081830303815290604052805190602001209050919050565b6001600160a01b038116158061228b57506001600160a01b03811630145b156122b45760405163158a815160e31b81526001600160a01b03821660048201526024016106e8565b603c80546001600160a01b0319166001600160a01b0392909216919091179055565b6001600160a01b038381165f908152603b60209081526040808320868516808552908352818420948616845293909152812080549190559061231a90308484612107565b826001600160a01b0316826001600160a01b03167f3737f2a73c794dafe53d8aeea06810a9ebcf7167401b259406960e088e03f8308360405161235f91815260200190565b60405180910390a350505050565b612375612bee565b6001600160a01b03821661239c57604051637280679360e01b815260040160405180910390fd5b5f80546001600160a01b0319166001600160a01b0384161790556123bf81612c3e565b6123dc57604051637511254160e01b815260040160405180910390fd5b805160019081556020820151600255604082015160035560608201518291906004906124089082613ef5565b506080820151600482019061241d9082613ef5565b50905050816001600160a01b03167fd5f3f84c2e1816ce290af84d002663800b02f2985d770cdd335de76fd723b7308260405161245a9190613fb5565b60405180910390a25050565b5f6124708361279d565b6124985760405163e7f9afc560e01b81526001600160a01b03831660048201526024016106e8565b6124aa8360a001518460c00151612c98565b6040805160a0810190915284815290915060208101600281526020808201849052426040808401919091526001600160a01b0380871660609485018190525f9081526039845282812087825284528290208551805182549084166001600160a01b031991821617835581860151600184018054919095169116179092559181015160028301559283015160038201556080830151600482015560a0830151600582015560c08301518051919392849261256992600685019201906133fd565b505050602082015160078201805460ff1916600183600381111561258f5761258f6137e3565b0217905550604082810151600883015560608301516009830155608090920151600a90910180546001600160a01b0319166001600160a01b0392831617905583165f908152603860205220545f03612618576001600160a01b0382165f908152603860205260409020612618905f195f8181526002830160205260409020819055600190910155565b6001600160a01b0382165f9081526038602052604090206126399082612cda565b6001600160a01b038281165f818152603a60209081526040918290208590558681015187518884015160a08a015185519687529386015292840191909152831692169083907fa837d772ba58992214e1080aef87032a8931dc3830ced0782c40f6fa21dc79a79060600160405180910390a492915050565b806126bb81612176565b6001600160a01b0382165f9081526038602052604081206126dd905f196121e1565b90505f1981036127005760405163578cb8d960e01b815260040160405180910390fd5b5f5b5f198214158015612717575061271784612d4c565b156127515761272581613dda565b6001600160a01b0385165f90815260386020526040902090915061274a905f196121e1565b9150612702565b836001600160a01b0316612763611c35565b6001600160a01b03167f635cdafb2aeaf06f68681649c1e9be54e7bb8eb1e6db5047a084c10edb0ff6da8360405161235f91815260200190565b5f806127b18360a001518460c00151612c98565b90506127bf835f0151612e2b565b80156127ce5750604083015115155b80156127df57506127df8133612f6f565b80156127f357506127f38360200151612fa6565b80156128025750606083015146145b80156128115750608083015146145b801561282a575061282a8360a001518460c00151613035565b9392505050565b5f80836003811115612845576128456137e3565b148061286257506001836003811115612860576128606137e3565b145b15612886578383836040516316e4f2ed60e31b81526004016106e89392919061400b565b5f826003811115612899576128996137e3565b14806128b6575060018260038111156128b4576128b46137e3565b145b156128f35760028360038111156128cf576128cf6137e3565b146128f3578383836040516316e4f2ed60e31b81526004016106e89392919061400b565b5060019392505050565b5f81815260028301602052604081205483908390830361293057604051637bfea7d960e11b815260040160405180910390fd5b5f1984036129445784600101549250612227565b5f61294e86613086565b80519091505f5b818110156129c2578683828151811061297057612970613db2565b6020026020010151036129ba57805f0361298b575f196129b0565b82612997600183613df2565b815181106129a7576129a7613db2565b60200260200101515b9550505050612227565b600101612955565b505050505092915050565b82816129d98282613131565b6129f657604051638f454d2d60e01b815260040160405180910390fd5b5f8481526002860160205260409020548590859085908114612a2b57604051633065847560e01b815260040160405180910390fd5b5f86815260028901602052604080822080548a8452918320919091558782528190558854908990612a5b8361402c565b9190505550876001015486036111285750505050506001929092015550565b604080516001600160a01b0385811660248301528481166044830152606480830185905283518084039091018152608490920183526020820180517bffffffffffffffffffffffffffffffffffffffffffffffffffffffff166323b872dd60e01b17905291515f928392839291891691612af49190614041565b5f604051808303815f865af19150503d805f8114612b2d576040519150601f19603f3d011682016040523d82523d5f602084013e612b32565b606091505b5091509150818015612b5c575080511580612b5c575080806020019051810190612b5c9190613b3a565b8015612b7157506001600160a01b0387163b15155b15612b8157600192505050611e3e565b505f9695505050505050565b5f612ba16001600160a01b03841683613154565b905080515f14158015612bc5575080806020019051810190612bc39190613b3a565b155b1561143c57604051635274afe760e01b81526001600160a01b03841660048201526024016106e8565b7ff0c57e16840df040f15088dc2f81fe391c3923bec73e23a9662efc9c229c6a005468010000000000000000900460ff16612c3c57604051631afcd79f60e31b815260040160405180910390fd5b565b5f8160600151515f03612c5257505f919050565b8160800151515f03612c6557505f919050565b8151158015612c7657506020820151155b8015612c8457506040820151155b15612c9057505f919050565b506001919050565b5f60018316158015908190612cad5750825115155b15611ae557825f60ff1681518110612cc757612cc7613db2565b60200260200101515f1c91505092915050565b8181612ce68282613131565b80612cef575080155b15612d0d5760405163582fbbaf60e01b815260040160405180910390fd5b6001840180545f90815260028601602052604080822086905585825281205f199055908490558454908590612d4183613dda565b919050555050505050565b5f81612d5781612176565b6001600160a01b0383165f908152603860205260408120612d79905f196121e1565b90505f198103612d8c575f925050612e25565b6001600160a01b0384165f90815260396020908152604080832084845290915290206002600782015460ff166003811115612dc957612dc96137e3565b14612de257612dd88286611f00565b5f93505050612e25565b6001810154600a8201546002830154612e08926001600160a01b03908116921690613161565b612e16575f93505050612e25565b612e208282613255565b935050505b50919050565b5f6001600160a01b0382161580612e5a5750612e45611c35565b6001600160a01b0316826001600160a01b0316145b80612e6d57506001600160a01b03821630145b80612e8457505f546001600160a01b038381169116145b80612f6857505f546001600160a01b03166001600160a01b03166304baed9e6040518163ffffffff1660e01b8152600401602060405180830381865afa158015612ed0573d5f803e3d5ffd5b505050506040513d601f19601f82011682018060405250810190612ef49190613a7f565b6001600160a01b031663fc0c546a6040518163ffffffff1660e01b8152600401602060405180830381865afa158015612f2f573d5f803e3d5ffd5b505050506040513d601f19601f82011682018060405250810190612f539190613a7f565b6001600160a01b0316826001600160a01b0316145b1592915050565b5f808311801561282a57506001600160a01b0382165f908152603a6020526040902054612f9d906001613e6d565b83149392505050565b5f6001600160a01b038216612fbc57505f919050565b6040516370a0823160e01b81523060048201526001600160a01b038316906370a0823190602401602060405180830381865afa92505050801561301c575060408051601f3d908101601f1916820190925261301991810190613a9a565b60015b61302757505f919050565b50600192915050565b919050565b5f8281805b60088160ff16101561306a57600160ff82161b831615613062578161305e81613dda565b9250505b60010161303a565b5080845114801561307d57506001821615155b95945050505050565b60605f825f015467ffffffffffffffff8111156130a5576130a5613608565b6040519080825280602002602001820160405280156130ce578160200160208202803683370190505b505f195f908152600285016020526040812054919250905b5f198114611bce578083838151811061310157613101613db2565b6020908102919091018101919091525f91825260028601905260409020548161312981613dda565b9250506130e6565b5f8181526002830160205260408120541580159061282a5750505f191415919050565b606061282a83835f6132df565b6040516370a0823160e01b81526001600160a01b0383811660048301525f9185918491908316906370a0823190602401602060405180830381865afa1580156131ac573d5f803e3d5ffd5b505050506040513d601f19601f820116820180604052508101906131d09190613a9a565b1015801561307d5750604051636eb1769f60e11b81526001600160a01b03858116600483015230602483015284919083169063dd62ed3e90604401602060405180830381865afa158015613226573d5f803e3d5ffd5b505050506040513d601f19601f8201168201806040525081019061324a9190613a9a565b101595945050505050565b6001810154600a820154825460028401545f93613284936001600160a01b039182169390821692911690611f46565b905080156132ab57600a8201546132a69084906001600160a01b03165f611e46565b6132c6565b600a8201546132c69084906001600160a01b03166003611e46565b600a8201546104f19084906001600160a01b0316611f00565b6060814710156133045760405163cd78605960e01b81523060048201526024016106e8565b5f80856001600160a01b0316848660405161331f9190614041565b5f6040518083038185875af1925050503d805f8114613359576040519150601f19603f3d011682016040523d82523d5f602084013e61335e565b606091505b509150915061336e868383613378565b9695505050505050565b60608261338d57613388826133d4565b61282a565b81511580156133a457506001600160a01b0384163b155b156133cd57604051639996b31560e01b81526001600160a01b03851660048201526024016106e8565b508061282a565b8051156133e45780518082602001fd5b604051630a12f52160e11b815260040160405180910390fd5b828054828255905f5260205f20908101928215613436579160200282015b8281111561343657825182559160200191906001019061341b565b50613442929150613446565b5090565b5b80821115613442575f8155600101613447565b5f6020828403121561346a575f80fd5b81356001600160e01b03198116811461282a575f80fd5b6001600160a01b03811681146105d8575f80fd5b803561303081613481565b5f602082840312156134b0575f80fd5b813561282a81613481565b5f80604083850312156134cc575f80fd5b8235915060208301356134de81613481565b809150509250929050565b5f805f604084860312156134fb575f80fd5b83359250602084013567ffffffffffffffff80821115613519575f80fd5b818601915086601f83011261352c575f80fd5b81358181111561353a575f80fd5b8760208260051b850101111561354e575f80fd5b6020830194508093505050509250925092565b5f805f60608486031215613573575f80fd5b833561357e81613481565b9250602084013561358e81613481565b9150604084013561359e81613481565b809150509250925092565b5f5b838110156135c35781810151838201526020016135ab565b50505f910152565b5f81518084526135e28160208601602086016135a9565b601f01601f19169290920160200192915050565b602081525f61282a60208301846135cb565b634e487b7160e01b5f52604160045260245ffd5b60405160a0810167ffffffffffffffff8111828210171561363f5761363f613608565b60405290565b60405160e0810167ffffffffffffffff8111828210171561363f5761363f613608565b604051601f8201601f1916810167ffffffffffffffff8111828210171561369157613691613608565b604052919050565b5f82601f8301126136a8575f80fd5b813567ffffffffffffffff8111156136c2576136c2613608565b6136d5601f8201601f1916602001613668565b8181528460208386010111156136e9575f80fd5b816020850160208301375f918101602001919091529392505050565b5f805f60608486031215613717575f80fd5b833561372281613481565b9250602084013567ffffffffffffffff8082111561373e575f80fd5b9085019060a08288031215613751575f80fd5b61375961361c565b823581526020830135602082015260408301356040820152606083013582811115613782575f80fd5b61378e89828601613699565b6060830152506080830135828111156137a5575f80fd5b6137b189828601613699565b608083015250935060408601359150808211156137cc575f80fd5b506137d986828701613699565b9150509250925092565b634e487b7160e01b5f52602160045260245ffd5b6004811061381357634e487b7160e01b5f52602160045260245ffd5b9052565b5f6020808352835160a0828501526101a084016001600160a01b038083511660c087015280848401511660e08701525060408201516101008601526060820151610120860152608082015161014086015260a082015161016086015260c0820151915060e06101808601528082518083526101c08701915084840193505f92505b808310156138b85783518252928401926001929092019190840190613898565b5092860151926138cb60408701856137f7565b60408701516060870152606087015160808701526080870151935061336e60a08701856001600160a01b03169052565b602080825282518282018190525f9190848201906040850190845b8181101561393257835183529284019291840191600101613916565b50909695505050505050565b5f67ffffffffffffffff82111561395757613957613608565b5060051b60200190565b5f82601f830112613970575f80fd5b813560206139856139808361393e565b613668565b8083825260208201915060208460051b8701019350868411156139a6575f80fd5b602086015b848110156139c257803583529183019183016139ab565b509695505050505050565b5f602082840312156139dd575f80fd5b813567ffffffffffffffff808211156139f4575f80fd5b9083019060e08286031215613a07575f80fd5b613a0f613645565b613a1883613495565b8152613a2660208401613495565b602082015260408301356040820152606083013560608201526080830135608082015260a083013560a082015260c083013582811115613a64575f80fd5b613a7087828601613961565b60c08301525095945050505050565b5f60208284031215613a8f575f80fd5b815161282a81613481565b5f60208284031215613aaa575f80fd5b5051919050565b838152604060208083018290529082018390525f90849060608401835b86811015613afc578335613ae181613481565b6001600160a01b031682529282019290820190600101613ace565b50979650505050505050565b600181811c90821680613b1c57607f821691505b602082108103612e2557634e487b7160e01b5f52602260045260245ffd5b5f60208284031215613b4a575f80fd5b8151801515811461282a575f80fd5b805161303081613481565b5f8060408385031215613b75575f80fd5b8251613b8081613481565b60208401519092506134de81613481565b5f82601f830112613ba0575f80fd5b81516020613bb06139808361393e565b8083825260208201915060208460051b870101935086841115613bd1575f80fd5b602086015b848110156139c25780518352918301918301613bd6565b5f82601f830112613bfc575f80fd5b81516020613c0c6139808361393e565b8083825260208201915060208460051b870101935086841115613c2d575f80fd5b602086015b848110156139c2578051613c4581613481565b8352918301918301613c32565b5f805f60608486031215613c64575f80fd5b835167ffffffffffffffff80821115613c7b575f80fd5b818601915086601f830112613c8e575f80fd5b81516020613c9e6139808361393e565b82815260059290921b8401810191818101908a841115613cbc575f80fd5b8286015b84811015613d6b57805186811115613cd6575f80fd5b870160e0818e03601f19011215613ceb575f80fd5b613cf3613645565b613cfe868301613b59565b8152613d0c60408301613b59565b86820152606082015160408201526080820151606082015260a0820151608082015260c082015160a082015260e082015188811115613d49575f80fd5b613d578f8883860101613b91565b60c083015250845250918301918301613cc0565b5091890151919750909350505080821115613d84575f80fd5b613d9087838801613bed565b93506040860151915080821115613da5575f80fd5b506137d986828701613b91565b634e487b7160e01b5f52603260045260245ffd5b634e487b7160e01b5f52601160045260245ffd5b5f60018201613deb57613deb613dc6565b5060010190565b818103818111156104f1576104f1613dc6565b5f8085851115613e13575f80fd5b83861115613e1f575f80fd5b5050820193919092039150565b6bffffffffffffffffffffffff1981358181169160148510156122275760149490940360031b84901b1690921692915050565b602081016104f182846137f7565b808201808211156104f1576104f1613dc6565b838152606060208201525f613e9860608301856135cb565b828103604084015261336e81856135cb565b601f82111561143c57805f5260205f20601f840160051c81016020851015613ecf5750805b601f840160051c820191505b81811015613eee575f8155600101613edb565b5050505050565b815167ffffffffffffffff811115613f0f57613f0f613608565b613f2381613f1d8454613b08565b84613eaa565b602080601f831160018114613f56575f8415613f3f5750858301515b5f19600386901b1c1916600185901b178555613fad565b5f85815260208120601f198616915b82811015613f8457888601518255948401946001909101908401613f65565b5085821015613fa157878501515f19600388901b60f8161c191681555b505060018460011b0185555b505050505050565b602081528151602082015260208201516040820152604082015160608201525f606083015160a06080840152613fee60c08401826135cb565b90506080840151601f198483030160a085015261307d82826135cb565b8381526060810161401f60208301856137f7565b611e3e60408301846137f7565b5f8161403a5761403a613dc6565b505f190190565b5f82516140528184602087016135a9565b919091019291505056fea2646970667358221220d5d28b26d82cc2f6c3329241c5273dc5c9f0f7fa54bb2dd9c9655bf10f76f73164736f6c63430008170033",
    "linkReferences": {}
  },
  "methodIdentifiers": {
    "cancelPaymentOrderThroughQueueId(uint256,address)": "195254ad",
    "cancelRunningPayments(address)": "73d7764e",
    "claimPreviouslyUnclaimable(address,address,address)": "81ac0367",
    "claimPreviouslyUnclaimableToTreasury(address,address,address)": "271e4283",
    "getCanceledOrdersTreasury()": "4d45e9aa",
    "getFailedOrdersTreasury()": "df40044a",
    "getOrder(uint256,address)": "cbbfe168",
    "getOrderQueue(address)": "ee8b4f94",
    "getQueueHead(address)": "75a2dc05",
    "getQueueOperatorRole()": "aca51e3e",
    "getQueueOperatorRoleAdmin()": "0e4eaa4f",
    "getQueueSizeForClient(address)": "9b5674ab",
    "getQueueTail(address)": "f14ba610",
    "grantModuleRole(bytes32,address)": "6c67e807",
    "grantModuleRoleBatched(bytes32,address[])": "272bbd44",
    "identifier()": "7998a1c4",
    "init(address,(uint256,uint256,uint256,string,string),bytes)": "b66a870c",
    "isTrustedForwarder(address)": "572b6c05",
    "orchestrator()": "b74795d9",
    "processPayments(address)": "e151fc61",
    "revokeModuleRole(bytes32,address)": "bcb61920",
    "revokeModuleRoleBatched(bytes32,address[])": "24e30270",
    "setCanceledOrdersTreasury(address)": "7ce59471",
    "setFailedOrdersTreasury(address)": "17206282",
    "supportsInterface(bytes4)": "01ffc9a7",
    "title()": "4a79d50c",
    "trustedForwarder()": "7da0a877",
    "unclaimable(address,address,address)": "ceb43f54",
    "url()": "5600f04f",
    "validPaymentOrder((address,address,uint256,uint256,uint256,bytes32,bytes32[]))": "f7698285",
    "version()": "54fd4d50"
  },
  "id": 60
}