{
  "abi": [
    {
      "type": "function",
      "name": "cancelPaymentOrderThroughQueueId",
      "inputs": [
        {
          "name": "orderId_",
          "type": "uint256",
          "internalType": "uint256"
        },
        {
          "name": "client_",
          "type": "address",
          "internalType": "contract IERC20PaymentClientBase_v1"
        }
      ],
      "outputs": [
        {
          "name": "success_",
          "type": "bool",
          "internalType": "bool"
        }
      ],
      "stateMutability": "nonpayable"
    },
    {
      "type": "function",
      "name": "cancelRunningPayments",
      "inputs": [
        {
          "name": "client_",
          "type": "address",
          "internalType": "contract IERC20PaymentClientBase_v1"
        }
      ],
      "outputs": [],
      "stateMutability": "view"
    },
    {
      "type": "function",
      "name": "claimPreviouslyUnclaimable",
      "inputs": [
        {
          "name": "client_",
          "type": "address",
          "internalType": "address"
        },
        {
          "name": "token_",
          "type": "address",
          "internalType": "address"
        },
        {
          "name": "receiver_",
          "type": "address",
          "internalType": "address"
        }
      ],
      "outputs": [],
      "stateMutability": "nonpayable"
    },
    {
      "type": "function",
      "name": "getOrder",
      "inputs": [
        {
          "name": "orderId_",
          "type": "uint256",
          "internalType": "uint256"
        },
        {
          "name": "client_",
          "type": "address",
          "internalType": "contract IERC20PaymentClientBase_v1"
        }
      ],
      "outputs": [
        {
          "name": "order_",
          "type": "tuple",
          "internalType": "struct IPP_Queue_v1.QueuedOrder",
          "components": [
            {
              "name": "order_",
              "type": "tuple",
              "internalType": "struct IERC20PaymentClientBase_v1.PaymentOrder",
              "components": [
                {
                  "name": "recipient",
                  "type": "address",
                  "internalType": "address"
                },
                {
                  "name": "paymentToken",
                  "type": "address",
                  "internalType": "address"
                },
                {
                  "name": "amount",
                  "type": "uint256",
                  "internalType": "uint256"
                },
                {
                  "name": "originChainId",
                  "type": "uint256",
                  "internalType": "uint256"
                },
                {
                  "name": "targetChainId",
                  "type": "uint256",
                  "internalType": "uint256"
                },
                {
                  "name": "flags",
                  "type": "bytes32",
                  "internalType": "bytes32"
                },
                {
                  "name": "data",
                  "type": "bytes32[]",
                  "internalType": "bytes32[]"
                }
              ]
            },
            {
              "name": "state_",
              "type": "uint8",
              "internalType": "enum IPP_Queue_v1.RedemptionState"
            },
            {
              "name": "orderId_",
              "type": "uint256",
              "internalType": "uint256"
            },
            {
              "name": "timestamp_",
              "type": "uint256",
              "internalType": "uint256"
            },
            {
              "name": "client_",
              "type": "address",
              "internalType": "address"
            }
          ]
        }
      ],
      "stateMutability": "view"
    },
    {
      "type": "function",
      "name": "getOrderQueue",
      "inputs": [
        {
          "name": "client_",
          "type": "address",
          "internalType": "address"
        }
      ],
      "outputs": [
        {
          "name": "queue_",
          "type": "uint256[]",
          "internalType": "uint256[]"
        }
      ],
      "stateMutability": "view"
    },
    {
      "type": "function",
      "name": "getQueueHead",
      "inputs": [
        {
          "name": "client_",
          "type": "address",
          "internalType": "address"
        }
      ],
      "outputs": [
        {
          "name": "head_",
          "type": "uint256",
          "internalType": "uint256"
        }
      ],
      "stateMutability": "view"
    },
    {
      "type": "function",
      "name": "getQueueOperatorAdminRole",
      "inputs": [],
      "outputs": [
        {
          "name": "role_",
          "type": "bytes32",
          "internalType": "bytes32"
        }
      ],
      "stateMutability": "pure"
    },
    {
      "type": "function",
      "name": "getQueueOperatorRole",
      "inputs": [],
      "outputs": [
        {
          "name": "role_",
          "type": "bytes32",
          "internalType": "bytes32"
        }
      ],
      "stateMutability": "pure"
    },
    {
      "type": "function",
      "name": "getQueueSizeForClient",
      "inputs": [
        {
          "name": "client_",
          "type": "address",
          "internalType": "address"
        }
      ],
      "outputs": [
        {
          "name": "size_",
          "type": "uint256",
          "internalType": "uint256"
        }
      ],
      "stateMutability": "view"
    },
    {
      "type": "function",
      "name": "getQueueTail",
      "inputs": [
        {
          "name": "client_",
          "type": "address",
          "internalType": "address"
        }
      ],
      "outputs": [
        {
          "name": "tail_",
          "type": "uint256",
          "internalType": "uint256"
        }
      ],
      "stateMutability": "view"
    },
    {
      "type": "function",
      "name": "grantModuleRole",
      "inputs": [
        {
          "name": "role",
          "type": "bytes32",
          "internalType": "bytes32"
        },
        {
          "name": "target",
          "type": "address",
          "internalType": "address"
        }
      ],
      "outputs": [],
      "stateMutability": "nonpayable"
    },
    {
      "type": "function",
      "name": "grantModuleRoleBatched",
      "inputs": [
        {
          "name": "role",
          "type": "bytes32",
          "internalType": "bytes32"
        },
        {
          "name": "targets",
          "type": "address[]",
          "internalType": "address[]"
        }
      ],
      "outputs": [],
      "stateMutability": "nonpayable"
    },
    {
      "type": "function",
      "name": "identifier",
      "inputs": [],
      "outputs": [
        {
          "name": "",
          "type": "bytes32",
          "internalType": "bytes32"
        }
      ],
      "stateMutability": "view"
    },
    {
      "type": "function",
      "name": "init",
      "inputs": [
        {
          "name": "orchestrator_",
          "type": "address",
          "internalType": "contract IOrchestrator_v1"
        },
        {
          "name": "metadata_",
          "type": "tuple",
          "internalType": "struct IModule_v1.Metadata",
          "components": [
            {
              "name": "majorVersion",
              "type": "uint256",
              "internalType": "uint256"
            },
            {
              "name": "minorVersion",
              "type": "uint256",
              "internalType": "uint256"
            },
            {
              "name": "patchVersion",
              "type": "uint256",
              "internalType": "uint256"
            },
            {
              "name": "url",
              "type": "string",
              "internalType": "string"
            },
            {
              "name": "title",
              "type": "string",
              "internalType": "string"
            }
          ]
        },
        {
          "name": "",
          "type": "bytes",
          "internalType": "bytes"
        }
      ],
      "outputs": [],
      "stateMutability": "nonpayable"
    },
    {
      "type": "function",
      "name": "isTrustedForwarder",
      "inputs": [
        {
          "name": "forwarder",
          "type": "address",
          "internalType": "address"
        }
      ],
      "outputs": [
        {
          "name": "",
          "type": "bool",
          "internalType": "bool"
        }
      ],
      "stateMutability": "view"
    },
    {
      "type": "function",
      "name": "orchestrator",
      "inputs": [],
      "outputs": [
        {
          "name": "",
          "type": "address",
          "internalType": "contract IOrchestrator_v1"
        }
      ],
      "stateMutability": "view"
    },
    {
      "type": "function",
      "name": "processPayments",
      "inputs": [
        {
          "name": "client_",
          "type": "address",
          "internalType": "contract IERC20PaymentClientBase_v1"
        }
      ],
      "outputs": [],
      "stateMutability": "nonpayable"
    },
    {
      "type": "function",
      "name": "revokeModuleRole",
      "inputs": [
        {
          "name": "role",
          "type": "bytes32",
          "internalType": "bytes32"
        },
        {
          "name": "target",
          "type": "address",
          "internalType": "address"
        }
      ],
      "outputs": [],
      "stateMutability": "nonpayable"
    },
    {
      "type": "function",
      "name": "revokeModuleRoleBatched",
      "inputs": [
        {
          "name": "role",
          "type": "bytes32",
          "internalType": "bytes32"
        },
        {
          "name": "targets",
          "type": "address[]",
          "internalType": "address[]"
        }
      ],
      "outputs": [],
      "stateMutability": "nonpayable"
    },
    {
      "type": "function",
      "name": "supportsInterface",
      "inputs": [
        {
          "name": "interfaceId_",
          "type": "bytes4",
          "internalType": "bytes4"
        }
      ],
      "outputs": [
        {
          "name": "supported_",
          "type": "bool",
          "internalType": "bool"
        }
      ],
      "stateMutability": "view"
    },
    {
      "type": "function",
      "name": "title",
      "inputs": [],
      "outputs": [
        {
          "name": "",
          "type": "string",
          "internalType": "string"
        }
      ],
      "stateMutability": "view"
    },
    {
      "type": "function",
      "name": "trustedForwarder",
      "inputs": [],
      "outputs": [
        {
          "name": "",
          "type": "address",
          "internalType": "address"
        }
      ],
      "stateMutability": "view"
    },
    {
      "type": "function",
      "name": "unclaimable",
      "inputs": [
        {
          "name": "client_",
          "type": "address",
          "internalType": "address"
        },
        {
          "name": "token_",
          "type": "address",
          "internalType": "address"
        },
        {
          "name": "paymentReceiver_",
          "type": "address",
          "internalType": "address"
        }
      ],
      "outputs": [
        {
          "name": "amount_",
          "type": "uint256",
          "internalType": "uint256"
        }
      ],
      "stateMutability": "view"
    },
    {
      "type": "function",
      "name": "url",
      "inputs": [],
      "outputs": [
        {
          "name": "",
          "type": "string",
          "internalType": "string"
        }
      ],
      "stateMutability": "view"
    },
    {
      "type": "function",
      "name": "validPaymentOrder",
      "inputs": [
        {
          "name": "order_",
          "type": "tuple",
          "internalType": "struct IERC20PaymentClientBase_v1.PaymentOrder",
          "components": [
            {
              "name": "recipient",
              "type": "address",
              "internalType": "address"
            },
            {
              "name": "paymentToken",
              "type": "address",
              "internalType": "address"
            },
            {
              "name": "amount",
              "type": "uint256",
              "internalType": "uint256"
            },
            {
              "name": "originChainId",
              "type": "uint256",
              "internalType": "uint256"
            },
            {
              "name": "targetChainId",
              "type": "uint256",
              "internalType": "uint256"
            },
            {
              "name": "flags",
              "type": "bytes32",
              "internalType": "bytes32"
            },
            {
              "name": "data",
              "type": "bytes32[]",
              "internalType": "bytes32[]"
            }
          ]
        }
      ],
      "outputs": [
        {
          "name": "isValid_",
          "type": "bool",
          "internalType": "bool"
        }
      ],
      "stateMutability": "view"
    },
    {
      "type": "function",
      "name": "version",
      "inputs": [],
      "outputs": [
        {
          "name": "",
          "type": "uint256",
          "internalType": "uint256"
        },
        {
          "name": "",
          "type": "uint256",
          "internalType": "uint256"
        },
        {
          "name": "",
          "type": "uint256",
          "internalType": "uint256"
        }
      ],
      "stateMutability": "view"
    },
    {
      "type": "event",
      "name": "Initialized",
      "inputs": [
        {
          "name": "version",
          "type": "uint64",
          "indexed": false,
          "internalType": "uint64"
        }
      ],
      "anonymous": false
    },
    {
      "type": "event",
      "name": "ModuleInitialized",
      "inputs": [
        {
          "name": "parentOrchestrator",
          "type": "address",
          "indexed": true,
          "internalType": "address"
        },
        {
          "name": "metadata",
          "type": "tuple",
          "indexed": false,
          "internalType": "struct IModule_v1.Metadata",
          "components": [
            {
              "name": "majorVersion",
              "type": "uint256",
              "internalType": "uint256"
            },
            {
              "name": "minorVersion",
              "type": "uint256",
              "internalType": "uint256"
            },
            {
              "name": "patchVersion",
              "type": "uint256",
              "internalType": "uint256"
            },
            {
              "name": "url",
              "type": "string",
              "internalType": "string"
            },
            {
              "name": "title",
              "type": "string",
              "internalType": "string"
            }
          ]
        }
      ],
      "anonymous": false
    },
    {
      "type": "event",
      "name": "PaymentOrderProcessed",
      "inputs": [
        {
          "name": "paymentClient",
          "type": "address",
          "indexed": true,
          "internalType": "address"
        },
        {
          "name": "recipient",
          "type": "address",
          "indexed": true,
          "internalType": "address"
        },
        {
          "name": "paymentToken",
          "type": "address",
          "indexed": true,
          "internalType": "address"
        },
        {
          "name": "amount",
          "type": "uint256",
          "indexed": false,
          "internalType": "uint256"
        },
        {
          "name": "originChainId",
          "type": "uint256",
          "indexed": false,
          "internalType": "uint256"
        },
        {
          "name": "targetChainId",
          "type": "uint256",
          "indexed": false,
          "internalType": "uint256"
        },
        {
          "name": "flags",
          "type": "bytes32",
          "indexed": false,
          "internalType": "bytes32"
        },
        {
          "name": "data",
          "type": "bytes32[]",
          "indexed": false,
          "internalType": "bytes32[]"
        }
      ],
      "anonymous": false
    },
    {
      "type": "event",
      "name": "PaymentOrderQueued",
      "inputs": [
        {
          "name": "orderId_",
          "type": "uint256",
          "indexed": true,
          "internalType": "uint256"
        },
        {
          "name": "recipient_",
          "type": "address",
          "indexed": true,
          "internalType": "address"
        },
        {
          "name": "token_",
          "type": "address",
          "indexed": true,
          "internalType": "address"
        },
        {
          "name": "client_",
          "type": "address",
          "indexed": false,
          "internalType": "address"
        },
        {
          "name": "amount_",
          "type": "uint256",
          "indexed": false,
          "internalType": "uint256"
        },
        {
          "name": "flags_",
          "type": "uint256",
          "indexed": false,
          "internalType": "uint256"
        }
      ],
      "anonymous": false
    },
    {
      "type": "event",
      "name": "PaymentOrderStateChanged",
      "inputs": [
        {
          "name": "orderId_",
          "type": "uint256",
          "indexed": true,
          "internalType": "uint256"
        },
        {
          "name": "state_",
          "type": "uint8",
          "indexed": false,
          "internalType": "enum IPP_Queue_v1.RedemptionState"
        },
        {
          "name": "client_",
          "type": "address",
          "indexed": true,
          "internalType": "address"
        },
        {
          "name": "executedBy_",
          "type": "address",
          "indexed": true,
          "internalType": "address"
        }
      ],
      "anonymous": false
    },
    {
      "type": "event",
      "name": "PaymentOrderTimingSkip",
      "inputs": [
        {
          "name": "orderId_",
          "type": "uint256",
          "indexed": true,
          "internalType": "uint256"
        },
        {
          "name": "client_",
          "type": "address",
          "indexed": true,
          "internalType": "address"
        },
        {
          "name": "reason_",
          "type": "uint8",
          "indexed": false,
          "internalType": "uint8"
        },
        {
          "name": "currentTime_",
          "type": "uint256",
          "indexed": false,
          "internalType": "uint256"
        }
      ],
      "anonymous": false
    },
    {
      "type": "event",
      "name": "PaymentQueueExecuted",
      "inputs": [
        {
          "name": "executor_",
          "type": "address",
          "indexed": true,
          "internalType": "address"
        },
        {
          "name": "client_",
          "type": "address",
          "indexed": true,
          "internalType": "address"
        },
        {
          "name": "count_",
          "type": "uint256",
          "indexed": false,
          "internalType": "uint256"
        }
      ],
      "anonymous": false
    },
    {
      "type": "event",
      "name": "ProtocolFeeTransferred",
      "inputs": [
        {
          "name": "token",
          "type": "address",
          "indexed": true,
          "internalType": "address"
        },
        {
          "name": "treasury",
          "type": "address",
          "indexed": true,
          "internalType": "address"
        },
        {
          "name": "feeAmount",
          "type": "uint256",
          "indexed": false,
          "internalType": "uint256"
        }
      ],
      "anonymous": false
    },
    {
      "type": "event",
      "name": "TokensReleased",
      "inputs": [
        {
          "name": "recipient",
          "type": "address",
          "indexed": true,
          "internalType": "address"
        },
        {
          "name": "token",
          "type": "address",
          "indexed": true,
          "internalType": "address"
        },
        {
          "name": "amount",
          "type": "uint256",
          "indexed": false,
          "internalType": "uint256"
        }
      ],
      "anonymous": false
    },
    {
      "type": "event",
      "name": "UnclaimableAmountAdded",
      "inputs": [
        {
          "name": "paymentClient",
          "type": "address",
          "indexed": true,
          "internalType": "address"
        },
        {
          "name": "token",
          "type": "address",
          "indexed": true,
          "internalType": "address"
        },
        {
          "name": "recipient",
          "type": "address",
          "indexed": true,
          "internalType": "address"
        },
        {
          "name": "amount",
          "type": "uint256",
          "indexed": false,
          "internalType": "uint256"
        }
      ],
      "anonymous": false
    },
    {
      "type": "error",
      "name": "AddressEmptyCode",
      "inputs": [
        {
          "name": "target",
          "type": "address",
          "internalType": "address"
        }
      ]
    },
    {
      "type": "error",
      "name": "AddressInsufficientBalance",
      "inputs": [
        {
          "name": "account",
          "type": "address",
          "internalType": "address"
        }
      ]
    },
    {
      "type": "error",
      "name": "FailedInnerCall",
      "inputs": []
    },
    {
      "type": "error",
      "name": "InvalidInitialization",
      "inputs": []
    },
    {
      "type": "error",
      "name": "Library__LinkedIdList__IdNotConsecutive",
      "inputs": []
    },
    {
      "type": "error",
      "name": "Library__LinkedIdList__InvalidId",
      "inputs": []
    },
    {
      "type": "error",
      "name": "Library__LinkedIdList__InvalidNewId",
      "inputs": []
    },
    {
      "type": "error",
      "name": "Library__LinkedIdList__InvalidPosition",
      "inputs": []
    },
    {
      "type": "error",
      "name": "Module_OrchestratorCallbackFailed",
      "inputs": [
        {
          "name": "funcSig",
          "type": "string",
          "internalType": "string"
        }
      ]
    },
    {
      "type": "error",
      "name": "Module_PP_Queue_PaymentFailed",
      "inputs": [
        {
          "name": "client_",
          "type": "address",
          "internalType": "address"
        },
        {
          "name": "recipient_",
          "type": "address",
          "internalType": "address"
        },
        {
          "name": "token_",
          "type": "address",
          "internalType": "address"
        },
        {
          "name": "amount_",
          "type": "uint256",
          "internalType": "uint256"
        }
      ]
    },
    {
      "type": "error",
      "name": "Module__CallerNotAuthorized",
      "inputs": [
        {
          "name": "role",
          "type": "bytes32",
          "internalType": "bytes32"
        },
        {
          "name": "caller",
          "type": "address",
          "internalType": "address"
        }
      ]
    },
    {
      "type": "error",
      "name": "Module__InvalidAddress",
      "inputs": []
    },
    {
      "type": "error",
      "name": "Module__InvalidMetadata",
      "inputs": []
    },
    {
      "type": "error",
      "name": "Module__InvalidOrchestratorAddress",
      "inputs": []
    },
    {
      "type": "error",
      "name": "Module__OnlyCallableByOrchestrator",
      "inputs": []
    },
    {
      "type": "error",
      "name": "Module__OnlyCallableByPaymentClient",
      "inputs": []
    },
    {
      "type": "error",
      "name": "Module__PP_Queue_EmptyQueue",
      "inputs": []
    },
    {
      "type": "error",
      "name": "Module__PP_Queue_InvalidAmount",
      "inputs": [
        {
          "name": "amount_",
          "type": "uint256",
          "internalType": "uint256"
        }
      ]
    },
    {
      "type": "error",
      "name": "Module__PP_Queue_InvalidChainId",
      "inputs": [
        {
          "name": "originChainId_",
          "type": "uint256",
          "internalType": "uint256"
        },
        {
          "name": "targetChainId_",
          "type": "uint256",
          "internalType": "uint256"
        },
        {
          "name": "currentChainId_",
          "type": "uint256",
          "internalType": "uint256"
        }
      ]
    },
    {
      "type": "error",
      "name": "Module__PP_Queue_InvalidClientAddress",
      "inputs": [
        {
          "name": "client_",
          "type": "address",
          "internalType": "address"
        }
      ]
    },
    {
      "type": "error",
      "name": "Module__PP_Queue_InvalidConfig",
      "inputs": []
    },
    {
      "type": "error",
      "name": "Module__PP_Queue_InvalidFlagsOrData",
      "inputs": [
        {
          "name": "flags_",
          "type": "bytes32",
          "internalType": "bytes32"
        },
        {
          "name": "dataLength_",
          "type": "uint256",
          "internalType": "uint256"
        }
      ]
    },
    {
      "type": "error",
      "name": "Module__PP_Queue_InvalidOrderId",
      "inputs": [
        {
          "name": "client_",
          "type": "address",
          "internalType": "address"
        },
        {
          "name": "orderId_",
          "type": "uint256",
          "internalType": "uint256"
        }
      ]
    },
    {
      "type": "error",
      "name": "Module__PP_Queue_InvalidRecipient",
      "inputs": [
        {
          "name": "recipient_",
          "type": "address",
          "internalType": "address"
        }
      ]
    },
    {
      "type": "error",
      "name": "Module__PP_Queue_InvalidState",
      "inputs": []
    },
    {
      "type": "error",
      "name": "Module__PP_Queue_InvalidStateTransition",
      "inputs": [
        {
          "name": "orderId_",
          "type": "uint256",
          "internalType": "uint256"
        },
        {
          "name": "currentState_",
          "type": "uint8",
          "internalType": "enum IPP_Queue_v1.RedemptionState"
        },
        {
          "name": "newState_",
          "type": "uint8",
          "internalType": "enum IPP_Queue_v1.RedemptionState"
        }
      ]
    },
    {
      "type": "error",
      "name": "Module__PP_Queue_OnlyCallableByClient",
      "inputs": []
    },
    {
      "type": "error",
      "name": "Module__PP_Queue_QueueOperationFailed",
      "inputs": [
        {
          "name": "client_",
          "type": "address",
          "internalType": "address"
        }
      ]
    },
    {
      "type": "error",
      "name": "Module__PP_Queue_Unauthorized",
      "inputs": []
    },
    {
      "type": "error",
      "name": "Module__PP_Queue_ZeroAmount",
      "inputs": []
    },
    {
      "type": "error",
      "name": "Module__PaymentProcessor__CannotCallOnOtherClientsOrders",
      "inputs": []
    },
    {
      "type": "error",
      "name": "Module__PaymentProcessor__NothingToClaim",
      "inputs": [
        {
          "name": "paymentClient",
          "type": "address",
          "internalType": "address"
        },
        {
          "name": "paymentReceiver",
          "type": "address",
          "internalType": "address"
        }
      ]
    },
    {
      "type": "error",
      "name": "Module__PaymentProcessor__OnlyCallableByModule",
      "inputs": []
    },
    {
      "type": "error",
      "name": "NotInitializing",
      "inputs": []
    },
    {
      "type": "error",
      "name": "SafeERC20FailedOperation",
      "inputs": [
        {
          "name": "token",
          "type": "address",
          "internalType": "address"
        }
      ]
    }
  ],
  "bytecode": {
    "object": "0x60a060405234801562000010575f80fd5b505f6080526200001f62000025565b620000d9565b7ff0c57e16840df040f15088dc2f81fe391c3923bec73e23a9662efc9c229c6a00805468010000000000000000900460ff1615620000765760405163f92ee8a960e01b815260040160405180910390fd5b80546001600160401b0390811614620000d65780546001600160401b0319166001600160401b0390811782556040519081527fc7f505b2f371ae2175ee4913f4499e1f2633a7b5936321eed1cdaeb6115181d29060200160405180910390a15b50565b608051613c24620000ef5f395f5050613c245ff3fe608060405234801561000f575f80fd5b50600436106101a5575f3560e01c80637da0a877116100e8578063bcb6192011610093578063e151fc611161006e578063e151fc61146103d5578063ee8b4f94146103e8578063f14ba61014610408578063f76982851461041b575f80fd5b8063bcb6192014610360578063cbbfe16814610373578063ceb43f5414610393575f80fd5b8063aca51e3e116100c3578063aca51e3e14610317578063b66a870c1461033d578063b74795d914610350575f80fd5b80637da0a877146102d157806381ac0367146102f15780639b5674ab14610304575f80fd5b80635600f04f116101535780636dd5032a1161012e5780636dd5032a1461027357806373d7764e146102a357806375a2dc05146102b65780637998a1c4146102c9575f80fd5b80635600f04f14610245578063572b6c051461024d5780636c67e80714610260575f80fd5b8063272bbd4411610183578063272bbd44146101f95780634a79d50c1461020c57806354fd4d5014610221575f80fd5b806301ffc9a7146101a9578063195254ad146101d157806324e30270146101e4575b5f80fd5b6101bc6101b7366004613019565b61042e565b60405190151581526020015b60405180910390f35b6101bc6101df366004613054565b610473565b6101f76101f2366004613082565b610655565b005b6101f7610207366004613082565b6108a9565b610214610a78565b6040516101c89190613147565b600154600254600354604080519384526020840192909252908201526060016101c8565b610214610b0b565b6101bc61025b366004613164565b610b1d565b6101f761026e366004613054565b610b89565b7f51554555455f4f50455241544f525f524f4c455f41444d494e000000000000005b6040519081526020016101c8565b6101f76102b1366004613164565b610d8f565b6102956102c4366004613164565b610d9d565b610295610e10565b6102d9610f68565b6040516001600160a01b0390911681526020016101c8565b6101f76102ff36600461317f565b610fdc565b610295610312366004613164565b61104d565b7f51554555455f4f50455241544f525f524f4c4500000000000000000000000000610295565b6101f761034b3660046132c4565b61106a565b5f546001600160a01b03166102d9565b6101f761036e366004613054565b61118e565b610386610381366004613054565b611365565b6040516101c891906133d6565b6102956103a136600461317f565b6001600160a01b039283165f908152603b602090815260408083209486168352938152838220929094168152925290205490565b6101f76103e3366004613164565b611537565b6103fb6103f6366004613164565b61168e565b6040516101c891906134ba565b610295610416366004613164565b6117b1565b6101bc61042936600461358c565b6117d1565b5f6001600160e01b0319821663e2a9e9fb60e01b148061045e57506001600160e01b03198216632af7349960e01b145b8061046d575061046d826117db565b92915050565b5f7f51554555455f4f50455241544f525f524f4c45000000000000000000000000006105875f8054906101000a90046001600160a01b03166001600160a01b031663d09edf316040518163ffffffff1660e01b8152600401602060405180830381865afa1580156104e6573d5f803e3d5ffd5b505050506040513d601f19601f8201168201806040525081019061050a919061363e565b60405163fdd5205f60e01b8152306004820152602481018490526001600160a01b03919091169063fdd5205f906044015b602060405180830381865afa158015610556573d5f803e3d5ffd5b505050506040513d601f19601f8201168201806040525081019061057a9190613659565b61058261180f565b61185f565b6105918484611971565b6105c45760405162f570a360e41b81526001600160a01b0384166004820152602481018590526044015b60405180910390fd5b5f8481526039602052604090206002600782015460ff1660038111156105ec576105ec6133a2565b1461060a5760405163309d2f7760e11b815260040160405180910390fd5b6106158560016119a8565b61064161062061180f565b6001830154835460028501546001600160a01b039283169290911690611a4c565b61064a85611a97565b506001949350505050565b5f80546040805163d09edf3160e01b815290518693926001600160a01b03169163d09edf319160048083019260209291908290030181865afa15801561069d573d5f803e3d5ffd5b505050506040513d601f19601f820116820180604052508101906106c1919061363e565b60405163fdd5205f60e01b8152306004820152602481018490526001600160a01b03919091169063fdd5205f90604401602060405180830381865afa15801561070c573d5f803e3d5ffd5b505050506040513d601f19601f820116820180604052508101906107309190613659565b90506107d45f8054906101000a90046001600160a01b03166001600160a01b031663d09edf316040518163ffffffff1660e01b8152600401602060405180830381865afa158015610783573d5f803e3d5ffd5b505050506040513d601f19601f820116820180604052508101906107a7919061363e565b6001600160a01b031663248a9ca3836040518263ffffffff1660e01b815260040161053b91815260200190565b5f8054906101000a90046001600160a01b03166001600160a01b031663d09edf316040518163ffffffff1660e01b8152600401602060405180830381865afa158015610822573d5f803e3d5ffd5b505050506040513d601f19601f82011682018060405250810190610846919061363e565b6001600160a01b0316637d540a648686866040518463ffffffff1660e01b815260040161087593929190613670565b5f604051808303815f87803b15801561088c575f80fd5b505af115801561089e573d5f803e3d5ffd5b505050505050505050565b5f80546040805163d09edf3160e01b815290518693926001600160a01b03169163d09edf319160048083019260209291908290030181865afa1580156108f1573d5f803e3d5ffd5b505050506040513d601f19601f82011682018060405250810190610915919061363e565b60405163fdd5205f60e01b8152306004820152602481018490526001600160a01b03919091169063fdd5205f90604401602060405180830381865afa158015610960573d5f803e3d5ffd5b505050506040513d601f19601f820116820180604052508101906109849190613659565b90506109d75f8054906101000a90046001600160a01b03166001600160a01b031663d09edf316040518163ffffffff1660e01b8152600401602060405180830381865afa158015610783573d5f803e3d5ffd5b5f8054906101000a90046001600160a01b03166001600160a01b031663d09edf316040518163ffffffff1660e01b8152600401602060405180830381865afa158015610a25573d5f803e3d5ffd5b505050506040513d601f19601f82011682018060405250810190610a49919061363e565b6001600160a01b031663648154538686866040518463ffffffff1660e01b815260040161087593929190613670565b606060016004018054610a8a906136c7565b80601f0160208091040260200160405190810160405280929190818152602001828054610ab6906136c7565b8015610b015780601f10610ad857610100808354040283529160200191610b01565b820191905f5260205f20905b815481529060010190602001808311610ae457829003601f168201915b5050505050905090565b606060016003018054610a8a906136c7565b5f805460405163572b6c0560e01b81526001600160a01b0384811660048301529091169063572b6c0590602401602060405180830381865afa158015610b65573d5f803e3d5ffd5b505050506040513d601f19601f8201168201806040525081019061046d91906136f9565b5f80546040805163d09edf3160e01b815290518593926001600160a01b03169163d09edf319160048083019260209291908290030181865afa158015610bd1573d5f803e3d5ffd5b505050506040513d601f19601f82011682018060405250810190610bf5919061363e565b60405163fdd5205f60e01b8152306004820152602481018490526001600160a01b03919091169063fdd5205f90604401602060405180830381865afa158015610c40573d5f803e3d5ffd5b505050506040513d601f19601f82011682018060405250810190610c649190613659565b9050610cb75f8054906101000a90046001600160a01b03166001600160a01b031663d09edf316040518163ffffffff1660e01b8152600401602060405180830381865afa158015610783573d5f803e3d5ffd5b5f8054906101000a90046001600160a01b03166001600160a01b031663d09edf316040518163ffffffff1660e01b8152600401602060405180830381865afa158015610d05573d5f803e3d5ffd5b505050506040513d601f19601f82011682018060405250810190610d29919061363e565b60405163385e205560e21b8152600481018690526001600160a01b038581166024830152919091169063e1788154906044015b5f604051808303815f87803b158015610d73575f80fd5b505af1158015610d85573d5f803e3d5ffd5b5050505050505050565b80610d9981611af0565b5050565b6001600160a01b0381165f9081526038602090815260408083205f1984526002019091528120548103610dee5760405163e7f9afc560e01b81526001600160a01b03831660048201526024016105bb565b6001600160a01b0382165f90815260386020526040902061046d905f19611b5e565b5f610f6360016040518060a00160405290815f82015481526020016001820154815260200160028201548152602001600382018054610e4e906136c7565b80601f0160208091040260200160405190810160405280929190818152602001828054610e7a906136c7565b8015610ec55780601f10610e9c57610100808354040283529160200191610ec5565b820191905f5260205f20905b815481529060010190602001808311610ea857829003601f168201915b50505050508152602001600482018054610ede906136c7565b80601f0160208091040260200160405190810160405280929190818152602001828054610f0a906136c7565b8015610f555780601f10610f2c57610100808354040283529160200191610f55565b820191905f5260205f20905b815481529060010190602001808311610f3857829003601f168201915b505050505081525050611bac565b905090565b5f805f9054906101000a90046001600160a01b03166001600160a01b0316637da0a8776040518163ffffffff1660e01b8152600401602060405180830381865afa158015610fb8573d5f803e3d5ffd5b505050506040513d601f19601f82011682018060405250810190610f63919061363e565b6001600160a01b038084165f908152603b6020908152604080832084871684528252808320938516835292905220545f0361103d576040516307461ff560e51b81526001600160a01b038085166004830152821660248201526044016105bb565b611048838383611bea565b505050565b6001600160a01b0381165f9081526038602052604081205461046d565b7ff0c57e16840df040f15088dc2f81fe391c3923bec73e23a9662efc9c229c6a00805468010000000000000000810460ff16159067ffffffffffffffff165f811580156110b45750825b90505f8267ffffffffffffffff1660011480156110d05750303b155b9050811580156110de575080155b156110fc5760405163f92ee8a960e01b815260040160405180910390fd5b845467ffffffffffffffff19166001178555831561113057845468ff00000000000000001916680100000000000000001785555b61113a8888611c81565b8315610d8557845468ff000000000000000019168555604051600181527fc7f505b2f371ae2175ee4913f4499e1f2633a7b5936321eed1cdaeb6115181d29060200160405180910390a15050505050505050565b5f80546040805163d09edf3160e01b815290518593926001600160a01b03169163d09edf319160048083019260209291908290030181865afa1580156111d6573d5f803e3d5ffd5b505050506040513d601f19601f820116820180604052508101906111fa919061363e565b60405163fdd5205f60e01b8152306004820152602481018490526001600160a01b03919091169063fdd5205f90604401602060405180830381865afa158015611245573d5f803e3d5ffd5b505050506040513d601f19601f820116820180604052508101906112699190613659565b90506112bc5f8054906101000a90046001600160a01b03166001600160a01b031663d09edf316040518163ffffffff1660e01b8152600401602060405180830381865afa158015610783573d5f803e3d5ffd5b5f8054906101000a90046001600160a01b03166001600160a01b031663d09edf316040518163ffffffff1660e01b8152600401602060405180830381865afa15801561130a573d5f803e3d5ffd5b505050506040513d601f19601f8201168201806040525081019061132e919061363e565b604051632e99be7f60e21b8152600481018690526001600160a01b038581166024830152919091169063ba66f9fc90604401610d5c565b6113d46040805161018081019091525f60a0820181815260c0830182905260e08301829052610100830182905261012083018290526101408301919091526060610160830152819081526020015f81526020015f81526020015f81526020015f6001600160a01b031681525090565b6113de8383611971565b61140c5760405162f570a360e41b81526001600160a01b0383166004820152602481018490526044016105bb565b5f8381526039602090815260409182902082516101808101845281546001600160a01b0390811660a08301908152600184015490911660c0830152600283015460e08301526003830154610100830152600483015461012083015260058301546101408301526006830180548651818702810187019097528087529295939486949293869361016087019390929091908301828280156114c957602002820191905f5260205f20905b8154815260200190600101908083116114b5575b505050919092525050508152600782015460209091019060ff1660038111156114f4576114f46133a2565b6003811115611505576115056133a2565b81526008820154602082015260098201546040820152600a909101546001600160a01b03166060909101529392505050565b8061154181611af0565b5f546001600160a01b03166342f6e38961155961180f565b6040516001600160e01b031960e084901b1681526001600160a01b039091166004820152602401602060405180830381865afa15801561159b573d5f803e3d5ffd5b505050506040513d601f19601f820116820180604052508101906115bf91906136f9565b6115dc57604051633c9fdabb60e01b815260040160405180910390fd5b6060826001600160a01b031663c0231ff66040518163ffffffff1660e01b81526004015f604051808303815f875af115801561161a573d5f803e3d5ffd5b505050506040513d5f823e601f3d908101601f1916820160405261164191908101906137e4565b505080519091505f5b8181101561167e5761167583828151811061166757611667613944565b602002602001015186611d87565b5060010161164a565b5061168884611fe2565b50505050565b6001600160a01b0381165f90815260386020526040812054606091036116c657604080515f80825260208201909252905b5092915050565b6001600160a01b0382165f9081526038602052604081205467ffffffffffffffff8111156116f6576116f66131c7565b60405190808252806020026020018201604052801561171f578160200160208202803683370190505b506001600160a01b0384165f908152603860205260408120919250908190611748905f19611b5e565b90505b5f1981146117a85780838361175f8161396c565b94508151811061177157611771613944565b6020908102919091018101919091526001600160a01b0386165f9081526038909152604090206117a19082611b5e565b905061174b565b50909392505050565b6001600160a01b0381165f9081526038602052604081206001015461046d565b5f61046d826120ce565b5f6001600160e01b0319821663e328951160e01b148061046d57506301ffc9a760e01b6001600160e01b031983161461046d565b5f36601461181c33610b1d565b80156118285750808210155b15611857575f366118398385613984565b611844928290613997565b61184d916139be565b60601c9250505090565b339250505090565b5f8054906101000a90046001600160a01b03166001600160a01b031663d09edf316040518163ffffffff1660e01b8152600401602060405180830381865afa1580156118ad573d5f803e3d5ffd5b505050506040513d601f19601f820116820180604052508101906118d1919061363e565b60405163a883867d60e01b8152600481018490526001600160a01b038381166024830152919091169063a883867d90604401602060405180830381865afa15801561191e573d5f803e3d5ffd5b505050506040513d601f19601f8201168201806040525081019061194291906136f9565b610d99576040516342abbb7760e01b8152600481018390526001600160a01b03821660248201526044016105bb565b5f828152603960205260408120600a8101546001600160a01b0384811691161480156119a05750600981015415155b949350505050565b5f82815260396020526040902060078101546119c990849060ff1684612162565b5060078101805483919060ff191660018360038111156119eb576119eb6133a2565b02179055506119f861180f565b600a8201546040516001600160a01b03928316929091169085907f3a75e4822574db6690013a0aac0ea63058130a6f327921c57c63d54d26ffe1fe90611a3f9087906139f1565b60405180910390a4505050565b6001600160a01b038085165f908152603b602090815260408083208785168452825280832093861683529290529081208054839290611a8c9084906139ff565b909155505050505050565b5f818152603960209081526040808320600a01546001600160a01b031680845260389092528220909190611acb908461222e565b6001600160a01b0383165f9081526038602052604090209091506110489082856122fe565b6001600160a01b038116611b225760405163e81c62c560e01b81526001600160a01b03821660048201526024016105bb565b611b2a61180f565b6001600160a01b0316816001600160a01b031614611b5b5760405163c0cbb5a760e01b815260040160405180910390fd5b50565b5f818152600283016020526040812054839083908303611b9157604051637bfea7d960e11b815260040160405180910390fd5b5f84815260028601602052604090205492505b505092915050565b5f815f015182606001518360800151604051602001611bcd93929190613a12565b604051602081830303815290604052805190602001209050919050565b6001600160a01b038381165f908152603b602090815260408083208685168085529083528184209486168452939091528120805491905590611c2e903084846123ab565b826001600160a01b0316826001600160a01b03167f3737f2a73c794dafe53d8aeea06810a9ebcf7167401b259406960e088e03f83083604051611c7391815260200190565b60405180910390a350505050565b611c89612405565b6001600160a01b038216611cb057604051637280679360e01b815260040160405180910390fd5b5f805473ffffffffffffffffffffffffffffffffffffffff19166001600160a01b038416179055611ce081612455565b611cfd57604051637511254160e01b815260040160405180910390fd5b80516001908155602082015160025560408201516003556060820151829190600490611d299082613a87565b5060808201516004820190611d3e9082613a87565b50905050816001600160a01b03167fd5f3f84c2e1816ce290af84d002663800b02f2985d770cdd335de76fd723b73082604051611d7b9190613b47565b60405180910390a25050565b5f611d91836120ce565b611db95760405163e7f9afc560e01b81526001600160a01b03831660048201526024016105bb565b611dcb8360a001518460c001516124af565b6040805160a0810190915284815290915060208101600281526020808201849052426040808401919091526001600160a01b038087166060948501525f8681526039845282902085518051825490841673ffffffffffffffffffffffffffffffffffffffff1991821617835581860151600184018054919095169116179092559181015160028301559283015160038201556080830151600482015560a0830151600582015560c083015180519193928492611e8d9260068501920190612fbc565b505050602082015160078201805460ff19166001836003811115611eb357611eb36133a2565b0217905550604082810151600883015560608301516009830155608090920151600a909101805473ffffffffffffffffffffffffffffffffffffffff19166001600160a01b0392831617905583165f908152603860205220545f03611f49576001600160a01b0382165f908152603860205260409020611f49905f195f8181526002830160205260409020819055600190910155565b6001600160a01b0382165f908152603860205260409020611f6a90826124f1565b6001600160a01b038281165f818152603a60209081526040918290208590558681015187518884015160a08a015185519687529386015292840191909152831692169083907fa837d772ba58992214e1080aef87032a8931dc3830ced0782c40f6fa21dc79a79060600160405180910390a492915050565b80611fec81611af0565b6001600160a01b0382165f90815260386020526040812061200e905f19611b5e565b90505f1981036120315760405163578cb8d960e01b815260040160405180910390fd5b5f5b5f198214158015612048575061204884612563565b15612082576120568161396c565b6001600160a01b0385165f90815260386020526040902090915061207b905f19611b5e565b9150612033565b836001600160a01b031661209461180f565b6001600160a01b03167f635cdafb2aeaf06f68681649c1e9be54e7bb8eb1e6db5047a084c10edb0ff6da83604051611c7391815260200190565b5f806120e28360a001518460c001516124af565b90506120f0835f015161262d565b80156120ff5750604083015115155b801561211057506121108133612771565b8015612124575061212483602001516127a8565b80156121335750606083015146145b80156121425750608083015146145b801561215b575061215b8360a001518460c00151612837565b9392505050565b5f80836003811115612176576121766133a2565b148061219357506001836003811115612191576121916133a2565b145b156121b7578383836040516316e4f2ed60e31b81526004016105bb93929190613b9d565b5f8260038111156121ca576121ca6133a2565b14806121e7575060018260038111156121e5576121e56133a2565b145b15612224576002836003811115612200576122006133a2565b14612224578383836040516316e4f2ed60e31b81526004016105bb93929190613b9d565b5060019392505050565b5f81815260028301602052604081205483908390830361226157604051637bfea7d960e11b815260040160405180910390fd5b5f1984036122755784600101549250611ba4565b5f61227f86612888565b80519091505f5b818110156122f357868382815181106122a1576122a1613944565b6020026020010151036122eb57805f036122bc575f196122e1565b826122c8600183613984565b815181106122d8576122d8613944565b60200260200101515b9550505050611ba4565b600101612286565b505050505092915050565b828161230a8282612933565b61232757604051638f454d2d60e01b815260040160405180910390fd5b5f848152600286016020526040902054859085908590811461235c57604051633065847560e01b815260040160405180910390fd5b5f86815260028901602052604080822080548a845291832091909155878252819055885490899061238c83613bbe565b919050555087600101548603610d855750505050506001929092015550565b604080516001600160a01b0385811660248301528416604482015260648082018490528251808303909101815260849091019091526020810180516001600160e01b03166323b872dd60e01b179052611688908590612956565b7ff0c57e16840df040f15088dc2f81fe391c3923bec73e23a9662efc9c229c6a005468010000000000000000900460ff1661245357604051631afcd79f60e31b815260040160405180910390fd5b565b5f8160600151515f0361246957505f919050565b8160800151515f0361247c57505f919050565b815115801561248d57506020820151155b801561249b57506040820151155b156124a757505f919050565b506001919050565b5f600183161580159081906124c45750825115155b156116bf57825f60ff16815181106124de576124de613944565b60200260200101515f1c91505092915050565b81816124fd8282612933565b80612506575080155b156125245760405163582fbbaf60e01b815260040160405180910390fd5b6001840180545f90815260028601602052604080822086905585825281205f1990559084905584549085906125588361396c565b919050555050505050565b5f8161256e81611af0565b6001600160a01b0383165f908152603860205260408120612590905f19611b5e565b90505f1981036125a3575f925050612627565b5f8181526039602052604090206002600782015460ff1660038111156125cb576125cb6133a2565b146125e3576125d982611a97565b5f93505050612627565b6001810154600a8201546002830154612609926001600160a01b039081169216906129b7565b612618576125d98260016119a8565b6126228282612aab565b935050505b50919050565b5f6001600160a01b038216158061265c575061264761180f565b6001600160a01b0316826001600160a01b0316145b8061266f57506001600160a01b03821630145b8061268657505f546001600160a01b038381169116145b8061276a57505f546001600160a01b03166001600160a01b03166304baed9e6040518163ffffffff1660e01b8152600401602060405180830381865afa1580156126d2573d5f803e3d5ffd5b505050506040513d601f19601f820116820180604052508101906126f6919061363e565b6001600160a01b031663fc0c546a6040518163ffffffff1660e01b8152600401602060405180830381865afa158015612731573d5f803e3d5ffd5b505050506040513d601f19601f82011682018060405250810190612755919061363e565b6001600160a01b0316826001600160a01b0316145b1592915050565b5f808311801561215b57506001600160a01b0382165f908152603a602052604090205461279f9060016139ff565b83149392505050565b5f6001600160a01b0382166127be57505f919050565b6040516370a0823160e01b81523060048201526001600160a01b038316906370a0823190602401602060405180830381865afa92505050801561281e575060408051601f3d908101601f1916820190925261281b91810190613659565b60015b61282957505f919050565b50600192915050565b919050565b5f8281805b60088160ff16101561286c57600160ff82161b83161561286457816128608161396c565b9250505b60010161283c565b5080845114801561287f57506001821615155b95945050505050565b60605f825f015467ffffffffffffffff8111156128a7576128a76131c7565b6040519080825280602002602001820160405280156128d0578160200160208202803683370190505b505f195f908152600285016020526040812054919250905b5f1981146117a8578083838151811061290357612903613944565b6020908102919091018101919091525f91825260028601905260409020548161292b8161396c565b9250506128e8565b5f8181526002830160205260408120541580159061215b5750505f191415919050565b5f61296a6001600160a01b03841683612eba565b905080515f1415801561298e57508080602001905181019061298c91906136f9565b155b1561104857604051635274afe760e01b81526001600160a01b03841660048201526024016105bb565b6040516370a0823160e01b81526001600160a01b0383811660048301525f9185918491908316906370a0823190602401602060405180830381865afa158015612a02573d5f803e3d5ffd5b505050506040513d601f19601f82011682018060405250810190612a269190613659565b1015801561287f5750604051636eb1769f60e11b81526001600160a01b03858116600483015230602483015284919083169063dd62ed3e90604401602060405180830381865afa158015612a7c573d5f803e3d5ffd5b505050506040513d601f19601f82011682018060405250810190612aa09190613659565b101595945050505050565b6001810154600a82015482546002840154604080516001600160a01b039485166024820152928416604484015260648084019290925280518084039092018252608490920182526020810180516001600160e01b03166323b872dd60e01b17905290515f9384938493911691612b219190613bd3565b5f604051808303815f865af19150503d805f8114612b5a576040519150601f19603f3d011682016040523d82523d5f602084013e612b5f565b606091505b5091509150818015612b89575080511580612b89575080806020019051810190612b8991906136f9565b8015612ba2575060018401546001600160a01b03163b15155b15612c8157612bb1855f6119a8565b612bba85611a97565b600a84015460018501546002860154604051631667d8c360e31b81526001600160a01b039283166004820152602481019190915291169063b33ec618906044015f604051808303815f87803b158015612c11575f80fd5b505af1158015612c23573d5f803e3d5ffd5b505050506001840154845460028601546040519081526001600160a01b0392831692909116907f3737f2a73c794dafe53d8aeea06810a9ebcf7167401b259406960e088e03f8309060200160405180910390a360019250505061046d565b6001840154600a8501546002860154604080516001600160a01b0393841660248201523060448201526064808201939093528151808203909301835260840181526020820180516001600160e01b03166323b872dd60e01b179052515f9384931691612cec91613bd3565b5f604051808303815f865af19150503d805f8114612d25576040519150601f19603f3d011682016040523d82523d5f602084013e612d2a565b606091505b509150915081612d8057600a86015486546001880154600289015460405162037f9b60ed1b81526001600160a01b03948516600482015292841660248401529216604482015260648101919091526084016105bb565b600a86015460018701546002880154604051631667d8c360e31b81526001600160a01b039283166004820152602481019190915291169063b33ec618906044015f604051808303815f87803b158015612dd7575f80fd5b505af1158015612de9573d5f803e3d5ffd5b5050506002870154600a8801546001600160a01b039081165f908152603b6020908152604080832060018d01548516845282528083208c549094168352929052908120805492935091612e3d9084906139ff565b909155505085546001870154600a88015460028901546040519081526001600160a01b039384169392831692909116907fbff6d112ab4c9d4a5f437492b210126678d87e510e41c7d8650c660302fb06b09060200160405180910390a4612ea58760036119a8565b612eae87611a97565b5f94505050505061046d565b606061215b83835f845f80856001600160a01b03168486604051612ede9190613bd3565b5f6040518083038185875af1925050503d805f8114612f18576040519150601f19603f3d011682016040523d82523d5f602084013e612f1d565b606091505b5091509150612f2d868383612f37565b9695505050505050565b606082612f4c57612f4782612f93565b61215b565b8151158015612f6357506001600160a01b0384163b155b15612f8c57604051639996b31560e01b81526001600160a01b03851660048201526024016105bb565b508061215b565b805115612fa35780518082602001fd5b604051630a12f52160e11b815260040160405180910390fd5b828054828255905f5260205f20908101928215612ff5579160200282015b82811115612ff5578251825591602001919060010190612fda565b50613001929150613005565b5090565b5b80821115613001575f8155600101613006565b5f60208284031215613029575f80fd5b81356001600160e01b03198116811461215b575f80fd5b6001600160a01b0381168114611b5b575f80fd5b5f8060408385031215613065575f80fd5b82359150602083013561307781613040565b809150509250929050565b5f805f60408486031215613094575f80fd5b83359250602084013567ffffffffffffffff808211156130b2575f80fd5b818601915086601f8301126130c5575f80fd5b8135818111156130d3575f80fd5b8760208260051b85010111156130e7575f80fd5b6020830194508093505050509250925092565b5f5b838110156131145781810151838201526020016130fc565b50505f910152565b5f81518084526131338160208601602086016130fa565b601f01601f19169290920160200192915050565b602081525f61215b602083018461311c565b803561283281613040565b5f60208284031215613174575f80fd5b813561215b81613040565b5f805f60608486031215613191575f80fd5b833561319c81613040565b925060208401356131ac81613040565b915060408401356131bc81613040565b809150509250925092565b634e487b7160e01b5f52604160045260245ffd5b60405160a0810167ffffffffffffffff811182821017156131fe576131fe6131c7565b60405290565b60405160e0810167ffffffffffffffff811182821017156131fe576131fe6131c7565b604051601f8201601f1916810167ffffffffffffffff81118282101715613250576132506131c7565b604052919050565b5f82601f830112613267575f80fd5b813567ffffffffffffffff811115613281576132816131c7565b613294601f8201601f1916602001613227565b8181528460208386010111156132a8575f80fd5b816020850160208301375f918101602001919091529392505050565b5f805f606084860312156132d6575f80fd5b83356132e181613040565b9250602084013567ffffffffffffffff808211156132fd575f80fd5b9085019060a08288031215613310575f80fd5b6133186131db565b823581526020830135602082015260408301356040820152606083013582811115613341575f80fd5b61334d89828601613258565b606083015250608083013582811115613364575f80fd5b61337089828601613258565b6080830152509350604086013591508082111561338b575f80fd5b5061339886828701613258565b9150509250925092565b634e487b7160e01b5f52602160045260245ffd5b600481106133d257634e487b7160e01b5f52602160045260245ffd5b9052565b5f6020808352835160a0828501526101a084016001600160a01b038083511660c087015280848401511660e08701525060408201516101008601526060820151610120860152608082015161014086015260a082015161016086015260c0820151915060e06101808601528082518083526101c08701915084840193505f92505b808310156134775783518252928401926001929092019190840190613457565b50928601519261348a60408701856133b6565b604087015160608701526060870151608087015260808701519350612f2d60a08701856001600160a01b03169052565b602080825282518282018190525f9190848201906040850190845b818110156134f1578351835292840192918401916001016134d5565b50909695505050505050565b5f67ffffffffffffffff821115613516576135166131c7565b5060051b60200190565b5f82601f83011261352f575f80fd5b8135602061354461353f836134fd565b613227565b8083825260208201915060208460051b870101935086841115613565575f80fd5b602086015b84811015613581578035835291830191830161356a565b509695505050505050565b5f6020828403121561359c575f80fd5b813567ffffffffffffffff808211156135b3575f80fd5b9083019060e082860312156135c6575f80fd5b6135ce613204565b6135d783613159565b81526135e560208401613159565b602082015260408301356040820152606083013560608201526080830135608082015260a083013560a082015260c083013582811115613623575f80fd5b61362f87828601613520565b60c08301525095945050505050565b5f6020828403121561364e575f80fd5b815161215b81613040565b5f60208284031215613669575f80fd5b5051919050565b838152604060208083018290529082018390525f90849060608401835b868110156136bb5783356136a081613040565b6001600160a01b03168252928201929082019060010161368d565b50979650505050505050565b600181811c908216806136db57607f821691505b60208210810361262757634e487b7160e01b5f52602260045260245ffd5b5f60208284031215613709575f80fd5b8151801515811461215b575f80fd5b805161283281613040565b5f82601f830112613732575f80fd5b8151602061374261353f836134fd565b8083825260208201915060208460051b870101935086841115613763575f80fd5b602086015b848110156135815780518352918301918301613768565b5f82601f83011261378e575f80fd5b8151602061379e61353f836134fd565b8083825260208201915060208460051b8701019350868411156137bf575f80fd5b602086015b848110156135815780516137d781613040565b83529183019183016137c4565b5f805f606084860312156137f6575f80fd5b835167ffffffffffffffff8082111561380d575f80fd5b818601915086601f830112613820575f80fd5b8151602061383061353f836134fd565b82815260059290921b8401810191818101908a84111561384e575f80fd5b8286015b848110156138fd57805186811115613868575f80fd5b870160e0818e03601f1901121561387d575f80fd5b613885613204565b613890868301613718565b815261389e60408301613718565b86820152606082015160408201526080820151606082015260a0820151608082015260c082015160a082015260e0820151888111156138db575f80fd5b6138e98f8883860101613723565b60c083015250845250918301918301613852565b5091890151919750909350505080821115613916575f80fd5b6139228783880161377f565b93506040860151915080821115613937575f80fd5b5061339886828701613723565b634e487b7160e01b5f52603260045260245ffd5b634e487b7160e01b5f52601160045260245ffd5b5f6001820161397d5761397d613958565b5060010190565b8181038181111561046d5761046d613958565b5f80858511156139a5575f80fd5b838611156139b1575f80fd5b5050820193919092039150565b6bffffffffffffffffffffffff198135818116916014851015611ba45760149490940360031b84901b1690921692915050565b6020810161046d82846133b6565b8082018082111561046d5761046d613958565b838152606060208201525f613a2a606083018561311c565b8281036040840152612f2d818561311c565b601f82111561104857805f5260205f20601f840160051c81016020851015613a615750805b601f840160051c820191505b81811015613a80575f8155600101613a6d565b5050505050565b815167ffffffffffffffff811115613aa157613aa16131c7565b613ab581613aaf84546136c7565b84613a3c565b602080601f831160018114613ae8575f8415613ad15750858301515b5f19600386901b1c1916600185901b178555613b3f565b5f85815260208120601f198616915b82811015613b1657888601518255948401946001909101908401613af7565b5085821015613b3357878501515f19600388901b60f8161c191681555b505060018460011b0185555b505050505050565b602081528151602082015260208201516040820152604082015160608201525f606083015160a06080840152613b8060c084018261311c565b90506080840151601f198483030160a085015261287f828261311c565b83815260608101613bb160208301856133b6565b6119a060408301846133b6565b5f81613bcc57613bcc613958565b505f190190565b5f8251613be48184602087016130fa565b919091019291505056fea264697066735822122044aa0334230d1a227bc0de62b05334c9b9f0aba5c1125fb12edf50834f077fcd64736f6c63430008170033",
    "linkReferences": {}
  },
  "methodIdentifiers": {
    "cancelPaymentOrderThroughQueueId(uint256,address)": "195254ad",
    "cancelRunningPayments(address)": "73d7764e",
    "claimPreviouslyUnclaimable(address,address,address)": "81ac0367",
    "getOrder(uint256,address)": "cbbfe168",
    "getOrderQueue(address)": "ee8b4f94",
    "getQueueHead(address)": "75a2dc05",
    "getQueueOperatorAdminRole()": "6dd5032a",
    "getQueueOperatorRole()": "aca51e3e",
    "getQueueSizeForClient(address)": "9b5674ab",
    "getQueueTail(address)": "f14ba610",
    "grantModuleRole(bytes32,address)": "6c67e807",
    "grantModuleRoleBatched(bytes32,address[])": "272bbd44",
    "identifier()": "7998a1c4",
    "init(address,(uint256,uint256,uint256,string,string),bytes)": "b66a870c",
    "isTrustedForwarder(address)": "572b6c05",
    "orchestrator()": "b74795d9",
    "processPayments(address)": "e151fc61",
    "revokeModuleRole(bytes32,address)": "bcb61920",
    "revokeModuleRoleBatched(bytes32,address[])": "24e30270",
    "supportsInterface(bytes4)": "01ffc9a7",
    "title()": "4a79d50c",
    "trustedForwarder()": "7da0a877",
    "unclaimable(address,address,address)": "ceb43f54",
    "url()": "5600f04f",
    "validPaymentOrder((address,address,uint256,uint256,uint256,bytes32,bytes32[]))": "f7698285",
    "version()": "54fd4d50"
  },
  "id": 167
}