{
  "abi": [
    {
      "type": "function",
      "name": "cancelPaymentOrderThroughQueueId",
      "inputs": [
        {
          "name": "orderId_",
          "type": "uint256",
          "internalType": "uint256"
        },
        {
          "name": "client_",
          "type": "address",
          "internalType": "contract IERC20PaymentClientBase_v2"
        }
      ],
      "outputs": [
        {
          "name": "success_",
          "type": "bool",
          "internalType": "bool"
        }
      ],
      "stateMutability": "nonpayable"
    },
    {
      "type": "function",
      "name": "cancelRunningPayments",
      "inputs": [
        {
          "name": "client_",
          "type": "address",
          "internalType": "contract IERC20PaymentClientBase_v2"
        }
      ],
      "outputs": [],
      "stateMutability": "view"
    },
    {
      "type": "function",
      "name": "claimPreviouslyUnclaimable",
      "inputs": [
        {
          "name": "client_",
          "type": "address",
          "internalType": "address"
        },
        {
          "name": "token_",
          "type": "address",
          "internalType": "address"
        },
        {
          "name": "receiver_",
          "type": "address",
          "internalType": "address"
        }
      ],
      "outputs": [],
      "stateMutability": "nonpayable"
    },
    {
      "type": "function",
      "name": "claimPreviouslyUnclaimableToTreasury",
      "inputs": [
        {
          "name": "client_",
          "type": "address",
          "internalType": "address"
        },
        {
          "name": "token_",
          "type": "address",
          "internalType": "address"
        },
        {
          "name": "receiver_",
          "type": "address",
          "internalType": "address"
        }
      ],
      "outputs": [],
      "stateMutability": "nonpayable"
    },
    {
      "type": "function",
      "name": "getCanceledOrdersTreasury",
      "inputs": [],
      "outputs": [
        {
          "name": "treasury_",
          "type": "address",
          "internalType": "address"
        }
      ],
      "stateMutability": "view"
    },
    {
      "type": "function",
      "name": "getFailedOrdersTreasury",
      "inputs": [],
      "outputs": [
        {
          "name": "treasury_",
          "type": "address",
          "internalType": "address"
        }
      ],
      "stateMutability": "view"
    },
    {
      "type": "function",
      "name": "getOrder",
      "inputs": [
        {
          "name": "orderId_",
          "type": "uint256",
          "internalType": "uint256"
        },
        {
          "name": "client_",
          "type": "address",
          "internalType": "contract IERC20PaymentClientBase_v2"
        }
      ],
      "outputs": [
        {
          "name": "order_",
          "type": "tuple",
          "internalType": "struct IPP_Queue_v1.QueuedOrder",
          "components": [
            {
              "name": "order_",
              "type": "tuple",
              "internalType": "struct IERC20PaymentClientBase_v2.PaymentOrder",
              "components": [
                {
                  "name": "recipient",
                  "type": "address",
                  "internalType": "address"
                },
                {
                  "name": "paymentToken",
                  "type": "address",
                  "internalType": "address"
                },
                {
                  "name": "amount",
                  "type": "uint256",
                  "internalType": "uint256"
                },
                {
                  "name": "originChainId",
                  "type": "uint256",
                  "internalType": "uint256"
                },
                {
                  "name": "targetChainId",
                  "type": "uint256",
                  "internalType": "uint256"
                },
                {
                  "name": "flags",
                  "type": "bytes32",
                  "internalType": "bytes32"
                },
                {
                  "name": "data",
                  "type": "bytes32[]",
                  "internalType": "bytes32[]"
                }
              ]
            },
            {
              "name": "state_",
              "type": "uint8",
              "internalType": "enum IPP_Queue_v1.RedemptionState"
            },
            {
              "name": "orderId_",
              "type": "uint256",
              "internalType": "uint256"
            },
            {
              "name": "timestamp_",
              "type": "uint256",
              "internalType": "uint256"
            },
            {
              "name": "client_",
              "type": "address",
              "internalType": "address"
            }
          ]
        }
      ],
      "stateMutability": "view"
    },
    {
      "type": "function",
      "name": "getOrderQueue",
      "inputs": [
        {
          "name": "client_",
          "type": "address",
          "internalType": "address"
        }
      ],
      "outputs": [
        {
          "name": "queue_",
          "type": "uint256[]",
          "internalType": "uint256[]"
        }
      ],
      "stateMutability": "view"
    },
    {
      "type": "function",
      "name": "getQueueHead",
      "inputs": [
        {
          "name": "client_",
          "type": "address",
          "internalType": "address"
        }
      ],
      "outputs": [
        {
          "name": "head_",
          "type": "uint256",
          "internalType": "uint256"
        }
      ],
      "stateMutability": "view"
    },
    {
      "type": "function",
      "name": "getQueueOperatorRole",
      "inputs": [],
      "outputs": [
        {
          "name": "role_",
          "type": "bytes32",
          "internalType": "bytes32"
        }
      ],
      "stateMutability": "pure"
    },
    {
      "type": "function",
      "name": "getQueueOperatorRoleAdmin",
      "inputs": [],
      "outputs": [
        {
          "name": "role_",
          "type": "bytes32",
          "internalType": "bytes32"
        }
      ],
      "stateMutability": "pure"
    },
    {
      "type": "function",
      "name": "getQueueSizeForClient",
      "inputs": [
        {
          "name": "client_",
          "type": "address",
          "internalType": "address"
        }
      ],
      "outputs": [
        {
          "name": "size_",
          "type": "uint256",
          "internalType": "uint256"
        }
      ],
      "stateMutability": "view"
    },
    {
      "type": "function",
      "name": "getQueueTail",
      "inputs": [
        {
          "name": "client_",
          "type": "address",
          "internalType": "address"
        }
      ],
      "outputs": [
        {
          "name": "tail_",
          "type": "uint256",
          "internalType": "uint256"
        }
      ],
      "stateMutability": "view"
    },
    {
      "type": "function",
      "name": "grantModuleRole",
      "inputs": [
        {
          "name": "role",
          "type": "bytes32",
          "internalType": "bytes32"
        },
        {
          "name": "target",
          "type": "address",
          "internalType": "address"
        }
      ],
      "outputs": [],
      "stateMutability": "nonpayable"
    },
    {
      "type": "function",
      "name": "grantModuleRoleBatched",
      "inputs": [
        {
          "name": "role",
          "type": "bytes32",
          "internalType": "bytes32"
        },
        {
          "name": "targets",
          "type": "address[]",
          "internalType": "address[]"
        }
      ],
      "outputs": [],
      "stateMutability": "nonpayable"
    },
    {
      "type": "function",
      "name": "identifier",
      "inputs": [],
      "outputs": [
        {
          "name": "",
          "type": "bytes32",
          "internalType": "bytes32"
        }
      ],
      "stateMutability": "view"
    },
    {
      "type": "function",
      "name": "init",
      "inputs": [
        {
          "name": "orchestrator_",
          "type": "address",
          "internalType": "contract IOrchestrator_v1"
        },
        {
          "name": "metadata_",
          "type": "tuple",
          "internalType": "struct IModule_v1.Metadata",
          "components": [
            {
              "name": "majorVersion",
              "type": "uint256",
              "internalType": "uint256"
            },
            {
              "name": "minorVersion",
              "type": "uint256",
              "internalType": "uint256"
            },
            {
              "name": "patchVersion",
              "type": "uint256",
              "internalType": "uint256"
            },
            {
              "name": "url",
              "type": "string",
              "internalType": "string"
            },
            {
              "name": "title",
              "type": "string",
              "internalType": "string"
            }
          ]
        },
        {
          "name": "configData_",
          "type": "bytes",
          "internalType": "bytes"
        }
      ],
      "outputs": [],
      "stateMutability": "nonpayable"
    },
    {
      "type": "function",
      "name": "isTrustedForwarder",
      "inputs": [
        {
          "name": "forwarder",
          "type": "address",
          "internalType": "address"
        }
      ],
      "outputs": [
        {
          "name": "",
          "type": "bool",
          "internalType": "bool"
        }
      ],
      "stateMutability": "view"
    },
    {
      "type": "function",
      "name": "orchestrator",
      "inputs": [],
      "outputs": [
        {
          "name": "",
          "type": "address",
          "internalType": "contract IOrchestrator_v1"
        }
      ],
      "stateMutability": "view"
    },
    {
      "type": "function",
      "name": "processPayments",
      "inputs": [
        {
          "name": "client_",
          "type": "address",
          "internalType": "contract IERC20PaymentClientBase_v2"
        }
      ],
      "outputs": [],
      "stateMutability": "nonpayable"
    },
    {
      "type": "function",
      "name": "revokeModuleRole",
      "inputs": [
        {
          "name": "role",
          "type": "bytes32",
          "internalType": "bytes32"
        },
        {
          "name": "target",
          "type": "address",
          "internalType": "address"
        }
      ],
      "outputs": [],
      "stateMutability": "nonpayable"
    },
    {
      "type": "function",
      "name": "revokeModuleRoleBatched",
      "inputs": [
        {
          "name": "role",
          "type": "bytes32",
          "internalType": "bytes32"
        },
        {
          "name": "targets",
          "type": "address[]",
          "internalType": "address[]"
        }
      ],
      "outputs": [],
      "stateMutability": "nonpayable"
    },
    {
      "type": "function",
      "name": "setCanceledOrdersTreasury",
      "inputs": [
        {
          "name": "treasury_",
          "type": "address",
          "internalType": "address"
        }
      ],
      "outputs": [],
      "stateMutability": "nonpayable"
    },
    {
      "type": "function",
      "name": "setFailedOrdersTreasury",
      "inputs": [
        {
          "name": "treasury_",
          "type": "address",
          "internalType": "address"
        }
      ],
      "outputs": [],
      "stateMutability": "nonpayable"
    },
    {
      "type": "function",
      "name": "supportsInterface",
      "inputs": [
        {
          "name": "interfaceId_",
          "type": "bytes4",
          "internalType": "bytes4"
        }
      ],
      "outputs": [
        {
          "name": "supported_",
          "type": "bool",
          "internalType": "bool"
        }
      ],
      "stateMutability": "view"
    },
    {
      "type": "function",
      "name": "title",
      "inputs": [],
      "outputs": [
        {
          "name": "",
          "type": "string",
          "internalType": "string"
        }
      ],
      "stateMutability": "view"
    },
    {
      "type": "function",
      "name": "trustedForwarder",
      "inputs": [],
      "outputs": [
        {
          "name": "",
          "type": "address",
          "internalType": "address"
        }
      ],
      "stateMutability": "view"
    },
    {
      "type": "function",
      "name": "unclaimable",
      "inputs": [
        {
          "name": "client_",
          "type": "address",
          "internalType": "address"
        },
        {
          "name": "token_",
          "type": "address",
          "internalType": "address"
        },
        {
          "name": "paymentReceiver_",
          "type": "address",
          "internalType": "address"
        }
      ],
      "outputs": [
        {
          "name": "amount_",
          "type": "uint256",
          "internalType": "uint256"
        }
      ],
      "stateMutability": "view"
    },
    {
      "type": "function",
      "name": "url",
      "inputs": [],
      "outputs": [
        {
          "name": "",
          "type": "string",
          "internalType": "string"
        }
      ],
      "stateMutability": "view"
    },
    {
      "type": "function",
      "name": "validPaymentOrder",
      "inputs": [
        {
          "name": "order_",
          "type": "tuple",
          "internalType": "struct IERC20PaymentClientBase_v2.PaymentOrder",
          "components": [
            {
              "name": "recipient",
              "type": "address",
              "internalType": "address"
            },
            {
              "name": "paymentToken",
              "type": "address",
              "internalType": "address"
            },
            {
              "name": "amount",
              "type": "uint256",
              "internalType": "uint256"
            },
            {
              "name": "originChainId",
              "type": "uint256",
              "internalType": "uint256"
            },
            {
              "name": "targetChainId",
              "type": "uint256",
              "internalType": "uint256"
            },
            {
              "name": "flags",
              "type": "bytes32",
              "internalType": "bytes32"
            },
            {
              "name": "data",
              "type": "bytes32[]",
              "internalType": "bytes32[]"
            }
          ]
        }
      ],
      "outputs": [
        {
          "name": "isValid_",
          "type": "bool",
          "internalType": "bool"
        }
      ],
      "stateMutability": "view"
    },
    {
      "type": "function",
      "name": "version",
      "inputs": [],
      "outputs": [
        {
          "name": "",
          "type": "uint256",
          "internalType": "uint256"
        },
        {
          "name": "",
          "type": "uint256",
          "internalType": "uint256"
        },
        {
          "name": "",
          "type": "uint256",
          "internalType": "uint256"
        }
      ],
      "stateMutability": "view"
    },
    {
      "type": "event",
      "name": "Initialized",
      "inputs": [
        {
          "name": "version",
          "type": "uint64",
          "indexed": false,
          "internalType": "uint64"
        }
      ],
      "anonymous": false
    },
    {
      "type": "event",
      "name": "ModuleInitialized",
      "inputs": [
        {
          "name": "parentOrchestrator",
          "type": "address",
          "indexed": true,
          "internalType": "address"
        },
        {
          "name": "metadata",
          "type": "tuple",
          "indexed": false,
          "internalType": "struct IModule_v1.Metadata",
          "components": [
            {
              "name": "majorVersion",
              "type": "uint256",
              "internalType": "uint256"
            },
            {
              "name": "minorVersion",
              "type": "uint256",
              "internalType": "uint256"
            },
            {
              "name": "patchVersion",
              "type": "uint256",
              "internalType": "uint256"
            },
            {
              "name": "url",
              "type": "string",
              "internalType": "string"
            },
            {
              "name": "title",
              "type": "string",
              "internalType": "string"
            }
          ]
        }
      ],
      "anonymous": false
    },
    {
      "type": "event",
      "name": "PaymentOrderProcessed",
      "inputs": [
        {
          "name": "paymentClient",
          "type": "address",
          "indexed": true,
          "internalType": "address"
        },
        {
          "name": "recipient",
          "type": "address",
          "indexed": true,
          "internalType": "address"
        },
        {
          "name": "paymentToken",
          "type": "address",
          "indexed": true,
          "internalType": "address"
        },
        {
          "name": "amount",
          "type": "uint256",
          "indexed": false,
          "internalType": "uint256"
        },
        {
          "name": "originChainId",
          "type": "uint256",
          "indexed": false,
          "internalType": "uint256"
        },
        {
          "name": "targetChainId",
          "type": "uint256",
          "indexed": false,
          "internalType": "uint256"
        },
        {
          "name": "flags",
          "type": "bytes32",
          "indexed": false,
          "internalType": "bytes32"
        },
        {
          "name": "data",
          "type": "bytes32[]",
          "indexed": false,
          "internalType": "bytes32[]"
        }
      ],
      "anonymous": false
    },
    {
      "type": "event",
      "name": "PaymentOrderQueued",
      "inputs": [
        {
          "name": "orderId_",
          "type": "uint256",
          "indexed": true,
          "internalType": "uint256"
        },
        {
          "name": "recipient_",
          "type": "address",
          "indexed": true,
          "internalType": "address"
        },
        {
          "name": "token_",
          "type": "address",
          "indexed": true,
          "internalType": "address"
        },
        {
          "name": "client_",
          "type": "address",
          "indexed": false,
          "internalType": "address"
        },
        {
          "name": "amount_",
          "type": "uint256",
          "indexed": false,
          "internalType": "uint256"
        },
        {
          "name": "flags_",
          "type": "uint256",
          "indexed": false,
          "internalType": "uint256"
        }
      ],
      "anonymous": false
    },
    {
      "type": "event",
      "name": "PaymentOrderStateChanged",
      "inputs": [
        {
          "name": "orderId_",
          "type": "uint256",
          "indexed": true,
          "internalType": "uint256"
        },
        {
          "name": "state_",
          "type": "uint8",
          "indexed": false,
          "internalType": "enum IPP_Queue_v1.RedemptionState"
        },
        {
          "name": "client_",
          "type": "address",
          "indexed": true,
          "internalType": "address"
        },
        {
          "name": "executedBy_",
          "type": "address",
          "indexed": true,
          "internalType": "address"
        }
      ],
      "anonymous": false
    },
    {
      "type": "event",
      "name": "PaymentOrderTimingSkip",
      "inputs": [
        {
          "name": "orderId_",
          "type": "uint256",
          "indexed": true,
          "internalType": "uint256"
        },
        {
          "name": "client_",
          "type": "address",
          "indexed": true,
          "internalType": "address"
        },
        {
          "name": "reason_",
          "type": "uint8",
          "indexed": false,
          "internalType": "uint8"
        },
        {
          "name": "currentTime_",
          "type": "uint256",
          "indexed": false,
          "internalType": "uint256"
        }
      ],
      "anonymous": false
    },
    {
      "type": "event",
      "name": "PaymentQueueExecuted",
      "inputs": [
        {
          "name": "executor_",
          "type": "address",
          "indexed": true,
          "internalType": "address"
        },
        {
          "name": "client_",
          "type": "address",
          "indexed": true,
          "internalType": "address"
        },
        {
          "name": "count_",
          "type": "uint256",
          "indexed": false,
          "internalType": "uint256"
        }
      ],
      "anonymous": false
    },
    {
      "type": "event",
      "name": "ProtocolFeeTransferred",
      "inputs": [
        {
          "name": "token",
          "type": "address",
          "indexed": true,
          "internalType": "address"
        },
        {
          "name": "treasury",
          "type": "address",
          "indexed": true,
          "internalType": "address"
        },
        {
          "name": "feeAmount",
          "type": "uint256",
          "indexed": false,
          "internalType": "uint256"
        }
      ],
      "anonymous": false
    },
    {
      "type": "event",
      "name": "TokensReleased",
      "inputs": [
        {
          "name": "recipient",
          "type": "address",
          "indexed": true,
          "internalType": "address"
        },
        {
          "name": "token",
          "type": "address",
          "indexed": true,
          "internalType": "address"
        },
        {
          "name": "amount",
          "type": "uint256",
          "indexed": false,
          "internalType": "uint256"
        }
      ],
      "anonymous": false
    },
    {
      "type": "event",
      "name": "UnclaimableAmountAdded",
      "inputs": [
        {
          "name": "paymentClient",
          "type": "address",
          "indexed": true,
          "internalType": "address"
        },
        {
          "name": "token",
          "type": "address",
          "indexed": true,
          "internalType": "address"
        },
        {
          "name": "recipient",
          "type": "address",
          "indexed": true,
          "internalType": "address"
        },
        {
          "name": "amount",
          "type": "uint256",
          "indexed": false,
          "internalType": "uint256"
        }
      ],
      "anonymous": false
    },
    {
      "type": "event",
      "name": "UnclaimableAmountClaimedToTreasury",
      "inputs": [
        {
          "name": "originalReceiver_",
          "type": "address",
          "indexed": true,
          "internalType": "address"
        },
        {
          "name": "treasury_",
          "type": "address",
          "indexed": true,
          "internalType": "address"
        },
        {
          "name": "amount_",
          "type": "uint256",
          "indexed": true,
          "internalType": "uint256"
        },
        {
          "name": "queueOperator_",
          "type": "address",
          "indexed": false,
          "internalType": "address"
        }
      ],
      "anonymous": false
    },
    {
      "type": "error",
      "name": "AddressEmptyCode",
      "inputs": [
        {
          "name": "target",
          "type": "address",
          "internalType": "address"
        }
      ]
    },
    {
      "type": "error",
      "name": "AddressInsufficientBalance",
      "inputs": [
        {
          "name": "account",
          "type": "address",
          "internalType": "address"
        }
      ]
    },
    {
      "type": "error",
      "name": "FailedInnerCall",
      "inputs": []
    },
    {
      "type": "error",
      "name": "InvalidInitialization",
      "inputs": []
    },
    {
      "type": "error",
      "name": "Library__LinkedIdList__IdNotConsecutive",
      "inputs": []
    },
    {
      "type": "error",
      "name": "Library__LinkedIdList__InvalidId",
      "inputs": []
    },
    {
      "type": "error",
      "name": "Library__LinkedIdList__InvalidNewId",
      "inputs": []
    },
    {
      "type": "error",
      "name": "Library__LinkedIdList__InvalidPosition",
      "inputs": []
    },
    {
      "type": "error",
      "name": "Module_OrchestratorCallbackFailed",
      "inputs": [
        {
          "name": "funcSig",
          "type": "string",
          "internalType": "string"
        }
      ]
    },
    {
      "type": "error",
      "name": "Module_PP_Queue_PaymentFailed",
      "inputs": [
        {
          "name": "client_",
          "type": "address",
          "internalType": "address"
        },
        {
          "name": "recipient_",
          "type": "address",
          "internalType": "address"
        },
        {
          "name": "token_",
          "type": "address",
          "internalType": "address"
        },
        {
          "name": "amount_",
          "type": "uint256",
          "internalType": "uint256"
        }
      ]
    },
    {
      "type": "error",
      "name": "Module__CallerNotAuthorized",
      "inputs": [
        {
          "name": "role",
          "type": "bytes32",
          "internalType": "bytes32"
        },
        {
          "name": "caller",
          "type": "address",
          "internalType": "address"
        }
      ]
    },
    {
      "type": "error",
      "name": "Module__InvalidAddress",
      "inputs": []
    },
    {
      "type": "error",
      "name": "Module__InvalidMetadata",
      "inputs": []
    },
    {
      "type": "error",
      "name": "Module__InvalidOrchestratorAddress",
      "inputs": []
    },
    {
      "type": "error",
      "name": "Module__OnlyCallableByOrchestrator",
      "inputs": []
    },
    {
      "type": "error",
      "name": "Module__OnlyCallableByPaymentClient",
      "inputs": []
    },
    {
      "type": "error",
      "name": "Module__PP_Queue_EmptyQueue",
      "inputs": []
    },
    {
      "type": "error",
      "name": "Module__PP_Queue_FeeAmountToHigh",
      "inputs": [
        {
          "name": "amount_",
          "type": "uint256",
          "internalType": "uint256"
        }
      ]
    },
    {
      "type": "error",
      "name": "Module__PP_Queue_InvalidAmount",
      "inputs": [
        {
          "name": "amount_",
          "type": "uint256",
          "internalType": "uint256"
        }
      ]
    },
    {
      "type": "error",
      "name": "Module__PP_Queue_InvalidChainId",
      "inputs": [
        {
          "name": "originChainId_",
          "type": "uint256",
          "internalType": "uint256"
        },
        {
          "name": "targetChainId_",
          "type": "uint256",
          "internalType": "uint256"
        },
        {
          "name": "currentChainId_",
          "type": "uint256",
          "internalType": "uint256"
        }
      ]
    },
    {
      "type": "error",
      "name": "Module__PP_Queue_InvalidClientAddress",
      "inputs": [
        {
          "name": "client_",
          "type": "address",
          "internalType": "address"
        }
      ]
    },
    {
      "type": "error",
      "name": "Module__PP_Queue_InvalidConfig",
      "inputs": []
    },
    {
      "type": "error",
      "name": "Module__PP_Queue_InvalidFeeAmount",
      "inputs": [
        {
          "name": "amount_",
          "type": "uint256",
          "internalType": "uint256"
        }
      ]
    },
    {
      "type": "error",
      "name": "Module__PP_Queue_InvalidFlagsOrData",
      "inputs": [
        {
          "name": "flags_",
          "type": "bytes32",
          "internalType": "bytes32"
        },
        {
          "name": "dataLength_",
          "type": "uint256",
          "internalType": "uint256"
        }
      ]
    },
    {
      "type": "error",
      "name": "Module__PP_Queue_InvalidOrderId",
      "inputs": [
        {
          "name": "client_",
          "type": "address",
          "internalType": "address"
        },
        {
          "name": "orderId_",
          "type": "uint256",
          "internalType": "uint256"
        }
      ]
    },
    {
      "type": "error",
      "name": "Module__PP_Queue_InvalidRecipient",
      "inputs": [
        {
          "name": "recipient_",
          "type": "address",
          "internalType": "address"
        }
      ]
    },
    {
      "type": "error",
      "name": "Module__PP_Queue_InvalidState",
      "inputs": []
    },
    {
      "type": "error",
      "name": "Module__PP_Queue_InvalidStateTransition",
      "inputs": [
        {
          "name": "orderId_",
          "type": "uint256",
          "internalType": "uint256"
        },
        {
          "name": "currentState_",
          "type": "uint8",
          "internalType": "enum IPP_Queue_v1.RedemptionState"
        },
        {
          "name": "newState_",
          "type": "uint8",
          "internalType": "enum IPP_Queue_v1.RedemptionState"
        }
      ]
    },
    {
      "type": "error",
      "name": "Module__PP_Queue_InvalidTreasuryAddress",
      "inputs": [
        {
          "name": "treasury_",
          "type": "address",
          "internalType": "address"
        }
      ]
    },
    {
      "type": "error",
      "name": "Module__PP_Queue_OnlyCallableByClient",
      "inputs": []
    },
    {
      "type": "error",
      "name": "Module__PP_Queue_QueueOperationFailed",
      "inputs": [
        {
          "name": "client_",
          "type": "address",
          "internalType": "address"
        }
      ]
    },
    {
      "type": "error",
      "name": "Module__PP_Queue_Unauthorized",
      "inputs": []
    },
    {
      "type": "error",
      "name": "Module__PP_Queue_ZeroAmount",
      "inputs": []
    },
    {
      "type": "error",
      "name": "Module__PaymentProcessor__CannotCallOnOtherClientsOrders",
      "inputs": []
    },
    {
      "type": "error",
      "name": "Module__PaymentProcessor__NothingToClaim",
      "inputs": [
        {
          "name": "paymentClient",
          "type": "address",
          "internalType": "address"
        },
        {
          "name": "paymentReceiver",
          "type": "address",
          "internalType": "address"
        }
      ]
    },
    {
      "type": "error",
      "name": "Module__PaymentProcessor__OnlyCallableByModule",
      "inputs": []
    },
    {
      "type": "error",
      "name": "NotInitializing",
      "inputs": []
    },
    {
      "type": "error",
      "name": "SafeERC20FailedOperation",
      "inputs": [
        {
          "name": "token",
          "type": "address",
          "internalType": "address"
        }
      ]
    }
  ],
  "bytecode": {
    "object": "0x60a060405234801562000010575f80fd5b505f6080526200001f62000025565b620000d9565b7ff0c57e16840df040f15088dc2f81fe391c3923bec73e23a9662efc9c229c6a00805468010000000000000000900460ff1615620000765760405163f92ee8a960e01b815260040160405180910390fd5b80546001600160401b0390811614620000d65780546001600160401b0319166001600160401b0390811782556040519081527fc7f505b2f371ae2175ee4913f4499e1f2633a7b5936321eed1cdaeb6115181d29060200160405180910390a15b50565b608051614498620000ef5f395f50506144985ff3fe608060405234801561000f575f80fd5b50600436106101dc575f3560e01c80637998a1c411610109578063bcb619201161009e578063e151fc611161006e578063e151fc6114610459578063ee8b4f941461046c578063f14ba6101461048c578063f76982851461049f575f80fd5b8063bcb61920146103d3578063cbbfe168146103e6578063ceb43f5414610406578063df40044a14610448575f80fd5b80639b5674ab116100d95780639b5674ab14610381578063aca51e3e14610394578063b66a870c146103b0578063b74795d9146103c3575f80fd5b80637998a1c41461034b5780637ce59471146103535780637da0a8771461036657806381ac03671461036e575f80fd5b80634a79d50c1161017f578063572b6c051161014f578063572b6c05146102ff5780636c67e8071461031257806373d7764e1461032557806375a2dc0514610338575f80fd5b80634a79d50c146102995780634d45e9aa146102ae57806354fd4d50146102d35780635600f04f146102f7575f80fd5b8063195254ad116101ba578063195254ad1461024d57806324e3027014610260578063271e428314610273578063272bbd4414610286575f80fd5b806301ffc9a7146101e05780630e4eaa4f146102085780631720628214610238575b5f80fd5b6101f36101ee366004613801565b6104b2565b60405190151581526020015b60405180910390f35b7f51554555455f4f50455241544f525f524f4c455f41444d494e000000000000005b6040519081526020016101ff565b61024b610246366004613847565b6104f7565b005b6101f361025b366004613862565b6105db565b61024b61026e366004613890565b61088a565b61024b610281366004613908565b610ade565b61024b610294366004613890565b610c9a565b6102a1610e69565b6040516101ff919061399d565b603c546001600160a01b03165b6040516001600160a01b0390911681526020016101ff565b600154600254600354604080519384526020840192909252908201526060016101ff565b6102a1610efc565b6101f361030d366004613847565b610f0e565b61024b610320366004613862565b610f7a565b61024b610333366004613847565b611180565b61022a610346366004613847565b61118e565b61022a611201565b61024b610361366004613847565b611359565b6102bb6113aa565b61024b61037c366004613908565b61141e565b61022a61038f366004613847565b61146d565b7251554555455f4f50455241544f525f524f4c4560681b61022a565b61024b6103be366004613aac565b61148a565b5f546001600160a01b03166102bb565b61024b6103e1366004613862565b6115dc565b6103f96103f4366004613862565b6117b3565b6040516101ff9190613bbe565b61022a610414366004613908565b6001600160a01b039283165f908152603b602090815260408083209486168352938152838220929094168152925290205490565b603d546001600160a01b03166102bb565b61024b610467366004613847565b611989565b61047f61047a366004613847565b611ae0565b6040516101ff9190613ca2565b61022a61049a366004613847565b611c03565b6101f36104ad366004613d74565b611c23565b5f6001600160e01b03198216632ff60c8760e11b14806104e257506001600160e01b03198216632af7349960e01b145b806104f157506104f182611c2d565b92915050565b5f546040805163d09edf3160e01b815290516105cf926001600160a01b03169163d09edf319160048083019260209291908290030181865afa15801561053f573d5f803e3d5ffd5b505050506040513d601f19601f820116820180604052508101906105639190613e26565b6001600160a01b031663b3ecf2366040518163ffffffff1660e01b8152600401602060405180830381865afa15801561059e573d5f803e3d5ffd5b505050506040513d601f19601f820116820180604052508101906105c29190613e41565b6105ca611c61565b611cb1565b6105d881611dc3565b50565b5f7251554555455f4f50455241544f525f524f4c4560681b6106b45f8054906101000a90046001600160a01b03166001600160a01b031663d09edf316040518163ffffffff1660e01b8152600401602060405180830381865afa158015610644573d5f803e3d5ffd5b505050506040513d601f19601f820116820180604052508101906106689190613e26565b60405163fdd5205f60e01b8152306004820152602481018490526001600160a01b03919091169063fdd5205f906044015b602060405180830381865afa15801561059e573d5f803e3d5ffd5b6106be8484611e2c565b6106f15760405162f570a360e41b81526001600160a01b0384166004820152602481018590526044015b60405180910390fd5b6001600160a01b0383165f90815260396020908152604080832087845290915290206002600782015460ff16600381111561072e5761072e613b8a565b1461074c5760405163309d2f7760e11b815260040160405180910390fd5b60028101546001820154600a8301546040516370a0823160e01b81526001600160a01b0391821660048201529116906370a0823190602401602060405180830381865afa15801561079f573d5f803e3d5ffd5b505050506040513d601f19601f820116820180604052508101906107c39190613e41565b10156107eb57600281015460405163016ceee360e71b815260048101919091526024016106e8565b6107f785856001611e72565b6108018585611f2c565b6001810154600a820154603c54600284015461082e936001600160a01b039081169381169216905f611f72565b92508261088257600a810154603c546001830154600284015460405162037f9b60ed1b81526001600160a01b03948516600482015292841660248401529216604482015260648101919091526084016106e8565b505092915050565b5f80546040805163d09edf3160e01b815290518693926001600160a01b03169163d09edf319160048083019260209291908290030181865afa1580156108d2573d5f803e3d5ffd5b505050506040513d601f19601f820116820180604052508101906108f69190613e26565b60405163fdd5205f60e01b8152306004820152602481018490526001600160a01b03919091169063fdd5205f90604401602060405180830381865afa158015610941573d5f803e3d5ffd5b505050506040513d601f19601f820116820180604052508101906109659190613e41565b9050610a095f8054906101000a90046001600160a01b03166001600160a01b031663d09edf316040518163ffffffff1660e01b8152600401602060405180830381865afa1580156109b8573d5f803e3d5ffd5b505050506040513d601f19601f820116820180604052508101906109dc9190613e26565b6001600160a01b031663248a9ca3836040518263ffffffff1660e01b815260040161069991815260200190565b5f8054906101000a90046001600160a01b03166001600160a01b031663d09edf316040518163ffffffff1660e01b8152600401602060405180830381865afa158015610a57573d5f803e3d5ffd5b505050506040513d601f19601f82011682018060405250810190610a7b9190613e26565b6001600160a01b0316637d540a648686866040518463ffffffff1660e01b8152600401610aaa93929190613e58565b5f604051808303815f87803b158015610ac1575f80fd5b505af1158015610ad3573d5f803e3d5ffd5b505050505050505050565b7251554555455f4f50455241544f525f524f4c4560681b610b465f8054906101000a90046001600160a01b03166001600160a01b031663d09edf316040518163ffffffff1660e01b8152600401602060405180830381865afa158015610644573d5f803e3d5ffd5b6001600160a01b038085165f908152603b6020908152604080832084881684528252808320938616835292905220545f03610ba7576040516307461ff560e51b81526001600160a01b038086166004830152831660248201526044016106e8565b6001600160a01b038481165f908152603b60209081526040808320878516808552908352818420878616855290925282208054929055603d549192610bef923091168461221b565b836001600160a01b0316836001600160a01b03167f3737f2a73c794dafe53d8aeea06810a9ebcf7167401b259406960e088e03f83083604051610c3491815260200190565b60405180910390a3603d5481906001600160a01b039081169085167fd5377d7376738a24af0c54b9f2d6db87a486b02e9ca2ad120a2feb6a585f8072610c78611c61565b6040516001600160a01b03909116815260200160405180910390a45050505050565b5f80546040805163d09edf3160e01b815290518693926001600160a01b03169163d09edf319160048083019260209291908290030181865afa158015610ce2573d5f803e3d5ffd5b505050506040513d601f19601f82011682018060405250810190610d069190613e26565b60405163fdd5205f60e01b8152306004820152602481018490526001600160a01b03919091169063fdd5205f90604401602060405180830381865afa158015610d51573d5f803e3d5ffd5b505050506040513d601f19601f82011682018060405250810190610d759190613e41565b9050610dc85f8054906101000a90046001600160a01b03166001600160a01b031663d09edf316040518163ffffffff1660e01b8152600401602060405180830381865afa1580156109b8573d5f803e3d5ffd5b5f8054906101000a90046001600160a01b03166001600160a01b031663d09edf316040518163ffffffff1660e01b8152600401602060405180830381865afa158015610e16573d5f803e3d5ffd5b505050506040513d601f19601f82011682018060405250810190610e3a9190613e26565b6001600160a01b031663648154538686866040518463ffffffff1660e01b8152600401610aaa93929190613e58565b606060016004018054610e7b90613eaf565b80601f0160208091040260200160405190810160405280929190818152602001828054610ea790613eaf565b8015610ef25780601f10610ec957610100808354040283529160200191610ef2565b820191905f5260205f20905b815481529060010190602001808311610ed557829003601f168201915b5050505050905090565b606060016003018054610e7b90613eaf565b5f805460405163572b6c0560e01b81526001600160a01b0384811660048301529091169063572b6c0590602401602060405180830381865afa158015610f56573d5f803e3d5ffd5b505050506040513d601f19601f820116820180604052508101906104f19190613ee7565b5f80546040805163d09edf3160e01b815290518593926001600160a01b03169163d09edf319160048083019260209291908290030181865afa158015610fc2573d5f803e3d5ffd5b505050506040513d601f19601f82011682018060405250810190610fe69190613e26565b60405163fdd5205f60e01b8152306004820152602481018490526001600160a01b03919091169063fdd5205f90604401602060405180830381865afa158015611031573d5f803e3d5ffd5b505050506040513d601f19601f820116820180604052508101906110559190613e41565b90506110a85f8054906101000a90046001600160a01b03166001600160a01b031663d09edf316040518163ffffffff1660e01b8152600401602060405180830381865afa1580156109b8573d5f803e3d5ffd5b5f8054906101000a90046001600160a01b03166001600160a01b031663d09edf316040518163ffffffff1660e01b8152600401602060405180830381865afa1580156110f6573d5f803e3d5ffd5b505050506040513d601f19601f8201168201806040525081019061111a9190613e26565b60405163385e205560e21b8152600481018690526001600160a01b038581166024830152919091169063e1788154906044015b5f604051808303815f87803b158015611164575f80fd5b505af1158015611176573d5f803e3d5ffd5b5050505050505050565b8061118a8161228a565b5050565b6001600160a01b0381165f9081526038602090815260408083205f19845260020190915281205481036111df5760405163e7f9afc560e01b81526001600160a01b03831660048201526024016106e8565b6001600160a01b0382165f9081526038602052604090206104f1905f196122c3565b5f61135460016040518060a00160405290815f8201548152602001600182015481526020016002820154815260200160038201805461123f90613eaf565b80601f016020809104026020016040519081016040528092919081815260200182805461126b90613eaf565b80156112b65780601f1061128d576101008083540402835291602001916112b6565b820191905f5260205f20905b81548152906001019060200180831161129957829003601f168201915b505050505081526020016004820180546112cf90613eaf565b80601f01602080910402602001604051908101604052809291908181526020018280546112fb90613eaf565b80156113465780601f1061131d57610100808354040283529160200191611346565b820191905f5260205f20905b81548152906001019060200180831161132957829003601f168201915b50505050508152505061230e565b905090565b5f546040805163d09edf3160e01b815290516113a1926001600160a01b03169163d09edf319160048083019260209291908290030181865afa15801561053f573d5f803e3d5ffd5b6105d88161234c565b5f805f9054906101000a90046001600160a01b03166001600160a01b0316637da0a8776040518163ffffffff1660e01b8152600401602060405180830381865afa1580156113fa573d5f803e3d5ffd5b505050506040513d601f19601f820116820180604052508101906113549190613e26565b61142b8383610414611c61565b5f0361145d576040516307461ff560e51b81526001600160a01b038085166004830152821660248201526044016106e8565b6114688383836123b5565b505050565b6001600160a01b0381165f908152603860205260408120546104f1565b7ff0c57e16840df040f15088dc2f81fe391c3923bec73e23a9662efc9c229c6a00805468010000000000000000810460ff16159067ffffffffffffffff165f811580156114d45750825b90505f8267ffffffffffffffff1660011480156114f05750303b155b9050811580156114fe575080155b1561151c5760405163f92ee8a960e01b815260040160405180910390fd5b845467ffffffffffffffff19166001178555831561155057845468ff00000000000000001916680100000000000000001785555b61155a888861244c565b5f80878060200190518101906115709190613f11565b9150915061157d8261234c565b61158681611dc3565b5050831561117657845468ff000000000000000019168555604051600181527fc7f505b2f371ae2175ee4913f4499e1f2633a7b5936321eed1cdaeb6115181d29060200160405180910390a15050505050505050565b5f80546040805163d09edf3160e01b815290518593926001600160a01b03169163d09edf319160048083019260209291908290030181865afa158015611624573d5f803e3d5ffd5b505050506040513d601f19601f820116820180604052508101906116489190613e26565b60405163fdd5205f60e01b8152306004820152602481018490526001600160a01b03919091169063fdd5205f90604401602060405180830381865afa158015611693573d5f803e3d5ffd5b505050506040513d601f19601f820116820180604052508101906116b79190613e41565b905061170a5f8054906101000a90046001600160a01b03166001600160a01b031663d09edf316040518163ffffffff1660e01b8152600401602060405180830381865afa1580156109b8573d5f803e3d5ffd5b5f8054906101000a90046001600160a01b03166001600160a01b031663d09edf316040518163ffffffff1660e01b8152600401602060405180830381865afa158015611758573d5f803e3d5ffd5b505050506040513d601f19601f8201168201806040525081019061177c9190613e26565b604051632e99be7f60e21b8152600481018690526001600160a01b038581166024830152919091169063ba66f9fc9060440161114d565b6118226040805161018081019091525f60a0820181815260c0830182905260e08301829052610100830182905261012083018290526101408301919091526060610160830152819081526020015f81526020015f81526020015f81526020015f6001600160a01b031681525090565b61182c8383611e2c565b61185a5760405162f570a360e41b81526001600160a01b0383166004820152602481018490526044016106e8565b6001600160a01b038083165f9081526039602090815260408083208784528252918290208251610180810184528154851660a08201908152600183015490951660c0820152600282015460e082015260038201546101008201526004820154610120820152600582015461014082015260068201805485518186028101860190965280865291959294869486936101608701939183018282801561191b57602002820191905f5260205f20905b815481526020019060010190808311611907575b505050919092525050508152600782015460209091019060ff16600381111561194657611946613b8a565b600381111561195757611957613b8a565b81526008820154602082015260098201546040820152600a909101546001600160a01b03166060909101529392505050565b806119938161228a565b5f546001600160a01b03166342f6e3896119ab611c61565b6040516001600160e01b031960e084901b1681526001600160a01b039091166004820152602401602060405180830381865afa1580156119ed573d5f803e3d5ffd5b505050506040513d601f19601f82011682018060405250810190611a119190613ee7565b611a2e57604051633c9fdabb60e01b815260040160405180910390fd5b6060826001600160a01b031663c0231ff66040518163ffffffff1660e01b81526004015f604051808303815f875af1158015611a6c573d5f803e3d5ffd5b505050506040513d5f823e601f3d908101601f19168201604052611a939190810190613fff565b505080519091505f5b81811015611ad057611ac7838281518110611ab957611ab961415f565b602002602001015186612545565b50600101611a9c565b50611ada84612790565b50505050565b6001600160a01b0381165f9081526038602052604081205460609103611b1857604080515f80825260208201909252905b5092915050565b6001600160a01b0382165f9081526038602052604081205467ffffffffffffffff811115611b4857611b486139af565b604051908082528060200260200182016040528015611b71578160200160208202803683370190505b506001600160a01b0384165f908152603860205260408120919250908190611b9a905f196122c3565b90505b5f198114611bfa57808383611bb181614187565b945081518110611bc357611bc361415f565b6020908102919091018101919091526001600160a01b0386165f908152603890915260409020611bf390826122c3565b9050611b9d565b50909392505050565b6001600160a01b0381165f908152603860205260408120600101546104f1565b5f6104f18261284b565b5f6001600160e01b0319821663e328951160e01b14806104f157506301ffc9a760e01b6001600160e01b03198316146104f1565b5f366014611c6e33610f0e565b8015611c7a5750808210155b15611ca9575f36611c8b838561419f565b611c969282906141b2565b611c9f916141d9565b60601c9250505090565b339250505090565b5f8054906101000a90046001600160a01b03166001600160a01b031663d09edf316040518163ffffffff1660e01b8152600401602060405180830381865afa158015611cff573d5f803e3d5ffd5b505050506040513d601f19601f82011682018060405250810190611d239190613e26565b60405163a883867d60e01b8152600481018490526001600160a01b038381166024830152919091169063a883867d90604401602060405180830381865afa158015611d70573d5f803e3d5ffd5b505050506040513d601f19601f82011682018060405250810190611d949190613ee7565b61118a576040516342abbb7760e01b8152600481018390526001600160a01b03821660248201526044016106e8565b6001600160a01b0381161580611de157506001600160a01b03811630145b15611e0a5760405163158a815160e31b81526001600160a01b03821660048201526024016106e8565b603d80546001600160a01b0319166001600160a01b0392909216919091179055565b6001600160a01b038082165f8181526039602090815260408083208784529091528120600a810154919390929116148015611e6a5750600981015415155b949350505050565b6001600160a01b0382165f90815260396020908152604080832086845290915290206007810154611ea890859060ff16846128df565b5060078101805483919060ff19166001836003811115611eca57611eca613b8a565b0217905550611ed7611c61565b600a8201546040516001600160a01b03928316929091169086907f3a75e4822574db6690013a0aac0ea63058130a6f327921c57c63d54d26ffe1fe90611f1e90879061420c565b60405180910390a450505050565b6001600160a01b0381165f908152603860205260408120611f4d90846129ab565b6001600160a01b0383165f908152603860205260409020909150611468908285612a7b565b60408051808201909152601881527f70726f636573735061796d656e747328616464726573732900000000000000006020909101525f808080611fd6867fe151fc6190baec3450343db0d9f2e5e164ab993e91d2b108dad805389f7bc65087612b28565b9250925092505f611fe98a8a8a86612bac565b905080156120fd57896001600160a01b0316886001600160a01b03167f3737f2a73c794dafe53d8aeea06810a9ebcf7167401b259406960e088e03f8308560405161203691815260200190565b60405180910390a36001945083156120f85761205d6001600160a01b038b168a848761221b565b896001600160a01b0316826001600160a01b03167f3737f2a73c794dafe53d8aeea06810a9ebcf7167401b259406960e088e03f830866040516120a291815260200190565b60405180910390a3816001600160a01b03168a6001600160a01b03167f81535d361819544361f80ddbe5071aef378a8ecba1c52f2c45fe3335234c4331866040516120ef91815260200190565b60405180910390a35b6121b1565b6121098a8a308a612bac565b90508061214a5760405162037f9b60ed1b81526001600160a01b03808b166004830152808a1660248301528b166044820152606481018890526084016106e8565b612156898b8a8a612cbf565b876001600160a01b03168a6001600160a01b03168a6001600160a01b03167fbff6d112ab4c9d4a5f437492b210126678d87e510e41c7d8650c660302fb06b08a6040516121a591815260200190565b60405180910390a45f94505b604051631667d8c360e31b81526001600160a01b038b81166004830152602482018990528a169063b33ec618906044015f604051808303815f87803b1580156121f8575f80fd5b505af115801561220a573d5f803e3d5ffd5b505050505050505095945050505050565b604080516001600160a01b0385811660248301528416604482015260648082018490528251808303909101815260849091019091526020810180517bffffffffffffffffffffffffffffffffffffffffffffffffffffffff166323b872dd60e01b179052611ada908590612d0a565b612292611c61565b6001600160a01b0316816001600160a01b0316146105d85760405163c0cbb5a760e01b815260040160405180910390fd5b5f8181526002830160205260408120548390839083036122f657604051637bfea7d960e11b815260040160405180910390fd5b5050505f908152600291909101602052604090205490565b5f815f01518260600151836080015160405160200161232f9392919061421a565b604051602081830303815290604052805190602001209050919050565b6001600160a01b038116158061236a57506001600160a01b03811630145b156123935760405163158a815160e31b81526001600160a01b03821660048201526024016106e8565b603c80546001600160a01b0319166001600160a01b0392909216919091179055565b6001600160a01b038381165f908152603b6020908152604080832086851680855290835281842094861684529390915281208054919055906123f99030848461221b565b826001600160a01b0316826001600160a01b03167f3737f2a73c794dafe53d8aeea06810a9ebcf7167401b259406960e088e03f8308360405161243e91815260200190565b60405180910390a350505050565b612454612d6b565b6001600160a01b03821661247b57604051637280679360e01b815260040160405180910390fd5b5f80546001600160a01b0319166001600160a01b03841617905561249e81612dbb565b6124bb57604051637511254160e01b815260040160405180910390fd5b805160019081556020820151600255604082015160035560608201518291906004906124e7908261428f565b50608082015160048201906124fc908261428f565b50905050816001600160a01b03167fd5f3f84c2e1816ce290af84d002663800b02f2985d770cdd335de76fd723b73082604051612539919061434f565b60405180910390a25050565b5f61254f8361284b565b6125775760405163e7f9afc560e01b81526001600160a01b03831660048201526024016106e8565b6125898360a001518460c00151612e15565b6040805160a0810190915284815290915060208101600281526020808201849052426040808401919091526001600160a01b0380871660609485018190525f9081526039845282812087825284528290208551805182549084166001600160a01b031991821617835581860151600184018054919095169116179092559181015160028301559283015160038201556080830151600482015560a0830151600582015560c08301518051919392849261264892600685019201906137a4565b505050602082015160078201805460ff1916600183600381111561266e5761266e613b8a565b0217905550604082810151600883015560608301516009830155608090920151600a90910180546001600160a01b0319166001600160a01b0392831617905583165f908152603860205220545f036126f7576001600160a01b0382165f9081526038602052604090206126f7905f195f8181526002830160205260409020819055600190910155565b6001600160a01b0382165f9081526038602052604090206127189082612e57565b6001600160a01b038281165f818152603a60209081526040918290208590558681015187518884015160a08a015185519687529386015292840191909152831692169083907fa837d772ba58992214e1080aef87032a8931dc3830ced0782c40f6fa21dc79a79060600160405180910390a492915050565b8061279a8161228a565b6001600160a01b0382165f9081526038602052604081206127bc905f196122c3565b90505f1981036127df5760405163578cb8d960e01b815260040160405180910390fd5b5f5b6127ea84612ec9565b156127ff576127f881614187565b90506127e1565b836001600160a01b0316612811611c61565b6001600160a01b03167f635cdafb2aeaf06f68681649c1e9be54e7bb8eb1e6db5047a084c10edb0ff6da8360405161243e91815260200190565b5f8061285f8360a001518460c00151612e15565b905061286d835f01516130ad565b801561287c5750604083015115155b801561288d575061288d81336131f1565b80156128a157506128a18360200151613228565b80156128b05750606083015146145b80156128bf5750608083015146145b80156128d857506128d88360a001518460c001516132b7565b9392505050565b5f808360038111156128f3576128f3613b8a565b14806129105750600183600381111561290e5761290e613b8a565b145b15612934578383836040516316e4f2ed60e31b81526004016106e8939291906143a5565b5f82600381111561294757612947613b8a565b14806129645750600182600381111561296257612962613b8a565b145b156129a157600283600381111561297d5761297d613b8a565b146129a1578383836040516316e4f2ed60e31b81526004016106e8939291906143a5565b5060019392505050565b5f8181526002830160205260408120548390839083036129de57604051637bfea7d960e11b815260040160405180910390fd5b5f1984036129f25784600101549250610882565b5f6129fc86613308565b80519091505f5b81811015612a705786838281518110612a1e57612a1e61415f565b602002602001015103612a6857805f03612a39575f19612a5e565b82612a4560018361419f565b81518110612a5557612a5561415f565b60200260200101515b9550505050610882565b600101612a03565b505050505092915050565b8281612a8782826133b3565b612aa457604051638f454d2d60e01b815260040160405180910390fd5b5f8481526002860160205260409020548590859085908114612ad957604051633065847560e01b815260040160405180910390fd5b5f86815260028901602052604080822080548a8452918320919091558782528190558854908990612b09836143c6565b9190505550876001015486036111765750505050506001929092015550565b5f805f83612b3d57505f915084905081612ba3565b5f80612b48876133d6565b915091508092506127108210612b7457604051631313208f60e21b8152600481018390526024016106e8565b8115612b9457612710612b87838a6143db565b612b9191906143f2565b94505b612b9e858961419f565b935050505b93509350939050565b604080516001600160a01b0385811660248301528481166044830152606480830185905283518084039091018152608490920183526020820180517bffffffffffffffffffffffffffffffffffffffffffffffffffffffff166323b872dd60e01b17905291515f928392839291891691612c269190614411565b5f604051808303815f865af19150503d805f8114612c5f576040519150601f19603f3d011682016040523d82523d5f602084013e612c64565b606091505b5091509150818015612c8e575080511580612c8e575080806020019051810190612c8e9190613ee7565b8015612ca357506001600160a01b0387163b15155b15612cb357600192505050611e6a565b505f9695505050505050565b6001600160a01b038085165f908152603b602090815260408083208785168452825280832093861683529290529081208054839290612cff90849061442c565b909155505050505050565b5f612d1e6001600160a01b03841683613528565b905080515f14158015612d42575080806020019051810190612d409190613ee7565b155b1561146857604051635274afe760e01b81526001600160a01b03841660048201526024016106e8565b7ff0c57e16840df040f15088dc2f81fe391c3923bec73e23a9662efc9c229c6a005468010000000000000000900460ff16612db957604051631afcd79f60e31b815260040160405180910390fd5b565b5f8160600151515f03612dcf57505f919050565b8160800151515f03612de257505f919050565b8151158015612df357506020820151155b8015612e0157506040820151155b15612e0d57505f919050565b506001919050565b5f60018316158015908190612e2a5750825115155b15611b1157825f60ff1681518110612e4457612e4461415f565b60200260200101515f1c91505092915050565b8181612e6382826133b3565b80612e6c575080155b15612e8a5760405163582fbbaf60e01b815260040160405180910390fd5b6001840180545f90815260028601602052604080822086905585825281205f199055908490558454908590612ebe83614187565b919050555050505050565b6001600160a01b0381165f9081526038602052604081208190612eed905f196122c3565b90505f198103612eff57505f92915050565b6001600160a01b0383165f90815260396020908152604080832084845290915290206002600782015460ff166003811115612f3c57612f3c613b8a565b14612f5a5760405163309d2f7760e11b815260040160405180910390fd5b6001810154600a8201546002830154612f80926001600160a01b03908116921690613535565b612f8d57505f9392505050565b604080516101808101825282546001600160a01b0390811660a08301908152600185015490911660c0830152600284015460e083015260038401546101008301526004840154610120830152600584015461014083015260068401805484516020828102820181019096528181526129a19588959488948694919386936101608701939192919083018282801561304157602002820191905f5260205f20905b81548152602001906001019080831161302d575b505050919092525050508152600782015460209091019060ff16600381111561306c5761306c613b8a565b600381111561307d5761307d613b8a565b81526008820154602082015260098201546040820152600a909101546001600160a01b0316606090910152613629565b5f6001600160a01b03821615806130dc57506130c7611c61565b6001600160a01b0316826001600160a01b0316145b806130ef57506001600160a01b03821630145b8061310657505f546001600160a01b038381169116145b806131ea57505f546001600160a01b03166001600160a01b03166304baed9e6040518163ffffffff1660e01b8152600401602060405180830381865afa158015613152573d5f803e3d5ffd5b505050506040513d601f19601f820116820180604052508101906131769190613e26565b6001600160a01b031663fc0c546a6040518163ffffffff1660e01b8152600401602060405180830381865afa1580156131b1573d5f803e3d5ffd5b505050506040513d601f19601f820116820180604052508101906131d59190613e26565b6001600160a01b0316826001600160a01b0316145b1592915050565b5f80831180156128d857506001600160a01b0382165f908152603a602052604090205461321f90600161442c565b83149392505050565b5f6001600160a01b03821661323e57505f919050565b6040516370a0823160e01b81523060048201526001600160a01b038316906370a0823190602401602060405180830381865afa92505050801561329e575060408051601f3d908101601f1916820190925261329b91810190613e41565b60015b6132a957505f919050565b50600192915050565b919050565b5f8281805b60088160ff1610156132ec57600160ff82161b8316156132e457816132e081614187565b9250505b6001016132bc565b508084511480156132ff57506001821615155b95945050505050565b60605f825f015467ffffffffffffffff811115613327576133276139af565b604051908082528060200260200182016040528015613350578160200160208202803683370190505b505f195f908152600285016020526040812054919250905b5f198114611bfa57808383815181106133835761338361415f565b6020908102919091018101919091525f9182526002860190526040902054816133ab81614187565b925050613368565b5f818152600283016020526040812054158015906128d85750505f191415919050565b5f80546040805163030d028960e21b8152905183926001600160a01b031691630c340a249160048083019260209291908290030181865afa15801561341d573d5f803e3d5ffd5b505050506040513d601f19601f820116820180604052508101906134419190613e26565b6001600160a01b031663f2d638266040518163ffffffff1660e01b8152600401602060405180830381865afa15801561347c573d5f803e3d5ffd5b505050506040513d601f19601f820116820180604052508101906134a09190613e26565b5f54604051634d970f5560e11b81526001600160a01b0391821660048201523060248201526001600160e01b031986166044820152911690639b2e1eaa906064016040805180830381865afa1580156134fb573d5f803e3d5ffd5b505050506040513d601f19601f8201168201806040525081019061351f919061443f565b91509150915091565b60606128d883835f613686565b6040516370a0823160e01b81526001600160a01b0383811660048301525f9185918491908316906370a0823190602401602060405180830381865afa158015613580573d5f803e3d5ffd5b505050506040513d601f19601f820116820180604052508101906135a49190613e41565b101580156132ff5750604051636eb1769f60e11b81526001600160a01b03858116600483015230602483015284919083169063dd62ed3e90604401602060405180830381865afa1580156135fa573d5f803e3d5ffd5b505050506040513d601f19601f8201168201806040525081019061361e9190613e41565b101595945050505050565b80516020810151608083015182516040909301515f9361364c9392916001611f72565b90508015613668576136638383608001515f611e72565b613678565b6136788383608001516003611e72565b611468838360800151611f2c565b6060814710156136ab5760405163cd78605960e01b81523060048201526024016106e8565b5f80856001600160a01b031684866040516136c69190614411565b5f6040518083038185875af1925050503d805f8114613700576040519150601f19603f3d011682016040523d82523d5f602084013e613705565b606091505b509150915061371586838361371f565b9695505050505050565b6060826137345761372f8261377b565b6128d8565b815115801561374b57506001600160a01b0384163b155b1561377457604051639996b31560e01b81526001600160a01b03851660048201526024016106e8565b50806128d8565b80511561378b5780518082602001fd5b604051630a12f52160e11b815260040160405180910390fd5b828054828255905f5260205f209081019282156137dd579160200282015b828111156137dd5782518255916020019190600101906137c2565b506137e99291506137ed565b5090565b5b808211156137e9575f81556001016137ee565b5f60208284031215613811575f80fd5b81356001600160e01b0319811681146128d8575f80fd5b6001600160a01b03811681146105d8575f80fd5b80356132b281613828565b5f60208284031215613857575f80fd5b81356128d881613828565b5f8060408385031215613873575f80fd5b82359150602083013561388581613828565b809150509250929050565b5f805f604084860312156138a2575f80fd5b83359250602084013567ffffffffffffffff808211156138c0575f80fd5b818601915086601f8301126138d3575f80fd5b8135818111156138e1575f80fd5b8760208260051b85010111156138f5575f80fd5b6020830194508093505050509250925092565b5f805f6060848603121561391a575f80fd5b833561392581613828565b9250602084013561393581613828565b9150604084013561394581613828565b809150509250925092565b5f5b8381101561396a578181015183820152602001613952565b50505f910152565b5f8151808452613989816020860160208601613950565b601f01601f19169290920160200192915050565b602081525f6128d86020830184613972565b634e487b7160e01b5f52604160045260245ffd5b60405160a0810167ffffffffffffffff811182821017156139e6576139e66139af565b60405290565b60405160e0810167ffffffffffffffff811182821017156139e6576139e66139af565b604051601f8201601f1916810167ffffffffffffffff81118282101715613a3857613a386139af565b604052919050565b5f82601f830112613a4f575f80fd5b813567ffffffffffffffff811115613a6957613a696139af565b613a7c601f8201601f1916602001613a0f565b818152846020838601011115613a90575f80fd5b816020850160208301375f918101602001919091529392505050565b5f805f60608486031215613abe575f80fd5b8335613ac981613828565b9250602084013567ffffffffffffffff80821115613ae5575f80fd5b9085019060a08288031215613af8575f80fd5b613b006139c3565b823581526020830135602082015260408301356040820152606083013582811115613b29575f80fd5b613b3589828601613a40565b606083015250608083013582811115613b4c575f80fd5b613b5889828601613a40565b60808301525093506040860135915080821115613b73575f80fd5b50613b8086828701613a40565b9150509250925092565b634e487b7160e01b5f52602160045260245ffd5b60048110613bba57634e487b7160e01b5f52602160045260245ffd5b9052565b5f6020808352835160a0828501526101a084016001600160a01b038083511660c087015280848401511660e08701525060408201516101008601526060820151610120860152608082015161014086015260a082015161016086015260c0820151915060e06101808601528082518083526101c08701915084840193505f92505b80831015613c5f5783518252928401926001929092019190840190613c3f565b509286015192613c726040870185613b9e565b60408701516060870152606087015160808701526080870151935061371560a08701856001600160a01b03169052565b602080825282518282018190525f9190848201906040850190845b81811015613cd957835183529284019291840191600101613cbd565b50909695505050505050565b5f67ffffffffffffffff821115613cfe57613cfe6139af565b5060051b60200190565b5f82601f830112613d17575f80fd5b81356020613d2c613d2783613ce5565b613a0f565b8083825260208201915060208460051b870101935086841115613d4d575f80fd5b602086015b84811015613d695780358352918301918301613d52565b509695505050505050565b5f60208284031215613d84575f80fd5b813567ffffffffffffffff80821115613d9b575f80fd5b9083019060e08286031215613dae575f80fd5b613db66139ec565b613dbf8361383c565b8152613dcd6020840161383c565b602082015260408301356040820152606083013560608201526080830135608082015260a083013560a082015260c083013582811115613e0b575f80fd5b613e1787828601613d08565b60c08301525095945050505050565b5f60208284031215613e36575f80fd5b81516128d881613828565b5f60208284031215613e51575f80fd5b5051919050565b838152604060208083018290529082018390525f90849060608401835b86811015613ea3578335613e8881613828565b6001600160a01b031682529282019290820190600101613e75565b50979650505050505050565b600181811c90821680613ec357607f821691505b602082108103613ee157634e487b7160e01b5f52602260045260245ffd5b50919050565b5f60208284031215613ef7575f80fd5b815180151581146128d8575f80fd5b80516132b281613828565b5f8060408385031215613f22575f80fd5b8251613f2d81613828565b602084015190925061388581613828565b5f82601f830112613f4d575f80fd5b81516020613f5d613d2783613ce5565b8083825260208201915060208460051b870101935086841115613f7e575f80fd5b602086015b84811015613d695780518352918301918301613f83565b5f82601f830112613fa9575f80fd5b81516020613fb9613d2783613ce5565b8083825260208201915060208460051b870101935086841115613fda575f80fd5b602086015b84811015613d69578051613ff281613828565b8352918301918301613fdf565b5f805f60608486031215614011575f80fd5b835167ffffffffffffffff80821115614028575f80fd5b818601915086601f83011261403b575f80fd5b8151602061404b613d2783613ce5565b82815260059290921b8401810191818101908a841115614069575f80fd5b8286015b8481101561411857805186811115614083575f80fd5b870160e0818e03601f19011215614098575f80fd5b6140a06139ec565b6140ab868301613f06565b81526140b960408301613f06565b86820152606082015160408201526080820151606082015260a0820151608082015260c082015160a082015260e0820151888111156140f6575f80fd5b6141048f8883860101613f3e565b60c08301525084525091830191830161406d565b5091890151919750909350505080821115614131575f80fd5b61413d87838801613f9a565b93506040860151915080821115614152575f80fd5b50613b8086828701613f3e565b634e487b7160e01b5f52603260045260245ffd5b634e487b7160e01b5f52601160045260245ffd5b5f6001820161419857614198614173565b5060010190565b818103818111156104f1576104f1614173565b5f80858511156141c0575f80fd5b838611156141cc575f80fd5b5050820193919092039150565b6bffffffffffffffffffffffff1981358181169160148510156108825760149490940360031b84901b1690921692915050565b602081016104f18284613b9e565b838152606060208201525f6142326060830185613972565b82810360408401526137158185613972565b601f82111561146857805f5260205f20601f840160051c810160208510156142695750805b601f840160051c820191505b81811015614288575f8155600101614275565b5050505050565b815167ffffffffffffffff8111156142a9576142a96139af565b6142bd816142b78454613eaf565b84614244565b602080601f8311600181146142f0575f84156142d95750858301515b5f19600386901b1c1916600185901b178555614347565b5f85815260208120601f198616915b8281101561431e578886015182559484019460019091019084016142ff565b508582101561433b57878501515f19600388901b60f8161c191681555b505060018460011b0185555b505050505050565b602081528151602082015260208201516040820152604082015160608201525f606083015160a0608084015261438860c0840182613972565b90506080840151601f198483030160a08501526132ff8282613972565b838152606081016143b96020830185613b9e565b611e6a6040830184613b9e565b5f816143d4576143d4614173565b505f190190565b80820281158282048414176104f1576104f1614173565b5f8261440c57634e487b7160e01b5f52601260045260245ffd5b500490565b5f8251614422818460208701613950565b9190910192915050565b808201808211156104f1576104f1614173565b5f8060408385031215614450575f80fd5b8251915060208301516138858161382856fea2646970667358221220f4f8f3eb0448a67c234ddbdb419bad4cd359c0288127686543f563c41a8ade7164736f6c63430008170033",
    "linkReferences": {}
  },
  "methodIdentifiers": {
    "cancelPaymentOrderThroughQueueId(uint256,address)": "195254ad",
    "cancelRunningPayments(address)": "73d7764e",
    "claimPreviouslyUnclaimable(address,address,address)": "81ac0367",
    "claimPreviouslyUnclaimableToTreasury(address,address,address)": "271e4283",
    "getCanceledOrdersTreasury()": "4d45e9aa",
    "getFailedOrdersTreasury()": "df40044a",
    "getOrder(uint256,address)": "cbbfe168",
    "getOrderQueue(address)": "ee8b4f94",
    "getQueueHead(address)": "75a2dc05",
    "getQueueOperatorRole()": "aca51e3e",
    "getQueueOperatorRoleAdmin()": "0e4eaa4f",
    "getQueueSizeForClient(address)": "9b5674ab",
    "getQueueTail(address)": "f14ba610",
    "grantModuleRole(bytes32,address)": "6c67e807",
    "grantModuleRoleBatched(bytes32,address[])": "272bbd44",
    "identifier()": "7998a1c4",
    "init(address,(uint256,uint256,uint256,string,string),bytes)": "b66a870c",
    "isTrustedForwarder(address)": "572b6c05",
    "orchestrator()": "b74795d9",
    "processPayments(address)": "e151fc61",
    "revokeModuleRole(bytes32,address)": "bcb61920",
    "revokeModuleRoleBatched(bytes32,address[])": "24e30270",
    "setCanceledOrdersTreasury(address)": "7ce59471",
    "setFailedOrdersTreasury(address)": "17206282",
    "supportsInterface(bytes4)": "01ffc9a7",
    "title()": "4a79d50c",
    "trustedForwarder()": "7da0a877",
    "unclaimable(address,address,address)": "ceb43f54",
    "url()": "5600f04f",
    "validPaymentOrder((address,address,uint256,uint256,uint256,bytes32,bytes32[]))": "f7698285",
    "version()": "54fd4d50"
  },
  "id": 174
}