{
  "abi": [
    {
      "type": "function",
      "name": "cancelPaymentOrderThroughQueueId",
      "inputs": [
        {
          "name": "orderId_",
          "type": "uint256",
          "internalType": "uint256"
        },
        {
          "name": "client_",
          "type": "address",
          "internalType": "contract IERC20PaymentClientBase_v2"
        }
      ],
      "outputs": [
        {
          "name": "success_",
          "type": "bool",
          "internalType": "bool"
        }
      ],
      "stateMutability": "nonpayable"
    },
    {
      "type": "function",
      "name": "cancelRunningPayments",
      "inputs": [
        {
          "name": "client_",
          "type": "address",
          "internalType": "contract IERC20PaymentClientBase_v2"
        }
      ],
      "outputs": [],
      "stateMutability": "view"
    },
    {
      "type": "function",
      "name": "claimPreviouslyUnclaimable",
      "inputs": [
        {
          "name": "client_",
          "type": "address",
          "internalType": "address"
        },
        {
          "name": "token_",
          "type": "address",
          "internalType": "address"
        },
        {
          "name": "receiver_",
          "type": "address",
          "internalType": "address"
        }
      ],
      "outputs": [],
      "stateMutability": "nonpayable"
    },
    {
      "type": "function",
      "name": "claimPreviouslyUnclaimableToTreasury",
      "inputs": [
        {
          "name": "client_",
          "type": "address",
          "internalType": "address"
        },
        {
          "name": "token_",
          "type": "address",
          "internalType": "address"
        },
        {
          "name": "receiver_",
          "type": "address",
          "internalType": "address"
        }
      ],
      "outputs": [],
      "stateMutability": "nonpayable"
    },
    {
      "type": "function",
      "name": "executePaymentQueue",
      "inputs": [
        {
          "name": "client_",
          "type": "address",
          "internalType": "contract IERC20PaymentClientBase_v2"
        }
      ],
      "outputs": [],
      "stateMutability": "nonpayable"
    },
    {
      "type": "function",
      "name": "getCanceledOrdersTreasury",
      "inputs": [],
      "outputs": [
        {
          "name": "treasury_",
          "type": "address",
          "internalType": "address"
        }
      ],
      "stateMutability": "view"
    },
    {
      "type": "function",
      "name": "getFailedOrdersTreasury",
      "inputs": [],
      "outputs": [
        {
          "name": "treasury_",
          "type": "address",
          "internalType": "address"
        }
      ],
      "stateMutability": "view"
    },
    {
      "type": "function",
      "name": "getOrder",
      "inputs": [
        {
          "name": "orderId_",
          "type": "uint256",
          "internalType": "uint256"
        },
        {
          "name": "client_",
          "type": "address",
          "internalType": "contract IERC20PaymentClientBase_v2"
        }
      ],
      "outputs": [
        {
          "name": "order_",
          "type": "tuple",
          "internalType": "struct IPP_Queue_v1.QueuedOrder",
          "components": [
            {
              "name": "order_",
              "type": "tuple",
              "internalType": "struct IERC20PaymentClientBase_v2.PaymentOrder",
              "components": [
                {
                  "name": "recipient",
                  "type": "address",
                  "internalType": "address"
                },
                {
                  "name": "paymentToken",
                  "type": "address",
                  "internalType": "address"
                },
                {
                  "name": "amount",
                  "type": "uint256",
                  "internalType": "uint256"
                },
                {
                  "name": "originChainId",
                  "type": "uint256",
                  "internalType": "uint256"
                },
                {
                  "name": "targetChainId",
                  "type": "uint256",
                  "internalType": "uint256"
                },
                {
                  "name": "flags",
                  "type": "bytes32",
                  "internalType": "bytes32"
                },
                {
                  "name": "data",
                  "type": "bytes32[]",
                  "internalType": "bytes32[]"
                }
              ]
            },
            {
              "name": "state_",
              "type": "uint8",
              "internalType": "enum IPP_Queue_v1.RedemptionState"
            },
            {
              "name": "orderId_",
              "type": "uint256",
              "internalType": "uint256"
            },
            {
              "name": "timestamp_",
              "type": "uint256",
              "internalType": "uint256"
            },
            {
              "name": "client_",
              "type": "address",
              "internalType": "address"
            }
          ]
        }
      ],
      "stateMutability": "view"
    },
    {
      "type": "function",
      "name": "getOrderQueue",
      "inputs": [
        {
          "name": "client_",
          "type": "address",
          "internalType": "address"
        }
      ],
      "outputs": [
        {
          "name": "queue_",
          "type": "uint256[]",
          "internalType": "uint256[]"
        }
      ],
      "stateMutability": "view"
    },
    {
      "type": "function",
      "name": "getQueueHead",
      "inputs": [
        {
          "name": "client_",
          "type": "address",
          "internalType": "address"
        }
      ],
      "outputs": [
        {
          "name": "head_",
          "type": "uint256",
          "internalType": "uint256"
        }
      ],
      "stateMutability": "view"
    },
    {
      "type": "function",
      "name": "getQueueOperatorRole",
      "inputs": [],
      "outputs": [
        {
          "name": "role_",
          "type": "bytes32",
          "internalType": "bytes32"
        }
      ],
      "stateMutability": "pure"
    },
    {
      "type": "function",
      "name": "getQueueOperatorRoleAdmin",
      "inputs": [],
      "outputs": [
        {
          "name": "role_",
          "type": "bytes32",
          "internalType": "bytes32"
        }
      ],
      "stateMutability": "pure"
    },
    {
      "type": "function",
      "name": "getQueueSizeForClient",
      "inputs": [
        {
          "name": "client_",
          "type": "address",
          "internalType": "address"
        }
      ],
      "outputs": [
        {
          "name": "size_",
          "type": "uint256",
          "internalType": "uint256"
        }
      ],
      "stateMutability": "view"
    },
    {
      "type": "function",
      "name": "getQueueTail",
      "inputs": [
        {
          "name": "client_",
          "type": "address",
          "internalType": "address"
        }
      ],
      "outputs": [
        {
          "name": "tail_",
          "type": "uint256",
          "internalType": "uint256"
        }
      ],
      "stateMutability": "view"
    },
    {
      "type": "function",
      "name": "grantModuleRole",
      "inputs": [
        {
          "name": "role",
          "type": "bytes32",
          "internalType": "bytes32"
        },
        {
          "name": "target",
          "type": "address",
          "internalType": "address"
        }
      ],
      "outputs": [],
      "stateMutability": "nonpayable"
    },
    {
      "type": "function",
      "name": "grantModuleRoleBatched",
      "inputs": [
        {
          "name": "role",
          "type": "bytes32",
          "internalType": "bytes32"
        },
        {
          "name": "targets",
          "type": "address[]",
          "internalType": "address[]"
        }
      ],
      "outputs": [],
      "stateMutability": "nonpayable"
    },
    {
      "type": "function",
      "name": "identifier",
      "inputs": [],
      "outputs": [
        {
          "name": "",
          "type": "bytes32",
          "internalType": "bytes32"
        }
      ],
      "stateMutability": "view"
    },
    {
      "type": "function",
      "name": "init",
      "inputs": [
        {
          "name": "orchestrator_",
          "type": "address",
          "internalType": "contract IOrchestrator_v1"
        },
        {
          "name": "metadata_",
          "type": "tuple",
          "internalType": "struct IModule_v1.Metadata",
          "components": [
            {
              "name": "majorVersion",
              "type": "uint256",
              "internalType": "uint256"
            },
            {
              "name": "minorVersion",
              "type": "uint256",
              "internalType": "uint256"
            },
            {
              "name": "patchVersion",
              "type": "uint256",
              "internalType": "uint256"
            },
            {
              "name": "url",
              "type": "string",
              "internalType": "string"
            },
            {
              "name": "title",
              "type": "string",
              "internalType": "string"
            }
          ]
        },
        {
          "name": "configData_",
          "type": "bytes",
          "internalType": "bytes"
        }
      ],
      "outputs": [],
      "stateMutability": "nonpayable"
    },
    {
      "type": "function",
      "name": "isTrustedForwarder",
      "inputs": [
        {
          "name": "forwarder",
          "type": "address",
          "internalType": "address"
        }
      ],
      "outputs": [
        {
          "name": "",
          "type": "bool",
          "internalType": "bool"
        }
      ],
      "stateMutability": "view"
    },
    {
      "type": "function",
      "name": "orchestrator",
      "inputs": [],
      "outputs": [
        {
          "name": "",
          "type": "address",
          "internalType": "contract IOrchestrator_v1"
        }
      ],
      "stateMutability": "view"
    },
    {
      "type": "function",
      "name": "processPayments",
      "inputs": [
        {
          "name": "client_",
          "type": "address",
          "internalType": "contract IERC20PaymentClientBase_v2"
        }
      ],
      "outputs": [],
      "stateMutability": "nonpayable"
    },
    {
      "type": "function",
      "name": "revokeModuleRole",
      "inputs": [
        {
          "name": "role",
          "type": "bytes32",
          "internalType": "bytes32"
        },
        {
          "name": "target",
          "type": "address",
          "internalType": "address"
        }
      ],
      "outputs": [],
      "stateMutability": "nonpayable"
    },
    {
      "type": "function",
      "name": "revokeModuleRoleBatched",
      "inputs": [
        {
          "name": "role",
          "type": "bytes32",
          "internalType": "bytes32"
        },
        {
          "name": "targets",
          "type": "address[]",
          "internalType": "address[]"
        }
      ],
      "outputs": [],
      "stateMutability": "nonpayable"
    },
    {
      "type": "function",
      "name": "setCanceledOrdersTreasury",
      "inputs": [
        {
          "name": "treasury_",
          "type": "address",
          "internalType": "address"
        }
      ],
      "outputs": [],
      "stateMutability": "nonpayable"
    },
    {
      "type": "function",
      "name": "setFailedOrdersTreasury",
      "inputs": [
        {
          "name": "treasury_",
          "type": "address",
          "internalType": "address"
        }
      ],
      "outputs": [],
      "stateMutability": "nonpayable"
    },
    {
      "type": "function",
      "name": "supportsInterface",
      "inputs": [
        {
          "name": "interfaceId_",
          "type": "bytes4",
          "internalType": "bytes4"
        }
      ],
      "outputs": [
        {
          "name": "",
          "type": "bool",
          "internalType": "bool"
        }
      ],
      "stateMutability": "view"
    },
    {
      "type": "function",
      "name": "title",
      "inputs": [],
      "outputs": [
        {
          "name": "",
          "type": "string",
          "internalType": "string"
        }
      ],
      "stateMutability": "view"
    },
    {
      "type": "function",
      "name": "trustedForwarder",
      "inputs": [],
      "outputs": [
        {
          "name": "",
          "type": "address",
          "internalType": "address"
        }
      ],
      "stateMutability": "view"
    },
    {
      "type": "function",
      "name": "unclaimable",
      "inputs": [
        {
          "name": "client_",
          "type": "address",
          "internalType": "address"
        },
        {
          "name": "token_",
          "type": "address",
          "internalType": "address"
        },
        {
          "name": "paymentReceiver_",
          "type": "address",
          "internalType": "address"
        }
      ],
      "outputs": [
        {
          "name": "amount_",
          "type": "uint256",
          "internalType": "uint256"
        }
      ],
      "stateMutability": "view"
    },
    {
      "type": "function",
      "name": "url",
      "inputs": [],
      "outputs": [
        {
          "name": "",
          "type": "string",
          "internalType": "string"
        }
      ],
      "stateMutability": "view"
    },
    {
      "type": "function",
      "name": "validPaymentOrder",
      "inputs": [
        {
          "name": "order_",
          "type": "tuple",
          "internalType": "struct IERC20PaymentClientBase_v2.PaymentOrder",
          "components": [
            {
              "name": "recipient",
              "type": "address",
              "internalType": "address"
            },
            {
              "name": "paymentToken",
              "type": "address",
              "internalType": "address"
            },
            {
              "name": "amount",
              "type": "uint256",
              "internalType": "uint256"
            },
            {
              "name": "originChainId",
              "type": "uint256",
              "internalType": "uint256"
            },
            {
              "name": "targetChainId",
              "type": "uint256",
              "internalType": "uint256"
            },
            {
              "name": "flags",
              "type": "bytes32",
              "internalType": "bytes32"
            },
            {
              "name": "data",
              "type": "bytes32[]",
              "internalType": "bytes32[]"
            }
          ]
        }
      ],
      "outputs": [
        {
          "name": "isValid_",
          "type": "bool",
          "internalType": "bool"
        }
      ],
      "stateMutability": "view"
    },
    {
      "type": "function",
      "name": "version",
      "inputs": [],
      "outputs": [
        {
          "name": "",
          "type": "uint256",
          "internalType": "uint256"
        },
        {
          "name": "",
          "type": "uint256",
          "internalType": "uint256"
        },
        {
          "name": "",
          "type": "uint256",
          "internalType": "uint256"
        }
      ],
      "stateMutability": "view"
    },
    {
      "type": "event",
      "name": "Initialized",
      "inputs": [
        {
          "name": "version",
          "type": "uint64",
          "indexed": false,
          "internalType": "uint64"
        }
      ],
      "anonymous": false
    },
    {
      "type": "event",
      "name": "ModuleInitialized",
      "inputs": [
        {
          "name": "parentOrchestrator",
          "type": "address",
          "indexed": true,
          "internalType": "address"
        },
        {
          "name": "metadata",
          "type": "tuple",
          "indexed": false,
          "internalType": "struct IModule_v1.Metadata",
          "components": [
            {
              "name": "majorVersion",
              "type": "uint256",
              "internalType": "uint256"
            },
            {
              "name": "minorVersion",
              "type": "uint256",
              "internalType": "uint256"
            },
            {
              "name": "patchVersion",
              "type": "uint256",
              "internalType": "uint256"
            },
            {
              "name": "url",
              "type": "string",
              "internalType": "string"
            },
            {
              "name": "title",
              "type": "string",
              "internalType": "string"
            }
          ]
        }
      ],
      "anonymous": false
    },
    {
      "type": "event",
      "name": "PaymentOrderProcessed",
      "inputs": [
        {
          "name": "paymentClient",
          "type": "address",
          "indexed": true,
          "internalType": "address"
        },
        {
          "name": "recipient",
          "type": "address",
          "indexed": true,
          "internalType": "address"
        },
        {
          "name": "paymentToken",
          "type": "address",
          "indexed": true,
          "internalType": "address"
        },
        {
          "name": "amount",
          "type": "uint256",
          "indexed": false,
          "internalType": "uint256"
        },
        {
          "name": "originChainId",
          "type": "uint256",
          "indexed": false,
          "internalType": "uint256"
        },
        {
          "name": "targetChainId",
          "type": "uint256",
          "indexed": false,
          "internalType": "uint256"
        },
        {
          "name": "flags",
          "type": "bytes32",
          "indexed": false,
          "internalType": "bytes32"
        },
        {
          "name": "data",
          "type": "bytes32[]",
          "indexed": false,
          "internalType": "bytes32[]"
        }
      ],
      "anonymous": false
    },
    {
      "type": "event",
      "name": "PaymentOrderQueued",
      "inputs": [
        {
          "name": "orderId_",
          "type": "uint256",
          "indexed": true,
          "internalType": "uint256"
        },
        {
          "name": "recipient_",
          "type": "address",
          "indexed": true,
          "internalType": "address"
        },
        {
          "name": "token_",
          "type": "address",
          "indexed": true,
          "internalType": "address"
        },
        {
          "name": "client_",
          "type": "address",
          "indexed": false,
          "internalType": "address"
        },
        {
          "name": "amount_",
          "type": "uint256",
          "indexed": false,
          "internalType": "uint256"
        },
        {
          "name": "flags_",
          "type": "uint256",
          "indexed": false,
          "internalType": "uint256"
        }
      ],
      "anonymous": false
    },
    {
      "type": "event",
      "name": "PaymentOrderStateChanged",
      "inputs": [
        {
          "name": "orderId_",
          "type": "uint256",
          "indexed": true,
          "internalType": "uint256"
        },
        {
          "name": "state_",
          "type": "uint8",
          "indexed": false,
          "internalType": "enum IPP_Queue_v1.RedemptionState"
        },
        {
          "name": "client_",
          "type": "address",
          "indexed": true,
          "internalType": "address"
        },
        {
          "name": "executedBy_",
          "type": "address",
          "indexed": true,
          "internalType": "address"
        }
      ],
      "anonymous": false
    },
    {
      "type": "event",
      "name": "PaymentOrderTimingSkip",
      "inputs": [
        {
          "name": "orderId_",
          "type": "uint256",
          "indexed": true,
          "internalType": "uint256"
        },
        {
          "name": "client_",
          "type": "address",
          "indexed": true,
          "internalType": "address"
        },
        {
          "name": "reason_",
          "type": "uint8",
          "indexed": false,
          "internalType": "uint8"
        },
        {
          "name": "currentTime_",
          "type": "uint256",
          "indexed": false,
          "internalType": "uint256"
        }
      ],
      "anonymous": false
    },
    {
      "type": "event",
      "name": "PaymentQueueExecuted",
      "inputs": [
        {
          "name": "executor_",
          "type": "address",
          "indexed": true,
          "internalType": "address"
        },
        {
          "name": "client_",
          "type": "address",
          "indexed": true,
          "internalType": "address"
        },
        {
          "name": "count_",
          "type": "uint256",
          "indexed": false,
          "internalType": "uint256"
        }
      ],
      "anonymous": false
    },
    {
      "type": "event",
      "name": "ProtocolFeeTransferred",
      "inputs": [
        {
          "name": "token",
          "type": "address",
          "indexed": true,
          "internalType": "address"
        },
        {
          "name": "treasury",
          "type": "address",
          "indexed": true,
          "internalType": "address"
        },
        {
          "name": "feeAmount",
          "type": "uint256",
          "indexed": false,
          "internalType": "uint256"
        }
      ],
      "anonymous": false
    },
    {
      "type": "event",
      "name": "TokensReleased",
      "inputs": [
        {
          "name": "recipient",
          "type": "address",
          "indexed": true,
          "internalType": "address"
        },
        {
          "name": "token",
          "type": "address",
          "indexed": true,
          "internalType": "address"
        },
        {
          "name": "amount",
          "type": "uint256",
          "indexed": false,
          "internalType": "uint256"
        }
      ],
      "anonymous": false
    },
    {
      "type": "event",
      "name": "UnclaimableAmountAdded",
      "inputs": [
        {
          "name": "paymentClient",
          "type": "address",
          "indexed": true,
          "internalType": "address"
        },
        {
          "name": "token",
          "type": "address",
          "indexed": true,
          "internalType": "address"
        },
        {
          "name": "recipient",
          "type": "address",
          "indexed": true,
          "internalType": "address"
        },
        {
          "name": "amount",
          "type": "uint256",
          "indexed": false,
          "internalType": "uint256"
        }
      ],
      "anonymous": false
    },
    {
      "type": "event",
      "name": "UnclaimableAmountClaimedToTreasury",
      "inputs": [
        {
          "name": "originalReceiver_",
          "type": "address",
          "indexed": true,
          "internalType": "address"
        },
        {
          "name": "treasury_",
          "type": "address",
          "indexed": true,
          "internalType": "address"
        },
        {
          "name": "amount_",
          "type": "uint256",
          "indexed": true,
          "internalType": "uint256"
        },
        {
          "name": "queueOperator_",
          "type": "address",
          "indexed": false,
          "internalType": "address"
        }
      ],
      "anonymous": false
    },
    {
      "type": "error",
      "name": "AddressEmptyCode",
      "inputs": [
        {
          "name": "target",
          "type": "address",
          "internalType": "address"
        }
      ]
    },
    {
      "type": "error",
      "name": "AddressInsufficientBalance",
      "inputs": [
        {
          "name": "account",
          "type": "address",
          "internalType": "address"
        }
      ]
    },
    {
      "type": "error",
      "name": "FailedInnerCall",
      "inputs": []
    },
    {
      "type": "error",
      "name": "InvalidInitialization",
      "inputs": []
    },
    {
      "type": "error",
      "name": "Library__LinkedIdList__IdNotConsecutive",
      "inputs": []
    },
    {
      "type": "error",
      "name": "Library__LinkedIdList__InvalidId",
      "inputs": []
    },
    {
      "type": "error",
      "name": "Library__LinkedIdList__InvalidNewId",
      "inputs": []
    },
    {
      "type": "error",
      "name": "Library__LinkedIdList__InvalidPosition",
      "inputs": []
    },
    {
      "type": "error",
      "name": "Module_OrchestratorCallbackFailed",
      "inputs": [
        {
          "name": "funcSig",
          "type": "string",
          "internalType": "string"
        }
      ]
    },
    {
      "type": "error",
      "name": "Module_PP_Queue_PaymentFailed",
      "inputs": [
        {
          "name": "client_",
          "type": "address",
          "internalType": "address"
        },
        {
          "name": "recipient_",
          "type": "address",
          "internalType": "address"
        },
        {
          "name": "token_",
          "type": "address",
          "internalType": "address"
        },
        {
          "name": "amount_",
          "type": "uint256",
          "internalType": "uint256"
        }
      ]
    },
    {
      "type": "error",
      "name": "Module__CallerNotAuthorized",
      "inputs": [
        {
          "name": "role",
          "type": "bytes32",
          "internalType": "bytes32"
        },
        {
          "name": "caller",
          "type": "address",
          "internalType": "address"
        }
      ]
    },
    {
      "type": "error",
      "name": "Module__InvalidAddress",
      "inputs": []
    },
    {
      "type": "error",
      "name": "Module__InvalidMetadata",
      "inputs": []
    },
    {
      "type": "error",
      "name": "Module__InvalidOrchestratorAddress",
      "inputs": []
    },
    {
      "type": "error",
      "name": "Module__OnlyCallableByOrchestrator",
      "inputs": []
    },
    {
      "type": "error",
      "name": "Module__OnlyCallableByPaymentClient",
      "inputs": []
    },
    {
      "type": "error",
      "name": "Module__PP_Queue_EmptyQueue",
      "inputs": []
    },
    {
      "type": "error",
      "name": "Module__PP_Queue_FeeAmountToHigh",
      "inputs": [
        {
          "name": "amount_",
          "type": "uint256",
          "internalType": "uint256"
        }
      ]
    },
    {
      "type": "error",
      "name": "Module__PP_Queue_InvalidAmount",
      "inputs": [
        {
          "name": "amount_",
          "type": "uint256",
          "internalType": "uint256"
        }
      ]
    },
    {
      "type": "error",
      "name": "Module__PP_Queue_InvalidChainId",
      "inputs": [
        {
          "name": "originChainId_",
          "type": "uint256",
          "internalType": "uint256"
        },
        {
          "name": "targetChainId_",
          "type": "uint256",
          "internalType": "uint256"
        },
        {
          "name": "currentChainId_",
          "type": "uint256",
          "internalType": "uint256"
        }
      ]
    },
    {
      "type": "error",
      "name": "Module__PP_Queue_InvalidClientAddress",
      "inputs": [
        {
          "name": "client_",
          "type": "address",
          "internalType": "address"
        }
      ]
    },
    {
      "type": "error",
      "name": "Module__PP_Queue_InvalidConfig",
      "inputs": []
    },
    {
      "type": "error",
      "name": "Module__PP_Queue_InvalidFeeAmount",
      "inputs": [
        {
          "name": "amount_",
          "type": "uint256",
          "internalType": "uint256"
        }
      ]
    },
    {
      "type": "error",
      "name": "Module__PP_Queue_InvalidFlagsOrData",
      "inputs": [
        {
          "name": "flags_",
          "type": "bytes32",
          "internalType": "bytes32"
        },
        {
          "name": "dataLength_",
          "type": "uint256",
          "internalType": "uint256"
        }
      ]
    },
    {
      "type": "error",
      "name": "Module__PP_Queue_InvalidOrderId",
      "inputs": [
        {
          "name": "client_",
          "type": "address",
          "internalType": "address"
        },
        {
          "name": "orderId_",
          "type": "uint256",
          "internalType": "uint256"
        }
      ]
    },
    {
      "type": "error",
      "name": "Module__PP_Queue_InvalidRecipient",
      "inputs": [
        {
          "name": "recipient_",
          "type": "address",
          "internalType": "address"
        }
      ]
    },
    {
      "type": "error",
      "name": "Module__PP_Queue_InvalidState",
      "inputs": []
    },
    {
      "type": "error",
      "name": "Module__PP_Queue_InvalidStateTransition",
      "inputs": [
        {
          "name": "orderId_",
          "type": "uint256",
          "internalType": "uint256"
        },
        {
          "name": "currentState_",
          "type": "uint8",
          "internalType": "enum IPP_Queue_v1.RedemptionState"
        },
        {
          "name": "newState_",
          "type": "uint8",
          "internalType": "enum IPP_Queue_v1.RedemptionState"
        }
      ]
    },
    {
      "type": "error",
      "name": "Module__PP_Queue_InvalidTreasuryAddress",
      "inputs": [
        {
          "name": "treasury_",
          "type": "address",
          "internalType": "address"
        }
      ]
    },
    {
      "type": "error",
      "name": "Module__PP_Queue_OnlyCallableByClient",
      "inputs": []
    },
    {
      "type": "error",
      "name": "Module__PP_Queue_QueueOperationFailed",
      "inputs": [
        {
          "name": "client_",
          "type": "address",
          "internalType": "address"
        }
      ]
    },
    {
      "type": "error",
      "name": "Module__PP_Queue_Unauthorized",
      "inputs": []
    },
    {
      "type": "error",
      "name": "Module__PP_Queue_ZeroAmount",
      "inputs": []
    },
    {
      "type": "error",
      "name": "Module__PaymentProcessor__CannotCallOnOtherClientsOrders",
      "inputs": []
    },
    {
      "type": "error",
      "name": "Module__PaymentProcessor__NothingToClaim",
      "inputs": [
        {
          "name": "paymentClient",
          "type": "address",
          "internalType": "address"
        },
        {
          "name": "paymentReceiver",
          "type": "address",
          "internalType": "address"
        }
      ]
    },
    {
      "type": "error",
      "name": "Module__PaymentProcessor__OnlyCallableByModule",
      "inputs": []
    },
    {
      "type": "error",
      "name": "NotInitializing",
      "inputs": []
    },
    {
      "type": "error",
      "name": "SafeERC20FailedOperation",
      "inputs": [
        {
          "name": "token",
          "type": "address",
          "internalType": "address"
        }
      ]
    }
  ],
  "bytecode": {
    "object": "0x60a060405234801562000010575f80fd5b505f6080526200001f62000025565b620000d9565b7ff0c57e16840df040f15088dc2f81fe391c3923bec73e23a9662efc9c229c6a00805468010000000000000000900460ff1615620000765760405163f92ee8a960e01b815260040160405180910390fd5b80546001600160401b0390811614620000d65780546001600160401b0319166001600160401b0390811782556040519081527fc7f505b2f371ae2175ee4913f4499e1f2633a7b5936321eed1cdaeb6115181d29060200160405180910390a15b50565b60805161458f620000ef5f395f505061458f5ff3fe608060405234801561000f575f80fd5b50600436106101e7575f3560e01c80637ce5947111610109578063bcb619201161009e578063e151fc611161006e578063e151fc6114610477578063ee8b4f941461048a578063f14ba610146104aa578063f7698285146104bd575f80fd5b8063bcb61920146103f1578063cbbfe16814610404578063ceb43f5414610424578063df40044a14610466575f80fd5b80639d6de168116100d95780639d6de1681461039f578063aca51e3e146103b2578063b66a870c146103ce578063b74795d9146103e1575f80fd5b80637ce594711461035e5780637da0a8771461037157806381ac0367146103795780639b5674ab1461038c575f80fd5b80634d45e9aa1161017f5780636c67e8071161014f5780636c67e8071461031d57806373d7764e1461033057806375a2dc05146103435780637998a1c414610356575f80fd5b80634d45e9aa146102b957806354fd4d50146102de5780635600f04f14610302578063572b6c051461030a575f80fd5b806324e30270116101ba57806324e302701461026b578063271e42831461027e578063272bbd44146102915780634a79d50c146102a4575f80fd5b806301ffc9a7146101eb5780630e4eaa4f146102135780631720628214610243578063195254ad14610258575b5f80fd5b6101fe6101f93660046138ff565b6104d0565b60405190151581526020015b60405180910390f35b7f51554555455f4f50455241544f525f524f4c455f41444d494e000000000000005b60405190815260200161020a565b610256610251366004613945565b610515565b005b6101fe610266366004613960565b6105f9565b61025661027936600461398e565b6108a8565b61025661028c366004613a06565b610afc565b61025661029f36600461398e565b610cb8565b6102ac610e87565b60405161020a9190613a9b565b603c546001600160a01b03165b6040516001600160a01b03909116815260200161020a565b6001546002546003546040805193845260208401929092529082015260600161020a565b6102ac610f1a565b6101fe610318366004613945565b610f2c565b61025661032b366004613960565b610f98565b61025661033e366004613945565b61119e565b610235610351366004613945565b6111ac565b61023561121f565b61025661036c366004613945565b611377565b6102c66113c8565b610256610387366004613a06565b61143c565b61023561039a366004613945565b61148b565b6102566103ad366004613945565b6114a8565b7251554555455f4f50455241544f525f524f4c4560681b610235565b6102566103dc366004613baa565b61154c565b5f546001600160a01b03166102c6565b6102566103ff366004613960565b61169e565b610417610412366004613960565b611875565b60405161020a9190613cbc565b610235610432366004613a06565b6001600160a01b039283165f908152603b602090815260408083209486168352938152838220929094168152925290205490565b603d546001600160a01b03166102c6565b610256610485366004613945565b611a4b565b61049d610498366004613945565b611b99565b60405161020a9190613da0565b6102356104b8366004613945565b611cbc565b6101fe6104cb366004613e72565b611cdc565b5f6001600160e01b031982166313adbc2d60e31b148061050057506001600160e01b03198216632af7349960e01b145b8061050f575061050f82611ce6565b92915050565b5f546040805163d09edf3160e01b815290516105ed926001600160a01b03169163d09edf319160048083019260209291908290030181865afa15801561055d573d5f803e3d5ffd5b505050506040513d601f19601f820116820180604052508101906105819190613f24565b6001600160a01b031663b3ecf2366040518163ffffffff1660e01b8152600401602060405180830381865afa1580156105bc573d5f803e3d5ffd5b505050506040513d601f19601f820116820180604052508101906105e09190613f3f565b6105e8611d25565b611d75565b6105f681611e87565b50565b5f7251554555455f4f50455241544f525f524f4c4560681b6106d25f8054906101000a90046001600160a01b03166001600160a01b031663d09edf316040518163ffffffff1660e01b8152600401602060405180830381865afa158015610662573d5f803e3d5ffd5b505050506040513d601f19601f820116820180604052508101906106869190613f24565b60405163fdd5205f60e01b8152306004820152602481018490526001600160a01b03919091169063fdd5205f906044015b602060405180830381865afa1580156105bc573d5f803e3d5ffd5b6106dc8484611ef0565b61070f5760405162f570a360e41b81526001600160a01b0384166004820152602481018590526044015b60405180910390fd5b6001600160a01b0383165f90815260396020908152604080832087845290915290206002600782015460ff16600381111561074c5761074c613c88565b1461076a5760405163309d2f7760e11b815260040160405180910390fd5b60028101546001820154600a8301546040516370a0823160e01b81526001600160a01b0391821660048201529116906370a0823190602401602060405180830381865afa1580156107bd573d5f803e3d5ffd5b505050506040513d601f19601f820116820180604052508101906107e19190613f3f565b101561080957600281015460405163016ceee360e71b81526004810191909152602401610706565b61081585856001611f36565b61081f8585611ff0565b6001810154600a820154603c54600284015461084c936001600160a01b039081169381169216905f612036565b9250826108a057600a810154603c546001830154600284015460405162037f9b60ed1b81526001600160a01b0394851660048201529284166024840152921660448201526064810191909152608401610706565b505092915050565b5f80546040805163d09edf3160e01b815290518693926001600160a01b03169163d09edf319160048083019260209291908290030181865afa1580156108f0573d5f803e3d5ffd5b505050506040513d601f19601f820116820180604052508101906109149190613f24565b60405163fdd5205f60e01b8152306004820152602481018490526001600160a01b03919091169063fdd5205f90604401602060405180830381865afa15801561095f573d5f803e3d5ffd5b505050506040513d601f19601f820116820180604052508101906109839190613f3f565b9050610a275f8054906101000a90046001600160a01b03166001600160a01b031663d09edf316040518163ffffffff1660e01b8152600401602060405180830381865afa1580156109d6573d5f803e3d5ffd5b505050506040513d601f19601f820116820180604052508101906109fa9190613f24565b6001600160a01b031663248a9ca3836040518263ffffffff1660e01b81526004016106b791815260200190565b5f8054906101000a90046001600160a01b03166001600160a01b031663d09edf316040518163ffffffff1660e01b8152600401602060405180830381865afa158015610a75573d5f803e3d5ffd5b505050506040513d601f19601f82011682018060405250810190610a999190613f24565b6001600160a01b0316637d540a648686866040518463ffffffff1660e01b8152600401610ac893929190613f56565b5f604051808303815f87803b158015610adf575f80fd5b505af1158015610af1573d5f803e3d5ffd5b505050505050505050565b7251554555455f4f50455241544f525f524f4c4560681b610b645f8054906101000a90046001600160a01b03166001600160a01b031663d09edf316040518163ffffffff1660e01b8152600401602060405180830381865afa158015610662573d5f803e3d5ffd5b6001600160a01b038085165f908152603b6020908152604080832084881684528252808320938616835292905220545f03610bc5576040516307461ff560e51b81526001600160a01b03808616600483015283166024820152604401610706565b6001600160a01b038481165f908152603b60209081526040808320878516808552908352818420878616855290925282208054929055603d549192610c0d92309116846122df565b836001600160a01b0316836001600160a01b03167f3737f2a73c794dafe53d8aeea06810a9ebcf7167401b259406960e088e03f83083604051610c5291815260200190565b60405180910390a3603d5481906001600160a01b039081169085167fd5377d7376738a24af0c54b9f2d6db87a486b02e9ca2ad120a2feb6a585f8072610c96611d25565b6040516001600160a01b03909116815260200160405180910390a45050505050565b5f80546040805163d09edf3160e01b815290518693926001600160a01b03169163d09edf319160048083019260209291908290030181865afa158015610d00573d5f803e3d5ffd5b505050506040513d601f19601f82011682018060405250810190610d249190613f24565b60405163fdd5205f60e01b8152306004820152602481018490526001600160a01b03919091169063fdd5205f90604401602060405180830381865afa158015610d6f573d5f803e3d5ffd5b505050506040513d601f19601f82011682018060405250810190610d939190613f3f565b9050610de65f8054906101000a90046001600160a01b03166001600160a01b031663d09edf316040518163ffffffff1660e01b8152600401602060405180830381865afa1580156109d6573d5f803e3d5ffd5b5f8054906101000a90046001600160a01b03166001600160a01b031663d09edf316040518163ffffffff1660e01b8152600401602060405180830381865afa158015610e34573d5f803e3d5ffd5b505050506040513d601f19601f82011682018060405250810190610e589190613f24565b6001600160a01b031663648154538686866040518463ffffffff1660e01b8152600401610ac893929190613f56565b606060016004018054610e9990613fad565b80601f0160208091040260200160405190810160405280929190818152602001828054610ec590613fad565b8015610f105780601f10610ee757610100808354040283529160200191610f10565b820191905f5260205f20905b815481529060010190602001808311610ef357829003601f168201915b5050505050905090565b606060016003018054610e9990613fad565b5f805460405163572b6c0560e01b81526001600160a01b0384811660048301529091169063572b6c0590602401602060405180830381865afa158015610f74573d5f803e3d5ffd5b505050506040513d601f19601f8201168201806040525081019061050f9190613fe5565b5f80546040805163d09edf3160e01b815290518593926001600160a01b03169163d09edf319160048083019260209291908290030181865afa158015610fe0573d5f803e3d5ffd5b505050506040513d601f19601f820116820180604052508101906110049190613f24565b60405163fdd5205f60e01b8152306004820152602481018490526001600160a01b03919091169063fdd5205f90604401602060405180830381865afa15801561104f573d5f803e3d5ffd5b505050506040513d601f19601f820116820180604052508101906110739190613f3f565b90506110c65f8054906101000a90046001600160a01b03166001600160a01b031663d09edf316040518163ffffffff1660e01b8152600401602060405180830381865afa1580156109d6573d5f803e3d5ffd5b5f8054906101000a90046001600160a01b03166001600160a01b031663d09edf316040518163ffffffff1660e01b8152600401602060405180830381865afa158015611114573d5f803e3d5ffd5b505050506040513d601f19601f820116820180604052508101906111389190613f24565b60405163385e205560e21b8152600481018690526001600160a01b038581166024830152919091169063e1788154906044015b5f604051808303815f87803b158015611182575f80fd5b505af1158015611194573d5f803e3d5ffd5b5050505050505050565b806111a881612354565b5050565b6001600160a01b0381165f9081526038602090815260408083205f19845260020190915281205481036111fd5760405163e7f9afc560e01b81526001600160a01b0383166004820152602401610706565b6001600160a01b0382165f90815260386020526040902061050f905f1961238d565b5f61137260016040518060a00160405290815f8201548152602001600182015481526020016002820154815260200160038201805461125d90613fad565b80601f016020809104026020016040519081016040528092919081815260200182805461128990613fad565b80156112d45780601f106112ab576101008083540402835291602001916112d4565b820191905f5260205f20905b8154815290600101906020018083116112b757829003601f168201915b505050505081526020016004820180546112ed90613fad565b80601f016020809104026020016040519081016040528092919081815260200182805461131990613fad565b80156113645780601f1061133b57610100808354040283529160200191611364565b820191905f5260205f20905b81548152906001019060200180831161134757829003601f168201915b5050505050815250506123d8565b905090565b5f546040805163d09edf3160e01b815290516113bf926001600160a01b03169163d09edf319160048083019260209291908290030181865afa15801561055d573d5f803e3d5ffd5b6105f681612416565b5f805f9054906101000a90046001600160a01b03166001600160a01b0316637da0a8776040518163ffffffff1660e01b8152600401602060405180830381865afa158015611418573d5f803e3d5ffd5b505050506040513d601f19601f820116820180604052508101906113729190613f24565b6114498383610432611d25565b5f0361147b576040516307461ff560e51b81526001600160a01b03808516600483015282166024820152604401610706565b61148683838361247f565b505050565b6001600160a01b0381165f9081526038602052604081205461050f565b5f546001600160a01b03166342f6e3896114c0611d25565b6040516001600160e01b031960e084901b1681526001600160a01b039091166004820152602401602060405180830381865afa158015611502573d5f803e3d5ffd5b505050506040513d601f19601f820116820180604052508101906115269190613fe5565b61154357604051633c9fdabb60e01b815260040160405180910390fd5b6105f681612516565b7ff0c57e16840df040f15088dc2f81fe391c3923bec73e23a9662efc9c229c6a00805468010000000000000000810460ff16159067ffffffffffffffff165f811580156115965750825b90505f8267ffffffffffffffff1660011480156115b25750303b155b9050811580156115c0575080155b156115de5760405163f92ee8a960e01b815260040160405180910390fd5b845467ffffffffffffffff19166001178555831561161257845468ff00000000000000001916680100000000000000001785555b61161c88886125d1565b5f8087806020019051810190611632919061400f565b9150915061163f82612416565b61164881611e87565b5050831561119457845468ff000000000000000019168555604051600181527fc7f505b2f371ae2175ee4913f4499e1f2633a7b5936321eed1cdaeb6115181d29060200160405180910390a15050505050505050565b5f80546040805163d09edf3160e01b815290518593926001600160a01b03169163d09edf319160048083019260209291908290030181865afa1580156116e6573d5f803e3d5ffd5b505050506040513d601f19601f8201168201806040525081019061170a9190613f24565b60405163fdd5205f60e01b8152306004820152602481018490526001600160a01b03919091169063fdd5205f90604401602060405180830381865afa158015611755573d5f803e3d5ffd5b505050506040513d601f19601f820116820180604052508101906117799190613f3f565b90506117cc5f8054906101000a90046001600160a01b03166001600160a01b031663d09edf316040518163ffffffff1660e01b8152600401602060405180830381865afa1580156109d6573d5f803e3d5ffd5b5f8054906101000a90046001600160a01b03166001600160a01b031663d09edf316040518163ffffffff1660e01b8152600401602060405180830381865afa15801561181a573d5f803e3d5ffd5b505050506040513d601f19601f8201168201806040525081019061183e9190613f24565b604051632e99be7f60e21b8152600481018690526001600160a01b038581166024830152919091169063ba66f9fc9060440161116b565b6118e46040805161018081019091525f60a0820181815260c0830182905260e08301829052610100830182905261012083018290526101408301919091526060610160830152819081526020015f81526020015f81526020015f81526020015f6001600160a01b031681525090565b6118ee8383611ef0565b61191c5760405162f570a360e41b81526001600160a01b038316600482015260248101849052604401610706565b6001600160a01b038083165f9081526039602090815260408083208784528252918290208251610180810184528154851660a08201908152600183015490951660c0820152600282015460e08201526003820154610100820152600482015461012082015260058201546101408201526006820180548551818602810186019096528086529195929486948693610160870193918301828280156119dd57602002820191905f5260205f20905b8154815260200190600101908083116119c9575b505050919092525050508152600782015460209091019060ff166003811115611a0857611a08613c88565b6003811115611a1957611a19613c88565b81526008820154602082015260098201546040820152600a909101546001600160a01b03166060909101529392505050565b80611a5581612354565b5f546001600160a01b03166342f6e389611a6d611d25565b6040516001600160e01b031960e084901b1681526001600160a01b039091166004820152602401602060405180830381865afa158015611aaf573d5f803e3d5ffd5b505050506040513d601f19601f82011682018060405250810190611ad39190613fe5565b611af057604051633c9fdabb60e01b815260040160405180910390fd5b6060826001600160a01b031663c0231ff66040518163ffffffff1660e01b81526004015f604051808303815f875af1158015611b2e573d5f803e3d5ffd5b505050506040513d5f823e601f3d908101601f19168201604052611b5591908101906140fd565b505080519091505f5b81811015611b9257611b89838281518110611b7b57611b7b61425d565b6020026020010151866126ca565b50600101611b5e565b5050505050565b6001600160a01b0381165f9081526038602052604081205460609103611bd157604080515f80825260208201909252905b5092915050565b6001600160a01b0382165f9081526038602052604081205467ffffffffffffffff811115611c0157611c01613aad565b604051908082528060200260200182016040528015611c2a578160200160208202803683370190505b506001600160a01b0384165f908152603860205260408120919250908190611c53905f1961238d565b90505b5f198114611cb357808383611c6a81614285565b945081518110611c7c57611c7c61425d565b6020908102919091018101919091526001600160a01b0386165f908152603890915260409020611cac908261238d565b9050611c56565b50909392505050565b6001600160a01b0381165f9081526038602052604081206001015461050f565b5f61050f82612915565b5f6001600160e01b03198216632ff60c8760e11b1480611d1657506001600160e01b03198216632af7349960e01b145b8061050f575061050f826129a9565b5f366014611d3233610f2c565b8015611d3e5750808210155b15611d6d575f36611d4f838561429d565b611d5a9282906142b0565b611d63916142d7565b60601c9250505090565b339250505090565b5f8054906101000a90046001600160a01b03166001600160a01b031663d09edf316040518163ffffffff1660e01b8152600401602060405180830381865afa158015611dc3573d5f803e3d5ffd5b505050506040513d601f19601f82011682018060405250810190611de79190613f24565b60405163a883867d60e01b8152600481018490526001600160a01b038381166024830152919091169063a883867d90604401602060405180830381865afa158015611e34573d5f803e3d5ffd5b505050506040513d601f19601f82011682018060405250810190611e589190613fe5565b6111a8576040516342abbb7760e01b8152600481018390526001600160a01b0382166024820152604401610706565b6001600160a01b0381161580611ea557506001600160a01b03811630145b15611ece5760405163158a815160e31b81526001600160a01b0382166004820152602401610706565b603d80546001600160a01b0319166001600160a01b0392909216919091179055565b6001600160a01b038082165f8181526039602090815260408083208784529091528120600a810154919390929116148015611f2e5750600981015415155b949350505050565b6001600160a01b0382165f90815260396020908152604080832086845290915290206007810154611f6c90859060ff16846129dd565b5060078101805483919060ff19166001836003811115611f8e57611f8e613c88565b0217905550611f9b611d25565b600a8201546040516001600160a01b03928316929091169086907f3a75e4822574db6690013a0aac0ea63058130a6f327921c57c63d54d26ffe1fe90611fe290879061430a565b60405180910390a450505050565b6001600160a01b0381165f9081526038602052604081206120119084612aa9565b6001600160a01b0383165f908152603860205260409020909150611486908285612b79565b60408051808201909152601881527f70726f636573735061796d656e747328616464726573732900000000000000006020909101525f80808061209a867fe151fc6190baec3450343db0d9f2e5e164ab993e91d2b108dad805389f7bc65087612c26565b9250925092505f6120ad8a8a8a86612caa565b905080156121c157896001600160a01b0316886001600160a01b03167f3737f2a73c794dafe53d8aeea06810a9ebcf7167401b259406960e088e03f830856040516120fa91815260200190565b60405180910390a36001945083156121bc576121216001600160a01b038b168a84876122df565b896001600160a01b0316826001600160a01b03167f3737f2a73c794dafe53d8aeea06810a9ebcf7167401b259406960e088e03f8308660405161216691815260200190565b60405180910390a3816001600160a01b03168a6001600160a01b03167f81535d361819544361f80ddbe5071aef378a8ecba1c52f2c45fe3335234c4331866040516121b391815260200190565b60405180910390a35b612275565b6121cd8a8a308a612caa565b90508061220e5760405162037f9b60ed1b81526001600160a01b03808b166004830152808a1660248301528b16604482015260648101889052608401610706565b61221a898b8a8a612dbd565b876001600160a01b03168a6001600160a01b03168a6001600160a01b03167fbff6d112ab4c9d4a5f437492b210126678d87e510e41c7d8650c660302fb06b08a60405161226991815260200190565b60405180910390a45f94505b604051631667d8c360e31b81526001600160a01b038b81166004830152602482018990528a169063b33ec618906044015f604051808303815f87803b1580156122bc575f80fd5b505af11580156122ce573d5f803e3d5ffd5b505050505050505095945050505050565b604080516001600160a01b0385811660248301528416604482015260648082018490528251808303909101815260849091019091526020810180517bffffffffffffffffffffffffffffffffffffffffffffffffffffffff166323b872dd60e01b17905261234e908590612e08565b50505050565b61235c611d25565b6001600160a01b0316816001600160a01b0316146105f65760405163c0cbb5a760e01b815260040160405180910390fd5b5f8181526002830160205260408120548390839083036123c057604051637bfea7d960e11b815260040160405180910390fd5b5050505f908152600291909101602052604090205490565b5f815f0151826060015183608001516040516020016123f993929190614318565b604051602081830303815290604052805190602001209050919050565b6001600160a01b038116158061243457506001600160a01b03811630145b1561245d5760405163158a815160e31b81526001600160a01b0382166004820152602401610706565b603c80546001600160a01b0319166001600160a01b0392909216919091179055565b6001600160a01b038381165f908152603b6020908152604080832086851680855290835281842094861684529390915281208054919055906124c3903084846122df565b826001600160a01b0316826001600160a01b03167f3737f2a73c794dafe53d8aeea06810a9ebcf7167401b259406960e088e03f8308360405161250891815260200190565b60405180910390a350505050565b8061252081612354565b6001600160a01b0382165f908152603860205260408120612542905f1961238d565b90505f1981036125655760405163578cb8d960e01b815260040160405180910390fd5b5f5b61257084612e69565b156125855761257e81614285565b9050612567565b836001600160a01b0316612597611d25565b6001600160a01b03167f635cdafb2aeaf06f68681649c1e9be54e7bb8eb1e6db5047a084c10edb0ff6da8360405161250891815260200190565b6125d961304d565b6001600160a01b03821661260057604051637280679360e01b815260040160405180910390fd5b5f80546001600160a01b0319166001600160a01b0384161790556126238161309d565b61264057604051637511254160e01b815260040160405180910390fd5b8051600190815560208201516002556040820151600355606082015182919060049061266c9082614386565b50608082015160048201906126819082614386565b50905050816001600160a01b03167fd5f3f84c2e1816ce290af84d002663800b02f2985d770cdd335de76fd723b730826040516126be9190614446565b60405180910390a25050565b5f6126d483612915565b6126fc5760405163e7f9afc560e01b81526001600160a01b0383166004820152602401610706565b61270e8360a001518460c001516130f7565b6040805160a0810190915284815290915060208101600281526020808201849052426040808401919091526001600160a01b0380871660609485018190525f9081526039845282812087825284528290208551805182549084166001600160a01b031991821617835581860151600184018054919095169116179092559181015160028301559283015160038201556080830151600482015560a0830151600582015560c0830151805191939284926127cd92600685019201906138a2565b505050602082015160078201805460ff191660018360038111156127f3576127f3613c88565b0217905550604082810151600883015560608301516009830155608090920151600a90910180546001600160a01b0319166001600160a01b0392831617905583165f908152603860205220545f0361287c576001600160a01b0382165f90815260386020526040902061287c905f195f8181526002830160205260409020819055600190910155565b6001600160a01b0382165f90815260386020526040902061289d9082613139565b6001600160a01b038281165f818152603a60209081526040918290208590558681015187518884015160a08a015185519687529386015292840191909152831692169083907fa837d772ba58992214e1080aef87032a8931dc3830ced0782c40f6fa21dc79a79060600160405180910390a492915050565b5f806129298360a001518460c001516130f7565b9050612937835f01516131ab565b80156129465750604083015115155b8015612957575061295781336132ef565b801561296b575061296b8360200151613326565b801561297a5750606083015146145b80156129895750608083015146145b80156129a257506129a28360a001518460c001516133b5565b9392505050565b5f6001600160e01b0319821663e328951160e01b148061050f57506301ffc9a760e01b6001600160e01b031983161461050f565b5f808360038111156129f1576129f1613c88565b1480612a0e57506001836003811115612a0c57612a0c613c88565b145b15612a32578383836040516316e4f2ed60e31b81526004016107069392919061449c565b5f826003811115612a4557612a45613c88565b1480612a6257506001826003811115612a6057612a60613c88565b145b15612a9f576002836003811115612a7b57612a7b613c88565b14612a9f578383836040516316e4f2ed60e31b81526004016107069392919061449c565b5060019392505050565b5f818152600283016020526040812054839083908303612adc57604051637bfea7d960e11b815260040160405180910390fd5b5f198403612af057846001015492506108a0565b5f612afa86613406565b80519091505f5b81811015612b6e5786838281518110612b1c57612b1c61425d565b602002602001015103612b6657805f03612b37575f19612b5c565b82612b4360018361429d565b81518110612b5357612b5361425d565b60200260200101515b95505050506108a0565b600101612b01565b505050505092915050565b8281612b8582826134b1565b612ba257604051638f454d2d60e01b815260040160405180910390fd5b5f8481526002860160205260409020548590859085908114612bd757604051633065847560e01b815260040160405180910390fd5b5f86815260028901602052604080822080548a8452918320919091558782528190558854908990612c07836144bd565b9190505550876001015486036111945750505050506001929092015550565b5f805f83612c3b57505f915084905081612ca1565b5f80612c46876134d4565b915091508092506127108210612c7257604051631313208f60e21b815260048101839052602401610706565b8115612c9257612710612c85838a6144d2565b612c8f91906144e9565b94505b612c9c858961429d565b935050505b93509350939050565b604080516001600160a01b0385811660248301528481166044830152606480830185905283518084039091018152608490920183526020820180517bffffffffffffffffffffffffffffffffffffffffffffffffffffffff166323b872dd60e01b17905291515f928392839291891691612d249190614508565b5f604051808303815f865af19150503d805f8114612d5d576040519150601f19603f3d011682016040523d82523d5f602084013e612d62565b606091505b5091509150818015612d8c575080511580612d8c575080806020019051810190612d8c9190613fe5565b8015612da157506001600160a01b0387163b15155b15612db157600192505050611f2e565b505f9695505050505050565b6001600160a01b038085165f908152603b602090815260408083208785168452825280832093861683529290529081208054839290612dfd908490614523565b909155505050505050565b5f612e1c6001600160a01b03841683613626565b905080515f14158015612e40575080806020019051810190612e3e9190613fe5565b155b1561148657604051635274afe760e01b81526001600160a01b0384166004820152602401610706565b6001600160a01b0381165f9081526038602052604081208190612e8d905f1961238d565b90505f198103612e9f57505f92915050565b6001600160a01b0383165f90815260396020908152604080832084845290915290206002600782015460ff166003811115612edc57612edc613c88565b14612efa5760405163309d2f7760e11b815260040160405180910390fd5b6001810154600a8201546002830154612f20926001600160a01b03908116921690613633565b612f2d57505f9392505050565b604080516101808101825282546001600160a01b0390811660a08301908152600185015490911660c0830152600284015460e08301526003840154610100830152600484015461012083015260058401546101408301526006840180548451602082810282018101909652818152612a9f95889594889486949193869361016087019391929190830182828015612fe157602002820191905f5260205f20905b815481526020019060010190808311612fcd575b505050919092525050508152600782015460209091019060ff16600381111561300c5761300c613c88565b600381111561301d5761301d613c88565b81526008820154602082015260098201546040820152600a909101546001600160a01b0316606090910152613727565b7ff0c57e16840df040f15088dc2f81fe391c3923bec73e23a9662efc9c229c6a005468010000000000000000900460ff1661309b57604051631afcd79f60e31b815260040160405180910390fd5b565b5f8160600151515f036130b157505f919050565b8160800151515f036130c457505f919050565b81511580156130d557506020820151155b80156130e357506040820151155b156130ef57505f919050565b506001919050565b5f6001831615801590819061310c5750825115155b15611bca57825f60ff16815181106131265761312661425d565b60200260200101515f1c91505092915050565b818161314582826134b1565b8061314e575080155b1561316c5760405163582fbbaf60e01b815260040160405180910390fd5b6001840180545f90815260028601602052604080822086905585825281205f1990559084905584549085906131a083614285565b919050555050505050565b5f6001600160a01b03821615806131da57506131c5611d25565b6001600160a01b0316826001600160a01b0316145b806131ed57506001600160a01b03821630145b8061320457505f546001600160a01b038381169116145b806132e857505f546001600160a01b03166001600160a01b03166304baed9e6040518163ffffffff1660e01b8152600401602060405180830381865afa158015613250573d5f803e3d5ffd5b505050506040513d601f19601f820116820180604052508101906132749190613f24565b6001600160a01b031663fc0c546a6040518163ffffffff1660e01b8152600401602060405180830381865afa1580156132af573d5f803e3d5ffd5b505050506040513d601f19601f820116820180604052508101906132d39190613f24565b6001600160a01b0316826001600160a01b0316145b1592915050565b5f80831180156129a257506001600160a01b0382165f908152603a602052604090205461331d906001614523565b83149392505050565b5f6001600160a01b03821661333c57505f919050565b6040516370a0823160e01b81523060048201526001600160a01b038316906370a0823190602401602060405180830381865afa92505050801561339c575060408051601f3d908101601f1916820190925261339991810190613f3f565b60015b6133a757505f919050565b50600192915050565b919050565b5f8281805b60088160ff1610156133ea57600160ff82161b8316156133e257816133de81614285565b9250505b6001016133ba565b508084511480156133fd57506001821615155b95945050505050565b60605f825f015467ffffffffffffffff81111561342557613425613aad565b60405190808252806020026020018201604052801561344e578160200160208202803683370190505b505f195f908152600285016020526040812054919250905b5f198114611cb357808383815181106134815761348161425d565b6020908102919091018101919091525f9182526002860190526040902054816134a981614285565b925050613466565b5f818152600283016020526040812054158015906129a25750505f191415919050565b5f80546040805163030d028960e21b8152905183926001600160a01b031691630c340a249160048083019260209291908290030181865afa15801561351b573d5f803e3d5ffd5b505050506040513d601f19601f8201168201806040525081019061353f9190613f24565b6001600160a01b031663f2d638266040518163ffffffff1660e01b8152600401602060405180830381865afa15801561357a573d5f803e3d5ffd5b505050506040513d601f19601f8201168201806040525081019061359e9190613f24565b5f54604051634d970f5560e11b81526001600160a01b0391821660048201523060248201526001600160e01b031986166044820152911690639b2e1eaa906064016040805180830381865afa1580156135f9573d5f803e3d5ffd5b505050506040513d601f19601f8201168201806040525081019061361d9190614536565b91509150915091565b60606129a283835f613784565b6040516370a0823160e01b81526001600160a01b0383811660048301525f9185918491908316906370a0823190602401602060405180830381865afa15801561367e573d5f803e3d5ffd5b505050506040513d601f19601f820116820180604052508101906136a29190613f3f565b101580156133fd5750604051636eb1769f60e11b81526001600160a01b03858116600483015230602483015284919083169063dd62ed3e90604401602060405180830381865afa1580156136f8573d5f803e3d5ffd5b505050506040513d601f19601f8201168201806040525081019061371c9190613f3f565b101595945050505050565b80516020810151608083015182516040909301515f9361374a9392916001612036565b90508015613766576137618383608001515f611f36565b613776565b6137768383608001516003611f36565b611486838360800151611ff0565b6060814710156137a95760405163cd78605960e01b8152306004820152602401610706565b5f80856001600160a01b031684866040516137c49190614508565b5f6040518083038185875af1925050503d805f81146137fe576040519150601f19603f3d011682016040523d82523d5f602084013e613803565b606091505b509150915061381386838361381d565b9695505050505050565b6060826138325761382d82613879565b6129a2565b815115801561384957506001600160a01b0384163b155b1561387257604051639996b31560e01b81526001600160a01b0385166004820152602401610706565b50806129a2565b8051156138895780518082602001fd5b604051630a12f52160e11b815260040160405180910390fd5b828054828255905f5260205f209081019282156138db579160200282015b828111156138db5782518255916020019190600101906138c0565b506138e79291506138eb565b5090565b5b808211156138e7575f81556001016138ec565b5f6020828403121561390f575f80fd5b81356001600160e01b0319811681146129a2575f80fd5b6001600160a01b03811681146105f6575f80fd5b80356133b081613926565b5f60208284031215613955575f80fd5b81356129a281613926565b5f8060408385031215613971575f80fd5b82359150602083013561398381613926565b809150509250929050565b5f805f604084860312156139a0575f80fd5b83359250602084013567ffffffffffffffff808211156139be575f80fd5b818601915086601f8301126139d1575f80fd5b8135818111156139df575f80fd5b8760208260051b85010111156139f3575f80fd5b6020830194508093505050509250925092565b5f805f60608486031215613a18575f80fd5b8335613a2381613926565b92506020840135613a3381613926565b91506040840135613a4381613926565b809150509250925092565b5f5b83811015613a68578181015183820152602001613a50565b50505f910152565b5f8151808452613a87816020860160208601613a4e565b601f01601f19169290920160200192915050565b602081525f6129a26020830184613a70565b634e487b7160e01b5f52604160045260245ffd5b60405160a0810167ffffffffffffffff81118282101715613ae457613ae4613aad565b60405290565b60405160e0810167ffffffffffffffff81118282101715613ae457613ae4613aad565b604051601f8201601f1916810167ffffffffffffffff81118282101715613b3657613b36613aad565b604052919050565b5f82601f830112613b4d575f80fd5b813567ffffffffffffffff811115613b6757613b67613aad565b613b7a601f8201601f1916602001613b0d565b818152846020838601011115613b8e575f80fd5b816020850160208301375f918101602001919091529392505050565b5f805f60608486031215613bbc575f80fd5b8335613bc781613926565b9250602084013567ffffffffffffffff80821115613be3575f80fd5b9085019060a08288031215613bf6575f80fd5b613bfe613ac1565b823581526020830135602082015260408301356040820152606083013582811115613c27575f80fd5b613c3389828601613b3e565b606083015250608083013582811115613c4a575f80fd5b613c5689828601613b3e565b60808301525093506040860135915080821115613c71575f80fd5b50613c7e86828701613b3e565b9150509250925092565b634e487b7160e01b5f52602160045260245ffd5b60048110613cb857634e487b7160e01b5f52602160045260245ffd5b9052565b5f6020808352835160a0828501526101a084016001600160a01b038083511660c087015280848401511660e08701525060408201516101008601526060820151610120860152608082015161014086015260a082015161016086015260c0820151915060e06101808601528082518083526101c08701915084840193505f92505b80831015613d5d5783518252928401926001929092019190840190613d3d565b509286015192613d706040870185613c9c565b60408701516060870152606087015160808701526080870151935061381360a08701856001600160a01b03169052565b602080825282518282018190525f9190848201906040850190845b81811015613dd757835183529284019291840191600101613dbb565b50909695505050505050565b5f67ffffffffffffffff821115613dfc57613dfc613aad565b5060051b60200190565b5f82601f830112613e15575f80fd5b81356020613e2a613e2583613de3565b613b0d565b8083825260208201915060208460051b870101935086841115613e4b575f80fd5b602086015b84811015613e675780358352918301918301613e50565b509695505050505050565b5f60208284031215613e82575f80fd5b813567ffffffffffffffff80821115613e99575f80fd5b9083019060e08286031215613eac575f80fd5b613eb4613aea565b613ebd8361393a565b8152613ecb6020840161393a565b602082015260408301356040820152606083013560608201526080830135608082015260a083013560a082015260c083013582811115613f09575f80fd5b613f1587828601613e06565b60c08301525095945050505050565b5f60208284031215613f34575f80fd5b81516129a281613926565b5f60208284031215613f4f575f80fd5b5051919050565b838152604060208083018290529082018390525f90849060608401835b86811015613fa1578335613f8681613926565b6001600160a01b031682529282019290820190600101613f73565b50979650505050505050565b600181811c90821680613fc157607f821691505b602082108103613fdf57634e487b7160e01b5f52602260045260245ffd5b50919050565b5f60208284031215613ff5575f80fd5b815180151581146129a2575f80fd5b80516133b081613926565b5f8060408385031215614020575f80fd5b825161402b81613926565b602084015190925061398381613926565b5f82601f83011261404b575f80fd5b8151602061405b613e2583613de3565b8083825260208201915060208460051b87010193508684111561407c575f80fd5b602086015b84811015613e675780518352918301918301614081565b5f82601f8301126140a7575f80fd5b815160206140b7613e2583613de3565b8083825260208201915060208460051b8701019350868411156140d8575f80fd5b602086015b84811015613e675780516140f081613926565b83529183019183016140dd565b5f805f6060848603121561410f575f80fd5b835167ffffffffffffffff80821115614126575f80fd5b818601915086601f830112614139575f80fd5b81516020614149613e2583613de3565b82815260059290921b8401810191818101908a841115614167575f80fd5b8286015b8481101561421657805186811115614181575f80fd5b870160e0818e03601f19011215614196575f80fd5b61419e613aea565b6141a9868301614004565b81526141b760408301614004565b86820152606082015160408201526080820151606082015260a0820151608082015260c082015160a082015260e0820151888111156141f4575f80fd5b6142028f888386010161403c565b60c08301525084525091830191830161416b565b509189015191975090935050508082111561422f575f80fd5b61423b87838801614098565b93506040860151915080821115614250575f80fd5b50613c7e8682870161403c565b634e487b7160e01b5f52603260045260245ffd5b634e487b7160e01b5f52601160045260245ffd5b5f6001820161429657614296614271565b5060010190565b8181038181111561050f5761050f614271565b5f80858511156142be575f80fd5b838611156142ca575f80fd5b5050820193919092039150565b6bffffffffffffffffffffffff1981358181169160148510156108a05760149490940360031b84901b1690921692915050565b6020810161050f8284613c9c565b838152606060208201525f6143306060830185613a70565b82810360408401526138138185613a70565b601f82111561148657805f5260205f20601f840160051c810160208510156143675750805b601f840160051c820191505b81811015611b92575f8155600101614373565b815167ffffffffffffffff8111156143a0576143a0613aad565b6143b4816143ae8454613fad565b84614342565b602080601f8311600181146143e7575f84156143d05750858301515b5f19600386901b1c1916600185901b17855561443e565b5f85815260208120601f198616915b82811015614415578886015182559484019460019091019084016143f6565b508582101561443257878501515f19600388901b60f8161c191681555b505060018460011b0185555b505050505050565b602081528151602082015260208201516040820152604082015160608201525f606083015160a0608084015261447f60c0840182613a70565b90506080840151601f198483030160a08501526133fd8282613a70565b838152606081016144b06020830185613c9c565b611f2e6040830184613c9c565b5f816144cb576144cb614271565b505f190190565b808202811582820484141761050f5761050f614271565b5f8261450357634e487b7160e01b5f52601260045260245ffd5b500490565b5f8251614519818460208701613a4e565b9190910192915050565b8082018082111561050f5761050f614271565b5f8060408385031215614547575f80fd5b8251915060208301516139838161392656fea2646970667358221220081a2d50c1950d7a15cb39fe97c9a83cc8d2096ce205d09ce0a583ce1fd2a62b64736f6c63430008170033",
    "linkReferences": {}
  },
  "methodIdentifiers": {
    "cancelPaymentOrderThroughQueueId(uint256,address)": "195254ad",
    "cancelRunningPayments(address)": "73d7764e",
    "claimPreviouslyUnclaimable(address,address,address)": "81ac0367",
    "claimPreviouslyUnclaimableToTreasury(address,address,address)": "271e4283",
    "executePaymentQueue(address)": "9d6de168",
    "getCanceledOrdersTreasury()": "4d45e9aa",
    "getFailedOrdersTreasury()": "df40044a",
    "getOrder(uint256,address)": "cbbfe168",
    "getOrderQueue(address)": "ee8b4f94",
    "getQueueHead(address)": "75a2dc05",
    "getQueueOperatorRole()": "aca51e3e",
    "getQueueOperatorRoleAdmin()": "0e4eaa4f",
    "getQueueSizeForClient(address)": "9b5674ab",
    "getQueueTail(address)": "f14ba610",
    "grantModuleRole(bytes32,address)": "6c67e807",
    "grantModuleRoleBatched(bytes32,address[])": "272bbd44",
    "identifier()": "7998a1c4",
    "init(address,(uint256,uint256,uint256,string,string),bytes)": "b66a870c",
    "isTrustedForwarder(address)": "572b6c05",
    "orchestrator()": "b74795d9",
    "processPayments(address)": "e151fc61",
    "revokeModuleRole(bytes32,address)": "bcb61920",
    "revokeModuleRoleBatched(bytes32,address[])": "24e30270",
    "setCanceledOrdersTreasury(address)": "7ce59471",
    "setFailedOrdersTreasury(address)": "17206282",
    "supportsInterface(bytes4)": "01ffc9a7",
    "title()": "4a79d50c",
    "trustedForwarder()": "7da0a877",
    "unclaimable(address,address,address)": "ceb43f54",
    "url()": "5600f04f",
    "validPaymentOrder((address,address,uint256,uint256,uint256,bytes32,bytes32[]))": "f7698285",
    "version()": "54fd4d50"
  },
  "id": 173
}