{
  "abi": [
    {
      "type": "function",
      "name": "cancelRunningPayments",
      "inputs": [
        {
          "name": "client",
          "type": "address",
          "internalType": "contract IERC20PaymentClientBase_v1"
        }
      ],
      "outputs": [],
      "stateMutability": "nonpayable"
    },
    {
      "type": "function",
      "name": "grantModuleRole",
      "inputs": [
        {
          "name": "role",
          "type": "bytes32",
          "internalType": "bytes32"
        },
        {
          "name": "target",
          "type": "address",
          "internalType": "address"
        }
      ],
      "outputs": [],
      "stateMutability": "nonpayable"
    },
    {
      "type": "function",
      "name": "grantModuleRoleBatched",
      "inputs": [
        {
          "name": "role",
          "type": "bytes32",
          "internalType": "bytes32"
        },
        {
          "name": "targets",
          "type": "address[]",
          "internalType": "address[]"
        }
      ],
      "outputs": [],
      "stateMutability": "nonpayable"
    },
    {
      "type": "function",
      "name": "identifier",
      "inputs": [],
      "outputs": [
        {
          "name": "",
          "type": "bytes32",
          "internalType": "bytes32"
        }
      ],
      "stateMutability": "view"
    },
    {
      "type": "function",
      "name": "init",
      "inputs": [
        {
          "name": "orchestrator_",
          "type": "address",
          "internalType": "contract IOrchestrator_v1"
        },
        {
          "name": "metadata",
          "type": "tuple",
          "internalType": "struct IModule_v1.Metadata",
          "components": [
            {
              "name": "majorVersion",
              "type": "uint256",
              "internalType": "uint256"
            },
            {
              "name": "minorVersion",
              "type": "uint256",
              "internalType": "uint256"
            },
            {
              "name": "url",
              "type": "string",
              "internalType": "string"
            },
            {
              "name": "title",
              "type": "string",
              "internalType": "string"
            }
          ]
        },
        {
          "name": "",
          "type": "bytes",
          "internalType": "bytes"
        }
      ],
      "outputs": [],
      "stateMutability": "nonpayable"
    },
    {
      "type": "function",
      "name": "isTrustedForwarder",
      "inputs": [
        {
          "name": "forwarder",
          "type": "address",
          "internalType": "address"
        }
      ],
      "outputs": [
        {
          "name": "",
          "type": "bool",
          "internalType": "bool"
        }
      ],
      "stateMutability": "view"
    },
    {
      "type": "function",
      "name": "orchestrator",
      "inputs": [],
      "outputs": [
        {
          "name": "",
          "type": "address",
          "internalType": "contract IOrchestrator_v1"
        }
      ],
      "stateMutability": "view"
    },
    {
      "type": "function",
      "name": "processPayments",
      "inputs": [
        {
          "name": "client",
          "type": "address",
          "internalType": "contract IERC20PaymentClientBase_v1"
        }
      ],
      "outputs": [],
      "stateMutability": "nonpayable"
    },
    {
      "type": "function",
      "name": "revokeModuleRole",
      "inputs": [
        {
          "name": "role",
          "type": "bytes32",
          "internalType": "bytes32"
        },
        {
          "name": "target",
          "type": "address",
          "internalType": "address"
        }
      ],
      "outputs": [],
      "stateMutability": "nonpayable"
    },
    {
      "type": "function",
      "name": "revokeModuleRoleBatched",
      "inputs": [
        {
          "name": "role",
          "type": "bytes32",
          "internalType": "bytes32"
        },
        {
          "name": "targets",
          "type": "address[]",
          "internalType": "address[]"
        }
      ],
      "outputs": [],
      "stateMutability": "nonpayable"
    },
    {
      "type": "function",
      "name": "supportsInterface",
      "inputs": [
        {
          "name": "interfaceId",
          "type": "bytes4",
          "internalType": "bytes4"
        }
      ],
      "outputs": [
        {
          "name": "",
          "type": "bool",
          "internalType": "bool"
        }
      ],
      "stateMutability": "view"
    },
    {
      "type": "function",
      "name": "title",
      "inputs": [],
      "outputs": [
        {
          "name": "",
          "type": "string",
          "internalType": "string"
        }
      ],
      "stateMutability": "view"
    },
    {
      "type": "function",
      "name": "trustedForwarder",
      "inputs": [],
      "outputs": [
        {
          "name": "",
          "type": "address",
          "internalType": "address"
        }
      ],
      "stateMutability": "view"
    },
    {
      "type": "function",
      "name": "url",
      "inputs": [],
      "outputs": [
        {
          "name": "",
          "type": "string",
          "internalType": "string"
        }
      ],
      "stateMutability": "view"
    },
    {
      "type": "function",
      "name": "version",
      "inputs": [],
      "outputs": [
        {
          "name": "",
          "type": "uint256",
          "internalType": "uint256"
        },
        {
          "name": "",
          "type": "uint256",
          "internalType": "uint256"
        }
      ],
      "stateMutability": "view"
    },
    {
      "type": "event",
      "name": "Initialized",
      "inputs": [
        {
          "name": "version",
          "type": "uint64",
          "indexed": false,
          "internalType": "uint64"
        }
      ],
      "anonymous": false
    },
    {
      "type": "event",
      "name": "ModuleInitialized",
      "inputs": [
        {
          "name": "parentOrchestrator",
          "type": "address",
          "indexed": true,
          "internalType": "address"
        },
        {
          "name": "moduleTitle",
          "type": "string",
          "indexed": true,
          "internalType": "string"
        },
        {
          "name": "majorVersion",
          "type": "uint256",
          "indexed": false,
          "internalType": "uint256"
        },
        {
          "name": "minorVersion",
          "type": "uint256",
          "indexed": false,
          "internalType": "uint256"
        }
      ],
      "anonymous": false
    },
    {
      "type": "event",
      "name": "PaymentOrderProcessed",
      "inputs": [
        {
          "name": "paymentClient",
          "type": "address",
          "indexed": true,
          "internalType": "address"
        },
        {
          "name": "recipient",
          "type": "address",
          "indexed": true,
          "internalType": "address"
        },
        {
          "name": "paymentToken",
          "type": "address",
          "indexed": true,
          "internalType": "address"
        },
        {
          "name": "amount",
          "type": "uint256",
          "indexed": false,
          "internalType": "uint256"
        },
        {
          "name": "start",
          "type": "uint256",
          "indexed": false,
          "internalType": "uint256"
        },
        {
          "name": "cliff",
          "type": "uint256",
          "indexed": false,
          "internalType": "uint256"
        },
        {
          "name": "end",
          "type": "uint256",
          "indexed": false,
          "internalType": "uint256"
        }
      ],
      "anonymous": false
    },
    {
      "type": "event",
      "name": "TokensReleased",
      "inputs": [
        {
          "name": "recipient",
          "type": "address",
          "indexed": true,
          "internalType": "address"
        },
        {
          "name": "token",
          "type": "address",
          "indexed": true,
          "internalType": "address"
        },
        {
          "name": "amount",
          "type": "uint256",
          "indexed": false,
          "internalType": "uint256"
        }
      ],
      "anonymous": false
    },
    {
      "type": "error",
      "name": "AddressEmptyCode",
      "inputs": [
        {
          "name": "target",
          "type": "address",
          "internalType": "address"
        }
      ]
    },
    {
      "type": "error",
      "name": "AddressInsufficientBalance",
      "inputs": [
        {
          "name": "account",
          "type": "address",
          "internalType": "address"
        }
      ]
    },
    {
      "type": "error",
      "name": "FailedInnerCall",
      "inputs": []
    },
    {
      "type": "error",
      "name": "InvalidInitialization",
      "inputs": []
    },
    {
      "type": "error",
      "name": "Module_OrchestratorCallbackFailed",
      "inputs": [
        {
          "name": "funcSig",
          "type": "string",
          "internalType": "string"
        }
      ]
    },
    {
      "type": "error",
      "name": "Module__CallerNotAuthorized",
      "inputs": [
        {
          "name": "role",
          "type": "bytes32",
          "internalType": "bytes32"
        },
        {
          "name": "caller",
          "type": "address",
          "internalType": "address"
        }
      ]
    },
    {
      "type": "error",
      "name": "Module__InvalidMetadata",
      "inputs": []
    },
    {
      "type": "error",
      "name": "Module__InvalidOrchestratorAddress",
      "inputs": []
    },
    {
      "type": "error",
      "name": "Module__OnlyCallableByOrchestrator",
      "inputs": []
    },
    {
      "type": "error",
      "name": "Module__PaymentProcessor__CannotCallOnOtherClientsOrders",
      "inputs": []
    },
    {
      "type": "error",
      "name": "Module__PaymentProcessor__OnlyCallableByModule",
      "inputs": []
    },
    {
      "type": "error",
      "name": "NotInitializing",
      "inputs": []
    },
    {
      "type": "error",
      "name": "SafeERC20FailedOperation",
      "inputs": [
        {
          "name": "token",
          "type": "address",
          "internalType": "address"
        }
      ]
    }
  ],
  "bytecode": {
    "object": "0x60a060405234801561001057600080fd5b50600060805261001e610023565b6100d5565b7ff0c57e16840df040f15088dc2f81fe391c3923bec73e23a9662efc9c229c6a00805468010000000000000000900460ff16156100735760405163f92ee8a960e01b815260040160405180910390fd5b80546001600160401b03908116146100d25780546001600160401b0319166001600160401b0390811782556040519081527fc7f505b2f371ae2175ee4913f4499e1f2633a7b5936321eed1cdaeb6115181d29060200160405180910390a15b50565b6080516120d6620000ee600039600050506120d66000f3fe608060405234801561001057600080fd5b50600436106100f55760003560e01c8063572b6c05116100975780637da0a877116100665780637da0a877146101e4578063b74795d914610204578063bcb6192014610215578063e151fc611461022857600080fd5b8063572b6c05146101955780636c67e807146101a857806373d7764e146101bb5780637998a1c4146101ce57600080fd5b806342dfe958116100d357806342dfe9581461014a5780634a79d50c1461015d57806354fd4d50146101725780635600f04f1461018d57600080fd5b806301ffc9a7146100fa57806324e3027014610122578063272bbd4414610137575b600080fd5b61010d610108366004611825565b61023b565b60405190151581526020015b60405180910390f35b610135610130366004611867565b610297565b005b610135610145366004611867565b61044f565b6101356101583660046119fe565b61053e565b610165610695565b6040516101199190611afe565b60015460025460408051928352602083019190915201610119565b61016561072a565b61010d6101a3366004611b31565b61073c565b6101356101b6366004611b4e565b6107c4565b6101356101c9366004611b31565b610906565b6101d6610a2e565b604051908152602001610119565b6101ec610b7e565b6040516001600160a01b039091168152602001610119565b6000546001600160a01b03166101ec565b610135610223366004611b4e565b610bf6565b610135610236366004611b31565b610d06565b60007fffffffff0000000000000000000000000000000000000000000000000000000082167f92868a2f000000000000000000000000000000000000000000000000000000001480610291575061029182611104565b92915050565b6000546040805163d09edf3160e01b81529051610374926001600160a01b03169163d09edf319160048083019260209291908290030181865afa1580156102e2573d6000803e3d6000fd5b505050506040513d601f19601f820116820180604052508101906103069190611b7e565b6001600160a01b03166355ff58d46040518163ffffffff1660e01b8152600401602060405180830381865afa158015610343573d6000803e3d6000fd5b505050506040513d601f19601f820116820180604052508101906103679190611b9b565b61036f61119b565b6111ed565b60008054906101000a90046001600160a01b03166001600160a01b031663d09edf316040518163ffffffff1660e01b8152600401602060405180830381865afa1580156103c5573d6000803e3d6000fd5b505050506040513d601f19601f820116820180604052508101906103e99190611b7e565b6001600160a01b0316637d540a648484846040518463ffffffff1660e01b815260040161041893929190611bb4565b600060405180830381600087803b15801561043257600080fd5b505af1158015610446573d6000803e3d6000fd5b50505050505050565b6000546040805163d09edf3160e01b8152905161049a926001600160a01b03169163d09edf319160048083019260209291908290030181865afa1580156102e2573d6000803e3d6000fd5b60008054906101000a90046001600160a01b03166001600160a01b031663d09edf316040518163ffffffff1660e01b8152600401602060405180830381865afa1580156104eb573d6000803e3d6000fd5b505050506040513d601f19601f8201168201806040525081019061050f9190611b7e565b6001600160a01b031663648154538484846040518463ffffffff1660e01b815260040161041893929190611bb4565b7ff0c57e16840df040f15088dc2f81fe391c3923bec73e23a9662efc9c229c6a00805468010000000000000000810460ff16159067ffffffffffffffff166000811580156105895750825b905060008267ffffffffffffffff1660011480156105a65750303b155b9050811580156105b4575080155b156105eb576040517ff92ee8a900000000000000000000000000000000000000000000000000000000815260040160405180910390fd5b84547fffffffffffffffffffffffffffffffffffffffffffffffff0000000000000000166001178555831561063657845468ff00000000000000001916680100000000000000001785555b610640888861133b565b831561068b57845468ff000000000000000019168555604051600181527fc7f505b2f371ae2175ee4913f4499e1f2633a7b5936321eed1cdaeb6115181d29060200160405180910390a15b5050505050505050565b6060600160030180546106a790611c0c565b80601f01602080910402602001604051908101604052809291908181526020018280546106d390611c0c565b80156107205780601f106106f557610100808354040283529160200191610720565b820191906000526020600020905b81548152906001019060200180831161070357829003601f168201915b5050505050905090565b6060600160020180546106a790611c0c565b600080546040517f572b6c050000000000000000000000000000000000000000000000000000000081526001600160a01b0384811660048301529091169063572b6c0590602401602060405180830381865afa1580156107a0573d6000803e3d6000fd5b505050506040513d601f19601f820116820180604052508101906102919190611c46565b6000546040805163d09edf3160e01b8152905161080f926001600160a01b03169163d09edf319160048083019260209291908290030181865afa1580156102e2573d6000803e3d6000fd5b60008054906101000a90046001600160a01b03166001600160a01b031663d09edf316040518163ffffffff1660e01b8152600401602060405180830381865afa158015610860573d6000803e3d6000fd5b505050506040513d601f19601f820116820180604052508101906108849190611b7e565b6040517fe1788154000000000000000000000000000000000000000000000000000000008152600481018490526001600160a01b038381166024830152919091169063e1788154906044015b600060405180830381600087803b1580156108ea57600080fd5b505af11580156108fe573d6000803e3d6000fd5b505050505050565b6000546001600160a01b03166342f6e38961091f61119b565b6040517fffffffff0000000000000000000000000000000000000000000000000000000060e084901b1681526001600160a01b0390911660048201526024016020604051808303816000875af115801561097d573d6000803e3d6000fd5b505050506040513d601f19601f820116820180604052508101906109a19190611c46565b6109d7576040517f3c9fdabb00000000000000000000000000000000000000000000000000000000815260040160405180910390fd5b80806001600160a01b03166109ea61119b565b6001600160a01b031614610a2a576040517fb78e756000000000000000000000000000000000000000000000000000000000815260040160405180910390fd5b5050565b60408051608081018252600180548252600254602083015260038054600094610b7994939290840191610a6090611c0c565b80601f0160208091040260200160405190810160405280929190818152602001828054610a8c90611c0c565b8015610ad95780601f10610aae57610100808354040283529160200191610ad9565b820191906000526020600020905b815481529060010190602001808311610abc57829003601f168201915b50505050508152602001600382018054610af290611c0c565b80601f0160208091040260200160405190810160405280929190818152602001828054610b1e90611c0c565b8015610b6b5780601f10610b4057610100808354040283529160200191610b6b565b820191906000526020600020905b815481529060010190602001808311610b4e57829003601f168201915b505050505081525050611496565b905090565b60008060009054906101000a90046001600160a01b03166001600160a01b0316637da0a8776040518163ffffffff1660e01b8152600401602060405180830381865afa158015610bd2573d6000803e3d6000fd5b505050506040513d601f19601f82011682018060405250810190610b799190611b7e565b6000546040805163d09edf3160e01b81529051610c41926001600160a01b03169163d09edf319160048083019260209291908290030181865afa1580156102e2573d6000803e3d6000fd5b60008054906101000a90046001600160a01b03166001600160a01b031663d09edf316040518163ffffffff1660e01b8152600401602060405180830381865afa158015610c92573d6000803e3d6000fd5b505050506040513d601f19601f82011682018060405250810190610cb69190611b7e565b6040517fba66f9fc000000000000000000000000000000000000000000000000000000008152600481018490526001600160a01b038381166024830152919091169063ba66f9fc906044016108d0565b6000546001600160a01b03166342f6e389610d1f61119b565b6040517fffffffff0000000000000000000000000000000000000000000000000000000060e084901b1681526001600160a01b0390911660048201526024016020604051808303816000875af1158015610d7d573d6000803e3d6000fd5b505050506040513d601f19601f82011682018060405250810190610da19190611c46565b610dd7576040517f3c9fdabb00000000000000000000000000000000000000000000000000000000815260040160405180910390fd5b80806001600160a01b0316610dea61119b565b6001600160a01b031614610e2a576040517fb78e756000000000000000000000000000000000000000000000000000000000815260040160405180910390fd5b6060806060846001600160a01b031663c0231ff66040518163ffffffff1660e01b81526004016000604051808303816000875af1158015610e6f573d6000803e3d6000fd5b505050506040513d6000823e601f3d908101601f19168201604052610e979190810190611d63565b9194509250905060005b8251811015610f74576000838281518110610ebe57610ebe611e96565b602002602001015190506000838381518110610edc57610edc611e96565b60209081029190910101516040517fb33ec6180000000000000000000000000000000000000000000000000000000081526001600160a01b038481166004830152602482018390529192509089169063b33ec61890604401600060405180830381600087803b158015610f4e57600080fd5b505af1158015610f62573d6000803e3d6000fd5b505060019094019350610ea192505050565b5082516000908190815b818110156110f957868181518110610f9857610f98611e96565b60200260200101516000015193506000878281518110610fba57610fba611e96565b6020026020010151602001519050878281518110610fda57610fda611e96565b60209081029190910101516040015193506110006001600160a01b0382168b87876114d6565b806001600160a01b0316856001600160a01b03167f3737f2a73c794dafe53d8aeea06810a9ebcf7167401b259406960e088e03f8308660405161104591815260200190565b60405180910390a3806001600160a01b0316856001600160a01b03168b6001600160a01b03167f36ed9e7eb18c4c4cfa297b57647b5825c7e397033696da1fc5754e60ac948775878c878151811061109f5761109f611e96565b60200260200101516060015160008e89815181106110bf576110bf611e96565b60209081029190910181015160a001516040805195865291850193909352830152606082015260800160405180910390a450600101610f7e565b505050505050505050565b60007fffffffff0000000000000000000000000000000000000000000000000000000082167f179dfb4500000000000000000000000000000000000000000000000000000000148061029157507f01ffc9a7000000000000000000000000000000000000000000000000000000007fffffffff00000000000000000000000000000000000000000000000000000000831614610291565b60003660146111a93361073c565b80156111b55750808210155b156111e5576000366111c78385611eac565b6111d2928290611ecd565b6111db91611ef7565b60601c9250505090565b339250505090565b60008054906101000a90046001600160a01b03166001600160a01b031663d09edf316040518163ffffffff1660e01b8152600401602060405180830381865afa15801561123e573d6000803e3d6000fd5b505050506040513d601f19601f820116820180604052508101906112629190611b7e565b6040517f91d14854000000000000000000000000000000000000000000000000000000008152600481018490526001600160a01b03838116602483015291909116906391d1485490604401602060405180830381865afa1580156112ca573d6000803e3d6000fd5b505050506040513d601f19601f820116820180604052508101906112ee9190611c46565b610a2a576040517f42abbb77000000000000000000000000000000000000000000000000000000008152600481018390526001600160a01b03821660248201526044015b60405180910390fd5b611343611564565b6001600160a01b038216611383576040517f7280679300000000000000000000000000000000000000000000000000000000815260040160405180910390fd5b600080547fffffffffffffffffffffffff0000000000000000000000000000000000000000166001600160a01b0384161790556113bf816115cd565b6113f5576040517f7511254100000000000000000000000000000000000000000000000000000000815260040160405180910390fd5b80516001908155602082015160025560408201518291906003906114199082611f87565b506060820151600382019061142e9082611f87565b50505060608101516040516114439190612047565b604080519182900382208351602080860151918552840152916001600160a01b038516917feb175f148a71d29a5f7bf5439182fcd81e6ea9cfc8a11b54ab0f705fa98fa8ca910160405180910390a35050565b60008160000151826040015183606001516040516020016114b993929190612063565b604051602081830303815290604052805190602001209050919050565b604080516001600160a01b0385811660248301528416604482015260648082018490528251808303909101815260849091019091526020810180517bffffffffffffffffffffffffffffffffffffffffffffffffffffffff167f23b872dd0000000000000000000000000000000000000000000000000000000017905261155e90859061161f565b50505050565b7ff0c57e16840df040f15088dc2f81fe391c3923bec73e23a9662efc9c229c6a005468010000000000000000900460ff166115cb576040517fd7e6bcf800000000000000000000000000000000000000000000000000000000815260040160405180910390fd5b565b60008160400151516000036115e457506000919050565b8160600151516000036115f957506000919050565b815115801561160a57506020820151155b1561161757506000919050565b506001919050565b60006116346001600160a01b038416836116a0565b905080516000141580156116595750808060200190518101906116579190611c46565b155b1561169b576040517f5274afe70000000000000000000000000000000000000000000000000000000081526001600160a01b0384166004820152602401611332565b505050565b60606116ae838360006116b5565b9392505050565b6060814710156116f3576040517fcd786059000000000000000000000000000000000000000000000000000000008152306004820152602401611332565b600080856001600160a01b0316848660405161170f9190612047565b60006040518083038185875af1925050503d806000811461174c576040519150601f19603f3d011682016040523d82523d6000602084013e611751565b606091505b509150915061176186838361176b565b9695505050505050565b6060826117805761177b826117e0565b6116ae565b815115801561179757506001600160a01b0384163b155b156117d9576040517f9996b3150000000000000000000000000000000000000000000000000000000081526001600160a01b0385166004820152602401611332565b50806116ae565b8051156117f05780518082602001fd5b6040517f1425ea4200000000000000000000000000000000000000000000000000000000815260040160405180910390fd5b50565b60006020828403121561183757600080fd5b81357fffffffff00000000000000000000000000000000000000000000000000000000811681146116ae57600080fd5b60008060006040848603121561187c57600080fd5b83359250602084013567ffffffffffffffff8082111561189b57600080fd5b818601915086601f8301126118af57600080fd5b8135818111156118be57600080fd5b8760208260051b85010111156118d357600080fd5b6020830194508093505050509250925092565b6001600160a01b038116811461182257600080fd5b634e487b7160e01b600052604160045260246000fd5b6040516080810167ffffffffffffffff81118282101715611934576119346118fb565b60405290565b60405160c0810167ffffffffffffffff81118282101715611934576119346118fb565b604051601f8201601f1916810167ffffffffffffffff81118282101715611986576119866118fb565b604052919050565b600082601f83011261199f57600080fd5b813567ffffffffffffffff8111156119b9576119b96118fb565b6119cc6020601f19601f8401160161195d565b8181528460208386010111156119e157600080fd5b816020850160208301376000918101602001919091529392505050565b600080600060608486031215611a1357600080fd5b8335611a1e816118e6565b9250602084013567ffffffffffffffff80821115611a3b57600080fd5b9085019060808288031215611a4f57600080fd5b611a57611911565b8235815260208301356020820152604083013582811115611a7757600080fd5b611a838982860161198e565b604083015250606083013582811115611a9b57600080fd5b611aa78982860161198e565b60608301525093506040860135915080821115611ac357600080fd5b50611ad08682870161198e565b9150509250925092565b60005b83811015611af5578181015183820152602001611add565b50506000910152565b6020815260008251806020840152611b1d816040850160208701611ada565b601f01601f19169190910160400192915050565b600060208284031215611b4357600080fd5b81356116ae816118e6565b60008060408385031215611b6157600080fd5b823591506020830135611b73816118e6565b809150509250929050565b600060208284031215611b9057600080fd5b81516116ae816118e6565b600060208284031215611bad57600080fd5b5051919050565b83815260406020808301829052908201839052600090849060608401835b86811015611c00578335611be5816118e6565b6001600160a01b031682529282019290820190600101611bd2565b50979650505050505050565b600181811c90821680611c2057607f821691505b602082108103611c4057634e487b7160e01b600052602260045260246000fd5b50919050565b600060208284031215611c5857600080fd5b815180151581146116ae57600080fd5b600067ffffffffffffffff821115611c8257611c826118fb565b5060051b60200190565b600082601f830112611c9d57600080fd5b81516020611cb2611cad83611c68565b61195d565b8083825260208201915060208460051b870101935086841115611cd457600080fd5b602086015b84811015611cf9578051611cec816118e6565b8352918301918301611cd9565b509695505050505050565b600082601f830112611d1557600080fd5b81516020611d25611cad83611c68565b8083825260208201915060208460051b870101935086841115611d4757600080fd5b602086015b84811015611cf95780518352918301918301611d4c565b60008060006060808587031215611d7957600080fd5b845167ffffffffffffffff80821115611d9157600080fd5b818701915087601f830112611da557600080fd5b81516020611db5611cad83611c68565b82815260c0928302850182019282820191908c851115611dd457600080fd5b958301955b84871015611e4c5780878e031215611df15760008081fd5b611df961193a565b8751611e04816118e6565b815287850151611e13816118e6565b818601526040888101519082015288880151898201526080808901519082015260a0808901519082015283529586019591830191611dd9565b50918a0151919850909450505080831115611e6657600080fd5b611e7288848901611c8c565b94506040870151925080831115611e8857600080fd5b5050611ad086828701611d04565b634e487b7160e01b600052603260045260246000fd5b8181038181111561029157634e487b7160e01b600052601160045260246000fd5b60008085851115611edd57600080fd5b83861115611eea57600080fd5b5050820193919092039150565b7fffffffffffffffffffffffffffffffffffffffff0000000000000000000000008135818116916014851015611f375780818660140360031b1b83161692505b505092915050565b601f82111561169b576000816000526020600020601f850160051c81016020861015611f685750805b601f850160051c820191505b818110156108fe57828155600101611f74565b815167ffffffffffffffff811115611fa157611fa16118fb565b611fb581611faf8454611c0c565b84611f3f565b602080601f831160018114611fea5760008415611fd25750858301515b600019600386901b1c1916600185901b1785556108fe565b600085815260208120601f198616915b8281101561201957888601518255948401946001909101908401611ffa565b50858210156120375787850151600019600388901b60f8161c191681555b5050505050600190811b01905550565b60008251612059818460208701611ada565b9190910192915050565b8381526000835161207b816020850160208801611ada565b80830190508351612093816020840160208801611ada565b016020019594505050505056fea2646970667358221220cc80c0581d2fe11ec92cfe30aabe81b7aa224695ce2e1c4d5b190fe5fe30839764736f6c63430008170033",
    "linkReferences": {}
  },
  "methodIdentifiers": {
    "cancelRunningPayments(address)": "73d7764e",
    "grantModuleRole(bytes32,address)": "6c67e807",
    "grantModuleRoleBatched(bytes32,address[])": "272bbd44",
    "identifier()": "7998a1c4",
    "init(address,(uint256,uint256,string,string),bytes)": "42dfe958",
    "isTrustedForwarder(address)": "572b6c05",
    "orchestrator()": "b74795d9",
    "processPayments(address)": "e151fc61",
    "revokeModuleRole(bytes32,address)": "bcb61920",
    "revokeModuleRoleBatched(bytes32,address[])": "24e30270",
    "supportsInterface(bytes4)": "01ffc9a7",
    "title()": "4a79d50c",
    "trustedForwarder()": "7da0a877",
    "url()": "5600f04f",
    "version()": "54fd4d50"
  },
  "id": 164
}