{
  "abi": [
    {
      "type": "function",
      "name": "cancelRunningPayments",
      "inputs": [
        {
          "name": "client",
          "type": "address",
          "internalType": "contract IERC20PaymentClientBase_v2"
        }
      ],
      "outputs": [],
      "stateMutability": "nonpayable"
    },
    {
      "type": "function",
      "name": "claimAll",
      "inputs": [
        {
          "name": "client",
          "type": "address",
          "internalType": "address"
        }
      ],
      "outputs": [],
      "stateMutability": "nonpayable"
    },
    {
      "type": "function",
      "name": "claimForSpecificStream",
      "inputs": [
        {
          "name": "client",
          "type": "address",
          "internalType": "address"
        },
        {
          "name": "streamId",
          "type": "uint256",
          "internalType": "uint256"
        }
      ],
      "outputs": [],
      "stateMutability": "nonpayable"
    },
    {
      "type": "function",
      "name": "claimPreviouslyUnclaimable",
      "inputs": [
        {
          "name": "client",
          "type": "address",
          "internalType": "address"
        },
        {
          "name": "token",
          "type": "address",
          "internalType": "address"
        },
        {
          "name": "receiver",
          "type": "address",
          "internalType": "address"
        }
      ],
      "outputs": [],
      "stateMutability": "nonpayable"
    },
    {
      "type": "function",
      "name": "cliffForSpecificStream",
      "inputs": [
        {
          "name": "client",
          "type": "address",
          "internalType": "address"
        },
        {
          "name": "paymentReceiver",
          "type": "address",
          "internalType": "address"
        },
        {
          "name": "streamId",
          "type": "uint256",
          "internalType": "uint256"
        }
      ],
      "outputs": [
        {
          "name": "",
          "type": "uint256",
          "internalType": "uint256"
        }
      ],
      "stateMutability": "view"
    },
    {
      "type": "function",
      "name": "endForSpecificStream",
      "inputs": [
        {
          "name": "client",
          "type": "address",
          "internalType": "address"
        },
        {
          "name": "paymentReceiver",
          "type": "address",
          "internalType": "address"
        },
        {
          "name": "streamId",
          "type": "uint256",
          "internalType": "uint256"
        }
      ],
      "outputs": [
        {
          "name": "",
          "type": "uint256",
          "internalType": "uint256"
        }
      ],
      "stateMutability": "view"
    },
    {
      "type": "function",
      "name": "getProcessorFlags",
      "inputs": [],
      "outputs": [
        {
          "name": "flags_",
          "type": "bytes32",
          "internalType": "bytes32"
        }
      ],
      "stateMutability": "view"
    },
    {
      "type": "function",
      "name": "getStreamingDefaults",
      "inputs": [],
      "outputs": [
        {
          "name": "defaultStart_",
          "type": "uint256",
          "internalType": "uint256"
        },
        {
          "name": "defaultCliff_",
          "type": "uint256",
          "internalType": "uint256"
        },
        {
          "name": "defaultEnd_",
          "type": "uint256",
          "internalType": "uint256"
        }
      ],
      "stateMutability": "view"
    },
    {
      "type": "function",
      "name": "grantModuleRole",
      "inputs": [
        {
          "name": "role",
          "type": "bytes32",
          "internalType": "bytes32"
        },
        {
          "name": "target",
          "type": "address",
          "internalType": "address"
        }
      ],
      "outputs": [],
      "stateMutability": "nonpayable"
    },
    {
      "type": "function",
      "name": "grantModuleRoleBatched",
      "inputs": [
        {
          "name": "role",
          "type": "bytes32",
          "internalType": "bytes32"
        },
        {
          "name": "targets",
          "type": "address[]",
          "internalType": "address[]"
        }
      ],
      "outputs": [],
      "stateMutability": "nonpayable"
    },
    {
      "type": "function",
      "name": "identifier",
      "inputs": [],
      "outputs": [
        {
          "name": "",
          "type": "bytes32",
          "internalType": "bytes32"
        }
      ],
      "stateMutability": "view"
    },
    {
      "type": "function",
      "name": "init",
      "inputs": [
        {
          "name": "orchestrator_",
          "type": "address",
          "internalType": "contract IOrchestrator_v1"
        },
        {
          "name": "metadata",
          "type": "tuple",
          "internalType": "struct IModule_v1.Metadata",
          "components": [
            {
              "name": "majorVersion",
              "type": "uint256",
              "internalType": "uint256"
            },
            {
              "name": "minorVersion",
              "type": "uint256",
              "internalType": "uint256"
            },
            {
              "name": "patchVersion",
              "type": "uint256",
              "internalType": "uint256"
            },
            {
              "name": "url",
              "type": "string",
              "internalType": "string"
            },
            {
              "name": "title",
              "type": "string",
              "internalType": "string"
            }
          ]
        },
        {
          "name": "configData",
          "type": "bytes",
          "internalType": "bytes"
        }
      ],
      "outputs": [],
      "stateMutability": "nonpayable"
    },
    {
      "type": "function",
      "name": "isActivePaymentReceiver",
      "inputs": [
        {
          "name": "client",
          "type": "address",
          "internalType": "address"
        },
        {
          "name": "paymentReceiver",
          "type": "address",
          "internalType": "address"
        }
      ],
      "outputs": [
        {
          "name": "",
          "type": "bool",
          "internalType": "bool"
        }
      ],
      "stateMutability": "view"
    },
    {
      "type": "function",
      "name": "isTrustedForwarder",
      "inputs": [
        {
          "name": "forwarder",
          "type": "address",
          "internalType": "address"
        }
      ],
      "outputs": [
        {
          "name": "",
          "type": "bool",
          "internalType": "bool"
        }
      ],
      "stateMutability": "view"
    },
    {
      "type": "function",
      "name": "numStreams",
      "inputs": [
        {
          "name": "",
          "type": "address",
          "internalType": "address"
        },
        {
          "name": "",
          "type": "address",
          "internalType": "address"
        }
      ],
      "outputs": [
        {
          "name": "",
          "type": "uint256",
          "internalType": "uint256"
        }
      ],
      "stateMutability": "view"
    },
    {
      "type": "function",
      "name": "orchestrator",
      "inputs": [],
      "outputs": [
        {
          "name": "",
          "type": "address",
          "internalType": "contract IOrchestrator_v1"
        }
      ],
      "stateMutability": "view"
    },
    {
      "type": "function",
      "name": "processPayments",
      "inputs": [
        {
          "name": "client",
          "type": "address",
          "internalType": "contract IERC20PaymentClientBase_v2"
        }
      ],
      "outputs": [],
      "stateMutability": "nonpayable"
    },
    {
      "type": "function",
      "name": "releasableForSpecificStream",
      "inputs": [
        {
          "name": "client",
          "type": "address",
          "internalType": "address"
        },
        {
          "name": "paymentReceiver",
          "type": "address",
          "internalType": "address"
        },
        {
          "name": "streamId",
          "type": "uint256",
          "internalType": "uint256"
        }
      ],
      "outputs": [
        {
          "name": "",
          "type": "uint256",
          "internalType": "uint256"
        }
      ],
      "stateMutability": "view"
    },
    {
      "type": "function",
      "name": "releasedForSpecificStream",
      "inputs": [
        {
          "name": "client",
          "type": "address",
          "internalType": "address"
        },
        {
          "name": "paymentReceiver",
          "type": "address",
          "internalType": "address"
        },
        {
          "name": "streamId",
          "type": "uint256",
          "internalType": "uint256"
        }
      ],
      "outputs": [
        {
          "name": "",
          "type": "uint256",
          "internalType": "uint256"
        }
      ],
      "stateMutability": "view"
    },
    {
      "type": "function",
      "name": "removeAllPaymentReceiverPayments",
      "inputs": [
        {
          "name": "client",
          "type": "address",
          "internalType": "address"
        },
        {
          "name": "paymentReceiver",
          "type": "address",
          "internalType": "address"
        }
      ],
      "outputs": [],
      "stateMutability": "nonpayable"
    },
    {
      "type": "function",
      "name": "removePaymentForSpecificStream",
      "inputs": [
        {
          "name": "client",
          "type": "address",
          "internalType": "address"
        },
        {
          "name": "paymentReceiver",
          "type": "address",
          "internalType": "address"
        },
        {
          "name": "streamId",
          "type": "uint256",
          "internalType": "uint256"
        }
      ],
      "outputs": [],
      "stateMutability": "nonpayable"
    },
    {
      "type": "function",
      "name": "revokeModuleRole",
      "inputs": [
        {
          "name": "role",
          "type": "bytes32",
          "internalType": "bytes32"
        },
        {
          "name": "target",
          "type": "address",
          "internalType": "address"
        }
      ],
      "outputs": [],
      "stateMutability": "nonpayable"
    },
    {
      "type": "function",
      "name": "revokeModuleRoleBatched",
      "inputs": [
        {
          "name": "role",
          "type": "bytes32",
          "internalType": "bytes32"
        },
        {
          "name": "targets",
          "type": "address[]",
          "internalType": "address[]"
        }
      ],
      "outputs": [],
      "stateMutability": "nonpayable"
    },
    {
      "type": "function",
      "name": "setStreamingDefaults",
      "inputs": [
        {
          "name": "newStart_",
          "type": "uint256",
          "internalType": "uint256"
        },
        {
          "name": "newCliff_",
          "type": "uint256",
          "internalType": "uint256"
        },
        {
          "name": "newEnd_",
          "type": "uint256",
          "internalType": "uint256"
        }
      ],
      "outputs": [],
      "stateMutability": "nonpayable"
    },
    {
      "type": "function",
      "name": "startForSpecificStream",
      "inputs": [
        {
          "name": "client",
          "type": "address",
          "internalType": "address"
        },
        {
          "name": "paymentReceiver",
          "type": "address",
          "internalType": "address"
        },
        {
          "name": "streamId",
          "type": "uint256",
          "internalType": "uint256"
        }
      ],
      "outputs": [
        {
          "name": "",
          "type": "uint256",
          "internalType": "uint256"
        }
      ],
      "stateMutability": "view"
    },
    {
      "type": "function",
      "name": "streamedAmountForSpecificStream",
      "inputs": [
        {
          "name": "client",
          "type": "address",
          "internalType": "address"
        },
        {
          "name": "paymentReceiver",
          "type": "address",
          "internalType": "address"
        },
        {
          "name": "streamId",
          "type": "uint256",
          "internalType": "uint256"
        },
        {
          "name": "timestamp",
          "type": "uint256",
          "internalType": "uint256"
        }
      ],
      "outputs": [
        {
          "name": "",
          "type": "uint256",
          "internalType": "uint256"
        }
      ],
      "stateMutability": "view"
    },
    {
      "type": "function",
      "name": "supportsInterface",
      "inputs": [
        {
          "name": "interfaceId",
          "type": "bytes4",
          "internalType": "bytes4"
        }
      ],
      "outputs": [
        {
          "name": "",
          "type": "bool",
          "internalType": "bool"
        }
      ],
      "stateMutability": "view"
    },
    {
      "type": "function",
      "name": "title",
      "inputs": [],
      "outputs": [
        {
          "name": "",
          "type": "string",
          "internalType": "string"
        }
      ],
      "stateMutability": "view"
    },
    {
      "type": "function",
      "name": "trustedForwarder",
      "inputs": [],
      "outputs": [
        {
          "name": "",
          "type": "address",
          "internalType": "address"
        }
      ],
      "stateMutability": "view"
    },
    {
      "type": "function",
      "name": "unclaimable",
      "inputs": [
        {
          "name": "client",
          "type": "address",
          "internalType": "address"
        },
        {
          "name": "token",
          "type": "address",
          "internalType": "address"
        },
        {
          "name": "paymentReceiver",
          "type": "address",
          "internalType": "address"
        }
      ],
      "outputs": [
        {
          "name": "amount",
          "type": "uint256",
          "internalType": "uint256"
        }
      ],
      "stateMutability": "view"
    },
    {
      "type": "function",
      "name": "url",
      "inputs": [],
      "outputs": [
        {
          "name": "",
          "type": "string",
          "internalType": "string"
        }
      ],
      "stateMutability": "view"
    },
    {
      "type": "function",
      "name": "validPaymentOrder",
      "inputs": [
        {
          "name": "order",
          "type": "tuple",
          "internalType": "struct IERC20PaymentClientBase_v2.PaymentOrder",
          "components": [
            {
              "name": "recipient",
              "type": "address",
              "internalType": "address"
            },
            {
              "name": "paymentToken",
              "type": "address",
              "internalType": "address"
            },
            {
              "name": "amount",
              "type": "uint256",
              "internalType": "uint256"
            },
            {
              "name": "originChainId",
              "type": "uint256",
              "internalType": "uint256"
            },
            {
              "name": "targetChainId",
              "type": "uint256",
              "internalType": "uint256"
            },
            {
              "name": "flags",
              "type": "bytes32",
              "internalType": "bytes32"
            },
            {
              "name": "data",
              "type": "bytes32[]",
              "internalType": "bytes32[]"
            }
          ]
        }
      ],
      "outputs": [
        {
          "name": "",
          "type": "bool",
          "internalType": "bool"
        }
      ],
      "stateMutability": "nonpayable"
    },
    {
      "type": "function",
      "name": "version",
      "inputs": [],
      "outputs": [
        {
          "name": "",
          "type": "uint256",
          "internalType": "uint256"
        },
        {
          "name": "",
          "type": "uint256",
          "internalType": "uint256"
        },
        {
          "name": "",
          "type": "uint256",
          "internalType": "uint256"
        }
      ],
      "stateMutability": "view"
    },
    {
      "type": "function",
      "name": "viewAllPaymentOrders",
      "inputs": [
        {
          "name": "client",
          "type": "address",
          "internalType": "address"
        },
        {
          "name": "paymentReceiver",
          "type": "address",
          "internalType": "address"
        }
      ],
      "outputs": [
        {
          "name": "",
          "type": "tuple[]",
          "internalType": "struct IPP_Streaming_v2.Stream[]",
          "components": [
            {
              "name": "_paymentToken",
              "type": "address",
              "internalType": "address"
            },
            {
              "name": "_streamId",
              "type": "uint256",
              "internalType": "uint256"
            },
            {
              "name": "_total",
              "type": "uint256",
              "internalType": "uint256"
            },
            {
              "name": "_released",
              "type": "uint256",
              "internalType": "uint256"
            },
            {
              "name": "_start",
              "type": "uint256",
              "internalType": "uint256"
            },
            {
              "name": "_cliff",
              "type": "uint256",
              "internalType": "uint256"
            },
            {
              "name": "_end",
              "type": "uint256",
              "internalType": "uint256"
            }
          ]
        }
      ],
      "stateMutability": "view"
    },
    {
      "type": "event",
      "name": "Initialized",
      "inputs": [
        {
          "name": "version",
          "type": "uint64",
          "indexed": false,
          "internalType": "uint64"
        }
      ],
      "anonymous": false
    },
    {
      "type": "event",
      "name": "InvalidStreamingOrderDiscarded",
      "inputs": [
        {
          "name": "recipient",
          "type": "address",
          "indexed": true,
          "internalType": "address"
        },
        {
          "name": "paymentToken",
          "type": "address",
          "indexed": true,
          "internalType": "address"
        },
        {
          "name": "amount",
          "type": "uint256",
          "indexed": false,
          "internalType": "uint256"
        },
        {
          "name": "start",
          "type": "uint256",
          "indexed": false,
          "internalType": "uint256"
        },
        {
          "name": "cliff",
          "type": "uint256",
          "indexed": false,
          "internalType": "uint256"
        },
        {
          "name": "end",
          "type": "uint256",
          "indexed": false,
          "internalType": "uint256"
        }
      ],
      "anonymous": false
    },
    {
      "type": "event",
      "name": "ModuleInitialized",
      "inputs": [
        {
          "name": "parentOrchestrator",
          "type": "address",
          "indexed": true,
          "internalType": "address"
        },
        {
          "name": "metadata",
          "type": "tuple",
          "indexed": false,
          "internalType": "struct IModule_v1.Metadata",
          "components": [
            {
              "name": "majorVersion",
              "type": "uint256",
              "internalType": "uint256"
            },
            {
              "name": "minorVersion",
              "type": "uint256",
              "internalType": "uint256"
            },
            {
              "name": "patchVersion",
              "type": "uint256",
              "internalType": "uint256"
            },
            {
              "name": "url",
              "type": "string",
              "internalType": "string"
            },
            {
              "name": "title",
              "type": "string",
              "internalType": "string"
            }
          ]
        }
      ],
      "anonymous": false
    },
    {
      "type": "event",
      "name": "PaymentOrderProcessed",
      "inputs": [
        {
          "name": "paymentClient",
          "type": "address",
          "indexed": true,
          "internalType": "address"
        },
        {
          "name": "recipient",
          "type": "address",
          "indexed": true,
          "internalType": "address"
        },
        {
          "name": "paymentToken",
          "type": "address",
          "indexed": true,
          "internalType": "address"
        },
        {
          "name": "amount",
          "type": "uint256",
          "indexed": false,
          "internalType": "uint256"
        },
        {
          "name": "originChainId",
          "type": "uint256",
          "indexed": false,
          "internalType": "uint256"
        },
        {
          "name": "targetChainId",
          "type": "uint256",
          "indexed": false,
          "internalType": "uint256"
        },
        {
          "name": "flags",
          "type": "bytes32",
          "indexed": false,
          "internalType": "bytes32"
        },
        {
          "name": "data",
          "type": "bytes32[]",
          "indexed": false,
          "internalType": "bytes32[]"
        }
      ],
      "anonymous": false
    },
    {
      "type": "event",
      "name": "PaymentReceiverRemoved",
      "inputs": [
        {
          "name": "paymentClient",
          "type": "address",
          "indexed": true,
          "internalType": "address"
        },
        {
          "name": "paymentReceiver",
          "type": "address",
          "indexed": true,
          "internalType": "address"
        }
      ],
      "anonymous": false
    },
    {
      "type": "event",
      "name": "ProtocolFeeTransferred",
      "inputs": [
        {
          "name": "token",
          "type": "address",
          "indexed": true,
          "internalType": "address"
        },
        {
          "name": "treasury",
          "type": "address",
          "indexed": true,
          "internalType": "address"
        },
        {
          "name": "feeAmount",
          "type": "uint256",
          "indexed": false,
          "internalType": "uint256"
        }
      ],
      "anonymous": false
    },
    {
      "type": "event",
      "name": "StreamingPaymentAdded",
      "inputs": [
        {
          "name": "paymentClient",
          "type": "address",
          "indexed": true,
          "internalType": "address"
        },
        {
          "name": "recipient",
          "type": "address",
          "indexed": true,
          "internalType": "address"
        },
        {
          "name": "paymentToken",
          "type": "address",
          "indexed": true,
          "internalType": "address"
        },
        {
          "name": "streamId",
          "type": "uint256",
          "indexed": false,
          "internalType": "uint256"
        },
        {
          "name": "amount",
          "type": "uint256",
          "indexed": false,
          "internalType": "uint256"
        },
        {
          "name": "start",
          "type": "uint256",
          "indexed": false,
          "internalType": "uint256"
        },
        {
          "name": "cliff",
          "type": "uint256",
          "indexed": false,
          "internalType": "uint256"
        },
        {
          "name": "end",
          "type": "uint256",
          "indexed": false,
          "internalType": "uint256"
        }
      ],
      "anonymous": false
    },
    {
      "type": "event",
      "name": "StreamingPaymentRemoved",
      "inputs": [
        {
          "name": "paymentClient",
          "type": "address",
          "indexed": true,
          "internalType": "address"
        },
        {
          "name": "recipient",
          "type": "address",
          "indexed": true,
          "internalType": "address"
        },
        {
          "name": "streamId",
          "type": "uint256",
          "indexed": false,
          "internalType": "uint256"
        }
      ],
      "anonymous": false
    },
    {
      "type": "event",
      "name": "TokensReleased",
      "inputs": [
        {
          "name": "recipient",
          "type": "address",
          "indexed": true,
          "internalType": "address"
        },
        {
          "name": "token",
          "type": "address",
          "indexed": true,
          "internalType": "address"
        },
        {
          "name": "amount",
          "type": "uint256",
          "indexed": false,
          "internalType": "uint256"
        }
      ],
      "anonymous": false
    },
    {
      "type": "event",
      "name": "UnclaimableAmountAdded",
      "inputs": [
        {
          "name": "paymentClient",
          "type": "address",
          "indexed": true,
          "internalType": "address"
        },
        {
          "name": "token",
          "type": "address",
          "indexed": true,
          "internalType": "address"
        },
        {
          "name": "recipient",
          "type": "address",
          "indexed": true,
          "internalType": "address"
        },
        {
          "name": "amount",
          "type": "uint256",
          "indexed": false,
          "internalType": "uint256"
        }
      ],
      "anonymous": false
    },
    {
      "type": "event",
      "name": "UnclaimableAmountAdded",
      "inputs": [
        {
          "name": "paymentClient",
          "type": "address",
          "indexed": true,
          "internalType": "address"
        },
        {
          "name": "recipient",
          "type": "address",
          "indexed": false,
          "internalType": "address"
        },
        {
          "name": "paymentToken",
          "type": "address",
          "indexed": false,
          "internalType": "address"
        },
        {
          "name": "streamId",
          "type": "uint256",
          "indexed": false,
          "internalType": "uint256"
        },
        {
          "name": "amount",
          "type": "uint256",
          "indexed": false,
          "internalType": "uint256"
        }
      ],
      "anonymous": false
    },
    {
      "type": "error",
      "name": "AddressEmptyCode",
      "inputs": [
        {
          "name": "target",
          "type": "address",
          "internalType": "address"
        }
      ]
    },
    {
      "type": "error",
      "name": "AddressInsufficientBalance",
      "inputs": [
        {
          "name": "account",
          "type": "address",
          "internalType": "address"
        }
      ]
    },
    {
      "type": "error",
      "name": "FailedInnerCall",
      "inputs": []
    },
    {
      "type": "error",
      "name": "InvalidInitialization",
      "inputs": []
    },
    {
      "type": "error",
      "name": "Module_OrchestratorCallbackFailed",
      "inputs": [
        {
          "name": "funcSig",
          "type": "string",
          "internalType": "string"
        }
      ]
    },
    {
      "type": "error",
      "name": "Module__CallerNotAuthorized",
      "inputs": [
        {
          "name": "role",
          "type": "bytes32",
          "internalType": "bytes32"
        },
        {
          "name": "caller",
          "type": "address",
          "internalType": "address"
        }
      ]
    },
    {
      "type": "error",
      "name": "Module__ERC20PaymentClientBase__InvalidPaymentOrder",
      "inputs": []
    },
    {
      "type": "error",
      "name": "Module__InvalidAddress",
      "inputs": []
    },
    {
      "type": "error",
      "name": "Module__InvalidMetadata",
      "inputs": []
    },
    {
      "type": "error",
      "name": "Module__InvalidOrchestratorAddress",
      "inputs": []
    },
    {
      "type": "error",
      "name": "Module__OnlyCallableByOrchestrator",
      "inputs": []
    },
    {
      "type": "error",
      "name": "Module__OnlyCallableByPaymentClient",
      "inputs": []
    },
    {
      "type": "error",
      "name": "Module__PP_Streaming__In_validPaymentReceiver",
      "inputs": [
        {
          "name": "paymentClient",
          "type": "address",
          "internalType": "address"
        },
        {
          "name": "paymentReceiver",
          "type": "address",
          "internalType": "address"
        }
      ]
    },
    {
      "type": "error",
      "name": "Module__PP_Streaming__InactiveStream",
      "inputs": [
        {
          "name": "paymentClient",
          "type": "address",
          "internalType": "address"
        },
        {
          "name": "paymentReceiver",
          "type": "address",
          "internalType": "address"
        },
        {
          "name": "streamId",
          "type": "uint256",
          "internalType": "uint256"
        }
      ]
    },
    {
      "type": "error",
      "name": "Module__PP_Streaming__InsufficientTokenBalanceInClient",
      "inputs": []
    },
    {
      "type": "error",
      "name": "Module__PP_Streaming__InvalidDefaultTimes",
      "inputs": [
        {
          "name": "start",
          "type": "uint256",
          "internalType": "uint256"
        },
        {
          "name": "cliff",
          "type": "uint256",
          "internalType": "uint256"
        },
        {
          "name": "end",
          "type": "uint256",
          "internalType": "uint256"
        }
      ]
    },
    {
      "type": "error",
      "name": "Module__PP_Streaming__InvalidStream",
      "inputs": [
        {
          "name": "paymentClient",
          "type": "address",
          "internalType": "address"
        },
        {
          "name": "paymentReceiver",
          "type": "address",
          "internalType": "address"
        },
        {
          "name": "streamId",
          "type": "uint256",
          "internalType": "uint256"
        }
      ]
    },
    {
      "type": "error",
      "name": "Module__PaymentProcessor__CannotCallOnOtherClientsOrders",
      "inputs": []
    },
    {
      "type": "error",
      "name": "Module__PaymentProcessor__NothingToClaim",
      "inputs": [
        {
          "name": "paymentClient",
          "type": "address",
          "internalType": "address"
        },
        {
          "name": "paymentReceiver",
          "type": "address",
          "internalType": "address"
        }
      ]
    },
    {
      "type": "error",
      "name": "Module__PaymentProcessor__OnlyCallableByModule",
      "inputs": []
    },
    {
      "type": "error",
      "name": "NotInitializing",
      "inputs": []
    },
    {
      "type": "error",
      "name": "SafeERC20FailedOperation",
      "inputs": [
        {
          "name": "token",
          "type": "address",
          "internalType": "address"
        }
      ]
    }
  ],
  "bytecode": {
    "object": "0x60a060405234801562000010575f80fd5b505f6080526200001f62000025565b620000d9565b7ff0c57e16840df040f15088dc2f81fe391c3923bec73e23a9662efc9c229c6a00805468010000000000000000900460ff1615620000765760405163f92ee8a960e01b815260040160405180910390fd5b80546001600160401b0390811614620000d65780546001600160401b0319166001600160401b0390811782556040519081527fc7f505b2f371ae2175ee4913f4499e1f2633a7b5936321eed1cdaeb6115181d29060200160405180910390a15b50565b6080516147bb620000ef5f395f50506147bb5ff3fe608060405234801561000f575f80fd5b506004361061021b575f3560e01c806377329f3511610123578063bcb61920116100b8578063ceb43f5411610088578063e96d5fdf1161006e578063e96d5fdf14610594578063f4a192b3146105a2578063f7698285146105b5575f80fd5b8063ceb43f541461056e578063e151fc6114610581575f80fd5b8063bcb61920146104c4578063c0893302146104d7578063cb8e092f14610519578063cbe58ee21461052c575f80fd5b80639e174994116100f35780639e1749941461044c578063b467abcd1461048e578063b66a870c146104a1578063b74795d9146104b4575f80fd5b806377329f35146103fe5780637998a1c4146104115780637da0a8771461041957806381ac036714610439575f80fd5b806354498314116101b35780635c9a6f5f116101835780636c67e807116101695780636c67e807146103b8578063738e19a3146103cb57806373d7764e146103eb575f80fd5b80635c9a6f5f1461037b5780635eeede4d146103a5575f80fd5b8063544983141461032857806354fd4d501461033b5780635600f04f14610360578063572b6c0514610368575f80fd5b8063294070ea116101ee578063294070ea14610290578063410810cd146102975780634a79d50c146102d15780634e6c76ae146102e6575f80fd5b806301ffc9a71461021f5780631f2ac7441461024757806324e3027014610268578063272bbd441461027d575b5f80fd5b61023261022d366004613a8e565b6105c8565b60405190151581526020015b60405180910390f35b61025a610255366004613ad9565b61060c565b60405190815260200161023e565b61027b610276366004613b17565b61065e565b005b61027b61028b366004613b17565b6108fe565b600e61025a565b6102326102a5366004613b8f565b6001600160a01b039182165f908152603d60209081526040808320939094168252919091522054151590565b6102d9610acd565b60405161023e9190613c13565b61025a6102f4366004613ad9565b6001600160a01b039283165f9081526039602090815260408083209490951682529283528381209181529152206006015490565b61027b610336366004613ad9565b610b60565b6001546002546003545b6040805193845260208401929092529082015260600161023e565b6102d9610c59565b610232610376366004613c25565b610c6b565b61025a610389366004613b8f565b603860209081525f928352604080842090915290825290205481565b61027b6103b3366004613c40565b610cd7565b61027b6103c6366004613c6a565b610e0b565b6103de6103d9366004613b8f565b611011565b60405161023e9190613c8d565b61027b6103f9366004613c25565b611264565b61027b61040c366004613c25565b611342565b61025a6113cc565b610421611524565b6040516001600160a01b03909116815260200161023e565b61027b610447366004613d17565b611598565b61025a61045a366004613ad9565b6001600160a01b039283165f9081526039602090815260408083209490951682529283528381209181529152206003015490565b61027b61049c366004613d5f565b6115bf565b61027b6104af366004613e85565b611612565b5f546001600160a01b0316610421565b61027b6104d2366004613c6a565b611761565b61025a6104e5366004613ad9565b6001600160a01b039283165f9081526039602090815260408083209490951682529283528381209181529152206004015490565b61027b610527366004613b8f565b611938565b61025a61053a366004613ad9565b6001600160a01b039283165f9081526039602090815260408083209490951682529283528381209181529152206005015490565b61025a61057c366004613d17565b6119c7565b61027b61058f366004613c25565b611ade565b603e54603f54604054610345565b61025a6105b0366004613f63565b611f72565b6102326105c3366004614035565b611f8a565b5f6001600160e01b0319821662b4011560e81b14806105f757506001600160e01b03198216632af7349960e01b145b80610606575061060682612009565b92915050565b6001600160a01b038084165f908152603960209081526040808320938616835292815282822084835290529081206003015461064a85858542611f72565b61065491906140fb565b90505b9392505050565b5f80546040805163d09edf3160e01b815290518693926001600160a01b03169163d09edf319160048083019260209291908290030181865afa1580156106a6573d5f803e3d5ffd5b505050506040513d601f19601f820116820180604052508101906106ca919061410e565b60405163fdd5205f60e01b8152306004820152602481018490526001600160a01b03919091169063fdd5205f90604401602060405180830381865afa158015610715573d5f803e3d5ffd5b505050506040513d601f19601f820116820180604052508101906107399190614129565b90506108295f8054906101000a90046001600160a01b03166001600160a01b031663d09edf316040518163ffffffff1660e01b8152600401602060405180830381865afa15801561078c573d5f803e3d5ffd5b505050506040513d601f19601f820116820180604052508101906107b0919061410e565b6001600160a01b031663248a9ca3836040518263ffffffff1660e01b81526004016107dd91815260200190565b602060405180830381865afa1580156107f8573d5f803e3d5ffd5b505050506040513d601f19601f8201168201806040525081019061081c9190614129565b61082461203d565b61208d565b5f8054906101000a90046001600160a01b03166001600160a01b031663d09edf316040518163ffffffff1660e01b8152600401602060405180830381865afa158015610877573d5f803e3d5ffd5b505050506040513d601f19601f8201168201806040525081019061089b919061410e565b6001600160a01b0316637d540a648686866040518463ffffffff1660e01b81526004016108ca93929190614140565b5f604051808303815f87803b1580156108e1575f80fd5b505af11580156108f3573d5f803e3d5ffd5b505050505050505050565b5f80546040805163d09edf3160e01b815290518693926001600160a01b03169163d09edf319160048083019260209291908290030181865afa158015610946573d5f803e3d5ffd5b505050506040513d601f19601f8201168201806040525081019061096a919061410e565b60405163fdd5205f60e01b8152306004820152602481018490526001600160a01b03919091169063fdd5205f90604401602060405180830381865afa1580156109b5573d5f803e3d5ffd5b505050506040513d601f19601f820116820180604052508101906109d99190614129565b9050610a2c5f8054906101000a90046001600160a01b03166001600160a01b031663d09edf316040518163ffffffff1660e01b8152600401602060405180830381865afa15801561078c573d5f803e3d5ffd5b5f8054906101000a90046001600160a01b03166001600160a01b031663d09edf316040518163ffffffff1660e01b8152600401602060405180830381865afa158015610a7a573d5f803e3d5ffd5b505050506040513d601f19601f82011682018060405250810190610a9e919061410e565b6001600160a01b031663648154538686866040518463ffffffff1660e01b81526004016108ca93929190614140565b606060016004018054610adf90614197565b80601f0160208091040260200160405190810160405280929190818152602001828054610b0b90614197565b8015610b565780601f10610b2d57610100808354040283529160200191610b56565b820191905f5260205f20905b815481529060010190602001808311610b3957829003601f168201915b5050505050905090565b5f546040805163d09edf3160e01b81529051610c07926001600160a01b03169163d09edf319160048083019260209291908290030181865afa158015610ba8573d5f803e3d5ffd5b505050506040513d601f19601f82011682018060405250810190610bcc919061410e565b6001600160a01b031663b3ecf2366040518163ffffffff1660e01b8152600401602060405180830381865afa1580156107f8573d5f803e3d5ffd5b610c1283838361219f565b6001600160a01b038084165f908152603960209081526040808320938616835292815282822084835290522060060154421015610c5457610c54838383612592565b505050565b606060016003018054610adf90614197565b5f805460405163572b6c0560e01b81526001600160a01b0384811660048301529091169063572b6c0590602401602060405180830381865afa158015610cb3573d5f803e3d5ffd5b505050506040513d601f19601f8201168201806040525081019061060691906141cf565b6001600160a01b0382165f908152603d6020526040812090610cf761203d565b6001600160a01b0316815260208101919091526040015f20541580610d5a57506001600160a01b0382165f90815260386020526040812090610d3761203d565b6001600160a01b03166001600160a01b031681526020019081526020015f205481115b15610da05781610d6861203d565b60405163a4e07aad60e01b81526001600160a01b03928316600482015291166024820152604481018290526064015b60405180910390fd5b5f19610db483610dae61203d565b84612679565b03610df55781610dc261203d565b6040516332c595cd60e21b81526001600160a01b0392831660048201529116602482015260448101829052606401610d97565b610e0782610e0161203d565b8361219f565b5050565b5f80546040805163d09edf3160e01b815290518593926001600160a01b03169163d09edf319160048083019260209291908290030181865afa158015610e53573d5f803e3d5ffd5b505050506040513d601f19601f82011682018060405250810190610e77919061410e565b60405163fdd5205f60e01b8152306004820152602481018490526001600160a01b03919091169063fdd5205f90604401602060405180830381865afa158015610ec2573d5f803e3d5ffd5b505050506040513d601f19601f82011682018060405250810190610ee69190614129565b9050610f395f8054906101000a90046001600160a01b03166001600160a01b031663d09edf316040518163ffffffff1660e01b8152600401602060405180830381865afa15801561078c573d5f803e3d5ffd5b5f8054906101000a90046001600160a01b03166001600160a01b031663d09edf316040518163ffffffff1660e01b8152600401602060405180830381865afa158015610f87573d5f803e3d5ffd5b505050506040513d601f19601f82011682018060405250810190610fab919061410e565b60405163385e205560e21b8152600481018690526001600160a01b038581166024830152919091169063e1788154906044015b5f604051808303815f87803b158015610ff5575f80fd5b505af1158015611007573d5f803e3d5ffd5b5050505050505050565b6001600160a01b038083165f908152603d60209081526040808320938516835292905290812054606091849184910361107057604051630487770160e01b81526001600160a01b03808416600483015282166024820152604401610d97565b6001600160a01b038086165f908152603d602090815260408083209388168352928152828220805484518184028101840190955280855292939290918301828280156110d957602002820191905f5260205f20905b8154815260200190600101908083116110c5575b505050505090505f815190505f808267ffffffffffffffff81111561110057611100613d88565b60405190808252806020026020018201604052801561117357816020015b6111606040518060e001604052805f6001600160a01b031681526020015f81526020015f81526020015f81526020015f81526020015f81526020015f81525090565b81526020019060019003908161111e5790505b5090505b82821015611256576001600160a01b03808a165f908152603960209081526040808320938c16835292905290812085519091908690859081106111bc576111bc6141ee565b60209081029190910181015182528181019290925260409081015f20815160e08101835281546001600160a01b031681526001820154938101939093526002810154918301919091526003810154606083015260048101546080830152600581015460a08301526006015460c08201528151829084908110611240576112406141ee565b6020026020010181905250816001019150611177565b95505050505b505092915050565b5f546001600160a01b03166342f6e38961127c61203d565b6040516001600160e01b031960e084901b1681526001600160a01b039091166004820152602401602060405180830381865afa1580156112be573d5f803e3d5ffd5b505050506040513d601f19601f820116820180604052508101906112e291906141cf565b6112ff57604051633c9fdabb60e01b815260040160405180910390fd5b80806001600160a01b031661131261203d565b6001600160a01b031614611339576040516305bc73ab60e51b815260040160405180910390fd5b610e0782612737565b6001600160a01b0381165f908152603d602052604081209061136261203d565b6001600160a01b0316815260208101919091526040015f9081205490036113b8578061138c61203d565b6040516307461ff560e51b81526001600160a01b03928316600482015291166024820152604401610d97565b6113c9816113c461203d565b6127e4565b50565b5f61151f60016040518060a00160405290815f8201548152602001600182015481526020016002820154815260200160038201805461140a90614197565b80601f016020809104026020016040519081016040528092919081815260200182805461143690614197565b80156114815780601f1061145857610100808354040283529160200191611481565b820191905f5260205f20905b81548152906001019060200180831161146457829003601f168201915b5050505050815260200160048201805461149a90614197565b80601f01602080910402602001604051908101604052809291908181526020018280546114c690614197565b80156115115780601f106114e857610100808354040283529160200191611511565b820191905f5260205f20905b8154815290600101906020018083116114f457829003601f168201915b505050505081525050612895565b905090565b5f805f9054906101000a90046001600160a01b03166001600160a01b0316637da0a8776040518163ffffffff1660e01b8152600401602060405180830381865afa158015611574573d5f803e3d5ffd5b505050506040513d601f19601f8201168201806040525081019061151f919061410e565b6115a5838361057c61203d565b5f036115b4578261138c61203d565b610c548383836128d3565b5f546040805163d09edf3160e01b81529051611607926001600160a01b03169163d09edf319160048083019260209291908290030181865afa158015610ba8573d5f803e3d5ffd5b610c54838383612b3e565b7ff0c57e16840df040f15088dc2f81fe391c3923bec73e23a9662efc9c229c6a00805468010000000000000000810460ff16159067ffffffffffffffff165f8115801561165c5750825b90505f8267ffffffffffffffff1660011480156116785750303b155b905081158015611686575080155b156116a45760405163f92ee8a960e01b815260040160405180910390fd5b845467ffffffffffffffff1916600117855583156116d857845468ff00000000000000001916680100000000000000001785555b6116e28888612b86565b5f805f888060200190518101906116f9919061420d565b92509250925061170a838383612b3e565b505050831561100757845468ff000000000000000019168555604051600181527fc7f505b2f371ae2175ee4913f4499e1f2633a7b5936321eed1cdaeb6115181d29060200160405180910390a15050505050505050565b5f80546040805163d09edf3160e01b815290518593926001600160a01b03169163d09edf319160048083019260209291908290030181865afa1580156117a9573d5f803e3d5ffd5b505050506040513d601f19601f820116820180604052508101906117cd919061410e565b60405163fdd5205f60e01b8152306004820152602481018490526001600160a01b03919091169063fdd5205f90604401602060405180830381865afa158015611818573d5f803e3d5ffd5b505050506040513d601f19601f8201168201806040525081019061183c9190614129565b905061188f5f8054906101000a90046001600160a01b03166001600160a01b031663d09edf316040518163ffffffff1660e01b8152600401602060405180830381865afa15801561078c573d5f803e3d5ffd5b5f8054906101000a90046001600160a01b03166001600160a01b031663d09edf316040518163ffffffff1660e01b8152600401602060405180830381865afa1580156118dd573d5f803e3d5ffd5b505050506040513d601f19601f82011682018060405250810190611901919061410e565b604051632e99be7f60e21b8152600481018690526001600160a01b038581166024830152919091169063ba66f9fc90604401610fde565b5f546040805163d09edf3160e01b81529051611980926001600160a01b03169163d09edf319160048083019260209291908290030181865afa158015610ba8573d5f803e3d5ffd5b5f1961198c8383612c7f565b036119bd57604051630487770160e01b81526001600160a01b03808416600483015282166024820152604401610d97565b610e078282612d48565b6001600160a01b038084165f908152603a602090815260408083208685168452825280832093851683529281528282208054845181840281018401909552808552929384939092830182828015611a3b57602002820191905f5260205f20905b815481526020019060010190808311611a27575b505050505090505f81519050805f03611a58575f92505050610657565b5f5b81811015611ad4576001600160a01b038088165f908152603b602090815260408083208a85168452825280832093891683529290529081208451909190859084908110611aa957611aa96141ee565b602002602001015181526020019081526020015f205484611aca9190614238565b9350600101611a5a565b5050509392505050565b5f546001600160a01b03166342f6e389611af661203d565b6040516001600160e01b031960e084901b1681526001600160a01b039091166004820152602401602060405180830381865afa158015611b38573d5f803e3d5ffd5b505050506040513d601f19601f82011682018060405250810190611b5c91906141cf565b611b7957604051633c9fdabb60e01b815260040160405180910390fd5b80806001600160a01b0316611b8c61203d565b6001600160a01b031614611bb3576040516305bc73ab60e51b815260040160405180910390fd5b5f826001600160a01b03166375fa0b766040518163ffffffff1660e01b81526004015f60405180830381865afa158015611bef573d5f803e3d5ffd5b505050506040513d5f823e601f3d908101601f19168201604052611c1691908101906143a7565b511115610e07576060806060846001600160a01b031663c0231ff66040518163ffffffff1660e01b81526004015f604051808303815f875af1158015611c5e573d5f803e3d5ffd5b505050506040513d5f823e601f3d908101601f19168201604052611c8591908101906143d9565b919450925090505f5b8251811015611d5e57818181518110611ca957611ca96141ee565b6020026020010151838281518110611cc357611cc36141ee565b60209081029190910101516040516370a0823160e01b81526001600160a01b038981166004830152909116906370a0823190602401602060405180830381865afa158015611d13573d5f803e3d5ffd5b505050506040513d601f19601f82011682018060405250810190611d379190614129565b1015611d565760405163189db84f60e31b815260040160405180910390fd5b600101611c8e565b5082515f5b81811015611f6957611d8d858281518110611d8057611d806141ee565b6020026020010151611f8a565b611daa5760405163349a262760e01b815260040160405180910390fd5b611e3a87868381518110611dc057611dc06141ee565b602002602001015160385f8b6001600160a01b03166001600160a01b031681526020019081526020015f205f898681518110611dfe57611dfe6141ee565b60200260200101515f01516001600160a01b03166001600160a01b031681526020019081526020015f20546001611e359190614238565b612e44565b848181518110611e4c57611e4c6141ee565b6020026020010151602001516001600160a01b0316858281518110611e7357611e736141ee565b60200260200101515f01516001600160a01b0316886001600160a01b03167f77c957f699292a35e002035101358ada282ad6c1c41c1777caa5535e6dcf8843888581518110611ec457611ec46141ee565b602002602001015160400151898681518110611ee257611ee26141ee565b6020026020010151606001518a8781518110611f0057611f006141ee565b6020026020010151608001518b8881518110611f1e57611f1e6141ee565b602002602001015160a001518c8981518110611f3c57611f3c6141ee565b602002602001015160c00151604051611f599594939291906144ad565b60405180910390a4600101611d63565b50505050505050565b5f611f7f85858585613095565b90505b949350505050565b5f805f80611fa08560a001518660c0015161313c565b925092509250611fb2855f015161327e565b8015611fc15750604085015115155b8015611fd35750611fd38383836133c2565b8015611fe75750611fe785602001516133d8565b8015612000575061200085606001518660800151613497565b95945050505050565b5f6001600160e01b0319821663e328951160e01b148061060657506301ffc9a760e01b6001600160e01b0319831614610606565b5f36601461204a33610c6b565b80156120565750808210155b15612085575f3661206783856140fb565b612072928290614510565b61207b91614537565b60601c9250505090565b339250505090565b5f8054906101000a90046001600160a01b03166001600160a01b031663d09edf316040518163ffffffff1660e01b8152600401602060405180830381865afa1580156120db573d5f803e3d5ffd5b505050506040513d601f19601f820116820180604052508101906120ff919061410e565b60405163a883867d60e01b8152600481018490526001600160a01b038381166024830152919091169063a883867d90604401602060405180830381865afa15801561214c573d5f803e3d5ffd5b505050506040513d601f19601f8201168201806040525081019061217091906141cf565b610e07576040516342abbb7760e01b8152600481018390526001600160a01b0382166024820152604401610d97565b5f6121ab84848461060c565b6001600160a01b038086165f90815260396020908152604080832093881683529281528282208683529052908120600301805492935083929091906121f1908490614238565b90915550506001600160a01b038481165f8181526039602090815260408083208886168085529083528184208885528352818420548251602481019690965260448601919091526064808601889052825180870390910181526084909501825291840180516001600160e01b03166323b872dd60e01b1790525193169290918291849161227d9161456a565b5f604051808303815f865af19150503d805f81146122b6576040519150601f19603f3d011682016040523d82523d5f602084013e6122bb565b606091505b50915091508180156122e55750805115806122e55750808060200190518101906122e591906141cf565b80156122fa57506001600160a01b0383163b15155b156123ae57826001600160a01b0316866001600160a01b03167f3737f2a73c794dafe53d8aeea06810a9ebcf7167401b259406960e088e03f8308660405161234491815260200190565b60405180910390a3604051631667d8c360e31b81526001600160a01b0384811660048301526024820186905288169063b33ec618906044015f604051808303815f87803b158015612393575f80fd5b505af11580156123a5573d5f803e3d5ffd5b50505050612555565b604080516001600160a01b038881168252858116602083015291810187905260608101869052908816907f1233c88a83985cb9ecaf0cf1184c00ad4457d9bb5068bd5eae2ff26dc83e2a829060800160405180910390a26001600160a01b038088165f908152603a6020908152604080832087851684528252808320938a1683529281528282208054845181840281018401909552808552929392909183018282801561247857602002820191905f5260205f20905b815481526020019060010190808311612464575b505050505090505f805b82518110156124bc5782818151811061249d5761249d6141ee565b602002602001015188036124b457600191506124bc565b600101612482565b5080612505576001600160a01b03808a165f908152603a6020908152604080832089851684528252808320938c1683529281529181208054600181018255908252919020018790555b6001600160a01b03808a165f908152603b6020908152604080832089851684528252808320938c1683529281528282208a83529052908120805488929061254d908490614238565b909155505050505b6001600160a01b038088165f908152603960209081526040808320938a168352928152828220888352905220600601544210611f6957611f698787875b61259d8383836134a9565b6001600160a01b038381165f818152603960209081526040808320948716808452948252808320868452825280832080546001600160a01b03191681556001810184905560028101849055600381018490556004810184905560058101849055600601839055928252603d8152828220938252929092528120549003612627576126278383613680565b816001600160a01b0316836001600160a01b03167fe6a0687ee789528abb9aac335f8b10067233039efce66e64f52a6bd3fad134c58360405161266c91815260200190565b60405180910390a3505050565b6001600160a01b038084165f908152603d60209081526040808320938616835292815282822080548451818402810184019095528085529293849390928301828280156126e357602002820191905f5260205f20905b8154815260200190600101908083116126cf575b505083519394505f925050505b8181101561272a578483828151811061270b5761270b6141ee565b602002602001015103612722579250610657915050565b6001016126f0565b505f199695505050505050565b6001600160a01b0381165f908152603c602090815260408083208054825181850281018501909352808352919290919083018282801561279e57602002820191905f5260205f20905b81546001600160a01b03168152600190910190602001808311612780575b505083519394505f925050505b818110156127de576127d6848483815181106127c9576127c96141ee565b6020026020010151612d48565b6001016127ab565b50505050565b6001600160a01b038083165f908152603d6020908152604080832093851683529281528282208054845181840281018401909552808552929392909183018282801561284d57602002820191905f5260205f20905b815481526020019060010190808311612839575b505083519394505f925050505b8181101561288e576128868585858481518110612879576128796141ee565b602002602001015161219f565b60010161285a565b5050505050565b5f815f0151826060015183608001516040516020016128b693929190614585565b604051602081830303815290604052805190602001209050919050565b5f806128dd61203d565b6001600160a01b038087165f908152603a60209081526040808320898516845282528083209385168352928152828220805484518184028101840190955280855294955091939083018282801561295157602002820191905f5260205f20905b81548152602001906001019080831161293d575b505083519394505f925050505b81811015612a3b576001600160a01b038089165f908152603b602090815260408083208b851684528252808320938816835292905290812084519091908590849081106129ad576129ad6141ee565b602002602001015181526020019081526020015f2054856129ce9190614238565b6001600160a01b03808a165f908152603b602090815260408083208c8516845282528083209389168352929052908120855192975091859084908110612a1657612a166141ee565b602002602001015181526020019081526020015f205f9055808060010191505061295e565b506001600160a01b038088165f908152603a602090815260408083208a8516845282528083209387168352929052908120612a7591613a3d565b604051631667d8c360e31b81526001600160a01b0387811660048301526024820186905288169063b33ec618906044015f604051808303815f87803b158015612abc575f80fd5b505af1158015612ace573d5f803e3d5ffd5b50612ae8925050506001600160a01b0387168887876137d6565b856001600160a01b0316856001600160a01b03167f3737f2a73c794dafe53d8aeea06810a9ebcf7167401b259406960e088e03f83086604051612b2d91815260200190565b60405180910390a350505050505050565b612b498383836133c2565b15612b5c57603e92909255603f55604055565b604051633e87910160e11b8152600481018490526024810183905260448101829052606401610d97565b612b8e613830565b6001600160a01b038216612bb557604051637280679360e01b815260040160405180910390fd5b5f80546001600160a01b0319166001600160a01b038416179055612bd881613880565b612bf557604051637511254160e01b815260040160405180910390fd5b80516001908155602082015160025560408201516003556060820151829190600490612c2190826145f3565b5060808201516004820190612c3690826145f3565b50905050816001600160a01b03167fd5f3f84c2e1816ce290af84d002663800b02f2985d770cdd335de76fd723b73082604051612c7391906146af565b60405180910390a25050565b6001600160a01b0382165f908152603c6020908152604080832080548251818502810185019093528083528493830182828015612ce357602002820191905f5260205f20905b81546001600160a01b03168152600190910190602001808311612cc5575b505083519394505f925050505b81811015612d3c57846001600160a01b0316838281518110612d1457612d146141ee565b60200260200101516001600160a01b031603612d34579250610606915050565b600101612cf0565b505f1995945050505050565b6001600160a01b038083165f908152603d60209081526040808320938516835292815282822080548451818402810184019095528085529293929091830182828015612db157602002820191905f5260205f20905b815481526020019060010190808311612d9d575b505050505090505f815190505f805b82821015612e3c57838281518110612dda57612dda6141ee565b60200260200101519050612def86868361219f565b6001600160a01b038087165f908152603960209081526040808320938916835292815282822084835290522060060154421015612e3157612e31868683612592565b816001019150612dc0565b505050505050565b6001600160a01b038084165f908152603860209081526040808320865190941683529290529081208054909190612e7a90614705565b919050819055505f805f612e968560a001518660c0015161313c565b9250925092506040518060e0016040528086602001516001600160a01b03168152602001858152602001866040015181526020015f81526020018481526020018381526020018281525060395f886001600160a01b03166001600160a01b031681526020019081526020015f205f875f01516001600160a01b03166001600160a01b031681526020019081526020015f205f8681526020019081526020015f205f820151815f015f6101000a8154816001600160a01b0302191690836001600160a01b031602179055506020820151816001015560408201518160020155606082015181600301556080820151816004015560a0820151816005015560c082015181600601559050505f19612fae87875f0151612c7f565b03612ff5576001600160a01b038681165f908152603c602090815260408220885181546001810183559184529190922090910180546001600160a01b031916919092161790555b6001600160a01b038681165f818152603d602090815260408083208a518616845282528083208054600181018255908452928290209092018890558881015189518a84015184518b81529384015292820188905260608201879052608082018690528416939190911691907f84837fd0db980d123add5802f72b60537592dccedc5fecb06d671aaeb50874d69060a00160405180910390a4505050505050565b6001600160a01b038481165f90815260396020908152604080832093871683529281528282208583529052908120600281015460048201546006830154600590930154919290916130e69083614238565b8510156130f8575f9350505050611f82565b80851061310a57829350505050611f82565b61311482826140fb565b61311e83876140fb565b613128908561471d565b6131329190614734565b9350505050611f82565b5f805f613147613a58565b5f805f5b6101008110156132605760038260ff16031561326057600180821b8a8116151591600e90911615159082148015613180575080155b15613193578461318f81614753565b9550505b811580156131a357506001811515145b156131e857603e8460ff16600381106131be576131be6141ee565b0154868560ff16600381106131d5576131d56141ee565b6020020152836131e481614753565b9450505b60018215151480156131fc57506001811515145b1561325657898560ff1681518110613216576132166141ee565b60200260200101515f1c868560ff1660038110613235576132356141ee565b60200201528461324481614753565b955050838061325290614753565b9450505b505060010161314b565b50508151602083015160409093015190989297509550909350505050565b5f6001600160a01b03821615806132ad575061329861203d565b6001600160a01b0316826001600160a01b0316145b806132c057506001600160a01b03821630145b806132d757505f546001600160a01b038381169116145b806133bb57505f546001600160a01b03166001600160a01b03166304baed9e6040518163ffffffff1660e01b8152600401602060405180830381865afa158015613323573d5f803e3d5ffd5b505050506040513d601f19601f82011682018060405250810190613347919061410e565b6001600160a01b031663fc0c546a6040518163ffffffff1660e01b8152600401602060405180830381865afa158015613382573d5f803e3d5ffd5b505050506040513d601f19601f820116820180604052508101906133a6919061410e565b6001600160a01b0316826001600160a01b0316145b1592915050565b5f816133ce8486614238565b1115949350505050565b604080513060248083019190915282518083039091018152604490910182526020810180516001600160e01b03166370a0823160e01b17905290515f91829182916001600160a01b0386169161342e919061456a565b5f604051808303815f865af19150503d805f8114613467576040519150601f19603f3d011682016040523d82523d5f602084013e61346c565b606091505b509150915081801561347e5750805115155b8015611f8257505050506001600160a01b03163b151590565b5f818314801561065757505050461490565b5f6134b5848484612679565b90505f1981036134fb57836134c861203d565b6040516332c595cd60e21b81526001600160a01b0392831660048201529116602482015260448101839052606401610d97565b6001600160a01b038481165f9081526039602090815260408083208785168452825280832086845290915281208054600382015460029092015493169261354291906140fb565b905080156135a857604051631667d8c360e31b81526001600160a01b0383811660048301526024820183905287169063b33ec618906044015f604051808303815f87803b158015613591575f80fd5b505af11580156135a3573d5f803e3d5ffd5b505050505b6001600160a01b038681165f908152603d6020908152604080832093891683529290522080546135da906001906140fb565b815481106135ea576135ea6141ee565b5f9182526020808320909101546001600160a01b03808a168452603d83526040808520918a16855292529120805485908110613628576136286141ee565b5f9182526020808320909101929092556001600160a01b038089168252603d83526040808320918916835292522080548061366557613665614771565b600190038181905f5260205f20015f90559055505050505050565b5f61368b8383612c7f565b90505f1981036136c157604051630487770160e01b81526001600160a01b03808516600483015283166024820152604401610d97565b6001600160a01b0383165f908152603c602052604090208054906136e66001836140fb565b815481106136f6576136f66141ee565b5f9182526020808320909101546001600160a01b038781168452603c9092526040909220805491909216919084908110613732576137326141ee565b5f91825260208083209190910180546001600160a01b0319166001600160a01b039485161790559186168152603c9091526040902080548061377657613776614771565b5f8281526020812082015f1990810180546001600160a01b03191690559091019091556040516001600160a01b0385811692908716917ffc59aabaa43e37f2cffbc0b3676030e79d3286389cc24d4e335a86e67dd58a4e9190a350505050565b604080516001600160a01b0385811660248301528416604482015260648082018490528251808303909101815260849091019091526020810180516001600160e01b03166323b872dd60e01b1790526127de9085906138da565b7ff0c57e16840df040f15088dc2f81fe391c3923bec73e23a9662efc9c229c6a005468010000000000000000900460ff1661387e57604051631afcd79f60e31b815260040160405180910390fd5b565b5f8160600151515f0361389457505f919050565b8160800151515f036138a757505f919050565b81511580156138b857506020820151155b80156138c657506040820151155b156138d257505f919050565b506001919050565b5f6138ee6001600160a01b0384168361393b565b905080515f1415801561391257508080602001905181019061391091906141cf565b155b15610c5457604051635274afe760e01b81526001600160a01b0384166004820152602401610d97565b606061065783835f845f80856001600160a01b0316848660405161395f919061456a565b5f6040518083038185875af1925050503d805f8114613999576040519150601f19603f3d011682016040523d82523d5f602084013e61399e565b606091505b50915091506139ae8683836139b8565b9695505050505050565b6060826139cd576139c882613a14565b610657565b81511580156139e457506001600160a01b0384163b155b15613a0d57604051639996b31560e01b81526001600160a01b0385166004820152602401610d97565b5080610657565b805115613a245780518082602001fd5b604051630a12f52160e11b815260040160405180910390fd5b5080545f8255905f5260205f20908101906113c99190613a76565b60405180606001604052806003906020820280368337509192915050565b5b80821115613a8a575f8155600101613a77565b5090565b5f60208284031215613a9e575f80fd5b81356001600160e01b031981168114610657575f80fd5b6001600160a01b03811681146113c9575f80fd5b8035613ad481613ab5565b919050565b5f805f60608486031215613aeb575f80fd5b8335613af681613ab5565b92506020840135613b0681613ab5565b929592945050506040919091013590565b5f805f60408486031215613b29575f80fd5b83359250602084013567ffffffffffffffff80821115613b47575f80fd5b818601915086601f830112613b5a575f80fd5b813581811115613b68575f80fd5b8760208260051b8501011115613b7c575f80fd5b6020830194508093505050509250925092565b5f8060408385031215613ba0575f80fd5b8235613bab81613ab5565b91506020830135613bbb81613ab5565b809150509250929050565b5f5b83811015613be0578181015183820152602001613bc8565b50505f910152565b5f8151808452613bff816020860160208601613bc6565b601f01601f19169290920160200192915050565b602081525f6106576020830184613be8565b5f60208284031215613c35575f80fd5b813561065781613ab5565b5f8060408385031215613c51575f80fd5b8235613c5c81613ab5565b946020939093013593505050565b5f8060408385031215613c7b575f80fd5b823591506020830135613bbb81613ab5565b602080825282518282018190525f919060409081850190868401855b82811015613d0a57815180516001600160a01b0316855286810151878601528581015186860152606080820151908601526080808201519086015260a0808201519086015260c0908101519085015260e09093019290850190600101613ca9565b5091979650505050505050565b5f805f60608486031215613d29575f80fd5b8335613d3481613ab5565b92506020840135613d4481613ab5565b91506040840135613d5481613ab5565b809150509250925092565b5f805f60608486031215613d71575f80fd5b505081359360208301359350604090920135919050565b634e487b7160e01b5f52604160045260245ffd5b60405160a0810167ffffffffffffffff81118282101715613dbf57613dbf613d88565b60405290565b60405160e0810167ffffffffffffffff81118282101715613dbf57613dbf613d88565b604051601f8201601f1916810167ffffffffffffffff81118282101715613e1157613e11613d88565b604052919050565b5f82601f830112613e28575f80fd5b813567ffffffffffffffff811115613e4257613e42613d88565b613e55601f8201601f1916602001613de8565b818152846020838601011115613e69575f80fd5b816020850160208301375f918101602001919091529392505050565b5f805f60608486031215613e97575f80fd5b8335613ea281613ab5565b9250602084013567ffffffffffffffff80821115613ebe575f80fd5b9085019060a08288031215613ed1575f80fd5b613ed9613d9c565b823581526020830135602082015260408301356040820152606083013582811115613f02575f80fd5b613f0e89828601613e19565b606083015250608083013582811115613f25575f80fd5b613f3189828601613e19565b60808301525093506040860135915080821115613f4c575f80fd5b50613f5986828701613e19565b9150509250925092565b5f805f8060808587031215613f76575f80fd5b8435613f8181613ab5565b93506020850135613f9181613ab5565b93969395505050506040820135916060013590565b5f67ffffffffffffffff821115613fbf57613fbf613d88565b5060051b60200190565b5f82601f830112613fd8575f80fd5b81356020613fed613fe883613fa6565b613de8565b8083825260208201915060208460051b87010193508684111561400e575f80fd5b602086015b8481101561402a5780358352918301918301614013565b509695505050505050565b5f60208284031215614045575f80fd5b813567ffffffffffffffff8082111561405c575f80fd5b9083019060e0828603121561406f575f80fd5b614077613dc5565b61408083613ac9565b815261408e60208401613ac9565b602082015260408301356040820152606083013560608201526080830135608082015260a083013560a082015260c0830135828111156140cc575f80fd5b6140d887828601613fc9565b60c08301525095945050505050565b634e487b7160e01b5f52601160045260245ffd5b81810381811115610606576106066140e7565b5f6020828403121561411e575f80fd5b815161065781613ab5565b5f60208284031215614139575f80fd5b5051919050565b838152604060208083018290529082018390525f90849060608401835b8681101561418b57833561417081613ab5565b6001600160a01b03168252928201929082019060010161415d565b50979650505050505050565b600181811c908216806141ab57607f821691505b6020821081036141c957634e487b7160e01b5f52602260045260245ffd5b50919050565b5f602082840312156141df575f80fd5b81518015158114610657575f80fd5b634e487b7160e01b5f52603260045260245ffd5b8051613ad481613ab5565b5f805f6060848603121561421f575f80fd5b8351925060208401519150604084015190509250925092565b80820180821115610606576106066140e7565b5f82601f83011261425a575f80fd5b8151602061426a613fe883613fa6565b8083825260208201915060208460051b87010193508684111561428b575f80fd5b602086015b8481101561402a5780518352918301918301614290565b5f82601f8301126142b6575f80fd5b815160206142c6613fe883613fa6565b82815260059290921b840181019181810190868411156142e4575f80fd5b8286015b8481101561402a57805167ffffffffffffffff80821115614307575f80fd5b9088019060e0828b03601f190181131561431f575f80fd5b614327613dc5565b614332888501614202565b81526040614341818601614202565b89830152606080860151828401526080915081860151818401525060a0808601518284015260c0915081860151818401525082850151925083831115614385575f80fd5b6143938d8a8588010161424b565b9082015286525050509183019183016142e8565b5f602082840312156143b7575f80fd5b815167ffffffffffffffff8111156143cd575f80fd5b611f82848285016142a7565b5f805f606084860312156143eb575f80fd5b835167ffffffffffffffff80821115614402575f80fd5b61440e878388016142a7565b9450602091508186015181811115614424575f80fd5b8601601f81018813614434575f80fd5b8051614442613fe882613fa6565b81815260059190911b8201840190848101908a831115614460575f80fd5b928501925b8284101561448757835161447881613ab5565b82529285019290850190614465565b60408a01519097509450505050808211156144a0575f80fd5b50613f598682870161424b565b5f60a08201878352602087602085015286604085015285606085015260a0608085015281855180845260c0860191506020870193505f5b81811015614500578451835293830193918301916001016144e4565b50909a9950505050505050505050565b5f808585111561451e575f80fd5b8386111561452a575f80fd5b5050820193919092039150565b6bffffffffffffffffffffffff19813581811691601485101561125c5760149490940360031b84901b1690921692915050565b5f825161457b818460208701613bc6565b9190910192915050565b838152606060208201525f61459d6060830185613be8565b82810360408401526139ae8185613be8565b601f821115610c5457805f5260205f20601f840160051c810160208510156145d45750805b601f840160051c820191505b8181101561288e575f81556001016145e0565b815167ffffffffffffffff81111561460d5761460d613d88565b6146218161461b8454614197565b846145af565b602080601f831160018114614654575f841561463d5750858301515b5f19600386901b1c1916600185901b178555612e3c565b5f85815260208120601f198616915b8281101561468257888601518255948401946001909101908401614663565b508582101561469f57878501515f19600388901b60f8161c191681555b5050505050600190811b01905550565b602081528151602082015260208201516040820152604082015160608201525f606083015160a060808401526146e860c0840182613be8565b90506080840151601f198483030160a08501526120008282613be8565b5f60018201614716576147166140e7565b5060010190565b8082028115828204841417610606576106066140e7565b5f8261474e57634e487b7160e01b5f52601260045260245ffd5b500490565b5f60ff821660ff8103614768576147686140e7565b60010192915050565b634e487b7160e01b5f52603160045260245ffdfea26469706673582212203dbf0e88f67a62d4c4757b196379ac4a3e9ff94bac27f903dd111b33ca17b0c164736f6c63430008170033",
    "linkReferences": {}
  },
  "methodIdentifiers": {
    "cancelRunningPayments(address)": "73d7764e",
    "claimAll(address)": "77329f35",
    "claimForSpecificStream(address,uint256)": "5eeede4d",
    "claimPreviouslyUnclaimable(address,address,address)": "81ac0367",
    "cliffForSpecificStream(address,address,uint256)": "cbe58ee2",
    "endForSpecificStream(address,address,uint256)": "4e6c76ae",
    "getProcessorFlags()": "294070ea",
    "getStreamingDefaults()": "e96d5fdf",
    "grantModuleRole(bytes32,address)": "6c67e807",
    "grantModuleRoleBatched(bytes32,address[])": "272bbd44",
    "identifier()": "7998a1c4",
    "init(address,(uint256,uint256,uint256,string,string),bytes)": "b66a870c",
    "isActivePaymentReceiver(address,address)": "410810cd",
    "isTrustedForwarder(address)": "572b6c05",
    "numStreams(address,address)": "5c9a6f5f",
    "orchestrator()": "b74795d9",
    "processPayments(address)": "e151fc61",
    "releasableForSpecificStream(address,address,uint256)": "1f2ac744",
    "releasedForSpecificStream(address,address,uint256)": "9e174994",
    "removeAllPaymentReceiverPayments(address,address)": "cb8e092f",
    "removePaymentForSpecificStream(address,address,uint256)": "54498314",
    "revokeModuleRole(bytes32,address)": "bcb61920",
    "revokeModuleRoleBatched(bytes32,address[])": "24e30270",
    "setStreamingDefaults(uint256,uint256,uint256)": "b467abcd",
    "startForSpecificStream(address,address,uint256)": "c0893302",
    "streamedAmountForSpecificStream(address,address,uint256,uint256)": "f4a192b3",
    "supportsInterface(bytes4)": "01ffc9a7",
    "title()": "4a79d50c",
    "trustedForwarder()": "7da0a877",
    "unclaimable(address,address,address)": "ceb43f54",
    "url()": "5600f04f",
    "validPaymentOrder((address,address,uint256,uint256,uint256,bytes32,bytes32[]))": "f7698285",
    "version()": "54fd4d50",
    "viewAllPaymentOrders(address,address)": "738e19a3"
  },
  "id": 176
}