{
  "abi": [
    {
      "type": "function",
      "name": "cancelRunningPayments",
      "inputs": [
        {
          "name": "client",
          "type": "address",
          "internalType": "contract IERC20PaymentClientBase_v1"
        }
      ],
      "outputs": [],
      "stateMutability": "nonpayable"
    },
    {
      "type": "function",
      "name": "decoder",
      "inputs": [
        {
          "name": "data",
          "type": "bytes",
          "internalType": "bytes"
        }
      ],
      "outputs": [
        {
          "name": "requirement",
          "type": "bool",
          "internalType": "bool"
        }
      ],
      "stateMutability": "pure"
    },
    {
      "type": "function",
      "name": "grantModuleRole",
      "inputs": [
        {
          "name": "role",
          "type": "bytes32",
          "internalType": "bytes32"
        },
        {
          "name": "target",
          "type": "address",
          "internalType": "address"
        }
      ],
      "outputs": [],
      "stateMutability": "nonpayable"
    },
    {
      "type": "function",
      "name": "grantModuleRoleBatched",
      "inputs": [
        {
          "name": "role",
          "type": "bytes32",
          "internalType": "bytes32"
        },
        {
          "name": "targets",
          "type": "address[]",
          "internalType": "address[]"
        }
      ],
      "outputs": [],
      "stateMutability": "nonpayable"
    },
    {
      "type": "function",
      "name": "identifier",
      "inputs": [],
      "outputs": [
        {
          "name": "",
          "type": "bytes32",
          "internalType": "bytes32"
        }
      ],
      "stateMutability": "view"
    },
    {
      "type": "function",
      "name": "init",
      "inputs": [
        {
          "name": "orchestrator_",
          "type": "address",
          "internalType": "contract IOrchestrator_v1"
        },
        {
          "name": "metadata",
          "type": "tuple",
          "internalType": "struct IModule_v1.Metadata",
          "components": [
            {
              "name": "majorVersion",
              "type": "uint256",
              "internalType": "uint256"
            },
            {
              "name": "minorVersion",
              "type": "uint256",
              "internalType": "uint256"
            },
            {
              "name": "url",
              "type": "string",
              "internalType": "string"
            },
            {
              "name": "title",
              "type": "string",
              "internalType": "string"
            }
          ]
        },
        {
          "name": "",
          "type": "bytes",
          "internalType": "bytes"
        }
      ],
      "outputs": [],
      "stateMutability": "nonpayable"
    },
    {
      "type": "function",
      "name": "init2",
      "inputs": [
        {
          "name": "orchestrator_",
          "type": "address",
          "internalType": "contract IOrchestrator_v1"
        },
        {
          "name": "dependencyData",
          "type": "bytes",
          "internalType": "bytes"
        }
      ],
      "outputs": [],
      "stateMutability": "nonpayable"
    },
    {
      "type": "function",
      "name": "isTrustedForwarder",
      "inputs": [
        {
          "name": "forwarder",
          "type": "address",
          "internalType": "address"
        }
      ],
      "outputs": [
        {
          "name": "",
          "type": "bool",
          "internalType": "bool"
        }
      ],
      "stateMutability": "view"
    },
    {
      "type": "function",
      "name": "orchestrator",
      "inputs": [],
      "outputs": [
        {
          "name": "",
          "type": "address",
          "internalType": "contract IOrchestrator_v1"
        }
      ],
      "stateMutability": "view"
    },
    {
      "type": "function",
      "name": "processPayments",
      "inputs": [
        {
          "name": "client",
          "type": "address",
          "internalType": "contract IERC20PaymentClientBase_v1"
        }
      ],
      "outputs": [],
      "stateMutability": "nonpayable"
    },
    {
      "type": "function",
      "name": "revokeModuleRole",
      "inputs": [
        {
          "name": "role",
          "type": "bytes32",
          "internalType": "bytes32"
        },
        {
          "name": "target",
          "type": "address",
          "internalType": "address"
        }
      ],
      "outputs": [],
      "stateMutability": "nonpayable"
    },
    {
      "type": "function",
      "name": "revokeModuleRoleBatched",
      "inputs": [
        {
          "name": "role",
          "type": "bytes32",
          "internalType": "bytes32"
        },
        {
          "name": "targets",
          "type": "address[]",
          "internalType": "address[]"
        }
      ],
      "outputs": [],
      "stateMutability": "nonpayable"
    },
    {
      "type": "function",
      "name": "supportsInterface",
      "inputs": [
        {
          "name": "interfaceId",
          "type": "bytes4",
          "internalType": "bytes4"
        }
      ],
      "outputs": [
        {
          "name": "",
          "type": "bool",
          "internalType": "bool"
        }
      ],
      "stateMutability": "view"
    },
    {
      "type": "function",
      "name": "title",
      "inputs": [],
      "outputs": [
        {
          "name": "",
          "type": "string",
          "internalType": "string"
        }
      ],
      "stateMutability": "view"
    },
    {
      "type": "function",
      "name": "token",
      "inputs": [],
      "outputs": [
        {
          "name": "",
          "type": "address",
          "internalType": "contract IERC20"
        }
      ],
      "stateMutability": "view"
    },
    {
      "type": "function",
      "name": "trustedForwarder",
      "inputs": [],
      "outputs": [
        {
          "name": "",
          "type": "address",
          "internalType": "address"
        }
      ],
      "stateMutability": "view"
    },
    {
      "type": "function",
      "name": "url",
      "inputs": [],
      "outputs": [
        {
          "name": "",
          "type": "string",
          "internalType": "string"
        }
      ],
      "stateMutability": "view"
    },
    {
      "type": "function",
      "name": "version",
      "inputs": [],
      "outputs": [
        {
          "name": "",
          "type": "uint256",
          "internalType": "uint256"
        },
        {
          "name": "",
          "type": "uint256",
          "internalType": "uint256"
        }
      ],
      "stateMutability": "view"
    },
    {
      "type": "event",
      "name": "Initialized",
      "inputs": [
        {
          "name": "version",
          "type": "uint64",
          "indexed": false,
          "internalType": "uint64"
        }
      ],
      "anonymous": false
    },
    {
      "type": "event",
      "name": "ModuleInitialized",
      "inputs": [
        {
          "name": "parentOrchestrator",
          "type": "address",
          "indexed": true,
          "internalType": "address"
        },
        {
          "name": "moduleTitle",
          "type": "string",
          "indexed": true,
          "internalType": "string"
        },
        {
          "name": "majorVersion",
          "type": "uint256",
          "indexed": false,
          "internalType": "uint256"
        },
        {
          "name": "minorVersion",
          "type": "uint256",
          "indexed": false,
          "internalType": "uint256"
        }
      ],
      "anonymous": false
    },
    {
      "type": "event",
      "name": "PaymentOrderProcessed",
      "inputs": [
        {
          "name": "paymentClient",
          "type": "address",
          "indexed": true,
          "internalType": "address"
        },
        {
          "name": "recipient",
          "type": "address",
          "indexed": true,
          "internalType": "address"
        },
        {
          "name": "amount",
          "type": "uint256",
          "indexed": false,
          "internalType": "uint256"
        },
        {
          "name": "createdAt",
          "type": "uint256",
          "indexed": false,
          "internalType": "uint256"
        },
        {
          "name": "dueTo",
          "type": "uint256",
          "indexed": false,
          "internalType": "uint256"
        }
      ],
      "anonymous": false
    },
    {
      "type": "event",
      "name": "TokensReleased",
      "inputs": [
        {
          "name": "recipient",
          "type": "address",
          "indexed": true,
          "internalType": "address"
        },
        {
          "name": "token",
          "type": "address",
          "indexed": true,
          "internalType": "address"
        },
        {
          "name": "amount",
          "type": "uint256",
          "indexed": false,
          "internalType": "uint256"
        }
      ],
      "anonymous": false
    },
    {
      "type": "error",
      "name": "AddressEmptyCode",
      "inputs": [
        {
          "name": "target",
          "type": "address",
          "internalType": "address"
        }
      ]
    },
    {
      "type": "error",
      "name": "AddressInsufficientBalance",
      "inputs": [
        {
          "name": "account",
          "type": "address",
          "internalType": "address"
        }
      ]
    },
    {
      "type": "error",
      "name": "FailedInnerCall",
      "inputs": []
    },
    {
      "type": "error",
      "name": "InvalidInitialization",
      "inputs": []
    },
    {
      "type": "error",
      "name": "Module_OrchestratorCallbackFailed",
      "inputs": [
        {
          "name": "funcSig",
          "type": "string",
          "internalType": "string"
        }
      ]
    },
    {
      "type": "error",
      "name": "Module__CallerNotAuthorized",
      "inputs": [
        {
          "name": "role",
          "type": "bytes32",
          "internalType": "bytes32"
        },
        {
          "name": "caller",
          "type": "address",
          "internalType": "address"
        }
      ]
    },
    {
      "type": "error",
      "name": "Module__CannotCallInit2Again",
      "inputs": []
    },
    {
      "type": "error",
      "name": "Module__InvalidMetadata",
      "inputs": []
    },
    {
      "type": "error",
      "name": "Module__InvalidOrchestratorAddress",
      "inputs": []
    },
    {
      "type": "error",
      "name": "Module__NoDependencyOrMalformedDependencyData",
      "inputs": []
    },
    {
      "type": "error",
      "name": "Module__OnlyCallableByOrchestrator",
      "inputs": []
    },
    {
      "type": "error",
      "name": "Module__PaymentProcessor__CannotCallOnOtherClientsOrders",
      "inputs": []
    },
    {
      "type": "error",
      "name": "Module__PaymentProcessor__OnlyCallableByModule",
      "inputs": []
    },
    {
      "type": "error",
      "name": "NotInitializing",
      "inputs": []
    },
    {
      "type": "error",
      "name": "SafeERC20FailedOperation",
      "inputs": [
        {
          "name": "token",
          "type": "address",
          "internalType": "address"
        }
      ]
    }
  ],
  "bytecode": {
    "object": "0x60a06040523480156200001157600080fd5b5060006080526200002162000027565b620000db565b7ff0c57e16840df040f15088dc2f81fe391c3923bec73e23a9662efc9c229c6a00805468010000000000000000900460ff1615620000785760405163f92ee8a960e01b815260040160405180910390fd5b80546001600160401b0390811614620000d85780546001600160401b0319166001600160401b0390811782556040519081527fc7f505b2f371ae2175ee4913f4499e1f2633a7b5936321eed1cdaeb6115181d29060200160405180910390a15b50565b6080516127f6620000f4600039600050506127f66000f3fe608060405234801561001057600080fd5b50600436106101365760003560e01c806373d7764e116100b25780639e97857511610081578063bcb6192011610066578063bcb6192014610281578063e151fc6114610294578063fc0c546a146102a757600080fd5b80639e97857514610258578063b74795d91461026b57600080fd5b806373d7764e146101fc5780637998a1c41461020f5780637da0a877146102255780639bfdf7661461024557600080fd5b80634a79d50c116101095780635600f04f116100ee5780635600f04f146101ce578063572b6c05146101d65780636c67e807146101e957600080fd5b80634a79d50c1461019e57806354fd4d50146101b357600080fd5b806301ffc9a71461013b57806324e3027014610163578063272bbd441461017857806342dfe9581461018b575b600080fd5b61014e610149366004611e40565b6102af565b60405190151581526020015b60405180910390f35b610176610171366004611e82565b61030b565b005b610176610186366004611e82565b6105dd565b61017661019936600461201d565b61082c565b6101a66109af565b60405161015a9190612149565b6001546002546040805192835260208301919091520161015a565b6101a6610a44565b61014e6101e436600461215c565b610a56565b6101766101f7366004612179565b610ae4565b61017661020a36600461215c565b610d6e565b610217610e9b565b60405190815260200161015a565b61022d610feb565b6040516001600160a01b03909116815260200161015a565b6101766102533660046121a9565b611063565b61014e6102663660046121f9565b611110565b60005461010090046001600160a01b031661022d565b61017661028f366004612179565b61112d565b6101766102a236600461215c565b611382565b61022d6116f5565b60007fffffffff0000000000000000000000000000000000000000000000000000000082167f6e8ade450000000000000000000000000000000000000000000000000000000014806103055750610305826117aa565b92915050565b60008060019054906101000a90046001600160a01b03166001600160a01b031663d09edf316040518163ffffffff1660e01b8152600401602060405180830381865afa15801561035f573d6000803e3d6000fd5b505050506040513d601f19601f820116820180604052508101906103839190612236565b90506000816001600160a01b03166355ff58d46040518163ffffffff1660e01b8152600401602060405180830381865afa1580156103c5573d6000803e3d6000fd5b505050506040513d601f19601f820116820180604052508101906103e99190612253565b9050816001600160a01b03166391d1485482610403611841565b6040517fffffffff0000000000000000000000000000000000000000000000000000000060e085901b16815260048101929092526001600160a01b03166024820152604401602060405180830381865afa158015610465573d6000803e3d6000fd5b505050506040513d601f19601f82011682018060405250810190610489919061227c565b6104df5780610496611841565b6040517f42abbb7700000000000000000000000000000000000000000000000000000000815260048101929092526001600160a01b031660248201526044015b60405180910390fd5b60008060019054906101000a90046001600160a01b03166001600160a01b031663d09edf316040518163ffffffff1660e01b8152600401602060405180830381865afa158015610533573d6000803e3d6000fd5b505050506040513d601f19601f820116820180604052508101906105579190612236565b6040517f7d540a640000000000000000000000000000000000000000000000000000000081529091506001600160a01b03821690637d540a64906105a390899089908990600401612297565b600060405180830381600087803b1580156105bd57600080fd5b505af11580156105d1573d6000803e3d6000fd5b50505050505050505050565b60008060019054906101000a90046001600160a01b03166001600160a01b031663d09edf316040518163ffffffff1660e01b8152600401602060405180830381865afa158015610631573d6000803e3d6000fd5b505050506040513d601f19601f820116820180604052508101906106559190612236565b90506000816001600160a01b03166355ff58d46040518163ffffffff1660e01b8152600401602060405180830381865afa158015610697573d6000803e3d6000fd5b505050506040513d601f19601f820116820180604052508101906106bb9190612253565b9050816001600160a01b03166391d14854826106d5611841565b6040517fffffffff0000000000000000000000000000000000000000000000000000000060e085901b16815260048101929092526001600160a01b03166024820152604401602060405180830381865afa158015610737573d6000803e3d6000fd5b505050506040513d601f19601f8201168201806040525081019061075b919061227c565b6107685780610496611841565b60008060019054906101000a90046001600160a01b03166001600160a01b031663d09edf316040518163ffffffff1660e01b8152600401602060405180830381865afa1580156107bc573d6000803e3d6000fd5b505050506040513d601f19601f820116820180604052508101906107e09190612236565b6040517f648154530000000000000000000000000000000000000000000000000000000081529091506001600160a01b038216906364815453906105a390899089908990600401612297565b7ff0c57e16840df040f15088dc2f81fe391c3923bec73e23a9662efc9c229c6a00805468010000000000000000810460ff16159067ffffffffffffffff166000811580156108775750825b905060008267ffffffffffffffff1660011480156108945750303b155b9050811580156108a2575080155b156108d9576040517ff92ee8a900000000000000000000000000000000000000000000000000000000815260040160405180910390fd5b84547fffffffffffffffffffffffffffffffffffffffffffffffff0000000000000000166001178555831561093a5784547fffffffffffffffffffffffffffffffffffffffffffffff00ffffffffffffffff16680100000000000000001785555b6109448888611893565b83156109a55784547fffffffffffffffffffffffffffffffffffffffffffffff00ffffffffffffffff168555604051600181527fc7f505b2f371ae2175ee4913f4499e1f2633a7b5936321eed1cdaeb6115181d29060200160405180910390a15b5050505050505050565b6060600160030180546109c1906122ef565b80601f01602080910402602001604051908101604052809291908181526020018280546109ed906122ef565b8015610a3a5780601f10610a0f57610100808354040283529160200191610a3a565b820191906000526020600020905b815481529060010190602001808311610a1d57829003601f168201915b5050505050905090565b6060600160020180546109c1906122ef565b600080546040517f572b6c050000000000000000000000000000000000000000000000000000000081526001600160a01b0384811660048301526101009092049091169063572b6c0590602401602060405180830381865afa158015610ac0573d6000803e3d6000fd5b505050506040513d601f19601f82011682018060405250810190610305919061227c565b60008060019054906101000a90046001600160a01b03166001600160a01b031663d09edf316040518163ffffffff1660e01b8152600401602060405180830381865afa158015610b38573d6000803e3d6000fd5b505050506040513d601f19601f82011682018060405250810190610b5c9190612236565b90506000816001600160a01b03166355ff58d46040518163ffffffff1660e01b8152600401602060405180830381865afa158015610b9e573d6000803e3d6000fd5b505050506040513d601f19601f82011682018060405250810190610bc29190612253565b9050816001600160a01b03166391d1485482610bdc611841565b6040517fffffffff0000000000000000000000000000000000000000000000000000000060e085901b16815260048101929092526001600160a01b03166024820152604401602060405180830381865afa158015610c3e573d6000803e3d6000fd5b505050506040513d601f19601f82011682018060405250810190610c62919061227c565b610c6f5780610496611841565b60008060019054906101000a90046001600160a01b03166001600160a01b031663d09edf316040518163ffffffff1660e01b8152600401602060405180830381865afa158015610cc3573d6000803e3d6000fd5b505050506040513d601f19601f82011682018060405250810190610ce79190612236565b6040517fe1788154000000000000000000000000000000000000000000000000000000008152600481018790526001600160a01b0386811660248301529192509082169063e1788154906044015b600060405180830381600087803b158015610d4f57600080fd5b505af1158015610d63573d6000803e3d6000fd5b505050505050505050565b60005461010090046001600160a01b03166342f6e389610d8c611841565b6040517fffffffff0000000000000000000000000000000000000000000000000000000060e084901b1681526001600160a01b0390911660048201526024016020604051808303816000875af1158015610dea573d6000803e3d6000fd5b505050506040513d601f19601f82011682018060405250810190610e0e919061227c565b610e44576040517f3c9fdabb00000000000000000000000000000000000000000000000000000000815260040160405180910390fd5b80806001600160a01b0316610e57611841565b6001600160a01b031614610e97576040517fb78e756000000000000000000000000000000000000000000000000000000000815260040160405180910390fd5b5050565b60408051608081018252600180548252600254602083015260038054600094610fe694939290840191610ecd906122ef565b80601f0160208091040260200160405190810160405280929190818152602001828054610ef9906122ef565b8015610f465780601f10610f1b57610100808354040283529160200191610f46565b820191906000526020600020905b815481529060010190602001808311610f2957829003601f168201915b50505050508152602001600382018054610f5f906122ef565b80601f0160208091040260200160405190810160405280929190818152602001828054610f8b906122ef565b8015610fd85780601f10610fad57610100808354040283529160200191610fd8565b820191906000526020600020905b815481529060010190602001808311610fbb57829003601f168201915b5050505050815250506119f2565b905090565b60008060019054906101000a90046001600160a01b03166001600160a01b0316637da0a8776040518163ffffffff1660e01b8152600401602060405180830381865afa15801561103f573d6000803e3d6000fd5b505050506040513d601f19601f82011682018060405250810190610fe69190612236565b60005460ff16156110a0576040517f904875a100000000000000000000000000000000000000000000000000000000815260040160405180910390fd5b600080547fffffffffffffffffffffffffffffffffffffffffffffffffffffffffffffff00166001179055806110d581611a32565b61110b576040517feef043ae00000000000000000000000000000000000000000000000000000000815260040160405180910390fd5b505050565b6000818060200190518101906111269190612366565b5092915050565b60008060019054906101000a90046001600160a01b03166001600160a01b031663d09edf316040518163ffffffff1660e01b8152600401602060405180830381865afa158015611181573d6000803e3d6000fd5b505050506040513d601f19601f820116820180604052508101906111a59190612236565b90506000816001600160a01b03166355ff58d46040518163ffffffff1660e01b8152600401602060405180830381865afa1580156111e7573d6000803e3d6000fd5b505050506040513d601f19601f8201168201806040525081019061120b9190612253565b9050816001600160a01b03166391d1485482611225611841565b6040517fffffffff0000000000000000000000000000000000000000000000000000000060e085901b16815260048101929092526001600160a01b03166024820152604401602060405180830381865afa158015611287573d6000803e3d6000fd5b505050506040513d601f19601f820116820180604052508101906112ab919061227c565b6112b85780610496611841565b60008060019054906101000a90046001600160a01b03166001600160a01b031663d09edf316040518163ffffffff1660e01b8152600401602060405180830381865afa15801561130c573d6000803e3d6000fd5b505050506040513d601f19601f820116820180604052508101906113309190612236565b6040517fba66f9fc000000000000000000000000000000000000000000000000000000008152600481018790526001600160a01b0386811660248301529192509082169063ba66f9fc90604401610d35565b60005461010090046001600160a01b03166342f6e3896113a0611841565b6040517fffffffff0000000000000000000000000000000000000000000000000000000060e084901b1681526001600160a01b0390911660048201526024016020604051808303816000875af11580156113fe573d6000803e3d6000fd5b505050506040513d601f19601f82011682018060405250810190611422919061227c565b611458576040517f3c9fdabb00000000000000000000000000000000000000000000000000000000815260040160405180910390fd5b80806001600160a01b031661146b611841565b6001600160a01b0316146114ab576040517fb78e756000000000000000000000000000000000000000000000000000000000815260040160405180910390fd5b60606000836001600160a01b031663c0231ff66040518163ffffffff1660e01b81526004016000604051808303816000875af11580156114ef573d6000803e3d6000fd5b505050506040513d6000823e601f3d908101601f191682016040526115179190810190612465565b6040517f13e640630000000000000000000000000000000000000000000000000000000081526004810182905291935091506001600160a01b038516906313e6406390602401600060405180830381600087803b15801561157757600080fd5b505af115801561158b573d6000803e3d6000fd5b5050505060006115996116f5565b905060008060008551905060005b81811015610d63578681815181106115c1576115c1612540565b60200260200101516000015193508681815181106115e1576115e1612540565b602090810291909101810151015192506116066001600160a01b0386168a8686611b3f565b846001600160a01b0316846001600160a01b03167f3737f2a73c794dafe53d8aeea06810a9ebcf7167401b259406960e088e03f8308560405161164b91815260200190565b60405180910390a3836001600160a01b0316896001600160a01b03167f8670529fee08e70ca6ce752dcfe3d3de7bfda6c2354df3054c7672c60b32c812858a858151811061169b5761169b612540565b6020026020010151604001518b86815181106116b9576116b9612540565b6020026020010151606001516040516116e5939291909283526020830191909152604082015260600190565b60405180910390a36001016115a7565b60008060019054906101000a90046001600160a01b03166001600160a01b03166304baed9e6040518163ffffffff1660e01b8152600401602060405180830381865afa158015611749573d6000803e3d6000fd5b505050506040513d601f19601f8201168201806040525081019061176d9190612236565b6001600160a01b031663fc0c546a6040518163ffffffff1660e01b8152600401602060405180830381865afa15801561103f573d6000803e3d6000fd5b60007fffffffff0000000000000000000000000000000000000000000000000000000082167f8c600c2300000000000000000000000000000000000000000000000000000000148061030557507f01ffc9a7000000000000000000000000000000000000000000000000000000007fffffffff00000000000000000000000000000000000000000000000000000000831614610305565b600036601461184f33610a56565b801561185b5750808210155b1561188b5760003661186d838561256f565b6118789282906125a9565b611881916125d3565b60601c9250505090565b339250505090565b61189b611bcd565b6001600160a01b0382166118db576040517f7280679300000000000000000000000000000000000000000000000000000000815260040160405180910390fd5b600080547fffffffffffffffffffffff0000000000000000000000000000000000000000ff166101006001600160a01b0385160217905561191b81611c36565b611951576040517f7511254100000000000000000000000000000000000000000000000000000000815260040160405180910390fd5b8051600190815560208201516002556040820151829190600390611975908261266b565b506060820151600382019061198a908261266b565b505050606081015160405161199f9190612767565b604080519182900382208351602080860151918552840152916001600160a01b038516917feb175f148a71d29a5f7bf5439182fcd81e6ea9cfc8a11b54ab0f705fa98fa8ca910160405180910390a35050565b6000816000015182604001518360600151604051602001611a1593929190612783565b604051602081830303815290604052805190602001209050919050565b6040517f9e9785750000000000000000000000000000000000000000000000000000000081526000903090639e97857590611a71908590600401612149565b602060405180830381865afa925050508015611aaa575060408051601f3d908101601f19168201909252611aa79181019061227c565b60015b611ab657506000919050565b6040517f9e9785750000000000000000000000000000000000000000000000000000000081523090639e97857590611af2908690600401612149565b602060405180830381865afa158015611b0f573d6000803e3d6000fd5b505050506040513d601f19601f82011682018060405250810190611b33919061227c565b9392505050565b919050565b604080516001600160a01b0385811660248301528416604482015260648082018490528251808303909101815260849091019091526020810180517bffffffffffffffffffffffffffffffffffffffffffffffffffffffff167f23b872dd00000000000000000000000000000000000000000000000000000000179052611bc7908590611c88565b50505050565b7ff0c57e16840df040f15088dc2f81fe391c3923bec73e23a9662efc9c229c6a005468010000000000000000900460ff16611c34576040517fd7e6bcf800000000000000000000000000000000000000000000000000000000815260040160405180910390fd5b565b6000816040015151600003611c4d57506000919050565b816060015151600003611c6257506000919050565b8151158015611c7357506020820151155b15611c8057506000919050565b506001919050565b6000611c9d6001600160a01b03841683611d04565b90508051600014158015611cc2575080806020019051810190611cc0919061227c565b155b1561110b576040517f5274afe70000000000000000000000000000000000000000000000000000000081526001600160a01b03841660048201526024016104d6565b6060611b338383600084600080856001600160a01b03168486604051611d2a9190612767565b60006040518083038185875af1925050503d8060008114611d67576040519150601f19603f3d011682016040523d82523d6000602084013e611d6c565b606091505b5091509150611d7c868383611d86565b9695505050505050565b606082611d9b57611d9682611dfb565b611b33565b8151158015611db257506001600160a01b0384163b155b15611df4576040517f9996b3150000000000000000000000000000000000000000000000000000000081526001600160a01b03851660048201526024016104d6565b5080611b33565b805115611e0b5780518082602001fd5b6040517f1425ea4200000000000000000000000000000000000000000000000000000000815260040160405180910390fd5b50565b600060208284031215611e5257600080fd5b81357fffffffff0000000000000000000000000000000000000000000000000000000081168114611b3357600080fd5b600080600060408486031215611e9757600080fd5b83359250602084013567ffffffffffffffff80821115611eb657600080fd5b818601915086601f830112611eca57600080fd5b813581811115611ed957600080fd5b8760208260051b8501011115611eee57600080fd5b6020830194508093505050509250925092565b6001600160a01b0381168114611e3d57600080fd5b7f4e487b7100000000000000000000000000000000000000000000000000000000600052604160045260246000fd5b6040516080810167ffffffffffffffff81118282101715611f6857611f68611f16565b60405290565b604051601f8201601f1916810167ffffffffffffffff81118282101715611f9757611f97611f16565b604052919050565b600067ffffffffffffffff821115611fb957611fb9611f16565b50601f01601f191660200190565b600082601f830112611fd857600080fd5b8135611feb611fe682611f9f565b611f6e565b81815284602083860101111561200057600080fd5b816020850160208301376000918101602001919091529392505050565b60008060006060848603121561203257600080fd5b833561203d81611f01565b9250602084013567ffffffffffffffff8082111561205a57600080fd5b908501906080828803121561206e57600080fd5b612076611f45565b823581526020830135602082015260408301358281111561209657600080fd5b6120a289828601611fc7565b6040830152506060830135828111156120ba57600080fd5b6120c689828601611fc7565b606083015250935060408601359150808211156120e257600080fd5b506120ef86828701611fc7565b9150509250925092565b60005b838110156121145781810151838201526020016120fc565b50506000910152565b600081518084526121358160208601602086016120f9565b601f01601f19169290920160200192915050565b602081526000611b33602083018461211d565b60006020828403121561216e57600080fd5b8135611b3381611f01565b6000806040838503121561218c57600080fd5b82359150602083013561219e81611f01565b809150509250929050565b600080604083850312156121bc57600080fd5b82356121c781611f01565b9150602083013567ffffffffffffffff8111156121e357600080fd5b6121ef85828601611fc7565b9150509250929050565b60006020828403121561220b57600080fd5b813567ffffffffffffffff81111561222257600080fd5b61222e84828501611fc7565b949350505050565b60006020828403121561224857600080fd5b8151611b3381611f01565b60006020828403121561226557600080fd5b5051919050565b80518015158114611b3a57600080fd5b60006020828403121561228e57600080fd5b611b338261226c565b83815260406020808301829052908201839052600090849060608401835b868110156122e35783356122c881611f01565b6001600160a01b0316825292820192908201906001016122b5565b50979650505050505050565b600181811c9082168061230357607f821691505b60208210810361233c577f4e487b7100000000000000000000000000000000000000000000000000000000600052602260045260246000fd5b50919050565b600067ffffffffffffffff82111561235c5761235c611f16565b5060051b60200190565b600080604080848603121561237a57600080fd5b6123838461226c565b925060208085015167ffffffffffffffff808211156123a157600080fd5b818701915087601f8301126123b557600080fd5b81516123c3611fe682612342565b81815260059190911b8301840190848101908a8311156123e257600080fd5b8585015b83811015612453578051858111156123fe5760008081fd5b8601603f81018d136124105760008081fd5b87810151612420611fe682611f9f565b8181528e8b8385010111156124355760008081fd5b612444828b83018d86016120f9565b855250509186019186016123e6565b50809750505050505050509250929050565b600080604080848603121561247957600080fd5b835167ffffffffffffffff81111561249057600080fd5b8401601f810186136124a157600080fd5b805160206124b1611fe683612342565b82815260079290921b830181019181810190898411156124d057600080fd5b938201935b8385101561252e576080858b0312156124ee5760008081fd5b6124f6611f45565b855161250181611f01565b815285840151848201528686015187820152606080870151908201528252608090940193908201906124d5565b97909101519698969750505050505050565b7f4e487b7100000000000000000000000000000000000000000000000000000000600052603260045260246000fd5b81810381811115610305577f4e487b7100000000000000000000000000000000000000000000000000000000600052601160045260246000fd5b600080858511156125b957600080fd5b838611156125c657600080fd5b5050820193919092039150565b7fffffffffffffffffffffffffffffffffffffffff00000000000000000000000081358181169160148510156126135780818660140360031b1b83161692505b505092915050565b601f82111561110b576000816000526020600020601f850160051c810160208610156126445750805b601f850160051c820191505b8181101561266357828155600101612650565b505050505050565b815167ffffffffffffffff81111561268557612685611f16565b6126998161269384546122ef565b8461261b565b602080601f8311600181146126ec57600084156126b65750858301515b7fffffffffffffffffffffffffffffffffffffffffffffffffffffffffffffffff600386901b1c1916600185901b178555612663565b600085815260208120601f198616915b8281101561271b578886015182559484019460019091019084016126fc565b508582101561275757878501517fffffffffffffffffffffffffffffffffffffffffffffffffffffffffffffffff600388901b60f8161c191681555b5050505050600190811b01905550565b600082516127798184602087016120f9565b9190910192915050565b8381526000835161279b8160208501602088016120f9565b808301905083516127b38160208401602088016120f9565b016020019594505050505056fea26469706673582212205fdab0054549022d3d82b96825844cacfbd2cd771f6ff68435ddedc2c80309a664736f6c63430008170033",
    "linkReferences": {}
  },
  "methodIdentifiers": {
    "cancelRunningPayments(address)": "73d7764e",
    "decoder(bytes)": "9e978575",
    "grantModuleRole(bytes32,address)": "6c67e807",
    "grantModuleRoleBatched(bytes32,address[])": "272bbd44",
    "identifier()": "7998a1c4",
    "init(address,(uint256,uint256,string,string),bytes)": "42dfe958",
    "init2(address,bytes)": "9bfdf766",
    "isTrustedForwarder(address)": "572b6c05",
    "orchestrator()": "b74795d9",
    "processPayments(address)": "e151fc61",
    "revokeModuleRole(bytes32,address)": "bcb61920",
    "revokeModuleRoleBatched(bytes32,address[])": "24e30270",
    "supportsInterface(bytes4)": "01ffc9a7",
    "title()": "4a79d50c",
    "token()": "fc0c546a",
    "trustedForwarder()": "7da0a877",
    "url()": "5600f04f",
    "version()": "54fd4d50"
  },
  "id": 160
}