{"abi":[{"type":"function","name":"cancelRunningPayments","inputs":[{"name":"client","type":"address","internalType":"contract IERC20PaymentClientBase_v1"}],"outputs":[],"stateMutability":"nonpayable"},{"type":"function","name":"claimAll","inputs":[{"name":"client","type":"address","internalType":"address"}],"outputs":[],"stateMutability":"nonpayable"},{"type":"function","name":"claimForSpecificWalletId","inputs":[{"name":"client","type":"address","internalType":"address"},{"name":"walletId","type":"uint256","internalType":"uint256"}],"outputs":[],"stateMutability":"nonpayable"},{"type":"function","name":"claimPreviouslyUnclaimable","inputs":[{"name":"client","type":"address","internalType":"address"},{"name":"receiver","type":"address","internalType":"address"}],"outputs":[],"stateMutability":"nonpayable"},{"type":"function","name":"decoder","inputs":[{"name":"data","type":"bytes","internalType":"bytes"}],"outputs":[{"name":"requirement","type":"bool","internalType":"bool"}],"stateMutability":"pure"},{"type":"function","name":"dueToForSpecificWalletId","inputs":[{"name":"client","type":"address","internalType":"address"},{"name":"paymentReceiver","type":"address","internalType":"address"},{"name":"walletId","type":"uint256","internalType":"uint256"}],"outputs":[{"name":"","type":"uint256","internalType":"uint256"}],"stateMutability":"view"},{"type":"function","name":"grantModuleRole","inputs":[{"name":"role","type":"bytes32","internalType":"bytes32"},{"name":"target","type":"address","internalType":"address"}],"outputs":[],"stateMutability":"nonpayable"},{"type":"function","name":"grantModuleRoleBatched","inputs":[{"name":"role","type":"bytes32","internalType":"bytes32"},{"name":"targets","type":"address[]","internalType":"address[]"}],"outputs":[],"stateMutability":"nonpayable"},{"type":"function","name":"identifier","inputs":[],"outputs":[{"name":"","type":"bytes32","internalType":"bytes32"}],"stateMutability":"view"},{"type":"function","name":"init","inputs":[{"name":"orchestrator_","type":"address","internalType":"contract IOrchestrator_v1"},{"name":"metadata","type":"tuple","internalType":"struct IModule_v1.Metadata","components":[{"name":"majorVersion","type":"uint256","internalType":"uint256"},{"name":"minorVersion","type":"uint256","internalType":"uint256"},{"name":"url","type":"string","internalType":"string"},{"name":"title","type":"string","internalType":"string"}]},{"name":"","type":"bytes","internalType":"bytes"}],"outputs":[],"stateMutability":"nonpayable"},{"type":"function","name":"init2","inputs":[{"name":"orchestrator_","type":"address","internalType":"contract IOrchestrator_v1"},{"name":"dependencyData","type":"bytes","internalType":"bytes"}],"outputs":[],"stateMutability":"nonpayable"},{"type":"function","name":"isActivePaymentReceiver","inputs":[{"name":"client","type":"address","internalType":"address"},{"name":"paymentReceiver","type":"address","internalType":"address"}],"outputs":[{"name":"","type":"bool","internalType":"bool"}],"stateMutability":"view"},{"type":"function","name":"isTrustedForwarder","inputs":[{"name":"forwarder","type":"address","internalType":"address"}],"outputs":[{"name":"","type":"bool","internalType":"bool"}],"stateMutability":"view"},{"type":"function","name":"numVestingWallets","inputs":[{"name":"","type":"address","internalType":"address"},{"name":"","type":"address","internalType":"address"}],"outputs":[{"name":"","type":"uint256","internalType":"uint256"}],"stateMutability":"view"},{"type":"function","name":"orchestrator","inputs":[],"outputs":[{"name":"","type":"address","internalType":"contract IOrchestrator_v1"}],"stateMutability":"view"},{"type":"function","name":"processPayments","inputs":[{"name":"client","type":"address","internalType":"contract IERC20PaymentClientBase_v1"}],"outputs":[],"stateMutability":"nonpayable"},{"type":"function","name":"releasableForSpecificWalletId","inputs":[{"name":"client","type":"address","internalType":"address"},{"name":"paymentReceiver","type":"address","internalType":"address"},{"name":"walletId","type":"uint256","internalType":"uint256"}],"outputs":[{"name":"","type":"uint256","internalType":"uint256"}],"stateMutability":"view"},{"type":"function","name":"releasedForSpecificWalletId","inputs":[{"name":"client","type":"address","internalType":"address"},{"name":"paymentReceiver","type":"address","internalType":"address"},{"name":"walletId","type":"uint256","internalType":"uint256"}],"outputs":[{"name":"","type":"uint256","internalType":"uint256"}],"stateMutability":"view"},{"type":"function","name":"removeAllPaymentReceiverPayments","inputs":[{"name":"client","type":"address","internalType":"address"},{"name":"paymentReceiver","type":"address","internalType":"address"}],"outputs":[],"stateMutability":"nonpayable"},{"type":"function","name":"removePaymentForSpecificWalletId","inputs":[{"name":"client","type":"address","internalType":"address"},{"name":"paymentReceiver","type":"address","internalType":"address"},{"name":"walletId","type":"uint256","internalType":"uint256"}],"outputs":[],"stateMutability":"nonpayable"},{"type":"function","name":"revokeModuleRole","inputs":[{"name":"role","type":"bytes32","internalType":"bytes32"},{"name":"target","type":"address","internalType":"address"}],"outputs":[],"stateMutability":"nonpayable"},{"type":"function","name":"revokeModuleRoleBatched","inputs":[{"name":"role","type":"bytes32","internalType":"bytes32"},{"name":"targets","type":"address[]","internalType":"address[]"}],"outputs":[],"stateMutability":"nonpayable"},{"type":"function","name":"startForSpecificWalletId","inputs":[{"name":"client","type":"address","internalType":"address"},{"name":"paymentReceiver","type":"address","internalType":"address"},{"name":"walletId","type":"uint256","internalType":"uint256"}],"outputs":[{"name":"","type":"uint256","internalType":"uint256"}],"stateMutability":"view"},{"type":"function","name":"supportsInterface","inputs":[{"name":"interfaceId","type":"bytes4","internalType":"bytes4"}],"outputs":[{"name":"","type":"bool","internalType":"bool"}],"stateMutability":"view"},{"type":"function","name":"title","inputs":[],"outputs":[{"name":"","type":"string","internalType":"string"}],"stateMutability":"view"},{"type":"function","name":"token","inputs":[],"outputs":[{"name":"","type":"address","internalType":"contract IERC20"}],"stateMutability":"view"},{"type":"function","name":"trustedForwarder","inputs":[],"outputs":[{"name":"","type":"address","internalType":"address"}],"stateMutability":"view"},{"type":"function","name":"unclaimable","inputs":[{"name":"client","type":"address","internalType":"address"},{"name":"paymentReceiver","type":"address","internalType":"address"}],"outputs":[{"name":"amount","type":"uint256","internalType":"uint256"}],"stateMutability":"view"},{"type":"function","name":"url","inputs":[],"outputs":[{"name":"","type":"string","internalType":"string"}],"stateMutability":"view"},{"type":"function","name":"version","inputs":[],"outputs":[{"name":"","type":"uint256","internalType":"uint256"},{"name":"","type":"uint256","internalType":"uint256"}],"stateMutability":"view"},{"type":"function","name":"vestedAmountForSpecificWalletId","inputs":[{"name":"client","type":"address","internalType":"address"},{"name":"paymentReceiver","type":"address","internalType":"address"},{"name":"timestamp","type":"uint256","internalType":"uint256"},{"name":"walletId","type":"uint256","internalType":"uint256"}],"outputs":[{"name":"","type":"uint256","internalType":"uint256"}],"stateMutability":"view"},{"type":"function","name":"viewAllPaymentOrders","inputs":[{"name":"client","type":"address","internalType":"address"},{"name":"paymentReceiver","type":"address","internalType":"address"}],"outputs":[{"name":"","type":"tuple[]","internalType":"struct IPP_Streaming_v1.VestingWallet[]","components":[{"name":"_salary","type":"uint256","internalType":"uint256"},{"name":"_released","type":"uint256","internalType":"uint256"},{"name":"_start","type":"uint256","internalType":"uint256"},{"name":"_dueTo","type":"uint256","internalType":"uint256"},{"name":"_vestingWalletID","type":"uint256","internalType":"uint256"}]}],"stateMutability":"view"},{"type":"event","name":"Initialized","inputs":[{"name":"version","type":"uint64","indexed":false,"internalType":"uint64"}],"anonymous":false},{"type":"event","name":"InvalidStreamingOrderDiscarded","inputs":[{"name":"recipient","type":"address","indexed":true,"internalType":"address"},{"name":"amount","type":"uint256","indexed":false,"internalType":"uint256"},{"name":"start","type":"uint256","indexed":false,"internalType":"uint256"},{"name":"dueTo","type":"uint256","indexed":false,"internalType":"uint256"}],"anonymous":false},{"type":"event","name":"ModuleInitialized","inputs":[{"name":"parentOrchestrator","type":"address","indexed":true,"internalType":"address"},{"name":"moduleTitle","type":"string","indexed":true,"internalType":"string"},{"name":"majorVersion","type":"uint256","indexed":false,"internalType":"uint256"},{"name":"minorVersion","type":"uint256","indexed":false,"internalType":"uint256"}],"anonymous":false},{"type":"event","name":"PaymentOrderProcessed","inputs":[{"name":"paymentClient","type":"address","indexed":true,"internalType":"address"},{"name":"recipient","type":"address","indexed":true,"internalType":"address"},{"name":"amount","type":"uint256","indexed":false,"internalType":"uint256"},{"name":"createdAt","type":"uint256","indexed":false,"internalType":"uint256"},{"name":"dueTo","type":"uint256","indexed":false,"internalType":"uint256"}],"anonymous":false},{"type":"event","name":"PaymentOrderProcessed","inputs":[{"name":"paymentClient","type":"address","indexed":true,"internalType":"address"},{"name":"recipient","type":"address","indexed":true,"internalType":"address"},{"name":"amount","type":"uint256","indexed":false,"internalType":"uint256"},{"name":"createdAt","type":"uint256","indexed":false,"internalType":"uint256"},{"name":"dueTo","type":"uint256","indexed":false,"internalType":"uint256"},{"name":"walletId","type":"uint256","indexed":false,"internalType":"uint256"}],"anonymous":false},{"type":"event","name":"StreamingPaymentAdded","inputs":[{"name":"paymentClient","type":"address","indexed":true,"internalType":"address"},{"name":"recipient","type":"address","indexed":true,"internalType":"address"},{"name":"amount","type":"uint256","indexed":false,"internalType":"uint256"},{"name":"start","type":"uint256","indexed":false,"internalType":"uint256"},{"name":"dueTo","type":"uint256","indexed":false,"internalType":"uint256"},{"name":"walletId","type":"uint256","indexed":false,"internalType":"uint256"}],"anonymous":false},{"type":"event","name":"StreamingPaymentRemoved","inputs":[{"name":"paymentClient","type":"address","indexed":true,"internalType":"address"},{"name":"recipient","type":"address","indexed":true,"internalType":"address"},{"name":"walletId","type":"uint256","indexed":true,"internalType":"uint256"}],"anonymous":false},{"type":"event","name":"TokensReleased","inputs":[{"name":"recipient","type":"address","indexed":true,"internalType":"address"},{"name":"token","type":"address","indexed":true,"internalType":"address"},{"name":"amount","type":"uint256","indexed":false,"internalType":"uint256"}],"anonymous":false},{"type":"event","name":"UnclaimableAmountAdded","inputs":[{"name":"paymentClient","type":"address","indexed":true,"internalType":"address"},{"name":"recipient","type":"address","indexed":false,"internalType":"address"},{"name":"walletId","type":"uint256","indexed":false,"internalType":"uint256"},{"name":"amount","type":"uint256","indexed":false,"internalType":"uint256"}],"anonymous":false},{"type":"error","name":"AddressEmptyCode","inputs":[{"name":"target","type":"address","internalType":"address"}]},{"type":"error","name":"AddressInsufficientBalance","inputs":[{"name":"account","type":"address","internalType":"address"}]},{"type":"error","name":"FailedInnerCall","inputs":[]},{"type":"error","name":"InvalidInitialization","inputs":[]},{"type":"error","name":"Module_OrchestratorCallbackFailed","inputs":[{"name":"funcSig","type":"string","internalType":"string"}]},{"type":"error","name":"Module__CallerNotAuthorized","inputs":[{"name":"role","type":"bytes32","internalType":"bytes32"},{"name":"caller","type":"address","internalType":"address"}]},{"type":"error","name":"Module__CannotCallInit2Again","inputs":[]},{"type":"error","name":"Module__InvalidMetadata","inputs":[]},{"type":"error","name":"Module__InvalidOrchestratorAddress","inputs":[]},{"type":"error","name":"Module__NoDependencyOrMalformedDependencyData","inputs":[]},{"type":"error","name":"Module__OnlyCallableByOrchestrator","inputs":[]},{"type":"error","name":"Module__PP_Streaming__InactiveWallet","inputs":[{"name":"paymentClient","type":"address","internalType":"address"},{"name":"paymentReceiver","type":"address","internalType":"address"},{"name":"walletId","type":"uint256","internalType":"uint256"}]},{"type":"error","name":"Module__PP_Streaming__InsufficientTokenBalanceInClient","inputs":[]},{"type":"error","name":"Module__PP_Streaming__InvalidPaymentReceiver","inputs":[{"name":"paymentClient","type":"address","internalType":"address"},{"name":"paymentReceiver","type":"address","internalType":"address"}]},{"type":"error","name":"Module__PP_Streaming__InvalidWallet","inputs":[{"name":"paymentClient","type":"address","internalType":"address"},{"name":"paymentReceiver","type":"address","internalType":"address"},{"name":"walletId","type":"uint256","internalType":"uint256"}]},{"type":"error","name":"Module__PP_Streaming__NothingToClaim","inputs":[{"name":"paymentClient","type":"address","internalType":"address"},{"name":"paymentReceiver","type":"address","internalType":"address"}]},{"type":"error","name":"Module__PaymentProcessor__CannotCallOnOtherClientsOrders","inputs":[]},{"type":"error","name":"Module__PaymentProcessor__OnlyCallableByModule","inputs":[]},{"type":"error","name":"NotInitializing","inputs":[]},{"type":"error","name":"SafeERC20FailedOperation","inputs":[{"name":"token","type":"address","internalType":"address"}]}],"bytecode":{"object":"0x60a06040523480156200001157600080fd5b5060006080526200002162000027565b620000db565b7ff0c57e16840df040f15088dc2f81fe391c3923bec73e23a9662efc9c229c6a00805468010000000000000000900460ff1615620000785760405163f92ee8a960e01b815260040160405180910390fd5b80546001600160401b0390811614620000d85780546001600160401b0319166001600160401b0390811782556040519081527fc7f505b2f371ae2175ee4913f4499e1f2633a7b5936321eed1cdaeb6115181d29060200160405180910390a15b50565b608051614901620000f4600039600050506149016000f3fe608060405234801561001057600080fd5b50600436106101f05760003560e01c806376413db91161010f578063b74795d9116100a2578063e49bd91a11610071578063e49bd91a146104c7578063f28cfd54146104da578063fc0c546a146104ed578063ff5a8913146104f557600080fd5b8063b74795d914610478578063bcb619201461048e578063cb8e092f146104a1578063e151fc61146104b457600080fd5b80637da0a877116100de5780637da0a877146103ef57806386e99ba71461040f5780639bfdf766146104525780639e9785751461046557600080fd5b806376413db91461037e57806377329f35146103c15780637998a1c4146103d457806379b02cd9146103dc57600080fd5b80634f1f12bd116101875780636c67e807116101565780636c67e80714610325578063737c4ce214610338578063738e19a31461034b57806373d7764e1461036b57600080fd5b80634f1f12bd146102dc57806354fd4d50146102ef5780635600f04f1461030a578063572b6c051461031257600080fd5b8063410810cd116101c3578063410810cd1461026657806342dfe958146102a157806342f09003146102b45780634a79d50c146102c757600080fd5b806301ffc9a7146101f557806318a41e3f1461021d57806324e302701461023e578063272bbd4414610253575b600080fd5b610208610203366004613d4c565b610520565b60405190151581526020015b60405180910390f35b61023061022b366004613da3565b61057c565b604051908152602001610214565b61025161024c366004613de4565b6105b5565b005b610251610261366004613de4565b610887565b610208610274366004613e63565b6001600160a01b039182166000908152600a60209081526040808320939094168252919091522054151590565b6102516102af366004613fa3565b610ad6565b6102516102c236600461407f565b610c59565b6102cf610dbf565b60405161021491906140fb565b6102516102ea366004613e63565b610e54565b60015460025460408051928352602083019190915201610214565b6102cf610ebf565b61020861032036600461410e565b610ed1565b61025161033336600461412b565b610f5f565b610230610346366004614150565b6111e9565b61035e610359366004613e63565b611202565b6040516102149190614196565b61025161037936600461410e565b611446565b61023061038c366004613da3565b6001600160a01b0392831660009081526006602090815260408083209490951682529283528381209181529152206002015490565b6102516103cf36600461410e565b611578565b6102306115d8565b6102516103ea366004613da3565b611728565b6103f7611908565b6040516001600160a01b039091168152602001610214565b61023061041d366004613da3565b6001600160a01b0392831660009081526006602090815260408083209490951682529283528381209181529152206003015490565b610251610460366004614204565b611980565b610208610473366004614254565b611a2d565b60005461010090046001600160a01b03166103f7565b61025161049c36600461412b565b611a4a565b6102516104af366004613e63565b611c9f565b6102516104c236600461410e565b611e91565b6102306104d5366004613e63565b6122ab565b6102306104e8366004613da3565b6123b6565b6103f76123d9565b610230610503366004613e63565b600560209081526000928352604080842090915290825290205481565b60007fffffffff0000000000000000000000000000000000000000000000000000000082167f7702e19e0000000000000000000000000000000000000000000000000000000014806105765750610576826124db565b92915050565b6001600160a01b0380841660009081526006602090815260408083209386168352928152828220848352905220600101545b9392505050565b60008060019054906101000a90046001600160a01b03166001600160a01b031663d09edf316040518163ffffffff1660e01b8152600401602060405180830381865afa158015610609573d6000803e3d6000fd5b505050506040513d601f19601f8201168201806040525081019061062d9190614289565b90506000816001600160a01b03166355ff58d46040518163ffffffff1660e01b8152600401602060405180830381865afa15801561066f573d6000803e3d6000fd5b505050506040513d601f19601f8201168201806040525081019061069391906142a6565b9050816001600160a01b03166391d14854826106ad612572565b6040517fffffffff0000000000000000000000000000000000000000000000000000000060e085901b16815260048101929092526001600160a01b03166024820152604401602060405180830381865afa15801561070f573d6000803e3d6000fd5b505050506040513d601f19601f8201168201806040525081019061073391906142cf565b6107895780610740612572565b6040517f42abbb7700000000000000000000000000000000000000000000000000000000815260048101929092526001600160a01b031660248201526044015b60405180910390fd5b60008060019054906101000a90046001600160a01b03166001600160a01b031663d09edf316040518163ffffffff1660e01b8152600401602060405180830381865afa1580156107dd573d6000803e3d6000fd5b505050506040513d601f19601f820116820180604052508101906108019190614289565b6040517f7d540a640000000000000000000000000000000000000000000000000000000081529091506001600160a01b03821690637d540a649061084d908990899089906004016142ea565b600060405180830381600087803b15801561086757600080fd5b505af115801561087b573d6000803e3d6000fd5b50505050505050505050565b60008060019054906101000a90046001600160a01b03166001600160a01b031663d09edf316040518163ffffffff1660e01b8152600401602060405180830381865afa1580156108db573d6000803e3d6000fd5b505050506040513d601f19601f820116820180604052508101906108ff9190614289565b90506000816001600160a01b03166355ff58d46040518163ffffffff1660e01b8152600401602060405180830381865afa158015610941573d6000803e3d6000fd5b505050506040513d601f19601f8201168201806040525081019061096591906142a6565b9050816001600160a01b03166391d148548261097f612572565b6040517fffffffff0000000000000000000000000000000000000000000000000000000060e085901b16815260048101929092526001600160a01b03166024820152604401602060405180830381865afa1580156109e1573d6000803e3d6000fd5b505050506040513d601f19601f82011682018060405250810190610a0591906142cf565b610a125780610740612572565b60008060019054906101000a90046001600160a01b03166001600160a01b031663d09edf316040518163ffffffff1660e01b8152600401602060405180830381865afa158015610a66573d6000803e3d6000fd5b505050506040513d601f19601f82011682018060405250810190610a8a9190614289565b6040517f648154530000000000000000000000000000000000000000000000000000000081529091506001600160a01b0382169063648154539061084d908990899089906004016142ea565b7ff0c57e16840df040f15088dc2f81fe391c3923bec73e23a9662efc9c229c6a00805468010000000000000000810460ff16159067ffffffffffffffff16600081158015610b215750825b905060008267ffffffffffffffff166001148015610b3e5750303b155b905081158015610b4c575080155b15610b83576040517ff92ee8a900000000000000000000000000000000000000000000000000000000815260040160405180910390fd5b84547fffffffffffffffffffffffffffffffffffffffffffffffff00000000000000001660011785558315610be45784547fffffffffffffffffffffffffffffffffffffffffffffff00ffffffffffffffff16680100000000000000001785555b610bee88886125c4565b8315610c4f5784547fffffffffffffffffffffffffffffffffffffffffffffff00ffffffffffffffff168555604051600181527fc7f505b2f371ae2175ee4913f4499e1f2633a7b5936321eed1cdaeb6115181d29060200160405180910390a15b5050505050505050565b6001600160a01b0382166000908152600a6020526040812090610c7a612572565b6001600160a01b031681526020810191909152604001600020541580610ce057506001600160a01b038216600090815260056020526040812090610cbc612572565b6001600160a01b03166001600160a01b031681526020019081526020016000205481115b15610d3a5781610cee612572565b6040517faf48f5ad0000000000000000000000000000000000000000000000000000000081526001600160a01b0392831660048201529116602482015260448101829052606401610780565b600019610d4f83610d49612572565b84612723565b03610da95781610d5d612572565b6040517fe9a35de40000000000000000000000000000000000000000000000000000000081526001600160a01b0392831660048201529116602482015260448101829052606401610780565b610dbb82610db5612572565b836127e6565b5050565b606060016003018054610dd190614342565b80601f0160208091040260200160405190810160405280929190818152602001828054610dfd90614342565b8015610e4a5780601f10610e1f57610100808354040283529160200191610e4a565b820191906000526020600020905b815481529060010190602001808311610e2d57829003601f168201915b5050505050905090565b610e60826104d5612572565b600003610eb55781610e70612572565b6040517fc1f03e250000000000000000000000000000000000000000000000000000000081526001600160a01b03928316600482015291166024820152604401610780565b610dbb8282612bdd565b606060016002018054610dd190614342565b600080546040517f572b6c050000000000000000000000000000000000000000000000000000000081526001600160a01b0384811660048301526101009092049091169063572b6c0590602401602060405180830381865afa158015610f3b573d6000803e3d6000fd5b505050506040513d601f19601f8201168201806040525081019061057691906142cf565b60008060019054906101000a90046001600160a01b03166001600160a01b031663d09edf316040518163ffffffff1660e01b8152600401602060405180830381865afa158015610fb3573d6000803e3d6000fd5b505050506040513d601f19601f82011682018060405250810190610fd79190614289565b90506000816001600160a01b03166355ff58d46040518163ffffffff1660e01b8152600401602060405180830381865afa158015611019573d6000803e3d6000fd5b505050506040513d601f19601f8201168201806040525081019061103d91906142a6565b9050816001600160a01b03166391d1485482611057612572565b6040517fffffffff0000000000000000000000000000000000000000000000000000000060e085901b16815260048101929092526001600160a01b03166024820152604401602060405180830381865afa1580156110b9573d6000803e3d6000fd5b505050506040513d601f19601f820116820180604052508101906110dd91906142cf565b6110ea5780610740612572565b60008060019054906101000a90046001600160a01b03166001600160a01b031663d09edf316040518163ffffffff1660e01b8152600401602060405180830381865afa15801561113e573d6000803e3d6000fd5b505050506040513d601f19601f820116820180604052508101906111629190614289565b6040517fe1788154000000000000000000000000000000000000000000000000000000008152600481018790526001600160a01b0386811660248301529192509082169063e1788154906044015b600060405180830381600087803b1580156111ca57600080fd5b505af11580156111de573d6000803e3d6000fd5b505050505050505050565b60006111f785858585612e3f565b90505b949350505050565b6001600160a01b038083166000908152600a60209081526040808320938516835292905290812054606091849184910361127b576040517fddc9eeaf0000000000000000000000000000000000000000000000000000000081526001600160a01b03808416600483015282166024820152604401610780565b6001600160a01b038086166000908152600a602090815260408083209388168352928152828220805484518184028101840190955280855292939290918301828280156112e757602002820191906000526020600020905b8154815260200190600101908083116112d3575b505050505090506000815190506000808267ffffffffffffffff81111561131057611310613e9c565b60405190808252806020026020018201604052801561137357816020015b6113606040518060a0016040528060008152602001600081526020016000815260200160008152602001600081525090565b81526020019060019003908161132e5790505b5090505b82821015611438576001600160a01b03808a166000908152600660209081526040808320938c16835292905290812085519091908690859081106113bd576113bd614395565b602002602001015181526020019081526020016000206040518060a00160405290816000820154815260200160018201548152602001600282015481526020016003820154815260200160048201548152505081838151811061142257611422614395565b6020026020010181905250816001019150611377565b95505050505b505092915050565b60005461010090046001600160a01b03166342f6e389611464612572565b6040517fffffffff0000000000000000000000000000000000000000000000000000000060e084901b1681526001600160a01b0390911660048201526024016020604051808303816000875af11580156114c2573d6000803e3d6000fd5b505050506040513d601f19601f820116820180604052508101906114e691906142cf565b61151c576040517f3c9fdabb00000000000000000000000000000000000000000000000000000000815260040160405180910390fd5b80806001600160a01b031661152f612572565b6001600160a01b03161461156f576040517fb78e756000000000000000000000000000000000000000000000000000000000815260040160405180910390fd5b610dbb82612ed6565b6001600160a01b0381166000908152600a6020526040812090611599612572565b6001600160a01b03168152602081019190915260400160009081205490036115c45780610e70612572565b6115d5816115d0612572565b612f81565b50565b604080516080810182526001805482526002546020830152600380546000946117239493929084019161160a90614342565b80601f016020809104026020016040519081016040528092919081815260200182805461163690614342565b80156116835780601f1061165857610100808354040283529160200191611683565b820191906000526020600020905b81548152906001019060200180831161166657829003601f168201915b5050505050815260200160038201805461169c90614342565b80601f01602080910402602001604051908101604052809291908181526020018280546116c890614342565b80156117155780601f106116ea57610100808354040283529160200191611715565b820191906000526020600020905b8154815290600101906020018083116116f857829003601f168201915b50505050508152505061302f565b905090565b60008060019054906101000a90046001600160a01b03166001600160a01b031663d09edf316040518163ffffffff1660e01b8152600401602060405180830381865afa15801561177c573d6000803e3d6000fd5b505050506040513d601f19601f820116820180604052508101906117a09190614289565b90506000816001600160a01b03166355ff58d46040518163ffffffff1660e01b8152600401602060405180830381865afa1580156117e2573d6000803e3d6000fd5b505050506040513d601f19601f8201168201806040525081019061180691906142a6565b9050816001600160a01b03166391d1485482611820612572565b6040517fffffffff0000000000000000000000000000000000000000000000000000000060e085901b16815260048101929092526001600160a01b03166024820152604401602060405180830381865afa158015611882573d6000803e3d6000fd5b505050506040513d601f19601f820116820180604052508101906118a691906142cf565b6118b35780610740612572565b6118be8585856127e6565b6001600160a01b0380861660009081526006602090815260408083209388168352928152828220868352905220600301544210156119015761190185858561306f565b5050505050565b60008060019054906101000a90046001600160a01b03166001600160a01b0316637da0a8776040518163ffffffff1660e01b8152600401602060405180830381865afa15801561195c573d6000803e3d6000fd5b505050506040513d601f19601f820116820180604052508101906117239190614289565b60005460ff16156119bd576040517f904875a100000000000000000000000000000000000000000000000000000000815260040160405180910390fd5b600080547fffffffffffffffffffffffffffffffffffffffffffffffffffffffffffffff00166001179055806119f281613132565b611a28576040517feef043ae00000000000000000000000000000000000000000000000000000000815260040160405180910390fd5b505050565b600081806020019051810190611a4391906143e8565b5092915050565b60008060019054906101000a90046001600160a01b03166001600160a01b031663d09edf316040518163ffffffff1660e01b8152600401602060405180830381865afa158015611a9e573d6000803e3d6000fd5b505050506040513d601f19601f82011682018060405250810190611ac29190614289565b90506000816001600160a01b03166355ff58d46040518163ffffffff1660e01b8152600401602060405180830381865afa158015611b04573d6000803e3d6000fd5b505050506040513d601f19601f82011682018060405250810190611b2891906142a6565b9050816001600160a01b03166391d1485482611b42612572565b6040517fffffffff0000000000000000000000000000000000000000000000000000000060e085901b16815260048101929092526001600160a01b03166024820152604401602060405180830381865afa158015611ba4573d6000803e3d6000fd5b505050506040513d601f19601f82011682018060405250810190611bc891906142cf565b611bd55780610740612572565b60008060019054906101000a90046001600160a01b03166001600160a01b031663d09edf316040518163ffffffff1660e01b8152600401602060405180830381865afa158015611c29573d6000803e3d6000fd5b505050506040513d601f19601f82011682018060405250810190611c4d9190614289565b6040517fba66f9fc000000000000000000000000000000000000000000000000000000008152600481018790526001600160a01b0386811660248301529192509082169063ba66f9fc906044016111b0565b60008060019054906101000a90046001600160a01b03166001600160a01b031663d09edf316040518163ffffffff1660e01b8152600401602060405180830381865afa158015611cf3573d6000803e3d6000fd5b505050506040513d601f19601f82011682018060405250810190611d179190614289565b90506000816001600160a01b03166355ff58d46040518163ffffffff1660e01b8152600401602060405180830381865afa158015611d59573d6000803e3d6000fd5b505050506040513d601f19601f82011682018060405250810190611d7d91906142a6565b9050816001600160a01b03166391d1485482611d97612572565b6040517fffffffff0000000000000000000000000000000000000000000000000000000060e085901b16815260048101929092526001600160a01b03166024820152604401602060405180830381865afa158015611df9573d6000803e3d6000fd5b505050506040513d601f19601f82011682018060405250810190611e1d91906142cf565b611e2a5780610740612572565b600019611e378585613238565b03611e81576040517fddc9eeaf0000000000000000000000000000000000000000000000000000000081526001600160a01b03808616600483015284166024820152604401610780565b611e8b848461331b565b50505050565b60005461010090046001600160a01b03166342f6e389611eaf612572565b6040517fffffffff0000000000000000000000000000000000000000000000000000000060e084901b1681526001600160a01b0390911660048201526024016020604051808303816000875af1158015611f0d573d6000803e3d6000fd5b505050506040513d601f19601f82011682018060405250810190611f3191906142cf565b611f67576040517f3c9fdabb00000000000000000000000000000000000000000000000000000000815260040160405180910390fd5b80806001600160a01b0316611f7a612572565b6001600160a01b031614611fba576040517fb78e756000000000000000000000000000000000000000000000000000000000815260040160405180910390fd5b6000826001600160a01b03166375fa0b766040518163ffffffff1660e01b8152600401600060405180830381865afa158015611ffa573d6000803e3d6000fd5b505050506040513d6000823e601f3d908101601f19168201604052612022919081019061458e565b511115610dbb5760606000836001600160a01b031663c0231ff66040518163ffffffff1660e01b81526004016000604051808303816000875af115801561206d573d6000803e3d6000fd5b505050506040513d6000823e601f3d908101601f1916820160405261209591908101906145c3565b9092509050806120a36123d9565b6040517f70a082310000000000000000000000000000000000000000000000000000000081526001600160a01b03878116600483015291909116906370a0823190602401602060405180830381865afa158015612104573d6000803e3d6000fd5b505050506040513d601f19601f8201168201806040525081019061212891906142a6565b1015612160576040517fc4edc27800000000000000000000000000000000000000000000000000000000815260040160405180910390fd5b6000806000806000808751905060005b8181101561229e5788818151811061218a5761218a614395565b60200260200101516000015196508881815181106121aa576121aa614395565b60200260200101516020015195508881815181106121ca576121ca614395565b60200260200101516040015194508881815181106121ea576121ea614395565b602090810291909101810151606001516001600160a01b03808e166000908152600584526040808220928c168252919093529091205490945061222e906001614639565b925061223e8b888888888861341d565b6040805187815260208101879052908101859052606081018490526001600160a01b0380891691908d16907ff261b5eb0a7c8f0fed848ae34ac29644417fae2ec1eda997e1c36914f18461229060800160405180910390a3600101612170565b5050505050505050505050565b6001600160a01b0380831660009081526007602090815260408083209385168352928152828220805484518184028101840190955280855292938493909283018282801561231857602002820191906000526020600020905b815481526020019060010190808311612304575b505050505090506000815190508060000361233857600092505050610576565b60005b818110156123ad576001600160a01b0380871660009081526008602090815260408083209389168352929052908120845190919085908490811061238157612381614395565b6020026020010151815260200190815260200160002054846123a39190614639565b935060010161233b565b50505092915050565b60006123c384848461057c565b6123cf858542866111e9565b6111fa919061464c565b6000306001600160a01b031663b74795d96040518163ffffffff1660e01b8152600401602060405180830381865afa158015612419573d6000803e3d6000fd5b505050506040513d601f19601f8201168201806040525081019061243d9190614289565b6001600160a01b03166304baed9e6040518163ffffffff1660e01b8152600401602060405180830381865afa15801561247a573d6000803e3d6000fd5b505050506040513d601f19601f8201168201806040525081019061249e9190614289565b6001600160a01b031663fc0c546a6040518163ffffffff1660e01b8152600401602060405180830381865afa15801561195c573d6000803e3d6000fd5b60007fffffffff0000000000000000000000000000000000000000000000000000000082167f8c600c2300000000000000000000000000000000000000000000000000000000148061057657507f01ffc9a7000000000000000000000000000000000000000000000000000000007fffffffff00000000000000000000000000000000000000000000000000000000831614610576565b600036601461258033610ed1565b801561258c5750808210155b156125bc5760003661259e838561464c565b6125a992829061465f565b6125b291614689565b60601c9250505090565b339250505090565b6125cc613636565b6001600160a01b03821661260c576040517f7280679300000000000000000000000000000000000000000000000000000000815260040160405180910390fd5b600080547fffffffffffffffffffffff0000000000000000000000000000000000000000ff166101006001600160a01b0385160217905561264c8161369f565b612682576040517f7511254100000000000000000000000000000000000000000000000000000000815260040160405180910390fd5b80516001908155602082015160025560408201518291906003906126a69082614717565b50606082015160038201906126bb9082614717565b50505060608101516040516126d091906147d7565b604080519182900382208351602080860151918552840152916001600160a01b038516917feb175f148a71d29a5f7bf5439182fcd81e6ea9cfc8a11b54ab0f705fa98fa8ca910160405180910390a35050565b6001600160a01b038084166000908152600a602090815260408083209386168352928152828220805484518184028101840190955280855292938493909283018282801561279057602002820191906000526020600020905b81548152602001906001019080831161277c575b505083519394506000925050505b818110156127d857848382815181106127b9576127b9614395565b6020026020010151036127d05792506105ae915050565b60010161279e565b506000199695505050505050565b60006127f38484846123b6565b6001600160a01b038086166000908152600660209081526040808320938816835292815282822086835290529081206001018054929350839290919061283a908490614639565b909155506000905061284a6123d9565b604080516001600160a01b0388811660248301528781166044830152606480830187905283518084039091018152608490920183526020820180517bffffffffffffffffffffffffffffffffffffffffffffffffffffffff167f23b872dd00000000000000000000000000000000000000000000000000000000179052915192935060009283928516916128dd916147d7565b6000604051808303816000865af19150503d806000811461291a576040519150601f19603f3d011682016040523d82523d6000602084013e61291f565b606091505b509150915081801561294957508051158061294957508080602001905181019061294991906142cf565b15612a1357826001600160a01b0316866001600160a01b03167f3737f2a73c794dafe53d8aeea06810a9ebcf7167401b259406960e088e03f8308660405161299391815260200190565b60405180910390a36040517f13e64063000000000000000000000000000000000000000000000000000000008152600481018590526001600160a01b038816906313e6406390602401600060405180830381600087803b1580156129f657600080fd5b505af1158015612a0a573d6000803e3d6000fd5b50505050612b9a565b604080516001600160a01b03888116825260208201889052918101869052908816907f827450f642049e1aee0972e41483ae621b48299fcda38fd1ba3befd2ee4fdb2f9060600160405180910390a26001600160a01b038088166000908152600760209081526040808320938a16835292815282822080548451818402810184019095528085529293929091830182828015612ace57602002820191906000526020600020905b815481526020019060010190808311612aba575b505050505090506000805b8251811015612b1357828181518110612af457612af4614395565b60200260200101518803612b0b5760019150612b13565b600101612ad9565b5080612b53576001600160a01b03808a166000908152600760209081526040808320938c1683529281529181208054600181018255908252919020018790555b6001600160a01b03808a166000908152600860209081526040808320938c1683529281528282208a835290529081208054889290612b92908490614639565b909155505050505b6001600160a01b038781166000908152600660209081526040808320938a16835292815282822088835290522060030154428111610c4f57610c4f88888861306f565b600080612be8612572565b6001600160a01b03808616600090815260076020908152604080832093851683529281528282208054845181840281018401909552808552949550919390830182828015612c5557602002820191906000526020600020905b815481526020019060010190808311612c41575b505083519394506000925050505b81811015612d31576001600160a01b03808816600090815260086020908152604080832093881683529290529081208451909190859084908110612ca957612ca9614395565b602002602001015181526020019081526020016000205485612ccb9190614639565b6001600160a01b0380891660009081526008602090815260408083209389168352929052908120855192975091859084908110612d0a57612d0a614395565b60200260200101518152602001908152602001600020600090558080600101915050612c63565b506001600160a01b0380871660009081526007602090815260408083209387168352929052908120612d6291613d1a565b6000612d6c6123d9565b9050612d836001600160a01b0382168888886136f1565b806001600160a01b0316866001600160a01b03167f3737f2a73c794dafe53d8aeea06810a9ebcf7167401b259406960e088e03f83087604051612dc891815260200190565b60405180910390a36040517f13e64063000000000000000000000000000000000000000000000000000000008152600481018690526001600160a01b038816906313e6406390602401600060405180830381600087803b158015612e2b57600080fd5b505af115801561229e573d6000803e3d6000fd5b6001600160a01b038481166000908152600660209081526040808320938716835292815282822084835290529081208054600282015460039092015490919081861015612e9257600093505050506111fa565b808610612ea4578293505050506111fa565b612eae828261464c565b612eb8838861464c565b612ec290856147f3565b612ecc919061480a565b93505050506111fa565b6001600160a01b038116600090815260096020908152604080832080548251818502810185019093528083529192909190830182828015612f4057602002820191906000526020600020905b81546001600160a01b03168152600190910190602001808311612f22575b505083519394506000925050505b81811015611e8b57612f7984848381518110612f6c57612f6c614395565b602002602001015161331b565b600101612f4e565b6001600160a01b038083166000908152600a60209081526040808320938516835292815282822080548451818402810184019095528085529293929091830182828015612fed57602002820191906000526020600020905b815481526020019060010190808311612fd9575b505083519394506000925050505b8181101561190157613027858585848151811061301a5761301a614395565b60200260200101516127e6565b600101612ffb565b600081600001518260400151836060015160405160200161305293929190614845565b604051602081830303815290604052805190602001209050919050565b61307a838383613779565b6001600160a01b0383811660008181526006602090815260408083209487168084529482528083208684528252808320838155600181018490556002810184905560038101849055600401839055928252600a81528282209382529290925281205490036130ec576130ec838361397f565b80826001600160a01b0316846001600160a01b03167fe6a0687ee789528abb9aac335f8b10067233039efce66e64f52a6bd3fad134c560405160405180910390a4505050565b6040517f9e9785750000000000000000000000000000000000000000000000000000000081526000903090639e978575906131719085906004016140fb565b602060405180830381865afa9250505080156131aa575060408051601f3d908101601f191682019092526131a7918101906142cf565b60015b6131b657506000919050565b6040517f9e9785750000000000000000000000000000000000000000000000000000000081523090639e978575906131f29086906004016140fb565b602060405180830381865afa15801561320f573d6000803e3d6000fd5b505050506040513d601f19601f820116820180604052508101906105ae91906142cf565b919050565b6001600160a01b03821660009081526009602090815260408083208054825181850281018501909352808352849383018282801561329f57602002820191906000526020600020905b81546001600160a01b03168152600190910190602001808311613281575b5050506001600160a01b0387166000908152600960205260408120549394509150505b8181101561330e57846001600160a01b03168382815181106132e6576132e6614395565b60200260200101516001600160a01b031603613306579250610576915050565b6001016132c2565b5060001995945050505050565b6001600160a01b038083166000908152600a6020908152604080832093851683529281528282208054845181840281018401909552808552929392909183018282801561338757602002820191906000526020600020905b815481526020019060010190808311613373575b505050505090506000815190506000805b82821015613415578382815181106133b2576133b2614395565b602002602001015190506133c78686836127e6565b6001600160a01b03808716600090815260066020908152604080832093891683529281528282208483529052206003015442101561340a5761340a86868361306f565b816001019150613398565b505050505050565b61342685613aeb565b1580613430575083155b80613441575061343f83613b52565b155b156134975760408051858152602081018590529081018390526001600160a01b038616907fa8525b849c52e2e1d9a24c2ef6faa6d64c885d4b7bbccc3115c9b1b49ac2e0bb9060600160405180910390a2613415565b6001600160a01b038087166000908152600560209081526040808320938916835292905290812080549091906134cc90614882565b909155506040805160a0810182528581526000602080830182815283850188815260608501888152608086018881526001600160a01b03808f16875260068652888720908e16875285528786208987529094529590932093518455516001840155905160028301559151600382015590516004909101556000196135508787613238565b036135ac576001600160a01b0386811660009081526009602090815260408220805460018101825590835291200180547fffffffffffffffffffffffff0000000000000000000000000000000000000000169187169190911790555b6001600160a01b038681166000818152600a60209081526040808320948a168084529482528083208054600181018255908452928290209092018590558151888152908101879052908101859052606081018490527fb5526864f7085e2bfcfdf0997943b4931b3cf4625c187f5ada6642079adb955d9060800160405180910390a3505050505050565b7ff0c57e16840df040f15088dc2f81fe391c3923bec73e23a9662efc9c229c6a005468010000000000000000900460ff1661369d576040517fd7e6bcf800000000000000000000000000000000000000000000000000000000815260040160405180910390fd5b565b60008160400151516000036136b657506000919050565b8160600151516000036136cb57506000919050565b81511580156136dc57506020820151155b156136e957506000919050565b506001919050565b604080516001600160a01b0385811660248301528416604482015260648082018490528251808303909101815260849091019091526020810180517bffffffffffffffffffffffffffffffffffffffffffffffffffffffff167f23b872dd00000000000000000000000000000000000000000000000000000000179052611e8b908590613b65565b6000613786848484612723565b905060001981036137e6578361379a612572565b6040517fe9a35de40000000000000000000000000000000000000000000000000000000081526001600160a01b0392831660048201529116602482015260448101839052606401610780565b6001600160a01b0384811660009081526006602090815260408083209387168352928152828220858352905290812060018101549054613826919061464c565b905080156138a2576040517f13e64063000000000000000000000000000000000000000000000000000000008152600481018290526001600160a01b038616906313e6406390602401600060405180830381600087803b15801561388957600080fd5b505af115801561389d573d6000803e3d6000fd5b505050505b6001600160a01b038581166000908152600a6020908152604080832093881683529290522080546138d59060019061464c565b815481106138e5576138e5614395565b60009182526020808320909101546001600160a01b038089168452600a8352604080852091891685529252912080548490811061392457613924614395565b60009182526020808320909101929092556001600160a01b038088168252600a8352604080832091881683529252208054806139625761396261489c565b600190038181906000526020600020016000905590555050505050565b600061398b8383613238565b905060001981036139db576040517fddc9eeaf0000000000000000000000000000000000000000000000000000000081526001600160a01b03808516600483015283166024820152604401610780565b6001600160a01b0383166000908152600960205260409020805490613a0160018361464c565b81548110613a1157613a11614395565b60009182526020808320909101546001600160a01b03878116845260099092526040909220805491909216919084908110613a4e57613a4e614395565b600091825260208083209190910180547fffffffffffffffffffffffff0000000000000000000000000000000000000000166001600160a01b039485161790559186168152600990915260409020805480613aab57613aab61489c565b600082815260209020810160001990810180547fffffffffffffffffffffffff000000000000000000000000000000000000000016905501905550505050565b60006001600160a01b0382161580613b1b5750613b06612572565b6001600160a01b0316826001600160a01b0316145b80613b2e57506001600160a01b03821630145b80613b4b57506000546001600160a01b0383811661010090920416145b1592915050565b600042821080613b4b5750506000191190565b6000613b7a6001600160a01b03841683613be1565b90508051600014158015613b9f575080806020019051810190613b9d91906142cf565b155b15611a28576040517f5274afe70000000000000000000000000000000000000000000000000000000081526001600160a01b0384166004820152602401610780565b60606105ae8383600084600080856001600160a01b03168486604051613c0791906147d7565b60006040518083038185875af1925050503d8060008114613c44576040519150601f19603f3d011682016040523d82523d6000602084013e613c49565b606091505b5091509150613c59868383613c63565b9695505050505050565b606082613c7857613c7382613cd8565b6105ae565b8151158015613c8f57506001600160a01b0384163b155b15613cd1576040517f9996b3150000000000000000000000000000000000000000000000000000000081526001600160a01b0385166004820152602401610780565b50806105ae565b805115613ce85780518082602001fd5b6040517f1425ea4200000000000000000000000000000000000000000000000000000000815260040160405180910390fd5b50805460008255906000526020600020908101906115d591905b80821115613d485760008155600101613d34565b5090565b600060208284031215613d5e57600080fd5b81357fffffffff00000000000000000000000000000000000000000000000000000000811681146105ae57600080fd5b6001600160a01b03811681146115d557600080fd5b600080600060608486031215613db857600080fd5b8335613dc381613d8e565b92506020840135613dd381613d8e565b929592945050506040919091013590565b600080600060408486031215613df957600080fd5b83359250602084013567ffffffffffffffff80821115613e1857600080fd5b818601915086601f830112613e2c57600080fd5b813581811115613e3b57600080fd5b8760208260051b8501011115613e5057600080fd5b6020830194508093505050509250925092565b60008060408385031215613e7657600080fd5b8235613e8181613d8e565b91506020830135613e9181613d8e565b809150509250929050565b7f4e487b7100000000000000000000000000000000000000000000000000000000600052604160045260246000fd5b6040516080810167ffffffffffffffff81118282101715613eee57613eee613e9c565b60405290565b604051601f8201601f1916810167ffffffffffffffff81118282101715613f1d57613f1d613e9c565b604052919050565b600067ffffffffffffffff821115613f3f57613f3f613e9c565b50601f01601f191660200190565b600082601f830112613f5e57600080fd5b8135613f71613f6c82613f25565b613ef4565b818152846020838601011115613f8657600080fd5b816020850160208301376000918101602001919091529392505050565b600080600060608486031215613fb857600080fd5b8335613fc381613d8e565b9250602084013567ffffffffffffffff80821115613fe057600080fd5b9085019060808288031215613ff457600080fd5b613ffc613ecb565b823581526020830135602082015260408301358281111561401c57600080fd5b61402889828601613f4d565b60408301525060608301358281111561404057600080fd5b61404c89828601613f4d565b6060830152509350604086013591508082111561406857600080fd5b5061407586828701613f4d565b9150509250925092565b6000806040838503121561409257600080fd5b823561409d81613d8e565b946020939093013593505050565b60005b838110156140c65781810151838201526020016140ae565b50506000910152565b600081518084526140e78160208601602086016140ab565b601f01601f19169290920160200192915050565b6020815260006105ae60208301846140cf565b60006020828403121561412057600080fd5b81356105ae81613d8e565b6000806040838503121561413e57600080fd5b823591506020830135613e9181613d8e565b6000806000806080858703121561416657600080fd5b843561417181613d8e565b9350602085013561418181613d8e565b93969395505050506040820135916060013590565b602080825282518282018190526000919060409081850190868401855b828110156141f75781518051855286810151878601528581015186860152606080820151908601526080908101519085015260a090930192908501906001016141b3565b5091979650505050505050565b6000806040838503121561421757600080fd5b823561422281613d8e565b9150602083013567ffffffffffffffff81111561423e57600080fd5b61424a85828601613f4d565b9150509250929050565b60006020828403121561426657600080fd5b813567ffffffffffffffff81111561427d57600080fd5b6111fa84828501613f4d565b60006020828403121561429b57600080fd5b81516105ae81613d8e565b6000602082840312156142b857600080fd5b5051919050565b8051801515811461323357600080fd5b6000602082840312156142e157600080fd5b6105ae826142bf565b83815260406020808301829052908201839052600090849060608401835b8681101561433657833561431b81613d8e565b6001600160a01b031682529282019290820190600101614308565b50979650505050505050565b600181811c9082168061435657607f821691505b60208210810361438f577f4e487b7100000000000000000000000000000000000000000000000000000000600052602260045260246000fd5b50919050565b7f4e487b7100000000000000000000000000000000000000000000000000000000600052603260045260246000fd5b600067ffffffffffffffff8211156143de576143de613e9c565b5060051b60200190565b60008060408084860312156143fc57600080fd5b614405846142bf565b925060208085015167ffffffffffffffff8082111561442357600080fd5b818701915087601f83011261443757600080fd5b8151614445613f6c826143c4565b81815260059190911b8301840190848101908a83111561446457600080fd5b8585015b838110156144d5578051858111156144805760008081fd5b8601603f81018d136144925760008081fd5b878101516144a2613f6c82613f25565b8181528e8b8385010111156144b75760008081fd5b6144c6828b83018d86016140ab565b85525050918601918601614468565b50809750505050505050509250929050565b600082601f8301126144f857600080fd5b81516020614508613f6c836143c4565b82815260079290921b8401810191818101908684111561452757600080fd5b8286015b8481101561458357608081890312156145445760008081fd5b61454c613ecb565b815161455781613d8e565b81528185015185820152604080830151908201526060808301519082015283529183019160800161452b565b509695505050505050565b6000602082840312156145a057600080fd5b815167ffffffffffffffff8111156145b757600080fd5b6111fa848285016144e7565b600080604083850312156145d657600080fd5b825167ffffffffffffffff8111156145ed57600080fd5b6145f9858286016144e7565b925050602083015190509250929050565b7f4e487b7100000000000000000000000000000000000000000000000000000000600052601160045260246000fd5b808201808211156105765761057661460a565b818103818111156105765761057661460a565b6000808585111561466f57600080fd5b8386111561467c57600080fd5b5050820193919092039150565b7fffffffffffffffffffffffffffffffffffffffff000000000000000000000000813581811691601485101561143e5760149490940360031b84901b1690921692915050565b601f821115611a28576000816000526020600020601f850160051c810160208610156146f85750805b601f850160051c820191505b8181101561341557828155600101614704565b815167ffffffffffffffff81111561473157614731613e9c565b6147458161473f8454614342565b846146cf565b602080601f83116001811461477a57600084156147625750858301515b600019600386901b1c1916600185901b178555613415565b600085815260208120601f198616915b828110156147a95788860151825594840194600190910190840161478a565b50858210156147c75787850151600019600388901b60f8161c191681555b5050505050600190811b01905550565b600082516147e98184602087016140ab565b9190910192915050565b80820281158282048414176105765761057661460a565b600082614840577f4e487b7100000000000000000000000000000000000000000000000000000000600052601260045260246000fd5b500490565b8381526000835161485d8160208501602088016140ab565b808301905083516148758160208401602088016140ab565b0160200195945050505050565b600060001982036148955761489561460a565b5060010190565b7f4e487b7100000000000000000000000000000000000000000000000000000000600052603160045260246000fdfea2646970667358221220302d7d58fbe588f87025b19455f365710a1eba1837bc141ed46f54e3b21ad6b464736f6c63430008170033","linkReferences":{}},"methodIdentifiers":{"cancelRunningPayments(address)":"73d7764e","claimAll(address)":"77329f35","claimForSpecificWalletId(address,uint256)":"42f09003","claimPreviouslyUnclaimable(address,address)":"4f1f12bd","decoder(bytes)":"9e978575","dueToForSpecificWalletId(address,address,uint256)":"86e99ba7","grantModuleRole(bytes32,address)":"6c67e807","grantModuleRoleBatched(bytes32,address[])":"272bbd44","identifier()":"7998a1c4","init(address,(uint256,uint256,string,string),bytes)":"42dfe958","init2(address,bytes)":"9bfdf766","isActivePaymentReceiver(address,address)":"410810cd","isTrustedForwarder(address)":"572b6c05","numVestingWallets(address,address)":"ff5a8913","orchestrator()":"b74795d9","processPayments(address)":"e151fc61","releasableForSpecificWalletId(address,address,uint256)":"f28cfd54","releasedForSpecificWalletId(address,address,uint256)":"18a41e3f","removeAllPaymentReceiverPayments(address,address)":"cb8e092f","removePaymentForSpecificWalletId(address,address,uint256)":"79b02cd9","revokeModuleRole(bytes32,address)":"bcb61920","revokeModuleRoleBatched(bytes32,address[])":"24e30270","startForSpecificWalletId(address,address,uint256)":"76413db9","supportsInterface(bytes4)":"01ffc9a7","title()":"4a79d50c","token()":"fc0c546a","trustedForwarder()":"7da0a877","unclaimable(address,address)":"e49bd91a","url()":"5600f04f","version()":"54fd4d50","vestedAmountForSpecificWalletId(address,address,uint256,uint256)":"737c4ce2","viewAllPaymentOrders(address,address)":"738e19a3"},"id":161}