{
  "abi": [
    {
      "type": "function",
      "name": "cancelRunningPayments",
      "inputs": [
        {
          "name": "client",
          "type": "address",
          "internalType": "contract IERC20PaymentClientBase_v2"
        }
      ],
      "outputs": [],
      "stateMutability": "view"
    },
    {
      "type": "function",
      "name": "claimPreviouslyUnclaimable",
      "inputs": [
        {
          "name": "client",
          "type": "address",
          "internalType": "address"
        },
        {
          "name": "token",
          "type": "address",
          "internalType": "address"
        },
        {
          "name": "receiver",
          "type": "address",
          "internalType": "address"
        }
      ],
      "outputs": [],
      "stateMutability": "nonpayable"
    },
    {
      "type": "function",
      "name": "grantModuleRole",
      "inputs": [
        {
          "name": "role",
          "type": "bytes32",
          "internalType": "bytes32"
        },
        {
          "name": "target",
          "type": "address",
          "internalType": "address"
        }
      ],
      "outputs": [],
      "stateMutability": "nonpayable"
    },
    {
      "type": "function",
      "name": "grantModuleRoleBatched",
      "inputs": [
        {
          "name": "role",
          "type": "bytes32",
          "internalType": "bytes32"
        },
        {
          "name": "targets",
          "type": "address[]",
          "internalType": "address[]"
        }
      ],
      "outputs": [],
      "stateMutability": "nonpayable"
    },
    {
      "type": "function",
      "name": "identifier",
      "inputs": [],
      "outputs": [
        {
          "name": "",
          "type": "bytes32",
          "internalType": "bytes32"
        }
      ],
      "stateMutability": "view"
    },
    {
      "type": "function",
      "name": "init",
      "inputs": [
        {
          "name": "orchestrator_",
          "type": "address",
          "internalType": "contract IOrchestrator_v1"
        },
        {
          "name": "metadata",
          "type": "tuple",
          "internalType": "struct IModule_v1.Metadata",
          "components": [
            {
              "name": "majorVersion",
              "type": "uint256",
              "internalType": "uint256"
            },
            {
              "name": "minorVersion",
              "type": "uint256",
              "internalType": "uint256"
            },
            {
              "name": "patchVersion",
              "type": "uint256",
              "internalType": "uint256"
            },
            {
              "name": "url",
              "type": "string",
              "internalType": "string"
            },
            {
              "name": "title",
              "type": "string",
              "internalType": "string"
            }
          ]
        },
        {
          "name": "",
          "type": "bytes",
          "internalType": "bytes"
        }
      ],
      "outputs": [],
      "stateMutability": "nonpayable"
    },
    {
      "type": "function",
      "name": "isTrustedForwarder",
      "inputs": [
        {
          "name": "forwarder",
          "type": "address",
          "internalType": "address"
        }
      ],
      "outputs": [
        {
          "name": "",
          "type": "bool",
          "internalType": "bool"
        }
      ],
      "stateMutability": "view"
    },
    {
      "type": "function",
      "name": "orchestrator",
      "inputs": [],
      "outputs": [
        {
          "name": "",
          "type": "address",
          "internalType": "contract IOrchestrator_v1"
        }
      ],
      "stateMutability": "view"
    },
    {
      "type": "function",
      "name": "processPayments",
      "inputs": [
        {
          "name": "client",
          "type": "address",
          "internalType": "contract IERC20PaymentClientBase_v2"
        }
      ],
      "outputs": [],
      "stateMutability": "nonpayable"
    },
    {
      "type": "function",
      "name": "revokeModuleRole",
      "inputs": [
        {
          "name": "role",
          "type": "bytes32",
          "internalType": "bytes32"
        },
        {
          "name": "target",
          "type": "address",
          "internalType": "address"
        }
      ],
      "outputs": [],
      "stateMutability": "nonpayable"
    },
    {
      "type": "function",
      "name": "revokeModuleRoleBatched",
      "inputs": [
        {
          "name": "role",
          "type": "bytes32",
          "internalType": "bytes32"
        },
        {
          "name": "targets",
          "type": "address[]",
          "internalType": "address[]"
        }
      ],
      "outputs": [],
      "stateMutability": "nonpayable"
    },
    {
      "type": "function",
      "name": "supportsInterface",
      "inputs": [
        {
          "name": "interfaceId",
          "type": "bytes4",
          "internalType": "bytes4"
        }
      ],
      "outputs": [
        {
          "name": "",
          "type": "bool",
          "internalType": "bool"
        }
      ],
      "stateMutability": "view"
    },
    {
      "type": "function",
      "name": "title",
      "inputs": [],
      "outputs": [
        {
          "name": "",
          "type": "string",
          "internalType": "string"
        }
      ],
      "stateMutability": "view"
    },
    {
      "type": "function",
      "name": "trustedForwarder",
      "inputs": [],
      "outputs": [
        {
          "name": "",
          "type": "address",
          "internalType": "address"
        }
      ],
      "stateMutability": "view"
    },
    {
      "type": "function",
      "name": "unclaimable",
      "inputs": [
        {
          "name": "client",
          "type": "address",
          "internalType": "address"
        },
        {
          "name": "token",
          "type": "address",
          "internalType": "address"
        },
        {
          "name": "paymentReceiver",
          "type": "address",
          "internalType": "address"
        }
      ],
      "outputs": [
        {
          "name": "amount",
          "type": "uint256",
          "internalType": "uint256"
        }
      ],
      "stateMutability": "view"
    },
    {
      "type": "function",
      "name": "url",
      "inputs": [],
      "outputs": [
        {
          "name": "",
          "type": "string",
          "internalType": "string"
        }
      ],
      "stateMutability": "view"
    },
    {
      "type": "function",
      "name": "validPaymentOrder",
      "inputs": [
        {
          "name": "order",
          "type": "tuple",
          "internalType": "struct IERC20PaymentClientBase_v2.PaymentOrder",
          "components": [
            {
              "name": "recipient",
              "type": "address",
              "internalType": "address"
            },
            {
              "name": "paymentToken",
              "type": "address",
              "internalType": "address"
            },
            {
              "name": "amount",
              "type": "uint256",
              "internalType": "uint256"
            },
            {
              "name": "originChainId",
              "type": "uint256",
              "internalType": "uint256"
            },
            {
              "name": "targetChainId",
              "type": "uint256",
              "internalType": "uint256"
            },
            {
              "name": "flags",
              "type": "bytes32",
              "internalType": "bytes32"
            },
            {
              "name": "data",
              "type": "bytes32[]",
              "internalType": "bytes32[]"
            }
          ]
        }
      ],
      "outputs": [
        {
          "name": "",
          "type": "bool",
          "internalType": "bool"
        }
      ],
      "stateMutability": "nonpayable"
    },
    {
      "type": "function",
      "name": "version",
      "inputs": [],
      "outputs": [
        {
          "name": "",
          "type": "uint256",
          "internalType": "uint256"
        },
        {
          "name": "",
          "type": "uint256",
          "internalType": "uint256"
        },
        {
          "name": "",
          "type": "uint256",
          "internalType": "uint256"
        }
      ],
      "stateMutability": "view"
    },
    {
      "type": "event",
      "name": "Initialized",
      "inputs": [
        {
          "name": "version",
          "type": "uint64",
          "indexed": false,
          "internalType": "uint64"
        }
      ],
      "anonymous": false
    },
    {
      "type": "event",
      "name": "ModuleInitialized",
      "inputs": [
        {
          "name": "parentOrchestrator",
          "type": "address",
          "indexed": true,
          "internalType": "address"
        },
        {
          "name": "metadata",
          "type": "tuple",
          "indexed": false,
          "internalType": "struct IModule_v1.Metadata",
          "components": [
            {
              "name": "majorVersion",
              "type": "uint256",
              "internalType": "uint256"
            },
            {
              "name": "minorVersion",
              "type": "uint256",
              "internalType": "uint256"
            },
            {
              "name": "patchVersion",
              "type": "uint256",
              "internalType": "uint256"
            },
            {
              "name": "url",
              "type": "string",
              "internalType": "string"
            },
            {
              "name": "title",
              "type": "string",
              "internalType": "string"
            }
          ]
        }
      ],
      "anonymous": false
    },
    {
      "type": "event",
      "name": "PaymentOrderProcessed",
      "inputs": [
        {
          "name": "paymentClient",
          "type": "address",
          "indexed": true,
          "internalType": "address"
        },
        {
          "name": "recipient",
          "type": "address",
          "indexed": true,
          "internalType": "address"
        },
        {
          "name": "paymentToken",
          "type": "address",
          "indexed": true,
          "internalType": "address"
        },
        {
          "name": "amount",
          "type": "uint256",
          "indexed": false,
          "internalType": "uint256"
        },
        {
          "name": "originChainId",
          "type": "uint256",
          "indexed": false,
          "internalType": "uint256"
        },
        {
          "name": "targetChainId",
          "type": "uint256",
          "indexed": false,
          "internalType": "uint256"
        },
        {
          "name": "flags",
          "type": "bytes32",
          "indexed": false,
          "internalType": "bytes32"
        },
        {
          "name": "data",
          "type": "bytes32[]",
          "indexed": false,
          "internalType": "bytes32[]"
        }
      ],
      "anonymous": false
    },
    {
      "type": "event",
      "name": "ProtocolFeeTransferred",
      "inputs": [
        {
          "name": "token",
          "type": "address",
          "indexed": true,
          "internalType": "address"
        },
        {
          "name": "treasury",
          "type": "address",
          "indexed": true,
          "internalType": "address"
        },
        {
          "name": "feeAmount",
          "type": "uint256",
          "indexed": false,
          "internalType": "uint256"
        }
      ],
      "anonymous": false
    },
    {
      "type": "event",
      "name": "TokensReleased",
      "inputs": [
        {
          "name": "recipient",
          "type": "address",
          "indexed": true,
          "internalType": "address"
        },
        {
          "name": "token",
          "type": "address",
          "indexed": true,
          "internalType": "address"
        },
        {
          "name": "amount",
          "type": "uint256",
          "indexed": false,
          "internalType": "uint256"
        }
      ],
      "anonymous": false
    },
    {
      "type": "event",
      "name": "UnclaimableAmountAdded",
      "inputs": [
        {
          "name": "paymentClient",
          "type": "address",
          "indexed": true,
          "internalType": "address"
        },
        {
          "name": "token",
          "type": "address",
          "indexed": true,
          "internalType": "address"
        },
        {
          "name": "recipient",
          "type": "address",
          "indexed": true,
          "internalType": "address"
        },
        {
          "name": "amount",
          "type": "uint256",
          "indexed": false,
          "internalType": "uint256"
        }
      ],
      "anonymous": false
    },
    {
      "type": "error",
      "name": "AddressEmptyCode",
      "inputs": [
        {
          "name": "target",
          "type": "address",
          "internalType": "address"
        }
      ]
    },
    {
      "type": "error",
      "name": "AddressInsufficientBalance",
      "inputs": [
        {
          "name": "account",
          "type": "address",
          "internalType": "address"
        }
      ]
    },
    {
      "type": "error",
      "name": "FailedInnerCall",
      "inputs": []
    },
    {
      "type": "error",
      "name": "InvalidInitialization",
      "inputs": []
    },
    {
      "type": "error",
      "name": "Module_OrchestratorCallbackFailed",
      "inputs": [
        {
          "name": "funcSig",
          "type": "string",
          "internalType": "string"
        }
      ]
    },
    {
      "type": "error",
      "name": "Module__CallerNotAuthorized",
      "inputs": [
        {
          "name": "role",
          "type": "bytes32",
          "internalType": "bytes32"
        },
        {
          "name": "caller",
          "type": "address",
          "internalType": "address"
        }
      ]
    },
    {
      "type": "error",
      "name": "Module__InvalidAddress",
      "inputs": []
    },
    {
      "type": "error",
      "name": "Module__InvalidMetadata",
      "inputs": []
    },
    {
      "type": "error",
      "name": "Module__InvalidOrchestratorAddress",
      "inputs": []
    },
    {
      "type": "error",
      "name": "Module__OnlyCallableByOrchestrator",
      "inputs": []
    },
    {
      "type": "error",
      "name": "Module__OnlyCallableByPaymentClient",
      "inputs": []
    },
    {
      "type": "error",
      "name": "Module__PaymentProcessor__CannotCallOnOtherClientsOrders",
      "inputs": []
    },
    {
      "type": "error",
      "name": "Module__PaymentProcessor__NothingToClaim",
      "inputs": [
        {
          "name": "paymentClient",
          "type": "address",
          "internalType": "address"
        },
        {
          "name": "paymentReceiver",
          "type": "address",
          "internalType": "address"
        }
      ]
    },
    {
      "type": "error",
      "name": "Module__PaymentProcessor__OnlyCallableByModule",
      "inputs": []
    },
    {
      "type": "error",
      "name": "NotInitializing",
      "inputs": []
    },
    {
      "type": "error",
      "name": "SafeERC20FailedOperation",
      "inputs": [
        {
          "name": "token",
          "type": "address",
          "internalType": "address"
        }
      ]
    }
  ],
  "bytecode": {
    "object": "0x60a060405234801562000010575f80fd5b505f6080526200001f62000025565b620000d9565b7ff0c57e16840df040f15088dc2f81fe391c3923bec73e23a9662efc9c229c6a00805468010000000000000000900460ff1615620000765760405163f92ee8a960e01b815260040160405180910390fd5b80546001600160401b0390811614620000d65780546001600160401b0319166001600160401b0390811782556040519081527fc7f505b2f371ae2175ee4913f4499e1f2633a7b5936321eed1cdaeb6115181d29060200160405180910390a15b50565b6080516128e4620000ef5f395f50506128e45ff3fe608060405234801561000f575f80fd5b506004361061012f575f3560e01c80637998a1c4116100ad578063b74795d91161007d578063ceb43f5411610063578063ceb43f541461027c578063e151fc611461028f578063f7698285146102a2575f80fd5b8063b74795d914610259578063bcb6192014610269575f80fd5b80637998a1c4146101fd5780637da0a8771461021357806381ac036714610233578063b66a870c14610246575f80fd5b806354fd4d5011610102578063572b6c05116100e8578063572b6c05146101c45780636c67e807146101d757806373d7764e146101ea575f80fd5b806354fd4d50146101985780635600f04f146101bc575f80fd5b806301ffc9a71461013357806324e302701461015b578063272bbd44146101705780634a79d50c14610183575b5f80fd5b610146610141366004611e17565b6102b5565b60405190151581526020015b60405180910390f35b61016e610169366004611e3e565b6102df565b005b61016e61017e366004611e3e565b61057f565b61018b61074e565b6040516101529190611f03565b60015460025460035460408051938452602084019290925290820152606001610152565b61018b6107e1565b6101466101d2366004611f39565b6107f3565b61016e6101e5366004611f54565b61085f565b61016e6101f8366004611f39565b610a65565b610205610b3e565b604051908152602001610152565b61021b610c96565b6040516001600160a01b039091168152602001610152565b61016e610241366004611f82565b610d0a565b61016e6102543660046120c7565b610d67565b5f546001600160a01b031661021b565b61016e610277366004611f54565b610e8b565b61020561028a366004611f82565b611062565b61016e61029d366004611f39565b611099565b6101466102b0366004612234565b611561565b5f6001600160e01b03198216632af7349960e01b14806102d957506102d9826115aa565b92915050565b5f80546040805163d09edf3160e01b815290518693926001600160a01b03169163d09edf319160048083019260209291908290030181865afa158015610327573d5f803e3d5ffd5b505050506040513d601f19601f8201168201806040525081019061034b91906122e6565b60405163fdd5205f60e01b8152306004820152602481018490526001600160a01b03919091169063fdd5205f90604401602060405180830381865afa158015610396573d5f803e3d5ffd5b505050506040513d601f19601f820116820180604052508101906103ba9190612301565b90506104aa5f8054906101000a90046001600160a01b03166001600160a01b031663d09edf316040518163ffffffff1660e01b8152600401602060405180830381865afa15801561040d573d5f803e3d5ffd5b505050506040513d601f19601f8201168201806040525081019061043191906122e6565b6001600160a01b031663248a9ca3836040518263ffffffff1660e01b815260040161045e91815260200190565b602060405180830381865afa158015610479573d5f803e3d5ffd5b505050506040513d601f19601f8201168201806040525081019061049d9190612301565b6104a56115de565b61162e565b5f8054906101000a90046001600160a01b03166001600160a01b031663d09edf316040518163ffffffff1660e01b8152600401602060405180830381865afa1580156104f8573d5f803e3d5ffd5b505050506040513d601f19601f8201168201806040525081019061051c91906122e6565b6001600160a01b0316637d540a648686866040518463ffffffff1660e01b815260040161054b93929190612318565b5f604051808303815f87803b158015610562575f80fd5b505af1158015610574573d5f803e3d5ffd5b505050505050505050565b5f80546040805163d09edf3160e01b815290518693926001600160a01b03169163d09edf319160048083019260209291908290030181865afa1580156105c7573d5f803e3d5ffd5b505050506040513d601f19601f820116820180604052508101906105eb91906122e6565b60405163fdd5205f60e01b8152306004820152602481018490526001600160a01b03919091169063fdd5205f90604401602060405180830381865afa158015610636573d5f803e3d5ffd5b505050506040513d601f19601f8201168201806040525081019061065a9190612301565b90506106ad5f8054906101000a90046001600160a01b03166001600160a01b031663d09edf316040518163ffffffff1660e01b8152600401602060405180830381865afa15801561040d573d5f803e3d5ffd5b5f8054906101000a90046001600160a01b03166001600160a01b031663d09edf316040518163ffffffff1660e01b8152600401602060405180830381865afa1580156106fb573d5f803e3d5ffd5b505050506040513d601f19601f8201168201806040525081019061071f91906122e6565b6001600160a01b031663648154538686866040518463ffffffff1660e01b815260040161054b93929190612318565b6060600160040180546107609061236f565b80601f016020809104026020016040519081016040528092919081815260200182805461078c9061236f565b80156107d75780601f106107ae576101008083540402835291602001916107d7565b820191905f5260205f20905b8154815290600101906020018083116107ba57829003601f168201915b5050505050905090565b6060600160030180546107609061236f565b5f805460405163572b6c0560e01b81526001600160a01b0384811660048301529091169063572b6c0590602401602060405180830381865afa15801561083b573d5f803e3d5ffd5b505050506040513d601f19601f820116820180604052508101906102d991906123a7565b5f80546040805163d09edf3160e01b815290518593926001600160a01b03169163d09edf319160048083019260209291908290030181865afa1580156108a7573d5f803e3d5ffd5b505050506040513d601f19601f820116820180604052508101906108cb91906122e6565b60405163fdd5205f60e01b8152306004820152602481018490526001600160a01b03919091169063fdd5205f90604401602060405180830381865afa158015610916573d5f803e3d5ffd5b505050506040513d601f19601f8201168201806040525081019061093a9190612301565b905061098d5f8054906101000a90046001600160a01b03166001600160a01b031663d09edf316040518163ffffffff1660e01b8152600401602060405180830381865afa15801561040d573d5f803e3d5ffd5b5f8054906101000a90046001600160a01b03166001600160a01b031663d09edf316040518163ffffffff1660e01b8152600401602060405180830381865afa1580156109db573d5f803e3d5ffd5b505050506040513d601f19601f820116820180604052508101906109ff91906122e6565b60405163385e205560e21b8152600481018690526001600160a01b038581166024830152919091169063e1788154906044015b5f604051808303815f87803b158015610a49575f80fd5b505af1158015610a5b573d5f803e3d5ffd5b5050505050505050565b5f546001600160a01b03166342f6e389610a7d6115de565b6040516001600160e01b031960e084901b1681526001600160a01b039091166004820152602401602060405180830381865afa158015610abf573d5f803e3d5ffd5b505050506040513d601f19601f82011682018060405250810190610ae391906123a7565b610b0057604051633c9fdabb60e01b815260040160405180910390fd5b80806001600160a01b0316610b136115de565b6001600160a01b031614610b3a576040516305bc73ab60e51b815260040160405180910390fd5b5050565b5f610c9160016040518060a00160405290815f82015481526020016001820154815260200160028201548152602001600382018054610b7c9061236f565b80601f0160208091040260200160405190810160405280929190818152602001828054610ba89061236f565b8015610bf35780601f10610bca57610100808354040283529160200191610bf3565b820191905f5260205f20905b815481529060010190602001808311610bd657829003601f168201915b50505050508152602001600482018054610c0c9061236f565b80601f0160208091040260200160405190810160405280929190818152602001828054610c389061236f565b8015610c835780601f10610c5a57610100808354040283529160200191610c83565b820191905f5260205f20905b815481529060010190602001808311610c6657829003601f168201915b505050505081525050611740565b905090565b5f805f9054906101000a90046001600160a01b03166001600160a01b0316637da0a8776040518163ffffffff1660e01b8152600401602060405180830381865afa158015610ce6573d5f803e3d5ffd5b505050506040513d601f19601f82011682018060405250810190610c9191906122e6565b610d17838361028a6115de565b5f03610d575782610d266115de565b6040516307461ff560e51b81526001600160a01b039283166004820152911660248201526044015b60405180910390fd5b610d6283838361177e565b505050565b7ff0c57e16840df040f15088dc2f81fe391c3923bec73e23a9662efc9c229c6a00805468010000000000000000810460ff16159067ffffffffffffffff165f81158015610db15750825b90505f8267ffffffffffffffff166001148015610dcd5750303b155b905081158015610ddb575080155b15610df95760405163f92ee8a960e01b815260040160405180910390fd5b845467ffffffffffffffff191660011785558315610e2d57845468ff00000000000000001916680100000000000000001785555b610e37888861187d565b8315610a5b57845468ff000000000000000019168555604051600181527fc7f505b2f371ae2175ee4913f4499e1f2633a7b5936321eed1cdaeb6115181d29060200160405180910390a15050505050505050565b5f80546040805163d09edf3160e01b815290518593926001600160a01b03169163d09edf319160048083019260209291908290030181865afa158015610ed3573d5f803e3d5ffd5b505050506040513d601f19601f82011682018060405250810190610ef791906122e6565b60405163fdd5205f60e01b8152306004820152602481018490526001600160a01b03919091169063fdd5205f90604401602060405180830381865afa158015610f42573d5f803e3d5ffd5b505050506040513d601f19601f82011682018060405250810190610f669190612301565b9050610fb95f8054906101000a90046001600160a01b03166001600160a01b031663d09edf316040518163ffffffff1660e01b8152600401602060405180830381865afa15801561040d573d5f803e3d5ffd5b5f8054906101000a90046001600160a01b03166001600160a01b031663d09edf316040518163ffffffff1660e01b8152600401602060405180830381865afa158015611007573d5f803e3d5ffd5b505050506040513d601f19601f8201168201806040525081019061102b91906122e6565b604051632e99be7f60e21b8152600481018690526001600160a01b038581166024830152919091169063ba66f9fc90604401610a32565b6001600160a01b038084165f90815260386020908152604080832086851684528252808320938516835292905220545b9392505050565b5f546001600160a01b03166342f6e3896110b16115de565b6040516001600160e01b031960e084901b1681526001600160a01b039091166004820152602401602060405180830381865afa1580156110f3573d5f803e3d5ffd5b505050506040513d601f19601f8201168201806040525081019061111791906123a7565b61113457604051633c9fdabb60e01b815260040160405180910390fd5b80806001600160a01b03166111476115de565b6001600160a01b03161461116e576040516305bc73ab60e51b815260040160405180910390fd5b6060826001600160a01b031663c0231ff66040518163ffffffff1660e01b81526004015f604051808303815f875af11580156111ac573d5f803e3d5ffd5b505050506040513d5f823e601f3d908101601f191682016040526111d39190810190612492565b505080519091505f908190815b81811015611558578481815181106111fa576111fa6125f2565b60200260200101515f015193505f85828151811061121a5761121a6125f2565b602002602001015160200151905085828151811061123a5761123a6125f2565b6020026020010151604001519350806001600160a01b0316856001600160a01b0316896001600160a01b03167f77c957f699292a35e002035101358ada282ad6c1c41c1777caa5535e6dcf8843878a878151811061129a5761129a6125f2565b6020026020010151606001518b88815181106112b8576112b86125f2565b6020026020010151608001518c89815181106112d6576112d66125f2565b602002602001015160a001518d8a815181106112f4576112f46125f2565b602002602001015160c00151604051611311959493929190612606565b60405180910390a4604080516001600160a01b038a811660248301528781166044830152606480830188905283518084039091018152608490920183526020820180516001600160e01b03166323b872dd60e01b17905291515f9283929085169161137c9190612669565b5f604051808303815f865af19150503d805f81146113b5576040519150601f19603f3d011682016040523d82523d5f602084013e6113ba565b606091505b50915091508180156113e45750805115806113e45750808060200190518101906113e491906123a7565b80156113f957506001600160a01b0383163b15155b156114ad57826001600160a01b0316876001600160a01b03167f3737f2a73c794dafe53d8aeea06810a9ebcf7167401b259406960e088e03f8308860405161144391815260200190565b60405180910390a3604051631667d8c360e31b81526001600160a01b038481166004830152602482018890528b169063b33ec618906044015f604051808303815f87803b158015611492575f80fd5b505af11580156114a4573d5f803e3d5ffd5b5050505061154a565b866001600160a01b0316836001600160a01b03168b6001600160a01b03167fbff6d112ab4c9d4a5f437492b210126678d87e510e41c7d8650c660302fb06b0896040516114fc91815260200190565b60405180910390a46001600160a01b03808b165f90815260386020908152604080832087851684528252808320938b1683529290529081208054889290611544908490612698565b90915550505b5050508060010190506111e0565b50505050505050565b5f61156e825f015161198e565b801561157d5750604082015115155b801561159157506115918260200151611ad2565b80156102d957506102d982606001518360800151611b95565b5f6001600160e01b0319821663e328951160e01b14806102d957506301ffc9a760e01b6001600160e01b03198316146102d9565b5f3660146115eb336107f3565b80156115f75750808210155b15611626575f3661160883856126ab565b6116139282906126be565b61161c916126e5565b60601c9250505090565b339250505090565b5f8054906101000a90046001600160a01b03166001600160a01b031663d09edf316040518163ffffffff1660e01b8152600401602060405180830381865afa15801561167c573d5f803e3d5ffd5b505050506040513d601f19601f820116820180604052508101906116a091906122e6565b60405163a883867d60e01b8152600481018490526001600160a01b038381166024830152919091169063a883867d90604401602060405180830381865afa1580156116ed573d5f803e3d5ffd5b505050506040513d601f19601f8201168201806040525081019061171191906123a7565b610b3a576040516342abbb7760e01b8152600481018390526001600160a01b0382166024820152604401610d4e565b5f815f0151826060015183608001516040516020016117619392919061271a565b604051602081830303815290604052805190602001209050919050565b5f6117876115de565b6001600160a01b038581165f818152603860209081526040808320898616808552908352818420958716845294909152808220805492905551631667d8c360e31b81526004810193909352602483018190529293509063b33ec618906044015f604051808303815f87803b1580156117fd575f80fd5b505af115801561180f573d5f803e3d5ffd5b50611829925050506001600160a01b038516868584611ba7565b836001600160a01b0316836001600160a01b03167f3737f2a73c794dafe53d8aeea06810a9ebcf7167401b259406960e088e03f8308360405161186e91815260200190565b60405180910390a35050505050565b611885611c07565b6001600160a01b0382166118ac57604051637280679360e01b815260040160405180910390fd5b5f80547fffffffffffffffffffffffff0000000000000000000000000000000000000000166001600160a01b0384161790556118e781611c57565b61190457604051637511254160e01b815260040160405180910390fd5b80516001908155602082015160025560408201516003556060820151829190600490611930908261278f565b5060808201516004820190611945908261278f565b50905050816001600160a01b03167fd5f3f84c2e1816ce290af84d002663800b02f2985d770cdd335de76fd723b73082604051611982919061284f565b60405180910390a25050565b5f6001600160a01b03821615806119bd57506119a86115de565b6001600160a01b0316826001600160a01b0316145b806119d057506001600160a01b03821630145b806119e757505f546001600160a01b038381169116145b80611acb57505f546001600160a01b03166001600160a01b03166304baed9e6040518163ffffffff1660e01b8152600401602060405180830381865afa158015611a33573d5f803e3d5ffd5b505050506040513d601f19601f82011682018060405250810190611a5791906122e6565b6001600160a01b031663fc0c546a6040518163ffffffff1660e01b8152600401602060405180830381865afa158015611a92573d5f803e3d5ffd5b505050506040513d601f19601f82011682018060405250810190611ab691906122e6565b6001600160a01b0316826001600160a01b0316145b1592915050565b604080513060248083019190915282518083039091018152604490910182526020810180516001600160e01b03166370a0823160e01b17905290515f91829182916001600160a01b03861691611b289190612669565b5f604051808303815f865af19150503d805f8114611b61576040519150601f19603f3d011682016040523d82523d5f602084013e611b66565b606091505b5091509150818015611b785750805115155b8015611b8d57506001600160a01b0384163b15155b949350505050565b5f818314801561109257505050461490565b604080516001600160a01b0385811660248301528416604482015260648082018490528251808303909101815260849091019091526020810180516001600160e01b03166323b872dd60e01b179052611c01908590611cb1565b50505050565b7ff0c57e16840df040f15088dc2f81fe391c3923bec73e23a9662efc9c229c6a005468010000000000000000900460ff16611c5557604051631afcd79f60e31b815260040160405180910390fd5b565b5f8160600151515f03611c6b57505f919050565b8160800151515f03611c7e57505f919050565b8151158015611c8f57506020820151155b8015611c9d57506040820151155b15611ca957505f919050565b506001919050565b5f611cc56001600160a01b03841683611d12565b905080515f14158015611ce9575080806020019051810190611ce791906123a7565b155b15610d6257604051635274afe760e01b81526001600160a01b0384166004820152602401610d4e565b606061109283835f845f80856001600160a01b03168486604051611d369190612669565b5f6040518083038185875af1925050503d805f8114611d70576040519150601f19603f3d011682016040523d82523d5f602084013e611d75565b606091505b5091509150611d85868383611d8f565b9695505050505050565b606082611da457611d9f82611deb565b611092565b8151158015611dbb57506001600160a01b0384163b155b15611de457604051639996b31560e01b81526001600160a01b0385166004820152602401610d4e565b5080611092565b805115611dfb5780518082602001fd5b604051630a12f52160e11b815260040160405180910390fd5b50565b5f60208284031215611e27575f80fd5b81356001600160e01b031981168114611092575f80fd5b5f805f60408486031215611e50575f80fd5b83359250602084013567ffffffffffffffff80821115611e6e575f80fd5b818601915086601f830112611e81575f80fd5b813581811115611e8f575f80fd5b8760208260051b8501011115611ea3575f80fd5b6020830194508093505050509250925092565b5f5b83811015611ed0578181015183820152602001611eb8565b50505f910152565b5f8151808452611eef816020860160208601611eb6565b601f01601f19169290920160200192915050565b602081525f6110926020830184611ed8565b6001600160a01b0381168114611e14575f80fd5b8035611f3481611f15565b919050565b5f60208284031215611f49575f80fd5b813561109281611f15565b5f8060408385031215611f65575f80fd5b823591506020830135611f7781611f15565b809150509250929050565b5f805f60608486031215611f94575f80fd5b8335611f9f81611f15565b92506020840135611faf81611f15565b91506040840135611fbf81611f15565b809150509250925092565b634e487b7160e01b5f52604160045260245ffd5b60405160a0810167ffffffffffffffff8111828210171561200157612001611fca565b60405290565b60405160e0810167ffffffffffffffff8111828210171561200157612001611fca565b604051601f8201601f1916810167ffffffffffffffff8111828210171561205357612053611fca565b604052919050565b5f82601f83011261206a575f80fd5b813567ffffffffffffffff81111561208457612084611fca565b612097601f8201601f191660200161202a565b8181528460208386010111156120ab575f80fd5b816020850160208301375f918101602001919091529392505050565b5f805f606084860312156120d9575f80fd5b83356120e481611f15565b9250602084013567ffffffffffffffff80821115612100575f80fd5b9085019060a08288031215612113575f80fd5b61211b611fde565b823581526020830135602082015260408301356040820152606083013582811115612144575f80fd5b6121508982860161205b565b606083015250608083013582811115612167575f80fd5b6121738982860161205b565b6080830152509350604086013591508082111561218e575f80fd5b5061219b8682870161205b565b9150509250925092565b5f67ffffffffffffffff8211156121be576121be611fca565b5060051b60200190565b5f82601f8301126121d7575f80fd5b813560206121ec6121e7836121a5565b61202a565b8083825260208201915060208460051b87010193508684111561220d575f80fd5b602086015b848110156122295780358352918301918301612212565b509695505050505050565b5f60208284031215612244575f80fd5b813567ffffffffffffffff8082111561225b575f80fd5b9083019060e0828603121561226e575f80fd5b612276612007565b61227f83611f29565b815261228d60208401611f29565b602082015260408301356040820152606083013560608201526080830135608082015260a083013560a082015260c0830135828111156122cb575f80fd5b6122d7878286016121c8565b60c08301525095945050505050565b5f602082840312156122f6575f80fd5b815161109281611f15565b5f60208284031215612311575f80fd5b5051919050565b838152604060208083018290529082018390525f90849060608401835b8681101561236357833561234881611f15565b6001600160a01b031682529282019290820190600101612335565b50979650505050505050565b600181811c9082168061238357607f821691505b6020821081036123a157634e487b7160e01b5f52602260045260245ffd5b50919050565b5f602082840312156123b7575f80fd5b81518015158114611092575f80fd5b8051611f3481611f15565b5f82601f8301126123e0575f80fd5b815160206123f06121e7836121a5565b8083825260208201915060208460051b870101935086841115612411575f80fd5b602086015b848110156122295780518352918301918301612416565b5f82601f83011261243c575f80fd5b8151602061244c6121e7836121a5565b8083825260208201915060208460051b87010193508684111561246d575f80fd5b602086015b8481101561222957805161248581611f15565b8352918301918301612472565b5f805f606084860312156124a4575f80fd5b835167ffffffffffffffff808211156124bb575f80fd5b818601915086601f8301126124ce575f80fd5b815160206124de6121e7836121a5565b82815260059290921b8401810191818101908a8411156124fc575f80fd5b8286015b848110156125ab57805186811115612516575f80fd5b870160e0818e03601f1901121561252b575f80fd5b612533612007565b61253e8683016123c6565b815261254c604083016123c6565b86820152606082015160408201526080820151606082015260a0820151608082015260c082015160a082015260e082015188811115612589575f80fd5b6125978f88838601016123d1565b60c083015250845250918301918301612500565b50918901519197509093505050808211156125c4575f80fd5b6125d08783880161242d565b935060408601519150808211156125e5575f80fd5b5061219b868287016123d1565b634e487b7160e01b5f52603260045260245ffd5b5f60a08201878352602087602085015286604085015285606085015260a0608085015281855180845260c0860191506020870193505f5b818110156126595784518352938301939183019160010161263d565b50909a9950505050505050505050565b5f825161267a818460208701611eb6565b9190910192915050565b634e487b7160e01b5f52601160045260245ffd5b808201808211156102d9576102d9612684565b818103818111156102d9576102d9612684565b5f80858511156126cc575f80fd5b838611156126d8575f80fd5b5050820193919092039150565b6bffffffffffffffffffffffff1981358181169160148510156127125780818660140360031b1b83161692505b505092915050565b838152606060208201525f6127326060830185611ed8565b8281036040840152611d858185611ed8565b601f821115610d6257805f5260205f20601f840160051c810160208510156127695750805b601f840160051c820191505b81811015612788575f8155600101612775565b5050505050565b815167ffffffffffffffff8111156127a9576127a9611fca565b6127bd816127b7845461236f565b84612744565b602080601f8311600181146127f0575f84156127d95750858301515b5f19600386901b1c1916600185901b178555612847565b5f85815260208120601f198616915b8281101561281e578886015182559484019460019091019084016127ff565b508582101561283b57878501515f19600388901b60f8161c191681555b505060018460011b0185555b505050505050565b602081528151602082015260208201516040820152604082015160608201525f606083015160a0608084015261288860c0840182611ed8565b90506080840151601f198483030160a08501526128a58282611ed8565b9594505050505056fea2646970667358221220f6c6e27554ab7710a9e1fc01c9294a9055cb085bcab1aae38080adc84b246d6e64736f6c63430008170033",
    "linkReferences": {}
  },
  "methodIdentifiers": {
    "cancelRunningPayments(address)": "73d7764e",
    "claimPreviouslyUnclaimable(address,address,address)": "81ac0367",
    "grantModuleRole(bytes32,address)": "6c67e807",
    "grantModuleRoleBatched(bytes32,address[])": "272bbd44",
    "identifier()": "7998a1c4",
    "init(address,(uint256,uint256,uint256,string,string),bytes)": "b66a870c",
    "isTrustedForwarder(address)": "572b6c05",
    "orchestrator()": "b74795d9",
    "processPayments(address)": "e151fc61",
    "revokeModuleRole(bytes32,address)": "bcb61920",
    "revokeModuleRoleBatched(bytes32,address[])": "24e30270",
    "supportsInterface(bytes4)": "01ffc9a7",
    "title()": "4a79d50c",
    "trustedForwarder()": "7da0a877",
    "unclaimable(address,address,address)": "ceb43f54",
    "url()": "5600f04f",
    "validPaymentOrder((address,address,uint256,uint256,uint256,bytes32,bytes32[]))": "f7698285",
    "version()": "54fd4d50"
  },
  "id": 175
}