{
  "abi": [
    {
      "type": "function",
      "name": "cancelRunningPayments",
      "inputs": [
        {
          "name": "client",
          "type": "address",
          "internalType": "contract IERC20PaymentClientBase_v1"
        }
      ],
      "outputs": [],
      "stateMutability": "nonpayable"
    },
    {
      "type": "function",
      "name": "claimAll",
      "inputs": [
        {
          "name": "client",
          "type": "address",
          "internalType": "address"
        }
      ],
      "outputs": [],
      "stateMutability": "nonpayable"
    },
    {
      "type": "function",
      "name": "claimForSpecificStream",
      "inputs": [
        {
          "name": "client",
          "type": "address",
          "internalType": "address"
        },
        {
          "name": "streamId",
          "type": "uint256",
          "internalType": "uint256"
        }
      ],
      "outputs": [],
      "stateMutability": "nonpayable"
    },
    {
      "type": "function",
      "name": "claimPreviouslyUnclaimable",
      "inputs": [
        {
          "name": "client",
          "type": "address",
          "internalType": "address"
        },
        {
          "name": "token",
          "type": "address",
          "internalType": "address"
        },
        {
          "name": "receiver",
          "type": "address",
          "internalType": "address"
        }
      ],
      "outputs": [],
      "stateMutability": "nonpayable"
    },
    {
      "type": "function",
      "name": "cliffForSpecificStream",
      "inputs": [
        {
          "name": "client",
          "type": "address",
          "internalType": "address"
        },
        {
          "name": "paymentReceiver",
          "type": "address",
          "internalType": "address"
        },
        {
          "name": "streamId",
          "type": "uint256",
          "internalType": "uint256"
        }
      ],
      "outputs": [
        {
          "name": "",
          "type": "uint256",
          "internalType": "uint256"
        }
      ],
      "stateMutability": "view"
    },
    {
      "type": "function",
      "name": "endForSpecificStream",
      "inputs": [
        {
          "name": "client",
          "type": "address",
          "internalType": "address"
        },
        {
          "name": "paymentReceiver",
          "type": "address",
          "internalType": "address"
        },
        {
          "name": "streamId",
          "type": "uint256",
          "internalType": "uint256"
        }
      ],
      "outputs": [
        {
          "name": "",
          "type": "uint256",
          "internalType": "uint256"
        }
      ],
      "stateMutability": "view"
    },
    {
      "type": "function",
      "name": "grantModuleRole",
      "inputs": [
        {
          "name": "role",
          "type": "bytes32",
          "internalType": "bytes32"
        },
        {
          "name": "target",
          "type": "address",
          "internalType": "address"
        }
      ],
      "outputs": [],
      "stateMutability": "nonpayable"
    },
    {
      "type": "function",
      "name": "grantModuleRoleBatched",
      "inputs": [
        {
          "name": "role",
          "type": "bytes32",
          "internalType": "bytes32"
        },
        {
          "name": "targets",
          "type": "address[]",
          "internalType": "address[]"
        }
      ],
      "outputs": [],
      "stateMutability": "nonpayable"
    },
    {
      "type": "function",
      "name": "identifier",
      "inputs": [],
      "outputs": [
        {
          "name": "",
          "type": "bytes32",
          "internalType": "bytes32"
        }
      ],
      "stateMutability": "view"
    },
    {
      "type": "function",
      "name": "init",
      "inputs": [
        {
          "name": "orchestrator_",
          "type": "address",
          "internalType": "contract IOrchestrator_v1"
        },
        {
          "name": "metadata",
          "type": "tuple",
          "internalType": "struct IModule_v1.Metadata",
          "components": [
            {
              "name": "majorVersion",
              "type": "uint256",
              "internalType": "uint256"
            },
            {
              "name": "minorVersion",
              "type": "uint256",
              "internalType": "uint256"
            },
            {
              "name": "url",
              "type": "string",
              "internalType": "string"
            },
            {
              "name": "title",
              "type": "string",
              "internalType": "string"
            }
          ]
        },
        {
          "name": "",
          "type": "bytes",
          "internalType": "bytes"
        }
      ],
      "outputs": [],
      "stateMutability": "nonpayable"
    },
    {
      "type": "function",
      "name": "isActivePaymentReceiver",
      "inputs": [
        {
          "name": "client",
          "type": "address",
          "internalType": "address"
        },
        {
          "name": "paymentReceiver",
          "type": "address",
          "internalType": "address"
        }
      ],
      "outputs": [
        {
          "name": "",
          "type": "bool",
          "internalType": "bool"
        }
      ],
      "stateMutability": "view"
    },
    {
      "type": "function",
      "name": "isTrustedForwarder",
      "inputs": [
        {
          "name": "forwarder",
          "type": "address",
          "internalType": "address"
        }
      ],
      "outputs": [
        {
          "name": "",
          "type": "bool",
          "internalType": "bool"
        }
      ],
      "stateMutability": "view"
    },
    {
      "type": "function",
      "name": "numStreams",
      "inputs": [
        {
          "name": "",
          "type": "address",
          "internalType": "address"
        },
        {
          "name": "",
          "type": "address",
          "internalType": "address"
        }
      ],
      "outputs": [
        {
          "name": "",
          "type": "uint256",
          "internalType": "uint256"
        }
      ],
      "stateMutability": "view"
    },
    {
      "type": "function",
      "name": "orchestrator",
      "inputs": [],
      "outputs": [
        {
          "name": "",
          "type": "address",
          "internalType": "contract IOrchestrator_v1"
        }
      ],
      "stateMutability": "view"
    },
    {
      "type": "function",
      "name": "processPayments",
      "inputs": [
        {
          "name": "client",
          "type": "address",
          "internalType": "contract IERC20PaymentClientBase_v1"
        }
      ],
      "outputs": [],
      "stateMutability": "nonpayable"
    },
    {
      "type": "function",
      "name": "releasableForSpecificStream",
      "inputs": [
        {
          "name": "client",
          "type": "address",
          "internalType": "address"
        },
        {
          "name": "paymentReceiver",
          "type": "address",
          "internalType": "address"
        },
        {
          "name": "streamId",
          "type": "uint256",
          "internalType": "uint256"
        }
      ],
      "outputs": [
        {
          "name": "",
          "type": "uint256",
          "internalType": "uint256"
        }
      ],
      "stateMutability": "view"
    },
    {
      "type": "function",
      "name": "releasedForSpecificStream",
      "inputs": [
        {
          "name": "client",
          "type": "address",
          "internalType": "address"
        },
        {
          "name": "paymentReceiver",
          "type": "address",
          "internalType": "address"
        },
        {
          "name": "streamId",
          "type": "uint256",
          "internalType": "uint256"
        }
      ],
      "outputs": [
        {
          "name": "",
          "type": "uint256",
          "internalType": "uint256"
        }
      ],
      "stateMutability": "view"
    },
    {
      "type": "function",
      "name": "removeAllPaymentReceiverPayments",
      "inputs": [
        {
          "name": "client",
          "type": "address",
          "internalType": "address"
        },
        {
          "name": "paymentReceiver",
          "type": "address",
          "internalType": "address"
        }
      ],
      "outputs": [],
      "stateMutability": "nonpayable"
    },
    {
      "type": "function",
      "name": "removePaymentForSpecificStream",
      "inputs": [
        {
          "name": "client",
          "type": "address",
          "internalType": "address"
        },
        {
          "name": "paymentReceiver",
          "type": "address",
          "internalType": "address"
        },
        {
          "name": "streamId",
          "type": "uint256",
          "internalType": "uint256"
        }
      ],
      "outputs": [],
      "stateMutability": "nonpayable"
    },
    {
      "type": "function",
      "name": "revokeModuleRole",
      "inputs": [
        {
          "name": "role",
          "type": "bytes32",
          "internalType": "bytes32"
        },
        {
          "name": "target",
          "type": "address",
          "internalType": "address"
        }
      ],
      "outputs": [],
      "stateMutability": "nonpayable"
    },
    {
      "type": "function",
      "name": "revokeModuleRoleBatched",
      "inputs": [
        {
          "name": "role",
          "type": "bytes32",
          "internalType": "bytes32"
        },
        {
          "name": "targets",
          "type": "address[]",
          "internalType": "address[]"
        }
      ],
      "outputs": [],
      "stateMutability": "nonpayable"
    },
    {
      "type": "function",
      "name": "startForSpecificStream",
      "inputs": [
        {
          "name": "client",
          "type": "address",
          "internalType": "address"
        },
        {
          "name": "paymentReceiver",
          "type": "address",
          "internalType": "address"
        },
        {
          "name": "streamId",
          "type": "uint256",
          "internalType": "uint256"
        }
      ],
      "outputs": [
        {
          "name": "",
          "type": "uint256",
          "internalType": "uint256"
        }
      ],
      "stateMutability": "view"
    },
    {
      "type": "function",
      "name": "streamedAmountForSpecificStream",
      "inputs": [
        {
          "name": "client",
          "type": "address",
          "internalType": "address"
        },
        {
          "name": "paymentReceiver",
          "type": "address",
          "internalType": "address"
        },
        {
          "name": "streamId",
          "type": "uint256",
          "internalType": "uint256"
        },
        {
          "name": "timestamp",
          "type": "uint256",
          "internalType": "uint256"
        }
      ],
      "outputs": [
        {
          "name": "",
          "type": "uint256",
          "internalType": "uint256"
        }
      ],
      "stateMutability": "view"
    },
    {
      "type": "function",
      "name": "supportsInterface",
      "inputs": [
        {
          "name": "interfaceId",
          "type": "bytes4",
          "internalType": "bytes4"
        }
      ],
      "outputs": [
        {
          "name": "",
          "type": "bool",
          "internalType": "bool"
        }
      ],
      "stateMutability": "view"
    },
    {
      "type": "function",
      "name": "title",
      "inputs": [],
      "outputs": [
        {
          "name": "",
          "type": "string",
          "internalType": "string"
        }
      ],
      "stateMutability": "view"
    },
    {
      "type": "function",
      "name": "trustedForwarder",
      "inputs": [],
      "outputs": [
        {
          "name": "",
          "type": "address",
          "internalType": "address"
        }
      ],
      "stateMutability": "view"
    },
    {
      "type": "function",
      "name": "unclaimable",
      "inputs": [
        {
          "name": "client",
          "type": "address",
          "internalType": "address"
        },
        {
          "name": "token",
          "type": "address",
          "internalType": "address"
        },
        {
          "name": "paymentReceiver",
          "type": "address",
          "internalType": "address"
        }
      ],
      "outputs": [
        {
          "name": "amount",
          "type": "uint256",
          "internalType": "uint256"
        }
      ],
      "stateMutability": "view"
    },
    {
      "type": "function",
      "name": "url",
      "inputs": [],
      "outputs": [
        {
          "name": "",
          "type": "string",
          "internalType": "string"
        }
      ],
      "stateMutability": "view"
    },
    {
      "type": "function",
      "name": "version",
      "inputs": [],
      "outputs": [
        {
          "name": "",
          "type": "uint256",
          "internalType": "uint256"
        },
        {
          "name": "",
          "type": "uint256",
          "internalType": "uint256"
        }
      ],
      "stateMutability": "view"
    },
    {
      "type": "function",
      "name": "viewAllPaymentOrders",
      "inputs": [
        {
          "name": "client",
          "type": "address",
          "internalType": "address"
        },
        {
          "name": "paymentReceiver",
          "type": "address",
          "internalType": "address"
        }
      ],
      "outputs": [
        {
          "name": "",
          "type": "tuple[]",
          "internalType": "struct IPP_Streaming_v1.Stream[]",
          "components": [
            {
              "name": "_paymentToken",
              "type": "address",
              "internalType": "address"
            },
            {
              "name": "_streamId",
              "type": "uint256",
              "internalType": "uint256"
            },
            {
              "name": "_total",
              "type": "uint256",
              "internalType": "uint256"
            },
            {
              "name": "_released",
              "type": "uint256",
              "internalType": "uint256"
            },
            {
              "name": "_start",
              "type": "uint256",
              "internalType": "uint256"
            },
            {
              "name": "_cliff",
              "type": "uint256",
              "internalType": "uint256"
            },
            {
              "name": "_end",
              "type": "uint256",
              "internalType": "uint256"
            }
          ]
        }
      ],
      "stateMutability": "view"
    },
    {
      "type": "event",
      "name": "Initialized",
      "inputs": [
        {
          "name": "version",
          "type": "uint64",
          "indexed": false,
          "internalType": "uint64"
        }
      ],
      "anonymous": false
    },
    {
      "type": "event",
      "name": "InvalidStreamingOrderDiscarded",
      "inputs": [
        {
          "name": "recipient",
          "type": "address",
          "indexed": true,
          "internalType": "address"
        },
        {
          "name": "paymentToken",
          "type": "address",
          "indexed": true,
          "internalType": "address"
        },
        {
          "name": "amount",
          "type": "uint256",
          "indexed": false,
          "internalType": "uint256"
        },
        {
          "name": "start",
          "type": "uint256",
          "indexed": false,
          "internalType": "uint256"
        },
        {
          "name": "cliff",
          "type": "uint256",
          "indexed": false,
          "internalType": "uint256"
        },
        {
          "name": "end",
          "type": "uint256",
          "indexed": false,
          "internalType": "uint256"
        }
      ],
      "anonymous": false
    },
    {
      "type": "event",
      "name": "ModuleInitialized",
      "inputs": [
        {
          "name": "parentOrchestrator",
          "type": "address",
          "indexed": true,
          "internalType": "address"
        },
        {
          "name": "moduleTitle",
          "type": "string",
          "indexed": true,
          "internalType": "string"
        },
        {
          "name": "majorVersion",
          "type": "uint256",
          "indexed": false,
          "internalType": "uint256"
        },
        {
          "name": "minorVersion",
          "type": "uint256",
          "indexed": false,
          "internalType": "uint256"
        }
      ],
      "anonymous": false
    },
    {
      "type": "event",
      "name": "PaymentOrderProcessed",
      "inputs": [
        {
          "name": "paymentClient",
          "type": "address",
          "indexed": true,
          "internalType": "address"
        },
        {
          "name": "recipient",
          "type": "address",
          "indexed": true,
          "internalType": "address"
        },
        {
          "name": "paymentToken",
          "type": "address",
          "indexed": true,
          "internalType": "address"
        },
        {
          "name": "amount",
          "type": "uint256",
          "indexed": false,
          "internalType": "uint256"
        },
        {
          "name": "start",
          "type": "uint256",
          "indexed": false,
          "internalType": "uint256"
        },
        {
          "name": "cliff",
          "type": "uint256",
          "indexed": false,
          "internalType": "uint256"
        },
        {
          "name": "end",
          "type": "uint256",
          "indexed": false,
          "internalType": "uint256"
        }
      ],
      "anonymous": false
    },
    {
      "type": "event",
      "name": "PaymentOrderProcessed",
      "inputs": [
        {
          "name": "paymentClient",
          "type": "address",
          "indexed": true,
          "internalType": "address"
        },
        {
          "name": "recipient",
          "type": "address",
          "indexed": true,
          "internalType": "address"
        },
        {
          "name": "paymentToken",
          "type": "address",
          "indexed": true,
          "internalType": "address"
        },
        {
          "name": "streamId",
          "type": "uint256",
          "indexed": false,
          "internalType": "uint256"
        },
        {
          "name": "amount",
          "type": "uint256",
          "indexed": false,
          "internalType": "uint256"
        },
        {
          "name": "start",
          "type": "uint256",
          "indexed": false,
          "internalType": "uint256"
        },
        {
          "name": "cliff",
          "type": "uint256",
          "indexed": false,
          "internalType": "uint256"
        },
        {
          "name": "end",
          "type": "uint256",
          "indexed": false,
          "internalType": "uint256"
        }
      ],
      "anonymous": false
    },
    {
      "type": "event",
      "name": "StreamingPaymentAdded",
      "inputs": [
        {
          "name": "paymentClient",
          "type": "address",
          "indexed": true,
          "internalType": "address"
        },
        {
          "name": "recipient",
          "type": "address",
          "indexed": true,
          "internalType": "address"
        },
        {
          "name": "paymentToken",
          "type": "address",
          "indexed": true,
          "internalType": "address"
        },
        {
          "name": "streamId",
          "type": "uint256",
          "indexed": false,
          "internalType": "uint256"
        },
        {
          "name": "amount",
          "type": "uint256",
          "indexed": false,
          "internalType": "uint256"
        },
        {
          "name": "start",
          "type": "uint256",
          "indexed": false,
          "internalType": "uint256"
        },
        {
          "name": "cliff",
          "type": "uint256",
          "indexed": false,
          "internalType": "uint256"
        },
        {
          "name": "end",
          "type": "uint256",
          "indexed": false,
          "internalType": "uint256"
        }
      ],
      "anonymous": false
    },
    {
      "type": "event",
      "name": "StreamingPaymentRemoved",
      "inputs": [
        {
          "name": "paymentClient",
          "type": "address",
          "indexed": true,
          "internalType": "address"
        },
        {
          "name": "recipient",
          "type": "address",
          "indexed": true,
          "internalType": "address"
        },
        {
          "name": "streamId",
          "type": "uint256",
          "indexed": false,
          "internalType": "uint256"
        }
      ],
      "anonymous": false
    },
    {
      "type": "event",
      "name": "TokensReleased",
      "inputs": [
        {
          "name": "recipient",
          "type": "address",
          "indexed": true,
          "internalType": "address"
        },
        {
          "name": "token",
          "type": "address",
          "indexed": true,
          "internalType": "address"
        },
        {
          "name": "amount",
          "type": "uint256",
          "indexed": false,
          "internalType": "uint256"
        }
      ],
      "anonymous": false
    },
    {
      "type": "event",
      "name": "UnclaimableAmountAdded",
      "inputs": [
        {
          "name": "paymentClient",
          "type": "address",
          "indexed": true,
          "internalType": "address"
        },
        {
          "name": "token",
          "type": "address",
          "indexed": true,
          "internalType": "address"
        },
        {
          "name": "recipient",
          "type": "address",
          "indexed": true,
          "internalType": "address"
        },
        {
          "name": "amount",
          "type": "uint256",
          "indexed": false,
          "internalType": "uint256"
        }
      ],
      "anonymous": false
    },
    {
      "type": "event",
      "name": "UnclaimableAmountAdded",
      "inputs": [
        {
          "name": "paymentClient",
          "type": "address",
          "indexed": true,
          "internalType": "address"
        },
        {
          "name": "recipient",
          "type": "address",
          "indexed": false,
          "internalType": "address"
        },
        {
          "name": "paymentToken",
          "type": "address",
          "indexed": false,
          "internalType": "address"
        },
        {
          "name": "streamId",
          "type": "uint256",
          "indexed": false,
          "internalType": "uint256"
        },
        {
          "name": "amount",
          "type": "uint256",
          "indexed": false,
          "internalType": "uint256"
        }
      ],
      "anonymous": false
    },
    {
      "type": "error",
      "name": "AddressEmptyCode",
      "inputs": [
        {
          "name": "target",
          "type": "address",
          "internalType": "address"
        }
      ]
    },
    {
      "type": "error",
      "name": "AddressInsufficientBalance",
      "inputs": [
        {
          "name": "account",
          "type": "address",
          "internalType": "address"
        }
      ]
    },
    {
      "type": "error",
      "name": "FailedInnerCall",
      "inputs": []
    },
    {
      "type": "error",
      "name": "InvalidInitialization",
      "inputs": []
    },
    {
      "type": "error",
      "name": "Module_OrchestratorCallbackFailed",
      "inputs": [
        {
          "name": "funcSig",
          "type": "string",
          "internalType": "string"
        }
      ]
    },
    {
      "type": "error",
      "name": "Module__CallerNotAuthorized",
      "inputs": [
        {
          "name": "role",
          "type": "bytes32",
          "internalType": "bytes32"
        },
        {
          "name": "caller",
          "type": "address",
          "internalType": "address"
        }
      ]
    },
    {
      "type": "error",
      "name": "Module__InvalidMetadata",
      "inputs": []
    },
    {
      "type": "error",
      "name": "Module__InvalidOrchestratorAddress",
      "inputs": []
    },
    {
      "type": "error",
      "name": "Module__OnlyCallableByOrchestrator",
      "inputs": []
    },
    {
      "type": "error",
      "name": "Module__PP_Streaming__InactiveStream",
      "inputs": [
        {
          "name": "paymentClient",
          "type": "address",
          "internalType": "address"
        },
        {
          "name": "paymentReceiver",
          "type": "address",
          "internalType": "address"
        },
        {
          "name": "streamId",
          "type": "uint256",
          "internalType": "uint256"
        }
      ]
    },
    {
      "type": "error",
      "name": "Module__PP_Streaming__InsufficientTokenBalanceInClient",
      "inputs": []
    },
    {
      "type": "error",
      "name": "Module__PP_Streaming__InvalidPaymentReceiver",
      "inputs": [
        {
          "name": "paymentClient",
          "type": "address",
          "internalType": "address"
        },
        {
          "name": "paymentReceiver",
          "type": "address",
          "internalType": "address"
        }
      ]
    },
    {
      "type": "error",
      "name": "Module__PP_Streaming__InvalidStream",
      "inputs": [
        {
          "name": "paymentClient",
          "type": "address",
          "internalType": "address"
        },
        {
          "name": "paymentReceiver",
          "type": "address",
          "internalType": "address"
        },
        {
          "name": "streamId",
          "type": "uint256",
          "internalType": "uint256"
        }
      ]
    },
    {
      "type": "error",
      "name": "Module__PaymentProcessor__CannotCallOnOtherClientsOrders",
      "inputs": []
    },
    {
      "type": "error",
      "name": "Module__PaymentProcessor__NothingToClaim",
      "inputs": [
        {
          "name": "paymentClient",
          "type": "address",
          "internalType": "address"
        },
        {
          "name": "paymentReceiver",
          "type": "address",
          "internalType": "address"
        }
      ]
    },
    {
      "type": "error",
      "name": "Module__PaymentProcessor__OnlyCallableByModule",
      "inputs": []
    },
    {
      "type": "error",
      "name": "NotInitializing",
      "inputs": []
    },
    {
      "type": "error",
      "name": "SafeERC20FailedOperation",
      "inputs": [
        {
          "name": "token",
          "type": "address",
          "internalType": "address"
        }
      ]
    }
  ],
  "bytecode": {
    "object": "0x60a06040523480156200001157600080fd5b5060006080526200002162000027565b620000db565b7ff0c57e16840df040f15088dc2f81fe391c3923bec73e23a9662efc9c229c6a00805468010000000000000000900460ff1615620000785760405163f92ee8a960e01b815260040160405180910390fd5b80546001600160401b0390811614620000d85780546001600160401b0319166001600160401b0390811782556040519081527fc7f505b2f371ae2175ee4913f4499e1f2633a7b5936321eed1cdaeb6115181d29060200160405180910390a15b50565b6080516142ea620000f4600039600050506142ea6000f3fe608060405234801561001057600080fd5b50600436106101da5760003560e01c8063738e19a311610104578063b74795d9116100a2578063cbe58ee211610071578063cbe58ee2146104ce578063ceb43f5414610511578063e151fc6114610524578063f4a192b31461053757600080fd5b8063b74795d914610454578063bcb6192014610465578063c089330214610478578063cb8e092f146104bb57600080fd5b80637998a1c4116100de5780637998a1c4146103d65780637da0a877146103de57806381ac0367146103fe5780639e1749941461041157600080fd5b8063738e19a31461039057806373d7764e146103b057806377329f35146103c357600080fd5b80634e6c76ae1161017c578063572b6c051161014b578063572b6c051461032c5780635c9a6f5f1461033f5780635eeede4d1461036a5780636c67e8071461037d57600080fd5b80634e6c76ae146102b357806354498314146102f657806354fd4d50146103095780635600f04f1461032457600080fd5b8063272bbd44116101b8578063272bbd441461023d578063410810cd1461025057806342dfe9581461028b5780634a79d50c1461029e57600080fd5b806301ffc9a7146101df5780631f2ac7441461020757806324e3027014610228575b600080fd5b6101f26101ed3660046137f8565b61054a565b60405190151581526020015b60405180910390f35b61021a610215366004613837565b61058f565b6040519081526020016101fe565b61023b610236366004613878565b6105e2565b005b61023b61024b366004613878565b610896565b6101f261025e3660046138f7565b6001600160a01b039182166000908152603c60209081526040808320939094168252919091522054151590565b61023b610299366004613a33565b610a72565b6102a6610b99565b6040516101fe9190613b5f565b61021a6102c1366004613837565b6001600160a01b0392831660009081526038602090815260408083209490951682529283528381209181529152206006015490565b61023b610304366004613837565b610c2e565b600154600254604080519283526020830191909152016101fe565b6102a6610d2d565b6101f261033a366004613b72565b610d3f565b61021a61034d3660046138f7565b603760209081526000928352604080842090915290825290205481565b61023b610378366004613b8f565b610dae565b61023b61038b366004613bbb565b610ee7565b6103a361039e3660046138f7565b6110f5565b6040516101fe9190613be0565b61023b6103be366004613b72565b611357565b61023b6103d1366004613b72565b611438565b61021a6114c4565b6103e6611614565b6040516001600160a01b0390911681526020016101fe565b61023b61040c366004613c6b565b61168c565b61021a61041f366004613837565b6001600160a01b0392831660009081526038602090815260408083209490951682529283528381209181529152206003015490565b6000546001600160a01b03166103e6565b61023b610473366004613bbb565b6116b4565b61021a610486366004613837565b6001600160a01b0392831660009081526038602090815260408083209490951682529283528381209181529152206004015490565b61023b6104c93660046138f7565b611898565b61021a6104dc366004613837565b6001600160a01b0392831660009081526038602090815260408083209490951682529283528381209181529152206005015490565b61021a61051f366004613c6b565b61192b565b61023b610532366004613b72565b611a4b565b61021a610545366004613cb6565b611eb1565b60006001600160e01b0319821662b4011560e81b148061057a57506001600160e01b03198216633767ad8760e21b145b80610589575061058982611eca565b92915050565b6001600160a01b03808416600090815260386020908152604080832093861683529281528282208483529052908120600301546105ce85858542611eb1565b6105d89190613d12565b90505b9392505050565b600080546040805163d09edf3160e01b815290518693926001600160a01b03169163d09edf319160048083019260209291908290030181865afa15801561062d573d6000803e3d6000fd5b505050506040513d601f19601f820116820180604052508101906106519190613d25565b60405163fdd5205f60e01b8152306004820152602481018490526001600160a01b03919091169063fdd5205f906044016020604051808303816000875af11580156106a0573d6000803e3d6000fd5b505050506040513d601f19601f820116820180604052508101906106c49190613d42565b90506107b960008054906101000a90046001600160a01b03166001600160a01b031663d09edf316040518163ffffffff1660e01b8152600401602060405180830381865afa15801561071a573d6000803e3d6000fd5b505050506040513d601f19601f8201168201806040525081019061073e9190613d25565b6001600160a01b031663248a9ca3836040518263ffffffff1660e01b815260040161076b91815260200190565b602060405180830381865afa158015610788573d6000803e3d6000fd5b505050506040513d601f19601f820116820180604052508101906107ac9190613d42565b6107b4611eff565b611f51565b60008054906101000a90046001600160a01b03166001600160a01b031663d09edf316040518163ffffffff1660e01b8152600401602060405180830381865afa15801561080a573d6000803e3d6000fd5b505050506040513d601f19601f8201168201806040525081019061082e9190613d25565b6001600160a01b0316637d540a648686866040518463ffffffff1660e01b815260040161085d93929190613d5b565b600060405180830381600087803b15801561087757600080fd5b505af115801561088b573d6000803e3d6000fd5b505050505050505050565b600080546040805163d09edf3160e01b815290518693926001600160a01b03169163d09edf319160048083019260209291908290030181865afa1580156108e1573d6000803e3d6000fd5b505050506040513d601f19601f820116820180604052508101906109059190613d25565b60405163fdd5205f60e01b8152306004820152602481018490526001600160a01b03919091169063fdd5205f906044016020604051808303816000875af1158015610954573d6000803e3d6000fd5b505050506040513d601f19601f820116820180604052508101906109789190613d42565b90506109ce60008054906101000a90046001600160a01b03166001600160a01b031663d09edf316040518163ffffffff1660e01b8152600401602060405180830381865afa15801561071a573d6000803e3d6000fd5b60008054906101000a90046001600160a01b03166001600160a01b031663d09edf316040518163ffffffff1660e01b8152600401602060405180830381865afa158015610a1f573d6000803e3d6000fd5b505050506040513d601f19601f82011682018060405250810190610a439190613d25565b6001600160a01b031663648154538686866040518463ffffffff1660e01b815260040161085d93929190613d5b565b7ff0c57e16840df040f15088dc2f81fe391c3923bec73e23a9662efc9c229c6a00805468010000000000000000810460ff16159067ffffffffffffffff16600081158015610abd5750825b905060008267ffffffffffffffff166001148015610ada5750303b155b905081158015610ae8575080155b15610b065760405163f92ee8a960e01b815260040160405180910390fd5b845467ffffffffffffffff191660011785558315610b3a57845468ff00000000000000001916680100000000000000001785555b610b448888612068565b8315610b8f57845468ff000000000000000019168555604051600181527fc7f505b2f371ae2175ee4913f4499e1f2633a7b5936321eed1cdaeb6115181d29060200160405180910390a15b5050505050505050565b606060016003018054610bab90613db3565b80601f0160208091040260200160405190810160405280929190818152602001828054610bd790613db3565b8015610c245780601f10610bf957610100808354040283529160200191610c24565b820191906000526020600020905b815481529060010190602001808311610c0757829003601f168201915b5050505050905090565b6000546040805163d09edf3160e01b81529051610cda926001600160a01b03169163d09edf319160048083019260209291908290030181865afa158015610c79573d6000803e3d6000fd5b505050506040513d601f19601f82011682018060405250810190610c9d9190613d25565b6001600160a01b031663b3ecf2366040518163ffffffff1660e01b8152600401602060405180830381865afa158015610788573d6000803e3d6000fd5b610ce5838383612179565b6001600160a01b038084166000908152603860209081526040808320938616835292815282822084835290522060060154421015610d2857610d28838383612577565b505050565b606060016002018054610bab90613db3565b6000805460405163572b6c0560e01b81526001600160a01b0384811660048301529091169063572b6c0590602401602060405180830381865afa158015610d8a573d6000803e3d6000fd5b505050506040513d601f19601f820116820180604052508101906105899190613ded565b6001600160a01b0382166000908152603c6020526040812090610dcf611eff565b6001600160a01b031681526020810191909152604001600020541580610e3557506001600160a01b038216600090815260376020526040812090610e11611eff565b6001600160a01b03166001600160a01b031681526020019081526020016000205481115b15610e7b5781610e43611eff565b60405163a4e07aad60e01b81526001600160a01b03928316600482015291166024820152604481018290526064015b60405180910390fd5b600019610e9083610e8a611eff565b8461265f565b03610ed15781610e9e611eff565b6040516332c595cd60e21b81526001600160a01b0392831660048201529116602482015260448101829052606401610e72565b610ee382610edd611eff565b83612179565b5050565b600080546040805163d09edf3160e01b815290518593926001600160a01b03169163d09edf319160048083019260209291908290030181865afa158015610f32573d6000803e3d6000fd5b505050506040513d601f19601f82011682018060405250810190610f569190613d25565b60405163fdd5205f60e01b8152306004820152602481018490526001600160a01b03919091169063fdd5205f906044016020604051808303816000875af1158015610fa5573d6000803e3d6000fd5b505050506040513d601f19601f82011682018060405250810190610fc99190613d42565b905061101f60008054906101000a90046001600160a01b03166001600160a01b031663d09edf316040518163ffffffff1660e01b8152600401602060405180830381865afa15801561071a573d6000803e3d6000fd5b60008054906101000a90046001600160a01b03166001600160a01b031663d09edf316040518163ffffffff1660e01b8152600401602060405180830381865afa158015611070573d6000803e3d6000fd5b505050506040513d601f19601f820116820180604052508101906110949190613d25565b60405163385e205560e21b8152600481018690526001600160a01b038581166024830152919091169063e1788154906044015b600060405180830381600087803b1580156110e157600080fd5b505af1158015610b8f573d6000803e3d6000fd5b6001600160a01b038083166000908152603c6020908152604080832093851683529290529081205460609184918491036111555760405163ddc9eeaf60e01b81526001600160a01b03808416600483015282166024820152604401610e72565b6001600160a01b038086166000908152603c602090815260408083209388168352928152828220805484518184028101840190955280855292939290918301828280156111c157602002820191906000526020600020905b8154815260200190600101908083116111ad575b505050505090506000815190506000808267ffffffffffffffff8111156111ea576111ea613930565b60405190808252806020026020018201604052801561126457816020015b6112516040518060e0016040528060006001600160a01b031681526020016000815260200160008152602001600081526020016000815260200160008152602001600081525090565b8152602001906001900390816112085790505b5090505b82821015611349576001600160a01b03808a166000908152603860209081526040808320938c16835292905290812085519091908690859081106112ae576112ae613e0f565b6020908102919091018101518252818101929092526040908101600020815160e08101835281546001600160a01b031681526001820154938101939093526002810154918301919091526003810154606083015260048101546080830152600581015460a08301526006015460c0820152815182908490811061133357611333613e0f565b6020026020010181905250816001019150611268565b95505050505b505092915050565b6000546001600160a01b03166342f6e389611370611eff565b6040516001600160e01b031960e084901b1681526001600160a01b039091166004820152602401602060405180830381865afa1580156113b4573d6000803e3d6000fd5b505050506040513d601f19601f820116820180604052508101906113d89190613ded565b6113f557604051633c9fdabb60e01b815260040160405180910390fd5b80806001600160a01b0316611408611eff565b6001600160a01b03161461142f576040516305bc73ab60e51b815260040160405180910390fd5b610ee382612722565b6001600160a01b0381166000908152603c6020526040812090611459611eff565b6001600160a01b03168152602081019190915260400160009081205490036114b05780611484611eff565b6040516307461ff560e51b81526001600160a01b03928316600482015291166024820152604401610e72565b6114c1816114bc611eff565b6127d3565b50565b6040805160808101825260018054825260025460208301526003805460009461160f949392908401916114f690613db3565b80601f016020809104026020016040519081016040528092919081815260200182805461152290613db3565b801561156f5780601f106115445761010080835404028352916020019161156f565b820191906000526020600020905b81548152906001019060200180831161155257829003601f168201915b5050505050815260200160038201805461158890613db3565b80601f01602080910402602001604051908101604052809291908181526020018280546115b490613db3565b80156116015780601f106115d657610100808354040283529160200191611601565b820191906000526020600020905b8154815290600101906020018083116115e457829003601f168201915b505050505081525050612888565b905090565b60008060009054906101000a90046001600160a01b03166001600160a01b0316637da0a8776040518163ffffffff1660e01b8152600401602060405180830381865afa158015611668573d6000803e3d6000fd5b505050506040513d601f19601f8201168201806040525081019061160f9190613d25565b611699838361051f611eff565b6000036116a95782611484611eff565b610d288383836128c8565b600080546040805163d09edf3160e01b815290518593926001600160a01b03169163d09edf319160048083019260209291908290030181865afa1580156116ff573d6000803e3d6000fd5b505050506040513d601f19601f820116820180604052508101906117239190613d25565b60405163fdd5205f60e01b8152306004820152602481018490526001600160a01b03919091169063fdd5205f906044016020604051808303816000875af1158015611772573d6000803e3d6000fd5b505050506040513d601f19601f820116820180604052508101906117969190613d42565b90506117ec60008054906101000a90046001600160a01b03166001600160a01b031663d09edf316040518163ffffffff1660e01b8152600401602060405180830381865afa15801561071a573d6000803e3d6000fd5b60008054906101000a90046001600160a01b03166001600160a01b031663d09edf316040518163ffffffff1660e01b8152600401602060405180830381865afa15801561183d573d6000803e3d6000fd5b505050506040513d601f19601f820116820180604052508101906118619190613d25565b604051632e99be7f60e21b8152600481018690526001600160a01b038581166024830152919091169063ba66f9fc906044016110c7565b6000546040805163d09edf3160e01b815290516118e3926001600160a01b03169163d09edf319160048083019260209291908290030181865afa158015610c79573d6000803e3d6000fd5b6000196118f08383612b42565b036119215760405163ddc9eeaf60e01b81526001600160a01b03808416600483015282166024820152604401610e72565b610ee38282612c25565b6001600160a01b03808416600090815260396020908152604080832086851684528252808320938516835292815282822080548451818402810184019095528085529293849390928301828280156119a257602002820191906000526020600020905b81548152602001906001019080831161198e575b50505050509050600081519050806000036119c2576000925050506105db565b60005b81811015611a41576001600160a01b038088166000908152603a602090815260408083208a85168452825280832093891683529290529081208451909190859084908110611a1557611a15613e0f565b602002602001015181526020019081526020016000205484611a379190613e25565b93506001016119c5565b5050509392505050565b6000546001600160a01b03166342f6e389611a64611eff565b6040516001600160e01b031960e084901b1681526001600160a01b039091166004820152602401602060405180830381865afa158015611aa8573d6000803e3d6000fd5b505050506040513d601f19601f82011682018060405250810190611acc9190613ded565b611ae957604051633c9fdabb60e01b815260040160405180910390fd5b80806001600160a01b0316611afc611eff565b6001600160a01b031614611b23576040516305bc73ab60e51b815260040160405180910390fd5b6000826001600160a01b03166375fa0b766040518163ffffffff1660e01b8152600401600060405180830381865afa158015611b63573d6000803e3d6000fd5b505050506040513d6000823e601f3d908101601f19168201604052611b8b9190810190613f25565b511115610ee3576060806060846001600160a01b031663c0231ff66040518163ffffffff1660e01b81526004016000604051808303816000875af1158015611bd7573d6000803e3d6000fd5b505050506040513d6000823e601f3d908101601f19168201604052611bff9190810190613fc4565b9194509250905060005b8251811015611cdb57818181518110611c2457611c24613e0f565b6020026020010151838281518110611c3e57611c3e613e0f565b60209081029190910101516040516370a0823160e01b81526001600160a01b038981166004830152909116906370a0823190602401602060405180830381865afa158015611c90573d6000803e3d6000fd5b505050506040513d601f19601f82011682018060405250810190611cb49190613d42565b1015611cd35760405163189db84f60e31b815260040160405180910390fd5b600101611c09565b506000806000806000806000808a51905060005b81811015611ea1578b8181518110611d0957611d09613e0f565b60200260200101516000015198508b8181518110611d2957611d29613e0f565b6020026020010151602001519750603760008f6001600160a01b03166001600160a01b0316815260200190815260200160002060008a6001600160a01b03166001600160a01b03168152602001908152602001600020546001611d8c9190613e25565b96508b8181518110611da057611da0613e0f565b60200260200101516040015195508b8181518110611dc057611dc0613e0f565b60200260200101516060015194508b8181518110611de057611de0613e0f565b60200260200101516080015193508b8181518110611e0057611e00613e0f565b602002602001015160a001519250611e1e8e8a8a8a8a8a8a8a612d27565b876001600160a01b0316896001600160a01b03168f6001600160a01b03167fea1c63d513acfb910919dd0a23c98b1ee90a56f1fcf16c8774f6eb4819a8845c8a8a8a8a8a604051611e91959493929190948552602085019390935260408401919091526060830152608082015260a00190565b60405180910390a4600101611cef565b5050505050505050505050505050565b6000611ebf85858585612fe5565b90505b949350505050565b60006001600160e01b0319821663179dfb4560e01b148061058957506301ffc9a760e01b6001600160e01b0319831614610589565b6000366014611f0d33610d3f565b8015611f195750808210155b15611f4957600036611f2b8385613d12565b611f369282906140a0565b611f3f916140ca565b60601c9250505090565b339250505090565b60008054906101000a90046001600160a01b03166001600160a01b031663d09edf316040518163ffffffff1660e01b8152600401602060405180830381865afa158015611fa2573d6000803e3d6000fd5b505050506040513d601f19601f82011682018060405250810190611fc69190613d25565b604051632474521560e21b8152600481018490526001600160a01b03838116602483015291909116906391d1485490604401602060405180830381865afa158015612015573d6000803e3d6000fd5b505050506040513d601f19601f820116820180604052508101906120399190613ded565b610ee3576040516342abbb7760e01b8152600481018390526001600160a01b0382166024820152604401610e72565b61207061308e565b6001600160a01b03821661209757604051637280679360e01b815260040160405180910390fd5b600080546001600160a01b0319166001600160a01b0384161790556120bb816130de565b6120d857604051637511254160e01b815260040160405180910390fd5b80516001908155602082015160025560408201518291906003906120fc9082614145565b50606082015160038201906121119082614145565b50505060608101516040516121269190614205565b604080519182900382208351602080860151918552840152916001600160a01b038516917feb175f148a71d29a5f7bf5439182fcd81e6ea9cfc8a11b54ab0f705fa98fa8ca910160405180910390a35050565b600061218684848461058f565b6001600160a01b03808616600090815260386020908152604080832093881683529281528282208683529052908120600301805492935083929091906121cd908490613e25565b90915550506001600160a01b0384811660008181526038602090815260408083208886168085529083528184208885528352818420548251602481019690965260448601919091526064808601889052825180870390910181526084909501825291840180516001600160e01b03166323b872dd60e01b1790525193169290918291849161225a91614205565b6000604051808303816000865af19150503d8060008114612297576040519150601f19603f3d011682016040523d82523d6000602084013e61229c565b606091505b50915091508180156122c65750805115806122c65750808060200190518101906122c69190613ded565b1561237f57826001600160a01b0316866001600160a01b03167f3737f2a73c794dafe53d8aeea06810a9ebcf7167401b259406960e088e03f8308660405161231091815260200190565b60405180910390a3604051631667d8c360e31b81526001600160a01b0384811660048301526024820186905288169063b33ec61890604401600060405180830381600087803b15801561236257600080fd5b505af1158015612376573d6000803e3d6000fd5b5050505061252c565b604080516001600160a01b038881168252858116602083015291810187905260608101869052908816907f1233c88a83985cb9ecaf0cf1184c00ad4457d9bb5068bd5eae2ff26dc83e2a829060800160405180910390a26001600160a01b03808816600090815260396020908152604080832087851684528252808320938a1683529281528282208054845181840281018401909552808552929392909183018282801561244c57602002820191906000526020600020905b815481526020019060010190808311612438575b505050505090506000805b82518110156124915782818151811061247257612472613e0f565b602002602001015188036124895760019150612491565b600101612457565b50806124db576001600160a01b03808a16600090815260396020908152604080832089851684528252808320938c1683529281529181208054600181018255908252919020018790555b6001600160a01b03808a166000908152603a6020908152604080832089851684528252808320938c1683529281528282208a835290529081208054889290612524908490613e25565b909155505050505b6001600160a01b038088166000908152603860209081526040808320938a16835292815282822088835290522060060154421061256e5761256e878787612577565b50505050505050565b612582838383613130565b6001600160a01b038381166000818152603860209081526040808320948716808452948252808320868452825280832080546001600160a01b03191681556001810184905560028101849055600381018490556004810184905560058101849055600601839055928252603c815282822093825292909252812054900361260d5761260d8383613315565b816001600160a01b0316836001600160a01b03167fe6a0687ee789528abb9aac335f8b10067233039efce66e64f52a6bd3fad134c58360405161265291815260200190565b60405180910390a3505050565b6001600160a01b038084166000908152603c60209081526040808320938616835292815282822080548451818402810184019095528085529293849390928301828280156126cc57602002820191906000526020600020905b8154815260200190600101908083116126b8575b505083519394506000925050505b8181101561271457848382815181106126f5576126f5613e0f565b60200260200101510361270c5792506105db915050565b6001016126da565b506000199695505050505050565b6001600160a01b0381166000908152603b602090815260408083208054825181850281018501909352808352919290919083018282801561278c57602002820191906000526020600020905b81546001600160a01b0316815260019091019060200180831161276e575b505083519394506000925050505b818110156127cd576127c5848483815181106127b8576127b8613e0f565b6020026020010151612c25565b60010161279a565b50505050565b6001600160a01b038083166000908152603c6020908152604080832093851683529281528282208054845181840281018401909552808552929392909183018282801561283f57602002820191906000526020600020905b81548152602001906001019080831161282b575b505083519394506000925050505b8181101561288157612879858585848151811061286c5761286c613e0f565b6020026020010151612179565b60010161284d565b5050505050565b60008160000151826040015183606001516040516020016128ab93929190614221565b604051602081830303815290604052805190602001209050919050565b6000806128d3611eff565b6001600160a01b038087166000908152603960209081526040808320898516845282528083209385168352928152828220805484518184028101840190955280855294955091939083018282801561294a57602002820191906000526020600020905b815481526020019060010190808311612936575b505083519394506000925050505b81811015612a3a576001600160a01b038089166000908152603a602090815260408083208b851684528252808320938816835292905290812084519091908590849081106129a8576129a8613e0f565b6020026020010151815260200190815260200160002054856129ca9190613e25565b6001600160a01b03808a166000908152603a602090815260408083208c8516845282528083209389168352929052908120855192975091859084908110612a1357612a13613e0f565b60200260200101518152602001908152602001600020600090558080600101915050612958565b506001600160a01b0380881660009081526039602090815260408083208a8516845282528083209387168352929052908120612a75916137c6565b612a8a6001600160a01b038716888787613438565b856001600160a01b0316856001600160a01b03167f3737f2a73c794dafe53d8aeea06810a9ebcf7167401b259406960e088e03f83086604051612acf91815260200190565b60405180910390a3604051631667d8c360e31b81526001600160a01b0387811660048301526024820186905288169063b33ec61890604401600060405180830381600087803b158015612b2157600080fd5b505af1158015612b35573d6000803e3d6000fd5b5050505050505050505050565b6001600160a01b0382166000908152603b6020908152604080832080548251818502810185019093528083528493830182828015612ba957602002820191906000526020600020905b81546001600160a01b03168152600190910190602001808311612b8b575b5050506001600160a01b0387166000908152603b60205260408120549394509150505b81811015612c1857846001600160a01b0316838281518110612bf057612bf0613e0f565b60200260200101516001600160a01b031603612c10579250610589915050565b600101612bcc565b5060001995945050505050565b6001600160a01b038083166000908152603c60209081526040808320938516835292815282822080548451818402810184019095528085529293929091830182828015612c9157602002820191906000526020600020905b815481526020019060010190808311612c7d575b505050505090506000815190506000805b82821015612d1f57838281518110612cbc57612cbc613e0f565b60200260200101519050612cd1868683612179565b6001600160a01b038087166000908152603860209081526040808320938916835292815282822084835290522060060154421015612d1457612d14868683612577565b816001019150612ca2565b505050505050565b6001600160a01b038089166000908152603760209081526040808320938b1683529290529081208054909190612d5c9061424c565b90915550612d6987613492565b1580612d73575083155b80612d865750612d848383836135dd565b155b80612d975750612d9586613602565b155b15612df9576040805185815260208101859052908101839052606081018290526001600160a01b0380881691908916907f582c2b5b35eed32875449ab111488ccfa20c84f2e19de5c01d74ef20afac68959060800160405180910390a3610b8f565b6040518060e00160405280876001600160a01b031681526020018681526020018581526020016000815260200184815260200183815260200182815250603860008a6001600160a01b03166001600160a01b031681526020019081526020016000206000896001600160a01b03166001600160a01b03168152602001908152602001600020600087815260200190815260200160002060008201518160000160006101000a8154816001600160a01b0302191690836001600160a01b031602179055506020820151816001015560408201518160020155606082015181600301556080820151816004015560a0820151816005015560c08201518160060155905050600019612f088989612b42565b03612f4c576001600160a01b038881166000908152603b602090815260408220805460018101825590835291200180546001600160a01b0319169189169190911790555b6001600160a01b038881166000818152603c602090815260408083208c86168085529083528184208054600181018255908552938390209093018a905580518a815291820189905281018790526060810186905260808101859052928916929091907f84837fd0db980d123add5802f72b60537592dccedc5fecb06d671aaeb50874d69060a00160405180910390a45050505050505050565b6001600160a01b03848116600090815260386020908152604080832093871683529281528282208583529052908120600281015460048201546006830154600590930154919290916130379083613e25565b85101561304a5760009350505050611ec2565b80851061305c57829350505050611ec2565b6130668282613d12565b6130708387613d12565b61307a9085614265565b613084919061427c565b9350505050611ec2565b7ff0c57e16840df040f15088dc2f81fe391c3923bec73e23a9662efc9c229c6a005468010000000000000000900460ff166130dc57604051631afcd79f60e31b815260040160405180910390fd5b565b60008160400151516000036130f557506000919050565b81606001515160000361310a57506000919050565b815115801561311b57506020820151155b1561312857506000919050565b506001919050565b600061313d84848461265f565b905060001981036131845783613151611eff565b6040516332c595cd60e21b81526001600160a01b0392831660048201529116602482015260448101839052606401610e72565b6001600160a01b038481166000908152603860209081526040808320878516845282528083208684529091528120805460038201546002909201549316926131cc9190613d12565b9050801561323757604051631667d8c360e31b81526001600160a01b0383811660048301526024820183905287169063b33ec61890604401600060405180830381600087803b15801561321e57600080fd5b505af1158015613232573d6000803e3d6000fd5b505050505b6001600160a01b038681166000908152603c60209081526040808320938916835292905220805461326a90600190613d12565b8154811061327a5761327a613e0f565b60009182526020808320909101546001600160a01b03808a168452603c83526040808520918a168552925291208054859081106132b9576132b9613e0f565b60009182526020808320909101929092556001600160a01b038089168252603c8352604080832091891683529252208054806132f7576132f761429e565b60019003818190600052602060002001600090559055505050505050565b60006133218383612b42565b905060001981036133585760405163ddc9eeaf60e01b81526001600160a01b03808516600483015283166024820152604401610e72565b6001600160a01b0383166000908152603b6020526040902080549061337e600183613d12565b8154811061338e5761338e613e0f565b60009182526020808320909101546001600160a01b038781168452603b90925260409092208054919092169190849081106133cb576133cb613e0f565b600091825260208083209190910180546001600160a01b0319166001600160a01b039485161790559186168152603b909152604090208054806134105761341061429e565b600082815260209020810160001990810180546001600160a01b031916905501905550505050565b604080516001600160a01b0385811660248301528416604482015260648082018490528251808303909101815260849091019091526020810180516001600160e01b03166323b872dd60e01b1790526127cd90859061365c565b60006001600160a01b03821615806134c257506134ad611eff565b6001600160a01b0316826001600160a01b0316145b806134d557506001600160a01b03821630145b806134ed57506000546001600160a01b038381169116145b806135d657506000546001600160a01b03166001600160a01b03166304baed9e6040518163ffffffff1660e01b8152600401602060405180830381865afa15801561353c573d6000803e3d6000fd5b505050506040513d601f19601f820116820180604052508101906135609190613d25565b6001600160a01b031663fc0c546a6040518163ffffffff1660e01b8152600401602060405180830381865afa15801561359d573d6000803e3d6000fd5b505050506040513d601f19601f820116820180604052508101906135c19190613d25565b6001600160a01b0316826001600160a01b0316145b1592915050565b600060001984101580156135f95750816135f78486613e25565b115b15949350505050565b60006001600160a01b0382161580613632575061361d611eff565b6001600160a01b0316826001600160a01b0316145b8061364557506001600160a01b03821630145b806135d657506000546001600160a01b03166135c1565b60006136716001600160a01b038416836136bf565b905080516000141580156136965750808060200190518101906136949190613ded565b155b15610d2857604051635274afe760e01b81526001600160a01b0384166004820152602401610e72565b60606105db8383600084600080856001600160a01b031684866040516136e59190614205565b60006040518083038185875af1925050503d8060008114613722576040519150601f19603f3d011682016040523d82523d6000602084013e613727565b606091505b5091509150613737868383613741565b9695505050505050565b606082613756576137518261379d565b6105db565b815115801561376d57506001600160a01b0384163b155b1561379657604051639996b31560e01b81526001600160a01b0385166004820152602401610e72565b50806105db565b8051156137ad5780518082602001fd5b604051630a12f52160e11b815260040160405180910390fd5b50805460008255906000526020600020908101906114c191905b808211156137f457600081556001016137e0565b5090565b60006020828403121561380a57600080fd5b81356001600160e01b0319811681146105db57600080fd5b6001600160a01b03811681146114c157600080fd5b60008060006060848603121561384c57600080fd5b833561385781613822565b9250602084013561386781613822565b929592945050506040919091013590565b60008060006040848603121561388d57600080fd5b83359250602084013567ffffffffffffffff808211156138ac57600080fd5b818601915086601f8301126138c057600080fd5b8135818111156138cf57600080fd5b8760208260051b85010111156138e457600080fd5b6020830194508093505050509250925092565b6000806040838503121561390a57600080fd5b823561391581613822565b9150602083013561392581613822565b809150509250929050565b634e487b7160e01b600052604160045260246000fd5b6040516080810167ffffffffffffffff8111828210171561396957613969613930565b60405290565b60405160c0810167ffffffffffffffff8111828210171561396957613969613930565b604051601f8201601f1916810167ffffffffffffffff811182821017156139bb576139bb613930565b604052919050565b600082601f8301126139d457600080fd5b813567ffffffffffffffff8111156139ee576139ee613930565b613a01601f8201601f1916602001613992565b818152846020838601011115613a1657600080fd5b816020850160208301376000918101602001919091529392505050565b600080600060608486031215613a4857600080fd5b8335613a5381613822565b9250602084013567ffffffffffffffff80821115613a7057600080fd5b9085019060808288031215613a8457600080fd5b613a8c613946565b8235815260208301356020820152604083013582811115613aac57600080fd5b613ab8898286016139c3565b604083015250606083013582811115613ad057600080fd5b613adc898286016139c3565b60608301525093506040860135915080821115613af857600080fd5b50613b05868287016139c3565b9150509250925092565b60005b83811015613b2a578181015183820152602001613b12565b50506000910152565b60008151808452613b4b816020860160208601613b0f565b601f01601f19169290920160200192915050565b6020815260006105db6020830184613b33565b600060208284031215613b8457600080fd5b81356105db81613822565b60008060408385031215613ba257600080fd5b8235613bad81613822565b946020939093013593505050565b60008060408385031215613bce57600080fd5b82359150602083013561392581613822565b602080825282518282018190526000919060409081850190868401855b82811015613c5e57815180516001600160a01b0316855286810151878601528581015186860152606080820151908601526080808201519086015260a0808201519086015260c0908101519085015260e09093019290850190600101613bfd565b5091979650505050505050565b600080600060608486031215613c8057600080fd5b8335613c8b81613822565b92506020840135613c9b81613822565b91506040840135613cab81613822565b809150509250925092565b60008060008060808587031215613ccc57600080fd5b8435613cd781613822565b93506020850135613ce781613822565b93969395505050506040820135916060013590565b634e487b7160e01b600052601160045260246000fd5b8181038181111561058957610589613cfc565b600060208284031215613d3757600080fd5b81516105db81613822565b600060208284031215613d5457600080fd5b5051919050565b83815260406020808301829052908201839052600090849060608401835b86811015613da7578335613d8c81613822565b6001600160a01b031682529282019290820190600101613d79565b50979650505050505050565b600181811c90821680613dc757607f821691505b602082108103613de757634e487b7160e01b600052602260045260246000fd5b50919050565b600060208284031215613dff57600080fd5b815180151581146105db57600080fd5b634e487b7160e01b600052603260045260246000fd5b8082018082111561058957610589613cfc565b600067ffffffffffffffff821115613e5257613e52613930565b5060051b60200190565b600082601f830112613e6d57600080fd5b81516020613e82613e7d83613e38565b613992565b82815260c09283028501820192828201919087851115613ea157600080fd5b8387015b85811015613f185781818a031215613ebd5760008081fd5b613ec561396f565b8151613ed081613822565b815281860151613edf81613822565b8187015260408281015190820152606080830151908201526080808301519082015260a080830151908201528452928401928101613ea5565b5090979650505050505050565b600060208284031215613f3757600080fd5b815167ffffffffffffffff811115613f4e57600080fd5b611ec284828501613e5c565b600082601f830112613f6b57600080fd5b81516020613f7b613e7d83613e38565b8083825260208201915060208460051b870101935086841115613f9d57600080fd5b602086015b84811015613fb95780518352918301918301613fa2565b509695505050505050565b600080600060608486031215613fd957600080fd5b835167ffffffffffffffff80821115613ff157600080fd5b613ffd87838801613e5c565b945060209150818601518181111561401457600080fd5b8601601f8101881361402557600080fd5b8051614033613e7d82613e38565b81815260059190911b8201840190848101908a83111561405257600080fd5b928501925b8284101561407957835161406a81613822565b82529285019290850190614057565b60408a015190975094505050508082111561409357600080fd5b50613b0586828701613f5a565b600080858511156140b057600080fd5b838611156140bd57600080fd5b5050820193919092039150565b6bffffffffffffffffffffffff19813581811691601485101561134f5760149490940360031b84901b1690921692915050565b601f821115610d28576000816000526020600020601f850160051c810160208610156141265750805b601f850160051c820191505b81811015612d1f57828155600101614132565b815167ffffffffffffffff81111561415f5761415f613930565b6141738161416d8454613db3565b846140fd565b602080601f8311600181146141a857600084156141905750858301515b600019600386901b1c1916600185901b178555612d1f565b600085815260208120601f198616915b828110156141d7578886015182559484019460019091019084016141b8565b50858210156141f55787850151600019600388901b60f8161c191681555b5050505050600190811b01905550565b60008251614217818460208701613b0f565b9190910192915050565b83815260606020820152600061423a6060830185613b33565b82810360408401526137378185613b33565b60006001820161425e5761425e613cfc565b5060010190565b808202811582820484141761058957610589613cfc565b60008261429957634e487b7160e01b600052601260045260246000fd5b500490565b634e487b7160e01b600052603160045260246000fdfea26469706673582212203cdf69b946ea05c1febd0f6a52f9f1634feea12602151475c990fc406fbc93f664736f6c63430008170033",
    "linkReferences": {}
  },
  "methodIdentifiers": {
    "cancelRunningPayments(address)": "73d7764e",
    "claimAll(address)": "77329f35",
    "claimForSpecificStream(address,uint256)": "5eeede4d",
    "claimPreviouslyUnclaimable(address,address,address)": "81ac0367",
    "cliffForSpecificStream(address,address,uint256)": "cbe58ee2",
    "endForSpecificStream(address,address,uint256)": "4e6c76ae",
    "grantModuleRole(bytes32,address)": "6c67e807",
    "grantModuleRoleBatched(bytes32,address[])": "272bbd44",
    "identifier()": "7998a1c4",
    "init(address,(uint256,uint256,string,string),bytes)": "42dfe958",
    "isActivePaymentReceiver(address,address)": "410810cd",
    "isTrustedForwarder(address)": "572b6c05",
    "numStreams(address,address)": "5c9a6f5f",
    "orchestrator()": "b74795d9",
    "processPayments(address)": "e151fc61",
    "releasableForSpecificStream(address,address,uint256)": "1f2ac744",
    "releasedForSpecificStream(address,address,uint256)": "9e174994",
    "removeAllPaymentReceiverPayments(address,address)": "cb8e092f",
    "removePaymentForSpecificStream(address,address,uint256)": "54498314",
    "revokeModuleRole(bytes32,address)": "bcb61920",
    "revokeModuleRoleBatched(bytes32,address[])": "24e30270",
    "startForSpecificStream(address,address,uint256)": "c0893302",
    "streamedAmountForSpecificStream(address,address,uint256,uint256)": "f4a192b3",
    "supportsInterface(bytes4)": "01ffc9a7",
    "title()": "4a79d50c",
    "trustedForwarder()": "7da0a877",
    "unclaimable(address,address,address)": "ceb43f54",
    "url()": "5600f04f",
    "version()": "54fd4d50",
    "viewAllPaymentOrders(address,address)": "738e19a3"
  },
  "id": 164
}