{
  "abi": [
    {
      "type": "function",
      "name": "cancelRunningPayments",
      "inputs": [
        {
          "name": "client",
          "type": "address",
          "internalType": "contract IERC20PaymentClientBase_v1"
        }
      ],
      "outputs": [],
      "stateMutability": "nonpayable"
    },
    {
      "type": "function",
      "name": "claimAll",
      "inputs": [
        {
          "name": "client",
          "type": "address",
          "internalType": "address"
        }
      ],
      "outputs": [],
      "stateMutability": "nonpayable"
    },
    {
      "type": "function",
      "name": "claimForSpecificStream",
      "inputs": [
        {
          "name": "client",
          "type": "address",
          "internalType": "address"
        },
        {
          "name": "streamId",
          "type": "uint256",
          "internalType": "uint256"
        }
      ],
      "outputs": [],
      "stateMutability": "nonpayable"
    },
    {
      "type": "function",
      "name": "claimPreviouslyUnclaimable",
      "inputs": [
        {
          "name": "client",
          "type": "address",
          "internalType": "address"
        },
        {
          "name": "token",
          "type": "address",
          "internalType": "address"
        },
        {
          "name": "receiver",
          "type": "address",
          "internalType": "address"
        }
      ],
      "outputs": [],
      "stateMutability": "nonpayable"
    },
    {
      "type": "function",
      "name": "cliffForSpecificStream",
      "inputs": [
        {
          "name": "client",
          "type": "address",
          "internalType": "address"
        },
        {
          "name": "paymentReceiver",
          "type": "address",
          "internalType": "address"
        },
        {
          "name": "streamId",
          "type": "uint256",
          "internalType": "uint256"
        }
      ],
      "outputs": [
        {
          "name": "",
          "type": "uint256",
          "internalType": "uint256"
        }
      ],
      "stateMutability": "view"
    },
    {
      "type": "function",
      "name": "endForSpecificStream",
      "inputs": [
        {
          "name": "client",
          "type": "address",
          "internalType": "address"
        },
        {
          "name": "paymentReceiver",
          "type": "address",
          "internalType": "address"
        },
        {
          "name": "streamId",
          "type": "uint256",
          "internalType": "uint256"
        }
      ],
      "outputs": [
        {
          "name": "",
          "type": "uint256",
          "internalType": "uint256"
        }
      ],
      "stateMutability": "view"
    },
    {
      "type": "function",
      "name": "grantModuleRole",
      "inputs": [
        {
          "name": "role",
          "type": "bytes32",
          "internalType": "bytes32"
        },
        {
          "name": "target",
          "type": "address",
          "internalType": "address"
        }
      ],
      "outputs": [],
      "stateMutability": "nonpayable"
    },
    {
      "type": "function",
      "name": "grantModuleRoleBatched",
      "inputs": [
        {
          "name": "role",
          "type": "bytes32",
          "internalType": "bytes32"
        },
        {
          "name": "targets",
          "type": "address[]",
          "internalType": "address[]"
        }
      ],
      "outputs": [],
      "stateMutability": "nonpayable"
    },
    {
      "type": "function",
      "name": "identifier",
      "inputs": [],
      "outputs": [
        {
          "name": "",
          "type": "bytes32",
          "internalType": "bytes32"
        }
      ],
      "stateMutability": "view"
    },
    {
      "type": "function",
      "name": "init",
      "inputs": [
        {
          "name": "orchestrator_",
          "type": "address",
          "internalType": "contract IOrchestrator_v1"
        },
        {
          "name": "metadata",
          "type": "tuple",
          "internalType": "struct IModule_v1.Metadata",
          "components": [
            {
              "name": "majorVersion",
              "type": "uint256",
              "internalType": "uint256"
            },
            {
              "name": "minorVersion",
              "type": "uint256",
              "internalType": "uint256"
            },
            {
              "name": "patchVersion",
              "type": "uint256",
              "internalType": "uint256"
            },
            {
              "name": "url",
              "type": "string",
              "internalType": "string"
            },
            {
              "name": "title",
              "type": "string",
              "internalType": "string"
            }
          ]
        },
        {
          "name": "",
          "type": "bytes",
          "internalType": "bytes"
        }
      ],
      "outputs": [],
      "stateMutability": "nonpayable"
    },
    {
      "type": "function",
      "name": "isActivePaymentReceiver",
      "inputs": [
        {
          "name": "client",
          "type": "address",
          "internalType": "address"
        },
        {
          "name": "paymentReceiver",
          "type": "address",
          "internalType": "address"
        }
      ],
      "outputs": [
        {
          "name": "",
          "type": "bool",
          "internalType": "bool"
        }
      ],
      "stateMutability": "view"
    },
    {
      "type": "function",
      "name": "isTrustedForwarder",
      "inputs": [
        {
          "name": "forwarder",
          "type": "address",
          "internalType": "address"
        }
      ],
      "outputs": [
        {
          "name": "",
          "type": "bool",
          "internalType": "bool"
        }
      ],
      "stateMutability": "view"
    },
    {
      "type": "function",
      "name": "numStreams",
      "inputs": [
        {
          "name": "",
          "type": "address",
          "internalType": "address"
        },
        {
          "name": "",
          "type": "address",
          "internalType": "address"
        }
      ],
      "outputs": [
        {
          "name": "",
          "type": "uint256",
          "internalType": "uint256"
        }
      ],
      "stateMutability": "view"
    },
    {
      "type": "function",
      "name": "orchestrator",
      "inputs": [],
      "outputs": [
        {
          "name": "",
          "type": "address",
          "internalType": "contract IOrchestrator_v1"
        }
      ],
      "stateMutability": "view"
    },
    {
      "type": "function",
      "name": "processPayments",
      "inputs": [
        {
          "name": "client",
          "type": "address",
          "internalType": "contract IERC20PaymentClientBase_v1"
        }
      ],
      "outputs": [],
      "stateMutability": "nonpayable"
    },
    {
      "type": "function",
      "name": "releasableForSpecificStream",
      "inputs": [
        {
          "name": "client",
          "type": "address",
          "internalType": "address"
        },
        {
          "name": "paymentReceiver",
          "type": "address",
          "internalType": "address"
        },
        {
          "name": "streamId",
          "type": "uint256",
          "internalType": "uint256"
        }
      ],
      "outputs": [
        {
          "name": "",
          "type": "uint256",
          "internalType": "uint256"
        }
      ],
      "stateMutability": "view"
    },
    {
      "type": "function",
      "name": "releasedForSpecificStream",
      "inputs": [
        {
          "name": "client",
          "type": "address",
          "internalType": "address"
        },
        {
          "name": "paymentReceiver",
          "type": "address",
          "internalType": "address"
        },
        {
          "name": "streamId",
          "type": "uint256",
          "internalType": "uint256"
        }
      ],
      "outputs": [
        {
          "name": "",
          "type": "uint256",
          "internalType": "uint256"
        }
      ],
      "stateMutability": "view"
    },
    {
      "type": "function",
      "name": "removeAllPaymentReceiverPayments",
      "inputs": [
        {
          "name": "client",
          "type": "address",
          "internalType": "address"
        },
        {
          "name": "paymentReceiver",
          "type": "address",
          "internalType": "address"
        }
      ],
      "outputs": [],
      "stateMutability": "nonpayable"
    },
    {
      "type": "function",
      "name": "removePaymentForSpecificStream",
      "inputs": [
        {
          "name": "client",
          "type": "address",
          "internalType": "address"
        },
        {
          "name": "paymentReceiver",
          "type": "address",
          "internalType": "address"
        },
        {
          "name": "streamId",
          "type": "uint256",
          "internalType": "uint256"
        }
      ],
      "outputs": [],
      "stateMutability": "nonpayable"
    },
    {
      "type": "function",
      "name": "revokeModuleRole",
      "inputs": [
        {
          "name": "role",
          "type": "bytes32",
          "internalType": "bytes32"
        },
        {
          "name": "target",
          "type": "address",
          "internalType": "address"
        }
      ],
      "outputs": [],
      "stateMutability": "nonpayable"
    },
    {
      "type": "function",
      "name": "revokeModuleRoleBatched",
      "inputs": [
        {
          "name": "role",
          "type": "bytes32",
          "internalType": "bytes32"
        },
        {
          "name": "targets",
          "type": "address[]",
          "internalType": "address[]"
        }
      ],
      "outputs": [],
      "stateMutability": "nonpayable"
    },
    {
      "type": "function",
      "name": "startForSpecificStream",
      "inputs": [
        {
          "name": "client",
          "type": "address",
          "internalType": "address"
        },
        {
          "name": "paymentReceiver",
          "type": "address",
          "internalType": "address"
        },
        {
          "name": "streamId",
          "type": "uint256",
          "internalType": "uint256"
        }
      ],
      "outputs": [
        {
          "name": "",
          "type": "uint256",
          "internalType": "uint256"
        }
      ],
      "stateMutability": "view"
    },
    {
      "type": "function",
      "name": "streamedAmountForSpecificStream",
      "inputs": [
        {
          "name": "client",
          "type": "address",
          "internalType": "address"
        },
        {
          "name": "paymentReceiver",
          "type": "address",
          "internalType": "address"
        },
        {
          "name": "streamId",
          "type": "uint256",
          "internalType": "uint256"
        },
        {
          "name": "timestamp",
          "type": "uint256",
          "internalType": "uint256"
        }
      ],
      "outputs": [
        {
          "name": "",
          "type": "uint256",
          "internalType": "uint256"
        }
      ],
      "stateMutability": "view"
    },
    {
      "type": "function",
      "name": "supportsInterface",
      "inputs": [
        {
          "name": "interfaceId",
          "type": "bytes4",
          "internalType": "bytes4"
        }
      ],
      "outputs": [
        {
          "name": "",
          "type": "bool",
          "internalType": "bool"
        }
      ],
      "stateMutability": "view"
    },
    {
      "type": "function",
      "name": "title",
      "inputs": [],
      "outputs": [
        {
          "name": "",
          "type": "string",
          "internalType": "string"
        }
      ],
      "stateMutability": "view"
    },
    {
      "type": "function",
      "name": "trustedForwarder",
      "inputs": [],
      "outputs": [
        {
          "name": "",
          "type": "address",
          "internalType": "address"
        }
      ],
      "stateMutability": "view"
    },
    {
      "type": "function",
      "name": "unclaimable",
      "inputs": [
        {
          "name": "client",
          "type": "address",
          "internalType": "address"
        },
        {
          "name": "token",
          "type": "address",
          "internalType": "address"
        },
        {
          "name": "paymentReceiver",
          "type": "address",
          "internalType": "address"
        }
      ],
      "outputs": [
        {
          "name": "amount",
          "type": "uint256",
          "internalType": "uint256"
        }
      ],
      "stateMutability": "view"
    },
    {
      "type": "function",
      "name": "url",
      "inputs": [],
      "outputs": [
        {
          "name": "",
          "type": "string",
          "internalType": "string"
        }
      ],
      "stateMutability": "view"
    },
    {
      "type": "function",
      "name": "validPaymentOrder",
      "inputs": [
        {
          "name": "order",
          "type": "tuple",
          "internalType": "struct IERC20PaymentClientBase_v1.PaymentOrder",
          "components": [
            {
              "name": "recipient",
              "type": "address",
              "internalType": "address"
            },
            {
              "name": "paymentToken",
              "type": "address",
              "internalType": "address"
            },
            {
              "name": "amount",
              "type": "uint256",
              "internalType": "uint256"
            },
            {
              "name": "start",
              "type": "uint256",
              "internalType": "uint256"
            },
            {
              "name": "cliff",
              "type": "uint256",
              "internalType": "uint256"
            },
            {
              "name": "end",
              "type": "uint256",
              "internalType": "uint256"
            }
          ]
        }
      ],
      "outputs": [
        {
          "name": "",
          "type": "bool",
          "internalType": "bool"
        }
      ],
      "stateMutability": "nonpayable"
    },
    {
      "type": "function",
      "name": "version",
      "inputs": [],
      "outputs": [
        {
          "name": "",
          "type": "uint256",
          "internalType": "uint256"
        },
        {
          "name": "",
          "type": "uint256",
          "internalType": "uint256"
        },
        {
          "name": "",
          "type": "uint256",
          "internalType": "uint256"
        }
      ],
      "stateMutability": "view"
    },
    {
      "type": "function",
      "name": "viewAllPaymentOrders",
      "inputs": [
        {
          "name": "client",
          "type": "address",
          "internalType": "address"
        },
        {
          "name": "paymentReceiver",
          "type": "address",
          "internalType": "address"
        }
      ],
      "outputs": [
        {
          "name": "",
          "type": "tuple[]",
          "internalType": "struct IPP_Streaming_v1.Stream[]",
          "components": [
            {
              "name": "_paymentToken",
              "type": "address",
              "internalType": "address"
            },
            {
              "name": "_streamId",
              "type": "uint256",
              "internalType": "uint256"
            },
            {
              "name": "_total",
              "type": "uint256",
              "internalType": "uint256"
            },
            {
              "name": "_released",
              "type": "uint256",
              "internalType": "uint256"
            },
            {
              "name": "_start",
              "type": "uint256",
              "internalType": "uint256"
            },
            {
              "name": "_cliff",
              "type": "uint256",
              "internalType": "uint256"
            },
            {
              "name": "_end",
              "type": "uint256",
              "internalType": "uint256"
            }
          ]
        }
      ],
      "stateMutability": "view"
    },
    {
      "type": "event",
      "name": "Initialized",
      "inputs": [
        {
          "name": "version",
          "type": "uint64",
          "indexed": false,
          "internalType": "uint64"
        }
      ],
      "anonymous": false
    },
    {
      "type": "event",
      "name": "InvalidStreamingOrderDiscarded",
      "inputs": [
        {
          "name": "recipient",
          "type": "address",
          "indexed": true,
          "internalType": "address"
        },
        {
          "name": "paymentToken",
          "type": "address",
          "indexed": true,
          "internalType": "address"
        },
        {
          "name": "amount",
          "type": "uint256",
          "indexed": false,
          "internalType": "uint256"
        },
        {
          "name": "start",
          "type": "uint256",
          "indexed": false,
          "internalType": "uint256"
        },
        {
          "name": "cliff",
          "type": "uint256",
          "indexed": false,
          "internalType": "uint256"
        },
        {
          "name": "end",
          "type": "uint256",
          "indexed": false,
          "internalType": "uint256"
        }
      ],
      "anonymous": false
    },
    {
      "type": "event",
      "name": "ModuleInitialized",
      "inputs": [
        {
          "name": "parentOrchestrator",
          "type": "address",
          "indexed": true,
          "internalType": "address"
        },
        {
          "name": "metadata",
          "type": "tuple",
          "indexed": false,
          "internalType": "struct IModule_v1.Metadata",
          "components": [
            {
              "name": "majorVersion",
              "type": "uint256",
              "internalType": "uint256"
            },
            {
              "name": "minorVersion",
              "type": "uint256",
              "internalType": "uint256"
            },
            {
              "name": "patchVersion",
              "type": "uint256",
              "internalType": "uint256"
            },
            {
              "name": "url",
              "type": "string",
              "internalType": "string"
            },
            {
              "name": "title",
              "type": "string",
              "internalType": "string"
            }
          ]
        }
      ],
      "anonymous": false
    },
    {
      "type": "event",
      "name": "PaymentOrderProcessed",
      "inputs": [
        {
          "name": "paymentClient",
          "type": "address",
          "indexed": true,
          "internalType": "address"
        },
        {
          "name": "recipient",
          "type": "address",
          "indexed": true,
          "internalType": "address"
        },
        {
          "name": "paymentToken",
          "type": "address",
          "indexed": true,
          "internalType": "address"
        },
        {
          "name": "amount",
          "type": "uint256",
          "indexed": false,
          "internalType": "uint256"
        },
        {
          "name": "start",
          "type": "uint256",
          "indexed": false,
          "internalType": "uint256"
        },
        {
          "name": "cliff",
          "type": "uint256",
          "indexed": false,
          "internalType": "uint256"
        },
        {
          "name": "end",
          "type": "uint256",
          "indexed": false,
          "internalType": "uint256"
        }
      ],
      "anonymous": false
    },
    {
      "type": "event",
      "name": "PaymentOrderProcessed",
      "inputs": [
        {
          "name": "paymentClient",
          "type": "address",
          "indexed": true,
          "internalType": "address"
        },
        {
          "name": "recipient",
          "type": "address",
          "indexed": true,
          "internalType": "address"
        },
        {
          "name": "paymentToken",
          "type": "address",
          "indexed": true,
          "internalType": "address"
        },
        {
          "name": "streamId",
          "type": "uint256",
          "indexed": false,
          "internalType": "uint256"
        },
        {
          "name": "amount",
          "type": "uint256",
          "indexed": false,
          "internalType": "uint256"
        },
        {
          "name": "start",
          "type": "uint256",
          "indexed": false,
          "internalType": "uint256"
        },
        {
          "name": "cliff",
          "type": "uint256",
          "indexed": false,
          "internalType": "uint256"
        },
        {
          "name": "end",
          "type": "uint256",
          "indexed": false,
          "internalType": "uint256"
        }
      ],
      "anonymous": false
    },
    {
      "type": "event",
      "name": "PaymentReceiverRemoved",
      "inputs": [
        {
          "name": "paymentClient",
          "type": "address",
          "indexed": true,
          "internalType": "address"
        },
        {
          "name": "paymentReceiver",
          "type": "address",
          "indexed": true,
          "internalType": "address"
        }
      ],
      "anonymous": false
    },
    {
      "type": "event",
      "name": "StreamingPaymentAdded",
      "inputs": [
        {
          "name": "paymentClient",
          "type": "address",
          "indexed": true,
          "internalType": "address"
        },
        {
          "name": "recipient",
          "type": "address",
          "indexed": true,
          "internalType": "address"
        },
        {
          "name": "paymentToken",
          "type": "address",
          "indexed": true,
          "internalType": "address"
        },
        {
          "name": "streamId",
          "type": "uint256",
          "indexed": false,
          "internalType": "uint256"
        },
        {
          "name": "amount",
          "type": "uint256",
          "indexed": false,
          "internalType": "uint256"
        },
        {
          "name": "start",
          "type": "uint256",
          "indexed": false,
          "internalType": "uint256"
        },
        {
          "name": "cliff",
          "type": "uint256",
          "indexed": false,
          "internalType": "uint256"
        },
        {
          "name": "end",
          "type": "uint256",
          "indexed": false,
          "internalType": "uint256"
        }
      ],
      "anonymous": false
    },
    {
      "type": "event",
      "name": "StreamingPaymentRemoved",
      "inputs": [
        {
          "name": "paymentClient",
          "type": "address",
          "indexed": true,
          "internalType": "address"
        },
        {
          "name": "recipient",
          "type": "address",
          "indexed": true,
          "internalType": "address"
        },
        {
          "name": "streamId",
          "type": "uint256",
          "indexed": false,
          "internalType": "uint256"
        }
      ],
      "anonymous": false
    },
    {
      "type": "event",
      "name": "TokensReleased",
      "inputs": [
        {
          "name": "recipient",
          "type": "address",
          "indexed": true,
          "internalType": "address"
        },
        {
          "name": "token",
          "type": "address",
          "indexed": true,
          "internalType": "address"
        },
        {
          "name": "amount",
          "type": "uint256",
          "indexed": false,
          "internalType": "uint256"
        }
      ],
      "anonymous": false
    },
    {
      "type": "event",
      "name": "UnclaimableAmountAdded",
      "inputs": [
        {
          "name": "paymentClient",
          "type": "address",
          "indexed": true,
          "internalType": "address"
        },
        {
          "name": "token",
          "type": "address",
          "indexed": true,
          "internalType": "address"
        },
        {
          "name": "recipient",
          "type": "address",
          "indexed": true,
          "internalType": "address"
        },
        {
          "name": "amount",
          "type": "uint256",
          "indexed": false,
          "internalType": "uint256"
        }
      ],
      "anonymous": false
    },
    {
      "type": "event",
      "name": "UnclaimableAmountAdded",
      "inputs": [
        {
          "name": "paymentClient",
          "type": "address",
          "indexed": true,
          "internalType": "address"
        },
        {
          "name": "recipient",
          "type": "address",
          "indexed": false,
          "internalType": "address"
        },
        {
          "name": "paymentToken",
          "type": "address",
          "indexed": false,
          "internalType": "address"
        },
        {
          "name": "streamId",
          "type": "uint256",
          "indexed": false,
          "internalType": "uint256"
        },
        {
          "name": "amount",
          "type": "uint256",
          "indexed": false,
          "internalType": "uint256"
        }
      ],
      "anonymous": false
    },
    {
      "type": "error",
      "name": "AddressEmptyCode",
      "inputs": [
        {
          "name": "target",
          "type": "address",
          "internalType": "address"
        }
      ]
    },
    {
      "type": "error",
      "name": "AddressInsufficientBalance",
      "inputs": [
        {
          "name": "account",
          "type": "address",
          "internalType": "address"
        }
      ]
    },
    {
      "type": "error",
      "name": "FailedInnerCall",
      "inputs": []
    },
    {
      "type": "error",
      "name": "InvalidInitialization",
      "inputs": []
    },
    {
      "type": "error",
      "name": "Module_OrchestratorCallbackFailed",
      "inputs": [
        {
          "name": "funcSig",
          "type": "string",
          "internalType": "string"
        }
      ]
    },
    {
      "type": "error",
      "name": "Module__CallerNotAuthorized",
      "inputs": [
        {
          "name": "role",
          "type": "bytes32",
          "internalType": "bytes32"
        },
        {
          "name": "caller",
          "type": "address",
          "internalType": "address"
        }
      ]
    },
    {
      "type": "error",
      "name": "Module__InvalidAddress",
      "inputs": []
    },
    {
      "type": "error",
      "name": "Module__InvalidMetadata",
      "inputs": []
    },
    {
      "type": "error",
      "name": "Module__InvalidOrchestratorAddress",
      "inputs": []
    },
    {
      "type": "error",
      "name": "Module__OnlyCallableByOrchestrator",
      "inputs": []
    },
    {
      "type": "error",
      "name": "Module__OnlyCallableByPaymentClient",
      "inputs": []
    },
    {
      "type": "error",
      "name": "Module__PP_Streaming__In_validPaymentReceiver",
      "inputs": [
        {
          "name": "paymentClient",
          "type": "address",
          "internalType": "address"
        },
        {
          "name": "paymentReceiver",
          "type": "address",
          "internalType": "address"
        }
      ]
    },
    {
      "type": "error",
      "name": "Module__PP_Streaming__InactiveStream",
      "inputs": [
        {
          "name": "paymentClient",
          "type": "address",
          "internalType": "address"
        },
        {
          "name": "paymentReceiver",
          "type": "address",
          "internalType": "address"
        },
        {
          "name": "streamId",
          "type": "uint256",
          "internalType": "uint256"
        }
      ]
    },
    {
      "type": "error",
      "name": "Module__PP_Streaming__InsufficientTokenBalanceInClient",
      "inputs": []
    },
    {
      "type": "error",
      "name": "Module__PP_Streaming__InvalidStream",
      "inputs": [
        {
          "name": "paymentClient",
          "type": "address",
          "internalType": "address"
        },
        {
          "name": "paymentReceiver",
          "type": "address",
          "internalType": "address"
        },
        {
          "name": "streamId",
          "type": "uint256",
          "internalType": "uint256"
        }
      ]
    },
    {
      "type": "error",
      "name": "Module__PaymentProcessor__CannotCallOnOtherClientsOrders",
      "inputs": []
    },
    {
      "type": "error",
      "name": "Module__PaymentProcessor__NothingToClaim",
      "inputs": [
        {
          "name": "paymentClient",
          "type": "address",
          "internalType": "address"
        },
        {
          "name": "paymentReceiver",
          "type": "address",
          "internalType": "address"
        }
      ]
    },
    {
      "type": "error",
      "name": "Module__PaymentProcessor__OnlyCallableByModule",
      "inputs": []
    },
    {
      "type": "error",
      "name": "NotInitializing",
      "inputs": []
    },
    {
      "type": "error",
      "name": "SafeERC20FailedOperation",
      "inputs": [
        {
          "name": "token",
          "type": "address",
          "internalType": "address"
        }
      ]
    }
  ],
  "bytecode": {
    "object": "0x60a06040523480156200001157600080fd5b5060006080526200002162000027565b620000db565b7ff0c57e16840df040f15088dc2f81fe391c3923bec73e23a9662efc9c229c6a00805468010000000000000000900460ff1615620000785760405163f92ee8a960e01b815260040160405180910390fd5b80546001600160401b0390811614620000d85780546001600160401b0319166001600160401b0390811782556040519081527fc7f505b2f371ae2175ee4913f4499e1f2633a7b5936321eed1cdaeb6115181d29060200160405180910390a15b50565b6080516143f4620000f4600039600050506143f46000f3fe608060405234801561001057600080fd5b50600436106101e55760003560e01c8063738e19a31161010f578063b74795d9116100a2578063cbe58ee211610071578063cbe58ee2146104f5578063ceb43f5414610538578063e151fc611461054b578063f4a192b31461055e57600080fd5b8063b74795d91461047b578063bcb619201461048c578063c08933021461049f578063cb8e092f146104e257600080fd5b80637da0a877116100de5780637da0a877146103f257806381ac0367146104125780639e17499414610425578063b66a870c1461046857600080fd5b8063738e19a3146103a457806373d7764e146103c457806377329f35146103d75780637998a1c4146103ea57600080fd5b80634e6c76ae11610187578063572b6c0511610156578063572b6c05146103405780635c9a6f5f146103535780635eeede4d1461037e5780636c67e8071461039157600080fd5b80634e6c76ae146102be578063544983141461030157806354fd4d50146103145780635600f04f1461033857600080fd5b806324e30270116101c357806324e3027014610246578063272bbd441461025b578063410810cd1461026e5780634a79d50c146102a957600080fd5b806301ffc9a7146101ea57806308fd683d146102125780631f2ac74414610225575b600080fd5b6101fd6101f836600461382a565b610571565b60405190151581526020015b60405180910390f35b6101fd6102203660046138fc565b6105b6565b61023861023336600461396a565b610606565b604051908152602001610209565b6102596102543660046139ab565b610659565b005b6102596102693660046139ab565b61090b565b6101fd61027c366004613a2a565b6001600160a01b039182166000908152603d60209081526040808320939094168252919091522054151590565b6102b1610ae5565b6040516102099190613ab3565b6102386102cc36600461396a565b6001600160a01b0392831660009081526039602090815260408083209490951682529283528381209181529152206006015490565b61025961030f36600461396a565b610b7a565b60015460025460035460408051938452602084019290925290820152606001610209565b6102b1610c79565b6101fd61034e366004613ac6565b610c8b565b610238610361366004613a2a565b603860209081526000928352604080842090915290825290205481565b61025961038c366004613ae3565b610cfa565b61025961039f366004613b0f565b610e33565b6103b76103b2366004613a2a565b611049565b6040516102099190613b34565b6102596103d2366004613ac6565b6112ab565b6102596103e5366004613ac6565b61138c565b610238611418565b6103fa611576565b6040516001600160a01b039091168152602001610209565b610259610420366004613bbf565b6115ee565b61023861043336600461396a565b6001600160a01b0392831660009081526039602090815260408083209490951682529283528381209181529152206003015490565b610259610476366004613c7a565b611616565b6000546001600160a01b03166103fa565b61025961049a366004613b0f565b61173c565b6102386104ad36600461396a565b6001600160a01b0392831660009081526039602090815260408083209490951682529283528381209181529152206004015490565b6102596104f0366004613a2a565b61191e565b61023861050336600461396a565b6001600160a01b0392831660009081526039602090815260408083209490951682529283528381209181529152206005015490565b610238610546366004613bbf565b6119b1565b610259610559366004613ac6565b611ad1565b61023861056c366004613d60565b611f2b565b60006001600160e01b0319821662b4011560e81b14806105a157506001600160e01b0319821663d563de2160e01b145b806105b057506105b082611f44565b92915050565b60006105c58260000151611f79565b80156105d45750604082015115155b80156105f257506105f2826060015183608001518460a001516120c4565b80156105b057506105b082602001516120db565b6001600160a01b038084166000908152603960209081526040808320938616835292815282822084835290529081206003015461064585858542611f2b565b61064f9190613dbc565b90505b9392505050565b600080546040805163d09edf3160e01b815290518693926001600160a01b03169163d09edf319160048083019260209291908290030181865afa1580156106a4573d6000803e3d6000fd5b505050506040513d601f19601f820116820180604052508101906106c89190613dcf565b60405163fdd5205f60e01b8152306004820152602481018490526001600160a01b03919091169063fdd5205f90604401602060405180830381865afa158015610715573d6000803e3d6000fd5b505050506040513d601f19601f820116820180604052508101906107399190613dec565b905061082e60008054906101000a90046001600160a01b03166001600160a01b031663d09edf316040518163ffffffff1660e01b8152600401602060405180830381865afa15801561078f573d6000803e3d6000fd5b505050506040513d601f19601f820116820180604052508101906107b39190613dcf565b6001600160a01b031663248a9ca3836040518263ffffffff1660e01b81526004016107e091815260200190565b602060405180830381865afa1580156107fd573d6000803e3d6000fd5b505050506040513d601f19601f820116820180604052508101906108219190613dec565b61082961219f565b6121f1565b60008054906101000a90046001600160a01b03166001600160a01b031663d09edf316040518163ffffffff1660e01b8152600401602060405180830381865afa15801561087f573d6000803e3d6000fd5b505050506040513d601f19601f820116820180604052508101906108a39190613dcf565b6001600160a01b0316637d540a648686866040518463ffffffff1660e01b81526004016108d293929190613e05565b600060405180830381600087803b1580156108ec57600080fd5b505af1158015610900573d6000803e3d6000fd5b505050505050505050565b600080546040805163d09edf3160e01b815290518693926001600160a01b03169163d09edf319160048083019260209291908290030181865afa158015610956573d6000803e3d6000fd5b505050506040513d601f19601f8201168201806040525081019061097a9190613dcf565b60405163fdd5205f60e01b8152306004820152602481018490526001600160a01b03919091169063fdd5205f90604401602060405180830381865afa1580156109c7573d6000803e3d6000fd5b505050506040513d601f19601f820116820180604052508101906109eb9190613dec565b9050610a4160008054906101000a90046001600160a01b03166001600160a01b031663d09edf316040518163ffffffff1660e01b8152600401602060405180830381865afa15801561078f573d6000803e3d6000fd5b60008054906101000a90046001600160a01b03166001600160a01b031663d09edf316040518163ffffffff1660e01b8152600401602060405180830381865afa158015610a92573d6000803e3d6000fd5b505050506040513d601f19601f82011682018060405250810190610ab69190613dcf565b6001600160a01b031663648154538686866040518463ffffffff1660e01b81526004016108d293929190613e05565b606060016004018054610af790613e5d565b80601f0160208091040260200160405190810160405280929190818152602001828054610b2390613e5d565b8015610b705780601f10610b4557610100808354040283529160200191610b70565b820191906000526020600020905b815481529060010190602001808311610b5357829003601f168201915b5050505050905090565b6000546040805163d09edf3160e01b81529051610c26926001600160a01b03169163d09edf319160048083019260209291908290030181865afa158015610bc5573d6000803e3d6000fd5b505050506040513d601f19601f82011682018060405250810190610be99190613dcf565b6001600160a01b031663b3ecf2366040518163ffffffff1660e01b8152600401602060405180830381865afa1580156107fd573d6000803e3d6000fd5b610c31838383612308565b6001600160a01b038084166000908152603960209081526040808320938616835292815282822084835290522060060154421015610c7457610c7483838361270e565b505050565b606060016003018054610af790613e5d565b6000805460405163572b6c0560e01b81526001600160a01b0384811660048301529091169063572b6c0590602401602060405180830381865afa158015610cd6573d6000803e3d6000fd5b505050506040513d601f19601f820116820180604052508101906105b09190613e97565b6001600160a01b0382166000908152603d6020526040812090610d1b61219f565b6001600160a01b031681526020810191909152604001600020541580610d8157506001600160a01b038216600090815260386020526040812090610d5d61219f565b6001600160a01b03166001600160a01b031681526020019081526020016000205481115b15610dc75781610d8f61219f565b60405163a4e07aad60e01b81526001600160a01b03928316600482015291166024820152604481018290526064015b60405180910390fd5b600019610ddc83610dd661219f565b846127f6565b03610e1d5781610dea61219f565b6040516332c595cd60e21b81526001600160a01b0392831660048201529116602482015260448101829052606401610dbe565b610e2f82610e2961219f565b83612308565b5050565b600080546040805163d09edf3160e01b815290518593926001600160a01b03169163d09edf319160048083019260209291908290030181865afa158015610e7e573d6000803e3d6000fd5b505050506040513d601f19601f82011682018060405250810190610ea29190613dcf565b60405163fdd5205f60e01b8152306004820152602481018490526001600160a01b03919091169063fdd5205f90604401602060405180830381865afa158015610eef573d6000803e3d6000fd5b505050506040513d601f19601f82011682018060405250810190610f139190613dec565b9050610f6960008054906101000a90046001600160a01b03166001600160a01b031663d09edf316040518163ffffffff1660e01b8152600401602060405180830381865afa15801561078f573d6000803e3d6000fd5b60008054906101000a90046001600160a01b03166001600160a01b031663d09edf316040518163ffffffff1660e01b8152600401602060405180830381865afa158015610fba573d6000803e3d6000fd5b505050506040513d601f19601f82011682018060405250810190610fde9190613dcf565b60405163385e205560e21b8152600481018690526001600160a01b038581166024830152919091169063e1788154906044015b600060405180830381600087803b15801561102b57600080fd5b505af115801561103f573d6000803e3d6000fd5b5050505050505050565b6001600160a01b038083166000908152603d6020908152604080832093851683529290529081205460609184918491036110a957604051630487770160e01b81526001600160a01b03808416600483015282166024820152604401610dbe565b6001600160a01b038086166000908152603d6020908152604080832093881683529281528282208054845181840281018401909552808552929392909183018282801561111557602002820191906000526020600020905b815481526020019060010190808311611101575b505050505090506000815190506000808267ffffffffffffffff81111561113e5761113e613854565b6040519080825280602002602001820160405280156111b857816020015b6111a56040518060e0016040528060006001600160a01b031681526020016000815260200160008152602001600081526020016000815260200160008152602001600081525090565b81526020019060019003908161115c5790505b5090505b8282101561129d576001600160a01b03808a166000908152603960209081526040808320938c168352929052908120855190919086908590811061120257611202613eb9565b6020908102919091018101518252818101929092526040908101600020815160e08101835281546001600160a01b031681526001820154938101939093526002810154918301919091526003810154606083015260048101546080830152600581015460a08301526006015460c0820152815182908490811061128757611287613eb9565b60200260200101819052508160010191506111bc565b95505050505b505092915050565b6000546001600160a01b03166342f6e3896112c461219f565b6040516001600160e01b031960e084901b1681526001600160a01b039091166004820152602401602060405180830381865afa158015611308573d6000803e3d6000fd5b505050506040513d601f19601f8201168201806040525081019061132c9190613e97565b61134957604051633c9fdabb60e01b815260040160405180910390fd5b80806001600160a01b031661135c61219f565b6001600160a01b031614611383576040516305bc73ab60e51b815260040160405180910390fd5b610e2f826128b9565b6001600160a01b0381166000908152603d60205260408120906113ad61219f565b6001600160a01b031681526020810191909152604001600090812054900361140457806113d861219f565b6040516307461ff560e51b81526001600160a01b03928316600482015291166024820152604401610dbe565b6114158161141061219f565b61296a565b50565b600061157160016040518060a001604052908160008201548152602001600182015481526020016002820154815260200160038201805461145890613e5d565b80601f016020809104026020016040519081016040528092919081815260200182805461148490613e5d565b80156114d15780601f106114a6576101008083540402835291602001916114d1565b820191906000526020600020905b8154815290600101906020018083116114b457829003601f168201915b505050505081526020016004820180546114ea90613e5d565b80601f016020809104026020016040519081016040528092919081815260200182805461151690613e5d565b80156115635780601f1061153857610100808354040283529160200191611563565b820191906000526020600020905b81548152906001019060200180831161154657829003601f168201915b505050505081525050612a1f565b905090565b60008060009054906101000a90046001600160a01b03166001600160a01b0316637da0a8776040518163ffffffff1660e01b8152600401602060405180830381865afa1580156115ca573d6000803e3d6000fd5b505050506040513d601f19601f820116820180604052508101906115719190613dcf565b6115fb838361054661219f565b60000361160b57826113d861219f565b610c74838383612a5f565b7ff0c57e16840df040f15088dc2f81fe391c3923bec73e23a9662efc9c229c6a00805468010000000000000000810460ff16159067ffffffffffffffff166000811580156116615750825b905060008267ffffffffffffffff16600114801561167e5750303b155b90508115801561168c575080155b156116aa5760405163f92ee8a960e01b815260040160405180910390fd5b845467ffffffffffffffff1916600117855583156116de57845468ff00000000000000001916680100000000000000001785555b6116e88888612cda565b831561103f57845468ff000000000000000019168555604051600181527fc7f505b2f371ae2175ee4913f4499e1f2633a7b5936321eed1cdaeb6115181d29060200160405180910390a15050505050505050565b600080546040805163d09edf3160e01b815290518593926001600160a01b03169163d09edf319160048083019260209291908290030181865afa158015611787573d6000803e3d6000fd5b505050506040513d601f19601f820116820180604052508101906117ab9190613dcf565b60405163fdd5205f60e01b8152306004820152602481018490526001600160a01b03919091169063fdd5205f90604401602060405180830381865afa1580156117f8573d6000803e3d6000fd5b505050506040513d601f19601f8201168201806040525081019061181c9190613dec565b905061187260008054906101000a90046001600160a01b03166001600160a01b031663d09edf316040518163ffffffff1660e01b8152600401602060405180830381865afa15801561078f573d6000803e3d6000fd5b60008054906101000a90046001600160a01b03166001600160a01b031663d09edf316040518163ffffffff1660e01b8152600401602060405180830381865afa1580156118c3573d6000803e3d6000fd5b505050506040513d601f19601f820116820180604052508101906118e79190613dcf565b604051632e99be7f60e21b8152600481018690526001600160a01b038581166024830152919091169063ba66f9fc90604401611011565b6000546040805163d09edf3160e01b81529051611969926001600160a01b03169163d09edf319160048083019260209291908290030181865afa158015610bc5573d6000803e3d6000fd5b6000196119768383612dd4565b036119a757604051630487770160e01b81526001600160a01b03808416600483015282166024820152604401610dbe565b610e2f8282612ea2565b6001600160a01b038084166000908152603a602090815260408083208685168452825280832093851683529281528282208054845181840281018401909552808552929384939092830182828015611a2857602002820191906000526020600020905b815481526020019060010190808311611a14575b5050505050905060008151905080600003611a4857600092505050610652565b60005b81811015611ac7576001600160a01b038088166000908152603b602090815260408083208a85168452825280832093891683529290529081208451909190859084908110611a9b57611a9b613eb9565b602002602001015181526020019081526020016000205484611abd9190613ecf565b9350600101611a4b565b5050509392505050565b6000546001600160a01b03166342f6e389611aea61219f565b6040516001600160e01b031960e084901b1681526001600160a01b039091166004820152602401602060405180830381865afa158015611b2e573d6000803e3d6000fd5b505050506040513d601f19601f82011682018060405250810190611b529190613e97565b611b6f57604051633c9fdabb60e01b815260040160405180910390fd5b80806001600160a01b0316611b8261219f565b6001600160a01b031614611ba9576040516305bc73ab60e51b815260040160405180910390fd5b6000826001600160a01b03166375fa0b766040518163ffffffff1660e01b8152600401600060405180830381865afa158015611be9573d6000803e3d6000fd5b505050506040513d6000823e601f3d908101601f19168201604052611c119190810190613fcf565b511115610e2f576060806060846001600160a01b031663c0231ff66040518163ffffffff1660e01b81526004016000604051808303816000875af1158015611c5d573d6000803e3d6000fd5b505050506040513d6000823e601f3d908101601f19168201604052611c85919081019061406e565b9194509250905060005b8251811015611d6157818181518110611caa57611caa613eb9565b6020026020010151838281518110611cc457611cc4613eb9565b60209081029190910101516040516370a0823160e01b81526001600160a01b038981166004830152909116906370a0823190602401602060405180830381865afa158015611d16573d6000803e3d6000fd5b505050506040513d601f19601f82011682018060405250810190611d3a9190613dec565b1015611d595760405163189db84f60e31b815260040160405180910390fd5b600101611c8f565b50825160005b81811015611f2257611e0487868381518110611d8557611d85613eb9565b6020026020010151603860008b6001600160a01b03166001600160a01b031681526020019081526020016000206000898681518110611dc657611dc6613eb9565b6020026020010151600001516001600160a01b03166001600160a01b03168152602001908152602001600020546001611dff9190613ecf565b612fa4565b848181518110611e1657611e16613eb9565b6020026020010151602001516001600160a01b0316858281518110611e3d57611e3d613eb9565b6020026020010151600001516001600160a01b0316886001600160a01b03167f36ed9e7eb18c4c4cfa297b57647b5825c7e397033696da1fc5754e60ac948775888581518110611e8f57611e8f613eb9565b602002602001015160400151898681518110611ead57611ead613eb9565b6020026020010151606001518a8781518110611ecb57611ecb613eb9565b6020026020010151608001518b8881518110611ee957611ee9613eb9565b60209081029190910181015160a001516040805195865291850193909352830152606082015260800160405180910390a4600101611d67565b50505050505050565b6000611f3985858585613199565b90505b949350505050565b60006001600160e01b0319821663e328951160e01b14806105b057506301ffc9a760e01b6001600160e01b03198316146105b0565b60006001600160a01b0382161580611fa95750611f9461219f565b6001600160a01b0316826001600160a01b0316145b80611fbc57506001600160a01b03821630145b80611fd457506000546001600160a01b038381169116145b806120bd57506000546001600160a01b03166001600160a01b03166304baed9e6040518163ffffffff1660e01b8152600401602060405180830381865afa158015612023573d6000803e3d6000fd5b505050506040513d601f19601f820116820180604052508101906120479190613dcf565b6001600160a01b031663fc0c546a6040518163ffffffff1660e01b8152600401602060405180830381865afa158015612084573d6000803e3d6000fd5b505050506040513d601f19601f820116820180604052508101906120a89190613dcf565b6001600160a01b0316826001600160a01b0316145b1592915050565b6000816120d18486613ecf565b1115949350505050565b604080513060248083019190915282518083039091018152604490910182526020810180516001600160e01b03166370a0823160e01b1790529051600091829182916001600160a01b03861691612132919061414a565b6000604051808303816000865af19150503d806000811461216f576040519150601f19603f3d011682016040523d82523d6000602084013e612174565b606091505b50915091508180156121865750805115155b8015611f3c57505050506001600160a01b03163b151590565b60003660146121ad33610c8b565b80156121b95750808210155b156121e9576000366121cb8385613dbc565b6121d6928290614166565b6121df91614190565b60601c9250505090565b339250505090565b60008054906101000a90046001600160a01b03166001600160a01b031663d09edf316040518163ffffffff1660e01b8152600401602060405180830381865afa158015612242573d6000803e3d6000fd5b505050506040513d601f19601f820116820180604052508101906122669190613dcf565b60405163a883867d60e01b8152600481018490526001600160a01b038381166024830152919091169063a883867d90604401602060405180830381865afa1580156122b5573d6000803e3d6000fd5b505050506040513d601f19601f820116820180604052508101906122d99190613e97565b610e2f576040516342abbb7760e01b8152600481018390526001600160a01b0382166024820152604401610dbe565b6000612315848484610606565b6001600160a01b038086166000908152603960209081526040808320938816835292815282822086835290529081206003018054929350839290919061235c908490613ecf565b90915550506001600160a01b0384811660008181526039602090815260408083208886168085529083528184208885528352818420548251602481019690965260448601919091526064808601889052825180870390910181526084909501825291840180516001600160e01b03166323b872dd60e01b179052519316929091829184916123e99161414a565b6000604051808303816000865af19150503d8060008114612426576040519150601f19603f3d011682016040523d82523d6000602084013e61242b565b606091505b50915091508180156124555750805115806124555750808060200190518101906124559190613e97565b801561246a57506001600160a01b0383163b15155b1561252357826001600160a01b0316866001600160a01b03167f3737f2a73c794dafe53d8aeea06810a9ebcf7167401b259406960e088e03f830866040516124b491815260200190565b60405180910390a3604051631667d8c360e31b81526001600160a01b0384811660048301526024820186905288169063b33ec61890604401600060405180830381600087803b15801561250657600080fd5b505af115801561251a573d6000803e3d6000fd5b505050506126d0565b604080516001600160a01b038881168252858116602083015291810187905260608101869052908816907f1233c88a83985cb9ecaf0cf1184c00ad4457d9bb5068bd5eae2ff26dc83e2a829060800160405180910390a26001600160a01b038088166000908152603a6020908152604080832087851684528252808320938a168352928152828220805484518184028101840190955280855292939290918301828280156125f057602002820191906000526020600020905b8154815260200190600101908083116125dc575b505050505090506000805b82518110156126355782818151811061261657612616613eb9565b6020026020010151880361262d5760019150612635565b6001016125fb565b508061267f576001600160a01b03808a166000908152603a6020908152604080832089851684528252808320938c1683529281529181208054600181018255908252919020018790555b6001600160a01b03808a166000908152603b6020908152604080832089851684528252808320938c1683529281528282208a8352905290812080548892906126c8908490613ecf565b909155505050505b6001600160a01b038088166000908152603960209081526040808320938a168352928152828220888352905220600601544210611f2257611f228787875b612719838383613242565b6001600160a01b038381166000818152603960209081526040808320948716808452948252808320868452825280832080546001600160a01b03191681556001810184905560028101849055600381018490556004810184905560058101849055600601839055928252603d81528282209382529290925281205490036127a4576127a48383613427565b816001600160a01b0316836001600160a01b03167fe6a0687ee789528abb9aac335f8b10067233039efce66e64f52a6bd3fad134c5836040516127e991815260200190565b60405180910390a3505050565b6001600160a01b038084166000908152603d602090815260408083209386168352928152828220805484518184028101840190955280855292938493909283018282801561286357602002820191906000526020600020905b81548152602001906001019080831161284f575b505083519394506000925050505b818110156128ab578483828151811061288c5761288c613eb9565b6020026020010151036128a3579250610652915050565b600101612871565b506000199695505050505050565b6001600160a01b0381166000908152603c602090815260408083208054825181850281018501909352808352919290919083018282801561292357602002820191906000526020600020905b81546001600160a01b03168152600190910190602001808311612905575b505083519394506000925050505b818110156129645761295c8484838151811061294f5761294f613eb9565b6020026020010151612ea2565b600101612931565b50505050565b6001600160a01b038083166000908152603d602090815260408083209385168352928152828220805484518184028101840190955280855292939290918301828280156129d657602002820191906000526020600020905b8154815260200190600101908083116129c2575b505083519394506000925050505b81811015612a1857612a108585858481518110612a0357612a03613eb9565b6020026020010151612308565b6001016129e4565b5050505050565b6000816000015182606001518360800151604051602001612a42939291906141c3565b604051602081830303815290604052805190602001209050919050565b600080612a6a61219f565b6001600160a01b038087166000908152603a602090815260408083208985168452825280832093851683529281528282208054845181840281018401909552808552949550919390830182828015612ae157602002820191906000526020600020905b815481526020019060010190808311612acd575b505083519394506000925050505b81811015612bd1576001600160a01b038089166000908152603b602090815260408083208b85168452825280832093881683529290529081208451909190859084908110612b3f57612b3f613eb9565b602002602001015181526020019081526020016000205485612b619190613ecf565b6001600160a01b03808a166000908152603b602090815260408083208c8516845282528083209389168352929052908120855192975091859084908110612baa57612baa613eb9565b60200260200101518152602001908152602001600020600090558080600101915050612aef565b506001600160a01b038088166000908152603a602090815260408083208a8516845282528083209387168352929052908120612c0c916137f8565b604051631667d8c360e31b81526001600160a01b0387811660048301526024820186905288169063b33ec61890604401600060405180830381600087803b158015612c5657600080fd5b505af1158015612c6a573d6000803e3d6000fd5b50612c84925050506001600160a01b038716888787613584565b856001600160a01b0316856001600160a01b03167f3737f2a73c794dafe53d8aeea06810a9ebcf7167401b259406960e088e03f83086604051612cc991815260200190565b60405180910390a350505050505050565b612ce26135de565b6001600160a01b038216612d0957604051637280679360e01b815260040160405180910390fd5b600080546001600160a01b0319166001600160a01b038416179055612d2d8161362e565b612d4a57604051637511254160e01b815260040160405180910390fd5b80516001908155602082015160025560408201516003556060820151829190600490612d769082614236565b5060808201516004820190612d8b9082614236565b50905050816001600160a01b03167fd5f3f84c2e1816ce290af84d002663800b02f2985d770cdd335de76fd723b73082604051612dc891906142f6565b60405180910390a25050565b6001600160a01b0382166000908152603c6020908152604080832080548251818502810185019093528083528493830182828015612e3b57602002820191906000526020600020905b81546001600160a01b03168152600190910190602001808311612e1d575b505083519394506000925050505b81811015612e9557846001600160a01b0316838281518110612e6d57612e6d613eb9565b60200260200101516001600160a01b031603612e8d5792506105b0915050565b600101612e49565b5060001995945050505050565b6001600160a01b038083166000908152603d60209081526040808320938516835292815282822080548451818402810184019095528085529293929091830182828015612f0e57602002820191906000526020600020905b815481526020019060010190808311612efa575b505050505090506000815190506000805b82821015612f9c57838281518110612f3957612f39613eb9565b60200260200101519050612f4e868683612308565b6001600160a01b038087166000908152603960209081526040808320938916835292815282822084835290522060060154421015612f9157612f9186868361270e565b816001019150612f1f565b505050505050565b6001600160a01b038084166000908152603860209081526040808320865190941683529290529081208054909190612fdb90614356565b909155506040805160e0810182526020848101516001600160a01b0390811683528183018581528685015184860190815260006060808701828152908a015160808089019182528b015160a0808a019182528c015160c08a019081528d88168552603989528a85208d518916865289528a85208c865290985298909220965187546001600160a01b031916951694909417865591516001860155516002850155905160038401555160048301559151600582015590516006909101558151600019906130a8908590612dd4565b036130f0576001600160a01b038381166000908152603c602090815260408220855181546001810183559184529190922090910180546001600160a01b031916919092161790555b6001600160a01b038381166000818152603d602090815260408083208751861684528252808320805460018101825590845292829020909201859055858101518651878401516060808a01516080808c015160a0808e01518a518e8152998a01969096529888019290925291860152840152908516941692917f84837fd0db980d123add5802f72b60537592dccedc5fecb06d671aaeb50874d6910160405180910390a4505050565b6001600160a01b03848116600090815260396020908152604080832093871683529281528282208583529052908120600281015460048201546006830154600590930154919290916131eb9083613ecf565b8510156131fe5760009350505050611f3c565b80851061321057829350505050611f3c565b61321a8282613dbc565b6132248387613dbc565b61322e908561436f565b6132389190614386565b9350505050611f3c565b600061324f8484846127f6565b90506000198103613296578361326361219f565b6040516332c595cd60e21b81526001600160a01b0392831660048201529116602482015260448101839052606401610dbe565b6001600160a01b038481166000908152603960209081526040808320878516845282528083208684529091528120805460038201546002909201549316926132de9190613dbc565b9050801561334957604051631667d8c360e31b81526001600160a01b0383811660048301526024820183905287169063b33ec61890604401600060405180830381600087803b15801561333057600080fd5b505af1158015613344573d6000803e3d6000fd5b505050505b6001600160a01b038681166000908152603d60209081526040808320938916835292905220805461337c90600190613dbc565b8154811061338c5761338c613eb9565b60009182526020808320909101546001600160a01b03808a168452603d83526040808520918a168552925291208054859081106133cb576133cb613eb9565b60009182526020808320909101929092556001600160a01b038089168252603d835260408083209189168352925220805480613409576134096143a8565b60019003818190600052602060002001600090559055505050505050565b60006134338383612dd4565b9050600019810361346a57604051630487770160e01b81526001600160a01b03808516600483015283166024820152604401610dbe565b6001600160a01b0383166000908152603c60205260409020805490613490600183613dbc565b815481106134a0576134a0613eb9565b60009182526020808320909101546001600160a01b038781168452603c90925260409092208054919092169190849081106134dd576134dd613eb9565b600091825260208083209190910180546001600160a01b0319166001600160a01b039485161790559186168152603c90915260409020805480613522576135226143a8565b600082815260208120820160001990810180546001600160a01b03191690559091019091556040516001600160a01b0385811692908716917ffc59aabaa43e37f2cffbc0b3676030e79d3286389cc24d4e335a86e67dd58a4e9190a350505050565b604080516001600160a01b0385811660248301528416604482015260648082018490528251808303909101815260849091019091526020810180516001600160e01b03166323b872dd60e01b17905261296490859061368e565b7ff0c57e16840df040f15088dc2f81fe391c3923bec73e23a9662efc9c229c6a005468010000000000000000900460ff1661362c57604051631afcd79f60e31b815260040160405180910390fd5b565b600081606001515160000361364557506000919050565b81608001515160000361365a57506000919050565b815115801561366b57506020820151155b801561367957506040820151155b1561368657506000919050565b506001919050565b60006136a36001600160a01b038416836136f1565b905080516000141580156136c85750808060200190518101906136c69190613e97565b155b15610c7457604051635274afe760e01b81526001600160a01b0384166004820152602401610dbe565b60606106528383600084600080856001600160a01b03168486604051613717919061414a565b60006040518083038185875af1925050503d8060008114613754576040519150601f19603f3d011682016040523d82523d6000602084013e613759565b606091505b5091509150613769868383613773565b9695505050505050565b60608261378857613783826137cf565b610652565b815115801561379f57506001600160a01b0384163b155b156137c857604051639996b31560e01b81526001600160a01b0385166004820152602401610dbe565b5080610652565b8051156137df5780518082602001fd5b604051630a12f52160e11b815260040160405180910390fd5b508054600082559060005260206000209081019061141591905b808211156138265760008155600101613812565b5090565b60006020828403121561383c57600080fd5b81356001600160e01b03198116811461065257600080fd5b634e487b7160e01b600052604160045260246000fd5b60405160c0810167ffffffffffffffff8111828210171561388d5761388d613854565b60405290565b60405160a0810167ffffffffffffffff8111828210171561388d5761388d613854565b604051601f8201601f1916810167ffffffffffffffff811182821017156138df576138df613854565b604052919050565b6001600160a01b038116811461141557600080fd5b600060c0828403121561390e57600080fd5b61391661386a565b8235613921816138e7565b81526020830135613931816138e7565b8060208301525060408301356040820152606083013560608201526080830135608082015260a083013560a08201528091505092915050565b60008060006060848603121561397f57600080fd5b833561398a816138e7565b9250602084013561399a816138e7565b929592945050506040919091013590565b6000806000604084860312156139c057600080fd5b83359250602084013567ffffffffffffffff808211156139df57600080fd5b818601915086601f8301126139f357600080fd5b813581811115613a0257600080fd5b8760208260051b8501011115613a1757600080fd5b6020830194508093505050509250925092565b60008060408385031215613a3d57600080fd5b8235613a48816138e7565b91506020830135613a58816138e7565b809150509250929050565b60005b83811015613a7e578181015183820152602001613a66565b50506000910152565b60008151808452613a9f816020860160208601613a63565b601f01601f19169290920160200192915050565b6020815260006106526020830184613a87565b600060208284031215613ad857600080fd5b8135610652816138e7565b60008060408385031215613af657600080fd5b8235613b01816138e7565b946020939093013593505050565b60008060408385031215613b2257600080fd5b823591506020830135613a58816138e7565b602080825282518282018190526000919060409081850190868401855b82811015613bb257815180516001600160a01b0316855286810151878601528581015186860152606080820151908601526080808201519086015260a0808201519086015260c0908101519085015260e09093019290850190600101613b51565b5091979650505050505050565b600080600060608486031215613bd457600080fd5b8335613bdf816138e7565b92506020840135613bef816138e7565b91506040840135613bff816138e7565b809150509250925092565b600082601f830112613c1b57600080fd5b813567ffffffffffffffff811115613c3557613c35613854565b613c48601f8201601f19166020016138b6565b818152846020838601011115613c5d57600080fd5b816020850160208301376000918101602001919091529392505050565b600080600060608486031215613c8f57600080fd5b8335613c9a816138e7565b9250602084013567ffffffffffffffff80821115613cb757600080fd5b9085019060a08288031215613ccb57600080fd5b613cd3613893565b823581526020830135602082015260408301356040820152606083013582811115613cfd57600080fd5b613d0989828601613c0a565b606083015250608083013582811115613d2157600080fd5b613d2d89828601613c0a565b60808301525093506040860135915080821115613d4957600080fd5b50613d5686828701613c0a565b9150509250925092565b60008060008060808587031215613d7657600080fd5b8435613d81816138e7565b93506020850135613d91816138e7565b93969395505050506040820135916060013590565b634e487b7160e01b600052601160045260246000fd5b818103818111156105b0576105b0613da6565b600060208284031215613de157600080fd5b8151610652816138e7565b600060208284031215613dfe57600080fd5b5051919050565b83815260406020808301829052908201839052600090849060608401835b86811015613e51578335613e36816138e7565b6001600160a01b031682529282019290820190600101613e23565b50979650505050505050565b600181811c90821680613e7157607f821691505b602082108103613e9157634e487b7160e01b600052602260045260246000fd5b50919050565b600060208284031215613ea957600080fd5b8151801515811461065257600080fd5b634e487b7160e01b600052603260045260246000fd5b808201808211156105b0576105b0613da6565b600067ffffffffffffffff821115613efc57613efc613854565b5060051b60200190565b600082601f830112613f1757600080fd5b81516020613f2c613f2783613ee2565b6138b6565b82815260c09283028501820192828201919087851115613f4b57600080fd5b8387015b85811015613fc25781818a031215613f675760008081fd5b613f6f61386a565b8151613f7a816138e7565b815281860151613f89816138e7565b8187015260408281015190820152606080830151908201526080808301519082015260a080830151908201528452928401928101613f4f565b5090979650505050505050565b600060208284031215613fe157600080fd5b815167ffffffffffffffff811115613ff857600080fd5b611f3c84828501613f06565b600082601f83011261401557600080fd5b81516020614025613f2783613ee2565b8083825260208201915060208460051b87010193508684111561404757600080fd5b602086015b84811015614063578051835291830191830161404c565b509695505050505050565b60008060006060848603121561408357600080fd5b835167ffffffffffffffff8082111561409b57600080fd5b6140a787838801613f06565b94506020915081860151818111156140be57600080fd5b8601601f810188136140cf57600080fd5b80516140dd613f2782613ee2565b81815260059190911b8201840190848101908a8311156140fc57600080fd5b928501925b82841015614123578351614114816138e7565b82529285019290850190614101565b60408a015190975094505050508082111561413d57600080fd5b50613d5686828701614004565b6000825161415c818460208701613a63565b9190910192915050565b6000808585111561417657600080fd5b8386111561418357600080fd5b5050820193919092039150565b6bffffffffffffffffffffffff1981358181169160148510156112a35760149490940360031b84901b1690921692915050565b8381526060602082015260006141dc6060830185613a87565b82810360408401526137698185613a87565b601f821115610c74576000816000526020600020601f850160051c810160208610156142175750805b601f850160051c820191505b81811015612f9c57828155600101614223565b815167ffffffffffffffff81111561425057614250613854565b6142648161425e8454613e5d565b846141ee565b602080601f83116001811461429957600084156142815750858301515b600019600386901b1c1916600185901b178555612f9c565b600085815260208120601f198616915b828110156142c8578886015182559484019460019091019084016142a9565b50858210156142e65787850151600019600388901b60f8161c191681555b5050505050600190811b01905550565b602081528151602082015260208201516040820152604082015160608201526000606083015160a0608084015261433060c0840182613a87565b90506080840151601f198483030160a085015261434d8282613a87565b95945050505050565b60006001820161436857614368613da6565b5060010190565b80820281158282048414176105b0576105b0613da6565b6000826143a357634e487b7160e01b600052601260045260246000fd5b500490565b634e487b7160e01b600052603160045260246000fdfea2646970667358221220d291b262148867015ee7eb8f4b95b538ac632f0b5ead731c69744f08b22685d564736f6c63430008170033",
    "linkReferences": {}
  },
  "methodIdentifiers": {
    "cancelRunningPayments(address)": "73d7764e",
    "claimAll(address)": "77329f35",
    "claimForSpecificStream(address,uint256)": "5eeede4d",
    "claimPreviouslyUnclaimable(address,address,address)": "81ac0367",
    "cliffForSpecificStream(address,address,uint256)": "cbe58ee2",
    "endForSpecificStream(address,address,uint256)": "4e6c76ae",
    "grantModuleRole(bytes32,address)": "6c67e807",
    "grantModuleRoleBatched(bytes32,address[])": "272bbd44",
    "identifier()": "7998a1c4",
    "init(address,(uint256,uint256,uint256,string,string),bytes)": "b66a870c",
    "isActivePaymentReceiver(address,address)": "410810cd",
    "isTrustedForwarder(address)": "572b6c05",
    "numStreams(address,address)": "5c9a6f5f",
    "orchestrator()": "b74795d9",
    "processPayments(address)": "e151fc61",
    "releasableForSpecificStream(address,address,uint256)": "1f2ac744",
    "releasedForSpecificStream(address,address,uint256)": "9e174994",
    "removeAllPaymentReceiverPayments(address,address)": "cb8e092f",
    "removePaymentForSpecificStream(address,address,uint256)": "54498314",
    "revokeModuleRole(bytes32,address)": "bcb61920",
    "revokeModuleRoleBatched(bytes32,address[])": "24e30270",
    "startForSpecificStream(address,address,uint256)": "c0893302",
    "streamedAmountForSpecificStream(address,address,uint256,uint256)": "f4a192b3",
    "supportsInterface(bytes4)": "01ffc9a7",
    "title()": "4a79d50c",
    "trustedForwarder()": "7da0a877",
    "unclaimable(address,address,address)": "ceb43f54",
    "url()": "5600f04f",
    "validPaymentOrder((address,address,uint256,uint256,uint256,uint256))": "08fd683d",
    "version()": "54fd4d50",
    "viewAllPaymentOrders(address,address)": "738e19a3"
  },
  "id": 153
}