{
  "abi": [
    {
      "type": "function",
      "name": "cancelRunningPayments",
      "inputs": [
        {
          "name": "client",
          "type": "address",
          "internalType": "contract IERC20PaymentClientBase_v1"
        }
      ],
      "outputs": [],
      "stateMutability": "nonpayable"
    },
    {
      "type": "function",
      "name": "claimAll",
      "inputs": [
        {
          "name": "client",
          "type": "address",
          "internalType": "address"
        }
      ],
      "outputs": [],
      "stateMutability": "nonpayable"
    },
    {
      "type": "function",
      "name": "claimForSpecificStream",
      "inputs": [
        {
          "name": "client",
          "type": "address",
          "internalType": "address"
        },
        {
          "name": "streamId",
          "type": "uint256",
          "internalType": "uint256"
        }
      ],
      "outputs": [],
      "stateMutability": "nonpayable"
    },
    {
      "type": "function",
      "name": "claimPreviouslyUnclaimable",
      "inputs": [
        {
          "name": "client",
          "type": "address",
          "internalType": "address"
        },
        {
          "name": "receiver",
          "type": "address",
          "internalType": "address"
        }
      ],
      "outputs": [],
      "stateMutability": "nonpayable"
    },
    {
      "type": "function",
      "name": "cliffForSpecificStream",
      "inputs": [
        {
          "name": "client",
          "type": "address",
          "internalType": "address"
        },
        {
          "name": "paymentReceiver",
          "type": "address",
          "internalType": "address"
        },
        {
          "name": "streamId",
          "type": "uint256",
          "internalType": "uint256"
        }
      ],
      "outputs": [
        {
          "name": "",
          "type": "uint256",
          "internalType": "uint256"
        }
      ],
      "stateMutability": "view"
    },
    {
      "type": "function",
      "name": "endForSpecificStream",
      "inputs": [
        {
          "name": "client",
          "type": "address",
          "internalType": "address"
        },
        {
          "name": "paymentReceiver",
          "type": "address",
          "internalType": "address"
        },
        {
          "name": "streamId",
          "type": "uint256",
          "internalType": "uint256"
        }
      ],
      "outputs": [
        {
          "name": "",
          "type": "uint256",
          "internalType": "uint256"
        }
      ],
      "stateMutability": "view"
    },
    {
      "type": "function",
      "name": "grantModuleRole",
      "inputs": [
        {
          "name": "role",
          "type": "bytes32",
          "internalType": "bytes32"
        },
        {
          "name": "target",
          "type": "address",
          "internalType": "address"
        }
      ],
      "outputs": [],
      "stateMutability": "nonpayable"
    },
    {
      "type": "function",
      "name": "grantModuleRoleBatched",
      "inputs": [
        {
          "name": "role",
          "type": "bytes32",
          "internalType": "bytes32"
        },
        {
          "name": "targets",
          "type": "address[]",
          "internalType": "address[]"
        }
      ],
      "outputs": [],
      "stateMutability": "nonpayable"
    },
    {
      "type": "function",
      "name": "identifier",
      "inputs": [],
      "outputs": [
        {
          "name": "",
          "type": "bytes32",
          "internalType": "bytes32"
        }
      ],
      "stateMutability": "view"
    },
    {
      "type": "function",
      "name": "init",
      "inputs": [
        {
          "name": "orchestrator_",
          "type": "address",
          "internalType": "contract IOrchestrator_v1"
        },
        {
          "name": "metadata",
          "type": "tuple",
          "internalType": "struct IModule_v1.Metadata",
          "components": [
            {
              "name": "majorVersion",
              "type": "uint256",
              "internalType": "uint256"
            },
            {
              "name": "minorVersion",
              "type": "uint256",
              "internalType": "uint256"
            },
            {
              "name": "url",
              "type": "string",
              "internalType": "string"
            },
            {
              "name": "title",
              "type": "string",
              "internalType": "string"
            }
          ]
        },
        {
          "name": "",
          "type": "bytes",
          "internalType": "bytes"
        }
      ],
      "outputs": [],
      "stateMutability": "nonpayable"
    },
    {
      "type": "function",
      "name": "isActivePaymentReceiver",
      "inputs": [
        {
          "name": "client",
          "type": "address",
          "internalType": "address"
        },
        {
          "name": "paymentReceiver",
          "type": "address",
          "internalType": "address"
        }
      ],
      "outputs": [
        {
          "name": "",
          "type": "bool",
          "internalType": "bool"
        }
      ],
      "stateMutability": "view"
    },
    {
      "type": "function",
      "name": "isTrustedForwarder",
      "inputs": [
        {
          "name": "forwarder",
          "type": "address",
          "internalType": "address"
        }
      ],
      "outputs": [
        {
          "name": "",
          "type": "bool",
          "internalType": "bool"
        }
      ],
      "stateMutability": "view"
    },
    {
      "type": "function",
      "name": "numStreams",
      "inputs": [
        {
          "name": "",
          "type": "address",
          "internalType": "address"
        },
        {
          "name": "",
          "type": "address",
          "internalType": "address"
        }
      ],
      "outputs": [
        {
          "name": "",
          "type": "uint256",
          "internalType": "uint256"
        }
      ],
      "stateMutability": "view"
    },
    {
      "type": "function",
      "name": "orchestrator",
      "inputs": [],
      "outputs": [
        {
          "name": "",
          "type": "address",
          "internalType": "contract IOrchestrator_v1"
        }
      ],
      "stateMutability": "view"
    },
    {
      "type": "function",
      "name": "processPayments",
      "inputs": [
        {
          "name": "client",
          "type": "address",
          "internalType": "contract IERC20PaymentClientBase_v1"
        }
      ],
      "outputs": [],
      "stateMutability": "nonpayable"
    },
    {
      "type": "function",
      "name": "releasableForSpecificStream",
      "inputs": [
        {
          "name": "client",
          "type": "address",
          "internalType": "address"
        },
        {
          "name": "paymentReceiver",
          "type": "address",
          "internalType": "address"
        },
        {
          "name": "streamId",
          "type": "uint256",
          "internalType": "uint256"
        }
      ],
      "outputs": [
        {
          "name": "",
          "type": "uint256",
          "internalType": "uint256"
        }
      ],
      "stateMutability": "view"
    },
    {
      "type": "function",
      "name": "releasedForSpecificStream",
      "inputs": [
        {
          "name": "client",
          "type": "address",
          "internalType": "address"
        },
        {
          "name": "paymentReceiver",
          "type": "address",
          "internalType": "address"
        },
        {
          "name": "streamId",
          "type": "uint256",
          "internalType": "uint256"
        }
      ],
      "outputs": [
        {
          "name": "",
          "type": "uint256",
          "internalType": "uint256"
        }
      ],
      "stateMutability": "view"
    },
    {
      "type": "function",
      "name": "removeAllPaymentReceiverPayments",
      "inputs": [
        {
          "name": "client",
          "type": "address",
          "internalType": "address"
        },
        {
          "name": "paymentReceiver",
          "type": "address",
          "internalType": "address"
        }
      ],
      "outputs": [],
      "stateMutability": "nonpayable"
    },
    {
      "type": "function",
      "name": "removePaymentForSpecificStream",
      "inputs": [
        {
          "name": "client",
          "type": "address",
          "internalType": "address"
        },
        {
          "name": "paymentReceiver",
          "type": "address",
          "internalType": "address"
        },
        {
          "name": "streamId",
          "type": "uint256",
          "internalType": "uint256"
        }
      ],
      "outputs": [],
      "stateMutability": "nonpayable"
    },
    {
      "type": "function",
      "name": "revokeModuleRole",
      "inputs": [
        {
          "name": "role",
          "type": "bytes32",
          "internalType": "bytes32"
        },
        {
          "name": "target",
          "type": "address",
          "internalType": "address"
        }
      ],
      "outputs": [],
      "stateMutability": "nonpayable"
    },
    {
      "type": "function",
      "name": "revokeModuleRoleBatched",
      "inputs": [
        {
          "name": "role",
          "type": "bytes32",
          "internalType": "bytes32"
        },
        {
          "name": "targets",
          "type": "address[]",
          "internalType": "address[]"
        }
      ],
      "outputs": [],
      "stateMutability": "nonpayable"
    },
    {
      "type": "function",
      "name": "startForSpecificStream",
      "inputs": [
        {
          "name": "client",
          "type": "address",
          "internalType": "address"
        },
        {
          "name": "paymentReceiver",
          "type": "address",
          "internalType": "address"
        },
        {
          "name": "streamId",
          "type": "uint256",
          "internalType": "uint256"
        }
      ],
      "outputs": [
        {
          "name": "",
          "type": "uint256",
          "internalType": "uint256"
        }
      ],
      "stateMutability": "view"
    },
    {
      "type": "function",
      "name": "streamedAmountForSpecificStream",
      "inputs": [
        {
          "name": "client",
          "type": "address",
          "internalType": "address"
        },
        {
          "name": "paymentReceiver",
          "type": "address",
          "internalType": "address"
        },
        {
          "name": "streamId",
          "type": "uint256",
          "internalType": "uint256"
        },
        {
          "name": "timestamp",
          "type": "uint256",
          "internalType": "uint256"
        }
      ],
      "outputs": [
        {
          "name": "",
          "type": "uint256",
          "internalType": "uint256"
        }
      ],
      "stateMutability": "view"
    },
    {
      "type": "function",
      "name": "supportsInterface",
      "inputs": [
        {
          "name": "interfaceId",
          "type": "bytes4",
          "internalType": "bytes4"
        }
      ],
      "outputs": [
        {
          "name": "",
          "type": "bool",
          "internalType": "bool"
        }
      ],
      "stateMutability": "view"
    },
    {
      "type": "function",
      "name": "title",
      "inputs": [],
      "outputs": [
        {
          "name": "",
          "type": "string",
          "internalType": "string"
        }
      ],
      "stateMutability": "view"
    },
    {
      "type": "function",
      "name": "trustedForwarder",
      "inputs": [],
      "outputs": [
        {
          "name": "",
          "type": "address",
          "internalType": "address"
        }
      ],
      "stateMutability": "view"
    },
    {
      "type": "function",
      "name": "unclaimable",
      "inputs": [
        {
          "name": "client",
          "type": "address",
          "internalType": "address"
        },
        {
          "name": "paymentReceiver",
          "type": "address",
          "internalType": "address"
        }
      ],
      "outputs": [
        {
          "name": "amount",
          "type": "uint256",
          "internalType": "uint256"
        }
      ],
      "stateMutability": "view"
    },
    {
      "type": "function",
      "name": "url",
      "inputs": [],
      "outputs": [
        {
          "name": "",
          "type": "string",
          "internalType": "string"
        }
      ],
      "stateMutability": "view"
    },
    {
      "type": "function",
      "name": "version",
      "inputs": [],
      "outputs": [
        {
          "name": "",
          "type": "uint256",
          "internalType": "uint256"
        },
        {
          "name": "",
          "type": "uint256",
          "internalType": "uint256"
        }
      ],
      "stateMutability": "view"
    },
    {
      "type": "function",
      "name": "viewAllPaymentOrders",
      "inputs": [
        {
          "name": "client",
          "type": "address",
          "internalType": "address"
        },
        {
          "name": "paymentReceiver",
          "type": "address",
          "internalType": "address"
        }
      ],
      "outputs": [
        {
          "name": "",
          "type": "tuple[]",
          "internalType": "struct IPP_Streaming_v1.Stream[]",
          "components": [
            {
              "name": "_paymentToken",
              "type": "address",
              "internalType": "address"
            },
            {
              "name": "_streamId",
              "type": "uint256",
              "internalType": "uint256"
            },
            {
              "name": "_total",
              "type": "uint256",
              "internalType": "uint256"
            },
            {
              "name": "_released",
              "type": "uint256",
              "internalType": "uint256"
            },
            {
              "name": "_start",
              "type": "uint256",
              "internalType": "uint256"
            },
            {
              "name": "_cliff",
              "type": "uint256",
              "internalType": "uint256"
            },
            {
              "name": "_end",
              "type": "uint256",
              "internalType": "uint256"
            }
          ]
        }
      ],
      "stateMutability": "view"
    },
    {
      "type": "event",
      "name": "Initialized",
      "inputs": [
        {
          "name": "version",
          "type": "uint64",
          "indexed": false,
          "internalType": "uint64"
        }
      ],
      "anonymous": false
    },
    {
      "type": "event",
      "name": "InvalidStreamingOrderDiscarded",
      "inputs": [
        {
          "name": "recipient",
          "type": "address",
          "indexed": true,
          "internalType": "address"
        },
        {
          "name": "paymentToken",
          "type": "address",
          "indexed": true,
          "internalType": "address"
        },
        {
          "name": "amount",
          "type": "uint256",
          "indexed": false,
          "internalType": "uint256"
        },
        {
          "name": "start",
          "type": "uint256",
          "indexed": false,
          "internalType": "uint256"
        },
        {
          "name": "cliff",
          "type": "uint256",
          "indexed": false,
          "internalType": "uint256"
        },
        {
          "name": "end",
          "type": "uint256",
          "indexed": false,
          "internalType": "uint256"
        }
      ],
      "anonymous": false
    },
    {
      "type": "event",
      "name": "ModuleInitialized",
      "inputs": [
        {
          "name": "parentOrchestrator",
          "type": "address",
          "indexed": true,
          "internalType": "address"
        },
        {
          "name": "moduleTitle",
          "type": "string",
          "indexed": true,
          "internalType": "string"
        },
        {
          "name": "majorVersion",
          "type": "uint256",
          "indexed": false,
          "internalType": "uint256"
        },
        {
          "name": "minorVersion",
          "type": "uint256",
          "indexed": false,
          "internalType": "uint256"
        }
      ],
      "anonymous": false
    },
    {
      "type": "event",
      "name": "PaymentOrderProcessed",
      "inputs": [
        {
          "name": "paymentClient",
          "type": "address",
          "indexed": true,
          "internalType": "address"
        },
        {
          "name": "recipient",
          "type": "address",
          "indexed": true,
          "internalType": "address"
        },
        {
          "name": "paymentToken",
          "type": "address",
          "indexed": true,
          "internalType": "address"
        },
        {
          "name": "amount",
          "type": "uint256",
          "indexed": false,
          "internalType": "uint256"
        },
        {
          "name": "start",
          "type": "uint256",
          "indexed": false,
          "internalType": "uint256"
        },
        {
          "name": "cliff",
          "type": "uint256",
          "indexed": false,
          "internalType": "uint256"
        },
        {
          "name": "end",
          "type": "uint256",
          "indexed": false,
          "internalType": "uint256"
        }
      ],
      "anonymous": false
    },
    {
      "type": "event",
      "name": "PaymentOrderProcessed",
      "inputs": [
        {
          "name": "paymentClient",
          "type": "address",
          "indexed": true,
          "internalType": "address"
        },
        {
          "name": "recipient",
          "type": "address",
          "indexed": true,
          "internalType": "address"
        },
        {
          "name": "paymentToken",
          "type": "address",
          "indexed": true,
          "internalType": "address"
        },
        {
          "name": "streamId",
          "type": "uint256",
          "indexed": false,
          "internalType": "uint256"
        },
        {
          "name": "amount",
          "type": "uint256",
          "indexed": false,
          "internalType": "uint256"
        },
        {
          "name": "start",
          "type": "uint256",
          "indexed": false,
          "internalType": "uint256"
        },
        {
          "name": "cliff",
          "type": "uint256",
          "indexed": false,
          "internalType": "uint256"
        },
        {
          "name": "end",
          "type": "uint256",
          "indexed": false,
          "internalType": "uint256"
        }
      ],
      "anonymous": false
    },
    {
      "type": "event",
      "name": "StreamingPaymentAdded",
      "inputs": [
        {
          "name": "paymentClient",
          "type": "address",
          "indexed": true,
          "internalType": "address"
        },
        {
          "name": "recipient",
          "type": "address",
          "indexed": true,
          "internalType": "address"
        },
        {
          "name": "paymentToken",
          "type": "address",
          "indexed": true,
          "internalType": "address"
        },
        {
          "name": "streamId",
          "type": "uint256",
          "indexed": false,
          "internalType": "uint256"
        },
        {
          "name": "amount",
          "type": "uint256",
          "indexed": false,
          "internalType": "uint256"
        },
        {
          "name": "start",
          "type": "uint256",
          "indexed": false,
          "internalType": "uint256"
        },
        {
          "name": "cliff",
          "type": "uint256",
          "indexed": false,
          "internalType": "uint256"
        },
        {
          "name": "end",
          "type": "uint256",
          "indexed": false,
          "internalType": "uint256"
        }
      ],
      "anonymous": false
    },
    {
      "type": "event",
      "name": "StreamingPaymentRemoved",
      "inputs": [
        {
          "name": "paymentClient",
          "type": "address",
          "indexed": true,
          "internalType": "address"
        },
        {
          "name": "recipient",
          "type": "address",
          "indexed": true,
          "internalType": "address"
        },
        {
          "name": "streamId",
          "type": "uint256",
          "indexed": false,
          "internalType": "uint256"
        }
      ],
      "anonymous": false
    },
    {
      "type": "event",
      "name": "TokensReleased",
      "inputs": [
        {
          "name": "recipient",
          "type": "address",
          "indexed": true,
          "internalType": "address"
        },
        {
          "name": "token",
          "type": "address",
          "indexed": true,
          "internalType": "address"
        },
        {
          "name": "amount",
          "type": "uint256",
          "indexed": false,
          "internalType": "uint256"
        }
      ],
      "anonymous": false
    },
    {
      "type": "event",
      "name": "UnclaimableAmountAdded",
      "inputs": [
        {
          "name": "paymentClient",
          "type": "address",
          "indexed": true,
          "internalType": "address"
        },
        {
          "name": "recipient",
          "type": "address",
          "indexed": false,
          "internalType": "address"
        },
        {
          "name": "paymentToken",
          "type": "address",
          "indexed": false,
          "internalType": "address"
        },
        {
          "name": "streamId",
          "type": "uint256",
          "indexed": false,
          "internalType": "uint256"
        },
        {
          "name": "amount",
          "type": "uint256",
          "indexed": false,
          "internalType": "uint256"
        }
      ],
      "anonymous": false
    },
    {
      "type": "error",
      "name": "AddressEmptyCode",
      "inputs": [
        {
          "name": "target",
          "type": "address",
          "internalType": "address"
        }
      ]
    },
    {
      "type": "error",
      "name": "AddressInsufficientBalance",
      "inputs": [
        {
          "name": "account",
          "type": "address",
          "internalType": "address"
        }
      ]
    },
    {
      "type": "error",
      "name": "FailedInnerCall",
      "inputs": []
    },
    {
      "type": "error",
      "name": "InvalidInitialization",
      "inputs": []
    },
    {
      "type": "error",
      "name": "Module_OrchestratorCallbackFailed",
      "inputs": [
        {
          "name": "funcSig",
          "type": "string",
          "internalType": "string"
        }
      ]
    },
    {
      "type": "error",
      "name": "Module__CallerNotAuthorized",
      "inputs": [
        {
          "name": "role",
          "type": "bytes32",
          "internalType": "bytes32"
        },
        {
          "name": "caller",
          "type": "address",
          "internalType": "address"
        }
      ]
    },
    {
      "type": "error",
      "name": "Module__InvalidMetadata",
      "inputs": []
    },
    {
      "type": "error",
      "name": "Module__InvalidOrchestratorAddress",
      "inputs": []
    },
    {
      "type": "error",
      "name": "Module__OnlyCallableByOrchestrator",
      "inputs": []
    },
    {
      "type": "error",
      "name": "Module__PP_Streaming__InactiveStream",
      "inputs": [
        {
          "name": "paymentClient",
          "type": "address",
          "internalType": "address"
        },
        {
          "name": "paymentReceiver",
          "type": "address",
          "internalType": "address"
        },
        {
          "name": "streamId",
          "type": "uint256",
          "internalType": "uint256"
        }
      ]
    },
    {
      "type": "error",
      "name": "Module__PP_Streaming__InsufficientTokenBalanceInClient",
      "inputs": []
    },
    {
      "type": "error",
      "name": "Module__PP_Streaming__InvalidPaymentReceiver",
      "inputs": [
        {
          "name": "paymentClient",
          "type": "address",
          "internalType": "address"
        },
        {
          "name": "paymentReceiver",
          "type": "address",
          "internalType": "address"
        }
      ]
    },
    {
      "type": "error",
      "name": "Module__PP_Streaming__InvalidStream",
      "inputs": [
        {
          "name": "paymentClient",
          "type": "address",
          "internalType": "address"
        },
        {
          "name": "paymentReceiver",
          "type": "address",
          "internalType": "address"
        },
        {
          "name": "streamId",
          "type": "uint256",
          "internalType": "uint256"
        }
      ]
    },
    {
      "type": "error",
      "name": "Module__PP_Streaming__NothingToClaim",
      "inputs": [
        {
          "name": "paymentClient",
          "type": "address",
          "internalType": "address"
        },
        {
          "name": "paymentReceiver",
          "type": "address",
          "internalType": "address"
        }
      ]
    },
    {
      "type": "error",
      "name": "Module__PaymentProcessor__CannotCallOnOtherClientsOrders",
      "inputs": []
    },
    {
      "type": "error",
      "name": "Module__PaymentProcessor__OnlyCallableByModule",
      "inputs": []
    },
    {
      "type": "error",
      "name": "NotInitializing",
      "inputs": []
    },
    {
      "type": "error",
      "name": "SafeERC20FailedOperation",
      "inputs": [
        {
          "name": "token",
          "type": "address",
          "internalType": "address"
        }
      ]
    }
  ],
  "bytecode": {
    "object": "0x60a06040523480156200001157600080fd5b5060006080526200002162000027565b620000db565b7ff0c57e16840df040f15088dc2f81fe391c3923bec73e23a9662efc9c229c6a00805468010000000000000000900460ff1615620000785760405163f92ee8a960e01b815260040160405180910390fd5b80546001600160401b0390811614620000d85780546001600160401b0319166001600160401b0390811782556040519081527fc7f505b2f371ae2175ee4913f4499e1f2633a7b5936321eed1cdaeb6115181d29060200160405180910390a15b50565b6080516142a3620000f4600039600050506142a36000f3fe608060405234801561001057600080fd5b50600436106101da5760003560e01c80636c67e80711610104578063b74795d9116100a2578063cbe58ee211610071578063cbe58ee2146104d0578063e151fc6114610513578063e49bd91a14610526578063f4a192b31461053957600080fd5b8063b74795d914610456578063bcb6192014610467578063c08933021461047a578063cb8e092f146104bd57600080fd5b806377329f35116100de57806377329f35146103d85780637998a1c4146103eb5780637da0a877146103f35780639e1749941461041357600080fd5b80636c67e80714610392578063738e19a3146103a557806373d7764e146103c557600080fd5b80634e6c76ae1161017c5780635600f04f1161014b5780635600f04f14610339578063572b6c05146103415780635c9a6f5f146103545780635eeede4d1461037f57600080fd5b80634e6c76ae146102b35780634f1f12bd146102f8578063544983141461030b57806354fd4d501461031e57600080fd5b8063272bbd44116101b8578063272bbd441461023d578063410810cd1461025057806342dfe9581461028b5780634a79d50c1461029e57600080fd5b806301ffc9a7146101df5780631f2ac7441461020757806324e3027014610228575b600080fd5b6101f26101ed3660046137ca565b61054c565b60405190151581526020015b60405180910390f35b61021a610215366004613821565b6105a8565b6040519081526020016101fe565b61023b610236366004613862565b6105fb565b005b61023b61024b366004613862565b6107b3565b6101f261025e3660046138e1565b6001600160a01b039182166000908152600a60209081526040808320939094168252919091522054151590565b61023b610299366004613a1d565b6108a2565b6102a66109f9565b6040516101fe9190613b1d565b61021a6102c1366004613821565b6001600160a01b03928316600090815260066020818152604080842095909616835293845284822092825291909252919020015490565b61023b6103063660046138e1565b610a8e565b61023b610319366004613821565b610b02565b600154600254604080519283526020830191909152016101fe565b6102a6610ba0565b6101f261034f366004613b50565b610bb2565b61021a6103623660046138e1565b600560209081526000928352604080842090915290825290205481565b61023b61038d366004613b6d565b610c3a565b61023b6103a0366004613b99565b610d9c565b6103b86103b33660046138e1565b610ede565b6040516101fe9190613bbe565b61023b6103d3366004613b50565b611140565b61023b6103e6366004613b50565b61126d565b61021a6112cd565b6103fb61141d565b6040516001600160a01b0390911681526020016101fe565b61021a610421366004613821565b6001600160a01b0392831660009081526006602090815260408083209490951682529283528381209181529152206003015490565b6000546001600160a01b03166103fb565b61023b610475366004613b99565b611495565b61021a610488366004613821565b6001600160a01b0392831660009081526006602090815260408083209490951682529283528381209181529152206004015490565b61023b6104cb3660046138e1565b6115a5565b61021a6104de366004613821565b6001600160a01b0392831660009081526006602090815260408083209490951682529283528381209181529152206005015490565b61023b610521366004613b50565b611638565b61021a6105343660046138e1565b611b1c565b61021a610547366004613c49565b611c27565b60007fffffffff0000000000000000000000000000000000000000000000000000000082167f1f85dea70000000000000000000000000000000000000000000000000000000014806105a257506105a282611c40565b92915050565b6001600160a01b03808416600090815260066020908152604080832093861683529281528282208483529052908120600301546105e785858542611c27565b6105f19190613ca5565b90505b9392505050565b6000546040805163d09edf3160e01b815290516106d8926001600160a01b03169163d09edf319160048083019260209291908290030181865afa158015610646573d6000803e3d6000fd5b505050506040513d601f19601f8201168201806040525081019061066a9190613cb8565b6001600160a01b03166355ff58d46040518163ffffffff1660e01b8152600401602060405180830381865afa1580156106a7573d6000803e3d6000fd5b505050506040513d601f19601f820116820180604052508101906106cb9190613cd5565b6106d3611cd7565b611d29565b60008054906101000a90046001600160a01b03166001600160a01b031663d09edf316040518163ffffffff1660e01b8152600401602060405180830381865afa158015610729573d6000803e3d6000fd5b505050506040513d601f19601f8201168201806040525081019061074d9190613cb8565b6001600160a01b0316637d540a648484846040518463ffffffff1660e01b815260040161077c93929190613cee565b600060405180830381600087803b15801561079657600080fd5b505af11580156107aa573d6000803e3d6000fd5b50505050505050565b6000546040805163d09edf3160e01b815290516107fe926001600160a01b03169163d09edf319160048083019260209291908290030181865afa158015610646573d6000803e3d6000fd5b60008054906101000a90046001600160a01b03166001600160a01b031663d09edf316040518163ffffffff1660e01b8152600401602060405180830381865afa15801561084f573d6000803e3d6000fd5b505050506040513d601f19601f820116820180604052508101906108739190613cb8565b6001600160a01b031663648154538484846040518463ffffffff1660e01b815260040161077c93929190613cee565b7ff0c57e16840df040f15088dc2f81fe391c3923bec73e23a9662efc9c229c6a00805468010000000000000000810460ff16159067ffffffffffffffff166000811580156108ed5750825b905060008267ffffffffffffffff16600114801561090a5750303b155b905081158015610918575080155b1561094f576040517ff92ee8a900000000000000000000000000000000000000000000000000000000815260040160405180910390fd5b84547fffffffffffffffffffffffffffffffffffffffffffffffff0000000000000000166001178555831561099a57845468ff00000000000000001916680100000000000000001785555b6109a48888611e72565b83156109ef57845468ff000000000000000019168555604051600181527fc7f505b2f371ae2175ee4913f4499e1f2633a7b5936321eed1cdaeb6115181d29060200160405180910390a15b5050505050505050565b606060016003018054610a0b90613d46565b80601f0160208091040260200160405190810160405280929190818152602001828054610a3790613d46565b8015610a845780601f10610a5957610100808354040283529160200191610a84565b820191906000526020600020905b815481529060010190602001808311610a6757829003601f168201915b5050505050905090565b610a9a82610534611cd7565b600003610af45781610aaa611cd7565b6040517fc1f03e250000000000000000000000000000000000000000000000000000000081526001600160a01b039283166004820152911660248201526044015b60405180910390fd5b610afe8282611fc2565b5050565b6000546040805163d09edf3160e01b81529051610b4d926001600160a01b03169163d09edf319160048083019260209291908290030181865afa158015610646573d6000803e3d6000fd5b610b588383836122e5565b6001600160a01b038084166000908152600660208181526040808420948716845293815283832085845290529190200154421015610b9b57610b9b8383836126e6565b505050565b606060016002018054610a0b90613d46565b600080546040517f572b6c050000000000000000000000000000000000000000000000000000000081526001600160a01b0384811660048301529091169063572b6c0590602401602060405180830381865afa158015610c16573d6000803e3d6000fd5b505050506040513d601f19601f820116820180604052508101906105a29190613d80565b6001600160a01b0382166000908152600a6020526040812090610c5b611cd7565b6001600160a01b031681526020810191909152604001600020541580610cc157506001600160a01b038216600090815260056020526040812090610c9d611cd7565b6001600160a01b03166001600160a01b031681526020019081526020016000205481115b15610d1b5781610ccf611cd7565b6040517fa4e07aad0000000000000000000000000000000000000000000000000000000081526001600160a01b0392831660048201529116602482015260448101829052606401610aeb565b600019610d3083610d2a611cd7565b846127dc565b03610d8a5781610d3e611cd7565b6040517fcb1657340000000000000000000000000000000000000000000000000000000081526001600160a01b0392831660048201529116602482015260448101829052606401610aeb565b610afe82610d96611cd7565b836122e5565b6000546040805163d09edf3160e01b81529051610de7926001600160a01b03169163d09edf319160048083019260209291908290030181865afa158015610646573d6000803e3d6000fd5b60008054906101000a90046001600160a01b03166001600160a01b031663d09edf316040518163ffffffff1660e01b8152600401602060405180830381865afa158015610e38573d6000803e3d6000fd5b505050506040513d601f19601f82011682018060405250810190610e5c9190613cb8565b6040517fe1788154000000000000000000000000000000000000000000000000000000008152600481018490526001600160a01b038381166024830152919091169063e1788154906044015b600060405180830381600087803b158015610ec257600080fd5b505af1158015610ed6573d6000803e3d6000fd5b505050505050565b6001600160a01b038083166000908152600a602090815260408083209385168352929052908120546060918491849103610f3e5760405163ddc9eeaf60e01b81526001600160a01b03808416600483015282166024820152604401610aeb565b6001600160a01b038086166000908152600a60209081526040808320938816835292815282822080548451818402810184019095528085529293929091830182828015610faa57602002820191906000526020600020905b815481526020019060010190808311610f96575b505050505090506000815190506000808267ffffffffffffffff811115610fd357610fd361391a565b60405190808252806020026020018201604052801561104d57816020015b61103a6040518060e0016040528060006001600160a01b031681526020016000815260200160008152602001600081526020016000815260200160008152602001600081525090565b815260200190600190039081610ff15790505b5090505b82821015611132576001600160a01b03808a166000908152600660209081526040808320938c168352929052908120855190919086908590811061109757611097613da2565b6020908102919091018101518252818101929092526040908101600020815160e08101835281546001600160a01b031681526001820154938101939093526002810154918301919091526003810154606083015260048101546080830152600581015460a08301526006015460c0820152815182908490811061111c5761111c613da2565b6020026020010181905250816001019150611051565b95505050505b505092915050565b6000546001600160a01b03166342f6e389611159611cd7565b6040517fffffffff0000000000000000000000000000000000000000000000000000000060e084901b1681526001600160a01b0390911660048201526024016020604051808303816000875af11580156111b7573d6000803e3d6000fd5b505050506040513d601f19601f820116820180604052508101906111db9190613d80565b611211576040517f3c9fdabb00000000000000000000000000000000000000000000000000000000815260040160405180910390fd5b80806001600160a01b0316611224611cd7565b6001600160a01b031614611264576040517fb78e756000000000000000000000000000000000000000000000000000000000815260040160405180910390fd5b610afe8261289f565b6001600160a01b0381166000908152600a602052604081209061128e611cd7565b6001600160a01b03168152602081019190915260400160009081205490036112b95780610aaa611cd7565b6112ca816112c5611cd7565b612950565b50565b60408051608081018252600180548252600254602083015260038054600094611418949392908401916112ff90613d46565b80601f016020809104026020016040519081016040528092919081815260200182805461132b90613d46565b80156113785780601f1061134d57610100808354040283529160200191611378565b820191906000526020600020905b81548152906001019060200180831161135b57829003601f168201915b5050505050815260200160038201805461139190613d46565b80601f01602080910402602001604051908101604052809291908181526020018280546113bd90613d46565b801561140a5780601f106113df5761010080835404028352916020019161140a565b820191906000526020600020905b8154815290600101906020018083116113ed57829003601f168201915b505050505081525050612a05565b905090565b60008060009054906101000a90046001600160a01b03166001600160a01b0316637da0a8776040518163ffffffff1660e01b8152600401602060405180830381865afa158015611471573d6000803e3d6000fd5b505050506040513d601f19601f820116820180604052508101906114189190613cb8565b6000546040805163d09edf3160e01b815290516114e0926001600160a01b03169163d09edf319160048083019260209291908290030181865afa158015610646573d6000803e3d6000fd5b60008054906101000a90046001600160a01b03166001600160a01b031663d09edf316040518163ffffffff1660e01b8152600401602060405180830381865afa158015611531573d6000803e3d6000fd5b505050506040513d601f19601f820116820180604052508101906115559190613cb8565b6040517fba66f9fc000000000000000000000000000000000000000000000000000000008152600481018490526001600160a01b038381166024830152919091169063ba66f9fc90604401610ea8565b6000546040805163d09edf3160e01b815290516115f0926001600160a01b03169163d09edf319160048083019260209291908290030181865afa158015610646573d6000803e3d6000fd5b6000196115fd8383612a45565b0361162e5760405163ddc9eeaf60e01b81526001600160a01b03808416600483015282166024820152604401610aeb565b610afe8282612b28565b6000546001600160a01b03166342f6e389611651611cd7565b6040517fffffffff0000000000000000000000000000000000000000000000000000000060e084901b1681526001600160a01b0390911660048201526024016020604051808303816000875af11580156116af573d6000803e3d6000fd5b505050506040513d601f19601f820116820180604052508101906116d39190613d80565b611709576040517f3c9fdabb00000000000000000000000000000000000000000000000000000000815260040160405180910390fd5b80806001600160a01b031661171c611cd7565b6001600160a01b03161461175c576040517fb78e756000000000000000000000000000000000000000000000000000000000815260040160405180910390fd5b6000826001600160a01b03166375fa0b766040518163ffffffff1660e01b8152600401600060405180830381865afa15801561179c573d6000803e3d6000fd5b505050506040513d6000823e601f3d908101601f191682016040526117c49190810190613ea5565b511115610afe576060806060846001600160a01b031663c0231ff66040518163ffffffff1660e01b81526004016000604051808303816000875af1158015611810573d6000803e3d6000fd5b505050506040513d6000823e601f3d908101601f191682016040526118389190810190613f44565b9194509250905060005b82518110156119465781818151811061185d5761185d613da2565b602002602001015183828151811061187757611877613da2565b60209081029190910101516040517f70a082310000000000000000000000000000000000000000000000000000000081526001600160a01b038981166004830152909116906370a0823190602401602060405180830381865afa1580156118e2573d6000803e3d6000fd5b505050506040513d601f19601f820116820180604052508101906119069190613cd5565b101561193e576040517fc4edc27800000000000000000000000000000000000000000000000000000000815260040160405180910390fd5b600101611842565b506000806000806000806000808a51905060005b81811015611b0c578b818151811061197457611974613da2565b60200260200101516000015198508b818151811061199457611994613da2565b6020026020010151602001519750600560008f6001600160a01b03166001600160a01b0316815260200190815260200160002060008a6001600160a01b03166001600160a01b031681526020019081526020016000205460016119f79190614020565b96508b8181518110611a0b57611a0b613da2565b60200260200101516040015195508b8181518110611a2b57611a2b613da2565b60200260200101516060015194508b8181518110611a4b57611a4b613da2565b60200260200101516080015193508b8181518110611a6b57611a6b613da2565b602002602001015160a001519250611a898e8a8a8a8a8a8a8a612c22565b876001600160a01b0316896001600160a01b03168f6001600160a01b03167fea1c63d513acfb910919dd0a23c98b1ee90a56f1fcf16c8774f6eb4819a8845c8a8a8a8a8a604051611afc959493929190948552602085019390935260408401919091526060830152608082015260a00190565b60405180910390a460010161195a565b5050505050505050505050505050565b6001600160a01b03808316600090815260076020908152604080832093851683529281528282208054845181840281018401909552808552929384939092830182828015611b8957602002820191906000526020600020905b815481526020019060010190808311611b75575b5050505050905060008151905080600003611ba9576000925050506105a2565b60005b81811015611c1e576001600160a01b03808716600090815260086020908152604080832093891683529290529081208451909190859084908110611bf257611bf2613da2565b602002602001015181526020019081526020016000205484611c149190614020565b9350600101611bac565b50505092915050565b6000611c3585858585612ef0565b90505b949350505050565b60007fffffffff0000000000000000000000000000000000000000000000000000000082167f179dfb450000000000000000000000000000000000000000000000000000000014806105a257507f01ffc9a7000000000000000000000000000000000000000000000000000000007fffffffff000000000000000000000000000000000000000000000000000000008316146105a2565b6000366014611ce533610bb2565b8015611cf15750808210155b15611d2157600036611d038385613ca5565b611d0e928290614033565b611d179161405d565b60601c9250505090565b339250505090565b60008054906101000a90046001600160a01b03166001600160a01b031663d09edf316040518163ffffffff1660e01b8152600401602060405180830381865afa158015611d7a573d6000803e3d6000fd5b505050506040513d601f19601f82011682018060405250810190611d9e9190613cb8565b6040517f91d14854000000000000000000000000000000000000000000000000000000008152600481018490526001600160a01b03838116602483015291909116906391d1485490604401602060405180830381865afa158015611e06573d6000803e3d6000fd5b505050506040513d601f19601f82011682018060405250810190611e2a9190613d80565b610afe576040517f42abbb77000000000000000000000000000000000000000000000000000000008152600481018390526001600160a01b0382166024820152604401610aeb565b611e7a612f9b565b6001600160a01b038216611eba576040517f7280679300000000000000000000000000000000000000000000000000000000815260040160405180910390fd5b6000805473ffffffffffffffffffffffffffffffffffffffff19166001600160a01b038416179055611eeb81613004565b611f21576040517f7511254100000000000000000000000000000000000000000000000000000000815260040160405180910390fd5b8051600190815560208201516002556040820151829190600390611f4590826140eb565b5060608201516003820190611f5a90826140eb565b5050506060810151604051611f6f91906141ab565b604080519182900382208351602080860151918552840152916001600160a01b038516917feb175f148a71d29a5f7bf5439182fcd81e6ea9cfc8a11b54ab0f705fa98fa8ca910160405180910390a35050565b600080611fcd611cd7565b6001600160a01b0380861660009081526007602090815260408083209385168352928152828220805484518184028101840190955280855294955091939083018282801561203a57602002820191906000526020600020905b815481526020019060010190808311612026575b505083519394506000925050505b81811015612116576001600160a01b0380881660009081526008602090815260408083209388168352929052908120845190919085908490811061208e5761208e613da2565b6020026020010151815260200190815260200160002054856120b09190614020565b6001600160a01b03808916600090815260086020908152604080832093891683529290529081208551929750918590849081106120ef576120ef613da2565b60200260200101518152602001908152602001600020600090558080600101915050612048565b506001600160a01b038087166000908152600760209081526040808320938716835292905290812061214791613798565b600080546001600160a01b03166001600160a01b03166304baed9e6040518163ffffffff1660e01b8152600401602060405180830381865afa158015612191573d6000803e3d6000fd5b505050506040513d601f19601f820116820180604052508101906121b59190613cb8565b6001600160a01b031663fc0c546a6040518163ffffffff1660e01b8152600401602060405180830381865afa1580156121f2573d6000803e3d6000fd5b505050506040513d601f19601f820116820180604052508101906122169190613cb8565b905061222d6001600160a01b038216888888613056565b806001600160a01b0316866001600160a01b03167f3737f2a73c794dafe53d8aeea06810a9ebcf7167401b259406960e088e03f8308760405161227291815260200190565b60405180910390a3604051631667d8c360e31b81526001600160a01b0382811660048301526024820187905288169063b33ec61890604401600060405180830381600087803b1580156122c457600080fd5b505af11580156122d8573d6000803e3d6000fd5b5050505050505050505050565b60006122f28484846105a8565b6001600160a01b0380861660009081526006602090815260408083209388168352928152828220868352905290812060030180549293508392909190612339908490614020565b90915550506001600160a01b0384811660008181526006602090815260408083208886168085529083528184208885528352818420548251602481019690965260448601919091526064808601889052825180870390910181526084909501825291840180517bffffffffffffffffffffffffffffffffffffffffffffffffffffffff167f23b872dd00000000000000000000000000000000000000000000000000000000179052519316929091829184916123f4916141ab565b6000604051808303816000865af19150503d8060008114612431576040519150601f19603f3d011682016040523d82523d6000602084013e612436565b606091505b50915091508180156124605750805115806124605750808060200190518101906124609190613d80565b1561251957826001600160a01b0316866001600160a01b03167f3737f2a73c794dafe53d8aeea06810a9ebcf7167401b259406960e088e03f830866040516124aa91815260200190565b60405180910390a3604051631667d8c360e31b81526001600160a01b0384811660048301526024820186905288169063b33ec61890604401600060405180830381600087803b1580156124fc57600080fd5b505af1158015612510573d6000803e3d6000fd5b505050506126a8565b604080516001600160a01b038881168252858116602083015291810187905260608101869052908816907f1233c88a83985cb9ecaf0cf1184c00ad4457d9bb5068bd5eae2ff26dc83e2a829060800160405180910390a26001600160a01b038088166000908152600760209081526040808320938a168352928152828220805484518184028101840190955280855292939290918301828280156125dc57602002820191906000526020600020905b8154815260200190600101908083116125c8575b505050505090506000805b82518110156126215782818151811061260257612602613da2565b602002602001015188036126195760019150612621565b6001016125e7565b5080612661576001600160a01b03808a166000908152600760209081526040808320938c1683529281529181208054600181018255908252919020018790555b6001600160a01b03808a166000908152600860209081526040808320938c1683529281528282208a8352905290812080548892906126a0908490614020565b909155505050505b6001600160a01b038088166000908152600660208181526040808420948b1684529381528383208984529052919020015442106107aa576107aa8787875b6126f18383836130de565b6001600160a01b0383811660008181526006602081815260408084209588168085529582528084208785528252808420805473ffffffffffffffffffffffffffffffffffffffff191681556001810185905560028101859055600381018590556004810185905560058101859055909201839055928252600a83528082209382529290915290812054900361278a5761278a83836132dc565b816001600160a01b0316836001600160a01b03167fe6a0687ee789528abb9aac335f8b10067233039efce66e64f52a6bd3fad134c5836040516127cf91815260200190565b60405180910390a3505050565b6001600160a01b038084166000908152600a602090815260408083209386168352928152828220805484518184028101840190955280855292938493909283018282801561284957602002820191906000526020600020905b815481526020019060010190808311612835575b505083519394506000925050505b81811015612891578483828151811061287257612872613da2565b6020026020010151036128895792506105f4915050565b600101612857565b506000199695505050505050565b6001600160a01b03811660009081526009602090815260408083208054825181850281018501909352808352919290919083018282801561290957602002820191906000526020600020905b81546001600160a01b031681526001909101906020018083116128eb575b505083519394506000925050505b8181101561294a576129428484838151811061293557612935613da2565b6020026020010151612b28565b600101612917565b50505050565b6001600160a01b038083166000908152600a602090815260408083209385168352928152828220805484518184028101840190955280855292939290918301828280156129bc57602002820191906000526020600020905b8154815260200190600101908083116129a8575b505083519394506000925050505b818110156129fe576129f685858584815181106129e9576129e9613da2565b60200260200101516122e5565b6001016129ca565b5050505050565b6000816000015182604001518360600151604051602001612a28939291906141c7565b604051602081830303815290604052805190602001209050919050565b6001600160a01b038216600090815260096020908152604080832080548251818502810185019093528083528493830182828015612aac57602002820191906000526020600020905b81546001600160a01b03168152600190910190602001808311612a8e575b5050506001600160a01b0387166000908152600960205260408120549394509150505b81811015612b1b57846001600160a01b0316838281518110612af357612af3613da2565b60200260200101516001600160a01b031603612b135792506105a2915050565b600101612acf565b5060001995945050505050565b6001600160a01b038083166000908152600a60209081526040808320938516835292815282822080548451818402810184019095528085529293929091830182828015612b9457602002820191906000526020600020905b815481526020019060010190808311612b80575b505050505090506000815190506000805b82821015610ed657838281518110612bbf57612bbf613da2565b60200260200101519050612bd48686836122e5565b6001600160a01b038087166000908152600660208181526040808420948a16845293815283832085845290529190200154421015612c1757612c178686836126e6565b816001019150612ba5565b612c2b87613419565b1580612c35575083155b80612c485750612c46838383613564565b155b80612c595750612c5786613589565b155b15612cbb576040805185815260208101859052908101839052606081018290526001600160a01b0380881691908916907f582c2b5b35eed32875449ab111488ccfa20c84f2e19de5c01d74ef20afac68959060800160405180910390a36109ef565b6001600160a01b038089166000908152600560209081526040808320938b1683529290529081208054909190612cf090614204565b919050819055506040518060e00160405280876001600160a01b031681526020018681526020018581526020016000815260200184815260200183815260200182815250600660008a6001600160a01b03166001600160a01b031681526020019081526020016000206000896001600160a01b03166001600160a01b03168152602001908152602001600020600087815260200190815260200160002060008201518160000160006101000a8154816001600160a01b0302191690836001600160a01b031602179055506020820151816001015560408201518160020155606082015181600301556080820151816004015560a0820151816005015560c08201518160060155905050600019612e068989612a45565b03612e57576001600160a01b03888116600090815260096020908152604082208054600181018255908352912001805473ffffffffffffffffffffffffffffffffffffffff19169189169190911790555b6001600160a01b038881166000818152600a602090815260408083208c86168085529083528184208054600181018255908552938390209093018a905580518a815291820189905281018790526060810186905260808101859052928916929091907f84837fd0db980d123add5802f72b60537592dccedc5fecb06d671aaeb50874d69060a00160405180910390a45050505050505050565b6001600160a01b03848116600090815260066020818152604080842094881684529381528383208684529052918120600281015460048201549382015460059092015492939092909190612f449083614020565b851015612f575760009350505050611c38565b808510612f6957829350505050611c38565b612f738282613ca5565b612f7d8387613ca5565b612f87908561421e565b612f919190614235565b9350505050611c38565b7ff0c57e16840df040f15088dc2f81fe391c3923bec73e23a9662efc9c229c6a005468010000000000000000900460ff16613002576040517fd7e6bcf800000000000000000000000000000000000000000000000000000000815260040160405180910390fd5b565b600081604001515160000361301b57506000919050565b81606001515160000361303057506000919050565b815115801561304157506020820151155b1561304e57506000919050565b506001919050565b604080516001600160a01b0385811660248301528416604482015260648082018490528251808303909101815260849091019091526020810180517bffffffffffffffffffffffffffffffffffffffffffffffffffffffff167f23b872dd0000000000000000000000000000000000000000000000000000000017905261294a9085906135e3565b60006130eb8484846127dc565b9050600019810361314b57836130ff611cd7565b6040517fcb1657340000000000000000000000000000000000000000000000000000000081526001600160a01b0392831660048201529116602482015260448101839052606401610aeb565b6001600160a01b038481166000908152600660209081526040808320878516845282528083208684529091528120805460038201546002909201549316926131939190613ca5565b905080156131fe57604051631667d8c360e31b81526001600160a01b0383811660048301526024820183905287169063b33ec61890604401600060405180830381600087803b1580156131e557600080fd5b505af11580156131f9573d6000803e3d6000fd5b505050505b6001600160a01b038681166000908152600a60209081526040808320938916835292905220805461323190600190613ca5565b8154811061324157613241613da2565b60009182526020808320909101546001600160a01b03808a168452600a83526040808520918a1685529252912080548590811061328057613280613da2565b60009182526020808320909101929092556001600160a01b038089168252600a8352604080832091891683529252208054806132be576132be614257565b60019003818190600052602060002001600090559055505050505050565b60006132e88383612a45565b9050600019810361331f5760405163ddc9eeaf60e01b81526001600160a01b03808516600483015283166024820152604401610aeb565b6001600160a01b0383166000908152600960205260409020805490613345600183613ca5565b8154811061335557613355613da2565b60009182526020808320909101546001600160a01b0387811684526009909252604090922080549190921691908490811061339257613392613da2565b6000918252602080832091909101805473ffffffffffffffffffffffffffffffffffffffff19166001600160a01b0394851617905591861681526009909152604090208054806133e4576133e4614257565b6000828152602090208101600019908101805473ffffffffffffffffffffffffffffffffffffffff1916905501905550505050565b60006001600160a01b03821615806134495750613434611cd7565b6001600160a01b0316826001600160a01b0316145b8061345c57506001600160a01b03821630145b8061347457506000546001600160a01b038381169116145b8061355d57506000546001600160a01b03166001600160a01b03166304baed9e6040518163ffffffff1660e01b8152600401602060405180830381865afa1580156134c3573d6000803e3d6000fd5b505050506040513d601f19601f820116820180604052508101906134e79190613cb8565b6001600160a01b031663fc0c546a6040518163ffffffff1660e01b8152600401602060405180830381865afa158015613524573d6000803e3d6000fd5b505050506040513d601f19601f820116820180604052508101906135489190613cb8565b6001600160a01b0316826001600160a01b0316145b1592915050565b6000600019841015801561358057508161357e8486614020565b115b15949350505050565b60006001600160a01b03821615806135b957506135a4611cd7565b6001600160a01b0316826001600160a01b0316145b806135cc57506001600160a01b03821630145b8061355d57506000546001600160a01b0316613548565b60006135f86001600160a01b0384168361365f565b9050805160001415801561361d57508080602001905181019061361b9190613d80565b155b15610b9b576040517f5274afe70000000000000000000000000000000000000000000000000000000081526001600160a01b0384166004820152602401610aeb565b60606105f48383600084600080856001600160a01b0316848660405161368591906141ab565b60006040518083038185875af1925050503d80600081146136c2576040519150601f19603f3d011682016040523d82523d6000602084013e6136c7565b606091505b50915091506136d78683836136e1565b9695505050505050565b6060826136f6576136f182613756565b6105f4565b815115801561370d57506001600160a01b0384163b155b1561374f576040517f9996b3150000000000000000000000000000000000000000000000000000000081526001600160a01b0385166004820152602401610aeb565b50806105f4565b8051156137665780518082602001fd5b6040517f1425ea4200000000000000000000000000000000000000000000000000000000815260040160405180910390fd5b50805460008255906000526020600020908101906112ca91905b808211156137c657600081556001016137b2565b5090565b6000602082840312156137dc57600080fd5b81357fffffffff00000000000000000000000000000000000000000000000000000000811681146105f457600080fd5b6001600160a01b03811681146112ca57600080fd5b60008060006060848603121561383657600080fd5b83356138418161380c565b925060208401356138518161380c565b929592945050506040919091013590565b60008060006040848603121561387757600080fd5b83359250602084013567ffffffffffffffff8082111561389657600080fd5b818601915086601f8301126138aa57600080fd5b8135818111156138b957600080fd5b8760208260051b85010111156138ce57600080fd5b6020830194508093505050509250925092565b600080604083850312156138f457600080fd5b82356138ff8161380c565b9150602083013561390f8161380c565b809150509250929050565b634e487b7160e01b600052604160045260246000fd5b6040516080810167ffffffffffffffff811182821017156139535761395361391a565b60405290565b60405160c0810167ffffffffffffffff811182821017156139535761395361391a565b604051601f8201601f1916810167ffffffffffffffff811182821017156139a5576139a561391a565b604052919050565b600082601f8301126139be57600080fd5b813567ffffffffffffffff8111156139d8576139d861391a565b6139eb6020601f19601f8401160161397c565b818152846020838601011115613a0057600080fd5b816020850160208301376000918101602001919091529392505050565b600080600060608486031215613a3257600080fd5b8335613a3d8161380c565b9250602084013567ffffffffffffffff80821115613a5a57600080fd5b9085019060808288031215613a6e57600080fd5b613a76613930565b8235815260208301356020820152604083013582811115613a9657600080fd5b613aa2898286016139ad565b604083015250606083013582811115613aba57600080fd5b613ac6898286016139ad565b60608301525093506040860135915080821115613ae257600080fd5b50613aef868287016139ad565b9150509250925092565b60005b83811015613b14578181015183820152602001613afc565b50506000910152565b6020815260008251806020840152613b3c816040850160208701613af9565b601f01601f19169190910160400192915050565b600060208284031215613b6257600080fd5b81356105f48161380c565b60008060408385031215613b8057600080fd5b8235613b8b8161380c565b946020939093013593505050565b60008060408385031215613bac57600080fd5b82359150602083013561390f8161380c565b602080825282518282018190526000919060409081850190868401855b82811015613c3c57815180516001600160a01b0316855286810151878601528581015186860152606080820151908601526080808201519086015260a0808201519086015260c0908101519085015260e09093019290850190600101613bdb565b5091979650505050505050565b60008060008060808587031215613c5f57600080fd5b8435613c6a8161380c565b93506020850135613c7a8161380c565b93969395505050506040820135916060013590565b634e487b7160e01b600052601160045260246000fd5b818103818111156105a2576105a2613c8f565b600060208284031215613cca57600080fd5b81516105f48161380c565b600060208284031215613ce757600080fd5b5051919050565b83815260406020808301829052908201839052600090849060608401835b86811015613d3a578335613d1f8161380c565b6001600160a01b031682529282019290820190600101613d0c565b50979650505050505050565b600181811c90821680613d5a57607f821691505b602082108103613d7a57634e487b7160e01b600052602260045260246000fd5b50919050565b600060208284031215613d9257600080fd5b815180151581146105f457600080fd5b634e487b7160e01b600052603260045260246000fd5b600067ffffffffffffffff821115613dd257613dd261391a565b5060051b60200190565b600082601f830112613ded57600080fd5b81516020613e02613dfd83613db8565b61397c565b82815260c09283028501820192828201919087851115613e2157600080fd5b8387015b85811015613e985781818a031215613e3d5760008081fd5b613e45613959565b8151613e508161380c565b815281860151613e5f8161380c565b8187015260408281015190820152606080830151908201526080808301519082015260a080830151908201528452928401928101613e25565b5090979650505050505050565b600060208284031215613eb757600080fd5b815167ffffffffffffffff811115613ece57600080fd5b611c3884828501613ddc565b600082601f830112613eeb57600080fd5b81516020613efb613dfd83613db8565b8083825260208201915060208460051b870101935086841115613f1d57600080fd5b602086015b84811015613f395780518352918301918301613f22565b509695505050505050565b600080600060608486031215613f5957600080fd5b835167ffffffffffffffff80821115613f7157600080fd5b613f7d87838801613ddc565b9450602091508186015181811115613f9457600080fd5b8601601f81018813613fa557600080fd5b8051613fb3613dfd82613db8565b81815260059190911b8201840190848101908a831115613fd257600080fd5b928501925b82841015613ff9578351613fea8161380c565b82529285019290850190613fd7565b60408a015190975094505050508082111561401357600080fd5b50613aef86828701613eda565b808201808211156105a2576105a2613c8f565b6000808585111561404357600080fd5b8386111561405057600080fd5b5050820193919092039150565b7fffffffffffffffffffffffffffffffffffffffff00000000000000000000000081358181169160148510156111385760149490940360031b84901b1690921692915050565b601f821115610b9b576000816000526020600020601f850160051c810160208610156140cc5750805b601f850160051c820191505b81811015610ed6578281556001016140d8565b815167ffffffffffffffff8111156141055761410561391a565b614119816141138454613d46565b846140a3565b602080601f83116001811461414e57600084156141365750858301515b600019600386901b1c1916600185901b178555610ed6565b600085815260208120601f198616915b8281101561417d5788860151825594840194600190910190840161415e565b508582101561419b5787850151600019600388901b60f8161c191681555b5050505050600190811b01905550565b600082516141bd818460208701613af9565b9190910192915050565b838152600083516141df816020850160208801613af9565b808301905083516141f7816020840160208801613af9565b0160200195945050505050565b6000600019820361421757614217613c8f565b5060010190565b80820281158282048414176105a2576105a2613c8f565b60008261425257634e487b7160e01b600052601260045260246000fd5b500490565b634e487b7160e01b600052603160045260246000fdfea2646970667358221220c1ecccc2e5829a07fc5f5f4ccac463b434bbef7c8eb84824eb2e7f223cddc0b064736f6c63430008170033",
    "linkReferences": {}
  },
  "methodIdentifiers": {
    "cancelRunningPayments(address)": "73d7764e",
    "claimAll(address)": "77329f35",
    "claimForSpecificStream(address,uint256)": "5eeede4d",
    "claimPreviouslyUnclaimable(address,address)": "4f1f12bd",
    "cliffForSpecificStream(address,address,uint256)": "cbe58ee2",
    "endForSpecificStream(address,address,uint256)": "4e6c76ae",
    "grantModuleRole(bytes32,address)": "6c67e807",
    "grantModuleRoleBatched(bytes32,address[])": "272bbd44",
    "identifier()": "7998a1c4",
    "init(address,(uint256,uint256,string,string),bytes)": "42dfe958",
    "isActivePaymentReceiver(address,address)": "410810cd",
    "isTrustedForwarder(address)": "572b6c05",
    "numStreams(address,address)": "5c9a6f5f",
    "orchestrator()": "b74795d9",
    "processPayments(address)": "e151fc61",
    "releasableForSpecificStream(address,address,uint256)": "1f2ac744",
    "releasedForSpecificStream(address,address,uint256)": "9e174994",
    "removeAllPaymentReceiverPayments(address,address)": "cb8e092f",
    "removePaymentForSpecificStream(address,address,uint256)": "54498314",
    "revokeModuleRole(bytes32,address)": "bcb61920",
    "revokeModuleRoleBatched(bytes32,address[])": "24e30270",
    "startForSpecificStream(address,address,uint256)": "c0893302",
    "streamedAmountForSpecificStream(address,address,uint256,uint256)": "f4a192b3",
    "supportsInterface(bytes4)": "01ffc9a7",
    "title()": "4a79d50c",
    "trustedForwarder()": "7da0a877",
    "unclaimable(address,address)": "e49bd91a",
    "url()": "5600f04f",
    "version()": "54fd4d50",
    "viewAllPaymentOrders(address,address)": "738e19a3"
  },
  "id": 165
}