{
  "abi": [
    {
      "type": "function",
      "name": "cancelRunningPayments",
      "inputs": [
        {
          "name": "client",
          "type": "address",
          "internalType": "contract IERC20PaymentClientBase_v1"
        }
      ],
      "outputs": [],
      "stateMutability": "view"
    },
    {
      "type": "function",
      "name": "claimPreviouslyUnclaimable",
      "inputs": [
        {
          "name": "client",
          "type": "address",
          "internalType": "address"
        },
        {
          "name": "token",
          "type": "address",
          "internalType": "address"
        },
        {
          "name": "receiver",
          "type": "address",
          "internalType": "address"
        }
      ],
      "outputs": [],
      "stateMutability": "nonpayable"
    },
    {
      "type": "function",
      "name": "grantModuleRole",
      "inputs": [
        {
          "name": "role",
          "type": "bytes32",
          "internalType": "bytes32"
        },
        {
          "name": "target",
          "type": "address",
          "internalType": "address"
        }
      ],
      "outputs": [],
      "stateMutability": "nonpayable"
    },
    {
      "type": "function",
      "name": "grantModuleRoleBatched",
      "inputs": [
        {
          "name": "role",
          "type": "bytes32",
          "internalType": "bytes32"
        },
        {
          "name": "targets",
          "type": "address[]",
          "internalType": "address[]"
        }
      ],
      "outputs": [],
      "stateMutability": "nonpayable"
    },
    {
      "type": "function",
      "name": "identifier",
      "inputs": [],
      "outputs": [
        {
          "name": "",
          "type": "bytes32",
          "internalType": "bytes32"
        }
      ],
      "stateMutability": "view"
    },
    {
      "type": "function",
      "name": "init",
      "inputs": [
        {
          "name": "orchestrator_",
          "type": "address",
          "internalType": "contract IOrchestrator_v1"
        },
        {
          "name": "metadata",
          "type": "tuple",
          "internalType": "struct IModule_v1.Metadata",
          "components": [
            {
              "name": "majorVersion",
              "type": "uint256",
              "internalType": "uint256"
            },
            {
              "name": "minorVersion",
              "type": "uint256",
              "internalType": "uint256"
            },
            {
              "name": "url",
              "type": "string",
              "internalType": "string"
            },
            {
              "name": "title",
              "type": "string",
              "internalType": "string"
            }
          ]
        },
        {
          "name": "",
          "type": "bytes",
          "internalType": "bytes"
        }
      ],
      "outputs": [],
      "stateMutability": "nonpayable"
    },
    {
      "type": "function",
      "name": "isTrustedForwarder",
      "inputs": [
        {
          "name": "forwarder",
          "type": "address",
          "internalType": "address"
        }
      ],
      "outputs": [
        {
          "name": "",
          "type": "bool",
          "internalType": "bool"
        }
      ],
      "stateMutability": "view"
    },
    {
      "type": "function",
      "name": "orchestrator",
      "inputs": [],
      "outputs": [
        {
          "name": "",
          "type": "address",
          "internalType": "contract IOrchestrator_v1"
        }
      ],
      "stateMutability": "view"
    },
    {
      "type": "function",
      "name": "processPayments",
      "inputs": [
        {
          "name": "client",
          "type": "address",
          "internalType": "contract IERC20PaymentClientBase_v1"
        }
      ],
      "outputs": [],
      "stateMutability": "nonpayable"
    },
    {
      "type": "function",
      "name": "revokeModuleRole",
      "inputs": [
        {
          "name": "role",
          "type": "bytes32",
          "internalType": "bytes32"
        },
        {
          "name": "target",
          "type": "address",
          "internalType": "address"
        }
      ],
      "outputs": [],
      "stateMutability": "nonpayable"
    },
    {
      "type": "function",
      "name": "revokeModuleRoleBatched",
      "inputs": [
        {
          "name": "role",
          "type": "bytes32",
          "internalType": "bytes32"
        },
        {
          "name": "targets",
          "type": "address[]",
          "internalType": "address[]"
        }
      ],
      "outputs": [],
      "stateMutability": "nonpayable"
    },
    {
      "type": "function",
      "name": "supportsInterface",
      "inputs": [
        {
          "name": "interfaceId",
          "type": "bytes4",
          "internalType": "bytes4"
        }
      ],
      "outputs": [
        {
          "name": "",
          "type": "bool",
          "internalType": "bool"
        }
      ],
      "stateMutability": "view"
    },
    {
      "type": "function",
      "name": "title",
      "inputs": [],
      "outputs": [
        {
          "name": "",
          "type": "string",
          "internalType": "string"
        }
      ],
      "stateMutability": "view"
    },
    {
      "type": "function",
      "name": "trustedForwarder",
      "inputs": [],
      "outputs": [
        {
          "name": "",
          "type": "address",
          "internalType": "address"
        }
      ],
      "stateMutability": "view"
    },
    {
      "type": "function",
      "name": "unclaimable",
      "inputs": [
        {
          "name": "client",
          "type": "address",
          "internalType": "address"
        },
        {
          "name": "token",
          "type": "address",
          "internalType": "address"
        },
        {
          "name": "paymentReceiver",
          "type": "address",
          "internalType": "address"
        }
      ],
      "outputs": [
        {
          "name": "amount",
          "type": "uint256",
          "internalType": "uint256"
        }
      ],
      "stateMutability": "view"
    },
    {
      "type": "function",
      "name": "url",
      "inputs": [],
      "outputs": [
        {
          "name": "",
          "type": "string",
          "internalType": "string"
        }
      ],
      "stateMutability": "view"
    },
    {
      "type": "function",
      "name": "version",
      "inputs": [],
      "outputs": [
        {
          "name": "",
          "type": "uint256",
          "internalType": "uint256"
        },
        {
          "name": "",
          "type": "uint256",
          "internalType": "uint256"
        }
      ],
      "stateMutability": "view"
    },
    {
      "type": "event",
      "name": "Initialized",
      "inputs": [
        {
          "name": "version",
          "type": "uint64",
          "indexed": false,
          "internalType": "uint64"
        }
      ],
      "anonymous": false
    },
    {
      "type": "event",
      "name": "ModuleInitialized",
      "inputs": [
        {
          "name": "parentOrchestrator",
          "type": "address",
          "indexed": true,
          "internalType": "address"
        },
        {
          "name": "moduleTitle",
          "type": "string",
          "indexed": true,
          "internalType": "string"
        },
        {
          "name": "majorVersion",
          "type": "uint256",
          "indexed": false,
          "internalType": "uint256"
        },
        {
          "name": "minorVersion",
          "type": "uint256",
          "indexed": false,
          "internalType": "uint256"
        }
      ],
      "anonymous": false
    },
    {
      "type": "event",
      "name": "PaymentOrderProcessed",
      "inputs": [
        {
          "name": "paymentClient",
          "type": "address",
          "indexed": true,
          "internalType": "address"
        },
        {
          "name": "recipient",
          "type": "address",
          "indexed": true,
          "internalType": "address"
        },
        {
          "name": "paymentToken",
          "type": "address",
          "indexed": true,
          "internalType": "address"
        },
        {
          "name": "amount",
          "type": "uint256",
          "indexed": false,
          "internalType": "uint256"
        },
        {
          "name": "start",
          "type": "uint256",
          "indexed": false,
          "internalType": "uint256"
        },
        {
          "name": "cliff",
          "type": "uint256",
          "indexed": false,
          "internalType": "uint256"
        },
        {
          "name": "end",
          "type": "uint256",
          "indexed": false,
          "internalType": "uint256"
        }
      ],
      "anonymous": false
    },
    {
      "type": "event",
      "name": "TokensReleased",
      "inputs": [
        {
          "name": "recipient",
          "type": "address",
          "indexed": true,
          "internalType": "address"
        },
        {
          "name": "token",
          "type": "address",
          "indexed": true,
          "internalType": "address"
        },
        {
          "name": "amount",
          "type": "uint256",
          "indexed": false,
          "internalType": "uint256"
        }
      ],
      "anonymous": false
    },
    {
      "type": "event",
      "name": "UnclaimableAmountAdded",
      "inputs": [
        {
          "name": "paymentClient",
          "type": "address",
          "indexed": true,
          "internalType": "address"
        },
        {
          "name": "token",
          "type": "address",
          "indexed": true,
          "internalType": "address"
        },
        {
          "name": "recipient",
          "type": "address",
          "indexed": true,
          "internalType": "address"
        },
        {
          "name": "amount",
          "type": "uint256",
          "indexed": false,
          "internalType": "uint256"
        }
      ],
      "anonymous": false
    },
    {
      "type": "error",
      "name": "AddressEmptyCode",
      "inputs": [
        {
          "name": "target",
          "type": "address",
          "internalType": "address"
        }
      ]
    },
    {
      "type": "error",
      "name": "AddressInsufficientBalance",
      "inputs": [
        {
          "name": "account",
          "type": "address",
          "internalType": "address"
        }
      ]
    },
    {
      "type": "error",
      "name": "FailedInnerCall",
      "inputs": []
    },
    {
      "type": "error",
      "name": "InvalidInitialization",
      "inputs": []
    },
    {
      "type": "error",
      "name": "Module_OrchestratorCallbackFailed",
      "inputs": [
        {
          "name": "funcSig",
          "type": "string",
          "internalType": "string"
        }
      ]
    },
    {
      "type": "error",
      "name": "Module__CallerNotAuthorized",
      "inputs": [
        {
          "name": "role",
          "type": "bytes32",
          "internalType": "bytes32"
        },
        {
          "name": "caller",
          "type": "address",
          "internalType": "address"
        }
      ]
    },
    {
      "type": "error",
      "name": "Module__InvalidMetadata",
      "inputs": []
    },
    {
      "type": "error",
      "name": "Module__InvalidOrchestratorAddress",
      "inputs": []
    },
    {
      "type": "error",
      "name": "Module__OnlyCallableByOrchestrator",
      "inputs": []
    },
    {
      "type": "error",
      "name": "Module__PaymentProcessor__CannotCallOnOtherClientsOrders",
      "inputs": []
    },
    {
      "type": "error",
      "name": "Module__PaymentProcessor__NothingToClaim",
      "inputs": [
        {
          "name": "paymentClient",
          "type": "address",
          "internalType": "address"
        },
        {
          "name": "paymentReceiver",
          "type": "address",
          "internalType": "address"
        }
      ]
    },
    {
      "type": "error",
      "name": "Module__PaymentProcessor__OnlyCallableByModule",
      "inputs": []
    },
    {
      "type": "error",
      "name": "NotInitializing",
      "inputs": []
    },
    {
      "type": "error",
      "name": "SafeERC20FailedOperation",
      "inputs": [
        {
          "name": "token",
          "type": "address",
          "internalType": "address"
        }
      ]
    }
  ],
  "bytecode": {
    "object": "0x60a060405234801561001057600080fd5b50600060805261001e610023565b6100d5565b7ff0c57e16840df040f15088dc2f81fe391c3923bec73e23a9662efc9c229c6a00805468010000000000000000900460ff16156100735760405163f92ee8a960e01b815260040160405180910390fd5b80546001600160401b03908116146100d25780546001600160401b0319166001600160401b0390811782556040519081527fc7f505b2f371ae2175ee4913f4499e1f2633a7b5936321eed1cdaeb6115181d29060200160405180910390a15b50565b608051612495620000ee600039600050506124956000f3fe608060405234801561001057600080fd5b506004361061010b5760003560e01c80636c67e807116100a257806381ac03671161007157806381ac03671461021a578063b74795d91461022d578063bcb619201461023e578063ceb43f5414610251578063e151fc611461026457600080fd5b80636c67e807146101be57806373d7764e146101d15780637998a1c4146101e45780637da0a877146101fa57600080fd5b80634a79d50c116100de5780634a79d50c1461017357806354fd4d50146101885780635600f04f146101a3578063572b6c05146101ab57600080fd5b806301ffc9a71461011057806324e3027014610138578063272bbd441461014d57806342dfe95814610160575b600080fd5b61012361011e366004611ba7565b610277565b60405190151581526020015b60405180910390f35b61014b610146366004611bd1565b6102a2565b005b61014b61015b366004611bd1565b610556565b61014b61016e366004611d68565b610732565b61017b610859565b60405161012f9190611e94565b6001546002546040805192835260208301919091520161012f565b61017b6108ee565b6101236101b9366004611ea7565b610900565b61014b6101cc366004611ec4565b61096f565b61014b6101df366004611ea7565b610b7d565b6101ec610c59565b60405190815260200161012f565b610202610da9565b6040516001600160a01b03909116815260200161012f565b61014b610228366004611ef4565b610e21565b6000546001600160a01b0316610202565b61014b61024c366004611ec4565b610e7f565b6101ec61025f366004611ef4565b611063565b61014b610272366004611ea7565b61109b565b60006001600160e01b03198216633767ad8760e21b148061029c575061029c82611536565b92915050565b600080546040805163d09edf3160e01b815290518693926001600160a01b03169163d09edf319160048083019260209291908290030181865afa1580156102ed573d6000803e3d6000fd5b505050506040513d601f19601f820116820180604052508101906103119190611f3f565b60405163fdd5205f60e01b8152306004820152602481018490526001600160a01b03919091169063fdd5205f906044016020604051808303816000875af1158015610360573d6000803e3d6000fd5b505050506040513d601f19601f820116820180604052508101906103849190611f5c565b905061047960008054906101000a90046001600160a01b03166001600160a01b031663d09edf316040518163ffffffff1660e01b8152600401602060405180830381865afa1580156103da573d6000803e3d6000fd5b505050506040513d601f19601f820116820180604052508101906103fe9190611f3f565b6001600160a01b031663248a9ca3836040518263ffffffff1660e01b815260040161042b91815260200190565b602060405180830381865afa158015610448573d6000803e3d6000fd5b505050506040513d601f19601f8201168201806040525081019061046c9190611f5c565b61047461156b565b6115bd565b60008054906101000a90046001600160a01b03166001600160a01b031663d09edf316040518163ffffffff1660e01b8152600401602060405180830381865afa1580156104ca573d6000803e3d6000fd5b505050506040513d601f19601f820116820180604052508101906104ee9190611f3f565b6001600160a01b0316637d540a648686866040518463ffffffff1660e01b815260040161051d93929190611f75565b600060405180830381600087803b15801561053757600080fd5b505af115801561054b573d6000803e3d6000fd5b505050505050505050565b600080546040805163d09edf3160e01b815290518693926001600160a01b03169163d09edf319160048083019260209291908290030181865afa1580156105a1573d6000803e3d6000fd5b505050506040513d601f19601f820116820180604052508101906105c59190611f3f565b60405163fdd5205f60e01b8152306004820152602481018490526001600160a01b03919091169063fdd5205f906044016020604051808303816000875af1158015610614573d6000803e3d6000fd5b505050506040513d601f19601f820116820180604052508101906106389190611f5c565b905061068e60008054906101000a90046001600160a01b03166001600160a01b031663d09edf316040518163ffffffff1660e01b8152600401602060405180830381865afa1580156103da573d6000803e3d6000fd5b60008054906101000a90046001600160a01b03166001600160a01b031663d09edf316040518163ffffffff1660e01b8152600401602060405180830381865afa1580156106df573d6000803e3d6000fd5b505050506040513d601f19601f820116820180604052508101906107039190611f3f565b6001600160a01b031663648154538686866040518463ffffffff1660e01b815260040161051d93929190611f75565b7ff0c57e16840df040f15088dc2f81fe391c3923bec73e23a9662efc9c229c6a00805468010000000000000000810460ff16159067ffffffffffffffff1660008115801561077d5750825b905060008267ffffffffffffffff16600114801561079a5750303b155b9050811580156107a8575080155b156107c65760405163f92ee8a960e01b815260040160405180910390fd5b845467ffffffffffffffff1916600117855583156107fa57845468ff00000000000000001916680100000000000000001785555b61080488886116d4565b831561084f57845468ff000000000000000019168555604051600181527fc7f505b2f371ae2175ee4913f4499e1f2633a7b5936321eed1cdaeb6115181d29060200160405180910390a15b5050505050505050565b60606001600301805461086b90611fcd565b80601f016020809104026020016040519081016040528092919081815260200182805461089790611fcd565b80156108e45780601f106108b9576101008083540402835291602001916108e4565b820191906000526020600020905b8154815290600101906020018083116108c757829003601f168201915b5050505050905090565b60606001600201805461086b90611fcd565b6000805460405163572b6c0560e01b81526001600160a01b0384811660048301529091169063572b6c0590602401602060405180830381865afa15801561094b573d6000803e3d6000fd5b505050506040513d601f19601f8201168201806040525081019061029c9190612007565b600080546040805163d09edf3160e01b815290518593926001600160a01b03169163d09edf319160048083019260209291908290030181865afa1580156109ba573d6000803e3d6000fd5b505050506040513d601f19601f820116820180604052508101906109de9190611f3f565b60405163fdd5205f60e01b8152306004820152602481018490526001600160a01b03919091169063fdd5205f906044016020604051808303816000875af1158015610a2d573d6000803e3d6000fd5b505050506040513d601f19601f82011682018060405250810190610a519190611f5c565b9050610aa760008054906101000a90046001600160a01b03166001600160a01b031663d09edf316040518163ffffffff1660e01b8152600401602060405180830381865afa1580156103da573d6000803e3d6000fd5b60008054906101000a90046001600160a01b03166001600160a01b031663d09edf316040518163ffffffff1660e01b8152600401602060405180830381865afa158015610af8573d6000803e3d6000fd5b505050506040513d601f19601f82011682018060405250810190610b1c9190611f3f565b60405163385e205560e21b8152600481018690526001600160a01b038581166024830152919091169063e1788154906044015b600060405180830381600087803b158015610b6957600080fd5b505af115801561084f573d6000803e3d6000fd5b6000546001600160a01b03166342f6e389610b9661156b565b6040516001600160e01b031960e084901b1681526001600160a01b039091166004820152602401602060405180830381865afa158015610bda573d6000803e3d6000fd5b505050506040513d601f19601f82011682018060405250810190610bfe9190612007565b610c1b57604051633c9fdabb60e01b815260040160405180910390fd5b80806001600160a01b0316610c2e61156b565b6001600160a01b031614610c55576040516305bc73ab60e51b815260040160405180910390fd5b5050565b60408051608081018252600180548252600254602083015260038054600094610da494939290840191610c8b90611fcd565b80601f0160208091040260200160405190810160405280929190818152602001828054610cb790611fcd565b8015610d045780601f10610cd957610100808354040283529160200191610d04565b820191906000526020600020905b815481529060010190602001808311610ce757829003601f168201915b50505050508152602001600382018054610d1d90611fcd565b80601f0160208091040260200160405190810160405280929190818152602001828054610d4990611fcd565b8015610d965780601f10610d6b57610100808354040283529160200191610d96565b820191906000526020600020905b815481529060010190602001808311610d7957829003601f168201915b5050505050815250506117f2565b905090565b60008060009054906101000a90046001600160a01b03166001600160a01b0316637da0a8776040518163ffffffff1660e01b8152600401602060405180830381865afa158015610dfd573d6000803e3d6000fd5b505050506040513d601f19601f82011682018060405250810190610da49190611f3f565b610e2e838361025f61156b565b600003610e6f5782610e3e61156b565b6040516307461ff560e51b81526001600160a01b039283166004820152911660248201526044015b60405180910390fd5b610e7a838383611832565b505050565b600080546040805163d09edf3160e01b815290518593926001600160a01b03169163d09edf319160048083019260209291908290030181865afa158015610eca573d6000803e3d6000fd5b505050506040513d601f19601f82011682018060405250810190610eee9190611f3f565b60405163fdd5205f60e01b8152306004820152602481018490526001600160a01b03919091169063fdd5205f906044016020604051808303816000875af1158015610f3d573d6000803e3d6000fd5b505050506040513d601f19601f82011682018060405250810190610f619190611f5c565b9050610fb760008054906101000a90046001600160a01b03166001600160a01b031663d09edf316040518163ffffffff1660e01b8152600401602060405180830381865afa1580156103da573d6000803e3d6000fd5b60008054906101000a90046001600160a01b03166001600160a01b031663d09edf316040518163ffffffff1660e01b8152600401602060405180830381865afa158015611008573d6000803e3d6000fd5b505050506040513d601f19601f8201168201806040525081019061102c9190611f3f565b604051632e99be7f60e21b8152600481018690526001600160a01b038581166024830152919091169063ba66f9fc90604401610b4f565b6001600160a01b03808416600090815260376020908152604080832086851684528252808320938516835292905220545b9392505050565b6000546001600160a01b03166342f6e3896110b461156b565b6040516001600160e01b031960e084901b1681526001600160a01b039091166004820152602401602060405180830381865afa1580156110f8573d6000803e3d6000fd5b505050506040513d601f19601f8201168201806040525081019061111c9190612007565b61113957604051633c9fdabb60e01b815260040160405180910390fd5b80806001600160a01b031661114c61156b565b6001600160a01b031614611173576040516305bc73ab60e51b815260040160405180910390fd5b6060826001600160a01b031663c0231ff66040518163ffffffff1660e01b81526004016000604051808303816000875af11580156111b5573d6000803e3d6000fd5b505050506040513d6000823e601f3d908101601f191682016040526111dd9190810190612124565b505080519091506000908190815b8181101561152d5784818151811061120557611205612257565b6020026020010151600001519350600085828151811061122757611227612257565b602002602001015160200151905085828151811061124757611247612257565b6020026020010151604001519350806001600160a01b0316856001600160a01b0316896001600160a01b03167f36ed9e7eb18c4c4cfa297b57647b5825c7e397033696da1fc5754e60ac948775878a87815181106112a7576112a7612257565b60200260200101516060015160008c89815181106112c7576112c7612257565b60209081029190910181015160a001516040805195865291850193909352830152606082015260800160405180910390a4604080516001600160a01b038a811660248301528781166044830152606480830188905283518084039091018152608490920183526020820180516001600160e01b03166323b872dd60e01b179052915160009283929085169161135c919061226d565b6000604051808303816000865af19150503d8060008114611399576040519150601f19603f3d011682016040523d82523d6000602084013e61139e565b606091505b50915091508180156113c85750805115806113c85750808060200190518101906113c89190612007565b1561148157826001600160a01b0316876001600160a01b03167f3737f2a73c794dafe53d8aeea06810a9ebcf7167401b259406960e088e03f8308860405161141291815260200190565b60405180910390a3604051631667d8c360e31b81526001600160a01b038481166004830152602482018890528b169063b33ec61890604401600060405180830381600087803b15801561146457600080fd5b505af1158015611478573d6000803e3d6000fd5b5050505061151f565b866001600160a01b0316836001600160a01b03168b6001600160a01b03167fbff6d112ab4c9d4a5f437492b210126678d87e510e41c7d8650c660302fb06b0896040516114d091815260200190565b60405180910390a46001600160a01b03808b16600090815260376020908152604080832087851684528252808320938b168352929052908120805488929061151990849061229f565b90915550505b5050508060010190506111eb565b50505050505050565b60006001600160e01b0319821663179dfb4560e01b148061029c57506301ffc9a760e01b6001600160e01b031983161461029c565b600036601461157933610900565b80156115855750808210155b156115b55760003661159783856122b2565b6115a29282906122c5565b6115ab916122ef565b60601c9250505090565b339250505090565b60008054906101000a90046001600160a01b03166001600160a01b031663d09edf316040518163ffffffff1660e01b8152600401602060405180830381865afa15801561160e573d6000803e3d6000fd5b505050506040513d601f19601f820116820180604052508101906116329190611f3f565b604051632474521560e21b8152600481018490526001600160a01b03838116602483015291909116906391d1485490604401602060405180830381865afa158015611681573d6000803e3d6000fd5b505050506040513d601f19601f820116820180604052508101906116a59190612007565b610c55576040516342abbb7760e01b8152600481018390526001600160a01b0382166024820152604401610e66565b6116dc611938565b6001600160a01b03821661170357604051637280679360e01b815260040160405180910390fd5b6000805473ffffffffffffffffffffffffffffffffffffffff19166001600160a01b03841617905561173481611988565b61175157604051637511254160e01b815260040160405180910390fd5b80516001908155602082015160025560408201518291906003906117759082612374565b506060820151600382019061178a9082612374565b505050606081015160405161179f919061226d565b604080519182900382208351602080860151918552840152916001600160a01b038516917feb175f148a71d29a5f7bf5439182fcd81e6ea9cfc8a11b54ab0f705fa98fa8ca910160405180910390a35050565b600081600001518260400151836060015160405160200161181593929190612434565b604051602081830303815290604052805190602001209050919050565b600061183c61156b565b6001600160a01b038581166000818152603760209081526040808320898616808552908352818420958716845294909152808220805492905551631667d8c360e31b81526004810193909352602483018190529293509063b33ec61890604401600060405180830381600087803b1580156118b657600080fd5b505af11580156118ca573d6000803e3d6000fd5b506118e4925050506001600160a01b0385168685846119da565b836001600160a01b0316836001600160a01b03167f3737f2a73c794dafe53d8aeea06810a9ebcf7167401b259406960e088e03f8308360405161192991815260200190565b60405180910390a35050505050565b7ff0c57e16840df040f15088dc2f81fe391c3923bec73e23a9662efc9c229c6a005468010000000000000000900460ff1661198657604051631afcd79f60e31b815260040160405180910390fd5b565b600081604001515160000361199f57506000919050565b8160600151516000036119b457506000919050565b81511580156119c557506020820151155b156119d257506000919050565b506001919050565b604080516001600160a01b0385811660248301528416604482015260648082018490528251808303909101815260849091019091526020810180516001600160e01b03166323b872dd60e01b179052611a34908590611a3a565b50505050565b6000611a4f6001600160a01b03841683611a9d565b90508051600014158015611a74575080806020019051810190611a729190612007565b155b15610e7a57604051635274afe760e01b81526001600160a01b0384166004820152602401610e66565b60606110948383600084600080856001600160a01b03168486604051611ac3919061226d565b60006040518083038185875af1925050503d8060008114611b00576040519150601f19603f3d011682016040523d82523d6000602084013e611b05565b606091505b5091509150611b15868383611b1f565b9695505050505050565b606082611b3457611b2f82611b7b565b611094565b8151158015611b4b57506001600160a01b0384163b155b15611b7457604051639996b31560e01b81526001600160a01b0385166004820152602401610e66565b5080611094565b805115611b8b5780518082602001fd5b604051630a12f52160e11b815260040160405180910390fd5b50565b600060208284031215611bb957600080fd5b81356001600160e01b03198116811461109457600080fd5b600080600060408486031215611be657600080fd5b83359250602084013567ffffffffffffffff80821115611c0557600080fd5b818601915086601f830112611c1957600080fd5b813581811115611c2857600080fd5b8760208260051b8501011115611c3d57600080fd5b6020830194508093505050509250925092565b6001600160a01b0381168114611ba457600080fd5b634e487b7160e01b600052604160045260246000fd5b6040516080810167ffffffffffffffff81118282101715611c9e57611c9e611c65565b60405290565b60405160c0810167ffffffffffffffff81118282101715611c9e57611c9e611c65565b604051601f8201601f1916810167ffffffffffffffff81118282101715611cf057611cf0611c65565b604052919050565b600082601f830112611d0957600080fd5b813567ffffffffffffffff811115611d2357611d23611c65565b611d36601f8201601f1916602001611cc7565b818152846020838601011115611d4b57600080fd5b816020850160208301376000918101602001919091529392505050565b600080600060608486031215611d7d57600080fd5b8335611d8881611c50565b9250602084013567ffffffffffffffff80821115611da557600080fd5b9085019060808288031215611db957600080fd5b611dc1611c7b565b8235815260208301356020820152604083013582811115611de157600080fd5b611ded89828601611cf8565b604083015250606083013582811115611e0557600080fd5b611e1189828601611cf8565b60608301525093506040860135915080821115611e2d57600080fd5b50611e3a86828701611cf8565b9150509250925092565b60005b83811015611e5f578181015183820152602001611e47565b50506000910152565b60008151808452611e80816020860160208601611e44565b601f01601f19169290920160200192915050565b6020815260006110946020830184611e68565b600060208284031215611eb957600080fd5b813561109481611c50565b60008060408385031215611ed757600080fd5b823591506020830135611ee981611c50565b809150509250929050565b600080600060608486031215611f0957600080fd5b8335611f1481611c50565b92506020840135611f2481611c50565b91506040840135611f3481611c50565b809150509250925092565b600060208284031215611f5157600080fd5b815161109481611c50565b600060208284031215611f6e57600080fd5b5051919050565b83815260406020808301829052908201839052600090849060608401835b86811015611fc1578335611fa681611c50565b6001600160a01b031682529282019290820190600101611f93565b50979650505050505050565b600181811c90821680611fe157607f821691505b60208210810361200157634e487b7160e01b600052602260045260246000fd5b50919050565b60006020828403121561201957600080fd5b8151801515811461109457600080fd5b600067ffffffffffffffff82111561204357612043611c65565b5060051b60200190565b600082601f83011261205e57600080fd5b8151602061207361206e83612029565b611cc7565b8083825260208201915060208460051b87010193508684111561209557600080fd5b602086015b848110156120ba5780516120ad81611c50565b835291830191830161209a565b509695505050505050565b600082601f8301126120d657600080fd5b815160206120e661206e83612029565b8083825260208201915060208460051b87010193508684111561210857600080fd5b602086015b848110156120ba578051835291830191830161210d565b6000806000606080858703121561213a57600080fd5b845167ffffffffffffffff8082111561215257600080fd5b818701915087601f83011261216657600080fd5b8151602061217661206e83612029565b82815260c0928302850182019282820191908c85111561219557600080fd5b958301955b8487101561220d5780878e0312156121b25760008081fd5b6121ba611ca4565b87516121c581611c50565b8152878501516121d481611c50565b818601526040888101519082015288880151898201526080808901519082015260a080890151908201528352958601959183019161219a565b50918a015191985090945050508083111561222757600080fd5b6122338884890161204d565b9450604087015192508083111561224957600080fd5b5050611e3a868287016120c5565b634e487b7160e01b600052603260045260246000fd5b6000825161227f818460208701611e44565b9190910192915050565b634e487b7160e01b600052601160045260246000fd5b8082018082111561029c5761029c612289565b8181038181111561029c5761029c612289565b600080858511156122d557600080fd5b838611156122e257600080fd5b5050820193919092039150565b6bffffffffffffffffffffffff19813581811691601485101561231c5780818660140360031b1b83161692505b505092915050565b601f821115610e7a576000816000526020600020601f850160051c8101602086101561234d5750805b601f850160051c820191505b8181101561236c57828155600101612359565b505050505050565b815167ffffffffffffffff81111561238e5761238e611c65565b6123a28161239c8454611fcd565b84612324565b602080601f8311600181146123d757600084156123bf5750858301515b600019600386901b1c1916600185901b17855561236c565b600085815260208120601f198616915b82811015612406578886015182559484019460019091019084016123e7565b50858210156124245787850151600019600388901b60f8161c191681555b5050505050600190811b01905550565b83815260606020820152600061244d6060830185611e68565b8281036040840152611b158185611e6856fea2646970667358221220fcdc28f7089849d4f394fa903600a63bf5d6f83ce1cbe1cdc9bca21a3c0a785564736f6c63430008170033",
    "linkReferences": {}
  },
  "methodIdentifiers": {
    "cancelRunningPayments(address)": "73d7764e",
    "claimPreviouslyUnclaimable(address,address,address)": "81ac0367",
    "grantModuleRole(bytes32,address)": "6c67e807",
    "grantModuleRoleBatched(bytes32,address[])": "272bbd44",
    "identifier()": "7998a1c4",
    "init(address,(uint256,uint256,string,string),bytes)": "42dfe958",
    "isTrustedForwarder(address)": "572b6c05",
    "orchestrator()": "b74795d9",
    "processPayments(address)": "e151fc61",
    "revokeModuleRole(bytes32,address)": "bcb61920",
    "revokeModuleRoleBatched(bytes32,address[])": "24e30270",
    "supportsInterface(bytes4)": "01ffc9a7",
    "title()": "4a79d50c",
    "trustedForwarder()": "7da0a877",
    "unclaimable(address,address,address)": "ceb43f54",
    "url()": "5600f04f",
    "version()": "54fd4d50"
  },
  "id": 163
}